{
  "_format": "hh-sol-artifact-1",
  "contractName": "SchoolManagementSystem",
  "sourceName": "contracts/StudentManagementSystem.sol",
  "abi": [
    {
      "inputs": [],
      "name": "INVALID_ID",
      "type": "error"
    },
    {
      "inputs": [],
      "name": "INVALID_SENDER",
      "type": "error"
    },
    {
      "inputs": [],
      "name": "STUDENT_NOT_FOUND",
      "type": "error"
    },
    {
      "inputs": [
        {
          "internalType": "uint256",
          "name": "_student_id",
          "type": "uint256"
        }
      ],
      "name": "delete_student",
      "outputs": [],
      "stateMutability": "nonpayable",
      "type": "function"
    },
    {
      "inputs": [],
      "name": "get_all_students",
      "outputs": [
        {
          "components": [
            {
              "internalType": "uint256",
              "name": "id",
              "type": "uint256"
            },
            {
              "internalType": "string",
              "name": "name",
              "type": "string"
            },
            {
              "internalType": "string",
              "name": "course",
              "type": "string"
            },
            {
              "internalType": "uint256",
              "name": "age",
              "type": "uint256"
            },
            {
              "internalType": "enum SchoolManagementSystem.Status",
              "name": "status",
              "type": "uint8"
            },
            {
              "internalType": "address",
              "name": "studentAddress",
              "type": "address"
            }
          ],
          "internalType": "struct SchoolManagementSystem.StudentDetails[]",
          "name": "",
          "type": "tuple[]"
        }
      ],
      "stateMutability": "view",
      "type": "function"
    },
    {
      "inputs": [
        {
          "internalType": "address",
          "name": "_student_address",
          "type": "address"
        }
      ],
      "name": "get_student_by_address",
      "outputs": [
        {
          "components": [
            {
              "internalType": "uint256",
              "name": "id",
              "type": "uint256"
            },
            {
              "internalType": "string",
              "name": "name",
              "type": "string"
            },
            {
              "internalType": "string",
              "name": "course",
              "type": "string"
            },
            {
              "internalType": "uint256",
              "name": "age",
              "type": "uint256"
            },
            {
              "internalType": "enum SchoolManagementSystem.Status",
              "name": "status",
              "type": "uint8"
            },
            {
              "internalType": "address",
              "name": "studentAddress",
              "type": "address"
            }
          ],
          "internalType": "struct SchoolManagementSystem.StudentDetails",
          "name": "",
          "type": "tuple"
        }
      ],
      "stateMutability": "view",
      "type": "function"
    },
    {
      "inputs": [
        {
          "internalType": "uint256",
          "name": "_student_id",
          "type": "uint256"
        }
      ],
      "name": "get_student_by_id",
      "outputs": [
        {
          "components": [
            {
              "internalType": "uint256",
              "name": "id",
              "type": "uint256"
            },
            {
              "internalType": "string",
              "name": "name",
              "type": "string"
            },
            {
              "internalType": "string",
              "name": "course",
              "type": "string"
            },
            {
              "internalType": "uint256",
              "name": "age",
              "type": "uint256"
            },
            {
              "internalType": "enum SchoolManagementSystem.Status",
              "name": "status",
              "type": "uint8"
            },
            {
              "internalType": "address",
              "name": "studentAddress",
              "type": "address"
            }
          ],
          "internalType": "struct SchoolManagementSystem.StudentDetails",
          "name": "",
          "type": "tuple"
        }
      ],
      "stateMutability": "view",
      "type": "function"
    },
    {
      "inputs": [
        {
          "internalType": "string",
          "name": "_name",
          "type": "string"
        },
        {
          "internalType": "string",
          "name": "_course",
          "type": "string"
        },
        {
          "internalType": "uint256",
          "name": "_age",
          "type": "uint256"
        }
      ],
      "name": "register_student",
      "outputs": [],
      "stateMutability": "nonpayable",
      "type": "function"
    },
    {
      "inputs": [
        {
          "internalType": "uint256",
          "name": "",
          "type": "uint256"
        }
      ],
      "name": "students",
      "outputs": [
        {
          "internalType": "uint256",
          "name": "id",
          "type": "uint256"
        },
        {
          "internalType": "string",
          "name": "name",
          "type": "string"
        },
        {
          "internalType": "string",
          "name": "course",
          "type": "string"
        },
        {
          "internalType": "uint256",
          "name": "age",
          "type": "uint256"
        },
        {
          "internalType": "enum SchoolManagementSystem.Status",
          "name": "status",
          "type": "uint8"
        },
        {
          "internalType": "address",
          "name": "studentAddress",
          "type": "address"
        }
      ],
      "stateMutability": "view",
      "type": "function"
    },
    {
      "inputs": [
        {
          "internalType": "uint256",
          "name": "_student_id",
          "type": "uint256"
        },
        {
          "internalType": "string",
          "name": "_new_name",
          "type": "string"
        }
      ],
      "name": "update_student",
      "outputs": [],
      "stateMutability": "nonpayable",
      "type": "function"
    },
    {
      "inputs": [
        {
          "internalType": "uint256",
          "name": "_student_id",
          "type": "uint256"
        },
        {
          "internalType": "enum SchoolManagementSystem.Status",
          "name": "_new_status",
          "type": "uint8"
        }
      ],
      "name": "update_students_status",
      "outputs": [],
      "stateMutability": "nonpayable",
      "type": "function"
    }
  ],
  "bytecode": "0x6080604052348015600f57600080fd5b506123758061001f6000396000f3fe608060405234801561001057600080fd5b50600436106100885760003560e01c80633f09a5381161005b5780633f09a538146101185780638f3354fe14610134578063c26294ba14610164578063c9b729271461019457610088565b806306ead22e1461008d57806315c5f3e3146100c25780632773a286146100de5780633ab9a9ec146100fa575b600080fd5b6100a760048036038101906100a291906115c0565b6101b0565b6040516100b996959493929190611744565b60405180910390f35b6100dc60048036038101906100d791906117d8565b610339565b005b6100f860048036038101906100f3919061194d565b61058d565b005b610102610765565b60405161010f9190611b72565b60405180910390f35b610132600480360381019061012d91906115c0565b61098d565b005b61014e600480360381019061014991906115c0565b610be2565b60405161015b9190611c24565b60405180910390f35b61017e60048036038101906101799190611c72565b610e69565b60405161018b9190611c24565b60405180910390f35b6101ae60048036038101906101a99190611c9f565b61115a565b005b600281815481106101c057600080fd5b90600052602060002090600502016000915090508060000154908060010180546101e990611d59565b80601f016020809104026020016040519081016040528092919081815260200182805461021590611d59565b80156102625780601f1061023757610100808354040283529160200191610262565b820191906000526020600020905b81548152906001019060200180831161024557829003601f168201915b50505050509080600201805461027790611d59565b80601f01602080910402602001604051908101604052809291908181526020018280546102a390611d59565b80156102f05780601f106102c5576101008083540402835291602001916102f0565b820191906000526020600020905b8154815290600101906020018083116102d357829003601f168201915b5050505050908060030154908060040160009054906101000a900460ff16908060040160019054906101000a900473ffffffffffffffffffffffffffffffffffffffff16905086565b600280549050821115610381576040517f08c379a000000000000000000000000000000000000000000000000000000000815260040161037890611dd6565b60405180910390fd5b600073ffffffffffffffffffffffffffffffffffffffff166000803373ffffffffffffffffffffffffffffffffffffffff1673ffffffffffffffffffffffffffffffffffffffff16815260200190815260200160002060040160019054906101000a900473ffffffffffffffffffffffffffffffffffffffff1673ffffffffffffffffffffffffffffffffffffffff1603610451576040517f08c379a000000000000000000000000000000000000000000000000000000000815260040161044890611e42565b60405180910390fd5b60005b60028054905081101561055657826002828154811061047657610475611e62565b5b906000526020600020906005020160000154036105495781600282815481106104a2576104a1611e62565b5b906000526020600020906005020160040160006101000a81548160ff021916908360028111156104d5576104d461168c565b5b0217905550816000803373ffffffffffffffffffffffffffffffffffffffff1673ffffffffffffffffffffffffffffffffffffffff16815260200190815260200160002060040160006101000a81548160ff0219169083600281111561053e5761053d61168c565b5b021790555050610589565b8080600101915050610454565b506040517f5a9e653400000000000000000000000000000000000000000000000000000000815260040160405180910390fd5b5050565b600073ffffffffffffffffffffffffffffffffffffffff166000803373ffffffffffffffffffffffffffffffffffffffff1673ffffffffffffffffffffffffffffffffffffffff16815260200190815260200160002060040160019054906101000a900473ffffffffffffffffffffffffffffffffffffffff1673ffffffffffffffffffffffffffffffffffffffff160361065d576040517f08c379a000000000000000000000000000000000000000000000000000000000815260040161065490611e42565b60405180910390fd5b60005b60028054905081101561072e57826002828154811061068257610681611e62565b5b906000526020600020906005020160000154036107215781600282815481106106ae576106ad611e62565b5b906000526020600020906005020160010190816106cb919061203d565b50816000803373ffffffffffffffffffffffffffffffffffffffff1673ffffffffffffffffffffffffffffffffffffffff168152602001908152602001600020600101908161071a919061203d565b5050610761565b8080600101915050610660565b506040517faca0832a00000000000000000000000000000000000000000000000000000000815260040160405180910390fd5b5050565b60606002805480602002602001604051908101604052809291908181526020016000905b8282101561098457838290600052602060002090600502016040518060c0016040529081600082015481526020016001820180546107c690611d59565b80601f01602080910402602001604051908101604052809291908181526020018280546107f290611d59565b801561083f5780601f106108145761010080835404028352916020019161083f565b820191906000526020600020905b81548152906001019060200180831161082257829003601f168201915b5050505050815260200160028201805461085890611d59565b80601f016020809104026020016040519081016040528092919081815260200182805461088490611d59565b80156108d15780601f106108a6576101008083540402835291602001916108d1565b820191906000526020600020905b8154815290600101906020018083116108b457829003601f168201915b50505050508152602001600382015481526020016004820160009054906101000a900460ff1660028111156109095761090861168c565b5b600281111561091b5761091a61168c565b5b81526020016004820160019054906101000a900473ffffffffffffffffffffffffffffffffffffffff1673ffffffffffffffffffffffffffffffffffffffff1673ffffffffffffffffffffffffffffffffffffffff168152505081526020019060010190610789565b50505050905090565b60005b600280549050811015610bac5781600282815481106109b2576109b1611e62565b5b90600052602060002090600502016000015403610b9f57600260016002805490506109dd919061213e565b815481106109ee576109ed611e62565b5b906000526020600020906005020160028281548110610a1057610a0f611e62565b5b90600052602060002090600502016000820154816000015560018201816001019081610a3c9190612188565b5060028201816002019081610a519190612188565b50600382015481600301556004820160009054906101000a900460ff168160040160006101000a81548160ff02191690836002811115610a9457610a9361168c565b5b02179055506004820160019054906101000a900473ffffffffffffffffffffffffffffffffffffffff168160040160016101000a81548173ffffffffffffffffffffffffffffffffffffffff021916908373ffffffffffffffffffffffffffffffffffffffff1602179055509050506002805480610b1557610b14612270565b5b6001900381819060005260206000209060050201600080820160009055600182016000610b4291906114bb565b600282016000610b5291906114bb565b60038201600090556004820160006101000a81549060ff02191690556004820160016101000a81549073ffffffffffffffffffffffffffffffffffffffff02191690555050905550610bdf565b8080600101915050610990565b506040517faca0832a00000000000000000000000000000000000000000000000000000000815260040160405180910390fd5b50565b610bea6114fb565b60005b600280549050811015610e31578260028281548110610c0f57610c0e611e62565b5b90600052602060002090600502016000015403610e245760028181548110610c3a57610c39611e62565b5b90600052602060002090600502016040518060c001604052908160008201548152602001600182018054610c6d90611d59565b80601f0160208091040260200160405190810160405280929190818152602001828054610c9990611d59565b8015610ce65780601f10610cbb57610100808354040283529160200191610ce6565b820191906000526020600020905b815481529060010190602001808311610cc957829003601f168201915b50505050508152602001600282018054610cff90611d59565b80601f0160208091040260200160405190810160405280929190818152602001828054610d2b90611d59565b8015610d785780601f10610d4d57610100808354040283529160200191610d78565b820191906000526020600020905b815481529060010190602001808311610d5b57829003601f168201915b50505050508152602001600382015481526020016004820160009054906101000a900460ff166002811115610db057610daf61168c565b5b6002811115610dc257610dc161168c565b5b81526020016004820160019054906101000a900473ffffffffffffffffffffffffffffffffffffffff1673ffffffffffffffffffffffffffffffffffffffff1673ffffffffffffffffffffffffffffffffffffffff1681525050915050610e64565b8080600101915050610bed565b506040517faca0832a00000000000000000000000000000000000000000000000000000000815260040160405180910390fd5b919050565b610e716114fb565b600073ffffffffffffffffffffffffffffffffffffffff166000803373ffffffffffffffffffffffffffffffffffffffff1673ffffffffffffffffffffffffffffffffffffffff16815260200190815260200160002060040160019054906101000a900473ffffffffffffffffffffffffffffffffffffffff1673ffffffffffffffffffffffffffffffffffffffff1603610f41576040517f08c379a0000000000000000000000000000000000000000000000000000000008152600401610f3890611e42565b60405180910390fd5b6000808373ffffffffffffffffffffffffffffffffffffffff1673ffffffffffffffffffffffffffffffffffffffff1681526020019081526020016000206040518060c001604052908160008201548152602001600182018054610fa490611d59565b80601f0160208091040260200160405190810160405280929190818152602001828054610fd090611d59565b801561101d5780601f10610ff25761010080835404028352916020019161101d565b820191906000526020600020905b81548152906001019060200180831161100057829003601f168201915b5050505050815260200160028201805461103690611d59565b80601f016020809104026020016040519081016040528092919081815260200182805461106290611d59565b80156110af5780601f10611084576101008083540402835291602001916110af565b820191906000526020600020905b81548152906001019060200180831161109257829003601f168201915b50505050508152602001600382015481526020016004820160009054906101000a900460ff1660028111156110e7576110e661168c565b5b60028111156110f9576110f861168c565b5b81526020016004820160019054906101000a900473ffffffffffffffffffffffffffffffffffffffff1673ffffffffffffffffffffffffffffffffffffffff1673ffffffffffffffffffffffffffffffffffffffff16815250509050919050565b60018054611168919061229f565b600181905550600073ffffffffffffffffffffffffffffffffffffffff166000803373ffffffffffffffffffffffffffffffffffffffff1673ffffffffffffffffffffffffffffffffffffffff16815260200190815260200160002060040160019054906101000a900473ffffffffffffffffffffffffffffffffffffffff1673ffffffffffffffffffffffffffffffffffffffff161461123e576040517f08c379a00000000000000000000000000000000000000000000000000000000081526004016112359061231f565b60405180910390fd5b6112466114fb565b600154816000018181525050838160200181905250828160400181905250818160600181815250506000816080019060028111156112875761128661168c565b5b9081600281111561129b5761129a61168c565b5b81525050338160a0019073ffffffffffffffffffffffffffffffffffffffff16908173ffffffffffffffffffffffffffffffffffffffff16815250506002819080600181540180825580915050600190039060005260206000209060050201600090919091909150600082015181600001556020820151816001019081611322919061203d565b506040820151816002019081611338919061203d565b506060820151816003015560808201518160040160006101000a81548160ff0219169083600281111561136e5761136d61168c565b5b021790555060a08201518160040160016101000a81548173ffffffffffffffffffffffffffffffffffffffff021916908373ffffffffffffffffffffffffffffffffffffffff1602179055505050806000803373ffffffffffffffffffffffffffffffffffffffff1673ffffffffffffffffffffffffffffffffffffffff16815260200190815260200160002060008201518160000155602082015181600101908161141a919061203d565b506040820151816002019081611430919061203d565b506060820151816003015560808201518160040160006101000a81548160ff021916908360028111156114665761146561168c565b5b021790555060a08201518160040160016101000a81548173ffffffffffffffffffffffffffffffffffffffff021916908373ffffffffffffffffffffffffffffffffffffffff16021790555090505050505050565b5080546114c790611d59565b6000825580601f106114d957506114f8565b601f0160209004906000526020600020908101906114f79190611559565b5b50565b6040518060c0016040528060008152602001606081526020016060815260200160008152602001600060028111156115365761153561168c565b5b8152602001600073ffffffffffffffffffffffffffffffffffffffff1681525090565b5b8082111561157257600081600090555060010161155a565b5090565b6000604051905090565b600080fd5b600080fd5b6000819050919050565b61159d8161158a565b81146115a857600080fd5b50565b6000813590506115ba81611594565b92915050565b6000602082840312156115d6576115d5611580565b5b60006115e4848285016115ab565b91505092915050565b6115f68161158a565b82525050565b600081519050919050565b600082825260208201905092915050565b60005b8381101561163657808201518184015260208101905061161b565b60008484015250505050565b6000601f19601f8301169050919050565b600061165e826115fc565b6116688185611607565b9350611678818560208601611618565b61168181611642565b840191505092915050565b7f4e487b7100000000000000000000000000000000000000000000000000000000600052602160045260246000fd5b600381106116cc576116cb61168c565b5b50565b60008190506116dd826116bb565b919050565b60006116ed826116cf565b9050919050565b6116fd816116e2565b82525050565b600073ffffffffffffffffffffffffffffffffffffffff82169050919050565b600061172e82611703565b9050919050565b61173e81611723565b82525050565b600060c08201905061175960008301896115ed565b818103602083015261176b8188611653565b9050818103604083015261177f8187611653565b905061178e60608301866115ed565b61179b60808301856116f4565b6117a860a0830184611735565b979650505050505050565b600381106117c057600080fd5b50565b6000813590506117d2816117b3565b92915050565b600080604083850312156117ef576117ee611580565b5b60006117fd858286016115ab565b925050602061180e858286016117c3565b9150509250929050565b600080fd5b600080fd5b7f4e487b7100000000000000000000000000000000000000000000000000000000600052604160045260246000fd5b61185a82611642565b810181811067ffffffffffffffff8211171561187957611878611822565b5b80604052505050565b600061188c611576565b90506118988282611851565b919050565b600067ffffffffffffffff8211156118b8576118b7611822565b5b6118c182611642565b9050602081019050919050565b82818337600083830152505050565b60006118f06118eb8461189d565b611882565b90508281526020810184848401111561190c5761190b61181d565b5b6119178482856118ce565b509392505050565b600082601f83011261193457611933611818565b5b81356119448482602086016118dd565b91505092915050565b6000806040838503121561196457611963611580565b5b6000611972858286016115ab565b925050602083013567ffffffffffffffff81111561199357611992611585565b5b61199f8582860161191f565b9150509250929050565b600081519050919050565b600082825260208201905092915050565b6000819050602082019050919050565b6119de8161158a565b82525050565b600082825260208201905092915050565b6000611a00826115fc565b611a0a81856119e4565b9350611a1a818560208601611618565b611a2381611642565b840191505092915050565b611a37816116e2565b82525050565b611a4681611723565b82525050565b600060c083016000830151611a6460008601826119d5565b5060208301518482036020860152611a7c82826119f5565b91505060408301518482036040860152611a9682826119f5565b9150506060830151611aab60608601826119d5565b506080830151611abe6080860182611a2e565b5060a0830151611ad160a0860182611a3d565b508091505092915050565b6000611ae88383611a4c565b905092915050565b6000602082019050919050565b6000611b08826119a9565b611b1281856119b4565b935083602082028501611b24856119c5565b8060005b85811015611b605784840389528151611b418582611adc565b9450611b4c83611af0565b925060208a01995050600181019050611b28565b50829750879550505050505092915050565b60006020820190508181036000830152611b8c8184611afd565b905092915050565b600060c083016000830151611bac60008601826119d5565b5060208301518482036020860152611bc482826119f5565b91505060408301518482036040860152611bde82826119f5565b9150506060830151611bf360608601826119d5565b506080830151611c066080860182611a2e565b5060a0830151611c1960a0860182611a3d565b508091505092915050565b60006020820190508181036000830152611c3e8184611b94565b905092915050565b611c4f81611723565b8114611c5a57600080fd5b50565b600081359050611c6c81611c46565b92915050565b600060208284031215611c8857611c87611580565b5b6000611c9684828501611c5d565b91505092915050565b600080600060608486031215611cb857611cb7611580565b5b600084013567ffffffffffffffff811115611cd657611cd5611585565b5b611ce28682870161191f565b935050602084013567ffffffffffffffff811115611d0357611d02611585565b5b611d0f8682870161191f565b9250506040611d20868287016115ab565b9150509250925092565b7f4e487b7100000000000000000000000000000000000000000000000000000000600052602260045260246000fd5b60006002820490506001821680611d7157607f821691505b602082108103611d8457611d83611d2a565b5b50919050565b7f696e76616c696420696400000000000000000000000000000000000000000000600082015250565b6000611dc0600a83611607565b9150611dcb82611d8a565b602082019050919050565b60006020820190508181036000830152611def81611db3565b9050919050565b7f53747564656e74206e6f7420666f756e64000000000000000000000000000000600082015250565b6000611e2c601183611607565b9150611e3782611df6565b602082019050919050565b60006020820190508181036000830152611e5b81611e1f565b9050919050565b7f4e487b7100000000000000000000000000000000000000000000000000000000600052603260045260246000fd5b60008190508160005260206000209050919050565b60006020601f8301049050919050565b600082821b905092915050565b600060088302611ef37fffffffffffffffffffffffffffffffffffffffffffffffffffffffffffffffff82611eb6565b611efd8683611eb6565b95508019841693508086168417925050509392505050565b6000819050919050565b6000611f3a611f35611f308461158a565b611f15565b61158a565b9050919050565b6000819050919050565b611f5483611f1f565b611f68611f6082611f41565b848454611ec3565b825550505050565b600090565b611f7d611f70565b611f88818484611f4b565b505050565b5b81811015611fac57611fa1600082611f75565b600181019050611f8e565b5050565b601f821115611ff157611fc281611e91565b611fcb84611ea6565b81016020851015611fda578190505b611fee611fe685611ea6565b830182611f8d565b50505b505050565b600082821c905092915050565b600061201460001984600802611ff6565b1980831691505092915050565b600061202d8383612003565b9150826002028217905092915050565b612046826115fc565b67ffffffffffffffff81111561205f5761205e611822565b5b6120698254611d59565b612074828285611fb0565b600060209050601f8311600181146120a75760008415612095578287015190505b61209f8582612021565b865550612107565b601f1984166120b586611e91565b60005b828110156120dd578489015182556001820191506020850194506020810190506120b8565b868310156120fa57848901516120f6601f891682612003565b8355505b6001600288020188555050505b505050505050565b7f4e487b7100000000000000000000000000000000000000000000000000000000600052601160045260246000fd5b60006121498261158a565b91506121548361158a565b925082820390508181111561216c5761216b61210f565b5b92915050565b60008154905061218181611d59565b9050919050565b81810361219657505061226e565b61219f82612172565b67ffffffffffffffff8111156121b8576121b7611822565b5b6121c28254611d59565b6121cd828285611fb0565b6000601f8311600181146121fc57600084156121ea578287015490505b6121f48582612021565b865550612267565b601f19841661220a87611e91565b965061221586611e91565b60005b8281101561223d57848901548255600182019150600185019450602081019050612218565b8683101561225a5784890154612256601f891682612003565b8355505b6001600288020188555050505b5050505050505b565b7f4e487b7100000000000000000000000000000000000000000000000000000000600052603160045260246000fd5b60006122aa8261158a565b91506122b58361158a565b92508282019050808211156122cd576122cc61210f565b5b92915050565b7f73747564656e7420616c72656164792072656769737465726564000000000000600082015250565b6000612309601a83611607565b9150612314826122d3565b602082019050919050565b60006020820190508181036000830152612338816122fc565b905091905056fea26469706673582212202552c3a812a92753a2ecc7d69f3e04621ecc89ac24e35020381c4534532241c264736f6c634300081e0033",
  "linkReferences": {},
  "deployedLinkReferences": {}
}