{
  "_format": "hh-sol-artifact-1",
  "contractName": "Todo",
  "sourceName": "contracts/Todo.sol",
  "abi": [
    {
      "inputs": [
        {
          "internalType": "string",
          "name": "_text",
          "type": "string"
        },
        {
          "internalType": "string",
          "name": "_description",
          "type": "string"
        }
      ],
      "name": "create_todo",
      "outputs": [],
      "stateMutability": "nonpayable",
      "type": "function"
    },
    {
      "inputs": [
        {
          "internalType": "uint256",
          "name": "_id",
          "type": "uint256"
        }
      ],
      "name": "delete_todo",
      "outputs": [],
      "stateMutability": "nonpayable",
      "type": "function"
    },
    {
      "inputs": [
        {
          "internalType": "uint256",
          "name": "_id",
          "type": "uint256"
        }
      ],
      "name": "get_todo",
      "outputs": [
        {
          "components": [
            {
              "internalType": "uint256",
              "name": "id",
              "type": "uint256"
            },
            {
              "internalType": "string",
              "name": "text",
              "type": "string"
            },
            {
              "internalType": "string",
              "name": "description",
              "type": "string"
            },
            {
              "internalType": "bool",
              "name": "status",
              "type": "bool"
            }
          ],
          "internalType": "struct Todo.Data",
          "name": "",
          "type": "tuple"
        }
      ],
      "stateMutability": "view",
      "type": "function"
    },
    {
      "inputs": [],
      "name": "get_todos",
      "outputs": [
        {
          "components": [
            {
              "internalType": "uint256",
              "name": "id",
              "type": "uint256"
            },
            {
              "internalType": "string",
              "name": "text",
              "type": "string"
            },
            {
              "internalType": "string",
              "name": "description",
              "type": "string"
            },
            {
              "internalType": "bool",
              "name": "status",
              "type": "bool"
            }
          ],
          "internalType": "struct Todo.Data[]",
          "name": "",
          "type": "tuple[]"
        }
      ],
      "stateMutability": "view",
      "type": "function"
    },
    {
      "inputs": [
        {
          "internalType": "uint256",
          "name": "_id",
          "type": "uint256"
        },
        {
          "internalType": "bool",
          "name": "_status",
          "type": "bool"
        }
      ],
      "name": "todo_todo_status",
      "outputs": [],
      "stateMutability": "nonpayable",
      "type": "function"
    },
    {
      "inputs": [
        {
          "internalType": "uint256",
          "name": "_id",
          "type": "uint256"
        },
        {
          "internalType": "string",
          "name": "_description",
          "type": "string"
        }
      ],
      "name": "update_todo_description",
      "outputs": [],
      "stateMutability": "nonpayable",
      "type": "function"
    },
    {
      "inputs": [
        {
          "internalType": "uint256",
          "name": "_id",
          "type": "uint256"
        },
        {
          "internalType": "string",
          "name": "_newTitle",
          "type": "string"
        }
      ],
      "name": "update_todo_title",
      "outputs": [],
      "stateMutability": "nonpayable",
      "type": "function"
    }
  ],
  "bytecode": "0x6080604052348015600f57600080fd5b50611c6d8061001f6000396000f3fe608060405234801561001057600080fd5b506004361061007d5760003560e01c8063863a53721161005b578063863a5372146100d85780638c2929fa146100f45780639f66897014610110578063b5c90fd5146101405761007d565b80633865881b146100825780636bbdadff146100a05780636d79166d146100bc575b600080fd5b61008a61015c565b60405161009791906112ed565b60405180910390f35b6100ba60048036038101906100b5919061134f565b610341565b005b6100d660048036038101906100d191906114b1565b6106e1565b005b6100f260048036038101906100ed9190611539565b61089f565b005b61010e600480360381019061010991906114b1565b610a67565b005b61012a6004803603810190610125919061134f565b610c25565b60405161013791906115e3565b60405180910390f35b61015a60048036038101906101559190611605565b610f71565b005b6060600160003373ffffffffffffffffffffffffffffffffffffffff1673ffffffffffffffffffffffffffffffffffffffff168152602001908152602001600020805480602002602001604051908101604052809291908181526020016000905b828210156103385783829060005260206000209060040201604051806080016040529081600082015481526020016001820180546101fa906116ac565b80601f0160208091040260200160405190810160405280929190818152602001828054610226906116ac565b80156102735780601f1061024857610100808354040283529160200191610273565b820191906000526020600020905b81548152906001019060200180831161025657829003601f168201915b5050505050815260200160028201805461028c906116ac565b80601f01602080910402602001604051908101604052809291908181526020018280546102b8906116ac565b80156103055780601f106102da57610100808354040283529160200191610305565b820191906000526020600020905b8154815290600101906020018083116102e857829003601f168201915b505050505081526020016003820160009054906101000a900460ff161515151581525050815260200190600101906101bd565b50505050905090565b6000600160003373ffffffffffffffffffffffffffffffffffffffff1673ffffffffffffffffffffffffffffffffffffffff16815260200190815260200160002080549050116103c6576040517f08c379a00000000000000000000000000000000000000000000000000000000081526004016103bd9061173a565b60405180910390fd5b60005b600160003373ffffffffffffffffffffffffffffffffffffffff1673ffffffffffffffffffffffffffffffffffffffff168152602001908152602001600020805490508110156106a25781600160003373ffffffffffffffffffffffffffffffffffffffff1673ffffffffffffffffffffffffffffffffffffffff16815260200190815260200160002082815481106104655761046461175a565b5b9060005260206000209060040201600001540361069557600160003373ffffffffffffffffffffffffffffffffffffffff1673ffffffffffffffffffffffffffffffffffffffff16815260200190815260200160002060018060003373ffffffffffffffffffffffffffffffffffffffff1673ffffffffffffffffffffffffffffffffffffffff1681526020019081526020016000208054905061050991906117b8565b8154811061051a5761051961175a565b5b9060005260206000209060040201600160003373ffffffffffffffffffffffffffffffffffffffff1673ffffffffffffffffffffffffffffffffffffffff16815260200190815260200160002082815481106105795761057861175a565b5b906000526020600020906004020160008201548160000155600182018160010190816105a591906119ae565b50600282018160020190816105ba91906119ae565b506003820160009054906101000a900460ff168160030160006101000a81548160ff021916908315150217905550905050600160003373ffffffffffffffffffffffffffffffffffffffff1673ffffffffffffffffffffffffffffffffffffffff16815260200190815260200160002080548061063a57610639611a96565b5b60019003818190600052602060002090600402016000808201600090556001820160006106679190611076565b6002820160006106779190611076565b6003820160006101000a81549060ff021916905550509055506106de565b80806001019150506103c9565b506040517f08c379a00000000000000000000000000000000000000000000000000000000081526004016106d590611b11565b60405180910390fd5b50565b6000600160003373ffffffffffffffffffffffffffffffffffffffff1673ffffffffffffffffffffffffffffffffffffffff1681526020019081526020016000208054905011610766576040517f08c379a000000000000000000000000000000000000000000000000000000000815260040161075d9061173a565b60405180910390fd5b60005b600160003373ffffffffffffffffffffffffffffffffffffffff1673ffffffffffffffffffffffffffffffffffffffff1681526020019081526020016000208054905081101561089a5782600160003373ffffffffffffffffffffffffffffffffffffffff1673ffffffffffffffffffffffffffffffffffffffff16815260200190815260200160002082815481106108055761080461175a565b5b9060005260206000209060040201600001540361088d5781600160003373ffffffffffffffffffffffffffffffffffffffff1673ffffffffffffffffffffffffffffffffffffffff168152602001908152602001600020828154811061086e5761086d61175a565b5b9060005260206000209060040201600201908161088b9190611b31565b505b8080600101915050610769565b505050565b6000600160003373ffffffffffffffffffffffffffffffffffffffff1673ffffffffffffffffffffffffffffffffffffffff1681526020019081526020016000208054905011610924576040517f08c379a000000000000000000000000000000000000000000000000000000000815260040161091b9061173a565b60405180910390fd5b60005b600160003373ffffffffffffffffffffffffffffffffffffffff1673ffffffffffffffffffffffffffffffffffffffff16815260200190815260200160002080549050811015610a625782600160003373ffffffffffffffffffffffffffffffffffffffff1673ffffffffffffffffffffffffffffffffffffffff16815260200190815260200160002082815481106109c3576109c261175a565b5b90600052602060002090600402016000015403610a555781600160003373ffffffffffffffffffffffffffffffffffffffff1673ffffffffffffffffffffffffffffffffffffffff1681526020019081526020016000208281548110610a2c57610a2b61175a565b5b906000526020600020906004020160030160006101000a81548160ff0219169083151502179055505b8080600101915050610927565b505050565b6000600160003373ffffffffffffffffffffffffffffffffffffffff1673ffffffffffffffffffffffffffffffffffffffff1681526020019081526020016000208054905011610aec576040517f08c379a0000000000000000000000000000000000000000000000000000000008152600401610ae39061173a565b60405180910390fd5b60005b600160003373ffffffffffffffffffffffffffffffffffffffff1673ffffffffffffffffffffffffffffffffffffffff16815260200190815260200160002080549050811015610c205782600160003373ffffffffffffffffffffffffffffffffffffffff1673ffffffffffffffffffffffffffffffffffffffff1681526020019081526020016000208281548110610b8b57610b8a61175a565b5b90600052602060002090600402016000015403610c135781600160003373ffffffffffffffffffffffffffffffffffffffff1673ffffffffffffffffffffffffffffffffffffffff1681526020019081526020016000208281548110610bf457610bf361175a565b5b90600052602060002090600402016001019081610c119190611b31565b505b8080600101915050610aef565b505050565b610c2d6110b6565b6000600160003373ffffffffffffffffffffffffffffffffffffffff1673ffffffffffffffffffffffffffffffffffffffff1681526020019081526020016000208054905011610cb2576040517f08c379a0000000000000000000000000000000000000000000000000000000008152600401610ca99061173a565b60405180910390fd5b60005b600160003373ffffffffffffffffffffffffffffffffffffffff1673ffffffffffffffffffffffffffffffffffffffff16815260200190815260200160002080549050811015610f305782600160003373ffffffffffffffffffffffffffffffffffffffff1673ffffffffffffffffffffffffffffffffffffffff1681526020019081526020016000208281548110610d5157610d5061175a565b5b90600052602060002090600402016000015403610f2357600160003373ffffffffffffffffffffffffffffffffffffffff1673ffffffffffffffffffffffffffffffffffffffff1681526020019081526020016000208181548110610db957610db861175a565b5b906000526020600020906004020160405180608001604052908160008201548152602001600182018054610dec906116ac565b80601f0160208091040260200160405190810160405280929190818152602001828054610e18906116ac565b8015610e655780601f10610e3a57610100808354040283529160200191610e65565b820191906000526020600020905b815481529060010190602001808311610e4857829003601f168201915b50505050508152602001600282018054610e7e906116ac565b80601f0160208091040260200160405190810160405280929190818152602001828054610eaa906116ac565b8015610ef75780601f10610ecc57610100808354040283529160200191610ef7565b820191906000526020600020905b815481529060010190602001808311610eda57829003601f168201915b505050505081526020016003820160009054906101000a900460ff161515151581525050915050610f6c565b8080600101915050610cb5565b506040517f08c379a0000000000000000000000000000000000000000000000000000000008152600401610f6390611b11565b60405180910390fd5b919050565b6001600054610f809190611c03565b600081905550600060405180608001604052806000548152602001848152602001838152602001600115158152509050600160003373ffffffffffffffffffffffffffffffffffffffff1673ffffffffffffffffffffffffffffffffffffffff1681526020019081526020016000208190806001815401808255809150506001900390600052602060002090600402016000909190919091506000820151816000015560208201518160010190816110389190611b31565b50604082015181600201908161104e9190611b31565b5060608201518160030160006101000a81548160ff0219169083151502179055505050505050565b508054611082906116ac565b6000825580601f1061109457506110b3565b601f0160209004906000526020600020908101906110b291906110e0565b5b50565b60405180608001604052806000815260200160608152602001606081526020016000151581525090565b5b808211156110f95760008160009055506001016110e1565b5090565b600081519050919050565b600082825260208201905092915050565b6000819050602082019050919050565b6000819050919050565b61113c81611129565b82525050565b600081519050919050565b600082825260208201905092915050565b60005b8381101561117c578082015181840152602081019050611161565b60008484015250505050565b6000601f19601f8301169050919050565b60006111a482611142565b6111ae818561114d565b93506111be81856020860161115e565b6111c781611188565b840191505092915050565b60008115159050919050565b6111e7816111d2565b82525050565b60006080830160008301516112056000860182611133565b506020830151848203602086015261121d8282611199565b915050604083015184820360408601526112378282611199565b915050606083015161124c60608601826111de565b508091505092915050565b600061126383836111ed565b905092915050565b6000602082019050919050565b6000611283826110fd565b61128d8185611108565b93508360208202850161129f85611119565b8060005b858110156112db57848403895281516112bc8582611257565b94506112c78361126b565b925060208a019950506001810190506112a3565b50829750879550505050505092915050565b600060208201905081810360008301526113078184611278565b905092915050565b6000604051905090565b600080fd5b600080fd5b61132c81611129565b811461133757600080fd5b50565b60008135905061134981611323565b92915050565b60006020828403121561136557611364611319565b5b60006113738482850161133a565b91505092915050565b600080fd5b600080fd5b7f4e487b7100000000000000000000000000000000000000000000000000000000600052604160045260246000fd5b6113be82611188565b810181811067ffffffffffffffff821117156113dd576113dc611386565b5b80604052505050565b60006113f061130f565b90506113fc82826113b5565b919050565b600067ffffffffffffffff82111561141c5761141b611386565b5b61142582611188565b9050602081019050919050565b82818337600083830152505050565b600061145461144f84611401565b6113e6565b9050828152602081018484840111156114705761146f611381565b5b61147b848285611432565b509392505050565b600082601f8301126114985761149761137c565b5b81356114a8848260208601611441565b91505092915050565b600080604083850312156114c8576114c7611319565b5b60006114d68582860161133a565b925050602083013567ffffffffffffffff8111156114f7576114f661131e565b5b61150385828601611483565b9150509250929050565b611516816111d2565b811461152157600080fd5b50565b6000813590506115338161150d565b92915050565b600080604083850312156115505761154f611319565b5b600061155e8582860161133a565b925050602061156f85828601611524565b9150509250929050565b60006080830160008301516115916000860182611133565b50602083015184820360208601526115a98282611199565b915050604083015184820360408601526115c38282611199565b91505060608301516115d860608601826111de565b508091505092915050565b600060208201905081810360008301526115fd8184611579565b905092915050565b6000806040838503121561161c5761161b611319565b5b600083013567ffffffffffffffff81111561163a5761163961131e565b5b61164685828601611483565b925050602083013567ffffffffffffffff8111156116675761166661131e565b5b61167385828601611483565b9150509250929050565b7f4e487b7100000000000000000000000000000000000000000000000000000000600052602260045260246000fd5b600060028204905060018216806116c457607f821691505b6020821081036116d7576116d661167d565b5b50919050565b600082825260208201905092915050565b7f4e6f20746f646f7320666f756e64000000000000000000000000000000000000600082015250565b6000611724600e836116dd565b915061172f826116ee565b602082019050919050565b6000602082019050818103600083015261175381611717565b9050919050565b7f4e487b7100000000000000000000000000000000000000000000000000000000600052603260045260246000fd5b7f4e487b7100000000000000000000000000000000000000000000000000000000600052601160045260246000fd5b60006117c382611129565b91506117ce83611129565b92508282039050818111156117e6576117e5611789565b5b92915050565b6000815490506117fb816116ac565b9050919050565b60008190508160005260206000209050919050565b60006020601f8301049050919050565b600082821b905092915050565b6000600883026118647fffffffffffffffffffffffffffffffffffffffffffffffffffffffffffffffff82611827565b61186e8683611827565b95508019841693508086168417925050509392505050565b6000819050919050565b60006118ab6118a66118a184611129565b611886565b611129565b9050919050565b6000819050919050565b6118c583611890565b6118d96118d1826118b2565b848454611834565b825550505050565b600090565b6118ee6118e1565b6118f98184846118bc565b505050565b5b8181101561191d576119126000826118e6565b6001810190506118ff565b5050565b601f8211156119625761193381611802565b61193c84611817565b8101602085101561194b578190505b61195f61195785611817565b8301826118fe565b50505b505050565b600082821c905092915050565b600061198560001984600802611967565b1980831691505092915050565b600061199e8383611974565b9150826002028217905092915050565b8181036119bc575050611a94565b6119c5826117ec565b67ffffffffffffffff8111156119de576119dd611386565b5b6119e882546116ac565b6119f3828285611921565b6000601f831160018114611a225760008415611a10578287015490505b611a1a8582611992565b865550611a8d565b601f198416611a3087611802565b9650611a3b86611802565b60005b82811015611a6357848901548255600182019150600185019450602081019050611a3e565b86831015611a805784890154611a7c601f891682611974565b8355505b6001600288020188555050505b5050505050505b565b7f4e487b7100000000000000000000000000000000000000000000000000000000600052603160045260246000fd5b7f546f646f206e6f7420666f756e64000000000000000000000000000000000000600082015250565b6000611afb600e836116dd565b9150611b0682611ac5565b602082019050919050565b60006020820190508181036000830152611b2a81611aee565b9050919050565b611b3a82611142565b67ffffffffffffffff811115611b5357611b52611386565b5b611b5d82546116ac565b611b68828285611921565b600060209050601f831160018114611b9b5760008415611b89578287015190505b611b938582611992565b865550611bfb565b601f198416611ba986611802565b60005b82811015611bd157848901518255600182019150602085019450602081019050611bac565b86831015611bee5784890151611bea601f891682611974565b8355505b6001600288020188555050505b505050505050565b6000611c0e82611129565b9150611c1983611129565b9250828201905080821115611c3157611c30611789565b5b9291505056fea2646970667358221220c10d3a6fd8e90803c37bbd9cc0297c555b44c6cf2a1dd791a91349cfdd3aae6d64736f6c634300081e0033",
  "linkReferences": {},
  "deployedLinkReferences": {}
}