{
  "_format": "hh-sol-artifact-1",
  "contractName": "LudoGame",
  "sourceName": "contracts/LudoGame.sol",
  "abi": [
    {
      "inputs": [
        {
          "internalType": "address",
          "name": "_ludoToken",
          "type": "address"
        },
        {
          "internalType": "uint256",
          "name": "_stakeAmount",
          "type": "uint256"
        }
      ],
      "stateMutability": "nonpayable",
      "type": "constructor"
    },
    {
      "anonymous": false,
      "inputs": [
        {
          "indexed": false,
          "internalType": "address",
          "name": "player",
          "type": "address"
        },
        {
          "indexed": false,
          "internalType": "uint8",
          "name": "roll",
          "type": "uint8"
        }
      ],
      "name": "DiceRolled",
      "type": "event"
    },
    {
      "anonymous": false,
      "inputs": [
        {
          "indexed": false,
          "internalType": "uint256",
          "name": "totalStake",
          "type": "uint256"
        }
      ],
      "name": "GameStarted",
      "type": "event"
    },
    {
      "anonymous": false,
      "inputs": [
        {
          "indexed": false,
          "internalType": "address",
          "name": "player",
          "type": "address"
        },
        {
          "indexed": false,
          "internalType": "string",
          "name": "name",
          "type": "string"
        },
        {
          "indexed": false,
          "internalType": "enum LudoGame.Color",
          "name": "color",
          "type": "uint8"
        }
      ],
      "name": "PlayerRegistered",
      "type": "event"
    },
    {
      "anonymous": false,
      "inputs": [
        {
          "indexed": false,
          "internalType": "address",
          "name": "player",
          "type": "address"
        },
        {
          "indexed": false,
          "internalType": "uint256",
          "name": "prize",
          "type": "uint256"
        }
      ],
      "name": "PlayerWon",
      "type": "event"
    },
    {
      "anonymous": false,
      "inputs": [
        {
          "indexed": false,
          "internalType": "address",
          "name": "player",
          "type": "address"
        },
        {
          "indexed": false,
          "internalType": "uint8",
          "name": "tokenIndex",
          "type": "uint8"
        },
        {
          "indexed": false,
          "internalType": "uint8",
          "name": "newPosition",
          "type": "uint8"
        }
      ],
      "name": "TokenMoved",
      "type": "event"
    },
    {
      "inputs": [],
      "name": "currentPlayerIndex",
      "outputs": [
        {
          "internalType": "uint8",
          "name": "",
          "type": "uint8"
        }
      ],
      "stateMutability": "view",
      "type": "function"
    },
    {
      "inputs": [],
      "name": "gameStarted",
      "outputs": [
        {
          "internalType": "bool",
          "name": "",
          "type": "bool"
        }
      ],
      "stateMutability": "view",
      "type": "function"
    },
    {
      "inputs": [
        {
          "internalType": "uint8",
          "name": "index",
          "type": "uint8"
        }
      ],
      "name": "getPlayer",
      "outputs": [
        {
          "internalType": "address",
          "name": "addr",
          "type": "address"
        },
        {
          "internalType": "string",
          "name": "name",
          "type": "string"
        },
        {
          "internalType": "enum LudoGame.Color",
          "name": "color",
          "type": "uint8"
        },
        {
          "internalType": "uint256",
          "name": "score",
          "type": "uint256"
        },
        {
          "internalType": "uint8[4]",
          "name": "positions",
          "type": "uint8[4]"
        }
      ],
      "stateMutability": "view",
      "type": "function"
    },
    {
      "inputs": [],
      "name": "ludoToken",
      "outputs": [
        {
          "internalType": "contract IERC20",
          "name": "",
          "type": "address"
        }
      ],
      "stateMutability": "view",
      "type": "function"
    },
    {
      "inputs": [
        {
          "internalType": "uint8",
          "name": "tokenIndex",
          "type": "uint8"
        },
        {
          "internalType": "uint8",
          "name": "diceRoll",
          "type": "uint8"
        }
      ],
      "name": "moveToken",
      "outputs": [],
      "stateMutability": "nonpayable",
      "type": "function"
    },
    {
      "inputs": [],
      "name": "playerCount",
      "outputs": [
        {
          "internalType": "uint8",
          "name": "",
          "type": "uint8"
        }
      ],
      "stateMutability": "view",
      "type": "function"
    },
    {
      "inputs": [
        {
          "internalType": "uint256",
          "name": "",
          "type": "uint256"
        }
      ],
      "name": "players",
      "outputs": [
        {
          "internalType": "address",
          "name": "addr",
          "type": "address"
        },
        {
          "internalType": "string",
          "name": "name",
          "type": "string"
        },
        {
          "internalType": "enum LudoGame.Color",
          "name": "color",
          "type": "uint8"
        },
        {
          "internalType": "uint256",
          "name": "score",
          "type": "uint256"
        },
        {
          "internalType": "uint8",
          "name": "tokensHome",
          "type": "uint8"
        }
      ],
      "stateMutability": "view",
      "type": "function"
    },
    {
      "inputs": [
        {
          "internalType": "string",
          "name": "_name",
          "type": "string"
        },
        {
          "internalType": "enum LudoGame.Color",
          "name": "_color",
          "type": "uint8"
        }
      ],
      "name": "registerPlayer",
      "outputs": [],
      "stateMutability": "nonpayable",
      "type": "function"
    },
    {
      "inputs": [],
      "name": "rollDice",
      "outputs": [
        {
          "internalType": "uint8",
          "name": "",
          "type": "uint8"
        }
      ],
      "stateMutability": "nonpayable",
      "type": "function"
    },
    {
      "inputs": [],
      "name": "stakeAmount",
      "outputs": [
        {
          "internalType": "uint256",
          "name": "",
          "type": "uint256"
        }
      ],
      "stateMutability": "view",
      "type": "function"
    },
    {
      "inputs": [],
      "name": "startGame",
      "outputs": [],
      "stateMutability": "nonpayable",
      "type": "function"
    },
    {
      "inputs": [],
      "name": "totalStaked",
      "outputs": [
        {
          "internalType": "uint256",
          "name": "",
          "type": "uint256"
        }
      ],
      "stateMutability": "view",
      "type": "function"
    }
  ],
  "bytecode": "0x608060405234801561001057600080fd5b5060405161240538038061240583398181016040528101906100329190610119565b816000806101000a81548173ffffffffffffffffffffffffffffffffffffffff021916908373ffffffffffffffffffffffffffffffffffffffff16021790555080601a819055505050610159565b600080fd5b600073ffffffffffffffffffffffffffffffffffffffff82169050919050565b60006100b082610085565b9050919050565b6100c0816100a5565b81146100cb57600080fd5b50565b6000815190506100dd816100b7565b92915050565b6000819050919050565b6100f6816100e3565b811461010157600080fd5b50565b600081519050610113816100ed565b92915050565b600080604083850312156101305761012f610080565b5b600061013e858286016100ce565b925050602061014f85828601610104565b9150509250929050565b61229d806101686000396000f3fe608060405234801561001057600080fd5b50600436106100b45760003560e01c806379eca2401161007157806379eca2401461017f578063817b1cd21461019d578063837e7cc6146101bb578063d65ab5f2146101d9578063f71d96cb146101e3578063fb9bdab414610217576100b4565b806302bc726d146100b9578063302bcc57146100d557806339fddff6146100f35780635e123ce41461012757806360c7dc471461014557806363da088714610163575b600080fd5b6100d360048036038101906100ce9190611304565b610235565b005b6100dd61051f565b6040516100ea9190611380565b60405180910390f35b61010d600480360381019061010891906113c7565b610532565b60405161011e959493929190611600565b60405180910390f35b61012f61074d565b60405161013c9190611676565b60405180910390f35b61014d610760565b60405161015a9190611691565b60405180910390f35b61017d600480360381019061017891906116ac565b610766565b005b610187610c7d565b604051610194919061174b565b60405180910390f35b6101a5610ca1565b6040516101b29190611691565b60405180910390f35b6101c3610ca7565b6040516101d09190611380565b60405180910390f35b6101e1610e55565b005b6101fd60048036038101906101f89190611792565b611086565b60405161020e9594939291906117bf565b60405180910390f35b61021f611184565b60405161022c9190611380565b60405180910390f35b601c60009054906101000a900460ff1615610285576040517f08c379a000000000000000000000000000000000000000000000000000000000815260040161027c90611865565b60405180910390fd5b6004601960009054906101000a900460ff1660ff16106102da576040517f08c379a00000000000000000000000000000000000000000000000000000000081526004016102d1906118d1565b60405180910390fd5b6040518060c001604052803373ffffffffffffffffffffffffffffffffffffffff16815260200184848080601f016020809104026020016040519081016040528093929190818152602001838380828437600081840152601f19601f82011690508083019250505050505050815260200182600381111561035e5761035d6114c5565b5b8152602001600081526020016040518060800160405280600060ff168152602001600060ff168152602001600060ff168152602001600060ff168152508152602001600060ff168152506001601960009054906101000a900460ff1660ff16600481106103ce576103cd6118f1565b5b6006020160008201518160000160006101000a81548173ffffffffffffffffffffffffffffffffffffffff021916908373ffffffffffffffffffffffffffffffffffffffff160217905550602082015181600101908161042e9190611b51565b5060408201518160020160006101000a81548160ff0219169083600381111561045a576104596114c5565b5b021790555060608201518160030155608082015181600401906004610480929190611197565b5060a08201518160050160006101000a81548160ff021916908360ff1602179055509050506019600081819054906101000a900460ff16809291906104c490611c52565b91906101000a81548160ff021916908360ff160217905550507fa4e3e83915a129a7a35c973747aa80620677687eaf3adda20fa7e0644d01f929338484846040516105129493929190611cb7565b60405180910390a1505050565b601960009054906101000a900460ff1681565b60006060600080610541611231565b600060018760ff166004811061055a576105596118f1565b5b600602016040518060c00160405290816000820160009054906101000a900473ffffffffffffffffffffffffffffffffffffffff1673ffffffffffffffffffffffffffffffffffffffff1673ffffffffffffffffffffffffffffffffffffffff1681526020016001820180546105cf9061197e565b80601f01602080910402602001604051908101604052809291908181526020018280546105fb9061197e565b80156106485780601f1061061d57610100808354040283529160200191610648565b820191906000526020600020905b81548152906001019060200180831161062b57829003601f168201915b505050505081526020016002820160009054906101000a900460ff166003811115610676576106756114c5565b5b6003811115610688576106876114c5565b5b815260200160038201548152602001600482016004806020026040519081016040528092919082600480156106f8576020028201916000905b82829054906101000a900460ff1660ff16815260200190600101906020826000010492830192600103820291508084116106c15790505b505050505081526020016005820160009054906101000a900460ff1660ff1660ff1681525050905080600001518160200151826040015183606001518460800151955095509550955095505091939590929450565b601c60009054906101000a900460ff1681565b601a5481565b601c60009054906101000a900460ff166107b5576040517f08c379a00000000000000000000000000000000000000000000000000000000081526004016107ac90611d43565b60405180910390fd5b6001601960019054906101000a900460ff1660ff16600481106107db576107da6118f1565b5b6006020160000160009054906101000a900473ffffffffffffffffffffffffffffffffffffffff1673ffffffffffffffffffffffffffffffffffffffff163373ffffffffffffffffffffffffffffffffffffffff1614610870576040517f08c379a000000000000000000000000000000000000000000000000000000000815260040161086790611daf565b60405180910390fd5b60048260ff16106108b6576040517f08c379a00000000000000000000000000000000000000000000000000000000081526004016108ad90611e1b565b60405180910390fd5b60006001601960019054906101000a900460ff1660ff16600481106108de576108dd6118f1565b5b6006020190506000816004018460ff16600481106108ff576108fe6118f1565b5b602091828204019190069054906101000a900460ff16905060008160ff16036109a85760068360ff1614610968576040517f08c379a000000000000000000000000000000000000000000000000000000000815260040161095f90611e87565b60405180910390fd5b6001826004018560ff1660048110610983576109826118f1565b5b602091828204019190066101000a81548160ff021916908360ff160217905550610bb1565b600083826109b69190611ea7565b905060348160ff1610610b74576034836004018660ff16600481106109de576109dd6118f1565b5b602091828204019190066101000a81548160ff021916908360ff16021790555082600501600081819054906101000a900460ff1680929190610a1f90611c52565b91906101000a81548160ff021916908360ff16021790555050600a836003016000828254610a4d9190611edc565b9250508190555060048360050160009054906101000a900460ff1660ff1603610b6f5760008054906101000a900473ffffffffffffffffffffffffffffffffffffffff1673ffffffffffffffffffffffffffffffffffffffff1663a9059cbb33601b546040518363ffffffff1660e01b8152600401610acd929190611f10565b6020604051808303816000875af1158015610aec573d6000803e3d6000fd5b505050506040513d601f19601f82011682018060405250810190610b109190611f65565b506000601c60006101000a81548160ff0219169083151502179055507f6e0d11c40e939975aea1b614617340d694125da9ebed64c96cab216ca971564e33601b54604051610b5f929190611f10565b60405180910390a1505050610c79565b610baf565b80836004018660ff1660048110610b8e57610b8d6118f1565b5b602091828204019190066101000a81548160ff021916908360ff1602179055505b505b7fe8238510d7de95882db69a043c5b056222b3efdc86b2c8e33e782d46bdcbda8c3385846004018760ff1660048110610bed57610bec6118f1565b5b602091828204019190069054906101000a900460ff16604051610c1293929190611f92565b60405180910390a160068360ff1614610c7657601960009054906101000a900460ff166001601960019054906101000a900460ff16610c519190611ea7565b610c5b9190611ff8565b601960016101000a81548160ff021916908360ff1602179055505b50505b5050565b60008054906101000a900473ffffffffffffffffffffffffffffffffffffffff1681565b601b5481565b6000601c60009054906101000a900460ff16610cf8576040517f08c379a0000000000000000000000000000000000000000000000000000000008152600401610cef90611d43565b60405180910390fd5b6001601960019054906101000a900460ff1660ff1660048110610d1e57610d1d6118f1565b5b6006020160000160009054906101000a900473ffffffffffffffffffffffffffffffffffffffff1673ffffffffffffffffffffffffffffffffffffffff163373ffffffffffffffffffffffffffffffffffffffff1614610db3576040517f08c379a0000000000000000000000000000000000000000000000000000000008152600401610daa90611daf565b60405180910390fd5b600060016006424433601d6000815480929190610dcf90612029565b91905055604051602001610de694939291906120da565b6040516020818303038152906040528051906020012060001c610e099190612128565b610e139190611ea7565b90507fc58abb24bb142a4e0cad0493a9c010849a79d42f31893b1433c3f8df560109793382604051610e46929190612159565b60405180910390a18091505090565b601c60009054906101000a900460ff1615610ea5576040517f08c379a0000000000000000000000000000000000000000000000000000000008152600401610e9c90611865565b60405180910390fd5b6002601960009054906101000a900460ff1660ff161015610efb576040517f08c379a0000000000000000000000000000000000000000000000000000000008152600401610ef2906121ce565b60405180910390fd5b60005b601960009054906101000a900460ff1660ff168160ff1610156110095760008054906101000a900473ffffffffffffffffffffffffffffffffffffffff1673ffffffffffffffffffffffffffffffffffffffff166323b872dd60018360ff1660048110610f6e57610f6d6118f1565b5b6006020160000160009054906101000a900473ffffffffffffffffffffffffffffffffffffffff1630601a546040518463ffffffff1660e01b8152600401610fb8939291906121ee565b6020604051808303816000875af1158015610fd7573d6000803e3d6000fd5b505050506040513d601f19601f82011682018060405250810190610ffb9190611f65565b508080600101915050610efe565b50601960009054906101000a900460ff1660ff16601a5461102a9190612225565b601b819055506001601c60006101000a81548160ff0219169083151502179055507f50ad08f58a27f2851d7e3a1b3a6a46b290f2ce677e99642d30ff639721e77790601b5460405161107c9190611691565b60405180910390a1565b6001816004811061109657600080fd5b600602016000915090508060000160009054906101000a900473ffffffffffffffffffffffffffffffffffffffff16908060010180546110d59061197e565b80601f01602080910402602001604051908101604052809291908181526020018280546111019061197e565b801561114e5780601f106111235761010080835404028352916020019161114e565b820191906000526020600020905b81548152906001019060200180831161113157829003601f168201915b5050505050908060020160009054906101000a900460ff16908060030154908060050160009054906101000a900460ff16905085565b601960019054906101000a900460ff1681565b826004601f016020900481019282156112205791602002820160005b838211156111f157835183826101000a81548160ff021916908360ff16021790555092602001926001016020816000010492830192600103026111b3565b801561121e5782816101000a81549060ff02191690556001016020816000010492830192600103026111f1565b505b50905061122d9190611253565b5090565b6040518060800160405280600490602082028036833780820191505090505090565b5b8082111561126c576000816000905550600101611254565b5090565b600080fd5b600080fd5b600080fd5b600080fd5b600080fd5b60008083601f84011261129f5761129e61127a565b5b8235905067ffffffffffffffff8111156112bc576112bb61127f565b5b6020830191508360018202830111156112d8576112d7611284565b5b9250929050565b600481106112ec57600080fd5b50565b6000813590506112fe816112df565b92915050565b60008060006040848603121561131d5761131c611270565b5b600084013567ffffffffffffffff81111561133b5761133a611275565b5b61134786828701611289565b9350935050602061135a868287016112ef565b9150509250925092565b600060ff82169050919050565b61137a81611364565b82525050565b60006020820190506113956000830184611371565b92915050565b6113a481611364565b81146113af57600080fd5b50565b6000813590506113c18161139b565b92915050565b6000602082840312156113dd576113dc611270565b5b60006113eb848285016113b2565b91505092915050565b600073ffffffffffffffffffffffffffffffffffffffff82169050919050565b600061141f826113f4565b9050919050565b61142f81611414565b82525050565b600081519050919050565b600082825260208201905092915050565b60005b8381101561146f578082015181840152602081019050611454565b60008484015250505050565b6000601f19601f8301169050919050565b600061149782611435565b6114a18185611440565b93506114b1818560208601611451565b6114ba8161147b565b840191505092915050565b7f4e487b7100000000000000000000000000000000000000000000000000000000600052602160045260246000fd5b60048110611505576115046114c5565b5b50565b6000819050611516826114f4565b919050565b600061152682611508565b9050919050565b6115368161151b565b82525050565b6000819050919050565b61154f8161153c565b82525050565b600060049050919050565b600081905092915050565b6000819050919050565b61157e81611364565b82525050565b60006115908383611575565b60208301905092915050565b6000602082019050919050565b6115b281611555565b6115bc8184611560565b92506115c78261156b565b8060005b838110156115f85781516115df8782611584565b96506115ea8361159c565b9250506001810190506115cb565b505050505050565b6000610100820190506116166000830188611426565b8181036020830152611628818761148c565b9050611637604083018661152d565b6116446060830185611546565b61165160808301846115a9565b9695505050505050565b60008115159050919050565b6116708161165b565b82525050565b600060208201905061168b6000830184611667565b92915050565b60006020820190506116a66000830184611546565b92915050565b600080604083850312156116c3576116c2611270565b5b60006116d1858286016113b2565b92505060206116e2858286016113b2565b9150509250929050565b6000819050919050565b600061171161170c611707846113f4565b6116ec565b6113f4565b9050919050565b6000611723826116f6565b9050919050565b600061173582611718565b9050919050565b6117458161172a565b82525050565b6000602082019050611760600083018461173c565b92915050565b61176f8161153c565b811461177a57600080fd5b50565b60008135905061178c81611766565b92915050565b6000602082840312156117a8576117a7611270565b5b60006117b68482850161177d565b91505092915050565b600060a0820190506117d46000830188611426565b81810360208301526117e6818761148c565b90506117f5604083018661152d565b6118026060830185611546565b61180f6080830184611371565b9695505050505050565b7f47616d6520616c72656164792073746172746564000000000000000000000000600082015250565b600061184f601483611440565b915061185a82611819565b602082019050919050565b6000602082019050818103600083015261187e81611842565b9050919050565b7f4d617820706c6179657273207265616368656400000000000000000000000000600082015250565b60006118bb601383611440565b91506118c682611885565b602082019050919050565b600060208201905081810360008301526118ea816118ae565b9050919050565b7f4e487b7100000000000000000000000000000000000000000000000000000000600052603260045260246000fd5b7f4e487b7100000000000000000000000000000000000000000000000000000000600052604160045260246000fd5b7f4e487b7100000000000000000000000000000000000000000000000000000000600052602260045260246000fd5b6000600282049050600182168061199657607f821691505b6020821081036119a9576119a861194f565b5b50919050565b60008190508160005260206000209050919050565b60006020601f8301049050919050565b600082821b905092915050565b600060088302611a117fffffffffffffffffffffffffffffffffffffffffffffffffffffffffffffffff826119d4565b611a1b86836119d4565b95508019841693508086168417925050509392505050565b6000611a4e611a49611a448461153c565b6116ec565b61153c565b9050919050565b6000819050919050565b611a6883611a33565b611a7c611a7482611a55565b8484546119e1565b825550505050565b600090565b611a91611a84565b611a9c818484611a5f565b505050565b5b81811015611ac057611ab5600082611a89565b600181019050611aa2565b5050565b601f821115611b0557611ad6816119af565b611adf846119c4565b81016020851015611aee578190505b611b02611afa856119c4565b830182611aa1565b50505b505050565b600082821c905092915050565b6000611b2860001984600802611b0a565b1980831691505092915050565b6000611b418383611b17565b9150826002028217905092915050565b611b5a82611435565b67ffffffffffffffff811115611b7357611b72611920565b5b611b7d825461197e565b611b88828285611ac4565b600060209050601f831160018114611bbb5760008415611ba9578287015190505b611bb38582611b35565b865550611c1b565b601f198416611bc9866119af565b60005b82811015611bf157848901518255600182019150602085019450602081019050611bcc565b86831015611c0e5784890151611c0a601f891682611b17565b8355505b6001600288020188555050505b505050505050565b7f4e487b7100000000000000000000000000000000000000000000000000000000600052601160045260246000fd5b6000611c5d82611364565b915060ff8203611c7057611c6f611c23565b5b600182019050919050565b82818337600083830152505050565b6000611c968385611440565b9350611ca3838584611c7b565b611cac8361147b565b840190509392505050565b6000606082019050611ccc6000830187611426565b8181036020830152611cdf818587611c8a565b9050611cee604083018461152d565b95945050505050565b7f47616d65206e6f74207374617274656400000000000000000000000000000000600082015250565b6000611d2d601083611440565b9150611d3882611cf7565b602082019050919050565b60006020820190508181036000830152611d5c81611d20565b9050919050565b7f4e6f7420796f7572207475726e00000000000000000000000000000000000000600082015250565b6000611d99600d83611440565b9150611da482611d63565b602082019050919050565b60006020820190508181036000830152611dc881611d8c565b9050919050565b7f496e76616c696420746f6b656e00000000000000000000000000000000000000600082015250565b6000611e05600d83611440565b9150611e1082611dcf565b602082019050919050565b60006020820190508181036000830152611e3481611df8565b9050919050565b7f4e656564203620746f2073746172740000000000000000000000000000000000600082015250565b6000611e71600f83611440565b9150611e7c82611e3b565b602082019050919050565b60006020820190508181036000830152611ea081611e64565b9050919050565b6000611eb282611364565b9150611ebd83611364565b9250828201905060ff811115611ed657611ed5611c23565b5b92915050565b6000611ee78261153c565b9150611ef28361153c565b9250828201905080821115611f0a57611f09611c23565b5b92915050565b6000604082019050611f256000830185611426565b611f326020830184611546565b9392505050565b611f428161165b565b8114611f4d57600080fd5b50565b600081519050611f5f81611f39565b92915050565b600060208284031215611f7b57611f7a611270565b5b6000611f8984828501611f50565b91505092915050565b6000606082019050611fa76000830186611426565b611fb46020830185611371565b611fc16040830184611371565b949350505050565b7f4e487b7100000000000000000000000000000000000000000000000000000000600052601260045260246000fd5b600061200382611364565b915061200e83611364565b92508261201e5761201d611fc9565b5b828206905092915050565b60006120348261153c565b91507fffffffffffffffffffffffffffffffffffffffffffffffffffffffffffffffff820361206657612065611c23565b5b600182019050919050565b6000819050919050565b61208c6120878261153c565b612071565b82525050565b60008160601b9050919050565b60006120aa82612092565b9050919050565b60006120bc8261209f565b9050919050565b6120d46120cf82611414565b6120b1565b82525050565b60006120e6828761207b565b6020820191506120f6828661207b565b60208201915061210682856120c3565b601482019150612116828461207b565b60208201915081905095945050505050565b60006121338261153c565b915061213e8361153c565b92508261214e5761214d611fc9565b5b828206905092915050565b600060408201905061216e6000830185611426565b61217b6020830184611371565b9392505050565b7f4e656564206174206c65617374203220706c6179657273000000000000000000600082015250565b60006121b8601783611440565b91506121c382612182565b602082019050919050565b600060208201905081810360008301526121e7816121ab565b9050919050565b60006060820190506122036000830186611426565b6122106020830185611426565b61221d6040830184611546565b949350505050565b60006122308261153c565b915061223b8361153c565b92508282026122498161153c565b915082820484148315176122605761225f611c23565b5b509291505056fea264697066735822122018fdd2b27aa9dfbae015ff77193f0c7b70941bcb1d19789c16c9ef32fd60123a64736f6c634300081c0033",
  "linkReferences": {},
  "deployedLinkReferences": {}
}