{"abi":[{"type":"function","name":"balanceOf","inputs":[{"name":"","type":"address","internalType":"address"},{"name":"","type":"uint256","internalType":"uint256"}],"outputs":[{"name":"","type":"uint256","internalType":"uint256"}],"stateMutability":"view"},{"type":"function","name":"mint","inputs":[{"name":"to","type":"address","internalType":"address"},{"name":"id","type":"uint256","internalType":"uint256"},{"name":"amount","type":"uint256","internalType":"uint256"}],"outputs":[],"stateMutability":"nonpayable"},{"type":"function","name":"safeBatchTransferFrom","inputs":[{"name":"from","type":"address","internalType":"address"},{"name":"to","type":"address","internalType":"address"},{"name":"ids","type":"uint256[]","internalType":"uint256[]"},{"name":"amounts","type":"uint256[]","internalType":"uint256[]"},{"name":"data","type":"bytes","internalType":"bytes"}],"outputs":[],"stateMutability":"nonpayable"},{"type":"function","name":"safeTransferFrom","inputs":[{"name":"from","type":"address","internalType":"address"},{"name":"to","type":"address","internalType":"address"},{"name":"id","type":"uint256","internalType":"uint256"},{"name":"amount","type":"uint256","internalType":"uint256"},{"name":"data","type":"bytes","internalType":"bytes"}],"outputs":[],"stateMutability":"nonpayable"},{"type":"event","name":"TransferBatch","inputs":[{"name":"operator","type":"address","indexed":true,"internalType":"address"},{"name":"from","type":"address","indexed":true,"internalType":"address"},{"name":"to","type":"address","indexed":true,"internalType":"address"},{"name":"ids","type":"uint256[]","indexed":false,"internalType":"uint256[]"},{"name":"values","type":"uint256[]","indexed":false,"internalType":"uint256[]"}],"anonymous":false},{"type":"event","name":"TransferSingle","inputs":[{"name":"operator","type":"address","indexed":true,"internalType":"address"},{"name":"from","type":"address","indexed":true,"internalType":"address"},{"name":"to","type":"address","indexed":true,"internalType":"address"},{"name":"id","type":"uint256","indexed":false,"internalType":"uint256"},{"name":"value","type":"uint256","indexed":false,"internalType":"uint256"}],"anonymous":false}],"bytecode":{"object":"0x6080604052348015600e575f5ffd5b5061118d8061001c5f395ff3fe608060405234801561000f575f5ffd5b5060043610610049575f3560e01c8062fdd58e1461004d578063156e29f61461007d5780632eb2c2d614610099578063f242432a146100b5575b5f5ffd5b610067600480360381019061006291906109ba565b6100d1565b6040516100749190610a07565b60405180910390f35b61009760048036038101906100929190610a20565b6100f0565b005b6100b360048036038101906100ae9190610b26565b6101d4565b005b6100cf60048036038101906100ca9190610bfd565b6105ca565b005b5f602052815f5260405f20602052805f5260405f205f91509150505481565b805f5f8573ffffffffffffffffffffffffffffffffffffffff1673ffffffffffffffffffffffffffffffffffffffff1681526020019081526020015f205f8481526020019081526020015f205f82825461014a9190610cc0565b925050819055508273ffffffffffffffffffffffffffffffffffffffff165f73ffffffffffffffffffffffffffffffffffffffff163373ffffffffffffffffffffffffffffffffffffffff167fc3d58168c5ae7397731d063d5bbf3d657854427343f4c083240f7aacaa2d0f6285856040516101c7929190610cf3565b60405180910390a4505050565b8773ffffffffffffffffffffffffffffffffffffffff163373ffffffffffffffffffffffffffffffffffffffff1614610242576040517f08c379a000000000000000000000000000000000000000000000000000000000815260040161023990610d74565b60405180910390fd5b83839050868690501461028a576040517f08c379a000000000000000000000000000000000000000000000000000000000815260040161028190610ddc565b60405180910390fd5b5f5f90505b86869050811015610421575f8787838181106102ae576102ad610dfa565b5b9050602002013590505f8686848181106102cb576102ca610dfa565b5b905060200201359050805f5f8d73ffffffffffffffffffffffffffffffffffffffff1673ffffffffffffffffffffffffffffffffffffffff1681526020019081526020015f205f8481526020019081526020015f20541015610362576040517f08c379a000000000000000000000000000000000000000000000000000000000815260040161035990610e71565b60405180910390fd5b805f5f8d73ffffffffffffffffffffffffffffffffffffffff1673ffffffffffffffffffffffffffffffffffffffff1681526020019081526020015f205f8481526020019081526020015f205f8282540392505081905550805f5f8c73ffffffffffffffffffffffffffffffffffffffff1673ffffffffffffffffffffffffffffffffffffffff1681526020019081526020015f205f8481526020019081526020015f205f82825401925050819055505050808060010191505061028f565b508673ffffffffffffffffffffffffffffffffffffffff168873ffffffffffffffffffffffffffffffffffffffff163373ffffffffffffffffffffffffffffffffffffffff167f4a39dc06d4c0dbc64b70af90fd698a233a518aa5d07e595d983b8c0526c8f7fb8989898960405161049c9493929190610f07565b60405180910390a46104ad87610914565b156105c05763bc197c8160e01b7bffffffffffffffffffffffffffffffffffffffffffffffffffffffff19168773ffffffffffffffffffffffffffffffffffffffff1663bc197c81338b8a8a8a8a8a8a6040518963ffffffff1660e01b8152600401610520989796959493929190610fa9565b6020604051808303815f875af115801561053c573d5f5f3e3d5ffd5b505050506040513d601f19601f82011682018060405250810190610560919061106a565b7bffffffffffffffffffffffffffffffffffffffffffffffffffffffff1916146105bf576040517f08c379a00000000000000000000000000000000000000000000000000000000081526004016105b6906110df565b60405180910390fd5b5b5050505050505050565b8573ffffffffffffffffffffffffffffffffffffffff163373ffffffffffffffffffffffffffffffffffffffff1614610638576040517f08c379a000000000000000000000000000000000000000000000000000000000815260040161062f90610d74565b60405180910390fd5b825f5f8873ffffffffffffffffffffffffffffffffffffffff1673ffffffffffffffffffffffffffffffffffffffff1681526020019081526020015f205f8681526020019081526020015f205410156106c6576040517f08c379a00000000000000000000000000000000000000000000000000000000081526004016106bd90610e71565b60405180910390fd5b825f5f8873ffffffffffffffffffffffffffffffffffffffff1673ffffffffffffffffffffffffffffffffffffffff1681526020019081526020015f205f8681526020019081526020015f205f8282540392505081905550825f5f8773ffffffffffffffffffffffffffffffffffffffff1673ffffffffffffffffffffffffffffffffffffffff1681526020019081526020015f205f8681526020019081526020015f205f82825401925050819055508473ffffffffffffffffffffffffffffffffffffffff168673ffffffffffffffffffffffffffffffffffffffff163373ffffffffffffffffffffffffffffffffffffffff167fc3d58168c5ae7397731d063d5bbf3d657854427343f4c083240f7aacaa2d0f6287876040516107ec929190610cf3565b60405180910390a46107fd85610914565b1561090c5763f23a6e6160e01b7bffffffffffffffffffffffffffffffffffffffffffffffffffffffff19168573ffffffffffffffffffffffffffffffffffffffff1663f23a6e613389888888886040518763ffffffff1660e01b815260040161086c969594939291906110fd565b6020604051808303815f875af1158015610888573d5f5f3e3d5ffd5b505050506040513d601f19601f820116820180604052508101906108ac919061106a565b7bffffffffffffffffffffffffffffffffffffffffffffffffffffffff19161461090b576040517f08c379a0000000000000000000000000000000000000000000000000000000008152600401610902906110df565b60405180910390fd5b5b505050505050565b5f5f823b90505f8111915050919050565b5f5ffd5b5f5ffd5b5f73ffffffffffffffffffffffffffffffffffffffff82169050919050565b5f6109568261092d565b9050919050565b6109668161094c565b8114610970575f5ffd5b50565b5f813590506109818161095d565b92915050565b5f819050919050565b61099981610987565b81146109a3575f5ffd5b50565b5f813590506109b481610990565b92915050565b5f5f604083850312156109d0576109cf610925565b5b5f6109dd85828601610973565b92505060206109ee858286016109a6565b9150509250929050565b610a0181610987565b82525050565b5f602082019050610a1a5f8301846109f8565b92915050565b5f5f5f60608486031215610a3757610a36610925565b5b5f610a4486828701610973565b9350506020610a55868287016109a6565b9250506040610a66868287016109a6565b9150509250925092565b5f5ffd5b5f5ffd5b5f5ffd5b5f5f83601f840112610a9157610a90610a70565b5b8235905067ffffffffffffffff811115610aae57610aad610a74565b5b602083019150836020820283011115610aca57610ac9610a78565b5b9250929050565b5f5f83601f840112610ae657610ae5610a70565b5b8235905067ffffffffffffffff811115610b0357610b02610a74565b5b602083019150836001820283011115610b1f57610b1e610a78565b5b9250929050565b5f5f5f5f5f5f5f5f60a0898b031215610b4257610b41610925565b5b5f610b4f8b828c01610973565b9850506020610b608b828c01610973565b975050604089013567ffffffffffffffff811115610b8157610b80610929565b5b610b8d8b828c01610a7c565b9650965050606089013567ffffffffffffffff811115610bb057610baf610929565b5b610bbc8b828c01610a7c565b9450945050608089013567ffffffffffffffff811115610bdf57610bde610929565b5b610beb8b828c01610ad1565b92509250509295985092959890939650565b5f5f5f5f5f5f60a08789031215610c1757610c16610925565b5b5f610c2489828a01610973565b9650506020610c3589828a01610973565b9550506040610c4689828a016109a6565b9450506060610c5789828a016109a6565b935050608087013567ffffffffffffffff811115610c7857610c77610929565b5b610c8489828a01610ad1565b92509250509295509295509295565b7f4e487b71000000000000000000000000000000000000000000000000000000005f52601160045260245ffd5b5f610cca82610987565b9150610cd583610987565b9250828201905080821115610ced57610cec610c93565b5b92915050565b5f604082019050610d065f8301856109f8565b610d1360208301846109f8565b9392505050565b5f82825260208201905092915050565b7f61757468000000000000000000000000000000000000000000000000000000005f82015250565b5f610d5e600483610d1a565b9150610d6982610d2a565b602082019050919050565b5f6020820190508181035f830152610d8b81610d52565b9050919050565b7f6c656e00000000000000000000000000000000000000000000000000000000005f82015250565b5f610dc6600383610d1a565b9150610dd182610d92565b602082019050919050565b5f6020820190508181035f830152610df381610dba565b9050919050565b7f4e487b71000000000000000000000000000000000000000000000000000000005f52603260045260245ffd5b7f62616c00000000000000000000000000000000000000000000000000000000005f82015250565b5f610e5b600383610d1a565b9150610e6682610e27565b602082019050919050565b5f6020820190508181035f830152610e8881610e4f565b9050919050565b5f82825260208201905092915050565b5f5ffd5b82818337505050565b5f610eb78385610e8f565b93507f07ffffffffffffffffffffffffffffffffffffffffffffffffffffffffffffff831115610eea57610ee9610e9f565b5b602083029250610efb838584610ea3565b82840190509392505050565b5f6040820190508181035f830152610f20818688610eac565b90508181036020830152610f35818486610eac565b905095945050505050565b610f498161094c565b82525050565b5f82825260208201905092915050565b828183375f83830152505050565b5f601f19601f8301169050919050565b5f610f888385610f4f565b9350610f95838584610f5f565b610f9e83610f6d565b840190509392505050565b5f60a082019050610fbc5f83018b610f40565b610fc9602083018a610f40565b8181036040830152610fdc81888a610eac565b90508181036060830152610ff1818688610eac565b90508181036080830152611006818486610f7d565b90509998505050505050505050565b5f7fffffffff0000000000000000000000000000000000000000000000000000000082169050919050565b61104981611015565b8114611053575f5ffd5b50565b5f8151905061106481611040565b92915050565b5f6020828403121561107f5761107e610925565b5b5f61108c84828501611056565b91505092915050565b7f72637600000000000000000000000000000000000000000000000000000000005f82015250565b5f6110c9600383610d1a565b91506110d482611095565b602082019050919050565b5f6020820190508181035f8301526110f6816110bd565b9050919050565b5f60a0820190506111105f830189610f40565b61111d6020830188610f40565b61112a60408301876109f8565b61113760608301866109f8565b818103608083015261114a818486610f7d565b905097965050505050505056fea26469706673582212209823cd267eab6a85feb5e0208790fc88464a65d075df855c8e806111e9bf299164736f6c634300081c0033","linkReferences":{}},"methodIdentifiers":{"balanceOf(address,uint256)":"00fdd58e","mint(address,uint256,uint256)":"156e29f6","safeBatchTransferFrom(address,address,uint256[],uint256[],bytes)":"2eb2c2d6","safeTransferFrom(address,address,uint256,uint256,bytes)":"f242432a"},"id":3}