{
  "_format": "hh-sol-artifact-1",
  "contractName": "ERC20",
  "sourceName": "contracts/ERC20.sol",
  "abi": [
    {
      "inputs": [],
      "stateMutability": "nonpayable",
      "type": "constructor"
    },
    {
      "anonymous": false,
      "inputs": [
        {
          "indexed": true,
          "internalType": "address",
          "name": "_owner",
          "type": "address"
        },
        {
          "indexed": true,
          "internalType": "address",
          "name": "_spender",
          "type": "address"
        },
        {
          "indexed": false,
          "internalType": "uint256",
          "name": "_value",
          "type": "uint256"
        }
      ],
      "name": "Approval",
      "type": "event"
    },
    {
      "anonymous": false,
      "inputs": [
        {
          "indexed": true,
          "internalType": "address",
          "name": "_from",
          "type": "address"
        },
        {
          "indexed": true,
          "internalType": "address",
          "name": "_to",
          "type": "address"
        },
        {
          "indexed": false,
          "internalType": "uint256",
          "name": "_value",
          "type": "uint256"
        }
      ],
      "name": "Transfer",
      "type": "event"
    },
    {
      "inputs": [
        {
          "internalType": "address",
          "name": "",
          "type": "address"
        },
        {
          "internalType": "address",
          "name": "",
          "type": "address"
        }
      ],
      "name": "allowance",
      "outputs": [
        {
          "internalType": "uint256",
          "name": "",
          "type": "uint256"
        }
      ],
      "stateMutability": "view",
      "type": "function"
    },
    {
      "inputs": [
        {
          "internalType": "address",
          "name": "spender",
          "type": "address"
        },
        {
          "internalType": "uint256",
          "name": "amount",
          "type": "uint256"
        }
      ],
      "name": "approve",
      "outputs": [
        {
          "internalType": "bool",
          "name": "success",
          "type": "bool"
        }
      ],
      "stateMutability": "nonpayable",
      "type": "function"
    },
    {
      "inputs": [
        {
          "internalType": "address",
          "name": "",
          "type": "address"
        }
      ],
      "name": "balanceOf",
      "outputs": [
        {
          "internalType": "uint256",
          "name": "",
          "type": "uint256"
        }
      ],
      "stateMutability": "view",
      "type": "function"
    },
    {
      "inputs": [
        {
          "internalType": "uint256",
          "name": "amount",
          "type": "uint256"
        }
      ],
      "name": "burn",
      "outputs": [],
      "stateMutability": "nonpayable",
      "type": "function"
    },
    {
      "inputs": [],
      "name": "decimals",
      "outputs": [
        {
          "internalType": "uint8",
          "name": "",
          "type": "uint8"
        }
      ],
      "stateMutability": "view",
      "type": "function"
    },
    {
      "inputs": [
        {
          "internalType": "uint256",
          "name": "amount",
          "type": "uint256"
        }
      ],
      "name": "mint",
      "outputs": [],
      "stateMutability": "nonpayable",
      "type": "function"
    },
    {
      "inputs": [],
      "name": "name",
      "outputs": [
        {
          "internalType": "string",
          "name": "",
          "type": "string"
        }
      ],
      "stateMutability": "view",
      "type": "function"
    },
    {
      "inputs": [],
      "name": "owner",
      "outputs": [
        {
          "internalType": "address",
          "name": "",
          "type": "address"
        }
      ],
      "stateMutability": "view",
      "type": "function"
    },
    {
      "inputs": [],
      "name": "symbol",
      "outputs": [
        {
          "internalType": "string",
          "name": "",
          "type": "string"
        }
      ],
      "stateMutability": "view",
      "type": "function"
    },
    {
      "inputs": [],
      "name": "totalSupply",
      "outputs": [
        {
          "internalType": "uint256",
          "name": "",
          "type": "uint256"
        }
      ],
      "stateMutability": "view",
      "type": "function"
    },
    {
      "inputs": [
        {
          "internalType": "address",
          "name": "recipient",
          "type": "address"
        },
        {
          "internalType": "uint256",
          "name": "amount",
          "type": "uint256"
        }
      ],
      "name": "transfer",
      "outputs": [
        {
          "internalType": "bool",
          "name": "success",
          "type": "bool"
        }
      ],
      "stateMutability": "nonpayable",
      "type": "function"
    },
    {
      "inputs": [
        {
          "internalType": "address",
          "name": "sender",
          "type": "address"
        },
        {
          "internalType": "address",
          "name": "recipient",
          "type": "address"
        },
        {
          "internalType": "uint256",
          "name": "amount",
          "type": "uint256"
        }
      ],
      "name": "transferFrom",
      "outputs": [
        {
          "internalType": "bool",
          "name": "success",
          "type": "bool"
        }
      ],
      "stateMutability": "nonpayable",
      "type": "function"
    }
  ],
  "bytecode": "0x60806040526040518060400160405280600d81526020017f53696d6f6e277320546f6b656e0000000000000000000000000000000000000081525060019081610048919061034d565b506040518060400160405280600581526020017f534f544f4b0000000000000000000000000000000000000000000000000000008152506002908161008d919061034d565b506012600360006101000a81548160ff021916908360ff1602179055503480156100b657600080fd5b5033600360016101000a81548173ffffffffffffffffffffffffffffffffffffffff021916908373ffffffffffffffffffffffffffffffffffffffff16021790555061041f565b600081519050919050565b7f4e487b7100000000000000000000000000000000000000000000000000000000600052604160045260246000fd5b7f4e487b7100000000000000000000000000000000000000000000000000000000600052602260045260246000fd5b6000600282049050600182168061017e57607f821691505b60208210810361019157610190610137565b5b50919050565b60008190508160005260206000209050919050565b60006020601f8301049050919050565b600082821b905092915050565b6000600883026101f97fffffffffffffffffffffffffffffffffffffffffffffffffffffffffffffffff826101bc565b61020386836101bc565b95508019841693508086168417925050509392505050565b6000819050919050565b6000819050919050565b600061024a6102456102408461021b565b610225565b61021b565b9050919050565b6000819050919050565b6102648361022f565b61027861027082610251565b8484546101c9565b825550505050565b600090565b61028d610280565b61029881848461025b565b505050565b5b818110156102bc576102b1600082610285565b60018101905061029e565b5050565b601f821115610301576102d281610197565b6102db846101ac565b810160208510156102ea578190505b6102fe6102f6856101ac565b83018261029d565b50505b505050565b600082821c905092915050565b600061032460001984600802610306565b1980831691505092915050565b600061033d8383610313565b9150826002028217905092915050565b610356826100fd565b67ffffffffffffffff81111561036f5761036e610108565b5b6103798254610166565b6103848282856102c0565b600060209050601f8311600181146103b757600084156103a5578287015190505b6103af8582610331565b865550610417565b601f1984166103c586610197565b60005b828110156103ed578489015182556001820191506020850194506020810190506103c8565b8683101561040a5784890151610406601f891682610313565b8355505b6001600288020188555050505b505050505050565b6115618061042e6000396000f3fe608060405234801561001057600080fd5b50600436106100b45760003560e01c806370a082311161007157806370a082311461018f5780638da5cb5b146101bf57806395d89b41146101dd578063a0712d68146101fb578063a9059cbb14610217578063dd62ed3e14610247576100b4565b806306fdde03146100b9578063095ea7b3146100d757806318160ddd1461010757806323b872dd14610125578063313ce5671461015557806342966c6814610173575b600080fd5b6100c1610277565b6040516100ce9190610e71565b60405180910390f35b6100f160048036038101906100ec9190610f2c565b610305565b6040516100fe9190610f87565b60405180910390f35b61010f610465565b60405161011c9190610fb1565b60405180910390f35b61013f600480360381019061013a9190610fcc565b61046b565b60405161014c9190610f87565b60405180910390f35b61015d6107cc565b60405161016a919061103b565b60405180910390f35b61018d60048036038101906101889190611056565b6107df565b005b6101a960048036038101906101a49190611083565b610938565b6040516101b69190610fb1565b60405180910390f35b6101c7610950565b6040516101d491906110bf565b60405180910390f35b6101e5610976565b6040516101f29190610e71565b60405180910390f35b61021560048036038101906102109190611056565b610a04565b005b610231600480360381019061022c9190610f2c565b610bae565b60405161023e9190610f87565b60405180910390f35b610261600480360381019061025c91906110da565b610dbc565b60405161026e9190610fb1565b60405180910390f35b6001805461028490611149565b80601f01602080910402602001604051908101604052809291908181526020018280546102b090611149565b80156102fd5780601f106102d2576101008083540402835291602001916102fd565b820191906000526020600020905b8154815290600101906020018083116102e057829003601f168201915b505050505081565b60008073ffffffffffffffffffffffffffffffffffffffff168373ffffffffffffffffffffffffffffffffffffffff1603610375576040517f08c379a000000000000000000000000000000000000000000000000000000000815260040161036c906111c6565b60405180910390fd5b81600560003373ffffffffffffffffffffffffffffffffffffffff1673ffffffffffffffffffffffffffffffffffffffff16815260200190815260200160002060008573ffffffffffffffffffffffffffffffffffffffff1673ffffffffffffffffffffffffffffffffffffffff168152602001908152602001600020819055508273ffffffffffffffffffffffffffffffffffffffff163373ffffffffffffffffffffffffffffffffffffffff167f8c5be1e5ebec7d5bd14f71427d1e84f3dd0314c0f7b2291e5b200ac8c7c3b925846040516104539190610fb1565b60405180910390a36001905092915050565b60005481565b600081600560008673ffffffffffffffffffffffffffffffffffffffff1673ffffffffffffffffffffffffffffffffffffffff16815260200190815260200160002060003373ffffffffffffffffffffffffffffffffffffffff1673ffffffffffffffffffffffffffffffffffffffff16815260200190815260200160002054101561052c576040517f08c379a000000000000000000000000000000000000000000000000000000000815260040161052390611232565b60405180910390fd5b81600460008673ffffffffffffffffffffffffffffffffffffffff1673ffffffffffffffffffffffffffffffffffffffff1681526020019081526020016000205410156105ae576040517f08c379a00000000000000000000000000000000000000000000000000000000081526004016105a59061129e565b60405180910390fd5b600073ffffffffffffffffffffffffffffffffffffffff168373ffffffffffffffffffffffffffffffffffffffff160361061d576040517f08c379a00000000000000000000000000000000000000000000000000000000081526004016106149061130a565b60405180910390fd5b81600560008673ffffffffffffffffffffffffffffffffffffffff1673ffffffffffffffffffffffffffffffffffffffff16815260200190815260200160002060003373ffffffffffffffffffffffffffffffffffffffff1673ffffffffffffffffffffffffffffffffffffffff16815260200190815260200160002060008282546106a99190611359565b9250508190555081600460008673ffffffffffffffffffffffffffffffffffffffff1673ffffffffffffffffffffffffffffffffffffffff16815260200190815260200160002060008282546106ff9190611359565b9250508190555081600460008573ffffffffffffffffffffffffffffffffffffffff1673ffffffffffffffffffffffffffffffffffffffff1681526020019081526020016000206000828254610755919061138d565b925050819055508273ffffffffffffffffffffffffffffffffffffffff168473ffffffffffffffffffffffffffffffffffffffff167fddf252ad1be2c89b69c2b068fc378daa952ba7f163c4a11628f55a4df523b3ef846040516107b99190610fb1565b60405180910390a3600190509392505050565b600360009054906101000a900460ff1681565b80600460003373ffffffffffffffffffffffffffffffffffffffff1673ffffffffffffffffffffffffffffffffffffffff168152602001908152602001600020541015610861576040517f08c379a000000000000000000000000000000000000000000000000000000000815260040161085890611433565b60405180910390fd5b80600460003373ffffffffffffffffffffffffffffffffffffffff1673ffffffffffffffffffffffffffffffffffffffff16815260200190815260200160002060008282546108b09190611359565b92505081905550806000808282546108c89190611359565b92505081905550600073ffffffffffffffffffffffffffffffffffffffff163373ffffffffffffffffffffffffffffffffffffffff167fddf252ad1be2c89b69c2b068fc378daa952ba7f163c4a11628f55a4df523b3ef8360405161092d9190610fb1565b60405180910390a350565b60046020528060005260406000206000915090505481565b600360019054906101000a900473ffffffffffffffffffffffffffffffffffffffff1681565b6002805461098390611149565b80601f01602080910402602001604051908101604052809291908181526020018280546109af90611149565b80156109fc5780601f106109d1576101008083540402835291602001916109fc565b820191906000526020600020905b8154815290600101906020018083116109df57829003601f168201915b505050505081565b600360019054906101000a900473ffffffffffffffffffffffffffffffffffffffff1673ffffffffffffffffffffffffffffffffffffffff163373ffffffffffffffffffffffffffffffffffffffff1614610a94576040517f08c379a0000000000000000000000000000000000000000000000000000000008152600401610a8b9061149f565b60405180910390fd5b60008111610ad7576040517f08c379a0000000000000000000000000000000000000000000000000000000008152600401610ace9061150b565b60405180910390fd5b80600460003373ffffffffffffffffffffffffffffffffffffffff1673ffffffffffffffffffffffffffffffffffffffff1681526020019081526020016000206000828254610b26919061138d565b9250508190555080600080828254610b3e919061138d565b925050819055503373ffffffffffffffffffffffffffffffffffffffff16600073ffffffffffffffffffffffffffffffffffffffff167fddf252ad1be2c89b69c2b068fc378daa952ba7f163c4a11628f55a4df523b3ef83604051610ba39190610fb1565b60405180910390a350565b600081600460003373ffffffffffffffffffffffffffffffffffffffff1673ffffffffffffffffffffffffffffffffffffffff168152602001908152602001600020541015610c32576040517f08c379a0000000000000000000000000000000000000000000000000000000008152600401610c299061129e565b60405180910390fd5b600073ffffffffffffffffffffffffffffffffffffffff168373ffffffffffffffffffffffffffffffffffffffff1603610ca1576040517f08c379a0000000000000000000000000000000000000000000000000000000008152600401610c989061130a565b60405180910390fd5b81600460003373ffffffffffffffffffffffffffffffffffffffff1673ffffffffffffffffffffffffffffffffffffffff1681526020019081526020016000206000828254610cf09190611359565b9250508190555081600460008573ffffffffffffffffffffffffffffffffffffffff1673ffffffffffffffffffffffffffffffffffffffff1681526020019081526020016000206000828254610d46919061138d565b925050819055508273ffffffffffffffffffffffffffffffffffffffff163373ffffffffffffffffffffffffffffffffffffffff167fddf252ad1be2c89b69c2b068fc378daa952ba7f163c4a11628f55a4df523b3ef84604051610daa9190610fb1565b60405180910390a36001905092915050565b6005602052816000526040600020602052806000526040600020600091509150505481565b600081519050919050565b600082825260208201905092915050565b60005b83811015610e1b578082015181840152602081019050610e00565b60008484015250505050565b6000601f19601f8301169050919050565b6000610e4382610de1565b610e4d8185610dec565b9350610e5d818560208601610dfd565b610e6681610e27565b840191505092915050565b60006020820190508181036000830152610e8b8184610e38565b905092915050565b600080fd5b600073ffffffffffffffffffffffffffffffffffffffff82169050919050565b6000610ec382610e98565b9050919050565b610ed381610eb8565b8114610ede57600080fd5b50565b600081359050610ef081610eca565b92915050565b6000819050919050565b610f0981610ef6565b8114610f1457600080fd5b50565b600081359050610f2681610f00565b92915050565b60008060408385031215610f4357610f42610e93565b5b6000610f5185828601610ee1565b9250506020610f6285828601610f17565b9150509250929050565b60008115159050919050565b610f8181610f6c565b82525050565b6000602082019050610f9c6000830184610f78565b92915050565b610fab81610ef6565b82525050565b6000602082019050610fc66000830184610fa2565b92915050565b600080600060608486031215610fe557610fe4610e93565b5b6000610ff386828701610ee1565b935050602061100486828701610ee1565b925050604061101586828701610f17565b9150509250925092565b600060ff82169050919050565b6110358161101f565b82525050565b6000602082019050611050600083018461102c565b92915050565b60006020828403121561106c5761106b610e93565b5b600061107a84828501610f17565b91505092915050565b60006020828403121561109957611098610e93565b5b60006110a784828501610ee1565b91505092915050565b6110b981610eb8565b82525050565b60006020820190506110d460008301846110b0565b92915050565b600080604083850312156110f1576110f0610e93565b5b60006110ff85828601610ee1565b925050602061111085828601610ee1565b9150509250929050565b7f4e487b7100000000000000000000000000000000000000000000000000000000600052602260045260246000fd5b6000600282049050600182168061116157607f821691505b6020821081036111745761117361111a565b5b50919050565b7f45524332303a20617070726f766520746f207a65726f20616464726573730000600082015250565b60006111b0601e83610dec565b91506111bb8261117a565b602082019050919050565b600060208201905081810360008301526111df816111a3565b9050919050565b7f45524332303a20616c6c6f77616e636520657863656564656400000000000000600082015250565b600061121c601983610dec565b9150611227826111e6565b602082019050919050565b6000602082019050818103600083015261124b8161120f565b9050919050565b7f45524332303a20696e73756666696369656e742062616c616e63650000000000600082015250565b6000611288601b83610dec565b915061129382611252565b602082019050919050565b600060208201905081810360008301526112b78161127b565b9050919050565b7f45524332303a207472616e7366657220746f207a65726f206164647265737300600082015250565b60006112f4601f83610dec565b91506112ff826112be565b602082019050919050565b60006020820190508181036000830152611323816112e7565b9050919050565b7f4e487b7100000000000000000000000000000000000000000000000000000000600052601160045260246000fd5b600061136482610ef6565b915061136f83610ef6565b92508282039050818111156113875761138661132a565b5b92915050565b600061139882610ef6565b91506113a383610ef6565b92508282019050808211156113bb576113ba61132a565b5b92915050565b7f45524332303a206275726e20616d6f756e7420657863656564732062616c616e60008201527f6365000000000000000000000000000000000000000000000000000000000000602082015250565b600061141d602283610dec565b9150611428826113c1565b604082019050919050565b6000602082019050818103600083015261144c81611410565b9050919050565b7f45524332303a206f6e6c79206f776e65722063616e206d696e74000000000000600082015250565b6000611489601a83610dec565b915061149482611453565b602082019050919050565b600060208201905081810360008301526114b88161147c565b9050919050565b7f45524332303a2063616e6e6f74206d696e742030000000000000000000000000600082015250565b60006114f5601483610dec565b9150611500826114bf565b602082019050919050565b60006020820190508181036000830152611524816114e8565b905091905056fea26469706673582212204c84eaaa248c7555f1df9c25f517cd8bbf7510c6171dcc991634142cd5b742cb64736f6c634300081c0033",
  "linkReferences": {},
  "deployedLinkReferences": {}
}