{
  "contracts/MultiSig.sol": {
    "MultiSig": {
      "abi": [
        {
          "inputs": [
            {
              "internalType": "address[]",
              "name": "_owners",
              "type": "address[]"
            },
            {
              "internalType": "uint256",
              "name": "_requiredSignatures",
              "type": "uint256"
            }
          ],
          "stateMutability": "nonpayable",
          "type": "constructor"
        },
        {
          "anonymous": false,
          "inputs": [
            {
              "indexed": false,
              "internalType": "uint256",
              "name": "transactionId",
              "type": "uint256"
            },
            {
              "indexed": false,
              "internalType": "address",
              "name": "to",
              "type": "address"
            },
            {
              "indexed": false,
              "internalType": "uint256",
              "name": "value",
              "type": "uint256"
            },
            {
              "indexed": false,
              "internalType": "bytes",
              "name": "data",
              "type": "bytes"
            }
          ],
          "name": "TransactionCreated",
          "type": "event"
        },
        {
          "anonymous": false,
          "inputs": [
            {
              "indexed": false,
              "internalType": "uint256",
              "name": "transactionId",
              "type": "uint256"
            },
            {
              "indexed": false,
              "internalType": "address",
              "name": "executer",
              "type": "address"
            }
          ],
          "name": "TransactionExecuted",
          "type": "event"
        },
        {
          "anonymous": false,
          "inputs": [
            {
              "indexed": false,
              "internalType": "uint256",
              "name": "_transactionId",
              "type": "uint256"
            },
            {
              "indexed": false,
              "internalType": "address",
              "name": "signer",
              "type": "address"
            }
          ],
          "name": "TransactionSigned",
          "type": "event"
        },
        {
          "inputs": [
            {
              "internalType": "uint256",
              "name": "_transactionId",
              "type": "uint256"
            }
          ],
          "name": "executeTransaction",
          "outputs": [],
          "stateMutability": "nonpayable",
          "type": "function"
        },
        {
          "inputs": [
            {
              "internalType": "address",
              "name": "_owner",
              "type": "address"
            }
          ],
          "name": "isOwner",
          "outputs": [
            {
              "internalType": "bool",
              "name": "",
              "type": "bool"
            }
          ],
          "stateMutability": "view",
          "type": "function"
        },
        {
          "inputs": [
            {
              "internalType": "uint256",
              "name": "",
              "type": "uint256"
            }
          ],
          "name": "owners",
          "outputs": [
            {
              "internalType": "address",
              "name": "",
              "type": "address"
            }
          ],
          "stateMutability": "view",
          "type": "function"
        },
        {
          "inputs": [],
          "name": "requiredSignatures",
          "outputs": [
            {
              "internalType": "uint256",
              "name": "",
              "type": "uint256"
            }
          ],
          "stateMutability": "view",
          "type": "function"
        },
        {
          "inputs": [
            {
              "internalType": "uint256",
              "name": "_transactionId",
              "type": "uint256"
            }
          ],
          "name": "signTransaction",
          "outputs": [],
          "stateMutability": "nonpayable",
          "type": "function"
        },
        {
          "inputs": [
            {
              "internalType": "address",
              "name": "_to",
              "type": "address"
            },
            {
              "internalType": "uint256",
              "name": "_value",
              "type": "uint256"
            },
            {
              "internalType": "bytes",
              "name": "_data",
              "type": "bytes"
            }
          ],
          "name": "submitTransaction",
          "outputs": [],
          "stateMutability": "nonpayable",
          "type": "function"
        },
        {
          "inputs": [
            {
              "internalType": "uint256",
              "name": "",
              "type": "uint256"
            }
          ],
          "name": "transactions",
          "outputs": [
            {
              "internalType": "address",
              "name": "to",
              "type": "address"
            },
            {
              "internalType": "uint256",
              "name": "value",
              "type": "uint256"
            },
            {
              "internalType": "bytes",
              "name": "data",
              "type": "bytes"
            },
            {
              "internalType": "bool",
              "name": "executed",
              "type": "bool"
            }
          ],
          "stateMutability": "view",
          "type": "function"
        },
        {
          "stateMutability": "payable",
          "type": "receive"
        }
      ],
      "evm": {
        "bytecode": {
          "linkReferences": {},
          "object": "608060405234801561001057600080fd5b50604051611d0f380380611d0f83398181016040528101906100329190610394565b6000825111610076576040517f08c379a000000000000000000000000000000000000000000000000000000000815260040161006d9061044d565b60405180910390fd5b60038110158015610088575081518111155b6100c7576040517f08c379a00000000000000000000000000000000000000000000000000000000081526004016100be906104df565b60405180910390fd5b81600090805190602001906100dd9291906100ec565b508060018190555050506104ff565b828054828255906000526020600020908101928215610165579160200282015b828111156101645782518260006101000a81548173ffffffffffffffffffffffffffffffffffffffff021916908373ffffffffffffffffffffffffffffffffffffffff1602179055509160200191906001019061010c565b5b5090506101729190610176565b5090565b5b8082111561018f576000816000905550600101610177565b5090565b6000604051905090565b600080fd5b600080fd5b600080fd5b6000601f19601f8301169050919050565b7f4e487b7100000000000000000000000000000000000000000000000000000000600052604160045260246000fd5b6101f5826101ac565b810181811067ffffffffffffffff82111715610214576102136101bd565b5b80604052505050565b6000610227610193565b905061023382826101ec565b919050565b600067ffffffffffffffff821115610253576102526101bd565b5b602082029050602081019050919050565b600080fd5b600073ffffffffffffffffffffffffffffffffffffffff82169050919050565b600061029482610269565b9050919050565b6102a481610289565b81146102af57600080fd5b50565b6000815190506102c18161029b565b92915050565b60006102da6102d584610238565b61021d565b905080838252602082019050602084028301858111156102fd576102fc610264565b5b835b81811015610326578061031288826102b2565b8452602084019350506020810190506102ff565b5050509392505050565b600082601f830112610345576103446101a7565b5b81516103558482602086016102c7565b91505092915050565b6000819050919050565b6103718161035e565b811461037c57600080fd5b50565b60008151905061038e81610368565b92915050565b600080604083850312156103ab576103aa61019d565b5b600083015167ffffffffffffffff8111156103c9576103c86101a2565b5b6103d585828601610330565b92505060206103e68582860161037f565b9150509250929050565b600082825260208201905092915050565b7f4f776e6572732072657175697265640000000000000000000000000000000000600082015250565b6000610437600f836103f0565b915061044282610401565b602082019050919050565b600060208201905081810360008301526104668161042a565b9050919050565b7f496e76616c6964206e6f2e206f66207265717569726564207369676e6174757260008201527f6573000000000000000000000000000000000000000000000000000000000000602082015250565b60006104c96022836103f0565b91506104d48261046d565b604082019050919050565b600060208201905081810360008301526104f8816104bc565b9050919050565b6118018061050e6000396000f3fe6080604052600436106100745760003560e01c80638d0680431161004e5780638d068043146101235780639ace38c21461014e578063c64274741461018e578063ee22610b146101b75761007b565b8063025e7c27146100805780632f54bf6e146100bd5780635d9ec210146100fa5761007b565b3661007b57005b600080fd5b34801561008c57600080fd5b506100a760048036038101906100a29190610bc6565b6101e0565b6040516100b49190610c34565b60405180910390f35b3480156100c957600080fd5b506100e460048036038101906100df9190610c7b565b61021f565b6040516100f19190610cc3565b60405180910390f35b34801561010657600080fd5b50610121600480360381019061011c9190610bc6565b6102c3565b005b34801561012f57600080fd5b5061013861050b565b6040516101459190610ced565b60405180910390f35b34801561015a57600080fd5b5061017560048036038101906101709190610bc6565b610511565b6040516101859493929190610d98565b60405180910390f35b34801561019a57600080fd5b506101b560048036038101906101b09190610f19565b610606565b005b3480156101c357600080fd5b506101de60048036038101906101d99190610bc6565b610873565b005b600081815481106101f057600080fd5b906000526020600020016000915054906101000a900473ffffffffffffffffffffffffffffffffffffffff1681565b6000805b6000805490508110156102b8578273ffffffffffffffffffffffffffffffffffffffff166000828154811061025b5761025a610f88565b5b9060005260206000200160009054906101000a900473ffffffffffffffffffffffffffffffffffffffff1673ffffffffffffffffffffffffffffffffffffffff16036102ab5760019150506102be565b8080600101915050610223565b50600090505b919050565b6102cc3361021f565b61030b576040517f08c379a000000000000000000000000000000000000000000000000000000000815260040161030290611014565b60405180910390fd5b6002805490508110610352576040517f08c379a000000000000000000000000000000000000000000000000000000000815260040161034990611080565b60405180910390fd5b60006002828154811061036857610367610f88565b5b906000526020600020906005020190508060030160009054906101000a900460ff16156103ca576040517f08c379a00000000000000000000000000000000000000000000000000000000081526004016103c1906110ec565b60405180910390fd5b8060040160003373ffffffffffffffffffffffffffffffffffffffff1673ffffffffffffffffffffffffffffffffffffffff16815260200190815260200160002060009054906101000a900460ff1615610459576040517f08c379a000000000000000000000000000000000000000000000000000000000815260040161045090611158565b60405180910390fd5b60018160040160003373ffffffffffffffffffffffffffffffffffffffff1673ffffffffffffffffffffffffffffffffffffffff16815260200190815260200160002060006101000a81548160ff0219169083151502179055507f737f6609fa194738ed162051f994c6e9599a830846ea9d72d6501d79871e098182336040516104e4929190611178565b60405180910390a16001546104f882610aae565b106105075761050682610873565b5b5050565b60015481565b6002818154811061052157600080fd5b90600052602060002090600502016000915090508060000160009054906101000a900473ffffffffffffffffffffffffffffffffffffffff1690806001015490806002018054610570906111d0565b80601f016020809104026020016040519081016040528092919081815260200182805461059c906111d0565b80156105e95780601f106105be576101008083540402835291602001916105e9565b820191906000526020600020905b8154815290600101906020018083116105cc57829003601f168201915b5050505050908060030160009054906101000a900460ff16905084565b61060f3361021f565b61064e576040517f08c379a000000000000000000000000000000000000000000000000000000000815260040161064590611014565b60405180910390fd5b600073ffffffffffffffffffffffffffffffffffffffff168373ffffffffffffffffffffffffffffffffffffffff16036106bd576040517f08c379a00000000000000000000000000000000000000000000000000000000081526004016106b49061124d565b60405180910390fd5b60008211610700576040517f08c379a00000000000000000000000000000000000000000000000000000000081526004016106f7906112b9565b60405180910390fd5b600260018160018154018082558091505003906000526020600020905050600060016002805490506107329190611308565b905060006002828154811061074a57610749610f88565b5b90600052602060002090600502019050848160000160006101000a81548173ffffffffffffffffffffffffffffffffffffffff021916908373ffffffffffffffffffffffffffffffffffffffff160217905550838160010181905550828160020190816107b791906114e8565b5060008160030160006101000a81548160ff02191690831515021790555060018160040160003373ffffffffffffffffffffffffffffffffffffffff1673ffffffffffffffffffffffffffffffffffffffff16815260200190815260200160002060006101000a81548160ff0219169083151502179055507f453e07a951b5abb44cc647534a150065e3a308fec0dc01fda6ca43a4984f835b8286868660405161086494939291906115ba565b60405180910390a15050505050565b61087c3361021f565b6108bb576040517f08c379a00000000000000000000000000000000000000000000000000000000081526004016108b290611014565b60405180910390fd5b6002805490508110610902576040517f08c379a00000000000000000000000000000000000000000000000000000000081526004016108f990611652565b60405180910390fd5b60006002828154811061091857610917610f88565b5b906000526020600020906005020190508060030160009054906101000a900460ff161561097a576040517f08c379a0000000000000000000000000000000000000000000000000000000008152600401610971906110ec565b60405180910390fd5b60018160030160006101000a81548160ff02191690831515021790555060008160000160009054906101000a900473ffffffffffffffffffffffffffffffffffffffff1673ffffffffffffffffffffffffffffffffffffffff168260010154836002016040516109ea9190611700565b60006040518083038185875af1925050503d8060008114610a27576040519150601f19603f3d011682016040523d82523d6000602084013e610a2c565b606091505b5050905080610a70576040517f08c379a0000000000000000000000000000000000000000000000000000000008152600401610a6790611763565b60405180910390fd5b7fefc13bdcf58f184ea7cae26b499fb33b539e01d0197cea456f3ada289b8cf19b8333604051610aa1929190611178565b60405180910390a1505050565b6000806000905060005b600080549050811015610b7257836004016000808381548110610ade57610add610f88565b5b9060005260206000200160009054906101000a900473ffffffffffffffffffffffffffffffffffffffff1673ffffffffffffffffffffffffffffffffffffffff1673ffffffffffffffffffffffffffffffffffffffff16815260200190815260200160002060009054906101000a900460ff1615610b65578180610b6190611783565b9250505b8080600101915050610ab8565b5080915050919050565b6000604051905090565b600080fd5b600080fd5b6000819050919050565b610ba381610b90565b8114610bae57600080fd5b50565b600081359050610bc081610b9a565b92915050565b600060208284031215610bdc57610bdb610b86565b5b6000610bea84828501610bb1565b91505092915050565b600073ffffffffffffffffffffffffffffffffffffffff82169050919050565b6000610c1e82610bf3565b9050919050565b610c2e81610c13565b82525050565b6000602082019050610c496000830184610c25565b92915050565b610c5881610c13565b8114610c6357600080fd5b50565b600081359050610c7581610c4f565b92915050565b600060208284031215610c9157610c90610b86565b5b6000610c9f84828501610c66565b91505092915050565b60008115159050919050565b610cbd81610ca8565b82525050565b6000602082019050610cd86000830184610cb4565b92915050565b610ce781610b90565b82525050565b6000602082019050610d026000830184610cde565b92915050565b600081519050919050565b600082825260208201905092915050565b60005b83811015610d42578082015181840152602081019050610d27565b60008484015250505050565b6000601f19601f8301169050919050565b6000610d6a82610d08565b610d748185610d13565b9350610d84818560208601610d24565b610d8d81610d4e565b840191505092915050565b6000608082019050610dad6000830187610c25565b610dba6020830186610cde565b8181036040830152610dcc8185610d5f565b9050610ddb6060830184610cb4565b95945050505050565b600080fd5b600080fd5b7f4e487b7100000000000000000000000000000000000000000000000000000000600052604160045260246000fd5b610e2682610d4e565b810181811067ffffffffffffffff82111715610e4557610e44610dee565b5b80604052505050565b6000610e58610b7c565b9050610e648282610e1d565b919050565b600067ffffffffffffffff821115610e8457610e83610dee565b5b610e8d82610d4e565b9050602081019050919050565b82818337600083830152505050565b6000610ebc610eb784610e69565b610e4e565b905082815260208101848484011115610ed857610ed7610de9565b5b610ee3848285610e9a565b509392505050565b600082601f830112610f0057610eff610de4565b5b8135610f10848260208601610ea9565b91505092915050565b600080600060608486031215610f3257610f31610b86565b5b6000610f4086828701610c66565b9350506020610f5186828701610bb1565b925050604084013567ffffffffffffffff811115610f7257610f71610b8b565b5b610f7e86828701610eeb565b9150509250925092565b7f4e487b7100000000000000000000000000000000000000000000000000000000600052603260045260246000fd5b600082825260208201905092915050565b7f4e6f7420616e206f776e65720000000000000000000000000000000000000000600082015250565b6000610ffe600c83610fb7565b915061100982610fc8565b602082019050919050565b6000602082019050818103600083015261102d81610ff1565b9050919050565b7f496e76616c6964207472616e73616374696f6e20494400000000000000000000600082015250565b600061106a601683610fb7565b915061107582611034565b602082019050919050565b600060208201905081810360008301526110998161105d565b9050919050565b7f5472616e73616374696f6e20616c726561647920657865637574656400000000600082015250565b60006110d6601c83610fb7565b91506110e1826110a0565b602082019050919050565b60006020820190508181036000830152611105816110c9565b9050919050565b7f416c7265616479207369676e6564000000000000000000000000000000000000600082015250565b6000611142600e83610fb7565b915061114d8261110c565b602082019050919050565b6000602082019050818103600083015261117181611135565b9050919050565b600060408201905061118d6000830185610cde565b61119a6020830184610c25565b9392505050565b7f4e487b7100000000000000000000000000000000000000000000000000000000600052602260045260246000fd5b600060028204905060018216806111e857607f821691505b6020821081036111fb576111fa6111a1565b5b50919050565b7f496e76616c696420616464726573730000000000000000000000000000000000600082015250565b6000611237600f83610fb7565b915061124282611201565b602082019050919050565b600060208201905081810360008301526112668161122a565b9050919050565b7f56616c7565206d7573742062652067726561746572207468616e207a65726f00600082015250565b60006112a3601f83610fb7565b91506112ae8261126d565b602082019050919050565b600060208201905081810360008301526112d281611296565b9050919050565b7f4e487b7100000000000000000000000000000000000000000000000000000000600052601160045260246000fd5b600061131382610b90565b915061131e83610b90565b9250828203905081811115611336576113356112d9565b5b92915050565b60008190508160005260206000209050919050565b60006020601f8301049050919050565b600082821b905092915050565b60006008830261139e7fffffffffffffffffffffffffffffffffffffffffffffffffffffffffffffffff82611361565b6113a88683611361565b95508019841693508086168417925050509392505050565b6000819050919050565b60006113e56113e06113db84610b90565b6113c0565b610b90565b9050919050565b6000819050919050565b6113ff836113ca565b61141361140b826113ec565b84845461136e565b825550505050565b600090565b61142861141b565b6114338184846113f6565b505050565b5b818110156114575761144c600082611420565b600181019050611439565b5050565b601f82111561149c5761146d8161133c565b61147684611351565b81016020851015611485578190505b61149961149185611351565b830182611438565b50505b505050565b600082821c905092915050565b60006114bf600019846008026114a1565b1980831691505092915050565b60006114d883836114ae565b9150826002028217905092915050565b6114f182610d08565b67ffffffffffffffff81111561150a57611509610dee565b5b61151482546111d0565b61151f82828561145b565b600060209050601f8311600181146115525760008415611540578287015190505b61154a85826114cc565b8655506115b2565b601f1984166115608661133c565b60005b8281101561158857848901518255600182019150602085019450602081019050611563565b868310156115a557848901516115a1601f8916826114ae565b8355505b6001600288020188555050505b505050505050565b60006080820190506115cf6000830187610cde565b6115dc6020830186610c25565b6115e96040830185610cde565b81810360608301526115fb8184610d5f565b905095945050505050565b7f496e76616c6964207472616e73616374696f6e00000000000000000000000000600082015250565b600061163c601383610fb7565b915061164782611606565b602082019050919050565b6000602082019050818103600083015261166b8161162f565b9050919050565b600081905092915050565b6000815461168a816111d0565b6116948186611672565b945060018216600081146116af57600181146116c4576116f7565b60ff19831686528115158202860193506116f7565b6116cd8561133c565b60005b838110156116ef578154818901526001820191506020810190506116d0565b838801955050505b50505092915050565b600061170c828461167d565b915081905092915050565b7f5472616e73616374696f6e20657865637574696f6e206661696c656400000000600082015250565b600061174d601c83610fb7565b915061175882611717565b602082019050919050565b6000602082019050818103600083015261177c81611740565b9050919050565b600061178e82610b90565b91507fffffffffffffffffffffffffffffffffffffffffffffffffffffffffffffffff82036117c0576117bf6112d9565b5b60018201905091905056fea2646970667358221220508cc59a54a42180fa2f0ce5a48196a9d865006f88f360753cfdd7ed9a2e1b7664736f6c634300081c0033",
          "opcodes": "PUSH1 0x80 PUSH1 0x40 MSTORE CALLVALUE DUP1 ISZERO PUSH2 0x10 JUMPI PUSH1 0x0 DUP1 REVERT JUMPDEST POP PUSH1 0x40 MLOAD PUSH2 0x1D0F CODESIZE SUB DUP1 PUSH2 0x1D0F DUP4 CODECOPY DUP2 DUP2 ADD PUSH1 0x40 MSTORE DUP2 ADD SWAP1 PUSH2 0x32 SWAP2 SWAP1 PUSH2 0x394 JUMP JUMPDEST PUSH1 0x0 DUP3 MLOAD GT PUSH2 0x76 JUMPI PUSH1 0x40 MLOAD PUSH32 0x8C379A000000000000000000000000000000000000000000000000000000000 DUP2 MSTORE PUSH1 0x4 ADD PUSH2 0x6D SWAP1 PUSH2 0x44D JUMP JUMPDEST PUSH1 0x40 MLOAD DUP1 SWAP2 SUB SWAP1 REVERT JUMPDEST PUSH1 0x3 DUP2 LT ISZERO DUP1 ISZERO PUSH2 0x88 JUMPI POP DUP2 MLOAD DUP2 GT ISZERO JUMPDEST PUSH2 0xC7 JUMPI PUSH1 0x40 MLOAD PUSH32 0x8C379A000000000000000000000000000000000000000000000000000000000 DUP2 MSTORE PUSH1 0x4 ADD PUSH2 0xBE SWAP1 PUSH2 0x4DF JUMP JUMPDEST PUSH1 0x40 MLOAD DUP1 SWAP2 SUB SWAP1 REVERT JUMPDEST DUP2 PUSH1 0x0 SWAP1 DUP1 MLOAD SWAP1 PUSH1 0x20 ADD SWAP1 PUSH2 0xDD SWAP3 SWAP2 SWAP1 PUSH2 0xEC JUMP JUMPDEST POP DUP1 PUSH1 0x1 DUP2 SWAP1 SSTORE POP POP POP PUSH2 0x4FF JUMP JUMPDEST DUP3 DUP1 SLOAD DUP3 DUP3 SSTORE SWAP1 PUSH1 0x0 MSTORE PUSH1 0x20 PUSH1 0x0 KECCAK256 SWAP1 DUP2 ADD SWAP3 DUP3 ISZERO PUSH2 0x165 JUMPI SWAP2 PUSH1 0x20 MUL DUP3 ADD JUMPDEST DUP3 DUP2 GT ISZERO PUSH2 0x164 JUMPI DUP3 MLOAD DUP3 PUSH1 0x0 PUSH2 0x100 EXP DUP2 SLOAD DUP2 PUSH20 0xFFFFFFFFFFFFFFFFFFFFFFFFFFFFFFFFFFFFFFFF MUL NOT AND SWAP1 DUP4 PUSH20 0xFFFFFFFFFFFFFFFFFFFFFFFFFFFFFFFFFFFFFFFF AND MUL OR SWAP1 SSTORE POP SWAP2 PUSH1 0x20 ADD SWAP2 SWAP1 PUSH1 0x1 ADD SWAP1 PUSH2 0x10C JUMP JUMPDEST JUMPDEST POP SWAP1 POP PUSH2 0x172 SWAP2 SWAP1 PUSH2 0x176 JUMP JUMPDEST POP SWAP1 JUMP JUMPDEST JUMPDEST DUP1 DUP3 GT ISZERO PUSH2 0x18F JUMPI PUSH1 0x0 DUP2 PUSH1 0x0 SWAP1 SSTORE POP PUSH1 0x1 ADD PUSH2 0x177 JUMP JUMPDEST POP SWAP1 JUMP JUMPDEST PUSH1 0x0 PUSH1 0x40 MLOAD SWAP1 POP SWAP1 JUMP JUMPDEST PUSH1 0x0 DUP1 REVERT JUMPDEST PUSH1 0x0 DUP1 REVERT JUMPDEST PUSH1 0x0 DUP1 REVERT JUMPDEST PUSH1 0x0 PUSH1 0x1F NOT PUSH1 0x1F DUP4 ADD AND SWAP1 POP SWAP2 SWAP1 POP JUMP JUMPDEST PUSH32 0x4E487B7100000000000000000000000000000000000000000000000000000000 PUSH1 0x0 MSTORE PUSH1 0x41 PUSH1 0x4 MSTORE PUSH1 0x24 PUSH1 0x0 REVERT JUMPDEST PUSH2 0x1F5 DUP3 PUSH2 0x1AC JUMP JUMPDEST DUP2 ADD DUP2 DUP2 LT PUSH8 0xFFFFFFFFFFFFFFFF DUP3 GT OR ISZERO PUSH2 0x214 JUMPI PUSH2 0x213 PUSH2 0x1BD JUMP JUMPDEST JUMPDEST DUP1 PUSH1 0x40 MSTORE POP POP POP JUMP JUMPDEST PUSH1 0x0 PUSH2 0x227 PUSH2 0x193 JUMP JUMPDEST SWAP1 POP PUSH2 0x233 DUP3 DUP3 PUSH2 0x1EC JUMP JUMPDEST SWAP2 SWAP1 POP JUMP JUMPDEST PUSH1 0x0 PUSH8 0xFFFFFFFFFFFFFFFF DUP3 GT ISZERO PUSH2 0x253 JUMPI PUSH2 0x252 PUSH2 0x1BD JUMP JUMPDEST JUMPDEST PUSH1 0x20 DUP3 MUL SWAP1 POP PUSH1 0x20 DUP2 ADD SWAP1 POP SWAP2 SWAP1 POP JUMP JUMPDEST PUSH1 0x0 DUP1 REVERT JUMPDEST PUSH1 0x0 PUSH20 0xFFFFFFFFFFFFFFFFFFFFFFFFFFFFFFFFFFFFFFFF DUP3 AND SWAP1 POP SWAP2 SWAP1 POP JUMP JUMPDEST PUSH1 0x0 PUSH2 0x294 DUP3 PUSH2 0x269 JUMP JUMPDEST SWAP1 POP SWAP2 SWAP1 POP JUMP JUMPDEST PUSH2 0x2A4 DUP2 PUSH2 0x289 JUMP JUMPDEST DUP2 EQ PUSH2 0x2AF JUMPI PUSH1 0x0 DUP1 REVERT JUMPDEST POP JUMP JUMPDEST PUSH1 0x0 DUP2 MLOAD SWAP1 POP PUSH2 0x2C1 DUP2 PUSH2 0x29B JUMP JUMPDEST SWAP3 SWAP2 POP POP JUMP JUMPDEST PUSH1 0x0 PUSH2 0x2DA PUSH2 0x2D5 DUP5 PUSH2 0x238 JUMP JUMPDEST PUSH2 0x21D JUMP JUMPDEST SWAP1 POP DUP1 DUP4 DUP3 MSTORE PUSH1 0x20 DUP3 ADD SWAP1 POP PUSH1 0x20 DUP5 MUL DUP4 ADD DUP6 DUP2 GT ISZERO PUSH2 0x2FD JUMPI PUSH2 0x2FC PUSH2 0x264 JUMP JUMPDEST JUMPDEST DUP4 JUMPDEST DUP2 DUP2 LT ISZERO PUSH2 0x326 JUMPI DUP1 PUSH2 0x312 DUP9 DUP3 PUSH2 0x2B2 JUMP JUMPDEST DUP5 MSTORE PUSH1 0x20 DUP5 ADD SWAP4 POP POP PUSH1 0x20 DUP2 ADD SWAP1 POP PUSH2 0x2FF JUMP JUMPDEST POP POP POP SWAP4 SWAP3 POP POP POP JUMP JUMPDEST PUSH1 0x0 DUP3 PUSH1 0x1F DUP4 ADD SLT PUSH2 0x345 JUMPI PUSH2 0x344 PUSH2 0x1A7 JUMP JUMPDEST JUMPDEST DUP2 MLOAD PUSH2 0x355 DUP5 DUP3 PUSH1 0x20 DUP7 ADD PUSH2 0x2C7 JUMP JUMPDEST SWAP2 POP POP SWAP3 SWAP2 POP POP JUMP JUMPDEST PUSH1 0x0 DUP2 SWAP1 POP SWAP2 SWAP1 POP JUMP JUMPDEST PUSH2 0x371 DUP2 PUSH2 0x35E JUMP JUMPDEST DUP2 EQ PUSH2 0x37C JUMPI PUSH1 0x0 DUP1 REVERT JUMPDEST POP JUMP JUMPDEST PUSH1 0x0 DUP2 MLOAD SWAP1 POP PUSH2 0x38E DUP2 PUSH2 0x368 JUMP JUMPDEST SWAP3 SWAP2 POP POP JUMP JUMPDEST PUSH1 0x0 DUP1 PUSH1 0x40 DUP4 DUP6 SUB SLT ISZERO PUSH2 0x3AB JUMPI PUSH2 0x3AA PUSH2 0x19D JUMP JUMPDEST JUMPDEST PUSH1 0x0 DUP4 ADD MLOAD PUSH8 0xFFFFFFFFFFFFFFFF DUP2 GT ISZERO PUSH2 0x3C9 JUMPI PUSH2 0x3C8 PUSH2 0x1A2 JUMP JUMPDEST JUMPDEST PUSH2 0x3D5 DUP6 DUP3 DUP7 ADD PUSH2 0x330 JUMP JUMPDEST SWAP3 POP POP PUSH1 0x20 PUSH2 0x3E6 DUP6 DUP3 DUP7 ADD PUSH2 0x37F JUMP JUMPDEST SWAP2 POP POP SWAP3 POP SWAP3 SWAP1 POP JUMP JUMPDEST PUSH1 0x0 DUP3 DUP3 MSTORE PUSH1 0x20 DUP3 ADD SWAP1 POP SWAP3 SWAP2 POP POP JUMP JUMPDEST PUSH32 0x4F776E6572732072657175697265640000000000000000000000000000000000 PUSH1 0x0 DUP3 ADD MSTORE POP JUMP JUMPDEST PUSH1 0x0 PUSH2 0x437 PUSH1 0xF DUP4 PUSH2 0x3F0 JUMP JUMPDEST SWAP2 POP PUSH2 0x442 DUP3 PUSH2 0x401 JUMP JUMPDEST PUSH1 0x20 DUP3 ADD SWAP1 POP SWAP2 SWAP1 POP JUMP JUMPDEST PUSH1 0x0 PUSH1 0x20 DUP3 ADD SWAP1 POP DUP2 DUP2 SUB PUSH1 0x0 DUP4 ADD MSTORE PUSH2 0x466 DUP2 PUSH2 0x42A JUMP JUMPDEST SWAP1 POP SWAP2 SWAP1 POP JUMP JUMPDEST PUSH32 0x496E76616C6964206E6F2E206F66207265717569726564207369676E61747572 PUSH1 0x0 DUP3 ADD MSTORE PUSH32 0x6573000000000000000000000000000000000000000000000000000000000000 PUSH1 0x20 DUP3 ADD MSTORE POP JUMP JUMPDEST PUSH1 0x0 PUSH2 0x4C9 PUSH1 0x22 DUP4 PUSH2 0x3F0 JUMP JUMPDEST SWAP2 POP PUSH2 0x4D4 DUP3 PUSH2 0x46D JUMP JUMPDEST PUSH1 0x40 DUP3 ADD SWAP1 POP SWAP2 SWAP1 POP JUMP JUMPDEST PUSH1 0x0 PUSH1 0x20 DUP3 ADD SWAP1 POP DUP2 DUP2 SUB PUSH1 0x0 DUP4 ADD MSTORE PUSH2 0x4F8 DUP2 PUSH2 0x4BC JUMP JUMPDEST SWAP1 POP SWAP2 SWAP1 POP JUMP JUMPDEST PUSH2 0x1801 DUP1 PUSH2 0x50E PUSH1 0x0 CODECOPY PUSH1 0x0 RETURN INVALID PUSH1 0x80 PUSH1 0x40 MSTORE PUSH1 0x4 CALLDATASIZE LT PUSH2 0x74 JUMPI PUSH1 0x0 CALLDATALOAD PUSH1 0xE0 SHR DUP1 PUSH4 0x8D068043 GT PUSH2 0x4E JUMPI DUP1 PUSH4 0x8D068043 EQ PUSH2 0x123 JUMPI DUP1 PUSH4 0x9ACE38C2 EQ PUSH2 0x14E JUMPI DUP1 PUSH4 0xC6427474 EQ PUSH2 0x18E JUMPI DUP1 PUSH4 0xEE22610B EQ PUSH2 0x1B7 JUMPI PUSH2 0x7B JUMP JUMPDEST DUP1 PUSH4 0x25E7C27 EQ PUSH2 0x80 JUMPI DUP1 PUSH4 0x2F54BF6E EQ PUSH2 0xBD JUMPI DUP1 PUSH4 0x5D9EC210 EQ PUSH2 0xFA JUMPI PUSH2 0x7B JUMP JUMPDEST CALLDATASIZE PUSH2 0x7B JUMPI STOP JUMPDEST PUSH1 0x0 DUP1 REVERT JUMPDEST CALLVALUE DUP1 ISZERO PUSH2 0x8C JUMPI PUSH1 0x0 DUP1 REVERT JUMPDEST POP PUSH2 0xA7 PUSH1 0x4 DUP1 CALLDATASIZE SUB DUP2 ADD SWAP1 PUSH2 0xA2 SWAP2 SWAP1 PUSH2 0xBC6 JUMP JUMPDEST PUSH2 0x1E0 JUMP JUMPDEST PUSH1 0x40 MLOAD PUSH2 0xB4 SWAP2 SWAP1 PUSH2 0xC34 JUMP JUMPDEST PUSH1 0x40 MLOAD DUP1 SWAP2 SUB SWAP1 RETURN JUMPDEST CALLVALUE DUP1 ISZERO PUSH2 0xC9 JUMPI PUSH1 0x0 DUP1 REVERT JUMPDEST POP PUSH2 0xE4 PUSH1 0x4 DUP1 CALLDATASIZE SUB DUP2 ADD SWAP1 PUSH2 0xDF SWAP2 SWAP1 PUSH2 0xC7B JUMP JUMPDEST PUSH2 0x21F JUMP JUMPDEST PUSH1 0x40 MLOAD PUSH2 0xF1 SWAP2 SWAP1 PUSH2 0xCC3 JUMP JUMPDEST PUSH1 0x40 MLOAD DUP1 SWAP2 SUB SWAP1 RETURN JUMPDEST CALLVALUE DUP1 ISZERO PUSH2 0x106 JUMPI PUSH1 0x0 DUP1 REVERT JUMPDEST POP PUSH2 0x121 PUSH1 0x4 DUP1 CALLDATASIZE SUB DUP2 ADD SWAP1 PUSH2 0x11C SWAP2 SWAP1 PUSH2 0xBC6 JUMP JUMPDEST PUSH2 0x2C3 JUMP JUMPDEST STOP JUMPDEST CALLVALUE DUP1 ISZERO PUSH2 0x12F JUMPI PUSH1 0x0 DUP1 REVERT JUMPDEST POP PUSH2 0x138 PUSH2 0x50B JUMP JUMPDEST PUSH1 0x40 MLOAD PUSH2 0x145 SWAP2 SWAP1 PUSH2 0xCED JUMP JUMPDEST PUSH1 0x40 MLOAD DUP1 SWAP2 SUB SWAP1 RETURN JUMPDEST CALLVALUE DUP1 ISZERO PUSH2 0x15A JUMPI PUSH1 0x0 DUP1 REVERT JUMPDEST POP PUSH2 0x175 PUSH1 0x4 DUP1 CALLDATASIZE SUB DUP2 ADD SWAP1 PUSH2 0x170 SWAP2 SWAP1 PUSH2 0xBC6 JUMP JUMPDEST PUSH2 0x511 JUMP JUMPDEST PUSH1 0x40 MLOAD PUSH2 0x185 SWAP5 SWAP4 SWAP3 SWAP2 SWAP1 PUSH2 0xD98 JUMP JUMPDEST PUSH1 0x40 MLOAD DUP1 SWAP2 SUB SWAP1 RETURN JUMPDEST CALLVALUE DUP1 ISZERO PUSH2 0x19A JUMPI PUSH1 0x0 DUP1 REVERT JUMPDEST POP PUSH2 0x1B5 PUSH1 0x4 DUP1 CALLDATASIZE SUB DUP2 ADD SWAP1 PUSH2 0x1B0 SWAP2 SWAP1 PUSH2 0xF19 JUMP JUMPDEST PUSH2 0x606 JUMP JUMPDEST STOP JUMPDEST CALLVALUE DUP1 ISZERO PUSH2 0x1C3 JUMPI PUSH1 0x0 DUP1 REVERT JUMPDEST POP PUSH2 0x1DE PUSH1 0x4 DUP1 CALLDATASIZE SUB DUP2 ADD SWAP1 PUSH2 0x1D9 SWAP2 SWAP1 PUSH2 0xBC6 JUMP JUMPDEST PUSH2 0x873 JUMP JUMPDEST STOP JUMPDEST PUSH1 0x0 DUP2 DUP2 SLOAD DUP2 LT PUSH2 0x1F0 JUMPI PUSH1 0x0 DUP1 REVERT JUMPDEST SWAP1 PUSH1 0x0 MSTORE PUSH1 0x20 PUSH1 0x0 KECCAK256 ADD PUSH1 0x0 SWAP2 POP SLOAD SWAP1 PUSH2 0x100 EXP SWAP1 DIV PUSH20 0xFFFFFFFFFFFFFFFFFFFFFFFFFFFFFFFFFFFFFFFF AND DUP2 JUMP JUMPDEST PUSH1 0x0 DUP1 JUMPDEST PUSH1 0x0 DUP1 SLOAD SWAP1 POP DUP2 LT ISZERO PUSH2 0x2B8 JUMPI DUP3 PUSH20 0xFFFFFFFFFFFFFFFFFFFFFFFFFFFFFFFFFFFFFFFF AND PUSH1 0x0 DUP3 DUP2 SLOAD DUP2 LT PUSH2 0x25B JUMPI PUSH2 0x25A PUSH2 0xF88 JUMP JUMPDEST JUMPDEST SWAP1 PUSH1 0x0 MSTORE PUSH1 0x20 PUSH1 0x0 KECCAK256 ADD PUSH1 0x0 SWAP1 SLOAD SWAP1 PUSH2 0x100 EXP SWAP1 DIV PUSH20 0xFFFFFFFFFFFFFFFFFFFFFFFFFFFFFFFFFFFFFFFF AND PUSH20 0xFFFFFFFFFFFFFFFFFFFFFFFFFFFFFFFFFFFFFFFF AND SUB PUSH2 0x2AB JUMPI PUSH1 0x1 SWAP2 POP POP PUSH2 0x2BE JUMP JUMPDEST DUP1 DUP1 PUSH1 0x1 ADD SWAP2 POP POP PUSH2 0x223 JUMP JUMPDEST POP PUSH1 0x0 SWAP1 POP JUMPDEST SWAP2 SWAP1 POP JUMP JUMPDEST PUSH2 0x2CC CALLER PUSH2 0x21F JUMP JUMPDEST PUSH2 0x30B JUMPI PUSH1 0x40 MLOAD PUSH32 0x8C379A000000000000000000000000000000000000000000000000000000000 DUP2 MSTORE PUSH1 0x4 ADD PUSH2 0x302 SWAP1 PUSH2 0x1014 JUMP JUMPDEST PUSH1 0x40 MLOAD DUP1 SWAP2 SUB SWAP1 REVERT JUMPDEST PUSH1 0x2 DUP1 SLOAD SWAP1 POP DUP2 LT PUSH2 0x352 JUMPI PUSH1 0x40 MLOAD PUSH32 0x8C379A000000000000000000000000000000000000000000000000000000000 DUP2 MSTORE PUSH1 0x4 ADD PUSH2 0x349 SWAP1 PUSH2 0x1080 JUMP JUMPDEST PUSH1 0x40 MLOAD DUP1 SWAP2 SUB SWAP1 REVERT JUMPDEST PUSH1 0x0 PUSH1 0x2 DUP3 DUP2 SLOAD DUP2 LT PUSH2 0x368 JUMPI PUSH2 0x367 PUSH2 0xF88 JUMP JUMPDEST JUMPDEST SWAP1 PUSH1 0x0 MSTORE PUSH1 0x20 PUSH1 0x0 KECCAK256 SWAP1 PUSH1 0x5 MUL ADD SWAP1 POP DUP1 PUSH1 0x3 ADD PUSH1 0x0 SWAP1 SLOAD SWAP1 PUSH2 0x100 EXP SWAP1 DIV PUSH1 0xFF AND ISZERO PUSH2 0x3CA JUMPI PUSH1 0x40 MLOAD PUSH32 0x8C379A000000000000000000000000000000000000000000000000000000000 DUP2 MSTORE PUSH1 0x4 ADD PUSH2 0x3C1 SWAP1 PUSH2 0x10EC JUMP JUMPDEST PUSH1 0x40 MLOAD DUP1 SWAP2 SUB SWAP1 REVERT JUMPDEST DUP1 PUSH1 0x4 ADD PUSH1 0x0 CALLER PUSH20 0xFFFFFFFFFFFFFFFFFFFFFFFFFFFFFFFFFFFFFFFF AND PUSH20 0xFFFFFFFFFFFFFFFFFFFFFFFFFFFFFFFFFFFFFFFF AND DUP2 MSTORE PUSH1 0x20 ADD SWAP1 DUP2 MSTORE PUSH1 0x20 ADD PUSH1 0x0 KECCAK256 PUSH1 0x0 SWAP1 SLOAD SWAP1 PUSH2 0x100 EXP SWAP1 DIV PUSH1 0xFF AND ISZERO PUSH2 0x459 JUMPI PUSH1 0x40 MLOAD PUSH32 0x8C379A000000000000000000000000000000000000000000000000000000000 DUP2 MSTORE PUSH1 0x4 ADD PUSH2 0x450 SWAP1 PUSH2 0x1158 JUMP JUMPDEST PUSH1 0x40 MLOAD DUP1 SWAP2 SUB SWAP1 REVERT JUMPDEST PUSH1 0x1 DUP2 PUSH1 0x4 ADD PUSH1 0x0 CALLER PUSH20 0xFFFFFFFFFFFFFFFFFFFFFFFFFFFFFFFFFFFFFFFF AND PUSH20 0xFFFFFFFFFFFFFFFFFFFFFFFFFFFFFFFFFFFFFFFF AND DUP2 MSTORE PUSH1 0x20 ADD SWAP1 DUP2 MSTORE PUSH1 0x20 ADD PUSH1 0x0 KECCAK256 PUSH1 0x0 PUSH2 0x100 EXP DUP2 SLOAD DUP2 PUSH1 0xFF MUL NOT AND SWAP1 DUP4 ISZERO ISZERO MUL OR SWAP1 SSTORE POP PUSH32 0x737F6609FA194738ED162051F994C6E9599A830846EA9D72D6501D79871E0981 DUP3 CALLER PUSH1 0x40 MLOAD PUSH2 0x4E4 SWAP3 SWAP2 SWAP1 PUSH2 0x1178 JUMP JUMPDEST PUSH1 0x40 MLOAD DUP1 SWAP2 SUB SWAP1 LOG1 PUSH1 0x1 SLOAD PUSH2 0x4F8 DUP3 PUSH2 0xAAE JUMP JUMPDEST LT PUSH2 0x507 JUMPI PUSH2 0x506 DUP3 PUSH2 0x873 JUMP JUMPDEST JUMPDEST POP POP JUMP JUMPDEST PUSH1 0x1 SLOAD DUP2 JUMP JUMPDEST PUSH1 0x2 DUP2 DUP2 SLOAD DUP2 LT PUSH2 0x521 JUMPI PUSH1 0x0 DUP1 REVERT JUMPDEST SWAP1 PUSH1 0x0 MSTORE PUSH1 0x20 PUSH1 0x0 KECCAK256 SWAP1 PUSH1 0x5 MUL ADD PUSH1 0x0 SWAP2 POP SWAP1 POP DUP1 PUSH1 0x0 ADD PUSH1 0x0 SWAP1 SLOAD SWAP1 PUSH2 0x100 EXP SWAP1 DIV PUSH20 0xFFFFFFFFFFFFFFFFFFFFFFFFFFFFFFFFFFFFFFFF AND SWAP1 DUP1 PUSH1 0x1 ADD SLOAD SWAP1 DUP1 PUSH1 0x2 ADD DUP1 SLOAD PUSH2 0x570 SWAP1 PUSH2 0x11D0 JUMP JUMPDEST DUP1 PUSH1 0x1F ADD PUSH1 0x20 DUP1 SWAP2 DIV MUL PUSH1 0x20 ADD PUSH1 0x40 MLOAD SWAP1 DUP2 ADD PUSH1 0x40 MSTORE DUP1 SWAP3 SWAP2 SWAP1 DUP2 DUP2 MSTORE PUSH1 0x20 ADD DUP3 DUP1 SLOAD PUSH2 0x59C SWAP1 PUSH2 0x11D0 JUMP JUMPDEST DUP1 ISZERO PUSH2 0x5E9 JUMPI DUP1 PUSH1 0x1F LT PUSH2 0x5BE JUMPI PUSH2 0x100 DUP1 DUP4 SLOAD DIV MUL DUP4 MSTORE SWAP2 PUSH1 0x20 ADD SWAP2 PUSH2 0x5E9 JUMP JUMPDEST DUP3 ADD SWAP2 SWAP1 PUSH1 0x0 MSTORE PUSH1 0x20 PUSH1 0x0 KECCAK256 SWAP1 JUMPDEST DUP2 SLOAD DUP2 MSTORE SWAP1 PUSH1 0x1 ADD SWAP1 PUSH1 0x20 ADD DUP1 DUP4 GT PUSH2 0x5CC JUMPI DUP3 SWAP1 SUB PUSH1 0x1F AND DUP3 ADD SWAP2 JUMPDEST POP POP POP POP POP SWAP1 DUP1 PUSH1 0x3 ADD PUSH1 0x0 SWAP1 SLOAD SWAP1 PUSH2 0x100 EXP SWAP1 DIV PUSH1 0xFF AND SWAP1 POP DUP5 JUMP JUMPDEST PUSH2 0x60F CALLER PUSH2 0x21F JUMP JUMPDEST PUSH2 0x64E JUMPI PUSH1 0x40 MLOAD PUSH32 0x8C379A000000000000000000000000000000000000000000000000000000000 DUP2 MSTORE PUSH1 0x4 ADD PUSH2 0x645 SWAP1 PUSH2 0x1014 JUMP JUMPDEST PUSH1 0x40 MLOAD DUP1 SWAP2 SUB SWAP1 REVERT JUMPDEST PUSH1 0x0 PUSH20 0xFFFFFFFFFFFFFFFFFFFFFFFFFFFFFFFFFFFFFFFF AND DUP4 PUSH20 0xFFFFFFFFFFFFFFFFFFFFFFFFFFFFFFFFFFFFFFFF AND SUB PUSH2 0x6BD JUMPI PUSH1 0x40 MLOAD PUSH32 0x8C379A000000000000000000000000000000000000000000000000000000000 DUP2 MSTORE PUSH1 0x4 ADD PUSH2 0x6B4 SWAP1 PUSH2 0x124D JUMP JUMPDEST PUSH1 0x40 MLOAD DUP1 SWAP2 SUB SWAP1 REVERT JUMPDEST PUSH1 0x0 DUP3 GT PUSH2 0x700 JUMPI PUSH1 0x40 MLOAD PUSH32 0x8C379A000000000000000000000000000000000000000000000000000000000 DUP2 MSTORE PUSH1 0x4 ADD PUSH2 0x6F7 SWAP1 PUSH2 0x12B9 JUMP JUMPDEST PUSH1 0x40 MLOAD DUP1 SWAP2 SUB SWAP1 REVERT JUMPDEST PUSH1 0x2 PUSH1 0x1 DUP2 PUSH1 0x1 DUP2 SLOAD ADD DUP1 DUP3 SSTORE DUP1 SWAP2 POP POP SUB SWAP1 PUSH1 0x0 MSTORE PUSH1 0x20 PUSH1 0x0 KECCAK256 SWAP1 POP POP PUSH1 0x0 PUSH1 0x1 PUSH1 0x2 DUP1 SLOAD SWAP1 POP PUSH2 0x732 SWAP2 SWAP1 PUSH2 0x1308 JUMP JUMPDEST SWAP1 POP PUSH1 0x0 PUSH1 0x2 DUP3 DUP2 SLOAD DUP2 LT PUSH2 0x74A JUMPI PUSH2 0x749 PUSH2 0xF88 JUMP JUMPDEST JUMPDEST SWAP1 PUSH1 0x0 MSTORE PUSH1 0x20 PUSH1 0x0 KECCAK256 SWAP1 PUSH1 0x5 MUL ADD SWAP1 POP DUP5 DUP2 PUSH1 0x0 ADD PUSH1 0x0 PUSH2 0x100 EXP DUP2 SLOAD DUP2 PUSH20 0xFFFFFFFFFFFFFFFFFFFFFFFFFFFFFFFFFFFFFFFF MUL NOT AND SWAP1 DUP4 PUSH20 0xFFFFFFFFFFFFFFFFFFFFFFFFFFFFFFFFFFFFFFFF AND MUL OR SWAP1 SSTORE POP DUP4 DUP2 PUSH1 0x1 ADD DUP2 SWAP1 SSTORE POP DUP3 DUP2 PUSH1 0x2 ADD SWAP1 DUP2 PUSH2 0x7B7 SWAP2 SWAP1 PUSH2 0x14E8 JUMP JUMPDEST POP PUSH1 0x0 DUP2 PUSH1 0x3 ADD PUSH1 0x0 PUSH2 0x100 EXP DUP2 SLOAD DUP2 PUSH1 0xFF MUL NOT AND SWAP1 DUP4 ISZERO ISZERO MUL OR SWAP1 SSTORE POP PUSH1 0x1 DUP2 PUSH1 0x4 ADD PUSH1 0x0 CALLER PUSH20 0xFFFFFFFFFFFFFFFFFFFFFFFFFFFFFFFFFFFFFFFF AND PUSH20 0xFFFFFFFFFFFFFFFFFFFFFFFFFFFFFFFFFFFFFFFF AND DUP2 MSTORE PUSH1 0x20 ADD SWAP1 DUP2 MSTORE PUSH1 0x20 ADD PUSH1 0x0 KECCAK256 PUSH1 0x0 PUSH2 0x100 EXP DUP2 SLOAD DUP2 PUSH1 0xFF MUL NOT AND SWAP1 DUP4 ISZERO ISZERO MUL OR SWAP1 SSTORE POP PUSH32 0x453E07A951B5ABB44CC647534A150065E3A308FEC0DC01FDA6CA43A4984F835B DUP3 DUP7 DUP7 DUP7 PUSH1 0x40 MLOAD PUSH2 0x864 SWAP5 SWAP4 SWAP3 SWAP2 SWAP1 PUSH2 0x15BA JUMP JUMPDEST PUSH1 0x40 MLOAD DUP1 SWAP2 SUB SWAP1 LOG1 POP POP POP POP POP JUMP JUMPDEST PUSH2 0x87C CALLER PUSH2 0x21F JUMP JUMPDEST PUSH2 0x8BB JUMPI PUSH1 0x40 MLOAD PUSH32 0x8C379A000000000000000000000000000000000000000000000000000000000 DUP2 MSTORE PUSH1 0x4 ADD PUSH2 0x8B2 SWAP1 PUSH2 0x1014 JUMP JUMPDEST PUSH1 0x40 MLOAD DUP1 SWAP2 SUB SWAP1 REVERT JUMPDEST PUSH1 0x2 DUP1 SLOAD SWAP1 POP DUP2 LT PUSH2 0x902 JUMPI PUSH1 0x40 MLOAD PUSH32 0x8C379A000000000000000000000000000000000000000000000000000000000 DUP2 MSTORE PUSH1 0x4 ADD PUSH2 0x8F9 SWAP1 PUSH2 0x1652 JUMP JUMPDEST PUSH1 0x40 MLOAD DUP1 SWAP2 SUB SWAP1 REVERT JUMPDEST PUSH1 0x0 PUSH1 0x2 DUP3 DUP2 SLOAD DUP2 LT PUSH2 0x918 JUMPI PUSH2 0x917 PUSH2 0xF88 JUMP JUMPDEST JUMPDEST SWAP1 PUSH1 0x0 MSTORE PUSH1 0x20 PUSH1 0x0 KECCAK256 SWAP1 PUSH1 0x5 MUL ADD SWAP1 POP DUP1 PUSH1 0x3 ADD PUSH1 0x0 SWAP1 SLOAD SWAP1 PUSH2 0x100 EXP SWAP1 DIV PUSH1 0xFF AND ISZERO PUSH2 0x97A JUMPI PUSH1 0x40 MLOAD PUSH32 0x8C379A000000000000000000000000000000000000000000000000000000000 DUP2 MSTORE PUSH1 0x4 ADD PUSH2 0x971 SWAP1 PUSH2 0x10EC JUMP JUMPDEST PUSH1 0x40 MLOAD DUP1 SWAP2 SUB SWAP1 REVERT JUMPDEST PUSH1 0x1 DUP2 PUSH1 0x3 ADD PUSH1 0x0 PUSH2 0x100 EXP DUP2 SLOAD DUP2 PUSH1 0xFF MUL NOT AND SWAP1 DUP4 ISZERO ISZERO MUL OR SWAP1 SSTORE POP PUSH1 0x0 DUP2 PUSH1 0x0 ADD PUSH1 0x0 SWAP1 SLOAD SWAP1 PUSH2 0x100 EXP SWAP1 DIV PUSH20 0xFFFFFFFFFFFFFFFFFFFFFFFFFFFFFFFFFFFFFFFF AND PUSH20 0xFFFFFFFFFFFFFFFFFFFFFFFFFFFFFFFFFFFFFFFF AND DUP3 PUSH1 0x1 ADD SLOAD DUP4 PUSH1 0x2 ADD PUSH1 0x40 MLOAD PUSH2 0x9EA SWAP2 SWAP1 PUSH2 0x1700 JUMP JUMPDEST PUSH1 0x0 PUSH1 0x40 MLOAD DUP1 DUP4 SUB DUP2 DUP6 DUP8 GAS CALL SWAP3 POP POP POP RETURNDATASIZE DUP1 PUSH1 0x0 DUP2 EQ PUSH2 0xA27 JUMPI PUSH1 0x40 MLOAD SWAP2 POP PUSH1 0x1F NOT PUSH1 0x3F RETURNDATASIZE ADD AND DUP3 ADD PUSH1 0x40 MSTORE RETURNDATASIZE DUP3 MSTORE RETURNDATASIZE PUSH1 0x0 PUSH1 0x20 DUP5 ADD RETURNDATACOPY PUSH2 0xA2C JUMP JUMPDEST PUSH1 0x60 SWAP2 POP JUMPDEST POP POP SWAP1 POP DUP1 PUSH2 0xA70 JUMPI PUSH1 0x40 MLOAD PUSH32 0x8C379A000000000000000000000000000000000000000000000000000000000 DUP2 MSTORE PUSH1 0x4 ADD PUSH2 0xA67 SWAP1 PUSH2 0x1763 JUMP JUMPDEST PUSH1 0x40 MLOAD DUP1 SWAP2 SUB SWAP1 REVERT JUMPDEST PUSH32 0xEFC13BDCF58F184EA7CAE26B499FB33B539E01D0197CEA456F3ADA289B8CF19B DUP4 CALLER PUSH1 0x40 MLOAD PUSH2 0xAA1 SWAP3 SWAP2 SWAP1 PUSH2 0x1178 JUMP JUMPDEST PUSH1 0x40 MLOAD DUP1 SWAP2 SUB SWAP1 LOG1 POP POP POP JUMP JUMPDEST PUSH1 0x0 DUP1 PUSH1 0x0 SWAP1 POP PUSH1 0x0 JUMPDEST PUSH1 0x0 DUP1 SLOAD SWAP1 POP DUP2 LT ISZERO PUSH2 0xB72 JUMPI DUP4 PUSH1 0x4 ADD PUSH1 0x0 DUP1 DUP4 DUP2 SLOAD DUP2 LT PUSH2 0xADE JUMPI PUSH2 0xADD PUSH2 0xF88 JUMP JUMPDEST JUMPDEST SWAP1 PUSH1 0x0 MSTORE PUSH1 0x20 PUSH1 0x0 KECCAK256 ADD PUSH1 0x0 SWAP1 SLOAD SWAP1 PUSH2 0x100 EXP SWAP1 DIV PUSH20 0xFFFFFFFFFFFFFFFFFFFFFFFFFFFFFFFFFFFFFFFF AND PUSH20 0xFFFFFFFFFFFFFFFFFFFFFFFFFFFFFFFFFFFFFFFF AND PUSH20 0xFFFFFFFFFFFFFFFFFFFFFFFFFFFFFFFFFFFFFFFF AND DUP2 MSTORE PUSH1 0x20 ADD SWAP1 DUP2 MSTORE PUSH1 0x20 ADD PUSH1 0x0 KECCAK256 PUSH1 0x0 SWAP1 SLOAD SWAP1 PUSH2 0x100 EXP SWAP1 DIV PUSH1 0xFF AND ISZERO PUSH2 0xB65 JUMPI DUP2 DUP1 PUSH2 0xB61 SWAP1 PUSH2 0x1783 JUMP JUMPDEST SWAP3 POP POP JUMPDEST DUP1 DUP1 PUSH1 0x1 ADD SWAP2 POP POP PUSH2 0xAB8 JUMP JUMPDEST POP DUP1 SWAP2 POP POP SWAP2 SWAP1 POP JUMP JUMPDEST PUSH1 0x0 PUSH1 0x40 MLOAD SWAP1 POP SWAP1 JUMP JUMPDEST PUSH1 0x0 DUP1 REVERT JUMPDEST PUSH1 0x0 DUP1 REVERT JUMPDEST PUSH1 0x0 DUP2 SWAP1 POP SWAP2 SWAP1 POP JUMP JUMPDEST PUSH2 0xBA3 DUP2 PUSH2 0xB90 JUMP JUMPDEST DUP2 EQ PUSH2 0xBAE JUMPI PUSH1 0x0 DUP1 REVERT JUMPDEST POP JUMP JUMPDEST PUSH1 0x0 DUP2 CALLDATALOAD SWAP1 POP PUSH2 0xBC0 DUP2 PUSH2 0xB9A JUMP JUMPDEST SWAP3 SWAP2 POP POP JUMP JUMPDEST PUSH1 0x0 PUSH1 0x20 DUP3 DUP5 SUB SLT ISZERO PUSH2 0xBDC JUMPI PUSH2 0xBDB PUSH2 0xB86 JUMP JUMPDEST JUMPDEST PUSH1 0x0 PUSH2 0xBEA DUP5 DUP3 DUP6 ADD PUSH2 0xBB1 JUMP JUMPDEST SWAP2 POP POP SWAP3 SWAP2 POP POP JUMP JUMPDEST PUSH1 0x0 PUSH20 0xFFFFFFFFFFFFFFFFFFFFFFFFFFFFFFFFFFFFFFFF DUP3 AND SWAP1 POP SWAP2 SWAP1 POP JUMP JUMPDEST PUSH1 0x0 PUSH2 0xC1E DUP3 PUSH2 0xBF3 JUMP JUMPDEST SWAP1 POP SWAP2 SWAP1 POP JUMP JUMPDEST PUSH2 0xC2E DUP2 PUSH2 0xC13 JUMP JUMPDEST DUP3 MSTORE POP POP JUMP JUMPDEST PUSH1 0x0 PUSH1 0x20 DUP3 ADD SWAP1 POP PUSH2 0xC49 PUSH1 0x0 DUP4 ADD DUP5 PUSH2 0xC25 JUMP JUMPDEST SWAP3 SWAP2 POP POP JUMP JUMPDEST PUSH2 0xC58 DUP2 PUSH2 0xC13 JUMP JUMPDEST DUP2 EQ PUSH2 0xC63 JUMPI PUSH1 0x0 DUP1 REVERT JUMPDEST POP JUMP JUMPDEST PUSH1 0x0 DUP2 CALLDATALOAD SWAP1 POP PUSH2 0xC75 DUP2 PUSH2 0xC4F JUMP JUMPDEST SWAP3 SWAP2 POP POP JUMP JUMPDEST PUSH1 0x0 PUSH1 0x20 DUP3 DUP5 SUB SLT ISZERO PUSH2 0xC91 JUMPI PUSH2 0xC90 PUSH2 0xB86 JUMP JUMPDEST JUMPDEST PUSH1 0x0 PUSH2 0xC9F DUP5 DUP3 DUP6 ADD PUSH2 0xC66 JUMP JUMPDEST SWAP2 POP POP SWAP3 SWAP2 POP POP JUMP JUMPDEST PUSH1 0x0 DUP2 ISZERO ISZERO SWAP1 POP SWAP2 SWAP1 POP JUMP JUMPDEST PUSH2 0xCBD DUP2 PUSH2 0xCA8 JUMP JUMPDEST DUP3 MSTORE POP POP JUMP JUMPDEST PUSH1 0x0 PUSH1 0x20 DUP3 ADD SWAP1 POP PUSH2 0xCD8 PUSH1 0x0 DUP4 ADD DUP5 PUSH2 0xCB4 JUMP JUMPDEST SWAP3 SWAP2 POP POP JUMP JUMPDEST PUSH2 0xCE7 DUP2 PUSH2 0xB90 JUMP JUMPDEST DUP3 MSTORE POP POP JUMP JUMPDEST PUSH1 0x0 PUSH1 0x20 DUP3 ADD SWAP1 POP PUSH2 0xD02 PUSH1 0x0 DUP4 ADD DUP5 PUSH2 0xCDE JUMP JUMPDEST SWAP3 SWAP2 POP POP JUMP JUMPDEST PUSH1 0x0 DUP2 MLOAD SWAP1 POP SWAP2 SWAP1 POP JUMP JUMPDEST PUSH1 0x0 DUP3 DUP3 MSTORE PUSH1 0x20 DUP3 ADD SWAP1 POP SWAP3 SWAP2 POP POP JUMP JUMPDEST PUSH1 0x0 JUMPDEST DUP4 DUP2 LT ISZERO PUSH2 0xD42 JUMPI DUP1 DUP3 ADD MLOAD DUP2 DUP5 ADD MSTORE PUSH1 0x20 DUP2 ADD SWAP1 POP PUSH2 0xD27 JUMP JUMPDEST PUSH1 0x0 DUP5 DUP5 ADD MSTORE POP POP POP POP JUMP JUMPDEST PUSH1 0x0 PUSH1 0x1F NOT PUSH1 0x1F DUP4 ADD AND SWAP1 POP SWAP2 SWAP1 POP JUMP JUMPDEST PUSH1 0x0 PUSH2 0xD6A DUP3 PUSH2 0xD08 JUMP JUMPDEST PUSH2 0xD74 DUP2 DUP6 PUSH2 0xD13 JUMP JUMPDEST SWAP4 POP PUSH2 0xD84 DUP2 DUP6 PUSH1 0x20 DUP7 ADD PUSH2 0xD24 JUMP JUMPDEST PUSH2 0xD8D DUP2 PUSH2 0xD4E JUMP JUMPDEST DUP5 ADD SWAP2 POP POP SWAP3 SWAP2 POP POP JUMP JUMPDEST PUSH1 0x0 PUSH1 0x80 DUP3 ADD SWAP1 POP PUSH2 0xDAD PUSH1 0x0 DUP4 ADD DUP8 PUSH2 0xC25 JUMP JUMPDEST PUSH2 0xDBA PUSH1 0x20 DUP4 ADD DUP7 PUSH2 0xCDE JUMP JUMPDEST DUP2 DUP2 SUB PUSH1 0x40 DUP4 ADD MSTORE PUSH2 0xDCC DUP2 DUP6 PUSH2 0xD5F JUMP JUMPDEST SWAP1 POP PUSH2 0xDDB PUSH1 0x60 DUP4 ADD DUP5 PUSH2 0xCB4 JUMP JUMPDEST SWAP6 SWAP5 POP POP POP POP POP JUMP JUMPDEST PUSH1 0x0 DUP1 REVERT JUMPDEST PUSH1 0x0 DUP1 REVERT JUMPDEST PUSH32 0x4E487B7100000000000000000000000000000000000000000000000000000000 PUSH1 0x0 MSTORE PUSH1 0x41 PUSH1 0x4 MSTORE PUSH1 0x24 PUSH1 0x0 REVERT JUMPDEST PUSH2 0xE26 DUP3 PUSH2 0xD4E JUMP JUMPDEST DUP2 ADD DUP2 DUP2 LT PUSH8 0xFFFFFFFFFFFFFFFF DUP3 GT OR ISZERO PUSH2 0xE45 JUMPI PUSH2 0xE44 PUSH2 0xDEE JUMP JUMPDEST JUMPDEST DUP1 PUSH1 0x40 MSTORE POP POP POP JUMP JUMPDEST PUSH1 0x0 PUSH2 0xE58 PUSH2 0xB7C JUMP JUMPDEST SWAP1 POP PUSH2 0xE64 DUP3 DUP3 PUSH2 0xE1D JUMP JUMPDEST SWAP2 SWAP1 POP JUMP JUMPDEST PUSH1 0x0 PUSH8 0xFFFFFFFFFFFFFFFF DUP3 GT ISZERO PUSH2 0xE84 JUMPI PUSH2 0xE83 PUSH2 0xDEE JUMP JUMPDEST JUMPDEST PUSH2 0xE8D DUP3 PUSH2 0xD4E JUMP JUMPDEST SWAP1 POP PUSH1 0x20 DUP2 ADD SWAP1 POP SWAP2 SWAP1 POP JUMP JUMPDEST DUP3 DUP2 DUP4 CALLDATACOPY PUSH1 0x0 DUP4 DUP4 ADD MSTORE POP POP POP JUMP JUMPDEST PUSH1 0x0 PUSH2 0xEBC PUSH2 0xEB7 DUP5 PUSH2 0xE69 JUMP JUMPDEST PUSH2 0xE4E JUMP JUMPDEST SWAP1 POP DUP3 DUP2 MSTORE PUSH1 0x20 DUP2 ADD DUP5 DUP5 DUP5 ADD GT ISZERO PUSH2 0xED8 JUMPI PUSH2 0xED7 PUSH2 0xDE9 JUMP JUMPDEST JUMPDEST PUSH2 0xEE3 DUP5 DUP3 DUP6 PUSH2 0xE9A JUMP JUMPDEST POP SWAP4 SWAP3 POP POP POP JUMP JUMPDEST PUSH1 0x0 DUP3 PUSH1 0x1F DUP4 ADD SLT PUSH2 0xF00 JUMPI PUSH2 0xEFF PUSH2 0xDE4 JUMP JUMPDEST JUMPDEST DUP2 CALLDATALOAD PUSH2 0xF10 DUP5 DUP3 PUSH1 0x20 DUP7 ADD PUSH2 0xEA9 JUMP JUMPDEST SWAP2 POP POP SWAP3 SWAP2 POP POP JUMP JUMPDEST PUSH1 0x0 DUP1 PUSH1 0x0 PUSH1 0x60 DUP5 DUP7 SUB SLT ISZERO PUSH2 0xF32 JUMPI PUSH2 0xF31 PUSH2 0xB86 JUMP JUMPDEST JUMPDEST PUSH1 0x0 PUSH2 0xF40 DUP7 DUP3 DUP8 ADD PUSH2 0xC66 JUMP JUMPDEST SWAP4 POP POP PUSH1 0x20 PUSH2 0xF51 DUP7 DUP3 DUP8 ADD PUSH2 0xBB1 JUMP JUMPDEST SWAP3 POP POP PUSH1 0x40 DUP5 ADD CALLDATALOAD PUSH8 0xFFFFFFFFFFFFFFFF DUP2 GT ISZERO PUSH2 0xF72 JUMPI PUSH2 0xF71 PUSH2 0xB8B JUMP JUMPDEST JUMPDEST PUSH2 0xF7E DUP7 DUP3 DUP8 ADD PUSH2 0xEEB JUMP JUMPDEST SWAP2 POP POP SWAP3 POP SWAP3 POP SWAP3 JUMP JUMPDEST PUSH32 0x4E487B7100000000000000000000000000000000000000000000000000000000 PUSH1 0x0 MSTORE PUSH1 0x32 PUSH1 0x4 MSTORE PUSH1 0x24 PUSH1 0x0 REVERT JUMPDEST PUSH1 0x0 DUP3 DUP3 MSTORE PUSH1 0x20 DUP3 ADD SWAP1 POP SWAP3 SWAP2 POP POP JUMP JUMPDEST PUSH32 0x4E6F7420616E206F776E65720000000000000000000000000000000000000000 PUSH1 0x0 DUP3 ADD MSTORE POP JUMP JUMPDEST PUSH1 0x0 PUSH2 0xFFE PUSH1 0xC DUP4 PUSH2 0xFB7 JUMP JUMPDEST SWAP2 POP PUSH2 0x1009 DUP3 PUSH2 0xFC8 JUMP JUMPDEST PUSH1 0x20 DUP3 ADD SWAP1 POP SWAP2 SWAP1 POP JUMP JUMPDEST PUSH1 0x0 PUSH1 0x20 DUP3 ADD SWAP1 POP DUP2 DUP2 SUB PUSH1 0x0 DUP4 ADD MSTORE PUSH2 0x102D DUP2 PUSH2 0xFF1 JUMP JUMPDEST SWAP1 POP SWAP2 SWAP1 POP JUMP JUMPDEST PUSH32 0x496E76616C6964207472616E73616374696F6E20494400000000000000000000 PUSH1 0x0 DUP3 ADD MSTORE POP JUMP JUMPDEST PUSH1 0x0 PUSH2 0x106A PUSH1 0x16 DUP4 PUSH2 0xFB7 JUMP JUMPDEST SWAP2 POP PUSH2 0x1075 DUP3 PUSH2 0x1034 JUMP JUMPDEST PUSH1 0x20 DUP3 ADD SWAP1 POP SWAP2 SWAP1 POP JUMP JUMPDEST PUSH1 0x0 PUSH1 0x20 DUP3 ADD SWAP1 POP DUP2 DUP2 SUB PUSH1 0x0 DUP4 ADD MSTORE PUSH2 0x1099 DUP2 PUSH2 0x105D JUMP JUMPDEST SWAP1 POP SWAP2 SWAP1 POP JUMP JUMPDEST PUSH32 0x5472616E73616374696F6E20616C726561647920657865637574656400000000 PUSH1 0x0 DUP3 ADD MSTORE POP JUMP JUMPDEST PUSH1 0x0 PUSH2 0x10D6 PUSH1 0x1C DUP4 PUSH2 0xFB7 JUMP JUMPDEST SWAP2 POP PUSH2 0x10E1 DUP3 PUSH2 0x10A0 JUMP JUMPDEST PUSH1 0x20 DUP3 ADD SWAP1 POP SWAP2 SWAP1 POP JUMP JUMPDEST PUSH1 0x0 PUSH1 0x20 DUP3 ADD SWAP1 POP DUP2 DUP2 SUB PUSH1 0x0 DUP4 ADD MSTORE PUSH2 0x1105 DUP2 PUSH2 0x10C9 JUMP JUMPDEST SWAP1 POP SWAP2 SWAP1 POP JUMP JUMPDEST PUSH32 0x416C7265616479207369676E6564000000000000000000000000000000000000 PUSH1 0x0 DUP3 ADD MSTORE POP JUMP JUMPDEST PUSH1 0x0 PUSH2 0x1142 PUSH1 0xE DUP4 PUSH2 0xFB7 JUMP JUMPDEST SWAP2 POP PUSH2 0x114D DUP3 PUSH2 0x110C JUMP JUMPDEST PUSH1 0x20 DUP3 ADD SWAP1 POP SWAP2 SWAP1 POP JUMP JUMPDEST PUSH1 0x0 PUSH1 0x20 DUP3 ADD SWAP1 POP DUP2 DUP2 SUB PUSH1 0x0 DUP4 ADD MSTORE PUSH2 0x1171 DUP2 PUSH2 0x1135 JUMP JUMPDEST SWAP1 POP SWAP2 SWAP1 POP JUMP JUMPDEST PUSH1 0x0 PUSH1 0x40 DUP3 ADD SWAP1 POP PUSH2 0x118D PUSH1 0x0 DUP4 ADD DUP6 PUSH2 0xCDE JUMP JUMPDEST PUSH2 0x119A PUSH1 0x20 DUP4 ADD DUP5 PUSH2 0xC25 JUMP JUMPDEST SWAP4 SWAP3 POP POP POP JUMP JUMPDEST PUSH32 0x4E487B7100000000000000000000000000000000000000000000000000000000 PUSH1 0x0 MSTORE PUSH1 0x22 PUSH1 0x4 MSTORE PUSH1 0x24 PUSH1 0x0 REVERT JUMPDEST PUSH1 0x0 PUSH1 0x2 DUP3 DIV SWAP1 POP PUSH1 0x1 DUP3 AND DUP1 PUSH2 0x11E8 JUMPI PUSH1 0x7F DUP3 AND SWAP2 POP JUMPDEST PUSH1 0x20 DUP3 LT DUP2 SUB PUSH2 0x11FB JUMPI PUSH2 0x11FA PUSH2 0x11A1 JUMP JUMPDEST JUMPDEST POP SWAP2 SWAP1 POP JUMP JUMPDEST PUSH32 0x496E76616C696420616464726573730000000000000000000000000000000000 PUSH1 0x0 DUP3 ADD MSTORE POP JUMP JUMPDEST PUSH1 0x0 PUSH2 0x1237 PUSH1 0xF DUP4 PUSH2 0xFB7 JUMP JUMPDEST SWAP2 POP PUSH2 0x1242 DUP3 PUSH2 0x1201 JUMP JUMPDEST PUSH1 0x20 DUP3 ADD SWAP1 POP SWAP2 SWAP1 POP JUMP JUMPDEST PUSH1 0x0 PUSH1 0x20 DUP3 ADD SWAP1 POP DUP2 DUP2 SUB PUSH1 0x0 DUP4 ADD MSTORE PUSH2 0x1266 DUP2 PUSH2 0x122A JUMP JUMPDEST SWAP1 POP SWAP2 SWAP1 POP JUMP JUMPDEST PUSH32 0x56616C7565206D7573742062652067726561746572207468616E207A65726F00 PUSH1 0x0 DUP3 ADD MSTORE POP JUMP JUMPDEST PUSH1 0x0 PUSH2 0x12A3 PUSH1 0x1F DUP4 PUSH2 0xFB7 JUMP JUMPDEST SWAP2 POP PUSH2 0x12AE DUP3 PUSH2 0x126D JUMP JUMPDEST PUSH1 0x20 DUP3 ADD SWAP1 POP SWAP2 SWAP1 POP JUMP JUMPDEST PUSH1 0x0 PUSH1 0x20 DUP3 ADD SWAP1 POP DUP2 DUP2 SUB PUSH1 0x0 DUP4 ADD MSTORE PUSH2 0x12D2 DUP2 PUSH2 0x1296 JUMP JUMPDEST SWAP1 POP SWAP2 SWAP1 POP JUMP JUMPDEST PUSH32 0x4E487B7100000000000000000000000000000000000000000000000000000000 PUSH1 0x0 MSTORE PUSH1 0x11 PUSH1 0x4 MSTORE PUSH1 0x24 PUSH1 0x0 REVERT JUMPDEST PUSH1 0x0 PUSH2 0x1313 DUP3 PUSH2 0xB90 JUMP JUMPDEST SWAP2 POP PUSH2 0x131E DUP4 PUSH2 0xB90 JUMP JUMPDEST SWAP3 POP DUP3 DUP3 SUB SWAP1 POP DUP2 DUP2 GT ISZERO PUSH2 0x1336 JUMPI PUSH2 0x1335 PUSH2 0x12D9 JUMP JUMPDEST JUMPDEST SWAP3 SWAP2 POP POP JUMP JUMPDEST PUSH1 0x0 DUP2 SWAP1 POP DUP2 PUSH1 0x0 MSTORE PUSH1 0x20 PUSH1 0x0 KECCAK256 SWAP1 POP SWAP2 SWAP1 POP JUMP JUMPDEST PUSH1 0x0 PUSH1 0x20 PUSH1 0x1F DUP4 ADD DIV SWAP1 POP SWAP2 SWAP1 POP JUMP JUMPDEST PUSH1 0x0 DUP3 DUP3 SHL SWAP1 POP SWAP3 SWAP2 POP POP JUMP JUMPDEST PUSH1 0x0 PUSH1 0x8 DUP4 MUL PUSH2 0x139E PUSH32 0xFFFFFFFFFFFFFFFFFFFFFFFFFFFFFFFFFFFFFFFFFFFFFFFFFFFFFFFFFFFFFFFF DUP3 PUSH2 0x1361 JUMP JUMPDEST PUSH2 0x13A8 DUP7 DUP4 PUSH2 0x1361 JUMP JUMPDEST SWAP6 POP DUP1 NOT DUP5 AND SWAP4 POP DUP1 DUP7 AND DUP5 OR SWAP3 POP POP POP SWAP4 SWAP3 POP POP POP JUMP JUMPDEST PUSH1 0x0 DUP2 SWAP1 POP SWAP2 SWAP1 POP JUMP JUMPDEST PUSH1 0x0 PUSH2 0x13E5 PUSH2 0x13E0 PUSH2 0x13DB DUP5 PUSH2 0xB90 JUMP JUMPDEST PUSH2 0x13C0 JUMP JUMPDEST PUSH2 0xB90 JUMP JUMPDEST SWAP1 POP SWAP2 SWAP1 POP JUMP JUMPDEST PUSH1 0x0 DUP2 SWAP1 POP SWAP2 SWAP1 POP JUMP JUMPDEST PUSH2 0x13FF DUP4 PUSH2 0x13CA JUMP JUMPDEST PUSH2 0x1413 PUSH2 0x140B DUP3 PUSH2 0x13EC JUMP JUMPDEST DUP5 DUP5 SLOAD PUSH2 0x136E JUMP JUMPDEST DUP3 SSTORE POP POP POP POP JUMP JUMPDEST PUSH1 0x0 SWAP1 JUMP JUMPDEST PUSH2 0x1428 PUSH2 0x141B JUMP JUMPDEST PUSH2 0x1433 DUP2 DUP5 DUP5 PUSH2 0x13F6 JUMP JUMPDEST POP POP POP JUMP JUMPDEST JUMPDEST DUP2 DUP2 LT ISZERO PUSH2 0x1457 JUMPI PUSH2 0x144C PUSH1 0x0 DUP3 PUSH2 0x1420 JUMP JUMPDEST PUSH1 0x1 DUP2 ADD SWAP1 POP PUSH2 0x1439 JUMP JUMPDEST POP POP JUMP JUMPDEST PUSH1 0x1F DUP3 GT ISZERO PUSH2 0x149C JUMPI PUSH2 0x146D DUP2 PUSH2 0x133C JUMP JUMPDEST PUSH2 0x1476 DUP5 PUSH2 0x1351 JUMP JUMPDEST DUP2 ADD PUSH1 0x20 DUP6 LT ISZERO PUSH2 0x1485 JUMPI DUP2 SWAP1 POP JUMPDEST PUSH2 0x1499 PUSH2 0x1491 DUP6 PUSH2 0x1351 JUMP JUMPDEST DUP4 ADD DUP3 PUSH2 0x1438 JUMP JUMPDEST POP POP JUMPDEST POP POP POP JUMP JUMPDEST PUSH1 0x0 DUP3 DUP3 SHR SWAP1 POP SWAP3 SWAP2 POP POP JUMP JUMPDEST PUSH1 0x0 PUSH2 0x14BF PUSH1 0x0 NOT DUP5 PUSH1 0x8 MUL PUSH2 0x14A1 JUMP JUMPDEST NOT DUP1 DUP4 AND SWAP2 POP POP SWAP3 SWAP2 POP POP JUMP JUMPDEST PUSH1 0x0 PUSH2 0x14D8 DUP4 DUP4 PUSH2 0x14AE JUMP JUMPDEST SWAP2 POP DUP3 PUSH1 0x2 MUL DUP3 OR SWAP1 POP SWAP3 SWAP2 POP POP JUMP JUMPDEST PUSH2 0x14F1 DUP3 PUSH2 0xD08 JUMP JUMPDEST PUSH8 0xFFFFFFFFFFFFFFFF DUP2 GT ISZERO PUSH2 0x150A JUMPI PUSH2 0x1509 PUSH2 0xDEE JUMP JUMPDEST JUMPDEST PUSH2 0x1514 DUP3 SLOAD PUSH2 0x11D0 JUMP JUMPDEST PUSH2 0x151F DUP3 DUP3 DUP6 PUSH2 0x145B JUMP JUMPDEST PUSH1 0x0 PUSH1 0x20 SWAP1 POP PUSH1 0x1F DUP4 GT PUSH1 0x1 DUP2 EQ PUSH2 0x1552 JUMPI PUSH1 0x0 DUP5 ISZERO PUSH2 0x1540 JUMPI DUP3 DUP8 ADD MLOAD SWAP1 POP JUMPDEST PUSH2 0x154A DUP6 DUP3 PUSH2 0x14CC JUMP JUMPDEST DUP7 SSTORE POP PUSH2 0x15B2 JUMP JUMPDEST PUSH1 0x1F NOT DUP5 AND PUSH2 0x1560 DUP7 PUSH2 0x133C JUMP JUMPDEST PUSH1 0x0 JUMPDEST DUP3 DUP2 LT ISZERO PUSH2 0x1588 JUMPI DUP5 DUP10 ADD MLOAD DUP3 SSTORE PUSH1 0x1 DUP3 ADD SWAP2 POP PUSH1 0x20 DUP6 ADD SWAP5 POP PUSH1 0x20 DUP2 ADD SWAP1 POP PUSH2 0x1563 JUMP JUMPDEST DUP7 DUP4 LT ISZERO PUSH2 0x15A5 JUMPI DUP5 DUP10 ADD MLOAD PUSH2 0x15A1 PUSH1 0x1F DUP10 AND DUP3 PUSH2 0x14AE JUMP JUMPDEST DUP4 SSTORE POP JUMPDEST PUSH1 0x1 PUSH1 0x2 DUP9 MUL ADD DUP9 SSTORE POP POP POP JUMPDEST POP POP POP POP POP POP JUMP JUMPDEST PUSH1 0x0 PUSH1 0x80 DUP3 ADD SWAP1 POP PUSH2 0x15CF PUSH1 0x0 DUP4 ADD DUP8 PUSH2 0xCDE JUMP JUMPDEST PUSH2 0x15DC PUSH1 0x20 DUP4 ADD DUP7 PUSH2 0xC25 JUMP JUMPDEST PUSH2 0x15E9 PUSH1 0x40 DUP4 ADD DUP6 PUSH2 0xCDE JUMP JUMPDEST DUP2 DUP2 SUB PUSH1 0x60 DUP4 ADD MSTORE PUSH2 0x15FB DUP2 DUP5 PUSH2 0xD5F JUMP JUMPDEST SWAP1 POP SWAP6 SWAP5 POP POP POP POP POP JUMP JUMPDEST PUSH32 0x496E76616C6964207472616E73616374696F6E00000000000000000000000000 PUSH1 0x0 DUP3 ADD MSTORE POP JUMP JUMPDEST PUSH1 0x0 PUSH2 0x163C PUSH1 0x13 DUP4 PUSH2 0xFB7 JUMP JUMPDEST SWAP2 POP PUSH2 0x1647 DUP3 PUSH2 0x1606 JUMP JUMPDEST PUSH1 0x20 DUP3 ADD SWAP1 POP SWAP2 SWAP1 POP JUMP JUMPDEST PUSH1 0x0 PUSH1 0x20 DUP3 ADD SWAP1 POP DUP2 DUP2 SUB PUSH1 0x0 DUP4 ADD MSTORE PUSH2 0x166B DUP2 PUSH2 0x162F JUMP JUMPDEST SWAP1 POP SWAP2 SWAP1 POP JUMP JUMPDEST PUSH1 0x0 DUP2 SWAP1 POP SWAP3 SWAP2 POP POP JUMP JUMPDEST PUSH1 0x0 DUP2 SLOAD PUSH2 0x168A DUP2 PUSH2 0x11D0 JUMP JUMPDEST PUSH2 0x1694 DUP2 DUP7 PUSH2 0x1672 JUMP JUMPDEST SWAP5 POP PUSH1 0x1 DUP3 AND PUSH1 0x0 DUP2 EQ PUSH2 0x16AF JUMPI PUSH1 0x1 DUP2 EQ PUSH2 0x16C4 JUMPI PUSH2 0x16F7 JUMP JUMPDEST PUSH1 0xFF NOT DUP4 AND DUP7 MSTORE DUP2 ISZERO ISZERO DUP3 MUL DUP7 ADD SWAP4 POP PUSH2 0x16F7 JUMP JUMPDEST PUSH2 0x16CD DUP6 PUSH2 0x133C JUMP JUMPDEST PUSH1 0x0 JUMPDEST DUP4 DUP2 LT ISZERO PUSH2 0x16EF JUMPI DUP2 SLOAD DUP2 DUP10 ADD MSTORE PUSH1 0x1 DUP3 ADD SWAP2 POP PUSH1 0x20 DUP2 ADD SWAP1 POP PUSH2 0x16D0 JUMP JUMPDEST DUP4 DUP9 ADD SWAP6 POP POP POP JUMPDEST POP POP POP SWAP3 SWAP2 POP POP JUMP JUMPDEST PUSH1 0x0 PUSH2 0x170C DUP3 DUP5 PUSH2 0x167D JUMP JUMPDEST SWAP2 POP DUP2 SWAP1 POP SWAP3 SWAP2 POP POP JUMP JUMPDEST PUSH32 0x5472616E73616374696F6E20657865637574696F6E206661696C656400000000 PUSH1 0x0 DUP3 ADD MSTORE POP JUMP JUMPDEST PUSH1 0x0 PUSH2 0x174D PUSH1 0x1C DUP4 PUSH2 0xFB7 JUMP JUMPDEST SWAP2 POP PUSH2 0x1758 DUP3 PUSH2 0x1717 JUMP JUMPDEST PUSH1 0x20 DUP3 ADD SWAP1 POP SWAP2 SWAP1 POP JUMP JUMPDEST PUSH1 0x0 PUSH1 0x20 DUP3 ADD SWAP1 POP DUP2 DUP2 SUB PUSH1 0x0 DUP4 ADD MSTORE PUSH2 0x177C DUP2 PUSH2 0x1740 JUMP JUMPDEST SWAP1 POP SWAP2 SWAP1 POP JUMP JUMPDEST PUSH1 0x0 PUSH2 0x178E DUP3 PUSH2 0xB90 JUMP JUMPDEST SWAP2 POP PUSH32 0xFFFFFFFFFFFFFFFFFFFFFFFFFFFFFFFFFFFFFFFFFFFFFFFFFFFFFFFFFFFFFFFF DUP3 SUB PUSH2 0x17C0 JUMPI PUSH2 0x17BF PUSH2 0x12D9 JUMP JUMPDEST JUMPDEST PUSH1 0x1 DUP3 ADD SWAP1 POP SWAP2 SWAP1 POP JUMP INVALID LOG2 PUSH5 0x6970667358 0x22 SLT KECCAK256 POP DUP13 0xC5 SWAP11 SLOAD LOG4 0x21 DUP1 STATICCALL 0x2F 0xC 0xE5 LOG4 DUP2 SWAP7 0xA9 0xD8 PUSH6 0x6F88F36075 EXTCODECOPY REVERT 0xD7 0xED SWAP11 0x2E SHL PUSH23 0x64736F6C634300081C0033000000000000000000000000 "
        },
        "methodIdentifiers": {
          "executeTransaction(uint256)": "ee22610b",
          "isOwner(address)": "2f54bf6e",
          "owners(uint256)": "025e7c27",
          "requiredSignatures()": "8d068043",
          "signTransaction(uint256)": "5d9ec210",
          "submitTransaction(address,uint256,bytes)": "c6427474",
          "transactions(uint256)": "9ace38c2"
        }
      }
    }
  }
}