{
  "_format": "hh-sol-artifact-1",
  "contractName": "MultiSig",
  "sourceName": "contracts/MultiSig.sol",
  "abi": [
    {
      "anonymous": false,
      "inputs": [
        {
          "indexed": false,
          "internalType": "uint256",
          "name": "transactionId",
          "type": "uint256"
        },
        {
          "indexed": false,
          "internalType": "address",
          "name": "to",
          "type": "address"
        },
        {
          "indexed": false,
          "internalType": "uint256",
          "name": "value",
          "type": "uint256"
        },
        {
          "indexed": false,
          "internalType": "bytes",
          "name": "data",
          "type": "bytes"
        }
      ],
      "name": "TransactionCreated",
      "type": "event"
    },
    {
      "anonymous": false,
      "inputs": [
        {
          "indexed": false,
          "internalType": "uint256",
          "name": "transactionId",
          "type": "uint256"
        },
        {
          "indexed": false,
          "internalType": "address",
          "name": "executer",
          "type": "address"
        }
      ],
      "name": "TransactionExecuted",
      "type": "event"
    },
    {
      "anonymous": false,
      "inputs": [
        {
          "indexed": false,
          "internalType": "uint256",
          "name": "transactionId",
          "type": "uint256"
        },
        {
          "indexed": false,
          "internalType": "address",
          "name": "signer",
          "type": "address"
        }
      ],
      "name": "TransactionSigned",
      "type": "event"
    },
    {
      "inputs": [],
      "name": "getOwners",
      "outputs": [
        {
          "internalType": "address[]",
          "name": "",
          "type": "address[]"
        }
      ],
      "stateMutability": "view",
      "type": "function"
    },
    {
      "inputs": [],
      "name": "getRequiredSignatures",
      "outputs": [
        {
          "internalType": "uint256",
          "name": "",
          "type": "uint256"
        }
      ],
      "stateMutability": "view",
      "type": "function"
    },
    {
      "inputs": [
        {
          "internalType": "uint256",
          "name": "transactionId",
          "type": "uint256"
        }
      ],
      "name": "getTransaction",
      "outputs": [
        {
          "internalType": "address",
          "name": "to",
          "type": "address"
        },
        {
          "internalType": "uint256",
          "name": "value",
          "type": "uint256"
        },
        {
          "internalType": "bytes",
          "name": "data",
          "type": "bytes"
        },
        {
          "internalType": "bool",
          "name": "executed",
          "type": "bool"
        },
        {
          "internalType": "uint256",
          "name": "signatureCount",
          "type": "uint256"
        }
      ],
      "stateMutability": "view",
      "type": "function"
    },
    {
      "inputs": [
        {
          "internalType": "address[]",
          "name": "owners",
          "type": "address[]"
        },
        {
          "internalType": "uint256",
          "name": "requiredSignatures",
          "type": "uint256"
        }
      ],
      "name": "initialize",
      "outputs": [],
      "stateMutability": "nonpayable",
      "type": "function"
    },
    {
      "inputs": [
        {
          "internalType": "address",
          "name": "account",
          "type": "address"
        }
      ],
      "name": "isOwner",
      "outputs": [
        {
          "internalType": "bool",
          "name": "",
          "type": "bool"
        }
      ],
      "stateMutability": "view",
      "type": "function"
    },
    {
      "inputs": [
        {
          "internalType": "uint256",
          "name": "transactionId",
          "type": "uint256"
        }
      ],
      "name": "signTransaction",
      "outputs": [],
      "stateMutability": "nonpayable",
      "type": "function"
    },
    {
      "inputs": [
        {
          "internalType": "address",
          "name": "to",
          "type": "address"
        },
        {
          "internalType": "uint256",
          "name": "value",
          "type": "uint256"
        },
        {
          "internalType": "bytes",
          "name": "data",
          "type": "bytes"
        }
      ],
      "name": "submitTransaction",
      "outputs": [],
      "stateMutability": "nonpayable",
      "type": "function"
    },
    {
      "stateMutability": "payable",
      "type": "receive"
    }
  ],
  "bytecode": "0x6080604052348015600f57600080fd5b50611edd8061001f6000396000f3fe6080604052600436106100745760003560e01c806360b5bb3f1161004e57806360b5bb3f14610127578063a0e67e2b14610150578063c64274741461017b578063ccd93998146101a45761007b565b80632f54bf6e1461008057806333ea3dc8146100bd5780635d9ec210146100fe5761007b565b3661007b57005b600080fd5b34801561008c57600080fd5b506100a760048036038101906100a29190610ec5565b6101cf565b6040516100b49190610f0d565b60405180910390f35b3480156100c957600080fd5b506100e460048036038101906100df9190610f5e565b610277565b6040516100f5959493929190611039565b60405180910390f35b34801561010a57600080fd5b5061012560048036038101906101209190610f5e565b6103d5565b005b34801561013357600080fd5b5061014e600480360381019061014991906111db565b61061d565b005b34801561015c57600080fd5b506101656108e9565b60405161017291906112f5565b60405180910390f35b34801561018757600080fd5b506101a2600480360381019061019d91906113cc565b610977565b005b3480156101b057600080fd5b506101b9610b3b565b6040516101c6919061143b565b60405180910390f35b600080600090505b60018054905081101561026c578273ffffffffffffffffffffffffffffffffffffffff166001828154811061020f5761020e611456565b5b9060005260206000200160009054906101000a900473ffffffffffffffffffffffffffffffffffffffff1673ffffffffffffffffffffffffffffffffffffffff160361025f576001915050610272565b80806001019150506101d7565b50600090505b919050565b600080606060008060028054905086106102c6576040517f08c379a00000000000000000000000000000000000000000000000000000000081526004016102bd906114e2565b60405180910390fd5b6000600287815481106102dc576102db611456565b5b906000526020600020906005020190508060000160009054906101000a900473ffffffffffffffffffffffffffffffffffffffff168160010154826002018360030160009054906101000a900460ff1661033585610b44565b82805461034190611531565b80601f016020809104026020016040519081016040528092919081815260200182805461036d90611531565b80156103ba5780601f1061038f576101008083540402835291602001916103ba565b820191906000526020600020905b81548152906001019060200180831161039d57829003601f168201915b50505050509250955095509550955095505091939590929450565b6103de336101cf565b61041d576040517f08c379a0000000000000000000000000000000000000000000000000000000008152600401610414906115ae565b60405180910390fd5b6002805490508110610464576040517f08c379a000000000000000000000000000000000000000000000000000000000815260040161045b906114e2565b60405180910390fd5b60006002828154811061047a57610479611456565b5b906000526020600020906005020190508060030160009054906101000a900460ff16156104dc576040517f08c379a00000000000000000000000000000000000000000000000000000000081526004016104d39061161a565b60405180910390fd5b8060040160003373ffffffffffffffffffffffffffffffffffffffff1673ffffffffffffffffffffffffffffffffffffffff16815260200190815260200160002060009054906101000a900460ff161561056b576040517f08c379a000000000000000000000000000000000000000000000000000000000815260040161056290611686565b60405180910390fd5b60018160040160003373ffffffffffffffffffffffffffffffffffffffff1673ffffffffffffffffffffffffffffffffffffffff16815260200190815260200160002060006101000a81548160ff0219169083151502179055507f737f6609fa194738ed162051f994c6e9599a830846ea9d72d6501d79871e098182336040516105f69291906116a6565b60405180910390a160005461060a82610b44565b106106195761061882610c13565b5b5050565b600060018054905014610665576040517f08c379a000000000000000000000000000000000000000000000000000000000815260040161065c9061171b565b60405180910390fd5b60008251116106a9576040517f08c379a00000000000000000000000000000000000000000000000000000000081526004016106a090611787565b60405180910390fd5b60038110156106ed576040517f08c379a00000000000000000000000000000000000000000000000000000000081526004016106e490611819565b60405180910390fd5b8151811115610731576040517f08c379a000000000000000000000000000000000000000000000000000000000815260040161072890611885565b60405180910390fd5b60005b82518110156108dd57600083828151811061075257610751611456565b5b60200260200101519050600073ffffffffffffffffffffffffffffffffffffffff168173ffffffffffffffffffffffffffffffffffffffff16036107cb576040517f08c379a00000000000000000000000000000000000000000000000000000000081526004016107c2906118f1565b60405180910390fd5b60005b8281101561086b578173ffffffffffffffffffffffffffffffffffffffff16858281518110610800576107ff611456565b5b602002602001015173ffffffffffffffffffffffffffffffffffffffff160361085e576040517f08c379a00000000000000000000000000000000000000000000000000000000081526004016108559061195d565b60405180910390fd5b80806001019150506107ce565b506001819080600181540180825580915050600190039060005260206000200160009091909190916101000a81548173ffffffffffffffffffffffffffffffffffffffff021916908373ffffffffffffffffffffffffffffffffffffffff160217905550508080600101915050610734565b50806000819055505050565b6060600180548060200260200160405190810160405280929190818152602001828054801561096d57602002820191906000526020600020905b8160009054906101000a900473ffffffffffffffffffffffffffffffffffffffff1673ffffffffffffffffffffffffffffffffffffffff1681526020019060010190808311610923575b5050505050905090565b610980336101cf565b6109bf576040517f08c379a00000000000000000000000000000000000000000000000000000000081526004016109b6906115ae565b60405180910390fd5b600073ffffffffffffffffffffffffffffffffffffffff168373ffffffffffffffffffffffffffffffffffffffff1603610a2e576040517f08c379a0000000000000000000000000000000000000000000000000000000008152600401610a25906119c9565b60405180910390fd5b60006002805490509050600260018160018154018082558091505003906000526020600020905050600060028281548110610a6c57610a6b611456565b5b90600052602060002090600502019050848160000160006101000a81548173ffffffffffffffffffffffffffffffffffffffff021916908373ffffffffffffffffffffffffffffffffffffffff16021790555083816001018190555082816002019081610ad99190611b95565b5060008160030160006101000a81548160ff0219169083151502179055507f453e07a951b5abb44cc647534a150065e3a308fec0dc01fda6ca43a4984f835b82868686604051610b2c9493929190611c67565b60405180910390a15050505050565b60008054905090565b6000806000905060005b600180549050811015610c095783600401600060018381548110610b7557610b74611456565b5b9060005260206000200160009054906101000a900473ffffffffffffffffffffffffffffffffffffffff1673ffffffffffffffffffffffffffffffffffffffff1673ffffffffffffffffffffffffffffffffffffffff16815260200190815260200160002060009054906101000a900460ff1615610bfc578180610bf890611ce2565b9250505b8080600101915050610b4e565b5080915050919050565b6002805490508110610c5a576040517f08c379a0000000000000000000000000000000000000000000000000000000008152600401610c51906114e2565b60405180910390fd5b600060028281548110610c7057610c6f611456565b5b906000526020600020906005020190508060030160009054906101000a900460ff1615610cd2576040517f08c379a0000000000000000000000000000000000000000000000000000000008152600401610cc99061161a565b60405180910390fd5b600054610cde82610b44565b1015610d1f576040517f08c379a0000000000000000000000000000000000000000000000000000000008152600401610d1690611d76565b60405180910390fd5b60018160030160006101000a81548160ff02191690831515021790555060008160000160009054906101000a900473ffffffffffffffffffffffffffffffffffffffff1673ffffffffffffffffffffffffffffffffffffffff16826001015483600201604051610d8f9190611e24565b60006040518083038185875af1925050503d8060008114610dcc576040519150601f19603f3d011682016040523d82523d6000602084013e610dd1565b606091505b5050905080610e15576040517f08c379a0000000000000000000000000000000000000000000000000000000008152600401610e0c90611e87565b60405180910390fd5b7fefc13bdcf58f184ea7cae26b499fb33b539e01d0197cea456f3ada289b8cf19b8333604051610e469291906116a6565b60405180910390a1505050565b6000604051905090565b600080fd5b600080fd5b600073ffffffffffffffffffffffffffffffffffffffff82169050919050565b6000610e9282610e67565b9050919050565b610ea281610e87565b8114610ead57600080fd5b50565b600081359050610ebf81610e99565b92915050565b600060208284031215610edb57610eda610e5d565b5b6000610ee984828501610eb0565b91505092915050565b60008115159050919050565b610f0781610ef2565b82525050565b6000602082019050610f226000830184610efe565b92915050565b6000819050919050565b610f3b81610f28565b8114610f4657600080fd5b50565b600081359050610f5881610f32565b92915050565b600060208284031215610f7457610f73610e5d565b5b6000610f8284828501610f49565b91505092915050565b610f9481610e87565b82525050565b610fa381610f28565b82525050565b600081519050919050565b600082825260208201905092915050565b60005b83811015610fe3578082015181840152602081019050610fc8565b60008484015250505050565b6000601f19601f8301169050919050565b600061100b82610fa9565b6110158185610fb4565b9350611025818560208601610fc5565b61102e81610fef565b840191505092915050565b600060a08201905061104e6000830188610f8b565b61105b6020830187610f9a565b818103604083015261106d8186611000565b905061107c6060830185610efe565b6110896080830184610f9a565b9695505050505050565b600080fd5b7f4e487b7100000000000000000000000000000000000000000000000000000000600052604160045260246000fd5b6110d082610fef565b810181811067ffffffffffffffff821117156110ef576110ee611098565b5b80604052505050565b6000611102610e53565b905061110e82826110c7565b919050565b600067ffffffffffffffff82111561112e5761112d611098565b5b602082029050602081019050919050565b600080fd5b600061115761115284611113565b6110f8565b9050808382526020820190506020840283018581111561117a5761117961113f565b5b835b818110156111a3578061118f8882610eb0565b84526020840193505060208101905061117c565b5050509392505050565b600082601f8301126111c2576111c1611093565b5b81356111d2848260208601611144565b91505092915050565b600080604083850312156111f2576111f1610e5d565b5b600083013567ffffffffffffffff8111156112105761120f610e62565b5b61121c858286016111ad565b925050602061122d85828601610f49565b9150509250929050565b600081519050919050565b600082825260208201905092915050565b6000819050602082019050919050565b61126c81610e87565b82525050565b600061127e8383611263565b60208301905092915050565b6000602082019050919050565b60006112a282611237565b6112ac8185611242565b93506112b783611253565b8060005b838110156112e85781516112cf8882611272565b97506112da8361128a565b9250506001810190506112bb565b5085935050505092915050565b6000602082019050818103600083015261130f8184611297565b905092915050565b600080fd5b600067ffffffffffffffff82111561133757611336611098565b5b61134082610fef565b9050602081019050919050565b82818337600083830152505050565b600061136f61136a8461131c565b6110f8565b90508281526020810184848401111561138b5761138a611317565b5b61139684828561134d565b509392505050565b600082601f8301126113b3576113b2611093565b5b81356113c384826020860161135c565b91505092915050565b6000806000606084860312156113e5576113e4610e5d565b5b60006113f386828701610eb0565b935050602061140486828701610f49565b925050604084013567ffffffffffffffff81111561142557611424610e62565b5b6114318682870161139e565b9150509250925092565b60006020820190506114506000830184610f9a565b92915050565b7f4e487b7100000000000000000000000000000000000000000000000000000000600052603260045260246000fd5b600082825260208201905092915050565b7f496e76616c6964207472616e73616374696f6e20494400000000000000000000600082015250565b60006114cc601683611485565b91506114d782611496565b602082019050919050565b600060208201905081810360008301526114fb816114bf565b9050919050565b7f4e487b7100000000000000000000000000000000000000000000000000000000600052602260045260246000fd5b6000600282049050600182168061154957607f821691505b60208210810361155c5761155b611502565b5b50919050565b7f4e6f7420616e206f776e65722100000000000000000000000000000000000000600082015250565b6000611598600d83611485565b91506115a382611562565b602082019050919050565b600060208201905081810360008301526115c78161158b565b9050919050565b7f5472616e73616374696f6e20616c726561647920657865637574656400000000600082015250565b6000611604601c83611485565b915061160f826115ce565b602082019050919050565b60006020820190508181036000830152611633816115f7565b9050919050565b7f416c7265616479207369676e6564000000000000000000000000000000000000600082015250565b6000611670600e83611485565b915061167b8261163a565b602082019050919050565b6000602082019050818103600083015261169f81611663565b9050919050565b60006040820190506116bb6000830185610f9a565b6116c86020830184610f8b565b9392505050565b7f416c726561647920696e697469616c697a656400000000000000000000000000600082015250565b6000611705601383611485565b9150611710826116cf565b602082019050919050565b60006020820190508181036000830152611734816116f8565b9050919050565b7f4174206c65617374206f6e65206f776e65722072657175697265640000000000600082015250565b6000611771601b83611485565b915061177c8261173b565b602082019050919050565b600060208201905081810360008301526117a081611764565b9050919050565b7f4d7573742072657175697265206174206c656173742033207369676e6174757260008201527f6573000000000000000000000000000000000000000000000000000000000000602082015250565b6000611803602283611485565b915061180e826117a7565b604082019050919050565b60006020820190508181036000830152611832816117f6565b9050919050565b7f5369676e61747572657320657863656564206f776e657220636f756e74000000600082015250565b600061186f601d83611485565b915061187a82611839565b602082019050919050565b6000602082019050818103600083015261189e81611862565b9050919050565b7f4f776e65722063616e6e6f74206265207a65726f206164647265737300000000600082015250565b60006118db601c83611485565b91506118e6826118a5565b602082019050919050565b6000602082019050818103600083015261190a816118ce565b9050919050565b7f4475706c6963617465206f776e65720000000000000000000000000000000000600082015250565b6000611947600f83611485565b915061195282611911565b602082019050919050565b600060208201905081810360008301526119768161193a565b9050919050565b7f496e76616c69642064657374696e6174696f6e20616464726573730000000000600082015250565b60006119b3601b83611485565b91506119be8261197d565b602082019050919050565b600060208201905081810360008301526119e2816119a6565b9050919050565b60008190508160005260206000209050919050565b60006020601f8301049050919050565b600082821b905092915050565b600060088302611a4b7fffffffffffffffffffffffffffffffffffffffffffffffffffffffffffffffff82611a0e565b611a558683611a0e565b95508019841693508086168417925050509392505050565b6000819050919050565b6000611a92611a8d611a8884610f28565b611a6d565b610f28565b9050919050565b6000819050919050565b611aac83611a77565b611ac0611ab882611a99565b848454611a1b565b825550505050565b600090565b611ad5611ac8565b611ae0818484611aa3565b505050565b5b81811015611b0457611af9600082611acd565b600181019050611ae6565b5050565b601f821115611b4957611b1a816119e9565b611b23846119fe565b81016020851015611b32578190505b611b46611b3e856119fe565b830182611ae5565b50505b505050565b600082821c905092915050565b6000611b6c60001984600802611b4e565b1980831691505092915050565b6000611b858383611b5b565b9150826002028217905092915050565b611b9e82610fa9565b67ffffffffffffffff811115611bb757611bb6611098565b5b611bc18254611531565b611bcc828285611b08565b600060209050601f831160018114611bff5760008415611bed578287015190505b611bf78582611b79565b865550611c5f565b601f198416611c0d866119e9565b60005b82811015611c3557848901518255600182019150602085019450602081019050611c10565b86831015611c525784890151611c4e601f891682611b5b565b8355505b6001600288020188555050505b505050505050565b6000608082019050611c7c6000830187610f9a565b611c896020830186610f8b565b611c966040830185610f9a565b8181036060830152611ca88184611000565b905095945050505050565b7f4e487b7100000000000000000000000000000000000000000000000000000000600052601160045260246000fd5b6000611ced82610f28565b91507fffffffffffffffffffffffffffffffffffffffffffffffffffffffffffffffff8203611d1f57611d1e611cb3565b5b600182019050919050565b7f4e6f7420656e6f756768207369676e6174757265730000000000000000000000600082015250565b6000611d60601583611485565b9150611d6b82611d2a565b602082019050919050565b60006020820190508181036000830152611d8f81611d53565b9050919050565b600081905092915050565b60008154611dae81611531565b611db88186611d96565b94506001821660008114611dd35760018114611de857611e1b565b60ff1983168652811515820286019350611e1b565b611df1856119e9565b60005b83811015611e1357815481890152600182019150602081019050611df4565b838801955050505b50505092915050565b6000611e308284611da1565b915081905092915050565b7f457865637574696f6e206661696c656400000000000000000000000000000000600082015250565b6000611e71601083611485565b9150611e7c82611e3b565b602082019050919050565b60006020820190508181036000830152611ea081611e64565b905091905056fea2646970667358221220f78632304857598179ebb41c8c87ad978688e8304de18a6aba633000ea083c1564736f6c634300081c0033",
  "linkReferences": {},
  "deployedLinkReferences": {}
}