{"abi":[{"type":"constructor","inputs":[{"name":"_admin","type":"address","internalType":"address"},{"name":"_owner","type":"address","internalType":"address"},{"name":"_lockPeriod","type":"uint256","internalType":"uint256"},{"name":"_accountType","type":"uint8","internalType":"enum Type"},{"name":"_erc20Address","type":"address","internalType":"address"}],"stateMutability":"nonpayable"},{"type":"function","name":"admin","inputs":[],"outputs":[{"name":"","type":"address","internalType":"address"}],"stateMutability":"view"},{"type":"function","name":"balance","inputs":[],"outputs":[{"name":"","type":"uint256","internalType":"uint256"}],"stateMutability":"view"},{"type":"function","name":"depositERC20","inputs":[{"name":"value","type":"uint256","internalType":"uint256"}],"outputs":[],"stateMutability":"nonpayable"},{"type":"function","name":"depositEth","inputs":[],"outputs":[],"stateMutability":"payable"},{"type":"function","name":"getBalance","inputs":[],"outputs":[{"name":"balance_","type":"uint256","internalType":"uint256"}],"stateMutability":"view"},{"type":"function","name":"lastStartOfLockPeriod","inputs":[],"outputs":[{"name":"","type":"uint256","internalType":"uint256"}],"stateMutability":"view"},{"type":"function","name":"lockPeriod","inputs":[],"outputs":[{"name":"","type":"uint256","internalType":"uint256"}],"stateMutability":"view"},{"type":"function","name":"owner","inputs":[],"outputs":[{"name":"","type":"address","internalType":"address"}],"stateMutability":"view"},{"type":"function","name":"savingsType","inputs":[],"outputs":[{"name":"","type":"uint8","internalType":"enum Type"}],"stateMutability":"view"},{"type":"function","name":"withdrawERC20","inputs":[{"name":"value","type":"uint256","internalType":"uint256"},{"name":"to","type":"address","internalType":"address"}],"outputs":[],"stateMutability":"nonpayable"},{"type":"function","name":"withdrawETH","inputs":[{"name":"value","type":"uint256","internalType":"uint256"},{"name":"to","type":"address","internalType":"address"}],"outputs":[],"stateMutability":"nonpayable"},{"type":"event","name":"Deposit","inputs":[{"name":"sender","type":"address","indexed":true,"internalType":"address"},{"name":"accountType","type":"uint8","indexed":true,"internalType":"enum Type"}],"anonymous":false},{"type":"event","name":"Withdrawal","inputs":[{"name":"owner","type":"address","indexed":true,"internalType":"address"},{"name":"to","type":"address","indexed":true,"internalType":"address"},{"name":"amount","type":"uint256","indexed":false,"internalType":"uint256"},{"name":"accountType","type":"uint8","indexed":true,"internalType":"enum Type"}],"anonymous":false},{"type":"error","name":"Account__AccountLocked","inputs":[]},{"type":"error","name":"Account__DepositFailed","inputs":[]},{"type":"error","name":"Account__InsufficientFunds","inputs":[]},{"type":"error","name":"Account__InvalidAccountType","inputs":[]},{"type":"error","name":"Account__InvalidTokenAddress","inputs":[]},{"type":"error","name":"Account__ReentrancyError","inputs":[]},{"type":"error","name":"Account__UnAuthorized","inputs":[]},{"type":"error","name":"Account__WithdrawalFailed","inputs":[]},{"type":"error","name":"Account__ZeroAddressError","inputs":[]}],"bytecode":{"object":"0x60c060405234801561000f575f5ffd5b5060405161176838038061176883398181016040528101906100319190610271565b8373ffffffffffffffffffffffffffffffffffffffff1660808173ffffffffffffffffffffffffffffffffffffffff16815250508473ffffffffffffffffffffffffffffffffffffffff1660a08173ffffffffffffffffffffffffffffffffffffffff16815250508160015f6101000a81548160ff021916908360018111156100bd576100bc6102e8565b5b0217905550826002819055508060045f6101000a81548173ffffffffffffffffffffffffffffffffffffffff021916908373ffffffffffffffffffffffffffffffffffffffff16021790555060018081111561011c5761011b6102e8565b5b60015f9054906101000a900460ff16600181111561013d5761013c6102e8565b5b14801561017557505f73ffffffffffffffffffffffffffffffffffffffff168173ffffffffffffffffffffffffffffffffffffffff16145b156101ac576040517fa342a0b500000000000000000000000000000000000000000000000000000000815260040160405180910390fd5b426003819055505050505050610315565b5f5ffd5b5f73ffffffffffffffffffffffffffffffffffffffff82169050919050565b5f6101ea826101c1565b9050919050565b6101fa816101e0565b8114610204575f5ffd5b50565b5f81519050610215816101f1565b92915050565b5f819050919050565b61022d8161021b565b8114610237575f5ffd5b50565b5f8151905061024881610224565b92915050565b6002811061025a575f5ffd5b50565b5f8151905061026b8161024e565b92915050565b5f5f5f5f5f60a0868803121561028a576102896101bd565b5b5f61029788828901610207565b95505060206102a888828901610207565b94505060406102b98882890161023a565b93505060606102ca8882890161025d565b92505060806102db88828901610207565b9150509295509295909350565b7f4e487b71000000000000000000000000000000000000000000000000000000005f52602160045260245ffd5b60805160a0516113ec61037c5f395f81816102a10152818161057b01528181610da90152610f9001525f818161024a01528181610330015281816106f001528181610868015281816109db01528181610ab601528181610b1e0152610f1701526113ec5ff3fe60806040526004361061009b575f3560e01c80638da5cb5b116100635780638da5cb5b1461014f578063b69ef8a814610179578063b79092fd146101a3578063c20938e0146101cb578063cc81f53e146101f3578063f851a4401461021d5761009b565b806312065fe01461009f57806336118b52146100c95780633fd8b02f146100f1578063439370b11461011b57806361e2d6a414610125575b5f5ffd5b3480156100aa575f5ffd5b506100b3610247565b6040516100c09190610fca565b60405180910390f35b3480156100d4575f5ffd5b506100ef60048036038101906100ea919061106b565b61032e565b005b3480156100fc575f5ffd5b50610105610761565b6040516101129190610fca565b60405180910390f35b610123610767565b005b348015610130575f5ffd5b50610139610854565b604051610146919061111c565b60405180910390f35b34801561015a575f5ffd5b50610163610866565b6040516101709190611144565b60405180910390f35b348015610184575f5ffd5b5061018d61088a565b60405161019a9190610fca565b60405180910390f35b3480156101ae575f5ffd5b506101c960048036038101906101c4919061115d565b61088f565b005b3480156101d6575f5ffd5b506101f160048036038101906101ec919061106b565b610b1c565b005b3480156101fe575f5ffd5b50610207610f88565b6040516102149190610fca565b60405180910390f35b348015610228575f5ffd5b50610231610f8e565b60405161023e9190611144565b60405180910390f35b5f7f000000000000000000000000000000000000000000000000000000000000000073ffffffffffffffffffffffffffffffffffffffff163373ffffffffffffffffffffffffffffffffffffffff16141580156102f057507f000000000000000000000000000000000000000000000000000000000000000073ffffffffffffffffffffffffffffffffffffffff163373ffffffffffffffffffffffffffffffffffffffff1614155b15610327576040517f80e77adc00000000000000000000000000000000000000000000000000000000815260040160405180910390fd5b5f54905090565b7f000000000000000000000000000000000000000000000000000000000000000073ffffffffffffffffffffffffffffffffffffffff163373ffffffffffffffffffffffffffffffffffffffff16146103b3576040517f80e77adc00000000000000000000000000000000000000000000000000000000815260040160405180910390fd5b600460149054906101000a900460ff16156103fa576040517f3fed1ba000000000000000000000000000000000000000000000000000000000815260040160405180910390fd5b5f73ffffffffffffffffffffffffffffffffffffffff168173ffffffffffffffffffffffffffffffffffffffff160361045f576040517f5066160a00000000000000000000000000000000000000000000000000000000815260040160405180910390fd5b600180811115610472576104716110a9565b5b60015f9054906101000a900460ff166001811115610493576104926110a9565b5b036104ca576040517f8a67664a00000000000000000000000000000000000000000000000000000000815260040160405180910390fd5b5f54821115610505576040517ffba7b44200000000000000000000000000000000000000000000000000000000815260040160405180910390fd5b6001600460146101000a81548160ff02191690831515021790555060025460035461053091906111b5565b4210156105df575f606460035f5461054891906111e8565b6105529190611256565b9050805f5f8282546105649190611286565b9250508190555080836105779190611286565b92507f000000000000000000000000000000000000000000000000000000000000000073ffffffffffffffffffffffffffffffffffffffff166108fc8290811502906040515f60405180830381858888f193505050501580156105dc573d5f5f3e3d5ffd5b50505b815f5f8282546105ef9190611286565b92505081905550426003819055505f8173ffffffffffffffffffffffffffffffffffffffff1683604051610622906112e6565b5f6040518083038185875af1925050503d805f811461065c576040519150601f19603f3d011682016040523d82523d5f602084013e610661565b606091505b505090508061069c576040517f76adf3e600000000000000000000000000000000000000000000000000000000815260040160405180910390fd5b5f600460146101000a81548160ff02191690831515021790555060015f9054906101000a900460ff1660018111156106d7576106d66110a9565b5b8273ffffffffffffffffffffffffffffffffffffffff167f000000000000000000000000000000000000000000000000000000000000000073ffffffffffffffffffffffffffffffffffffffff167f2965c46c17b4f2d6b6be246b4dd3698b526b03eaeada24052ffc8de42f71a9c6866040516107549190610fca565b60405180910390a4505050565b60025481565b5f600181111561077a576107796110a9565b5b60015f9054906101000a900460ff16600181111561079b5761079a6110a9565b5b0361082057345f5f8282546107b091906111b5565b9250508190555060015f9054906101000a900460ff1660018111156107d8576107d76110a9565b5b3373ffffffffffffffffffffffffffffffffffffffff167fad2e6c88b0f5fc3ff908e76d24409bcbd07a8a6da62cb7e25c8e9ff196bdf7a960405160405180910390a3610852565b6040517f8a67664a00000000000000000000000000000000000000000000000000000000815260040160405180910390fd5b565b60015f9054906101000a900460ff1681565b7f000000000000000000000000000000000000000000000000000000000000000081565b5f5481565b6001808111156108a2576108a16110a9565b5b60015f9054906101000a900460ff1660018111156108c3576108c26110a9565b5b146108fa576040517f8a67664a00000000000000000000000000000000000000000000000000000000815260040160405180910390fd5b5f73ffffffffffffffffffffffffffffffffffffffff1660045f9054906101000a900473ffffffffffffffffffffffffffffffffffffffff1673ffffffffffffffffffffffffffffffffffffffff1603610980576040517fa342a0b500000000000000000000000000000000000000000000000000000000815260040160405180910390fd5b5f60045f9054906101000a900473ffffffffffffffffffffffffffffffffffffffff169050815f5f8282546109b591906111b5565b925050819055505f8173ffffffffffffffffffffffffffffffffffffffff166323b872dd7f000000000000000000000000000000000000000000000000000000000000000030866040518463ffffffff1660e01b8152600401610a1a939291906112fa565b6020604051808303815f875af1158015610a36573d5f5f3e3d5ffd5b505050506040513d601f19601f82011682018060405250810190610a5a9190611364565b905080610a93576040517f28e13ae900000000000000000000000000000000000000000000000000000000815260040160405180910390fd5b60015f9054906101000a900460ff166001811115610ab457610ab36110a9565b5b7f000000000000000000000000000000000000000000000000000000000000000073ffffffffffffffffffffffffffffffffffffffff167fad2e6c88b0f5fc3ff908e76d24409bcbd07a8a6da62cb7e25c8e9ff196bdf7a960405160405180910390a3505050565b7f000000000000000000000000000000000000000000000000000000000000000073ffffffffffffffffffffffffffffffffffffffff163373ffffffffffffffffffffffffffffffffffffffff1614610ba1576040517f80e77adc00000000000000000000000000000000000000000000000000000000815260040160405180910390fd5b600460149054906101000a900460ff1615610be8576040517f3fed1ba000000000000000000000000000000000000000000000000000000000815260040160405180910390fd5b5f73ffffffffffffffffffffffffffffffffffffffff168173ffffffffffffffffffffffffffffffffffffffff1603610c4d576040517f5066160a00000000000000000000000000000000000000000000000000000000815260040160405180910390fd5b5f6001811115610c6057610c5f6110a9565b5b60015f9054906101000a900460ff166001811115610c8157610c806110a9565b5b03610cb8576040517f8a67664a00000000000000000000000000000000000000000000000000000000815260040160405180910390fd5b5f54821115610cf3576040517ffba7b44200000000000000000000000000000000000000000000000000000000815260040160405180910390fd5b5f60045f9054906101000a900473ffffffffffffffffffffffffffffffffffffffff1690506001600460146101000a81548160ff021916908315150217905550600254600354610d4391906111b5565b421015610e29575f6064600385610d5a91906111e8565b610d649190611256565b9050805f5f828254610d769190611286565b925050819055508084610d899190611286565b93508173ffffffffffffffffffffffffffffffffffffffff1663a9059cbb7f0000000000000000000000000000000000000000000000000000000000000000836040518363ffffffff1660e01b8152600401610de692919061138f565b6020604051808303815f875af1158015610e02573d5f5f3e3d5ffd5b505050506040513d601f19601f82011682018060405250810190610e269190611364565b50505b825f5f828254610e399190611286565b92505081905550426003819055508073ffffffffffffffffffffffffffffffffffffffff1663a9059cbb83856040518363ffffffff1660e01b8152600401610e8292919061138f565b6020604051808303815f875af1158015610e9e573d5f5f3e3d5ffd5b505050506040513d601f19601f82011682018060405250810190610ec29190611364565b505f600460146101000a81548160ff02191690831515021790555060015f9054906101000a900460ff166001811115610efe57610efd6110a9565b5b8273ffffffffffffffffffffffffffffffffffffffff167f000000000000000000000000000000000000000000000000000000000000000073ffffffffffffffffffffffffffffffffffffffff167f2965c46c17b4f2d6b6be246b4dd3698b526b03eaeada24052ffc8de42f71a9c686604051610f7b9190610fca565b60405180910390a4505050565b60035481565b7f000000000000000000000000000000000000000000000000000000000000000081565b5f819050919050565b610fc481610fb2565b82525050565b5f602082019050610fdd5f830184610fbb565b92915050565b5f5ffd5b610ff081610fb2565b8114610ffa575f5ffd5b50565b5f8135905061100b81610fe7565b92915050565b5f73ffffffffffffffffffffffffffffffffffffffff82169050919050565b5f61103a82611011565b9050919050565b61104a81611030565b8114611054575f5ffd5b50565b5f8135905061106581611041565b92915050565b5f5f6040838503121561108157611080610fe3565b5b5f61108e85828601610ffd565b925050602061109f85828601611057565b9150509250929050565b7f4e487b71000000000000000000000000000000000000000000000000000000005f52602160045260245ffd5b600281106110e7576110e66110a9565b5b50565b5f8190506110f7826110d6565b919050565b5f611106826110ea565b9050919050565b611116816110fc565b82525050565b5f60208201905061112f5f83018461110d565b92915050565b61113e81611030565b82525050565b5f6020820190506111575f830184611135565b92915050565b5f6020828403121561117257611171610fe3565b5b5f61117f84828501610ffd565b91505092915050565b7f4e487b71000000000000000000000000000000000000000000000000000000005f52601160045260245ffd5b5f6111bf82610fb2565b91506111ca83610fb2565b92508282019050808211156111e2576111e1611188565b5b92915050565b5f6111f282610fb2565b91506111fd83610fb2565b925082820261120b81610fb2565b9150828204841483151761122257611221611188565b5b5092915050565b7f4e487b71000000000000000000000000000000000000000000000000000000005f52601260045260245ffd5b5f61126082610fb2565b915061126b83610fb2565b92508261127b5761127a611229565b5b828204905092915050565b5f61129082610fb2565b915061129b83610fb2565b92508282039050818111156112b3576112b2611188565b5b92915050565b5f81905092915050565b50565b5f6112d15f836112b9565b91506112dc826112c3565b5f82019050919050565b5f6112f0826112c6565b9150819050919050565b5f60608201905061130d5f830186611135565b61131a6020830185611135565b6113276040830184610fbb565b949350505050565b5f8115159050919050565b6113438161132f565b811461134d575f5ffd5b50565b5f8151905061135e8161133a565b92915050565b5f6020828403121561137957611378610fe3565b5b5f61138684828501611350565b91505092915050565b5f6040820190506113a25f830185611135565b6113af6020830184610fbb565b939250505056fea2646970667358221220fc8fe9531a67a85b3e202d8b406f08f1406d995e86054471d34356eecab13fd864736f6c634300081e0033","linkReferences":{}},"methodIdentifiers":{"admin()":"f851a440","balance()":"b69ef8a8","depositERC20(uint256)":"b79092fd","depositEth()":"439370b1","getBalance()":"12065fe0","lastStartOfLockPeriod()":"cc81f53e","lockPeriod()":"3fd8b02f","owner()":"8da5cb5b","savingsType()":"61e2d6a4","withdrawERC20(uint256,address)":"c20938e0","withdrawETH(uint256,address)":"36118b52"},"id":16}