{"abi":[{"type":"constructor","inputs":[{"name":"_admin","type":"address","internalType":"address"},{"name":"_owner","type":"address","internalType":"address"},{"name":"_lockPeriod","type":"uint256","internalType":"uint256"},{"name":"_accountType","type":"uint8","internalType":"enum Type"},{"name":"_erc20Address","type":"address","internalType":"address"}],"stateMutability":"nonpayable"},{"type":"function","name":"admin","inputs":[],"outputs":[{"name":"","type":"address","internalType":"address"}],"stateMutability":"view"},{"type":"function","name":"balance","inputs":[],"outputs":[{"name":"","type":"uint256","internalType":"uint256"}],"stateMutability":"view"},{"type":"function","name":"depositERC20","inputs":[{"name":"value","type":"uint256","internalType":"uint256"}],"outputs":[],"stateMutability":"nonpayable"},{"type":"function","name":"depositEth","inputs":[],"outputs":[],"stateMutability":"payable"},{"type":"function","name":"getBalance","inputs":[],"outputs":[{"name":"balance_","type":"uint256","internalType":"uint256"}],"stateMutability":"view"},{"type":"function","name":"lastStartOfLockPeriod","inputs":[],"outputs":[{"name":"","type":"uint256","internalType":"uint256"}],"stateMutability":"view"},{"type":"function","name":"lockPeriod","inputs":[],"outputs":[{"name":"","type":"uint256","internalType":"uint256"}],"stateMutability":"view"},{"type":"function","name":"owner","inputs":[],"outputs":[{"name":"","type":"address","internalType":"address"}],"stateMutability":"view"},{"type":"function","name":"savingsType","inputs":[],"outputs":[{"name":"","type":"uint8","internalType":"enum Type"}],"stateMutability":"view"},{"type":"function","name":"withdrawERC20","inputs":[{"name":"value","type":"uint256","internalType":"uint256"},{"name":"to","type":"address","internalType":"address"}],"outputs":[],"stateMutability":"nonpayable"},{"type":"function","name":"withdrawETH","inputs":[{"name":"value","type":"uint256","internalType":"uint256"},{"name":"to","type":"address","internalType":"address"}],"outputs":[],"stateMutability":"nonpayable"},{"type":"event","name":"Deposit","inputs":[{"name":"sender","type":"address","indexed":true,"internalType":"address"},{"name":"accountType","type":"uint8","indexed":true,"internalType":"enum Type"}],"anonymous":false},{"type":"event","name":"Withdrawal","inputs":[{"name":"owner","type":"address","indexed":true,"internalType":"address"},{"name":"to","type":"address","indexed":true,"internalType":"address"},{"name":"amount","type":"uint256","indexed":false,"internalType":"uint256"},{"name":"accountType","type":"uint8","indexed":true,"internalType":"enum Type"}],"anonymous":false},{"type":"error","name":"Account__AccountLocked","inputs":[]},{"type":"error","name":"Account__DepositFailed","inputs":[]},{"type":"error","name":"Account__InsufficientFunds","inputs":[]},{"type":"error","name":"Account__InvalidAccountType","inputs":[]},{"type":"error","name":"Account__InvalidTokenAddress","inputs":[]},{"type":"error","name":"Account__UnAuthorized","inputs":[]},{"type":"error","name":"Account__WithdrawalFailed","inputs":[]},{"type":"error","name":"Account__ZeroAddressError","inputs":[]}],"bytecode":{"object":"0x60c060405234801561000f575f5ffd5b5060405161166f38038061166f83398181016040528101906100319190610271565b8373ffffffffffffffffffffffffffffffffffffffff1660808173ffffffffffffffffffffffffffffffffffffffff16815250508473ffffffffffffffffffffffffffffffffffffffff1660a08173ffffffffffffffffffffffffffffffffffffffff16815250508160015f6101000a81548160ff021916908360018111156100bd576100bc6102e8565b5b0217905550826002819055508060045f6101000a81548173ffffffffffffffffffffffffffffffffffffffff021916908373ffffffffffffffffffffffffffffffffffffffff16021790555060018081111561011c5761011b6102e8565b5b60015f9054906101000a900460ff16600181111561013d5761013c6102e8565b5b14801561017557505f73ffffffffffffffffffffffffffffffffffffffff168173ffffffffffffffffffffffffffffffffffffffff16145b156101ac576040517fa342a0b500000000000000000000000000000000000000000000000000000000815260040160405180910390fd5b426003819055505050505050610315565b5f5ffd5b5f73ffffffffffffffffffffffffffffffffffffffff82169050919050565b5f6101ea826101c1565b9050919050565b6101fa816101e0565b8114610204575f5ffd5b50565b5f81519050610215816101f1565b92915050565b5f819050919050565b61022d8161021b565b8114610237575f5ffd5b50565b5f8151905061024881610224565b92915050565b6002811061025a575f5ffd5b50565b5f8151905061026b8161024e565b92915050565b5f5f5f5f5f60a0868803121561028a576102896101bd565b5b5f61029788828901610207565b95505060206102a888828901610207565b94505060406102b98882890161023a565b93505060606102ca8882890161025d565b92505060806102db88828901610207565b9150509295509295909350565b7f4e487b71000000000000000000000000000000000000000000000000000000005f52602160045260245ffd5b60805160a0516112f361037c5f395f81816102a00152818161051801528181610cca0152610e9701525f818161024a0152818161032f01528181610673015281816107eb0152818161095e01528181610a3901528181610aa10152610e1e01526112f35ff3fe60806040526004361061009b575f3560e01c80638da5cb5b116100635780638da5cb5b1461014f578063b69ef8a814610179578063b79092fd146101a3578063c20938e0146101cb578063cc81f53e146101f3578063f851a4401461021d5761009b565b806312065fe01461009f57806336118b52146100c95780633fd8b02f146100f1578063439370b11461011b57806361e2d6a414610125575b5f5ffd5b3480156100aa575f5ffd5b506100b3610247565b6040516100c09190610ed1565b60405180910390f35b3480156100d4575f5ffd5b506100ef60048036038101906100ea9190610f72565b61032d565b005b3480156100fc575f5ffd5b506101056106e4565b6040516101129190610ed1565b60405180910390f35b6101236106ea565b005b348015610130575f5ffd5b506101396107d7565b6040516101469190611023565b60405180910390f35b34801561015a575f5ffd5b506101636107e9565b604051610170919061104b565b60405180910390f35b348015610184575f5ffd5b5061018d61080d565b60405161019a9190610ed1565b60405180910390f35b3480156101ae575f5ffd5b506101c960048036038101906101c49190611064565b610812565b005b3480156101d6575f5ffd5b506101f160048036038101906101ec9190610f72565b610a9f565b005b3480156101fe575f5ffd5b50610207610e8f565b6040516102149190610ed1565b60405180910390f35b348015610228575f5ffd5b50610231610e95565b60405161023e919061104b565b60405180910390f35b5f7f000000000000000000000000000000000000000000000000000000000000000073ffffffffffffffffffffffffffffffffffffffff163373ffffffffffffffffffffffffffffffffffffffff161415806102ef57507f000000000000000000000000000000000000000000000000000000000000000073ffffffffffffffffffffffffffffffffffffffff163373ffffffffffffffffffffffffffffffffffffffff1614155b15610326576040517f80e77adc00000000000000000000000000000000000000000000000000000000815260040160405180910390fd5b5f54905090565b7f000000000000000000000000000000000000000000000000000000000000000073ffffffffffffffffffffffffffffffffffffffff163373ffffffffffffffffffffffffffffffffffffffff16146103b2576040517f80e77adc00000000000000000000000000000000000000000000000000000000815260040160405180910390fd5b5f73ffffffffffffffffffffffffffffffffffffffff168173ffffffffffffffffffffffffffffffffffffffff1603610417576040517f5066160a00000000000000000000000000000000000000000000000000000000815260040160405180910390fd5b60018081111561042a57610429610fb0565b5b60015f9054906101000a900460ff16600181111561044b5761044a610fb0565b5b03610482576040517f8a67664a00000000000000000000000000000000000000000000000000000000815260040160405180910390fd5b5f548211156104bd576040517ffba7b44200000000000000000000000000000000000000000000000000000000815260040160405180910390fd5b6002546003546104cd91906110bc565b42111561057c575f606460035f546104e591906110ef565b6104ef919061115d565b9050805f5f828254610501919061118d565b925050819055508083610514919061118d565b92507f000000000000000000000000000000000000000000000000000000000000000073ffffffffffffffffffffffffffffffffffffffff166108fc8290811502906040515f60405180830381858888f19350505050158015610579573d5f5f3e3d5ffd5b50505b815f5f82825461058c919061118d565b925050819055505f8173ffffffffffffffffffffffffffffffffffffffff16836040516105b8906111ed565b5f6040518083038185875af1925050503d805f81146105f2576040519150601f19603f3d011682016040523d82523d5f602084013e6105f7565b606091505b5050905080610632576040517f76adf3e600000000000000000000000000000000000000000000000000000000815260040160405180910390fd5b4260038190555060015f9054906101000a900460ff16600181111561065a57610659610fb0565b5b8273ffffffffffffffffffffffffffffffffffffffff167f000000000000000000000000000000000000000000000000000000000000000073ffffffffffffffffffffffffffffffffffffffff167f2965c46c17b4f2d6b6be246b4dd3698b526b03eaeada24052ffc8de42f71a9c6866040516106d79190610ed1565b60405180910390a4505050565b60025481565b5f60018111156106fd576106fc610fb0565b5b60015f9054906101000a900460ff16600181111561071e5761071d610fb0565b5b036107a357345f5f82825461073391906110bc565b9250508190555060015f9054906101000a900460ff16600181111561075b5761075a610fb0565b5b3373ffffffffffffffffffffffffffffffffffffffff167fad2e6c88b0f5fc3ff908e76d24409bcbd07a8a6da62cb7e25c8e9ff196bdf7a960405160405180910390a36107d5565b6040517f8a67664a00000000000000000000000000000000000000000000000000000000815260040160405180910390fd5b565b60015f9054906101000a900460ff1681565b7f000000000000000000000000000000000000000000000000000000000000000081565b5f5481565b60018081111561082557610824610fb0565b5b60015f9054906101000a900460ff16600181111561084657610845610fb0565b5b1461087d576040517f8a67664a00000000000000000000000000000000000000000000000000000000815260040160405180910390fd5b5f73ffffffffffffffffffffffffffffffffffffffff1660045f9054906101000a900473ffffffffffffffffffffffffffffffffffffffff1673ffffffffffffffffffffffffffffffffffffffff1603610903576040517fa342a0b500000000000000000000000000000000000000000000000000000000815260040160405180910390fd5b5f60045f9054906101000a900473ffffffffffffffffffffffffffffffffffffffff169050815f5f82825461093891906110bc565b925050819055505f8173ffffffffffffffffffffffffffffffffffffffff166323b872dd7f000000000000000000000000000000000000000000000000000000000000000030866040518463ffffffff1660e01b815260040161099d93929190611201565b6020604051808303815f875af11580156109b9573d5f5f3e3d5ffd5b505050506040513d601f19601f820116820180604052508101906109dd919061126b565b905080610a16576040517f28e13ae900000000000000000000000000000000000000000000000000000000815260040160405180910390fd5b60015f9054906101000a900460ff166001811115610a3757610a36610fb0565b5b7f000000000000000000000000000000000000000000000000000000000000000073ffffffffffffffffffffffffffffffffffffffff167fad2e6c88b0f5fc3ff908e76d24409bcbd07a8a6da62cb7e25c8e9ff196bdf7a960405160405180910390a3505050565b7f000000000000000000000000000000000000000000000000000000000000000073ffffffffffffffffffffffffffffffffffffffff163373ffffffffffffffffffffffffffffffffffffffff1614610b24576040517f80e77adc00000000000000000000000000000000000000000000000000000000815260040160405180910390fd5b5f73ffffffffffffffffffffffffffffffffffffffff168173ffffffffffffffffffffffffffffffffffffffff1603610b89576040517f5066160a00000000000000000000000000000000000000000000000000000000815260040160405180910390fd5b5f6001811115610b9c57610b9b610fb0565b5b60015f9054906101000a900460ff166001811115610bbd57610bbc610fb0565b5b03610bf4576040517f8a67664a00000000000000000000000000000000000000000000000000000000815260040160405180910390fd5b5f54821115610c2f576040517ffba7b44200000000000000000000000000000000000000000000000000000000815260040160405180910390fd5b5f60045f9054906101000a900473ffffffffffffffffffffffffffffffffffffffff169050600254600354610c6491906110bc565b421115610d4a575f6064600385610c7b91906110ef565b610c85919061115d565b9050805f5f828254610c97919061118d565b925050819055508084610caa919061118d565b93508173ffffffffffffffffffffffffffffffffffffffff1663a9059cbb7f0000000000000000000000000000000000000000000000000000000000000000836040518363ffffffff1660e01b8152600401610d07929190611296565b6020604051808303815f875af1158015610d23573d5f5f3e3d5ffd5b505050506040513d601f19601f82011682018060405250810190610d47919061126b565b50505b825f5f828254610d5a919061118d565b925050819055508073ffffffffffffffffffffffffffffffffffffffff1663a9059cbb83856040518363ffffffff1660e01b8152600401610d9c929190611296565b6020604051808303815f875af1158015610db8573d5f5f3e3d5ffd5b505050506040513d601f19601f82011682018060405250810190610ddc919061126b565b504260038190555060015f9054906101000a900460ff166001811115610e0557610e04610fb0565b5b8273ffffffffffffffffffffffffffffffffffffffff167f000000000000000000000000000000000000000000000000000000000000000073ffffffffffffffffffffffffffffffffffffffff167f2965c46c17b4f2d6b6be246b4dd3698b526b03eaeada24052ffc8de42f71a9c686604051610e829190610ed1565b60405180910390a4505050565b60035481565b7f000000000000000000000000000000000000000000000000000000000000000081565b5f819050919050565b610ecb81610eb9565b82525050565b5f602082019050610ee45f830184610ec2565b92915050565b5f5ffd5b610ef781610eb9565b8114610f01575f5ffd5b50565b5f81359050610f1281610eee565b92915050565b5f73ffffffffffffffffffffffffffffffffffffffff82169050919050565b5f610f4182610f18565b9050919050565b610f5181610f37565b8114610f5b575f5ffd5b50565b5f81359050610f6c81610f48565b92915050565b5f5f60408385031215610f8857610f87610eea565b5b5f610f9585828601610f04565b9250506020610fa685828601610f5e565b9150509250929050565b7f4e487b71000000000000000000000000000000000000000000000000000000005f52602160045260245ffd5b60028110610fee57610fed610fb0565b5b50565b5f819050610ffe82610fdd565b919050565b5f61100d82610ff1565b9050919050565b61101d81611003565b82525050565b5f6020820190506110365f830184611014565b92915050565b61104581610f37565b82525050565b5f60208201905061105e5f83018461103c565b92915050565b5f6020828403121561107957611078610eea565b5b5f61108684828501610f04565b91505092915050565b7f4e487b71000000000000000000000000000000000000000000000000000000005f52601160045260245ffd5b5f6110c682610eb9565b91506110d183610eb9565b92508282019050808211156110e9576110e861108f565b5b92915050565b5f6110f982610eb9565b915061110483610eb9565b925082820261111281610eb9565b915082820484148315176111295761112861108f565b5b5092915050565b7f4e487b71000000000000000000000000000000000000000000000000000000005f52601260045260245ffd5b5f61116782610eb9565b915061117283610eb9565b92508261118257611181611130565b5b828204905092915050565b5f61119782610eb9565b91506111a283610eb9565b92508282039050818111156111ba576111b961108f565b5b92915050565b5f81905092915050565b50565b5f6111d85f836111c0565b91506111e3826111ca565b5f82019050919050565b5f6111f7826111cd565b9150819050919050565b5f6060820190506112145f83018661103c565b611221602083018561103c565b61122e6040830184610ec2565b949350505050565b5f8115159050919050565b61124a81611236565b8114611254575f5ffd5b50565b5f8151905061126581611241565b92915050565b5f602082840312156112805761127f610eea565b5b5f61128d84828501611257565b91505092915050565b5f6040820190506112a95f83018561103c565b6112b66020830184610ec2565b939250505056fea264697066735822122038b4ccd3603263d81ebd34cf56bf7059313b5c27bc5f76943010a23a2b6539f664736f6c634300081e0033","linkReferences":{}},"methodIdentifiers":{"admin()":"f851a440","balance()":"b69ef8a8","depositERC20(uint256)":"b79092fd","depositEth()":"439370b1","getBalance()":"12065fe0","lastStartOfLockPeriod()":"cc81f53e","lockPeriod()":"3fd8b02f","owner()":"8da5cb5b","savingsType()":"61e2d6a4","withdrawERC20(uint256,address)":"c20938e0","withdrawETH(uint256,address)":"36118b52"},"id":1}