{
  "contracts/SchoolManagementSystem.sol": {
    "SchoolManagementSystem": {
      "abi": [
        {
          "inputs": [],
          "name": "INVALID_ADDRESS",
          "type": "error"
        },
        {
          "inputs": [],
          "name": "INVALID_ID",
          "type": "error"
        },
        {
          "inputs": [],
          "name": "INVALID_SENDER",
          "type": "error"
        },
        {
          "inputs": [],
          "name": "STUDENT_NOT_FOUND",
          "type": "error"
        },
        {
          "inputs": [
            {
              "internalType": "address",
              "name": "_studentAddress",
              "type": "address"
            }
          ],
          "name": "deleteStudentByAddress",
          "outputs": [],
          "stateMutability": "nonpayable",
          "type": "function"
        },
        {
          "inputs": [
            {
              "internalType": "uint256",
              "name": "_student_id",
              "type": "uint256"
            }
          ],
          "name": "delete_student_by_id",
          "outputs": [],
          "stateMutability": "nonpayable",
          "type": "function"
        },
        {
          "inputs": [],
          "name": "get_all_students",
          "outputs": [
            {
              "components": [
                {
                  "internalType": "uint256",
                  "name": "id",
                  "type": "uint256"
                },
                {
                  "internalType": "string",
                  "name": "name",
                  "type": "string"
                },
                {
                  "internalType": "string",
                  "name": "course",
                  "type": "string"
                },
                {
                  "internalType": "uint256",
                  "name": "age",
                  "type": "uint256"
                },
                {
                  "internalType": "enum SchoolManagementSystem.Status",
                  "name": "status",
                  "type": "uint8"
                },
                {
                  "internalType": "address",
                  "name": "studentAddress",
                  "type": "address"
                }
              ],
              "internalType": "struct SchoolManagementSystem.StudentDetails[]",
              "name": "",
              "type": "tuple[]"
            }
          ],
          "stateMutability": "view",
          "type": "function"
        },
        {
          "inputs": [
            {
              "internalType": "address",
              "name": "_address",
              "type": "address"
            }
          ],
          "name": "get_student_by_address",
          "outputs": [
            {
              "components": [
                {
                  "internalType": "uint256",
                  "name": "id",
                  "type": "uint256"
                },
                {
                  "internalType": "string",
                  "name": "name",
                  "type": "string"
                },
                {
                  "internalType": "string",
                  "name": "course",
                  "type": "string"
                },
                {
                  "internalType": "uint256",
                  "name": "age",
                  "type": "uint256"
                },
                {
                  "internalType": "enum SchoolManagementSystem.Status",
                  "name": "status",
                  "type": "uint8"
                },
                {
                  "internalType": "address",
                  "name": "studentAddress",
                  "type": "address"
                }
              ],
              "internalType": "struct SchoolManagementSystem.StudentDetails",
              "name": "",
              "type": "tuple"
            }
          ],
          "stateMutability": "view",
          "type": "function"
        },
        {
          "inputs": [
            {
              "internalType": "uint256",
              "name": "_student_id",
              "type": "uint256"
            }
          ],
          "name": "get_student_by_id",
          "outputs": [
            {
              "components": [
                {
                  "internalType": "uint256",
                  "name": "id",
                  "type": "uint256"
                },
                {
                  "internalType": "string",
                  "name": "name",
                  "type": "string"
                },
                {
                  "internalType": "string",
                  "name": "course",
                  "type": "string"
                },
                {
                  "internalType": "uint256",
                  "name": "age",
                  "type": "uint256"
                },
                {
                  "internalType": "enum SchoolManagementSystem.Status",
                  "name": "status",
                  "type": "uint8"
                },
                {
                  "internalType": "address",
                  "name": "studentAddress",
                  "type": "address"
                }
              ],
              "internalType": "struct SchoolManagementSystem.StudentDetails",
              "name": "",
              "type": "tuple"
            }
          ],
          "stateMutability": "view",
          "type": "function"
        },
        {
          "inputs": [
            {
              "internalType": "string",
              "name": "_name",
              "type": "string"
            },
            {
              "internalType": "string",
              "name": "_course",
              "type": "string"
            },
            {
              "internalType": "uint256",
              "name": "_age",
              "type": "uint256"
            }
          ],
          "name": "register_student",
          "outputs": [],
          "stateMutability": "nonpayable",
          "type": "function"
        },
        {
          "inputs": [
            {
              "internalType": "uint256",
              "name": "",
              "type": "uint256"
            }
          ],
          "name": "students",
          "outputs": [
            {
              "internalType": "uint256",
              "name": "id",
              "type": "uint256"
            },
            {
              "internalType": "string",
              "name": "name",
              "type": "string"
            },
            {
              "internalType": "string",
              "name": "course",
              "type": "string"
            },
            {
              "internalType": "uint256",
              "name": "age",
              "type": "uint256"
            },
            {
              "internalType": "enum SchoolManagementSystem.Status",
              "name": "status",
              "type": "uint8"
            },
            {
              "internalType": "address",
              "name": "studentAddress",
              "type": "address"
            }
          ],
          "stateMutability": "view",
          "type": "function"
        },
        {
          "inputs": [
            {
              "internalType": "address",
              "name": "_studentAddress",
              "type": "address"
            },
            {
              "internalType": "enum SchoolManagementSystem.Status",
              "name": "_new_status",
              "type": "uint8"
            }
          ],
          "name": "updateStudentStatusByAddress",
          "outputs": [],
          "stateMutability": "nonpayable",
          "type": "function"
        },
        {
          "inputs": [
            {
              "internalType": "string",
              "name": "_new_name",
              "type": "string"
            }
          ],
          "name": "update_student",
          "outputs": [],
          "stateMutability": "nonpayable",
          "type": "function"
        },
        {
          "inputs": [
            {
              "internalType": "uint256",
              "name": "_student_id",
              "type": "uint256"
            },
            {
              "internalType": "enum SchoolManagementSystem.Status",
              "name": "_new_status",
              "type": "uint8"
            }
          ],
          "name": "update_students_status",
          "outputs": [],
          "stateMutability": "nonpayable",
          "type": "function"
        }
      ],
      "evm": {
        "bytecode": {
          "linkReferences": {},
          "object": "6080604052348015600f57600080fd5b506127d98061001f6000396000f3fe608060405234801561001057600080fd5b506004361061009e5760003560e01c80638dc344e4116100665780638dc344e41461014a5780638f3354fe1461016657806390939c7914610196578063c26294ba146101b2578063c9b72927146101e25761009e565b806306ead22e146100a357806315c5f3e3146100d85780633a1c4d2f146100f45780633ab9a9ec146101105780636a17a26f1461012e575b600080fd5b6100bd60048036038101906100b891906119f7565b6101fe565b6040516100cf96959493929190611b7b565b60405180910390f35b6100f260048036038101906100ed9190611c0f565b610387565b005b61010e60048036038101906101099190611d84565b6104a2565b005b610118610696565b6040516101259190611f96565b60405180910390f35b61014860048036038101906101439190611fe4565b6108be565b005b610164600480360381019061015f9190612011565b610b5d565b005b610180600480360381019061017b91906119f7565b610d4d565b60405161018d91906120e1565b60405180910390f35b6101b060048036038101906101ab91906119f7565b610fd4565b005b6101cc60048036038101906101c79190611fe4565b611227565b6040516101d991906120e1565b60405180910390f35b6101fc60048036038101906101f79190612103565b6115cb565b005b6001818154811061020e57600080fd5b9060005260206000209060050201600091509050806000015490806001018054610237906121bd565b80601f0160208091040260200160405190810160405280929190818152602001828054610263906121bd565b80156102b05780601f10610285576101008083540402835291602001916102b0565b820191906000526020600020905b81548152906001019060200180831161029357829003601f168201915b5050505050908060020180546102c5906121bd565b80601f01602080910402602001604051908101604052809291908181526020018280546102f1906121bd565b801561033e5780601f106103135761010080835404028352916020019161033e565b820191906000526020600020905b81548152906001019060200180831161032157829003601f168201915b5050505050908060030154908060040160009054906101000a900460ff16908060040160019054906101000a900473ffffffffffffffffffffffffffffffffffffffff16905086565b6001805490508211156103cf576040517f08c379a00000000000000000000000000000000000000000000000000000000081526004016103c69061223a565b60405180910390fd5b60005b60018054905081101561046b5782600182815481106103f4576103f361225a565b5b9060005260206000209060050201600001540361045e5781600182815481106104205761041f61225a565b5b906000526020600020906005020160040160006101000a81548160ff0219169083600281111561045357610452611ac3565b5b02179055505061049e565b80806001019150506103d2565b506040517f5a9e653400000000000000000000000000000000000000000000000000000000815260040160405180910390fd5b5050565b600073ffffffffffffffffffffffffffffffffffffffff16600260003373ffffffffffffffffffffffffffffffffffffffff1673ffffffffffffffffffffffffffffffffffffffff16815260200190815260200160002060040160019054906101000a900473ffffffffffffffffffffffffffffffffffffffff1673ffffffffffffffffffffffffffffffffffffffff1603610573576040517f08c379a000000000000000000000000000000000000000000000000000000000815260040161056a906122d5565b60405180910390fd5b60005b600180549050811015610691573373ffffffffffffffffffffffffffffffffffffffff16600182815481106105ae576105ad61225a565b5b906000526020600020906005020160040160019054906101000a900473ffffffffffffffffffffffffffffffffffffffff1673ffffffffffffffffffffffffffffffffffffffff16036106845781600182815481106106105761060f61225a565b5b9060005260206000209060050201600101908161062d91906124a1565b5081600260003373ffffffffffffffffffffffffffffffffffffffff1673ffffffffffffffffffffffffffffffffffffffff168152602001908152602001600020600101908161067d91906124a1565b5050610693565b8080600101915050610576565b505b50565b60606001805480602002602001604051908101604052809291908181526020016000905b828210156108b557838290600052602060002090600502016040518060c0016040529081600082015481526020016001820180546106f7906121bd565b80601f0160208091040260200160405190810160405280929190818152602001828054610723906121bd565b80156107705780601f1061074557610100808354040283529160200191610770565b820191906000526020600020905b81548152906001019060200180831161075357829003601f168201915b50505050508152602001600282018054610789906121bd565b80601f01602080910402602001604051908101604052809291908181526020018280546107b5906121bd565b80156108025780601f106107d757610100808354040283529160200191610802565b820191906000526020600020905b8154815290600101906020018083116107e557829003601f168201915b50505050508152602001600382015481526020016004820160009054906101000a900460ff16600281111561083a57610839611ac3565b5b600281111561084c5761084b611ac3565b5b81526020016004820160019054906101000a900473ffffffffffffffffffffffffffffffffffffffff1673ffffffffffffffffffffffffffffffffffffffff1673ffffffffffffffffffffffffffffffffffffffff1681525050815260200190600101906106ba565b50505050905090565b60005b600180549050811015610b27578173ffffffffffffffffffffffffffffffffffffffff16600182815481106108f9576108f861225a565b5b906000526020600020906005020160040160019054906101000a900473ffffffffffffffffffffffffffffffffffffffff1673ffffffffffffffffffffffffffffffffffffffff1603610b1a57600180808054905061095891906125a2565b815481106109695761096861225a565b5b90600052602060002090600502016001828154811061098b5761098a61225a565b5b906000526020600020906005020160008201548160000155600182018160010190816109b791906125ec565b50600282018160020190816109cc91906125ec565b50600382015481600301556004820160009054906101000a900460ff168160040160006101000a81548160ff02191690836002811115610a0f57610a0e611ac3565b5b02179055506004820160019054906101000a900473ffffffffffffffffffffffffffffffffffffffff168160040160016101000a81548173ffffffffffffffffffffffffffffffffffffffff021916908373ffffffffffffffffffffffffffffffffffffffff1602179055509050506001805480610a9057610a8f6126d4565b5b6001900381819060005260206000209060050201600080820160009055600182016000610abd91906118f2565b600282016000610acd91906118f2565b60038201600090556004820160006101000a81549060ff02191690556004820160016101000a81549073ffffffffffffffffffffffffffffffffffffffff02191690555050905550610b5a565b80806001019150506108c1565b506040517faca0832a00000000000000000000000000000000000000000000000000000000815260040160405180910390fd5b50565b600073ffffffffffffffffffffffffffffffffffffffff16600260008473ffffffffffffffffffffffffffffffffffffffff1673ffffffffffffffffffffffffffffffffffffffff16815260200190815260200160002060040160019054906101000a900473ffffffffffffffffffffffffffffffffffffffff1673ffffffffffffffffffffffffffffffffffffffff1603610c2e576040517f08c379a0000000000000000000000000000000000000000000000000000000008152600401610c25906122d5565b60405180910390fd5b60005b600180549050811015610d16578273ffffffffffffffffffffffffffffffffffffffff1660018281548110610c6957610c6861225a565b5b906000526020600020906005020160040160019054906101000a900473ffffffffffffffffffffffffffffffffffffffff1673ffffffffffffffffffffffffffffffffffffffff1603610d09578160018281548110610ccb57610cca61225a565b5b906000526020600020906005020160040160006101000a81548160ff02191690836002811115610cfe57610cfd611ac3565b5b021790555050610d49565b8080600101915050610c31565b506040517f5963709b00000000000000000000000000000000000000000000000000000000815260040160405180910390fd5b5050565b610d55611932565b60005b600180549050811015610f9c578260018281548110610d7a57610d7961225a565b5b90600052602060002090600502016000015403610f8f5760018181548110610da557610da461225a565b5b90600052602060002090600502016040518060c001604052908160008201548152602001600182018054610dd8906121bd565b80601f0160208091040260200160405190810160405280929190818152602001828054610e04906121bd565b8015610e515780601f10610e2657610100808354040283529160200191610e51565b820191906000526020600020905b815481529060010190602001808311610e3457829003601f168201915b50505050508152602001600282018054610e6a906121bd565b80601f0160208091040260200160405190810160405280929190818152602001828054610e96906121bd565b8015610ee35780601f10610eb857610100808354040283529160200191610ee3565b820191906000526020600020905b815481529060010190602001808311610ec657829003601f168201915b50505050508152602001600382015481526020016004820160009054906101000a900460ff166002811115610f1b57610f1a611ac3565b5b6002811115610f2d57610f2c611ac3565b5b81526020016004820160019054906101000a900473ffffffffffffffffffffffffffffffffffffffff1673ffffffffffffffffffffffffffffffffffffffff1673ffffffffffffffffffffffffffffffffffffffff1681525050915050610fcf565b8080600101915050610d58565b506040517faca0832a00000000000000000000000000000000000000000000000000000000815260040160405180910390fd5b919050565b60005b6001805490508110156111f1578160018281548110610ff957610ff861225a565b5b906000526020600020906005020160000154036111e457600180808054905061102291906125a2565b815481106110335761103261225a565b5b9060005260206000209060050201600182815481106110555761105461225a565b5b9060005260206000209060050201600082015481600001556001820181600101908161108191906125ec565b506002820181600201908161109691906125ec565b50600382015481600301556004820160009054906101000a900460ff168160040160006101000a81548160ff021916908360028111156110d9576110d8611ac3565b5b02179055506004820160019054906101000a900473ffffffffffffffffffffffffffffffffffffffff168160040160016101000a81548173ffffffffffffffffffffffffffffffffffffffff021916908373ffffffffffffffffffffffffffffffffffffffff160217905550905050600180548061115a576111596126d4565b5b600190038181906000526020600020906005020160008082016000905560018201600061118791906118f2565b60028201600061119791906118f2565b60038201600090556004820160006101000a81549060ff02191690556004820160016101000a81549073ffffffffffffffffffffffffffffffffffffffff02191690555050905550611224565b8080600101915050610fd7565b506040517faca0832a00000000000000000000000000000000000000000000000000000000815260040160405180910390fd5b50565b61122f611932565b600073ffffffffffffffffffffffffffffffffffffffff16600260008473ffffffffffffffffffffffffffffffffffffffff1673ffffffffffffffffffffffffffffffffffffffff16815260200190815260200160002060040160019054906101000a900473ffffffffffffffffffffffffffffffffffffffff1673ffffffffffffffffffffffffffffffffffffffff1603611300576040517f08c379a00000000000000000000000000000000000000000000000000000000081526004016112f7906122d5565b60405180910390fd5b60005b600180549050811015611593578273ffffffffffffffffffffffffffffffffffffffff166001828154811061133b5761133a61225a565b5b906000526020600020906005020160040160019054906101000a900473ffffffffffffffffffffffffffffffffffffffff1673ffffffffffffffffffffffffffffffffffffffff1603611586576001818154811061139c5761139b61225a565b5b90600052602060002090600502016040518060c0016040529081600082015481526020016001820180546113cf906121bd565b80601f01602080910402602001604051908101604052809291908181526020018280546113fb906121bd565b80156114485780601f1061141d57610100808354040283529160200191611448565b820191906000526020600020905b81548152906001019060200180831161142b57829003601f168201915b50505050508152602001600282018054611461906121bd565b80601f016020809104026020016040519081016040528092919081815260200182805461148d906121bd565b80156114da5780601f106114af576101008083540402835291602001916114da565b820191906000526020600020905b8154815290600101906020018083116114bd57829003601f168201915b50505050508152602001600382015481526020016004820160009054906101000a900460ff16600281111561151257611511611ac3565b5b600281111561152457611523611ac3565b5b81526020016004820160019054906101000a900473ffffffffffffffffffffffffffffffffffffffff1673ffffffffffffffffffffffffffffffffffffffff1673ffffffffffffffffffffffffffffffffffffffff16815250509150506115c6565b8080600101915050611303565b506040517faca0832a00000000000000000000000000000000000000000000000000000000815260040160405180910390fd5b919050565b600073ffffffffffffffffffffffffffffffffffffffff16600260003373ffffffffffffffffffffffffffffffffffffffff1673ffffffffffffffffffffffffffffffffffffffff16815260200190815260200160002060040160019054906101000a900473ffffffffffffffffffffffffffffffffffffffff1673ffffffffffffffffffffffffffffffffffffffff161461169c576040517f08c379a00000000000000000000000000000000000000000000000000000000081526004016116939061274f565b60405180910390fd5b60016000546116ab919061276f565b60008190555060006040518060c001604052806000548152602001858152602001848152602001838152602001600060028111156116ec576116eb611ac3565b5b81526020013373ffffffffffffffffffffffffffffffffffffffff168152509050600181908060018154018082558091505060019003906000526020600020906005020160009091909190915060008201518160000155602082015181600101908161175891906124a1565b50604082015181600201908161176e91906124a1565b506060820151816003015560808201518160040160006101000a81548160ff021916908360028111156117a4576117a3611ac3565b5b021790555060a08201518160040160016101000a81548173ffffffffffffffffffffffffffffffffffffffff021916908373ffffffffffffffffffffffffffffffffffffffff160217905550505080600260003373ffffffffffffffffffffffffffffffffffffffff1673ffffffffffffffffffffffffffffffffffffffff16815260200190815260200160002060008201518160000155602082015181600101908161185191906124a1565b50604082015181600201908161186791906124a1565b506060820151816003015560808201518160040160006101000a81548160ff0219169083600281111561189d5761189c611ac3565b5b021790555060a08201518160040160016101000a81548173ffffffffffffffffffffffffffffffffffffffff021916908373ffffffffffffffffffffffffffffffffffffffff16021790555090505050505050565b5080546118fe906121bd565b6000825580601f10611910575061192f565b601f01602090049060005260206000209081019061192e9190611990565b5b50565b6040518060c00160405280600081526020016060815260200160608152602001600081526020016000600281111561196d5761196c611ac3565b5b8152602001600073ffffffffffffffffffffffffffffffffffffffff1681525090565b5b808211156119a9576000816000905550600101611991565b5090565b6000604051905090565b600080fd5b600080fd5b6000819050919050565b6119d4816119c1565b81146119df57600080fd5b50565b6000813590506119f1816119cb565b92915050565b600060208284031215611a0d57611a0c6119b7565b5b6000611a1b848285016119e2565b91505092915050565b611a2d816119c1565b82525050565b600081519050919050565b600082825260208201905092915050565b60005b83811015611a6d578082015181840152602081019050611a52565b60008484015250505050565b6000601f19601f8301169050919050565b6000611a9582611a33565b611a9f8185611a3e565b9350611aaf818560208601611a4f565b611ab881611a79565b840191505092915050565b7f4e487b7100000000000000000000000000000000000000000000000000000000600052602160045260246000fd5b60038110611b0357611b02611ac3565b5b50565b6000819050611b1482611af2565b919050565b6000611b2482611b06565b9050919050565b611b3481611b19565b82525050565b600073ffffffffffffffffffffffffffffffffffffffff82169050919050565b6000611b6582611b3a565b9050919050565b611b7581611b5a565b82525050565b600060c082019050611b906000830189611a24565b8181036020830152611ba28188611a8a565b90508181036040830152611bb68187611a8a565b9050611bc56060830186611a24565b611bd26080830185611b2b565b611bdf60a0830184611b6c565b979650505050505050565b60038110611bf757600080fd5b50565b600081359050611c0981611bea565b92915050565b60008060408385031215611c2657611c256119b7565b5b6000611c34858286016119e2565b9250506020611c4585828601611bfa565b9150509250929050565b600080fd5b600080fd5b7f4e487b7100000000000000000000000000000000000000000000000000000000600052604160045260246000fd5b611c9182611a79565b810181811067ffffffffffffffff82111715611cb057611caf611c59565b5b80604052505050565b6000611cc36119ad565b9050611ccf8282611c88565b919050565b600067ffffffffffffffff821115611cef57611cee611c59565b5b611cf882611a79565b9050602081019050919050565b82818337600083830152505050565b6000611d27611d2284611cd4565b611cb9565b905082815260208101848484011115611d4357611d42611c54565b5b611d4e848285611d05565b509392505050565b600082601f830112611d6b57611d6a611c4f565b5b8135611d7b848260208601611d14565b91505092915050565b600060208284031215611d9a57611d996119b7565b5b600082013567ffffffffffffffff811115611db857611db76119bc565b5b611dc484828501611d56565b91505092915050565b600081519050919050565b600082825260208201905092915050565b6000819050602082019050919050565b611e02816119c1565b82525050565b600082825260208201905092915050565b6000611e2482611a33565b611e2e8185611e08565b9350611e3e818560208601611a4f565b611e4781611a79565b840191505092915050565b611e5b81611b19565b82525050565b611e6a81611b5a565b82525050565b600060c083016000830151611e886000860182611df9565b5060208301518482036020860152611ea08282611e19565b91505060408301518482036040860152611eba8282611e19565b9150506060830151611ecf6060860182611df9565b506080830151611ee26080860182611e52565b5060a0830151611ef560a0860182611e61565b508091505092915050565b6000611f0c8383611e70565b905092915050565b6000602082019050919050565b6000611f2c82611dcd565b611f368185611dd8565b935083602082028501611f4885611de9565b8060005b85811015611f845784840389528151611f658582611f00565b9450611f7083611f14565b925060208a01995050600181019050611f4c565b50829750879550505050505092915050565b60006020820190508181036000830152611fb08184611f21565b905092915050565b611fc181611b5a565b8114611fcc57600080fd5b50565b600081359050611fde81611fb8565b92915050565b600060208284031215611ffa57611ff96119b7565b5b600061200884828501611fcf565b91505092915050565b60008060408385031215612028576120276119b7565b5b600061203685828601611fcf565b925050602061204785828601611bfa565b9150509250929050565b600060c0830160008301516120696000860182611df9565b50602083015184820360208601526120818282611e19565b9150506040830151848203604086015261209b8282611e19565b91505060608301516120b06060860182611df9565b5060808301516120c36080860182611e52565b5060a08301516120d660a0860182611e61565b508091505092915050565b600060208201905081810360008301526120fb8184612051565b905092915050565b60008060006060848603121561211c5761211b6119b7565b5b600084013567ffffffffffffffff81111561213a576121396119bc565b5b61214686828701611d56565b935050602084013567ffffffffffffffff811115612167576121666119bc565b5b61217386828701611d56565b9250506040612184868287016119e2565b9150509250925092565b7f4e487b7100000000000000000000000000000000000000000000000000000000600052602260045260246000fd5b600060028204905060018216806121d557607f821691505b6020821081036121e8576121e761218e565b5b50919050565b7f696e76616c696420696400000000000000000000000000000000000000000000600082015250565b6000612224600a83611a3e565b915061222f826121ee565b602082019050919050565b6000602082019050818103600083015261225381612217565b9050919050565b7f4e487b7100000000000000000000000000000000000000000000000000000000600052603260045260246000fd5b7f73747564656e7420646f6573206e6f7420657869737400000000000000000000600082015250565b60006122bf601683611a3e565b91506122ca82612289565b602082019050919050565b600060208201905081810360008301526122ee816122b2565b9050919050565b60008190508160005260206000209050919050565b60006020601f8301049050919050565b600082821b905092915050565b6000600883026123577fffffffffffffffffffffffffffffffffffffffffffffffffffffffffffffffff8261231a565b612361868361231a565b95508019841693508086168417925050509392505050565b6000819050919050565b600061239e612399612394846119c1565b612379565b6119c1565b9050919050565b6000819050919050565b6123b883612383565b6123cc6123c4826123a5565b848454612327565b825550505050565b600090565b6123e16123d4565b6123ec8184846123af565b505050565b5b81811015612410576124056000826123d9565b6001810190506123f2565b5050565b601f82111561245557612426816122f5565b61242f8461230a565b8101602085101561243e578190505b61245261244a8561230a565b8301826123f1565b50505b505050565b600082821c905092915050565b60006124786000198460080261245a565b1980831691505092915050565b60006124918383612467565b9150826002028217905092915050565b6124aa82611a33565b67ffffffffffffffff8111156124c3576124c2611c59565b5b6124cd82546121bd565b6124d8828285612414565b600060209050601f83116001811461250b57600084156124f9578287015190505b6125038582612485565b86555061256b565b601f198416612519866122f5565b60005b828110156125415784890151825560018201915060208501945060208101905061251c565b8683101561255e578489015161255a601f891682612467565b8355505b6001600288020188555050505b505050505050565b7f4e487b7100000000000000000000000000000000000000000000000000000000600052601160045260246000fd5b60006125ad826119c1565b91506125b8836119c1565b92508282039050818111156125d0576125cf612573565b5b92915050565b6000815490506125e5816121bd565b9050919050565b8181036125fa5750506126d2565b612603826125d6565b67ffffffffffffffff81111561261c5761261b611c59565b5b61262682546121bd565b612631828285612414565b6000601f831160018114612660576000841561264e578287015490505b6126588582612485565b8655506126cb565b601f19841661266e876122f5565b9650612679866122f5565b60005b828110156126a15784890154825560018201915060018501945060208101905061267c565b868310156126be57848901546126ba601f891682612467565b8355505b6001600288020188555050505b5050505050505b565b7f4e487b7100000000000000000000000000000000000000000000000000000000600052603160045260246000fd5b7f73747564656e7420616c72656164792065786973740000000000000000000000600082015250565b6000612739601583611a3e565b915061274482612703565b602082019050919050565b600060208201905081810360008301526127688161272c565b9050919050565b600061277a826119c1565b9150612785836119c1565b925082820190508082111561279d5761279c612573565b5b9291505056fea264697066735822122025be900623ff00b2a4bd3cf6e5ab0689d25e431c643db5c06bc65b88c2b5c44a64736f6c634300081e0033",
          "opcodes": "PUSH1 0x80 PUSH1 0x40 MSTORE CALLVALUE DUP1 ISZERO PUSH1 0xF JUMPI PUSH1 0x0 DUP1 REVERT JUMPDEST POP PUSH2 0x27D9 DUP1 PUSH2 0x1F PUSH1 0x0 CODECOPY PUSH1 0x0 RETURN INVALID PUSH1 0x80 PUSH1 0x40 MSTORE CALLVALUE DUP1 ISZERO PUSH2 0x10 JUMPI PUSH1 0x0 DUP1 REVERT JUMPDEST POP PUSH1 0x4 CALLDATASIZE LT PUSH2 0x9E JUMPI PUSH1 0x0 CALLDATALOAD PUSH1 0xE0 SHR DUP1 PUSH4 0x8DC344E4 GT PUSH2 0x66 JUMPI DUP1 PUSH4 0x8DC344E4 EQ PUSH2 0x14A JUMPI DUP1 PUSH4 0x8F3354FE EQ PUSH2 0x166 JUMPI DUP1 PUSH4 0x90939C79 EQ PUSH2 0x196 JUMPI DUP1 PUSH4 0xC26294BA EQ PUSH2 0x1B2 JUMPI DUP1 PUSH4 0xC9B72927 EQ PUSH2 0x1E2 JUMPI PUSH2 0x9E JUMP JUMPDEST DUP1 PUSH4 0x6EAD22E EQ PUSH2 0xA3 JUMPI DUP1 PUSH4 0x15C5F3E3 EQ PUSH2 0xD8 JUMPI DUP1 PUSH4 0x3A1C4D2F EQ PUSH2 0xF4 JUMPI DUP1 PUSH4 0x3AB9A9EC EQ PUSH2 0x110 JUMPI DUP1 PUSH4 0x6A17A26F EQ PUSH2 0x12E JUMPI JUMPDEST PUSH1 0x0 DUP1 REVERT JUMPDEST PUSH2 0xBD PUSH1 0x4 DUP1 CALLDATASIZE SUB DUP2 ADD SWAP1 PUSH2 0xB8 SWAP2 SWAP1 PUSH2 0x19F7 JUMP JUMPDEST PUSH2 0x1FE JUMP JUMPDEST PUSH1 0x40 MLOAD PUSH2 0xCF SWAP7 SWAP6 SWAP5 SWAP4 SWAP3 SWAP2 SWAP1 PUSH2 0x1B7B JUMP JUMPDEST PUSH1 0x40 MLOAD DUP1 SWAP2 SUB SWAP1 RETURN JUMPDEST PUSH2 0xF2 PUSH1 0x4 DUP1 CALLDATASIZE SUB DUP2 ADD SWAP1 PUSH2 0xED SWAP2 SWAP1 PUSH2 0x1C0F JUMP JUMPDEST PUSH2 0x387 JUMP JUMPDEST STOP JUMPDEST PUSH2 0x10E PUSH1 0x4 DUP1 CALLDATASIZE SUB DUP2 ADD SWAP1 PUSH2 0x109 SWAP2 SWAP1 PUSH2 0x1D84 JUMP JUMPDEST PUSH2 0x4A2 JUMP JUMPDEST STOP JUMPDEST PUSH2 0x118 PUSH2 0x696 JUMP JUMPDEST PUSH1 0x40 MLOAD PUSH2 0x125 SWAP2 SWAP1 PUSH2 0x1F96 JUMP JUMPDEST PUSH1 0x40 MLOAD DUP1 SWAP2 SUB SWAP1 RETURN JUMPDEST PUSH2 0x148 PUSH1 0x4 DUP1 CALLDATASIZE SUB DUP2 ADD SWAP1 PUSH2 0x143 SWAP2 SWAP1 PUSH2 0x1FE4 JUMP JUMPDEST PUSH2 0x8BE JUMP JUMPDEST STOP JUMPDEST PUSH2 0x164 PUSH1 0x4 DUP1 CALLDATASIZE SUB DUP2 ADD SWAP1 PUSH2 0x15F SWAP2 SWAP1 PUSH2 0x2011 JUMP JUMPDEST PUSH2 0xB5D JUMP JUMPDEST STOP JUMPDEST PUSH2 0x180 PUSH1 0x4 DUP1 CALLDATASIZE SUB DUP2 ADD SWAP1 PUSH2 0x17B SWAP2 SWAP1 PUSH2 0x19F7 JUMP JUMPDEST PUSH2 0xD4D JUMP JUMPDEST PUSH1 0x40 MLOAD PUSH2 0x18D SWAP2 SWAP1 PUSH2 0x20E1 JUMP JUMPDEST PUSH1 0x40 MLOAD DUP1 SWAP2 SUB SWAP1 RETURN JUMPDEST PUSH2 0x1B0 PUSH1 0x4 DUP1 CALLDATASIZE SUB DUP2 ADD SWAP1 PUSH2 0x1AB SWAP2 SWAP1 PUSH2 0x19F7 JUMP JUMPDEST PUSH2 0xFD4 JUMP JUMPDEST STOP JUMPDEST PUSH2 0x1CC PUSH1 0x4 DUP1 CALLDATASIZE SUB DUP2 ADD SWAP1 PUSH2 0x1C7 SWAP2 SWAP1 PUSH2 0x1FE4 JUMP JUMPDEST PUSH2 0x1227 JUMP JUMPDEST PUSH1 0x40 MLOAD PUSH2 0x1D9 SWAP2 SWAP1 PUSH2 0x20E1 JUMP JUMPDEST PUSH1 0x40 MLOAD DUP1 SWAP2 SUB SWAP1 RETURN JUMPDEST PUSH2 0x1FC PUSH1 0x4 DUP1 CALLDATASIZE SUB DUP2 ADD SWAP1 PUSH2 0x1F7 SWAP2 SWAP1 PUSH2 0x2103 JUMP JUMPDEST PUSH2 0x15CB JUMP JUMPDEST STOP JUMPDEST PUSH1 0x1 DUP2 DUP2 SLOAD DUP2 LT PUSH2 0x20E JUMPI PUSH1 0x0 DUP1 REVERT JUMPDEST SWAP1 PUSH1 0x0 MSTORE PUSH1 0x20 PUSH1 0x0 KECCAK256 SWAP1 PUSH1 0x5 MUL ADD PUSH1 0x0 SWAP2 POP SWAP1 POP DUP1 PUSH1 0x0 ADD SLOAD SWAP1 DUP1 PUSH1 0x1 ADD DUP1 SLOAD PUSH2 0x237 SWAP1 PUSH2 0x21BD JUMP JUMPDEST DUP1 PUSH1 0x1F ADD PUSH1 0x20 DUP1 SWAP2 DIV MUL PUSH1 0x20 ADD PUSH1 0x40 MLOAD SWAP1 DUP2 ADD PUSH1 0x40 MSTORE DUP1 SWAP3 SWAP2 SWAP1 DUP2 DUP2 MSTORE PUSH1 0x20 ADD DUP3 DUP1 SLOAD PUSH2 0x263 SWAP1 PUSH2 0x21BD JUMP JUMPDEST DUP1 ISZERO PUSH2 0x2B0 JUMPI DUP1 PUSH1 0x1F LT PUSH2 0x285 JUMPI PUSH2 0x100 DUP1 DUP4 SLOAD DIV MUL DUP4 MSTORE SWAP2 PUSH1 0x20 ADD SWAP2 PUSH2 0x2B0 JUMP JUMPDEST DUP3 ADD SWAP2 SWAP1 PUSH1 0x0 MSTORE PUSH1 0x20 PUSH1 0x0 KECCAK256 SWAP1 JUMPDEST DUP2 SLOAD DUP2 MSTORE SWAP1 PUSH1 0x1 ADD SWAP1 PUSH1 0x20 ADD DUP1 DUP4 GT PUSH2 0x293 JUMPI DUP3 SWAP1 SUB PUSH1 0x1F AND DUP3 ADD SWAP2 JUMPDEST POP POP POP POP POP SWAP1 DUP1 PUSH1 0x2 ADD DUP1 SLOAD PUSH2 0x2C5 SWAP1 PUSH2 0x21BD JUMP JUMPDEST DUP1 PUSH1 0x1F ADD PUSH1 0x20 DUP1 SWAP2 DIV MUL PUSH1 0x20 ADD PUSH1 0x40 MLOAD SWAP1 DUP2 ADD PUSH1 0x40 MSTORE DUP1 SWAP3 SWAP2 SWAP1 DUP2 DUP2 MSTORE PUSH1 0x20 ADD DUP3 DUP1 SLOAD PUSH2 0x2F1 SWAP1 PUSH2 0x21BD JUMP JUMPDEST DUP1 ISZERO PUSH2 0x33E JUMPI DUP1 PUSH1 0x1F LT PUSH2 0x313 JUMPI PUSH2 0x100 DUP1 DUP4 SLOAD DIV MUL DUP4 MSTORE SWAP2 PUSH1 0x20 ADD SWAP2 PUSH2 0x33E JUMP JUMPDEST DUP3 ADD SWAP2 SWAP1 PUSH1 0x0 MSTORE PUSH1 0x20 PUSH1 0x0 KECCAK256 SWAP1 JUMPDEST DUP2 SLOAD DUP2 MSTORE SWAP1 PUSH1 0x1 ADD SWAP1 PUSH1 0x20 ADD DUP1 DUP4 GT PUSH2 0x321 JUMPI DUP3 SWAP1 SUB PUSH1 0x1F AND DUP3 ADD SWAP2 JUMPDEST POP POP POP POP POP SWAP1 DUP1 PUSH1 0x3 ADD SLOAD SWAP1 DUP1 PUSH1 0x4 ADD PUSH1 0x0 SWAP1 SLOAD SWAP1 PUSH2 0x100 EXP SWAP1 DIV PUSH1 0xFF AND SWAP1 DUP1 PUSH1 0x4 ADD PUSH1 0x1 SWAP1 SLOAD SWAP1 PUSH2 0x100 EXP SWAP1 DIV PUSH20 0xFFFFFFFFFFFFFFFFFFFFFFFFFFFFFFFFFFFFFFFF AND SWAP1 POP DUP7 JUMP JUMPDEST PUSH1 0x1 DUP1 SLOAD SWAP1 POP DUP3 GT ISZERO PUSH2 0x3CF JUMPI PUSH1 0x40 MLOAD PUSH32 0x8C379A000000000000000000000000000000000000000000000000000000000 DUP2 MSTORE PUSH1 0x4 ADD PUSH2 0x3C6 SWAP1 PUSH2 0x223A JUMP JUMPDEST PUSH1 0x40 MLOAD DUP1 SWAP2 SUB SWAP1 REVERT JUMPDEST PUSH1 0x0 JUMPDEST PUSH1 0x1 DUP1 SLOAD SWAP1 POP DUP2 LT ISZERO PUSH2 0x46B JUMPI DUP3 PUSH1 0x1 DUP3 DUP2 SLOAD DUP2 LT PUSH2 0x3F4 JUMPI PUSH2 0x3F3 PUSH2 0x225A JUMP JUMPDEST JUMPDEST SWAP1 PUSH1 0x0 MSTORE PUSH1 0x20 PUSH1 0x0 KECCAK256 SWAP1 PUSH1 0x5 MUL ADD PUSH1 0x0 ADD SLOAD SUB PUSH2 0x45E JUMPI DUP2 PUSH1 0x1 DUP3 DUP2 SLOAD DUP2 LT PUSH2 0x420 JUMPI PUSH2 0x41F PUSH2 0x225A JUMP JUMPDEST JUMPDEST SWAP1 PUSH1 0x0 MSTORE PUSH1 0x20 PUSH1 0x0 KECCAK256 SWAP1 PUSH1 0x5 MUL ADD PUSH1 0x4 ADD PUSH1 0x0 PUSH2 0x100 EXP DUP2 SLOAD DUP2 PUSH1 0xFF MUL NOT AND SWAP1 DUP4 PUSH1 0x2 DUP2 GT ISZERO PUSH2 0x453 JUMPI PUSH2 0x452 PUSH2 0x1AC3 JUMP JUMPDEST JUMPDEST MUL OR SWAP1 SSTORE POP POP PUSH2 0x49E JUMP JUMPDEST DUP1 DUP1 PUSH1 0x1 ADD SWAP2 POP POP PUSH2 0x3D2 JUMP JUMPDEST POP PUSH1 0x40 MLOAD PUSH32 0x5A9E653400000000000000000000000000000000000000000000000000000000 DUP2 MSTORE PUSH1 0x4 ADD PUSH1 0x40 MLOAD DUP1 SWAP2 SUB SWAP1 REVERT JUMPDEST POP POP JUMP JUMPDEST PUSH1 0x0 PUSH20 0xFFFFFFFFFFFFFFFFFFFFFFFFFFFFFFFFFFFFFFFF AND PUSH1 0x2 PUSH1 0x0 CALLER PUSH20 0xFFFFFFFFFFFFFFFFFFFFFFFFFFFFFFFFFFFFFFFF AND PUSH20 0xFFFFFFFFFFFFFFFFFFFFFFFFFFFFFFFFFFFFFFFF AND DUP2 MSTORE PUSH1 0x20 ADD SWAP1 DUP2 MSTORE PUSH1 0x20 ADD PUSH1 0x0 KECCAK256 PUSH1 0x4 ADD PUSH1 0x1 SWAP1 SLOAD SWAP1 PUSH2 0x100 EXP SWAP1 DIV PUSH20 0xFFFFFFFFFFFFFFFFFFFFFFFFFFFFFFFFFFFFFFFF AND PUSH20 0xFFFFFFFFFFFFFFFFFFFFFFFFFFFFFFFFFFFFFFFF AND SUB PUSH2 0x573 JUMPI PUSH1 0x40 MLOAD PUSH32 0x8C379A000000000000000000000000000000000000000000000000000000000 DUP2 MSTORE PUSH1 0x4 ADD PUSH2 0x56A SWAP1 PUSH2 0x22D5 JUMP JUMPDEST PUSH1 0x40 MLOAD DUP1 SWAP2 SUB SWAP1 REVERT JUMPDEST PUSH1 0x0 JUMPDEST PUSH1 0x1 DUP1 SLOAD SWAP1 POP DUP2 LT ISZERO PUSH2 0x691 JUMPI CALLER PUSH20 0xFFFFFFFFFFFFFFFFFFFFFFFFFFFFFFFFFFFFFFFF AND PUSH1 0x1 DUP3 DUP2 SLOAD DUP2 LT PUSH2 0x5AE JUMPI PUSH2 0x5AD PUSH2 0x225A JUMP JUMPDEST JUMPDEST SWAP1 PUSH1 0x0 MSTORE PUSH1 0x20 PUSH1 0x0 KECCAK256 SWAP1 PUSH1 0x5 MUL ADD PUSH1 0x4 ADD PUSH1 0x1 SWAP1 SLOAD SWAP1 PUSH2 0x100 EXP SWAP1 DIV PUSH20 0xFFFFFFFFFFFFFFFFFFFFFFFFFFFFFFFFFFFFFFFF AND PUSH20 0xFFFFFFFFFFFFFFFFFFFFFFFFFFFFFFFFFFFFFFFF AND SUB PUSH2 0x684 JUMPI DUP2 PUSH1 0x1 DUP3 DUP2 SLOAD DUP2 LT PUSH2 0x610 JUMPI PUSH2 0x60F PUSH2 0x225A JUMP JUMPDEST JUMPDEST SWAP1 PUSH1 0x0 MSTORE PUSH1 0x20 PUSH1 0x0 KECCAK256 SWAP1 PUSH1 0x5 MUL ADD PUSH1 0x1 ADD SWAP1 DUP2 PUSH2 0x62D SWAP2 SWAP1 PUSH2 0x24A1 JUMP JUMPDEST POP DUP2 PUSH1 0x2 PUSH1 0x0 CALLER PUSH20 0xFFFFFFFFFFFFFFFFFFFFFFFFFFFFFFFFFFFFFFFF AND PUSH20 0xFFFFFFFFFFFFFFFFFFFFFFFFFFFFFFFFFFFFFFFF AND DUP2 MSTORE PUSH1 0x20 ADD SWAP1 DUP2 MSTORE PUSH1 0x20 ADD PUSH1 0x0 KECCAK256 PUSH1 0x1 ADD SWAP1 DUP2 PUSH2 0x67D SWAP2 SWAP1 PUSH2 0x24A1 JUMP JUMPDEST POP POP PUSH2 0x693 JUMP JUMPDEST DUP1 DUP1 PUSH1 0x1 ADD SWAP2 POP POP PUSH2 0x576 JUMP JUMPDEST POP JUMPDEST POP JUMP JUMPDEST PUSH1 0x60 PUSH1 0x1 DUP1 SLOAD DUP1 PUSH1 0x20 MUL PUSH1 0x20 ADD PUSH1 0x40 MLOAD SWAP1 DUP2 ADD PUSH1 0x40 MSTORE DUP1 SWAP3 SWAP2 SWAP1 DUP2 DUP2 MSTORE PUSH1 0x20 ADD PUSH1 0x0 SWAP1 JUMPDEST DUP3 DUP3 LT ISZERO PUSH2 0x8B5 JUMPI DUP4 DUP3 SWAP1 PUSH1 0x0 MSTORE PUSH1 0x20 PUSH1 0x0 KECCAK256 SWAP1 PUSH1 0x5 MUL ADD PUSH1 0x40 MLOAD DUP1 PUSH1 0xC0 ADD PUSH1 0x40 MSTORE SWAP1 DUP2 PUSH1 0x0 DUP3 ADD SLOAD DUP2 MSTORE PUSH1 0x20 ADD PUSH1 0x1 DUP3 ADD DUP1 SLOAD PUSH2 0x6F7 SWAP1 PUSH2 0x21BD JUMP JUMPDEST DUP1 PUSH1 0x1F ADD PUSH1 0x20 DUP1 SWAP2 DIV MUL PUSH1 0x20 ADD PUSH1 0x40 MLOAD SWAP1 DUP2 ADD PUSH1 0x40 MSTORE DUP1 SWAP3 SWAP2 SWAP1 DUP2 DUP2 MSTORE PUSH1 0x20 ADD DUP3 DUP1 SLOAD PUSH2 0x723 SWAP1 PUSH2 0x21BD JUMP JUMPDEST DUP1 ISZERO PUSH2 0x770 JUMPI DUP1 PUSH1 0x1F LT PUSH2 0x745 JUMPI PUSH2 0x100 DUP1 DUP4 SLOAD DIV MUL DUP4 MSTORE SWAP2 PUSH1 0x20 ADD SWAP2 PUSH2 0x770 JUMP JUMPDEST DUP3 ADD SWAP2 SWAP1 PUSH1 0x0 MSTORE PUSH1 0x20 PUSH1 0x0 KECCAK256 SWAP1 JUMPDEST DUP2 SLOAD DUP2 MSTORE SWAP1 PUSH1 0x1 ADD SWAP1 PUSH1 0x20 ADD DUP1 DUP4 GT PUSH2 0x753 JUMPI DUP3 SWAP1 SUB PUSH1 0x1F AND DUP3 ADD SWAP2 JUMPDEST POP POP POP POP POP DUP2 MSTORE PUSH1 0x20 ADD PUSH1 0x2 DUP3 ADD DUP1 SLOAD PUSH2 0x789 SWAP1 PUSH2 0x21BD JUMP JUMPDEST DUP1 PUSH1 0x1F ADD PUSH1 0x20 DUP1 SWAP2 DIV MUL PUSH1 0x20 ADD PUSH1 0x40 MLOAD SWAP1 DUP2 ADD PUSH1 0x40 MSTORE DUP1 SWAP3 SWAP2 SWAP1 DUP2 DUP2 MSTORE PUSH1 0x20 ADD DUP3 DUP1 SLOAD PUSH2 0x7B5 SWAP1 PUSH2 0x21BD JUMP JUMPDEST DUP1 ISZERO PUSH2 0x802 JUMPI DUP1 PUSH1 0x1F LT PUSH2 0x7D7 JUMPI PUSH2 0x100 DUP1 DUP4 SLOAD DIV MUL DUP4 MSTORE SWAP2 PUSH1 0x20 ADD SWAP2 PUSH2 0x802 JUMP JUMPDEST DUP3 ADD SWAP2 SWAP1 PUSH1 0x0 MSTORE PUSH1 0x20 PUSH1 0x0 KECCAK256 SWAP1 JUMPDEST DUP2 SLOAD DUP2 MSTORE SWAP1 PUSH1 0x1 ADD SWAP1 PUSH1 0x20 ADD DUP1 DUP4 GT PUSH2 0x7E5 JUMPI DUP3 SWAP1 SUB PUSH1 0x1F AND DUP3 ADD SWAP2 JUMPDEST POP POP POP POP POP DUP2 MSTORE PUSH1 0x20 ADD PUSH1 0x3 DUP3 ADD SLOAD DUP2 MSTORE PUSH1 0x20 ADD PUSH1 0x4 DUP3 ADD PUSH1 0x0 SWAP1 SLOAD SWAP1 PUSH2 0x100 EXP SWAP1 DIV PUSH1 0xFF AND PUSH1 0x2 DUP2 GT ISZERO PUSH2 0x83A JUMPI PUSH2 0x839 PUSH2 0x1AC3 JUMP JUMPDEST JUMPDEST PUSH1 0x2 DUP2 GT ISZERO PUSH2 0x84C JUMPI PUSH2 0x84B PUSH2 0x1AC3 JUMP JUMPDEST JUMPDEST DUP2 MSTORE PUSH1 0x20 ADD PUSH1 0x4 DUP3 ADD PUSH1 0x1 SWAP1 SLOAD SWAP1 PUSH2 0x100 EXP SWAP1 DIV PUSH20 0xFFFFFFFFFFFFFFFFFFFFFFFFFFFFFFFFFFFFFFFF AND PUSH20 0xFFFFFFFFFFFFFFFFFFFFFFFFFFFFFFFFFFFFFFFF AND PUSH20 0xFFFFFFFFFFFFFFFFFFFFFFFFFFFFFFFFFFFFFFFF AND DUP2 MSTORE POP POP DUP2 MSTORE PUSH1 0x20 ADD SWAP1 PUSH1 0x1 ADD SWAP1 PUSH2 0x6BA JUMP JUMPDEST POP POP POP POP SWAP1 POP SWAP1 JUMP JUMPDEST PUSH1 0x0 JUMPDEST PUSH1 0x1 DUP1 SLOAD SWAP1 POP DUP2 LT ISZERO PUSH2 0xB27 JUMPI DUP2 PUSH20 0xFFFFFFFFFFFFFFFFFFFFFFFFFFFFFFFFFFFFFFFF AND PUSH1 0x1 DUP3 DUP2 SLOAD DUP2 LT PUSH2 0x8F9 JUMPI PUSH2 0x8F8 PUSH2 0x225A JUMP JUMPDEST JUMPDEST SWAP1 PUSH1 0x0 MSTORE PUSH1 0x20 PUSH1 0x0 KECCAK256 SWAP1 PUSH1 0x5 MUL ADD PUSH1 0x4 ADD PUSH1 0x1 SWAP1 SLOAD SWAP1 PUSH2 0x100 EXP SWAP1 DIV PUSH20 0xFFFFFFFFFFFFFFFFFFFFFFFFFFFFFFFFFFFFFFFF AND PUSH20 0xFFFFFFFFFFFFFFFFFFFFFFFFFFFFFFFFFFFFFFFF AND SUB PUSH2 0xB1A JUMPI PUSH1 0x1 DUP1 DUP1 DUP1 SLOAD SWAP1 POP PUSH2 0x958 SWAP2 SWAP1 PUSH2 0x25A2 JUMP JUMPDEST DUP2 SLOAD DUP2 LT PUSH2 0x969 JUMPI PUSH2 0x968 PUSH2 0x225A JUMP JUMPDEST JUMPDEST SWAP1 PUSH1 0x0 MSTORE PUSH1 0x20 PUSH1 0x0 KECCAK256 SWAP1 PUSH1 0x5 MUL ADD PUSH1 0x1 DUP3 DUP2 SLOAD DUP2 LT PUSH2 0x98B JUMPI PUSH2 0x98A PUSH2 0x225A JUMP JUMPDEST JUMPDEST SWAP1 PUSH1 0x0 MSTORE PUSH1 0x20 PUSH1 0x0 KECCAK256 SWAP1 PUSH1 0x5 MUL ADD PUSH1 0x0 DUP3 ADD SLOAD DUP2 PUSH1 0x0 ADD SSTORE PUSH1 0x1 DUP3 ADD DUP2 PUSH1 0x1 ADD SWAP1 DUP2 PUSH2 0x9B7 SWAP2 SWAP1 PUSH2 0x25EC JUMP JUMPDEST POP PUSH1 0x2 DUP3 ADD DUP2 PUSH1 0x2 ADD SWAP1 DUP2 PUSH2 0x9CC SWAP2 SWAP1 PUSH2 0x25EC JUMP JUMPDEST POP PUSH1 0x3 DUP3 ADD SLOAD DUP2 PUSH1 0x3 ADD SSTORE PUSH1 0x4 DUP3 ADD PUSH1 0x0 SWAP1 SLOAD SWAP1 PUSH2 0x100 EXP SWAP1 DIV PUSH1 0xFF AND DUP2 PUSH1 0x4 ADD PUSH1 0x0 PUSH2 0x100 EXP DUP2 SLOAD DUP2 PUSH1 0xFF MUL NOT AND SWAP1 DUP4 PUSH1 0x2 DUP2 GT ISZERO PUSH2 0xA0F JUMPI PUSH2 0xA0E PUSH2 0x1AC3 JUMP JUMPDEST JUMPDEST MUL OR SWAP1 SSTORE POP PUSH1 0x4 DUP3 ADD PUSH1 0x1 SWAP1 SLOAD SWAP1 PUSH2 0x100 EXP SWAP1 DIV PUSH20 0xFFFFFFFFFFFFFFFFFFFFFFFFFFFFFFFFFFFFFFFF AND DUP2 PUSH1 0x4 ADD PUSH1 0x1 PUSH2 0x100 EXP DUP2 SLOAD DUP2 PUSH20 0xFFFFFFFFFFFFFFFFFFFFFFFFFFFFFFFFFFFFFFFF MUL NOT AND SWAP1 DUP4 PUSH20 0xFFFFFFFFFFFFFFFFFFFFFFFFFFFFFFFFFFFFFFFF AND MUL OR SWAP1 SSTORE POP SWAP1 POP POP PUSH1 0x1 DUP1 SLOAD DUP1 PUSH2 0xA90 JUMPI PUSH2 0xA8F PUSH2 0x26D4 JUMP JUMPDEST JUMPDEST PUSH1 0x1 SWAP1 SUB DUP2 DUP2 SWAP1 PUSH1 0x0 MSTORE PUSH1 0x20 PUSH1 0x0 KECCAK256 SWAP1 PUSH1 0x5 MUL ADD PUSH1 0x0 DUP1 DUP3 ADD PUSH1 0x0 SWAP1 SSTORE PUSH1 0x1 DUP3 ADD PUSH1 0x0 PUSH2 0xABD SWAP2 SWAP1 PUSH2 0x18F2 JUMP JUMPDEST PUSH1 0x2 DUP3 ADD PUSH1 0x0 PUSH2 0xACD SWAP2 SWAP1 PUSH2 0x18F2 JUMP JUMPDEST PUSH1 0x3 DUP3 ADD PUSH1 0x0 SWAP1 SSTORE PUSH1 0x4 DUP3 ADD PUSH1 0x0 PUSH2 0x100 EXP DUP2 SLOAD SWAP1 PUSH1 0xFF MUL NOT AND SWAP1 SSTORE PUSH1 0x4 DUP3 ADD PUSH1 0x1 PUSH2 0x100 EXP DUP2 SLOAD SWAP1 PUSH20 0xFFFFFFFFFFFFFFFFFFFFFFFFFFFFFFFFFFFFFFFF MUL NOT AND SWAP1 SSTORE POP POP SWAP1 SSTORE POP PUSH2 0xB5A JUMP JUMPDEST DUP1 DUP1 PUSH1 0x1 ADD SWAP2 POP POP PUSH2 0x8C1 JUMP JUMPDEST POP PUSH1 0x40 MLOAD PUSH32 0xACA0832A00000000000000000000000000000000000000000000000000000000 DUP2 MSTORE PUSH1 0x4 ADD PUSH1 0x40 MLOAD DUP1 SWAP2 SUB SWAP1 REVERT JUMPDEST POP JUMP JUMPDEST PUSH1 0x0 PUSH20 0xFFFFFFFFFFFFFFFFFFFFFFFFFFFFFFFFFFFFFFFF AND PUSH1 0x2 PUSH1 0x0 DUP5 PUSH20 0xFFFFFFFFFFFFFFFFFFFFFFFFFFFFFFFFFFFFFFFF AND PUSH20 0xFFFFFFFFFFFFFFFFFFFFFFFFFFFFFFFFFFFFFFFF AND DUP2 MSTORE PUSH1 0x20 ADD SWAP1 DUP2 MSTORE PUSH1 0x20 ADD PUSH1 0x0 KECCAK256 PUSH1 0x4 ADD PUSH1 0x1 SWAP1 SLOAD SWAP1 PUSH2 0x100 EXP SWAP1 DIV PUSH20 0xFFFFFFFFFFFFFFFFFFFFFFFFFFFFFFFFFFFFFFFF AND PUSH20 0xFFFFFFFFFFFFFFFFFFFFFFFFFFFFFFFFFFFFFFFF AND SUB PUSH2 0xC2E JUMPI PUSH1 0x40 MLOAD PUSH32 0x8C379A000000000000000000000000000000000000000000000000000000000 DUP2 MSTORE PUSH1 0x4 ADD PUSH2 0xC25 SWAP1 PUSH2 0x22D5 JUMP JUMPDEST PUSH1 0x40 MLOAD DUP1 SWAP2 SUB SWAP1 REVERT JUMPDEST PUSH1 0x0 JUMPDEST PUSH1 0x1 DUP1 SLOAD SWAP1 POP DUP2 LT ISZERO PUSH2 0xD16 JUMPI DUP3 PUSH20 0xFFFFFFFFFFFFFFFFFFFFFFFFFFFFFFFFFFFFFFFF AND PUSH1 0x1 DUP3 DUP2 SLOAD DUP2 LT PUSH2 0xC69 JUMPI PUSH2 0xC68 PUSH2 0x225A JUMP JUMPDEST JUMPDEST SWAP1 PUSH1 0x0 MSTORE PUSH1 0x20 PUSH1 0x0 KECCAK256 SWAP1 PUSH1 0x5 MUL ADD PUSH1 0x4 ADD PUSH1 0x1 SWAP1 SLOAD SWAP1 PUSH2 0x100 EXP SWAP1 DIV PUSH20 0xFFFFFFFFFFFFFFFFFFFFFFFFFFFFFFFFFFFFFFFF AND PUSH20 0xFFFFFFFFFFFFFFFFFFFFFFFFFFFFFFFFFFFFFFFF AND SUB PUSH2 0xD09 JUMPI DUP2 PUSH1 0x1 DUP3 DUP2 SLOAD DUP2 LT PUSH2 0xCCB JUMPI PUSH2 0xCCA PUSH2 0x225A JUMP JUMPDEST JUMPDEST SWAP1 PUSH1 0x0 MSTORE PUSH1 0x20 PUSH1 0x0 KECCAK256 SWAP1 PUSH1 0x5 MUL ADD PUSH1 0x4 ADD PUSH1 0x0 PUSH2 0x100 EXP DUP2 SLOAD DUP2 PUSH1 0xFF MUL NOT AND SWAP1 DUP4 PUSH1 0x2 DUP2 GT ISZERO PUSH2 0xCFE JUMPI PUSH2 0xCFD PUSH2 0x1AC3 JUMP JUMPDEST JUMPDEST MUL OR SWAP1 SSTORE POP POP PUSH2 0xD49 JUMP JUMPDEST DUP1 DUP1 PUSH1 0x1 ADD SWAP2 POP POP PUSH2 0xC31 JUMP JUMPDEST POP PUSH1 0x40 MLOAD PUSH32 0x5963709B00000000000000000000000000000000000000000000000000000000 DUP2 MSTORE PUSH1 0x4 ADD PUSH1 0x40 MLOAD DUP1 SWAP2 SUB SWAP1 REVERT JUMPDEST POP POP JUMP JUMPDEST PUSH2 0xD55 PUSH2 0x1932 JUMP JUMPDEST PUSH1 0x0 JUMPDEST PUSH1 0x1 DUP1 SLOAD SWAP1 POP DUP2 LT ISZERO PUSH2 0xF9C JUMPI DUP3 PUSH1 0x1 DUP3 DUP2 SLOAD DUP2 LT PUSH2 0xD7A JUMPI PUSH2 0xD79 PUSH2 0x225A JUMP JUMPDEST JUMPDEST SWAP1 PUSH1 0x0 MSTORE PUSH1 0x20 PUSH1 0x0 KECCAK256 SWAP1 PUSH1 0x5 MUL ADD PUSH1 0x0 ADD SLOAD SUB PUSH2 0xF8F JUMPI PUSH1 0x1 DUP2 DUP2 SLOAD DUP2 LT PUSH2 0xDA5 JUMPI PUSH2 0xDA4 PUSH2 0x225A JUMP JUMPDEST JUMPDEST SWAP1 PUSH1 0x0 MSTORE PUSH1 0x20 PUSH1 0x0 KECCAK256 SWAP1 PUSH1 0x5 MUL ADD PUSH1 0x40 MLOAD DUP1 PUSH1 0xC0 ADD PUSH1 0x40 MSTORE SWAP1 DUP2 PUSH1 0x0 DUP3 ADD SLOAD DUP2 MSTORE PUSH1 0x20 ADD PUSH1 0x1 DUP3 ADD DUP1 SLOAD PUSH2 0xDD8 SWAP1 PUSH2 0x21BD JUMP JUMPDEST DUP1 PUSH1 0x1F ADD PUSH1 0x20 DUP1 SWAP2 DIV MUL PUSH1 0x20 ADD PUSH1 0x40 MLOAD SWAP1 DUP2 ADD PUSH1 0x40 MSTORE DUP1 SWAP3 SWAP2 SWAP1 DUP2 DUP2 MSTORE PUSH1 0x20 ADD DUP3 DUP1 SLOAD PUSH2 0xE04 SWAP1 PUSH2 0x21BD JUMP JUMPDEST DUP1 ISZERO PUSH2 0xE51 JUMPI DUP1 PUSH1 0x1F LT PUSH2 0xE26 JUMPI PUSH2 0x100 DUP1 DUP4 SLOAD DIV MUL DUP4 MSTORE SWAP2 PUSH1 0x20 ADD SWAP2 PUSH2 0xE51 JUMP JUMPDEST DUP3 ADD SWAP2 SWAP1 PUSH1 0x0 MSTORE PUSH1 0x20 PUSH1 0x0 KECCAK256 SWAP1 JUMPDEST DUP2 SLOAD DUP2 MSTORE SWAP1 PUSH1 0x1 ADD SWAP1 PUSH1 0x20 ADD DUP1 DUP4 GT PUSH2 0xE34 JUMPI DUP3 SWAP1 SUB PUSH1 0x1F AND DUP3 ADD SWAP2 JUMPDEST POP POP POP POP POP DUP2 MSTORE PUSH1 0x20 ADD PUSH1 0x2 DUP3 ADD DUP1 SLOAD PUSH2 0xE6A SWAP1 PUSH2 0x21BD JUMP JUMPDEST DUP1 PUSH1 0x1F ADD PUSH1 0x20 DUP1 SWAP2 DIV MUL PUSH1 0x20 ADD PUSH1 0x40 MLOAD SWAP1 DUP2 ADD PUSH1 0x40 MSTORE DUP1 SWAP3 SWAP2 SWAP1 DUP2 DUP2 MSTORE PUSH1 0x20 ADD DUP3 DUP1 SLOAD PUSH2 0xE96 SWAP1 PUSH2 0x21BD JUMP JUMPDEST DUP1 ISZERO PUSH2 0xEE3 JUMPI DUP1 PUSH1 0x1F LT PUSH2 0xEB8 JUMPI PUSH2 0x100 DUP1 DUP4 SLOAD DIV MUL DUP4 MSTORE SWAP2 PUSH1 0x20 ADD SWAP2 PUSH2 0xEE3 JUMP JUMPDEST DUP3 ADD SWAP2 SWAP1 PUSH1 0x0 MSTORE PUSH1 0x20 PUSH1 0x0 KECCAK256 SWAP1 JUMPDEST DUP2 SLOAD DUP2 MSTORE SWAP1 PUSH1 0x1 ADD SWAP1 PUSH1 0x20 ADD DUP1 DUP4 GT PUSH2 0xEC6 JUMPI DUP3 SWAP1 SUB PUSH1 0x1F AND DUP3 ADD SWAP2 JUMPDEST POP POP POP POP POP DUP2 MSTORE PUSH1 0x20 ADD PUSH1 0x3 DUP3 ADD SLOAD DUP2 MSTORE PUSH1 0x20 ADD PUSH1 0x4 DUP3 ADD PUSH1 0x0 SWAP1 SLOAD SWAP1 PUSH2 0x100 EXP SWAP1 DIV PUSH1 0xFF AND PUSH1 0x2 DUP2 GT ISZERO PUSH2 0xF1B JUMPI PUSH2 0xF1A PUSH2 0x1AC3 JUMP JUMPDEST JUMPDEST PUSH1 0x2 DUP2 GT ISZERO PUSH2 0xF2D JUMPI PUSH2 0xF2C PUSH2 0x1AC3 JUMP JUMPDEST JUMPDEST DUP2 MSTORE PUSH1 0x20 ADD PUSH1 0x4 DUP3 ADD PUSH1 0x1 SWAP1 SLOAD SWAP1 PUSH2 0x100 EXP SWAP1 DIV PUSH20 0xFFFFFFFFFFFFFFFFFFFFFFFFFFFFFFFFFFFFFFFF AND PUSH20 0xFFFFFFFFFFFFFFFFFFFFFFFFFFFFFFFFFFFFFFFF AND PUSH20 0xFFFFFFFFFFFFFFFFFFFFFFFFFFFFFFFFFFFFFFFF AND DUP2 MSTORE POP POP SWAP2 POP POP PUSH2 0xFCF JUMP JUMPDEST DUP1 DUP1 PUSH1 0x1 ADD SWAP2 POP POP PUSH2 0xD58 JUMP JUMPDEST POP PUSH1 0x40 MLOAD PUSH32 0xACA0832A00000000000000000000000000000000000000000000000000000000 DUP2 MSTORE PUSH1 0x4 ADD PUSH1 0x40 MLOAD DUP1 SWAP2 SUB SWAP1 REVERT JUMPDEST SWAP2 SWAP1 POP JUMP JUMPDEST PUSH1 0x0 JUMPDEST PUSH1 0x1 DUP1 SLOAD SWAP1 POP DUP2 LT ISZERO PUSH2 0x11F1 JUMPI DUP2 PUSH1 0x1 DUP3 DUP2 SLOAD DUP2 LT PUSH2 0xFF9 JUMPI PUSH2 0xFF8 PUSH2 0x225A JUMP JUMPDEST JUMPDEST SWAP1 PUSH1 0x0 MSTORE PUSH1 0x20 PUSH1 0x0 KECCAK256 SWAP1 PUSH1 0x5 MUL ADD PUSH1 0x0 ADD SLOAD SUB PUSH2 0x11E4 JUMPI PUSH1 0x1 DUP1 DUP1 DUP1 SLOAD SWAP1 POP PUSH2 0x1022 SWAP2 SWAP1 PUSH2 0x25A2 JUMP JUMPDEST DUP2 SLOAD DUP2 LT PUSH2 0x1033 JUMPI PUSH2 0x1032 PUSH2 0x225A JUMP JUMPDEST JUMPDEST SWAP1 PUSH1 0x0 MSTORE PUSH1 0x20 PUSH1 0x0 KECCAK256 SWAP1 PUSH1 0x5 MUL ADD PUSH1 0x1 DUP3 DUP2 SLOAD DUP2 LT PUSH2 0x1055 JUMPI PUSH2 0x1054 PUSH2 0x225A JUMP JUMPDEST JUMPDEST SWAP1 PUSH1 0x0 MSTORE PUSH1 0x20 PUSH1 0x0 KECCAK256 SWAP1 PUSH1 0x5 MUL ADD PUSH1 0x0 DUP3 ADD SLOAD DUP2 PUSH1 0x0 ADD SSTORE PUSH1 0x1 DUP3 ADD DUP2 PUSH1 0x1 ADD SWAP1 DUP2 PUSH2 0x1081 SWAP2 SWAP1 PUSH2 0x25EC JUMP JUMPDEST POP PUSH1 0x2 DUP3 ADD DUP2 PUSH1 0x2 ADD SWAP1 DUP2 PUSH2 0x1096 SWAP2 SWAP1 PUSH2 0x25EC JUMP JUMPDEST POP PUSH1 0x3 DUP3 ADD SLOAD DUP2 PUSH1 0x3 ADD SSTORE PUSH1 0x4 DUP3 ADD PUSH1 0x0 SWAP1 SLOAD SWAP1 PUSH2 0x100 EXP SWAP1 DIV PUSH1 0xFF AND DUP2 PUSH1 0x4 ADD PUSH1 0x0 PUSH2 0x100 EXP DUP2 SLOAD DUP2 PUSH1 0xFF MUL NOT AND SWAP1 DUP4 PUSH1 0x2 DUP2 GT ISZERO PUSH2 0x10D9 JUMPI PUSH2 0x10D8 PUSH2 0x1AC3 JUMP JUMPDEST JUMPDEST MUL OR SWAP1 SSTORE POP PUSH1 0x4 DUP3 ADD PUSH1 0x1 SWAP1 SLOAD SWAP1 PUSH2 0x100 EXP SWAP1 DIV PUSH20 0xFFFFFFFFFFFFFFFFFFFFFFFFFFFFFFFFFFFFFFFF AND DUP2 PUSH1 0x4 ADD PUSH1 0x1 PUSH2 0x100 EXP DUP2 SLOAD DUP2 PUSH20 0xFFFFFFFFFFFFFFFFFFFFFFFFFFFFFFFFFFFFFFFF MUL NOT AND SWAP1 DUP4 PUSH20 0xFFFFFFFFFFFFFFFFFFFFFFFFFFFFFFFFFFFFFFFF AND MUL OR SWAP1 SSTORE POP SWAP1 POP POP PUSH1 0x1 DUP1 SLOAD DUP1 PUSH2 0x115A JUMPI PUSH2 0x1159 PUSH2 0x26D4 JUMP JUMPDEST JUMPDEST PUSH1 0x1 SWAP1 SUB DUP2 DUP2 SWAP1 PUSH1 0x0 MSTORE PUSH1 0x20 PUSH1 0x0 KECCAK256 SWAP1 PUSH1 0x5 MUL ADD PUSH1 0x0 DUP1 DUP3 ADD PUSH1 0x0 SWAP1 SSTORE PUSH1 0x1 DUP3 ADD PUSH1 0x0 PUSH2 0x1187 SWAP2 SWAP1 PUSH2 0x18F2 JUMP JUMPDEST PUSH1 0x2 DUP3 ADD PUSH1 0x0 PUSH2 0x1197 SWAP2 SWAP1 PUSH2 0x18F2 JUMP JUMPDEST PUSH1 0x3 DUP3 ADD PUSH1 0x0 SWAP1 SSTORE PUSH1 0x4 DUP3 ADD PUSH1 0x0 PUSH2 0x100 EXP DUP2 SLOAD SWAP1 PUSH1 0xFF MUL NOT AND SWAP1 SSTORE PUSH1 0x4 DUP3 ADD PUSH1 0x1 PUSH2 0x100 EXP DUP2 SLOAD SWAP1 PUSH20 0xFFFFFFFFFFFFFFFFFFFFFFFFFFFFFFFFFFFFFFFF MUL NOT AND SWAP1 SSTORE POP POP SWAP1 SSTORE POP PUSH2 0x1224 JUMP JUMPDEST DUP1 DUP1 PUSH1 0x1 ADD SWAP2 POP POP PUSH2 0xFD7 JUMP JUMPDEST POP PUSH1 0x40 MLOAD PUSH32 0xACA0832A00000000000000000000000000000000000000000000000000000000 DUP2 MSTORE PUSH1 0x4 ADD PUSH1 0x40 MLOAD DUP1 SWAP2 SUB SWAP1 REVERT JUMPDEST POP JUMP JUMPDEST PUSH2 0x122F PUSH2 0x1932 JUMP JUMPDEST PUSH1 0x0 PUSH20 0xFFFFFFFFFFFFFFFFFFFFFFFFFFFFFFFFFFFFFFFF AND PUSH1 0x2 PUSH1 0x0 DUP5 PUSH20 0xFFFFFFFFFFFFFFFFFFFFFFFFFFFFFFFFFFFFFFFF AND PUSH20 0xFFFFFFFFFFFFFFFFFFFFFFFFFFFFFFFFFFFFFFFF AND DUP2 MSTORE PUSH1 0x20 ADD SWAP1 DUP2 MSTORE PUSH1 0x20 ADD PUSH1 0x0 KECCAK256 PUSH1 0x4 ADD PUSH1 0x1 SWAP1 SLOAD SWAP1 PUSH2 0x100 EXP SWAP1 DIV PUSH20 0xFFFFFFFFFFFFFFFFFFFFFFFFFFFFFFFFFFFFFFFF AND PUSH20 0xFFFFFFFFFFFFFFFFFFFFFFFFFFFFFFFFFFFFFFFF AND SUB PUSH2 0x1300 JUMPI PUSH1 0x40 MLOAD PUSH32 0x8C379A000000000000000000000000000000000000000000000000000000000 DUP2 MSTORE PUSH1 0x4 ADD PUSH2 0x12F7 SWAP1 PUSH2 0x22D5 JUMP JUMPDEST PUSH1 0x40 MLOAD DUP1 SWAP2 SUB SWAP1 REVERT JUMPDEST PUSH1 0x0 JUMPDEST PUSH1 0x1 DUP1 SLOAD SWAP1 POP DUP2 LT ISZERO PUSH2 0x1593 JUMPI DUP3 PUSH20 0xFFFFFFFFFFFFFFFFFFFFFFFFFFFFFFFFFFFFFFFF AND PUSH1 0x1 DUP3 DUP2 SLOAD DUP2 LT PUSH2 0x133B JUMPI PUSH2 0x133A PUSH2 0x225A JUMP JUMPDEST JUMPDEST SWAP1 PUSH1 0x0 MSTORE PUSH1 0x20 PUSH1 0x0 KECCAK256 SWAP1 PUSH1 0x5 MUL ADD PUSH1 0x4 ADD PUSH1 0x1 SWAP1 SLOAD SWAP1 PUSH2 0x100 EXP SWAP1 DIV PUSH20 0xFFFFFFFFFFFFFFFFFFFFFFFFFFFFFFFFFFFFFFFF AND PUSH20 0xFFFFFFFFFFFFFFFFFFFFFFFFFFFFFFFFFFFFFFFF AND SUB PUSH2 0x1586 JUMPI PUSH1 0x1 DUP2 DUP2 SLOAD DUP2 LT PUSH2 0x139C JUMPI PUSH2 0x139B PUSH2 0x225A JUMP JUMPDEST JUMPDEST SWAP1 PUSH1 0x0 MSTORE PUSH1 0x20 PUSH1 0x0 KECCAK256 SWAP1 PUSH1 0x5 MUL ADD PUSH1 0x40 MLOAD DUP1 PUSH1 0xC0 ADD PUSH1 0x40 MSTORE SWAP1 DUP2 PUSH1 0x0 DUP3 ADD SLOAD DUP2 MSTORE PUSH1 0x20 ADD PUSH1 0x1 DUP3 ADD DUP1 SLOAD PUSH2 0x13CF SWAP1 PUSH2 0x21BD JUMP JUMPDEST DUP1 PUSH1 0x1F ADD PUSH1 0x20 DUP1 SWAP2 DIV MUL PUSH1 0x20 ADD PUSH1 0x40 MLOAD SWAP1 DUP2 ADD PUSH1 0x40 MSTORE DUP1 SWAP3 SWAP2 SWAP1 DUP2 DUP2 MSTORE PUSH1 0x20 ADD DUP3 DUP1 SLOAD PUSH2 0x13FB SWAP1 PUSH2 0x21BD JUMP JUMPDEST DUP1 ISZERO PUSH2 0x1448 JUMPI DUP1 PUSH1 0x1F LT PUSH2 0x141D JUMPI PUSH2 0x100 DUP1 DUP4 SLOAD DIV MUL DUP4 MSTORE SWAP2 PUSH1 0x20 ADD SWAP2 PUSH2 0x1448 JUMP JUMPDEST DUP3 ADD SWAP2 SWAP1 PUSH1 0x0 MSTORE PUSH1 0x20 PUSH1 0x0 KECCAK256 SWAP1 JUMPDEST DUP2 SLOAD DUP2 MSTORE SWAP1 PUSH1 0x1 ADD SWAP1 PUSH1 0x20 ADD DUP1 DUP4 GT PUSH2 0x142B JUMPI DUP3 SWAP1 SUB PUSH1 0x1F AND DUP3 ADD SWAP2 JUMPDEST POP POP POP POP POP DUP2 MSTORE PUSH1 0x20 ADD PUSH1 0x2 DUP3 ADD DUP1 SLOAD PUSH2 0x1461 SWAP1 PUSH2 0x21BD JUMP JUMPDEST DUP1 PUSH1 0x1F ADD PUSH1 0x20 DUP1 SWAP2 DIV MUL PUSH1 0x20 ADD PUSH1 0x40 MLOAD SWAP1 DUP2 ADD PUSH1 0x40 MSTORE DUP1 SWAP3 SWAP2 SWAP1 DUP2 DUP2 MSTORE PUSH1 0x20 ADD DUP3 DUP1 SLOAD PUSH2 0x148D SWAP1 PUSH2 0x21BD JUMP JUMPDEST DUP1 ISZERO PUSH2 0x14DA JUMPI DUP1 PUSH1 0x1F LT PUSH2 0x14AF JUMPI PUSH2 0x100 DUP1 DUP4 SLOAD DIV MUL DUP4 MSTORE SWAP2 PUSH1 0x20 ADD SWAP2 PUSH2 0x14DA JUMP JUMPDEST DUP3 ADD SWAP2 SWAP1 PUSH1 0x0 MSTORE PUSH1 0x20 PUSH1 0x0 KECCAK256 SWAP1 JUMPDEST DUP2 SLOAD DUP2 MSTORE SWAP1 PUSH1 0x1 ADD SWAP1 PUSH1 0x20 ADD DUP1 DUP4 GT PUSH2 0x14BD JUMPI DUP3 SWAP1 SUB PUSH1 0x1F AND DUP3 ADD SWAP2 JUMPDEST POP POP POP POP POP DUP2 MSTORE PUSH1 0x20 ADD PUSH1 0x3 DUP3 ADD SLOAD DUP2 MSTORE PUSH1 0x20 ADD PUSH1 0x4 DUP3 ADD PUSH1 0x0 SWAP1 SLOAD SWAP1 PUSH2 0x100 EXP SWAP1 DIV PUSH1 0xFF AND PUSH1 0x2 DUP2 GT ISZERO PUSH2 0x1512 JUMPI PUSH2 0x1511 PUSH2 0x1AC3 JUMP JUMPDEST JUMPDEST PUSH1 0x2 DUP2 GT ISZERO PUSH2 0x1524 JUMPI PUSH2 0x1523 PUSH2 0x1AC3 JUMP JUMPDEST JUMPDEST DUP2 MSTORE PUSH1 0x20 ADD PUSH1 0x4 DUP3 ADD PUSH1 0x1 SWAP1 SLOAD SWAP1 PUSH2 0x100 EXP SWAP1 DIV PUSH20 0xFFFFFFFFFFFFFFFFFFFFFFFFFFFFFFFFFFFFFFFF AND PUSH20 0xFFFFFFFFFFFFFFFFFFFFFFFFFFFFFFFFFFFFFFFF AND PUSH20 0xFFFFFFFFFFFFFFFFFFFFFFFFFFFFFFFFFFFFFFFF AND DUP2 MSTORE POP POP SWAP2 POP POP PUSH2 0x15C6 JUMP JUMPDEST DUP1 DUP1 PUSH1 0x1 ADD SWAP2 POP POP PUSH2 0x1303 JUMP JUMPDEST POP PUSH1 0x40 MLOAD PUSH32 0xACA0832A00000000000000000000000000000000000000000000000000000000 DUP2 MSTORE PUSH1 0x4 ADD PUSH1 0x40 MLOAD DUP1 SWAP2 SUB SWAP1 REVERT JUMPDEST SWAP2 SWAP1 POP JUMP JUMPDEST PUSH1 0x0 PUSH20 0xFFFFFFFFFFFFFFFFFFFFFFFFFFFFFFFFFFFFFFFF AND PUSH1 0x2 PUSH1 0x0 CALLER PUSH20 0xFFFFFFFFFFFFFFFFFFFFFFFFFFFFFFFFFFFFFFFF AND PUSH20 0xFFFFFFFFFFFFFFFFFFFFFFFFFFFFFFFFFFFFFFFF AND DUP2 MSTORE PUSH1 0x20 ADD SWAP1 DUP2 MSTORE PUSH1 0x20 ADD PUSH1 0x0 KECCAK256 PUSH1 0x4 ADD PUSH1 0x1 SWAP1 SLOAD SWAP1 PUSH2 0x100 EXP SWAP1 DIV PUSH20 0xFFFFFFFFFFFFFFFFFFFFFFFFFFFFFFFFFFFFFFFF AND PUSH20 0xFFFFFFFFFFFFFFFFFFFFFFFFFFFFFFFFFFFFFFFF AND EQ PUSH2 0x169C JUMPI PUSH1 0x40 MLOAD PUSH32 0x8C379A000000000000000000000000000000000000000000000000000000000 DUP2 MSTORE PUSH1 0x4 ADD PUSH2 0x1693 SWAP1 PUSH2 0x274F JUMP JUMPDEST PUSH1 0x40 MLOAD DUP1 SWAP2 SUB SWAP1 REVERT JUMPDEST PUSH1 0x1 PUSH1 0x0 SLOAD PUSH2 0x16AB SWAP2 SWAP1 PUSH2 0x276F JUMP JUMPDEST PUSH1 0x0 DUP2 SWAP1 SSTORE POP PUSH1 0x0 PUSH1 0x40 MLOAD DUP1 PUSH1 0xC0 ADD PUSH1 0x40 MSTORE DUP1 PUSH1 0x0 SLOAD DUP2 MSTORE PUSH1 0x20 ADD DUP6 DUP2 MSTORE PUSH1 0x20 ADD DUP5 DUP2 MSTORE PUSH1 0x20 ADD DUP4 DUP2 MSTORE PUSH1 0x20 ADD PUSH1 0x0 PUSH1 0x2 DUP2 GT ISZERO PUSH2 0x16EC JUMPI PUSH2 0x16EB PUSH2 0x1AC3 JUMP JUMPDEST JUMPDEST DUP2 MSTORE PUSH1 0x20 ADD CALLER PUSH20 0xFFFFFFFFFFFFFFFFFFFFFFFFFFFFFFFFFFFFFFFF AND DUP2 MSTORE POP SWAP1 POP PUSH1 0x1 DUP2 SWAP1 DUP1 PUSH1 0x1 DUP2 SLOAD ADD DUP1 DUP3 SSTORE DUP1 SWAP2 POP POP PUSH1 0x1 SWAP1 SUB SWAP1 PUSH1 0x0 MSTORE PUSH1 0x20 PUSH1 0x0 KECCAK256 SWAP1 PUSH1 0x5 MUL ADD PUSH1 0x0 SWAP1 SWAP2 SWAP1 SWAP2 SWAP1 SWAP2 POP PUSH1 0x0 DUP3 ADD MLOAD DUP2 PUSH1 0x0 ADD SSTORE PUSH1 0x20 DUP3 ADD MLOAD DUP2 PUSH1 0x1 ADD SWAP1 DUP2 PUSH2 0x1758 SWAP2 SWAP1 PUSH2 0x24A1 JUMP JUMPDEST POP PUSH1 0x40 DUP3 ADD MLOAD DUP2 PUSH1 0x2 ADD SWAP1 DUP2 PUSH2 0x176E SWAP2 SWAP1 PUSH2 0x24A1 JUMP JUMPDEST POP PUSH1 0x60 DUP3 ADD MLOAD DUP2 PUSH1 0x3 ADD SSTORE PUSH1 0x80 DUP3 ADD MLOAD DUP2 PUSH1 0x4 ADD PUSH1 0x0 PUSH2 0x100 EXP DUP2 SLOAD DUP2 PUSH1 0xFF MUL NOT AND SWAP1 DUP4 PUSH1 0x2 DUP2 GT ISZERO PUSH2 0x17A4 JUMPI PUSH2 0x17A3 PUSH2 0x1AC3 JUMP JUMPDEST JUMPDEST MUL OR SWAP1 SSTORE POP PUSH1 0xA0 DUP3 ADD MLOAD DUP2 PUSH1 0x4 ADD PUSH1 0x1 PUSH2 0x100 EXP DUP2 SLOAD DUP2 PUSH20 0xFFFFFFFFFFFFFFFFFFFFFFFFFFFFFFFFFFFFFFFF MUL NOT AND SWAP1 DUP4 PUSH20 0xFFFFFFFFFFFFFFFFFFFFFFFFFFFFFFFFFFFFFFFF AND MUL OR SWAP1 SSTORE POP POP POP DUP1 PUSH1 0x2 PUSH1 0x0 CALLER PUSH20 0xFFFFFFFFFFFFFFFFFFFFFFFFFFFFFFFFFFFFFFFF AND PUSH20 0xFFFFFFFFFFFFFFFFFFFFFFFFFFFFFFFFFFFFFFFF AND DUP2 MSTORE PUSH1 0x20 ADD SWAP1 DUP2 MSTORE PUSH1 0x20 ADD PUSH1 0x0 KECCAK256 PUSH1 0x0 DUP3 ADD MLOAD DUP2 PUSH1 0x0 ADD SSTORE PUSH1 0x20 DUP3 ADD MLOAD DUP2 PUSH1 0x1 ADD SWAP1 DUP2 PUSH2 0x1851 SWAP2 SWAP1 PUSH2 0x24A1 JUMP JUMPDEST POP PUSH1 0x40 DUP3 ADD MLOAD DUP2 PUSH1 0x2 ADD SWAP1 DUP2 PUSH2 0x1867 SWAP2 SWAP1 PUSH2 0x24A1 JUMP JUMPDEST POP PUSH1 0x60 DUP3 ADD MLOAD DUP2 PUSH1 0x3 ADD SSTORE PUSH1 0x80 DUP3 ADD MLOAD DUP2 PUSH1 0x4 ADD PUSH1 0x0 PUSH2 0x100 EXP DUP2 SLOAD DUP2 PUSH1 0xFF MUL NOT AND SWAP1 DUP4 PUSH1 0x2 DUP2 GT ISZERO PUSH2 0x189D JUMPI PUSH2 0x189C PUSH2 0x1AC3 JUMP JUMPDEST JUMPDEST MUL OR SWAP1 SSTORE POP PUSH1 0xA0 DUP3 ADD MLOAD DUP2 PUSH1 0x4 ADD PUSH1 0x1 PUSH2 0x100 EXP DUP2 SLOAD DUP2 PUSH20 0xFFFFFFFFFFFFFFFFFFFFFFFFFFFFFFFFFFFFFFFF MUL NOT AND SWAP1 DUP4 PUSH20 0xFFFFFFFFFFFFFFFFFFFFFFFFFFFFFFFFFFFFFFFF AND MUL OR SWAP1 SSTORE POP SWAP1 POP POP POP POP POP POP JUMP JUMPDEST POP DUP1 SLOAD PUSH2 0x18FE SWAP1 PUSH2 0x21BD JUMP JUMPDEST PUSH1 0x0 DUP3 SSTORE DUP1 PUSH1 0x1F LT PUSH2 0x1910 JUMPI POP PUSH2 0x192F JUMP JUMPDEST PUSH1 0x1F ADD PUSH1 0x20 SWAP1 DIV SWAP1 PUSH1 0x0 MSTORE PUSH1 0x20 PUSH1 0x0 KECCAK256 SWAP1 DUP2 ADD SWAP1 PUSH2 0x192E SWAP2 SWAP1 PUSH2 0x1990 JUMP JUMPDEST JUMPDEST POP JUMP JUMPDEST PUSH1 0x40 MLOAD DUP1 PUSH1 0xC0 ADD PUSH1 0x40 MSTORE DUP1 PUSH1 0x0 DUP2 MSTORE PUSH1 0x20 ADD PUSH1 0x60 DUP2 MSTORE PUSH1 0x20 ADD PUSH1 0x60 DUP2 MSTORE PUSH1 0x20 ADD PUSH1 0x0 DUP2 MSTORE PUSH1 0x20 ADD PUSH1 0x0 PUSH1 0x2 DUP2 GT ISZERO PUSH2 0x196D JUMPI PUSH2 0x196C PUSH2 0x1AC3 JUMP JUMPDEST JUMPDEST DUP2 MSTORE PUSH1 0x20 ADD PUSH1 0x0 PUSH20 0xFFFFFFFFFFFFFFFFFFFFFFFFFFFFFFFFFFFFFFFF AND DUP2 MSTORE POP SWAP1 JUMP JUMPDEST JUMPDEST DUP1 DUP3 GT ISZERO PUSH2 0x19A9 JUMPI PUSH1 0x0 DUP2 PUSH1 0x0 SWAP1 SSTORE POP PUSH1 0x1 ADD PUSH2 0x1991 JUMP JUMPDEST POP SWAP1 JUMP JUMPDEST PUSH1 0x0 PUSH1 0x40 MLOAD SWAP1 POP SWAP1 JUMP JUMPDEST PUSH1 0x0 DUP1 REVERT JUMPDEST PUSH1 0x0 DUP1 REVERT JUMPDEST PUSH1 0x0 DUP2 SWAP1 POP SWAP2 SWAP1 POP JUMP JUMPDEST PUSH2 0x19D4 DUP2 PUSH2 0x19C1 JUMP JUMPDEST DUP2 EQ PUSH2 0x19DF JUMPI PUSH1 0x0 DUP1 REVERT JUMPDEST POP JUMP JUMPDEST PUSH1 0x0 DUP2 CALLDATALOAD SWAP1 POP PUSH2 0x19F1 DUP2 PUSH2 0x19CB JUMP JUMPDEST SWAP3 SWAP2 POP POP JUMP JUMPDEST PUSH1 0x0 PUSH1 0x20 DUP3 DUP5 SUB SLT ISZERO PUSH2 0x1A0D JUMPI PUSH2 0x1A0C PUSH2 0x19B7 JUMP JUMPDEST JUMPDEST PUSH1 0x0 PUSH2 0x1A1B DUP5 DUP3 DUP6 ADD PUSH2 0x19E2 JUMP JUMPDEST SWAP2 POP POP SWAP3 SWAP2 POP POP JUMP JUMPDEST PUSH2 0x1A2D DUP2 PUSH2 0x19C1 JUMP JUMPDEST DUP3 MSTORE POP POP JUMP JUMPDEST PUSH1 0x0 DUP2 MLOAD SWAP1 POP SWAP2 SWAP1 POP JUMP JUMPDEST PUSH1 0x0 DUP3 DUP3 MSTORE PUSH1 0x20 DUP3 ADD SWAP1 POP SWAP3 SWAP2 POP POP JUMP JUMPDEST PUSH1 0x0 JUMPDEST DUP4 DUP2 LT ISZERO PUSH2 0x1A6D JUMPI DUP1 DUP3 ADD MLOAD DUP2 DUP5 ADD MSTORE PUSH1 0x20 DUP2 ADD SWAP1 POP PUSH2 0x1A52 JUMP JUMPDEST PUSH1 0x0 DUP5 DUP5 ADD MSTORE POP POP POP POP JUMP JUMPDEST PUSH1 0x0 PUSH1 0x1F NOT PUSH1 0x1F DUP4 ADD AND SWAP1 POP SWAP2 SWAP1 POP JUMP JUMPDEST PUSH1 0x0 PUSH2 0x1A95 DUP3 PUSH2 0x1A33 JUMP JUMPDEST PUSH2 0x1A9F DUP2 DUP6 PUSH2 0x1A3E JUMP JUMPDEST SWAP4 POP PUSH2 0x1AAF DUP2 DUP6 PUSH1 0x20 DUP7 ADD PUSH2 0x1A4F JUMP JUMPDEST PUSH2 0x1AB8 DUP2 PUSH2 0x1A79 JUMP JUMPDEST DUP5 ADD SWAP2 POP POP SWAP3 SWAP2 POP POP JUMP JUMPDEST PUSH32 0x4E487B7100000000000000000000000000000000000000000000000000000000 PUSH1 0x0 MSTORE PUSH1 0x21 PUSH1 0x4 MSTORE PUSH1 0x24 PUSH1 0x0 REVERT JUMPDEST PUSH1 0x3 DUP2 LT PUSH2 0x1B03 JUMPI PUSH2 0x1B02 PUSH2 0x1AC3 JUMP JUMPDEST JUMPDEST POP JUMP JUMPDEST PUSH1 0x0 DUP2 SWAP1 POP PUSH2 0x1B14 DUP3 PUSH2 0x1AF2 JUMP JUMPDEST SWAP2 SWAP1 POP JUMP JUMPDEST PUSH1 0x0 PUSH2 0x1B24 DUP3 PUSH2 0x1B06 JUMP JUMPDEST SWAP1 POP SWAP2 SWAP1 POP JUMP JUMPDEST PUSH2 0x1B34 DUP2 PUSH2 0x1B19 JUMP JUMPDEST DUP3 MSTORE POP POP JUMP JUMPDEST PUSH1 0x0 PUSH20 0xFFFFFFFFFFFFFFFFFFFFFFFFFFFFFFFFFFFFFFFF DUP3 AND SWAP1 POP SWAP2 SWAP1 POP JUMP JUMPDEST PUSH1 0x0 PUSH2 0x1B65 DUP3 PUSH2 0x1B3A JUMP JUMPDEST SWAP1 POP SWAP2 SWAP1 POP JUMP JUMPDEST PUSH2 0x1B75 DUP2 PUSH2 0x1B5A JUMP JUMPDEST DUP3 MSTORE POP POP JUMP JUMPDEST PUSH1 0x0 PUSH1 0xC0 DUP3 ADD SWAP1 POP PUSH2 0x1B90 PUSH1 0x0 DUP4 ADD DUP10 PUSH2 0x1A24 JUMP JUMPDEST DUP2 DUP2 SUB PUSH1 0x20 DUP4 ADD MSTORE PUSH2 0x1BA2 DUP2 DUP9 PUSH2 0x1A8A JUMP JUMPDEST SWAP1 POP DUP2 DUP2 SUB PUSH1 0x40 DUP4 ADD MSTORE PUSH2 0x1BB6 DUP2 DUP8 PUSH2 0x1A8A JUMP JUMPDEST SWAP1 POP PUSH2 0x1BC5 PUSH1 0x60 DUP4 ADD DUP7 PUSH2 0x1A24 JUMP JUMPDEST PUSH2 0x1BD2 PUSH1 0x80 DUP4 ADD DUP6 PUSH2 0x1B2B JUMP JUMPDEST PUSH2 0x1BDF PUSH1 0xA0 DUP4 ADD DUP5 PUSH2 0x1B6C JUMP JUMPDEST SWAP8 SWAP7 POP POP POP POP POP POP POP JUMP JUMPDEST PUSH1 0x3 DUP2 LT PUSH2 0x1BF7 JUMPI PUSH1 0x0 DUP1 REVERT JUMPDEST POP JUMP JUMPDEST PUSH1 0x0 DUP2 CALLDATALOAD SWAP1 POP PUSH2 0x1C09 DUP2 PUSH2 0x1BEA JUMP JUMPDEST SWAP3 SWAP2 POP POP JUMP JUMPDEST PUSH1 0x0 DUP1 PUSH1 0x40 DUP4 DUP6 SUB SLT ISZERO PUSH2 0x1C26 JUMPI PUSH2 0x1C25 PUSH2 0x19B7 JUMP JUMPDEST JUMPDEST PUSH1 0x0 PUSH2 0x1C34 DUP6 DUP3 DUP7 ADD PUSH2 0x19E2 JUMP JUMPDEST SWAP3 POP POP PUSH1 0x20 PUSH2 0x1C45 DUP6 DUP3 DUP7 ADD PUSH2 0x1BFA JUMP JUMPDEST SWAP2 POP POP SWAP3 POP SWAP3 SWAP1 POP JUMP JUMPDEST PUSH1 0x0 DUP1 REVERT JUMPDEST PUSH1 0x0 DUP1 REVERT JUMPDEST PUSH32 0x4E487B7100000000000000000000000000000000000000000000000000000000 PUSH1 0x0 MSTORE PUSH1 0x41 PUSH1 0x4 MSTORE PUSH1 0x24 PUSH1 0x0 REVERT JUMPDEST PUSH2 0x1C91 DUP3 PUSH2 0x1A79 JUMP JUMPDEST DUP2 ADD DUP2 DUP2 LT PUSH8 0xFFFFFFFFFFFFFFFF DUP3 GT OR ISZERO PUSH2 0x1CB0 JUMPI PUSH2 0x1CAF PUSH2 0x1C59 JUMP JUMPDEST JUMPDEST DUP1 PUSH1 0x40 MSTORE POP POP POP JUMP JUMPDEST PUSH1 0x0 PUSH2 0x1CC3 PUSH2 0x19AD JUMP JUMPDEST SWAP1 POP PUSH2 0x1CCF DUP3 DUP3 PUSH2 0x1C88 JUMP JUMPDEST SWAP2 SWAP1 POP JUMP JUMPDEST PUSH1 0x0 PUSH8 0xFFFFFFFFFFFFFFFF DUP3 GT ISZERO PUSH2 0x1CEF JUMPI PUSH2 0x1CEE PUSH2 0x1C59 JUMP JUMPDEST JUMPDEST PUSH2 0x1CF8 DUP3 PUSH2 0x1A79 JUMP JUMPDEST SWAP1 POP PUSH1 0x20 DUP2 ADD SWAP1 POP SWAP2 SWAP1 POP JUMP JUMPDEST DUP3 DUP2 DUP4 CALLDATACOPY PUSH1 0x0 DUP4 DUP4 ADD MSTORE POP POP POP JUMP JUMPDEST PUSH1 0x0 PUSH2 0x1D27 PUSH2 0x1D22 DUP5 PUSH2 0x1CD4 JUMP JUMPDEST PUSH2 0x1CB9 JUMP JUMPDEST SWAP1 POP DUP3 DUP2 MSTORE PUSH1 0x20 DUP2 ADD DUP5 DUP5 DUP5 ADD GT ISZERO PUSH2 0x1D43 JUMPI PUSH2 0x1D42 PUSH2 0x1C54 JUMP JUMPDEST JUMPDEST PUSH2 0x1D4E DUP5 DUP3 DUP6 PUSH2 0x1D05 JUMP JUMPDEST POP SWAP4 SWAP3 POP POP POP JUMP JUMPDEST PUSH1 0x0 DUP3 PUSH1 0x1F DUP4 ADD SLT PUSH2 0x1D6B JUMPI PUSH2 0x1D6A PUSH2 0x1C4F JUMP JUMPDEST JUMPDEST DUP2 CALLDATALOAD PUSH2 0x1D7B DUP5 DUP3 PUSH1 0x20 DUP7 ADD PUSH2 0x1D14 JUMP JUMPDEST SWAP2 POP POP SWAP3 SWAP2 POP POP JUMP JUMPDEST PUSH1 0x0 PUSH1 0x20 DUP3 DUP5 SUB SLT ISZERO PUSH2 0x1D9A JUMPI PUSH2 0x1D99 PUSH2 0x19B7 JUMP JUMPDEST JUMPDEST PUSH1 0x0 DUP3 ADD CALLDATALOAD PUSH8 0xFFFFFFFFFFFFFFFF DUP2 GT ISZERO PUSH2 0x1DB8 JUMPI PUSH2 0x1DB7 PUSH2 0x19BC JUMP JUMPDEST JUMPDEST PUSH2 0x1DC4 DUP5 DUP3 DUP6 ADD PUSH2 0x1D56 JUMP JUMPDEST SWAP2 POP POP SWAP3 SWAP2 POP POP JUMP JUMPDEST PUSH1 0x0 DUP2 MLOAD SWAP1 POP SWAP2 SWAP1 POP JUMP JUMPDEST PUSH1 0x0 DUP3 DUP3 MSTORE PUSH1 0x20 DUP3 ADD SWAP1 POP SWAP3 SWAP2 POP POP JUMP JUMPDEST PUSH1 0x0 DUP2 SWAP1 POP PUSH1 0x20 DUP3 ADD SWAP1 POP SWAP2 SWAP1 POP JUMP JUMPDEST PUSH2 0x1E02 DUP2 PUSH2 0x19C1 JUMP JUMPDEST DUP3 MSTORE POP POP JUMP JUMPDEST PUSH1 0x0 DUP3 DUP3 MSTORE PUSH1 0x20 DUP3 ADD SWAP1 POP SWAP3 SWAP2 POP POP JUMP JUMPDEST PUSH1 0x0 PUSH2 0x1E24 DUP3 PUSH2 0x1A33 JUMP JUMPDEST PUSH2 0x1E2E DUP2 DUP6 PUSH2 0x1E08 JUMP JUMPDEST SWAP4 POP PUSH2 0x1E3E DUP2 DUP6 PUSH1 0x20 DUP7 ADD PUSH2 0x1A4F JUMP JUMPDEST PUSH2 0x1E47 DUP2 PUSH2 0x1A79 JUMP JUMPDEST DUP5 ADD SWAP2 POP POP SWAP3 SWAP2 POP POP JUMP JUMPDEST PUSH2 0x1E5B DUP2 PUSH2 0x1B19 JUMP JUMPDEST DUP3 MSTORE POP POP JUMP JUMPDEST PUSH2 0x1E6A DUP2 PUSH2 0x1B5A JUMP JUMPDEST DUP3 MSTORE POP POP JUMP JUMPDEST PUSH1 0x0 PUSH1 0xC0 DUP4 ADD PUSH1 0x0 DUP4 ADD MLOAD PUSH2 0x1E88 PUSH1 0x0 DUP7 ADD DUP3 PUSH2 0x1DF9 JUMP JUMPDEST POP PUSH1 0x20 DUP4 ADD MLOAD DUP5 DUP3 SUB PUSH1 0x20 DUP7 ADD MSTORE PUSH2 0x1EA0 DUP3 DUP3 PUSH2 0x1E19 JUMP JUMPDEST SWAP2 POP POP PUSH1 0x40 DUP4 ADD MLOAD DUP5 DUP3 SUB PUSH1 0x40 DUP7 ADD MSTORE PUSH2 0x1EBA DUP3 DUP3 PUSH2 0x1E19 JUMP JUMPDEST SWAP2 POP POP PUSH1 0x60 DUP4 ADD MLOAD PUSH2 0x1ECF PUSH1 0x60 DUP7 ADD DUP3 PUSH2 0x1DF9 JUMP JUMPDEST POP PUSH1 0x80 DUP4 ADD MLOAD PUSH2 0x1EE2 PUSH1 0x80 DUP7 ADD DUP3 PUSH2 0x1E52 JUMP JUMPDEST POP PUSH1 0xA0 DUP4 ADD MLOAD PUSH2 0x1EF5 PUSH1 0xA0 DUP7 ADD DUP3 PUSH2 0x1E61 JUMP JUMPDEST POP DUP1 SWAP2 POP POP SWAP3 SWAP2 POP POP JUMP JUMPDEST PUSH1 0x0 PUSH2 0x1F0C DUP4 DUP4 PUSH2 0x1E70 JUMP JUMPDEST SWAP1 POP SWAP3 SWAP2 POP POP JUMP JUMPDEST PUSH1 0x0 PUSH1 0x20 DUP3 ADD SWAP1 POP SWAP2 SWAP1 POP JUMP JUMPDEST PUSH1 0x0 PUSH2 0x1F2C DUP3 PUSH2 0x1DCD JUMP JUMPDEST PUSH2 0x1F36 DUP2 DUP6 PUSH2 0x1DD8 JUMP JUMPDEST SWAP4 POP DUP4 PUSH1 0x20 DUP3 MUL DUP6 ADD PUSH2 0x1F48 DUP6 PUSH2 0x1DE9 JUMP JUMPDEST DUP1 PUSH1 0x0 JUMPDEST DUP6 DUP2 LT ISZERO PUSH2 0x1F84 JUMPI DUP5 DUP5 SUB DUP10 MSTORE DUP2 MLOAD PUSH2 0x1F65 DUP6 DUP3 PUSH2 0x1F00 JUMP JUMPDEST SWAP5 POP PUSH2 0x1F70 DUP4 PUSH2 0x1F14 JUMP JUMPDEST SWAP3 POP PUSH1 0x20 DUP11 ADD SWAP10 POP POP PUSH1 0x1 DUP2 ADD SWAP1 POP PUSH2 0x1F4C JUMP JUMPDEST POP DUP3 SWAP8 POP DUP8 SWAP6 POP POP POP POP POP POP SWAP3 SWAP2 POP POP JUMP JUMPDEST PUSH1 0x0 PUSH1 0x20 DUP3 ADD SWAP1 POP DUP2 DUP2 SUB PUSH1 0x0 DUP4 ADD MSTORE PUSH2 0x1FB0 DUP2 DUP5 PUSH2 0x1F21 JUMP JUMPDEST SWAP1 POP SWAP3 SWAP2 POP POP JUMP JUMPDEST PUSH2 0x1FC1 DUP2 PUSH2 0x1B5A JUMP JUMPDEST DUP2 EQ PUSH2 0x1FCC JUMPI PUSH1 0x0 DUP1 REVERT JUMPDEST POP JUMP JUMPDEST PUSH1 0x0 DUP2 CALLDATALOAD SWAP1 POP PUSH2 0x1FDE DUP2 PUSH2 0x1FB8 JUMP JUMPDEST SWAP3 SWAP2 POP POP JUMP JUMPDEST PUSH1 0x0 PUSH1 0x20 DUP3 DUP5 SUB SLT ISZERO PUSH2 0x1FFA JUMPI PUSH2 0x1FF9 PUSH2 0x19B7 JUMP JUMPDEST JUMPDEST PUSH1 0x0 PUSH2 0x2008 DUP5 DUP3 DUP6 ADD PUSH2 0x1FCF JUMP JUMPDEST SWAP2 POP POP SWAP3 SWAP2 POP POP JUMP JUMPDEST PUSH1 0x0 DUP1 PUSH1 0x40 DUP4 DUP6 SUB SLT ISZERO PUSH2 0x2028 JUMPI PUSH2 0x2027 PUSH2 0x19B7 JUMP JUMPDEST JUMPDEST PUSH1 0x0 PUSH2 0x2036 DUP6 DUP3 DUP7 ADD PUSH2 0x1FCF JUMP JUMPDEST SWAP3 POP POP PUSH1 0x20 PUSH2 0x2047 DUP6 DUP3 DUP7 ADD PUSH2 0x1BFA JUMP JUMPDEST SWAP2 POP POP SWAP3 POP SWAP3 SWAP1 POP JUMP JUMPDEST PUSH1 0x0 PUSH1 0xC0 DUP4 ADD PUSH1 0x0 DUP4 ADD MLOAD PUSH2 0x2069 PUSH1 0x0 DUP7 ADD DUP3 PUSH2 0x1DF9 JUMP JUMPDEST POP PUSH1 0x20 DUP4 ADD MLOAD DUP5 DUP3 SUB PUSH1 0x20 DUP7 ADD MSTORE PUSH2 0x2081 DUP3 DUP3 PUSH2 0x1E19 JUMP JUMPDEST SWAP2 POP POP PUSH1 0x40 DUP4 ADD MLOAD DUP5 DUP3 SUB PUSH1 0x40 DUP7 ADD MSTORE PUSH2 0x209B DUP3 DUP3 PUSH2 0x1E19 JUMP JUMPDEST SWAP2 POP POP PUSH1 0x60 DUP4 ADD MLOAD PUSH2 0x20B0 PUSH1 0x60 DUP7 ADD DUP3 PUSH2 0x1DF9 JUMP JUMPDEST POP PUSH1 0x80 DUP4 ADD MLOAD PUSH2 0x20C3 PUSH1 0x80 DUP7 ADD DUP3 PUSH2 0x1E52 JUMP JUMPDEST POP PUSH1 0xA0 DUP4 ADD MLOAD PUSH2 0x20D6 PUSH1 0xA0 DUP7 ADD DUP3 PUSH2 0x1E61 JUMP JUMPDEST POP DUP1 SWAP2 POP POP SWAP3 SWAP2 POP POP JUMP JUMPDEST PUSH1 0x0 PUSH1 0x20 DUP3 ADD SWAP1 POP DUP2 DUP2 SUB PUSH1 0x0 DUP4 ADD MSTORE PUSH2 0x20FB DUP2 DUP5 PUSH2 0x2051 JUMP JUMPDEST SWAP1 POP SWAP3 SWAP2 POP POP JUMP JUMPDEST PUSH1 0x0 DUP1 PUSH1 0x0 PUSH1 0x60 DUP5 DUP7 SUB SLT ISZERO PUSH2 0x211C JUMPI PUSH2 0x211B PUSH2 0x19B7 JUMP JUMPDEST JUMPDEST PUSH1 0x0 DUP5 ADD CALLDATALOAD PUSH8 0xFFFFFFFFFFFFFFFF DUP2 GT ISZERO PUSH2 0x213A JUMPI PUSH2 0x2139 PUSH2 0x19BC JUMP JUMPDEST JUMPDEST PUSH2 0x2146 DUP7 DUP3 DUP8 ADD PUSH2 0x1D56 JUMP JUMPDEST SWAP4 POP POP PUSH1 0x20 DUP5 ADD CALLDATALOAD PUSH8 0xFFFFFFFFFFFFFFFF DUP2 GT ISZERO PUSH2 0x2167 JUMPI PUSH2 0x2166 PUSH2 0x19BC JUMP JUMPDEST JUMPDEST PUSH2 0x2173 DUP7 DUP3 DUP8 ADD PUSH2 0x1D56 JUMP JUMPDEST SWAP3 POP POP PUSH1 0x40 PUSH2 0x2184 DUP7 DUP3 DUP8 ADD PUSH2 0x19E2 JUMP JUMPDEST SWAP2 POP POP SWAP3 POP SWAP3 POP SWAP3 JUMP JUMPDEST PUSH32 0x4E487B7100000000000000000000000000000000000000000000000000000000 PUSH1 0x0 MSTORE PUSH1 0x22 PUSH1 0x4 MSTORE PUSH1 0x24 PUSH1 0x0 REVERT JUMPDEST PUSH1 0x0 PUSH1 0x2 DUP3 DIV SWAP1 POP PUSH1 0x1 DUP3 AND DUP1 PUSH2 0x21D5 JUMPI PUSH1 0x7F DUP3 AND SWAP2 POP JUMPDEST PUSH1 0x20 DUP3 LT DUP2 SUB PUSH2 0x21E8 JUMPI PUSH2 0x21E7 PUSH2 0x218E JUMP JUMPDEST JUMPDEST POP SWAP2 SWAP1 POP JUMP JUMPDEST PUSH32 0x696E76616C696420696400000000000000000000000000000000000000000000 PUSH1 0x0 DUP3 ADD MSTORE POP JUMP JUMPDEST PUSH1 0x0 PUSH2 0x2224 PUSH1 0xA DUP4 PUSH2 0x1A3E JUMP JUMPDEST SWAP2 POP PUSH2 0x222F DUP3 PUSH2 0x21EE JUMP JUMPDEST PUSH1 0x20 DUP3 ADD SWAP1 POP SWAP2 SWAP1 POP JUMP JUMPDEST PUSH1 0x0 PUSH1 0x20 DUP3 ADD SWAP1 POP DUP2 DUP2 SUB PUSH1 0x0 DUP4 ADD MSTORE PUSH2 0x2253 DUP2 PUSH2 0x2217 JUMP JUMPDEST SWAP1 POP SWAP2 SWAP1 POP JUMP JUMPDEST PUSH32 0x4E487B7100000000000000000000000000000000000000000000000000000000 PUSH1 0x0 MSTORE PUSH1 0x32 PUSH1 0x4 MSTORE PUSH1 0x24 PUSH1 0x0 REVERT JUMPDEST PUSH32 0x73747564656E7420646F6573206E6F7420657869737400000000000000000000 PUSH1 0x0 DUP3 ADD MSTORE POP JUMP JUMPDEST PUSH1 0x0 PUSH2 0x22BF PUSH1 0x16 DUP4 PUSH2 0x1A3E JUMP JUMPDEST SWAP2 POP PUSH2 0x22CA DUP3 PUSH2 0x2289 JUMP JUMPDEST PUSH1 0x20 DUP3 ADD SWAP1 POP SWAP2 SWAP1 POP JUMP JUMPDEST PUSH1 0x0 PUSH1 0x20 DUP3 ADD SWAP1 POP DUP2 DUP2 SUB PUSH1 0x0 DUP4 ADD MSTORE PUSH2 0x22EE DUP2 PUSH2 0x22B2 JUMP JUMPDEST SWAP1 POP SWAP2 SWAP1 POP JUMP JUMPDEST PUSH1 0x0 DUP2 SWAP1 POP DUP2 PUSH1 0x0 MSTORE PUSH1 0x20 PUSH1 0x0 KECCAK256 SWAP1 POP SWAP2 SWAP1 POP JUMP JUMPDEST PUSH1 0x0 PUSH1 0x20 PUSH1 0x1F DUP4 ADD DIV SWAP1 POP SWAP2 SWAP1 POP JUMP JUMPDEST PUSH1 0x0 DUP3 DUP3 SHL SWAP1 POP SWAP3 SWAP2 POP POP JUMP JUMPDEST PUSH1 0x0 PUSH1 0x8 DUP4 MUL PUSH2 0x2357 PUSH32 0xFFFFFFFFFFFFFFFFFFFFFFFFFFFFFFFFFFFFFFFFFFFFFFFFFFFFFFFFFFFFFFFF DUP3 PUSH2 0x231A JUMP JUMPDEST PUSH2 0x2361 DUP7 DUP4 PUSH2 0x231A JUMP JUMPDEST SWAP6 POP DUP1 NOT DUP5 AND SWAP4 POP DUP1 DUP7 AND DUP5 OR SWAP3 POP POP POP SWAP4 SWAP3 POP POP POP JUMP JUMPDEST PUSH1 0x0 DUP2 SWAP1 POP SWAP2 SWAP1 POP JUMP JUMPDEST PUSH1 0x0 PUSH2 0x239E PUSH2 0x2399 PUSH2 0x2394 DUP5 PUSH2 0x19C1 JUMP JUMPDEST PUSH2 0x2379 JUMP JUMPDEST PUSH2 0x19C1 JUMP JUMPDEST SWAP1 POP SWAP2 SWAP1 POP JUMP JUMPDEST PUSH1 0x0 DUP2 SWAP1 POP SWAP2 SWAP1 POP JUMP JUMPDEST PUSH2 0x23B8 DUP4 PUSH2 0x2383 JUMP JUMPDEST PUSH2 0x23CC PUSH2 0x23C4 DUP3 PUSH2 0x23A5 JUMP JUMPDEST DUP5 DUP5 SLOAD PUSH2 0x2327 JUMP JUMPDEST DUP3 SSTORE POP POP POP POP JUMP JUMPDEST PUSH1 0x0 SWAP1 JUMP JUMPDEST PUSH2 0x23E1 PUSH2 0x23D4 JUMP JUMPDEST PUSH2 0x23EC DUP2 DUP5 DUP5 PUSH2 0x23AF JUMP JUMPDEST POP POP POP JUMP JUMPDEST JUMPDEST DUP2 DUP2 LT ISZERO PUSH2 0x2410 JUMPI PUSH2 0x2405 PUSH1 0x0 DUP3 PUSH2 0x23D9 JUMP JUMPDEST PUSH1 0x1 DUP2 ADD SWAP1 POP PUSH2 0x23F2 JUMP JUMPDEST POP POP JUMP JUMPDEST PUSH1 0x1F DUP3 GT ISZERO PUSH2 0x2455 JUMPI PUSH2 0x2426 DUP2 PUSH2 0x22F5 JUMP JUMPDEST PUSH2 0x242F DUP5 PUSH2 0x230A JUMP JUMPDEST DUP2 ADD PUSH1 0x20 DUP6 LT ISZERO PUSH2 0x243E JUMPI DUP2 SWAP1 POP JUMPDEST PUSH2 0x2452 PUSH2 0x244A DUP6 PUSH2 0x230A JUMP JUMPDEST DUP4 ADD DUP3 PUSH2 0x23F1 JUMP JUMPDEST POP POP JUMPDEST POP POP POP JUMP JUMPDEST PUSH1 0x0 DUP3 DUP3 SHR SWAP1 POP SWAP3 SWAP2 POP POP JUMP JUMPDEST PUSH1 0x0 PUSH2 0x2478 PUSH1 0x0 NOT DUP5 PUSH1 0x8 MUL PUSH2 0x245A JUMP JUMPDEST NOT DUP1 DUP4 AND SWAP2 POP POP SWAP3 SWAP2 POP POP JUMP JUMPDEST PUSH1 0x0 PUSH2 0x2491 DUP4 DUP4 PUSH2 0x2467 JUMP JUMPDEST SWAP2 POP DUP3 PUSH1 0x2 MUL DUP3 OR SWAP1 POP SWAP3 SWAP2 POP POP JUMP JUMPDEST PUSH2 0x24AA DUP3 PUSH2 0x1A33 JUMP JUMPDEST PUSH8 0xFFFFFFFFFFFFFFFF DUP2 GT ISZERO PUSH2 0x24C3 JUMPI PUSH2 0x24C2 PUSH2 0x1C59 JUMP JUMPDEST JUMPDEST PUSH2 0x24CD DUP3 SLOAD PUSH2 0x21BD JUMP JUMPDEST PUSH2 0x24D8 DUP3 DUP3 DUP6 PUSH2 0x2414 JUMP JUMPDEST PUSH1 0x0 PUSH1 0x20 SWAP1 POP PUSH1 0x1F DUP4 GT PUSH1 0x1 DUP2 EQ PUSH2 0x250B JUMPI PUSH1 0x0 DUP5 ISZERO PUSH2 0x24F9 JUMPI DUP3 DUP8 ADD MLOAD SWAP1 POP JUMPDEST PUSH2 0x2503 DUP6 DUP3 PUSH2 0x2485 JUMP JUMPDEST DUP7 SSTORE POP PUSH2 0x256B JUMP JUMPDEST PUSH1 0x1F NOT DUP5 AND PUSH2 0x2519 DUP7 PUSH2 0x22F5 JUMP JUMPDEST PUSH1 0x0 JUMPDEST DUP3 DUP2 LT ISZERO PUSH2 0x2541 JUMPI DUP5 DUP10 ADD MLOAD DUP3 SSTORE PUSH1 0x1 DUP3 ADD SWAP2 POP PUSH1 0x20 DUP6 ADD SWAP5 POP PUSH1 0x20 DUP2 ADD SWAP1 POP PUSH2 0x251C JUMP JUMPDEST DUP7 DUP4 LT ISZERO PUSH2 0x255E JUMPI DUP5 DUP10 ADD MLOAD PUSH2 0x255A PUSH1 0x1F DUP10 AND DUP3 PUSH2 0x2467 JUMP JUMPDEST DUP4 SSTORE POP JUMPDEST PUSH1 0x1 PUSH1 0x2 DUP9 MUL ADD DUP9 SSTORE POP POP POP JUMPDEST POP POP POP POP POP POP JUMP JUMPDEST PUSH32 0x4E487B7100000000000000000000000000000000000000000000000000000000 PUSH1 0x0 MSTORE PUSH1 0x11 PUSH1 0x4 MSTORE PUSH1 0x24 PUSH1 0x0 REVERT JUMPDEST PUSH1 0x0 PUSH2 0x25AD DUP3 PUSH2 0x19C1 JUMP JUMPDEST SWAP2 POP PUSH2 0x25B8 DUP4 PUSH2 0x19C1 JUMP JUMPDEST SWAP3 POP DUP3 DUP3 SUB SWAP1 POP DUP2 DUP2 GT ISZERO PUSH2 0x25D0 JUMPI PUSH2 0x25CF PUSH2 0x2573 JUMP JUMPDEST JUMPDEST SWAP3 SWAP2 POP POP JUMP JUMPDEST PUSH1 0x0 DUP2 SLOAD SWAP1 POP PUSH2 0x25E5 DUP2 PUSH2 0x21BD JUMP JUMPDEST SWAP1 POP SWAP2 SWAP1 POP JUMP JUMPDEST DUP2 DUP2 SUB PUSH2 0x25FA JUMPI POP POP PUSH2 0x26D2 JUMP JUMPDEST PUSH2 0x2603 DUP3 PUSH2 0x25D6 JUMP JUMPDEST PUSH8 0xFFFFFFFFFFFFFFFF DUP2 GT ISZERO PUSH2 0x261C JUMPI PUSH2 0x261B PUSH2 0x1C59 JUMP JUMPDEST JUMPDEST PUSH2 0x2626 DUP3 SLOAD PUSH2 0x21BD JUMP JUMPDEST PUSH2 0x2631 DUP3 DUP3 DUP6 PUSH2 0x2414 JUMP JUMPDEST PUSH1 0x0 PUSH1 0x1F DUP4 GT PUSH1 0x1 DUP2 EQ PUSH2 0x2660 JUMPI PUSH1 0x0 DUP5 ISZERO PUSH2 0x264E JUMPI DUP3 DUP8 ADD SLOAD SWAP1 POP JUMPDEST PUSH2 0x2658 DUP6 DUP3 PUSH2 0x2485 JUMP JUMPDEST DUP7 SSTORE POP PUSH2 0x26CB JUMP JUMPDEST PUSH1 0x1F NOT DUP5 AND PUSH2 0x266E DUP8 PUSH2 0x22F5 JUMP JUMPDEST SWAP7 POP PUSH2 0x2679 DUP7 PUSH2 0x22F5 JUMP JUMPDEST PUSH1 0x0 JUMPDEST DUP3 DUP2 LT ISZERO PUSH2 0x26A1 JUMPI DUP5 DUP10 ADD SLOAD DUP3 SSTORE PUSH1 0x1 DUP3 ADD SWAP2 POP PUSH1 0x1 DUP6 ADD SWAP5 POP PUSH1 0x20 DUP2 ADD SWAP1 POP PUSH2 0x267C JUMP JUMPDEST DUP7 DUP4 LT ISZERO PUSH2 0x26BE JUMPI DUP5 DUP10 ADD SLOAD PUSH2 0x26BA PUSH1 0x1F DUP10 AND DUP3 PUSH2 0x2467 JUMP JUMPDEST DUP4 SSTORE POP JUMPDEST PUSH1 0x1 PUSH1 0x2 DUP9 MUL ADD DUP9 SSTORE POP POP POP JUMPDEST POP POP POP POP POP POP JUMPDEST JUMP JUMPDEST PUSH32 0x4E487B7100000000000000000000000000000000000000000000000000000000 PUSH1 0x0 MSTORE PUSH1 0x31 PUSH1 0x4 MSTORE PUSH1 0x24 PUSH1 0x0 REVERT JUMPDEST PUSH32 0x73747564656E7420616C72656164792065786973740000000000000000000000 PUSH1 0x0 DUP3 ADD MSTORE POP JUMP JUMPDEST PUSH1 0x0 PUSH2 0x2739 PUSH1 0x15 DUP4 PUSH2 0x1A3E JUMP JUMPDEST SWAP2 POP PUSH2 0x2744 DUP3 PUSH2 0x2703 JUMP JUMPDEST PUSH1 0x20 DUP3 ADD SWAP1 POP SWAP2 SWAP1 POP JUMP JUMPDEST PUSH1 0x0 PUSH1 0x20 DUP3 ADD SWAP1 POP DUP2 DUP2 SUB PUSH1 0x0 DUP4 ADD MSTORE PUSH2 0x2768 DUP2 PUSH2 0x272C JUMP JUMPDEST SWAP1 POP SWAP2 SWAP1 POP JUMP JUMPDEST PUSH1 0x0 PUSH2 0x277A DUP3 PUSH2 0x19C1 JUMP JUMPDEST SWAP2 POP PUSH2 0x2785 DUP4 PUSH2 0x19C1 JUMP JUMPDEST SWAP3 POP DUP3 DUP3 ADD SWAP1 POP DUP1 DUP3 GT ISZERO PUSH2 0x279D JUMPI PUSH2 0x279C PUSH2 0x2573 JUMP JUMPDEST JUMPDEST SWAP3 SWAP2 POP POP JUMP INVALID LOG2 PUSH5 0x6970667358 0x22 SLT KECCAK256 0x25 0xBE SWAP1 MOD 0x23 SELFDESTRUCT STOP 0xB2 LOG4 0xBD EXTCODECOPY 0xF6 JUMPF 0xAB06 DUP10 0xD2 MCOPY NUMBER SHR PUSH5 0x3DB5C06BC6 JUMPDEST DUP9 0xC2 0xB5 0xC4 BLOBBASEFEE PUSH5 0x736F6C6343 STOP ADDMOD 0x1E STOP CALLER "
        },
        "methodIdentifiers": {
          "deleteStudentByAddress(address)": "6a17a26f",
          "delete_student_by_id(uint256)": "90939c79",
          "get_all_students()": "3ab9a9ec",
          "get_student_by_address(address)": "c26294ba",
          "get_student_by_id(uint256)": "8f3354fe",
          "register_student(string,string,uint256)": "c9b72927",
          "students(uint256)": "06ead22e",
          "updateStudentStatusByAddress(address,uint8)": "8dc344e4",
          "update_student(string)": "3a1c4d2f",
          "update_students_status(uint256,uint8)": "15c5f3e3"
        }
      }
    }
  }
}