{
  "_format": "hh-sol-artifact-1",
  "contractName": "SchoolManagement",
  "sourceName": "contracts/SchoolManagement.sol",
  "abi": [
    {
      "inputs": [
        {
          "internalType": "address",
          "name": "",
          "type": "address"
        }
      ],
      "name": "addressToStudent",
      "outputs": [
        {
          "internalType": "uint256",
          "name": "id",
          "type": "uint256"
        },
        {
          "internalType": "string",
          "name": "name",
          "type": "string"
        },
        {
          "internalType": "uint256",
          "name": "age",
          "type": "uint256"
        },
        {
          "internalType": "enum SchoolManagement.Status",
          "name": "status",
          "type": "uint8"
        },
        {
          "internalType": "bool",
          "name": "registrationCompleted",
          "type": "bool"
        },
        {
          "internalType": "address",
          "name": "studentAddress",
          "type": "address"
        }
      ],
      "stateMutability": "view",
      "type": "function"
    },
    {
      "inputs": [
        {
          "internalType": "uint256",
          "name": "_id",
          "type": "uint256"
        }
      ],
      "name": "deleteStudent",
      "outputs": [],
      "stateMutability": "nonpayable",
      "type": "function"
    },
    {
      "inputs": [],
      "name": "getMyStudentData",
      "outputs": [
        {
          "internalType": "uint256",
          "name": "id",
          "type": "uint256"
        },
        {
          "internalType": "string",
          "name": "name",
          "type": "string"
        },
        {
          "internalType": "uint256",
          "name": "age",
          "type": "uint256"
        },
        {
          "internalType": "enum SchoolManagement.Status",
          "name": "status",
          "type": "uint8"
        },
        {
          "internalType": "bool",
          "name": "registrationCompleted",
          "type": "bool"
        }
      ],
      "stateMutability": "view",
      "type": "function"
    },
    {
      "inputs": [
        {
          "internalType": "uint256",
          "name": "_id",
          "type": "uint256"
        }
      ],
      "name": "getStudent",
      "outputs": [
        {
          "internalType": "uint256",
          "name": "id",
          "type": "uint256"
        },
        {
          "internalType": "string",
          "name": "name",
          "type": "string"
        },
        {
          "internalType": "uint256",
          "name": "age",
          "type": "uint256"
        },
        {
          "internalType": "enum SchoolManagement.Status",
          "name": "status",
          "type": "uint8"
        },
        {
          "internalType": "bool",
          "name": "registrationCompleted",
          "type": "bool"
        }
      ],
      "stateMutability": "view",
      "type": "function"
    },
    {
      "inputs": [
        {
          "internalType": "address",
          "name": "_studentAddress",
          "type": "address"
        }
      ],
      "name": "getStudentByAddress",
      "outputs": [
        {
          "internalType": "uint256",
          "name": "id",
          "type": "uint256"
        },
        {
          "internalType": "string",
          "name": "name",
          "type": "string"
        },
        {
          "internalType": "uint256",
          "name": "age",
          "type": "uint256"
        },
        {
          "internalType": "enum SchoolManagement.Status",
          "name": "status",
          "type": "uint8"
        },
        {
          "internalType": "bool",
          "name": "registrationCompleted",
          "type": "bool"
        }
      ],
      "stateMutability": "view",
      "type": "function"
    },
    {
      "inputs": [],
      "name": "getStudents",
      "outputs": [
        {
          "components": [
            {
              "internalType": "uint256",
              "name": "id",
              "type": "uint256"
            },
            {
              "internalType": "string",
              "name": "name",
              "type": "string"
            },
            {
              "internalType": "uint256",
              "name": "age",
              "type": "uint256"
            },
            {
              "internalType": "enum SchoolManagement.Status",
              "name": "status",
              "type": "uint8"
            },
            {
              "internalType": "bool",
              "name": "registrationCompleted",
              "type": "bool"
            },
            {
              "internalType": "address",
              "name": "studentAddress",
              "type": "address"
            }
          ],
          "internalType": "struct SchoolManagement.StudentData[]",
          "name": "",
          "type": "tuple[]"
        }
      ],
      "stateMutability": "view",
      "type": "function"
    },
    {
      "inputs": [
        {
          "internalType": "address",
          "name": "",
          "type": "address"
        }
      ],
      "name": "isRegisteredStudent",
      "outputs": [
        {
          "internalType": "bool",
          "name": "",
          "type": "bool"
        }
      ],
      "stateMutability": "view",
      "type": "function"
    },
    {
      "inputs": [
        {
          "internalType": "string",
          "name": "_name",
          "type": "string"
        },
        {
          "internalType": "uint256",
          "name": "_age",
          "type": "uint256"
        }
      ],
      "name": "registerStudent",
      "outputs": [],
      "stateMutability": "nonpayable",
      "type": "function"
    },
    {
      "inputs": [],
      "name": "studentId",
      "outputs": [
        {
          "internalType": "uint256",
          "name": "",
          "type": "uint256"
        }
      ],
      "stateMutability": "view",
      "type": "function"
    },
    {
      "inputs": [
        {
          "internalType": "uint256",
          "name": "",
          "type": "uint256"
        }
      ],
      "name": "studentIdToData",
      "outputs": [
        {
          "internalType": "uint256",
          "name": "id",
          "type": "uint256"
        },
        {
          "internalType": "string",
          "name": "name",
          "type": "string"
        },
        {
          "internalType": "uint256",
          "name": "age",
          "type": "uint256"
        },
        {
          "internalType": "enum SchoolManagement.Status",
          "name": "status",
          "type": "uint8"
        },
        {
          "internalType": "bool",
          "name": "registrationCompleted",
          "type": "bool"
        },
        {
          "internalType": "address",
          "name": "studentAddress",
          "type": "address"
        }
      ],
      "stateMutability": "view",
      "type": "function"
    },
    {
      "inputs": [
        {
          "internalType": "uint256",
          "name": "",
          "type": "uint256"
        }
      ],
      "name": "students",
      "outputs": [
        {
          "internalType": "uint256",
          "name": "id",
          "type": "uint256"
        },
        {
          "internalType": "string",
          "name": "name",
          "type": "string"
        },
        {
          "internalType": "uint256",
          "name": "age",
          "type": "uint256"
        },
        {
          "internalType": "enum SchoolManagement.Status",
          "name": "status",
          "type": "uint8"
        },
        {
          "internalType": "bool",
          "name": "registrationCompleted",
          "type": "bool"
        },
        {
          "internalType": "address",
          "name": "studentAddress",
          "type": "address"
        }
      ],
      "stateMutability": "view",
      "type": "function"
    },
    {
      "inputs": [
        {
          "internalType": "string",
          "name": "_name",
          "type": "string"
        },
        {
          "internalType": "uint256",
          "name": "_age",
          "type": "uint256"
        }
      ],
      "name": "updateMyStudentData",
      "outputs": [],
      "stateMutability": "nonpayable",
      "type": "function"
    },
    {
      "inputs": [
        {
          "internalType": "uint256",
          "name": "_id",
          "type": "uint256"
        },
        {
          "internalType": "enum SchoolManagement.Status",
          "name": "_new_status",
          "type": "uint8"
        }
      ],
      "name": "updateStatus",
      "outputs": [],
      "stateMutability": "nonpayable",
      "type": "function"
    },
    {
      "inputs": [
        {
          "internalType": "uint256",
          "name": "_id",
          "type": "uint256"
        },
        {
          "internalType": "string",
          "name": "_name",
          "type": "string"
        },
        {
          "internalType": "uint256",
          "name": "_age",
          "type": "uint256"
        }
      ],
      "name": "updateStudentData",
      "outputs": [],
      "stateMutability": "nonpayable",
      "type": "function"
    }
  ],
  "bytecode": "0x608060405260018055348015601357600080fd5b50612ffd806100236000396000f3fe608060405234801561001057600080fd5b50600436106100ea5760003560e01c80637b487c571161008c578063b645307d11610066578063b645307d1461027f578063d396dfd41461029b578063dd1f8bdd146102bd578063f1d064b3146102f2576100ea565b80637b487c57146101f857806398754710146102165780639f3da5cc1461024b576100ea565b806312a0b744116100c857806312a0b7441461015c57806331b6d86e146101785780633a1b3d31146101a8578063642f9163146101c4576100ea565b806306ead22e146100ef5780630d6f3d81146101245780630e8a614714610140575b600080fd5b61010960048036038101906101049190612014565b610310565b60405161011b969594939291906121b3565b60405180910390f35b61013e60048036038101906101399190612350565b61041e565b005b61015a600480360381019061015591906123bf565b61068c565b005b610176600480360381019061017191906123bf565b6109c5565b005b610192600480360381019061018d9190612447565b610e86565b60405161019f9190612474565b60405180910390f35b6101c260048036038101906101bd91906124b4565b610ea6565b005b6101de60048036038101906101d99190612014565b611042565b6040516101ef9594939291906124f4565b60405180910390f35b610200611232565b60405161020d919061254e565b60405180910390f35b610230600480360381019061022b9190612447565b611238565b604051610242969594939291906121b3565b60405180910390f35b61026560048036038101906102609190612447565b611336565b6040516102769594939291906124f4565b60405180910390f35b61029960048036038101906102949190612014565b611598565b005b6102a36119c6565b6040516102b49594939291906124f4565b60405180910390f35b6102d760048036038101906102d29190612014565b611c26565b6040516102e9969594939291906121b3565b60405180910390f35b6102fa611d24565b604051610307919061273a565b60405180910390f35b6000818154811061032057600080fd5b90600052602060002090600402016000915090508060000154908060010180546103499061278b565b80601f01602080910402602001604051908101604052809291908181526020018280546103759061278b565b80156103c25780601f10610397576101008083540402835291602001916103c2565b820191906000526020600020905b8154815290600101906020018083116103a557829003601f168201915b5050505050908060020154908060030160009054906101000a900460ff16908060030160019054906101000a900460ff16908060030160029054906101000a900473ffffffffffffffffffffffffffffffffffffffff16905086565b6000600360008581526020019081526020016000206000015403610477576040517f08c379a000000000000000000000000000000000000000000000000000000000815260040161046e90612808565b60405180910390fd5b60008251116104bb576040517f08c379a00000000000000000000000000000000000000000000000000000000081526004016104b290612874565b60405180910390fd5b6000811180156104cb5750603281105b61050a576040517f08c379a0000000000000000000000000000000000000000000000000000000008152600401610501906128e0565b60405180910390fd5b600061051584611ed5565b9050826000828154811061052c5761052b612900565b5b906000526020600020906004020160010190816105499190612adb565b50816000828154811061055f5761055e612900565b5b906000526020600020906004020160020181905550826003600086815260200190815260200160002060010190816105979190612adb565b5081600360008681526020019081526020016000206002018190555060006003600086815260200190815260200160002060030160029054906101000a900473ffffffffffffffffffffffffffffffffffffffff16905083600260008373ffffffffffffffffffffffffffffffffffffffff1673ffffffffffffffffffffffffffffffffffffffff168152602001908152602001600020600101908161063d9190612adb565b5082600260008373ffffffffffffffffffffffffffffffffffffffff1673ffffffffffffffffffffffffffffffffffffffff168152602001908152602001600020600201819055505050505050565b600460003373ffffffffffffffffffffffffffffffffffffffff1673ffffffffffffffffffffffffffffffffffffffff16815260200190815260200160002060009054906101000a900460ff16610718576040517f08c379a000000000000000000000000000000000000000000000000000000000815260040161070f90612bf9565b60405180910390fd5b600082511161075c576040517f08c379a000000000000000000000000000000000000000000000000000000000815260040161075390612874565b60405180910390fd5b60008111801561076c5750603281105b6107ab576040517f08c379a00000000000000000000000000000000000000000000000000000000081526004016107a2906128e0565b60405180910390fd5b81600260003373ffffffffffffffffffffffffffffffffffffffff1673ffffffffffffffffffffffffffffffffffffffff16815260200190815260200160002060010190816107fa9190612adb565b5080600260003373ffffffffffffffffffffffffffffffffffffffff1673ffffffffffffffffffffffffffffffffffffffff168152602001908152602001600020600201819055506000600260003373ffffffffffffffffffffffffffffffffffffffff1673ffffffffffffffffffffffffffffffffffffffff168152602001908152602001600020600001549050826003600083815260200190815260200160002060010190816108ac9190612adb565b5081600360008381526020019081526020016000206002018190555060005b6000805490508110156109bf573373ffffffffffffffffffffffffffffffffffffffff166000828154811061090357610902612900565b5b906000526020600020906004020160030160029054906101000a900473ffffffffffffffffffffffffffffffffffffffff1673ffffffffffffffffffffffffffffffffffffffff16036109b257836000828154811061096557610964612900565b5b906000526020600020906004020160010190816109829190612adb565b50826000828154811061099857610997612900565b5b9060005260206000209060040201600201819055506109bf565b80806001019150506108cb565b50505050565b6000811180156109d55750603281105b610a14576040517f08c379a0000000000000000000000000000000000000000000000000000000008152600401610a0b90612c65565b60405180910390fd5b6000825111610a58576040517f08c379a0000000000000000000000000000000000000000000000000000000008152600401610a4f90612874565b60405180910390fd5b600460003373ffffffffffffffffffffffffffffffffffffffff1673ffffffffffffffffffffffffffffffffffffffff16815260200190815260200160002060009054906101000a900460ff1615610ae5576040517f08c379a0000000000000000000000000000000000000000000000000000000008152600401610adc90612cd1565b60405180910390fd5b60006040518060c00160405280600154815260200184815260200183815260200160006002811115610b1a57610b196120e0565b5b81526020016001151581526020013373ffffffffffffffffffffffffffffffffffffffff16815250905080600260003373ffffffffffffffffffffffffffffffffffffffff1673ffffffffffffffffffffffffffffffffffffffff168152602001908152602001600020600082015181600001556020820151816001019081610ba39190612adb565b506040820151816002015560608201518160030160006101000a81548160ff02191690836002811115610bd957610bd86120e0565b5b021790555060808201518160030160016101000a81548160ff02191690831515021790555060a08201518160030160026101000a81548173ffffffffffffffffffffffffffffffffffffffff021916908373ffffffffffffffffffffffffffffffffffffffff16021790555090505080600360006001548152602001908152602001600020600082015181600001556020820151816001019081610c7d9190612adb565b506040820151816002015560608201518160030160006101000a81548160ff02191690836002811115610cb357610cb26120e0565b5b021790555060808201518160030160016101000a81548160ff02191690831515021790555060a08201518160030160026101000a81548173ffffffffffffffffffffffffffffffffffffffff021916908373ffffffffffffffffffffffffffffffffffffffff1602179055509050506000819080600181540180825580915050600190039060005260206000209060040201600090919091909150600082015181600001556020820151816001019081610d6d9190612adb565b506040820151816002015560608201518160030160006101000a81548160ff02191690836002811115610da357610da26120e0565b5b021790555060808201518160030160016101000a81548160ff02191690831515021790555060a08201518160030160026101000a81548173ffffffffffffffffffffffffffffffffffffffff021916908373ffffffffffffffffffffffffffffffffffffffff16021790555050506001600460003373ffffffffffffffffffffffffffffffffffffffff1673ffffffffffffffffffffffffffffffffffffffff16815260200190815260200160002060006101000a81548160ff02191690831515021790555060016000815480929190610e7c90612d20565b9190505550505050565b60046020528060005260406000206000915054906101000a900460ff1681565b6000600360008481526020019081526020016000206000015403610eff576040517f08c379a0000000000000000000000000000000000000000000000000000000008152600401610ef690612808565b60405180910390fd5b6000610f0a83611ed5565b9050816003600085815260200190815260200160002060030160006101000a81548160ff02191690836002811115610f4557610f446120e0565b5b02179055508160008281548110610f5f57610f5e612900565b5b906000526020600020906004020160030160006101000a81548160ff02191690836002811115610f9257610f916120e0565b5b021790555060006003600085815260200190815260200160002060030160029054906101000a900473ffffffffffffffffffffffffffffffffffffffff16905082600260008373ffffffffffffffffffffffffffffffffffffffff1673ffffffffffffffffffffffffffffffffffffffff16815260200190815260200160002060030160006101000a81548160ff02191690836002811115611037576110366120e0565b5b021790555050505050565b60006060600080600080600360008881526020019081526020016000206040518060c0016040529081600082015481526020016001820180546110849061278b565b80601f01602080910402602001604051908101604052809291908181526020018280546110b09061278b565b80156110fd5780601f106110d2576101008083540402835291602001916110fd565b820191906000526020600020905b8154815290600101906020018083116110e057829003601f168201915b50505050508152602001600282015481526020016003820160009054906101000a900460ff166002811115611135576111346120e0565b5b6002811115611147576111466120e0565b5b81526020016003820160019054906101000a900460ff161515151581526020016003820160029054906101000a900473ffffffffffffffffffffffffffffffffffffffff1673ffffffffffffffffffffffffffffffffffffffff1673ffffffffffffffffffffffffffffffffffffffff168152505090506000816000015103611205576040517f08c379a00000000000000000000000000000000000000000000000000000000081526004016111fc90612808565b60405180910390fd5b80600001518160200151826040015183606001518460800151955095509550955095505091939590929450565b60015481565b60026020528060005260406000206000915090508060000154908060010180546112619061278b565b80601f016020809104026020016040519081016040528092919081815260200182805461128d9061278b565b80156112da5780601f106112af576101008083540402835291602001916112da565b820191906000526020600020905b8154815290600101906020018083116112bd57829003601f168201915b5050505050908060020154908060030160009054906101000a900460ff16908060030160019054906101000a900460ff16908060030160029054906101000a900473ffffffffffffffffffffffffffffffffffffffff16905086565b600060606000806000600460008773ffffffffffffffffffffffffffffffffffffffff1673ffffffffffffffffffffffffffffffffffffffff16815260200190815260200160002060009054906101000a900460ff166113cb576040517f08c379a00000000000000000000000000000000000000000000000000000000081526004016113c290612db4565b60405180910390fd5b6000600260008873ffffffffffffffffffffffffffffffffffffffff1673ffffffffffffffffffffffffffffffffffffffff1681526020019081526020016000206040518060c0016040529081600082015481526020016001820180546114319061278b565b80601f016020809104026020016040519081016040528092919081815260200182805461145d9061278b565b80156114aa5780601f1061147f576101008083540402835291602001916114aa565b820191906000526020600020905b81548152906001019060200180831161148d57829003601f168201915b50505050508152602001600282015481526020016003820160009054906101000a900460ff1660028111156114e2576114e16120e0565b5b60028111156114f4576114f36120e0565b5b81526020016003820160019054906101000a900460ff161515151581526020016003820160029054906101000a900473ffffffffffffffffffffffffffffffffffffffff1673ffffffffffffffffffffffffffffffffffffffff1673ffffffffffffffffffffffffffffffffffffffff1681525050905080600001518160200151826040015183606001518460800151955095509550955095505091939590929450565b60006003600083815260200190815260200160002060000154036115f1576040517f08c379a00000000000000000000000000000000000000000000000000000000081526004016115e890612808565b60405180910390fd5b60006115fc82611ed5565b9050600080828154811061161357611612612900565b5b906000526020600020906004020160030160029054906101000a900473ffffffffffffffffffffffffffffffffffffffff1690506000600160008054905061165b9190612dd4565b8154811061166c5761166b612900565b5b90600052602060002090600402016000838154811061168e5761168d612900565b5b906000526020600020906004020160008201548160000155600182018160010190816116ba9190612e1e565b50600282015481600201556003820160009054906101000a900460ff168160030160006101000a81548160ff021916908360028111156116fd576116fc6120e0565b5b02179055506003820160019054906101000a900460ff168160030160016101000a81548160ff0219169083151502179055506003820160029054906101000a900473ffffffffffffffffffffffffffffffffffffffff168160030160026101000a81548173ffffffffffffffffffffffffffffffffffffffff021916908373ffffffffffffffffffffffffffffffffffffffff16021790555090505060008054806117ab576117aa612f06565b5b60019003818190600052602060002090600402016000808201600090556001820160006117d89190611f6d565b60028201600090556003820160006101000a81549060ff02191690556003820160016101000a81549060ff02191690556003820160026101000a81549073ffffffffffffffffffffffffffffffffffffffff0219169055505090556003600084815260200190815260200160002060008082016000905560018201600061185f9190611f6d565b60028201600090556003820160006101000a81549060ff02191690556003820160016101000a81549060ff02191690556003820160026101000a81549073ffffffffffffffffffffffffffffffffffffffff02191690555050600260008273ffffffffffffffffffffffffffffffffffffffff1673ffffffffffffffffffffffffffffffffffffffff1681526020019081526020016000206000808201600090556001820160006119109190611f6d565b60028201600090556003820160006101000a81549060ff02191690556003820160016101000a81549060ff02191690556003820160026101000a81549073ffffffffffffffffffffffffffffffffffffffff021916905550506000600460008373ffffffffffffffffffffffffffffffffffffffff1673ffffffffffffffffffffffffffffffffffffffff16815260200190815260200160002060006101000a81548160ff021916908315150217905550505050565b600060606000806000600460003373ffffffffffffffffffffffffffffffffffffffff1673ffffffffffffffffffffffffffffffffffffffff16815260200190815260200160002060009054906101000a900460ff16611a5b576040517f08c379a0000000000000000000000000000000000000000000000000000000008152600401611a5290612bf9565b60405180910390fd5b6000600260003373ffffffffffffffffffffffffffffffffffffffff1673ffffffffffffffffffffffffffffffffffffffff1681526020019081526020016000206040518060c001604052908160008201548152602001600182018054611ac19061278b565b80601f0160208091040260200160405190810160405280929190818152602001828054611aed9061278b565b8015611b3a5780601f10611b0f57610100808354040283529160200191611b3a565b820191906000526020600020905b815481529060010190602001808311611b1d57829003601f168201915b50505050508152602001600282015481526020016003820160009054906101000a900460ff166002811115611b7257611b716120e0565b5b6002811115611b8457611b836120e0565b5b81526020016003820160019054906101000a900460ff161515151581526020016003820160029054906101000a900473ffffffffffffffffffffffffffffffffffffffff1673ffffffffffffffffffffffffffffffffffffffff1673ffffffffffffffffffffffffffffffffffffffff168152505090508060000151816020015182604001518360600151846080015195509550955095509550509091929394565b6003602052806000526040600020600091509050806000015490806001018054611c4f9061278b565b80601f0160208091040260200160405190810160405280929190818152602001828054611c7b9061278b565b8015611cc85780601f10611c9d57610100808354040283529160200191611cc8565b820191906000526020600020905b815481529060010190602001808311611cab57829003601f168201915b5050505050908060020154908060030160009054906101000a900460ff16908060030160019054906101000a900460ff16908060030160029054906101000a900473ffffffffffffffffffffffffffffffffffffffff16905086565b60606000805480602002602001604051908101604052809291908181526020016000905b82821015611ecc57838290600052602060002090600402016040518060c001604052908160008201548152602001600182018054611d859061278b565b80601f0160208091040260200160405190810160405280929190818152602001828054611db19061278b565b8015611dfe5780601f10611dd357610100808354040283529160200191611dfe565b820191906000526020600020905b815481529060010190602001808311611de157829003601f168201915b50505050508152602001600282015481526020016003820160009054906101000a900460ff166002811115611e3657611e356120e0565b5b6002811115611e4857611e476120e0565b5b81526020016003820160019054906101000a900460ff161515151581526020016003820160029054906101000a900473ffffffffffffffffffffffffffffffffffffffff1673ffffffffffffffffffffffffffffffffffffffff1673ffffffffffffffffffffffffffffffffffffffff168152505081526020019060010190611d48565b50505050905090565b600080600090505b600080549050811015611f2c578260008281548110611eff57611efe612900565b5b90600052602060002090600402016000015403611f1f5780915050611f68565b8080600101915050611edd565b506040517f08c379a0000000000000000000000000000000000000000000000000000000008152600401611f5f90612fa7565b60405180910390fd5b919050565b508054611f799061278b565b6000825580601f10611f8b5750611faa565b601f016020900490600052602060002090810190611fa99190611fad565b5b50565b5b80821115611fc6576000816000905550600101611fae565b5090565b6000604051905090565b600080fd5b600080fd5b6000819050919050565b611ff181611fde565b8114611ffc57600080fd5b50565b60008135905061200e81611fe8565b92915050565b60006020828403121561202a57612029611fd4565b5b600061203884828501611fff565b91505092915050565b61204a81611fde565b82525050565b600081519050919050565b600082825260208201905092915050565b60005b8381101561208a57808201518184015260208101905061206f565b60008484015250505050565b6000601f19601f8301169050919050565b60006120b282612050565b6120bc818561205b565b93506120cc81856020860161206c565b6120d581612096565b840191505092915050565b7f4e487b7100000000000000000000000000000000000000000000000000000000600052602160045260246000fd5b600381106121205761211f6120e0565b5b50565b60008190506121318261210f565b919050565b600061214182612123565b9050919050565b61215181612136565b82525050565b60008115159050919050565b61216c81612157565b82525050565b600073ffffffffffffffffffffffffffffffffffffffff82169050919050565b600061219d82612172565b9050919050565b6121ad81612192565b82525050565b600060c0820190506121c86000830189612041565b81810360208301526121da81886120a7565b90506121e96040830187612041565b6121f66060830186612148565b6122036080830185612163565b61221060a08301846121a4565b979650505050505050565b600080fd5b600080fd5b7f4e487b7100000000000000000000000000000000000000000000000000000000600052604160045260246000fd5b61225d82612096565b810181811067ffffffffffffffff8211171561227c5761227b612225565b5b80604052505050565b600061228f611fca565b905061229b8282612254565b919050565b600067ffffffffffffffff8211156122bb576122ba612225565b5b6122c482612096565b9050602081019050919050565b82818337600083830152505050565b60006122f36122ee846122a0565b612285565b90508281526020810184848401111561230f5761230e612220565b5b61231a8482856122d1565b509392505050565b600082601f8301126123375761233661221b565b5b81356123478482602086016122e0565b91505092915050565b60008060006060848603121561236957612368611fd4565b5b600061237786828701611fff565b935050602084013567ffffffffffffffff81111561239857612397611fd9565b5b6123a486828701612322565b92505060406123b586828701611fff565b9150509250925092565b600080604083850312156123d6576123d5611fd4565b5b600083013567ffffffffffffffff8111156123f4576123f3611fd9565b5b61240085828601612322565b925050602061241185828601611fff565b9150509250929050565b61242481612192565b811461242f57600080fd5b50565b6000813590506124418161241b565b92915050565b60006020828403121561245d5761245c611fd4565b5b600061246b84828501612432565b91505092915050565b60006020820190506124896000830184612163565b92915050565b6003811061249c57600080fd5b50565b6000813590506124ae8161248f565b92915050565b600080604083850312156124cb576124ca611fd4565b5b60006124d985828601611fff565b92505060206124ea8582860161249f565b9150509250929050565b600060a0820190506125096000830188612041565b818103602083015261251b81876120a7565b905061252a6040830186612041565b6125376060830185612148565b6125446080830184612163565b9695505050505050565b60006020820190506125636000830184612041565b92915050565b600081519050919050565b600082825260208201905092915050565b6000819050602082019050919050565b61259e81611fde565b82525050565b600082825260208201905092915050565b60006125c082612050565b6125ca81856125a4565b93506125da81856020860161206c565b6125e381612096565b840191505092915050565b6125f781612136565b82525050565b61260681612157565b82525050565b61261581612192565b82525050565b600060c0830160008301516126336000860182612595565b506020830151848203602086015261264b82826125b5565b91505060408301516126606040860182612595565b50606083015161267360608601826125ee565b50608083015161268660808601826125fd565b5060a083015161269960a086018261260c565b508091505092915050565b60006126b0838361261b565b905092915050565b6000602082019050919050565b60006126d082612569565b6126da8185612574565b9350836020820285016126ec85612585565b8060005b85811015612728578484038952815161270985826126a4565b9450612714836126b8565b925060208a019950506001810190506126f0565b50829750879550505050505092915050565b6000602082019050818103600083015261275481846126c5565b905092915050565b7f4e487b7100000000000000000000000000000000000000000000000000000000600052602260045260246000fd5b600060028204905060018216806127a357607f821691505b6020821081036127b6576127b561275c565b5b50919050565b7f53747564656e7420646f6573206e6f7420657869737400000000000000000000600082015250565b60006127f260168361205b565b91506127fd826127bc565b602082019050919050565b60006020820190508181036000830152612821816127e5565b9050919050565b7f4e616d652063616e6e6f7420626520656d707479000000000000000000000000600082015250565b600061285e60148361205b565b915061286982612828565b602082019050919050565b6000602082019050818103600083015261288d81612851565b9050919050565b7f496e76616c696420616765000000000000000000000000000000000000000000600082015250565b60006128ca600b8361205b565b91506128d582612894565b602082019050919050565b600060208201905081810360008301526128f9816128bd565b9050919050565b7f4e487b7100000000000000000000000000000000000000000000000000000000600052603260045260246000fd5b60008190508160005260206000209050919050565b60006020601f8301049050919050565b600082821b905092915050565b6000600883026129917fffffffffffffffffffffffffffffffffffffffffffffffffffffffffffffffff82612954565b61299b8683612954565b95508019841693508086168417925050509392505050565b6000819050919050565b60006129d86129d36129ce84611fde565b6129b3565b611fde565b9050919050565b6000819050919050565b6129f2836129bd565b612a066129fe826129df565b848454612961565b825550505050565b600090565b612a1b612a0e565b612a268184846129e9565b505050565b5b81811015612a4a57612a3f600082612a13565b600181019050612a2c565b5050565b601f821115612a8f57612a608161292f565b612a6984612944565b81016020851015612a78578190505b612a8c612a8485612944565b830182612a2b565b50505b505050565b600082821c905092915050565b6000612ab260001984600802612a94565b1980831691505092915050565b6000612acb8383612aa1565b9150826002028217905092915050565b612ae482612050565b67ffffffffffffffff811115612afd57612afc612225565b5b612b07825461278b565b612b12828285612a4e565b600060209050601f831160018114612b455760008415612b33578287015190505b612b3d8582612abf565b865550612ba5565b601f198416612b538661292f565b60005b82811015612b7b57848901518255600182019150602085019450602081019050612b56565b86831015612b985784890151612b94601f891682612aa1565b8355505b6001600288020188555050505b505050505050565b7f4e6f742072656769737465726564000000000000000000000000000000000000600082015250565b6000612be3600e8361205b565b9150612bee82612bad565b602082019050919050565b60006020820190508181036000830152612c1281612bd6565b9050919050565b7f494e56414c494420414745000000000000000000000000000000000000000000600082015250565b6000612c4f600b8361205b565b9150612c5a82612c19565b602082019050919050565b60006020820190508181036000830152612c7e81612c42565b9050919050565b7f416c726561647920726567697374657265640000000000000000000000000000600082015250565b6000612cbb60128361205b565b9150612cc682612c85565b602082019050919050565b60006020820190508181036000830152612cea81612cae565b9050919050565b7f4e487b7100000000000000000000000000000000000000000000000000000000600052601160045260246000fd5b6000612d2b82611fde565b91507fffffffffffffffffffffffffffffffffffffffffffffffffffffffffffffffff8203612d5d57612d5c612cf1565b5b600182019050919050565b7f41646472657373206e6f74207265676973746572656400000000000000000000600082015250565b6000612d9e60168361205b565b9150612da982612d68565b602082019050919050565b60006020820190508181036000830152612dcd81612d91565b9050919050565b6000612ddf82611fde565b9150612dea83611fde565b9250828203905081811115612e0257612e01612cf1565b5b92915050565b600081549050612e178161278b565b9050919050565b818103612e2c575050612f04565b612e3582612e08565b67ffffffffffffffff811115612e4e57612e4d612225565b5b612e58825461278b565b612e63828285612a4e565b6000601f831160018114612e925760008415612e80578287015490505b612e8a8582612abf565b865550612efd565b601f198416612ea08761292f565b9650612eab8661292f565b60005b82811015612ed357848901548255600182019150600185019450602081019050612eae565b86831015612ef05784890154612eec601f891682612aa1565b8355505b6001600288020188555050505b5050505050505b565b7f4e487b7100000000000000000000000000000000000000000000000000000000600052603160045260246000fd5b7f53747564656e742077697468207468697320494420646f6573206e6f7420657860008201527f6973740000000000000000000000000000000000000000000000000000000000602082015250565b6000612f9160238361205b565b9150612f9c82612f35565b604082019050919050565b60006020820190508181036000830152612fc081612f84565b905091905056fea2646970667358221220d32e72ec42d2ebd8e209dfaa4a1a8cf25a6edbaf9a77471479aa36777929cacb64736f6c634300081c0033",
  "linkReferences": {},
  "deployedLinkReferences": {}
}