{"abi":[{"type":"constructor","inputs":[],"stateMutability":"nonpayable"},{"type":"function","name":"admin","inputs":[],"outputs":[{"name":"","type":"address","internalType":"address"}],"stateMutability":"view"},{"type":"function","name":"allAccounts","inputs":[{"name":"","type":"uint256","internalType":"uint256"}],"outputs":[{"name":"","type":"address","internalType":"address"}],"stateMutability":"view"},{"type":"function","name":"createAccount","inputs":[{"name":"accountType","type":"uint8","internalType":"enum Type"},{"name":"lockPeriodInSeconds","type":"uint256","internalType":"uint256"},{"name":"erc20Address","type":"address","internalType":"address"}],"outputs":[{"name":"","type":"address","internalType":"address"}],"stateMutability":"nonpayable"},{"type":"function","name":"getAccountsForUser","inputs":[{"name":"user","type":"address","internalType":"address"}],"outputs":[{"name":"","type":"address[]","internalType":"address[]"}],"stateMutability":"view"},{"type":"function","name":"getNumberOfAccountsForUser","inputs":[{"name":"user","type":"address","internalType":"address"}],"outputs":[{"name":"","type":"uint256","internalType":"uint256"}],"stateMutability":"view"},{"type":"function","name":"userToAccounts","inputs":[{"name":"","type":"address","internalType":"address"},{"name":"","type":"uint256","internalType":"uint256"}],"outputs":[{"name":"","type":"address","internalType":"address"}],"stateMutability":"view"},{"type":"event","name":"AccountCreated","inputs":[{"name":"owner","type":"address","indexed":true,"internalType":"address"},{"name":"accountAddress","type":"address","indexed":true,"internalType":"address"},{"name":"accountType","type":"uint8","indexed":false,"internalType":"enum Type"},{"name":"lockPeriod","type":"uint256","indexed":false,"internalType":"uint256"}],"anonymous":false},{"type":"error","name":"Bank__AccountNotFoundForUser","inputs":[]},{"type":"error","name":"Bank__UserHasNoAccounts","inputs":[]},{"type":"error","name":"Bank__ZeroAddressNotAllowed","inputs":[]}],"bytecode":{"object":"0x60a0604052348015600e575f5ffd5b503373ffffffffffffffffffffffffffffffffffffffff1660808173ffffffffffffffffffffffffffffffffffffffff16815250506080516124606100625f395f81816102bf015261053801526124605ff3fe608060405234801561000f575f5ffd5b5060043610610060575f3560e01c8063169b7012146100645780631eb9ef91146100945780636c3fda1d146100c45780636fbbd640146100f45780637925372814610124578063f851a44014610154575b5f5ffd5b61007e600480360381019061007991906105f8565b610172565b60405161008b9190610645565b60405180910390f35b6100ae60048036038101906100a9919061065e565b6101b9565b6040516100bb9190610740565b60405180910390f35b6100de60048036038101906100d99190610760565b610280565b6040516100eb9190610645565b60405180910390f35b61010e600480360381019061010991906107ae565b6102bb565b60405161011b9190610645565b60405180910390f35b61013e6004803603810190610139919061065e565b610489565b60405161014b919061080d565b60405180910390f35b61015c610536565b6040516101699190610645565b60405180910390f35b5f602052815f5260405f20818154811061018a575f80fd5b905f5260205f20015f915091509054906101000a900473ffffffffffffffffffffffffffffffffffffffff1681565b60605f5f8373ffffffffffffffffffffffffffffffffffffffff1673ffffffffffffffffffffffffffffffffffffffff1681526020019081526020015f2080548060200260200160405190810160405280929190818152602001828054801561027457602002820191905f5260205f20905b815f9054906101000a900473ffffffffffffffffffffffffffffffffffffffff1673ffffffffffffffffffffffffffffffffffffffff168152602001906001019080831161022b575b50505050509050919050565b6001818154811061028f575f80fd5b905f5260205f20015f915054906101000a900473ffffffffffffffffffffffffffffffffffffffff1681565b5f5f7f0000000000000000000000000000000000000000000000000000000000000000338587866040516102ee9061055a565b6102fc959493929190610899565b604051809103905ff080158015610315573d5f5f3e3d5ffd5b5090505f819050600181908060018154018082558091505060019003905f5260205f20015f9091909190916101000a81548173ffffffffffffffffffffffffffffffffffffffff021916908373ffffffffffffffffffffffffffffffffffffffff1602179055505f5f3373ffffffffffffffffffffffffffffffffffffffff1673ffffffffffffffffffffffffffffffffffffffff1681526020019081526020015f2081908060018154018082558091505060019003905f5260205f20015f9091909190916101000a81548173ffffffffffffffffffffffffffffffffffffffff021916908373ffffffffffffffffffffffffffffffffffffffff1602179055508073ffffffffffffffffffffffffffffffffffffffff163373ffffffffffffffffffffffffffffffffffffffff167fc1cd9606533f1a4a2b36235d223d1eca97295c39ba5487e55550aeb80d687b5788886040516104759291906108ea565b60405180910390a380925050509392505050565b5f5f73ffffffffffffffffffffffffffffffffffffffff168273ffffffffffffffffffffffffffffffffffffffff16036104ef576040517f76570fe000000000000000000000000000000000000000000000000000000000815260040160405180910390fd5b5f5f8373ffffffffffffffffffffffffffffffffffffffff1673ffffffffffffffffffffffffffffffffffffffff1681526020019081526020015f20805490509050919050565b7f000000000000000000000000000000000000000000000000000000000000000081565b611b198061091283390190565b5f5ffd5b5f73ffffffffffffffffffffffffffffffffffffffff82169050919050565b5f6105948261056b565b9050919050565b6105a48161058a565b81146105ae575f5ffd5b50565b5f813590506105bf8161059b565b92915050565b5f819050919050565b6105d7816105c5565b81146105e1575f5ffd5b50565b5f813590506105f2816105ce565b92915050565b5f5f6040838503121561060e5761060d610567565b5b5f61061b858286016105b1565b925050602061062c858286016105e4565b9150509250929050565b61063f8161058a565b82525050565b5f6020820190506106585f830184610636565b92915050565b5f6020828403121561067357610672610567565b5b5f610680848285016105b1565b91505092915050565b5f81519050919050565b5f82825260208201905092915050565b5f819050602082019050919050565b6106bb8161058a565b82525050565b5f6106cc83836106b2565b60208301905092915050565b5f602082019050919050565b5f6106ee82610689565b6106f88185610693565b9350610703836106a3565b805f5b8381101561073357815161071a88826106c1565b9750610725836106d8565b925050600181019050610706565b5085935050505092915050565b5f6020820190508181035f83015261075881846106e4565b905092915050565b5f6020828403121561077557610774610567565b5b5f610782848285016105e4565b91505092915050565b60028110610797575f5ffd5b50565b5f813590506107a88161078b565b92915050565b5f5f5f606084860312156107c5576107c4610567565b5b5f6107d28682870161079a565b93505060206107e3868287016105e4565b92505060406107f4868287016105b1565b9150509250925092565b610807816105c5565b82525050565b5f6020820190506108205f8301846107fe565b92915050565b7f4e487b71000000000000000000000000000000000000000000000000000000005f52602160045260245ffd5b6002811061086457610863610826565b5b50565b5f81905061087482610853565b919050565b5f61088382610867565b9050919050565b61089381610879565b82525050565b5f60a0820190506108ac5f830188610636565b6108b96020830187610636565b6108c660408301866107fe565b6108d3606083018561088a565b6108e06080830184610636565b9695505050505050565b5f6040820190506108fd5f83018561088a565b61090a60208301846107fe565b939250505056fe610100604052348015610010575f5ffd5b50604051611b19380380611b1983398181016040528101906100329190610304565b5f73ffffffffffffffffffffffffffffffffffffffff168473ffffffffffffffffffffffffffffffffffffffff16148061009757505f73ffffffffffffffffffffffffffffffffffffffff168573ffffffffffffffffffffffffffffffffffffffff16145b156100ce576040517fc406521500000000000000000000000000000000000000000000000000000000815260040160405180910390fd5b6001808111156100e1576100e061037b565b5b8260018111156100f4576100f361037b565b5b14801561012c57505f73ffffffffffffffffffffffffffffffffffffffff168173ffffffffffffffffffffffffffffffffffffffff16145b15610163576040517fa342a0b500000000000000000000000000000000000000000000000000000000815260040160405180910390fd5b8373ffffffffffffffffffffffffffffffffffffffff1660808173ffffffffffffffffffffffffffffffffffffffff16815250508473ffffffffffffffffffffffffffffffffffffffff1660a08173ffffffffffffffffffffffffffffffffffffffff1681525050826001819055508160018111156101e5576101e461037b565b5b60e08160018111156101fa576101f961037b565b5b815250508073ffffffffffffffffffffffffffffffffffffffff1660c08173ffffffffffffffffffffffffffffffffffffffff16815250506001544261024091906103d5565b6002819055505050505050610408565b5f5ffd5b5f73ffffffffffffffffffffffffffffffffffffffff82169050919050565b5f61027d82610254565b9050919050565b61028d81610273565b8114610297575f5ffd5b50565b5f815190506102a881610284565b92915050565b5f819050919050565b6102c0816102ae565b81146102ca575f5ffd5b50565b5f815190506102db816102b7565b92915050565b600281106102ed575f5ffd5b50565b5f815190506102fe816102e1565b92915050565b5f5f5f5f5f60a0868803121561031d5761031c610250565b5b5f61032a8882890161029a565b955050602061033b8882890161029a565b945050604061034c888289016102cd565b935050606061035d888289016102f0565b925050608061036e8882890161029a565b9150509295509295909350565b7f4e487b71000000000000000000000000000000000000000000000000000000005f52602160045260245ffd5b7f4e487b71000000000000000000000000000000000000000000000000000000005f52601160045260245ffd5b5f6103df826102ae565b91506103ea836102ae565b9250828201905080821115610402576104016103a8565b5b92915050565b60805160a05160c05160e05161163d6104dc5f395f818161045d01528181610495015281816108b3015281816108eb015281816109d101528181610ada01528181610b1201528181610dfe0152610e3601525f8181610a1901528181610b7b0152610f4401525f81816102d6015281816105fb01528181610fdb015261119301525f818161027f01528181610365015281816107850152818161081b01528181610961015281816109f501528181610a4201528181610bbb01528181610c8c01528181610d060152611103015261163d5ff3fe6080604052600436106100a6575f3560e01c80639d76ea58116100635780639d76ea5814610184578063b69ef8a8146101ae578063b79092fd146101d8578063bf4feef614610200578063c20938e01461022a578063f851a44014610252576100a6565b806312065fe0146100aa57806336118b52146100d45780633fd8b02f146100fc578063439370b11461012657806361e2d6a4146101305780638da5cb5b1461015a575b5f5ffd5b3480156100b5575f5ffd5b506100be61027c565b6040516100cb91906111cd565b60405180910390f35b3480156100df575f5ffd5b506100fa60048036038101906100f5919061126e565b610363565b005b348015610107575f5ffd5b50610110610813565b60405161011d91906111cd565b60405180910390f35b61012e610819565b005b34801561013b575f5ffd5b506101446109cf565b604051610151919061131f565b60405180910390f35b348015610165575f5ffd5b5061016e6109f3565b60405161017b9190611347565b60405180910390f35b34801561018f575f5ffd5b50610198610a17565b6040516101a59190611347565b60405180910390f35b3480156101b9575f5ffd5b506101c2610a3b565b6040516101cf91906111cd565b60405180910390f35b3480156101e3575f5ffd5b506101fe60048036038101906101f99190611360565b610a40565b005b34801561020b575f5ffd5b50610214610cfe565b60405161022191906111cd565b60405180910390f35b348015610235575f5ffd5b50610250600480360381019061024b919061126e565b610d04565b005b34801561025d575f5ffd5b50610266611191565b6040516102739190611347565b60405180910390f35b5f7f000000000000000000000000000000000000000000000000000000000000000073ffffffffffffffffffffffffffffffffffffffff163373ffffffffffffffffffffffffffffffffffffffff161415801561032557507f000000000000000000000000000000000000000000000000000000000000000073ffffffffffffffffffffffffffffffffffffffff163373ffffffffffffffffffffffffffffffffffffffff1614155b1561035c576040517f80e77adc00000000000000000000000000000000000000000000000000000000815260040160405180910390fd5b5f54905090565b7f000000000000000000000000000000000000000000000000000000000000000073ffffffffffffffffffffffffffffffffffffffff163373ffffffffffffffffffffffffffffffffffffffff16146103e8576040517f80e77adc00000000000000000000000000000000000000000000000000000000815260040160405180910390fd5b60035f9054906101000a900460ff161561042e576040517f259a9fd200000000000000000000000000000000000000000000000000000000815260040160405180910390fd5b600160035f6101000a81548160ff0219169083151502179055505f600181111561045b5761045a6112ac565b5b7f0000000000000000000000000000000000000000000000000000000000000000600181111561048e5761048d6112ac565b5b146104f2577f00000000000000000000000000000000000000000000000000000000000000005f6040517f54afff860000000000000000000000000000000000000000000000000000000081526004016104e992919061138b565b60405180910390fd5b5f73ffffffffffffffffffffffffffffffffffffffff168173ffffffffffffffffffffffffffffffffffffffff1603610557576040517fc406521500000000000000000000000000000000000000000000000000000000815260040160405180910390fd5b5f548211156105a0575f54826040517f41366ed60000000000000000000000000000000000000000000000000000000081526004016105979291906113b2565b60405180910390fd5b5f5f90506002544210156105ca5760646003846105bd9190611406565b6105c79190611474565b90505b5f81846105d791906114a4565b9050835f5f8282546105e991906114a4565b925050819055505f8211156106b9575f7f000000000000000000000000000000000000000000000000000000000000000073ffffffffffffffffffffffffffffffffffffffff168360405161063d90611504565b5f6040518083038185875af1925050503d805f8114610677576040519150601f19603f3d011682016040523d82523d5f602084013e61067c565b606091505b50509050806106b7576040517f76adf3e600000000000000000000000000000000000000000000000000000000815260040160405180910390fd5b505b5f8373ffffffffffffffffffffffffffffffffffffffff16826040516106de90611504565b5f6040518083038185875af1925050503d805f8114610718576040519150601f19603f3d011682016040523d82523d5f602084013e61071d565b606091505b5050905080610758576040517f76adf3e600000000000000000000000000000000000000000000000000000000815260040160405180910390fd5b600154426107669190611518565b6002819055508373ffffffffffffffffffffffffffffffffffffffff167f000000000000000000000000000000000000000000000000000000000000000073ffffffffffffffffffffffffffffffffffffffff167fc2b4a290c20fb28939d29f102514fbffd2b73c059ffba8b78250c94161d5fcc684866040516107eb9291906113b2565b60405180910390a35050505f60035f6101000a81548160ff0219169083151502179055505050565b60015481565b7f000000000000000000000000000000000000000000000000000000000000000073ffffffffffffffffffffffffffffffffffffffff163373ffffffffffffffffffffffffffffffffffffffff161461089e576040517f80e77adc00000000000000000000000000000000000000000000000000000000815260040160405180910390fd5b5f60018111156108b1576108b06112ac565b5b7f000000000000000000000000000000000000000000000000000000000000000060018111156108e4576108e36112ac565b5b14610948577f00000000000000000000000000000000000000000000000000000000000000005f6040517f54afff8600000000000000000000000000000000000000000000000000000000815260040161093f92919061138b565b60405180910390fd5b345f5f8282546109589190611518565b925050819055507f000000000000000000000000000000000000000000000000000000000000000073ffffffffffffffffffffffffffffffffffffffff167fe1fffcc4923d04b559f4d29a8bfc6cda04eb5b0d3c460751c2402c5c5cc9109c346040516109c591906111cd565b60405180910390a2565b7f000000000000000000000000000000000000000000000000000000000000000081565b7f000000000000000000000000000000000000000000000000000000000000000081565b7f000000000000000000000000000000000000000000000000000000000000000081565b5f5481565b7f000000000000000000000000000000000000000000000000000000000000000073ffffffffffffffffffffffffffffffffffffffff163373ffffffffffffffffffffffffffffffffffffffff1614610ac5576040517f80e77adc00000000000000000000000000000000000000000000000000000000815260040160405180910390fd5b600180811115610ad857610ad76112ac565b5b7f00000000000000000000000000000000000000000000000000000000000000006001811115610b0b57610b0a6112ac565b5b14610b70577f000000000000000000000000000000000000000000000000000000000000000060016040517f54afff86000000000000000000000000000000000000000000000000000000008152600401610b6792919061138b565b60405180910390fd5b5f810315610cfb575f7f000000000000000000000000000000000000000000000000000000000000000090505f8173ffffffffffffffffffffffffffffffffffffffff166323b872dd7f000000000000000000000000000000000000000000000000000000000000000030866040518463ffffffff1660e01b8152600401610bfa9392919061154b565b6020604051808303815f875af1158015610c16573d5f5f3e3d5ffd5b505050506040513d601f19601f82011682018060405250810190610c3a91906115b5565b905080610c73576040517f28e13ae900000000000000000000000000000000000000000000000000000000815260040160405180910390fd5b825f5f828254610c839190611518565b925050819055507f000000000000000000000000000000000000000000000000000000000000000073ffffffffffffffffffffffffffffffffffffffff167fe1fffcc4923d04b559f4d29a8bfc6cda04eb5b0d3c460751c2402c5c5cc9109c84604051610cf091906111cd565b60405180910390a250505b50565b60025481565b7f000000000000000000000000000000000000000000000000000000000000000073ffffffffffffffffffffffffffffffffffffffff163373ffffffffffffffffffffffffffffffffffffffff1614610d89576040517f80e77adc00000000000000000000000000000000000000000000000000000000815260040160405180910390fd5b60035f9054906101000a900460ff1615610dcf576040517f259a9fd200000000000000000000000000000000000000000000000000000000815260040160405180910390fd5b600160035f6101000a81548160ff021916908315150217905550600180811115610dfc57610dfb6112ac565b5b7f00000000000000000000000000000000000000000000000000000000000000006001811115610e2f57610e2e6112ac565b5b14610e93577f00000000000000000000000000000000000000000000000000000000000000005f6040517f54afff86000000000000000000000000000000000000000000000000000000008152600401610e8a92919061138b565b60405180910390fd5b5f73ffffffffffffffffffffffffffffffffffffffff168173ffffffffffffffffffffffffffffffffffffffff1603610ef8576040517fc406521500000000000000000000000000000000000000000000000000000000815260040160405180910390fd5b5f54821115610f41575f54826040517f41366ed6000000000000000000000000000000000000000000000000000000008152600401610f389291906113b2565b60405180910390fd5b5f7f000000000000000000000000000000000000000000000000000000000000000090505f5f9050600254421015610f8f576064600385610f829190611406565b610f8c9190611474565b90505b5f8185610f9c91906114a4565b9050845f5f828254610fae91906114a4565b925050819055505f82111561105a578273ffffffffffffffffffffffffffffffffffffffff1663a9059cbb7f0000000000000000000000000000000000000000000000000000000000000000846040518363ffffffff1660e01b81526004016110189291906115e0565b6020604051808303815f875af1158015611034573d5f5f3e3d5ffd5b505050506040513d601f19601f8201168201806040525081019061105891906115b5565b505b8273ffffffffffffffffffffffffffffffffffffffff1663a9059cbb85836040518363ffffffff1660e01b81526004016110959291906115e0565b6020604051808303815f875af11580156110b1573d5f5f3e3d5ffd5b505050506040513d601f19601f820116820180604052508101906110d591906115b5565b50600154426110e49190611518565b6002819055508373ffffffffffffffffffffffffffffffffffffffff167f000000000000000000000000000000000000000000000000000000000000000073ffffffffffffffffffffffffffffffffffffffff167fc2b4a290c20fb28939d29f102514fbffd2b73c059ffba8b78250c94161d5fcc683856040516111699291906113b2565b60405180910390a35050505f60035f6101000a81548160ff0219169083151502179055505050565b7f000000000000000000000000000000000000000000000000000000000000000081565b5f819050919050565b6111c7816111b5565b82525050565b5f6020820190506111e05f8301846111be565b92915050565b5f5ffd5b6111f3816111b5565b81146111fd575f5ffd5b50565b5f8135905061120e816111ea565b92915050565b5f73ffffffffffffffffffffffffffffffffffffffff82169050919050565b5f61123d82611214565b9050919050565b61124d81611233565b8114611257575f5ffd5b50565b5f8135905061126881611244565b92915050565b5f5f60408385031215611284576112836111e6565b5b5f61129185828601611200565b92505060206112a28582860161125a565b9150509250929050565b7f4e487b71000000000000000000000000000000000000000000000000000000005f52602160045260245ffd5b600281106112ea576112e96112ac565b5b50565b5f8190506112fa826112d9565b919050565b5f611309826112ed565b9050919050565b611319816112ff565b82525050565b5f6020820190506113325f830184611310565b92915050565b61134181611233565b82525050565b5f60208201905061135a5f830184611338565b92915050565b5f60208284031215611375576113746111e6565b5b5f61138284828501611200565b91505092915050565b5f60408201905061139e5f830185611310565b6113ab6020830184611310565b9392505050565b5f6040820190506113c55f8301856111be565b6113d260208301846111be565b9392505050565b7f4e487b71000000000000000000000000000000000000000000000000000000005f52601160045260245ffd5b5f611410826111b5565b915061141b836111b5565b9250828202611429816111b5565b915082820484148315176114405761143f6113d9565b5b5092915050565b7f4e487b71000000000000000000000000000000000000000000000000000000005f52601260045260245ffd5b5f61147e826111b5565b9150611489836111b5565b92508261149957611498611447565b5b828204905092915050565b5f6114ae826111b5565b91506114b9836111b5565b92508282039050818111156114d1576114d06113d9565b5b92915050565b5f81905092915050565b50565b5f6114ef5f836114d7565b91506114fa826114e1565b5f82019050919050565b5f61150e826114e4565b9150819050919050565b5f611522826111b5565b915061152d836111b5565b9250828201905080821115611545576115446113d9565b5b92915050565b5f60608201905061155e5f830186611338565b61156b6020830185611338565b61157860408301846111be565b949350505050565b5f8115159050919050565b61159481611580565b811461159e575f5ffd5b50565b5f815190506115af8161158b565b92915050565b5f602082840312156115ca576115c96111e6565b5b5f6115d7848285016115a1565b91505092915050565b5f6040820190506115f35f830185611338565b61160060208301846111be565b939250505056fea26469706673582212203dc8128bbdbb61d770c67abfecb7e294c5f24b2732d5ea69ea522eda190e0c8964736f6c634300081e0033a264697066735822122087882e811bc06f43bacfd74e8eb909541f4c3f552bcb23f3644ca664458c391a64736f6c634300081e0033","linkReferences":{}},"methodIdentifiers":{"admin()":"f851a440","allAccounts(uint256)":"6c3fda1d","createAccount(uint8,uint256,address)":"6fbbd640","getAccountsForUser(address)":"1eb9ef91","getNumberOfAccountsForUser(address)":"79253728","userToAccounts(address,uint256)":"169b7012"},"id":1}