{
  "_format": "hh-sol-artifact-1",
  "contractName": "ERC20Token",
  "sourceName": "contracts/ERC20Token.sol",
  "abi": [
    {
      "inputs": [],
      "stateMutability": "nonpayable",
      "type": "constructor"
    },
    {
      "inputs": [],
      "name": "InsufficientBalance",
      "type": "error"
    },
    {
      "inputs": [],
      "name": "InvalidAddress",
      "type": "error"
    },
    {
      "inputs": [],
      "name": "NotAllow",
      "type": "error"
    },
    {
      "inputs": [],
      "name": "Unauthorized",
      "type": "error"
    },
    {
      "anonymous": false,
      "inputs": [
        {
          "indexed": false,
          "internalType": "address",
          "name": "owner",
          "type": "address"
        },
        {
          "indexed": false,
          "internalType": "address",
          "name": "spender",
          "type": "address"
        },
        {
          "indexed": false,
          "internalType": "uint256",
          "name": "value",
          "type": "uint256"
        }
      ],
      "name": "Approval",
      "type": "event"
    },
    {
      "anonymous": false,
      "inputs": [
        {
          "indexed": false,
          "internalType": "address",
          "name": "from",
          "type": "address"
        },
        {
          "indexed": false,
          "internalType": "address",
          "name": "to",
          "type": "address"
        },
        {
          "indexed": false,
          "internalType": "uint256",
          "name": "value",
          "type": "uint256"
        }
      ],
      "name": "Transfer",
      "type": "event"
    },
    {
      "stateMutability": "nonpayable",
      "type": "fallback"
    },
    {
      "inputs": [
        {
          "internalType": "address",
          "name": "",
          "type": "address"
        },
        {
          "internalType": "address",
          "name": "",
          "type": "address"
        }
      ],
      "name": "allowance",
      "outputs": [
        {
          "internalType": "uint256",
          "name": "",
          "type": "uint256"
        }
      ],
      "stateMutability": "view",
      "type": "function"
    },
    {
      "inputs": [
        {
          "internalType": "address",
          "name": "_spender",
          "type": "address"
        },
        {
          "internalType": "uint256",
          "name": "_value",
          "type": "uint256"
        }
      ],
      "name": "approve",
      "outputs": [],
      "stateMutability": "nonpayable",
      "type": "function"
    },
    {
      "inputs": [
        {
          "internalType": "address",
          "name": "",
          "type": "address"
        }
      ],
      "name": "balanceOf",
      "outputs": [
        {
          "internalType": "uint256",
          "name": "",
          "type": "uint256"
        }
      ],
      "stateMutability": "view",
      "type": "function"
    },
    {
      "inputs": [],
      "name": "contractBalance",
      "outputs": [
        {
          "internalType": "uint256",
          "name": "",
          "type": "uint256"
        }
      ],
      "stateMutability": "view",
      "type": "function"
    },
    {
      "inputs": [],
      "name": "getTokenDetails",
      "outputs": [
        {
          "internalType": "string",
          "name": "",
          "type": "string"
        },
        {
          "internalType": "string",
          "name": "",
          "type": "string"
        },
        {
          "internalType": "uint8",
          "name": "",
          "type": "uint8"
        },
        {
          "internalType": "uint256",
          "name": "",
          "type": "uint256"
        }
      ],
      "stateMutability": "view",
      "type": "function"
    },
    {
      "inputs": [],
      "name": "getbalance",
      "outputs": [
        {
          "internalType": "uint256",
          "name": "",
          "type": "uint256"
        }
      ],
      "stateMutability": "view",
      "type": "function"
    },
    {
      "inputs": [
        {
          "internalType": "address",
          "name": "_to",
          "type": "address"
        },
        {
          "internalType": "uint256",
          "name": "_value",
          "type": "uint256"
        }
      ],
      "name": "transfer",
      "outputs": [],
      "stateMutability": "nonpayable",
      "type": "function"
    },
    {
      "inputs": [
        {
          "internalType": "address",
          "name": "from",
          "type": "address"
        },
        {
          "internalType": "address",
          "name": "to",
          "type": "address"
        },
        {
          "internalType": "uint256",
          "name": "value",
          "type": "uint256"
        }
      ],
      "name": "transferFrom",
      "outputs": [],
      "stateMutability": "nonpayable",
      "type": "function"
    },
    {
      "stateMutability": "payable",
      "type": "receive"
    }
  ],
  "bytecode": "0x60806040526040518060400160405280600581526020017f41737365740000000000000000000000000000000000000000000000000000008152506000908161004891906103a8565b506040518060400160405280600381526020017f41535400000000000000000000000000000000000000000000000000000000008152506001908161008d91906103a8565b506012600260006101000a81548160ff021916908360ff16021790555069010f0cf064dd592000006003553480156100c457600080fd5b5033600460006101000a81548173ffffffffffffffffffffffffffffffffffffffff021916908373ffffffffffffffffffffffffffffffffffffffff16021790555068d8d726b7177a800000600560003373ffffffffffffffffffffffffffffffffffffffff1673ffffffffffffffffffffffffffffffffffffffff1681526020019081526020016000208190555061047a565b600081519050919050565b7f4e487b7100000000000000000000000000000000000000000000000000000000600052604160045260246000fd5b7f4e487b7100000000000000000000000000000000000000000000000000000000600052602260045260246000fd5b600060028204905060018216806101d957607f821691505b6020821081036101ec576101eb610192565b5b50919050565b60008190508160005260206000209050919050565b60006020601f8301049050919050565b600082821b905092915050565b6000600883026102547fffffffffffffffffffffffffffffffffffffffffffffffffffffffffffffffff82610217565b61025e8683610217565b95508019841693508086168417925050509392505050565b6000819050919050565b6000819050919050565b60006102a56102a061029b84610276565b610280565b610276565b9050919050565b6000819050919050565b6102bf8361028a565b6102d36102cb826102ac565b848454610224565b825550505050565b600090565b6102e86102db565b6102f38184846102b6565b505050565b5b818110156103175761030c6000826102e0565b6001810190506102f9565b5050565b601f82111561035c5761032d816101f2565b61033684610207565b81016020851015610345578190505b61035961035185610207565b8301826102f8565b50505b505050565b600082821c905092915050565b600061037f60001984600802610361565b1980831691505092915050565b6000610398838361036e565b9150826002028217905092915050565b6103b182610158565b67ffffffffffffffff8111156103ca576103c9610163565b5b6103d482546101c1565b6103df82828561031b565b600060209050601f8311600181146104125760008415610400578287015190505b61040a858261038c565b865550610472565b601f198416610420866101f2565b60005b8281101561044857848901518255600182019150602085019450602081019050610423565b868310156104655784890151610461601f89168261036e565b8355505b6001600288020188555050505b505050505050565b610f35806104896000396000f3fe60806040526004361061007f5760003560e01c80638b7afe2e1161004e5780638b7afe2e1461014e578063a9059cbb14610179578063dd62ed3e146101a2578063ff332ab7146101df57610086565b8063095ea7b31461009457806323b872dd146100bd5780634d9b3d5d146100e657806370a082311461011157610086565b3661008657005b34801561009257600080fd5b005b3480156100a057600080fd5b506100bb60048036038101906100b69190610b99565b61020d565b005b3480156100c957600080fd5b506100e460048036038101906100df9190610bd9565b610433565b005b3480156100f257600080fd5b506100fb610746565b6040516101089190610c3b565b60405180910390f35b34801561011d57600080fd5b5061013860048036038101906101339190610c56565b61078d565b6040516101459190610c3b565b60405180910390f35b34801561015a57600080fd5b506101636107a5565b6040516101709190610c3b565b60405180910390f35b34801561018557600080fd5b506101a0600480360381019061019b9190610b99565b6107ad565b005b3480156101ae57600080fd5b506101c960048036038101906101c49190610c83565b610998565b6040516101d69190610c3b565b60405180910390f35b3480156101eb57600080fd5b506101f46109bd565b6040516102049493929190610d6f565b60405180910390f35b600560003373ffffffffffffffffffffffffffffffffffffffff1673ffffffffffffffffffffffffffffffffffffffff16815260200190815260200160002054811115610286576040517ff4d678b800000000000000000000000000000000000000000000000000000000815260040160405180910390fd5b3373ffffffffffffffffffffffffffffffffffffffff16600460009054906101000a900473ffffffffffffffffffffffffffffffffffffffff1673ffffffffffffffffffffffffffffffffffffffff161461030d576040517f82b4290000000000000000000000000000000000000000000000000000000000815260040160405180910390fd5b600073ffffffffffffffffffffffffffffffffffffffff168273ffffffffffffffffffffffffffffffffffffffff1603610373576040517fe6c4247b00000000000000000000000000000000000000000000000000000000815260040160405180910390fd5b80600660003373ffffffffffffffffffffffffffffffffffffffff1673ffffffffffffffffffffffffffffffffffffffff16815260200190815260200160002060008473ffffffffffffffffffffffffffffffffffffffff1673ffffffffffffffffffffffffffffffffffffffff168152602001908152602001600020819055507f8c5be1e5ebec7d5bd14f71427d1e84f3dd0314c0f7b2291e5b200ac8c7c3b92533838360405161042793929190610dd1565b60405180910390a15050565b80600560008573ffffffffffffffffffffffffffffffffffffffff1673ffffffffffffffffffffffffffffffffffffffff1681526020019081526020016000205410156104ac576040517ff4d678b800000000000000000000000000000000000000000000000000000000815260040160405180910390fd5b80600660008573ffffffffffffffffffffffffffffffffffffffff1673ffffffffffffffffffffffffffffffffffffffff16815260200190815260200160002060003373ffffffffffffffffffffffffffffffffffffffff1673ffffffffffffffffffffffffffffffffffffffff168152602001908152602001600020541015610562576040517fdc4a92ff00000000000000000000000000000000000000000000000000000000815260040160405180910390fd5b600073ffffffffffffffffffffffffffffffffffffffff168373ffffffffffffffffffffffffffffffffffffffff161415806105cb5750600073ffffffffffffffffffffffffffffffffffffffff168273ffffffffffffffffffffffffffffffffffffffff1614155b15610602576040517fe6c4247b00000000000000000000000000000000000000000000000000000000815260040160405180910390fd5b80600560008573ffffffffffffffffffffffffffffffffffffffff1673ffffffffffffffffffffffffffffffffffffffff16815260200190815260200160002060008282546106519190610e37565b9250508190555080600560008473ffffffffffffffffffffffffffffffffffffffff1673ffffffffffffffffffffffffffffffffffffffff16815260200190815260200160002060008282546106a79190610e6b565b9250508190555080600660008573ffffffffffffffffffffffffffffffffffffffff1673ffffffffffffffffffffffffffffffffffffffff16815260200190815260200160002060003373ffffffffffffffffffffffffffffffffffffffff1673ffffffffffffffffffffffffffffffffffffffff168152602001908152602001600020600082825461073a9190610e37565b92505081905550505050565b6000600560003373ffffffffffffffffffffffffffffffffffffffff1673ffffffffffffffffffffffffffffffffffffffff16815260200190815260200160002054905090565b60056020528060005260406000206000915090505481565b600047905090565b80600560003373ffffffffffffffffffffffffffffffffffffffff1673ffffffffffffffffffffffffffffffffffffffff168152602001908152602001600020541015610826576040517ff4d678b800000000000000000000000000000000000000000000000000000000815260040160405180910390fd5b3373ffffffffffffffffffffffffffffffffffffffff16600460009054906101000a900473ffffffffffffffffffffffffffffffffffffffff1673ffffffffffffffffffffffffffffffffffffffff16146108ad576040517f82b4290000000000000000000000000000000000000000000000000000000000815260040160405180910390fd5b80600560003373ffffffffffffffffffffffffffffffffffffffff1673ffffffffffffffffffffffffffffffffffffffff16815260200190815260200160002060008282546108fc9190610e37565b9250508190555080600560008473ffffffffffffffffffffffffffffffffffffffff1673ffffffffffffffffffffffffffffffffffffffff16815260200190815260200160002060008282546109529190610e6b565b925050819055507fddf252ad1be2c89b69c2b068fc378daa952ba7f163c4a11628f55a4df523b3ef33838360405161098c93929190610dd1565b60405180910390a15050565b6006602052816000526040600020602052806000526040600020600091509150505481565b60608060008060006001600260009054906101000a900460ff166003548380546109e690610ece565b80601f0160208091040260200160405190810160405280929190818152602001828054610a1290610ece565b8015610a5f5780601f10610a3457610100808354040283529160200191610a5f565b820191906000526020600020905b815481529060010190602001808311610a4257829003601f168201915b50505050509350828054610a7290610ece565b80601f0160208091040260200160405190810160405280929190818152602001828054610a9e90610ece565b8015610aeb5780601f10610ac057610100808354040283529160200191610aeb565b820191906000526020600020905b815481529060010190602001808311610ace57829003601f168201915b50505050509250935093509350935090919293565b600080fd5b600073ffffffffffffffffffffffffffffffffffffffff82169050919050565b6000610b3082610b05565b9050919050565b610b4081610b25565b8114610b4b57600080fd5b50565b600081359050610b5d81610b37565b92915050565b6000819050919050565b610b7681610b63565b8114610b8157600080fd5b50565b600081359050610b9381610b6d565b92915050565b60008060408385031215610bb057610baf610b00565b5b6000610bbe85828601610b4e565b9250506020610bcf85828601610b84565b9150509250929050565b600080600060608486031215610bf257610bf1610b00565b5b6000610c0086828701610b4e565b9350506020610c1186828701610b4e565b9250506040610c2286828701610b84565b9150509250925092565b610c3581610b63565b82525050565b6000602082019050610c506000830184610c2c565b92915050565b600060208284031215610c6c57610c6b610b00565b5b6000610c7a84828501610b4e565b91505092915050565b60008060408385031215610c9a57610c99610b00565b5b6000610ca885828601610b4e565b9250506020610cb985828601610b4e565b9150509250929050565b600081519050919050565b600082825260208201905092915050565b60005b83811015610cfd578082015181840152602081019050610ce2565b60008484015250505050565b6000601f19601f8301169050919050565b6000610d2582610cc3565b610d2f8185610cce565b9350610d3f818560208601610cdf565b610d4881610d09565b840191505092915050565b600060ff82169050919050565b610d6981610d53565b82525050565b60006080820190508181036000830152610d898187610d1a565b90508181036020830152610d9d8186610d1a565b9050610dac6040830185610d60565b610db96060830184610c2c565b95945050505050565b610dcb81610b25565b82525050565b6000606082019050610de66000830186610dc2565b610df36020830185610dc2565b610e006040830184610c2c565b949350505050565b7f4e487b7100000000000000000000000000000000000000000000000000000000600052601160045260246000fd5b6000610e4282610b63565b9150610e4d83610b63565b9250828203905081811115610e6557610e64610e08565b5b92915050565b6000610e7682610b63565b9150610e8183610b63565b9250828201905080821115610e9957610e98610e08565b5b92915050565b7f4e487b7100000000000000000000000000000000000000000000000000000000600052602260045260246000fd5b60006002820490506001821680610ee657607f821691505b602082108103610ef957610ef8610e9f565b5b5091905056fea2646970667358221220046c016b32bb2658b46a97ec3a83a209999e85e531760d7f47a1731c852cc1da64736f6c634300081c0033",
  "linkReferences": {},
  "deployedLinkReferences": {}
}