{"contracts/LootBox.sol":{"LootBox":{"abi":[{"inputs":[{"internalType":"uint64","name":"_subscriptionId","type":"uint64"},{"internalType":"address","name":"_erc20Token","type":"address"},{"internalType":"address","name":"_erc721Token","type":"address"},{"internalType":"address","name":"_erc1155Token","type":"address"},{"internalType":"uint256","name":"_erc1155TokenId","type":"uint256"}],"stateMutability":"nonpayable","type":"constructor"},{"inputs":[],"name":"InsufficientInventory","type":"error"},{"inputs":[],"name":"InsufficientPayment","type":"error"},{"inputs":[],"name":"InvalidRequest","type":"error"},{"inputs":[],"name":"InvalidTierConfiguration","type":"error"},{"inputs":[{"internalType":"address","name":"have","type":"address"},{"internalType":"address","name":"want","type":"address"}],"name":"OnlyCoordinatorCanFulfill","type":"error"},{"inputs":[{"internalType":"address","name":"owner","type":"address"}],"name":"OwnableInvalidOwner","type":"error"},{"inputs":[{"internalType":"address","name":"account","type":"address"}],"name":"OwnableUnauthorizedAccount","type":"error"},{"inputs":[],"name":"ReentrancyGuardReentrantCall","type":"error"},{"inputs":[],"name":"TransferFailed","type":"error"},{"anonymous":false,"inputs":[{"indexed":true,"internalType":"address","name":"user","type":"address"},{"indexed":false,"internalType":"uint256","name":"requestId","type":"uint256"}],"name":"BoxOpened","type":"event"},{"anonymous":false,"inputs":[{"indexed":true,"internalType":"address","name":"owner","type":"address"},{"indexed":false,"internalType":"uint256","name":"amount","type":"uint256"}],"name":"FundsWithdrawn","type":"event"},{"anonymous":false,"inputs":[{"indexed":false,"internalType":"string","name":"tokenType","type":"string"},{"indexed":false,"internalType":"uint256","name":"amount","type":"uint256"}],"name":"InventoryReplenished","type":"event"},{"anonymous":false,"inputs":[{"indexed":true,"internalType":"address","name":"previousOwner","type":"address"},{"indexed":true,"internalType":"address","name":"newOwner","type":"address"}],"name":"OwnershipTransferred","type":"event"},{"anonymous":false,"inputs":[{"indexed":true,"internalType":"address","name":"user","type":"address"},{"indexed":false,"internalType":"string","name":"rewardType","type":"string"},{"indexed":false,"internalType":"uint256","name":"amount","type":"uint256"},{"indexed":false,"internalType":"uint256","name":"tokenId","type":"uint256"}],"name":"RewardAssigned","type":"event"},{"anonymous":false,"inputs":[{"indexed":true,"internalType":"uint256","name":"tierId","type":"uint256"},{"indexed":false,"internalType":"uint256","name":"weight","type":"uint256"},{"indexed":false,"internalType":"uint256","name":"minAmount","type":"uint256"},{"indexed":false,"internalType":"uint256","name":"maxAmount","type":"uint256"}],"name":"RewardTierUpdated","type":"event"},{"anonymous":false,"inputs":[{"indexed":false,"internalType":"address","name":"erc20","type":"address"},{"indexed":false,"internalType":"address","name":"erc721","type":"address"},{"indexed":false,"internalType":"address","name":"erc1155","type":"address"},{"indexed":false,"internalType":"uint256","name":"erc1155TokenId","type":"uint256"}],"name":"TokenContractsUpdated","type":"event"},{"inputs":[],"name":"availableERC721Count","outputs":[{"internalType":"uint256","name":"","type":"uint256"}],"stateMutability":"view","type":"function"},{"inputs":[{"internalType":"uint256","name":"","type":"uint256"}],"name":"availableERC721Tokens","outputs":[{"internalType":"uint256","name":"","type":"uint256"}],"stateMutability":"view","type":"function"},{"inputs":[],"name":"boxPrice","outputs":[{"internalType":"uint256","name":"","type":"uint256"}],"stateMutability":"view","type":"function"},{"inputs":[{"internalType":"address","name":"nftContract","type":"address"},{"internalType":"uint256","name":"tokenId","type":"uint256"}],"name":"emergencyWithdrawNFT","outputs":[],"stateMutability":"nonpayable","type":"function"},{"inputs":[{"internalType":"address","name":"token","type":"address"},{"internalType":"uint256","name":"amount","type":"uint256"}],"name":"emergencyWithdrawTokens","outputs":[],"stateMutability":"nonpayable","type":"function"},{"inputs":[],"name":"getInventoryStatus","outputs":[{"internalType":"uint256","name":"erc20Balance","type":"uint256"},{"internalType":"uint256","name":"erc1155Balance","type":"uint256"},{"internalType":"uint256","name":"erc721Count","type":"uint256"}],"stateMutability":"view","type":"function"},{"inputs":[{"internalType":"uint256","name":"requestId","type":"uint256"}],"name":"getPendingRequest","outputs":[{"components":[{"internalType":"address","name":"user","type":"address"},{"internalType":"uint256","name":"timestamp","type":"uint256"},{"internalType":"bool","name":"fulfilled","type":"bool"}],"internalType":"struct LootBox.PendingRequest","name":"","type":"tuple"}],"stateMutability":"view","type":"function"},{"inputs":[{"internalType":"uint256","name":"tierId","type":"uint256"}],"name":"getRewardTier","outputs":[{"components":[{"internalType":"uint256","name":"weight","type":"uint256"},{"internalType":"uint256","name":"minAmount","type":"uint256"},{"internalType":"uint256","name":"maxAmount","type":"uint256"},{"internalType":"bool","name":"active","type":"bool"}],"internalType":"struct LootBox.RewardTier","name":"","type":"tuple"}],"stateMutability":"view","type":"function"},{"inputs":[{"internalType":"address","name":"","type":"address"},{"internalType":"address","name":"","type":"address"},{"internalType":"uint256[]","name":"","type":"uint256[]"},{"internalType":"uint256[]","name":"","type":"uint256[]"},{"internalType":"bytes","name":"","type":"bytes"}],"name":"onERC1155BatchReceived","outputs":[{"internalType":"bytes4","name":"","type":"bytes4"}],"stateMutability":"nonpayable","type":"function"},{"inputs":[{"internalType":"address","name":"","type":"address"},{"internalType":"address","name":"","type":"address"},{"internalType":"uint256","name":"","type":"uint256"},{"internalType":"uint256","name":"","type":"uint256"},{"internalType":"bytes","name":"","type":"bytes"}],"name":"onERC1155Received","outputs":[{"internalType":"bytes4","name":"","type":"bytes4"}],"stateMutability":"nonpayable","type":"function"},{"inputs":[{"internalType":"address","name":"","type":"address"},{"internalType":"address","name":"","type":"address"},{"internalType":"uint256","name":"","type":"uint256"},{"internalType":"bytes","name":"","type":"bytes"}],"name":"onERC721Received","outputs":[{"internalType":"bytes4","name":"","type":"bytes4"}],"stateMutability":"nonpayable","type":"function"},{"inputs":[],"name":"openBox","outputs":[],"stateMutability":"payable","type":"function"},{"inputs":[],"name":"owner","outputs":[{"internalType":"address","name":"","type":"address"}],"stateMutability":"view","type":"function"},{"inputs":[{"internalType":"uint256","name":"","type":"uint256"}],"name":"pendingRequests","outputs":[{"internalType":"address","name":"user","type":"address"},{"internalType":"uint256","name":"timestamp","type":"uint256"},{"internalType":"bool","name":"fulfilled","type":"bool"}],"stateMutability":"view","type":"function"},{"inputs":[{"internalType":"uint256","name":"requestId","type":"uint256"},{"internalType":"uint256[]","name":"randomWords","type":"uint256[]"}],"name":"rawFulfillRandomWords","outputs":[],"stateMutability":"nonpayable","type":"function"},{"inputs":[],"name":"renounceOwnership","outputs":[],"stateMutability":"nonpayable","type":"function"},{"inputs":[{"internalType":"uint256[]","name":"tokenIds","type":"uint256[]"}],"name":"replenishERC721Inventory","outputs":[],"stateMutability":"nonpayable","type":"function"},{"inputs":[{"internalType":"uint256","name":"","type":"uint256"}],"name":"rewardTiers","outputs":[{"internalType":"uint256","name":"weight","type":"uint256"},{"internalType":"uint256","name":"minAmount","type":"uint256"},{"internalType":"uint256","name":"maxAmount","type":"uint256"},{"internalType":"bool","name":"active","type":"bool"}],"stateMutability":"view","type":"function"},{"inputs":[{"internalType":"bytes4","name":"interfaceId","type":"bytes4"}],"name":"supportsInterface","outputs":[{"internalType":"bool","name":"","type":"bool"}],"stateMutability":"view","type":"function"},{"inputs":[],"name":"tokens","outputs":[{"internalType":"contract IERC20","name":"erc20Token","type":"address"},{"internalType":"contract IERC721","name":"erc721Token","type":"address"},{"internalType":"contract IERC1155","name":"erc1155Token","type":"address"},{"internalType":"uint256","name":"erc1155TokenId","type":"uint256"}],"stateMutability":"view","type":"function"},{"inputs":[],"name":"totalWeight","outputs":[{"internalType":"uint256","name":"","type":"uint256"}],"stateMutability":"view","type":"function"},{"inputs":[{"internalType":"address","name":"newOwner","type":"address"}],"name":"transferOwnership","outputs":[],"stateMutability":"nonpayable","type":"function"},{"inputs":[{"internalType":"uint256","name":"newPrice","type":"uint256"}],"name":"updateBoxPrice","outputs":[],"stateMutability":"nonpayable","type":"function"},{"inputs":[{"internalType":"uint256","name":"tierId","type":"uint256"},{"internalType":"uint256","name":"weight","type":"uint256"},{"internalType":"uint256","name":"minAmount","type":"uint256"},{"internalType":"uint256","name":"maxAmount","type":"uint256"},{"internalType":"bool","name":"active","type":"bool"}],"name":"updateRewardTier","outputs":[],"stateMutability":"nonpayable","type":"function"},{"inputs":[{"internalType":"address","name":"_erc20","type":"address"},{"internalType":"address","name":"_erc721","type":"address"},{"internalType":"address","name":"_erc1155","type":"address"},{"internalType":"uint256","name":"_erc1155TokenId","type":"uint256"}],"name":"updateTokenContracts","outputs":[],"stateMutability":"nonpayable","type":"function"},{"inputs":[],"name":"withdraw","outputs":[],"stateMutability":"nonpayable","type":"function"},{"stateMutability":"payable","type":"receive"}],"evm":{"bytecode":{"linkReferences":{},"object":"60a0604052346102ff57604051601f611d7838819003918201601f19168301916001600160401b038311848410176103045780849260a0946040528339810103126102ff578051906001600160401b03821682036102ff5761006360208201610339565b9061007060408201610339565b91608061007f60608401610339565b9201516003546001600160a01b038116608052909433156102e95760008054336001600160a01b0319821681178355739ddfaca8183c41ad55329bdeed9f6a8d53168b1b94859390926001600160a01b0316907f8be0079c531659141344cd1fd0a4f28419497f9722a3daafe3b4186f6b6457e09080a3600180556001600160a01b031916176003557f787d74caea10b2b357790d5b5247c2f63d1d91572a9846f780606e4d953677ae600455600580546601000300030d406001600160501b031991909116179055662386f26fc10000600a55600280546001600160e01b03191660a09290921b600160a01b600160e01b0316919091179190911790556001600160a01b03918216928216911683606061019861031a565b838152846020820152856040820152015260018060a01b0319600654161760065560018060a01b0319600754161760075560018060a01b031960085416176008556009556102156101e761031a565b603281526802b5e3af16b18800006020820152680ad78ebc5ac6200000604082015260016060820152610382565b61023e61022061031a565b601e815260016020820152600a604082015260016060820152610382565b61026761024961031a565b60148152600160208201526001604082015260016060820152610382565b6000600c5560005b600b548110156102d15760ff60036102868361034d565b50015416610297575b60010161026f565b6102a08161034d565b505490600c549182018092116102bb57600c9190915561028f565b634e487b7160e01b600052601160045260246000fd5b6040516119609081610418823960805181610ec60152f35b631e4fbdf760e01b600052600060045260246000fd5b600080fd5b634e487b7160e01b600052604160045260246000fd5b60405190608082016001600160401b0381118382101761030457604052565b51906001600160a01b03821682036102ff57565b600b5481101561036c57600b60005260206000209060021b0190600090565b634e487b7160e01b600052603260045260246000fd5b600b54680100000000000000008110156103045760018101600b556000600b5482101561040357600b905260021b7f0175b7a638427703f0dbe7bb9bbf987a2551717b34e79f33b5b1008d1fa01db901600360609183518155602084015160018201556040840151600282015501910151151560ff80198354169116179055565b634e487b7160e01b81526032600452602490fdfe608080604052600436101561001d575b50361561001b57600080fd5b005b60003560e01c90816301ffc9a71461147d57508063150b7a02146114285780631fe543e314610e945780632f65e98c14610dc35780633c652a9a14610d735780633ccfd60b14610ceb578063715018a614610c925780638da5cb5b14610c69578063917bb99814610bca578063922b807914610b4057806396c82e5714610b225780639d32d2f714610b045780639d63848a14610ab9578063a648285814610a9b578063aa10b2f414610a6f578063afa92d0d14610a4e578063b2becc2114610929578063bc197c8114610894578063bcd554f61461072f578063c225fbd11461057d578063c2e952c7146103a6578063daf484e01461031c578063eb586cae14610285578063f23a6e6114610230578063f2fde38b146101a75763ff20111414610148573861000f565b346101a25760203660031901126101a257600435600b548110156101a257610171608091611626565b5080549060018101549060ff6003600283015492015416916040519384526020840152604083015215156060820152f35b600080fd5b346101a25760203660031901126101a2576101c06114d0565b6101c8611732565b6001600160a01b0316801561021a57600080546001600160a01b03198116831782556001600160a01b0316907f8be0079c531659141344cd1fd0a4f28419497f9722a3daafe3b4186f6b6457e09080a3005b631e4fbdf760e01b600052600060045260246000fd5b346101a25760a03660031901126101a2576102496114d0565b506102526114e6565b506084356001600160401b0381116101a257610272903690600401611569565b5060405163f23a6e6160e01b8152602090f35b346101a25760203660031901126101a257600060606040516102a6816114fc565b828152826020820152826040820152015260806102c4600435611626565b506040516102d1816114fc565b815491828252600181015460208301908152606060ff600360028501549460408701958652015416930192151583526040519384525160208401525160408301525115156060820152f35b346101a25760203660031901126101a25760006040805161033c8161152d565b8281528260208201520152600435600052600f602052606060406000206040516103658161152d565b60018060a01b0382541691828252604060ff600260018401549360208601948552015416920191151582526040519283525160208301525115156040820152f35b60003660031901126101a2576103ba61175b565b600a54341061056c576103cb61177d565b1561055b5763ffffffff602060025460a460045460006005549360405196879586946305d3b1d360e41b865260048601526001600160401b038360a01c16602486015261ffff81891c166044860152818116606486015260301c16608484015260018060a01b03165af190811561051157600091610526575b506104af6040516104548161152d565b33815260026020820142815260408301906000825285600052600f60205260406000209360018060a01b039051166001600160601b0360a01b85541617845551600184015551151591019060ff801983541691151516179055565b6040519081527fb73d415d4554d9bc64f3fadea1d75caaeb0f4db5b74538b5e5dcbce2660e624060203392a2600a548034116104ec575b60018055005b600080806104fb8194346116eb565b81811561051d575b3390f11561051157806104e6565b6040513d6000823e3d90fd5b506108fc610503565b906020823d602011610553575b8161054060209383611548565b8101031261055057505181610444565b80fd5b3d9150610533565b638b2024a560e01b60005260046000fd5b63cd1c886760e01b60005260046000fd5b346101a25760203660031901126101a2576004356001600160401b0381116101a257366023820112156101a2578060040135906001600160401b0382116101a2573660248360051b830101116101a257906105d6611732565b6000915b818310156106d8576024926000848260051b84010135602060018060a01b0360075416604051978880926331a9108f60e11b82528560048301525afa80156106cd578290610683575b9495509293600193906001600160a01b031630148061066f575b61064c575b50500191906105da565b81604091859352600d6020522055610665600e546116dc565b600e558480610642565b50808252600d60205260408220541561063d565b50946020813d82116106c5575b8161069d60209383611548565b810103126106c15751946001600160a01b03861686036106c1579394859490610623565b5080fd5b3d9150610690565b6040513d84823e3d90fd5b7f6cda8e8be956b74ed7e2d0f733d6dddfcc7b34ce982e77240ad42816639056f58260405180916040825261072460408301604090600681526545524337323160d01b60208201520190565b9060208301520390a1005b346101a25760a03660031901126101a257600435602435604435606435916084358015158091036101a257610762611732565b600b54851015610883578284106108835760405190610780826114fc565b82825260208201918483526040810191868352606082019081526107a388611626565b93909361086d576107d69460039351855551600185015551600284015551151591019060ff801983541691151516179055565b6000600c5560005b600b54811015610825578060ff60036107f8600194611626565b50015416610807575b016107de565b61081d61081382611626565b5054600c54611725565b600c55610801565b506108687f66c998c4f16e6680d6471c293823ebfb3b9f053a14111a2e24f54578c4c7975f93604051938493846040919493926060820195825260208201520152565b0390a2005b634e487b7160e01b600052600060045260246000fd5b63adf8131b60e01b60005260046000fd5b346101a25760a03660031901126101a2576108ad6114d0565b506108b66114e6565b506044356001600160401b0381116101a2576108d69036906004016115bf565b506064356001600160401b0381116101a2576108f69036906004016115bf565b506084356001600160401b0381116101a257610916903690600401611569565b5060405163bc197c8160e01b8152602090f35b346101a25760003660031901126101a2576006546040516370a0823160e01b815230600482015290602090829060249082906001600160a01b03165afa801561051157600090610a1a575b600854600954604051627eeac760e11b81523060048201526024810191909152925060209083906001600160a01b03168180604481015b03915afa918215610511576000926109e6575b506109e2600e54604051938493846040919493926060820195825260208201520152565b0390f35b9091506020813d602011610a12575b81610a0260209383611548565b810103126101a2575190826109be565b3d91506109f5565b506020813d602011610a46575b81610a3460209383611548565b810103126101a2576109ab9051610974565b3d9150610a27565b346101a25760203660031901126101a257610a67611732565b600435600a55005b346101a25760203660031901126101a257600435600052600d6020526020604060002054604051908152f35b346101a25760003660031901126101a2576020600a54604051908152f35b346101a25760003660031901126101a257600654600754600854600954604080516001600160a01b039586168152938516602085015291909316908201526060810191909152608090f35b346101a25760003660031901126101a2576020600e54604051908152f35b346101a25760003660031901126101a2576020600c54604051908152f35b346101a25760403660031901126101a257610b596114d0565b610b61611732565b6000546001600160a01b039081169116803b156101a257604051632142170760e11b81523060048201526001600160a01b038316602480830191909152356044820152906000908290606490829084905af1801561051157610bbf57005b600061001b91611548565b346101a25760403660031901126101a25760006020610c28610bea6114d0565b610bf2611732565b835460405163a9059cbb60e01b81526001600160a01b039091166004820152602480359082015293849283919082906044820190565b03926001600160a01b03165af1801561051157610c4157005b61001b9060203d602011610c62575b610c5a8183611548565b8101906116c4565b503d610c50565b346101a25760003660031901126101a2576000546040516001600160a01b039091168152602090f35b346101a25760003660031901126101a257610cab611732565b600080546001600160a01b0319811682556001600160a01b03167f8be0079c531659141344cd1fd0a4f28419497f9722a3daafe3b4186f6b6457e08280a3005b346101a25760003660031901126101a257610d04611732565b610d0c61175b565b4760008080808460018060a01b03825416828215610d6a575bf115610511576000546040519182526001600160a01b0316907feaff4b37086828766ad3268786972c0cd24259d4c87a80f9d3963a3c3d999b0d90602090a260018055005b506108fc610d25565b346101a25760203660031901126101a257600435600052600f6020526060604060002060018060a01b038154169060ff600260018301549201541690604051928352602083015215156040820152f35b346101a25760803660031901126101a257610ddc6114d0565b610de46114e6565b6044356001600160a01b03811691908290036101a2577ffc333481437d78e9325f635584c23b08b3a65462687211c81ff8da3891851d909260809260643591610e2b611732565b60018060a01b031692836001600160601b0360a01b600654161760065560018060a01b0316806001600160601b0360a01b6007541617600755816001600160601b0360a01b600854161760085582600955604051938452602084015260408301526060820152a1005b346101a25760403660031901126101a2576024356001600160401b0381116101a257610ec49036906004016115bf565b7f00000000000000000000000000000000000000000000000000000000000000006001600160a01b03163381900361141057506004356000908152600f6020526040902080546001600160a01b0316919082158015611402575b6113f157600201805460ff19166001179055610f46610f3c826116f8565b51600c5490611705565b60009190825b600b5484101561001b5760ff6003610f6386611626565b50015416156113e857610f8190610f7985611626565b505490611725565b92838210610f94576001905b0192610f4c565b925050610fa0906116f8565b51610faa82611626565b5091600260018401549301548381116113b5575b50806111025750506006546040516370a0823160e01b81523060048201526001600160a01b0390911690602081602481855afa80156105115783916000916110ce575b501061055b5760405163a9059cbb60e01b81526001600160a01b03841660048201526024810183905290602090829060449082906000905af1908115610511576000916110b0575b501561109f5760a07fbfa71c1f3eab9b9afac3b012c5023dc1113afdcd4a99f488b769ed7b283faaec9160405190606082526005606083015264045524332360dc1b6080830152602082015260006040820152a2005b6312171d8360e31b60005260046000fd5b6110c8915060203d8111610c6257610c5a8183611548565b83611049565b91506020823d82116110fa575b816110e860209383611548565b81010312610550575082905185611001565b3d91506110db565b60018103611243575050600854600954604051627eeac760e11b8152306004820152602481018290526001600160a01b039092169291602081604481875afa801561051157839160009161120f575b501061055b57823b156101a25760009260c484926040519586938492637921219560e11b8452306004850152896024850152604484015286606484015260a060848401528160a48401525af1908115610511577fbfa71c1f3eab9b9afac3b012c5023dc1113afdcd4a99f488b769ed7b283faaec9260a0926111fe575b50600954604051916060835260076060840152664552433131353560c81b608084015260208301526040820152a2005b600061120991611548565b846111ce565b91506020823d821161123b575b8161122960209383611548565b81010312610550575082905186611151565b3d915061121c565b60029192501461124f57005b600e54801561055b5761126191611705565b60008091815b6103e88110611372575b50506007546001600160a01b03169050803b156101a257604051632142170760e11b81523060048201526001600160a01b038416602482015260448101839052906000908290606490829084905af1801561051157611361575b5080600052600d60205260006040812055600e5490811561134b577fbfa71c1f3eab9b9afac3b012c5023dc1113afdcd4a99f488b769ed7b283faaec9160001901600e5560405180916060825261133960608301604090600681526545524337323160d01b60208201520190565b906001602084015260408301520390a2005b634e487b7160e01b600052601160045260246000fd5b600061136c91611548565b826112cb565b80600052600d60205260406000205461138e575b600101611267565b918181146113a9576113a16001916116dc565b929050611386565b50509050828080611271565b836113c2919492946116eb565b906001820180921161134b576113db6113e19284611705565b90611725565b9184610fbe565b92600190610f8d565b6341abc80160e01b60005260046000fd5b5060ff600282015416610f1e565b63073e64fd60e21b6000523360045260245260446000fd5b346101a25760803660031901126101a2576114416114d0565b5061144a6114e6565b506064356001600160401b0381116101a25761146a903690600401611569565b50604051630a85bd0160e11b8152602090f35b346101a25760203660031901126101a2576004359063ffffffff60e01b82168092036101a257602091630271189760e51b81149081156114bf575b5015158152f35b6301ffc9a760e01b149050836114b8565b600435906001600160a01b03821682036101a257565b602435906001600160a01b03821682036101a257565b608081019081106001600160401b0382111761151757604052565b634e487b7160e01b600052604160045260246000fd5b606081019081106001600160401b0382111761151757604052565b90601f801991011681019081106001600160401b0382111761151757604052565b81601f820112156101a2578035906001600160401b038211611517576040519261159d601f8401601f191660200185611548565b828452602083830101116101a257816000926020809301838601378301015290565b9080601f830112156101a2578135916001600160401b038311611517578260051b90604051936115f26020840186611548565b84526020808501928201019283116101a257602001905b8282106116165750505090565b8135815260209182019101611609565b600b5481101561164557600b60005260206000209060021b0190600090565b634e487b7160e01b600052603260045260246000fd5b600b541561164557600b60009081527f0175b7a638427703f0dbe7bb9bbf987a2551717b34e79f33b5b1008d1fa01db991565b600b546001101561164557600b60009081527f0175b7a638427703f0dbe7bb9bbf987a2551717b34e79f33b5b1008d1fa01dbd91565b908160209103126101a2575180151581036101a25790565b600019811461134b5760010190565b9190820391821161134b57565b8051156116455760200190565b811561170f570690565b634e487b7160e01b600052601260045260246000fd5b9190820180921161134b57565b6000546001600160a01b0316330361174657565b63118cdaa760e01b6000523360045260246000fd5b60026001541461176c576002600155565b633ee5aeb560e01b60005260046000fd5b60ff600361178961165b565b50015416806118a7575b6117f65760ff60036117a361168e565b500154168061181a575b6117f6576000600b546002101561180657600b90527f0175b7a638427703f0dbe7bb9bbf987a2551717b34e79f33b5b1008d1fa01dc45460ff16806117fb575b6117f657600090565b600190565b50600e5415156117ed565b634e487b7160e01b81526032600452602490fd5b50600854600954604051627eeac760e11b8152306004820152602481019190915290602090829060449082906001600160a01b03165afa90811561051157600091611875575b50600161186b61168e565b50015411156117ad565b90506020813d60201161189f575b8161189060209383611548565b810103126101a2575138611860565b3d9150611883565b506006546040516370a0823160e01b815230600482015290602090829060249082906001600160a01b03165afa908115610511576000916118f8575b5060016118ee61165b565b5001541115611793565b90506020813d602011611922575b8161191360209383611548565b810103126101a25751386118e3565b3d915061190656fea2646970667358221220e40cd617ae7cb6001a184970a085e13227ec8c0cadc97a4293ee90c8acbe159164736f6c634300081c0033","opcodes":"PUSH1 0xA0 PUSH1 0x40 MSTORE CALLVALUE PUSH2 0x2FF JUMPI PUSH1 0x40 MLOAD PUSH1 0x1F PUSH2 0x1D78 CODESIZE DUP2 SWAP1 SUB SWAP2 DUP3 ADD PUSH1 0x1F NOT AND DUP4 ADD SWAP2 PUSH1 0x1 PUSH1 0x1 PUSH1 0x40 SHL SUB DUP4 GT DUP5 DUP5 LT OR PUSH2 0x304 JUMPI DUP1 DUP5 SWAP3 PUSH1 0xA0 SWAP5 PUSH1 0x40 MSTORE DUP4 CODECOPY DUP2 ADD SUB SLT PUSH2 0x2FF JUMPI DUP1 MLOAD SWAP1 PUSH1 0x1 PUSH1 0x1 PUSH1 0x40 SHL SUB DUP3 AND DUP3 SUB PUSH2 0x2FF JUMPI PUSH2 0x63 PUSH1 0x20 DUP3 ADD PUSH2 0x339 JUMP JUMPDEST SWAP1 PUSH2 0x70 PUSH1 0x40 DUP3 ADD PUSH2 0x339 JUMP JUMPDEST SWAP2 PUSH1 0x80 PUSH2 0x7F PUSH1 0x60 DUP5 ADD PUSH2 0x339 JUMP JUMPDEST SWAP3 ADD MLOAD PUSH1 0x3 SLOAD PUSH1 0x1 PUSH1 0x1 PUSH1 0xA0 SHL SUB DUP2 AND PUSH1 0x80 MSTORE SWAP1 SWAP5 CALLER ISZERO PUSH2 0x2E9 JUMPI PUSH1 0x0 DUP1 SLOAD CALLER PUSH1 0x1 PUSH1 0x1 PUSH1 0xA0 SHL SUB NOT DUP3 AND DUP2 OR DUP4 SSTORE PUSH20 0x9DDFACA8183C41AD55329BDEED9F6A8D53168B1B SWAP5 DUP6 SWAP4 SWAP1 SWAP3 PUSH1 0x1 PUSH1 0x1 PUSH1 0xA0 SHL SUB AND SWAP1 PUSH32 0x8BE0079C531659141344CD1FD0A4F28419497F9722A3DAAFE3B4186F6B6457E0 SWAP1 DUP1 LOG3 PUSH1 0x1 DUP1 SSTORE PUSH1 0x1 PUSH1 0x1 PUSH1 0xA0 SHL SUB NOT AND OR PUSH1 0x3 SSTORE PUSH32 0x787D74CAEA10B2B357790D5B5247C2F63D1D91572A9846F780606E4D953677AE PUSH1 0x4 SSTORE PUSH1 0x5 DUP1 SLOAD PUSH7 0x1000300030D40 PUSH1 0x1 PUSH1 0x1 PUSH1 0x50 SHL SUB NOT SWAP2 SWAP1 SWAP2 AND OR SWAP1 SSTORE PUSH7 0x2386F26FC10000 PUSH1 0xA SSTORE PUSH1 0x2 DUP1 SLOAD PUSH1 0x1 PUSH1 0x1 PUSH1 0xE0 SHL SUB NOT AND PUSH1 0xA0 SWAP3 SWAP1 SWAP3 SHL PUSH1 0x1 PUSH1 0xA0 SHL PUSH1 0x1 PUSH1 0xE0 SHL SUB AND SWAP2 SWAP1 SWAP2 OR SWAP2 SWAP1 SWAP2 OR SWAP1 SSTORE PUSH1 0x1 PUSH1 0x1 PUSH1 0xA0 SHL SUB SWAP2 DUP3 AND SWAP3 DUP3 AND SWAP2 AND DUP4 PUSH1 0x60 PUSH2 0x198 PUSH2 0x31A JUMP JUMPDEST DUP4 DUP2 MSTORE DUP5 PUSH1 0x20 DUP3 ADD MSTORE DUP6 PUSH1 0x40 DUP3 ADD MSTORE ADD MSTORE PUSH1 0x1 DUP1 PUSH1 0xA0 SHL SUB NOT PUSH1 0x6 SLOAD AND OR PUSH1 0x6 SSTORE PUSH1 0x1 DUP1 PUSH1 0xA0 SHL SUB NOT PUSH1 0x7 SLOAD AND OR PUSH1 0x7 SSTORE PUSH1 0x1 DUP1 PUSH1 0xA0 SHL SUB NOT PUSH1 0x8 SLOAD AND OR PUSH1 0x8 SSTORE PUSH1 0x9 SSTORE PUSH2 0x215 PUSH2 0x1E7 PUSH2 0x31A JUMP JUMPDEST PUSH1 0x32 DUP2 MSTORE PUSH9 0x2B5E3AF16B1880000 PUSH1 0x20 DUP3 ADD MSTORE PUSH9 0xAD78EBC5AC6200000 PUSH1 0x40 DUP3 ADD MSTORE PUSH1 0x1 PUSH1 0x60 DUP3 ADD MSTORE PUSH2 0x382 JUMP JUMPDEST PUSH2 0x23E PUSH2 0x220 PUSH2 0x31A JUMP JUMPDEST PUSH1 0x1E DUP2 MSTORE PUSH1 0x1 PUSH1 0x20 DUP3 ADD MSTORE PUSH1 0xA PUSH1 0x40 DUP3 ADD MSTORE PUSH1 0x1 PUSH1 0x60 DUP3 ADD MSTORE PUSH2 0x382 JUMP JUMPDEST PUSH2 0x267 PUSH2 0x249 PUSH2 0x31A JUMP JUMPDEST PUSH1 0x14 DUP2 MSTORE PUSH1 0x1 PUSH1 0x20 DUP3 ADD MSTORE PUSH1 0x1 PUSH1 0x40 DUP3 ADD MSTORE PUSH1 0x1 PUSH1 0x60 DUP3 ADD MSTORE PUSH2 0x382 JUMP JUMPDEST PUSH1 0x0 PUSH1 0xC SSTORE PUSH1 0x0 JUMPDEST PUSH1 0xB SLOAD DUP2 LT ISZERO PUSH2 0x2D1 JUMPI PUSH1 0xFF PUSH1 0x3 PUSH2 0x286 DUP4 PUSH2 0x34D JUMP JUMPDEST POP ADD SLOAD AND PUSH2 0x297 JUMPI JUMPDEST PUSH1 0x1 ADD PUSH2 0x26F JUMP JUMPDEST PUSH2 0x2A0 DUP2 PUSH2 0x34D JUMP JUMPDEST POP SLOAD SWAP1 PUSH1 0xC SLOAD SWAP2 DUP3 ADD DUP1 SWAP3 GT PUSH2 0x2BB JUMPI PUSH1 0xC SWAP2 SWAP1 SWAP2 SSTORE PUSH2 0x28F JUMP JUMPDEST PUSH4 0x4E487B71 PUSH1 0xE0 SHL PUSH1 0x0 MSTORE PUSH1 0x11 PUSH1 0x4 MSTORE PUSH1 0x24 PUSH1 0x0 REVERT JUMPDEST PUSH1 0x40 MLOAD PUSH2 0x1960 SWAP1 DUP2 PUSH2 0x418 DUP3 CODECOPY PUSH1 0x80 MLOAD DUP2 PUSH2 0xEC6 ADD MSTORE RETURN JUMPDEST PUSH4 0x1E4FBDF7 PUSH1 0xE0 SHL PUSH1 0x0 MSTORE PUSH1 0x0 PUSH1 0x4 MSTORE PUSH1 0x24 PUSH1 0x0 REVERT JUMPDEST PUSH1 0x0 DUP1 REVERT JUMPDEST PUSH4 0x4E487B71 PUSH1 0xE0 SHL PUSH1 0x0 MSTORE PUSH1 0x41 PUSH1 0x4 MSTORE PUSH1 0x24 PUSH1 0x0 REVERT JUMPDEST PUSH1 0x40 MLOAD SWAP1 PUSH1 0x80 DUP3 ADD PUSH1 0x1 PUSH1 0x1 PUSH1 0x40 SHL SUB DUP2 GT DUP4 DUP3 LT OR PUSH2 0x304 JUMPI PUSH1 0x40 MSTORE JUMP JUMPDEST MLOAD SWAP1 PUSH1 0x1 PUSH1 0x1 PUSH1 0xA0 SHL SUB DUP3 AND DUP3 SUB PUSH2 0x2FF JUMPI JUMP JUMPDEST PUSH1 0xB SLOAD DUP2 LT ISZERO PUSH2 0x36C JUMPI PUSH1 0xB PUSH1 0x0 MSTORE PUSH1 0x20 PUSH1 0x0 KECCAK256 SWAP1 PUSH1 0x2 SHL ADD SWAP1 PUSH1 0x0 SWAP1 JUMP JUMPDEST PUSH4 0x4E487B71 PUSH1 0xE0 SHL PUSH1 0x0 MSTORE PUSH1 0x32 PUSH1 0x4 MSTORE PUSH1 0x24 PUSH1 0x0 REVERT JUMPDEST PUSH1 0xB SLOAD PUSH9 0x10000000000000000 DUP2 LT ISZERO PUSH2 0x304 JUMPI PUSH1 0x1 DUP2 ADD PUSH1 0xB SSTORE PUSH1 0x0 PUSH1 0xB SLOAD DUP3 LT ISZERO PUSH2 0x403 JUMPI PUSH1 0xB SWAP1 MSTORE PUSH1 0x2 SHL PUSH32 0x175B7A638427703F0DBE7BB9BBF987A2551717B34E79F33B5B1008D1FA01DB9 ADD PUSH1 0x3 PUSH1 0x60 SWAP2 DUP4 MLOAD DUP2 SSTORE PUSH1 0x20 DUP5 ADD MLOAD PUSH1 0x1 DUP3 ADD SSTORE PUSH1 0x40 DUP5 ADD MLOAD PUSH1 0x2 DUP3 ADD SSTORE ADD SWAP2 ADD MLOAD ISZERO ISZERO PUSH1 0xFF DUP1 NOT DUP4 SLOAD AND SWAP2 AND OR SWAP1 SSTORE JUMP JUMPDEST PUSH4 0x4E487B71 PUSH1 0xE0 SHL DUP2 MSTORE PUSH1 0x32 PUSH1 0x4 MSTORE PUSH1 0x24 SWAP1 REVERT INVALID PUSH1 0x80 DUP1 PUSH1 0x40 MSTORE PUSH1 0x4 CALLDATASIZE LT ISZERO PUSH2 0x1D JUMPI JUMPDEST POP CALLDATASIZE ISZERO PUSH2 0x1B JUMPI PUSH1 0x0 DUP1 REVERT JUMPDEST STOP JUMPDEST PUSH1 0x0 CALLDATALOAD PUSH1 0xE0 SHR SWAP1 DUP2 PUSH4 0x1FFC9A7 EQ PUSH2 0x147D JUMPI POP DUP1 PUSH4 0x150B7A02 EQ PUSH2 0x1428 JUMPI DUP1 PUSH4 0x1FE543E3 EQ PUSH2 0xE94 JUMPI DUP1 PUSH4 0x2F65E98C EQ PUSH2 0xDC3 JUMPI DUP1 PUSH4 0x3C652A9A EQ PUSH2 0xD73 JUMPI DUP1 PUSH4 0x3CCFD60B EQ PUSH2 0xCEB JUMPI DUP1 PUSH4 0x715018A6 EQ PUSH2 0xC92 JUMPI DUP1 PUSH4 0x8DA5CB5B EQ PUSH2 0xC69 JUMPI DUP1 PUSH4 0x917BB998 EQ PUSH2 0xBCA JUMPI DUP1 PUSH4 0x922B8079 EQ PUSH2 0xB40 JUMPI DUP1 PUSH4 0x96C82E57 EQ PUSH2 0xB22 JUMPI DUP1 PUSH4 0x9D32D2F7 EQ PUSH2 0xB04 JUMPI DUP1 PUSH4 0x9D63848A EQ PUSH2 0xAB9 JUMPI DUP1 PUSH4 0xA6482858 EQ PUSH2 0xA9B JUMPI DUP1 PUSH4 0xAA10B2F4 EQ PUSH2 0xA6F JUMPI DUP1 PUSH4 0xAFA92D0D EQ PUSH2 0xA4E JUMPI DUP1 PUSH4 0xB2BECC21 EQ PUSH2 0x929 JUMPI DUP1 PUSH4 0xBC197C81 EQ PUSH2 0x894 JUMPI DUP1 PUSH4 0xBCD554F6 EQ PUSH2 0x72F JUMPI DUP1 PUSH4 0xC225FBD1 EQ PUSH2 0x57D JUMPI DUP1 PUSH4 0xC2E952C7 EQ PUSH2 0x3A6 JUMPI DUP1 PUSH4 0xDAF484E0 EQ PUSH2 0x31C JUMPI DUP1 PUSH4 0xEB586CAE EQ PUSH2 0x285 JUMPI DUP1 PUSH4 0xF23A6E61 EQ PUSH2 0x230 JUMPI DUP1 PUSH4 0xF2FDE38B EQ PUSH2 0x1A7 JUMPI PUSH4 0xFF201114 EQ PUSH2 0x148 JUMPI CODESIZE PUSH2 0xF JUMP JUMPDEST CALLVALUE PUSH2 0x1A2 JUMPI PUSH1 0x20 CALLDATASIZE PUSH1 0x3 NOT ADD SLT PUSH2 0x1A2 JUMPI PUSH1 0x4 CALLDATALOAD PUSH1 0xB SLOAD DUP2 LT ISZERO PUSH2 0x1A2 JUMPI PUSH2 0x171 PUSH1 0x80 SWAP2 PUSH2 0x1626 JUMP JUMPDEST POP DUP1 SLOAD SWAP1 PUSH1 0x1 DUP2 ADD SLOAD SWAP1 PUSH1 0xFF PUSH1 0x3 PUSH1 0x2 DUP4 ADD SLOAD SWAP3 ADD SLOAD AND SWAP2 PUSH1 0x40 MLOAD SWAP4 DUP5 MSTORE PUSH1 0x20 DUP5 ADD MSTORE PUSH1 0x40 DUP4 ADD MSTORE ISZERO ISZERO PUSH1 0x60 DUP3 ADD MSTORE RETURN JUMPDEST PUSH1 0x0 DUP1 REVERT JUMPDEST CALLVALUE PUSH2 0x1A2 JUMPI PUSH1 0x20 CALLDATASIZE PUSH1 0x3 NOT ADD SLT PUSH2 0x1A2 JUMPI PUSH2 0x1C0 PUSH2 0x14D0 JUMP JUMPDEST PUSH2 0x1C8 PUSH2 0x1732 JUMP JUMPDEST PUSH1 0x1 PUSH1 0x1 PUSH1 0xA0 SHL SUB AND DUP1 ISZERO PUSH2 0x21A JUMPI PUSH1 0x0 DUP1 SLOAD PUSH1 0x1 PUSH1 0x1 PUSH1 0xA0 SHL SUB NOT DUP2 AND DUP4 OR DUP3 SSTORE PUSH1 0x1 PUSH1 0x1 PUSH1 0xA0 SHL SUB AND SWAP1 PUSH32 0x8BE0079C531659141344CD1FD0A4F28419497F9722A3DAAFE3B4186F6B6457E0 SWAP1 DUP1 LOG3 STOP JUMPDEST PUSH4 0x1E4FBDF7 PUSH1 0xE0 SHL PUSH1 0x0 MSTORE PUSH1 0x0 PUSH1 0x4 MSTORE PUSH1 0x24 PUSH1 0x0 REVERT JUMPDEST CALLVALUE PUSH2 0x1A2 JUMPI PUSH1 0xA0 CALLDATASIZE PUSH1 0x3 NOT ADD SLT PUSH2 0x1A2 JUMPI PUSH2 0x249 PUSH2 0x14D0 JUMP JUMPDEST POP PUSH2 0x252 PUSH2 0x14E6 JUMP JUMPDEST POP PUSH1 0x84 CALLDATALOAD PUSH1 0x1 PUSH1 0x1 PUSH1 0x40 SHL SUB DUP2 GT PUSH2 0x1A2 JUMPI PUSH2 0x272 SWAP1 CALLDATASIZE SWAP1 PUSH1 0x4 ADD PUSH2 0x1569 JUMP JUMPDEST POP PUSH1 0x40 MLOAD PUSH4 0xF23A6E61 PUSH1 0xE0 SHL DUP2 MSTORE PUSH1 0x20 SWAP1 RETURN JUMPDEST CALLVALUE PUSH2 0x1A2 JUMPI PUSH1 0x20 CALLDATASIZE PUSH1 0x3 NOT ADD SLT PUSH2 0x1A2 JUMPI PUSH1 0x0 PUSH1 0x60 PUSH1 0x40 MLOAD PUSH2 0x2A6 DUP2 PUSH2 0x14FC JUMP JUMPDEST DUP3 DUP2 MSTORE DUP3 PUSH1 0x20 DUP3 ADD MSTORE DUP3 PUSH1 0x40 DUP3 ADD MSTORE ADD MSTORE PUSH1 0x80 PUSH2 0x2C4 PUSH1 0x4 CALLDATALOAD PUSH2 0x1626 JUMP JUMPDEST POP PUSH1 0x40 MLOAD PUSH2 0x2D1 DUP2 PUSH2 0x14FC JUMP JUMPDEST DUP2 SLOAD SWAP2 DUP3 DUP3 MSTORE PUSH1 0x1 DUP2 ADD SLOAD PUSH1 0x20 DUP4 ADD SWAP1 DUP2 MSTORE PUSH1 0x60 PUSH1 0xFF PUSH1 0x3 PUSH1 0x2 DUP6 ADD SLOAD SWAP5 PUSH1 0x40 DUP8 ADD SWAP6 DUP7 MSTORE ADD SLOAD AND SWAP4 ADD SWAP3 ISZERO ISZERO DUP4 MSTORE PUSH1 0x40 MLOAD SWAP4 DUP5 MSTORE MLOAD PUSH1 0x20 DUP5 ADD MSTORE MLOAD PUSH1 0x40 DUP4 ADD MSTORE MLOAD ISZERO ISZERO PUSH1 0x60 DUP3 ADD MSTORE RETURN JUMPDEST CALLVALUE PUSH2 0x1A2 JUMPI PUSH1 0x20 CALLDATASIZE PUSH1 0x3 NOT ADD SLT PUSH2 0x1A2 JUMPI PUSH1 0x0 PUSH1 0x40 DUP1 MLOAD PUSH2 0x33C DUP2 PUSH2 0x152D JUMP JUMPDEST DUP3 DUP2 MSTORE DUP3 PUSH1 0x20 DUP3 ADD MSTORE ADD MSTORE PUSH1 0x4 CALLDATALOAD PUSH1 0x0 MSTORE PUSH1 0xF PUSH1 0x20 MSTORE PUSH1 0x60 PUSH1 0x40 PUSH1 0x0 KECCAK256 PUSH1 0x40 MLOAD PUSH2 0x365 DUP2 PUSH2 0x152D JUMP JUMPDEST PUSH1 0x1 DUP1 PUSH1 0xA0 SHL SUB DUP3 SLOAD AND SWAP2 DUP3 DUP3 MSTORE PUSH1 0x40 PUSH1 0xFF PUSH1 0x2 PUSH1 0x1 DUP5 ADD SLOAD SWAP4 PUSH1 0x20 DUP7 ADD SWAP5 DUP6 MSTORE ADD SLOAD AND SWAP3 ADD SWAP2 ISZERO ISZERO DUP3 MSTORE PUSH1 0x40 MLOAD SWAP3 DUP4 MSTORE MLOAD PUSH1 0x20 DUP4 ADD MSTORE MLOAD ISZERO ISZERO PUSH1 0x40 DUP3 ADD MSTORE RETURN JUMPDEST PUSH1 0x0 CALLDATASIZE PUSH1 0x3 NOT ADD SLT PUSH2 0x1A2 JUMPI PUSH2 0x3BA PUSH2 0x175B JUMP JUMPDEST PUSH1 0xA SLOAD CALLVALUE LT PUSH2 0x56C JUMPI PUSH2 0x3CB PUSH2 0x177D JUMP JUMPDEST ISZERO PUSH2 0x55B JUMPI PUSH4 0xFFFFFFFF PUSH1 0x20 PUSH1 0x2 SLOAD PUSH1 0xA4 PUSH1 0x4 SLOAD PUSH1 0x0 PUSH1 0x5 SLOAD SWAP4 PUSH1 0x40 MLOAD SWAP7 DUP8 SWAP6 DUP7 SWAP5 PUSH4 0x5D3B1D3 PUSH1 0xE4 SHL DUP7 MSTORE PUSH1 0x4 DUP7 ADD MSTORE PUSH1 0x1 PUSH1 0x1 PUSH1 0x40 SHL SUB DUP4 PUSH1 0xA0 SHR AND PUSH1 0x24 DUP7 ADD MSTORE PUSH2 0xFFFF DUP2 DUP10 SHR AND PUSH1 0x44 DUP7 ADD MSTORE DUP2 DUP2 AND PUSH1 0x64 DUP7 ADD MSTORE PUSH1 0x30 SHR AND PUSH1 0x84 DUP5 ADD MSTORE PUSH1 0x1 DUP1 PUSH1 0xA0 SHL SUB AND GAS CALL SWAP1 DUP2 ISZERO PUSH2 0x511 JUMPI PUSH1 0x0 SWAP2 PUSH2 0x526 JUMPI JUMPDEST POP PUSH2 0x4AF PUSH1 0x40 MLOAD PUSH2 0x454 DUP2 PUSH2 0x152D JUMP JUMPDEST CALLER DUP2 MSTORE PUSH1 0x2 PUSH1 0x20 DUP3 ADD TIMESTAMP DUP2 MSTORE PUSH1 0x40 DUP4 ADD SWAP1 PUSH1 0x0 DUP3 MSTORE DUP6 PUSH1 0x0 MSTORE PUSH1 0xF PUSH1 0x20 MSTORE PUSH1 0x40 PUSH1 0x0 KECCAK256 SWAP4 PUSH1 0x1 DUP1 PUSH1 0xA0 SHL SUB SWAP1 MLOAD AND PUSH1 0x1 PUSH1 0x1 PUSH1 0x60 SHL SUB PUSH1 0xA0 SHL DUP6 SLOAD AND OR DUP5 SSTORE MLOAD PUSH1 0x1 DUP5 ADD SSTORE MLOAD ISZERO ISZERO SWAP2 ADD SWAP1 PUSH1 0xFF DUP1 NOT DUP4 SLOAD AND SWAP2 ISZERO ISZERO AND OR SWAP1 SSTORE JUMP JUMPDEST PUSH1 0x40 MLOAD SWAP1 DUP2 MSTORE PUSH32 0xB73D415D4554D9BC64F3FADEA1D75CAAEB0F4DB5B74538B5E5DCBCE2660E6240 PUSH1 0x20 CALLER SWAP3 LOG2 PUSH1 0xA SLOAD DUP1 CALLVALUE GT PUSH2 0x4EC JUMPI JUMPDEST PUSH1 0x1 DUP1 SSTORE STOP JUMPDEST PUSH1 0x0 DUP1 DUP1 PUSH2 0x4FB DUP2 SWAP5 CALLVALUE PUSH2 0x16EB JUMP JUMPDEST DUP2 DUP2 ISZERO PUSH2 0x51D JUMPI JUMPDEST CALLER SWAP1 CALL ISZERO PUSH2 0x511 JUMPI DUP1 PUSH2 0x4E6 JUMP JUMPDEST PUSH1 0x40 MLOAD RETURNDATASIZE PUSH1 0x0 DUP3 RETURNDATACOPY RETURNDATASIZE SWAP1 REVERT JUMPDEST POP PUSH2 0x8FC PUSH2 0x503 JUMP JUMPDEST SWAP1 PUSH1 0x20 DUP3 RETURNDATASIZE PUSH1 0x20 GT PUSH2 0x553 JUMPI JUMPDEST DUP2 PUSH2 0x540 PUSH1 0x20 SWAP4 DUP4 PUSH2 0x1548 JUMP JUMPDEST DUP2 ADD SUB SLT PUSH2 0x550 JUMPI POP MLOAD DUP2 PUSH2 0x444 JUMP JUMPDEST DUP1 REVERT JUMPDEST RETURNDATASIZE SWAP2 POP PUSH2 0x533 JUMP JUMPDEST PUSH4 0x8B2024A5 PUSH1 0xE0 SHL PUSH1 0x0 MSTORE PUSH1 0x4 PUSH1 0x0 REVERT JUMPDEST PUSH4 0xCD1C8867 PUSH1 0xE0 SHL PUSH1 0x0 MSTORE PUSH1 0x4 PUSH1 0x0 REVERT JUMPDEST CALLVALUE PUSH2 0x1A2 JUMPI PUSH1 0x20 CALLDATASIZE PUSH1 0x3 NOT ADD SLT PUSH2 0x1A2 JUMPI PUSH1 0x4 CALLDATALOAD PUSH1 0x1 PUSH1 0x1 PUSH1 0x40 SHL SUB DUP2 GT PUSH2 0x1A2 JUMPI CALLDATASIZE PUSH1 0x23 DUP3 ADD SLT ISZERO PUSH2 0x1A2 JUMPI DUP1 PUSH1 0x4 ADD CALLDATALOAD SWAP1 PUSH1 0x1 PUSH1 0x1 PUSH1 0x40 SHL SUB DUP3 GT PUSH2 0x1A2 JUMPI CALLDATASIZE PUSH1 0x24 DUP4 PUSH1 0x5 SHL DUP4 ADD ADD GT PUSH2 0x1A2 JUMPI SWAP1 PUSH2 0x5D6 PUSH2 0x1732 JUMP JUMPDEST PUSH1 0x0 SWAP2 JUMPDEST DUP2 DUP4 LT ISZERO PUSH2 0x6D8 JUMPI PUSH1 0x24 SWAP3 PUSH1 0x0 DUP5 DUP3 PUSH1 0x5 SHL DUP5 ADD ADD CALLDATALOAD PUSH1 0x20 PUSH1 0x1 DUP1 PUSH1 0xA0 SHL SUB PUSH1 0x7 SLOAD AND PUSH1 0x40 MLOAD SWAP8 DUP9 DUP1 SWAP3 PUSH4 0x31A9108F PUSH1 0xE1 SHL DUP3 MSTORE DUP6 PUSH1 0x4 DUP4 ADD MSTORE GAS STATICCALL DUP1 ISZERO PUSH2 0x6CD JUMPI DUP3 SWAP1 PUSH2 0x683 JUMPI JUMPDEST SWAP5 SWAP6 POP SWAP3 SWAP4 PUSH1 0x1 SWAP4 SWAP1 PUSH1 0x1 PUSH1 0x1 PUSH1 0xA0 SHL SUB AND ADDRESS EQ DUP1 PUSH2 0x66F JUMPI JUMPDEST PUSH2 0x64C JUMPI JUMPDEST POP POP ADD SWAP2 SWAP1 PUSH2 0x5DA JUMP JUMPDEST DUP2 PUSH1 0x40 SWAP2 DUP6 SWAP4 MSTORE PUSH1 0xD PUSH1 0x20 MSTORE KECCAK256 SSTORE PUSH2 0x665 PUSH1 0xE SLOAD PUSH2 0x16DC JUMP JUMPDEST PUSH1 0xE SSTORE DUP5 DUP1 PUSH2 0x642 JUMP JUMPDEST POP DUP1 DUP3 MSTORE PUSH1 0xD PUSH1 0x20 MSTORE PUSH1 0x40 DUP3 KECCAK256 SLOAD ISZERO PUSH2 0x63D JUMP JUMPDEST POP SWAP5 PUSH1 0x20 DUP2 RETURNDATASIZE DUP3 GT PUSH2 0x6C5 JUMPI JUMPDEST DUP2 PUSH2 0x69D PUSH1 0x20 SWAP4 DUP4 PUSH2 0x1548 JUMP JUMPDEST DUP2 ADD SUB SLT PUSH2 0x6C1 JUMPI MLOAD SWAP5 PUSH1 0x1 PUSH1 0x1 PUSH1 0xA0 SHL SUB DUP7 AND DUP7 SUB PUSH2 0x6C1 JUMPI SWAP4 SWAP5 DUP6 SWAP5 SWAP1 PUSH2 0x623 JUMP JUMPDEST POP DUP1 REVERT JUMPDEST RETURNDATASIZE SWAP2 POP PUSH2 0x690 JUMP JUMPDEST PUSH1 0x40 MLOAD RETURNDATASIZE DUP5 DUP3 RETURNDATACOPY RETURNDATASIZE SWAP1 REVERT JUMPDEST PUSH32 0x6CDA8E8BE956B74ED7E2D0F733D6DDDFCC7B34CE982E77240AD42816639056F5 DUP3 PUSH1 0x40 MLOAD DUP1 SWAP2 PUSH1 0x40 DUP3 MSTORE PUSH2 0x724 PUSH1 0x40 DUP4 ADD PUSH1 0x40 SWAP1 PUSH1 0x6 DUP2 MSTORE PUSH6 0x455243373231 PUSH1 0xD0 SHL PUSH1 0x20 DUP3 ADD MSTORE ADD SWAP1 JUMP JUMPDEST SWAP1 PUSH1 0x20 DUP4 ADD MSTORE SUB SWAP1 LOG1 STOP JUMPDEST CALLVALUE PUSH2 0x1A2 JUMPI PUSH1 0xA0 CALLDATASIZE PUSH1 0x3 NOT ADD SLT PUSH2 0x1A2 JUMPI PUSH1 0x4 CALLDATALOAD PUSH1 0x24 CALLDATALOAD PUSH1 0x44 CALLDATALOAD PUSH1 0x64 CALLDATALOAD SWAP2 PUSH1 0x84 CALLDATALOAD DUP1 ISZERO ISZERO DUP1 SWAP2 SUB PUSH2 0x1A2 JUMPI PUSH2 0x762 PUSH2 0x1732 JUMP JUMPDEST PUSH1 0xB SLOAD DUP6 LT ISZERO PUSH2 0x883 JUMPI DUP3 DUP5 LT PUSH2 0x883 JUMPI PUSH1 0x40 MLOAD SWAP1 PUSH2 0x780 DUP3 PUSH2 0x14FC JUMP JUMPDEST DUP3 DUP3 MSTORE PUSH1 0x20 DUP3 ADD SWAP2 DUP5 DUP4 MSTORE PUSH1 0x40 DUP2 ADD SWAP2 DUP7 DUP4 MSTORE PUSH1 0x60 DUP3 ADD SWAP1 DUP2 MSTORE PUSH2 0x7A3 DUP9 PUSH2 0x1626 JUMP JUMPDEST SWAP4 SWAP1 SWAP4 PUSH2 0x86D JUMPI PUSH2 0x7D6 SWAP5 PUSH1 0x3 SWAP4 MLOAD DUP6 SSTORE MLOAD PUSH1 0x1 DUP6 ADD SSTORE MLOAD PUSH1 0x2 DUP5 ADD SSTORE MLOAD ISZERO ISZERO SWAP2 ADD SWAP1 PUSH1 0xFF DUP1 NOT DUP4 SLOAD AND SWAP2 ISZERO ISZERO AND OR SWAP1 SSTORE JUMP JUMPDEST PUSH1 0x0 PUSH1 0xC SSTORE PUSH1 0x0 JUMPDEST PUSH1 0xB SLOAD DUP2 LT ISZERO PUSH2 0x825 JUMPI DUP1 PUSH1 0xFF PUSH1 0x3 PUSH2 0x7F8 PUSH1 0x1 SWAP5 PUSH2 0x1626 JUMP JUMPDEST POP ADD SLOAD AND PUSH2 0x807 JUMPI JUMPDEST ADD PUSH2 0x7DE JUMP JUMPDEST PUSH2 0x81D PUSH2 0x813 DUP3 PUSH2 0x1626 JUMP JUMPDEST POP SLOAD PUSH1 0xC SLOAD PUSH2 0x1725 JUMP JUMPDEST PUSH1 0xC SSTORE PUSH2 0x801 JUMP JUMPDEST POP PUSH2 0x868 PUSH32 0x66C998C4F16E6680D6471C293823EBFB3B9F053A14111A2E24F54578C4C7975F SWAP4 PUSH1 0x40 MLOAD SWAP4 DUP5 SWAP4 DUP5 PUSH1 0x40 SWAP2 SWAP5 SWAP4 SWAP3 PUSH1 0x60 DUP3 ADD SWAP6 DUP3 MSTORE PUSH1 0x20 DUP3 ADD MSTORE ADD MSTORE JUMP JUMPDEST SUB SWAP1 LOG2 STOP JUMPDEST PUSH4 0x4E487B71 PUSH1 0xE0 SHL PUSH1 0x0 MSTORE PUSH1 0x0 PUSH1 0x4 MSTORE PUSH1 0x24 PUSH1 0x0 REVERT JUMPDEST PUSH4 0xADF8131B PUSH1 0xE0 SHL PUSH1 0x0 MSTORE PUSH1 0x4 PUSH1 0x0 REVERT JUMPDEST CALLVALUE PUSH2 0x1A2 JUMPI PUSH1 0xA0 CALLDATASIZE PUSH1 0x3 NOT ADD SLT PUSH2 0x1A2 JUMPI PUSH2 0x8AD PUSH2 0x14D0 JUMP JUMPDEST POP PUSH2 0x8B6 PUSH2 0x14E6 JUMP JUMPDEST POP PUSH1 0x44 CALLDATALOAD PUSH1 0x1 PUSH1 0x1 PUSH1 0x40 SHL SUB DUP2 GT PUSH2 0x1A2 JUMPI PUSH2 0x8D6 SWAP1 CALLDATASIZE SWAP1 PUSH1 0x4 ADD PUSH2 0x15BF JUMP JUMPDEST POP PUSH1 0x64 CALLDATALOAD PUSH1 0x1 PUSH1 0x1 PUSH1 0x40 SHL SUB DUP2 GT PUSH2 0x1A2 JUMPI PUSH2 0x8F6 SWAP1 CALLDATASIZE SWAP1 PUSH1 0x4 ADD PUSH2 0x15BF JUMP JUMPDEST POP PUSH1 0x84 CALLDATALOAD PUSH1 0x1 PUSH1 0x1 PUSH1 0x40 SHL SUB DUP2 GT PUSH2 0x1A2 JUMPI PUSH2 0x916 SWAP1 CALLDATASIZE SWAP1 PUSH1 0x4 ADD PUSH2 0x1569 JUMP JUMPDEST POP PUSH1 0x40 MLOAD PUSH4 0xBC197C81 PUSH1 0xE0 SHL DUP2 MSTORE PUSH1 0x20 SWAP1 RETURN JUMPDEST CALLVALUE PUSH2 0x1A2 JUMPI PUSH1 0x0 CALLDATASIZE PUSH1 0x3 NOT ADD SLT PUSH2 0x1A2 JUMPI PUSH1 0x6 SLOAD PUSH1 0x40 MLOAD PUSH4 0x70A08231 PUSH1 0xE0 SHL DUP2 MSTORE ADDRESS PUSH1 0x4 DUP3 ADD MSTORE SWAP1 PUSH1 0x20 SWAP1 DUP3 SWAP1 PUSH1 0x24 SWAP1 DUP3 SWAP1 PUSH1 0x1 PUSH1 0x1 PUSH1 0xA0 SHL SUB AND GAS STATICCALL DUP1 ISZERO PUSH2 0x511 JUMPI PUSH1 0x0 SWAP1 PUSH2 0xA1A JUMPI JUMPDEST PUSH1 0x8 SLOAD PUSH1 0x9 SLOAD PUSH1 0x40 MLOAD PUSH3 0x7EEAC7 PUSH1 0xE1 SHL DUP2 MSTORE ADDRESS PUSH1 0x4 DUP3 ADD MSTORE PUSH1 0x24 DUP2 ADD SWAP2 SWAP1 SWAP2 MSTORE SWAP3 POP PUSH1 0x20 SWAP1 DUP4 SWAP1 PUSH1 0x1 PUSH1 0x1 PUSH1 0xA0 SHL SUB AND DUP2 DUP1 PUSH1 0x44 DUP2 ADD JUMPDEST SUB SWAP2 GAS STATICCALL SWAP2 DUP3 ISZERO PUSH2 0x511 JUMPI PUSH1 0x0 SWAP3 PUSH2 0x9E6 JUMPI JUMPDEST POP PUSH2 0x9E2 PUSH1 0xE SLOAD PUSH1 0x40 MLOAD SWAP4 DUP5 SWAP4 DUP5 PUSH1 0x40 SWAP2 SWAP5 SWAP4 SWAP3 PUSH1 0x60 DUP3 ADD SWAP6 DUP3 MSTORE PUSH1 0x20 DUP3 ADD MSTORE ADD MSTORE JUMP JUMPDEST SUB SWAP1 RETURN JUMPDEST SWAP1 SWAP2 POP PUSH1 0x20 DUP2 RETURNDATASIZE PUSH1 0x20 GT PUSH2 0xA12 JUMPI JUMPDEST DUP2 PUSH2 0xA02 PUSH1 0x20 SWAP4 DUP4 PUSH2 0x1548 JUMP JUMPDEST DUP2 ADD SUB SLT PUSH2 0x1A2 JUMPI MLOAD SWAP1 DUP3 PUSH2 0x9BE JUMP JUMPDEST RETURNDATASIZE SWAP2 POP PUSH2 0x9F5 JUMP JUMPDEST POP PUSH1 0x20 DUP2 RETURNDATASIZE PUSH1 0x20 GT PUSH2 0xA46 JUMPI JUMPDEST DUP2 PUSH2 0xA34 PUSH1 0x20 SWAP4 DUP4 PUSH2 0x1548 JUMP JUMPDEST DUP2 ADD SUB SLT PUSH2 0x1A2 JUMPI PUSH2 0x9AB SWAP1 MLOAD PUSH2 0x974 JUMP JUMPDEST RETURNDATASIZE SWAP2 POP PUSH2 0xA27 JUMP JUMPDEST CALLVALUE PUSH2 0x1A2 JUMPI PUSH1 0x20 CALLDATASIZE PUSH1 0x3 NOT ADD SLT PUSH2 0x1A2 JUMPI PUSH2 0xA67 PUSH2 0x1732 JUMP JUMPDEST PUSH1 0x4 CALLDATALOAD PUSH1 0xA SSTORE STOP JUMPDEST CALLVALUE PUSH2 0x1A2 JUMPI PUSH1 0x20 CALLDATASIZE PUSH1 0x3 NOT ADD SLT PUSH2 0x1A2 JUMPI PUSH1 0x4 CALLDATALOAD PUSH1 0x0 MSTORE PUSH1 0xD PUSH1 0x20 MSTORE PUSH1 0x20 PUSH1 0x40 PUSH1 0x0 KECCAK256 SLOAD PUSH1 0x40 MLOAD SWAP1 DUP2 MSTORE RETURN JUMPDEST CALLVALUE PUSH2 0x1A2 JUMPI PUSH1 0x0 CALLDATASIZE PUSH1 0x3 NOT ADD SLT PUSH2 0x1A2 JUMPI PUSH1 0x20 PUSH1 0xA SLOAD PUSH1 0x40 MLOAD SWAP1 DUP2 MSTORE RETURN JUMPDEST CALLVALUE PUSH2 0x1A2 JUMPI PUSH1 0x0 CALLDATASIZE PUSH1 0x3 NOT ADD SLT PUSH2 0x1A2 JUMPI PUSH1 0x6 SLOAD PUSH1 0x7 SLOAD PUSH1 0x8 SLOAD PUSH1 0x9 SLOAD PUSH1 0x40 DUP1 MLOAD PUSH1 0x1 PUSH1 0x1 PUSH1 0xA0 SHL SUB SWAP6 DUP7 AND DUP2 MSTORE SWAP4 DUP6 AND PUSH1 0x20 DUP6 ADD MSTORE SWAP2 SWAP1 SWAP4 AND SWAP1 DUP3 ADD MSTORE PUSH1 0x60 DUP2 ADD SWAP2 SWAP1 SWAP2 MSTORE PUSH1 0x80 SWAP1 RETURN JUMPDEST CALLVALUE PUSH2 0x1A2 JUMPI PUSH1 0x0 CALLDATASIZE PUSH1 0x3 NOT ADD SLT PUSH2 0x1A2 JUMPI PUSH1 0x20 PUSH1 0xE SLOAD PUSH1 0x40 MLOAD SWAP1 DUP2 MSTORE RETURN JUMPDEST CALLVALUE PUSH2 0x1A2 JUMPI PUSH1 0x0 CALLDATASIZE PUSH1 0x3 NOT ADD SLT PUSH2 0x1A2 JUMPI PUSH1 0x20 PUSH1 0xC SLOAD PUSH1 0x40 MLOAD SWAP1 DUP2 MSTORE RETURN JUMPDEST CALLVALUE PUSH2 0x1A2 JUMPI PUSH1 0x40 CALLDATASIZE PUSH1 0x3 NOT ADD SLT PUSH2 0x1A2 JUMPI PUSH2 0xB59 PUSH2 0x14D0 JUMP JUMPDEST PUSH2 0xB61 PUSH2 0x1732 JUMP JUMPDEST PUSH1 0x0 SLOAD PUSH1 0x1 PUSH1 0x1 PUSH1 0xA0 SHL SUB SWAP1 DUP2 AND SWAP2 AND DUP1 EXTCODESIZE ISZERO PUSH2 0x1A2 JUMPI PUSH1 0x40 MLOAD PUSH4 0x21421707 PUSH1 0xE1 SHL DUP2 MSTORE ADDRESS PUSH1 0x4 DUP3 ADD MSTORE PUSH1 0x1 PUSH1 0x1 PUSH1 0xA0 SHL SUB DUP4 AND PUSH1 0x24 DUP1 DUP4 ADD SWAP2 SWAP1 SWAP2 MSTORE CALLDATALOAD PUSH1 0x44 DUP3 ADD MSTORE SWAP1 PUSH1 0x0 SWAP1 DUP3 SWAP1 PUSH1 0x64 SWAP1 DUP3 SWAP1 DUP5 SWAP1 GAS CALL DUP1 ISZERO PUSH2 0x511 JUMPI PUSH2 0xBBF JUMPI STOP JUMPDEST PUSH1 0x0 PUSH2 0x1B SWAP2 PUSH2 0x1548 JUMP JUMPDEST CALLVALUE PUSH2 0x1A2 JUMPI PUSH1 0x40 CALLDATASIZE PUSH1 0x3 NOT ADD SLT PUSH2 0x1A2 JUMPI PUSH1 0x0 PUSH1 0x20 PUSH2 0xC28 PUSH2 0xBEA PUSH2 0x14D0 JUMP JUMPDEST PUSH2 0xBF2 PUSH2 0x1732 JUMP JUMPDEST DUP4 SLOAD PUSH1 0x40 MLOAD PUSH4 0xA9059CBB PUSH1 0xE0 SHL DUP2 MSTORE PUSH1 0x1 PUSH1 0x1 PUSH1 0xA0 SHL SUB SWAP1 SWAP2 AND PUSH1 0x4 DUP3 ADD MSTORE PUSH1 0x24 DUP1 CALLDATALOAD SWAP1 DUP3 ADD MSTORE SWAP4 DUP5 SWAP3 DUP4 SWAP2 SWAP1 DUP3 SWAP1 PUSH1 0x44 DUP3 ADD SWAP1 JUMP JUMPDEST SUB SWAP3 PUSH1 0x1 PUSH1 0x1 PUSH1 0xA0 SHL SUB AND GAS CALL DUP1 ISZERO PUSH2 0x511 JUMPI PUSH2 0xC41 JUMPI STOP JUMPDEST PUSH2 0x1B SWAP1 PUSH1 0x20 RETURNDATASIZE PUSH1 0x20 GT PUSH2 0xC62 JUMPI JUMPDEST PUSH2 0xC5A DUP2 DUP4 PUSH2 0x1548 JUMP JUMPDEST DUP2 ADD SWAP1 PUSH2 0x16C4 JUMP JUMPDEST POP RETURNDATASIZE PUSH2 0xC50 JUMP JUMPDEST CALLVALUE PUSH2 0x1A2 JUMPI PUSH1 0x0 CALLDATASIZE PUSH1 0x3 NOT ADD SLT PUSH2 0x1A2 JUMPI PUSH1 0x0 SLOAD PUSH1 0x40 MLOAD PUSH1 0x1 PUSH1 0x1 PUSH1 0xA0 SHL SUB SWAP1 SWAP2 AND DUP2 MSTORE PUSH1 0x20 SWAP1 RETURN JUMPDEST CALLVALUE PUSH2 0x1A2 JUMPI PUSH1 0x0 CALLDATASIZE PUSH1 0x3 NOT ADD SLT PUSH2 0x1A2 JUMPI PUSH2 0xCAB PUSH2 0x1732 JUMP JUMPDEST PUSH1 0x0 DUP1 SLOAD PUSH1 0x1 PUSH1 0x1 PUSH1 0xA0 SHL SUB NOT DUP2 AND DUP3 SSTORE PUSH1 0x1 PUSH1 0x1 PUSH1 0xA0 SHL SUB AND PUSH32 0x8BE0079C531659141344CD1FD0A4F28419497F9722A3DAAFE3B4186F6B6457E0 DUP3 DUP1 LOG3 STOP JUMPDEST CALLVALUE PUSH2 0x1A2 JUMPI PUSH1 0x0 CALLDATASIZE PUSH1 0x3 NOT ADD SLT PUSH2 0x1A2 JUMPI PUSH2 0xD04 PUSH2 0x1732 JUMP JUMPDEST PUSH2 0xD0C PUSH2 0x175B JUMP JUMPDEST SELFBALANCE PUSH1 0x0 DUP1 DUP1 DUP1 DUP5 PUSH1 0x1 DUP1 PUSH1 0xA0 SHL SUB DUP3 SLOAD AND DUP3 DUP3 ISZERO PUSH2 0xD6A JUMPI JUMPDEST CALL ISZERO PUSH2 0x511 JUMPI PUSH1 0x0 SLOAD PUSH1 0x40 MLOAD SWAP2 DUP3 MSTORE PUSH1 0x1 PUSH1 0x1 PUSH1 0xA0 SHL SUB AND SWAP1 PUSH32 0xEAFF4B37086828766AD3268786972C0CD24259D4C87A80F9D3963A3C3D999B0D SWAP1 PUSH1 0x20 SWAP1 LOG2 PUSH1 0x1 DUP1 SSTORE STOP JUMPDEST POP PUSH2 0x8FC PUSH2 0xD25 JUMP JUMPDEST CALLVALUE PUSH2 0x1A2 JUMPI PUSH1 0x20 CALLDATASIZE PUSH1 0x3 NOT ADD SLT PUSH2 0x1A2 JUMPI PUSH1 0x4 CALLDATALOAD PUSH1 0x0 MSTORE PUSH1 0xF PUSH1 0x20 MSTORE PUSH1 0x60 PUSH1 0x40 PUSH1 0x0 KECCAK256 PUSH1 0x1 DUP1 PUSH1 0xA0 SHL SUB DUP2 SLOAD AND SWAP1 PUSH1 0xFF PUSH1 0x2 PUSH1 0x1 DUP4 ADD SLOAD SWAP3 ADD SLOAD AND SWAP1 PUSH1 0x40 MLOAD SWAP3 DUP4 MSTORE PUSH1 0x20 DUP4 ADD MSTORE ISZERO ISZERO PUSH1 0x40 DUP3 ADD MSTORE RETURN JUMPDEST CALLVALUE PUSH2 0x1A2 JUMPI PUSH1 0x80 CALLDATASIZE PUSH1 0x3 NOT ADD SLT PUSH2 0x1A2 JUMPI PUSH2 0xDDC PUSH2 0x14D0 JUMP JUMPDEST PUSH2 0xDE4 PUSH2 0x14E6 JUMP JUMPDEST PUSH1 0x44 CALLDATALOAD PUSH1 0x1 PUSH1 0x1 PUSH1 0xA0 SHL SUB DUP2 AND SWAP2 SWAP1 DUP3 SWAP1 SUB PUSH2 0x1A2 JUMPI PUSH32 0xFC333481437D78E9325F635584C23B08B3A65462687211C81FF8DA3891851D90 SWAP3 PUSH1 0x80 SWAP3 PUSH1 0x64 CALLDATALOAD SWAP2 PUSH2 0xE2B PUSH2 0x1732 JUMP JUMPDEST PUSH1 0x1 DUP1 PUSH1 0xA0 SHL SUB AND SWAP3 DUP4 PUSH1 0x1 PUSH1 0x1 PUSH1 0x60 SHL SUB PUSH1 0xA0 SHL PUSH1 0x6 SLOAD AND OR PUSH1 0x6 SSTORE PUSH1 0x1 DUP1 PUSH1 0xA0 SHL SUB AND DUP1 PUSH1 0x1 PUSH1 0x1 PUSH1 0x60 SHL SUB PUSH1 0xA0 SHL PUSH1 0x7 SLOAD AND OR PUSH1 0x7 SSTORE DUP2 PUSH1 0x1 PUSH1 0x1 PUSH1 0x60 SHL SUB PUSH1 0xA0 SHL PUSH1 0x8 SLOAD AND OR PUSH1 0x8 SSTORE DUP3 PUSH1 0x9 SSTORE PUSH1 0x40 MLOAD SWAP4 DUP5 MSTORE PUSH1 0x20 DUP5 ADD MSTORE PUSH1 0x40 DUP4 ADD MSTORE PUSH1 0x60 DUP3 ADD MSTORE LOG1 STOP JUMPDEST CALLVALUE PUSH2 0x1A2 JUMPI PUSH1 0x40 CALLDATASIZE PUSH1 0x3 NOT ADD SLT PUSH2 0x1A2 JUMPI PUSH1 0x24 CALLDATALOAD PUSH1 0x1 PUSH1 0x1 PUSH1 0x40 SHL SUB DUP2 GT PUSH2 0x1A2 JUMPI PUSH2 0xEC4 SWAP1 CALLDATASIZE SWAP1 PUSH1 0x4 ADD PUSH2 0x15BF JUMP JUMPDEST PUSH32 0x0 PUSH1 0x1 PUSH1 0x1 PUSH1 0xA0 SHL SUB AND CALLER DUP2 SWAP1 SUB PUSH2 0x1410 JUMPI POP PUSH1 0x4 CALLDATALOAD PUSH1 0x0 SWAP1 DUP2 MSTORE PUSH1 0xF PUSH1 0x20 MSTORE PUSH1 0x40 SWAP1 KECCAK256 DUP1 SLOAD PUSH1 0x1 PUSH1 0x1 PUSH1 0xA0 SHL SUB AND SWAP2 SWAP1 DUP3 ISZERO DUP1 ISZERO PUSH2 0x1402 JUMPI JUMPDEST PUSH2 0x13F1 JUMPI PUSH1 0x2 ADD DUP1 SLOAD PUSH1 0xFF NOT AND PUSH1 0x1 OR SWAP1 SSTORE PUSH2 0xF46 PUSH2 0xF3C DUP3 PUSH2 0x16F8 JUMP JUMPDEST MLOAD PUSH1 0xC SLOAD SWAP1 PUSH2 0x1705 JUMP JUMPDEST PUSH1 0x0 SWAP2 SWAP1 DUP3 JUMPDEST PUSH1 0xB SLOAD DUP5 LT ISZERO PUSH2 0x1B JUMPI PUSH1 0xFF PUSH1 0x3 PUSH2 0xF63 DUP7 PUSH2 0x1626 JUMP JUMPDEST POP ADD SLOAD AND ISZERO PUSH2 0x13E8 JUMPI PUSH2 0xF81 SWAP1 PUSH2 0xF79 DUP6 PUSH2 0x1626 JUMP JUMPDEST POP SLOAD SWAP1 PUSH2 0x1725 JUMP JUMPDEST SWAP3 DUP4 DUP3 LT PUSH2 0xF94 JUMPI PUSH1 0x1 SWAP1 JUMPDEST ADD SWAP3 PUSH2 0xF4C JUMP JUMPDEST SWAP3 POP POP PUSH2 0xFA0 SWAP1 PUSH2 0x16F8 JUMP JUMPDEST MLOAD PUSH2 0xFAA DUP3 PUSH2 0x1626 JUMP JUMPDEST POP SWAP2 PUSH1 0x2 PUSH1 0x1 DUP5 ADD SLOAD SWAP4 ADD SLOAD DUP4 DUP2 GT PUSH2 0x13B5 JUMPI JUMPDEST POP DUP1 PUSH2 0x1102 JUMPI POP POP PUSH1 0x6 SLOAD PUSH1 0x40 MLOAD PUSH4 0x70A08231 PUSH1 0xE0 SHL DUP2 MSTORE ADDRESS PUSH1 0x4 DUP3 ADD MSTORE PUSH1 0x1 PUSH1 0x1 PUSH1 0xA0 SHL SUB SWAP1 SWAP2 AND SWAP1 PUSH1 0x20 DUP2 PUSH1 0x24 DUP2 DUP6 GAS STATICCALL DUP1 ISZERO PUSH2 0x511 JUMPI DUP4 SWAP2 PUSH1 0x0 SWAP2 PUSH2 0x10CE JUMPI JUMPDEST POP LT PUSH2 0x55B JUMPI PUSH1 0x40 MLOAD PUSH4 0xA9059CBB PUSH1 0xE0 SHL DUP2 MSTORE PUSH1 0x1 PUSH1 0x1 PUSH1 0xA0 SHL SUB DUP5 AND PUSH1 0x4 DUP3 ADD MSTORE PUSH1 0x24 DUP2 ADD DUP4 SWAP1 MSTORE SWAP1 PUSH1 0x20 SWAP1 DUP3 SWAP1 PUSH1 0x44 SWAP1 DUP3 SWAP1 PUSH1 0x0 SWAP1 GAS CALL SWAP1 DUP2 ISZERO PUSH2 0x511 JUMPI PUSH1 0x0 SWAP2 PUSH2 0x10B0 JUMPI JUMPDEST POP ISZERO PUSH2 0x109F JUMPI PUSH1 0xA0 PUSH32 0xBFA71C1F3EAB9B9AFAC3B012C5023DC1113AFDCD4A99F488B769ED7B283FAAEC SWAP2 PUSH1 0x40 MLOAD SWAP1 PUSH1 0x60 DUP3 MSTORE PUSH1 0x5 PUSH1 0x60 DUP4 ADD MSTORE PUSH5 0x455243323 PUSH1 0xDC SHL PUSH1 0x80 DUP4 ADD MSTORE PUSH1 0x20 DUP3 ADD MSTORE PUSH1 0x0 PUSH1 0x40 DUP3 ADD MSTORE LOG2 STOP JUMPDEST PUSH4 0x12171D83 PUSH1 0xE3 SHL PUSH1 0x0 MSTORE PUSH1 0x4 PUSH1 0x0 REVERT JUMPDEST PUSH2 0x10C8 SWAP2 POP PUSH1 0x20 RETURNDATASIZE DUP2 GT PUSH2 0xC62 JUMPI PUSH2 0xC5A DUP2 DUP4 PUSH2 0x1548 JUMP JUMPDEST DUP4 PUSH2 0x1049 JUMP JUMPDEST SWAP2 POP PUSH1 0x20 DUP3 RETURNDATASIZE DUP3 GT PUSH2 0x10FA JUMPI JUMPDEST DUP2 PUSH2 0x10E8 PUSH1 0x20 SWAP4 DUP4 PUSH2 0x1548 JUMP JUMPDEST DUP2 ADD SUB SLT PUSH2 0x550 JUMPI POP DUP3 SWAP1 MLOAD DUP6 PUSH2 0x1001 JUMP JUMPDEST RETURNDATASIZE SWAP2 POP PUSH2 0x10DB JUMP JUMPDEST PUSH1 0x1 DUP2 SUB PUSH2 0x1243 JUMPI POP POP PUSH1 0x8 SLOAD PUSH1 0x9 SLOAD PUSH1 0x40 MLOAD PUSH3 0x7EEAC7 PUSH1 0xE1 SHL DUP2 MSTORE ADDRESS PUSH1 0x4 DUP3 ADD MSTORE PUSH1 0x24 DUP2 ADD DUP3 SWAP1 MSTORE PUSH1 0x1 PUSH1 0x1 PUSH1 0xA0 SHL SUB SWAP1 SWAP3 AND SWAP3 SWAP2 PUSH1 0x20 DUP2 PUSH1 0x44 DUP2 DUP8 GAS STATICCALL DUP1 ISZERO PUSH2 0x511 JUMPI DUP4 SWAP2 PUSH1 0x0 SWAP2 PUSH2 0x120F JUMPI JUMPDEST POP LT PUSH2 0x55B JUMPI DUP3 EXTCODESIZE ISZERO PUSH2 0x1A2 JUMPI PUSH1 0x0 SWAP3 PUSH1 0xC4 DUP5 SWAP3 PUSH1 0x40 MLOAD SWAP6 DUP7 SWAP4 DUP5 SWAP3 PUSH4 0x79212195 PUSH1 0xE1 SHL DUP5 MSTORE ADDRESS PUSH1 0x4 DUP6 ADD MSTORE DUP10 PUSH1 0x24 DUP6 ADD MSTORE PUSH1 0x44 DUP5 ADD MSTORE DUP7 PUSH1 0x64 DUP5 ADD MSTORE PUSH1 0xA0 PUSH1 0x84 DUP5 ADD MSTORE DUP2 PUSH1 0xA4 DUP5 ADD MSTORE GAS CALL SWAP1 DUP2 ISZERO PUSH2 0x511 JUMPI PUSH32 0xBFA71C1F3EAB9B9AFAC3B012C5023DC1113AFDCD4A99F488B769ED7B283FAAEC SWAP3 PUSH1 0xA0 SWAP3 PUSH2 0x11FE JUMPI JUMPDEST POP PUSH1 0x9 SLOAD PUSH1 0x40 MLOAD SWAP2 PUSH1 0x60 DUP4 MSTORE PUSH1 0x7 PUSH1 0x60 DUP5 ADD MSTORE PUSH7 0x45524331313535 PUSH1 0xC8 SHL PUSH1 0x80 DUP5 ADD MSTORE PUSH1 0x20 DUP4 ADD MSTORE PUSH1 0x40 DUP3 ADD MSTORE LOG2 STOP JUMPDEST PUSH1 0x0 PUSH2 0x1209 SWAP2 PUSH2 0x1548 JUMP JUMPDEST DUP5 PUSH2 0x11CE JUMP JUMPDEST SWAP2 POP PUSH1 0x20 DUP3 RETURNDATASIZE DUP3 GT PUSH2 0x123B JUMPI JUMPDEST DUP2 PUSH2 0x1229 PUSH1 0x20 SWAP4 DUP4 PUSH2 0x1548 JUMP JUMPDEST DUP2 ADD SUB SLT PUSH2 0x550 JUMPI POP DUP3 SWAP1 MLOAD DUP7 PUSH2 0x1151 JUMP JUMPDEST RETURNDATASIZE SWAP2 POP PUSH2 0x121C JUMP JUMPDEST PUSH1 0x2 SWAP2 SWAP3 POP EQ PUSH2 0x124F JUMPI STOP JUMPDEST PUSH1 0xE SLOAD DUP1 ISZERO PUSH2 0x55B JUMPI PUSH2 0x1261 SWAP2 PUSH2 0x1705 JUMP JUMPDEST PUSH1 0x0 DUP1 SWAP2 DUP2 JUMPDEST PUSH2 0x3E8 DUP2 LT PUSH2 0x1372 JUMPI JUMPDEST POP POP PUSH1 0x7 SLOAD PUSH1 0x1 PUSH1 0x1 PUSH1 0xA0 SHL SUB AND SWAP1 POP DUP1 EXTCODESIZE ISZERO PUSH2 0x1A2 JUMPI PUSH1 0x40 MLOAD PUSH4 0x21421707 PUSH1 0xE1 SHL DUP2 MSTORE ADDRESS PUSH1 0x4 DUP3 ADD MSTORE PUSH1 0x1 PUSH1 0x1 PUSH1 0xA0 SHL SUB DUP5 AND PUSH1 0x24 DUP3 ADD MSTORE PUSH1 0x44 DUP2 ADD DUP4 SWAP1 MSTORE SWAP1 PUSH1 0x0 SWAP1 DUP3 SWAP1 PUSH1 0x64 SWAP1 DUP3 SWAP1 DUP5 SWAP1 GAS CALL DUP1 ISZERO PUSH2 0x511 JUMPI PUSH2 0x1361 JUMPI JUMPDEST POP DUP1 PUSH1 0x0 MSTORE PUSH1 0xD PUSH1 0x20 MSTORE PUSH1 0x0 PUSH1 0x40 DUP2 KECCAK256 SSTORE PUSH1 0xE SLOAD SWAP1 DUP2 ISZERO PUSH2 0x134B JUMPI PUSH32 0xBFA71C1F3EAB9B9AFAC3B012C5023DC1113AFDCD4A99F488B769ED7B283FAAEC SWAP2 PUSH1 0x0 NOT ADD PUSH1 0xE SSTORE PUSH1 0x40 MLOAD DUP1 SWAP2 PUSH1 0x60 DUP3 MSTORE PUSH2 0x1339 PUSH1 0x60 DUP4 ADD PUSH1 0x40 SWAP1 PUSH1 0x6 DUP2 MSTORE PUSH6 0x455243373231 PUSH1 0xD0 SHL PUSH1 0x20 DUP3 ADD MSTORE ADD SWAP1 JUMP JUMPDEST SWAP1 PUSH1 0x1 PUSH1 0x20 DUP5 ADD MSTORE PUSH1 0x40 DUP4 ADD MSTORE SUB SWAP1 LOG2 STOP JUMPDEST PUSH4 0x4E487B71 PUSH1 0xE0 SHL PUSH1 0x0 MSTORE PUSH1 0x11 PUSH1 0x4 MSTORE PUSH1 0x24 PUSH1 0x0 REVERT JUMPDEST PUSH1 0x0 PUSH2 0x136C SWAP2 PUSH2 0x1548 JUMP JUMPDEST DUP3 PUSH2 0x12CB JUMP JUMPDEST DUP1 PUSH1 0x0 MSTORE PUSH1 0xD PUSH1 0x20 MSTORE PUSH1 0x40 PUSH1 0x0 KECCAK256 SLOAD PUSH2 0x138E JUMPI JUMPDEST PUSH1 0x1 ADD PUSH2 0x1267 JUMP JUMPDEST SWAP2 DUP2 DUP2 EQ PUSH2 0x13A9 JUMPI PUSH2 0x13A1 PUSH1 0x1 SWAP2 PUSH2 0x16DC JUMP JUMPDEST SWAP3 SWAP1 POP PUSH2 0x1386 JUMP JUMPDEST POP POP SWAP1 POP DUP3 DUP1 DUP1 PUSH2 0x1271 JUMP JUMPDEST DUP4 PUSH2 0x13C2 SWAP2 SWAP5 SWAP3 SWAP5 PUSH2 0x16EB JUMP JUMPDEST SWAP1 PUSH1 0x1 DUP3 ADD DUP1 SWAP3 GT PUSH2 0x134B JUMPI PUSH2 0x13DB PUSH2 0x13E1 SWAP3 DUP5 PUSH2 0x1705 JUMP JUMPDEST SWAP1 PUSH2 0x1725 JUMP JUMPDEST SWAP2 DUP5 PUSH2 0xFBE JUMP JUMPDEST SWAP3 PUSH1 0x1 SWAP1 PUSH2 0xF8D JUMP JUMPDEST PUSH4 0x41ABC801 PUSH1 0xE0 SHL PUSH1 0x0 MSTORE PUSH1 0x4 PUSH1 0x0 REVERT JUMPDEST POP PUSH1 0xFF PUSH1 0x2 DUP3 ADD SLOAD AND PUSH2 0xF1E JUMP JUMPDEST PUSH4 0x73E64FD PUSH1 0xE2 SHL PUSH1 0x0 MSTORE CALLER PUSH1 0x4 MSTORE PUSH1 0x24 MSTORE PUSH1 0x44 PUSH1 0x0 REVERT JUMPDEST CALLVALUE PUSH2 0x1A2 JUMPI PUSH1 0x80 CALLDATASIZE PUSH1 0x3 NOT ADD SLT PUSH2 0x1A2 JUMPI PUSH2 0x1441 PUSH2 0x14D0 JUMP JUMPDEST POP PUSH2 0x144A PUSH2 0x14E6 JUMP JUMPDEST POP PUSH1 0x64 CALLDATALOAD PUSH1 0x1 PUSH1 0x1 PUSH1 0x40 SHL SUB DUP2 GT PUSH2 0x1A2 JUMPI PUSH2 0x146A SWAP1 CALLDATASIZE SWAP1 PUSH1 0x4 ADD PUSH2 0x1569 JUMP JUMPDEST POP PUSH1 0x40 MLOAD PUSH4 0xA85BD01 PUSH1 0xE1 SHL DUP2 MSTORE PUSH1 0x20 SWAP1 RETURN JUMPDEST CALLVALUE PUSH2 0x1A2 JUMPI PUSH1 0x20 CALLDATASIZE PUSH1 0x3 NOT ADD SLT PUSH2 0x1A2 JUMPI PUSH1 0x4 CALLDATALOAD SWAP1 PUSH4 0xFFFFFFFF PUSH1 0xE0 SHL DUP3 AND DUP1 SWAP3 SUB PUSH2 0x1A2 JUMPI PUSH1 0x20 SWAP2 PUSH4 0x2711897 PUSH1 0xE5 SHL DUP2 EQ SWAP1 DUP2 ISZERO PUSH2 0x14BF JUMPI JUMPDEST POP ISZERO ISZERO DUP2 MSTORE RETURN JUMPDEST PUSH4 0x1FFC9A7 PUSH1 0xE0 SHL EQ SWAP1 POP DUP4 PUSH2 0x14B8 JUMP JUMPDEST PUSH1 0x4 CALLDATALOAD SWAP1 PUSH1 0x1 PUSH1 0x1 PUSH1 0xA0 SHL SUB DUP3 AND DUP3 SUB PUSH2 0x1A2 JUMPI JUMP JUMPDEST PUSH1 0x24 CALLDATALOAD SWAP1 PUSH1 0x1 PUSH1 0x1 PUSH1 0xA0 SHL SUB DUP3 AND DUP3 SUB PUSH2 0x1A2 JUMPI JUMP JUMPDEST PUSH1 0x80 DUP2 ADD SWAP1 DUP2 LT PUSH1 0x1 PUSH1 0x1 PUSH1 0x40 SHL SUB DUP3 GT OR PUSH2 0x1517 JUMPI PUSH1 0x40 MSTORE JUMP JUMPDEST PUSH4 0x4E487B71 PUSH1 0xE0 SHL PUSH1 0x0 MSTORE PUSH1 0x41 PUSH1 0x4 MSTORE PUSH1 0x24 PUSH1 0x0 REVERT JUMPDEST PUSH1 0x60 DUP2 ADD SWAP1 DUP2 LT PUSH1 0x1 PUSH1 0x1 PUSH1 0x40 SHL SUB DUP3 GT OR PUSH2 0x1517 JUMPI PUSH1 0x40 MSTORE JUMP JUMPDEST SWAP1 PUSH1 0x1F DUP1 NOT SWAP2 ADD AND DUP2 ADD SWAP1 DUP2 LT PUSH1 0x1 PUSH1 0x1 PUSH1 0x40 SHL SUB DUP3 GT OR PUSH2 0x1517 JUMPI PUSH1 0x40 MSTORE JUMP JUMPDEST DUP2 PUSH1 0x1F DUP3 ADD SLT ISZERO PUSH2 0x1A2 JUMPI DUP1 CALLDATALOAD SWAP1 PUSH1 0x1 PUSH1 0x1 PUSH1 0x40 SHL SUB DUP3 GT PUSH2 0x1517 JUMPI PUSH1 0x40 MLOAD SWAP3 PUSH2 0x159D PUSH1 0x1F DUP5 ADD PUSH1 0x1F NOT AND PUSH1 0x20 ADD DUP6 PUSH2 0x1548 JUMP JUMPDEST DUP3 DUP5 MSTORE PUSH1 0x20 DUP4 DUP4 ADD ADD GT PUSH2 0x1A2 JUMPI DUP2 PUSH1 0x0 SWAP3 PUSH1 0x20 DUP1 SWAP4 ADD DUP4 DUP7 ADD CALLDATACOPY DUP4 ADD ADD MSTORE SWAP1 JUMP JUMPDEST SWAP1 DUP1 PUSH1 0x1F DUP4 ADD SLT ISZERO PUSH2 0x1A2 JUMPI DUP2 CALLDATALOAD SWAP2 PUSH1 0x1 PUSH1 0x1 PUSH1 0x40 SHL SUB DUP4 GT PUSH2 0x1517 JUMPI DUP3 PUSH1 0x5 SHL SWAP1 PUSH1 0x40 MLOAD SWAP4 PUSH2 0x15F2 PUSH1 0x20 DUP5 ADD DUP7 PUSH2 0x1548 JUMP JUMPDEST DUP5 MSTORE PUSH1 0x20 DUP1 DUP6 ADD SWAP3 DUP3 ADD ADD SWAP3 DUP4 GT PUSH2 0x1A2 JUMPI PUSH1 0x20 ADD SWAP1 JUMPDEST DUP3 DUP3 LT PUSH2 0x1616 JUMPI POP POP POP SWAP1 JUMP JUMPDEST DUP2 CALLDATALOAD DUP2 MSTORE PUSH1 0x20 SWAP2 DUP3 ADD SWAP2 ADD PUSH2 0x1609 JUMP JUMPDEST PUSH1 0xB SLOAD DUP2 LT ISZERO PUSH2 0x1645 JUMPI PUSH1 0xB PUSH1 0x0 MSTORE PUSH1 0x20 PUSH1 0x0 KECCAK256 SWAP1 PUSH1 0x2 SHL ADD SWAP1 PUSH1 0x0 SWAP1 JUMP JUMPDEST PUSH4 0x4E487B71 PUSH1 0xE0 SHL PUSH1 0x0 MSTORE PUSH1 0x32 PUSH1 0x4 MSTORE PUSH1 0x24 PUSH1 0x0 REVERT JUMPDEST PUSH1 0xB SLOAD ISZERO PUSH2 0x1645 JUMPI PUSH1 0xB PUSH1 0x0 SWAP1 DUP2 MSTORE PUSH32 0x175B7A638427703F0DBE7BB9BBF987A2551717B34E79F33B5B1008D1FA01DB9 SWAP2 JUMP JUMPDEST PUSH1 0xB SLOAD PUSH1 0x1 LT ISZERO PUSH2 0x1645 JUMPI PUSH1 0xB PUSH1 0x0 SWAP1 DUP2 MSTORE PUSH32 0x175B7A638427703F0DBE7BB9BBF987A2551717B34E79F33B5B1008D1FA01DBD SWAP2 JUMP JUMPDEST SWAP1 DUP2 PUSH1 0x20 SWAP2 SUB SLT PUSH2 0x1A2 JUMPI MLOAD DUP1 ISZERO ISZERO DUP2 SUB PUSH2 0x1A2 JUMPI SWAP1 JUMP JUMPDEST PUSH1 0x0 NOT DUP2 EQ PUSH2 0x134B JUMPI PUSH1 0x1 ADD SWAP1 JUMP JUMPDEST SWAP2 SWAP1 DUP3 SUB SWAP2 DUP3 GT PUSH2 0x134B JUMPI JUMP JUMPDEST DUP1 MLOAD ISZERO PUSH2 0x1645 JUMPI PUSH1 0x20 ADD SWAP1 JUMP JUMPDEST DUP2 ISZERO PUSH2 0x170F JUMPI MOD SWAP1 JUMP JUMPDEST PUSH4 0x4E487B71 PUSH1 0xE0 SHL PUSH1 0x0 MSTORE PUSH1 0x12 PUSH1 0x4 MSTORE PUSH1 0x24 PUSH1 0x0 REVERT JUMPDEST SWAP2 SWAP1 DUP3 ADD DUP1 SWAP3 GT PUSH2 0x134B JUMPI JUMP JUMPDEST PUSH1 0x0 SLOAD PUSH1 0x1 PUSH1 0x1 PUSH1 0xA0 SHL SUB AND CALLER SUB PUSH2 0x1746 JUMPI JUMP JUMPDEST PUSH4 0x118CDAA7 PUSH1 0xE0 SHL PUSH1 0x0 MSTORE CALLER PUSH1 0x4 MSTORE PUSH1 0x24 PUSH1 0x0 REVERT JUMPDEST PUSH1 0x2 PUSH1 0x1 SLOAD EQ PUSH2 0x176C JUMPI PUSH1 0x2 PUSH1 0x1 SSTORE JUMP JUMPDEST PUSH4 0x3EE5AEB5 PUSH1 0xE0 SHL PUSH1 0x0 MSTORE PUSH1 0x4 PUSH1 0x0 REVERT JUMPDEST PUSH1 0xFF PUSH1 0x3 PUSH2 0x1789 PUSH2 0x165B JUMP JUMPDEST POP ADD SLOAD AND DUP1 PUSH2 0x18A7 JUMPI JUMPDEST PUSH2 0x17F6 JUMPI PUSH1 0xFF PUSH1 0x3 PUSH2 0x17A3 PUSH2 0x168E JUMP JUMPDEST POP ADD SLOAD AND DUP1 PUSH2 0x181A JUMPI JUMPDEST PUSH2 0x17F6 JUMPI PUSH1 0x0 PUSH1 0xB SLOAD PUSH1 0x2 LT ISZERO PUSH2 0x1806 JUMPI PUSH1 0xB SWAP1 MSTORE PUSH32 0x175B7A638427703F0DBE7BB9BBF987A2551717B34E79F33B5B1008D1FA01DC4 SLOAD PUSH1 0xFF AND DUP1 PUSH2 0x17FB JUMPI JUMPDEST PUSH2 0x17F6 JUMPI PUSH1 0x0 SWAP1 JUMP JUMPDEST PUSH1 0x1 SWAP1 JUMP JUMPDEST POP PUSH1 0xE SLOAD ISZERO ISZERO PUSH2 0x17ED JUMP JUMPDEST PUSH4 0x4E487B71 PUSH1 0xE0 SHL DUP2 MSTORE PUSH1 0x32 PUSH1 0x4 MSTORE PUSH1 0x24 SWAP1 REVERT JUMPDEST POP PUSH1 0x8 SLOAD PUSH1 0x9 SLOAD PUSH1 0x40 MLOAD PUSH3 0x7EEAC7 PUSH1 0xE1 SHL DUP2 MSTORE ADDRESS PUSH1 0x4 DUP3 ADD MSTORE PUSH1 0x24 DUP2 ADD SWAP2 SWAP1 SWAP2 MSTORE SWAP1 PUSH1 0x20 SWAP1 DUP3 SWAP1 PUSH1 0x44 SWAP1 DUP3 SWAP1 PUSH1 0x1 PUSH1 0x1 PUSH1 0xA0 SHL SUB AND GAS STATICCALL SWAP1 DUP2 ISZERO PUSH2 0x511 JUMPI PUSH1 0x0 SWAP2 PUSH2 0x1875 JUMPI JUMPDEST POP PUSH1 0x1 PUSH2 0x186B PUSH2 0x168E JUMP JUMPDEST POP ADD SLOAD GT ISZERO PUSH2 0x17AD JUMP JUMPDEST SWAP1 POP PUSH1 0x20 DUP2 RETURNDATASIZE PUSH1 0x20 GT PUSH2 0x189F JUMPI JUMPDEST DUP2 PUSH2 0x1890 PUSH1 0x20 SWAP4 DUP4 PUSH2 0x1548 JUMP JUMPDEST DUP2 ADD SUB SLT PUSH2 0x1A2 JUMPI MLOAD CODESIZE PUSH2 0x1860 JUMP JUMPDEST RETURNDATASIZE SWAP2 POP PUSH2 0x1883 JUMP JUMPDEST POP PUSH1 0x6 SLOAD PUSH1 0x40 MLOAD PUSH4 0x70A08231 PUSH1 0xE0 SHL DUP2 MSTORE ADDRESS PUSH1 0x4 DUP3 ADD MSTORE SWAP1 PUSH1 0x20 SWAP1 DUP3 SWAP1 PUSH1 0x24 SWAP1 DUP3 SWAP1 PUSH1 0x1 PUSH1 0x1 PUSH1 0xA0 SHL SUB AND GAS STATICCALL SWAP1 DUP2 ISZERO PUSH2 0x511 JUMPI PUSH1 0x0 SWAP2 PUSH2 0x18F8 JUMPI JUMPDEST POP PUSH1 0x1 PUSH2 0x18EE PUSH2 0x165B JUMP JUMPDEST POP ADD SLOAD GT ISZERO PUSH2 0x1793 JUMP JUMPDEST SWAP1 POP PUSH1 0x20 DUP2 RETURNDATASIZE PUSH1 0x20 GT PUSH2 0x1922 JUMPI JUMPDEST DUP2 PUSH2 0x1913 PUSH1 0x20 SWAP4 DUP4 PUSH2 0x1548 JUMP JUMPDEST DUP2 ADD SUB SLT PUSH2 0x1A2 JUMPI MLOAD CODESIZE PUSH2 0x18E3 JUMP JUMPDEST RETURNDATASIZE SWAP2 POP PUSH2 0x1906 JUMP INVALID LOG2 PUSH5 0x6970667358 0x22 SLT KECCAK256 0xE4 0xC 0xD6 OR 0xAE PUSH29 0xB6001A184970A085E13227EC8C0CADC97A4293EE90C8ACBE159164736F PUSH13 0x634300081C0033000000000000 "},"methodIdentifiers":{"availableERC721Count()":"9d32d2f7","availableERC721Tokens(uint256)":"aa10b2f4","boxPrice()":"a6482858","emergencyWithdrawNFT(address,uint256)":"922b8079","emergencyWithdrawTokens(address,uint256)":"917bb998","getInventoryStatus()":"b2becc21","getPendingRequest(uint256)":"daf484e0","getRewardTier(uint256)":"eb586cae","onERC1155BatchReceived(address,address,uint256[],uint256[],bytes)":"bc197c81","onERC1155Received(address,address,uint256,uint256,bytes)":"f23a6e61","onERC721Received(address,address,uint256,bytes)":"150b7a02","openBox()":"c2e952c7","owner()":"8da5cb5b","pendingRequests(uint256)":"3c652a9a","rawFulfillRandomWords(uint256,uint256[])":"1fe543e3","renounceOwnership()":"715018a6","replenishERC721Inventory(uint256[])":"c225fbd1","rewardTiers(uint256)":"ff201114","supportsInterface(bytes4)":"01ffc9a7","tokens()":"9d63848a","totalWeight()":"96c82e57","transferOwnership(address)":"f2fde38b","updateBoxPrice(uint256)":"afa92d0d","updateRewardTier(uint256,uint256,uint256,uint256,bool)":"bcd554f6","updateTokenContracts(address,address,address,uint256)":"2f65e98c","withdraw()":"3ccfd60b"}}}}}