{
  "contracts/Todo.sol": {
    "TodoList": {
      "abi": [
        {
          "inputs": [],
          "name": "INDEX_OUT_OF_BOUND",
          "type": "error"
        },
        {
          "inputs": [
            {
              "internalType": "string",
              "name": "_title",
              "type": "string"
            },
            {
              "internalType": "string",
              "name": "_description",
              "type": "string"
            }
          ],
          "name": "create_todo",
          "outputs": [],
          "stateMutability": "nonpayable",
          "type": "function"
        },
        {
          "inputs": [
            {
              "internalType": "uint256",
              "name": "_index",
              "type": "uint256"
            }
          ],
          "name": "deleteTodo",
          "outputs": [],
          "stateMutability": "nonpayable",
          "type": "function"
        },
        {
          "inputs": [
            {
              "internalType": "uint256",
              "name": "_index",
              "type": "uint256"
            }
          ],
          "name": "getTodo",
          "outputs": [
            {
              "internalType": "string",
              "name": "",
              "type": "string"
            },
            {
              "internalType": "string",
              "name": "",
              "type": "string"
            },
            {
              "internalType": "bool",
              "name": "",
              "type": "bool"
            }
          ],
          "stateMutability": "view",
          "type": "function"
        },
        {
          "inputs": [],
          "name": "getTodos",
          "outputs": [
            {
              "components": [
                {
                  "internalType": "uint256",
                  "name": "id",
                  "type": "uint256"
                },
                {
                  "internalType": "string",
                  "name": "title",
                  "type": "string"
                },
                {
                  "internalType": "string",
                  "name": "description",
                  "type": "string"
                },
                {
                  "internalType": "bool",
                  "name": "status",
                  "type": "bool"
                }
              ],
              "internalType": "struct TodoList.Todo[]",
              "name": "",
              "type": "tuple[]"
            }
          ],
          "stateMutability": "view",
          "type": "function"
        },
        {
          "inputs": [
            {
              "internalType": "uint256",
              "name": "_index",
              "type": "uint256"
            }
          ],
          "name": "toogleTodo",
          "outputs": [],
          "stateMutability": "nonpayable",
          "type": "function"
        },
        {
          "inputs": [
            {
              "internalType": "uint256",
              "name": "_index",
              "type": "uint256"
            },
            {
              "internalType": "string",
              "name": "_title",
              "type": "string"
            },
            {
              "internalType": "string",
              "name": "_description",
              "type": "string"
            }
          ],
          "name": "update_todo",
          "outputs": [],
          "stateMutability": "nonpayable",
          "type": "function"
        }
      ],
      "evm": {
        "bytecode": {
          "linkReferences": {},
          "object": "6080604052336000806101000a81548173ffffffffffffffffffffffffffffffffffffffff021916908373ffffffffffffffffffffffffffffffffffffffff160217905550348015604f57600080fd5b506113ed8061005f6000396000f3fe608060405234801561001057600080fd5b50600436106100625760003560e01c80630bddc354146100675780636e3c6738146100835780638f08bb211461009f578063b5c90fd5146100bb578063c33926cb146100d7578063dd68afb6146100f5575b600080fd5b610081600480360381019061007c91906109db565b610127565b005b61009d600480360381019061009891906109db565b610219565b005b6100b960048036038101906100b49190610b4e565b6103b9565b005b6100d560048036038101906100d09190610bd9565b6104a3565b005b6100df6105a8565b6040516100ec9190610e26565b60405180910390f35b61010f600480360381019061010a91906109db565b61078d565b60405161011e93929190610ea1565b60405180910390f35b6000600160003373ffffffffffffffffffffffffffffffffffffffff1673ffffffffffffffffffffffffffffffffffffffff1681526020019081526020016000209050808054905082106101a7576040517f25141a9400000000000000000000000000000000000000000000000000000000815260040160405180910390fd5b8082815481106101ba576101b9610ee6565b5b906000526020600020906004020160030160009054906101000a900460ff16158183815481106101ed576101ec610ee6565b5b906000526020600020906004020160030160006101000a81548160ff0219169083151502179055505050565b6000600160003373ffffffffffffffffffffffffffffffffffffffff1673ffffffffffffffffffffffffffffffffffffffff168152602001908152602001600020905080805490508210610299576040517f25141a9400000000000000000000000000000000000000000000000000000000815260040160405180910390fd5b80600182805490506102ab9190610f44565b815481106102bc576102bb610ee6565b5b90600052602060002090600402018183815481106102dd576102dc610ee6565b5b90600052602060002090600402016000820154816000015560018201816001019081610309919061119a565b506002820181600201908161031e919061119a565b506003820160009054906101000a900460ff168160030160006101000a81548160ff021916908315150217905550905050808054806103605761035f611282565b5b600190038181906000526020600020906004020160008082016000905560018201600061038d9190610934565b60028201600061039d9190610934565b6003820160006101000a81549060ff0219169055505090555050565b6000600160003373ffffffffffffffffffffffffffffffffffffffff1673ffffffffffffffffffffffffffffffffffffffff168152602001908152602001600020905080805490508410610439576040517f25141a9400000000000000000000000000000000000000000000000000000000815260040160405180910390fd5b8281858154811061044d5761044c610ee6565b5b9060005260206000209060040201600101908161046a91906112b1565b508181858154811061047f5761047e610ee6565b5b9060005260206000209060040201600201908161049c91906112b1565b5050505050565b60016002546104b29190611383565b600281905550600060405180608001604052806002548152602001848152602001838152602001600015158152509050600160003373ffffffffffffffffffffffffffffffffffffffff1673ffffffffffffffffffffffffffffffffffffffff16815260200190815260200160002081908060018154018082558091505060019003906000526020600020906004020160009091909190915060008201518160000155602082015181600101908161056a91906112b1565b50604082015181600201908161058091906112b1565b5060608201518160030160006101000a81548160ff0219169083151502179055505050505050565b6060600160003373ffffffffffffffffffffffffffffffffffffffff1673ffffffffffffffffffffffffffffffffffffffff168152602001908152602001600020805480602002602001604051908101604052809291908181526020016000905b8282101561078457838290600052602060002090600402016040518060800160405290816000820154815260200160018201805461064690610fa7565b80601f016020809104026020016040519081016040528092919081815260200182805461067290610fa7565b80156106bf5780601f10610694576101008083540402835291602001916106bf565b820191906000526020600020905b8154815290600101906020018083116106a257829003601f168201915b505050505081526020016002820180546106d890610fa7565b80601f016020809104026020016040519081016040528092919081815260200182805461070490610fa7565b80156107515780601f1061072657610100808354040283529160200191610751565b820191906000526020600020905b81548152906001019060200180831161073457829003601f168201915b505050505081526020016003820160009054906101000a900460ff16151515158152505081526020019060010190610609565b50505050905090565b606080600080600160003373ffffffffffffffffffffffffffffffffffffffff1673ffffffffffffffffffffffffffffffffffffffff16815260200190815260200160002085815481106107e4576107e3610ee6565b5b9060005260206000209060040201905080600101816002018260030160009054906101000a900460ff1682805461081a90610fa7565b80601f016020809104026020016040519081016040528092919081815260200182805461084690610fa7565b80156108935780601f1061086857610100808354040283529160200191610893565b820191906000526020600020905b81548152906001019060200180831161087657829003601f168201915b505050505092508180546108a690610fa7565b80601f01602080910402602001604051908101604052809291908181526020018280546108d290610fa7565b801561091f5780601f106108f45761010080835404028352916020019161091f565b820191906000526020600020905b81548152906001019060200180831161090257829003601f168201915b50505050509150935093509350509193909250565b50805461094090610fa7565b6000825580601f106109525750610971565b601f0160209004906000526020600020908101906109709190610974565b5b50565b5b8082111561098d576000816000905550600101610975565b5090565b6000604051905090565b600080fd5b600080fd5b6000819050919050565b6109b8816109a5565b81146109c357600080fd5b50565b6000813590506109d5816109af565b92915050565b6000602082840312156109f1576109f061099b565b5b60006109ff848285016109c6565b91505092915050565b600080fd5b600080fd5b6000601f19601f8301169050919050565b7f4e487b7100000000000000000000000000000000000000000000000000000000600052604160045260246000fd5b610a5b82610a12565b810181811067ffffffffffffffff82111715610a7a57610a79610a23565b5b80604052505050565b6000610a8d610991565b9050610a998282610a52565b919050565b600067ffffffffffffffff821115610ab957610ab8610a23565b5b610ac282610a12565b9050602081019050919050565b82818337600083830152505050565b6000610af1610aec84610a9e565b610a83565b905082815260208101848484011115610b0d57610b0c610a0d565b5b610b18848285610acf565b509392505050565b600082601f830112610b3557610b34610a08565b5b8135610b45848260208601610ade565b91505092915050565b600080600060608486031215610b6757610b6661099b565b5b6000610b75868287016109c6565b935050602084013567ffffffffffffffff811115610b9657610b956109a0565b5b610ba286828701610b20565b925050604084013567ffffffffffffffff811115610bc357610bc26109a0565b5b610bcf86828701610b20565b9150509250925092565b60008060408385031215610bf057610bef61099b565b5b600083013567ffffffffffffffff811115610c0e57610c0d6109a0565b5b610c1a85828601610b20565b925050602083013567ffffffffffffffff811115610c3b57610c3a6109a0565b5b610c4785828601610b20565b9150509250929050565b600081519050919050565b600082825260208201905092915050565b6000819050602082019050919050565b610c86816109a5565b82525050565b600081519050919050565b600082825260208201905092915050565b60005b83811015610cc6578082015181840152602081019050610cab565b60008484015250505050565b6000610cdd82610c8c565b610ce78185610c97565b9350610cf7818560208601610ca8565b610d0081610a12565b840191505092915050565b60008115159050919050565b610d2081610d0b565b82525050565b6000608083016000830151610d3e6000860182610c7d565b5060208301518482036020860152610d568282610cd2565b91505060408301518482036040860152610d708282610cd2565b9150506060830151610d856060860182610d17565b508091505092915050565b6000610d9c8383610d26565b905092915050565b6000602082019050919050565b6000610dbc82610c51565b610dc68185610c5c565b935083602082028501610dd885610c6d565b8060005b85811015610e145784840389528151610df58582610d90565b9450610e0083610da4565b925060208a01995050600181019050610ddc565b50829750879550505050505092915050565b60006020820190508181036000830152610e408184610db1565b905092915050565b600082825260208201905092915050565b6000610e6482610c8c565b610e6e8185610e48565b9350610e7e818560208601610ca8565b610e8781610a12565b840191505092915050565b610e9b81610d0b565b82525050565b60006060820190508181036000830152610ebb8186610e59565b90508181036020830152610ecf8185610e59565b9050610ede6040830184610e92565b949350505050565b7f4e487b7100000000000000000000000000000000000000000000000000000000600052603260045260246000fd5b7f4e487b7100000000000000000000000000000000000000000000000000000000600052601160045260246000fd5b6000610f4f826109a5565b9150610f5a836109a5565b9250828203905081811115610f7257610f71610f15565b5b92915050565b7f4e487b7100000000000000000000000000000000000000000000000000000000600052602260045260246000fd5b60006002820490506001821680610fbf57607f821691505b602082108103610fd257610fd1610f78565b5b50919050565b600081549050610fe781610fa7565b9050919050565b60008190508160005260206000209050919050565b60006020601f8301049050919050565b600082821b905092915050565b6000600883026110507fffffffffffffffffffffffffffffffffffffffffffffffffffffffffffffffff82611013565b61105a8683611013565b95508019841693508086168417925050509392505050565b6000819050919050565b600061109761109261108d846109a5565b611072565b6109a5565b9050919050565b6000819050919050565b6110b18361107c565b6110c56110bd8261109e565b848454611020565b825550505050565b600090565b6110da6110cd565b6110e58184846110a8565b505050565b5b81811015611109576110fe6000826110d2565b6001810190506110eb565b5050565b601f82111561114e5761111f81610fee565b61112884611003565b81016020851015611137578190505b61114b61114385611003565b8301826110ea565b50505b505050565b600082821c905092915050565b600061117160001984600802611153565b1980831691505092915050565b600061118a8383611160565b9150826002028217905092915050565b8181036111a8575050611280565b6111b182610fd8565b67ffffffffffffffff8111156111ca576111c9610a23565b5b6111d48254610fa7565b6111df82828561110d565b6000601f83116001811461120e57600084156111fc578287015490505b611206858261117e565b865550611279565b601f19841661121c87610fee565b965061122786610fee565b60005b8281101561124f5784890154825560018201915060018501945060208101905061122a565b8683101561126c5784890154611268601f891682611160565b8355505b6001600288020188555050505b5050505050505b565b7f4e487b7100000000000000000000000000000000000000000000000000000000600052603160045260246000fd5b6112ba82610c8c565b67ffffffffffffffff8111156112d3576112d2610a23565b5b6112dd8254610fa7565b6112e882828561110d565b600060209050601f83116001811461131b5760008415611309578287015190505b611313858261117e565b86555061137b565b601f19841661132986610fee565b60005b828110156113515784890151825560018201915060208501945060208101905061132c565b8683101561136e578489015161136a601f891682611160565b8355505b6001600288020188555050505b505050505050565b600061138e826109a5565b9150611399836109a5565b92508282019050808211156113b1576113b0610f15565b5b9291505056fea26469706673582212202081942dca9de718c7dd3bd9a790d3a450a271f92f774d91d1d87b2aa805237c64736f6c634300081e0033",
          "opcodes": "PUSH1 0x80 PUSH1 0x40 MSTORE CALLER PUSH1 0x0 DUP1 PUSH2 0x100 EXP DUP2 SLOAD DUP2 PUSH20 0xFFFFFFFFFFFFFFFFFFFFFFFFFFFFFFFFFFFFFFFF MUL NOT AND SWAP1 DUP4 PUSH20 0xFFFFFFFFFFFFFFFFFFFFFFFFFFFFFFFFFFFFFFFF AND MUL OR SWAP1 SSTORE POP CALLVALUE DUP1 ISZERO PUSH1 0x4F JUMPI PUSH1 0x0 DUP1 REVERT JUMPDEST POP PUSH2 0x13ED DUP1 PUSH2 0x5F PUSH1 0x0 CODECOPY PUSH1 0x0 RETURN INVALID PUSH1 0x80 PUSH1 0x40 MSTORE CALLVALUE DUP1 ISZERO PUSH2 0x10 JUMPI PUSH1 0x0 DUP1 REVERT JUMPDEST POP PUSH1 0x4 CALLDATASIZE LT PUSH2 0x62 JUMPI PUSH1 0x0 CALLDATALOAD PUSH1 0xE0 SHR DUP1 PUSH4 0xBDDC354 EQ PUSH2 0x67 JUMPI DUP1 PUSH4 0x6E3C6738 EQ PUSH2 0x83 JUMPI DUP1 PUSH4 0x8F08BB21 EQ PUSH2 0x9F JUMPI DUP1 PUSH4 0xB5C90FD5 EQ PUSH2 0xBB JUMPI DUP1 PUSH4 0xC33926CB EQ PUSH2 0xD7 JUMPI DUP1 PUSH4 0xDD68AFB6 EQ PUSH2 0xF5 JUMPI JUMPDEST PUSH1 0x0 DUP1 REVERT JUMPDEST PUSH2 0x81 PUSH1 0x4 DUP1 CALLDATASIZE SUB DUP2 ADD SWAP1 PUSH2 0x7C SWAP2 SWAP1 PUSH2 0x9DB JUMP JUMPDEST PUSH2 0x127 JUMP JUMPDEST STOP JUMPDEST PUSH2 0x9D PUSH1 0x4 DUP1 CALLDATASIZE SUB DUP2 ADD SWAP1 PUSH2 0x98 SWAP2 SWAP1 PUSH2 0x9DB JUMP JUMPDEST PUSH2 0x219 JUMP JUMPDEST STOP JUMPDEST PUSH2 0xB9 PUSH1 0x4 DUP1 CALLDATASIZE SUB DUP2 ADD SWAP1 PUSH2 0xB4 SWAP2 SWAP1 PUSH2 0xB4E JUMP JUMPDEST PUSH2 0x3B9 JUMP JUMPDEST STOP JUMPDEST PUSH2 0xD5 PUSH1 0x4 DUP1 CALLDATASIZE SUB DUP2 ADD SWAP1 PUSH2 0xD0 SWAP2 SWAP1 PUSH2 0xBD9 JUMP JUMPDEST PUSH2 0x4A3 JUMP JUMPDEST STOP JUMPDEST PUSH2 0xDF PUSH2 0x5A8 JUMP JUMPDEST PUSH1 0x40 MLOAD PUSH2 0xEC SWAP2 SWAP1 PUSH2 0xE26 JUMP JUMPDEST PUSH1 0x40 MLOAD DUP1 SWAP2 SUB SWAP1 RETURN JUMPDEST PUSH2 0x10F PUSH1 0x4 DUP1 CALLDATASIZE SUB DUP2 ADD SWAP1 PUSH2 0x10A SWAP2 SWAP1 PUSH2 0x9DB JUMP JUMPDEST PUSH2 0x78D JUMP JUMPDEST PUSH1 0x40 MLOAD PUSH2 0x11E SWAP4 SWAP3 SWAP2 SWAP1 PUSH2 0xEA1 JUMP JUMPDEST PUSH1 0x40 MLOAD DUP1 SWAP2 SUB SWAP1 RETURN JUMPDEST PUSH1 0x0 PUSH1 0x1 PUSH1 0x0 CALLER PUSH20 0xFFFFFFFFFFFFFFFFFFFFFFFFFFFFFFFFFFFFFFFF AND PUSH20 0xFFFFFFFFFFFFFFFFFFFFFFFFFFFFFFFFFFFFFFFF AND DUP2 MSTORE PUSH1 0x20 ADD SWAP1 DUP2 MSTORE PUSH1 0x20 ADD PUSH1 0x0 KECCAK256 SWAP1 POP DUP1 DUP1 SLOAD SWAP1 POP DUP3 LT PUSH2 0x1A7 JUMPI PUSH1 0x40 MLOAD PUSH32 0x25141A9400000000000000000000000000000000000000000000000000000000 DUP2 MSTORE PUSH1 0x4 ADD PUSH1 0x40 MLOAD DUP1 SWAP2 SUB SWAP1 REVERT JUMPDEST DUP1 DUP3 DUP2 SLOAD DUP2 LT PUSH2 0x1BA JUMPI PUSH2 0x1B9 PUSH2 0xEE6 JUMP JUMPDEST JUMPDEST SWAP1 PUSH1 0x0 MSTORE PUSH1 0x20 PUSH1 0x0 KECCAK256 SWAP1 PUSH1 0x4 MUL ADD PUSH1 0x3 ADD PUSH1 0x0 SWAP1 SLOAD SWAP1 PUSH2 0x100 EXP SWAP1 DIV PUSH1 0xFF AND ISZERO DUP2 DUP4 DUP2 SLOAD DUP2 LT PUSH2 0x1ED JUMPI PUSH2 0x1EC PUSH2 0xEE6 JUMP JUMPDEST JUMPDEST SWAP1 PUSH1 0x0 MSTORE PUSH1 0x20 PUSH1 0x0 KECCAK256 SWAP1 PUSH1 0x4 MUL ADD PUSH1 0x3 ADD PUSH1 0x0 PUSH2 0x100 EXP DUP2 SLOAD DUP2 PUSH1 0xFF MUL NOT AND SWAP1 DUP4 ISZERO ISZERO MUL OR SWAP1 SSTORE POP POP POP JUMP JUMPDEST PUSH1 0x0 PUSH1 0x1 PUSH1 0x0 CALLER PUSH20 0xFFFFFFFFFFFFFFFFFFFFFFFFFFFFFFFFFFFFFFFF AND PUSH20 0xFFFFFFFFFFFFFFFFFFFFFFFFFFFFFFFFFFFFFFFF AND DUP2 MSTORE PUSH1 0x20 ADD SWAP1 DUP2 MSTORE PUSH1 0x20 ADD PUSH1 0x0 KECCAK256 SWAP1 POP DUP1 DUP1 SLOAD SWAP1 POP DUP3 LT PUSH2 0x299 JUMPI PUSH1 0x40 MLOAD PUSH32 0x25141A9400000000000000000000000000000000000000000000000000000000 DUP2 MSTORE PUSH1 0x4 ADD PUSH1 0x40 MLOAD DUP1 SWAP2 SUB SWAP1 REVERT JUMPDEST DUP1 PUSH1 0x1 DUP3 DUP1 SLOAD SWAP1 POP PUSH2 0x2AB SWAP2 SWAP1 PUSH2 0xF44 JUMP JUMPDEST DUP2 SLOAD DUP2 LT PUSH2 0x2BC JUMPI PUSH2 0x2BB PUSH2 0xEE6 JUMP JUMPDEST JUMPDEST SWAP1 PUSH1 0x0 MSTORE PUSH1 0x20 PUSH1 0x0 KECCAK256 SWAP1 PUSH1 0x4 MUL ADD DUP2 DUP4 DUP2 SLOAD DUP2 LT PUSH2 0x2DD JUMPI PUSH2 0x2DC PUSH2 0xEE6 JUMP JUMPDEST JUMPDEST SWAP1 PUSH1 0x0 MSTORE PUSH1 0x20 PUSH1 0x0 KECCAK256 SWAP1 PUSH1 0x4 MUL ADD PUSH1 0x0 DUP3 ADD SLOAD DUP2 PUSH1 0x0 ADD SSTORE PUSH1 0x1 DUP3 ADD DUP2 PUSH1 0x1 ADD SWAP1 DUP2 PUSH2 0x309 SWAP2 SWAP1 PUSH2 0x119A JUMP JUMPDEST POP PUSH1 0x2 DUP3 ADD DUP2 PUSH1 0x2 ADD SWAP1 DUP2 PUSH2 0x31E SWAP2 SWAP1 PUSH2 0x119A JUMP JUMPDEST POP PUSH1 0x3 DUP3 ADD PUSH1 0x0 SWAP1 SLOAD SWAP1 PUSH2 0x100 EXP SWAP1 DIV PUSH1 0xFF AND DUP2 PUSH1 0x3 ADD PUSH1 0x0 PUSH2 0x100 EXP DUP2 SLOAD DUP2 PUSH1 0xFF MUL NOT AND SWAP1 DUP4 ISZERO ISZERO MUL OR SWAP1 SSTORE POP SWAP1 POP POP DUP1 DUP1 SLOAD DUP1 PUSH2 0x360 JUMPI PUSH2 0x35F PUSH2 0x1282 JUMP JUMPDEST JUMPDEST PUSH1 0x1 SWAP1 SUB DUP2 DUP2 SWAP1 PUSH1 0x0 MSTORE PUSH1 0x20 PUSH1 0x0 KECCAK256 SWAP1 PUSH1 0x4 MUL ADD PUSH1 0x0 DUP1 DUP3 ADD PUSH1 0x0 SWAP1 SSTORE PUSH1 0x1 DUP3 ADD PUSH1 0x0 PUSH2 0x38D SWAP2 SWAP1 PUSH2 0x934 JUMP JUMPDEST PUSH1 0x2 DUP3 ADD PUSH1 0x0 PUSH2 0x39D SWAP2 SWAP1 PUSH2 0x934 JUMP JUMPDEST PUSH1 0x3 DUP3 ADD PUSH1 0x0 PUSH2 0x100 EXP DUP2 SLOAD SWAP1 PUSH1 0xFF MUL NOT AND SWAP1 SSTORE POP POP SWAP1 SSTORE POP POP JUMP JUMPDEST PUSH1 0x0 PUSH1 0x1 PUSH1 0x0 CALLER PUSH20 0xFFFFFFFFFFFFFFFFFFFFFFFFFFFFFFFFFFFFFFFF AND PUSH20 0xFFFFFFFFFFFFFFFFFFFFFFFFFFFFFFFFFFFFFFFF AND DUP2 MSTORE PUSH1 0x20 ADD SWAP1 DUP2 MSTORE PUSH1 0x20 ADD PUSH1 0x0 KECCAK256 SWAP1 POP DUP1 DUP1 SLOAD SWAP1 POP DUP5 LT PUSH2 0x439 JUMPI PUSH1 0x40 MLOAD PUSH32 0x25141A9400000000000000000000000000000000000000000000000000000000 DUP2 MSTORE PUSH1 0x4 ADD PUSH1 0x40 MLOAD DUP1 SWAP2 SUB SWAP1 REVERT JUMPDEST DUP3 DUP2 DUP6 DUP2 SLOAD DUP2 LT PUSH2 0x44D JUMPI PUSH2 0x44C PUSH2 0xEE6 JUMP JUMPDEST JUMPDEST SWAP1 PUSH1 0x0 MSTORE PUSH1 0x20 PUSH1 0x0 KECCAK256 SWAP1 PUSH1 0x4 MUL ADD PUSH1 0x1 ADD SWAP1 DUP2 PUSH2 0x46A SWAP2 SWAP1 PUSH2 0x12B1 JUMP JUMPDEST POP DUP2 DUP2 DUP6 DUP2 SLOAD DUP2 LT PUSH2 0x47F JUMPI PUSH2 0x47E PUSH2 0xEE6 JUMP JUMPDEST JUMPDEST SWAP1 PUSH1 0x0 MSTORE PUSH1 0x20 PUSH1 0x0 KECCAK256 SWAP1 PUSH1 0x4 MUL ADD PUSH1 0x2 ADD SWAP1 DUP2 PUSH2 0x49C SWAP2 SWAP1 PUSH2 0x12B1 JUMP JUMPDEST POP POP POP POP POP JUMP JUMPDEST PUSH1 0x1 PUSH1 0x2 SLOAD PUSH2 0x4B2 SWAP2 SWAP1 PUSH2 0x1383 JUMP JUMPDEST PUSH1 0x2 DUP2 SWAP1 SSTORE POP PUSH1 0x0 PUSH1 0x40 MLOAD DUP1 PUSH1 0x80 ADD PUSH1 0x40 MSTORE DUP1 PUSH1 0x2 SLOAD DUP2 MSTORE PUSH1 0x20 ADD DUP5 DUP2 MSTORE PUSH1 0x20 ADD DUP4 DUP2 MSTORE PUSH1 0x20 ADD PUSH1 0x0 ISZERO ISZERO DUP2 MSTORE POP SWAP1 POP PUSH1 0x1 PUSH1 0x0 CALLER PUSH20 0xFFFFFFFFFFFFFFFFFFFFFFFFFFFFFFFFFFFFFFFF AND PUSH20 0xFFFFFFFFFFFFFFFFFFFFFFFFFFFFFFFFFFFFFFFF AND DUP2 MSTORE PUSH1 0x20 ADD SWAP1 DUP2 MSTORE PUSH1 0x20 ADD PUSH1 0x0 KECCAK256 DUP2 SWAP1 DUP1 PUSH1 0x1 DUP2 SLOAD ADD DUP1 DUP3 SSTORE DUP1 SWAP2 POP POP PUSH1 0x1 SWAP1 SUB SWAP1 PUSH1 0x0 MSTORE PUSH1 0x20 PUSH1 0x0 KECCAK256 SWAP1 PUSH1 0x4 MUL ADD PUSH1 0x0 SWAP1 SWAP2 SWAP1 SWAP2 SWAP1 SWAP2 POP PUSH1 0x0 DUP3 ADD MLOAD DUP2 PUSH1 0x0 ADD SSTORE PUSH1 0x20 DUP3 ADD MLOAD DUP2 PUSH1 0x1 ADD SWAP1 DUP2 PUSH2 0x56A SWAP2 SWAP1 PUSH2 0x12B1 JUMP JUMPDEST POP PUSH1 0x40 DUP3 ADD MLOAD DUP2 PUSH1 0x2 ADD SWAP1 DUP2 PUSH2 0x580 SWAP2 SWAP1 PUSH2 0x12B1 JUMP JUMPDEST POP PUSH1 0x60 DUP3 ADD MLOAD DUP2 PUSH1 0x3 ADD PUSH1 0x0 PUSH2 0x100 EXP DUP2 SLOAD DUP2 PUSH1 0xFF MUL NOT AND SWAP1 DUP4 ISZERO ISZERO MUL OR SWAP1 SSTORE POP POP POP POP POP POP JUMP JUMPDEST PUSH1 0x60 PUSH1 0x1 PUSH1 0x0 CALLER PUSH20 0xFFFFFFFFFFFFFFFFFFFFFFFFFFFFFFFFFFFFFFFF AND PUSH20 0xFFFFFFFFFFFFFFFFFFFFFFFFFFFFFFFFFFFFFFFF AND DUP2 MSTORE PUSH1 0x20 ADD SWAP1 DUP2 MSTORE PUSH1 0x20 ADD PUSH1 0x0 KECCAK256 DUP1 SLOAD DUP1 PUSH1 0x20 MUL PUSH1 0x20 ADD PUSH1 0x40 MLOAD SWAP1 DUP2 ADD PUSH1 0x40 MSTORE DUP1 SWAP3 SWAP2 SWAP1 DUP2 DUP2 MSTORE PUSH1 0x20 ADD PUSH1 0x0 SWAP1 JUMPDEST DUP3 DUP3 LT ISZERO PUSH2 0x784 JUMPI DUP4 DUP3 SWAP1 PUSH1 0x0 MSTORE PUSH1 0x20 PUSH1 0x0 KECCAK256 SWAP1 PUSH1 0x4 MUL ADD PUSH1 0x40 MLOAD DUP1 PUSH1 0x80 ADD PUSH1 0x40 MSTORE SWAP1 DUP2 PUSH1 0x0 DUP3 ADD SLOAD DUP2 MSTORE PUSH1 0x20 ADD PUSH1 0x1 DUP3 ADD DUP1 SLOAD PUSH2 0x646 SWAP1 PUSH2 0xFA7 JUMP JUMPDEST DUP1 PUSH1 0x1F ADD PUSH1 0x20 DUP1 SWAP2 DIV MUL PUSH1 0x20 ADD PUSH1 0x40 MLOAD SWAP1 DUP2 ADD PUSH1 0x40 MSTORE DUP1 SWAP3 SWAP2 SWAP1 DUP2 DUP2 MSTORE PUSH1 0x20 ADD DUP3 DUP1 SLOAD PUSH2 0x672 SWAP1 PUSH2 0xFA7 JUMP JUMPDEST DUP1 ISZERO PUSH2 0x6BF JUMPI DUP1 PUSH1 0x1F LT PUSH2 0x694 JUMPI PUSH2 0x100 DUP1 DUP4 SLOAD DIV MUL DUP4 MSTORE SWAP2 PUSH1 0x20 ADD SWAP2 PUSH2 0x6BF JUMP JUMPDEST DUP3 ADD SWAP2 SWAP1 PUSH1 0x0 MSTORE PUSH1 0x20 PUSH1 0x0 KECCAK256 SWAP1 JUMPDEST DUP2 SLOAD DUP2 MSTORE SWAP1 PUSH1 0x1 ADD SWAP1 PUSH1 0x20 ADD DUP1 DUP4 GT PUSH2 0x6A2 JUMPI DUP3 SWAP1 SUB PUSH1 0x1F AND DUP3 ADD SWAP2 JUMPDEST POP POP POP POP POP DUP2 MSTORE PUSH1 0x20 ADD PUSH1 0x2 DUP3 ADD DUP1 SLOAD PUSH2 0x6D8 SWAP1 PUSH2 0xFA7 JUMP JUMPDEST DUP1 PUSH1 0x1F ADD PUSH1 0x20 DUP1 SWAP2 DIV MUL PUSH1 0x20 ADD PUSH1 0x40 MLOAD SWAP1 DUP2 ADD PUSH1 0x40 MSTORE DUP1 SWAP3 SWAP2 SWAP1 DUP2 DUP2 MSTORE PUSH1 0x20 ADD DUP3 DUP1 SLOAD PUSH2 0x704 SWAP1 PUSH2 0xFA7 JUMP JUMPDEST DUP1 ISZERO PUSH2 0x751 JUMPI DUP1 PUSH1 0x1F LT PUSH2 0x726 JUMPI PUSH2 0x100 DUP1 DUP4 SLOAD DIV MUL DUP4 MSTORE SWAP2 PUSH1 0x20 ADD SWAP2 PUSH2 0x751 JUMP JUMPDEST DUP3 ADD SWAP2 SWAP1 PUSH1 0x0 MSTORE PUSH1 0x20 PUSH1 0x0 KECCAK256 SWAP1 JUMPDEST DUP2 SLOAD DUP2 MSTORE SWAP1 PUSH1 0x1 ADD SWAP1 PUSH1 0x20 ADD DUP1 DUP4 GT PUSH2 0x734 JUMPI DUP3 SWAP1 SUB PUSH1 0x1F AND DUP3 ADD SWAP2 JUMPDEST POP POP POP POP POP DUP2 MSTORE PUSH1 0x20 ADD PUSH1 0x3 DUP3 ADD PUSH1 0x0 SWAP1 SLOAD SWAP1 PUSH2 0x100 EXP SWAP1 DIV PUSH1 0xFF AND ISZERO ISZERO ISZERO ISZERO DUP2 MSTORE POP POP DUP2 MSTORE PUSH1 0x20 ADD SWAP1 PUSH1 0x1 ADD SWAP1 PUSH2 0x609 JUMP JUMPDEST POP POP POP POP SWAP1 POP SWAP1 JUMP JUMPDEST PUSH1 0x60 DUP1 PUSH1 0x0 DUP1 PUSH1 0x1 PUSH1 0x0 CALLER PUSH20 0xFFFFFFFFFFFFFFFFFFFFFFFFFFFFFFFFFFFFFFFF AND PUSH20 0xFFFFFFFFFFFFFFFFFFFFFFFFFFFFFFFFFFFFFFFF AND DUP2 MSTORE PUSH1 0x20 ADD SWAP1 DUP2 MSTORE PUSH1 0x20 ADD PUSH1 0x0 KECCAK256 DUP6 DUP2 SLOAD DUP2 LT PUSH2 0x7E4 JUMPI PUSH2 0x7E3 PUSH2 0xEE6 JUMP JUMPDEST JUMPDEST SWAP1 PUSH1 0x0 MSTORE PUSH1 0x20 PUSH1 0x0 KECCAK256 SWAP1 PUSH1 0x4 MUL ADD SWAP1 POP DUP1 PUSH1 0x1 ADD DUP2 PUSH1 0x2 ADD DUP3 PUSH1 0x3 ADD PUSH1 0x0 SWAP1 SLOAD SWAP1 PUSH2 0x100 EXP SWAP1 DIV PUSH1 0xFF AND DUP3 DUP1 SLOAD PUSH2 0x81A SWAP1 PUSH2 0xFA7 JUMP JUMPDEST DUP1 PUSH1 0x1F ADD PUSH1 0x20 DUP1 SWAP2 DIV MUL PUSH1 0x20 ADD PUSH1 0x40 MLOAD SWAP1 DUP2 ADD PUSH1 0x40 MSTORE DUP1 SWAP3 SWAP2 SWAP1 DUP2 DUP2 MSTORE PUSH1 0x20 ADD DUP3 DUP1 SLOAD PUSH2 0x846 SWAP1 PUSH2 0xFA7 JUMP JUMPDEST DUP1 ISZERO PUSH2 0x893 JUMPI DUP1 PUSH1 0x1F LT PUSH2 0x868 JUMPI PUSH2 0x100 DUP1 DUP4 SLOAD DIV MUL DUP4 MSTORE SWAP2 PUSH1 0x20 ADD SWAP2 PUSH2 0x893 JUMP JUMPDEST DUP3 ADD SWAP2 SWAP1 PUSH1 0x0 MSTORE PUSH1 0x20 PUSH1 0x0 KECCAK256 SWAP1 JUMPDEST DUP2 SLOAD DUP2 MSTORE SWAP1 PUSH1 0x1 ADD SWAP1 PUSH1 0x20 ADD DUP1 DUP4 GT PUSH2 0x876 JUMPI DUP3 SWAP1 SUB PUSH1 0x1F AND DUP3 ADD SWAP2 JUMPDEST POP POP POP POP POP SWAP3 POP DUP2 DUP1 SLOAD PUSH2 0x8A6 SWAP1 PUSH2 0xFA7 JUMP JUMPDEST DUP1 PUSH1 0x1F ADD PUSH1 0x20 DUP1 SWAP2 DIV MUL PUSH1 0x20 ADD PUSH1 0x40 MLOAD SWAP1 DUP2 ADD PUSH1 0x40 MSTORE DUP1 SWAP3 SWAP2 SWAP1 DUP2 DUP2 MSTORE PUSH1 0x20 ADD DUP3 DUP1 SLOAD PUSH2 0x8D2 SWAP1 PUSH2 0xFA7 JUMP JUMPDEST DUP1 ISZERO PUSH2 0x91F JUMPI DUP1 PUSH1 0x1F LT PUSH2 0x8F4 JUMPI PUSH2 0x100 DUP1 DUP4 SLOAD DIV MUL DUP4 MSTORE SWAP2 PUSH1 0x20 ADD SWAP2 PUSH2 0x91F JUMP JUMPDEST DUP3 ADD SWAP2 SWAP1 PUSH1 0x0 MSTORE PUSH1 0x20 PUSH1 0x0 KECCAK256 SWAP1 JUMPDEST DUP2 SLOAD DUP2 MSTORE SWAP1 PUSH1 0x1 ADD SWAP1 PUSH1 0x20 ADD DUP1 DUP4 GT PUSH2 0x902 JUMPI DUP3 SWAP1 SUB PUSH1 0x1F AND DUP3 ADD SWAP2 JUMPDEST POP POP POP POP POP SWAP2 POP SWAP4 POP SWAP4 POP SWAP4 POP POP SWAP2 SWAP4 SWAP1 SWAP3 POP JUMP JUMPDEST POP DUP1 SLOAD PUSH2 0x940 SWAP1 PUSH2 0xFA7 JUMP JUMPDEST PUSH1 0x0 DUP3 SSTORE DUP1 PUSH1 0x1F LT PUSH2 0x952 JUMPI POP PUSH2 0x971 JUMP JUMPDEST PUSH1 0x1F ADD PUSH1 0x20 SWAP1 DIV SWAP1 PUSH1 0x0 MSTORE PUSH1 0x20 PUSH1 0x0 KECCAK256 SWAP1 DUP2 ADD SWAP1 PUSH2 0x970 SWAP2 SWAP1 PUSH2 0x974 JUMP JUMPDEST JUMPDEST POP JUMP JUMPDEST JUMPDEST DUP1 DUP3 GT ISZERO PUSH2 0x98D JUMPI PUSH1 0x0 DUP2 PUSH1 0x0 SWAP1 SSTORE POP PUSH1 0x1 ADD PUSH2 0x975 JUMP JUMPDEST POP SWAP1 JUMP JUMPDEST PUSH1 0x0 PUSH1 0x40 MLOAD SWAP1 POP SWAP1 JUMP JUMPDEST PUSH1 0x0 DUP1 REVERT JUMPDEST PUSH1 0x0 DUP1 REVERT JUMPDEST PUSH1 0x0 DUP2 SWAP1 POP SWAP2 SWAP1 POP JUMP JUMPDEST PUSH2 0x9B8 DUP2 PUSH2 0x9A5 JUMP JUMPDEST DUP2 EQ PUSH2 0x9C3 JUMPI PUSH1 0x0 DUP1 REVERT JUMPDEST POP JUMP JUMPDEST PUSH1 0x0 DUP2 CALLDATALOAD SWAP1 POP PUSH2 0x9D5 DUP2 PUSH2 0x9AF JUMP JUMPDEST SWAP3 SWAP2 POP POP JUMP JUMPDEST PUSH1 0x0 PUSH1 0x20 DUP3 DUP5 SUB SLT ISZERO PUSH2 0x9F1 JUMPI PUSH2 0x9F0 PUSH2 0x99B JUMP JUMPDEST JUMPDEST PUSH1 0x0 PUSH2 0x9FF DUP5 DUP3 DUP6 ADD PUSH2 0x9C6 JUMP JUMPDEST SWAP2 POP POP SWAP3 SWAP2 POP POP JUMP JUMPDEST PUSH1 0x0 DUP1 REVERT JUMPDEST PUSH1 0x0 DUP1 REVERT JUMPDEST PUSH1 0x0 PUSH1 0x1F NOT PUSH1 0x1F DUP4 ADD AND SWAP1 POP SWAP2 SWAP1 POP JUMP JUMPDEST PUSH32 0x4E487B7100000000000000000000000000000000000000000000000000000000 PUSH1 0x0 MSTORE PUSH1 0x41 PUSH1 0x4 MSTORE PUSH1 0x24 PUSH1 0x0 REVERT JUMPDEST PUSH2 0xA5B DUP3 PUSH2 0xA12 JUMP JUMPDEST DUP2 ADD DUP2 DUP2 LT PUSH8 0xFFFFFFFFFFFFFFFF DUP3 GT OR ISZERO PUSH2 0xA7A JUMPI PUSH2 0xA79 PUSH2 0xA23 JUMP JUMPDEST JUMPDEST DUP1 PUSH1 0x40 MSTORE POP POP POP JUMP JUMPDEST PUSH1 0x0 PUSH2 0xA8D PUSH2 0x991 JUMP JUMPDEST SWAP1 POP PUSH2 0xA99 DUP3 DUP3 PUSH2 0xA52 JUMP JUMPDEST SWAP2 SWAP1 POP JUMP JUMPDEST PUSH1 0x0 PUSH8 0xFFFFFFFFFFFFFFFF DUP3 GT ISZERO PUSH2 0xAB9 JUMPI PUSH2 0xAB8 PUSH2 0xA23 JUMP JUMPDEST JUMPDEST PUSH2 0xAC2 DUP3 PUSH2 0xA12 JUMP JUMPDEST SWAP1 POP PUSH1 0x20 DUP2 ADD SWAP1 POP SWAP2 SWAP1 POP JUMP JUMPDEST DUP3 DUP2 DUP4 CALLDATACOPY PUSH1 0x0 DUP4 DUP4 ADD MSTORE POP POP POP JUMP JUMPDEST PUSH1 0x0 PUSH2 0xAF1 PUSH2 0xAEC DUP5 PUSH2 0xA9E JUMP JUMPDEST PUSH2 0xA83 JUMP JUMPDEST SWAP1 POP DUP3 DUP2 MSTORE PUSH1 0x20 DUP2 ADD DUP5 DUP5 DUP5 ADD GT ISZERO PUSH2 0xB0D JUMPI PUSH2 0xB0C PUSH2 0xA0D JUMP JUMPDEST JUMPDEST PUSH2 0xB18 DUP5 DUP3 DUP6 PUSH2 0xACF JUMP JUMPDEST POP SWAP4 SWAP3 POP POP POP JUMP JUMPDEST PUSH1 0x0 DUP3 PUSH1 0x1F DUP4 ADD SLT PUSH2 0xB35 JUMPI PUSH2 0xB34 PUSH2 0xA08 JUMP JUMPDEST JUMPDEST DUP2 CALLDATALOAD PUSH2 0xB45 DUP5 DUP3 PUSH1 0x20 DUP7 ADD PUSH2 0xADE JUMP JUMPDEST SWAP2 POP POP SWAP3 SWAP2 POP POP JUMP JUMPDEST PUSH1 0x0 DUP1 PUSH1 0x0 PUSH1 0x60 DUP5 DUP7 SUB SLT ISZERO PUSH2 0xB67 JUMPI PUSH2 0xB66 PUSH2 0x99B JUMP JUMPDEST JUMPDEST PUSH1 0x0 PUSH2 0xB75 DUP7 DUP3 DUP8 ADD PUSH2 0x9C6 JUMP JUMPDEST SWAP4 POP POP PUSH1 0x20 DUP5 ADD CALLDATALOAD PUSH8 0xFFFFFFFFFFFFFFFF DUP2 GT ISZERO PUSH2 0xB96 JUMPI PUSH2 0xB95 PUSH2 0x9A0 JUMP JUMPDEST JUMPDEST PUSH2 0xBA2 DUP7 DUP3 DUP8 ADD PUSH2 0xB20 JUMP JUMPDEST SWAP3 POP POP PUSH1 0x40 DUP5 ADD CALLDATALOAD PUSH8 0xFFFFFFFFFFFFFFFF DUP2 GT ISZERO PUSH2 0xBC3 JUMPI PUSH2 0xBC2 PUSH2 0x9A0 JUMP JUMPDEST JUMPDEST PUSH2 0xBCF DUP7 DUP3 DUP8 ADD PUSH2 0xB20 JUMP JUMPDEST SWAP2 POP POP SWAP3 POP SWAP3 POP SWAP3 JUMP JUMPDEST PUSH1 0x0 DUP1 PUSH1 0x40 DUP4 DUP6 SUB SLT ISZERO PUSH2 0xBF0 JUMPI PUSH2 0xBEF PUSH2 0x99B JUMP JUMPDEST JUMPDEST PUSH1 0x0 DUP4 ADD CALLDATALOAD PUSH8 0xFFFFFFFFFFFFFFFF DUP2 GT ISZERO PUSH2 0xC0E JUMPI PUSH2 0xC0D PUSH2 0x9A0 JUMP JUMPDEST JUMPDEST PUSH2 0xC1A DUP6 DUP3 DUP7 ADD PUSH2 0xB20 JUMP JUMPDEST SWAP3 POP POP PUSH1 0x20 DUP4 ADD CALLDATALOAD PUSH8 0xFFFFFFFFFFFFFFFF DUP2 GT ISZERO PUSH2 0xC3B JUMPI PUSH2 0xC3A PUSH2 0x9A0 JUMP JUMPDEST JUMPDEST PUSH2 0xC47 DUP6 DUP3 DUP7 ADD PUSH2 0xB20 JUMP JUMPDEST SWAP2 POP POP SWAP3 POP SWAP3 SWAP1 POP JUMP JUMPDEST PUSH1 0x0 DUP2 MLOAD SWAP1 POP SWAP2 SWAP1 POP JUMP JUMPDEST PUSH1 0x0 DUP3 DUP3 MSTORE PUSH1 0x20 DUP3 ADD SWAP1 POP SWAP3 SWAP2 POP POP JUMP JUMPDEST PUSH1 0x0 DUP2 SWAP1 POP PUSH1 0x20 DUP3 ADD SWAP1 POP SWAP2 SWAP1 POP JUMP JUMPDEST PUSH2 0xC86 DUP2 PUSH2 0x9A5 JUMP JUMPDEST DUP3 MSTORE POP POP JUMP JUMPDEST PUSH1 0x0 DUP2 MLOAD SWAP1 POP SWAP2 SWAP1 POP JUMP JUMPDEST PUSH1 0x0 DUP3 DUP3 MSTORE PUSH1 0x20 DUP3 ADD SWAP1 POP SWAP3 SWAP2 POP POP JUMP JUMPDEST PUSH1 0x0 JUMPDEST DUP4 DUP2 LT ISZERO PUSH2 0xCC6 JUMPI DUP1 DUP3 ADD MLOAD DUP2 DUP5 ADD MSTORE PUSH1 0x20 DUP2 ADD SWAP1 POP PUSH2 0xCAB JUMP JUMPDEST PUSH1 0x0 DUP5 DUP5 ADD MSTORE POP POP POP POP JUMP JUMPDEST PUSH1 0x0 PUSH2 0xCDD DUP3 PUSH2 0xC8C JUMP JUMPDEST PUSH2 0xCE7 DUP2 DUP6 PUSH2 0xC97 JUMP JUMPDEST SWAP4 POP PUSH2 0xCF7 DUP2 DUP6 PUSH1 0x20 DUP7 ADD PUSH2 0xCA8 JUMP JUMPDEST PUSH2 0xD00 DUP2 PUSH2 0xA12 JUMP JUMPDEST DUP5 ADD SWAP2 POP POP SWAP3 SWAP2 POP POP JUMP JUMPDEST PUSH1 0x0 DUP2 ISZERO ISZERO SWAP1 POP SWAP2 SWAP1 POP JUMP JUMPDEST PUSH2 0xD20 DUP2 PUSH2 0xD0B JUMP JUMPDEST DUP3 MSTORE POP POP JUMP JUMPDEST PUSH1 0x0 PUSH1 0x80 DUP4 ADD PUSH1 0x0 DUP4 ADD MLOAD PUSH2 0xD3E PUSH1 0x0 DUP7 ADD DUP3 PUSH2 0xC7D JUMP JUMPDEST POP PUSH1 0x20 DUP4 ADD MLOAD DUP5 DUP3 SUB PUSH1 0x20 DUP7 ADD MSTORE PUSH2 0xD56 DUP3 DUP3 PUSH2 0xCD2 JUMP JUMPDEST SWAP2 POP POP PUSH1 0x40 DUP4 ADD MLOAD DUP5 DUP3 SUB PUSH1 0x40 DUP7 ADD MSTORE PUSH2 0xD70 DUP3 DUP3 PUSH2 0xCD2 JUMP JUMPDEST SWAP2 POP POP PUSH1 0x60 DUP4 ADD MLOAD PUSH2 0xD85 PUSH1 0x60 DUP7 ADD DUP3 PUSH2 0xD17 JUMP JUMPDEST POP DUP1 SWAP2 POP POP SWAP3 SWAP2 POP POP JUMP JUMPDEST PUSH1 0x0 PUSH2 0xD9C DUP4 DUP4 PUSH2 0xD26 JUMP JUMPDEST SWAP1 POP SWAP3 SWAP2 POP POP JUMP JUMPDEST PUSH1 0x0 PUSH1 0x20 DUP3 ADD SWAP1 POP SWAP2 SWAP1 POP JUMP JUMPDEST PUSH1 0x0 PUSH2 0xDBC DUP3 PUSH2 0xC51 JUMP JUMPDEST PUSH2 0xDC6 DUP2 DUP6 PUSH2 0xC5C JUMP JUMPDEST SWAP4 POP DUP4 PUSH1 0x20 DUP3 MUL DUP6 ADD PUSH2 0xDD8 DUP6 PUSH2 0xC6D JUMP JUMPDEST DUP1 PUSH1 0x0 JUMPDEST DUP6 DUP2 LT ISZERO PUSH2 0xE14 JUMPI DUP5 DUP5 SUB DUP10 MSTORE DUP2 MLOAD PUSH2 0xDF5 DUP6 DUP3 PUSH2 0xD90 JUMP JUMPDEST SWAP5 POP PUSH2 0xE00 DUP4 PUSH2 0xDA4 JUMP JUMPDEST SWAP3 POP PUSH1 0x20 DUP11 ADD SWAP10 POP POP PUSH1 0x1 DUP2 ADD SWAP1 POP PUSH2 0xDDC JUMP JUMPDEST POP DUP3 SWAP8 POP DUP8 SWAP6 POP POP POP POP POP POP SWAP3 SWAP2 POP POP JUMP JUMPDEST PUSH1 0x0 PUSH1 0x20 DUP3 ADD SWAP1 POP DUP2 DUP2 SUB PUSH1 0x0 DUP4 ADD MSTORE PUSH2 0xE40 DUP2 DUP5 PUSH2 0xDB1 JUMP JUMPDEST SWAP1 POP SWAP3 SWAP2 POP POP JUMP JUMPDEST PUSH1 0x0 DUP3 DUP3 MSTORE PUSH1 0x20 DUP3 ADD SWAP1 POP SWAP3 SWAP2 POP POP JUMP JUMPDEST PUSH1 0x0 PUSH2 0xE64 DUP3 PUSH2 0xC8C JUMP JUMPDEST PUSH2 0xE6E DUP2 DUP6 PUSH2 0xE48 JUMP JUMPDEST SWAP4 POP PUSH2 0xE7E DUP2 DUP6 PUSH1 0x20 DUP7 ADD PUSH2 0xCA8 JUMP JUMPDEST PUSH2 0xE87 DUP2 PUSH2 0xA12 JUMP JUMPDEST DUP5 ADD SWAP2 POP POP SWAP3 SWAP2 POP POP JUMP JUMPDEST PUSH2 0xE9B DUP2 PUSH2 0xD0B JUMP JUMPDEST DUP3 MSTORE POP POP JUMP JUMPDEST PUSH1 0x0 PUSH1 0x60 DUP3 ADD SWAP1 POP DUP2 DUP2 SUB PUSH1 0x0 DUP4 ADD MSTORE PUSH2 0xEBB DUP2 DUP7 PUSH2 0xE59 JUMP JUMPDEST SWAP1 POP DUP2 DUP2 SUB PUSH1 0x20 DUP4 ADD MSTORE PUSH2 0xECF DUP2 DUP6 PUSH2 0xE59 JUMP JUMPDEST SWAP1 POP PUSH2 0xEDE PUSH1 0x40 DUP4 ADD DUP5 PUSH2 0xE92 JUMP JUMPDEST SWAP5 SWAP4 POP POP POP POP JUMP JUMPDEST PUSH32 0x4E487B7100000000000000000000000000000000000000000000000000000000 PUSH1 0x0 MSTORE PUSH1 0x32 PUSH1 0x4 MSTORE PUSH1 0x24 PUSH1 0x0 REVERT JUMPDEST PUSH32 0x4E487B7100000000000000000000000000000000000000000000000000000000 PUSH1 0x0 MSTORE PUSH1 0x11 PUSH1 0x4 MSTORE PUSH1 0x24 PUSH1 0x0 REVERT JUMPDEST PUSH1 0x0 PUSH2 0xF4F DUP3 PUSH2 0x9A5 JUMP JUMPDEST SWAP2 POP PUSH2 0xF5A DUP4 PUSH2 0x9A5 JUMP JUMPDEST SWAP3 POP DUP3 DUP3 SUB SWAP1 POP DUP2 DUP2 GT ISZERO PUSH2 0xF72 JUMPI PUSH2 0xF71 PUSH2 0xF15 JUMP JUMPDEST JUMPDEST SWAP3 SWAP2 POP POP JUMP JUMPDEST PUSH32 0x4E487B7100000000000000000000000000000000000000000000000000000000 PUSH1 0x0 MSTORE PUSH1 0x22 PUSH1 0x4 MSTORE PUSH1 0x24 PUSH1 0x0 REVERT JUMPDEST PUSH1 0x0 PUSH1 0x2 DUP3 DIV SWAP1 POP PUSH1 0x1 DUP3 AND DUP1 PUSH2 0xFBF JUMPI PUSH1 0x7F DUP3 AND SWAP2 POP JUMPDEST PUSH1 0x20 DUP3 LT DUP2 SUB PUSH2 0xFD2 JUMPI PUSH2 0xFD1 PUSH2 0xF78 JUMP JUMPDEST JUMPDEST POP SWAP2 SWAP1 POP JUMP JUMPDEST PUSH1 0x0 DUP2 SLOAD SWAP1 POP PUSH2 0xFE7 DUP2 PUSH2 0xFA7 JUMP JUMPDEST SWAP1 POP SWAP2 SWAP1 POP JUMP JUMPDEST PUSH1 0x0 DUP2 SWAP1 POP DUP2 PUSH1 0x0 MSTORE PUSH1 0x20 PUSH1 0x0 KECCAK256 SWAP1 POP SWAP2 SWAP1 POP JUMP JUMPDEST PUSH1 0x0 PUSH1 0x20 PUSH1 0x1F DUP4 ADD DIV SWAP1 POP SWAP2 SWAP1 POP JUMP JUMPDEST PUSH1 0x0 DUP3 DUP3 SHL SWAP1 POP SWAP3 SWAP2 POP POP JUMP JUMPDEST PUSH1 0x0 PUSH1 0x8 DUP4 MUL PUSH2 0x1050 PUSH32 0xFFFFFFFFFFFFFFFFFFFFFFFFFFFFFFFFFFFFFFFFFFFFFFFFFFFFFFFFFFFFFFFF DUP3 PUSH2 0x1013 JUMP JUMPDEST PUSH2 0x105A DUP7 DUP4 PUSH2 0x1013 JUMP JUMPDEST SWAP6 POP DUP1 NOT DUP5 AND SWAP4 POP DUP1 DUP7 AND DUP5 OR SWAP3 POP POP POP SWAP4 SWAP3 POP POP POP JUMP JUMPDEST PUSH1 0x0 DUP2 SWAP1 POP SWAP2 SWAP1 POP JUMP JUMPDEST PUSH1 0x0 PUSH2 0x1097 PUSH2 0x1092 PUSH2 0x108D DUP5 PUSH2 0x9A5 JUMP JUMPDEST PUSH2 0x1072 JUMP JUMPDEST PUSH2 0x9A5 JUMP JUMPDEST SWAP1 POP SWAP2 SWAP1 POP JUMP JUMPDEST PUSH1 0x0 DUP2 SWAP1 POP SWAP2 SWAP1 POP JUMP JUMPDEST PUSH2 0x10B1 DUP4 PUSH2 0x107C JUMP JUMPDEST PUSH2 0x10C5 PUSH2 0x10BD DUP3 PUSH2 0x109E JUMP JUMPDEST DUP5 DUP5 SLOAD PUSH2 0x1020 JUMP JUMPDEST DUP3 SSTORE POP POP POP POP JUMP JUMPDEST PUSH1 0x0 SWAP1 JUMP JUMPDEST PUSH2 0x10DA PUSH2 0x10CD JUMP JUMPDEST PUSH2 0x10E5 DUP2 DUP5 DUP5 PUSH2 0x10A8 JUMP JUMPDEST POP POP POP JUMP JUMPDEST JUMPDEST DUP2 DUP2 LT ISZERO PUSH2 0x1109 JUMPI PUSH2 0x10FE PUSH1 0x0 DUP3 PUSH2 0x10D2 JUMP JUMPDEST PUSH1 0x1 DUP2 ADD SWAP1 POP PUSH2 0x10EB JUMP JUMPDEST POP POP JUMP JUMPDEST PUSH1 0x1F DUP3 GT ISZERO PUSH2 0x114E JUMPI PUSH2 0x111F DUP2 PUSH2 0xFEE JUMP JUMPDEST PUSH2 0x1128 DUP5 PUSH2 0x1003 JUMP JUMPDEST DUP2 ADD PUSH1 0x20 DUP6 LT ISZERO PUSH2 0x1137 JUMPI DUP2 SWAP1 POP JUMPDEST PUSH2 0x114B PUSH2 0x1143 DUP6 PUSH2 0x1003 JUMP JUMPDEST DUP4 ADD DUP3 PUSH2 0x10EA JUMP JUMPDEST POP POP JUMPDEST POP POP POP JUMP JUMPDEST PUSH1 0x0 DUP3 DUP3 SHR SWAP1 POP SWAP3 SWAP2 POP POP JUMP JUMPDEST PUSH1 0x0 PUSH2 0x1171 PUSH1 0x0 NOT DUP5 PUSH1 0x8 MUL PUSH2 0x1153 JUMP JUMPDEST NOT DUP1 DUP4 AND SWAP2 POP POP SWAP3 SWAP2 POP POP JUMP JUMPDEST PUSH1 0x0 PUSH2 0x118A DUP4 DUP4 PUSH2 0x1160 JUMP JUMPDEST SWAP2 POP DUP3 PUSH1 0x2 MUL DUP3 OR SWAP1 POP SWAP3 SWAP2 POP POP JUMP JUMPDEST DUP2 DUP2 SUB PUSH2 0x11A8 JUMPI POP POP PUSH2 0x1280 JUMP JUMPDEST PUSH2 0x11B1 DUP3 PUSH2 0xFD8 JUMP JUMPDEST PUSH8 0xFFFFFFFFFFFFFFFF DUP2 GT ISZERO PUSH2 0x11CA JUMPI PUSH2 0x11C9 PUSH2 0xA23 JUMP JUMPDEST JUMPDEST PUSH2 0x11D4 DUP3 SLOAD PUSH2 0xFA7 JUMP JUMPDEST PUSH2 0x11DF DUP3 DUP3 DUP6 PUSH2 0x110D JUMP JUMPDEST PUSH1 0x0 PUSH1 0x1F DUP4 GT PUSH1 0x1 DUP2 EQ PUSH2 0x120E JUMPI PUSH1 0x0 DUP5 ISZERO PUSH2 0x11FC JUMPI DUP3 DUP8 ADD SLOAD SWAP1 POP JUMPDEST PUSH2 0x1206 DUP6 DUP3 PUSH2 0x117E JUMP JUMPDEST DUP7 SSTORE POP PUSH2 0x1279 JUMP JUMPDEST PUSH1 0x1F NOT DUP5 AND PUSH2 0x121C DUP8 PUSH2 0xFEE JUMP JUMPDEST SWAP7 POP PUSH2 0x1227 DUP7 PUSH2 0xFEE JUMP JUMPDEST PUSH1 0x0 JUMPDEST DUP3 DUP2 LT ISZERO PUSH2 0x124F JUMPI DUP5 DUP10 ADD SLOAD DUP3 SSTORE PUSH1 0x1 DUP3 ADD SWAP2 POP PUSH1 0x1 DUP6 ADD SWAP5 POP PUSH1 0x20 DUP2 ADD SWAP1 POP PUSH2 0x122A JUMP JUMPDEST DUP7 DUP4 LT ISZERO PUSH2 0x126C JUMPI DUP5 DUP10 ADD SLOAD PUSH2 0x1268 PUSH1 0x1F DUP10 AND DUP3 PUSH2 0x1160 JUMP JUMPDEST DUP4 SSTORE POP JUMPDEST PUSH1 0x1 PUSH1 0x2 DUP9 MUL ADD DUP9 SSTORE POP POP POP JUMPDEST POP POP POP POP POP POP JUMPDEST JUMP JUMPDEST PUSH32 0x4E487B7100000000000000000000000000000000000000000000000000000000 PUSH1 0x0 MSTORE PUSH1 0x31 PUSH1 0x4 MSTORE PUSH1 0x24 PUSH1 0x0 REVERT JUMPDEST PUSH2 0x12BA DUP3 PUSH2 0xC8C JUMP JUMPDEST PUSH8 0xFFFFFFFFFFFFFFFF DUP2 GT ISZERO PUSH2 0x12D3 JUMPI PUSH2 0x12D2 PUSH2 0xA23 JUMP JUMPDEST JUMPDEST PUSH2 0x12DD DUP3 SLOAD PUSH2 0xFA7 JUMP JUMPDEST PUSH2 0x12E8 DUP3 DUP3 DUP6 PUSH2 0x110D JUMP JUMPDEST PUSH1 0x0 PUSH1 0x20 SWAP1 POP PUSH1 0x1F DUP4 GT PUSH1 0x1 DUP2 EQ PUSH2 0x131B JUMPI PUSH1 0x0 DUP5 ISZERO PUSH2 0x1309 JUMPI DUP3 DUP8 ADD MLOAD SWAP1 POP JUMPDEST PUSH2 0x1313 DUP6 DUP3 PUSH2 0x117E JUMP JUMPDEST DUP7 SSTORE POP PUSH2 0x137B JUMP JUMPDEST PUSH1 0x1F NOT DUP5 AND PUSH2 0x1329 DUP7 PUSH2 0xFEE JUMP JUMPDEST PUSH1 0x0 JUMPDEST DUP3 DUP2 LT ISZERO PUSH2 0x1351 JUMPI DUP5 DUP10 ADD MLOAD DUP3 SSTORE PUSH1 0x1 DUP3 ADD SWAP2 POP PUSH1 0x20 DUP6 ADD SWAP5 POP PUSH1 0x20 DUP2 ADD SWAP1 POP PUSH2 0x132C JUMP JUMPDEST DUP7 DUP4 LT ISZERO PUSH2 0x136E JUMPI DUP5 DUP10 ADD MLOAD PUSH2 0x136A PUSH1 0x1F DUP10 AND DUP3 PUSH2 0x1160 JUMP JUMPDEST DUP4 SSTORE POP JUMPDEST PUSH1 0x1 PUSH1 0x2 DUP9 MUL ADD DUP9 SSTORE POP POP POP JUMPDEST POP POP POP POP POP POP JUMP JUMPDEST PUSH1 0x0 PUSH2 0x138E DUP3 PUSH2 0x9A5 JUMP JUMPDEST SWAP2 POP PUSH2 0x1399 DUP4 PUSH2 0x9A5 JUMP JUMPDEST SWAP3 POP DUP3 DUP3 ADD SWAP1 POP DUP1 DUP3 GT ISZERO PUSH2 0x13B1 JUMPI PUSH2 0x13B0 PUSH2 0xF15 JUMP JUMPDEST JUMPDEST SWAP3 SWAP2 POP POP JUMP INVALID LOG2 PUSH5 0x6970667358 0x22 SLT KECCAK256 KECCAK256 DUP2 SWAP5 0x2D 0xCA SWAP14 SWAPN 0x18 0xC7 0xDD EXTCODESIZE 0xD9 0xA7 SWAP1 0xD3 LOG4 POP LOG2 PUSH18 0xF92F774D91D1D87B2AA805237C64736F6C63 NUMBER STOP ADDMOD 0x1E STOP CALLER "
        },
        "methodIdentifiers": {
          "create_todo(string,string)": "b5c90fd5",
          "deleteTodo(uint256)": "6e3c6738",
          "getTodo(uint256)": "dd68afb6",
          "getTodos()": "c33926cb",
          "toogleTodo(uint256)": "0bddc354",
          "update_todo(uint256,string,string)": "8f08bb21"
        }
      }
    }
  }
}