{
  "contracts/Lottery.sol": {
    "Lottery": {
      "abi": [
        {
          "inputs": [],
          "stateMutability": "nonpayable",
          "type": "constructor"
        },
        {
          "anonymous": false,
          "inputs": [
            {
              "indexed": false,
              "internalType": "address",
              "name": "player",
              "type": "address"
            }
          ],
          "name": "PlayerJoined",
          "type": "event"
        },
        {
          "anonymous": false,
          "inputs": [
            {
              "indexed": false,
              "internalType": "address",
              "name": "winner",
              "type": "address"
            },
            {
              "indexed": false,
              "internalType": "uint256",
              "name": "amount",
              "type": "uint256"
            }
          ],
          "name": "WinnerSelected",
          "type": "event"
        },
        {
          "inputs": [],
          "name": "enter",
          "outputs": [],
          "stateMutability": "payable",
          "type": "function"
        },
        {
          "inputs": [],
          "name": "entryFee",
          "outputs": [
            {
              "internalType": "uint256",
              "name": "",
              "type": "uint256"
            }
          ],
          "stateMutability": "view",
          "type": "function"
        },
        {
          "inputs": [],
          "name": "getBalance",
          "outputs": [
            {
              "internalType": "uint256",
              "name": "",
              "type": "uint256"
            }
          ],
          "stateMutability": "view",
          "type": "function"
        },
        {
          "inputs": [],
          "name": "getPlayerCount",
          "outputs": [
            {
              "internalType": "uint256",
              "name": "",
              "type": "uint256"
            }
          ],
          "stateMutability": "view",
          "type": "function"
        },
        {
          "inputs": [],
          "name": "getPlayers",
          "outputs": [
            {
              "internalType": "address[]",
              "name": "",
              "type": "address[]"
            }
          ],
          "stateMutability": "view",
          "type": "function"
        },
        {
          "inputs": [],
          "name": "maxPlayers",
          "outputs": [
            {
              "internalType": "uint256",
              "name": "",
              "type": "uint256"
            }
          ],
          "stateMutability": "view",
          "type": "function"
        },
        {
          "inputs": [],
          "name": "owner",
          "outputs": [
            {
              "internalType": "address",
              "name": "",
              "type": "address"
            }
          ],
          "stateMutability": "view",
          "type": "function"
        },
        {
          "inputs": [
            {
              "internalType": "uint256",
              "name": "",
              "type": "uint256"
            }
          ],
          "name": "players",
          "outputs": [
            {
              "internalType": "address",
              "name": "",
              "type": "address"
            }
          ],
          "stateMutability": "view",
          "type": "function"
        }
      ],
      "evm": {
        "bytecode": {
          "linkReferences": {},
          "object": "6080604052662386f26fc10000600255600a600355348015601f57600080fd5b50336000806101000a81548173ffffffffffffffffffffffffffffffffffffffff021916908373ffffffffffffffffffffffffffffffffffffffff160217905550610cb48061006f6000396000f3fe60806040526004361061007b5760003560e01c80638da5cb5b1161004e5780638da5cb5b1461012c578063c2e5220614610157578063e97dcb6214610182578063f71d96cb1461018c5761007b565b8063072ea61c1461008057806312065fe0146100ab5780634c2412a2146100d65780638b5b9ccc14610101575b600080fd5b34801561008c57600080fd5b506100956101c9565b6040516100a29190610715565b60405180910390f35b3480156100b757600080fd5b506100c06101cf565b6040516100cd9190610715565b60405180910390f35b3480156100e257600080fd5b506100eb6101d7565b6040516100f89190610715565b60405180910390f35b34801561010d57600080fd5b506101166101dd565b6040516101239190610820565b60405180910390f35b34801561013857600080fd5b5061014161026b565b60405161014e9190610851565b60405180910390f35b34801561016357600080fd5b5061016c61028f565b6040516101799190610715565b60405180910390f35b61018a61029c565b005b34801561019857600080fd5b506101b360048036038101906101ae919061089d565b6104a6565b6040516101c09190610851565b60405180910390f35b60025481565b600047905090565b60035481565b6060600180548060200260200160405190810160405280929190818152602001828054801561026157602002820191906000526020600020905b8160009054906101000a900473ffffffffffffffffffffffffffffffffffffffff1673ffffffffffffffffffffffffffffffffffffffff1681526020019060010190808311610217575b5050505050905090565b60008054906101000a900473ffffffffffffffffffffffffffffffffffffffff1681565b6000600180549050905090565b60025434146102e0576040517f08c379a00000000000000000000000000000000000000000000000000000000081526004016102d790610927565b60405180910390fd5b60035460018054905010610329576040517f08c379a000000000000000000000000000000000000000000000000000000000815260040161032090610993565b60405180910390fd5b60005b6001805490508110156103f2573373ffffffffffffffffffffffffffffffffffffffff1660018281548110610364576103636109b3565b5b9060005260206000200160009054906101000a900473ffffffffffffffffffffffffffffffffffffffff1673ffffffffffffffffffffffffffffffffffffffff16036103e5576040517f08c379a00000000000000000000000000000000000000000000000000000000081526004016103dc90610a2e565b60405180910390fd5b808060010191505061032c565b506001339080600181540180825580915050600190039060005260206000200160009091909190916101000a81548173ffffffffffffffffffffffffffffffffffffffff021916908373ffffffffffffffffffffffffffffffffffffffff1602179055507f31e760aa525306aba638a784082a013b6a1cc0a9a1789f3f22281c0453b10b1f336040516104859190610851565b60405180910390a1600354600180549050036104a4576104a36104e5565b5b565b600181815481106104b657600080fd5b906000526020600020016000915054906101000a900473ffffffffffffffffffffffffffffffffffffffff1681565b60006001805490504244600160405160200161050393929190610b8d565b6040516020818303038152906040528051906020012060001c6105269190610bf5565b905060006001828154811061053e5761053d6109b3565b5b9060005260206000200160009054906101000a900473ffffffffffffffffffffffffffffffffffffffff16905060004790508173ffffffffffffffffffffffffffffffffffffffff166108fc829081150290604051600060405180830381858888f193505050501580156105b6573d6000803e3d6000fd5b507f75060f9e79552df167b73353fee6237a75bb5ba8ea022f77224e32f152138bcb82826040516105e8929190610c26565b60405180910390a1600067ffffffffffffffff81111561060b5761060a610c4f565b5b6040519080825280602002602001820160405280156106395781602001602082028036833780820191505090505b506001908051906020019061064f929190610655565b50505050565b8280548282559060005260206000209081019282156106ce579160200282015b828111156106cd5782518260006101000a81548173ffffffffffffffffffffffffffffffffffffffff021916908373ffffffffffffffffffffffffffffffffffffffff16021790555091602001919060010190610675565b5b5090506106db91906106df565b5090565b5b808211156106f85760008160009055506001016106e0565b5090565b6000819050919050565b61070f816106fc565b82525050565b600060208201905061072a6000830184610706565b92915050565b600081519050919050565b600082825260208201905092915050565b6000819050602082019050919050565b600073ffffffffffffffffffffffffffffffffffffffff82169050919050565b60006107878261075c565b9050919050565b6107978161077c565b82525050565b60006107a9838361078e565b60208301905092915050565b6000602082019050919050565b60006107cd82610730565b6107d7818561073b565b93506107e28361074c565b8060005b838110156108135781516107fa888261079d565b9750610805836107b5565b9250506001810190506107e6565b5085935050505092915050565b6000602082019050818103600083015261083a81846107c2565b905092915050565b61084b8161077c565b82525050565b60006020820190506108666000830184610842565b92915050565b600080fd5b61087a816106fc565b811461088557600080fd5b50565b60008135905061089781610871565b92915050565b6000602082840312156108b3576108b261086c565b5b60006108c184828501610888565b91505092915050565b600082825260208201905092915050565b7f57726f6e6720656e747279206665650000000000000000000000000000000000600082015250565b6000610911600f836108ca565b915061091c826108db565b602082019050919050565b6000602082019050818103600083015261094081610904565b9050919050565b7f4c6f74746572792069732066756c6c0000000000000000000000000000000000600082015250565b600061097d600f836108ca565b915061098882610947565b602082019050919050565b600060208201905081810360008301526109ac81610970565b9050919050565b7f4e487b7100000000000000000000000000000000000000000000000000000000600052603260045260246000fd5b7f416c726561647920656e74657265640000000000000000000000000000000000600082015250565b6000610a18600f836108ca565b9150610a23826109e2565b602082019050919050565b60006020820190508181036000830152610a4781610a0b565b9050919050565b6000819050919050565b610a69610a64826106fc565b610a4e565b82525050565b600081549050919050565b600081905092915050565b60008190508160005260206000209050919050565b610aa38161077c565b82525050565b6000610ab58383610a9a565b60208301905092915050565b60008160001c9050919050565b600073ffffffffffffffffffffffffffffffffffffffff82169050919050565b6000610b01610afc83610ac1565b610ace565b9050919050565b6000610b148254610aee565b9050919050565b6000600182019050919050565b6000610b3382610a6f565b610b3d8185610a7a565b9350610b4883610a85565b8060005b83811015610b8057610b5d82610b08565b610b678882610aa9565b9750610b7283610b1b565b925050600181019050610b4c565b5085935050505092915050565b6000610b998286610a58565b602082019150610ba98285610a58565b602082019150610bb98284610b28565b9150819050949350505050565b7f4e487b7100000000000000000000000000000000000000000000000000000000600052601260045260246000fd5b6000610c00826106fc565b9150610c0b836106fc565b925082610c1b57610c1a610bc6565b5b828206905092915050565b6000604082019050610c3b6000830185610842565b610c486020830184610706565b9392505050565b7f4e487b7100000000000000000000000000000000000000000000000000000000600052604160045260246000fdfea2646970667358221220e2c725310eb9157738a714674f6c77f89bd9c6437aa6abf0f0cb3eacb4f04f0e64736f6c634300081c0033",
          "opcodes": "PUSH1 0x80 PUSH1 0x40 MSTORE PUSH7 0x2386F26FC10000 PUSH1 0x2 SSTORE PUSH1 0xA PUSH1 0x3 SSTORE CALLVALUE DUP1 ISZERO PUSH1 0x1F JUMPI PUSH1 0x0 DUP1 REVERT JUMPDEST POP CALLER PUSH1 0x0 DUP1 PUSH2 0x100 EXP DUP2 SLOAD DUP2 PUSH20 0xFFFFFFFFFFFFFFFFFFFFFFFFFFFFFFFFFFFFFFFF MUL NOT AND SWAP1 DUP4 PUSH20 0xFFFFFFFFFFFFFFFFFFFFFFFFFFFFFFFFFFFFFFFF AND MUL OR SWAP1 SSTORE POP PUSH2 0xCB4 DUP1 PUSH2 0x6F PUSH1 0x0 CODECOPY PUSH1 0x0 RETURN INVALID PUSH1 0x80 PUSH1 0x40 MSTORE PUSH1 0x4 CALLDATASIZE LT PUSH2 0x7B JUMPI PUSH1 0x0 CALLDATALOAD PUSH1 0xE0 SHR DUP1 PUSH4 0x8DA5CB5B GT PUSH2 0x4E JUMPI DUP1 PUSH4 0x8DA5CB5B EQ PUSH2 0x12C JUMPI DUP1 PUSH4 0xC2E52206 EQ PUSH2 0x157 JUMPI DUP1 PUSH4 0xE97DCB62 EQ PUSH2 0x182 JUMPI DUP1 PUSH4 0xF71D96CB EQ PUSH2 0x18C JUMPI PUSH2 0x7B JUMP JUMPDEST DUP1 PUSH4 0x72EA61C EQ PUSH2 0x80 JUMPI DUP1 PUSH4 0x12065FE0 EQ PUSH2 0xAB JUMPI DUP1 PUSH4 0x4C2412A2 EQ PUSH2 0xD6 JUMPI DUP1 PUSH4 0x8B5B9CCC EQ PUSH2 0x101 JUMPI JUMPDEST PUSH1 0x0 DUP1 REVERT JUMPDEST CALLVALUE DUP1 ISZERO PUSH2 0x8C JUMPI PUSH1 0x0 DUP1 REVERT JUMPDEST POP PUSH2 0x95 PUSH2 0x1C9 JUMP JUMPDEST PUSH1 0x40 MLOAD PUSH2 0xA2 SWAP2 SWAP1 PUSH2 0x715 JUMP JUMPDEST PUSH1 0x40 MLOAD DUP1 SWAP2 SUB SWAP1 RETURN JUMPDEST CALLVALUE DUP1 ISZERO PUSH2 0xB7 JUMPI PUSH1 0x0 DUP1 REVERT JUMPDEST POP PUSH2 0xC0 PUSH2 0x1CF JUMP JUMPDEST PUSH1 0x40 MLOAD PUSH2 0xCD SWAP2 SWAP1 PUSH2 0x715 JUMP JUMPDEST PUSH1 0x40 MLOAD DUP1 SWAP2 SUB SWAP1 RETURN JUMPDEST CALLVALUE DUP1 ISZERO PUSH2 0xE2 JUMPI PUSH1 0x0 DUP1 REVERT JUMPDEST POP PUSH2 0xEB PUSH2 0x1D7 JUMP JUMPDEST PUSH1 0x40 MLOAD PUSH2 0xF8 SWAP2 SWAP1 PUSH2 0x715 JUMP JUMPDEST PUSH1 0x40 MLOAD DUP1 SWAP2 SUB SWAP1 RETURN JUMPDEST CALLVALUE DUP1 ISZERO PUSH2 0x10D JUMPI PUSH1 0x0 DUP1 REVERT JUMPDEST POP PUSH2 0x116 PUSH2 0x1DD JUMP JUMPDEST PUSH1 0x40 MLOAD PUSH2 0x123 SWAP2 SWAP1 PUSH2 0x820 JUMP JUMPDEST PUSH1 0x40 MLOAD DUP1 SWAP2 SUB SWAP1 RETURN JUMPDEST CALLVALUE DUP1 ISZERO PUSH2 0x138 JUMPI PUSH1 0x0 DUP1 REVERT JUMPDEST POP PUSH2 0x141 PUSH2 0x26B JUMP JUMPDEST PUSH1 0x40 MLOAD PUSH2 0x14E SWAP2 SWAP1 PUSH2 0x851 JUMP JUMPDEST PUSH1 0x40 MLOAD DUP1 SWAP2 SUB SWAP1 RETURN JUMPDEST CALLVALUE DUP1 ISZERO PUSH2 0x163 JUMPI PUSH1 0x0 DUP1 REVERT JUMPDEST POP PUSH2 0x16C PUSH2 0x28F JUMP JUMPDEST PUSH1 0x40 MLOAD PUSH2 0x179 SWAP2 SWAP1 PUSH2 0x715 JUMP JUMPDEST PUSH1 0x40 MLOAD DUP1 SWAP2 SUB SWAP1 RETURN JUMPDEST PUSH2 0x18A PUSH2 0x29C JUMP JUMPDEST STOP JUMPDEST CALLVALUE DUP1 ISZERO PUSH2 0x198 JUMPI PUSH1 0x0 DUP1 REVERT JUMPDEST POP PUSH2 0x1B3 PUSH1 0x4 DUP1 CALLDATASIZE SUB DUP2 ADD SWAP1 PUSH2 0x1AE SWAP2 SWAP1 PUSH2 0x89D JUMP JUMPDEST PUSH2 0x4A6 JUMP JUMPDEST PUSH1 0x40 MLOAD PUSH2 0x1C0 SWAP2 SWAP1 PUSH2 0x851 JUMP JUMPDEST PUSH1 0x40 MLOAD DUP1 SWAP2 SUB SWAP1 RETURN JUMPDEST PUSH1 0x2 SLOAD DUP2 JUMP JUMPDEST PUSH1 0x0 SELFBALANCE SWAP1 POP SWAP1 JUMP JUMPDEST PUSH1 0x3 SLOAD DUP2 JUMP JUMPDEST PUSH1 0x60 PUSH1 0x1 DUP1 SLOAD DUP1 PUSH1 0x20 MUL PUSH1 0x20 ADD PUSH1 0x40 MLOAD SWAP1 DUP2 ADD PUSH1 0x40 MSTORE DUP1 SWAP3 SWAP2 SWAP1 DUP2 DUP2 MSTORE PUSH1 0x20 ADD DUP3 DUP1 SLOAD DUP1 ISZERO PUSH2 0x261 JUMPI PUSH1 0x20 MUL DUP3 ADD SWAP2 SWAP1 PUSH1 0x0 MSTORE PUSH1 0x20 PUSH1 0x0 KECCAK256 SWAP1 JUMPDEST DUP2 PUSH1 0x0 SWAP1 SLOAD SWAP1 PUSH2 0x100 EXP SWAP1 DIV PUSH20 0xFFFFFFFFFFFFFFFFFFFFFFFFFFFFFFFFFFFFFFFF AND PUSH20 0xFFFFFFFFFFFFFFFFFFFFFFFFFFFFFFFFFFFFFFFF AND DUP2 MSTORE PUSH1 0x20 ADD SWAP1 PUSH1 0x1 ADD SWAP1 DUP1 DUP4 GT PUSH2 0x217 JUMPI JUMPDEST POP POP POP POP POP SWAP1 POP SWAP1 JUMP JUMPDEST PUSH1 0x0 DUP1 SLOAD SWAP1 PUSH2 0x100 EXP SWAP1 DIV PUSH20 0xFFFFFFFFFFFFFFFFFFFFFFFFFFFFFFFFFFFFFFFF AND DUP2 JUMP JUMPDEST PUSH1 0x0 PUSH1 0x1 DUP1 SLOAD SWAP1 POP SWAP1 POP SWAP1 JUMP JUMPDEST PUSH1 0x2 SLOAD CALLVALUE EQ PUSH2 0x2E0 JUMPI PUSH1 0x40 MLOAD PUSH32 0x8C379A000000000000000000000000000000000000000000000000000000000 DUP2 MSTORE PUSH1 0x4 ADD PUSH2 0x2D7 SWAP1 PUSH2 0x927 JUMP JUMPDEST PUSH1 0x40 MLOAD DUP1 SWAP2 SUB SWAP1 REVERT JUMPDEST PUSH1 0x3 SLOAD PUSH1 0x1 DUP1 SLOAD SWAP1 POP LT PUSH2 0x329 JUMPI PUSH1 0x40 MLOAD PUSH32 0x8C379A000000000000000000000000000000000000000000000000000000000 DUP2 MSTORE PUSH1 0x4 ADD PUSH2 0x320 SWAP1 PUSH2 0x993 JUMP JUMPDEST PUSH1 0x40 MLOAD DUP1 SWAP2 SUB SWAP1 REVERT JUMPDEST PUSH1 0x0 JUMPDEST PUSH1 0x1 DUP1 SLOAD SWAP1 POP DUP2 LT ISZERO PUSH2 0x3F2 JUMPI CALLER PUSH20 0xFFFFFFFFFFFFFFFFFFFFFFFFFFFFFFFFFFFFFFFF AND PUSH1 0x1 DUP3 DUP2 SLOAD DUP2 LT PUSH2 0x364 JUMPI PUSH2 0x363 PUSH2 0x9B3 JUMP JUMPDEST JUMPDEST SWAP1 PUSH1 0x0 MSTORE PUSH1 0x20 PUSH1 0x0 KECCAK256 ADD PUSH1 0x0 SWAP1 SLOAD SWAP1 PUSH2 0x100 EXP SWAP1 DIV PUSH20 0xFFFFFFFFFFFFFFFFFFFFFFFFFFFFFFFFFFFFFFFF AND PUSH20 0xFFFFFFFFFFFFFFFFFFFFFFFFFFFFFFFFFFFFFFFF AND SUB PUSH2 0x3E5 JUMPI PUSH1 0x40 MLOAD PUSH32 0x8C379A000000000000000000000000000000000000000000000000000000000 DUP2 MSTORE PUSH1 0x4 ADD PUSH2 0x3DC SWAP1 PUSH2 0xA2E JUMP JUMPDEST PUSH1 0x40 MLOAD DUP1 SWAP2 SUB SWAP1 REVERT JUMPDEST DUP1 DUP1 PUSH1 0x1 ADD SWAP2 POP POP PUSH2 0x32C JUMP JUMPDEST POP PUSH1 0x1 CALLER SWAP1 DUP1 PUSH1 0x1 DUP2 SLOAD ADD DUP1 DUP3 SSTORE DUP1 SWAP2 POP POP PUSH1 0x1 SWAP1 SUB SWAP1 PUSH1 0x0 MSTORE PUSH1 0x20 PUSH1 0x0 KECCAK256 ADD PUSH1 0x0 SWAP1 SWAP2 SWAP1 SWAP2 SWAP1 SWAP2 PUSH2 0x100 EXP DUP2 SLOAD DUP2 PUSH20 0xFFFFFFFFFFFFFFFFFFFFFFFFFFFFFFFFFFFFFFFF MUL NOT AND SWAP1 DUP4 PUSH20 0xFFFFFFFFFFFFFFFFFFFFFFFFFFFFFFFFFFFFFFFF AND MUL OR SWAP1 SSTORE POP PUSH32 0x31E760AA525306ABA638A784082A013B6A1CC0A9A1789F3F22281C0453B10B1F CALLER PUSH1 0x40 MLOAD PUSH2 0x485 SWAP2 SWAP1 PUSH2 0x851 JUMP JUMPDEST PUSH1 0x40 MLOAD DUP1 SWAP2 SUB SWAP1 LOG1 PUSH1 0x3 SLOAD PUSH1 0x1 DUP1 SLOAD SWAP1 POP SUB PUSH2 0x4A4 JUMPI PUSH2 0x4A3 PUSH2 0x4E5 JUMP JUMPDEST JUMPDEST JUMP JUMPDEST PUSH1 0x1 DUP2 DUP2 SLOAD DUP2 LT PUSH2 0x4B6 JUMPI PUSH1 0x0 DUP1 REVERT JUMPDEST SWAP1 PUSH1 0x0 MSTORE PUSH1 0x20 PUSH1 0x0 KECCAK256 ADD PUSH1 0x0 SWAP2 POP SLOAD SWAP1 PUSH2 0x100 EXP SWAP1 DIV PUSH20 0xFFFFFFFFFFFFFFFFFFFFFFFFFFFFFFFFFFFFFFFF AND DUP2 JUMP JUMPDEST PUSH1 0x0 PUSH1 0x1 DUP1 SLOAD SWAP1 POP TIMESTAMP PREVRANDAO PUSH1 0x1 PUSH1 0x40 MLOAD PUSH1 0x20 ADD PUSH2 0x503 SWAP4 SWAP3 SWAP2 SWAP1 PUSH2 0xB8D JUMP JUMPDEST PUSH1 0x40 MLOAD PUSH1 0x20 DUP2 DUP4 SUB SUB DUP2 MSTORE SWAP1 PUSH1 0x40 MSTORE DUP1 MLOAD SWAP1 PUSH1 0x20 ADD KECCAK256 PUSH1 0x0 SHR PUSH2 0x526 SWAP2 SWAP1 PUSH2 0xBF5 JUMP JUMPDEST SWAP1 POP PUSH1 0x0 PUSH1 0x1 DUP3 DUP2 SLOAD DUP2 LT PUSH2 0x53E JUMPI PUSH2 0x53D PUSH2 0x9B3 JUMP JUMPDEST JUMPDEST SWAP1 PUSH1 0x0 MSTORE PUSH1 0x20 PUSH1 0x0 KECCAK256 ADD PUSH1 0x0 SWAP1 SLOAD SWAP1 PUSH2 0x100 EXP SWAP1 DIV PUSH20 0xFFFFFFFFFFFFFFFFFFFFFFFFFFFFFFFFFFFFFFFF AND SWAP1 POP PUSH1 0x0 SELFBALANCE SWAP1 POP DUP2 PUSH20 0xFFFFFFFFFFFFFFFFFFFFFFFFFFFFFFFFFFFFFFFF AND PUSH2 0x8FC DUP3 SWAP1 DUP2 ISZERO MUL SWAP1 PUSH1 0x40 MLOAD PUSH1 0x0 PUSH1 0x40 MLOAD DUP1 DUP4 SUB DUP2 DUP6 DUP9 DUP9 CALL SWAP4 POP POP POP POP ISZERO DUP1 ISZERO PUSH2 0x5B6 JUMPI RETURNDATASIZE PUSH1 0x0 DUP1 RETURNDATACOPY RETURNDATASIZE PUSH1 0x0 REVERT JUMPDEST POP PUSH32 0x75060F9E79552DF167B73353FEE6237A75BB5BA8EA022F77224E32F152138BCB DUP3 DUP3 PUSH1 0x40 MLOAD PUSH2 0x5E8 SWAP3 SWAP2 SWAP1 PUSH2 0xC26 JUMP JUMPDEST PUSH1 0x40 MLOAD DUP1 SWAP2 SUB SWAP1 LOG1 PUSH1 0x0 PUSH8 0xFFFFFFFFFFFFFFFF DUP2 GT ISZERO PUSH2 0x60B JUMPI PUSH2 0x60A PUSH2 0xC4F JUMP JUMPDEST JUMPDEST PUSH1 0x40 MLOAD SWAP1 DUP1 DUP3 MSTORE DUP1 PUSH1 0x20 MUL PUSH1 0x20 ADD DUP3 ADD PUSH1 0x40 MSTORE DUP1 ISZERO PUSH2 0x639 JUMPI DUP2 PUSH1 0x20 ADD PUSH1 0x20 DUP3 MUL DUP1 CALLDATASIZE DUP4 CALLDATACOPY DUP1 DUP3 ADD SWAP2 POP POP SWAP1 POP JUMPDEST POP PUSH1 0x1 SWAP1 DUP1 MLOAD SWAP1 PUSH1 0x20 ADD SWAP1 PUSH2 0x64F SWAP3 SWAP2 SWAP1 PUSH2 0x655 JUMP JUMPDEST POP POP POP POP JUMP JUMPDEST DUP3 DUP1 SLOAD DUP3 DUP3 SSTORE SWAP1 PUSH1 0x0 MSTORE PUSH1 0x20 PUSH1 0x0 KECCAK256 SWAP1 DUP2 ADD SWAP3 DUP3 ISZERO PUSH2 0x6CE JUMPI SWAP2 PUSH1 0x20 MUL DUP3 ADD JUMPDEST DUP3 DUP2 GT ISZERO PUSH2 0x6CD JUMPI DUP3 MLOAD DUP3 PUSH1 0x0 PUSH2 0x100 EXP DUP2 SLOAD DUP2 PUSH20 0xFFFFFFFFFFFFFFFFFFFFFFFFFFFFFFFFFFFFFFFF MUL NOT AND SWAP1 DUP4 PUSH20 0xFFFFFFFFFFFFFFFFFFFFFFFFFFFFFFFFFFFFFFFF AND MUL OR SWAP1 SSTORE POP SWAP2 PUSH1 0x20 ADD SWAP2 SWAP1 PUSH1 0x1 ADD SWAP1 PUSH2 0x675 JUMP JUMPDEST JUMPDEST POP SWAP1 POP PUSH2 0x6DB SWAP2 SWAP1 PUSH2 0x6DF JUMP JUMPDEST POP SWAP1 JUMP JUMPDEST JUMPDEST DUP1 DUP3 GT ISZERO PUSH2 0x6F8 JUMPI PUSH1 0x0 DUP2 PUSH1 0x0 SWAP1 SSTORE POP PUSH1 0x1 ADD PUSH2 0x6E0 JUMP JUMPDEST POP SWAP1 JUMP JUMPDEST PUSH1 0x0 DUP2 SWAP1 POP SWAP2 SWAP1 POP JUMP JUMPDEST PUSH2 0x70F DUP2 PUSH2 0x6FC JUMP JUMPDEST DUP3 MSTORE POP POP JUMP JUMPDEST PUSH1 0x0 PUSH1 0x20 DUP3 ADD SWAP1 POP PUSH2 0x72A PUSH1 0x0 DUP4 ADD DUP5 PUSH2 0x706 JUMP JUMPDEST SWAP3 SWAP2 POP POP JUMP JUMPDEST PUSH1 0x0 DUP2 MLOAD SWAP1 POP SWAP2 SWAP1 POP JUMP JUMPDEST PUSH1 0x0 DUP3 DUP3 MSTORE PUSH1 0x20 DUP3 ADD SWAP1 POP SWAP3 SWAP2 POP POP JUMP JUMPDEST PUSH1 0x0 DUP2 SWAP1 POP PUSH1 0x20 DUP3 ADD SWAP1 POP SWAP2 SWAP1 POP JUMP JUMPDEST PUSH1 0x0 PUSH20 0xFFFFFFFFFFFFFFFFFFFFFFFFFFFFFFFFFFFFFFFF DUP3 AND SWAP1 POP SWAP2 SWAP1 POP JUMP JUMPDEST PUSH1 0x0 PUSH2 0x787 DUP3 PUSH2 0x75C JUMP JUMPDEST SWAP1 POP SWAP2 SWAP1 POP JUMP JUMPDEST PUSH2 0x797 DUP2 PUSH2 0x77C JUMP JUMPDEST DUP3 MSTORE POP POP JUMP JUMPDEST PUSH1 0x0 PUSH2 0x7A9 DUP4 DUP4 PUSH2 0x78E JUMP JUMPDEST PUSH1 0x20 DUP4 ADD SWAP1 POP SWAP3 SWAP2 POP POP JUMP JUMPDEST PUSH1 0x0 PUSH1 0x20 DUP3 ADD SWAP1 POP SWAP2 SWAP1 POP JUMP JUMPDEST PUSH1 0x0 PUSH2 0x7CD DUP3 PUSH2 0x730 JUMP JUMPDEST PUSH2 0x7D7 DUP2 DUP6 PUSH2 0x73B JUMP JUMPDEST SWAP4 POP PUSH2 0x7E2 DUP4 PUSH2 0x74C JUMP JUMPDEST DUP1 PUSH1 0x0 JUMPDEST DUP4 DUP2 LT ISZERO PUSH2 0x813 JUMPI DUP2 MLOAD PUSH2 0x7FA DUP9 DUP3 PUSH2 0x79D JUMP JUMPDEST SWAP8 POP PUSH2 0x805 DUP4 PUSH2 0x7B5 JUMP JUMPDEST SWAP3 POP POP PUSH1 0x1 DUP2 ADD SWAP1 POP PUSH2 0x7E6 JUMP JUMPDEST POP DUP6 SWAP4 POP POP POP POP SWAP3 SWAP2 POP POP JUMP JUMPDEST PUSH1 0x0 PUSH1 0x20 DUP3 ADD SWAP1 POP DUP2 DUP2 SUB PUSH1 0x0 DUP4 ADD MSTORE PUSH2 0x83A DUP2 DUP5 PUSH2 0x7C2 JUMP JUMPDEST SWAP1 POP SWAP3 SWAP2 POP POP JUMP JUMPDEST PUSH2 0x84B DUP2 PUSH2 0x77C JUMP JUMPDEST DUP3 MSTORE POP POP JUMP JUMPDEST PUSH1 0x0 PUSH1 0x20 DUP3 ADD SWAP1 POP PUSH2 0x866 PUSH1 0x0 DUP4 ADD DUP5 PUSH2 0x842 JUMP JUMPDEST SWAP3 SWAP2 POP POP JUMP JUMPDEST PUSH1 0x0 DUP1 REVERT JUMPDEST PUSH2 0x87A DUP2 PUSH2 0x6FC JUMP JUMPDEST DUP2 EQ PUSH2 0x885 JUMPI PUSH1 0x0 DUP1 REVERT JUMPDEST POP JUMP JUMPDEST PUSH1 0x0 DUP2 CALLDATALOAD SWAP1 POP PUSH2 0x897 DUP2 PUSH2 0x871 JUMP JUMPDEST SWAP3 SWAP2 POP POP JUMP JUMPDEST PUSH1 0x0 PUSH1 0x20 DUP3 DUP5 SUB SLT ISZERO PUSH2 0x8B3 JUMPI PUSH2 0x8B2 PUSH2 0x86C JUMP JUMPDEST JUMPDEST PUSH1 0x0 PUSH2 0x8C1 DUP5 DUP3 DUP6 ADD PUSH2 0x888 JUMP JUMPDEST SWAP2 POP POP SWAP3 SWAP2 POP POP JUMP JUMPDEST PUSH1 0x0 DUP3 DUP3 MSTORE PUSH1 0x20 DUP3 ADD SWAP1 POP SWAP3 SWAP2 POP POP JUMP JUMPDEST PUSH32 0x57726F6E6720656E747279206665650000000000000000000000000000000000 PUSH1 0x0 DUP3 ADD MSTORE POP JUMP JUMPDEST PUSH1 0x0 PUSH2 0x911 PUSH1 0xF DUP4 PUSH2 0x8CA JUMP JUMPDEST SWAP2 POP PUSH2 0x91C DUP3 PUSH2 0x8DB JUMP JUMPDEST PUSH1 0x20 DUP3 ADD SWAP1 POP SWAP2 SWAP1 POP JUMP JUMPDEST PUSH1 0x0 PUSH1 0x20 DUP3 ADD SWAP1 POP DUP2 DUP2 SUB PUSH1 0x0 DUP4 ADD MSTORE PUSH2 0x940 DUP2 PUSH2 0x904 JUMP JUMPDEST SWAP1 POP SWAP2 SWAP1 POP JUMP JUMPDEST PUSH32 0x4C6F74746572792069732066756C6C0000000000000000000000000000000000 PUSH1 0x0 DUP3 ADD MSTORE POP JUMP JUMPDEST PUSH1 0x0 PUSH2 0x97D PUSH1 0xF DUP4 PUSH2 0x8CA JUMP JUMPDEST SWAP2 POP PUSH2 0x988 DUP3 PUSH2 0x947 JUMP JUMPDEST PUSH1 0x20 DUP3 ADD SWAP1 POP SWAP2 SWAP1 POP JUMP JUMPDEST PUSH1 0x0 PUSH1 0x20 DUP3 ADD SWAP1 POP DUP2 DUP2 SUB PUSH1 0x0 DUP4 ADD MSTORE PUSH2 0x9AC DUP2 PUSH2 0x970 JUMP JUMPDEST SWAP1 POP SWAP2 SWAP1 POP JUMP JUMPDEST PUSH32 0x4E487B7100000000000000000000000000000000000000000000000000000000 PUSH1 0x0 MSTORE PUSH1 0x32 PUSH1 0x4 MSTORE PUSH1 0x24 PUSH1 0x0 REVERT JUMPDEST PUSH32 0x416C726561647920656E74657265640000000000000000000000000000000000 PUSH1 0x0 DUP3 ADD MSTORE POP JUMP JUMPDEST PUSH1 0x0 PUSH2 0xA18 PUSH1 0xF DUP4 PUSH2 0x8CA JUMP JUMPDEST SWAP2 POP PUSH2 0xA23 DUP3 PUSH2 0x9E2 JUMP JUMPDEST PUSH1 0x20 DUP3 ADD SWAP1 POP SWAP2 SWAP1 POP JUMP JUMPDEST PUSH1 0x0 PUSH1 0x20 DUP3 ADD SWAP1 POP DUP2 DUP2 SUB PUSH1 0x0 DUP4 ADD MSTORE PUSH2 0xA47 DUP2 PUSH2 0xA0B JUMP JUMPDEST SWAP1 POP SWAP2 SWAP1 POP JUMP JUMPDEST PUSH1 0x0 DUP2 SWAP1 POP SWAP2 SWAP1 POP JUMP JUMPDEST PUSH2 0xA69 PUSH2 0xA64 DUP3 PUSH2 0x6FC JUMP JUMPDEST PUSH2 0xA4E JUMP JUMPDEST DUP3 MSTORE POP POP JUMP JUMPDEST PUSH1 0x0 DUP2 SLOAD SWAP1 POP SWAP2 SWAP1 POP JUMP JUMPDEST PUSH1 0x0 DUP2 SWAP1 POP SWAP3 SWAP2 POP POP JUMP JUMPDEST PUSH1 0x0 DUP2 SWAP1 POP DUP2 PUSH1 0x0 MSTORE PUSH1 0x20 PUSH1 0x0 KECCAK256 SWAP1 POP SWAP2 SWAP1 POP JUMP JUMPDEST PUSH2 0xAA3 DUP2 PUSH2 0x77C JUMP JUMPDEST DUP3 MSTORE POP POP JUMP JUMPDEST PUSH1 0x0 PUSH2 0xAB5 DUP4 DUP4 PUSH2 0xA9A JUMP JUMPDEST PUSH1 0x20 DUP4 ADD SWAP1 POP SWAP3 SWAP2 POP POP JUMP JUMPDEST PUSH1 0x0 DUP2 PUSH1 0x0 SHR SWAP1 POP SWAP2 SWAP1 POP JUMP JUMPDEST PUSH1 0x0 PUSH20 0xFFFFFFFFFFFFFFFFFFFFFFFFFFFFFFFFFFFFFFFF DUP3 AND SWAP1 POP SWAP2 SWAP1 POP JUMP JUMPDEST PUSH1 0x0 PUSH2 0xB01 PUSH2 0xAFC DUP4 PUSH2 0xAC1 JUMP JUMPDEST PUSH2 0xACE JUMP JUMPDEST SWAP1 POP SWAP2 SWAP1 POP JUMP JUMPDEST PUSH1 0x0 PUSH2 0xB14 DUP3 SLOAD PUSH2 0xAEE JUMP JUMPDEST SWAP1 POP SWAP2 SWAP1 POP JUMP JUMPDEST PUSH1 0x0 PUSH1 0x1 DUP3 ADD SWAP1 POP SWAP2 SWAP1 POP JUMP JUMPDEST PUSH1 0x0 PUSH2 0xB33 DUP3 PUSH2 0xA6F JUMP JUMPDEST PUSH2 0xB3D DUP2 DUP6 PUSH2 0xA7A JUMP JUMPDEST SWAP4 POP PUSH2 0xB48 DUP4 PUSH2 0xA85 JUMP JUMPDEST DUP1 PUSH1 0x0 JUMPDEST DUP4 DUP2 LT ISZERO PUSH2 0xB80 JUMPI PUSH2 0xB5D DUP3 PUSH2 0xB08 JUMP JUMPDEST PUSH2 0xB67 DUP9 DUP3 PUSH2 0xAA9 JUMP JUMPDEST SWAP8 POP PUSH2 0xB72 DUP4 PUSH2 0xB1B JUMP JUMPDEST SWAP3 POP POP PUSH1 0x1 DUP2 ADD SWAP1 POP PUSH2 0xB4C JUMP JUMPDEST POP DUP6 SWAP4 POP POP POP POP SWAP3 SWAP2 POP POP JUMP JUMPDEST PUSH1 0x0 PUSH2 0xB99 DUP3 DUP7 PUSH2 0xA58 JUMP JUMPDEST PUSH1 0x20 DUP3 ADD SWAP2 POP PUSH2 0xBA9 DUP3 DUP6 PUSH2 0xA58 JUMP JUMPDEST PUSH1 0x20 DUP3 ADD SWAP2 POP PUSH2 0xBB9 DUP3 DUP5 PUSH2 0xB28 JUMP JUMPDEST SWAP2 POP DUP2 SWAP1 POP SWAP5 SWAP4 POP POP POP POP JUMP JUMPDEST PUSH32 0x4E487B7100000000000000000000000000000000000000000000000000000000 PUSH1 0x0 MSTORE PUSH1 0x12 PUSH1 0x4 MSTORE PUSH1 0x24 PUSH1 0x0 REVERT JUMPDEST PUSH1 0x0 PUSH2 0xC00 DUP3 PUSH2 0x6FC JUMP JUMPDEST SWAP2 POP PUSH2 0xC0B DUP4 PUSH2 0x6FC JUMP JUMPDEST SWAP3 POP DUP3 PUSH2 0xC1B JUMPI PUSH2 0xC1A PUSH2 0xBC6 JUMP JUMPDEST JUMPDEST DUP3 DUP3 MOD SWAP1 POP SWAP3 SWAP2 POP POP JUMP JUMPDEST PUSH1 0x0 PUSH1 0x40 DUP3 ADD SWAP1 POP PUSH2 0xC3B PUSH1 0x0 DUP4 ADD DUP6 PUSH2 0x842 JUMP JUMPDEST PUSH2 0xC48 PUSH1 0x20 DUP4 ADD DUP5 PUSH2 0x706 JUMP JUMPDEST SWAP4 SWAP3 POP POP POP JUMP JUMPDEST PUSH32 0x4E487B7100000000000000000000000000000000000000000000000000000000 PUSH1 0x0 MSTORE PUSH1 0x41 PUSH1 0x4 MSTORE PUSH1 0x24 PUSH1 0x0 REVERT INVALID LOG2 PUSH5 0x6970667358 0x22 SLT KECCAK256 0xE2 0xC7 0x25 BALANCE 0xE 0xB9 ISZERO PUSH24 0x38A714674F6C77F89BD9C6437AA6ABF0F0CB3EACB4F04F0E PUSH5 0x736F6C6343 STOP ADDMOD SHR STOP CALLER "
        },
        "methodIdentifiers": {
          "enter()": "e97dcb62",
          "entryFee()": "072ea61c",
          "getBalance()": "12065fe0",
          "getPlayerCount()": "c2e52206",
          "getPlayers()": "8b5b9ccc",
          "maxPlayers()": "4c2412a2",
          "owner()": "8da5cb5b",
          "players(uint256)": "f71d96cb"
        }
      }
    }
  }
}