{"abi":[{"type":"constructor","inputs":[],"stateMutability":"nonpayable"},{"type":"function","name":"approve","inputs":[{"name":"to","type":"address","internalType":"address"},{"name":"tokenId","type":"uint256","internalType":"uint256"}],"outputs":[],"stateMutability":"nonpayable"},{"type":"function","name":"authorizeMinter","inputs":[{"name":"minter","type":"address","internalType":"address"}],"outputs":[],"stateMutability":"nonpayable"},{"type":"function","name":"balanceOf","inputs":[{"name":"owner","type":"address","internalType":"address"}],"outputs":[{"name":"","type":"uint256","internalType":"uint256"}],"stateMutability":"view"},{"type":"function","name":"getApproved","inputs":[{"name":"tokenId","type":"uint256","internalType":"uint256"}],"outputs":[{"name":"","type":"address","internalType":"address"}],"stateMutability":"view"},{"type":"function","name":"getTokenURI","inputs":[{"name":"tokenId","type":"uint256","internalType":"uint256"}],"outputs":[{"name":"","type":"string","internalType":"string"}],"stateMutability":"view"},{"type":"function","name":"isApprovedForAll","inputs":[{"name":"owner","type":"address","internalType":"address"},{"name":"operator","type":"address","internalType":"address"}],"outputs":[{"name":"","type":"bool","internalType":"bool"}],"stateMutability":"view"},{"type":"function","name":"mintTicket","inputs":[{"name":"to","type":"address","internalType":"address"},{"name":"tokenURI_","type":"string","internalType":"string"}],"outputs":[{"name":"","type":"uint256","internalType":"uint256"}],"stateMutability":"nonpayable"},{"type":"function","name":"name","inputs":[],"outputs":[{"name":"","type":"string","internalType":"string"}],"stateMutability":"view"},{"type":"function","name":"owner","inputs":[],"outputs":[{"name":"","type":"address","internalType":"address"}],"stateMutability":"view"},{"type":"function","name":"ownerOf","inputs":[{"name":"tokenId","type":"uint256","internalType":"uint256"}],"outputs":[{"name":"","type":"address","internalType":"address"}],"stateMutability":"view"},{"type":"function","name":"renounceOwnership","inputs":[],"outputs":[],"stateMutability":"nonpayable"},{"type":"function","name":"safeTransferFrom","inputs":[{"name":"from","type":"address","internalType":"address"},{"name":"to","type":"address","internalType":"address"},{"name":"tokenId","type":"uint256","internalType":"uint256"}],"outputs":[],"stateMutability":"nonpayable"},{"type":"function","name":"safeTransferFrom","inputs":[{"name":"from","type":"address","internalType":"address"},{"name":"to","type":"address","internalType":"address"},{"name":"tokenId","type":"uint256","internalType":"uint256"},{"name":"data","type":"bytes","internalType":"bytes"}],"outputs":[],"stateMutability":"nonpayable"},{"type":"function","name":"setApprovalForAll","inputs":[{"name":"operator","type":"address","internalType":"address"},{"name":"approved","type":"bool","internalType":"bool"}],"outputs":[],"stateMutability":"nonpayable"},{"type":"function","name":"supportsInterface","inputs":[{"name":"interfaceId","type":"bytes4","internalType":"bytes4"}],"outputs":[{"name":"","type":"bool","internalType":"bool"}],"stateMutability":"view"},{"type":"function","name":"symbol","inputs":[],"outputs":[{"name":"","type":"string","internalType":"string"}],"stateMutability":"view"},{"type":"function","name":"tokenURI","inputs":[{"name":"tokenId","type":"uint256","internalType":"uint256"}],"outputs":[{"name":"","type":"string","internalType":"string"}],"stateMutability":"view"},{"type":"function","name":"transferFrom","inputs":[{"name":"from","type":"address","internalType":"address"},{"name":"to","type":"address","internalType":"address"},{"name":"tokenId","type":"uint256","internalType":"uint256"}],"outputs":[],"stateMutability":"nonpayable"},{"type":"function","name":"transferOwnership","inputs":[{"name":"newOwner","type":"address","internalType":"address"}],"outputs":[],"stateMutability":"nonpayable"},{"type":"event","name":"Approval","inputs":[{"name":"owner","type":"address","indexed":true,"internalType":"address"},{"name":"approved","type":"address","indexed":true,"internalType":"address"},{"name":"tokenId","type":"uint256","indexed":true,"internalType":"uint256"}],"anonymous":false},{"type":"event","name":"ApprovalForAll","inputs":[{"name":"owner","type":"address","indexed":true,"internalType":"address"},{"name":"operator","type":"address","indexed":true,"internalType":"address"},{"name":"approved","type":"bool","indexed":false,"internalType":"bool"}],"anonymous":false},{"type":"event","name":"BatchMetadataUpdate","inputs":[{"name":"_fromTokenId","type":"uint256","indexed":false,"internalType":"uint256"},{"name":"_toTokenId","type":"uint256","indexed":false,"internalType":"uint256"}],"anonymous":false},{"type":"event","name":"MetadataUpdate","inputs":[{"name":"_tokenId","type":"uint256","indexed":false,"internalType":"uint256"}],"anonymous":false},{"type":"event","name":"OwnershipTransferred","inputs":[{"name":"previousOwner","type":"address","indexed":true,"internalType":"address"},{"name":"newOwner","type":"address","indexed":true,"internalType":"address"}],"anonymous":false},{"type":"event","name":"Transfer","inputs":[{"name":"from","type":"address","indexed":true,"internalType":"address"},{"name":"to","type":"address","indexed":true,"internalType":"address"},{"name":"tokenId","type":"uint256","indexed":true,"internalType":"uint256"}],"anonymous":false}],"bytecode":{"object":"0x608060405234801561000f575f5ffd5b506040518060400160405280600681526020017f5469636b657400000000000000000000000000000000000000000000000000008152506040518060400160405280600681526020017f5449434b45540000000000000000000000000000000000000000000000000000815250815f908161008a91906103c5565b50806001908161009a91906103c5565b5050506100b96100ae6100be60201b60201c565b6100c560201b60201c565b610494565b5f33905090565b5f60075f9054906101000a900473ffffffffffffffffffffffffffffffffffffffff1690508160075f6101000a81548173ffffffffffffffffffffffffffffffffffffffff021916908373ffffffffffffffffffffffffffffffffffffffff1602179055508173ffffffffffffffffffffffffffffffffffffffff168173ffffffffffffffffffffffffffffffffffffffff167f8be0079c531659141344cd1fd0a4f28419497f9722a3daafe3b4186f6b6457e060405160405180910390a35050565b5f81519050919050565b7f4e487b71000000000000000000000000000000000000000000000000000000005f52604160045260245ffd5b7f4e487b71000000000000000000000000000000000000000000000000000000005f52602260045260245ffd5b5f600282049050600182168061020357607f821691505b602082108103610216576102156101bf565b5b50919050565b5f819050815f5260205f209050919050565b5f6020601f8301049050919050565b5f82821b905092915050565b5f600883026102787fffffffffffffffffffffffffffffffffffffffffffffffffffffffffffffffff8261023d565b610282868361023d565b95508019841693508086168417925050509392505050565b5f819050919050565b5f819050919050565b5f6102c66102c16102bc8461029a565b6102a3565b61029a565b9050919050565b5f819050919050565b6102df836102ac565b6102f36102eb826102cd565b848454610249565b825550505050565b5f5f905090565b61030a6102fb565b6103158184846102d6565b505050565b5b818110156103385761032d5f82610302565b60018101905061031b565b5050565b601f82111561037d5761034e8161021c565b6103578461022e565b81016020851015610366578190505b61037a6103728561022e565b83018261031a565b50505b505050565b5f82821c905092915050565b5f61039d5f1984600802610382565b1980831691505092915050565b5f6103b5838361038e565b9150826002028217905092915050565b6103ce82610188565b67ffffffffffffffff8111156103e7576103e6610192565b5b6103f182546101ec565b6103fc82828561033c565b5f60209050601f83116001811461042d575f841561041b578287015190505b61042585826103aa565b86555061048c565b601f19841661043b8661021c565b5f5b828110156104625784890151825560018201915060208501945060208101905061043d565b8683101561047f578489015161047b601f89168261038e565b8355505b6001600288020188555050505b505050505050565b61309e806104a15f395ff3fe608060405234801561000f575f5ffd5b506004361061011f575f3560e01c80636352211e116100ab578063a22cb4651161006f578063a22cb46514610317578063b88d4fde14610333578063c87b56dd1461034f578063e985e9c51461037f578063f2fde38b146103af5761011f565b80636352211e1461027157806370a08231146102a1578063715018a6146102d15780638da5cb5b146102db57806395d89b41146102f95761011f565b80630c984832116100f25780630c984832146101bd57806323b872dd146101d95780633bb3a24d146101f557806342842e0e146102255780635388842c146102415761011f565b806301ffc9a71461012357806306fdde0314610153578063081812fc14610171578063095ea7b3146101a1575b5f5ffd5b61013d60048036038101906101389190611e68565b6103cb565b60405161014a9190611ead565b60405180910390f35b61015b61042b565b6040516101689190611f36565b60405180910390f35b61018b60048036038101906101869190611f89565b6104ba565b6040516101989190611ff3565b60405180910390f35b6101bb60048036038101906101b69190612036565b6104fc565b005b6101d760048036038101906101d29190612074565b610612565b005b6101f360048036038101906101ee919061209f565b6106e0565b005b61020f600480360381019061020a9190611f89565b610740565b60405161021c9190611f36565b60405180910390f35b61023f600480360381019061023a919061209f565b610752565b005b61025b6004803603810190610256919061221b565b610771565b6040516102689190612284565b60405180910390f35b61028b60048036038101906102869190611f89565b61088c565b6040516102989190611ff3565b60405180910390f35b6102bb60048036038101906102b69190612074565b610910565b6040516102c89190612284565b60405180910390f35b6102d96109c4565b005b6102e36109d7565b6040516102f09190611ff3565b60405180910390f35b6103016109ff565b60405161030e9190611f36565b60405180910390f35b610331600480360381019061032c91906122c7565b610a8f565b005b61034d600480360381019061034891906123a3565b610aa5565b005b61036960048036038101906103649190611f89565b610b07565b6040516103769190611f36565b60405180910390f35b61039960048036038101906103949190612423565b610c11565b6040516103a69190611ead565b60405180910390f35b6103c960048036038101906103c49190612074565b610c9f565b005b5f634906490660e01b7bffffffffffffffffffffffffffffffffffffffffffffffffffffffff1916827bffffffffffffffffffffffffffffffffffffffffffffffffffffffff19161480610424575061042382610d21565b5b9050919050565b60605f80546104399061248e565b80601f01602080910402602001604051908101604052809291908181526020018280546104659061248e565b80156104b05780601f10610487576101008083540402835291602001916104b0565b820191905f5260205f20905b81548152906001019060200180831161049357829003601f168201915b5050505050905090565b5f6104c482610e02565b60045f8381526020019081526020015f205f9054906101000a900473ffffffffffffffffffffffffffffffffffffffff169050919050565b5f6105068261088c565b90508073ffffffffffffffffffffffffffffffffffffffff168373ffffffffffffffffffffffffffffffffffffffff1603610576576040517f08c379a000000000000000000000000000000000000000000000000000000000815260040161056d9061252e565b60405180910390fd5b8073ffffffffffffffffffffffffffffffffffffffff16610595610e4d565b73ffffffffffffffffffffffffffffffffffffffff1614806105c457506105c3816105be610e4d565b610c11565b5b610603576040517f08c379a00000000000000000000000000000000000000000000000000000000081526004016105fa906125bc565b60405180910390fd5b61060d8383610e54565b505050565b61061a610f0a565b5f73ffffffffffffffffffffffffffffffffffffffff168173ffffffffffffffffffffffffffffffffffffffff1603610688576040517f08c379a000000000000000000000000000000000000000000000000000000000815260040161067f90612624565b60405180910390fd5b6001600a5f8373ffffffffffffffffffffffffffffffffffffffff1673ffffffffffffffffffffffffffffffffffffffff1681526020019081526020015f205f6101000a81548160ff02191690831515021790555050565b6106f16106eb610e4d565b82610f88565b610730576040517f08c379a0000000000000000000000000000000000000000000000000000000008152600401610727906126b2565b60405180910390fd5b61073b83838361101c565b505050565b606061074b82610b07565b9050919050565b61076c83838360405180602001604052805f815250610aa5565b505050565b5f61077a6109d7565b73ffffffffffffffffffffffffffffffffffffffff163373ffffffffffffffffffffffffffffffffffffffff1614806107f95750600a5f3373ffffffffffffffffffffffffffffffffffffffff1673ffffffffffffffffffffffffffffffffffffffff1681526020019081526020015f205f9054906101000a900460ff165b610838576040517f08c379a000000000000000000000000000000000000000000000000000000000815260040161082f9061271a565b60405180910390fd5b5f6108436008611308565b905061084f6008611314565b6108598482611328565b6108638184611345565b8260095f8381526020019081526020015f20908161088191906128d8565b508091505092915050565b5f5f610897836113e7565b90505f73ffffffffffffffffffffffffffffffffffffffff168173ffffffffffffffffffffffffffffffffffffffff1603610907576040517f08c379a00000000000000000000000000000000000000000000000000000000081526004016108fe906129f1565b60405180910390fd5b80915050919050565b5f5f73ffffffffffffffffffffffffffffffffffffffff168273ffffffffffffffffffffffffffffffffffffffff160361097f576040517f08c379a000000000000000000000000000000000000000000000000000000000815260040161097690612a7f565b60405180910390fd5b60035f8373ffffffffffffffffffffffffffffffffffffffff1673ffffffffffffffffffffffffffffffffffffffff1681526020019081526020015f20549050919050565b6109cc610f0a565b6109d55f611420565b565b5f60075f9054906101000a900473ffffffffffffffffffffffffffffffffffffffff16905090565b606060018054610a0e9061248e565b80601f0160208091040260200160405190810160405280929190818152602001828054610a3a9061248e565b8015610a855780601f10610a5c57610100808354040283529160200191610a85565b820191905f5260205f20905b815481529060010190602001808311610a6857829003601f168201915b5050505050905090565b610aa1610a9a610e4d565b83836114e3565b5050565b610ab6610ab0610e4d565b83610f88565b610af5576040517f08c379a0000000000000000000000000000000000000000000000000000000008152600401610aec906126b2565b60405180910390fd5b610b018484848461164a565b50505050565b6060610b1282610e02565b5f60065f8481526020019081526020015f208054610b2f9061248e565b80601f0160208091040260200160405190810160405280929190818152602001828054610b5b9061248e565b8015610ba65780601f10610b7d57610100808354040283529160200191610ba6565b820191905f5260205f20905b815481529060010190602001808311610b8957829003601f168201915b505050505090505f610bb66116a6565b90505f815103610bca578192505050610c0c565b5f82511115610bfe578082604051602001610be6929190612ad7565b60405160208183030381529060405292505050610c0c565b610c07846116bc565b925050505b919050565b5f60055f8473ffffffffffffffffffffffffffffffffffffffff1673ffffffffffffffffffffffffffffffffffffffff1681526020019081526020015f205f8373ffffffffffffffffffffffffffffffffffffffff1673ffffffffffffffffffffffffffffffffffffffff1681526020019081526020015f205f9054906101000a900460ff16905092915050565b610ca7610f0a565b5f73ffffffffffffffffffffffffffffffffffffffff168173ffffffffffffffffffffffffffffffffffffffff1603610d15576040517f08c379a0000000000000000000000000000000000000000000000000000000008152600401610d0c90612b6a565b60405180910390fd5b610d1e81611420565b50565b5f7f80ac58cd000000000000000000000000000000000000000000000000000000007bffffffffffffffffffffffffffffffffffffffffffffffffffffffff1916827bffffffffffffffffffffffffffffffffffffffffffffffffffffffff19161480610deb57507f5b5e139f000000000000000000000000000000000000000000000000000000007bffffffffffffffffffffffffffffffffffffffffffffffffffffffff1916827bffffffffffffffffffffffffffffffffffffffffffffffffffffffff1916145b80610dfb5750610dfa82611721565b5b9050919050565b610e0b8161178a565b610e4a576040517f08c379a0000000000000000000000000000000000000000000000000000000008152600401610e41906129f1565b60405180910390fd5b50565b5f33905090565b8160045f8381526020019081526020015f205f6101000a81548173ffffffffffffffffffffffffffffffffffffffff021916908373ffffffffffffffffffffffffffffffffffffffff160217905550808273ffffffffffffffffffffffffffffffffffffffff16610ec48361088c565b73ffffffffffffffffffffffffffffffffffffffff167f8c5be1e5ebec7d5bd14f71427d1e84f3dd0314c0f7b2291e5b200ac8c7c3b92560405160405180910390a45050565b610f12610e4d565b73ffffffffffffffffffffffffffffffffffffffff16610f306109d7565b73ffffffffffffffffffffffffffffffffffffffff1614610f86576040517f08c379a0000000000000000000000000000000000000000000000000000000008152600401610f7d90612bd2565b60405180910390fd5b565b5f5f610f938361088c565b90508073ffffffffffffffffffffffffffffffffffffffff168473ffffffffffffffffffffffffffffffffffffffff161480610fd55750610fd48185610c11565b5b8061101357508373ffffffffffffffffffffffffffffffffffffffff16610ffb846104ba565b73ffffffffffffffffffffffffffffffffffffffff16145b91505092915050565b8273ffffffffffffffffffffffffffffffffffffffff1661103c8261088c565b73ffffffffffffffffffffffffffffffffffffffff1614611092576040517f08c379a000000000000000000000000000000000000000000000000000000000815260040161108990612c60565b60405180910390fd5b5f73ffffffffffffffffffffffffffffffffffffffff168273ffffffffffffffffffffffffffffffffffffffff1603611100576040517f08c379a00000000000000000000000000000000000000000000000000000000081526004016110f790612cee565b60405180910390fd5b61110d83838360016117ca565b8273ffffffffffffffffffffffffffffffffffffffff1661112d8261088c565b73ffffffffffffffffffffffffffffffffffffffff1614611183576040517f08c379a000000000000000000000000000000000000000000000000000000000815260040161117a90612c60565b60405180910390fd5b60045f8281526020019081526020015f205f6101000a81549073ffffffffffffffffffffffffffffffffffffffff0219169055600160035f8573ffffffffffffffffffffffffffffffffffffffff1673ffffffffffffffffffffffffffffffffffffffff1681526020019081526020015f205f8282540392505081905550600160035f8473ffffffffffffffffffffffffffffffffffffffff1673ffffffffffffffffffffffffffffffffffffffff1681526020019081526020015f205f82825401925050819055508160025f8381526020019081526020015f205f6101000a81548173ffffffffffffffffffffffffffffffffffffffff021916908373ffffffffffffffffffffffffffffffffffffffff160217905550808273ffffffffffffffffffffffffffffffffffffffff168473ffffffffffffffffffffffffffffffffffffffff167fddf252ad1be2c89b69c2b068fc378daa952ba7f163c4a11628f55a4df523b3ef60405160405180910390a461130383838360016117d0565b505050565b5f815f01549050919050565b6001815f015f828254019250508190555050565b611341828260405180602001604052805f8152506117d6565b5050565b61134e8261178a565b61138d576040517f08c379a000000000000000000000000000000000000000000000000000000000815260040161138490612d7c565b60405180910390fd5b8060065f8481526020019081526020015f2090816113ab91906128d8565b507ff8e1a15aba9398e019f0b49df1a4fde98ee17ae345cb5f6b5e2c27f5033e8ce7826040516113db9190612284565b60405180910390a15050565b5f60025f8381526020019081526020015f205f9054906101000a900473ffffffffffffffffffffffffffffffffffffffff169050919050565b5f60075f9054906101000a900473ffffffffffffffffffffffffffffffffffffffff1690508160075f6101000a81548173ffffffffffffffffffffffffffffffffffffffff021916908373ffffffffffffffffffffffffffffffffffffffff1602179055508173ffffffffffffffffffffffffffffffffffffffff168173ffffffffffffffffffffffffffffffffffffffff167f8be0079c531659141344cd1fd0a4f28419497f9722a3daafe3b4186f6b6457e060405160405180910390a35050565b8173ffffffffffffffffffffffffffffffffffffffff168373ffffffffffffffffffffffffffffffffffffffff1603611551576040517f08c379a000000000000000000000000000000000000000000000000000000000815260040161154890612de4565b60405180910390fd5b8060055f8573ffffffffffffffffffffffffffffffffffffffff1673ffffffffffffffffffffffffffffffffffffffff1681526020019081526020015f205f8473ffffffffffffffffffffffffffffffffffffffff1673ffffffffffffffffffffffffffffffffffffffff1681526020019081526020015f205f6101000a81548160ff0219169083151502179055508173ffffffffffffffffffffffffffffffffffffffff168373ffffffffffffffffffffffffffffffffffffffff167f17307eab39ab6107e8899845ad3d59bd9653f200f220920489ca2b5937696c318360405161163d9190611ead565b60405180910390a3505050565b61165584848461101c565b61166184848484611830565b6116a0576040517f08c379a000000000000000000000000000000000000000000000000000000000815260040161169790612e72565b60405180910390fd5b50505050565b606060405180602001604052805f815250905090565b60606116c782610e02565b5f6116d06116a6565b90505f8151116116ee5760405180602001604052805f815250611719565b806116f8846119b2565b604051602001611709929190612ad7565b6040516020818303038152906040525b915050919050565b5f7f01ffc9a7000000000000000000000000000000000000000000000000000000007bffffffffffffffffffffffffffffffffffffffffffffffffffffffff1916827bffffffffffffffffffffffffffffffffffffffffffffffffffffffff1916149050919050565b5f5f73ffffffffffffffffffffffffffffffffffffffff166117ab836113e7565b73ffffffffffffffffffffffffffffffffffffffff1614159050919050565b50505050565b50505050565b6117e08383611a7c565b6117ec5f848484611830565b61182b576040517f08c379a000000000000000000000000000000000000000000000000000000000815260040161182290612e72565b60405180910390fd5b505050565b5f6118508473ffffffffffffffffffffffffffffffffffffffff16611c8f565b156119a5578373ffffffffffffffffffffffffffffffffffffffff1663150b7a02611879610e4d565b8786866040518563ffffffff1660e01b815260040161189b9493929190612ee2565b6020604051808303815f875af19250505080156118d657506040513d601f19601f820116820180604052508101906118d39190612f40565b60015b611955573d805f8114611904576040519150601f19603f3d011682016040523d82523d5f602084013e611909565b606091505b505f81510361194d576040517f08c379a000000000000000000000000000000000000000000000000000000000815260040161194490612e72565b60405180910390fd5b805181602001fd5b63150b7a0260e01b7bffffffffffffffffffffffffffffffffffffffffffffffffffffffff1916817bffffffffffffffffffffffffffffffffffffffffffffffffffffffff1916149150506119aa565b600190505b949350505050565b60605f60016119c084611cb1565b0190505f8167ffffffffffffffff8111156119de576119dd6120f7565b5b6040519080825280601f01601f191660200182016040528015611a105781602001600182028036833780820191505090505b5090505f82602001820190505b600115611a71578080600190039150507f3031323334353637383961626364656600000000000000000000000000000000600a86061a8153600a8581611a6657611a65612f6b565b5b0494505f8503611a1d575b819350505050919050565b5f73ffffffffffffffffffffffffffffffffffffffff168273ffffffffffffffffffffffffffffffffffffffff1603611aea576040517f08c379a0000000000000000000000000000000000000000000000000000000008152600401611ae190612fe2565b60405180910390fd5b611af38161178a565b15611b33576040517f08c379a0000000000000000000000000000000000000000000000000000000008152600401611b2a9061304a565b60405180910390fd5b611b405f838360016117ca565b611b498161178a565b15611b89576040517f08c379a0000000000000000000000000000000000000000000000000000000008152600401611b809061304a565b60405180910390fd5b600160035f8473ffffffffffffffffffffffffffffffffffffffff1673ffffffffffffffffffffffffffffffffffffffff1681526020019081526020015f205f82825401925050819055508160025f8381526020019081526020015f205f6101000a81548173ffffffffffffffffffffffffffffffffffffffff021916908373ffffffffffffffffffffffffffffffffffffffff160217905550808273ffffffffffffffffffffffffffffffffffffffff165f73ffffffffffffffffffffffffffffffffffffffff167fddf252ad1be2c89b69c2b068fc378daa952ba7f163c4a11628f55a4df523b3ef60405160405180910390a4611c8b5f838360016117d0565b5050565b5f5f8273ffffffffffffffffffffffffffffffffffffffff163b119050919050565b5f5f5f90507a184f03e93ff9f4daa797ed6e38ed64bf6a1f0100000000000000008310611d0d577a184f03e93ff9f4daa797ed6e38ed64bf6a1f0100000000000000008381611d0357611d02612f6b565b5b0492506040810190505b6d04ee2d6d415b85acef81000000008310611d4a576d04ee2d6d415b85acef81000000008381611d4057611d3f612f6b565b5b0492506020810190505b662386f26fc100008310611d7957662386f26fc100008381611d6f57611d6e612f6b565b5b0492506010810190505b6305f5e1008310611da2576305f5e1008381611d9857611d97612f6b565b5b0492506008810190505b6127108310611dc7576127108381611dbd57611dbc612f6b565b5b0492506004810190505b60648310611dea5760648381611de057611ddf612f6b565b5b0492506002810190505b600a8310611df9576001810190505b80915050919050565b5f604051905090565b5f5ffd5b5f5ffd5b5f7fffffffff0000000000000000000000000000000000000000000000000000000082169050919050565b611e4781611e13565b8114611e51575f5ffd5b50565b5f81359050611e6281611e3e565b92915050565b5f60208284031215611e7d57611e7c611e0b565b5b5f611e8a84828501611e54565b91505092915050565b5f8115159050919050565b611ea781611e93565b82525050565b5f602082019050611ec05f830184611e9e565b92915050565b5f81519050919050565b5f82825260208201905092915050565b8281835e5f83830152505050565b5f601f19601f8301169050919050565b5f611f0882611ec6565b611f128185611ed0565b9350611f22818560208601611ee0565b611f2b81611eee565b840191505092915050565b5f6020820190508181035f830152611f4e8184611efe565b905092915050565b5f819050919050565b611f6881611f56565b8114611f72575f5ffd5b50565b5f81359050611f8381611f5f565b92915050565b5f60208284031215611f9e57611f9d611e0b565b5b5f611fab84828501611f75565b91505092915050565b5f73ffffffffffffffffffffffffffffffffffffffff82169050919050565b5f611fdd82611fb4565b9050919050565b611fed81611fd3565b82525050565b5f6020820190506120065f830184611fe4565b92915050565b61201581611fd3565b811461201f575f5ffd5b50565b5f813590506120308161200c565b92915050565b5f5f6040838503121561204c5761204b611e0b565b5b5f61205985828601612022565b925050602061206a85828601611f75565b9150509250929050565b5f6020828403121561208957612088611e0b565b5b5f61209684828501612022565b91505092915050565b5f5f5f606084860312156120b6576120b5611e0b565b5b5f6120c386828701612022565b93505060206120d486828701612022565b92505060406120e586828701611f75565b9150509250925092565b5f5ffd5b5f5ffd5b7f4e487b71000000000000000000000000000000000000000000000000000000005f52604160045260245ffd5b61212d82611eee565b810181811067ffffffffffffffff8211171561214c5761214b6120f7565b5b80604052505050565b5f61215e611e02565b905061216a8282612124565b919050565b5f67ffffffffffffffff821115612189576121886120f7565b5b61219282611eee565b9050602081019050919050565b828183375f83830152505050565b5f6121bf6121ba8461216f565b612155565b9050828152602081018484840111156121db576121da6120f3565b5b6121e684828561219f565b509392505050565b5f82601f830112612202576122016120ef565b5b81356122128482602086016121ad565b91505092915050565b5f5f6040838503121561223157612230611e0b565b5b5f61223e85828601612022565b925050602083013567ffffffffffffffff81111561225f5761225e611e0f565b5b61226b858286016121ee565b9150509250929050565b61227e81611f56565b82525050565b5f6020820190506122975f830184612275565b92915050565b6122a681611e93565b81146122b0575f5ffd5b50565b5f813590506122c18161229d565b92915050565b5f5f604083850312156122dd576122dc611e0b565b5b5f6122ea85828601612022565b92505060206122fb858286016122b3565b9150509250929050565b5f67ffffffffffffffff82111561231f5761231e6120f7565b5b61232882611eee565b9050602081019050919050565b5f61234761234284612305565b612155565b905082815260208101848484011115612363576123626120f3565b5b61236e84828561219f565b509392505050565b5f82601f83011261238a576123896120ef565b5b813561239a848260208601612335565b91505092915050565b5f5f5f5f608085870312156123bb576123ba611e0b565b5b5f6123c887828801612022565b94505060206123d987828801612022565b93505060406123ea87828801611f75565b925050606085013567ffffffffffffffff81111561240b5761240a611e0f565b5b61241787828801612376565b91505092959194509250565b5f5f6040838503121561243957612438611e0b565b5b5f61244685828601612022565b925050602061245785828601612022565b9150509250929050565b7f4e487b71000000000000000000000000000000000000000000000000000000005f52602260045260245ffd5b5f60028204905060018216806124a557607f821691505b6020821081036124b8576124b7612461565b5b50919050565b7f4552433732313a20617070726f76616c20746f2063757272656e74206f776e655f8201527f7200000000000000000000000000000000000000000000000000000000000000602082015250565b5f612518602183611ed0565b9150612523826124be565b604082019050919050565b5f6020820190508181035f8301526125458161250c565b9050919050565b7f4552433732313a20617070726f76652063616c6c6572206973206e6f7420746f5f8201527f6b656e206f776e6572206f7220617070726f76656420666f7220616c6c000000602082015250565b5f6125a6603d83611ed0565b91506125b18261254c565b604082019050919050565b5f6020820190508181035f8301526125d38161259a565b9050919050565b7f496e76616c6964206d696e7465722061646472657373000000000000000000005f82015250565b5f61260e601683611ed0565b9150612619826125da565b602082019050919050565b5f6020820190508181035f83015261263b81612602565b9050919050565b7f4552433732313a2063616c6c6572206973206e6f7420746f6b656e206f776e655f8201527f72206f7220617070726f76656400000000000000000000000000000000000000602082015250565b5f61269c602d83611ed0565b91506126a782612642565b604082019050919050565b5f6020820190508181035f8301526126c981612690565b9050919050565b7f4e6f7420617574686f72697a656420746f206d696e74000000000000000000005f82015250565b5f612704601683611ed0565b915061270f826126d0565b602082019050919050565b5f6020820190508181035f830152612731816126f8565b9050919050565b5f819050815f5260205f209050919050565b5f6020601f8301049050919050565b5f82821b905092915050565b5f600883026127947fffffffffffffffffffffffffffffffffffffffffffffffffffffffffffffffff82612759565b61279e8683612759565b95508019841693508086168417925050509392505050565b5f819050919050565b5f6127d96127d46127cf84611f56565b6127b6565b611f56565b9050919050565b5f819050919050565b6127f2836127bf565b6128066127fe826127e0565b848454612765565b825550505050565b5f5f905090565b61281d61280e565b6128288184846127e9565b505050565b5b8181101561284b576128405f82612815565b60018101905061282e565b5050565b601f8211156128905761286181612738565b61286a8461274a565b81016020851015612879578190505b61288d6128858561274a565b83018261282d565b50505b505050565b5f82821c905092915050565b5f6128b05f1984600802612895565b1980831691505092915050565b5f6128c883836128a1565b9150826002028217905092915050565b6128e182611ec6565b67ffffffffffffffff8111156128fa576128f96120f7565b5b612904825461248e565b61290f82828561284f565b5f60209050601f831160018114612940575f841561292e578287015190505b61293885826128bd565b86555061299f565b601f19841661294e86612738565b5f5b8281101561297557848901518255600182019150602085019450602081019050612950565b86831015612992578489015161298e601f8916826128a1565b8355505b6001600288020188555050505b505050505050565b7f4552433732313a20696e76616c696420746f6b656e20494400000000000000005f82015250565b5f6129db601883611ed0565b91506129e6826129a7565b602082019050919050565b5f6020820190508181035f830152612a08816129cf565b9050919050565b7f4552433732313a2061646472657373207a65726f206973206e6f7420612076615f8201527f6c6964206f776e65720000000000000000000000000000000000000000000000602082015250565b5f612a69602983611ed0565b9150612a7482612a0f565b604082019050919050565b5f6020820190508181035f830152612a9681612a5d565b9050919050565b5f81905092915050565b5f612ab182611ec6565b612abb8185612a9d565b9350612acb818560208601611ee0565b80840191505092915050565b5f612ae28285612aa7565b9150612aee8284612aa7565b91508190509392505050565b7f4f776e61626c653a206e6577206f776e657220697320746865207a65726f20615f8201527f6464726573730000000000000000000000000000000000000000000000000000602082015250565b5f612b54602683611ed0565b9150612b5f82612afa565b604082019050919050565b5f6020820190508181035f830152612b8181612b48565b9050919050565b7f4f776e61626c653a2063616c6c6572206973206e6f7420746865206f776e65725f82015250565b5f612bbc602083611ed0565b9150612bc782612b88565b602082019050919050565b5f6020820190508181035f830152612be981612bb0565b9050919050565b7f4552433732313a207472616e736665722066726f6d20696e636f7272656374205f8201527f6f776e6572000000000000000000000000000000000000000000000000000000602082015250565b5f612c4a602583611ed0565b9150612c5582612bf0565b604082019050919050565b5f6020820190508181035f830152612c7781612c3e565b9050919050565b7f4552433732313a207472616e7366657220746f20746865207a65726f206164645f8201527f7265737300000000000000000000000000000000000000000000000000000000602082015250565b5f612cd8602483611ed0565b9150612ce382612c7e565b604082019050919050565b5f6020820190508181035f830152612d0581612ccc565b9050919050565b7f45524337323155524953746f726167653a2055524920736574206f66206e6f6e5f8201527f6578697374656e7420746f6b656e000000000000000000000000000000000000602082015250565b5f612d66602e83611ed0565b9150612d7182612d0c565b604082019050919050565b5f6020820190508181035f830152612d9381612d5a565b9050919050565b7f4552433732313a20617070726f766520746f2063616c6c6572000000000000005f82015250565b5f612dce601983611ed0565b9150612dd982612d9a565b602082019050919050565b5f6020820190508181035f830152612dfb81612dc2565b9050919050565b7f4552433732313a207472616e7366657220746f206e6f6e2045524337323152655f8201527f63656976657220696d706c656d656e7465720000000000000000000000000000602082015250565b5f612e5c603283611ed0565b9150612e6782612e02565b604082019050919050565b5f6020820190508181035f830152612e8981612e50565b9050919050565b5f81519050919050565b5f82825260208201905092915050565b5f612eb482612e90565b612ebe8185612e9a565b9350612ece818560208601611ee0565b612ed781611eee565b840191505092915050565b5f608082019050612ef55f830187611fe4565b612f026020830186611fe4565b612f0f6040830185612275565b8181036060830152612f218184612eaa565b905095945050505050565b5f81519050612f3a81611e3e565b92915050565b5f60208284031215612f5557612f54611e0b565b5b5f612f6284828501612f2c565b91505092915050565b7f4e487b71000000000000000000000000000000000000000000000000000000005f52601260045260245ffd5b7f4552433732313a206d696e7420746f20746865207a65726f20616464726573735f82015250565b5f612fcc602083611ed0565b9150612fd782612f98565b602082019050919050565b5f6020820190508181035f830152612ff981612fc0565b9050919050565b7f4552433732313a20746f6b656e20616c7265616479206d696e746564000000005f82015250565b5f613034601c83611ed0565b915061303f82613000565b602082019050919050565b5f6020820190508181035f83015261306181613028565b905091905056fea2646970667358221220267dc7a2096b0ace7cc44ffdc2aac541ee5478e0ee2c167e6e59e03d2557cd3364736f6c634300081c0033","linkReferences":{}},"methodIdentifiers":{"approve(address,uint256)":"095ea7b3","authorizeMinter(address)":"0c984832","balanceOf(address)":"70a08231","getApproved(uint256)":"081812fc","getTokenURI(uint256)":"3bb3a24d","isApprovedForAll(address,address)":"e985e9c5","mintTicket(address,string)":"5388842c","name()":"06fdde03","owner()":"8da5cb5b","ownerOf(uint256)":"6352211e","renounceOwnership()":"715018a6","safeTransferFrom(address,address,uint256)":"42842e0e","safeTransferFrom(address,address,uint256,bytes)":"b88d4fde","setApprovalForAll(address,bool)":"a22cb465","supportsInterface(bytes4)":"01ffc9a7","symbol()":"95d89b41","tokenURI(uint256)":"c87b56dd","transferFrom(address,address,uint256)":"23b872dd","transferOwnership(address)":"f2fde38b"},"id":1}