{
  "contracts/Web3BrideAccess.sol": {
    "Web3BridgeAccess": {
      "abi": [
        {
          "inputs": [
            {
              "internalType": "address",
              "name": "_employeeAddress",
              "type": "address"
            },
            {
              "internalType": "string",
              "name": "_name",
              "type": "string"
            },
            {
              "internalType": "enum Web3BridgeAccess.EmployeeRole",
              "name": "_role",
              "type": "uint8"
            },
            {
              "internalType": "bool",
              "name": "_isEmployed",
              "type": "bool"
            }
          ],
          "name": "addEmployee",
          "outputs": [],
          "stateMutability": "nonpayable",
          "type": "function"
        },
        {
          "inputs": [
            {
              "internalType": "uint256",
              "name": "",
              "type": "uint256"
            }
          ],
          "name": "all_employees",
          "outputs": [
            {
              "internalType": "string",
              "name": "name",
              "type": "string"
            },
            {
              "internalType": "enum Web3BridgeAccess.EmployeeRole",
              "name": "role",
              "type": "uint8"
            },
            {
              "internalType": "bool",
              "name": "isEmployed",
              "type": "bool"
            }
          ],
          "stateMutability": "view",
          "type": "function"
        },
        {
          "inputs": [
            {
              "internalType": "address",
              "name": "_employeeAddress",
              "type": "address"
            }
          ],
          "name": "canAccessGarage",
          "outputs": [
            {
              "internalType": "bool",
              "name": "",
              "type": "bool"
            }
          ],
          "stateMutability": "view",
          "type": "function"
        },
        {
          "inputs": [
            {
              "internalType": "address",
              "name": "",
              "type": "address"
            }
          ],
          "name": "employees",
          "outputs": [
            {
              "internalType": "string",
              "name": "name",
              "type": "string"
            },
            {
              "internalType": "enum Web3BridgeAccess.EmployeeRole",
              "name": "role",
              "type": "uint8"
            },
            {
              "internalType": "bool",
              "name": "isEmployed",
              "type": "bool"
            }
          ],
          "stateMutability": "view",
          "type": "function"
        },
        {
          "inputs": [],
          "name": "getAllEmployees",
          "outputs": [
            {
              "components": [
                {
                  "internalType": "string",
                  "name": "name",
                  "type": "string"
                },
                {
                  "internalType": "enum Web3BridgeAccess.EmployeeRole",
                  "name": "role",
                  "type": "uint8"
                },
                {
                  "internalType": "bool",
                  "name": "isEmployed",
                  "type": "bool"
                }
              ],
              "internalType": "struct Web3BridgeAccess.Employee[]",
              "name": "",
              "type": "tuple[]"
            }
          ],
          "stateMutability": "view",
          "type": "function"
        },
        {
          "inputs": [
            {
              "internalType": "address",
              "name": "_employeeAddress",
              "type": "address"
            }
          ],
          "name": "getEmployeeDetails",
          "outputs": [
            {
              "components": [
                {
                  "internalType": "string",
                  "name": "name",
                  "type": "string"
                },
                {
                  "internalType": "enum Web3BridgeAccess.EmployeeRole",
                  "name": "role",
                  "type": "uint8"
                },
                {
                  "internalType": "bool",
                  "name": "isEmployed",
                  "type": "bool"
                }
              ],
              "internalType": "struct Web3BridgeAccess.Employee",
              "name": "",
              "type": "tuple"
            }
          ],
          "stateMutability": "view",
          "type": "function"
        },
        {
          "inputs": [
            {
              "internalType": "address",
              "name": "_employeeAddress",
              "type": "address"
            },
            {
              "internalType": "string",
              "name": "_name",
              "type": "string"
            },
            {
              "internalType": "enum Web3BridgeAccess.EmployeeRole",
              "name": "_role",
              "type": "uint8"
            },
            {
              "internalType": "bool",
              "name": "_isEmployed",
              "type": "bool"
            }
          ],
          "name": "updateEmployee",
          "outputs": [],
          "stateMutability": "nonpayable",
          "type": "function"
        }
      ],
      "evm": {
        "bytecode": {
          "linkReferences": {},
          "object": "6080604052348015600f57600080fd5b506114d98061001f6000396000f3fe608060405234801561001057600080fd5b506004361061007d5760003560e01c8063b24e34c81161005b578063b24e34c8146100ea578063bbb31e761461011a578063d06789471461014c578063e3366fed1461017e5761007d565b80631caafcf11461008257806335b79557146100b25780639a3416ed146100ce575b600080fd5b61009c60048036038101906100979190610ba3565b61019c565b6040516100a99190610d42565b60405180910390f35b6100cc60048036038101906100c79190610eea565b6102dc565b005b6100e860048036038101906100e39190610eea565b61047a565b005b61010460048036038101906100ff9190610ba3565b610618565b6040516101119190610f7c565b60405180910390f35b610134600480360381019061012f9190610fcd565b61080d565b60405161014393929190611053565b60405180910390f35b61016660048036038101906101619190610ba3565b6108e9565b60405161017593929190611053565b60405180910390f35b6101866109b5565b60405161019391906111a3565b60405180910390f35b6101a4610afc565b6000808373ffffffffffffffffffffffffffffffffffffffff1673ffffffffffffffffffffffffffffffffffffffff1681526020019081526020016000206040518060600160405290816000820180546101fd906111f4565b80601f0160208091040260200160405190810160405280929190818152602001828054610229906111f4565b80156102765780601f1061024b57610100808354040283529160200191610276565b820191906000526020600020905b81548152906001019060200180831161025957829003601f168201915b505050505081526020016001820160009054906101000a900460ff1660058111156102a4576102a3610c60565b5b60058111156102b6576102b5610c60565b5b81526020016001820160019054906101000a900460ff1615151515815250509050919050565b6040518060600160405280848152602001836005811115610300576102ff610c60565b5b81526020018215158152506000808673ffffffffffffffffffffffffffffffffffffffff1673ffffffffffffffffffffffffffffffffffffffff168152602001908152602001600020600082015181600001908161035e91906113d1565b5060208201518160010160006101000a81548160ff0219169083600581111561038a57610389610c60565b5b021790555060408201518160010160016101000a81548160ff021916908315150217905550905050600160405180606001604052808581526020018460058111156103d8576103d7610c60565b5b81526020018315158152509080600181540180825580915050600190039060005260206000209060020201600090919091909150600082015181600001908161042191906113d1565b5060208201518160010160006101000a81548160ff0219169083600581111561044d5761044c610c60565b5b021790555060408201518160010160016101000a81548160ff021916908315150217905550505050505050565b604051806060016040528084815260200183600581111561049e5761049d610c60565b5b81526020018215158152506000808673ffffffffffffffffffffffffffffffffffffffff1673ffffffffffffffffffffffffffffffffffffffff16815260200190815260200160002060008201518160000190816104fc91906113d1565b5060208201518160010160006101000a81548160ff0219169083600581111561052857610527610c60565b5b021790555060408201518160010160016101000a81548160ff0219169083151502179055509050506001604051806060016040528085815260200184600581111561057657610575610c60565b5b8152602001831515815250908060018154018082558091505060019003906000526020600020906002020160009091909190915060008201518160000190816105bf91906113d1565b5060208201518160010160006101000a81548160ff021916908360058111156105eb576105ea610c60565b5b021790555060408201518160010160016101000a81548160ff021916908315150217905550505050505050565b6000806000808473ffffffffffffffffffffffffffffffffffffffff1673ffffffffffffffffffffffffffffffffffffffff168152602001908152602001600020604051806060016040529081600082018054610674906111f4565b80601f01602080910402602001604051908101604052809291908181526020018280546106a0906111f4565b80156106ed5780601f106106c2576101008083540402835291602001916106ed565b820191906000526020600020905b8154815290600101906020018083116106d057829003601f168201915b505050505081526020016001820160009054906101000a900460ff16600581111561071b5761071a610c60565b5b600581111561072d5761072c610c60565b5b81526020016001820160019054906101000a900460ff16151515158152505090508060400151610761576000915050610808565b6000600581111561077557610774610c60565b5b8160200151600581111561078c5761078b610c60565b5b14806107c05750600160058111156107a7576107a6610c60565b5b816020015160058111156107be576107bd610c60565b5b145b806107f35750600260058111156107da576107d9610c60565b5b816020015160058111156107f1576107f0610c60565b5b145b15610802576001915050610808565b60009150505b919050565b6001818154811061081d57600080fd5b9060005260206000209060020201600091509050806000018054610840906111f4565b80601f016020809104026020016040519081016040528092919081815260200182805461086c906111f4565b80156108b95780601f1061088e576101008083540402835291602001916108b9565b820191906000526020600020905b81548152906001019060200180831161089c57829003601f168201915b5050505050908060010160009054906101000a900460ff16908060010160019054906101000a900460ff16905083565b600060205280600052604060002060009150905080600001805461090c906111f4565b80601f0160208091040260200160405190810160405280929190818152602001828054610938906111f4565b80156109855780601f1061095a57610100808354040283529160200191610985565b820191906000526020600020905b81548152906001019060200180831161096857829003601f168201915b5050505050908060010160009054906101000a900460ff16908060010160019054906101000a900460ff16905083565b60606001805480602002602001604051908101604052809291908181526020016000905b82821015610af35783829060005260206000209060020201604051806060016040529081600082018054610a0c906111f4565b80601f0160208091040260200160405190810160405280929190818152602001828054610a38906111f4565b8015610a855780601f10610a5a57610100808354040283529160200191610a85565b820191906000526020600020905b815481529060010190602001808311610a6857829003601f168201915b505050505081526020016001820160009054906101000a900460ff166005811115610ab357610ab2610c60565b5b6005811115610ac557610ac4610c60565b5b81526020016001820160019054906101000a900460ff161515151581525050815260200190600101906109d9565b50505050905090565b60405180606001604052806060815260200160006005811115610b2257610b21610c60565b5b81526020016000151581525090565b6000604051905090565b600080fd5b600080fd5b600073ffffffffffffffffffffffffffffffffffffffff82169050919050565b6000610b7082610b45565b9050919050565b610b8081610b65565b8114610b8b57600080fd5b50565b600081359050610b9d81610b77565b92915050565b600060208284031215610bb957610bb8610b3b565b5b6000610bc784828501610b8e565b91505092915050565b600081519050919050565b600082825260208201905092915050565b60005b83811015610c0a578082015181840152602081019050610bef565b60008484015250505050565b6000601f19601f8301169050919050565b6000610c3282610bd0565b610c3c8185610bdb565b9350610c4c818560208601610bec565b610c5581610c16565b840191505092915050565b7f4e487b7100000000000000000000000000000000000000000000000000000000600052602160045260246000fd5b60068110610ca057610c9f610c60565b5b50565b6000819050610cb182610c8f565b919050565b6000610cc182610ca3565b9050919050565b610cd181610cb6565b82525050565b60008115159050919050565b610cec81610cd7565b82525050565b60006060830160008301518482036000860152610d0f8282610c27565b9150506020830151610d246020860182610cc8565b506040830151610d376040860182610ce3565b508091505092915050565b60006020820190508181036000830152610d5c8184610cf2565b905092915050565b600080fd5b600080fd5b7f4e487b7100000000000000000000000000000000000000000000000000000000600052604160045260246000fd5b610da682610c16565b810181811067ffffffffffffffff82111715610dc557610dc4610d6e565b5b80604052505050565b6000610dd8610b31565b9050610de48282610d9d565b919050565b600067ffffffffffffffff821115610e0457610e03610d6e565b5b610e0d82610c16565b9050602081019050919050565b82818337600083830152505050565b6000610e3c610e3784610de9565b610dce565b905082815260208101848484011115610e5857610e57610d69565b5b610e63848285610e1a565b509392505050565b600082601f830112610e8057610e7f610d64565b5b8135610e90848260208601610e29565b91505092915050565b60068110610ea657600080fd5b50565b600081359050610eb881610e99565b92915050565b610ec781610cd7565b8114610ed257600080fd5b50565b600081359050610ee481610ebe565b92915050565b60008060008060808587031215610f0457610f03610b3b565b5b6000610f1287828801610b8e565b945050602085013567ffffffffffffffff811115610f3357610f32610b40565b5b610f3f87828801610e6b565b9350506040610f5087828801610ea9565b9250506060610f6187828801610ed5565b91505092959194509250565b610f7681610cd7565b82525050565b6000602082019050610f916000830184610f6d565b92915050565b6000819050919050565b610faa81610f97565b8114610fb557600080fd5b50565b600081359050610fc781610fa1565b92915050565b600060208284031215610fe357610fe2610b3b565b5b6000610ff184828501610fb8565b91505092915050565b600082825260208201905092915050565b600061101682610bd0565b6110208185610ffa565b9350611030818560208601610bec565b61103981610c16565b840191505092915050565b61104d81610cb6565b82525050565b6000606082019050818103600083015261106d818661100b565b905061107c6020830185611044565b6110896040830184610f6d565b949350505050565b600081519050919050565b600082825260208201905092915050565b6000819050602082019050919050565b600060608301600083015184820360008601526110da8282610c27565b91505060208301516110ef6020860182610cc8565b5060408301516111026040860182610ce3565b508091505092915050565b600061111983836110bd565b905092915050565b6000602082019050919050565b600061113982611091565b611143818561109c565b935083602082028501611155856110ad565b8060005b858110156111915784840389528151611172858261110d565b945061117d83611121565b925060208a01995050600181019050611159565b50829750879550505050505092915050565b600060208201905081810360008301526111bd818461112e565b905092915050565b7f4e487b7100000000000000000000000000000000000000000000000000000000600052602260045260246000fd5b6000600282049050600182168061120c57607f821691505b60208210810361121f5761121e6111c5565b5b50919050565b60008190508160005260206000209050919050565b60006020601f8301049050919050565b600082821b905092915050565b6000600883026112877fffffffffffffffffffffffffffffffffffffffffffffffffffffffffffffffff8261124a565b611291868361124a565b95508019841693508086168417925050509392505050565b6000819050919050565b60006112ce6112c96112c484610f97565b6112a9565b610f97565b9050919050565b6000819050919050565b6112e8836112b3565b6112fc6112f4826112d5565b848454611257565b825550505050565b600090565b611311611304565b61131c8184846112df565b505050565b5b8181101561134057611335600082611309565b600181019050611322565b5050565b601f8211156113855761135681611225565b61135f8461123a565b8101602085101561136e578190505b61138261137a8561123a565b830182611321565b50505b505050565b600082821c905092915050565b60006113a86000198460080261138a565b1980831691505092915050565b60006113c18383611397565b9150826002028217905092915050565b6113da82610bd0565b67ffffffffffffffff8111156113f3576113f2610d6e565b5b6113fd82546111f4565b611408828285611344565b600060209050601f83116001811461143b5760008415611429578287015190505b61143385826113b5565b86555061149b565b601f19841661144986611225565b60005b828110156114715784890151825560018201915060208501945060208101905061144c565b8683101561148e578489015161148a601f891682611397565b8355505b6001600288020188555050505b50505050505056fea264697066735822122094fadb87653ded1c6d18f8e9fc015bfcf0596d890686e4256e455cbc87d1de9b64736f6c634300081c0033",
          "opcodes": "PUSH1 0x80 PUSH1 0x40 MSTORE CALLVALUE DUP1 ISZERO PUSH1 0xF JUMPI PUSH1 0x0 DUP1 REVERT JUMPDEST POP PUSH2 0x14D9 DUP1 PUSH2 0x1F PUSH1 0x0 CODECOPY PUSH1 0x0 RETURN INVALID PUSH1 0x80 PUSH1 0x40 MSTORE CALLVALUE DUP1 ISZERO PUSH2 0x10 JUMPI PUSH1 0x0 DUP1 REVERT JUMPDEST POP PUSH1 0x4 CALLDATASIZE LT PUSH2 0x7D JUMPI PUSH1 0x0 CALLDATALOAD PUSH1 0xE0 SHR DUP1 PUSH4 0xB24E34C8 GT PUSH2 0x5B JUMPI DUP1 PUSH4 0xB24E34C8 EQ PUSH2 0xEA JUMPI DUP1 PUSH4 0xBBB31E76 EQ PUSH2 0x11A JUMPI DUP1 PUSH4 0xD0678947 EQ PUSH2 0x14C JUMPI DUP1 PUSH4 0xE3366FED EQ PUSH2 0x17E JUMPI PUSH2 0x7D JUMP JUMPDEST DUP1 PUSH4 0x1CAAFCF1 EQ PUSH2 0x82 JUMPI DUP1 PUSH4 0x35B79557 EQ PUSH2 0xB2 JUMPI DUP1 PUSH4 0x9A3416ED EQ PUSH2 0xCE JUMPI JUMPDEST PUSH1 0x0 DUP1 REVERT JUMPDEST PUSH2 0x9C PUSH1 0x4 DUP1 CALLDATASIZE SUB DUP2 ADD SWAP1 PUSH2 0x97 SWAP2 SWAP1 PUSH2 0xBA3 JUMP JUMPDEST PUSH2 0x19C JUMP JUMPDEST PUSH1 0x40 MLOAD PUSH2 0xA9 SWAP2 SWAP1 PUSH2 0xD42 JUMP JUMPDEST PUSH1 0x40 MLOAD DUP1 SWAP2 SUB SWAP1 RETURN JUMPDEST PUSH2 0xCC PUSH1 0x4 DUP1 CALLDATASIZE SUB DUP2 ADD SWAP1 PUSH2 0xC7 SWAP2 SWAP1 PUSH2 0xEEA JUMP JUMPDEST PUSH2 0x2DC JUMP JUMPDEST STOP JUMPDEST PUSH2 0xE8 PUSH1 0x4 DUP1 CALLDATASIZE SUB DUP2 ADD SWAP1 PUSH2 0xE3 SWAP2 SWAP1 PUSH2 0xEEA JUMP JUMPDEST PUSH2 0x47A JUMP JUMPDEST STOP JUMPDEST PUSH2 0x104 PUSH1 0x4 DUP1 CALLDATASIZE SUB DUP2 ADD SWAP1 PUSH2 0xFF SWAP2 SWAP1 PUSH2 0xBA3 JUMP JUMPDEST PUSH2 0x618 JUMP JUMPDEST PUSH1 0x40 MLOAD PUSH2 0x111 SWAP2 SWAP1 PUSH2 0xF7C JUMP JUMPDEST PUSH1 0x40 MLOAD DUP1 SWAP2 SUB SWAP1 RETURN JUMPDEST PUSH2 0x134 PUSH1 0x4 DUP1 CALLDATASIZE SUB DUP2 ADD SWAP1 PUSH2 0x12F SWAP2 SWAP1 PUSH2 0xFCD JUMP JUMPDEST PUSH2 0x80D JUMP JUMPDEST PUSH1 0x40 MLOAD PUSH2 0x143 SWAP4 SWAP3 SWAP2 SWAP1 PUSH2 0x1053 JUMP JUMPDEST PUSH1 0x40 MLOAD DUP1 SWAP2 SUB SWAP1 RETURN JUMPDEST PUSH2 0x166 PUSH1 0x4 DUP1 CALLDATASIZE SUB DUP2 ADD SWAP1 PUSH2 0x161 SWAP2 SWAP1 PUSH2 0xBA3 JUMP JUMPDEST PUSH2 0x8E9 JUMP JUMPDEST PUSH1 0x40 MLOAD PUSH2 0x175 SWAP4 SWAP3 SWAP2 SWAP1 PUSH2 0x1053 JUMP JUMPDEST PUSH1 0x40 MLOAD DUP1 SWAP2 SUB SWAP1 RETURN JUMPDEST PUSH2 0x186 PUSH2 0x9B5 JUMP JUMPDEST PUSH1 0x40 MLOAD PUSH2 0x193 SWAP2 SWAP1 PUSH2 0x11A3 JUMP JUMPDEST PUSH1 0x40 MLOAD DUP1 SWAP2 SUB SWAP1 RETURN JUMPDEST PUSH2 0x1A4 PUSH2 0xAFC JUMP JUMPDEST PUSH1 0x0 DUP1 DUP4 PUSH20 0xFFFFFFFFFFFFFFFFFFFFFFFFFFFFFFFFFFFFFFFF AND PUSH20 0xFFFFFFFFFFFFFFFFFFFFFFFFFFFFFFFFFFFFFFFF AND DUP2 MSTORE PUSH1 0x20 ADD SWAP1 DUP2 MSTORE PUSH1 0x20 ADD PUSH1 0x0 KECCAK256 PUSH1 0x40 MLOAD DUP1 PUSH1 0x60 ADD PUSH1 0x40 MSTORE SWAP1 DUP2 PUSH1 0x0 DUP3 ADD DUP1 SLOAD PUSH2 0x1FD SWAP1 PUSH2 0x11F4 JUMP JUMPDEST DUP1 PUSH1 0x1F ADD PUSH1 0x20 DUP1 SWAP2 DIV MUL PUSH1 0x20 ADD PUSH1 0x40 MLOAD SWAP1 DUP2 ADD PUSH1 0x40 MSTORE DUP1 SWAP3 SWAP2 SWAP1 DUP2 DUP2 MSTORE PUSH1 0x20 ADD DUP3 DUP1 SLOAD PUSH2 0x229 SWAP1 PUSH2 0x11F4 JUMP JUMPDEST DUP1 ISZERO PUSH2 0x276 JUMPI DUP1 PUSH1 0x1F LT PUSH2 0x24B JUMPI PUSH2 0x100 DUP1 DUP4 SLOAD DIV MUL DUP4 MSTORE SWAP2 PUSH1 0x20 ADD SWAP2 PUSH2 0x276 JUMP JUMPDEST DUP3 ADD SWAP2 SWAP1 PUSH1 0x0 MSTORE PUSH1 0x20 PUSH1 0x0 KECCAK256 SWAP1 JUMPDEST DUP2 SLOAD DUP2 MSTORE SWAP1 PUSH1 0x1 ADD SWAP1 PUSH1 0x20 ADD DUP1 DUP4 GT PUSH2 0x259 JUMPI DUP3 SWAP1 SUB PUSH1 0x1F AND DUP3 ADD SWAP2 JUMPDEST POP POP POP POP POP DUP2 MSTORE PUSH1 0x20 ADD PUSH1 0x1 DUP3 ADD PUSH1 0x0 SWAP1 SLOAD SWAP1 PUSH2 0x100 EXP SWAP1 DIV PUSH1 0xFF AND PUSH1 0x5 DUP2 GT ISZERO PUSH2 0x2A4 JUMPI PUSH2 0x2A3 PUSH2 0xC60 JUMP JUMPDEST JUMPDEST PUSH1 0x5 DUP2 GT ISZERO PUSH2 0x2B6 JUMPI PUSH2 0x2B5 PUSH2 0xC60 JUMP JUMPDEST JUMPDEST DUP2 MSTORE PUSH1 0x20 ADD PUSH1 0x1 DUP3 ADD PUSH1 0x1 SWAP1 SLOAD SWAP1 PUSH2 0x100 EXP SWAP1 DIV PUSH1 0xFF AND ISZERO ISZERO ISZERO ISZERO DUP2 MSTORE POP POP SWAP1 POP SWAP2 SWAP1 POP JUMP JUMPDEST PUSH1 0x40 MLOAD DUP1 PUSH1 0x60 ADD PUSH1 0x40 MSTORE DUP1 DUP5 DUP2 MSTORE PUSH1 0x20 ADD DUP4 PUSH1 0x5 DUP2 GT ISZERO PUSH2 0x300 JUMPI PUSH2 0x2FF PUSH2 0xC60 JUMP JUMPDEST JUMPDEST DUP2 MSTORE PUSH1 0x20 ADD DUP3 ISZERO ISZERO DUP2 MSTORE POP PUSH1 0x0 DUP1 DUP7 PUSH20 0xFFFFFFFFFFFFFFFFFFFFFFFFFFFFFFFFFFFFFFFF AND PUSH20 0xFFFFFFFFFFFFFFFFFFFFFFFFFFFFFFFFFFFFFFFF AND DUP2 MSTORE PUSH1 0x20 ADD SWAP1 DUP2 MSTORE PUSH1 0x20 ADD PUSH1 0x0 KECCAK256 PUSH1 0x0 DUP3 ADD MLOAD DUP2 PUSH1 0x0 ADD SWAP1 DUP2 PUSH2 0x35E SWAP2 SWAP1 PUSH2 0x13D1 JUMP JUMPDEST POP PUSH1 0x20 DUP3 ADD MLOAD DUP2 PUSH1 0x1 ADD PUSH1 0x0 PUSH2 0x100 EXP DUP2 SLOAD DUP2 PUSH1 0xFF MUL NOT AND SWAP1 DUP4 PUSH1 0x5 DUP2 GT ISZERO PUSH2 0x38A JUMPI PUSH2 0x389 PUSH2 0xC60 JUMP JUMPDEST JUMPDEST MUL OR SWAP1 SSTORE POP PUSH1 0x40 DUP3 ADD MLOAD DUP2 PUSH1 0x1 ADD PUSH1 0x1 PUSH2 0x100 EXP DUP2 SLOAD DUP2 PUSH1 0xFF MUL NOT AND SWAP1 DUP4 ISZERO ISZERO MUL OR SWAP1 SSTORE POP SWAP1 POP POP PUSH1 0x1 PUSH1 0x40 MLOAD DUP1 PUSH1 0x60 ADD PUSH1 0x40 MSTORE DUP1 DUP6 DUP2 MSTORE PUSH1 0x20 ADD DUP5 PUSH1 0x5 DUP2 GT ISZERO PUSH2 0x3D8 JUMPI PUSH2 0x3D7 PUSH2 0xC60 JUMP JUMPDEST JUMPDEST DUP2 MSTORE PUSH1 0x20 ADD DUP4 ISZERO ISZERO DUP2 MSTORE POP SWAP1 DUP1 PUSH1 0x1 DUP2 SLOAD ADD DUP1 DUP3 SSTORE DUP1 SWAP2 POP POP PUSH1 0x1 SWAP1 SUB SWAP1 PUSH1 0x0 MSTORE PUSH1 0x20 PUSH1 0x0 KECCAK256 SWAP1 PUSH1 0x2 MUL ADD PUSH1 0x0 SWAP1 SWAP2 SWAP1 SWAP2 SWAP1 SWAP2 POP PUSH1 0x0 DUP3 ADD MLOAD DUP2 PUSH1 0x0 ADD SWAP1 DUP2 PUSH2 0x421 SWAP2 SWAP1 PUSH2 0x13D1 JUMP JUMPDEST POP PUSH1 0x20 DUP3 ADD MLOAD DUP2 PUSH1 0x1 ADD PUSH1 0x0 PUSH2 0x100 EXP DUP2 SLOAD DUP2 PUSH1 0xFF MUL NOT AND SWAP1 DUP4 PUSH1 0x5 DUP2 GT ISZERO PUSH2 0x44D JUMPI PUSH2 0x44C PUSH2 0xC60 JUMP JUMPDEST JUMPDEST MUL OR SWAP1 SSTORE POP PUSH1 0x40 DUP3 ADD MLOAD DUP2 PUSH1 0x1 ADD PUSH1 0x1 PUSH2 0x100 EXP DUP2 SLOAD DUP2 PUSH1 0xFF MUL NOT AND SWAP1 DUP4 ISZERO ISZERO MUL OR SWAP1 SSTORE POP POP POP POP POP POP POP JUMP JUMPDEST PUSH1 0x40 MLOAD DUP1 PUSH1 0x60 ADD PUSH1 0x40 MSTORE DUP1 DUP5 DUP2 MSTORE PUSH1 0x20 ADD DUP4 PUSH1 0x5 DUP2 GT ISZERO PUSH2 0x49E JUMPI PUSH2 0x49D PUSH2 0xC60 JUMP JUMPDEST JUMPDEST DUP2 MSTORE PUSH1 0x20 ADD DUP3 ISZERO ISZERO DUP2 MSTORE POP PUSH1 0x0 DUP1 DUP7 PUSH20 0xFFFFFFFFFFFFFFFFFFFFFFFFFFFFFFFFFFFFFFFF AND PUSH20 0xFFFFFFFFFFFFFFFFFFFFFFFFFFFFFFFFFFFFFFFF AND DUP2 MSTORE PUSH1 0x20 ADD SWAP1 DUP2 MSTORE PUSH1 0x20 ADD PUSH1 0x0 KECCAK256 PUSH1 0x0 DUP3 ADD MLOAD DUP2 PUSH1 0x0 ADD SWAP1 DUP2 PUSH2 0x4FC SWAP2 SWAP1 PUSH2 0x13D1 JUMP JUMPDEST POP PUSH1 0x20 DUP3 ADD MLOAD DUP2 PUSH1 0x1 ADD PUSH1 0x0 PUSH2 0x100 EXP DUP2 SLOAD DUP2 PUSH1 0xFF MUL NOT AND SWAP1 DUP4 PUSH1 0x5 DUP2 GT ISZERO PUSH2 0x528 JUMPI PUSH2 0x527 PUSH2 0xC60 JUMP JUMPDEST JUMPDEST MUL OR SWAP1 SSTORE POP PUSH1 0x40 DUP3 ADD MLOAD DUP2 PUSH1 0x1 ADD PUSH1 0x1 PUSH2 0x100 EXP DUP2 SLOAD DUP2 PUSH1 0xFF MUL NOT AND SWAP1 DUP4 ISZERO ISZERO MUL OR SWAP1 SSTORE POP SWAP1 POP POP PUSH1 0x1 PUSH1 0x40 MLOAD DUP1 PUSH1 0x60 ADD PUSH1 0x40 MSTORE DUP1 DUP6 DUP2 MSTORE PUSH1 0x20 ADD DUP5 PUSH1 0x5 DUP2 GT ISZERO PUSH2 0x576 JUMPI PUSH2 0x575 PUSH2 0xC60 JUMP JUMPDEST JUMPDEST DUP2 MSTORE PUSH1 0x20 ADD DUP4 ISZERO ISZERO DUP2 MSTORE POP SWAP1 DUP1 PUSH1 0x1 DUP2 SLOAD ADD DUP1 DUP3 SSTORE DUP1 SWAP2 POP POP PUSH1 0x1 SWAP1 SUB SWAP1 PUSH1 0x0 MSTORE PUSH1 0x20 PUSH1 0x0 KECCAK256 SWAP1 PUSH1 0x2 MUL ADD PUSH1 0x0 SWAP1 SWAP2 SWAP1 SWAP2 SWAP1 SWAP2 POP PUSH1 0x0 DUP3 ADD MLOAD DUP2 PUSH1 0x0 ADD SWAP1 DUP2 PUSH2 0x5BF SWAP2 SWAP1 PUSH2 0x13D1 JUMP JUMPDEST POP PUSH1 0x20 DUP3 ADD MLOAD DUP2 PUSH1 0x1 ADD PUSH1 0x0 PUSH2 0x100 EXP DUP2 SLOAD DUP2 PUSH1 0xFF MUL NOT AND SWAP1 DUP4 PUSH1 0x5 DUP2 GT ISZERO PUSH2 0x5EB JUMPI PUSH2 0x5EA PUSH2 0xC60 JUMP JUMPDEST JUMPDEST MUL OR SWAP1 SSTORE POP PUSH1 0x40 DUP3 ADD MLOAD DUP2 PUSH1 0x1 ADD PUSH1 0x1 PUSH2 0x100 EXP DUP2 SLOAD DUP2 PUSH1 0xFF MUL NOT AND SWAP1 DUP4 ISZERO ISZERO MUL OR SWAP1 SSTORE POP POP POP POP POP POP POP JUMP JUMPDEST PUSH1 0x0 DUP1 PUSH1 0x0 DUP1 DUP5 PUSH20 0xFFFFFFFFFFFFFFFFFFFFFFFFFFFFFFFFFFFFFFFF AND PUSH20 0xFFFFFFFFFFFFFFFFFFFFFFFFFFFFFFFFFFFFFFFF AND DUP2 MSTORE PUSH1 0x20 ADD SWAP1 DUP2 MSTORE PUSH1 0x20 ADD PUSH1 0x0 KECCAK256 PUSH1 0x40 MLOAD DUP1 PUSH1 0x60 ADD PUSH1 0x40 MSTORE SWAP1 DUP2 PUSH1 0x0 DUP3 ADD DUP1 SLOAD PUSH2 0x674 SWAP1 PUSH2 0x11F4 JUMP JUMPDEST DUP1 PUSH1 0x1F ADD PUSH1 0x20 DUP1 SWAP2 DIV MUL PUSH1 0x20 ADD PUSH1 0x40 MLOAD SWAP1 DUP2 ADD PUSH1 0x40 MSTORE DUP1 SWAP3 SWAP2 SWAP1 DUP2 DUP2 MSTORE PUSH1 0x20 ADD DUP3 DUP1 SLOAD PUSH2 0x6A0 SWAP1 PUSH2 0x11F4 JUMP JUMPDEST DUP1 ISZERO PUSH2 0x6ED JUMPI DUP1 PUSH1 0x1F LT PUSH2 0x6C2 JUMPI PUSH2 0x100 DUP1 DUP4 SLOAD DIV MUL DUP4 MSTORE SWAP2 PUSH1 0x20 ADD SWAP2 PUSH2 0x6ED JUMP JUMPDEST DUP3 ADD SWAP2 SWAP1 PUSH1 0x0 MSTORE PUSH1 0x20 PUSH1 0x0 KECCAK256 SWAP1 JUMPDEST DUP2 SLOAD DUP2 MSTORE SWAP1 PUSH1 0x1 ADD SWAP1 PUSH1 0x20 ADD DUP1 DUP4 GT PUSH2 0x6D0 JUMPI DUP3 SWAP1 SUB PUSH1 0x1F AND DUP3 ADD SWAP2 JUMPDEST POP POP POP POP POP DUP2 MSTORE PUSH1 0x20 ADD PUSH1 0x1 DUP3 ADD PUSH1 0x0 SWAP1 SLOAD SWAP1 PUSH2 0x100 EXP SWAP1 DIV PUSH1 0xFF AND PUSH1 0x5 DUP2 GT ISZERO PUSH2 0x71B JUMPI PUSH2 0x71A PUSH2 0xC60 JUMP JUMPDEST JUMPDEST PUSH1 0x5 DUP2 GT ISZERO PUSH2 0x72D JUMPI PUSH2 0x72C PUSH2 0xC60 JUMP JUMPDEST JUMPDEST DUP2 MSTORE PUSH1 0x20 ADD PUSH1 0x1 DUP3 ADD PUSH1 0x1 SWAP1 SLOAD SWAP1 PUSH2 0x100 EXP SWAP1 DIV PUSH1 0xFF AND ISZERO ISZERO ISZERO ISZERO DUP2 MSTORE POP POP SWAP1 POP DUP1 PUSH1 0x40 ADD MLOAD PUSH2 0x761 JUMPI PUSH1 0x0 SWAP2 POP POP PUSH2 0x808 JUMP JUMPDEST PUSH1 0x0 PUSH1 0x5 DUP2 GT ISZERO PUSH2 0x775 JUMPI PUSH2 0x774 PUSH2 0xC60 JUMP JUMPDEST JUMPDEST DUP2 PUSH1 0x20 ADD MLOAD PUSH1 0x5 DUP2 GT ISZERO PUSH2 0x78C JUMPI PUSH2 0x78B PUSH2 0xC60 JUMP JUMPDEST JUMPDEST EQ DUP1 PUSH2 0x7C0 JUMPI POP PUSH1 0x1 PUSH1 0x5 DUP2 GT ISZERO PUSH2 0x7A7 JUMPI PUSH2 0x7A6 PUSH2 0xC60 JUMP JUMPDEST JUMPDEST DUP2 PUSH1 0x20 ADD MLOAD PUSH1 0x5 DUP2 GT ISZERO PUSH2 0x7BE JUMPI PUSH2 0x7BD PUSH2 0xC60 JUMP JUMPDEST JUMPDEST EQ JUMPDEST DUP1 PUSH2 0x7F3 JUMPI POP PUSH1 0x2 PUSH1 0x5 DUP2 GT ISZERO PUSH2 0x7DA JUMPI PUSH2 0x7D9 PUSH2 0xC60 JUMP JUMPDEST JUMPDEST DUP2 PUSH1 0x20 ADD MLOAD PUSH1 0x5 DUP2 GT ISZERO PUSH2 0x7F1 JUMPI PUSH2 0x7F0 PUSH2 0xC60 JUMP JUMPDEST JUMPDEST EQ JUMPDEST ISZERO PUSH2 0x802 JUMPI PUSH1 0x1 SWAP2 POP POP PUSH2 0x808 JUMP JUMPDEST PUSH1 0x0 SWAP2 POP POP JUMPDEST SWAP2 SWAP1 POP JUMP JUMPDEST PUSH1 0x1 DUP2 DUP2 SLOAD DUP2 LT PUSH2 0x81D JUMPI PUSH1 0x0 DUP1 REVERT JUMPDEST SWAP1 PUSH1 0x0 MSTORE PUSH1 0x20 PUSH1 0x0 KECCAK256 SWAP1 PUSH1 0x2 MUL ADD PUSH1 0x0 SWAP2 POP SWAP1 POP DUP1 PUSH1 0x0 ADD DUP1 SLOAD PUSH2 0x840 SWAP1 PUSH2 0x11F4 JUMP JUMPDEST DUP1 PUSH1 0x1F ADD PUSH1 0x20 DUP1 SWAP2 DIV MUL PUSH1 0x20 ADD PUSH1 0x40 MLOAD SWAP1 DUP2 ADD PUSH1 0x40 MSTORE DUP1 SWAP3 SWAP2 SWAP1 DUP2 DUP2 MSTORE PUSH1 0x20 ADD DUP3 DUP1 SLOAD PUSH2 0x86C SWAP1 PUSH2 0x11F4 JUMP JUMPDEST DUP1 ISZERO PUSH2 0x8B9 JUMPI DUP1 PUSH1 0x1F LT PUSH2 0x88E JUMPI PUSH2 0x100 DUP1 DUP4 SLOAD DIV MUL DUP4 MSTORE SWAP2 PUSH1 0x20 ADD SWAP2 PUSH2 0x8B9 JUMP JUMPDEST DUP3 ADD SWAP2 SWAP1 PUSH1 0x0 MSTORE PUSH1 0x20 PUSH1 0x0 KECCAK256 SWAP1 JUMPDEST DUP2 SLOAD DUP2 MSTORE SWAP1 PUSH1 0x1 ADD SWAP1 PUSH1 0x20 ADD DUP1 DUP4 GT PUSH2 0x89C JUMPI DUP3 SWAP1 SUB PUSH1 0x1F AND DUP3 ADD SWAP2 JUMPDEST POP POP POP POP POP SWAP1 DUP1 PUSH1 0x1 ADD PUSH1 0x0 SWAP1 SLOAD SWAP1 PUSH2 0x100 EXP SWAP1 DIV PUSH1 0xFF AND SWAP1 DUP1 PUSH1 0x1 ADD PUSH1 0x1 SWAP1 SLOAD SWAP1 PUSH2 0x100 EXP SWAP1 DIV PUSH1 0xFF AND SWAP1 POP DUP4 JUMP JUMPDEST PUSH1 0x0 PUSH1 0x20 MSTORE DUP1 PUSH1 0x0 MSTORE PUSH1 0x40 PUSH1 0x0 KECCAK256 PUSH1 0x0 SWAP2 POP SWAP1 POP DUP1 PUSH1 0x0 ADD DUP1 SLOAD PUSH2 0x90C SWAP1 PUSH2 0x11F4 JUMP JUMPDEST DUP1 PUSH1 0x1F ADD PUSH1 0x20 DUP1 SWAP2 DIV MUL PUSH1 0x20 ADD PUSH1 0x40 MLOAD SWAP1 DUP2 ADD PUSH1 0x40 MSTORE DUP1 SWAP3 SWAP2 SWAP1 DUP2 DUP2 MSTORE PUSH1 0x20 ADD DUP3 DUP1 SLOAD PUSH2 0x938 SWAP1 PUSH2 0x11F4 JUMP JUMPDEST DUP1 ISZERO PUSH2 0x985 JUMPI DUP1 PUSH1 0x1F LT PUSH2 0x95A JUMPI PUSH2 0x100 DUP1 DUP4 SLOAD DIV MUL DUP4 MSTORE SWAP2 PUSH1 0x20 ADD SWAP2 PUSH2 0x985 JUMP JUMPDEST DUP3 ADD SWAP2 SWAP1 PUSH1 0x0 MSTORE PUSH1 0x20 PUSH1 0x0 KECCAK256 SWAP1 JUMPDEST DUP2 SLOAD DUP2 MSTORE SWAP1 PUSH1 0x1 ADD SWAP1 PUSH1 0x20 ADD DUP1 DUP4 GT PUSH2 0x968 JUMPI DUP3 SWAP1 SUB PUSH1 0x1F AND DUP3 ADD SWAP2 JUMPDEST POP POP POP POP POP SWAP1 DUP1 PUSH1 0x1 ADD PUSH1 0x0 SWAP1 SLOAD SWAP1 PUSH2 0x100 EXP SWAP1 DIV PUSH1 0xFF AND SWAP1 DUP1 PUSH1 0x1 ADD PUSH1 0x1 SWAP1 SLOAD SWAP1 PUSH2 0x100 EXP SWAP1 DIV PUSH1 0xFF AND SWAP1 POP DUP4 JUMP JUMPDEST PUSH1 0x60 PUSH1 0x1 DUP1 SLOAD DUP1 PUSH1 0x20 MUL PUSH1 0x20 ADD PUSH1 0x40 MLOAD SWAP1 DUP2 ADD PUSH1 0x40 MSTORE DUP1 SWAP3 SWAP2 SWAP1 DUP2 DUP2 MSTORE PUSH1 0x20 ADD PUSH1 0x0 SWAP1 JUMPDEST DUP3 DUP3 LT ISZERO PUSH2 0xAF3 JUMPI DUP4 DUP3 SWAP1 PUSH1 0x0 MSTORE PUSH1 0x20 PUSH1 0x0 KECCAK256 SWAP1 PUSH1 0x2 MUL ADD PUSH1 0x40 MLOAD DUP1 PUSH1 0x60 ADD PUSH1 0x40 MSTORE SWAP1 DUP2 PUSH1 0x0 DUP3 ADD DUP1 SLOAD PUSH2 0xA0C SWAP1 PUSH2 0x11F4 JUMP JUMPDEST DUP1 PUSH1 0x1F ADD PUSH1 0x20 DUP1 SWAP2 DIV MUL PUSH1 0x20 ADD PUSH1 0x40 MLOAD SWAP1 DUP2 ADD PUSH1 0x40 MSTORE DUP1 SWAP3 SWAP2 SWAP1 DUP2 DUP2 MSTORE PUSH1 0x20 ADD DUP3 DUP1 SLOAD PUSH2 0xA38 SWAP1 PUSH2 0x11F4 JUMP JUMPDEST DUP1 ISZERO PUSH2 0xA85 JUMPI DUP1 PUSH1 0x1F LT PUSH2 0xA5A JUMPI PUSH2 0x100 DUP1 DUP4 SLOAD DIV MUL DUP4 MSTORE SWAP2 PUSH1 0x20 ADD SWAP2 PUSH2 0xA85 JUMP JUMPDEST DUP3 ADD SWAP2 SWAP1 PUSH1 0x0 MSTORE PUSH1 0x20 PUSH1 0x0 KECCAK256 SWAP1 JUMPDEST DUP2 SLOAD DUP2 MSTORE SWAP1 PUSH1 0x1 ADD SWAP1 PUSH1 0x20 ADD DUP1 DUP4 GT PUSH2 0xA68 JUMPI DUP3 SWAP1 SUB PUSH1 0x1F AND DUP3 ADD SWAP2 JUMPDEST POP POP POP POP POP DUP2 MSTORE PUSH1 0x20 ADD PUSH1 0x1 DUP3 ADD PUSH1 0x0 SWAP1 SLOAD SWAP1 PUSH2 0x100 EXP SWAP1 DIV PUSH1 0xFF AND PUSH1 0x5 DUP2 GT ISZERO PUSH2 0xAB3 JUMPI PUSH2 0xAB2 PUSH2 0xC60 JUMP JUMPDEST JUMPDEST PUSH1 0x5 DUP2 GT ISZERO PUSH2 0xAC5 JUMPI PUSH2 0xAC4 PUSH2 0xC60 JUMP JUMPDEST JUMPDEST DUP2 MSTORE PUSH1 0x20 ADD PUSH1 0x1 DUP3 ADD PUSH1 0x1 SWAP1 SLOAD SWAP1 PUSH2 0x100 EXP SWAP1 DIV PUSH1 0xFF AND ISZERO ISZERO ISZERO ISZERO DUP2 MSTORE POP POP DUP2 MSTORE PUSH1 0x20 ADD SWAP1 PUSH1 0x1 ADD SWAP1 PUSH2 0x9D9 JUMP JUMPDEST POP POP POP POP SWAP1 POP SWAP1 JUMP JUMPDEST PUSH1 0x40 MLOAD DUP1 PUSH1 0x60 ADD PUSH1 0x40 MSTORE DUP1 PUSH1 0x60 DUP2 MSTORE PUSH1 0x20 ADD PUSH1 0x0 PUSH1 0x5 DUP2 GT ISZERO PUSH2 0xB22 JUMPI PUSH2 0xB21 PUSH2 0xC60 JUMP JUMPDEST JUMPDEST DUP2 MSTORE PUSH1 0x20 ADD PUSH1 0x0 ISZERO ISZERO DUP2 MSTORE POP SWAP1 JUMP JUMPDEST PUSH1 0x0 PUSH1 0x40 MLOAD SWAP1 POP SWAP1 JUMP JUMPDEST PUSH1 0x0 DUP1 REVERT JUMPDEST PUSH1 0x0 DUP1 REVERT JUMPDEST PUSH1 0x0 PUSH20 0xFFFFFFFFFFFFFFFFFFFFFFFFFFFFFFFFFFFFFFFF DUP3 AND SWAP1 POP SWAP2 SWAP1 POP JUMP JUMPDEST PUSH1 0x0 PUSH2 0xB70 DUP3 PUSH2 0xB45 JUMP JUMPDEST SWAP1 POP SWAP2 SWAP1 POP JUMP JUMPDEST PUSH2 0xB80 DUP2 PUSH2 0xB65 JUMP JUMPDEST DUP2 EQ PUSH2 0xB8B JUMPI PUSH1 0x0 DUP1 REVERT JUMPDEST POP JUMP JUMPDEST PUSH1 0x0 DUP2 CALLDATALOAD SWAP1 POP PUSH2 0xB9D DUP2 PUSH2 0xB77 JUMP JUMPDEST SWAP3 SWAP2 POP POP JUMP JUMPDEST PUSH1 0x0 PUSH1 0x20 DUP3 DUP5 SUB SLT ISZERO PUSH2 0xBB9 JUMPI PUSH2 0xBB8 PUSH2 0xB3B JUMP JUMPDEST JUMPDEST PUSH1 0x0 PUSH2 0xBC7 DUP5 DUP3 DUP6 ADD PUSH2 0xB8E JUMP JUMPDEST SWAP2 POP POP SWAP3 SWAP2 POP POP JUMP JUMPDEST PUSH1 0x0 DUP2 MLOAD SWAP1 POP SWAP2 SWAP1 POP JUMP JUMPDEST PUSH1 0x0 DUP3 DUP3 MSTORE PUSH1 0x20 DUP3 ADD SWAP1 POP SWAP3 SWAP2 POP POP JUMP JUMPDEST PUSH1 0x0 JUMPDEST DUP4 DUP2 LT ISZERO PUSH2 0xC0A JUMPI DUP1 DUP3 ADD MLOAD DUP2 DUP5 ADD MSTORE PUSH1 0x20 DUP2 ADD SWAP1 POP PUSH2 0xBEF JUMP JUMPDEST PUSH1 0x0 DUP5 DUP5 ADD MSTORE POP POP POP POP JUMP JUMPDEST PUSH1 0x0 PUSH1 0x1F NOT PUSH1 0x1F DUP4 ADD AND SWAP1 POP SWAP2 SWAP1 POP JUMP JUMPDEST PUSH1 0x0 PUSH2 0xC32 DUP3 PUSH2 0xBD0 JUMP JUMPDEST PUSH2 0xC3C DUP2 DUP6 PUSH2 0xBDB JUMP JUMPDEST SWAP4 POP PUSH2 0xC4C DUP2 DUP6 PUSH1 0x20 DUP7 ADD PUSH2 0xBEC JUMP JUMPDEST PUSH2 0xC55 DUP2 PUSH2 0xC16 JUMP JUMPDEST DUP5 ADD SWAP2 POP POP SWAP3 SWAP2 POP POP JUMP JUMPDEST PUSH32 0x4E487B7100000000000000000000000000000000000000000000000000000000 PUSH1 0x0 MSTORE PUSH1 0x21 PUSH1 0x4 MSTORE PUSH1 0x24 PUSH1 0x0 REVERT JUMPDEST PUSH1 0x6 DUP2 LT PUSH2 0xCA0 JUMPI PUSH2 0xC9F PUSH2 0xC60 JUMP JUMPDEST JUMPDEST POP JUMP JUMPDEST PUSH1 0x0 DUP2 SWAP1 POP PUSH2 0xCB1 DUP3 PUSH2 0xC8F JUMP JUMPDEST SWAP2 SWAP1 POP JUMP JUMPDEST PUSH1 0x0 PUSH2 0xCC1 DUP3 PUSH2 0xCA3 JUMP JUMPDEST SWAP1 POP SWAP2 SWAP1 POP JUMP JUMPDEST PUSH2 0xCD1 DUP2 PUSH2 0xCB6 JUMP JUMPDEST DUP3 MSTORE POP POP JUMP JUMPDEST PUSH1 0x0 DUP2 ISZERO ISZERO SWAP1 POP SWAP2 SWAP1 POP JUMP JUMPDEST PUSH2 0xCEC DUP2 PUSH2 0xCD7 JUMP JUMPDEST DUP3 MSTORE POP POP JUMP JUMPDEST PUSH1 0x0 PUSH1 0x60 DUP4 ADD PUSH1 0x0 DUP4 ADD MLOAD DUP5 DUP3 SUB PUSH1 0x0 DUP7 ADD MSTORE PUSH2 0xD0F DUP3 DUP3 PUSH2 0xC27 JUMP JUMPDEST SWAP2 POP POP PUSH1 0x20 DUP4 ADD MLOAD PUSH2 0xD24 PUSH1 0x20 DUP7 ADD DUP3 PUSH2 0xCC8 JUMP JUMPDEST POP PUSH1 0x40 DUP4 ADD MLOAD PUSH2 0xD37 PUSH1 0x40 DUP7 ADD DUP3 PUSH2 0xCE3 JUMP JUMPDEST POP DUP1 SWAP2 POP POP SWAP3 SWAP2 POP POP JUMP JUMPDEST PUSH1 0x0 PUSH1 0x20 DUP3 ADD SWAP1 POP DUP2 DUP2 SUB PUSH1 0x0 DUP4 ADD MSTORE PUSH2 0xD5C DUP2 DUP5 PUSH2 0xCF2 JUMP JUMPDEST SWAP1 POP SWAP3 SWAP2 POP POP JUMP JUMPDEST PUSH1 0x0 DUP1 REVERT JUMPDEST PUSH1 0x0 DUP1 REVERT JUMPDEST PUSH32 0x4E487B7100000000000000000000000000000000000000000000000000000000 PUSH1 0x0 MSTORE PUSH1 0x41 PUSH1 0x4 MSTORE PUSH1 0x24 PUSH1 0x0 REVERT JUMPDEST PUSH2 0xDA6 DUP3 PUSH2 0xC16 JUMP JUMPDEST DUP2 ADD DUP2 DUP2 LT PUSH8 0xFFFFFFFFFFFFFFFF DUP3 GT OR ISZERO PUSH2 0xDC5 JUMPI PUSH2 0xDC4 PUSH2 0xD6E JUMP JUMPDEST JUMPDEST DUP1 PUSH1 0x40 MSTORE POP POP POP JUMP JUMPDEST PUSH1 0x0 PUSH2 0xDD8 PUSH2 0xB31 JUMP JUMPDEST SWAP1 POP PUSH2 0xDE4 DUP3 DUP3 PUSH2 0xD9D JUMP JUMPDEST SWAP2 SWAP1 POP JUMP JUMPDEST PUSH1 0x0 PUSH8 0xFFFFFFFFFFFFFFFF DUP3 GT ISZERO PUSH2 0xE04 JUMPI PUSH2 0xE03 PUSH2 0xD6E JUMP JUMPDEST JUMPDEST PUSH2 0xE0D DUP3 PUSH2 0xC16 JUMP JUMPDEST SWAP1 POP PUSH1 0x20 DUP2 ADD SWAP1 POP SWAP2 SWAP1 POP JUMP JUMPDEST DUP3 DUP2 DUP4 CALLDATACOPY PUSH1 0x0 DUP4 DUP4 ADD MSTORE POP POP POP JUMP JUMPDEST PUSH1 0x0 PUSH2 0xE3C PUSH2 0xE37 DUP5 PUSH2 0xDE9 JUMP JUMPDEST PUSH2 0xDCE JUMP JUMPDEST SWAP1 POP DUP3 DUP2 MSTORE PUSH1 0x20 DUP2 ADD DUP5 DUP5 DUP5 ADD GT ISZERO PUSH2 0xE58 JUMPI PUSH2 0xE57 PUSH2 0xD69 JUMP JUMPDEST JUMPDEST PUSH2 0xE63 DUP5 DUP3 DUP6 PUSH2 0xE1A JUMP JUMPDEST POP SWAP4 SWAP3 POP POP POP JUMP JUMPDEST PUSH1 0x0 DUP3 PUSH1 0x1F DUP4 ADD SLT PUSH2 0xE80 JUMPI PUSH2 0xE7F PUSH2 0xD64 JUMP JUMPDEST JUMPDEST DUP2 CALLDATALOAD PUSH2 0xE90 DUP5 DUP3 PUSH1 0x20 DUP7 ADD PUSH2 0xE29 JUMP JUMPDEST SWAP2 POP POP SWAP3 SWAP2 POP POP JUMP JUMPDEST PUSH1 0x6 DUP2 LT PUSH2 0xEA6 JUMPI PUSH1 0x0 DUP1 REVERT JUMPDEST POP JUMP JUMPDEST PUSH1 0x0 DUP2 CALLDATALOAD SWAP1 POP PUSH2 0xEB8 DUP2 PUSH2 0xE99 JUMP JUMPDEST SWAP3 SWAP2 POP POP JUMP JUMPDEST PUSH2 0xEC7 DUP2 PUSH2 0xCD7 JUMP JUMPDEST DUP2 EQ PUSH2 0xED2 JUMPI PUSH1 0x0 DUP1 REVERT JUMPDEST POP JUMP JUMPDEST PUSH1 0x0 DUP2 CALLDATALOAD SWAP1 POP PUSH2 0xEE4 DUP2 PUSH2 0xEBE JUMP JUMPDEST SWAP3 SWAP2 POP POP JUMP JUMPDEST PUSH1 0x0 DUP1 PUSH1 0x0 DUP1 PUSH1 0x80 DUP6 DUP8 SUB SLT ISZERO PUSH2 0xF04 JUMPI PUSH2 0xF03 PUSH2 0xB3B JUMP JUMPDEST JUMPDEST PUSH1 0x0 PUSH2 0xF12 DUP8 DUP3 DUP9 ADD PUSH2 0xB8E JUMP JUMPDEST SWAP5 POP POP PUSH1 0x20 DUP6 ADD CALLDATALOAD PUSH8 0xFFFFFFFFFFFFFFFF DUP2 GT ISZERO PUSH2 0xF33 JUMPI PUSH2 0xF32 PUSH2 0xB40 JUMP JUMPDEST JUMPDEST PUSH2 0xF3F DUP8 DUP3 DUP9 ADD PUSH2 0xE6B JUMP JUMPDEST SWAP4 POP POP PUSH1 0x40 PUSH2 0xF50 DUP8 DUP3 DUP9 ADD PUSH2 0xEA9 JUMP JUMPDEST SWAP3 POP POP PUSH1 0x60 PUSH2 0xF61 DUP8 DUP3 DUP9 ADD PUSH2 0xED5 JUMP JUMPDEST SWAP2 POP POP SWAP3 SWAP6 SWAP2 SWAP5 POP SWAP3 POP JUMP JUMPDEST PUSH2 0xF76 DUP2 PUSH2 0xCD7 JUMP JUMPDEST DUP3 MSTORE POP POP JUMP JUMPDEST PUSH1 0x0 PUSH1 0x20 DUP3 ADD SWAP1 POP PUSH2 0xF91 PUSH1 0x0 DUP4 ADD DUP5 PUSH2 0xF6D JUMP JUMPDEST SWAP3 SWAP2 POP POP JUMP JUMPDEST PUSH1 0x0 DUP2 SWAP1 POP SWAP2 SWAP1 POP JUMP JUMPDEST PUSH2 0xFAA DUP2 PUSH2 0xF97 JUMP JUMPDEST DUP2 EQ PUSH2 0xFB5 JUMPI PUSH1 0x0 DUP1 REVERT JUMPDEST POP JUMP JUMPDEST PUSH1 0x0 DUP2 CALLDATALOAD SWAP1 POP PUSH2 0xFC7 DUP2 PUSH2 0xFA1 JUMP JUMPDEST SWAP3 SWAP2 POP POP JUMP JUMPDEST PUSH1 0x0 PUSH1 0x20 DUP3 DUP5 SUB SLT ISZERO PUSH2 0xFE3 JUMPI PUSH2 0xFE2 PUSH2 0xB3B JUMP JUMPDEST JUMPDEST PUSH1 0x0 PUSH2 0xFF1 DUP5 DUP3 DUP6 ADD PUSH2 0xFB8 JUMP JUMPDEST SWAP2 POP POP SWAP3 SWAP2 POP POP JUMP JUMPDEST PUSH1 0x0 DUP3 DUP3 MSTORE PUSH1 0x20 DUP3 ADD SWAP1 POP SWAP3 SWAP2 POP POP JUMP JUMPDEST PUSH1 0x0 PUSH2 0x1016 DUP3 PUSH2 0xBD0 JUMP JUMPDEST PUSH2 0x1020 DUP2 DUP6 PUSH2 0xFFA JUMP JUMPDEST SWAP4 POP PUSH2 0x1030 DUP2 DUP6 PUSH1 0x20 DUP7 ADD PUSH2 0xBEC JUMP JUMPDEST PUSH2 0x1039 DUP2 PUSH2 0xC16 JUMP JUMPDEST DUP5 ADD SWAP2 POP POP SWAP3 SWAP2 POP POP JUMP JUMPDEST PUSH2 0x104D DUP2 PUSH2 0xCB6 JUMP JUMPDEST DUP3 MSTORE POP POP JUMP JUMPDEST PUSH1 0x0 PUSH1 0x60 DUP3 ADD SWAP1 POP DUP2 DUP2 SUB PUSH1 0x0 DUP4 ADD MSTORE PUSH2 0x106D DUP2 DUP7 PUSH2 0x100B JUMP JUMPDEST SWAP1 POP PUSH2 0x107C PUSH1 0x20 DUP4 ADD DUP6 PUSH2 0x1044 JUMP JUMPDEST PUSH2 0x1089 PUSH1 0x40 DUP4 ADD DUP5 PUSH2 0xF6D JUMP JUMPDEST SWAP5 SWAP4 POP POP POP POP JUMP JUMPDEST PUSH1 0x0 DUP2 MLOAD SWAP1 POP SWAP2 SWAP1 POP JUMP JUMPDEST PUSH1 0x0 DUP3 DUP3 MSTORE PUSH1 0x20 DUP3 ADD SWAP1 POP SWAP3 SWAP2 POP POP JUMP JUMPDEST PUSH1 0x0 DUP2 SWAP1 POP PUSH1 0x20 DUP3 ADD SWAP1 POP SWAP2 SWAP1 POP JUMP JUMPDEST PUSH1 0x0 PUSH1 0x60 DUP4 ADD PUSH1 0x0 DUP4 ADD MLOAD DUP5 DUP3 SUB PUSH1 0x0 DUP7 ADD MSTORE PUSH2 0x10DA DUP3 DUP3 PUSH2 0xC27 JUMP JUMPDEST SWAP2 POP POP PUSH1 0x20 DUP4 ADD MLOAD PUSH2 0x10EF PUSH1 0x20 DUP7 ADD DUP3 PUSH2 0xCC8 JUMP JUMPDEST POP PUSH1 0x40 DUP4 ADD MLOAD PUSH2 0x1102 PUSH1 0x40 DUP7 ADD DUP3 PUSH2 0xCE3 JUMP JUMPDEST POP DUP1 SWAP2 POP POP SWAP3 SWAP2 POP POP JUMP JUMPDEST PUSH1 0x0 PUSH2 0x1119 DUP4 DUP4 PUSH2 0x10BD JUMP JUMPDEST SWAP1 POP SWAP3 SWAP2 POP POP JUMP JUMPDEST PUSH1 0x0 PUSH1 0x20 DUP3 ADD SWAP1 POP SWAP2 SWAP1 POP JUMP JUMPDEST PUSH1 0x0 PUSH2 0x1139 DUP3 PUSH2 0x1091 JUMP JUMPDEST PUSH2 0x1143 DUP2 DUP6 PUSH2 0x109C JUMP JUMPDEST SWAP4 POP DUP4 PUSH1 0x20 DUP3 MUL DUP6 ADD PUSH2 0x1155 DUP6 PUSH2 0x10AD JUMP JUMPDEST DUP1 PUSH1 0x0 JUMPDEST DUP6 DUP2 LT ISZERO PUSH2 0x1191 JUMPI DUP5 DUP5 SUB DUP10 MSTORE DUP2 MLOAD PUSH2 0x1172 DUP6 DUP3 PUSH2 0x110D JUMP JUMPDEST SWAP5 POP PUSH2 0x117D DUP4 PUSH2 0x1121 JUMP JUMPDEST SWAP3 POP PUSH1 0x20 DUP11 ADD SWAP10 POP POP PUSH1 0x1 DUP2 ADD SWAP1 POP PUSH2 0x1159 JUMP JUMPDEST POP DUP3 SWAP8 POP DUP8 SWAP6 POP POP POP POP POP POP SWAP3 SWAP2 POP POP JUMP JUMPDEST PUSH1 0x0 PUSH1 0x20 DUP3 ADD SWAP1 POP DUP2 DUP2 SUB PUSH1 0x0 DUP4 ADD MSTORE PUSH2 0x11BD DUP2 DUP5 PUSH2 0x112E JUMP JUMPDEST SWAP1 POP SWAP3 SWAP2 POP POP JUMP JUMPDEST PUSH32 0x4E487B7100000000000000000000000000000000000000000000000000000000 PUSH1 0x0 MSTORE PUSH1 0x22 PUSH1 0x4 MSTORE PUSH1 0x24 PUSH1 0x0 REVERT JUMPDEST PUSH1 0x0 PUSH1 0x2 DUP3 DIV SWAP1 POP PUSH1 0x1 DUP3 AND DUP1 PUSH2 0x120C JUMPI PUSH1 0x7F DUP3 AND SWAP2 POP JUMPDEST PUSH1 0x20 DUP3 LT DUP2 SUB PUSH2 0x121F JUMPI PUSH2 0x121E PUSH2 0x11C5 JUMP JUMPDEST JUMPDEST POP SWAP2 SWAP1 POP JUMP JUMPDEST PUSH1 0x0 DUP2 SWAP1 POP DUP2 PUSH1 0x0 MSTORE PUSH1 0x20 PUSH1 0x0 KECCAK256 SWAP1 POP SWAP2 SWAP1 POP JUMP JUMPDEST PUSH1 0x0 PUSH1 0x20 PUSH1 0x1F DUP4 ADD DIV SWAP1 POP SWAP2 SWAP1 POP JUMP JUMPDEST PUSH1 0x0 DUP3 DUP3 SHL SWAP1 POP SWAP3 SWAP2 POP POP JUMP JUMPDEST PUSH1 0x0 PUSH1 0x8 DUP4 MUL PUSH2 0x1287 PUSH32 0xFFFFFFFFFFFFFFFFFFFFFFFFFFFFFFFFFFFFFFFFFFFFFFFFFFFFFFFFFFFFFFFF DUP3 PUSH2 0x124A JUMP JUMPDEST PUSH2 0x1291 DUP7 DUP4 PUSH2 0x124A JUMP JUMPDEST SWAP6 POP DUP1 NOT DUP5 AND SWAP4 POP DUP1 DUP7 AND DUP5 OR SWAP3 POP POP POP SWAP4 SWAP3 POP POP POP JUMP JUMPDEST PUSH1 0x0 DUP2 SWAP1 POP SWAP2 SWAP1 POP JUMP JUMPDEST PUSH1 0x0 PUSH2 0x12CE PUSH2 0x12C9 PUSH2 0x12C4 DUP5 PUSH2 0xF97 JUMP JUMPDEST PUSH2 0x12A9 JUMP JUMPDEST PUSH2 0xF97 JUMP JUMPDEST SWAP1 POP SWAP2 SWAP1 POP JUMP JUMPDEST PUSH1 0x0 DUP2 SWAP1 POP SWAP2 SWAP1 POP JUMP JUMPDEST PUSH2 0x12E8 DUP4 PUSH2 0x12B3 JUMP JUMPDEST PUSH2 0x12FC PUSH2 0x12F4 DUP3 PUSH2 0x12D5 JUMP JUMPDEST DUP5 DUP5 SLOAD PUSH2 0x1257 JUMP JUMPDEST DUP3 SSTORE POP POP POP POP JUMP JUMPDEST PUSH1 0x0 SWAP1 JUMP JUMPDEST PUSH2 0x1311 PUSH2 0x1304 JUMP JUMPDEST PUSH2 0x131C DUP2 DUP5 DUP5 PUSH2 0x12DF JUMP JUMPDEST POP POP POP JUMP JUMPDEST JUMPDEST DUP2 DUP2 LT ISZERO PUSH2 0x1340 JUMPI PUSH2 0x1335 PUSH1 0x0 DUP3 PUSH2 0x1309 JUMP JUMPDEST PUSH1 0x1 DUP2 ADD SWAP1 POP PUSH2 0x1322 JUMP JUMPDEST POP POP JUMP JUMPDEST PUSH1 0x1F DUP3 GT ISZERO PUSH2 0x1385 JUMPI PUSH2 0x1356 DUP2 PUSH2 0x1225 JUMP JUMPDEST PUSH2 0x135F DUP5 PUSH2 0x123A JUMP JUMPDEST DUP2 ADD PUSH1 0x20 DUP6 LT ISZERO PUSH2 0x136E JUMPI DUP2 SWAP1 POP JUMPDEST PUSH2 0x1382 PUSH2 0x137A DUP6 PUSH2 0x123A JUMP JUMPDEST DUP4 ADD DUP3 PUSH2 0x1321 JUMP JUMPDEST POP POP JUMPDEST POP POP POP JUMP JUMPDEST PUSH1 0x0 DUP3 DUP3 SHR SWAP1 POP SWAP3 SWAP2 POP POP JUMP JUMPDEST PUSH1 0x0 PUSH2 0x13A8 PUSH1 0x0 NOT DUP5 PUSH1 0x8 MUL PUSH2 0x138A JUMP JUMPDEST NOT DUP1 DUP4 AND SWAP2 POP POP SWAP3 SWAP2 POP POP JUMP JUMPDEST PUSH1 0x0 PUSH2 0x13C1 DUP4 DUP4 PUSH2 0x1397 JUMP JUMPDEST SWAP2 POP DUP3 PUSH1 0x2 MUL DUP3 OR SWAP1 POP SWAP3 SWAP2 POP POP JUMP JUMPDEST PUSH2 0x13DA DUP3 PUSH2 0xBD0 JUMP JUMPDEST PUSH8 0xFFFFFFFFFFFFFFFF DUP2 GT ISZERO PUSH2 0x13F3 JUMPI PUSH2 0x13F2 PUSH2 0xD6E JUMP JUMPDEST JUMPDEST PUSH2 0x13FD DUP3 SLOAD PUSH2 0x11F4 JUMP JUMPDEST PUSH2 0x1408 DUP3 DUP3 DUP6 PUSH2 0x1344 JUMP JUMPDEST PUSH1 0x0 PUSH1 0x20 SWAP1 POP PUSH1 0x1F DUP4 GT PUSH1 0x1 DUP2 EQ PUSH2 0x143B JUMPI PUSH1 0x0 DUP5 ISZERO PUSH2 0x1429 JUMPI DUP3 DUP8 ADD MLOAD SWAP1 POP JUMPDEST PUSH2 0x1433 DUP6 DUP3 PUSH2 0x13B5 JUMP JUMPDEST DUP7 SSTORE POP PUSH2 0x149B JUMP JUMPDEST PUSH1 0x1F NOT DUP5 AND PUSH2 0x1449 DUP7 PUSH2 0x1225 JUMP JUMPDEST PUSH1 0x0 JUMPDEST DUP3 DUP2 LT ISZERO PUSH2 0x1471 JUMPI DUP5 DUP10 ADD MLOAD DUP3 SSTORE PUSH1 0x1 DUP3 ADD SWAP2 POP PUSH1 0x20 DUP6 ADD SWAP5 POP PUSH1 0x20 DUP2 ADD SWAP1 POP PUSH2 0x144C JUMP JUMPDEST DUP7 DUP4 LT ISZERO PUSH2 0x148E JUMPI DUP5 DUP10 ADD MLOAD PUSH2 0x148A PUSH1 0x1F DUP10 AND DUP3 PUSH2 0x1397 JUMP JUMPDEST DUP4 SSTORE POP JUMPDEST PUSH1 0x1 PUSH1 0x2 DUP9 MUL ADD DUP9 SSTORE POP POP POP JUMPDEST POP POP POP POP POP POP JUMP INVALID LOG2 PUSH5 0x6970667358 0x22 SLT KECCAK256 SWAP5 STATICCALL 0xDB DUP8 PUSH6 0x3DED1C6D18F8 0xE9 0xFC ADD JUMPDEST 0xFC CREATE MSIZE PUSH14 0x890686E4256E455CBC87D1DE9B64 PUSH20 0x6F6C634300081C00330000000000000000000000 "
        },
        "methodIdentifiers": {
          "addEmployee(address,string,uint8,bool)": "9a3416ed",
          "all_employees(uint256)": "bbb31e76",
          "canAccessGarage(address)": "b24e34c8",
          "employees(address)": "d0678947",
          "getAllEmployees()": "e3366fed",
          "getEmployeeDetails(address)": "1caafcf1",
          "updateEmployee(address,string,uint8,bool)": "35b79557"
        }
      }
    }
  }
}