{
  "contracts/StudentManagement.sol": {
    "StudentManagement": {
      "abi": [
        {
          "inputs": [
            {
              "internalType": "uint8",
              "name": "_index",
              "type": "uint8"
            },
            {
              "internalType": "enum StudentManagement.Status",
              "name": "_status",
              "type": "uint8"
            }
          ],
          "name": "change_student_status",
          "outputs": [],
          "stateMutability": "nonpayable",
          "type": "function"
        },
        {
          "inputs": [
            {
              "internalType": "uint256",
              "name": "_index",
              "type": "uint256"
            }
          ],
          "name": "delete_student",
          "outputs": [],
          "stateMutability": "nonpayable",
          "type": "function"
        },
        {
          "inputs": [
            {
              "internalType": "uint256",
              "name": "_index",
              "type": "uint256"
            }
          ],
          "name": "get_student",
          "outputs": [
            {
              "components": [
                {
                  "internalType": "uint256",
                  "name": "id",
                  "type": "uint256"
                },
                {
                  "internalType": "string",
                  "name": "name",
                  "type": "string"
                },
                {
                  "internalType": "uint8",
                  "name": "age",
                  "type": "uint8"
                },
                {
                  "internalType": "enum StudentManagement.Gender",
                  "name": "gender",
                  "type": "uint8"
                },
                {
                  "internalType": "enum StudentManagement.Status",
                  "name": "status",
                  "type": "uint8"
                }
              ],
              "internalType": "struct StudentManagement.Student",
              "name": "",
              "type": "tuple"
            }
          ],
          "stateMutability": "view",
          "type": "function"
        },
        {
          "inputs": [],
          "name": "get_students",
          "outputs": [
            {
              "components": [
                {
                  "internalType": "uint256",
                  "name": "id",
                  "type": "uint256"
                },
                {
                  "internalType": "string",
                  "name": "name",
                  "type": "string"
                },
                {
                  "internalType": "uint8",
                  "name": "age",
                  "type": "uint8"
                },
                {
                  "internalType": "enum StudentManagement.Gender",
                  "name": "gender",
                  "type": "uint8"
                },
                {
                  "internalType": "enum StudentManagement.Status",
                  "name": "status",
                  "type": "uint8"
                }
              ],
              "internalType": "struct StudentManagement.Student[]",
              "name": "",
              "type": "tuple[]"
            }
          ],
          "stateMutability": "view",
          "type": "function"
        },
        {
          "inputs": [
            {
              "internalType": "string",
              "name": "_name",
              "type": "string"
            },
            {
              "internalType": "uint8",
              "name": "_age",
              "type": "uint8"
            },
            {
              "internalType": "enum StudentManagement.Gender",
              "name": "_gender",
              "type": "uint8"
            }
          ],
          "name": "register_student",
          "outputs": [],
          "stateMutability": "nonpayable",
          "type": "function"
        },
        {
          "inputs": [
            {
              "internalType": "uint256",
              "name": "_index",
              "type": "uint256"
            },
            {
              "internalType": "string",
              "name": "_name",
              "type": "string"
            },
            {
              "internalType": "uint8",
              "name": "_age",
              "type": "uint8"
            },
            {
              "internalType": "enum StudentManagement.Gender",
              "name": "_gender",
              "type": "uint8"
            },
            {
              "internalType": "enum StudentManagement.Status",
              "name": "_status",
              "type": "uint8"
            }
          ],
          "name": "update_student",
          "outputs": [],
          "stateMutability": "nonpayable",
          "type": "function"
        }
      ],
      "evm": {
        "bytecode": {
          "linkReferences": {},
          "object": "60806040526000805534801561001457600080fd5b5061142e806100246000396000f3fe608060405234801561001057600080fd5b50600436106100625760003560e01c806337357b3a146100675780633f09a53814610097578063a9189b0c146100b3578063ccd693e0146100d1578063f4245620146100ed578063fdb14e9814610109575b600080fd5b610081600480360381019061007c9190610939565b610125565b60405161008e9190610b56565b60405180910390f35b6100b160048036038101906100ac9190610939565b6102e3565b005b6100bb6103b1565b6040516100c89190610cb0565b60405180910390f35b6100eb60048036038101906100e69190610e7d565b61053f565b005b61010760048036038101906101029190610f14565b610651565b005b610123600480360381019061011e9190610f54565b6106fb565b005b61012d61083c565b6001808054905061013e9190610ff2565b821115610180576040517f08c379a000000000000000000000000000000000000000000000000000000000815260040161017790611083565b60405180910390fd5b60018281548110610194576101936110a3565b5b90600052602060002090600302016040518060a0016040529081600082015481526020016001820180546101c790611101565b80601f01602080910402602001604051908101604052809291908181526020018280546101f390611101565b80156102405780601f1061021557610100808354040283529160200191610240565b820191906000526020600020905b81548152906001019060200180831161022357829003601f168201915b505050505081526020016002820160009054906101000a900460ff1660ff1660ff1681526020016002820160019054906101000a900460ff16600181111561028b5761028a610a21565b5b600181111561029d5761029c610a21565b5b81526020016002820160029054906101000a900460ff1660028111156102c6576102c5610a21565b5b60028111156102d8576102d7610a21565b5b815250509050919050565b600180805490506102f49190610ff2565b8114610335576040517f08c379a000000000000000000000000000000000000000000000000000000000815260040161032c90611083565b60405180910390fd5b60018181548110610349576103486110a3565b5b90600052602060002090600302016000808201600090556001820160006103709190610892565b6002820160006101000a81549060ff02191690556002820160016101000a81549060ff02191690556002820160026101000a81549060ff0219169055505050565b60606001805480602002602001604051908101604052809291908181526020016000905b8282101561053657838290600052602060002090600302016040518060a00160405290816000820154815260200160018201805461041290611101565b80601f016020809104026020016040519081016040528092919081815260200182805461043e90611101565b801561048b5780601f106104605761010080835404028352916020019161048b565b820191906000526020600020905b81548152906001019060200180831161046e57829003601f168201915b505050505081526020016002820160009054906101000a900460ff1660ff1660ff1681526020016002820160019054906101000a900460ff1660018111156104d6576104d5610a21565b5b60018111156104e8576104e7610a21565b5b81526020016002820160029054906101000a900460ff16600281111561051157610510610a21565b5b600281111561052357610522610a21565b5b81525050815260200190600101906103d5565b50505050905090565b8360018681548110610554576105536110a3565b5b9060005260206000209060030201600101908161057191906112de565b508260018681548110610587576105866110a3565b5b906000526020600020906003020160020160006101000a81548160ff021916908360ff16021790555081600186815481106105c5576105c46110a3565b5b906000526020600020906003020160020160016101000a81548160ff021916908360018111156105f8576105f7610a21565b5b02179055508060018681548110610612576106116110a3565b5b906000526020600020906003020160020160026101000a81548160ff0219169083600281111561064557610644610a21565b5b02179055505050505050565b600180805490506106629190610ff2565b8260ff1611156106a7576040517f08c379a000000000000000000000000000000000000000000000000000000000815260040161069e90611083565b60405180910390fd5b8060018360ff16815481106106bf576106be6110a3565b5b906000526020600020906003020160020160026101000a81548160ff021916908360028111156106f2576106f1610a21565b5b02179055505050565b60006040518060a0016040528060005481526020018581526020018460ff16815260200183600181111561073257610731610a21565b5b81526020016000600281111561074b5761074a610a21565b5b8152509050600181908060018154018082558091505060019003906000526020600020906003020160009091909190915060008201518160000155602082015181600101908161079b91906112de565b5060408201518160020160006101000a81548160ff021916908360ff16021790555060608201518160020160016101000a81548160ff021916908360018111156107e8576107e7610a21565b5b021790555060808201518160020160026101000a81548160ff0219169083600281111561081857610817610a21565b5b02179055505050600080815480929190610831906113b0565b919050555050505050565b6040518060a001604052806000815260200160608152602001600060ff1681526020016000600181111561087357610872610a21565b5b81526020016000600281111561088c5761088b610a21565b5b81525090565b50805461089e90611101565b6000825580601f106108b057506108cf565b601f0160209004906000526020600020908101906108ce91906108d2565b5b50565b5b808211156108eb5760008160009055506001016108d3565b5090565b6000604051905090565b600080fd5b600080fd5b6000819050919050565b61091681610903565b811461092157600080fd5b50565b6000813590506109338161090d565b92915050565b60006020828403121561094f5761094e6108f9565b5b600061095d84828501610924565b91505092915050565b61096f81610903565b82525050565b600081519050919050565b600082825260208201905092915050565b60005b838110156109af578082015181840152602081019050610994565b60008484015250505050565b6000601f19601f8301169050919050565b60006109d782610975565b6109e18185610980565b93506109f1818560208601610991565b6109fa816109bb565b840191505092915050565b600060ff82169050919050565b610a1b81610a05565b82525050565b7f4e487b7100000000000000000000000000000000000000000000000000000000600052602160045260246000fd5b60028110610a6157610a60610a21565b5b50565b6000819050610a7282610a50565b919050565b6000610a8282610a64565b9050919050565b610a9281610a77565b82525050565b60038110610aa957610aa8610a21565b5b50565b6000819050610aba82610a98565b919050565b6000610aca82610aac565b9050919050565b610ada81610abf565b82525050565b600060a083016000830151610af86000860182610966565b5060208301518482036020860152610b1082826109cc565b9150506040830151610b256040860182610a12565b506060830151610b386060860182610a89565b506080830151610b4b6080860182610ad1565b508091505092915050565b60006020820190508181036000830152610b708184610ae0565b905092915050565b600081519050919050565b600082825260208201905092915050565b6000819050602082019050919050565b600060a083016000830151610bbc6000860182610966565b5060208301518482036020860152610bd482826109cc565b9150506040830151610be96040860182610a12565b506060830151610bfc6060860182610a89565b506080830151610c0f6080860182610ad1565b508091505092915050565b6000610c268383610ba4565b905092915050565b6000602082019050919050565b6000610c4682610b78565b610c508185610b83565b935083602082028501610c6285610b94565b8060005b85811015610c9e5784840389528151610c7f8582610c1a565b9450610c8a83610c2e565b925060208a01995050600181019050610c66565b50829750879550505050505092915050565b60006020820190508181036000830152610cca8184610c3b565b905092915050565b600080fd5b600080fd5b7f4e487b7100000000000000000000000000000000000000000000000000000000600052604160045260246000fd5b610d14826109bb565b810181811067ffffffffffffffff82111715610d3357610d32610cdc565b5b80604052505050565b6000610d466108ef565b9050610d528282610d0b565b919050565b600067ffffffffffffffff821115610d7257610d71610cdc565b5b610d7b826109bb565b9050602081019050919050565b82818337600083830152505050565b6000610daa610da584610d57565b610d3c565b905082815260208101848484011115610dc657610dc5610cd7565b5b610dd1848285610d88565b509392505050565b600082601f830112610dee57610ded610cd2565b5b8135610dfe848260208601610d97565b91505092915050565b610e1081610a05565b8114610e1b57600080fd5b50565b600081359050610e2d81610e07565b92915050565b60028110610e4057600080fd5b50565b600081359050610e5281610e33565b92915050565b60038110610e6557600080fd5b50565b600081359050610e7781610e58565b92915050565b600080600080600060a08688031215610e9957610e986108f9565b5b6000610ea788828901610924565b955050602086013567ffffffffffffffff811115610ec857610ec76108fe565b5b610ed488828901610dd9565b9450506040610ee588828901610e1e565b9350506060610ef688828901610e43565b9250506080610f0788828901610e68565b9150509295509295909350565b60008060408385031215610f2b57610f2a6108f9565b5b6000610f3985828601610e1e565b9250506020610f4a85828601610e68565b9150509250929050565b600080600060608486031215610f6d57610f6c6108f9565b5b600084013567ffffffffffffffff811115610f8b57610f8a6108fe565b5b610f9786828701610dd9565b9350506020610fa886828701610e1e565b9250506040610fb986828701610e43565b9150509250925092565b7f4e487b7100000000000000000000000000000000000000000000000000000000600052601160045260246000fd5b6000610ffd82610903565b915061100883610903565b92508282039050818111156110205761101f610fc3565b5b92915050565b600082825260208201905092915050565b7f53747564656e7420646f6573206e6f7420657869747300000000000000000000600082015250565b600061106d601683611026565b915061107882611037565b602082019050919050565b6000602082019050818103600083015261109c81611060565b9050919050565b7f4e487b7100000000000000000000000000000000000000000000000000000000600052603260045260246000fd5b7f4e487b7100000000000000000000000000000000000000000000000000000000600052602260045260246000fd5b6000600282049050600182168061111957607f821691505b60208210810361112c5761112b6110d2565b5b50919050565b60008190508160005260206000209050919050565b60006020601f8301049050919050565b600082821b905092915050565b6000600883026111947fffffffffffffffffffffffffffffffffffffffffffffffffffffffffffffffff82611157565b61119e8683611157565b95508019841693508086168417925050509392505050565b6000819050919050565b60006111db6111d66111d184610903565b6111b6565b610903565b9050919050565b6000819050919050565b6111f5836111c0565b611209611201826111e2565b848454611164565b825550505050565b600090565b61121e611211565b6112298184846111ec565b505050565b5b8181101561124d57611242600082611216565b60018101905061122f565b5050565b601f8211156112925761126381611132565b61126c84611147565b8101602085101561127b578190505b61128f61128785611147565b83018261122e565b50505b505050565b600082821c905092915050565b60006112b560001984600802611297565b1980831691505092915050565b60006112ce83836112a4565b9150826002028217905092915050565b6112e782610975565b67ffffffffffffffff811115611300576112ff610cdc565b5b61130a8254611101565b611315828285611251565b600060209050601f8311600181146113485760008415611336578287015190505b61134085826112c2565b8655506113a8565b601f19841661135686611132565b60005b8281101561137e57848901518255600182019150602085019450602081019050611359565b8683101561139b5784890151611397601f8916826112a4565b8355505b6001600288020188555050505b505050505050565b60006113bb82610903565b91507fffffffffffffffffffffffffffffffffffffffffffffffffffffffffffffffff82036113ed576113ec610fc3565b5b60018201905091905056fea264697066735822122027d902e0aef251574193f5d7e40657e4e67cfe9512fe4f2ae5f5f2ad9764f69b64736f6c63430008140033",
          "opcodes": "PUSH1 0x80 PUSH1 0x40 MSTORE PUSH1 0x0 DUP1 SSTORE CALLVALUE DUP1 ISZERO PUSH2 0x14 JUMPI PUSH1 0x0 DUP1 REVERT JUMPDEST POP PUSH2 0x142E DUP1 PUSH2 0x24 PUSH1 0x0 CODECOPY PUSH1 0x0 RETURN INVALID PUSH1 0x80 PUSH1 0x40 MSTORE CALLVALUE DUP1 ISZERO PUSH2 0x10 JUMPI PUSH1 0x0 DUP1 REVERT JUMPDEST POP PUSH1 0x4 CALLDATASIZE LT PUSH2 0x62 JUMPI PUSH1 0x0 CALLDATALOAD PUSH1 0xE0 SHR DUP1 PUSH4 0x37357B3A EQ PUSH2 0x67 JUMPI DUP1 PUSH4 0x3F09A538 EQ PUSH2 0x97 JUMPI DUP1 PUSH4 0xA9189B0C EQ PUSH2 0xB3 JUMPI DUP1 PUSH4 0xCCD693E0 EQ PUSH2 0xD1 JUMPI DUP1 PUSH4 0xF4245620 EQ PUSH2 0xED JUMPI DUP1 PUSH4 0xFDB14E98 EQ PUSH2 0x109 JUMPI JUMPDEST PUSH1 0x0 DUP1 REVERT JUMPDEST PUSH2 0x81 PUSH1 0x4 DUP1 CALLDATASIZE SUB DUP2 ADD SWAP1 PUSH2 0x7C SWAP2 SWAP1 PUSH2 0x939 JUMP JUMPDEST PUSH2 0x125 JUMP JUMPDEST PUSH1 0x40 MLOAD PUSH2 0x8E SWAP2 SWAP1 PUSH2 0xB56 JUMP JUMPDEST PUSH1 0x40 MLOAD DUP1 SWAP2 SUB SWAP1 RETURN JUMPDEST PUSH2 0xB1 PUSH1 0x4 DUP1 CALLDATASIZE SUB DUP2 ADD SWAP1 PUSH2 0xAC SWAP2 SWAP1 PUSH2 0x939 JUMP JUMPDEST PUSH2 0x2E3 JUMP JUMPDEST STOP JUMPDEST PUSH2 0xBB PUSH2 0x3B1 JUMP JUMPDEST PUSH1 0x40 MLOAD PUSH2 0xC8 SWAP2 SWAP1 PUSH2 0xCB0 JUMP JUMPDEST PUSH1 0x40 MLOAD DUP1 SWAP2 SUB SWAP1 RETURN JUMPDEST PUSH2 0xEB PUSH1 0x4 DUP1 CALLDATASIZE SUB DUP2 ADD SWAP1 PUSH2 0xE6 SWAP2 SWAP1 PUSH2 0xE7D JUMP JUMPDEST PUSH2 0x53F JUMP JUMPDEST STOP JUMPDEST PUSH2 0x107 PUSH1 0x4 DUP1 CALLDATASIZE SUB DUP2 ADD SWAP1 PUSH2 0x102 SWAP2 SWAP1 PUSH2 0xF14 JUMP JUMPDEST PUSH2 0x651 JUMP JUMPDEST STOP JUMPDEST PUSH2 0x123 PUSH1 0x4 DUP1 CALLDATASIZE SUB DUP2 ADD SWAP1 PUSH2 0x11E SWAP2 SWAP1 PUSH2 0xF54 JUMP JUMPDEST PUSH2 0x6FB JUMP JUMPDEST STOP JUMPDEST PUSH2 0x12D PUSH2 0x83C JUMP JUMPDEST PUSH1 0x1 DUP1 DUP1 SLOAD SWAP1 POP PUSH2 0x13E SWAP2 SWAP1 PUSH2 0xFF2 JUMP JUMPDEST DUP3 GT ISZERO PUSH2 0x180 JUMPI PUSH1 0x40 MLOAD PUSH32 0x8C379A000000000000000000000000000000000000000000000000000000000 DUP2 MSTORE PUSH1 0x4 ADD PUSH2 0x177 SWAP1 PUSH2 0x1083 JUMP JUMPDEST PUSH1 0x40 MLOAD DUP1 SWAP2 SUB SWAP1 REVERT JUMPDEST PUSH1 0x1 DUP3 DUP2 SLOAD DUP2 LT PUSH2 0x194 JUMPI PUSH2 0x193 PUSH2 0x10A3 JUMP JUMPDEST JUMPDEST SWAP1 PUSH1 0x0 MSTORE PUSH1 0x20 PUSH1 0x0 KECCAK256 SWAP1 PUSH1 0x3 MUL ADD PUSH1 0x40 MLOAD DUP1 PUSH1 0xA0 ADD PUSH1 0x40 MSTORE SWAP1 DUP2 PUSH1 0x0 DUP3 ADD SLOAD DUP2 MSTORE PUSH1 0x20 ADD PUSH1 0x1 DUP3 ADD DUP1 SLOAD PUSH2 0x1C7 SWAP1 PUSH2 0x1101 JUMP JUMPDEST DUP1 PUSH1 0x1F ADD PUSH1 0x20 DUP1 SWAP2 DIV MUL PUSH1 0x20 ADD PUSH1 0x40 MLOAD SWAP1 DUP2 ADD PUSH1 0x40 MSTORE DUP1 SWAP3 SWAP2 SWAP1 DUP2 DUP2 MSTORE PUSH1 0x20 ADD DUP3 DUP1 SLOAD PUSH2 0x1F3 SWAP1 PUSH2 0x1101 JUMP JUMPDEST DUP1 ISZERO PUSH2 0x240 JUMPI DUP1 PUSH1 0x1F LT PUSH2 0x215 JUMPI PUSH2 0x100 DUP1 DUP4 SLOAD DIV MUL DUP4 MSTORE SWAP2 PUSH1 0x20 ADD SWAP2 PUSH2 0x240 JUMP JUMPDEST DUP3 ADD SWAP2 SWAP1 PUSH1 0x0 MSTORE PUSH1 0x20 PUSH1 0x0 KECCAK256 SWAP1 JUMPDEST DUP2 SLOAD DUP2 MSTORE SWAP1 PUSH1 0x1 ADD SWAP1 PUSH1 0x20 ADD DUP1 DUP4 GT PUSH2 0x223 JUMPI DUP3 SWAP1 SUB PUSH1 0x1F AND DUP3 ADD SWAP2 JUMPDEST POP POP POP POP POP DUP2 MSTORE PUSH1 0x20 ADD PUSH1 0x2 DUP3 ADD PUSH1 0x0 SWAP1 SLOAD SWAP1 PUSH2 0x100 EXP SWAP1 DIV PUSH1 0xFF AND PUSH1 0xFF AND PUSH1 0xFF AND DUP2 MSTORE PUSH1 0x20 ADD PUSH1 0x2 DUP3 ADD PUSH1 0x1 SWAP1 SLOAD SWAP1 PUSH2 0x100 EXP SWAP1 DIV PUSH1 0xFF AND PUSH1 0x1 DUP2 GT ISZERO PUSH2 0x28B JUMPI PUSH2 0x28A PUSH2 0xA21 JUMP JUMPDEST JUMPDEST PUSH1 0x1 DUP2 GT ISZERO PUSH2 0x29D JUMPI PUSH2 0x29C PUSH2 0xA21 JUMP JUMPDEST JUMPDEST DUP2 MSTORE PUSH1 0x20 ADD PUSH1 0x2 DUP3 ADD PUSH1 0x2 SWAP1 SLOAD SWAP1 PUSH2 0x100 EXP SWAP1 DIV PUSH1 0xFF AND PUSH1 0x2 DUP2 GT ISZERO PUSH2 0x2C6 JUMPI PUSH2 0x2C5 PUSH2 0xA21 JUMP JUMPDEST JUMPDEST PUSH1 0x2 DUP2 GT ISZERO PUSH2 0x2D8 JUMPI PUSH2 0x2D7 PUSH2 0xA21 JUMP JUMPDEST JUMPDEST DUP2 MSTORE POP POP SWAP1 POP SWAP2 SWAP1 POP JUMP JUMPDEST PUSH1 0x1 DUP1 DUP1 SLOAD SWAP1 POP PUSH2 0x2F4 SWAP2 SWAP1 PUSH2 0xFF2 JUMP JUMPDEST DUP2 EQ PUSH2 0x335 JUMPI PUSH1 0x40 MLOAD PUSH32 0x8C379A000000000000000000000000000000000000000000000000000000000 DUP2 MSTORE PUSH1 0x4 ADD PUSH2 0x32C SWAP1 PUSH2 0x1083 JUMP JUMPDEST PUSH1 0x40 MLOAD DUP1 SWAP2 SUB SWAP1 REVERT JUMPDEST PUSH1 0x1 DUP2 DUP2 SLOAD DUP2 LT PUSH2 0x349 JUMPI PUSH2 0x348 PUSH2 0x10A3 JUMP JUMPDEST JUMPDEST SWAP1 PUSH1 0x0 MSTORE PUSH1 0x20 PUSH1 0x0 KECCAK256 SWAP1 PUSH1 0x3 MUL ADD PUSH1 0x0 DUP1 DUP3 ADD PUSH1 0x0 SWAP1 SSTORE PUSH1 0x1 DUP3 ADD PUSH1 0x0 PUSH2 0x370 SWAP2 SWAP1 PUSH2 0x892 JUMP JUMPDEST PUSH1 0x2 DUP3 ADD PUSH1 0x0 PUSH2 0x100 EXP DUP2 SLOAD SWAP1 PUSH1 0xFF MUL NOT AND SWAP1 SSTORE PUSH1 0x2 DUP3 ADD PUSH1 0x1 PUSH2 0x100 EXP DUP2 SLOAD SWAP1 PUSH1 0xFF MUL NOT AND SWAP1 SSTORE PUSH1 0x2 DUP3 ADD PUSH1 0x2 PUSH2 0x100 EXP DUP2 SLOAD SWAP1 PUSH1 0xFF MUL NOT AND SWAP1 SSTORE POP POP POP JUMP JUMPDEST PUSH1 0x60 PUSH1 0x1 DUP1 SLOAD DUP1 PUSH1 0x20 MUL PUSH1 0x20 ADD PUSH1 0x40 MLOAD SWAP1 DUP2 ADD PUSH1 0x40 MSTORE DUP1 SWAP3 SWAP2 SWAP1 DUP2 DUP2 MSTORE PUSH1 0x20 ADD PUSH1 0x0 SWAP1 JUMPDEST DUP3 DUP3 LT ISZERO PUSH2 0x536 JUMPI DUP4 DUP3 SWAP1 PUSH1 0x0 MSTORE PUSH1 0x20 PUSH1 0x0 KECCAK256 SWAP1 PUSH1 0x3 MUL ADD PUSH1 0x40 MLOAD DUP1 PUSH1 0xA0 ADD PUSH1 0x40 MSTORE SWAP1 DUP2 PUSH1 0x0 DUP3 ADD SLOAD DUP2 MSTORE PUSH1 0x20 ADD PUSH1 0x1 DUP3 ADD DUP1 SLOAD PUSH2 0x412 SWAP1 PUSH2 0x1101 JUMP JUMPDEST DUP1 PUSH1 0x1F ADD PUSH1 0x20 DUP1 SWAP2 DIV MUL PUSH1 0x20 ADD PUSH1 0x40 MLOAD SWAP1 DUP2 ADD PUSH1 0x40 MSTORE DUP1 SWAP3 SWAP2 SWAP1 DUP2 DUP2 MSTORE PUSH1 0x20 ADD DUP3 DUP1 SLOAD PUSH2 0x43E SWAP1 PUSH2 0x1101 JUMP JUMPDEST DUP1 ISZERO PUSH2 0x48B JUMPI DUP1 PUSH1 0x1F LT PUSH2 0x460 JUMPI PUSH2 0x100 DUP1 DUP4 SLOAD DIV MUL DUP4 MSTORE SWAP2 PUSH1 0x20 ADD SWAP2 PUSH2 0x48B JUMP JUMPDEST DUP3 ADD SWAP2 SWAP1 PUSH1 0x0 MSTORE PUSH1 0x20 PUSH1 0x0 KECCAK256 SWAP1 JUMPDEST DUP2 SLOAD DUP2 MSTORE SWAP1 PUSH1 0x1 ADD SWAP1 PUSH1 0x20 ADD DUP1 DUP4 GT PUSH2 0x46E JUMPI DUP3 SWAP1 SUB PUSH1 0x1F AND DUP3 ADD SWAP2 JUMPDEST POP POP POP POP POP DUP2 MSTORE PUSH1 0x20 ADD PUSH1 0x2 DUP3 ADD PUSH1 0x0 SWAP1 SLOAD SWAP1 PUSH2 0x100 EXP SWAP1 DIV PUSH1 0xFF AND PUSH1 0xFF AND PUSH1 0xFF AND DUP2 MSTORE PUSH1 0x20 ADD PUSH1 0x2 DUP3 ADD PUSH1 0x1 SWAP1 SLOAD SWAP1 PUSH2 0x100 EXP SWAP1 DIV PUSH1 0xFF AND PUSH1 0x1 DUP2 GT ISZERO PUSH2 0x4D6 JUMPI PUSH2 0x4D5 PUSH2 0xA21 JUMP JUMPDEST JUMPDEST PUSH1 0x1 DUP2 GT ISZERO PUSH2 0x4E8 JUMPI PUSH2 0x4E7 PUSH2 0xA21 JUMP JUMPDEST JUMPDEST DUP2 MSTORE PUSH1 0x20 ADD PUSH1 0x2 DUP3 ADD PUSH1 0x2 SWAP1 SLOAD SWAP1 PUSH2 0x100 EXP SWAP1 DIV PUSH1 0xFF AND PUSH1 0x2 DUP2 GT ISZERO PUSH2 0x511 JUMPI PUSH2 0x510 PUSH2 0xA21 JUMP JUMPDEST JUMPDEST PUSH1 0x2 DUP2 GT ISZERO PUSH2 0x523 JUMPI PUSH2 0x522 PUSH2 0xA21 JUMP JUMPDEST JUMPDEST DUP2 MSTORE POP POP DUP2 MSTORE PUSH1 0x20 ADD SWAP1 PUSH1 0x1 ADD SWAP1 PUSH2 0x3D5 JUMP JUMPDEST POP POP POP POP SWAP1 POP SWAP1 JUMP JUMPDEST DUP4 PUSH1 0x1 DUP7 DUP2 SLOAD DUP2 LT PUSH2 0x554 JUMPI PUSH2 0x553 PUSH2 0x10A3 JUMP JUMPDEST JUMPDEST SWAP1 PUSH1 0x0 MSTORE PUSH1 0x20 PUSH1 0x0 KECCAK256 SWAP1 PUSH1 0x3 MUL ADD PUSH1 0x1 ADD SWAP1 DUP2 PUSH2 0x571 SWAP2 SWAP1 PUSH2 0x12DE JUMP JUMPDEST POP DUP3 PUSH1 0x1 DUP7 DUP2 SLOAD DUP2 LT PUSH2 0x587 JUMPI PUSH2 0x586 PUSH2 0x10A3 JUMP JUMPDEST JUMPDEST SWAP1 PUSH1 0x0 MSTORE PUSH1 0x20 PUSH1 0x0 KECCAK256 SWAP1 PUSH1 0x3 MUL ADD PUSH1 0x2 ADD PUSH1 0x0 PUSH2 0x100 EXP DUP2 SLOAD DUP2 PUSH1 0xFF MUL NOT AND SWAP1 DUP4 PUSH1 0xFF AND MUL OR SWAP1 SSTORE POP DUP2 PUSH1 0x1 DUP7 DUP2 SLOAD DUP2 LT PUSH2 0x5C5 JUMPI PUSH2 0x5C4 PUSH2 0x10A3 JUMP JUMPDEST JUMPDEST SWAP1 PUSH1 0x0 MSTORE PUSH1 0x20 PUSH1 0x0 KECCAK256 SWAP1 PUSH1 0x3 MUL ADD PUSH1 0x2 ADD PUSH1 0x1 PUSH2 0x100 EXP DUP2 SLOAD DUP2 PUSH1 0xFF MUL NOT AND SWAP1 DUP4 PUSH1 0x1 DUP2 GT ISZERO PUSH2 0x5F8 JUMPI PUSH2 0x5F7 PUSH2 0xA21 JUMP JUMPDEST JUMPDEST MUL OR SWAP1 SSTORE POP DUP1 PUSH1 0x1 DUP7 DUP2 SLOAD DUP2 LT PUSH2 0x612 JUMPI PUSH2 0x611 PUSH2 0x10A3 JUMP JUMPDEST JUMPDEST SWAP1 PUSH1 0x0 MSTORE PUSH1 0x20 PUSH1 0x0 KECCAK256 SWAP1 PUSH1 0x3 MUL ADD PUSH1 0x2 ADD PUSH1 0x2 PUSH2 0x100 EXP DUP2 SLOAD DUP2 PUSH1 0xFF MUL NOT AND SWAP1 DUP4 PUSH1 0x2 DUP2 GT ISZERO PUSH2 0x645 JUMPI PUSH2 0x644 PUSH2 0xA21 JUMP JUMPDEST JUMPDEST MUL OR SWAP1 SSTORE POP POP POP POP POP POP JUMP JUMPDEST PUSH1 0x1 DUP1 DUP1 SLOAD SWAP1 POP PUSH2 0x662 SWAP2 SWAP1 PUSH2 0xFF2 JUMP JUMPDEST DUP3 PUSH1 0xFF AND GT ISZERO PUSH2 0x6A7 JUMPI PUSH1 0x40 MLOAD PUSH32 0x8C379A000000000000000000000000000000000000000000000000000000000 DUP2 MSTORE PUSH1 0x4 ADD PUSH2 0x69E SWAP1 PUSH2 0x1083 JUMP JUMPDEST PUSH1 0x40 MLOAD DUP1 SWAP2 SUB SWAP1 REVERT JUMPDEST DUP1 PUSH1 0x1 DUP4 PUSH1 0xFF AND DUP2 SLOAD DUP2 LT PUSH2 0x6BF JUMPI PUSH2 0x6BE PUSH2 0x10A3 JUMP JUMPDEST JUMPDEST SWAP1 PUSH1 0x0 MSTORE PUSH1 0x20 PUSH1 0x0 KECCAK256 SWAP1 PUSH1 0x3 MUL ADD PUSH1 0x2 ADD PUSH1 0x2 PUSH2 0x100 EXP DUP2 SLOAD DUP2 PUSH1 0xFF MUL NOT AND SWAP1 DUP4 PUSH1 0x2 DUP2 GT ISZERO PUSH2 0x6F2 JUMPI PUSH2 0x6F1 PUSH2 0xA21 JUMP JUMPDEST JUMPDEST MUL OR SWAP1 SSTORE POP POP POP JUMP JUMPDEST PUSH1 0x0 PUSH1 0x40 MLOAD DUP1 PUSH1 0xA0 ADD PUSH1 0x40 MSTORE DUP1 PUSH1 0x0 SLOAD DUP2 MSTORE PUSH1 0x20 ADD DUP6 DUP2 MSTORE PUSH1 0x20 ADD DUP5 PUSH1 0xFF AND DUP2 MSTORE PUSH1 0x20 ADD DUP4 PUSH1 0x1 DUP2 GT ISZERO PUSH2 0x732 JUMPI PUSH2 0x731 PUSH2 0xA21 JUMP JUMPDEST JUMPDEST DUP2 MSTORE PUSH1 0x20 ADD PUSH1 0x0 PUSH1 0x2 DUP2 GT ISZERO PUSH2 0x74B JUMPI PUSH2 0x74A PUSH2 0xA21 JUMP JUMPDEST JUMPDEST DUP2 MSTORE POP SWAP1 POP PUSH1 0x1 DUP2 SWAP1 DUP1 PUSH1 0x1 DUP2 SLOAD ADD DUP1 DUP3 SSTORE DUP1 SWAP2 POP POP PUSH1 0x1 SWAP1 SUB SWAP1 PUSH1 0x0 MSTORE PUSH1 0x20 PUSH1 0x0 KECCAK256 SWAP1 PUSH1 0x3 MUL ADD PUSH1 0x0 SWAP1 SWAP2 SWAP1 SWAP2 SWAP1 SWAP2 POP PUSH1 0x0 DUP3 ADD MLOAD DUP2 PUSH1 0x0 ADD SSTORE PUSH1 0x20 DUP3 ADD MLOAD DUP2 PUSH1 0x1 ADD SWAP1 DUP2 PUSH2 0x79B SWAP2 SWAP1 PUSH2 0x12DE JUMP JUMPDEST POP PUSH1 0x40 DUP3 ADD MLOAD DUP2 PUSH1 0x2 ADD PUSH1 0x0 PUSH2 0x100 EXP DUP2 SLOAD DUP2 PUSH1 0xFF MUL NOT AND SWAP1 DUP4 PUSH1 0xFF AND MUL OR SWAP1 SSTORE POP PUSH1 0x60 DUP3 ADD MLOAD DUP2 PUSH1 0x2 ADD PUSH1 0x1 PUSH2 0x100 EXP DUP2 SLOAD DUP2 PUSH1 0xFF MUL NOT AND SWAP1 DUP4 PUSH1 0x1 DUP2 GT ISZERO PUSH2 0x7E8 JUMPI PUSH2 0x7E7 PUSH2 0xA21 JUMP JUMPDEST JUMPDEST MUL OR SWAP1 SSTORE POP PUSH1 0x80 DUP3 ADD MLOAD DUP2 PUSH1 0x2 ADD PUSH1 0x2 PUSH2 0x100 EXP DUP2 SLOAD DUP2 PUSH1 0xFF MUL NOT AND SWAP1 DUP4 PUSH1 0x2 DUP2 GT ISZERO PUSH2 0x818 JUMPI PUSH2 0x817 PUSH2 0xA21 JUMP JUMPDEST JUMPDEST MUL OR SWAP1 SSTORE POP POP POP PUSH1 0x0 DUP1 DUP2 SLOAD DUP1 SWAP3 SWAP2 SWAP1 PUSH2 0x831 SWAP1 PUSH2 0x13B0 JUMP JUMPDEST SWAP2 SWAP1 POP SSTORE POP POP POP POP POP JUMP JUMPDEST PUSH1 0x40 MLOAD DUP1 PUSH1 0xA0 ADD PUSH1 0x40 MSTORE DUP1 PUSH1 0x0 DUP2 MSTORE PUSH1 0x20 ADD PUSH1 0x60 DUP2 MSTORE PUSH1 0x20 ADD PUSH1 0x0 PUSH1 0xFF AND DUP2 MSTORE PUSH1 0x20 ADD PUSH1 0x0 PUSH1 0x1 DUP2 GT ISZERO PUSH2 0x873 JUMPI PUSH2 0x872 PUSH2 0xA21 JUMP JUMPDEST JUMPDEST DUP2 MSTORE PUSH1 0x20 ADD PUSH1 0x0 PUSH1 0x2 DUP2 GT ISZERO PUSH2 0x88C JUMPI PUSH2 0x88B PUSH2 0xA21 JUMP JUMPDEST JUMPDEST DUP2 MSTORE POP SWAP1 JUMP JUMPDEST POP DUP1 SLOAD PUSH2 0x89E SWAP1 PUSH2 0x1101 JUMP JUMPDEST PUSH1 0x0 DUP3 SSTORE DUP1 PUSH1 0x1F LT PUSH2 0x8B0 JUMPI POP PUSH2 0x8CF JUMP JUMPDEST PUSH1 0x1F ADD PUSH1 0x20 SWAP1 DIV SWAP1 PUSH1 0x0 MSTORE PUSH1 0x20 PUSH1 0x0 KECCAK256 SWAP1 DUP2 ADD SWAP1 PUSH2 0x8CE SWAP2 SWAP1 PUSH2 0x8D2 JUMP JUMPDEST JUMPDEST POP JUMP JUMPDEST JUMPDEST DUP1 DUP3 GT ISZERO PUSH2 0x8EB JUMPI PUSH1 0x0 DUP2 PUSH1 0x0 SWAP1 SSTORE POP PUSH1 0x1 ADD PUSH2 0x8D3 JUMP JUMPDEST POP SWAP1 JUMP JUMPDEST PUSH1 0x0 PUSH1 0x40 MLOAD SWAP1 POP SWAP1 JUMP JUMPDEST PUSH1 0x0 DUP1 REVERT JUMPDEST PUSH1 0x0 DUP1 REVERT JUMPDEST PUSH1 0x0 DUP2 SWAP1 POP SWAP2 SWAP1 POP JUMP JUMPDEST PUSH2 0x916 DUP2 PUSH2 0x903 JUMP JUMPDEST DUP2 EQ PUSH2 0x921 JUMPI PUSH1 0x0 DUP1 REVERT JUMPDEST POP JUMP JUMPDEST PUSH1 0x0 DUP2 CALLDATALOAD SWAP1 POP PUSH2 0x933 DUP2 PUSH2 0x90D JUMP JUMPDEST SWAP3 SWAP2 POP POP JUMP JUMPDEST PUSH1 0x0 PUSH1 0x20 DUP3 DUP5 SUB SLT ISZERO PUSH2 0x94F JUMPI PUSH2 0x94E PUSH2 0x8F9 JUMP JUMPDEST JUMPDEST PUSH1 0x0 PUSH2 0x95D DUP5 DUP3 DUP6 ADD PUSH2 0x924 JUMP JUMPDEST SWAP2 POP POP SWAP3 SWAP2 POP POP JUMP JUMPDEST PUSH2 0x96F DUP2 PUSH2 0x903 JUMP JUMPDEST DUP3 MSTORE POP POP JUMP JUMPDEST PUSH1 0x0 DUP2 MLOAD SWAP1 POP SWAP2 SWAP1 POP JUMP JUMPDEST PUSH1 0x0 DUP3 DUP3 MSTORE PUSH1 0x20 DUP3 ADD SWAP1 POP SWAP3 SWAP2 POP POP JUMP JUMPDEST PUSH1 0x0 JUMPDEST DUP4 DUP2 LT ISZERO PUSH2 0x9AF JUMPI DUP1 DUP3 ADD MLOAD DUP2 DUP5 ADD MSTORE PUSH1 0x20 DUP2 ADD SWAP1 POP PUSH2 0x994 JUMP JUMPDEST PUSH1 0x0 DUP5 DUP5 ADD MSTORE POP POP POP POP JUMP JUMPDEST PUSH1 0x0 PUSH1 0x1F NOT PUSH1 0x1F DUP4 ADD AND SWAP1 POP SWAP2 SWAP1 POP JUMP JUMPDEST PUSH1 0x0 PUSH2 0x9D7 DUP3 PUSH2 0x975 JUMP JUMPDEST PUSH2 0x9E1 DUP2 DUP6 PUSH2 0x980 JUMP JUMPDEST SWAP4 POP PUSH2 0x9F1 DUP2 DUP6 PUSH1 0x20 DUP7 ADD PUSH2 0x991 JUMP JUMPDEST PUSH2 0x9FA DUP2 PUSH2 0x9BB JUMP JUMPDEST DUP5 ADD SWAP2 POP POP SWAP3 SWAP2 POP POP JUMP JUMPDEST PUSH1 0x0 PUSH1 0xFF DUP3 AND SWAP1 POP SWAP2 SWAP1 POP JUMP JUMPDEST PUSH2 0xA1B DUP2 PUSH2 0xA05 JUMP JUMPDEST DUP3 MSTORE POP POP JUMP JUMPDEST PUSH32 0x4E487B7100000000000000000000000000000000000000000000000000000000 PUSH1 0x0 MSTORE PUSH1 0x21 PUSH1 0x4 MSTORE PUSH1 0x24 PUSH1 0x0 REVERT JUMPDEST PUSH1 0x2 DUP2 LT PUSH2 0xA61 JUMPI PUSH2 0xA60 PUSH2 0xA21 JUMP JUMPDEST JUMPDEST POP JUMP JUMPDEST PUSH1 0x0 DUP2 SWAP1 POP PUSH2 0xA72 DUP3 PUSH2 0xA50 JUMP JUMPDEST SWAP2 SWAP1 POP JUMP JUMPDEST PUSH1 0x0 PUSH2 0xA82 DUP3 PUSH2 0xA64 JUMP JUMPDEST SWAP1 POP SWAP2 SWAP1 POP JUMP JUMPDEST PUSH2 0xA92 DUP2 PUSH2 0xA77 JUMP JUMPDEST DUP3 MSTORE POP POP JUMP JUMPDEST PUSH1 0x3 DUP2 LT PUSH2 0xAA9 JUMPI PUSH2 0xAA8 PUSH2 0xA21 JUMP JUMPDEST JUMPDEST POP JUMP JUMPDEST PUSH1 0x0 DUP2 SWAP1 POP PUSH2 0xABA DUP3 PUSH2 0xA98 JUMP JUMPDEST SWAP2 SWAP1 POP JUMP JUMPDEST PUSH1 0x0 PUSH2 0xACA DUP3 PUSH2 0xAAC JUMP JUMPDEST SWAP1 POP SWAP2 SWAP1 POP JUMP JUMPDEST PUSH2 0xADA DUP2 PUSH2 0xABF JUMP JUMPDEST DUP3 MSTORE POP POP JUMP JUMPDEST PUSH1 0x0 PUSH1 0xA0 DUP4 ADD PUSH1 0x0 DUP4 ADD MLOAD PUSH2 0xAF8 PUSH1 0x0 DUP7 ADD DUP3 PUSH2 0x966 JUMP JUMPDEST POP PUSH1 0x20 DUP4 ADD MLOAD DUP5 DUP3 SUB PUSH1 0x20 DUP7 ADD MSTORE PUSH2 0xB10 DUP3 DUP3 PUSH2 0x9CC JUMP JUMPDEST SWAP2 POP POP PUSH1 0x40 DUP4 ADD MLOAD PUSH2 0xB25 PUSH1 0x40 DUP7 ADD DUP3 PUSH2 0xA12 JUMP JUMPDEST POP PUSH1 0x60 DUP4 ADD MLOAD PUSH2 0xB38 PUSH1 0x60 DUP7 ADD DUP3 PUSH2 0xA89 JUMP JUMPDEST POP PUSH1 0x80 DUP4 ADD MLOAD PUSH2 0xB4B PUSH1 0x80 DUP7 ADD DUP3 PUSH2 0xAD1 JUMP JUMPDEST POP DUP1 SWAP2 POP POP SWAP3 SWAP2 POP POP JUMP JUMPDEST PUSH1 0x0 PUSH1 0x20 DUP3 ADD SWAP1 POP DUP2 DUP2 SUB PUSH1 0x0 DUP4 ADD MSTORE PUSH2 0xB70 DUP2 DUP5 PUSH2 0xAE0 JUMP JUMPDEST SWAP1 POP SWAP3 SWAP2 POP POP JUMP JUMPDEST PUSH1 0x0 DUP2 MLOAD SWAP1 POP SWAP2 SWAP1 POP JUMP JUMPDEST PUSH1 0x0 DUP3 DUP3 MSTORE PUSH1 0x20 DUP3 ADD SWAP1 POP SWAP3 SWAP2 POP POP JUMP JUMPDEST PUSH1 0x0 DUP2 SWAP1 POP PUSH1 0x20 DUP3 ADD SWAP1 POP SWAP2 SWAP1 POP JUMP JUMPDEST PUSH1 0x0 PUSH1 0xA0 DUP4 ADD PUSH1 0x0 DUP4 ADD MLOAD PUSH2 0xBBC PUSH1 0x0 DUP7 ADD DUP3 PUSH2 0x966 JUMP JUMPDEST POP PUSH1 0x20 DUP4 ADD MLOAD DUP5 DUP3 SUB PUSH1 0x20 DUP7 ADD MSTORE PUSH2 0xBD4 DUP3 DUP3 PUSH2 0x9CC JUMP JUMPDEST SWAP2 POP POP PUSH1 0x40 DUP4 ADD MLOAD PUSH2 0xBE9 PUSH1 0x40 DUP7 ADD DUP3 PUSH2 0xA12 JUMP JUMPDEST POP PUSH1 0x60 DUP4 ADD MLOAD PUSH2 0xBFC PUSH1 0x60 DUP7 ADD DUP3 PUSH2 0xA89 JUMP JUMPDEST POP PUSH1 0x80 DUP4 ADD MLOAD PUSH2 0xC0F PUSH1 0x80 DUP7 ADD DUP3 PUSH2 0xAD1 JUMP JUMPDEST POP DUP1 SWAP2 POP POP SWAP3 SWAP2 POP POP JUMP JUMPDEST PUSH1 0x0 PUSH2 0xC26 DUP4 DUP4 PUSH2 0xBA4 JUMP JUMPDEST SWAP1 POP SWAP3 SWAP2 POP POP JUMP JUMPDEST PUSH1 0x0 PUSH1 0x20 DUP3 ADD SWAP1 POP SWAP2 SWAP1 POP JUMP JUMPDEST PUSH1 0x0 PUSH2 0xC46 DUP3 PUSH2 0xB78 JUMP JUMPDEST PUSH2 0xC50 DUP2 DUP6 PUSH2 0xB83 JUMP JUMPDEST SWAP4 POP DUP4 PUSH1 0x20 DUP3 MUL DUP6 ADD PUSH2 0xC62 DUP6 PUSH2 0xB94 JUMP JUMPDEST DUP1 PUSH1 0x0 JUMPDEST DUP6 DUP2 LT ISZERO PUSH2 0xC9E JUMPI DUP5 DUP5 SUB DUP10 MSTORE DUP2 MLOAD PUSH2 0xC7F DUP6 DUP3 PUSH2 0xC1A JUMP JUMPDEST SWAP5 POP PUSH2 0xC8A DUP4 PUSH2 0xC2E JUMP JUMPDEST SWAP3 POP PUSH1 0x20 DUP11 ADD SWAP10 POP POP PUSH1 0x1 DUP2 ADD SWAP1 POP PUSH2 0xC66 JUMP JUMPDEST POP DUP3 SWAP8 POP DUP8 SWAP6 POP POP POP POP POP POP SWAP3 SWAP2 POP POP JUMP JUMPDEST PUSH1 0x0 PUSH1 0x20 DUP3 ADD SWAP1 POP DUP2 DUP2 SUB PUSH1 0x0 DUP4 ADD MSTORE PUSH2 0xCCA DUP2 DUP5 PUSH2 0xC3B JUMP JUMPDEST SWAP1 POP SWAP3 SWAP2 POP POP JUMP JUMPDEST PUSH1 0x0 DUP1 REVERT JUMPDEST PUSH1 0x0 DUP1 REVERT JUMPDEST PUSH32 0x4E487B7100000000000000000000000000000000000000000000000000000000 PUSH1 0x0 MSTORE PUSH1 0x41 PUSH1 0x4 MSTORE PUSH1 0x24 PUSH1 0x0 REVERT JUMPDEST PUSH2 0xD14 DUP3 PUSH2 0x9BB JUMP JUMPDEST DUP2 ADD DUP2 DUP2 LT PUSH8 0xFFFFFFFFFFFFFFFF DUP3 GT OR ISZERO PUSH2 0xD33 JUMPI PUSH2 0xD32 PUSH2 0xCDC JUMP JUMPDEST JUMPDEST DUP1 PUSH1 0x40 MSTORE POP POP POP JUMP JUMPDEST PUSH1 0x0 PUSH2 0xD46 PUSH2 0x8EF JUMP JUMPDEST SWAP1 POP PUSH2 0xD52 DUP3 DUP3 PUSH2 0xD0B JUMP JUMPDEST SWAP2 SWAP1 POP JUMP JUMPDEST PUSH1 0x0 PUSH8 0xFFFFFFFFFFFFFFFF DUP3 GT ISZERO PUSH2 0xD72 JUMPI PUSH2 0xD71 PUSH2 0xCDC JUMP JUMPDEST JUMPDEST PUSH2 0xD7B DUP3 PUSH2 0x9BB JUMP JUMPDEST SWAP1 POP PUSH1 0x20 DUP2 ADD SWAP1 POP SWAP2 SWAP1 POP JUMP JUMPDEST DUP3 DUP2 DUP4 CALLDATACOPY PUSH1 0x0 DUP4 DUP4 ADD MSTORE POP POP POP JUMP JUMPDEST PUSH1 0x0 PUSH2 0xDAA PUSH2 0xDA5 DUP5 PUSH2 0xD57 JUMP JUMPDEST PUSH2 0xD3C JUMP JUMPDEST SWAP1 POP DUP3 DUP2 MSTORE PUSH1 0x20 DUP2 ADD DUP5 DUP5 DUP5 ADD GT ISZERO PUSH2 0xDC6 JUMPI PUSH2 0xDC5 PUSH2 0xCD7 JUMP JUMPDEST JUMPDEST PUSH2 0xDD1 DUP5 DUP3 DUP6 PUSH2 0xD88 JUMP JUMPDEST POP SWAP4 SWAP3 POP POP POP JUMP JUMPDEST PUSH1 0x0 DUP3 PUSH1 0x1F DUP4 ADD SLT PUSH2 0xDEE JUMPI PUSH2 0xDED PUSH2 0xCD2 JUMP JUMPDEST JUMPDEST DUP2 CALLDATALOAD PUSH2 0xDFE DUP5 DUP3 PUSH1 0x20 DUP7 ADD PUSH2 0xD97 JUMP JUMPDEST SWAP2 POP POP SWAP3 SWAP2 POP POP JUMP JUMPDEST PUSH2 0xE10 DUP2 PUSH2 0xA05 JUMP JUMPDEST DUP2 EQ PUSH2 0xE1B JUMPI PUSH1 0x0 DUP1 REVERT JUMPDEST POP JUMP JUMPDEST PUSH1 0x0 DUP2 CALLDATALOAD SWAP1 POP PUSH2 0xE2D DUP2 PUSH2 0xE07 JUMP JUMPDEST SWAP3 SWAP2 POP POP JUMP JUMPDEST PUSH1 0x2 DUP2 LT PUSH2 0xE40 JUMPI PUSH1 0x0 DUP1 REVERT JUMPDEST POP JUMP JUMPDEST PUSH1 0x0 DUP2 CALLDATALOAD SWAP1 POP PUSH2 0xE52 DUP2 PUSH2 0xE33 JUMP JUMPDEST SWAP3 SWAP2 POP POP JUMP JUMPDEST PUSH1 0x3 DUP2 LT PUSH2 0xE65 JUMPI PUSH1 0x0 DUP1 REVERT JUMPDEST POP JUMP JUMPDEST PUSH1 0x0 DUP2 CALLDATALOAD SWAP1 POP PUSH2 0xE77 DUP2 PUSH2 0xE58 JUMP JUMPDEST SWAP3 SWAP2 POP POP JUMP JUMPDEST PUSH1 0x0 DUP1 PUSH1 0x0 DUP1 PUSH1 0x0 PUSH1 0xA0 DUP7 DUP9 SUB SLT ISZERO PUSH2 0xE99 JUMPI PUSH2 0xE98 PUSH2 0x8F9 JUMP JUMPDEST JUMPDEST PUSH1 0x0 PUSH2 0xEA7 DUP9 DUP3 DUP10 ADD PUSH2 0x924 JUMP JUMPDEST SWAP6 POP POP PUSH1 0x20 DUP7 ADD CALLDATALOAD PUSH8 0xFFFFFFFFFFFFFFFF DUP2 GT ISZERO PUSH2 0xEC8 JUMPI PUSH2 0xEC7 PUSH2 0x8FE JUMP JUMPDEST JUMPDEST PUSH2 0xED4 DUP9 DUP3 DUP10 ADD PUSH2 0xDD9 JUMP JUMPDEST SWAP5 POP POP PUSH1 0x40 PUSH2 0xEE5 DUP9 DUP3 DUP10 ADD PUSH2 0xE1E JUMP JUMPDEST SWAP4 POP POP PUSH1 0x60 PUSH2 0xEF6 DUP9 DUP3 DUP10 ADD PUSH2 0xE43 JUMP JUMPDEST SWAP3 POP POP PUSH1 0x80 PUSH2 0xF07 DUP9 DUP3 DUP10 ADD PUSH2 0xE68 JUMP JUMPDEST SWAP2 POP POP SWAP3 SWAP6 POP SWAP3 SWAP6 SWAP1 SWAP4 POP JUMP JUMPDEST PUSH1 0x0 DUP1 PUSH1 0x40 DUP4 DUP6 SUB SLT ISZERO PUSH2 0xF2B JUMPI PUSH2 0xF2A PUSH2 0x8F9 JUMP JUMPDEST JUMPDEST PUSH1 0x0 PUSH2 0xF39 DUP6 DUP3 DUP7 ADD PUSH2 0xE1E JUMP JUMPDEST SWAP3 POP POP PUSH1 0x20 PUSH2 0xF4A DUP6 DUP3 DUP7 ADD PUSH2 0xE68 JUMP JUMPDEST SWAP2 POP POP SWAP3 POP SWAP3 SWAP1 POP JUMP JUMPDEST PUSH1 0x0 DUP1 PUSH1 0x0 PUSH1 0x60 DUP5 DUP7 SUB SLT ISZERO PUSH2 0xF6D JUMPI PUSH2 0xF6C PUSH2 0x8F9 JUMP JUMPDEST JUMPDEST PUSH1 0x0 DUP5 ADD CALLDATALOAD PUSH8 0xFFFFFFFFFFFFFFFF DUP2 GT ISZERO PUSH2 0xF8B JUMPI PUSH2 0xF8A PUSH2 0x8FE JUMP JUMPDEST JUMPDEST PUSH2 0xF97 DUP7 DUP3 DUP8 ADD PUSH2 0xDD9 JUMP JUMPDEST SWAP4 POP POP PUSH1 0x20 PUSH2 0xFA8 DUP7 DUP3 DUP8 ADD PUSH2 0xE1E JUMP JUMPDEST SWAP3 POP POP PUSH1 0x40 PUSH2 0xFB9 DUP7 DUP3 DUP8 ADD PUSH2 0xE43 JUMP JUMPDEST SWAP2 POP POP SWAP3 POP SWAP3 POP SWAP3 JUMP JUMPDEST PUSH32 0x4E487B7100000000000000000000000000000000000000000000000000000000 PUSH1 0x0 MSTORE PUSH1 0x11 PUSH1 0x4 MSTORE PUSH1 0x24 PUSH1 0x0 REVERT JUMPDEST PUSH1 0x0 PUSH2 0xFFD DUP3 PUSH2 0x903 JUMP JUMPDEST SWAP2 POP PUSH2 0x1008 DUP4 PUSH2 0x903 JUMP JUMPDEST SWAP3 POP DUP3 DUP3 SUB SWAP1 POP DUP2 DUP2 GT ISZERO PUSH2 0x1020 JUMPI PUSH2 0x101F PUSH2 0xFC3 JUMP JUMPDEST JUMPDEST SWAP3 SWAP2 POP POP JUMP JUMPDEST PUSH1 0x0 DUP3 DUP3 MSTORE PUSH1 0x20 DUP3 ADD SWAP1 POP SWAP3 SWAP2 POP POP JUMP JUMPDEST PUSH32 0x53747564656E7420646F6573206E6F7420657869747300000000000000000000 PUSH1 0x0 DUP3 ADD MSTORE POP JUMP JUMPDEST PUSH1 0x0 PUSH2 0x106D PUSH1 0x16 DUP4 PUSH2 0x1026 JUMP JUMPDEST SWAP2 POP PUSH2 0x1078 DUP3 PUSH2 0x1037 JUMP JUMPDEST PUSH1 0x20 DUP3 ADD SWAP1 POP SWAP2 SWAP1 POP JUMP JUMPDEST PUSH1 0x0 PUSH1 0x20 DUP3 ADD SWAP1 POP DUP2 DUP2 SUB PUSH1 0x0 DUP4 ADD MSTORE PUSH2 0x109C DUP2 PUSH2 0x1060 JUMP JUMPDEST SWAP1 POP SWAP2 SWAP1 POP JUMP JUMPDEST PUSH32 0x4E487B7100000000000000000000000000000000000000000000000000000000 PUSH1 0x0 MSTORE PUSH1 0x32 PUSH1 0x4 MSTORE PUSH1 0x24 PUSH1 0x0 REVERT JUMPDEST PUSH32 0x4E487B7100000000000000000000000000000000000000000000000000000000 PUSH1 0x0 MSTORE PUSH1 0x22 PUSH1 0x4 MSTORE PUSH1 0x24 PUSH1 0x0 REVERT JUMPDEST PUSH1 0x0 PUSH1 0x2 DUP3 DIV SWAP1 POP PUSH1 0x1 DUP3 AND DUP1 PUSH2 0x1119 JUMPI PUSH1 0x7F DUP3 AND SWAP2 POP JUMPDEST PUSH1 0x20 DUP3 LT DUP2 SUB PUSH2 0x112C JUMPI PUSH2 0x112B PUSH2 0x10D2 JUMP JUMPDEST JUMPDEST POP SWAP2 SWAP1 POP JUMP JUMPDEST PUSH1 0x0 DUP2 SWAP1 POP DUP2 PUSH1 0x0 MSTORE PUSH1 0x20 PUSH1 0x0 KECCAK256 SWAP1 POP SWAP2 SWAP1 POP JUMP JUMPDEST PUSH1 0x0 PUSH1 0x20 PUSH1 0x1F DUP4 ADD DIV SWAP1 POP SWAP2 SWAP1 POP JUMP JUMPDEST PUSH1 0x0 DUP3 DUP3 SHL SWAP1 POP SWAP3 SWAP2 POP POP JUMP JUMPDEST PUSH1 0x0 PUSH1 0x8 DUP4 MUL PUSH2 0x1194 PUSH32 0xFFFFFFFFFFFFFFFFFFFFFFFFFFFFFFFFFFFFFFFFFFFFFFFFFFFFFFFFFFFFFFFF DUP3 PUSH2 0x1157 JUMP JUMPDEST PUSH2 0x119E DUP7 DUP4 PUSH2 0x1157 JUMP JUMPDEST SWAP6 POP DUP1 NOT DUP5 AND SWAP4 POP DUP1 DUP7 AND DUP5 OR SWAP3 POP POP POP SWAP4 SWAP3 POP POP POP JUMP JUMPDEST PUSH1 0x0 DUP2 SWAP1 POP SWAP2 SWAP1 POP JUMP JUMPDEST PUSH1 0x0 PUSH2 0x11DB PUSH2 0x11D6 PUSH2 0x11D1 DUP5 PUSH2 0x903 JUMP JUMPDEST PUSH2 0x11B6 JUMP JUMPDEST PUSH2 0x903 JUMP JUMPDEST SWAP1 POP SWAP2 SWAP1 POP JUMP JUMPDEST PUSH1 0x0 DUP2 SWAP1 POP SWAP2 SWAP1 POP JUMP JUMPDEST PUSH2 0x11F5 DUP4 PUSH2 0x11C0 JUMP JUMPDEST PUSH2 0x1209 PUSH2 0x1201 DUP3 PUSH2 0x11E2 JUMP JUMPDEST DUP5 DUP5 SLOAD PUSH2 0x1164 JUMP JUMPDEST DUP3 SSTORE POP POP POP POP JUMP JUMPDEST PUSH1 0x0 SWAP1 JUMP JUMPDEST PUSH2 0x121E PUSH2 0x1211 JUMP JUMPDEST PUSH2 0x1229 DUP2 DUP5 DUP5 PUSH2 0x11EC JUMP JUMPDEST POP POP POP JUMP JUMPDEST JUMPDEST DUP2 DUP2 LT ISZERO PUSH2 0x124D JUMPI PUSH2 0x1242 PUSH1 0x0 DUP3 PUSH2 0x1216 JUMP JUMPDEST PUSH1 0x1 DUP2 ADD SWAP1 POP PUSH2 0x122F JUMP JUMPDEST POP POP JUMP JUMPDEST PUSH1 0x1F DUP3 GT ISZERO PUSH2 0x1292 JUMPI PUSH2 0x1263 DUP2 PUSH2 0x1132 JUMP JUMPDEST PUSH2 0x126C DUP5 PUSH2 0x1147 JUMP JUMPDEST DUP2 ADD PUSH1 0x20 DUP6 LT ISZERO PUSH2 0x127B JUMPI DUP2 SWAP1 POP JUMPDEST PUSH2 0x128F PUSH2 0x1287 DUP6 PUSH2 0x1147 JUMP JUMPDEST DUP4 ADD DUP3 PUSH2 0x122E JUMP JUMPDEST POP POP JUMPDEST POP POP POP JUMP JUMPDEST PUSH1 0x0 DUP3 DUP3 SHR SWAP1 POP SWAP3 SWAP2 POP POP JUMP JUMPDEST PUSH1 0x0 PUSH2 0x12B5 PUSH1 0x0 NOT DUP5 PUSH1 0x8 MUL PUSH2 0x1297 JUMP JUMPDEST NOT DUP1 DUP4 AND SWAP2 POP POP SWAP3 SWAP2 POP POP JUMP JUMPDEST PUSH1 0x0 PUSH2 0x12CE DUP4 DUP4 PUSH2 0x12A4 JUMP JUMPDEST SWAP2 POP DUP3 PUSH1 0x2 MUL DUP3 OR SWAP1 POP SWAP3 SWAP2 POP POP JUMP JUMPDEST PUSH2 0x12E7 DUP3 PUSH2 0x975 JUMP JUMPDEST PUSH8 0xFFFFFFFFFFFFFFFF DUP2 GT ISZERO PUSH2 0x1300 JUMPI PUSH2 0x12FF PUSH2 0xCDC JUMP JUMPDEST JUMPDEST PUSH2 0x130A DUP3 SLOAD PUSH2 0x1101 JUMP JUMPDEST PUSH2 0x1315 DUP3 DUP3 DUP6 PUSH2 0x1251 JUMP JUMPDEST PUSH1 0x0 PUSH1 0x20 SWAP1 POP PUSH1 0x1F DUP4 GT PUSH1 0x1 DUP2 EQ PUSH2 0x1348 JUMPI PUSH1 0x0 DUP5 ISZERO PUSH2 0x1336 JUMPI DUP3 DUP8 ADD MLOAD SWAP1 POP JUMPDEST PUSH2 0x1340 DUP6 DUP3 PUSH2 0x12C2 JUMP JUMPDEST DUP7 SSTORE POP PUSH2 0x13A8 JUMP JUMPDEST PUSH1 0x1F NOT DUP5 AND PUSH2 0x1356 DUP7 PUSH2 0x1132 JUMP JUMPDEST PUSH1 0x0 JUMPDEST DUP3 DUP2 LT ISZERO PUSH2 0x137E JUMPI DUP5 DUP10 ADD MLOAD DUP3 SSTORE PUSH1 0x1 DUP3 ADD SWAP2 POP PUSH1 0x20 DUP6 ADD SWAP5 POP PUSH1 0x20 DUP2 ADD SWAP1 POP PUSH2 0x1359 JUMP JUMPDEST DUP7 DUP4 LT ISZERO PUSH2 0x139B JUMPI DUP5 DUP10 ADD MLOAD PUSH2 0x1397 PUSH1 0x1F DUP10 AND DUP3 PUSH2 0x12A4 JUMP JUMPDEST DUP4 SSTORE POP JUMPDEST PUSH1 0x1 PUSH1 0x2 DUP9 MUL ADD DUP9 SSTORE POP POP POP JUMPDEST POP POP POP POP POP POP JUMP JUMPDEST PUSH1 0x0 PUSH2 0x13BB DUP3 PUSH2 0x903 JUMP JUMPDEST SWAP2 POP PUSH32 0xFFFFFFFFFFFFFFFFFFFFFFFFFFFFFFFFFFFFFFFFFFFFFFFFFFFFFFFFFFFFFFFF DUP3 SUB PUSH2 0x13ED JUMPI PUSH2 0x13EC PUSH2 0xFC3 JUMP JUMPDEST JUMPDEST PUSH1 0x1 DUP3 ADD SWAP1 POP SWAP2 SWAP1 POP JUMP INVALID LOG2 PUSH5 0x6970667358 0x22 SLT KECCAK256 0x27 0xD9 MUL 0xE0 0xAE CALLCODE MLOAD JUMPI COINBASE SWAP4 CREATE2 0xD7 0xE4 MOD JUMPI 0xE4 0xE6 PUSH29 0xFE9512FE4F2AE5F5F2AD9764F69B64736F6C6343000814003300000000 "
        },
        "methodIdentifiers": {
          "change_student_status(uint8,uint8)": "f4245620",
          "delete_student(uint256)": "3f09a538",
          "get_student(uint256)": "37357b3a",
          "get_students()": "a9189b0c",
          "register_student(string,uint8,uint8)": "fdb14e98",
          "update_student(uint256,string,uint8,uint8,uint8)": "ccd693e0"
        }
      }
    }
  }
}