{
  "_format": "hh-sol-artifact-1",
  "contractName": "Web3GarageAccess",
  "sourceName": "contracts/Web3GarageAccess.sol",
  "abi": [
    {
      "inputs": [],
      "stateMutability": "nonpayable",
      "type": "constructor"
    },
    {
      "inputs": [
        {
          "internalType": "address",
          "name": "employeeAddress",
          "type": "address"
        },
        {
          "internalType": "string",
          "name": "name",
          "type": "string"
        },
        {
          "internalType": "enum Web3GarageAccess.Role",
          "name": "role",
          "type": "uint8"
        },
        {
          "internalType": "bool",
          "name": "isEmployed",
          "type": "bool"
        }
      ],
      "name": "addEmployee",
      "outputs": [],
      "stateMutability": "nonpayable",
      "type": "function"
    },
    {
      "inputs": [
        {
          "internalType": "uint256",
          "name": "",
          "type": "uint256"
        }
      ],
      "name": "allEmployees",
      "outputs": [
        {
          "internalType": "address",
          "name": "",
          "type": "address"
        }
      ],
      "stateMutability": "view",
      "type": "function"
    },
    {
      "inputs": [
        {
          "internalType": "address",
          "name": "employeeAddress",
          "type": "address"
        }
      ],
      "name": "canAccessGarage",
      "outputs": [
        {
          "internalType": "bool",
          "name": "",
          "type": "bool"
        }
      ],
      "stateMutability": "view",
      "type": "function"
    },
    {
      "inputs": [
        {
          "internalType": "address",
          "name": "",
          "type": "address"
        }
      ],
      "name": "employees",
      "outputs": [
        {
          "internalType": "string",
          "name": "name",
          "type": "string"
        },
        {
          "internalType": "enum Web3GarageAccess.Role",
          "name": "role",
          "type": "uint8"
        },
        {
          "internalType": "bool",
          "name": "isEmployed",
          "type": "bool"
        }
      ],
      "stateMutability": "view",
      "type": "function"
    },
    {
      "inputs": [],
      "name": "getAllEmployees",
      "outputs": [
        {
          "internalType": "address[]",
          "name": "",
          "type": "address[]"
        }
      ],
      "stateMutability": "view",
      "type": "function"
    },
    {
      "inputs": [
        {
          "internalType": "address",
          "name": "employeeAddress",
          "type": "address"
        }
      ],
      "name": "getEmployee",
      "outputs": [
        {
          "internalType": "string",
          "name": "name",
          "type": "string"
        },
        {
          "internalType": "enum Web3GarageAccess.Role",
          "name": "role",
          "type": "uint8"
        },
        {
          "internalType": "bool",
          "name": "isEmployed",
          "type": "bool"
        },
        {
          "internalType": "bool",
          "name": "hasGarageAccess",
          "type": "bool"
        }
      ],
      "stateMutability": "view",
      "type": "function"
    },
    {
      "inputs": [],
      "name": "owner",
      "outputs": [
        {
          "internalType": "address",
          "name": "",
          "type": "address"
        }
      ],
      "stateMutability": "view",
      "type": "function"
    }
  ],
  "bytecode": "0x6080604052348015600f57600080fd5b5033600260006101000a81548173ffffffffffffffffffffffffffffffffffffffff021916908373ffffffffffffffffffffffffffffffffffffffff160217905550611310806100606000396000f3fe608060405234801561001057600080fd5b506004361061007d5760003560e01c80639a3416ed1161005b5780639a3416ed14610103578063b24e34c81461011f578063d06789471461014f578063e3366fed146101815761007d565b806332648e091461008257806385340eb4146100b55780638da5cb5b146100e5575b600080fd5b61009c600480360381019061009791906109f7565b61019f565b6040516100ac9493929190610b46565b60405180910390f35b6100cf60048036038101906100ca9190610bc8565b610302565b6040516100dc9190610c04565b60405180910390f35b6100ed610341565b6040516100fa9190610c04565b60405180910390f35b61011d60048036038101906101189190610da5565b610367565b005b610139600480360381019061013491906109f7565b6105dc565b6040516101469190610e28565b60405180910390f35b610169600480360381019061016491906109f7565b61082b565b60405161017893929190610e43565b60405180910390f35b6101896108f7565b6040516101969190610f3f565b60405180910390f35b60606000806000806000808773ffffffffffffffffffffffffffffffffffffffff1673ffffffffffffffffffffffffffffffffffffffff16815260200190815260200160002060405180606001604052908160008201805461020090610f90565b80601f016020809104026020016040519081016040528092919081815260200182805461022c90610f90565b80156102795780601f1061024e57610100808354040283529160200191610279565b820191906000526020600020905b81548152906001019060200180831161025c57829003601f168201915b505050505081526020016001820160009054906101000a900460ff1660058111156102a7576102a6610ab4565b5b60058111156102b9576102b8610ab4565b5b81526020016001820160019054906101000a900460ff16151515158152505090508060000151816020015182604001516102f2896105dc565b9450945094509450509193509193565b6001818154811061031257600080fd5b906000526020600020016000915054906101000a900473ffffffffffffffffffffffffffffffffffffffff1681565b600260009054906101000a900473ffffffffffffffffffffffffffffffffffffffff1681565b600260009054906101000a900473ffffffffffffffffffffffffffffffffffffffff1673ffffffffffffffffffffffffffffffffffffffff163373ffffffffffffffffffffffffffffffffffffffff16146103f7576040517f08c379a00000000000000000000000000000000000000000000000000000000081526004016103ee9061100d565b60405180910390fd5b60006001905060005b600180549050811015610494578573ffffffffffffffffffffffffffffffffffffffff16600182815481106104385761043761102d565b5b9060005260206000200160009054906101000a900473ffffffffffffffffffffffffffffffffffffffff1673ffffffffffffffffffffffffffffffffffffffff16036104875760009150610494565b8080600101915050610400565b5080156104ff576001859080600181540180825580915050600190039060005260206000200160009091909190916101000a81548173ffffffffffffffffffffffffffffffffffffffff021916908373ffffffffffffffffffffffffffffffffffffffff1602179055505b604051806060016040528085815260200184600581111561052357610522610ab4565b5b81526020018315158152506000808773ffffffffffffffffffffffffffffffffffffffff1673ffffffffffffffffffffffffffffffffffffffff16815260200190815260200160002060008201518160000190816105819190611208565b5060208201518160010160006101000a81548160ff021916908360058111156105ad576105ac610ab4565b5b021790555060408201518160010160016101000a81548160ff0219169083151502179055509050505050505050565b6000806000808473ffffffffffffffffffffffffffffffffffffffff1673ffffffffffffffffffffffffffffffffffffffff16815260200190815260200160002060405180606001604052908160008201805461063890610f90565b80601f016020809104026020016040519081016040528092919081815260200182805461066490610f90565b80156106b15780601f10610686576101008083540402835291602001916106b1565b820191906000526020600020905b81548152906001019060200180831161069457829003601f168201915b505050505081526020016001820160009054906101000a900460ff1660058111156106df576106de610ab4565b5b60058111156106f1576106f0610ab4565b5b81526020016001820160019054906101000a900460ff16151515158152505090508060400151610725576000915050610826565b600060405180606001604052806000600581111561074657610745610ab4565b5b600581111561075857610757610ab4565b5b81526020016001600581111561077157610770610ab4565b5b600581111561078357610782610ab4565b5b81526020016002600581111561079c5761079b610ab4565b5b60058111156107ae576107ad610ab4565b5b815250905060005b600381101561081e578181600381106107d2576107d161102d565b5b602002015160058111156107e9576107e8610ab4565b5b83602001516005811115610800576107ff610ab4565b5b036108115760019350505050610826565b80806001019150506107b6565b506000925050505b919050565b600060205280600052604060002060009150905080600001805461084e90610f90565b80601f016020809104026020016040519081016040528092919081815260200182805461087a90610f90565b80156108c75780601f1061089c576101008083540402835291602001916108c7565b820191906000526020600020905b8154815290600101906020018083116108aa57829003601f168201915b5050505050908060010160009054906101000a900460ff16908060010160019054906101000a900460ff16905083565b6060600180548060200260200160405190810160405280929190818152602001828054801561097b57602002820191906000526020600020905b8160009054906101000a900473ffffffffffffffffffffffffffffffffffffffff1673ffffffffffffffffffffffffffffffffffffffff1681526020019060010190808311610931575b5050505050905090565b6000604051905090565b600080fd5b600080fd5b600073ffffffffffffffffffffffffffffffffffffffff82169050919050565b60006109c482610999565b9050919050565b6109d4816109b9565b81146109df57600080fd5b50565b6000813590506109f1816109cb565b92915050565b600060208284031215610a0d57610a0c61098f565b5b6000610a1b848285016109e2565b91505092915050565b600081519050919050565b600082825260208201905092915050565b60005b83811015610a5e578082015181840152602081019050610a43565b60008484015250505050565b6000601f19601f8301169050919050565b6000610a8682610a24565b610a908185610a2f565b9350610aa0818560208601610a40565b610aa981610a6a565b840191505092915050565b7f4e487b7100000000000000000000000000000000000000000000000000000000600052602160045260246000fd5b60068110610af457610af3610ab4565b5b50565b6000819050610b0582610ae3565b919050565b6000610b1582610af7565b9050919050565b610b2581610b0a565b82525050565b60008115159050919050565b610b4081610b2b565b82525050565b60006080820190508181036000830152610b608187610a7b565b9050610b6f6020830186610b1c565b610b7c6040830185610b37565b610b896060830184610b37565b95945050505050565b6000819050919050565b610ba581610b92565b8114610bb057600080fd5b50565b600081359050610bc281610b9c565b92915050565b600060208284031215610bde57610bdd61098f565b5b6000610bec84828501610bb3565b91505092915050565b610bfe816109b9565b82525050565b6000602082019050610c196000830184610bf5565b92915050565b600080fd5b600080fd5b7f4e487b7100000000000000000000000000000000000000000000000000000000600052604160045260246000fd5b610c6182610a6a565b810181811067ffffffffffffffff82111715610c8057610c7f610c29565b5b80604052505050565b6000610c93610985565b9050610c9f8282610c58565b919050565b600067ffffffffffffffff821115610cbf57610cbe610c29565b5b610cc882610a6a565b9050602081019050919050565b82818337600083830152505050565b6000610cf7610cf284610ca4565b610c89565b905082815260208101848484011115610d1357610d12610c24565b5b610d1e848285610cd5565b509392505050565b600082601f830112610d3b57610d3a610c1f565b5b8135610d4b848260208601610ce4565b91505092915050565b60068110610d6157600080fd5b50565b600081359050610d7381610d54565b92915050565b610d8281610b2b565b8114610d8d57600080fd5b50565b600081359050610d9f81610d79565b92915050565b60008060008060808587031215610dbf57610dbe61098f565b5b6000610dcd878288016109e2565b945050602085013567ffffffffffffffff811115610dee57610ded610994565b5b610dfa87828801610d26565b9350506040610e0b87828801610d64565b9250506060610e1c87828801610d90565b91505092959194509250565b6000602082019050610e3d6000830184610b37565b92915050565b60006060820190508181036000830152610e5d8186610a7b565b9050610e6c6020830185610b1c565b610e796040830184610b37565b949350505050565b600081519050919050565b600082825260208201905092915050565b6000819050602082019050919050565b610eb6816109b9565b82525050565b6000610ec88383610ead565b60208301905092915050565b6000602082019050919050565b6000610eec82610e81565b610ef68185610e8c565b9350610f0183610e9d565b8060005b83811015610f32578151610f198882610ebc565b9750610f2483610ed4565b925050600181019050610f05565b5085935050505092915050565b60006020820190508181036000830152610f598184610ee1565b905092915050565b7f4e487b7100000000000000000000000000000000000000000000000000000000600052602260045260246000fd5b60006002820490506001821680610fa857607f821691505b602082108103610fbb57610fba610f61565b5b50919050565b7f4f6e6c79206f776e657220616363657373000000000000000000000000000000600082015250565b6000610ff7601183610a2f565b915061100282610fc1565b602082019050919050565b6000602082019050818103600083015261102681610fea565b9050919050565b7f4e487b7100000000000000000000000000000000000000000000000000000000600052603260045260246000fd5b60008190508160005260206000209050919050565b60006020601f8301049050919050565b600082821b905092915050565b6000600883026110be7fffffffffffffffffffffffffffffffffffffffffffffffffffffffffffffffff82611081565b6110c88683611081565b95508019841693508086168417925050509392505050565b6000819050919050565b60006111056111006110fb84610b92565b6110e0565b610b92565b9050919050565b6000819050919050565b61111f836110ea565b61113361112b8261110c565b84845461108e565b825550505050565b600090565b61114861113b565b611153818484611116565b505050565b5b818110156111775761116c600082611140565b600181019050611159565b5050565b601f8211156111bc5761118d8161105c565b61119684611071565b810160208510156111a5578190505b6111b96111b185611071565b830182611158565b50505b505050565b600082821c905092915050565b60006111df600019846008026111c1565b1980831691505092915050565b60006111f883836111ce565b9150826002028217905092915050565b61121182610a24565b67ffffffffffffffff81111561122a57611229610c29565b5b6112348254610f90565b61123f82828561117b565b600060209050601f8311600181146112725760008415611260578287015190505b61126a85826111ec565b8655506112d2565b601f1984166112808661105c565b60005b828110156112a857848901518255600182019150602085019450602081019050611283565b868310156112c557848901516112c1601f8916826111ce565b8355505b6001600288020188555050505b50505050505056fea26469706673582212203fc84a7398000742dcf268d1d6b1f7ef960d8ee10e48f4e5b1e7b253b1ed84d764736f6c634300081e0033",
  "linkReferences": {},
  "deployedLinkReferences": {}
}