{"abi":[{"type":"constructor","inputs":[{"name":"name_","type":"string","internalType":"string"},{"name":"symbol_","type":"string","internalType":"string"},{"name":"initialOwner","type":"address","internalType":"address"}],"stateMutability":"nonpayable"},{"type":"function","name":"approve","inputs":[{"name":"to","type":"address","internalType":"address"},{"name":"tokenId","type":"uint256","internalType":"uint256"}],"outputs":[],"stateMutability":"nonpayable"},{"type":"function","name":"balanceOf","inputs":[{"name":"owner","type":"address","internalType":"address"}],"outputs":[{"name":"","type":"uint256","internalType":"uint256"}],"stateMutability":"view"},{"type":"function","name":"getApproved","inputs":[{"name":"tokenId","type":"uint256","internalType":"uint256"}],"outputs":[{"name":"","type":"address","internalType":"address"}],"stateMutability":"view"},{"type":"function","name":"isApprovedForAll","inputs":[{"name":"owner","type":"address","internalType":"address"},{"name":"operator","type":"address","internalType":"address"}],"outputs":[{"name":"","type":"bool","internalType":"bool"}],"stateMutability":"view"},{"type":"function","name":"mintBilalNFT","inputs":[{"name":"to","type":"address","internalType":"address"},{"name":"tokenURI","type":"string","internalType":"string"}],"outputs":[],"stateMutability":"nonpayable"},{"type":"function","name":"name","inputs":[],"outputs":[{"name":"","type":"string","internalType":"string"}],"stateMutability":"view"},{"type":"function","name":"nextTokenId","inputs":[],"outputs":[{"name":"","type":"uint256","internalType":"uint256"}],"stateMutability":"view"},{"type":"function","name":"owner","inputs":[],"outputs":[{"name":"","type":"address","internalType":"address"}],"stateMutability":"view"},{"type":"function","name":"ownerOf","inputs":[{"name":"tokenId","type":"uint256","internalType":"uint256"}],"outputs":[{"name":"","type":"address","internalType":"address"}],"stateMutability":"view"},{"type":"function","name":"renounceOwnership","inputs":[],"outputs":[],"stateMutability":"nonpayable"},{"type":"function","name":"safeTransferFrom","inputs":[{"name":"from","type":"address","internalType":"address"},{"name":"to","type":"address","internalType":"address"},{"name":"tokenId","type":"uint256","internalType":"uint256"}],"outputs":[],"stateMutability":"nonpayable"},{"type":"function","name":"safeTransferFrom","inputs":[{"name":"from","type":"address","internalType":"address"},{"name":"to","type":"address","internalType":"address"},{"name":"tokenId","type":"uint256","internalType":"uint256"},{"name":"data","type":"bytes","internalType":"bytes"}],"outputs":[],"stateMutability":"nonpayable"},{"type":"function","name":"setApprovalForAll","inputs":[{"name":"operator","type":"address","internalType":"address"},{"name":"approved","type":"bool","internalType":"bool"}],"outputs":[],"stateMutability":"nonpayable"},{"type":"function","name":"supportsInterface","inputs":[{"name":"interfaceId","type":"bytes4","internalType":"bytes4"}],"outputs":[{"name":"","type":"bool","internalType":"bool"}],"stateMutability":"view"},{"type":"function","name":"symbol","inputs":[],"outputs":[{"name":"","type":"string","internalType":"string"}],"stateMutability":"view"},{"type":"function","name":"tokenURI","inputs":[{"name":"tokenId","type":"uint256","internalType":"uint256"}],"outputs":[{"name":"","type":"string","internalType":"string"}],"stateMutability":"view"},{"type":"function","name":"transferFrom","inputs":[{"name":"from","type":"address","internalType":"address"},{"name":"to","type":"address","internalType":"address"},{"name":"tokenId","type":"uint256","internalType":"uint256"}],"outputs":[],"stateMutability":"nonpayable"},{"type":"function","name":"transferOwnership","inputs":[{"name":"newOwner","type":"address","internalType":"address"}],"outputs":[],"stateMutability":"nonpayable"},{"type":"event","name":"Approval","inputs":[{"name":"owner","type":"address","indexed":true,"internalType":"address"},{"name":"approved","type":"address","indexed":true,"internalType":"address"},{"name":"tokenId","type":"uint256","indexed":true,"internalType":"uint256"}],"anonymous":false},{"type":"event","name":"ApprovalForAll","inputs":[{"name":"owner","type":"address","indexed":true,"internalType":"address"},{"name":"operator","type":"address","indexed":true,"internalType":"address"},{"name":"approved","type":"bool","indexed":false,"internalType":"bool"}],"anonymous":false},{"type":"event","name":"BatchMetadataUpdate","inputs":[{"name":"_fromTokenId","type":"uint256","indexed":false,"internalType":"uint256"},{"name":"_toTokenId","type":"uint256","indexed":false,"internalType":"uint256"}],"anonymous":false},{"type":"event","name":"MetadataUpdate","inputs":[{"name":"_tokenId","type":"uint256","indexed":false,"internalType":"uint256"}],"anonymous":false},{"type":"event","name":"OwnershipTransferred","inputs":[{"name":"previousOwner","type":"address","indexed":true,"internalType":"address"},{"name":"newOwner","type":"address","indexed":true,"internalType":"address"}],"anonymous":false},{"type":"event","name":"Transfer","inputs":[{"name":"from","type":"address","indexed":true,"internalType":"address"},{"name":"to","type":"address","indexed":true,"internalType":"address"},{"name":"tokenId","type":"uint256","indexed":true,"internalType":"uint256"}],"anonymous":false},{"type":"error","name":"ERC721IncorrectOwner","inputs":[{"name":"sender","type":"address","internalType":"address"},{"name":"tokenId","type":"uint256","internalType":"uint256"},{"name":"owner","type":"address","internalType":"address"}]},{"type":"error","name":"ERC721InsufficientApproval","inputs":[{"name":"operator","type":"address","internalType":"address"},{"name":"tokenId","type":"uint256","internalType":"uint256"}]},{"type":"error","name":"ERC721InvalidApprover","inputs":[{"name":"approver","type":"address","internalType":"address"}]},{"type":"error","name":"ERC721InvalidOperator","inputs":[{"name":"operator","type":"address","internalType":"address"}]},{"type":"error","name":"ERC721InvalidOwner","inputs":[{"name":"owner","type":"address","internalType":"address"}]},{"type":"error","name":"ERC721InvalidReceiver","inputs":[{"name":"receiver","type":"address","internalType":"address"}]},{"type":"error","name":"ERC721InvalidSender","inputs":[{"name":"sender","type":"address","internalType":"address"}]},{"type":"error","name":"ERC721NonexistentToken","inputs":[{"name":"tokenId","type":"uint256","internalType":"uint256"}]},{"type":"error","name":"OwnableInvalidOwner","inputs":[{"name":"owner","type":"address","internalType":"address"}]},{"type":"error","name":"OwnableUnauthorizedAccount","inputs":[{"name":"account","type":"address","internalType":"address"}]}],"bytecode":{"object":"0x608060405234801561000f575f5ffd5b50604051612c8b380380612c8b83398181016040528101906100319190610347565b808383815f908161004291906105df565b50806001908161005291906105df565b5050505f73ffffffffffffffffffffffffffffffffffffffff168173ffffffffffffffffffffffffffffffffffffffff16036100c5575f6040517f1e4fbdf70000000000000000000000000000000000000000000000000000000081526004016100bc91906106bd565b60405180910390fd5b6100d4816100dd60201b60201c565b505050506106d6565b5f60075f9054906101000a900473ffffffffffffffffffffffffffffffffffffffff1690508160075f6101000a81548173ffffffffffffffffffffffffffffffffffffffff021916908373ffffffffffffffffffffffffffffffffffffffff1602179055508173ffffffffffffffffffffffffffffffffffffffff168173ffffffffffffffffffffffffffffffffffffffff167f8be0079c531659141344cd1fd0a4f28419497f9722a3daafe3b4186f6b6457e060405160405180910390a35050565b5f604051905090565b5f5ffd5b5f5ffd5b5f5ffd5b5f5ffd5b5f601f19601f8301169050919050565b7f4e487b71000000000000000000000000000000000000000000000000000000005f52604160045260245ffd5b6101ff826101b9565b810181811067ffffffffffffffff8211171561021e5761021d6101c9565b5b80604052505050565b5f6102306101a0565b905061023c82826101f6565b919050565b5f67ffffffffffffffff82111561025b5761025a6101c9565b5b610264826101b9565b9050602081019050919050565b8281835e5f83830152505050565b5f61029161028c84610241565b610227565b9050828152602081018484840111156102ad576102ac6101b5565b5b6102b8848285610271565b509392505050565b5f82601f8301126102d4576102d36101b1565b5b81516102e484826020860161027f565b91505092915050565b5f73ffffffffffffffffffffffffffffffffffffffff82169050919050565b5f610316826102ed565b9050919050565b6103268161030c565b8114610330575f5ffd5b50565b5f815190506103418161031d565b92915050565b5f5f5f6060848603121561035e5761035d6101a9565b5b5f84015167ffffffffffffffff81111561037b5761037a6101ad565b5b610387868287016102c0565b935050602084015167ffffffffffffffff8111156103a8576103a76101ad565b5b6103b4868287016102c0565b92505060406103c586828701610333565b9150509250925092565b5f81519050919050565b7f4e487b71000000000000000000000000000000000000000000000000000000005f52602260045260245ffd5b5f600282049050600182168061041d57607f821691505b6020821081036104305761042f6103d9565b5b50919050565b5f819050815f5260205f209050919050565b5f6020601f8301049050919050565b5f82821b905092915050565b5f600883026104927fffffffffffffffffffffffffffffffffffffffffffffffffffffffffffffffff82610457565b61049c8683610457565b95508019841693508086168417925050509392505050565b5f819050919050565b5f819050919050565b5f6104e06104db6104d6846104b4565b6104bd565b6104b4565b9050919050565b5f819050919050565b6104f9836104c6565b61050d610505826104e7565b848454610463565b825550505050565b5f5f905090565b610524610515565b61052f8184846104f0565b505050565b5b81811015610552576105475f8261051c565b600181019050610535565b5050565b601f8211156105975761056881610436565b61057184610448565b81016020851015610580578190505b61059461058c85610448565b830182610534565b50505b505050565b5f82821c905092915050565b5f6105b75f198460080261059c565b1980831691505092915050565b5f6105cf83836105a8565b9150826002028217905092915050565b6105e8826103cf565b67ffffffffffffffff811115610601576106006101c9565b5b61060b8254610406565b610616828285610556565b5f60209050601f831160018114610647575f8415610635578287015190505b61063f85826105c4565b8655506106a6565b601f19841661065586610436565b5f5b8281101561067c57848901518255600182019150602085019450602081019050610657565b868310156106995784890151610695601f8916826105a8565b8355505b6001600288020188555050505b505050505050565b6106b78161030c565b82525050565b5f6020820190506106d05f8301846106ae565b92915050565b6125a8806106e35f395ff3fe608060405234801561000f575f5ffd5b5060043610610114575f3560e01c8063715018a6116100a0578063a22cb4651161006f578063a22cb465146102ca578063b88d4fde146102e6578063c87b56dd14610302578063e985e9c514610332578063f2fde38b1461036257610114565b8063715018a61461026657806375794a3c146102705780638da5cb5b1461028e57806395d89b41146102ac57610114565b806323b872dd116100e757806323b872dd146101b257806331022462146101ce57806342842e0e146101ea5780636352211e1461020657806370a082311461023657610114565b806301ffc9a71461011857806306fdde0314610148578063081812fc14610166578063095ea7b314610196575b5f5ffd5b610132600480360381019061012d9190611a78565b61037e565b60405161013f9190611abd565b60405180910390f35b6101506103de565b60405161015d9190611b46565b60405180910390f35b610180600480360381019061017b9190611b99565b61046d565b60405161018d9190611c03565b60405180910390f35b6101b060048036038101906101ab9190611c46565b610488565b005b6101cc60048036038101906101c79190611c84565b61049e565b005b6101e860048036038101906101e39190611e00565b61059d565b005b61020460048036038101906101ff9190611c84565b6105d8565b005b610220600480360381019061021b9190611b99565b6105f7565b60405161022d9190611c03565b60405180910390f35b610250600480360381019061024b9190611e5a565b610608565b60405161025d9190611e94565b60405180910390f35b61026e6106be565b005b6102786106d1565b6040516102859190611e94565b60405180910390f35b6102966106d7565b6040516102a39190611c03565b60405180910390f35b6102b46106ff565b6040516102c19190611b46565b60405180910390f35b6102e460048036038101906102df9190611ed7565b61078f565b005b61030060048036038101906102fb9190611fb3565b6107a5565b005b61031c60048036038101906103179190611b99565b6107ca565b6040516103299190611b46565b60405180910390f35b61034c60048036038101906103479190612033565b6108d5565b6040516103599190611abd565b60405180910390f35b61037c60048036038101906103779190611e5a565b610963565b005b5f634906490660e01b7bffffffffffffffffffffffffffffffffffffffffffffffffffffffff1916827bffffffffffffffffffffffffffffffffffffffffffffffffffffffff191614806103d757506103d6826109e7565b5b9050919050565b60605f80546103ec9061209e565b80601f01602080910402602001604051908101604052809291908181526020018280546104189061209e565b80156104635780601f1061043a57610100808354040283529160200191610463565b820191905f5260205f20905b81548152906001019060200180831161044657829003601f168201915b5050505050905090565b5f61047782610ac8565b5061048182610b4e565b9050919050565b61049a8282610495610b87565b610b8e565b5050565b5f73ffffffffffffffffffffffffffffffffffffffff168273ffffffffffffffffffffffffffffffffffffffff160361050e575f6040517f64a0ae920000000000000000000000000000000000000000000000000000000081526004016105059190611c03565b60405180910390fd5b5f610521838361051c610b87565b610ba0565b90508373ffffffffffffffffffffffffffffffffffffffff168173ffffffffffffffffffffffffffffffffffffffff1614610597578382826040517f64283d7b00000000000000000000000000000000000000000000000000000000815260040161058e939291906120ce565b60405180910390fd5b50505050565b6105a5610dab565b6105b182600854610e32565b6105bd60085482610e4f565b60085f8154809291906105cf90612130565b91905055505050565b6105f283838360405180602001604052805f8152506107a5565b505050565b5f61060182610ac8565b9050919050565b5f5f73ffffffffffffffffffffffffffffffffffffffff168273ffffffffffffffffffffffffffffffffffffffff1603610679575f6040517f89c62b640000000000000000000000000000000000000000000000000000000081526004016106709190611c03565b60405180910390fd5b60035f8373ffffffffffffffffffffffffffffffffffffffff1673ffffffffffffffffffffffffffffffffffffffff1681526020019081526020015f20549050919050565b6106c6610dab565b6106cf5f610ea9565b565b60085481565b5f60075f9054906101000a900473ffffffffffffffffffffffffffffffffffffffff16905090565b60606001805461070e9061209e565b80601f016020809104026020016040519081016040528092919081815260200182805461073a9061209e565b80156107855780601f1061075c57610100808354040283529160200191610785565b820191905f5260205f20905b81548152906001019060200180831161076857829003601f168201915b5050505050905090565b6107a161079a610b87565b8383610f6c565b5050565b6107b084848461049e565b6107c46107bb610b87565b858585856110d5565b50505050565b60606107d582610ac8565b505f60065f8481526020019081526020015f2080546107f39061209e565b80601f016020809104026020016040519081016040528092919081815260200182805461081f9061209e565b801561086a5780601f106108415761010080835404028352916020019161086a565b820191905f5260205f20905b81548152906001019060200180831161084d57829003601f168201915b505050505090505f61087a611281565b90505f81510361088e5781925050506108d0565b5f825111156108c25780826040516020016108aa9291906121b1565b604051602081830303815290604052925050506108d0565b6108cb84611297565b925050505b919050565b5f60055f8473ffffffffffffffffffffffffffffffffffffffff1673ffffffffffffffffffffffffffffffffffffffff1681526020019081526020015f205f8373ffffffffffffffffffffffffffffffffffffffff1673ffffffffffffffffffffffffffffffffffffffff1681526020019081526020015f205f9054906101000a900460ff16905092915050565b61096b610dab565b5f73ffffffffffffffffffffffffffffffffffffffff168173ffffffffffffffffffffffffffffffffffffffff16036109db575f6040517f1e4fbdf70000000000000000000000000000000000000000000000000000000081526004016109d29190611c03565b60405180910390fd5b6109e481610ea9565b50565b5f7f80ac58cd000000000000000000000000000000000000000000000000000000007bffffffffffffffffffffffffffffffffffffffffffffffffffffffff1916827bffffffffffffffffffffffffffffffffffffffffffffffffffffffff19161480610ab157507f5b5e139f000000000000000000000000000000000000000000000000000000007bffffffffffffffffffffffffffffffffffffffffffffffffffffffff1916827bffffffffffffffffffffffffffffffffffffffffffffffffffffffff1916145b80610ac15750610ac0826112fd565b5b9050919050565b5f5f610ad383611366565b90505f73ffffffffffffffffffffffffffffffffffffffff168173ffffffffffffffffffffffffffffffffffffffff1603610b4557826040517f7e273289000000000000000000000000000000000000000000000000000000008152600401610b3c9190611e94565b60405180910390fd5b80915050919050565b5f60045f8381526020019081526020015f205f9054906101000a900473ffffffffffffffffffffffffffffffffffffffff169050919050565b5f33905090565b610b9b838383600161139f565b505050565b5f5f610bab84611366565b90505f73ffffffffffffffffffffffffffffffffffffffff168373ffffffffffffffffffffffffffffffffffffffff1614610bec57610beb81848661155e565b5b5f73ffffffffffffffffffffffffffffffffffffffff168173ffffffffffffffffffffffffffffffffffffffff1614610c7757610c2b5f855f5f61139f565b600160035f8373ffffffffffffffffffffffffffffffffffffffff1673ffffffffffffffffffffffffffffffffffffffff1681526020019081526020015f205f82825403925050819055505b5f73ffffffffffffffffffffffffffffffffffffffff168573ffffffffffffffffffffffffffffffffffffffff1614610cf657600160035f8773ffffffffffffffffffffffffffffffffffffffff1673ffffffffffffffffffffffffffffffffffffffff1681526020019081526020015f205f82825401925050819055505b8460025f8681526020019081526020015f205f6101000a81548173ffffffffffffffffffffffffffffffffffffffff021916908373ffffffffffffffffffffffffffffffffffffffff160217905550838573ffffffffffffffffffffffffffffffffffffffff168273ffffffffffffffffffffffffffffffffffffffff167fddf252ad1be2c89b69c2b068fc378daa952ba7f163c4a11628f55a4df523b3ef60405160405180910390a4809150509392505050565b610db3610b87565b73ffffffffffffffffffffffffffffffffffffffff16610dd16106d7565b73ffffffffffffffffffffffffffffffffffffffff1614610e3057610df4610b87565b6040517f118cdaa7000000000000000000000000000000000000000000000000000000008152600401610e279190611c03565b60405180910390fd5b565b610e4b828260405180602001604052805f815250611621565b5050565b8060065f8481526020019081526020015f209081610e6d9190612374565b507ff8e1a15aba9398e019f0b49df1a4fde98ee17ae345cb5f6b5e2c27f5033e8ce782604051610e9d9190611e94565b60405180910390a15050565b5f60075f9054906101000a900473ffffffffffffffffffffffffffffffffffffffff1690508160075f6101000a81548173ffffffffffffffffffffffffffffffffffffffff021916908373ffffffffffffffffffffffffffffffffffffffff1602179055508173ffffffffffffffffffffffffffffffffffffffff168173ffffffffffffffffffffffffffffffffffffffff167f8be0079c531659141344cd1fd0a4f28419497f9722a3daafe3b4186f6b6457e060405160405180910390a35050565b5f73ffffffffffffffffffffffffffffffffffffffff168273ffffffffffffffffffffffffffffffffffffffff1603610fdc57816040517f5b08ba18000000000000000000000000000000000000000000000000000000008152600401610fd39190611c03565b60405180910390fd5b8060055f8573ffffffffffffffffffffffffffffffffffffffff1673ffffffffffffffffffffffffffffffffffffffff1681526020019081526020015f205f8473ffffffffffffffffffffffffffffffffffffffff1673ffffffffffffffffffffffffffffffffffffffff1681526020019081526020015f205f6101000a81548160ff0219169083151502179055508173ffffffffffffffffffffffffffffffffffffffff168373ffffffffffffffffffffffffffffffffffffffff167f17307eab39ab6107e8899845ad3d59bd9653f200f220920489ca2b5937696c31836040516110c89190611abd565b60405180910390a3505050565b5f8373ffffffffffffffffffffffffffffffffffffffff163b111561127a578273ffffffffffffffffffffffffffffffffffffffff1663150b7a02868685856040518563ffffffff1660e01b81526004016111339493929190612495565b6020604051808303815f875af192505050801561116e57506040513d601f19601f8201168201806040525081019061116b91906124f3565b60015b6111ef573d805f811461119c576040519150601f19603f3d011682016040523d82523d5f602084013e6111a1565b606091505b505f8151036111e757836040517f64a0ae920000000000000000000000000000000000000000000000000000000081526004016111de9190611c03565b60405180910390fd5b805160208201fd5b63150b7a0260e01b7bffffffffffffffffffffffffffffffffffffffffffffffffffffffff1916817bffffffffffffffffffffffffffffffffffffffffffffffffffffffff19161461127857836040517f64a0ae9200000000000000000000000000000000000000000000000000000000815260040161126f9190611c03565b60405180910390fd5b505b5050505050565b606060405180602001604052805f815250905090565b60606112a282610ac8565b505f6112ac611281565b90505f8151116112ca5760405180602001604052805f8152506112f5565b806112d484611644565b6040516020016112e59291906121b1565b6040516020818303038152906040525b915050919050565b5f7f01ffc9a7000000000000000000000000000000000000000000000000000000007bffffffffffffffffffffffffffffffffffffffffffffffffffffffff1916827bffffffffffffffffffffffffffffffffffffffffffffffffffffffff1916149050919050565b5f60025f8381526020019081526020015f205f9054906101000a900473ffffffffffffffffffffffffffffffffffffffff169050919050565b80806113d757505f73ffffffffffffffffffffffffffffffffffffffff168273ffffffffffffffffffffffffffffffffffffffff1614155b15611509575f6113e684610ac8565b90505f73ffffffffffffffffffffffffffffffffffffffff168373ffffffffffffffffffffffffffffffffffffffff161415801561145057508273ffffffffffffffffffffffffffffffffffffffff168173ffffffffffffffffffffffffffffffffffffffff1614155b8015611463575061146181846108d5565b155b156114a557826040517fa9fbf51f00000000000000000000000000000000000000000000000000000000815260040161149c9190611c03565b60405180910390fd5b811561150757838573ffffffffffffffffffffffffffffffffffffffff168273ffffffffffffffffffffffffffffffffffffffff167f8c5be1e5ebec7d5bd14f71427d1e84f3dd0314c0f7b2291e5b200ac8c7c3b92560405160405180910390a45b505b8360045f8581526020019081526020015f205f6101000a81548173ffffffffffffffffffffffffffffffffffffffff021916908373ffffffffffffffffffffffffffffffffffffffff16021790555050505050565b61156983838361170e565b61161c575f73ffffffffffffffffffffffffffffffffffffffff168373ffffffffffffffffffffffffffffffffffffffff16036115dd57806040517f7e2732890000000000000000000000000000000000000000000000000000000081526004016115d49190611e94565b60405180910390fd5b81816040517f177e802f00000000000000000000000000000000000000000000000000000000815260040161161392919061251e565b60405180910390fd5b505050565b61162b83836117ce565b61163f611636610b87565b5f8585856110d5565b505050565b60605f6001611652846118c1565b0190505f8167ffffffffffffffff8111156116705761166f611cdc565b5b6040519080825280601f01601f1916602001820160405280156116a25781602001600182028036833780820191505090505b5090505f82602083010190505b600115611703578080600190039150507f3031323334353637383961626364656600000000000000000000000000000000600a86061a8153600a85816116f8576116f7612545565b5b0494505f85036116af575b819350505050919050565b5f5f73ffffffffffffffffffffffffffffffffffffffff168373ffffffffffffffffffffffffffffffffffffffff16141580156117c557508273ffffffffffffffffffffffffffffffffffffffff168473ffffffffffffffffffffffffffffffffffffffff161480611786575061178584846108d5565b5b806117c457508273ffffffffffffffffffffffffffffffffffffffff166117ac83610b4e565b73ffffffffffffffffffffffffffffffffffffffff16145b5b90509392505050565b5f73ffffffffffffffffffffffffffffffffffffffff168273ffffffffffffffffffffffffffffffffffffffff160361183e575f6040517f64a0ae920000000000000000000000000000000000000000000000000000000081526004016118359190611c03565b60405180910390fd5b5f61184a83835f610ba0565b90505f73ffffffffffffffffffffffffffffffffffffffff168173ffffffffffffffffffffffffffffffffffffffff16146118bc575f6040517f73c6ac6e0000000000000000000000000000000000000000000000000000000081526004016118b39190611c03565b60405180910390fd5b505050565b5f5f5f90507a184f03e93ff9f4daa797ed6e38ed64bf6a1f010000000000000000831061191d577a184f03e93ff9f4daa797ed6e38ed64bf6a1f010000000000000000838161191357611912612545565b5b0492506040810190505b6d04ee2d6d415b85acef8100000000831061195a576d04ee2d6d415b85acef810000000083816119505761194f612545565b5b0492506020810190505b662386f26fc10000831061198957662386f26fc10000838161197f5761197e612545565b5b0492506010810190505b6305f5e10083106119b2576305f5e10083816119a8576119a7612545565b5b0492506008810190505b61271083106119d75761271083816119cd576119cc612545565b5b0492506004810190505b606483106119fa57606483816119f0576119ef612545565b5b0492506002810190505b600a8310611a09576001810190505b80915050919050565b5f604051905090565b5f5ffd5b5f5ffd5b5f7fffffffff0000000000000000000000000000000000000000000000000000000082169050919050565b611a5781611a23565b8114611a61575f5ffd5b50565b5f81359050611a7281611a4e565b92915050565b5f60208284031215611a8d57611a8c611a1b565b5b5f611a9a84828501611a64565b91505092915050565b5f8115159050919050565b611ab781611aa3565b82525050565b5f602082019050611ad05f830184611aae565b92915050565b5f81519050919050565b5f82825260208201905092915050565b8281835e5f83830152505050565b5f601f19601f8301169050919050565b5f611b1882611ad6565b611b228185611ae0565b9350611b32818560208601611af0565b611b3b81611afe565b840191505092915050565b5f6020820190508181035f830152611b5e8184611b0e565b905092915050565b5f819050919050565b611b7881611b66565b8114611b82575f5ffd5b50565b5f81359050611b9381611b6f565b92915050565b5f60208284031215611bae57611bad611a1b565b5b5f611bbb84828501611b85565b91505092915050565b5f73ffffffffffffffffffffffffffffffffffffffff82169050919050565b5f611bed82611bc4565b9050919050565b611bfd81611be3565b82525050565b5f602082019050611c165f830184611bf4565b92915050565b611c2581611be3565b8114611c2f575f5ffd5b50565b5f81359050611c4081611c1c565b92915050565b5f5f60408385031215611c5c57611c5b611a1b565b5b5f611c6985828601611c32565b9250506020611c7a85828601611b85565b9150509250929050565b5f5f5f60608486031215611c9b57611c9a611a1b565b5b5f611ca886828701611c32565b9350506020611cb986828701611c32565b9250506040611cca86828701611b85565b9150509250925092565b5f5ffd5b5f5ffd5b7f4e487b71000000000000000000000000000000000000000000000000000000005f52604160045260245ffd5b611d1282611afe565b810181811067ffffffffffffffff82111715611d3157611d30611cdc565b5b80604052505050565b5f611d43611a12565b9050611d4f8282611d09565b919050565b5f67ffffffffffffffff821115611d6e57611d6d611cdc565b5b611d7782611afe565b9050602081019050919050565b828183375f83830152505050565b5f611da4611d9f84611d54565b611d3a565b905082815260208101848484011115611dc057611dbf611cd8565b5b611dcb848285611d84565b509392505050565b5f82601f830112611de757611de6611cd4565b5b8135611df7848260208601611d92565b91505092915050565b5f5f60408385031215611e1657611e15611a1b565b5b5f611e2385828601611c32565b925050602083013567ffffffffffffffff811115611e4457611e43611a1f565b5b611e5085828601611dd3565b9150509250929050565b5f60208284031215611e6f57611e6e611a1b565b5b5f611e7c84828501611c32565b91505092915050565b611e8e81611b66565b82525050565b5f602082019050611ea75f830184611e85565b92915050565b611eb681611aa3565b8114611ec0575f5ffd5b50565b5f81359050611ed181611ead565b92915050565b5f5f60408385031215611eed57611eec611a1b565b5b5f611efa85828601611c32565b9250506020611f0b85828601611ec3565b9150509250929050565b5f67ffffffffffffffff821115611f2f57611f2e611cdc565b5b611f3882611afe565b9050602081019050919050565b5f611f57611f5284611f15565b611d3a565b905082815260208101848484011115611f7357611f72611cd8565b5b611f7e848285611d84565b509392505050565b5f82601f830112611f9a57611f99611cd4565b5b8135611faa848260208601611f45565b91505092915050565b5f5f5f5f60808587031215611fcb57611fca611a1b565b5b5f611fd887828801611c32565b9450506020611fe987828801611c32565b9350506040611ffa87828801611b85565b925050606085013567ffffffffffffffff81111561201b5761201a611a1f565b5b61202787828801611f86565b91505092959194509250565b5f5f6040838503121561204957612048611a1b565b5b5f61205685828601611c32565b925050602061206785828601611c32565b9150509250929050565b7f4e487b71000000000000000000000000000000000000000000000000000000005f52602260045260245ffd5b5f60028204905060018216806120b557607f821691505b6020821081036120c8576120c7612071565b5b50919050565b5f6060820190506120e15f830186611bf4565b6120ee6020830185611e85565b6120fb6040830184611bf4565b949350505050565b7f4e487b71000000000000000000000000000000000000000000000000000000005f52601160045260245ffd5b5f61213a82611b66565b91507fffffffffffffffffffffffffffffffffffffffffffffffffffffffffffffffff820361216c5761216b612103565b5b600182019050919050565b5f81905092915050565b5f61218b82611ad6565b6121958185612177565b93506121a5818560208601611af0565b80840191505092915050565b5f6121bc8285612181565b91506121c88284612181565b91508190509392505050565b5f819050815f5260205f209050919050565b5f6020601f8301049050919050565b5f82821b905092915050565b5f600883026122307fffffffffffffffffffffffffffffffffffffffffffffffffffffffffffffffff826121f5565b61223a86836121f5565b95508019841693508086168417925050509392505050565b5f819050919050565b5f61227561227061226b84611b66565b612252565b611b66565b9050919050565b5f819050919050565b61228e8361225b565b6122a261229a8261227c565b848454612201565b825550505050565b5f5f905090565b6122b96122aa565b6122c4818484612285565b505050565b5b818110156122e7576122dc5f826122b1565b6001810190506122ca565b5050565b601f82111561232c576122fd816121d4565b612306846121e6565b81016020851015612315578190505b612329612321856121e6565b8301826122c9565b50505b505050565b5f82821c905092915050565b5f61234c5f1984600802612331565b1980831691505092915050565b5f612364838361233d565b9150826002028217905092915050565b61237d82611ad6565b67ffffffffffffffff81111561239657612395611cdc565b5b6123a0825461209e565b6123ab8282856122eb565b5f60209050601f8311600181146123dc575f84156123ca578287015190505b6123d48582612359565b86555061243b565b601f1984166123ea866121d4565b5f5b82811015612411578489015182556001820191506020850194506020810190506123ec565b8683101561242e578489015161242a601f89168261233d565b8355505b6001600288020188555050505b505050505050565b5f81519050919050565b5f82825260208201905092915050565b5f61246782612443565b612471818561244d565b9350612481818560208601611af0565b61248a81611afe565b840191505092915050565b5f6080820190506124a85f830187611bf4565b6124b56020830186611bf4565b6124c26040830185611e85565b81810360608301526124d4818461245d565b905095945050505050565b5f815190506124ed81611a4e565b92915050565b5f6020828403121561250857612507611a1b565b5b5f612515848285016124df565b91505092915050565b5f6040820190506125315f830185611bf4565b61253e6020830184611e85565b9392505050565b7f4e487b71000000000000000000000000000000000000000000000000000000005f52601260045260245ffdfea2646970667358221220c43f190c81e6e55d0f1f6ef15837f62d3b5b12eb4402f1df48392ff68beaaa0764736f6c634300081c0033","linkReferences":{}},"methodIdentifiers":{"approve(address,uint256)":"095ea7b3","balanceOf(address)":"70a08231","getApproved(uint256)":"081812fc","isApprovedForAll(address,address)":"e985e9c5","mintBilalNFT(address,string)":"31022462","name()":"06fdde03","nextTokenId()":"75794a3c","owner()":"8da5cb5b","ownerOf(uint256)":"6352211e","renounceOwnership()":"715018a6","safeTransferFrom(address,address,uint256)":"42842e0e","safeTransferFrom(address,address,uint256,bytes)":"b88d4fde","setApprovalForAll(address,bool)":"a22cb465","supportsInterface(bytes4)":"01ffc9a7","symbol()":"95d89b41","tokenURI(uint256)":"c87b56dd","transferFrom(address,address,uint256)":"23b872dd","transferOwnership(address)":"f2fde38b"},"id":42}