{
  "_format": "hh-sol-artifact-1",
  "contractName": "TokenGatedDao",
  "sourceName": "contracts/TokenGatedDao.sol",
  "abi": [
    {
      "inputs": [
        {
          "internalType": "address",
          "name": "_nftAddress",
          "type": "address"
        },
        {
          "internalType": "address",
          "name": "_registry",
          "type": "address"
        }
      ],
      "stateMutability": "nonpayable",
      "type": "constructor"
    },
    {
      "inputs": [],
      "name": "ALREADY_VOTED",
      "type": "error"
    },
    {
      "inputs": [],
      "name": "DEADLINE_MUST_BE_IN_FUTURE",
      "type": "error"
    },
    {
      "inputs": [],
      "name": "NOT_AUTHORIZED",
      "type": "error"
    },
    {
      "inputs": [],
      "name": "PROPOSAL_ALREADY_EXECUTED",
      "type": "error"
    },
    {
      "inputs": [],
      "name": "PROPOSAL_NOT_APPROVED",
      "type": "error"
    },
    {
      "inputs": [],
      "name": "VOTING_PERIOD_ENDED",
      "type": "error"
    },
    {
      "inputs": [],
      "name": "DAO_EXECUTOR_ROLE",
      "outputs": [
        {
          "internalType": "bytes32",
          "name": "",
          "type": "bytes32"
        }
      ],
      "stateMutability": "view",
      "type": "function"
    },
    {
      "inputs": [],
      "name": "DAO_PROPOSAL_ROLE",
      "outputs": [
        {
          "internalType": "bytes32",
          "name": "",
          "type": "bytes32"
        }
      ],
      "stateMutability": "view",
      "type": "function"
    },
    {
      "inputs": [],
      "name": "DAO_VOTER_ROLE",
      "outputs": [
        {
          "internalType": "bytes32",
          "name": "",
          "type": "bytes32"
        }
      ],
      "stateMutability": "view",
      "type": "function"
    },
    {
      "inputs": [
        {
          "internalType": "string",
          "name": "description",
          "type": "string"
        },
        {
          "internalType": "uint256",
          "name": "tokenId",
          "type": "uint256"
        },
        {
          "internalType": "uint256",
          "name": "deadline",
          "type": "uint256"
        }
      ],
      "name": "createProposal",
      "outputs": [],
      "stateMutability": "nonpayable",
      "type": "function"
    },
    {
      "inputs": [
        {
          "internalType": "uint256",
          "name": "proposalId",
          "type": "uint256"
        },
        {
          "internalType": "uint256",
          "name": "tokenId",
          "type": "uint256"
        }
      ],
      "name": "executeProposal",
      "outputs": [],
      "stateMutability": "nonpayable",
      "type": "function"
    },
    {
      "inputs": [
        {
          "internalType": "uint256",
          "name": "proposalId",
          "type": "uint256"
        }
      ],
      "name": "getProposal",
      "outputs": [
        {
          "components": [
            {
              "internalType": "uint256",
              "name": "id",
              "type": "uint256"
            },
            {
              "internalType": "string",
              "name": "description",
              "type": "string"
            },
            {
              "internalType": "uint256",
              "name": "deadline",
              "type": "uint256"
            },
            {
              "internalType": "uint256",
              "name": "yesVotes",
              "type": "uint256"
            },
            {
              "internalType": "uint256",
              "name": "noVotes",
              "type": "uint256"
            },
            {
              "internalType": "bool",
              "name": "executed",
              "type": "bool"
            }
          ],
          "internalType": "struct ITokenGatedDAO.Proposal",
          "name": "",
          "type": "tuple"
        }
      ],
      "stateMutability": "view",
      "type": "function"
    },
    {
      "inputs": [
        {
          "internalType": "uint256",
          "name": "",
          "type": "uint256"
        },
        {
          "internalType": "address",
          "name": "",
          "type": "address"
        }
      ],
      "name": "hasVoted",
      "outputs": [
        {
          "internalType": "bool",
          "name": "",
          "type": "bool"
        }
      ],
      "stateMutability": "view",
      "type": "function"
    },
    {
      "inputs": [
        {
          "internalType": "uint256",
          "name": "",
          "type": "uint256"
        }
      ],
      "name": "proposalDetails",
      "outputs": [
        {
          "internalType": "uint256",
          "name": "id",
          "type": "uint256"
        },
        {
          "internalType": "string",
          "name": "description",
          "type": "string"
        },
        {
          "internalType": "uint256",
          "name": "deadline",
          "type": "uint256"
        },
        {
          "internalType": "uint256",
          "name": "yesVotes",
          "type": "uint256"
        },
        {
          "internalType": "uint256",
          "name": "noVotes",
          "type": "uint256"
        },
        {
          "internalType": "bool",
          "name": "executed",
          "type": "bool"
        }
      ],
      "stateMutability": "view",
      "type": "function"
    },
    {
      "inputs": [
        {
          "internalType": "uint256",
          "name": "",
          "type": "uint256"
        }
      ],
      "name": "proposals",
      "outputs": [
        {
          "internalType": "uint256",
          "name": "id",
          "type": "uint256"
        },
        {
          "internalType": "string",
          "name": "description",
          "type": "string"
        },
        {
          "internalType": "uint256",
          "name": "deadline",
          "type": "uint256"
        },
        {
          "internalType": "uint256",
          "name": "yesVotes",
          "type": "uint256"
        },
        {
          "internalType": "uint256",
          "name": "noVotes",
          "type": "uint256"
        },
        {
          "internalType": "bool",
          "name": "executed",
          "type": "bool"
        }
      ],
      "stateMutability": "view",
      "type": "function"
    },
    {
      "inputs": [
        {
          "internalType": "uint256",
          "name": "proposalId",
          "type": "uint256"
        },
        {
          "internalType": "uint256",
          "name": "tokenId",
          "type": "uint256"
        },
        {
          "internalType": "bool",
          "name": "support",
          "type": "bool"
        }
      ],
      "name": "vote",
      "outputs": [],
      "stateMutability": "nonpayable",
      "type": "function"
    }
  ],
  "bytecode": "0x608060405234801561001057600080fd5b506040516118ed3803806118ed8339818101604052810190610032919061011d565b81600160006101000a81548173ffffffffffffffffffffffffffffffffffffffff021916908373ffffffffffffffffffffffffffffffffffffffff160217905550806000806101000a81548173ffffffffffffffffffffffffffffffffffffffff021916908373ffffffffffffffffffffffffffffffffffffffff160217905550505061015d565b600080fd5b600073ffffffffffffffffffffffffffffffffffffffff82169050919050565b60006100ea826100bf565b9050919050565b6100fa816100df565b811461010557600080fd5b50565b600081519050610117816100f1565b92915050565b60008060408385031215610134576101336100ba565b5b600061014285828601610108565b925050602061015385828601610108565b9150509250929050565b6117818061016c6000396000f3fe608060405234801561001057600080fd5b506004361061009e5760003560e01c8063438596321161006657806343859632146101635780634d71a686146101935780636a18ff7a146101b157806387f5799d146101cd578063c7f758a8146101eb5761009e565b8063013cf08b146100a357806316e9eaec146100d85780631ab767121461010d57806322e2e12d1461012957806331693b9014610145575b600080fd5b6100bd60048036038101906100b89190610d8d565b61021b565b6040516100cf96959493929190610e74565b60405180910390f35b6100f260048036038101906100ed9190610d8d565b6102fc565b60405161010496959493929190610e74565b60405180910390f35b61012760048036038101906101229190610edc565b6103cd565b005b610143600480360381019061013e9190611051565b610612565b005b61014d610883565b60405161015a91906110d9565b60405180910390f35b61017d60048036038101906101789190611152565b6108a7565b60405161018a9190611192565b60405180910390f35b61019b6108d6565b6040516101a891906110d9565b60405180910390f35b6101cb60048036038101906101c691906111d9565b6108fa565b005b6101d5610bd6565b6040516101e291906110d9565b60405180910390f35b61020560048036038101906102009190610d8d565b610bfa565b604051610212919061131d565b60405180910390f35b6002818154811061022b57600080fd5b90600052602060002090600602016000915090508060000154908060010180546102549061136e565b80601f01602080910402602001604051908101604052809291908181526020018280546102809061136e565b80156102cd5780601f106102a2576101008083540402835291602001916102cd565b820191906000526020600020905b8154815290600101906020018083116102b057829003601f168201915b5050505050908060020154908060030154908060040154908060050160009054906101000a900460ff16905086565b60046020528060005260406000206000915090508060000154908060010180546103259061136e565b80601f01602080910402602001604051908101604052809291908181526020018280546103519061136e565b801561039e5780601f106103735761010080835404028352916020019161039e565b820191906000526020600020905b81548152906001019060200180831161038157829003601f168201915b5050505050908060020154908060030154908060040154908060050160009054906101000a900460ff16905086565b60006004600084815260200190815260200160002090503373ffffffffffffffffffffffffffffffffffffffff1660008054906101000a900473ffffffffffffffffffffffffffffffffffffffff1673ffffffffffffffffffffffffffffffffffffffff16633f916b48600160009054906101000a900473ffffffffffffffffffffffffffffffffffffffff16857ff591dda2e9b53c180cef2a1f29bc285ccc0649b7a0efc8de2ec0cfe024d46b966040518463ffffffff1660e01b815260040161049a939291906113ae565b602060405180830381865afa1580156104b7573d6000803e3d6000fd5b505050506040513d601f19601f820116820180604052508101906104db91906113fa565b73ffffffffffffffffffffffffffffffffffffffff1614610528576040517f3d83866f00000000000000000000000000000000000000000000000000000000815260040160405180910390fd5b8060020154421015610566576040517f47a6b59500000000000000000000000000000000000000000000000000000000815260040160405180910390fd5b8060050160009054906101000a900460ff16156105af576040517f44f967fa00000000000000000000000000000000000000000000000000000000815260040160405180910390fd5b80600401548160030154116105f0576040517f6f44326500000000000000000000000000000000000000000000000000000000815260040160405180910390fd5b60018160050160006101000a81548160ff021916908315150217905550505050565b3373ffffffffffffffffffffffffffffffffffffffff1660008054906101000a900473ffffffffffffffffffffffffffffffffffffffff1673ffffffffffffffffffffffffffffffffffffffff16633f916b48600160009054906101000a900473ffffffffffffffffffffffffffffffffffffffff16857ff591dda2e9b53c180cef2a1f29bc285ccc0649b7a0efc8de2ec0cfe024d46b966040518463ffffffff1660e01b81526004016106c8939291906113ae565b602060405180830381865afa1580156106e5573d6000803e3d6000fd5b505050506040513d601f19601f8201168201806040525081019061070991906113fa565b73ffffffffffffffffffffffffffffffffffffffff1614610756576040517f3d83866f00000000000000000000000000000000000000000000000000000000815260040160405180910390fd5b42811161078f576040517f45712dc700000000000000000000000000000000000000000000000000000000815260040160405180910390fd5b610797610d0b565b600560008154809291906107aa90611456565b91905055816000018181525050838160200181905250818160400181815250506000816060018181525050600081608001818152505060008160a0019015159081151581525050600281908060018154018082558091505060019003906000526020600020906006020160009091909190915060008201518160000155602082015181600101908161083c919061164a565b5060408201518160020155606082015181600301556080820151816004015560a08201518160050160006101000a81548160ff021916908315150217905550505050505050565b7ff591dda2e9b53c180cef2a1f29bc285ccc0649b7a0efc8de2ec0cfe024d46b9681565b60036020528160005260406000206020528060005260406000206000915091509054906101000a900460ff1681565b7fc974a44ddd19bb254171f614b6091df7ad05fe623f04357207baaf1b0e3565b681565b3373ffffffffffffffffffffffffffffffffffffffff1660008054906101000a900473ffffffffffffffffffffffffffffffffffffffff1673ffffffffffffffffffffffffffffffffffffffff16633f916b48600160009054906101000a900473ffffffffffffffffffffffffffffffffffffffff16857ff988e97773184b46d7f313432b779968e255a7f55248182ba5b775b407a9c7916040518463ffffffff1660e01b81526004016109b0939291906113ae565b602060405180830381865afa1580156109cd573d6000803e3d6000fd5b505050506040513d601f19601f820116820180604052508101906109f191906113fa565b73ffffffffffffffffffffffffffffffffffffffff1614610a3e576040517f3d83866f00000000000000000000000000000000000000000000000000000000815260040160405180910390fd5b6003600084815260200190815260200160002060003373ffffffffffffffffffffffffffffffffffffffff1673ffffffffffffffffffffffffffffffffffffffff16815260200190815260200160002060009054906101000a900460ff1615610ad3576040517feb20971100000000000000000000000000000000000000000000000000000000815260040160405180910390fd5b600060046000858152602001908152602001600020905080600201544210610b27576040517f47a6b59500000000000000000000000000000000000000000000000000000000815260040160405180910390fd5b60016003600086815260200190815260200160002060003373ffffffffffffffffffffffffffffffffffffffff1673ffffffffffffffffffffffffffffffffffffffff16815260200190815260200160002060006101000a81548160ff0219169083151502179055508115610bb557806003016000815480929190610bab90611456565b9190505550610bd0565b806004016000815480929190610bca90611456565b91905055505b50505050565b7ff988e97773184b46d7f313432b779968e255a7f55248182ba5b775b407a9c79181565b610c02610d0b565b60028281548110610c1657610c1561171c565b5b90600052602060002090600602016040518060c001604052908160008201548152602001600182018054610c499061136e565b80601f0160208091040260200160405190810160405280929190818152602001828054610c759061136e565b8015610cc25780601f10610c9757610100808354040283529160200191610cc2565b820191906000526020600020905b815481529060010190602001808311610ca557829003601f168201915b505050505081526020016002820154815260200160038201548152602001600482015481526020016005820160009054906101000a900460ff1615151515815250509050919050565b6040518060c0016040528060008152602001606081526020016000815260200160008152602001600081526020016000151581525090565b6000604051905090565b600080fd5b600080fd5b6000819050919050565b610d6a81610d57565b8114610d7557600080fd5b50565b600081359050610d8781610d61565b92915050565b600060208284031215610da357610da2610d4d565b5b6000610db184828501610d78565b91505092915050565b610dc381610d57565b82525050565b600081519050919050565b600082825260208201905092915050565b60005b83811015610e03578082015181840152602081019050610de8565b60008484015250505050565b6000601f19601f8301169050919050565b6000610e2b82610dc9565b610e358185610dd4565b9350610e45818560208601610de5565b610e4e81610e0f565b840191505092915050565b60008115159050919050565b610e6e81610e59565b82525050565b600060c082019050610e896000830189610dba565b8181036020830152610e9b8188610e20565b9050610eaa6040830187610dba565b610eb76060830186610dba565b610ec46080830185610dba565b610ed160a0830184610e65565b979650505050505050565b60008060408385031215610ef357610ef2610d4d565b5b6000610f0185828601610d78565b9250506020610f1285828601610d78565b9150509250929050565b600080fd5b600080fd5b7f4e487b7100000000000000000000000000000000000000000000000000000000600052604160045260246000fd5b610f5e82610e0f565b810181811067ffffffffffffffff82111715610f7d57610f7c610f26565b5b80604052505050565b6000610f90610d43565b9050610f9c8282610f55565b919050565b600067ffffffffffffffff821115610fbc57610fbb610f26565b5b610fc582610e0f565b9050602081019050919050565b82818337600083830152505050565b6000610ff4610fef84610fa1565b610f86565b9050828152602081018484840111156110105761100f610f21565b5b61101b848285610fd2565b509392505050565b600082601f83011261103857611037610f1c565b5b8135611048848260208601610fe1565b91505092915050565b60008060006060848603121561106a57611069610d4d565b5b600084013567ffffffffffffffff81111561108857611087610d52565b5b61109486828701611023565b93505060206110a586828701610d78565b92505060406110b686828701610d78565b9150509250925092565b6000819050919050565b6110d3816110c0565b82525050565b60006020820190506110ee60008301846110ca565b92915050565b600073ffffffffffffffffffffffffffffffffffffffff82169050919050565b600061111f826110f4565b9050919050565b61112f81611114565b811461113a57600080fd5b50565b60008135905061114c81611126565b92915050565b6000806040838503121561116957611168610d4d565b5b600061117785828601610d78565b92505060206111888582860161113d565b9150509250929050565b60006020820190506111a76000830184610e65565b92915050565b6111b681610e59565b81146111c157600080fd5b50565b6000813590506111d3816111ad565b92915050565b6000806000606084860312156111f2576111f1610d4d565b5b600061120086828701610d78565b935050602061121186828701610d78565b9250506040611222868287016111c4565b9150509250925092565b61123581610d57565b82525050565b600082825260208201905092915050565b600061125782610dc9565b611261818561123b565b9350611271818560208601610de5565b61127a81610e0f565b840191505092915050565b61128e81610e59565b82525050565b600060c0830160008301516112ac600086018261122c565b50602083015184820360208601526112c4828261124c565b91505060408301516112d9604086018261122c565b5060608301516112ec606086018261122c565b5060808301516112ff608086018261122c565b5060a083015161131260a0860182611285565b508091505092915050565b600060208201905081810360008301526113378184611294565b905092915050565b7f4e487b7100000000000000000000000000000000000000000000000000000000600052602260045260246000fd5b6000600282049050600182168061138657607f821691505b6020821081036113995761139861133f565b5b50919050565b6113a881611114565b82525050565b60006060820190506113c3600083018661139f565b6113d06020830185610dba565b6113dd60408301846110ca565b949350505050565b6000815190506113f481611126565b92915050565b6000602082840312156114105761140f610d4d565b5b600061141e848285016113e5565b91505092915050565b7f4e487b7100000000000000000000000000000000000000000000000000000000600052601160045260246000fd5b600061146182610d57565b91507fffffffffffffffffffffffffffffffffffffffffffffffffffffffffffffffff820361149357611492611427565b5b600182019050919050565b60008190508160005260206000209050919050565b60006020601f8301049050919050565b600082821b905092915050565b6000600883026115007fffffffffffffffffffffffffffffffffffffffffffffffffffffffffffffffff826114c3565b61150a86836114c3565b95508019841693508086168417925050509392505050565b6000819050919050565b600061154761154261153d84610d57565b611522565b610d57565b9050919050565b6000819050919050565b6115618361152c565b61157561156d8261154e565b8484546114d0565b825550505050565b600090565b61158a61157d565b611595818484611558565b505050565b5b818110156115b9576115ae600082611582565b60018101905061159b565b5050565b601f8211156115fe576115cf8161149e565b6115d8846114b3565b810160208510156115e7578190505b6115fb6115f3856114b3565b83018261159a565b50505b505050565b600082821c905092915050565b600061162160001984600802611603565b1980831691505092915050565b600061163a8383611610565b9150826002028217905092915050565b61165382610dc9565b67ffffffffffffffff81111561166c5761166b610f26565b5b611676825461136e565b6116818282856115bd565b600060209050601f8311600181146116b457600084156116a2578287015190505b6116ac858261162e565b865550611714565b601f1984166116c28661149e565b60005b828110156116ea578489015182556001820191506020850194506020810190506116c5565b868310156117075784890151611703601f891682611610565b8355505b6001600288020188555050505b505050505050565b7f4e487b7100000000000000000000000000000000000000000000000000000000600052603260045260246000fdfea2646970667358221220573cdec2af73ddf5953c09b11e9353a0757e5460d59b96fd6caa132d307e820b64736f6c634300081e0033",
  "linkReferences": {},
  "deployedLinkReferences": {}
}