{
  "contracts/LotteryGame.sol": {
    "LotteryGame": {
      "abi": [
        {
          "inputs": [
            {
              "internalType": "uint256",
              "name": "_lottery_price",
              "type": "uint256"
            }
          ],
          "stateMutability": "nonpayable",
          "type": "constructor"
        },
        {
          "inputs": [],
          "name": "Entry_fee_must_be_exactly_001_ETH",
          "type": "error"
        },
        {
          "inputs": [],
          "name": "Lottery_is_not_active",
          "type": "error"
        },
        {
          "inputs": [],
          "name": "Not_enough_players_to_select_a_winner",
          "type": "error"
        },
        {
          "inputs": [],
          "name": "You_have_already_joined_this_round",
          "type": "error"
        },
        {
          "anonymous": false,
          "inputs": [
            {
              "indexed": false,
              "internalType": "string",
              "name": "",
              "type": "string"
            }
          ],
          "name": "PlayerJoined",
          "type": "event"
        },
        {
          "anonymous": false,
          "inputs": [
            {
              "indexed": false,
              "internalType": "address",
              "name": "",
              "type": "address"
            },
            {
              "indexed": false,
              "internalType": "string",
              "name": "",
              "type": "string"
            }
          ],
          "name": "WinnerEvent",
          "type": "event"
        },
        {
          "stateMutability": "payable",
          "type": "fallback"
        },
        {
          "inputs": [],
          "name": "joinLottery",
          "outputs": [],
          "stateMutability": "payable",
          "type": "function"
        },
        {
          "stateMutability": "payable",
          "type": "receive"
        }
      ],
      "evm": {
        "bytecode": {
          "linkReferences": {},
          "object": "6080604052348015600f57600080fd5b506040516109bf3803806109bf8339818101604052810190602f9190608c565b806002819055506001600360146101000a81548160ff0219169083151502179055505060b4565b600080fd5b6000819050919050565b606c81605b565b8114607657600080fd5b50565b6000815190506086816065565b92915050565b600060208284031215609f57609e6056565b5b600060ab848285016079565b91505092915050565b6108fc806100c36000396000f3fe6080604052600436106100225760003560e01c80636c77f9891461002557610023565b5b005b61002d61002f565b005b600360149054906101000a900460ff16610075576040517fb2d0e51900000000000000000000000000000000000000000000000000000000815260040160405180910390fd5b60025434146100b0576040517f3f0ea2b700000000000000000000000000000000000000000000000000000000815260040160405180910390fd5b6100b933610206565b156100f0576040517ff628bab900000000000000000000000000000000000000000000000000000000815260040160405180910390fd5b6000339080600181540180825580915050600190039060005260206000200160009091909190916101000a81548173ffffffffffffffffffffffffffffffffffffffff021916908373ffffffffffffffffffffffffffffffffffffffff1602179055506001600081819054906101000a900460ff16809291906101729061057b565b91906101000a81548160ff021916908360ff160217905550507f4514996f97643d06672a3ffae1c669df76b43a51d535c0b2fc537f9cb0799f91336040516020016101bd91906106c1565b6040516020818303038152906040526040516101d99190610782565b60405180910390a1600a600160009054906101000a900460ff1660ff1603610204576102036102ae565b5b565b600080600090505b6000805490508110156102a3578273ffffffffffffffffffffffffffffffffffffffff1660008281548110610246576102456107a4565b5b9060005260206000200160009054906101000a900473ffffffffffffffffffffffffffffffffffffffff1673ffffffffffffffffffffffffffffffffffffffff16036102965760019150506102a9565b808060010191505061020e565b50600090505b919050565b600a600160009054906101000a900460ff1660ff16146102fa576040517fe0547ec900000000000000000000000000000000000000000000000000000000815260040160405180910390fd5b600360149054906101000a900460ff16610340576040517fb2d0e51900000000000000000000000000000000000000000000000000000000815260040160405180910390fd5b6000808054905042610352919061080c565b905060008181548110610368576103676107a4565b5b9060005260206000200160009054906101000a900473ffffffffffffffffffffffffffffffffffffffff16600360006101000a81548173ffffffffffffffffffffffffffffffffffffffff021916908373ffffffffffffffffffffffffffffffffffffffff160217905550600360009054906101000a900473ffffffffffffffffffffffffffffffffffffffff1673ffffffffffffffffffffffffffffffffffffffff166108fc479081150290604051600060405180830381858888f1935050505015801561043b573d6000803e3d6000fd5b507fcb79db7cc2ceb72089fef8b363a769413ed3ef42d6de3073b4e224bbec22fd5a600360009054906101000a900473ffffffffffffffffffffffffffffffffffffffff1660405161048d9190610898565b60405180910390a161049d6104a0565b50565b6000600360146101000a81548160ff0219169083151502179055506000806104c89190610501565b6000600160006101000a81548160ff021916908360ff1602179055506001600360146101000a81548160ff021916908315150217905550565b508054600082559060005260206000209081019061051f9190610522565b50565b5b8082111561053b576000816000905550600101610523565b5090565b7f4e487b7100000000000000000000000000000000000000000000000000000000600052601160045260246000fd5b600060ff82169050919050565b60006105868261056e565b915060ff82036105995761059861053f565b5b600182019050919050565b600081905092915050565b7f506c617965722000000000000000000000000000000000000000000000000000600082015250565b60006105e56007836105a4565b91506105f0826105af565b600782019050919050565b600073ffffffffffffffffffffffffffffffffffffffff82169050919050565b6000610626826105fb565b9050919050565b60008160601b9050919050565b60006106458261062d565b9050919050565b60006106578261063a565b9050919050565b61066f61066a8261061b565b61064c565b82525050565b7f206a6f696e656400000000000000000000000000000000000000000000000000600082015250565b60006106ab6007836105a4565b91506106b682610675565b600782019050919050565b60006106cc826105d8565b91506106d8828461065e565b6014820191506106e78261069e565b915081905092915050565b600081519050919050565b600082825260208201905092915050565b60005b8381101561072c578082015181840152602081019050610711565b60008484015250505050565b6000601f19601f8301169050919050565b6000610754826106f2565b61075e81856106fd565b935061076e81856020860161070e565b61077781610738565b840191505092915050565b6000602082019050818103600083015261079c8184610749565b905092915050565b7f4e487b7100000000000000000000000000000000000000000000000000000000600052603260045260246000fd5b6000819050919050565b7f4e487b7100000000000000000000000000000000000000000000000000000000600052601260045260246000fd5b6000610817826107d3565b9150610822836107d3565b925082610832576108316107dd565b5b828206905092915050565b6108468161061b565b82525050565b7f57696e6e65722073656c65637465640000000000000000000000000000000000600082015250565b6000610882600f836106fd565b915061088d8261084c565b602082019050919050565b60006040820190506108ad600083018461083d565b81810360208301526108be81610875565b90509291505056fea2646970667358221220472788bdff70801623f40d0ab930be1fad9a96171f2bf959c07cbdf5f34e531f64736f6c634300081c0033",
          "opcodes": "PUSH1 0x80 PUSH1 0x40 MSTORE CALLVALUE DUP1 ISZERO PUSH1 0xF JUMPI PUSH1 0x0 DUP1 REVERT JUMPDEST POP PUSH1 0x40 MLOAD PUSH2 0x9BF CODESIZE SUB DUP1 PUSH2 0x9BF DUP4 CODECOPY DUP2 DUP2 ADD PUSH1 0x40 MSTORE DUP2 ADD SWAP1 PUSH1 0x2F SWAP2 SWAP1 PUSH1 0x8C JUMP JUMPDEST DUP1 PUSH1 0x2 DUP2 SWAP1 SSTORE POP PUSH1 0x1 PUSH1 0x3 PUSH1 0x14 PUSH2 0x100 EXP DUP2 SLOAD DUP2 PUSH1 0xFF MUL NOT AND SWAP1 DUP4 ISZERO ISZERO MUL OR SWAP1 SSTORE POP POP PUSH1 0xB4 JUMP JUMPDEST PUSH1 0x0 DUP1 REVERT JUMPDEST PUSH1 0x0 DUP2 SWAP1 POP SWAP2 SWAP1 POP JUMP JUMPDEST PUSH1 0x6C DUP2 PUSH1 0x5B JUMP JUMPDEST DUP2 EQ PUSH1 0x76 JUMPI PUSH1 0x0 DUP1 REVERT JUMPDEST POP JUMP JUMPDEST PUSH1 0x0 DUP2 MLOAD SWAP1 POP PUSH1 0x86 DUP2 PUSH1 0x65 JUMP JUMPDEST SWAP3 SWAP2 POP POP JUMP JUMPDEST PUSH1 0x0 PUSH1 0x20 DUP3 DUP5 SUB SLT ISZERO PUSH1 0x9F JUMPI PUSH1 0x9E PUSH1 0x56 JUMP JUMPDEST JUMPDEST PUSH1 0x0 PUSH1 0xAB DUP5 DUP3 DUP6 ADD PUSH1 0x79 JUMP JUMPDEST SWAP2 POP POP SWAP3 SWAP2 POP POP JUMP JUMPDEST PUSH2 0x8FC DUP1 PUSH2 0xC3 PUSH1 0x0 CODECOPY PUSH1 0x0 RETURN INVALID PUSH1 0x80 PUSH1 0x40 MSTORE PUSH1 0x4 CALLDATASIZE LT PUSH2 0x22 JUMPI PUSH1 0x0 CALLDATALOAD PUSH1 0xE0 SHR DUP1 PUSH4 0x6C77F989 EQ PUSH2 0x25 JUMPI PUSH2 0x23 JUMP JUMPDEST JUMPDEST STOP JUMPDEST PUSH2 0x2D PUSH2 0x2F JUMP JUMPDEST STOP JUMPDEST PUSH1 0x3 PUSH1 0x14 SWAP1 SLOAD SWAP1 PUSH2 0x100 EXP SWAP1 DIV PUSH1 0xFF AND PUSH2 0x75 JUMPI PUSH1 0x40 MLOAD PUSH32 0xB2D0E51900000000000000000000000000000000000000000000000000000000 DUP2 MSTORE PUSH1 0x4 ADD PUSH1 0x40 MLOAD DUP1 SWAP2 SUB SWAP1 REVERT JUMPDEST PUSH1 0x2 SLOAD CALLVALUE EQ PUSH2 0xB0 JUMPI PUSH1 0x40 MLOAD PUSH32 0x3F0EA2B700000000000000000000000000000000000000000000000000000000 DUP2 MSTORE PUSH1 0x4 ADD PUSH1 0x40 MLOAD DUP1 SWAP2 SUB SWAP1 REVERT JUMPDEST PUSH2 0xB9 CALLER PUSH2 0x206 JUMP JUMPDEST ISZERO PUSH2 0xF0 JUMPI PUSH1 0x40 MLOAD PUSH32 0xF628BAB900000000000000000000000000000000000000000000000000000000 DUP2 MSTORE PUSH1 0x4 ADD PUSH1 0x40 MLOAD DUP1 SWAP2 SUB SWAP1 REVERT JUMPDEST PUSH1 0x0 CALLER SWAP1 DUP1 PUSH1 0x1 DUP2 SLOAD ADD DUP1 DUP3 SSTORE DUP1 SWAP2 POP POP PUSH1 0x1 SWAP1 SUB SWAP1 PUSH1 0x0 MSTORE PUSH1 0x20 PUSH1 0x0 KECCAK256 ADD PUSH1 0x0 SWAP1 SWAP2 SWAP1 SWAP2 SWAP1 SWAP2 PUSH2 0x100 EXP DUP2 SLOAD DUP2 PUSH20 0xFFFFFFFFFFFFFFFFFFFFFFFFFFFFFFFFFFFFFFFF MUL NOT AND SWAP1 DUP4 PUSH20 0xFFFFFFFFFFFFFFFFFFFFFFFFFFFFFFFFFFFFFFFF AND MUL OR SWAP1 SSTORE POP PUSH1 0x1 PUSH1 0x0 DUP2 DUP2 SWAP1 SLOAD SWAP1 PUSH2 0x100 EXP SWAP1 DIV PUSH1 0xFF AND DUP1 SWAP3 SWAP2 SWAP1 PUSH2 0x172 SWAP1 PUSH2 0x57B JUMP JUMPDEST SWAP2 SWAP1 PUSH2 0x100 EXP DUP2 SLOAD DUP2 PUSH1 0xFF MUL NOT AND SWAP1 DUP4 PUSH1 0xFF AND MUL OR SWAP1 SSTORE POP POP PUSH32 0x4514996F97643D06672A3FFAE1C669DF76B43A51D535C0B2FC537F9CB0799F91 CALLER PUSH1 0x40 MLOAD PUSH1 0x20 ADD PUSH2 0x1BD SWAP2 SWAP1 PUSH2 0x6C1 JUMP JUMPDEST PUSH1 0x40 MLOAD PUSH1 0x20 DUP2 DUP4 SUB SUB DUP2 MSTORE SWAP1 PUSH1 0x40 MSTORE PUSH1 0x40 MLOAD PUSH2 0x1D9 SWAP2 SWAP1 PUSH2 0x782 JUMP JUMPDEST PUSH1 0x40 MLOAD DUP1 SWAP2 SUB SWAP1 LOG1 PUSH1 0xA PUSH1 0x1 PUSH1 0x0 SWAP1 SLOAD SWAP1 PUSH2 0x100 EXP SWAP1 DIV PUSH1 0xFF AND PUSH1 0xFF AND SUB PUSH2 0x204 JUMPI PUSH2 0x203 PUSH2 0x2AE JUMP JUMPDEST JUMPDEST JUMP JUMPDEST PUSH1 0x0 DUP1 PUSH1 0x0 SWAP1 POP JUMPDEST PUSH1 0x0 DUP1 SLOAD SWAP1 POP DUP2 LT ISZERO PUSH2 0x2A3 JUMPI DUP3 PUSH20 0xFFFFFFFFFFFFFFFFFFFFFFFFFFFFFFFFFFFFFFFF AND PUSH1 0x0 DUP3 DUP2 SLOAD DUP2 LT PUSH2 0x246 JUMPI PUSH2 0x245 PUSH2 0x7A4 JUMP JUMPDEST JUMPDEST SWAP1 PUSH1 0x0 MSTORE PUSH1 0x20 PUSH1 0x0 KECCAK256 ADD PUSH1 0x0 SWAP1 SLOAD SWAP1 PUSH2 0x100 EXP SWAP1 DIV PUSH20 0xFFFFFFFFFFFFFFFFFFFFFFFFFFFFFFFFFFFFFFFF AND PUSH20 0xFFFFFFFFFFFFFFFFFFFFFFFFFFFFFFFFFFFFFFFF AND SUB PUSH2 0x296 JUMPI PUSH1 0x1 SWAP2 POP POP PUSH2 0x2A9 JUMP JUMPDEST DUP1 DUP1 PUSH1 0x1 ADD SWAP2 POP POP PUSH2 0x20E JUMP JUMPDEST POP PUSH1 0x0 SWAP1 POP JUMPDEST SWAP2 SWAP1 POP JUMP JUMPDEST PUSH1 0xA PUSH1 0x1 PUSH1 0x0 SWAP1 SLOAD SWAP1 PUSH2 0x100 EXP SWAP1 DIV PUSH1 0xFF AND PUSH1 0xFF AND EQ PUSH2 0x2FA JUMPI PUSH1 0x40 MLOAD PUSH32 0xE0547EC900000000000000000000000000000000000000000000000000000000 DUP2 MSTORE PUSH1 0x4 ADD PUSH1 0x40 MLOAD DUP1 SWAP2 SUB SWAP1 REVERT JUMPDEST PUSH1 0x3 PUSH1 0x14 SWAP1 SLOAD SWAP1 PUSH2 0x100 EXP SWAP1 DIV PUSH1 0xFF AND PUSH2 0x340 JUMPI PUSH1 0x40 MLOAD PUSH32 0xB2D0E51900000000000000000000000000000000000000000000000000000000 DUP2 MSTORE PUSH1 0x4 ADD PUSH1 0x40 MLOAD DUP1 SWAP2 SUB SWAP1 REVERT JUMPDEST PUSH1 0x0 DUP1 DUP1 SLOAD SWAP1 POP TIMESTAMP PUSH2 0x352 SWAP2 SWAP1 PUSH2 0x80C JUMP JUMPDEST SWAP1 POP PUSH1 0x0 DUP2 DUP2 SLOAD DUP2 LT PUSH2 0x368 JUMPI PUSH2 0x367 PUSH2 0x7A4 JUMP JUMPDEST JUMPDEST SWAP1 PUSH1 0x0 MSTORE PUSH1 0x20 PUSH1 0x0 KECCAK256 ADD PUSH1 0x0 SWAP1 SLOAD SWAP1 PUSH2 0x100 EXP SWAP1 DIV PUSH20 0xFFFFFFFFFFFFFFFFFFFFFFFFFFFFFFFFFFFFFFFF AND PUSH1 0x3 PUSH1 0x0 PUSH2 0x100 EXP DUP2 SLOAD DUP2 PUSH20 0xFFFFFFFFFFFFFFFFFFFFFFFFFFFFFFFFFFFFFFFF MUL NOT AND SWAP1 DUP4 PUSH20 0xFFFFFFFFFFFFFFFFFFFFFFFFFFFFFFFFFFFFFFFF AND MUL OR SWAP1 SSTORE POP PUSH1 0x3 PUSH1 0x0 SWAP1 SLOAD SWAP1 PUSH2 0x100 EXP SWAP1 DIV PUSH20 0xFFFFFFFFFFFFFFFFFFFFFFFFFFFFFFFFFFFFFFFF AND PUSH20 0xFFFFFFFFFFFFFFFFFFFFFFFFFFFFFFFFFFFFFFFF AND PUSH2 0x8FC SELFBALANCE SWAP1 DUP2 ISZERO MUL SWAP1 PUSH1 0x40 MLOAD PUSH1 0x0 PUSH1 0x40 MLOAD DUP1 DUP4 SUB DUP2 DUP6 DUP9 DUP9 CALL SWAP4 POP POP POP POP ISZERO DUP1 ISZERO PUSH2 0x43B JUMPI RETURNDATASIZE PUSH1 0x0 DUP1 RETURNDATACOPY RETURNDATASIZE PUSH1 0x0 REVERT JUMPDEST POP PUSH32 0xCB79DB7CC2CEB72089FEF8B363A769413ED3EF42D6DE3073B4E224BBEC22FD5A PUSH1 0x3 PUSH1 0x0 SWAP1 SLOAD SWAP1 PUSH2 0x100 EXP SWAP1 DIV PUSH20 0xFFFFFFFFFFFFFFFFFFFFFFFFFFFFFFFFFFFFFFFF AND PUSH1 0x40 MLOAD PUSH2 0x48D SWAP2 SWAP1 PUSH2 0x898 JUMP JUMPDEST PUSH1 0x40 MLOAD DUP1 SWAP2 SUB SWAP1 LOG1 PUSH2 0x49D PUSH2 0x4A0 JUMP JUMPDEST POP JUMP JUMPDEST PUSH1 0x0 PUSH1 0x3 PUSH1 0x14 PUSH2 0x100 EXP DUP2 SLOAD DUP2 PUSH1 0xFF MUL NOT AND SWAP1 DUP4 ISZERO ISZERO MUL OR SWAP1 SSTORE POP PUSH1 0x0 DUP1 PUSH2 0x4C8 SWAP2 SWAP1 PUSH2 0x501 JUMP JUMPDEST PUSH1 0x0 PUSH1 0x1 PUSH1 0x0 PUSH2 0x100 EXP DUP2 SLOAD DUP2 PUSH1 0xFF MUL NOT AND SWAP1 DUP4 PUSH1 0xFF AND MUL OR SWAP1 SSTORE POP PUSH1 0x1 PUSH1 0x3 PUSH1 0x14 PUSH2 0x100 EXP DUP2 SLOAD DUP2 PUSH1 0xFF MUL NOT AND SWAP1 DUP4 ISZERO ISZERO MUL OR SWAP1 SSTORE POP JUMP JUMPDEST POP DUP1 SLOAD PUSH1 0x0 DUP3 SSTORE SWAP1 PUSH1 0x0 MSTORE PUSH1 0x20 PUSH1 0x0 KECCAK256 SWAP1 DUP2 ADD SWAP1 PUSH2 0x51F SWAP2 SWAP1 PUSH2 0x522 JUMP JUMPDEST POP JUMP JUMPDEST JUMPDEST DUP1 DUP3 GT ISZERO PUSH2 0x53B JUMPI PUSH1 0x0 DUP2 PUSH1 0x0 SWAP1 SSTORE POP PUSH1 0x1 ADD PUSH2 0x523 JUMP JUMPDEST POP SWAP1 JUMP JUMPDEST PUSH32 0x4E487B7100000000000000000000000000000000000000000000000000000000 PUSH1 0x0 MSTORE PUSH1 0x11 PUSH1 0x4 MSTORE PUSH1 0x24 PUSH1 0x0 REVERT JUMPDEST PUSH1 0x0 PUSH1 0xFF DUP3 AND SWAP1 POP SWAP2 SWAP1 POP JUMP JUMPDEST PUSH1 0x0 PUSH2 0x586 DUP3 PUSH2 0x56E JUMP JUMPDEST SWAP2 POP PUSH1 0xFF DUP3 SUB PUSH2 0x599 JUMPI PUSH2 0x598 PUSH2 0x53F JUMP JUMPDEST JUMPDEST PUSH1 0x1 DUP3 ADD SWAP1 POP SWAP2 SWAP1 POP JUMP JUMPDEST PUSH1 0x0 DUP2 SWAP1 POP SWAP3 SWAP2 POP POP JUMP JUMPDEST PUSH32 0x506C617965722000000000000000000000000000000000000000000000000000 PUSH1 0x0 DUP3 ADD MSTORE POP JUMP JUMPDEST PUSH1 0x0 PUSH2 0x5E5 PUSH1 0x7 DUP4 PUSH2 0x5A4 JUMP JUMPDEST SWAP2 POP PUSH2 0x5F0 DUP3 PUSH2 0x5AF JUMP JUMPDEST PUSH1 0x7 DUP3 ADD SWAP1 POP SWAP2 SWAP1 POP JUMP JUMPDEST PUSH1 0x0 PUSH20 0xFFFFFFFFFFFFFFFFFFFFFFFFFFFFFFFFFFFFFFFF DUP3 AND SWAP1 POP SWAP2 SWAP1 POP JUMP JUMPDEST PUSH1 0x0 PUSH2 0x626 DUP3 PUSH2 0x5FB JUMP JUMPDEST SWAP1 POP SWAP2 SWAP1 POP JUMP JUMPDEST PUSH1 0x0 DUP2 PUSH1 0x60 SHL SWAP1 POP SWAP2 SWAP1 POP JUMP JUMPDEST PUSH1 0x0 PUSH2 0x645 DUP3 PUSH2 0x62D JUMP JUMPDEST SWAP1 POP SWAP2 SWAP1 POP JUMP JUMPDEST PUSH1 0x0 PUSH2 0x657 DUP3 PUSH2 0x63A JUMP JUMPDEST SWAP1 POP SWAP2 SWAP1 POP JUMP JUMPDEST PUSH2 0x66F PUSH2 0x66A DUP3 PUSH2 0x61B JUMP JUMPDEST PUSH2 0x64C JUMP JUMPDEST DUP3 MSTORE POP POP JUMP JUMPDEST PUSH32 0x206A6F696E656400000000000000000000000000000000000000000000000000 PUSH1 0x0 DUP3 ADD MSTORE POP JUMP JUMPDEST PUSH1 0x0 PUSH2 0x6AB PUSH1 0x7 DUP4 PUSH2 0x5A4 JUMP JUMPDEST SWAP2 POP PUSH2 0x6B6 DUP3 PUSH2 0x675 JUMP JUMPDEST PUSH1 0x7 DUP3 ADD SWAP1 POP SWAP2 SWAP1 POP JUMP JUMPDEST PUSH1 0x0 PUSH2 0x6CC DUP3 PUSH2 0x5D8 JUMP JUMPDEST SWAP2 POP PUSH2 0x6D8 DUP3 DUP5 PUSH2 0x65E JUMP JUMPDEST PUSH1 0x14 DUP3 ADD SWAP2 POP PUSH2 0x6E7 DUP3 PUSH2 0x69E JUMP JUMPDEST SWAP2 POP DUP2 SWAP1 POP SWAP3 SWAP2 POP POP JUMP JUMPDEST PUSH1 0x0 DUP2 MLOAD SWAP1 POP SWAP2 SWAP1 POP JUMP JUMPDEST PUSH1 0x0 DUP3 DUP3 MSTORE PUSH1 0x20 DUP3 ADD SWAP1 POP SWAP3 SWAP2 POP POP JUMP JUMPDEST PUSH1 0x0 JUMPDEST DUP4 DUP2 LT ISZERO PUSH2 0x72C JUMPI DUP1 DUP3 ADD MLOAD DUP2 DUP5 ADD MSTORE PUSH1 0x20 DUP2 ADD SWAP1 POP PUSH2 0x711 JUMP JUMPDEST PUSH1 0x0 DUP5 DUP5 ADD MSTORE POP POP POP POP JUMP JUMPDEST PUSH1 0x0 PUSH1 0x1F NOT PUSH1 0x1F DUP4 ADD AND SWAP1 POP SWAP2 SWAP1 POP JUMP JUMPDEST PUSH1 0x0 PUSH2 0x754 DUP3 PUSH2 0x6F2 JUMP JUMPDEST PUSH2 0x75E DUP2 DUP6 PUSH2 0x6FD JUMP JUMPDEST SWAP4 POP PUSH2 0x76E DUP2 DUP6 PUSH1 0x20 DUP7 ADD PUSH2 0x70E JUMP JUMPDEST PUSH2 0x777 DUP2 PUSH2 0x738 JUMP JUMPDEST DUP5 ADD SWAP2 POP POP SWAP3 SWAP2 POP POP JUMP JUMPDEST PUSH1 0x0 PUSH1 0x20 DUP3 ADD SWAP1 POP DUP2 DUP2 SUB PUSH1 0x0 DUP4 ADD MSTORE PUSH2 0x79C DUP2 DUP5 PUSH2 0x749 JUMP JUMPDEST SWAP1 POP SWAP3 SWAP2 POP POP JUMP JUMPDEST PUSH32 0x4E487B7100000000000000000000000000000000000000000000000000000000 PUSH1 0x0 MSTORE PUSH1 0x32 PUSH1 0x4 MSTORE PUSH1 0x24 PUSH1 0x0 REVERT JUMPDEST PUSH1 0x0 DUP2 SWAP1 POP SWAP2 SWAP1 POP JUMP JUMPDEST PUSH32 0x4E487B7100000000000000000000000000000000000000000000000000000000 PUSH1 0x0 MSTORE PUSH1 0x12 PUSH1 0x4 MSTORE PUSH1 0x24 PUSH1 0x0 REVERT JUMPDEST PUSH1 0x0 PUSH2 0x817 DUP3 PUSH2 0x7D3 JUMP JUMPDEST SWAP2 POP PUSH2 0x822 DUP4 PUSH2 0x7D3 JUMP JUMPDEST SWAP3 POP DUP3 PUSH2 0x832 JUMPI PUSH2 0x831 PUSH2 0x7DD JUMP JUMPDEST JUMPDEST DUP3 DUP3 MOD SWAP1 POP SWAP3 SWAP2 POP POP JUMP JUMPDEST PUSH2 0x846 DUP2 PUSH2 0x61B JUMP JUMPDEST DUP3 MSTORE POP POP JUMP JUMPDEST PUSH32 0x57696E6E65722073656C65637465640000000000000000000000000000000000 PUSH1 0x0 DUP3 ADD MSTORE POP JUMP JUMPDEST PUSH1 0x0 PUSH2 0x882 PUSH1 0xF DUP4 PUSH2 0x6FD JUMP JUMPDEST SWAP2 POP PUSH2 0x88D DUP3 PUSH2 0x84C JUMP JUMPDEST PUSH1 0x20 DUP3 ADD SWAP1 POP SWAP2 SWAP1 POP JUMP JUMPDEST PUSH1 0x0 PUSH1 0x40 DUP3 ADD SWAP1 POP PUSH2 0x8AD PUSH1 0x0 DUP4 ADD DUP5 PUSH2 0x83D JUMP JUMPDEST DUP2 DUP2 SUB PUSH1 0x20 DUP4 ADD MSTORE PUSH2 0x8BE DUP2 PUSH2 0x875 JUMP JUMPDEST SWAP1 POP SWAP3 SWAP2 POP POP JUMP INVALID LOG2 PUSH5 0x6970667358 0x22 SLT KECCAK256 SELFBALANCE 0x27 DUP9 0xBD SELFDESTRUCT PUSH17 0x801623F40D0AB930BE1FAD9A96171F2BF9 MSIZE 0xC0 PUSH29 0xBDF5F34E531F64736F6C634300081C0033000000000000000000000000 "
        },
        "methodIdentifiers": {
          "joinLottery()": "6c77f989"
        }
      }
    }
  }
}