{
  "contracts/MultisigFactory.sol": {
    "MultisigFactory": {
      "abi": [
        {
          "inputs": [],
          "stateMutability": "nonpayable",
          "type": "constructor"
        },
        {
          "anonymous": false,
          "inputs": [
            {
              "indexed": true,
              "internalType": "address",
              "name": "multisigAddress",
              "type": "address"
            },
            {
              "indexed": false,
              "internalType": "address[]",
              "name": "owners",
              "type": "address[]"
            },
            {
              "indexed": false,
              "internalType": "uint256",
              "name": "requiredSignatures",
              "type": "uint256"
            }
          ],
          "name": "MultisigCreated",
          "type": "event"
        },
        {
          "inputs": [
            {
              "internalType": "address[]",
              "name": "_owners",
              "type": "address[]"
            },
            {
              "internalType": "uint256",
              "name": "_requiredSignatures",
              "type": "uint256"
            }
          ],
          "name": "createMultisig",
          "outputs": [
            {
              "internalType": "address",
              "name": "",
              "type": "address"
            }
          ],
          "stateMutability": "nonpayable",
          "type": "function"
        },
        {
          "inputs": [],
          "name": "multisigCount",
          "outputs": [
            {
              "internalType": "uint256",
              "name": "",
              "type": "uint256"
            }
          ],
          "stateMutability": "view",
          "type": "function"
        },
        {
          "inputs": [],
          "name": "owner",
          "outputs": [
            {
              "internalType": "address",
              "name": "",
              "type": "address"
            }
          ],
          "stateMutability": "view",
          "type": "function"
        }
      ],
      "evm": {
        "bytecode": {
          "linkReferences": {},
          "object": "6080604052348015600f57600080fd5b50336000806101000a81548173ffffffffffffffffffffffffffffffffffffffff021916908373ffffffffffffffffffffffffffffffffffffffff1602179055506000600181905550612d5f806100676000396000f3fe608060405234801561001057600080fd5b50600436106100415760003560e01c80638da5cb5b14610046578063aabe012214610064578063c96b403714610094575b600080fd5b61004e6100b2565b60405161005b919061026b565b60405180910390f35b61007e60048036038101906100799190610455565b6100d6565b60405161008b919061026b565b60405180910390f35b61009c610217565b6040516100a991906104c0565b60405180910390f35b60008054906101000a900473ffffffffffffffffffffffffffffffffffffffff1681565b60008083511161011b576040517f08c379a000000000000000000000000000000000000000000000000000000000815260040161011290610538565b60405180910390fd5b60008211801561012c575082518211155b61016b576040517f08c379a0000000000000000000000000000000000000000000000000000000008152600401610162906105ca565b60405180910390fd5b6000838360405161017b9061021d565b6101869291906106a8565b604051809103906000f0801580156101a2573d6000803e3d6000fd5b509050600160008154809291906101b890610707565b91905055508073ffffffffffffffffffffffffffffffffffffffff167f37cd16e5a6e7bf431f1fbc14fc889bb40d886b82d97f68a2524324375279c1a785856040516102059291906106a8565b60405180910390a28091505092915050565b60015481565b6125da8061075083390190565b600073ffffffffffffffffffffffffffffffffffffffff82169050919050565b60006102558261022a565b9050919050565b6102658161024a565b82525050565b6000602082019050610280600083018461025c565b92915050565b6000604051905090565b600080fd5b600080fd5b600080fd5b6000601f19601f8301169050919050565b7f4e487b7100000000000000000000000000000000000000000000000000000000600052604160045260246000fd5b6102e88261029f565b810181811067ffffffffffffffff82111715610307576103066102b0565b5b80604052505050565b600061031a610286565b905061032682826102df565b919050565b600067ffffffffffffffff821115610346576103456102b0565b5b602082029050602081019050919050565b600080fd5b6103658161024a565b811461037057600080fd5b50565b6000813590506103828161035c565b92915050565b600061039b6103968461032b565b610310565b905080838252602082019050602084028301858111156103be576103bd610357565b5b835b818110156103e757806103d38882610373565b8452602084019350506020810190506103c0565b5050509392505050565b600082601f8301126104065761040561029a565b5b8135610416848260208601610388565b91505092915050565b6000819050919050565b6104328161041f565b811461043d57600080fd5b50565b60008135905061044f81610429565b92915050565b6000806040838503121561046c5761046b610290565b5b600083013567ffffffffffffffff81111561048a57610489610295565b5b610496858286016103f1565b92505060206104a785828601610440565b9150509250929050565b6104ba8161041f565b82525050565b60006020820190506104d560008301846104b1565b92915050565b600082825260208201905092915050565b7f4f776e6572732072657175697265640000000000000000000000000000000000600082015250565b6000610522600f836104db565b915061052d826104ec565b602082019050919050565b6000602082019050818103600083015261055181610515565b9050919050565b7f496e76616c6964206e756d626572206f66207265717569726564207369676e6160008201527f7475726573000000000000000000000000000000000000000000000000000000602082015250565b60006105b46025836104db565b91506105bf82610558565b604082019050919050565b600060208201905081810360008301526105e3816105a7565b9050919050565b600081519050919050565b600082825260208201905092915050565b6000819050602082019050919050565b61061f8161024a565b82525050565b60006106318383610616565b60208301905092915050565b6000602082019050919050565b6000610655826105ea565b61065f81856105f5565b935061066a83610606565b8060005b8381101561069b5781516106828882610625565b975061068d8361063d565b92505060018101905061066e565b5085935050505092915050565b600060408201905081810360008301526106c2818561064a565b90506106d160208301846104b1565b9392505050565b7f4e487b7100000000000000000000000000000000000000000000000000000000600052601160045260246000fd5b60006107128261041f565b91507fffffffffffffffffffffffffffffffffffffffffffffffffffffffffffffffff8203610744576107436106d8565b5b60018201905091905056fe608060405234801561001057600080fd5b506040516125da3803806125da833981810160405281019061003291906104fc565b6000825111610076576040517f08c379a000000000000000000000000000000000000000000000000000000000815260040161006d906105b5565b60405180910390fd5b600081116100b9576040517f08c379a00000000000000000000000000000000000000000000000000000000081526004016100b090610621565b60405180910390fd5b81518111156100fd576040517f08c379a00000000000000000000000000000000000000000000000000000000081526004016100f4906106b3565b60405180910390fd5b60005b82518110156102ec57600083828151811061011e5761011d6106d3565b5b60200260200101519050600073ffffffffffffffffffffffffffffffffffffffff168173ffffffffffffffffffffffffffffffffffffffff1603610197576040517f08c379a000000000000000000000000000000000000000000000000000000000815260040161018e9061074e565b60405180910390fd5b600160008273ffffffffffffffffffffffffffffffffffffffff1673ffffffffffffffffffffffffffffffffffffffff16815260200190815260200160002060009054906101000a900460ff1615610224576040517f08c379a000000000000000000000000000000000000000000000000000000000815260040161021b906107ba565b60405180910390fd5b60018060008373ffffffffffffffffffffffffffffffffffffffff1673ffffffffffffffffffffffffffffffffffffffff16815260200190815260200160002060006101000a81548160ff0219169083151502179055506000819080600181540180825580915050600190039060005260206000200160009091909190916101000a81548173ffffffffffffffffffffffffffffffffffffffff021916908373ffffffffffffffffffffffffffffffffffffffff160217905550508080600101915050610100565b508060028190555050506107da565b6000604051905090565b600080fd5b600080fd5b600080fd5b6000601f19601f8301169050919050565b7f4e487b7100000000000000000000000000000000000000000000000000000000600052604160045260246000fd5b61035d82610314565b810181811067ffffffffffffffff8211171561037c5761037b610325565b5b80604052505050565b600061038f6102fb565b905061039b8282610354565b919050565b600067ffffffffffffffff8211156103bb576103ba610325565b5b602082029050602081019050919050565b600080fd5b600073ffffffffffffffffffffffffffffffffffffffff82169050919050565b60006103fc826103d1565b9050919050565b61040c816103f1565b811461041757600080fd5b50565b60008151905061042981610403565b92915050565b600061044261043d846103a0565b610385565b90508083825260208201905060208402830185811115610465576104646103cc565b5b835b8181101561048e578061047a888261041a565b845260208401935050602081019050610467565b5050509392505050565b600082601f8301126104ad576104ac61030f565b5b81516104bd84826020860161042f565b91505092915050565b6000819050919050565b6104d9816104c6565b81146104e457600080fd5b50565b6000815190506104f6816104d0565b92915050565b6000806040838503121561051357610512610305565b5b600083015167ffffffffffffffff8111156105315761053061030a565b5b61053d85828601610498565b925050602061054e858286016104e7565b9150509250929050565b600082825260208201905092915050565b7f4f776e6572732072657175697265640000000000000000000000000000000000600082015250565b600061059f600f83610558565b91506105aa82610569565b602082019050919050565b600060208201905081810360008301526105ce81610592565b9050919050565b7f436f6e6669726d6174696f6e7320726571756972656400000000000000000000600082015250565b600061060b601683610558565b9150610616826105d5565b602082019050919050565b6000602082019050818103600083015261063a816105fe565b9050919050565b7f496e76616c6964206e756d626572206f6620636f6e6669726d6174696f6e732060008201527f7265717569726564000000000000000000000000000000000000000000000000602082015250565b600061069d602883610558565b91506106a882610641565b604082019050919050565b600060208201905081810360008301526106cc81610690565b9050919050565b7f4e487b7100000000000000000000000000000000000000000000000000000000600052603260045260246000fd5b7f496e76616c6964206f776e657220616464726573730000000000000000000000600082015250565b6000610738601583610558565b915061074382610702565b602082019050919050565b600060208201905081810360008301526107678161072b565b9050919050565b7f4f776e6572206e6f7420756e6971756500000000000000000000000000000000600082015250565b60006107a4601083610558565b91506107af8261076e565b602082019050919050565b600060208201905081810360008301526107d381610797565b9050919050565b611df1806107e96000396000f3fe6080604052600436106100c65760003560e01c806380f59a651161007f578063c642747411610059578063c6427474146102ed578063d0549b8514610316578063d0e30db014610341578063ee22610b1461034b5761011d565b806380f59a651461025c578063a0e67e2b14610299578063c01a8c84146102c45761011d565b8063025e7c271461012257806312065fe01461015f5780632e7700f01461018a5780632f54bf6e146101b557806333ea3dc8146101f2578063735631ad146102335761011d565b3661011d573373ffffffffffffffffffffffffffffffffffffffff167f90890809c654f11d6e72a28fa60149770a0d11ec6c92319d6ceb2bb0a4ea1a15344760405161011392919061111a565b60405180910390a2005b600080fd5b34801561012e57600080fd5b5061014960048036038101906101449190611183565b610374565b60405161015691906111f1565b60405180910390f35b34801561016b57600080fd5b506101746103b3565b604051610181919061120c565b60405180910390f35b34801561019657600080fd5b5061019f6103bb565b6040516101ac919061120c565b60405180910390f35b3480156101c157600080fd5b506101dc60048036038101906101d79190611253565b6103c8565b6040516101e9919061129b565b60405180910390f35b3480156101fe57600080fd5b5061021960048036038101906102149190611183565b6103e8565b60405161022a959493929190611346565b60405180910390f35b34801561023f57600080fd5b5061025a60048036038101906102559190611183565b6104fb565b005b34801561026857600080fd5b50610283600480360381019061027e91906113a0565b6107b5565b604051610290919061129b565b60405180910390f35b3480156102a557600080fd5b506102ae61082f565b6040516102bb919061149e565b60405180910390f35b3480156102d057600080fd5b506102eb60048036038101906102e69190611183565b6108bd565b005b3480156102f957600080fd5b50610314600480360381019061030f91906115f5565b610b9b565b005b34801561032257600080fd5b5061032b610d67565b604051610338919061120c565b60405180910390f35b610349610d6d565b005b34801561035757600080fd5b50610372600480360381019061036d9190611183565b610dbf565b005b6000818154811061038457600080fd5b906000526020600020016000915054906101000a900473ffffffffffffffffffffffffffffffffffffffff1681565b600047905090565b6000600380549050905090565b60016020528060005260406000206000915054906101000a900460ff1681565b600080606060008060006003878154811061040657610405611664565b5b906000526020600020906006020190508060000160009054906101000a900473ffffffffffffffffffffffffffffffffffffffff168160010154826002018360030160009054906101000a900460ff168460050154828054610467906116c2565b80601f0160208091040260200160405190810160405280929190818152602001828054610493906116c2565b80156104e05780601f106104b5576101008083540402835291602001916104e0565b820191906000526020600020905b8154815290600101906020018083116104c357829003601f168201915b50505050509250955095509550955095505091939590929450565b600160003373ffffffffffffffffffffffffffffffffffffffff1673ffffffffffffffffffffffffffffffffffffffff16815260200190815260200160002060009054906101000a900460ff16610587576040517f08c379a000000000000000000000000000000000000000000000000000000000815260040161057e90611750565b60405180910390fd5b8060038054905081106105cf576040517f08c379a00000000000000000000000000000000000000000000000000000000081526004016105c6906117bc565b60405180910390fd5b81600381815481106105e4576105e3611664565b5b906000526020600020906006020160030160009054906101000a900460ff1615610643576040517f08c379a000000000000000000000000000000000000000000000000000000000815260040161063a90611828565b60405180910390fd5b60006003848154811061065957610658611664565b5b906000526020600020906006020190508060040160003373ffffffffffffffffffffffffffffffffffffffff1673ffffffffffffffffffffffffffffffffffffffff16815260200190815260200160002060009054906101000a900460ff166106f7576040517f08c379a00000000000000000000000000000000000000000000000000000000081526004016106ee90611894565b60405180910390fd5b60008160040160003373ffffffffffffffffffffffffffffffffffffffff1673ffffffffffffffffffffffffffffffffffffffff16815260200190815260200160002060006101000a81548160ff021916908315150217905550806005016000815480929190610766906118e3565b9190505550833373ffffffffffffffffffffffffffffffffffffffff167fe5c8875c5e14471f806f15f740cd9fd54937d151e9dcf8ad3ba988d6a285e67e60405160405180910390a350505050565b6000600383815481106107cb576107ca611664565b5b906000526020600020906006020160040160008373ffffffffffffffffffffffffffffffffffffffff1673ffffffffffffffffffffffffffffffffffffffff16815260200190815260200160002060009054906101000a900460ff16905092915050565b606060008054806020026020016040519081016040528092919081815260200182805480156108b357602002820191906000526020600020905b8160009054906101000a900473ffffffffffffffffffffffffffffffffffffffff1673ffffffffffffffffffffffffffffffffffffffff1681526020019060010190808311610869575b5050505050905090565b600160003373ffffffffffffffffffffffffffffffffffffffff1673ffffffffffffffffffffffffffffffffffffffff16815260200190815260200160002060009054906101000a900460ff16610949576040517f08c379a000000000000000000000000000000000000000000000000000000000815260040161094090611750565b60405180910390fd5b806003805490508110610991576040517f08c379a0000000000000000000000000000000000000000000000000000000008152600401610988906117bc565b60405180910390fd5b81600381815481106109a6576109a5611664565b5b906000526020600020906006020160030160009054906101000a900460ff1615610a05576040517f08c379a00000000000000000000000000000000000000000000000000000000081526004016109fc90611828565b60405180910390fd5b8260038181548110610a1a57610a19611664565b5b906000526020600020906006020160040160003373ffffffffffffffffffffffffffffffffffffffff1673ffffffffffffffffffffffffffffffffffffffff16815260200190815260200160002060009054906101000a900460ff1615610ab6576040517f08c379a0000000000000000000000000000000000000000000000000000000008152600401610aad90611958565b60405180910390fd5b600060038581548110610acc57610acb611664565b5b9060005260206000209060060201905060018160040160003373ffffffffffffffffffffffffffffffffffffffff1673ffffffffffffffffffffffffffffffffffffffff16815260200190815260200160002060006101000a81548160ff021916908315150217905550806005016000815480929190610b4b90611978565b9190505550843373ffffffffffffffffffffffffffffffffffffffff167ff8a17c9136a3ae33364fac05eb088a3cbafee10c1889c88593e20ee2d8e4eb8860405160405180910390a35050505050565b600160003373ffffffffffffffffffffffffffffffffffffffff1673ffffffffffffffffffffffffffffffffffffffff16815260200190815260200160002060009054906101000a900460ff16610c27576040517f08c379a0000000000000000000000000000000000000000000000000000000008152600401610c1e90611750565b60405180910390fd5b60006003805490509050600360018160018154018082558091505003906000526020600020905050600060038281548110610c6557610c64611664565b5b90600052602060002090600602019050848160000160006101000a81548173ffffffffffffffffffffffffffffffffffffffff021916908373ffffffffffffffffffffffffffffffffffffffff16021790555083816001018190555082816002019081610cd29190611b6c565b5060008160030160006101000a81548160ff021916908315150217905550600081600501819055508473ffffffffffffffffffffffffffffffffffffffff16823373ffffffffffffffffffffffffffffffffffffffff167f8a4b6990e28726526505760d8bab6efef36aea3ed6bc0618039052ee41ed7c2e87604051610d58919061120c565b60405180910390a45050505050565b60025481565b3373ffffffffffffffffffffffffffffffffffffffff167f90890809c654f11d6e72a28fa60149770a0d11ec6c92319d6ceb2bb0a4ea1a153447604051610db592919061111a565b60405180910390a2565b600160003373ffffffffffffffffffffffffffffffffffffffff1673ffffffffffffffffffffffffffffffffffffffff16815260200190815260200160002060009054906101000a900460ff16610e4b576040517f08c379a0000000000000000000000000000000000000000000000000000000008152600401610e4290611750565b60405180910390fd5b806003805490508110610e93576040517f08c379a0000000000000000000000000000000000000000000000000000000008152600401610e8a906117bc565b60405180910390fd5b8160038181548110610ea857610ea7611664565b5b906000526020600020906006020160030160009054906101000a900460ff1615610f07576040517f08c379a0000000000000000000000000000000000000000000000000000000008152600401610efe90611828565b60405180910390fd5b600060038481548110610f1d57610f1c611664565b5b9060005260206000209060060201905060025481600501541015610f76576040517f08c379a0000000000000000000000000000000000000000000000000000000008152600401610f6d90611c8a565b60405180910390fd5b60018160030160006101000a81548160ff02191690831515021790555060008160000160009054906101000a900473ffffffffffffffffffffffffffffffffffffffff1673ffffffffffffffffffffffffffffffffffffffff16826001015483600201604051610fe69190611d38565b60006040518083038185875af1925050503d8060008114611023576040519150601f19603f3d011682016040523d82523d6000602084013e611028565b606091505b505090508061106c576040517f08c379a000000000000000000000000000000000000000000000000000000000815260040161106390611d9b565b60405180910390fd5b8160000160009054906101000a900473ffffffffffffffffffffffffffffffffffffffff1673ffffffffffffffffffffffffffffffffffffffff16853373ffffffffffffffffffffffffffffffffffffffff167fa8b4d4fc85f61909c8a9b346ab28e3e95ffd759ecf136e6b95c4f069adcb3f5d85600101546040516110f2919061120c565b60405180910390a45050505050565b6000819050919050565b61111481611101565b82525050565b600060408201905061112f600083018561110b565b61113c602083018461110b565b9392505050565b6000604051905090565b600080fd5b600080fd5b61116081611101565b811461116b57600080fd5b50565b60008135905061117d81611157565b92915050565b6000602082840312156111995761119861114d565b5b60006111a78482850161116e565b91505092915050565b600073ffffffffffffffffffffffffffffffffffffffff82169050919050565b60006111db826111b0565b9050919050565b6111eb816111d0565b82525050565b600060208201905061120660008301846111e2565b92915050565b6000602082019050611221600083018461110b565b92915050565b611230816111d0565b811461123b57600080fd5b50565b60008135905061124d81611227565b92915050565b6000602082840312156112695761126861114d565b5b60006112778482850161123e565b91505092915050565b60008115159050919050565b61129581611280565b82525050565b60006020820190506112b0600083018461128c565b92915050565b600081519050919050565b600082825260208201905092915050565b60005b838110156112f05780820151818401526020810190506112d5565b60008484015250505050565b6000601f19601f8301169050919050565b6000611318826112b6565b61132281856112c1565b93506113328185602086016112d2565b61133b816112fc565b840191505092915050565b600060a08201905061135b60008301886111e2565b611368602083018761110b565b818103604083015261137a818661130d565b9050611389606083018561128c565b611396608083018461110b565b9695505050505050565b600080604083850312156113b7576113b661114d565b5b60006113c58582860161116e565b92505060206113d68582860161123e565b9150509250929050565b600081519050919050565b600082825260208201905092915050565b6000819050602082019050919050565b611415816111d0565b82525050565b6000611427838361140c565b60208301905092915050565b6000602082019050919050565b600061144b826113e0565b61145581856113eb565b9350611460836113fc565b8060005b83811015611491578151611478888261141b565b975061148383611433565b925050600181019050611464565b5085935050505092915050565b600060208201905081810360008301526114b88184611440565b905092915050565b600080fd5b600080fd5b7f4e487b7100000000000000000000000000000000000000000000000000000000600052604160045260246000fd5b611502826112fc565b810181811067ffffffffffffffff82111715611521576115206114ca565b5b80604052505050565b6000611534611143565b905061154082826114f9565b919050565b600067ffffffffffffffff8211156115605761155f6114ca565b5b611569826112fc565b9050602081019050919050565b82818337600083830152505050565b600061159861159384611545565b61152a565b9050828152602081018484840111156115b4576115b36114c5565b5b6115bf848285611576565b509392505050565b600082601f8301126115dc576115db6114c0565b5b81356115ec848260208601611585565b91505092915050565b60008060006060848603121561160e5761160d61114d565b5b600061161c8682870161123e565b935050602061162d8682870161116e565b925050604084013567ffffffffffffffff81111561164e5761164d611152565b5b61165a868287016115c7565b9150509250925092565b7f4e487b7100000000000000000000000000000000000000000000000000000000600052603260045260246000fd5b7f4e487b7100000000000000000000000000000000000000000000000000000000600052602260045260246000fd5b600060028204905060018216806116da57607f821691505b6020821081036116ed576116ec611693565b5b50919050565b600082825260208201905092915050565b7f4e6f74206f776e65720000000000000000000000000000000000000000000000600082015250565b600061173a6009836116f3565b915061174582611704565b602082019050919050565b600060208201905081810360008301526117698161172d565b9050919050565b7f5472616e73616374696f6e20646f6573206e6f74206578697374000000000000600082015250565b60006117a6601a836116f3565b91506117b182611770565b602082019050919050565b600060208201905081810360008301526117d581611799565b9050919050565b7f5472616e73616374696f6e20616c726561647920657865637574656400000000600082015250565b6000611812601c836116f3565b915061181d826117dc565b602082019050919050565b6000602082019050818103600083015261184181611805565b9050919050565b7f5472616e73616374696f6e206e6f7420636f6e6669726d656400000000000000600082015250565b600061187e6019836116f3565b915061188982611848565b602082019050919050565b600060208201905081810360008301526118ad81611871565b9050919050565b7f4e487b7100000000000000000000000000000000000000000000000000000000600052601160045260246000fd5b60006118ee82611101565b915060008203611901576119006118b4565b5b600182039050919050565b7f5472616e73616374696f6e20616c726561647920636f6e6669726d6564000000600082015250565b6000611942601d836116f3565b915061194d8261190c565b602082019050919050565b6000602082019050818103600083015261197181611935565b9050919050565b600061198382611101565b91507fffffffffffffffffffffffffffffffffffffffffffffffffffffffffffffffff82036119b5576119b46118b4565b5b600182019050919050565b60008190508160005260206000209050919050565b60006020601f8301049050919050565b600082821b905092915050565b600060088302611a227fffffffffffffffffffffffffffffffffffffffffffffffffffffffffffffffff826119e5565b611a2c86836119e5565b95508019841693508086168417925050509392505050565b6000819050919050565b6000611a69611a64611a5f84611101565b611a44565b611101565b9050919050565b6000819050919050565b611a8383611a4e565b611a97611a8f82611a70565b8484546119f2565b825550505050565b600090565b611aac611a9f565b611ab7818484611a7a565b505050565b5b81811015611adb57611ad0600082611aa4565b600181019050611abd565b5050565b601f821115611b2057611af1816119c0565b611afa846119d5565b81016020851015611b09578190505b611b1d611b15856119d5565b830182611abc565b50505b505050565b600082821c905092915050565b6000611b4360001984600802611b25565b1980831691505092915050565b6000611b5c8383611b32565b9150826002028217905092915050565b611b75826112b6565b67ffffffffffffffff811115611b8e57611b8d6114ca565b5b611b9882546116c2565b611ba3828285611adf565b600060209050601f831160018114611bd65760008415611bc4578287015190505b611bce8582611b50565b865550611c36565b601f198416611be4866119c0565b60005b82811015611c0c57848901518255600182019150602085019450602081019050611be7565b86831015611c295784890151611c25601f891682611b32565b8355505b6001600288020188555050505b505050505050565b7f43616e6e6f742065786563757465207478000000000000000000000000000000600082015250565b6000611c746011836116f3565b9150611c7f82611c3e565b602082019050919050565b60006020820190508181036000830152611ca381611c67565b9050919050565b600081905092915050565b60008154611cc2816116c2565b611ccc8186611caa565b94506001821660008114611ce75760018114611cfc57611d2f565b60ff1983168652811515820286019350611d2f565b611d05856119c0565b60005b83811015611d2757815481890152600182019150602081019050611d08565b838801955050505b50505092915050565b6000611d448284611cb5565b915081905092915050565b7f5472616e73616374696f6e206661696c65640000000000000000000000000000600082015250565b6000611d856012836116f3565b9150611d9082611d4f565b602082019050919050565b60006020820190508181036000830152611db481611d78565b905091905056fea2646970667358221220b2b02f877a588b3f39f3112e24165da93941717bf6b70e5d56a43e42971686bd64736f6c634300081c0033a2646970667358221220ef9abbc368bf27168bc137ecf324cac64dffe6e47936a04435c9f7c46102963f64736f6c634300081c0033",
          "opcodes": "PUSH1 0x80 PUSH1 0x40 MSTORE CALLVALUE DUP1 ISZERO PUSH1 0xF JUMPI PUSH1 0x0 DUP1 REVERT JUMPDEST POP CALLER PUSH1 0x0 DUP1 PUSH2 0x100 EXP DUP2 SLOAD DUP2 PUSH20 0xFFFFFFFFFFFFFFFFFFFFFFFFFFFFFFFFFFFFFFFF MUL NOT AND SWAP1 DUP4 PUSH20 0xFFFFFFFFFFFFFFFFFFFFFFFFFFFFFFFFFFFFFFFF AND MUL OR SWAP1 SSTORE POP PUSH1 0x0 PUSH1 0x1 DUP2 SWAP1 SSTORE POP PUSH2 0x2D5F DUP1 PUSH2 0x67 PUSH1 0x0 CODECOPY PUSH1 0x0 RETURN INVALID PUSH1 0x80 PUSH1 0x40 MSTORE CALLVALUE DUP1 ISZERO PUSH2 0x10 JUMPI PUSH1 0x0 DUP1 REVERT JUMPDEST POP PUSH1 0x4 CALLDATASIZE LT PUSH2 0x41 JUMPI PUSH1 0x0 CALLDATALOAD PUSH1 0xE0 SHR DUP1 PUSH4 0x8DA5CB5B EQ PUSH2 0x46 JUMPI DUP1 PUSH4 0xAABE0122 EQ PUSH2 0x64 JUMPI DUP1 PUSH4 0xC96B4037 EQ PUSH2 0x94 JUMPI JUMPDEST PUSH1 0x0 DUP1 REVERT JUMPDEST PUSH2 0x4E PUSH2 0xB2 JUMP JUMPDEST PUSH1 0x40 MLOAD PUSH2 0x5B SWAP2 SWAP1 PUSH2 0x26B JUMP JUMPDEST PUSH1 0x40 MLOAD DUP1 SWAP2 SUB SWAP1 RETURN JUMPDEST PUSH2 0x7E PUSH1 0x4 DUP1 CALLDATASIZE SUB DUP2 ADD SWAP1 PUSH2 0x79 SWAP2 SWAP1 PUSH2 0x455 JUMP JUMPDEST PUSH2 0xD6 JUMP JUMPDEST PUSH1 0x40 MLOAD PUSH2 0x8B SWAP2 SWAP1 PUSH2 0x26B JUMP JUMPDEST PUSH1 0x40 MLOAD DUP1 SWAP2 SUB SWAP1 RETURN JUMPDEST PUSH2 0x9C PUSH2 0x217 JUMP JUMPDEST PUSH1 0x40 MLOAD PUSH2 0xA9 SWAP2 SWAP1 PUSH2 0x4C0 JUMP JUMPDEST PUSH1 0x40 MLOAD DUP1 SWAP2 SUB SWAP1 RETURN JUMPDEST PUSH1 0x0 DUP1 SLOAD SWAP1 PUSH2 0x100 EXP SWAP1 DIV PUSH20 0xFFFFFFFFFFFFFFFFFFFFFFFFFFFFFFFFFFFFFFFF AND DUP2 JUMP JUMPDEST PUSH1 0x0 DUP1 DUP4 MLOAD GT PUSH2 0x11B JUMPI PUSH1 0x40 MLOAD PUSH32 0x8C379A000000000000000000000000000000000000000000000000000000000 DUP2 MSTORE PUSH1 0x4 ADD PUSH2 0x112 SWAP1 PUSH2 0x538 JUMP JUMPDEST PUSH1 0x40 MLOAD DUP1 SWAP2 SUB SWAP1 REVERT JUMPDEST PUSH1 0x0 DUP3 GT DUP1 ISZERO PUSH2 0x12C JUMPI POP DUP3 MLOAD DUP3 GT ISZERO JUMPDEST PUSH2 0x16B JUMPI PUSH1 0x40 MLOAD PUSH32 0x8C379A000000000000000000000000000000000000000000000000000000000 DUP2 MSTORE PUSH1 0x4 ADD PUSH2 0x162 SWAP1 PUSH2 0x5CA JUMP JUMPDEST PUSH1 0x40 MLOAD DUP1 SWAP2 SUB SWAP1 REVERT JUMPDEST PUSH1 0x0 DUP4 DUP4 PUSH1 0x40 MLOAD PUSH2 0x17B SWAP1 PUSH2 0x21D JUMP JUMPDEST PUSH2 0x186 SWAP3 SWAP2 SWAP1 PUSH2 0x6A8 JUMP JUMPDEST PUSH1 0x40 MLOAD DUP1 SWAP2 SUB SWAP1 PUSH1 0x0 CREATE DUP1 ISZERO DUP1 ISZERO PUSH2 0x1A2 JUMPI RETURNDATASIZE PUSH1 0x0 DUP1 RETURNDATACOPY RETURNDATASIZE PUSH1 0x0 REVERT JUMPDEST POP SWAP1 POP PUSH1 0x1 PUSH1 0x0 DUP2 SLOAD DUP1 SWAP3 SWAP2 SWAP1 PUSH2 0x1B8 SWAP1 PUSH2 0x707 JUMP JUMPDEST SWAP2 SWAP1 POP SSTORE POP DUP1 PUSH20 0xFFFFFFFFFFFFFFFFFFFFFFFFFFFFFFFFFFFFFFFF AND PUSH32 0x37CD16E5A6E7BF431F1FBC14FC889BB40D886B82D97F68A2524324375279C1A7 DUP6 DUP6 PUSH1 0x40 MLOAD PUSH2 0x205 SWAP3 SWAP2 SWAP1 PUSH2 0x6A8 JUMP JUMPDEST PUSH1 0x40 MLOAD DUP1 SWAP2 SUB SWAP1 LOG2 DUP1 SWAP2 POP POP SWAP3 SWAP2 POP POP JUMP JUMPDEST PUSH1 0x1 SLOAD DUP2 JUMP JUMPDEST PUSH2 0x25DA DUP1 PUSH2 0x750 DUP4 CODECOPY ADD SWAP1 JUMP JUMPDEST PUSH1 0x0 PUSH20 0xFFFFFFFFFFFFFFFFFFFFFFFFFFFFFFFFFFFFFFFF DUP3 AND SWAP1 POP SWAP2 SWAP1 POP JUMP JUMPDEST PUSH1 0x0 PUSH2 0x255 DUP3 PUSH2 0x22A JUMP JUMPDEST SWAP1 POP SWAP2 SWAP1 POP JUMP JUMPDEST PUSH2 0x265 DUP2 PUSH2 0x24A JUMP JUMPDEST DUP3 MSTORE POP POP JUMP JUMPDEST PUSH1 0x0 PUSH1 0x20 DUP3 ADD SWAP1 POP PUSH2 0x280 PUSH1 0x0 DUP4 ADD DUP5 PUSH2 0x25C JUMP JUMPDEST SWAP3 SWAP2 POP POP JUMP JUMPDEST PUSH1 0x0 PUSH1 0x40 MLOAD SWAP1 POP SWAP1 JUMP JUMPDEST PUSH1 0x0 DUP1 REVERT JUMPDEST PUSH1 0x0 DUP1 REVERT JUMPDEST PUSH1 0x0 DUP1 REVERT JUMPDEST PUSH1 0x0 PUSH1 0x1F NOT PUSH1 0x1F DUP4 ADD AND SWAP1 POP SWAP2 SWAP1 POP JUMP JUMPDEST PUSH32 0x4E487B7100000000000000000000000000000000000000000000000000000000 PUSH1 0x0 MSTORE PUSH1 0x41 PUSH1 0x4 MSTORE PUSH1 0x24 PUSH1 0x0 REVERT JUMPDEST PUSH2 0x2E8 DUP3 PUSH2 0x29F JUMP JUMPDEST DUP2 ADD DUP2 DUP2 LT PUSH8 0xFFFFFFFFFFFFFFFF DUP3 GT OR ISZERO PUSH2 0x307 JUMPI PUSH2 0x306 PUSH2 0x2B0 JUMP JUMPDEST JUMPDEST DUP1 PUSH1 0x40 MSTORE POP POP POP JUMP JUMPDEST PUSH1 0x0 PUSH2 0x31A PUSH2 0x286 JUMP JUMPDEST SWAP1 POP PUSH2 0x326 DUP3 DUP3 PUSH2 0x2DF JUMP JUMPDEST SWAP2 SWAP1 POP JUMP JUMPDEST PUSH1 0x0 PUSH8 0xFFFFFFFFFFFFFFFF DUP3 GT ISZERO PUSH2 0x346 JUMPI PUSH2 0x345 PUSH2 0x2B0 JUMP JUMPDEST JUMPDEST PUSH1 0x20 DUP3 MUL SWAP1 POP PUSH1 0x20 DUP2 ADD SWAP1 POP SWAP2 SWAP1 POP JUMP JUMPDEST PUSH1 0x0 DUP1 REVERT JUMPDEST PUSH2 0x365 DUP2 PUSH2 0x24A JUMP JUMPDEST DUP2 EQ PUSH2 0x370 JUMPI PUSH1 0x0 DUP1 REVERT JUMPDEST POP JUMP JUMPDEST PUSH1 0x0 DUP2 CALLDATALOAD SWAP1 POP PUSH2 0x382 DUP2 PUSH2 0x35C JUMP JUMPDEST SWAP3 SWAP2 POP POP JUMP JUMPDEST PUSH1 0x0 PUSH2 0x39B PUSH2 0x396 DUP5 PUSH2 0x32B JUMP JUMPDEST PUSH2 0x310 JUMP JUMPDEST SWAP1 POP DUP1 DUP4 DUP3 MSTORE PUSH1 0x20 DUP3 ADD SWAP1 POP PUSH1 0x20 DUP5 MUL DUP4 ADD DUP6 DUP2 GT ISZERO PUSH2 0x3BE JUMPI PUSH2 0x3BD PUSH2 0x357 JUMP JUMPDEST JUMPDEST DUP4 JUMPDEST DUP2 DUP2 LT ISZERO PUSH2 0x3E7 JUMPI DUP1 PUSH2 0x3D3 DUP9 DUP3 PUSH2 0x373 JUMP JUMPDEST DUP5 MSTORE PUSH1 0x20 DUP5 ADD SWAP4 POP POP PUSH1 0x20 DUP2 ADD SWAP1 POP PUSH2 0x3C0 JUMP JUMPDEST POP POP POP SWAP4 SWAP3 POP POP POP JUMP JUMPDEST PUSH1 0x0 DUP3 PUSH1 0x1F DUP4 ADD SLT PUSH2 0x406 JUMPI PUSH2 0x405 PUSH2 0x29A JUMP JUMPDEST JUMPDEST DUP2 CALLDATALOAD PUSH2 0x416 DUP5 DUP3 PUSH1 0x20 DUP7 ADD PUSH2 0x388 JUMP JUMPDEST SWAP2 POP POP SWAP3 SWAP2 POP POP JUMP JUMPDEST PUSH1 0x0 DUP2 SWAP1 POP SWAP2 SWAP1 POP JUMP JUMPDEST PUSH2 0x432 DUP2 PUSH2 0x41F JUMP JUMPDEST DUP2 EQ PUSH2 0x43D JUMPI PUSH1 0x0 DUP1 REVERT JUMPDEST POP JUMP JUMPDEST PUSH1 0x0 DUP2 CALLDATALOAD SWAP1 POP PUSH2 0x44F DUP2 PUSH2 0x429 JUMP JUMPDEST SWAP3 SWAP2 POP POP JUMP JUMPDEST PUSH1 0x0 DUP1 PUSH1 0x40 DUP4 DUP6 SUB SLT ISZERO PUSH2 0x46C JUMPI PUSH2 0x46B PUSH2 0x290 JUMP JUMPDEST JUMPDEST PUSH1 0x0 DUP4 ADD CALLDATALOAD PUSH8 0xFFFFFFFFFFFFFFFF DUP2 GT ISZERO PUSH2 0x48A JUMPI PUSH2 0x489 PUSH2 0x295 JUMP JUMPDEST JUMPDEST PUSH2 0x496 DUP6 DUP3 DUP7 ADD PUSH2 0x3F1 JUMP JUMPDEST SWAP3 POP POP PUSH1 0x20 PUSH2 0x4A7 DUP6 DUP3 DUP7 ADD PUSH2 0x440 JUMP JUMPDEST SWAP2 POP POP SWAP3 POP SWAP3 SWAP1 POP JUMP JUMPDEST PUSH2 0x4BA DUP2 PUSH2 0x41F JUMP JUMPDEST DUP3 MSTORE POP POP JUMP JUMPDEST PUSH1 0x0 PUSH1 0x20 DUP3 ADD SWAP1 POP PUSH2 0x4D5 PUSH1 0x0 DUP4 ADD DUP5 PUSH2 0x4B1 JUMP JUMPDEST SWAP3 SWAP2 POP POP JUMP JUMPDEST PUSH1 0x0 DUP3 DUP3 MSTORE PUSH1 0x20 DUP3 ADD SWAP1 POP SWAP3 SWAP2 POP POP JUMP JUMPDEST PUSH32 0x4F776E6572732072657175697265640000000000000000000000000000000000 PUSH1 0x0 DUP3 ADD MSTORE POP JUMP JUMPDEST PUSH1 0x0 PUSH2 0x522 PUSH1 0xF DUP4 PUSH2 0x4DB JUMP JUMPDEST SWAP2 POP PUSH2 0x52D DUP3 PUSH2 0x4EC JUMP JUMPDEST PUSH1 0x20 DUP3 ADD SWAP1 POP SWAP2 SWAP1 POP JUMP JUMPDEST PUSH1 0x0 PUSH1 0x20 DUP3 ADD SWAP1 POP DUP2 DUP2 SUB PUSH1 0x0 DUP4 ADD MSTORE PUSH2 0x551 DUP2 PUSH2 0x515 JUMP JUMPDEST SWAP1 POP SWAP2 SWAP1 POP JUMP JUMPDEST PUSH32 0x496E76616C6964206E756D626572206F66207265717569726564207369676E61 PUSH1 0x0 DUP3 ADD MSTORE PUSH32 0x7475726573000000000000000000000000000000000000000000000000000000 PUSH1 0x20 DUP3 ADD MSTORE POP JUMP JUMPDEST PUSH1 0x0 PUSH2 0x5B4 PUSH1 0x25 DUP4 PUSH2 0x4DB JUMP JUMPDEST SWAP2 POP PUSH2 0x5BF DUP3 PUSH2 0x558 JUMP JUMPDEST PUSH1 0x40 DUP3 ADD SWAP1 POP SWAP2 SWAP1 POP JUMP JUMPDEST PUSH1 0x0 PUSH1 0x20 DUP3 ADD SWAP1 POP DUP2 DUP2 SUB PUSH1 0x0 DUP4 ADD MSTORE PUSH2 0x5E3 DUP2 PUSH2 0x5A7 JUMP JUMPDEST SWAP1 POP SWAP2 SWAP1 POP JUMP JUMPDEST PUSH1 0x0 DUP2 MLOAD SWAP1 POP SWAP2 SWAP1 POP JUMP JUMPDEST PUSH1 0x0 DUP3 DUP3 MSTORE PUSH1 0x20 DUP3 ADD SWAP1 POP SWAP3 SWAP2 POP POP JUMP JUMPDEST PUSH1 0x0 DUP2 SWAP1 POP PUSH1 0x20 DUP3 ADD SWAP1 POP SWAP2 SWAP1 POP JUMP JUMPDEST PUSH2 0x61F DUP2 PUSH2 0x24A JUMP JUMPDEST DUP3 MSTORE POP POP JUMP JUMPDEST PUSH1 0x0 PUSH2 0x631 DUP4 DUP4 PUSH2 0x616 JUMP JUMPDEST PUSH1 0x20 DUP4 ADD SWAP1 POP SWAP3 SWAP2 POP POP JUMP JUMPDEST PUSH1 0x0 PUSH1 0x20 DUP3 ADD SWAP1 POP SWAP2 SWAP1 POP JUMP JUMPDEST PUSH1 0x0 PUSH2 0x655 DUP3 PUSH2 0x5EA JUMP JUMPDEST PUSH2 0x65F DUP2 DUP6 PUSH2 0x5F5 JUMP JUMPDEST SWAP4 POP PUSH2 0x66A DUP4 PUSH2 0x606 JUMP JUMPDEST DUP1 PUSH1 0x0 JUMPDEST DUP4 DUP2 LT ISZERO PUSH2 0x69B JUMPI DUP2 MLOAD PUSH2 0x682 DUP9 DUP3 PUSH2 0x625 JUMP JUMPDEST SWAP8 POP PUSH2 0x68D DUP4 PUSH2 0x63D JUMP JUMPDEST SWAP3 POP POP PUSH1 0x1 DUP2 ADD SWAP1 POP PUSH2 0x66E JUMP JUMPDEST POP DUP6 SWAP4 POP POP POP POP SWAP3 SWAP2 POP POP JUMP JUMPDEST PUSH1 0x0 PUSH1 0x40 DUP3 ADD SWAP1 POP DUP2 DUP2 SUB PUSH1 0x0 DUP4 ADD MSTORE PUSH2 0x6C2 DUP2 DUP6 PUSH2 0x64A JUMP JUMPDEST SWAP1 POP PUSH2 0x6D1 PUSH1 0x20 DUP4 ADD DUP5 PUSH2 0x4B1 JUMP JUMPDEST SWAP4 SWAP3 POP POP POP JUMP JUMPDEST PUSH32 0x4E487B7100000000000000000000000000000000000000000000000000000000 PUSH1 0x0 MSTORE PUSH1 0x11 PUSH1 0x4 MSTORE PUSH1 0x24 PUSH1 0x0 REVERT JUMPDEST PUSH1 0x0 PUSH2 0x712 DUP3 PUSH2 0x41F JUMP JUMPDEST SWAP2 POP PUSH32 0xFFFFFFFFFFFFFFFFFFFFFFFFFFFFFFFFFFFFFFFFFFFFFFFFFFFFFFFFFFFFFFFF DUP3 SUB PUSH2 0x744 JUMPI PUSH2 0x743 PUSH2 0x6D8 JUMP JUMPDEST JUMPDEST PUSH1 0x1 DUP3 ADD SWAP1 POP SWAP2 SWAP1 POP JUMP INVALID PUSH1 0x80 PUSH1 0x40 MSTORE CALLVALUE DUP1 ISZERO PUSH2 0x10 JUMPI PUSH1 0x0 DUP1 REVERT JUMPDEST POP PUSH1 0x40 MLOAD PUSH2 0x25DA CODESIZE SUB DUP1 PUSH2 0x25DA DUP4 CODECOPY DUP2 DUP2 ADD PUSH1 0x40 MSTORE DUP2 ADD SWAP1 PUSH2 0x32 SWAP2 SWAP1 PUSH2 0x4FC JUMP JUMPDEST PUSH1 0x0 DUP3 MLOAD GT PUSH2 0x76 JUMPI PUSH1 0x40 MLOAD PUSH32 0x8C379A000000000000000000000000000000000000000000000000000000000 DUP2 MSTORE PUSH1 0x4 ADD PUSH2 0x6D SWAP1 PUSH2 0x5B5 JUMP JUMPDEST PUSH1 0x40 MLOAD DUP1 SWAP2 SUB SWAP1 REVERT JUMPDEST PUSH1 0x0 DUP2 GT PUSH2 0xB9 JUMPI PUSH1 0x40 MLOAD PUSH32 0x8C379A000000000000000000000000000000000000000000000000000000000 DUP2 MSTORE PUSH1 0x4 ADD PUSH2 0xB0 SWAP1 PUSH2 0x621 JUMP JUMPDEST PUSH1 0x40 MLOAD DUP1 SWAP2 SUB SWAP1 REVERT JUMPDEST DUP2 MLOAD DUP2 GT ISZERO PUSH2 0xFD JUMPI PUSH1 0x40 MLOAD PUSH32 0x8C379A000000000000000000000000000000000000000000000000000000000 DUP2 MSTORE PUSH1 0x4 ADD PUSH2 0xF4 SWAP1 PUSH2 0x6B3 JUMP JUMPDEST PUSH1 0x40 MLOAD DUP1 SWAP2 SUB SWAP1 REVERT JUMPDEST PUSH1 0x0 JUMPDEST DUP3 MLOAD DUP2 LT ISZERO PUSH2 0x2EC JUMPI PUSH1 0x0 DUP4 DUP3 DUP2 MLOAD DUP2 LT PUSH2 0x11E JUMPI PUSH2 0x11D PUSH2 0x6D3 JUMP JUMPDEST JUMPDEST PUSH1 0x20 MUL PUSH1 0x20 ADD ADD MLOAD SWAP1 POP PUSH1 0x0 PUSH20 0xFFFFFFFFFFFFFFFFFFFFFFFFFFFFFFFFFFFFFFFF AND DUP2 PUSH20 0xFFFFFFFFFFFFFFFFFFFFFFFFFFFFFFFFFFFFFFFF AND SUB PUSH2 0x197 JUMPI PUSH1 0x40 MLOAD PUSH32 0x8C379A000000000000000000000000000000000000000000000000000000000 DUP2 MSTORE PUSH1 0x4 ADD PUSH2 0x18E SWAP1 PUSH2 0x74E JUMP JUMPDEST PUSH1 0x40 MLOAD DUP1 SWAP2 SUB SWAP1 REVERT JUMPDEST PUSH1 0x1 PUSH1 0x0 DUP3 PUSH20 0xFFFFFFFFFFFFFFFFFFFFFFFFFFFFFFFFFFFFFFFF AND PUSH20 0xFFFFFFFFFFFFFFFFFFFFFFFFFFFFFFFFFFFFFFFF AND DUP2 MSTORE PUSH1 0x20 ADD SWAP1 DUP2 MSTORE PUSH1 0x20 ADD PUSH1 0x0 KECCAK256 PUSH1 0x0 SWAP1 SLOAD SWAP1 PUSH2 0x100 EXP SWAP1 DIV PUSH1 0xFF AND ISZERO PUSH2 0x224 JUMPI PUSH1 0x40 MLOAD PUSH32 0x8C379A000000000000000000000000000000000000000000000000000000000 DUP2 MSTORE PUSH1 0x4 ADD PUSH2 0x21B SWAP1 PUSH2 0x7BA JUMP JUMPDEST PUSH1 0x40 MLOAD DUP1 SWAP2 SUB SWAP1 REVERT JUMPDEST PUSH1 0x1 DUP1 PUSH1 0x0 DUP4 PUSH20 0xFFFFFFFFFFFFFFFFFFFFFFFFFFFFFFFFFFFFFFFF AND PUSH20 0xFFFFFFFFFFFFFFFFFFFFFFFFFFFFFFFFFFFFFFFF AND DUP2 MSTORE PUSH1 0x20 ADD SWAP1 DUP2 MSTORE PUSH1 0x20 ADD PUSH1 0x0 KECCAK256 PUSH1 0x0 PUSH2 0x100 EXP DUP2 SLOAD DUP2 PUSH1 0xFF MUL NOT AND SWAP1 DUP4 ISZERO ISZERO MUL OR SWAP1 SSTORE POP PUSH1 0x0 DUP2 SWAP1 DUP1 PUSH1 0x1 DUP2 SLOAD ADD DUP1 DUP3 SSTORE DUP1 SWAP2 POP POP PUSH1 0x1 SWAP1 SUB SWAP1 PUSH1 0x0 MSTORE PUSH1 0x20 PUSH1 0x0 KECCAK256 ADD PUSH1 0x0 SWAP1 SWAP2 SWAP1 SWAP2 SWAP1 SWAP2 PUSH2 0x100 EXP DUP2 SLOAD DUP2 PUSH20 0xFFFFFFFFFFFFFFFFFFFFFFFFFFFFFFFFFFFFFFFF MUL NOT AND SWAP1 DUP4 PUSH20 0xFFFFFFFFFFFFFFFFFFFFFFFFFFFFFFFFFFFFFFFF AND MUL OR SWAP1 SSTORE POP POP DUP1 DUP1 PUSH1 0x1 ADD SWAP2 POP POP PUSH2 0x100 JUMP JUMPDEST POP DUP1 PUSH1 0x2 DUP2 SWAP1 SSTORE POP POP POP PUSH2 0x7DA JUMP JUMPDEST PUSH1 0x0 PUSH1 0x40 MLOAD SWAP1 POP SWAP1 JUMP JUMPDEST PUSH1 0x0 DUP1 REVERT JUMPDEST PUSH1 0x0 DUP1 REVERT JUMPDEST PUSH1 0x0 DUP1 REVERT JUMPDEST PUSH1 0x0 PUSH1 0x1F NOT PUSH1 0x1F DUP4 ADD AND SWAP1 POP SWAP2 SWAP1 POP JUMP JUMPDEST PUSH32 0x4E487B7100000000000000000000000000000000000000000000000000000000 PUSH1 0x0 MSTORE PUSH1 0x41 PUSH1 0x4 MSTORE PUSH1 0x24 PUSH1 0x0 REVERT JUMPDEST PUSH2 0x35D DUP3 PUSH2 0x314 JUMP JUMPDEST DUP2 ADD DUP2 DUP2 LT PUSH8 0xFFFFFFFFFFFFFFFF DUP3 GT OR ISZERO PUSH2 0x37C JUMPI PUSH2 0x37B PUSH2 0x325 JUMP JUMPDEST JUMPDEST DUP1 PUSH1 0x40 MSTORE POP POP POP JUMP JUMPDEST PUSH1 0x0 PUSH2 0x38F PUSH2 0x2FB JUMP JUMPDEST SWAP1 POP PUSH2 0x39B DUP3 DUP3 PUSH2 0x354 JUMP JUMPDEST SWAP2 SWAP1 POP JUMP JUMPDEST PUSH1 0x0 PUSH8 0xFFFFFFFFFFFFFFFF DUP3 GT ISZERO PUSH2 0x3BB JUMPI PUSH2 0x3BA PUSH2 0x325 JUMP JUMPDEST JUMPDEST PUSH1 0x20 DUP3 MUL SWAP1 POP PUSH1 0x20 DUP2 ADD SWAP1 POP SWAP2 SWAP1 POP JUMP JUMPDEST PUSH1 0x0 DUP1 REVERT JUMPDEST PUSH1 0x0 PUSH20 0xFFFFFFFFFFFFFFFFFFFFFFFFFFFFFFFFFFFFFFFF DUP3 AND SWAP1 POP SWAP2 SWAP1 POP JUMP JUMPDEST PUSH1 0x0 PUSH2 0x3FC DUP3 PUSH2 0x3D1 JUMP JUMPDEST SWAP1 POP SWAP2 SWAP1 POP JUMP JUMPDEST PUSH2 0x40C DUP2 PUSH2 0x3F1 JUMP JUMPDEST DUP2 EQ PUSH2 0x417 JUMPI PUSH1 0x0 DUP1 REVERT JUMPDEST POP JUMP JUMPDEST PUSH1 0x0 DUP2 MLOAD SWAP1 POP PUSH2 0x429 DUP2 PUSH2 0x403 JUMP JUMPDEST SWAP3 SWAP2 POP POP JUMP JUMPDEST PUSH1 0x0 PUSH2 0x442 PUSH2 0x43D DUP5 PUSH2 0x3A0 JUMP JUMPDEST PUSH2 0x385 JUMP JUMPDEST SWAP1 POP DUP1 DUP4 DUP3 MSTORE PUSH1 0x20 DUP3 ADD SWAP1 POP PUSH1 0x20 DUP5 MUL DUP4 ADD DUP6 DUP2 GT ISZERO PUSH2 0x465 JUMPI PUSH2 0x464 PUSH2 0x3CC JUMP JUMPDEST JUMPDEST DUP4 JUMPDEST DUP2 DUP2 LT ISZERO PUSH2 0x48E JUMPI DUP1 PUSH2 0x47A DUP9 DUP3 PUSH2 0x41A JUMP JUMPDEST DUP5 MSTORE PUSH1 0x20 DUP5 ADD SWAP4 POP POP PUSH1 0x20 DUP2 ADD SWAP1 POP PUSH2 0x467 JUMP JUMPDEST POP POP POP SWAP4 SWAP3 POP POP POP JUMP JUMPDEST PUSH1 0x0 DUP3 PUSH1 0x1F DUP4 ADD SLT PUSH2 0x4AD JUMPI PUSH2 0x4AC PUSH2 0x30F JUMP JUMPDEST JUMPDEST DUP2 MLOAD PUSH2 0x4BD DUP5 DUP3 PUSH1 0x20 DUP7 ADD PUSH2 0x42F JUMP JUMPDEST SWAP2 POP POP SWAP3 SWAP2 POP POP JUMP JUMPDEST PUSH1 0x0 DUP2 SWAP1 POP SWAP2 SWAP1 POP JUMP JUMPDEST PUSH2 0x4D9 DUP2 PUSH2 0x4C6 JUMP JUMPDEST DUP2 EQ PUSH2 0x4E4 JUMPI PUSH1 0x0 DUP1 REVERT JUMPDEST POP JUMP JUMPDEST PUSH1 0x0 DUP2 MLOAD SWAP1 POP PUSH2 0x4F6 DUP2 PUSH2 0x4D0 JUMP JUMPDEST SWAP3 SWAP2 POP POP JUMP JUMPDEST PUSH1 0x0 DUP1 PUSH1 0x40 DUP4 DUP6 SUB SLT ISZERO PUSH2 0x513 JUMPI PUSH2 0x512 PUSH2 0x305 JUMP JUMPDEST JUMPDEST PUSH1 0x0 DUP4 ADD MLOAD PUSH8 0xFFFFFFFFFFFFFFFF DUP2 GT ISZERO PUSH2 0x531 JUMPI PUSH2 0x530 PUSH2 0x30A JUMP JUMPDEST JUMPDEST PUSH2 0x53D DUP6 DUP3 DUP7 ADD PUSH2 0x498 JUMP JUMPDEST SWAP3 POP POP PUSH1 0x20 PUSH2 0x54E DUP6 DUP3 DUP7 ADD PUSH2 0x4E7 JUMP JUMPDEST SWAP2 POP POP SWAP3 POP SWAP3 SWAP1 POP JUMP JUMPDEST PUSH1 0x0 DUP3 DUP3 MSTORE PUSH1 0x20 DUP3 ADD SWAP1 POP SWAP3 SWAP2 POP POP JUMP JUMPDEST PUSH32 0x4F776E6572732072657175697265640000000000000000000000000000000000 PUSH1 0x0 DUP3 ADD MSTORE POP JUMP JUMPDEST PUSH1 0x0 PUSH2 0x59F PUSH1 0xF DUP4 PUSH2 0x558 JUMP JUMPDEST SWAP2 POP PUSH2 0x5AA DUP3 PUSH2 0x569 JUMP JUMPDEST PUSH1 0x20 DUP3 ADD SWAP1 POP SWAP2 SWAP1 POP JUMP JUMPDEST PUSH1 0x0 PUSH1 0x20 DUP3 ADD SWAP1 POP DUP2 DUP2 SUB PUSH1 0x0 DUP4 ADD MSTORE PUSH2 0x5CE DUP2 PUSH2 0x592 JUMP JUMPDEST SWAP1 POP SWAP2 SWAP1 POP JUMP JUMPDEST PUSH32 0x436F6E6669726D6174696F6E7320726571756972656400000000000000000000 PUSH1 0x0 DUP3 ADD MSTORE POP JUMP JUMPDEST PUSH1 0x0 PUSH2 0x60B PUSH1 0x16 DUP4 PUSH2 0x558 JUMP JUMPDEST SWAP2 POP PUSH2 0x616 DUP3 PUSH2 0x5D5 JUMP JUMPDEST PUSH1 0x20 DUP3 ADD SWAP1 POP SWAP2 SWAP1 POP JUMP JUMPDEST PUSH1 0x0 PUSH1 0x20 DUP3 ADD SWAP1 POP DUP2 DUP2 SUB PUSH1 0x0 DUP4 ADD MSTORE PUSH2 0x63A DUP2 PUSH2 0x5FE JUMP JUMPDEST SWAP1 POP SWAP2 SWAP1 POP JUMP JUMPDEST PUSH32 0x496E76616C6964206E756D626572206F6620636F6E6669726D6174696F6E7320 PUSH1 0x0 DUP3 ADD MSTORE PUSH32 0x7265717569726564000000000000000000000000000000000000000000000000 PUSH1 0x20 DUP3 ADD MSTORE POP JUMP JUMPDEST PUSH1 0x0 PUSH2 0x69D PUSH1 0x28 DUP4 PUSH2 0x558 JUMP JUMPDEST SWAP2 POP PUSH2 0x6A8 DUP3 PUSH2 0x641 JUMP JUMPDEST PUSH1 0x40 DUP3 ADD SWAP1 POP SWAP2 SWAP1 POP JUMP JUMPDEST PUSH1 0x0 PUSH1 0x20 DUP3 ADD SWAP1 POP DUP2 DUP2 SUB PUSH1 0x0 DUP4 ADD MSTORE PUSH2 0x6CC DUP2 PUSH2 0x690 JUMP JUMPDEST SWAP1 POP SWAP2 SWAP1 POP JUMP JUMPDEST PUSH32 0x4E487B7100000000000000000000000000000000000000000000000000000000 PUSH1 0x0 MSTORE PUSH1 0x32 PUSH1 0x4 MSTORE PUSH1 0x24 PUSH1 0x0 REVERT JUMPDEST PUSH32 0x496E76616C6964206F776E657220616464726573730000000000000000000000 PUSH1 0x0 DUP3 ADD MSTORE POP JUMP JUMPDEST PUSH1 0x0 PUSH2 0x738 PUSH1 0x15 DUP4 PUSH2 0x558 JUMP JUMPDEST SWAP2 POP PUSH2 0x743 DUP3 PUSH2 0x702 JUMP JUMPDEST PUSH1 0x20 DUP3 ADD SWAP1 POP SWAP2 SWAP1 POP JUMP JUMPDEST PUSH1 0x0 PUSH1 0x20 DUP3 ADD SWAP1 POP DUP2 DUP2 SUB PUSH1 0x0 DUP4 ADD MSTORE PUSH2 0x767 DUP2 PUSH2 0x72B JUMP JUMPDEST SWAP1 POP SWAP2 SWAP1 POP JUMP JUMPDEST PUSH32 0x4F776E6572206E6F7420756E6971756500000000000000000000000000000000 PUSH1 0x0 DUP3 ADD MSTORE POP JUMP JUMPDEST PUSH1 0x0 PUSH2 0x7A4 PUSH1 0x10 DUP4 PUSH2 0x558 JUMP JUMPDEST SWAP2 POP PUSH2 0x7AF DUP3 PUSH2 0x76E JUMP JUMPDEST PUSH1 0x20 DUP3 ADD SWAP1 POP SWAP2 SWAP1 POP JUMP JUMPDEST PUSH1 0x0 PUSH1 0x20 DUP3 ADD SWAP1 POP DUP2 DUP2 SUB PUSH1 0x0 DUP4 ADD MSTORE PUSH2 0x7D3 DUP2 PUSH2 0x797 JUMP JUMPDEST SWAP1 POP SWAP2 SWAP1 POP JUMP JUMPDEST PUSH2 0x1DF1 DUP1 PUSH2 0x7E9 PUSH1 0x0 CODECOPY PUSH1 0x0 RETURN INVALID PUSH1 0x80 PUSH1 0x40 MSTORE PUSH1 0x4 CALLDATASIZE LT PUSH2 0xC6 JUMPI PUSH1 0x0 CALLDATALOAD PUSH1 0xE0 SHR DUP1 PUSH4 0x80F59A65 GT PUSH2 0x7F JUMPI DUP1 PUSH4 0xC6427474 GT PUSH2 0x59 JUMPI DUP1 PUSH4 0xC6427474 EQ PUSH2 0x2ED JUMPI DUP1 PUSH4 0xD0549B85 EQ PUSH2 0x316 JUMPI DUP1 PUSH4 0xD0E30DB0 EQ PUSH2 0x341 JUMPI DUP1 PUSH4 0xEE22610B EQ PUSH2 0x34B JUMPI PUSH2 0x11D JUMP JUMPDEST DUP1 PUSH4 0x80F59A65 EQ PUSH2 0x25C JUMPI DUP1 PUSH4 0xA0E67E2B EQ PUSH2 0x299 JUMPI DUP1 PUSH4 0xC01A8C84 EQ PUSH2 0x2C4 JUMPI PUSH2 0x11D JUMP JUMPDEST DUP1 PUSH4 0x25E7C27 EQ PUSH2 0x122 JUMPI DUP1 PUSH4 0x12065FE0 EQ PUSH2 0x15F JUMPI DUP1 PUSH4 0x2E7700F0 EQ PUSH2 0x18A JUMPI DUP1 PUSH4 0x2F54BF6E EQ PUSH2 0x1B5 JUMPI DUP1 PUSH4 0x33EA3DC8 EQ PUSH2 0x1F2 JUMPI DUP1 PUSH4 0x735631AD EQ PUSH2 0x233 JUMPI PUSH2 0x11D JUMP JUMPDEST CALLDATASIZE PUSH2 0x11D JUMPI CALLER PUSH20 0xFFFFFFFFFFFFFFFFFFFFFFFFFFFFFFFFFFFFFFFF AND PUSH32 0x90890809C654F11D6E72A28FA60149770A0D11EC6C92319D6CEB2BB0A4EA1A15 CALLVALUE SELFBALANCE PUSH1 0x40 MLOAD PUSH2 0x113 SWAP3 SWAP2 SWAP1 PUSH2 0x111A JUMP JUMPDEST PUSH1 0x40 MLOAD DUP1 SWAP2 SUB SWAP1 LOG2 STOP JUMPDEST PUSH1 0x0 DUP1 REVERT JUMPDEST CALLVALUE DUP1 ISZERO PUSH2 0x12E JUMPI PUSH1 0x0 DUP1 REVERT JUMPDEST POP PUSH2 0x149 PUSH1 0x4 DUP1 CALLDATASIZE SUB DUP2 ADD SWAP1 PUSH2 0x144 SWAP2 SWAP1 PUSH2 0x1183 JUMP JUMPDEST PUSH2 0x374 JUMP JUMPDEST PUSH1 0x40 MLOAD PUSH2 0x156 SWAP2 SWAP1 PUSH2 0x11F1 JUMP JUMPDEST PUSH1 0x40 MLOAD DUP1 SWAP2 SUB SWAP1 RETURN JUMPDEST CALLVALUE DUP1 ISZERO PUSH2 0x16B JUMPI PUSH1 0x0 DUP1 REVERT JUMPDEST POP PUSH2 0x174 PUSH2 0x3B3 JUMP JUMPDEST PUSH1 0x40 MLOAD PUSH2 0x181 SWAP2 SWAP1 PUSH2 0x120C JUMP JUMPDEST PUSH1 0x40 MLOAD DUP1 SWAP2 SUB SWAP1 RETURN JUMPDEST CALLVALUE DUP1 ISZERO PUSH2 0x196 JUMPI PUSH1 0x0 DUP1 REVERT JUMPDEST POP PUSH2 0x19F PUSH2 0x3BB JUMP JUMPDEST PUSH1 0x40 MLOAD PUSH2 0x1AC SWAP2 SWAP1 PUSH2 0x120C JUMP JUMPDEST PUSH1 0x40 MLOAD DUP1 SWAP2 SUB SWAP1 RETURN JUMPDEST CALLVALUE DUP1 ISZERO PUSH2 0x1C1 JUMPI PUSH1 0x0 DUP1 REVERT JUMPDEST POP PUSH2 0x1DC PUSH1 0x4 DUP1 CALLDATASIZE SUB DUP2 ADD SWAP1 PUSH2 0x1D7 SWAP2 SWAP1 PUSH2 0x1253 JUMP JUMPDEST PUSH2 0x3C8 JUMP JUMPDEST PUSH1 0x40 MLOAD PUSH2 0x1E9 SWAP2 SWAP1 PUSH2 0x129B JUMP JUMPDEST PUSH1 0x40 MLOAD DUP1 SWAP2 SUB SWAP1 RETURN JUMPDEST CALLVALUE DUP1 ISZERO PUSH2 0x1FE JUMPI PUSH1 0x0 DUP1 REVERT JUMPDEST POP PUSH2 0x219 PUSH1 0x4 DUP1 CALLDATASIZE SUB DUP2 ADD SWAP1 PUSH2 0x214 SWAP2 SWAP1 PUSH2 0x1183 JUMP JUMPDEST PUSH2 0x3E8 JUMP JUMPDEST PUSH1 0x40 MLOAD PUSH2 0x22A SWAP6 SWAP5 SWAP4 SWAP3 SWAP2 SWAP1 PUSH2 0x1346 JUMP JUMPDEST PUSH1 0x40 MLOAD DUP1 SWAP2 SUB SWAP1 RETURN JUMPDEST CALLVALUE DUP1 ISZERO PUSH2 0x23F JUMPI PUSH1 0x0 DUP1 REVERT JUMPDEST POP PUSH2 0x25A PUSH1 0x4 DUP1 CALLDATASIZE SUB DUP2 ADD SWAP1 PUSH2 0x255 SWAP2 SWAP1 PUSH2 0x1183 JUMP JUMPDEST PUSH2 0x4FB JUMP JUMPDEST STOP JUMPDEST CALLVALUE DUP1 ISZERO PUSH2 0x268 JUMPI PUSH1 0x0 DUP1 REVERT JUMPDEST POP PUSH2 0x283 PUSH1 0x4 DUP1 CALLDATASIZE SUB DUP2 ADD SWAP1 PUSH2 0x27E SWAP2 SWAP1 PUSH2 0x13A0 JUMP JUMPDEST PUSH2 0x7B5 JUMP JUMPDEST PUSH1 0x40 MLOAD PUSH2 0x290 SWAP2 SWAP1 PUSH2 0x129B JUMP JUMPDEST PUSH1 0x40 MLOAD DUP1 SWAP2 SUB SWAP1 RETURN JUMPDEST CALLVALUE DUP1 ISZERO PUSH2 0x2A5 JUMPI PUSH1 0x0 DUP1 REVERT JUMPDEST POP PUSH2 0x2AE PUSH2 0x82F JUMP JUMPDEST PUSH1 0x40 MLOAD PUSH2 0x2BB SWAP2 SWAP1 PUSH2 0x149E JUMP JUMPDEST PUSH1 0x40 MLOAD DUP1 SWAP2 SUB SWAP1 RETURN JUMPDEST CALLVALUE DUP1 ISZERO PUSH2 0x2D0 JUMPI PUSH1 0x0 DUP1 REVERT JUMPDEST POP PUSH2 0x2EB PUSH1 0x4 DUP1 CALLDATASIZE SUB DUP2 ADD SWAP1 PUSH2 0x2E6 SWAP2 SWAP1 PUSH2 0x1183 JUMP JUMPDEST PUSH2 0x8BD JUMP JUMPDEST STOP JUMPDEST CALLVALUE DUP1 ISZERO PUSH2 0x2F9 JUMPI PUSH1 0x0 DUP1 REVERT JUMPDEST POP PUSH2 0x314 PUSH1 0x4 DUP1 CALLDATASIZE SUB DUP2 ADD SWAP1 PUSH2 0x30F SWAP2 SWAP1 PUSH2 0x15F5 JUMP JUMPDEST PUSH2 0xB9B JUMP JUMPDEST STOP JUMPDEST CALLVALUE DUP1 ISZERO PUSH2 0x322 JUMPI PUSH1 0x0 DUP1 REVERT JUMPDEST POP PUSH2 0x32B PUSH2 0xD67 JUMP JUMPDEST PUSH1 0x40 MLOAD PUSH2 0x338 SWAP2 SWAP1 PUSH2 0x120C JUMP JUMPDEST PUSH1 0x40 MLOAD DUP1 SWAP2 SUB SWAP1 RETURN JUMPDEST PUSH2 0x349 PUSH2 0xD6D JUMP JUMPDEST STOP JUMPDEST CALLVALUE DUP1 ISZERO PUSH2 0x357 JUMPI PUSH1 0x0 DUP1 REVERT JUMPDEST POP PUSH2 0x372 PUSH1 0x4 DUP1 CALLDATASIZE SUB DUP2 ADD SWAP1 PUSH2 0x36D SWAP2 SWAP1 PUSH2 0x1183 JUMP JUMPDEST PUSH2 0xDBF JUMP JUMPDEST STOP JUMPDEST PUSH1 0x0 DUP2 DUP2 SLOAD DUP2 LT PUSH2 0x384 JUMPI PUSH1 0x0 DUP1 REVERT JUMPDEST SWAP1 PUSH1 0x0 MSTORE PUSH1 0x20 PUSH1 0x0 KECCAK256 ADD PUSH1 0x0 SWAP2 POP SLOAD SWAP1 PUSH2 0x100 EXP SWAP1 DIV PUSH20 0xFFFFFFFFFFFFFFFFFFFFFFFFFFFFFFFFFFFFFFFF AND DUP2 JUMP JUMPDEST PUSH1 0x0 SELFBALANCE SWAP1 POP SWAP1 JUMP JUMPDEST PUSH1 0x0 PUSH1 0x3 DUP1 SLOAD SWAP1 POP SWAP1 POP SWAP1 JUMP JUMPDEST PUSH1 0x1 PUSH1 0x20 MSTORE DUP1 PUSH1 0x0 MSTORE PUSH1 0x40 PUSH1 0x0 KECCAK256 PUSH1 0x0 SWAP2 POP SLOAD SWAP1 PUSH2 0x100 EXP SWAP1 DIV PUSH1 0xFF AND DUP2 JUMP JUMPDEST PUSH1 0x0 DUP1 PUSH1 0x60 PUSH1 0x0 DUP1 PUSH1 0x0 PUSH1 0x3 DUP8 DUP2 SLOAD DUP2 LT PUSH2 0x406 JUMPI PUSH2 0x405 PUSH2 0x1664 JUMP JUMPDEST JUMPDEST SWAP1 PUSH1 0x0 MSTORE PUSH1 0x20 PUSH1 0x0 KECCAK256 SWAP1 PUSH1 0x6 MUL ADD SWAP1 POP DUP1 PUSH1 0x0 ADD PUSH1 0x0 SWAP1 SLOAD SWAP1 PUSH2 0x100 EXP SWAP1 DIV PUSH20 0xFFFFFFFFFFFFFFFFFFFFFFFFFFFFFFFFFFFFFFFF AND DUP2 PUSH1 0x1 ADD SLOAD DUP3 PUSH1 0x2 ADD DUP4 PUSH1 0x3 ADD PUSH1 0x0 SWAP1 SLOAD SWAP1 PUSH2 0x100 EXP SWAP1 DIV PUSH1 0xFF AND DUP5 PUSH1 0x5 ADD SLOAD DUP3 DUP1 SLOAD PUSH2 0x467 SWAP1 PUSH2 0x16C2 JUMP JUMPDEST DUP1 PUSH1 0x1F ADD PUSH1 0x20 DUP1 SWAP2 DIV MUL PUSH1 0x20 ADD PUSH1 0x40 MLOAD SWAP1 DUP2 ADD PUSH1 0x40 MSTORE DUP1 SWAP3 SWAP2 SWAP1 DUP2 DUP2 MSTORE PUSH1 0x20 ADD DUP3 DUP1 SLOAD PUSH2 0x493 SWAP1 PUSH2 0x16C2 JUMP JUMPDEST DUP1 ISZERO PUSH2 0x4E0 JUMPI DUP1 PUSH1 0x1F LT PUSH2 0x4B5 JUMPI PUSH2 0x100 DUP1 DUP4 SLOAD DIV MUL DUP4 MSTORE SWAP2 PUSH1 0x20 ADD SWAP2 PUSH2 0x4E0 JUMP JUMPDEST DUP3 ADD SWAP2 SWAP1 PUSH1 0x0 MSTORE PUSH1 0x20 PUSH1 0x0 KECCAK256 SWAP1 JUMPDEST DUP2 SLOAD DUP2 MSTORE SWAP1 PUSH1 0x1 ADD SWAP1 PUSH1 0x20 ADD DUP1 DUP4 GT PUSH2 0x4C3 JUMPI DUP3 SWAP1 SUB PUSH1 0x1F AND DUP3 ADD SWAP2 JUMPDEST POP POP POP POP POP SWAP3 POP SWAP6 POP SWAP6 POP SWAP6 POP SWAP6 POP SWAP6 POP POP SWAP2 SWAP4 SWAP6 SWAP1 SWAP3 SWAP5 POP JUMP JUMPDEST PUSH1 0x1 PUSH1 0x0 CALLER PUSH20 0xFFFFFFFFFFFFFFFFFFFFFFFFFFFFFFFFFFFFFFFF AND PUSH20 0xFFFFFFFFFFFFFFFFFFFFFFFFFFFFFFFFFFFFFFFF AND DUP2 MSTORE PUSH1 0x20 ADD SWAP1 DUP2 MSTORE PUSH1 0x20 ADD PUSH1 0x0 KECCAK256 PUSH1 0x0 SWAP1 SLOAD SWAP1 PUSH2 0x100 EXP SWAP1 DIV PUSH1 0xFF AND PUSH2 0x587 JUMPI PUSH1 0x40 MLOAD PUSH32 0x8C379A000000000000000000000000000000000000000000000000000000000 DUP2 MSTORE PUSH1 0x4 ADD PUSH2 0x57E SWAP1 PUSH2 0x1750 JUMP JUMPDEST PUSH1 0x40 MLOAD DUP1 SWAP2 SUB SWAP1 REVERT JUMPDEST DUP1 PUSH1 0x3 DUP1 SLOAD SWAP1 POP DUP2 LT PUSH2 0x5CF JUMPI PUSH1 0x40 MLOAD PUSH32 0x8C379A000000000000000000000000000000000000000000000000000000000 DUP2 MSTORE PUSH1 0x4 ADD PUSH2 0x5C6 SWAP1 PUSH2 0x17BC JUMP JUMPDEST PUSH1 0x40 MLOAD DUP1 SWAP2 SUB SWAP1 REVERT JUMPDEST DUP2 PUSH1 0x3 DUP2 DUP2 SLOAD DUP2 LT PUSH2 0x5E4 JUMPI PUSH2 0x5E3 PUSH2 0x1664 JUMP JUMPDEST JUMPDEST SWAP1 PUSH1 0x0 MSTORE PUSH1 0x20 PUSH1 0x0 KECCAK256 SWAP1 PUSH1 0x6 MUL ADD PUSH1 0x3 ADD PUSH1 0x0 SWAP1 SLOAD SWAP1 PUSH2 0x100 EXP SWAP1 DIV PUSH1 0xFF AND ISZERO PUSH2 0x643 JUMPI PUSH1 0x40 MLOAD PUSH32 0x8C379A000000000000000000000000000000000000000000000000000000000 DUP2 MSTORE PUSH1 0x4 ADD PUSH2 0x63A SWAP1 PUSH2 0x1828 JUMP JUMPDEST PUSH1 0x40 MLOAD DUP1 SWAP2 SUB SWAP1 REVERT JUMPDEST PUSH1 0x0 PUSH1 0x3 DUP5 DUP2 SLOAD DUP2 LT PUSH2 0x659 JUMPI PUSH2 0x658 PUSH2 0x1664 JUMP JUMPDEST JUMPDEST SWAP1 PUSH1 0x0 MSTORE PUSH1 0x20 PUSH1 0x0 KECCAK256 SWAP1 PUSH1 0x6 MUL ADD SWAP1 POP DUP1 PUSH1 0x4 ADD PUSH1 0x0 CALLER PUSH20 0xFFFFFFFFFFFFFFFFFFFFFFFFFFFFFFFFFFFFFFFF AND PUSH20 0xFFFFFFFFFFFFFFFFFFFFFFFFFFFFFFFFFFFFFFFF AND DUP2 MSTORE PUSH1 0x20 ADD SWAP1 DUP2 MSTORE PUSH1 0x20 ADD PUSH1 0x0 KECCAK256 PUSH1 0x0 SWAP1 SLOAD SWAP1 PUSH2 0x100 EXP SWAP1 DIV PUSH1 0xFF AND PUSH2 0x6F7 JUMPI PUSH1 0x40 MLOAD PUSH32 0x8C379A000000000000000000000000000000000000000000000000000000000 DUP2 MSTORE PUSH1 0x4 ADD PUSH2 0x6EE SWAP1 PUSH2 0x1894 JUMP JUMPDEST PUSH1 0x40 MLOAD DUP1 SWAP2 SUB SWAP1 REVERT JUMPDEST PUSH1 0x0 DUP2 PUSH1 0x4 ADD PUSH1 0x0 CALLER PUSH20 0xFFFFFFFFFFFFFFFFFFFFFFFFFFFFFFFFFFFFFFFF AND PUSH20 0xFFFFFFFFFFFFFFFFFFFFFFFFFFFFFFFFFFFFFFFF AND DUP2 MSTORE PUSH1 0x20 ADD SWAP1 DUP2 MSTORE PUSH1 0x20 ADD PUSH1 0x0 KECCAK256 PUSH1 0x0 PUSH2 0x100 EXP DUP2 SLOAD DUP2 PUSH1 0xFF MUL NOT AND SWAP1 DUP4 ISZERO ISZERO MUL OR SWAP1 SSTORE POP DUP1 PUSH1 0x5 ADD PUSH1 0x0 DUP2 SLOAD DUP1 SWAP3 SWAP2 SWAP1 PUSH2 0x766 SWAP1 PUSH2 0x18E3 JUMP JUMPDEST SWAP2 SWAP1 POP SSTORE POP DUP4 CALLER PUSH20 0xFFFFFFFFFFFFFFFFFFFFFFFFFFFFFFFFFFFFFFFF AND PUSH32 0xE5C8875C5E14471F806F15F740CD9FD54937D151E9DCF8AD3BA988D6A285E67E PUSH1 0x40 MLOAD PUSH1 0x40 MLOAD DUP1 SWAP2 SUB SWAP1 LOG3 POP POP POP POP JUMP JUMPDEST PUSH1 0x0 PUSH1 0x3 DUP4 DUP2 SLOAD DUP2 LT PUSH2 0x7CB JUMPI PUSH2 0x7CA PUSH2 0x1664 JUMP JUMPDEST JUMPDEST SWAP1 PUSH1 0x0 MSTORE PUSH1 0x20 PUSH1 0x0 KECCAK256 SWAP1 PUSH1 0x6 MUL ADD PUSH1 0x4 ADD PUSH1 0x0 DUP4 PUSH20 0xFFFFFFFFFFFFFFFFFFFFFFFFFFFFFFFFFFFFFFFF AND PUSH20 0xFFFFFFFFFFFFFFFFFFFFFFFFFFFFFFFFFFFFFFFF AND DUP2 MSTORE PUSH1 0x20 ADD SWAP1 DUP2 MSTORE PUSH1 0x20 ADD PUSH1 0x0 KECCAK256 PUSH1 0x0 SWAP1 SLOAD SWAP1 PUSH2 0x100 EXP SWAP1 DIV PUSH1 0xFF AND SWAP1 POP SWAP3 SWAP2 POP POP JUMP JUMPDEST PUSH1 0x60 PUSH1 0x0 DUP1 SLOAD DUP1 PUSH1 0x20 MUL PUSH1 0x20 ADD PUSH1 0x40 MLOAD SWAP1 DUP2 ADD PUSH1 0x40 MSTORE DUP1 SWAP3 SWAP2 SWAP1 DUP2 DUP2 MSTORE PUSH1 0x20 ADD DUP3 DUP1 SLOAD DUP1 ISZERO PUSH2 0x8B3 JUMPI PUSH1 0x20 MUL DUP3 ADD SWAP2 SWAP1 PUSH1 0x0 MSTORE PUSH1 0x20 PUSH1 0x0 KECCAK256 SWAP1 JUMPDEST DUP2 PUSH1 0x0 SWAP1 SLOAD SWAP1 PUSH2 0x100 EXP SWAP1 DIV PUSH20 0xFFFFFFFFFFFFFFFFFFFFFFFFFFFFFFFFFFFFFFFF AND PUSH20 0xFFFFFFFFFFFFFFFFFFFFFFFFFFFFFFFFFFFFFFFF AND DUP2 MSTORE PUSH1 0x20 ADD SWAP1 PUSH1 0x1 ADD SWAP1 DUP1 DUP4 GT PUSH2 0x869 JUMPI JUMPDEST POP POP POP POP POP SWAP1 POP SWAP1 JUMP JUMPDEST PUSH1 0x1 PUSH1 0x0 CALLER PUSH20 0xFFFFFFFFFFFFFFFFFFFFFFFFFFFFFFFFFFFFFFFF AND PUSH20 0xFFFFFFFFFFFFFFFFFFFFFFFFFFFFFFFFFFFFFFFF AND DUP2 MSTORE PUSH1 0x20 ADD SWAP1 DUP2 MSTORE PUSH1 0x20 ADD PUSH1 0x0 KECCAK256 PUSH1 0x0 SWAP1 SLOAD SWAP1 PUSH2 0x100 EXP SWAP1 DIV PUSH1 0xFF AND PUSH2 0x949 JUMPI PUSH1 0x40 MLOAD PUSH32 0x8C379A000000000000000000000000000000000000000000000000000000000 DUP2 MSTORE PUSH1 0x4 ADD PUSH2 0x940 SWAP1 PUSH2 0x1750 JUMP JUMPDEST PUSH1 0x40 MLOAD DUP1 SWAP2 SUB SWAP1 REVERT JUMPDEST DUP1 PUSH1 0x3 DUP1 SLOAD SWAP1 POP DUP2 LT PUSH2 0x991 JUMPI PUSH1 0x40 MLOAD PUSH32 0x8C379A000000000000000000000000000000000000000000000000000000000 DUP2 MSTORE PUSH1 0x4 ADD PUSH2 0x988 SWAP1 PUSH2 0x17BC JUMP JUMPDEST PUSH1 0x40 MLOAD DUP1 SWAP2 SUB SWAP1 REVERT JUMPDEST DUP2 PUSH1 0x3 DUP2 DUP2 SLOAD DUP2 LT PUSH2 0x9A6 JUMPI PUSH2 0x9A5 PUSH2 0x1664 JUMP JUMPDEST JUMPDEST SWAP1 PUSH1 0x0 MSTORE PUSH1 0x20 PUSH1 0x0 KECCAK256 SWAP1 PUSH1 0x6 MUL ADD PUSH1 0x3 ADD PUSH1 0x0 SWAP1 SLOAD SWAP1 PUSH2 0x100 EXP SWAP1 DIV PUSH1 0xFF AND ISZERO PUSH2 0xA05 JUMPI PUSH1 0x40 MLOAD PUSH32 0x8C379A000000000000000000000000000000000000000000000000000000000 DUP2 MSTORE PUSH1 0x4 ADD PUSH2 0x9FC SWAP1 PUSH2 0x1828 JUMP JUMPDEST PUSH1 0x40 MLOAD DUP1 SWAP2 SUB SWAP1 REVERT JUMPDEST DUP3 PUSH1 0x3 DUP2 DUP2 SLOAD DUP2 LT PUSH2 0xA1A JUMPI PUSH2 0xA19 PUSH2 0x1664 JUMP JUMPDEST JUMPDEST SWAP1 PUSH1 0x0 MSTORE PUSH1 0x20 PUSH1 0x0 KECCAK256 SWAP1 PUSH1 0x6 MUL ADD PUSH1 0x4 ADD PUSH1 0x0 CALLER PUSH20 0xFFFFFFFFFFFFFFFFFFFFFFFFFFFFFFFFFFFFFFFF AND PUSH20 0xFFFFFFFFFFFFFFFFFFFFFFFFFFFFFFFFFFFFFFFF AND DUP2 MSTORE PUSH1 0x20 ADD SWAP1 DUP2 MSTORE PUSH1 0x20 ADD PUSH1 0x0 KECCAK256 PUSH1 0x0 SWAP1 SLOAD SWAP1 PUSH2 0x100 EXP SWAP1 DIV PUSH1 0xFF AND ISZERO PUSH2 0xAB6 JUMPI PUSH1 0x40 MLOAD PUSH32 0x8C379A000000000000000000000000000000000000000000000000000000000 DUP2 MSTORE PUSH1 0x4 ADD PUSH2 0xAAD SWAP1 PUSH2 0x1958 JUMP JUMPDEST PUSH1 0x40 MLOAD DUP1 SWAP2 SUB SWAP1 REVERT JUMPDEST PUSH1 0x0 PUSH1 0x3 DUP6 DUP2 SLOAD DUP2 LT PUSH2 0xACC JUMPI PUSH2 0xACB PUSH2 0x1664 JUMP JUMPDEST JUMPDEST SWAP1 PUSH1 0x0 MSTORE PUSH1 0x20 PUSH1 0x0 KECCAK256 SWAP1 PUSH1 0x6 MUL ADD SWAP1 POP PUSH1 0x1 DUP2 PUSH1 0x4 ADD PUSH1 0x0 CALLER PUSH20 0xFFFFFFFFFFFFFFFFFFFFFFFFFFFFFFFFFFFFFFFF AND PUSH20 0xFFFFFFFFFFFFFFFFFFFFFFFFFFFFFFFFFFFFFFFF AND DUP2 MSTORE PUSH1 0x20 ADD SWAP1 DUP2 MSTORE PUSH1 0x20 ADD PUSH1 0x0 KECCAK256 PUSH1 0x0 PUSH2 0x100 EXP DUP2 SLOAD DUP2 PUSH1 0xFF MUL NOT AND SWAP1 DUP4 ISZERO ISZERO MUL OR SWAP1 SSTORE POP DUP1 PUSH1 0x5 ADD PUSH1 0x0 DUP2 SLOAD DUP1 SWAP3 SWAP2 SWAP1 PUSH2 0xB4B SWAP1 PUSH2 0x1978 JUMP JUMPDEST SWAP2 SWAP1 POP SSTORE POP DUP5 CALLER PUSH20 0xFFFFFFFFFFFFFFFFFFFFFFFFFFFFFFFFFFFFFFFF AND PUSH32 0xF8A17C9136A3AE33364FAC05EB088A3CBAFEE10C1889C88593E20EE2D8E4EB88 PUSH1 0x40 MLOAD PUSH1 0x40 MLOAD DUP1 SWAP2 SUB SWAP1 LOG3 POP POP POP POP POP JUMP JUMPDEST PUSH1 0x1 PUSH1 0x0 CALLER PUSH20 0xFFFFFFFFFFFFFFFFFFFFFFFFFFFFFFFFFFFFFFFF AND PUSH20 0xFFFFFFFFFFFFFFFFFFFFFFFFFFFFFFFFFFFFFFFF AND DUP2 MSTORE PUSH1 0x20 ADD SWAP1 DUP2 MSTORE PUSH1 0x20 ADD PUSH1 0x0 KECCAK256 PUSH1 0x0 SWAP1 SLOAD SWAP1 PUSH2 0x100 EXP SWAP1 DIV PUSH1 0xFF AND PUSH2 0xC27 JUMPI PUSH1 0x40 MLOAD PUSH32 0x8C379A000000000000000000000000000000000000000000000000000000000 DUP2 MSTORE PUSH1 0x4 ADD PUSH2 0xC1E SWAP1 PUSH2 0x1750 JUMP JUMPDEST PUSH1 0x40 MLOAD DUP1 SWAP2 SUB SWAP1 REVERT JUMPDEST PUSH1 0x0 PUSH1 0x3 DUP1 SLOAD SWAP1 POP SWAP1 POP PUSH1 0x3 PUSH1 0x1 DUP2 PUSH1 0x1 DUP2 SLOAD ADD DUP1 DUP3 SSTORE DUP1 SWAP2 POP POP SUB SWAP1 PUSH1 0x0 MSTORE PUSH1 0x20 PUSH1 0x0 KECCAK256 SWAP1 POP POP PUSH1 0x0 PUSH1 0x3 DUP3 DUP2 SLOAD DUP2 LT PUSH2 0xC65 JUMPI PUSH2 0xC64 PUSH2 0x1664 JUMP JUMPDEST JUMPDEST SWAP1 PUSH1 0x0 MSTORE PUSH1 0x20 PUSH1 0x0 KECCAK256 SWAP1 PUSH1 0x6 MUL ADD SWAP1 POP DUP5 DUP2 PUSH1 0x0 ADD PUSH1 0x0 PUSH2 0x100 EXP DUP2 SLOAD DUP2 PUSH20 0xFFFFFFFFFFFFFFFFFFFFFFFFFFFFFFFFFFFFFFFF MUL NOT AND SWAP1 DUP4 PUSH20 0xFFFFFFFFFFFFFFFFFFFFFFFFFFFFFFFFFFFFFFFF AND MUL OR SWAP1 SSTORE POP DUP4 DUP2 PUSH1 0x1 ADD DUP2 SWAP1 SSTORE POP DUP3 DUP2 PUSH1 0x2 ADD SWAP1 DUP2 PUSH2 0xCD2 SWAP2 SWAP1 PUSH2 0x1B6C JUMP JUMPDEST POP PUSH1 0x0 DUP2 PUSH1 0x3 ADD PUSH1 0x0 PUSH2 0x100 EXP DUP2 SLOAD DUP2 PUSH1 0xFF MUL NOT AND SWAP1 DUP4 ISZERO ISZERO MUL OR SWAP1 SSTORE POP PUSH1 0x0 DUP2 PUSH1 0x5 ADD DUP2 SWAP1 SSTORE POP DUP5 PUSH20 0xFFFFFFFFFFFFFFFFFFFFFFFFFFFFFFFFFFFFFFFF AND DUP3 CALLER PUSH20 0xFFFFFFFFFFFFFFFFFFFFFFFFFFFFFFFFFFFFFFFF AND PUSH32 0x8A4B6990E28726526505760D8BAB6EFEF36AEA3ED6BC0618039052EE41ED7C2E DUP8 PUSH1 0x40 MLOAD PUSH2 0xD58 SWAP2 SWAP1 PUSH2 0x120C JUMP JUMPDEST PUSH1 0x40 MLOAD DUP1 SWAP2 SUB SWAP1 LOG4 POP POP POP POP POP JUMP JUMPDEST PUSH1 0x2 SLOAD DUP2 JUMP JUMPDEST CALLER PUSH20 0xFFFFFFFFFFFFFFFFFFFFFFFFFFFFFFFFFFFFFFFF AND PUSH32 0x90890809C654F11D6E72A28FA60149770A0D11EC6C92319D6CEB2BB0A4EA1A15 CALLVALUE SELFBALANCE PUSH1 0x40 MLOAD PUSH2 0xDB5 SWAP3 SWAP2 SWAP1 PUSH2 0x111A JUMP JUMPDEST PUSH1 0x40 MLOAD DUP1 SWAP2 SUB SWAP1 LOG2 JUMP JUMPDEST PUSH1 0x1 PUSH1 0x0 CALLER PUSH20 0xFFFFFFFFFFFFFFFFFFFFFFFFFFFFFFFFFFFFFFFF AND PUSH20 0xFFFFFFFFFFFFFFFFFFFFFFFFFFFFFFFFFFFFFFFF AND DUP2 MSTORE PUSH1 0x20 ADD SWAP1 DUP2 MSTORE PUSH1 0x20 ADD PUSH1 0x0 KECCAK256 PUSH1 0x0 SWAP1 SLOAD SWAP1 PUSH2 0x100 EXP SWAP1 DIV PUSH1 0xFF AND PUSH2 0xE4B JUMPI PUSH1 0x40 MLOAD PUSH32 0x8C379A000000000000000000000000000000000000000000000000000000000 DUP2 MSTORE PUSH1 0x4 ADD PUSH2 0xE42 SWAP1 PUSH2 0x1750 JUMP JUMPDEST PUSH1 0x40 MLOAD DUP1 SWAP2 SUB SWAP1 REVERT JUMPDEST DUP1 PUSH1 0x3 DUP1 SLOAD SWAP1 POP DUP2 LT PUSH2 0xE93 JUMPI PUSH1 0x40 MLOAD PUSH32 0x8C379A000000000000000000000000000000000000000000000000000000000 DUP2 MSTORE PUSH1 0x4 ADD PUSH2 0xE8A SWAP1 PUSH2 0x17BC JUMP JUMPDEST PUSH1 0x40 MLOAD DUP1 SWAP2 SUB SWAP1 REVERT JUMPDEST DUP2 PUSH1 0x3 DUP2 DUP2 SLOAD DUP2 LT PUSH2 0xEA8 JUMPI PUSH2 0xEA7 PUSH2 0x1664 JUMP JUMPDEST JUMPDEST SWAP1 PUSH1 0x0 MSTORE PUSH1 0x20 PUSH1 0x0 KECCAK256 SWAP1 PUSH1 0x6 MUL ADD PUSH1 0x3 ADD PUSH1 0x0 SWAP1 SLOAD SWAP1 PUSH2 0x100 EXP SWAP1 DIV PUSH1 0xFF AND ISZERO PUSH2 0xF07 JUMPI PUSH1 0x40 MLOAD PUSH32 0x8C379A000000000000000000000000000000000000000000000000000000000 DUP2 MSTORE PUSH1 0x4 ADD PUSH2 0xEFE SWAP1 PUSH2 0x1828 JUMP JUMPDEST PUSH1 0x40 MLOAD DUP1 SWAP2 SUB SWAP1 REVERT JUMPDEST PUSH1 0x0 PUSH1 0x3 DUP5 DUP2 SLOAD DUP2 LT PUSH2 0xF1D JUMPI PUSH2 0xF1C PUSH2 0x1664 JUMP JUMPDEST JUMPDEST SWAP1 PUSH1 0x0 MSTORE PUSH1 0x20 PUSH1 0x0 KECCAK256 SWAP1 PUSH1 0x6 MUL ADD SWAP1 POP PUSH1 0x2 SLOAD DUP2 PUSH1 0x5 ADD SLOAD LT ISZERO PUSH2 0xF76 JUMPI PUSH1 0x40 MLOAD PUSH32 0x8C379A000000000000000000000000000000000000000000000000000000000 DUP2 MSTORE PUSH1 0x4 ADD PUSH2 0xF6D SWAP1 PUSH2 0x1C8A JUMP JUMPDEST PUSH1 0x40 MLOAD DUP1 SWAP2 SUB SWAP1 REVERT JUMPDEST PUSH1 0x1 DUP2 PUSH1 0x3 ADD PUSH1 0x0 PUSH2 0x100 EXP DUP2 SLOAD DUP2 PUSH1 0xFF MUL NOT AND SWAP1 DUP4 ISZERO ISZERO MUL OR SWAP1 SSTORE POP PUSH1 0x0 DUP2 PUSH1 0x0 ADD PUSH1 0x0 SWAP1 SLOAD SWAP1 PUSH2 0x100 EXP SWAP1 DIV PUSH20 0xFFFFFFFFFFFFFFFFFFFFFFFFFFFFFFFFFFFFFFFF AND PUSH20 0xFFFFFFFFFFFFFFFFFFFFFFFFFFFFFFFFFFFFFFFF AND DUP3 PUSH1 0x1 ADD SLOAD DUP4 PUSH1 0x2 ADD PUSH1 0x40 MLOAD PUSH2 0xFE6 SWAP2 SWAP1 PUSH2 0x1D38 JUMP JUMPDEST PUSH1 0x0 PUSH1 0x40 MLOAD DUP1 DUP4 SUB DUP2 DUP6 DUP8 GAS CALL SWAP3 POP POP POP RETURNDATASIZE DUP1 PUSH1 0x0 DUP2 EQ PUSH2 0x1023 JUMPI PUSH1 0x40 MLOAD SWAP2 POP PUSH1 0x1F NOT PUSH1 0x3F RETURNDATASIZE ADD AND DUP3 ADD PUSH1 0x40 MSTORE RETURNDATASIZE DUP3 MSTORE RETURNDATASIZE PUSH1 0x0 PUSH1 0x20 DUP5 ADD RETURNDATACOPY PUSH2 0x1028 JUMP JUMPDEST PUSH1 0x60 SWAP2 POP JUMPDEST POP POP SWAP1 POP DUP1 PUSH2 0x106C JUMPI PUSH1 0x40 MLOAD PUSH32 0x8C379A000000000000000000000000000000000000000000000000000000000 DUP2 MSTORE PUSH1 0x4 ADD PUSH2 0x1063 SWAP1 PUSH2 0x1D9B JUMP JUMPDEST PUSH1 0x40 MLOAD DUP1 SWAP2 SUB SWAP1 REVERT JUMPDEST DUP2 PUSH1 0x0 ADD PUSH1 0x0 SWAP1 SLOAD SWAP1 PUSH2 0x100 EXP SWAP1 DIV PUSH20 0xFFFFFFFFFFFFFFFFFFFFFFFFFFFFFFFFFFFFFFFF AND PUSH20 0xFFFFFFFFFFFFFFFFFFFFFFFFFFFFFFFFFFFFFFFF AND DUP6 CALLER PUSH20 0xFFFFFFFFFFFFFFFFFFFFFFFFFFFFFFFFFFFFFFFF AND PUSH32 0xA8B4D4FC85F61909C8A9B346AB28E3E95FFD759ECF136E6B95C4F069ADCB3F5D DUP6 PUSH1 0x1 ADD SLOAD PUSH1 0x40 MLOAD PUSH2 0x10F2 SWAP2 SWAP1 PUSH2 0x120C JUMP JUMPDEST PUSH1 0x40 MLOAD DUP1 SWAP2 SUB SWAP1 LOG4 POP POP POP POP POP JUMP JUMPDEST PUSH1 0x0 DUP2 SWAP1 POP SWAP2 SWAP1 POP JUMP JUMPDEST PUSH2 0x1114 DUP2 PUSH2 0x1101 JUMP JUMPDEST DUP3 MSTORE POP POP JUMP JUMPDEST PUSH1 0x0 PUSH1 0x40 DUP3 ADD SWAP1 POP PUSH2 0x112F PUSH1 0x0 DUP4 ADD DUP6 PUSH2 0x110B JUMP JUMPDEST PUSH2 0x113C PUSH1 0x20 DUP4 ADD DUP5 PUSH2 0x110B JUMP JUMPDEST SWAP4 SWAP3 POP POP POP JUMP JUMPDEST PUSH1 0x0 PUSH1 0x40 MLOAD SWAP1 POP SWAP1 JUMP JUMPDEST PUSH1 0x0 DUP1 REVERT JUMPDEST PUSH1 0x0 DUP1 REVERT JUMPDEST PUSH2 0x1160 DUP2 PUSH2 0x1101 JUMP JUMPDEST DUP2 EQ PUSH2 0x116B JUMPI PUSH1 0x0 DUP1 REVERT JUMPDEST POP JUMP JUMPDEST PUSH1 0x0 DUP2 CALLDATALOAD SWAP1 POP PUSH2 0x117D DUP2 PUSH2 0x1157 JUMP JUMPDEST SWAP3 SWAP2 POP POP JUMP JUMPDEST PUSH1 0x0 PUSH1 0x20 DUP3 DUP5 SUB SLT ISZERO PUSH2 0x1199 JUMPI PUSH2 0x1198 PUSH2 0x114D JUMP JUMPDEST JUMPDEST PUSH1 0x0 PUSH2 0x11A7 DUP5 DUP3 DUP6 ADD PUSH2 0x116E JUMP JUMPDEST SWAP2 POP POP SWAP3 SWAP2 POP POP JUMP JUMPDEST PUSH1 0x0 PUSH20 0xFFFFFFFFFFFFFFFFFFFFFFFFFFFFFFFFFFFFFFFF DUP3 AND SWAP1 POP SWAP2 SWAP1 POP JUMP JUMPDEST PUSH1 0x0 PUSH2 0x11DB DUP3 PUSH2 0x11B0 JUMP JUMPDEST SWAP1 POP SWAP2 SWAP1 POP JUMP JUMPDEST PUSH2 0x11EB DUP2 PUSH2 0x11D0 JUMP JUMPDEST DUP3 MSTORE POP POP JUMP JUMPDEST PUSH1 0x0 PUSH1 0x20 DUP3 ADD SWAP1 POP PUSH2 0x1206 PUSH1 0x0 DUP4 ADD DUP5 PUSH2 0x11E2 JUMP JUMPDEST SWAP3 SWAP2 POP POP JUMP JUMPDEST PUSH1 0x0 PUSH1 0x20 DUP3 ADD SWAP1 POP PUSH2 0x1221 PUSH1 0x0 DUP4 ADD DUP5 PUSH2 0x110B JUMP JUMPDEST SWAP3 SWAP2 POP POP JUMP JUMPDEST PUSH2 0x1230 DUP2 PUSH2 0x11D0 JUMP JUMPDEST DUP2 EQ PUSH2 0x123B JUMPI PUSH1 0x0 DUP1 REVERT JUMPDEST POP JUMP JUMPDEST PUSH1 0x0 DUP2 CALLDATALOAD SWAP1 POP PUSH2 0x124D DUP2 PUSH2 0x1227 JUMP JUMPDEST SWAP3 SWAP2 POP POP JUMP JUMPDEST PUSH1 0x0 PUSH1 0x20 DUP3 DUP5 SUB SLT ISZERO PUSH2 0x1269 JUMPI PUSH2 0x1268 PUSH2 0x114D JUMP JUMPDEST JUMPDEST PUSH1 0x0 PUSH2 0x1277 DUP5 DUP3 DUP6 ADD PUSH2 0x123E JUMP JUMPDEST SWAP2 POP POP SWAP3 SWAP2 POP POP JUMP JUMPDEST PUSH1 0x0 DUP2 ISZERO ISZERO SWAP1 POP SWAP2 SWAP1 POP JUMP JUMPDEST PUSH2 0x1295 DUP2 PUSH2 0x1280 JUMP JUMPDEST DUP3 MSTORE POP POP JUMP JUMPDEST PUSH1 0x0 PUSH1 0x20 DUP3 ADD SWAP1 POP PUSH2 0x12B0 PUSH1 0x0 DUP4 ADD DUP5 PUSH2 0x128C JUMP JUMPDEST SWAP3 SWAP2 POP POP JUMP JUMPDEST PUSH1 0x0 DUP2 MLOAD SWAP1 POP SWAP2 SWAP1 POP JUMP JUMPDEST PUSH1 0x0 DUP3 DUP3 MSTORE PUSH1 0x20 DUP3 ADD SWAP1 POP SWAP3 SWAP2 POP POP JUMP JUMPDEST PUSH1 0x0 JUMPDEST DUP4 DUP2 LT ISZERO PUSH2 0x12F0 JUMPI DUP1 DUP3 ADD MLOAD DUP2 DUP5 ADD MSTORE PUSH1 0x20 DUP2 ADD SWAP1 POP PUSH2 0x12D5 JUMP JUMPDEST PUSH1 0x0 DUP5 DUP5 ADD MSTORE POP POP POP POP JUMP JUMPDEST PUSH1 0x0 PUSH1 0x1F NOT PUSH1 0x1F DUP4 ADD AND SWAP1 POP SWAP2 SWAP1 POP JUMP JUMPDEST PUSH1 0x0 PUSH2 0x1318 DUP3 PUSH2 0x12B6 JUMP JUMPDEST PUSH2 0x1322 DUP2 DUP6 PUSH2 0x12C1 JUMP JUMPDEST SWAP4 POP PUSH2 0x1332 DUP2 DUP6 PUSH1 0x20 DUP7 ADD PUSH2 0x12D2 JUMP JUMPDEST PUSH2 0x133B DUP2 PUSH2 0x12FC JUMP JUMPDEST DUP5 ADD SWAP2 POP POP SWAP3 SWAP2 POP POP JUMP JUMPDEST PUSH1 0x0 PUSH1 0xA0 DUP3 ADD SWAP1 POP PUSH2 0x135B PUSH1 0x0 DUP4 ADD DUP9 PUSH2 0x11E2 JUMP JUMPDEST PUSH2 0x1368 PUSH1 0x20 DUP4 ADD DUP8 PUSH2 0x110B JUMP JUMPDEST DUP2 DUP2 SUB PUSH1 0x40 DUP4 ADD MSTORE PUSH2 0x137A DUP2 DUP7 PUSH2 0x130D JUMP JUMPDEST SWAP1 POP PUSH2 0x1389 PUSH1 0x60 DUP4 ADD DUP6 PUSH2 0x128C JUMP JUMPDEST PUSH2 0x1396 PUSH1 0x80 DUP4 ADD DUP5 PUSH2 0x110B JUMP JUMPDEST SWAP7 SWAP6 POP POP POP POP POP POP JUMP JUMPDEST PUSH1 0x0 DUP1 PUSH1 0x40 DUP4 DUP6 SUB SLT ISZERO PUSH2 0x13B7 JUMPI PUSH2 0x13B6 PUSH2 0x114D JUMP JUMPDEST JUMPDEST PUSH1 0x0 PUSH2 0x13C5 DUP6 DUP3 DUP7 ADD PUSH2 0x116E JUMP JUMPDEST SWAP3 POP POP PUSH1 0x20 PUSH2 0x13D6 DUP6 DUP3 DUP7 ADD PUSH2 0x123E JUMP JUMPDEST SWAP2 POP POP SWAP3 POP SWAP3 SWAP1 POP JUMP JUMPDEST PUSH1 0x0 DUP2 MLOAD SWAP1 POP SWAP2 SWAP1 POP JUMP JUMPDEST PUSH1 0x0 DUP3 DUP3 MSTORE PUSH1 0x20 DUP3 ADD SWAP1 POP SWAP3 SWAP2 POP POP JUMP JUMPDEST PUSH1 0x0 DUP2 SWAP1 POP PUSH1 0x20 DUP3 ADD SWAP1 POP SWAP2 SWAP1 POP JUMP JUMPDEST PUSH2 0x1415 DUP2 PUSH2 0x11D0 JUMP JUMPDEST DUP3 MSTORE POP POP JUMP JUMPDEST PUSH1 0x0 PUSH2 0x1427 DUP4 DUP4 PUSH2 0x140C JUMP JUMPDEST PUSH1 0x20 DUP4 ADD SWAP1 POP SWAP3 SWAP2 POP POP JUMP JUMPDEST PUSH1 0x0 PUSH1 0x20 DUP3 ADD SWAP1 POP SWAP2 SWAP1 POP JUMP JUMPDEST PUSH1 0x0 PUSH2 0x144B DUP3 PUSH2 0x13E0 JUMP JUMPDEST PUSH2 0x1455 DUP2 DUP6 PUSH2 0x13EB JUMP JUMPDEST SWAP4 POP PUSH2 0x1460 DUP4 PUSH2 0x13FC JUMP JUMPDEST DUP1 PUSH1 0x0 JUMPDEST DUP4 DUP2 LT ISZERO PUSH2 0x1491 JUMPI DUP2 MLOAD PUSH2 0x1478 DUP9 DUP3 PUSH2 0x141B JUMP JUMPDEST SWAP8 POP PUSH2 0x1483 DUP4 PUSH2 0x1433 JUMP JUMPDEST SWAP3 POP POP PUSH1 0x1 DUP2 ADD SWAP1 POP PUSH2 0x1464 JUMP JUMPDEST POP DUP6 SWAP4 POP POP POP POP SWAP3 SWAP2 POP POP JUMP JUMPDEST PUSH1 0x0 PUSH1 0x20 DUP3 ADD SWAP1 POP DUP2 DUP2 SUB PUSH1 0x0 DUP4 ADD MSTORE PUSH2 0x14B8 DUP2 DUP5 PUSH2 0x1440 JUMP JUMPDEST SWAP1 POP SWAP3 SWAP2 POP POP JUMP JUMPDEST PUSH1 0x0 DUP1 REVERT JUMPDEST PUSH1 0x0 DUP1 REVERT JUMPDEST PUSH32 0x4E487B7100000000000000000000000000000000000000000000000000000000 PUSH1 0x0 MSTORE PUSH1 0x41 PUSH1 0x4 MSTORE PUSH1 0x24 PUSH1 0x0 REVERT JUMPDEST PUSH2 0x1502 DUP3 PUSH2 0x12FC JUMP JUMPDEST DUP2 ADD DUP2 DUP2 LT PUSH8 0xFFFFFFFFFFFFFFFF DUP3 GT OR ISZERO PUSH2 0x1521 JUMPI PUSH2 0x1520 PUSH2 0x14CA JUMP JUMPDEST JUMPDEST DUP1 PUSH1 0x40 MSTORE POP POP POP JUMP JUMPDEST PUSH1 0x0 PUSH2 0x1534 PUSH2 0x1143 JUMP JUMPDEST SWAP1 POP PUSH2 0x1540 DUP3 DUP3 PUSH2 0x14F9 JUMP JUMPDEST SWAP2 SWAP1 POP JUMP JUMPDEST PUSH1 0x0 PUSH8 0xFFFFFFFFFFFFFFFF DUP3 GT ISZERO PUSH2 0x1560 JUMPI PUSH2 0x155F PUSH2 0x14CA JUMP JUMPDEST JUMPDEST PUSH2 0x1569 DUP3 PUSH2 0x12FC JUMP JUMPDEST SWAP1 POP PUSH1 0x20 DUP2 ADD SWAP1 POP SWAP2 SWAP1 POP JUMP JUMPDEST DUP3 DUP2 DUP4 CALLDATACOPY PUSH1 0x0 DUP4 DUP4 ADD MSTORE POP POP POP JUMP JUMPDEST PUSH1 0x0 PUSH2 0x1598 PUSH2 0x1593 DUP5 PUSH2 0x1545 JUMP JUMPDEST PUSH2 0x152A JUMP JUMPDEST SWAP1 POP DUP3 DUP2 MSTORE PUSH1 0x20 DUP2 ADD DUP5 DUP5 DUP5 ADD GT ISZERO PUSH2 0x15B4 JUMPI PUSH2 0x15B3 PUSH2 0x14C5 JUMP JUMPDEST JUMPDEST PUSH2 0x15BF DUP5 DUP3 DUP6 PUSH2 0x1576 JUMP JUMPDEST POP SWAP4 SWAP3 POP POP POP JUMP JUMPDEST PUSH1 0x0 DUP3 PUSH1 0x1F DUP4 ADD SLT PUSH2 0x15DC JUMPI PUSH2 0x15DB PUSH2 0x14C0 JUMP JUMPDEST JUMPDEST DUP2 CALLDATALOAD PUSH2 0x15EC DUP5 DUP3 PUSH1 0x20 DUP7 ADD PUSH2 0x1585 JUMP JUMPDEST SWAP2 POP POP SWAP3 SWAP2 POP POP JUMP JUMPDEST PUSH1 0x0 DUP1 PUSH1 0x0 PUSH1 0x60 DUP5 DUP7 SUB SLT ISZERO PUSH2 0x160E JUMPI PUSH2 0x160D PUSH2 0x114D JUMP JUMPDEST JUMPDEST PUSH1 0x0 PUSH2 0x161C DUP7 DUP3 DUP8 ADD PUSH2 0x123E JUMP JUMPDEST SWAP4 POP POP PUSH1 0x20 PUSH2 0x162D DUP7 DUP3 DUP8 ADD PUSH2 0x116E JUMP JUMPDEST SWAP3 POP POP PUSH1 0x40 DUP5 ADD CALLDATALOAD PUSH8 0xFFFFFFFFFFFFFFFF DUP2 GT ISZERO PUSH2 0x164E JUMPI PUSH2 0x164D PUSH2 0x1152 JUMP JUMPDEST JUMPDEST PUSH2 0x165A DUP7 DUP3 DUP8 ADD PUSH2 0x15C7 JUMP JUMPDEST SWAP2 POP POP SWAP3 POP SWAP3 POP SWAP3 JUMP JUMPDEST PUSH32 0x4E487B7100000000000000000000000000000000000000000000000000000000 PUSH1 0x0 MSTORE PUSH1 0x32 PUSH1 0x4 MSTORE PUSH1 0x24 PUSH1 0x0 REVERT JUMPDEST PUSH32 0x4E487B7100000000000000000000000000000000000000000000000000000000 PUSH1 0x0 MSTORE PUSH1 0x22 PUSH1 0x4 MSTORE PUSH1 0x24 PUSH1 0x0 REVERT JUMPDEST PUSH1 0x0 PUSH1 0x2 DUP3 DIV SWAP1 POP PUSH1 0x1 DUP3 AND DUP1 PUSH2 0x16DA JUMPI PUSH1 0x7F DUP3 AND SWAP2 POP JUMPDEST PUSH1 0x20 DUP3 LT DUP2 SUB PUSH2 0x16ED JUMPI PUSH2 0x16EC PUSH2 0x1693 JUMP JUMPDEST JUMPDEST POP SWAP2 SWAP1 POP JUMP JUMPDEST PUSH1 0x0 DUP3 DUP3 MSTORE PUSH1 0x20 DUP3 ADD SWAP1 POP SWAP3 SWAP2 POP POP JUMP JUMPDEST PUSH32 0x4E6F74206F776E65720000000000000000000000000000000000000000000000 PUSH1 0x0 DUP3 ADD MSTORE POP JUMP JUMPDEST PUSH1 0x0 PUSH2 0x173A PUSH1 0x9 DUP4 PUSH2 0x16F3 JUMP JUMPDEST SWAP2 POP PUSH2 0x1745 DUP3 PUSH2 0x1704 JUMP JUMPDEST PUSH1 0x20 DUP3 ADD SWAP1 POP SWAP2 SWAP1 POP JUMP JUMPDEST PUSH1 0x0 PUSH1 0x20 DUP3 ADD SWAP1 POP DUP2 DUP2 SUB PUSH1 0x0 DUP4 ADD MSTORE PUSH2 0x1769 DUP2 PUSH2 0x172D JUMP JUMPDEST SWAP1 POP SWAP2 SWAP1 POP JUMP JUMPDEST PUSH32 0x5472616E73616374696F6E20646F6573206E6F74206578697374000000000000 PUSH1 0x0 DUP3 ADD MSTORE POP JUMP JUMPDEST PUSH1 0x0 PUSH2 0x17A6 PUSH1 0x1A DUP4 PUSH2 0x16F3 JUMP JUMPDEST SWAP2 POP PUSH2 0x17B1 DUP3 PUSH2 0x1770 JUMP JUMPDEST PUSH1 0x20 DUP3 ADD SWAP1 POP SWAP2 SWAP1 POP JUMP JUMPDEST PUSH1 0x0 PUSH1 0x20 DUP3 ADD SWAP1 POP DUP2 DUP2 SUB PUSH1 0x0 DUP4 ADD MSTORE PUSH2 0x17D5 DUP2 PUSH2 0x1799 JUMP JUMPDEST SWAP1 POP SWAP2 SWAP1 POP JUMP JUMPDEST PUSH32 0x5472616E73616374696F6E20616C726561647920657865637574656400000000 PUSH1 0x0 DUP3 ADD MSTORE POP JUMP JUMPDEST PUSH1 0x0 PUSH2 0x1812 PUSH1 0x1C DUP4 PUSH2 0x16F3 JUMP JUMPDEST SWAP2 POP PUSH2 0x181D DUP3 PUSH2 0x17DC JUMP JUMPDEST PUSH1 0x20 DUP3 ADD SWAP1 POP SWAP2 SWAP1 POP JUMP JUMPDEST PUSH1 0x0 PUSH1 0x20 DUP3 ADD SWAP1 POP DUP2 DUP2 SUB PUSH1 0x0 DUP4 ADD MSTORE PUSH2 0x1841 DUP2 PUSH2 0x1805 JUMP JUMPDEST SWAP1 POP SWAP2 SWAP1 POP JUMP JUMPDEST PUSH32 0x5472616E73616374696F6E206E6F7420636F6E6669726D656400000000000000 PUSH1 0x0 DUP3 ADD MSTORE POP JUMP JUMPDEST PUSH1 0x0 PUSH2 0x187E PUSH1 0x19 DUP4 PUSH2 0x16F3 JUMP JUMPDEST SWAP2 POP PUSH2 0x1889 DUP3 PUSH2 0x1848 JUMP JUMPDEST PUSH1 0x20 DUP3 ADD SWAP1 POP SWAP2 SWAP1 POP JUMP JUMPDEST PUSH1 0x0 PUSH1 0x20 DUP3 ADD SWAP1 POP DUP2 DUP2 SUB PUSH1 0x0 DUP4 ADD MSTORE PUSH2 0x18AD DUP2 PUSH2 0x1871 JUMP JUMPDEST SWAP1 POP SWAP2 SWAP1 POP JUMP JUMPDEST PUSH32 0x4E487B7100000000000000000000000000000000000000000000000000000000 PUSH1 0x0 MSTORE PUSH1 0x11 PUSH1 0x4 MSTORE PUSH1 0x24 PUSH1 0x0 REVERT JUMPDEST PUSH1 0x0 PUSH2 0x18EE DUP3 PUSH2 0x1101 JUMP JUMPDEST SWAP2 POP PUSH1 0x0 DUP3 SUB PUSH2 0x1901 JUMPI PUSH2 0x1900 PUSH2 0x18B4 JUMP JUMPDEST JUMPDEST PUSH1 0x1 DUP3 SUB SWAP1 POP SWAP2 SWAP1 POP JUMP JUMPDEST PUSH32 0x5472616E73616374696F6E20616C726561647920636F6E6669726D6564000000 PUSH1 0x0 DUP3 ADD MSTORE POP JUMP JUMPDEST PUSH1 0x0 PUSH2 0x1942 PUSH1 0x1D DUP4 PUSH2 0x16F3 JUMP JUMPDEST SWAP2 POP PUSH2 0x194D DUP3 PUSH2 0x190C JUMP JUMPDEST PUSH1 0x20 DUP3 ADD SWAP1 POP SWAP2 SWAP1 POP JUMP JUMPDEST PUSH1 0x0 PUSH1 0x20 DUP3 ADD SWAP1 POP DUP2 DUP2 SUB PUSH1 0x0 DUP4 ADD MSTORE PUSH2 0x1971 DUP2 PUSH2 0x1935 JUMP JUMPDEST SWAP1 POP SWAP2 SWAP1 POP JUMP JUMPDEST PUSH1 0x0 PUSH2 0x1983 DUP3 PUSH2 0x1101 JUMP JUMPDEST SWAP2 POP PUSH32 0xFFFFFFFFFFFFFFFFFFFFFFFFFFFFFFFFFFFFFFFFFFFFFFFFFFFFFFFFFFFFFFFF DUP3 SUB PUSH2 0x19B5 JUMPI PUSH2 0x19B4 PUSH2 0x18B4 JUMP JUMPDEST JUMPDEST PUSH1 0x1 DUP3 ADD SWAP1 POP SWAP2 SWAP1 POP JUMP JUMPDEST PUSH1 0x0 DUP2 SWAP1 POP DUP2 PUSH1 0x0 MSTORE PUSH1 0x20 PUSH1 0x0 KECCAK256 SWAP1 POP SWAP2 SWAP1 POP JUMP JUMPDEST PUSH1 0x0 PUSH1 0x20 PUSH1 0x1F DUP4 ADD DIV SWAP1 POP SWAP2 SWAP1 POP JUMP JUMPDEST PUSH1 0x0 DUP3 DUP3 SHL SWAP1 POP SWAP3 SWAP2 POP POP JUMP JUMPDEST PUSH1 0x0 PUSH1 0x8 DUP4 MUL PUSH2 0x1A22 PUSH32 0xFFFFFFFFFFFFFFFFFFFFFFFFFFFFFFFFFFFFFFFFFFFFFFFFFFFFFFFFFFFFFFFF DUP3 PUSH2 0x19E5 JUMP JUMPDEST PUSH2 0x1A2C DUP7 DUP4 PUSH2 0x19E5 JUMP JUMPDEST SWAP6 POP DUP1 NOT DUP5 AND SWAP4 POP DUP1 DUP7 AND DUP5 OR SWAP3 POP POP POP SWAP4 SWAP3 POP POP POP JUMP JUMPDEST PUSH1 0x0 DUP2 SWAP1 POP SWAP2 SWAP1 POP JUMP JUMPDEST PUSH1 0x0 PUSH2 0x1A69 PUSH2 0x1A64 PUSH2 0x1A5F DUP5 PUSH2 0x1101 JUMP JUMPDEST PUSH2 0x1A44 JUMP JUMPDEST PUSH2 0x1101 JUMP JUMPDEST SWAP1 POP SWAP2 SWAP1 POP JUMP JUMPDEST PUSH1 0x0 DUP2 SWAP1 POP SWAP2 SWAP1 POP JUMP JUMPDEST PUSH2 0x1A83 DUP4 PUSH2 0x1A4E JUMP JUMPDEST PUSH2 0x1A97 PUSH2 0x1A8F DUP3 PUSH2 0x1A70 JUMP JUMPDEST DUP5 DUP5 SLOAD PUSH2 0x19F2 JUMP JUMPDEST DUP3 SSTORE POP POP POP POP JUMP JUMPDEST PUSH1 0x0 SWAP1 JUMP JUMPDEST PUSH2 0x1AAC PUSH2 0x1A9F JUMP JUMPDEST PUSH2 0x1AB7 DUP2 DUP5 DUP5 PUSH2 0x1A7A JUMP JUMPDEST POP POP POP JUMP JUMPDEST JUMPDEST DUP2 DUP2 LT ISZERO PUSH2 0x1ADB JUMPI PUSH2 0x1AD0 PUSH1 0x0 DUP3 PUSH2 0x1AA4 JUMP JUMPDEST PUSH1 0x1 DUP2 ADD SWAP1 POP PUSH2 0x1ABD JUMP JUMPDEST POP POP JUMP JUMPDEST PUSH1 0x1F DUP3 GT ISZERO PUSH2 0x1B20 JUMPI PUSH2 0x1AF1 DUP2 PUSH2 0x19C0 JUMP JUMPDEST PUSH2 0x1AFA DUP5 PUSH2 0x19D5 JUMP JUMPDEST DUP2 ADD PUSH1 0x20 DUP6 LT ISZERO PUSH2 0x1B09 JUMPI DUP2 SWAP1 POP JUMPDEST PUSH2 0x1B1D PUSH2 0x1B15 DUP6 PUSH2 0x19D5 JUMP JUMPDEST DUP4 ADD DUP3 PUSH2 0x1ABC JUMP JUMPDEST POP POP JUMPDEST POP POP POP JUMP JUMPDEST PUSH1 0x0 DUP3 DUP3 SHR SWAP1 POP SWAP3 SWAP2 POP POP JUMP JUMPDEST PUSH1 0x0 PUSH2 0x1B43 PUSH1 0x0 NOT DUP5 PUSH1 0x8 MUL PUSH2 0x1B25 JUMP JUMPDEST NOT DUP1 DUP4 AND SWAP2 POP POP SWAP3 SWAP2 POP POP JUMP JUMPDEST PUSH1 0x0 PUSH2 0x1B5C DUP4 DUP4 PUSH2 0x1B32 JUMP JUMPDEST SWAP2 POP DUP3 PUSH1 0x2 MUL DUP3 OR SWAP1 POP SWAP3 SWAP2 POP POP JUMP JUMPDEST PUSH2 0x1B75 DUP3 PUSH2 0x12B6 JUMP JUMPDEST PUSH8 0xFFFFFFFFFFFFFFFF DUP2 GT ISZERO PUSH2 0x1B8E JUMPI PUSH2 0x1B8D PUSH2 0x14CA JUMP JUMPDEST JUMPDEST PUSH2 0x1B98 DUP3 SLOAD PUSH2 0x16C2 JUMP JUMPDEST PUSH2 0x1BA3 DUP3 DUP3 DUP6 PUSH2 0x1ADF JUMP JUMPDEST PUSH1 0x0 PUSH1 0x20 SWAP1 POP PUSH1 0x1F DUP4 GT PUSH1 0x1 DUP2 EQ PUSH2 0x1BD6 JUMPI PUSH1 0x0 DUP5 ISZERO PUSH2 0x1BC4 JUMPI DUP3 DUP8 ADD MLOAD SWAP1 POP JUMPDEST PUSH2 0x1BCE DUP6 DUP3 PUSH2 0x1B50 JUMP JUMPDEST DUP7 SSTORE POP PUSH2 0x1C36 JUMP JUMPDEST PUSH1 0x1F NOT DUP5 AND PUSH2 0x1BE4 DUP7 PUSH2 0x19C0 JUMP JUMPDEST PUSH1 0x0 JUMPDEST DUP3 DUP2 LT ISZERO PUSH2 0x1C0C JUMPI DUP5 DUP10 ADD MLOAD DUP3 SSTORE PUSH1 0x1 DUP3 ADD SWAP2 POP PUSH1 0x20 DUP6 ADD SWAP5 POP PUSH1 0x20 DUP2 ADD SWAP1 POP PUSH2 0x1BE7 JUMP JUMPDEST DUP7 DUP4 LT ISZERO PUSH2 0x1C29 JUMPI DUP5 DUP10 ADD MLOAD PUSH2 0x1C25 PUSH1 0x1F DUP10 AND DUP3 PUSH2 0x1B32 JUMP JUMPDEST DUP4 SSTORE POP JUMPDEST PUSH1 0x1 PUSH1 0x2 DUP9 MUL ADD DUP9 SSTORE POP POP POP JUMPDEST POP POP POP POP POP POP JUMP JUMPDEST PUSH32 0x43616E6E6F742065786563757465207478000000000000000000000000000000 PUSH1 0x0 DUP3 ADD MSTORE POP JUMP JUMPDEST PUSH1 0x0 PUSH2 0x1C74 PUSH1 0x11 DUP4 PUSH2 0x16F3 JUMP JUMPDEST SWAP2 POP PUSH2 0x1C7F DUP3 PUSH2 0x1C3E JUMP JUMPDEST PUSH1 0x20 DUP3 ADD SWAP1 POP SWAP2 SWAP1 POP JUMP JUMPDEST PUSH1 0x0 PUSH1 0x20 DUP3 ADD SWAP1 POP DUP2 DUP2 SUB PUSH1 0x0 DUP4 ADD MSTORE PUSH2 0x1CA3 DUP2 PUSH2 0x1C67 JUMP JUMPDEST SWAP1 POP SWAP2 SWAP1 POP JUMP JUMPDEST PUSH1 0x0 DUP2 SWAP1 POP SWAP3 SWAP2 POP POP JUMP JUMPDEST PUSH1 0x0 DUP2 SLOAD PUSH2 0x1CC2 DUP2 PUSH2 0x16C2 JUMP JUMPDEST PUSH2 0x1CCC DUP2 DUP7 PUSH2 0x1CAA JUMP JUMPDEST SWAP5 POP PUSH1 0x1 DUP3 AND PUSH1 0x0 DUP2 EQ PUSH2 0x1CE7 JUMPI PUSH1 0x1 DUP2 EQ PUSH2 0x1CFC JUMPI PUSH2 0x1D2F JUMP JUMPDEST PUSH1 0xFF NOT DUP4 AND DUP7 MSTORE DUP2 ISZERO ISZERO DUP3 MUL DUP7 ADD SWAP4 POP PUSH2 0x1D2F JUMP JUMPDEST PUSH2 0x1D05 DUP6 PUSH2 0x19C0 JUMP JUMPDEST PUSH1 0x0 JUMPDEST DUP4 DUP2 LT ISZERO PUSH2 0x1D27 JUMPI DUP2 SLOAD DUP2 DUP10 ADD MSTORE PUSH1 0x1 DUP3 ADD SWAP2 POP PUSH1 0x20 DUP2 ADD SWAP1 POP PUSH2 0x1D08 JUMP JUMPDEST DUP4 DUP9 ADD SWAP6 POP POP POP JUMPDEST POP POP POP SWAP3 SWAP2 POP POP JUMP JUMPDEST PUSH1 0x0 PUSH2 0x1D44 DUP3 DUP5 PUSH2 0x1CB5 JUMP JUMPDEST SWAP2 POP DUP2 SWAP1 POP SWAP3 SWAP2 POP POP JUMP JUMPDEST PUSH32 0x5472616E73616374696F6E206661696C65640000000000000000000000000000 PUSH1 0x0 DUP3 ADD MSTORE POP JUMP JUMPDEST PUSH1 0x0 PUSH2 0x1D85 PUSH1 0x12 DUP4 PUSH2 0x16F3 JUMP JUMPDEST SWAP2 POP PUSH2 0x1D90 DUP3 PUSH2 0x1D4F JUMP JUMPDEST PUSH1 0x20 DUP3 ADD SWAP1 POP SWAP2 SWAP1 POP JUMP JUMPDEST PUSH1 0x0 PUSH1 0x20 DUP3 ADD SWAP1 POP DUP2 DUP2 SUB PUSH1 0x0 DUP4 ADD MSTORE PUSH2 0x1DB4 DUP2 PUSH2 0x1D78 JUMP JUMPDEST SWAP1 POP SWAP2 SWAP1 POP JUMP INVALID LOG2 PUSH5 0x6970667358 0x22 SLT KECCAK256 0xB2 0xB0 0x2F DUP8 PUSH27 0x588B3F39F3112E24165DA93941717BF6B70E5D56A43E42971686BD PUSH5 0x736F6C6343 STOP ADDMOD SHR STOP CALLER LOG2 PUSH5 0x6970667358 0x22 SLT KECCAK256 0xEF SWAP11 0xBB 0xC3 PUSH9 0xBF27168BC137ECF324 0xCA 0xC6 0x4D SELFDESTRUCT 0xE6 0xE4 PUSH26 0x36A04435C9F7C46102963F64736F6C634300081C003300000000 "
        },
        "methodIdentifiers": {
          "createMultisig(address[],uint256)": "aabe0122",
          "multisigCount()": "c96b4037",
          "owner()": "8da5cb5b"
        }
      }
    }
  }
}