{
  "_format": "hh-sol-artifact-1",
  "contractName": "PiggyBankFactory",
  "sourceName": "contracts/PiggyBankFactory.sol",
  "abi": [
    {
      "inputs": [],
      "stateMutability": "nonpayable",
      "type": "constructor"
    },
    {
      "anonymous": false,
      "inputs": [
        {
          "indexed": true,
          "internalType": "address",
          "name": "user",
          "type": "address"
        },
        {
          "indexed": false,
          "internalType": "address",
          "name": "piggyBank",
          "type": "address"
        },
        {
          "indexed": false,
          "internalType": "uint256",
          "name": "lockPeriod",
          "type": "uint256"
        },
        {
          "indexed": false,
          "internalType": "address",
          "name": "token",
          "type": "address"
        }
      ],
      "name": "PiggyBankCreated",
      "type": "event"
    },
    {
      "inputs": [],
      "name": "admin",
      "outputs": [
        {
          "internalType": "address",
          "name": "",
          "type": "address"
        }
      ],
      "stateMutability": "view",
      "type": "function"
    },
    {
      "inputs": [
        {
          "internalType": "uint256",
          "name": "_lockPeriod",
          "type": "uint256"
        },
        {
          "internalType": "address",
          "name": "_token",
          "type": "address"
        }
      ],
      "name": "createPiggyBank",
      "outputs": [],
      "stateMutability": "nonpayable",
      "type": "function"
    },
    {
      "inputs": [
        {
          "internalType": "address",
          "name": "user",
          "type": "address"
        }
      ],
      "name": "getUserAccountCount",
      "outputs": [
        {
          "internalType": "uint256",
          "name": "",
          "type": "uint256"
        }
      ],
      "stateMutability": "view",
      "type": "function"
    },
    {
      "inputs": [
        {
          "internalType": "address",
          "name": "user",
          "type": "address"
        }
      ],
      "name": "getUserPiggyBanks",
      "outputs": [
        {
          "internalType": "address[]",
          "name": "",
          "type": "address[]"
        }
      ],
      "stateMutability": "view",
      "type": "function"
    },
    {
      "inputs": [
        {
          "internalType": "address",
          "name": "",
          "type": "address"
        },
        {
          "internalType": "uint256",
          "name": "",
          "type": "uint256"
        }
      ],
      "name": "userAccounts",
      "outputs": [
        {
          "internalType": "address",
          "name": "",
          "type": "address"
        }
      ],
      "stateMutability": "view",
      "type": "function"
    }
  ],
  "bytecode": "0x6080604052348015600f57600080fd5b50336000806101000a81548173ffffffffffffffffffffffffffffffffffffffff021916908373ffffffffffffffffffffffffffffffffffffffff1602179055506117a18061005f6000396000f3fe608060405234801561001057600080fd5b50600436106100575760003560e01c806301f255e21461005c57806383532d68146100785780639532edc2146100a857806398e7df00146100d8578063f851a44014610108575b600080fd5b610076600480360381019061007191906104ac565b610126565b005b610092600480360381019061008d91906104ec565b61027b565b60405161009f919061053b565b60405180910390f35b6100c260048036038101906100bd9190610556565b6102c9565b6040516100cf9190610641565b60405180910390f35b6100f260048036038101906100ed9190610556565b610396565b6040516100ff9190610672565b60405180910390f35b6101106103e2565b60405161011d919061053b565b60405180910390f35b60003360008054906101000a900473ffffffffffffffffffffffffffffffffffffffff16848460405161015890610406565b610165949392919061068d565b604051809103906000f080158015610181573d6000803e3d6000fd5b509050600160003373ffffffffffffffffffffffffffffffffffffffff1673ffffffffffffffffffffffffffffffffffffffff168152602001908152602001600020819080600181540180825580915050600190039060005260206000200160009091909190916101000a81548173ffffffffffffffffffffffffffffffffffffffff021916908373ffffffffffffffffffffffffffffffffffffffff1602179055503373ffffffffffffffffffffffffffffffffffffffff167fc323a844140dc3d2f39161ea6b3b8b30c731acac599d40a6def4d6c16340e38b82858560405161026e939291906106d2565b60405180910390a2505050565b6001602052816000526040600020818154811061029757600080fd5b906000526020600020016000915091509054906101000a900473ffffffffffffffffffffffffffffffffffffffff1681565b6060600160008373ffffffffffffffffffffffffffffffffffffffff1673ffffffffffffffffffffffffffffffffffffffff16815260200190815260200160002080548060200260200160405190810160405280929190818152602001828054801561038a57602002820191906000526020600020905b8160009054906101000a900473ffffffffffffffffffffffffffffffffffffffff1673ffffffffffffffffffffffffffffffffffffffff1681526020019060010190808311610340575b50505050509050919050565b6000600160008373ffffffffffffffffffffffffffffffffffffffff1673ffffffffffffffffffffffffffffffffffffffff168152602001908152602001600020805490509050919050565b60008054906101000a900473ffffffffffffffffffffffffffffffffffffffff1681565b6110628061070a83390190565b600080fd5b6000819050919050565b61042b81610418565b811461043657600080fd5b50565b60008135905061044881610422565b92915050565b600073ffffffffffffffffffffffffffffffffffffffff82169050919050565b60006104798261044e565b9050919050565b6104898161046e565b811461049457600080fd5b50565b6000813590506104a681610480565b92915050565b600080604083850312156104c3576104c2610413565b5b60006104d185828601610439565b92505060206104e285828601610497565b9150509250929050565b6000806040838503121561050357610502610413565b5b600061051185828601610497565b925050602061052285828601610439565b9150509250929050565b6105358161046e565b82525050565b6000602082019050610550600083018461052c565b92915050565b60006020828403121561056c5761056b610413565b5b600061057a84828501610497565b91505092915050565b600081519050919050565b600082825260208201905092915050565b6000819050602082019050919050565b6105b88161046e565b82525050565b60006105ca83836105af565b60208301905092915050565b6000602082019050919050565b60006105ee82610583565b6105f8818561058e565b93506106038361059f565b8060005b8381101561063457815161061b88826105be565b9750610626836105d6565b925050600181019050610607565b5085935050505092915050565b6000602082019050818103600083015261065b81846105e3565b905092915050565b61066c81610418565b82525050565b60006020820190506106876000830184610663565b92915050565b60006080820190506106a2600083018761052c565b6106af602083018661052c565b6106bc6040830185610663565b6106c9606083018461052c565b95945050505050565b60006060820190506106e7600083018661052c565b6106f46020830185610663565b610701604083018461052c565b94935050505056fe608060405234801561001057600080fd5b50604051611062380380611062833981810160405281019061003291906101a4565b836000806101000a81548173ffffffffffffffffffffffffffffffffffffffff021916908373ffffffffffffffffffffffffffffffffffffffff16021790555082600160006101000a81548173ffffffffffffffffffffffffffffffffffffffff021916908373ffffffffffffffffffffffffffffffffffffffff1602179055508160028190555080600360006101000a81548173ffffffffffffffffffffffffffffffffffffffff021916908373ffffffffffffffffffffffffffffffffffffffff160217905550426004819055505050505061020b565b600080fd5b600073ffffffffffffffffffffffffffffffffffffffff82169050919050565b600061013b82610110565b9050919050565b61014b81610130565b811461015657600080fd5b50565b60008151905061016881610142565b92915050565b6000819050919050565b6101818161016e565b811461018c57600080fd5b50565b60008151905061019e81610178565b92915050565b600080600080608085870312156101be576101bd61010b565b5b60006101cc87828801610159565b94505060206101dd87828801610159565b93505060406101ee8782880161018f565b92505060606101ff87828801610159565b91505092959194509250565b610e488061021a6000396000f3fe6080604052600436106100865760003560e01c806378e979251161005957806378e97925146101215780638da5cb5b1461014c57806398ea5fca146101775780639d76ea5814610181578063f851a440146101ac57610086565b806312065fe01461008b578063338b5dea146100b65780633ccfd60b146100df5780633fd8b02f146100f6575b600080fd5b34801561009757600080fd5b506100a06101d7565b6040516100ad9190610969565b60405180910390f35b3480156100c257600080fd5b506100dd60048036038101906100d89190610a13565b6102d8565b005b3480156100eb57600080fd5b506100f46103ed565b005b34801561010257600080fd5b5061010b610841565b6040516101189190610969565b60405180910390f35b34801561012d57600080fd5b50610136610847565b6040516101439190610969565b60405180910390f35b34801561015857600080fd5b5061016161084d565b60405161016e9190610a62565b60405180910390f35b61017f610871565b005b34801561018d57600080fd5b50610196610904565b6040516101a39190610a62565b60405180910390f35b3480156101b857600080fd5b506101c161092a565b6040516101ce9190610a62565b60405180910390f35b60008073ffffffffffffffffffffffffffffffffffffffff16600360009054906101000a900473ffffffffffffffffffffffffffffffffffffffff1673ffffffffffffffffffffffffffffffffffffffff1603610236574790506102d5565b600360009054906101000a900473ffffffffffffffffffffffffffffffffffffffff1673ffffffffffffffffffffffffffffffffffffffff166370a08231306040518263ffffffff1660e01b81526004016102919190610a62565b602060405180830381865afa1580156102ae573d6000803e3d6000fd5b505050506040513d601f19601f820116820180604052508101906102d29190610a92565b90505b90565b8173ffffffffffffffffffffffffffffffffffffffff16600360009054906101000a900473ffffffffffffffffffffffffffffffffffffffff1673ffffffffffffffffffffffffffffffffffffffff1614610368576040517f08c379a000000000000000000000000000000000000000000000000000000000815260040161035f90610b1c565b60405180910390fd5b8173ffffffffffffffffffffffffffffffffffffffff166323b872dd3330846040518463ffffffff1660e01b81526004016103a593929190610b3c565b6020604051808303816000875af11580156103c4573d6000803e3d6000fd5b505050506040513d601f19601f820116820180604052508101906103e89190610bab565b505050565b60008054906101000a900473ffffffffffffffffffffffffffffffffffffffff1673ffffffffffffffffffffffffffffffffffffffff163373ffffffffffffffffffffffffffffffffffffffff161461047b576040517f08c379a000000000000000000000000000000000000000000000000000000000815260040161047290610c24565b60405180910390fd5b600060025460045461048d9190610c73565b4210156104b757606460036104a06101d7565b6104aa9190610ca7565b6104b49190610d18565b90505b600073ffffffffffffffffffffffffffffffffffffffff16600360009054906101000a900473ffffffffffffffffffffffffffffffffffffffff1673ffffffffffffffffffffffffffffffffffffffff16036105fd576000814761051b9190610d49565b9050600082111561059057600160009054906101000a900473ffffffffffffffffffffffffffffffffffffffff1673ffffffffffffffffffffffffffffffffffffffff166108fc839081150290604051600060405180830381858888f1935050505015801561058e573d6000803e3d6000fd5b505b60008054906101000a900473ffffffffffffffffffffffffffffffffffffffff1673ffffffffffffffffffffffffffffffffffffffff166108fc829081150290604051600060405180830381858888f193505050501580156105f6573d6000803e3d6000fd5b505061083e565b6000600360009054906101000a900473ffffffffffffffffffffffffffffffffffffffff1673ffffffffffffffffffffffffffffffffffffffff166370a08231306040518263ffffffff1660e01b815260040161065a9190610a62565b602060405180830381865afa158015610677573d6000803e3d6000fd5b505050506040513d601f19601f8201168201806040525081019061069b9190610a92565b9050600082826106ab9190610d49565b9050600083111561077a57600360009054906101000a900473ffffffffffffffffffffffffffffffffffffffff1673ffffffffffffffffffffffffffffffffffffffff1663a9059cbb600160009054906101000a900473ffffffffffffffffffffffffffffffffffffffff16856040518363ffffffff1660e01b8152600401610735929190610d7d565b6020604051808303816000875af1158015610754573d6000803e3d6000fd5b505050506040513d601f19601f820116820180604052508101906107789190610bab565b505b600360009054906101000a900473ffffffffffffffffffffffffffffffffffffffff1673ffffffffffffffffffffffffffffffffffffffff1663a9059cbb60008054906101000a900473ffffffffffffffffffffffffffffffffffffffff16836040518363ffffffff1660e01b81526004016107f7929190610d7d565b6020604051808303816000875af1158015610816573d6000803e3d6000fd5b505050506040513d601f19601f8201168201806040525081019061083a9190610bab565b5050505b50565b60025481565b60045481565b60008054906101000a900473ffffffffffffffffffffffffffffffffffffffff1681565b600073ffffffffffffffffffffffffffffffffffffffff16600360009054906101000a900473ffffffffffffffffffffffffffffffffffffffff1673ffffffffffffffffffffffffffffffffffffffff1614610902576040517f08c379a00000000000000000000000000000000000000000000000000000000081526004016108f990610df2565b60405180910390fd5b565b600360009054906101000a900473ffffffffffffffffffffffffffffffffffffffff1681565b600160009054906101000a900473ffffffffffffffffffffffffffffffffffffffff1681565b6000819050919050565b61096381610950565b82525050565b600060208201905061097e600083018461095a565b92915050565b600080fd5b600073ffffffffffffffffffffffffffffffffffffffff82169050919050565b60006109b482610989565b9050919050565b6109c4816109a9565b81146109cf57600080fd5b50565b6000813590506109e1816109bb565b92915050565b6109f081610950565b81146109fb57600080fd5b50565b600081359050610a0d816109e7565b92915050565b60008060408385031215610a2a57610a29610984565b5b6000610a38858286016109d2565b9250506020610a49858286016109fe565b9150509250929050565b610a5c816109a9565b82525050565b6000602082019050610a776000830184610a53565b92915050565b600081519050610a8c816109e7565b92915050565b600060208284031215610aa857610aa7610984565b5b6000610ab684828501610a7d565b91505092915050565b600082825260208201905092915050565b7f57726f6e6720746f6b656e000000000000000000000000000000000000000000600082015250565b6000610b06600b83610abf565b9150610b1182610ad0565b602082019050919050565b60006020820190508181036000830152610b3581610af9565b9050919050565b6000606082019050610b516000830186610a53565b610b5e6020830185610a53565b610b6b604083018461095a565b949350505050565b60008115159050919050565b610b8881610b73565b8114610b9357600080fd5b50565b600081519050610ba581610b7f565b92915050565b600060208284031215610bc157610bc0610984565b5b6000610bcf84828501610b96565b91505092915050565b7f4e6f74206f776e65720000000000000000000000000000000000000000000000600082015250565b6000610c0e600983610abf565b9150610c1982610bd8565b602082019050919050565b60006020820190508181036000830152610c3d81610c01565b9050919050565b7f4e487b7100000000000000000000000000000000000000000000000000000000600052601160045260246000fd5b6000610c7e82610950565b9150610c8983610950565b9250828201905080821115610ca157610ca0610c44565b5b92915050565b6000610cb282610950565b9150610cbd83610950565b9250828202610ccb81610950565b91508282048414831517610ce257610ce1610c44565b5b5092915050565b7f4e487b7100000000000000000000000000000000000000000000000000000000600052601260045260246000fd5b6000610d2382610950565b9150610d2e83610950565b925082610d3e57610d3d610ce9565b5b828204905092915050565b6000610d5482610950565b9150610d5f83610950565b9250828203905081811115610d7757610d76610c44565b5b92915050565b6000604082019050610d926000830185610a53565b610d9f602083018461095a565b9392505050565b7f4e6f742045544820736176696e67730000000000000000000000000000000000600082015250565b6000610ddc600f83610abf565b9150610de782610da6565b602082019050919050565b60006020820190508181036000830152610e0b81610dcf565b905091905056fea26469706673582212202b7689ccfdde50557ec54a4d021edc825b52a8b9d3373f95cb6e405924b8a7eb64736f6c634300081e0033a2646970667358221220a438f6ed0c37618be4b19f35f5b2f45db8dfaa6061105f4c3abe2538b77ddc2364736f6c634300081e0033",
  "linkReferences": {},
  "deployedLinkReferences": {}
}