{
  "_format": "hh-sol-artifact-1",
  "contractName": "PiggyBankFactory",
  "sourceName": "contracts/PiggyBankFactory.sol",
  "abi": [
    {
      "inputs": [],
      "stateMutability": "nonpayable",
      "type": "constructor"
    },
    {
      "inputs": [],
      "name": "ZeroDuration",
      "type": "error"
    },
    {
      "anonymous": false,
      "inputs": [
        {
          "indexed": true,
          "internalType": "address",
          "name": "user",
          "type": "address"
        },
        {
          "indexed": false,
          "internalType": "address",
          "name": "piggyBank",
          "type": "address"
        },
        {
          "indexed": false,
          "internalType": "uint256",
          "name": "unlockTime",
          "type": "uint256"
        },
        {
          "indexed": false,
          "internalType": "address",
          "name": "asset",
          "type": "address"
        }
      ],
      "name": "PiggyBankCreated",
      "type": "event"
    },
    {
      "inputs": [],
      "name": "admin",
      "outputs": [
        {
          "internalType": "address",
          "name": "",
          "type": "address"
        }
      ],
      "stateMutability": "view",
      "type": "function"
    },
    {
      "inputs": [
        {
          "internalType": "uint256",
          "name": "duration",
          "type": "uint256"
        },
        {
          "internalType": "address",
          "name": "asset",
          "type": "address"
        }
      ],
      "name": "createPiggyBank",
      "outputs": [
        {
          "internalType": "address",
          "name": "",
          "type": "address"
        }
      ],
      "stateMutability": "nonpayable",
      "type": "function"
    },
    {
      "inputs": [
        {
          "internalType": "address",
          "name": "user",
          "type": "address"
        }
      ],
      "name": "getUserPiggyBanksInfo",
      "outputs": [
        {
          "components": [
            {
              "internalType": "address",
              "name": "piggyBank",
              "type": "address"
            },
            {
              "internalType": "address",
              "name": "asset",
              "type": "address"
            },
            {
              "internalType": "uint256",
              "name": "balance",
              "type": "uint256"
            },
            {
              "internalType": "uint256",
              "name": "unlockTime",
              "type": "uint256"
            }
          ],
          "internalType": "struct PiggyBankFactory.PiggyBankInfo[]",
          "name": "",
          "type": "tuple[]"
        }
      ],
      "stateMutability": "view",
      "type": "function"
    },
    {
      "inputs": [
        {
          "internalType": "address",
          "name": "user",
          "type": "address"
        }
      ],
      "name": "getUserSavingsCount",
      "outputs": [
        {
          "internalType": "uint256",
          "name": "",
          "type": "uint256"
        }
      ],
      "stateMutability": "view",
      "type": "function"
    },
    {
      "inputs": [
        {
          "internalType": "address",
          "name": "",
          "type": "address"
        },
        {
          "internalType": "uint256",
          "name": "",
          "type": "uint256"
        }
      ],
      "name": "userPiggyBanks",
      "outputs": [
        {
          "internalType": "address",
          "name": "",
          "type": "address"
        }
      ],
      "stateMutability": "view",
      "type": "function"
    }
  ],
  "bytecode": "0x60a0604052348015600f57600080fd5b503373ffffffffffffffffffffffffffffffffffffffff1660808173ffffffffffffffffffffffffffffffffffffffff1681525050608051611ba06100666000396000818161018a01526106af0152611ba06000f3fe608060405234801561001057600080fd5b50600436106100575760003560e01c806301f255e21461005c578063663ee92f1461008c578063731bfad4146100bc5780637cf10ded146100ec578063f851a4401461011c575b600080fd5b610076600480360381019061007191906107cb565b61013a565b604051610083919061081a565b60405180910390f35b6100a660048036038101906100a19190610835565b6102df565b6040516100b3919061081a565b60405180910390f35b6100d660048036038101906100d19190610875565b61032d565b6040516100e391906109c4565b60405180910390f35b61010660048036038101906101019190610875565b610662565b60405161011391906109f5565b60405180910390f35b6101246106ad565b604051610131919061081a565b60405180910390f35b6000808303610175576040517f68d5686e00000000000000000000000000000000000000000000000000000000815260040160405180910390fd5b600083426101839190610a3f565b90506000337f000000000000000000000000000000000000000000000000000000000000000083866040516101b7906106d1565b6101c49493929190610a73565b604051809103906000f0801580156101e0573d6000803e3d6000fd5b5090506000803373ffffffffffffffffffffffffffffffffffffffff1673ffffffffffffffffffffffffffffffffffffffff168152602001908152602001600020819080600181540180825580915050600190039060005260206000200160009091909190916101000a81548173ffffffffffffffffffffffffffffffffffffffff021916908373ffffffffffffffffffffffffffffffffffffffff1602179055503373ffffffffffffffffffffffffffffffffffffffff167fc323a844140dc3d2f39161ea6b3b8b30c731acac599d40a6def4d6c16340e38b8284876040516102cc93929190610ab8565b60405180910390a2809250505092915050565b600060205281600052604060002081815481106102fb57600080fd5b906000526020600020016000915091509054906101000a900473ffffffffffffffffffffffffffffffffffffffff1681565b606060008060008473ffffffffffffffffffffffffffffffffffffffff1673ffffffffffffffffffffffffffffffffffffffff1681526020019081526020016000208054806020026020016040519081016040528092919081815260200182805480156103ef57602002820191906000526020600020905b8160009054906101000a900473ffffffffffffffffffffffffffffffffffffffff1673ffffffffffffffffffffffffffffffffffffffff16815260200190600101908083116103a5575b505050505090506000815167ffffffffffffffff81111561041357610412610aef565b5b60405190808252806020026020018201604052801561044c57816020015b6104396106de565b8152602001906001900390816104315790505b50905060005b82518110156106575760008382815181106104705761046f610b1e565b5b60200260200101519050604051806080016040528085848151811061049857610497610b1e565b5b602002602001015173ffffffffffffffffffffffffffffffffffffffff1681526020018273ffffffffffffffffffffffffffffffffffffffff166338d52e0f6040518163ffffffff1660e01b8152600401602060405180830381865afa158015610506573d6000803e3d6000fd5b505050506040513d601f19601f8201168201806040525081019061052a9190610b62565b73ffffffffffffffffffffffffffffffffffffffff1681526020018273ffffffffffffffffffffffffffffffffffffffff166312065fe06040518163ffffffff1660e01b8152600401602060405180830381865afa158015610590573d6000803e3d6000fd5b505050506040513d601f19601f820116820180604052508101906105b49190610ba4565b81526020018273ffffffffffffffffffffffffffffffffffffffff1663251c1aa36040518163ffffffff1660e01b8152600401602060405180830381865afa158015610604573d6000803e3d6000fd5b505050506040513d601f19601f820116820180604052508101906106289190610ba4565b81525083838151811061063e5761063d610b1e565b5b6020026020010181905250508080600101915050610452565b508092505050919050565b60008060008373ffffffffffffffffffffffffffffffffffffffff1673ffffffffffffffffffffffffffffffffffffffff168152602001908152602001600020805490509050919050565b7f000000000000000000000000000000000000000000000000000000000000000081565b610f9980610bd283390190565b6040518060800160405280600073ffffffffffffffffffffffffffffffffffffffff168152602001600073ffffffffffffffffffffffffffffffffffffffff16815260200160008152602001600081525090565b600080fd5b6000819050919050565b61074a81610737565b811461075557600080fd5b50565b60008135905061076781610741565b92915050565b600073ffffffffffffffffffffffffffffffffffffffff82169050919050565b60006107988261076d565b9050919050565b6107a88161078d565b81146107b357600080fd5b50565b6000813590506107c58161079f565b92915050565b600080604083850312156107e2576107e1610732565b5b60006107f085828601610758565b9250506020610801858286016107b6565b9150509250929050565b6108148161078d565b82525050565b600060208201905061082f600083018461080b565b92915050565b6000806040838503121561084c5761084b610732565b5b600061085a858286016107b6565b925050602061086b85828601610758565b9150509250929050565b60006020828403121561088b5761088a610732565b5b6000610899848285016107b6565b91505092915050565b600081519050919050565b600082825260208201905092915050565b6000819050602082019050919050565b6108d78161078d565b82525050565b6108e681610737565b82525050565b60808201600082015161090260008501826108ce565b50602082015161091560208501826108ce565b50604082015161092860408501826108dd565b50606082015161093b60608501826108dd565b50505050565b600061094d83836108ec565b60808301905092915050565b6000602082019050919050565b6000610971826108a2565b61097b81856108ad565b9350610986836108be565b8060005b838110156109b757815161099e8882610941565b97506109a983610959565b92505060018101905061098a565b5085935050505092915050565b600060208201905081810360008301526109de8184610966565b905092915050565b6109ef81610737565b82525050565b6000602082019050610a0a60008301846109e6565b92915050565b7f4e487b7100000000000000000000000000000000000000000000000000000000600052601160045260246000fd5b6000610a4a82610737565b9150610a5583610737565b9250828201905080821115610a6d57610a6c610a10565b5b92915050565b6000608082019050610a88600083018761080b565b610a95602083018661080b565b610aa260408301856109e6565b610aaf606083018461080b565b95945050505050565b6000606082019050610acd600083018661080b565b610ada60208301856109e6565b610ae7604083018461080b565b949350505050565b7f4e487b7100000000000000000000000000000000000000000000000000000000600052604160045260246000fd5b7f4e487b7100000000000000000000000000000000000000000000000000000000600052603260045260246000fd5b600081519050610b5c8161079f565b92915050565b600060208284031215610b7857610b77610732565b5b6000610b8684828501610b4d565b91505092915050565b600081519050610b9e81610741565b92915050565b600060208284031215610bba57610bb9610732565b5b6000610bc884828501610b8f565b9150509291505056fe61010060405234801561001157600080fd5b50604051610f99380380610f9983398181016040528101906100339190610179565b8373ffffffffffffffffffffffffffffffffffffffff1660808173ffffffffffffffffffffffffffffffffffffffff16815250508273ffffffffffffffffffffffffffffffffffffffff1660a08173ffffffffffffffffffffffffffffffffffffffff16815250508160c081815250508073ffffffffffffffffffffffffffffffffffffffff1660e08173ffffffffffffffffffffffffffffffffffffffff1681525050505050506101e0565b600080fd5b600073ffffffffffffffffffffffffffffffffffffffff82169050919050565b6000610110826100e5565b9050919050565b61012081610105565b811461012b57600080fd5b50565b60008151905061013d81610117565b92915050565b6000819050919050565b61015681610143565b811461016157600080fd5b50565b6000815190506101738161014d565b92915050565b60008060008060808587031215610193576101926100e0565b5b60006101a18782880161012e565b94505060206101b28782880161012e565b93505060406101c387828801610164565b92505060606101d48782880161012e565b91505092959194509250565b60805160a05160c05160e051610d1e61027b600039600081816101ac015281816101e80152818161043d0152818161055f0152818161061f01528181610755015281816107ef01526108b001526000818161028e01526103d10152600081816104820152818161059b01526109a30152600081816102b2015281816104ea0152818161065b015281816106df01526107790152610d1e6000f3fe6080604052600436106100705760003560e01c806338d52e0f1161004e57806338d52e0f146100f45780638da5cb5b1461011f578063b6b55f251461014a578063f851a4401461016657610070565b806312065fe014610075578063251c1aa3146100a05780632e1a7d4d146100cb575b600080fd5b34801561008157600080fd5b5061008a610191565b60405161009791906109de565b60405180910390f35b3480156100ac57600080fd5b506100b561028c565b6040516100c291906109de565b60405180910390f35b3480156100d757600080fd5b506100f260048036038101906100ed9190610a2a565b6102b0565b005b34801561010057600080fd5b50610109610753565b6040516101169190610a98565b60405180910390f35b34801561012b57600080fd5b50610134610777565b6040516101419190610a98565b60405180910390f35b610164600480360381019061015f9190610a2a565b61079b565b005b34801561017257600080fd5b5061017b6109a1565b6040516101889190610a98565b60405180910390f35b60008073ffffffffffffffffffffffffffffffffffffffff167f000000000000000000000000000000000000000000000000000000000000000073ffffffffffffffffffffffffffffffffffffffff1614610285577f000000000000000000000000000000000000000000000000000000000000000073ffffffffffffffffffffffffffffffffffffffff166370a08231306040518263ffffffff1660e01b815260040161023f9190610a98565b602060405180830381865afa15801561025c573d6000803e3d6000fd5b505050506040513d601f19601f820116820180604052508101906102809190610ac8565b610287565b475b905090565b7f000000000000000000000000000000000000000000000000000000000000000081565b7f000000000000000000000000000000000000000000000000000000000000000073ffffffffffffffffffffffffffffffffffffffff163373ffffffffffffffffffffffffffffffffffffffff161461034057336040517f0a86c02a0000000000000000000000000000000000000000000000000000000081526004016103379190610a98565b60405180910390fd5b6000810361037a576040517f1f2a200500000000000000000000000000000000000000000000000000000000815260040160405180910390fd5b6000610384610191565b9050808211156103cd5781816040517fcf4791810000000000000000000000000000000000000000000000000000000081526004016103c4929190610af5565b60405180910390fd5b60007f00000000000000000000000000000000000000000000000000000000000000004210156104135760646003846104069190610b4d565b6104109190610bbe565b90505b600081846104219190610bef565b9050600073ffffffffffffffffffffffffffffffffffffffff167f000000000000000000000000000000000000000000000000000000000000000073ffffffffffffffffffffffffffffffffffffffff16036105545760008211156104e8577f000000000000000000000000000000000000000000000000000000000000000073ffffffffffffffffffffffffffffffffffffffff166108fc839081150290604051600060405180830381858888f193505050501580156104e6573d6000803e3d6000fd5b505b7f000000000000000000000000000000000000000000000000000000000000000073ffffffffffffffffffffffffffffffffffffffff166108fc829081150290604051600060405180830381858888f1935050505015801561054e573d6000803e3d6000fd5b506106dd565b600082111561061d577f000000000000000000000000000000000000000000000000000000000000000073ffffffffffffffffffffffffffffffffffffffff1663a9059cbb7f0000000000000000000000000000000000000000000000000000000000000000846040518363ffffffff1660e01b81526004016105d8929190610c23565b6020604051808303816000875af11580156105f7573d6000803e3d6000fd5b505050506040513d601f19601f8201168201806040525081019061061b9190610c84565b505b7f000000000000000000000000000000000000000000000000000000000000000073ffffffffffffffffffffffffffffffffffffffff1663a9059cbb7f0000000000000000000000000000000000000000000000000000000000000000836040518363ffffffff1660e01b8152600401610698929190610c23565b6020604051808303816000875af11580156106b7573d6000803e3d6000fd5b505050506040513d601f19601f820116820180604052508101906106db9190610c84565b505b7f000000000000000000000000000000000000000000000000000000000000000073ffffffffffffffffffffffffffffffffffffffff167f92ccf450a286a957af52509bc1c9939d1a6a481783e142e41e2499f0bb66ebc68284604051610745929190610af5565b60405180910390a250505050565b7f000000000000000000000000000000000000000000000000000000000000000081565b7f000000000000000000000000000000000000000000000000000000000000000081565b600081036107d5576040517f1f2a200500000000000000000000000000000000000000000000000000000000815260040160405180910390fd5b600073ffffffffffffffffffffffffffffffffffffffff167f000000000000000000000000000000000000000000000000000000000000000073ffffffffffffffffffffffffffffffffffffffff16036108745780341461086f5780346040517f5df8e205000000000000000000000000000000000000000000000000000000008152600401610866929190610af5565b60405180910390fd5b610950565b600034146108ae576040517ffdd6663a00000000000000000000000000000000000000000000000000000000815260040160405180910390fd5b7f000000000000000000000000000000000000000000000000000000000000000073ffffffffffffffffffffffffffffffffffffffff166323b872dd3330846040518463ffffffff1660e01b815260040161090b93929190610cb1565b6020604051808303816000875af115801561092a573d6000803e3d6000fd5b505050506040513d601f19601f8201168201806040525081019061094e9190610c84565b505b3373ffffffffffffffffffffffffffffffffffffffff167f2da466a7b24304f47e87fa2e1e5a81b9831ce54fec19055ce277ca2f39ba42c48260405161099691906109de565b60405180910390a250565b7f000000000000000000000000000000000000000000000000000000000000000081565b6000819050919050565b6109d8816109c5565b82525050565b60006020820190506109f360008301846109cf565b92915050565b600080fd5b610a07816109c5565b8114610a1257600080fd5b50565b600081359050610a24816109fe565b92915050565b600060208284031215610a4057610a3f6109f9565b5b6000610a4e84828501610a15565b91505092915050565b600073ffffffffffffffffffffffffffffffffffffffff82169050919050565b6000610a8282610a57565b9050919050565b610a9281610a77565b82525050565b6000602082019050610aad6000830184610a89565b92915050565b600081519050610ac2816109fe565b92915050565b600060208284031215610ade57610add6109f9565b5b6000610aec84828501610ab3565b91505092915050565b6000604082019050610b0a60008301856109cf565b610b1760208301846109cf565b9392505050565b7f4e487b7100000000000000000000000000000000000000000000000000000000600052601160045260246000fd5b6000610b58826109c5565b9150610b63836109c5565b9250828202610b71816109c5565b91508282048414831517610b8857610b87610b1e565b5b5092915050565b7f4e487b7100000000000000000000000000000000000000000000000000000000600052601260045260246000fd5b6000610bc9826109c5565b9150610bd4836109c5565b925082610be457610be3610b8f565b5b828204905092915050565b6000610bfa826109c5565b9150610c05836109c5565b9250828203905081811115610c1d57610c1c610b1e565b5b92915050565b6000604082019050610c386000830185610a89565b610c4560208301846109cf565b9392505050565b60008115159050919050565b610c6181610c4c565b8114610c6c57600080fd5b50565b600081519050610c7e81610c58565b92915050565b600060208284031215610c9a57610c996109f9565b5b6000610ca884828501610c6f565b91505092915050565b6000606082019050610cc66000830186610a89565b610cd36020830185610a89565b610ce060408301846109cf565b94935050505056fea2646970667358221220ce3c948ecf7d77556bc92d7e805fa05d614113bbfeeb2a9be265283563e5ecb864736f6c634300081c0033a2646970667358221220941241701d1be107eca45ddbec4e574e651d4c0d94646fe22cd4b1632a2a7dc264736f6c634300081c0033",
  "linkReferences": {},
  "deployedLinkReferences": {}
}