{
  "_format": "hh-sol-artifact-1",
  "contractName": "RoleNFT",
  "sourceName": "contracts/RoleNFT.sol",
  "abi": [
    {
      "inputs": [],
      "stateMutability": "nonpayable",
      "type": "constructor"
    },
    {
      "inputs": [
        {
          "internalType": "address",
          "name": "sender",
          "type": "address"
        },
        {
          "internalType": "uint256",
          "name": "tokenId",
          "type": "uint256"
        },
        {
          "internalType": "address",
          "name": "owner",
          "type": "address"
        }
      ],
      "name": "ERC721IncorrectOwner",
      "type": "error"
    },
    {
      "inputs": [
        {
          "internalType": "address",
          "name": "operator",
          "type": "address"
        },
        {
          "internalType": "uint256",
          "name": "tokenId",
          "type": "uint256"
        }
      ],
      "name": "ERC721InsufficientApproval",
      "type": "error"
    },
    {
      "inputs": [
        {
          "internalType": "address",
          "name": "approver",
          "type": "address"
        }
      ],
      "name": "ERC721InvalidApprover",
      "type": "error"
    },
    {
      "inputs": [
        {
          "internalType": "address",
          "name": "operator",
          "type": "address"
        }
      ],
      "name": "ERC721InvalidOperator",
      "type": "error"
    },
    {
      "inputs": [
        {
          "internalType": "address",
          "name": "owner",
          "type": "address"
        }
      ],
      "name": "ERC721InvalidOwner",
      "type": "error"
    },
    {
      "inputs": [
        {
          "internalType": "address",
          "name": "receiver",
          "type": "address"
        }
      ],
      "name": "ERC721InvalidReceiver",
      "type": "error"
    },
    {
      "inputs": [
        {
          "internalType": "address",
          "name": "sender",
          "type": "address"
        }
      ],
      "name": "ERC721InvalidSender",
      "type": "error"
    },
    {
      "inputs": [
        {
          "internalType": "uint256",
          "name": "tokenId",
          "type": "uint256"
        }
      ],
      "name": "ERC721NonexistentToken",
      "type": "error"
    },
    {
      "inputs": [
        {
          "internalType": "address",
          "name": "owner",
          "type": "address"
        }
      ],
      "name": "OwnableInvalidOwner",
      "type": "error"
    },
    {
      "inputs": [
        {
          "internalType": "address",
          "name": "account",
          "type": "address"
        }
      ],
      "name": "OwnableUnauthorizedAccount",
      "type": "error"
    },
    {
      "anonymous": false,
      "inputs": [
        {
          "indexed": true,
          "internalType": "address",
          "name": "owner",
          "type": "address"
        },
        {
          "indexed": true,
          "internalType": "address",
          "name": "approved",
          "type": "address"
        },
        {
          "indexed": true,
          "internalType": "uint256",
          "name": "tokenId",
          "type": "uint256"
        }
      ],
      "name": "Approval",
      "type": "event"
    },
    {
      "anonymous": false,
      "inputs": [
        {
          "indexed": true,
          "internalType": "address",
          "name": "owner",
          "type": "address"
        },
        {
          "indexed": true,
          "internalType": "address",
          "name": "operator",
          "type": "address"
        },
        {
          "indexed": false,
          "internalType": "bool",
          "name": "approved",
          "type": "bool"
        }
      ],
      "name": "ApprovalForAll",
      "type": "event"
    },
    {
      "anonymous": false,
      "inputs": [
        {
          "indexed": true,
          "internalType": "address",
          "name": "previousOwner",
          "type": "address"
        },
        {
          "indexed": true,
          "internalType": "address",
          "name": "newOwner",
          "type": "address"
        }
      ],
      "name": "OwnershipTransferred",
      "type": "event"
    },
    {
      "anonymous": false,
      "inputs": [
        {
          "indexed": true,
          "internalType": "bytes32",
          "name": "role",
          "type": "bytes32"
        },
        {
          "indexed": true,
          "internalType": "uint256",
          "name": "tokenId",
          "type": "uint256"
        },
        {
          "indexed": true,
          "internalType": "address",
          "name": "account",
          "type": "address"
        },
        {
          "indexed": false,
          "internalType": "uint64",
          "name": "expirationDate",
          "type": "uint64"
        },
        {
          "indexed": false,
          "internalType": "bool",
          "name": "revocable",
          "type": "bool"
        },
        {
          "indexed": false,
          "internalType": "bytes",
          "name": "data",
          "type": "bytes"
        }
      ],
      "name": "RoleGranted",
      "type": "event"
    },
    {
      "anonymous": false,
      "inputs": [
        {
          "indexed": true,
          "internalType": "bytes32",
          "name": "role",
          "type": "bytes32"
        },
        {
          "indexed": true,
          "internalType": "uint256",
          "name": "tokenId",
          "type": "uint256"
        },
        {
          "indexed": true,
          "internalType": "address",
          "name": "account",
          "type": "address"
        }
      ],
      "name": "RoleRevoked",
      "type": "event"
    },
    {
      "anonymous": false,
      "inputs": [
        {
          "indexed": true,
          "internalType": "address",
          "name": "from",
          "type": "address"
        },
        {
          "indexed": true,
          "internalType": "address",
          "name": "to",
          "type": "address"
        },
        {
          "indexed": true,
          "internalType": "uint256",
          "name": "tokenId",
          "type": "uint256"
        }
      ],
      "name": "Transfer",
      "type": "event"
    },
    {
      "inputs": [
        {
          "internalType": "address",
          "name": "to",
          "type": "address"
        },
        {
          "internalType": "uint256",
          "name": "tokenId",
          "type": "uint256"
        }
      ],
      "name": "approve",
      "outputs": [],
      "stateMutability": "nonpayable",
      "type": "function"
    },
    {
      "inputs": [
        {
          "internalType": "address",
          "name": "owner",
          "type": "address"
        }
      ],
      "name": "balanceOf",
      "outputs": [
        {
          "internalType": "uint256",
          "name": "",
          "type": "uint256"
        }
      ],
      "stateMutability": "view",
      "type": "function"
    },
    {
      "inputs": [],
      "name": "daoContract",
      "outputs": [
        {
          "internalType": "address",
          "name": "",
          "type": "address"
        }
      ],
      "stateMutability": "view",
      "type": "function"
    },
    {
      "inputs": [
        {
          "internalType": "uint256",
          "name": "tokenId",
          "type": "uint256"
        }
      ],
      "name": "getApproved",
      "outputs": [
        {
          "internalType": "address",
          "name": "",
          "type": "address"
        }
      ],
      "stateMutability": "view",
      "type": "function"
    },
    {
      "inputs": [
        {
          "internalType": "bytes32",
          "name": "role",
          "type": "bytes32"
        },
        {
          "internalType": "uint256",
          "name": "tokenId",
          "type": "uint256"
        },
        {
          "internalType": "address",
          "name": "account",
          "type": "address"
        },
        {
          "internalType": "uint64",
          "name": "expirationDate",
          "type": "uint64"
        },
        {
          "internalType": "bool",
          "name": "revocable",
          "type": "bool"
        },
        {
          "internalType": "bytes",
          "name": "data",
          "type": "bytes"
        }
      ],
      "name": "grantRole",
      "outputs": [],
      "stateMutability": "nonpayable",
      "type": "function"
    },
    {
      "inputs": [
        {
          "internalType": "bytes32",
          "name": "role",
          "type": "bytes32"
        },
        {
          "internalType": "uint256",
          "name": "tokenId",
          "type": "uint256"
        },
        {
          "internalType": "address",
          "name": "account",
          "type": "address"
        }
      ],
      "name": "hasRole",
      "outputs": [
        {
          "internalType": "bool",
          "name": "",
          "type": "bool"
        }
      ],
      "stateMutability": "view",
      "type": "function"
    },
    {
      "inputs": [
        {
          "internalType": "address",
          "name": "owner",
          "type": "address"
        },
        {
          "internalType": "address",
          "name": "operator",
          "type": "address"
        }
      ],
      "name": "isApprovedForAll",
      "outputs": [
        {
          "internalType": "bool",
          "name": "",
          "type": "bool"
        }
      ],
      "stateMutability": "view",
      "type": "function"
    },
    {
      "inputs": [
        {
          "internalType": "bytes32",
          "name": "role",
          "type": "bytes32"
        },
        {
          "internalType": "uint256",
          "name": "tokenId",
          "type": "uint256"
        },
        {
          "internalType": "address",
          "name": "account",
          "type": "address"
        }
      ],
      "name": "isRoleRevocable",
      "outputs": [
        {
          "internalType": "bool",
          "name": "",
          "type": "bool"
        }
      ],
      "stateMutability": "view",
      "type": "function"
    },
    {
      "inputs": [
        {
          "internalType": "address",
          "name": "to",
          "type": "address"
        }
      ],
      "name": "mint",
      "outputs": [
        {
          "internalType": "uint256",
          "name": "",
          "type": "uint256"
        }
      ],
      "stateMutability": "nonpayable",
      "type": "function"
    },
    {
      "inputs": [],
      "name": "name",
      "outputs": [
        {
          "internalType": "string",
          "name": "",
          "type": "string"
        }
      ],
      "stateMutability": "view",
      "type": "function"
    },
    {
      "inputs": [],
      "name": "owner",
      "outputs": [
        {
          "internalType": "address",
          "name": "",
          "type": "address"
        }
      ],
      "stateMutability": "view",
      "type": "function"
    },
    {
      "inputs": [
        {
          "internalType": "uint256",
          "name": "tokenId",
          "type": "uint256"
        }
      ],
      "name": "ownerOf",
      "outputs": [
        {
          "internalType": "address",
          "name": "",
          "type": "address"
        }
      ],
      "stateMutability": "view",
      "type": "function"
    },
    {
      "inputs": [],
      "name": "renounceOwnership",
      "outputs": [],
      "stateMutability": "nonpayable",
      "type": "function"
    },
    {
      "inputs": [
        {
          "internalType": "bytes32",
          "name": "role",
          "type": "bytes32"
        },
        {
          "internalType": "uint256",
          "name": "tokenId",
          "type": "uint256"
        },
        {
          "internalType": "address",
          "name": "account",
          "type": "address"
        }
      ],
      "name": "revokeRole",
      "outputs": [],
      "stateMutability": "nonpayable",
      "type": "function"
    },
    {
      "inputs": [
        {
          "internalType": "bytes32",
          "name": "role",
          "type": "bytes32"
        },
        {
          "internalType": "uint256",
          "name": "tokenId",
          "type": "uint256"
        },
        {
          "internalType": "address",
          "name": "account",
          "type": "address"
        }
      ],
      "name": "roleData",
      "outputs": [
        {
          "internalType": "bytes",
          "name": "",
          "type": "bytes"
        }
      ],
      "stateMutability": "view",
      "type": "function"
    },
    {
      "inputs": [
        {
          "internalType": "bytes32",
          "name": "role",
          "type": "bytes32"
        },
        {
          "internalType": "uint256",
          "name": "tokenId",
          "type": "uint256"
        },
        {
          "internalType": "address",
          "name": "account",
          "type": "address"
        }
      ],
      "name": "roleExpirationDate",
      "outputs": [
        {
          "internalType": "uint64",
          "name": "",
          "type": "uint64"
        }
      ],
      "stateMutability": "view",
      "type": "function"
    },
    {
      "inputs": [
        {
          "internalType": "address",
          "name": "from",
          "type": "address"
        },
        {
          "internalType": "address",
          "name": "to",
          "type": "address"
        },
        {
          "internalType": "uint256",
          "name": "tokenId",
          "type": "uint256"
        }
      ],
      "name": "safeTransferFrom",
      "outputs": [],
      "stateMutability": "nonpayable",
      "type": "function"
    },
    {
      "inputs": [
        {
          "internalType": "address",
          "name": "from",
          "type": "address"
        },
        {
          "internalType": "address",
          "name": "to",
          "type": "address"
        },
        {
          "internalType": "uint256",
          "name": "tokenId",
          "type": "uint256"
        },
        {
          "internalType": "bytes",
          "name": "data",
          "type": "bytes"
        }
      ],
      "name": "safeTransferFrom",
      "outputs": [],
      "stateMutability": "nonpayable",
      "type": "function"
    },
    {
      "inputs": [
        {
          "internalType": "address",
          "name": "operator",
          "type": "address"
        },
        {
          "internalType": "bool",
          "name": "approved",
          "type": "bool"
        }
      ],
      "name": "setApprovalForAll",
      "outputs": [],
      "stateMutability": "nonpayable",
      "type": "function"
    },
    {
      "inputs": [
        {
          "internalType": "address",
          "name": "_daoContract",
          "type": "address"
        }
      ],
      "name": "setDAOContract",
      "outputs": [],
      "stateMutability": "nonpayable",
      "type": "function"
    },
    {
      "inputs": [
        {
          "internalType": "bytes4",
          "name": "interfaceId",
          "type": "bytes4"
        }
      ],
      "name": "supportsInterface",
      "outputs": [
        {
          "internalType": "bool",
          "name": "",
          "type": "bool"
        }
      ],
      "stateMutability": "view",
      "type": "function"
    },
    {
      "inputs": [],
      "name": "symbol",
      "outputs": [
        {
          "internalType": "string",
          "name": "",
          "type": "string"
        }
      ],
      "stateMutability": "view",
      "type": "function"
    },
    {
      "inputs": [
        {
          "internalType": "uint256",
          "name": "tokenId",
          "type": "uint256"
        }
      ],
      "name": "tokenURI",
      "outputs": [
        {
          "internalType": "string",
          "name": "",
          "type": "string"
        }
      ],
      "stateMutability": "view",
      "type": "function"
    },
    {
      "inputs": [
        {
          "internalType": "address",
          "name": "from",
          "type": "address"
        },
        {
          "internalType": "address",
          "name": "to",
          "type": "address"
        },
        {
          "internalType": "uint256",
          "name": "tokenId",
          "type": "uint256"
        }
      ],
      "name": "transferFrom",
      "outputs": [],
      "stateMutability": "nonpayable",
      "type": "function"
    },
    {
      "inputs": [
        {
          "internalType": "address",
          "name": "newOwner",
          "type": "address"
        }
      ],
      "name": "transferOwnership",
      "outputs": [],
      "stateMutability": "nonpayable",
      "type": "function"
    }
  ],
  "bytecode": "0x60806040523480156200001157600080fd5b50336040518060400160405280600c81526020017f44414f20526f6c65204e465400000000000000000000000000000000000000008152506040518060400160405280600581526020017f44524e4654000000000000000000000000000000000000000000000000000000815250816000908162000090919062000472565b508060019081620000a2919062000472565b505050600073ffffffffffffffffffffffffffffffffffffffff168173ffffffffffffffffffffffffffffffffffffffff16036200011a5760006040517f1e4fbdf70000000000000000000000000000000000000000000000000000000081526004016200011191906200059e565b60405180910390fd5b6200012b816200013260201b60201c565b50620005bb565b6000600660009054906101000a900473ffffffffffffffffffffffffffffffffffffffff16905081600660006101000a81548173ffffffffffffffffffffffffffffffffffffffff021916908373ffffffffffffffffffffffffffffffffffffffff1602179055508173ffffffffffffffffffffffffffffffffffffffff168173ffffffffffffffffffffffffffffffffffffffff167f8be0079c531659141344cd1fd0a4f28419497f9722a3daafe3b4186f6b6457e060405160405180910390a35050565b600081519050919050565b7f4e487b7100000000000000000000000000000000000000000000000000000000600052604160045260246000fd5b7f4e487b7100000000000000000000000000000000000000000000000000000000600052602260045260246000fd5b600060028204905060018216806200027a57607f821691505b60208210810362000290576200028f62000232565b5b50919050565b60008190508160005260206000209050919050565b60006020601f8301049050919050565b600082821b905092915050565b600060088302620002fa7fffffffffffffffffffffffffffffffffffffffffffffffffffffffffffffffff82620002bb565b620003068683620002bb565b95508019841693508086168417925050509392505050565b6000819050919050565b6000819050919050565b6000620003536200034d62000347846200031e565b62000328565b6200031e565b9050919050565b6000819050919050565b6200036f8362000332565b620003876200037e826200035a565b848454620002c8565b825550505050565b600090565b6200039e6200038f565b620003ab81848462000364565b505050565b5b81811015620003d357620003c760008262000394565b600181019050620003b1565b5050565b601f8211156200042257620003ec8162000296565b620003f784620002ab565b8101602085101562000407578190505b6200041f6200041685620002ab565b830182620003b0565b50505b505050565b600082821c905092915050565b6000620004476000198460080262000427565b1980831691505092915050565b600062000462838362000434565b9150826002028217905092915050565b6200047d82620001f8565b67ffffffffffffffff81111562000499576200049862000203565b5b620004a5825462000261565b620004b2828285620003d7565b600060209050601f831160018114620004ea5760008415620004d5578287015190505b620004e1858262000454565b86555062000551565b601f198416620004fa8662000296565b60005b828110156200052457848901518255600182019150602085019450602081019050620004fd565b8683101562000544578489015162000540601f89168262000434565b8355505b6001600288020188555050505b505050505050565b600073ffffffffffffffffffffffffffffffffffffffff82169050919050565b6000620005868262000559565b9050919050565b620005988162000579565b82525050565b6000602082019050620005b560008301846200058d565b92915050565b61396680620005cb6000396000f3fe608060405234801561001057600080fd5b50600436106101735760003560e01c80636a627842116100de578063a22cb46511610097578063c87b56dd11610071578063c87b56dd1461045a578063d8c3b65e1461048a578063e985e9c5146104ba578063f2fde38b146104ea57610173565b8063a22cb465146103f2578063b88d4fde1461040e578063babb898d1461042a57610173565b80636a6278421461033057806370a0823114610360578063715018a6146103905780638da5cb5b1461039a5780638eb7a776146103b857806395d89b41146103d457610173565b8063249c5e2511610130578063249c5e251461025e578063314a62711461027a578063425d512a146102aa57806342842e0e146102c65780634a7ffcbc146102e25780636352211e1461030057610173565b806301ffc9a71461017857806306fdde03146101a8578063081812fc146101c6578063095ea7b3146101f65780630d45126d1461021257806323b872dd14610242575b600080fd5b610192600480360381019061018d919061289b565b610506565b60405161019f91906128e3565b60405180910390f35b6101b06105e8565b6040516101bd919061298e565b60405180910390f35b6101e060048036038101906101db91906129e6565b61067a565b6040516101ed9190612a54565b60405180910390f35b610210600480360381019061020b9190612a9b565b610696565b005b61022c60048036038101906102279190612b11565b6106ac565b6040516102399190612b87565b60405180910390f35b61025c60048036038101906102579190612ba2565b610730565b005b61027860048036038101906102739190612cb2565b610832565b005b610294600480360381019061028f9190612b11565b610c2c565b6040516102a19190612db6565b60405180910390f35b6102c460048036038101906102bf9190612dd8565b610d24565b005b6102e060048036038101906102db9190612ba2565b610d70565b005b6102ea610d90565b6040516102f79190612a54565b60405180910390f35b61031a600480360381019061031591906129e6565b610db6565b6040516103279190612a54565b60405180910390f35b61034a60048036038101906103459190612dd8565b610dc8565b6040516103579190612e14565b60405180910390f35b61037a60048036038101906103759190612dd8565b610ee6565b6040516103879190612e14565b60405180910390f35b610398610fa0565b005b6103a2610fb4565b6040516103af9190612a54565b60405180910390f35b6103d260048036038101906103cd9190612b11565b610fde565b005b6103dc6113b0565b6040516103e9919061298e565b60405180910390f35b61040c60048036038101906104079190612e2f565b611442565b005b61042860048036038101906104239190612f9f565b611458565b005b610444600480360381019061043f9190612b11565b61147d565b60405161045191906128e3565b60405180910390f35b610474600480360381019061046f91906129e6565b611600565b604051610481919061298e565b60405180910390f35b6104a4600480360381019061049f9190612b11565b611669565b6040516104b191906128e3565b60405180910390f35b6104d460048036038101906104cf9190613022565b6116e6565b6040516104e191906128e3565b60405180910390f35b61050460048036038101906104ff9190612dd8565b61177a565b005b60007f80ac58cd000000000000000000000000000000000000000000000000000000007bffffffffffffffffffffffffffffffffffffffffffffffffffffffff1916827bffffffffffffffffffffffffffffffffffffffffffffffffffffffff191614806105d157507f5b5e139f000000000000000000000000000000000000000000000000000000007bffffffffffffffffffffffffffffffffffffffffffffffffffffffff1916827bffffffffffffffffffffffffffffffffffffffffffffffffffffffff1916145b806105e157506105e082611800565b5b9050919050565b6060600080546105f790613091565b80601f016020809104026020016040519081016040528092919081815260200182805461062390613091565b80156106705780601f1061064557610100808354040283529160200191610670565b820191906000526020600020905b81548152906001019060200180831161065357829003601f168201915b5050505050905090565b60006106858261186a565b5061068f826118f2565b9050919050565b6106a882826106a361192f565b611937565b5050565b600060076000858152602001908152602001600020600084815260200190815260200160002060008373ffffffffffffffffffffffffffffffffffffffff1673ffffffffffffffffffffffffffffffffffffffff16815260200190815260200160002060000160009054906101000a900467ffffffffffffffff1690509392505050565b600073ffffffffffffffffffffffffffffffffffffffff168273ffffffffffffffffffffffffffffffffffffffff16036107a25760006040517f64a0ae920000000000000000000000000000000000000000000000000000000081526004016107999190612a54565b60405180910390fd5b60006107b683836107b161192f565b611949565b90508373ffffffffffffffffffffffffffffffffffffffff168173ffffffffffffffffffffffffffffffffffffffff161461082c578382826040517f64283d7b000000000000000000000000000000000000000000000000000000008152600401610823939291906130c2565b60405180910390fd5b50505050565b61083b86611a85565b61087a576040517f08c379a000000000000000000000000000000000000000000000000000000000815260040161087190613145565b60405180910390fd5b600073ffffffffffffffffffffffffffffffffffffffff168573ffffffffffffffffffffffffffffffffffffffff16036108e9576040517f08c379a00000000000000000000000000000000000000000000000000000000081526004016108e0906131d7565b60405180910390fd5b428467ffffffffffffffff1611610935576040517f08c379a000000000000000000000000000000000000000000000000000000000815260040161092c90613269565b60405180910390fd5b3373ffffffffffffffffffffffffffffffffffffffff1661095587610db6565b73ffffffffffffffffffffffffffffffffffffffff1614806109a957503373ffffffffffffffffffffffffffffffffffffffff16610991610fb4565b73ffffffffffffffffffffffffffffffffffffffff16145b6109e8576040517f08c379a00000000000000000000000000000000000000000000000000000000081526004016109df906132d5565b60405180910390fd5b6109f0610fb4565b73ffffffffffffffffffffffffffffffffffffffff163373ffffffffffffffffffffffffffffffffffffffff1614610a9957610a2b86610db6565b73ffffffffffffffffffffffffffffffffffffffff168573ffffffffffffffffffffffffffffffffffffffff1614610a98576040517f08c379a0000000000000000000000000000000000000000000000000000000008152600401610a8f90613367565b60405180910390fd5b5b60405180606001604052808567ffffffffffffffff168152602001841515815260200183838080601f016020809104026020016040519081016040528093929190818152602001838380828437600081840152601f19601f8201169050808301925050505050505081525060076000898152602001908152602001600020600088815260200190815260200160002060008773ffffffffffffffffffffffffffffffffffffffff1673ffffffffffffffffffffffffffffffffffffffff16815260200190815260200160002060008201518160000160006101000a81548167ffffffffffffffff021916908367ffffffffffffffff16021790555060208201518160000160086101000a81548160ff0219169083151502179055506040820151816001019081610bc99190613533565b509050508473ffffffffffffffffffffffffffffffffffffffff1686887fb202ecb15f9f0eaa586eeddaa0aaa2b24036031b7d6f25e54aaeac7299f5df5f87878787604051610c1b9493929190613632565b60405180910390a450505050505050565b606060076000858152602001908152602001600020600084815260200190815260200160002060008373ffffffffffffffffffffffffffffffffffffffff1673ffffffffffffffffffffffffffffffffffffffff1681526020019081526020016000206001018054610c9d90613091565b80601f0160208091040260200160405190810160405280929190818152602001828054610cc990613091565b8015610d165780601f10610ceb57610100808354040283529160200191610d16565b820191906000526020600020905b815481529060010190602001808311610cf957829003601f168201915b505050505090509392505050565b610d2c611a93565b80600960006101000a81548173ffffffffffffffffffffffffffffffffffffffff021916908373ffffffffffffffffffffffffffffffffffffffff16021790555050565b610d8b83838360405180602001604052806000815250611458565b505050565b600960009054906101000a900473ffffffffffffffffffffffffffffffffffffffff1681565b6000610dc18261186a565b9050919050565b6000610dd2611a93565b600060086000815480929190610de7906136a1565b919050559050610df78382611b1a565b600073ffffffffffffffffffffffffffffffffffffffff16600960009054906101000a900473ffffffffffffffffffffffffffffffffffffffff1673ffffffffffffffffffffffffffffffffffffffff1614610edd57600960009054906101000a900473ffffffffffffffffffffffffffffffffffffffff1673ffffffffffffffffffffffffffffffffffffffff1663b48b69a882856040518363ffffffff1660e01b8152600401610eaa9291906136e9565b600060405180830381600087803b158015610ec457600080fd5b505af1158015610ed8573d6000803e3d6000fd5b505050505b80915050919050565b60008073ffffffffffffffffffffffffffffffffffffffff168273ffffffffffffffffffffffffffffffffffffffff1603610f595760006040517f89c62b64000000000000000000000000000000000000000000000000000000008152600401610f509190612a54565b60405180910390fd5b600360008373ffffffffffffffffffffffffffffffffffffffff1673ffffffffffffffffffffffffffffffffffffffff168152602001908152602001600020549050919050565b610fa8611a93565b610fb26000611c13565b565b6000600660009054906101000a900473ffffffffffffffffffffffffffffffffffffffff16905090565b610fe782611a85565b611026576040517f08c379a000000000000000000000000000000000000000000000000000000000815260040161101d90613145565b60405180910390fd5b600060076000858152602001908152602001600020600084815260200190815260200160002060008373ffffffffffffffffffffffffffffffffffffffff1673ffffffffffffffffffffffffffffffffffffffff1681526020019081526020016000206040518060600160405290816000820160009054906101000a900467ffffffffffffffff1667ffffffffffffffff1667ffffffffffffffff1681526020016000820160089054906101000a900460ff161515151581526020016001820180546110f190613091565b80601f016020809104026020016040519081016040528092919081815260200182805461111d90613091565b801561116a5780601f1061113f5761010080835404028352916020019161116a565b820191906000526020600020905b81548152906001019060200180831161114d57829003601f168201915b50505050508152505090506000816000015167ffffffffffffffff16116111c6576040517f08c379a00000000000000000000000000000000000000000000000000000000081526004016111bd9061375e565b60405180910390fd5b60003373ffffffffffffffffffffffffffffffffffffffff166111e885610db6565b73ffffffffffffffffffffffffffffffffffffffff16148061123c57503373ffffffffffffffffffffffffffffffffffffffff16611224610fb4565b73ffffffffffffffffffffffffffffffffffffffff16145b8061127f57508160200151801561127e57503373ffffffffffffffffffffffffffffffffffffffff168373ffffffffffffffffffffffffffffffffffffffff16145b5b9050806112c1576040517f08c379a00000000000000000000000000000000000000000000000000000000081526004016112b8906137ca565b60405180910390fd5b60076000868152602001908152602001600020600085815260200190815260200160002060008473ffffffffffffffffffffffffffffffffffffffff1673ffffffffffffffffffffffffffffffffffffffff168152602001908152602001600020600080820160006101000a81549067ffffffffffffffff02191690556000820160086101000a81549060ff021916905560018201600061136291906127d2565b50508273ffffffffffffffffffffffffffffffffffffffff1684867f641261709a27417e18d0ccc3db95ddc812d61be919b2a5a3af21a5870590922a60405160405180910390a45050505050565b6060600180546113bf90613091565b80601f01602080910402602001604051908101604052809291908181526020018280546113eb90613091565b80156114385780601f1061140d57610100808354040283529160200191611438565b820191906000526020600020905b81548152906001019060200180831161141b57829003601f168201915b5050505050905090565b61145461144d61192f565b8383611cd9565b5050565b611463848484610730565b61147761146e61192f565b85858585611e48565b50505050565b600061148883611a85565b61149557600090506115f9565b600060076000868152602001908152602001600020600085815260200190815260200160002060008473ffffffffffffffffffffffffffffffffffffffff1673ffffffffffffffffffffffffffffffffffffffff1681526020019081526020016000206040518060600160405290816000820160009054906101000a900467ffffffffffffffff1667ffffffffffffffff1667ffffffffffffffff1681526020016000820160089054906101000a900460ff1615151515815260200160018201805461156090613091565b80601f016020809104026020016040519081016040528092919081815260200182805461158c90613091565b80156115d95780601f106115ae576101008083540402835291602001916115d9565b820191906000526020600020905b8154815290600101906020018083116115bc57829003601f168201915b505050505081525050905042816000015167ffffffffffffffff16119150505b9392505050565b606061160b8261186a565b506000611616611ff9565b905060008151116116365760405180602001604052806000815250611661565b8061164084612010565b604051602001611651929190613826565b6040516020818303038152906040525b915050919050565b600060076000858152602001908152602001600020600084815260200190815260200160002060008373ffffffffffffffffffffffffffffffffffffffff1673ffffffffffffffffffffffffffffffffffffffff16815260200190815260200160002060000160089054906101000a900460ff1690509392505050565b6000600560008473ffffffffffffffffffffffffffffffffffffffff1673ffffffffffffffffffffffffffffffffffffffff16815260200190815260200160002060008373ffffffffffffffffffffffffffffffffffffffff1673ffffffffffffffffffffffffffffffffffffffff16815260200190815260200160002060009054906101000a900460ff16905092915050565b611782611a93565b600073ffffffffffffffffffffffffffffffffffffffff168173ffffffffffffffffffffffffffffffffffffffff16036117f45760006040517f1e4fbdf70000000000000000000000000000000000000000000000000000000081526004016117eb9190612a54565b60405180910390fd5b6117fd81611c13565b50565b60007f01ffc9a7000000000000000000000000000000000000000000000000000000007bffffffffffffffffffffffffffffffffffffffffffffffffffffffff1916827bffffffffffffffffffffffffffffffffffffffffffffffffffffffff1916149050919050565b600080611876836120de565b9050600073ffffffffffffffffffffffffffffffffffffffff168173ffffffffffffffffffffffffffffffffffffffff16036118e957826040517f7e2732890000000000000000000000000000000000000000000000000000000081526004016118e09190612e14565b60405180910390fd5b80915050919050565b60006004600083815260200190815260200160002060009054906101000a900473ffffffffffffffffffffffffffffffffffffffff169050919050565b600033905090565b611944838383600161211b565b505050565b6000806119578585856122e0565b9050600073ffffffffffffffffffffffffffffffffffffffff16600960009054906101000a900473ffffffffffffffffffffffffffffffffffffffff1673ffffffffffffffffffffffffffffffffffffffff16141580156119e55750600073ffffffffffffffffffffffffffffffffffffffff168573ffffffffffffffffffffffffffffffffffffffff1614155b15611a7a57600960009054906101000a900473ffffffffffffffffffffffffffffffffffffffff1673ffffffffffffffffffffffffffffffffffffffff1663b48b69a885876040518363ffffffff1660e01b8152600401611a479291906136e9565b600060405180830381600087803b158015611a6157600080fd5b505af1158015611a75573d6000803e3d6000fd5b505050505b809150509392505050565b600060085482109050919050565b611a9b61192f565b73ffffffffffffffffffffffffffffffffffffffff16611ab9610fb4565b73ffffffffffffffffffffffffffffffffffffffff1614611b1857611adc61192f565b6040517f118cdaa7000000000000000000000000000000000000000000000000000000008152600401611b0f9190612a54565b60405180910390fd5b565b600073ffffffffffffffffffffffffffffffffffffffff168273ffffffffffffffffffffffffffffffffffffffff1603611b8c5760006040517f64a0ae92000000000000000000000000000000000000000000000000000000008152600401611b839190612a54565b60405180910390fd5b6000611b9a83836000611949565b9050600073ffffffffffffffffffffffffffffffffffffffff168173ffffffffffffffffffffffffffffffffffffffff1614611c0e5760006040517f73c6ac6e000000000000000000000000000000000000000000000000000000008152600401611c059190612a54565b60405180910390fd5b505050565b6000600660009054906101000a900473ffffffffffffffffffffffffffffffffffffffff16905081600660006101000a81548173ffffffffffffffffffffffffffffffffffffffff021916908373ffffffffffffffffffffffffffffffffffffffff1602179055508173ffffffffffffffffffffffffffffffffffffffff168173ffffffffffffffffffffffffffffffffffffffff167f8be0079c531659141344cd1fd0a4f28419497f9722a3daafe3b4186f6b6457e060405160405180910390a35050565b600073ffffffffffffffffffffffffffffffffffffffff168273ffffffffffffffffffffffffffffffffffffffff1603611d4a57816040517f5b08ba18000000000000000000000000000000000000000000000000000000008152600401611d419190612a54565b60405180910390fd5b80600560008573ffffffffffffffffffffffffffffffffffffffff1673ffffffffffffffffffffffffffffffffffffffff16815260200190815260200160002060008473ffffffffffffffffffffffffffffffffffffffff1673ffffffffffffffffffffffffffffffffffffffff16815260200190815260200160002060006101000a81548160ff0219169083151502179055508173ffffffffffffffffffffffffffffffffffffffff168373ffffffffffffffffffffffffffffffffffffffff167f17307eab39ab6107e8899845ad3d59bd9653f200f220920489ca2b5937696c3183604051611e3b91906128e3565b60405180910390a3505050565b60008373ffffffffffffffffffffffffffffffffffffffff163b1115611ff2578273ffffffffffffffffffffffffffffffffffffffff1663150b7a02868685856040518563ffffffff1660e01b8152600401611ea7949392919061384a565b6020604051808303816000875af1925050508015611ee357506040513d601f19601f82011682018060405250810190611ee091906138ab565b60015b611f67573d8060008114611f13576040519150601f19603f3d011682016040523d82523d6000602084013e611f18565b606091505b506000815103611f5f57836040517f64a0ae92000000000000000000000000000000000000000000000000000000008152600401611f569190612a54565b60405180910390fd5b805160208201fd5b63150b7a0260e01b7bffffffffffffffffffffffffffffffffffffffffffffffffffffffff1916817bffffffffffffffffffffffffffffffffffffffffffffffffffffffff191614611ff057836040517f64a0ae92000000000000000000000000000000000000000000000000000000008152600401611fe79190612a54565b60405180910390fd5b505b5050505050565b606060405180602001604052806000815250905090565b60606000600161201f846124fa565b01905060008167ffffffffffffffff81111561203e5761203d612e74565b5b6040519080825280601f01601f1916602001820160405280156120705781602001600182028036833780820191505090505b509050600082602083010190505b6001156120d3578080600190039150507f3031323334353637383961626364656600000000000000000000000000000000600a86061a8153600a85816120c7576120c66138d8565b5b0494506000850361207e575b819350505050919050565b60006002600083815260200190815260200160002060009054906101000a900473ffffffffffffffffffffffffffffffffffffffff169050919050565b80806121545750600073ffffffffffffffffffffffffffffffffffffffff168273ffffffffffffffffffffffffffffffffffffffff1614155b156122885760006121648461186a565b9050600073ffffffffffffffffffffffffffffffffffffffff168373ffffffffffffffffffffffffffffffffffffffff16141580156121cf57508273ffffffffffffffffffffffffffffffffffffffff168173ffffffffffffffffffffffffffffffffffffffff1614155b80156121e257506121e081846116e6565b155b1561222457826040517fa9fbf51f00000000000000000000000000000000000000000000000000000000815260040161221b9190612a54565b60405180910390fd5b811561228657838573ffffffffffffffffffffffffffffffffffffffff168273ffffffffffffffffffffffffffffffffffffffff167f8c5be1e5ebec7d5bd14f71427d1e84f3dd0314c0f7b2291e5b200ac8c7c3b92560405160405180910390a45b505b836004600085815260200190815260200160002060006101000a81548173ffffffffffffffffffffffffffffffffffffffff021916908373ffffffffffffffffffffffffffffffffffffffff16021790555050505050565b6000806122ec846120de565b9050600073ffffffffffffffffffffffffffffffffffffffff168373ffffffffffffffffffffffffffffffffffffffff161461232e5761232d81848661264d565b5b600073ffffffffffffffffffffffffffffffffffffffff168173ffffffffffffffffffffffffffffffffffffffff16146123bf5761237060008560008061211b565b6001600360008373ffffffffffffffffffffffffffffffffffffffff1673ffffffffffffffffffffffffffffffffffffffff168152602001908152602001600020600082825403925050819055505b600073ffffffffffffffffffffffffffffffffffffffff168573ffffffffffffffffffffffffffffffffffffffff1614612442576001600360008773ffffffffffffffffffffffffffffffffffffffff1673ffffffffffffffffffffffffffffffffffffffff168152602001908152602001600020600082825401925050819055505b846002600086815260200190815260200160002060006101000a81548173ffffffffffffffffffffffffffffffffffffffff021916908373ffffffffffffffffffffffffffffffffffffffff160217905550838573ffffffffffffffffffffffffffffffffffffffff168273ffffffffffffffffffffffffffffffffffffffff167fddf252ad1be2c89b69c2b068fc378daa952ba7f163c4a11628f55a4df523b3ef60405160405180910390a4809150509392505050565b600080600090507a184f03e93ff9f4daa797ed6e38ed64bf6a1f0100000000000000008310612558577a184f03e93ff9f4daa797ed6e38ed64bf6a1f010000000000000000838161254e5761254d6138d8565b5b0492506040810190505b6d04ee2d6d415b85acef81000000008310612595576d04ee2d6d415b85acef8100000000838161258b5761258a6138d8565b5b0492506020810190505b662386f26fc1000083106125c457662386f26fc1000083816125ba576125b96138d8565b5b0492506010810190505b6305f5e10083106125ed576305f5e10083816125e3576125e26138d8565b5b0492506008810190505b6127108310612612576127108381612608576126076138d8565b5b0492506004810190505b60648310612635576064838161262b5761262a6138d8565b5b0492506002810190505b600a8310612644576001810190505b80915050919050565b612658838383612711565b61270c57600073ffffffffffffffffffffffffffffffffffffffff168373ffffffffffffffffffffffffffffffffffffffff16036126cd57806040517f7e2732890000000000000000000000000000000000000000000000000000000081526004016126c49190612e14565b60405180910390fd5b81816040517f177e802f000000000000000000000000000000000000000000000000000000008152600401612703929190613907565b60405180910390fd5b505050565b60008073ffffffffffffffffffffffffffffffffffffffff168373ffffffffffffffffffffffffffffffffffffffff16141580156127c957508273ffffffffffffffffffffffffffffffffffffffff168473ffffffffffffffffffffffffffffffffffffffff16148061278a575061278984846116e6565b5b806127c857508273ffffffffffffffffffffffffffffffffffffffff166127b0836118f2565b73ffffffffffffffffffffffffffffffffffffffff16145b5b90509392505050565b5080546127de90613091565b6000825580601f106127f0575061280f565b601f01602090049060005260206000209081019061280e9190612812565b5b50565b5b8082111561282b576000816000905550600101612813565b5090565b6000604051905090565b600080fd5b600080fd5b60007fffffffff0000000000000000000000000000000000000000000000000000000082169050919050565b61287881612843565b811461288357600080fd5b50565b6000813590506128958161286f565b92915050565b6000602082840312156128b1576128b0612839565b5b60006128bf84828501612886565b91505092915050565b60008115159050919050565b6128dd816128c8565b82525050565b60006020820190506128f860008301846128d4565b92915050565b600081519050919050565b600082825260208201905092915050565b60005b8381101561293857808201518184015260208101905061291d565b60008484015250505050565b6000601f19601f8301169050919050565b6000612960826128fe565b61296a8185612909565b935061297a81856020860161291a565b61298381612944565b840191505092915050565b600060208201905081810360008301526129a88184612955565b905092915050565b6000819050919050565b6129c3816129b0565b81146129ce57600080fd5b50565b6000813590506129e0816129ba565b92915050565b6000602082840312156129fc576129fb612839565b5b6000612a0a848285016129d1565b91505092915050565b600073ffffffffffffffffffffffffffffffffffffffff82169050919050565b6000612a3e82612a13565b9050919050565b612a4e81612a33565b82525050565b6000602082019050612a696000830184612a45565b92915050565b612a7881612a33565b8114612a8357600080fd5b50565b600081359050612a9581612a6f565b92915050565b60008060408385031215612ab257612ab1612839565b5b6000612ac085828601612a86565b9250506020612ad1858286016129d1565b9150509250929050565b6000819050919050565b612aee81612adb565b8114612af957600080fd5b50565b600081359050612b0b81612ae5565b92915050565b600080600060608486031215612b2a57612b29612839565b5b6000612b3886828701612afc565b9350506020612b49868287016129d1565b9250506040612b5a86828701612a86565b9150509250925092565b600067ffffffffffffffff82169050919050565b612b8181612b64565b82525050565b6000602082019050612b9c6000830184612b78565b92915050565b600080600060608486031215612bbb57612bba612839565b5b6000612bc986828701612a86565b9350506020612bda86828701612a86565b9250506040612beb868287016129d1565b9150509250925092565b612bfe81612b64565b8114612c0957600080fd5b50565b600081359050612c1b81612bf5565b92915050565b612c2a816128c8565b8114612c3557600080fd5b50565b600081359050612c4781612c21565b92915050565b600080fd5b600080fd5b600080fd5b60008083601f840112612c7257612c71612c4d565b5b8235905067ffffffffffffffff811115612c8f57612c8e612c52565b5b602083019150836001820283011115612cab57612caa612c57565b5b9250929050565b600080600080600080600060c0888a031215612cd157612cd0612839565b5b6000612cdf8a828b01612afc565b9750506020612cf08a828b016129d1565b9650506040612d018a828b01612a86565b9550506060612d128a828b01612c0c565b9450506080612d238a828b01612c38565b93505060a088013567ffffffffffffffff811115612d4457612d4361283e565b5b612d508a828b01612c5c565b925092505092959891949750929550565b600081519050919050565b600082825260208201905092915050565b6000612d8882612d61565b612d928185612d6c565b9350612da281856020860161291a565b612dab81612944565b840191505092915050565b60006020820190508181036000830152612dd08184612d7d565b905092915050565b600060208284031215612dee57612ded612839565b5b6000612dfc84828501612a86565b91505092915050565b612e0e816129b0565b82525050565b6000602082019050612e296000830184612e05565b92915050565b60008060408385031215612e4657612e45612839565b5b6000612e5485828601612a86565b9250506020612e6585828601612c38565b9150509250929050565b600080fd5b7f4e487b7100000000000000000000000000000000000000000000000000000000600052604160045260246000fd5b612eac82612944565b810181811067ffffffffffffffff82111715612ecb57612eca612e74565b5b80604052505050565b6000612ede61282f565b9050612eea8282612ea3565b919050565b600067ffffffffffffffff821115612f0a57612f09612e74565b5b612f1382612944565b9050602081019050919050565b82818337600083830152505050565b6000612f42612f3d84612eef565b612ed4565b905082815260208101848484011115612f5e57612f5d612e6f565b5b612f69848285612f20565b509392505050565b600082601f830112612f8657612f85612c4d565b5b8135612f96848260208601612f2f565b91505092915050565b60008060008060808587031215612fb957612fb8612839565b5b6000612fc787828801612a86565b9450506020612fd887828801612a86565b9350506040612fe9878288016129d1565b925050606085013567ffffffffffffffff81111561300a5761300961283e565b5b61301687828801612f71565b91505092959194509250565b6000806040838503121561303957613038612839565b5b600061304785828601612a86565b925050602061305885828601612a86565b9150509250929050565b7f4e487b7100000000000000000000000000000000000000000000000000000000600052602260045260246000fd5b600060028204905060018216806130a957607f821691505b6020821081036130bc576130bb613062565b5b50919050565b60006060820190506130d76000830186612a45565b6130e46020830185612e05565b6130f16040830184612a45565b949350505050565b7f546f6b656e20646f6573206e6f74206578697374000000000000000000000000600082015250565b600061312f601483612909565b915061313a826130f9565b602082019050919050565b6000602082019050818103600083015261315e81613122565b9050919050565b7f43616e6e6f74206772616e7420726f6c6520746f207a65726f2061646472657360008201527f7300000000000000000000000000000000000000000000000000000000000000602082015250565b60006131c1602183612909565b91506131cc82613165565b604082019050919050565b600060208201905081810360008301526131f0816131b4565b9050919050565b7f45787069726174696f6e2064617465206d75737420626520696e20746865206660008201527f7574757265000000000000000000000000000000000000000000000000000000602082015250565b6000613253602583612909565b915061325e826131f7565b604082019050919050565b6000602082019050818103600083015261328281613246565b9050919050565b7f4e6f7420617574686f72697a6564000000000000000000000000000000000000600082015250565b60006132bf600e83612909565b91506132ca82613289565b602082019050919050565b600060208201905081810360008301526132ee816132b2565b9050919050565b7f43616e206f6e6c79206772616e7420726f6c6520746f20746f6b656e206f776e60008201527f6572000000000000000000000000000000000000000000000000000000000000602082015250565b6000613351602283612909565b915061335c826132f5565b604082019050919050565b6000602082019050818103600083015261338081613344565b9050919050565b60008190508160005260206000209050919050565b60006020601f8301049050919050565b600082821b905092915050565b6000600883026133e97fffffffffffffffffffffffffffffffffffffffffffffffffffffffffffffffff826133ac565b6133f386836133ac565b95508019841693508086168417925050509392505050565b6000819050919050565b600061343061342b613426846129b0565b61340b565b6129b0565b9050919050565b6000819050919050565b61344a83613415565b61345e61345682613437565b8484546133b9565b825550505050565b600090565b613473613466565b61347e818484613441565b505050565b5b818110156134a25761349760008261346b565b600181019050613484565b5050565b601f8211156134e7576134b881613387565b6134c18461339c565b810160208510156134d0578190505b6134e46134dc8561339c565b830182613483565b50505b505050565b600082821c905092915050565b600061350a600019846008026134ec565b1980831691505092915050565b600061352383836134f9565b9150826002028217905092915050565b61353c82612d61565b67ffffffffffffffff81111561355557613554612e74565b5b61355f8254613091565b61356a8282856134a6565b600060209050601f83116001811461359d576000841561358b578287015190505b6135958582613517565b8655506135fd565b601f1984166135ab86613387565b60005b828110156135d3578489015182556001820191506020850194506020810190506135ae565b868310156135f057848901516135ec601f8916826134f9565b8355505b6001600288020188555050505b505050505050565b60006136118385612d6c565b935061361e838584612f20565b61362783612944565b840190509392505050565b60006060820190506136476000830187612b78565b61365460208301866128d4565b8181036040830152613667818486613605565b905095945050505050565b7f4e487b7100000000000000000000000000000000000000000000000000000000600052601160045260246000fd5b60006136ac826129b0565b91507fffffffffffffffffffffffffffffffffffffffffffffffffffffffffffffffff82036136de576136dd613672565b5b600182019050919050565b60006040820190506136fe6000830185612e05565b61370b6020830184612a45565b9392505050565b7f526f6c6520646f6573206e6f7420657869737400000000000000000000000000600082015250565b6000613748601383612909565b915061375382613712565b602082019050919050565b600060208201905081810360008301526137778161373b565b9050919050565b7f4e6f7420617574686f72697a656420746f207265766f6b650000000000000000600082015250565b60006137b4601883612909565b91506137bf8261377e565b602082019050919050565b600060208201905081810360008301526137e3816137a7565b9050919050565b600081905092915050565b6000613800826128fe565b61380a81856137ea565b935061381a81856020860161291a565b80840191505092915050565b600061383282856137f5565b915061383e82846137f5565b91508190509392505050565b600060808201905061385f6000830187612a45565b61386c6020830186612a45565b6138796040830185612e05565b818103606083015261388b8184612d7d565b905095945050505050565b6000815190506138a58161286f565b92915050565b6000602082840312156138c1576138c0612839565b5b60006138cf84828501613896565b91505092915050565b7f4e487b7100000000000000000000000000000000000000000000000000000000600052601260045260246000fd5b600060408201905061391c6000830185612a45565b6139296020830184612e05565b939250505056fea2646970667358221220f7c36f9d2239eebdfdb2118b8f9e1b0bcae79ea25443ebcd57b8e0f562345f2064736f6c63430008140033",
  "linkReferences": {},
  "deployedLinkReferences": {}
}