{"contracts/StudentData.sol":{"StudentData":{"abi":[{"inputs":[{"internalType":"uint256","name":"_id","type":"uint256"}],"name":"delete_student","outputs":[],"stateMutability":"nonpayable","type":"function"},{"inputs":[],"name":"get_all_student","outputs":[{"components":[{"internalType":"uint256","name":"id","type":"uint256"},{"internalType":"string","name":"name","type":"string"},{"internalType":"uint256","name":"age","type":"uint256"},{"internalType":"string","name":"course","type":"string"},{"internalType":"enum StudentData.Status","name":"status","type":"uint8"}],"internalType":"struct StudentData.StudentRecord[]","name":"","type":"tuple[]"}],"stateMutability":"view","type":"function"},{"inputs":[{"internalType":"uint256","name":"_id","type":"uint256"}],"name":"get_each_student","outputs":[{"components":[{"internalType":"uint256","name":"id","type":"uint256"},{"internalType":"string","name":"name","type":"string"},{"internalType":"uint256","name":"age","type":"uint256"},{"internalType":"string","name":"course","type":"string"},{"internalType":"enum StudentData.Status","name":"status","type":"uint8"}],"internalType":"struct StudentData.StudentRecord","name":"","type":"tuple"}],"stateMutability":"view","type":"function"},{"inputs":[{"internalType":"string","name":"_name","type":"string"},{"internalType":"uint256","name":"_age","type":"uint256"},{"internalType":"string","name":"_course","type":"string"}],"name":"register_new_student","outputs":[],"stateMutability":"nonpayable","type":"function"},{"inputs":[{"internalType":"uint256","name":"","type":"uint256"}],"name":"students","outputs":[{"internalType":"uint256","name":"id","type":"uint256"},{"internalType":"string","name":"name","type":"string"},{"internalType":"uint256","name":"age","type":"uint256"},{"internalType":"string","name":"course","type":"string"},{"internalType":"enum StudentData.Status","name":"status","type":"uint8"}],"stateMutability":"view","type":"function"},{"inputs":[],"name":"uniqueId","outputs":[{"internalType":"uint256","name":"","type":"uint256"}],"stateMutability":"view","type":"function"},{"inputs":[{"internalType":"uint256","name":"_id","type":"uint256"},{"internalType":"string","name":"_new_name","type":"string"},{"internalType":"uint256","name":"_new_age","type":"uint256"},{"internalType":"string","name":"_new_course","type":"string"}],"name":"update_student","outputs":[],"stateMutability":"nonpayable","type":"function"},{"inputs":[{"internalType":"uint256","name":"_id","type":"uint256"},{"internalType":"enum StudentData.Status","name":"_new_status","type":"uint8"}],"name":"update_student_status","outputs":[],"stateMutability":"nonpayable","type":"function"}],"evm":{"bytecode":{"linkReferences":{},"object":"6080604052348015600f57600080fd5b506116e08061001f6000396000f3fe608060405234801561001057600080fd5b50600436106100885760003560e01c8063629c52a91161005b578063629c52a91461011557806380bedd1814610133578063d87428cb1461014f578063fe13a56c1461017f57610088565b806306ead22e1461008d5780633f09a538146100c1578063472b15e2146100dd578063540f7853146100f9575b600080fd5b6100a760048036038101906100a29190610b63565b61019d565b6040516100b8959493929190610ca6565b60405180910390f35b6100db60048036038101906100d69190610b63565b610300565b005b6100f760048036038101906100f29190610d2c565b6103c1565b005b610113600480360381019061010e9190610ea1565b610467565b005b61011d610563565b60405161012a9190610f2c565b60405180910390f35b61014d60048036038101906101489190610f47565b610569565b005b61016960048036038101906101649190610b63565b610654565b60405161017691906110cb565b60405180910390f35b610187610811565b604051610194919061122c565b60405180910390f35b600081815481106101ad57600080fd5b90600052602060002090600502016000915090508060000154908060010180546101d69061127d565b80601f01602080910402602001604051908101604052809291908181526020018280546102029061127d565b801561024f5780601f106102245761010080835404028352916020019161024f565b820191906000526020600020905b81548152906001019060200180831161023257829003601f168201915b50505050509080600201549080600301805461026a9061127d565b80601f01602080910402602001604051908101604052809291908181526020018280546102969061127d565b80156102e35780601f106102b8576101008083540402835291602001916102e3565b820191906000526020600020905b8154815290600101906020018083116102c657829003601f168201915b5050505050908060040160009054906101000a900460ff16905085565b6000805490508110610347576040517f08c379a000000000000000000000000000000000000000000000000000000000815260040161033e906112fa565b60405180910390fd5b6000610352826109e3565b9050600081815481106103685761036761131a565b5b906000526020600020906005020160008082016000905560018201600061038f9190610a7b565b60028201600090556003820160006103a79190610a7b565b6004820160006101000a81549060ff021916905550505050565b6000808054905011610408576040517f08c379a00000000000000000000000000000000000000000000000000000000081526004016103ff90611395565b60405180910390fd5b6000610413836109e3565b9050816000828154811061042a5761042961131a565b5b906000526020600020906005020160040160006101000a81548160ff0219169083600281111561045d5761045c610c2f565b5b0217905550505050565b60006040518060a001604052806001548152602001858152602001848152602001838152602001600060028111156104a2576104a1610c2f565b5b815250905060008190806001815401808255809150506001900390600052602060002090600502016000909190919091506000820151816000015560208201518160010190816104f29190611561565b506040820151816002015560608201518160030190816105129190611561565b5060808201518160040160006101000a81548160ff0219169083600281111561053e5761053d610c2f565b5b021790555050506001600081548092919061055890611662565b919050555050505050565b60015481565b60008054905084106105b0576040517f08c379a00000000000000000000000000000000000000000000000000000000081526004016105a7906112fa565b60405180910390fd5b60006105bb856109e3565b905083600082815481106105d2576105d161131a565b5b906000526020600020906005020160010190816105ef9190611561565b5082600082815481106106055761060461131a565b5b906000526020600020906005020160020181905550816000828154811061062f5761062e61131a565b5b9060005260206000209060050201600301908161064c9190611561565b505050505050565b61065c610abb565b6000610667836109e3565b90506000818154811061067d5761067c61131a565b5b90600052602060002090600502016040518060a0016040529081600082015481526020016001820180546106b09061127d565b80601f01602080910402602001604051908101604052809291908181526020018280546106dc9061127d565b80156107295780601f106106fe57610100808354040283529160200191610729565b820191906000526020600020905b81548152906001019060200180831161070c57829003601f168201915b505050505081526020016002820154815260200160038201805461074c9061127d565b80601f01602080910402602001604051908101604052809291908181526020018280546107789061127d565b80156107c55780601f1061079a576101008083540402835291602001916107c5565b820191906000526020600020905b8154815290600101906020018083116107a857829003601f168201915b505050505081526020016004820160009054906101000a900460ff1660028111156107f3576107f2610c2f565b5b600281111561080557610804610c2f565b5b81525050915050919050565b60606000805480602002602001604051908101604052809291908181526020016000905b828210156109da57838290600052602060002090600502016040518060a0016040529081600082015481526020016001820180546108729061127d565b80601f016020809104026020016040519081016040528092919081815260200182805461089e9061127d565b80156108eb5780601f106108c0576101008083540402835291602001916108eb565b820191906000526020600020905b8154815290600101906020018083116108ce57829003601f168201915b505050505081526020016002820154815260200160038201805461090e9061127d565b80601f016020809104026020016040519081016040528092919081815260200182805461093a9061127d565b80156109875780601f1061095c57610100808354040283529160200191610987565b820191906000526020600020905b81548152906001019060200180831161096a57829003601f168201915b505050505081526020016004820160009054906101000a900460ff1660028111156109b5576109b4610c2f565b5b60028111156109c7576109c6610c2f565b5b8152505081526020019060010190610835565b50505050905090565b600080600090505b600080549050811015610a3a578260008281548110610a0d57610a0c61131a565b5b90600052602060002090600502016000015403610a2d5780915050610a76565b80806001019150506109eb565b506040517f08c379a0000000000000000000000000000000000000000000000000000000008152600401610a6d906112fa565b60405180910390fd5b919050565b508054610a879061127d565b6000825580601f10610a995750610ab8565b601f016020900490600052602060002090810190610ab79190610afc565b5b50565b6040518060a001604052806000815260200160608152602001600081526020016060815260200160006002811115610af657610af5610c2f565b5b81525090565b5b80821115610b15576000816000905550600101610afd565b5090565b6000604051905090565b600080fd5b600080fd5b6000819050919050565b610b4081610b2d565b8114610b4b57600080fd5b50565b600081359050610b5d81610b37565b92915050565b600060208284031215610b7957610b78610b23565b5b6000610b8784828501610b4e565b91505092915050565b610b9981610b2d565b82525050565b600081519050919050565b600082825260208201905092915050565b60005b83811015610bd9578082015181840152602081019050610bbe565b60008484015250505050565b6000601f19601f8301169050919050565b6000610c0182610b9f565b610c0b8185610baa565b9350610c1b818560208601610bbb565b610c2481610be5565b840191505092915050565b7f4e487b7100000000000000000000000000000000000000000000000000000000600052602160045260246000fd5b60038110610c6f57610c6e610c2f565b5b50565b6000819050610c8082610c5e565b919050565b6000610c9082610c72565b9050919050565b610ca081610c85565b82525050565b600060a082019050610cbb6000830188610b90565b8181036020830152610ccd8187610bf6565b9050610cdc6040830186610b90565b8181036060830152610cee8185610bf6565b9050610cfd6080830184610c97565b9695505050505050565b60038110610d1457600080fd5b50565b600081359050610d2681610d07565b92915050565b60008060408385031215610d4357610d42610b23565b5b6000610d5185828601610b4e565b9250506020610d6285828601610d17565b9150509250929050565b600080fd5b600080fd5b7f4e487b7100000000000000000000000000000000000000000000000000000000600052604160045260246000fd5b610dae82610be5565b810181811067ffffffffffffffff82111715610dcd57610dcc610d76565b5b80604052505050565b6000610de0610b19565b9050610dec8282610da5565b919050565b600067ffffffffffffffff821115610e0c57610e0b610d76565b5b610e1582610be5565b9050602081019050919050565b82818337600083830152505050565b6000610e44610e3f84610df1565b610dd6565b905082815260208101848484011115610e6057610e5f610d71565b5b610e6b848285610e22565b509392505050565b600082601f830112610e8857610e87610d6c565b5b8135610e98848260208601610e31565b91505092915050565b600080600060608486031215610eba57610eb9610b23565b5b600084013567ffffffffffffffff811115610ed857610ed7610b28565b5b610ee486828701610e73565b9350506020610ef586828701610b4e565b925050604084013567ffffffffffffffff811115610f1657610f15610b28565b5b610f2286828701610e73565b9150509250925092565b6000602082019050610f416000830184610b90565b92915050565b60008060008060808587031215610f6157610f60610b23565b5b6000610f6f87828801610b4e565b945050602085013567ffffffffffffffff811115610f9057610f8f610b28565b5b610f9c87828801610e73565b9350506040610fad87828801610b4e565b925050606085013567ffffffffffffffff811115610fce57610fcd610b28565b5b610fda87828801610e73565b91505092959194509250565b610fef81610b2d565b82525050565b600082825260208201905092915050565b600061101182610b9f565b61101b8185610ff5565b935061102b818560208601610bbb565b61103481610be5565b840191505092915050565b61104881610c85565b82525050565b600060a0830160008301516110666000860182610fe6565b506020830151848203602086015261107e8282611006565b91505060408301516110936040860182610fe6565b50606083015184820360608601526110ab8282611006565b91505060808301516110c0608086018261103f565b508091505092915050565b600060208201905081810360008301526110e5818461104e565b905092915050565b600081519050919050565b600082825260208201905092915050565b6000819050602082019050919050565b600060a0830160008301516111316000860182610fe6565b50602083015184820360208601526111498282611006565b915050604083015161115e6040860182610fe6565b50606083015184820360608601526111768282611006565b915050608083015161118b608086018261103f565b508091505092915050565b60006111a28383611119565b905092915050565b6000602082019050919050565b60006111c2826110ed565b6111cc81856110f8565b9350836020820285016111de85611109565b8060005b8581101561121a57848403895281516111fb8582611196565b9450611206836111aa565b925060208a019950506001810190506111e2565b50829750879550505050505092915050565b6000602082019050818103600083015261124681846111b7565b905092915050565b7f4e487b7100000000000000000000000000000000000000000000000000000000600052602260045260246000fd5b6000600282049050600182168061129557607f821691505b6020821081036112a8576112a761124e565b5b50919050565b7f53747564656e7420646f65736e27742065786973740000000000000000000000600082015250565b60006112e4601583610baa565b91506112ef826112ae565b602082019050919050565b60006020820190508181036000830152611313816112d7565b9050919050565b7f4e487b7100000000000000000000000000000000000000000000000000000000600052603260045260246000fd5b7f4e6f2073747564656e7420696e20746865206c69737400000000000000000000600082015250565b600061137f601683610baa565b915061138a82611349565b602082019050919050565b600060208201905081810360008301526113ae81611372565b9050919050565b60008190508160005260206000209050919050565b60006020601f8301049050919050565b600082821b905092915050565b6000600883026114177fffffffffffffffffffffffffffffffffffffffffffffffffffffffffffffffff826113da565b61142186836113da565b95508019841693508086168417925050509392505050565b6000819050919050565b600061145e61145961145484610b2d565b611439565b610b2d565b9050919050565b6000819050919050565b61147883611443565b61148c61148482611465565b8484546113e7565b825550505050565b600090565b6114a1611494565b6114ac81848461146f565b505050565b5b818110156114d0576114c5600082611499565b6001810190506114b2565b5050565b601f821115611515576114e6816113b5565b6114ef846113ca565b810160208510156114fe578190505b61151261150a856113ca565b8301826114b1565b50505b505050565b600082821c905092915050565b60006115386000198460080261151a565b1980831691505092915050565b60006115518383611527565b9150826002028217905092915050565b61156a82610b9f565b67ffffffffffffffff81111561158357611582610d76565b5b61158d825461127d565b6115988282856114d4565b600060209050601f8311600181146115cb57600084156115b9578287015190505b6115c38582611545565b86555061162b565b601f1984166115d9866113b5565b60005b82811015611601578489015182556001820191506020850194506020810190506115dc565b8683101561161e578489015161161a601f891682611527565b8355505b6001600288020188555050505b505050505050565b7f4e487b7100000000000000000000000000000000000000000000000000000000600052601160045260246000fd5b600061166d82610b2d565b91507fffffffffffffffffffffffffffffffffffffffffffffffffffffffffffffffff820361169f5761169e611633565b5b60018201905091905056fea2646970667358221220adfb5d563230669392ad168f3a14a2bb36a3c180f539bdb32e414c7e1000d7b664736f6c634300081c0033","opcodes":"PUSH1 0x80 PUSH1 0x40 MSTORE CALLVALUE DUP1 ISZERO PUSH1 0xF JUMPI PUSH1 0x0 DUP1 REVERT JUMPDEST POP PUSH2 0x16E0 DUP1 PUSH2 0x1F PUSH1 0x0 CODECOPY PUSH1 0x0 RETURN INVALID PUSH1 0x80 PUSH1 0x40 MSTORE CALLVALUE DUP1 ISZERO PUSH2 0x10 JUMPI PUSH1 0x0 DUP1 REVERT JUMPDEST POP PUSH1 0x4 CALLDATASIZE LT PUSH2 0x88 JUMPI PUSH1 0x0 CALLDATALOAD PUSH1 0xE0 SHR DUP1 PUSH4 0x629C52A9 GT PUSH2 0x5B JUMPI DUP1 PUSH4 0x629C52A9 EQ PUSH2 0x115 JUMPI DUP1 PUSH4 0x80BEDD18 EQ PUSH2 0x133 JUMPI DUP1 PUSH4 0xD87428CB EQ PUSH2 0x14F JUMPI DUP1 PUSH4 0xFE13A56C EQ PUSH2 0x17F JUMPI PUSH2 0x88 JUMP JUMPDEST DUP1 PUSH4 0x6EAD22E EQ PUSH2 0x8D JUMPI DUP1 PUSH4 0x3F09A538 EQ PUSH2 0xC1 JUMPI DUP1 PUSH4 0x472B15E2 EQ PUSH2 0xDD JUMPI DUP1 PUSH4 0x540F7853 EQ PUSH2 0xF9 JUMPI JUMPDEST PUSH1 0x0 DUP1 REVERT JUMPDEST PUSH2 0xA7 PUSH1 0x4 DUP1 CALLDATASIZE SUB DUP2 ADD SWAP1 PUSH2 0xA2 SWAP2 SWAP1 PUSH2 0xB63 JUMP JUMPDEST PUSH2 0x19D JUMP JUMPDEST PUSH1 0x40 MLOAD PUSH2 0xB8 SWAP6 SWAP5 SWAP4 SWAP3 SWAP2 SWAP1 PUSH2 0xCA6 JUMP JUMPDEST PUSH1 0x40 MLOAD DUP1 SWAP2 SUB SWAP1 RETURN JUMPDEST PUSH2 0xDB PUSH1 0x4 DUP1 CALLDATASIZE SUB DUP2 ADD SWAP1 PUSH2 0xD6 SWAP2 SWAP1 PUSH2 0xB63 JUMP JUMPDEST PUSH2 0x300 JUMP JUMPDEST STOP JUMPDEST PUSH2 0xF7 PUSH1 0x4 DUP1 CALLDATASIZE SUB DUP2 ADD SWAP1 PUSH2 0xF2 SWAP2 SWAP1 PUSH2 0xD2C JUMP JUMPDEST PUSH2 0x3C1 JUMP JUMPDEST STOP JUMPDEST PUSH2 0x113 PUSH1 0x4 DUP1 CALLDATASIZE SUB DUP2 ADD SWAP1 PUSH2 0x10E SWAP2 SWAP1 PUSH2 0xEA1 JUMP JUMPDEST PUSH2 0x467 JUMP JUMPDEST STOP JUMPDEST PUSH2 0x11D PUSH2 0x563 JUMP JUMPDEST PUSH1 0x40 MLOAD PUSH2 0x12A SWAP2 SWAP1 PUSH2 0xF2C JUMP JUMPDEST PUSH1 0x40 MLOAD DUP1 SWAP2 SUB SWAP1 RETURN JUMPDEST PUSH2 0x14D PUSH1 0x4 DUP1 CALLDATASIZE SUB DUP2 ADD SWAP1 PUSH2 0x148 SWAP2 SWAP1 PUSH2 0xF47 JUMP JUMPDEST PUSH2 0x569 JUMP JUMPDEST STOP JUMPDEST PUSH2 0x169 PUSH1 0x4 DUP1 CALLDATASIZE SUB DUP2 ADD SWAP1 PUSH2 0x164 SWAP2 SWAP1 PUSH2 0xB63 JUMP JUMPDEST PUSH2 0x654 JUMP JUMPDEST PUSH1 0x40 MLOAD PUSH2 0x176 SWAP2 SWAP1 PUSH2 0x10CB JUMP JUMPDEST PUSH1 0x40 MLOAD DUP1 SWAP2 SUB SWAP1 RETURN JUMPDEST PUSH2 0x187 PUSH2 0x811 JUMP JUMPDEST PUSH1 0x40 MLOAD PUSH2 0x194 SWAP2 SWAP1 PUSH2 0x122C JUMP JUMPDEST PUSH1 0x40 MLOAD DUP1 SWAP2 SUB SWAP1 RETURN JUMPDEST PUSH1 0x0 DUP2 DUP2 SLOAD DUP2 LT PUSH2 0x1AD JUMPI PUSH1 0x0 DUP1 REVERT JUMPDEST SWAP1 PUSH1 0x0 MSTORE PUSH1 0x20 PUSH1 0x0 KECCAK256 SWAP1 PUSH1 0x5 MUL ADD PUSH1 0x0 SWAP2 POP SWAP1 POP DUP1 PUSH1 0x0 ADD SLOAD SWAP1 DUP1 PUSH1 0x1 ADD DUP1 SLOAD PUSH2 0x1D6 SWAP1 PUSH2 0x127D JUMP JUMPDEST DUP1 PUSH1 0x1F ADD PUSH1 0x20 DUP1 SWAP2 DIV MUL PUSH1 0x20 ADD PUSH1 0x40 MLOAD SWAP1 DUP2 ADD PUSH1 0x40 MSTORE DUP1 SWAP3 SWAP2 SWAP1 DUP2 DUP2 MSTORE PUSH1 0x20 ADD DUP3 DUP1 SLOAD PUSH2 0x202 SWAP1 PUSH2 0x127D JUMP JUMPDEST DUP1 ISZERO PUSH2 0x24F JUMPI DUP1 PUSH1 0x1F LT PUSH2 0x224 JUMPI PUSH2 0x100 DUP1 DUP4 SLOAD DIV MUL DUP4 MSTORE SWAP2 PUSH1 0x20 ADD SWAP2 PUSH2 0x24F JUMP JUMPDEST DUP3 ADD SWAP2 SWAP1 PUSH1 0x0 MSTORE PUSH1 0x20 PUSH1 0x0 KECCAK256 SWAP1 JUMPDEST DUP2 SLOAD DUP2 MSTORE SWAP1 PUSH1 0x1 ADD SWAP1 PUSH1 0x20 ADD DUP1 DUP4 GT PUSH2 0x232 JUMPI DUP3 SWAP1 SUB PUSH1 0x1F AND DUP3 ADD SWAP2 JUMPDEST POP POP POP POP POP SWAP1 DUP1 PUSH1 0x2 ADD SLOAD SWAP1 DUP1 PUSH1 0x3 ADD DUP1 SLOAD PUSH2 0x26A SWAP1 PUSH2 0x127D JUMP JUMPDEST DUP1 PUSH1 0x1F ADD PUSH1 0x20 DUP1 SWAP2 DIV MUL PUSH1 0x20 ADD PUSH1 0x40 MLOAD SWAP1 DUP2 ADD PUSH1 0x40 MSTORE DUP1 SWAP3 SWAP2 SWAP1 DUP2 DUP2 MSTORE PUSH1 0x20 ADD DUP3 DUP1 SLOAD PUSH2 0x296 SWAP1 PUSH2 0x127D JUMP JUMPDEST DUP1 ISZERO PUSH2 0x2E3 JUMPI DUP1 PUSH1 0x1F LT PUSH2 0x2B8 JUMPI PUSH2 0x100 DUP1 DUP4 SLOAD DIV MUL DUP4 MSTORE SWAP2 PUSH1 0x20 ADD SWAP2 PUSH2 0x2E3 JUMP JUMPDEST DUP3 ADD SWAP2 SWAP1 PUSH1 0x0 MSTORE PUSH1 0x20 PUSH1 0x0 KECCAK256 SWAP1 JUMPDEST DUP2 SLOAD DUP2 MSTORE SWAP1 PUSH1 0x1 ADD SWAP1 PUSH1 0x20 ADD DUP1 DUP4 GT PUSH2 0x2C6 JUMPI DUP3 SWAP1 SUB PUSH1 0x1F AND DUP3 ADD SWAP2 JUMPDEST POP POP POP POP POP SWAP1 DUP1 PUSH1 0x4 ADD PUSH1 0x0 SWAP1 SLOAD SWAP1 PUSH2 0x100 EXP SWAP1 DIV PUSH1 0xFF AND SWAP1 POP DUP6 JUMP JUMPDEST PUSH1 0x0 DUP1 SLOAD SWAP1 POP DUP2 LT PUSH2 0x347 JUMPI PUSH1 0x40 MLOAD PUSH32 0x8C379A000000000000000000000000000000000000000000000000000000000 DUP2 MSTORE PUSH1 0x4 ADD PUSH2 0x33E SWAP1 PUSH2 0x12FA JUMP JUMPDEST PUSH1 0x40 MLOAD DUP1 SWAP2 SUB SWAP1 REVERT JUMPDEST PUSH1 0x0 PUSH2 0x352 DUP3 PUSH2 0x9E3 JUMP JUMPDEST SWAP1 POP PUSH1 0x0 DUP2 DUP2 SLOAD DUP2 LT PUSH2 0x368 JUMPI PUSH2 0x367 PUSH2 0x131A JUMP JUMPDEST JUMPDEST SWAP1 PUSH1 0x0 MSTORE PUSH1 0x20 PUSH1 0x0 KECCAK256 SWAP1 PUSH1 0x5 MUL ADD PUSH1 0x0 DUP1 DUP3 ADD PUSH1 0x0 SWAP1 SSTORE PUSH1 0x1 DUP3 ADD PUSH1 0x0 PUSH2 0x38F SWAP2 SWAP1 PUSH2 0xA7B JUMP JUMPDEST PUSH1 0x2 DUP3 ADD PUSH1 0x0 SWAP1 SSTORE PUSH1 0x3 DUP3 ADD PUSH1 0x0 PUSH2 0x3A7 SWAP2 SWAP1 PUSH2 0xA7B JUMP JUMPDEST PUSH1 0x4 DUP3 ADD PUSH1 0x0 PUSH2 0x100 EXP DUP2 SLOAD SWAP1 PUSH1 0xFF MUL NOT AND SWAP1 SSTORE POP POP POP POP JUMP JUMPDEST PUSH1 0x0 DUP1 DUP1 SLOAD SWAP1 POP GT PUSH2 0x408 JUMPI PUSH1 0x40 MLOAD PUSH32 0x8C379A000000000000000000000000000000000000000000000000000000000 DUP2 MSTORE PUSH1 0x4 ADD PUSH2 0x3FF SWAP1 PUSH2 0x1395 JUMP JUMPDEST PUSH1 0x40 MLOAD DUP1 SWAP2 SUB SWAP1 REVERT JUMPDEST PUSH1 0x0 PUSH2 0x413 DUP4 PUSH2 0x9E3 JUMP JUMPDEST SWAP1 POP DUP2 PUSH1 0x0 DUP3 DUP2 SLOAD DUP2 LT PUSH2 0x42A JUMPI PUSH2 0x429 PUSH2 0x131A JUMP JUMPDEST JUMPDEST SWAP1 PUSH1 0x0 MSTORE PUSH1 0x20 PUSH1 0x0 KECCAK256 SWAP1 PUSH1 0x5 MUL ADD PUSH1 0x4 ADD PUSH1 0x0 PUSH2 0x100 EXP DUP2 SLOAD DUP2 PUSH1 0xFF MUL NOT AND SWAP1 DUP4 PUSH1 0x2 DUP2 GT ISZERO PUSH2 0x45D JUMPI PUSH2 0x45C PUSH2 0xC2F JUMP JUMPDEST JUMPDEST MUL OR SWAP1 SSTORE POP POP POP POP JUMP JUMPDEST PUSH1 0x0 PUSH1 0x40 MLOAD DUP1 PUSH1 0xA0 ADD PUSH1 0x40 MSTORE DUP1 PUSH1 0x1 SLOAD DUP2 MSTORE PUSH1 0x20 ADD DUP6 DUP2 MSTORE PUSH1 0x20 ADD DUP5 DUP2 MSTORE PUSH1 0x20 ADD DUP4 DUP2 MSTORE PUSH1 0x20 ADD PUSH1 0x0 PUSH1 0x2 DUP2 GT ISZERO PUSH2 0x4A2 JUMPI PUSH2 0x4A1 PUSH2 0xC2F JUMP JUMPDEST JUMPDEST DUP2 MSTORE POP SWAP1 POP PUSH1 0x0 DUP2 SWAP1 DUP1 PUSH1 0x1 DUP2 SLOAD ADD DUP1 DUP3 SSTORE DUP1 SWAP2 POP POP PUSH1 0x1 SWAP1 SUB SWAP1 PUSH1 0x0 MSTORE PUSH1 0x20 PUSH1 0x0 KECCAK256 SWAP1 PUSH1 0x5 MUL ADD PUSH1 0x0 SWAP1 SWAP2 SWAP1 SWAP2 SWAP1 SWAP2 POP PUSH1 0x0 DUP3 ADD MLOAD DUP2 PUSH1 0x0 ADD SSTORE PUSH1 0x20 DUP3 ADD MLOAD DUP2 PUSH1 0x1 ADD SWAP1 DUP2 PUSH2 0x4F2 SWAP2 SWAP1 PUSH2 0x1561 JUMP JUMPDEST POP PUSH1 0x40 DUP3 ADD MLOAD DUP2 PUSH1 0x2 ADD SSTORE PUSH1 0x60 DUP3 ADD MLOAD DUP2 PUSH1 0x3 ADD SWAP1 DUP2 PUSH2 0x512 SWAP2 SWAP1 PUSH2 0x1561 JUMP JUMPDEST POP PUSH1 0x80 DUP3 ADD MLOAD DUP2 PUSH1 0x4 ADD PUSH1 0x0 PUSH2 0x100 EXP DUP2 SLOAD DUP2 PUSH1 0xFF MUL NOT AND SWAP1 DUP4 PUSH1 0x2 DUP2 GT ISZERO PUSH2 0x53E JUMPI PUSH2 0x53D PUSH2 0xC2F JUMP JUMPDEST JUMPDEST MUL OR SWAP1 SSTORE POP POP POP PUSH1 0x1 PUSH1 0x0 DUP2 SLOAD DUP1 SWAP3 SWAP2 SWAP1 PUSH2 0x558 SWAP1 PUSH2 0x1662 JUMP JUMPDEST SWAP2 SWAP1 POP SSTORE POP POP POP POP POP JUMP JUMPDEST PUSH1 0x1 SLOAD DUP2 JUMP JUMPDEST PUSH1 0x0 DUP1 SLOAD SWAP1 POP DUP5 LT PUSH2 0x5B0 JUMPI PUSH1 0x40 MLOAD PUSH32 0x8C379A000000000000000000000000000000000000000000000000000000000 DUP2 MSTORE PUSH1 0x4 ADD PUSH2 0x5A7 SWAP1 PUSH2 0x12FA JUMP JUMPDEST PUSH1 0x40 MLOAD DUP1 SWAP2 SUB SWAP1 REVERT JUMPDEST PUSH1 0x0 PUSH2 0x5BB DUP6 PUSH2 0x9E3 JUMP JUMPDEST SWAP1 POP DUP4 PUSH1 0x0 DUP3 DUP2 SLOAD DUP2 LT PUSH2 0x5D2 JUMPI PUSH2 0x5D1 PUSH2 0x131A JUMP JUMPDEST JUMPDEST SWAP1 PUSH1 0x0 MSTORE PUSH1 0x20 PUSH1 0x0 KECCAK256 SWAP1 PUSH1 0x5 MUL ADD PUSH1 0x1 ADD SWAP1 DUP2 PUSH2 0x5EF SWAP2 SWAP1 PUSH2 0x1561 JUMP JUMPDEST POP DUP3 PUSH1 0x0 DUP3 DUP2 SLOAD DUP2 LT PUSH2 0x605 JUMPI PUSH2 0x604 PUSH2 0x131A JUMP JUMPDEST JUMPDEST SWAP1 PUSH1 0x0 MSTORE PUSH1 0x20 PUSH1 0x0 KECCAK256 SWAP1 PUSH1 0x5 MUL ADD PUSH1 0x2 ADD DUP2 SWAP1 SSTORE POP DUP2 PUSH1 0x0 DUP3 DUP2 SLOAD DUP2 LT PUSH2 0x62F JUMPI PUSH2 0x62E PUSH2 0x131A JUMP JUMPDEST JUMPDEST SWAP1 PUSH1 0x0 MSTORE PUSH1 0x20 PUSH1 0x0 KECCAK256 SWAP1 PUSH1 0x5 MUL ADD PUSH1 0x3 ADD SWAP1 DUP2 PUSH2 0x64C SWAP2 SWAP1 PUSH2 0x1561 JUMP JUMPDEST POP POP POP POP POP POP JUMP JUMPDEST PUSH2 0x65C PUSH2 0xABB JUMP JUMPDEST PUSH1 0x0 PUSH2 0x667 DUP4 PUSH2 0x9E3 JUMP JUMPDEST SWAP1 POP PUSH1 0x0 DUP2 DUP2 SLOAD DUP2 LT PUSH2 0x67D JUMPI PUSH2 0x67C PUSH2 0x131A JUMP JUMPDEST JUMPDEST SWAP1 PUSH1 0x0 MSTORE PUSH1 0x20 PUSH1 0x0 KECCAK256 SWAP1 PUSH1 0x5 MUL ADD PUSH1 0x40 MLOAD DUP1 PUSH1 0xA0 ADD PUSH1 0x40 MSTORE SWAP1 DUP2 PUSH1 0x0 DUP3 ADD SLOAD DUP2 MSTORE PUSH1 0x20 ADD PUSH1 0x1 DUP3 ADD DUP1 SLOAD PUSH2 0x6B0 SWAP1 PUSH2 0x127D JUMP JUMPDEST DUP1 PUSH1 0x1F ADD PUSH1 0x20 DUP1 SWAP2 DIV MUL PUSH1 0x20 ADD PUSH1 0x40 MLOAD SWAP1 DUP2 ADD PUSH1 0x40 MSTORE DUP1 SWAP3 SWAP2 SWAP1 DUP2 DUP2 MSTORE PUSH1 0x20 ADD DUP3 DUP1 SLOAD PUSH2 0x6DC SWAP1 PUSH2 0x127D JUMP JUMPDEST DUP1 ISZERO PUSH2 0x729 JUMPI DUP1 PUSH1 0x1F LT PUSH2 0x6FE JUMPI PUSH2 0x100 DUP1 DUP4 SLOAD DIV MUL DUP4 MSTORE SWAP2 PUSH1 0x20 ADD SWAP2 PUSH2 0x729 JUMP JUMPDEST DUP3 ADD SWAP2 SWAP1 PUSH1 0x0 MSTORE PUSH1 0x20 PUSH1 0x0 KECCAK256 SWAP1 JUMPDEST DUP2 SLOAD DUP2 MSTORE SWAP1 PUSH1 0x1 ADD SWAP1 PUSH1 0x20 ADD DUP1 DUP4 GT PUSH2 0x70C JUMPI DUP3 SWAP1 SUB PUSH1 0x1F AND DUP3 ADD SWAP2 JUMPDEST POP POP POP POP POP DUP2 MSTORE PUSH1 0x20 ADD PUSH1 0x2 DUP3 ADD SLOAD DUP2 MSTORE PUSH1 0x20 ADD PUSH1 0x3 DUP3 ADD DUP1 SLOAD PUSH2 0x74C SWAP1 PUSH2 0x127D JUMP JUMPDEST DUP1 PUSH1 0x1F ADD PUSH1 0x20 DUP1 SWAP2 DIV MUL PUSH1 0x20 ADD PUSH1 0x40 MLOAD SWAP1 DUP2 ADD PUSH1 0x40 MSTORE DUP1 SWAP3 SWAP2 SWAP1 DUP2 DUP2 MSTORE PUSH1 0x20 ADD DUP3 DUP1 SLOAD PUSH2 0x778 SWAP1 PUSH2 0x127D JUMP JUMPDEST DUP1 ISZERO PUSH2 0x7C5 JUMPI DUP1 PUSH1 0x1F LT PUSH2 0x79A JUMPI PUSH2 0x100 DUP1 DUP4 SLOAD DIV MUL DUP4 MSTORE SWAP2 PUSH1 0x20 ADD SWAP2 PUSH2 0x7C5 JUMP JUMPDEST DUP3 ADD SWAP2 SWAP1 PUSH1 0x0 MSTORE PUSH1 0x20 PUSH1 0x0 KECCAK256 SWAP1 JUMPDEST DUP2 SLOAD DUP2 MSTORE SWAP1 PUSH1 0x1 ADD SWAP1 PUSH1 0x20 ADD DUP1 DUP4 GT PUSH2 0x7A8 JUMPI DUP3 SWAP1 SUB PUSH1 0x1F AND DUP3 ADD SWAP2 JUMPDEST POP POP POP POP POP DUP2 MSTORE PUSH1 0x20 ADD PUSH1 0x4 DUP3 ADD PUSH1 0x0 SWAP1 SLOAD SWAP1 PUSH2 0x100 EXP SWAP1 DIV PUSH1 0xFF AND PUSH1 0x2 DUP2 GT ISZERO PUSH2 0x7F3 JUMPI PUSH2 0x7F2 PUSH2 0xC2F JUMP JUMPDEST JUMPDEST PUSH1 0x2 DUP2 GT ISZERO PUSH2 0x805 JUMPI PUSH2 0x804 PUSH2 0xC2F JUMP JUMPDEST JUMPDEST DUP2 MSTORE POP POP SWAP2 POP POP SWAP2 SWAP1 POP JUMP JUMPDEST PUSH1 0x60 PUSH1 0x0 DUP1 SLOAD DUP1 PUSH1 0x20 MUL PUSH1 0x20 ADD PUSH1 0x40 MLOAD SWAP1 DUP2 ADD PUSH1 0x40 MSTORE DUP1 SWAP3 SWAP2 SWAP1 DUP2 DUP2 MSTORE PUSH1 0x20 ADD PUSH1 0x0 SWAP1 JUMPDEST DUP3 DUP3 LT ISZERO PUSH2 0x9DA JUMPI DUP4 DUP3 SWAP1 PUSH1 0x0 MSTORE PUSH1 0x20 PUSH1 0x0 KECCAK256 SWAP1 PUSH1 0x5 MUL ADD PUSH1 0x40 MLOAD DUP1 PUSH1 0xA0 ADD PUSH1 0x40 MSTORE SWAP1 DUP2 PUSH1 0x0 DUP3 ADD SLOAD DUP2 MSTORE PUSH1 0x20 ADD PUSH1 0x1 DUP3 ADD DUP1 SLOAD PUSH2 0x872 SWAP1 PUSH2 0x127D JUMP JUMPDEST DUP1 PUSH1 0x1F ADD PUSH1 0x20 DUP1 SWAP2 DIV MUL PUSH1 0x20 ADD PUSH1 0x40 MLOAD SWAP1 DUP2 ADD PUSH1 0x40 MSTORE DUP1 SWAP3 SWAP2 SWAP1 DUP2 DUP2 MSTORE PUSH1 0x20 ADD DUP3 DUP1 SLOAD PUSH2 0x89E SWAP1 PUSH2 0x127D JUMP JUMPDEST DUP1 ISZERO PUSH2 0x8EB JUMPI DUP1 PUSH1 0x1F LT PUSH2 0x8C0 JUMPI PUSH2 0x100 DUP1 DUP4 SLOAD DIV MUL DUP4 MSTORE SWAP2 PUSH1 0x20 ADD SWAP2 PUSH2 0x8EB JUMP JUMPDEST DUP3 ADD SWAP2 SWAP1 PUSH1 0x0 MSTORE PUSH1 0x20 PUSH1 0x0 KECCAK256 SWAP1 JUMPDEST DUP2 SLOAD DUP2 MSTORE SWAP1 PUSH1 0x1 ADD SWAP1 PUSH1 0x20 ADD DUP1 DUP4 GT PUSH2 0x8CE JUMPI DUP3 SWAP1 SUB PUSH1 0x1F AND DUP3 ADD SWAP2 JUMPDEST POP POP POP POP POP DUP2 MSTORE PUSH1 0x20 ADD PUSH1 0x2 DUP3 ADD SLOAD DUP2 MSTORE PUSH1 0x20 ADD PUSH1 0x3 DUP3 ADD DUP1 SLOAD PUSH2 0x90E SWAP1 PUSH2 0x127D JUMP JUMPDEST DUP1 PUSH1 0x1F ADD PUSH1 0x20 DUP1 SWAP2 DIV MUL PUSH1 0x20 ADD PUSH1 0x40 MLOAD SWAP1 DUP2 ADD PUSH1 0x40 MSTORE DUP1 SWAP3 SWAP2 SWAP1 DUP2 DUP2 MSTORE PUSH1 0x20 ADD DUP3 DUP1 SLOAD PUSH2 0x93A SWAP1 PUSH2 0x127D JUMP JUMPDEST DUP1 ISZERO PUSH2 0x987 JUMPI DUP1 PUSH1 0x1F LT PUSH2 0x95C JUMPI PUSH2 0x100 DUP1 DUP4 SLOAD DIV MUL DUP4 MSTORE SWAP2 PUSH1 0x20 ADD SWAP2 PUSH2 0x987 JUMP JUMPDEST DUP3 ADD SWAP2 SWAP1 PUSH1 0x0 MSTORE PUSH1 0x20 PUSH1 0x0 KECCAK256 SWAP1 JUMPDEST DUP2 SLOAD DUP2 MSTORE SWAP1 PUSH1 0x1 ADD SWAP1 PUSH1 0x20 ADD DUP1 DUP4 GT PUSH2 0x96A JUMPI DUP3 SWAP1 SUB PUSH1 0x1F AND DUP3 ADD SWAP2 JUMPDEST POP POP POP POP POP DUP2 MSTORE PUSH1 0x20 ADD PUSH1 0x4 DUP3 ADD PUSH1 0x0 SWAP1 SLOAD SWAP1 PUSH2 0x100 EXP SWAP1 DIV PUSH1 0xFF AND PUSH1 0x2 DUP2 GT ISZERO PUSH2 0x9B5 JUMPI PUSH2 0x9B4 PUSH2 0xC2F JUMP JUMPDEST JUMPDEST PUSH1 0x2 DUP2 GT ISZERO PUSH2 0x9C7 JUMPI PUSH2 0x9C6 PUSH2 0xC2F JUMP JUMPDEST JUMPDEST DUP2 MSTORE POP POP DUP2 MSTORE PUSH1 0x20 ADD SWAP1 PUSH1 0x1 ADD SWAP1 PUSH2 0x835 JUMP JUMPDEST POP POP POP POP SWAP1 POP SWAP1 JUMP JUMPDEST PUSH1 0x0 DUP1 PUSH1 0x0 SWAP1 POP JUMPDEST PUSH1 0x0 DUP1 SLOAD SWAP1 POP DUP2 LT ISZERO PUSH2 0xA3A JUMPI DUP3 PUSH1 0x0 DUP3 DUP2 SLOAD DUP2 LT PUSH2 0xA0D JUMPI PUSH2 0xA0C PUSH2 0x131A JUMP JUMPDEST JUMPDEST SWAP1 PUSH1 0x0 MSTORE PUSH1 0x20 PUSH1 0x0 KECCAK256 SWAP1 PUSH1 0x5 MUL ADD PUSH1 0x0 ADD SLOAD SUB PUSH2 0xA2D JUMPI DUP1 SWAP2 POP POP PUSH2 0xA76 JUMP JUMPDEST DUP1 DUP1 PUSH1 0x1 ADD SWAP2 POP POP PUSH2 0x9EB JUMP JUMPDEST POP PUSH1 0x40 MLOAD PUSH32 0x8C379A000000000000000000000000000000000000000000000000000000000 DUP2 MSTORE PUSH1 0x4 ADD PUSH2 0xA6D SWAP1 PUSH2 0x12FA JUMP JUMPDEST PUSH1 0x40 MLOAD DUP1 SWAP2 SUB SWAP1 REVERT JUMPDEST SWAP2 SWAP1 POP JUMP JUMPDEST POP DUP1 SLOAD PUSH2 0xA87 SWAP1 PUSH2 0x127D JUMP JUMPDEST PUSH1 0x0 DUP3 SSTORE DUP1 PUSH1 0x1F LT PUSH2 0xA99 JUMPI POP PUSH2 0xAB8 JUMP JUMPDEST PUSH1 0x1F ADD PUSH1 0x20 SWAP1 DIV SWAP1 PUSH1 0x0 MSTORE PUSH1 0x20 PUSH1 0x0 KECCAK256 SWAP1 DUP2 ADD SWAP1 PUSH2 0xAB7 SWAP2 SWAP1 PUSH2 0xAFC JUMP JUMPDEST JUMPDEST POP JUMP JUMPDEST PUSH1 0x40 MLOAD DUP1 PUSH1 0xA0 ADD PUSH1 0x40 MSTORE DUP1 PUSH1 0x0 DUP2 MSTORE PUSH1 0x20 ADD PUSH1 0x60 DUP2 MSTORE PUSH1 0x20 ADD PUSH1 0x0 DUP2 MSTORE PUSH1 0x20 ADD PUSH1 0x60 DUP2 MSTORE PUSH1 0x20 ADD PUSH1 0x0 PUSH1 0x2 DUP2 GT ISZERO PUSH2 0xAF6 JUMPI PUSH2 0xAF5 PUSH2 0xC2F JUMP JUMPDEST JUMPDEST DUP2 MSTORE POP SWAP1 JUMP JUMPDEST JUMPDEST DUP1 DUP3 GT ISZERO PUSH2 0xB15 JUMPI PUSH1 0x0 DUP2 PUSH1 0x0 SWAP1 SSTORE POP PUSH1 0x1 ADD PUSH2 0xAFD JUMP JUMPDEST POP SWAP1 JUMP JUMPDEST PUSH1 0x0 PUSH1 0x40 MLOAD SWAP1 POP SWAP1 JUMP JUMPDEST PUSH1 0x0 DUP1 REVERT JUMPDEST PUSH1 0x0 DUP1 REVERT JUMPDEST PUSH1 0x0 DUP2 SWAP1 POP SWAP2 SWAP1 POP JUMP JUMPDEST PUSH2 0xB40 DUP2 PUSH2 0xB2D JUMP JUMPDEST DUP2 EQ PUSH2 0xB4B JUMPI PUSH1 0x0 DUP1 REVERT JUMPDEST POP JUMP JUMPDEST PUSH1 0x0 DUP2 CALLDATALOAD SWAP1 POP PUSH2 0xB5D DUP2 PUSH2 0xB37 JUMP JUMPDEST SWAP3 SWAP2 POP POP JUMP JUMPDEST PUSH1 0x0 PUSH1 0x20 DUP3 DUP5 SUB SLT ISZERO PUSH2 0xB79 JUMPI PUSH2 0xB78 PUSH2 0xB23 JUMP JUMPDEST JUMPDEST PUSH1 0x0 PUSH2 0xB87 DUP5 DUP3 DUP6 ADD PUSH2 0xB4E JUMP JUMPDEST SWAP2 POP POP SWAP3 SWAP2 POP POP JUMP JUMPDEST PUSH2 0xB99 DUP2 PUSH2 0xB2D JUMP JUMPDEST DUP3 MSTORE POP POP JUMP JUMPDEST PUSH1 0x0 DUP2 MLOAD SWAP1 POP SWAP2 SWAP1 POP JUMP JUMPDEST PUSH1 0x0 DUP3 DUP3 MSTORE PUSH1 0x20 DUP3 ADD SWAP1 POP SWAP3 SWAP2 POP POP JUMP JUMPDEST PUSH1 0x0 JUMPDEST DUP4 DUP2 LT ISZERO PUSH2 0xBD9 JUMPI DUP1 DUP3 ADD MLOAD DUP2 DUP5 ADD MSTORE PUSH1 0x20 DUP2 ADD SWAP1 POP PUSH2 0xBBE JUMP JUMPDEST PUSH1 0x0 DUP5 DUP5 ADD MSTORE POP POP POP POP JUMP JUMPDEST PUSH1 0x0 PUSH1 0x1F NOT PUSH1 0x1F DUP4 ADD AND SWAP1 POP SWAP2 SWAP1 POP JUMP JUMPDEST PUSH1 0x0 PUSH2 0xC01 DUP3 PUSH2 0xB9F JUMP JUMPDEST PUSH2 0xC0B DUP2 DUP6 PUSH2 0xBAA JUMP JUMPDEST SWAP4 POP PUSH2 0xC1B DUP2 DUP6 PUSH1 0x20 DUP7 ADD PUSH2 0xBBB JUMP JUMPDEST PUSH2 0xC24 DUP2 PUSH2 0xBE5 JUMP JUMPDEST DUP5 ADD SWAP2 POP POP SWAP3 SWAP2 POP POP JUMP JUMPDEST PUSH32 0x4E487B7100000000000000000000000000000000000000000000000000000000 PUSH1 0x0 MSTORE PUSH1 0x21 PUSH1 0x4 MSTORE PUSH1 0x24 PUSH1 0x0 REVERT JUMPDEST PUSH1 0x3 DUP2 LT PUSH2 0xC6F JUMPI PUSH2 0xC6E PUSH2 0xC2F JUMP JUMPDEST JUMPDEST POP JUMP JUMPDEST PUSH1 0x0 DUP2 SWAP1 POP PUSH2 0xC80 DUP3 PUSH2 0xC5E JUMP JUMPDEST SWAP2 SWAP1 POP JUMP JUMPDEST PUSH1 0x0 PUSH2 0xC90 DUP3 PUSH2 0xC72 JUMP JUMPDEST SWAP1 POP SWAP2 SWAP1 POP JUMP JUMPDEST PUSH2 0xCA0 DUP2 PUSH2 0xC85 JUMP JUMPDEST DUP3 MSTORE POP POP JUMP JUMPDEST PUSH1 0x0 PUSH1 0xA0 DUP3 ADD SWAP1 POP PUSH2 0xCBB PUSH1 0x0 DUP4 ADD DUP9 PUSH2 0xB90 JUMP JUMPDEST DUP2 DUP2 SUB PUSH1 0x20 DUP4 ADD MSTORE PUSH2 0xCCD DUP2 DUP8 PUSH2 0xBF6 JUMP JUMPDEST SWAP1 POP PUSH2 0xCDC PUSH1 0x40 DUP4 ADD DUP7 PUSH2 0xB90 JUMP JUMPDEST DUP2 DUP2 SUB PUSH1 0x60 DUP4 ADD MSTORE PUSH2 0xCEE DUP2 DUP6 PUSH2 0xBF6 JUMP JUMPDEST SWAP1 POP PUSH2 0xCFD PUSH1 0x80 DUP4 ADD DUP5 PUSH2 0xC97 JUMP JUMPDEST SWAP7 SWAP6 POP POP POP POP POP POP JUMP JUMPDEST PUSH1 0x3 DUP2 LT PUSH2 0xD14 JUMPI PUSH1 0x0 DUP1 REVERT JUMPDEST POP JUMP JUMPDEST PUSH1 0x0 DUP2 CALLDATALOAD SWAP1 POP PUSH2 0xD26 DUP2 PUSH2 0xD07 JUMP JUMPDEST SWAP3 SWAP2 POP POP JUMP JUMPDEST PUSH1 0x0 DUP1 PUSH1 0x40 DUP4 DUP6 SUB SLT ISZERO PUSH2 0xD43 JUMPI PUSH2 0xD42 PUSH2 0xB23 JUMP JUMPDEST JUMPDEST PUSH1 0x0 PUSH2 0xD51 DUP6 DUP3 DUP7 ADD PUSH2 0xB4E JUMP JUMPDEST SWAP3 POP POP PUSH1 0x20 PUSH2 0xD62 DUP6 DUP3 DUP7 ADD PUSH2 0xD17 JUMP JUMPDEST SWAP2 POP POP SWAP3 POP SWAP3 SWAP1 POP JUMP JUMPDEST PUSH1 0x0 DUP1 REVERT JUMPDEST PUSH1 0x0 DUP1 REVERT JUMPDEST PUSH32 0x4E487B7100000000000000000000000000000000000000000000000000000000 PUSH1 0x0 MSTORE PUSH1 0x41 PUSH1 0x4 MSTORE PUSH1 0x24 PUSH1 0x0 REVERT JUMPDEST PUSH2 0xDAE DUP3 PUSH2 0xBE5 JUMP JUMPDEST DUP2 ADD DUP2 DUP2 LT PUSH8 0xFFFFFFFFFFFFFFFF DUP3 GT OR ISZERO PUSH2 0xDCD JUMPI PUSH2 0xDCC PUSH2 0xD76 JUMP JUMPDEST JUMPDEST DUP1 PUSH1 0x40 MSTORE POP POP POP JUMP JUMPDEST PUSH1 0x0 PUSH2 0xDE0 PUSH2 0xB19 JUMP JUMPDEST SWAP1 POP PUSH2 0xDEC DUP3 DUP3 PUSH2 0xDA5 JUMP JUMPDEST SWAP2 SWAP1 POP JUMP JUMPDEST PUSH1 0x0 PUSH8 0xFFFFFFFFFFFFFFFF DUP3 GT ISZERO PUSH2 0xE0C JUMPI PUSH2 0xE0B PUSH2 0xD76 JUMP JUMPDEST JUMPDEST PUSH2 0xE15 DUP3 PUSH2 0xBE5 JUMP JUMPDEST SWAP1 POP PUSH1 0x20 DUP2 ADD SWAP1 POP SWAP2 SWAP1 POP JUMP JUMPDEST DUP3 DUP2 DUP4 CALLDATACOPY PUSH1 0x0 DUP4 DUP4 ADD MSTORE POP POP POP JUMP JUMPDEST PUSH1 0x0 PUSH2 0xE44 PUSH2 0xE3F DUP5 PUSH2 0xDF1 JUMP JUMPDEST PUSH2 0xDD6 JUMP JUMPDEST SWAP1 POP DUP3 DUP2 MSTORE PUSH1 0x20 DUP2 ADD DUP5 DUP5 DUP5 ADD GT ISZERO PUSH2 0xE60 JUMPI PUSH2 0xE5F PUSH2 0xD71 JUMP JUMPDEST JUMPDEST PUSH2 0xE6B DUP5 DUP3 DUP6 PUSH2 0xE22 JUMP JUMPDEST POP SWAP4 SWAP3 POP POP POP JUMP JUMPDEST PUSH1 0x0 DUP3 PUSH1 0x1F DUP4 ADD SLT PUSH2 0xE88 JUMPI PUSH2 0xE87 PUSH2 0xD6C JUMP JUMPDEST JUMPDEST DUP2 CALLDATALOAD PUSH2 0xE98 DUP5 DUP3 PUSH1 0x20 DUP7 ADD PUSH2 0xE31 JUMP JUMPDEST SWAP2 POP POP SWAP3 SWAP2 POP POP JUMP JUMPDEST PUSH1 0x0 DUP1 PUSH1 0x0 PUSH1 0x60 DUP5 DUP7 SUB SLT ISZERO PUSH2 0xEBA JUMPI PUSH2 0xEB9 PUSH2 0xB23 JUMP JUMPDEST JUMPDEST PUSH1 0x0 DUP5 ADD CALLDATALOAD PUSH8 0xFFFFFFFFFFFFFFFF DUP2 GT ISZERO PUSH2 0xED8 JUMPI PUSH2 0xED7 PUSH2 0xB28 JUMP JUMPDEST JUMPDEST PUSH2 0xEE4 DUP7 DUP3 DUP8 ADD PUSH2 0xE73 JUMP JUMPDEST SWAP4 POP POP PUSH1 0x20 PUSH2 0xEF5 DUP7 DUP3 DUP8 ADD PUSH2 0xB4E JUMP JUMPDEST SWAP3 POP POP PUSH1 0x40 DUP5 ADD CALLDATALOAD PUSH8 0xFFFFFFFFFFFFFFFF DUP2 GT ISZERO PUSH2 0xF16 JUMPI PUSH2 0xF15 PUSH2 0xB28 JUMP JUMPDEST JUMPDEST PUSH2 0xF22 DUP7 DUP3 DUP8 ADD PUSH2 0xE73 JUMP JUMPDEST SWAP2 POP POP SWAP3 POP SWAP3 POP SWAP3 JUMP JUMPDEST PUSH1 0x0 PUSH1 0x20 DUP3 ADD SWAP1 POP PUSH2 0xF41 PUSH1 0x0 DUP4 ADD DUP5 PUSH2 0xB90 JUMP JUMPDEST SWAP3 SWAP2 POP POP JUMP JUMPDEST PUSH1 0x0 DUP1 PUSH1 0x0 DUP1 PUSH1 0x80 DUP6 DUP8 SUB SLT ISZERO PUSH2 0xF61 JUMPI PUSH2 0xF60 PUSH2 0xB23 JUMP JUMPDEST JUMPDEST PUSH1 0x0 PUSH2 0xF6F DUP8 DUP3 DUP9 ADD PUSH2 0xB4E JUMP JUMPDEST SWAP5 POP POP PUSH1 0x20 DUP6 ADD CALLDATALOAD PUSH8 0xFFFFFFFFFFFFFFFF DUP2 GT ISZERO PUSH2 0xF90 JUMPI PUSH2 0xF8F PUSH2 0xB28 JUMP JUMPDEST JUMPDEST PUSH2 0xF9C DUP8 DUP3 DUP9 ADD PUSH2 0xE73 JUMP JUMPDEST SWAP4 POP POP PUSH1 0x40 PUSH2 0xFAD DUP8 DUP3 DUP9 ADD PUSH2 0xB4E JUMP JUMPDEST SWAP3 POP POP PUSH1 0x60 DUP6 ADD CALLDATALOAD PUSH8 0xFFFFFFFFFFFFFFFF DUP2 GT ISZERO PUSH2 0xFCE JUMPI PUSH2 0xFCD PUSH2 0xB28 JUMP JUMPDEST JUMPDEST PUSH2 0xFDA DUP8 DUP3 DUP9 ADD PUSH2 0xE73 JUMP JUMPDEST SWAP2 POP POP SWAP3 SWAP6 SWAP2 SWAP5 POP SWAP3 POP JUMP JUMPDEST PUSH2 0xFEF DUP2 PUSH2 0xB2D JUMP JUMPDEST DUP3 MSTORE POP POP JUMP JUMPDEST PUSH1 0x0 DUP3 DUP3 MSTORE PUSH1 0x20 DUP3 ADD SWAP1 POP SWAP3 SWAP2 POP POP JUMP JUMPDEST PUSH1 0x0 PUSH2 0x1011 DUP3 PUSH2 0xB9F JUMP JUMPDEST PUSH2 0x101B DUP2 DUP6 PUSH2 0xFF5 JUMP JUMPDEST SWAP4 POP PUSH2 0x102B DUP2 DUP6 PUSH1 0x20 DUP7 ADD PUSH2 0xBBB JUMP JUMPDEST PUSH2 0x1034 DUP2 PUSH2 0xBE5 JUMP JUMPDEST DUP5 ADD SWAP2 POP POP SWAP3 SWAP2 POP POP JUMP JUMPDEST PUSH2 0x1048 DUP2 PUSH2 0xC85 JUMP JUMPDEST DUP3 MSTORE POP POP JUMP JUMPDEST PUSH1 0x0 PUSH1 0xA0 DUP4 ADD PUSH1 0x0 DUP4 ADD MLOAD PUSH2 0x1066 PUSH1 0x0 DUP7 ADD DUP3 PUSH2 0xFE6 JUMP JUMPDEST POP PUSH1 0x20 DUP4 ADD MLOAD DUP5 DUP3 SUB PUSH1 0x20 DUP7 ADD MSTORE PUSH2 0x107E DUP3 DUP3 PUSH2 0x1006 JUMP JUMPDEST SWAP2 POP POP PUSH1 0x40 DUP4 ADD MLOAD PUSH2 0x1093 PUSH1 0x40 DUP7 ADD DUP3 PUSH2 0xFE6 JUMP JUMPDEST POP PUSH1 0x60 DUP4 ADD MLOAD DUP5 DUP3 SUB PUSH1 0x60 DUP7 ADD MSTORE PUSH2 0x10AB DUP3 DUP3 PUSH2 0x1006 JUMP JUMPDEST SWAP2 POP POP PUSH1 0x80 DUP4 ADD MLOAD PUSH2 0x10C0 PUSH1 0x80 DUP7 ADD DUP3 PUSH2 0x103F JUMP JUMPDEST POP DUP1 SWAP2 POP POP SWAP3 SWAP2 POP POP JUMP JUMPDEST PUSH1 0x0 PUSH1 0x20 DUP3 ADD SWAP1 POP DUP2 DUP2 SUB PUSH1 0x0 DUP4 ADD MSTORE PUSH2 0x10E5 DUP2 DUP5 PUSH2 0x104E JUMP JUMPDEST SWAP1 POP SWAP3 SWAP2 POP POP JUMP JUMPDEST PUSH1 0x0 DUP2 MLOAD SWAP1 POP SWAP2 SWAP1 POP JUMP JUMPDEST PUSH1 0x0 DUP3 DUP3 MSTORE PUSH1 0x20 DUP3 ADD SWAP1 POP SWAP3 SWAP2 POP POP JUMP JUMPDEST PUSH1 0x0 DUP2 SWAP1 POP PUSH1 0x20 DUP3 ADD SWAP1 POP SWAP2 SWAP1 POP JUMP JUMPDEST PUSH1 0x0 PUSH1 0xA0 DUP4 ADD PUSH1 0x0 DUP4 ADD MLOAD PUSH2 0x1131 PUSH1 0x0 DUP7 ADD DUP3 PUSH2 0xFE6 JUMP JUMPDEST POP PUSH1 0x20 DUP4 ADD MLOAD DUP5 DUP3 SUB PUSH1 0x20 DUP7 ADD MSTORE PUSH2 0x1149 DUP3 DUP3 PUSH2 0x1006 JUMP JUMPDEST SWAP2 POP POP PUSH1 0x40 DUP4 ADD MLOAD PUSH2 0x115E PUSH1 0x40 DUP7 ADD DUP3 PUSH2 0xFE6 JUMP JUMPDEST POP PUSH1 0x60 DUP4 ADD MLOAD DUP5 DUP3 SUB PUSH1 0x60 DUP7 ADD MSTORE PUSH2 0x1176 DUP3 DUP3 PUSH2 0x1006 JUMP JUMPDEST SWAP2 POP POP PUSH1 0x80 DUP4 ADD MLOAD PUSH2 0x118B PUSH1 0x80 DUP7 ADD DUP3 PUSH2 0x103F JUMP JUMPDEST POP DUP1 SWAP2 POP POP SWAP3 SWAP2 POP POP JUMP JUMPDEST PUSH1 0x0 PUSH2 0x11A2 DUP4 DUP4 PUSH2 0x1119 JUMP JUMPDEST SWAP1 POP SWAP3 SWAP2 POP POP JUMP JUMPDEST PUSH1 0x0 PUSH1 0x20 DUP3 ADD SWAP1 POP SWAP2 SWAP1 POP JUMP JUMPDEST PUSH1 0x0 PUSH2 0x11C2 DUP3 PUSH2 0x10ED JUMP JUMPDEST PUSH2 0x11CC DUP2 DUP6 PUSH2 0x10F8 JUMP JUMPDEST SWAP4 POP DUP4 PUSH1 0x20 DUP3 MUL DUP6 ADD PUSH2 0x11DE DUP6 PUSH2 0x1109 JUMP JUMPDEST DUP1 PUSH1 0x0 JUMPDEST DUP6 DUP2 LT ISZERO PUSH2 0x121A JUMPI DUP5 DUP5 SUB DUP10 MSTORE DUP2 MLOAD PUSH2 0x11FB DUP6 DUP3 PUSH2 0x1196 JUMP JUMPDEST SWAP5 POP PUSH2 0x1206 DUP4 PUSH2 0x11AA JUMP JUMPDEST SWAP3 POP PUSH1 0x20 DUP11 ADD SWAP10 POP POP PUSH1 0x1 DUP2 ADD SWAP1 POP PUSH2 0x11E2 JUMP JUMPDEST POP DUP3 SWAP8 POP DUP8 SWAP6 POP POP POP POP POP POP SWAP3 SWAP2 POP POP JUMP JUMPDEST PUSH1 0x0 PUSH1 0x20 DUP3 ADD SWAP1 POP DUP2 DUP2 SUB PUSH1 0x0 DUP4 ADD MSTORE PUSH2 0x1246 DUP2 DUP5 PUSH2 0x11B7 JUMP JUMPDEST SWAP1 POP SWAP3 SWAP2 POP POP JUMP JUMPDEST PUSH32 0x4E487B7100000000000000000000000000000000000000000000000000000000 PUSH1 0x0 MSTORE PUSH1 0x22 PUSH1 0x4 MSTORE PUSH1 0x24 PUSH1 0x0 REVERT JUMPDEST PUSH1 0x0 PUSH1 0x2 DUP3 DIV SWAP1 POP PUSH1 0x1 DUP3 AND DUP1 PUSH2 0x1295 JUMPI PUSH1 0x7F DUP3 AND SWAP2 POP JUMPDEST PUSH1 0x20 DUP3 LT DUP2 SUB PUSH2 0x12A8 JUMPI PUSH2 0x12A7 PUSH2 0x124E JUMP JUMPDEST JUMPDEST POP SWAP2 SWAP1 POP JUMP JUMPDEST PUSH32 0x53747564656E7420646F65736E27742065786973740000000000000000000000 PUSH1 0x0 DUP3 ADD MSTORE POP JUMP JUMPDEST PUSH1 0x0 PUSH2 0x12E4 PUSH1 0x15 DUP4 PUSH2 0xBAA JUMP JUMPDEST SWAP2 POP PUSH2 0x12EF DUP3 PUSH2 0x12AE JUMP JUMPDEST PUSH1 0x20 DUP3 ADD SWAP1 POP SWAP2 SWAP1 POP JUMP JUMPDEST PUSH1 0x0 PUSH1 0x20 DUP3 ADD SWAP1 POP DUP2 DUP2 SUB PUSH1 0x0 DUP4 ADD MSTORE PUSH2 0x1313 DUP2 PUSH2 0x12D7 JUMP JUMPDEST SWAP1 POP SWAP2 SWAP1 POP JUMP JUMPDEST PUSH32 0x4E487B7100000000000000000000000000000000000000000000000000000000 PUSH1 0x0 MSTORE PUSH1 0x32 PUSH1 0x4 MSTORE PUSH1 0x24 PUSH1 0x0 REVERT JUMPDEST PUSH32 0x4E6F2073747564656E7420696E20746865206C69737400000000000000000000 PUSH1 0x0 DUP3 ADD MSTORE POP JUMP JUMPDEST PUSH1 0x0 PUSH2 0x137F PUSH1 0x16 DUP4 PUSH2 0xBAA JUMP JUMPDEST SWAP2 POP PUSH2 0x138A DUP3 PUSH2 0x1349 JUMP JUMPDEST PUSH1 0x20 DUP3 ADD SWAP1 POP SWAP2 SWAP1 POP JUMP JUMPDEST PUSH1 0x0 PUSH1 0x20 DUP3 ADD SWAP1 POP DUP2 DUP2 SUB PUSH1 0x0 DUP4 ADD MSTORE PUSH2 0x13AE DUP2 PUSH2 0x1372 JUMP JUMPDEST SWAP1 POP SWAP2 SWAP1 POP JUMP JUMPDEST PUSH1 0x0 DUP2 SWAP1 POP DUP2 PUSH1 0x0 MSTORE PUSH1 0x20 PUSH1 0x0 KECCAK256 SWAP1 POP SWAP2 SWAP1 POP JUMP JUMPDEST PUSH1 0x0 PUSH1 0x20 PUSH1 0x1F DUP4 ADD DIV SWAP1 POP SWAP2 SWAP1 POP JUMP JUMPDEST PUSH1 0x0 DUP3 DUP3 SHL SWAP1 POP SWAP3 SWAP2 POP POP JUMP JUMPDEST PUSH1 0x0 PUSH1 0x8 DUP4 MUL PUSH2 0x1417 PUSH32 0xFFFFFFFFFFFFFFFFFFFFFFFFFFFFFFFFFFFFFFFFFFFFFFFFFFFFFFFFFFFFFFFF DUP3 PUSH2 0x13DA JUMP JUMPDEST PUSH2 0x1421 DUP7 DUP4 PUSH2 0x13DA JUMP JUMPDEST SWAP6 POP DUP1 NOT DUP5 AND SWAP4 POP DUP1 DUP7 AND DUP5 OR SWAP3 POP POP POP SWAP4 SWAP3 POP POP POP JUMP JUMPDEST PUSH1 0x0 DUP2 SWAP1 POP SWAP2 SWAP1 POP JUMP JUMPDEST PUSH1 0x0 PUSH2 0x145E PUSH2 0x1459 PUSH2 0x1454 DUP5 PUSH2 0xB2D JUMP JUMPDEST PUSH2 0x1439 JUMP JUMPDEST PUSH2 0xB2D JUMP JUMPDEST SWAP1 POP SWAP2 SWAP1 POP JUMP JUMPDEST PUSH1 0x0 DUP2 SWAP1 POP SWAP2 SWAP1 POP JUMP JUMPDEST PUSH2 0x1478 DUP4 PUSH2 0x1443 JUMP JUMPDEST PUSH2 0x148C PUSH2 0x1484 DUP3 PUSH2 0x1465 JUMP JUMPDEST DUP5 DUP5 SLOAD PUSH2 0x13E7 JUMP JUMPDEST DUP3 SSTORE POP POP POP POP JUMP JUMPDEST PUSH1 0x0 SWAP1 JUMP JUMPDEST PUSH2 0x14A1 PUSH2 0x1494 JUMP JUMPDEST PUSH2 0x14AC DUP2 DUP5 DUP5 PUSH2 0x146F JUMP JUMPDEST POP POP POP JUMP JUMPDEST JUMPDEST DUP2 DUP2 LT ISZERO PUSH2 0x14D0 JUMPI PUSH2 0x14C5 PUSH1 0x0 DUP3 PUSH2 0x1499 JUMP JUMPDEST PUSH1 0x1 DUP2 ADD SWAP1 POP PUSH2 0x14B2 JUMP JUMPDEST POP POP JUMP JUMPDEST PUSH1 0x1F DUP3 GT ISZERO PUSH2 0x1515 JUMPI PUSH2 0x14E6 DUP2 PUSH2 0x13B5 JUMP JUMPDEST PUSH2 0x14EF DUP5 PUSH2 0x13CA JUMP JUMPDEST DUP2 ADD PUSH1 0x20 DUP6 LT ISZERO PUSH2 0x14FE JUMPI DUP2 SWAP1 POP JUMPDEST PUSH2 0x1512 PUSH2 0x150A DUP6 PUSH2 0x13CA JUMP JUMPDEST DUP4 ADD DUP3 PUSH2 0x14B1 JUMP JUMPDEST POP POP JUMPDEST POP POP POP JUMP JUMPDEST PUSH1 0x0 DUP3 DUP3 SHR SWAP1 POP SWAP3 SWAP2 POP POP JUMP JUMPDEST PUSH1 0x0 PUSH2 0x1538 PUSH1 0x0 NOT DUP5 PUSH1 0x8 MUL PUSH2 0x151A JUMP JUMPDEST NOT DUP1 DUP4 AND SWAP2 POP POP SWAP3 SWAP2 POP POP JUMP JUMPDEST PUSH1 0x0 PUSH2 0x1551 DUP4 DUP4 PUSH2 0x1527 JUMP JUMPDEST SWAP2 POP DUP3 PUSH1 0x2 MUL DUP3 OR SWAP1 POP SWAP3 SWAP2 POP POP JUMP JUMPDEST PUSH2 0x156A DUP3 PUSH2 0xB9F JUMP JUMPDEST PUSH8 0xFFFFFFFFFFFFFFFF DUP2 GT ISZERO PUSH2 0x1583 JUMPI PUSH2 0x1582 PUSH2 0xD76 JUMP JUMPDEST JUMPDEST PUSH2 0x158D DUP3 SLOAD PUSH2 0x127D JUMP JUMPDEST PUSH2 0x1598 DUP3 DUP3 DUP6 PUSH2 0x14D4 JUMP JUMPDEST PUSH1 0x0 PUSH1 0x20 SWAP1 POP PUSH1 0x1F DUP4 GT PUSH1 0x1 DUP2 EQ PUSH2 0x15CB JUMPI PUSH1 0x0 DUP5 ISZERO PUSH2 0x15B9 JUMPI DUP3 DUP8 ADD MLOAD SWAP1 POP JUMPDEST PUSH2 0x15C3 DUP6 DUP3 PUSH2 0x1545 JUMP JUMPDEST DUP7 SSTORE POP PUSH2 0x162B JUMP JUMPDEST PUSH1 0x1F NOT DUP5 AND PUSH2 0x15D9 DUP7 PUSH2 0x13B5 JUMP JUMPDEST PUSH1 0x0 JUMPDEST DUP3 DUP2 LT ISZERO PUSH2 0x1601 JUMPI DUP5 DUP10 ADD MLOAD DUP3 SSTORE PUSH1 0x1 DUP3 ADD SWAP2 POP PUSH1 0x20 DUP6 ADD SWAP5 POP PUSH1 0x20 DUP2 ADD SWAP1 POP PUSH2 0x15DC JUMP JUMPDEST DUP7 DUP4 LT ISZERO PUSH2 0x161E JUMPI DUP5 DUP10 ADD MLOAD PUSH2 0x161A PUSH1 0x1F DUP10 AND DUP3 PUSH2 0x1527 JUMP JUMPDEST DUP4 SSTORE POP JUMPDEST PUSH1 0x1 PUSH1 0x2 DUP9 MUL ADD DUP9 SSTORE POP POP POP JUMPDEST POP POP POP POP POP POP JUMP JUMPDEST PUSH32 0x4E487B7100000000000000000000000000000000000000000000000000000000 PUSH1 0x0 MSTORE PUSH1 0x11 PUSH1 0x4 MSTORE PUSH1 0x24 PUSH1 0x0 REVERT JUMPDEST PUSH1 0x0 PUSH2 0x166D DUP3 PUSH2 0xB2D JUMP JUMPDEST SWAP2 POP PUSH32 0xFFFFFFFFFFFFFFFFFFFFFFFFFFFFFFFFFFFFFFFFFFFFFFFFFFFFFFFFFFFFFFFF DUP3 SUB PUSH2 0x169F JUMPI PUSH2 0x169E PUSH2 0x1633 JUMP JUMPDEST JUMPDEST PUSH1 0x1 DUP3 ADD SWAP1 POP SWAP2 SWAP1 POP JUMP INVALID LOG2 PUSH5 0x6970667358 0x22 SLT KECCAK256 0xAD 0xFB TSTORE JUMP ORIGIN ADDRESS PUSH7 0x9392AD168F3A14 LOG2 0xBB CALLDATASIZE LOG3 0xC1 DUP1 CREATE2 CODECOPY 0xBD 0xB3 0x2E COINBASE 0x4C PUSH31 0x1000D7B664736F6C634300081C003300000000000000000000000000000000 "},"methodIdentifiers":{"delete_student(uint256)":"3f09a538","get_all_student()":"fe13a56c","get_each_student(uint256)":"d87428cb","register_new_student(string,uint256,string)":"540f7853","students(uint256)":"06ead22e","uniqueId()":"629c52a9","update_student(uint256,string,uint256,string)":"80bedd18","update_student_status(uint256,uint8)":"472b15e2"}}}}}