{
  "_format": "hh-sol-artifact-1",
  "contractName": "TodoList",
  "sourceName": "contracts/TodoList.sol",
  "abi": [
    {
      "inputs": [],
      "name": "TODO_NOT_FOUND",
      "type": "error"
    },
    {
      "inputs": [],
      "name": "UNAUTHORIZED",
      "type": "error"
    },
    {
      "inputs": [
        {
          "internalType": "string",
          "name": "_name",
          "type": "string"
        },
        {
          "internalType": "string",
          "name": "_description",
          "type": "string"
        }
      ],
      "name": "createTodo",
      "outputs": [],
      "stateMutability": "nonpayable",
      "type": "function"
    },
    {
      "inputs": [],
      "name": "getMyTodo",
      "outputs": [
        {
          "components": [
            {
              "internalType": "string",
              "name": "name",
              "type": "string"
            },
            {
              "internalType": "string",
              "name": "description",
              "type": "string"
            },
            {
              "internalType": "bool",
              "name": "status",
              "type": "bool"
            },
            {
              "internalType": "address",
              "name": "userAddress",
              "type": "address"
            },
            {
              "internalType": "uint256",
              "name": "id",
              "type": "uint256"
            }
          ],
          "internalType": "struct TodoList.Todo[]",
          "name": "",
          "type": "tuple[]"
        }
      ],
      "stateMutability": "view",
      "type": "function"
    },
    {
      "inputs": [
        {
          "internalType": "uint256",
          "name": "_todoId",
          "type": "uint256"
        }
      ],
      "name": "getTodoById",
      "outputs": [
        {
          "components": [
            {
              "internalType": "string",
              "name": "name",
              "type": "string"
            },
            {
              "internalType": "string",
              "name": "description",
              "type": "string"
            },
            {
              "internalType": "bool",
              "name": "status",
              "type": "bool"
            },
            {
              "internalType": "address",
              "name": "userAddress",
              "type": "address"
            },
            {
              "internalType": "uint256",
              "name": "id",
              "type": "uint256"
            }
          ],
          "internalType": "struct TodoList.Todo",
          "name": "",
          "type": "tuple"
        }
      ],
      "stateMutability": "view",
      "type": "function"
    },
    {
      "inputs": [
        {
          "internalType": "uint256",
          "name": "_todoId",
          "type": "uint256"
        },
        {
          "internalType": "string",
          "name": "_description",
          "type": "string"
        }
      ],
      "name": "setDescription",
      "outputs": [],
      "stateMutability": "nonpayable",
      "type": "function"
    },
    {
      "inputs": [
        {
          "internalType": "uint256",
          "name": "_todoId",
          "type": "uint256"
        },
        {
          "internalType": "string",
          "name": "_name",
          "type": "string"
        }
      ],
      "name": "setName",
      "outputs": [],
      "stateMutability": "nonpayable",
      "type": "function"
    },
    {
      "inputs": [
        {
          "internalType": "uint256",
          "name": "_todoId",
          "type": "uint256"
        }
      ],
      "name": "toggleTodo",
      "outputs": [],
      "stateMutability": "nonpayable",
      "type": "function"
    }
  ],
  "bytecode": "0x6080604052348015600f57600080fd5b50611ad78061001f6000396000f3fe608060405234801561001057600080fd5b50600436106100625760003560e01c80632a6446ca146100675780633380b99f146100835780633706ff821461009f578063d41eaae5146100bd578063dc00282c146100ed578063fe55932a14610109575b600080fd5b610081600480360381019061007c91906112b5565b610125565b005b61009d60048036038101906100989190611311565b610379565b005b6100a7610508565b6040516100b491906115b2565b60405180910390f35b6100d760048036038101906100d291906115d4565b6107c6565b6040516100e4919061167e565b60405180910390f35b610107600480360381019061010291906115d4565b610bbe565b005b610123600480360381019061011e91906112b5565b610e8a565b005b3373ffffffffffffffffffffffffffffffffffffffff166000803373ffffffffffffffffffffffffffffffffffffffff1673ffffffffffffffffffffffffffffffffffffffff16815260200190815260200160002060008154811061018d5761018c6116a0565b5b906000526020600020906004020160020160019054906101000a900473ffffffffffffffffffffffffffffffffffffffff1673ffffffffffffffffffffffffffffffffffffffff161461020c576040517f075fd2b100000000000000000000000000000000000000000000000000000000815260040160405180910390fd5b60005b6000803373ffffffffffffffffffffffffffffffffffffffff1673ffffffffffffffffffffffffffffffffffffffff1681526020019081526020016000208054905081101561034257826000803373ffffffffffffffffffffffffffffffffffffffff1673ffffffffffffffffffffffffffffffffffffffff16815260200190815260200160002082815481106102a9576102a86116a0565b5b9060005260206000209060040201600301540361033557816000803373ffffffffffffffffffffffffffffffffffffffff1673ffffffffffffffffffffffffffffffffffffffff1681526020019081526020016000208281548110610311576103106116a0565b5b9060005260206000209060040201600101908161032e91906118db565b5050610375565b808060010191505061020f565b506040517f9d4b022500000000000000000000000000000000000000000000000000000000815260040160405180910390fd5b5050565b6103816110de565b8281600001819052508181602001819052506000816040019015159081151581525050600160008154809291906103b7906119dc565b9190505581608001818152505033816060019073ffffffffffffffffffffffffffffffffffffffff16908173ffffffffffffffffffffffffffffffffffffffff16815250506000803373ffffffffffffffffffffffffffffffffffffffff1673ffffffffffffffffffffffffffffffffffffffff168152602001908152602001600020819080600181540180825580915050600190039060005260206000209060040201600090919091909150600082015181600001908161047991906118db565b50602082015181600101908161048f91906118db565b5060408201518160020160006101000a81548160ff02191690831515021790555060608201518160020160016101000a81548173ffffffffffffffffffffffffffffffffffffffff021916908373ffffffffffffffffffffffffffffffffffffffff160217905550608082015181600301555050505050565b606060008060003373ffffffffffffffffffffffffffffffffffffffff1673ffffffffffffffffffffffffffffffffffffffff168152602001908152602001600020805490501161058e576040517f08c379a000000000000000000000000000000000000000000000000000000000815260040161058590611a81565b60405180910390fd5b6000803373ffffffffffffffffffffffffffffffffffffffff1673ffffffffffffffffffffffffffffffffffffffff168152602001908152602001600020805480602002602001604051908101604052809291908181526020016000905b828210156107bd57838290600052602060002090600402016040518060a001604052908160008201805461061f906116fe565b80601f016020809104026020016040519081016040528092919081815260200182805461064b906116fe565b80156106985780601f1061066d57610100808354040283529160200191610698565b820191906000526020600020905b81548152906001019060200180831161067b57829003601f168201915b505050505081526020016001820180546106b1906116fe565b80601f01602080910402602001604051908101604052809291908181526020018280546106dd906116fe565b801561072a5780601f106106ff5761010080835404028352916020019161072a565b820191906000526020600020905b81548152906001019060200180831161070d57829003601f168201915b505050505081526020016002820160009054906101000a900460ff161515151581526020016002820160019054906101000a900473ffffffffffffffffffffffffffffffffffffffff1673ffffffffffffffffffffffffffffffffffffffff1673ffffffffffffffffffffffffffffffffffffffff168152602001600382015481525050815260200190600101906105ec565b50505050905090565b6107ce6110de565b3373ffffffffffffffffffffffffffffffffffffffff166000803373ffffffffffffffffffffffffffffffffffffffff1673ffffffffffffffffffffffffffffffffffffffff168152602001908152602001600020600081548110610836576108356116a0565b5b906000526020600020906004020160020160019054906101000a900473ffffffffffffffffffffffffffffffffffffffff1673ffffffffffffffffffffffffffffffffffffffff16146108b5576040517f075fd2b100000000000000000000000000000000000000000000000000000000815260040160405180910390fd5b60005b6000803373ffffffffffffffffffffffffffffffffffffffff1673ffffffffffffffffffffffffffffffffffffffff16815260200190815260200160002080549050811015610b8657826000803373ffffffffffffffffffffffffffffffffffffffff1673ffffffffffffffffffffffffffffffffffffffff1681526020019081526020016000208281548110610952576109516116a0565b5b90600052602060002090600402016003015403610b79576000803373ffffffffffffffffffffffffffffffffffffffff1673ffffffffffffffffffffffffffffffffffffffff16815260200190815260200160002081815481106109b9576109b86116a0565b5b90600052602060002090600402016040518060a00160405290816000820180546109e2906116fe565b80601f0160208091040260200160405190810160405280929190818152602001828054610a0e906116fe565b8015610a5b5780601f10610a3057610100808354040283529160200191610a5b565b820191906000526020600020905b815481529060010190602001808311610a3e57829003601f168201915b50505050508152602001600182018054610a74906116fe565b80601f0160208091040260200160405190810160405280929190818152602001828054610aa0906116fe565b8015610aed5780601f10610ac257610100808354040283529160200191610aed565b820191906000526020600020905b815481529060010190602001808311610ad057829003601f168201915b505050505081526020016002820160009054906101000a900460ff161515151581526020016002820160019054906101000a900473ffffffffffffffffffffffffffffffffffffffff1673ffffffffffffffffffffffffffffffffffffffff1673ffffffffffffffffffffffffffffffffffffffff168152602001600382015481525050915050610bb9565b80806001019150506108b8565b506040517f9d4b022500000000000000000000000000000000000000000000000000000000815260040160405180910390fd5b919050565b3373ffffffffffffffffffffffffffffffffffffffff166000803373ffffffffffffffffffffffffffffffffffffffff1673ffffffffffffffffffffffffffffffffffffffff168152602001908152602001600020600081548110610c2657610c256116a0565b5b906000526020600020906004020160020160019054906101000a900473ffffffffffffffffffffffffffffffffffffffff1673ffffffffffffffffffffffffffffffffffffffff1614610ca5576040517f075fd2b100000000000000000000000000000000000000000000000000000000815260040160405180910390fd5b60005b6000803373ffffffffffffffffffffffffffffffffffffffff1673ffffffffffffffffffffffffffffffffffffffff16815260200190815260200160002080549050811015610e5457816000803373ffffffffffffffffffffffffffffffffffffffff1673ffffffffffffffffffffffffffffffffffffffff1681526020019081526020016000208281548110610d4257610d416116a0565b5b90600052602060002090600402016003015403610e47576000803373ffffffffffffffffffffffffffffffffffffffff1673ffffffffffffffffffffffffffffffffffffffff1681526020019081526020016000208181548110610da957610da86116a0565b5b906000526020600020906004020160020160009054906101000a900460ff16156000803373ffffffffffffffffffffffffffffffffffffffff1673ffffffffffffffffffffffffffffffffffffffff1681526020019081526020016000208281548110610e1957610e186116a0565b5b906000526020600020906004020160020160006101000a81548160ff02191690831515021790555050610e87565b8080600101915050610ca8565b506040517f9d4b022500000000000000000000000000000000000000000000000000000000815260040160405180910390fd5b50565b3373ffffffffffffffffffffffffffffffffffffffff166000803373ffffffffffffffffffffffffffffffffffffffff1673ffffffffffffffffffffffffffffffffffffffff168152602001908152602001600020600081548110610ef257610ef16116a0565b5b906000526020600020906004020160020160019054906101000a900473ffffffffffffffffffffffffffffffffffffffff1673ffffffffffffffffffffffffffffffffffffffff1614610f71576040517f075fd2b100000000000000000000000000000000000000000000000000000000815260040160405180910390fd5b60005b6000803373ffffffffffffffffffffffffffffffffffffffff1673ffffffffffffffffffffffffffffffffffffffff168152602001908152602001600020805490508110156110a757826000803373ffffffffffffffffffffffffffffffffffffffff1673ffffffffffffffffffffffffffffffffffffffff168152602001908152602001600020828154811061100e5761100d6116a0565b5b9060005260206000209060040201600301540361109a57816000803373ffffffffffffffffffffffffffffffffffffffff1673ffffffffffffffffffffffffffffffffffffffff1681526020019081526020016000208281548110611076576110756116a0565b5b9060005260206000209060040201600001908161109391906118db565b50506110da565b8080600101915050610f74565b506040517f9d4b022500000000000000000000000000000000000000000000000000000000815260040160405180910390fd5b5050565b6040518060a001604052806060815260200160608152602001600015158152602001600073ffffffffffffffffffffffffffffffffffffffff168152602001600081525090565b6000604051905090565b600080fd5b600080fd5b6000819050919050565b61114c81611139565b811461115757600080fd5b50565b60008135905061116981611143565b92915050565b600080fd5b600080fd5b6000601f19601f8301169050919050565b7f4e487b7100000000000000000000000000000000000000000000000000000000600052604160045260246000fd5b6111c282611179565b810181811067ffffffffffffffff821117156111e1576111e061118a565b5b80604052505050565b60006111f4611125565b905061120082826111b9565b919050565b600067ffffffffffffffff8211156112205761121f61118a565b5b61122982611179565b9050602081019050919050565b82818337600083830152505050565b600061125861125384611205565b6111ea565b90508281526020810184848401111561127457611273611174565b5b61127f848285611236565b509392505050565b600082601f83011261129c5761129b61116f565b5b81356112ac848260208601611245565b91505092915050565b600080604083850312156112cc576112cb61112f565b5b60006112da8582860161115a565b925050602083013567ffffffffffffffff8111156112fb576112fa611134565b5b61130785828601611287565b9150509250929050565b600080604083850312156113285761132761112f565b5b600083013567ffffffffffffffff81111561134657611345611134565b5b61135285828601611287565b925050602083013567ffffffffffffffff81111561137357611372611134565b5b61137f85828601611287565b9150509250929050565b600081519050919050565b600082825260208201905092915050565b6000819050602082019050919050565b600081519050919050565b600082825260208201905092915050565b60005b838110156113ef5780820151818401526020810190506113d4565b60008484015250505050565b6000611406826113b5565b61141081856113c0565b93506114208185602086016113d1565b61142981611179565b840191505092915050565b60008115159050919050565b61144981611434565b82525050565b600073ffffffffffffffffffffffffffffffffffffffff82169050919050565b600061147a8261144f565b9050919050565b61148a8161146f565b82525050565b61149981611139565b82525050565b600060a08301600083015184820360008601526114bc82826113fb565b915050602083015184820360208601526114d682826113fb565b91505060408301516114eb6040860182611440565b5060608301516114fe6060860182611481565b5060808301516115116080860182611490565b508091505092915050565b6000611528838361149f565b905092915050565b6000602082019050919050565b600061154882611389565b6115528185611394565b935083602082028501611564856113a5565b8060005b858110156115a05784840389528151611581858261151c565b945061158c83611530565b925060208a01995050600181019050611568565b50829750879550505050505092915050565b600060208201905081810360008301526115cc818461153d565b905092915050565b6000602082840312156115ea576115e961112f565b5b60006115f88482850161115a565b91505092915050565b600060a083016000830151848203600086015261161e82826113fb565b9150506020830151848203602086015261163882826113fb565b915050604083015161164d6040860182611440565b5060608301516116606060860182611481565b5060808301516116736080860182611490565b508091505092915050565b600060208201905081810360008301526116988184611601565b905092915050565b7f4e487b7100000000000000000000000000000000000000000000000000000000600052603260045260246000fd5b7f4e487b7100000000000000000000000000000000000000000000000000000000600052602260045260246000fd5b6000600282049050600182168061171657607f821691505b602082108103611729576117286116cf565b5b50919050565b60008190508160005260206000209050919050565b60006020601f8301049050919050565b600082821b905092915050565b6000600883026117917fffffffffffffffffffffffffffffffffffffffffffffffffffffffffffffffff82611754565b61179b8683611754565b95508019841693508086168417925050509392505050565b6000819050919050565b60006117d86117d36117ce84611139565b6117b3565b611139565b9050919050565b6000819050919050565b6117f2836117bd565b6118066117fe826117df565b848454611761565b825550505050565b600090565b61181b61180e565b6118268184846117e9565b505050565b5b8181101561184a5761183f600082611813565b60018101905061182c565b5050565b601f82111561188f576118608161172f565b61186984611744565b81016020851015611878578190505b61188c61188485611744565b83018261182b565b50505b505050565b600082821c905092915050565b60006118b260001984600802611894565b1980831691505092915050565b60006118cb83836118a1565b9150826002028217905092915050565b6118e4826113b5565b67ffffffffffffffff8111156118fd576118fc61118a565b5b61190782546116fe565b61191282828561184e565b600060209050601f8311600181146119455760008415611933578287015190505b61193d85826118bf565b8655506119a5565b601f1984166119538661172f565b60005b8281101561197b57848901518255600182019150602085019450602081019050611956565b868310156119985784890151611994601f8916826118a1565b8355505b6001600288020188555050505b505050505050565b7f4e487b7100000000000000000000000000000000000000000000000000000000600052601160045260246000fd5b60006119e782611139565b91507fffffffffffffffffffffffffffffffffffffffffffffffffffffffffffffffff8203611a1957611a186119ad565b5b600182019050919050565b600082825260208201905092915050565b7f6e6f20746f646f20637265617465640000000000000000000000000000000000600082015250565b6000611a6b600f83611a24565b9150611a7682611a35565b602082019050919050565b60006020820190508181036000830152611a9a81611a5e565b905091905056fea264697066735822122047cc70eb604c801ee97394caa867e264f98bcb032629c4e43fd36f5df491327d64736f6c634300081e0033",
  "linkReferences": {},
  "deployedLinkReferences": {}
}