{
  "contracts/Lottery.sol": {
    "Lottery": {
      "abi": [
        {
          "inputs": [],
          "stateMutability": "nonpayable",
          "type": "constructor"
        },
        {
          "anonymous": false,
          "inputs": [
            {
              "indexed": true,
              "internalType": "address",
              "name": "player",
              "type": "address"
            },
            {
              "indexed": true,
              "internalType": "uint256",
              "name": "round",
              "type": "uint256"
            }
          ],
          "name": "PlayerJoined",
          "type": "event"
        },
        {
          "anonymous": false,
          "inputs": [
            {
              "indexed": true,
              "internalType": "address",
              "name": "winner",
              "type": "address"
            },
            {
              "indexed": true,
              "internalType": "uint256",
              "name": "round",
              "type": "uint256"
            },
            {
              "indexed": false,
              "internalType": "uint256",
              "name": "prize",
              "type": "uint256"
            }
          ],
          "name": "WinnerSelected",
          "type": "event"
        },
        {
          "inputs": [],
          "name": "ENTRY_FEE",
          "outputs": [
            {
              "internalType": "uint256",
              "name": "",
              "type": "uint256"
            }
          ],
          "stateMutability": "view",
          "type": "function"
        },
        {
          "inputs": [],
          "name": "MAX_PLAYERS",
          "outputs": [
            {
              "internalType": "uint8",
              "name": "",
              "type": "uint8"
            }
          ],
          "stateMutability": "view",
          "type": "function"
        },
        {
          "inputs": [],
          "name": "enterLottery",
          "outputs": [],
          "stateMutability": "payable",
          "type": "function"
        },
        {
          "inputs": [],
          "name": "getCurrentRound",
          "outputs": [
            {
              "internalType": "uint256",
              "name": "",
              "type": "uint256"
            }
          ],
          "stateMutability": "view",
          "type": "function"
        },
        {
          "inputs": [],
          "name": "getParticipants",
          "outputs": [
            {
              "internalType": "address[]",
              "name": "",
              "type": "address[]"
            }
          ],
          "stateMutability": "view",
          "type": "function"
        },
        {
          "inputs": [],
          "name": "getPrizePool",
          "outputs": [
            {
              "internalType": "uint256",
              "name": "",
              "type": "uint256"
            }
          ],
          "stateMutability": "view",
          "type": "function"
        },
        {
          "inputs": [],
          "name": "roundNumber",
          "outputs": [
            {
              "internalType": "uint256",
              "name": "",
              "type": "uint256"
            }
          ],
          "stateMutability": "view",
          "type": "function"
        }
      ],
      "evm": {
        "bytecode": {
          "linkReferences": {},
          "object": "6080604052348015600f57600080fd5b506001600081905550610c5a806100276000396000f3fe6080604052600436106100705760003560e01c8063884bf67c1161004e578063884bf67c146100f6578063a32bf59714610121578063c1af57851461014c578063f6d361cc1461015657610070565b80634411b3eb146100755780634e2786fb146100a05780635aa68ac0146100cb575b600080fd5b34801561008157600080fd5b5061008a610181565b60405161009791906106db565b60405180910390f35b3480156100ac57600080fd5b506100b5610186565b6040516100c2919061070f565b60405180910390f35b3480156100d757600080fd5b506100e061018c565b6040516100ed919061081a565b60405180910390f35b34801561010257600080fd5b5061010b61021a565b604051610118919061070f565b60405180910390f35b34801561012d57600080fd5b50610136610222565b604051610143919061070f565b60405180910390f35b61015461022b565b005b34801561016257600080fd5b5061016b610468565b604051610178919061070f565b60405180910390f35b600a81565b60005481565b6060600180548060200260200160405190810160405280929190818152602001828054801561021057602002820191906000526020600020905b8160009054906101000a900473ffffffffffffffffffffffffffffffffffffffff1673ffffffffffffffffffffffffffffffffffffffff16815260200190600101908083116101c6575b5050505050905090565b600047905090565b60008054905090565b662386f26fc100003414610274576040517f08c379a000000000000000000000000000000000000000000000000000000000815260040161026b90610899565b60405180910390fd5b600260003373ffffffffffffffffffffffffffffffffffffffff1673ffffffffffffffffffffffffffffffffffffffff16815260200190815260200160002060009054906101000a900460ff1615610301576040517f08c379a00000000000000000000000000000000000000000000000000000000081526004016102f890610905565b60405180910390fd5b600a60ff166001805490501061034c576040517f08c379a000000000000000000000000000000000000000000000000000000000815260040161034390610971565b60405180910390fd5b6001339080600181540180825580915050600190039060005260206000200160009091909190916101000a81548173ffffffffffffffffffffffffffffffffffffffff021916908373ffffffffffffffffffffffffffffffffffffffff1602179055506001600260003373ffffffffffffffffffffffffffffffffffffffff1673ffffffffffffffffffffffffffffffffffffffff16815260200190815260200160002060006101000a81548160ff0219169083151502179055506000543373ffffffffffffffffffffffffffffffffffffffff167f3330a6773675f31f62070870f40379f8c6d42e3761410011a4dfc42b18043d2f60405160405180910390a3600a60ff166001805490500361046657610465610473565b5b565b662386f26fc1000081565b6000600a60ff164244600160405160200161049093929190610ad0565b6040516020818303038152906040528051906020012060001c6104b39190610b38565b90506000600182815481106104cb576104ca610b69565b5b9060005260206000200160009054906101000a900473ffffffffffffffffffffffffffffffffffffffff16905060004790508173ffffffffffffffffffffffffffffffffffffffff166108fc829081150290604051600060405180830381858888f19350505050158015610543573d6000803e3d6000fd5b506000548273ffffffffffffffffffffffffffffffffffffffff167f866efae43947560fe9d0de9013bc323d5718730d5c1543261b48a7bcb0717b938360405161058d919061070f565b60405180910390a360005b6001805490508160ff1610156106545760006002600060018460ff16815481106105c5576105c4610b69565b5b9060005260206000200160009054906101000a900473ffffffffffffffffffffffffffffffffffffffff1673ffffffffffffffffffffffffffffffffffffffff1673ffffffffffffffffffffffffffffffffffffffff16815260200190815260200160002060006101000a81548160ff021916908315150217905550808061064c90610bc7565b915050610598565b50600160006106639190610681565b60016000808282546106759190610bf0565b92505081905550505050565b508054600082559060005260206000209081019061069f91906106a2565b50565b5b808211156106bb5760008160009055506001016106a3565b5090565b600060ff82169050919050565b6106d5816106bf565b82525050565b60006020820190506106f060008301846106cc565b92915050565b6000819050919050565b610709816106f6565b82525050565b60006020820190506107246000830184610700565b92915050565b600081519050919050565b600082825260208201905092915050565b6000819050602082019050919050565b600073ffffffffffffffffffffffffffffffffffffffff82169050919050565b600061078182610756565b9050919050565b61079181610776565b82525050565b60006107a38383610788565b60208301905092915050565b6000602082019050919050565b60006107c78261072a565b6107d18185610735565b93506107dc83610746565b8060005b8381101561080d5781516107f48882610797565b97506107ff836107af565b9250506001810190506107e0565b5085935050505092915050565b6000602082019050818103600083015261083481846107bc565b905092915050565b600082825260208201905092915050565b7f496e76616c696420656e74727920666565000000000000000000000000000000600082015250565b600061088360118361083c565b915061088e8261084d565b602082019050919050565b600060208201905081810360008301526108b281610876565b9050919050565b7f416c726561647920656e7465726564207468697320726f756e64000000000000600082015250565b60006108ef601a8361083c565b91506108fa826108b9565b602082019050919050565b6000602082019050818103600083015261091e816108e2565b9050919050565b7f4c6f74746572792066756c6c0000000000000000000000000000000000000000600082015250565b600061095b600c8361083c565b915061096682610925565b602082019050919050565b6000602082019050818103600083015261098a8161094e565b9050919050565b6000819050919050565b6109ac6109a7826106f6565b610991565b82525050565b600081549050919050565b600081905092915050565b60008190508160005260206000209050919050565b6109e681610776565b82525050565b60006109f883836109dd565b60208301905092915050565b60008160001c9050919050565b600073ffffffffffffffffffffffffffffffffffffffff82169050919050565b6000610a44610a3f83610a04565b610a11565b9050919050565b6000610a578254610a31565b9050919050565b6000600182019050919050565b6000610a76826109b2565b610a8081856109bd565b9350610a8b836109c8565b8060005b83811015610ac357610aa082610a4b565b610aaa88826109ec565b9750610ab583610a5e565b925050600181019050610a8f565b5085935050505092915050565b6000610adc828661099b565b602082019150610aec828561099b565b602082019150610afc8284610a6b565b9150819050949350505050565b7f4e487b7100000000000000000000000000000000000000000000000000000000600052601260045260246000fd5b6000610b43826106f6565b9150610b4e836106f6565b925082610b5e57610b5d610b09565b5b828206905092915050565b7f4e487b7100000000000000000000000000000000000000000000000000000000600052603260045260246000fd5b7f4e487b7100000000000000000000000000000000000000000000000000000000600052601160045260246000fd5b6000610bd2826106bf565b915060ff8203610be557610be4610b98565b5b600182019050919050565b6000610bfb826106f6565b9150610c06836106f6565b9250828201905080821115610c1e57610c1d610b98565b5b9291505056fea2646970667358221220fc3d0f52a74f6a3043ed4fc3cc23a7fcfb59e8244532f1270cf5eb5401c3bbfb64736f6c634300081c0033",
          "opcodes": "PUSH1 0x80 PUSH1 0x40 MSTORE CALLVALUE DUP1 ISZERO PUSH1 0xF JUMPI PUSH1 0x0 DUP1 REVERT JUMPDEST POP PUSH1 0x1 PUSH1 0x0 DUP2 SWAP1 SSTORE POP PUSH2 0xC5A DUP1 PUSH2 0x27 PUSH1 0x0 CODECOPY PUSH1 0x0 RETURN INVALID PUSH1 0x80 PUSH1 0x40 MSTORE PUSH1 0x4 CALLDATASIZE LT PUSH2 0x70 JUMPI PUSH1 0x0 CALLDATALOAD PUSH1 0xE0 SHR DUP1 PUSH4 0x884BF67C GT PUSH2 0x4E JUMPI DUP1 PUSH4 0x884BF67C EQ PUSH2 0xF6 JUMPI DUP1 PUSH4 0xA32BF597 EQ PUSH2 0x121 JUMPI DUP1 PUSH4 0xC1AF5785 EQ PUSH2 0x14C JUMPI DUP1 PUSH4 0xF6D361CC EQ PUSH2 0x156 JUMPI PUSH2 0x70 JUMP JUMPDEST DUP1 PUSH4 0x4411B3EB EQ PUSH2 0x75 JUMPI DUP1 PUSH4 0x4E2786FB EQ PUSH2 0xA0 JUMPI DUP1 PUSH4 0x5AA68AC0 EQ PUSH2 0xCB JUMPI JUMPDEST PUSH1 0x0 DUP1 REVERT JUMPDEST CALLVALUE DUP1 ISZERO PUSH2 0x81 JUMPI PUSH1 0x0 DUP1 REVERT JUMPDEST POP PUSH2 0x8A PUSH2 0x181 JUMP JUMPDEST PUSH1 0x40 MLOAD PUSH2 0x97 SWAP2 SWAP1 PUSH2 0x6DB JUMP JUMPDEST PUSH1 0x40 MLOAD DUP1 SWAP2 SUB SWAP1 RETURN JUMPDEST CALLVALUE DUP1 ISZERO PUSH2 0xAC JUMPI PUSH1 0x0 DUP1 REVERT JUMPDEST POP PUSH2 0xB5 PUSH2 0x186 JUMP JUMPDEST PUSH1 0x40 MLOAD PUSH2 0xC2 SWAP2 SWAP1 PUSH2 0x70F JUMP JUMPDEST PUSH1 0x40 MLOAD DUP1 SWAP2 SUB SWAP1 RETURN JUMPDEST CALLVALUE DUP1 ISZERO PUSH2 0xD7 JUMPI PUSH1 0x0 DUP1 REVERT JUMPDEST POP PUSH2 0xE0 PUSH2 0x18C JUMP JUMPDEST PUSH1 0x40 MLOAD PUSH2 0xED SWAP2 SWAP1 PUSH2 0x81A JUMP JUMPDEST PUSH1 0x40 MLOAD DUP1 SWAP2 SUB SWAP1 RETURN JUMPDEST CALLVALUE DUP1 ISZERO PUSH2 0x102 JUMPI PUSH1 0x0 DUP1 REVERT JUMPDEST POP PUSH2 0x10B PUSH2 0x21A JUMP JUMPDEST PUSH1 0x40 MLOAD PUSH2 0x118 SWAP2 SWAP1 PUSH2 0x70F JUMP JUMPDEST PUSH1 0x40 MLOAD DUP1 SWAP2 SUB SWAP1 RETURN JUMPDEST CALLVALUE DUP1 ISZERO PUSH2 0x12D JUMPI PUSH1 0x0 DUP1 REVERT JUMPDEST POP PUSH2 0x136 PUSH2 0x222 JUMP JUMPDEST PUSH1 0x40 MLOAD PUSH2 0x143 SWAP2 SWAP1 PUSH2 0x70F JUMP JUMPDEST PUSH1 0x40 MLOAD DUP1 SWAP2 SUB SWAP1 RETURN JUMPDEST PUSH2 0x154 PUSH2 0x22B JUMP JUMPDEST STOP JUMPDEST CALLVALUE DUP1 ISZERO PUSH2 0x162 JUMPI PUSH1 0x0 DUP1 REVERT JUMPDEST POP PUSH2 0x16B PUSH2 0x468 JUMP JUMPDEST PUSH1 0x40 MLOAD PUSH2 0x178 SWAP2 SWAP1 PUSH2 0x70F JUMP JUMPDEST PUSH1 0x40 MLOAD DUP1 SWAP2 SUB SWAP1 RETURN JUMPDEST PUSH1 0xA DUP2 JUMP JUMPDEST PUSH1 0x0 SLOAD DUP2 JUMP JUMPDEST PUSH1 0x60 PUSH1 0x1 DUP1 SLOAD DUP1 PUSH1 0x20 MUL PUSH1 0x20 ADD PUSH1 0x40 MLOAD SWAP1 DUP2 ADD PUSH1 0x40 MSTORE DUP1 SWAP3 SWAP2 SWAP1 DUP2 DUP2 MSTORE PUSH1 0x20 ADD DUP3 DUP1 SLOAD DUP1 ISZERO PUSH2 0x210 JUMPI PUSH1 0x20 MUL DUP3 ADD SWAP2 SWAP1 PUSH1 0x0 MSTORE PUSH1 0x20 PUSH1 0x0 KECCAK256 SWAP1 JUMPDEST DUP2 PUSH1 0x0 SWAP1 SLOAD SWAP1 PUSH2 0x100 EXP SWAP1 DIV PUSH20 0xFFFFFFFFFFFFFFFFFFFFFFFFFFFFFFFFFFFFFFFF AND PUSH20 0xFFFFFFFFFFFFFFFFFFFFFFFFFFFFFFFFFFFFFFFF AND DUP2 MSTORE PUSH1 0x20 ADD SWAP1 PUSH1 0x1 ADD SWAP1 DUP1 DUP4 GT PUSH2 0x1C6 JUMPI JUMPDEST POP POP POP POP POP SWAP1 POP SWAP1 JUMP JUMPDEST PUSH1 0x0 SELFBALANCE SWAP1 POP SWAP1 JUMP JUMPDEST PUSH1 0x0 DUP1 SLOAD SWAP1 POP SWAP1 JUMP JUMPDEST PUSH7 0x2386F26FC10000 CALLVALUE EQ PUSH2 0x274 JUMPI PUSH1 0x40 MLOAD PUSH32 0x8C379A000000000000000000000000000000000000000000000000000000000 DUP2 MSTORE PUSH1 0x4 ADD PUSH2 0x26B SWAP1 PUSH2 0x899 JUMP JUMPDEST PUSH1 0x40 MLOAD DUP1 SWAP2 SUB SWAP1 REVERT JUMPDEST PUSH1 0x2 PUSH1 0x0 CALLER PUSH20 0xFFFFFFFFFFFFFFFFFFFFFFFFFFFFFFFFFFFFFFFF AND PUSH20 0xFFFFFFFFFFFFFFFFFFFFFFFFFFFFFFFFFFFFFFFF AND DUP2 MSTORE PUSH1 0x20 ADD SWAP1 DUP2 MSTORE PUSH1 0x20 ADD PUSH1 0x0 KECCAK256 PUSH1 0x0 SWAP1 SLOAD SWAP1 PUSH2 0x100 EXP SWAP1 DIV PUSH1 0xFF AND ISZERO PUSH2 0x301 JUMPI PUSH1 0x40 MLOAD PUSH32 0x8C379A000000000000000000000000000000000000000000000000000000000 DUP2 MSTORE PUSH1 0x4 ADD PUSH2 0x2F8 SWAP1 PUSH2 0x905 JUMP JUMPDEST PUSH1 0x40 MLOAD DUP1 SWAP2 SUB SWAP1 REVERT JUMPDEST PUSH1 0xA PUSH1 0xFF AND PUSH1 0x1 DUP1 SLOAD SWAP1 POP LT PUSH2 0x34C JUMPI PUSH1 0x40 MLOAD PUSH32 0x8C379A000000000000000000000000000000000000000000000000000000000 DUP2 MSTORE PUSH1 0x4 ADD PUSH2 0x343 SWAP1 PUSH2 0x971 JUMP JUMPDEST PUSH1 0x40 MLOAD DUP1 SWAP2 SUB SWAP1 REVERT JUMPDEST PUSH1 0x1 CALLER SWAP1 DUP1 PUSH1 0x1 DUP2 SLOAD ADD DUP1 DUP3 SSTORE DUP1 SWAP2 POP POP PUSH1 0x1 SWAP1 SUB SWAP1 PUSH1 0x0 MSTORE PUSH1 0x20 PUSH1 0x0 KECCAK256 ADD PUSH1 0x0 SWAP1 SWAP2 SWAP1 SWAP2 SWAP1 SWAP2 PUSH2 0x100 EXP DUP2 SLOAD DUP2 PUSH20 0xFFFFFFFFFFFFFFFFFFFFFFFFFFFFFFFFFFFFFFFF MUL NOT AND SWAP1 DUP4 PUSH20 0xFFFFFFFFFFFFFFFFFFFFFFFFFFFFFFFFFFFFFFFF AND MUL OR SWAP1 SSTORE POP PUSH1 0x1 PUSH1 0x2 PUSH1 0x0 CALLER PUSH20 0xFFFFFFFFFFFFFFFFFFFFFFFFFFFFFFFFFFFFFFFF AND PUSH20 0xFFFFFFFFFFFFFFFFFFFFFFFFFFFFFFFFFFFFFFFF AND DUP2 MSTORE PUSH1 0x20 ADD SWAP1 DUP2 MSTORE PUSH1 0x20 ADD PUSH1 0x0 KECCAK256 PUSH1 0x0 PUSH2 0x100 EXP DUP2 SLOAD DUP2 PUSH1 0xFF MUL NOT AND SWAP1 DUP4 ISZERO ISZERO MUL OR SWAP1 SSTORE POP PUSH1 0x0 SLOAD CALLER PUSH20 0xFFFFFFFFFFFFFFFFFFFFFFFFFFFFFFFFFFFFFFFF AND PUSH32 0x3330A6773675F31F62070870F40379F8C6D42E3761410011A4DFC42B18043D2F PUSH1 0x40 MLOAD PUSH1 0x40 MLOAD DUP1 SWAP2 SUB SWAP1 LOG3 PUSH1 0xA PUSH1 0xFF AND PUSH1 0x1 DUP1 SLOAD SWAP1 POP SUB PUSH2 0x466 JUMPI PUSH2 0x465 PUSH2 0x473 JUMP JUMPDEST JUMPDEST JUMP JUMPDEST PUSH7 0x2386F26FC10000 DUP2 JUMP JUMPDEST PUSH1 0x0 PUSH1 0xA PUSH1 0xFF AND TIMESTAMP PREVRANDAO PUSH1 0x1 PUSH1 0x40 MLOAD PUSH1 0x20 ADD PUSH2 0x490 SWAP4 SWAP3 SWAP2 SWAP1 PUSH2 0xAD0 JUMP JUMPDEST PUSH1 0x40 MLOAD PUSH1 0x20 DUP2 DUP4 SUB SUB DUP2 MSTORE SWAP1 PUSH1 0x40 MSTORE DUP1 MLOAD SWAP1 PUSH1 0x20 ADD KECCAK256 PUSH1 0x0 SHR PUSH2 0x4B3 SWAP2 SWAP1 PUSH2 0xB38 JUMP JUMPDEST SWAP1 POP PUSH1 0x0 PUSH1 0x1 DUP3 DUP2 SLOAD DUP2 LT PUSH2 0x4CB JUMPI PUSH2 0x4CA PUSH2 0xB69 JUMP JUMPDEST JUMPDEST SWAP1 PUSH1 0x0 MSTORE PUSH1 0x20 PUSH1 0x0 KECCAK256 ADD PUSH1 0x0 SWAP1 SLOAD SWAP1 PUSH2 0x100 EXP SWAP1 DIV PUSH20 0xFFFFFFFFFFFFFFFFFFFFFFFFFFFFFFFFFFFFFFFF AND SWAP1 POP PUSH1 0x0 SELFBALANCE SWAP1 POP DUP2 PUSH20 0xFFFFFFFFFFFFFFFFFFFFFFFFFFFFFFFFFFFFFFFF AND PUSH2 0x8FC DUP3 SWAP1 DUP2 ISZERO MUL SWAP1 PUSH1 0x40 MLOAD PUSH1 0x0 PUSH1 0x40 MLOAD DUP1 DUP4 SUB DUP2 DUP6 DUP9 DUP9 CALL SWAP4 POP POP POP POP ISZERO DUP1 ISZERO PUSH2 0x543 JUMPI RETURNDATASIZE PUSH1 0x0 DUP1 RETURNDATACOPY RETURNDATASIZE PUSH1 0x0 REVERT JUMPDEST POP PUSH1 0x0 SLOAD DUP3 PUSH20 0xFFFFFFFFFFFFFFFFFFFFFFFFFFFFFFFFFFFFFFFF AND PUSH32 0x866EFAE43947560FE9D0DE9013BC323D5718730D5C1543261B48A7BCB0717B93 DUP4 PUSH1 0x40 MLOAD PUSH2 0x58D SWAP2 SWAP1 PUSH2 0x70F JUMP JUMPDEST PUSH1 0x40 MLOAD DUP1 SWAP2 SUB SWAP1 LOG3 PUSH1 0x0 JUMPDEST PUSH1 0x1 DUP1 SLOAD SWAP1 POP DUP2 PUSH1 0xFF AND LT ISZERO PUSH2 0x654 JUMPI PUSH1 0x0 PUSH1 0x2 PUSH1 0x0 PUSH1 0x1 DUP5 PUSH1 0xFF AND DUP2 SLOAD DUP2 LT PUSH2 0x5C5 JUMPI PUSH2 0x5C4 PUSH2 0xB69 JUMP JUMPDEST JUMPDEST SWAP1 PUSH1 0x0 MSTORE PUSH1 0x20 PUSH1 0x0 KECCAK256 ADD PUSH1 0x0 SWAP1 SLOAD SWAP1 PUSH2 0x100 EXP SWAP1 DIV PUSH20 0xFFFFFFFFFFFFFFFFFFFFFFFFFFFFFFFFFFFFFFFF AND PUSH20 0xFFFFFFFFFFFFFFFFFFFFFFFFFFFFFFFFFFFFFFFF AND PUSH20 0xFFFFFFFFFFFFFFFFFFFFFFFFFFFFFFFFFFFFFFFF AND DUP2 MSTORE PUSH1 0x20 ADD SWAP1 DUP2 MSTORE PUSH1 0x20 ADD PUSH1 0x0 KECCAK256 PUSH1 0x0 PUSH2 0x100 EXP DUP2 SLOAD DUP2 PUSH1 0xFF MUL NOT AND SWAP1 DUP4 ISZERO ISZERO MUL OR SWAP1 SSTORE POP DUP1 DUP1 PUSH2 0x64C SWAP1 PUSH2 0xBC7 JUMP JUMPDEST SWAP2 POP POP PUSH2 0x598 JUMP JUMPDEST POP PUSH1 0x1 PUSH1 0x0 PUSH2 0x663 SWAP2 SWAP1 PUSH2 0x681 JUMP JUMPDEST PUSH1 0x1 PUSH1 0x0 DUP1 DUP3 DUP3 SLOAD PUSH2 0x675 SWAP2 SWAP1 PUSH2 0xBF0 JUMP JUMPDEST SWAP3 POP POP DUP2 SWAP1 SSTORE POP POP POP POP JUMP JUMPDEST POP DUP1 SLOAD PUSH1 0x0 DUP3 SSTORE SWAP1 PUSH1 0x0 MSTORE PUSH1 0x20 PUSH1 0x0 KECCAK256 SWAP1 DUP2 ADD SWAP1 PUSH2 0x69F SWAP2 SWAP1 PUSH2 0x6A2 JUMP JUMPDEST POP JUMP JUMPDEST JUMPDEST DUP1 DUP3 GT ISZERO PUSH2 0x6BB JUMPI PUSH1 0x0 DUP2 PUSH1 0x0 SWAP1 SSTORE POP PUSH1 0x1 ADD PUSH2 0x6A3 JUMP JUMPDEST POP SWAP1 JUMP JUMPDEST PUSH1 0x0 PUSH1 0xFF DUP3 AND SWAP1 POP SWAP2 SWAP1 POP JUMP JUMPDEST PUSH2 0x6D5 DUP2 PUSH2 0x6BF JUMP JUMPDEST DUP3 MSTORE POP POP JUMP JUMPDEST PUSH1 0x0 PUSH1 0x20 DUP3 ADD SWAP1 POP PUSH2 0x6F0 PUSH1 0x0 DUP4 ADD DUP5 PUSH2 0x6CC JUMP JUMPDEST SWAP3 SWAP2 POP POP JUMP JUMPDEST PUSH1 0x0 DUP2 SWAP1 POP SWAP2 SWAP1 POP JUMP JUMPDEST PUSH2 0x709 DUP2 PUSH2 0x6F6 JUMP JUMPDEST DUP3 MSTORE POP POP JUMP JUMPDEST PUSH1 0x0 PUSH1 0x20 DUP3 ADD SWAP1 POP PUSH2 0x724 PUSH1 0x0 DUP4 ADD DUP5 PUSH2 0x700 JUMP JUMPDEST SWAP3 SWAP2 POP POP JUMP JUMPDEST PUSH1 0x0 DUP2 MLOAD SWAP1 POP SWAP2 SWAP1 POP JUMP JUMPDEST PUSH1 0x0 DUP3 DUP3 MSTORE PUSH1 0x20 DUP3 ADD SWAP1 POP SWAP3 SWAP2 POP POP JUMP JUMPDEST PUSH1 0x0 DUP2 SWAP1 POP PUSH1 0x20 DUP3 ADD SWAP1 POP SWAP2 SWAP1 POP JUMP JUMPDEST PUSH1 0x0 PUSH20 0xFFFFFFFFFFFFFFFFFFFFFFFFFFFFFFFFFFFFFFFF DUP3 AND SWAP1 POP SWAP2 SWAP1 POP JUMP JUMPDEST PUSH1 0x0 PUSH2 0x781 DUP3 PUSH2 0x756 JUMP JUMPDEST SWAP1 POP SWAP2 SWAP1 POP JUMP JUMPDEST PUSH2 0x791 DUP2 PUSH2 0x776 JUMP JUMPDEST DUP3 MSTORE POP POP JUMP JUMPDEST PUSH1 0x0 PUSH2 0x7A3 DUP4 DUP4 PUSH2 0x788 JUMP JUMPDEST PUSH1 0x20 DUP4 ADD SWAP1 POP SWAP3 SWAP2 POP POP JUMP JUMPDEST PUSH1 0x0 PUSH1 0x20 DUP3 ADD SWAP1 POP SWAP2 SWAP1 POP JUMP JUMPDEST PUSH1 0x0 PUSH2 0x7C7 DUP3 PUSH2 0x72A JUMP JUMPDEST PUSH2 0x7D1 DUP2 DUP6 PUSH2 0x735 JUMP JUMPDEST SWAP4 POP PUSH2 0x7DC DUP4 PUSH2 0x746 JUMP JUMPDEST DUP1 PUSH1 0x0 JUMPDEST DUP4 DUP2 LT ISZERO PUSH2 0x80D JUMPI DUP2 MLOAD PUSH2 0x7F4 DUP9 DUP3 PUSH2 0x797 JUMP JUMPDEST SWAP8 POP PUSH2 0x7FF DUP4 PUSH2 0x7AF JUMP JUMPDEST SWAP3 POP POP PUSH1 0x1 DUP2 ADD SWAP1 POP PUSH2 0x7E0 JUMP JUMPDEST POP DUP6 SWAP4 POP POP POP POP SWAP3 SWAP2 POP POP JUMP JUMPDEST PUSH1 0x0 PUSH1 0x20 DUP3 ADD SWAP1 POP DUP2 DUP2 SUB PUSH1 0x0 DUP4 ADD MSTORE PUSH2 0x834 DUP2 DUP5 PUSH2 0x7BC JUMP JUMPDEST SWAP1 POP SWAP3 SWAP2 POP POP JUMP JUMPDEST PUSH1 0x0 DUP3 DUP3 MSTORE PUSH1 0x20 DUP3 ADD SWAP1 POP SWAP3 SWAP2 POP POP JUMP JUMPDEST PUSH32 0x496E76616C696420656E74727920666565000000000000000000000000000000 PUSH1 0x0 DUP3 ADD MSTORE POP JUMP JUMPDEST PUSH1 0x0 PUSH2 0x883 PUSH1 0x11 DUP4 PUSH2 0x83C JUMP JUMPDEST SWAP2 POP PUSH2 0x88E DUP3 PUSH2 0x84D JUMP JUMPDEST PUSH1 0x20 DUP3 ADD SWAP1 POP SWAP2 SWAP1 POP JUMP JUMPDEST PUSH1 0x0 PUSH1 0x20 DUP3 ADD SWAP1 POP DUP2 DUP2 SUB PUSH1 0x0 DUP4 ADD MSTORE PUSH2 0x8B2 DUP2 PUSH2 0x876 JUMP JUMPDEST SWAP1 POP SWAP2 SWAP1 POP JUMP JUMPDEST PUSH32 0x416C726561647920656E7465726564207468697320726F756E64000000000000 PUSH1 0x0 DUP3 ADD MSTORE POP JUMP JUMPDEST PUSH1 0x0 PUSH2 0x8EF PUSH1 0x1A DUP4 PUSH2 0x83C JUMP JUMPDEST SWAP2 POP PUSH2 0x8FA DUP3 PUSH2 0x8B9 JUMP JUMPDEST PUSH1 0x20 DUP3 ADD SWAP1 POP SWAP2 SWAP1 POP JUMP JUMPDEST PUSH1 0x0 PUSH1 0x20 DUP3 ADD SWAP1 POP DUP2 DUP2 SUB PUSH1 0x0 DUP4 ADD MSTORE PUSH2 0x91E DUP2 PUSH2 0x8E2 JUMP JUMPDEST SWAP1 POP SWAP2 SWAP1 POP JUMP JUMPDEST PUSH32 0x4C6F74746572792066756C6C0000000000000000000000000000000000000000 PUSH1 0x0 DUP3 ADD MSTORE POP JUMP JUMPDEST PUSH1 0x0 PUSH2 0x95B PUSH1 0xC DUP4 PUSH2 0x83C JUMP JUMPDEST SWAP2 POP PUSH2 0x966 DUP3 PUSH2 0x925 JUMP JUMPDEST PUSH1 0x20 DUP3 ADD SWAP1 POP SWAP2 SWAP1 POP JUMP JUMPDEST PUSH1 0x0 PUSH1 0x20 DUP3 ADD SWAP1 POP DUP2 DUP2 SUB PUSH1 0x0 DUP4 ADD MSTORE PUSH2 0x98A DUP2 PUSH2 0x94E JUMP JUMPDEST SWAP1 POP SWAP2 SWAP1 POP JUMP JUMPDEST PUSH1 0x0 DUP2 SWAP1 POP SWAP2 SWAP1 POP JUMP JUMPDEST PUSH2 0x9AC PUSH2 0x9A7 DUP3 PUSH2 0x6F6 JUMP JUMPDEST PUSH2 0x991 JUMP JUMPDEST DUP3 MSTORE POP POP JUMP JUMPDEST PUSH1 0x0 DUP2 SLOAD SWAP1 POP SWAP2 SWAP1 POP JUMP JUMPDEST PUSH1 0x0 DUP2 SWAP1 POP SWAP3 SWAP2 POP POP JUMP JUMPDEST PUSH1 0x0 DUP2 SWAP1 POP DUP2 PUSH1 0x0 MSTORE PUSH1 0x20 PUSH1 0x0 KECCAK256 SWAP1 POP SWAP2 SWAP1 POP JUMP JUMPDEST PUSH2 0x9E6 DUP2 PUSH2 0x776 JUMP JUMPDEST DUP3 MSTORE POP POP JUMP JUMPDEST PUSH1 0x0 PUSH2 0x9F8 DUP4 DUP4 PUSH2 0x9DD JUMP JUMPDEST PUSH1 0x20 DUP4 ADD SWAP1 POP SWAP3 SWAP2 POP POP JUMP JUMPDEST PUSH1 0x0 DUP2 PUSH1 0x0 SHR SWAP1 POP SWAP2 SWAP1 POP JUMP JUMPDEST PUSH1 0x0 PUSH20 0xFFFFFFFFFFFFFFFFFFFFFFFFFFFFFFFFFFFFFFFF DUP3 AND SWAP1 POP SWAP2 SWAP1 POP JUMP JUMPDEST PUSH1 0x0 PUSH2 0xA44 PUSH2 0xA3F DUP4 PUSH2 0xA04 JUMP JUMPDEST PUSH2 0xA11 JUMP JUMPDEST SWAP1 POP SWAP2 SWAP1 POP JUMP JUMPDEST PUSH1 0x0 PUSH2 0xA57 DUP3 SLOAD PUSH2 0xA31 JUMP JUMPDEST SWAP1 POP SWAP2 SWAP1 POP JUMP JUMPDEST PUSH1 0x0 PUSH1 0x1 DUP3 ADD SWAP1 POP SWAP2 SWAP1 POP JUMP JUMPDEST PUSH1 0x0 PUSH2 0xA76 DUP3 PUSH2 0x9B2 JUMP JUMPDEST PUSH2 0xA80 DUP2 DUP6 PUSH2 0x9BD JUMP JUMPDEST SWAP4 POP PUSH2 0xA8B DUP4 PUSH2 0x9C8 JUMP JUMPDEST DUP1 PUSH1 0x0 JUMPDEST DUP4 DUP2 LT ISZERO PUSH2 0xAC3 JUMPI PUSH2 0xAA0 DUP3 PUSH2 0xA4B JUMP JUMPDEST PUSH2 0xAAA DUP9 DUP3 PUSH2 0x9EC JUMP JUMPDEST SWAP8 POP PUSH2 0xAB5 DUP4 PUSH2 0xA5E JUMP JUMPDEST SWAP3 POP POP PUSH1 0x1 DUP2 ADD SWAP1 POP PUSH2 0xA8F JUMP JUMPDEST POP DUP6 SWAP4 POP POP POP POP SWAP3 SWAP2 POP POP JUMP JUMPDEST PUSH1 0x0 PUSH2 0xADC DUP3 DUP7 PUSH2 0x99B JUMP JUMPDEST PUSH1 0x20 DUP3 ADD SWAP2 POP PUSH2 0xAEC DUP3 DUP6 PUSH2 0x99B JUMP JUMPDEST PUSH1 0x20 DUP3 ADD SWAP2 POP PUSH2 0xAFC DUP3 DUP5 PUSH2 0xA6B JUMP JUMPDEST SWAP2 POP DUP2 SWAP1 POP SWAP5 SWAP4 POP POP POP POP JUMP JUMPDEST PUSH32 0x4E487B7100000000000000000000000000000000000000000000000000000000 PUSH1 0x0 MSTORE PUSH1 0x12 PUSH1 0x4 MSTORE PUSH1 0x24 PUSH1 0x0 REVERT JUMPDEST PUSH1 0x0 PUSH2 0xB43 DUP3 PUSH2 0x6F6 JUMP JUMPDEST SWAP2 POP PUSH2 0xB4E DUP4 PUSH2 0x6F6 JUMP JUMPDEST SWAP3 POP DUP3 PUSH2 0xB5E JUMPI PUSH2 0xB5D PUSH2 0xB09 JUMP JUMPDEST JUMPDEST DUP3 DUP3 MOD SWAP1 POP SWAP3 SWAP2 POP POP JUMP JUMPDEST PUSH32 0x4E487B7100000000000000000000000000000000000000000000000000000000 PUSH1 0x0 MSTORE PUSH1 0x32 PUSH1 0x4 MSTORE PUSH1 0x24 PUSH1 0x0 REVERT JUMPDEST PUSH32 0x4E487B7100000000000000000000000000000000000000000000000000000000 PUSH1 0x0 MSTORE PUSH1 0x11 PUSH1 0x4 MSTORE PUSH1 0x24 PUSH1 0x0 REVERT JUMPDEST PUSH1 0x0 PUSH2 0xBD2 DUP3 PUSH2 0x6BF JUMP JUMPDEST SWAP2 POP PUSH1 0xFF DUP3 SUB PUSH2 0xBE5 JUMPI PUSH2 0xBE4 PUSH2 0xB98 JUMP JUMPDEST JUMPDEST PUSH1 0x1 DUP3 ADD SWAP1 POP SWAP2 SWAP1 POP JUMP JUMPDEST PUSH1 0x0 PUSH2 0xBFB DUP3 PUSH2 0x6F6 JUMP JUMPDEST SWAP2 POP PUSH2 0xC06 DUP4 PUSH2 0x6F6 JUMP JUMPDEST SWAP3 POP DUP3 DUP3 ADD SWAP1 POP DUP1 DUP3 GT ISZERO PUSH2 0xC1E JUMPI PUSH2 0xC1D PUSH2 0xB98 JUMP JUMPDEST JUMPDEST SWAP3 SWAP2 POP POP JUMP INVALID LOG2 PUSH5 0x6970667358 0x22 SLT KECCAK256 0xFC RETURNDATASIZE 0xF MSTORE 0xA7 0x4F PUSH11 0x3043ED4FC3CC23A7FCFB59 0xE8 0x24 GASLIMIT ORIGIN CALL 0x27 0xC CREATE2 0xEB SLOAD ADD 0xC3 0xBB 0xFB PUSH5 0x736F6C6343 STOP ADDMOD SHR STOP CALLER "
        },
        "methodIdentifiers": {
          "ENTRY_FEE()": "f6d361cc",
          "MAX_PLAYERS()": "4411b3eb",
          "enterLottery()": "c1af5785",
          "getCurrentRound()": "a32bf597",
          "getParticipants()": "5aa68ac0",
          "getPrizePool()": "884bf67c",
          "roundNumber()": "4e2786fb"
        }
      }
    }
  }
}