{
  "_format": "hh-sol-artifact-1",
  "contractName": "TeacherManagement",
  "sourceName": "contracts/TeacherManagement.sol",
  "abi": [
    {
      "inputs": [
        {
          "internalType": "uint256",
          "name": "required",
          "type": "uint256"
        },
        {
          "internalType": "uint256",
          "name": "available",
          "type": "uint256"
        }
      ],
      "name": "InsufficientBalance",
      "type": "error"
    },
    {
      "inputs": [],
      "name": "InvalidAddress",
      "type": "error"
    },
    {
      "inputs": [],
      "name": "InvalidSalaryAmount",
      "type": "error"
    },
    {
      "inputs": [],
      "name": "NameCannotBeEmpty",
      "type": "error"
    },
    {
      "inputs": [
        {
          "internalType": "uint256",
          "name": "requested",
          "type": "uint256"
        },
        {
          "internalType": "uint256",
          "name": "agreed",
          "type": "uint256"
        }
      ],
      "name": "SalaryExceedsAgreedAmount",
      "type": "error"
    },
    {
      "inputs": [
        {
          "internalType": "address",
          "name": "user",
          "type": "address"
        }
      ],
      "name": "UserAlreadyRegistered",
      "type": "error"
    },
    {
      "inputs": [
        {
          "internalType": "uint256",
          "name": "id",
          "type": "uint256"
        }
      ],
      "name": "UserNotEmployed",
      "type": "error"
    },
    {
      "inputs": [
        {
          "internalType": "uint256",
          "name": "id",
          "type": "uint256"
        }
      ],
      "name": "UserNotFound",
      "type": "error"
    },
    {
      "anonymous": false,
      "inputs": [
        {
          "indexed": true,
          "internalType": "address",
          "name": "userAddress",
          "type": "address"
        },
        {
          "indexed": false,
          "internalType": "uint256",
          "name": "id",
          "type": "uint256"
        },
        {
          "indexed": false,
          "internalType": "uint256",
          "name": "amount",
          "type": "uint256"
        }
      ],
      "name": "SalaryDisbursed",
      "type": "event"
    },
    {
      "anonymous": false,
      "inputs": [
        {
          "indexed": true,
          "internalType": "address",
          "name": "userAddress",
          "type": "address"
        },
        {
          "indexed": false,
          "internalType": "uint256",
          "name": "id",
          "type": "uint256"
        },
        {
          "indexed": false,
          "internalType": "string",
          "name": "name",
          "type": "string"
        },
        {
          "indexed": false,
          "internalType": "enum ITeacherManagement.UserType",
          "name": "userType",
          "type": "uint8"
        },
        {
          "indexed": false,
          "internalType": "uint256",
          "name": "agreedSalary",
          "type": "uint256"
        }
      ],
      "name": "UserRegistered",
      "type": "event"
    },
    {
      "anonymous": false,
      "inputs": [
        {
          "indexed": true,
          "internalType": "address",
          "name": "userAddress",
          "type": "address"
        },
        {
          "indexed": false,
          "internalType": "uint256",
          "name": "id",
          "type": "uint256"
        }
      ],
      "name": "UserTerminated",
      "type": "event"
    },
    {
      "anonymous": false,
      "inputs": [
        {
          "indexed": true,
          "internalType": "address",
          "name": "userAddress",
          "type": "address"
        },
        {
          "indexed": false,
          "internalType": "uint256",
          "name": "id",
          "type": "uint256"
        },
        {
          "indexed": false,
          "internalType": "string",
          "name": "name",
          "type": "string"
        },
        {
          "indexed": false,
          "internalType": "uint256",
          "name": "agreedSalary",
          "type": "uint256"
        }
      ],
      "name": "UserUpdated",
      "type": "event"
    },
    {
      "inputs": [
        {
          "internalType": "uint256",
          "name": "_id",
          "type": "uint256"
        },
        {
          "internalType": "uint256",
          "name": "_amount",
          "type": "uint256"
        }
      ],
      "name": "disburseSalary",
      "outputs": [],
      "stateMutability": "payable",
      "type": "function"
    },
    {
      "inputs": [],
      "name": "getAllUsers",
      "outputs": [
        {
          "internalType": "uint256[]",
          "name": "",
          "type": "uint256[]"
        }
      ],
      "stateMutability": "view",
      "type": "function"
    },
    {
      "inputs": [
        {
          "internalType": "uint256",
          "name": "_id",
          "type": "uint256"
        }
      ],
      "name": "getUser",
      "outputs": [
        {
          "components": [
            {
              "internalType": "uint256",
              "name": "id",
              "type": "uint256"
            },
            {
              "internalType": "string",
              "name": "name",
              "type": "string"
            },
            {
              "internalType": "enum ITeacherManagement.UserType",
              "name": "userType",
              "type": "uint8"
            },
            {
              "internalType": "bool",
              "name": "isEmployed",
              "type": "bool"
            },
            {
              "internalType": "uint256",
              "name": "agreedSalary",
              "type": "uint256"
            },
            {
              "internalType": "uint256",
              "name": "totalPaid",
              "type": "uint256"
            },
            {
              "internalType": "bool",
              "name": "exists",
              "type": "bool"
            }
          ],
          "internalType": "struct ITeacherManagement.User",
          "name": "",
          "type": "tuple"
        }
      ],
      "stateMutability": "view",
      "type": "function"
    },
    {
      "inputs": [
        {
          "internalType": "enum ITeacherManagement.UserType",
          "name": "_userType",
          "type": "uint8"
        }
      ],
      "name": "getUsersByType",
      "outputs": [
        {
          "internalType": "uint256[]",
          "name": "",
          "type": "uint256[]"
        }
      ],
      "stateMutability": "view",
      "type": "function"
    },
    {
      "inputs": [
        {
          "internalType": "string",
          "name": "_name",
          "type": "string"
        },
        {
          "internalType": "enum ITeacherManagement.UserType",
          "name": "_userType",
          "type": "uint8"
        },
        {
          "internalType": "uint256",
          "name": "_agreedSalary",
          "type": "uint256"
        }
      ],
      "name": "registerUser",
      "outputs": [],
      "stateMutability": "nonpayable",
      "type": "function"
    },
    {
      "inputs": [
        {
          "internalType": "uint256",
          "name": "_id",
          "type": "uint256"
        }
      ],
      "name": "terminateUser",
      "outputs": [],
      "stateMutability": "nonpayable",
      "type": "function"
    },
    {
      "inputs": [
        {
          "internalType": "uint256",
          "name": "_id",
          "type": "uint256"
        },
        {
          "internalType": "string",
          "name": "_name",
          "type": "string"
        },
        {
          "internalType": "uint256",
          "name": "_agreedSalary",
          "type": "uint256"
        }
      ],
      "name": "updateUser",
      "outputs": [],
      "stateMutability": "nonpayable",
      "type": "function"
    }
  ],
  "bytecode": "0x6080604052348015600f57600080fd5b50611f0e8061001f6000396000f3fe6080604052600436106100705760003560e01c8063b0467deb1161004e578063b0467deb146100f7578063b7787de914610134578063e2842d791461015d578063e74d533e1461018857610070565b8063107a53a51461007557806338843a8e146100b257806374bf43cb146100ce575b600080fd5b34801561008157600080fd5b5061009c60048036038101906100979190611339565b6101b1565b6040516100a9919061142e565b60405180910390f35b6100cc60048036038101906100c7919061147c565b610436565b005b3480156100da57600080fd5b506100f560048036038101906100f091906114bc565b610789565b005b34801561010357600080fd5b5061011e600480360381019061011991906114bc565b61095b565b60405161012b91906116a7565b60405180910390f35b34801561014057600080fd5b5061015b600480360381019061015691906117fe565b610b0c565b005b34801561016957600080fd5b50610172610d57565b60405161017f919061142e565b60405180910390f35b34801561019457600080fd5b506101af60048036038101906101aa919061186d565b610f06565b005b60606000600260008460028111156101cc576101cb611579565b5b60028111156101de576101dd611579565b5b81526020019081526020016000208054905067ffffffffffffffff811115610209576102086116d3565b5b6040519080825280602002602001820160405280156102375781602001602082028036833780820191505090505b5090506000805b6002600086600281111561025557610254611579565b5b600281111561026757610266611579565b5b81526020019081526020016000208054905081101561038a576000806002600088600281111561029a57610299611579565b5b60028111156102ac576102ab611579565b5b815260200190815260200160002083815481106102cc576102cb6118dc565b5b9060005260206000200154815260200190815260200160002060050160009054906101000a900460ff161561037d576002600086600281111561031257610311611579565b5b600281111561032457610323611579565b5b81526020019081526020016000208181548110610344576103436118dc565b5b9060005260206000200154838381518110610362576103616118dc565b5b60200260200101818152505081806103799061193a565b9250505b808060010191505061023e565b5060008167ffffffffffffffff8111156103a7576103a66116d3565b5b6040519080825280602002602001820160405280156103d55781602001602082028036833780820191505090505b50905060005b8281101561042a578381815181106103f6576103f56118dc565b5b6020026020010151828281518110610411576104106118dc565b5b60200260200101818152505080806001019150506103db565b50809350505050919050565b600073ffffffffffffffffffffffffffffffffffffffff163373ffffffffffffffffffffffffffffffffffffffff160361049c576040517fe6c4247b00000000000000000000000000000000000000000000000000000000815260040160405180910390fd5b60008083815260200190815260200160002060050160009054906101000a900460ff1661050057816040517f101a69740000000000000000000000000000000000000000000000000000000081526004016104f79190611991565b60405180910390fd5b60008083815260200190815260200160002060020160019054906101000a900460ff1661056457816040517f2e53ae4a00000000000000000000000000000000000000000000000000000000815260040161055b9190611991565b60405180910390fd5b6000810361059e576040517f96ed7e8500000000000000000000000000000000000000000000000000000000815260040160405180910390fd5b6000808381526020019081526020016000206003015481111561060f5780600080848152602001908152602001600020600301546040517f7d83065f0000000000000000000000000000000000000000000000000000000081526004016106069291906119ac565b60405180910390fd5b803410156106565780346040517fcf47918100000000000000000000000000000000000000000000000000000000815260040161064d9291906119ac565b60405180910390fd5b600080600084815260200190815260200160002090508181600401600082825461068091906119d5565b9250508190555060003373ffffffffffffffffffffffffffffffffffffffff16836040516106ad90611a3a565b60006040518083038185875af1925050503d80600081146106ea576040519150601f19603f3d011682016040523d82523d6000602084013e6106ef565b606091505b5050905080610733576040517f08c379a000000000000000000000000000000000000000000000000000000000815260040161072a90611aac565b60405180910390fd5b3373ffffffffffffffffffffffffffffffffffffffff167f2f349e1b77b3fa54aa99851b08c6da57e161d36009c624f342211855804c245b858560405161077b9291906119ac565b60405180910390a250505050565b600073ffffffffffffffffffffffffffffffffffffffff163373ffffffffffffffffffffffffffffffffffffffff16036107ef576040517fe6c4247b00000000000000000000000000000000000000000000000000000000815260040160405180910390fd5b60008082815260200190815260200160002060050160009054906101000a900460ff1661085357806040517f101a697400000000000000000000000000000000000000000000000000000000815260040161084a9190611991565b60405180910390fd5b80600160003373ffffffffffffffffffffffffffffffffffffffff1673ffffffffffffffffffffffffffffffffffffffff16815260200190815260200160002054146108d657806040517f101a69740000000000000000000000000000000000000000000000000000000081526004016108cd9190611991565b60405180910390fd5b6000806000838152602001908152602001600020905060008160020160016101000a81548160ff0219169083151502179055503373ffffffffffffffffffffffffffffffffffffffff167fd88fca65ccd3f6f5014ae6ac746c7ca6fe5c5271973ec5ab97f9cb6aec1e5c1e8360405161094f9190611991565b60405180910390a25050565b6109636112ad565b60008083815260200190815260200160002060050160009054906101000a900460ff166109c757816040517f101a69740000000000000000000000000000000000000000000000000000000081526004016109be9190611991565b60405180910390fd5b6000808381526020019081526020016000206040518060e0016040529081600082015481526020016001820180546109fe90611afb565b80601f0160208091040260200160405190810160405280929190818152602001828054610a2a90611afb565b8015610a775780601f10610a4c57610100808354040283529160200191610a77565b820191906000526020600020905b815481529060010190602001808311610a5a57829003601f168201915b505050505081526020016002820160009054906101000a900460ff166002811115610aa557610aa4611579565b5b6002811115610ab757610ab6611579565b5b81526020016002820160019054906101000a900460ff1615151515815260200160038201548152602001600482015481526020016005820160009054906101000a900460ff1615151515815250509050919050565b600073ffffffffffffffffffffffffffffffffffffffff163373ffffffffffffffffffffffffffffffffffffffff1603610b72576040517fe6c4247b00000000000000000000000000000000000000000000000000000000815260040160405180910390fd5b60008084815260200190815260200160002060050160009054906101000a900460ff16610bd657826040517f101a6974000000000000000000000000000000000000000000000000000000008152600401610bcd9190611991565b60405180910390fd5b82600160003373ffffffffffffffffffffffffffffffffffffffff1673ffffffffffffffffffffffffffffffffffffffff1681526020019081526020016000205414610c5957826040517f101a6974000000000000000000000000000000000000000000000000000000008152600401610c509190611991565b60405180910390fd5b6000825103610c94576040517fcf48253200000000000000000000000000000000000000000000000000000000815260040160405180910390fd5b60008103610cce576040517f96ed7e8500000000000000000000000000000000000000000000000000000000815260040160405180910390fd5b6000806000858152602001908152602001600020905082816001019081610cf59190611cd8565b508181600301819055503373ffffffffffffffffffffffffffffffffffffffff167fcd7a7bd8e01bec418eef426e93b894b99b029e67f602b0bfe31d3e10dc11669e858585604051610d4993929190611de3565b60405180910390a250505050565b6060600060038054905067ffffffffffffffff811115610d7a57610d796116d3565b5b604051908082528060200260200182016040528015610da85781602001602082028036833780820191505090505b5090506000805b600380549050811015610e5c5760008060038381548110610dd357610dd26118dc565b5b9060005260206000200154815260200190815260200160002060050160009054906101000a900460ff1615610e4f5760038181548110610e1657610e156118dc565b5b9060005260206000200154838381518110610e3457610e336118dc565b5b6020026020010181815250508180610e4b9061193a565b9250505b8080600101915050610daf565b5060008167ffffffffffffffff811115610e7957610e786116d3565b5b604051908082528060200260200182016040528015610ea75781602001602082028036833780820191505090505b50905060005b82811015610efc57838181518110610ec857610ec76118dc565b5b6020026020010151828281518110610ee357610ee26118dc565b5b6020026020010181815250508080600101915050610ead565b5080935050505090565b600073ffffffffffffffffffffffffffffffffffffffff163373ffffffffffffffffffffffffffffffffffffffff1603610f6c576040517fe6c4247b00000000000000000000000000000000000000000000000000000000815260040160405180910390fd5b6000835103610fa7576040517fcf48253200000000000000000000000000000000000000000000000000000000815260040160405180910390fd5b60008103610fe1576040517f96ed7e8500000000000000000000000000000000000000000000000000000000815260040160405180910390fd5b6000600160003373ffffffffffffffffffffffffffffffffffffffff1673ffffffffffffffffffffffffffffffffffffffff168152602001908152602001600020541461106557336040517f9e676ee700000000000000000000000000000000000000000000000000000000815260040161105c9190611e62565b60405180910390fd5b600060045490506040518060e0016040528082815260200185815260200184600281111561109657611095611579565b5b815260200160011515815260200183815260200160008152602001600115158152506000808381526020019081526020016000206000820151816000015560208201518160010190816110e99190611cd8565b5060408201518160020160006101000a81548160ff0219169083600281111561111557611114611579565b5b021790555060608201518160020160016101000a81548160ff0219169083151502179055506080820151816003015560a0820151816004015560c08201518160050160006101000a81548160ff02191690831515021790555090505080600160003373ffffffffffffffffffffffffffffffffffffffff1673ffffffffffffffffffffffffffffffffffffffff16815260200190815260200160002081905550600260008460028111156111cc576111cb611579565b5b60028111156111de576111dd611579565b5b815260200190815260200160002081908060018154018082558091505060019003906000526020600020016000909190919091505560038190806001815401808255809150506001900390600052602060002001600090919091909150556004600081548092919061124f9061193a565b91905055503373ffffffffffffffffffffffffffffffffffffffff167eca4f5b36f76a4228d4087cc6def18e35559ad4ff688228b10eac8719d4ccb48286868660405161129f9493929190611e8c565b60405180910390a250505050565b6040518060e001604052806000815260200160608152602001600060028111156112da576112d9611579565b5b815260200160001515815260200160008152602001600081526020016000151581525090565b6000604051905090565b600080fd5b600080fd5b6003811061132157600080fd5b50565b60008135905061133381611314565b92915050565b60006020828403121561134f5761134e61130a565b5b600061135d84828501611324565b91505092915050565b600081519050919050565b600082825260208201905092915050565b6000819050602082019050919050565b6000819050919050565b6113a581611392565b82525050565b60006113b7838361139c565b60208301905092915050565b6000602082019050919050565b60006113db82611366565b6113e58185611371565b93506113f083611382565b8060005b8381101561142157815161140888826113ab565b9750611413836113c3565b9250506001810190506113f4565b5085935050505092915050565b6000602082019050818103600083015261144881846113d0565b905092915050565b61145981611392565b811461146457600080fd5b50565b60008135905061147681611450565b92915050565b600080604083850312156114935761149261130a565b5b60006114a185828601611467565b92505060206114b285828601611467565b9150509250929050565b6000602082840312156114d2576114d161130a565b5b60006114e084828501611467565b91505092915050565b600081519050919050565b600082825260208201905092915050565b60005b83811015611523578082015181840152602081019050611508565b60008484015250505050565b6000601f19601f8301169050919050565b600061154b826114e9565b61155581856114f4565b9350611565818560208601611505565b61156e8161152f565b840191505092915050565b7f4e487b7100000000000000000000000000000000000000000000000000000000600052602160045260246000fd5b600381106115b9576115b8611579565b5b50565b60008190506115ca826115a8565b919050565b60006115da826115bc565b9050919050565b6115ea816115cf565b82525050565b60008115159050919050565b611605816115f0565b82525050565b600060e083016000830151611623600086018261139c565b506020830151848203602086015261163b8282611540565b915050604083015161165060408601826115e1565b50606083015161166360608601826115fc565b506080830151611676608086018261139c565b5060a083015161168960a086018261139c565b5060c083015161169c60c08601826115fc565b508091505092915050565b600060208201905081810360008301526116c1818461160b565b905092915050565b600080fd5b600080fd5b7f4e487b7100000000000000000000000000000000000000000000000000000000600052604160045260246000fd5b61170b8261152f565b810181811067ffffffffffffffff8211171561172a576117296116d3565b5b80604052505050565b600061173d611300565b90506117498282611702565b919050565b600067ffffffffffffffff821115611769576117686116d3565b5b6117728261152f565b9050602081019050919050565b82818337600083830152505050565b60006117a161179c8461174e565b611733565b9050828152602081018484840111156117bd576117bc6116ce565b5b6117c884828561177f565b509392505050565b600082601f8301126117e5576117e46116c9565b5b81356117f584826020860161178e565b91505092915050565b6000806000606084860312156118175761181661130a565b5b600061182586828701611467565b935050602084013567ffffffffffffffff8111156118465761184561130f565b5b611852868287016117d0565b925050604061186386828701611467565b9150509250925092565b6000806000606084860312156118865761188561130a565b5b600084013567ffffffffffffffff8111156118a4576118a361130f565b5b6118b0868287016117d0565b93505060206118c186828701611324565b92505060406118d286828701611467565b9150509250925092565b7f4e487b7100000000000000000000000000000000000000000000000000000000600052603260045260246000fd5b7f4e487b7100000000000000000000000000000000000000000000000000000000600052601160045260246000fd5b600061194582611392565b91507fffffffffffffffffffffffffffffffffffffffffffffffffffffffffffffffff82036119775761197661190b565b5b600182019050919050565b61198b81611392565b82525050565b60006020820190506119a66000830184611982565b92915050565b60006040820190506119c16000830185611982565b6119ce6020830184611982565b9392505050565b60006119e082611392565b91506119eb83611392565b9250828201905080821115611a0357611a0261190b565b5b92915050565b600081905092915050565b50565b6000611a24600083611a09565b9150611a2f82611a14565b600082019050919050565b6000611a4582611a17565b9150819050919050565b600082825260208201905092915050565b7f5472616e73666572206661696c65640000000000000000000000000000000000600082015250565b6000611a96600f83611a4f565b9150611aa182611a60565b602082019050919050565b60006020820190508181036000830152611ac581611a89565b9050919050565b7f4e487b7100000000000000000000000000000000000000000000000000000000600052602260045260246000fd5b60006002820490506001821680611b1357607f821691505b602082108103611b2657611b25611acc565b5b50919050565b60008190508160005260206000209050919050565b60006020601f8301049050919050565b600082821b905092915050565b600060088302611b8e7fffffffffffffffffffffffffffffffffffffffffffffffffffffffffffffffff82611b51565b611b988683611b51565b95508019841693508086168417925050509392505050565b6000819050919050565b6000611bd5611bd0611bcb84611392565b611bb0565b611392565b9050919050565b6000819050919050565b611bef83611bba565b611c03611bfb82611bdc565b848454611b5e565b825550505050565b600090565b611c18611c0b565b611c23818484611be6565b505050565b5b81811015611c4757611c3c600082611c10565b600181019050611c29565b5050565b601f821115611c8c57611c5d81611b2c565b611c6684611b41565b81016020851015611c75578190505b611c89611c8185611b41565b830182611c28565b50505b505050565b600082821c905092915050565b6000611caf60001984600802611c91565b1980831691505092915050565b6000611cc88383611c9e565b9150826002028217905092915050565b611ce1826114e9565b67ffffffffffffffff811115611cfa57611cf96116d3565b5b611d048254611afb565b611d0f828285611c4b565b600060209050601f831160018114611d425760008415611d30578287015190505b611d3a8582611cbc565b865550611da2565b601f198416611d5086611b2c565b60005b82811015611d7857848901518255600182019150602085019450602081019050611d53565b86831015611d955784890151611d91601f891682611c9e565b8355505b6001600288020188555050505b505050505050565b6000611db5826114e9565b611dbf8185611a4f565b9350611dcf818560208601611505565b611dd88161152f565b840191505092915050565b6000606082019050611df86000830186611982565b8181036020830152611e0a8185611daa565b9050611e196040830184611982565b949350505050565b600073ffffffffffffffffffffffffffffffffffffffff82169050919050565b6000611e4c82611e21565b9050919050565b611e5c81611e41565b82525050565b6000602082019050611e776000830184611e53565b92915050565b611e86816115cf565b82525050565b6000608082019050611ea16000830187611982565b8181036020830152611eb38186611daa565b9050611ec26040830185611e7d565b611ecf6060830184611982565b9594505050505056fea2646970667358221220f7688e7b58c5c58ccb6c36f09f60cd91948ac994535fdda38555f73f42c7ae8e64736f6c634300081c0033",
  "linkReferences": {},
  "deployedLinkReferences": {}
}