{"contracts/OnchainNFT.sol":{"OnChainNFT":{"abi":[{"inputs":[],"stateMutability":"nonpayable","type":"constructor"},{"anonymous":false,"inputs":[{"indexed":true,"internalType":"address","name":"owner","type":"address"},{"indexed":true,"internalType":"address","name":"approved","type":"address"},{"indexed":true,"internalType":"uint256","name":"tokenId","type":"uint256"}],"name":"Approval","type":"event"},{"anonymous":false,"inputs":[{"indexed":true,"internalType":"address","name":"owner","type":"address"},{"indexed":true,"internalType":"address","name":"operator","type":"address"},{"indexed":false,"internalType":"bool","name":"approved","type":"bool"}],"name":"ApprovalForAll","type":"event"},{"anonymous":false,"inputs":[{"indexed":false,"internalType":"uint256","name":"_fromTokenId","type":"uint256"},{"indexed":false,"internalType":"uint256","name":"_toTokenId","type":"uint256"}],"name":"BatchMetadataUpdate","type":"event"},{"anonymous":false,"inputs":[{"indexed":false,"internalType":"uint256","name":"_tokenId","type":"uint256"}],"name":"MetadataUpdate","type":"event"},{"anonymous":false,"inputs":[{"indexed":false,"internalType":"uint256","name":"tokenId","type":"uint256"}],"name":"Minted","type":"event"},{"anonymous":false,"inputs":[{"indexed":true,"internalType":"address","name":"previousOwner","type":"address"},{"indexed":true,"internalType":"address","name":"newOwner","type":"address"}],"name":"OwnershipTransferred","type":"event"},{"anonymous":false,"inputs":[{"indexed":true,"internalType":"address","name":"from","type":"address"},{"indexed":true,"internalType":"address","name":"to","type":"address"},{"indexed":true,"internalType":"uint256","name":"tokenId","type":"uint256"}],"name":"Transfer","type":"event"},{"inputs":[{"internalType":"address","name":"to","type":"address"},{"internalType":"uint256","name":"tokenId","type":"uint256"}],"name":"approve","outputs":[],"stateMutability":"nonpayable","type":"function"},{"inputs":[{"internalType":"address","name":"owner","type":"address"}],"name":"balanceOf","outputs":[{"internalType":"uint256","name":"","type":"uint256"}],"stateMutability":"view","type":"function"},{"inputs":[{"internalType":"string","name":"imageURI","type":"string"}],"name":"formatTokenURI","outputs":[{"internalType":"string","name":"","type":"string"}],"stateMutability":"pure","type":"function"},{"inputs":[{"internalType":"uint256","name":"timestamp","type":"uint256"}],"name":"generateSVG","outputs":[{"internalType":"string","name":"","type":"string"}],"stateMutability":"pure","type":"function"},{"inputs":[{"internalType":"uint256","name":"tokenId","type":"uint256"}],"name":"getApproved","outputs":[{"internalType":"address","name":"","type":"address"}],"stateMutability":"view","type":"function"},{"inputs":[{"internalType":"address","name":"owner","type":"address"},{"internalType":"address","name":"operator","type":"address"}],"name":"isApprovedForAll","outputs":[{"internalType":"bool","name":"","type":"bool"}],"stateMutability":"view","type":"function"},{"inputs":[],"name":"mint","outputs":[],"stateMutability":"nonpayable","type":"function"},{"inputs":[],"name":"name","outputs":[{"internalType":"string","name":"","type":"string"}],"stateMutability":"view","type":"function"},{"inputs":[],"name":"owner","outputs":[{"internalType":"address","name":"","type":"address"}],"stateMutability":"view","type":"function"},{"inputs":[{"internalType":"uint256","name":"tokenId","type":"uint256"}],"name":"ownerOf","outputs":[{"internalType":"address","name":"","type":"address"}],"stateMutability":"view","type":"function"},{"inputs":[],"name":"renounceOwnership","outputs":[],"stateMutability":"nonpayable","type":"function"},{"inputs":[{"internalType":"address","name":"from","type":"address"},{"internalType":"address","name":"to","type":"address"},{"internalType":"uint256","name":"tokenId","type":"uint256"}],"name":"safeTransferFrom","outputs":[],"stateMutability":"nonpayable","type":"function"},{"inputs":[{"internalType":"address","name":"from","type":"address"},{"internalType":"address","name":"to","type":"address"},{"internalType":"uint256","name":"tokenId","type":"uint256"},{"internalType":"bytes","name":"data","type":"bytes"}],"name":"safeTransferFrom","outputs":[],"stateMutability":"nonpayable","type":"function"},{"inputs":[{"internalType":"address","name":"operator","type":"address"},{"internalType":"bool","name":"approved","type":"bool"}],"name":"setApprovalForAll","outputs":[],"stateMutability":"nonpayable","type":"function"},{"inputs":[{"internalType":"bytes4","name":"interfaceId","type":"bytes4"}],"name":"supportsInterface","outputs":[{"internalType":"bool","name":"","type":"bool"}],"stateMutability":"view","type":"function"},{"inputs":[{"internalType":"string","name":"svg","type":"string"}],"name":"svgToImageURI","outputs":[{"internalType":"string","name":"","type":"string"}],"stateMutability":"pure","type":"function"},{"inputs":[],"name":"symbol","outputs":[{"internalType":"string","name":"","type":"string"}],"stateMutability":"view","type":"function"},{"inputs":[{"internalType":"uint256","name":"tokenId","type":"uint256"}],"name":"tokenURI","outputs":[{"internalType":"string","name":"","type":"string"}],"stateMutability":"view","type":"function"},{"inputs":[{"internalType":"address","name":"from","type":"address"},{"internalType":"address","name":"to","type":"address"},{"internalType":"uint256","name":"tokenId","type":"uint256"}],"name":"transferFrom","outputs":[],"stateMutability":"nonpayable","type":"function"},{"inputs":[{"internalType":"address","name":"newOwner","type":"address"}],"name":"transferOwnership","outputs":[],"stateMutability":"nonpayable","type":"function"}],"evm":{"bytecode":{"linkReferences":{},"object":"608060405234801561001057600080fd5b506040518060400160405280600e81526020017f54696d654f6e436861696e4e46540000000000000000000000000000000000008152506040518060400160405280600381526020017f544f430000000000000000000000000000000000000000000000000000000000815250816000908161008c91906103fb565b50806001908161009c91906103fb565b5050506100bb6100b06100da60201b60201c565b6100e260201b60201c565b6100d5679a17289f8e8f97dd60c01b6101a860201b60201c565b6104cd565b600033905090565b6000600760009054906101000a900473ffffffffffffffffffffffffffffffffffffffff16905081600760006101000a81548173ffffffffffffffffffffffffffffffffffffffff021916908373ffffffffffffffffffffffffffffffffffffffff1602179055508173ffffffffffffffffffffffffffffffffffffffff168173ffffffffffffffffffffffffffffffffffffffff167f8be0079c531659141344cd1fd0a4f28419497f9722a3daafe3b4186f6b6457e060405160405180910390a35050565b50565b600081519050919050565b7f4e487b7100000000000000000000000000000000000000000000000000000000600052604160045260246000fd5b7f4e487b7100000000000000000000000000000000000000000000000000000000600052602260045260246000fd5b6000600282049050600182168061022c57607f821691505b60208210810361023f5761023e6101e5565b5b50919050565b60008190508160005260206000209050919050565b60006020601f8301049050919050565b600082821b905092915050565b6000600883026102a77fffffffffffffffffffffffffffffffffffffffffffffffffffffffffffffffff8261026a565b6102b1868361026a565b95508019841693508086168417925050509392505050565b6000819050919050565b6000819050919050565b60006102f86102f36102ee846102c9565b6102d3565b6102c9565b9050919050565b6000819050919050565b610312836102dd565b61032661031e826102ff565b848454610277565b825550505050565b600090565b61033b61032e565b610346818484610309565b505050565b5b8181101561036a5761035f600082610333565b60018101905061034c565b5050565b601f8211156103af5761038081610245565b6103898461025a565b81016020851015610398578190505b6103ac6103a48561025a565b83018261034b565b50505b505050565b600082821c905092915050565b60006103d2600019846008026103b4565b1980831691505092915050565b60006103eb83836103c1565b9150826002028217905092915050565b610404826101ab565b67ffffffffffffffff81111561041d5761041c6101b6565b5b6104278254610214565b61043282828561036e565b600060209050601f8311600181146104655760008415610453578287015190505b61045d85826103df565b8655506104c5565b601f19841661047386610245565b60005b8281101561049b57848901518255600182019150602085019450602081019050610476565b868310156104b857848901516104b4601f8916826103c1565b8355505b6001600288020188555050505b505050505050565b613eeb806104dc6000396000f3fe608060405234801561001057600080fd5b506004361061012c5760003560e01c806370a08231116100ad578063a22cb46511610071578063a22cb46514610343578063b88d4fde1461035f578063c87b56dd1461037b578063e985e9c5146103ab578063f2fde38b146103db5761012c565b806370a082311461029d578063715018a6146102cd57806371aee193146102d75780638da5cb5b1461030757806395d89b41146103255761012c565b806323b872dd116100f457806323b872dd146101d557806330d871c6146101f157806342842e0e146102215780636352211e1461023d5780636dcee4ca1461026d5761012c565b806301ffc9a71461013157806306fdde0314610161578063081812fc1461017f578063095ea7b3146101af5780631249c58b146101cb575b600080fd5b61014b60048036038101906101469190612581565b6103f7565b60405161015891906125c9565b60405180910390f35b610169610458565b6040516101769190612674565b60405180910390f35b610199600480360381019061019491906126cc565b6104ea565b6040516101a6919061273a565b60405180910390f35b6101c960048036038101906101c49190612781565b610530565b005b6101d3610647565b005b6101ef60048036038101906101ea91906127c1565b61085b565b005b61020b60048036038101906102069190612949565b6108bb565b6040516102189190612674565b60405180910390f35b61023b600480360381019061023691906127c1565b6109bb565b005b610257600480360381019061025291906126cc565b6109db565b604051610264919061273a565b60405180910390f35b610287600480360381019061028291906126cc565b610a61565b6040516102949190612674565b60405180910390f35b6102b760048036038101906102b29190612992565b610c8b565b6040516102c491906129ce565b60405180910390f35b6102d5610d42565b005b6102f160048036038101906102ec9190612949565b610d56565b6040516102fe9190612674565b60405180910390f35b61030f610de2565b60405161031c919061273a565b60405180910390f35b61032d610e0c565b60405161033a9190612674565b60405180910390f35b61035d60048036038101906103589190612a15565b610e9e565b005b61037960048036038101906103749190612af6565b610eb4565b005b610395600480360381019061039091906126cc565b610f16565b6040516103a29190612674565b60405180910390f35b6103c560048036038101906103c09190612b79565b611068565b6040516103d291906125c9565b60405180910390f35b6103f560048036038101906103f09190612992565b6110fc565b005b6000634906490660e01b7bffffffffffffffffffffffffffffffffffffffffffffffffffffffff1916827bffffffffffffffffffffffffffffffffffffffffffffffffffffffff1916148061045157506104508261117f565b5b9050919050565b60606000805461046790612be8565b80601f016020809104026020016040519081016040528092919081815260200182805461049390612be8565b80156104e05780601f106104b5576101008083540402835291602001916104e0565b820191906000526020600020905b8154815290600101906020018083116104c357829003601f168201915b5050505050905090565b60006104f582611261565b6004600083815260200190815260200160002060009054906101000a900473ffffffffffffffffffffffffffffffffffffffff169050919050565b600061053b826109db565b90508073ffffffffffffffffffffffffffffffffffffffff168373ffffffffffffffffffffffffffffffffffffffff16036105ab576040517f08c379a00000000000000000000000000000000000000000000000000000000081526004016105a290612c8b565b60405180910390fd5b8073ffffffffffffffffffffffffffffffffffffffff166105ca6112ac565b73ffffffffffffffffffffffffffffffffffffffff1614806105f957506105f8816105f36112ac565b611068565b5b610638576040517f08c379a000000000000000000000000000000000000000000000000000000000815260040161062f90612d1d565b60405180910390fd5b61064283836112b4565b505050565b61065b6703048f7e440f966660c01b61136d565b610663611370565b6106776774e35a573e44372c60c01b61136d565b61068b67a88d9a9d6450792560c01b61136d565b61069f67c10afe687ad0074060c01b61136d565b6106b367b38f6b60cf6553a960c01b61136d565b60006106be42610a61565b90506106d467a0620f1d22d6057660c01b61136d565b6106e8672410c11c6591389960c01b61136d565b60006106f3826108bb565b90506107096793ca5c710922f99360c01b61136d565b61071d67ce5cb557887a0c4a60c01b61136d565b600061072882610d56565b905061073e670877c37fa57d56fc60c01b61136d565b61075267168906d01590ece260c01b61136d565b61075c60086113ee565b61077067623c2110d212031a60c01b61136d565b6107846783e78469436c52c360c01b61136d565b60006107906008611404565b90506107a667fb65d188ae87bb7160c01b61136d565b6107ba67e2f14fb8d5588cdc60c01b61136d565b6107c43382611412565b6107d86760d1be9e57d04b0960c01b61136d565b6107ec678d152a118f95ac1a60c01b61136d565b6107f68183611430565b61080a67d0585a9965bdce0a60c01b61136d565b61081e678783b4596b98f4a660c01b61136d565b7f176b02bb2d12439ff7a20b59f402cca16c76f50508b13ef3166a600eb719354a8160405161084d91906129ce565b60405180910390a150505050565b61086c6108666112ac565b826114d4565b6108ab576040517f08c379a00000000000000000000000000000000000000000000000000000000081526004016108a290612daf565b60405180910390fd5b6108b6838383611569565b505050565b60606108d167e036eff524c50e6d60c01b61136d565b6108e56776131f94204c9a3b60c01b61136d565b6108f9672a693830c653c2c460c01b61136d565b60006040518060400160405280601a81526020017f646174613a696d6167652f7376672b786d6c3b6261736536342c000000000000815250905061094767388be8503bc9d70d60c01b61136d565b61095b67c1d52a6eac789c2d60c01b61136d565b600061096684611862565b905061097c67d70c6847c30f05e860c01b61136d565b610990676d82a4db9f214d1e60c01b61136d565b81816040516020016109a3929190612e0b565b60405160208183030381529060405292505050919050565b6109d683838360405180602001604052806000815250610eb4565b505050565b6000806109e783611b4d565b9050600073ffffffffffffffffffffffffffffffffffffffff168173ffffffffffffffffffffffffffffffffffffffff1603610a58576040517f08c379a0000000000000000000000000000000000000000000000000000000008152600401610a4f90612e7b565b60405180910390fd5b80915050919050565b6060610a7767e8825880d2030da760c01b61136d565b610a8b671c5aa3bd5c9b1fca60c01b61136d565b610a9f67b28689854f5c36a660c01b61136d565b60006018610e1084610ab19190612ef9565b610abb9190612f2a565b9050610ad167281933149401daee60c01b61136d565b610ae567ab14ef983f82341a60c01b61136d565b6000603c8085610af59190612ef9565b610aff9190612f2a565b9050610b15677d6e73b89cdce3e560c01b61136d565b610b296778fdf98250a5f68a60c01b61136d565b6000603c85610b389190612f2a565b9050610b4e67655f7bda7fcaec0360c01b61136d565b610b6267992cb26964be0c6660c01b61136d565b6000610b89600a8510610b8157600a85610b7c9190612ef9565b610b84565b60005b611b8a565b610b9e600a86610b999190612f2a565b611b8a565b610bc3600a8610610bbb57600a86610bb69190612ef9565b610bbe565b60005b611b8a565b610bd8600a87610bd39190612f2a565b611b8a565b610bfd600a8710610bf557600a87610bf09190612ef9565b610bf8565b60005b611b8a565b610c12600a88610c0d9190612f2a565b611b8a565b604051602001610c2796959493929190612fa7565b6040516020818303038152906040529050610c4c6758c0a8535bd52c2060c01b61136d565b610c606752bb5eba4c5e9c2d60c01b61136d565b80604051602001610c719190613275565b604051602081830303815290604052945050505050919050565b60008073ffffffffffffffffffffffffffffffffffffffff168273ffffffffffffffffffffffffffffffffffffffff1603610cfb576040517f08c379a0000000000000000000000000000000000000000000000000000000008152600401610cf290613335565b60405180910390fd5b600360008373ffffffffffffffffffffffffffffffffffffffff1673ffffffffffffffffffffffffffffffffffffffff168152602001908152602001600020549050919050565b610d4a611370565b610d546000611c58565b565b6060610d6c6711faa2c8d816394360c01b61136d565b610d8067fe53d23b7172b30a60c01b61136d565b610d946778d7e39d1f6a916c60c01b61136d565b610dbc82604051602001610da891906134d1565b604051602081830303815290604052611862565b604051602001610dcc9190613560565b6040516020818303038152906040529050919050565b6000600760009054906101000a900473ffffffffffffffffffffffffffffffffffffffff16905090565b606060018054610e1b90612be8565b80601f0160208091040260200160405190810160405280929190818152602001828054610e4790612be8565b8015610e945780601f10610e6957610100808354040283529160200191610e94565b820191906000526020600020905b815481529060010190602001808311610e7757829003601f168201915b5050505050905090565b610eb0610ea96112ac565b8383611d1e565b5050565b610ec5610ebf6112ac565b836114d4565b610f04576040517f08c379a0000000000000000000000000000000000000000000000000000000008152600401610efb90612daf565b60405180910390fd5b610f1084848484611e8a565b50505050565b6060610f2c67449f6944be5cb77c60c01b61136d565b610f4067c469080bbebd75a360c01b61136d565b610f5467022d7cf4e9af283d60c01b61136d565b610f6867d9f854b583a0078160c01b61136d565b610f7182611ee6565b610fb0576040517f08c379a0000000000000000000000000000000000000000000000000000000008152600401610fa7906135f4565b60405180910390fd5b610fc46743e4e82fc732d25760c01b61136d565b610fd8674506f8ea7a3d6fef60c01b61136d565b610fec673fe0bab8dbe684d160c01b61136d565b6000610ff742610a61565b905061100d6790763bb358e5778460c01b61136d565b611021672f14d53095383bea60c01b61136d565b600061102c826108bb565b905061104267270e3e13514743f860c01b61136d565b611056674282b1700dd94a1360c01b61136d565b61105f81610d56565b92505050919050565b6000600560008473ffffffffffffffffffffffffffffffffffffffff1673ffffffffffffffffffffffffffffffffffffffff16815260200190815260200160002060008373ffffffffffffffffffffffffffffffffffffffff1673ffffffffffffffffffffffffffffffffffffffff16815260200190815260200160002060009054906101000a900460ff16905092915050565b611104611370565b600073ffffffffffffffffffffffffffffffffffffffff168173ffffffffffffffffffffffffffffffffffffffff1603611173576040517f08c379a000000000000000000000000000000000000000000000000000000000815260040161116a90613686565b60405180910390fd5b61117c81611c58565b50565b60007f80ac58cd000000000000000000000000000000000000000000000000000000007bffffffffffffffffffffffffffffffffffffffffffffffffffffffff1916827bffffffffffffffffffffffffffffffffffffffffffffffffffffffff1916148061124a57507f5b5e139f000000000000000000000000000000000000000000000000000000007bffffffffffffffffffffffffffffffffffffffffffffffffffffffff1916827bffffffffffffffffffffffffffffffffffffffffffffffffffffffff1916145b8061125a575061125982611f27565b5b9050919050565b61126a81611ee6565b6112a9576040517f08c379a00000000000000000000000000000000000000000000000000000000081526004016112a090612e7b565b60405180910390fd5b50565b600033905090565b816004600083815260200190815260200160002060006101000a81548173ffffffffffffffffffffffffffffffffffffffff021916908373ffffffffffffffffffffffffffffffffffffffff160217905550808273ffffffffffffffffffffffffffffffffffffffff16611327836109db565b73ffffffffffffffffffffffffffffffffffffffff167f8c5be1e5ebec7d5bd14f71427d1e84f3dd0314c0f7b2291e5b200ac8c7c3b92560405160405180910390a45050565b50565b6113786112ac565b73ffffffffffffffffffffffffffffffffffffffff16611396610de2565b73ffffffffffffffffffffffffffffffffffffffff16146113ec576040517f08c379a00000000000000000000000000000000000000000000000000000000081526004016113e3906136f2565b60405180910390fd5b565b6001816000016000828254019250508190555050565b600081600001549050919050565b61142c828260405180602001604052806000815250611f91565b5050565b61143982611ee6565b611478576040517f08c379a000000000000000000000000000000000000000000000000000000000815260040161146f90613784565b60405180910390fd5b806006600084815260200190815260200160002090816114989190613950565b507ff8e1a15aba9398e019f0b49df1a4fde98ee17ae345cb5f6b5e2c27f5033e8ce7826040516114c891906129ce565b60405180910390a15050565b6000806114e0836109db565b90508073ffffffffffffffffffffffffffffffffffffffff168473ffffffffffffffffffffffffffffffffffffffff16148061152257506115218185611068565b5b8061156057508373ffffffffffffffffffffffffffffffffffffffff16611548846104ea565b73ffffffffffffffffffffffffffffffffffffffff16145b91505092915050565b8273ffffffffffffffffffffffffffffffffffffffff16611589826109db565b73ffffffffffffffffffffffffffffffffffffffff16146115df576040517f08c379a00000000000000000000000000000000000000000000000000000000081526004016115d690613a94565b60405180910390fd5b600073ffffffffffffffffffffffffffffffffffffffff168273ffffffffffffffffffffffffffffffffffffffff160361164e576040517f08c379a000000000000000000000000000000000000000000000000000000000815260040161164590613b26565b60405180910390fd5b61165b8383836001611fec565b8273ffffffffffffffffffffffffffffffffffffffff1661167b826109db565b73ffffffffffffffffffffffffffffffffffffffff16146116d1576040517f08c379a00000000000000000000000000000000000000000000000000000000081526004016116c890613a94565b60405180910390fd5b6004600082815260200190815260200160002060006101000a81549073ffffffffffffffffffffffffffffffffffffffff02191690556001600360008573ffffffffffffffffffffffffffffffffffffffff1673ffffffffffffffffffffffffffffffffffffffff168152602001908152602001600020600082825403925050819055506001600360008473ffffffffffffffffffffffffffffffffffffffff1673ffffffffffffffffffffffffffffffffffffffff16815260200190815260200160002060008282540192505081905550816002600083815260200190815260200160002060006101000a81548173ffffffffffffffffffffffffffffffffffffffff021916908373ffffffffffffffffffffffffffffffffffffffff160217905550808273ffffffffffffffffffffffffffffffffffffffff168473ffffffffffffffffffffffffffffffffffffffff167fddf252ad1be2c89b69c2b068fc378daa952ba7f163c4a11628f55a4df523b3ef60405160405180910390a461185d8383836001611ff2565b505050565b606061187867b53ca74e8494eea660c01b611ff8565b61188c6720cb190a82aab87e60c01b611ff8565b6118a067de6510e2ae7f455860c01b611ff8565b6000825190506118ba67849512c8d4925d3c60c01b611ff8565b6118ce67eecfcc3b18abd8ac60c01b611ff8565b60008103611916576118ea674a98edfcfde6662560c01b611ff8565b6118fe6794ce4be227eadc6660c01b611ff8565b60405180602001604052806000815250915050611b48565b61192a67555b4ecaa728edac60c01b611ff8565b61193e670be4721afa5ece5260c01b611ff8565b611952670b2b60b2fc0fbe9060c01b611ff8565b600060036002836119639190613b46565b61196d9190612ef9565b60046119799190613b7a565b905061198f67539da607551df49e60c01b611ff8565b6119a36708d75b58fbcbfb0b60c01b611ff8565b60006020826119b29190613b46565b67ffffffffffffffff8111156119cb576119ca61281e565b5b6040519080825280601f01601f1916602001820160405280156119fd5781602001600182028036833780820191505090505b509050611a1467cb70552b76c1294f60c01b611ff8565b611a2867a668ef7804e83e7960c01b611ff8565b6000604051806060016040528060408152602001613e76604091399050611a59673bd4d9698a7a453f60c01b611ff8565b600181016020830160005b86811015611add5760038101905062ffffff818a015116603f8160121c168401518060081b905060ff603f83600c1c1686015116810190508060081b905060ff603f8360061c1686015116810190508060081b905060ff603f831686015116810190508060e01b90508084526004840193505050611a64565b506003860660018114611af75760028114611b0757611b12565b613d3d60f01b6002830352611b12565b603d60f81b60018303525b508484525050611b2c67b852f796969f969960c01b611ff8565b611b40677218dceddedb960860c01b611ff8565b819450505050505b919050565b60006002600083815260200190815260200160002060009054906101000a900473ffffffffffffffffffffffffffffffffffffffff169050919050565b606060006001611b9984611ffb565b01905060008167ffffffffffffffff811115611bb857611bb761281e565b5b6040519080825280601f01601f191660200182016040528015611bea5781602001600182028036833780820191505090505b509050600082602001820190505b600115611c4d578080600190039150507f3031323334353637383961626364656600000000000000000000000000000000600a86061a8153600a8581611c4157611c40612e9b565b5b04945060008503611bf8575b819350505050919050565b6000600760009054906101000a900473ffffffffffffffffffffffffffffffffffffffff16905081600760006101000a81548173ffffffffffffffffffffffffffffffffffffffff021916908373ffffffffffffffffffffffffffffffffffffffff1602179055508173ffffffffffffffffffffffffffffffffffffffff168173ffffffffffffffffffffffffffffffffffffffff167f8be0079c531659141344cd1fd0a4f28419497f9722a3daafe3b4186f6b6457e060405160405180910390a35050565b8173ffffffffffffffffffffffffffffffffffffffff168373ffffffffffffffffffffffffffffffffffffffff1603611d8c576040517f08c379a0000000000000000000000000000000000000000000000000000000008152600401611d8390613c08565b60405180910390fd5b80600560008573ffffffffffffffffffffffffffffffffffffffff1673ffffffffffffffffffffffffffffffffffffffff16815260200190815260200160002060008473ffffffffffffffffffffffffffffffffffffffff1673ffffffffffffffffffffffffffffffffffffffff16815260200190815260200160002060006101000a81548160ff0219169083151502179055508173ffffffffffffffffffffffffffffffffffffffff168373ffffffffffffffffffffffffffffffffffffffff167f17307eab39ab6107e8899845ad3d59bd9653f200f220920489ca2b5937696c3183604051611e7d91906125c9565b60405180910390a3505050565b611e95848484611569565b611ea18484848461214e565b611ee0576040517f08c379a0000000000000000000000000000000000000000000000000000000008152600401611ed790613c9a565b60405180910390fd5b50505050565b60008073ffffffffffffffffffffffffffffffffffffffff16611f0883611b4d565b73ffffffffffffffffffffffffffffffffffffffff1614159050919050565b60007f01ffc9a7000000000000000000000000000000000000000000000000000000007bffffffffffffffffffffffffffffffffffffffffffffffffffffffff1916827bffffffffffffffffffffffffffffffffffffffffffffffffffffffff1916149050919050565b611f9b83836122d5565b611fa8600084848461214e565b611fe7576040517f08c379a0000000000000000000000000000000000000000000000000000000008152600401611fde90613c9a565b60405180910390fd5b505050565b50505050565b50505050565b50565b600080600090507a184f03e93ff9f4daa797ed6e38ed64bf6a1f0100000000000000008310612059577a184f03e93ff9f4daa797ed6e38ed64bf6a1f010000000000000000838161204f5761204e612e9b565b5b0492506040810190505b6d04ee2d6d415b85acef81000000008310612096576d04ee2d6d415b85acef8100000000838161208c5761208b612e9b565b5b0492506020810190505b662386f26fc1000083106120c557662386f26fc1000083816120bb576120ba612e9b565b5b0492506010810190505b6305f5e10083106120ee576305f5e10083816120e4576120e3612e9b565b5b0492506008810190505b612710831061211357612710838161210957612108612e9b565b5b0492506004810190505b60648310612136576064838161212c5761212b612e9b565b5b0492506002810190505b600a8310612145576001810190505b80915050919050565b600061216f8473ffffffffffffffffffffffffffffffffffffffff166124f2565b156122c8578373ffffffffffffffffffffffffffffffffffffffff1663150b7a026121986112ac565b8786866040518563ffffffff1660e01b81526004016121ba9493929190613d0f565b6020604051808303816000875af19250505080156121f657506040513d601f19601f820116820180604052508101906121f39190613d70565b60015b612278573d8060008114612226576040519150601f19603f3d011682016040523d82523d6000602084013e61222b565b606091505b506000815103612270576040517f08c379a000000000000000000000000000000000000000000000000000000000815260040161226790613c9a565b60405180910390fd5b805181602001fd5b63150b7a0260e01b7bffffffffffffffffffffffffffffffffffffffffffffffffffffffff1916817bffffffffffffffffffffffffffffffffffffffffffffffffffffffff1916149150506122cd565b600190505b949350505050565b600073ffffffffffffffffffffffffffffffffffffffff168273ffffffffffffffffffffffffffffffffffffffff1603612344576040517f08c379a000000000000000000000000000000000000000000000000000000000815260040161233b90613de9565b60405180910390fd5b61234d81611ee6565b1561238d576040517f08c379a000000000000000000000000000000000000000000000000000000000815260040161238490613e55565b60405180910390fd5b61239b600083836001611fec565b6123a481611ee6565b156123e4576040517f08c379a00000000000000000000000000000000000000000000000000000000081526004016123db90613e55565b60405180910390fd5b6001600360008473ffffffffffffffffffffffffffffffffffffffff1673ffffffffffffffffffffffffffffffffffffffff16815260200190815260200160002060008282540192505081905550816002600083815260200190815260200160002060006101000a81548173ffffffffffffffffffffffffffffffffffffffff021916908373ffffffffffffffffffffffffffffffffffffffff160217905550808273ffffffffffffffffffffffffffffffffffffffff16600073ffffffffffffffffffffffffffffffffffffffff167fddf252ad1be2c89b69c2b068fc378daa952ba7f163c4a11628f55a4df523b3ef60405160405180910390a46124ee600083836001611ff2565b5050565b6000808273ffffffffffffffffffffffffffffffffffffffff163b119050919050565b6000604051905090565b600080fd5b600080fd5b60007fffffffff0000000000000000000000000000000000000000000000000000000082169050919050565b61255e81612529565b811461256957600080fd5b50565b60008135905061257b81612555565b92915050565b6000602082840312156125975761259661251f565b5b60006125a58482850161256c565b91505092915050565b60008115159050919050565b6125c3816125ae565b82525050565b60006020820190506125de60008301846125ba565b92915050565b600081519050919050565b600082825260208201905092915050565b60005b8381101561261e578082015181840152602081019050612603565b60008484015250505050565b6000601f19601f8301169050919050565b6000612646826125e4565b61265081856125ef565b9350612660818560208601612600565b6126698161262a565b840191505092915050565b6000602082019050818103600083015261268e818461263b565b905092915050565b6000819050919050565b6126a981612696565b81146126b457600080fd5b50565b6000813590506126c6816126a0565b92915050565b6000602082840312156126e2576126e161251f565b5b60006126f0848285016126b7565b91505092915050565b600073ffffffffffffffffffffffffffffffffffffffff82169050919050565b6000612724826126f9565b9050919050565b61273481612719565b82525050565b600060208201905061274f600083018461272b565b92915050565b61275e81612719565b811461276957600080fd5b50565b60008135905061277b81612755565b92915050565b600080604083850312156127985761279761251f565b5b60006127a68582860161276c565b92505060206127b7858286016126b7565b9150509250929050565b6000806000606084860312156127da576127d961251f565b5b60006127e88682870161276c565b93505060206127f98682870161276c565b925050604061280a868287016126b7565b9150509250925092565b600080fd5b600080fd5b7f4e487b7100000000000000000000000000000000000000000000000000000000600052604160045260246000fd5b6128568261262a565b810181811067ffffffffffffffff821117156128755761287461281e565b5b80604052505050565b6000612888612515565b9050612894828261284d565b919050565b600067ffffffffffffffff8211156128b4576128b361281e565b5b6128bd8261262a565b9050602081019050919050565b82818337600083830152505050565b60006128ec6128e784612899565b61287e565b90508281526020810184848401111561290857612907612819565b5b6129138482856128ca565b509392505050565b600082601f8301126129305761292f612814565b5b81356129408482602086016128d9565b91505092915050565b60006020828403121561295f5761295e61251f565b5b600082013567ffffffffffffffff81111561297d5761297c612524565b5b6129898482850161291b565b91505092915050565b6000602082840312156129a8576129a761251f565b5b60006129b68482850161276c565b91505092915050565b6129c881612696565b82525050565b60006020820190506129e360008301846129bf565b92915050565b6129f2816125ae565b81146129fd57600080fd5b50565b600081359050612a0f816129e9565b92915050565b60008060408385031215612a2c57612a2b61251f565b5b6000612a3a8582860161276c565b9250506020612a4b85828601612a00565b9150509250929050565b600067ffffffffffffffff821115612a7057612a6f61281e565b5b612a798261262a565b9050602081019050919050565b6000612a99612a9484612a55565b61287e565b905082815260208101848484011115612ab557612ab4612819565b5b612ac08482856128ca565b509392505050565b600082601f830112612add57612adc612814565b5b8135612aed848260208601612a86565b91505092915050565b60008060008060808587031215612b1057612b0f61251f565b5b6000612b1e8782880161276c565b9450506020612b2f8782880161276c565b9350506040612b40878288016126b7565b925050606085013567ffffffffffffffff811115612b6157612b60612524565b5b612b6d87828801612ac8565b91505092959194509250565b60008060408385031215612b9057612b8f61251f565b5b6000612b9e8582860161276c565b9250506020612baf8582860161276c565b9150509250929050565b7f4e487b7100000000000000000000000000000000000000000000000000000000600052602260045260246000fd5b60006002820490506001821680612c0057607f821691505b602082108103612c1357612c12612bb9565b5b50919050565b7f4552433732313a20617070726f76616c20746f2063757272656e74206f776e6560008201527f7200000000000000000000000000000000000000000000000000000000000000602082015250565b6000612c756021836125ef565b9150612c8082612c19565b604082019050919050565b60006020820190508181036000830152612ca481612c68565b9050919050565b7f4552433732313a20617070726f76652063616c6c6572206973206e6f7420746f60008201527f6b656e206f776e6572206f7220617070726f76656420666f7220616c6c000000602082015250565b6000612d07603d836125ef565b9150612d1282612cab565b604082019050919050565b60006020820190508181036000830152612d3681612cfa565b9050919050565b7f4552433732313a2063616c6c6572206973206e6f7420746f6b656e206f776e6560008201527f72206f7220617070726f76656400000000000000000000000000000000000000602082015250565b6000612d99602d836125ef565b9150612da482612d3d565b604082019050919050565b60006020820190508181036000830152612dc881612d8c565b9050919050565b600081905092915050565b6000612de5826125e4565b612def8185612dcf565b9350612dff818560208601612600565b80840191505092915050565b6000612e178285612dda565b9150612e238284612dda565b91508190509392505050565b7f4552433732313a20696e76616c696420746f6b656e2049440000000000000000600082015250565b6000612e656018836125ef565b9150612e7082612e2f565b602082019050919050565b60006020820190508181036000830152612e9481612e58565b9050919050565b7f4e487b7100000000000000000000000000000000000000000000000000000000600052601260045260246000fd5b7f4e487b7100000000000000000000000000000000000000000000000000000000600052601160045260246000fd5b6000612f0482612696565b9150612f0f83612696565b925082612f1f57612f1e612e9b565b5b828204905092915050565b6000612f3582612696565b9150612f4083612696565b925082612f5057612f4f612e9b565b5b828206905092915050565b7f3a00000000000000000000000000000000000000000000000000000000000000600082015250565b6000612f91600183612dcf565b9150612f9c82612f5b565b600182019050919050565b6000612fb38289612dda565b9150612fbf8288612dda565b9150612fca82612f84565b9150612fd68287612dda565b9150612fe28286612dda565b9150612fed82612f84565b9150612ff98285612dda565b91506130058284612dda565b9150819050979650505050505050565b7f3c7376672077696474683d2234303022206865696768743d223430302220786d60008201527f6c6e733d22687474703a2f2f7777772e77332e6f72672f323030302f7376672260208201527f3e00000000000000000000000000000000000000000000000000000000000000604082015250565b6000613097604183612dcf565b91506130a282613015565b604182019050919050565b7f3c726563742077696474683d223130302522206865696768743d22313030252260008201527f2066696c6c3d2223303030303030222f3e000000000000000000000000000000602082015250565b6000613109603183612dcf565b9150613114826130ad565b603182019050919050565b7f3c7465787420783d223530252220793d223530252220666f6e742d66616d696c60008201527f793d22417269616c2220666f6e742d73697a653d223438222066696c6c3d222360208201527f4646464646462220746578742d616e63686f723d226d6964646c652220646f6d60408201527f696e616e742d626173656c696e653d226d6964646c65223e0000000000000000606082015250565b60006131c7607883612dcf565b91506131d28261311f565b607882019050919050565b7f3c2f746578743e00000000000000000000000000000000000000000000000000600082015250565b6000613213600783612dcf565b915061321e826131dd565b600782019050919050565b7f3c2f7376673e0000000000000000000000000000000000000000000000000000600082015250565b600061325f600683612dcf565b915061326a82613229565b600682019050919050565b60006132808261308a565b915061328b826130fc565b9150613296826131ba565b91506132a28284612dda565b91506132ad82613206565b91506132b882613252565b915081905092915050565b7f4552433732313a2061646472657373207a65726f206973206e6f74206120766160008201527f6c6964206f776e65720000000000000000000000000000000000000000000000602082015250565b600061331f6029836125ef565b915061332a826132c3565b604082019050919050565b6000602082019050818103600083015261334e81613312565b9050919050565b7f7b226e616d65223a202254494d45204f4e2d434841494e4544222c2000000000600082015250565b600061338b601c83612dcf565b915061339682613355565b601c82019050919050565b7f226465736372697074696f6e223a2022416e206f6e2d636861696e204e46542060008201527f646973706c6179696e67207468652063757272656e742074696d65206261736560208201527f64206f6e20626c6f636b2e74696d657374616d70222c20000000000000000000604082015250565b6000613423605783612dcf565b915061342e826133a1565b605782019050919050565b7f22696d616765223a220000000000000000000000000000000000000000000000600082015250565b600061346f600983612dcf565b915061347a82613439565b600982019050919050565b7f227d000000000000000000000000000000000000000000000000000000000000600082015250565b60006134bb600283612dcf565b91506134c682613485565b600282019050919050565b60006134dc8261337e565b91506134e782613416565b91506134f282613462565b91506134fe8284612dda565b9150613509826134ae565b915081905092915050565b7f646174613a6170706c69636174696f6e2f6a736f6e3b6261736536342c000000600082015250565b600061354a601d83612dcf565b915061355582613514565b601d82019050919050565b600061356b8261353d565b91506135778284612dda565b915081905092915050565b7f45524337323155524953746f726167653a2055524920717565727920666f722060008201527f6e6f6e6578697374656e7420746f6b656e000000000000000000000000000000602082015250565b60006135de6031836125ef565b91506135e982613582565b604082019050919050565b6000602082019050818103600083015261360d816135d1565b9050919050565b7f4f776e61626c653a206e6577206f776e657220697320746865207a65726f206160008201527f6464726573730000000000000000000000000000000000000000000000000000602082015250565b60006136706026836125ef565b915061367b82613614565b604082019050919050565b6000602082019050818103600083015261369f81613663565b9050919050565b7f4f776e61626c653a2063616c6c6572206973206e6f7420746865206f776e6572600082015250565b60006136dc6020836125ef565b91506136e7826136a6565b602082019050919050565b6000602082019050818103600083015261370b816136cf565b9050919050565b7f45524337323155524953746f726167653a2055524920736574206f66206e6f6e60008201527f6578697374656e7420746f6b656e000000000000000000000000000000000000602082015250565b600061376e602e836125ef565b915061377982613712565b604082019050919050565b6000602082019050818103600083015261379d81613761565b9050919050565b60008190508160005260206000209050919050565b60006020601f8301049050919050565b600082821b905092915050565b6000600883026138067fffffffffffffffffffffffffffffffffffffffffffffffffffffffffffffffff826137c9565b61381086836137c9565b95508019841693508086168417925050509392505050565b6000819050919050565b600061384d61384861384384612696565b613828565b612696565b9050919050565b6000819050919050565b61386783613832565b61387b61387382613854565b8484546137d6565b825550505050565b600090565b613890613883565b61389b81848461385e565b505050565b5b818110156138bf576138b4600082613888565b6001810190506138a1565b5050565b601f821115613904576138d5816137a4565b6138de846137b9565b810160208510156138ed578190505b6139016138f9856137b9565b8301826138a0565b50505b505050565b600082821c905092915050565b600061392760001984600802613909565b1980831691505092915050565b60006139408383613916565b9150826002028217905092915050565b613959826125e4565b67ffffffffffffffff8111156139725761397161281e565b5b61397c8254612be8565b6139878282856138c3565b600060209050601f8311600181146139ba57600084156139a8578287015190505b6139b28582613934565b865550613a1a565b601f1984166139c8866137a4565b60005b828110156139f0578489015182556001820191506020850194506020810190506139cb565b86831015613a0d5784890151613a09601f891682613916565b8355505b6001600288020188555050505b505050505050565b7f4552433732313a207472616e736665722066726f6d20696e636f72726563742060008201527f6f776e6572000000000000000000000000000000000000000000000000000000602082015250565b6000613a7e6025836125ef565b9150613a8982613a22565b604082019050919050565b60006020820190508181036000830152613aad81613a71565b9050919050565b7f4552433732313a207472616e7366657220746f20746865207a65726f2061646460008201527f7265737300000000000000000000000000000000000000000000000000000000602082015250565b6000613b106024836125ef565b9150613b1b82613ab4565b604082019050919050565b60006020820190508181036000830152613b3f81613b03565b9050919050565b6000613b5182612696565b9150613b5c83612696565b9250828201905080821115613b7457613b73612eca565b5b92915050565b6000613b8582612696565b9150613b9083612696565b9250828202613b9e81612696565b91508282048414831517613bb557613bb4612eca565b5b5092915050565b7f4552433732313a20617070726f766520746f2063616c6c657200000000000000600082015250565b6000613bf26019836125ef565b9150613bfd82613bbc565b602082019050919050565b60006020820190508181036000830152613c2181613be5565b9050919050565b7f4552433732313a207472616e7366657220746f206e6f6e20455243373231526560008201527f63656976657220696d706c656d656e7465720000000000000000000000000000602082015250565b6000613c846032836125ef565b9150613c8f82613c28565b604082019050919050565b60006020820190508181036000830152613cb381613c77565b9050919050565b600081519050919050565b600082825260208201905092915050565b6000613ce182613cba565b613ceb8185613cc5565b9350613cfb818560208601612600565b613d048161262a565b840191505092915050565b6000608082019050613d24600083018761272b565b613d31602083018661272b565b613d3e60408301856129bf565b8181036060830152613d508184613cd6565b905095945050505050565b600081519050613d6a81612555565b92915050565b600060208284031215613d8657613d8561251f565b5b6000613d9484828501613d5b565b91505092915050565b7f4552433732313a206d696e7420746f20746865207a65726f2061646472657373600082015250565b6000613dd36020836125ef565b9150613dde82613d9d565b602082019050919050565b60006020820190508181036000830152613e0281613dc6565b9050919050565b7f4552433732313a20746f6b656e20616c7265616479206d696e74656400000000600082015250565b6000613e3f601c836125ef565b9150613e4a82613e09565b602082019050919050565b60006020820190508181036000830152613e6e81613e32565b905091905056fe4142434445464748494a4b4c4d4e4f505152535455565758595a6162636465666768696a6b6c6d6e6f707172737475767778797a303132333435363738392b2fa2646970667358221220706ccf788aca5622eadb3e5ce1e0327df5865ae59fc2c2871ca086d1fb68db7e64736f6c634300081c0033","opcodes":"PUSH1 0x80 PUSH1 0x40 MSTORE CALLVALUE DUP1 ISZERO PUSH2 0x10 JUMPI PUSH1 0x0 DUP1 REVERT JUMPDEST POP PUSH1 0x40 MLOAD DUP1 PUSH1 0x40 ADD PUSH1 0x40 MSTORE DUP1 PUSH1 0xE DUP2 MSTORE PUSH1 0x20 ADD PUSH32 0x54696D654F6E436861696E4E4654000000000000000000000000000000000000 DUP2 MSTORE POP PUSH1 0x40 MLOAD DUP1 PUSH1 0x40 ADD PUSH1 0x40 MSTORE DUP1 PUSH1 0x3 DUP2 MSTORE PUSH1 0x20 ADD PUSH32 0x544F430000000000000000000000000000000000000000000000000000000000 DUP2 MSTORE POP DUP2 PUSH1 0x0 SWAP1 DUP2 PUSH2 0x8C SWAP2 SWAP1 PUSH2 0x3FB JUMP JUMPDEST POP DUP1 PUSH1 0x1 SWAP1 DUP2 PUSH2 0x9C SWAP2 SWAP1 PUSH2 0x3FB JUMP JUMPDEST POP POP POP PUSH2 0xBB PUSH2 0xB0 PUSH2 0xDA PUSH1 0x20 SHL PUSH1 0x20 SHR JUMP JUMPDEST PUSH2 0xE2 PUSH1 0x20 SHL PUSH1 0x20 SHR JUMP JUMPDEST PUSH2 0xD5 PUSH8 0x9A17289F8E8F97DD PUSH1 0xC0 SHL PUSH2 0x1A8 PUSH1 0x20 SHL PUSH1 0x20 SHR JUMP JUMPDEST PUSH2 0x4CD JUMP JUMPDEST PUSH1 0x0 CALLER SWAP1 POP SWAP1 JUMP JUMPDEST PUSH1 0x0 PUSH1 0x7 PUSH1 0x0 SWAP1 SLOAD SWAP1 PUSH2 0x100 EXP SWAP1 DIV PUSH20 0xFFFFFFFFFFFFFFFFFFFFFFFFFFFFFFFFFFFFFFFF AND SWAP1 POP DUP2 PUSH1 0x7 PUSH1 0x0 PUSH2 0x100 EXP DUP2 SLOAD DUP2 PUSH20 0xFFFFFFFFFFFFFFFFFFFFFFFFFFFFFFFFFFFFFFFF MUL NOT AND SWAP1 DUP4 PUSH20 0xFFFFFFFFFFFFFFFFFFFFFFFFFFFFFFFFFFFFFFFF AND MUL OR SWAP1 SSTORE POP DUP2 PUSH20 0xFFFFFFFFFFFFFFFFFFFFFFFFFFFFFFFFFFFFFFFF AND DUP2 PUSH20 0xFFFFFFFFFFFFFFFFFFFFFFFFFFFFFFFFFFFFFFFF AND PUSH32 0x8BE0079C531659141344CD1FD0A4F28419497F9722A3DAAFE3B4186F6B6457E0 PUSH1 0x40 MLOAD PUSH1 0x40 MLOAD DUP1 SWAP2 SUB SWAP1 LOG3 POP POP JUMP JUMPDEST POP JUMP JUMPDEST PUSH1 0x0 DUP2 MLOAD SWAP1 POP SWAP2 SWAP1 POP JUMP JUMPDEST PUSH32 0x4E487B7100000000000000000000000000000000000000000000000000000000 PUSH1 0x0 MSTORE PUSH1 0x41 PUSH1 0x4 MSTORE PUSH1 0x24 PUSH1 0x0 REVERT JUMPDEST PUSH32 0x4E487B7100000000000000000000000000000000000000000000000000000000 PUSH1 0x0 MSTORE PUSH1 0x22 PUSH1 0x4 MSTORE PUSH1 0x24 PUSH1 0x0 REVERT JUMPDEST PUSH1 0x0 PUSH1 0x2 DUP3 DIV SWAP1 POP PUSH1 0x1 DUP3 AND DUP1 PUSH2 0x22C JUMPI PUSH1 0x7F DUP3 AND SWAP2 POP JUMPDEST PUSH1 0x20 DUP3 LT DUP2 SUB PUSH2 0x23F JUMPI PUSH2 0x23E PUSH2 0x1E5 JUMP JUMPDEST JUMPDEST POP SWAP2 SWAP1 POP JUMP JUMPDEST PUSH1 0x0 DUP2 SWAP1 POP DUP2 PUSH1 0x0 MSTORE PUSH1 0x20 PUSH1 0x0 KECCAK256 SWAP1 POP SWAP2 SWAP1 POP JUMP JUMPDEST PUSH1 0x0 PUSH1 0x20 PUSH1 0x1F DUP4 ADD DIV SWAP1 POP SWAP2 SWAP1 POP JUMP JUMPDEST PUSH1 0x0 DUP3 DUP3 SHL SWAP1 POP SWAP3 SWAP2 POP POP JUMP JUMPDEST PUSH1 0x0 PUSH1 0x8 DUP4 MUL PUSH2 0x2A7 PUSH32 0xFFFFFFFFFFFFFFFFFFFFFFFFFFFFFFFFFFFFFFFFFFFFFFFFFFFFFFFFFFFFFFFF DUP3 PUSH2 0x26A JUMP JUMPDEST PUSH2 0x2B1 DUP7 DUP4 PUSH2 0x26A JUMP JUMPDEST SWAP6 POP DUP1 NOT DUP5 AND SWAP4 POP DUP1 DUP7 AND DUP5 OR SWAP3 POP POP POP SWAP4 SWAP3 POP POP POP JUMP JUMPDEST PUSH1 0x0 DUP2 SWAP1 POP SWAP2 SWAP1 POP JUMP JUMPDEST PUSH1 0x0 DUP2 SWAP1 POP SWAP2 SWAP1 POP JUMP JUMPDEST PUSH1 0x0 PUSH2 0x2F8 PUSH2 0x2F3 PUSH2 0x2EE DUP5 PUSH2 0x2C9 JUMP JUMPDEST PUSH2 0x2D3 JUMP JUMPDEST PUSH2 0x2C9 JUMP JUMPDEST SWAP1 POP SWAP2 SWAP1 POP JUMP JUMPDEST PUSH1 0x0 DUP2 SWAP1 POP SWAP2 SWAP1 POP JUMP JUMPDEST PUSH2 0x312 DUP4 PUSH2 0x2DD JUMP JUMPDEST PUSH2 0x326 PUSH2 0x31E DUP3 PUSH2 0x2FF JUMP JUMPDEST DUP5 DUP5 SLOAD PUSH2 0x277 JUMP JUMPDEST DUP3 SSTORE POP POP POP POP JUMP JUMPDEST PUSH1 0x0 SWAP1 JUMP JUMPDEST PUSH2 0x33B PUSH2 0x32E JUMP JUMPDEST PUSH2 0x346 DUP2 DUP5 DUP5 PUSH2 0x309 JUMP JUMPDEST POP POP POP JUMP JUMPDEST JUMPDEST DUP2 DUP2 LT ISZERO PUSH2 0x36A JUMPI PUSH2 0x35F PUSH1 0x0 DUP3 PUSH2 0x333 JUMP JUMPDEST PUSH1 0x1 DUP2 ADD SWAP1 POP PUSH2 0x34C JUMP JUMPDEST POP POP JUMP JUMPDEST PUSH1 0x1F DUP3 GT ISZERO PUSH2 0x3AF JUMPI PUSH2 0x380 DUP2 PUSH2 0x245 JUMP JUMPDEST PUSH2 0x389 DUP5 PUSH2 0x25A JUMP JUMPDEST DUP2 ADD PUSH1 0x20 DUP6 LT ISZERO PUSH2 0x398 JUMPI DUP2 SWAP1 POP JUMPDEST PUSH2 0x3AC PUSH2 0x3A4 DUP6 PUSH2 0x25A JUMP JUMPDEST DUP4 ADD DUP3 PUSH2 0x34B JUMP JUMPDEST POP POP JUMPDEST POP POP POP JUMP JUMPDEST PUSH1 0x0 DUP3 DUP3 SHR SWAP1 POP SWAP3 SWAP2 POP POP JUMP JUMPDEST PUSH1 0x0 PUSH2 0x3D2 PUSH1 0x0 NOT DUP5 PUSH1 0x8 MUL PUSH2 0x3B4 JUMP JUMPDEST NOT DUP1 DUP4 AND SWAP2 POP POP SWAP3 SWAP2 POP POP JUMP JUMPDEST PUSH1 0x0 PUSH2 0x3EB DUP4 DUP4 PUSH2 0x3C1 JUMP JUMPDEST SWAP2 POP DUP3 PUSH1 0x2 MUL DUP3 OR SWAP1 POP SWAP3 SWAP2 POP POP JUMP JUMPDEST PUSH2 0x404 DUP3 PUSH2 0x1AB JUMP JUMPDEST PUSH8 0xFFFFFFFFFFFFFFFF DUP2 GT ISZERO PUSH2 0x41D JUMPI PUSH2 0x41C PUSH2 0x1B6 JUMP JUMPDEST JUMPDEST PUSH2 0x427 DUP3 SLOAD PUSH2 0x214 JUMP JUMPDEST PUSH2 0x432 DUP3 DUP3 DUP6 PUSH2 0x36E JUMP JUMPDEST PUSH1 0x0 PUSH1 0x20 SWAP1 POP PUSH1 0x1F DUP4 GT PUSH1 0x1 DUP2 EQ PUSH2 0x465 JUMPI PUSH1 0x0 DUP5 ISZERO PUSH2 0x453 JUMPI DUP3 DUP8 ADD MLOAD SWAP1 POP JUMPDEST PUSH2 0x45D DUP6 DUP3 PUSH2 0x3DF JUMP JUMPDEST DUP7 SSTORE POP PUSH2 0x4C5 JUMP JUMPDEST PUSH1 0x1F NOT DUP5 AND PUSH2 0x473 DUP7 PUSH2 0x245 JUMP JUMPDEST PUSH1 0x0 JUMPDEST DUP3 DUP2 LT ISZERO PUSH2 0x49B JUMPI DUP5 DUP10 ADD MLOAD DUP3 SSTORE PUSH1 0x1 DUP3 ADD SWAP2 POP PUSH1 0x20 DUP6 ADD SWAP5 POP PUSH1 0x20 DUP2 ADD SWAP1 POP PUSH2 0x476 JUMP JUMPDEST DUP7 DUP4 LT ISZERO PUSH2 0x4B8 JUMPI DUP5 DUP10 ADD MLOAD PUSH2 0x4B4 PUSH1 0x1F DUP10 AND DUP3 PUSH2 0x3C1 JUMP JUMPDEST DUP4 SSTORE POP JUMPDEST PUSH1 0x1 PUSH1 0x2 DUP9 MUL ADD DUP9 SSTORE POP POP POP JUMPDEST POP POP POP POP POP POP JUMP JUMPDEST PUSH2 0x3EEB DUP1 PUSH2 0x4DC PUSH1 0x0 CODECOPY PUSH1 0x0 RETURN INVALID PUSH1 0x80 PUSH1 0x40 MSTORE CALLVALUE DUP1 ISZERO PUSH2 0x10 JUMPI PUSH1 0x0 DUP1 REVERT JUMPDEST POP PUSH1 0x4 CALLDATASIZE LT PUSH2 0x12C JUMPI PUSH1 0x0 CALLDATALOAD PUSH1 0xE0 SHR DUP1 PUSH4 0x70A08231 GT PUSH2 0xAD JUMPI DUP1 PUSH4 0xA22CB465 GT PUSH2 0x71 JUMPI DUP1 PUSH4 0xA22CB465 EQ PUSH2 0x343 JUMPI DUP1 PUSH4 0xB88D4FDE EQ PUSH2 0x35F JUMPI DUP1 PUSH4 0xC87B56DD EQ PUSH2 0x37B JUMPI DUP1 PUSH4 0xE985E9C5 EQ PUSH2 0x3AB JUMPI DUP1 PUSH4 0xF2FDE38B EQ PUSH2 0x3DB JUMPI PUSH2 0x12C JUMP JUMPDEST DUP1 PUSH4 0x70A08231 EQ PUSH2 0x29D JUMPI DUP1 PUSH4 0x715018A6 EQ PUSH2 0x2CD JUMPI DUP1 PUSH4 0x71AEE193 EQ PUSH2 0x2D7 JUMPI DUP1 PUSH4 0x8DA5CB5B EQ PUSH2 0x307 JUMPI DUP1 PUSH4 0x95D89B41 EQ PUSH2 0x325 JUMPI PUSH2 0x12C JUMP JUMPDEST DUP1 PUSH4 0x23B872DD GT PUSH2 0xF4 JUMPI DUP1 PUSH4 0x23B872DD EQ PUSH2 0x1D5 JUMPI DUP1 PUSH4 0x30D871C6 EQ PUSH2 0x1F1 JUMPI DUP1 PUSH4 0x42842E0E EQ PUSH2 0x221 JUMPI DUP1 PUSH4 0x6352211E EQ PUSH2 0x23D JUMPI DUP1 PUSH4 0x6DCEE4CA EQ PUSH2 0x26D JUMPI PUSH2 0x12C JUMP JUMPDEST DUP1 PUSH4 0x1FFC9A7 EQ PUSH2 0x131 JUMPI DUP1 PUSH4 0x6FDDE03 EQ PUSH2 0x161 JUMPI DUP1 PUSH4 0x81812FC EQ PUSH2 0x17F JUMPI DUP1 PUSH4 0x95EA7B3 EQ PUSH2 0x1AF JUMPI DUP1 PUSH4 0x1249C58B EQ PUSH2 0x1CB JUMPI JUMPDEST PUSH1 0x0 DUP1 REVERT JUMPDEST PUSH2 0x14B PUSH1 0x4 DUP1 CALLDATASIZE SUB DUP2 ADD SWAP1 PUSH2 0x146 SWAP2 SWAP1 PUSH2 0x2581 JUMP JUMPDEST PUSH2 0x3F7 JUMP JUMPDEST PUSH1 0x40 MLOAD PUSH2 0x158 SWAP2 SWAP1 PUSH2 0x25C9 JUMP JUMPDEST PUSH1 0x40 MLOAD DUP1 SWAP2 SUB SWAP1 RETURN JUMPDEST PUSH2 0x169 PUSH2 0x458 JUMP JUMPDEST PUSH1 0x40 MLOAD PUSH2 0x176 SWAP2 SWAP1 PUSH2 0x2674 JUMP JUMPDEST PUSH1 0x40 MLOAD DUP1 SWAP2 SUB SWAP1 RETURN JUMPDEST PUSH2 0x199 PUSH1 0x4 DUP1 CALLDATASIZE SUB DUP2 ADD SWAP1 PUSH2 0x194 SWAP2 SWAP1 PUSH2 0x26CC JUMP JUMPDEST PUSH2 0x4EA JUMP JUMPDEST PUSH1 0x40 MLOAD PUSH2 0x1A6 SWAP2 SWAP1 PUSH2 0x273A JUMP JUMPDEST PUSH1 0x40 MLOAD DUP1 SWAP2 SUB SWAP1 RETURN JUMPDEST PUSH2 0x1C9 PUSH1 0x4 DUP1 CALLDATASIZE SUB DUP2 ADD SWAP1 PUSH2 0x1C4 SWAP2 SWAP1 PUSH2 0x2781 JUMP JUMPDEST PUSH2 0x530 JUMP JUMPDEST STOP JUMPDEST PUSH2 0x1D3 PUSH2 0x647 JUMP JUMPDEST STOP JUMPDEST PUSH2 0x1EF PUSH1 0x4 DUP1 CALLDATASIZE SUB DUP2 ADD SWAP1 PUSH2 0x1EA SWAP2 SWAP1 PUSH2 0x27C1 JUMP JUMPDEST PUSH2 0x85B JUMP JUMPDEST STOP JUMPDEST PUSH2 0x20B PUSH1 0x4 DUP1 CALLDATASIZE SUB DUP2 ADD SWAP1 PUSH2 0x206 SWAP2 SWAP1 PUSH2 0x2949 JUMP JUMPDEST PUSH2 0x8BB JUMP JUMPDEST PUSH1 0x40 MLOAD PUSH2 0x218 SWAP2 SWAP1 PUSH2 0x2674 JUMP JUMPDEST PUSH1 0x40 MLOAD DUP1 SWAP2 SUB SWAP1 RETURN JUMPDEST PUSH2 0x23B PUSH1 0x4 DUP1 CALLDATASIZE SUB DUP2 ADD SWAP1 PUSH2 0x236 SWAP2 SWAP1 PUSH2 0x27C1 JUMP JUMPDEST PUSH2 0x9BB JUMP JUMPDEST STOP JUMPDEST PUSH2 0x257 PUSH1 0x4 DUP1 CALLDATASIZE SUB DUP2 ADD SWAP1 PUSH2 0x252 SWAP2 SWAP1 PUSH2 0x26CC JUMP JUMPDEST PUSH2 0x9DB JUMP JUMPDEST PUSH1 0x40 MLOAD PUSH2 0x264 SWAP2 SWAP1 PUSH2 0x273A JUMP JUMPDEST PUSH1 0x40 MLOAD DUP1 SWAP2 SUB SWAP1 RETURN JUMPDEST PUSH2 0x287 PUSH1 0x4 DUP1 CALLDATASIZE SUB DUP2 ADD SWAP1 PUSH2 0x282 SWAP2 SWAP1 PUSH2 0x26CC JUMP JUMPDEST PUSH2 0xA61 JUMP JUMPDEST PUSH1 0x40 MLOAD PUSH2 0x294 SWAP2 SWAP1 PUSH2 0x2674 JUMP JUMPDEST PUSH1 0x40 MLOAD DUP1 SWAP2 SUB SWAP1 RETURN JUMPDEST PUSH2 0x2B7 PUSH1 0x4 DUP1 CALLDATASIZE SUB DUP2 ADD SWAP1 PUSH2 0x2B2 SWAP2 SWAP1 PUSH2 0x2992 JUMP JUMPDEST PUSH2 0xC8B JUMP JUMPDEST PUSH1 0x40 MLOAD PUSH2 0x2C4 SWAP2 SWAP1 PUSH2 0x29CE JUMP JUMPDEST PUSH1 0x40 MLOAD DUP1 SWAP2 SUB SWAP1 RETURN JUMPDEST PUSH2 0x2D5 PUSH2 0xD42 JUMP JUMPDEST STOP JUMPDEST PUSH2 0x2F1 PUSH1 0x4 DUP1 CALLDATASIZE SUB DUP2 ADD SWAP1 PUSH2 0x2EC SWAP2 SWAP1 PUSH2 0x2949 JUMP JUMPDEST PUSH2 0xD56 JUMP JUMPDEST PUSH1 0x40 MLOAD PUSH2 0x2FE SWAP2 SWAP1 PUSH2 0x2674 JUMP JUMPDEST PUSH1 0x40 MLOAD DUP1 SWAP2 SUB SWAP1 RETURN JUMPDEST PUSH2 0x30F PUSH2 0xDE2 JUMP JUMPDEST PUSH1 0x40 MLOAD PUSH2 0x31C SWAP2 SWAP1 PUSH2 0x273A JUMP JUMPDEST PUSH1 0x40 MLOAD DUP1 SWAP2 SUB SWAP1 RETURN JUMPDEST PUSH2 0x32D PUSH2 0xE0C JUMP JUMPDEST PUSH1 0x40 MLOAD PUSH2 0x33A SWAP2 SWAP1 PUSH2 0x2674 JUMP JUMPDEST PUSH1 0x40 MLOAD DUP1 SWAP2 SUB SWAP1 RETURN JUMPDEST PUSH2 0x35D PUSH1 0x4 DUP1 CALLDATASIZE SUB DUP2 ADD SWAP1 PUSH2 0x358 SWAP2 SWAP1 PUSH2 0x2A15 JUMP JUMPDEST PUSH2 0xE9E JUMP JUMPDEST STOP JUMPDEST PUSH2 0x379 PUSH1 0x4 DUP1 CALLDATASIZE SUB DUP2 ADD SWAP1 PUSH2 0x374 SWAP2 SWAP1 PUSH2 0x2AF6 JUMP JUMPDEST PUSH2 0xEB4 JUMP JUMPDEST STOP JUMPDEST PUSH2 0x395 PUSH1 0x4 DUP1 CALLDATASIZE SUB DUP2 ADD SWAP1 PUSH2 0x390 SWAP2 SWAP1 PUSH2 0x26CC JUMP JUMPDEST PUSH2 0xF16 JUMP JUMPDEST PUSH1 0x40 MLOAD PUSH2 0x3A2 SWAP2 SWAP1 PUSH2 0x2674 JUMP JUMPDEST PUSH1 0x40 MLOAD DUP1 SWAP2 SUB SWAP1 RETURN JUMPDEST PUSH2 0x3C5 PUSH1 0x4 DUP1 CALLDATASIZE SUB DUP2 ADD SWAP1 PUSH2 0x3C0 SWAP2 SWAP1 PUSH2 0x2B79 JUMP JUMPDEST PUSH2 0x1068 JUMP JUMPDEST PUSH1 0x40 MLOAD PUSH2 0x3D2 SWAP2 SWAP1 PUSH2 0x25C9 JUMP JUMPDEST PUSH1 0x40 MLOAD DUP1 SWAP2 SUB SWAP1 RETURN JUMPDEST PUSH2 0x3F5 PUSH1 0x4 DUP1 CALLDATASIZE SUB DUP2 ADD SWAP1 PUSH2 0x3F0 SWAP2 SWAP1 PUSH2 0x2992 JUMP JUMPDEST PUSH2 0x10FC JUMP JUMPDEST STOP JUMPDEST PUSH1 0x0 PUSH4 0x49064906 PUSH1 0xE0 SHL PUSH28 0xFFFFFFFFFFFFFFFFFFFFFFFFFFFFFFFFFFFFFFFFFFFFFFFFFFFFFFFF NOT AND DUP3 PUSH28 0xFFFFFFFFFFFFFFFFFFFFFFFFFFFFFFFFFFFFFFFFFFFFFFFFFFFFFFFF NOT AND EQ DUP1 PUSH2 0x451 JUMPI POP PUSH2 0x450 DUP3 PUSH2 0x117F JUMP JUMPDEST JUMPDEST SWAP1 POP SWAP2 SWAP1 POP JUMP JUMPDEST PUSH1 0x60 PUSH1 0x0 DUP1 SLOAD PUSH2 0x467 SWAP1 PUSH2 0x2BE8 JUMP JUMPDEST DUP1 PUSH1 0x1F ADD PUSH1 0x20 DUP1 SWAP2 DIV MUL PUSH1 0x20 ADD PUSH1 0x40 MLOAD SWAP1 DUP2 ADD PUSH1 0x40 MSTORE DUP1 SWAP3 SWAP2 SWAP1 DUP2 DUP2 MSTORE PUSH1 0x20 ADD DUP3 DUP1 SLOAD PUSH2 0x493 SWAP1 PUSH2 0x2BE8 JUMP JUMPDEST DUP1 ISZERO PUSH2 0x4E0 JUMPI DUP1 PUSH1 0x1F LT PUSH2 0x4B5 JUMPI PUSH2 0x100 DUP1 DUP4 SLOAD DIV MUL DUP4 MSTORE SWAP2 PUSH1 0x20 ADD SWAP2 PUSH2 0x4E0 JUMP JUMPDEST DUP3 ADD SWAP2 SWAP1 PUSH1 0x0 MSTORE PUSH1 0x20 PUSH1 0x0 KECCAK256 SWAP1 JUMPDEST DUP2 SLOAD DUP2 MSTORE SWAP1 PUSH1 0x1 ADD SWAP1 PUSH1 0x20 ADD DUP1 DUP4 GT PUSH2 0x4C3 JUMPI DUP3 SWAP1 SUB PUSH1 0x1F AND DUP3 ADD SWAP2 JUMPDEST POP POP POP POP POP SWAP1 POP SWAP1 JUMP JUMPDEST PUSH1 0x0 PUSH2 0x4F5 DUP3 PUSH2 0x1261 JUMP JUMPDEST PUSH1 0x4 PUSH1 0x0 DUP4 DUP2 MSTORE PUSH1 0x20 ADD SWAP1 DUP2 MSTORE PUSH1 0x20 ADD PUSH1 0x0 KECCAK256 PUSH1 0x0 SWAP1 SLOAD SWAP1 PUSH2 0x100 EXP SWAP1 DIV PUSH20 0xFFFFFFFFFFFFFFFFFFFFFFFFFFFFFFFFFFFFFFFF AND SWAP1 POP SWAP2 SWAP1 POP JUMP JUMPDEST PUSH1 0x0 PUSH2 0x53B DUP3 PUSH2 0x9DB JUMP JUMPDEST SWAP1 POP DUP1 PUSH20 0xFFFFFFFFFFFFFFFFFFFFFFFFFFFFFFFFFFFFFFFF AND DUP4 PUSH20 0xFFFFFFFFFFFFFFFFFFFFFFFFFFFFFFFFFFFFFFFF AND SUB PUSH2 0x5AB JUMPI PUSH1 0x40 MLOAD PUSH32 0x8C379A000000000000000000000000000000000000000000000000000000000 DUP2 MSTORE PUSH1 0x4 ADD PUSH2 0x5A2 SWAP1 PUSH2 0x2C8B JUMP JUMPDEST PUSH1 0x40 MLOAD DUP1 SWAP2 SUB SWAP1 REVERT JUMPDEST DUP1 PUSH20 0xFFFFFFFFFFFFFFFFFFFFFFFFFFFFFFFFFFFFFFFF AND PUSH2 0x5CA PUSH2 0x12AC JUMP JUMPDEST PUSH20 0xFFFFFFFFFFFFFFFFFFFFFFFFFFFFFFFFFFFFFFFF AND EQ DUP1 PUSH2 0x5F9 JUMPI POP PUSH2 0x5F8 DUP2 PUSH2 0x5F3 PUSH2 0x12AC JUMP JUMPDEST PUSH2 0x1068 JUMP JUMPDEST JUMPDEST PUSH2 0x638 JUMPI PUSH1 0x40 MLOAD PUSH32 0x8C379A000000000000000000000000000000000000000000000000000000000 DUP2 MSTORE PUSH1 0x4 ADD PUSH2 0x62F SWAP1 PUSH2 0x2D1D JUMP JUMPDEST PUSH1 0x40 MLOAD DUP1 SWAP2 SUB SWAP1 REVERT JUMPDEST PUSH2 0x642 DUP4 DUP4 PUSH2 0x12B4 JUMP JUMPDEST POP POP POP JUMP JUMPDEST PUSH2 0x65B PUSH8 0x3048F7E440F9666 PUSH1 0xC0 SHL PUSH2 0x136D JUMP JUMPDEST PUSH2 0x663 PUSH2 0x1370 JUMP JUMPDEST PUSH2 0x677 PUSH8 0x74E35A573E44372C PUSH1 0xC0 SHL PUSH2 0x136D JUMP JUMPDEST PUSH2 0x68B PUSH8 0xA88D9A9D64507925 PUSH1 0xC0 SHL PUSH2 0x136D JUMP JUMPDEST PUSH2 0x69F PUSH8 0xC10AFE687AD00740 PUSH1 0xC0 SHL PUSH2 0x136D JUMP JUMPDEST PUSH2 0x6B3 PUSH8 0xB38F6B60CF6553A9 PUSH1 0xC0 SHL PUSH2 0x136D JUMP JUMPDEST PUSH1 0x0 PUSH2 0x6BE TIMESTAMP PUSH2 0xA61 JUMP JUMPDEST SWAP1 POP PUSH2 0x6D4 PUSH8 0xA0620F1D22D60576 PUSH1 0xC0 SHL PUSH2 0x136D JUMP JUMPDEST PUSH2 0x6E8 PUSH8 0x2410C11C65913899 PUSH1 0xC0 SHL PUSH2 0x136D JUMP JUMPDEST PUSH1 0x0 PUSH2 0x6F3 DUP3 PUSH2 0x8BB JUMP JUMPDEST SWAP1 POP PUSH2 0x709 PUSH8 0x93CA5C710922F993 PUSH1 0xC0 SHL PUSH2 0x136D JUMP JUMPDEST PUSH2 0x71D PUSH8 0xCE5CB557887A0C4A PUSH1 0xC0 SHL PUSH2 0x136D JUMP JUMPDEST PUSH1 0x0 PUSH2 0x728 DUP3 PUSH2 0xD56 JUMP JUMPDEST SWAP1 POP PUSH2 0x73E PUSH8 0x877C37FA57D56FC PUSH1 0xC0 SHL PUSH2 0x136D JUMP JUMPDEST PUSH2 0x752 PUSH8 0x168906D01590ECE2 PUSH1 0xC0 SHL PUSH2 0x136D JUMP JUMPDEST PUSH2 0x75C PUSH1 0x8 PUSH2 0x13EE JUMP JUMPDEST PUSH2 0x770 PUSH8 0x623C2110D212031A PUSH1 0xC0 SHL PUSH2 0x136D JUMP JUMPDEST PUSH2 0x784 PUSH8 0x83E78469436C52C3 PUSH1 0xC0 SHL PUSH2 0x136D JUMP JUMPDEST PUSH1 0x0 PUSH2 0x790 PUSH1 0x8 PUSH2 0x1404 JUMP JUMPDEST SWAP1 POP PUSH2 0x7A6 PUSH8 0xFB65D188AE87BB71 PUSH1 0xC0 SHL PUSH2 0x136D JUMP JUMPDEST PUSH2 0x7BA PUSH8 0xE2F14FB8D5588CDC PUSH1 0xC0 SHL PUSH2 0x136D JUMP JUMPDEST PUSH2 0x7C4 CALLER DUP3 PUSH2 0x1412 JUMP JUMPDEST PUSH2 0x7D8 PUSH8 0x60D1BE9E57D04B09 PUSH1 0xC0 SHL PUSH2 0x136D JUMP JUMPDEST PUSH2 0x7EC PUSH8 0x8D152A118F95AC1A PUSH1 0xC0 SHL PUSH2 0x136D JUMP JUMPDEST PUSH2 0x7F6 DUP2 DUP4 PUSH2 0x1430 JUMP JUMPDEST PUSH2 0x80A PUSH8 0xD0585A9965BDCE0A PUSH1 0xC0 SHL PUSH2 0x136D JUMP JUMPDEST PUSH2 0x81E PUSH8 0x8783B4596B98F4A6 PUSH1 0xC0 SHL PUSH2 0x136D JUMP JUMPDEST PUSH32 0x176B02BB2D12439FF7A20B59F402CCA16C76F50508B13EF3166A600EB719354A DUP2 PUSH1 0x40 MLOAD PUSH2 0x84D SWAP2 SWAP1 PUSH2 0x29CE JUMP JUMPDEST PUSH1 0x40 MLOAD DUP1 SWAP2 SUB SWAP1 LOG1 POP POP POP POP JUMP JUMPDEST PUSH2 0x86C PUSH2 0x866 PUSH2 0x12AC JUMP JUMPDEST DUP3 PUSH2 0x14D4 JUMP JUMPDEST PUSH2 0x8AB JUMPI PUSH1 0x40 MLOAD PUSH32 0x8C379A000000000000000000000000000000000000000000000000000000000 DUP2 MSTORE PUSH1 0x4 ADD PUSH2 0x8A2 SWAP1 PUSH2 0x2DAF JUMP JUMPDEST PUSH1 0x40 MLOAD DUP1 SWAP2 SUB SWAP1 REVERT JUMPDEST PUSH2 0x8B6 DUP4 DUP4 DUP4 PUSH2 0x1569 JUMP JUMPDEST POP POP POP JUMP JUMPDEST PUSH1 0x60 PUSH2 0x8D1 PUSH8 0xE036EFF524C50E6D PUSH1 0xC0 SHL PUSH2 0x136D JUMP JUMPDEST PUSH2 0x8E5 PUSH8 0x76131F94204C9A3B PUSH1 0xC0 SHL PUSH2 0x136D JUMP JUMPDEST PUSH2 0x8F9 PUSH8 0x2A693830C653C2C4 PUSH1 0xC0 SHL PUSH2 0x136D JUMP JUMPDEST PUSH1 0x0 PUSH1 0x40 MLOAD DUP1 PUSH1 0x40 ADD PUSH1 0x40 MSTORE DUP1 PUSH1 0x1A DUP2 MSTORE PUSH1 0x20 ADD PUSH32 0x646174613A696D6167652F7376672B786D6C3B6261736536342C000000000000 DUP2 MSTORE POP SWAP1 POP PUSH2 0x947 PUSH8 0x388BE8503BC9D70D PUSH1 0xC0 SHL PUSH2 0x136D JUMP JUMPDEST PUSH2 0x95B PUSH8 0xC1D52A6EAC789C2D PUSH1 0xC0 SHL PUSH2 0x136D JUMP JUMPDEST PUSH1 0x0 PUSH2 0x966 DUP5 PUSH2 0x1862 JUMP JUMPDEST SWAP1 POP PUSH2 0x97C PUSH8 0xD70C6847C30F05E8 PUSH1 0xC0 SHL PUSH2 0x136D JUMP JUMPDEST PUSH2 0x990 PUSH8 0x6D82A4DB9F214D1E PUSH1 0xC0 SHL PUSH2 0x136D JUMP JUMPDEST DUP2 DUP2 PUSH1 0x40 MLOAD PUSH1 0x20 ADD PUSH2 0x9A3 SWAP3 SWAP2 SWAP1 PUSH2 0x2E0B JUMP JUMPDEST PUSH1 0x40 MLOAD PUSH1 0x20 DUP2 DUP4 SUB SUB DUP2 MSTORE SWAP1 PUSH1 0x40 MSTORE SWAP3 POP POP POP SWAP2 SWAP1 POP JUMP JUMPDEST PUSH2 0x9D6 DUP4 DUP4 DUP4 PUSH1 0x40 MLOAD DUP1 PUSH1 0x20 ADD PUSH1 0x40 MSTORE DUP1 PUSH1 0x0 DUP2 MSTORE POP PUSH2 0xEB4 JUMP JUMPDEST POP POP POP JUMP JUMPDEST PUSH1 0x0 DUP1 PUSH2 0x9E7 DUP4 PUSH2 0x1B4D JUMP JUMPDEST SWAP1 POP PUSH1 0x0 PUSH20 0xFFFFFFFFFFFFFFFFFFFFFFFFFFFFFFFFFFFFFFFF AND DUP2 PUSH20 0xFFFFFFFFFFFFFFFFFFFFFFFFFFFFFFFFFFFFFFFF AND SUB PUSH2 0xA58 JUMPI PUSH1 0x40 MLOAD PUSH32 0x8C379A000000000000000000000000000000000000000000000000000000000 DUP2 MSTORE PUSH1 0x4 ADD PUSH2 0xA4F SWAP1 PUSH2 0x2E7B JUMP JUMPDEST PUSH1 0x40 MLOAD DUP1 SWAP2 SUB SWAP1 REVERT JUMPDEST DUP1 SWAP2 POP POP SWAP2 SWAP1 POP JUMP JUMPDEST PUSH1 0x60 PUSH2 0xA77 PUSH8 0xE8825880D2030DA7 PUSH1 0xC0 SHL PUSH2 0x136D JUMP JUMPDEST PUSH2 0xA8B PUSH8 0x1C5AA3BD5C9B1FCA PUSH1 0xC0 SHL PUSH2 0x136D JUMP JUMPDEST PUSH2 0xA9F PUSH8 0xB28689854F5C36A6 PUSH1 0xC0 SHL PUSH2 0x136D JUMP JUMPDEST PUSH1 0x0 PUSH1 0x18 PUSH2 0xE10 DUP5 PUSH2 0xAB1 SWAP2 SWAP1 PUSH2 0x2EF9 JUMP JUMPDEST PUSH2 0xABB SWAP2 SWAP1 PUSH2 0x2F2A JUMP JUMPDEST SWAP1 POP PUSH2 0xAD1 PUSH8 0x281933149401DAEE PUSH1 0xC0 SHL PUSH2 0x136D JUMP JUMPDEST PUSH2 0xAE5 PUSH8 0xAB14EF983F82341A PUSH1 0xC0 SHL PUSH2 0x136D JUMP JUMPDEST PUSH1 0x0 PUSH1 0x3C DUP1 DUP6 PUSH2 0xAF5 SWAP2 SWAP1 PUSH2 0x2EF9 JUMP JUMPDEST PUSH2 0xAFF SWAP2 SWAP1 PUSH2 0x2F2A JUMP JUMPDEST SWAP1 POP PUSH2 0xB15 PUSH8 0x7D6E73B89CDCE3E5 PUSH1 0xC0 SHL PUSH2 0x136D JUMP JUMPDEST PUSH2 0xB29 PUSH8 0x78FDF98250A5F68A PUSH1 0xC0 SHL PUSH2 0x136D JUMP JUMPDEST PUSH1 0x0 PUSH1 0x3C DUP6 PUSH2 0xB38 SWAP2 SWAP1 PUSH2 0x2F2A JUMP JUMPDEST SWAP1 POP PUSH2 0xB4E PUSH8 0x655F7BDA7FCAEC03 PUSH1 0xC0 SHL PUSH2 0x136D JUMP JUMPDEST PUSH2 0xB62 PUSH8 0x992CB26964BE0C66 PUSH1 0xC0 SHL PUSH2 0x136D JUMP JUMPDEST PUSH1 0x0 PUSH2 0xB89 PUSH1 0xA DUP6 LT PUSH2 0xB81 JUMPI PUSH1 0xA DUP6 PUSH2 0xB7C SWAP2 SWAP1 PUSH2 0x2EF9 JUMP JUMPDEST PUSH2 0xB84 JUMP JUMPDEST PUSH1 0x0 JUMPDEST PUSH2 0x1B8A JUMP JUMPDEST PUSH2 0xB9E PUSH1 0xA DUP7 PUSH2 0xB99 SWAP2 SWAP1 PUSH2 0x2F2A JUMP JUMPDEST PUSH2 0x1B8A JUMP JUMPDEST PUSH2 0xBC3 PUSH1 0xA DUP7 LT PUSH2 0xBBB JUMPI PUSH1 0xA DUP7 PUSH2 0xBB6 SWAP2 SWAP1 PUSH2 0x2EF9 JUMP JUMPDEST PUSH2 0xBBE JUMP JUMPDEST PUSH1 0x0 JUMPDEST PUSH2 0x1B8A JUMP JUMPDEST PUSH2 0xBD8 PUSH1 0xA DUP8 PUSH2 0xBD3 SWAP2 SWAP1 PUSH2 0x2F2A JUMP JUMPDEST PUSH2 0x1B8A JUMP JUMPDEST PUSH2 0xBFD PUSH1 0xA DUP8 LT PUSH2 0xBF5 JUMPI PUSH1 0xA DUP8 PUSH2 0xBF0 SWAP2 SWAP1 PUSH2 0x2EF9 JUMP JUMPDEST PUSH2 0xBF8 JUMP JUMPDEST PUSH1 0x0 JUMPDEST PUSH2 0x1B8A JUMP JUMPDEST PUSH2 0xC12 PUSH1 0xA DUP9 PUSH2 0xC0D SWAP2 SWAP1 PUSH2 0x2F2A JUMP JUMPDEST PUSH2 0x1B8A JUMP JUMPDEST PUSH1 0x40 MLOAD PUSH1 0x20 ADD PUSH2 0xC27 SWAP7 SWAP6 SWAP5 SWAP4 SWAP3 SWAP2 SWAP1 PUSH2 0x2FA7 JUMP JUMPDEST PUSH1 0x40 MLOAD PUSH1 0x20 DUP2 DUP4 SUB SUB DUP2 MSTORE SWAP1 PUSH1 0x40 MSTORE SWAP1 POP PUSH2 0xC4C PUSH8 0x58C0A8535BD52C20 PUSH1 0xC0 SHL PUSH2 0x136D JUMP JUMPDEST PUSH2 0xC60 PUSH8 0x52BB5EBA4C5E9C2D PUSH1 0xC0 SHL PUSH2 0x136D JUMP JUMPDEST DUP1 PUSH1 0x40 MLOAD PUSH1 0x20 ADD PUSH2 0xC71 SWAP2 SWAP1 PUSH2 0x3275 JUMP JUMPDEST PUSH1 0x40 MLOAD PUSH1 0x20 DUP2 DUP4 SUB SUB DUP2 MSTORE SWAP1 PUSH1 0x40 MSTORE SWAP5 POP POP POP POP POP SWAP2 SWAP1 POP JUMP JUMPDEST PUSH1 0x0 DUP1 PUSH20 0xFFFFFFFFFFFFFFFFFFFFFFFFFFFFFFFFFFFFFFFF AND DUP3 PUSH20 0xFFFFFFFFFFFFFFFFFFFFFFFFFFFFFFFFFFFFFFFF AND SUB PUSH2 0xCFB JUMPI PUSH1 0x40 MLOAD PUSH32 0x8C379A000000000000000000000000000000000000000000000000000000000 DUP2 MSTORE PUSH1 0x4 ADD PUSH2 0xCF2 SWAP1 PUSH2 0x3335 JUMP JUMPDEST PUSH1 0x40 MLOAD DUP1 SWAP2 SUB SWAP1 REVERT JUMPDEST PUSH1 0x3 PUSH1 0x0 DUP4 PUSH20 0xFFFFFFFFFFFFFFFFFFFFFFFFFFFFFFFFFFFFFFFF AND PUSH20 0xFFFFFFFFFFFFFFFFFFFFFFFFFFFFFFFFFFFFFFFF AND DUP2 MSTORE PUSH1 0x20 ADD SWAP1 DUP2 MSTORE PUSH1 0x20 ADD PUSH1 0x0 KECCAK256 SLOAD SWAP1 POP SWAP2 SWAP1 POP JUMP JUMPDEST PUSH2 0xD4A PUSH2 0x1370 JUMP JUMPDEST PUSH2 0xD54 PUSH1 0x0 PUSH2 0x1C58 JUMP JUMPDEST JUMP JUMPDEST PUSH1 0x60 PUSH2 0xD6C PUSH8 0x11FAA2C8D8163943 PUSH1 0xC0 SHL PUSH2 0x136D JUMP JUMPDEST PUSH2 0xD80 PUSH8 0xFE53D23B7172B30A PUSH1 0xC0 SHL PUSH2 0x136D JUMP JUMPDEST PUSH2 0xD94 PUSH8 0x78D7E39D1F6A916C PUSH1 0xC0 SHL PUSH2 0x136D JUMP JUMPDEST PUSH2 0xDBC DUP3 PUSH1 0x40 MLOAD PUSH1 0x20 ADD PUSH2 0xDA8 SWAP2 SWAP1 PUSH2 0x34D1 JUMP JUMPDEST PUSH1 0x40 MLOAD PUSH1 0x20 DUP2 DUP4 SUB SUB DUP2 MSTORE SWAP1 PUSH1 0x40 MSTORE PUSH2 0x1862 JUMP JUMPDEST PUSH1 0x40 MLOAD PUSH1 0x20 ADD PUSH2 0xDCC SWAP2 SWAP1 PUSH2 0x3560 JUMP JUMPDEST PUSH1 0x40 MLOAD PUSH1 0x20 DUP2 DUP4 SUB SUB DUP2 MSTORE SWAP1 PUSH1 0x40 MSTORE SWAP1 POP SWAP2 SWAP1 POP JUMP JUMPDEST PUSH1 0x0 PUSH1 0x7 PUSH1 0x0 SWAP1 SLOAD SWAP1 PUSH2 0x100 EXP SWAP1 DIV PUSH20 0xFFFFFFFFFFFFFFFFFFFFFFFFFFFFFFFFFFFFFFFF AND SWAP1 POP SWAP1 JUMP JUMPDEST PUSH1 0x60 PUSH1 0x1 DUP1 SLOAD PUSH2 0xE1B SWAP1 PUSH2 0x2BE8 JUMP JUMPDEST DUP1 PUSH1 0x1F ADD PUSH1 0x20 DUP1 SWAP2 DIV MUL PUSH1 0x20 ADD PUSH1 0x40 MLOAD SWAP1 DUP2 ADD PUSH1 0x40 MSTORE DUP1 SWAP3 SWAP2 SWAP1 DUP2 DUP2 MSTORE PUSH1 0x20 ADD DUP3 DUP1 SLOAD PUSH2 0xE47 SWAP1 PUSH2 0x2BE8 JUMP JUMPDEST DUP1 ISZERO PUSH2 0xE94 JUMPI DUP1 PUSH1 0x1F LT PUSH2 0xE69 JUMPI PUSH2 0x100 DUP1 DUP4 SLOAD DIV MUL DUP4 MSTORE SWAP2 PUSH1 0x20 ADD SWAP2 PUSH2 0xE94 JUMP JUMPDEST DUP3 ADD SWAP2 SWAP1 PUSH1 0x0 MSTORE PUSH1 0x20 PUSH1 0x0 KECCAK256 SWAP1 JUMPDEST DUP2 SLOAD DUP2 MSTORE SWAP1 PUSH1 0x1 ADD SWAP1 PUSH1 0x20 ADD DUP1 DUP4 GT PUSH2 0xE77 JUMPI DUP3 SWAP1 SUB PUSH1 0x1F AND DUP3 ADD SWAP2 JUMPDEST POP POP POP POP POP SWAP1 POP SWAP1 JUMP JUMPDEST PUSH2 0xEB0 PUSH2 0xEA9 PUSH2 0x12AC JUMP JUMPDEST DUP4 DUP4 PUSH2 0x1D1E JUMP JUMPDEST POP POP JUMP JUMPDEST PUSH2 0xEC5 PUSH2 0xEBF PUSH2 0x12AC JUMP JUMPDEST DUP4 PUSH2 0x14D4 JUMP JUMPDEST PUSH2 0xF04 JUMPI PUSH1 0x40 MLOAD PUSH32 0x8C379A000000000000000000000000000000000000000000000000000000000 DUP2 MSTORE PUSH1 0x4 ADD PUSH2 0xEFB SWAP1 PUSH2 0x2DAF JUMP JUMPDEST PUSH1 0x40 MLOAD DUP1 SWAP2 SUB SWAP1 REVERT JUMPDEST PUSH2 0xF10 DUP5 DUP5 DUP5 DUP5 PUSH2 0x1E8A JUMP JUMPDEST POP POP POP POP JUMP JUMPDEST PUSH1 0x60 PUSH2 0xF2C PUSH8 0x449F6944BE5CB77C PUSH1 0xC0 SHL PUSH2 0x136D JUMP JUMPDEST PUSH2 0xF40 PUSH8 0xC469080BBEBD75A3 PUSH1 0xC0 SHL PUSH2 0x136D JUMP JUMPDEST PUSH2 0xF54 PUSH8 0x22D7CF4E9AF283D PUSH1 0xC0 SHL PUSH2 0x136D JUMP JUMPDEST PUSH2 0xF68 PUSH8 0xD9F854B583A00781 PUSH1 0xC0 SHL PUSH2 0x136D JUMP JUMPDEST PUSH2 0xF71 DUP3 PUSH2 0x1EE6 JUMP JUMPDEST PUSH2 0xFB0 JUMPI PUSH1 0x40 MLOAD PUSH32 0x8C379A000000000000000000000000000000000000000000000000000000000 DUP2 MSTORE PUSH1 0x4 ADD PUSH2 0xFA7 SWAP1 PUSH2 0x35F4 JUMP JUMPDEST PUSH1 0x40 MLOAD DUP1 SWAP2 SUB SWAP1 REVERT JUMPDEST PUSH2 0xFC4 PUSH8 0x43E4E82FC732D257 PUSH1 0xC0 SHL PUSH2 0x136D JUMP JUMPDEST PUSH2 0xFD8 PUSH8 0x4506F8EA7A3D6FEF PUSH1 0xC0 SHL PUSH2 0x136D JUMP JUMPDEST PUSH2 0xFEC PUSH8 0x3FE0BAB8DBE684D1 PUSH1 0xC0 SHL PUSH2 0x136D JUMP JUMPDEST PUSH1 0x0 PUSH2 0xFF7 TIMESTAMP PUSH2 0xA61 JUMP JUMPDEST SWAP1 POP PUSH2 0x100D PUSH8 0x90763BB358E57784 PUSH1 0xC0 SHL PUSH2 0x136D JUMP JUMPDEST PUSH2 0x1021 PUSH8 0x2F14D53095383BEA PUSH1 0xC0 SHL PUSH2 0x136D JUMP JUMPDEST PUSH1 0x0 PUSH2 0x102C DUP3 PUSH2 0x8BB JUMP JUMPDEST SWAP1 POP PUSH2 0x1042 PUSH8 0x270E3E13514743F8 PUSH1 0xC0 SHL PUSH2 0x136D JUMP JUMPDEST PUSH2 0x1056 PUSH8 0x4282B1700DD94A13 PUSH1 0xC0 SHL PUSH2 0x136D JUMP JUMPDEST PUSH2 0x105F DUP2 PUSH2 0xD56 JUMP JUMPDEST SWAP3 POP POP POP SWAP2 SWAP1 POP JUMP JUMPDEST PUSH1 0x0 PUSH1 0x5 PUSH1 0x0 DUP5 PUSH20 0xFFFFFFFFFFFFFFFFFFFFFFFFFFFFFFFFFFFFFFFF AND PUSH20 0xFFFFFFFFFFFFFFFFFFFFFFFFFFFFFFFFFFFFFFFF AND DUP2 MSTORE PUSH1 0x20 ADD SWAP1 DUP2 MSTORE PUSH1 0x20 ADD PUSH1 0x0 KECCAK256 PUSH1 0x0 DUP4 PUSH20 0xFFFFFFFFFFFFFFFFFFFFFFFFFFFFFFFFFFFFFFFF AND PUSH20 0xFFFFFFFFFFFFFFFFFFFFFFFFFFFFFFFFFFFFFFFF AND DUP2 MSTORE PUSH1 0x20 ADD SWAP1 DUP2 MSTORE PUSH1 0x20 ADD PUSH1 0x0 KECCAK256 PUSH1 0x0 SWAP1 SLOAD SWAP1 PUSH2 0x100 EXP SWAP1 DIV PUSH1 0xFF AND SWAP1 POP SWAP3 SWAP2 POP POP JUMP JUMPDEST PUSH2 0x1104 PUSH2 0x1370 JUMP JUMPDEST PUSH1 0x0 PUSH20 0xFFFFFFFFFFFFFFFFFFFFFFFFFFFFFFFFFFFFFFFF AND DUP2 PUSH20 0xFFFFFFFFFFFFFFFFFFFFFFFFFFFFFFFFFFFFFFFF AND SUB PUSH2 0x1173 JUMPI PUSH1 0x40 MLOAD PUSH32 0x8C379A000000000000000000000000000000000000000000000000000000000 DUP2 MSTORE PUSH1 0x4 ADD PUSH2 0x116A SWAP1 PUSH2 0x3686 JUMP JUMPDEST PUSH1 0x40 MLOAD DUP1 SWAP2 SUB SWAP1 REVERT JUMPDEST PUSH2 0x117C DUP2 PUSH2 0x1C58 JUMP JUMPDEST POP JUMP JUMPDEST PUSH1 0x0 PUSH32 0x80AC58CD00000000000000000000000000000000000000000000000000000000 PUSH28 0xFFFFFFFFFFFFFFFFFFFFFFFFFFFFFFFFFFFFFFFFFFFFFFFFFFFFFFFF NOT AND DUP3 PUSH28 0xFFFFFFFFFFFFFFFFFFFFFFFFFFFFFFFFFFFFFFFFFFFFFFFFFFFFFFFF NOT AND EQ DUP1 PUSH2 0x124A JUMPI POP PUSH32 0x5B5E139F00000000000000000000000000000000000000000000000000000000 PUSH28 0xFFFFFFFFFFFFFFFFFFFFFFFFFFFFFFFFFFFFFFFFFFFFFFFFFFFFFFFF NOT AND DUP3 PUSH28 0xFFFFFFFFFFFFFFFFFFFFFFFFFFFFFFFFFFFFFFFFFFFFFFFFFFFFFFFF NOT AND EQ JUMPDEST DUP1 PUSH2 0x125A JUMPI POP PUSH2 0x1259 DUP3 PUSH2 0x1F27 JUMP JUMPDEST JUMPDEST SWAP1 POP SWAP2 SWAP1 POP JUMP JUMPDEST PUSH2 0x126A DUP2 PUSH2 0x1EE6 JUMP JUMPDEST PUSH2 0x12A9 JUMPI PUSH1 0x40 MLOAD PUSH32 0x8C379A000000000000000000000000000000000000000000000000000000000 DUP2 MSTORE PUSH1 0x4 ADD PUSH2 0x12A0 SWAP1 PUSH2 0x2E7B JUMP JUMPDEST PUSH1 0x40 MLOAD DUP1 SWAP2 SUB SWAP1 REVERT JUMPDEST POP JUMP JUMPDEST PUSH1 0x0 CALLER SWAP1 POP SWAP1 JUMP JUMPDEST DUP2 PUSH1 0x4 PUSH1 0x0 DUP4 DUP2 MSTORE PUSH1 0x20 ADD SWAP1 DUP2 MSTORE PUSH1 0x20 ADD PUSH1 0x0 KECCAK256 PUSH1 0x0 PUSH2 0x100 EXP DUP2 SLOAD DUP2 PUSH20 0xFFFFFFFFFFFFFFFFFFFFFFFFFFFFFFFFFFFFFFFF MUL NOT AND SWAP1 DUP4 PUSH20 0xFFFFFFFFFFFFFFFFFFFFFFFFFFFFFFFFFFFFFFFF AND MUL OR SWAP1 SSTORE POP DUP1 DUP3 PUSH20 0xFFFFFFFFFFFFFFFFFFFFFFFFFFFFFFFFFFFFFFFF AND PUSH2 0x1327 DUP4 PUSH2 0x9DB JUMP JUMPDEST PUSH20 0xFFFFFFFFFFFFFFFFFFFFFFFFFFFFFFFFFFFFFFFF AND PUSH32 0x8C5BE1E5EBEC7D5BD14F71427D1E84F3DD0314C0F7B2291E5B200AC8C7C3B925 PUSH1 0x40 MLOAD PUSH1 0x40 MLOAD DUP1 SWAP2 SUB SWAP1 LOG4 POP POP JUMP JUMPDEST POP JUMP JUMPDEST PUSH2 0x1378 PUSH2 0x12AC JUMP JUMPDEST PUSH20 0xFFFFFFFFFFFFFFFFFFFFFFFFFFFFFFFFFFFFFFFF AND PUSH2 0x1396 PUSH2 0xDE2 JUMP JUMPDEST PUSH20 0xFFFFFFFFFFFFFFFFFFFFFFFFFFFFFFFFFFFFFFFF AND EQ PUSH2 0x13EC JUMPI PUSH1 0x40 MLOAD PUSH32 0x8C379A000000000000000000000000000000000000000000000000000000000 DUP2 MSTORE PUSH1 0x4 ADD PUSH2 0x13E3 SWAP1 PUSH2 0x36F2 JUMP JUMPDEST PUSH1 0x40 MLOAD DUP1 SWAP2 SUB SWAP1 REVERT JUMPDEST JUMP JUMPDEST PUSH1 0x1 DUP2 PUSH1 0x0 ADD PUSH1 0x0 DUP3 DUP3 SLOAD ADD SWAP3 POP POP DUP2 SWAP1 SSTORE POP POP JUMP JUMPDEST PUSH1 0x0 DUP2 PUSH1 0x0 ADD SLOAD SWAP1 POP SWAP2 SWAP1 POP JUMP JUMPDEST PUSH2 0x142C DUP3 DUP3 PUSH1 0x40 MLOAD DUP1 PUSH1 0x20 ADD PUSH1 0x40 MSTORE DUP1 PUSH1 0x0 DUP2 MSTORE POP PUSH2 0x1F91 JUMP JUMPDEST POP POP JUMP JUMPDEST PUSH2 0x1439 DUP3 PUSH2 0x1EE6 JUMP JUMPDEST PUSH2 0x1478 JUMPI PUSH1 0x40 MLOAD PUSH32 0x8C379A000000000000000000000000000000000000000000000000000000000 DUP2 MSTORE PUSH1 0x4 ADD PUSH2 0x146F SWAP1 PUSH2 0x3784 JUMP JUMPDEST PUSH1 0x40 MLOAD DUP1 SWAP2 SUB SWAP1 REVERT JUMPDEST DUP1 PUSH1 0x6 PUSH1 0x0 DUP5 DUP2 MSTORE PUSH1 0x20 ADD SWAP1 DUP2 MSTORE PUSH1 0x20 ADD PUSH1 0x0 KECCAK256 SWAP1 DUP2 PUSH2 0x1498 SWAP2 SWAP1 PUSH2 0x3950 JUMP JUMPDEST POP PUSH32 0xF8E1A15ABA9398E019F0B49DF1A4FDE98EE17AE345CB5F6B5E2C27F5033E8CE7 DUP3 PUSH1 0x40 MLOAD PUSH2 0x14C8 SWAP2 SWAP1 PUSH2 0x29CE JUMP JUMPDEST PUSH1 0x40 MLOAD DUP1 SWAP2 SUB SWAP1 LOG1 POP POP JUMP JUMPDEST PUSH1 0x0 DUP1 PUSH2 0x14E0 DUP4 PUSH2 0x9DB JUMP JUMPDEST SWAP1 POP DUP1 PUSH20 0xFFFFFFFFFFFFFFFFFFFFFFFFFFFFFFFFFFFFFFFF AND DUP5 PUSH20 0xFFFFFFFFFFFFFFFFFFFFFFFFFFFFFFFFFFFFFFFF AND EQ DUP1 PUSH2 0x1522 JUMPI POP PUSH2 0x1521 DUP2 DUP6 PUSH2 0x1068 JUMP JUMPDEST JUMPDEST DUP1 PUSH2 0x1560 JUMPI POP DUP4 PUSH20 0xFFFFFFFFFFFFFFFFFFFFFFFFFFFFFFFFFFFFFFFF AND PUSH2 0x1548 DUP5 PUSH2 0x4EA JUMP JUMPDEST PUSH20 0xFFFFFFFFFFFFFFFFFFFFFFFFFFFFFFFFFFFFFFFF AND EQ JUMPDEST SWAP2 POP POP SWAP3 SWAP2 POP POP JUMP JUMPDEST DUP3 PUSH20 0xFFFFFFFFFFFFFFFFFFFFFFFFFFFFFFFFFFFFFFFF AND PUSH2 0x1589 DUP3 PUSH2 0x9DB JUMP JUMPDEST PUSH20 0xFFFFFFFFFFFFFFFFFFFFFFFFFFFFFFFFFFFFFFFF AND EQ PUSH2 0x15DF JUMPI PUSH1 0x40 MLOAD PUSH32 0x8C379A000000000000000000000000000000000000000000000000000000000 DUP2 MSTORE PUSH1 0x4 ADD PUSH2 0x15D6 SWAP1 PUSH2 0x3A94 JUMP JUMPDEST PUSH1 0x40 MLOAD DUP1 SWAP2 SUB SWAP1 REVERT JUMPDEST PUSH1 0x0 PUSH20 0xFFFFFFFFFFFFFFFFFFFFFFFFFFFFFFFFFFFFFFFF AND DUP3 PUSH20 0xFFFFFFFFFFFFFFFFFFFFFFFFFFFFFFFFFFFFFFFF AND SUB PUSH2 0x164E JUMPI PUSH1 0x40 MLOAD PUSH32 0x8C379A000000000000000000000000000000000000000000000000000000000 DUP2 MSTORE PUSH1 0x4 ADD PUSH2 0x1645 SWAP1 PUSH2 0x3B26 JUMP JUMPDEST PUSH1 0x40 MLOAD DUP1 SWAP2 SUB SWAP1 REVERT JUMPDEST PUSH2 0x165B DUP4 DUP4 DUP4 PUSH1 0x1 PUSH2 0x1FEC JUMP JUMPDEST DUP3 PUSH20 0xFFFFFFFFFFFFFFFFFFFFFFFFFFFFFFFFFFFFFFFF AND PUSH2 0x167B DUP3 PUSH2 0x9DB JUMP JUMPDEST PUSH20 0xFFFFFFFFFFFFFFFFFFFFFFFFFFFFFFFFFFFFFFFF AND EQ PUSH2 0x16D1 JUMPI PUSH1 0x40 MLOAD PUSH32 0x8C379A000000000000000000000000000000000000000000000000000000000 DUP2 MSTORE PUSH1 0x4 ADD PUSH2 0x16C8 SWAP1 PUSH2 0x3A94 JUMP JUMPDEST PUSH1 0x40 MLOAD DUP1 SWAP2 SUB SWAP1 REVERT JUMPDEST PUSH1 0x4 PUSH1 0x0 DUP3 DUP2 MSTORE PUSH1 0x20 ADD SWAP1 DUP2 MSTORE PUSH1 0x20 ADD PUSH1 0x0 KECCAK256 PUSH1 0x0 PUSH2 0x100 EXP DUP2 SLOAD SWAP1 PUSH20 0xFFFFFFFFFFFFFFFFFFFFFFFFFFFFFFFFFFFFFFFF MUL NOT AND SWAP1 SSTORE PUSH1 0x1 PUSH1 0x3 PUSH1 0x0 DUP6 PUSH20 0xFFFFFFFFFFFFFFFFFFFFFFFFFFFFFFFFFFFFFFFF AND PUSH20 0xFFFFFFFFFFFFFFFFFFFFFFFFFFFFFFFFFFFFFFFF AND DUP2 MSTORE PUSH1 0x20 ADD SWAP1 DUP2 MSTORE PUSH1 0x20 ADD PUSH1 0x0 KECCAK256 PUSH1 0x0 DUP3 DUP3 SLOAD SUB SWAP3 POP POP DUP2 SWAP1 SSTORE POP PUSH1 0x1 PUSH1 0x3 PUSH1 0x0 DUP5 PUSH20 0xFFFFFFFFFFFFFFFFFFFFFFFFFFFFFFFFFFFFFFFF AND PUSH20 0xFFFFFFFFFFFFFFFFFFFFFFFFFFFFFFFFFFFFFFFF AND DUP2 MSTORE PUSH1 0x20 ADD SWAP1 DUP2 MSTORE PUSH1 0x20 ADD PUSH1 0x0 KECCAK256 PUSH1 0x0 DUP3 DUP3 SLOAD ADD SWAP3 POP POP DUP2 SWAP1 SSTORE POP DUP2 PUSH1 0x2 PUSH1 0x0 DUP4 DUP2 MSTORE PUSH1 0x20 ADD SWAP1 DUP2 MSTORE PUSH1 0x20 ADD PUSH1 0x0 KECCAK256 PUSH1 0x0 PUSH2 0x100 EXP DUP2 SLOAD DUP2 PUSH20 0xFFFFFFFFFFFFFFFFFFFFFFFFFFFFFFFFFFFFFFFF MUL NOT AND SWAP1 DUP4 PUSH20 0xFFFFFFFFFFFFFFFFFFFFFFFFFFFFFFFFFFFFFFFF AND MUL OR SWAP1 SSTORE POP DUP1 DUP3 PUSH20 0xFFFFFFFFFFFFFFFFFFFFFFFFFFFFFFFFFFFFFFFF AND DUP5 PUSH20 0xFFFFFFFFFFFFFFFFFFFFFFFFFFFFFFFFFFFFFFFF AND PUSH32 0xDDF252AD1BE2C89B69C2B068FC378DAA952BA7F163C4A11628F55A4DF523B3EF PUSH1 0x40 MLOAD PUSH1 0x40 MLOAD DUP1 SWAP2 SUB SWAP1 LOG4 PUSH2 0x185D DUP4 DUP4 DUP4 PUSH1 0x1 PUSH2 0x1FF2 JUMP JUMPDEST POP POP POP JUMP JUMPDEST PUSH1 0x60 PUSH2 0x1878 PUSH8 0xB53CA74E8494EEA6 PUSH1 0xC0 SHL PUSH2 0x1FF8 JUMP JUMPDEST PUSH2 0x188C PUSH8 0x20CB190A82AAB87E PUSH1 0xC0 SHL PUSH2 0x1FF8 JUMP JUMPDEST PUSH2 0x18A0 PUSH8 0xDE6510E2AE7F4558 PUSH1 0xC0 SHL PUSH2 0x1FF8 JUMP JUMPDEST PUSH1 0x0 DUP3 MLOAD SWAP1 POP PUSH2 0x18BA PUSH8 0x849512C8D4925D3C PUSH1 0xC0 SHL PUSH2 0x1FF8 JUMP JUMPDEST PUSH2 0x18CE PUSH8 0xEECFCC3B18ABD8AC PUSH1 0xC0 SHL PUSH2 0x1FF8 JUMP JUMPDEST PUSH1 0x0 DUP2 SUB PUSH2 0x1916 JUMPI PUSH2 0x18EA PUSH8 0x4A98EDFCFDE66625 PUSH1 0xC0 SHL PUSH2 0x1FF8 JUMP JUMPDEST PUSH2 0x18FE PUSH8 0x94CE4BE227EADC66 PUSH1 0xC0 SHL PUSH2 0x1FF8 JUMP JUMPDEST PUSH1 0x40 MLOAD DUP1 PUSH1 0x20 ADD PUSH1 0x40 MSTORE DUP1 PUSH1 0x0 DUP2 MSTORE POP SWAP2 POP POP PUSH2 0x1B48 JUMP JUMPDEST PUSH2 0x192A PUSH8 0x555B4ECAA728EDAC PUSH1 0xC0 SHL PUSH2 0x1FF8 JUMP JUMPDEST PUSH2 0x193E PUSH8 0xBE4721AFA5ECE52 PUSH1 0xC0 SHL PUSH2 0x1FF8 JUMP JUMPDEST PUSH2 0x1952 PUSH8 0xB2B60B2FC0FBE90 PUSH1 0xC0 SHL PUSH2 0x1FF8 JUMP JUMPDEST PUSH1 0x0 PUSH1 0x3 PUSH1 0x2 DUP4 PUSH2 0x1963 SWAP2 SWAP1 PUSH2 0x3B46 JUMP JUMPDEST PUSH2 0x196D SWAP2 SWAP1 PUSH2 0x2EF9 JUMP JUMPDEST PUSH1 0x4 PUSH2 0x1979 SWAP2 SWAP1 PUSH2 0x3B7A JUMP JUMPDEST SWAP1 POP PUSH2 0x198F PUSH8 0x539DA607551DF49E PUSH1 0xC0 SHL PUSH2 0x1FF8 JUMP JUMPDEST PUSH2 0x19A3 PUSH8 0x8D75B58FBCBFB0B PUSH1 0xC0 SHL PUSH2 0x1FF8 JUMP JUMPDEST PUSH1 0x0 PUSH1 0x20 DUP3 PUSH2 0x19B2 SWAP2 SWAP1 PUSH2 0x3B46 JUMP JUMPDEST PUSH8 0xFFFFFFFFFFFFFFFF DUP2 GT ISZERO PUSH2 0x19CB JUMPI PUSH2 0x19CA PUSH2 0x281E JUMP JUMPDEST JUMPDEST PUSH1 0x40 MLOAD SWAP1 DUP1 DUP3 MSTORE DUP1 PUSH1 0x1F ADD PUSH1 0x1F NOT AND PUSH1 0x20 ADD DUP3 ADD PUSH1 0x40 MSTORE DUP1 ISZERO PUSH2 0x19FD JUMPI DUP2 PUSH1 0x20 ADD PUSH1 0x1 DUP3 MUL DUP1 CALLDATASIZE DUP4 CALLDATACOPY DUP1 DUP3 ADD SWAP2 POP POP SWAP1 POP JUMPDEST POP SWAP1 POP PUSH2 0x1A14 PUSH8 0xCB70552B76C1294F PUSH1 0xC0 SHL PUSH2 0x1FF8 JUMP JUMPDEST PUSH2 0x1A28 PUSH8 0xA668EF7804E83E79 PUSH1 0xC0 SHL PUSH2 0x1FF8 JUMP JUMPDEST PUSH1 0x0 PUSH1 0x40 MLOAD DUP1 PUSH1 0x60 ADD PUSH1 0x40 MSTORE DUP1 PUSH1 0x40 DUP2 MSTORE PUSH1 0x20 ADD PUSH2 0x3E76 PUSH1 0x40 SWAP2 CODECOPY SWAP1 POP PUSH2 0x1A59 PUSH8 0x3BD4D9698A7A453F PUSH1 0xC0 SHL PUSH2 0x1FF8 JUMP JUMPDEST PUSH1 0x1 DUP2 ADD PUSH1 0x20 DUP4 ADD PUSH1 0x0 JUMPDEST DUP7 DUP2 LT ISZERO PUSH2 0x1ADD JUMPI PUSH1 0x3 DUP2 ADD SWAP1 POP PUSH3 0xFFFFFF DUP2 DUP11 ADD MLOAD AND PUSH1 0x3F DUP2 PUSH1 0x12 SHR AND DUP5 ADD MLOAD DUP1 PUSH1 0x8 SHL SWAP1 POP PUSH1 0xFF PUSH1 0x3F DUP4 PUSH1 0xC SHR AND DUP7 ADD MLOAD AND DUP2 ADD SWAP1 POP DUP1 PUSH1 0x8 SHL SWAP1 POP PUSH1 0xFF PUSH1 0x3F DUP4 PUSH1 0x6 SHR AND DUP7 ADD MLOAD AND DUP2 ADD SWAP1 POP DUP1 PUSH1 0x8 SHL SWAP1 POP PUSH1 0xFF PUSH1 0x3F DUP4 AND DUP7 ADD MLOAD AND DUP2 ADD SWAP1 POP DUP1 PUSH1 0xE0 SHL SWAP1 POP DUP1 DUP5 MSTORE PUSH1 0x4 DUP5 ADD SWAP4 POP POP POP PUSH2 0x1A64 JUMP JUMPDEST POP PUSH1 0x3 DUP7 MOD PUSH1 0x1 DUP2 EQ PUSH2 0x1AF7 JUMPI PUSH1 0x2 DUP2 EQ PUSH2 0x1B07 JUMPI PUSH2 0x1B12 JUMP JUMPDEST PUSH2 0x3D3D PUSH1 0xF0 SHL PUSH1 0x2 DUP4 SUB MSTORE PUSH2 0x1B12 JUMP JUMPDEST PUSH1 0x3D PUSH1 0xF8 SHL PUSH1 0x1 DUP4 SUB MSTORE JUMPDEST POP DUP5 DUP5 MSTORE POP POP PUSH2 0x1B2C PUSH8 0xB852F796969F9699 PUSH1 0xC0 SHL PUSH2 0x1FF8 JUMP JUMPDEST PUSH2 0x1B40 PUSH8 0x7218DCEDDEDB9608 PUSH1 0xC0 SHL PUSH2 0x1FF8 JUMP JUMPDEST DUP2 SWAP5 POP POP POP POP POP JUMPDEST SWAP2 SWAP1 POP JUMP JUMPDEST PUSH1 0x0 PUSH1 0x2 PUSH1 0x0 DUP4 DUP2 MSTORE PUSH1 0x20 ADD SWAP1 DUP2 MSTORE PUSH1 0x20 ADD PUSH1 0x0 KECCAK256 PUSH1 0x0 SWAP1 SLOAD SWAP1 PUSH2 0x100 EXP SWAP1 DIV PUSH20 0xFFFFFFFFFFFFFFFFFFFFFFFFFFFFFFFFFFFFFFFF AND SWAP1 POP SWAP2 SWAP1 POP JUMP JUMPDEST PUSH1 0x60 PUSH1 0x0 PUSH1 0x1 PUSH2 0x1B99 DUP5 PUSH2 0x1FFB JUMP JUMPDEST ADD SWAP1 POP PUSH1 0x0 DUP2 PUSH8 0xFFFFFFFFFFFFFFFF DUP2 GT ISZERO PUSH2 0x1BB8 JUMPI PUSH2 0x1BB7 PUSH2 0x281E JUMP JUMPDEST JUMPDEST PUSH1 0x40 MLOAD SWAP1 DUP1 DUP3 MSTORE DUP1 PUSH1 0x1F ADD PUSH1 0x1F NOT AND PUSH1 0x20 ADD DUP3 ADD PUSH1 0x40 MSTORE DUP1 ISZERO PUSH2 0x1BEA JUMPI DUP2 PUSH1 0x20 ADD PUSH1 0x1 DUP3 MUL DUP1 CALLDATASIZE DUP4 CALLDATACOPY DUP1 DUP3 ADD SWAP2 POP POP SWAP1 POP JUMPDEST POP SWAP1 POP PUSH1 0x0 DUP3 PUSH1 0x20 ADD DUP3 ADD SWAP1 POP JUMPDEST PUSH1 0x1 ISZERO PUSH2 0x1C4D JUMPI DUP1 DUP1 PUSH1 0x1 SWAP1 SUB SWAP2 POP POP PUSH32 0x3031323334353637383961626364656600000000000000000000000000000000 PUSH1 0xA DUP7 MOD BYTE DUP2 MSTORE8 PUSH1 0xA DUP6 DUP2 PUSH2 0x1C41 JUMPI PUSH2 0x1C40 PUSH2 0x2E9B JUMP JUMPDEST JUMPDEST DIV SWAP5 POP PUSH1 0x0 DUP6 SUB PUSH2 0x1BF8 JUMPI JUMPDEST DUP2 SWAP4 POP POP POP POP SWAP2 SWAP1 POP JUMP JUMPDEST PUSH1 0x0 PUSH1 0x7 PUSH1 0x0 SWAP1 SLOAD SWAP1 PUSH2 0x100 EXP SWAP1 DIV PUSH20 0xFFFFFFFFFFFFFFFFFFFFFFFFFFFFFFFFFFFFFFFF AND SWAP1 POP DUP2 PUSH1 0x7 PUSH1 0x0 PUSH2 0x100 EXP DUP2 SLOAD DUP2 PUSH20 0xFFFFFFFFFFFFFFFFFFFFFFFFFFFFFFFFFFFFFFFF MUL NOT AND SWAP1 DUP4 PUSH20 0xFFFFFFFFFFFFFFFFFFFFFFFFFFFFFFFFFFFFFFFF AND MUL OR SWAP1 SSTORE POP DUP2 PUSH20 0xFFFFFFFFFFFFFFFFFFFFFFFFFFFFFFFFFFFFFFFF AND DUP2 PUSH20 0xFFFFFFFFFFFFFFFFFFFFFFFFFFFFFFFFFFFFFFFF AND PUSH32 0x8BE0079C531659141344CD1FD0A4F28419497F9722A3DAAFE3B4186F6B6457E0 PUSH1 0x40 MLOAD PUSH1 0x40 MLOAD DUP1 SWAP2 SUB SWAP1 LOG3 POP POP JUMP JUMPDEST DUP2 PUSH20 0xFFFFFFFFFFFFFFFFFFFFFFFFFFFFFFFFFFFFFFFF AND DUP4 PUSH20 0xFFFFFFFFFFFFFFFFFFFFFFFFFFFFFFFFFFFFFFFF AND SUB PUSH2 0x1D8C JUMPI PUSH1 0x40 MLOAD PUSH32 0x8C379A000000000000000000000000000000000000000000000000000000000 DUP2 MSTORE PUSH1 0x4 ADD PUSH2 0x1D83 SWAP1 PUSH2 0x3C08 JUMP JUMPDEST PUSH1 0x40 MLOAD DUP1 SWAP2 SUB SWAP1 REVERT JUMPDEST DUP1 PUSH1 0x5 PUSH1 0x0 DUP6 PUSH20 0xFFFFFFFFFFFFFFFFFFFFFFFFFFFFFFFFFFFFFFFF AND PUSH20 0xFFFFFFFFFFFFFFFFFFFFFFFFFFFFFFFFFFFFFFFF AND DUP2 MSTORE PUSH1 0x20 ADD SWAP1 DUP2 MSTORE PUSH1 0x20 ADD PUSH1 0x0 KECCAK256 PUSH1 0x0 DUP5 PUSH20 0xFFFFFFFFFFFFFFFFFFFFFFFFFFFFFFFFFFFFFFFF AND PUSH20 0xFFFFFFFFFFFFFFFFFFFFFFFFFFFFFFFFFFFFFFFF AND DUP2 MSTORE PUSH1 0x20 ADD SWAP1 DUP2 MSTORE PUSH1 0x20 ADD PUSH1 0x0 KECCAK256 PUSH1 0x0 PUSH2 0x100 EXP DUP2 SLOAD DUP2 PUSH1 0xFF MUL NOT AND SWAP1 DUP4 ISZERO ISZERO MUL OR SWAP1 SSTORE POP DUP2 PUSH20 0xFFFFFFFFFFFFFFFFFFFFFFFFFFFFFFFFFFFFFFFF AND DUP4 PUSH20 0xFFFFFFFFFFFFFFFFFFFFFFFFFFFFFFFFFFFFFFFF AND PUSH32 0x17307EAB39AB6107E8899845AD3D59BD9653F200F220920489CA2B5937696C31 DUP4 PUSH1 0x40 MLOAD PUSH2 0x1E7D SWAP2 SWAP1 PUSH2 0x25C9 JUMP JUMPDEST PUSH1 0x40 MLOAD DUP1 SWAP2 SUB SWAP1 LOG3 POP POP POP JUMP JUMPDEST PUSH2 0x1E95 DUP5 DUP5 DUP5 PUSH2 0x1569 JUMP JUMPDEST PUSH2 0x1EA1 DUP5 DUP5 DUP5 DUP5 PUSH2 0x214E JUMP JUMPDEST PUSH2 0x1EE0 JUMPI PUSH1 0x40 MLOAD PUSH32 0x8C379A000000000000000000000000000000000000000000000000000000000 DUP2 MSTORE PUSH1 0x4 ADD PUSH2 0x1ED7 SWAP1 PUSH2 0x3C9A JUMP JUMPDEST PUSH1 0x40 MLOAD DUP1 SWAP2 SUB SWAP1 REVERT JUMPDEST POP POP POP POP JUMP JUMPDEST PUSH1 0x0 DUP1 PUSH20 0xFFFFFFFFFFFFFFFFFFFFFFFFFFFFFFFFFFFFFFFF AND PUSH2 0x1F08 DUP4 PUSH2 0x1B4D JUMP JUMPDEST PUSH20 0xFFFFFFFFFFFFFFFFFFFFFFFFFFFFFFFFFFFFFFFF AND EQ ISZERO SWAP1 POP SWAP2 SWAP1 POP JUMP JUMPDEST PUSH1 0x0 PUSH32 0x1FFC9A700000000000000000000000000000000000000000000000000000000 PUSH28 0xFFFFFFFFFFFFFFFFFFFFFFFFFFFFFFFFFFFFFFFFFFFFFFFFFFFFFFFF NOT AND DUP3 PUSH28 0xFFFFFFFFFFFFFFFFFFFFFFFFFFFFFFFFFFFFFFFFFFFFFFFFFFFFFFFF NOT AND EQ SWAP1 POP SWAP2 SWAP1 POP JUMP JUMPDEST PUSH2 0x1F9B DUP4 DUP4 PUSH2 0x22D5 JUMP JUMPDEST PUSH2 0x1FA8 PUSH1 0x0 DUP5 DUP5 DUP5 PUSH2 0x214E JUMP JUMPDEST PUSH2 0x1FE7 JUMPI PUSH1 0x40 MLOAD PUSH32 0x8C379A000000000000000000000000000000000000000000000000000000000 DUP2 MSTORE PUSH1 0x4 ADD PUSH2 0x1FDE SWAP1 PUSH2 0x3C9A JUMP JUMPDEST PUSH1 0x40 MLOAD DUP1 SWAP2 SUB SWAP1 REVERT JUMPDEST POP POP POP JUMP JUMPDEST POP POP POP POP JUMP JUMPDEST POP POP POP POP JUMP JUMPDEST POP JUMP JUMPDEST PUSH1 0x0 DUP1 PUSH1 0x0 SWAP1 POP PUSH27 0x184F03E93FF9F4DAA797ED6E38ED64BF6A1F010000000000000000 DUP4 LT PUSH2 0x2059 JUMPI PUSH27 0x184F03E93FF9F4DAA797ED6E38ED64BF6A1F010000000000000000 DUP4 DUP2 PUSH2 0x204F JUMPI PUSH2 0x204E PUSH2 0x2E9B JUMP JUMPDEST JUMPDEST DIV SWAP3 POP PUSH1 0x40 DUP2 ADD SWAP1 POP JUMPDEST PUSH14 0x4EE2D6D415B85ACEF8100000000 DUP4 LT PUSH2 0x2096 JUMPI PUSH14 0x4EE2D6D415B85ACEF8100000000 DUP4 DUP2 PUSH2 0x208C JUMPI PUSH2 0x208B PUSH2 0x2E9B JUMP JUMPDEST JUMPDEST DIV SWAP3 POP PUSH1 0x20 DUP2 ADD SWAP1 POP JUMPDEST PUSH7 0x2386F26FC10000 DUP4 LT PUSH2 0x20C5 JUMPI PUSH7 0x2386F26FC10000 DUP4 DUP2 PUSH2 0x20BB JUMPI PUSH2 0x20BA PUSH2 0x2E9B JUMP JUMPDEST JUMPDEST DIV SWAP3 POP PUSH1 0x10 DUP2 ADD SWAP1 POP JUMPDEST PUSH4 0x5F5E100 DUP4 LT PUSH2 0x20EE JUMPI PUSH4 0x5F5E100 DUP4 DUP2 PUSH2 0x20E4 JUMPI PUSH2 0x20E3 PUSH2 0x2E9B JUMP JUMPDEST JUMPDEST DIV SWAP3 POP PUSH1 0x8 DUP2 ADD SWAP1 POP JUMPDEST PUSH2 0x2710 DUP4 LT PUSH2 0x2113 JUMPI PUSH2 0x2710 DUP4 DUP2 PUSH2 0x2109 JUMPI PUSH2 0x2108 PUSH2 0x2E9B JUMP JUMPDEST JUMPDEST DIV SWAP3 POP PUSH1 0x4 DUP2 ADD SWAP1 POP JUMPDEST PUSH1 0x64 DUP4 LT PUSH2 0x2136 JUMPI PUSH1 0x64 DUP4 DUP2 PUSH2 0x212C JUMPI PUSH2 0x212B PUSH2 0x2E9B JUMP JUMPDEST JUMPDEST DIV SWAP3 POP PUSH1 0x2 DUP2 ADD SWAP1 POP JUMPDEST PUSH1 0xA DUP4 LT PUSH2 0x2145 JUMPI PUSH1 0x1 DUP2 ADD SWAP1 POP JUMPDEST DUP1 SWAP2 POP POP SWAP2 SWAP1 POP JUMP JUMPDEST PUSH1 0x0 PUSH2 0x216F DUP5 PUSH20 0xFFFFFFFFFFFFFFFFFFFFFFFFFFFFFFFFFFFFFFFF AND PUSH2 0x24F2 JUMP JUMPDEST ISZERO PUSH2 0x22C8 JUMPI DUP4 PUSH20 0xFFFFFFFFFFFFFFFFFFFFFFFFFFFFFFFFFFFFFFFF AND PUSH4 0x150B7A02 PUSH2 0x2198 PUSH2 0x12AC JUMP JUMPDEST DUP8 DUP7 DUP7 PUSH1 0x40 MLOAD DUP6 PUSH4 0xFFFFFFFF AND PUSH1 0xE0 SHL DUP2 MSTORE PUSH1 0x4 ADD PUSH2 0x21BA SWAP5 SWAP4 SWAP3 SWAP2 SWAP1 PUSH2 0x3D0F JUMP JUMPDEST PUSH1 0x20 PUSH1 0x40 MLOAD DUP1 DUP4 SUB DUP2 PUSH1 0x0 DUP8 GAS CALL SWAP3 POP POP POP DUP1 ISZERO PUSH2 0x21F6 JUMPI POP PUSH1 0x40 MLOAD RETURNDATASIZE PUSH1 0x1F NOT PUSH1 0x1F DUP3 ADD AND DUP3 ADD DUP1 PUSH1 0x40 MSTORE POP DUP2 ADD SWAP1 PUSH2 0x21F3 SWAP2 SWAP1 PUSH2 0x3D70 JUMP JUMPDEST PUSH1 0x1 JUMPDEST PUSH2 0x2278 JUMPI RETURNDATASIZE DUP1 PUSH1 0x0 DUP2 EQ PUSH2 0x2226 JUMPI PUSH1 0x40 MLOAD SWAP2 POP PUSH1 0x1F NOT PUSH1 0x3F RETURNDATASIZE ADD AND DUP3 ADD PUSH1 0x40 MSTORE RETURNDATASIZE DUP3 MSTORE RETURNDATASIZE PUSH1 0x0 PUSH1 0x20 DUP5 ADD RETURNDATACOPY PUSH2 0x222B JUMP JUMPDEST PUSH1 0x60 SWAP2 POP JUMPDEST POP PUSH1 0x0 DUP2 MLOAD SUB PUSH2 0x2270 JUMPI PUSH1 0x40 MLOAD PUSH32 0x8C379A000000000000000000000000000000000000000000000000000000000 DUP2 MSTORE PUSH1 0x4 ADD PUSH2 0x2267 SWAP1 PUSH2 0x3C9A JUMP JUMPDEST PUSH1 0x40 MLOAD DUP1 SWAP2 SUB SWAP1 REVERT JUMPDEST DUP1 MLOAD DUP2 PUSH1 0x20 ADD REVERT JUMPDEST PUSH4 0x150B7A02 PUSH1 0xE0 SHL PUSH28 0xFFFFFFFFFFFFFFFFFFFFFFFFFFFFFFFFFFFFFFFFFFFFFFFFFFFFFFFF NOT AND DUP2 PUSH28 0xFFFFFFFFFFFFFFFFFFFFFFFFFFFFFFFFFFFFFFFFFFFFFFFFFFFFFFFF NOT AND EQ SWAP2 POP POP PUSH2 0x22CD JUMP JUMPDEST PUSH1 0x1 SWAP1 POP JUMPDEST SWAP5 SWAP4 POP POP POP POP JUMP JUMPDEST PUSH1 0x0 PUSH20 0xFFFFFFFFFFFFFFFFFFFFFFFFFFFFFFFFFFFFFFFF AND DUP3 PUSH20 0xFFFFFFFFFFFFFFFFFFFFFFFFFFFFFFFFFFFFFFFF AND SUB PUSH2 0x2344 JUMPI PUSH1 0x40 MLOAD PUSH32 0x8C379A000000000000000000000000000000000000000000000000000000000 DUP2 MSTORE PUSH1 0x4 ADD PUSH2 0x233B SWAP1 PUSH2 0x3DE9 JUMP JUMPDEST PUSH1 0x40 MLOAD DUP1 SWAP2 SUB SWAP1 REVERT JUMPDEST PUSH2 0x234D DUP2 PUSH2 0x1EE6 JUMP JUMPDEST ISZERO PUSH2 0x238D JUMPI PUSH1 0x40 MLOAD PUSH32 0x8C379A000000000000000000000000000000000000000000000000000000000 DUP2 MSTORE PUSH1 0x4 ADD PUSH2 0x2384 SWAP1 PUSH2 0x3E55 JUMP JUMPDEST PUSH1 0x40 MLOAD DUP1 SWAP2 SUB SWAP1 REVERT JUMPDEST PUSH2 0x239B PUSH1 0x0 DUP4 DUP4 PUSH1 0x1 PUSH2 0x1FEC JUMP JUMPDEST PUSH2 0x23A4 DUP2 PUSH2 0x1EE6 JUMP JUMPDEST ISZERO PUSH2 0x23E4 JUMPI PUSH1 0x40 MLOAD PUSH32 0x8C379A000000000000000000000000000000000000000000000000000000000 DUP2 MSTORE PUSH1 0x4 ADD PUSH2 0x23DB SWAP1 PUSH2 0x3E55 JUMP JUMPDEST PUSH1 0x40 MLOAD DUP1 SWAP2 SUB SWAP1 REVERT JUMPDEST PUSH1 0x1 PUSH1 0x3 PUSH1 0x0 DUP5 PUSH20 0xFFFFFFFFFFFFFFFFFFFFFFFFFFFFFFFFFFFFFFFF AND PUSH20 0xFFFFFFFFFFFFFFFFFFFFFFFFFFFFFFFFFFFFFFFF AND DUP2 MSTORE PUSH1 0x20 ADD SWAP1 DUP2 MSTORE PUSH1 0x20 ADD PUSH1 0x0 KECCAK256 PUSH1 0x0 DUP3 DUP3 SLOAD ADD SWAP3 POP POP DUP2 SWAP1 SSTORE POP DUP2 PUSH1 0x2 PUSH1 0x0 DUP4 DUP2 MSTORE PUSH1 0x20 ADD SWAP1 DUP2 MSTORE PUSH1 0x20 ADD PUSH1 0x0 KECCAK256 PUSH1 0x0 PUSH2 0x100 EXP DUP2 SLOAD DUP2 PUSH20 0xFFFFFFFFFFFFFFFFFFFFFFFFFFFFFFFFFFFFFFFF MUL NOT AND SWAP1 DUP4 PUSH20 0xFFFFFFFFFFFFFFFFFFFFFFFFFFFFFFFFFFFFFFFF AND MUL OR SWAP1 SSTORE POP DUP1 DUP3 PUSH20 0xFFFFFFFFFFFFFFFFFFFFFFFFFFFFFFFFFFFFFFFF AND PUSH1 0x0 PUSH20 0xFFFFFFFFFFFFFFFFFFFFFFFFFFFFFFFFFFFFFFFF AND PUSH32 0xDDF252AD1BE2C89B69C2B068FC378DAA952BA7F163C4A11628F55A4DF523B3EF PUSH1 0x40 MLOAD PUSH1 0x40 MLOAD DUP1 SWAP2 SUB SWAP1 LOG4 PUSH2 0x24EE PUSH1 0x0 DUP4 DUP4 PUSH1 0x1 PUSH2 0x1FF2 JUMP JUMPDEST POP POP JUMP JUMPDEST PUSH1 0x0 DUP1 DUP3 PUSH20 0xFFFFFFFFFFFFFFFFFFFFFFFFFFFFFFFFFFFFFFFF AND EXTCODESIZE GT SWAP1 POP SWAP2 SWAP1 POP JUMP JUMPDEST PUSH1 0x0 PUSH1 0x40 MLOAD SWAP1 POP SWAP1 JUMP JUMPDEST PUSH1 0x0 DUP1 REVERT JUMPDEST PUSH1 0x0 DUP1 REVERT JUMPDEST PUSH1 0x0 PUSH32 0xFFFFFFFF00000000000000000000000000000000000000000000000000000000 DUP3 AND SWAP1 POP SWAP2 SWAP1 POP JUMP JUMPDEST PUSH2 0x255E DUP2 PUSH2 0x2529 JUMP JUMPDEST DUP2 EQ PUSH2 0x2569 JUMPI PUSH1 0x0 DUP1 REVERT JUMPDEST POP JUMP JUMPDEST PUSH1 0x0 DUP2 CALLDATALOAD SWAP1 POP PUSH2 0x257B DUP2 PUSH2 0x2555 JUMP JUMPDEST SWAP3 SWAP2 POP POP JUMP JUMPDEST PUSH1 0x0 PUSH1 0x20 DUP3 DUP5 SUB SLT ISZERO PUSH2 0x2597 JUMPI PUSH2 0x2596 PUSH2 0x251F JUMP JUMPDEST JUMPDEST PUSH1 0x0 PUSH2 0x25A5 DUP5 DUP3 DUP6 ADD PUSH2 0x256C JUMP JUMPDEST SWAP2 POP POP SWAP3 SWAP2 POP POP JUMP JUMPDEST PUSH1 0x0 DUP2 ISZERO ISZERO SWAP1 POP SWAP2 SWAP1 POP JUMP JUMPDEST PUSH2 0x25C3 DUP2 PUSH2 0x25AE JUMP JUMPDEST DUP3 MSTORE POP POP JUMP JUMPDEST PUSH1 0x0 PUSH1 0x20 DUP3 ADD SWAP1 POP PUSH2 0x25DE PUSH1 0x0 DUP4 ADD DUP5 PUSH2 0x25BA JUMP JUMPDEST SWAP3 SWAP2 POP POP JUMP JUMPDEST PUSH1 0x0 DUP2 MLOAD SWAP1 POP SWAP2 SWAP1 POP JUMP JUMPDEST PUSH1 0x0 DUP3 DUP3 MSTORE PUSH1 0x20 DUP3 ADD SWAP1 POP SWAP3 SWAP2 POP POP JUMP JUMPDEST PUSH1 0x0 JUMPDEST DUP4 DUP2 LT ISZERO PUSH2 0x261E JUMPI DUP1 DUP3 ADD MLOAD DUP2 DUP5 ADD MSTORE PUSH1 0x20 DUP2 ADD SWAP1 POP PUSH2 0x2603 JUMP JUMPDEST PUSH1 0x0 DUP5 DUP5 ADD MSTORE POP POP POP POP JUMP JUMPDEST PUSH1 0x0 PUSH1 0x1F NOT PUSH1 0x1F DUP4 ADD AND SWAP1 POP SWAP2 SWAP1 POP JUMP JUMPDEST PUSH1 0x0 PUSH2 0x2646 DUP3 PUSH2 0x25E4 JUMP JUMPDEST PUSH2 0x2650 DUP2 DUP6 PUSH2 0x25EF JUMP JUMPDEST SWAP4 POP PUSH2 0x2660 DUP2 DUP6 PUSH1 0x20 DUP7 ADD PUSH2 0x2600 JUMP JUMPDEST PUSH2 0x2669 DUP2 PUSH2 0x262A JUMP JUMPDEST DUP5 ADD SWAP2 POP POP SWAP3 SWAP2 POP POP JUMP JUMPDEST PUSH1 0x0 PUSH1 0x20 DUP3 ADD SWAP1 POP DUP2 DUP2 SUB PUSH1 0x0 DUP4 ADD MSTORE PUSH2 0x268E DUP2 DUP5 PUSH2 0x263B JUMP JUMPDEST SWAP1 POP SWAP3 SWAP2 POP POP JUMP JUMPDEST PUSH1 0x0 DUP2 SWAP1 POP SWAP2 SWAP1 POP JUMP JUMPDEST PUSH2 0x26A9 DUP2 PUSH2 0x2696 JUMP JUMPDEST DUP2 EQ PUSH2 0x26B4 JUMPI PUSH1 0x0 DUP1 REVERT JUMPDEST POP JUMP JUMPDEST PUSH1 0x0 DUP2 CALLDATALOAD SWAP1 POP PUSH2 0x26C6 DUP2 PUSH2 0x26A0 JUMP JUMPDEST SWAP3 SWAP2 POP POP JUMP JUMPDEST PUSH1 0x0 PUSH1 0x20 DUP3 DUP5 SUB SLT ISZERO PUSH2 0x26E2 JUMPI PUSH2 0x26E1 PUSH2 0x251F JUMP JUMPDEST JUMPDEST PUSH1 0x0 PUSH2 0x26F0 DUP5 DUP3 DUP6 ADD PUSH2 0x26B7 JUMP JUMPDEST SWAP2 POP POP SWAP3 SWAP2 POP POP JUMP JUMPDEST PUSH1 0x0 PUSH20 0xFFFFFFFFFFFFFFFFFFFFFFFFFFFFFFFFFFFFFFFF DUP3 AND SWAP1 POP SWAP2 SWAP1 POP JUMP JUMPDEST PUSH1 0x0 PUSH2 0x2724 DUP3 PUSH2 0x26F9 JUMP JUMPDEST SWAP1 POP SWAP2 SWAP1 POP JUMP JUMPDEST PUSH2 0x2734 DUP2 PUSH2 0x2719 JUMP JUMPDEST DUP3 MSTORE POP POP JUMP JUMPDEST PUSH1 0x0 PUSH1 0x20 DUP3 ADD SWAP1 POP PUSH2 0x274F PUSH1 0x0 DUP4 ADD DUP5 PUSH2 0x272B JUMP JUMPDEST SWAP3 SWAP2 POP POP JUMP JUMPDEST PUSH2 0x275E DUP2 PUSH2 0x2719 JUMP JUMPDEST DUP2 EQ PUSH2 0x2769 JUMPI PUSH1 0x0 DUP1 REVERT JUMPDEST POP JUMP JUMPDEST PUSH1 0x0 DUP2 CALLDATALOAD SWAP1 POP PUSH2 0x277B DUP2 PUSH2 0x2755 JUMP JUMPDEST SWAP3 SWAP2 POP POP JUMP JUMPDEST PUSH1 0x0 DUP1 PUSH1 0x40 DUP4 DUP6 SUB SLT ISZERO PUSH2 0x2798 JUMPI PUSH2 0x2797 PUSH2 0x251F JUMP JUMPDEST JUMPDEST PUSH1 0x0 PUSH2 0x27A6 DUP6 DUP3 DUP7 ADD PUSH2 0x276C JUMP JUMPDEST SWAP3 POP POP PUSH1 0x20 PUSH2 0x27B7 DUP6 DUP3 DUP7 ADD PUSH2 0x26B7 JUMP JUMPDEST SWAP2 POP POP SWAP3 POP SWAP3 SWAP1 POP JUMP JUMPDEST PUSH1 0x0 DUP1 PUSH1 0x0 PUSH1 0x60 DUP5 DUP7 SUB SLT ISZERO PUSH2 0x27DA JUMPI PUSH2 0x27D9 PUSH2 0x251F JUMP JUMPDEST JUMPDEST PUSH1 0x0 PUSH2 0x27E8 DUP7 DUP3 DUP8 ADD PUSH2 0x276C JUMP JUMPDEST SWAP4 POP POP PUSH1 0x20 PUSH2 0x27F9 DUP7 DUP3 DUP8 ADD PUSH2 0x276C JUMP JUMPDEST SWAP3 POP POP PUSH1 0x40 PUSH2 0x280A DUP7 DUP3 DUP8 ADD PUSH2 0x26B7 JUMP JUMPDEST SWAP2 POP POP SWAP3 POP SWAP3 POP SWAP3 JUMP JUMPDEST PUSH1 0x0 DUP1 REVERT JUMPDEST PUSH1 0x0 DUP1 REVERT JUMPDEST PUSH32 0x4E487B7100000000000000000000000000000000000000000000000000000000 PUSH1 0x0 MSTORE PUSH1 0x41 PUSH1 0x4 MSTORE PUSH1 0x24 PUSH1 0x0 REVERT JUMPDEST PUSH2 0x2856 DUP3 PUSH2 0x262A JUMP JUMPDEST DUP2 ADD DUP2 DUP2 LT PUSH8 0xFFFFFFFFFFFFFFFF DUP3 GT OR ISZERO PUSH2 0x2875 JUMPI PUSH2 0x2874 PUSH2 0x281E JUMP JUMPDEST JUMPDEST DUP1 PUSH1 0x40 MSTORE POP POP POP JUMP JUMPDEST PUSH1 0x0 PUSH2 0x2888 PUSH2 0x2515 JUMP JUMPDEST SWAP1 POP PUSH2 0x2894 DUP3 DUP3 PUSH2 0x284D JUMP JUMPDEST SWAP2 SWAP1 POP JUMP JUMPDEST PUSH1 0x0 PUSH8 0xFFFFFFFFFFFFFFFF DUP3 GT ISZERO PUSH2 0x28B4 JUMPI PUSH2 0x28B3 PUSH2 0x281E JUMP JUMPDEST JUMPDEST PUSH2 0x28BD DUP3 PUSH2 0x262A JUMP JUMPDEST SWAP1 POP PUSH1 0x20 DUP2 ADD SWAP1 POP SWAP2 SWAP1 POP JUMP JUMPDEST DUP3 DUP2 DUP4 CALLDATACOPY PUSH1 0x0 DUP4 DUP4 ADD MSTORE POP POP POP JUMP JUMPDEST PUSH1 0x0 PUSH2 0x28EC PUSH2 0x28E7 DUP5 PUSH2 0x2899 JUMP JUMPDEST PUSH2 0x287E JUMP JUMPDEST SWAP1 POP DUP3 DUP2 MSTORE PUSH1 0x20 DUP2 ADD DUP5 DUP5 DUP5 ADD GT ISZERO PUSH2 0x2908 JUMPI PUSH2 0x2907 PUSH2 0x2819 JUMP JUMPDEST JUMPDEST PUSH2 0x2913 DUP5 DUP3 DUP6 PUSH2 0x28CA JUMP JUMPDEST POP SWAP4 SWAP3 POP POP POP JUMP JUMPDEST PUSH1 0x0 DUP3 PUSH1 0x1F DUP4 ADD SLT PUSH2 0x2930 JUMPI PUSH2 0x292F PUSH2 0x2814 JUMP JUMPDEST JUMPDEST DUP2 CALLDATALOAD PUSH2 0x2940 DUP5 DUP3 PUSH1 0x20 DUP7 ADD PUSH2 0x28D9 JUMP JUMPDEST SWAP2 POP POP SWAP3 SWAP2 POP POP JUMP JUMPDEST PUSH1 0x0 PUSH1 0x20 DUP3 DUP5 SUB SLT ISZERO PUSH2 0x295F JUMPI PUSH2 0x295E PUSH2 0x251F JUMP JUMPDEST JUMPDEST PUSH1 0x0 DUP3 ADD CALLDATALOAD PUSH8 0xFFFFFFFFFFFFFFFF DUP2 GT ISZERO PUSH2 0x297D JUMPI PUSH2 0x297C PUSH2 0x2524 JUMP JUMPDEST JUMPDEST PUSH2 0x2989 DUP5 DUP3 DUP6 ADD PUSH2 0x291B JUMP JUMPDEST SWAP2 POP POP SWAP3 SWAP2 POP POP JUMP JUMPDEST PUSH1 0x0 PUSH1 0x20 DUP3 DUP5 SUB SLT ISZERO PUSH2 0x29A8 JUMPI PUSH2 0x29A7 PUSH2 0x251F JUMP JUMPDEST JUMPDEST PUSH1 0x0 PUSH2 0x29B6 DUP5 DUP3 DUP6 ADD PUSH2 0x276C JUMP JUMPDEST SWAP2 POP POP SWAP3 SWAP2 POP POP JUMP JUMPDEST PUSH2 0x29C8 DUP2 PUSH2 0x2696 JUMP JUMPDEST DUP3 MSTORE POP POP JUMP JUMPDEST PUSH1 0x0 PUSH1 0x20 DUP3 ADD SWAP1 POP PUSH2 0x29E3 PUSH1 0x0 DUP4 ADD DUP5 PUSH2 0x29BF JUMP JUMPDEST SWAP3 SWAP2 POP POP JUMP JUMPDEST PUSH2 0x29F2 DUP2 PUSH2 0x25AE JUMP JUMPDEST DUP2 EQ PUSH2 0x29FD JUMPI PUSH1 0x0 DUP1 REVERT JUMPDEST POP JUMP JUMPDEST PUSH1 0x0 DUP2 CALLDATALOAD SWAP1 POP PUSH2 0x2A0F DUP2 PUSH2 0x29E9 JUMP JUMPDEST SWAP3 SWAP2 POP POP JUMP JUMPDEST PUSH1 0x0 DUP1 PUSH1 0x40 DUP4 DUP6 SUB SLT ISZERO PUSH2 0x2A2C JUMPI PUSH2 0x2A2B PUSH2 0x251F JUMP JUMPDEST JUMPDEST PUSH1 0x0 PUSH2 0x2A3A DUP6 DUP3 DUP7 ADD PUSH2 0x276C JUMP JUMPDEST SWAP3 POP POP PUSH1 0x20 PUSH2 0x2A4B DUP6 DUP3 DUP7 ADD PUSH2 0x2A00 JUMP JUMPDEST SWAP2 POP POP SWAP3 POP SWAP3 SWAP1 POP JUMP JUMPDEST PUSH1 0x0 PUSH8 0xFFFFFFFFFFFFFFFF DUP3 GT ISZERO PUSH2 0x2A70 JUMPI PUSH2 0x2A6F PUSH2 0x281E JUMP JUMPDEST JUMPDEST PUSH2 0x2A79 DUP3 PUSH2 0x262A JUMP JUMPDEST SWAP1 POP PUSH1 0x20 DUP2 ADD SWAP1 POP SWAP2 SWAP1 POP JUMP JUMPDEST PUSH1 0x0 PUSH2 0x2A99 PUSH2 0x2A94 DUP5 PUSH2 0x2A55 JUMP JUMPDEST PUSH2 0x287E JUMP JUMPDEST SWAP1 POP DUP3 DUP2 MSTORE PUSH1 0x20 DUP2 ADD DUP5 DUP5 DUP5 ADD GT ISZERO PUSH2 0x2AB5 JUMPI PUSH2 0x2AB4 PUSH2 0x2819 JUMP JUMPDEST JUMPDEST PUSH2 0x2AC0 DUP5 DUP3 DUP6 PUSH2 0x28CA JUMP JUMPDEST POP SWAP4 SWAP3 POP POP POP JUMP JUMPDEST PUSH1 0x0 DUP3 PUSH1 0x1F DUP4 ADD SLT PUSH2 0x2ADD JUMPI PUSH2 0x2ADC PUSH2 0x2814 JUMP JUMPDEST JUMPDEST DUP2 CALLDATALOAD PUSH2 0x2AED DUP5 DUP3 PUSH1 0x20 DUP7 ADD PUSH2 0x2A86 JUMP JUMPDEST SWAP2 POP POP SWAP3 SWAP2 POP POP JUMP JUMPDEST PUSH1 0x0 DUP1 PUSH1 0x0 DUP1 PUSH1 0x80 DUP6 DUP8 SUB SLT ISZERO PUSH2 0x2B10 JUMPI PUSH2 0x2B0F PUSH2 0x251F JUMP JUMPDEST JUMPDEST PUSH1 0x0 PUSH2 0x2B1E DUP8 DUP3 DUP9 ADD PUSH2 0x276C JUMP JUMPDEST SWAP5 POP POP PUSH1 0x20 PUSH2 0x2B2F DUP8 DUP3 DUP9 ADD PUSH2 0x276C JUMP JUMPDEST SWAP4 POP POP PUSH1 0x40 PUSH2 0x2B40 DUP8 DUP3 DUP9 ADD PUSH2 0x26B7 JUMP JUMPDEST SWAP3 POP POP PUSH1 0x60 DUP6 ADD CALLDATALOAD PUSH8 0xFFFFFFFFFFFFFFFF DUP2 GT ISZERO PUSH2 0x2B61 JUMPI PUSH2 0x2B60 PUSH2 0x2524 JUMP JUMPDEST JUMPDEST PUSH2 0x2B6D DUP8 DUP3 DUP9 ADD PUSH2 0x2AC8 JUMP JUMPDEST SWAP2 POP POP SWAP3 SWAP6 SWAP2 SWAP5 POP SWAP3 POP JUMP JUMPDEST PUSH1 0x0 DUP1 PUSH1 0x40 DUP4 DUP6 SUB SLT ISZERO PUSH2 0x2B90 JUMPI PUSH2 0x2B8F PUSH2 0x251F JUMP JUMPDEST JUMPDEST PUSH1 0x0 PUSH2 0x2B9E DUP6 DUP3 DUP7 ADD PUSH2 0x276C JUMP JUMPDEST SWAP3 POP POP PUSH1 0x20 PUSH2 0x2BAF DUP6 DUP3 DUP7 ADD PUSH2 0x276C JUMP JUMPDEST SWAP2 POP POP SWAP3 POP SWAP3 SWAP1 POP JUMP JUMPDEST PUSH32 0x4E487B7100000000000000000000000000000000000000000000000000000000 PUSH1 0x0 MSTORE PUSH1 0x22 PUSH1 0x4 MSTORE PUSH1 0x24 PUSH1 0x0 REVERT JUMPDEST PUSH1 0x0 PUSH1 0x2 DUP3 DIV SWAP1 POP PUSH1 0x1 DUP3 AND DUP1 PUSH2 0x2C00 JUMPI PUSH1 0x7F DUP3 AND SWAP2 POP JUMPDEST PUSH1 0x20 DUP3 LT DUP2 SUB PUSH2 0x2C13 JUMPI PUSH2 0x2C12 PUSH2 0x2BB9 JUMP JUMPDEST JUMPDEST POP SWAP2 SWAP1 POP JUMP JUMPDEST PUSH32 0x4552433732313A20617070726F76616C20746F2063757272656E74206F776E65 PUSH1 0x0 DUP3 ADD MSTORE PUSH32 0x7200000000000000000000000000000000000000000000000000000000000000 PUSH1 0x20 DUP3 ADD MSTORE POP JUMP JUMPDEST PUSH1 0x0 PUSH2 0x2C75 PUSH1 0x21 DUP4 PUSH2 0x25EF JUMP JUMPDEST SWAP2 POP PUSH2 0x2C80 DUP3 PUSH2 0x2C19 JUMP JUMPDEST PUSH1 0x40 DUP3 ADD SWAP1 POP SWAP2 SWAP1 POP JUMP JUMPDEST PUSH1 0x0 PUSH1 0x20 DUP3 ADD SWAP1 POP DUP2 DUP2 SUB PUSH1 0x0 DUP4 ADD MSTORE PUSH2 0x2CA4 DUP2 PUSH2 0x2C68 JUMP JUMPDEST SWAP1 POP SWAP2 SWAP1 POP JUMP JUMPDEST PUSH32 0x4552433732313A20617070726F76652063616C6C6572206973206E6F7420746F PUSH1 0x0 DUP3 ADD MSTORE PUSH32 0x6B656E206F776E6572206F7220617070726F76656420666F7220616C6C000000 PUSH1 0x20 DUP3 ADD MSTORE POP JUMP JUMPDEST PUSH1 0x0 PUSH2 0x2D07 PUSH1 0x3D DUP4 PUSH2 0x25EF JUMP JUMPDEST SWAP2 POP PUSH2 0x2D12 DUP3 PUSH2 0x2CAB JUMP JUMPDEST PUSH1 0x40 DUP3 ADD SWAP1 POP SWAP2 SWAP1 POP JUMP JUMPDEST PUSH1 0x0 PUSH1 0x20 DUP3 ADD SWAP1 POP DUP2 DUP2 SUB PUSH1 0x0 DUP4 ADD MSTORE PUSH2 0x2D36 DUP2 PUSH2 0x2CFA JUMP JUMPDEST SWAP1 POP SWAP2 SWAP1 POP JUMP JUMPDEST PUSH32 0x4552433732313A2063616C6C6572206973206E6F7420746F6B656E206F776E65 PUSH1 0x0 DUP3 ADD MSTORE PUSH32 0x72206F7220617070726F76656400000000000000000000000000000000000000 PUSH1 0x20 DUP3 ADD MSTORE POP JUMP JUMPDEST PUSH1 0x0 PUSH2 0x2D99 PUSH1 0x2D DUP4 PUSH2 0x25EF JUMP JUMPDEST SWAP2 POP PUSH2 0x2DA4 DUP3 PUSH2 0x2D3D JUMP JUMPDEST PUSH1 0x40 DUP3 ADD SWAP1 POP SWAP2 SWAP1 POP JUMP JUMPDEST PUSH1 0x0 PUSH1 0x20 DUP3 ADD SWAP1 POP DUP2 DUP2 SUB PUSH1 0x0 DUP4 ADD MSTORE PUSH2 0x2DC8 DUP2 PUSH2 0x2D8C JUMP JUMPDEST SWAP1 POP SWAP2 SWAP1 POP JUMP JUMPDEST PUSH1 0x0 DUP2 SWAP1 POP SWAP3 SWAP2 POP POP JUMP JUMPDEST PUSH1 0x0 PUSH2 0x2DE5 DUP3 PUSH2 0x25E4 JUMP JUMPDEST PUSH2 0x2DEF DUP2 DUP6 PUSH2 0x2DCF JUMP JUMPDEST SWAP4 POP PUSH2 0x2DFF DUP2 DUP6 PUSH1 0x20 DUP7 ADD PUSH2 0x2600 JUMP JUMPDEST DUP1 DUP5 ADD SWAP2 POP POP SWAP3 SWAP2 POP POP JUMP JUMPDEST PUSH1 0x0 PUSH2 0x2E17 DUP3 DUP6 PUSH2 0x2DDA JUMP JUMPDEST SWAP2 POP PUSH2 0x2E23 DUP3 DUP5 PUSH2 0x2DDA JUMP JUMPDEST SWAP2 POP DUP2 SWAP1 POP SWAP4 SWAP3 POP POP POP JUMP JUMPDEST PUSH32 0x4552433732313A20696E76616C696420746F6B656E2049440000000000000000 PUSH1 0x0 DUP3 ADD MSTORE POP JUMP JUMPDEST PUSH1 0x0 PUSH2 0x2E65 PUSH1 0x18 DUP4 PUSH2 0x25EF JUMP JUMPDEST SWAP2 POP PUSH2 0x2E70 DUP3 PUSH2 0x2E2F JUMP JUMPDEST PUSH1 0x20 DUP3 ADD SWAP1 POP SWAP2 SWAP1 POP JUMP JUMPDEST PUSH1 0x0 PUSH1 0x20 DUP3 ADD SWAP1 POP DUP2 DUP2 SUB PUSH1 0x0 DUP4 ADD MSTORE PUSH2 0x2E94 DUP2 PUSH2 0x2E58 JUMP JUMPDEST SWAP1 POP SWAP2 SWAP1 POP JUMP JUMPDEST PUSH32 0x4E487B7100000000000000000000000000000000000000000000000000000000 PUSH1 0x0 MSTORE PUSH1 0x12 PUSH1 0x4 MSTORE PUSH1 0x24 PUSH1 0x0 REVERT JUMPDEST PUSH32 0x4E487B7100000000000000000000000000000000000000000000000000000000 PUSH1 0x0 MSTORE PUSH1 0x11 PUSH1 0x4 MSTORE PUSH1 0x24 PUSH1 0x0 REVERT JUMPDEST PUSH1 0x0 PUSH2 0x2F04 DUP3 PUSH2 0x2696 JUMP JUMPDEST SWAP2 POP PUSH2 0x2F0F DUP4 PUSH2 0x2696 JUMP JUMPDEST SWAP3 POP DUP3 PUSH2 0x2F1F JUMPI PUSH2 0x2F1E PUSH2 0x2E9B JUMP JUMPDEST JUMPDEST DUP3 DUP3 DIV SWAP1 POP SWAP3 SWAP2 POP POP JUMP JUMPDEST PUSH1 0x0 PUSH2 0x2F35 DUP3 PUSH2 0x2696 JUMP JUMPDEST SWAP2 POP PUSH2 0x2F40 DUP4 PUSH2 0x2696 JUMP JUMPDEST SWAP3 POP DUP3 PUSH2 0x2F50 JUMPI PUSH2 0x2F4F PUSH2 0x2E9B JUMP JUMPDEST JUMPDEST DUP3 DUP3 MOD SWAP1 POP SWAP3 SWAP2 POP POP JUMP JUMPDEST PUSH32 0x3A00000000000000000000000000000000000000000000000000000000000000 PUSH1 0x0 DUP3 ADD MSTORE POP JUMP JUMPDEST PUSH1 0x0 PUSH2 0x2F91 PUSH1 0x1 DUP4 PUSH2 0x2DCF JUMP JUMPDEST SWAP2 POP PUSH2 0x2F9C DUP3 PUSH2 0x2F5B JUMP JUMPDEST PUSH1 0x1 DUP3 ADD SWAP1 POP SWAP2 SWAP1 POP JUMP JUMPDEST PUSH1 0x0 PUSH2 0x2FB3 DUP3 DUP10 PUSH2 0x2DDA JUMP JUMPDEST SWAP2 POP PUSH2 0x2FBF DUP3 DUP9 PUSH2 0x2DDA JUMP JUMPDEST SWAP2 POP PUSH2 0x2FCA DUP3 PUSH2 0x2F84 JUMP JUMPDEST SWAP2 POP PUSH2 0x2FD6 DUP3 DUP8 PUSH2 0x2DDA JUMP JUMPDEST SWAP2 POP PUSH2 0x2FE2 DUP3 DUP7 PUSH2 0x2DDA JUMP JUMPDEST SWAP2 POP PUSH2 0x2FED DUP3 PUSH2 0x2F84 JUMP JUMPDEST SWAP2 POP PUSH2 0x2FF9 DUP3 DUP6 PUSH2 0x2DDA JUMP JUMPDEST SWAP2 POP PUSH2 0x3005 DUP3 DUP5 PUSH2 0x2DDA JUMP JUMPDEST SWAP2 POP DUP2 SWAP1 POP SWAP8 SWAP7 POP POP POP POP POP POP POP JUMP JUMPDEST PUSH32 0x3C7376672077696474683D2234303022206865696768743D223430302220786D PUSH1 0x0 DUP3 ADD MSTORE PUSH32 0x6C6E733D22687474703A2F2F7777772E77332E6F72672F323030302F73766722 PUSH1 0x20 DUP3 ADD MSTORE PUSH32 0x3E00000000000000000000000000000000000000000000000000000000000000 PUSH1 0x40 DUP3 ADD MSTORE POP JUMP JUMPDEST PUSH1 0x0 PUSH2 0x3097 PUSH1 0x41 DUP4 PUSH2 0x2DCF JUMP JUMPDEST SWAP2 POP PUSH2 0x30A2 DUP3 PUSH2 0x3015 JUMP JUMPDEST PUSH1 0x41 DUP3 ADD SWAP1 POP SWAP2 SWAP1 POP JUMP JUMPDEST PUSH32 0x3C726563742077696474683D223130302522206865696768743D223130302522 PUSH1 0x0 DUP3 ADD MSTORE PUSH32 0x2066696C6C3D2223303030303030222F3E000000000000000000000000000000 PUSH1 0x20 DUP3 ADD MSTORE POP JUMP JUMPDEST PUSH1 0x0 PUSH2 0x3109 PUSH1 0x31 DUP4 PUSH2 0x2DCF JUMP JUMPDEST SWAP2 POP PUSH2 0x3114 DUP3 PUSH2 0x30AD JUMP JUMPDEST PUSH1 0x31 DUP3 ADD SWAP1 POP SWAP2 SWAP1 POP JUMP JUMPDEST PUSH32 0x3C7465787420783D223530252220793D223530252220666F6E742D66616D696C PUSH1 0x0 DUP3 ADD MSTORE PUSH32 0x793D22417269616C2220666F6E742D73697A653D223438222066696C6C3D2223 PUSH1 0x20 DUP3 ADD MSTORE PUSH32 0x4646464646462220746578742D616E63686F723D226D6964646C652220646F6D PUSH1 0x40 DUP3 ADD MSTORE PUSH32 0x696E616E742D626173656C696E653D226D6964646C65223E0000000000000000 PUSH1 0x60 DUP3 ADD MSTORE POP JUMP JUMPDEST PUSH1 0x0 PUSH2 0x31C7 PUSH1 0x78 DUP4 PUSH2 0x2DCF JUMP JUMPDEST SWAP2 POP PUSH2 0x31D2 DUP3 PUSH2 0x311F JUMP JUMPDEST PUSH1 0x78 DUP3 ADD SWAP1 POP SWAP2 SWAP1 POP JUMP JUMPDEST PUSH32 0x3C2F746578743E00000000000000000000000000000000000000000000000000 PUSH1 0x0 DUP3 ADD MSTORE POP JUMP JUMPDEST PUSH1 0x0 PUSH2 0x3213 PUSH1 0x7 DUP4 PUSH2 0x2DCF JUMP JUMPDEST SWAP2 POP PUSH2 0x321E DUP3 PUSH2 0x31DD JUMP JUMPDEST PUSH1 0x7 DUP3 ADD SWAP1 POP SWAP2 SWAP1 POP JUMP JUMPDEST PUSH32 0x3C2F7376673E0000000000000000000000000000000000000000000000000000 PUSH1 0x0 DUP3 ADD MSTORE POP JUMP JUMPDEST PUSH1 0x0 PUSH2 0x325F PUSH1 0x6 DUP4 PUSH2 0x2DCF JUMP JUMPDEST SWAP2 POP PUSH2 0x326A DUP3 PUSH2 0x3229 JUMP JUMPDEST PUSH1 0x6 DUP3 ADD SWAP1 POP SWAP2 SWAP1 POP JUMP JUMPDEST PUSH1 0x0 PUSH2 0x3280 DUP3 PUSH2 0x308A JUMP JUMPDEST SWAP2 POP PUSH2 0x328B DUP3 PUSH2 0x30FC JUMP JUMPDEST SWAP2 POP PUSH2 0x3296 DUP3 PUSH2 0x31BA JUMP JUMPDEST SWAP2 POP PUSH2 0x32A2 DUP3 DUP5 PUSH2 0x2DDA JUMP JUMPDEST SWAP2 POP PUSH2 0x32AD DUP3 PUSH2 0x3206 JUMP JUMPDEST SWAP2 POP PUSH2 0x32B8 DUP3 PUSH2 0x3252 JUMP JUMPDEST SWAP2 POP DUP2 SWAP1 POP SWAP3 SWAP2 POP POP JUMP JUMPDEST PUSH32 0x4552433732313A2061646472657373207A65726F206973206E6F742061207661 PUSH1 0x0 DUP3 ADD MSTORE PUSH32 0x6C6964206F776E65720000000000000000000000000000000000000000000000 PUSH1 0x20 DUP3 ADD MSTORE POP JUMP JUMPDEST PUSH1 0x0 PUSH2 0x331F PUSH1 0x29 DUP4 PUSH2 0x25EF JUMP JUMPDEST SWAP2 POP PUSH2 0x332A DUP3 PUSH2 0x32C3 JUMP JUMPDEST PUSH1 0x40 DUP3 ADD SWAP1 POP SWAP2 SWAP1 POP JUMP JUMPDEST PUSH1 0x0 PUSH1 0x20 DUP3 ADD SWAP1 POP DUP2 DUP2 SUB PUSH1 0x0 DUP4 ADD MSTORE PUSH2 0x334E DUP2 PUSH2 0x3312 JUMP JUMPDEST SWAP1 POP SWAP2 SWAP1 POP JUMP JUMPDEST PUSH32 0x7B226E616D65223A202254494D45204F4E2D434841494E4544222C2000000000 PUSH1 0x0 DUP3 ADD MSTORE POP JUMP JUMPDEST PUSH1 0x0 PUSH2 0x338B PUSH1 0x1C DUP4 PUSH2 0x2DCF JUMP JUMPDEST SWAP2 POP PUSH2 0x3396 DUP3 PUSH2 0x3355 JUMP JUMPDEST PUSH1 0x1C DUP3 ADD SWAP1 POP SWAP2 SWAP1 POP JUMP JUMPDEST PUSH32 0x226465736372697074696F6E223A2022416E206F6E2D636861696E204E465420 PUSH1 0x0 DUP3 ADD MSTORE PUSH32 0x646973706C6179696E67207468652063757272656E742074696D652062617365 PUSH1 0x20 DUP3 ADD MSTORE PUSH32 0x64206F6E20626C6F636B2E74696D657374616D70222C20000000000000000000 PUSH1 0x40 DUP3 ADD MSTORE POP JUMP JUMPDEST PUSH1 0x0 PUSH2 0x3423 PUSH1 0x57 DUP4 PUSH2 0x2DCF JUMP JUMPDEST SWAP2 POP PUSH2 0x342E DUP3 PUSH2 0x33A1 JUMP JUMPDEST PUSH1 0x57 DUP3 ADD SWAP1 POP SWAP2 SWAP1 POP JUMP JUMPDEST PUSH32 0x22696D616765223A220000000000000000000000000000000000000000000000 PUSH1 0x0 DUP3 ADD MSTORE POP JUMP JUMPDEST PUSH1 0x0 PUSH2 0x346F PUSH1 0x9 DUP4 PUSH2 0x2DCF JUMP JUMPDEST SWAP2 POP PUSH2 0x347A DUP3 PUSH2 0x3439 JUMP JUMPDEST PUSH1 0x9 DUP3 ADD SWAP1 POP SWAP2 SWAP1 POP JUMP JUMPDEST PUSH32 0x227D000000000000000000000000000000000000000000000000000000000000 PUSH1 0x0 DUP3 ADD MSTORE POP JUMP JUMPDEST PUSH1 0x0 PUSH2 0x34BB PUSH1 0x2 DUP4 PUSH2 0x2DCF JUMP JUMPDEST SWAP2 POP PUSH2 0x34C6 DUP3 PUSH2 0x3485 JUMP JUMPDEST PUSH1 0x2 DUP3 ADD SWAP1 POP SWAP2 SWAP1 POP JUMP JUMPDEST PUSH1 0x0 PUSH2 0x34DC DUP3 PUSH2 0x337E JUMP JUMPDEST SWAP2 POP PUSH2 0x34E7 DUP3 PUSH2 0x3416 JUMP JUMPDEST SWAP2 POP PUSH2 0x34F2 DUP3 PUSH2 0x3462 JUMP JUMPDEST SWAP2 POP PUSH2 0x34FE DUP3 DUP5 PUSH2 0x2DDA JUMP JUMPDEST SWAP2 POP PUSH2 0x3509 DUP3 PUSH2 0x34AE JUMP JUMPDEST SWAP2 POP DUP2 SWAP1 POP SWAP3 SWAP2 POP POP JUMP JUMPDEST PUSH32 0x646174613A6170706C69636174696F6E2F6A736F6E3B6261736536342C000000 PUSH1 0x0 DUP3 ADD MSTORE POP JUMP JUMPDEST PUSH1 0x0 PUSH2 0x354A PUSH1 0x1D DUP4 PUSH2 0x2DCF JUMP JUMPDEST SWAP2 POP PUSH2 0x3555 DUP3 PUSH2 0x3514 JUMP JUMPDEST PUSH1 0x1D DUP3 ADD SWAP1 POP SWAP2 SWAP1 POP JUMP JUMPDEST PUSH1 0x0 PUSH2 0x356B DUP3 PUSH2 0x353D JUMP JUMPDEST SWAP2 POP PUSH2 0x3577 DUP3 DUP5 PUSH2 0x2DDA JUMP JUMPDEST SWAP2 POP DUP2 SWAP1 POP SWAP3 SWAP2 POP POP JUMP JUMPDEST PUSH32 0x45524337323155524953746F726167653A2055524920717565727920666F7220 PUSH1 0x0 DUP3 ADD MSTORE PUSH32 0x6E6F6E6578697374656E7420746F6B656E000000000000000000000000000000 PUSH1 0x20 DUP3 ADD MSTORE POP JUMP JUMPDEST PUSH1 0x0 PUSH2 0x35DE PUSH1 0x31 DUP4 PUSH2 0x25EF JUMP JUMPDEST SWAP2 POP PUSH2 0x35E9 DUP3 PUSH2 0x3582 JUMP JUMPDEST PUSH1 0x40 DUP3 ADD SWAP1 POP SWAP2 SWAP1 POP JUMP JUMPDEST PUSH1 0x0 PUSH1 0x20 DUP3 ADD SWAP1 POP DUP2 DUP2 SUB PUSH1 0x0 DUP4 ADD MSTORE PUSH2 0x360D DUP2 PUSH2 0x35D1 JUMP JUMPDEST SWAP1 POP SWAP2 SWAP1 POP JUMP JUMPDEST PUSH32 0x4F776E61626C653A206E6577206F776E657220697320746865207A65726F2061 PUSH1 0x0 DUP3 ADD MSTORE PUSH32 0x6464726573730000000000000000000000000000000000000000000000000000 PUSH1 0x20 DUP3 ADD MSTORE POP JUMP JUMPDEST PUSH1 0x0 PUSH2 0x3670 PUSH1 0x26 DUP4 PUSH2 0x25EF JUMP JUMPDEST SWAP2 POP PUSH2 0x367B DUP3 PUSH2 0x3614 JUMP JUMPDEST PUSH1 0x40 DUP3 ADD SWAP1 POP SWAP2 SWAP1 POP JUMP JUMPDEST PUSH1 0x0 PUSH1 0x20 DUP3 ADD SWAP1 POP DUP2 DUP2 SUB PUSH1 0x0 DUP4 ADD MSTORE PUSH2 0x369F DUP2 PUSH2 0x3663 JUMP JUMPDEST SWAP1 POP SWAP2 SWAP1 POP JUMP JUMPDEST PUSH32 0x4F776E61626C653A2063616C6C6572206973206E6F7420746865206F776E6572 PUSH1 0x0 DUP3 ADD MSTORE POP JUMP JUMPDEST PUSH1 0x0 PUSH2 0x36DC PUSH1 0x20 DUP4 PUSH2 0x25EF JUMP JUMPDEST SWAP2 POP PUSH2 0x36E7 DUP3 PUSH2 0x36A6 JUMP JUMPDEST PUSH1 0x20 DUP3 ADD SWAP1 POP SWAP2 SWAP1 POP JUMP JUMPDEST PUSH1 0x0 PUSH1 0x20 DUP3 ADD SWAP1 POP DUP2 DUP2 SUB PUSH1 0x0 DUP4 ADD MSTORE PUSH2 0x370B DUP2 PUSH2 0x36CF JUMP JUMPDEST SWAP1 POP SWAP2 SWAP1 POP JUMP JUMPDEST PUSH32 0x45524337323155524953746F726167653A2055524920736574206F66206E6F6E PUSH1 0x0 DUP3 ADD MSTORE PUSH32 0x6578697374656E7420746F6B656E000000000000000000000000000000000000 PUSH1 0x20 DUP3 ADD MSTORE POP JUMP JUMPDEST PUSH1 0x0 PUSH2 0x376E PUSH1 0x2E DUP4 PUSH2 0x25EF JUMP JUMPDEST SWAP2 POP PUSH2 0x3779 DUP3 PUSH2 0x3712 JUMP JUMPDEST PUSH1 0x40 DUP3 ADD SWAP1 POP SWAP2 SWAP1 POP JUMP JUMPDEST PUSH1 0x0 PUSH1 0x20 DUP3 ADD SWAP1 POP DUP2 DUP2 SUB PUSH1 0x0 DUP4 ADD MSTORE PUSH2 0x379D DUP2 PUSH2 0x3761 JUMP JUMPDEST SWAP1 POP SWAP2 SWAP1 POP JUMP JUMPDEST PUSH1 0x0 DUP2 SWAP1 POP DUP2 PUSH1 0x0 MSTORE PUSH1 0x20 PUSH1 0x0 KECCAK256 SWAP1 POP SWAP2 SWAP1 POP JUMP JUMPDEST PUSH1 0x0 PUSH1 0x20 PUSH1 0x1F DUP4 ADD DIV SWAP1 POP SWAP2 SWAP1 POP JUMP JUMPDEST PUSH1 0x0 DUP3 DUP3 SHL SWAP1 POP SWAP3 SWAP2 POP POP JUMP JUMPDEST PUSH1 0x0 PUSH1 0x8 DUP4 MUL PUSH2 0x3806 PUSH32 0xFFFFFFFFFFFFFFFFFFFFFFFFFFFFFFFFFFFFFFFFFFFFFFFFFFFFFFFFFFFFFFFF DUP3 PUSH2 0x37C9 JUMP JUMPDEST PUSH2 0x3810 DUP7 DUP4 PUSH2 0x37C9 JUMP JUMPDEST SWAP6 POP DUP1 NOT DUP5 AND SWAP4 POP DUP1 DUP7 AND DUP5 OR SWAP3 POP POP POP SWAP4 SWAP3 POP POP POP JUMP JUMPDEST PUSH1 0x0 DUP2 SWAP1 POP SWAP2 SWAP1 POP JUMP JUMPDEST PUSH1 0x0 PUSH2 0x384D PUSH2 0x3848 PUSH2 0x3843 DUP5 PUSH2 0x2696 JUMP JUMPDEST PUSH2 0x3828 JUMP JUMPDEST PUSH2 0x2696 JUMP JUMPDEST SWAP1 POP SWAP2 SWAP1 POP JUMP JUMPDEST PUSH1 0x0 DUP2 SWAP1 POP SWAP2 SWAP1 POP JUMP JUMPDEST PUSH2 0x3867 DUP4 PUSH2 0x3832 JUMP JUMPDEST PUSH2 0x387B PUSH2 0x3873 DUP3 PUSH2 0x3854 JUMP JUMPDEST DUP5 DUP5 SLOAD PUSH2 0x37D6 JUMP JUMPDEST DUP3 SSTORE POP POP POP POP JUMP JUMPDEST PUSH1 0x0 SWAP1 JUMP JUMPDEST PUSH2 0x3890 PUSH2 0x3883 JUMP JUMPDEST PUSH2 0x389B DUP2 DUP5 DUP5 PUSH2 0x385E JUMP JUMPDEST POP POP POP JUMP JUMPDEST JUMPDEST DUP2 DUP2 LT ISZERO PUSH2 0x38BF JUMPI PUSH2 0x38B4 PUSH1 0x0 DUP3 PUSH2 0x3888 JUMP JUMPDEST PUSH1 0x1 DUP2 ADD SWAP1 POP PUSH2 0x38A1 JUMP JUMPDEST POP POP JUMP JUMPDEST PUSH1 0x1F DUP3 GT ISZERO PUSH2 0x3904 JUMPI PUSH2 0x38D5 DUP2 PUSH2 0x37A4 JUMP JUMPDEST PUSH2 0x38DE DUP5 PUSH2 0x37B9 JUMP JUMPDEST DUP2 ADD PUSH1 0x20 DUP6 LT ISZERO PUSH2 0x38ED JUMPI DUP2 SWAP1 POP JUMPDEST PUSH2 0x3901 PUSH2 0x38F9 DUP6 PUSH2 0x37B9 JUMP JUMPDEST DUP4 ADD DUP3 PUSH2 0x38A0 JUMP JUMPDEST POP POP JUMPDEST POP POP POP JUMP JUMPDEST PUSH1 0x0 DUP3 DUP3 SHR SWAP1 POP SWAP3 SWAP2 POP POP JUMP JUMPDEST PUSH1 0x0 PUSH2 0x3927 PUSH1 0x0 NOT DUP5 PUSH1 0x8 MUL PUSH2 0x3909 JUMP JUMPDEST NOT DUP1 DUP4 AND SWAP2 POP POP SWAP3 SWAP2 POP POP JUMP JUMPDEST PUSH1 0x0 PUSH2 0x3940 DUP4 DUP4 PUSH2 0x3916 JUMP JUMPDEST SWAP2 POP DUP3 PUSH1 0x2 MUL DUP3 OR SWAP1 POP SWAP3 SWAP2 POP POP JUMP JUMPDEST PUSH2 0x3959 DUP3 PUSH2 0x25E4 JUMP JUMPDEST PUSH8 0xFFFFFFFFFFFFFFFF DUP2 GT ISZERO PUSH2 0x3972 JUMPI PUSH2 0x3971 PUSH2 0x281E JUMP JUMPDEST JUMPDEST PUSH2 0x397C DUP3 SLOAD PUSH2 0x2BE8 JUMP JUMPDEST PUSH2 0x3987 DUP3 DUP3 DUP6 PUSH2 0x38C3 JUMP JUMPDEST PUSH1 0x0 PUSH1 0x20 SWAP1 POP PUSH1 0x1F DUP4 GT PUSH1 0x1 DUP2 EQ PUSH2 0x39BA JUMPI PUSH1 0x0 DUP5 ISZERO PUSH2 0x39A8 JUMPI DUP3 DUP8 ADD MLOAD SWAP1 POP JUMPDEST PUSH2 0x39B2 DUP6 DUP3 PUSH2 0x3934 JUMP JUMPDEST DUP7 SSTORE POP PUSH2 0x3A1A JUMP JUMPDEST PUSH1 0x1F NOT DUP5 AND PUSH2 0x39C8 DUP7 PUSH2 0x37A4 JUMP JUMPDEST PUSH1 0x0 JUMPDEST DUP3 DUP2 LT ISZERO PUSH2 0x39F0 JUMPI DUP5 DUP10 ADD MLOAD DUP3 SSTORE PUSH1 0x1 DUP3 ADD SWAP2 POP PUSH1 0x20 DUP6 ADD SWAP5 POP PUSH1 0x20 DUP2 ADD SWAP1 POP PUSH2 0x39CB JUMP JUMPDEST DUP7 DUP4 LT ISZERO PUSH2 0x3A0D JUMPI DUP5 DUP10 ADD MLOAD PUSH2 0x3A09 PUSH1 0x1F DUP10 AND DUP3 PUSH2 0x3916 JUMP JUMPDEST DUP4 SSTORE POP JUMPDEST PUSH1 0x1 PUSH1 0x2 DUP9 MUL ADD DUP9 SSTORE POP POP POP JUMPDEST POP POP POP POP POP POP JUMP JUMPDEST PUSH32 0x4552433732313A207472616E736665722066726F6D20696E636F727265637420 PUSH1 0x0 DUP3 ADD MSTORE PUSH32 0x6F776E6572000000000000000000000000000000000000000000000000000000 PUSH1 0x20 DUP3 ADD MSTORE POP JUMP JUMPDEST PUSH1 0x0 PUSH2 0x3A7E PUSH1 0x25 DUP4 PUSH2 0x25EF JUMP JUMPDEST SWAP2 POP PUSH2 0x3A89 DUP3 PUSH2 0x3A22 JUMP JUMPDEST PUSH1 0x40 DUP3 ADD SWAP1 POP SWAP2 SWAP1 POP JUMP JUMPDEST PUSH1 0x0 PUSH1 0x20 DUP3 ADD SWAP1 POP DUP2 DUP2 SUB PUSH1 0x0 DUP4 ADD MSTORE PUSH2 0x3AAD DUP2 PUSH2 0x3A71 JUMP JUMPDEST SWAP1 POP SWAP2 SWAP1 POP JUMP JUMPDEST PUSH32 0x4552433732313A207472616E7366657220746F20746865207A65726F20616464 PUSH1 0x0 DUP3 ADD MSTORE PUSH32 0x7265737300000000000000000000000000000000000000000000000000000000 PUSH1 0x20 DUP3 ADD MSTORE POP JUMP JUMPDEST PUSH1 0x0 PUSH2 0x3B10 PUSH1 0x24 DUP4 PUSH2 0x25EF JUMP JUMPDEST SWAP2 POP PUSH2 0x3B1B DUP3 PUSH2 0x3AB4 JUMP JUMPDEST PUSH1 0x40 DUP3 ADD SWAP1 POP SWAP2 SWAP1 POP JUMP JUMPDEST PUSH1 0x0 PUSH1 0x20 DUP3 ADD SWAP1 POP DUP2 DUP2 SUB PUSH1 0x0 DUP4 ADD MSTORE PUSH2 0x3B3F DUP2 PUSH2 0x3B03 JUMP JUMPDEST SWAP1 POP SWAP2 SWAP1 POP JUMP JUMPDEST PUSH1 0x0 PUSH2 0x3B51 DUP3 PUSH2 0x2696 JUMP JUMPDEST SWAP2 POP PUSH2 0x3B5C DUP4 PUSH2 0x2696 JUMP JUMPDEST SWAP3 POP DUP3 DUP3 ADD SWAP1 POP DUP1 DUP3 GT ISZERO PUSH2 0x3B74 JUMPI PUSH2 0x3B73 PUSH2 0x2ECA JUMP JUMPDEST JUMPDEST SWAP3 SWAP2 POP POP JUMP JUMPDEST PUSH1 0x0 PUSH2 0x3B85 DUP3 PUSH2 0x2696 JUMP JUMPDEST SWAP2 POP PUSH2 0x3B90 DUP4 PUSH2 0x2696 JUMP JUMPDEST SWAP3 POP DUP3 DUP3 MUL PUSH2 0x3B9E DUP2 PUSH2 0x2696 JUMP JUMPDEST SWAP2 POP DUP3 DUP3 DIV DUP5 EQ DUP4 ISZERO OR PUSH2 0x3BB5 JUMPI PUSH2 0x3BB4 PUSH2 0x2ECA JUMP JUMPDEST JUMPDEST POP SWAP3 SWAP2 POP POP JUMP JUMPDEST PUSH32 0x4552433732313A20617070726F766520746F2063616C6C657200000000000000 PUSH1 0x0 DUP3 ADD MSTORE POP JUMP JUMPDEST PUSH1 0x0 PUSH2 0x3BF2 PUSH1 0x19 DUP4 PUSH2 0x25EF JUMP JUMPDEST SWAP2 POP PUSH2 0x3BFD DUP3 PUSH2 0x3BBC JUMP JUMPDEST PUSH1 0x20 DUP3 ADD SWAP1 POP SWAP2 SWAP1 POP JUMP JUMPDEST PUSH1 0x0 PUSH1 0x20 DUP3 ADD SWAP1 POP DUP2 DUP2 SUB PUSH1 0x0 DUP4 ADD MSTORE PUSH2 0x3C21 DUP2 PUSH2 0x3BE5 JUMP JUMPDEST SWAP1 POP SWAP2 SWAP1 POP JUMP JUMPDEST PUSH32 0x4552433732313A207472616E7366657220746F206E6F6E204552433732315265 PUSH1 0x0 DUP3 ADD MSTORE PUSH32 0x63656976657220696D706C656D656E7465720000000000000000000000000000 PUSH1 0x20 DUP3 ADD MSTORE POP JUMP JUMPDEST PUSH1 0x0 PUSH2 0x3C84 PUSH1 0x32 DUP4 PUSH2 0x25EF JUMP JUMPDEST SWAP2 POP PUSH2 0x3C8F DUP3 PUSH2 0x3C28 JUMP JUMPDEST PUSH1 0x40 DUP3 ADD SWAP1 POP SWAP2 SWAP1 POP JUMP JUMPDEST PUSH1 0x0 PUSH1 0x20 DUP3 ADD SWAP1 POP DUP2 DUP2 SUB PUSH1 0x0 DUP4 ADD MSTORE PUSH2 0x3CB3 DUP2 PUSH2 0x3C77 JUMP JUMPDEST SWAP1 POP SWAP2 SWAP1 POP JUMP JUMPDEST PUSH1 0x0 DUP2 MLOAD SWAP1 POP SWAP2 SWAP1 POP JUMP JUMPDEST PUSH1 0x0 DUP3 DUP3 MSTORE PUSH1 0x20 DUP3 ADD SWAP1 POP SWAP3 SWAP2 POP POP JUMP JUMPDEST PUSH1 0x0 PUSH2 0x3CE1 DUP3 PUSH2 0x3CBA JUMP JUMPDEST PUSH2 0x3CEB DUP2 DUP6 PUSH2 0x3CC5 JUMP JUMPDEST SWAP4 POP PUSH2 0x3CFB DUP2 DUP6 PUSH1 0x20 DUP7 ADD PUSH2 0x2600 JUMP JUMPDEST PUSH2 0x3D04 DUP2 PUSH2 0x262A JUMP JUMPDEST DUP5 ADD SWAP2 POP POP SWAP3 SWAP2 POP POP JUMP JUMPDEST PUSH1 0x0 PUSH1 0x80 DUP3 ADD SWAP1 POP PUSH2 0x3D24 PUSH1 0x0 DUP4 ADD DUP8 PUSH2 0x272B JUMP JUMPDEST PUSH2 0x3D31 PUSH1 0x20 DUP4 ADD DUP7 PUSH2 0x272B JUMP JUMPDEST PUSH2 0x3D3E PUSH1 0x40 DUP4 ADD DUP6 PUSH2 0x29BF JUMP JUMPDEST DUP2 DUP2 SUB PUSH1 0x60 DUP4 ADD MSTORE PUSH2 0x3D50 DUP2 DUP5 PUSH2 0x3CD6 JUMP JUMPDEST SWAP1 POP SWAP6 SWAP5 POP POP POP POP POP JUMP JUMPDEST PUSH1 0x0 DUP2 MLOAD SWAP1 POP PUSH2 0x3D6A DUP2 PUSH2 0x2555 JUMP JUMPDEST SWAP3 SWAP2 POP POP JUMP JUMPDEST PUSH1 0x0 PUSH1 0x20 DUP3 DUP5 SUB SLT ISZERO PUSH2 0x3D86 JUMPI PUSH2 0x3D85 PUSH2 0x251F JUMP JUMPDEST JUMPDEST PUSH1 0x0 PUSH2 0x3D94 DUP5 DUP3 DUP6 ADD PUSH2 0x3D5B JUMP JUMPDEST SWAP2 POP POP SWAP3 SWAP2 POP POP JUMP JUMPDEST PUSH32 0x4552433732313A206D696E7420746F20746865207A65726F2061646472657373 PUSH1 0x0 DUP3 ADD MSTORE POP JUMP JUMPDEST PUSH1 0x0 PUSH2 0x3DD3 PUSH1 0x20 DUP4 PUSH2 0x25EF JUMP JUMPDEST SWAP2 POP PUSH2 0x3DDE DUP3 PUSH2 0x3D9D JUMP JUMPDEST PUSH1 0x20 DUP3 ADD SWAP1 POP SWAP2 SWAP1 POP JUMP JUMPDEST PUSH1 0x0 PUSH1 0x20 DUP3 ADD SWAP1 POP DUP2 DUP2 SUB PUSH1 0x0 DUP4 ADD MSTORE PUSH2 0x3E02 DUP2 PUSH2 0x3DC6 JUMP JUMPDEST SWAP1 POP SWAP2 SWAP1 POP JUMP JUMPDEST PUSH32 0x4552433732313A20746F6B656E20616C7265616479206D696E74656400000000 PUSH1 0x0 DUP3 ADD MSTORE POP JUMP JUMPDEST PUSH1 0x0 PUSH2 0x3E3F PUSH1 0x1C DUP4 PUSH2 0x25EF JUMP JUMPDEST SWAP2 POP PUSH2 0x3E4A DUP3 PUSH2 0x3E09 JUMP JUMPDEST PUSH1 0x20 DUP3 ADD SWAP1 POP SWAP2 SWAP1 POP JUMP JUMPDEST PUSH1 0x0 PUSH1 0x20 DUP3 ADD SWAP1 POP DUP2 DUP2 SUB PUSH1 0x0 DUP4 ADD MSTORE PUSH2 0x3E6E DUP2 PUSH2 0x3E32 JUMP JUMPDEST SWAP1 POP SWAP2 SWAP1 POP JUMP INVALID COINBASE TIMESTAMP NUMBER PREVRANDAO GASLIMIT CHAINID SELFBALANCE BASEFEE BLOBHASH BLOBBASEFEE 0x4B 0x4C 0x4D 0x4E 0x4F POP MLOAD MSTORE MSTORE8 SLOAD SSTORE JUMP JUMPI PC MSIZE GAS PUSH2 0x6263 PUSH5 0x6566676869 PUSH11 0x6B6C6D6E6F707172737475 PUSH23 0x7778797A303132333435363738392B2FA2646970667358 0x22 SLT KECCAK256 PUSH17 0x6CCF788ACA5622EADB3E5CE1E0327DF586 GAS 0xE5 SWAP16 0xC2 0xC2 DUP8 SHR LOG0 DUP7 0xD1 0xFB PUSH9 0xDB7E64736F6C634300 ADDMOD SHR STOP CALLER "},"methodIdentifiers":{"approve(address,uint256)":"095ea7b3","balanceOf(address)":"70a08231","formatTokenURI(string)":"71aee193","generateSVG(uint256)":"6dcee4ca","getApproved(uint256)":"081812fc","isApprovedForAll(address,address)":"e985e9c5","mint()":"1249c58b","name()":"06fdde03","owner()":"8da5cb5b","ownerOf(uint256)":"6352211e","renounceOwnership()":"715018a6","safeTransferFrom(address,address,uint256)":"42842e0e","safeTransferFrom(address,address,uint256,bytes)":"b88d4fde","setApprovalForAll(address,bool)":"a22cb465","supportsInterface(bytes4)":"01ffc9a7","svgToImageURI(string)":"30d871c6","symbol()":"95d89b41","tokenURI(uint256)":"c87b56dd","transferFrom(address,address,uint256)":"23b872dd","transferOwnership(address)":"f2fde38b"}}}}}