{
  "_format": "hh-sol-artifact-1",
  "contractName": "PermitSwap",
  "sourceName": "contracts/PermitSwap.sol",
  "abi": [
    {
      "inputs": [
        {
          "internalType": "address",
          "name": "_uniswapRouter",
          "type": "address"
        }
      ],
      "stateMutability": "nonpayable",
      "type": "constructor"
    },
    {
      "inputs": [
        {
          "internalType": "address",
          "name": "permitter",
          "type": "address"
        },
        {
          "internalType": "address",
          "name": "tokenIn",
          "type": "address"
        },
        {
          "internalType": "uint256",
          "name": "amountIn",
          "type": "uint256"
        },
        {
          "internalType": "uint256",
          "name": "minAmountOut",
          "type": "uint256"
        },
        {
          "internalType": "address[]",
          "name": "path",
          "type": "address[]"
        },
        {
          "internalType": "uint256",
          "name": "deadline",
          "type": "uint256"
        },
        {
          "internalType": "uint8",
          "name": "v",
          "type": "uint8"
        },
        {
          "internalType": "bytes32",
          "name": "r",
          "type": "bytes32"
        },
        {
          "internalType": "bytes32",
          "name": "s",
          "type": "bytes32"
        }
      ],
      "name": "permitAndSwap",
      "outputs": [],
      "stateMutability": "nonpayable",
      "type": "function"
    },
    {
      "inputs": [],
      "name": "uniswapRouter",
      "outputs": [
        {
          "internalType": "address",
          "name": "",
          "type": "address"
        }
      ],
      "stateMutability": "view",
      "type": "function"
    }
  ],
  "bytecode": "0x60a060405234801561001057600080fd5b50604051610d22380380610d22833981810160405281019061003291906100cf565b8073ffffffffffffffffffffffffffffffffffffffff1660808173ffffffffffffffffffffffffffffffffffffffff1681525050506100fc565b600080fd5b600073ffffffffffffffffffffffffffffffffffffffff82169050919050565b600061009c82610071565b9050919050565b6100ac81610091565b81146100b757600080fd5b50565b6000815190506100c9816100a3565b92915050565b6000602082840312156100e5576100e461006c565b5b60006100f3848285016100ba565b91505092915050565b608051610bfe6101246000396000818160770152818161027c01526102ff0152610bfe6000f3fe608060405234801561001057600080fd5b50600436106100365760003560e01c8063735de9f71461003b578063b5278da714610059575b600080fd5b610043610075565b60405161005091906103f6565b60405180910390f35b610073600480360381019061006e919061055b565b610099565b005b7f000000000000000000000000000000000000000000000000000000000000000081565b600088116100dc576040517f08c379a00000000000000000000000000000000000000000000000000000000081526004016100d3906106a3565b60405180910390fd5b6002868690501015610123576040517f08c379a000000000000000000000000000000000000000000000000000000000815260040161011a9061070f565b60405180910390fd5b42841015610166576040517f08c379a000000000000000000000000000000000000000000000000000000000815260040161015d9061077b565b60405180910390fd5b8873ffffffffffffffffffffffffffffffffffffffff1663d505accf8b308b888888886040518863ffffffff1660e01b81526004016101ab97969594939291906107c8565b600060405180830381600087803b1580156101c557600080fd5b505af11580156101d9573d6000803e3d6000fd5b505050508873ffffffffffffffffffffffffffffffffffffffff166323b872dd8b308b6040518463ffffffff1660e01b815260040161021a93929190610837565b6020604051808303816000875af1158015610239573d6000803e3d6000fd5b505050506040513d601f19601f8201168201806040525081019061025d91906108a6565b508873ffffffffffffffffffffffffffffffffffffffff1663095ea7b37f00000000000000000000000000000000000000000000000000000000000000008a6040518363ffffffff1660e01b81526004016102b99291906108d3565b6020604051808303816000875af11580156102d8573d6000803e3d6000fd5b505050506040513d601f19601f820116820180604052508101906102fc91906108a6565b507f000000000000000000000000000000000000000000000000000000000000000073ffffffffffffffffffffffffffffffffffffffff166338ed1739898989898f8a6040518763ffffffff1660e01b8152600401610360969594939291906109bf565b6000604051808303816000875af115801561037f573d6000803e3d6000fd5b505050506040513d6000823e3d601f19601f820116820180604052508101906103a89190610b7f565b5050505050505050505050565b600073ffffffffffffffffffffffffffffffffffffffff82169050919050565b60006103e0826103b5565b9050919050565b6103f0816103d5565b82525050565b600060208201905061040b60008301846103e7565b92915050565b6000604051905090565b600080fd5b600080fd5b61042e816103d5565b811461043957600080fd5b50565b60008135905061044b81610425565b92915050565b6000819050919050565b61046481610451565b811461046f57600080fd5b50565b6000813590506104818161045b565b92915050565b600080fd5b600080fd5b600080fd5b60008083601f8401126104ac576104ab610487565b5b8235905067ffffffffffffffff8111156104c9576104c861048c565b5b6020830191508360208202830111156104e5576104e4610491565b5b9250929050565b600060ff82169050919050565b610502816104ec565b811461050d57600080fd5b50565b60008135905061051f816104f9565b92915050565b6000819050919050565b61053881610525565b811461054357600080fd5b50565b6000813590506105558161052f565b92915050565b6000806000806000806000806000806101208b8d03121561057f5761057e61041b565b5b600061058d8d828e0161043c565b9a5050602061059e8d828e0161043c565b99505060406105af8d828e01610472565b98505060606105c08d828e01610472565b97505060808b013567ffffffffffffffff8111156105e1576105e0610420565b5b6105ed8d828e01610496565b965096505060a06106008d828e01610472565b94505060c06106118d828e01610510565b93505060e06106228d828e01610546565b9250506101006106348d828e01610546565b9150509295989b9194979a5092959850565b600082825260208201905092915050565b7f416d6f756e74496e206d7573742062652067726561746572207468616e203000600082015250565b600061068d601f83610646565b915061069882610657565b602082019050919050565b600060208201905081810360008301526106bc81610680565b9050919050565b7f496e76616c696420737761702070617468000000000000000000000000000000600082015250565b60006106f9601183610646565b9150610704826106c3565b602082019050919050565b60006020820190508181036000830152610728816106ec565b9050919050565b7f446561646c696e65206578706972656400000000000000000000000000000000600082015250565b6000610765601083610646565b91506107708261072f565b602082019050919050565b6000602082019050818103600083015261079481610758565b9050919050565b6107a481610451565b82525050565b6107b3816104ec565b82525050565b6107c281610525565b82525050565b600060e0820190506107dd600083018a6103e7565b6107ea60208301896103e7565b6107f7604083018861079b565b610804606083018761079b565b61081160808301866107aa565b61081e60a08301856107b9565b61082b60c08301846107b9565b98975050505050505050565b600060608201905061084c60008301866103e7565b61085960208301856103e7565b610866604083018461079b565b949350505050565b60008115159050919050565b6108838161086e565b811461088e57600080fd5b50565b6000815190506108a08161087a565b92915050565b6000602082840312156108bc576108bb61041b565b5b60006108ca84828501610891565b91505092915050565b60006040820190506108e860008301856103e7565b6108f5602083018461079b565b9392505050565b600082825260208201905092915050565b6000819050919050565b610920816103d5565b82525050565b60006109328383610917565b60208301905092915050565b600061094d602084018461043c565b905092915050565b6000602082019050919050565b600061096e83856108fc565b93506109798261090d565b8060005b858110156109b25761098f828461093e565b6109998882610926565b97506109a483610955565b92505060018101905061097d565b5085925050509392505050565b600060a0820190506109d4600083018961079b565b6109e1602083018861079b565b81810360408301526109f4818688610962565b9050610a0360608301856103e7565b610a10608083018461079b565b979650505050505050565b6000601f19601f8301169050919050565b7f4e487b7100000000000000000000000000000000000000000000000000000000600052604160045260246000fd5b610a6482610a1b565b810181811067ffffffffffffffff82111715610a8357610a82610a2c565b5b80604052505050565b6000610a96610411565b9050610aa28282610a5b565b919050565b600067ffffffffffffffff821115610ac257610ac1610a2c565b5b602082029050602081019050919050565b600081519050610ae28161045b565b92915050565b6000610afb610af684610aa7565b610a8c565b90508083825260208201905060208402830185811115610b1e57610b1d610491565b5b835b81811015610b475780610b338882610ad3565b845260208401935050602081019050610b20565b5050509392505050565b600082601f830112610b6657610b65610487565b5b8151610b76848260208601610ae8565b91505092915050565b600060208284031215610b9557610b9461041b565b5b600082015167ffffffffffffffff811115610bb357610bb2610420565b5b610bbf84828501610b51565b9150509291505056fea26469706673582212209568b05fd7b5041bcddb68ac5e83f22a918df2e960d1b4818b4f3dead1337ea464736f6c634300081c0033",
  "linkReferences": {},
  "deployedLinkReferences": {}
}