{
  "_format": "hh-sol-artifact-1",
  "contractName": "SchMgt",
  "sourceName": "contracts/SchMgt.sol",
  "abi": [
    {
      "inputs": [
        {
          "internalType": "address",
          "name": "_principal",
          "type": "address"
        }
      ],
      "stateMutability": "nonpayable",
      "type": "constructor"
    },
    {
      "inputs": [
        {
          "internalType": "address",
          "name": "sender",
          "type": "address"
        }
      ],
      "name": "Unauthorized",
      "type": "error"
    },
    {
      "inputs": [],
      "name": "getAllStudents",
      "outputs": [
        {
          "components": [
            {
              "internalType": "string",
              "name": "name",
              "type": "string"
            },
            {
              "internalType": "uint8",
              "name": "age",
              "type": "uint8"
            },
            {
              "internalType": "uint8",
              "name": "grade",
              "type": "uint8"
            },
            {
              "internalType": "enum SchMgt.Gender",
              "name": "gender",
              "type": "uint8"
            },
            {
              "internalType": "enum SchMgt.Status",
              "name": "status",
              "type": "uint8"
            }
          ],
          "internalType": "struct SchMgt.Student[]",
          "name": "",
          "type": "tuple[]"
        }
      ],
      "stateMutability": "view",
      "type": "function"
    },
    {
      "inputs": [],
      "name": "principal",
      "outputs": [
        {
          "internalType": "address",
          "name": "",
          "type": "address"
        }
      ],
      "stateMutability": "view",
      "type": "function"
    },
    {
      "inputs": [
        {
          "internalType": "string",
          "name": "_name",
          "type": "string"
        },
        {
          "internalType": "uint8",
          "name": "_age",
          "type": "uint8"
        },
        {
          "internalType": "enum SchMgt.Gender",
          "name": "_gender",
          "type": "uint8"
        }
      ],
      "name": "registerStudent",
      "outputs": [],
      "stateMutability": "nonpayable",
      "type": "function"
    },
    {
      "inputs": [],
      "name": "studentCount",
      "outputs": [
        {
          "internalType": "uint256",
          "name": "",
          "type": "uint256"
        }
      ],
      "stateMutability": "view",
      "type": "function"
    },
    {
      "inputs": [
        {
          "internalType": "uint256",
          "name": "",
          "type": "uint256"
        }
      ],
      "name": "students",
      "outputs": [
        {
          "internalType": "string",
          "name": "name",
          "type": "string"
        },
        {
          "internalType": "uint8",
          "name": "age",
          "type": "uint8"
        },
        {
          "internalType": "uint8",
          "name": "grade",
          "type": "uint8"
        },
        {
          "internalType": "enum SchMgt.Gender",
          "name": "gender",
          "type": "uint8"
        },
        {
          "internalType": "enum SchMgt.Status",
          "name": "status",
          "type": "uint8"
        }
      ],
      "stateMutability": "view",
      "type": "function"
    }
  ],
  "bytecode": "0x608060405234801561001057600080fd5b50604051611252380380611252833981810160405281019061003291906100dc565b80600160006101000a81548173ffffffffffffffffffffffffffffffffffffffff021916908373ffffffffffffffffffffffffffffffffffffffff16021790555050610109565b600080fd5b600073ffffffffffffffffffffffffffffffffffffffff82169050919050565b60006100a98261007e565b9050919050565b6100b98161009e565b81146100c457600080fd5b50565b6000815190506100d6816100b0565b92915050565b6000602082840312156100f2576100f1610079565b5b6000610100848285016100c7565b91505092915050565b61113a806101186000396000f3fe608060405234801561001057600080fd5b50600436106100575760003560e01c806306ead22e1461005c578063ba5d307814610090578063e581f9ee146100ae578063e9e30927146100cc578063eb2506b9146100ea575b600080fd5b610076600480360381019061007191906106d6565b610106565b60405161008795949392919061086e565b60405180910390f35b6100986101f8565b6040516100a59190610909565b60405180910390f35b6100b661021e565b6040516100c39190610933565b60405180910390f35b6100d4610224565b6040516100e19190610afd565b60405180910390f35b61010460048036038101906100ff9190610ca5565b61041f565b005b600260205280600052604060002060009150905080600001805461012990610d43565b80601f016020809104026020016040519081016040528092919081815260200182805461015590610d43565b80156101a25780601f10610177576101008083540402835291602001916101a2565b820191906000526020600020905b81548152906001019060200180831161018557829003601f168201915b5050505050908060010160009054906101000a900460ff16908060010160019054906101000a900460ff16908060010160029054906101000a900460ff16908060010160039054906101000a900460ff16905085565b600160009054906101000a900473ffffffffffffffffffffffffffffffffffffffff1681565b60005481565b60606000805467ffffffffffffffff81111561024357610242610b29565b5b60405190808252806020026020018201604052801561027c57816020015b610269610633565b8152602001906001900390816102615790505b50905060005b60005481101561041757600260008281526020019081526020016000206040518060a00160405290816000820180546102ba90610d43565b80601f01602080910402602001604051908101604052809291908181526020018280546102e690610d43565b80156103335780601f1061030857610100808354040283529160200191610333565b820191906000526020600020905b81548152906001019060200180831161031657829003601f168201915b505050505081526020016001820160009054906101000a900460ff1660ff1660ff1681526020016001820160019054906101000a900460ff1660ff1660ff1681526020016001820160029054906101000a900460ff16600281111561039b5761039a6107af565b5b60028111156103ad576103ac6107af565b5b81526020016001820160039054906101000a900460ff1660028111156103d6576103d56107af565b5b60028111156103e8576103e76107af565b5b815250508282815181106103ff576103fe610d74565b5b60200260200101819052508080600101915050610282565b508091505090565b600160009054906101000a900473ffffffffffffffffffffffffffffffffffffffff1673ffffffffffffffffffffffffffffffffffffffff163373ffffffffffffffffffffffffffffffffffffffff16146104b157336040517f8e4a23d60000000000000000000000000000000000000000000000000000000081526004016104a89190610909565b60405180910390fd5b60008351116104f5576040517f08c379a00000000000000000000000000000000000000000000000000000000081526004016104ec90610def565b60405180910390fd5b6040518060a001604052808481526020018360ff168152602001600160ff16815260200182600281111561052c5761052b6107af565b5b815260200160006002811115610545576105446107af565b5b815250600260008054815260200190815260200160002060008201518160000190816105719190610fbb565b5060208201518160010160006101000a81548160ff021916908360ff16021790555060408201518160010160016101000a81548160ff021916908360ff16021790555060608201518160010160026101000a81548160ff021916908360028111156105df576105de6107af565b5b021790555060808201518160010160036101000a81548160ff0219169083600281111561060f5761060e6107af565b5b0217905550905050600080815480929190610629906110bc565b9190505550505050565b6040518060a0016040528060608152602001600060ff168152602001600060ff1681526020016000600281111561066d5761066c6107af565b5b815260200160006002811115610686576106856107af565b5b81525090565b6000604051905090565b600080fd5b600080fd5b6000819050919050565b6106b3816106a0565b81146106be57600080fd5b50565b6000813590506106d0816106aa565b92915050565b6000602082840312156106ec576106eb610696565b5b60006106fa848285016106c1565b91505092915050565b600081519050919050565b600082825260208201905092915050565b60005b8381101561073d578082015181840152602081019050610722565b60008484015250505050565b6000601f19601f8301169050919050565b600061076582610703565b61076f818561070e565b935061077f81856020860161071f565b61078881610749565b840191505092915050565b600060ff82169050919050565b6107a981610793565b82525050565b7f4e487b7100000000000000000000000000000000000000000000000000000000600052602160045260246000fd5b600381106107ef576107ee6107af565b5b50565b6000819050610800826107de565b919050565b6000610810826107f2565b9050919050565b61082081610805565b82525050565b60038110610837576108366107af565b5b50565b600081905061084882610826565b919050565b60006108588261083a565b9050919050565b6108688161084d565b82525050565b600060a0820190508181036000830152610888818861075a565b905061089760208301876107a0565b6108a460408301866107a0565b6108b16060830185610817565b6108be608083018461085f565b9695505050505050565b600073ffffffffffffffffffffffffffffffffffffffff82169050919050565b60006108f3826108c8565b9050919050565b610903816108e8565b82525050565b600060208201905061091e60008301846108fa565b92915050565b61092d816106a0565b82525050565b60006020820190506109486000830184610924565b92915050565b600081519050919050565b600082825260208201905092915050565b6000819050602082019050919050565b600082825260208201905092915050565b600061099682610703565b6109a0818561097a565b93506109b081856020860161071f565b6109b981610749565b840191505092915050565b6109cd81610793565b82525050565b6109dc81610805565b82525050565b6109eb8161084d565b82525050565b600060a0830160008301518482036000860152610a0e828261098b565b9150506020830151610a2360208601826109c4565b506040830151610a3660408601826109c4565b506060830151610a4960608601826109d3565b506080830151610a5c60808601826109e2565b508091505092915050565b6000610a7383836109f1565b905092915050565b6000602082019050919050565b6000610a938261094e565b610a9d8185610959565b935083602082028501610aaf8561096a565b8060005b85811015610aeb5784840389528151610acc8582610a67565b9450610ad783610a7b565b925060208a01995050600181019050610ab3565b50829750879550505050505092915050565b60006020820190508181036000830152610b178184610a88565b905092915050565b600080fd5b600080fd5b7f4e487b7100000000000000000000000000000000000000000000000000000000600052604160045260246000fd5b610b6182610749565b810181811067ffffffffffffffff82111715610b8057610b7f610b29565b5b80604052505050565b6000610b9361068c565b9050610b9f8282610b58565b919050565b600067ffffffffffffffff821115610bbf57610bbe610b29565b5b610bc882610749565b9050602081019050919050565b82818337600083830152505050565b6000610bf7610bf284610ba4565b610b89565b905082815260208101848484011115610c1357610c12610b24565b5b610c1e848285610bd5565b509392505050565b600082601f830112610c3b57610c3a610b1f565b5b8135610c4b848260208601610be4565b91505092915050565b610c5d81610793565b8114610c6857600080fd5b50565b600081359050610c7a81610c54565b92915050565b60038110610c8d57600080fd5b50565b600081359050610c9f81610c80565b92915050565b600080600060608486031215610cbe57610cbd610696565b5b600084013567ffffffffffffffff811115610cdc57610cdb61069b565b5b610ce886828701610c26565b9350506020610cf986828701610c6b565b9250506040610d0a86828701610c90565b9150509250925092565b7f4e487b7100000000000000000000000000000000000000000000000000000000600052602260045260246000fd5b60006002820490506001821680610d5b57607f821691505b602082108103610d6e57610d6d610d14565b5b50919050565b7f4e487b7100000000000000000000000000000000000000000000000000000000600052603260045260246000fd5b7f4e616d652063616e6e6f7420626520656d707479000000000000000000000000600082015250565b6000610dd960148361070e565b9150610de482610da3565b602082019050919050565b60006020820190508181036000830152610e0881610dcc565b9050919050565b60008190508160005260206000209050919050565b60006020601f8301049050919050565b600082821b905092915050565b600060088302610e717fffffffffffffffffffffffffffffffffffffffffffffffffffffffffffffffff82610e34565b610e7b8683610e34565b95508019841693508086168417925050509392505050565b6000819050919050565b6000610eb8610eb3610eae846106a0565b610e93565b6106a0565b9050919050565b6000819050919050565b610ed283610e9d565b610ee6610ede82610ebf565b848454610e41565b825550505050565b600090565b610efb610eee565b610f06818484610ec9565b505050565b5b81811015610f2a57610f1f600082610ef3565b600181019050610f0c565b5050565b601f821115610f6f57610f4081610e0f565b610f4984610e24565b81016020851015610f58578190505b610f6c610f6485610e24565b830182610f0b565b50505b505050565b600082821c905092915050565b6000610f9260001984600802610f74565b1980831691505092915050565b6000610fab8383610f81565b9150826002028217905092915050565b610fc482610703565b67ffffffffffffffff811115610fdd57610fdc610b29565b5b610fe78254610d43565b610ff2828285610f2e565b600060209050601f8311600181146110255760008415611013578287015190505b61101d8582610f9f565b865550611085565b601f19841661103386610e0f565b60005b8281101561105b57848901518255600182019150602085019450602081019050611036565b868310156110785784890151611074601f891682610f81565b8355505b6001600288020188555050505b505050505050565b7f4e487b7100000000000000000000000000000000000000000000000000000000600052601160045260246000fd5b60006110c7826106a0565b91507fffffffffffffffffffffffffffffffffffffffffffffffffffffffffffffffff82036110f9576110f861108d565b5b60018201905091905056fea2646970667358221220a5ff80ffdf730fa9cf87cd092861c6cf826a86c5d098358685cbfca9479ecc1764736f6c634300081c0033",
  "linkReferences": {},
  "deployedLinkReferences": {}
}