{"contracts/DAO.sol":{"DAO":{"abi":[{"inputs":[{"internalType":"address","name":"_erc7432Address","type":"address"},{"internalType":"address","name":"_nftAddress","type":"address"}],"stateMutability":"nonpayable","type":"constructor"},{"inputs":[{"internalType":"uint256","name":"_proposalId","type":"uint256"},{"internalType":"address","name":"_tokenAddress","type":"address"},{"internalType":"uint256","name":"_tokenId","type":"uint256"}],"name":"cancelProposal","outputs":[],"stateMutability":"nonpayable","type":"function"},{"inputs":[{"internalType":"string","name":"_description","type":"string"},{"internalType":"uint256","name":"_endTime","type":"uint256"},{"internalType":"uint256","name":"_tokenId","type":"uint256"},{"internalType":"address","name":"_tokenAddress","type":"address"}],"name":"createProposal","outputs":[],"stateMutability":"nonpayable","type":"function"},{"inputs":[{"internalType":"uint256","name":"_proposalId","type":"uint256"}],"name":"getProposal","outputs":[{"components":[{"internalType":"uint256","name":"id","type":"uint256"},{"internalType":"address","name":"proposer","type":"address"},{"internalType":"string","name":"description","type":"string"},{"internalType":"uint256","name":"startTime","type":"uint256"},{"internalType":"uint256","name":"endTime","type":"uint256"},{"internalType":"uint256","name":"forVotes","type":"uint256"},{"internalType":"uint256","name":"againstVotes","type":"uint256"},{"internalType":"bool","name":"executed","type":"bool"},{"internalType":"bool","name":"canceled","type":"bool"}],"internalType":"struct DAO.Proposal","name":"","type":"tuple"}],"stateMutability":"view","type":"function"},{"inputs":[{"internalType":"address","name":"_recipient","type":"address"},{"internalType":"address","name":"_token_address","type":"address"},{"internalType":"uint256","name":"_tokenId","type":"uint256"},{"internalType":"uint64","name":"_expirationDate","type":"uint64"},{"internalType":"bool","name":"_revocable","type":"bool"},{"internalType":"bytes","name":"_data","type":"bytes"}],"name":"grantRole","outputs":[],"stateMutability":"nonpayable","type":"function"},{"inputs":[],"name":"nftContract","outputs":[{"internalType":"contract IERC721","name":"","type":"address"}],"stateMutability":"view","type":"function"},{"inputs":[{"internalType":"address","name":"_tokenAddress","type":"address"},{"internalType":"uint256","name":"_tokenId","type":"uint256"}],"name":"revokeRole","outputs":[],"stateMutability":"nonpayable","type":"function"},{"inputs":[],"name":"rolesContract","outputs":[{"internalType":"contract IERC7432","name":"","type":"address"}],"stateMutability":"view","type":"function"},{"inputs":[{"internalType":"uint256","name":"_proposalId","type":"uint256"},{"internalType":"bool","name":"isExecuted","type":"bool"},{"internalType":"uint256","name":"_tokenId","type":"uint256"}],"name":"setProposalExecution","outputs":[],"stateMutability":"nonpayable","type":"function"},{"inputs":[{"internalType":"uint256","name":"_tokenId","type":"uint256"},{"internalType":"address","name":"_tokenAddress","type":"address"},{"internalType":"bool","name":"_vote","type":"bool"},{"internalType":"uint256","name":"_proposalId","type":"uint256"}],"name":"voteProposal","outputs":[],"stateMutability":"nonpayable","type":"function"}],"evm":{"bytecode":{"linkReferences":{},"object":"608060405234801561001057600080fd5b5060405161303d38038061303d833981810160405281019061003291906102f7565b816000806101000a81548173ffffffffffffffffffffffffffffffffffffffff021916908373ffffffffffffffffffffffffffffffffffffffff16021790555080600160006101000a81548173ffffffffffffffffffffffffffffffffffffffff021916908373ffffffffffffffffffffffffffffffffffffffff16021790555060008173ffffffffffffffffffffffffffffffffffffffff1663d0def521336040518263ffffffff1660e01b81526004016100ee91906103ef565b6020604051808303816000875af115801561010d573d6000803e3d6000fd5b505050506040513d601f19601f820116820180604052508101906101319190610453565b9050600067ffffffffffffffff905060008054906101000a900473ffffffffffffffffffffffffffffffffffffffff1673ffffffffffffffffffffffffffffffffffffffff16634b17eed06040518060e001604052807f1a6838efa4183e08fe3607359d1259272af9d4716f65e1a7b5921f78fd5a3c6a81526020018673ffffffffffffffffffffffffffffffffffffffff1681526020018581526020013373ffffffffffffffffffffffffffffffffffffffff1681526020018467ffffffffffffffff1681526020016000151581526020016040518060400160405280600881526020017f4445504c4f5945520000000000000000000000000000000000000000000000008152508152506040518263ffffffff1660e01b81526004016102599190610621565b600060405180830381600087803b15801561027357600080fd5b505af1158015610287573d6000803e3d6000fd5b5050505050505050610643565b600080fd5b600073ffffffffffffffffffffffffffffffffffffffff82169050919050565b60006102c482610299565b9050919050565b6102d4816102b9565b81146102df57600080fd5b50565b6000815190506102f1816102cb565b92915050565b6000806040838503121561030e5761030d610294565b5b600061031c858286016102e2565b925050602061032d858286016102e2565b9150509250929050565b610340816102b9565b82525050565b600082825260208201905092915050565b7f697066733a2f2f6261666b726569656a676261616d326d70696d37367a65736760008201527f6237726e706b706c6b347a333433686f6e69643777337a6b67746a347665766f60208201527f7479000000000000000000000000000000000000000000000000000000000000604082015250565b60006103d9604283610346565b91506103e482610357565b606082019050919050565b60006040820190506104046000830184610337565b8181036020830152610415816103cc565b905092915050565b6000819050919050565b6104308161041d565b811461043b57600080fd5b50565b60008151905061044d81610427565b92915050565b60006020828403121561046957610468610294565b5b60006104778482850161043e565b91505092915050565b6000819050919050565b61049381610480565b82525050565b6104a2816102b9565b82525050565b6104b18161041d565b82525050565b600067ffffffffffffffff82169050919050565b6104d4816104b7565b82525050565b60008115159050919050565b6104ef816104da565b82525050565b600081519050919050565b600082825260208201905092915050565b60005b8381101561052f578082015181840152602081019050610514565b60008484015250505050565b6000601f19601f8301169050919050565b6000610557826104f5565b6105618185610500565b9350610571818560208601610511565b61057a8161053b565b840191505092915050565b600060e08301600083015161059d600086018261048a565b5060208301516105b06020860182610499565b5060408301516105c360408601826104a8565b5060608301516105d66060860182610499565b5060808301516105e960808601826104cb565b5060a08301516105fc60a08601826104e6565b5060c083015184820360c0860152610614828261054c565b9150508091505092915050565b6000602082019050818103600083015261063b8184610585565b905092915050565b6129eb806106526000396000f3fe608060405234801561001057600080fd5b50600436106100935760003560e01c8063c7f758a811610066578063c7f758a814610108578063ca53b39114610138578063d56d229d14610156578063e417191714610174578063edea12e61461019057610093565b80630912ed77146100985780632f136ff4146100b45780634aab18d7146100d0578063893a1272146100ec575b600080fd5b6100b260048036038101906100ad9190611a16565b6101ac565b005b6100ce60048036038101906100c99190611a8e565b6102d4565b005b6100ea60048036038101906100e59190611c67565b610604565b005b61010660048036038101906101019190611d10565b610796565b005b610122600480360381019061011d9190611d63565b610cae565b60405161012f9190611f01565b60405180910390f35b610140610e2c565b60405161014d9190611f82565b60405180910390f35b61015e610e50565b60405161016b9190611fbe565b60405180910390f35b61018e60048036038101906101899190611fd9565b610e76565b005b6101aa60048036038101906101a591906120e1565b611460565b005b60006002600083815260200190815260200160002060009054906101000a900460ff169050600060028111156101e5576101e4612164565b5b8160028111156101f8576101f7612164565b5b14610238576040517f08c379a000000000000000000000000000000000000000000000000000000000815260040161022f906121f0565b60405180910390fd5b60008054906101000a900473ffffffffffffffffffffffffffffffffffffffff1673ffffffffffffffffffffffffffffffffffffffff16630adc11c0848461027f856117e2565b6040518463ffffffff1660e01b815260040161029d93929190612247565b600060405180830381600087803b1580156102b757600080fd5b505af11580156102cb573d6000803e3d6000fd5b50505050505050565b60006002600083815260200190815260200160002060009054906101000a900460ff1690506001600281111561030d5761030c612164565b5b8160028111156103205761031f612164565b5b1415801561035357506000600281111561033d5761033c612164565b5b8160028111156103505761034f612164565b5b14155b15610393576040517f08c379a000000000000000000000000000000000000000000000000000000000815260040161038a906121f0565b60405180910390fd5b60006005600086815260200190815260200160002060405180610120016040529081600082015481526020016001820160009054906101000a900473ffffffffffffffffffffffffffffffffffffffff1673ffffffffffffffffffffffffffffffffffffffff1673ffffffffffffffffffffffffffffffffffffffff168152602001600282018054610424906122ad565b80601f0160208091040260200160405190810160405280929190818152602001828054610450906122ad565b801561049d5780601f106104725761010080835404028352916020019161049d565b820191906000526020600020905b81548152906001019060200180831161048057829003601f168201915b50505050508152602001600382015481526020016004820154815260200160058201548152602001600682015481526020016007820160009054906101000a900460ff161515151581526020016007820160019054906101000a900460ff1615151515815250509050838160e001901515908115158152505080600560008781526020019081526020016000206000820151816000015560208201518160010160006101000a81548173ffffffffffffffffffffffffffffffffffffffff021916908373ffffffffffffffffffffffffffffffffffffffff16021790555060408201518160020190816105909190612480565b50606082015181600301556080820151816004015560a0820151816005015560c0820151816006015560e08201518160070160006101000a81548160ff0219169083151502179055506101008201518160070160016101000a81548160ff0219169083151502179055509050505050505050565b60006002600086815260200190815260200160002060009054906101000a900460ff1690506000600281111561063d5761063c612164565b5b8160028111156106505761064f612164565b5b14610690576040517f08c379a0000000000000000000000000000000000000000000000000000000008152600401610687906121f0565b60405180910390fd5b60008054906101000a900473ffffffffffffffffffffffffffffffffffffffff1673ffffffffffffffffffffffffffffffffffffffff16634b17eed06040518060e001604052806106e0856117e2565b81526020018973ffffffffffffffffffffffffffffffffffffffff1681526020018881526020018a73ffffffffffffffffffffffffffffffffffffffff1681526020018767ffffffffffffffff1681526020018615158152602001858152506040518263ffffffff1660e01b815260040161075b9190612661565b600060405180830381600087803b15801561077557600080fd5b505af1158015610789573d6000803e3d6000fd5b5050505050505050505050565b60006002600083815260200190815260200160002060009054906101000a900460ff1690503373ffffffffffffffffffffffffffffffffffffffff1660008054906101000a900473ffffffffffffffffffffffffffffffffffffffff1673ffffffffffffffffffffffffffffffffffffffff16633f916b488585610819866117e2565b6040518463ffffffff1660e01b815260040161083793929190612247565b602060405180830381865afa158015610854573d6000803e3d6000fd5b505050506040513d601f19601f820116820180604052508101906108789190612698565b73ffffffffffffffffffffffffffffffffffffffff16146108ce576040517f08c379a00000000000000000000000000000000000000000000000000000000081526004016108c590612711565b60405180910390fd5b600160028111156108e2576108e1612164565b5b8160028111156108f5576108f4612164565b5b1415801561092857506000600281111561091257610911612164565b5b81600281111561092557610924612164565b5b14155b8015610958575060028081111561094257610941612164565b5b81600281111561095557610954612164565b5b14155b15610998576040517f08c379a000000000000000000000000000000000000000000000000000000000815260040161098f906121f0565b60405180910390fd5b60006005600086815260200190815260200160002060405180610120016040529081600082015481526020016001820160009054906101000a900473ffffffffffffffffffffffffffffffffffffffff1673ffffffffffffffffffffffffffffffffffffffff1673ffffffffffffffffffffffffffffffffffffffff168152602001600282018054610a29906122ad565b80601f0160208091040260200160405190810160405280929190818152602001828054610a55906122ad565b8015610aa25780601f10610a7757610100808354040283529160200191610aa2565b820191906000526020600020905b815481529060010190602001808311610a8557829003601f168201915b50505050508152602001600382015481526020016004820154815260200160058201548152602001600682015481526020016007820160009054906101000a900460ff161515151581526020016007820160019054906101000a900460ff1615151515815250509050600280811115610b1e57610b1d612164565b5b826002811115610b3157610b30612164565b5b148015610b6e57503373ffffffffffffffffffffffffffffffffffffffff16816020015173ffffffffffffffffffffffffffffffffffffffff1614155b15610bae576040517f08c379a0000000000000000000000000000000000000000000000000000000008152600401610ba5906121f0565b60405180910390fd5b60008161010001901515908115158152505080600560008781526020019081526020016000206000820151816000015560208201518160010160006101000a81548173ffffffffffffffffffffffffffffffffffffffff021916908373ffffffffffffffffffffffffffffffffffffffff1602179055506040820151816002019081610c3a9190612480565b50606082015181600301556080820151816004015560a0820151816005015560c0820151816006015560e08201518160070160006101000a81548160ff0219169083151502179055506101008201518160070160016101000a81548160ff0219169083151502179055509050505050505050565b610cb6611908565b6005600083815260200190815260200160002060405180610120016040529081600082015481526020016001820160009054906101000a900473ffffffffffffffffffffffffffffffffffffffff1673ffffffffffffffffffffffffffffffffffffffff1673ffffffffffffffffffffffffffffffffffffffff168152602001600282018054610d45906122ad565b80601f0160208091040260200160405190810160405280929190818152602001828054610d71906122ad565b8015610dbe5780601f10610d9357610100808354040283529160200191610dbe565b820191906000526020600020905b815481529060010190602001808311610da157829003601f168201915b50505050508152602001600382015481526020016004820154815260200160058201548152602001600682015481526020016007820160009054906101000a900460ff161515151581526020016007820160019054906101000a900460ff1615151515815250509050919050565b60008054906101000a900473ffffffffffffffffffffffffffffffffffffffff1681565b600160009054906101000a900473ffffffffffffffffffffffffffffffffffffffff1681565b3373ffffffffffffffffffffffffffffffffffffffff1660008054906101000a900473ffffffffffffffffffffffffffffffffffffffff1673ffffffffffffffffffffffffffffffffffffffff16631f29d2dc85876040518363ffffffff1660e01b8152600401610ee8929190612731565b602060405180830381865afa158015610f05573d6000803e3d6000fd5b505050506040513d601f19601f82011682018060405250810190610f299190612698565b73ffffffffffffffffffffffffffffffffffffffff1614610f7f576040517f08c379a0000000000000000000000000000000000000000000000000000000008152600401610f76906127a6565b60405180910390fd5b600360003373ffffffffffffffffffffffffffffffffffffffff1673ffffffffffffffffffffffffffffffffffffffff168152602001908152602001600020600082815260200190815260200160002060009054906101000a900460ff161561101d576040517f08c379a000000000000000000000000000000000000000000000000000000000815260040161101490612812565b60405180910390fd5b60006002600086815260200190815260200160002060009054906101000a900460ff1690506001600281111561105657611055612164565b5b81600281111561106957611068612164565b5b1415801561109c57506000600281111561108657611085612164565b5b81600281111561109957611098612164565b5b14155b80156110cc57506002808111156110b6576110b5612164565b5b8160028111156110c9576110c8612164565b5b14155b1561110c576040517f08c379a0000000000000000000000000000000000000000000000000000000008152600401611103906121f0565b60405180910390fd5b60006005600084815260200190815260200160002060405180610120016040529081600082015481526020016001820160009054906101000a900473ffffffffffffffffffffffffffffffffffffffff1673ffffffffffffffffffffffffffffffffffffffff1673ffffffffffffffffffffffffffffffffffffffff16815260200160028201805461119d906122ad565b80601f01602080910402602001604051908101604052809291908181526020018280546111c9906122ad565b80156112165780601f106111eb57610100808354040283529160200191611216565b820191906000526020600020905b8154815290600101906020018083116111f957829003601f168201915b50505050508152602001600382015481526020016004820154815260200160058201548152602001600682015481526020016007820160009054906101000a900460ff161515151581526020016007820160019054906101000a900460ff161515151581525050905042816080015110156112c6576040517f08c379a00000000000000000000000000000000000000000000000000000000081526004016112bd9061287e565b60405180910390fd5b83156112eb5760018160a001516112dd91906128cd565b8160a0018181525050611306565b60018160c001516112fc91906128cd565b8160c00181815250505b806005600060045481526020019081526020016000206000820151816000015560208201518160010160006101000a81548173ffffffffffffffffffffffffffffffffffffffff021916908373ffffffffffffffffffffffffffffffffffffffff16021790555060408201518160020190816113829190612480565b50606082015181600301556080820151816004015560a0820151816005015560c0820151816006015560e08201518160070160006101000a81548160ff0219169083151502179055506101008201518160070160016101000a81548160ff0219169083151502179055509050506001600360003373ffffffffffffffffffffffffffffffffffffffff1673ffffffffffffffffffffffffffffffffffffffff168152602001908152602001600020600085815260200190815260200160002060006101000a81548160ff021916908315150217905550505050505050565b60006002600084815260200190815260200160002060009054906101000a900460ff1690503373ffffffffffffffffffffffffffffffffffffffff1660008054906101000a900473ffffffffffffffffffffffffffffffffffffffff1673ffffffffffffffffffffffffffffffffffffffff16633f916b4884866114e3866117e2565b6040518463ffffffff1660e01b815260040161150193929190612247565b602060405180830381865afa15801561151e573d6000803e3d6000fd5b505050506040513d601f19601f820116820180604052508101906115429190612698565b73ffffffffffffffffffffffffffffffffffffffff1614611598576040517f08c379a000000000000000000000000000000000000000000000000000000000815260040161158f90612711565b60405180910390fd5b600160028111156115ac576115ab612164565b5b8160028111156115bf576115be612164565b5b141580156115f25750600060028111156115dc576115db612164565b5b8160028111156115ef576115ee612164565b5b14155b15611632576040517f08c379a0000000000000000000000000000000000000000000000000000000008152600401611629906121f0565b60405180910390fd5b42841115611675576040517f08c379a000000000000000000000000000000000000000000000000000000000815260040161166c9061294d565b60405180910390fd5b600060405180610120016040528060045481526020013373ffffffffffffffffffffffffffffffffffffffff1681526020018781526020014281526020018681526020016000815260200160008152602001600015158152602001600015158152509050806005600060045481526020019081526020016000206000820151816000015560208201518160010160006101000a81548173ffffffffffffffffffffffffffffffffffffffff021916908373ffffffffffffffffffffffffffffffffffffffff16021790555060408201518160020190816117559190612480565b50606082015181600301556080820151816004015560a0820151816005015560c0820151816006015560e08201518160070160006101000a81548160ff0219169083151502179055506101008201518160070160016101000a81548160ff021916908315150217905550905050600460008154809291906117d59061296d565b9190505550505050505050565b6000600160028111156117f8576117f7612164565b5b82600281111561180b5761180a612164565b5b03611838577fc699d73f77226ba126f1306e93808ae59b0754c7e3c0c275f7423c77160a1e849050611903565b60028081111561184b5761184a612164565b5b82600281111561185e5761185d612164565b5b0361188b577fffa60083152bd11704a80cc8c7a409dad8aa74288b454a3ba0e94c0abc7cf1689050611903565b6000600281111561189f5761189e612164565b5b8260028111156118b2576118b1612164565b5b036118df577f1a6838efa4183e08fe3607359d1259272af9d4716f65e1a7b5921f78fd5a3c6a9050611903565b7f1b489cce9d784ec074d286492a1ccc9efab255c8a4e6b74d2406b5b7674c6e7490505b919050565b60405180610120016040528060008152602001600073ffffffffffffffffffffffffffffffffffffffff16815260200160608152602001600081526020016000815260200160008152602001600081526020016000151581526020016000151581525090565b6000604051905090565b600080fd5b600080fd5b600073ffffffffffffffffffffffffffffffffffffffff82169050919050565b60006119ad82611982565b9050919050565b6119bd816119a2565b81146119c857600080fd5b50565b6000813590506119da816119b4565b92915050565b6000819050919050565b6119f3816119e0565b81146119fe57600080fd5b50565b600081359050611a10816119ea565b92915050565b60008060408385031215611a2d57611a2c611978565b5b6000611a3b858286016119cb565b9250506020611a4c85828601611a01565b9150509250929050565b60008115159050919050565b611a6b81611a56565b8114611a7657600080fd5b50565b600081359050611a8881611a62565b92915050565b600080600060608486031215611aa757611aa6611978565b5b6000611ab586828701611a01565b9350506020611ac686828701611a79565b9250506040611ad786828701611a01565b9150509250925092565b600067ffffffffffffffff82169050919050565b611afe81611ae1565b8114611b0957600080fd5b50565b600081359050611b1b81611af5565b92915050565b600080fd5b600080fd5b6000601f19601f8301169050919050565b7f4e487b7100000000000000000000000000000000000000000000000000000000600052604160045260246000fd5b611b7482611b2b565b810181811067ffffffffffffffff82111715611b9357611b92611b3c565b5b80604052505050565b6000611ba661196e565b9050611bb28282611b6b565b919050565b600067ffffffffffffffff821115611bd257611bd1611b3c565b5b611bdb82611b2b565b9050602081019050919050565b82818337600083830152505050565b6000611c0a611c0584611bb7565b611b9c565b905082815260208101848484011115611c2657611c25611b26565b5b611c31848285611be8565b509392505050565b600082601f830112611c4e57611c4d611b21565b5b8135611c5e848260208601611bf7565b91505092915050565b60008060008060008060c08789031215611c8457611c83611978565b5b6000611c9289828a016119cb565b9650506020611ca389828a016119cb565b9550506040611cb489828a01611a01565b9450506060611cc589828a01611b0c565b9350506080611cd689828a01611a79565b92505060a087013567ffffffffffffffff811115611cf757611cf661197d565b5b611d0389828a01611c39565b9150509295509295509295565b600080600060608486031215611d2957611d28611978565b5b6000611d3786828701611a01565b9350506020611d48868287016119cb565b9250506040611d5986828701611a01565b9150509250925092565b600060208284031215611d7957611d78611978565b5b6000611d8784828501611a01565b91505092915050565b611d99816119e0565b82525050565b611da8816119a2565b82525050565b600081519050919050565b600082825260208201905092915050565b60005b83811015611de8578082015181840152602081019050611dcd565b60008484015250505050565b6000611dff82611dae565b611e098185611db9565b9350611e19818560208601611dca565b611e2281611b2b565b840191505092915050565b611e3681611a56565b82525050565b600061012083016000830151611e556000860182611d90565b506020830151611e686020860182611d9f565b5060408301518482036040860152611e808282611df4565b9150506060830151611e956060860182611d90565b506080830151611ea86080860182611d90565b5060a0830151611ebb60a0860182611d90565b5060c0830151611ece60c0860182611d90565b5060e0830151611ee160e0860182611e2d565b50610100830151611ef6610100860182611e2d565b508091505092915050565b60006020820190508181036000830152611f1b8184611e3c565b905092915050565b6000819050919050565b6000611f48611f43611f3e84611982565b611f23565b611982565b9050919050565b6000611f5a82611f2d565b9050919050565b6000611f6c82611f4f565b9050919050565b611f7c81611f61565b82525050565b6000602082019050611f976000830184611f73565b92915050565b6000611fa882611f4f565b9050919050565b611fb881611f9d565b82525050565b6000602082019050611fd36000830184611faf565b92915050565b60008060008060808587031215611ff357611ff2611978565b5b600061200187828801611a01565b9450506020612012878288016119cb565b935050604061202387828801611a79565b925050606061203487828801611a01565b91505092959194509250565b600067ffffffffffffffff82111561205b5761205a611b3c565b5b61206482611b2b565b9050602081019050919050565b600061208461207f84612040565b611b9c565b9050828152602081018484840111156120a05761209f611b26565b5b6120ab848285611be8565b509392505050565b600082601f8301126120c8576120c7611b21565b5b81356120d8848260208601612071565b91505092915050565b600080600080608085870312156120fb576120fa611978565b5b600085013567ffffffffffffffff8111156121195761211861197d565b5b612125878288016120b3565b945050602061213687828801611a01565b935050604061214787828801611a01565b9250506060612158878288016119cb565b91505092959194509250565b7f4e487b7100000000000000000000000000000000000000000000000000000000600052602160045260246000fd5b600082825260208201905092915050565b7f4e4f545f415554484f52495a4544000000000000000000000000000000000000600082015250565b60006121da600e83612193565b91506121e5826121a4565b602082019050919050565b60006020820190508181036000830152612209816121cd565b9050919050565b612219816119a2565b82525050565b612228816119e0565b82525050565b6000819050919050565b6122418161222e565b82525050565b600060608201905061225c6000830186612210565b612269602083018561221f565b6122766040830184612238565b949350505050565b7f4e487b7100000000000000000000000000000000000000000000000000000000600052602260045260246000fd5b600060028204905060018216806122c557607f821691505b6020821081036122d8576122d761227e565b5b50919050565b60008190508160005260206000209050919050565b60006020601f8301049050919050565b600082821b905092915050565b6000600883026123407fffffffffffffffffffffffffffffffffffffffffffffffffffffffffffffffff82612303565b61234a8683612303565b95508019841693508086168417925050509392505050565b600061237d612378612373846119e0565b611f23565b6119e0565b9050919050565b6000819050919050565b61239783612362565b6123ab6123a382612384565b848454612310565b825550505050565b600090565b6123c06123b3565b6123cb81848461238e565b505050565b5b818110156123ef576123e46000826123b8565b6001810190506123d1565b5050565b601f82111561243457612405816122de565b61240e846122f3565b8101602085101561241d578190505b612431612429856122f3565b8301826123d0565b50505b505050565b600082821c905092915050565b600061245760001984600802612439565b1980831691505092915050565b60006124708383612446565b9150826002028217905092915050565b61248982611dae565b67ffffffffffffffff8111156124a2576124a1611b3c565b5b6124ac82546122ad565b6124b78282856123f3565b600060209050601f8311600181146124ea57600084156124d8578287015190505b6124e28582612464565b86555061254a565b601f1984166124f8866122de565b60005b82811015612520578489015182556001820191506020850194506020810190506124fb565b8683101561253d5784890151612539601f891682612446565b8355505b6001600288020188555050505b505050505050565b61255b8161222e565b82525050565b61256a81611ae1565b82525050565b600081519050919050565b600082825260208201905092915050565b600061259782612570565b6125a1818561257b565b93506125b1818560208601611dca565b6125ba81611b2b565b840191505092915050565b600060e0830160008301516125dd6000860182612552565b5060208301516125f06020860182611d9f565b5060408301516126036040860182611d90565b5060608301516126166060860182611d9f565b5060808301516126296080860182612561565b5060a083015161263c60a0860182611e2d565b5060c083015184820360c0860152612654828261258c565b9150508091505092915050565b6000602082019050818103600083015261267b81846125c5565b905092915050565b600081519050612692816119b4565b92915050565b6000602082840312156126ae576126ad611978565b5b60006126bc84828501612683565b91505092915050565b7f43414c4c45525f4e4f545f524543495049454e545f4f465f524f4c4500000000600082015250565b60006126fb601c83612193565b9150612706826126c5565b602082019050919050565b6000602082019050818103600083015261272a816126ee565b9050919050565b60006040820190506127466000830185612210565b612753602083018461221f565b9392505050565b7f4e4f545f4f524947494e414c5f4f574e45525f4f465f4e465400000000000000600082015250565b6000612790601983612193565b915061279b8261275a565b602082019050919050565b600060208201905081810360008301526127bf81612783565b9050919050565b7f414c52454144595f564f5445445f544849535f50524f504f53414c0000000000600082015250565b60006127fc601b83612193565b9150612807826127c6565b602082019050919050565b6000602082019050818103600083015261282b816127ef565b9050919050565b7f50524f504f53414c5f4558504952454400000000000000000000000000000000600082015250565b6000612868601083612193565b915061287382612832565b602082019050919050565b600060208201905081810360008301526128978161285b565b9050919050565b7f4e487b7100000000000000000000000000000000000000000000000000000000600052601160045260246000fd5b60006128d8826119e0565b91506128e3836119e0565b92508282019050808211156128fb576128fa61289e565b5b92915050565b7f454e445f54494d455f4d5553545f42455f494e5f465554555245000000000000600082015250565b6000612937601a83612193565b915061294282612901565b602082019050919050565b600060208201905081810360008301526129668161292a565b9050919050565b6000612978826119e0565b91507fffffffffffffffffffffffffffffffffffffffffffffffffffffffffffffffff82036129aa576129a961289e565b5b60018201905091905056fea26469706673582212205306037c4da1335311cb9ece2235af87fd974dbff3c6014ff8181ec6ed33e98b64736f6c634300081c0033","opcodes":"PUSH1 0x80 PUSH1 0x40 MSTORE CALLVALUE DUP1 ISZERO PUSH2 0x10 JUMPI PUSH1 0x0 DUP1 REVERT JUMPDEST POP PUSH1 0x40 MLOAD PUSH2 0x303D CODESIZE SUB DUP1 PUSH2 0x303D DUP4 CODECOPY DUP2 DUP2 ADD PUSH1 0x40 MSTORE DUP2 ADD SWAP1 PUSH2 0x32 SWAP2 SWAP1 PUSH2 0x2F7 JUMP JUMPDEST DUP2 PUSH1 0x0 DUP1 PUSH2 0x100 EXP DUP2 SLOAD DUP2 PUSH20 0xFFFFFFFFFFFFFFFFFFFFFFFFFFFFFFFFFFFFFFFF MUL NOT AND SWAP1 DUP4 PUSH20 0xFFFFFFFFFFFFFFFFFFFFFFFFFFFFFFFFFFFFFFFF AND MUL OR SWAP1 SSTORE POP DUP1 PUSH1 0x1 PUSH1 0x0 PUSH2 0x100 EXP DUP2 SLOAD DUP2 PUSH20 0xFFFFFFFFFFFFFFFFFFFFFFFFFFFFFFFFFFFFFFFF MUL NOT AND SWAP1 DUP4 PUSH20 0xFFFFFFFFFFFFFFFFFFFFFFFFFFFFFFFFFFFFFFFF AND MUL OR SWAP1 SSTORE POP PUSH1 0x0 DUP2 PUSH20 0xFFFFFFFFFFFFFFFFFFFFFFFFFFFFFFFFFFFFFFFF AND PUSH4 0xD0DEF521 CALLER PUSH1 0x40 MLOAD DUP3 PUSH4 0xFFFFFFFF AND PUSH1 0xE0 SHL DUP2 MSTORE PUSH1 0x4 ADD PUSH2 0xEE SWAP2 SWAP1 PUSH2 0x3EF JUMP JUMPDEST PUSH1 0x20 PUSH1 0x40 MLOAD DUP1 DUP4 SUB DUP2 PUSH1 0x0 DUP8 GAS CALL ISZERO DUP1 ISZERO PUSH2 0x10D JUMPI RETURNDATASIZE PUSH1 0x0 DUP1 RETURNDATACOPY RETURNDATASIZE PUSH1 0x0 REVERT JUMPDEST POP POP POP POP PUSH1 0x40 MLOAD RETURNDATASIZE PUSH1 0x1F NOT PUSH1 0x1F DUP3 ADD AND DUP3 ADD DUP1 PUSH1 0x40 MSTORE POP DUP2 ADD SWAP1 PUSH2 0x131 SWAP2 SWAP1 PUSH2 0x453 JUMP JUMPDEST SWAP1 POP PUSH1 0x0 PUSH8 0xFFFFFFFFFFFFFFFF SWAP1 POP PUSH1 0x0 DUP1 SLOAD SWAP1 PUSH2 0x100 EXP SWAP1 DIV PUSH20 0xFFFFFFFFFFFFFFFFFFFFFFFFFFFFFFFFFFFFFFFF AND PUSH20 0xFFFFFFFFFFFFFFFFFFFFFFFFFFFFFFFFFFFFFFFF AND PUSH4 0x4B17EED0 PUSH1 0x40 MLOAD DUP1 PUSH1 0xE0 ADD PUSH1 0x40 MSTORE DUP1 PUSH32 0x1A6838EFA4183E08FE3607359D1259272AF9D4716F65E1A7B5921F78FD5A3C6A DUP2 MSTORE PUSH1 0x20 ADD DUP7 PUSH20 0xFFFFFFFFFFFFFFFFFFFFFFFFFFFFFFFFFFFFFFFF AND DUP2 MSTORE PUSH1 0x20 ADD DUP6 DUP2 MSTORE PUSH1 0x20 ADD CALLER PUSH20 0xFFFFFFFFFFFFFFFFFFFFFFFFFFFFFFFFFFFFFFFF AND DUP2 MSTORE PUSH1 0x20 ADD DUP5 PUSH8 0xFFFFFFFFFFFFFFFF AND DUP2 MSTORE PUSH1 0x20 ADD PUSH1 0x0 ISZERO ISZERO DUP2 MSTORE PUSH1 0x20 ADD PUSH1 0x40 MLOAD DUP1 PUSH1 0x40 ADD PUSH1 0x40 MSTORE DUP1 PUSH1 0x8 DUP2 MSTORE PUSH1 0x20 ADD PUSH32 0x4445504C4F594552000000000000000000000000000000000000000000000000 DUP2 MSTORE POP DUP2 MSTORE POP PUSH1 0x40 MLOAD DUP3 PUSH4 0xFFFFFFFF AND PUSH1 0xE0 SHL DUP2 MSTORE PUSH1 0x4 ADD PUSH2 0x259 SWAP2 SWAP1 PUSH2 0x621 JUMP JUMPDEST PUSH1 0x0 PUSH1 0x40 MLOAD DUP1 DUP4 SUB DUP2 PUSH1 0x0 DUP8 DUP1 EXTCODESIZE ISZERO DUP1 ISZERO PUSH2 0x273 JUMPI PUSH1 0x0 DUP1 REVERT JUMPDEST POP GAS CALL ISZERO DUP1 ISZERO PUSH2 0x287 JUMPI RETURNDATASIZE PUSH1 0x0 DUP1 RETURNDATACOPY RETURNDATASIZE PUSH1 0x0 REVERT JUMPDEST POP POP POP POP POP POP POP POP PUSH2 0x643 JUMP JUMPDEST PUSH1 0x0 DUP1 REVERT JUMPDEST PUSH1 0x0 PUSH20 0xFFFFFFFFFFFFFFFFFFFFFFFFFFFFFFFFFFFFFFFF DUP3 AND SWAP1 POP SWAP2 SWAP1 POP JUMP JUMPDEST PUSH1 0x0 PUSH2 0x2C4 DUP3 PUSH2 0x299 JUMP JUMPDEST SWAP1 POP SWAP2 SWAP1 POP JUMP JUMPDEST PUSH2 0x2D4 DUP2 PUSH2 0x2B9 JUMP JUMPDEST DUP2 EQ PUSH2 0x2DF JUMPI PUSH1 0x0 DUP1 REVERT JUMPDEST POP JUMP JUMPDEST PUSH1 0x0 DUP2 MLOAD SWAP1 POP PUSH2 0x2F1 DUP2 PUSH2 0x2CB JUMP JUMPDEST SWAP3 SWAP2 POP POP JUMP JUMPDEST PUSH1 0x0 DUP1 PUSH1 0x40 DUP4 DUP6 SUB SLT ISZERO PUSH2 0x30E JUMPI PUSH2 0x30D PUSH2 0x294 JUMP JUMPDEST JUMPDEST PUSH1 0x0 PUSH2 0x31C DUP6 DUP3 DUP7 ADD PUSH2 0x2E2 JUMP JUMPDEST SWAP3 POP POP PUSH1 0x20 PUSH2 0x32D DUP6 DUP3 DUP7 ADD PUSH2 0x2E2 JUMP JUMPDEST SWAP2 POP POP SWAP3 POP SWAP3 SWAP1 POP JUMP JUMPDEST PUSH2 0x340 DUP2 PUSH2 0x2B9 JUMP JUMPDEST DUP3 MSTORE POP POP JUMP JUMPDEST PUSH1 0x0 DUP3 DUP3 MSTORE PUSH1 0x20 DUP3 ADD SWAP1 POP SWAP3 SWAP2 POP POP JUMP JUMPDEST PUSH32 0x697066733A2F2F6261666B726569656A676261616D326D70696D37367A657367 PUSH1 0x0 DUP3 ADD MSTORE PUSH32 0x6237726E706B706C6B347A333433686F6E69643777337A6B67746A347665766F PUSH1 0x20 DUP3 ADD MSTORE PUSH32 0x7479000000000000000000000000000000000000000000000000000000000000 PUSH1 0x40 DUP3 ADD MSTORE POP JUMP JUMPDEST PUSH1 0x0 PUSH2 0x3D9 PUSH1 0x42 DUP4 PUSH2 0x346 JUMP JUMPDEST SWAP2 POP PUSH2 0x3E4 DUP3 PUSH2 0x357 JUMP JUMPDEST PUSH1 0x60 DUP3 ADD SWAP1 POP SWAP2 SWAP1 POP JUMP JUMPDEST PUSH1 0x0 PUSH1 0x40 DUP3 ADD SWAP1 POP PUSH2 0x404 PUSH1 0x0 DUP4 ADD DUP5 PUSH2 0x337 JUMP JUMPDEST DUP2 DUP2 SUB PUSH1 0x20 DUP4 ADD MSTORE PUSH2 0x415 DUP2 PUSH2 0x3CC JUMP JUMPDEST SWAP1 POP SWAP3 SWAP2 POP POP JUMP JUMPDEST PUSH1 0x0 DUP2 SWAP1 POP SWAP2 SWAP1 POP JUMP JUMPDEST PUSH2 0x430 DUP2 PUSH2 0x41D JUMP JUMPDEST DUP2 EQ PUSH2 0x43B JUMPI PUSH1 0x0 DUP1 REVERT JUMPDEST POP JUMP JUMPDEST PUSH1 0x0 DUP2 MLOAD SWAP1 POP PUSH2 0x44D DUP2 PUSH2 0x427 JUMP JUMPDEST SWAP3 SWAP2 POP POP JUMP JUMPDEST PUSH1 0x0 PUSH1 0x20 DUP3 DUP5 SUB SLT ISZERO PUSH2 0x469 JUMPI PUSH2 0x468 PUSH2 0x294 JUMP JUMPDEST JUMPDEST PUSH1 0x0 PUSH2 0x477 DUP5 DUP3 DUP6 ADD PUSH2 0x43E JUMP JUMPDEST SWAP2 POP POP SWAP3 SWAP2 POP POP JUMP JUMPDEST PUSH1 0x0 DUP2 SWAP1 POP SWAP2 SWAP1 POP JUMP JUMPDEST PUSH2 0x493 DUP2 PUSH2 0x480 JUMP JUMPDEST DUP3 MSTORE POP POP JUMP JUMPDEST PUSH2 0x4A2 DUP2 PUSH2 0x2B9 JUMP JUMPDEST DUP3 MSTORE POP POP JUMP JUMPDEST PUSH2 0x4B1 DUP2 PUSH2 0x41D JUMP JUMPDEST DUP3 MSTORE POP POP JUMP JUMPDEST PUSH1 0x0 PUSH8 0xFFFFFFFFFFFFFFFF DUP3 AND SWAP1 POP SWAP2 SWAP1 POP JUMP JUMPDEST PUSH2 0x4D4 DUP2 PUSH2 0x4B7 JUMP JUMPDEST DUP3 MSTORE POP POP JUMP JUMPDEST PUSH1 0x0 DUP2 ISZERO ISZERO SWAP1 POP SWAP2 SWAP1 POP JUMP JUMPDEST PUSH2 0x4EF DUP2 PUSH2 0x4DA JUMP JUMPDEST DUP3 MSTORE POP POP JUMP JUMPDEST PUSH1 0x0 DUP2 MLOAD SWAP1 POP SWAP2 SWAP1 POP JUMP JUMPDEST PUSH1 0x0 DUP3 DUP3 MSTORE PUSH1 0x20 DUP3 ADD SWAP1 POP SWAP3 SWAP2 POP POP JUMP JUMPDEST PUSH1 0x0 JUMPDEST DUP4 DUP2 LT ISZERO PUSH2 0x52F JUMPI DUP1 DUP3 ADD MLOAD DUP2 DUP5 ADD MSTORE PUSH1 0x20 DUP2 ADD SWAP1 POP PUSH2 0x514 JUMP JUMPDEST PUSH1 0x0 DUP5 DUP5 ADD MSTORE POP POP POP POP JUMP JUMPDEST PUSH1 0x0 PUSH1 0x1F NOT PUSH1 0x1F DUP4 ADD AND SWAP1 POP SWAP2 SWAP1 POP JUMP JUMPDEST PUSH1 0x0 PUSH2 0x557 DUP3 PUSH2 0x4F5 JUMP JUMPDEST PUSH2 0x561 DUP2 DUP6 PUSH2 0x500 JUMP JUMPDEST SWAP4 POP PUSH2 0x571 DUP2 DUP6 PUSH1 0x20 DUP7 ADD PUSH2 0x511 JUMP JUMPDEST PUSH2 0x57A DUP2 PUSH2 0x53B JUMP JUMPDEST DUP5 ADD SWAP2 POP POP SWAP3 SWAP2 POP POP JUMP JUMPDEST PUSH1 0x0 PUSH1 0xE0 DUP4 ADD PUSH1 0x0 DUP4 ADD MLOAD PUSH2 0x59D PUSH1 0x0 DUP7 ADD DUP3 PUSH2 0x48A JUMP JUMPDEST POP PUSH1 0x20 DUP4 ADD MLOAD PUSH2 0x5B0 PUSH1 0x20 DUP7 ADD DUP3 PUSH2 0x499 JUMP JUMPDEST POP PUSH1 0x40 DUP4 ADD MLOAD PUSH2 0x5C3 PUSH1 0x40 DUP7 ADD DUP3 PUSH2 0x4A8 JUMP JUMPDEST POP PUSH1 0x60 DUP4 ADD MLOAD PUSH2 0x5D6 PUSH1 0x60 DUP7 ADD DUP3 PUSH2 0x499 JUMP JUMPDEST POP PUSH1 0x80 DUP4 ADD MLOAD PUSH2 0x5E9 PUSH1 0x80 DUP7 ADD DUP3 PUSH2 0x4CB JUMP JUMPDEST POP PUSH1 0xA0 DUP4 ADD MLOAD PUSH2 0x5FC PUSH1 0xA0 DUP7 ADD DUP3 PUSH2 0x4E6 JUMP JUMPDEST POP PUSH1 0xC0 DUP4 ADD MLOAD DUP5 DUP3 SUB PUSH1 0xC0 DUP7 ADD MSTORE PUSH2 0x614 DUP3 DUP3 PUSH2 0x54C JUMP JUMPDEST SWAP2 POP POP DUP1 SWAP2 POP POP SWAP3 SWAP2 POP POP JUMP JUMPDEST PUSH1 0x0 PUSH1 0x20 DUP3 ADD SWAP1 POP DUP2 DUP2 SUB PUSH1 0x0 DUP4 ADD MSTORE PUSH2 0x63B DUP2 DUP5 PUSH2 0x585 JUMP JUMPDEST SWAP1 POP SWAP3 SWAP2 POP POP JUMP JUMPDEST PUSH2 0x29EB DUP1 PUSH2 0x652 PUSH1 0x0 CODECOPY PUSH1 0x0 RETURN INVALID PUSH1 0x80 PUSH1 0x40 MSTORE CALLVALUE DUP1 ISZERO PUSH2 0x10 JUMPI PUSH1 0x0 DUP1 REVERT JUMPDEST POP PUSH1 0x4 CALLDATASIZE LT PUSH2 0x93 JUMPI PUSH1 0x0 CALLDATALOAD PUSH1 0xE0 SHR DUP1 PUSH4 0xC7F758A8 GT PUSH2 0x66 JUMPI DUP1 PUSH4 0xC7F758A8 EQ PUSH2 0x108 JUMPI DUP1 PUSH4 0xCA53B391 EQ PUSH2 0x138 JUMPI DUP1 PUSH4 0xD56D229D EQ PUSH2 0x156 JUMPI DUP1 PUSH4 0xE4171917 EQ PUSH2 0x174 JUMPI DUP1 PUSH4 0xEDEA12E6 EQ PUSH2 0x190 JUMPI PUSH2 0x93 JUMP JUMPDEST DUP1 PUSH4 0x912ED77 EQ PUSH2 0x98 JUMPI DUP1 PUSH4 0x2F136FF4 EQ PUSH2 0xB4 JUMPI DUP1 PUSH4 0x4AAB18D7 EQ PUSH2 0xD0 JUMPI DUP1 PUSH4 0x893A1272 EQ PUSH2 0xEC JUMPI JUMPDEST PUSH1 0x0 DUP1 REVERT JUMPDEST PUSH2 0xB2 PUSH1 0x4 DUP1 CALLDATASIZE SUB DUP2 ADD SWAP1 PUSH2 0xAD SWAP2 SWAP1 PUSH2 0x1A16 JUMP JUMPDEST PUSH2 0x1AC JUMP JUMPDEST STOP JUMPDEST PUSH2 0xCE PUSH1 0x4 DUP1 CALLDATASIZE SUB DUP2 ADD SWAP1 PUSH2 0xC9 SWAP2 SWAP1 PUSH2 0x1A8E JUMP JUMPDEST PUSH2 0x2D4 JUMP JUMPDEST STOP JUMPDEST PUSH2 0xEA PUSH1 0x4 DUP1 CALLDATASIZE SUB DUP2 ADD SWAP1 PUSH2 0xE5 SWAP2 SWAP1 PUSH2 0x1C67 JUMP JUMPDEST PUSH2 0x604 JUMP JUMPDEST STOP JUMPDEST PUSH2 0x106 PUSH1 0x4 DUP1 CALLDATASIZE SUB DUP2 ADD SWAP1 PUSH2 0x101 SWAP2 SWAP1 PUSH2 0x1D10 JUMP JUMPDEST PUSH2 0x796 JUMP JUMPDEST STOP JUMPDEST PUSH2 0x122 PUSH1 0x4 DUP1 CALLDATASIZE SUB DUP2 ADD SWAP1 PUSH2 0x11D SWAP2 SWAP1 PUSH2 0x1D63 JUMP JUMPDEST PUSH2 0xCAE JUMP JUMPDEST PUSH1 0x40 MLOAD PUSH2 0x12F SWAP2 SWAP1 PUSH2 0x1F01 JUMP JUMPDEST PUSH1 0x40 MLOAD DUP1 SWAP2 SUB SWAP1 RETURN JUMPDEST PUSH2 0x140 PUSH2 0xE2C JUMP JUMPDEST PUSH1 0x40 MLOAD PUSH2 0x14D SWAP2 SWAP1 PUSH2 0x1F82 JUMP JUMPDEST PUSH1 0x40 MLOAD DUP1 SWAP2 SUB SWAP1 RETURN JUMPDEST PUSH2 0x15E PUSH2 0xE50 JUMP JUMPDEST PUSH1 0x40 MLOAD PUSH2 0x16B SWAP2 SWAP1 PUSH2 0x1FBE JUMP JUMPDEST PUSH1 0x40 MLOAD DUP1 SWAP2 SUB SWAP1 RETURN JUMPDEST PUSH2 0x18E PUSH1 0x4 DUP1 CALLDATASIZE SUB DUP2 ADD SWAP1 PUSH2 0x189 SWAP2 SWAP1 PUSH2 0x1FD9 JUMP JUMPDEST PUSH2 0xE76 JUMP JUMPDEST STOP JUMPDEST PUSH2 0x1AA PUSH1 0x4 DUP1 CALLDATASIZE SUB DUP2 ADD SWAP1 PUSH2 0x1A5 SWAP2 SWAP1 PUSH2 0x20E1 JUMP JUMPDEST PUSH2 0x1460 JUMP JUMPDEST STOP JUMPDEST PUSH1 0x0 PUSH1 0x2 PUSH1 0x0 DUP4 DUP2 MSTORE PUSH1 0x20 ADD SWAP1 DUP2 MSTORE PUSH1 0x20 ADD PUSH1 0x0 KECCAK256 PUSH1 0x0 SWAP1 SLOAD SWAP1 PUSH2 0x100 EXP SWAP1 DIV PUSH1 0xFF AND SWAP1 POP PUSH1 0x0 PUSH1 0x2 DUP2 GT ISZERO PUSH2 0x1E5 JUMPI PUSH2 0x1E4 PUSH2 0x2164 JUMP JUMPDEST JUMPDEST DUP2 PUSH1 0x2 DUP2 GT ISZERO PUSH2 0x1F8 JUMPI PUSH2 0x1F7 PUSH2 0x2164 JUMP JUMPDEST JUMPDEST EQ PUSH2 0x238 JUMPI PUSH1 0x40 MLOAD PUSH32 0x8C379A000000000000000000000000000000000000000000000000000000000 DUP2 MSTORE PUSH1 0x4 ADD PUSH2 0x22F SWAP1 PUSH2 0x21F0 JUMP JUMPDEST PUSH1 0x40 MLOAD DUP1 SWAP2 SUB SWAP1 REVERT JUMPDEST PUSH1 0x0 DUP1 SLOAD SWAP1 PUSH2 0x100 EXP SWAP1 DIV PUSH20 0xFFFFFFFFFFFFFFFFFFFFFFFFFFFFFFFFFFFFFFFF AND PUSH20 0xFFFFFFFFFFFFFFFFFFFFFFFFFFFFFFFFFFFFFFFF AND PUSH4 0xADC11C0 DUP5 DUP5 PUSH2 0x27F DUP6 PUSH2 0x17E2 JUMP JUMPDEST PUSH1 0x40 MLOAD DUP5 PUSH4 0xFFFFFFFF AND PUSH1 0xE0 SHL DUP2 MSTORE PUSH1 0x4 ADD PUSH2 0x29D SWAP4 SWAP3 SWAP2 SWAP1 PUSH2 0x2247 JUMP JUMPDEST PUSH1 0x0 PUSH1 0x40 MLOAD DUP1 DUP4 SUB DUP2 PUSH1 0x0 DUP8 DUP1 EXTCODESIZE ISZERO DUP1 ISZERO PUSH2 0x2B7 JUMPI PUSH1 0x0 DUP1 REVERT JUMPDEST POP GAS CALL ISZERO DUP1 ISZERO PUSH2 0x2CB JUMPI RETURNDATASIZE PUSH1 0x0 DUP1 RETURNDATACOPY RETURNDATASIZE PUSH1 0x0 REVERT JUMPDEST POP POP POP POP POP POP POP JUMP JUMPDEST PUSH1 0x0 PUSH1 0x2 PUSH1 0x0 DUP4 DUP2 MSTORE PUSH1 0x20 ADD SWAP1 DUP2 MSTORE PUSH1 0x20 ADD PUSH1 0x0 KECCAK256 PUSH1 0x0 SWAP1 SLOAD SWAP1 PUSH2 0x100 EXP SWAP1 DIV PUSH1 0xFF AND SWAP1 POP PUSH1 0x1 PUSH1 0x2 DUP2 GT ISZERO PUSH2 0x30D JUMPI PUSH2 0x30C PUSH2 0x2164 JUMP JUMPDEST JUMPDEST DUP2 PUSH1 0x2 DUP2 GT ISZERO PUSH2 0x320 JUMPI PUSH2 0x31F PUSH2 0x2164 JUMP JUMPDEST JUMPDEST EQ ISZERO DUP1 ISZERO PUSH2 0x353 JUMPI POP PUSH1 0x0 PUSH1 0x2 DUP2 GT ISZERO PUSH2 0x33D JUMPI PUSH2 0x33C PUSH2 0x2164 JUMP JUMPDEST JUMPDEST DUP2 PUSH1 0x2 DUP2 GT ISZERO PUSH2 0x350 JUMPI PUSH2 0x34F PUSH2 0x2164 JUMP JUMPDEST JUMPDEST EQ ISZERO JUMPDEST ISZERO PUSH2 0x393 JUMPI PUSH1 0x40 MLOAD PUSH32 0x8C379A000000000000000000000000000000000000000000000000000000000 DUP2 MSTORE PUSH1 0x4 ADD PUSH2 0x38A SWAP1 PUSH2 0x21F0 JUMP JUMPDEST PUSH1 0x40 MLOAD DUP1 SWAP2 SUB SWAP1 REVERT JUMPDEST PUSH1 0x0 PUSH1 0x5 PUSH1 0x0 DUP7 DUP2 MSTORE PUSH1 0x20 ADD SWAP1 DUP2 MSTORE PUSH1 0x20 ADD PUSH1 0x0 KECCAK256 PUSH1 0x40 MLOAD DUP1 PUSH2 0x120 ADD PUSH1 0x40 MSTORE SWAP1 DUP2 PUSH1 0x0 DUP3 ADD SLOAD DUP2 MSTORE PUSH1 0x20 ADD PUSH1 0x1 DUP3 ADD PUSH1 0x0 SWAP1 SLOAD SWAP1 PUSH2 0x100 EXP SWAP1 DIV PUSH20 0xFFFFFFFFFFFFFFFFFFFFFFFFFFFFFFFFFFFFFFFF AND PUSH20 0xFFFFFFFFFFFFFFFFFFFFFFFFFFFFFFFFFFFFFFFF AND PUSH20 0xFFFFFFFFFFFFFFFFFFFFFFFFFFFFFFFFFFFFFFFF AND DUP2 MSTORE PUSH1 0x20 ADD PUSH1 0x2 DUP3 ADD DUP1 SLOAD PUSH2 0x424 SWAP1 PUSH2 0x22AD JUMP JUMPDEST DUP1 PUSH1 0x1F ADD PUSH1 0x20 DUP1 SWAP2 DIV MUL PUSH1 0x20 ADD PUSH1 0x40 MLOAD SWAP1 DUP2 ADD PUSH1 0x40 MSTORE DUP1 SWAP3 SWAP2 SWAP1 DUP2 DUP2 MSTORE PUSH1 0x20 ADD DUP3 DUP1 SLOAD PUSH2 0x450 SWAP1 PUSH2 0x22AD JUMP JUMPDEST DUP1 ISZERO PUSH2 0x49D JUMPI DUP1 PUSH1 0x1F LT PUSH2 0x472 JUMPI PUSH2 0x100 DUP1 DUP4 SLOAD DIV MUL DUP4 MSTORE SWAP2 PUSH1 0x20 ADD SWAP2 PUSH2 0x49D JUMP JUMPDEST DUP3 ADD SWAP2 SWAP1 PUSH1 0x0 MSTORE PUSH1 0x20 PUSH1 0x0 KECCAK256 SWAP1 JUMPDEST DUP2 SLOAD DUP2 MSTORE SWAP1 PUSH1 0x1 ADD SWAP1 PUSH1 0x20 ADD DUP1 DUP4 GT PUSH2 0x480 JUMPI DUP3 SWAP1 SUB PUSH1 0x1F AND DUP3 ADD SWAP2 JUMPDEST POP POP POP POP POP DUP2 MSTORE PUSH1 0x20 ADD PUSH1 0x3 DUP3 ADD SLOAD DUP2 MSTORE PUSH1 0x20 ADD PUSH1 0x4 DUP3 ADD SLOAD DUP2 MSTORE PUSH1 0x20 ADD PUSH1 0x5 DUP3 ADD SLOAD DUP2 MSTORE PUSH1 0x20 ADD PUSH1 0x6 DUP3 ADD SLOAD DUP2 MSTORE PUSH1 0x20 ADD PUSH1 0x7 DUP3 ADD PUSH1 0x0 SWAP1 SLOAD SWAP1 PUSH2 0x100 EXP SWAP1 DIV PUSH1 0xFF AND ISZERO ISZERO ISZERO ISZERO DUP2 MSTORE PUSH1 0x20 ADD PUSH1 0x7 DUP3 ADD PUSH1 0x1 SWAP1 SLOAD SWAP1 PUSH2 0x100 EXP SWAP1 DIV PUSH1 0xFF AND ISZERO ISZERO ISZERO ISZERO DUP2 MSTORE POP POP SWAP1 POP DUP4 DUP2 PUSH1 0xE0 ADD SWAP1 ISZERO ISZERO SWAP1 DUP2 ISZERO ISZERO DUP2 MSTORE POP POP DUP1 PUSH1 0x5 PUSH1 0x0 DUP8 DUP2 MSTORE PUSH1 0x20 ADD SWAP1 DUP2 MSTORE PUSH1 0x20 ADD PUSH1 0x0 KECCAK256 PUSH1 0x0 DUP3 ADD MLOAD DUP2 PUSH1 0x0 ADD SSTORE PUSH1 0x20 DUP3 ADD MLOAD DUP2 PUSH1 0x1 ADD PUSH1 0x0 PUSH2 0x100 EXP DUP2 SLOAD DUP2 PUSH20 0xFFFFFFFFFFFFFFFFFFFFFFFFFFFFFFFFFFFFFFFF MUL NOT AND SWAP1 DUP4 PUSH20 0xFFFFFFFFFFFFFFFFFFFFFFFFFFFFFFFFFFFFFFFF AND MUL OR SWAP1 SSTORE POP PUSH1 0x40 DUP3 ADD MLOAD DUP2 PUSH1 0x2 ADD SWAP1 DUP2 PUSH2 0x590 SWAP2 SWAP1 PUSH2 0x2480 JUMP JUMPDEST POP PUSH1 0x60 DUP3 ADD MLOAD DUP2 PUSH1 0x3 ADD SSTORE PUSH1 0x80 DUP3 ADD MLOAD DUP2 PUSH1 0x4 ADD SSTORE PUSH1 0xA0 DUP3 ADD MLOAD DUP2 PUSH1 0x5 ADD SSTORE PUSH1 0xC0 DUP3 ADD MLOAD DUP2 PUSH1 0x6 ADD SSTORE PUSH1 0xE0 DUP3 ADD MLOAD DUP2 PUSH1 0x7 ADD PUSH1 0x0 PUSH2 0x100 EXP DUP2 SLOAD DUP2 PUSH1 0xFF MUL NOT AND SWAP1 DUP4 ISZERO ISZERO MUL OR SWAP1 SSTORE POP PUSH2 0x100 DUP3 ADD MLOAD DUP2 PUSH1 0x7 ADD PUSH1 0x1 PUSH2 0x100 EXP DUP2 SLOAD DUP2 PUSH1 0xFF MUL NOT AND SWAP1 DUP4 ISZERO ISZERO MUL OR SWAP1 SSTORE POP SWAP1 POP POP POP POP POP POP POP JUMP JUMPDEST PUSH1 0x0 PUSH1 0x2 PUSH1 0x0 DUP7 DUP2 MSTORE PUSH1 0x20 ADD SWAP1 DUP2 MSTORE PUSH1 0x20 ADD PUSH1 0x0 KECCAK256 PUSH1 0x0 SWAP1 SLOAD SWAP1 PUSH2 0x100 EXP SWAP1 DIV PUSH1 0xFF AND SWAP1 POP PUSH1 0x0 PUSH1 0x2 DUP2 GT ISZERO PUSH2 0x63D JUMPI PUSH2 0x63C PUSH2 0x2164 JUMP JUMPDEST JUMPDEST DUP2 PUSH1 0x2 DUP2 GT ISZERO PUSH2 0x650 JUMPI PUSH2 0x64F PUSH2 0x2164 JUMP JUMPDEST JUMPDEST EQ PUSH2 0x690 JUMPI PUSH1 0x40 MLOAD PUSH32 0x8C379A000000000000000000000000000000000000000000000000000000000 DUP2 MSTORE PUSH1 0x4 ADD PUSH2 0x687 SWAP1 PUSH2 0x21F0 JUMP JUMPDEST PUSH1 0x40 MLOAD DUP1 SWAP2 SUB SWAP1 REVERT JUMPDEST PUSH1 0x0 DUP1 SLOAD SWAP1 PUSH2 0x100 EXP SWAP1 DIV PUSH20 0xFFFFFFFFFFFFFFFFFFFFFFFFFFFFFFFFFFFFFFFF AND PUSH20 0xFFFFFFFFFFFFFFFFFFFFFFFFFFFFFFFFFFFFFFFF AND PUSH4 0x4B17EED0 PUSH1 0x40 MLOAD DUP1 PUSH1 0xE0 ADD PUSH1 0x40 MSTORE DUP1 PUSH2 0x6E0 DUP6 PUSH2 0x17E2 JUMP JUMPDEST DUP2 MSTORE PUSH1 0x20 ADD DUP10 PUSH20 0xFFFFFFFFFFFFFFFFFFFFFFFFFFFFFFFFFFFFFFFF AND DUP2 MSTORE PUSH1 0x20 ADD DUP9 DUP2 MSTORE PUSH1 0x20 ADD DUP11 PUSH20 0xFFFFFFFFFFFFFFFFFFFFFFFFFFFFFFFFFFFFFFFF AND DUP2 MSTORE PUSH1 0x20 ADD DUP8 PUSH8 0xFFFFFFFFFFFFFFFF AND DUP2 MSTORE PUSH1 0x20 ADD DUP7 ISZERO ISZERO DUP2 MSTORE PUSH1 0x20 ADD DUP6 DUP2 MSTORE POP PUSH1 0x40 MLOAD DUP3 PUSH4 0xFFFFFFFF AND PUSH1 0xE0 SHL DUP2 MSTORE PUSH1 0x4 ADD PUSH2 0x75B SWAP2 SWAP1 PUSH2 0x2661 JUMP JUMPDEST PUSH1 0x0 PUSH1 0x40 MLOAD DUP1 DUP4 SUB DUP2 PUSH1 0x0 DUP8 DUP1 EXTCODESIZE ISZERO DUP1 ISZERO PUSH2 0x775 JUMPI PUSH1 0x0 DUP1 REVERT JUMPDEST POP GAS CALL ISZERO DUP1 ISZERO PUSH2 0x789 JUMPI RETURNDATASIZE PUSH1 0x0 DUP1 RETURNDATACOPY RETURNDATASIZE PUSH1 0x0 REVERT JUMPDEST POP POP POP POP POP POP POP POP POP POP POP JUMP JUMPDEST PUSH1 0x0 PUSH1 0x2 PUSH1 0x0 DUP4 DUP2 MSTORE PUSH1 0x20 ADD SWAP1 DUP2 MSTORE PUSH1 0x20 ADD PUSH1 0x0 KECCAK256 PUSH1 0x0 SWAP1 SLOAD SWAP1 PUSH2 0x100 EXP SWAP1 DIV PUSH1 0xFF AND SWAP1 POP CALLER PUSH20 0xFFFFFFFFFFFFFFFFFFFFFFFFFFFFFFFFFFFFFFFF AND PUSH1 0x0 DUP1 SLOAD SWAP1 PUSH2 0x100 EXP SWAP1 DIV PUSH20 0xFFFFFFFFFFFFFFFFFFFFFFFFFFFFFFFFFFFFFFFF AND PUSH20 0xFFFFFFFFFFFFFFFFFFFFFFFFFFFFFFFFFFFFFFFF AND PUSH4 0x3F916B48 DUP6 DUP6 PUSH2 0x819 DUP7 PUSH2 0x17E2 JUMP JUMPDEST PUSH1 0x40 MLOAD DUP5 PUSH4 0xFFFFFFFF AND PUSH1 0xE0 SHL DUP2 MSTORE PUSH1 0x4 ADD PUSH2 0x837 SWAP4 SWAP3 SWAP2 SWAP1 PUSH2 0x2247 JUMP JUMPDEST PUSH1 0x20 PUSH1 0x40 MLOAD DUP1 DUP4 SUB DUP2 DUP7 GAS STATICCALL ISZERO DUP1 ISZERO PUSH2 0x854 JUMPI RETURNDATASIZE PUSH1 0x0 DUP1 RETURNDATACOPY RETURNDATASIZE PUSH1 0x0 REVERT JUMPDEST POP POP POP POP PUSH1 0x40 MLOAD RETURNDATASIZE PUSH1 0x1F NOT PUSH1 0x1F DUP3 ADD AND DUP3 ADD DUP1 PUSH1 0x40 MSTORE POP DUP2 ADD SWAP1 PUSH2 0x878 SWAP2 SWAP1 PUSH2 0x2698 JUMP JUMPDEST PUSH20 0xFFFFFFFFFFFFFFFFFFFFFFFFFFFFFFFFFFFFFFFF AND EQ PUSH2 0x8CE JUMPI PUSH1 0x40 MLOAD PUSH32 0x8C379A000000000000000000000000000000000000000000000000000000000 DUP2 MSTORE PUSH1 0x4 ADD PUSH2 0x8C5 SWAP1 PUSH2 0x2711 JUMP JUMPDEST PUSH1 0x40 MLOAD DUP1 SWAP2 SUB SWAP1 REVERT JUMPDEST PUSH1 0x1 PUSH1 0x2 DUP2 GT ISZERO PUSH2 0x8E2 JUMPI PUSH2 0x8E1 PUSH2 0x2164 JUMP JUMPDEST JUMPDEST DUP2 PUSH1 0x2 DUP2 GT ISZERO PUSH2 0x8F5 JUMPI PUSH2 0x8F4 PUSH2 0x2164 JUMP JUMPDEST JUMPDEST EQ ISZERO DUP1 ISZERO PUSH2 0x928 JUMPI POP PUSH1 0x0 PUSH1 0x2 DUP2 GT ISZERO PUSH2 0x912 JUMPI PUSH2 0x911 PUSH2 0x2164 JUMP JUMPDEST JUMPDEST DUP2 PUSH1 0x2 DUP2 GT ISZERO PUSH2 0x925 JUMPI PUSH2 0x924 PUSH2 0x2164 JUMP JUMPDEST JUMPDEST EQ ISZERO JUMPDEST DUP1 ISZERO PUSH2 0x958 JUMPI POP PUSH1 0x2 DUP1 DUP2 GT ISZERO PUSH2 0x942 JUMPI PUSH2 0x941 PUSH2 0x2164 JUMP JUMPDEST JUMPDEST DUP2 PUSH1 0x2 DUP2 GT ISZERO PUSH2 0x955 JUMPI PUSH2 0x954 PUSH2 0x2164 JUMP JUMPDEST JUMPDEST EQ ISZERO JUMPDEST ISZERO PUSH2 0x998 JUMPI PUSH1 0x40 MLOAD PUSH32 0x8C379A000000000000000000000000000000000000000000000000000000000 DUP2 MSTORE PUSH1 0x4 ADD PUSH2 0x98F SWAP1 PUSH2 0x21F0 JUMP JUMPDEST PUSH1 0x40 MLOAD DUP1 SWAP2 SUB SWAP1 REVERT JUMPDEST PUSH1 0x0 PUSH1 0x5 PUSH1 0x0 DUP7 DUP2 MSTORE PUSH1 0x20 ADD SWAP1 DUP2 MSTORE PUSH1 0x20 ADD PUSH1 0x0 KECCAK256 PUSH1 0x40 MLOAD DUP1 PUSH2 0x120 ADD PUSH1 0x40 MSTORE SWAP1 DUP2 PUSH1 0x0 DUP3 ADD SLOAD DUP2 MSTORE PUSH1 0x20 ADD PUSH1 0x1 DUP3 ADD PUSH1 0x0 SWAP1 SLOAD SWAP1 PUSH2 0x100 EXP SWAP1 DIV PUSH20 0xFFFFFFFFFFFFFFFFFFFFFFFFFFFFFFFFFFFFFFFF AND PUSH20 0xFFFFFFFFFFFFFFFFFFFFFFFFFFFFFFFFFFFFFFFF AND PUSH20 0xFFFFFFFFFFFFFFFFFFFFFFFFFFFFFFFFFFFFFFFF AND DUP2 MSTORE PUSH1 0x20 ADD PUSH1 0x2 DUP3 ADD DUP1 SLOAD PUSH2 0xA29 SWAP1 PUSH2 0x22AD JUMP JUMPDEST DUP1 PUSH1 0x1F ADD PUSH1 0x20 DUP1 SWAP2 DIV MUL PUSH1 0x20 ADD PUSH1 0x40 MLOAD SWAP1 DUP2 ADD PUSH1 0x40 MSTORE DUP1 SWAP3 SWAP2 SWAP1 DUP2 DUP2 MSTORE PUSH1 0x20 ADD DUP3 DUP1 SLOAD PUSH2 0xA55 SWAP1 PUSH2 0x22AD JUMP JUMPDEST DUP1 ISZERO PUSH2 0xAA2 JUMPI DUP1 PUSH1 0x1F LT PUSH2 0xA77 JUMPI PUSH2 0x100 DUP1 DUP4 SLOAD DIV MUL DUP4 MSTORE SWAP2 PUSH1 0x20 ADD SWAP2 PUSH2 0xAA2 JUMP JUMPDEST DUP3 ADD SWAP2 SWAP1 PUSH1 0x0 MSTORE PUSH1 0x20 PUSH1 0x0 KECCAK256 SWAP1 JUMPDEST DUP2 SLOAD DUP2 MSTORE SWAP1 PUSH1 0x1 ADD SWAP1 PUSH1 0x20 ADD DUP1 DUP4 GT PUSH2 0xA85 JUMPI DUP3 SWAP1 SUB PUSH1 0x1F AND DUP3 ADD SWAP2 JUMPDEST POP POP POP POP POP DUP2 MSTORE PUSH1 0x20 ADD PUSH1 0x3 DUP3 ADD SLOAD DUP2 MSTORE PUSH1 0x20 ADD PUSH1 0x4 DUP3 ADD SLOAD DUP2 MSTORE PUSH1 0x20 ADD PUSH1 0x5 DUP3 ADD SLOAD DUP2 MSTORE PUSH1 0x20 ADD PUSH1 0x6 DUP3 ADD SLOAD DUP2 MSTORE PUSH1 0x20 ADD PUSH1 0x7 DUP3 ADD PUSH1 0x0 SWAP1 SLOAD SWAP1 PUSH2 0x100 EXP SWAP1 DIV PUSH1 0xFF AND ISZERO ISZERO ISZERO ISZERO DUP2 MSTORE PUSH1 0x20 ADD PUSH1 0x7 DUP3 ADD PUSH1 0x1 SWAP1 SLOAD SWAP1 PUSH2 0x100 EXP SWAP1 DIV PUSH1 0xFF AND ISZERO ISZERO ISZERO ISZERO DUP2 MSTORE POP POP SWAP1 POP PUSH1 0x2 DUP1 DUP2 GT ISZERO PUSH2 0xB1E JUMPI PUSH2 0xB1D PUSH2 0x2164 JUMP JUMPDEST JUMPDEST DUP3 PUSH1 0x2 DUP2 GT ISZERO PUSH2 0xB31 JUMPI PUSH2 0xB30 PUSH2 0x2164 JUMP JUMPDEST JUMPDEST EQ DUP1 ISZERO PUSH2 0xB6E JUMPI POP CALLER PUSH20 0xFFFFFFFFFFFFFFFFFFFFFFFFFFFFFFFFFFFFFFFF AND DUP2 PUSH1 0x20 ADD MLOAD PUSH20 0xFFFFFFFFFFFFFFFFFFFFFFFFFFFFFFFFFFFFFFFF AND EQ ISZERO JUMPDEST ISZERO PUSH2 0xBAE JUMPI PUSH1 0x40 MLOAD PUSH32 0x8C379A000000000000000000000000000000000000000000000000000000000 DUP2 MSTORE PUSH1 0x4 ADD PUSH2 0xBA5 SWAP1 PUSH2 0x21F0 JUMP JUMPDEST PUSH1 0x40 MLOAD DUP1 SWAP2 SUB SWAP1 REVERT JUMPDEST PUSH1 0x0 DUP2 PUSH2 0x100 ADD SWAP1 ISZERO ISZERO SWAP1 DUP2 ISZERO ISZERO DUP2 MSTORE POP POP DUP1 PUSH1 0x5 PUSH1 0x0 DUP8 DUP2 MSTORE PUSH1 0x20 ADD SWAP1 DUP2 MSTORE PUSH1 0x20 ADD PUSH1 0x0 KECCAK256 PUSH1 0x0 DUP3 ADD MLOAD DUP2 PUSH1 0x0 ADD SSTORE PUSH1 0x20 DUP3 ADD MLOAD DUP2 PUSH1 0x1 ADD PUSH1 0x0 PUSH2 0x100 EXP DUP2 SLOAD DUP2 PUSH20 0xFFFFFFFFFFFFFFFFFFFFFFFFFFFFFFFFFFFFFFFF MUL NOT AND SWAP1 DUP4 PUSH20 0xFFFFFFFFFFFFFFFFFFFFFFFFFFFFFFFFFFFFFFFF AND MUL OR SWAP1 SSTORE POP PUSH1 0x40 DUP3 ADD MLOAD DUP2 PUSH1 0x2 ADD SWAP1 DUP2 PUSH2 0xC3A SWAP2 SWAP1 PUSH2 0x2480 JUMP JUMPDEST POP PUSH1 0x60 DUP3 ADD MLOAD DUP2 PUSH1 0x3 ADD SSTORE PUSH1 0x80 DUP3 ADD MLOAD DUP2 PUSH1 0x4 ADD SSTORE PUSH1 0xA0 DUP3 ADD MLOAD DUP2 PUSH1 0x5 ADD SSTORE PUSH1 0xC0 DUP3 ADD MLOAD DUP2 PUSH1 0x6 ADD SSTORE PUSH1 0xE0 DUP3 ADD MLOAD DUP2 PUSH1 0x7 ADD PUSH1 0x0 PUSH2 0x100 EXP DUP2 SLOAD DUP2 PUSH1 0xFF MUL NOT AND SWAP1 DUP4 ISZERO ISZERO MUL OR SWAP1 SSTORE POP PUSH2 0x100 DUP3 ADD MLOAD DUP2 PUSH1 0x7 ADD PUSH1 0x1 PUSH2 0x100 EXP DUP2 SLOAD DUP2 PUSH1 0xFF MUL NOT AND SWAP1 DUP4 ISZERO ISZERO MUL OR SWAP1 SSTORE POP SWAP1 POP POP POP POP POP POP POP JUMP JUMPDEST PUSH2 0xCB6 PUSH2 0x1908 JUMP JUMPDEST PUSH1 0x5 PUSH1 0x0 DUP4 DUP2 MSTORE PUSH1 0x20 ADD SWAP1 DUP2 MSTORE PUSH1 0x20 ADD PUSH1 0x0 KECCAK256 PUSH1 0x40 MLOAD DUP1 PUSH2 0x120 ADD PUSH1 0x40 MSTORE SWAP1 DUP2 PUSH1 0x0 DUP3 ADD SLOAD DUP2 MSTORE PUSH1 0x20 ADD PUSH1 0x1 DUP3 ADD PUSH1 0x0 SWAP1 SLOAD SWAP1 PUSH2 0x100 EXP SWAP1 DIV PUSH20 0xFFFFFFFFFFFFFFFFFFFFFFFFFFFFFFFFFFFFFFFF AND PUSH20 0xFFFFFFFFFFFFFFFFFFFFFFFFFFFFFFFFFFFFFFFF AND PUSH20 0xFFFFFFFFFFFFFFFFFFFFFFFFFFFFFFFFFFFFFFFF AND DUP2 MSTORE PUSH1 0x20 ADD PUSH1 0x2 DUP3 ADD DUP1 SLOAD PUSH2 0xD45 SWAP1 PUSH2 0x22AD JUMP JUMPDEST DUP1 PUSH1 0x1F ADD PUSH1 0x20 DUP1 SWAP2 DIV MUL PUSH1 0x20 ADD PUSH1 0x40 MLOAD SWAP1 DUP2 ADD PUSH1 0x40 MSTORE DUP1 SWAP3 SWAP2 SWAP1 DUP2 DUP2 MSTORE PUSH1 0x20 ADD DUP3 DUP1 SLOAD PUSH2 0xD71 SWAP1 PUSH2 0x22AD JUMP JUMPDEST DUP1 ISZERO PUSH2 0xDBE JUMPI DUP1 PUSH1 0x1F LT PUSH2 0xD93 JUMPI PUSH2 0x100 DUP1 DUP4 SLOAD DIV MUL DUP4 MSTORE SWAP2 PUSH1 0x20 ADD SWAP2 PUSH2 0xDBE JUMP JUMPDEST DUP3 ADD SWAP2 SWAP1 PUSH1 0x0 MSTORE PUSH1 0x20 PUSH1 0x0 KECCAK256 SWAP1 JUMPDEST DUP2 SLOAD DUP2 MSTORE SWAP1 PUSH1 0x1 ADD SWAP1 PUSH1 0x20 ADD DUP1 DUP4 GT PUSH2 0xDA1 JUMPI DUP3 SWAP1 SUB PUSH1 0x1F AND DUP3 ADD SWAP2 JUMPDEST POP POP POP POP POP DUP2 MSTORE PUSH1 0x20 ADD PUSH1 0x3 DUP3 ADD SLOAD DUP2 MSTORE PUSH1 0x20 ADD PUSH1 0x4 DUP3 ADD SLOAD DUP2 MSTORE PUSH1 0x20 ADD PUSH1 0x5 DUP3 ADD SLOAD DUP2 MSTORE PUSH1 0x20 ADD PUSH1 0x6 DUP3 ADD SLOAD DUP2 MSTORE PUSH1 0x20 ADD PUSH1 0x7 DUP3 ADD PUSH1 0x0 SWAP1 SLOAD SWAP1 PUSH2 0x100 EXP SWAP1 DIV PUSH1 0xFF AND ISZERO ISZERO ISZERO ISZERO DUP2 MSTORE PUSH1 0x20 ADD PUSH1 0x7 DUP3 ADD PUSH1 0x1 SWAP1 SLOAD SWAP1 PUSH2 0x100 EXP SWAP1 DIV PUSH1 0xFF AND ISZERO ISZERO ISZERO ISZERO DUP2 MSTORE POP POP SWAP1 POP SWAP2 SWAP1 POP JUMP JUMPDEST PUSH1 0x0 DUP1 SLOAD SWAP1 PUSH2 0x100 EXP SWAP1 DIV PUSH20 0xFFFFFFFFFFFFFFFFFFFFFFFFFFFFFFFFFFFFFFFF AND DUP2 JUMP JUMPDEST PUSH1 0x1 PUSH1 0x0 SWAP1 SLOAD SWAP1 PUSH2 0x100 EXP SWAP1 DIV PUSH20 0xFFFFFFFFFFFFFFFFFFFFFFFFFFFFFFFFFFFFFFFF AND DUP2 JUMP JUMPDEST CALLER PUSH20 0xFFFFFFFFFFFFFFFFFFFFFFFFFFFFFFFFFFFFFFFF AND PUSH1 0x0 DUP1 SLOAD SWAP1 PUSH2 0x100 EXP SWAP1 DIV PUSH20 0xFFFFFFFFFFFFFFFFFFFFFFFFFFFFFFFFFFFFFFFF AND PUSH20 0xFFFFFFFFFFFFFFFFFFFFFFFFFFFFFFFFFFFFFFFF AND PUSH4 0x1F29D2DC DUP6 DUP8 PUSH1 0x40 MLOAD DUP4 PUSH4 0xFFFFFFFF AND PUSH1 0xE0 SHL DUP2 MSTORE PUSH1 0x4 ADD PUSH2 0xEE8 SWAP3 SWAP2 SWAP1 PUSH2 0x2731 JUMP JUMPDEST PUSH1 0x20 PUSH1 0x40 MLOAD DUP1 DUP4 SUB DUP2 DUP7 GAS STATICCALL ISZERO DUP1 ISZERO PUSH2 0xF05 JUMPI RETURNDATASIZE PUSH1 0x0 DUP1 RETURNDATACOPY RETURNDATASIZE PUSH1 0x0 REVERT JUMPDEST POP POP POP POP PUSH1 0x40 MLOAD RETURNDATASIZE PUSH1 0x1F NOT PUSH1 0x1F DUP3 ADD AND DUP3 ADD DUP1 PUSH1 0x40 MSTORE POP DUP2 ADD SWAP1 PUSH2 0xF29 SWAP2 SWAP1 PUSH2 0x2698 JUMP JUMPDEST PUSH20 0xFFFFFFFFFFFFFFFFFFFFFFFFFFFFFFFFFFFFFFFF AND EQ PUSH2 0xF7F JUMPI PUSH1 0x40 MLOAD PUSH32 0x8C379A000000000000000000000000000000000000000000000000000000000 DUP2 MSTORE PUSH1 0x4 ADD PUSH2 0xF76 SWAP1 PUSH2 0x27A6 JUMP JUMPDEST PUSH1 0x40 MLOAD DUP1 SWAP2 SUB SWAP1 REVERT JUMPDEST PUSH1 0x3 PUSH1 0x0 CALLER PUSH20 0xFFFFFFFFFFFFFFFFFFFFFFFFFFFFFFFFFFFFFFFF AND PUSH20 0xFFFFFFFFFFFFFFFFFFFFFFFFFFFFFFFFFFFFFFFF AND DUP2 MSTORE PUSH1 0x20 ADD SWAP1 DUP2 MSTORE PUSH1 0x20 ADD PUSH1 0x0 KECCAK256 PUSH1 0x0 DUP3 DUP2 MSTORE PUSH1 0x20 ADD SWAP1 DUP2 MSTORE PUSH1 0x20 ADD PUSH1 0x0 KECCAK256 PUSH1 0x0 SWAP1 SLOAD SWAP1 PUSH2 0x100 EXP SWAP1 DIV PUSH1 0xFF AND ISZERO PUSH2 0x101D JUMPI PUSH1 0x40 MLOAD PUSH32 0x8C379A000000000000000000000000000000000000000000000000000000000 DUP2 MSTORE PUSH1 0x4 ADD PUSH2 0x1014 SWAP1 PUSH2 0x2812 JUMP JUMPDEST PUSH1 0x40 MLOAD DUP1 SWAP2 SUB SWAP1 REVERT JUMPDEST PUSH1 0x0 PUSH1 0x2 PUSH1 0x0 DUP7 DUP2 MSTORE PUSH1 0x20 ADD SWAP1 DUP2 MSTORE PUSH1 0x20 ADD PUSH1 0x0 KECCAK256 PUSH1 0x0 SWAP1 SLOAD SWAP1 PUSH2 0x100 EXP SWAP1 DIV PUSH1 0xFF AND SWAP1 POP PUSH1 0x1 PUSH1 0x2 DUP2 GT ISZERO PUSH2 0x1056 JUMPI PUSH2 0x1055 PUSH2 0x2164 JUMP JUMPDEST JUMPDEST DUP2 PUSH1 0x2 DUP2 GT ISZERO PUSH2 0x1069 JUMPI PUSH2 0x1068 PUSH2 0x2164 JUMP JUMPDEST JUMPDEST EQ ISZERO DUP1 ISZERO PUSH2 0x109C JUMPI POP PUSH1 0x0 PUSH1 0x2 DUP2 GT ISZERO PUSH2 0x1086 JUMPI PUSH2 0x1085 PUSH2 0x2164 JUMP JUMPDEST JUMPDEST DUP2 PUSH1 0x2 DUP2 GT ISZERO PUSH2 0x1099 JUMPI PUSH2 0x1098 PUSH2 0x2164 JUMP JUMPDEST JUMPDEST EQ ISZERO JUMPDEST DUP1 ISZERO PUSH2 0x10CC JUMPI POP PUSH1 0x2 DUP1 DUP2 GT ISZERO PUSH2 0x10B6 JUMPI PUSH2 0x10B5 PUSH2 0x2164 JUMP JUMPDEST JUMPDEST DUP2 PUSH1 0x2 DUP2 GT ISZERO PUSH2 0x10C9 JUMPI PUSH2 0x10C8 PUSH2 0x2164 JUMP JUMPDEST JUMPDEST EQ ISZERO JUMPDEST ISZERO PUSH2 0x110C JUMPI PUSH1 0x40 MLOAD PUSH32 0x8C379A000000000000000000000000000000000000000000000000000000000 DUP2 MSTORE PUSH1 0x4 ADD PUSH2 0x1103 SWAP1 PUSH2 0x21F0 JUMP JUMPDEST PUSH1 0x40 MLOAD DUP1 SWAP2 SUB SWAP1 REVERT JUMPDEST PUSH1 0x0 PUSH1 0x5 PUSH1 0x0 DUP5 DUP2 MSTORE PUSH1 0x20 ADD SWAP1 DUP2 MSTORE PUSH1 0x20 ADD PUSH1 0x0 KECCAK256 PUSH1 0x40 MLOAD DUP1 PUSH2 0x120 ADD PUSH1 0x40 MSTORE SWAP1 DUP2 PUSH1 0x0 DUP3 ADD SLOAD DUP2 MSTORE PUSH1 0x20 ADD PUSH1 0x1 DUP3 ADD PUSH1 0x0 SWAP1 SLOAD SWAP1 PUSH2 0x100 EXP SWAP1 DIV PUSH20 0xFFFFFFFFFFFFFFFFFFFFFFFFFFFFFFFFFFFFFFFF AND PUSH20 0xFFFFFFFFFFFFFFFFFFFFFFFFFFFFFFFFFFFFFFFF AND PUSH20 0xFFFFFFFFFFFFFFFFFFFFFFFFFFFFFFFFFFFFFFFF AND DUP2 MSTORE PUSH1 0x20 ADD PUSH1 0x2 DUP3 ADD DUP1 SLOAD PUSH2 0x119D SWAP1 PUSH2 0x22AD JUMP JUMPDEST DUP1 PUSH1 0x1F ADD PUSH1 0x20 DUP1 SWAP2 DIV MUL PUSH1 0x20 ADD PUSH1 0x40 MLOAD SWAP1 DUP2 ADD PUSH1 0x40 MSTORE DUP1 SWAP3 SWAP2 SWAP1 DUP2 DUP2 MSTORE PUSH1 0x20 ADD DUP3 DUP1 SLOAD PUSH2 0x11C9 SWAP1 PUSH2 0x22AD JUMP JUMPDEST DUP1 ISZERO PUSH2 0x1216 JUMPI DUP1 PUSH1 0x1F LT PUSH2 0x11EB JUMPI PUSH2 0x100 DUP1 DUP4 SLOAD DIV MUL DUP4 MSTORE SWAP2 PUSH1 0x20 ADD SWAP2 PUSH2 0x1216 JUMP JUMPDEST DUP3 ADD SWAP2 SWAP1 PUSH1 0x0 MSTORE PUSH1 0x20 PUSH1 0x0 KECCAK256 SWAP1 JUMPDEST DUP2 SLOAD DUP2 MSTORE SWAP1 PUSH1 0x1 ADD SWAP1 PUSH1 0x20 ADD DUP1 DUP4 GT PUSH2 0x11F9 JUMPI DUP3 SWAP1 SUB PUSH1 0x1F AND DUP3 ADD SWAP2 JUMPDEST POP POP POP POP POP DUP2 MSTORE PUSH1 0x20 ADD PUSH1 0x3 DUP3 ADD SLOAD DUP2 MSTORE PUSH1 0x20 ADD PUSH1 0x4 DUP3 ADD SLOAD DUP2 MSTORE PUSH1 0x20 ADD PUSH1 0x5 DUP3 ADD SLOAD DUP2 MSTORE PUSH1 0x20 ADD PUSH1 0x6 DUP3 ADD SLOAD DUP2 MSTORE PUSH1 0x20 ADD PUSH1 0x7 DUP3 ADD PUSH1 0x0 SWAP1 SLOAD SWAP1 PUSH2 0x100 EXP SWAP1 DIV PUSH1 0xFF AND ISZERO ISZERO ISZERO ISZERO DUP2 MSTORE PUSH1 0x20 ADD PUSH1 0x7 DUP3 ADD PUSH1 0x1 SWAP1 SLOAD SWAP1 PUSH2 0x100 EXP SWAP1 DIV PUSH1 0xFF AND ISZERO ISZERO ISZERO ISZERO DUP2 MSTORE POP POP SWAP1 POP TIMESTAMP DUP2 PUSH1 0x80 ADD MLOAD LT ISZERO PUSH2 0x12C6 JUMPI PUSH1 0x40 MLOAD PUSH32 0x8C379A000000000000000000000000000000000000000000000000000000000 DUP2 MSTORE PUSH1 0x4 ADD PUSH2 0x12BD SWAP1 PUSH2 0x287E JUMP JUMPDEST PUSH1 0x40 MLOAD DUP1 SWAP2 SUB SWAP1 REVERT JUMPDEST DUP4 ISZERO PUSH2 0x12EB JUMPI PUSH1 0x1 DUP2 PUSH1 0xA0 ADD MLOAD PUSH2 0x12DD SWAP2 SWAP1 PUSH2 0x28CD JUMP JUMPDEST DUP2 PUSH1 0xA0 ADD DUP2 DUP2 MSTORE POP POP PUSH2 0x1306 JUMP JUMPDEST PUSH1 0x1 DUP2 PUSH1 0xC0 ADD MLOAD PUSH2 0x12FC SWAP2 SWAP1 PUSH2 0x28CD JUMP JUMPDEST DUP2 PUSH1 0xC0 ADD DUP2 DUP2 MSTORE POP POP JUMPDEST DUP1 PUSH1 0x5 PUSH1 0x0 PUSH1 0x4 SLOAD DUP2 MSTORE PUSH1 0x20 ADD SWAP1 DUP2 MSTORE PUSH1 0x20 ADD PUSH1 0x0 KECCAK256 PUSH1 0x0 DUP3 ADD MLOAD DUP2 PUSH1 0x0 ADD SSTORE PUSH1 0x20 DUP3 ADD MLOAD DUP2 PUSH1 0x1 ADD PUSH1 0x0 PUSH2 0x100 EXP DUP2 SLOAD DUP2 PUSH20 0xFFFFFFFFFFFFFFFFFFFFFFFFFFFFFFFFFFFFFFFF MUL NOT AND SWAP1 DUP4 PUSH20 0xFFFFFFFFFFFFFFFFFFFFFFFFFFFFFFFFFFFFFFFF AND MUL OR SWAP1 SSTORE POP PUSH1 0x40 DUP3 ADD MLOAD DUP2 PUSH1 0x2 ADD SWAP1 DUP2 PUSH2 0x1382 SWAP2 SWAP1 PUSH2 0x2480 JUMP JUMPDEST POP PUSH1 0x60 DUP3 ADD MLOAD DUP2 PUSH1 0x3 ADD SSTORE PUSH1 0x80 DUP3 ADD MLOAD DUP2 PUSH1 0x4 ADD SSTORE PUSH1 0xA0 DUP3 ADD MLOAD DUP2 PUSH1 0x5 ADD SSTORE PUSH1 0xC0 DUP3 ADD MLOAD DUP2 PUSH1 0x6 ADD SSTORE PUSH1 0xE0 DUP3 ADD MLOAD DUP2 PUSH1 0x7 ADD PUSH1 0x0 PUSH2 0x100 EXP DUP2 SLOAD DUP2 PUSH1 0xFF MUL NOT AND SWAP1 DUP4 ISZERO ISZERO MUL OR SWAP1 SSTORE POP PUSH2 0x100 DUP3 ADD MLOAD DUP2 PUSH1 0x7 ADD PUSH1 0x1 PUSH2 0x100 EXP DUP2 SLOAD DUP2 PUSH1 0xFF MUL NOT AND SWAP1 DUP4 ISZERO ISZERO MUL OR SWAP1 SSTORE POP SWAP1 POP POP PUSH1 0x1 PUSH1 0x3 PUSH1 0x0 CALLER PUSH20 0xFFFFFFFFFFFFFFFFFFFFFFFFFFFFFFFFFFFFFFFF AND PUSH20 0xFFFFFFFFFFFFFFFFFFFFFFFFFFFFFFFFFFFFFFFF AND DUP2 MSTORE PUSH1 0x20 ADD SWAP1 DUP2 MSTORE PUSH1 0x20 ADD PUSH1 0x0 KECCAK256 PUSH1 0x0 DUP6 DUP2 MSTORE PUSH1 0x20 ADD SWAP1 DUP2 MSTORE PUSH1 0x20 ADD PUSH1 0x0 KECCAK256 PUSH1 0x0 PUSH2 0x100 EXP DUP2 SLOAD DUP2 PUSH1 0xFF MUL NOT AND SWAP1 DUP4 ISZERO ISZERO MUL OR SWAP1 SSTORE POP POP POP POP POP POP POP JUMP JUMPDEST PUSH1 0x0 PUSH1 0x2 PUSH1 0x0 DUP5 DUP2 MSTORE PUSH1 0x20 ADD SWAP1 DUP2 MSTORE PUSH1 0x20 ADD PUSH1 0x0 KECCAK256 PUSH1 0x0 SWAP1 SLOAD SWAP1 PUSH2 0x100 EXP SWAP1 DIV PUSH1 0xFF AND SWAP1 POP CALLER PUSH20 0xFFFFFFFFFFFFFFFFFFFFFFFFFFFFFFFFFFFFFFFF AND PUSH1 0x0 DUP1 SLOAD SWAP1 PUSH2 0x100 EXP SWAP1 DIV PUSH20 0xFFFFFFFFFFFFFFFFFFFFFFFFFFFFFFFFFFFFFFFF AND PUSH20 0xFFFFFFFFFFFFFFFFFFFFFFFFFFFFFFFFFFFFFFFF AND PUSH4 0x3F916B48 DUP5 DUP7 PUSH2 0x14E3 DUP7 PUSH2 0x17E2 JUMP JUMPDEST PUSH1 0x40 MLOAD DUP5 PUSH4 0xFFFFFFFF AND PUSH1 0xE0 SHL DUP2 MSTORE PUSH1 0x4 ADD PUSH2 0x1501 SWAP4 SWAP3 SWAP2 SWAP1 PUSH2 0x2247 JUMP JUMPDEST PUSH1 0x20 PUSH1 0x40 MLOAD DUP1 DUP4 SUB DUP2 DUP7 GAS STATICCALL ISZERO DUP1 ISZERO PUSH2 0x151E JUMPI RETURNDATASIZE PUSH1 0x0 DUP1 RETURNDATACOPY RETURNDATASIZE PUSH1 0x0 REVERT JUMPDEST POP POP POP POP PUSH1 0x40 MLOAD RETURNDATASIZE PUSH1 0x1F NOT PUSH1 0x1F DUP3 ADD AND DUP3 ADD DUP1 PUSH1 0x40 MSTORE POP DUP2 ADD SWAP1 PUSH2 0x1542 SWAP2 SWAP1 PUSH2 0x2698 JUMP JUMPDEST PUSH20 0xFFFFFFFFFFFFFFFFFFFFFFFFFFFFFFFFFFFFFFFF AND EQ PUSH2 0x1598 JUMPI PUSH1 0x40 MLOAD PUSH32 0x8C379A000000000000000000000000000000000000000000000000000000000 DUP2 MSTORE PUSH1 0x4 ADD PUSH2 0x158F SWAP1 PUSH2 0x2711 JUMP JUMPDEST PUSH1 0x40 MLOAD DUP1 SWAP2 SUB SWAP1 REVERT JUMPDEST PUSH1 0x1 PUSH1 0x2 DUP2 GT ISZERO PUSH2 0x15AC JUMPI PUSH2 0x15AB PUSH2 0x2164 JUMP JUMPDEST JUMPDEST DUP2 PUSH1 0x2 DUP2 GT ISZERO PUSH2 0x15BF JUMPI PUSH2 0x15BE PUSH2 0x2164 JUMP JUMPDEST JUMPDEST EQ ISZERO DUP1 ISZERO PUSH2 0x15F2 JUMPI POP PUSH1 0x0 PUSH1 0x2 DUP2 GT ISZERO PUSH2 0x15DC JUMPI PUSH2 0x15DB PUSH2 0x2164 JUMP JUMPDEST JUMPDEST DUP2 PUSH1 0x2 DUP2 GT ISZERO PUSH2 0x15EF JUMPI PUSH2 0x15EE PUSH2 0x2164 JUMP JUMPDEST JUMPDEST EQ ISZERO JUMPDEST ISZERO PUSH2 0x1632 JUMPI PUSH1 0x40 MLOAD PUSH32 0x8C379A000000000000000000000000000000000000000000000000000000000 DUP2 MSTORE PUSH1 0x4 ADD PUSH2 0x1629 SWAP1 PUSH2 0x21F0 JUMP JUMPDEST PUSH1 0x40 MLOAD DUP1 SWAP2 SUB SWAP1 REVERT JUMPDEST TIMESTAMP DUP5 GT ISZERO PUSH2 0x1675 JUMPI PUSH1 0x40 MLOAD PUSH32 0x8C379A000000000000000000000000000000000000000000000000000000000 DUP2 MSTORE PUSH1 0x4 ADD PUSH2 0x166C SWAP1 PUSH2 0x294D JUMP JUMPDEST PUSH1 0x40 MLOAD DUP1 SWAP2 SUB SWAP1 REVERT JUMPDEST PUSH1 0x0 PUSH1 0x40 MLOAD DUP1 PUSH2 0x120 ADD PUSH1 0x40 MSTORE DUP1 PUSH1 0x4 SLOAD DUP2 MSTORE PUSH1 0x20 ADD CALLER PUSH20 0xFFFFFFFFFFFFFFFFFFFFFFFFFFFFFFFFFFFFFFFF AND DUP2 MSTORE PUSH1 0x20 ADD DUP8 DUP2 MSTORE PUSH1 0x20 ADD TIMESTAMP DUP2 MSTORE PUSH1 0x20 ADD DUP7 DUP2 MSTORE PUSH1 0x20 ADD PUSH1 0x0 DUP2 MSTORE PUSH1 0x20 ADD PUSH1 0x0 DUP2 MSTORE PUSH1 0x20 ADD PUSH1 0x0 ISZERO ISZERO DUP2 MSTORE PUSH1 0x20 ADD PUSH1 0x0 ISZERO ISZERO DUP2 MSTORE POP SWAP1 POP DUP1 PUSH1 0x5 PUSH1 0x0 PUSH1 0x4 SLOAD DUP2 MSTORE PUSH1 0x20 ADD SWAP1 DUP2 MSTORE PUSH1 0x20 ADD PUSH1 0x0 KECCAK256 PUSH1 0x0 DUP3 ADD MLOAD DUP2 PUSH1 0x0 ADD SSTORE PUSH1 0x20 DUP3 ADD MLOAD DUP2 PUSH1 0x1 ADD PUSH1 0x0 PUSH2 0x100 EXP DUP2 SLOAD DUP2 PUSH20 0xFFFFFFFFFFFFFFFFFFFFFFFFFFFFFFFFFFFFFFFF MUL NOT AND SWAP1 DUP4 PUSH20 0xFFFFFFFFFFFFFFFFFFFFFFFFFFFFFFFFFFFFFFFF AND MUL OR SWAP1 SSTORE POP PUSH1 0x40 DUP3 ADD MLOAD DUP2 PUSH1 0x2 ADD SWAP1 DUP2 PUSH2 0x1755 SWAP2 SWAP1 PUSH2 0x2480 JUMP JUMPDEST POP PUSH1 0x60 DUP3 ADD MLOAD DUP2 PUSH1 0x3 ADD SSTORE PUSH1 0x80 DUP3 ADD MLOAD DUP2 PUSH1 0x4 ADD SSTORE PUSH1 0xA0 DUP3 ADD MLOAD DUP2 PUSH1 0x5 ADD SSTORE PUSH1 0xC0 DUP3 ADD MLOAD DUP2 PUSH1 0x6 ADD SSTORE PUSH1 0xE0 DUP3 ADD MLOAD DUP2 PUSH1 0x7 ADD PUSH1 0x0 PUSH2 0x100 EXP DUP2 SLOAD DUP2 PUSH1 0xFF MUL NOT AND SWAP1 DUP4 ISZERO ISZERO MUL OR SWAP1 SSTORE POP PUSH2 0x100 DUP3 ADD MLOAD DUP2 PUSH1 0x7 ADD PUSH1 0x1 PUSH2 0x100 EXP DUP2 SLOAD DUP2 PUSH1 0xFF MUL NOT AND SWAP1 DUP4 ISZERO ISZERO MUL OR SWAP1 SSTORE POP SWAP1 POP POP PUSH1 0x4 PUSH1 0x0 DUP2 SLOAD DUP1 SWAP3 SWAP2 SWAP1 PUSH2 0x17D5 SWAP1 PUSH2 0x296D JUMP JUMPDEST SWAP2 SWAP1 POP SSTORE POP POP POP POP POP POP POP JUMP JUMPDEST PUSH1 0x0 PUSH1 0x1 PUSH1 0x2 DUP2 GT ISZERO PUSH2 0x17F8 JUMPI PUSH2 0x17F7 PUSH2 0x2164 JUMP JUMPDEST JUMPDEST DUP3 PUSH1 0x2 DUP2 GT ISZERO PUSH2 0x180B JUMPI PUSH2 0x180A PUSH2 0x2164 JUMP JUMPDEST JUMPDEST SUB PUSH2 0x1838 JUMPI PUSH32 0xC699D73F77226BA126F1306E93808AE59B0754C7E3C0C275F7423C77160A1E84 SWAP1 POP PUSH2 0x1903 JUMP JUMPDEST PUSH1 0x2 DUP1 DUP2 GT ISZERO PUSH2 0x184B JUMPI PUSH2 0x184A PUSH2 0x2164 JUMP JUMPDEST JUMPDEST DUP3 PUSH1 0x2 DUP2 GT ISZERO PUSH2 0x185E JUMPI PUSH2 0x185D PUSH2 0x2164 JUMP JUMPDEST JUMPDEST SUB PUSH2 0x188B JUMPI PUSH32 0xFFA60083152BD11704A80CC8C7A409DAD8AA74288B454A3BA0E94C0ABC7CF168 SWAP1 POP PUSH2 0x1903 JUMP JUMPDEST PUSH1 0x0 PUSH1 0x2 DUP2 GT ISZERO PUSH2 0x189F JUMPI PUSH2 0x189E PUSH2 0x2164 JUMP JUMPDEST JUMPDEST DUP3 PUSH1 0x2 DUP2 GT ISZERO PUSH2 0x18B2 JUMPI PUSH2 0x18B1 PUSH2 0x2164 JUMP JUMPDEST JUMPDEST SUB PUSH2 0x18DF JUMPI PUSH32 0x1A6838EFA4183E08FE3607359D1259272AF9D4716F65E1A7B5921F78FD5A3C6A SWAP1 POP PUSH2 0x1903 JUMP JUMPDEST PUSH32 0x1B489CCE9D784EC074D286492A1CCC9EFAB255C8A4E6B74D2406B5B7674C6E74 SWAP1 POP JUMPDEST SWAP2 SWAP1 POP JUMP JUMPDEST PUSH1 0x40 MLOAD DUP1 PUSH2 0x120 ADD PUSH1 0x40 MSTORE DUP1 PUSH1 0x0 DUP2 MSTORE PUSH1 0x20 ADD PUSH1 0x0 PUSH20 0xFFFFFFFFFFFFFFFFFFFFFFFFFFFFFFFFFFFFFFFF AND DUP2 MSTORE PUSH1 0x20 ADD PUSH1 0x60 DUP2 MSTORE PUSH1 0x20 ADD PUSH1 0x0 DUP2 MSTORE PUSH1 0x20 ADD PUSH1 0x0 DUP2 MSTORE PUSH1 0x20 ADD PUSH1 0x0 DUP2 MSTORE PUSH1 0x20 ADD PUSH1 0x0 DUP2 MSTORE PUSH1 0x20 ADD PUSH1 0x0 ISZERO ISZERO DUP2 MSTORE PUSH1 0x20 ADD PUSH1 0x0 ISZERO ISZERO DUP2 MSTORE POP SWAP1 JUMP JUMPDEST PUSH1 0x0 PUSH1 0x40 MLOAD SWAP1 POP SWAP1 JUMP JUMPDEST PUSH1 0x0 DUP1 REVERT JUMPDEST PUSH1 0x0 DUP1 REVERT JUMPDEST PUSH1 0x0 PUSH20 0xFFFFFFFFFFFFFFFFFFFFFFFFFFFFFFFFFFFFFFFF DUP3 AND SWAP1 POP SWAP2 SWAP1 POP JUMP JUMPDEST PUSH1 0x0 PUSH2 0x19AD DUP3 PUSH2 0x1982 JUMP JUMPDEST SWAP1 POP SWAP2 SWAP1 POP JUMP JUMPDEST PUSH2 0x19BD DUP2 PUSH2 0x19A2 JUMP JUMPDEST DUP2 EQ PUSH2 0x19C8 JUMPI PUSH1 0x0 DUP1 REVERT JUMPDEST POP JUMP JUMPDEST PUSH1 0x0 DUP2 CALLDATALOAD SWAP1 POP PUSH2 0x19DA DUP2 PUSH2 0x19B4 JUMP JUMPDEST SWAP3 SWAP2 POP POP JUMP JUMPDEST PUSH1 0x0 DUP2 SWAP1 POP SWAP2 SWAP1 POP JUMP JUMPDEST PUSH2 0x19F3 DUP2 PUSH2 0x19E0 JUMP JUMPDEST DUP2 EQ PUSH2 0x19FE JUMPI PUSH1 0x0 DUP1 REVERT JUMPDEST POP JUMP JUMPDEST PUSH1 0x0 DUP2 CALLDATALOAD SWAP1 POP PUSH2 0x1A10 DUP2 PUSH2 0x19EA JUMP JUMPDEST SWAP3 SWAP2 POP POP JUMP JUMPDEST PUSH1 0x0 DUP1 PUSH1 0x40 DUP4 DUP6 SUB SLT ISZERO PUSH2 0x1A2D JUMPI PUSH2 0x1A2C PUSH2 0x1978 JUMP JUMPDEST JUMPDEST PUSH1 0x0 PUSH2 0x1A3B DUP6 DUP3 DUP7 ADD PUSH2 0x19CB JUMP JUMPDEST SWAP3 POP POP PUSH1 0x20 PUSH2 0x1A4C DUP6 DUP3 DUP7 ADD PUSH2 0x1A01 JUMP JUMPDEST SWAP2 POP POP SWAP3 POP SWAP3 SWAP1 POP JUMP JUMPDEST PUSH1 0x0 DUP2 ISZERO ISZERO SWAP1 POP SWAP2 SWAP1 POP JUMP JUMPDEST PUSH2 0x1A6B DUP2 PUSH2 0x1A56 JUMP JUMPDEST DUP2 EQ PUSH2 0x1A76 JUMPI PUSH1 0x0 DUP1 REVERT JUMPDEST POP JUMP JUMPDEST PUSH1 0x0 DUP2 CALLDATALOAD SWAP1 POP PUSH2 0x1A88 DUP2 PUSH2 0x1A62 JUMP JUMPDEST SWAP3 SWAP2 POP POP JUMP JUMPDEST PUSH1 0x0 DUP1 PUSH1 0x0 PUSH1 0x60 DUP5 DUP7 SUB SLT ISZERO PUSH2 0x1AA7 JUMPI PUSH2 0x1AA6 PUSH2 0x1978 JUMP JUMPDEST JUMPDEST PUSH1 0x0 PUSH2 0x1AB5 DUP7 DUP3 DUP8 ADD PUSH2 0x1A01 JUMP JUMPDEST SWAP4 POP POP PUSH1 0x20 PUSH2 0x1AC6 DUP7 DUP3 DUP8 ADD PUSH2 0x1A79 JUMP JUMPDEST SWAP3 POP POP PUSH1 0x40 PUSH2 0x1AD7 DUP7 DUP3 DUP8 ADD PUSH2 0x1A01 JUMP JUMPDEST SWAP2 POP POP SWAP3 POP SWAP3 POP SWAP3 JUMP JUMPDEST PUSH1 0x0 PUSH8 0xFFFFFFFFFFFFFFFF DUP3 AND SWAP1 POP SWAP2 SWAP1 POP JUMP JUMPDEST PUSH2 0x1AFE DUP2 PUSH2 0x1AE1 JUMP JUMPDEST DUP2 EQ PUSH2 0x1B09 JUMPI PUSH1 0x0 DUP1 REVERT JUMPDEST POP JUMP JUMPDEST PUSH1 0x0 DUP2 CALLDATALOAD SWAP1 POP PUSH2 0x1B1B DUP2 PUSH2 0x1AF5 JUMP JUMPDEST SWAP3 SWAP2 POP POP JUMP JUMPDEST PUSH1 0x0 DUP1 REVERT JUMPDEST PUSH1 0x0 DUP1 REVERT JUMPDEST PUSH1 0x0 PUSH1 0x1F NOT PUSH1 0x1F DUP4 ADD AND SWAP1 POP SWAP2 SWAP1 POP JUMP JUMPDEST PUSH32 0x4E487B7100000000000000000000000000000000000000000000000000000000 PUSH1 0x0 MSTORE PUSH1 0x41 PUSH1 0x4 MSTORE PUSH1 0x24 PUSH1 0x0 REVERT JUMPDEST PUSH2 0x1B74 DUP3 PUSH2 0x1B2B JUMP JUMPDEST DUP2 ADD DUP2 DUP2 LT PUSH8 0xFFFFFFFFFFFFFFFF DUP3 GT OR ISZERO PUSH2 0x1B93 JUMPI PUSH2 0x1B92 PUSH2 0x1B3C JUMP JUMPDEST JUMPDEST DUP1 PUSH1 0x40 MSTORE POP POP POP JUMP JUMPDEST PUSH1 0x0 PUSH2 0x1BA6 PUSH2 0x196E JUMP JUMPDEST SWAP1 POP PUSH2 0x1BB2 DUP3 DUP3 PUSH2 0x1B6B JUMP JUMPDEST SWAP2 SWAP1 POP JUMP JUMPDEST PUSH1 0x0 PUSH8 0xFFFFFFFFFFFFFFFF DUP3 GT ISZERO PUSH2 0x1BD2 JUMPI PUSH2 0x1BD1 PUSH2 0x1B3C JUMP JUMPDEST JUMPDEST PUSH2 0x1BDB DUP3 PUSH2 0x1B2B JUMP JUMPDEST SWAP1 POP PUSH1 0x20 DUP2 ADD SWAP1 POP SWAP2 SWAP1 POP JUMP JUMPDEST DUP3 DUP2 DUP4 CALLDATACOPY PUSH1 0x0 DUP4 DUP4 ADD MSTORE POP POP POP JUMP JUMPDEST PUSH1 0x0 PUSH2 0x1C0A PUSH2 0x1C05 DUP5 PUSH2 0x1BB7 JUMP JUMPDEST PUSH2 0x1B9C JUMP JUMPDEST SWAP1 POP DUP3 DUP2 MSTORE PUSH1 0x20 DUP2 ADD DUP5 DUP5 DUP5 ADD GT ISZERO PUSH2 0x1C26 JUMPI PUSH2 0x1C25 PUSH2 0x1B26 JUMP JUMPDEST JUMPDEST PUSH2 0x1C31 DUP5 DUP3 DUP6 PUSH2 0x1BE8 JUMP JUMPDEST POP SWAP4 SWAP3 POP POP POP JUMP JUMPDEST PUSH1 0x0 DUP3 PUSH1 0x1F DUP4 ADD SLT PUSH2 0x1C4E JUMPI PUSH2 0x1C4D PUSH2 0x1B21 JUMP JUMPDEST JUMPDEST DUP2 CALLDATALOAD PUSH2 0x1C5E DUP5 DUP3 PUSH1 0x20 DUP7 ADD PUSH2 0x1BF7 JUMP JUMPDEST SWAP2 POP POP SWAP3 SWAP2 POP POP JUMP JUMPDEST PUSH1 0x0 DUP1 PUSH1 0x0 DUP1 PUSH1 0x0 DUP1 PUSH1 0xC0 DUP8 DUP10 SUB SLT ISZERO PUSH2 0x1C84 JUMPI PUSH2 0x1C83 PUSH2 0x1978 JUMP JUMPDEST JUMPDEST PUSH1 0x0 PUSH2 0x1C92 DUP10 DUP3 DUP11 ADD PUSH2 0x19CB JUMP JUMPDEST SWAP7 POP POP PUSH1 0x20 PUSH2 0x1CA3 DUP10 DUP3 DUP11 ADD PUSH2 0x19CB JUMP JUMPDEST SWAP6 POP POP PUSH1 0x40 PUSH2 0x1CB4 DUP10 DUP3 DUP11 ADD PUSH2 0x1A01 JUMP JUMPDEST SWAP5 POP POP PUSH1 0x60 PUSH2 0x1CC5 DUP10 DUP3 DUP11 ADD PUSH2 0x1B0C JUMP JUMPDEST SWAP4 POP POP PUSH1 0x80 PUSH2 0x1CD6 DUP10 DUP3 DUP11 ADD PUSH2 0x1A79 JUMP JUMPDEST SWAP3 POP POP PUSH1 0xA0 DUP8 ADD CALLDATALOAD PUSH8 0xFFFFFFFFFFFFFFFF DUP2 GT ISZERO PUSH2 0x1CF7 JUMPI PUSH2 0x1CF6 PUSH2 0x197D JUMP JUMPDEST JUMPDEST PUSH2 0x1D03 DUP10 DUP3 DUP11 ADD PUSH2 0x1C39 JUMP JUMPDEST SWAP2 POP POP SWAP3 SWAP6 POP SWAP3 SWAP6 POP SWAP3 SWAP6 JUMP JUMPDEST PUSH1 0x0 DUP1 PUSH1 0x0 PUSH1 0x60 DUP5 DUP7 SUB SLT ISZERO PUSH2 0x1D29 JUMPI PUSH2 0x1D28 PUSH2 0x1978 JUMP JUMPDEST JUMPDEST PUSH1 0x0 PUSH2 0x1D37 DUP7 DUP3 DUP8 ADD PUSH2 0x1A01 JUMP JUMPDEST SWAP4 POP POP PUSH1 0x20 PUSH2 0x1D48 DUP7 DUP3 DUP8 ADD PUSH2 0x19CB JUMP JUMPDEST SWAP3 POP POP PUSH1 0x40 PUSH2 0x1D59 DUP7 DUP3 DUP8 ADD PUSH2 0x1A01 JUMP JUMPDEST SWAP2 POP POP SWAP3 POP SWAP3 POP SWAP3 JUMP JUMPDEST PUSH1 0x0 PUSH1 0x20 DUP3 DUP5 SUB SLT ISZERO PUSH2 0x1D79 JUMPI PUSH2 0x1D78 PUSH2 0x1978 JUMP JUMPDEST JUMPDEST PUSH1 0x0 PUSH2 0x1D87 DUP5 DUP3 DUP6 ADD PUSH2 0x1A01 JUMP JUMPDEST SWAP2 POP POP SWAP3 SWAP2 POP POP JUMP JUMPDEST PUSH2 0x1D99 DUP2 PUSH2 0x19E0 JUMP JUMPDEST DUP3 MSTORE POP POP JUMP JUMPDEST PUSH2 0x1DA8 DUP2 PUSH2 0x19A2 JUMP JUMPDEST DUP3 MSTORE POP POP JUMP JUMPDEST PUSH1 0x0 DUP2 MLOAD SWAP1 POP SWAP2 SWAP1 POP JUMP JUMPDEST PUSH1 0x0 DUP3 DUP3 MSTORE PUSH1 0x20 DUP3 ADD SWAP1 POP SWAP3 SWAP2 POP POP JUMP JUMPDEST PUSH1 0x0 JUMPDEST DUP4 DUP2 LT ISZERO PUSH2 0x1DE8 JUMPI DUP1 DUP3 ADD MLOAD DUP2 DUP5 ADD MSTORE PUSH1 0x20 DUP2 ADD SWAP1 POP PUSH2 0x1DCD JUMP JUMPDEST PUSH1 0x0 DUP5 DUP5 ADD MSTORE POP POP POP POP JUMP JUMPDEST PUSH1 0x0 PUSH2 0x1DFF DUP3 PUSH2 0x1DAE JUMP JUMPDEST PUSH2 0x1E09 DUP2 DUP6 PUSH2 0x1DB9 JUMP JUMPDEST SWAP4 POP PUSH2 0x1E19 DUP2 DUP6 PUSH1 0x20 DUP7 ADD PUSH2 0x1DCA JUMP JUMPDEST PUSH2 0x1E22 DUP2 PUSH2 0x1B2B JUMP JUMPDEST DUP5 ADD SWAP2 POP POP SWAP3 SWAP2 POP POP JUMP JUMPDEST PUSH2 0x1E36 DUP2 PUSH2 0x1A56 JUMP JUMPDEST DUP3 MSTORE POP POP JUMP JUMPDEST PUSH1 0x0 PUSH2 0x120 DUP4 ADD PUSH1 0x0 DUP4 ADD MLOAD PUSH2 0x1E55 PUSH1 0x0 DUP7 ADD DUP3 PUSH2 0x1D90 JUMP JUMPDEST POP PUSH1 0x20 DUP4 ADD MLOAD PUSH2 0x1E68 PUSH1 0x20 DUP7 ADD DUP3 PUSH2 0x1D9F JUMP JUMPDEST POP PUSH1 0x40 DUP4 ADD MLOAD DUP5 DUP3 SUB PUSH1 0x40 DUP7 ADD MSTORE PUSH2 0x1E80 DUP3 DUP3 PUSH2 0x1DF4 JUMP JUMPDEST SWAP2 POP POP PUSH1 0x60 DUP4 ADD MLOAD PUSH2 0x1E95 PUSH1 0x60 DUP7 ADD DUP3 PUSH2 0x1D90 JUMP JUMPDEST POP PUSH1 0x80 DUP4 ADD MLOAD PUSH2 0x1EA8 PUSH1 0x80 DUP7 ADD DUP3 PUSH2 0x1D90 JUMP JUMPDEST POP PUSH1 0xA0 DUP4 ADD MLOAD PUSH2 0x1EBB PUSH1 0xA0 DUP7 ADD DUP3 PUSH2 0x1D90 JUMP JUMPDEST POP PUSH1 0xC0 DUP4 ADD MLOAD PUSH2 0x1ECE PUSH1 0xC0 DUP7 ADD DUP3 PUSH2 0x1D90 JUMP JUMPDEST POP PUSH1 0xE0 DUP4 ADD MLOAD PUSH2 0x1EE1 PUSH1 0xE0 DUP7 ADD DUP3 PUSH2 0x1E2D JUMP JUMPDEST POP PUSH2 0x100 DUP4 ADD MLOAD PUSH2 0x1EF6 PUSH2 0x100 DUP7 ADD DUP3 PUSH2 0x1E2D JUMP JUMPDEST POP DUP1 SWAP2 POP POP SWAP3 SWAP2 POP POP JUMP JUMPDEST PUSH1 0x0 PUSH1 0x20 DUP3 ADD SWAP1 POP DUP2 DUP2 SUB PUSH1 0x0 DUP4 ADD MSTORE PUSH2 0x1F1B DUP2 DUP5 PUSH2 0x1E3C JUMP JUMPDEST SWAP1 POP SWAP3 SWAP2 POP POP JUMP JUMPDEST PUSH1 0x0 DUP2 SWAP1 POP SWAP2 SWAP1 POP JUMP JUMPDEST PUSH1 0x0 PUSH2 0x1F48 PUSH2 0x1F43 PUSH2 0x1F3E DUP5 PUSH2 0x1982 JUMP JUMPDEST PUSH2 0x1F23 JUMP JUMPDEST PUSH2 0x1982 JUMP JUMPDEST SWAP1 POP SWAP2 SWAP1 POP JUMP JUMPDEST PUSH1 0x0 PUSH2 0x1F5A DUP3 PUSH2 0x1F2D JUMP JUMPDEST SWAP1 POP SWAP2 SWAP1 POP JUMP JUMPDEST PUSH1 0x0 PUSH2 0x1F6C DUP3 PUSH2 0x1F4F JUMP JUMPDEST SWAP1 POP SWAP2 SWAP1 POP JUMP JUMPDEST PUSH2 0x1F7C DUP2 PUSH2 0x1F61 JUMP JUMPDEST DUP3 MSTORE POP POP JUMP JUMPDEST PUSH1 0x0 PUSH1 0x20 DUP3 ADD SWAP1 POP PUSH2 0x1F97 PUSH1 0x0 DUP4 ADD DUP5 PUSH2 0x1F73 JUMP JUMPDEST SWAP3 SWAP2 POP POP JUMP JUMPDEST PUSH1 0x0 PUSH2 0x1FA8 DUP3 PUSH2 0x1F4F JUMP JUMPDEST SWAP1 POP SWAP2 SWAP1 POP JUMP JUMPDEST PUSH2 0x1FB8 DUP2 PUSH2 0x1F9D JUMP JUMPDEST DUP3 MSTORE POP POP JUMP JUMPDEST PUSH1 0x0 PUSH1 0x20 DUP3 ADD SWAP1 POP PUSH2 0x1FD3 PUSH1 0x0 DUP4 ADD DUP5 PUSH2 0x1FAF JUMP JUMPDEST SWAP3 SWAP2 POP POP JUMP JUMPDEST PUSH1 0x0 DUP1 PUSH1 0x0 DUP1 PUSH1 0x80 DUP6 DUP8 SUB SLT ISZERO PUSH2 0x1FF3 JUMPI PUSH2 0x1FF2 PUSH2 0x1978 JUMP JUMPDEST JUMPDEST PUSH1 0x0 PUSH2 0x2001 DUP8 DUP3 DUP9 ADD PUSH2 0x1A01 JUMP JUMPDEST SWAP5 POP POP PUSH1 0x20 PUSH2 0x2012 DUP8 DUP3 DUP9 ADD PUSH2 0x19CB JUMP JUMPDEST SWAP4 POP POP PUSH1 0x40 PUSH2 0x2023 DUP8 DUP3 DUP9 ADD PUSH2 0x1A79 JUMP JUMPDEST SWAP3 POP POP PUSH1 0x60 PUSH2 0x2034 DUP8 DUP3 DUP9 ADD PUSH2 0x1A01 JUMP JUMPDEST SWAP2 POP POP SWAP3 SWAP6 SWAP2 SWAP5 POP SWAP3 POP JUMP JUMPDEST PUSH1 0x0 PUSH8 0xFFFFFFFFFFFFFFFF DUP3 GT ISZERO PUSH2 0x205B JUMPI PUSH2 0x205A PUSH2 0x1B3C JUMP JUMPDEST JUMPDEST PUSH2 0x2064 DUP3 PUSH2 0x1B2B JUMP JUMPDEST SWAP1 POP PUSH1 0x20 DUP2 ADD SWAP1 POP SWAP2 SWAP1 POP JUMP JUMPDEST PUSH1 0x0 PUSH2 0x2084 PUSH2 0x207F DUP5 PUSH2 0x2040 JUMP JUMPDEST PUSH2 0x1B9C JUMP JUMPDEST SWAP1 POP DUP3 DUP2 MSTORE PUSH1 0x20 DUP2 ADD DUP5 DUP5 DUP5 ADD GT ISZERO PUSH2 0x20A0 JUMPI PUSH2 0x209F PUSH2 0x1B26 JUMP JUMPDEST JUMPDEST PUSH2 0x20AB DUP5 DUP3 DUP6 PUSH2 0x1BE8 JUMP JUMPDEST POP SWAP4 SWAP3 POP POP POP JUMP JUMPDEST PUSH1 0x0 DUP3 PUSH1 0x1F DUP4 ADD SLT PUSH2 0x20C8 JUMPI PUSH2 0x20C7 PUSH2 0x1B21 JUMP JUMPDEST JUMPDEST DUP2 CALLDATALOAD PUSH2 0x20D8 DUP5 DUP3 PUSH1 0x20 DUP7 ADD PUSH2 0x2071 JUMP JUMPDEST SWAP2 POP POP SWAP3 SWAP2 POP POP JUMP JUMPDEST PUSH1 0x0 DUP1 PUSH1 0x0 DUP1 PUSH1 0x80 DUP6 DUP8 SUB SLT ISZERO PUSH2 0x20FB JUMPI PUSH2 0x20FA PUSH2 0x1978 JUMP JUMPDEST JUMPDEST PUSH1 0x0 DUP6 ADD CALLDATALOAD PUSH8 0xFFFFFFFFFFFFFFFF DUP2 GT ISZERO PUSH2 0x2119 JUMPI PUSH2 0x2118 PUSH2 0x197D JUMP JUMPDEST JUMPDEST PUSH2 0x2125 DUP8 DUP3 DUP9 ADD PUSH2 0x20B3 JUMP JUMPDEST SWAP5 POP POP PUSH1 0x20 PUSH2 0x2136 DUP8 DUP3 DUP9 ADD PUSH2 0x1A01 JUMP JUMPDEST SWAP4 POP POP PUSH1 0x40 PUSH2 0x2147 DUP8 DUP3 DUP9 ADD PUSH2 0x1A01 JUMP JUMPDEST SWAP3 POP POP PUSH1 0x60 PUSH2 0x2158 DUP8 DUP3 DUP9 ADD PUSH2 0x19CB JUMP JUMPDEST SWAP2 POP POP SWAP3 SWAP6 SWAP2 SWAP5 POP SWAP3 POP JUMP JUMPDEST PUSH32 0x4E487B7100000000000000000000000000000000000000000000000000000000 PUSH1 0x0 MSTORE PUSH1 0x21 PUSH1 0x4 MSTORE PUSH1 0x24 PUSH1 0x0 REVERT JUMPDEST PUSH1 0x0 DUP3 DUP3 MSTORE PUSH1 0x20 DUP3 ADD SWAP1 POP SWAP3 SWAP2 POP POP JUMP JUMPDEST PUSH32 0x4E4F545F415554484F52495A4544000000000000000000000000000000000000 PUSH1 0x0 DUP3 ADD MSTORE POP JUMP JUMPDEST PUSH1 0x0 PUSH2 0x21DA PUSH1 0xE DUP4 PUSH2 0x2193 JUMP JUMPDEST SWAP2 POP PUSH2 0x21E5 DUP3 PUSH2 0x21A4 JUMP JUMPDEST PUSH1 0x20 DUP3 ADD SWAP1 POP SWAP2 SWAP1 POP JUMP JUMPDEST PUSH1 0x0 PUSH1 0x20 DUP3 ADD SWAP1 POP DUP2 DUP2 SUB PUSH1 0x0 DUP4 ADD MSTORE PUSH2 0x2209 DUP2 PUSH2 0x21CD JUMP JUMPDEST SWAP1 POP SWAP2 SWAP1 POP JUMP JUMPDEST PUSH2 0x2219 DUP2 PUSH2 0x19A2 JUMP JUMPDEST DUP3 MSTORE POP POP JUMP JUMPDEST PUSH2 0x2228 DUP2 PUSH2 0x19E0 JUMP JUMPDEST DUP3 MSTORE POP POP JUMP JUMPDEST PUSH1 0x0 DUP2 SWAP1 POP SWAP2 SWAP1 POP JUMP JUMPDEST PUSH2 0x2241 DUP2 PUSH2 0x222E JUMP JUMPDEST DUP3 MSTORE POP POP JUMP JUMPDEST PUSH1 0x0 PUSH1 0x60 DUP3 ADD SWAP1 POP PUSH2 0x225C PUSH1 0x0 DUP4 ADD DUP7 PUSH2 0x2210 JUMP JUMPDEST PUSH2 0x2269 PUSH1 0x20 DUP4 ADD DUP6 PUSH2 0x221F JUMP JUMPDEST PUSH2 0x2276 PUSH1 0x40 DUP4 ADD DUP5 PUSH2 0x2238 JUMP JUMPDEST SWAP5 SWAP4 POP POP POP POP JUMP JUMPDEST PUSH32 0x4E487B7100000000000000000000000000000000000000000000000000000000 PUSH1 0x0 MSTORE PUSH1 0x22 PUSH1 0x4 MSTORE PUSH1 0x24 PUSH1 0x0 REVERT JUMPDEST PUSH1 0x0 PUSH1 0x2 DUP3 DIV SWAP1 POP PUSH1 0x1 DUP3 AND DUP1 PUSH2 0x22C5 JUMPI PUSH1 0x7F DUP3 AND SWAP2 POP JUMPDEST PUSH1 0x20 DUP3 LT DUP2 SUB PUSH2 0x22D8 JUMPI PUSH2 0x22D7 PUSH2 0x227E JUMP JUMPDEST JUMPDEST POP SWAP2 SWAP1 POP JUMP JUMPDEST PUSH1 0x0 DUP2 SWAP1 POP DUP2 PUSH1 0x0 MSTORE PUSH1 0x20 PUSH1 0x0 KECCAK256 SWAP1 POP SWAP2 SWAP1 POP JUMP JUMPDEST PUSH1 0x0 PUSH1 0x20 PUSH1 0x1F DUP4 ADD DIV SWAP1 POP SWAP2 SWAP1 POP JUMP JUMPDEST PUSH1 0x0 DUP3 DUP3 SHL SWAP1 POP SWAP3 SWAP2 POP POP JUMP JUMPDEST PUSH1 0x0 PUSH1 0x8 DUP4 MUL PUSH2 0x2340 PUSH32 0xFFFFFFFFFFFFFFFFFFFFFFFFFFFFFFFFFFFFFFFFFFFFFFFFFFFFFFFFFFFFFFFF DUP3 PUSH2 0x2303 JUMP JUMPDEST PUSH2 0x234A DUP7 DUP4 PUSH2 0x2303 JUMP JUMPDEST SWAP6 POP DUP1 NOT DUP5 AND SWAP4 POP DUP1 DUP7 AND DUP5 OR SWAP3 POP POP POP SWAP4 SWAP3 POP POP POP JUMP JUMPDEST PUSH1 0x0 PUSH2 0x237D PUSH2 0x2378 PUSH2 0x2373 DUP5 PUSH2 0x19E0 JUMP JUMPDEST PUSH2 0x1F23 JUMP JUMPDEST PUSH2 0x19E0 JUMP JUMPDEST SWAP1 POP SWAP2 SWAP1 POP JUMP JUMPDEST PUSH1 0x0 DUP2 SWAP1 POP SWAP2 SWAP1 POP JUMP JUMPDEST PUSH2 0x2397 DUP4 PUSH2 0x2362 JUMP JUMPDEST PUSH2 0x23AB PUSH2 0x23A3 DUP3 PUSH2 0x2384 JUMP JUMPDEST DUP5 DUP5 SLOAD PUSH2 0x2310 JUMP JUMPDEST DUP3 SSTORE POP POP POP POP JUMP JUMPDEST PUSH1 0x0 SWAP1 JUMP JUMPDEST PUSH2 0x23C0 PUSH2 0x23B3 JUMP JUMPDEST PUSH2 0x23CB DUP2 DUP5 DUP5 PUSH2 0x238E JUMP JUMPDEST POP POP POP JUMP JUMPDEST JUMPDEST DUP2 DUP2 LT ISZERO PUSH2 0x23EF JUMPI PUSH2 0x23E4 PUSH1 0x0 DUP3 PUSH2 0x23B8 JUMP JUMPDEST PUSH1 0x1 DUP2 ADD SWAP1 POP PUSH2 0x23D1 JUMP JUMPDEST POP POP JUMP JUMPDEST PUSH1 0x1F DUP3 GT ISZERO PUSH2 0x2434 JUMPI PUSH2 0x2405 DUP2 PUSH2 0x22DE JUMP JUMPDEST PUSH2 0x240E DUP5 PUSH2 0x22F3 JUMP JUMPDEST DUP2 ADD PUSH1 0x20 DUP6 LT ISZERO PUSH2 0x241D JUMPI DUP2 SWAP1 POP JUMPDEST PUSH2 0x2431 PUSH2 0x2429 DUP6 PUSH2 0x22F3 JUMP JUMPDEST DUP4 ADD DUP3 PUSH2 0x23D0 JUMP JUMPDEST POP POP JUMPDEST POP POP POP JUMP JUMPDEST PUSH1 0x0 DUP3 DUP3 SHR SWAP1 POP SWAP3 SWAP2 POP POP JUMP JUMPDEST PUSH1 0x0 PUSH2 0x2457 PUSH1 0x0 NOT DUP5 PUSH1 0x8 MUL PUSH2 0x2439 JUMP JUMPDEST NOT DUP1 DUP4 AND SWAP2 POP POP SWAP3 SWAP2 POP POP JUMP JUMPDEST PUSH1 0x0 PUSH2 0x2470 DUP4 DUP4 PUSH2 0x2446 JUMP JUMPDEST SWAP2 POP DUP3 PUSH1 0x2 MUL DUP3 OR SWAP1 POP SWAP3 SWAP2 POP POP JUMP JUMPDEST PUSH2 0x2489 DUP3 PUSH2 0x1DAE JUMP JUMPDEST PUSH8 0xFFFFFFFFFFFFFFFF DUP2 GT ISZERO PUSH2 0x24A2 JUMPI PUSH2 0x24A1 PUSH2 0x1B3C JUMP JUMPDEST JUMPDEST PUSH2 0x24AC DUP3 SLOAD PUSH2 0x22AD JUMP JUMPDEST PUSH2 0x24B7 DUP3 DUP3 DUP6 PUSH2 0x23F3 JUMP JUMPDEST PUSH1 0x0 PUSH1 0x20 SWAP1 POP PUSH1 0x1F DUP4 GT PUSH1 0x1 DUP2 EQ PUSH2 0x24EA JUMPI PUSH1 0x0 DUP5 ISZERO PUSH2 0x24D8 JUMPI DUP3 DUP8 ADD MLOAD SWAP1 POP JUMPDEST PUSH2 0x24E2 DUP6 DUP3 PUSH2 0x2464 JUMP JUMPDEST DUP7 SSTORE POP PUSH2 0x254A JUMP JUMPDEST PUSH1 0x1F NOT DUP5 AND PUSH2 0x24F8 DUP7 PUSH2 0x22DE JUMP JUMPDEST PUSH1 0x0 JUMPDEST DUP3 DUP2 LT ISZERO PUSH2 0x2520 JUMPI DUP5 DUP10 ADD MLOAD DUP3 SSTORE PUSH1 0x1 DUP3 ADD SWAP2 POP PUSH1 0x20 DUP6 ADD SWAP5 POP PUSH1 0x20 DUP2 ADD SWAP1 POP PUSH2 0x24FB JUMP JUMPDEST DUP7 DUP4 LT ISZERO PUSH2 0x253D JUMPI DUP5 DUP10 ADD MLOAD PUSH2 0x2539 PUSH1 0x1F DUP10 AND DUP3 PUSH2 0x2446 JUMP JUMPDEST DUP4 SSTORE POP JUMPDEST PUSH1 0x1 PUSH1 0x2 DUP9 MUL ADD DUP9 SSTORE POP POP POP JUMPDEST POP POP POP POP POP POP JUMP JUMPDEST PUSH2 0x255B DUP2 PUSH2 0x222E JUMP JUMPDEST DUP3 MSTORE POP POP JUMP JUMPDEST PUSH2 0x256A DUP2 PUSH2 0x1AE1 JUMP JUMPDEST DUP3 MSTORE POP POP JUMP JUMPDEST PUSH1 0x0 DUP2 MLOAD SWAP1 POP SWAP2 SWAP1 POP JUMP JUMPDEST PUSH1 0x0 DUP3 DUP3 MSTORE PUSH1 0x20 DUP3 ADD SWAP1 POP SWAP3 SWAP2 POP POP JUMP JUMPDEST PUSH1 0x0 PUSH2 0x2597 DUP3 PUSH2 0x2570 JUMP JUMPDEST PUSH2 0x25A1 DUP2 DUP6 PUSH2 0x257B JUMP JUMPDEST SWAP4 POP PUSH2 0x25B1 DUP2 DUP6 PUSH1 0x20 DUP7 ADD PUSH2 0x1DCA JUMP JUMPDEST PUSH2 0x25BA DUP2 PUSH2 0x1B2B JUMP JUMPDEST DUP5 ADD SWAP2 POP POP SWAP3 SWAP2 POP POP JUMP JUMPDEST PUSH1 0x0 PUSH1 0xE0 DUP4 ADD PUSH1 0x0 DUP4 ADD MLOAD PUSH2 0x25DD PUSH1 0x0 DUP7 ADD DUP3 PUSH2 0x2552 JUMP JUMPDEST POP PUSH1 0x20 DUP4 ADD MLOAD PUSH2 0x25F0 PUSH1 0x20 DUP7 ADD DUP3 PUSH2 0x1D9F JUMP JUMPDEST POP PUSH1 0x40 DUP4 ADD MLOAD PUSH2 0x2603 PUSH1 0x40 DUP7 ADD DUP3 PUSH2 0x1D90 JUMP JUMPDEST POP PUSH1 0x60 DUP4 ADD MLOAD PUSH2 0x2616 PUSH1 0x60 DUP7 ADD DUP3 PUSH2 0x1D9F JUMP JUMPDEST POP PUSH1 0x80 DUP4 ADD MLOAD PUSH2 0x2629 PUSH1 0x80 DUP7 ADD DUP3 PUSH2 0x2561 JUMP JUMPDEST POP PUSH1 0xA0 DUP4 ADD MLOAD PUSH2 0x263C PUSH1 0xA0 DUP7 ADD DUP3 PUSH2 0x1E2D JUMP JUMPDEST POP PUSH1 0xC0 DUP4 ADD MLOAD DUP5 DUP3 SUB PUSH1 0xC0 DUP7 ADD MSTORE PUSH2 0x2654 DUP3 DUP3 PUSH2 0x258C JUMP JUMPDEST SWAP2 POP POP DUP1 SWAP2 POP POP SWAP3 SWAP2 POP POP JUMP JUMPDEST PUSH1 0x0 PUSH1 0x20 DUP3 ADD SWAP1 POP DUP2 DUP2 SUB PUSH1 0x0 DUP4 ADD MSTORE PUSH2 0x267B DUP2 DUP5 PUSH2 0x25C5 JUMP JUMPDEST SWAP1 POP SWAP3 SWAP2 POP POP JUMP JUMPDEST PUSH1 0x0 DUP2 MLOAD SWAP1 POP PUSH2 0x2692 DUP2 PUSH2 0x19B4 JUMP JUMPDEST SWAP3 SWAP2 POP POP JUMP JUMPDEST PUSH1 0x0 PUSH1 0x20 DUP3 DUP5 SUB SLT ISZERO PUSH2 0x26AE JUMPI PUSH2 0x26AD PUSH2 0x1978 JUMP JUMPDEST JUMPDEST PUSH1 0x0 PUSH2 0x26BC DUP5 DUP3 DUP6 ADD PUSH2 0x2683 JUMP JUMPDEST SWAP2 POP POP SWAP3 SWAP2 POP POP JUMP JUMPDEST PUSH32 0x43414C4C45525F4E4F545F524543495049454E545F4F465F524F4C4500000000 PUSH1 0x0 DUP3 ADD MSTORE POP JUMP JUMPDEST PUSH1 0x0 PUSH2 0x26FB PUSH1 0x1C DUP4 PUSH2 0x2193 JUMP JUMPDEST SWAP2 POP PUSH2 0x2706 DUP3 PUSH2 0x26C5 JUMP JUMPDEST PUSH1 0x20 DUP3 ADD SWAP1 POP SWAP2 SWAP1 POP JUMP JUMPDEST PUSH1 0x0 PUSH1 0x20 DUP3 ADD SWAP1 POP DUP2 DUP2 SUB PUSH1 0x0 DUP4 ADD MSTORE PUSH2 0x272A DUP2 PUSH2 0x26EE JUMP JUMPDEST SWAP1 POP SWAP2 SWAP1 POP JUMP JUMPDEST PUSH1 0x0 PUSH1 0x40 DUP3 ADD SWAP1 POP PUSH2 0x2746 PUSH1 0x0 DUP4 ADD DUP6 PUSH2 0x2210 JUMP JUMPDEST PUSH2 0x2753 PUSH1 0x20 DUP4 ADD DUP5 PUSH2 0x221F JUMP JUMPDEST SWAP4 SWAP3 POP POP POP JUMP JUMPDEST PUSH32 0x4E4F545F4F524947494E414C5F4F574E45525F4F465F4E465400000000000000 PUSH1 0x0 DUP3 ADD MSTORE POP JUMP JUMPDEST PUSH1 0x0 PUSH2 0x2790 PUSH1 0x19 DUP4 PUSH2 0x2193 JUMP JUMPDEST SWAP2 POP PUSH2 0x279B DUP3 PUSH2 0x275A JUMP JUMPDEST PUSH1 0x20 DUP3 ADD SWAP1 POP SWAP2 SWAP1 POP JUMP JUMPDEST PUSH1 0x0 PUSH1 0x20 DUP3 ADD SWAP1 POP DUP2 DUP2 SUB PUSH1 0x0 DUP4 ADD MSTORE PUSH2 0x27BF DUP2 PUSH2 0x2783 JUMP JUMPDEST SWAP1 POP SWAP2 SWAP1 POP JUMP JUMPDEST PUSH32 0x414C52454144595F564F5445445F544849535F50524F504F53414C0000000000 PUSH1 0x0 DUP3 ADD MSTORE POP JUMP JUMPDEST PUSH1 0x0 PUSH2 0x27FC PUSH1 0x1B DUP4 PUSH2 0x2193 JUMP JUMPDEST SWAP2 POP PUSH2 0x2807 DUP3 PUSH2 0x27C6 JUMP JUMPDEST PUSH1 0x20 DUP3 ADD SWAP1 POP SWAP2 SWAP1 POP JUMP JUMPDEST PUSH1 0x0 PUSH1 0x20 DUP3 ADD SWAP1 POP DUP2 DUP2 SUB PUSH1 0x0 DUP4 ADD MSTORE PUSH2 0x282B DUP2 PUSH2 0x27EF JUMP JUMPDEST SWAP1 POP SWAP2 SWAP1 POP JUMP JUMPDEST PUSH32 0x50524F504F53414C5F4558504952454400000000000000000000000000000000 PUSH1 0x0 DUP3 ADD MSTORE POP JUMP JUMPDEST PUSH1 0x0 PUSH2 0x2868 PUSH1 0x10 DUP4 PUSH2 0x2193 JUMP JUMPDEST SWAP2 POP PUSH2 0x2873 DUP3 PUSH2 0x2832 JUMP JUMPDEST PUSH1 0x20 DUP3 ADD SWAP1 POP SWAP2 SWAP1 POP JUMP JUMPDEST PUSH1 0x0 PUSH1 0x20 DUP3 ADD SWAP1 POP DUP2 DUP2 SUB PUSH1 0x0 DUP4 ADD MSTORE PUSH2 0x2897 DUP2 PUSH2 0x285B JUMP JUMPDEST SWAP1 POP SWAP2 SWAP1 POP JUMP JUMPDEST PUSH32 0x4E487B7100000000000000000000000000000000000000000000000000000000 PUSH1 0x0 MSTORE PUSH1 0x11 PUSH1 0x4 MSTORE PUSH1 0x24 PUSH1 0x0 REVERT JUMPDEST PUSH1 0x0 PUSH2 0x28D8 DUP3 PUSH2 0x19E0 JUMP JUMPDEST SWAP2 POP PUSH2 0x28E3 DUP4 PUSH2 0x19E0 JUMP JUMPDEST SWAP3 POP DUP3 DUP3 ADD SWAP1 POP DUP1 DUP3 GT ISZERO PUSH2 0x28FB JUMPI PUSH2 0x28FA PUSH2 0x289E JUMP JUMPDEST JUMPDEST SWAP3 SWAP2 POP POP JUMP JUMPDEST PUSH32 0x454E445F54494D455F4D5553545F42455F494E5F465554555245000000000000 PUSH1 0x0 DUP3 ADD MSTORE POP JUMP JUMPDEST PUSH1 0x0 PUSH2 0x2937 PUSH1 0x1A DUP4 PUSH2 0x2193 JUMP JUMPDEST SWAP2 POP PUSH2 0x2942 DUP3 PUSH2 0x2901 JUMP JUMPDEST PUSH1 0x20 DUP3 ADD SWAP1 POP SWAP2 SWAP1 POP JUMP JUMPDEST PUSH1 0x0 PUSH1 0x20 DUP3 ADD SWAP1 POP DUP2 DUP2 SUB PUSH1 0x0 DUP4 ADD MSTORE PUSH2 0x2966 DUP2 PUSH2 0x292A JUMP JUMPDEST SWAP1 POP SWAP2 SWAP1 POP JUMP JUMPDEST PUSH1 0x0 PUSH2 0x2978 DUP3 PUSH2 0x19E0 JUMP JUMPDEST SWAP2 POP PUSH32 0xFFFFFFFFFFFFFFFFFFFFFFFFFFFFFFFFFFFFFFFFFFFFFFFFFFFFFFFFFFFFFFFF DUP3 SUB PUSH2 0x29AA JUMPI PUSH2 0x29A9 PUSH2 0x289E JUMP JUMPDEST JUMPDEST PUSH1 0x1 DUP3 ADD SWAP1 POP SWAP2 SWAP1 POP JUMP INVALID LOG2 PUSH5 0x6970667358 0x22 SLT KECCAK256 MSTORE8 MOD SUB PUSH29 0x4DA1335311CB9ECE2235AF87FD974DBFF3C6014FF8181EC6ED33E98B64 PUSH20 0x6F6C634300081C00330000000000000000000000 "},"methodIdentifiers":{"cancelProposal(uint256,address,uint256)":"893a1272","createProposal(string,uint256,uint256,address)":"edea12e6","getProposal(uint256)":"c7f758a8","grantRole(address,address,uint256,uint64,bool,bytes)":"4aab18d7","nftContract()":"d56d229d","revokeRole(address,uint256)":"0912ed77","rolesContract()":"ca53b391","setProposalExecution(uint256,bool,uint256)":"2f136ff4","voteProposal(uint256,address,bool,uint256)":"e4171917"}}}}}