{
  "_format": "hh-sol-artifact-1",
  "contractName": "AccessControlFactory",
  "sourceName": "contracts/AccessFactory.sol",
  "abi": [
    {
      "anonymous": false,
      "inputs": [
        {
          "indexed": true,
          "internalType": "address",
          "name": "newContract",
          "type": "address"
        },
        {
          "indexed": true,
          "internalType": "address",
          "name": "owner",
          "type": "address"
        }
      ],
      "name": "AccessControlCreated",
      "type": "event"
    },
    {
      "inputs": [
        {
          "internalType": "uint256",
          "name": "",
          "type": "uint256"
        }
      ],
      "name": "accessControlContracts",
      "outputs": [
        {
          "internalType": "address",
          "name": "",
          "type": "address"
        }
      ],
      "stateMutability": "view",
      "type": "function"
    },
    {
      "inputs": [],
      "name": "createAccessControl",
      "outputs": [
        {
          "internalType": "address",
          "name": "",
          "type": "address"
        }
      ],
      "stateMutability": "nonpayable",
      "type": "function"
    },
    {
      "inputs": [],
      "name": "getAllAccessControlContracts",
      "outputs": [
        {
          "internalType": "address[]",
          "name": "",
          "type": "address[]"
        }
      ],
      "stateMutability": "view",
      "type": "function"
    }
  ],
  "bytecode": "0x6080604052348015600f57600080fd5b50611a7c8061001f6000396000f3fe608060405234801561001057600080fd5b50600436106100415760003560e01c80630527a39e146100465780636b062b7214610076578063bd679d7d14610094575b600080fd5b610060600480360381019061005b91906102b9565b6100b2565b60405161006d9190610327565b60405180910390f35b61007e6100f1565b60405161008b9190610400565b60405180910390f35b61009c61017f565b6040516100a99190610327565b60405180910390f35b600081815481106100c257600080fd5b906000526020600020016000915054906101000a900473ffffffffffffffffffffffffffffffffffffffff1681565b6060600080548060200260200160405190810160405280929190818152602001828054801561017557602002820191906000526020600020905b8160009054906101000a900473ffffffffffffffffffffffffffffffffffffffff1673ffffffffffffffffffffffffffffffffffffffff168152602001906001019080831161012b575b5050505050905090565b60008060405161018e90610271565b604051809103906000f0801580156101aa573d6000803e3d6000fd5b5090506000819080600181540180825580915050600190039060005260206000200160009091909190916101000a81548173ffffffffffffffffffffffffffffffffffffffff021916908373ffffffffffffffffffffffffffffffffffffffff1602179055503373ffffffffffffffffffffffffffffffffffffffff168173ffffffffffffffffffffffffffffffffffffffff167f2e959b95c27ed1942f17394df7c896aac4463c9de991373e527926daa5c2210c60405160405180910390a38091505090565b6116248061042383390190565b600080fd5b6000819050919050565b61029681610283565b81146102a157600080fd5b50565b6000813590506102b38161028d565b92915050565b6000602082840312156102cf576102ce61027e565b5b60006102dd848285016102a4565b91505092915050565b600073ffffffffffffffffffffffffffffffffffffffff82169050919050565b6000610311826102e6565b9050919050565b61032181610306565b82525050565b600060208201905061033c6000830184610318565b92915050565b600081519050919050565b600082825260208201905092915050565b6000819050602082019050919050565b61037781610306565b82525050565b6000610389838361036e565b60208301905092915050565b6000602082019050919050565b60006103ad82610342565b6103b7818561034d565b93506103c28361035e565b8060005b838110156103f35781516103da888261037d565b97506103e583610395565b9250506001810190506103c6565b5085935050505092915050565b6000602082019050818103600083015261041a81846103a2565b90509291505056fe6080604052348015600f57600080fd5b506116058061001f6000396000f3fe608060405234801561001057600080fd5b506004361061007d5760003560e01c80639a3416ed1161005b5780639a3416ed146100ec578063b24e34c814610108578063c3b2d07a14610138578063e3366fed146101685761007d565b806332648e091461008257806335b79557146100b45780636e7c4ab1146100d0575b600080fd5b61009c60048036038101906100979190610c3a565b610186565b6040516100ab93929190610d89565b60405180910390f35b6100ce60048036038101906100c99190610f4d565b6102dd565b005b6100ea60048036038101906100e59190610c3a565b610449565b005b61010660048036038101906101019190610f4d565b6106da565b005b610122600480360381019061011d9190610c3a565b6108a9565b60405161012f9190610fd0565b60405180910390f35b610152600480360381019061014d9190611021565b610a9e565b60405161015f919061105d565b60405180910390f35b610170610add565b60405161017d9190611136565b60405180910390f35b606060008060008060008673ffffffffffffffffffffffffffffffffffffffff1673ffffffffffffffffffffffffffffffffffffffff1681526020019081526020016000206040518060600160405290816000820180546101e690611187565b80601f016020809104026020016040519081016040528092919081815260200182805461021290611187565b801561025f5780601f106102345761010080835404028352916020019161025f565b820191906000526020600020905b81548152906001019060200180831161024257829003601f168201915b505050505081526020016001820160009054906101000a900460ff16600581111561028d5761028c610cf7565b5b600581111561029f5761029e610cf7565b5b81526020016001820160019054906101000a900460ff1615151515815250509050806000015181602001518260400151935093509350509193909250565b60008060008673ffffffffffffffffffffffffffffffffffffffff1673ffffffffffffffffffffffffffffffffffffffff168152602001908152602001600020600001805461032b90611187565b90500361036d576040517f08c379a000000000000000000000000000000000000000000000000000000000815260040161036490611204565b60405180910390fd5b604051806060016040528084815260200183600581111561039157610390610cf7565b5b81526020018215158152506000808673ffffffffffffffffffffffffffffffffffffffff1673ffffffffffffffffffffffffffffffffffffffff16815260200190815260200160002060008201518160000190816103ef91906113d0565b5060208201518160010160006101000a81548160ff0219169083600581111561041b5761041a610cf7565b5b021790555060408201518160010160016101000a81548160ff02191690831515021790555090505050505050565b60008060008373ffffffffffffffffffffffffffffffffffffffff1673ffffffffffffffffffffffffffffffffffffffff168152602001908152602001600020600001805461049790611187565b9050036104d9576040517f08c379a00000000000000000000000000000000000000000000000000000000081526004016104d090611204565b60405180910390fd5b6000808273ffffffffffffffffffffffffffffffffffffffff1673ffffffffffffffffffffffffffffffffffffffff168152602001908152602001600020600080820160006105289190610b6b565b6001820160006101000a81549060ff02191690556001820160016101000a81549060ff0219169055505060005b6001805490508110156106d6578173ffffffffffffffffffffffffffffffffffffffff166001828154811061058d5761058c6114a2565b5b9060005260206000200160009054906101000a900473ffffffffffffffffffffffffffffffffffffffff1673ffffffffffffffffffffffffffffffffffffffff16036106c95760018080805490506105e59190611500565b815481106105f6576105f56114a2565b5b9060005260206000200160009054906101000a900473ffffffffffffffffffffffffffffffffffffffff1660018281548110610635576106346114a2565b5b9060005260206000200160006101000a81548173ffffffffffffffffffffffffffffffffffffffff021916908373ffffffffffffffffffffffffffffffffffffffff160217905550600180548061068f5761068e611534565b5b6001900381819060005260206000200160006101000a81549073ffffffffffffffffffffffffffffffffffffffff021916905590556106d6565b8080600101915050610555565b5050565b60008060008673ffffffffffffffffffffffffffffffffffffffff1673ffffffffffffffffffffffffffffffffffffffff168152602001908152602001600020600001805461072890611187565b90501461076a576040517f08c379a0000000000000000000000000000000000000000000000000000000008152600401610761906115af565b60405180910390fd5b604051806060016040528084815260200183600581111561078e5761078d610cf7565b5b81526020018215158152506000808673ffffffffffffffffffffffffffffffffffffffff1673ffffffffffffffffffffffffffffffffffffffff16815260200190815260200160002060008201518160000190816107ec91906113d0565b5060208201518160010160006101000a81548160ff0219169083600581111561081857610817610cf7565b5b021790555060408201518160010160016101000a81548160ff0219169083151502179055509050506001849080600181540180825580915050600190039060005260206000200160009091909190916101000a81548173ffffffffffffffffffffffffffffffffffffffff021916908373ffffffffffffffffffffffffffffffffffffffff16021790555050505050565b6000806000808473ffffffffffffffffffffffffffffffffffffffff1673ffffffffffffffffffffffffffffffffffffffff16815260200190815260200160002060405180606001604052908160008201805461090590611187565b80601f016020809104026020016040519081016040528092919081815260200182805461093190611187565b801561097e5780601f106109535761010080835404028352916020019161097e565b820191906000526020600020905b81548152906001019060200180831161096157829003601f168201915b505050505081526020016001820160009054906101000a900460ff1660058111156109ac576109ab610cf7565b5b60058111156109be576109bd610cf7565b5b81526020016001820160019054906101000a900460ff161515151581525050905080604001516109f2576000915050610a99565b60006005811115610a0657610a05610cf7565b5b81602001516005811115610a1d57610a1c610cf7565b5b1480610a51575060016005811115610a3857610a37610cf7565b5b81602001516005811115610a4f57610a4e610cf7565b5b145b80610a84575060026005811115610a6b57610a6a610cf7565b5b81602001516005811115610a8257610a81610cf7565b5b145b15610a93576001915050610a99565b60009150505b919050565b60018181548110610aae57600080fd5b906000526020600020016000915054906101000a900473ffffffffffffffffffffffffffffffffffffffff1681565b60606001805480602002602001604051908101604052809291908181526020018280548015610b6157602002820191906000526020600020905b8160009054906101000a900473ffffffffffffffffffffffffffffffffffffffff1673ffffffffffffffffffffffffffffffffffffffff1681526020019060010190808311610b17575b5050505050905090565b508054610b7790611187565b6000825580601f10610b895750610ba8565b601f016020900490600052602060002090810190610ba79190610bab565b5b50565b5b80821115610bc4576000816000905550600101610bac565b5090565b6000604051905090565b600080fd5b600080fd5b600073ffffffffffffffffffffffffffffffffffffffff82169050919050565b6000610c0782610bdc565b9050919050565b610c1781610bfc565b8114610c2257600080fd5b50565b600081359050610c3481610c0e565b92915050565b600060208284031215610c5057610c4f610bd2565b5b6000610c5e84828501610c25565b91505092915050565b600081519050919050565b600082825260208201905092915050565b60005b83811015610ca1578082015181840152602081019050610c86565b60008484015250505050565b6000601f19601f8301169050919050565b6000610cc982610c67565b610cd38185610c72565b9350610ce3818560208601610c83565b610cec81610cad565b840191505092915050565b7f4e487b7100000000000000000000000000000000000000000000000000000000600052602160045260246000fd5b60068110610d3757610d36610cf7565b5b50565b6000819050610d4882610d26565b919050565b6000610d5882610d3a565b9050919050565b610d6881610d4d565b82525050565b60008115159050919050565b610d8381610d6e565b82525050565b60006060820190508181036000830152610da38186610cbe565b9050610db26020830185610d5f565b610dbf6040830184610d7a565b949350505050565b600080fd5b600080fd5b7f4e487b7100000000000000000000000000000000000000000000000000000000600052604160045260246000fd5b610e0982610cad565b810181811067ffffffffffffffff82111715610e2857610e27610dd1565b5b80604052505050565b6000610e3b610bc8565b9050610e478282610e00565b919050565b600067ffffffffffffffff821115610e6757610e66610dd1565b5b610e7082610cad565b9050602081019050919050565b82818337600083830152505050565b6000610e9f610e9a84610e4c565b610e31565b905082815260208101848484011115610ebb57610eba610dcc565b5b610ec6848285610e7d565b509392505050565b600082601f830112610ee357610ee2610dc7565b5b8135610ef3848260208601610e8c565b91505092915050565b60068110610f0957600080fd5b50565b600081359050610f1b81610efc565b92915050565b610f2a81610d6e565b8114610f3557600080fd5b50565b600081359050610f4781610f21565b92915050565b60008060008060808587031215610f6757610f66610bd2565b5b6000610f7587828801610c25565b945050602085013567ffffffffffffffff811115610f9657610f95610bd7565b5b610fa287828801610ece565b9350506040610fb387828801610f0c565b9250506060610fc487828801610f38565b91505092959194509250565b6000602082019050610fe56000830184610d7a565b92915050565b6000819050919050565b610ffe81610feb565b811461100957600080fd5b50565b60008135905061101b81610ff5565b92915050565b60006020828403121561103757611036610bd2565b5b60006110458482850161100c565b91505092915050565b61105781610bfc565b82525050565b6000602082019050611072600083018461104e565b92915050565b600081519050919050565b600082825260208201905092915050565b6000819050602082019050919050565b6110ad81610bfc565b82525050565b60006110bf83836110a4565b60208301905092915050565b6000602082019050919050565b60006110e382611078565b6110ed8185611083565b93506110f883611094565b8060005b8381101561112957815161111088826110b3565b975061111b836110cb565b9250506001810190506110fc565b5085935050505092915050565b6000602082019050818103600083015261115081846110d8565b905092915050565b7f4e487b7100000000000000000000000000000000000000000000000000000000600052602260045260246000fd5b6000600282049050600182168061119f57607f821691505b6020821081036111b2576111b1611158565b5b50919050565b7f456d706c6f79656520646f6573206e6f74206578697374000000000000000000600082015250565b60006111ee601783610c72565b91506111f9826111b8565b602082019050919050565b6000602082019050818103600083015261121d816111e1565b9050919050565b60008190508160005260206000209050919050565b60006020601f8301049050919050565b600082821b905092915050565b6000600883026112867fffffffffffffffffffffffffffffffffffffffffffffffffffffffffffffffff82611249565b6112908683611249565b95508019841693508086168417925050509392505050565b6000819050919050565b60006112cd6112c86112c384610feb565b6112a8565b610feb565b9050919050565b6000819050919050565b6112e7836112b2565b6112fb6112f3826112d4565b848454611256565b825550505050565b600090565b611310611303565b61131b8184846112de565b505050565b5b8181101561133f57611334600082611308565b600181019050611321565b5050565b601f8211156113845761135581611224565b61135e84611239565b8101602085101561136d578190505b61138161137985611239565b830182611320565b50505b505050565b600082821c905092915050565b60006113a760001984600802611389565b1980831691505092915050565b60006113c08383611396565b9150826002028217905092915050565b6113d982610c67565b67ffffffffffffffff8111156113f2576113f1610dd1565b5b6113fc8254611187565b611407828285611343565b600060209050601f83116001811461143a5760008415611428578287015190505b61143285826113b4565b86555061149a565b601f19841661144886611224565b60005b828110156114705784890151825560018201915060208501945060208101905061144b565b8683101561148d5784890151611489601f891682611396565b8355505b6001600288020188555050505b505050505050565b7f4e487b7100000000000000000000000000000000000000000000000000000000600052603260045260246000fd5b7f4e487b7100000000000000000000000000000000000000000000000000000000600052601160045260246000fd5b600061150b82610feb565b915061151683610feb565b925082820390508181111561152e5761152d6114d1565b5b92915050565b7f4e487b7100000000000000000000000000000000000000000000000000000000600052603160045260246000fd5b7f456d706c6f79656520616c726561647920657869737473000000000000000000600082015250565b6000611599601783610c72565b91506115a482611563565b602082019050919050565b600060208201905081810360008301526115c88161158c565b905091905056fea2646970667358221220d43f2e24a1c12247c2f8f768c7f4c2e3a022ce9c26b6823ae44584d08d0ab75964736f6c634300081e0033a2646970667358221220e2a3dcc1c3e100cde6e47e9ae77f7944d140971d8297d4fd2f9f16ac83dcc5f764736f6c634300081e0033",
  "linkReferences": {},
  "deployedLinkReferences": {}
}