{
  "_format": "hh-sol-artifact-1",
  "contractName": "StudentManagementSystem",
  "sourceName": "contracts/StudentManagementSystem.sol",
  "abi": [
    {
      "inputs": [
        {
          "internalType": "uint256",
          "name": "_index",
          "type": "uint256"
        }
      ],
      "name": "delete_student_details",
      "outputs": [],
      "stateMutability": "nonpayable",
      "type": "function"
    },
    {
      "inputs": [],
      "name": "id",
      "outputs": [
        {
          "internalType": "uint256",
          "name": "",
          "type": "uint256"
        }
      ],
      "stateMutability": "view",
      "type": "function"
    },
    {
      "inputs": [],
      "name": "nextId",
      "outputs": [
        {
          "internalType": "uint256",
          "name": "",
          "type": "uint256"
        }
      ],
      "stateMutability": "view",
      "type": "function"
    },
    {
      "inputs": [
        {
          "internalType": "string",
          "name": "_name",
          "type": "string"
        },
        {
          "internalType": "uint256",
          "name": "_id",
          "type": "uint256"
        },
        {
          "internalType": "uint8",
          "name": "_age",
          "type": "uint8"
        },
        {
          "internalType": "enum StudentManagementSystem.Gender",
          "name": "_gender",
          "type": "uint8"
        }
      ],
      "name": "register_student",
      "outputs": [],
      "stateMutability": "nonpayable",
      "type": "function"
    },
    {
      "inputs": [
        {
          "internalType": "uint256",
          "name": "",
          "type": "uint256"
        }
      ],
      "name": "students",
      "outputs": [
        {
          "internalType": "string",
          "name": "name",
          "type": "string"
        },
        {
          "internalType": "uint256",
          "name": "id",
          "type": "uint256"
        },
        {
          "internalType": "uint8",
          "name": "age",
          "type": "uint8"
        },
        {
          "internalType": "enum StudentManagementSystem.Gender",
          "name": "gender",
          "type": "uint8"
        },
        {
          "internalType": "enum StudentManagementSystem.Status",
          "name": "status",
          "type": "uint8"
        }
      ],
      "stateMutability": "view",
      "type": "function"
    },
    {
      "inputs": [
        {
          "internalType": "string",
          "name": "_new_name",
          "type": "string"
        },
        {
          "internalType": "uint8",
          "name": "_new_age",
          "type": "uint8"
        },
        {
          "internalType": "enum StudentManagementSystem.Gender",
          "name": "_new_gender",
          "type": "uint8"
        },
        {
          "internalType": "enum StudentManagementSystem.Status",
          "name": "_new_status",
          "type": "uint8"
        },
        {
          "internalType": "uint256",
          "name": "_index",
          "type": "uint256"
        }
      ],
      "name": "update_student_data",
      "outputs": [],
      "stateMutability": "nonpayable",
      "type": "function"
    },
    {
      "inputs": [],
      "name": "view_all_students",
      "outputs": [
        {
          "components": [
            {
              "internalType": "string",
              "name": "name",
              "type": "string"
            },
            {
              "internalType": "uint256",
              "name": "id",
              "type": "uint256"
            },
            {
              "internalType": "uint8",
              "name": "age",
              "type": "uint8"
            },
            {
              "internalType": "enum StudentManagementSystem.Gender",
              "name": "gender",
              "type": "uint8"
            },
            {
              "internalType": "enum StudentManagementSystem.Status",
              "name": "status",
              "type": "uint8"
            }
          ],
          "internalType": "struct StudentManagementSystem.Student[]",
          "name": "",
          "type": "tuple[]"
        }
      ],
      "stateMutability": "view",
      "type": "function"
    }
  ],
  "bytecode": "0x6080604052348015600f57600080fd5b506115de8061001f6000396000f3fe608060405234801561001057600080fd5b506004361061007d5760003560e01c80636bd7e9f21161005b5780636bd7e9f2146100f05780638230432d1461010e578063af640d0f1461012a578063f99af6da146101485761007d565b806306ead22e1461008257806314a87ea2146100b657806361b8ce8c146100d2575b600080fd5b61009c6004803603810190610097919061092a565b610164565b6040516100ad959493929190610ad1565b60405180910390f35b6100d060048036038101906100cb9190610cb1565b610259565b005b6100da61039a565b6040516100e79190610d34565b60405180910390f35b6100f86103a0565b6040516101059190610f0d565b60405180910390f35b6101286004803603810190610123919061092a565b61052e565b005b610132610717565b60405161013f9190610d34565b60405180910390f35b610162600480360381019061015d9190610f54565b61071d565b005b6000818154811061017457600080fd5b90600052602060002090600302016000915090508060000180546101979061101a565b80601f01602080910402602001604051908101604052809291908181526020018280546101c39061101a565b80156102105780601f106101e557610100808354040283529160200191610210565b820191906000526020600020905b8154815290600101906020018083116101f357829003601f168201915b5050505050908060010154908060020160009054906101000a900460ff16908060020160019054906101000a900460ff16908060020160029054906101000a900460ff16905085565b60006040518060a001604052808681526020018581526020018460ff16815260200183600181111561028e5761028d610a12565b5b8152602001600060028111156102a7576102a6610a12565b5b8152509050600081908060018154018082558091505060019003906000526020600020906003020160009091909190915060008201518160000190816102ed91906111f7565b506020820151816001015560408201518160020160006101000a81548160ff021916908360ff16021790555060608201518160020160016101000a81548160ff0219169083600181111561034457610343610a12565b5b021790555060808201518160020160026101000a81548160ff0219169083600281111561037457610373610a12565b5b021790555050506002600081548092919061038e906112f8565b91905055505050505050565b60025481565b60606000805480602002602001604051908101604052809291908181526020016000905b8282101561052557838290600052602060002090600302016040518060a00160405290816000820180546103f79061101a565b80601f01602080910402602001604051908101604052809291908181526020018280546104239061101a565b80156104705780601f1061044557610100808354040283529160200191610470565b820191906000526020600020905b81548152906001019060200180831161045357829003601f168201915b50505050508152602001600182015481526020016002820160009054906101000a900460ff1660ff1660ff1681526020016002820160019054906101000a900460ff1660018111156104c5576104c4610a12565b5b60018111156104d7576104d6610a12565b5b81526020016002820160029054906101000a900460ff166002811115610500576104ff610a12565b5b600281111561051257610511610a12565b5b81525050815260200190600101906103c4565b50505050905090565b600080549050811115610576576040517f08c379a000000000000000000000000000000000000000000000000000000000815260040161056d9061138c565b60405180910390fd5b6000600160008054905061058a91906113ac565b8154811061059b5761059a6113e0565b5b9060005260206000209060030201600082815481106105bd576105bc6113e0565b5b9060005260206000209060030201600082018160000190816105df9190611425565b50600182015481600101556002820160009054906101000a900460ff168160020160006101000a81548160ff021916908360ff1602179055506002820160019054906101000a900460ff168160020160016101000a81548160ff021916908360018111156106505761064f610a12565b5b02179055506002820160029054906101000a900460ff168160020160026101000a81548160ff0219169083600281111561068d5761068c610a12565b5b021790555090505060008054806106a7576106a661150d565b5b6001900381819060005260206000209060030201600080820160006106cc9190610883565b60018201600090556002820160006101000a81549060ff02191690556002820160016101000a81549060ff02191690556002820160026101000a81549060ff02191690555050905550565b60015481565b600160008054905061072f91906113ac565b811115610771576040517f08c379a000000000000000000000000000000000000000000000000000000000815260040161076890611588565b60405180910390fd5b8460008281548110610786576107856113e0565b5b906000526020600020906003020160000190816107a391906111f7565b5083600082815481106107b9576107b86113e0565b5b906000526020600020906003020160020160006101000a81548160ff021916908360ff16021790555082600082815481106107f7576107f66113e0565b5b906000526020600020906003020160020160016101000a81548160ff0219169083600181111561082a57610829610a12565b5b02179055508160008281548110610844576108436113e0565b5b906000526020600020906003020160020160026101000a81548160ff0219169083600281111561087757610876610a12565b5b02179055505050505050565b50805461088f9061101a565b6000825580601f106108a157506108c0565b601f0160209004906000526020600020908101906108bf91906108c3565b5b50565b5b808211156108dc5760008160009055506001016108c4565b5090565b6000604051905090565b600080fd5b600080fd5b6000819050919050565b610907816108f4565b811461091257600080fd5b50565b600081359050610924816108fe565b92915050565b6000602082840312156109405761093f6108ea565b5b600061094e84828501610915565b91505092915050565b600081519050919050565b600082825260208201905092915050565b60005b83811015610991578082015181840152602081019050610976565b60008484015250505050565b6000601f19601f8301169050919050565b60006109b982610957565b6109c38185610962565b93506109d3818560208601610973565b6109dc8161099d565b840191505092915050565b6109f0816108f4565b82525050565b600060ff82169050919050565b610a0c816109f6565b82525050565b7f4e487b7100000000000000000000000000000000000000000000000000000000600052602160045260246000fd5b60028110610a5257610a51610a12565b5b50565b6000819050610a6382610a41565b919050565b6000610a7382610a55565b9050919050565b610a8381610a68565b82525050565b60038110610a9a57610a99610a12565b5b50565b6000819050610aab82610a89565b919050565b6000610abb82610a9d565b9050919050565b610acb81610ab0565b82525050565b600060a0820190508181036000830152610aeb81886109ae565b9050610afa60208301876109e7565b610b076040830186610a03565b610b146060830185610a7a565b610b216080830184610ac2565b9695505050505050565b600080fd5b600080fd5b7f4e487b7100000000000000000000000000000000000000000000000000000000600052604160045260246000fd5b610b6d8261099d565b810181811067ffffffffffffffff82111715610b8c57610b8b610b35565b5b80604052505050565b6000610b9f6108e0565b9050610bab8282610b64565b919050565b600067ffffffffffffffff821115610bcb57610bca610b35565b5b610bd48261099d565b9050602081019050919050565b82818337600083830152505050565b6000610c03610bfe84610bb0565b610b95565b905082815260208101848484011115610c1f57610c1e610b30565b5b610c2a848285610be1565b509392505050565b600082601f830112610c4757610c46610b2b565b5b8135610c57848260208601610bf0565b91505092915050565b610c69816109f6565b8114610c7457600080fd5b50565b600081359050610c8681610c60565b92915050565b60028110610c9957600080fd5b50565b600081359050610cab81610c8c565b92915050565b60008060008060808587031215610ccb57610cca6108ea565b5b600085013567ffffffffffffffff811115610ce957610ce86108ef565b5b610cf587828801610c32565b9450506020610d0687828801610915565b9350506040610d1787828801610c77565b9250506060610d2887828801610c9c565b91505092959194509250565b6000602082019050610d4960008301846109e7565b92915050565b600081519050919050565b600082825260208201905092915050565b6000819050602082019050919050565b600082825260208201905092915050565b6000610d9782610957565b610da18185610d7b565b9350610db1818560208601610973565b610dba8161099d565b840191505092915050565b610dce816108f4565b82525050565b610ddd816109f6565b82525050565b610dec81610a68565b82525050565b610dfb81610ab0565b82525050565b600060a0830160008301518482036000860152610e1e8282610d8c565b9150506020830151610e336020860182610dc5565b506040830151610e466040860182610dd4565b506060830151610e596060860182610de3565b506080830151610e6c6080860182610df2565b508091505092915050565b6000610e838383610e01565b905092915050565b6000602082019050919050565b6000610ea382610d4f565b610ead8185610d5a565b935083602082028501610ebf85610d6b565b8060005b85811015610efb5784840389528151610edc8582610e77565b9450610ee783610e8b565b925060208a01995050600181019050610ec3565b50829750879550505050505092915050565b60006020820190508181036000830152610f278184610e98565b905092915050565b60038110610f3c57600080fd5b50565b600081359050610f4e81610f2f565b92915050565b600080600080600060a08688031215610f7057610f6f6108ea565b5b600086013567ffffffffffffffff811115610f8e57610f8d6108ef565b5b610f9a88828901610c32565b9550506020610fab88828901610c77565b9450506040610fbc88828901610c9c565b9350506060610fcd88828901610f3f565b9250506080610fde88828901610915565b9150509295509295909350565b7f4e487b7100000000000000000000000000000000000000000000000000000000600052602260045260246000fd5b6000600282049050600182168061103257607f821691505b60208210810361104557611044610feb565b5b50919050565b60008190508160005260206000209050919050565b60006020601f8301049050919050565b600082821b905092915050565b6000600883026110ad7fffffffffffffffffffffffffffffffffffffffffffffffffffffffffffffffff82611070565b6110b78683611070565b95508019841693508086168417925050509392505050565b6000819050919050565b60006110f46110ef6110ea846108f4565b6110cf565b6108f4565b9050919050565b6000819050919050565b61110e836110d9565b61112261111a826110fb565b84845461107d565b825550505050565b600090565b61113761112a565b611142818484611105565b505050565b5b818110156111665761115b60008261112f565b600181019050611148565b5050565b601f8211156111ab5761117c8161104b565b61118584611060565b81016020851015611194578190505b6111a86111a085611060565b830182611147565b50505b505050565b600082821c905092915050565b60006111ce600019846008026111b0565b1980831691505092915050565b60006111e783836111bd565b9150826002028217905092915050565b61120082610957565b67ffffffffffffffff81111561121957611218610b35565b5b611223825461101a565b61122e82828561116a565b600060209050601f831160018114611261576000841561124f578287015190505b61125985826111db565b8655506112c1565b601f19841661126f8661104b565b60005b8281101561129757848901518255600182019150602085019450602081019050611272565b868310156112b457848901516112b0601f8916826111bd565b8355505b6001600288020188555050505b505050505050565b7f4e487b7100000000000000000000000000000000000000000000000000000000600052601160045260246000fd5b6000611303826108f4565b91507fffffffffffffffffffffffffffffffffffffffffffffffffffffffffffffffff8203611335576113346112c9565b5b600182019050919050565b7f73747564656e74206e6f7420666f756e64000000000000000000000000000000600082015250565b6000611376601183610962565b915061138182611340565b602082019050919050565b600060208201905081810360008301526113a581611369565b9050919050565b60006113b7826108f4565b91506113c2836108f4565b92508282039050818111156113da576113d96112c9565b5b92915050565b7f4e487b7100000000000000000000000000000000000000000000000000000000600052603260045260246000fd5b60008154905061141e8161101a565b9050919050565b81810361143357505061150b565b61143c8261140f565b67ffffffffffffffff81111561145557611454610b35565b5b61145f825461101a565b61146a82828561116a565b6000601f8311600181146114995760008415611487578287015490505b61149185826111db565b865550611504565b601f1984166114a78761104b565b96506114b28661104b565b60005b828110156114da578489015482556001820191506001850194506020810190506114b5565b868310156114f757848901546114f3601f8916826111bd565b8355505b6001600288020188555050505b5050505050505b565b7f4e487b7100000000000000000000000000000000000000000000000000000000600052603160045260246000fd5b7f496e76616c696420494400000000000000000000000000000000000000000000600082015250565b6000611572600a83610962565b915061157d8261153c565b602082019050919050565b600060208201905081810360008301526115a181611565565b905091905056fea264697066735822122025d68bde547b77a79651162ab6856523ffe7b4fa4af578d677e0972805176fd464736f6c634300081e0033",
  "linkReferences": {},
  "deployedLinkReferences": {}
}