{"abi":[{"type":"constructor","inputs":[{"name":"initialSupply","type":"uint256","internalType":"uint256"}],"stateMutability":"nonpayable"},{"type":"function","name":"allowance","inputs":[{"name":"owner","type":"address","internalType":"address"},{"name":"spender","type":"address","internalType":"address"}],"outputs":[{"name":"","type":"uint256","internalType":"uint256"}],"stateMutability":"view"},{"type":"function","name":"approve","inputs":[{"name":"spender","type":"address","internalType":"address"},{"name":"value","type":"uint256","internalType":"uint256"}],"outputs":[{"name":"","type":"bool","internalType":"bool"}],"stateMutability":"nonpayable"},{"type":"function","name":"balanceOf","inputs":[{"name":"account","type":"address","internalType":"address"}],"outputs":[{"name":"","type":"uint256","internalType":"uint256"}],"stateMutability":"view"},{"type":"function","name":"decimals","inputs":[],"outputs":[{"name":"","type":"uint8","internalType":"uint8"}],"stateMutability":"view"},{"type":"function","name":"name","inputs":[],"outputs":[{"name":"","type":"string","internalType":"string"}],"stateMutability":"view"},{"type":"function","name":"symbol","inputs":[],"outputs":[{"name":"","type":"string","internalType":"string"}],"stateMutability":"view"},{"type":"function","name":"totalSupply","inputs":[],"outputs":[{"name":"","type":"uint256","internalType":"uint256"}],"stateMutability":"view"},{"type":"function","name":"transfer","inputs":[{"name":"to","type":"address","internalType":"address"},{"name":"value","type":"uint256","internalType":"uint256"}],"outputs":[{"name":"","type":"bool","internalType":"bool"}],"stateMutability":"nonpayable"},{"type":"function","name":"transferFrom","inputs":[{"name":"from","type":"address","internalType":"address"},{"name":"to","type":"address","internalType":"address"},{"name":"value","type":"uint256","internalType":"uint256"}],"outputs":[{"name":"","type":"bool","internalType":"bool"}],"stateMutability":"nonpayable"},{"type":"function","name":"transfer_token","inputs":[{"name":"_recipient","type":"address","internalType":"address"}],"outputs":[],"stateMutability":"nonpayable"},{"type":"event","name":"Approval","inputs":[{"name":"owner","type":"address","indexed":true,"internalType":"address"},{"name":"spender","type":"address","indexed":true,"internalType":"address"},{"name":"value","type":"uint256","indexed":false,"internalType":"uint256"}],"anonymous":false},{"type":"event","name":"Transfer","inputs":[{"name":"from","type":"address","indexed":true,"internalType":"address"},{"name":"to","type":"address","indexed":true,"internalType":"address"},{"name":"value","type":"uint256","indexed":false,"internalType":"uint256"}],"anonymous":false},{"type":"error","name":"ERC20InsufficientAllowance","inputs":[{"name":"spender","type":"address","internalType":"address"},{"name":"allowance","type":"uint256","internalType":"uint256"},{"name":"needed","type":"uint256","internalType":"uint256"}]},{"type":"error","name":"ERC20InsufficientBalance","inputs":[{"name":"sender","type":"address","internalType":"address"},{"name":"balance","type":"uint256","internalType":"uint256"},{"name":"needed","type":"uint256","internalType":"uint256"}]},{"type":"error","name":"ERC20InvalidApprover","inputs":[{"name":"approver","type":"address","internalType":"address"}]},{"type":"error","name":"ERC20InvalidReceiver","inputs":[{"name":"receiver","type":"address","internalType":"address"}]},{"type":"error","name":"ERC20InvalidSender","inputs":[{"name":"sender","type":"address","internalType":"address"}]},{"type":"error","name":"ERC20InvalidSpender","inputs":[{"name":"spender","type":"address","internalType":"address"}]}],"bytecode":{"object":"0x608060405234801561000f575f5ffd5b50604051611618380380611618833981810160405281019061003191906103aa565b6040518060400160405280600681526020017f5469636b657400000000000000000000000000000000000000000000000000008152506040518060400160405280600381526020017f544b54000000000000000000000000000000000000000000000000000000000081525081600390816100ac9190610609565b5080600490816100bc9190610609565b5050506100cf33826100d560201b60201c565b506107ed565b5f73ffffffffffffffffffffffffffffffffffffffff168273ffffffffffffffffffffffffffffffffffffffff1603610145575f6040517fec442f0500000000000000000000000000000000000000000000000000000000815260040161013c9190610717565b60405180910390fd5b6101565f838361015a60201b60201c565b5050565b5f73ffffffffffffffffffffffffffffffffffffffff168373ffffffffffffffffffffffffffffffffffffffff16036101aa578060025f82825461019e919061075d565b92505081905550610278565b5f5f5f8573ffffffffffffffffffffffffffffffffffffffff1673ffffffffffffffffffffffffffffffffffffffff1681526020019081526020015f2054905081811015610233578381836040517fe450d38c00000000000000000000000000000000000000000000000000000000815260040161022a9392919061079f565b60405180910390fd5b8181035f5f8673ffffffffffffffffffffffffffffffffffffffff1673ffffffffffffffffffffffffffffffffffffffff1681526020019081526020015f2081905550505b5f73ffffffffffffffffffffffffffffffffffffffff168273ffffffffffffffffffffffffffffffffffffffff16036102bf578060025f8282540392505081905550610309565b805f5f8473ffffffffffffffffffffffffffffffffffffffff1673ffffffffffffffffffffffffffffffffffffffff1681526020019081526020015f205f82825401925050819055505b8173ffffffffffffffffffffffffffffffffffffffff168373ffffffffffffffffffffffffffffffffffffffff167fddf252ad1be2c89b69c2b068fc378daa952ba7f163c4a11628f55a4df523b3ef8360405161036691906107d4565b60405180910390a3505050565b5f5ffd5b5f819050919050565b61038981610377565b8114610393575f5ffd5b50565b5f815190506103a481610380565b92915050565b5f602082840312156103bf576103be610373565b5b5f6103cc84828501610396565b91505092915050565b5f81519050919050565b7f4e487b71000000000000000000000000000000000000000000000000000000005f52604160045260245ffd5b7f4e487b71000000000000000000000000000000000000000000000000000000005f52602260045260245ffd5b5f600282049050600182168061045057607f821691505b6020821081036104635761046261040c565b5b50919050565b5f819050815f5260205f209050919050565b5f6020601f8301049050919050565b5f82821b905092915050565b5f600883026104c57fffffffffffffffffffffffffffffffffffffffffffffffffffffffffffffffff8261048a565b6104cf868361048a565b95508019841693508086168417925050509392505050565b5f819050919050565b5f61050a61050561050084610377565b6104e7565b610377565b9050919050565b5f819050919050565b610523836104f0565b61053761052f82610511565b848454610496565b825550505050565b5f5f905090565b61054e61053f565b61055981848461051a565b505050565b5b8181101561057c576105715f82610546565b60018101905061055f565b5050565b601f8211156105c15761059281610469565b61059b8461047b565b810160208510156105aa578190505b6105be6105b68561047b565b83018261055e565b50505b505050565b5f82821c905092915050565b5f6105e15f19846008026105c6565b1980831691505092915050565b5f6105f983836105d2565b9150826002028217905092915050565b610612826103d5565b67ffffffffffffffff81111561062b5761062a6103df565b5b6106358254610439565b610640828285610580565b5f60209050601f831160018114610671575f841561065f578287015190505b61066985826105ee565b8655506106d0565b601f19841661067f86610469565b5f5b828110156106a657848901518255600182019150602085019450602081019050610681565b868310156106c357848901516106bf601f8916826105d2565b8355505b6001600288020188555050505b505050505050565b5f73ffffffffffffffffffffffffffffffffffffffff82169050919050565b5f610701826106d8565b9050919050565b610711816106f7565b82525050565b5f60208201905061072a5f830184610708565b92915050565b7f4e487b71000000000000000000000000000000000000000000000000000000005f52601160045260245ffd5b5f61076782610377565b915061077283610377565b925082820190508082111561078a57610789610730565b5b92915050565b61079981610377565b82525050565b5f6060820190506107b25f830186610708565b6107bf6020830185610790565b6107cc6040830184610790565b949350505050565b5f6020820190506107e75f830184610790565b92915050565b610e1e806107fa5f395ff3fe608060405234801561000f575f5ffd5b506004361061009b575f3560e01c8063313ce56711610064578063313ce5671461015757806370a082311461017557806395d89b41146101a5578063a9059cbb146101c3578063dd62ed3e146101f35761009b565b80625e39581461009f57806306fdde03146100bb578063095ea7b3146100d957806318160ddd1461010957806323b872dd14610127575b5f5ffd5b6100b960048036038101906100b49190610a85565b610223565b005b6100c3610239565b6040516100d09190610b20565b60405180910390f35b6100f360048036038101906100ee9190610b73565b6102c9565b6040516101009190610bcb565b60405180910390f35b6101116102eb565b60405161011e9190610bf3565b60405180910390f35b610141600480360381019061013c9190610c0c565b6102f4565b60405161014e9190610bcb565b60405180910390f35b61015f610322565b60405161016c9190610c77565b60405180910390f35b61018f600480360381019061018a9190610a85565b61032a565b60405161019c9190610bf3565b60405180910390f35b6101ad61036f565b6040516101ba9190610b20565b60405180910390f35b6101dd60048036038101906101d89190610b73565b6103ff565b6040516101ea9190610bcb565b60405180910390f35b61020d60048036038101906102089190610c90565b610421565b60405161021a9190610bf3565b60405180910390f35b61023581674563918244f400006103ff565b5050565b60606003805461024890610cfb565b80601f016020809104026020016040519081016040528092919081815260200182805461027490610cfb565b80156102bf5780601f10610296576101008083540402835291602001916102bf565b820191905f5260205f20905b8154815290600101906020018083116102a257829003601f168201915b5050505050905090565b5f5f6102d36104a3565b90506102e08185856104aa565b600191505092915050565b5f600254905090565b5f5f6102fe6104a3565b905061030b8582856104bc565b61031685858561054f565b60019150509392505050565b5f6012905090565b5f5f5f8373ffffffffffffffffffffffffffffffffffffffff1673ffffffffffffffffffffffffffffffffffffffff1681526020019081526020015f20549050919050565b60606004805461037e90610cfb565b80601f01602080910402602001604051908101604052809291908181526020018280546103aa90610cfb565b80156103f55780601f106103cc576101008083540402835291602001916103f5565b820191905f5260205f20905b8154815290600101906020018083116103d857829003601f168201915b5050505050905090565b5f5f6104096104a3565b905061041681858561054f565b600191505092915050565b5f60015f8473ffffffffffffffffffffffffffffffffffffffff1673ffffffffffffffffffffffffffffffffffffffff1681526020019081526020015f205f8373ffffffffffffffffffffffffffffffffffffffff1673ffffffffffffffffffffffffffffffffffffffff1681526020019081526020015f2054905092915050565b5f33905090565b6104b7838383600161063f565b505050565b5f6104c78484610421565b90507fffffffffffffffffffffffffffffffffffffffffffffffffffffffffffffffff811015610549578181101561053a578281836040517ffb8f41b200000000000000000000000000000000000000000000000000000000815260040161053193929190610d3a565b60405180910390fd5b61054884848484035f61063f565b5b50505050565b5f73ffffffffffffffffffffffffffffffffffffffff168373ffffffffffffffffffffffffffffffffffffffff16036105bf575f6040517f96c6fd1e0000000000000000000000000000000000000000000000000000000081526004016105b69190610d6f565b60405180910390fd5b5f73ffffffffffffffffffffffffffffffffffffffff168273ffffffffffffffffffffffffffffffffffffffff160361062f575f6040517fec442f050000000000000000000000000000000000000000000000000000000081526004016106269190610d6f565b60405180910390fd5b61063a83838361080e565b505050565b5f73ffffffffffffffffffffffffffffffffffffffff168473ffffffffffffffffffffffffffffffffffffffff16036106af575f6040517fe602df050000000000000000000000000000000000000000000000000000000081526004016106a69190610d6f565b60405180910390fd5b5f73ffffffffffffffffffffffffffffffffffffffff168373ffffffffffffffffffffffffffffffffffffffff160361071f575f6040517f94280d620000000000000000000000000000000000000000000000000000000081526004016107169190610d6f565b60405180910390fd5b8160015f8673ffffffffffffffffffffffffffffffffffffffff1673ffffffffffffffffffffffffffffffffffffffff1681526020019081526020015f205f8573ffffffffffffffffffffffffffffffffffffffff1673ffffffffffffffffffffffffffffffffffffffff1681526020019081526020015f20819055508015610808578273ffffffffffffffffffffffffffffffffffffffff168473ffffffffffffffffffffffffffffffffffffffff167f8c5be1e5ebec7d5bd14f71427d1e84f3dd0314c0f7b2291e5b200ac8c7c3b925846040516107ff9190610bf3565b60405180910390a35b50505050565b5f73ffffffffffffffffffffffffffffffffffffffff168373ffffffffffffffffffffffffffffffffffffffff160361085e578060025f8282546108529190610db5565b9250508190555061092c565b5f5f5f8573ffffffffffffffffffffffffffffffffffffffff1673ffffffffffffffffffffffffffffffffffffffff1681526020019081526020015f20549050818110156108e7578381836040517fe450d38c0000000000000000000000000000000000000000000000000000000081526004016108de93929190610d3a565b60405180910390fd5b8181035f5f8673ffffffffffffffffffffffffffffffffffffffff1673ffffffffffffffffffffffffffffffffffffffff1681526020019081526020015f2081905550505b5f73ffffffffffffffffffffffffffffffffffffffff168273ffffffffffffffffffffffffffffffffffffffff1603610973578060025f82825403925050819055506109bd565b805f5f8473ffffffffffffffffffffffffffffffffffffffff1673ffffffffffffffffffffffffffffffffffffffff1681526020019081526020015f205f82825401925050819055505b8173ffffffffffffffffffffffffffffffffffffffff168373ffffffffffffffffffffffffffffffffffffffff167fddf252ad1be2c89b69c2b068fc378daa952ba7f163c4a11628f55a4df523b3ef83604051610a1a9190610bf3565b60405180910390a3505050565b5f5ffd5b5f73ffffffffffffffffffffffffffffffffffffffff82169050919050565b5f610a5482610a2b565b9050919050565b610a6481610a4a565b8114610a6e575f5ffd5b50565b5f81359050610a7f81610a5b565b92915050565b5f60208284031215610a9a57610a99610a27565b5b5f610aa784828501610a71565b91505092915050565b5f81519050919050565b5f82825260208201905092915050565b8281835e5f83830152505050565b5f601f19601f8301169050919050565b5f610af282610ab0565b610afc8185610aba565b9350610b0c818560208601610aca565b610b1581610ad8565b840191505092915050565b5f6020820190508181035f830152610b388184610ae8565b905092915050565b5f819050919050565b610b5281610b40565b8114610b5c575f5ffd5b50565b5f81359050610b6d81610b49565b92915050565b5f5f60408385031215610b8957610b88610a27565b5b5f610b9685828601610a71565b9250506020610ba785828601610b5f565b9150509250929050565b5f8115159050919050565b610bc581610bb1565b82525050565b5f602082019050610bde5f830184610bbc565b92915050565b610bed81610b40565b82525050565b5f602082019050610c065f830184610be4565b92915050565b5f5f5f60608486031215610c2357610c22610a27565b5b5f610c3086828701610a71565b9350506020610c4186828701610a71565b9250506040610c5286828701610b5f565b9150509250925092565b5f60ff82169050919050565b610c7181610c5c565b82525050565b5f602082019050610c8a5f830184610c68565b92915050565b5f5f60408385031215610ca657610ca5610a27565b5b5f610cb385828601610a71565b9250506020610cc485828601610a71565b9150509250929050565b7f4e487b71000000000000000000000000000000000000000000000000000000005f52602260045260245ffd5b5f6002820490506001821680610d1257607f821691505b602082108103610d2557610d24610cce565b5b50919050565b610d3481610a4a565b82525050565b5f606082019050610d4d5f830186610d2b565b610d5a6020830185610be4565b610d676040830184610be4565b949350505050565b5f602082019050610d825f830184610d2b565b92915050565b7f4e487b71000000000000000000000000000000000000000000000000000000005f52601160045260245ffd5b5f610dbf82610b40565b9150610dca83610b40565b9250828201905080821115610de257610de1610d88565b5b9291505056fea26469706673582212206eeba41692b1b49c24cee031405c4c095ce7c96787201921582bdefa0f7f94e264736f6c634300081e0033","linkReferences":{}},"methodIdentifiers":{"allowance(address,address)":"dd62ed3e","approve(address,uint256)":"095ea7b3","balanceOf(address)":"70a08231","decimals()":"313ce567","name()":"06fdde03","symbol()":"95d89b41","totalSupply()":"18160ddd","transfer(address,uint256)":"a9059cbb","transferFrom(address,address,uint256)":"23b872dd","transfer_token(address)":"005e3958"},"id":37}