{
  "contracts/Factory.sol": {
    "Factory": {
      "abi": [
        {
          "inputs": [
            {
              "internalType": "string",
              "name": "_schoolName",
              "type": "string"
            }
          ],
          "name": "CreateSchool",
          "outputs": [
            {
              "internalType": "address",
              "name": "",
              "type": "address"
            }
          ],
          "stateMutability": "nonpayable",
          "type": "function"
        },
        {
          "inputs": [],
          "name": "GetAllSchools",
          "outputs": [
            {
              "components": [
                {
                  "internalType": "address",
                  "name": "schoolContract",
                  "type": "address"
                },
                {
                  "internalType": "string",
                  "name": "schoolName",
                  "type": "string"
                },
                {
                  "internalType": "address",
                  "name": "owner",
                  "type": "address"
                },
                {
                  "internalType": "uint256",
                  "name": "createdAt",
                  "type": "uint256"
                }
              ],
              "internalType": "struct Factory.SchoolInfo[]",
              "name": "",
              "type": "tuple[]"
            }
          ],
          "stateMutability": "view",
          "type": "function"
        },
        {
          "inputs": [],
          "name": "GetSchoolCount",
          "outputs": [
            {
              "internalType": "uint256",
              "name": "",
              "type": "uint256"
            }
          ],
          "stateMutability": "view",
          "type": "function"
        },
        {
          "inputs": [
            {
              "internalType": "uint256",
              "name": "schoolId",
              "type": "uint256"
            }
          ],
          "name": "GetSchoolInfo",
          "outputs": [
            {
              "internalType": "address",
              "name": "schoolContract",
              "type": "address"
            },
            {
              "internalType": "string",
              "name": "schoolName",
              "type": "string"
            },
            {
              "internalType": "address",
              "name": "owner",
              "type": "address"
            },
            {
              "internalType": "uint256",
              "name": "createdAt",
              "type": "uint256"
            }
          ],
          "stateMutability": "view",
          "type": "function"
        },
        {
          "inputs": [
            {
              "internalType": "address",
              "name": "owner",
              "type": "address"
            }
          ],
          "name": "GetSchoolsByOwner",
          "outputs": [
            {
              "internalType": "address[]",
              "name": "",
              "type": "address[]"
            }
          ],
          "stateMutability": "view",
          "type": "function"
        },
        {
          "inputs": [
            {
              "internalType": "address",
              "name": "schoolAddress",
              "type": "address"
            }
          ],
          "name": "IsValidSchool",
          "outputs": [
            {
              "internalType": "bool",
              "name": "",
              "type": "bool"
            }
          ],
          "stateMutability": "view",
          "type": "function"
        },
        {
          "inputs": [
            {
              "internalType": "address",
              "name": "",
              "type": "address"
            }
          ],
          "name": "isSchoolContract",
          "outputs": [
            {
              "internalType": "bool",
              "name": "",
              "type": "bool"
            }
          ],
          "stateMutability": "view",
          "type": "function"
        },
        {
          "inputs": [
            {
              "internalType": "uint256",
              "name": "",
              "type": "uint256"
            }
          ],
          "name": "schools",
          "outputs": [
            {
              "internalType": "address",
              "name": "schoolContract",
              "type": "address"
            },
            {
              "internalType": "string",
              "name": "schoolName",
              "type": "string"
            },
            {
              "internalType": "address",
              "name": "owner",
              "type": "address"
            },
            {
              "internalType": "uint256",
              "name": "createdAt",
              "type": "uint256"
            }
          ],
          "stateMutability": "view",
          "type": "function"
        },
        {
          "inputs": [
            {
              "internalType": "address",
              "name": "",
              "type": "address"
            },
            {
              "internalType": "uint256",
              "name": "",
              "type": "uint256"
            }
          ],
          "name": "schoolsByOwner",
          "outputs": [
            {
              "internalType": "address",
              "name": "",
              "type": "address"
            }
          ],
          "stateMutability": "view",
          "type": "function"
        }
      ],
      "evm": {
        "bytecode": {
          "linkReferences": {},
          "object": "6080604052348015600f57600080fd5b506133b58061001f6000396000f3fe608060405234801561001057600080fd5b50600436106100935760003560e01c8063ba0255c311610066578063ba0255c31461015e578063d3e0d5151461017c578063fad34ab2146101ac578063fbd4312a146101dc578063fefaf20c146101fa57610093565b806330fb9290146100985780633bb4ce35146100c857806346ee01d9146100fb578063719c0d041461012b575b600080fd5b6100b260048036038101906100ad9190610c7b565b61022a565b6040516100bf9190610d05565b60405180910390f35b6100e260048036038101906100dd9190610d56565b6104de565b6040516100f29493929190610e11565b60405180910390f35b61011560048036038101906101109190610e89565b6106c8565b6040516101229190610d05565b60405180910390f35b61014560048036038101906101409190610d56565b610716565b6040516101559493929190610e11565b60405180910390f35b61016661081e565b6040516101739190610ec9565b60405180910390f35b61019660048036038101906101919190610ee4565b61082a565b6040516101a39190610fcf565b60405180910390f35b6101c660048036038101906101c19190610ee4565b6108f7565b6040516101d3919061100c565b60405180910390f35b6101e461094d565b6040516101f191906111a5565b60405180910390f35b610214600480360381019061020f9190610ee4565b610af4565b604051610221919061100c565b60405180910390f35b60008082511161026f576040517f08c379a000000000000000000000000000000000000000000000000000000000815260040161026690611213565b60405180910390fd5b6000823360405161027f90610b14565b61028a929190611233565b604051809103906000f0801580156102a6573d6000803e3d6000fd5b5090506000819050600060405180608001604052808373ffffffffffffffffffffffffffffffffffffffff1681526020018681526020013373ffffffffffffffffffffffffffffffffffffffff168152602001428152509050600081908060018154018082558091505060019003906000526020600020906004020160009091909190915060008201518160000160006101000a81548173ffffffffffffffffffffffffffffffffffffffff021916908373ffffffffffffffffffffffffffffffffffffffff1602179055506020820151816001019081610387919061146f565b5060408201518160020160006101000a81548173ffffffffffffffffffffffffffffffffffffffff021916908373ffffffffffffffffffffffffffffffffffffffff160217905550606082015181600301555050600160003373ffffffffffffffffffffffffffffffffffffffff1673ffffffffffffffffffffffffffffffffffffffff168152602001908152602001600020829080600181540180825580915050600190039060005260206000200160009091909190916101000a81548173ffffffffffffffffffffffffffffffffffffffff021916908373ffffffffffffffffffffffffffffffffffffffff1602179055506001600260008473ffffffffffffffffffffffffffffffffffffffff1673ffffffffffffffffffffffffffffffffffffffff16815260200190815260200160002060006101000a81548160ff021916908315150217905550819350505050919050565b60006060600080600080549050851061052c576040517f08c379a00000000000000000000000000000000000000000000000000000000081526004016105239061158d565b60405180910390fd5b6000808681548110610541576105406115ad565b5b90600052602060002090600402016040518060800160405290816000820160009054906101000a900473ffffffffffffffffffffffffffffffffffffffff1673ffffffffffffffffffffffffffffffffffffffff1673ffffffffffffffffffffffffffffffffffffffff1681526020016001820180546105c090611292565b80601f01602080910402602001604051908101604052809291908181526020018280546105ec90611292565b80156106395780601f1061060e57610100808354040283529160200191610639565b820191906000526020600020905b81548152906001019060200180831161061c57829003601f168201915b505050505081526020016002820160009054906101000a900473ffffffffffffffffffffffffffffffffffffffff1673ffffffffffffffffffffffffffffffffffffffff1673ffffffffffffffffffffffffffffffffffffffff168152602001600382015481525050905080600001518160200151826040015183606001519450945094509450509193509193565b600160205281600052604060002081815481106106e457600080fd5b906000526020600020016000915091509054906101000a900473ffffffffffffffffffffffffffffffffffffffff1681565b6000818154811061072657600080fd5b90600052602060002090600402016000915090508060000160009054906101000a900473ffffffffffffffffffffffffffffffffffffffff169080600101805461076f90611292565b80601f016020809104026020016040519081016040528092919081815260200182805461079b90611292565b80156107e85780601f106107bd576101008083540402835291602001916107e8565b820191906000526020600020905b8154815290600101906020018083116107cb57829003601f168201915b5050505050908060020160009054906101000a900473ffffffffffffffffffffffffffffffffffffffff16908060030154905084565b60008080549050905090565b6060600160008373ffffffffffffffffffffffffffffffffffffffff1673ffffffffffffffffffffffffffffffffffffffff1681526020019081526020016000208054806020026020016040519081016040528092919081815260200182805480156108eb57602002820191906000526020600020905b8160009054906101000a900473ffffffffffffffffffffffffffffffffffffffff1673ffffffffffffffffffffffffffffffffffffffff16815260200190600101908083116108a1575b50505050509050919050565b6000600260008373ffffffffffffffffffffffffffffffffffffffff1673ffffffffffffffffffffffffffffffffffffffff16815260200190815260200160002060009054906101000a900460ff169050919050565b60606000805480602002602001604051908101604052809291908181526020016000905b82821015610aeb57838290600052602060002090600402016040518060800160405290816000820160009054906101000a900473ffffffffffffffffffffffffffffffffffffffff1673ffffffffffffffffffffffffffffffffffffffff1673ffffffffffffffffffffffffffffffffffffffff1681526020016001820180546109fa90611292565b80601f0160208091040260200160405190810160405280929190818152602001828054610a2690611292565b8015610a735780601f10610a4857610100808354040283529160200191610a73565b820191906000526020600020905b815481529060010190602001808311610a5657829003601f168201915b505050505081526020016002820160009054906101000a900473ffffffffffffffffffffffffffffffffffffffff1673ffffffffffffffffffffffffffffffffffffffff1673ffffffffffffffffffffffffffffffffffffffff16815260200160038201548152505081526020019060010190610971565b50505050905090565b60026020528060005260406000206000915054906101000a900460ff1681565b611da3806115dd83390190565b6000604051905090565b600080fd5b600080fd5b600080fd5b600080fd5b6000601f19601f8301169050919050565b7f4e487b7100000000000000000000000000000000000000000000000000000000600052604160045260246000fd5b610b8882610b3f565b810181811067ffffffffffffffff82111715610ba757610ba6610b50565b5b80604052505050565b6000610bba610b21565b9050610bc68282610b7f565b919050565b600067ffffffffffffffff821115610be657610be5610b50565b5b610bef82610b3f565b9050602081019050919050565b82818337600083830152505050565b6000610c1e610c1984610bcb565b610bb0565b905082815260208101848484011115610c3a57610c39610b3a565b5b610c45848285610bfc565b509392505050565b600082601f830112610c6257610c61610b35565b5b8135610c72848260208601610c0b565b91505092915050565b600060208284031215610c9157610c90610b2b565b5b600082013567ffffffffffffffff811115610caf57610cae610b30565b5b610cbb84828501610c4d565b91505092915050565b600073ffffffffffffffffffffffffffffffffffffffff82169050919050565b6000610cef82610cc4565b9050919050565b610cff81610ce4565b82525050565b6000602082019050610d1a6000830184610cf6565b92915050565b6000819050919050565b610d3381610d20565b8114610d3e57600080fd5b50565b600081359050610d5081610d2a565b92915050565b600060208284031215610d6c57610d6b610b2b565b5b6000610d7a84828501610d41565b91505092915050565b600081519050919050565b600082825260208201905092915050565b60005b83811015610dbd578082015181840152602081019050610da2565b60008484015250505050565b6000610dd482610d83565b610dde8185610d8e565b9350610dee818560208601610d9f565b610df781610b3f565b840191505092915050565b610e0b81610d20565b82525050565b6000608082019050610e266000830187610cf6565b8181036020830152610e388186610dc9565b9050610e476040830185610cf6565b610e546060830184610e02565b95945050505050565b610e6681610ce4565b8114610e7157600080fd5b50565b600081359050610e8381610e5d565b92915050565b60008060408385031215610ea057610e9f610b2b565b5b6000610eae85828601610e74565b9250506020610ebf85828601610d41565b9150509250929050565b6000602082019050610ede6000830184610e02565b92915050565b600060208284031215610efa57610ef9610b2b565b5b6000610f0884828501610e74565b91505092915050565b600081519050919050565b600082825260208201905092915050565b6000819050602082019050919050565b610f4681610ce4565b82525050565b6000610f588383610f3d565b60208301905092915050565b6000602082019050919050565b6000610f7c82610f11565b610f868185610f1c565b9350610f9183610f2d565b8060005b83811015610fc2578151610fa98882610f4c565b9750610fb483610f64565b925050600181019050610f95565b5085935050505092915050565b60006020820190508181036000830152610fe98184610f71565b905092915050565b60008115159050919050565b61100681610ff1565b82525050565b60006020820190506110216000830184610ffd565b92915050565b600081519050919050565b600082825260208201905092915050565b6000819050602082019050919050565b600082825260208201905092915050565b600061106f82610d83565b6110798185611053565b9350611089818560208601610d9f565b61109281610b3f565b840191505092915050565b6110a681610d20565b82525050565b60006080830160008301516110c46000860182610f3d565b50602083015184820360208601526110dc8282611064565b91505060408301516110f16040860182610f3d565b506060830151611104606086018261109d565b508091505092915050565b600061111b83836110ac565b905092915050565b6000602082019050919050565b600061113b82611027565b6111458185611032565b93508360208202850161115785611043565b8060005b858110156111935784840389528151611174858261110f565b945061117f83611123565b925060208a0199505060018101905061115b565b50829750879550505050505092915050565b600060208201905081810360008301526111bf8184611130565b905092915050565b7f5363686f6f6c206e616d652063616e6e6f7420626520656d7074790000000000600082015250565b60006111fd601b83610d8e565b9150611208826111c7565b602082019050919050565b6000602082019050818103600083015261122c816111f0565b9050919050565b6000604082019050818103600083015261124d8185610dc9565b905061125c6020830184610cf6565b9392505050565b7f4e487b7100000000000000000000000000000000000000000000000000000000600052602260045260246000fd5b600060028204905060018216806112aa57607f821691505b6020821081036112bd576112bc611263565b5b50919050565b60008190508160005260206000209050919050565b60006020601f8301049050919050565b600082821b905092915050565b6000600883026113257fffffffffffffffffffffffffffffffffffffffffffffffffffffffffffffffff826112e8565b61132f86836112e8565b95508019841693508086168417925050509392505050565b6000819050919050565b600061136c61136761136284610d20565b611347565b610d20565b9050919050565b6000819050919050565b61138683611351565b61139a61139282611373565b8484546112f5565b825550505050565b600090565b6113af6113a2565b6113ba81848461137d565b505050565b5b818110156113de576113d36000826113a7565b6001810190506113c0565b5050565b601f821115611423576113f4816112c3565b6113fd846112d8565b8101602085101561140c578190505b611420611418856112d8565b8301826113bf565b50505b505050565b600082821c905092915050565b600061144660001984600802611428565b1980831691505092915050565b600061145f8383611435565b9150826002028217905092915050565b61147882610d83565b67ffffffffffffffff81111561149157611490610b50565b5b61149b8254611292565b6114a68282856113e2565b600060209050601f8311600181146114d957600084156114c7578287015190505b6114d18582611453565b865550611539565b601f1984166114e7866112c3565b60005b8281101561150f578489015182556001820191506020850194506020810190506114ea565b8683101561152c5784890151611528601f891682611435565b8355505b6001600288020188555050505b505050505050565b7f5363686f6f6c20646f6573206e6f742065786973740000000000000000000000600082015250565b6000611577601583610d8e565b915061158282611541565b602082019050919050565b600060208201905081810360008301526115a68161156a565b9050919050565b7f4e487b7100000000000000000000000000000000000000000000000000000000600052603260045260246000fdfe608060405234801561001057600080fd5b50604051611da3380380611da38339818101604052810190610032919061025d565b816000908161004191906104da565b5080600160006101000a81548173ffffffffffffffffffffffffffffffffffffffff021916908373ffffffffffffffffffffffffffffffffffffffff16021790555050506105ac565b6000604051905090565b600080fd5b600080fd5b600080fd5b600080fd5b6000601f19601f8301169050919050565b7f4e487b7100000000000000000000000000000000000000000000000000000000600052604160045260246000fd5b6100f1826100a8565b810181811067ffffffffffffffff821117156101105761010f6100b9565b5b80604052505050565b600061012361008a565b905061012f82826100e8565b919050565b600067ffffffffffffffff82111561014f5761014e6100b9565b5b610158826100a8565b9050602081019050919050565b60005b83811015610183578082015181840152602081019050610168565b60008484015250505050565b60006101a261019d84610134565b610119565b9050828152602081018484840111156101be576101bd6100a3565b5b6101c9848285610165565b509392505050565b600082601f8301126101e6576101e561009e565b5b81516101f684826020860161018f565b91505092915050565b600073ffffffffffffffffffffffffffffffffffffffff82169050919050565b600061022a826101ff565b9050919050565b61023a8161021f565b811461024557600080fd5b50565b60008151905061025781610231565b92915050565b6000806040838503121561027457610273610094565b5b600083015167ffffffffffffffff81111561029257610291610099565b5b61029e858286016101d1565b92505060206102af85828601610248565b9150509250929050565b600081519050919050565b7f4e487b7100000000000000000000000000000000000000000000000000000000600052602260045260246000fd5b6000600282049050600182168061030b57607f821691505b60208210810361031e5761031d6102c4565b5b50919050565b60008190508160005260206000209050919050565b60006020601f8301049050919050565b600082821b905092915050565b6000600883026103867fffffffffffffffffffffffffffffffffffffffffffffffffffffffffffffffff82610349565b6103908683610349565b95508019841693508086168417925050509392505050565b6000819050919050565b6000819050919050565b60006103d76103d26103cd846103a8565b6103b2565b6103a8565b9050919050565b6000819050919050565b6103f1836103bc565b6104056103fd826103de565b848454610356565b825550505050565b600090565b61041a61040d565b6104258184846103e8565b505050565b5b818110156104495761043e600082610412565b60018101905061042b565b5050565b601f82111561048e5761045f81610324565b61046884610339565b81016020851015610477578190505b61048b61048385610339565b83018261042a565b50505b505050565b600082821c905092915050565b60006104b160001984600802610493565b1980831691505092915050565b60006104ca83836104a0565b9150826002028217905092915050565b6104e3826102b9565b67ffffffffffffffff8111156104fc576104fb6100b9565b5b61050682546102f3565b61051182828561044d565b600060209050601f8311600181146105445760008415610532578287015190505b61053c85826104be565b8655506105a4565b601f19841661055286610324565b60005b8281101561057a57848901518255600182019150602085019450602081019050610555565b868310156105975784890151610593601f8916826104a0565b8355505b6001600288020188555050505b505050505050565b6117e8806105bb6000396000f3fe608060405234801561001057600080fd5b506004361061007d5760003560e01c80633fee23951161005b5780633fee2395146101065780634fab184914610122578063534a93a414610140578063c95c46751461015c5761007d565b8063066542bd1461008257806306ead22e146100b6578063199c4976146100ea575b600080fd5b61009c60048036038101906100979190610c04565b610178565b6040516100ad959493929190610d8f565b60405180910390f35b6100d060048036038101906100cb9190610c04565b6103c9565b6040516100e1959493929190610d8f565b60405180910390f35b61010460048036038101906100ff9190610e15565b610539565b005b610120600480360381019061011b9190610f8a565b6105d1565b005b61012a61067a565b60405161013791906111af565b60405180910390f35b61015a60048036038101906101559190610c04565b61087d565b005b610176600480360381019061017191906111f6565b610a48565b005b60606000606060008060028054905086106101c8576040517f08c379a00000000000000000000000000000000000000000000000000000000081526004016101bf906112f5565b60405180910390fd5b600286815481106101dc576101db611315565b5b90600052602060002090600402016000016002878154811061020157610200611315565b5b9060005260206000209060040201600101546002888154811061022757610226611315565b5b90600052602060002090600402016002016002898154811061024c5761024b611315565b5b906000526020600020906004020160030160009054906101000a900460ff1660028a8154811061027f5761027e611315565b5b906000526020600020906004020160030160019054906101000a900460ff168480546102aa90611373565b80601f01602080910402602001604051908101604052809291908181526020018280546102d690611373565b80156103235780601f106102f857610100808354040283529160200191610323565b820191906000526020600020905b81548152906001019060200180831161030657829003601f168201915b5050505050945082805461033690611373565b80601f016020809104026020016040519081016040528092919081815260200182805461036290611373565b80156103af5780601f10610384576101008083540402835291602001916103af565b820191906000526020600020905b81548152906001019060200180831161039257829003601f168201915b505050505092509450945094509450945091939590929450565b600281815481106103d957600080fd5b90600052602060002090600402016000915090508060000180546103fc90611373565b80601f016020809104026020016040519081016040528092919081815260200182805461042890611373565b80156104755780601f1061044a57610100808354040283529160200191610475565b820191906000526020600020905b81548152906001019060200180831161045857829003601f168201915b50505050509080600101549080600201805461049090611373565b80601f01602080910402602001604051908101604052809291908181526020018280546104bc90611373565b80156105095780601f106104de57610100808354040283529160200191610509565b820191906000526020600020905b8154815290600101906020018083116104ec57829003601f168201915b5050505050908060030160009054906101000a900460ff16908060030160019054906101000a900460ff16905085565b6002805490508210610580576040517f08c379a0000000000000000000000000000000000000000000000000000000008152600401610577906112f5565b60405180910390fd5b806002838154811061059557610594611315565b5b906000526020600020906004020160030160016101000a81548160ff021916908360028111156105c8576105c7610cd0565b5b02179055505050565b6002805490508310610618576040517f08c379a000000000000000000000000000000000000000000000000000000000815260040161060f906112f5565b60405180910390fd5b816002848154811061062d5761062c611315565b5b9060005260206000209060040201600001908161064a9190611550565b5080600284815481106106605761065f611315565b5b906000526020600020906004020160010181905550505050565b60606002805480602002602001604051908101604052809291908181526020016000905b8282101561087457838290600052602060002090600402016040518060a00160405290816000820180546106d190611373565b80601f01602080910402602001604051908101604052809291908181526020018280546106fd90611373565b801561074a5780601f1061071f5761010080835404028352916020019161074a565b820191906000526020600020905b81548152906001019060200180831161072d57829003601f168201915b505050505081526020016001820154815260200160028201805461076d90611373565b80601f016020809104026020016040519081016040528092919081815260200182805461079990611373565b80156107e65780601f106107bb576101008083540402835291602001916107e6565b820191906000526020600020905b8154815290600101906020018083116107c957829003601f168201915b505050505081526020016003820160009054906101000a900460ff16600181111561081457610813610cd0565b5b600181111561082657610825610cd0565b5b81526020016003820160019054906101000a900460ff16600281111561084f5761084e610cd0565b5b600281111561086157610860610cd0565b5b815250508152602001906001019061069e565b50505050905090565b60028054905081106108c4576040517f08c379a00000000000000000000000000000000000000000000000000000000081526004016108bb906112f5565b60405180910390fd5b600260016002805490506108d89190611651565b815481106108e9576108e8611315565b5b90600052602060002090600402016002828154811061090b5761090a611315565b5b90600052602060002090600402016000820181600001908161092d919061169b565b50600182015481600101556002820181600201908161094c919061169b565b506003820160009054906101000a900460ff168160030160006101000a81548160ff0219169083600181111561098557610984610cd0565b5b02179055506003820160019054906101000a900460ff168160030160016101000a81548160ff021916908360028111156109c2576109c1610cd0565b5b021790555090505060028054806109dc576109db611783565b5b600190038181906000526020600020906004020160008082016000610a019190610b5d565b6001820160009055600282016000610a199190610b5d565b6003820160006101000a81549060ff02191690556003820160016101000a81549060ff02191690555050905550565b60026040518060a00160405280878152602001868152602001858152602001846001811115610a7a57610a79610cd0565b5b8152602001836002811115610a9257610a91610cd0565b5b81525090806001815401808255809150506001900390600052602060002090600402016000909190919091506000820151816000019081610ad39190611550565b50602082015181600101556040820151816002019081610af39190611550565b5060608201518160030160006101000a81548160ff02191690836001811115610b1f57610b1e610cd0565b5b021790555060808201518160030160016101000a81548160ff02191690836002811115610b4f57610b4e610cd0565b5b021790555050505050505050565b508054610b6990611373565b6000825580601f10610b7b5750610b9a565b601f016020900490600052602060002090810190610b999190610b9d565b5b50565b5b80821115610bb6576000816000905550600101610b9e565b5090565b6000604051905090565b600080fd5b600080fd5b6000819050919050565b610be181610bce565b8114610bec57600080fd5b50565b600081359050610bfe81610bd8565b92915050565b600060208284031215610c1a57610c19610bc4565b5b6000610c2884828501610bef565b91505092915050565b600081519050919050565b600082825260208201905092915050565b60005b83811015610c6b578082015181840152602081019050610c50565b60008484015250505050565b6000601f19601f8301169050919050565b6000610c9382610c31565b610c9d8185610c3c565b9350610cad818560208601610c4d565b610cb681610c77565b840191505092915050565b610cca81610bce565b82525050565b7f4e487b7100000000000000000000000000000000000000000000000000000000600052602160045260246000fd5b60028110610d1057610d0f610cd0565b5b50565b6000819050610d2182610cff565b919050565b6000610d3182610d13565b9050919050565b610d4181610d26565b82525050565b60038110610d5857610d57610cd0565b5b50565b6000819050610d6982610d47565b919050565b6000610d7982610d5b565b9050919050565b610d8981610d6e565b82525050565b600060a0820190508181036000830152610da98188610c88565b9050610db86020830187610cc1565b8181036040830152610dca8186610c88565b9050610dd96060830185610d38565b610de66080830184610d80565b9695505050505050565b60038110610dfd57600080fd5b50565b600081359050610e0f81610df0565b92915050565b60008060408385031215610e2c57610e2b610bc4565b5b6000610e3a85828601610bef565b9250506020610e4b85828601610e00565b9150509250929050565b600080fd5b600080fd5b7f4e487b7100000000000000000000000000000000000000000000000000000000600052604160045260246000fd5b610e9782610c77565b810181811067ffffffffffffffff82111715610eb657610eb5610e5f565b5b80604052505050565b6000610ec9610bba565b9050610ed58282610e8e565b919050565b600067ffffffffffffffff821115610ef557610ef4610e5f565b5b610efe82610c77565b9050602081019050919050565b82818337600083830152505050565b6000610f2d610f2884610eda565b610ebf565b905082815260208101848484011115610f4957610f48610e5a565b5b610f54848285610f0b565b509392505050565b600082601f830112610f7157610f70610e55565b5b8135610f81848260208601610f1a565b91505092915050565b600080600060608486031215610fa357610fa2610bc4565b5b6000610fb186828701610bef565b935050602084013567ffffffffffffffff811115610fd257610fd1610bc9565b5b610fde86828701610f5c565b9250506040610fef86828701610bef565b9150509250925092565b600081519050919050565b600082825260208201905092915050565b6000819050602082019050919050565b600082825260208201905092915050565b600061104182610c31565b61104b8185611025565b935061105b818560208601610c4d565b61106481610c77565b840191505092915050565b61107881610bce565b82525050565b61108781610d26565b82525050565b61109681610d6e565b82525050565b600060a08301600083015184820360008601526110b98282611036565b91505060208301516110ce602086018261106f565b50604083015184820360408601526110e68282611036565b91505060608301516110fb606086018261107e565b50608083015161110e608086018261108d565b508091505092915050565b6000611125838361109c565b905092915050565b6000602082019050919050565b600061114582610ff9565b61114f8185611004565b93508360208202850161116185611015565b8060005b8581101561119d578484038952815161117e8582611119565b94506111898361112d565b925060208a01995050600181019050611165565b50829750879550505050505092915050565b600060208201905081810360008301526111c9818461113a565b905092915050565b600281106111de57600080fd5b50565b6000813590506111f0816111d1565b92915050565b600080600080600060a0868803121561121257611211610bc4565b5b600086013567ffffffffffffffff8111156112305761122f610bc9565b5b61123c88828901610f5c565b955050602061124d88828901610bef565b945050604086013567ffffffffffffffff81111561126e5761126d610bc9565b5b61127a88828901610f5c565b935050606061128b888289016111e1565b925050608061129c88828901610e00565b9150509295509295909350565b7f53747564656e7420646f6573206e6f7420657869737400000000000000000000600082015250565b60006112df601683610c3c565b91506112ea826112a9565b602082019050919050565b6000602082019050818103600083015261130e816112d2565b9050919050565b7f4e487b7100000000000000000000000000000000000000000000000000000000600052603260045260246000fd5b7f4e487b7100000000000000000000000000000000000000000000000000000000600052602260045260246000fd5b6000600282049050600182168061138b57607f821691505b60208210810361139e5761139d611344565b5b50919050565b60008190508160005260206000209050919050565b60006020601f8301049050919050565b600082821b905092915050565b6000600883026114067fffffffffffffffffffffffffffffffffffffffffffffffffffffffffffffffff826113c9565b61141086836113c9565b95508019841693508086168417925050509392505050565b6000819050919050565b600061144d61144861144384610bce565b611428565b610bce565b9050919050565b6000819050919050565b61146783611432565b61147b61147382611454565b8484546113d6565b825550505050565b600090565b611490611483565b61149b81848461145e565b505050565b5b818110156114bf576114b4600082611488565b6001810190506114a1565b5050565b601f821115611504576114d5816113a4565b6114de846113b9565b810160208510156114ed578190505b6115016114f9856113b9565b8301826114a0565b50505b505050565b600082821c905092915050565b600061152760001984600802611509565b1980831691505092915050565b60006115408383611516565b9150826002028217905092915050565b61155982610c31565b67ffffffffffffffff81111561157257611571610e5f565b5b61157c8254611373565b6115878282856114c3565b600060209050601f8311600181146115ba57600084156115a8578287015190505b6115b28582611534565b86555061161a565b601f1984166115c8866113a4565b60005b828110156115f0578489015182556001820191506020850194506020810190506115cb565b8683101561160d5784890151611609601f891682611516565b8355505b6001600288020188555050505b505050505050565b7f4e487b7100000000000000000000000000000000000000000000000000000000600052601160045260246000fd5b600061165c82610bce565b915061166783610bce565b925082820390508181111561167f5761167e611622565b5b92915050565b60008154905061169481611373565b9050919050565b8181036116a9575050611781565b6116b282611685565b67ffffffffffffffff8111156116cb576116ca610e5f565b5b6116d58254611373565b6116e08282856114c3565b6000601f83116001811461170f57600084156116fd578287015490505b6117078582611534565b86555061177a565b601f19841661171d876113a4565b9650611728866113a4565b60005b828110156117505784890154825560018201915060018501945060208101905061172b565b8683101561176d5784890154611769601f891682611516565b8355505b6001600288020188555050505b5050505050505b565b7f4e487b7100000000000000000000000000000000000000000000000000000000600052603160045260246000fdfea26469706673582212202104e5d0904a2e2de48675b24082677dd3112558fae1654ded2fe34a62e0e1a664736f6c634300081c0033a26469706673582212200906994b768f4cb71b3228b99956c34cc12609037fbb86625c24da026db7fece64736f6c634300081c0033",
          "opcodes": "PUSH1 0x80 PUSH1 0x40 MSTORE CALLVALUE DUP1 ISZERO PUSH1 0xF JUMPI PUSH1 0x0 DUP1 REVERT JUMPDEST POP PUSH2 0x33B5 DUP1 PUSH2 0x1F PUSH1 0x0 CODECOPY PUSH1 0x0 RETURN INVALID PUSH1 0x80 PUSH1 0x40 MSTORE CALLVALUE DUP1 ISZERO PUSH2 0x10 JUMPI PUSH1 0x0 DUP1 REVERT JUMPDEST POP PUSH1 0x4 CALLDATASIZE LT PUSH2 0x93 JUMPI PUSH1 0x0 CALLDATALOAD PUSH1 0xE0 SHR DUP1 PUSH4 0xBA0255C3 GT PUSH2 0x66 JUMPI DUP1 PUSH4 0xBA0255C3 EQ PUSH2 0x15E JUMPI DUP1 PUSH4 0xD3E0D515 EQ PUSH2 0x17C JUMPI DUP1 PUSH4 0xFAD34AB2 EQ PUSH2 0x1AC JUMPI DUP1 PUSH4 0xFBD4312A EQ PUSH2 0x1DC JUMPI DUP1 PUSH4 0xFEFAF20C EQ PUSH2 0x1FA JUMPI PUSH2 0x93 JUMP JUMPDEST DUP1 PUSH4 0x30FB9290 EQ PUSH2 0x98 JUMPI DUP1 PUSH4 0x3BB4CE35 EQ PUSH2 0xC8 JUMPI DUP1 PUSH4 0x46EE01D9 EQ PUSH2 0xFB JUMPI DUP1 PUSH4 0x719C0D04 EQ PUSH2 0x12B JUMPI JUMPDEST PUSH1 0x0 DUP1 REVERT JUMPDEST PUSH2 0xB2 PUSH1 0x4 DUP1 CALLDATASIZE SUB DUP2 ADD SWAP1 PUSH2 0xAD SWAP2 SWAP1 PUSH2 0xC7B JUMP JUMPDEST PUSH2 0x22A JUMP JUMPDEST PUSH1 0x40 MLOAD PUSH2 0xBF SWAP2 SWAP1 PUSH2 0xD05 JUMP JUMPDEST PUSH1 0x40 MLOAD DUP1 SWAP2 SUB SWAP1 RETURN JUMPDEST PUSH2 0xE2 PUSH1 0x4 DUP1 CALLDATASIZE SUB DUP2 ADD SWAP1 PUSH2 0xDD SWAP2 SWAP1 PUSH2 0xD56 JUMP JUMPDEST PUSH2 0x4DE JUMP JUMPDEST PUSH1 0x40 MLOAD PUSH2 0xF2 SWAP5 SWAP4 SWAP3 SWAP2 SWAP1 PUSH2 0xE11 JUMP JUMPDEST PUSH1 0x40 MLOAD DUP1 SWAP2 SUB SWAP1 RETURN JUMPDEST PUSH2 0x115 PUSH1 0x4 DUP1 CALLDATASIZE SUB DUP2 ADD SWAP1 PUSH2 0x110 SWAP2 SWAP1 PUSH2 0xE89 JUMP JUMPDEST PUSH2 0x6C8 JUMP JUMPDEST PUSH1 0x40 MLOAD PUSH2 0x122 SWAP2 SWAP1 PUSH2 0xD05 JUMP JUMPDEST PUSH1 0x40 MLOAD DUP1 SWAP2 SUB SWAP1 RETURN JUMPDEST PUSH2 0x145 PUSH1 0x4 DUP1 CALLDATASIZE SUB DUP2 ADD SWAP1 PUSH2 0x140 SWAP2 SWAP1 PUSH2 0xD56 JUMP JUMPDEST PUSH2 0x716 JUMP JUMPDEST PUSH1 0x40 MLOAD PUSH2 0x155 SWAP5 SWAP4 SWAP3 SWAP2 SWAP1 PUSH2 0xE11 JUMP JUMPDEST PUSH1 0x40 MLOAD DUP1 SWAP2 SUB SWAP1 RETURN JUMPDEST PUSH2 0x166 PUSH2 0x81E JUMP JUMPDEST PUSH1 0x40 MLOAD PUSH2 0x173 SWAP2 SWAP1 PUSH2 0xEC9 JUMP JUMPDEST PUSH1 0x40 MLOAD DUP1 SWAP2 SUB SWAP1 RETURN JUMPDEST PUSH2 0x196 PUSH1 0x4 DUP1 CALLDATASIZE SUB DUP2 ADD SWAP1 PUSH2 0x191 SWAP2 SWAP1 PUSH2 0xEE4 JUMP JUMPDEST PUSH2 0x82A JUMP JUMPDEST PUSH1 0x40 MLOAD PUSH2 0x1A3 SWAP2 SWAP1 PUSH2 0xFCF JUMP JUMPDEST PUSH1 0x40 MLOAD DUP1 SWAP2 SUB SWAP1 RETURN JUMPDEST PUSH2 0x1C6 PUSH1 0x4 DUP1 CALLDATASIZE SUB DUP2 ADD SWAP1 PUSH2 0x1C1 SWAP2 SWAP1 PUSH2 0xEE4 JUMP JUMPDEST PUSH2 0x8F7 JUMP JUMPDEST PUSH1 0x40 MLOAD PUSH2 0x1D3 SWAP2 SWAP1 PUSH2 0x100C JUMP JUMPDEST PUSH1 0x40 MLOAD DUP1 SWAP2 SUB SWAP1 RETURN JUMPDEST PUSH2 0x1E4 PUSH2 0x94D JUMP JUMPDEST PUSH1 0x40 MLOAD PUSH2 0x1F1 SWAP2 SWAP1 PUSH2 0x11A5 JUMP JUMPDEST PUSH1 0x40 MLOAD DUP1 SWAP2 SUB SWAP1 RETURN JUMPDEST PUSH2 0x214 PUSH1 0x4 DUP1 CALLDATASIZE SUB DUP2 ADD SWAP1 PUSH2 0x20F SWAP2 SWAP1 PUSH2 0xEE4 JUMP JUMPDEST PUSH2 0xAF4 JUMP JUMPDEST PUSH1 0x40 MLOAD PUSH2 0x221 SWAP2 SWAP1 PUSH2 0x100C JUMP JUMPDEST PUSH1 0x40 MLOAD DUP1 SWAP2 SUB SWAP1 RETURN JUMPDEST PUSH1 0x0 DUP1 DUP3 MLOAD GT PUSH2 0x26F JUMPI PUSH1 0x40 MLOAD PUSH32 0x8C379A000000000000000000000000000000000000000000000000000000000 DUP2 MSTORE PUSH1 0x4 ADD PUSH2 0x266 SWAP1 PUSH2 0x1213 JUMP JUMPDEST PUSH1 0x40 MLOAD DUP1 SWAP2 SUB SWAP1 REVERT JUMPDEST PUSH1 0x0 DUP3 CALLER PUSH1 0x40 MLOAD PUSH2 0x27F SWAP1 PUSH2 0xB14 JUMP JUMPDEST PUSH2 0x28A SWAP3 SWAP2 SWAP1 PUSH2 0x1233 JUMP JUMPDEST PUSH1 0x40 MLOAD DUP1 SWAP2 SUB SWAP1 PUSH1 0x0 CREATE DUP1 ISZERO DUP1 ISZERO PUSH2 0x2A6 JUMPI RETURNDATASIZE PUSH1 0x0 DUP1 RETURNDATACOPY RETURNDATASIZE PUSH1 0x0 REVERT JUMPDEST POP SWAP1 POP PUSH1 0x0 DUP2 SWAP1 POP PUSH1 0x0 PUSH1 0x40 MLOAD DUP1 PUSH1 0x80 ADD PUSH1 0x40 MSTORE DUP1 DUP4 PUSH20 0xFFFFFFFFFFFFFFFFFFFFFFFFFFFFFFFFFFFFFFFF AND DUP2 MSTORE PUSH1 0x20 ADD DUP7 DUP2 MSTORE PUSH1 0x20 ADD CALLER PUSH20 0xFFFFFFFFFFFFFFFFFFFFFFFFFFFFFFFFFFFFFFFF AND DUP2 MSTORE PUSH1 0x20 ADD TIMESTAMP DUP2 MSTORE POP SWAP1 POP PUSH1 0x0 DUP2 SWAP1 DUP1 PUSH1 0x1 DUP2 SLOAD ADD DUP1 DUP3 SSTORE DUP1 SWAP2 POP POP PUSH1 0x1 SWAP1 SUB SWAP1 PUSH1 0x0 MSTORE PUSH1 0x20 PUSH1 0x0 KECCAK256 SWAP1 PUSH1 0x4 MUL ADD PUSH1 0x0 SWAP1 SWAP2 SWAP1 SWAP2 SWAP1 SWAP2 POP PUSH1 0x0 DUP3 ADD MLOAD DUP2 PUSH1 0x0 ADD PUSH1 0x0 PUSH2 0x100 EXP DUP2 SLOAD DUP2 PUSH20 0xFFFFFFFFFFFFFFFFFFFFFFFFFFFFFFFFFFFFFFFF MUL NOT AND SWAP1 DUP4 PUSH20 0xFFFFFFFFFFFFFFFFFFFFFFFFFFFFFFFFFFFFFFFF AND MUL OR SWAP1 SSTORE POP PUSH1 0x20 DUP3 ADD MLOAD DUP2 PUSH1 0x1 ADD SWAP1 DUP2 PUSH2 0x387 SWAP2 SWAP1 PUSH2 0x146F JUMP JUMPDEST POP PUSH1 0x40 DUP3 ADD MLOAD DUP2 PUSH1 0x2 ADD PUSH1 0x0 PUSH2 0x100 EXP DUP2 SLOAD DUP2 PUSH20 0xFFFFFFFFFFFFFFFFFFFFFFFFFFFFFFFFFFFFFFFF MUL NOT AND SWAP1 DUP4 PUSH20 0xFFFFFFFFFFFFFFFFFFFFFFFFFFFFFFFFFFFFFFFF AND MUL OR SWAP1 SSTORE POP PUSH1 0x60 DUP3 ADD MLOAD DUP2 PUSH1 0x3 ADD SSTORE POP POP PUSH1 0x1 PUSH1 0x0 CALLER PUSH20 0xFFFFFFFFFFFFFFFFFFFFFFFFFFFFFFFFFFFFFFFF AND PUSH20 0xFFFFFFFFFFFFFFFFFFFFFFFFFFFFFFFFFFFFFFFF AND DUP2 MSTORE PUSH1 0x20 ADD SWAP1 DUP2 MSTORE PUSH1 0x20 ADD PUSH1 0x0 KECCAK256 DUP3 SWAP1 DUP1 PUSH1 0x1 DUP2 SLOAD ADD DUP1 DUP3 SSTORE DUP1 SWAP2 POP POP PUSH1 0x1 SWAP1 SUB SWAP1 PUSH1 0x0 MSTORE PUSH1 0x20 PUSH1 0x0 KECCAK256 ADD PUSH1 0x0 SWAP1 SWAP2 SWAP1 SWAP2 SWAP1 SWAP2 PUSH2 0x100 EXP DUP2 SLOAD DUP2 PUSH20 0xFFFFFFFFFFFFFFFFFFFFFFFFFFFFFFFFFFFFFFFF MUL NOT AND SWAP1 DUP4 PUSH20 0xFFFFFFFFFFFFFFFFFFFFFFFFFFFFFFFFFFFFFFFF AND MUL OR SWAP1 SSTORE POP PUSH1 0x1 PUSH1 0x2 PUSH1 0x0 DUP5 PUSH20 0xFFFFFFFFFFFFFFFFFFFFFFFFFFFFFFFFFFFFFFFF AND PUSH20 0xFFFFFFFFFFFFFFFFFFFFFFFFFFFFFFFFFFFFFFFF AND DUP2 MSTORE PUSH1 0x20 ADD SWAP1 DUP2 MSTORE PUSH1 0x20 ADD PUSH1 0x0 KECCAK256 PUSH1 0x0 PUSH2 0x100 EXP DUP2 SLOAD DUP2 PUSH1 0xFF MUL NOT AND SWAP1 DUP4 ISZERO ISZERO MUL OR SWAP1 SSTORE POP DUP2 SWAP4 POP POP POP POP SWAP2 SWAP1 POP JUMP JUMPDEST PUSH1 0x0 PUSH1 0x60 PUSH1 0x0 DUP1 PUSH1 0x0 DUP1 SLOAD SWAP1 POP DUP6 LT PUSH2 0x52C JUMPI PUSH1 0x40 MLOAD PUSH32 0x8C379A000000000000000000000000000000000000000000000000000000000 DUP2 MSTORE PUSH1 0x4 ADD PUSH2 0x523 SWAP1 PUSH2 0x158D JUMP JUMPDEST PUSH1 0x40 MLOAD DUP1 SWAP2 SUB SWAP1 REVERT JUMPDEST PUSH1 0x0 DUP1 DUP7 DUP2 SLOAD DUP2 LT PUSH2 0x541 JUMPI PUSH2 0x540 PUSH2 0x15AD JUMP JUMPDEST JUMPDEST SWAP1 PUSH1 0x0 MSTORE PUSH1 0x20 PUSH1 0x0 KECCAK256 SWAP1 PUSH1 0x4 MUL ADD PUSH1 0x40 MLOAD DUP1 PUSH1 0x80 ADD PUSH1 0x40 MSTORE SWAP1 DUP2 PUSH1 0x0 DUP3 ADD PUSH1 0x0 SWAP1 SLOAD SWAP1 PUSH2 0x100 EXP SWAP1 DIV PUSH20 0xFFFFFFFFFFFFFFFFFFFFFFFFFFFFFFFFFFFFFFFF AND PUSH20 0xFFFFFFFFFFFFFFFFFFFFFFFFFFFFFFFFFFFFFFFF AND PUSH20 0xFFFFFFFFFFFFFFFFFFFFFFFFFFFFFFFFFFFFFFFF AND DUP2 MSTORE PUSH1 0x20 ADD PUSH1 0x1 DUP3 ADD DUP1 SLOAD PUSH2 0x5C0 SWAP1 PUSH2 0x1292 JUMP JUMPDEST DUP1 PUSH1 0x1F ADD PUSH1 0x20 DUP1 SWAP2 DIV MUL PUSH1 0x20 ADD PUSH1 0x40 MLOAD SWAP1 DUP2 ADD PUSH1 0x40 MSTORE DUP1 SWAP3 SWAP2 SWAP1 DUP2 DUP2 MSTORE PUSH1 0x20 ADD DUP3 DUP1 SLOAD PUSH2 0x5EC SWAP1 PUSH2 0x1292 JUMP JUMPDEST DUP1 ISZERO PUSH2 0x639 JUMPI DUP1 PUSH1 0x1F LT PUSH2 0x60E JUMPI PUSH2 0x100 DUP1 DUP4 SLOAD DIV MUL DUP4 MSTORE SWAP2 PUSH1 0x20 ADD SWAP2 PUSH2 0x639 JUMP JUMPDEST DUP3 ADD SWAP2 SWAP1 PUSH1 0x0 MSTORE PUSH1 0x20 PUSH1 0x0 KECCAK256 SWAP1 JUMPDEST DUP2 SLOAD DUP2 MSTORE SWAP1 PUSH1 0x1 ADD SWAP1 PUSH1 0x20 ADD DUP1 DUP4 GT PUSH2 0x61C JUMPI DUP3 SWAP1 SUB PUSH1 0x1F AND DUP3 ADD SWAP2 JUMPDEST POP POP POP POP POP DUP2 MSTORE PUSH1 0x20 ADD PUSH1 0x2 DUP3 ADD PUSH1 0x0 SWAP1 SLOAD SWAP1 PUSH2 0x100 EXP SWAP1 DIV PUSH20 0xFFFFFFFFFFFFFFFFFFFFFFFFFFFFFFFFFFFFFFFF AND PUSH20 0xFFFFFFFFFFFFFFFFFFFFFFFFFFFFFFFFFFFFFFFF AND PUSH20 0xFFFFFFFFFFFFFFFFFFFFFFFFFFFFFFFFFFFFFFFF AND DUP2 MSTORE PUSH1 0x20 ADD PUSH1 0x3 DUP3 ADD SLOAD DUP2 MSTORE POP POP SWAP1 POP DUP1 PUSH1 0x0 ADD MLOAD DUP2 PUSH1 0x20 ADD MLOAD DUP3 PUSH1 0x40 ADD MLOAD DUP4 PUSH1 0x60 ADD MLOAD SWAP5 POP SWAP5 POP SWAP5 POP SWAP5 POP POP SWAP2 SWAP4 POP SWAP2 SWAP4 JUMP JUMPDEST PUSH1 0x1 PUSH1 0x20 MSTORE DUP2 PUSH1 0x0 MSTORE PUSH1 0x40 PUSH1 0x0 KECCAK256 DUP2 DUP2 SLOAD DUP2 LT PUSH2 0x6E4 JUMPI PUSH1 0x0 DUP1 REVERT JUMPDEST SWAP1 PUSH1 0x0 MSTORE PUSH1 0x20 PUSH1 0x0 KECCAK256 ADD PUSH1 0x0 SWAP2 POP SWAP2 POP SWAP1 SLOAD SWAP1 PUSH2 0x100 EXP SWAP1 DIV PUSH20 0xFFFFFFFFFFFFFFFFFFFFFFFFFFFFFFFFFFFFFFFF AND DUP2 JUMP JUMPDEST PUSH1 0x0 DUP2 DUP2 SLOAD DUP2 LT PUSH2 0x726 JUMPI PUSH1 0x0 DUP1 REVERT JUMPDEST SWAP1 PUSH1 0x0 MSTORE PUSH1 0x20 PUSH1 0x0 KECCAK256 SWAP1 PUSH1 0x4 MUL ADD PUSH1 0x0 SWAP2 POP SWAP1 POP DUP1 PUSH1 0x0 ADD PUSH1 0x0 SWAP1 SLOAD SWAP1 PUSH2 0x100 EXP SWAP1 DIV PUSH20 0xFFFFFFFFFFFFFFFFFFFFFFFFFFFFFFFFFFFFFFFF AND SWAP1 DUP1 PUSH1 0x1 ADD DUP1 SLOAD PUSH2 0x76F SWAP1 PUSH2 0x1292 JUMP JUMPDEST DUP1 PUSH1 0x1F ADD PUSH1 0x20 DUP1 SWAP2 DIV MUL PUSH1 0x20 ADD PUSH1 0x40 MLOAD SWAP1 DUP2 ADD PUSH1 0x40 MSTORE DUP1 SWAP3 SWAP2 SWAP1 DUP2 DUP2 MSTORE PUSH1 0x20 ADD DUP3 DUP1 SLOAD PUSH2 0x79B SWAP1 PUSH2 0x1292 JUMP JUMPDEST DUP1 ISZERO PUSH2 0x7E8 JUMPI DUP1 PUSH1 0x1F LT PUSH2 0x7BD JUMPI PUSH2 0x100 DUP1 DUP4 SLOAD DIV MUL DUP4 MSTORE SWAP2 PUSH1 0x20 ADD SWAP2 PUSH2 0x7E8 JUMP JUMPDEST DUP3 ADD SWAP2 SWAP1 PUSH1 0x0 MSTORE PUSH1 0x20 PUSH1 0x0 KECCAK256 SWAP1 JUMPDEST DUP2 SLOAD DUP2 MSTORE SWAP1 PUSH1 0x1 ADD SWAP1 PUSH1 0x20 ADD DUP1 DUP4 GT PUSH2 0x7CB JUMPI DUP3 SWAP1 SUB PUSH1 0x1F AND DUP3 ADD SWAP2 JUMPDEST POP POP POP POP POP SWAP1 DUP1 PUSH1 0x2 ADD PUSH1 0x0 SWAP1 SLOAD SWAP1 PUSH2 0x100 EXP SWAP1 DIV PUSH20 0xFFFFFFFFFFFFFFFFFFFFFFFFFFFFFFFFFFFFFFFF AND SWAP1 DUP1 PUSH1 0x3 ADD SLOAD SWAP1 POP DUP5 JUMP JUMPDEST PUSH1 0x0 DUP1 DUP1 SLOAD SWAP1 POP SWAP1 POP SWAP1 JUMP JUMPDEST PUSH1 0x60 PUSH1 0x1 PUSH1 0x0 DUP4 PUSH20 0xFFFFFFFFFFFFFFFFFFFFFFFFFFFFFFFFFFFFFFFF AND PUSH20 0xFFFFFFFFFFFFFFFFFFFFFFFFFFFFFFFFFFFFFFFF AND DUP2 MSTORE PUSH1 0x20 ADD SWAP1 DUP2 MSTORE PUSH1 0x20 ADD PUSH1 0x0 KECCAK256 DUP1 SLOAD DUP1 PUSH1 0x20 MUL PUSH1 0x20 ADD PUSH1 0x40 MLOAD SWAP1 DUP2 ADD PUSH1 0x40 MSTORE DUP1 SWAP3 SWAP2 SWAP1 DUP2 DUP2 MSTORE PUSH1 0x20 ADD DUP3 DUP1 SLOAD DUP1 ISZERO PUSH2 0x8EB JUMPI PUSH1 0x20 MUL DUP3 ADD SWAP2 SWAP1 PUSH1 0x0 MSTORE PUSH1 0x20 PUSH1 0x0 KECCAK256 SWAP1 JUMPDEST DUP2 PUSH1 0x0 SWAP1 SLOAD SWAP1 PUSH2 0x100 EXP SWAP1 DIV PUSH20 0xFFFFFFFFFFFFFFFFFFFFFFFFFFFFFFFFFFFFFFFF AND PUSH20 0xFFFFFFFFFFFFFFFFFFFFFFFFFFFFFFFFFFFFFFFF AND DUP2 MSTORE PUSH1 0x20 ADD SWAP1 PUSH1 0x1 ADD SWAP1 DUP1 DUP4 GT PUSH2 0x8A1 JUMPI JUMPDEST POP POP POP POP POP SWAP1 POP SWAP2 SWAP1 POP JUMP JUMPDEST PUSH1 0x0 PUSH1 0x2 PUSH1 0x0 DUP4 PUSH20 0xFFFFFFFFFFFFFFFFFFFFFFFFFFFFFFFFFFFFFFFF AND PUSH20 0xFFFFFFFFFFFFFFFFFFFFFFFFFFFFFFFFFFFFFFFF AND DUP2 MSTORE PUSH1 0x20 ADD SWAP1 DUP2 MSTORE PUSH1 0x20 ADD PUSH1 0x0 KECCAK256 PUSH1 0x0 SWAP1 SLOAD SWAP1 PUSH2 0x100 EXP SWAP1 DIV PUSH1 0xFF AND SWAP1 POP SWAP2 SWAP1 POP JUMP JUMPDEST PUSH1 0x60 PUSH1 0x0 DUP1 SLOAD DUP1 PUSH1 0x20 MUL PUSH1 0x20 ADD PUSH1 0x40 MLOAD SWAP1 DUP2 ADD PUSH1 0x40 MSTORE DUP1 SWAP3 SWAP2 SWAP1 DUP2 DUP2 MSTORE PUSH1 0x20 ADD PUSH1 0x0 SWAP1 JUMPDEST DUP3 DUP3 LT ISZERO PUSH2 0xAEB JUMPI DUP4 DUP3 SWAP1 PUSH1 0x0 MSTORE PUSH1 0x20 PUSH1 0x0 KECCAK256 SWAP1 PUSH1 0x4 MUL ADD PUSH1 0x40 MLOAD DUP1 PUSH1 0x80 ADD PUSH1 0x40 MSTORE SWAP1 DUP2 PUSH1 0x0 DUP3 ADD PUSH1 0x0 SWAP1 SLOAD SWAP1 PUSH2 0x100 EXP SWAP1 DIV PUSH20 0xFFFFFFFFFFFFFFFFFFFFFFFFFFFFFFFFFFFFFFFF AND PUSH20 0xFFFFFFFFFFFFFFFFFFFFFFFFFFFFFFFFFFFFFFFF AND PUSH20 0xFFFFFFFFFFFFFFFFFFFFFFFFFFFFFFFFFFFFFFFF AND DUP2 MSTORE PUSH1 0x20 ADD PUSH1 0x1 DUP3 ADD DUP1 SLOAD PUSH2 0x9FA SWAP1 PUSH2 0x1292 JUMP JUMPDEST DUP1 PUSH1 0x1F ADD PUSH1 0x20 DUP1 SWAP2 DIV MUL PUSH1 0x20 ADD PUSH1 0x40 MLOAD SWAP1 DUP2 ADD PUSH1 0x40 MSTORE DUP1 SWAP3 SWAP2 SWAP1 DUP2 DUP2 MSTORE PUSH1 0x20 ADD DUP3 DUP1 SLOAD PUSH2 0xA26 SWAP1 PUSH2 0x1292 JUMP JUMPDEST DUP1 ISZERO PUSH2 0xA73 JUMPI DUP1 PUSH1 0x1F LT PUSH2 0xA48 JUMPI PUSH2 0x100 DUP1 DUP4 SLOAD DIV MUL DUP4 MSTORE SWAP2 PUSH1 0x20 ADD SWAP2 PUSH2 0xA73 JUMP JUMPDEST DUP3 ADD SWAP2 SWAP1 PUSH1 0x0 MSTORE PUSH1 0x20 PUSH1 0x0 KECCAK256 SWAP1 JUMPDEST DUP2 SLOAD DUP2 MSTORE SWAP1 PUSH1 0x1 ADD SWAP1 PUSH1 0x20 ADD DUP1 DUP4 GT PUSH2 0xA56 JUMPI DUP3 SWAP1 SUB PUSH1 0x1F AND DUP3 ADD SWAP2 JUMPDEST POP POP POP POP POP DUP2 MSTORE PUSH1 0x20 ADD PUSH1 0x2 DUP3 ADD PUSH1 0x0 SWAP1 SLOAD SWAP1 PUSH2 0x100 EXP SWAP1 DIV PUSH20 0xFFFFFFFFFFFFFFFFFFFFFFFFFFFFFFFFFFFFFFFF AND PUSH20 0xFFFFFFFFFFFFFFFFFFFFFFFFFFFFFFFFFFFFFFFF AND PUSH20 0xFFFFFFFFFFFFFFFFFFFFFFFFFFFFFFFFFFFFFFFF AND DUP2 MSTORE PUSH1 0x20 ADD PUSH1 0x3 DUP3 ADD SLOAD DUP2 MSTORE POP POP DUP2 MSTORE PUSH1 0x20 ADD SWAP1 PUSH1 0x1 ADD SWAP1 PUSH2 0x971 JUMP JUMPDEST POP POP POP POP SWAP1 POP SWAP1 JUMP JUMPDEST PUSH1 0x2 PUSH1 0x20 MSTORE DUP1 PUSH1 0x0 MSTORE PUSH1 0x40 PUSH1 0x0 KECCAK256 PUSH1 0x0 SWAP2 POP SLOAD SWAP1 PUSH2 0x100 EXP SWAP1 DIV PUSH1 0xFF AND DUP2 JUMP JUMPDEST PUSH2 0x1DA3 DUP1 PUSH2 0x15DD DUP4 CODECOPY ADD SWAP1 JUMP JUMPDEST PUSH1 0x0 PUSH1 0x40 MLOAD SWAP1 POP SWAP1 JUMP JUMPDEST PUSH1 0x0 DUP1 REVERT JUMPDEST PUSH1 0x0 DUP1 REVERT JUMPDEST PUSH1 0x0 DUP1 REVERT JUMPDEST PUSH1 0x0 DUP1 REVERT JUMPDEST PUSH1 0x0 PUSH1 0x1F NOT PUSH1 0x1F DUP4 ADD AND SWAP1 POP SWAP2 SWAP1 POP JUMP JUMPDEST PUSH32 0x4E487B7100000000000000000000000000000000000000000000000000000000 PUSH1 0x0 MSTORE PUSH1 0x41 PUSH1 0x4 MSTORE PUSH1 0x24 PUSH1 0x0 REVERT JUMPDEST PUSH2 0xB88 DUP3 PUSH2 0xB3F JUMP JUMPDEST DUP2 ADD DUP2 DUP2 LT PUSH8 0xFFFFFFFFFFFFFFFF DUP3 GT OR ISZERO PUSH2 0xBA7 JUMPI PUSH2 0xBA6 PUSH2 0xB50 JUMP JUMPDEST JUMPDEST DUP1 PUSH1 0x40 MSTORE POP POP POP JUMP JUMPDEST PUSH1 0x0 PUSH2 0xBBA PUSH2 0xB21 JUMP JUMPDEST SWAP1 POP PUSH2 0xBC6 DUP3 DUP3 PUSH2 0xB7F JUMP JUMPDEST SWAP2 SWAP1 POP JUMP JUMPDEST PUSH1 0x0 PUSH8 0xFFFFFFFFFFFFFFFF DUP3 GT ISZERO PUSH2 0xBE6 JUMPI PUSH2 0xBE5 PUSH2 0xB50 JUMP JUMPDEST JUMPDEST PUSH2 0xBEF DUP3 PUSH2 0xB3F JUMP JUMPDEST SWAP1 POP PUSH1 0x20 DUP2 ADD SWAP1 POP SWAP2 SWAP1 POP JUMP JUMPDEST DUP3 DUP2 DUP4 CALLDATACOPY PUSH1 0x0 DUP4 DUP4 ADD MSTORE POP POP POP JUMP JUMPDEST PUSH1 0x0 PUSH2 0xC1E PUSH2 0xC19 DUP5 PUSH2 0xBCB JUMP JUMPDEST PUSH2 0xBB0 JUMP JUMPDEST SWAP1 POP DUP3 DUP2 MSTORE PUSH1 0x20 DUP2 ADD DUP5 DUP5 DUP5 ADD GT ISZERO PUSH2 0xC3A JUMPI PUSH2 0xC39 PUSH2 0xB3A JUMP JUMPDEST JUMPDEST PUSH2 0xC45 DUP5 DUP3 DUP6 PUSH2 0xBFC JUMP JUMPDEST POP SWAP4 SWAP3 POP POP POP JUMP JUMPDEST PUSH1 0x0 DUP3 PUSH1 0x1F DUP4 ADD SLT PUSH2 0xC62 JUMPI PUSH2 0xC61 PUSH2 0xB35 JUMP JUMPDEST JUMPDEST DUP2 CALLDATALOAD PUSH2 0xC72 DUP5 DUP3 PUSH1 0x20 DUP7 ADD PUSH2 0xC0B JUMP JUMPDEST SWAP2 POP POP SWAP3 SWAP2 POP POP JUMP JUMPDEST PUSH1 0x0 PUSH1 0x20 DUP3 DUP5 SUB SLT ISZERO PUSH2 0xC91 JUMPI PUSH2 0xC90 PUSH2 0xB2B JUMP JUMPDEST JUMPDEST PUSH1 0x0 DUP3 ADD CALLDATALOAD PUSH8 0xFFFFFFFFFFFFFFFF DUP2 GT ISZERO PUSH2 0xCAF JUMPI PUSH2 0xCAE PUSH2 0xB30 JUMP JUMPDEST JUMPDEST PUSH2 0xCBB DUP5 DUP3 DUP6 ADD PUSH2 0xC4D JUMP JUMPDEST SWAP2 POP POP SWAP3 SWAP2 POP POP JUMP JUMPDEST PUSH1 0x0 PUSH20 0xFFFFFFFFFFFFFFFFFFFFFFFFFFFFFFFFFFFFFFFF DUP3 AND SWAP1 POP SWAP2 SWAP1 POP JUMP JUMPDEST PUSH1 0x0 PUSH2 0xCEF DUP3 PUSH2 0xCC4 JUMP JUMPDEST SWAP1 POP SWAP2 SWAP1 POP JUMP JUMPDEST PUSH2 0xCFF DUP2 PUSH2 0xCE4 JUMP JUMPDEST DUP3 MSTORE POP POP JUMP JUMPDEST PUSH1 0x0 PUSH1 0x20 DUP3 ADD SWAP1 POP PUSH2 0xD1A PUSH1 0x0 DUP4 ADD DUP5 PUSH2 0xCF6 JUMP JUMPDEST SWAP3 SWAP2 POP POP JUMP JUMPDEST PUSH1 0x0 DUP2 SWAP1 POP SWAP2 SWAP1 POP JUMP JUMPDEST PUSH2 0xD33 DUP2 PUSH2 0xD20 JUMP JUMPDEST DUP2 EQ PUSH2 0xD3E JUMPI PUSH1 0x0 DUP1 REVERT JUMPDEST POP JUMP JUMPDEST PUSH1 0x0 DUP2 CALLDATALOAD SWAP1 POP PUSH2 0xD50 DUP2 PUSH2 0xD2A JUMP JUMPDEST SWAP3 SWAP2 POP POP JUMP JUMPDEST PUSH1 0x0 PUSH1 0x20 DUP3 DUP5 SUB SLT ISZERO PUSH2 0xD6C JUMPI PUSH2 0xD6B PUSH2 0xB2B JUMP JUMPDEST JUMPDEST PUSH1 0x0 PUSH2 0xD7A DUP5 DUP3 DUP6 ADD PUSH2 0xD41 JUMP JUMPDEST SWAP2 POP POP SWAP3 SWAP2 POP POP JUMP JUMPDEST PUSH1 0x0 DUP2 MLOAD SWAP1 POP SWAP2 SWAP1 POP JUMP JUMPDEST PUSH1 0x0 DUP3 DUP3 MSTORE PUSH1 0x20 DUP3 ADD SWAP1 POP SWAP3 SWAP2 POP POP JUMP JUMPDEST PUSH1 0x0 JUMPDEST DUP4 DUP2 LT ISZERO PUSH2 0xDBD JUMPI DUP1 DUP3 ADD MLOAD DUP2 DUP5 ADD MSTORE PUSH1 0x20 DUP2 ADD SWAP1 POP PUSH2 0xDA2 JUMP JUMPDEST PUSH1 0x0 DUP5 DUP5 ADD MSTORE POP POP POP POP JUMP JUMPDEST PUSH1 0x0 PUSH2 0xDD4 DUP3 PUSH2 0xD83 JUMP JUMPDEST PUSH2 0xDDE DUP2 DUP6 PUSH2 0xD8E JUMP JUMPDEST SWAP4 POP PUSH2 0xDEE DUP2 DUP6 PUSH1 0x20 DUP7 ADD PUSH2 0xD9F JUMP JUMPDEST PUSH2 0xDF7 DUP2 PUSH2 0xB3F JUMP JUMPDEST DUP5 ADD SWAP2 POP POP SWAP3 SWAP2 POP POP JUMP JUMPDEST PUSH2 0xE0B DUP2 PUSH2 0xD20 JUMP JUMPDEST DUP3 MSTORE POP POP JUMP JUMPDEST PUSH1 0x0 PUSH1 0x80 DUP3 ADD SWAP1 POP PUSH2 0xE26 PUSH1 0x0 DUP4 ADD DUP8 PUSH2 0xCF6 JUMP JUMPDEST DUP2 DUP2 SUB PUSH1 0x20 DUP4 ADD MSTORE PUSH2 0xE38 DUP2 DUP7 PUSH2 0xDC9 JUMP JUMPDEST SWAP1 POP PUSH2 0xE47 PUSH1 0x40 DUP4 ADD DUP6 PUSH2 0xCF6 JUMP JUMPDEST PUSH2 0xE54 PUSH1 0x60 DUP4 ADD DUP5 PUSH2 0xE02 JUMP JUMPDEST SWAP6 SWAP5 POP POP POP POP POP JUMP JUMPDEST PUSH2 0xE66 DUP2 PUSH2 0xCE4 JUMP JUMPDEST DUP2 EQ PUSH2 0xE71 JUMPI PUSH1 0x0 DUP1 REVERT JUMPDEST POP JUMP JUMPDEST PUSH1 0x0 DUP2 CALLDATALOAD SWAP1 POP PUSH2 0xE83 DUP2 PUSH2 0xE5D JUMP JUMPDEST SWAP3 SWAP2 POP POP JUMP JUMPDEST PUSH1 0x0 DUP1 PUSH1 0x40 DUP4 DUP6 SUB SLT ISZERO PUSH2 0xEA0 JUMPI PUSH2 0xE9F PUSH2 0xB2B JUMP JUMPDEST JUMPDEST PUSH1 0x0 PUSH2 0xEAE DUP6 DUP3 DUP7 ADD PUSH2 0xE74 JUMP JUMPDEST SWAP3 POP POP PUSH1 0x20 PUSH2 0xEBF DUP6 DUP3 DUP7 ADD PUSH2 0xD41 JUMP JUMPDEST SWAP2 POP POP SWAP3 POP SWAP3 SWAP1 POP JUMP JUMPDEST PUSH1 0x0 PUSH1 0x20 DUP3 ADD SWAP1 POP PUSH2 0xEDE PUSH1 0x0 DUP4 ADD DUP5 PUSH2 0xE02 JUMP JUMPDEST SWAP3 SWAP2 POP POP JUMP JUMPDEST PUSH1 0x0 PUSH1 0x20 DUP3 DUP5 SUB SLT ISZERO PUSH2 0xEFA JUMPI PUSH2 0xEF9 PUSH2 0xB2B JUMP JUMPDEST JUMPDEST PUSH1 0x0 PUSH2 0xF08 DUP5 DUP3 DUP6 ADD PUSH2 0xE74 JUMP JUMPDEST SWAP2 POP POP SWAP3 SWAP2 POP POP JUMP JUMPDEST PUSH1 0x0 DUP2 MLOAD SWAP1 POP SWAP2 SWAP1 POP JUMP JUMPDEST PUSH1 0x0 DUP3 DUP3 MSTORE PUSH1 0x20 DUP3 ADD SWAP1 POP SWAP3 SWAP2 POP POP JUMP JUMPDEST PUSH1 0x0 DUP2 SWAP1 POP PUSH1 0x20 DUP3 ADD SWAP1 POP SWAP2 SWAP1 POP JUMP JUMPDEST PUSH2 0xF46 DUP2 PUSH2 0xCE4 JUMP JUMPDEST DUP3 MSTORE POP POP JUMP JUMPDEST PUSH1 0x0 PUSH2 0xF58 DUP4 DUP4 PUSH2 0xF3D JUMP JUMPDEST PUSH1 0x20 DUP4 ADD SWAP1 POP SWAP3 SWAP2 POP POP JUMP JUMPDEST PUSH1 0x0 PUSH1 0x20 DUP3 ADD SWAP1 POP SWAP2 SWAP1 POP JUMP JUMPDEST PUSH1 0x0 PUSH2 0xF7C DUP3 PUSH2 0xF11 JUMP JUMPDEST PUSH2 0xF86 DUP2 DUP6 PUSH2 0xF1C JUMP JUMPDEST SWAP4 POP PUSH2 0xF91 DUP4 PUSH2 0xF2D JUMP JUMPDEST DUP1 PUSH1 0x0 JUMPDEST DUP4 DUP2 LT ISZERO PUSH2 0xFC2 JUMPI DUP2 MLOAD PUSH2 0xFA9 DUP9 DUP3 PUSH2 0xF4C JUMP JUMPDEST SWAP8 POP PUSH2 0xFB4 DUP4 PUSH2 0xF64 JUMP JUMPDEST SWAP3 POP POP PUSH1 0x1 DUP2 ADD SWAP1 POP PUSH2 0xF95 JUMP JUMPDEST POP DUP6 SWAP4 POP POP POP POP SWAP3 SWAP2 POP POP JUMP JUMPDEST PUSH1 0x0 PUSH1 0x20 DUP3 ADD SWAP1 POP DUP2 DUP2 SUB PUSH1 0x0 DUP4 ADD MSTORE PUSH2 0xFE9 DUP2 DUP5 PUSH2 0xF71 JUMP JUMPDEST SWAP1 POP SWAP3 SWAP2 POP POP JUMP JUMPDEST PUSH1 0x0 DUP2 ISZERO ISZERO SWAP1 POP SWAP2 SWAP1 POP JUMP JUMPDEST PUSH2 0x1006 DUP2 PUSH2 0xFF1 JUMP JUMPDEST DUP3 MSTORE POP POP JUMP JUMPDEST PUSH1 0x0 PUSH1 0x20 DUP3 ADD SWAP1 POP PUSH2 0x1021 PUSH1 0x0 DUP4 ADD DUP5 PUSH2 0xFFD JUMP JUMPDEST SWAP3 SWAP2 POP POP JUMP JUMPDEST PUSH1 0x0 DUP2 MLOAD SWAP1 POP SWAP2 SWAP1 POP JUMP JUMPDEST PUSH1 0x0 DUP3 DUP3 MSTORE PUSH1 0x20 DUP3 ADD SWAP1 POP SWAP3 SWAP2 POP POP JUMP JUMPDEST PUSH1 0x0 DUP2 SWAP1 POP PUSH1 0x20 DUP3 ADD SWAP1 POP SWAP2 SWAP1 POP JUMP JUMPDEST PUSH1 0x0 DUP3 DUP3 MSTORE PUSH1 0x20 DUP3 ADD SWAP1 POP SWAP3 SWAP2 POP POP JUMP JUMPDEST PUSH1 0x0 PUSH2 0x106F DUP3 PUSH2 0xD83 JUMP JUMPDEST PUSH2 0x1079 DUP2 DUP6 PUSH2 0x1053 JUMP JUMPDEST SWAP4 POP PUSH2 0x1089 DUP2 DUP6 PUSH1 0x20 DUP7 ADD PUSH2 0xD9F JUMP JUMPDEST PUSH2 0x1092 DUP2 PUSH2 0xB3F JUMP JUMPDEST DUP5 ADD SWAP2 POP POP SWAP3 SWAP2 POP POP JUMP JUMPDEST PUSH2 0x10A6 DUP2 PUSH2 0xD20 JUMP JUMPDEST DUP3 MSTORE POP POP JUMP JUMPDEST PUSH1 0x0 PUSH1 0x80 DUP4 ADD PUSH1 0x0 DUP4 ADD MLOAD PUSH2 0x10C4 PUSH1 0x0 DUP7 ADD DUP3 PUSH2 0xF3D JUMP JUMPDEST POP PUSH1 0x20 DUP4 ADD MLOAD DUP5 DUP3 SUB PUSH1 0x20 DUP7 ADD MSTORE PUSH2 0x10DC DUP3 DUP3 PUSH2 0x1064 JUMP JUMPDEST SWAP2 POP POP PUSH1 0x40 DUP4 ADD MLOAD PUSH2 0x10F1 PUSH1 0x40 DUP7 ADD DUP3 PUSH2 0xF3D JUMP JUMPDEST POP PUSH1 0x60 DUP4 ADD MLOAD PUSH2 0x1104 PUSH1 0x60 DUP7 ADD DUP3 PUSH2 0x109D JUMP JUMPDEST POP DUP1 SWAP2 POP POP SWAP3 SWAP2 POP POP JUMP JUMPDEST PUSH1 0x0 PUSH2 0x111B DUP4 DUP4 PUSH2 0x10AC JUMP JUMPDEST SWAP1 POP SWAP3 SWAP2 POP POP JUMP JUMPDEST PUSH1 0x0 PUSH1 0x20 DUP3 ADD SWAP1 POP SWAP2 SWAP1 POP JUMP JUMPDEST PUSH1 0x0 PUSH2 0x113B DUP3 PUSH2 0x1027 JUMP JUMPDEST PUSH2 0x1145 DUP2 DUP6 PUSH2 0x1032 JUMP JUMPDEST SWAP4 POP DUP4 PUSH1 0x20 DUP3 MUL DUP6 ADD PUSH2 0x1157 DUP6 PUSH2 0x1043 JUMP JUMPDEST DUP1 PUSH1 0x0 JUMPDEST DUP6 DUP2 LT ISZERO PUSH2 0x1193 JUMPI DUP5 DUP5 SUB DUP10 MSTORE DUP2 MLOAD PUSH2 0x1174 DUP6 DUP3 PUSH2 0x110F JUMP JUMPDEST SWAP5 POP PUSH2 0x117F DUP4 PUSH2 0x1123 JUMP JUMPDEST SWAP3 POP PUSH1 0x20 DUP11 ADD SWAP10 POP POP PUSH1 0x1 DUP2 ADD SWAP1 POP PUSH2 0x115B JUMP JUMPDEST POP DUP3 SWAP8 POP DUP8 SWAP6 POP POP POP POP POP POP SWAP3 SWAP2 POP POP JUMP JUMPDEST PUSH1 0x0 PUSH1 0x20 DUP3 ADD SWAP1 POP DUP2 DUP2 SUB PUSH1 0x0 DUP4 ADD MSTORE PUSH2 0x11BF DUP2 DUP5 PUSH2 0x1130 JUMP JUMPDEST SWAP1 POP SWAP3 SWAP2 POP POP JUMP JUMPDEST PUSH32 0x5363686F6F6C206E616D652063616E6E6F7420626520656D7074790000000000 PUSH1 0x0 DUP3 ADD MSTORE POP JUMP JUMPDEST PUSH1 0x0 PUSH2 0x11FD PUSH1 0x1B DUP4 PUSH2 0xD8E JUMP JUMPDEST SWAP2 POP PUSH2 0x1208 DUP3 PUSH2 0x11C7 JUMP JUMPDEST PUSH1 0x20 DUP3 ADD SWAP1 POP SWAP2 SWAP1 POP JUMP JUMPDEST PUSH1 0x0 PUSH1 0x20 DUP3 ADD SWAP1 POP DUP2 DUP2 SUB PUSH1 0x0 DUP4 ADD MSTORE PUSH2 0x122C DUP2 PUSH2 0x11F0 JUMP JUMPDEST SWAP1 POP SWAP2 SWAP1 POP JUMP JUMPDEST PUSH1 0x0 PUSH1 0x40 DUP3 ADD SWAP1 POP DUP2 DUP2 SUB PUSH1 0x0 DUP4 ADD MSTORE PUSH2 0x124D DUP2 DUP6 PUSH2 0xDC9 JUMP JUMPDEST SWAP1 POP PUSH2 0x125C PUSH1 0x20 DUP4 ADD DUP5 PUSH2 0xCF6 JUMP JUMPDEST SWAP4 SWAP3 POP POP POP JUMP JUMPDEST PUSH32 0x4E487B7100000000000000000000000000000000000000000000000000000000 PUSH1 0x0 MSTORE PUSH1 0x22 PUSH1 0x4 MSTORE PUSH1 0x24 PUSH1 0x0 REVERT JUMPDEST PUSH1 0x0 PUSH1 0x2 DUP3 DIV SWAP1 POP PUSH1 0x1 DUP3 AND DUP1 PUSH2 0x12AA JUMPI PUSH1 0x7F DUP3 AND SWAP2 POP JUMPDEST PUSH1 0x20 DUP3 LT DUP2 SUB PUSH2 0x12BD JUMPI PUSH2 0x12BC PUSH2 0x1263 JUMP JUMPDEST JUMPDEST POP SWAP2 SWAP1 POP JUMP JUMPDEST PUSH1 0x0 DUP2 SWAP1 POP DUP2 PUSH1 0x0 MSTORE PUSH1 0x20 PUSH1 0x0 KECCAK256 SWAP1 POP SWAP2 SWAP1 POP JUMP JUMPDEST PUSH1 0x0 PUSH1 0x20 PUSH1 0x1F DUP4 ADD DIV SWAP1 POP SWAP2 SWAP1 POP JUMP JUMPDEST PUSH1 0x0 DUP3 DUP3 SHL SWAP1 POP SWAP3 SWAP2 POP POP JUMP JUMPDEST PUSH1 0x0 PUSH1 0x8 DUP4 MUL PUSH2 0x1325 PUSH32 0xFFFFFFFFFFFFFFFFFFFFFFFFFFFFFFFFFFFFFFFFFFFFFFFFFFFFFFFFFFFFFFFF DUP3 PUSH2 0x12E8 JUMP JUMPDEST PUSH2 0x132F DUP7 DUP4 PUSH2 0x12E8 JUMP JUMPDEST SWAP6 POP DUP1 NOT DUP5 AND SWAP4 POP DUP1 DUP7 AND DUP5 OR SWAP3 POP POP POP SWAP4 SWAP3 POP POP POP JUMP JUMPDEST PUSH1 0x0 DUP2 SWAP1 POP SWAP2 SWAP1 POP JUMP JUMPDEST PUSH1 0x0 PUSH2 0x136C PUSH2 0x1367 PUSH2 0x1362 DUP5 PUSH2 0xD20 JUMP JUMPDEST PUSH2 0x1347 JUMP JUMPDEST PUSH2 0xD20 JUMP JUMPDEST SWAP1 POP SWAP2 SWAP1 POP JUMP JUMPDEST PUSH1 0x0 DUP2 SWAP1 POP SWAP2 SWAP1 POP JUMP JUMPDEST PUSH2 0x1386 DUP4 PUSH2 0x1351 JUMP JUMPDEST PUSH2 0x139A PUSH2 0x1392 DUP3 PUSH2 0x1373 JUMP JUMPDEST DUP5 DUP5 SLOAD PUSH2 0x12F5 JUMP JUMPDEST DUP3 SSTORE POP POP POP POP JUMP JUMPDEST PUSH1 0x0 SWAP1 JUMP JUMPDEST PUSH2 0x13AF PUSH2 0x13A2 JUMP JUMPDEST PUSH2 0x13BA DUP2 DUP5 DUP5 PUSH2 0x137D JUMP JUMPDEST POP POP POP JUMP JUMPDEST JUMPDEST DUP2 DUP2 LT ISZERO PUSH2 0x13DE JUMPI PUSH2 0x13D3 PUSH1 0x0 DUP3 PUSH2 0x13A7 JUMP JUMPDEST PUSH1 0x1 DUP2 ADD SWAP1 POP PUSH2 0x13C0 JUMP JUMPDEST POP POP JUMP JUMPDEST PUSH1 0x1F DUP3 GT ISZERO PUSH2 0x1423 JUMPI PUSH2 0x13F4 DUP2 PUSH2 0x12C3 JUMP JUMPDEST PUSH2 0x13FD DUP5 PUSH2 0x12D8 JUMP JUMPDEST DUP2 ADD PUSH1 0x20 DUP6 LT ISZERO PUSH2 0x140C JUMPI DUP2 SWAP1 POP JUMPDEST PUSH2 0x1420 PUSH2 0x1418 DUP6 PUSH2 0x12D8 JUMP JUMPDEST DUP4 ADD DUP3 PUSH2 0x13BF JUMP JUMPDEST POP POP JUMPDEST POP POP POP JUMP JUMPDEST PUSH1 0x0 DUP3 DUP3 SHR SWAP1 POP SWAP3 SWAP2 POP POP JUMP JUMPDEST PUSH1 0x0 PUSH2 0x1446 PUSH1 0x0 NOT DUP5 PUSH1 0x8 MUL PUSH2 0x1428 JUMP JUMPDEST NOT DUP1 DUP4 AND SWAP2 POP POP SWAP3 SWAP2 POP POP JUMP JUMPDEST PUSH1 0x0 PUSH2 0x145F DUP4 DUP4 PUSH2 0x1435 JUMP JUMPDEST SWAP2 POP DUP3 PUSH1 0x2 MUL DUP3 OR SWAP1 POP SWAP3 SWAP2 POP POP JUMP JUMPDEST PUSH2 0x1478 DUP3 PUSH2 0xD83 JUMP JUMPDEST PUSH8 0xFFFFFFFFFFFFFFFF DUP2 GT ISZERO PUSH2 0x1491 JUMPI PUSH2 0x1490 PUSH2 0xB50 JUMP JUMPDEST JUMPDEST PUSH2 0x149B DUP3 SLOAD PUSH2 0x1292 JUMP JUMPDEST PUSH2 0x14A6 DUP3 DUP3 DUP6 PUSH2 0x13E2 JUMP JUMPDEST PUSH1 0x0 PUSH1 0x20 SWAP1 POP PUSH1 0x1F DUP4 GT PUSH1 0x1 DUP2 EQ PUSH2 0x14D9 JUMPI PUSH1 0x0 DUP5 ISZERO PUSH2 0x14C7 JUMPI DUP3 DUP8 ADD MLOAD SWAP1 POP JUMPDEST PUSH2 0x14D1 DUP6 DUP3 PUSH2 0x1453 JUMP JUMPDEST DUP7 SSTORE POP PUSH2 0x1539 JUMP JUMPDEST PUSH1 0x1F NOT DUP5 AND PUSH2 0x14E7 DUP7 PUSH2 0x12C3 JUMP JUMPDEST PUSH1 0x0 JUMPDEST DUP3 DUP2 LT ISZERO PUSH2 0x150F JUMPI DUP5 DUP10 ADD MLOAD DUP3 SSTORE PUSH1 0x1 DUP3 ADD SWAP2 POP PUSH1 0x20 DUP6 ADD SWAP5 POP PUSH1 0x20 DUP2 ADD SWAP1 POP PUSH2 0x14EA JUMP JUMPDEST DUP7 DUP4 LT ISZERO PUSH2 0x152C JUMPI DUP5 DUP10 ADD MLOAD PUSH2 0x1528 PUSH1 0x1F DUP10 AND DUP3 PUSH2 0x1435 JUMP JUMPDEST DUP4 SSTORE POP JUMPDEST PUSH1 0x1 PUSH1 0x2 DUP9 MUL ADD DUP9 SSTORE POP POP POP JUMPDEST POP POP POP POP POP POP JUMP JUMPDEST PUSH32 0x5363686F6F6C20646F6573206E6F742065786973740000000000000000000000 PUSH1 0x0 DUP3 ADD MSTORE POP JUMP JUMPDEST PUSH1 0x0 PUSH2 0x1577 PUSH1 0x15 DUP4 PUSH2 0xD8E JUMP JUMPDEST SWAP2 POP PUSH2 0x1582 DUP3 PUSH2 0x1541 JUMP JUMPDEST PUSH1 0x20 DUP3 ADD SWAP1 POP SWAP2 SWAP1 POP JUMP JUMPDEST PUSH1 0x0 PUSH1 0x20 DUP3 ADD SWAP1 POP DUP2 DUP2 SUB PUSH1 0x0 DUP4 ADD MSTORE PUSH2 0x15A6 DUP2 PUSH2 0x156A JUMP JUMPDEST SWAP1 POP SWAP2 SWAP1 POP JUMP JUMPDEST PUSH32 0x4E487B7100000000000000000000000000000000000000000000000000000000 PUSH1 0x0 MSTORE PUSH1 0x32 PUSH1 0x4 MSTORE PUSH1 0x24 PUSH1 0x0 REVERT INVALID PUSH1 0x80 PUSH1 0x40 MSTORE CALLVALUE DUP1 ISZERO PUSH2 0x10 JUMPI PUSH1 0x0 DUP1 REVERT JUMPDEST POP PUSH1 0x40 MLOAD PUSH2 0x1DA3 CODESIZE SUB DUP1 PUSH2 0x1DA3 DUP4 CODECOPY DUP2 DUP2 ADD PUSH1 0x40 MSTORE DUP2 ADD SWAP1 PUSH2 0x32 SWAP2 SWAP1 PUSH2 0x25D JUMP JUMPDEST DUP2 PUSH1 0x0 SWAP1 DUP2 PUSH2 0x41 SWAP2 SWAP1 PUSH2 0x4DA JUMP JUMPDEST POP DUP1 PUSH1 0x1 PUSH1 0x0 PUSH2 0x100 EXP DUP2 SLOAD DUP2 PUSH20 0xFFFFFFFFFFFFFFFFFFFFFFFFFFFFFFFFFFFFFFFF MUL NOT AND SWAP1 DUP4 PUSH20 0xFFFFFFFFFFFFFFFFFFFFFFFFFFFFFFFFFFFFFFFF AND MUL OR SWAP1 SSTORE POP POP POP PUSH2 0x5AC JUMP JUMPDEST PUSH1 0x0 PUSH1 0x40 MLOAD SWAP1 POP SWAP1 JUMP JUMPDEST PUSH1 0x0 DUP1 REVERT JUMPDEST PUSH1 0x0 DUP1 REVERT JUMPDEST PUSH1 0x0 DUP1 REVERT JUMPDEST PUSH1 0x0 DUP1 REVERT JUMPDEST PUSH1 0x0 PUSH1 0x1F NOT PUSH1 0x1F DUP4 ADD AND SWAP1 POP SWAP2 SWAP1 POP JUMP JUMPDEST PUSH32 0x4E487B7100000000000000000000000000000000000000000000000000000000 PUSH1 0x0 MSTORE PUSH1 0x41 PUSH1 0x4 MSTORE PUSH1 0x24 PUSH1 0x0 REVERT JUMPDEST PUSH2 0xF1 DUP3 PUSH2 0xA8 JUMP JUMPDEST DUP2 ADD DUP2 DUP2 LT PUSH8 0xFFFFFFFFFFFFFFFF DUP3 GT OR ISZERO PUSH2 0x110 JUMPI PUSH2 0x10F PUSH2 0xB9 JUMP JUMPDEST JUMPDEST DUP1 PUSH1 0x40 MSTORE POP POP POP JUMP JUMPDEST PUSH1 0x0 PUSH2 0x123 PUSH2 0x8A JUMP JUMPDEST SWAP1 POP PUSH2 0x12F DUP3 DUP3 PUSH2 0xE8 JUMP JUMPDEST SWAP2 SWAP1 POP JUMP JUMPDEST PUSH1 0x0 PUSH8 0xFFFFFFFFFFFFFFFF DUP3 GT ISZERO PUSH2 0x14F JUMPI PUSH2 0x14E PUSH2 0xB9 JUMP JUMPDEST JUMPDEST PUSH2 0x158 DUP3 PUSH2 0xA8 JUMP JUMPDEST SWAP1 POP PUSH1 0x20 DUP2 ADD SWAP1 POP SWAP2 SWAP1 POP JUMP JUMPDEST PUSH1 0x0 JUMPDEST DUP4 DUP2 LT ISZERO PUSH2 0x183 JUMPI DUP1 DUP3 ADD MLOAD DUP2 DUP5 ADD MSTORE PUSH1 0x20 DUP2 ADD SWAP1 POP PUSH2 0x168 JUMP JUMPDEST PUSH1 0x0 DUP5 DUP5 ADD MSTORE POP POP POP POP JUMP JUMPDEST PUSH1 0x0 PUSH2 0x1A2 PUSH2 0x19D DUP5 PUSH2 0x134 JUMP JUMPDEST PUSH2 0x119 JUMP JUMPDEST SWAP1 POP DUP3 DUP2 MSTORE PUSH1 0x20 DUP2 ADD DUP5 DUP5 DUP5 ADD GT ISZERO PUSH2 0x1BE JUMPI PUSH2 0x1BD PUSH2 0xA3 JUMP JUMPDEST JUMPDEST PUSH2 0x1C9 DUP5 DUP3 DUP6 PUSH2 0x165 JUMP JUMPDEST POP SWAP4 SWAP3 POP POP POP JUMP JUMPDEST PUSH1 0x0 DUP3 PUSH1 0x1F DUP4 ADD SLT PUSH2 0x1E6 JUMPI PUSH2 0x1E5 PUSH2 0x9E JUMP JUMPDEST JUMPDEST DUP2 MLOAD PUSH2 0x1F6 DUP5 DUP3 PUSH1 0x20 DUP7 ADD PUSH2 0x18F JUMP JUMPDEST SWAP2 POP POP SWAP3 SWAP2 POP POP JUMP JUMPDEST PUSH1 0x0 PUSH20 0xFFFFFFFFFFFFFFFFFFFFFFFFFFFFFFFFFFFFFFFF DUP3 AND SWAP1 POP SWAP2 SWAP1 POP JUMP JUMPDEST PUSH1 0x0 PUSH2 0x22A DUP3 PUSH2 0x1FF JUMP JUMPDEST SWAP1 POP SWAP2 SWAP1 POP JUMP JUMPDEST PUSH2 0x23A DUP2 PUSH2 0x21F JUMP JUMPDEST DUP2 EQ PUSH2 0x245 JUMPI PUSH1 0x0 DUP1 REVERT JUMPDEST POP JUMP JUMPDEST PUSH1 0x0 DUP2 MLOAD SWAP1 POP PUSH2 0x257 DUP2 PUSH2 0x231 JUMP JUMPDEST SWAP3 SWAP2 POP POP JUMP JUMPDEST PUSH1 0x0 DUP1 PUSH1 0x40 DUP4 DUP6 SUB SLT ISZERO PUSH2 0x274 JUMPI PUSH2 0x273 PUSH2 0x94 JUMP JUMPDEST JUMPDEST PUSH1 0x0 DUP4 ADD MLOAD PUSH8 0xFFFFFFFFFFFFFFFF DUP2 GT ISZERO PUSH2 0x292 JUMPI PUSH2 0x291 PUSH2 0x99 JUMP JUMPDEST JUMPDEST PUSH2 0x29E DUP6 DUP3 DUP7 ADD PUSH2 0x1D1 JUMP JUMPDEST SWAP3 POP POP PUSH1 0x20 PUSH2 0x2AF DUP6 DUP3 DUP7 ADD PUSH2 0x248 JUMP JUMPDEST SWAP2 POP POP SWAP3 POP SWAP3 SWAP1 POP JUMP JUMPDEST PUSH1 0x0 DUP2 MLOAD SWAP1 POP SWAP2 SWAP1 POP JUMP JUMPDEST PUSH32 0x4E487B7100000000000000000000000000000000000000000000000000000000 PUSH1 0x0 MSTORE PUSH1 0x22 PUSH1 0x4 MSTORE PUSH1 0x24 PUSH1 0x0 REVERT JUMPDEST PUSH1 0x0 PUSH1 0x2 DUP3 DIV SWAP1 POP PUSH1 0x1 DUP3 AND DUP1 PUSH2 0x30B JUMPI PUSH1 0x7F DUP3 AND SWAP2 POP JUMPDEST PUSH1 0x20 DUP3 LT DUP2 SUB PUSH2 0x31E JUMPI PUSH2 0x31D PUSH2 0x2C4 JUMP JUMPDEST JUMPDEST POP SWAP2 SWAP1 POP JUMP JUMPDEST PUSH1 0x0 DUP2 SWAP1 POP DUP2 PUSH1 0x0 MSTORE PUSH1 0x20 PUSH1 0x0 KECCAK256 SWAP1 POP SWAP2 SWAP1 POP JUMP JUMPDEST PUSH1 0x0 PUSH1 0x20 PUSH1 0x1F DUP4 ADD DIV SWAP1 POP SWAP2 SWAP1 POP JUMP JUMPDEST PUSH1 0x0 DUP3 DUP3 SHL SWAP1 POP SWAP3 SWAP2 POP POP JUMP JUMPDEST PUSH1 0x0 PUSH1 0x8 DUP4 MUL PUSH2 0x386 PUSH32 0xFFFFFFFFFFFFFFFFFFFFFFFFFFFFFFFFFFFFFFFFFFFFFFFFFFFFFFFFFFFFFFFF DUP3 PUSH2 0x349 JUMP JUMPDEST PUSH2 0x390 DUP7 DUP4 PUSH2 0x349 JUMP JUMPDEST SWAP6 POP DUP1 NOT DUP5 AND SWAP4 POP DUP1 DUP7 AND DUP5 OR SWAP3 POP POP POP SWAP4 SWAP3 POP POP POP JUMP JUMPDEST PUSH1 0x0 DUP2 SWAP1 POP SWAP2 SWAP1 POP JUMP JUMPDEST PUSH1 0x0 DUP2 SWAP1 POP SWAP2 SWAP1 POP JUMP JUMPDEST PUSH1 0x0 PUSH2 0x3D7 PUSH2 0x3D2 PUSH2 0x3CD DUP5 PUSH2 0x3A8 JUMP JUMPDEST PUSH2 0x3B2 JUMP JUMPDEST PUSH2 0x3A8 JUMP JUMPDEST SWAP1 POP SWAP2 SWAP1 POP JUMP JUMPDEST PUSH1 0x0 DUP2 SWAP1 POP SWAP2 SWAP1 POP JUMP JUMPDEST PUSH2 0x3F1 DUP4 PUSH2 0x3BC JUMP JUMPDEST PUSH2 0x405 PUSH2 0x3FD DUP3 PUSH2 0x3DE JUMP JUMPDEST DUP5 DUP5 SLOAD PUSH2 0x356 JUMP JUMPDEST DUP3 SSTORE POP POP POP POP JUMP JUMPDEST PUSH1 0x0 SWAP1 JUMP JUMPDEST PUSH2 0x41A PUSH2 0x40D JUMP JUMPDEST PUSH2 0x425 DUP2 DUP5 DUP5 PUSH2 0x3E8 JUMP JUMPDEST POP POP POP JUMP JUMPDEST JUMPDEST DUP2 DUP2 LT ISZERO PUSH2 0x449 JUMPI PUSH2 0x43E PUSH1 0x0 DUP3 PUSH2 0x412 JUMP JUMPDEST PUSH1 0x1 DUP2 ADD SWAP1 POP PUSH2 0x42B JUMP JUMPDEST POP POP JUMP JUMPDEST PUSH1 0x1F DUP3 GT ISZERO PUSH2 0x48E JUMPI PUSH2 0x45F DUP2 PUSH2 0x324 JUMP JUMPDEST PUSH2 0x468 DUP5 PUSH2 0x339 JUMP JUMPDEST DUP2 ADD PUSH1 0x20 DUP6 LT ISZERO PUSH2 0x477 JUMPI DUP2 SWAP1 POP JUMPDEST PUSH2 0x48B PUSH2 0x483 DUP6 PUSH2 0x339 JUMP JUMPDEST DUP4 ADD DUP3 PUSH2 0x42A JUMP JUMPDEST POP POP JUMPDEST POP POP POP JUMP JUMPDEST PUSH1 0x0 DUP3 DUP3 SHR SWAP1 POP SWAP3 SWAP2 POP POP JUMP JUMPDEST PUSH1 0x0 PUSH2 0x4B1 PUSH1 0x0 NOT DUP5 PUSH1 0x8 MUL PUSH2 0x493 JUMP JUMPDEST NOT DUP1 DUP4 AND SWAP2 POP POP SWAP3 SWAP2 POP POP JUMP JUMPDEST PUSH1 0x0 PUSH2 0x4CA DUP4 DUP4 PUSH2 0x4A0 JUMP JUMPDEST SWAP2 POP DUP3 PUSH1 0x2 MUL DUP3 OR SWAP1 POP SWAP3 SWAP2 POP POP JUMP JUMPDEST PUSH2 0x4E3 DUP3 PUSH2 0x2B9 JUMP JUMPDEST PUSH8 0xFFFFFFFFFFFFFFFF DUP2 GT ISZERO PUSH2 0x4FC JUMPI PUSH2 0x4FB PUSH2 0xB9 JUMP JUMPDEST JUMPDEST PUSH2 0x506 DUP3 SLOAD PUSH2 0x2F3 JUMP JUMPDEST PUSH2 0x511 DUP3 DUP3 DUP6 PUSH2 0x44D JUMP JUMPDEST PUSH1 0x0 PUSH1 0x20 SWAP1 POP PUSH1 0x1F DUP4 GT PUSH1 0x1 DUP2 EQ PUSH2 0x544 JUMPI PUSH1 0x0 DUP5 ISZERO PUSH2 0x532 JUMPI DUP3 DUP8 ADD MLOAD SWAP1 POP JUMPDEST PUSH2 0x53C DUP6 DUP3 PUSH2 0x4BE JUMP JUMPDEST DUP7 SSTORE POP PUSH2 0x5A4 JUMP JUMPDEST PUSH1 0x1F NOT DUP5 AND PUSH2 0x552 DUP7 PUSH2 0x324 JUMP JUMPDEST PUSH1 0x0 JUMPDEST DUP3 DUP2 LT ISZERO PUSH2 0x57A JUMPI DUP5 DUP10 ADD MLOAD DUP3 SSTORE PUSH1 0x1 DUP3 ADD SWAP2 POP PUSH1 0x20 DUP6 ADD SWAP5 POP PUSH1 0x20 DUP2 ADD SWAP1 POP PUSH2 0x555 JUMP JUMPDEST DUP7 DUP4 LT ISZERO PUSH2 0x597 JUMPI DUP5 DUP10 ADD MLOAD PUSH2 0x593 PUSH1 0x1F DUP10 AND DUP3 PUSH2 0x4A0 JUMP JUMPDEST DUP4 SSTORE POP JUMPDEST PUSH1 0x1 PUSH1 0x2 DUP9 MUL ADD DUP9 SSTORE POP POP POP JUMPDEST POP POP POP POP POP POP JUMP JUMPDEST PUSH2 0x17E8 DUP1 PUSH2 0x5BB PUSH1 0x0 CODECOPY PUSH1 0x0 RETURN INVALID PUSH1 0x80 PUSH1 0x40 MSTORE CALLVALUE DUP1 ISZERO PUSH2 0x10 JUMPI PUSH1 0x0 DUP1 REVERT JUMPDEST POP PUSH1 0x4 CALLDATASIZE LT PUSH2 0x7D JUMPI PUSH1 0x0 CALLDATALOAD PUSH1 0xE0 SHR DUP1 PUSH4 0x3FEE2395 GT PUSH2 0x5B JUMPI DUP1 PUSH4 0x3FEE2395 EQ PUSH2 0x106 JUMPI DUP1 PUSH4 0x4FAB1849 EQ PUSH2 0x122 JUMPI DUP1 PUSH4 0x534A93A4 EQ PUSH2 0x140 JUMPI DUP1 PUSH4 0xC95C4675 EQ PUSH2 0x15C JUMPI PUSH2 0x7D JUMP JUMPDEST DUP1 PUSH4 0x66542BD EQ PUSH2 0x82 JUMPI DUP1 PUSH4 0x6EAD22E EQ PUSH2 0xB6 JUMPI DUP1 PUSH4 0x199C4976 EQ PUSH2 0xEA JUMPI JUMPDEST PUSH1 0x0 DUP1 REVERT JUMPDEST PUSH2 0x9C PUSH1 0x4 DUP1 CALLDATASIZE SUB DUP2 ADD SWAP1 PUSH2 0x97 SWAP2 SWAP1 PUSH2 0xC04 JUMP JUMPDEST PUSH2 0x178 JUMP JUMPDEST PUSH1 0x40 MLOAD PUSH2 0xAD SWAP6 SWAP5 SWAP4 SWAP3 SWAP2 SWAP1 PUSH2 0xD8F JUMP JUMPDEST PUSH1 0x40 MLOAD DUP1 SWAP2 SUB SWAP1 RETURN JUMPDEST PUSH2 0xD0 PUSH1 0x4 DUP1 CALLDATASIZE SUB DUP2 ADD SWAP1 PUSH2 0xCB SWAP2 SWAP1 PUSH2 0xC04 JUMP JUMPDEST PUSH2 0x3C9 JUMP JUMPDEST PUSH1 0x40 MLOAD PUSH2 0xE1 SWAP6 SWAP5 SWAP4 SWAP3 SWAP2 SWAP1 PUSH2 0xD8F JUMP JUMPDEST PUSH1 0x40 MLOAD DUP1 SWAP2 SUB SWAP1 RETURN JUMPDEST PUSH2 0x104 PUSH1 0x4 DUP1 CALLDATASIZE SUB DUP2 ADD SWAP1 PUSH2 0xFF SWAP2 SWAP1 PUSH2 0xE15 JUMP JUMPDEST PUSH2 0x539 JUMP JUMPDEST STOP JUMPDEST PUSH2 0x120 PUSH1 0x4 DUP1 CALLDATASIZE SUB DUP2 ADD SWAP1 PUSH2 0x11B SWAP2 SWAP1 PUSH2 0xF8A JUMP JUMPDEST PUSH2 0x5D1 JUMP JUMPDEST STOP JUMPDEST PUSH2 0x12A PUSH2 0x67A JUMP JUMPDEST PUSH1 0x40 MLOAD PUSH2 0x137 SWAP2 SWAP1 PUSH2 0x11AF JUMP JUMPDEST PUSH1 0x40 MLOAD DUP1 SWAP2 SUB SWAP1 RETURN JUMPDEST PUSH2 0x15A PUSH1 0x4 DUP1 CALLDATASIZE SUB DUP2 ADD SWAP1 PUSH2 0x155 SWAP2 SWAP1 PUSH2 0xC04 JUMP JUMPDEST PUSH2 0x87D JUMP JUMPDEST STOP JUMPDEST PUSH2 0x176 PUSH1 0x4 DUP1 CALLDATASIZE SUB DUP2 ADD SWAP1 PUSH2 0x171 SWAP2 SWAP1 PUSH2 0x11F6 JUMP JUMPDEST PUSH2 0xA48 JUMP JUMPDEST STOP JUMPDEST PUSH1 0x60 PUSH1 0x0 PUSH1 0x60 PUSH1 0x0 DUP1 PUSH1 0x2 DUP1 SLOAD SWAP1 POP DUP7 LT PUSH2 0x1C8 JUMPI PUSH1 0x40 MLOAD PUSH32 0x8C379A000000000000000000000000000000000000000000000000000000000 DUP2 MSTORE PUSH1 0x4 ADD PUSH2 0x1BF SWAP1 PUSH2 0x12F5 JUMP JUMPDEST PUSH1 0x40 MLOAD DUP1 SWAP2 SUB SWAP1 REVERT JUMPDEST PUSH1 0x2 DUP7 DUP2 SLOAD DUP2 LT PUSH2 0x1DC JUMPI PUSH2 0x1DB PUSH2 0x1315 JUMP JUMPDEST JUMPDEST SWAP1 PUSH1 0x0 MSTORE PUSH1 0x20 PUSH1 0x0 KECCAK256 SWAP1 PUSH1 0x4 MUL ADD PUSH1 0x0 ADD PUSH1 0x2 DUP8 DUP2 SLOAD DUP2 LT PUSH2 0x201 JUMPI PUSH2 0x200 PUSH2 0x1315 JUMP JUMPDEST JUMPDEST SWAP1 PUSH1 0x0 MSTORE PUSH1 0x20 PUSH1 0x0 KECCAK256 SWAP1 PUSH1 0x4 MUL ADD PUSH1 0x1 ADD SLOAD PUSH1 0x2 DUP9 DUP2 SLOAD DUP2 LT PUSH2 0x227 JUMPI PUSH2 0x226 PUSH2 0x1315 JUMP JUMPDEST JUMPDEST SWAP1 PUSH1 0x0 MSTORE PUSH1 0x20 PUSH1 0x0 KECCAK256 SWAP1 PUSH1 0x4 MUL ADD PUSH1 0x2 ADD PUSH1 0x2 DUP10 DUP2 SLOAD DUP2 LT PUSH2 0x24C JUMPI PUSH2 0x24B PUSH2 0x1315 JUMP JUMPDEST JUMPDEST SWAP1 PUSH1 0x0 MSTORE PUSH1 0x20 PUSH1 0x0 KECCAK256 SWAP1 PUSH1 0x4 MUL ADD PUSH1 0x3 ADD PUSH1 0x0 SWAP1 SLOAD SWAP1 PUSH2 0x100 EXP SWAP1 DIV PUSH1 0xFF AND PUSH1 0x2 DUP11 DUP2 SLOAD DUP2 LT PUSH2 0x27F JUMPI PUSH2 0x27E PUSH2 0x1315 JUMP JUMPDEST JUMPDEST SWAP1 PUSH1 0x0 MSTORE PUSH1 0x20 PUSH1 0x0 KECCAK256 SWAP1 PUSH1 0x4 MUL ADD PUSH1 0x3 ADD PUSH1 0x1 SWAP1 SLOAD SWAP1 PUSH2 0x100 EXP SWAP1 DIV PUSH1 0xFF AND DUP5 DUP1 SLOAD PUSH2 0x2AA SWAP1 PUSH2 0x1373 JUMP JUMPDEST DUP1 PUSH1 0x1F ADD PUSH1 0x20 DUP1 SWAP2 DIV MUL PUSH1 0x20 ADD PUSH1 0x40 MLOAD SWAP1 DUP2 ADD PUSH1 0x40 MSTORE DUP1 SWAP3 SWAP2 SWAP1 DUP2 DUP2 MSTORE PUSH1 0x20 ADD DUP3 DUP1 SLOAD PUSH2 0x2D6 SWAP1 PUSH2 0x1373 JUMP JUMPDEST DUP1 ISZERO PUSH2 0x323 JUMPI DUP1 PUSH1 0x1F LT PUSH2 0x2F8 JUMPI PUSH2 0x100 DUP1 DUP4 SLOAD DIV MUL DUP4 MSTORE SWAP2 PUSH1 0x20 ADD SWAP2 PUSH2 0x323 JUMP JUMPDEST DUP3 ADD SWAP2 SWAP1 PUSH1 0x0 MSTORE PUSH1 0x20 PUSH1 0x0 KECCAK256 SWAP1 JUMPDEST DUP2 SLOAD DUP2 MSTORE SWAP1 PUSH1 0x1 ADD SWAP1 PUSH1 0x20 ADD DUP1 DUP4 GT PUSH2 0x306 JUMPI DUP3 SWAP1 SUB PUSH1 0x1F AND DUP3 ADD SWAP2 JUMPDEST POP POP POP POP POP SWAP5 POP DUP3 DUP1 SLOAD PUSH2 0x336 SWAP1 PUSH2 0x1373 JUMP JUMPDEST DUP1 PUSH1 0x1F ADD PUSH1 0x20 DUP1 SWAP2 DIV MUL PUSH1 0x20 ADD PUSH1 0x40 MLOAD SWAP1 DUP2 ADD PUSH1 0x40 MSTORE DUP1 SWAP3 SWAP2 SWAP1 DUP2 DUP2 MSTORE PUSH1 0x20 ADD DUP3 DUP1 SLOAD PUSH2 0x362 SWAP1 PUSH2 0x1373 JUMP JUMPDEST DUP1 ISZERO PUSH2 0x3AF JUMPI DUP1 PUSH1 0x1F LT PUSH2 0x384 JUMPI PUSH2 0x100 DUP1 DUP4 SLOAD DIV MUL DUP4 MSTORE SWAP2 PUSH1 0x20 ADD SWAP2 PUSH2 0x3AF JUMP JUMPDEST DUP3 ADD SWAP2 SWAP1 PUSH1 0x0 MSTORE PUSH1 0x20 PUSH1 0x0 KECCAK256 SWAP1 JUMPDEST DUP2 SLOAD DUP2 MSTORE SWAP1 PUSH1 0x1 ADD SWAP1 PUSH1 0x20 ADD DUP1 DUP4 GT PUSH2 0x392 JUMPI DUP3 SWAP1 SUB PUSH1 0x1F AND DUP3 ADD SWAP2 JUMPDEST POP POP POP POP POP SWAP3 POP SWAP5 POP SWAP5 POP SWAP5 POP SWAP5 POP SWAP5 POP SWAP2 SWAP4 SWAP6 SWAP1 SWAP3 SWAP5 POP JUMP JUMPDEST PUSH1 0x2 DUP2 DUP2 SLOAD DUP2 LT PUSH2 0x3D9 JUMPI PUSH1 0x0 DUP1 REVERT JUMPDEST SWAP1 PUSH1 0x0 MSTORE PUSH1 0x20 PUSH1 0x0 KECCAK256 SWAP1 PUSH1 0x4 MUL ADD PUSH1 0x0 SWAP2 POP SWAP1 POP DUP1 PUSH1 0x0 ADD DUP1 SLOAD PUSH2 0x3FC SWAP1 PUSH2 0x1373 JUMP JUMPDEST DUP1 PUSH1 0x1F ADD PUSH1 0x20 DUP1 SWAP2 DIV MUL PUSH1 0x20 ADD PUSH1 0x40 MLOAD SWAP1 DUP2 ADD PUSH1 0x40 MSTORE DUP1 SWAP3 SWAP2 SWAP1 DUP2 DUP2 MSTORE PUSH1 0x20 ADD DUP3 DUP1 SLOAD PUSH2 0x428 SWAP1 PUSH2 0x1373 JUMP JUMPDEST DUP1 ISZERO PUSH2 0x475 JUMPI DUP1 PUSH1 0x1F LT PUSH2 0x44A JUMPI PUSH2 0x100 DUP1 DUP4 SLOAD DIV MUL DUP4 MSTORE SWAP2 PUSH1 0x20 ADD SWAP2 PUSH2 0x475 JUMP JUMPDEST DUP3 ADD SWAP2 SWAP1 PUSH1 0x0 MSTORE PUSH1 0x20 PUSH1 0x0 KECCAK256 SWAP1 JUMPDEST DUP2 SLOAD DUP2 MSTORE SWAP1 PUSH1 0x1 ADD SWAP1 PUSH1 0x20 ADD DUP1 DUP4 GT PUSH2 0x458 JUMPI DUP3 SWAP1 SUB PUSH1 0x1F AND DUP3 ADD SWAP2 JUMPDEST POP POP POP POP POP SWAP1 DUP1 PUSH1 0x1 ADD SLOAD SWAP1 DUP1 PUSH1 0x2 ADD DUP1 SLOAD PUSH2 0x490 SWAP1 PUSH2 0x1373 JUMP JUMPDEST DUP1 PUSH1 0x1F ADD PUSH1 0x20 DUP1 SWAP2 DIV MUL PUSH1 0x20 ADD PUSH1 0x40 MLOAD SWAP1 DUP2 ADD PUSH1 0x40 MSTORE DUP1 SWAP3 SWAP2 SWAP1 DUP2 DUP2 MSTORE PUSH1 0x20 ADD DUP3 DUP1 SLOAD PUSH2 0x4BC SWAP1 PUSH2 0x1373 JUMP JUMPDEST DUP1 ISZERO PUSH2 0x509 JUMPI DUP1 PUSH1 0x1F LT PUSH2 0x4DE JUMPI PUSH2 0x100 DUP1 DUP4 SLOAD DIV MUL DUP4 MSTORE SWAP2 PUSH1 0x20 ADD SWAP2 PUSH2 0x509 JUMP JUMPDEST DUP3 ADD SWAP2 SWAP1 PUSH1 0x0 MSTORE PUSH1 0x20 PUSH1 0x0 KECCAK256 SWAP1 JUMPDEST DUP2 SLOAD DUP2 MSTORE SWAP1 PUSH1 0x1 ADD SWAP1 PUSH1 0x20 ADD DUP1 DUP4 GT PUSH2 0x4EC JUMPI DUP3 SWAP1 SUB PUSH1 0x1F AND DUP3 ADD SWAP2 JUMPDEST POP POP POP POP POP SWAP1 DUP1 PUSH1 0x3 ADD PUSH1 0x0 SWAP1 SLOAD SWAP1 PUSH2 0x100 EXP SWAP1 DIV PUSH1 0xFF AND SWAP1 DUP1 PUSH1 0x3 ADD PUSH1 0x1 SWAP1 SLOAD SWAP1 PUSH2 0x100 EXP SWAP1 DIV PUSH1 0xFF AND SWAP1 POP DUP6 JUMP JUMPDEST PUSH1 0x2 DUP1 SLOAD SWAP1 POP DUP3 LT PUSH2 0x580 JUMPI PUSH1 0x40 MLOAD PUSH32 0x8C379A000000000000000000000000000000000000000000000000000000000 DUP2 MSTORE PUSH1 0x4 ADD PUSH2 0x577 SWAP1 PUSH2 0x12F5 JUMP JUMPDEST PUSH1 0x40 MLOAD DUP1 SWAP2 SUB SWAP1 REVERT JUMPDEST DUP1 PUSH1 0x2 DUP4 DUP2 SLOAD DUP2 LT PUSH2 0x595 JUMPI PUSH2 0x594 PUSH2 0x1315 JUMP JUMPDEST JUMPDEST SWAP1 PUSH1 0x0 MSTORE PUSH1 0x20 PUSH1 0x0 KECCAK256 SWAP1 PUSH1 0x4 MUL ADD PUSH1 0x3 ADD PUSH1 0x1 PUSH2 0x100 EXP DUP2 SLOAD DUP2 PUSH1 0xFF MUL NOT AND SWAP1 DUP4 PUSH1 0x2 DUP2 GT ISZERO PUSH2 0x5C8 JUMPI PUSH2 0x5C7 PUSH2 0xCD0 JUMP JUMPDEST JUMPDEST MUL OR SWAP1 SSTORE POP POP POP JUMP JUMPDEST PUSH1 0x2 DUP1 SLOAD SWAP1 POP DUP4 LT PUSH2 0x618 JUMPI PUSH1 0x40 MLOAD PUSH32 0x8C379A000000000000000000000000000000000000000000000000000000000 DUP2 MSTORE PUSH1 0x4 ADD PUSH2 0x60F SWAP1 PUSH2 0x12F5 JUMP JUMPDEST PUSH1 0x40 MLOAD DUP1 SWAP2 SUB SWAP1 REVERT JUMPDEST DUP2 PUSH1 0x2 DUP5 DUP2 SLOAD DUP2 LT PUSH2 0x62D JUMPI PUSH2 0x62C PUSH2 0x1315 JUMP JUMPDEST JUMPDEST SWAP1 PUSH1 0x0 MSTORE PUSH1 0x20 PUSH1 0x0 KECCAK256 SWAP1 PUSH1 0x4 MUL ADD PUSH1 0x0 ADD SWAP1 DUP2 PUSH2 0x64A SWAP2 SWAP1 PUSH2 0x1550 JUMP JUMPDEST POP DUP1 PUSH1 0x2 DUP5 DUP2 SLOAD DUP2 LT PUSH2 0x660 JUMPI PUSH2 0x65F PUSH2 0x1315 JUMP JUMPDEST JUMPDEST SWAP1 PUSH1 0x0 MSTORE PUSH1 0x20 PUSH1 0x0 KECCAK256 SWAP1 PUSH1 0x4 MUL ADD PUSH1 0x1 ADD DUP2 SWAP1 SSTORE POP POP POP POP JUMP JUMPDEST PUSH1 0x60 PUSH1 0x2 DUP1 SLOAD DUP1 PUSH1 0x20 MUL PUSH1 0x20 ADD PUSH1 0x40 MLOAD SWAP1 DUP2 ADD PUSH1 0x40 MSTORE DUP1 SWAP3 SWAP2 SWAP1 DUP2 DUP2 MSTORE PUSH1 0x20 ADD PUSH1 0x0 SWAP1 JUMPDEST DUP3 DUP3 LT ISZERO PUSH2 0x874 JUMPI DUP4 DUP3 SWAP1 PUSH1 0x0 MSTORE PUSH1 0x20 PUSH1 0x0 KECCAK256 SWAP1 PUSH1 0x4 MUL ADD PUSH1 0x40 MLOAD DUP1 PUSH1 0xA0 ADD PUSH1 0x40 MSTORE SWAP1 DUP2 PUSH1 0x0 DUP3 ADD DUP1 SLOAD PUSH2 0x6D1 SWAP1 PUSH2 0x1373 JUMP JUMPDEST DUP1 PUSH1 0x1F ADD PUSH1 0x20 DUP1 SWAP2 DIV MUL PUSH1 0x20 ADD PUSH1 0x40 MLOAD SWAP1 DUP2 ADD PUSH1 0x40 MSTORE DUP1 SWAP3 SWAP2 SWAP1 DUP2 DUP2 MSTORE PUSH1 0x20 ADD DUP3 DUP1 SLOAD PUSH2 0x6FD SWAP1 PUSH2 0x1373 JUMP JUMPDEST DUP1 ISZERO PUSH2 0x74A JUMPI DUP1 PUSH1 0x1F LT PUSH2 0x71F JUMPI PUSH2 0x100 DUP1 DUP4 SLOAD DIV MUL DUP4 MSTORE SWAP2 PUSH1 0x20 ADD SWAP2 PUSH2 0x74A JUMP JUMPDEST DUP3 ADD SWAP2 SWAP1 PUSH1 0x0 MSTORE PUSH1 0x20 PUSH1 0x0 KECCAK256 SWAP1 JUMPDEST DUP2 SLOAD DUP2 MSTORE SWAP1 PUSH1 0x1 ADD SWAP1 PUSH1 0x20 ADD DUP1 DUP4 GT PUSH2 0x72D JUMPI DUP3 SWAP1 SUB PUSH1 0x1F AND DUP3 ADD SWAP2 JUMPDEST POP POP POP POP POP DUP2 MSTORE PUSH1 0x20 ADD PUSH1 0x1 DUP3 ADD SLOAD DUP2 MSTORE PUSH1 0x20 ADD PUSH1 0x2 DUP3 ADD DUP1 SLOAD PUSH2 0x76D SWAP1 PUSH2 0x1373 JUMP JUMPDEST DUP1 PUSH1 0x1F ADD PUSH1 0x20 DUP1 SWAP2 DIV MUL PUSH1 0x20 ADD PUSH1 0x40 MLOAD SWAP1 DUP2 ADD PUSH1 0x40 MSTORE DUP1 SWAP3 SWAP2 SWAP1 DUP2 DUP2 MSTORE PUSH1 0x20 ADD DUP3 DUP1 SLOAD PUSH2 0x799 SWAP1 PUSH2 0x1373 JUMP JUMPDEST DUP1 ISZERO PUSH2 0x7E6 JUMPI DUP1 PUSH1 0x1F LT PUSH2 0x7BB JUMPI PUSH2 0x100 DUP1 DUP4 SLOAD DIV MUL DUP4 MSTORE SWAP2 PUSH1 0x20 ADD SWAP2 PUSH2 0x7E6 JUMP JUMPDEST DUP3 ADD SWAP2 SWAP1 PUSH1 0x0 MSTORE PUSH1 0x20 PUSH1 0x0 KECCAK256 SWAP1 JUMPDEST DUP2 SLOAD DUP2 MSTORE SWAP1 PUSH1 0x1 ADD SWAP1 PUSH1 0x20 ADD DUP1 DUP4 GT PUSH2 0x7C9 JUMPI DUP3 SWAP1 SUB PUSH1 0x1F AND DUP3 ADD SWAP2 JUMPDEST POP POP POP POP POP DUP2 MSTORE PUSH1 0x20 ADD PUSH1 0x3 DUP3 ADD PUSH1 0x0 SWAP1 SLOAD SWAP1 PUSH2 0x100 EXP SWAP1 DIV PUSH1 0xFF AND PUSH1 0x1 DUP2 GT ISZERO PUSH2 0x814 JUMPI PUSH2 0x813 PUSH2 0xCD0 JUMP JUMPDEST JUMPDEST PUSH1 0x1 DUP2 GT ISZERO PUSH2 0x826 JUMPI PUSH2 0x825 PUSH2 0xCD0 JUMP JUMPDEST JUMPDEST DUP2 MSTORE PUSH1 0x20 ADD PUSH1 0x3 DUP3 ADD PUSH1 0x1 SWAP1 SLOAD SWAP1 PUSH2 0x100 EXP SWAP1 DIV PUSH1 0xFF AND PUSH1 0x2 DUP2 GT ISZERO PUSH2 0x84F JUMPI PUSH2 0x84E PUSH2 0xCD0 JUMP JUMPDEST JUMPDEST PUSH1 0x2 DUP2 GT ISZERO PUSH2 0x861 JUMPI PUSH2 0x860 PUSH2 0xCD0 JUMP JUMPDEST JUMPDEST DUP2 MSTORE POP POP DUP2 MSTORE PUSH1 0x20 ADD SWAP1 PUSH1 0x1 ADD SWAP1 PUSH2 0x69E JUMP JUMPDEST POP POP POP POP SWAP1 POP SWAP1 JUMP JUMPDEST PUSH1 0x2 DUP1 SLOAD SWAP1 POP DUP2 LT PUSH2 0x8C4 JUMPI PUSH1 0x40 MLOAD PUSH32 0x8C379A000000000000000000000000000000000000000000000000000000000 DUP2 MSTORE PUSH1 0x4 ADD PUSH2 0x8BB SWAP1 PUSH2 0x12F5 JUMP JUMPDEST PUSH1 0x40 MLOAD DUP1 SWAP2 SUB SWAP1 REVERT JUMPDEST PUSH1 0x2 PUSH1 0x1 PUSH1 0x2 DUP1 SLOAD SWAP1 POP PUSH2 0x8D8 SWAP2 SWAP1 PUSH2 0x1651 JUMP JUMPDEST DUP2 SLOAD DUP2 LT PUSH2 0x8E9 JUMPI PUSH2 0x8E8 PUSH2 0x1315 JUMP JUMPDEST JUMPDEST SWAP1 PUSH1 0x0 MSTORE PUSH1 0x20 PUSH1 0x0 KECCAK256 SWAP1 PUSH1 0x4 MUL ADD PUSH1 0x2 DUP3 DUP2 SLOAD DUP2 LT PUSH2 0x90B JUMPI PUSH2 0x90A PUSH2 0x1315 JUMP JUMPDEST JUMPDEST SWAP1 PUSH1 0x0 MSTORE PUSH1 0x20 PUSH1 0x0 KECCAK256 SWAP1 PUSH1 0x4 MUL ADD PUSH1 0x0 DUP3 ADD DUP2 PUSH1 0x0 ADD SWAP1 DUP2 PUSH2 0x92D SWAP2 SWAP1 PUSH2 0x169B JUMP JUMPDEST POP PUSH1 0x1 DUP3 ADD SLOAD DUP2 PUSH1 0x1 ADD SSTORE PUSH1 0x2 DUP3 ADD DUP2 PUSH1 0x2 ADD SWAP1 DUP2 PUSH2 0x94C SWAP2 SWAP1 PUSH2 0x169B JUMP JUMPDEST POP PUSH1 0x3 DUP3 ADD PUSH1 0x0 SWAP1 SLOAD SWAP1 PUSH2 0x100 EXP SWAP1 DIV PUSH1 0xFF AND DUP2 PUSH1 0x3 ADD PUSH1 0x0 PUSH2 0x100 EXP DUP2 SLOAD DUP2 PUSH1 0xFF MUL NOT AND SWAP1 DUP4 PUSH1 0x1 DUP2 GT ISZERO PUSH2 0x985 JUMPI PUSH2 0x984 PUSH2 0xCD0 JUMP JUMPDEST JUMPDEST MUL OR SWAP1 SSTORE POP PUSH1 0x3 DUP3 ADD PUSH1 0x1 SWAP1 SLOAD SWAP1 PUSH2 0x100 EXP SWAP1 DIV PUSH1 0xFF AND DUP2 PUSH1 0x3 ADD PUSH1 0x1 PUSH2 0x100 EXP DUP2 SLOAD DUP2 PUSH1 0xFF MUL NOT AND SWAP1 DUP4 PUSH1 0x2 DUP2 GT ISZERO PUSH2 0x9C2 JUMPI PUSH2 0x9C1 PUSH2 0xCD0 JUMP JUMPDEST JUMPDEST MUL OR SWAP1 SSTORE POP SWAP1 POP POP PUSH1 0x2 DUP1 SLOAD DUP1 PUSH2 0x9DC JUMPI PUSH2 0x9DB PUSH2 0x1783 JUMP JUMPDEST JUMPDEST PUSH1 0x1 SWAP1 SUB DUP2 DUP2 SWAP1 PUSH1 0x0 MSTORE PUSH1 0x20 PUSH1 0x0 KECCAK256 SWAP1 PUSH1 0x4 MUL ADD PUSH1 0x0 DUP1 DUP3 ADD PUSH1 0x0 PUSH2 0xA01 SWAP2 SWAP1 PUSH2 0xB5D JUMP JUMPDEST PUSH1 0x1 DUP3 ADD PUSH1 0x0 SWAP1 SSTORE PUSH1 0x2 DUP3 ADD PUSH1 0x0 PUSH2 0xA19 SWAP2 SWAP1 PUSH2 0xB5D JUMP JUMPDEST PUSH1 0x3 DUP3 ADD PUSH1 0x0 PUSH2 0x100 EXP DUP2 SLOAD SWAP1 PUSH1 0xFF MUL NOT AND SWAP1 SSTORE PUSH1 0x3 DUP3 ADD PUSH1 0x1 PUSH2 0x100 EXP DUP2 SLOAD SWAP1 PUSH1 0xFF MUL NOT AND SWAP1 SSTORE POP POP SWAP1 SSTORE POP JUMP JUMPDEST PUSH1 0x2 PUSH1 0x40 MLOAD DUP1 PUSH1 0xA0 ADD PUSH1 0x40 MSTORE DUP1 DUP8 DUP2 MSTORE PUSH1 0x20 ADD DUP7 DUP2 MSTORE PUSH1 0x20 ADD DUP6 DUP2 MSTORE PUSH1 0x20 ADD DUP5 PUSH1 0x1 DUP2 GT ISZERO PUSH2 0xA7A JUMPI PUSH2 0xA79 PUSH2 0xCD0 JUMP JUMPDEST JUMPDEST DUP2 MSTORE PUSH1 0x20 ADD DUP4 PUSH1 0x2 DUP2 GT ISZERO PUSH2 0xA92 JUMPI PUSH2 0xA91 PUSH2 0xCD0 JUMP JUMPDEST JUMPDEST DUP2 MSTORE POP SWAP1 DUP1 PUSH1 0x1 DUP2 SLOAD ADD DUP1 DUP3 SSTORE DUP1 SWAP2 POP POP PUSH1 0x1 SWAP1 SUB SWAP1 PUSH1 0x0 MSTORE PUSH1 0x20 PUSH1 0x0 KECCAK256 SWAP1 PUSH1 0x4 MUL ADD PUSH1 0x0 SWAP1 SWAP2 SWAP1 SWAP2 SWAP1 SWAP2 POP PUSH1 0x0 DUP3 ADD MLOAD DUP2 PUSH1 0x0 ADD SWAP1 DUP2 PUSH2 0xAD3 SWAP2 SWAP1 PUSH2 0x1550 JUMP JUMPDEST POP PUSH1 0x20 DUP3 ADD MLOAD DUP2 PUSH1 0x1 ADD SSTORE PUSH1 0x40 DUP3 ADD MLOAD DUP2 PUSH1 0x2 ADD SWAP1 DUP2 PUSH2 0xAF3 SWAP2 SWAP1 PUSH2 0x1550 JUMP JUMPDEST POP PUSH1 0x60 DUP3 ADD MLOAD DUP2 PUSH1 0x3 ADD PUSH1 0x0 PUSH2 0x100 EXP DUP2 SLOAD DUP2 PUSH1 0xFF MUL NOT AND SWAP1 DUP4 PUSH1 0x1 DUP2 GT ISZERO PUSH2 0xB1F JUMPI PUSH2 0xB1E PUSH2 0xCD0 JUMP JUMPDEST JUMPDEST MUL OR SWAP1 SSTORE POP PUSH1 0x80 DUP3 ADD MLOAD DUP2 PUSH1 0x3 ADD PUSH1 0x1 PUSH2 0x100 EXP DUP2 SLOAD DUP2 PUSH1 0xFF MUL NOT AND SWAP1 DUP4 PUSH1 0x2 DUP2 GT ISZERO PUSH2 0xB4F JUMPI PUSH2 0xB4E PUSH2 0xCD0 JUMP JUMPDEST JUMPDEST MUL OR SWAP1 SSTORE POP POP POP POP POP POP POP POP JUMP JUMPDEST POP DUP1 SLOAD PUSH2 0xB69 SWAP1 PUSH2 0x1373 JUMP JUMPDEST PUSH1 0x0 DUP3 SSTORE DUP1 PUSH1 0x1F LT PUSH2 0xB7B JUMPI POP PUSH2 0xB9A JUMP JUMPDEST PUSH1 0x1F ADD PUSH1 0x20 SWAP1 DIV SWAP1 PUSH1 0x0 MSTORE PUSH1 0x20 PUSH1 0x0 KECCAK256 SWAP1 DUP2 ADD SWAP1 PUSH2 0xB99 SWAP2 SWAP1 PUSH2 0xB9D JUMP JUMPDEST JUMPDEST POP JUMP JUMPDEST JUMPDEST DUP1 DUP3 GT ISZERO PUSH2 0xBB6 JUMPI PUSH1 0x0 DUP2 PUSH1 0x0 SWAP1 SSTORE POP PUSH1 0x1 ADD PUSH2 0xB9E JUMP JUMPDEST POP SWAP1 JUMP JUMPDEST PUSH1 0x0 PUSH1 0x40 MLOAD SWAP1 POP SWAP1 JUMP JUMPDEST PUSH1 0x0 DUP1 REVERT JUMPDEST PUSH1 0x0 DUP1 REVERT JUMPDEST PUSH1 0x0 DUP2 SWAP1 POP SWAP2 SWAP1 POP JUMP JUMPDEST PUSH2 0xBE1 DUP2 PUSH2 0xBCE JUMP JUMPDEST DUP2 EQ PUSH2 0xBEC JUMPI PUSH1 0x0 DUP1 REVERT JUMPDEST POP JUMP JUMPDEST PUSH1 0x0 DUP2 CALLDATALOAD SWAP1 POP PUSH2 0xBFE DUP2 PUSH2 0xBD8 JUMP JUMPDEST SWAP3 SWAP2 POP POP JUMP JUMPDEST PUSH1 0x0 PUSH1 0x20 DUP3 DUP5 SUB SLT ISZERO PUSH2 0xC1A JUMPI PUSH2 0xC19 PUSH2 0xBC4 JUMP JUMPDEST JUMPDEST PUSH1 0x0 PUSH2 0xC28 DUP5 DUP3 DUP6 ADD PUSH2 0xBEF JUMP JUMPDEST SWAP2 POP POP SWAP3 SWAP2 POP POP JUMP JUMPDEST PUSH1 0x0 DUP2 MLOAD SWAP1 POP SWAP2 SWAP1 POP JUMP JUMPDEST PUSH1 0x0 DUP3 DUP3 MSTORE PUSH1 0x20 DUP3 ADD SWAP1 POP SWAP3 SWAP2 POP POP JUMP JUMPDEST PUSH1 0x0 JUMPDEST DUP4 DUP2 LT ISZERO PUSH2 0xC6B JUMPI DUP1 DUP3 ADD MLOAD DUP2 DUP5 ADD MSTORE PUSH1 0x20 DUP2 ADD SWAP1 POP PUSH2 0xC50 JUMP JUMPDEST PUSH1 0x0 DUP5 DUP5 ADD MSTORE POP POP POP POP JUMP JUMPDEST PUSH1 0x0 PUSH1 0x1F NOT PUSH1 0x1F DUP4 ADD AND SWAP1 POP SWAP2 SWAP1 POP JUMP JUMPDEST PUSH1 0x0 PUSH2 0xC93 DUP3 PUSH2 0xC31 JUMP JUMPDEST PUSH2 0xC9D DUP2 DUP6 PUSH2 0xC3C JUMP JUMPDEST SWAP4 POP PUSH2 0xCAD DUP2 DUP6 PUSH1 0x20 DUP7 ADD PUSH2 0xC4D JUMP JUMPDEST PUSH2 0xCB6 DUP2 PUSH2 0xC77 JUMP JUMPDEST DUP5 ADD SWAP2 POP POP SWAP3 SWAP2 POP POP JUMP JUMPDEST PUSH2 0xCCA DUP2 PUSH2 0xBCE JUMP JUMPDEST DUP3 MSTORE POP POP JUMP JUMPDEST PUSH32 0x4E487B7100000000000000000000000000000000000000000000000000000000 PUSH1 0x0 MSTORE PUSH1 0x21 PUSH1 0x4 MSTORE PUSH1 0x24 PUSH1 0x0 REVERT JUMPDEST PUSH1 0x2 DUP2 LT PUSH2 0xD10 JUMPI PUSH2 0xD0F PUSH2 0xCD0 JUMP JUMPDEST JUMPDEST POP JUMP JUMPDEST PUSH1 0x0 DUP2 SWAP1 POP PUSH2 0xD21 DUP3 PUSH2 0xCFF JUMP JUMPDEST SWAP2 SWAP1 POP JUMP JUMPDEST PUSH1 0x0 PUSH2 0xD31 DUP3 PUSH2 0xD13 JUMP JUMPDEST SWAP1 POP SWAP2 SWAP1 POP JUMP JUMPDEST PUSH2 0xD41 DUP2 PUSH2 0xD26 JUMP JUMPDEST DUP3 MSTORE POP POP JUMP JUMPDEST PUSH1 0x3 DUP2 LT PUSH2 0xD58 JUMPI PUSH2 0xD57 PUSH2 0xCD0 JUMP JUMPDEST JUMPDEST POP JUMP JUMPDEST PUSH1 0x0 DUP2 SWAP1 POP PUSH2 0xD69 DUP3 PUSH2 0xD47 JUMP JUMPDEST SWAP2 SWAP1 POP JUMP JUMPDEST PUSH1 0x0 PUSH2 0xD79 DUP3 PUSH2 0xD5B JUMP JUMPDEST SWAP1 POP SWAP2 SWAP1 POP JUMP JUMPDEST PUSH2 0xD89 DUP2 PUSH2 0xD6E JUMP JUMPDEST DUP3 MSTORE POP POP JUMP JUMPDEST PUSH1 0x0 PUSH1 0xA0 DUP3 ADD SWAP1 POP DUP2 DUP2 SUB PUSH1 0x0 DUP4 ADD MSTORE PUSH2 0xDA9 DUP2 DUP9 PUSH2 0xC88 JUMP JUMPDEST SWAP1 POP PUSH2 0xDB8 PUSH1 0x20 DUP4 ADD DUP8 PUSH2 0xCC1 JUMP JUMPDEST DUP2 DUP2 SUB PUSH1 0x40 DUP4 ADD MSTORE PUSH2 0xDCA DUP2 DUP7 PUSH2 0xC88 JUMP JUMPDEST SWAP1 POP PUSH2 0xDD9 PUSH1 0x60 DUP4 ADD DUP6 PUSH2 0xD38 JUMP JUMPDEST PUSH2 0xDE6 PUSH1 0x80 DUP4 ADD DUP5 PUSH2 0xD80 JUMP JUMPDEST SWAP7 SWAP6 POP POP POP POP POP POP JUMP JUMPDEST PUSH1 0x3 DUP2 LT PUSH2 0xDFD JUMPI PUSH1 0x0 DUP1 REVERT JUMPDEST POP JUMP JUMPDEST PUSH1 0x0 DUP2 CALLDATALOAD SWAP1 POP PUSH2 0xE0F DUP2 PUSH2 0xDF0 JUMP JUMPDEST SWAP3 SWAP2 POP POP JUMP JUMPDEST PUSH1 0x0 DUP1 PUSH1 0x40 DUP4 DUP6 SUB SLT ISZERO PUSH2 0xE2C JUMPI PUSH2 0xE2B PUSH2 0xBC4 JUMP JUMPDEST JUMPDEST PUSH1 0x0 PUSH2 0xE3A DUP6 DUP3 DUP7 ADD PUSH2 0xBEF JUMP JUMPDEST SWAP3 POP POP PUSH1 0x20 PUSH2 0xE4B DUP6 DUP3 DUP7 ADD PUSH2 0xE00 JUMP JUMPDEST SWAP2 POP POP SWAP3 POP SWAP3 SWAP1 POP JUMP JUMPDEST PUSH1 0x0 DUP1 REVERT JUMPDEST PUSH1 0x0 DUP1 REVERT JUMPDEST PUSH32 0x4E487B7100000000000000000000000000000000000000000000000000000000 PUSH1 0x0 MSTORE PUSH1 0x41 PUSH1 0x4 MSTORE PUSH1 0x24 PUSH1 0x0 REVERT JUMPDEST PUSH2 0xE97 DUP3 PUSH2 0xC77 JUMP JUMPDEST DUP2 ADD DUP2 DUP2 LT PUSH8 0xFFFFFFFFFFFFFFFF DUP3 GT OR ISZERO PUSH2 0xEB6 JUMPI PUSH2 0xEB5 PUSH2 0xE5F JUMP JUMPDEST JUMPDEST DUP1 PUSH1 0x40 MSTORE POP POP POP JUMP JUMPDEST PUSH1 0x0 PUSH2 0xEC9 PUSH2 0xBBA JUMP JUMPDEST SWAP1 POP PUSH2 0xED5 DUP3 DUP3 PUSH2 0xE8E JUMP JUMPDEST SWAP2 SWAP1 POP JUMP JUMPDEST PUSH1 0x0 PUSH8 0xFFFFFFFFFFFFFFFF DUP3 GT ISZERO PUSH2 0xEF5 JUMPI PUSH2 0xEF4 PUSH2 0xE5F JUMP JUMPDEST JUMPDEST PUSH2 0xEFE DUP3 PUSH2 0xC77 JUMP JUMPDEST SWAP1 POP PUSH1 0x20 DUP2 ADD SWAP1 POP SWAP2 SWAP1 POP JUMP JUMPDEST DUP3 DUP2 DUP4 CALLDATACOPY PUSH1 0x0 DUP4 DUP4 ADD MSTORE POP POP POP JUMP JUMPDEST PUSH1 0x0 PUSH2 0xF2D PUSH2 0xF28 DUP5 PUSH2 0xEDA JUMP JUMPDEST PUSH2 0xEBF JUMP JUMPDEST SWAP1 POP DUP3 DUP2 MSTORE PUSH1 0x20 DUP2 ADD DUP5 DUP5 DUP5 ADD GT ISZERO PUSH2 0xF49 JUMPI PUSH2 0xF48 PUSH2 0xE5A JUMP JUMPDEST JUMPDEST PUSH2 0xF54 DUP5 DUP3 DUP6 PUSH2 0xF0B JUMP JUMPDEST POP SWAP4 SWAP3 POP POP POP JUMP JUMPDEST PUSH1 0x0 DUP3 PUSH1 0x1F DUP4 ADD SLT PUSH2 0xF71 JUMPI PUSH2 0xF70 PUSH2 0xE55 JUMP JUMPDEST JUMPDEST DUP2 CALLDATALOAD PUSH2 0xF81 DUP5 DUP3 PUSH1 0x20 DUP7 ADD PUSH2 0xF1A JUMP JUMPDEST SWAP2 POP POP SWAP3 SWAP2 POP POP JUMP JUMPDEST PUSH1 0x0 DUP1 PUSH1 0x0 PUSH1 0x60 DUP5 DUP7 SUB SLT ISZERO PUSH2 0xFA3 JUMPI PUSH2 0xFA2 PUSH2 0xBC4 JUMP JUMPDEST JUMPDEST PUSH1 0x0 PUSH2 0xFB1 DUP7 DUP3 DUP8 ADD PUSH2 0xBEF JUMP JUMPDEST SWAP4 POP POP PUSH1 0x20 DUP5 ADD CALLDATALOAD PUSH8 0xFFFFFFFFFFFFFFFF DUP2 GT ISZERO PUSH2 0xFD2 JUMPI PUSH2 0xFD1 PUSH2 0xBC9 JUMP JUMPDEST JUMPDEST PUSH2 0xFDE DUP7 DUP3 DUP8 ADD PUSH2 0xF5C JUMP JUMPDEST SWAP3 POP POP PUSH1 0x40 PUSH2 0xFEF DUP7 DUP3 DUP8 ADD PUSH2 0xBEF JUMP JUMPDEST SWAP2 POP POP SWAP3 POP SWAP3 POP SWAP3 JUMP JUMPDEST PUSH1 0x0 DUP2 MLOAD SWAP1 POP SWAP2 SWAP1 POP JUMP JUMPDEST PUSH1 0x0 DUP3 DUP3 MSTORE PUSH1 0x20 DUP3 ADD SWAP1 POP SWAP3 SWAP2 POP POP JUMP JUMPDEST PUSH1 0x0 DUP2 SWAP1 POP PUSH1 0x20 DUP3 ADD SWAP1 POP SWAP2 SWAP1 POP JUMP JUMPDEST PUSH1 0x0 DUP3 DUP3 MSTORE PUSH1 0x20 DUP3 ADD SWAP1 POP SWAP3 SWAP2 POP POP JUMP JUMPDEST PUSH1 0x0 PUSH2 0x1041 DUP3 PUSH2 0xC31 JUMP JUMPDEST PUSH2 0x104B DUP2 DUP6 PUSH2 0x1025 JUMP JUMPDEST SWAP4 POP PUSH2 0x105B DUP2 DUP6 PUSH1 0x20 DUP7 ADD PUSH2 0xC4D JUMP JUMPDEST PUSH2 0x1064 DUP2 PUSH2 0xC77 JUMP JUMPDEST DUP5 ADD SWAP2 POP POP SWAP3 SWAP2 POP POP JUMP JUMPDEST PUSH2 0x1078 DUP2 PUSH2 0xBCE JUMP JUMPDEST DUP3 MSTORE POP POP JUMP JUMPDEST PUSH2 0x1087 DUP2 PUSH2 0xD26 JUMP JUMPDEST DUP3 MSTORE POP POP JUMP JUMPDEST PUSH2 0x1096 DUP2 PUSH2 0xD6E JUMP JUMPDEST DUP3 MSTORE POP POP JUMP JUMPDEST PUSH1 0x0 PUSH1 0xA0 DUP4 ADD PUSH1 0x0 DUP4 ADD MLOAD DUP5 DUP3 SUB PUSH1 0x0 DUP7 ADD MSTORE PUSH2 0x10B9 DUP3 DUP3 PUSH2 0x1036 JUMP JUMPDEST SWAP2 POP POP PUSH1 0x20 DUP4 ADD MLOAD PUSH2 0x10CE PUSH1 0x20 DUP7 ADD DUP3 PUSH2 0x106F JUMP JUMPDEST POP PUSH1 0x40 DUP4 ADD MLOAD DUP5 DUP3 SUB PUSH1 0x40 DUP7 ADD MSTORE PUSH2 0x10E6 DUP3 DUP3 PUSH2 0x1036 JUMP JUMPDEST SWAP2 POP POP PUSH1 0x60 DUP4 ADD MLOAD PUSH2 0x10FB PUSH1 0x60 DUP7 ADD DUP3 PUSH2 0x107E JUMP JUMPDEST POP PUSH1 0x80 DUP4 ADD MLOAD PUSH2 0x110E PUSH1 0x80 DUP7 ADD DUP3 PUSH2 0x108D JUMP JUMPDEST POP DUP1 SWAP2 POP POP SWAP3 SWAP2 POP POP JUMP JUMPDEST PUSH1 0x0 PUSH2 0x1125 DUP4 DUP4 PUSH2 0x109C JUMP JUMPDEST SWAP1 POP SWAP3 SWAP2 POP POP JUMP JUMPDEST PUSH1 0x0 PUSH1 0x20 DUP3 ADD SWAP1 POP SWAP2 SWAP1 POP JUMP JUMPDEST PUSH1 0x0 PUSH2 0x1145 DUP3 PUSH2 0xFF9 JUMP JUMPDEST PUSH2 0x114F DUP2 DUP6 PUSH2 0x1004 JUMP JUMPDEST SWAP4 POP DUP4 PUSH1 0x20 DUP3 MUL DUP6 ADD PUSH2 0x1161 DUP6 PUSH2 0x1015 JUMP JUMPDEST DUP1 PUSH1 0x0 JUMPDEST DUP6 DUP2 LT ISZERO PUSH2 0x119D JUMPI DUP5 DUP5 SUB DUP10 MSTORE DUP2 MLOAD PUSH2 0x117E DUP6 DUP3 PUSH2 0x1119 JUMP JUMPDEST SWAP5 POP PUSH2 0x1189 DUP4 PUSH2 0x112D JUMP JUMPDEST SWAP3 POP PUSH1 0x20 DUP11 ADD SWAP10 POP POP PUSH1 0x1 DUP2 ADD SWAP1 POP PUSH2 0x1165 JUMP JUMPDEST POP DUP3 SWAP8 POP DUP8 SWAP6 POP POP POP POP POP POP SWAP3 SWAP2 POP POP JUMP JUMPDEST PUSH1 0x0 PUSH1 0x20 DUP3 ADD SWAP1 POP DUP2 DUP2 SUB PUSH1 0x0 DUP4 ADD MSTORE PUSH2 0x11C9 DUP2 DUP5 PUSH2 0x113A JUMP JUMPDEST SWAP1 POP SWAP3 SWAP2 POP POP JUMP JUMPDEST PUSH1 0x2 DUP2 LT PUSH2 0x11DE JUMPI PUSH1 0x0 DUP1 REVERT JUMPDEST POP JUMP JUMPDEST PUSH1 0x0 DUP2 CALLDATALOAD SWAP1 POP PUSH2 0x11F0 DUP2 PUSH2 0x11D1 JUMP JUMPDEST SWAP3 SWAP2 POP POP JUMP JUMPDEST PUSH1 0x0 DUP1 PUSH1 0x0 DUP1 PUSH1 0x0 PUSH1 0xA0 DUP7 DUP9 SUB SLT ISZERO PUSH2 0x1212 JUMPI PUSH2 0x1211 PUSH2 0xBC4 JUMP JUMPDEST JUMPDEST PUSH1 0x0 DUP7 ADD CALLDATALOAD PUSH8 0xFFFFFFFFFFFFFFFF DUP2 GT ISZERO PUSH2 0x1230 JUMPI PUSH2 0x122F PUSH2 0xBC9 JUMP JUMPDEST JUMPDEST PUSH2 0x123C DUP9 DUP3 DUP10 ADD PUSH2 0xF5C JUMP JUMPDEST SWAP6 POP POP PUSH1 0x20 PUSH2 0x124D DUP9 DUP3 DUP10 ADD PUSH2 0xBEF JUMP JUMPDEST SWAP5 POP POP PUSH1 0x40 DUP7 ADD CALLDATALOAD PUSH8 0xFFFFFFFFFFFFFFFF DUP2 GT ISZERO PUSH2 0x126E JUMPI PUSH2 0x126D PUSH2 0xBC9 JUMP JUMPDEST JUMPDEST PUSH2 0x127A DUP9 DUP3 DUP10 ADD PUSH2 0xF5C JUMP JUMPDEST SWAP4 POP POP PUSH1 0x60 PUSH2 0x128B DUP9 DUP3 DUP10 ADD PUSH2 0x11E1 JUMP JUMPDEST SWAP3 POP POP PUSH1 0x80 PUSH2 0x129C DUP9 DUP3 DUP10 ADD PUSH2 0xE00 JUMP JUMPDEST SWAP2 POP POP SWAP3 SWAP6 POP SWAP3 SWAP6 SWAP1 SWAP4 POP JUMP JUMPDEST PUSH32 0x53747564656E7420646F6573206E6F7420657869737400000000000000000000 PUSH1 0x0 DUP3 ADD MSTORE POP JUMP JUMPDEST PUSH1 0x0 PUSH2 0x12DF PUSH1 0x16 DUP4 PUSH2 0xC3C JUMP JUMPDEST SWAP2 POP PUSH2 0x12EA DUP3 PUSH2 0x12A9 JUMP JUMPDEST PUSH1 0x20 DUP3 ADD SWAP1 POP SWAP2 SWAP1 POP JUMP JUMPDEST PUSH1 0x0 PUSH1 0x20 DUP3 ADD SWAP1 POP DUP2 DUP2 SUB PUSH1 0x0 DUP4 ADD MSTORE PUSH2 0x130E DUP2 PUSH2 0x12D2 JUMP JUMPDEST SWAP1 POP SWAP2 SWAP1 POP JUMP JUMPDEST PUSH32 0x4E487B7100000000000000000000000000000000000000000000000000000000 PUSH1 0x0 MSTORE PUSH1 0x32 PUSH1 0x4 MSTORE PUSH1 0x24 PUSH1 0x0 REVERT JUMPDEST PUSH32 0x4E487B7100000000000000000000000000000000000000000000000000000000 PUSH1 0x0 MSTORE PUSH1 0x22 PUSH1 0x4 MSTORE PUSH1 0x24 PUSH1 0x0 REVERT JUMPDEST PUSH1 0x0 PUSH1 0x2 DUP3 DIV SWAP1 POP PUSH1 0x1 DUP3 AND DUP1 PUSH2 0x138B JUMPI PUSH1 0x7F DUP3 AND SWAP2 POP JUMPDEST PUSH1 0x20 DUP3 LT DUP2 SUB PUSH2 0x139E JUMPI PUSH2 0x139D PUSH2 0x1344 JUMP JUMPDEST JUMPDEST POP SWAP2 SWAP1 POP JUMP JUMPDEST PUSH1 0x0 DUP2 SWAP1 POP DUP2 PUSH1 0x0 MSTORE PUSH1 0x20 PUSH1 0x0 KECCAK256 SWAP1 POP SWAP2 SWAP1 POP JUMP JUMPDEST PUSH1 0x0 PUSH1 0x20 PUSH1 0x1F DUP4 ADD DIV SWAP1 POP SWAP2 SWAP1 POP JUMP JUMPDEST PUSH1 0x0 DUP3 DUP3 SHL SWAP1 POP SWAP3 SWAP2 POP POP JUMP JUMPDEST PUSH1 0x0 PUSH1 0x8 DUP4 MUL PUSH2 0x1406 PUSH32 0xFFFFFFFFFFFFFFFFFFFFFFFFFFFFFFFFFFFFFFFFFFFFFFFFFFFFFFFFFFFFFFFF DUP3 PUSH2 0x13C9 JUMP JUMPDEST PUSH2 0x1410 DUP7 DUP4 PUSH2 0x13C9 JUMP JUMPDEST SWAP6 POP DUP1 NOT DUP5 AND SWAP4 POP DUP1 DUP7 AND DUP5 OR SWAP3 POP POP POP SWAP4 SWAP3 POP POP POP JUMP JUMPDEST PUSH1 0x0 DUP2 SWAP1 POP SWAP2 SWAP1 POP JUMP JUMPDEST PUSH1 0x0 PUSH2 0x144D PUSH2 0x1448 PUSH2 0x1443 DUP5 PUSH2 0xBCE JUMP JUMPDEST PUSH2 0x1428 JUMP JUMPDEST PUSH2 0xBCE JUMP JUMPDEST SWAP1 POP SWAP2 SWAP1 POP JUMP JUMPDEST PUSH1 0x0 DUP2 SWAP1 POP SWAP2 SWAP1 POP JUMP JUMPDEST PUSH2 0x1467 DUP4 PUSH2 0x1432 JUMP JUMPDEST PUSH2 0x147B PUSH2 0x1473 DUP3 PUSH2 0x1454 JUMP JUMPDEST DUP5 DUP5 SLOAD PUSH2 0x13D6 JUMP JUMPDEST DUP3 SSTORE POP POP POP POP JUMP JUMPDEST PUSH1 0x0 SWAP1 JUMP JUMPDEST PUSH2 0x1490 PUSH2 0x1483 JUMP JUMPDEST PUSH2 0x149B DUP2 DUP5 DUP5 PUSH2 0x145E JUMP JUMPDEST POP POP POP JUMP JUMPDEST JUMPDEST DUP2 DUP2 LT ISZERO PUSH2 0x14BF JUMPI PUSH2 0x14B4 PUSH1 0x0 DUP3 PUSH2 0x1488 JUMP JUMPDEST PUSH1 0x1 DUP2 ADD SWAP1 POP PUSH2 0x14A1 JUMP JUMPDEST POP POP JUMP JUMPDEST PUSH1 0x1F DUP3 GT ISZERO PUSH2 0x1504 JUMPI PUSH2 0x14D5 DUP2 PUSH2 0x13A4 JUMP JUMPDEST PUSH2 0x14DE DUP5 PUSH2 0x13B9 JUMP JUMPDEST DUP2 ADD PUSH1 0x20 DUP6 LT ISZERO PUSH2 0x14ED JUMPI DUP2 SWAP1 POP JUMPDEST PUSH2 0x1501 PUSH2 0x14F9 DUP6 PUSH2 0x13B9 JUMP JUMPDEST DUP4 ADD DUP3 PUSH2 0x14A0 JUMP JUMPDEST POP POP JUMPDEST POP POP POP JUMP JUMPDEST PUSH1 0x0 DUP3 DUP3 SHR SWAP1 POP SWAP3 SWAP2 POP POP JUMP JUMPDEST PUSH1 0x0 PUSH2 0x1527 PUSH1 0x0 NOT DUP5 PUSH1 0x8 MUL PUSH2 0x1509 JUMP JUMPDEST NOT DUP1 DUP4 AND SWAP2 POP POP SWAP3 SWAP2 POP POP JUMP JUMPDEST PUSH1 0x0 PUSH2 0x1540 DUP4 DUP4 PUSH2 0x1516 JUMP JUMPDEST SWAP2 POP DUP3 PUSH1 0x2 MUL DUP3 OR SWAP1 POP SWAP3 SWAP2 POP POP JUMP JUMPDEST PUSH2 0x1559 DUP3 PUSH2 0xC31 JUMP JUMPDEST PUSH8 0xFFFFFFFFFFFFFFFF DUP2 GT ISZERO PUSH2 0x1572 JUMPI PUSH2 0x1571 PUSH2 0xE5F JUMP JUMPDEST JUMPDEST PUSH2 0x157C DUP3 SLOAD PUSH2 0x1373 JUMP JUMPDEST PUSH2 0x1587 DUP3 DUP3 DUP6 PUSH2 0x14C3 JUMP JUMPDEST PUSH1 0x0 PUSH1 0x20 SWAP1 POP PUSH1 0x1F DUP4 GT PUSH1 0x1 DUP2 EQ PUSH2 0x15BA JUMPI PUSH1 0x0 DUP5 ISZERO PUSH2 0x15A8 JUMPI DUP3 DUP8 ADD MLOAD SWAP1 POP JUMPDEST PUSH2 0x15B2 DUP6 DUP3 PUSH2 0x1534 JUMP JUMPDEST DUP7 SSTORE POP PUSH2 0x161A JUMP JUMPDEST PUSH1 0x1F NOT DUP5 AND PUSH2 0x15C8 DUP7 PUSH2 0x13A4 JUMP JUMPDEST PUSH1 0x0 JUMPDEST DUP3 DUP2 LT ISZERO PUSH2 0x15F0 JUMPI DUP5 DUP10 ADD MLOAD DUP3 SSTORE PUSH1 0x1 DUP3 ADD SWAP2 POP PUSH1 0x20 DUP6 ADD SWAP5 POP PUSH1 0x20 DUP2 ADD SWAP1 POP PUSH2 0x15CB JUMP JUMPDEST DUP7 DUP4 LT ISZERO PUSH2 0x160D JUMPI DUP5 DUP10 ADD MLOAD PUSH2 0x1609 PUSH1 0x1F DUP10 AND DUP3 PUSH2 0x1516 JUMP JUMPDEST DUP4 SSTORE POP JUMPDEST PUSH1 0x1 PUSH1 0x2 DUP9 MUL ADD DUP9 SSTORE POP POP POP JUMPDEST POP POP POP POP POP POP JUMP JUMPDEST PUSH32 0x4E487B7100000000000000000000000000000000000000000000000000000000 PUSH1 0x0 MSTORE PUSH1 0x11 PUSH1 0x4 MSTORE PUSH1 0x24 PUSH1 0x0 REVERT JUMPDEST PUSH1 0x0 PUSH2 0x165C DUP3 PUSH2 0xBCE JUMP JUMPDEST SWAP2 POP PUSH2 0x1667 DUP4 PUSH2 0xBCE JUMP JUMPDEST SWAP3 POP DUP3 DUP3 SUB SWAP1 POP DUP2 DUP2 GT ISZERO PUSH2 0x167F JUMPI PUSH2 0x167E PUSH2 0x1622 JUMP JUMPDEST JUMPDEST SWAP3 SWAP2 POP POP JUMP JUMPDEST PUSH1 0x0 DUP2 SLOAD SWAP1 POP PUSH2 0x1694 DUP2 PUSH2 0x1373 JUMP JUMPDEST SWAP1 POP SWAP2 SWAP1 POP JUMP JUMPDEST DUP2 DUP2 SUB PUSH2 0x16A9 JUMPI POP POP PUSH2 0x1781 JUMP JUMPDEST PUSH2 0x16B2 DUP3 PUSH2 0x1685 JUMP JUMPDEST PUSH8 0xFFFFFFFFFFFFFFFF DUP2 GT ISZERO PUSH2 0x16CB JUMPI PUSH2 0x16CA PUSH2 0xE5F JUMP JUMPDEST JUMPDEST PUSH2 0x16D5 DUP3 SLOAD PUSH2 0x1373 JUMP JUMPDEST PUSH2 0x16E0 DUP3 DUP3 DUP6 PUSH2 0x14C3 JUMP JUMPDEST PUSH1 0x0 PUSH1 0x1F DUP4 GT PUSH1 0x1 DUP2 EQ PUSH2 0x170F JUMPI PUSH1 0x0 DUP5 ISZERO PUSH2 0x16FD JUMPI DUP3 DUP8 ADD SLOAD SWAP1 POP JUMPDEST PUSH2 0x1707 DUP6 DUP3 PUSH2 0x1534 JUMP JUMPDEST DUP7 SSTORE POP PUSH2 0x177A JUMP JUMPDEST PUSH1 0x1F NOT DUP5 AND PUSH2 0x171D DUP8 PUSH2 0x13A4 JUMP JUMPDEST SWAP7 POP PUSH2 0x1728 DUP7 PUSH2 0x13A4 JUMP JUMPDEST PUSH1 0x0 JUMPDEST DUP3 DUP2 LT ISZERO PUSH2 0x1750 JUMPI DUP5 DUP10 ADD SLOAD DUP3 SSTORE PUSH1 0x1 DUP3 ADD SWAP2 POP PUSH1 0x1 DUP6 ADD SWAP5 POP PUSH1 0x20 DUP2 ADD SWAP1 POP PUSH2 0x172B JUMP JUMPDEST DUP7 DUP4 LT ISZERO PUSH2 0x176D JUMPI DUP5 DUP10 ADD SLOAD PUSH2 0x1769 PUSH1 0x1F DUP10 AND DUP3 PUSH2 0x1516 JUMP JUMPDEST DUP4 SSTORE POP JUMPDEST PUSH1 0x1 PUSH1 0x2 DUP9 MUL ADD DUP9 SSTORE POP POP POP JUMPDEST POP POP POP POP POP POP JUMPDEST JUMP JUMPDEST PUSH32 0x4E487B7100000000000000000000000000000000000000000000000000000000 PUSH1 0x0 MSTORE PUSH1 0x31 PUSH1 0x4 MSTORE PUSH1 0x24 PUSH1 0x0 REVERT INVALID LOG2 PUSH5 0x6970667358 0x22 SLT KECCAK256 0x21 DIV 0xE5 0xD0 SWAP1 BLOBBASEFEE 0x2E 0x2D 0xE4 DUP7 PUSH22 0xB24082677DD3112558FAE1654DED2FE34A62E0E1A664 PUSH20 0x6F6C634300081C0033A264697066735822122009 MOD SWAP10 0x4B PUSH23 0x8F4CB71B3228B99956C34CC12609037FBB86625C24DA02 PUSH14 0xB7FECE64736F6C634300081C0033 "
        },
        "methodIdentifiers": {
          "CreateSchool(string)": "30fb9290",
          "GetAllSchools()": "fbd4312a",
          "GetSchoolCount()": "ba0255c3",
          "GetSchoolInfo(uint256)": "3bb4ce35",
          "GetSchoolsByOwner(address)": "d3e0d515",
          "IsValidSchool(address)": "fad34ab2",
          "isSchoolContract(address)": "fefaf20c",
          "schools(uint256)": "719c0d04",
          "schoolsByOwner(address,uint256)": "46ee01d9"
        }
      }
    }
  }
}