{
  "contracts/Todo.sol": {
    "TodoList": {
      "abi": [
        {
          "inputs": [
            {
              "internalType": "uint256",
              "name": "_id",
              "type": "uint256"
            },
            {
              "internalType": "string",
              "name": "_title",
              "type": "string"
            },
            {
              "internalType": "string",
              "name": "_description",
              "type": "string"
            }
          ],
          "name": "create_todo",
          "outputs": [],
          "stateMutability": "nonpayable",
          "type": "function"
        },
        {
          "inputs": [
            {
              "internalType": "uint256",
              "name": "_index",
              "type": "uint256"
            }
          ],
          "name": "delete_todo",
          "outputs": [],
          "stateMutability": "nonpayable",
          "type": "function"
        },
        {
          "inputs": [],
          "name": "get_todos",
          "outputs": [
            {
              "components": [
                {
                  "internalType": "string",
                  "name": "title",
                  "type": "string"
                },
                {
                  "internalType": "string",
                  "name": "description",
                  "type": "string"
                },
                {
                  "internalType": "bool",
                  "name": "status",
                  "type": "bool"
                }
              ],
              "internalType": "struct TodoList.Todo[]",
              "name": "",
              "type": "tuple[]"
            }
          ],
          "stateMutability": "view",
          "type": "function"
        },
        {
          "inputs": [
            {
              "internalType": "uint256",
              "name": "",
              "type": "uint256"
            }
          ],
          "name": "todos",
          "outputs": [
            {
              "internalType": "string",
              "name": "title",
              "type": "string"
            },
            {
              "internalType": "string",
              "name": "description",
              "type": "string"
            },
            {
              "internalType": "bool",
              "name": "status",
              "type": "bool"
            }
          ],
          "stateMutability": "view",
          "type": "function"
        },
        {
          "inputs": [
            {
              "internalType": "uint256",
              "name": "_index",
              "type": "uint256"
            }
          ],
          "name": "toggle_todo_status",
          "outputs": [],
          "stateMutability": "nonpayable",
          "type": "function"
        },
        {
          "inputs": [
            {
              "internalType": "uint256",
              "name": "_index",
              "type": "uint256"
            },
            {
              "internalType": "string",
              "name": "_new_title",
              "type": "string"
            },
            {
              "internalType": "string",
              "name": "_new_description",
              "type": "string"
            }
          ],
          "name": "update_todo",
          "outputs": [],
          "stateMutability": "nonpayable",
          "type": "function"
        }
      ],
      "evm": {
        "bytecode": {
          "linkReferences": {},
          "object": "6080604052348015600f57600080fd5b50610f848061001f6000396000f3fe608060405234801561001057600080fd5b50600436106100625760003560e01c80633865881b146100675780635a051ea2146100855780636bbdadff146100a15780638f08bb21146100bd578063bc8bc2b4146100d9578063fdeb43691461010b575b600080fd5b61006f610127565b60405161007c919061084c565b60405180910390f35b61009f600480360381019061009a91906108b8565b6102c5565b005b6100bb60048036038101906100b691906108b8565b61032e565b005b6100d760048036038101906100d29190610a1a565b61037a565b005b6100f360048036038101906100ee91906108b8565b6103ba565b60405161010293929190610afe565b60405180910390f35b61012560048036038101906101209190610a1a565b610511565b005b60606001805480602002602001604051908101604052809291908181526020016000905b828210156102bc578382906000526020600020906003020160405180606001604052908160008201805461017e90610b72565b80601f01602080910402602001604051908101604052809291908181526020018280546101aa90610b72565b80156101f75780601f106101cc576101008083540402835291602001916101f7565b820191906000526020600020905b8154815290600101906020018083116101da57829003601f168201915b5050505050815260200160018201805461021090610b72565b80601f016020809104026020016040519081016040528092919081815260200182805461023c90610b72565b80156102895780601f1061025e57610100808354040283529160200191610289565b820191906000526020600020905b81548152906001019060200180831161026c57829003601f168201915b505050505081526020016002820160009054906101000a900460ff1615151515815250508152602001906001019061014b565b50505050905090565b60008060008381526020019081526020016000209050600182815481106102ef576102ee610ba3565b5b906000526020600020906003020160020160009054906101000a900460ff16158160020160006101000a81548160ff0219169083151502179055505050565b60008082815260200190815260200160002060008082016000610351919061062b565b600182016000610361919061062b565b6002820160006101000a81549060ff0219169055505050565b60008060008581526020019081526020016000209050828160000190816103a19190610d7e565b50818160010190816103b39190610d7e565b5050505050565b600181815481106103ca57600080fd5b90600052602060002090600302016000915090508060000180546103ed90610b72565b80601f016020809104026020016040519081016040528092919081815260200182805461041990610b72565b80156104665780601f1061043b57610100808354040283529160200191610466565b820191906000526020600020905b81548152906001019060200180831161044957829003601f168201915b50505050509080600101805461047b90610b72565b80601f01602080910402602001604051908101604052809291908181526020018280546104a790610b72565b80156104f45780601f106104c9576101008083540402835291602001916104f4565b820191906000526020600020905b8154815290600101906020018083116104d757829003601f168201915b5050505050908060020160009054906101000a900460ff16905083565b60405180606001604052808381526020018281526020016000151581525060008085815260200190815260200160002060008201518160000190816105569190610d7e565b50602082015181600101908161056c9190610d7e565b5060408201518160020160006101000a81548160ff02191690831515021790555090505060016000808581526020019081526020016000209080600181540180825580915050600190039060005260206000209060030201600090919091909150600082018160000190816105e19190610e66565b50600182018160010190816105f69190610e66565b506002820160009054906101000a900460ff168160020160006101000a81548160ff0219169083151502179055505050505050565b50805461063790610b72565b6000825580601f106106495750610668565b601f016020900490600052602060002090810190610667919061066b565b5b50565b5b8082111561068457600081600090555060010161066c565b5090565b600081519050919050565b600082825260208201905092915050565b6000819050602082019050919050565b600081519050919050565b600082825260208201905092915050565b60005b838110156106ee5780820151818401526020810190506106d3565b60008484015250505050565b6000601f19601f8301169050919050565b6000610716826106b4565b61072081856106bf565b93506107308185602086016106d0565b610739816106fa565b840191505092915050565b60008115159050919050565b61075981610744565b82525050565b6000606083016000830151848203600086015261077c828261070b565b91505060208301518482036020860152610796828261070b565b91505060408301516107ab6040860182610750565b508091505092915050565b60006107c2838361075f565b905092915050565b6000602082019050919050565b60006107e282610688565b6107ec8185610693565b9350836020820285016107fe856106a4565b8060005b8581101561083a578484038952815161081b85826107b6565b9450610826836107ca565b925060208a01995050600181019050610802565b50829750879550505050505092915050565b6000602082019050818103600083015261086681846107d7565b905092915050565b6000604051905090565b600080fd5b600080fd5b6000819050919050565b61089581610882565b81146108a057600080fd5b50565b6000813590506108b28161088c565b92915050565b6000602082840312156108ce576108cd610878565b5b60006108dc848285016108a3565b91505092915050565b600080fd5b600080fd5b7f4e487b7100000000000000000000000000000000000000000000000000000000600052604160045260246000fd5b610927826106fa565b810181811067ffffffffffffffff82111715610946576109456108ef565b5b80604052505050565b600061095961086e565b9050610965828261091e565b919050565b600067ffffffffffffffff821115610985576109846108ef565b5b61098e826106fa565b9050602081019050919050565b82818337600083830152505050565b60006109bd6109b88461096a565b61094f565b9050828152602081018484840111156109d9576109d86108ea565b5b6109e484828561099b565b509392505050565b600082601f830112610a0157610a006108e5565b5b8135610a118482602086016109aa565b91505092915050565b600080600060608486031215610a3357610a32610878565b5b6000610a41868287016108a3565b935050602084013567ffffffffffffffff811115610a6257610a6161087d565b5b610a6e868287016109ec565b925050604084013567ffffffffffffffff811115610a8f57610a8e61087d565b5b610a9b868287016109ec565b9150509250925092565b600082825260208201905092915050565b6000610ac1826106b4565b610acb8185610aa5565b9350610adb8185602086016106d0565b610ae4816106fa565b840191505092915050565b610af881610744565b82525050565b60006060820190508181036000830152610b188186610ab6565b90508181036020830152610b2c8185610ab6565b9050610b3b6040830184610aef565b949350505050565b7f4e487b7100000000000000000000000000000000000000000000000000000000600052602260045260246000fd5b60006002820490506001821680610b8a57607f821691505b602082108103610b9d57610b9c610b43565b5b50919050565b7f4e487b7100000000000000000000000000000000000000000000000000000000600052603260045260246000fd5b60008190508160005260206000209050919050565b60006020601f8301049050919050565b600082821b905092915050565b600060088302610c347fffffffffffffffffffffffffffffffffffffffffffffffffffffffffffffffff82610bf7565b610c3e8683610bf7565b95508019841693508086168417925050509392505050565b6000819050919050565b6000610c7b610c76610c7184610882565b610c56565b610882565b9050919050565b6000819050919050565b610c9583610c60565b610ca9610ca182610c82565b848454610c04565b825550505050565b600090565b610cbe610cb1565b610cc9818484610c8c565b505050565b5b81811015610ced57610ce2600082610cb6565b600181019050610ccf565b5050565b601f821115610d3257610d0381610bd2565b610d0c84610be7565b81016020851015610d1b578190505b610d2f610d2785610be7565b830182610cce565b50505b505050565b600082821c905092915050565b6000610d5560001984600802610d37565b1980831691505092915050565b6000610d6e8383610d44565b9150826002028217905092915050565b610d87826106b4565b67ffffffffffffffff811115610da057610d9f6108ef565b5b610daa8254610b72565b610db5828285610cf1565b600060209050601f831160018114610de85760008415610dd6578287015190505b610de08582610d62565b865550610e48565b601f198416610df686610bd2565b60005b82811015610e1e57848901518255600182019150602085019450602081019050610df9565b86831015610e3b5784890151610e37601f891682610d44565b8355505b6001600288020188555050505b505050505050565b600081549050610e5f81610b72565b9050919050565b818103610e74575050610f4c565b610e7d82610e50565b67ffffffffffffffff811115610e9657610e956108ef565b5b610ea08254610b72565b610eab828285610cf1565b6000601f831160018114610eda5760008415610ec8578287015490505b610ed28582610d62565b865550610f45565b601f198416610ee887610bd2565b9650610ef386610bd2565b60005b82811015610f1b57848901548255600182019150600185019450602081019050610ef6565b86831015610f385784890154610f34601f891682610d44565b8355505b6001600288020188555050505b5050505050505b56fea2646970667358221220ae30c86477474be89486df879c9dc6544ab9bad322f561205fb4a2f43989dc1864736f6c634300081c0033",
          "opcodes": "PUSH1 0x80 PUSH1 0x40 MSTORE CALLVALUE DUP1 ISZERO PUSH1 0xF JUMPI PUSH1 0x0 DUP1 REVERT JUMPDEST POP PUSH2 0xF84 DUP1 PUSH2 0x1F PUSH1 0x0 CODECOPY PUSH1 0x0 RETURN INVALID PUSH1 0x80 PUSH1 0x40 MSTORE CALLVALUE DUP1 ISZERO PUSH2 0x10 JUMPI PUSH1 0x0 DUP1 REVERT JUMPDEST POP PUSH1 0x4 CALLDATASIZE LT PUSH2 0x62 JUMPI PUSH1 0x0 CALLDATALOAD PUSH1 0xE0 SHR DUP1 PUSH4 0x3865881B EQ PUSH2 0x67 JUMPI DUP1 PUSH4 0x5A051EA2 EQ PUSH2 0x85 JUMPI DUP1 PUSH4 0x6BBDADFF EQ PUSH2 0xA1 JUMPI DUP1 PUSH4 0x8F08BB21 EQ PUSH2 0xBD JUMPI DUP1 PUSH4 0xBC8BC2B4 EQ PUSH2 0xD9 JUMPI DUP1 PUSH4 0xFDEB4369 EQ PUSH2 0x10B JUMPI JUMPDEST PUSH1 0x0 DUP1 REVERT JUMPDEST PUSH2 0x6F PUSH2 0x127 JUMP JUMPDEST PUSH1 0x40 MLOAD PUSH2 0x7C SWAP2 SWAP1 PUSH2 0x84C JUMP JUMPDEST PUSH1 0x40 MLOAD DUP1 SWAP2 SUB SWAP1 RETURN JUMPDEST PUSH2 0x9F PUSH1 0x4 DUP1 CALLDATASIZE SUB DUP2 ADD SWAP1 PUSH2 0x9A SWAP2 SWAP1 PUSH2 0x8B8 JUMP JUMPDEST PUSH2 0x2C5 JUMP JUMPDEST STOP JUMPDEST PUSH2 0xBB PUSH1 0x4 DUP1 CALLDATASIZE SUB DUP2 ADD SWAP1 PUSH2 0xB6 SWAP2 SWAP1 PUSH2 0x8B8 JUMP JUMPDEST PUSH2 0x32E JUMP JUMPDEST STOP JUMPDEST PUSH2 0xD7 PUSH1 0x4 DUP1 CALLDATASIZE SUB DUP2 ADD SWAP1 PUSH2 0xD2 SWAP2 SWAP1 PUSH2 0xA1A JUMP JUMPDEST PUSH2 0x37A JUMP JUMPDEST STOP JUMPDEST PUSH2 0xF3 PUSH1 0x4 DUP1 CALLDATASIZE SUB DUP2 ADD SWAP1 PUSH2 0xEE SWAP2 SWAP1 PUSH2 0x8B8 JUMP JUMPDEST PUSH2 0x3BA JUMP JUMPDEST PUSH1 0x40 MLOAD PUSH2 0x102 SWAP4 SWAP3 SWAP2 SWAP1 PUSH2 0xAFE JUMP JUMPDEST PUSH1 0x40 MLOAD DUP1 SWAP2 SUB SWAP1 RETURN JUMPDEST PUSH2 0x125 PUSH1 0x4 DUP1 CALLDATASIZE SUB DUP2 ADD SWAP1 PUSH2 0x120 SWAP2 SWAP1 PUSH2 0xA1A JUMP JUMPDEST PUSH2 0x511 JUMP JUMPDEST STOP JUMPDEST PUSH1 0x60 PUSH1 0x1 DUP1 SLOAD DUP1 PUSH1 0x20 MUL PUSH1 0x20 ADD PUSH1 0x40 MLOAD SWAP1 DUP2 ADD PUSH1 0x40 MSTORE DUP1 SWAP3 SWAP2 SWAP1 DUP2 DUP2 MSTORE PUSH1 0x20 ADD PUSH1 0x0 SWAP1 JUMPDEST DUP3 DUP3 LT ISZERO PUSH2 0x2BC JUMPI DUP4 DUP3 SWAP1 PUSH1 0x0 MSTORE PUSH1 0x20 PUSH1 0x0 KECCAK256 SWAP1 PUSH1 0x3 MUL ADD PUSH1 0x40 MLOAD DUP1 PUSH1 0x60 ADD PUSH1 0x40 MSTORE SWAP1 DUP2 PUSH1 0x0 DUP3 ADD DUP1 SLOAD PUSH2 0x17E SWAP1 PUSH2 0xB72 JUMP JUMPDEST DUP1 PUSH1 0x1F ADD PUSH1 0x20 DUP1 SWAP2 DIV MUL PUSH1 0x20 ADD PUSH1 0x40 MLOAD SWAP1 DUP2 ADD PUSH1 0x40 MSTORE DUP1 SWAP3 SWAP2 SWAP1 DUP2 DUP2 MSTORE PUSH1 0x20 ADD DUP3 DUP1 SLOAD PUSH2 0x1AA SWAP1 PUSH2 0xB72 JUMP JUMPDEST DUP1 ISZERO PUSH2 0x1F7 JUMPI DUP1 PUSH1 0x1F LT PUSH2 0x1CC JUMPI PUSH2 0x100 DUP1 DUP4 SLOAD DIV MUL DUP4 MSTORE SWAP2 PUSH1 0x20 ADD SWAP2 PUSH2 0x1F7 JUMP JUMPDEST DUP3 ADD SWAP2 SWAP1 PUSH1 0x0 MSTORE PUSH1 0x20 PUSH1 0x0 KECCAK256 SWAP1 JUMPDEST DUP2 SLOAD DUP2 MSTORE SWAP1 PUSH1 0x1 ADD SWAP1 PUSH1 0x20 ADD DUP1 DUP4 GT PUSH2 0x1DA JUMPI DUP3 SWAP1 SUB PUSH1 0x1F AND DUP3 ADD SWAP2 JUMPDEST POP POP POP POP POP DUP2 MSTORE PUSH1 0x20 ADD PUSH1 0x1 DUP3 ADD DUP1 SLOAD PUSH2 0x210 SWAP1 PUSH2 0xB72 JUMP JUMPDEST DUP1 PUSH1 0x1F ADD PUSH1 0x20 DUP1 SWAP2 DIV MUL PUSH1 0x20 ADD PUSH1 0x40 MLOAD SWAP1 DUP2 ADD PUSH1 0x40 MSTORE DUP1 SWAP3 SWAP2 SWAP1 DUP2 DUP2 MSTORE PUSH1 0x20 ADD DUP3 DUP1 SLOAD PUSH2 0x23C SWAP1 PUSH2 0xB72 JUMP JUMPDEST DUP1 ISZERO PUSH2 0x289 JUMPI DUP1 PUSH1 0x1F LT PUSH2 0x25E JUMPI PUSH2 0x100 DUP1 DUP4 SLOAD DIV MUL DUP4 MSTORE SWAP2 PUSH1 0x20 ADD SWAP2 PUSH2 0x289 JUMP JUMPDEST DUP3 ADD SWAP2 SWAP1 PUSH1 0x0 MSTORE PUSH1 0x20 PUSH1 0x0 KECCAK256 SWAP1 JUMPDEST DUP2 SLOAD DUP2 MSTORE SWAP1 PUSH1 0x1 ADD SWAP1 PUSH1 0x20 ADD DUP1 DUP4 GT PUSH2 0x26C JUMPI DUP3 SWAP1 SUB PUSH1 0x1F AND DUP3 ADD SWAP2 JUMPDEST POP POP POP POP POP DUP2 MSTORE PUSH1 0x20 ADD PUSH1 0x2 DUP3 ADD PUSH1 0x0 SWAP1 SLOAD SWAP1 PUSH2 0x100 EXP SWAP1 DIV PUSH1 0xFF AND ISZERO ISZERO ISZERO ISZERO DUP2 MSTORE POP POP DUP2 MSTORE PUSH1 0x20 ADD SWAP1 PUSH1 0x1 ADD SWAP1 PUSH2 0x14B JUMP JUMPDEST POP POP POP POP SWAP1 POP SWAP1 JUMP JUMPDEST PUSH1 0x0 DUP1 PUSH1 0x0 DUP4 DUP2 MSTORE PUSH1 0x20 ADD SWAP1 DUP2 MSTORE PUSH1 0x20 ADD PUSH1 0x0 KECCAK256 SWAP1 POP PUSH1 0x1 DUP3 DUP2 SLOAD DUP2 LT PUSH2 0x2EF JUMPI PUSH2 0x2EE PUSH2 0xBA3 JUMP JUMPDEST JUMPDEST SWAP1 PUSH1 0x0 MSTORE PUSH1 0x20 PUSH1 0x0 KECCAK256 SWAP1 PUSH1 0x3 MUL ADD PUSH1 0x2 ADD PUSH1 0x0 SWAP1 SLOAD SWAP1 PUSH2 0x100 EXP SWAP1 DIV PUSH1 0xFF AND ISZERO DUP2 PUSH1 0x2 ADD PUSH1 0x0 PUSH2 0x100 EXP DUP2 SLOAD DUP2 PUSH1 0xFF MUL NOT AND SWAP1 DUP4 ISZERO ISZERO MUL OR SWAP1 SSTORE POP POP POP JUMP JUMPDEST PUSH1 0x0 DUP1 DUP3 DUP2 MSTORE PUSH1 0x20 ADD SWAP1 DUP2 MSTORE PUSH1 0x20 ADD PUSH1 0x0 KECCAK256 PUSH1 0x0 DUP1 DUP3 ADD PUSH1 0x0 PUSH2 0x351 SWAP2 SWAP1 PUSH2 0x62B JUMP JUMPDEST PUSH1 0x1 DUP3 ADD PUSH1 0x0 PUSH2 0x361 SWAP2 SWAP1 PUSH2 0x62B JUMP JUMPDEST PUSH1 0x2 DUP3 ADD PUSH1 0x0 PUSH2 0x100 EXP DUP2 SLOAD SWAP1 PUSH1 0xFF MUL NOT AND SWAP1 SSTORE POP POP POP JUMP JUMPDEST PUSH1 0x0 DUP1 PUSH1 0x0 DUP6 DUP2 MSTORE PUSH1 0x20 ADD SWAP1 DUP2 MSTORE PUSH1 0x20 ADD PUSH1 0x0 KECCAK256 SWAP1 POP DUP3 DUP2 PUSH1 0x0 ADD SWAP1 DUP2 PUSH2 0x3A1 SWAP2 SWAP1 PUSH2 0xD7E JUMP JUMPDEST POP DUP2 DUP2 PUSH1 0x1 ADD SWAP1 DUP2 PUSH2 0x3B3 SWAP2 SWAP1 PUSH2 0xD7E JUMP JUMPDEST POP POP POP POP POP JUMP JUMPDEST PUSH1 0x1 DUP2 DUP2 SLOAD DUP2 LT PUSH2 0x3CA JUMPI PUSH1 0x0 DUP1 REVERT JUMPDEST SWAP1 PUSH1 0x0 MSTORE PUSH1 0x20 PUSH1 0x0 KECCAK256 SWAP1 PUSH1 0x3 MUL ADD PUSH1 0x0 SWAP2 POP SWAP1 POP DUP1 PUSH1 0x0 ADD DUP1 SLOAD PUSH2 0x3ED SWAP1 PUSH2 0xB72 JUMP JUMPDEST DUP1 PUSH1 0x1F ADD PUSH1 0x20 DUP1 SWAP2 DIV MUL PUSH1 0x20 ADD PUSH1 0x40 MLOAD SWAP1 DUP2 ADD PUSH1 0x40 MSTORE DUP1 SWAP3 SWAP2 SWAP1 DUP2 DUP2 MSTORE PUSH1 0x20 ADD DUP3 DUP1 SLOAD PUSH2 0x419 SWAP1 PUSH2 0xB72 JUMP JUMPDEST DUP1 ISZERO PUSH2 0x466 JUMPI DUP1 PUSH1 0x1F LT PUSH2 0x43B JUMPI PUSH2 0x100 DUP1 DUP4 SLOAD DIV MUL DUP4 MSTORE SWAP2 PUSH1 0x20 ADD SWAP2 PUSH2 0x466 JUMP JUMPDEST DUP3 ADD SWAP2 SWAP1 PUSH1 0x0 MSTORE PUSH1 0x20 PUSH1 0x0 KECCAK256 SWAP1 JUMPDEST DUP2 SLOAD DUP2 MSTORE SWAP1 PUSH1 0x1 ADD SWAP1 PUSH1 0x20 ADD DUP1 DUP4 GT PUSH2 0x449 JUMPI DUP3 SWAP1 SUB PUSH1 0x1F AND DUP3 ADD SWAP2 JUMPDEST POP POP POP POP POP SWAP1 DUP1 PUSH1 0x1 ADD DUP1 SLOAD PUSH2 0x47B SWAP1 PUSH2 0xB72 JUMP JUMPDEST DUP1 PUSH1 0x1F ADD PUSH1 0x20 DUP1 SWAP2 DIV MUL PUSH1 0x20 ADD PUSH1 0x40 MLOAD SWAP1 DUP2 ADD PUSH1 0x40 MSTORE DUP1 SWAP3 SWAP2 SWAP1 DUP2 DUP2 MSTORE PUSH1 0x20 ADD DUP3 DUP1 SLOAD PUSH2 0x4A7 SWAP1 PUSH2 0xB72 JUMP JUMPDEST DUP1 ISZERO PUSH2 0x4F4 JUMPI DUP1 PUSH1 0x1F LT PUSH2 0x4C9 JUMPI PUSH2 0x100 DUP1 DUP4 SLOAD DIV MUL DUP4 MSTORE SWAP2 PUSH1 0x20 ADD SWAP2 PUSH2 0x4F4 JUMP JUMPDEST DUP3 ADD SWAP2 SWAP1 PUSH1 0x0 MSTORE PUSH1 0x20 PUSH1 0x0 KECCAK256 SWAP1 JUMPDEST DUP2 SLOAD DUP2 MSTORE SWAP1 PUSH1 0x1 ADD SWAP1 PUSH1 0x20 ADD DUP1 DUP4 GT PUSH2 0x4D7 JUMPI DUP3 SWAP1 SUB PUSH1 0x1F AND DUP3 ADD SWAP2 JUMPDEST POP POP POP POP POP SWAP1 DUP1 PUSH1 0x2 ADD PUSH1 0x0 SWAP1 SLOAD SWAP1 PUSH2 0x100 EXP SWAP1 DIV PUSH1 0xFF AND SWAP1 POP DUP4 JUMP JUMPDEST PUSH1 0x40 MLOAD DUP1 PUSH1 0x60 ADD PUSH1 0x40 MSTORE DUP1 DUP4 DUP2 MSTORE PUSH1 0x20 ADD DUP3 DUP2 MSTORE PUSH1 0x20 ADD PUSH1 0x0 ISZERO ISZERO DUP2 MSTORE POP PUSH1 0x0 DUP1 DUP6 DUP2 MSTORE PUSH1 0x20 ADD SWAP1 DUP2 MSTORE PUSH1 0x20 ADD PUSH1 0x0 KECCAK256 PUSH1 0x0 DUP3 ADD MLOAD DUP2 PUSH1 0x0 ADD SWAP1 DUP2 PUSH2 0x556 SWAP2 SWAP1 PUSH2 0xD7E JUMP JUMPDEST POP PUSH1 0x20 DUP3 ADD MLOAD DUP2 PUSH1 0x1 ADD SWAP1 DUP2 PUSH2 0x56C SWAP2 SWAP1 PUSH2 0xD7E JUMP JUMPDEST POP PUSH1 0x40 DUP3 ADD MLOAD DUP2 PUSH1 0x2 ADD PUSH1 0x0 PUSH2 0x100 EXP DUP2 SLOAD DUP2 PUSH1 0xFF MUL NOT AND SWAP1 DUP4 ISZERO ISZERO MUL OR SWAP1 SSTORE POP SWAP1 POP POP PUSH1 0x1 PUSH1 0x0 DUP1 DUP6 DUP2 MSTORE PUSH1 0x20 ADD SWAP1 DUP2 MSTORE PUSH1 0x20 ADD PUSH1 0x0 KECCAK256 SWAP1 DUP1 PUSH1 0x1 DUP2 SLOAD ADD DUP1 DUP3 SSTORE DUP1 SWAP2 POP POP PUSH1 0x1 SWAP1 SUB SWAP1 PUSH1 0x0 MSTORE PUSH1 0x20 PUSH1 0x0 KECCAK256 SWAP1 PUSH1 0x3 MUL ADD PUSH1 0x0 SWAP1 SWAP2 SWAP1 SWAP2 SWAP1 SWAP2 POP PUSH1 0x0 DUP3 ADD DUP2 PUSH1 0x0 ADD SWAP1 DUP2 PUSH2 0x5E1 SWAP2 SWAP1 PUSH2 0xE66 JUMP JUMPDEST POP PUSH1 0x1 DUP3 ADD DUP2 PUSH1 0x1 ADD SWAP1 DUP2 PUSH2 0x5F6 SWAP2 SWAP1 PUSH2 0xE66 JUMP JUMPDEST POP PUSH1 0x2 DUP3 ADD PUSH1 0x0 SWAP1 SLOAD SWAP1 PUSH2 0x100 EXP SWAP1 DIV PUSH1 0xFF AND DUP2 PUSH1 0x2 ADD PUSH1 0x0 PUSH2 0x100 EXP DUP2 SLOAD DUP2 PUSH1 0xFF MUL NOT AND SWAP1 DUP4 ISZERO ISZERO MUL OR SWAP1 SSTORE POP POP POP POP POP POP JUMP JUMPDEST POP DUP1 SLOAD PUSH2 0x637 SWAP1 PUSH2 0xB72 JUMP JUMPDEST PUSH1 0x0 DUP3 SSTORE DUP1 PUSH1 0x1F LT PUSH2 0x649 JUMPI POP PUSH2 0x668 JUMP JUMPDEST PUSH1 0x1F ADD PUSH1 0x20 SWAP1 DIV SWAP1 PUSH1 0x0 MSTORE PUSH1 0x20 PUSH1 0x0 KECCAK256 SWAP1 DUP2 ADD SWAP1 PUSH2 0x667 SWAP2 SWAP1 PUSH2 0x66B JUMP JUMPDEST JUMPDEST POP JUMP JUMPDEST JUMPDEST DUP1 DUP3 GT ISZERO PUSH2 0x684 JUMPI PUSH1 0x0 DUP2 PUSH1 0x0 SWAP1 SSTORE POP PUSH1 0x1 ADD PUSH2 0x66C JUMP JUMPDEST POP SWAP1 JUMP JUMPDEST PUSH1 0x0 DUP2 MLOAD SWAP1 POP SWAP2 SWAP1 POP JUMP JUMPDEST PUSH1 0x0 DUP3 DUP3 MSTORE PUSH1 0x20 DUP3 ADD SWAP1 POP SWAP3 SWAP2 POP POP JUMP JUMPDEST PUSH1 0x0 DUP2 SWAP1 POP PUSH1 0x20 DUP3 ADD SWAP1 POP SWAP2 SWAP1 POP JUMP JUMPDEST PUSH1 0x0 DUP2 MLOAD SWAP1 POP SWAP2 SWAP1 POP JUMP JUMPDEST PUSH1 0x0 DUP3 DUP3 MSTORE PUSH1 0x20 DUP3 ADD SWAP1 POP SWAP3 SWAP2 POP POP JUMP JUMPDEST PUSH1 0x0 JUMPDEST DUP4 DUP2 LT ISZERO PUSH2 0x6EE JUMPI DUP1 DUP3 ADD MLOAD DUP2 DUP5 ADD MSTORE PUSH1 0x20 DUP2 ADD SWAP1 POP PUSH2 0x6D3 JUMP JUMPDEST PUSH1 0x0 DUP5 DUP5 ADD MSTORE POP POP POP POP JUMP JUMPDEST PUSH1 0x0 PUSH1 0x1F NOT PUSH1 0x1F DUP4 ADD AND SWAP1 POP SWAP2 SWAP1 POP JUMP JUMPDEST PUSH1 0x0 PUSH2 0x716 DUP3 PUSH2 0x6B4 JUMP JUMPDEST PUSH2 0x720 DUP2 DUP6 PUSH2 0x6BF JUMP JUMPDEST SWAP4 POP PUSH2 0x730 DUP2 DUP6 PUSH1 0x20 DUP7 ADD PUSH2 0x6D0 JUMP JUMPDEST PUSH2 0x739 DUP2 PUSH2 0x6FA JUMP JUMPDEST DUP5 ADD SWAP2 POP POP SWAP3 SWAP2 POP POP JUMP JUMPDEST PUSH1 0x0 DUP2 ISZERO ISZERO SWAP1 POP SWAP2 SWAP1 POP JUMP JUMPDEST PUSH2 0x759 DUP2 PUSH2 0x744 JUMP JUMPDEST DUP3 MSTORE POP POP JUMP JUMPDEST PUSH1 0x0 PUSH1 0x60 DUP4 ADD PUSH1 0x0 DUP4 ADD MLOAD DUP5 DUP3 SUB PUSH1 0x0 DUP7 ADD MSTORE PUSH2 0x77C DUP3 DUP3 PUSH2 0x70B JUMP JUMPDEST SWAP2 POP POP PUSH1 0x20 DUP4 ADD MLOAD DUP5 DUP3 SUB PUSH1 0x20 DUP7 ADD MSTORE PUSH2 0x796 DUP3 DUP3 PUSH2 0x70B JUMP JUMPDEST SWAP2 POP POP PUSH1 0x40 DUP4 ADD MLOAD PUSH2 0x7AB PUSH1 0x40 DUP7 ADD DUP3 PUSH2 0x750 JUMP JUMPDEST POP DUP1 SWAP2 POP POP SWAP3 SWAP2 POP POP JUMP JUMPDEST PUSH1 0x0 PUSH2 0x7C2 DUP4 DUP4 PUSH2 0x75F JUMP JUMPDEST SWAP1 POP SWAP3 SWAP2 POP POP JUMP JUMPDEST PUSH1 0x0 PUSH1 0x20 DUP3 ADD SWAP1 POP SWAP2 SWAP1 POP JUMP JUMPDEST PUSH1 0x0 PUSH2 0x7E2 DUP3 PUSH2 0x688 JUMP JUMPDEST PUSH2 0x7EC DUP2 DUP6 PUSH2 0x693 JUMP JUMPDEST SWAP4 POP DUP4 PUSH1 0x20 DUP3 MUL DUP6 ADD PUSH2 0x7FE DUP6 PUSH2 0x6A4 JUMP JUMPDEST DUP1 PUSH1 0x0 JUMPDEST DUP6 DUP2 LT ISZERO PUSH2 0x83A JUMPI DUP5 DUP5 SUB DUP10 MSTORE DUP2 MLOAD PUSH2 0x81B DUP6 DUP3 PUSH2 0x7B6 JUMP JUMPDEST SWAP5 POP PUSH2 0x826 DUP4 PUSH2 0x7CA JUMP JUMPDEST SWAP3 POP PUSH1 0x20 DUP11 ADD SWAP10 POP POP PUSH1 0x1 DUP2 ADD SWAP1 POP PUSH2 0x802 JUMP JUMPDEST POP DUP3 SWAP8 POP DUP8 SWAP6 POP POP POP POP POP POP SWAP3 SWAP2 POP POP JUMP JUMPDEST PUSH1 0x0 PUSH1 0x20 DUP3 ADD SWAP1 POP DUP2 DUP2 SUB PUSH1 0x0 DUP4 ADD MSTORE PUSH2 0x866 DUP2 DUP5 PUSH2 0x7D7 JUMP JUMPDEST SWAP1 POP SWAP3 SWAP2 POP POP JUMP JUMPDEST PUSH1 0x0 PUSH1 0x40 MLOAD SWAP1 POP SWAP1 JUMP JUMPDEST PUSH1 0x0 DUP1 REVERT JUMPDEST PUSH1 0x0 DUP1 REVERT JUMPDEST PUSH1 0x0 DUP2 SWAP1 POP SWAP2 SWAP1 POP JUMP JUMPDEST PUSH2 0x895 DUP2 PUSH2 0x882 JUMP JUMPDEST DUP2 EQ PUSH2 0x8A0 JUMPI PUSH1 0x0 DUP1 REVERT JUMPDEST POP JUMP JUMPDEST PUSH1 0x0 DUP2 CALLDATALOAD SWAP1 POP PUSH2 0x8B2 DUP2 PUSH2 0x88C JUMP JUMPDEST SWAP3 SWAP2 POP POP JUMP JUMPDEST PUSH1 0x0 PUSH1 0x20 DUP3 DUP5 SUB SLT ISZERO PUSH2 0x8CE JUMPI PUSH2 0x8CD PUSH2 0x878 JUMP JUMPDEST JUMPDEST PUSH1 0x0 PUSH2 0x8DC DUP5 DUP3 DUP6 ADD PUSH2 0x8A3 JUMP JUMPDEST SWAP2 POP POP SWAP3 SWAP2 POP POP JUMP JUMPDEST PUSH1 0x0 DUP1 REVERT JUMPDEST PUSH1 0x0 DUP1 REVERT JUMPDEST PUSH32 0x4E487B7100000000000000000000000000000000000000000000000000000000 PUSH1 0x0 MSTORE PUSH1 0x41 PUSH1 0x4 MSTORE PUSH1 0x24 PUSH1 0x0 REVERT JUMPDEST PUSH2 0x927 DUP3 PUSH2 0x6FA JUMP JUMPDEST DUP2 ADD DUP2 DUP2 LT PUSH8 0xFFFFFFFFFFFFFFFF DUP3 GT OR ISZERO PUSH2 0x946 JUMPI PUSH2 0x945 PUSH2 0x8EF JUMP JUMPDEST JUMPDEST DUP1 PUSH1 0x40 MSTORE POP POP POP JUMP JUMPDEST PUSH1 0x0 PUSH2 0x959 PUSH2 0x86E JUMP JUMPDEST SWAP1 POP PUSH2 0x965 DUP3 DUP3 PUSH2 0x91E JUMP JUMPDEST SWAP2 SWAP1 POP JUMP JUMPDEST PUSH1 0x0 PUSH8 0xFFFFFFFFFFFFFFFF DUP3 GT ISZERO PUSH2 0x985 JUMPI PUSH2 0x984 PUSH2 0x8EF JUMP JUMPDEST JUMPDEST PUSH2 0x98E DUP3 PUSH2 0x6FA JUMP JUMPDEST SWAP1 POP PUSH1 0x20 DUP2 ADD SWAP1 POP SWAP2 SWAP1 POP JUMP JUMPDEST DUP3 DUP2 DUP4 CALLDATACOPY PUSH1 0x0 DUP4 DUP4 ADD MSTORE POP POP POP JUMP JUMPDEST PUSH1 0x0 PUSH2 0x9BD PUSH2 0x9B8 DUP5 PUSH2 0x96A JUMP JUMPDEST PUSH2 0x94F JUMP JUMPDEST SWAP1 POP DUP3 DUP2 MSTORE PUSH1 0x20 DUP2 ADD DUP5 DUP5 DUP5 ADD GT ISZERO PUSH2 0x9D9 JUMPI PUSH2 0x9D8 PUSH2 0x8EA JUMP JUMPDEST JUMPDEST PUSH2 0x9E4 DUP5 DUP3 DUP6 PUSH2 0x99B JUMP JUMPDEST POP SWAP4 SWAP3 POP POP POP JUMP JUMPDEST PUSH1 0x0 DUP3 PUSH1 0x1F DUP4 ADD SLT PUSH2 0xA01 JUMPI PUSH2 0xA00 PUSH2 0x8E5 JUMP JUMPDEST JUMPDEST DUP2 CALLDATALOAD PUSH2 0xA11 DUP5 DUP3 PUSH1 0x20 DUP7 ADD PUSH2 0x9AA JUMP JUMPDEST SWAP2 POP POP SWAP3 SWAP2 POP POP JUMP JUMPDEST PUSH1 0x0 DUP1 PUSH1 0x0 PUSH1 0x60 DUP5 DUP7 SUB SLT ISZERO PUSH2 0xA33 JUMPI PUSH2 0xA32 PUSH2 0x878 JUMP JUMPDEST JUMPDEST PUSH1 0x0 PUSH2 0xA41 DUP7 DUP3 DUP8 ADD PUSH2 0x8A3 JUMP JUMPDEST SWAP4 POP POP PUSH1 0x20 DUP5 ADD CALLDATALOAD PUSH8 0xFFFFFFFFFFFFFFFF DUP2 GT ISZERO PUSH2 0xA62 JUMPI PUSH2 0xA61 PUSH2 0x87D JUMP JUMPDEST JUMPDEST PUSH2 0xA6E DUP7 DUP3 DUP8 ADD PUSH2 0x9EC JUMP JUMPDEST SWAP3 POP POP PUSH1 0x40 DUP5 ADD CALLDATALOAD PUSH8 0xFFFFFFFFFFFFFFFF DUP2 GT ISZERO PUSH2 0xA8F JUMPI PUSH2 0xA8E PUSH2 0x87D JUMP JUMPDEST JUMPDEST PUSH2 0xA9B DUP7 DUP3 DUP8 ADD PUSH2 0x9EC JUMP JUMPDEST SWAP2 POP POP SWAP3 POP SWAP3 POP SWAP3 JUMP JUMPDEST PUSH1 0x0 DUP3 DUP3 MSTORE PUSH1 0x20 DUP3 ADD SWAP1 POP SWAP3 SWAP2 POP POP JUMP JUMPDEST PUSH1 0x0 PUSH2 0xAC1 DUP3 PUSH2 0x6B4 JUMP JUMPDEST PUSH2 0xACB DUP2 DUP6 PUSH2 0xAA5 JUMP JUMPDEST SWAP4 POP PUSH2 0xADB DUP2 DUP6 PUSH1 0x20 DUP7 ADD PUSH2 0x6D0 JUMP JUMPDEST PUSH2 0xAE4 DUP2 PUSH2 0x6FA JUMP JUMPDEST DUP5 ADD SWAP2 POP POP SWAP3 SWAP2 POP POP JUMP JUMPDEST PUSH2 0xAF8 DUP2 PUSH2 0x744 JUMP JUMPDEST DUP3 MSTORE POP POP JUMP JUMPDEST PUSH1 0x0 PUSH1 0x60 DUP3 ADD SWAP1 POP DUP2 DUP2 SUB PUSH1 0x0 DUP4 ADD MSTORE PUSH2 0xB18 DUP2 DUP7 PUSH2 0xAB6 JUMP JUMPDEST SWAP1 POP DUP2 DUP2 SUB PUSH1 0x20 DUP4 ADD MSTORE PUSH2 0xB2C DUP2 DUP6 PUSH2 0xAB6 JUMP JUMPDEST SWAP1 POP PUSH2 0xB3B PUSH1 0x40 DUP4 ADD DUP5 PUSH2 0xAEF JUMP JUMPDEST SWAP5 SWAP4 POP POP POP POP JUMP JUMPDEST PUSH32 0x4E487B7100000000000000000000000000000000000000000000000000000000 PUSH1 0x0 MSTORE PUSH1 0x22 PUSH1 0x4 MSTORE PUSH1 0x24 PUSH1 0x0 REVERT JUMPDEST PUSH1 0x0 PUSH1 0x2 DUP3 DIV SWAP1 POP PUSH1 0x1 DUP3 AND DUP1 PUSH2 0xB8A JUMPI PUSH1 0x7F DUP3 AND SWAP2 POP JUMPDEST PUSH1 0x20 DUP3 LT DUP2 SUB PUSH2 0xB9D JUMPI PUSH2 0xB9C PUSH2 0xB43 JUMP JUMPDEST JUMPDEST POP SWAP2 SWAP1 POP JUMP JUMPDEST PUSH32 0x4E487B7100000000000000000000000000000000000000000000000000000000 PUSH1 0x0 MSTORE PUSH1 0x32 PUSH1 0x4 MSTORE PUSH1 0x24 PUSH1 0x0 REVERT JUMPDEST PUSH1 0x0 DUP2 SWAP1 POP DUP2 PUSH1 0x0 MSTORE PUSH1 0x20 PUSH1 0x0 KECCAK256 SWAP1 POP SWAP2 SWAP1 POP JUMP JUMPDEST PUSH1 0x0 PUSH1 0x20 PUSH1 0x1F DUP4 ADD DIV SWAP1 POP SWAP2 SWAP1 POP JUMP JUMPDEST PUSH1 0x0 DUP3 DUP3 SHL SWAP1 POP SWAP3 SWAP2 POP POP JUMP JUMPDEST PUSH1 0x0 PUSH1 0x8 DUP4 MUL PUSH2 0xC34 PUSH32 0xFFFFFFFFFFFFFFFFFFFFFFFFFFFFFFFFFFFFFFFFFFFFFFFFFFFFFFFFFFFFFFFF DUP3 PUSH2 0xBF7 JUMP JUMPDEST PUSH2 0xC3E DUP7 DUP4 PUSH2 0xBF7 JUMP JUMPDEST SWAP6 POP DUP1 NOT DUP5 AND SWAP4 POP DUP1 DUP7 AND DUP5 OR SWAP3 POP POP POP SWAP4 SWAP3 POP POP POP JUMP JUMPDEST PUSH1 0x0 DUP2 SWAP1 POP SWAP2 SWAP1 POP JUMP JUMPDEST PUSH1 0x0 PUSH2 0xC7B PUSH2 0xC76 PUSH2 0xC71 DUP5 PUSH2 0x882 JUMP JUMPDEST PUSH2 0xC56 JUMP JUMPDEST PUSH2 0x882 JUMP JUMPDEST SWAP1 POP SWAP2 SWAP1 POP JUMP JUMPDEST PUSH1 0x0 DUP2 SWAP1 POP SWAP2 SWAP1 POP JUMP JUMPDEST PUSH2 0xC95 DUP4 PUSH2 0xC60 JUMP JUMPDEST PUSH2 0xCA9 PUSH2 0xCA1 DUP3 PUSH2 0xC82 JUMP JUMPDEST DUP5 DUP5 SLOAD PUSH2 0xC04 JUMP JUMPDEST DUP3 SSTORE POP POP POP POP JUMP JUMPDEST PUSH1 0x0 SWAP1 JUMP JUMPDEST PUSH2 0xCBE PUSH2 0xCB1 JUMP JUMPDEST PUSH2 0xCC9 DUP2 DUP5 DUP5 PUSH2 0xC8C JUMP JUMPDEST POP POP POP JUMP JUMPDEST JUMPDEST DUP2 DUP2 LT ISZERO PUSH2 0xCED JUMPI PUSH2 0xCE2 PUSH1 0x0 DUP3 PUSH2 0xCB6 JUMP JUMPDEST PUSH1 0x1 DUP2 ADD SWAP1 POP PUSH2 0xCCF JUMP JUMPDEST POP POP JUMP JUMPDEST PUSH1 0x1F DUP3 GT ISZERO PUSH2 0xD32 JUMPI PUSH2 0xD03 DUP2 PUSH2 0xBD2 JUMP JUMPDEST PUSH2 0xD0C DUP5 PUSH2 0xBE7 JUMP JUMPDEST DUP2 ADD PUSH1 0x20 DUP6 LT ISZERO PUSH2 0xD1B JUMPI DUP2 SWAP1 POP JUMPDEST PUSH2 0xD2F PUSH2 0xD27 DUP6 PUSH2 0xBE7 JUMP JUMPDEST DUP4 ADD DUP3 PUSH2 0xCCE JUMP JUMPDEST POP POP JUMPDEST POP POP POP JUMP JUMPDEST PUSH1 0x0 DUP3 DUP3 SHR SWAP1 POP SWAP3 SWAP2 POP POP JUMP JUMPDEST PUSH1 0x0 PUSH2 0xD55 PUSH1 0x0 NOT DUP5 PUSH1 0x8 MUL PUSH2 0xD37 JUMP JUMPDEST NOT DUP1 DUP4 AND SWAP2 POP POP SWAP3 SWAP2 POP POP JUMP JUMPDEST PUSH1 0x0 PUSH2 0xD6E DUP4 DUP4 PUSH2 0xD44 JUMP JUMPDEST SWAP2 POP DUP3 PUSH1 0x2 MUL DUP3 OR SWAP1 POP SWAP3 SWAP2 POP POP JUMP JUMPDEST PUSH2 0xD87 DUP3 PUSH2 0x6B4 JUMP JUMPDEST PUSH8 0xFFFFFFFFFFFFFFFF DUP2 GT ISZERO PUSH2 0xDA0 JUMPI PUSH2 0xD9F PUSH2 0x8EF JUMP JUMPDEST JUMPDEST PUSH2 0xDAA DUP3 SLOAD PUSH2 0xB72 JUMP JUMPDEST PUSH2 0xDB5 DUP3 DUP3 DUP6 PUSH2 0xCF1 JUMP JUMPDEST PUSH1 0x0 PUSH1 0x20 SWAP1 POP PUSH1 0x1F DUP4 GT PUSH1 0x1 DUP2 EQ PUSH2 0xDE8 JUMPI PUSH1 0x0 DUP5 ISZERO PUSH2 0xDD6 JUMPI DUP3 DUP8 ADD MLOAD SWAP1 POP JUMPDEST PUSH2 0xDE0 DUP6 DUP3 PUSH2 0xD62 JUMP JUMPDEST DUP7 SSTORE POP PUSH2 0xE48 JUMP JUMPDEST PUSH1 0x1F NOT DUP5 AND PUSH2 0xDF6 DUP7 PUSH2 0xBD2 JUMP JUMPDEST PUSH1 0x0 JUMPDEST DUP3 DUP2 LT ISZERO PUSH2 0xE1E JUMPI DUP5 DUP10 ADD MLOAD DUP3 SSTORE PUSH1 0x1 DUP3 ADD SWAP2 POP PUSH1 0x20 DUP6 ADD SWAP5 POP PUSH1 0x20 DUP2 ADD SWAP1 POP PUSH2 0xDF9 JUMP JUMPDEST DUP7 DUP4 LT ISZERO PUSH2 0xE3B JUMPI DUP5 DUP10 ADD MLOAD PUSH2 0xE37 PUSH1 0x1F DUP10 AND DUP3 PUSH2 0xD44 JUMP JUMPDEST DUP4 SSTORE POP JUMPDEST PUSH1 0x1 PUSH1 0x2 DUP9 MUL ADD DUP9 SSTORE POP POP POP JUMPDEST POP POP POP POP POP POP JUMP JUMPDEST PUSH1 0x0 DUP2 SLOAD SWAP1 POP PUSH2 0xE5F DUP2 PUSH2 0xB72 JUMP JUMPDEST SWAP1 POP SWAP2 SWAP1 POP JUMP JUMPDEST DUP2 DUP2 SUB PUSH2 0xE74 JUMPI POP POP PUSH2 0xF4C JUMP JUMPDEST PUSH2 0xE7D DUP3 PUSH2 0xE50 JUMP JUMPDEST PUSH8 0xFFFFFFFFFFFFFFFF DUP2 GT ISZERO PUSH2 0xE96 JUMPI PUSH2 0xE95 PUSH2 0x8EF JUMP JUMPDEST JUMPDEST PUSH2 0xEA0 DUP3 SLOAD PUSH2 0xB72 JUMP JUMPDEST PUSH2 0xEAB DUP3 DUP3 DUP6 PUSH2 0xCF1 JUMP JUMPDEST PUSH1 0x0 PUSH1 0x1F DUP4 GT PUSH1 0x1 DUP2 EQ PUSH2 0xEDA JUMPI PUSH1 0x0 DUP5 ISZERO PUSH2 0xEC8 JUMPI DUP3 DUP8 ADD SLOAD SWAP1 POP JUMPDEST PUSH2 0xED2 DUP6 DUP3 PUSH2 0xD62 JUMP JUMPDEST DUP7 SSTORE POP PUSH2 0xF45 JUMP JUMPDEST PUSH1 0x1F NOT DUP5 AND PUSH2 0xEE8 DUP8 PUSH2 0xBD2 JUMP JUMPDEST SWAP7 POP PUSH2 0xEF3 DUP7 PUSH2 0xBD2 JUMP JUMPDEST PUSH1 0x0 JUMPDEST DUP3 DUP2 LT ISZERO PUSH2 0xF1B JUMPI DUP5 DUP10 ADD SLOAD DUP3 SSTORE PUSH1 0x1 DUP3 ADD SWAP2 POP PUSH1 0x1 DUP6 ADD SWAP5 POP PUSH1 0x20 DUP2 ADD SWAP1 POP PUSH2 0xEF6 JUMP JUMPDEST DUP7 DUP4 LT ISZERO PUSH2 0xF38 JUMPI DUP5 DUP10 ADD SLOAD PUSH2 0xF34 PUSH1 0x1F DUP10 AND DUP3 PUSH2 0xD44 JUMP JUMPDEST DUP4 SSTORE POP JUMPDEST PUSH1 0x1 PUSH1 0x2 DUP9 MUL ADD DUP9 SSTORE POP POP POP JUMPDEST POP POP POP POP POP POP JUMPDEST JUMP INVALID LOG2 PUSH5 0x6970667358 0x22 SLT KECCAK256 0xAE ADDRESS 0xC8 PUSH5 0x77474BE894 DUP7 0xDF DUP8 SWAP13 SWAP14 0xC6 SLOAD BLOBBASEFEE 0xB9 0xBA 0xD3 0x22 CREATE2 PUSH2 0x205F 0xB4 LOG2 DELEGATECALL CODECOPY DUP10 0xDC XOR PUSH5 0x736F6C6343 STOP ADDMOD SHR STOP CALLER "
        },
        "methodIdentifiers": {
          "create_todo(uint256,string,string)": "fdeb4369",
          "delete_todo(uint256)": "6bbdadff",
          "get_todos()": "3865881b",
          "todos(uint256)": "bc8bc2b4",
          "toggle_todo_status(uint256)": "5a051ea2",
          "update_todo(uint256,string,string)": "8f08bb21"
        }
      }
    }
  }
}