{"contracts/Ludo.sol":{"LudoGame":{"abi":[{"inputs":[{"internalType":"address","name":"_ludoToken","type":"address"}],"stateMutability":"nonpayable","type":"constructor"},{"inputs":[{"internalType":"address","name":"owner","type":"address"}],"name":"OwnableInvalidOwner","type":"error"},{"inputs":[{"internalType":"address","name":"account","type":"address"}],"name":"OwnableUnauthorizedAccount","type":"error"},{"inputs":[],"name":"ReentrancyGuardReentrantCall","type":"error"},{"anonymous":false,"inputs":[{"indexed":true,"internalType":"uint256","name":"gameId","type":"uint256"},{"indexed":true,"internalType":"address","name":"player","type":"address"},{"indexed":false,"internalType":"uint256","name":"diceValue","type":"uint256"}],"name":"DiceRolled","type":"event"},{"anonymous":false,"inputs":[{"indexed":true,"internalType":"uint256","name":"gameId","type":"uint256"},{"indexed":false,"internalType":"uint256","name":"stakeAmount","type":"uint256"}],"name":"GameCreated","type":"event"},{"anonymous":false,"inputs":[{"indexed":true,"internalType":"uint256","name":"gameId","type":"uint256"},{"indexed":true,"internalType":"address","name":"winner","type":"address"},{"indexed":false,"internalType":"uint256","name":"prizeAmount","type":"uint256"}],"name":"GameFinished","type":"event"},{"anonymous":false,"inputs":[{"indexed":true,"internalType":"uint256","name":"gameId","type":"uint256"}],"name":"GameStarted","type":"event"},{"anonymous":false,"inputs":[{"indexed":true,"internalType":"address","name":"previousOwner","type":"address"},{"indexed":true,"internalType":"address","name":"newOwner","type":"address"}],"name":"OwnershipTransferred","type":"event"},{"anonymous":false,"inputs":[{"indexed":true,"internalType":"uint256","name":"gameId","type":"uint256"},{"indexed":true,"internalType":"address","name":"player","type":"address"},{"indexed":false,"internalType":"string","name":"name","type":"string"},{"indexed":false,"internalType":"enum LudoGame.Color","name":"color","type":"uint8"}],"name":"PlayerRegistered","type":"event"},{"anonymous":false,"inputs":[{"indexed":true,"internalType":"uint256","name":"gameId","type":"uint256"},{"indexed":true,"internalType":"address","name":"player","type":"address"},{"indexed":false,"internalType":"uint256","name":"amount","type":"uint256"}],"name":"PlayerStaked","type":"event"},{"anonymous":false,"inputs":[{"indexed":true,"internalType":"uint256","name":"gameId","type":"uint256"},{"indexed":true,"internalType":"address","name":"player","type":"address"},{"indexed":false,"internalType":"uint256","name":"tokenIndex","type":"uint256"},{"indexed":false,"internalType":"uint256","name":"fromPosition","type":"uint256"},{"indexed":false,"internalType":"uint256","name":"toPosition","type":"uint256"}],"name":"TokenMoved","type":"event"},{"inputs":[],"name":"BOARD_SIZE","outputs":[{"internalType":"uint256","name":"","type":"uint256"}],"stateMutability":"view","type":"function"},{"inputs":[],"name":"HOME_STRETCH_SIZE","outputs":[{"internalType":"uint256","name":"","type":"uint256"}],"stateMutability":"view","type":"function"},{"inputs":[],"name":"MAX_PLAYERS","outputs":[{"internalType":"uint256","name":"","type":"uint256"}],"stateMutability":"view","type":"function"},{"inputs":[],"name":"TOKENS_PER_PLAYER","outputs":[{"internalType":"uint256","name":"","type":"uint256"}],"stateMutability":"view","type":"function"},{"inputs":[],"name":"WINNING_POSITION","outputs":[{"internalType":"uint256","name":"","type":"uint256"}],"stateMutability":"view","type":"function"},{"inputs":[{"internalType":"enum LudoGame.Color","name":"","type":"uint8"}],"name":"colorStartPosition","outputs":[{"internalType":"uint256","name":"","type":"uint256"}],"stateMutability":"view","type":"function"},{"inputs":[{"internalType":"uint256","name":"_stakeAmount","type":"uint256"}],"name":"createGame","outputs":[],"stateMutability":"nonpayable","type":"function"},{"inputs":[],"name":"defaultStakeAmount","outputs":[{"internalType":"uint256","name":"","type":"uint256"}],"stateMutability":"view","type":"function"},{"inputs":[],"name":"emergencyWithdraw","outputs":[],"stateMutability":"nonpayable","type":"function"},{"inputs":[],"name":"gameCounter","outputs":[{"internalType":"uint256","name":"","type":"uint256"}],"stateMutability":"view","type":"function"},{"inputs":[{"internalType":"uint256","name":"","type":"uint256"}],"name":"games","outputs":[{"internalType":"uint256","name":"gameId","type":"uint256"},{"internalType":"uint256","name":"playerCount","type":"uint256"},{"internalType":"uint256","name":"currentPlayerIndex","type":"uint256"},{"internalType":"uint256","name":"stakeAmount","type":"uint256"},{"internalType":"uint256","name":"totalPrizePool","type":"uint256"},{"internalType":"enum LudoGame.GameState","name":"state","type":"uint8"},{"internalType":"address","name":"winner","type":"address"},{"internalType":"uint256","name":"createdAt","type":"uint256"}],"stateMutability":"view","type":"function"},{"inputs":[{"internalType":"uint256","name":"_gameId","type":"uint256"}],"name":"getCurrentPlayer","outputs":[{"internalType":"address","name":"","type":"address"}],"stateMutability":"view","type":"function"},{"inputs":[{"internalType":"uint256","name":"_gameId","type":"uint256"}],"name":"getGameInfo","outputs":[{"internalType":"uint256","name":"gameId","type":"uint256"},{"internalType":"uint256","name":"playerCount","type":"uint256"},{"internalType":"uint256","name":"stakeAmount","type":"uint256"},{"internalType":"uint256","name":"totalPrizePool","type":"uint256"},{"internalType":"enum LudoGame.GameState","name":"state","type":"uint8"},{"internalType":"address","name":"winner","type":"address"},{"internalType":"uint256","name":"currentPlayerIndex","type":"uint256"}],"stateMutability":"view","type":"function"},{"inputs":[{"internalType":"uint256","name":"_gameId","type":"uint256"},{"internalType":"uint256","name":"_playerIndex","type":"uint256"}],"name":"getPlayerInfo","outputs":[{"internalType":"address","name":"playerAddress","type":"address"},{"internalType":"string","name":"name","type":"string"},{"internalType":"enum LudoGame.Color","name":"color","type":"uint8"},{"internalType":"uint256","name":"score","type":"uint256"},{"internalType":"uint256[4]","name":"tokenPositions","type":"uint256[4]"},{"internalType":"bool","name":"hasStaked","type":"bool"}],"stateMutability":"view","type":"function"},{"inputs":[],"name":"ludoToken","outputs":[{"internalType":"contract IERC20","name":"","type":"address"}],"stateMutability":"view","type":"function"},{"inputs":[],"name":"owner","outputs":[{"internalType":"address","name":"","type":"address"}],"stateMutability":"view","type":"function"},{"inputs":[{"internalType":"address","name":"","type":"address"}],"name":"playerToGame","outputs":[{"internalType":"uint256","name":"","type":"uint256"}],"stateMutability":"view","type":"function"},{"inputs":[{"internalType":"uint256","name":"_gameId","type":"uint256"},{"internalType":"string","name":"_name","type":"string"},{"internalType":"enum LudoGame.Color","name":"_color","type":"uint8"}],"name":"registerPlayer","outputs":[],"stateMutability":"nonpayable","type":"function"},{"inputs":[],"name":"renounceOwnership","outputs":[],"stateMutability":"nonpayable","type":"function"},{"inputs":[{"internalType":"uint256","name":"_gameId","type":"uint256"},{"internalType":"uint256","name":"_tokenIndex","type":"uint256"}],"name":"rollDiceAndMove","outputs":[],"stateMutability":"nonpayable","type":"function"},{"inputs":[{"internalType":"uint256","name":"_amount","type":"uint256"}],"name":"setDefaultStakeAmount","outputs":[],"stateMutability":"nonpayable","type":"function"},{"inputs":[{"internalType":"uint256","name":"_gameId","type":"uint256"}],"name":"stakeTokens","outputs":[],"stateMutability":"nonpayable","type":"function"},{"inputs":[{"internalType":"address","name":"newOwner","type":"address"}],"name":"transferOwnership","outputs":[],"stateMutability":"nonpayable","type":"function"}],"evm":{"bytecode":{"linkReferences":{},"object":"60a060405268056bc75e2d6310000060055534801561001d57600080fd5b50604051613ddb380380613ddb833981810160405281019061003f9190610320565b33600073ffffffffffffffffffffffffffffffffffffffff168173ffffffffffffffffffffffffffffffffffffffff16036100b25760006040517f1e4fbdf70000000000000000000000000000000000000000000000000000000081526004016100a9919061035c565b60405180910390fd5b6100c1816101f960201b60201c565b50600180819055508073ffffffffffffffffffffffffffffffffffffffff1660808173ffffffffffffffffffffffffffffffffffffffff168152505060016006600080600381111561011657610115610377565b5b600381111561012857610127610377565b5b815260200190815260200160002081905550600e600660006001600381111561015457610153610377565b5b600381111561016657610165610377565b5b815260200190815260200160002081905550601b600660006002600381111561019257610191610377565b5b60038111156101a4576101a3610377565b5b8152602001908152602001600020819055506028600660006003808111156101cf576101ce610377565b5b60038111156101e1576101e0610377565b5b815260200190815260200160002081905550506103a6565b60008060009054906101000a900473ffffffffffffffffffffffffffffffffffffffff169050816000806101000a81548173ffffffffffffffffffffffffffffffffffffffff021916908373ffffffffffffffffffffffffffffffffffffffff1602179055508173ffffffffffffffffffffffffffffffffffffffff168173ffffffffffffffffffffffffffffffffffffffff167f8be0079c531659141344cd1fd0a4f28419497f9722a3daafe3b4186f6b6457e060405160405180910390a35050565b600080fd5b600073ffffffffffffffffffffffffffffffffffffffff82169050919050565b60006102ed826102c2565b9050919050565b6102fd816102e2565b811461030857600080fd5b50565b60008151905061031a816102f4565b92915050565b600060208284031215610336576103356102bd565b5b60006103448482850161030b565b91505092915050565b610356816102e2565b82525050565b6000602082019050610371600083018461034d565b92915050565b7f4e487b7100000000000000000000000000000000000000000000000000000000600052602160045260246000fd5b6080516139fe6103dd60003960008181610d4d01528181610eff0152818161117d015281816112190152611b9001526139fe6000f3fe608060405234801561001057600080fd5b506004361061014d5760003560e01c80637547c7a3116100c3578063c8a8c39d1161007c578063c8a8c39d146103a0578063db2e21bc146103be578063dc4a3e95146103c8578063f2fde38b146103e6578063f4b36ac414610402578063fb4d50de1461041e5761014d565b80637547c7a3146102d757806379eca240146102f3578063804c65ce14610311578063862e95e11461032f5780638da5cb5b1461036457806392434bfd146103825761014d565b80634411b3eb116101155780634411b3eb1461022357806347e1d5501461024157806348e837b91461027757806353170bb31461029357806368eb3eec146102af578063715018a6146102cd5761014d565b8063117a5b9014610152578063151c91661461018957806324b4a93c146101a557806326638631146101d55780632e0be39a14610205575b600080fd5b61016c600480360381019061016791906125cb565b61044e565b6040516101809897969594939291906126bf565b60405180910390f35b6101a3600480360381019061019e91906125cb565b6104c3565b005b6101bf60048036038101906101ba9190612762565b6104d5565b6040516101cc919061278f565b60405180910390f35b6101ef60048036038101906101ea91906125cb565b6104ed565b6040516101fc91906127aa565b60405180910390f35b61020d6105eb565b60405161021a919061278f565b60405180910390f35b61022b6105f1565b604051610238919061278f565b60405180910390f35b61025b600480360381019061025691906125cb565b6105f6565b60405161026e97969594939291906127c5565b60405180910390f35b610291600480360381019061028c91906125cb565b6106d5565b005b6102ad60048036038101906102a89190612834565b610833565b005b6102b7610b4d565b6040516102c4919061278f565b60405180910390f35b6102d5610b53565b005b6102f160048036038101906102ec91906125cb565b610b67565b005b6102fb610efd565b60405161030891906128d3565b60405180910390f35b610319610f21565b604051610326919061278f565b60405180910390f35b61034960048036038101906103449190612834565b610f26565b60405161035b96959493929190612a8c565b60405180910390f35b61036c61113e565b60405161037991906127aa565b60405180910390f35b61038a611167565b604051610397919061278f565b60405180910390f35b6103a861116c565b6040516103b5919061278f565b60405180910390f35b6103c6611171565b005b6103d06112c0565b6040516103dd919061278f565b60405180910390f35b61040060048036038101906103fb9190612b22565b6112c5565b005b61041c60048036038101906104179190612c84565b61134b565b005b61043860048036038101906104339190612b22565b6117c2565b604051610445919061278f565b60405180910390f35b60026020528060005260406000206000915090508060000154908060250154908060260154908060270154908060280154908060290160009054906101000a900460ff16908060290160019054906101000a900473ffffffffffffffffffffffffffffffffffffffff169080602a0154905088565b6104cb6117da565b8060058190555050565b60066020528060005260406000206000915090505481565b60008160008111801561050257506004548111155b610541576040517f08c379a000000000000000000000000000000000000000000000000000000000815260040161053890612d3f565b60405180910390fd5b60006002600085815260200190815260200160002090506001600281111561056c5761056b612607565b5b8160290160009054906101000a900460ff1660028111156105905761058f612607565b5b1461059f5760009250506105e5565b806001018160260154600481106105b9576105b8612d5f565b5b6009020160000160009054906101000a900473ffffffffffffffffffffffffffffffffffffffff169250505b50919050565b60045481565b600481565b60008060008060008060008760008111801561061457506004548111155b610653576040517f08c379a000000000000000000000000000000000000000000000000000000000815260040161064a90612d3f565b60405180910390fd5b6000600260008b8152602001908152602001600020905080600001548160250154826027015483602801548460290160009054906101000a900460ff168560290160019054906101000a900473ffffffffffffffffffffffffffffffffffffffff16866026015498509850985098509850985098505050919395979092949650565b60008111610718576040517f08c379a000000000000000000000000000000000000000000000000000000000815260040161070f90612e00565b60405180910390fd5b6004600081548092919061072b90612e4f565b919050555060006002600060045481526020019081526020016000209050600454816000018190555081816027018190555060008160290160006101000a81548160ff0219169083600281111561078557610784612607565b5b02179055504281602a0181905550600467ffffffffffffffff8111156107ae576107ad612b59565b5b6040519080825280602002602001820160405280156107dc5781602001602082028036833780820191505090505b5081602b0190805190602001906107f492919061249c565b506004547fa26856d25e558c79e1632806bc6824075cf59885a115825f2aab62385a3f714283604051610827919061278f565b60405180910390a25050565b8160008111801561084657506004548111155b610885576040517f08c379a000000000000000000000000000000000000000000000000000000000815260040161087c90612d3f565b60405180910390fd5b826001600281111561089a57610899612607565b5b6002600083815260200190815260200160002060290160009054906101000a900460ff1660028111156108d0576108cf612607565b5b14610910576040517f08c379a000000000000000000000000000000000000000000000000000000000815260040161090790612ee3565b60405180910390fd5b8380600360003373ffffffffffffffffffffffffffffffffffffffff1673ffffffffffffffffffffffffffffffffffffffff1681526020019081526020016000205414610992576040517f08c379a000000000000000000000000000000000000000000000000000000000815260040161098990612f4f565b60405180910390fd5b8460006002600083815260200190815260200160002090503373ffffffffffffffffffffffffffffffffffffffff16816001018260260154600481106109db576109da612d5f565b5b6009020160000160009054906101000a900473ffffffffffffffffffffffffffffffffffffffff1673ffffffffffffffffffffffffffffffffffffffff1614610a59576040517f08c379a0000000000000000000000000000000000000000000000000000000008152600401610a5090612fbb565b60405180910390fd5b60048610610a9c576040517f08c379a0000000000000000000000000000000000000000000000000000000008152600401610a9390613027565b60405180910390fd5b6000610aa6611861565b90503373ffffffffffffffffffffffffffffffffffffffff16887fd2e5b7e86e0119aecac590ce5166e6c1b96b0d9b0a3e648c0ca46c90bdd587ba83604051610aef919061278f565b60405180910390a36000610b048989846118b7565b9050610b0f896119fe565b15610b2457610b1d89611a8a565b5050610b44565b60068214158015610b325750805b15610b4157610b4089611d6f565b5b50505b50505050505050565b60055481565b610b5b6117da565b610b656000611db2565b565b80600081118015610b7a57506004548111155b610bb9576040517f08c379a0000000000000000000000000000000000000000000000000000000008152600401610bb090612d3f565b60405180910390fd5b8180600360003373ffffffffffffffffffffffffffffffffffffffff1673ffffffffffffffffffffffffffffffffffffffff1681526020019081526020016000205414610c3b576040517f08c379a0000000000000000000000000000000000000000000000000000000008152600401610c3290612f4f565b60405180910390fd5b610c43611e76565b600060026000858152602001908152602001600020905060006002811115610c6e57610c6d612607565b5b8160290160009054906101000a900460ff166002811115610c9257610c91612607565b5b14610cd2576040517f08c379a0000000000000000000000000000000000000000000000000000000008152600401610cc990613093565b60405180910390fd5b6000610cde8533611ebc565b9050816001018160048110610cf657610cf5612d5f565b5b6009020160080160019054906101000a900460ff1615610d4b576040517f08c379a0000000000000000000000000000000000000000000000000000000008152600401610d42906130ff565b60405180910390fd5b7f000000000000000000000000000000000000000000000000000000000000000073ffffffffffffffffffffffffffffffffffffffff166323b872dd333085602701546040518463ffffffff1660e01b8152600401610dac9392919061311f565b6020604051808303816000875af1158015610dcb573d6000803e3d6000fd5b505050506040513d601f19601f82011682018060405250810190610def9190613182565b610e2e576040517f08c379a0000000000000000000000000000000000000000000000000000000008152600401610e25906131fb565b60405180910390fd5b6001826001018260048110610e4657610e45612d5f565b5b6009020160080160016101000a81548160ff0219169083151502179055508160270154826028016000828254610e7c919061321b565b925050819055503373ffffffffffffffffffffffffffffffffffffffff16857fad9c14bb299924761435331fdd9f48eea04ef05c05f8e1d78b12b8df809c073d8460270154604051610ece919061278f565b60405180910390a3610edf85611fac565b15610eee57610eed85612026565b5b5050610ef86120a5565b505050565b7f000000000000000000000000000000000000000000000000000000000000000081565b600681565b60006060600080610f35612542565b600087600081118015610f4a57506004548111155b610f89576040517f08c379a0000000000000000000000000000000000000000000000000000000008152600401610f8090612d3f565b60405180910390fd5b6000600260008b8152602001908152602001600020905080602501548910610fe6576040517f08c379a0000000000000000000000000000000000000000000000000000000008152600401610fdd9061329b565b60405180910390fd5b6000816001018a60048110610ffe57610ffd612d5f565b5b6009020190508060000160009054906101000a900473ffffffffffffffffffffffffffffffffffffffff16816001018260020160009054906101000a900460ff168360030154846004018560080160019054906101000a900460ff16848054611066906132ea565b80601f0160208091040260200160405190810160405280929190818152602001828054611092906132ea565b80156110df5780601f106110b4576101008083540402835291602001916110df565b820191906000526020600020905b8154815290600101906020018083116110c257829003601f168201915b505050505094508160048060200260405190810160405280929190826004801561111e576020028201915b81548152602001906001019080831161110a575b505050505091509850985098509850985098505050509295509295509295565b60008060009054906101000a900473ffffffffffffffffffffffffffffffffffffffff16905090565b600481565b603981565b6111796117da565b60007f000000000000000000000000000000000000000000000000000000000000000073ffffffffffffffffffffffffffffffffffffffff166370a08231306040518263ffffffff1660e01b81526004016111d491906127aa565b602060405180830381865afa1580156111f1573d6000803e3d6000fd5b505050506040513d601f19601f820116820180604052508101906112159190613330565b90507f000000000000000000000000000000000000000000000000000000000000000073ffffffffffffffffffffffffffffffffffffffff1663a9059cbb61125b61113e565b836040518363ffffffff1660e01b815260040161127992919061335d565b6020604051808303816000875af1158015611298573d6000803e3d6000fd5b505050506040513d601f19601f820116820180604052508101906112bc9190613182565b5050565b603481565b6112cd6117da565b600073ffffffffffffffffffffffffffffffffffffffff168173ffffffffffffffffffffffffffffffffffffffff160361133f5760006040517f1e4fbdf700000000000000000000000000000000000000000000000000000000815260040161133691906127aa565b60405180910390fd5b61134881611db2565b50565b8260008111801561135e57506004548111155b61139d576040517f08c379a000000000000000000000000000000000000000000000000000000000815260040161139490612d3f565b60405180910390fd5b6000600260008681526020019081526020016000209050600060028111156113c8576113c7612607565b5b8160290160009054906101000a900460ff1660028111156113ec576113eb612607565b5b1461142c576040517f08c379a000000000000000000000000000000000000000000000000000000000815260040161142390613093565b60405180910390fd5b6004816025015410611473576040517f08c379a000000000000000000000000000000000000000000000000000000000815260040161146a906133d2565b60405180910390fd5b80602b0183600381111561148a57611489612607565b5b8154811061149b5761149a612d5f565b5b90600052602060002090602091828204019190069054906101000a900460ff16156114fb576040517f08c379a00000000000000000000000000000000000000000000000000000000081526004016114f29061343e565b60405180910390fd5b6000600360003373ffffffffffffffffffffffffffffffffffffffff1673ffffffffffffffffffffffffffffffffffffffff168152602001908152602001600020541461157d576040517f08c379a0000000000000000000000000000000000000000000000000000000008152600401611574906134aa565b60405180910390fd5b60008451116115c1576040517f08c379a00000000000000000000000000000000000000000000000000000000081526004016115b890613516565b60405180910390fd5b6000816001018260250154600481106115dd576115dc612d5f565b5b600902019050338160000160006101000a81548173ffffffffffffffffffffffffffffffffffffffff021916908373ffffffffffffffffffffffffffffffffffffffff1602179055508481600101908161163791906136d8565b50838160020160006101000a81548160ff0219169083600381111561165f5761165e612607565b5b021790555060018160080160006101000a81548160ff02191690831515021790555060005b60048110156116b75760008260040182600481106116a5576116a4612d5f565b5b01819055508080600101915050611684565b50600182602b018560038111156116d1576116d0612607565b5b815481106116e2576116e1612d5f565b5b90600052602060002090602091828204019190066101000a81548160ff02191690831515021790555081602501600081548092919061172090612e4f565b919050555085600360003373ffffffffffffffffffffffffffffffffffffffff1673ffffffffffffffffffffffffffffffffffffffff168152602001908152602001600020819055503373ffffffffffffffffffffffffffffffffffffffff16867f5edf2924394e7b2faa5b3d07f148ab6d59f7051a142b081bd3552b8d432e82fe87876040516117b29291906137aa565b60405180910390a3505050505050565b60036020528060005260406000206000915090505481565b6117e26120ae565b73ffffffffffffffffffffffffffffffffffffffff1661180061113e565b73ffffffffffffffffffffffffffffffffffffffff161461185f576118236120ae565b6040517f118cdaa700000000000000000000000000000000000000000000000000000000815260040161185691906127aa565b60405180910390fd5b565b60008042443360045460405160200161187d9493929190613843565b6040516020818303038152906040528051906020012060001c905060016006826118a791906138c0565b6118b1919061321b565b91505090565b60008060026000868152602001908152602001600020905060006118db8633611ebc565b905060008260010182600481106118f5576118f4612d5f565b5b600902019050600081600401876004811061191357611912612d5f565b5b0154905060006119358360020160009054906101000a900460ff1683896120b6565b9050611942828289612216565b611954576000955050505050506119f7565b6119608985838b612255565b15611973576000955050505050506119f7565b61197e8985836122eb565b8083600401896004811061199557611994612d5f565b5b01819055503373ffffffffffffffffffffffffffffffffffffffff16897f8e0f34a4c856924e39c0b719be03912592b291e442211af654d398a473f5e2d68a85856040516119e5939291906138f1565b60405180910390a36001955050505050505b9392505050565b600080600260008481526020019081526020016000209050600081600101826026015460048110611a3257611a31612d5f565b5b60090201905060005b6004811015611a7d576039826004018260048110611a5c57611a5b612d5f565b5b01541015611a705760009350505050611a85565b8080600101915050611a3b565b506001925050505b919050565b600060026000838152602001908152602001600020905060028160290160006101000a81548160ff02191690836002811115611ac957611ac8612607565b5b021790555080600101816026015460048110611ae857611ae7612d5f565b5b6009020160000160009054906101000a900473ffffffffffffffffffffffffffffffffffffffff168160290160016101000a81548173ffffffffffffffffffffffffffffffffffffffff021916908373ffffffffffffffffffffffffffffffffffffffff160217905550806028015481600101826026015460048110611b7157611b70612d5f565b5b600902016003016000828254611b87919061321b565b925050819055507f000000000000000000000000000000000000000000000000000000000000000073ffffffffffffffffffffffffffffffffffffffff1663a9059cbb8260290160019054906101000a900473ffffffffffffffffffffffffffffffffffffffff1683602801546040518363ffffffff1660e01b8152600401611c1192919061335d565b6020604051808303816000875af1158015611c30573d6000803e3d6000fd5b505050506040513d601f19601f82011682018060405250810190611c549190613182565b5060005b8160250154811015611cf357600060036000846001018460048110611c8057611c7f612d5f565b5b6009020160000160009054906101000a900473ffffffffffffffffffffffffffffffffffffffff1673ffffffffffffffffffffffffffffffffffffffff1673ffffffffffffffffffffffffffffffffffffffff168152602001908152602001600020819055508080600101915050611c58565b508060290160019054906101000a900473ffffffffffffffffffffffffffffffffffffffff1673ffffffffffffffffffffffffffffffffffffffff16827ff5d92df6ae1a0b46d0a0c57c2e1da0d75d7591d2804ad086cb1e27ba67de7aaf8360280154604051611d63919061278f565b60405180910390a35050565b6000600260008381526020019081526020016000209050806025015460018260260154611d9c919061321b565b611da691906138c0565b81602601819055505050565b60008060009054906101000a900473ffffffffffffffffffffffffffffffffffffffff169050816000806101000a81548173ffffffffffffffffffffffffffffffffffffffff021916908373ffffffffffffffffffffffffffffffffffffffff1602179055508173ffffffffffffffffffffffffffffffffffffffff168173ffffffffffffffffffffffffffffffffffffffff167f8be0079c531659141344cd1fd0a4f28419497f9722a3daafe3b4186f6b6457e060405160405180910390a35050565b600260015403611eb2576040517f3ee5aeb500000000000000000000000000000000000000000000000000000000815260040160405180910390fd5b6002600181905550565b60008060026000858152602001908152602001600020905060005b8160250154811015611f6a578373ffffffffffffffffffffffffffffffffffffffff16826001018260048110611f1057611f0f612d5f565b5b6009020160000160009054906101000a900473ffffffffffffffffffffffffffffffffffffffff1673ffffffffffffffffffffffffffffffffffffffff1603611f5d578092505050611fa6565b8080600101915050611ed7565b506040517f08c379a0000000000000000000000000000000000000000000000000000000008152600401611f9d90613974565b60405180910390fd5b92915050565b60008060026000848152602001908152602001600020905060005b816025015481101561201a57816001018160048110611fe957611fe8612d5f565b5b6009020160080160019054906101000a900460ff1661200d57600092505050612021565b8080600101915050611fc7565b5060019150505b919050565b600060026000838152602001908152602001600020905060018160290160006101000a81548160ff0219169083600281111561206557612064612607565b5b021790555060008160260181905550817f50ad08f58a27f2851d7e3a1b3a6a46b290f2ce677e99642d30ff639721e7779060405160405180910390a25050565b60018081905550565b600033905090565b600080830361210f576006820361210657600660008560038111156120de576120dd612607565b5b60038111156120f0576120ef612607565b5b815260200190815260200160002054905061220f565b6000905061220f565b60018310158015612121575060348311155b156121cb576000612131856123be565b905060008385612141919061321b565b905081851080156121525750818110155b1561218a57600082826121659190613994565b90508060016034612176919061321b565b612180919061321b565b935050505061220f565b60348111156121c157600160346001836121a49190613994565b6121ae91906138c0565b6121b8919061321b565b9250505061220f565b809250505061220f565b6034831180156121db5750603983105b1561220b57600082846121ee919061321b565b90506039811115612202578391505061220f565b8091505061220f565b8290505b9392505050565b60008084148015612228575060068214155b15612236576000905061224e565b60398410612247576000905061224e565b8383141590505b9392505050565b600080600260008781526020019081526020016000209050600081600101866004811061228557612284612d5f565b5b60090201905060005b60048110156122db578481141580156122bd5750858260040182600481106122b9576122b8612d5f565b5b0154145b156122ce57600193505050506122e3565b808060010191505061228e565b506000925050505b949350505050565b600060026000858152602001908152602001600020905060008214806123115750603482115b1561231c57506123b9565b60005b81602501548110156123b657838103156123a957600082600101826004811061234b5761234a612d5f565b5b60090201905060005b60048110156123a6578482600401826004811061237457612373612d5f565b5b01540361239957600082600401826004811061239357612392612d5f565b5b01819055505b8080600101915050612354565b50505b808060010191505061231f565b50505b505050565b60008060038111156123d3576123d2612607565b5b8260038111156123e6576123e5612607565b5b036123f45760339050612497565b6001600381111561240857612407612607565b5b82600381111561241b5761241a612607565b5b0361242957600c9050612497565b6002600381111561243d5761243c612607565b5b8260038111156124505761244f612607565b5b0361245e5760199050612497565b60038081111561247157612470612607565b5b82600381111561248457612483612607565b5b036124925760269050612497565b600090505b919050565b82805482825590600052602060002090601f016020900481019282156125315791602002820160005b8382111561250257835183826101000a81548160ff02191690831515021790555092602001926001016020816000010492830192600103026124c5565b801561252f5782816101000a81549060ff0219169055600101602081600001049283019260010302612502565b505b50905061253e9190612564565b5090565b6040518060800160405280600490602082028036833780820191505090505090565b5b8082111561257d576000816000905550600101612565565b5090565b6000604051905090565b600080fd5b600080fd5b6000819050919050565b6125a881612595565b81146125b357600080fd5b50565b6000813590506125c58161259f565b92915050565b6000602082840312156125e1576125e061258b565b5b60006125ef848285016125b6565b91505092915050565b61260181612595565b82525050565b7f4e487b7100000000000000000000000000000000000000000000000000000000600052602160045260246000fd5b6003811061264757612646612607565b5b50565b600081905061265882612636565b919050565b60006126688261264a565b9050919050565b6126788161265d565b82525050565b600073ffffffffffffffffffffffffffffffffffffffff82169050919050565b60006126a98261267e565b9050919050565b6126b98161269e565b82525050565b6000610100820190506126d5600083018b6125f8565b6126e2602083018a6125f8565b6126ef60408301896125f8565b6126fc60608301886125f8565b61270960808301876125f8565b61271660a083018661266f565b61272360c08301856126b0565b61273060e08301846125f8565b9998505050505050505050565b6004811061274a57600080fd5b50565b60008135905061275c8161273d565b92915050565b6000602082840312156127785761277761258b565b5b60006127868482850161274d565b91505092915050565b60006020820190506127a460008301846125f8565b92915050565b60006020820190506127bf60008301846126b0565b92915050565b600060e0820190506127da600083018a6125f8565b6127e760208301896125f8565b6127f460408301886125f8565b61280160608301876125f8565b61280e608083018661266f565b61281b60a08301856126b0565b61282860c08301846125f8565b98975050505050505050565b6000806040838503121561284b5761284a61258b565b5b6000612859858286016125b6565b925050602061286a858286016125b6565b9150509250929050565b6000819050919050565b600061289961289461288f8461267e565b612874565b61267e565b9050919050565b60006128ab8261287e565b9050919050565b60006128bd826128a0565b9050919050565b6128cd816128b2565b82525050565b60006020820190506128e860008301846128c4565b92915050565b600081519050919050565b600082825260208201905092915050565b60005b8381101561292857808201518184015260208101905061290d565b60008484015250505050565b6000601f19601f8301169050919050565b6000612950826128ee565b61295a81856128f9565b935061296a81856020860161290a565b61297381612934565b840191505092915050565b6004811061298f5761298e612607565b5b50565b60008190506129a08261297e565b919050565b60006129b082612992565b9050919050565b6129c0816129a5565b82525050565b600060049050919050565b600081905092915050565b6000819050919050565b6129ef81612595565b82525050565b6000612a0183836129e6565b60208301905092915050565b6000602082019050919050565b612a23816129c6565b612a2d81846129d1565b9250612a38826129dc565b8060005b83811015612a69578151612a5087826129f5565b9650612a5b83612a0d565b925050600181019050612a3c565b505050505050565b60008115159050919050565b612a8681612a71565b82525050565b600061012082019050612aa260008301896126b0565b8181036020830152612ab48188612945565b9050612ac360408301876129b7565b612ad060608301866125f8565b612add6080830185612a1a565b612aeb610100830184612a7d565b979650505050505050565b612aff8161269e565b8114612b0a57600080fd5b50565b600081359050612b1c81612af6565b92915050565b600060208284031215612b3857612b3761258b565b5b6000612b4684828501612b0d565b91505092915050565b600080fd5b600080fd5b7f4e487b7100000000000000000000000000000000000000000000000000000000600052604160045260246000fd5b612b9182612934565b810181811067ffffffffffffffff82111715612bb057612baf612b59565b5b80604052505050565b6000612bc3612581565b9050612bcf8282612b88565b919050565b600067ffffffffffffffff821115612bef57612bee612b59565b5b612bf882612934565b9050602081019050919050565b82818337600083830152505050565b6000612c27612c2284612bd4565b612bb9565b905082815260208101848484011115612c4357612c42612b54565b5b612c4e848285612c05565b509392505050565b600082601f830112612c6b57612c6a612b4f565b5b8135612c7b848260208601612c14565b91505092915050565b600080600060608486031215612c9d57612c9c61258b565b5b6000612cab868287016125b6565b935050602084013567ffffffffffffffff811115612ccc57612ccb612590565b5b612cd886828701612c56565b9250506040612ce98682870161274d565b9150509250925092565b7f47616d6520646f6573206e6f7420657869737400000000000000000000000000600082015250565b6000612d296013836128f9565b9150612d3482612cf3565b602082019050919050565b60006020820190508181036000830152612d5881612d1c565b9050919050565b7f4e487b7100000000000000000000000000000000000000000000000000000000600052603260045260246000fd5b7f5374616b6520616d6f756e74206d75737420626520677265617465722074686160008201527f6e20300000000000000000000000000000000000000000000000000000000000602082015250565b6000612dea6023836128f9565b9150612df582612d8e565b604082019050919050565b60006020820190508181036000830152612e1981612ddd565b9050919050565b7f4e487b7100000000000000000000000000000000000000000000000000000000600052601160045260246000fd5b6000612e5a82612595565b91507fffffffffffffffffffffffffffffffffffffffffffffffffffffffffffffffff8203612e8c57612e8b612e20565b5b600182019050919050565b7f47616d65206e6f7420696e2070726f6772657373000000000000000000000000600082015250565b6000612ecd6014836128f9565b9150612ed882612e97565b602082019050919050565b60006020820190508181036000830152612efc81612ec0565b9050919050565b7f4e6f74207265676973746572656420666f7220746869732067616d6500000000600082015250565b6000612f39601c836128f9565b9150612f4482612f03565b602082019050919050565b60006020820190508181036000830152612f6881612f2c565b9050919050565b7f4e6f7420796f7572207475726e00000000000000000000000000000000000000600082015250565b6000612fa5600d836128f9565b9150612fb082612f6f565b602082019050919050565b60006020820190508181036000830152612fd481612f98565b9050919050565b7f496e76616c696420746f6b656e20696e64657800000000000000000000000000600082015250565b60006130116013836128f9565b915061301c82612fdb565b602082019050919050565b6000602082019050818103600083015261304081613004565b9050919050565b7f47616d6520616c72656164792073746172746564206f722066696e6973686564600082015250565b600061307d6020836128f9565b915061308882613047565b602082019050919050565b600060208201905081810360008301526130ac81613070565b9050919050565b7f416c7265616479207374616b6564000000000000000000000000000000000000600082015250565b60006130e9600e836128f9565b91506130f4826130b3565b602082019050919050565b60006020820190508181036000830152613118816130dc565b9050919050565b600060608201905061313460008301866126b0565b61314160208301856126b0565b61314e60408301846125f8565b949350505050565b61315f81612a71565b811461316a57600080fd5b50565b60008151905061317c81613156565b92915050565b6000602082840312156131985761319761258b565b5b60006131a68482850161316d565b91505092915050565b7f546f6b656e207472616e73666572206661696c65640000000000000000000000600082015250565b60006131e56015836128f9565b91506131f0826131af565b602082019050919050565b60006020820190508181036000830152613214816131d8565b9050919050565b600061322682612595565b915061323183612595565b925082820190508082111561324957613248612e20565b5b92915050565b7f496e76616c696420706c6179657220696e646578000000000000000000000000600082015250565b60006132856014836128f9565b91506132908261324f565b602082019050919050565b600060208201905081810360008301526132b481613278565b9050919050565b7f4e487b7100000000000000000000000000000000000000000000000000000000600052602260045260246000fd5b6000600282049050600182168061330257607f821691505b602082108103613315576133146132bb565b5b50919050565b60008151905061332a8161259f565b92915050565b6000602082840312156133465761334561258b565b5b60006133548482850161331b565b91505092915050565b600060408201905061337260008301856126b0565b61337f60208301846125f8565b9392505050565b7f47616d652069732066756c6c0000000000000000000000000000000000000000600082015250565b60006133bc600c836128f9565b91506133c782613386565b602082019050919050565b600060208201905081810360008301526133eb816133af565b9050919050565b7f436f6c6f7220616c72656164792074616b656e00000000000000000000000000600082015250565b60006134286013836128f9565b9150613433826133f2565b602082019050919050565b600060208201905081810360008301526134578161341b565b9050919050565b7f416c7265616479207265676973746572656420666f7220612067616d65000000600082015250565b6000613494601d836128f9565b915061349f8261345e565b602082019050919050565b600060208201905081810360008301526134c381613487565b9050919050565b7f4e616d652063616e6e6f7420626520656d707479000000000000000000000000600082015250565b60006135006014836128f9565b915061350b826134ca565b602082019050919050565b6000602082019050818103600083015261352f816134f3565b9050919050565b60008190508160005260206000209050919050565b60006020601f8301049050919050565b600082821b905092915050565b6000600883026135987fffffffffffffffffffffffffffffffffffffffffffffffffffffffffffffffff8261355b565b6135a2868361355b565b95508019841693508086168417925050509392505050565b60006135d56135d06135cb84612595565b612874565b612595565b9050919050565b6000819050919050565b6135ef836135ba565b6136036135fb826135dc565b848454613568565b825550505050565b600090565b61361861360b565b6136238184846135e6565b505050565b5b818110156136475761363c600082613610565b600181019050613629565b5050565b601f82111561368c5761365d81613536565b6136668461354b565b81016020851015613675578190505b6136896136818561354b565b830182613628565b50505b505050565b600082821c905092915050565b60006136af60001984600802613691565b1980831691505092915050565b60006136c8838361369e565b9150826002028217905092915050565b6136e1826128ee565b67ffffffffffffffff8111156136fa576136f9612b59565b5b61370482546132ea565b61370f82828561364b565b600060209050601f8311600181146137425760008415613730578287015190505b61373a85826136bc565b8655506137a2565b601f19841661375086613536565b60005b8281101561377857848901518255600182019150602085019450602081019050613753565b868310156137955784890151613791601f89168261369e565b8355505b6001600288020188555050505b505050505050565b600060408201905081810360008301526137c48185612945565b90506137d360208301846129b7565b9392505050565b6000819050919050565b6137f56137f082612595565b6137da565b82525050565b60008160601b9050919050565b6000613813826137fb565b9050919050565b600061382582613808565b9050919050565b61383d6138388261269e565b61381a565b82525050565b600061384f82876137e4565b60208201915061385f82866137e4565b60208201915061386f828561382c565b60148201915061387f82846137e4565b60208201915081905095945050505050565b7f4e487b7100000000000000000000000000000000000000000000000000000000600052601260045260246000fd5b60006138cb82612595565b91506138d683612595565b9250826138e6576138e5613891565b5b828206905092915050565b600060608201905061390660008301866125f8565b61391360208301856125f8565b61392060408301846125f8565b949350505050565b7f506c61796572206e6f7420666f756e6400000000000000000000000000000000600082015250565b600061395e6010836128f9565b915061396982613928565b602082019050919050565b6000602082019050818103600083015261398d81613951565b9050919050565b600061399f82612595565b91506139aa83612595565b92508282039050818111156139c2576139c1612e20565b5b9291505056fea2646970667358221220cd92177c96ff27ab2e8b2c6ed085a864fd0166a5485839e33e63902be1ff6ab564736f6c634300081c0033","opcodes":"PUSH1 0xA0 PUSH1 0x40 MSTORE PUSH9 0x56BC75E2D63100000 PUSH1 0x5 SSTORE CALLVALUE DUP1 ISZERO PUSH2 0x1D JUMPI PUSH1 0x0 DUP1 REVERT JUMPDEST POP PUSH1 0x40 MLOAD PUSH2 0x3DDB CODESIZE SUB DUP1 PUSH2 0x3DDB DUP4 CODECOPY DUP2 DUP2 ADD PUSH1 0x40 MSTORE DUP2 ADD SWAP1 PUSH2 0x3F SWAP2 SWAP1 PUSH2 0x320 JUMP JUMPDEST CALLER PUSH1 0x0 PUSH20 0xFFFFFFFFFFFFFFFFFFFFFFFFFFFFFFFFFFFFFFFF AND DUP2 PUSH20 0xFFFFFFFFFFFFFFFFFFFFFFFFFFFFFFFFFFFFFFFF AND SUB PUSH2 0xB2 JUMPI PUSH1 0x0 PUSH1 0x40 MLOAD PUSH32 0x1E4FBDF700000000000000000000000000000000000000000000000000000000 DUP2 MSTORE PUSH1 0x4 ADD PUSH2 0xA9 SWAP2 SWAP1 PUSH2 0x35C JUMP JUMPDEST PUSH1 0x40 MLOAD DUP1 SWAP2 SUB SWAP1 REVERT JUMPDEST PUSH2 0xC1 DUP2 PUSH2 0x1F9 PUSH1 0x20 SHL PUSH1 0x20 SHR JUMP JUMPDEST POP PUSH1 0x1 DUP1 DUP2 SWAP1 SSTORE POP DUP1 PUSH20 0xFFFFFFFFFFFFFFFFFFFFFFFFFFFFFFFFFFFFFFFF AND PUSH1 0x80 DUP2 PUSH20 0xFFFFFFFFFFFFFFFFFFFFFFFFFFFFFFFFFFFFFFFF AND DUP2 MSTORE POP POP PUSH1 0x1 PUSH1 0x6 PUSH1 0x0 DUP1 PUSH1 0x3 DUP2 GT ISZERO PUSH2 0x116 JUMPI PUSH2 0x115 PUSH2 0x377 JUMP JUMPDEST JUMPDEST PUSH1 0x3 DUP2 GT ISZERO PUSH2 0x128 JUMPI PUSH2 0x127 PUSH2 0x377 JUMP JUMPDEST JUMPDEST DUP2 MSTORE PUSH1 0x20 ADD SWAP1 DUP2 MSTORE PUSH1 0x20 ADD PUSH1 0x0 KECCAK256 DUP2 SWAP1 SSTORE POP PUSH1 0xE PUSH1 0x6 PUSH1 0x0 PUSH1 0x1 PUSH1 0x3 DUP2 GT ISZERO PUSH2 0x154 JUMPI PUSH2 0x153 PUSH2 0x377 JUMP JUMPDEST JUMPDEST PUSH1 0x3 DUP2 GT ISZERO PUSH2 0x166 JUMPI PUSH2 0x165 PUSH2 0x377 JUMP JUMPDEST JUMPDEST DUP2 MSTORE PUSH1 0x20 ADD SWAP1 DUP2 MSTORE PUSH1 0x20 ADD PUSH1 0x0 KECCAK256 DUP2 SWAP1 SSTORE POP PUSH1 0x1B PUSH1 0x6 PUSH1 0x0 PUSH1 0x2 PUSH1 0x3 DUP2 GT ISZERO PUSH2 0x192 JUMPI PUSH2 0x191 PUSH2 0x377 JUMP JUMPDEST JUMPDEST PUSH1 0x3 DUP2 GT ISZERO PUSH2 0x1A4 JUMPI PUSH2 0x1A3 PUSH2 0x377 JUMP JUMPDEST JUMPDEST DUP2 MSTORE PUSH1 0x20 ADD SWAP1 DUP2 MSTORE PUSH1 0x20 ADD PUSH1 0x0 KECCAK256 DUP2 SWAP1 SSTORE POP PUSH1 0x28 PUSH1 0x6 PUSH1 0x0 PUSH1 0x3 DUP1 DUP2 GT ISZERO PUSH2 0x1CF JUMPI PUSH2 0x1CE PUSH2 0x377 JUMP JUMPDEST JUMPDEST PUSH1 0x3 DUP2 GT ISZERO PUSH2 0x1E1 JUMPI PUSH2 0x1E0 PUSH2 0x377 JUMP JUMPDEST JUMPDEST DUP2 MSTORE PUSH1 0x20 ADD SWAP1 DUP2 MSTORE PUSH1 0x20 ADD PUSH1 0x0 KECCAK256 DUP2 SWAP1 SSTORE POP POP PUSH2 0x3A6 JUMP JUMPDEST PUSH1 0x0 DUP1 PUSH1 0x0 SWAP1 SLOAD SWAP1 PUSH2 0x100 EXP SWAP1 DIV PUSH20 0xFFFFFFFFFFFFFFFFFFFFFFFFFFFFFFFFFFFFFFFF AND SWAP1 POP DUP2 PUSH1 0x0 DUP1 PUSH2 0x100 EXP DUP2 SLOAD DUP2 PUSH20 0xFFFFFFFFFFFFFFFFFFFFFFFFFFFFFFFFFFFFFFFF MUL NOT AND SWAP1 DUP4 PUSH20 0xFFFFFFFFFFFFFFFFFFFFFFFFFFFFFFFFFFFFFFFF AND MUL OR SWAP1 SSTORE POP DUP2 PUSH20 0xFFFFFFFFFFFFFFFFFFFFFFFFFFFFFFFFFFFFFFFF AND DUP2 PUSH20 0xFFFFFFFFFFFFFFFFFFFFFFFFFFFFFFFFFFFFFFFF AND PUSH32 0x8BE0079C531659141344CD1FD0A4F28419497F9722A3DAAFE3B4186F6B6457E0 PUSH1 0x40 MLOAD PUSH1 0x40 MLOAD DUP1 SWAP2 SUB SWAP1 LOG3 POP POP JUMP JUMPDEST PUSH1 0x0 DUP1 REVERT JUMPDEST PUSH1 0x0 PUSH20 0xFFFFFFFFFFFFFFFFFFFFFFFFFFFFFFFFFFFFFFFF DUP3 AND SWAP1 POP SWAP2 SWAP1 POP JUMP JUMPDEST PUSH1 0x0 PUSH2 0x2ED DUP3 PUSH2 0x2C2 JUMP JUMPDEST SWAP1 POP SWAP2 SWAP1 POP JUMP JUMPDEST PUSH2 0x2FD DUP2 PUSH2 0x2E2 JUMP JUMPDEST DUP2 EQ PUSH2 0x308 JUMPI PUSH1 0x0 DUP1 REVERT JUMPDEST POP JUMP JUMPDEST PUSH1 0x0 DUP2 MLOAD SWAP1 POP PUSH2 0x31A DUP2 PUSH2 0x2F4 JUMP JUMPDEST SWAP3 SWAP2 POP POP JUMP JUMPDEST PUSH1 0x0 PUSH1 0x20 DUP3 DUP5 SUB SLT ISZERO PUSH2 0x336 JUMPI PUSH2 0x335 PUSH2 0x2BD JUMP JUMPDEST JUMPDEST PUSH1 0x0 PUSH2 0x344 DUP5 DUP3 DUP6 ADD PUSH2 0x30B JUMP JUMPDEST SWAP2 POP POP SWAP3 SWAP2 POP POP JUMP JUMPDEST PUSH2 0x356 DUP2 PUSH2 0x2E2 JUMP JUMPDEST DUP3 MSTORE POP POP JUMP JUMPDEST PUSH1 0x0 PUSH1 0x20 DUP3 ADD SWAP1 POP PUSH2 0x371 PUSH1 0x0 DUP4 ADD DUP5 PUSH2 0x34D JUMP JUMPDEST SWAP3 SWAP2 POP POP JUMP JUMPDEST PUSH32 0x4E487B7100000000000000000000000000000000000000000000000000000000 PUSH1 0x0 MSTORE PUSH1 0x21 PUSH1 0x4 MSTORE PUSH1 0x24 PUSH1 0x0 REVERT JUMPDEST PUSH1 0x80 MLOAD PUSH2 0x39FE PUSH2 0x3DD PUSH1 0x0 CODECOPY PUSH1 0x0 DUP2 DUP2 PUSH2 0xD4D ADD MSTORE DUP2 DUP2 PUSH2 0xEFF ADD MSTORE DUP2 DUP2 PUSH2 0x117D ADD MSTORE DUP2 DUP2 PUSH2 0x1219 ADD MSTORE PUSH2 0x1B90 ADD MSTORE PUSH2 0x39FE PUSH1 0x0 RETURN INVALID PUSH1 0x80 PUSH1 0x40 MSTORE CALLVALUE DUP1 ISZERO PUSH2 0x10 JUMPI PUSH1 0x0 DUP1 REVERT JUMPDEST POP PUSH1 0x4 CALLDATASIZE LT PUSH2 0x14D JUMPI PUSH1 0x0 CALLDATALOAD PUSH1 0xE0 SHR DUP1 PUSH4 0x7547C7A3 GT PUSH2 0xC3 JUMPI DUP1 PUSH4 0xC8A8C39D GT PUSH2 0x7C JUMPI DUP1 PUSH4 0xC8A8C39D EQ PUSH2 0x3A0 JUMPI DUP1 PUSH4 0xDB2E21BC EQ PUSH2 0x3BE JUMPI DUP1 PUSH4 0xDC4A3E95 EQ PUSH2 0x3C8 JUMPI DUP1 PUSH4 0xF2FDE38B EQ PUSH2 0x3E6 JUMPI DUP1 PUSH4 0xF4B36AC4 EQ PUSH2 0x402 JUMPI DUP1 PUSH4 0xFB4D50DE EQ PUSH2 0x41E JUMPI PUSH2 0x14D JUMP JUMPDEST DUP1 PUSH4 0x7547C7A3 EQ PUSH2 0x2D7 JUMPI DUP1 PUSH4 0x79ECA240 EQ PUSH2 0x2F3 JUMPI DUP1 PUSH4 0x804C65CE EQ PUSH2 0x311 JUMPI DUP1 PUSH4 0x862E95E1 EQ PUSH2 0x32F JUMPI DUP1 PUSH4 0x8DA5CB5B EQ PUSH2 0x364 JUMPI DUP1 PUSH4 0x92434BFD EQ PUSH2 0x382 JUMPI PUSH2 0x14D JUMP JUMPDEST DUP1 PUSH4 0x4411B3EB GT PUSH2 0x115 JUMPI DUP1 PUSH4 0x4411B3EB EQ PUSH2 0x223 JUMPI DUP1 PUSH4 0x47E1D550 EQ PUSH2 0x241 JUMPI DUP1 PUSH4 0x48E837B9 EQ PUSH2 0x277 JUMPI DUP1 PUSH4 0x53170BB3 EQ PUSH2 0x293 JUMPI DUP1 PUSH4 0x68EB3EEC EQ PUSH2 0x2AF JUMPI DUP1 PUSH4 0x715018A6 EQ PUSH2 0x2CD JUMPI PUSH2 0x14D JUMP JUMPDEST DUP1 PUSH4 0x117A5B90 EQ PUSH2 0x152 JUMPI DUP1 PUSH4 0x151C9166 EQ PUSH2 0x189 JUMPI DUP1 PUSH4 0x24B4A93C EQ PUSH2 0x1A5 JUMPI DUP1 PUSH4 0x26638631 EQ PUSH2 0x1D5 JUMPI DUP1 PUSH4 0x2E0BE39A EQ PUSH2 0x205 JUMPI JUMPDEST PUSH1 0x0 DUP1 REVERT JUMPDEST PUSH2 0x16C PUSH1 0x4 DUP1 CALLDATASIZE SUB DUP2 ADD SWAP1 PUSH2 0x167 SWAP2 SWAP1 PUSH2 0x25CB JUMP JUMPDEST PUSH2 0x44E JUMP JUMPDEST PUSH1 0x40 MLOAD PUSH2 0x180 SWAP9 SWAP8 SWAP7 SWAP6 SWAP5 SWAP4 SWAP3 SWAP2 SWAP1 PUSH2 0x26BF JUMP JUMPDEST PUSH1 0x40 MLOAD DUP1 SWAP2 SUB SWAP1 RETURN JUMPDEST PUSH2 0x1A3 PUSH1 0x4 DUP1 CALLDATASIZE SUB DUP2 ADD SWAP1 PUSH2 0x19E SWAP2 SWAP1 PUSH2 0x25CB JUMP JUMPDEST PUSH2 0x4C3 JUMP JUMPDEST STOP JUMPDEST PUSH2 0x1BF PUSH1 0x4 DUP1 CALLDATASIZE SUB DUP2 ADD SWAP1 PUSH2 0x1BA SWAP2 SWAP1 PUSH2 0x2762 JUMP JUMPDEST PUSH2 0x4D5 JUMP JUMPDEST PUSH1 0x40 MLOAD PUSH2 0x1CC SWAP2 SWAP1 PUSH2 0x278F JUMP JUMPDEST PUSH1 0x40 MLOAD DUP1 SWAP2 SUB SWAP1 RETURN JUMPDEST PUSH2 0x1EF PUSH1 0x4 DUP1 CALLDATASIZE SUB DUP2 ADD SWAP1 PUSH2 0x1EA SWAP2 SWAP1 PUSH2 0x25CB JUMP JUMPDEST PUSH2 0x4ED JUMP JUMPDEST PUSH1 0x40 MLOAD PUSH2 0x1FC SWAP2 SWAP1 PUSH2 0x27AA JUMP JUMPDEST PUSH1 0x40 MLOAD DUP1 SWAP2 SUB SWAP1 RETURN JUMPDEST PUSH2 0x20D PUSH2 0x5EB JUMP JUMPDEST PUSH1 0x40 MLOAD PUSH2 0x21A SWAP2 SWAP1 PUSH2 0x278F JUMP JUMPDEST PUSH1 0x40 MLOAD DUP1 SWAP2 SUB SWAP1 RETURN JUMPDEST PUSH2 0x22B PUSH2 0x5F1 JUMP JUMPDEST PUSH1 0x40 MLOAD PUSH2 0x238 SWAP2 SWAP1 PUSH2 0x278F JUMP JUMPDEST PUSH1 0x40 MLOAD DUP1 SWAP2 SUB SWAP1 RETURN JUMPDEST PUSH2 0x25B PUSH1 0x4 DUP1 CALLDATASIZE SUB DUP2 ADD SWAP1 PUSH2 0x256 SWAP2 SWAP1 PUSH2 0x25CB JUMP JUMPDEST PUSH2 0x5F6 JUMP JUMPDEST PUSH1 0x40 MLOAD PUSH2 0x26E SWAP8 SWAP7 SWAP6 SWAP5 SWAP4 SWAP3 SWAP2 SWAP1 PUSH2 0x27C5 JUMP JUMPDEST PUSH1 0x40 MLOAD DUP1 SWAP2 SUB SWAP1 RETURN JUMPDEST PUSH2 0x291 PUSH1 0x4 DUP1 CALLDATASIZE SUB DUP2 ADD SWAP1 PUSH2 0x28C SWAP2 SWAP1 PUSH2 0x25CB JUMP JUMPDEST PUSH2 0x6D5 JUMP JUMPDEST STOP JUMPDEST PUSH2 0x2AD PUSH1 0x4 DUP1 CALLDATASIZE SUB DUP2 ADD SWAP1 PUSH2 0x2A8 SWAP2 SWAP1 PUSH2 0x2834 JUMP JUMPDEST PUSH2 0x833 JUMP JUMPDEST STOP JUMPDEST PUSH2 0x2B7 PUSH2 0xB4D JUMP JUMPDEST PUSH1 0x40 MLOAD PUSH2 0x2C4 SWAP2 SWAP1 PUSH2 0x278F JUMP JUMPDEST PUSH1 0x40 MLOAD DUP1 SWAP2 SUB SWAP1 RETURN JUMPDEST PUSH2 0x2D5 PUSH2 0xB53 JUMP JUMPDEST STOP JUMPDEST PUSH2 0x2F1 PUSH1 0x4 DUP1 CALLDATASIZE SUB DUP2 ADD SWAP1 PUSH2 0x2EC SWAP2 SWAP1 PUSH2 0x25CB JUMP JUMPDEST PUSH2 0xB67 JUMP JUMPDEST STOP JUMPDEST PUSH2 0x2FB PUSH2 0xEFD JUMP JUMPDEST PUSH1 0x40 MLOAD PUSH2 0x308 SWAP2 SWAP1 PUSH2 0x28D3 JUMP JUMPDEST PUSH1 0x40 MLOAD DUP1 SWAP2 SUB SWAP1 RETURN JUMPDEST PUSH2 0x319 PUSH2 0xF21 JUMP JUMPDEST PUSH1 0x40 MLOAD PUSH2 0x326 SWAP2 SWAP1 PUSH2 0x278F JUMP JUMPDEST PUSH1 0x40 MLOAD DUP1 SWAP2 SUB SWAP1 RETURN JUMPDEST PUSH2 0x349 PUSH1 0x4 DUP1 CALLDATASIZE SUB DUP2 ADD SWAP1 PUSH2 0x344 SWAP2 SWAP1 PUSH2 0x2834 JUMP JUMPDEST PUSH2 0xF26 JUMP JUMPDEST PUSH1 0x40 MLOAD PUSH2 0x35B SWAP7 SWAP6 SWAP5 SWAP4 SWAP3 SWAP2 SWAP1 PUSH2 0x2A8C JUMP JUMPDEST PUSH1 0x40 MLOAD DUP1 SWAP2 SUB SWAP1 RETURN JUMPDEST PUSH2 0x36C PUSH2 0x113E JUMP JUMPDEST PUSH1 0x40 MLOAD PUSH2 0x379 SWAP2 SWAP1 PUSH2 0x27AA JUMP JUMPDEST PUSH1 0x40 MLOAD DUP1 SWAP2 SUB SWAP1 RETURN JUMPDEST PUSH2 0x38A PUSH2 0x1167 JUMP JUMPDEST PUSH1 0x40 MLOAD PUSH2 0x397 SWAP2 SWAP1 PUSH2 0x278F JUMP JUMPDEST PUSH1 0x40 MLOAD DUP1 SWAP2 SUB SWAP1 RETURN JUMPDEST PUSH2 0x3A8 PUSH2 0x116C JUMP JUMPDEST PUSH1 0x40 MLOAD PUSH2 0x3B5 SWAP2 SWAP1 PUSH2 0x278F JUMP JUMPDEST PUSH1 0x40 MLOAD DUP1 SWAP2 SUB SWAP1 RETURN JUMPDEST PUSH2 0x3C6 PUSH2 0x1171 JUMP JUMPDEST STOP JUMPDEST PUSH2 0x3D0 PUSH2 0x12C0 JUMP JUMPDEST PUSH1 0x40 MLOAD PUSH2 0x3DD SWAP2 SWAP1 PUSH2 0x278F JUMP JUMPDEST PUSH1 0x40 MLOAD DUP1 SWAP2 SUB SWAP1 RETURN JUMPDEST PUSH2 0x400 PUSH1 0x4 DUP1 CALLDATASIZE SUB DUP2 ADD SWAP1 PUSH2 0x3FB SWAP2 SWAP1 PUSH2 0x2B22 JUMP JUMPDEST PUSH2 0x12C5 JUMP JUMPDEST STOP JUMPDEST PUSH2 0x41C PUSH1 0x4 DUP1 CALLDATASIZE SUB DUP2 ADD SWAP1 PUSH2 0x417 SWAP2 SWAP1 PUSH2 0x2C84 JUMP JUMPDEST PUSH2 0x134B JUMP JUMPDEST STOP JUMPDEST PUSH2 0x438 PUSH1 0x4 DUP1 CALLDATASIZE SUB DUP2 ADD SWAP1 PUSH2 0x433 SWAP2 SWAP1 PUSH2 0x2B22 JUMP JUMPDEST PUSH2 0x17C2 JUMP JUMPDEST PUSH1 0x40 MLOAD PUSH2 0x445 SWAP2 SWAP1 PUSH2 0x278F JUMP JUMPDEST PUSH1 0x40 MLOAD DUP1 SWAP2 SUB SWAP1 RETURN JUMPDEST PUSH1 0x2 PUSH1 0x20 MSTORE DUP1 PUSH1 0x0 MSTORE PUSH1 0x40 PUSH1 0x0 KECCAK256 PUSH1 0x0 SWAP2 POP SWAP1 POP DUP1 PUSH1 0x0 ADD SLOAD SWAP1 DUP1 PUSH1 0x25 ADD SLOAD SWAP1 DUP1 PUSH1 0x26 ADD SLOAD SWAP1 DUP1 PUSH1 0x27 ADD SLOAD SWAP1 DUP1 PUSH1 0x28 ADD SLOAD SWAP1 DUP1 PUSH1 0x29 ADD PUSH1 0x0 SWAP1 SLOAD SWAP1 PUSH2 0x100 EXP SWAP1 DIV PUSH1 0xFF AND SWAP1 DUP1 PUSH1 0x29 ADD PUSH1 0x1 SWAP1 SLOAD SWAP1 PUSH2 0x100 EXP SWAP1 DIV PUSH20 0xFFFFFFFFFFFFFFFFFFFFFFFFFFFFFFFFFFFFFFFF AND SWAP1 DUP1 PUSH1 0x2A ADD SLOAD SWAP1 POP DUP9 JUMP JUMPDEST PUSH2 0x4CB PUSH2 0x17DA JUMP JUMPDEST DUP1 PUSH1 0x5 DUP2 SWAP1 SSTORE POP POP JUMP JUMPDEST PUSH1 0x6 PUSH1 0x20 MSTORE DUP1 PUSH1 0x0 MSTORE PUSH1 0x40 PUSH1 0x0 KECCAK256 PUSH1 0x0 SWAP2 POP SWAP1 POP SLOAD DUP2 JUMP JUMPDEST PUSH1 0x0 DUP2 PUSH1 0x0 DUP2 GT DUP1 ISZERO PUSH2 0x502 JUMPI POP PUSH1 0x4 SLOAD DUP2 GT ISZERO JUMPDEST PUSH2 0x541 JUMPI PUSH1 0x40 MLOAD PUSH32 0x8C379A000000000000000000000000000000000000000000000000000000000 DUP2 MSTORE PUSH1 0x4 ADD PUSH2 0x538 SWAP1 PUSH2 0x2D3F JUMP JUMPDEST PUSH1 0x40 MLOAD DUP1 SWAP2 SUB SWAP1 REVERT JUMPDEST PUSH1 0x0 PUSH1 0x2 PUSH1 0x0 DUP6 DUP2 MSTORE PUSH1 0x20 ADD SWAP1 DUP2 MSTORE PUSH1 0x20 ADD PUSH1 0x0 KECCAK256 SWAP1 POP PUSH1 0x1 PUSH1 0x2 DUP2 GT ISZERO PUSH2 0x56C JUMPI PUSH2 0x56B PUSH2 0x2607 JUMP JUMPDEST JUMPDEST DUP2 PUSH1 0x29 ADD PUSH1 0x0 SWAP1 SLOAD SWAP1 PUSH2 0x100 EXP SWAP1 DIV PUSH1 0xFF AND PUSH1 0x2 DUP2 GT ISZERO PUSH2 0x590 JUMPI PUSH2 0x58F PUSH2 0x2607 JUMP JUMPDEST JUMPDEST EQ PUSH2 0x59F JUMPI PUSH1 0x0 SWAP3 POP POP PUSH2 0x5E5 JUMP JUMPDEST DUP1 PUSH1 0x1 ADD DUP2 PUSH1 0x26 ADD SLOAD PUSH1 0x4 DUP2 LT PUSH2 0x5B9 JUMPI PUSH2 0x5B8 PUSH2 0x2D5F JUMP JUMPDEST JUMPDEST PUSH1 0x9 MUL ADD PUSH1 0x0 ADD PUSH1 0x0 SWAP1 SLOAD SWAP1 PUSH2 0x100 EXP SWAP1 DIV PUSH20 0xFFFFFFFFFFFFFFFFFFFFFFFFFFFFFFFFFFFFFFFF AND SWAP3 POP POP JUMPDEST POP SWAP2 SWAP1 POP JUMP JUMPDEST PUSH1 0x4 SLOAD DUP2 JUMP JUMPDEST PUSH1 0x4 DUP2 JUMP JUMPDEST PUSH1 0x0 DUP1 PUSH1 0x0 DUP1 PUSH1 0x0 DUP1 PUSH1 0x0 DUP8 PUSH1 0x0 DUP2 GT DUP1 ISZERO PUSH2 0x614 JUMPI POP PUSH1 0x4 SLOAD DUP2 GT ISZERO JUMPDEST PUSH2 0x653 JUMPI PUSH1 0x40 MLOAD PUSH32 0x8C379A000000000000000000000000000000000000000000000000000000000 DUP2 MSTORE PUSH1 0x4 ADD PUSH2 0x64A SWAP1 PUSH2 0x2D3F JUMP JUMPDEST PUSH1 0x40 MLOAD DUP1 SWAP2 SUB SWAP1 REVERT JUMPDEST PUSH1 0x0 PUSH1 0x2 PUSH1 0x0 DUP12 DUP2 MSTORE PUSH1 0x20 ADD SWAP1 DUP2 MSTORE PUSH1 0x20 ADD PUSH1 0x0 KECCAK256 SWAP1 POP DUP1 PUSH1 0x0 ADD SLOAD DUP2 PUSH1 0x25 ADD SLOAD DUP3 PUSH1 0x27 ADD SLOAD DUP4 PUSH1 0x28 ADD SLOAD DUP5 PUSH1 0x29 ADD PUSH1 0x0 SWAP1 SLOAD SWAP1 PUSH2 0x100 EXP SWAP1 DIV PUSH1 0xFF AND DUP6 PUSH1 0x29 ADD PUSH1 0x1 SWAP1 SLOAD SWAP1 PUSH2 0x100 EXP SWAP1 DIV PUSH20 0xFFFFFFFFFFFFFFFFFFFFFFFFFFFFFFFFFFFFFFFF AND DUP7 PUSH1 0x26 ADD SLOAD SWAP9 POP SWAP9 POP SWAP9 POP SWAP9 POP SWAP9 POP SWAP9 POP SWAP9 POP POP POP SWAP2 SWAP4 SWAP6 SWAP8 SWAP1 SWAP3 SWAP5 SWAP7 POP JUMP JUMPDEST PUSH1 0x0 DUP2 GT PUSH2 0x718 JUMPI PUSH1 0x40 MLOAD PUSH32 0x8C379A000000000000000000000000000000000000000000000000000000000 DUP2 MSTORE PUSH1 0x4 ADD PUSH2 0x70F SWAP1 PUSH2 0x2E00 JUMP JUMPDEST PUSH1 0x40 MLOAD DUP1 SWAP2 SUB SWAP1 REVERT JUMPDEST PUSH1 0x4 PUSH1 0x0 DUP2 SLOAD DUP1 SWAP3 SWAP2 SWAP1 PUSH2 0x72B SWAP1 PUSH2 0x2E4F JUMP JUMPDEST SWAP2 SWAP1 POP SSTORE POP PUSH1 0x0 PUSH1 0x2 PUSH1 0x0 PUSH1 0x4 SLOAD DUP2 MSTORE PUSH1 0x20 ADD SWAP1 DUP2 MSTORE PUSH1 0x20 ADD PUSH1 0x0 KECCAK256 SWAP1 POP PUSH1 0x4 SLOAD DUP2 PUSH1 0x0 ADD DUP2 SWAP1 SSTORE POP DUP2 DUP2 PUSH1 0x27 ADD DUP2 SWAP1 SSTORE POP PUSH1 0x0 DUP2 PUSH1 0x29 ADD PUSH1 0x0 PUSH2 0x100 EXP DUP2 SLOAD DUP2 PUSH1 0xFF MUL NOT AND SWAP1 DUP4 PUSH1 0x2 DUP2 GT ISZERO PUSH2 0x785 JUMPI PUSH2 0x784 PUSH2 0x2607 JUMP JUMPDEST JUMPDEST MUL OR SWAP1 SSTORE POP TIMESTAMP DUP2 PUSH1 0x2A ADD DUP2 SWAP1 SSTORE POP PUSH1 0x4 PUSH8 0xFFFFFFFFFFFFFFFF DUP2 GT ISZERO PUSH2 0x7AE JUMPI PUSH2 0x7AD PUSH2 0x2B59 JUMP JUMPDEST JUMPDEST PUSH1 0x40 MLOAD SWAP1 DUP1 DUP3 MSTORE DUP1 PUSH1 0x20 MUL PUSH1 0x20 ADD DUP3 ADD PUSH1 0x40 MSTORE DUP1 ISZERO PUSH2 0x7DC JUMPI DUP2 PUSH1 0x20 ADD PUSH1 0x20 DUP3 MUL DUP1 CALLDATASIZE DUP4 CALLDATACOPY DUP1 DUP3 ADD SWAP2 POP POP SWAP1 POP JUMPDEST POP DUP2 PUSH1 0x2B ADD SWAP1 DUP1 MLOAD SWAP1 PUSH1 0x20 ADD SWAP1 PUSH2 0x7F4 SWAP3 SWAP2 SWAP1 PUSH2 0x249C JUMP JUMPDEST POP PUSH1 0x4 SLOAD PUSH32 0xA26856D25E558C79E1632806BC6824075CF59885A115825F2AAB62385A3F7142 DUP4 PUSH1 0x40 MLOAD PUSH2 0x827 SWAP2 SWAP1 PUSH2 0x278F JUMP JUMPDEST PUSH1 0x40 MLOAD DUP1 SWAP2 SUB SWAP1 LOG2 POP POP JUMP JUMPDEST DUP2 PUSH1 0x0 DUP2 GT DUP1 ISZERO PUSH2 0x846 JUMPI POP PUSH1 0x4 SLOAD DUP2 GT ISZERO JUMPDEST PUSH2 0x885 JUMPI PUSH1 0x40 MLOAD PUSH32 0x8C379A000000000000000000000000000000000000000000000000000000000 DUP2 MSTORE PUSH1 0x4 ADD PUSH2 0x87C SWAP1 PUSH2 0x2D3F JUMP JUMPDEST PUSH1 0x40 MLOAD DUP1 SWAP2 SUB SWAP1 REVERT JUMPDEST DUP3 PUSH1 0x1 PUSH1 0x2 DUP2 GT ISZERO PUSH2 0x89A JUMPI PUSH2 0x899 PUSH2 0x2607 JUMP JUMPDEST JUMPDEST PUSH1 0x2 PUSH1 0x0 DUP4 DUP2 MSTORE PUSH1 0x20 ADD SWAP1 DUP2 MSTORE PUSH1 0x20 ADD PUSH1 0x0 KECCAK256 PUSH1 0x29 ADD PUSH1 0x0 SWAP1 SLOAD SWAP1 PUSH2 0x100 EXP SWAP1 DIV PUSH1 0xFF AND PUSH1 0x2 DUP2 GT ISZERO PUSH2 0x8D0 JUMPI PUSH2 0x8CF PUSH2 0x2607 JUMP JUMPDEST JUMPDEST EQ PUSH2 0x910 JUMPI PUSH1 0x40 MLOAD PUSH32 0x8C379A000000000000000000000000000000000000000000000000000000000 DUP2 MSTORE PUSH1 0x4 ADD PUSH2 0x907 SWAP1 PUSH2 0x2EE3 JUMP JUMPDEST PUSH1 0x40 MLOAD DUP1 SWAP2 SUB SWAP1 REVERT JUMPDEST DUP4 DUP1 PUSH1 0x3 PUSH1 0x0 CALLER PUSH20 0xFFFFFFFFFFFFFFFFFFFFFFFFFFFFFFFFFFFFFFFF AND PUSH20 0xFFFFFFFFFFFFFFFFFFFFFFFFFFFFFFFFFFFFFFFF AND DUP2 MSTORE PUSH1 0x20 ADD SWAP1 DUP2 MSTORE PUSH1 0x20 ADD PUSH1 0x0 KECCAK256 SLOAD EQ PUSH2 0x992 JUMPI PUSH1 0x40 MLOAD PUSH32 0x8C379A000000000000000000000000000000000000000000000000000000000 DUP2 MSTORE PUSH1 0x4 ADD PUSH2 0x989 SWAP1 PUSH2 0x2F4F JUMP JUMPDEST PUSH1 0x40 MLOAD DUP1 SWAP2 SUB SWAP1 REVERT JUMPDEST DUP5 PUSH1 0x0 PUSH1 0x2 PUSH1 0x0 DUP4 DUP2 MSTORE PUSH1 0x20 ADD SWAP1 DUP2 MSTORE PUSH1 0x20 ADD PUSH1 0x0 KECCAK256 SWAP1 POP CALLER PUSH20 0xFFFFFFFFFFFFFFFFFFFFFFFFFFFFFFFFFFFFFFFF AND DUP2 PUSH1 0x1 ADD DUP3 PUSH1 0x26 ADD SLOAD PUSH1 0x4 DUP2 LT PUSH2 0x9DB JUMPI PUSH2 0x9DA PUSH2 0x2D5F JUMP JUMPDEST JUMPDEST PUSH1 0x9 MUL ADD PUSH1 0x0 ADD PUSH1 0x0 SWAP1 SLOAD SWAP1 PUSH2 0x100 EXP SWAP1 DIV PUSH20 0xFFFFFFFFFFFFFFFFFFFFFFFFFFFFFFFFFFFFFFFF AND PUSH20 0xFFFFFFFFFFFFFFFFFFFFFFFFFFFFFFFFFFFFFFFF AND EQ PUSH2 0xA59 JUMPI PUSH1 0x40 MLOAD PUSH32 0x8C379A000000000000000000000000000000000000000000000000000000000 DUP2 MSTORE PUSH1 0x4 ADD PUSH2 0xA50 SWAP1 PUSH2 0x2FBB JUMP JUMPDEST PUSH1 0x40 MLOAD DUP1 SWAP2 SUB SWAP1 REVERT JUMPDEST PUSH1 0x4 DUP7 LT PUSH2 0xA9C JUMPI PUSH1 0x40 MLOAD PUSH32 0x8C379A000000000000000000000000000000000000000000000000000000000 DUP2 MSTORE PUSH1 0x4 ADD PUSH2 0xA93 SWAP1 PUSH2 0x3027 JUMP JUMPDEST PUSH1 0x40 MLOAD DUP1 SWAP2 SUB SWAP1 REVERT JUMPDEST PUSH1 0x0 PUSH2 0xAA6 PUSH2 0x1861 JUMP JUMPDEST SWAP1 POP CALLER PUSH20 0xFFFFFFFFFFFFFFFFFFFFFFFFFFFFFFFFFFFFFFFF AND DUP9 PUSH32 0xD2E5B7E86E0119AECAC590CE5166E6C1B96B0D9B0A3E648C0CA46C90BDD587BA DUP4 PUSH1 0x40 MLOAD PUSH2 0xAEF SWAP2 SWAP1 PUSH2 0x278F JUMP JUMPDEST PUSH1 0x40 MLOAD DUP1 SWAP2 SUB SWAP1 LOG3 PUSH1 0x0 PUSH2 0xB04 DUP10 DUP10 DUP5 PUSH2 0x18B7 JUMP JUMPDEST SWAP1 POP PUSH2 0xB0F DUP10 PUSH2 0x19FE JUMP JUMPDEST ISZERO PUSH2 0xB24 JUMPI PUSH2 0xB1D DUP10 PUSH2 0x1A8A JUMP JUMPDEST POP POP PUSH2 0xB44 JUMP JUMPDEST PUSH1 0x6 DUP3 EQ ISZERO DUP1 ISZERO PUSH2 0xB32 JUMPI POP DUP1 JUMPDEST ISZERO PUSH2 0xB41 JUMPI PUSH2 0xB40 DUP10 PUSH2 0x1D6F JUMP JUMPDEST JUMPDEST POP POP JUMPDEST POP POP POP POP POP POP POP JUMP JUMPDEST PUSH1 0x5 SLOAD DUP2 JUMP JUMPDEST PUSH2 0xB5B PUSH2 0x17DA JUMP JUMPDEST PUSH2 0xB65 PUSH1 0x0 PUSH2 0x1DB2 JUMP JUMPDEST JUMP JUMPDEST DUP1 PUSH1 0x0 DUP2 GT DUP1 ISZERO PUSH2 0xB7A JUMPI POP PUSH1 0x4 SLOAD DUP2 GT ISZERO JUMPDEST PUSH2 0xBB9 JUMPI PUSH1 0x40 MLOAD PUSH32 0x8C379A000000000000000000000000000000000000000000000000000000000 DUP2 MSTORE PUSH1 0x4 ADD PUSH2 0xBB0 SWAP1 PUSH2 0x2D3F JUMP JUMPDEST PUSH1 0x40 MLOAD DUP1 SWAP2 SUB SWAP1 REVERT JUMPDEST DUP2 DUP1 PUSH1 0x3 PUSH1 0x0 CALLER PUSH20 0xFFFFFFFFFFFFFFFFFFFFFFFFFFFFFFFFFFFFFFFF AND PUSH20 0xFFFFFFFFFFFFFFFFFFFFFFFFFFFFFFFFFFFFFFFF AND DUP2 MSTORE PUSH1 0x20 ADD SWAP1 DUP2 MSTORE PUSH1 0x20 ADD PUSH1 0x0 KECCAK256 SLOAD EQ PUSH2 0xC3B JUMPI PUSH1 0x40 MLOAD PUSH32 0x8C379A000000000000000000000000000000000000000000000000000000000 DUP2 MSTORE PUSH1 0x4 ADD PUSH2 0xC32 SWAP1 PUSH2 0x2F4F JUMP JUMPDEST PUSH1 0x40 MLOAD DUP1 SWAP2 SUB SWAP1 REVERT JUMPDEST PUSH2 0xC43 PUSH2 0x1E76 JUMP JUMPDEST PUSH1 0x0 PUSH1 0x2 PUSH1 0x0 DUP6 DUP2 MSTORE PUSH1 0x20 ADD SWAP1 DUP2 MSTORE PUSH1 0x20 ADD PUSH1 0x0 KECCAK256 SWAP1 POP PUSH1 0x0 PUSH1 0x2 DUP2 GT ISZERO PUSH2 0xC6E JUMPI PUSH2 0xC6D PUSH2 0x2607 JUMP JUMPDEST JUMPDEST DUP2 PUSH1 0x29 ADD PUSH1 0x0 SWAP1 SLOAD SWAP1 PUSH2 0x100 EXP SWAP1 DIV PUSH1 0xFF AND PUSH1 0x2 DUP2 GT ISZERO PUSH2 0xC92 JUMPI PUSH2 0xC91 PUSH2 0x2607 JUMP JUMPDEST JUMPDEST EQ PUSH2 0xCD2 JUMPI PUSH1 0x40 MLOAD PUSH32 0x8C379A000000000000000000000000000000000000000000000000000000000 DUP2 MSTORE PUSH1 0x4 ADD PUSH2 0xCC9 SWAP1 PUSH2 0x3093 JUMP JUMPDEST PUSH1 0x40 MLOAD DUP1 SWAP2 SUB SWAP1 REVERT JUMPDEST PUSH1 0x0 PUSH2 0xCDE DUP6 CALLER PUSH2 0x1EBC JUMP JUMPDEST SWAP1 POP DUP2 PUSH1 0x1 ADD DUP2 PUSH1 0x4 DUP2 LT PUSH2 0xCF6 JUMPI PUSH2 0xCF5 PUSH2 0x2D5F JUMP JUMPDEST JUMPDEST PUSH1 0x9 MUL ADD PUSH1 0x8 ADD PUSH1 0x1 SWAP1 SLOAD SWAP1 PUSH2 0x100 EXP SWAP1 DIV PUSH1 0xFF AND ISZERO PUSH2 0xD4B JUMPI PUSH1 0x40 MLOAD PUSH32 0x8C379A000000000000000000000000000000000000000000000000000000000 DUP2 MSTORE PUSH1 0x4 ADD PUSH2 0xD42 SWAP1 PUSH2 0x30FF JUMP JUMPDEST PUSH1 0x40 MLOAD DUP1 SWAP2 SUB SWAP1 REVERT JUMPDEST PUSH32 0x0 PUSH20 0xFFFFFFFFFFFFFFFFFFFFFFFFFFFFFFFFFFFFFFFF AND PUSH4 0x23B872DD CALLER ADDRESS DUP6 PUSH1 0x27 ADD SLOAD PUSH1 0x40 MLOAD DUP5 PUSH4 0xFFFFFFFF AND PUSH1 0xE0 SHL DUP2 MSTORE PUSH1 0x4 ADD PUSH2 0xDAC SWAP4 SWAP3 SWAP2 SWAP1 PUSH2 0x311F JUMP JUMPDEST PUSH1 0x20 PUSH1 0x40 MLOAD DUP1 DUP4 SUB DUP2 PUSH1 0x0 DUP8 GAS CALL ISZERO DUP1 ISZERO PUSH2 0xDCB JUMPI RETURNDATASIZE PUSH1 0x0 DUP1 RETURNDATACOPY RETURNDATASIZE PUSH1 0x0 REVERT JUMPDEST POP POP POP POP PUSH1 0x40 MLOAD RETURNDATASIZE PUSH1 0x1F NOT PUSH1 0x1F DUP3 ADD AND DUP3 ADD DUP1 PUSH1 0x40 MSTORE POP DUP2 ADD SWAP1 PUSH2 0xDEF SWAP2 SWAP1 PUSH2 0x3182 JUMP JUMPDEST PUSH2 0xE2E JUMPI PUSH1 0x40 MLOAD PUSH32 0x8C379A000000000000000000000000000000000000000000000000000000000 DUP2 MSTORE PUSH1 0x4 ADD PUSH2 0xE25 SWAP1 PUSH2 0x31FB JUMP JUMPDEST PUSH1 0x40 MLOAD DUP1 SWAP2 SUB SWAP1 REVERT JUMPDEST PUSH1 0x1 DUP3 PUSH1 0x1 ADD DUP3 PUSH1 0x4 DUP2 LT PUSH2 0xE46 JUMPI PUSH2 0xE45 PUSH2 0x2D5F JUMP JUMPDEST JUMPDEST PUSH1 0x9 MUL ADD PUSH1 0x8 ADD PUSH1 0x1 PUSH2 0x100 EXP DUP2 SLOAD DUP2 PUSH1 0xFF MUL NOT AND SWAP1 DUP4 ISZERO ISZERO MUL OR SWAP1 SSTORE POP DUP2 PUSH1 0x27 ADD SLOAD DUP3 PUSH1 0x28 ADD PUSH1 0x0 DUP3 DUP3 SLOAD PUSH2 0xE7C SWAP2 SWAP1 PUSH2 0x321B JUMP JUMPDEST SWAP3 POP POP DUP2 SWAP1 SSTORE POP CALLER PUSH20 0xFFFFFFFFFFFFFFFFFFFFFFFFFFFFFFFFFFFFFFFF AND DUP6 PUSH32 0xAD9C14BB299924761435331FDD9F48EEA04EF05C05F8E1D78B12B8DF809C073D DUP5 PUSH1 0x27 ADD SLOAD PUSH1 0x40 MLOAD PUSH2 0xECE SWAP2 SWAP1 PUSH2 0x278F JUMP JUMPDEST PUSH1 0x40 MLOAD DUP1 SWAP2 SUB SWAP1 LOG3 PUSH2 0xEDF DUP6 PUSH2 0x1FAC JUMP JUMPDEST ISZERO PUSH2 0xEEE JUMPI PUSH2 0xEED DUP6 PUSH2 0x2026 JUMP JUMPDEST JUMPDEST POP POP PUSH2 0xEF8 PUSH2 0x20A5 JUMP JUMPDEST POP POP POP JUMP JUMPDEST PUSH32 0x0 DUP2 JUMP JUMPDEST PUSH1 0x6 DUP2 JUMP JUMPDEST PUSH1 0x0 PUSH1 0x60 PUSH1 0x0 DUP1 PUSH2 0xF35 PUSH2 0x2542 JUMP JUMPDEST PUSH1 0x0 DUP8 PUSH1 0x0 DUP2 GT DUP1 ISZERO PUSH2 0xF4A JUMPI POP PUSH1 0x4 SLOAD DUP2 GT ISZERO JUMPDEST PUSH2 0xF89 JUMPI PUSH1 0x40 MLOAD PUSH32 0x8C379A000000000000000000000000000000000000000000000000000000000 DUP2 MSTORE PUSH1 0x4 ADD PUSH2 0xF80 SWAP1 PUSH2 0x2D3F JUMP JUMPDEST PUSH1 0x40 MLOAD DUP1 SWAP2 SUB SWAP1 REVERT JUMPDEST PUSH1 0x0 PUSH1 0x2 PUSH1 0x0 DUP12 DUP2 MSTORE PUSH1 0x20 ADD SWAP1 DUP2 MSTORE PUSH1 0x20 ADD PUSH1 0x0 KECCAK256 SWAP1 POP DUP1 PUSH1 0x25 ADD SLOAD DUP10 LT PUSH2 0xFE6 JUMPI PUSH1 0x40 MLOAD PUSH32 0x8C379A000000000000000000000000000000000000000000000000000000000 DUP2 MSTORE PUSH1 0x4 ADD PUSH2 0xFDD SWAP1 PUSH2 0x329B JUMP JUMPDEST PUSH1 0x40 MLOAD DUP1 SWAP2 SUB SWAP1 REVERT JUMPDEST PUSH1 0x0 DUP2 PUSH1 0x1 ADD DUP11 PUSH1 0x4 DUP2 LT PUSH2 0xFFE JUMPI PUSH2 0xFFD PUSH2 0x2D5F JUMP JUMPDEST JUMPDEST PUSH1 0x9 MUL ADD SWAP1 POP DUP1 PUSH1 0x0 ADD PUSH1 0x0 SWAP1 SLOAD SWAP1 PUSH2 0x100 EXP SWAP1 DIV PUSH20 0xFFFFFFFFFFFFFFFFFFFFFFFFFFFFFFFFFFFFFFFF AND DUP2 PUSH1 0x1 ADD DUP3 PUSH1 0x2 ADD PUSH1 0x0 SWAP1 SLOAD SWAP1 PUSH2 0x100 EXP SWAP1 DIV PUSH1 0xFF AND DUP4 PUSH1 0x3 ADD SLOAD DUP5 PUSH1 0x4 ADD DUP6 PUSH1 0x8 ADD PUSH1 0x1 SWAP1 SLOAD SWAP1 PUSH2 0x100 EXP SWAP1 DIV PUSH1 0xFF AND DUP5 DUP1 SLOAD PUSH2 0x1066 SWAP1 PUSH2 0x32EA JUMP JUMPDEST DUP1 PUSH1 0x1F ADD PUSH1 0x20 DUP1 SWAP2 DIV MUL PUSH1 0x20 ADD PUSH1 0x40 MLOAD SWAP1 DUP2 ADD PUSH1 0x40 MSTORE DUP1 SWAP3 SWAP2 SWAP1 DUP2 DUP2 MSTORE PUSH1 0x20 ADD DUP3 DUP1 SLOAD PUSH2 0x1092 SWAP1 PUSH2 0x32EA JUMP JUMPDEST DUP1 ISZERO PUSH2 0x10DF JUMPI DUP1 PUSH1 0x1F LT PUSH2 0x10B4 JUMPI PUSH2 0x100 DUP1 DUP4 SLOAD DIV MUL DUP4 MSTORE SWAP2 PUSH1 0x20 ADD SWAP2 PUSH2 0x10DF JUMP JUMPDEST DUP3 ADD SWAP2 SWAP1 PUSH1 0x0 MSTORE PUSH1 0x20 PUSH1 0x0 KECCAK256 SWAP1 JUMPDEST DUP2 SLOAD DUP2 MSTORE SWAP1 PUSH1 0x1 ADD SWAP1 PUSH1 0x20 ADD DUP1 DUP4 GT PUSH2 0x10C2 JUMPI DUP3 SWAP1 SUB PUSH1 0x1F AND DUP3 ADD SWAP2 JUMPDEST POP POP POP POP POP SWAP5 POP DUP2 PUSH1 0x4 DUP1 PUSH1 0x20 MUL PUSH1 0x40 MLOAD SWAP1 DUP2 ADD PUSH1 0x40 MSTORE DUP1 SWAP3 SWAP2 SWAP1 DUP3 PUSH1 0x4 DUP1 ISZERO PUSH2 0x111E JUMPI PUSH1 0x20 MUL DUP3 ADD SWAP2 JUMPDEST DUP2 SLOAD DUP2 MSTORE PUSH1 0x20 ADD SWAP1 PUSH1 0x1 ADD SWAP1 DUP1 DUP4 GT PUSH2 0x110A JUMPI JUMPDEST POP POP POP POP POP SWAP2 POP SWAP9 POP SWAP9 POP SWAP9 POP SWAP9 POP SWAP9 POP SWAP9 POP POP POP POP SWAP3 SWAP6 POP SWAP3 SWAP6 POP SWAP3 SWAP6 JUMP JUMPDEST PUSH1 0x0 DUP1 PUSH1 0x0 SWAP1 SLOAD SWAP1 PUSH2 0x100 EXP SWAP1 DIV PUSH20 0xFFFFFFFFFFFFFFFFFFFFFFFFFFFFFFFFFFFFFFFF AND SWAP1 POP SWAP1 JUMP JUMPDEST PUSH1 0x4 DUP2 JUMP JUMPDEST PUSH1 0x39 DUP2 JUMP JUMPDEST PUSH2 0x1179 PUSH2 0x17DA JUMP JUMPDEST PUSH1 0x0 PUSH32 0x0 PUSH20 0xFFFFFFFFFFFFFFFFFFFFFFFFFFFFFFFFFFFFFFFF AND PUSH4 0x70A08231 ADDRESS PUSH1 0x40 MLOAD DUP3 PUSH4 0xFFFFFFFF AND PUSH1 0xE0 SHL DUP2 MSTORE PUSH1 0x4 ADD PUSH2 0x11D4 SWAP2 SWAP1 PUSH2 0x27AA JUMP JUMPDEST PUSH1 0x20 PUSH1 0x40 MLOAD DUP1 DUP4 SUB DUP2 DUP7 GAS STATICCALL ISZERO DUP1 ISZERO PUSH2 0x11F1 JUMPI RETURNDATASIZE PUSH1 0x0 DUP1 RETURNDATACOPY RETURNDATASIZE PUSH1 0x0 REVERT JUMPDEST POP POP POP POP PUSH1 0x40 MLOAD RETURNDATASIZE PUSH1 0x1F NOT PUSH1 0x1F DUP3 ADD AND DUP3 ADD DUP1 PUSH1 0x40 MSTORE POP DUP2 ADD SWAP1 PUSH2 0x1215 SWAP2 SWAP1 PUSH2 0x3330 JUMP JUMPDEST SWAP1 POP PUSH32 0x0 PUSH20 0xFFFFFFFFFFFFFFFFFFFFFFFFFFFFFFFFFFFFFFFF AND PUSH4 0xA9059CBB PUSH2 0x125B PUSH2 0x113E JUMP JUMPDEST DUP4 PUSH1 0x40 MLOAD DUP4 PUSH4 0xFFFFFFFF AND PUSH1 0xE0 SHL DUP2 MSTORE PUSH1 0x4 ADD PUSH2 0x1279 SWAP3 SWAP2 SWAP1 PUSH2 0x335D JUMP JUMPDEST PUSH1 0x20 PUSH1 0x40 MLOAD DUP1 DUP4 SUB DUP2 PUSH1 0x0 DUP8 GAS CALL ISZERO DUP1 ISZERO PUSH2 0x1298 JUMPI RETURNDATASIZE PUSH1 0x0 DUP1 RETURNDATACOPY RETURNDATASIZE PUSH1 0x0 REVERT JUMPDEST POP POP POP POP PUSH1 0x40 MLOAD RETURNDATASIZE PUSH1 0x1F NOT PUSH1 0x1F DUP3 ADD AND DUP3 ADD DUP1 PUSH1 0x40 MSTORE POP DUP2 ADD SWAP1 PUSH2 0x12BC SWAP2 SWAP1 PUSH2 0x3182 JUMP JUMPDEST POP POP JUMP JUMPDEST PUSH1 0x34 DUP2 JUMP JUMPDEST PUSH2 0x12CD PUSH2 0x17DA JUMP JUMPDEST PUSH1 0x0 PUSH20 0xFFFFFFFFFFFFFFFFFFFFFFFFFFFFFFFFFFFFFFFF AND DUP2 PUSH20 0xFFFFFFFFFFFFFFFFFFFFFFFFFFFFFFFFFFFFFFFF AND SUB PUSH2 0x133F JUMPI PUSH1 0x0 PUSH1 0x40 MLOAD PUSH32 0x1E4FBDF700000000000000000000000000000000000000000000000000000000 DUP2 MSTORE PUSH1 0x4 ADD PUSH2 0x1336 SWAP2 SWAP1 PUSH2 0x27AA JUMP JUMPDEST PUSH1 0x40 MLOAD DUP1 SWAP2 SUB SWAP1 REVERT JUMPDEST PUSH2 0x1348 DUP2 PUSH2 0x1DB2 JUMP JUMPDEST POP JUMP JUMPDEST DUP3 PUSH1 0x0 DUP2 GT DUP1 ISZERO PUSH2 0x135E JUMPI POP PUSH1 0x4 SLOAD DUP2 GT ISZERO JUMPDEST PUSH2 0x139D JUMPI PUSH1 0x40 MLOAD PUSH32 0x8C379A000000000000000000000000000000000000000000000000000000000 DUP2 MSTORE PUSH1 0x4 ADD PUSH2 0x1394 SWAP1 PUSH2 0x2D3F JUMP JUMPDEST PUSH1 0x40 MLOAD DUP1 SWAP2 SUB SWAP1 REVERT JUMPDEST PUSH1 0x0 PUSH1 0x2 PUSH1 0x0 DUP7 DUP2 MSTORE PUSH1 0x20 ADD SWAP1 DUP2 MSTORE PUSH1 0x20 ADD PUSH1 0x0 KECCAK256 SWAP1 POP PUSH1 0x0 PUSH1 0x2 DUP2 GT ISZERO PUSH2 0x13C8 JUMPI PUSH2 0x13C7 PUSH2 0x2607 JUMP JUMPDEST JUMPDEST DUP2 PUSH1 0x29 ADD PUSH1 0x0 SWAP1 SLOAD SWAP1 PUSH2 0x100 EXP SWAP1 DIV PUSH1 0xFF AND PUSH1 0x2 DUP2 GT ISZERO PUSH2 0x13EC JUMPI PUSH2 0x13EB PUSH2 0x2607 JUMP JUMPDEST JUMPDEST EQ PUSH2 0x142C JUMPI PUSH1 0x40 MLOAD PUSH32 0x8C379A000000000000000000000000000000000000000000000000000000000 DUP2 MSTORE PUSH1 0x4 ADD PUSH2 0x1423 SWAP1 PUSH2 0x3093 JUMP JUMPDEST PUSH1 0x40 MLOAD DUP1 SWAP2 SUB SWAP1 REVERT JUMPDEST PUSH1 0x4 DUP2 PUSH1 0x25 ADD SLOAD LT PUSH2 0x1473 JUMPI PUSH1 0x40 MLOAD PUSH32 0x8C379A000000000000000000000000000000000000000000000000000000000 DUP2 MSTORE PUSH1 0x4 ADD PUSH2 0x146A SWAP1 PUSH2 0x33D2 JUMP JUMPDEST PUSH1 0x40 MLOAD DUP1 SWAP2 SUB SWAP1 REVERT JUMPDEST DUP1 PUSH1 0x2B ADD DUP4 PUSH1 0x3 DUP2 GT ISZERO PUSH2 0x148A JUMPI PUSH2 0x1489 PUSH2 0x2607 JUMP JUMPDEST JUMPDEST DUP2 SLOAD DUP2 LT PUSH2 0x149B JUMPI PUSH2 0x149A PUSH2 0x2D5F JUMP JUMPDEST JUMPDEST SWAP1 PUSH1 0x0 MSTORE PUSH1 0x20 PUSH1 0x0 KECCAK256 SWAP1 PUSH1 0x20 SWAP2 DUP3 DUP3 DIV ADD SWAP2 SWAP1 MOD SWAP1 SLOAD SWAP1 PUSH2 0x100 EXP SWAP1 DIV PUSH1 0xFF AND ISZERO PUSH2 0x14FB JUMPI PUSH1 0x40 MLOAD PUSH32 0x8C379A000000000000000000000000000000000000000000000000000000000 DUP2 MSTORE PUSH1 0x4 ADD PUSH2 0x14F2 SWAP1 PUSH2 0x343E JUMP JUMPDEST PUSH1 0x40 MLOAD DUP1 SWAP2 SUB SWAP1 REVERT JUMPDEST PUSH1 0x0 PUSH1 0x3 PUSH1 0x0 CALLER PUSH20 0xFFFFFFFFFFFFFFFFFFFFFFFFFFFFFFFFFFFFFFFF AND PUSH20 0xFFFFFFFFFFFFFFFFFFFFFFFFFFFFFFFFFFFFFFFF AND DUP2 MSTORE PUSH1 0x20 ADD SWAP1 DUP2 MSTORE PUSH1 0x20 ADD PUSH1 0x0 KECCAK256 SLOAD EQ PUSH2 0x157D JUMPI PUSH1 0x40 MLOAD PUSH32 0x8C379A000000000000000000000000000000000000000000000000000000000 DUP2 MSTORE PUSH1 0x4 ADD PUSH2 0x1574 SWAP1 PUSH2 0x34AA JUMP JUMPDEST PUSH1 0x40 MLOAD DUP1 SWAP2 SUB SWAP1 REVERT JUMPDEST PUSH1 0x0 DUP5 MLOAD GT PUSH2 0x15C1 JUMPI PUSH1 0x40 MLOAD PUSH32 0x8C379A000000000000000000000000000000000000000000000000000000000 DUP2 MSTORE PUSH1 0x4 ADD PUSH2 0x15B8 SWAP1 PUSH2 0x3516 JUMP JUMPDEST PUSH1 0x40 MLOAD DUP1 SWAP2 SUB SWAP1 REVERT JUMPDEST PUSH1 0x0 DUP2 PUSH1 0x1 ADD DUP3 PUSH1 0x25 ADD SLOAD PUSH1 0x4 DUP2 LT PUSH2 0x15DD JUMPI PUSH2 0x15DC PUSH2 0x2D5F JUMP JUMPDEST JUMPDEST PUSH1 0x9 MUL ADD SWAP1 POP CALLER DUP2 PUSH1 0x0 ADD PUSH1 0x0 PUSH2 0x100 EXP DUP2 SLOAD DUP2 PUSH20 0xFFFFFFFFFFFFFFFFFFFFFFFFFFFFFFFFFFFFFFFF MUL NOT AND SWAP1 DUP4 PUSH20 0xFFFFFFFFFFFFFFFFFFFFFFFFFFFFFFFFFFFFFFFF AND MUL OR SWAP1 SSTORE POP DUP5 DUP2 PUSH1 0x1 ADD SWAP1 DUP2 PUSH2 0x1637 SWAP2 SWAP1 PUSH2 0x36D8 JUMP JUMPDEST POP DUP4 DUP2 PUSH1 0x2 ADD PUSH1 0x0 PUSH2 0x100 EXP DUP2 SLOAD DUP2 PUSH1 0xFF MUL NOT AND SWAP1 DUP4 PUSH1 0x3 DUP2 GT ISZERO PUSH2 0x165F JUMPI PUSH2 0x165E PUSH2 0x2607 JUMP JUMPDEST JUMPDEST MUL OR SWAP1 SSTORE POP PUSH1 0x1 DUP2 PUSH1 0x8 ADD PUSH1 0x0 PUSH2 0x100 EXP DUP2 SLOAD DUP2 PUSH1 0xFF MUL NOT AND SWAP1 DUP4 ISZERO ISZERO MUL OR SWAP1 SSTORE POP PUSH1 0x0 JUMPDEST PUSH1 0x4 DUP2 LT ISZERO PUSH2 0x16B7 JUMPI PUSH1 0x0 DUP3 PUSH1 0x4 ADD DUP3 PUSH1 0x4 DUP2 LT PUSH2 0x16A5 JUMPI PUSH2 0x16A4 PUSH2 0x2D5F JUMP JUMPDEST JUMPDEST ADD DUP2 SWAP1 SSTORE POP DUP1 DUP1 PUSH1 0x1 ADD SWAP2 POP POP PUSH2 0x1684 JUMP JUMPDEST POP PUSH1 0x1 DUP3 PUSH1 0x2B ADD DUP6 PUSH1 0x3 DUP2 GT ISZERO PUSH2 0x16D1 JUMPI PUSH2 0x16D0 PUSH2 0x2607 JUMP JUMPDEST JUMPDEST DUP2 SLOAD DUP2 LT PUSH2 0x16E2 JUMPI PUSH2 0x16E1 PUSH2 0x2D5F JUMP JUMPDEST JUMPDEST SWAP1 PUSH1 0x0 MSTORE PUSH1 0x20 PUSH1 0x0 KECCAK256 SWAP1 PUSH1 0x20 SWAP2 DUP3 DUP3 DIV ADD SWAP2 SWAP1 MOD PUSH2 0x100 EXP DUP2 SLOAD DUP2 PUSH1 0xFF MUL NOT AND SWAP1 DUP4 ISZERO ISZERO MUL OR SWAP1 SSTORE POP DUP2 PUSH1 0x25 ADD PUSH1 0x0 DUP2 SLOAD DUP1 SWAP3 SWAP2 SWAP1 PUSH2 0x1720 SWAP1 PUSH2 0x2E4F JUMP JUMPDEST SWAP2 SWAP1 POP SSTORE POP DUP6 PUSH1 0x3 PUSH1 0x0 CALLER PUSH20 0xFFFFFFFFFFFFFFFFFFFFFFFFFFFFFFFFFFFFFFFF AND PUSH20 0xFFFFFFFFFFFFFFFFFFFFFFFFFFFFFFFFFFFFFFFF AND DUP2 MSTORE PUSH1 0x20 ADD SWAP1 DUP2 MSTORE PUSH1 0x20 ADD PUSH1 0x0 KECCAK256 DUP2 SWAP1 SSTORE POP CALLER PUSH20 0xFFFFFFFFFFFFFFFFFFFFFFFFFFFFFFFFFFFFFFFF AND DUP7 PUSH32 0x5EDF2924394E7B2FAA5B3D07F148AB6D59F7051A142B081BD3552B8D432E82FE DUP8 DUP8 PUSH1 0x40 MLOAD PUSH2 0x17B2 SWAP3 SWAP2 SWAP1 PUSH2 0x37AA JUMP JUMPDEST PUSH1 0x40 MLOAD DUP1 SWAP2 SUB SWAP1 LOG3 POP POP POP POP POP POP JUMP JUMPDEST PUSH1 0x3 PUSH1 0x20 MSTORE DUP1 PUSH1 0x0 MSTORE PUSH1 0x40 PUSH1 0x0 KECCAK256 PUSH1 0x0 SWAP2 POP SWAP1 POP SLOAD DUP2 JUMP JUMPDEST PUSH2 0x17E2 PUSH2 0x20AE JUMP JUMPDEST PUSH20 0xFFFFFFFFFFFFFFFFFFFFFFFFFFFFFFFFFFFFFFFF AND PUSH2 0x1800 PUSH2 0x113E JUMP JUMPDEST PUSH20 0xFFFFFFFFFFFFFFFFFFFFFFFFFFFFFFFFFFFFFFFF AND EQ PUSH2 0x185F JUMPI PUSH2 0x1823 PUSH2 0x20AE JUMP JUMPDEST PUSH1 0x40 MLOAD PUSH32 0x118CDAA700000000000000000000000000000000000000000000000000000000 DUP2 MSTORE PUSH1 0x4 ADD PUSH2 0x1856 SWAP2 SWAP1 PUSH2 0x27AA JUMP JUMPDEST PUSH1 0x40 MLOAD DUP1 SWAP2 SUB SWAP1 REVERT JUMPDEST JUMP JUMPDEST PUSH1 0x0 DUP1 TIMESTAMP PREVRANDAO CALLER PUSH1 0x4 SLOAD PUSH1 0x40 MLOAD PUSH1 0x20 ADD PUSH2 0x187D SWAP5 SWAP4 SWAP3 SWAP2 SWAP1 PUSH2 0x3843 JUMP JUMPDEST PUSH1 0x40 MLOAD PUSH1 0x20 DUP2 DUP4 SUB SUB DUP2 MSTORE SWAP1 PUSH1 0x40 MSTORE DUP1 MLOAD SWAP1 PUSH1 0x20 ADD KECCAK256 PUSH1 0x0 SHR SWAP1 POP PUSH1 0x1 PUSH1 0x6 DUP3 PUSH2 0x18A7 SWAP2 SWAP1 PUSH2 0x38C0 JUMP JUMPDEST PUSH2 0x18B1 SWAP2 SWAP1 PUSH2 0x321B JUMP JUMPDEST SWAP2 POP POP SWAP1 JUMP JUMPDEST PUSH1 0x0 DUP1 PUSH1 0x2 PUSH1 0x0 DUP7 DUP2 MSTORE PUSH1 0x20 ADD SWAP1 DUP2 MSTORE PUSH1 0x20 ADD PUSH1 0x0 KECCAK256 SWAP1 POP PUSH1 0x0 PUSH2 0x18DB DUP7 CALLER PUSH2 0x1EBC JUMP JUMPDEST SWAP1 POP PUSH1 0x0 DUP3 PUSH1 0x1 ADD DUP3 PUSH1 0x4 DUP2 LT PUSH2 0x18F5 JUMPI PUSH2 0x18F4 PUSH2 0x2D5F JUMP JUMPDEST JUMPDEST PUSH1 0x9 MUL ADD SWAP1 POP PUSH1 0x0 DUP2 PUSH1 0x4 ADD DUP8 PUSH1 0x4 DUP2 LT PUSH2 0x1913 JUMPI PUSH2 0x1912 PUSH2 0x2D5F JUMP JUMPDEST JUMPDEST ADD SLOAD SWAP1 POP PUSH1 0x0 PUSH2 0x1935 DUP4 PUSH1 0x2 ADD PUSH1 0x0 SWAP1 SLOAD SWAP1 PUSH2 0x100 EXP SWAP1 DIV PUSH1 0xFF AND DUP4 DUP10 PUSH2 0x20B6 JUMP JUMPDEST SWAP1 POP PUSH2 0x1942 DUP3 DUP3 DUP10 PUSH2 0x2216 JUMP JUMPDEST PUSH2 0x1954 JUMPI PUSH1 0x0 SWAP6 POP POP POP POP POP POP PUSH2 0x19F7 JUMP JUMPDEST PUSH2 0x1960 DUP10 DUP6 DUP4 DUP12 PUSH2 0x2255 JUMP JUMPDEST ISZERO PUSH2 0x1973 JUMPI PUSH1 0x0 SWAP6 POP POP POP POP POP POP PUSH2 0x19F7 JUMP JUMPDEST PUSH2 0x197E DUP10 DUP6 DUP4 PUSH2 0x22EB JUMP JUMPDEST DUP1 DUP4 PUSH1 0x4 ADD DUP10 PUSH1 0x4 DUP2 LT PUSH2 0x1995 JUMPI PUSH2 0x1994 PUSH2 0x2D5F JUMP JUMPDEST JUMPDEST ADD DUP2 SWAP1 SSTORE POP CALLER PUSH20 0xFFFFFFFFFFFFFFFFFFFFFFFFFFFFFFFFFFFFFFFF AND DUP10 PUSH32 0x8E0F34A4C856924E39C0B719BE03912592B291E442211AF654D398A473F5E2D6 DUP11 DUP6 DUP6 PUSH1 0x40 MLOAD PUSH2 0x19E5 SWAP4 SWAP3 SWAP2 SWAP1 PUSH2 0x38F1 JUMP JUMPDEST PUSH1 0x40 MLOAD DUP1 SWAP2 SUB SWAP1 LOG3 PUSH1 0x1 SWAP6 POP POP POP POP POP POP JUMPDEST SWAP4 SWAP3 POP POP POP JUMP JUMPDEST PUSH1 0x0 DUP1 PUSH1 0x2 PUSH1 0x0 DUP5 DUP2 MSTORE PUSH1 0x20 ADD SWAP1 DUP2 MSTORE PUSH1 0x20 ADD PUSH1 0x0 KECCAK256 SWAP1 POP PUSH1 0x0 DUP2 PUSH1 0x1 ADD DUP3 PUSH1 0x26 ADD SLOAD PUSH1 0x4 DUP2 LT PUSH2 0x1A32 JUMPI PUSH2 0x1A31 PUSH2 0x2D5F JUMP JUMPDEST JUMPDEST PUSH1 0x9 MUL ADD SWAP1 POP PUSH1 0x0 JUMPDEST PUSH1 0x4 DUP2 LT ISZERO PUSH2 0x1A7D JUMPI PUSH1 0x39 DUP3 PUSH1 0x4 ADD DUP3 PUSH1 0x4 DUP2 LT PUSH2 0x1A5C JUMPI PUSH2 0x1A5B PUSH2 0x2D5F JUMP JUMPDEST JUMPDEST ADD SLOAD LT ISZERO PUSH2 0x1A70 JUMPI PUSH1 0x0 SWAP4 POP POP POP POP PUSH2 0x1A85 JUMP JUMPDEST DUP1 DUP1 PUSH1 0x1 ADD SWAP2 POP POP PUSH2 0x1A3B JUMP JUMPDEST POP PUSH1 0x1 SWAP3 POP POP POP JUMPDEST SWAP2 SWAP1 POP JUMP JUMPDEST PUSH1 0x0 PUSH1 0x2 PUSH1 0x0 DUP4 DUP2 MSTORE PUSH1 0x20 ADD SWAP1 DUP2 MSTORE PUSH1 0x20 ADD PUSH1 0x0 KECCAK256 SWAP1 POP PUSH1 0x2 DUP2 PUSH1 0x29 ADD PUSH1 0x0 PUSH2 0x100 EXP DUP2 SLOAD DUP2 PUSH1 0xFF MUL NOT AND SWAP1 DUP4 PUSH1 0x2 DUP2 GT ISZERO PUSH2 0x1AC9 JUMPI PUSH2 0x1AC8 PUSH2 0x2607 JUMP JUMPDEST JUMPDEST MUL OR SWAP1 SSTORE POP DUP1 PUSH1 0x1 ADD DUP2 PUSH1 0x26 ADD SLOAD PUSH1 0x4 DUP2 LT PUSH2 0x1AE8 JUMPI PUSH2 0x1AE7 PUSH2 0x2D5F JUMP JUMPDEST JUMPDEST PUSH1 0x9 MUL ADD PUSH1 0x0 ADD PUSH1 0x0 SWAP1 SLOAD SWAP1 PUSH2 0x100 EXP SWAP1 DIV PUSH20 0xFFFFFFFFFFFFFFFFFFFFFFFFFFFFFFFFFFFFFFFF AND DUP2 PUSH1 0x29 ADD PUSH1 0x1 PUSH2 0x100 EXP DUP2 SLOAD DUP2 PUSH20 0xFFFFFFFFFFFFFFFFFFFFFFFFFFFFFFFFFFFFFFFF MUL NOT AND SWAP1 DUP4 PUSH20 0xFFFFFFFFFFFFFFFFFFFFFFFFFFFFFFFFFFFFFFFF AND MUL OR SWAP1 SSTORE POP DUP1 PUSH1 0x28 ADD SLOAD DUP2 PUSH1 0x1 ADD DUP3 PUSH1 0x26 ADD SLOAD PUSH1 0x4 DUP2 LT PUSH2 0x1B71 JUMPI PUSH2 0x1B70 PUSH2 0x2D5F JUMP JUMPDEST JUMPDEST PUSH1 0x9 MUL ADD PUSH1 0x3 ADD PUSH1 0x0 DUP3 DUP3 SLOAD PUSH2 0x1B87 SWAP2 SWAP1 PUSH2 0x321B JUMP JUMPDEST SWAP3 POP POP DUP2 SWAP1 SSTORE POP PUSH32 0x0 PUSH20 0xFFFFFFFFFFFFFFFFFFFFFFFFFFFFFFFFFFFFFFFF AND PUSH4 0xA9059CBB DUP3 PUSH1 0x29 ADD PUSH1 0x1 SWAP1 SLOAD SWAP1 PUSH2 0x100 EXP SWAP1 DIV PUSH20 0xFFFFFFFFFFFFFFFFFFFFFFFFFFFFFFFFFFFFFFFF AND DUP4 PUSH1 0x28 ADD SLOAD PUSH1 0x40 MLOAD DUP4 PUSH4 0xFFFFFFFF AND PUSH1 0xE0 SHL DUP2 MSTORE PUSH1 0x4 ADD PUSH2 0x1C11 SWAP3 SWAP2 SWAP1 PUSH2 0x335D JUMP JUMPDEST PUSH1 0x20 PUSH1 0x40 MLOAD DUP1 DUP4 SUB DUP2 PUSH1 0x0 DUP8 GAS CALL ISZERO DUP1 ISZERO PUSH2 0x1C30 JUMPI RETURNDATASIZE PUSH1 0x0 DUP1 RETURNDATACOPY RETURNDATASIZE PUSH1 0x0 REVERT JUMPDEST POP POP POP POP PUSH1 0x40 MLOAD RETURNDATASIZE PUSH1 0x1F NOT PUSH1 0x1F DUP3 ADD AND DUP3 ADD DUP1 PUSH1 0x40 MSTORE POP DUP2 ADD SWAP1 PUSH2 0x1C54 SWAP2 SWAP1 PUSH2 0x3182 JUMP JUMPDEST POP PUSH1 0x0 JUMPDEST DUP2 PUSH1 0x25 ADD SLOAD DUP2 LT ISZERO PUSH2 0x1CF3 JUMPI PUSH1 0x0 PUSH1 0x3 PUSH1 0x0 DUP5 PUSH1 0x1 ADD DUP5 PUSH1 0x4 DUP2 LT PUSH2 0x1C80 JUMPI PUSH2 0x1C7F PUSH2 0x2D5F JUMP JUMPDEST JUMPDEST PUSH1 0x9 MUL ADD PUSH1 0x0 ADD PUSH1 0x0 SWAP1 SLOAD SWAP1 PUSH2 0x100 EXP SWAP1 DIV PUSH20 0xFFFFFFFFFFFFFFFFFFFFFFFFFFFFFFFFFFFFFFFF AND PUSH20 0xFFFFFFFFFFFFFFFFFFFFFFFFFFFFFFFFFFFFFFFF AND PUSH20 0xFFFFFFFFFFFFFFFFFFFFFFFFFFFFFFFFFFFFFFFF AND DUP2 MSTORE PUSH1 0x20 ADD SWAP1 DUP2 MSTORE PUSH1 0x20 ADD PUSH1 0x0 KECCAK256 DUP2 SWAP1 SSTORE POP DUP1 DUP1 PUSH1 0x1 ADD SWAP2 POP POP PUSH2 0x1C58 JUMP JUMPDEST POP DUP1 PUSH1 0x29 ADD PUSH1 0x1 SWAP1 SLOAD SWAP1 PUSH2 0x100 EXP SWAP1 DIV PUSH20 0xFFFFFFFFFFFFFFFFFFFFFFFFFFFFFFFFFFFFFFFF AND PUSH20 0xFFFFFFFFFFFFFFFFFFFFFFFFFFFFFFFFFFFFFFFF AND DUP3 PUSH32 0xF5D92DF6AE1A0B46D0A0C57C2E1DA0D75D7591D2804AD086CB1E27BA67DE7AAF DUP4 PUSH1 0x28 ADD SLOAD PUSH1 0x40 MLOAD PUSH2 0x1D63 SWAP2 SWAP1 PUSH2 0x278F JUMP JUMPDEST PUSH1 0x40 MLOAD DUP1 SWAP2 SUB SWAP1 LOG3 POP POP JUMP JUMPDEST PUSH1 0x0 PUSH1 0x2 PUSH1 0x0 DUP4 DUP2 MSTORE PUSH1 0x20 ADD SWAP1 DUP2 MSTORE PUSH1 0x20 ADD PUSH1 0x0 KECCAK256 SWAP1 POP DUP1 PUSH1 0x25 ADD SLOAD PUSH1 0x1 DUP3 PUSH1 0x26 ADD SLOAD PUSH2 0x1D9C SWAP2 SWAP1 PUSH2 0x321B JUMP JUMPDEST PUSH2 0x1DA6 SWAP2 SWAP1 PUSH2 0x38C0 JUMP JUMPDEST DUP2 PUSH1 0x26 ADD DUP2 SWAP1 SSTORE POP POP POP JUMP JUMPDEST PUSH1 0x0 DUP1 PUSH1 0x0 SWAP1 SLOAD SWAP1 PUSH2 0x100 EXP SWAP1 DIV PUSH20 0xFFFFFFFFFFFFFFFFFFFFFFFFFFFFFFFFFFFFFFFF AND SWAP1 POP DUP2 PUSH1 0x0 DUP1 PUSH2 0x100 EXP DUP2 SLOAD DUP2 PUSH20 0xFFFFFFFFFFFFFFFFFFFFFFFFFFFFFFFFFFFFFFFF MUL NOT AND SWAP1 DUP4 PUSH20 0xFFFFFFFFFFFFFFFFFFFFFFFFFFFFFFFFFFFFFFFF AND MUL OR SWAP1 SSTORE POP DUP2 PUSH20 0xFFFFFFFFFFFFFFFFFFFFFFFFFFFFFFFFFFFFFFFF AND DUP2 PUSH20 0xFFFFFFFFFFFFFFFFFFFFFFFFFFFFFFFFFFFFFFFF AND PUSH32 0x8BE0079C531659141344CD1FD0A4F28419497F9722A3DAAFE3B4186F6B6457E0 PUSH1 0x40 MLOAD PUSH1 0x40 MLOAD DUP1 SWAP2 SUB SWAP1 LOG3 POP POP JUMP JUMPDEST PUSH1 0x2 PUSH1 0x1 SLOAD SUB PUSH2 0x1EB2 JUMPI PUSH1 0x40 MLOAD PUSH32 0x3EE5AEB500000000000000000000000000000000000000000000000000000000 DUP2 MSTORE PUSH1 0x4 ADD PUSH1 0x40 MLOAD DUP1 SWAP2 SUB SWAP1 REVERT JUMPDEST PUSH1 0x2 PUSH1 0x1 DUP2 SWAP1 SSTORE POP JUMP JUMPDEST PUSH1 0x0 DUP1 PUSH1 0x2 PUSH1 0x0 DUP6 DUP2 MSTORE PUSH1 0x20 ADD SWAP1 DUP2 MSTORE PUSH1 0x20 ADD PUSH1 0x0 KECCAK256 SWAP1 POP PUSH1 0x0 JUMPDEST DUP2 PUSH1 0x25 ADD SLOAD DUP2 LT ISZERO PUSH2 0x1F6A JUMPI DUP4 PUSH20 0xFFFFFFFFFFFFFFFFFFFFFFFFFFFFFFFFFFFFFFFF AND DUP3 PUSH1 0x1 ADD DUP3 PUSH1 0x4 DUP2 LT PUSH2 0x1F10 JUMPI PUSH2 0x1F0F PUSH2 0x2D5F JUMP JUMPDEST JUMPDEST PUSH1 0x9 MUL ADD PUSH1 0x0 ADD PUSH1 0x0 SWAP1 SLOAD SWAP1 PUSH2 0x100 EXP SWAP1 DIV PUSH20 0xFFFFFFFFFFFFFFFFFFFFFFFFFFFFFFFFFFFFFFFF AND PUSH20 0xFFFFFFFFFFFFFFFFFFFFFFFFFFFFFFFFFFFFFFFF AND SUB PUSH2 0x1F5D JUMPI DUP1 SWAP3 POP POP POP PUSH2 0x1FA6 JUMP JUMPDEST DUP1 DUP1 PUSH1 0x1 ADD SWAP2 POP POP PUSH2 0x1ED7 JUMP JUMPDEST POP PUSH1 0x40 MLOAD PUSH32 0x8C379A000000000000000000000000000000000000000000000000000000000 DUP2 MSTORE PUSH1 0x4 ADD PUSH2 0x1F9D SWAP1 PUSH2 0x3974 JUMP JUMPDEST PUSH1 0x40 MLOAD DUP1 SWAP2 SUB SWAP1 REVERT JUMPDEST SWAP3 SWAP2 POP POP JUMP JUMPDEST PUSH1 0x0 DUP1 PUSH1 0x2 PUSH1 0x0 DUP5 DUP2 MSTORE PUSH1 0x20 ADD SWAP1 DUP2 MSTORE PUSH1 0x20 ADD PUSH1 0x0 KECCAK256 SWAP1 POP PUSH1 0x0 JUMPDEST DUP2 PUSH1 0x25 ADD SLOAD DUP2 LT ISZERO PUSH2 0x201A JUMPI DUP2 PUSH1 0x1 ADD DUP2 PUSH1 0x4 DUP2 LT PUSH2 0x1FE9 JUMPI PUSH2 0x1FE8 PUSH2 0x2D5F JUMP JUMPDEST JUMPDEST PUSH1 0x9 MUL ADD PUSH1 0x8 ADD PUSH1 0x1 SWAP1 SLOAD SWAP1 PUSH2 0x100 EXP SWAP1 DIV PUSH1 0xFF AND PUSH2 0x200D JUMPI PUSH1 0x0 SWAP3 POP POP POP PUSH2 0x2021 JUMP JUMPDEST DUP1 DUP1 PUSH1 0x1 ADD SWAP2 POP POP PUSH2 0x1FC7 JUMP JUMPDEST POP PUSH1 0x1 SWAP2 POP POP JUMPDEST SWAP2 SWAP1 POP JUMP JUMPDEST PUSH1 0x0 PUSH1 0x2 PUSH1 0x0 DUP4 DUP2 MSTORE PUSH1 0x20 ADD SWAP1 DUP2 MSTORE PUSH1 0x20 ADD PUSH1 0x0 KECCAK256 SWAP1 POP PUSH1 0x1 DUP2 PUSH1 0x29 ADD PUSH1 0x0 PUSH2 0x100 EXP DUP2 SLOAD DUP2 PUSH1 0xFF MUL NOT AND SWAP1 DUP4 PUSH1 0x2 DUP2 GT ISZERO PUSH2 0x2065 JUMPI PUSH2 0x2064 PUSH2 0x2607 JUMP JUMPDEST JUMPDEST MUL OR SWAP1 SSTORE POP PUSH1 0x0 DUP2 PUSH1 0x26 ADD DUP2 SWAP1 SSTORE POP DUP2 PUSH32 0x50AD08F58A27F2851D7E3A1B3A6A46B290F2CE677E99642D30FF639721E77790 PUSH1 0x40 MLOAD PUSH1 0x40 MLOAD DUP1 SWAP2 SUB SWAP1 LOG2 POP POP JUMP JUMPDEST PUSH1 0x1 DUP1 DUP2 SWAP1 SSTORE POP JUMP JUMPDEST PUSH1 0x0 CALLER SWAP1 POP SWAP1 JUMP JUMPDEST PUSH1 0x0 DUP1 DUP4 SUB PUSH2 0x210F JUMPI PUSH1 0x6 DUP3 SUB PUSH2 0x2106 JUMPI PUSH1 0x6 PUSH1 0x0 DUP6 PUSH1 0x3 DUP2 GT ISZERO PUSH2 0x20DE JUMPI PUSH2 0x20DD PUSH2 0x2607 JUMP JUMPDEST JUMPDEST PUSH1 0x3 DUP2 GT ISZERO PUSH2 0x20F0 JUMPI PUSH2 0x20EF PUSH2 0x2607 JUMP JUMPDEST JUMPDEST DUP2 MSTORE PUSH1 0x20 ADD SWAP1 DUP2 MSTORE PUSH1 0x20 ADD PUSH1 0x0 KECCAK256 SLOAD SWAP1 POP PUSH2 0x220F JUMP JUMPDEST PUSH1 0x0 SWAP1 POP PUSH2 0x220F JUMP JUMPDEST PUSH1 0x1 DUP4 LT ISZERO DUP1 ISZERO PUSH2 0x2121 JUMPI POP PUSH1 0x34 DUP4 GT ISZERO JUMPDEST ISZERO PUSH2 0x21CB JUMPI PUSH1 0x0 PUSH2 0x2131 DUP6 PUSH2 0x23BE JUMP JUMPDEST SWAP1 POP PUSH1 0x0 DUP4 DUP6 PUSH2 0x2141 SWAP2 SWAP1 PUSH2 0x321B JUMP JUMPDEST SWAP1 POP DUP2 DUP6 LT DUP1 ISZERO PUSH2 0x2152 JUMPI POP DUP2 DUP2 LT ISZERO JUMPDEST ISZERO PUSH2 0x218A JUMPI PUSH1 0x0 DUP3 DUP3 PUSH2 0x2165 SWAP2 SWAP1 PUSH2 0x3994 JUMP JUMPDEST SWAP1 POP DUP1 PUSH1 0x1 PUSH1 0x34 PUSH2 0x2176 SWAP2 SWAP1 PUSH2 0x321B JUMP JUMPDEST PUSH2 0x2180 SWAP2 SWAP1 PUSH2 0x321B JUMP JUMPDEST SWAP4 POP POP POP POP PUSH2 0x220F JUMP JUMPDEST PUSH1 0x34 DUP2 GT ISZERO PUSH2 0x21C1 JUMPI PUSH1 0x1 PUSH1 0x34 PUSH1 0x1 DUP4 PUSH2 0x21A4 SWAP2 SWAP1 PUSH2 0x3994 JUMP JUMPDEST PUSH2 0x21AE SWAP2 SWAP1 PUSH2 0x38C0 JUMP JUMPDEST PUSH2 0x21B8 SWAP2 SWAP1 PUSH2 0x321B JUMP JUMPDEST SWAP3 POP POP POP PUSH2 0x220F JUMP JUMPDEST DUP1 SWAP3 POP POP POP PUSH2 0x220F JUMP JUMPDEST PUSH1 0x34 DUP4 GT DUP1 ISZERO PUSH2 0x21DB JUMPI POP PUSH1 0x39 DUP4 LT JUMPDEST ISZERO PUSH2 0x220B JUMPI PUSH1 0x0 DUP3 DUP5 PUSH2 0x21EE SWAP2 SWAP1 PUSH2 0x321B JUMP JUMPDEST SWAP1 POP PUSH1 0x39 DUP2 GT ISZERO PUSH2 0x2202 JUMPI DUP4 SWAP2 POP POP PUSH2 0x220F JUMP JUMPDEST DUP1 SWAP2 POP POP PUSH2 0x220F JUMP JUMPDEST DUP3 SWAP1 POP JUMPDEST SWAP4 SWAP3 POP POP POP JUMP JUMPDEST PUSH1 0x0 DUP1 DUP5 EQ DUP1 ISZERO PUSH2 0x2228 JUMPI POP PUSH1 0x6 DUP3 EQ ISZERO JUMPDEST ISZERO PUSH2 0x2236 JUMPI PUSH1 0x0 SWAP1 POP PUSH2 0x224E JUMP JUMPDEST PUSH1 0x39 DUP5 LT PUSH2 0x2247 JUMPI PUSH1 0x0 SWAP1 POP PUSH2 0x224E JUMP JUMPDEST DUP4 DUP4 EQ ISZERO SWAP1 POP JUMPDEST SWAP4 SWAP3 POP POP POP JUMP JUMPDEST PUSH1 0x0 DUP1 PUSH1 0x2 PUSH1 0x0 DUP8 DUP2 MSTORE PUSH1 0x20 ADD SWAP1 DUP2 MSTORE PUSH1 0x20 ADD PUSH1 0x0 KECCAK256 SWAP1 POP PUSH1 0x0 DUP2 PUSH1 0x1 ADD DUP7 PUSH1 0x4 DUP2 LT PUSH2 0x2285 JUMPI PUSH2 0x2284 PUSH2 0x2D5F JUMP JUMPDEST JUMPDEST PUSH1 0x9 MUL ADD SWAP1 POP PUSH1 0x0 JUMPDEST PUSH1 0x4 DUP2 LT ISZERO PUSH2 0x22DB JUMPI DUP5 DUP2 EQ ISZERO DUP1 ISZERO PUSH2 0x22BD JUMPI POP DUP6 DUP3 PUSH1 0x4 ADD DUP3 PUSH1 0x4 DUP2 LT PUSH2 0x22B9 JUMPI PUSH2 0x22B8 PUSH2 0x2D5F JUMP JUMPDEST JUMPDEST ADD SLOAD EQ JUMPDEST ISZERO PUSH2 0x22CE JUMPI PUSH1 0x1 SWAP4 POP POP POP POP PUSH2 0x22E3 JUMP JUMPDEST DUP1 DUP1 PUSH1 0x1 ADD SWAP2 POP POP PUSH2 0x228E JUMP JUMPDEST POP PUSH1 0x0 SWAP3 POP POP POP JUMPDEST SWAP5 SWAP4 POP POP POP POP JUMP JUMPDEST PUSH1 0x0 PUSH1 0x2 PUSH1 0x0 DUP6 DUP2 MSTORE PUSH1 0x20 ADD SWAP1 DUP2 MSTORE PUSH1 0x20 ADD PUSH1 0x0 KECCAK256 SWAP1 POP PUSH1 0x0 DUP3 EQ DUP1 PUSH2 0x2311 JUMPI POP PUSH1 0x34 DUP3 GT JUMPDEST ISZERO PUSH2 0x231C JUMPI POP PUSH2 0x23B9 JUMP JUMPDEST PUSH1 0x0 JUMPDEST DUP2 PUSH1 0x25 ADD SLOAD DUP2 LT ISZERO PUSH2 0x23B6 JUMPI DUP4 DUP2 SUB ISZERO PUSH2 0x23A9 JUMPI PUSH1 0x0 DUP3 PUSH1 0x1 ADD DUP3 PUSH1 0x4 DUP2 LT PUSH2 0x234B JUMPI PUSH2 0x234A PUSH2 0x2D5F JUMP JUMPDEST JUMPDEST PUSH1 0x9 MUL ADD SWAP1 POP PUSH1 0x0 JUMPDEST PUSH1 0x4 DUP2 LT ISZERO PUSH2 0x23A6 JUMPI DUP5 DUP3 PUSH1 0x4 ADD DUP3 PUSH1 0x4 DUP2 LT PUSH2 0x2374 JUMPI PUSH2 0x2373 PUSH2 0x2D5F JUMP JUMPDEST JUMPDEST ADD SLOAD SUB PUSH2 0x2399 JUMPI PUSH1 0x0 DUP3 PUSH1 0x4 ADD DUP3 PUSH1 0x4 DUP2 LT PUSH2 0x2393 JUMPI PUSH2 0x2392 PUSH2 0x2D5F JUMP JUMPDEST JUMPDEST ADD DUP2 SWAP1 SSTORE POP JUMPDEST DUP1 DUP1 PUSH1 0x1 ADD SWAP2 POP POP PUSH2 0x2354 JUMP JUMPDEST POP POP JUMPDEST DUP1 DUP1 PUSH1 0x1 ADD SWAP2 POP POP PUSH2 0x231F JUMP JUMPDEST POP POP JUMPDEST POP POP POP JUMP JUMPDEST PUSH1 0x0 DUP1 PUSH1 0x3 DUP2 GT ISZERO PUSH2 0x23D3 JUMPI PUSH2 0x23D2 PUSH2 0x2607 JUMP JUMPDEST JUMPDEST DUP3 PUSH1 0x3 DUP2 GT ISZERO PUSH2 0x23E6 JUMPI PUSH2 0x23E5 PUSH2 0x2607 JUMP JUMPDEST JUMPDEST SUB PUSH2 0x23F4 JUMPI PUSH1 0x33 SWAP1 POP PUSH2 0x2497 JUMP JUMPDEST PUSH1 0x1 PUSH1 0x3 DUP2 GT ISZERO PUSH2 0x2408 JUMPI PUSH2 0x2407 PUSH2 0x2607 JUMP JUMPDEST JUMPDEST DUP3 PUSH1 0x3 DUP2 GT ISZERO PUSH2 0x241B JUMPI PUSH2 0x241A PUSH2 0x2607 JUMP JUMPDEST JUMPDEST SUB PUSH2 0x2429 JUMPI PUSH1 0xC SWAP1 POP PUSH2 0x2497 JUMP JUMPDEST PUSH1 0x2 PUSH1 0x3 DUP2 GT ISZERO PUSH2 0x243D JUMPI PUSH2 0x243C PUSH2 0x2607 JUMP JUMPDEST JUMPDEST DUP3 PUSH1 0x3 DUP2 GT ISZERO PUSH2 0x2450 JUMPI PUSH2 0x244F PUSH2 0x2607 JUMP JUMPDEST JUMPDEST SUB PUSH2 0x245E JUMPI PUSH1 0x19 SWAP1 POP PUSH2 0x2497 JUMP JUMPDEST PUSH1 0x3 DUP1 DUP2 GT ISZERO PUSH2 0x2471 JUMPI PUSH2 0x2470 PUSH2 0x2607 JUMP JUMPDEST JUMPDEST DUP3 PUSH1 0x3 DUP2 GT ISZERO PUSH2 0x2484 JUMPI PUSH2 0x2483 PUSH2 0x2607 JUMP JUMPDEST JUMPDEST SUB PUSH2 0x2492 JUMPI PUSH1 0x26 SWAP1 POP PUSH2 0x2497 JUMP JUMPDEST PUSH1 0x0 SWAP1 POP JUMPDEST SWAP2 SWAP1 POP JUMP JUMPDEST DUP3 DUP1 SLOAD DUP3 DUP3 SSTORE SWAP1 PUSH1 0x0 MSTORE PUSH1 0x20 PUSH1 0x0 KECCAK256 SWAP1 PUSH1 0x1F ADD PUSH1 0x20 SWAP1 DIV DUP2 ADD SWAP3 DUP3 ISZERO PUSH2 0x2531 JUMPI SWAP2 PUSH1 0x20 MUL DUP3 ADD PUSH1 0x0 JUMPDEST DUP4 DUP3 GT ISZERO PUSH2 0x2502 JUMPI DUP4 MLOAD DUP4 DUP3 PUSH2 0x100 EXP DUP2 SLOAD DUP2 PUSH1 0xFF MUL NOT AND SWAP1 DUP4 ISZERO ISZERO MUL OR SWAP1 SSTORE POP SWAP3 PUSH1 0x20 ADD SWAP3 PUSH1 0x1 ADD PUSH1 0x20 DUP2 PUSH1 0x0 ADD DIV SWAP3 DUP4 ADD SWAP3 PUSH1 0x1 SUB MUL PUSH2 0x24C5 JUMP JUMPDEST DUP1 ISZERO PUSH2 0x252F JUMPI DUP3 DUP2 PUSH2 0x100 EXP DUP2 SLOAD SWAP1 PUSH1 0xFF MUL NOT AND SWAP1 SSTORE PUSH1 0x1 ADD PUSH1 0x20 DUP2 PUSH1 0x0 ADD DIV SWAP3 DUP4 ADD SWAP3 PUSH1 0x1 SUB MUL PUSH2 0x2502 JUMP JUMPDEST POP JUMPDEST POP SWAP1 POP PUSH2 0x253E SWAP2 SWAP1 PUSH2 0x2564 JUMP JUMPDEST POP SWAP1 JUMP JUMPDEST PUSH1 0x40 MLOAD DUP1 PUSH1 0x80 ADD PUSH1 0x40 MSTORE DUP1 PUSH1 0x4 SWAP1 PUSH1 0x20 DUP3 MUL DUP1 CALLDATASIZE DUP4 CALLDATACOPY DUP1 DUP3 ADD SWAP2 POP POP SWAP1 POP POP SWAP1 JUMP JUMPDEST JUMPDEST DUP1 DUP3 GT ISZERO PUSH2 0x257D JUMPI PUSH1 0x0 DUP2 PUSH1 0x0 SWAP1 SSTORE POP PUSH1 0x1 ADD PUSH2 0x2565 JUMP JUMPDEST POP SWAP1 JUMP JUMPDEST PUSH1 0x0 PUSH1 0x40 MLOAD SWAP1 POP SWAP1 JUMP JUMPDEST PUSH1 0x0 DUP1 REVERT JUMPDEST PUSH1 0x0 DUP1 REVERT JUMPDEST PUSH1 0x0 DUP2 SWAP1 POP SWAP2 SWAP1 POP JUMP JUMPDEST PUSH2 0x25A8 DUP2 PUSH2 0x2595 JUMP JUMPDEST DUP2 EQ PUSH2 0x25B3 JUMPI PUSH1 0x0 DUP1 REVERT JUMPDEST POP JUMP JUMPDEST PUSH1 0x0 DUP2 CALLDATALOAD SWAP1 POP PUSH2 0x25C5 DUP2 PUSH2 0x259F JUMP JUMPDEST SWAP3 SWAP2 POP POP JUMP JUMPDEST PUSH1 0x0 PUSH1 0x20 DUP3 DUP5 SUB SLT ISZERO PUSH2 0x25E1 JUMPI PUSH2 0x25E0 PUSH2 0x258B JUMP JUMPDEST JUMPDEST PUSH1 0x0 PUSH2 0x25EF DUP5 DUP3 DUP6 ADD PUSH2 0x25B6 JUMP JUMPDEST SWAP2 POP POP SWAP3 SWAP2 POP POP JUMP JUMPDEST PUSH2 0x2601 DUP2 PUSH2 0x2595 JUMP JUMPDEST DUP3 MSTORE POP POP JUMP JUMPDEST PUSH32 0x4E487B7100000000000000000000000000000000000000000000000000000000 PUSH1 0x0 MSTORE PUSH1 0x21 PUSH1 0x4 MSTORE PUSH1 0x24 PUSH1 0x0 REVERT JUMPDEST PUSH1 0x3 DUP2 LT PUSH2 0x2647 JUMPI PUSH2 0x2646 PUSH2 0x2607 JUMP JUMPDEST JUMPDEST POP JUMP JUMPDEST PUSH1 0x0 DUP2 SWAP1 POP PUSH2 0x2658 DUP3 PUSH2 0x2636 JUMP JUMPDEST SWAP2 SWAP1 POP JUMP JUMPDEST PUSH1 0x0 PUSH2 0x2668 DUP3 PUSH2 0x264A JUMP JUMPDEST SWAP1 POP SWAP2 SWAP1 POP JUMP JUMPDEST PUSH2 0x2678 DUP2 PUSH2 0x265D JUMP JUMPDEST DUP3 MSTORE POP POP JUMP JUMPDEST PUSH1 0x0 PUSH20 0xFFFFFFFFFFFFFFFFFFFFFFFFFFFFFFFFFFFFFFFF DUP3 AND SWAP1 POP SWAP2 SWAP1 POP JUMP JUMPDEST PUSH1 0x0 PUSH2 0x26A9 DUP3 PUSH2 0x267E JUMP JUMPDEST SWAP1 POP SWAP2 SWAP1 POP JUMP JUMPDEST PUSH2 0x26B9 DUP2 PUSH2 0x269E JUMP JUMPDEST DUP3 MSTORE POP POP JUMP JUMPDEST PUSH1 0x0 PUSH2 0x100 DUP3 ADD SWAP1 POP PUSH2 0x26D5 PUSH1 0x0 DUP4 ADD DUP12 PUSH2 0x25F8 JUMP JUMPDEST PUSH2 0x26E2 PUSH1 0x20 DUP4 ADD DUP11 PUSH2 0x25F8 JUMP JUMPDEST PUSH2 0x26EF PUSH1 0x40 DUP4 ADD DUP10 PUSH2 0x25F8 JUMP JUMPDEST PUSH2 0x26FC PUSH1 0x60 DUP4 ADD DUP9 PUSH2 0x25F8 JUMP JUMPDEST PUSH2 0x2709 PUSH1 0x80 DUP4 ADD DUP8 PUSH2 0x25F8 JUMP JUMPDEST PUSH2 0x2716 PUSH1 0xA0 DUP4 ADD DUP7 PUSH2 0x266F JUMP JUMPDEST PUSH2 0x2723 PUSH1 0xC0 DUP4 ADD DUP6 PUSH2 0x26B0 JUMP JUMPDEST PUSH2 0x2730 PUSH1 0xE0 DUP4 ADD DUP5 PUSH2 0x25F8 JUMP JUMPDEST SWAP10 SWAP9 POP POP POP POP POP POP POP POP POP JUMP JUMPDEST PUSH1 0x4 DUP2 LT PUSH2 0x274A JUMPI PUSH1 0x0 DUP1 REVERT JUMPDEST POP JUMP JUMPDEST PUSH1 0x0 DUP2 CALLDATALOAD SWAP1 POP PUSH2 0x275C DUP2 PUSH2 0x273D JUMP JUMPDEST SWAP3 SWAP2 POP POP JUMP JUMPDEST PUSH1 0x0 PUSH1 0x20 DUP3 DUP5 SUB SLT ISZERO PUSH2 0x2778 JUMPI PUSH2 0x2777 PUSH2 0x258B JUMP JUMPDEST JUMPDEST PUSH1 0x0 PUSH2 0x2786 DUP5 DUP3 DUP6 ADD PUSH2 0x274D JUMP JUMPDEST SWAP2 POP POP SWAP3 SWAP2 POP POP JUMP JUMPDEST PUSH1 0x0 PUSH1 0x20 DUP3 ADD SWAP1 POP PUSH2 0x27A4 PUSH1 0x0 DUP4 ADD DUP5 PUSH2 0x25F8 JUMP JUMPDEST SWAP3 SWAP2 POP POP JUMP JUMPDEST PUSH1 0x0 PUSH1 0x20 DUP3 ADD SWAP1 POP PUSH2 0x27BF PUSH1 0x0 DUP4 ADD DUP5 PUSH2 0x26B0 JUMP JUMPDEST SWAP3 SWAP2 POP POP JUMP JUMPDEST PUSH1 0x0 PUSH1 0xE0 DUP3 ADD SWAP1 POP PUSH2 0x27DA PUSH1 0x0 DUP4 ADD DUP11 PUSH2 0x25F8 JUMP JUMPDEST PUSH2 0x27E7 PUSH1 0x20 DUP4 ADD DUP10 PUSH2 0x25F8 JUMP JUMPDEST PUSH2 0x27F4 PUSH1 0x40 DUP4 ADD DUP9 PUSH2 0x25F8 JUMP JUMPDEST PUSH2 0x2801 PUSH1 0x60 DUP4 ADD DUP8 PUSH2 0x25F8 JUMP JUMPDEST PUSH2 0x280E PUSH1 0x80 DUP4 ADD DUP7 PUSH2 0x266F JUMP JUMPDEST PUSH2 0x281B PUSH1 0xA0 DUP4 ADD DUP6 PUSH2 0x26B0 JUMP JUMPDEST PUSH2 0x2828 PUSH1 0xC0 DUP4 ADD DUP5 PUSH2 0x25F8 JUMP JUMPDEST SWAP9 SWAP8 POP POP POP POP POP POP POP POP JUMP JUMPDEST PUSH1 0x0 DUP1 PUSH1 0x40 DUP4 DUP6 SUB SLT ISZERO PUSH2 0x284B JUMPI PUSH2 0x284A PUSH2 0x258B JUMP JUMPDEST JUMPDEST PUSH1 0x0 PUSH2 0x2859 DUP6 DUP3 DUP7 ADD PUSH2 0x25B6 JUMP JUMPDEST SWAP3 POP POP PUSH1 0x20 PUSH2 0x286A DUP6 DUP3 DUP7 ADD PUSH2 0x25B6 JUMP JUMPDEST SWAP2 POP POP SWAP3 POP SWAP3 SWAP1 POP JUMP JUMPDEST PUSH1 0x0 DUP2 SWAP1 POP SWAP2 SWAP1 POP JUMP JUMPDEST PUSH1 0x0 PUSH2 0x2899 PUSH2 0x2894 PUSH2 0x288F DUP5 PUSH2 0x267E JUMP JUMPDEST PUSH2 0x2874 JUMP JUMPDEST PUSH2 0x267E JUMP JUMPDEST SWAP1 POP SWAP2 SWAP1 POP JUMP JUMPDEST PUSH1 0x0 PUSH2 0x28AB DUP3 PUSH2 0x287E JUMP JUMPDEST SWAP1 POP SWAP2 SWAP1 POP JUMP JUMPDEST PUSH1 0x0 PUSH2 0x28BD DUP3 PUSH2 0x28A0 JUMP JUMPDEST SWAP1 POP SWAP2 SWAP1 POP JUMP JUMPDEST PUSH2 0x28CD DUP2 PUSH2 0x28B2 JUMP JUMPDEST DUP3 MSTORE POP POP JUMP JUMPDEST PUSH1 0x0 PUSH1 0x20 DUP3 ADD SWAP1 POP PUSH2 0x28E8 PUSH1 0x0 DUP4 ADD DUP5 PUSH2 0x28C4 JUMP JUMPDEST SWAP3 SWAP2 POP POP JUMP JUMPDEST PUSH1 0x0 DUP2 MLOAD SWAP1 POP SWAP2 SWAP1 POP JUMP JUMPDEST PUSH1 0x0 DUP3 DUP3 MSTORE PUSH1 0x20 DUP3 ADD SWAP1 POP SWAP3 SWAP2 POP POP JUMP JUMPDEST PUSH1 0x0 JUMPDEST DUP4 DUP2 LT ISZERO PUSH2 0x2928 JUMPI DUP1 DUP3 ADD MLOAD DUP2 DUP5 ADD MSTORE PUSH1 0x20 DUP2 ADD SWAP1 POP PUSH2 0x290D JUMP JUMPDEST PUSH1 0x0 DUP5 DUP5 ADD MSTORE POP POP POP POP JUMP JUMPDEST PUSH1 0x0 PUSH1 0x1F NOT PUSH1 0x1F DUP4 ADD AND SWAP1 POP SWAP2 SWAP1 POP JUMP JUMPDEST PUSH1 0x0 PUSH2 0x2950 DUP3 PUSH2 0x28EE JUMP JUMPDEST PUSH2 0x295A DUP2 DUP6 PUSH2 0x28F9 JUMP JUMPDEST SWAP4 POP PUSH2 0x296A DUP2 DUP6 PUSH1 0x20 DUP7 ADD PUSH2 0x290A JUMP JUMPDEST PUSH2 0x2973 DUP2 PUSH2 0x2934 JUMP JUMPDEST DUP5 ADD SWAP2 POP POP SWAP3 SWAP2 POP POP JUMP JUMPDEST PUSH1 0x4 DUP2 LT PUSH2 0x298F JUMPI PUSH2 0x298E PUSH2 0x2607 JUMP JUMPDEST JUMPDEST POP JUMP JUMPDEST PUSH1 0x0 DUP2 SWAP1 POP PUSH2 0x29A0 DUP3 PUSH2 0x297E JUMP JUMPDEST SWAP2 SWAP1 POP JUMP JUMPDEST PUSH1 0x0 PUSH2 0x29B0 DUP3 PUSH2 0x2992 JUMP JUMPDEST SWAP1 POP SWAP2 SWAP1 POP JUMP JUMPDEST PUSH2 0x29C0 DUP2 PUSH2 0x29A5 JUMP JUMPDEST DUP3 MSTORE POP POP JUMP JUMPDEST PUSH1 0x0 PUSH1 0x4 SWAP1 POP SWAP2 SWAP1 POP JUMP JUMPDEST PUSH1 0x0 DUP2 SWAP1 POP SWAP3 SWAP2 POP POP JUMP JUMPDEST PUSH1 0x0 DUP2 SWAP1 POP SWAP2 SWAP1 POP JUMP JUMPDEST PUSH2 0x29EF DUP2 PUSH2 0x2595 JUMP JUMPDEST DUP3 MSTORE POP POP JUMP JUMPDEST PUSH1 0x0 PUSH2 0x2A01 DUP4 DUP4 PUSH2 0x29E6 JUMP JUMPDEST PUSH1 0x20 DUP4 ADD SWAP1 POP SWAP3 SWAP2 POP POP JUMP JUMPDEST PUSH1 0x0 PUSH1 0x20 DUP3 ADD SWAP1 POP SWAP2 SWAP1 POP JUMP JUMPDEST PUSH2 0x2A23 DUP2 PUSH2 0x29C6 JUMP JUMPDEST PUSH2 0x2A2D DUP2 DUP5 PUSH2 0x29D1 JUMP JUMPDEST SWAP3 POP PUSH2 0x2A38 DUP3 PUSH2 0x29DC JUMP JUMPDEST DUP1 PUSH1 0x0 JUMPDEST DUP4 DUP2 LT ISZERO PUSH2 0x2A69 JUMPI DUP2 MLOAD PUSH2 0x2A50 DUP8 DUP3 PUSH2 0x29F5 JUMP JUMPDEST SWAP7 POP PUSH2 0x2A5B DUP4 PUSH2 0x2A0D JUMP JUMPDEST SWAP3 POP POP PUSH1 0x1 DUP2 ADD SWAP1 POP PUSH2 0x2A3C JUMP JUMPDEST POP POP POP POP POP POP JUMP JUMPDEST PUSH1 0x0 DUP2 ISZERO ISZERO SWAP1 POP SWAP2 SWAP1 POP JUMP JUMPDEST PUSH2 0x2A86 DUP2 PUSH2 0x2A71 JUMP JUMPDEST DUP3 MSTORE POP POP JUMP JUMPDEST PUSH1 0x0 PUSH2 0x120 DUP3 ADD SWAP1 POP PUSH2 0x2AA2 PUSH1 0x0 DUP4 ADD DUP10 PUSH2 0x26B0 JUMP JUMPDEST DUP2 DUP2 SUB PUSH1 0x20 DUP4 ADD MSTORE PUSH2 0x2AB4 DUP2 DUP9 PUSH2 0x2945 JUMP JUMPDEST SWAP1 POP PUSH2 0x2AC3 PUSH1 0x40 DUP4 ADD DUP8 PUSH2 0x29B7 JUMP JUMPDEST PUSH2 0x2AD0 PUSH1 0x60 DUP4 ADD DUP7 PUSH2 0x25F8 JUMP JUMPDEST PUSH2 0x2ADD PUSH1 0x80 DUP4 ADD DUP6 PUSH2 0x2A1A JUMP JUMPDEST PUSH2 0x2AEB PUSH2 0x100 DUP4 ADD DUP5 PUSH2 0x2A7D JUMP JUMPDEST SWAP8 SWAP7 POP POP POP POP POP POP POP JUMP JUMPDEST PUSH2 0x2AFF DUP2 PUSH2 0x269E JUMP JUMPDEST DUP2 EQ PUSH2 0x2B0A JUMPI PUSH1 0x0 DUP1 REVERT JUMPDEST POP JUMP JUMPDEST PUSH1 0x0 DUP2 CALLDATALOAD SWAP1 POP PUSH2 0x2B1C DUP2 PUSH2 0x2AF6 JUMP JUMPDEST SWAP3 SWAP2 POP POP JUMP JUMPDEST PUSH1 0x0 PUSH1 0x20 DUP3 DUP5 SUB SLT ISZERO PUSH2 0x2B38 JUMPI PUSH2 0x2B37 PUSH2 0x258B JUMP JUMPDEST JUMPDEST PUSH1 0x0 PUSH2 0x2B46 DUP5 DUP3 DUP6 ADD PUSH2 0x2B0D JUMP JUMPDEST SWAP2 POP POP SWAP3 SWAP2 POP POP JUMP JUMPDEST PUSH1 0x0 DUP1 REVERT JUMPDEST PUSH1 0x0 DUP1 REVERT JUMPDEST PUSH32 0x4E487B7100000000000000000000000000000000000000000000000000000000 PUSH1 0x0 MSTORE PUSH1 0x41 PUSH1 0x4 MSTORE PUSH1 0x24 PUSH1 0x0 REVERT JUMPDEST PUSH2 0x2B91 DUP3 PUSH2 0x2934 JUMP JUMPDEST DUP2 ADD DUP2 DUP2 LT PUSH8 0xFFFFFFFFFFFFFFFF DUP3 GT OR ISZERO PUSH2 0x2BB0 JUMPI PUSH2 0x2BAF PUSH2 0x2B59 JUMP JUMPDEST JUMPDEST DUP1 PUSH1 0x40 MSTORE POP POP POP JUMP JUMPDEST PUSH1 0x0 PUSH2 0x2BC3 PUSH2 0x2581 JUMP JUMPDEST SWAP1 POP PUSH2 0x2BCF DUP3 DUP3 PUSH2 0x2B88 JUMP JUMPDEST SWAP2 SWAP1 POP JUMP JUMPDEST PUSH1 0x0 PUSH8 0xFFFFFFFFFFFFFFFF DUP3 GT ISZERO PUSH2 0x2BEF JUMPI PUSH2 0x2BEE PUSH2 0x2B59 JUMP JUMPDEST JUMPDEST PUSH2 0x2BF8 DUP3 PUSH2 0x2934 JUMP JUMPDEST SWAP1 POP PUSH1 0x20 DUP2 ADD SWAP1 POP SWAP2 SWAP1 POP JUMP JUMPDEST DUP3 DUP2 DUP4 CALLDATACOPY PUSH1 0x0 DUP4 DUP4 ADD MSTORE POP POP POP JUMP JUMPDEST PUSH1 0x0 PUSH2 0x2C27 PUSH2 0x2C22 DUP5 PUSH2 0x2BD4 JUMP JUMPDEST PUSH2 0x2BB9 JUMP JUMPDEST SWAP1 POP DUP3 DUP2 MSTORE PUSH1 0x20 DUP2 ADD DUP5 DUP5 DUP5 ADD GT ISZERO PUSH2 0x2C43 JUMPI PUSH2 0x2C42 PUSH2 0x2B54 JUMP JUMPDEST JUMPDEST PUSH2 0x2C4E DUP5 DUP3 DUP6 PUSH2 0x2C05 JUMP JUMPDEST POP SWAP4 SWAP3 POP POP POP JUMP JUMPDEST PUSH1 0x0 DUP3 PUSH1 0x1F DUP4 ADD SLT PUSH2 0x2C6B JUMPI PUSH2 0x2C6A PUSH2 0x2B4F JUMP JUMPDEST JUMPDEST DUP2 CALLDATALOAD PUSH2 0x2C7B DUP5 DUP3 PUSH1 0x20 DUP7 ADD PUSH2 0x2C14 JUMP JUMPDEST SWAP2 POP POP SWAP3 SWAP2 POP POP JUMP JUMPDEST PUSH1 0x0 DUP1 PUSH1 0x0 PUSH1 0x60 DUP5 DUP7 SUB SLT ISZERO PUSH2 0x2C9D JUMPI PUSH2 0x2C9C PUSH2 0x258B JUMP JUMPDEST JUMPDEST PUSH1 0x0 PUSH2 0x2CAB DUP7 DUP3 DUP8 ADD PUSH2 0x25B6 JUMP JUMPDEST SWAP4 POP POP PUSH1 0x20 DUP5 ADD CALLDATALOAD PUSH8 0xFFFFFFFFFFFFFFFF DUP2 GT ISZERO PUSH2 0x2CCC JUMPI PUSH2 0x2CCB PUSH2 0x2590 JUMP JUMPDEST JUMPDEST PUSH2 0x2CD8 DUP7 DUP3 DUP8 ADD PUSH2 0x2C56 JUMP JUMPDEST SWAP3 POP POP PUSH1 0x40 PUSH2 0x2CE9 DUP7 DUP3 DUP8 ADD PUSH2 0x274D JUMP JUMPDEST SWAP2 POP POP SWAP3 POP SWAP3 POP SWAP3 JUMP JUMPDEST PUSH32 0x47616D6520646F6573206E6F7420657869737400000000000000000000000000 PUSH1 0x0 DUP3 ADD MSTORE POP JUMP JUMPDEST PUSH1 0x0 PUSH2 0x2D29 PUSH1 0x13 DUP4 PUSH2 0x28F9 JUMP JUMPDEST SWAP2 POP PUSH2 0x2D34 DUP3 PUSH2 0x2CF3 JUMP JUMPDEST PUSH1 0x20 DUP3 ADD SWAP1 POP SWAP2 SWAP1 POP JUMP JUMPDEST PUSH1 0x0 PUSH1 0x20 DUP3 ADD SWAP1 POP DUP2 DUP2 SUB PUSH1 0x0 DUP4 ADD MSTORE PUSH2 0x2D58 DUP2 PUSH2 0x2D1C JUMP JUMPDEST SWAP1 POP SWAP2 SWAP1 POP JUMP JUMPDEST PUSH32 0x4E487B7100000000000000000000000000000000000000000000000000000000 PUSH1 0x0 MSTORE PUSH1 0x32 PUSH1 0x4 MSTORE PUSH1 0x24 PUSH1 0x0 REVERT JUMPDEST PUSH32 0x5374616B6520616D6F756E74206D757374206265206772656174657220746861 PUSH1 0x0 DUP3 ADD MSTORE PUSH32 0x6E20300000000000000000000000000000000000000000000000000000000000 PUSH1 0x20 DUP3 ADD MSTORE POP JUMP JUMPDEST PUSH1 0x0 PUSH2 0x2DEA PUSH1 0x23 DUP4 PUSH2 0x28F9 JUMP JUMPDEST SWAP2 POP PUSH2 0x2DF5 DUP3 PUSH2 0x2D8E JUMP JUMPDEST PUSH1 0x40 DUP3 ADD SWAP1 POP SWAP2 SWAP1 POP JUMP JUMPDEST PUSH1 0x0 PUSH1 0x20 DUP3 ADD SWAP1 POP DUP2 DUP2 SUB PUSH1 0x0 DUP4 ADD MSTORE PUSH2 0x2E19 DUP2 PUSH2 0x2DDD JUMP JUMPDEST SWAP1 POP SWAP2 SWAP1 POP JUMP JUMPDEST PUSH32 0x4E487B7100000000000000000000000000000000000000000000000000000000 PUSH1 0x0 MSTORE PUSH1 0x11 PUSH1 0x4 MSTORE PUSH1 0x24 PUSH1 0x0 REVERT JUMPDEST PUSH1 0x0 PUSH2 0x2E5A DUP3 PUSH2 0x2595 JUMP JUMPDEST SWAP2 POP PUSH32 0xFFFFFFFFFFFFFFFFFFFFFFFFFFFFFFFFFFFFFFFFFFFFFFFFFFFFFFFFFFFFFFFF DUP3 SUB PUSH2 0x2E8C JUMPI PUSH2 0x2E8B PUSH2 0x2E20 JUMP JUMPDEST JUMPDEST PUSH1 0x1 DUP3 ADD SWAP1 POP SWAP2 SWAP1 POP JUMP JUMPDEST PUSH32 0x47616D65206E6F7420696E2070726F6772657373000000000000000000000000 PUSH1 0x0 DUP3 ADD MSTORE POP JUMP JUMPDEST PUSH1 0x0 PUSH2 0x2ECD PUSH1 0x14 DUP4 PUSH2 0x28F9 JUMP JUMPDEST SWAP2 POP PUSH2 0x2ED8 DUP3 PUSH2 0x2E97 JUMP JUMPDEST PUSH1 0x20 DUP3 ADD SWAP1 POP SWAP2 SWAP1 POP JUMP JUMPDEST PUSH1 0x0 PUSH1 0x20 DUP3 ADD SWAP1 POP DUP2 DUP2 SUB PUSH1 0x0 DUP4 ADD MSTORE PUSH2 0x2EFC DUP2 PUSH2 0x2EC0 JUMP JUMPDEST SWAP1 POP SWAP2 SWAP1 POP JUMP JUMPDEST PUSH32 0x4E6F74207265676973746572656420666F7220746869732067616D6500000000 PUSH1 0x0 DUP3 ADD MSTORE POP JUMP JUMPDEST PUSH1 0x0 PUSH2 0x2F39 PUSH1 0x1C DUP4 PUSH2 0x28F9 JUMP JUMPDEST SWAP2 POP PUSH2 0x2F44 DUP3 PUSH2 0x2F03 JUMP JUMPDEST PUSH1 0x20 DUP3 ADD SWAP1 POP SWAP2 SWAP1 POP JUMP JUMPDEST PUSH1 0x0 PUSH1 0x20 DUP3 ADD SWAP1 POP DUP2 DUP2 SUB PUSH1 0x0 DUP4 ADD MSTORE PUSH2 0x2F68 DUP2 PUSH2 0x2F2C JUMP JUMPDEST SWAP1 POP SWAP2 SWAP1 POP JUMP JUMPDEST PUSH32 0x4E6F7420796F7572207475726E00000000000000000000000000000000000000 PUSH1 0x0 DUP3 ADD MSTORE POP JUMP JUMPDEST PUSH1 0x0 PUSH2 0x2FA5 PUSH1 0xD DUP4 PUSH2 0x28F9 JUMP JUMPDEST SWAP2 POP PUSH2 0x2FB0 DUP3 PUSH2 0x2F6F JUMP JUMPDEST PUSH1 0x20 DUP3 ADD SWAP1 POP SWAP2 SWAP1 POP JUMP JUMPDEST PUSH1 0x0 PUSH1 0x20 DUP3 ADD SWAP1 POP DUP2 DUP2 SUB PUSH1 0x0 DUP4 ADD MSTORE PUSH2 0x2FD4 DUP2 PUSH2 0x2F98 JUMP JUMPDEST SWAP1 POP SWAP2 SWAP1 POP JUMP JUMPDEST PUSH32 0x496E76616C696420746F6B656E20696E64657800000000000000000000000000 PUSH1 0x0 DUP3 ADD MSTORE POP JUMP JUMPDEST PUSH1 0x0 PUSH2 0x3011 PUSH1 0x13 DUP4 PUSH2 0x28F9 JUMP JUMPDEST SWAP2 POP PUSH2 0x301C DUP3 PUSH2 0x2FDB JUMP JUMPDEST PUSH1 0x20 DUP3 ADD SWAP1 POP SWAP2 SWAP1 POP JUMP JUMPDEST PUSH1 0x0 PUSH1 0x20 DUP3 ADD SWAP1 POP DUP2 DUP2 SUB PUSH1 0x0 DUP4 ADD MSTORE PUSH2 0x3040 DUP2 PUSH2 0x3004 JUMP JUMPDEST SWAP1 POP SWAP2 SWAP1 POP JUMP JUMPDEST PUSH32 0x47616D6520616C72656164792073746172746564206F722066696E6973686564 PUSH1 0x0 DUP3 ADD MSTORE POP JUMP JUMPDEST PUSH1 0x0 PUSH2 0x307D PUSH1 0x20 DUP4 PUSH2 0x28F9 JUMP JUMPDEST SWAP2 POP PUSH2 0x3088 DUP3 PUSH2 0x3047 JUMP JUMPDEST PUSH1 0x20 DUP3 ADD SWAP1 POP SWAP2 SWAP1 POP JUMP JUMPDEST PUSH1 0x0 PUSH1 0x20 DUP3 ADD SWAP1 POP DUP2 DUP2 SUB PUSH1 0x0 DUP4 ADD MSTORE PUSH2 0x30AC DUP2 PUSH2 0x3070 JUMP JUMPDEST SWAP1 POP SWAP2 SWAP1 POP JUMP JUMPDEST PUSH32 0x416C7265616479207374616B6564000000000000000000000000000000000000 PUSH1 0x0 DUP3 ADD MSTORE POP JUMP JUMPDEST PUSH1 0x0 PUSH2 0x30E9 PUSH1 0xE DUP4 PUSH2 0x28F9 JUMP JUMPDEST SWAP2 POP PUSH2 0x30F4 DUP3 PUSH2 0x30B3 JUMP JUMPDEST PUSH1 0x20 DUP3 ADD SWAP1 POP SWAP2 SWAP1 POP JUMP JUMPDEST PUSH1 0x0 PUSH1 0x20 DUP3 ADD SWAP1 POP DUP2 DUP2 SUB PUSH1 0x0 DUP4 ADD MSTORE PUSH2 0x3118 DUP2 PUSH2 0x30DC JUMP JUMPDEST SWAP1 POP SWAP2 SWAP1 POP JUMP JUMPDEST PUSH1 0x0 PUSH1 0x60 DUP3 ADD SWAP1 POP PUSH2 0x3134 PUSH1 0x0 DUP4 ADD DUP7 PUSH2 0x26B0 JUMP JUMPDEST PUSH2 0x3141 PUSH1 0x20 DUP4 ADD DUP6 PUSH2 0x26B0 JUMP JUMPDEST PUSH2 0x314E PUSH1 0x40 DUP4 ADD DUP5 PUSH2 0x25F8 JUMP JUMPDEST SWAP5 SWAP4 POP POP POP POP JUMP JUMPDEST PUSH2 0x315F DUP2 PUSH2 0x2A71 JUMP JUMPDEST DUP2 EQ PUSH2 0x316A JUMPI PUSH1 0x0 DUP1 REVERT JUMPDEST POP JUMP JUMPDEST PUSH1 0x0 DUP2 MLOAD SWAP1 POP PUSH2 0x317C DUP2 PUSH2 0x3156 JUMP JUMPDEST SWAP3 SWAP2 POP POP JUMP JUMPDEST PUSH1 0x0 PUSH1 0x20 DUP3 DUP5 SUB SLT ISZERO PUSH2 0x3198 JUMPI PUSH2 0x3197 PUSH2 0x258B JUMP JUMPDEST JUMPDEST PUSH1 0x0 PUSH2 0x31A6 DUP5 DUP3 DUP6 ADD PUSH2 0x316D JUMP JUMPDEST SWAP2 POP POP SWAP3 SWAP2 POP POP JUMP JUMPDEST PUSH32 0x546F6B656E207472616E73666572206661696C65640000000000000000000000 PUSH1 0x0 DUP3 ADD MSTORE POP JUMP JUMPDEST PUSH1 0x0 PUSH2 0x31E5 PUSH1 0x15 DUP4 PUSH2 0x28F9 JUMP JUMPDEST SWAP2 POP PUSH2 0x31F0 DUP3 PUSH2 0x31AF JUMP JUMPDEST PUSH1 0x20 DUP3 ADD SWAP1 POP SWAP2 SWAP1 POP JUMP JUMPDEST PUSH1 0x0 PUSH1 0x20 DUP3 ADD SWAP1 POP DUP2 DUP2 SUB PUSH1 0x0 DUP4 ADD MSTORE PUSH2 0x3214 DUP2 PUSH2 0x31D8 JUMP JUMPDEST SWAP1 POP SWAP2 SWAP1 POP JUMP JUMPDEST PUSH1 0x0 PUSH2 0x3226 DUP3 PUSH2 0x2595 JUMP JUMPDEST SWAP2 POP PUSH2 0x3231 DUP4 PUSH2 0x2595 JUMP JUMPDEST SWAP3 POP DUP3 DUP3 ADD SWAP1 POP DUP1 DUP3 GT ISZERO PUSH2 0x3249 JUMPI PUSH2 0x3248 PUSH2 0x2E20 JUMP JUMPDEST JUMPDEST SWAP3 SWAP2 POP POP JUMP JUMPDEST PUSH32 0x496E76616C696420706C6179657220696E646578000000000000000000000000 PUSH1 0x0 DUP3 ADD MSTORE POP JUMP JUMPDEST PUSH1 0x0 PUSH2 0x3285 PUSH1 0x14 DUP4 PUSH2 0x28F9 JUMP JUMPDEST SWAP2 POP PUSH2 0x3290 DUP3 PUSH2 0x324F JUMP JUMPDEST PUSH1 0x20 DUP3 ADD SWAP1 POP SWAP2 SWAP1 POP JUMP JUMPDEST PUSH1 0x0 PUSH1 0x20 DUP3 ADD SWAP1 POP DUP2 DUP2 SUB PUSH1 0x0 DUP4 ADD MSTORE PUSH2 0x32B4 DUP2 PUSH2 0x3278 JUMP JUMPDEST SWAP1 POP SWAP2 SWAP1 POP JUMP JUMPDEST PUSH32 0x4E487B7100000000000000000000000000000000000000000000000000000000 PUSH1 0x0 MSTORE PUSH1 0x22 PUSH1 0x4 MSTORE PUSH1 0x24 PUSH1 0x0 REVERT JUMPDEST PUSH1 0x0 PUSH1 0x2 DUP3 DIV SWAP1 POP PUSH1 0x1 DUP3 AND DUP1 PUSH2 0x3302 JUMPI PUSH1 0x7F DUP3 AND SWAP2 POP JUMPDEST PUSH1 0x20 DUP3 LT DUP2 SUB PUSH2 0x3315 JUMPI PUSH2 0x3314 PUSH2 0x32BB JUMP JUMPDEST JUMPDEST POP SWAP2 SWAP1 POP JUMP JUMPDEST PUSH1 0x0 DUP2 MLOAD SWAP1 POP PUSH2 0x332A DUP2 PUSH2 0x259F JUMP JUMPDEST SWAP3 SWAP2 POP POP JUMP JUMPDEST PUSH1 0x0 PUSH1 0x20 DUP3 DUP5 SUB SLT ISZERO PUSH2 0x3346 JUMPI PUSH2 0x3345 PUSH2 0x258B JUMP JUMPDEST JUMPDEST PUSH1 0x0 PUSH2 0x3354 DUP5 DUP3 DUP6 ADD PUSH2 0x331B JUMP JUMPDEST SWAP2 POP POP SWAP3 SWAP2 POP POP JUMP JUMPDEST PUSH1 0x0 PUSH1 0x40 DUP3 ADD SWAP1 POP PUSH2 0x3372 PUSH1 0x0 DUP4 ADD DUP6 PUSH2 0x26B0 JUMP JUMPDEST PUSH2 0x337F PUSH1 0x20 DUP4 ADD DUP5 PUSH2 0x25F8 JUMP JUMPDEST SWAP4 SWAP3 POP POP POP JUMP JUMPDEST PUSH32 0x47616D652069732066756C6C0000000000000000000000000000000000000000 PUSH1 0x0 DUP3 ADD MSTORE POP JUMP JUMPDEST PUSH1 0x0 PUSH2 0x33BC PUSH1 0xC DUP4 PUSH2 0x28F9 JUMP JUMPDEST SWAP2 POP PUSH2 0x33C7 DUP3 PUSH2 0x3386 JUMP JUMPDEST PUSH1 0x20 DUP3 ADD SWAP1 POP SWAP2 SWAP1 POP JUMP JUMPDEST PUSH1 0x0 PUSH1 0x20 DUP3 ADD SWAP1 POP DUP2 DUP2 SUB PUSH1 0x0 DUP4 ADD MSTORE PUSH2 0x33EB DUP2 PUSH2 0x33AF JUMP JUMPDEST SWAP1 POP SWAP2 SWAP1 POP JUMP JUMPDEST PUSH32 0x436F6C6F7220616C72656164792074616B656E00000000000000000000000000 PUSH1 0x0 DUP3 ADD MSTORE POP JUMP JUMPDEST PUSH1 0x0 PUSH2 0x3428 PUSH1 0x13 DUP4 PUSH2 0x28F9 JUMP JUMPDEST SWAP2 POP PUSH2 0x3433 DUP3 PUSH2 0x33F2 JUMP JUMPDEST PUSH1 0x20 DUP3 ADD SWAP1 POP SWAP2 SWAP1 POP JUMP JUMPDEST PUSH1 0x0 PUSH1 0x20 DUP3 ADD SWAP1 POP DUP2 DUP2 SUB PUSH1 0x0 DUP4 ADD MSTORE PUSH2 0x3457 DUP2 PUSH2 0x341B JUMP JUMPDEST SWAP1 POP SWAP2 SWAP1 POP JUMP JUMPDEST PUSH32 0x416C7265616479207265676973746572656420666F7220612067616D65000000 PUSH1 0x0 DUP3 ADD MSTORE POP JUMP JUMPDEST PUSH1 0x0 PUSH2 0x3494 PUSH1 0x1D DUP4 PUSH2 0x28F9 JUMP JUMPDEST SWAP2 POP PUSH2 0x349F DUP3 PUSH2 0x345E JUMP JUMPDEST PUSH1 0x20 DUP3 ADD SWAP1 POP SWAP2 SWAP1 POP JUMP JUMPDEST PUSH1 0x0 PUSH1 0x20 DUP3 ADD SWAP1 POP DUP2 DUP2 SUB PUSH1 0x0 DUP4 ADD MSTORE PUSH2 0x34C3 DUP2 PUSH2 0x3487 JUMP JUMPDEST SWAP1 POP SWAP2 SWAP1 POP JUMP JUMPDEST PUSH32 0x4E616D652063616E6E6F7420626520656D707479000000000000000000000000 PUSH1 0x0 DUP3 ADD MSTORE POP JUMP JUMPDEST PUSH1 0x0 PUSH2 0x3500 PUSH1 0x14 DUP4 PUSH2 0x28F9 JUMP JUMPDEST SWAP2 POP PUSH2 0x350B DUP3 PUSH2 0x34CA JUMP JUMPDEST PUSH1 0x20 DUP3 ADD SWAP1 POP SWAP2 SWAP1 POP JUMP JUMPDEST PUSH1 0x0 PUSH1 0x20 DUP3 ADD SWAP1 POP DUP2 DUP2 SUB PUSH1 0x0 DUP4 ADD MSTORE PUSH2 0x352F DUP2 PUSH2 0x34F3 JUMP JUMPDEST SWAP1 POP SWAP2 SWAP1 POP JUMP JUMPDEST PUSH1 0x0 DUP2 SWAP1 POP DUP2 PUSH1 0x0 MSTORE PUSH1 0x20 PUSH1 0x0 KECCAK256 SWAP1 POP SWAP2 SWAP1 POP JUMP JUMPDEST PUSH1 0x0 PUSH1 0x20 PUSH1 0x1F DUP4 ADD DIV SWAP1 POP SWAP2 SWAP1 POP JUMP JUMPDEST PUSH1 0x0 DUP3 DUP3 SHL SWAP1 POP SWAP3 SWAP2 POP POP JUMP JUMPDEST PUSH1 0x0 PUSH1 0x8 DUP4 MUL PUSH2 0x3598 PUSH32 0xFFFFFFFFFFFFFFFFFFFFFFFFFFFFFFFFFFFFFFFFFFFFFFFFFFFFFFFFFFFFFFFF DUP3 PUSH2 0x355B JUMP JUMPDEST PUSH2 0x35A2 DUP7 DUP4 PUSH2 0x355B JUMP JUMPDEST SWAP6 POP DUP1 NOT DUP5 AND SWAP4 POP DUP1 DUP7 AND DUP5 OR SWAP3 POP POP POP SWAP4 SWAP3 POP POP POP JUMP JUMPDEST PUSH1 0x0 PUSH2 0x35D5 PUSH2 0x35D0 PUSH2 0x35CB DUP5 PUSH2 0x2595 JUMP JUMPDEST PUSH2 0x2874 JUMP JUMPDEST PUSH2 0x2595 JUMP JUMPDEST SWAP1 POP SWAP2 SWAP1 POP JUMP JUMPDEST PUSH1 0x0 DUP2 SWAP1 POP SWAP2 SWAP1 POP JUMP JUMPDEST PUSH2 0x35EF DUP4 PUSH2 0x35BA JUMP JUMPDEST PUSH2 0x3603 PUSH2 0x35FB DUP3 PUSH2 0x35DC JUMP JUMPDEST DUP5 DUP5 SLOAD PUSH2 0x3568 JUMP JUMPDEST DUP3 SSTORE POP POP POP POP JUMP JUMPDEST PUSH1 0x0 SWAP1 JUMP JUMPDEST PUSH2 0x3618 PUSH2 0x360B JUMP JUMPDEST PUSH2 0x3623 DUP2 DUP5 DUP5 PUSH2 0x35E6 JUMP JUMPDEST POP POP POP JUMP JUMPDEST JUMPDEST DUP2 DUP2 LT ISZERO PUSH2 0x3647 JUMPI PUSH2 0x363C PUSH1 0x0 DUP3 PUSH2 0x3610 JUMP JUMPDEST PUSH1 0x1 DUP2 ADD SWAP1 POP PUSH2 0x3629 JUMP JUMPDEST POP POP JUMP JUMPDEST PUSH1 0x1F DUP3 GT ISZERO PUSH2 0x368C JUMPI PUSH2 0x365D DUP2 PUSH2 0x3536 JUMP JUMPDEST PUSH2 0x3666 DUP5 PUSH2 0x354B JUMP JUMPDEST DUP2 ADD PUSH1 0x20 DUP6 LT ISZERO PUSH2 0x3675 JUMPI DUP2 SWAP1 POP JUMPDEST PUSH2 0x3689 PUSH2 0x3681 DUP6 PUSH2 0x354B JUMP JUMPDEST DUP4 ADD DUP3 PUSH2 0x3628 JUMP JUMPDEST POP POP JUMPDEST POP POP POP JUMP JUMPDEST PUSH1 0x0 DUP3 DUP3 SHR SWAP1 POP SWAP3 SWAP2 POP POP JUMP JUMPDEST PUSH1 0x0 PUSH2 0x36AF PUSH1 0x0 NOT DUP5 PUSH1 0x8 MUL PUSH2 0x3691 JUMP JUMPDEST NOT DUP1 DUP4 AND SWAP2 POP POP SWAP3 SWAP2 POP POP JUMP JUMPDEST PUSH1 0x0 PUSH2 0x36C8 DUP4 DUP4 PUSH2 0x369E JUMP JUMPDEST SWAP2 POP DUP3 PUSH1 0x2 MUL DUP3 OR SWAP1 POP SWAP3 SWAP2 POP POP JUMP JUMPDEST PUSH2 0x36E1 DUP3 PUSH2 0x28EE JUMP JUMPDEST PUSH8 0xFFFFFFFFFFFFFFFF DUP2 GT ISZERO PUSH2 0x36FA JUMPI PUSH2 0x36F9 PUSH2 0x2B59 JUMP JUMPDEST JUMPDEST PUSH2 0x3704 DUP3 SLOAD PUSH2 0x32EA JUMP JUMPDEST PUSH2 0x370F DUP3 DUP3 DUP6 PUSH2 0x364B JUMP JUMPDEST PUSH1 0x0 PUSH1 0x20 SWAP1 POP PUSH1 0x1F DUP4 GT PUSH1 0x1 DUP2 EQ PUSH2 0x3742 JUMPI PUSH1 0x0 DUP5 ISZERO PUSH2 0x3730 JUMPI DUP3 DUP8 ADD MLOAD SWAP1 POP JUMPDEST PUSH2 0x373A DUP6 DUP3 PUSH2 0x36BC JUMP JUMPDEST DUP7 SSTORE POP PUSH2 0x37A2 JUMP JUMPDEST PUSH1 0x1F NOT DUP5 AND PUSH2 0x3750 DUP7 PUSH2 0x3536 JUMP JUMPDEST PUSH1 0x0 JUMPDEST DUP3 DUP2 LT ISZERO PUSH2 0x3778 JUMPI DUP5 DUP10 ADD MLOAD DUP3 SSTORE PUSH1 0x1 DUP3 ADD SWAP2 POP PUSH1 0x20 DUP6 ADD SWAP5 POP PUSH1 0x20 DUP2 ADD SWAP1 POP PUSH2 0x3753 JUMP JUMPDEST DUP7 DUP4 LT ISZERO PUSH2 0x3795 JUMPI DUP5 DUP10 ADD MLOAD PUSH2 0x3791 PUSH1 0x1F DUP10 AND DUP3 PUSH2 0x369E JUMP JUMPDEST DUP4 SSTORE POP JUMPDEST PUSH1 0x1 PUSH1 0x2 DUP9 MUL ADD DUP9 SSTORE POP POP POP JUMPDEST POP POP POP POP POP POP JUMP JUMPDEST PUSH1 0x0 PUSH1 0x40 DUP3 ADD SWAP1 POP DUP2 DUP2 SUB PUSH1 0x0 DUP4 ADD MSTORE PUSH2 0x37C4 DUP2 DUP6 PUSH2 0x2945 JUMP JUMPDEST SWAP1 POP PUSH2 0x37D3 PUSH1 0x20 DUP4 ADD DUP5 PUSH2 0x29B7 JUMP JUMPDEST SWAP4 SWAP3 POP POP POP JUMP JUMPDEST PUSH1 0x0 DUP2 SWAP1 POP SWAP2 SWAP1 POP JUMP JUMPDEST PUSH2 0x37F5 PUSH2 0x37F0 DUP3 PUSH2 0x2595 JUMP JUMPDEST PUSH2 0x37DA JUMP JUMPDEST DUP3 MSTORE POP POP JUMP JUMPDEST PUSH1 0x0 DUP2 PUSH1 0x60 SHL SWAP1 POP SWAP2 SWAP1 POP JUMP JUMPDEST PUSH1 0x0 PUSH2 0x3813 DUP3 PUSH2 0x37FB JUMP JUMPDEST SWAP1 POP SWAP2 SWAP1 POP JUMP JUMPDEST PUSH1 0x0 PUSH2 0x3825 DUP3 PUSH2 0x3808 JUMP JUMPDEST SWAP1 POP SWAP2 SWAP1 POP JUMP JUMPDEST PUSH2 0x383D PUSH2 0x3838 DUP3 PUSH2 0x269E JUMP JUMPDEST PUSH2 0x381A JUMP JUMPDEST DUP3 MSTORE POP POP JUMP JUMPDEST PUSH1 0x0 PUSH2 0x384F DUP3 DUP8 PUSH2 0x37E4 JUMP JUMPDEST PUSH1 0x20 DUP3 ADD SWAP2 POP PUSH2 0x385F DUP3 DUP7 PUSH2 0x37E4 JUMP JUMPDEST PUSH1 0x20 DUP3 ADD SWAP2 POP PUSH2 0x386F DUP3 DUP6 PUSH2 0x382C JUMP JUMPDEST PUSH1 0x14 DUP3 ADD SWAP2 POP PUSH2 0x387F DUP3 DUP5 PUSH2 0x37E4 JUMP JUMPDEST PUSH1 0x20 DUP3 ADD SWAP2 POP DUP2 SWAP1 POP SWAP6 SWAP5 POP POP POP POP POP JUMP JUMPDEST PUSH32 0x4E487B7100000000000000000000000000000000000000000000000000000000 PUSH1 0x0 MSTORE PUSH1 0x12 PUSH1 0x4 MSTORE PUSH1 0x24 PUSH1 0x0 REVERT JUMPDEST PUSH1 0x0 PUSH2 0x38CB DUP3 PUSH2 0x2595 JUMP JUMPDEST SWAP2 POP PUSH2 0x38D6 DUP4 PUSH2 0x2595 JUMP JUMPDEST SWAP3 POP DUP3 PUSH2 0x38E6 JUMPI PUSH2 0x38E5 PUSH2 0x3891 JUMP JUMPDEST JUMPDEST DUP3 DUP3 MOD SWAP1 POP SWAP3 SWAP2 POP POP JUMP JUMPDEST PUSH1 0x0 PUSH1 0x60 DUP3 ADD SWAP1 POP PUSH2 0x3906 PUSH1 0x0 DUP4 ADD DUP7 PUSH2 0x25F8 JUMP JUMPDEST PUSH2 0x3913 PUSH1 0x20 DUP4 ADD DUP6 PUSH2 0x25F8 JUMP JUMPDEST PUSH2 0x3920 PUSH1 0x40 DUP4 ADD DUP5 PUSH2 0x25F8 JUMP JUMPDEST SWAP5 SWAP4 POP POP POP POP JUMP JUMPDEST PUSH32 0x506C61796572206E6F7420666F756E6400000000000000000000000000000000 PUSH1 0x0 DUP3 ADD MSTORE POP JUMP JUMPDEST PUSH1 0x0 PUSH2 0x395E PUSH1 0x10 DUP4 PUSH2 0x28F9 JUMP JUMPDEST SWAP2 POP PUSH2 0x3969 DUP3 PUSH2 0x3928 JUMP JUMPDEST PUSH1 0x20 DUP3 ADD SWAP1 POP SWAP2 SWAP1 POP JUMP JUMPDEST PUSH1 0x0 PUSH1 0x20 DUP3 ADD SWAP1 POP DUP2 DUP2 SUB PUSH1 0x0 DUP4 ADD MSTORE PUSH2 0x398D DUP2 PUSH2 0x3951 JUMP JUMPDEST SWAP1 POP SWAP2 SWAP1 POP JUMP JUMPDEST PUSH1 0x0 PUSH2 0x399F DUP3 PUSH2 0x2595 JUMP JUMPDEST SWAP2 POP PUSH2 0x39AA DUP4 PUSH2 0x2595 JUMP JUMPDEST SWAP3 POP DUP3 DUP3 SUB SWAP1 POP DUP2 DUP2 GT ISZERO PUSH2 0x39C2 JUMPI PUSH2 0x39C1 PUSH2 0x2E20 JUMP JUMPDEST JUMPDEST SWAP3 SWAP2 POP POP JUMP INVALID LOG2 PUSH5 0x6970667358 0x22 SLT KECCAK256 0xCD SWAP3 OR PUSH29 0x96FF27AB2E8B2C6ED085A864FD0166A5485839E33E63902BE1FF6AB564 PUSH20 0x6F6C634300081C00330000000000000000000000 "},"methodIdentifiers":{"BOARD_SIZE()":"dc4a3e95","HOME_STRETCH_SIZE()":"804c65ce","MAX_PLAYERS()":"4411b3eb","TOKENS_PER_PLAYER()":"92434bfd","WINNING_POSITION()":"c8a8c39d","colorStartPosition(uint8)":"24b4a93c","createGame(uint256)":"48e837b9","defaultStakeAmount()":"68eb3eec","emergencyWithdraw()":"db2e21bc","gameCounter()":"2e0be39a","games(uint256)":"117a5b90","getCurrentPlayer(uint256)":"26638631","getGameInfo(uint256)":"47e1d550","getPlayerInfo(uint256,uint256)":"862e95e1","ludoToken()":"79eca240","owner()":"8da5cb5b","playerToGame(address)":"fb4d50de","registerPlayer(uint256,string,uint8)":"f4b36ac4","renounceOwnership()":"715018a6","rollDiceAndMove(uint256,uint256)":"53170bb3","setDefaultStakeAmount(uint256)":"151c9166","stakeTokens(uint256)":"7547c7a3","transferOwnership(address)":"f2fde38b"}}}}}