{
  "_format": "hh-sol-artifact-1",
  "contractName": "Lottery",
  "sourceName": "contracts/Lottery.sol",
  "abi": [
    {
      "inputs": [],
      "stateMutability": "nonpayable",
      "type": "constructor"
    },
    {
      "inputs": [
        {
          "internalType": "address",
          "name": "have",
          "type": "address"
        },
        {
          "internalType": "address",
          "name": "want",
          "type": "address"
        }
      ],
      "name": "OnlyCoordinatorCanFulfill",
      "type": "error"
    },
    {
      "inputs": [
        {
          "internalType": "address",
          "name": "have",
          "type": "address"
        },
        {
          "internalType": "address",
          "name": "owner",
          "type": "address"
        },
        {
          "internalType": "address",
          "name": "coordinator",
          "type": "address"
        }
      ],
      "name": "OnlyOwnerOrCoordinator",
      "type": "error"
    },
    {
      "inputs": [],
      "name": "ZeroAddress",
      "type": "error"
    },
    {
      "anonymous": false,
      "inputs": [
        {
          "indexed": false,
          "internalType": "address",
          "name": "vrfCoordinator",
          "type": "address"
        }
      ],
      "name": "CoordinatorSet",
      "type": "event"
    },
    {
      "anonymous": false,
      "inputs": [
        {
          "indexed": true,
          "internalType": "address",
          "name": "from",
          "type": "address"
        },
        {
          "indexed": true,
          "internalType": "address",
          "name": "to",
          "type": "address"
        }
      ],
      "name": "OwnershipTransferRequested",
      "type": "event"
    },
    {
      "anonymous": false,
      "inputs": [
        {
          "indexed": true,
          "internalType": "address",
          "name": "from",
          "type": "address"
        },
        {
          "indexed": true,
          "internalType": "address",
          "name": "to",
          "type": "address"
        }
      ],
      "name": "OwnershipTransferred",
      "type": "event"
    },
    {
      "anonymous": false,
      "inputs": [
        {
          "indexed": false,
          "internalType": "address",
          "name": "player",
          "type": "address"
        }
      ],
      "name": "PlayerJoined",
      "type": "event"
    },
    {
      "anonymous": false,
      "inputs": [
        {
          "indexed": false,
          "internalType": "uint256",
          "name": "requestId",
          "type": "uint256"
        },
        {
          "indexed": false,
          "internalType": "uint256[]",
          "name": "randomWords",
          "type": "uint256[]"
        }
      ],
      "name": "RequestFulfilled",
      "type": "event"
    },
    {
      "anonymous": false,
      "inputs": [
        {
          "indexed": false,
          "internalType": "uint256",
          "name": "requestId",
          "type": "uint256"
        },
        {
          "indexed": false,
          "internalType": "uint32",
          "name": "numWords",
          "type": "uint32"
        }
      ],
      "name": "RequestSent",
      "type": "event"
    },
    {
      "anonymous": false,
      "inputs": [
        {
          "indexed": false,
          "internalType": "address",
          "name": "winner",
          "type": "address"
        }
      ],
      "name": "Winner",
      "type": "event"
    },
    {
      "inputs": [],
      "name": "acceptOwnership",
      "outputs": [],
      "stateMutability": "nonpayable",
      "type": "function"
    },
    {
      "inputs": [],
      "name": "callbackGasLimit",
      "outputs": [
        {
          "internalType": "uint32",
          "name": "",
          "type": "uint32"
        }
      ],
      "stateMutability": "view",
      "type": "function"
    },
    {
      "inputs": [
        {
          "internalType": "uint256",
          "name": "_requestId",
          "type": "uint256"
        }
      ],
      "name": "getRequestStatus",
      "outputs": [
        {
          "internalType": "bool",
          "name": "fulfilled",
          "type": "bool"
        },
        {
          "internalType": "uint256[]",
          "name": "randomWords",
          "type": "uint256[]"
        }
      ],
      "stateMutability": "view",
      "type": "function"
    },
    {
      "inputs": [],
      "name": "joinLottery",
      "outputs": [],
      "stateMutability": "payable",
      "type": "function"
    },
    {
      "inputs": [],
      "name": "keyHash",
      "outputs": [
        {
          "internalType": "bytes32",
          "name": "",
          "type": "bytes32"
        }
      ],
      "stateMutability": "view",
      "type": "function"
    },
    {
      "inputs": [],
      "name": "lastRequestId",
      "outputs": [
        {
          "internalType": "uint256",
          "name": "",
          "type": "uint256"
        }
      ],
      "stateMutability": "view",
      "type": "function"
    },
    {
      "inputs": [],
      "name": "numWords",
      "outputs": [
        {
          "internalType": "uint32",
          "name": "",
          "type": "uint32"
        }
      ],
      "stateMutability": "view",
      "type": "function"
    },
    {
      "inputs": [],
      "name": "owner",
      "outputs": [
        {
          "internalType": "address",
          "name": "",
          "type": "address"
        }
      ],
      "stateMutability": "view",
      "type": "function"
    },
    {
      "inputs": [
        {
          "internalType": "uint256",
          "name": "requestId",
          "type": "uint256"
        },
        {
          "internalType": "uint256[]",
          "name": "randomWords",
          "type": "uint256[]"
        }
      ],
      "name": "rawFulfillRandomWords",
      "outputs": [],
      "stateMutability": "nonpayable",
      "type": "function"
    },
    {
      "inputs": [],
      "name": "requestConfirmations",
      "outputs": [
        {
          "internalType": "uint16",
          "name": "",
          "type": "uint16"
        }
      ],
      "stateMutability": "view",
      "type": "function"
    },
    {
      "inputs": [
        {
          "internalType": "uint256",
          "name": "",
          "type": "uint256"
        }
      ],
      "name": "requestIds",
      "outputs": [
        {
          "internalType": "uint256",
          "name": "",
          "type": "uint256"
        }
      ],
      "stateMutability": "view",
      "type": "function"
    },
    {
      "inputs": [
        {
          "internalType": "uint256",
          "name": "",
          "type": "uint256"
        }
      ],
      "name": "s_requests",
      "outputs": [
        {
          "internalType": "bool",
          "name": "fulfilled",
          "type": "bool"
        },
        {
          "internalType": "bool",
          "name": "exists",
          "type": "bool"
        }
      ],
      "stateMutability": "view",
      "type": "function"
    },
    {
      "inputs": [],
      "name": "s_subscriptionId",
      "outputs": [
        {
          "internalType": "uint256",
          "name": "",
          "type": "uint256"
        }
      ],
      "stateMutability": "view",
      "type": "function"
    },
    {
      "inputs": [],
      "name": "s_vrfCoordinator",
      "outputs": [
        {
          "internalType": "contract IVRFCoordinatorV2Plus",
          "name": "",
          "type": "address"
        }
      ],
      "stateMutability": "view",
      "type": "function"
    },
    {
      "inputs": [
        {
          "internalType": "address",
          "name": "_vrfCoordinator",
          "type": "address"
        }
      ],
      "name": "setCoordinator",
      "outputs": [],
      "stateMutability": "nonpayable",
      "type": "function"
    },
    {
      "inputs": [
        {
          "internalType": "address",
          "name": "to",
          "type": "address"
        }
      ],
      "name": "transferOwnership",
      "outputs": [],
      "stateMutability": "nonpayable",
      "type": "function"
    }
  ],
  "bytecode": "0x60806040527f41abd96e3809d3ece1bf879f727d95ebc951a006ad06febb2e0278ec8c9fe1266005557f787d74caea10b2b357790d5b5247c2f63d1d91572a9846f780606e4d953677ae60001b60085562030d40600960006101000a81548163ffffffff021916908363ffffffff1602179055506003600960046101000a81548161ffff021916908361ffff1602179055506001600960066101000a81548163ffffffff021916908363ffffffff1602179055503480156100bf57600080fd5b50739ddfaca8183c41ad55329bdeed9f6a8d53168b1b338060008073ffffffffffffffffffffffffffffffffffffffff168273ffffffffffffffffffffffffffffffffffffffff1603610147576040517f08c379a000000000000000000000000000000000000000000000000000000000815260040161013e90610404565b60405180910390fd5b816000806101000a81548173ffffffffffffffffffffffffffffffffffffffff021916908373ffffffffffffffffffffffffffffffffffffffff160217905550600073ffffffffffffffffffffffffffffffffffffffff168173ffffffffffffffffffffffffffffffffffffffff16146101cb576101ca8161027b60201b60201c565b5b505050600073ffffffffffffffffffffffffffffffffffffffff168173ffffffffffffffffffffffffffffffffffffffff1603610234576040517fd92e233d00000000000000000000000000000000000000000000000000000000815260040160405180910390fd5b80600260006101000a81548173ffffffffffffffffffffffffffffffffffffffff021916908373ffffffffffffffffffffffffffffffffffffffff16021790555050610490565b3373ffffffffffffffffffffffffffffffffffffffff168173ffffffffffffffffffffffffffffffffffffffff16036102e9576040517f08c379a00000000000000000000000000000000000000000000000000000000081526004016102e090610470565b60405180910390fd5b80600160006101000a81548173ffffffffffffffffffffffffffffffffffffffff021916908373ffffffffffffffffffffffffffffffffffffffff1602179055508073ffffffffffffffffffffffffffffffffffffffff1660008054906101000a900473ffffffffffffffffffffffffffffffffffffffff1673ffffffffffffffffffffffffffffffffffffffff167fed8889f560326eb138920d842192f0eb3dd22b4f139c87a2c57538e05bae127860405160405180910390a350565b600082825260208201905092915050565b7f43616e6e6f7420736574206f776e657220746f207a65726f0000000000000000600082015250565b60006103ee6018836103a7565b91506103f9826103b8565b602082019050919050565b6000602082019050818103600083015261041d816103e1565b9050919050565b7f43616e6e6f74207472616e7366657220746f2073656c66000000000000000000600082015250565b600061045a6017836103a7565b915061046582610424565b602082019050919050565b600060208201905081810360008301526104898161044d565b9050919050565b611ec78061049f6000396000f3fe6080604052600436106100f35760003560e01c80638da5cb5b1161008a578063b0fb162f11610059578063b0fb162f146102e8578063d8a4676f14610313578063f2fde38b14610351578063fc2a88c31461037a576100f3565b80638da5cb5b1461022b5780638ea98117146102565780639eccacf61461027f578063a168fa89146102aa576100f3565b806379ba5097116100c657806379ba5097146101815780637ccfd7fc146101985780638796ba8c146101c35780638ac0002114610200576100f3565b80631fe543e3146100f857806324f746971461012157806361728f391461014c5780636c77f98914610177575b600080fd5b34801561010457600080fd5b5061011f600480360381019061011a9190611441565b6103a5565b005b34801561012d57600080fd5b5061013661046b565b60405161014391906114c0565b60405180910390f35b34801561015857600080fd5b50610161610481565b60405161016e91906114f4565b60405180910390f35b61017f610487565b005b34801561018d57600080fd5b5061019661066b565b005b3480156101a457600080fd5b506101ad610800565b6040516101ba91906114c0565b60405180910390f35b3480156101cf57600080fd5b506101ea60048036038101906101e5919061150f565b610816565b6040516101f7919061154b565b60405180910390f35b34801561020c57600080fd5b5061021561083a565b604051610222919061154b565b60405180910390f35b34801561023757600080fd5b50610240610840565b60405161024d91906115a7565b60405180910390f35b34801561026257600080fd5b5061027d600480360381019061027891906115ee565b610869565b005b34801561028b57600080fd5b50610294610a4a565b6040516102a1919061167a565b60405180910390f35b3480156102b657600080fd5b506102d160048036038101906102cc919061150f565b610a70565b6040516102df9291906116b0565b60405180910390f35b3480156102f457600080fd5b506102fd610aae565b60405161030a91906116f6565b60405180910390f35b34801561031f57600080fd5b5061033a6004803603810190610335919061150f565b610ac2565b6040516103489291906117cf565b60405180910390f35b34801561035d57600080fd5b50610378600480360381019061037391906115ee565b610bed565b005b34801561038657600080fd5b5061038f610c01565b60405161039c919061154b565b60405180910390f35b600260009054906101000a900473ffffffffffffffffffffffffffffffffffffffff1673ffffffffffffffffffffffffffffffffffffffff163373ffffffffffffffffffffffffffffffffffffffff161461045b5733600260009054906101000a900473ffffffffffffffffffffffffffffffffffffffff166040517f1cf993f40000000000000000000000000000000000000000000000000000000081526004016104529291906117ff565b60405180910390fd5b610466838383610c07565b505050565b600960009054906101000a900463ffffffff1681565b60085481565b662386f26fc1000034146104d0576040517f08c379a00000000000000000000000000000000000000000000000000000000081526004016104c7906118ab565b60405180910390fd5b600760003373ffffffffffffffffffffffffffffffffffffffff1673ffffffffffffffffffffffffffffffffffffffff16815260200190815260200160002060009054906101000a900460ff161561055d576040517f08c379a000000000000000000000000000000000000000000000000000000000815260040161055490611917565b60405180910390fd5b6006339080600181540180825580915050600190039060005260206000200160009091909190916101000a81548173ffffffffffffffffffffffffffffffffffffffff021916908373ffffffffffffffffffffffffffffffffffffffff1602179055506001600760003373ffffffffffffffffffffffffffffffffffffffff1673ffffffffffffffffffffffffffffffffffffffff16815260200190815260200160002060006101000a81548160ff0219169083151502179055507f31e760aa525306aba638a784082a013b6a1cc0a9a1789f3f22281c0453b10b1f3360405161064791906115a7565b60405180910390a1600a6006805490501061066957610667600133610d23565b505b565b600160009054906101000a900473ffffffffffffffffffffffffffffffffffffffff1673ffffffffffffffffffffffffffffffffffffffff163373ffffffffffffffffffffffffffffffffffffffff16146106fb576040517f08c379a00000000000000000000000000000000000000000000000000000000081526004016106f290611983565b60405180910390fd5b60008060009054906101000a900473ffffffffffffffffffffffffffffffffffffffff169050336000806101000a81548173ffffffffffffffffffffffffffffffffffffffff021916908373ffffffffffffffffffffffffffffffffffffffff1602179055506000600160006101000a81548173ffffffffffffffffffffffffffffffffffffffff021916908373ffffffffffffffffffffffffffffffffffffffff1602179055503373ffffffffffffffffffffffffffffffffffffffff168173ffffffffffffffffffffffffffffffffffffffff167f8be0079c531659141344cd1fd0a4f28419497f9722a3daafe3b4186f6b6457e060405160405180910390a350565b600960069054906101000a900463ffffffff1681565b600a818154811061082657600080fd5b906000526020600020016000915090505481565b60055481565b60008060009054906101000a900473ffffffffffffffffffffffffffffffffffffffff16905090565b610871610840565b73ffffffffffffffffffffffffffffffffffffffff163373ffffffffffffffffffffffffffffffffffffffff16141580156108fa5750600260009054906101000a900473ffffffffffffffffffffffffffffffffffffffff1673ffffffffffffffffffffffffffffffffffffffff163373ffffffffffffffffffffffffffffffffffffffff1614155b156109695733610908610840565b600260009054906101000a900473ffffffffffffffffffffffffffffffffffffffff166040517f061db9c1000000000000000000000000000000000000000000000000000000008152600401610960939291906119a3565b60405180910390fd5b600073ffffffffffffffffffffffffffffffffffffffff168173ffffffffffffffffffffffffffffffffffffffff16036109cf576040517fd92e233d00000000000000000000000000000000000000000000000000000000815260040160405180910390fd5b80600260006101000a81548173ffffffffffffffffffffffffffffffffffffffff021916908373ffffffffffffffffffffffffffffffffffffffff1602179055507fd1a6a14209a385a964d036e404cb5cfb71f4000cdb03c9366292430787261be681604051610a3f91906115a7565b60405180910390a150565b600260009054906101000a900473ffffffffffffffffffffffffffffffffffffffff1681565b60036020528060005260406000206000915090508060000160009054906101000a900460ff16908060000160019054906101000a900460ff16905082565b600960049054906101000a900461ffff1681565b600060606003600084815260200190815260200160002060000160019054906101000a900460ff16610b29576040517f08c379a0000000000000000000000000000000000000000000000000000000008152600401610b2090611a26565b60405180910390fd5b6000600360008581526020019081526020016000206040518060600160405290816000820160009054906101000a900460ff161515151581526020016000820160019054906101000a900460ff1615151515815260200160018201805480602002602001604051908101604052809291908181526020018280548015610bce57602002820191906000526020600020905b815481526020019060010190808311610bba575b5050505050815250509050806000015181604001519250925050915091565b610bf5611001565b610bfe81611091565b50565b600b5481565b6003600084815260200190815260200160002060000160019054906101000a900460ff16610c6a576040517f08c379a0000000000000000000000000000000000000000000000000000000008152600401610c6190611a26565b60405180910390fd5b60016003600085815260200190815260200160002060000160006101000a81548160ff0219169083151502179055508181600360008681526020019081526020016000206001019190610cbe9291906112e5565b50610ce282826000818110610cd657610cd5611a46565b5b905060200201356111bd565b507ffe2e2d779dba245964d4e3ef9b994be63856fd568bf7d3ca9e224755cb1bd54d838383604051610d1693929190611adf565b60405180910390a1505050565b6000600260009054906101000a900473ffffffffffffffffffffffffffffffffffffffff1673ffffffffffffffffffffffffffffffffffffffff16639b1c385e6040518060c0016040528060085481526020016005548152602001600960049054906101000a900461ffff1661ffff168152602001600960009054906101000a900463ffffffff1663ffffffff168152602001600960069054906101000a900463ffffffff1663ffffffff168152602001610ded604051806020016040528089151581525061124d565b8152506040518263ffffffff1660e01b8152600401610e0c9190611c57565b6020604051808303816000875af1158015610e2b573d6000803e3d6000fd5b505050506040513d601f19601f82011682018060405250810190610e4f9190611c8e565b90506040518060600160405280600015158152602001600115158152602001600067ffffffffffffffff811115610e8957610e88611cbb565b5b604051908082528060200260200182016040528015610eb75781602001602082028036833780820191505090505b508152506003600083815260200190815260200160002060008201518160000160006101000a81548160ff02191690831515021790555060208201518160000160016101000a81548160ff0219169083151502179055506040820151816001019080519060200190610f2a929190611332565b50905050600a81908060018154018082558091505060019003906000526020600020016000909190919091505580600b819055507fcc58b13ad3eab50626c6a6300b1d139cd6ebb1688a7cced9461c2f7e762665ee81600960069054906101000a900463ffffffff16604051610fa1929190611cea565b60405180910390a1816004600083815260200190815260200160002060006101000a81548173ffffffffffffffffffffffffffffffffffffffff021916908373ffffffffffffffffffffffffffffffffffffffff16021790555092915050565b60008054906101000a900473ffffffffffffffffffffffffffffffffffffffff1673ffffffffffffffffffffffffffffffffffffffff163373ffffffffffffffffffffffffffffffffffffffff161461108f576040517f08c379a000000000000000000000000000000000000000000000000000000000815260040161108690611d5f565b60405180910390fd5b565b3373ffffffffffffffffffffffffffffffffffffffff168173ffffffffffffffffffffffffffffffffffffffff16036110ff576040517f08c379a00000000000000000000000000000000000000000000000000000000081526004016110f690611dcb565b60405180910390fd5b80600160006101000a81548173ffffffffffffffffffffffffffffffffffffffff021916908373ffffffffffffffffffffffffffffffffffffffff1602179055508073ffffffffffffffffffffffffffffffffffffffff1660008054906101000a900473ffffffffffffffffffffffffffffffffffffffff1673ffffffffffffffffffffffffffffffffffffffff167fed8889f560326eb138920d842192f0eb3dd22b4f139c87a2c57538e05bae127860405160405180910390a350565b600080600a836111cd9190611e1a565b90507f745c90b656b4aafe296c8ca35aeacfe56cb96c90e1d320e5da643fff1051b6c0336040516111fe91906115a7565b60405180910390a16006818154811061121a57611219611a46565b5b9060005260206000200160009054906101000a900473ffffffffffffffffffffffffffffffffffffffff16915050919050565b60607f92fd13387c7fe7befbc38d303d6468778fb9731bc4583f17d92989c6fcfdeaaa826040516024016112819190611e76565b604051602081830303815290604052907bffffffffffffffffffffffffffffffffffffffffffffffffffffffff19166020820180517bffffffffffffffffffffffffffffffffffffffffffffffffffffffff83818316178352505050509050919050565b828054828255906000526020600020908101928215611321579160200282015b82811115611320578235825591602001919060010190611305565b5b50905061132e919061137f565b5090565b82805482825590600052602060002090810192821561136e579160200282015b8281111561136d578251825591602001919060010190611352565b5b50905061137b919061137f565b5090565b5b80821115611398576000816000905550600101611380565b5090565b600080fd5b600080fd5b6000819050919050565b6113b9816113a6565b81146113c457600080fd5b50565b6000813590506113d6816113b0565b92915050565b600080fd5b600080fd5b600080fd5b60008083601f840112611401576114006113dc565b5b8235905067ffffffffffffffff81111561141e5761141d6113e1565b5b60208301915083602082028301111561143a576114396113e6565b5b9250929050565b60008060006040848603121561145a5761145961139c565b5b6000611468868287016113c7565b935050602084013567ffffffffffffffff811115611489576114886113a1565b5b611495868287016113eb565b92509250509250925092565b600063ffffffff82169050919050565b6114ba816114a1565b82525050565b60006020820190506114d560008301846114b1565b92915050565b6000819050919050565b6114ee816114db565b82525050565b600060208201905061150960008301846114e5565b92915050565b6000602082840312156115255761152461139c565b5b6000611533848285016113c7565b91505092915050565b611545816113a6565b82525050565b6000602082019050611560600083018461153c565b92915050565b600073ffffffffffffffffffffffffffffffffffffffff82169050919050565b600061159182611566565b9050919050565b6115a181611586565b82525050565b60006020820190506115bc6000830184611598565b92915050565b6115cb81611586565b81146115d657600080fd5b50565b6000813590506115e8816115c2565b92915050565b6000602082840312156116045761160361139c565b5b6000611612848285016115d9565b91505092915050565b6000819050919050565b600061164061163b61163684611566565b61161b565b611566565b9050919050565b600061165282611625565b9050919050565b600061166482611647565b9050919050565b61167481611659565b82525050565b600060208201905061168f600083018461166b565b92915050565b60008115159050919050565b6116aa81611695565b82525050565b60006040820190506116c560008301856116a1565b6116d260208301846116a1565b9392505050565b600061ffff82169050919050565b6116f0816116d9565b82525050565b600060208201905061170b60008301846116e7565b92915050565b600081519050919050565b600082825260208201905092915050565b6000819050602082019050919050565b611746816113a6565b82525050565b6000611758838361173d565b60208301905092915050565b6000602082019050919050565b600061177c82611711565b611786818561171c565b93506117918361172d565b8060005b838110156117c25781516117a9888261174c565b97506117b483611764565b925050600181019050611795565b5085935050505092915050565b60006040820190506117e460008301856116a1565b81810360208301526117f68184611771565b90509392505050565b60006040820190506118146000830185611598565b6118216020830184611598565b9392505050565b600082825260208201905092915050565b7f5061792065786163746c7920302e303120657468657220746f206a6f696e206c60008201527f6f74746572790000000000000000000000000000000000000000000000000000602082015250565b6000611895602683611828565b91506118a082611839565b604082019050919050565b600060208201905081810360008301526118c481611888565b9050919050565b7f416c726561647920696e2067616d650000000000000000000000000000000000600082015250565b6000611901600f83611828565b915061190c826118cb565b602082019050919050565b60006020820190508181036000830152611930816118f4565b9050919050565b7f4d7573742062652070726f706f736564206f776e657200000000000000000000600082015250565b600061196d601683611828565b915061197882611937565b602082019050919050565b6000602082019050818103600083015261199c81611960565b9050919050565b60006060820190506119b86000830186611598565b6119c56020830185611598565b6119d26040830184611598565b949350505050565b7f72657175657374206e6f7420666f756e64000000000000000000000000000000600082015250565b6000611a10601183611828565b9150611a1b826119da565b602082019050919050565b60006020820190508181036000830152611a3f81611a03565b9050919050565b7f4e487b7100000000000000000000000000000000000000000000000000000000600052603260045260246000fd5b600080fd5b82818337505050565b6000611a8f838561171c565b93507f07ffffffffffffffffffffffffffffffffffffffffffffffffffffffffffffff831115611ac257611ac1611a75565b5b602083029250611ad3838584611a7a565b82840190509392505050565b6000604082019050611af4600083018661153c565b8181036020830152611b07818486611a83565b9050949350505050565b611b1a816114db565b82525050565b611b29816116d9565b82525050565b611b38816114a1565b82525050565b600081519050919050565b600082825260208201905092915050565b60005b83811015611b78578082015181840152602081019050611b5d565b60008484015250505050565b6000601f19601f8301169050919050565b6000611ba082611b3e565b611baa8185611b49565b9350611bba818560208601611b5a565b611bc381611b84565b840191505092915050565b600060c083016000830151611be66000860182611b11565b506020830151611bf9602086018261173d565b506040830151611c0c6040860182611b20565b506060830151611c1f6060860182611b2f565b506080830151611c326080860182611b2f565b5060a083015184820360a0860152611c4a8282611b95565b9150508091505092915050565b60006020820190508181036000830152611c718184611bce565b905092915050565b600081519050611c88816113b0565b92915050565b600060208284031215611ca457611ca361139c565b5b6000611cb284828501611c79565b91505092915050565b7f4e487b7100000000000000000000000000000000000000000000000000000000600052604160045260246000fd5b6000604082019050611cff600083018561153c565b611d0c60208301846114b1565b9392505050565b7f4f6e6c792063616c6c61626c65206279206f776e657200000000000000000000600082015250565b6000611d49601683611828565b9150611d5482611d13565b602082019050919050565b60006020820190508181036000830152611d7881611d3c565b9050919050565b7f43616e6e6f74207472616e7366657220746f2073656c66000000000000000000600082015250565b6000611db5601783611828565b9150611dc082611d7f565b602082019050919050565b60006020820190508181036000830152611de481611da8565b9050919050565b7f4e487b7100000000000000000000000000000000000000000000000000000000600052601260045260246000fd5b6000611e25826113a6565b9150611e30836113a6565b925082611e4057611e3f611deb565b5b828206905092915050565b611e5481611695565b82525050565b602082016000820151611e706000850182611e4b565b50505050565b6000602082019050611e8b6000830184611e5a565b9291505056fea264697066735822122017aaf5349df8ca5bd14aeb6eef3fcca299c1ae0145b4c8ae2260f4346da50d2e64736f6c634300081c0033",
  "linkReferences": {},
  "deployedLinkReferences": {}
}