{
  "contracts/TokenB.sol": {
    "TokenB": {
      "abi": [
        {
          "inputs": [],
          "stateMutability": "nonpayable",
          "type": "constructor"
        },
        {
          "inputs": [
            {
              "internalType": "address",
              "name": "spender",
              "type": "address"
            },
            {
              "internalType": "uint256",
              "name": "allowance",
              "type": "uint256"
            },
            {
              "internalType": "uint256",
              "name": "needed",
              "type": "uint256"
            }
          ],
          "name": "ERC20InsufficientAllowance",
          "type": "error"
        },
        {
          "inputs": [
            {
              "internalType": "address",
              "name": "sender",
              "type": "address"
            },
            {
              "internalType": "uint256",
              "name": "balance",
              "type": "uint256"
            },
            {
              "internalType": "uint256",
              "name": "needed",
              "type": "uint256"
            }
          ],
          "name": "ERC20InsufficientBalance",
          "type": "error"
        },
        {
          "inputs": [
            {
              "internalType": "address",
              "name": "approver",
              "type": "address"
            }
          ],
          "name": "ERC20InvalidApprover",
          "type": "error"
        },
        {
          "inputs": [
            {
              "internalType": "address",
              "name": "receiver",
              "type": "address"
            }
          ],
          "name": "ERC20InvalidReceiver",
          "type": "error"
        },
        {
          "inputs": [
            {
              "internalType": "address",
              "name": "sender",
              "type": "address"
            }
          ],
          "name": "ERC20InvalidSender",
          "type": "error"
        },
        {
          "inputs": [
            {
              "internalType": "address",
              "name": "spender",
              "type": "address"
            }
          ],
          "name": "ERC20InvalidSpender",
          "type": "error"
        },
        {
          "inputs": [
            {
              "internalType": "address",
              "name": "owner",
              "type": "address"
            }
          ],
          "name": "OwnableInvalidOwner",
          "type": "error"
        },
        {
          "inputs": [
            {
              "internalType": "address",
              "name": "account",
              "type": "address"
            }
          ],
          "name": "OwnableUnauthorizedAccount",
          "type": "error"
        },
        {
          "inputs": [],
          "name": "TokenB_NotMinter",
          "type": "error"
        },
        {
          "inputs": [],
          "name": "TokenB_ZeroAmount",
          "type": "error"
        },
        {
          "anonymous": false,
          "inputs": [
            {
              "indexed": true,
              "internalType": "address",
              "name": "owner",
              "type": "address"
            },
            {
              "indexed": true,
              "internalType": "address",
              "name": "spender",
              "type": "address"
            },
            {
              "indexed": false,
              "internalType": "uint256",
              "name": "value",
              "type": "uint256"
            }
          ],
          "name": "Approval",
          "type": "event"
        },
        {
          "anonymous": false,
          "inputs": [
            {
              "indexed": true,
              "internalType": "address",
              "name": "previousOwner",
              "type": "address"
            },
            {
              "indexed": true,
              "internalType": "address",
              "name": "newOwner",
              "type": "address"
            }
          ],
          "name": "OwnershipTransferred",
          "type": "event"
        },
        {
          "anonymous": false,
          "inputs": [
            {
              "indexed": true,
              "internalType": "address",
              "name": "from",
              "type": "address"
            },
            {
              "indexed": true,
              "internalType": "address",
              "name": "to",
              "type": "address"
            },
            {
              "indexed": false,
              "internalType": "uint256",
              "name": "value",
              "type": "uint256"
            }
          ],
          "name": "Transfer",
          "type": "event"
        },
        {
          "inputs": [
            {
              "internalType": "address",
              "name": "owner",
              "type": "address"
            },
            {
              "internalType": "address",
              "name": "spender",
              "type": "address"
            }
          ],
          "name": "allowance",
          "outputs": [
            {
              "internalType": "uint256",
              "name": "",
              "type": "uint256"
            }
          ],
          "stateMutability": "view",
          "type": "function"
        },
        {
          "inputs": [
            {
              "internalType": "address",
              "name": "spender",
              "type": "address"
            },
            {
              "internalType": "uint256",
              "name": "value",
              "type": "uint256"
            }
          ],
          "name": "approve",
          "outputs": [
            {
              "internalType": "bool",
              "name": "",
              "type": "bool"
            }
          ],
          "stateMutability": "nonpayable",
          "type": "function"
        },
        {
          "inputs": [
            {
              "internalType": "address",
              "name": "account",
              "type": "address"
            }
          ],
          "name": "balanceOf",
          "outputs": [
            {
              "internalType": "uint256",
              "name": "",
              "type": "uint256"
            }
          ],
          "stateMutability": "view",
          "type": "function"
        },
        {
          "inputs": [
            {
              "internalType": "address",
              "name": "from",
              "type": "address"
            },
            {
              "internalType": "uint256",
              "name": "amount",
              "type": "uint256"
            }
          ],
          "name": "burn",
          "outputs": [],
          "stateMutability": "nonpayable",
          "type": "function"
        },
        {
          "inputs": [],
          "name": "decimals",
          "outputs": [
            {
              "internalType": "uint8",
              "name": "",
              "type": "uint8"
            }
          ],
          "stateMutability": "view",
          "type": "function"
        },
        {
          "inputs": [
            {
              "internalType": "address",
              "name": "",
              "type": "address"
            }
          ],
          "name": "isMinter",
          "outputs": [
            {
              "internalType": "bool",
              "name": "",
              "type": "bool"
            }
          ],
          "stateMutability": "view",
          "type": "function"
        },
        {
          "inputs": [
            {
              "internalType": "address",
              "name": "to",
              "type": "address"
            },
            {
              "internalType": "uint256",
              "name": "amount",
              "type": "uint256"
            }
          ],
          "name": "mint",
          "outputs": [],
          "stateMutability": "nonpayable",
          "type": "function"
        },
        {
          "inputs": [],
          "name": "name",
          "outputs": [
            {
              "internalType": "string",
              "name": "",
              "type": "string"
            }
          ],
          "stateMutability": "view",
          "type": "function"
        },
        {
          "inputs": [],
          "name": "owner",
          "outputs": [
            {
              "internalType": "address",
              "name": "",
              "type": "address"
            }
          ],
          "stateMutability": "view",
          "type": "function"
        },
        {
          "inputs": [],
          "name": "renounceOwnership",
          "outputs": [],
          "stateMutability": "nonpayable",
          "type": "function"
        },
        {
          "inputs": [
            {
              "internalType": "address",
              "name": "minter",
              "type": "address"
            },
            {
              "internalType": "bool",
              "name": "status",
              "type": "bool"
            }
          ],
          "name": "setMinter",
          "outputs": [],
          "stateMutability": "nonpayable",
          "type": "function"
        },
        {
          "inputs": [],
          "name": "symbol",
          "outputs": [
            {
              "internalType": "string",
              "name": "",
              "type": "string"
            }
          ],
          "stateMutability": "view",
          "type": "function"
        },
        {
          "inputs": [],
          "name": "totalSupply",
          "outputs": [
            {
              "internalType": "uint256",
              "name": "",
              "type": "uint256"
            }
          ],
          "stateMutability": "view",
          "type": "function"
        },
        {
          "inputs": [
            {
              "internalType": "address",
              "name": "to",
              "type": "address"
            },
            {
              "internalType": "uint256",
              "name": "value",
              "type": "uint256"
            }
          ],
          "name": "transfer",
          "outputs": [
            {
              "internalType": "bool",
              "name": "",
              "type": "bool"
            }
          ],
          "stateMutability": "nonpayable",
          "type": "function"
        },
        {
          "inputs": [
            {
              "internalType": "address",
              "name": "from",
              "type": "address"
            },
            {
              "internalType": "address",
              "name": "to",
              "type": "address"
            },
            {
              "internalType": "uint256",
              "name": "value",
              "type": "uint256"
            }
          ],
          "name": "transferFrom",
          "outputs": [
            {
              "internalType": "bool",
              "name": "",
              "type": "bool"
            }
          ],
          "stateMutability": "nonpayable",
          "type": "function"
        },
        {
          "inputs": [
            {
              "internalType": "address",
              "name": "newOwner",
              "type": "address"
            }
          ],
          "name": "transferOwnership",
          "outputs": [],
          "stateMutability": "nonpayable",
          "type": "function"
        }
      ],
      "evm": {
        "bytecode": {
          "linkReferences": {},
          "object": "608060405234801561001057600080fd5b50336040518060400160405280600781526020017f546f6b656e2042000000000000000000000000000000000000000000000000008152506040518060400160405280600381526020017f544b420000000000000000000000000000000000000000000000000000000000815250816003908161008d919061043d565b50806004908161009d919061043d565b505050600073ffffffffffffffffffffffffffffffffffffffff168173ffffffffffffffffffffffffffffffffffffffff16036101125760006040517f1e4fbdf70000000000000000000000000000000000000000000000000000000081526004016101099190610550565b60405180910390fd5b6101218161012760201b60201c565b5061056b565b6000600560009054906101000a900473ffffffffffffffffffffffffffffffffffffffff16905081600560006101000a81548173ffffffffffffffffffffffffffffffffffffffff021916908373ffffffffffffffffffffffffffffffffffffffff1602179055508173ffffffffffffffffffffffffffffffffffffffff168173ffffffffffffffffffffffffffffffffffffffff167f8be0079c531659141344cd1fd0a4f28419497f9722a3daafe3b4186f6b6457e060405160405180910390a35050565b600081519050919050565b7f4e487b7100000000000000000000000000000000000000000000000000000000600052604160045260246000fd5b7f4e487b7100000000000000000000000000000000000000000000000000000000600052602260045260246000fd5b6000600282049050600182168061026e57607f821691505b60208210810361028157610280610227565b5b50919050565b60008190508160005260206000209050919050565b60006020601f8301049050919050565b600082821b905092915050565b6000600883026102e97fffffffffffffffffffffffffffffffffffffffffffffffffffffffffffffffff826102ac565b6102f386836102ac565b95508019841693508086168417925050509392505050565b6000819050919050565b6000819050919050565b600061033a6103356103308461030b565b610315565b61030b565b9050919050565b6000819050919050565b6103548361031f565b61036861036082610341565b8484546102b9565b825550505050565b600090565b61037d610370565b61038881848461034b565b505050565b5b818110156103ac576103a1600082610375565b60018101905061038e565b5050565b601f8211156103f1576103c281610287565b6103cb8461029c565b810160208510156103da578190505b6103ee6103e68561029c565b83018261038d565b50505b505050565b600082821c905092915050565b6000610414600019846008026103f6565b1980831691505092915050565b600061042d8383610403565b9150826002028217905092915050565b610446826101ed565b67ffffffffffffffff81111561045f5761045e6101f8565b5b6104698254610256565b6104748282856103b0565b600060209050601f8311600181146104a75760008415610495578287015190505b61049f8582610421565b865550610507565b601f1984166104b586610287565b60005b828110156104dd578489015182556001820191506020850194506020810190506104b8565b868310156104fa57848901516104f6601f891682610403565b8355505b6001600288020188555050505b505050505050565b600073ffffffffffffffffffffffffffffffffffffffff82169050919050565b600061053a8261050f565b9050919050565b61054a8161052f565b82525050565b60006020820190506105656000830184610541565b92915050565b6115258061057a6000396000f3fe608060405234801561001057600080fd5b50600436106101005760003560e01c80638da5cb5b11610097578063aa271e1a11610066578063aa271e1a1461029d578063cf456ae7146102cd578063dd62ed3e146102e9578063f2fde38b1461031957610100565b80638da5cb5b1461021557806395d89b41146102335780639dc29fac14610251578063a9059cbb1461026d57610100565b8063313ce567116100d3578063313ce567146101a157806340c10f19146101bf57806370a08231146101db578063715018a61461020b57610100565b806306fdde0314610105578063095ea7b31461012357806318160ddd1461015357806323b872dd14610171575b600080fd5b61010d610335565b60405161011a919061110d565b60405180910390f35b61013d600480360381019061013891906111c8565b6103c7565b60405161014a9190611223565b60405180910390f35b61015b6103ea565b604051610168919061124d565b60405180910390f35b61018b60048036038101906101869190611268565b6103f4565b6040516101989190611223565b60405180910390f35b6101a9610423565b6040516101b691906112d7565b60405180910390f35b6101d960048036038101906101d491906111c8565b61042c565b005b6101f560048036038101906101f091906112f2565b6104f7565b604051610202919061124d565b60405180910390f35b61021361053f565b005b61021d610553565b60405161022a919061132e565b60405180910390f35b61023b61057d565b604051610248919061110d565b60405180910390f35b61026b600480360381019061026691906111c8565b61060f565b005b610287600480360381019061028291906111c8565b6106da565b6040516102949190611223565b60405180910390f35b6102b760048036038101906102b291906112f2565b6106fd565b6040516102c49190611223565b60405180910390f35b6102e760048036038101906102e29190611375565b61071d565b005b61030360048036038101906102fe91906113b5565b610780565b604051610310919061124d565b60405180910390f35b610333600480360381019061032e91906112f2565b610807565b005b60606003805461034490611424565b80601f016020809104026020016040519081016040528092919081815260200182805461037090611424565b80156103bd5780601f10610392576101008083540402835291602001916103bd565b820191906000526020600020905b8154815290600101906020018083116103a057829003601f168201915b5050505050905090565b6000806103d261088d565b90506103df818585610895565b600191505092915050565b6000600254905090565b6000806103ff61088d565b905061040c8582856108a7565b61041785858561093c565b60019150509392505050565b60006012905090565b600660003373ffffffffffffffffffffffffffffffffffffffff1673ffffffffffffffffffffffffffffffffffffffff16815260200190815260200160002060009054906101000a900460ff166104af576040517f865e554200000000000000000000000000000000000000000000000000000000815260040160405180910390fd5b600081036104e9576040517f62e1219a00000000000000000000000000000000000000000000000000000000815260040160405180910390fd5b6104f38282610a30565b5050565b60008060008373ffffffffffffffffffffffffffffffffffffffff1673ffffffffffffffffffffffffffffffffffffffff168152602001908152602001600020549050919050565b610547610ab2565b6105516000610b39565b565b6000600560009054906101000a900473ffffffffffffffffffffffffffffffffffffffff16905090565b60606004805461058c90611424565b80601f01602080910402602001604051908101604052809291908181526020018280546105b890611424565b80156106055780601f106105da57610100808354040283529160200191610605565b820191906000526020600020905b8154815290600101906020018083116105e857829003601f168201915b5050505050905090565b600660003373ffffffffffffffffffffffffffffffffffffffff1673ffffffffffffffffffffffffffffffffffffffff16815260200190815260200160002060009054906101000a900460ff16610692576040517f865e554200000000000000000000000000000000000000000000000000000000815260040160405180910390fd5b600081036106cc576040517f62e1219a00000000000000000000000000000000000000000000000000000000815260040160405180910390fd5b6106d68282610bff565b5050565b6000806106e561088d565b90506106f281858561093c565b600191505092915050565b60066020528060005260406000206000915054906101000a900460ff1681565b610725610ab2565b80600660008473ffffffffffffffffffffffffffffffffffffffff1673ffffffffffffffffffffffffffffffffffffffff16815260200190815260200160002060006101000a81548160ff0219169083151502179055505050565b6000600160008473ffffffffffffffffffffffffffffffffffffffff1673ffffffffffffffffffffffffffffffffffffffff16815260200190815260200160002060008373ffffffffffffffffffffffffffffffffffffffff1673ffffffffffffffffffffffffffffffffffffffff16815260200190815260200160002054905092915050565b61080f610ab2565b600073ffffffffffffffffffffffffffffffffffffffff168173ffffffffffffffffffffffffffffffffffffffff16036108815760006040517f1e4fbdf7000000000000000000000000000000000000000000000000000000008152600401610878919061132e565b60405180910390fd5b61088a81610b39565b50565b600033905090565b6108a28383836001610c81565b505050565b60006108b38484610780565b90507fffffffffffffffffffffffffffffffffffffffffffffffffffffffffffffffff8110156109365781811015610926578281836040517ffb8f41b200000000000000000000000000000000000000000000000000000000815260040161091d93929190611455565b60405180910390fd5b61093584848484036000610c81565b5b50505050565b600073ffffffffffffffffffffffffffffffffffffffff168373ffffffffffffffffffffffffffffffffffffffff16036109ae5760006040517f96c6fd1e0000000000000000000000000000000000000000000000000000000081526004016109a5919061132e565b60405180910390fd5b600073ffffffffffffffffffffffffffffffffffffffff168273ffffffffffffffffffffffffffffffffffffffff1603610a205760006040517fec442f05000000000000000000000000000000000000000000000000000000008152600401610a17919061132e565b60405180910390fd5b610a2b838383610e58565b505050565b600073ffffffffffffffffffffffffffffffffffffffff168273ffffffffffffffffffffffffffffffffffffffff1603610aa25760006040517fec442f05000000000000000000000000000000000000000000000000000000008152600401610a99919061132e565b60405180910390fd5b610aae60008383610e58565b5050565b610aba61088d565b73ffffffffffffffffffffffffffffffffffffffff16610ad8610553565b73ffffffffffffffffffffffffffffffffffffffff1614610b3757610afb61088d565b6040517f118cdaa7000000000000000000000000000000000000000000000000000000008152600401610b2e919061132e565b60405180910390fd5b565b6000600560009054906101000a900473ffffffffffffffffffffffffffffffffffffffff16905081600560006101000a81548173ffffffffffffffffffffffffffffffffffffffff021916908373ffffffffffffffffffffffffffffffffffffffff1602179055508173ffffffffffffffffffffffffffffffffffffffff168173ffffffffffffffffffffffffffffffffffffffff167f8be0079c531659141344cd1fd0a4f28419497f9722a3daafe3b4186f6b6457e060405160405180910390a35050565b600073ffffffffffffffffffffffffffffffffffffffff168273ffffffffffffffffffffffffffffffffffffffff1603610c715760006040517f96c6fd1e000000000000000000000000000000000000000000000000000000008152600401610c68919061132e565b60405180910390fd5b610c7d82600083610e58565b5050565b600073ffffffffffffffffffffffffffffffffffffffff168473ffffffffffffffffffffffffffffffffffffffff1603610cf35760006040517fe602df05000000000000000000000000000000000000000000000000000000008152600401610cea919061132e565b60405180910390fd5b600073ffffffffffffffffffffffffffffffffffffffff168373ffffffffffffffffffffffffffffffffffffffff1603610d655760006040517f94280d62000000000000000000000000000000000000000000000000000000008152600401610d5c919061132e565b60405180910390fd5b81600160008673ffffffffffffffffffffffffffffffffffffffff1673ffffffffffffffffffffffffffffffffffffffff16815260200190815260200160002060008573ffffffffffffffffffffffffffffffffffffffff1673ffffffffffffffffffffffffffffffffffffffff168152602001908152602001600020819055508015610e52578273ffffffffffffffffffffffffffffffffffffffff168473ffffffffffffffffffffffffffffffffffffffff167f8c5be1e5ebec7d5bd14f71427d1e84f3dd0314c0f7b2291e5b200ac8c7c3b92584604051610e49919061124d565b60405180910390a35b50505050565b600073ffffffffffffffffffffffffffffffffffffffff168373ffffffffffffffffffffffffffffffffffffffff1603610eaa578060026000828254610e9e91906114bb565b92505081905550610f7d565b60008060008573ffffffffffffffffffffffffffffffffffffffff1673ffffffffffffffffffffffffffffffffffffffff16815260200190815260200160002054905081811015610f36578381836040517fe450d38c000000000000000000000000000000000000000000000000000000008152600401610f2d93929190611455565b60405180910390fd5b8181036000808673ffffffffffffffffffffffffffffffffffffffff1673ffffffffffffffffffffffffffffffffffffffff16815260200190815260200160002081905550505b600073ffffffffffffffffffffffffffffffffffffffff168273ffffffffffffffffffffffffffffffffffffffff1603610fc65780600260008282540392505081905550611013565b806000808473ffffffffffffffffffffffffffffffffffffffff1673ffffffffffffffffffffffffffffffffffffffff168152602001908152602001600020600082825401925050819055505b8173ffffffffffffffffffffffffffffffffffffffff168373ffffffffffffffffffffffffffffffffffffffff167fddf252ad1be2c89b69c2b068fc378daa952ba7f163c4a11628f55a4df523b3ef83604051611070919061124d565b60405180910390a3505050565b600081519050919050565b600082825260208201905092915050565b60005b838110156110b757808201518184015260208101905061109c565b60008484015250505050565b6000601f19601f8301169050919050565b60006110df8261107d565b6110e98185611088565b93506110f9818560208601611099565b611102816110c3565b840191505092915050565b6000602082019050818103600083015261112781846110d4565b905092915050565b600080fd5b600073ffffffffffffffffffffffffffffffffffffffff82169050919050565b600061115f82611134565b9050919050565b61116f81611154565b811461117a57600080fd5b50565b60008135905061118c81611166565b92915050565b6000819050919050565b6111a581611192565b81146111b057600080fd5b50565b6000813590506111c28161119c565b92915050565b600080604083850312156111df576111de61112f565b5b60006111ed8582860161117d565b92505060206111fe858286016111b3565b9150509250929050565b60008115159050919050565b61121d81611208565b82525050565b60006020820190506112386000830184611214565b92915050565b61124781611192565b82525050565b6000602082019050611262600083018461123e565b92915050565b6000806000606084860312156112815761128061112f565b5b600061128f8682870161117d565b93505060206112a08682870161117d565b92505060406112b1868287016111b3565b9150509250925092565b600060ff82169050919050565b6112d1816112bb565b82525050565b60006020820190506112ec60008301846112c8565b92915050565b6000602082840312156113085761130761112f565b5b60006113168482850161117d565b91505092915050565b61132881611154565b82525050565b6000602082019050611343600083018461131f565b92915050565b61135281611208565b811461135d57600080fd5b50565b60008135905061136f81611349565b92915050565b6000806040838503121561138c5761138b61112f565b5b600061139a8582860161117d565b92505060206113ab85828601611360565b9150509250929050565b600080604083850312156113cc576113cb61112f565b5b60006113da8582860161117d565b92505060206113eb8582860161117d565b9150509250929050565b7f4e487b7100000000000000000000000000000000000000000000000000000000600052602260045260246000fd5b6000600282049050600182168061143c57607f821691505b60208210810361144f5761144e6113f5565b5b50919050565b600060608201905061146a600083018661131f565b611477602083018561123e565b611484604083018461123e565b949350505050565b7f4e487b7100000000000000000000000000000000000000000000000000000000600052601160045260246000fd5b60006114c682611192565b91506114d183611192565b92508282019050808211156114e9576114e861148c565b5b9291505056fea264697066735822122080ef9ede6b3a512c5a3206c6a142349ec36e8051de56c5c7993d9a2cf3b1545364736f6c634300081c0033",
          "opcodes": "PUSH1 0x80 PUSH1 0x40 MSTORE CALLVALUE DUP1 ISZERO PUSH2 0x10 JUMPI PUSH1 0x0 DUP1 REVERT JUMPDEST POP CALLER PUSH1 0x40 MLOAD DUP1 PUSH1 0x40 ADD PUSH1 0x40 MSTORE DUP1 PUSH1 0x7 DUP2 MSTORE PUSH1 0x20 ADD PUSH32 0x546F6B656E204200000000000000000000000000000000000000000000000000 DUP2 MSTORE POP PUSH1 0x40 MLOAD DUP1 PUSH1 0x40 ADD PUSH1 0x40 MSTORE DUP1 PUSH1 0x3 DUP2 MSTORE PUSH1 0x20 ADD PUSH32 0x544B420000000000000000000000000000000000000000000000000000000000 DUP2 MSTORE POP DUP2 PUSH1 0x3 SWAP1 DUP2 PUSH2 0x8D SWAP2 SWAP1 PUSH2 0x43D JUMP JUMPDEST POP DUP1 PUSH1 0x4 SWAP1 DUP2 PUSH2 0x9D SWAP2 SWAP1 PUSH2 0x43D JUMP JUMPDEST POP POP POP PUSH1 0x0 PUSH20 0xFFFFFFFFFFFFFFFFFFFFFFFFFFFFFFFFFFFFFFFF AND DUP2 PUSH20 0xFFFFFFFFFFFFFFFFFFFFFFFFFFFFFFFFFFFFFFFF AND SUB PUSH2 0x112 JUMPI PUSH1 0x0 PUSH1 0x40 MLOAD PUSH32 0x1E4FBDF700000000000000000000000000000000000000000000000000000000 DUP2 MSTORE PUSH1 0x4 ADD PUSH2 0x109 SWAP2 SWAP1 PUSH2 0x550 JUMP JUMPDEST PUSH1 0x40 MLOAD DUP1 SWAP2 SUB SWAP1 REVERT JUMPDEST PUSH2 0x121 DUP2 PUSH2 0x127 PUSH1 0x20 SHL PUSH1 0x20 SHR JUMP JUMPDEST POP PUSH2 0x56B JUMP JUMPDEST PUSH1 0x0 PUSH1 0x5 PUSH1 0x0 SWAP1 SLOAD SWAP1 PUSH2 0x100 EXP SWAP1 DIV PUSH20 0xFFFFFFFFFFFFFFFFFFFFFFFFFFFFFFFFFFFFFFFF AND SWAP1 POP DUP2 PUSH1 0x5 PUSH1 0x0 PUSH2 0x100 EXP DUP2 SLOAD DUP2 PUSH20 0xFFFFFFFFFFFFFFFFFFFFFFFFFFFFFFFFFFFFFFFF MUL NOT AND SWAP1 DUP4 PUSH20 0xFFFFFFFFFFFFFFFFFFFFFFFFFFFFFFFFFFFFFFFF AND MUL OR SWAP1 SSTORE POP DUP2 PUSH20 0xFFFFFFFFFFFFFFFFFFFFFFFFFFFFFFFFFFFFFFFF AND DUP2 PUSH20 0xFFFFFFFFFFFFFFFFFFFFFFFFFFFFFFFFFFFFFFFF AND PUSH32 0x8BE0079C531659141344CD1FD0A4F28419497F9722A3DAAFE3B4186F6B6457E0 PUSH1 0x40 MLOAD PUSH1 0x40 MLOAD DUP1 SWAP2 SUB SWAP1 LOG3 POP POP JUMP JUMPDEST PUSH1 0x0 DUP2 MLOAD SWAP1 POP SWAP2 SWAP1 POP JUMP JUMPDEST PUSH32 0x4E487B7100000000000000000000000000000000000000000000000000000000 PUSH1 0x0 MSTORE PUSH1 0x41 PUSH1 0x4 MSTORE PUSH1 0x24 PUSH1 0x0 REVERT JUMPDEST PUSH32 0x4E487B7100000000000000000000000000000000000000000000000000000000 PUSH1 0x0 MSTORE PUSH1 0x22 PUSH1 0x4 MSTORE PUSH1 0x24 PUSH1 0x0 REVERT JUMPDEST PUSH1 0x0 PUSH1 0x2 DUP3 DIV SWAP1 POP PUSH1 0x1 DUP3 AND DUP1 PUSH2 0x26E JUMPI PUSH1 0x7F DUP3 AND SWAP2 POP JUMPDEST PUSH1 0x20 DUP3 LT DUP2 SUB PUSH2 0x281 JUMPI PUSH2 0x280 PUSH2 0x227 JUMP JUMPDEST JUMPDEST POP SWAP2 SWAP1 POP JUMP JUMPDEST PUSH1 0x0 DUP2 SWAP1 POP DUP2 PUSH1 0x0 MSTORE PUSH1 0x20 PUSH1 0x0 KECCAK256 SWAP1 POP SWAP2 SWAP1 POP JUMP JUMPDEST PUSH1 0x0 PUSH1 0x20 PUSH1 0x1F DUP4 ADD DIV SWAP1 POP SWAP2 SWAP1 POP JUMP JUMPDEST PUSH1 0x0 DUP3 DUP3 SHL SWAP1 POP SWAP3 SWAP2 POP POP JUMP JUMPDEST PUSH1 0x0 PUSH1 0x8 DUP4 MUL PUSH2 0x2E9 PUSH32 0xFFFFFFFFFFFFFFFFFFFFFFFFFFFFFFFFFFFFFFFFFFFFFFFFFFFFFFFFFFFFFFFF DUP3 PUSH2 0x2AC JUMP JUMPDEST PUSH2 0x2F3 DUP7 DUP4 PUSH2 0x2AC JUMP JUMPDEST SWAP6 POP DUP1 NOT DUP5 AND SWAP4 POP DUP1 DUP7 AND DUP5 OR SWAP3 POP POP POP SWAP4 SWAP3 POP POP POP JUMP JUMPDEST PUSH1 0x0 DUP2 SWAP1 POP SWAP2 SWAP1 POP JUMP JUMPDEST PUSH1 0x0 DUP2 SWAP1 POP SWAP2 SWAP1 POP JUMP JUMPDEST PUSH1 0x0 PUSH2 0x33A PUSH2 0x335 PUSH2 0x330 DUP5 PUSH2 0x30B JUMP JUMPDEST PUSH2 0x315 JUMP JUMPDEST PUSH2 0x30B JUMP JUMPDEST SWAP1 POP SWAP2 SWAP1 POP JUMP JUMPDEST PUSH1 0x0 DUP2 SWAP1 POP SWAP2 SWAP1 POP JUMP JUMPDEST PUSH2 0x354 DUP4 PUSH2 0x31F JUMP JUMPDEST PUSH2 0x368 PUSH2 0x360 DUP3 PUSH2 0x341 JUMP JUMPDEST DUP5 DUP5 SLOAD PUSH2 0x2B9 JUMP JUMPDEST DUP3 SSTORE POP POP POP POP JUMP JUMPDEST PUSH1 0x0 SWAP1 JUMP JUMPDEST PUSH2 0x37D PUSH2 0x370 JUMP JUMPDEST PUSH2 0x388 DUP2 DUP5 DUP5 PUSH2 0x34B JUMP JUMPDEST POP POP POP JUMP JUMPDEST JUMPDEST DUP2 DUP2 LT ISZERO PUSH2 0x3AC JUMPI PUSH2 0x3A1 PUSH1 0x0 DUP3 PUSH2 0x375 JUMP JUMPDEST PUSH1 0x1 DUP2 ADD SWAP1 POP PUSH2 0x38E JUMP JUMPDEST POP POP JUMP JUMPDEST PUSH1 0x1F DUP3 GT ISZERO PUSH2 0x3F1 JUMPI PUSH2 0x3C2 DUP2 PUSH2 0x287 JUMP JUMPDEST PUSH2 0x3CB DUP5 PUSH2 0x29C JUMP JUMPDEST DUP2 ADD PUSH1 0x20 DUP6 LT ISZERO PUSH2 0x3DA JUMPI DUP2 SWAP1 POP JUMPDEST PUSH2 0x3EE PUSH2 0x3E6 DUP6 PUSH2 0x29C JUMP JUMPDEST DUP4 ADD DUP3 PUSH2 0x38D JUMP JUMPDEST POP POP JUMPDEST POP POP POP JUMP JUMPDEST PUSH1 0x0 DUP3 DUP3 SHR SWAP1 POP SWAP3 SWAP2 POP POP JUMP JUMPDEST PUSH1 0x0 PUSH2 0x414 PUSH1 0x0 NOT DUP5 PUSH1 0x8 MUL PUSH2 0x3F6 JUMP JUMPDEST NOT DUP1 DUP4 AND SWAP2 POP POP SWAP3 SWAP2 POP POP JUMP JUMPDEST PUSH1 0x0 PUSH2 0x42D DUP4 DUP4 PUSH2 0x403 JUMP JUMPDEST SWAP2 POP DUP3 PUSH1 0x2 MUL DUP3 OR SWAP1 POP SWAP3 SWAP2 POP POP JUMP JUMPDEST PUSH2 0x446 DUP3 PUSH2 0x1ED JUMP JUMPDEST PUSH8 0xFFFFFFFFFFFFFFFF DUP2 GT ISZERO PUSH2 0x45F JUMPI PUSH2 0x45E PUSH2 0x1F8 JUMP JUMPDEST JUMPDEST PUSH2 0x469 DUP3 SLOAD PUSH2 0x256 JUMP JUMPDEST PUSH2 0x474 DUP3 DUP3 DUP6 PUSH2 0x3B0 JUMP JUMPDEST PUSH1 0x0 PUSH1 0x20 SWAP1 POP PUSH1 0x1F DUP4 GT PUSH1 0x1 DUP2 EQ PUSH2 0x4A7 JUMPI PUSH1 0x0 DUP5 ISZERO PUSH2 0x495 JUMPI DUP3 DUP8 ADD MLOAD SWAP1 POP JUMPDEST PUSH2 0x49F DUP6 DUP3 PUSH2 0x421 JUMP JUMPDEST DUP7 SSTORE POP PUSH2 0x507 JUMP JUMPDEST PUSH1 0x1F NOT DUP5 AND PUSH2 0x4B5 DUP7 PUSH2 0x287 JUMP JUMPDEST PUSH1 0x0 JUMPDEST DUP3 DUP2 LT ISZERO PUSH2 0x4DD JUMPI DUP5 DUP10 ADD MLOAD DUP3 SSTORE PUSH1 0x1 DUP3 ADD SWAP2 POP PUSH1 0x20 DUP6 ADD SWAP5 POP PUSH1 0x20 DUP2 ADD SWAP1 POP PUSH2 0x4B8 JUMP JUMPDEST DUP7 DUP4 LT ISZERO PUSH2 0x4FA JUMPI DUP5 DUP10 ADD MLOAD PUSH2 0x4F6 PUSH1 0x1F DUP10 AND DUP3 PUSH2 0x403 JUMP JUMPDEST DUP4 SSTORE POP JUMPDEST PUSH1 0x1 PUSH1 0x2 DUP9 MUL ADD DUP9 SSTORE POP POP POP JUMPDEST POP POP POP POP POP POP JUMP JUMPDEST PUSH1 0x0 PUSH20 0xFFFFFFFFFFFFFFFFFFFFFFFFFFFFFFFFFFFFFFFF DUP3 AND SWAP1 POP SWAP2 SWAP1 POP JUMP JUMPDEST PUSH1 0x0 PUSH2 0x53A DUP3 PUSH2 0x50F JUMP JUMPDEST SWAP1 POP SWAP2 SWAP1 POP JUMP JUMPDEST PUSH2 0x54A DUP2 PUSH2 0x52F JUMP JUMPDEST DUP3 MSTORE POP POP JUMP JUMPDEST PUSH1 0x0 PUSH1 0x20 DUP3 ADD SWAP1 POP PUSH2 0x565 PUSH1 0x0 DUP4 ADD DUP5 PUSH2 0x541 JUMP JUMPDEST SWAP3 SWAP2 POP POP JUMP JUMPDEST PUSH2 0x1525 DUP1 PUSH2 0x57A PUSH1 0x0 CODECOPY PUSH1 0x0 RETURN INVALID PUSH1 0x80 PUSH1 0x40 MSTORE CALLVALUE DUP1 ISZERO PUSH2 0x10 JUMPI PUSH1 0x0 DUP1 REVERT JUMPDEST POP PUSH1 0x4 CALLDATASIZE LT PUSH2 0x100 JUMPI PUSH1 0x0 CALLDATALOAD PUSH1 0xE0 SHR DUP1 PUSH4 0x8DA5CB5B GT PUSH2 0x97 JUMPI DUP1 PUSH4 0xAA271E1A GT PUSH2 0x66 JUMPI DUP1 PUSH4 0xAA271E1A EQ PUSH2 0x29D JUMPI DUP1 PUSH4 0xCF456AE7 EQ PUSH2 0x2CD JUMPI DUP1 PUSH4 0xDD62ED3E EQ PUSH2 0x2E9 JUMPI DUP1 PUSH4 0xF2FDE38B EQ PUSH2 0x319 JUMPI PUSH2 0x100 JUMP JUMPDEST DUP1 PUSH4 0x8DA5CB5B EQ PUSH2 0x215 JUMPI DUP1 PUSH4 0x95D89B41 EQ PUSH2 0x233 JUMPI DUP1 PUSH4 0x9DC29FAC EQ PUSH2 0x251 JUMPI DUP1 PUSH4 0xA9059CBB EQ PUSH2 0x26D JUMPI PUSH2 0x100 JUMP JUMPDEST DUP1 PUSH4 0x313CE567 GT PUSH2 0xD3 JUMPI DUP1 PUSH4 0x313CE567 EQ PUSH2 0x1A1 JUMPI DUP1 PUSH4 0x40C10F19 EQ PUSH2 0x1BF JUMPI DUP1 PUSH4 0x70A08231 EQ PUSH2 0x1DB JUMPI DUP1 PUSH4 0x715018A6 EQ PUSH2 0x20B JUMPI PUSH2 0x100 JUMP JUMPDEST DUP1 PUSH4 0x6FDDE03 EQ PUSH2 0x105 JUMPI DUP1 PUSH4 0x95EA7B3 EQ PUSH2 0x123 JUMPI DUP1 PUSH4 0x18160DDD EQ PUSH2 0x153 JUMPI DUP1 PUSH4 0x23B872DD EQ PUSH2 0x171 JUMPI JUMPDEST PUSH1 0x0 DUP1 REVERT JUMPDEST PUSH2 0x10D PUSH2 0x335 JUMP JUMPDEST PUSH1 0x40 MLOAD PUSH2 0x11A SWAP2 SWAP1 PUSH2 0x110D JUMP JUMPDEST PUSH1 0x40 MLOAD DUP1 SWAP2 SUB SWAP1 RETURN JUMPDEST PUSH2 0x13D PUSH1 0x4 DUP1 CALLDATASIZE SUB DUP2 ADD SWAP1 PUSH2 0x138 SWAP2 SWAP1 PUSH2 0x11C8 JUMP JUMPDEST PUSH2 0x3C7 JUMP JUMPDEST PUSH1 0x40 MLOAD PUSH2 0x14A SWAP2 SWAP1 PUSH2 0x1223 JUMP JUMPDEST PUSH1 0x40 MLOAD DUP1 SWAP2 SUB SWAP1 RETURN JUMPDEST PUSH2 0x15B PUSH2 0x3EA JUMP JUMPDEST PUSH1 0x40 MLOAD PUSH2 0x168 SWAP2 SWAP1 PUSH2 0x124D JUMP JUMPDEST PUSH1 0x40 MLOAD DUP1 SWAP2 SUB SWAP1 RETURN JUMPDEST PUSH2 0x18B PUSH1 0x4 DUP1 CALLDATASIZE SUB DUP2 ADD SWAP1 PUSH2 0x186 SWAP2 SWAP1 PUSH2 0x1268 JUMP JUMPDEST PUSH2 0x3F4 JUMP JUMPDEST PUSH1 0x40 MLOAD PUSH2 0x198 SWAP2 SWAP1 PUSH2 0x1223 JUMP JUMPDEST PUSH1 0x40 MLOAD DUP1 SWAP2 SUB SWAP1 RETURN JUMPDEST PUSH2 0x1A9 PUSH2 0x423 JUMP JUMPDEST PUSH1 0x40 MLOAD PUSH2 0x1B6 SWAP2 SWAP1 PUSH2 0x12D7 JUMP JUMPDEST PUSH1 0x40 MLOAD DUP1 SWAP2 SUB SWAP1 RETURN JUMPDEST PUSH2 0x1D9 PUSH1 0x4 DUP1 CALLDATASIZE SUB DUP2 ADD SWAP1 PUSH2 0x1D4 SWAP2 SWAP1 PUSH2 0x11C8 JUMP JUMPDEST PUSH2 0x42C JUMP JUMPDEST STOP JUMPDEST PUSH2 0x1F5 PUSH1 0x4 DUP1 CALLDATASIZE SUB DUP2 ADD SWAP1 PUSH2 0x1F0 SWAP2 SWAP1 PUSH2 0x12F2 JUMP JUMPDEST PUSH2 0x4F7 JUMP JUMPDEST PUSH1 0x40 MLOAD PUSH2 0x202 SWAP2 SWAP1 PUSH2 0x124D JUMP JUMPDEST PUSH1 0x40 MLOAD DUP1 SWAP2 SUB SWAP1 RETURN JUMPDEST PUSH2 0x213 PUSH2 0x53F JUMP JUMPDEST STOP JUMPDEST PUSH2 0x21D PUSH2 0x553 JUMP JUMPDEST PUSH1 0x40 MLOAD PUSH2 0x22A SWAP2 SWAP1 PUSH2 0x132E JUMP JUMPDEST PUSH1 0x40 MLOAD DUP1 SWAP2 SUB SWAP1 RETURN JUMPDEST PUSH2 0x23B PUSH2 0x57D JUMP JUMPDEST PUSH1 0x40 MLOAD PUSH2 0x248 SWAP2 SWAP1 PUSH2 0x110D JUMP JUMPDEST PUSH1 0x40 MLOAD DUP1 SWAP2 SUB SWAP1 RETURN JUMPDEST PUSH2 0x26B PUSH1 0x4 DUP1 CALLDATASIZE SUB DUP2 ADD SWAP1 PUSH2 0x266 SWAP2 SWAP1 PUSH2 0x11C8 JUMP JUMPDEST PUSH2 0x60F JUMP JUMPDEST STOP JUMPDEST PUSH2 0x287 PUSH1 0x4 DUP1 CALLDATASIZE SUB DUP2 ADD SWAP1 PUSH2 0x282 SWAP2 SWAP1 PUSH2 0x11C8 JUMP JUMPDEST PUSH2 0x6DA JUMP JUMPDEST PUSH1 0x40 MLOAD PUSH2 0x294 SWAP2 SWAP1 PUSH2 0x1223 JUMP JUMPDEST PUSH1 0x40 MLOAD DUP1 SWAP2 SUB SWAP1 RETURN JUMPDEST PUSH2 0x2B7 PUSH1 0x4 DUP1 CALLDATASIZE SUB DUP2 ADD SWAP1 PUSH2 0x2B2 SWAP2 SWAP1 PUSH2 0x12F2 JUMP JUMPDEST PUSH2 0x6FD JUMP JUMPDEST PUSH1 0x40 MLOAD PUSH2 0x2C4 SWAP2 SWAP1 PUSH2 0x1223 JUMP JUMPDEST PUSH1 0x40 MLOAD DUP1 SWAP2 SUB SWAP1 RETURN JUMPDEST PUSH2 0x2E7 PUSH1 0x4 DUP1 CALLDATASIZE SUB DUP2 ADD SWAP1 PUSH2 0x2E2 SWAP2 SWAP1 PUSH2 0x1375 JUMP JUMPDEST PUSH2 0x71D JUMP JUMPDEST STOP JUMPDEST PUSH2 0x303 PUSH1 0x4 DUP1 CALLDATASIZE SUB DUP2 ADD SWAP1 PUSH2 0x2FE SWAP2 SWAP1 PUSH2 0x13B5 JUMP JUMPDEST PUSH2 0x780 JUMP JUMPDEST PUSH1 0x40 MLOAD PUSH2 0x310 SWAP2 SWAP1 PUSH2 0x124D JUMP JUMPDEST PUSH1 0x40 MLOAD DUP1 SWAP2 SUB SWAP1 RETURN JUMPDEST PUSH2 0x333 PUSH1 0x4 DUP1 CALLDATASIZE SUB DUP2 ADD SWAP1 PUSH2 0x32E SWAP2 SWAP1 PUSH2 0x12F2 JUMP JUMPDEST PUSH2 0x807 JUMP JUMPDEST STOP JUMPDEST PUSH1 0x60 PUSH1 0x3 DUP1 SLOAD PUSH2 0x344 SWAP1 PUSH2 0x1424 JUMP JUMPDEST DUP1 PUSH1 0x1F ADD PUSH1 0x20 DUP1 SWAP2 DIV MUL PUSH1 0x20 ADD PUSH1 0x40 MLOAD SWAP1 DUP2 ADD PUSH1 0x40 MSTORE DUP1 SWAP3 SWAP2 SWAP1 DUP2 DUP2 MSTORE PUSH1 0x20 ADD DUP3 DUP1 SLOAD PUSH2 0x370 SWAP1 PUSH2 0x1424 JUMP JUMPDEST DUP1 ISZERO PUSH2 0x3BD JUMPI DUP1 PUSH1 0x1F LT PUSH2 0x392 JUMPI PUSH2 0x100 DUP1 DUP4 SLOAD DIV MUL DUP4 MSTORE SWAP2 PUSH1 0x20 ADD SWAP2 PUSH2 0x3BD JUMP JUMPDEST DUP3 ADD SWAP2 SWAP1 PUSH1 0x0 MSTORE PUSH1 0x20 PUSH1 0x0 KECCAK256 SWAP1 JUMPDEST DUP2 SLOAD DUP2 MSTORE SWAP1 PUSH1 0x1 ADD SWAP1 PUSH1 0x20 ADD DUP1 DUP4 GT PUSH2 0x3A0 JUMPI DUP3 SWAP1 SUB PUSH1 0x1F AND DUP3 ADD SWAP2 JUMPDEST POP POP POP POP POP SWAP1 POP SWAP1 JUMP JUMPDEST PUSH1 0x0 DUP1 PUSH2 0x3D2 PUSH2 0x88D JUMP JUMPDEST SWAP1 POP PUSH2 0x3DF DUP2 DUP6 DUP6 PUSH2 0x895 JUMP JUMPDEST PUSH1 0x1 SWAP2 POP POP SWAP3 SWAP2 POP POP JUMP JUMPDEST PUSH1 0x0 PUSH1 0x2 SLOAD SWAP1 POP SWAP1 JUMP JUMPDEST PUSH1 0x0 DUP1 PUSH2 0x3FF PUSH2 0x88D JUMP JUMPDEST SWAP1 POP PUSH2 0x40C DUP6 DUP3 DUP6 PUSH2 0x8A7 JUMP JUMPDEST PUSH2 0x417 DUP6 DUP6 DUP6 PUSH2 0x93C JUMP JUMPDEST PUSH1 0x1 SWAP2 POP POP SWAP4 SWAP3 POP POP POP JUMP JUMPDEST PUSH1 0x0 PUSH1 0x12 SWAP1 POP SWAP1 JUMP JUMPDEST PUSH1 0x6 PUSH1 0x0 CALLER PUSH20 0xFFFFFFFFFFFFFFFFFFFFFFFFFFFFFFFFFFFFFFFF AND PUSH20 0xFFFFFFFFFFFFFFFFFFFFFFFFFFFFFFFFFFFFFFFF AND DUP2 MSTORE PUSH1 0x20 ADD SWAP1 DUP2 MSTORE PUSH1 0x20 ADD PUSH1 0x0 KECCAK256 PUSH1 0x0 SWAP1 SLOAD SWAP1 PUSH2 0x100 EXP SWAP1 DIV PUSH1 0xFF AND PUSH2 0x4AF JUMPI PUSH1 0x40 MLOAD PUSH32 0x865E554200000000000000000000000000000000000000000000000000000000 DUP2 MSTORE PUSH1 0x4 ADD PUSH1 0x40 MLOAD DUP1 SWAP2 SUB SWAP1 REVERT JUMPDEST PUSH1 0x0 DUP2 SUB PUSH2 0x4E9 JUMPI PUSH1 0x40 MLOAD PUSH32 0x62E1219A00000000000000000000000000000000000000000000000000000000 DUP2 MSTORE PUSH1 0x4 ADD PUSH1 0x40 MLOAD DUP1 SWAP2 SUB SWAP1 REVERT JUMPDEST PUSH2 0x4F3 DUP3 DUP3 PUSH2 0xA30 JUMP JUMPDEST POP POP JUMP JUMPDEST PUSH1 0x0 DUP1 PUSH1 0x0 DUP4 PUSH20 0xFFFFFFFFFFFFFFFFFFFFFFFFFFFFFFFFFFFFFFFF AND PUSH20 0xFFFFFFFFFFFFFFFFFFFFFFFFFFFFFFFFFFFFFFFF AND DUP2 MSTORE PUSH1 0x20 ADD SWAP1 DUP2 MSTORE PUSH1 0x20 ADD PUSH1 0x0 KECCAK256 SLOAD SWAP1 POP SWAP2 SWAP1 POP JUMP JUMPDEST PUSH2 0x547 PUSH2 0xAB2 JUMP JUMPDEST PUSH2 0x551 PUSH1 0x0 PUSH2 0xB39 JUMP JUMPDEST JUMP JUMPDEST PUSH1 0x0 PUSH1 0x5 PUSH1 0x0 SWAP1 SLOAD SWAP1 PUSH2 0x100 EXP SWAP1 DIV PUSH20 0xFFFFFFFFFFFFFFFFFFFFFFFFFFFFFFFFFFFFFFFF AND SWAP1 POP SWAP1 JUMP JUMPDEST PUSH1 0x60 PUSH1 0x4 DUP1 SLOAD PUSH2 0x58C SWAP1 PUSH2 0x1424 JUMP JUMPDEST DUP1 PUSH1 0x1F ADD PUSH1 0x20 DUP1 SWAP2 DIV MUL PUSH1 0x20 ADD PUSH1 0x40 MLOAD SWAP1 DUP2 ADD PUSH1 0x40 MSTORE DUP1 SWAP3 SWAP2 SWAP1 DUP2 DUP2 MSTORE PUSH1 0x20 ADD DUP3 DUP1 SLOAD PUSH2 0x5B8 SWAP1 PUSH2 0x1424 JUMP JUMPDEST DUP1 ISZERO PUSH2 0x605 JUMPI DUP1 PUSH1 0x1F LT PUSH2 0x5DA JUMPI PUSH2 0x100 DUP1 DUP4 SLOAD DIV MUL DUP4 MSTORE SWAP2 PUSH1 0x20 ADD SWAP2 PUSH2 0x605 JUMP JUMPDEST DUP3 ADD SWAP2 SWAP1 PUSH1 0x0 MSTORE PUSH1 0x20 PUSH1 0x0 KECCAK256 SWAP1 JUMPDEST DUP2 SLOAD DUP2 MSTORE SWAP1 PUSH1 0x1 ADD SWAP1 PUSH1 0x20 ADD DUP1 DUP4 GT PUSH2 0x5E8 JUMPI DUP3 SWAP1 SUB PUSH1 0x1F AND DUP3 ADD SWAP2 JUMPDEST POP POP POP POP POP SWAP1 POP SWAP1 JUMP JUMPDEST PUSH1 0x6 PUSH1 0x0 CALLER PUSH20 0xFFFFFFFFFFFFFFFFFFFFFFFFFFFFFFFFFFFFFFFF AND PUSH20 0xFFFFFFFFFFFFFFFFFFFFFFFFFFFFFFFFFFFFFFFF AND DUP2 MSTORE PUSH1 0x20 ADD SWAP1 DUP2 MSTORE PUSH1 0x20 ADD PUSH1 0x0 KECCAK256 PUSH1 0x0 SWAP1 SLOAD SWAP1 PUSH2 0x100 EXP SWAP1 DIV PUSH1 0xFF AND PUSH2 0x692 JUMPI PUSH1 0x40 MLOAD PUSH32 0x865E554200000000000000000000000000000000000000000000000000000000 DUP2 MSTORE PUSH1 0x4 ADD PUSH1 0x40 MLOAD DUP1 SWAP2 SUB SWAP1 REVERT JUMPDEST PUSH1 0x0 DUP2 SUB PUSH2 0x6CC JUMPI PUSH1 0x40 MLOAD PUSH32 0x62E1219A00000000000000000000000000000000000000000000000000000000 DUP2 MSTORE PUSH1 0x4 ADD PUSH1 0x40 MLOAD DUP1 SWAP2 SUB SWAP1 REVERT JUMPDEST PUSH2 0x6D6 DUP3 DUP3 PUSH2 0xBFF JUMP JUMPDEST POP POP JUMP JUMPDEST PUSH1 0x0 DUP1 PUSH2 0x6E5 PUSH2 0x88D JUMP JUMPDEST SWAP1 POP PUSH2 0x6F2 DUP2 DUP6 DUP6 PUSH2 0x93C JUMP JUMPDEST PUSH1 0x1 SWAP2 POP POP SWAP3 SWAP2 POP POP JUMP JUMPDEST PUSH1 0x6 PUSH1 0x20 MSTORE DUP1 PUSH1 0x0 MSTORE PUSH1 0x40 PUSH1 0x0 KECCAK256 PUSH1 0x0 SWAP2 POP SLOAD SWAP1 PUSH2 0x100 EXP SWAP1 DIV PUSH1 0xFF AND DUP2 JUMP JUMPDEST PUSH2 0x725 PUSH2 0xAB2 JUMP JUMPDEST DUP1 PUSH1 0x6 PUSH1 0x0 DUP5 PUSH20 0xFFFFFFFFFFFFFFFFFFFFFFFFFFFFFFFFFFFFFFFF AND PUSH20 0xFFFFFFFFFFFFFFFFFFFFFFFFFFFFFFFFFFFFFFFF AND DUP2 MSTORE PUSH1 0x20 ADD SWAP1 DUP2 MSTORE PUSH1 0x20 ADD PUSH1 0x0 KECCAK256 PUSH1 0x0 PUSH2 0x100 EXP DUP2 SLOAD DUP2 PUSH1 0xFF MUL NOT AND SWAP1 DUP4 ISZERO ISZERO MUL OR SWAP1 SSTORE POP POP POP JUMP JUMPDEST PUSH1 0x0 PUSH1 0x1 PUSH1 0x0 DUP5 PUSH20 0xFFFFFFFFFFFFFFFFFFFFFFFFFFFFFFFFFFFFFFFF AND PUSH20 0xFFFFFFFFFFFFFFFFFFFFFFFFFFFFFFFFFFFFFFFF AND DUP2 MSTORE PUSH1 0x20 ADD SWAP1 DUP2 MSTORE PUSH1 0x20 ADD PUSH1 0x0 KECCAK256 PUSH1 0x0 DUP4 PUSH20 0xFFFFFFFFFFFFFFFFFFFFFFFFFFFFFFFFFFFFFFFF AND PUSH20 0xFFFFFFFFFFFFFFFFFFFFFFFFFFFFFFFFFFFFFFFF AND DUP2 MSTORE PUSH1 0x20 ADD SWAP1 DUP2 MSTORE PUSH1 0x20 ADD PUSH1 0x0 KECCAK256 SLOAD SWAP1 POP SWAP3 SWAP2 POP POP JUMP JUMPDEST PUSH2 0x80F PUSH2 0xAB2 JUMP JUMPDEST PUSH1 0x0 PUSH20 0xFFFFFFFFFFFFFFFFFFFFFFFFFFFFFFFFFFFFFFFF AND DUP2 PUSH20 0xFFFFFFFFFFFFFFFFFFFFFFFFFFFFFFFFFFFFFFFF AND SUB PUSH2 0x881 JUMPI PUSH1 0x0 PUSH1 0x40 MLOAD PUSH32 0x1E4FBDF700000000000000000000000000000000000000000000000000000000 DUP2 MSTORE PUSH1 0x4 ADD PUSH2 0x878 SWAP2 SWAP1 PUSH2 0x132E JUMP JUMPDEST PUSH1 0x40 MLOAD DUP1 SWAP2 SUB SWAP1 REVERT JUMPDEST PUSH2 0x88A DUP2 PUSH2 0xB39 JUMP JUMPDEST POP JUMP JUMPDEST PUSH1 0x0 CALLER SWAP1 POP SWAP1 JUMP JUMPDEST PUSH2 0x8A2 DUP4 DUP4 DUP4 PUSH1 0x1 PUSH2 0xC81 JUMP JUMPDEST POP POP POP JUMP JUMPDEST PUSH1 0x0 PUSH2 0x8B3 DUP5 DUP5 PUSH2 0x780 JUMP JUMPDEST SWAP1 POP PUSH32 0xFFFFFFFFFFFFFFFFFFFFFFFFFFFFFFFFFFFFFFFFFFFFFFFFFFFFFFFFFFFFFFFF DUP2 LT ISZERO PUSH2 0x936 JUMPI DUP2 DUP2 LT ISZERO PUSH2 0x926 JUMPI DUP3 DUP2 DUP4 PUSH1 0x40 MLOAD PUSH32 0xFB8F41B200000000000000000000000000000000000000000000000000000000 DUP2 MSTORE PUSH1 0x4 ADD PUSH2 0x91D SWAP4 SWAP3 SWAP2 SWAP1 PUSH2 0x1455 JUMP JUMPDEST PUSH1 0x40 MLOAD DUP1 SWAP2 SUB SWAP1 REVERT JUMPDEST PUSH2 0x935 DUP5 DUP5 DUP5 DUP5 SUB PUSH1 0x0 PUSH2 0xC81 JUMP JUMPDEST JUMPDEST POP POP POP POP JUMP JUMPDEST PUSH1 0x0 PUSH20 0xFFFFFFFFFFFFFFFFFFFFFFFFFFFFFFFFFFFFFFFF AND DUP4 PUSH20 0xFFFFFFFFFFFFFFFFFFFFFFFFFFFFFFFFFFFFFFFF AND SUB PUSH2 0x9AE JUMPI PUSH1 0x0 PUSH1 0x40 MLOAD PUSH32 0x96C6FD1E00000000000000000000000000000000000000000000000000000000 DUP2 MSTORE PUSH1 0x4 ADD PUSH2 0x9A5 SWAP2 SWAP1 PUSH2 0x132E JUMP JUMPDEST PUSH1 0x40 MLOAD DUP1 SWAP2 SUB SWAP1 REVERT JUMPDEST PUSH1 0x0 PUSH20 0xFFFFFFFFFFFFFFFFFFFFFFFFFFFFFFFFFFFFFFFF AND DUP3 PUSH20 0xFFFFFFFFFFFFFFFFFFFFFFFFFFFFFFFFFFFFFFFF AND SUB PUSH2 0xA20 JUMPI PUSH1 0x0 PUSH1 0x40 MLOAD PUSH32 0xEC442F0500000000000000000000000000000000000000000000000000000000 DUP2 MSTORE PUSH1 0x4 ADD PUSH2 0xA17 SWAP2 SWAP1 PUSH2 0x132E JUMP JUMPDEST PUSH1 0x40 MLOAD DUP1 SWAP2 SUB SWAP1 REVERT JUMPDEST PUSH2 0xA2B DUP4 DUP4 DUP4 PUSH2 0xE58 JUMP JUMPDEST POP POP POP JUMP JUMPDEST PUSH1 0x0 PUSH20 0xFFFFFFFFFFFFFFFFFFFFFFFFFFFFFFFFFFFFFFFF AND DUP3 PUSH20 0xFFFFFFFFFFFFFFFFFFFFFFFFFFFFFFFFFFFFFFFF AND SUB PUSH2 0xAA2 JUMPI PUSH1 0x0 PUSH1 0x40 MLOAD PUSH32 0xEC442F0500000000000000000000000000000000000000000000000000000000 DUP2 MSTORE PUSH1 0x4 ADD PUSH2 0xA99 SWAP2 SWAP1 PUSH2 0x132E JUMP JUMPDEST PUSH1 0x40 MLOAD DUP1 SWAP2 SUB SWAP1 REVERT JUMPDEST PUSH2 0xAAE PUSH1 0x0 DUP4 DUP4 PUSH2 0xE58 JUMP JUMPDEST POP POP JUMP JUMPDEST PUSH2 0xABA PUSH2 0x88D JUMP JUMPDEST PUSH20 0xFFFFFFFFFFFFFFFFFFFFFFFFFFFFFFFFFFFFFFFF AND PUSH2 0xAD8 PUSH2 0x553 JUMP JUMPDEST PUSH20 0xFFFFFFFFFFFFFFFFFFFFFFFFFFFFFFFFFFFFFFFF AND EQ PUSH2 0xB37 JUMPI PUSH2 0xAFB PUSH2 0x88D JUMP JUMPDEST PUSH1 0x40 MLOAD PUSH32 0x118CDAA700000000000000000000000000000000000000000000000000000000 DUP2 MSTORE PUSH1 0x4 ADD PUSH2 0xB2E SWAP2 SWAP1 PUSH2 0x132E JUMP JUMPDEST PUSH1 0x40 MLOAD DUP1 SWAP2 SUB SWAP1 REVERT JUMPDEST JUMP JUMPDEST PUSH1 0x0 PUSH1 0x5 PUSH1 0x0 SWAP1 SLOAD SWAP1 PUSH2 0x100 EXP SWAP1 DIV PUSH20 0xFFFFFFFFFFFFFFFFFFFFFFFFFFFFFFFFFFFFFFFF AND SWAP1 POP DUP2 PUSH1 0x5 PUSH1 0x0 PUSH2 0x100 EXP DUP2 SLOAD DUP2 PUSH20 0xFFFFFFFFFFFFFFFFFFFFFFFFFFFFFFFFFFFFFFFF MUL NOT AND SWAP1 DUP4 PUSH20 0xFFFFFFFFFFFFFFFFFFFFFFFFFFFFFFFFFFFFFFFF AND MUL OR SWAP1 SSTORE POP DUP2 PUSH20 0xFFFFFFFFFFFFFFFFFFFFFFFFFFFFFFFFFFFFFFFF AND DUP2 PUSH20 0xFFFFFFFFFFFFFFFFFFFFFFFFFFFFFFFFFFFFFFFF AND PUSH32 0x8BE0079C531659141344CD1FD0A4F28419497F9722A3DAAFE3B4186F6B6457E0 PUSH1 0x40 MLOAD PUSH1 0x40 MLOAD DUP1 SWAP2 SUB SWAP1 LOG3 POP POP JUMP JUMPDEST PUSH1 0x0 PUSH20 0xFFFFFFFFFFFFFFFFFFFFFFFFFFFFFFFFFFFFFFFF AND DUP3 PUSH20 0xFFFFFFFFFFFFFFFFFFFFFFFFFFFFFFFFFFFFFFFF AND SUB PUSH2 0xC71 JUMPI PUSH1 0x0 PUSH1 0x40 MLOAD PUSH32 0x96C6FD1E00000000000000000000000000000000000000000000000000000000 DUP2 MSTORE PUSH1 0x4 ADD PUSH2 0xC68 SWAP2 SWAP1 PUSH2 0x132E JUMP JUMPDEST PUSH1 0x40 MLOAD DUP1 SWAP2 SUB SWAP1 REVERT JUMPDEST PUSH2 0xC7D DUP3 PUSH1 0x0 DUP4 PUSH2 0xE58 JUMP JUMPDEST POP POP JUMP JUMPDEST PUSH1 0x0 PUSH20 0xFFFFFFFFFFFFFFFFFFFFFFFFFFFFFFFFFFFFFFFF AND DUP5 PUSH20 0xFFFFFFFFFFFFFFFFFFFFFFFFFFFFFFFFFFFFFFFF AND SUB PUSH2 0xCF3 JUMPI PUSH1 0x0 PUSH1 0x40 MLOAD PUSH32 0xE602DF0500000000000000000000000000000000000000000000000000000000 DUP2 MSTORE PUSH1 0x4 ADD PUSH2 0xCEA SWAP2 SWAP1 PUSH2 0x132E JUMP JUMPDEST PUSH1 0x40 MLOAD DUP1 SWAP2 SUB SWAP1 REVERT JUMPDEST PUSH1 0x0 PUSH20 0xFFFFFFFFFFFFFFFFFFFFFFFFFFFFFFFFFFFFFFFF AND DUP4 PUSH20 0xFFFFFFFFFFFFFFFFFFFFFFFFFFFFFFFFFFFFFFFF AND SUB PUSH2 0xD65 JUMPI PUSH1 0x0 PUSH1 0x40 MLOAD PUSH32 0x94280D6200000000000000000000000000000000000000000000000000000000 DUP2 MSTORE PUSH1 0x4 ADD PUSH2 0xD5C SWAP2 SWAP1 PUSH2 0x132E JUMP JUMPDEST PUSH1 0x40 MLOAD DUP1 SWAP2 SUB SWAP1 REVERT JUMPDEST DUP2 PUSH1 0x1 PUSH1 0x0 DUP7 PUSH20 0xFFFFFFFFFFFFFFFFFFFFFFFFFFFFFFFFFFFFFFFF AND PUSH20 0xFFFFFFFFFFFFFFFFFFFFFFFFFFFFFFFFFFFFFFFF AND DUP2 MSTORE PUSH1 0x20 ADD SWAP1 DUP2 MSTORE PUSH1 0x20 ADD PUSH1 0x0 KECCAK256 PUSH1 0x0 DUP6 PUSH20 0xFFFFFFFFFFFFFFFFFFFFFFFFFFFFFFFFFFFFFFFF AND PUSH20 0xFFFFFFFFFFFFFFFFFFFFFFFFFFFFFFFFFFFFFFFF AND DUP2 MSTORE PUSH1 0x20 ADD SWAP1 DUP2 MSTORE PUSH1 0x20 ADD PUSH1 0x0 KECCAK256 DUP2 SWAP1 SSTORE POP DUP1 ISZERO PUSH2 0xE52 JUMPI DUP3 PUSH20 0xFFFFFFFFFFFFFFFFFFFFFFFFFFFFFFFFFFFFFFFF AND DUP5 PUSH20 0xFFFFFFFFFFFFFFFFFFFFFFFFFFFFFFFFFFFFFFFF AND PUSH32 0x8C5BE1E5EBEC7D5BD14F71427D1E84F3DD0314C0F7B2291E5B200AC8C7C3B925 DUP5 PUSH1 0x40 MLOAD PUSH2 0xE49 SWAP2 SWAP1 PUSH2 0x124D JUMP JUMPDEST PUSH1 0x40 MLOAD DUP1 SWAP2 SUB SWAP1 LOG3 JUMPDEST POP POP POP POP JUMP JUMPDEST PUSH1 0x0 PUSH20 0xFFFFFFFFFFFFFFFFFFFFFFFFFFFFFFFFFFFFFFFF AND DUP4 PUSH20 0xFFFFFFFFFFFFFFFFFFFFFFFFFFFFFFFFFFFFFFFF AND SUB PUSH2 0xEAA JUMPI DUP1 PUSH1 0x2 PUSH1 0x0 DUP3 DUP3 SLOAD PUSH2 0xE9E SWAP2 SWAP1 PUSH2 0x14BB JUMP JUMPDEST SWAP3 POP POP DUP2 SWAP1 SSTORE POP PUSH2 0xF7D JUMP JUMPDEST PUSH1 0x0 DUP1 PUSH1 0x0 DUP6 PUSH20 0xFFFFFFFFFFFFFFFFFFFFFFFFFFFFFFFFFFFFFFFF AND PUSH20 0xFFFFFFFFFFFFFFFFFFFFFFFFFFFFFFFFFFFFFFFF AND DUP2 MSTORE PUSH1 0x20 ADD SWAP1 DUP2 MSTORE PUSH1 0x20 ADD PUSH1 0x0 KECCAK256 SLOAD SWAP1 POP DUP2 DUP2 LT ISZERO PUSH2 0xF36 JUMPI DUP4 DUP2 DUP4 PUSH1 0x40 MLOAD PUSH32 0xE450D38C00000000000000000000000000000000000000000000000000000000 DUP2 MSTORE PUSH1 0x4 ADD PUSH2 0xF2D SWAP4 SWAP3 SWAP2 SWAP1 PUSH2 0x1455 JUMP JUMPDEST PUSH1 0x40 MLOAD DUP1 SWAP2 SUB SWAP1 REVERT JUMPDEST DUP2 DUP2 SUB PUSH1 0x0 DUP1 DUP7 PUSH20 0xFFFFFFFFFFFFFFFFFFFFFFFFFFFFFFFFFFFFFFFF AND PUSH20 0xFFFFFFFFFFFFFFFFFFFFFFFFFFFFFFFFFFFFFFFF AND DUP2 MSTORE PUSH1 0x20 ADD SWAP1 DUP2 MSTORE PUSH1 0x20 ADD PUSH1 0x0 KECCAK256 DUP2 SWAP1 SSTORE POP POP JUMPDEST PUSH1 0x0 PUSH20 0xFFFFFFFFFFFFFFFFFFFFFFFFFFFFFFFFFFFFFFFF AND DUP3 PUSH20 0xFFFFFFFFFFFFFFFFFFFFFFFFFFFFFFFFFFFFFFFF AND SUB PUSH2 0xFC6 JUMPI DUP1 PUSH1 0x2 PUSH1 0x0 DUP3 DUP3 SLOAD SUB SWAP3 POP POP DUP2 SWAP1 SSTORE POP PUSH2 0x1013 JUMP JUMPDEST DUP1 PUSH1 0x0 DUP1 DUP5 PUSH20 0xFFFFFFFFFFFFFFFFFFFFFFFFFFFFFFFFFFFFFFFF AND PUSH20 0xFFFFFFFFFFFFFFFFFFFFFFFFFFFFFFFFFFFFFFFF AND DUP2 MSTORE PUSH1 0x20 ADD SWAP1 DUP2 MSTORE PUSH1 0x20 ADD PUSH1 0x0 KECCAK256 PUSH1 0x0 DUP3 DUP3 SLOAD ADD SWAP3 POP POP DUP2 SWAP1 SSTORE POP JUMPDEST DUP2 PUSH20 0xFFFFFFFFFFFFFFFFFFFFFFFFFFFFFFFFFFFFFFFF AND DUP4 PUSH20 0xFFFFFFFFFFFFFFFFFFFFFFFFFFFFFFFFFFFFFFFF AND PUSH32 0xDDF252AD1BE2C89B69C2B068FC378DAA952BA7F163C4A11628F55A4DF523B3EF DUP4 PUSH1 0x40 MLOAD PUSH2 0x1070 SWAP2 SWAP1 PUSH2 0x124D JUMP JUMPDEST PUSH1 0x40 MLOAD DUP1 SWAP2 SUB SWAP1 LOG3 POP POP POP JUMP JUMPDEST PUSH1 0x0 DUP2 MLOAD SWAP1 POP SWAP2 SWAP1 POP JUMP JUMPDEST PUSH1 0x0 DUP3 DUP3 MSTORE PUSH1 0x20 DUP3 ADD SWAP1 POP SWAP3 SWAP2 POP POP JUMP JUMPDEST PUSH1 0x0 JUMPDEST DUP4 DUP2 LT ISZERO PUSH2 0x10B7 JUMPI DUP1 DUP3 ADD MLOAD DUP2 DUP5 ADD MSTORE PUSH1 0x20 DUP2 ADD SWAP1 POP PUSH2 0x109C JUMP JUMPDEST PUSH1 0x0 DUP5 DUP5 ADD MSTORE POP POP POP POP JUMP JUMPDEST PUSH1 0x0 PUSH1 0x1F NOT PUSH1 0x1F DUP4 ADD AND SWAP1 POP SWAP2 SWAP1 POP JUMP JUMPDEST PUSH1 0x0 PUSH2 0x10DF DUP3 PUSH2 0x107D JUMP JUMPDEST PUSH2 0x10E9 DUP2 DUP6 PUSH2 0x1088 JUMP JUMPDEST SWAP4 POP PUSH2 0x10F9 DUP2 DUP6 PUSH1 0x20 DUP7 ADD PUSH2 0x1099 JUMP JUMPDEST PUSH2 0x1102 DUP2 PUSH2 0x10C3 JUMP JUMPDEST DUP5 ADD SWAP2 POP POP SWAP3 SWAP2 POP POP JUMP JUMPDEST PUSH1 0x0 PUSH1 0x20 DUP3 ADD SWAP1 POP DUP2 DUP2 SUB PUSH1 0x0 DUP4 ADD MSTORE PUSH2 0x1127 DUP2 DUP5 PUSH2 0x10D4 JUMP JUMPDEST SWAP1 POP SWAP3 SWAP2 POP POP JUMP JUMPDEST PUSH1 0x0 DUP1 REVERT JUMPDEST PUSH1 0x0 PUSH20 0xFFFFFFFFFFFFFFFFFFFFFFFFFFFFFFFFFFFFFFFF DUP3 AND SWAP1 POP SWAP2 SWAP1 POP JUMP JUMPDEST PUSH1 0x0 PUSH2 0x115F DUP3 PUSH2 0x1134 JUMP JUMPDEST SWAP1 POP SWAP2 SWAP1 POP JUMP JUMPDEST PUSH2 0x116F DUP2 PUSH2 0x1154 JUMP JUMPDEST DUP2 EQ PUSH2 0x117A JUMPI PUSH1 0x0 DUP1 REVERT JUMPDEST POP JUMP JUMPDEST PUSH1 0x0 DUP2 CALLDATALOAD SWAP1 POP PUSH2 0x118C DUP2 PUSH2 0x1166 JUMP JUMPDEST SWAP3 SWAP2 POP POP JUMP JUMPDEST PUSH1 0x0 DUP2 SWAP1 POP SWAP2 SWAP1 POP JUMP JUMPDEST PUSH2 0x11A5 DUP2 PUSH2 0x1192 JUMP JUMPDEST DUP2 EQ PUSH2 0x11B0 JUMPI PUSH1 0x0 DUP1 REVERT JUMPDEST POP JUMP JUMPDEST PUSH1 0x0 DUP2 CALLDATALOAD SWAP1 POP PUSH2 0x11C2 DUP2 PUSH2 0x119C JUMP JUMPDEST SWAP3 SWAP2 POP POP JUMP JUMPDEST PUSH1 0x0 DUP1 PUSH1 0x40 DUP4 DUP6 SUB SLT ISZERO PUSH2 0x11DF JUMPI PUSH2 0x11DE PUSH2 0x112F JUMP JUMPDEST JUMPDEST PUSH1 0x0 PUSH2 0x11ED DUP6 DUP3 DUP7 ADD PUSH2 0x117D JUMP JUMPDEST SWAP3 POP POP PUSH1 0x20 PUSH2 0x11FE DUP6 DUP3 DUP7 ADD PUSH2 0x11B3 JUMP JUMPDEST SWAP2 POP POP SWAP3 POP SWAP3 SWAP1 POP JUMP JUMPDEST PUSH1 0x0 DUP2 ISZERO ISZERO SWAP1 POP SWAP2 SWAP1 POP JUMP JUMPDEST PUSH2 0x121D DUP2 PUSH2 0x1208 JUMP JUMPDEST DUP3 MSTORE POP POP JUMP JUMPDEST PUSH1 0x0 PUSH1 0x20 DUP3 ADD SWAP1 POP PUSH2 0x1238 PUSH1 0x0 DUP4 ADD DUP5 PUSH2 0x1214 JUMP JUMPDEST SWAP3 SWAP2 POP POP JUMP JUMPDEST PUSH2 0x1247 DUP2 PUSH2 0x1192 JUMP JUMPDEST DUP3 MSTORE POP POP JUMP JUMPDEST PUSH1 0x0 PUSH1 0x20 DUP3 ADD SWAP1 POP PUSH2 0x1262 PUSH1 0x0 DUP4 ADD DUP5 PUSH2 0x123E JUMP JUMPDEST SWAP3 SWAP2 POP POP JUMP JUMPDEST PUSH1 0x0 DUP1 PUSH1 0x0 PUSH1 0x60 DUP5 DUP7 SUB SLT ISZERO PUSH2 0x1281 JUMPI PUSH2 0x1280 PUSH2 0x112F JUMP JUMPDEST JUMPDEST PUSH1 0x0 PUSH2 0x128F DUP7 DUP3 DUP8 ADD PUSH2 0x117D JUMP JUMPDEST SWAP4 POP POP PUSH1 0x20 PUSH2 0x12A0 DUP7 DUP3 DUP8 ADD PUSH2 0x117D JUMP JUMPDEST SWAP3 POP POP PUSH1 0x40 PUSH2 0x12B1 DUP7 DUP3 DUP8 ADD PUSH2 0x11B3 JUMP JUMPDEST SWAP2 POP POP SWAP3 POP SWAP3 POP SWAP3 JUMP JUMPDEST PUSH1 0x0 PUSH1 0xFF DUP3 AND SWAP1 POP SWAP2 SWAP1 POP JUMP JUMPDEST PUSH2 0x12D1 DUP2 PUSH2 0x12BB JUMP JUMPDEST DUP3 MSTORE POP POP JUMP JUMPDEST PUSH1 0x0 PUSH1 0x20 DUP3 ADD SWAP1 POP PUSH2 0x12EC PUSH1 0x0 DUP4 ADD DUP5 PUSH2 0x12C8 JUMP JUMPDEST SWAP3 SWAP2 POP POP JUMP JUMPDEST PUSH1 0x0 PUSH1 0x20 DUP3 DUP5 SUB SLT ISZERO PUSH2 0x1308 JUMPI PUSH2 0x1307 PUSH2 0x112F JUMP JUMPDEST JUMPDEST PUSH1 0x0 PUSH2 0x1316 DUP5 DUP3 DUP6 ADD PUSH2 0x117D JUMP JUMPDEST SWAP2 POP POP SWAP3 SWAP2 POP POP JUMP JUMPDEST PUSH2 0x1328 DUP2 PUSH2 0x1154 JUMP JUMPDEST DUP3 MSTORE POP POP JUMP JUMPDEST PUSH1 0x0 PUSH1 0x20 DUP3 ADD SWAP1 POP PUSH2 0x1343 PUSH1 0x0 DUP4 ADD DUP5 PUSH2 0x131F JUMP JUMPDEST SWAP3 SWAP2 POP POP JUMP JUMPDEST PUSH2 0x1352 DUP2 PUSH2 0x1208 JUMP JUMPDEST DUP2 EQ PUSH2 0x135D JUMPI PUSH1 0x0 DUP1 REVERT JUMPDEST POP JUMP JUMPDEST PUSH1 0x0 DUP2 CALLDATALOAD SWAP1 POP PUSH2 0x136F DUP2 PUSH2 0x1349 JUMP JUMPDEST SWAP3 SWAP2 POP POP JUMP JUMPDEST PUSH1 0x0 DUP1 PUSH1 0x40 DUP4 DUP6 SUB SLT ISZERO PUSH2 0x138C JUMPI PUSH2 0x138B PUSH2 0x112F JUMP JUMPDEST JUMPDEST PUSH1 0x0 PUSH2 0x139A DUP6 DUP3 DUP7 ADD PUSH2 0x117D JUMP JUMPDEST SWAP3 POP POP PUSH1 0x20 PUSH2 0x13AB DUP6 DUP3 DUP7 ADD PUSH2 0x1360 JUMP JUMPDEST SWAP2 POP POP SWAP3 POP SWAP3 SWAP1 POP JUMP JUMPDEST PUSH1 0x0 DUP1 PUSH1 0x40 DUP4 DUP6 SUB SLT ISZERO PUSH2 0x13CC JUMPI PUSH2 0x13CB PUSH2 0x112F JUMP JUMPDEST JUMPDEST PUSH1 0x0 PUSH2 0x13DA DUP6 DUP3 DUP7 ADD PUSH2 0x117D JUMP JUMPDEST SWAP3 POP POP PUSH1 0x20 PUSH2 0x13EB DUP6 DUP3 DUP7 ADD PUSH2 0x117D JUMP JUMPDEST SWAP2 POP POP SWAP3 POP SWAP3 SWAP1 POP JUMP JUMPDEST PUSH32 0x4E487B7100000000000000000000000000000000000000000000000000000000 PUSH1 0x0 MSTORE PUSH1 0x22 PUSH1 0x4 MSTORE PUSH1 0x24 PUSH1 0x0 REVERT JUMPDEST PUSH1 0x0 PUSH1 0x2 DUP3 DIV SWAP1 POP PUSH1 0x1 DUP3 AND DUP1 PUSH2 0x143C JUMPI PUSH1 0x7F DUP3 AND SWAP2 POP JUMPDEST PUSH1 0x20 DUP3 LT DUP2 SUB PUSH2 0x144F JUMPI PUSH2 0x144E PUSH2 0x13F5 JUMP JUMPDEST JUMPDEST POP SWAP2 SWAP1 POP JUMP JUMPDEST PUSH1 0x0 PUSH1 0x60 DUP3 ADD SWAP1 POP PUSH2 0x146A PUSH1 0x0 DUP4 ADD DUP7 PUSH2 0x131F JUMP JUMPDEST PUSH2 0x1477 PUSH1 0x20 DUP4 ADD DUP6 PUSH2 0x123E JUMP JUMPDEST PUSH2 0x1484 PUSH1 0x40 DUP4 ADD DUP5 PUSH2 0x123E JUMP JUMPDEST SWAP5 SWAP4 POP POP POP POP JUMP JUMPDEST PUSH32 0x4E487B7100000000000000000000000000000000000000000000000000000000 PUSH1 0x0 MSTORE PUSH1 0x11 PUSH1 0x4 MSTORE PUSH1 0x24 PUSH1 0x0 REVERT JUMPDEST PUSH1 0x0 PUSH2 0x14C6 DUP3 PUSH2 0x1192 JUMP JUMPDEST SWAP2 POP PUSH2 0x14D1 DUP4 PUSH2 0x1192 JUMP JUMPDEST SWAP3 POP DUP3 DUP3 ADD SWAP1 POP DUP1 DUP3 GT ISZERO PUSH2 0x14E9 JUMPI PUSH2 0x14E8 PUSH2 0x148C JUMP JUMPDEST JUMPDEST SWAP3 SWAP2 POP POP JUMP INVALID LOG2 PUSH5 0x6970667358 0x22 SLT KECCAK256 DUP1 0xEF SWAP15 0xDE PUSH12 0x3A512C5A3206C6A142349EC3 PUSH15 0x8051DE56C5C7993D9A2CF3B1545364 PUSH20 0x6F6C634300081C00330000000000000000000000 "
        },
        "methodIdentifiers": {
          "allowance(address,address)": "dd62ed3e",
          "approve(address,uint256)": "095ea7b3",
          "balanceOf(address)": "70a08231",
          "burn(address,uint256)": "9dc29fac",
          "decimals()": "313ce567",
          "isMinter(address)": "aa271e1a",
          "mint(address,uint256)": "40c10f19",
          "name()": "06fdde03",
          "owner()": "8da5cb5b",
          "renounceOwnership()": "715018a6",
          "setMinter(address,bool)": "cf456ae7",
          "symbol()": "95d89b41",
          "totalSupply()": "18160ddd",
          "transfer(address,uint256)": "a9059cbb",
          "transferFrom(address,address,uint256)": "23b872dd",
          "transferOwnership(address)": "f2fde38b"
        }
      }
    }
  }
}