{
  "_format": "hh-sol-artifact-1",
  "contractName": "TodoList",
  "sourceName": "contracts/TodoList.sol",
  "abi": [
    {
      "inputs": [
        {
          "internalType": "string",
          "name": "reason",
          "type": "string"
        }
      ],
      "name": "EmptyTodoDescription",
      "type": "error"
    },
    {
      "inputs": [
        {
          "internalType": "string",
          "name": "reason",
          "type": "string"
        }
      ],
      "name": "EmptyTodoTitle",
      "type": "error"
    },
    {
      "inputs": [
        {
          "internalType": "string",
          "name": "reason",
          "type": "string"
        }
      ],
      "name": "InvalidTodoIndex",
      "type": "error"
    },
    {
      "inputs": [
        {
          "internalType": "string",
          "name": "reason",
          "type": "string"
        }
      ],
      "name": "TodoAlreadyExists",
      "type": "error"
    },
    {
      "inputs": [
        {
          "internalType": "string",
          "name": "reason",
          "type": "string"
        }
      ],
      "name": "TodoNotFound",
      "type": "error"
    },
    {
      "inputs": [
        {
          "internalType": "string",
          "name": "reason",
          "type": "string"
        }
      ],
      "name": "UnauthorizedAccess",
      "type": "error"
    },
    {
      "anonymous": false,
      "inputs": [
        {
          "indexed": true,
          "internalType": "address",
          "name": "todoAddress",
          "type": "address"
        },
        {
          "indexed": false,
          "internalType": "string",
          "name": "title",
          "type": "string"
        }
      ],
      "name": "TodoCreated",
      "type": "event"
    },
    {
      "anonymous": false,
      "inputs": [
        {
          "indexed": true,
          "internalType": "address",
          "name": "todoAddress",
          "type": "address"
        }
      ],
      "name": "TodoDeleted",
      "type": "event"
    },
    {
      "anonymous": false,
      "inputs": [
        {
          "indexed": true,
          "internalType": "address",
          "name": "todoAddress",
          "type": "address"
        },
        {
          "indexed": false,
          "internalType": "enum TodoList.Status",
          "name": "newStatus",
          "type": "uint8"
        }
      ],
      "name": "TodoStatusToggled",
      "type": "event"
    },
    {
      "anonymous": false,
      "inputs": [
        {
          "indexed": true,
          "internalType": "address",
          "name": "todoAddress",
          "type": "address"
        },
        {
          "indexed": false,
          "internalType": "string",
          "name": "newTitle",
          "type": "string"
        }
      ],
      "name": "TodoUpdated",
      "type": "event"
    },
    {
      "inputs": [
        {
          "internalType": "address",
          "name": "_todoAddress",
          "type": "address"
        },
        {
          "internalType": "string",
          "name": "_title",
          "type": "string"
        },
        {
          "internalType": "string",
          "name": "_description",
          "type": "string"
        }
      ],
      "name": "createTodo",
      "outputs": [],
      "stateMutability": "nonpayable",
      "type": "function"
    },
    {
      "inputs": [
        {
          "internalType": "address",
          "name": "_todoAddress",
          "type": "address"
        }
      ],
      "name": "deleteTodo",
      "outputs": [],
      "stateMutability": "nonpayable",
      "type": "function"
    },
    {
      "inputs": [
        {
          "internalType": "address",
          "name": "_todoAddress",
          "type": "address"
        }
      ],
      "name": "getTodo",
      "outputs": [
        {
          "components": [
            {
              "internalType": "string",
              "name": "title",
              "type": "string"
            },
            {
              "internalType": "string",
              "name": "description",
              "type": "string"
            },
            {
              "internalType": "enum TodoList.Status",
              "name": "status",
              "type": "uint8"
            },
            {
              "internalType": "address",
              "name": "creator",
              "type": "address"
            }
          ],
          "internalType": "struct TodoList.Todo",
          "name": "",
          "type": "tuple"
        }
      ],
      "stateMutability": "view",
      "type": "function"
    },
    {
      "inputs": [],
      "name": "getTodos",
      "outputs": [
        {
          "components": [
            {
              "internalType": "string",
              "name": "title",
              "type": "string"
            },
            {
              "internalType": "string",
              "name": "description",
              "type": "string"
            },
            {
              "internalType": "enum TodoList.Status",
              "name": "status",
              "type": "uint8"
            },
            {
              "internalType": "address",
              "name": "creator",
              "type": "address"
            }
          ],
          "internalType": "struct TodoList.Todo[]",
          "name": "",
          "type": "tuple[]"
        }
      ],
      "stateMutability": "view",
      "type": "function"
    },
    {
      "inputs": [
        {
          "internalType": "address",
          "name": "_todoAddress",
          "type": "address"
        }
      ],
      "name": "toggleTodoStatus",
      "outputs": [],
      "stateMutability": "nonpayable",
      "type": "function"
    },
    {
      "inputs": [
        {
          "internalType": "address",
          "name": "_todoAddress",
          "type": "address"
        },
        {
          "internalType": "string",
          "name": "_newTitle",
          "type": "string"
        },
        {
          "internalType": "string",
          "name": "_newDescription",
          "type": "string"
        }
      ],
      "name": "updateTodo",
      "outputs": [],
      "stateMutability": "nonpayable",
      "type": "function"
    }
  ],
  "bytecode": "0x6080604052348015600f57600080fd5b50611f678061001f6000396000f3fe608060405234801561001057600080fd5b50600436106100625760003560e01c80634cba708b14610067578063989525c514610083578063af3116d81461009f578063c33926cb146100cf578063e2c251f5146100ed578063f21faa2714610109575b600080fd5b610081600480360381019061007c91906113d3565b610125565b005b61009d60048036038101906100989190611546565b6103ca565b005b6100b960048036038101906100b491906113d3565b6106c8565b6040516100c69190611740565b60405180910390f35b6100d7610967565b6040516100e4919061188e565b60405180910390f35b610107600480360381019061010291906113d3565b610c45565b005b610123600480360381019061011e9190611546565b61100f565b005b8060008060008373ffffffffffffffffffffffffffffffffffffffff1673ffffffffffffffffffffffffffffffffffffffff1681526020019081526020016000206000018054610174906118df565b9050036101b6576040517fd5d3da230000000000000000000000000000000000000000000000000000000081526004016101ad9061196d565b60405180910390fd5b813373ffffffffffffffffffffffffffffffffffffffff166000808373ffffffffffffffffffffffffffffffffffffffff1673ffffffffffffffffffffffffffffffffffffffff16815260200190815260200160002060020160019054906101000a900473ffffffffffffffffffffffffffffffffffffffff1673ffffffffffffffffffffffffffffffffffffffff1614610286576040517ff0b1bddb00000000000000000000000000000000000000000000000000000000815260040161027d906119ff565b60405180910390fd5b60008060008573ffffffffffffffffffffffffffffffffffffffff1673ffffffffffffffffffffffffffffffffffffffff1681526020019081526020016000209050600060018111156102dc576102db611650565b5b8160020160009054906101000a900460ff166001811115610300576102ff611650565b5b036103375760018160020160006101000a81548160ff0219169083600181111561032d5761032c611650565b5b0217905550610365565b60008160020160006101000a81548160ff0219169083600181111561035f5761035e611650565b5b02179055505b8373ffffffffffffffffffffffffffffffffffffffff167f389485a5c555a61feb0cc81870abcbf697921eb89016ec8654120a9e296e000a8260020160009054906101000a900460ff166040516103bc9190611a2e565b60405180910390a250505050565b8260008060008373ffffffffffffffffffffffffffffffffffffffff1673ffffffffffffffffffffffffffffffffffffffff1681526020019081526020016000206000018054610419906118df565b90501461045b576040517f1984042100000000000000000000000000000000000000000000000000000000815260040161045290611a95565b60405180910390fd5b600083510361049f576040517f1731d1d300000000000000000000000000000000000000000000000000000000815260040161049690611b01565b60405180910390fd5b60008251036104e3576040517fa1daa0100000000000000000000000000000000000000000000000000000000081526004016104da90611b6d565b60405180910390fd5b60405180608001604052808481526020018381526020016000600181111561050e5761050d611650565b5b81526020013373ffffffffffffffffffffffffffffffffffffffff168152506000808673ffffffffffffffffffffffffffffffffffffffff1673ffffffffffffffffffffffffffffffffffffffff16815260200190815260200160002060008201518160000190816105809190611d43565b5060208201518160010190816105969190611d43565b5060408201518160020160006101000a81548160ff021916908360018111156105c2576105c1611650565b5b021790555060608201518160020160016101000a81548173ffffffffffffffffffffffffffffffffffffffff021916908373ffffffffffffffffffffffffffffffffffffffff1602179055509050506001849080600181540180825580915050600190039060005260206000200160009091909190916101000a81548173ffffffffffffffffffffffffffffffffffffffff021916908373ffffffffffffffffffffffffffffffffffffffff1602179055508373ffffffffffffffffffffffffffffffffffffffff167fcf0c7f3625e02d2453b5ed78fa250e3aeb33800c5e281bcfaec4002b7581f95c846040516106ba9190611e4e565b60405180910390a250505050565b6106d06112b4565b8160008060008373ffffffffffffffffffffffffffffffffffffffff1673ffffffffffffffffffffffffffffffffffffffff168152602001908152602001600020600001805461071f906118df565b905003610761576040517fd5d3da230000000000000000000000000000000000000000000000000000000081526004016107589061196d565b60405180910390fd5b6000808473ffffffffffffffffffffffffffffffffffffffff1673ffffffffffffffffffffffffffffffffffffffff1681526020019081526020016000206040518060800160405290816000820180546107ba906118df565b80601f01602080910402602001604051908101604052809291908181526020018280546107e6906118df565b80156108335780601f1061080857610100808354040283529160200191610833565b820191906000526020600020905b81548152906001019060200180831161081657829003601f168201915b5050505050815260200160018201805461084c906118df565b80601f0160208091040260200160405190810160405280929190818152602001828054610878906118df565b80156108c55780601f1061089a576101008083540402835291602001916108c5565b820191906000526020600020905b8154815290600101906020018083116108a857829003601f168201915b505050505081526020016002820160009054906101000a900460ff1660018111156108f3576108f2611650565b5b600181111561090557610904611650565b5b81526020016002820160019054906101000a900473ffffffffffffffffffffffffffffffffffffffff1673ffffffffffffffffffffffffffffffffffffffff1673ffffffffffffffffffffffffffffffffffffffff1681525050915050919050565b6060600060018054905067ffffffffffffffff81111561098a5761098961141b565b5b6040519080825280602002602001820160405280156109c357816020015b6109b06112b4565b8152602001906001900390816109a85790505b50905060005b600180549050811015610c3d57600080600183815481106109ed576109ec611e70565b5b9060005260206000200160009054906101000a900473ffffffffffffffffffffffffffffffffffffffff1673ffffffffffffffffffffffffffffffffffffffff1673ffffffffffffffffffffffffffffffffffffffff168152602001908152602001600020604051806080016040529081600082018054610a6d906118df565b80601f0160208091040260200160405190810160405280929190818152602001828054610a99906118df565b8015610ae65780601f10610abb57610100808354040283529160200191610ae6565b820191906000526020600020905b815481529060010190602001808311610ac957829003601f168201915b50505050508152602001600182018054610aff906118df565b80601f0160208091040260200160405190810160405280929190818152602001828054610b2b906118df565b8015610b785780601f10610b4d57610100808354040283529160200191610b78565b820191906000526020600020905b815481529060010190602001808311610b5b57829003601f168201915b505050505081526020016002820160009054906101000a900460ff166001811115610ba657610ba5611650565b5b6001811115610bb857610bb7611650565b5b81526020016002820160019054906101000a900473ffffffffffffffffffffffffffffffffffffffff1673ffffffffffffffffffffffffffffffffffffffff1673ffffffffffffffffffffffffffffffffffffffff1681525050828281518110610c2557610c24611e70565b5b602002602001018190525080806001019150506109c9565b508091505090565b8060008060008373ffffffffffffffffffffffffffffffffffffffff1673ffffffffffffffffffffffffffffffffffffffff1681526020019081526020016000206000018054610c94906118df565b905003610cd6576040517fd5d3da23000000000000000000000000000000000000000000000000000000008152600401610ccd9061196d565b60405180910390fd5b813373ffffffffffffffffffffffffffffffffffffffff166000808373ffffffffffffffffffffffffffffffffffffffff1673ffffffffffffffffffffffffffffffffffffffff16815260200190815260200160002060020160019054906101000a900473ffffffffffffffffffffffffffffffffffffffff1673ffffffffffffffffffffffffffffffffffffffff1614610da6576040517ff0b1bddb000000000000000000000000000000000000000000000000000000008152600401610d9d906119ff565b60405180910390fd5b6000808473ffffffffffffffffffffffffffffffffffffffff1673ffffffffffffffffffffffffffffffffffffffff16815260200190815260200160002060008082016000610df59190611304565b600182016000610e059190611304565b6002820160006101000a81549060ff02191690556002820160016101000a81549073ffffffffffffffffffffffffffffffffffffffff0219169055505060005b600180549050811015610fc6578373ffffffffffffffffffffffffffffffffffffffff1660018281548110610e7d57610e7c611e70565b5b9060005260206000200160009054906101000a900473ffffffffffffffffffffffffffffffffffffffff1673ffffffffffffffffffffffffffffffffffffffff1603610fb9576001808080549050610ed59190611ece565b81548110610ee657610ee5611e70565b5b9060005260206000200160009054906101000a900473ffffffffffffffffffffffffffffffffffffffff1660018281548110610f2557610f24611e70565b5b9060005260206000200160006101000a81548173ffffffffffffffffffffffffffffffffffffffff021916908373ffffffffffffffffffffffffffffffffffffffff1602179055506001805480610f7f57610f7e611f02565b5b6001900381819060005260206000200160006101000a81549073ffffffffffffffffffffffffffffffffffffffff02191690559055610fc6565b8080600101915050610e45565b508273ffffffffffffffffffffffffffffffffffffffff167f011f2d2f0888e0ac97f885d6adcb8fe6dae01312cd5eb1609bee69bc3f5b6e7460405160405180910390a2505050565b8260008060008373ffffffffffffffffffffffffffffffffffffffff1673ffffffffffffffffffffffffffffffffffffffff168152602001908152602001600020600001805461105e906118df565b9050036110a0576040517fd5d3da230000000000000000000000000000000000000000000000000000000081526004016110979061196d565b60405180910390fd5b833373ffffffffffffffffffffffffffffffffffffffff166000808373ffffffffffffffffffffffffffffffffffffffff1673ffffffffffffffffffffffffffffffffffffffff16815260200190815260200160002060020160019054906101000a900473ffffffffffffffffffffffffffffffffffffffff1673ffffffffffffffffffffffffffffffffffffffff1614611170576040517ff0b1bddb000000000000000000000000000000000000000000000000000000008152600401611167906119ff565b60405180910390fd5b60008451036111b4576040517f1731d1d30000000000000000000000000000000000000000000000000000000081526004016111ab90611b01565b60405180910390fd5b60008351036111f8576040517fa1daa0100000000000000000000000000000000000000000000000000000000081526004016111ef90611b6d565b60405180910390fd5b60008060008773ffffffffffffffffffffffffffffffffffffffff1673ffffffffffffffffffffffffffffffffffffffff16815260200190815260200160002090508481600001908161124b9190611d43565b508381600101908161125d9190611d43565b508573ffffffffffffffffffffffffffffffffffffffff167f4e13cec088ced7fd0911d14a85764a6d86f7d46c0ec61c6b3f2afa805fc12e44866040516112a49190611e4e565b60405180910390a2505050505050565b60405180608001604052806060815260200160608152602001600060018111156112e1576112e0611650565b5b8152602001600073ffffffffffffffffffffffffffffffffffffffff1681525090565b508054611310906118df565b6000825580601f106113225750611341565b601f0160209004906000526020600020908101906113409190611344565b5b50565b5b8082111561135d576000816000905550600101611345565b5090565b6000604051905090565b600080fd5b600080fd5b600073ffffffffffffffffffffffffffffffffffffffff82169050919050565b60006113a082611375565b9050919050565b6113b081611395565b81146113bb57600080fd5b50565b6000813590506113cd816113a7565b92915050565b6000602082840312156113e9576113e861136b565b5b60006113f7848285016113be565b91505092915050565b600080fd5b600080fd5b6000601f19601f8301169050919050565b7f4e487b7100000000000000000000000000000000000000000000000000000000600052604160045260246000fd5b6114538261140a565b810181811067ffffffffffffffff821117156114725761147161141b565b5b80604052505050565b6000611485611361565b9050611491828261144a565b919050565b600067ffffffffffffffff8211156114b1576114b061141b565b5b6114ba8261140a565b9050602081019050919050565b82818337600083830152505050565b60006114e96114e484611496565b61147b565b90508281526020810184848401111561150557611504611405565b5b6115108482856114c7565b509392505050565b600082601f83011261152d5761152c611400565b5b813561153d8482602086016114d6565b91505092915050565b60008060006060848603121561155f5761155e61136b565b5b600061156d868287016113be565b935050602084013567ffffffffffffffff81111561158e5761158d611370565b5b61159a86828701611518565b925050604084013567ffffffffffffffff8111156115bb576115ba611370565b5b6115c786828701611518565b9150509250925092565b600081519050919050565b600082825260208201905092915050565b60005b8381101561160b5780820151818401526020810190506115f0565b60008484015250505050565b6000611622826115d1565b61162c81856115dc565b935061163c8185602086016115ed565b6116458161140a565b840191505092915050565b7f4e487b7100000000000000000000000000000000000000000000000000000000600052602160045260246000fd5b600281106116905761168f611650565b5b50565b60008190506116a18261167f565b919050565b60006116b182611693565b9050919050565b6116c1816116a6565b82525050565b6116d081611395565b82525050565b600060808301600083015184820360008601526116f38282611617565b9150506020830151848203602086015261170d8282611617565b915050604083015161172260408601826116b8565b50606083015161173560608601826116c7565b508091505092915050565b6000602082019050818103600083015261175a81846116d6565b905092915050565b600081519050919050565b600082825260208201905092915050565b6000819050602082019050919050565b600060808301600083015184820360008601526117ab8282611617565b915050602083015184820360208601526117c58282611617565b91505060408301516117da60408601826116b8565b5060608301516117ed60608601826116c7565b508091505092915050565b6000611804838361178e565b905092915050565b6000602082019050919050565b600061182482611762565b61182e818561176d565b9350836020820285016118408561177e565b8060005b8581101561187c578484038952815161185d85826117f8565b94506118688361180c565b925060208a01995050600181019050611844565b50829750879550505050505092915050565b600060208201905081810360008301526118a88184611819565b905092915050565b7f4e487b7100000000000000000000000000000000000000000000000000000000600052602260045260246000fd5b600060028204905060018216806118f757607f821691505b60208210810361190a576119096118b0565b5b50919050565b600082825260208201905092915050565b7f546f646f206e6f7420666f756e64000000000000000000000000000000000000600082015250565b6000611957600e83611910565b915061196282611921565b602082019050919050565b600060208201905081810360008301526119868161194a565b9050919050565b7f4f6e6c792063726561746f722063616e206d6f64696679207468697320746f6460008201527f6f00000000000000000000000000000000000000000000000000000000000000602082015250565b60006119e9602183611910565b91506119f48261198d565b604082019050919050565b60006020820190508181036000830152611a18816119dc565b9050919050565b611a28816116a6565b82525050565b6000602082019050611a436000830184611a1f565b92915050565b7f546f646f20616c72656164792065786973747300000000000000000000000000600082015250565b6000611a7f601383611910565b9150611a8a82611a49565b602082019050919050565b60006020820190508181036000830152611aae81611a72565b9050919050565b7f546f646f207469746c652063616e6e6f7420626520656d707479000000000000600082015250565b6000611aeb601a83611910565b9150611af682611ab5565b602082019050919050565b60006020820190508181036000830152611b1a81611ade565b9050919050565b7f546f646f206465736372697074696f6e2063616e6e6f7420626520656d707479600082015250565b6000611b57602083611910565b9150611b6282611b21565b602082019050919050565b60006020820190508181036000830152611b8681611b4a565b9050919050565b60008190508160005260206000209050919050565b60006020601f8301049050919050565b600082821b905092915050565b600060088302611bef7fffffffffffffffffffffffffffffffffffffffffffffffffffffffffffffffff82611bb2565b611bf98683611bb2565b95508019841693508086168417925050509392505050565b6000819050919050565b6000819050919050565b6000611c40611c3b611c3684611c11565b611c1b565b611c11565b9050919050565b6000819050919050565b611c5a83611c25565b611c6e611c6682611c47565b848454611bbf565b825550505050565b600090565b611c83611c76565b611c8e818484611c51565b505050565b5b81811015611cb257611ca7600082611c7b565b600181019050611c94565b5050565b601f821115611cf757611cc881611b8d565b611cd184611ba2565b81016020851015611ce0578190505b611cf4611cec85611ba2565b830182611c93565b50505b505050565b600082821c905092915050565b6000611d1a60001984600802611cfc565b1980831691505092915050565b6000611d338383611d09565b9150826002028217905092915050565b611d4c826115d1565b67ffffffffffffffff811115611d6557611d6461141b565b5b611d6f82546118df565b611d7a828285611cb6565b600060209050601f831160018114611dad5760008415611d9b578287015190505b611da58582611d27565b865550611e0d565b601f198416611dbb86611b8d565b60005b82811015611de357848901518255600182019150602085019450602081019050611dbe565b86831015611e005784890151611dfc601f891682611d09565b8355505b6001600288020188555050505b505050505050565b6000611e20826115d1565b611e2a8185611910565b9350611e3a8185602086016115ed565b611e438161140a565b840191505092915050565b60006020820190508181036000830152611e688184611e15565b905092915050565b7f4e487b7100000000000000000000000000000000000000000000000000000000600052603260045260246000fd5b7f4e487b7100000000000000000000000000000000000000000000000000000000600052601160045260246000fd5b6000611ed982611c11565b9150611ee483611c11565b9250828203905081811115611efc57611efb611e9f565b5b92915050565b7f4e487b7100000000000000000000000000000000000000000000000000000000600052603160045260246000fdfea264697066735822122096e7b9329743aee0bbea6351744f543c0c8e80f779cc46cd87332c58d6fde91364736f6c634300081c0033",
  "linkReferences": {},
  "deployedLinkReferences": {}
}