{
  "_format": "hh-sol-artifact-1",
  "contractName": "RoleGatedGovernor",
  "sourceName": "contracts/RoleGatedGovernor.sol",
  "abi": [
    {
      "inputs": [
        {
          "internalType": "address",
          "name": "_nftAddress",
          "type": "address"
        },
        {
          "internalType": "address",
          "name": "_rolesRegistry",
          "type": "address"
        }
      ],
      "stateMutability": "nonpayable",
      "type": "constructor"
    },
    {
      "inputs": [],
      "name": "FailedCall",
      "type": "error"
    },
    {
      "inputs": [
        {
          "internalType": "address",
          "name": "voter",
          "type": "address"
        }
      ],
      "name": "GovernorAlreadyCastVote",
      "type": "error"
    },
    {
      "inputs": [
        {
          "internalType": "uint256",
          "name": "proposalId",
          "type": "uint256"
        }
      ],
      "name": "GovernorAlreadyQueuedProposal",
      "type": "error"
    },
    {
      "inputs": [],
      "name": "GovernorDisabledDeposit",
      "type": "error"
    },
    {
      "inputs": [
        {
          "internalType": "address",
          "name": "proposer",
          "type": "address"
        },
        {
          "internalType": "uint256",
          "name": "votes",
          "type": "uint256"
        },
        {
          "internalType": "uint256",
          "name": "threshold",
          "type": "uint256"
        }
      ],
      "name": "GovernorInsufficientProposerVotes",
      "type": "error"
    },
    {
      "inputs": [
        {
          "internalType": "uint256",
          "name": "targets",
          "type": "uint256"
        },
        {
          "internalType": "uint256",
          "name": "calldatas",
          "type": "uint256"
        },
        {
          "internalType": "uint256",
          "name": "values",
          "type": "uint256"
        }
      ],
      "name": "GovernorInvalidProposalLength",
      "type": "error"
    },
    {
      "inputs": [
        {
          "internalType": "address",
          "name": "voter",
          "type": "address"
        }
      ],
      "name": "GovernorInvalidSignature",
      "type": "error"
    },
    {
      "inputs": [],
      "name": "GovernorInvalidVoteParams",
      "type": "error"
    },
    {
      "inputs": [],
      "name": "GovernorInvalidVoteType",
      "type": "error"
    },
    {
      "inputs": [
        {
          "internalType": "uint256",
          "name": "votingPeriod",
          "type": "uint256"
        }
      ],
      "name": "GovernorInvalidVotingPeriod",
      "type": "error"
    },
    {
      "inputs": [
        {
          "internalType": "uint256",
          "name": "proposalId",
          "type": "uint256"
        }
      ],
      "name": "GovernorNonexistentProposal",
      "type": "error"
    },
    {
      "inputs": [
        {
          "internalType": "uint256",
          "name": "proposalId",
          "type": "uint256"
        }
      ],
      "name": "GovernorNotQueuedProposal",
      "type": "error"
    },
    {
      "inputs": [
        {
          "internalType": "address",
          "name": "account",
          "type": "address"
        }
      ],
      "name": "GovernorOnlyExecutor",
      "type": "error"
    },
    {
      "inputs": [],
      "name": "GovernorQueueNotImplemented",
      "type": "error"
    },
    {
      "inputs": [
        {
          "internalType": "address",
          "name": "proposer",
          "type": "address"
        }
      ],
      "name": "GovernorRestrictedProposer",
      "type": "error"
    },
    {
      "inputs": [
        {
          "internalType": "uint256",
          "name": "proposalId",
          "type": "uint256"
        },
        {
          "internalType": "address",
          "name": "account",
          "type": "address"
        }
      ],
      "name": "GovernorUnableToCancel",
      "type": "error"
    },
    {
      "inputs": [
        {
          "internalType": "uint256",
          "name": "proposalId",
          "type": "uint256"
        },
        {
          "internalType": "enum IGovernor.ProposalState",
          "name": "current",
          "type": "uint8"
        },
        {
          "internalType": "bytes32",
          "name": "expectedStates",
          "type": "bytes32"
        }
      ],
      "name": "GovernorUnexpectedProposalState",
      "type": "error"
    },
    {
      "inputs": [
        {
          "internalType": "address",
          "name": "account",
          "type": "address"
        },
        {
          "internalType": "uint256",
          "name": "currentNonce",
          "type": "uint256"
        }
      ],
      "name": "InvalidAccountNonce",
      "type": "error"
    },
    {
      "inputs": [],
      "name": "InvalidShortString",
      "type": "error"
    },
    {
      "inputs": [
        {
          "internalType": "uint8",
          "name": "bits",
          "type": "uint8"
        },
        {
          "internalType": "uint256",
          "name": "value",
          "type": "uint256"
        }
      ],
      "name": "SafeCastOverflowedUintDowncast",
      "type": "error"
    },
    {
      "inputs": [
        {
          "internalType": "string",
          "name": "str",
          "type": "string"
        }
      ],
      "name": "StringTooLong",
      "type": "error"
    },
    {
      "anonymous": false,
      "inputs": [],
      "name": "EIP712DomainChanged",
      "type": "event"
    },
    {
      "anonymous": false,
      "inputs": [
        {
          "indexed": false,
          "internalType": "uint256",
          "name": "proposalId",
          "type": "uint256"
        }
      ],
      "name": "ProposalCanceled",
      "type": "event"
    },
    {
      "anonymous": false,
      "inputs": [
        {
          "indexed": false,
          "internalType": "uint256",
          "name": "proposalId",
          "type": "uint256"
        },
        {
          "indexed": false,
          "internalType": "address",
          "name": "proposer",
          "type": "address"
        },
        {
          "indexed": false,
          "internalType": "address[]",
          "name": "targets",
          "type": "address[]"
        },
        {
          "indexed": false,
          "internalType": "uint256[]",
          "name": "values",
          "type": "uint256[]"
        },
        {
          "indexed": false,
          "internalType": "string[]",
          "name": "signatures",
          "type": "string[]"
        },
        {
          "indexed": false,
          "internalType": "bytes[]",
          "name": "calldatas",
          "type": "bytes[]"
        },
        {
          "indexed": false,
          "internalType": "uint256",
          "name": "voteStart",
          "type": "uint256"
        },
        {
          "indexed": false,
          "internalType": "uint256",
          "name": "voteEnd",
          "type": "uint256"
        },
        {
          "indexed": false,
          "internalType": "string",
          "name": "description",
          "type": "string"
        }
      ],
      "name": "ProposalCreated",
      "type": "event"
    },
    {
      "anonymous": false,
      "inputs": [
        {
          "indexed": false,
          "internalType": "uint256",
          "name": "proposalId",
          "type": "uint256"
        }
      ],
      "name": "ProposalExecuted",
      "type": "event"
    },
    {
      "anonymous": false,
      "inputs": [
        {
          "indexed": false,
          "internalType": "uint256",
          "name": "proposalId",
          "type": "uint256"
        },
        {
          "indexed": false,
          "internalType": "uint256",
          "name": "etaSeconds",
          "type": "uint256"
        }
      ],
      "name": "ProposalQueued",
      "type": "event"
    },
    {
      "anonymous": false,
      "inputs": [
        {
          "indexed": false,
          "internalType": "uint256",
          "name": "oldProposalThreshold",
          "type": "uint256"
        },
        {
          "indexed": false,
          "internalType": "uint256",
          "name": "newProposalThreshold",
          "type": "uint256"
        }
      ],
      "name": "ProposalThresholdSet",
      "type": "event"
    },
    {
      "anonymous": false,
      "inputs": [
        {
          "indexed": true,
          "internalType": "address",
          "name": "voter",
          "type": "address"
        },
        {
          "indexed": false,
          "internalType": "uint256",
          "name": "proposalId",
          "type": "uint256"
        },
        {
          "indexed": false,
          "internalType": "uint8",
          "name": "support",
          "type": "uint8"
        },
        {
          "indexed": false,
          "internalType": "uint256",
          "name": "weight",
          "type": "uint256"
        },
        {
          "indexed": false,
          "internalType": "string",
          "name": "reason",
          "type": "string"
        }
      ],
      "name": "VoteCast",
      "type": "event"
    },
    {
      "anonymous": false,
      "inputs": [
        {
          "indexed": true,
          "internalType": "address",
          "name": "voter",
          "type": "address"
        },
        {
          "indexed": false,
          "internalType": "uint256",
          "name": "proposalId",
          "type": "uint256"
        },
        {
          "indexed": false,
          "internalType": "uint8",
          "name": "support",
          "type": "uint8"
        },
        {
          "indexed": false,
          "internalType": "uint256",
          "name": "weight",
          "type": "uint256"
        },
        {
          "indexed": false,
          "internalType": "string",
          "name": "reason",
          "type": "string"
        },
        {
          "indexed": false,
          "internalType": "bytes",
          "name": "params",
          "type": "bytes"
        }
      ],
      "name": "VoteCastWithParams",
      "type": "event"
    },
    {
      "anonymous": false,
      "inputs": [
        {
          "indexed": false,
          "internalType": "uint256",
          "name": "oldVotingDelay",
          "type": "uint256"
        },
        {
          "indexed": false,
          "internalType": "uint256",
          "name": "newVotingDelay",
          "type": "uint256"
        }
      ],
      "name": "VotingDelaySet",
      "type": "event"
    },
    {
      "anonymous": false,
      "inputs": [
        {
          "indexed": false,
          "internalType": "uint256",
          "name": "oldVotingPeriod",
          "type": "uint256"
        },
        {
          "indexed": false,
          "internalType": "uint256",
          "name": "newVotingPeriod",
          "type": "uint256"
        }
      ],
      "name": "VotingPeriodSet",
      "type": "event"
    },
    {
      "inputs": [],
      "name": "BALLOT_TYPEHASH",
      "outputs": [
        {
          "internalType": "bytes32",
          "name": "",
          "type": "bytes32"
        }
      ],
      "stateMutability": "view",
      "type": "function"
    },
    {
      "inputs": [],
      "name": "CLOCK_MODE",
      "outputs": [
        {
          "internalType": "string",
          "name": "",
          "type": "string"
        }
      ],
      "stateMutability": "view",
      "type": "function"
    },
    {
      "inputs": [],
      "name": "COUNTING_MODE",
      "outputs": [
        {
          "internalType": "string",
          "name": "",
          "type": "string"
        }
      ],
      "stateMutability": "pure",
      "type": "function"
    },
    {
      "inputs": [],
      "name": "EXTENDED_BALLOT_TYPEHASH",
      "outputs": [
        {
          "internalType": "bytes32",
          "name": "",
          "type": "bytes32"
        }
      ],
      "stateMutability": "view",
      "type": "function"
    },
    {
      "inputs": [],
      "name": "VOTER_ROLE",
      "outputs": [
        {
          "internalType": "bytes32",
          "name": "",
          "type": "bytes32"
        }
      ],
      "stateMutability": "view",
      "type": "function"
    },
    {
      "inputs": [
        {
          "internalType": "address[]",
          "name": "targets",
          "type": "address[]"
        },
        {
          "internalType": "uint256[]",
          "name": "values",
          "type": "uint256[]"
        },
        {
          "internalType": "bytes[]",
          "name": "calldatas",
          "type": "bytes[]"
        },
        {
          "internalType": "bytes32",
          "name": "descriptionHash",
          "type": "bytes32"
        }
      ],
      "name": "cancel",
      "outputs": [
        {
          "internalType": "uint256",
          "name": "",
          "type": "uint256"
        }
      ],
      "stateMutability": "nonpayable",
      "type": "function"
    },
    {
      "inputs": [
        {
          "internalType": "uint256",
          "name": "proposalId",
          "type": "uint256"
        },
        {
          "internalType": "uint8",
          "name": "support",
          "type": "uint8"
        }
      ],
      "name": "castVote",
      "outputs": [
        {
          "internalType": "uint256",
          "name": "",
          "type": "uint256"
        }
      ],
      "stateMutability": "nonpayable",
      "type": "function"
    },
    {
      "inputs": [
        {
          "internalType": "uint256",
          "name": "proposalId",
          "type": "uint256"
        },
        {
          "internalType": "uint8",
          "name": "support",
          "type": "uint8"
        },
        {
          "internalType": "address",
          "name": "voter",
          "type": "address"
        },
        {
          "internalType": "bytes",
          "name": "signature",
          "type": "bytes"
        }
      ],
      "name": "castVoteBySig",
      "outputs": [
        {
          "internalType": "uint256",
          "name": "",
          "type": "uint256"
        }
      ],
      "stateMutability": "nonpayable",
      "type": "function"
    },
    {
      "inputs": [
        {
          "internalType": "uint256",
          "name": "proposalId",
          "type": "uint256"
        },
        {
          "internalType": "uint8",
          "name": "support",
          "type": "uint8"
        },
        {
          "internalType": "string",
          "name": "reason",
          "type": "string"
        }
      ],
      "name": "castVoteWithReason",
      "outputs": [
        {
          "internalType": "uint256",
          "name": "",
          "type": "uint256"
        }
      ],
      "stateMutability": "nonpayable",
      "type": "function"
    },
    {
      "inputs": [
        {
          "internalType": "uint256",
          "name": "proposalId",
          "type": "uint256"
        },
        {
          "internalType": "uint8",
          "name": "support",
          "type": "uint8"
        },
        {
          "internalType": "string",
          "name": "reason",
          "type": "string"
        },
        {
          "internalType": "bytes",
          "name": "params",
          "type": "bytes"
        }
      ],
      "name": "castVoteWithReasonAndParams",
      "outputs": [
        {
          "internalType": "uint256",
          "name": "",
          "type": "uint256"
        }
      ],
      "stateMutability": "nonpayable",
      "type": "function"
    },
    {
      "inputs": [
        {
          "internalType": "uint256",
          "name": "proposalId",
          "type": "uint256"
        },
        {
          "internalType": "uint8",
          "name": "support",
          "type": "uint8"
        },
        {
          "internalType": "string",
          "name": "reason",
          "type": "string"
        },
        {
          "internalType": "bytes",
          "name": "params",
          "type": "bytes"
        },
        {
          "internalType": "uint256",
          "name": "tokenId",
          "type": "uint256"
        }
      ],
      "name": "castVoteWithReasonAndParams",
      "outputs": [
        {
          "internalType": "uint256",
          "name": "balance",
          "type": "uint256"
        }
      ],
      "stateMutability": "nonpayable",
      "type": "function"
    },
    {
      "inputs": [
        {
          "internalType": "uint256",
          "name": "proposalId",
          "type": "uint256"
        },
        {
          "internalType": "uint8",
          "name": "support",
          "type": "uint8"
        },
        {
          "internalType": "address",
          "name": "voter",
          "type": "address"
        },
        {
          "internalType": "string",
          "name": "reason",
          "type": "string"
        },
        {
          "internalType": "bytes",
          "name": "params",
          "type": "bytes"
        },
        {
          "internalType": "bytes",
          "name": "signature",
          "type": "bytes"
        }
      ],
      "name": "castVoteWithReasonAndParamsBySig",
      "outputs": [
        {
          "internalType": "uint256",
          "name": "",
          "type": "uint256"
        }
      ],
      "stateMutability": "nonpayable",
      "type": "function"
    },
    {
      "inputs": [],
      "name": "clock",
      "outputs": [
        {
          "internalType": "uint48",
          "name": "",
          "type": "uint48"
        }
      ],
      "stateMutability": "view",
      "type": "function"
    },
    {
      "inputs": [],
      "name": "eip712Domain",
      "outputs": [
        {
          "internalType": "bytes1",
          "name": "fields",
          "type": "bytes1"
        },
        {
          "internalType": "string",
          "name": "name",
          "type": "string"
        },
        {
          "internalType": "string",
          "name": "version",
          "type": "string"
        },
        {
          "internalType": "uint256",
          "name": "chainId",
          "type": "uint256"
        },
        {
          "internalType": "address",
          "name": "verifyingContract",
          "type": "address"
        },
        {
          "internalType": "bytes32",
          "name": "salt",
          "type": "bytes32"
        },
        {
          "internalType": "uint256[]",
          "name": "extensions",
          "type": "uint256[]"
        }
      ],
      "stateMutability": "view",
      "type": "function"
    },
    {
      "inputs": [
        {
          "internalType": "address[]",
          "name": "targets",
          "type": "address[]"
        },
        {
          "internalType": "uint256[]",
          "name": "values",
          "type": "uint256[]"
        },
        {
          "internalType": "bytes[]",
          "name": "calldatas",
          "type": "bytes[]"
        },
        {
          "internalType": "bytes32",
          "name": "descriptionHash",
          "type": "bytes32"
        }
      ],
      "name": "execute",
      "outputs": [
        {
          "internalType": "uint256",
          "name": "",
          "type": "uint256"
        }
      ],
      "stateMutability": "payable",
      "type": "function"
    },
    {
      "inputs": [
        {
          "internalType": "address[]",
          "name": "targets",
          "type": "address[]"
        },
        {
          "internalType": "uint256[]",
          "name": "values",
          "type": "uint256[]"
        },
        {
          "internalType": "bytes[]",
          "name": "calldatas",
          "type": "bytes[]"
        },
        {
          "internalType": "bytes32",
          "name": "descriptionHash",
          "type": "bytes32"
        }
      ],
      "name": "getProposalId",
      "outputs": [
        {
          "internalType": "uint256",
          "name": "",
          "type": "uint256"
        }
      ],
      "stateMutability": "view",
      "type": "function"
    },
    {
      "inputs": [
        {
          "internalType": "address",
          "name": "account",
          "type": "address"
        },
        {
          "internalType": "uint256",
          "name": "timepoint",
          "type": "uint256"
        }
      ],
      "name": "getVotes",
      "outputs": [
        {
          "internalType": "uint256",
          "name": "",
          "type": "uint256"
        }
      ],
      "stateMutability": "view",
      "type": "function"
    },
    {
      "inputs": [
        {
          "internalType": "address",
          "name": "account",
          "type": "address"
        },
        {
          "internalType": "uint256",
          "name": "timepoint",
          "type": "uint256"
        },
        {
          "internalType": "bytes",
          "name": "params",
          "type": "bytes"
        }
      ],
      "name": "getVotesWithParams",
      "outputs": [
        {
          "internalType": "uint256",
          "name": "",
          "type": "uint256"
        }
      ],
      "stateMutability": "view",
      "type": "function"
    },
    {
      "inputs": [
        {
          "internalType": "uint256",
          "name": "proposalId",
          "type": "uint256"
        },
        {
          "internalType": "address",
          "name": "account",
          "type": "address"
        }
      ],
      "name": "hasVoted",
      "outputs": [
        {
          "internalType": "bool",
          "name": "",
          "type": "bool"
        }
      ],
      "stateMutability": "view",
      "type": "function"
    },
    {
      "inputs": [
        {
          "internalType": "address[]",
          "name": "targets",
          "type": "address[]"
        },
        {
          "internalType": "uint256[]",
          "name": "values",
          "type": "uint256[]"
        },
        {
          "internalType": "bytes[]",
          "name": "calldatas",
          "type": "bytes[]"
        },
        {
          "internalType": "bytes32",
          "name": "descriptionHash",
          "type": "bytes32"
        }
      ],
      "name": "hashProposal",
      "outputs": [
        {
          "internalType": "uint256",
          "name": "",
          "type": "uint256"
        }
      ],
      "stateMutability": "pure",
      "type": "function"
    },
    {
      "inputs": [],
      "name": "name",
      "outputs": [
        {
          "internalType": "string",
          "name": "",
          "type": "string"
        }
      ],
      "stateMutability": "view",
      "type": "function"
    },
    {
      "inputs": [],
      "name": "nftAddress",
      "outputs": [
        {
          "internalType": "address",
          "name": "",
          "type": "address"
        }
      ],
      "stateMutability": "view",
      "type": "function"
    },
    {
      "inputs": [
        {
          "internalType": "address",
          "name": "owner",
          "type": "address"
        }
      ],
      "name": "nonces",
      "outputs": [
        {
          "internalType": "uint256",
          "name": "",
          "type": "uint256"
        }
      ],
      "stateMutability": "view",
      "type": "function"
    },
    {
      "inputs": [
        {
          "internalType": "address",
          "name": "",
          "type": "address"
        },
        {
          "internalType": "address",
          "name": "",
          "type": "address"
        },
        {
          "internalType": "uint256[]",
          "name": "",
          "type": "uint256[]"
        },
        {
          "internalType": "uint256[]",
          "name": "",
          "type": "uint256[]"
        },
        {
          "internalType": "bytes",
          "name": "",
          "type": "bytes"
        }
      ],
      "name": "onERC1155BatchReceived",
      "outputs": [
        {
          "internalType": "bytes4",
          "name": "",
          "type": "bytes4"
        }
      ],
      "stateMutability": "nonpayable",
      "type": "function"
    },
    {
      "inputs": [
        {
          "internalType": "address",
          "name": "",
          "type": "address"
        },
        {
          "internalType": "address",
          "name": "",
          "type": "address"
        },
        {
          "internalType": "uint256",
          "name": "",
          "type": "uint256"
        },
        {
          "internalType": "uint256",
          "name": "",
          "type": "uint256"
        },
        {
          "internalType": "bytes",
          "name": "",
          "type": "bytes"
        }
      ],
      "name": "onERC1155Received",
      "outputs": [
        {
          "internalType": "bytes4",
          "name": "",
          "type": "bytes4"
        }
      ],
      "stateMutability": "nonpayable",
      "type": "function"
    },
    {
      "inputs": [
        {
          "internalType": "address",
          "name": "",
          "type": "address"
        },
        {
          "internalType": "address",
          "name": "",
          "type": "address"
        },
        {
          "internalType": "uint256",
          "name": "",
          "type": "uint256"
        },
        {
          "internalType": "bytes",
          "name": "",
          "type": "bytes"
        }
      ],
      "name": "onERC721Received",
      "outputs": [
        {
          "internalType": "bytes4",
          "name": "",
          "type": "bytes4"
        }
      ],
      "stateMutability": "nonpayable",
      "type": "function"
    },
    {
      "inputs": [
        {
          "internalType": "uint256",
          "name": "proposalId",
          "type": "uint256"
        }
      ],
      "name": "proposalDeadline",
      "outputs": [
        {
          "internalType": "uint256",
          "name": "",
          "type": "uint256"
        }
      ],
      "stateMutability": "view",
      "type": "function"
    },
    {
      "inputs": [
        {
          "internalType": "uint256",
          "name": "proposalId",
          "type": "uint256"
        }
      ],
      "name": "proposalEta",
      "outputs": [
        {
          "internalType": "uint256",
          "name": "",
          "type": "uint256"
        }
      ],
      "stateMutability": "view",
      "type": "function"
    },
    {
      "inputs": [
        {
          "internalType": "uint256",
          "name": "",
          "type": "uint256"
        }
      ],
      "name": "proposalNeedsQueuing",
      "outputs": [
        {
          "internalType": "bool",
          "name": "",
          "type": "bool"
        }
      ],
      "stateMutability": "view",
      "type": "function"
    },
    {
      "inputs": [
        {
          "internalType": "uint256",
          "name": "proposalId",
          "type": "uint256"
        }
      ],
      "name": "proposalProposer",
      "outputs": [
        {
          "internalType": "address",
          "name": "",
          "type": "address"
        }
      ],
      "stateMutability": "view",
      "type": "function"
    },
    {
      "inputs": [
        {
          "internalType": "uint256",
          "name": "proposalId",
          "type": "uint256"
        }
      ],
      "name": "proposalSnapshot",
      "outputs": [
        {
          "internalType": "uint256",
          "name": "",
          "type": "uint256"
        }
      ],
      "stateMutability": "view",
      "type": "function"
    },
    {
      "inputs": [],
      "name": "proposalThreshold",
      "outputs": [
        {
          "internalType": "uint256",
          "name": "",
          "type": "uint256"
        }
      ],
      "stateMutability": "view",
      "type": "function"
    },
    {
      "inputs": [
        {
          "internalType": "uint256",
          "name": "proposalId",
          "type": "uint256"
        }
      ],
      "name": "proposalVotes",
      "outputs": [
        {
          "internalType": "uint256",
          "name": "againstVotes",
          "type": "uint256"
        },
        {
          "internalType": "uint256",
          "name": "forVotes",
          "type": "uint256"
        },
        {
          "internalType": "uint256",
          "name": "abstainVotes",
          "type": "uint256"
        }
      ],
      "stateMutability": "view",
      "type": "function"
    },
    {
      "inputs": [
        {
          "internalType": "address[]",
          "name": "targets",
          "type": "address[]"
        },
        {
          "internalType": "uint256[]",
          "name": "values",
          "type": "uint256[]"
        },
        {
          "internalType": "bytes[]",
          "name": "calldatas",
          "type": "bytes[]"
        },
        {
          "internalType": "string",
          "name": "description",
          "type": "string"
        }
      ],
      "name": "propose",
      "outputs": [
        {
          "internalType": "uint256",
          "name": "",
          "type": "uint256"
        }
      ],
      "stateMutability": "nonpayable",
      "type": "function"
    },
    {
      "inputs": [
        {
          "internalType": "address[]",
          "name": "targets",
          "type": "address[]"
        },
        {
          "internalType": "uint256[]",
          "name": "values",
          "type": "uint256[]"
        },
        {
          "internalType": "bytes[]",
          "name": "calldatas",
          "type": "bytes[]"
        },
        {
          "internalType": "string",
          "name": "description",
          "type": "string"
        },
        {
          "internalType": "uint256",
          "name": "tokenId",
          "type": "uint256"
        }
      ],
      "name": "propose",
      "outputs": [
        {
          "internalType": "uint256",
          "name": "",
          "type": "uint256"
        }
      ],
      "stateMutability": "nonpayable",
      "type": "function"
    },
    {
      "inputs": [
        {
          "internalType": "address[]",
          "name": "targets",
          "type": "address[]"
        },
        {
          "internalType": "uint256[]",
          "name": "values",
          "type": "uint256[]"
        },
        {
          "internalType": "bytes[]",
          "name": "calldatas",
          "type": "bytes[]"
        },
        {
          "internalType": "bytes32",
          "name": "descriptionHash",
          "type": "bytes32"
        }
      ],
      "name": "queue",
      "outputs": [
        {
          "internalType": "uint256",
          "name": "",
          "type": "uint256"
        }
      ],
      "stateMutability": "nonpayable",
      "type": "function"
    },
    {
      "inputs": [
        {
          "internalType": "uint256",
          "name": "",
          "type": "uint256"
        }
      ],
      "name": "quorum",
      "outputs": [
        {
          "internalType": "uint256",
          "name": "",
          "type": "uint256"
        }
      ],
      "stateMutability": "pure",
      "type": "function"
    },
    {
      "inputs": [
        {
          "internalType": "address",
          "name": "target",
          "type": "address"
        },
        {
          "internalType": "uint256",
          "name": "value",
          "type": "uint256"
        },
        {
          "internalType": "bytes",
          "name": "data",
          "type": "bytes"
        }
      ],
      "name": "relay",
      "outputs": [],
      "stateMutability": "payable",
      "type": "function"
    },
    {
      "inputs": [],
      "name": "rolesRegistry",
      "outputs": [
        {
          "internalType": "address",
          "name": "",
          "type": "address"
        }
      ],
      "stateMutability": "view",
      "type": "function"
    },
    {
      "inputs": [
        {
          "internalType": "uint256",
          "name": "newProposalThreshold",
          "type": "uint256"
        }
      ],
      "name": "setProposalThreshold",
      "outputs": [],
      "stateMutability": "nonpayable",
      "type": "function"
    },
    {
      "inputs": [
        {
          "internalType": "uint48",
          "name": "newVotingDelay",
          "type": "uint48"
        }
      ],
      "name": "setVotingDelay",
      "outputs": [],
      "stateMutability": "nonpayable",
      "type": "function"
    },
    {
      "inputs": [
        {
          "internalType": "uint32",
          "name": "newVotingPeriod",
          "type": "uint32"
        }
      ],
      "name": "setVotingPeriod",
      "outputs": [],
      "stateMutability": "nonpayable",
      "type": "function"
    },
    {
      "inputs": [
        {
          "internalType": "uint256",
          "name": "proposalId",
          "type": "uint256"
        }
      ],
      "name": "state",
      "outputs": [
        {
          "internalType": "enum IGovernor.ProposalState",
          "name": "",
          "type": "uint8"
        }
      ],
      "stateMutability": "view",
      "type": "function"
    },
    {
      "inputs": [
        {
          "internalType": "bytes4",
          "name": "interfaceId",
          "type": "bytes4"
        }
      ],
      "name": "supportsInterface",
      "outputs": [
        {
          "internalType": "bool",
          "name": "",
          "type": "bool"
        }
      ],
      "stateMutability": "view",
      "type": "function"
    },
    {
      "inputs": [],
      "name": "version",
      "outputs": [
        {
          "internalType": "string",
          "name": "",
          "type": "string"
        }
      ],
      "stateMutability": "view",
      "type": "function"
    },
    {
      "inputs": [],
      "name": "votingDelay",
      "outputs": [
        {
          "internalType": "uint256",
          "name": "",
          "type": "uint256"
        }
      ],
      "stateMutability": "view",
      "type": "function"
    },
    {
      "inputs": [],
      "name": "votingPeriod",
      "outputs": [
        {
          "internalType": "uint256",
          "name": "",
          "type": "uint256"
        }
      ],
      "stateMutability": "view",
      "type": "function"
    },
    {
      "stateMutability": "payable",
      "type": "receive"
    }
  ],
  "bytecode": "0x6101a060405234801562000011575f80fd5b5060405162006e4738038062006e4783398181016040528101906200003791906200052e565b600161b2fa5f6040518060400160405280601181526020017f526f6c654761746564476f7665726e6f720000000000000000000000000000008152508062000084620001ee60201b60201c565b620000995f836200022b60201b90919060201c565b6101208181525050620000b76001826200022b60201b90919060201c565b6101408181525050818051906020012060e08181525050808051906020012061010081815250504660a08181525050620000f66200028060201b60201c565b608081815250503073ffffffffffffffffffffffffffffffffffffffff1660c08173ffffffffffffffffffffffffffffffffffffffff168152505050508060039081620001449190620007d7565b50506200015783620002dc60201b60201c565b62000168826200035160201b60201c565b62000179816200040f60201b60201c565b5050508173ffffffffffffffffffffffffffffffffffffffff166101608173ffffffffffffffffffffffffffffffffffffffff16815250508073ffffffffffffffffffffffffffffffffffffffff166101808173ffffffffffffffffffffffffffffffffffffffff1681525050505062000c09565b60606040518060400160405280600181526020017f3100000000000000000000000000000000000000000000000000000000000000815250905090565b5f602083511015620002505762000248836200045660201b60201c565b90506200027a565b826200026283620004c060201b60201c565b5f019081620002729190620007d7565b5060ff5f1b90505b92915050565b5f7f8b73c3c69bb8fe3d512ecc4cf759cc79239f7b179b0ffacaa9a75d522b39400f60e051610100514630604051602001620002c1959493929190620008f7565b60405160208183030381529060405280519060200120905090565b7fc565b045403dc03c2eea82b81a0465edad9e2e7fc4d97e11421c209da93d7a9360085f9054906101000a900465ffffffffffff1682604051620003229291906200099b565b60405180910390a18060085f6101000a81548165ffffffffffff021916908365ffffffffffff16021790555050565b5f8163ffffffff16036200039e575f6040517ff1cfbf0500000000000000000000000000000000000000000000000000000000815260040162000395919062000a07565b60405180910390fd5b7f7e3f7f0708a84de9203036abaa450dccc85ad5ff52f78c170f3edb55cf5e8828600860069054906101000a900463ffffffff1682604051620003e392919062000a69565b60405180910390a180600860066101000a81548163ffffffff021916908363ffffffff16021790555050565b7fccb45da8d5717e6c4544694297c4ba5cf151d455c9bb0ed4fc7a38411bc05461600754826040516200044492919062000a94565b60405180910390a18060078190555050565b5f80829050601f81511115620004a557826040517f305a27a90000000000000000000000000000000000000000000000000000000081526004016200049c919062000b49565b60405180910390fd5b805181620004b39062000b9a565b5f1c175f1b915050919050565b5f819050919050565b5f80fd5b5f73ffffffffffffffffffffffffffffffffffffffff82169050919050565b5f620004f882620004cd565b9050919050565b6200050a81620004ec565b811462000515575f80fd5b50565b5f815190506200052881620004ff565b92915050565b5f8060408385031215620005475762000546620004c9565b5b5f620005568582860162000518565b9250506020620005698582860162000518565b9150509250929050565b5f81519050919050565b7f4e487b71000000000000000000000000000000000000000000000000000000005f52604160045260245ffd5b7f4e487b71000000000000000000000000000000000000000000000000000000005f52602260045260245ffd5b5f6002820490506001821680620005ef57607f821691505b602082108103620006055762000604620005aa565b5b50919050565b5f819050815f5260205f209050919050565b5f6020601f8301049050919050565b5f82821b905092915050565b5f60088302620006697fffffffffffffffffffffffffffffffffffffffffffffffffffffffffffffffff826200062c565b6200067586836200062c565b95508019841693508086168417925050509392505050565b5f819050919050565b5f819050919050565b5f620006bf620006b9620006b3846200068d565b62000696565b6200068d565b9050919050565b5f819050919050565b620006da836200069f565b620006f2620006e982620006c6565b84845462000638565b825550505050565b5f90565b62000708620006fa565b62000715818484620006cf565b505050565b5b818110156200073c57620007305f82620006fe565b6001810190506200071b565b5050565b601f8211156200078b5762000755816200060b565b62000760846200061d565b8101602085101562000770578190505b620007886200077f856200061d565b8301826200071a565b50505b505050565b5f82821c905092915050565b5f620007ad5f198460080262000790565b1980831691505092915050565b5f620007c783836200079c565b9150826002028217905092915050565b620007e28262000573565b67ffffffffffffffff811115620007fe57620007fd6200057d565b5b6200080a8254620005d7565b6200081782828562000740565b5f60209050601f8311600181146200084d575f841562000838578287015190505b620008448582620007ba565b865550620008b3565b601f1984166200085d866200060b565b5f5b8281101562000886578489015182556001820191506020850194506020810190506200085f565b86831015620008a65784890151620008a2601f8916826200079c565b8355505b6001600288020188555050505b505050505050565b5f819050919050565b620008cf81620008bb565b82525050565b620008e0816200068d565b82525050565b620008f181620004ec565b82525050565b5f60a0820190506200090c5f830188620008c4565b6200091b6020830187620008c4565b6200092a6040830186620008c4565b620009396060830185620008d5565b620009486080830184620008e6565b9695505050505050565b5f65ffffffffffff82169050919050565b5f620009836200097d620009778462000952565b62000696565b6200068d565b9050919050565b620009958162000963565b82525050565b5f604082019050620009b05f8301856200098a565b620009bf60208301846200098a565b9392505050565b5f819050919050565b5f620009ef620009e9620009e384620009c6565b62000696565b6200068d565b9050919050565b62000a0181620009cf565b82525050565b5f60208201905062000a1c5f830184620009f6565b92915050565b5f63ffffffff82169050919050565b5f62000a5162000a4b62000a458462000a22565b62000696565b6200068d565b9050919050565b62000a638162000a31565b82525050565b5f60408201905062000a7e5f83018562000a58565b62000a8d602083018462000a58565b9392505050565b5f60408201905062000aa95f830185620008d5565b62000ab86020830184620008d5565b9392505050565b5f82825260208201905092915050565b5f5b8381101562000aee57808201518184015260208101905062000ad1565b5f8484015250505050565b5f601f19601f8301169050919050565b5f62000b158262000573565b62000b21818562000abf565b935062000b3381856020860162000acf565b62000b3e8162000af9565b840191505092915050565b5f6020820190508181035f83015262000b63818462000b09565b905092915050565b5f81519050919050565b5f819050602082019050919050565b5f62000b918251620008bb565b80915050919050565b5f62000ba68262000b6b565b8262000bb28462000b75565b905062000bbf8162000b84565b9250602082101562000c025762000bfd7fffffffffffffffffffffffffffffffffffffffffffffffffffffffffffffffff836020036008026200062c565b831692505b5050919050565b60805160a05160c05160e05161010051610120516101405161016051610180516161bc62000c8b5f395f8181611b8d01528181612b920152612d5b01525f81816116c201528181612bce0152612d9701525f612add01525f612aa201525f613b4c01525f613b2b01525f6136e801525f61373e01525f61376701526161bc5ff3fe60806040526004361061028b575f3560e01c80637ecebe0011610159578063b8173414116100c0578063deaaa7cc11610079578063deaaa7cc14610b7c578063e540d01d14610ba6578063eb9019d414610bce578063ece40cc114610c0a578063f23a6e6114610c32578063f8ce560a14610c6e576102fe565b8063b817341414610a58578063bc197c8114610a82578063c01f9e3714610abe578063c28bc2fa14610afa578063c59057e414610b16578063dd4e2ba514610b52576102fe565b8063a8f8a66811610112578063a8f8a66814610914578063a94015c814610950578063a9a952941461097a578063ab58fb8e146109b6578063b1be063f146109f2578063b58131b014610a2e576102fe565b80637ecebe00146107ca57806384b0196e146108065780638ff262e31461083657806391ddadf4146108725780639a802a6d1461089c5780639e5d1a57146108d8576102fe565b806343859632116101fd5780635b8d0e0d116101b65780635b8d0e0d146106885780635bf8633a146106c45780635f398a14146106ee578063790518871461072a5780637b3c71d3146107525780637d5e81e21461078e576102fe565b80634385963214610542578063452115d61461057e5780634bf5d7e9146105ba578063544ffc9c146105e457806354fd4d5014610622578063567813881461064c576102fe565b8063160cbed71161024f578063160cbed71461040a5780632656227d146104465780632d63f693146104765780632fe3e261146104b25780633932abb1146104dc5780633e4f49e614610506576102fe565b806301ffc9a71461030257806302a251a31461033e57806306fdde0314610368578063143489d014610392578063150b7a02146103ce576102fe565b366102fe573073ffffffffffffffffffffffffffffffffffffffff166102af610caa565b73ffffffffffffffffffffffffffffffffffffffff16146102fc576040517fe90a651e00000000000000000000000000000000000000000000000000000000815260040160405180910390fd5b005b5f80fd5b34801561030d575f80fd5b5061032860048036038101906103239190613dc7565b610cb1565b6040516103359190613e0c565b60405180910390f35b348015610349575f80fd5b50610352610e03565b60405161035f9190613e3d565b60405180910390f35b348015610373575f80fd5b5061037c610e22565b6040516103899190613ee0565b60405180910390f35b34801561039d575f80fd5b506103b860048036038101906103b39190613f2a565b610eb2565b6040516103c59190613f94565b60405180910390f35b3480156103d9575f80fd5b506103f460048036038101906103ef9190614103565b610eed565b6040516104019190614192565b60405180910390f35b348015610415575f80fd5b50610430600480360381019061042b9190614440565b610f6c565b60405161043d9190613e3d565b60405180910390f35b610460600480360381019061045b9190614440565b611062565b60405161046d9190613e3d565b60405180910390f35b348015610481575f80fd5b5061049c60048036038101906104979190613f2a565b61123c565b6040516104a99190613e3d565b60405180910390f35b3480156104bd575f80fd5b506104c6611272565b6040516104d39190614507565b60405180910390f35b3480156104e7575f80fd5b506104f0611296565b6040516104fd9190613e3d565b60405180910390f35b348015610511575f80fd5b5061052c60048036038101906105279190613f2a565b6112b8565b6040516105399190614593565b60405180910390f35b34801561054d575f80fd5b50610568600480360381019061056391906145ac565b61140f565b6040516105759190613e0c565b60405180910390f35b348015610589575f80fd5b506105a4600480360381019061059f9190614440565b611474565b6040516105b19190613e3d565b60405180910390f35b3480156105c5575f80fd5b506105ce6114f4565b6040516105db9190613ee0565b60405180910390f35b3480156105ef575f80fd5b5061060a60048036038101906106059190613f2a565b611531565b604051610619939291906145ea565b60405180910390f35b34801561062d575f80fd5b50610636611564565b6040516106439190613ee0565b60405180910390f35b348015610657575f80fd5b50610672600480360381019061066d9190614655565b6115a1565b60405161067f9190613e3d565b60405180910390f35b348015610693575f80fd5b506106ae60048036038101906106a991906146ec565b6115d0565b6040516106bb9190613e3d565b60405180910390f35b3480156106cf575f80fd5b506106d86116c0565b6040516106e59190613f94565b60405180910390f35b3480156106f9575f80fd5b50610714600480360381019061070f91906147ce565b6116e4565b6040516107219190613e3d565b60405180910390f35b348015610735575f80fd5b50610750600480360381019061074b91906148a9565b61174c565b005b34801561075d575f80fd5b50610778600480360381019061077391906148d4565b611760565b6040516107859190613e3d565b60405180910390f35b348015610799575f80fd5b506107b460048036038101906107af91906149e3565b6117c6565b6040516107c19190613e3d565b60405180910390f35b3480156107d5575f80fd5b506107f060048036038101906107eb9190614ab7565b6118bc565b6040516107fd9190613e3d565b60405180910390f35b348015610811575f80fd5b5061081a611902565b60405161082d9796959493929190614bd3565b60405180910390f35b348015610841575f80fd5b5061085c60048036038101906108579190614c55565b6119a7565b6040516108699190613e3d565b60405180910390f35b34801561087d575f80fd5b50610886611a19565b6040516108939190614ce4565b60405180910390f35b3480156108a7575f80fd5b506108c260048036038101906108bd9190614cfd565b611a20565b6040516108cf9190613e3d565b60405180910390f35b3480156108e3575f80fd5b506108fe60048036038101906108f99190614dbe565b611a35565b60405161090b9190613e3d565b60405180910390f35b34801561091f575f80fd5b5061093a60048036038101906109359190614440565b611ae0565b6040516109479190613e3d565b60405180910390f35b34801561095b575f80fd5b50610964611af7565b6040516109719190614507565b60405180910390f35b348015610985575f80fd5b506109a0600480360381019061099b9190613f2a565b611b1f565b6040516109ad9190613e0c565b60405180910390f35b3480156109c1575f80fd5b506109dc60048036038101906109d79190613f2a565b611b25565b6040516109e99190613e3d565b60405180910390f35b3480156109fd575f80fd5b50610a186004803603810190610a139190614e75565b611b5b565b604051610a259190613e3d565b60405180910390f35b348015610a39575f80fd5b50610a42611b7d565b604051610a4f9190613e3d565b60405180910390f35b348015610a63575f80fd5b50610a6c611b8b565b604051610a799190613f94565b60405180910390f35b348015610a8d575f80fd5b50610aa86004803603810190610aa39190614f5c565b611baf565b604051610ab59190614192565b60405180910390f35b348015610ac9575f80fd5b50610ae46004803603810190610adf9190613f2a565b611c2f565b604051610af19190613e3d565b60405180910390f35b610b146004803603810190610b0f9190615027565b611c99565b005b348015610b21575f80fd5b50610b3c6004803603810190610b379190614440565b611d22565b604051610b499190613e3d565b60405180910390f35b348015610b5d575f80fd5b50610b66611d5c565b604051610b739190613ee0565b60405180910390f35b348015610b87575f80fd5b50610b90611d99565b604051610b9d9190614507565b60405180910390f35b348015610bb1575f80fd5b50610bcc6004803603810190610bc791906150d1565b611dbd565b005b348015610bd9575f80fd5b50610bf46004803603810190610bef91906150fc565b611dd1565b604051610c019190613e3d565b60405180910390f35b348015610c15575f80fd5b50610c306004803603810190610c2b9190613f2a565b611dec565b005b348015610c3d575f80fd5b50610c586004803603810190610c53919061513a565b611e00565b604051610c659190614192565b60405180910390f35b348015610c79575f80fd5b50610c946004803603810190610c8f9190613f2a565b611e80565b604051610ca19190613e3d565b60405180910390f35b5f30905090565b5f7fcdbdfcee000000000000000000000000000000000000000000000000000000007bffffffffffffffffffffffffffffffffffffffffffffffffffffffff1916827bffffffffffffffffffffffffffffffffffffffffffffffffffffffff19161480610d84575063a8f8a66860e01b7fcdbdfcee00000000000000000000000000000000000000000000000000000000187bffffffffffffffffffffffffffffffffffffffffffffffffffffffff1916827bffffffffffffffffffffffffffffffffffffffffffffffffffffffff1916145b80610dec57507f4e2312e0000000000000000000000000000000000000000000000000000000007bffffffffffffffffffffffffffffffffffffffffffffffffffffffff1916827bffffffffffffffffffffffffffffffffffffffffffffffffffffffff1916145b80610dfc5750610dfb82611e8a565b5b9050919050565b5f600860069054906101000a900463ffffffff1663ffffffff16905090565b606060038054610e31906151fa565b80601f0160208091040260200160405190810160405280929190818152602001828054610e5d906151fa565b8015610ea85780601f10610e7f57610100808354040283529160200191610ea8565b820191905f5260205f20905b815481529060010190602001808311610e8b57829003601f168201915b5050505050905090565b5f60045f8381526020019081526020015f205f015f9054906101000a900473ffffffffffffffffffffffffffffffffffffffff169050919050565b5f3073ffffffffffffffffffffffffffffffffffffffff16610f0d610caa565b73ffffffffffffffffffffffffffffffffffffffff1614610f5a576040517fe90a651e00000000000000000000000000000000000000000000000000000000815260040160405180910390fd5b63150b7a0260e01b9050949350505050565b5f80610f7a86868686611ae0565b9050610f8f81610f8a6004611ef3565b611f17565b505f610f9e8288888888611f82565b90505f8165ffffffffffff1614611023578060045f8481526020019081526020015f206001015f6101000a81548165ffffffffffff021916908365ffffffffffff1602179055507f9a2e42fd6722813d69113e7d0079d3d940171428df7373df9c7f7617cfda28928282604051611016929190615263565b60405180910390a1611055565b6040517f90884a4600000000000000000000000000000000000000000000000000000000815260040160405180910390fd5b8192505050949350505050565b5f8061107086868686611ae0565b9050611090816110806005611ef3565b61108a6004611ef3565b17611f17565b50600160045f8381526020019081526020015f205f01601e6101000a81548160ff0219169083151502179055503073ffffffffffffffffffffffffffffffffffffffff166110dc610caa565b73ffffffffffffffffffffffffffffffffffffffff1614611192575f5b8651811015611190573073ffffffffffffffffffffffffffffffffffffffff1687828151811061112c5761112b61528a565b5b602002602001015173ffffffffffffffffffffffffffffffffffffffff1603611185576111848582815181106111655761116461528a565b5b6020026020010151805190602001206005611f8c90919063ffffffff16565b5b8060010190506110f9565b505b61119f8187878787612084565b3073ffffffffffffffffffffffffffffffffffffffff166111be610caa565b73ffffffffffffffffffffffffffffffffffffffff16141580156111e957506111e76005612169565b155b156111f9576111f860056121d5565b5b7f712ae1383f79ac853f8d882153778e0260ef8f03b504e2866e0593e04d2b291f816040516112289190613e3d565b60405180910390a180915050949350505050565b5f60045f8381526020019081526020015f205f0160149054906101000a900465ffffffffffff1665ffffffffffff169050919050565b7f3e83946653575f9a39005e1545185629e92736b7528ab20ca3816f315424a81181565b5f60085f9054906101000a900465ffffffffffff1665ffffffffffff16905090565b5f8060045f8481526020019081526020015f2090505f815f01601e9054906101000a900460ff1690505f825f01601f9054906101000a900460ff1690508115611307576007935050505061140a565b8015611319576002935050505061140a565b5f6113238661123c565b90505f810361136957856040517f6ad060750000000000000000000000000000000000000000000000000000000081526004016113609190613e3d565b60405180910390fd5b5f611372611a19565b65ffffffffffff169050808210611390575f9550505050505061140a565b5f61139a88611c2f565b90508181106113b2576001965050505050505061140a565b6113bb8861224b565b15806113cd57506113cb8861228f565b155b156113e1576003965050505050505061140a565b5f6113eb89611b25565b036113ff576004965050505050505061140a565b600596505050505050505b919050565b5f60095f8481526020019081526020015f206003015f8373ffffffffffffffffffffffffffffffffffffffff1673ffffffffffffffffffffffffffffffffffffffff1681526020019081526020015f205f9054906101000a900460ff16905092915050565b5f8061148286868686611ae0565b90505f61148d6122b6565b905061149982826122bd565b6114dc5781816040517f8fe5d8a90000000000000000000000000000000000000000000000000000000081526004016114d39291906152b7565b60405180910390fd5b6114e887878787612334565b92505050949350505050565b60606040518060400160405280601081526020017f6d6f64653d626c6f636b6e756d62657200000000000000000000000000000000815250905090565b5f805f8060095f8681526020019081526020015f209050805f015481600101548260020154935093509350509193909250565b60606040518060400160405280600181526020017f3100000000000000000000000000000000000000000000000000000000000000815250905090565b5f806115ab6122b6565b90506115c784828560405180602001604052805f815250612416565b91505092915050565b5f61162288888888888080601f0160208091040260200160405190810160405280939291908181526020018383808284375f81840152601f19601f820116905080830192505050505050508787612435565b61166357856040517f94ab6c0700000000000000000000000000000000000000000000000000000000815260040161165a9190613f94565b60405180910390fd5b6116b388878988888080601f0160208091040260200160405190810160405280939291908181526020018383808284375f81840152601f19601f82011690508083019250505050505050876124bd565b9050979650505050505050565b7f000000000000000000000000000000000000000000000000000000000000000081565b5f806116ee6122b6565b905061174087828888888080601f0160208091040260200160405190810160405280939291908181526020018383808284375f81840152601f19601f82011690508083019250505050505050876124bd565b91505095945050505050565b6117546125c7565b61175d816126bc565b50565b5f8061176a6122b6565b90506117bb86828787878080601f0160208091040260200160405190810160405280939291908181526020018383808284375f81840152601f19601f82011690508083019250505050505050612416565b915050949350505050565b5f806117d06122b6565b90506117dc818461272f565b61181d57806040517fd9b395570000000000000000000000000000000000000000000000000000000081526004016118149190613f94565b60405180910390fd5b5f611826611b7d565b90505f8111156118a3575f61185683600161183f611a19565b611849919061530b565b65ffffffffffff16611dd1565b9050818110156118a1578281836040517fc242ee1600000000000000000000000000000000000000000000000000000000815260040161189893929190615344565b60405180910390fd5b505b6118b08787878786612815565b92505050949350505050565b5f60025f8373ffffffffffffffffffffffffffffffffffffffff1673ffffffffffffffffffffffffffffffffffffffff1681526020019081526020015f20549050919050565b5f6060805f805f6060611913612a9a565b61191b612ad4565b46305f801b5f67ffffffffffffffff81111561193a57611939613fdf565b5b6040519080825280602002602001820160405280156119685781602001602082028036833780820191505090505b507f0f00000000000000000000000000000000000000000000000000000000000000959493929190965096509650965096509650965090919293949596565b5f6119b485858585612b0f565b6119f557826040517f94ab6c070000000000000000000000000000000000000000000000000000000081526004016119ec9190613f94565b60405180910390fd5b611a0f85848660405180602001604052805f815250612416565b9050949350505050565b5f43905090565b5f611a2c848484612b83565b90509392505050565b5f611a403383612b8f565b611ad388338989898080601f0160208091040260200160405190810160405280939291908181526020018383808284375f81840152601f19601f8201169050808301925050505050505088888080601f0160208091040260200160405190810160405280939291908181526020018383808284375f81840152601f19601f820116905080830192505050505050506124bd565b9050979650505050505050565b5f611aed85858585611d22565b9050949350505050565b604051602001611b06906153cd565b6040516020818303038152906040528051906020012081565b5f919050565b5f60045f8381526020019081526020015f206001015f9054906101000a900465ffffffffffff1665ffffffffffff169050919050565b5f611b663383612b8f565b611b72868686866117c6565b905095945050505050565b5f611b86612e88565b905090565b7f000000000000000000000000000000000000000000000000000000000000000081565b5f3073ffffffffffffffffffffffffffffffffffffffff16611bcf610caa565b73ffffffffffffffffffffffffffffffffffffffff1614611c1c576040517fe90a651e00000000000000000000000000000000000000000000000000000000815260040160405180910390fd5b63bc197c8160e01b905095945050505050565b5f60045f8381526020019081526020015f205f01601a9054906101000a900463ffffffff1663ffffffff1660045f8481526020019081526020015f205f0160149054906101000a900465ffffffffffff16611c8a91906153e1565b65ffffffffffff169050919050565b611ca16125c7565b5f808573ffffffffffffffffffffffffffffffffffffffff16858585604051611ccb929190615448565b5f6040518083038185875af1925050503d805f8114611d05576040519150601f19603f3d011682016040523d82523d5f602084013e611d0a565b606091505b5091509150611d198282612e91565b50505050505050565b5f84848484604051602001611d3a9493929190615624565b604051602081830303815290604052805190602001205f1c9050949350505050565b60606040518060400160405280602081526020017f737570706f72743d627261766f2671756f72756d3d666f722c6162737461696e815250905090565b7ff2aad550cf55f045cb27e9c559f9889fdfb6e6cdaa032301d6ea397784ae51d781565b611dc56125c7565b611dce81612eb5565b50565b5f611de48383611ddf612f6e565b612b83565b905092915050565b611df46125c7565b611dfd81612f84565b50565b5f3073ffffffffffffffffffffffffffffffffffffffff16611e20610caa565b73ffffffffffffffffffffffffffffffffffffffff1614611e6d576040517fe90a651e00000000000000000000000000000000000000000000000000000000815260040160405180910390fd5b63f23a6e6160e01b905095945050505050565b5f60049050919050565b5f7f01ffc9a7000000000000000000000000000000000000000000000000000000007bffffffffffffffffffffffffffffffffffffffffffffffffffffffff1916827bffffffffffffffffffffffffffffffffffffffffffffffffffffffff1916149050919050565b5f816007811115611f0757611f06614520565b5b60ff166001901b5f1b9050919050565b5f80611f22846112b8565b90505f801b83611f3183611ef3565b1603611f78578381846040517f31b75e4d000000000000000000000000000000000000000000000000000000008152600401611f6f9392919061567c565b60405180910390fd5b8091505092915050565b5f95945050505050565b5f825f0160109054906101000a90046fffffffffffffffffffffffffffffffff169050825f015f9054906101000a90046fffffffffffffffffffffffffffffffff166fffffffffffffffffffffffffffffffff16600182016fffffffffffffffffffffffffffffffff1603612006576120056041612fc9565b5b81836001015f836fffffffffffffffffffffffffffffffff166fffffffffffffffffffffffffffffffff1681526020019081526020015f208190555060018101835f0160106101000a8154816fffffffffffffffffffffffffffffffff02191690836fffffffffffffffffffffffffffffffff160217905550505050565b5f5b8451811015612161575f808683815181106120a4576120a361528a565b5b602002602001015173ffffffffffffffffffffffffffffffffffffffff168684815181106120d5576120d461528a565b5b60200260200101518685815181106120f0576120ef61528a565b5b602002602001015160405161210591906156e1565b5f6040518083038185875af1925050503d805f811461213f576040519150601f19603f3d011682016040523d82523d5f602084013e612144565b606091505b50915091506121538282612e91565b505050806001019050612086565b505050505050565b5f815f015f9054906101000a90046fffffffffffffffffffffffffffffffff166fffffffffffffffffffffffffffffffff16825f0160109054906101000a90046fffffffffffffffffffffffffffffffff166fffffffffffffffffffffffffffffffff16149050919050565b5f815f015f6101000a8154816fffffffffffffffffffffffffffffffff02191690836fffffffffffffffffffffffffffffffff1602179055505f815f0160106101000a8154816fffffffffffffffffffffffffffffffff02191690836fffffffffffffffffffffffffffffffff16021790555050565b5f8060095f8481526020019081526020015f2090508060020154816001015461227491906156f7565b6122856122808561123c565b611e80565b1115915050919050565b5f8060095f8481526020019081526020015f209050805f0154816001015411915050919050565b5f33905090565b5f8060078111156122d1576122d0614520565b5b6122da846112b8565b60078111156122ec576122eb614520565b5b14801561232c57506122fd83610eb2565b73ffffffffffffffffffffffffffffffffffffffff168273ffffffffffffffffffffffffffffffffffffffff16145b905092915050565b5f8061234286868686611ae0565b90506123a6816123526007611ef3565b61235c6006611ef3565b6123666002611ef3565b60018060078081111561237c5761237b614520565b5b612386919061572a565b6002612392919061588d565b61239c91906158d7565b5f1b181818611f17565b50600160045f8381526020019081526020015f205f01601f6101000a81548160ff0219169083151502179055507f789cf55be980739dad1d0699b93b58e806b51c9d96619bfa8fe0a28abaa7b30c816040516124029190613e3d565b60405180910390a180915050949350505050565b5f61242b85858585612426612f6e565b6124bd565b9050949350505050565b5f6124b1856124ab7f3e83946653575f9a39005e1545185629e92736b7528ab20ca3816f315424a8118a8a8a61246a8c612fda565b8b805190602001208b805190602001206040516020016124909796959493929190615919565b6040516020818303038152906040528051906020012061302d565b84613046565b90509695505050505050565b5f6124d1866124cc6001611ef3565b611f17565b505f6124e6866124e08961123c565b85612b83565b90505f6124f688888885886130f2565b90505f845103612559578673ffffffffffffffffffffffffffffffffffffffff167fb8e138887d0aa13bab447e82de9d5c1777041ecd21ca36ba824ff1e6c07ddda48988848960405161254c9493929190615986565b60405180910390a26125b0565b8673ffffffffffffffffffffffffffffffffffffffff167fe2babfbac5889a709b63bb7f598b324e08bc5a4fb9ec647fb3cbc9ec07eb871289888489896040516125a7959493929190615a18565b60405180910390a25b6125b9886132e7565b809250505095945050505050565b6125cf6122b6565b73ffffffffffffffffffffffffffffffffffffffff166125ed610caa565b73ffffffffffffffffffffffffffffffffffffffff161461264c576126106122b6565b6040517f47096e470000000000000000000000000000000000000000000000000000000081526004016126439190613f94565b60405180910390fd5b3073ffffffffffffffffffffffffffffffffffffffff1661266b610caa565b73ffffffffffffffffffffffffffffffffffffffff16146126ba575f61268f6132ea565b60405161269d929190615448565b604051809103902090505b806126b360056132f6565b036126a857505b565b7fc565b045403dc03c2eea82b81a0465edad9e2e7fc4d97e11421c209da93d7a9360085f9054906101000a900465ffffffffffff1682604051612700929190615a77565b60405180910390a18060085f6101000a81548165ffffffffffff021916908365ffffffffffff16021790555050565b5f8082519050603481101561274857600191505061280f565b5f6127568460348403613424565b90507f2370726f706f7365723d0000000000000000000000000000000000000000000075ffffffffffffffffffffffffffffffffffffffffffff19168175ffffffffffffffffffffffffffffffffffffffffffff1916146127bc5760019250505061280f565b5f806127cc86602a860386613434565b9150915081158061280857508673ffffffffffffffffffffffffffffffffffffffff168173ffffffffffffffffffffffffffffffffffffffff16145b9450505050505b92915050565b5f6128298686868680519060200120611ae0565b90508451865114158061283e57508351865114155b8061284957505f8651145b15612892578551845186516040517f447b05d0000000000000000000000000000000000000000000000000000000008152600401612889939291906145ea565b60405180910390fd5b5f60045f8381526020019081526020015f205f0160149054906101000a900465ffffffffffff1665ffffffffffff161461291157806128d0826112b8565b5f801b6040517f31b75e4d0000000000000000000000000000000000000000000000000000000081526004016129089392919061567c565b60405180910390fd5b5f61291a611296565b612922611a19565b65ffffffffffff1661293491906156f7565b90505f61293f610e03565b90505f60045f8581526020019081526020015f20905084815f015f6101000a81548173ffffffffffffffffffffffffffffffffffffffff021916908373ffffffffffffffffffffffffffffffffffffffff16021790555061299f83613545565b815f0160146101000a81548165ffffffffffff021916908365ffffffffffff1602179055506129cd8261359e565b815f01601a6101000a81548163ffffffff021916908363ffffffff1602179055507f7d84a6263ae0d98d3329bd7b46bb4e8d6f98cd35a7adb45c274c8b7fd5ebd5e084868b8b8d5167ffffffffffffffff811115612a2e57612a2d613fdf565b5b604051908082528060200260200182016040528015612a6157816020015b6060815260200190600190039081612a4c5790505b508c89898b612a7091906156f7565b8e604051612a8699989796959493929190615ba1565b60405180910390a150505095945050505050565b6060612acf5f7f00000000000000000000000000000000000000000000000000000000000000006135f590919063ffffffff16565b905090565b6060612b0a60017f00000000000000000000000000000000000000000000000000000000000000006135f590919063ffffffff16565b905090565b5f612b7983612b737ff2aad550cf55f045cb27e9c559f9889fdfb6e6cdaa032301d6ea397784ae51d7888888612b448a612fda565b604051602001612b58959493929190615c4f565b6040516020818303038152906040528051906020012061302d565b84613046565b9050949350505050565b5f600190509392505050565b5f7f000000000000000000000000000000000000000000000000000000000000000073ffffffffffffffffffffffffffffffffffffffff16633f916b487f000000000000000000000000000000000000000000000000000000000000000084604051602001612bfd906153cd565b604051602081830303815290604052805190602001206040518463ffffffff1660e01b8152600401612c3193929190615ca0565b602060405180830381865afa158015612c4c573d5f803e3d5ffd5b505050506040513d601f19601f82011682018060405250810190612c709190615ce9565b90505f73ffffffffffffffffffffffffffffffffffffffff168173ffffffffffffffffffffffffffffffffffffffff1603612ce0576040517f08c379a0000000000000000000000000000000000000000000000000000000008152600401612cd790615d5e565b60405180910390fd5b8273ffffffffffffffffffffffffffffffffffffffff168173ffffffffffffffffffffffffffffffffffffffff1614612d4e576040517f08c379a0000000000000000000000000000000000000000000000000000000008152600401612d4590615dc6565b60405180910390fd5b4267ffffffffffffffff167f000000000000000000000000000000000000000000000000000000000000000073ffffffffffffffffffffffffffffffffffffffff166365b0205b7f000000000000000000000000000000000000000000000000000000000000000085604051602001612dc6906153cd565b604051602081830303815290604052805190602001206040518463ffffffff1660e01b8152600401612dfa93929190615ca0565b602060405180830381865afa158015612e15573d5f803e3d5ffd5b505050506040513d601f19601f82011682018060405250810190612e399190615e21565b67ffffffffffffffff1611612e83576040517f08c379a0000000000000000000000000000000000000000000000000000000008152600401612e7a90615e96565b60405180910390fd5b505050565b5f600754905090565b606082612ea657612ea1826136a2565b612eae565b819050612eaf565b5b92915050565b5f8163ffffffff1603612eff575f6040517ff1cfbf05000000000000000000000000000000000000000000000000000000008152600401612ef69190615eed565b60405180910390fd5b7f7e3f7f0708a84de9203036abaa450dccc85ad5ff52f78c170f3edb55cf5e8828600860069054906101000a900463ffffffff1682604051612f42929190615f36565b60405180910390a180600860066101000a81548163ffffffff021916908363ffffffff16021790555050565b606060405180602001604052805f815250905090565b7fccb45da8d5717e6c4544694297c4ba5cf151d455c9bb0ed4fc7a38411bc0546160075482604051612fb7929190615f5d565b60405180910390a18060078190555050565b634e487b715f52806020526024601cfd5b5f60025f8373ffffffffffffffffffffffffffffffffffffffff1673ffffffffffffffffffffffffffffffffffffffff1681526020019081526020015f205f815480929190600101919050559050919050565b5f61303f6130396136e5565b8361379b565b9050919050565b5f808473ffffffffffffffffffffffffffffffffffffffff163b036130dd575f8061307185856137db565b50915091505f600381111561308957613088614520565b5b81600381111561309c5761309b614520565b5b1480156130d457508573ffffffffffffffffffffffffffffffffffffffff168273ffffffffffffffffffffffffffffffffffffffff16145b925050506130eb565b6130e8848484613830565b90505b9392505050565b5f8060095f8881526020019081526020015f209050806003015f8773ffffffffffffffffffffffffffffffffffffffff1673ffffffffffffffffffffffffffffffffffffffff1681526020019081526020015f205f9054906101000a900460ff161561319557856040517f71c6af4900000000000000000000000000000000000000000000000000000000815260040161318c9190613f94565b60405180910390fd5b6001816003015f8873ffffffffffffffffffffffffffffffffffffffff1673ffffffffffffffffffffffffffffffffffffffff1681526020019081526020015f205f6101000a81548160ff0219169083151502179055505f60028111156131ff576131fe614520565b5b60ff168560ff16036132295783815f015f82825461321d91906156f7565b925050819055506132da565b6001600281111561323d5761323c614520565b5b60ff168560ff16036132685783816001015f82825461325c91906156f7565b925050819055506132d9565b60028081111561327b5761327a614520565b5b60ff168560ff16036132a65783816002015f82825461329a91906156f7565b925050819055506132d8565b6040517f06b337c200000000000000000000000000000000000000000000000000000000815260040160405180910390fd5b5b5b8391505095945050505050565b50565b365f8036915091509091565b5f80825f015f9054906101000a90046fffffffffffffffffffffffffffffffff169050825f0160109054906101000a90046fffffffffffffffffffffffffffffffff166fffffffffffffffffffffffffffffffff16816fffffffffffffffffffffffffffffffff160361336e5761336d6031612fc9565b5b826001015f826fffffffffffffffffffffffffffffffff166fffffffffffffffffffffffffffffffff1681526020019081526020015f20549150826001015f826fffffffffffffffffffffffffffffffff166fffffffffffffffffffffffffffffffff1681526020019081526020015f205f905560018101835f015f6101000a8154816fffffffffffffffffffffffffffffffff02191690836fffffffffffffffffffffffffffffffff16021790555050919050565b5f81602084010151905092915050565b5f80845183118061344457508284115b15613454575f809150915061353d565b5f60018561346291906156f7565b841180156134da57507f30780000000000000000000000000000000000000000000000000000000000007dffffffffffffffffffffffffffffffffffffffffffffffffffffffffffff19166134b7878761394f565b7dffffffffffffffffffffffffffffffffffffffffffffffffffffffffffff1916145b90505f60026134ea83151561395f565b6134f49190615f84565b602861350091906156f7565b905080868661350f91906158d7565b03613534575f8061352189898961396a565b915091508181955095505050505061353d565b5f809350935050505b935093915050565b5f65ffffffffffff8016821115613596576030826040517f6dfcc65000000000000000000000000000000000000000000000000000000000815260040161358d929190615ffe565b60405180910390fd5b819050919050565b5f63ffffffff80168211156135ed576020826040517f6dfcc6500000000000000000000000000000000000000000000000000000000081526004016135e492919061605e565b60405180910390fd5b819050919050565b606060ff5f1b83146136115761360a83613a95565b905061369c565b81805461361d906151fa565b80601f0160208091040260200160405190810160405280929190818152602001828054613649906151fa565b80156136945780601f1061366b57610100808354040283529160200191613694565b820191905f5260205f20905b81548152906001019060200180831161367757829003601f168201915b505050505090505b92915050565b5f815111156136b357805160208201fd5b6040517fd6bda27500000000000000000000000000000000000000000000000000000000815260040160405180910390fd5b5f7f000000000000000000000000000000000000000000000000000000000000000073ffffffffffffffffffffffffffffffffffffffff163073ffffffffffffffffffffffffffffffffffffffff1614801561376057507f000000000000000000000000000000000000000000000000000000000000000046145b1561378d577f00000000000000000000000000000000000000000000000000000000000000009050613798565b613795613b07565b90505b90565b5f6040517f190100000000000000000000000000000000000000000000000000000000000081528360028201528260228201526042812091505092915050565b5f805f604184510361381b575f805f602087015192506040870151915060608701515f1a905061380d88828585613b9c565b955095509550505050613829565b5f600285515f1b9250925092505b9250925092565b5f805f8573ffffffffffffffffffffffffffffffffffffffff16858560405160240161385d929190616085565b604051602081830303815290604052631626ba7e60e01b6020820180517bffffffffffffffffffffffffffffffffffffffffffffffffffffffff83818316178352505050506040516138af91906156e1565b5f60405180830381855afa9150503d805f81146138e7576040519150601f19603f3d011682016040523d82523d5f602084013e6138ec565b606091505b509150915081801561390057506020815110155b80156139445750631626ba7e60e01b7bffffffffffffffffffffffffffffffffffffffffffffffffffffffff19168180602001905181019061394291906160c7565b145b925050509392505050565b5f81602084010151905092915050565b5f8115159050919050565b5f805f8590505f60018661397e91906156f7565b851180156139f657507f30780000000000000000000000000000000000000000000000000000000000007dffffffffffffffffffffffffffffffffffffffffffffffffffffffffffff19166139d3838861394f565b7dffffffffffffffffffffffffffffffffffffffffffffffffffffffffffff1916145b90505f6002613a0683151561395f565b613a109190615f84565b90505f808289613a2091906156f7565b90505b87811015613a80575f613a3e613a39878461394f565b613c83565b9050600f8160ff161115613a5d575f8097509750505050505050613a8d565b601083613a6a9190615f84565b92508060ff168301925050806001019050613a23565b5060018195509550505050505b935093915050565b60605f613aa183613d13565b90505f602067ffffffffffffffff811115613abf57613abe613fdf565b5b6040519080825280601f01601f191660200182016040528015613af15781602001600182028036833780820191505090505b5090508181528360208201528092505050919050565b5f7f8b73c3c69bb8fe3d512ecc4cf759cc79239f7b179b0ffacaa9a75d522b39400f7f00000000000000000000000000000000000000000000000000000000000000007f00000000000000000000000000000000000000000000000000000000000000004630604051602001613b819594939291906160f2565b60405160208183030381529060405280519060200120905090565b5f805f7f7fffffffffffffffffffffffffffffff5d576e7357a4501ddfe92f46681b20a0845f1c1115613bd8575f600385925092509250613c79565b5f6001888888886040515f8152602001604052604051613bfb9493929190616143565b6020604051602081039080840390855afa158015613c1b573d5f803e3d5ffd5b5050506020604051035190505f73ffffffffffffffffffffffffffffffffffffffff168173ffffffffffffffffffffffffffffffffffffffff1603613c6c575f60015f801b93509350935050613c79565b805f805f1b935093509350505b9450945094915050565b5f808260f81c9050602f8160ff16118015613ca15750603a8160ff16105b15613cb157603081039050613d09565b60608160ff16118015613cc7575060678160ff16105b15613cd757605781039050613d08565b60408160ff16118015613ced575060478160ff16105b15613cfd57603781039050613d07565b60ff915050613d0e565b5b5b809150505b919050565b5f8060ff835f1c169050601f811115613d58576040517fb3512b0c00000000000000000000000000000000000000000000000000000000815260040160405180910390fd5b80915050919050565b5f604051905090565b5f80fd5b5f80fd5b5f7fffffffff0000000000000000000000000000000000000000000000000000000082169050919050565b613da681613d72565b8114613db0575f80fd5b50565b5f81359050613dc181613d9d565b92915050565b5f60208284031215613ddc57613ddb613d6a565b5b5f613de984828501613db3565b91505092915050565b5f8115159050919050565b613e0681613df2565b82525050565b5f602082019050613e1f5f830184613dfd565b92915050565b5f819050919050565b613e3781613e25565b82525050565b5f602082019050613e505f830184613e2e565b92915050565b5f81519050919050565b5f82825260208201905092915050565b5f5b83811015613e8d578082015181840152602081019050613e72565b5f8484015250505050565b5f601f19601f8301169050919050565b5f613eb282613e56565b613ebc8185613e60565b9350613ecc818560208601613e70565b613ed581613e98565b840191505092915050565b5f6020820190508181035f830152613ef88184613ea8565b905092915050565b613f0981613e25565b8114613f13575f80fd5b50565b5f81359050613f2481613f00565b92915050565b5f60208284031215613f3f57613f3e613d6a565b5b5f613f4c84828501613f16565b91505092915050565b5f73ffffffffffffffffffffffffffffffffffffffff82169050919050565b5f613f7e82613f55565b9050919050565b613f8e81613f74565b82525050565b5f602082019050613fa75f830184613f85565b92915050565b613fb681613f74565b8114613fc0575f80fd5b50565b5f81359050613fd181613fad565b92915050565b5f80fd5b5f80fd5b7f4e487b71000000000000000000000000000000000000000000000000000000005f52604160045260245ffd5b61401582613e98565b810181811067ffffffffffffffff8211171561403457614033613fdf565b5b80604052505050565b5f614046613d61565b9050614052828261400c565b919050565b5f67ffffffffffffffff82111561407157614070613fdf565b5b61407a82613e98565b9050602081019050919050565b828183375f83830152505050565b5f6140a76140a284614057565b61403d565b9050828152602081018484840111156140c3576140c2613fdb565b5b6140ce848285614087565b509392505050565b5f82601f8301126140ea576140e9613fd7565b5b81356140fa848260208601614095565b91505092915050565b5f805f806080858703121561411b5761411a613d6a565b5b5f61412887828801613fc3565b945050602061413987828801613fc3565b935050604061414a87828801613f16565b925050606085013567ffffffffffffffff81111561416b5761416a613d6e565b5b614177878288016140d6565b91505092959194509250565b61418c81613d72565b82525050565b5f6020820190506141a55f830184614183565b92915050565b5f67ffffffffffffffff8211156141c5576141c4613fdf565b5b602082029050602081019050919050565b5f80fd5b5f6141ec6141e7846141ab565b61403d565b9050808382526020820190506020840283018581111561420f5761420e6141d6565b5b835b8181101561423857806142248882613fc3565b845260208401935050602081019050614211565b5050509392505050565b5f82601f83011261425657614255613fd7565b5b81356142668482602086016141da565b91505092915050565b5f67ffffffffffffffff82111561428957614288613fdf565b5b602082029050602081019050919050565b5f6142ac6142a78461426f565b61403d565b905080838252602082019050602084028301858111156142cf576142ce6141d6565b5b835b818110156142f857806142e48882613f16565b8452602084019350506020810190506142d1565b5050509392505050565b5f82601f83011261431657614315613fd7565b5b813561432684826020860161429a565b91505092915050565b5f67ffffffffffffffff82111561434957614348613fdf565b5b602082029050602081019050919050565b5f61436c6143678461432f565b61403d565b9050808382526020820190506020840283018581111561438f5761438e6141d6565b5b835b818110156143d657803567ffffffffffffffff8111156143b4576143b3613fd7565b5b8086016143c189826140d6565b85526020850194505050602081019050614391565b5050509392505050565b5f82601f8301126143f4576143f3613fd7565b5b813561440484826020860161435a565b91505092915050565b5f819050919050565b61441f8161440d565b8114614429575f80fd5b50565b5f8135905061443a81614416565b92915050565b5f805f806080858703121561445857614457613d6a565b5b5f85013567ffffffffffffffff81111561447557614474613d6e565b5b61448187828801614242565b945050602085013567ffffffffffffffff8111156144a2576144a1613d6e565b5b6144ae87828801614302565b935050604085013567ffffffffffffffff8111156144cf576144ce613d6e565b5b6144db878288016143e0565b92505060606144ec8782880161442c565b91505092959194509250565b6145018161440d565b82525050565b5f60208201905061451a5f8301846144f8565b92915050565b7f4e487b71000000000000000000000000000000000000000000000000000000005f52602160045260245ffd5b6008811061455e5761455d614520565b5b50565b5f81905061456e8261454d565b919050565b5f61457d82614561565b9050919050565b61458d81614573565b82525050565b5f6020820190506145a65f830184614584565b92915050565b5f80604083850312156145c2576145c1613d6a565b5b5f6145cf85828601613f16565b92505060206145e085828601613fc3565b9150509250929050565b5f6060820190506145fd5f830186613e2e565b61460a6020830185613e2e565b6146176040830184613e2e565b949350505050565b5f60ff82169050919050565b6146348161461f565b811461463e575f80fd5b50565b5f8135905061464f8161462b565b92915050565b5f806040838503121561466b5761466a613d6a565b5b5f61467885828601613f16565b925050602061468985828601614641565b9150509250929050565b5f80fd5b5f8083601f8401126146ac576146ab613fd7565b5b8235905067ffffffffffffffff8111156146c9576146c8614693565b5b6020830191508360018202830111156146e5576146e46141d6565b5b9250929050565b5f805f805f805f60c0888a03121561470757614706613d6a565b5b5f6147148a828b01613f16565b97505060206147258a828b01614641565b96505060406147368a828b01613fc3565b955050606088013567ffffffffffffffff81111561475757614756613d6e565b5b6147638a828b01614697565b9450945050608088013567ffffffffffffffff81111561478657614785613d6e565b5b6147928a828b016140d6565b92505060a088013567ffffffffffffffff8111156147b3576147b2613d6e565b5b6147bf8a828b016140d6565b91505092959891949750929550565b5f805f805f608086880312156147e7576147e6613d6a565b5b5f6147f488828901613f16565b955050602061480588828901614641565b945050604086013567ffffffffffffffff81111561482657614825613d6e565b5b61483288828901614697565b9350935050606086013567ffffffffffffffff81111561485557614854613d6e565b5b614861888289016140d6565b9150509295509295909350565b5f65ffffffffffff82169050919050565b6148888161486e565b8114614892575f80fd5b50565b5f813590506148a38161487f565b92915050565b5f602082840312156148be576148bd613d6a565b5b5f6148cb84828501614895565b91505092915050565b5f805f80606085870312156148ec576148eb613d6a565b5b5f6148f987828801613f16565b945050602061490a87828801614641565b935050604085013567ffffffffffffffff81111561492b5761492a613d6e565b5b61493787828801614697565b925092505092959194509250565b5f67ffffffffffffffff82111561495f5761495e613fdf565b5b61496882613e98565b9050602081019050919050565b5f61498761498284614945565b61403d565b9050828152602081018484840111156149a3576149a2613fdb565b5b6149ae848285614087565b509392505050565b5f82601f8301126149ca576149c9613fd7565b5b81356149da848260208601614975565b91505092915050565b5f805f80608085870312156149fb576149fa613d6a565b5b5f85013567ffffffffffffffff811115614a1857614a17613d6e565b5b614a2487828801614242565b945050602085013567ffffffffffffffff811115614a4557614a44613d6e565b5b614a5187828801614302565b935050604085013567ffffffffffffffff811115614a7257614a71613d6e565b5b614a7e878288016143e0565b925050606085013567ffffffffffffffff811115614a9f57614a9e613d6e565b5b614aab878288016149b6565b91505092959194509250565b5f60208284031215614acc57614acb613d6a565b5b5f614ad984828501613fc3565b91505092915050565b5f7fff0000000000000000000000000000000000000000000000000000000000000082169050919050565b614b1681614ae2565b82525050565b5f81519050919050565b5f82825260208201905092915050565b5f819050602082019050919050565b614b4e81613e25565b82525050565b5f614b5f8383614b45565b60208301905092915050565b5f602082019050919050565b5f614b8182614b1c565b614b8b8185614b26565b9350614b9683614b36565b805f5b83811015614bc6578151614bad8882614b54565b9750614bb883614b6b565b925050600181019050614b99565b5085935050505092915050565b5f60e082019050614be65f83018a614b0d565b8181036020830152614bf88189613ea8565b90508181036040830152614c0c8188613ea8565b9050614c1b6060830187613e2e565b614c286080830186613f85565b614c3560a08301856144f8565b81810360c0830152614c478184614b77565b905098975050505050505050565b5f805f8060808587031215614c6d57614c6c613d6a565b5b5f614c7a87828801613f16565b9450506020614c8b87828801614641565b9350506040614c9c87828801613fc3565b925050606085013567ffffffffffffffff811115614cbd57614cbc613d6e565b5b614cc9878288016140d6565b91505092959194509250565b614cde8161486e565b82525050565b5f602082019050614cf75f830184614cd5565b92915050565b5f805f60608486031215614d1457614d13613d6a565b5b5f614d2186828701613fc3565b9350506020614d3286828701613f16565b925050604084013567ffffffffffffffff811115614d5357614d52613d6e565b5b614d5f868287016140d6565b9150509250925092565b5f8083601f840112614d7e57614d7d613fd7565b5b8235905067ffffffffffffffff811115614d9b57614d9a614693565b5b602083019150836001820283011115614db757614db66141d6565b5b9250929050565b5f805f805f805f60a0888a031215614dd957614dd8613d6a565b5b5f614de68a828b01613f16565b9750506020614df78a828b01614641565b965050604088013567ffffffffffffffff811115614e1857614e17613d6e565b5b614e248a828b01614697565b9550955050606088013567ffffffffffffffff811115614e4757614e46613d6e565b5b614e538a828b01614d69565b93509350506080614e668a828b01613f16565b91505092959891949750929550565b5f805f805f60a08688031215614e8e57614e8d613d6a565b5b5f86013567ffffffffffffffff811115614eab57614eaa613d6e565b5b614eb788828901614242565b955050602086013567ffffffffffffffff811115614ed857614ed7613d6e565b5b614ee488828901614302565b945050604086013567ffffffffffffffff811115614f0557614f04613d6e565b5b614f11888289016143e0565b935050606086013567ffffffffffffffff811115614f3257614f31613d6e565b5b614f3e888289016149b6565b9250506080614f4f88828901613f16565b9150509295509295909350565b5f805f805f60a08688031215614f7557614f74613d6a565b5b5f614f8288828901613fc3565b9550506020614f9388828901613fc3565b945050604086013567ffffffffffffffff811115614fb457614fb3613d6e565b5b614fc088828901614302565b935050606086013567ffffffffffffffff811115614fe157614fe0613d6e565b5b614fed88828901614302565b925050608086013567ffffffffffffffff81111561500e5761500d613d6e565b5b61501a888289016140d6565b9150509295509295909350565b5f805f806060858703121561503f5761503e613d6a565b5b5f61504c87828801613fc3565b945050602061505d87828801613f16565b935050604085013567ffffffffffffffff81111561507e5761507d613d6e565b5b61508a87828801614d69565b925092505092959194509250565b5f63ffffffff82169050919050565b6150b081615098565b81146150ba575f80fd5b50565b5f813590506150cb816150a7565b92915050565b5f602082840312156150e6576150e5613d6a565b5b5f6150f3848285016150bd565b91505092915050565b5f806040838503121561511257615111613d6a565b5b5f61511f85828601613fc3565b925050602061513085828601613f16565b9150509250929050565b5f805f805f60a0868803121561515357615152613d6a565b5b5f61516088828901613fc3565b955050602061517188828901613fc3565b945050604061518288828901613f16565b935050606061519388828901613f16565b925050608086013567ffffffffffffffff8111156151b4576151b3613d6e565b5b6151c0888289016140d6565b9150509295509295909350565b7f4e487b71000000000000000000000000000000000000000000000000000000005f52602260045260245ffd5b5f600282049050600182168061521157607f821691505b602082108103615224576152236151cd565b5b50919050565b5f819050919050565b5f61524d6152486152438461486e565b61522a565b613e25565b9050919050565b61525d81615233565b82525050565b5f6040820190506152765f830185613e2e565b6152836020830184615254565b9392505050565b7f4e487b71000000000000000000000000000000000000000000000000000000005f52603260045260245ffd5b5f6040820190506152ca5f830185613e2e565b6152d76020830184613f85565b9392505050565b7f4e487b71000000000000000000000000000000000000000000000000000000005f52601160045260245ffd5b5f6153158261486e565b91506153208361486e565b9250828203905065ffffffffffff81111561533e5761533d6152de565b5b92915050565b5f6060820190506153575f830186613f85565b6153646020830185613e2e565b6153716040830184613e2e565b949350505050565b5f81905092915050565b7f564f5445520000000000000000000000000000000000000000000000000000005f82015250565b5f6153b7600583615379565b91506153c282615383565b600582019050919050565b5f6153d7826153ab565b9150819050919050565b5f6153eb8261486e565b91506153f68361486e565b9250828201905065ffffffffffff811115615414576154136152de565b5b92915050565b5f81905092915050565b5f61542f838561541a565b935061543c838584614087565b82840190509392505050565b5f615454828486615424565b91508190509392505050565b5f81519050919050565b5f82825260208201905092915050565b5f819050602082019050919050565b61549281613f74565b82525050565b5f6154a38383615489565b60208301905092915050565b5f602082019050919050565b5f6154c582615460565b6154cf818561546a565b93506154da8361547a565b805f5b8381101561550a5781516154f18882615498565b97506154fc836154af565b9250506001810190506154dd565b5085935050505092915050565b5f81519050919050565b5f82825260208201905092915050565b5f819050602082019050919050565b5f81519050919050565b5f82825260208201905092915050565b5f61556482615540565b61556e818561554a565b935061557e818560208601613e70565b61558781613e98565b840191505092915050565b5f61559d838361555a565b905092915050565b5f602082019050919050565b5f6155bb82615517565b6155c58185615521565b9350836020820285016155d785615531565b805f5b8581101561561257848403895281516155f38582615592565b94506155fe836155a5565b925060208a019950506001810190506155da565b50829750879550505050505092915050565b5f6080820190508181035f83015261563c81876154bb565b905081810360208301526156508186614b77565b9050818103604083015261566481856155b1565b905061567360608301846144f8565b95945050505050565b5f60608201905061568f5f830186613e2e565b61569c6020830185614584565b6156a960408301846144f8565b949350505050565b5f6156bb82615540565b6156c5818561541a565b93506156d5818560208601613e70565b80840191505092915050565b5f6156ec82846156b1565b915081905092915050565b5f61570182613e25565b915061570c83613e25565b9250828201905080821115615724576157236152de565b5b92915050565b5f6157348261461f565b915061573f8361461f565b9250828201905060ff811115615758576157576152de565b5b92915050565b5f8160011c9050919050565b5f808291508390505b60018511156157b35780860481111561578f5761578e6152de565b5b600185161561579e5780820291505b80810290506157ac8561575e565b9450615773565b94509492505050565b5f826157cb5760019050615886565b816157d8575f9050615886565b81600181146157ee57600281146157f857615827565b6001915050615886565b60ff84111561580a576158096152de565b5b8360020a915084821115615821576158206152de565b5b50615886565b5060208310610133831016604e8410600b841016171561585c5782820a905083811115615857576158566152de565b5b615886565b615869848484600161576a565b925090508184048111156158805761587f6152de565b5b81810290505b9392505050565b5f61589782613e25565b91506158a28361461f565b92506158cf7fffffffffffffffffffffffffffffffffffffffffffffffffffffffffffffffff84846157bc565b905092915050565b5f6158e182613e25565b91506158ec83613e25565b9250828203905081811115615904576159036152de565b5b92915050565b6159138161461f565b82525050565b5f60e08201905061592c5f83018a6144f8565b6159396020830189613e2e565b615946604083018861590a565b6159536060830187613f85565b6159606080830186613e2e565b61596d60a08301856144f8565b61597a60c08301846144f8565b98975050505050505050565b5f6080820190506159995f830187613e2e565b6159a6602083018661590a565b6159b36040830185613e2e565b81810360608301526159c58184613ea8565b905095945050505050565b5f82825260208201905092915050565b5f6159ea82615540565b6159f481856159d0565b9350615a04818560208601613e70565b615a0d81613e98565b840191505092915050565b5f60a082019050615a2b5f830188613e2e565b615a38602083018761590a565b615a456040830186613e2e565b8181036060830152615a578185613ea8565b90508181036080830152615a6b81846159e0565b90509695505050505050565b5f604082019050615a8a5f830185615254565b615a976020830184615254565b9392505050565b5f81519050919050565b5f82825260208201905092915050565b5f819050602082019050919050565b5f82825260208201905092915050565b5f615ae182613e56565b615aeb8185615ac7565b9350615afb818560208601613e70565b615b0481613e98565b840191505092915050565b5f615b1a8383615ad7565b905092915050565b5f602082019050919050565b5f615b3882615a9e565b615b428185615aa8565b935083602082028501615b5485615ab8565b805f5b85811015615b8f5784840389528151615b708582615b0f565b9450615b7b83615b22565b925060208a01995050600181019050615b57565b50829750879550505050505092915050565b5f61012082019050615bb55f83018c613e2e565b615bc2602083018b613f85565b8181036040830152615bd4818a6154bb565b90508181036060830152615be88189614b77565b90508181036080830152615bfc8188615b2e565b905081810360a0830152615c1081876155b1565b9050615c1f60c0830186613e2e565b615c2c60e0830185613e2e565b818103610100830152615c3f8184613ea8565b90509a9950505050505050505050565b5f60a082019050615c625f8301886144f8565b615c6f6020830187613e2e565b615c7c604083018661590a565b615c896060830185613f85565b615c966080830184613e2e565b9695505050505050565b5f606082019050615cb35f830186613f85565b615cc06020830185613e2e565b615ccd60408301846144f8565b949350505050565b5f81519050615ce381613fad565b92915050565b5f60208284031215615cfe57615cfd613d6a565b5b5f615d0b84828501615cd5565b91505092915050565b7f526f6c65206e6f742061737369676e65640000000000000000000000000000005f82015250565b5f615d48601183613e60565b9150615d5382615d14565b602082019050919050565b5f6020820190508181035f830152615d7581615d3c565b9050919050565b7f4e6f7420726f6c6520726563697069656e7400000000000000000000000000005f82015250565b5f615db0601283613e60565b9150615dbb82615d7c565b602082019050919050565b5f6020820190508181035f830152615ddd81615da4565b9050919050565b5f67ffffffffffffffff82169050919050565b615e0081615de4565b8114615e0a575f80fd5b50565b5f81519050615e1b81615df7565b92915050565b5f60208284031215615e3657615e35613d6a565b5b5f615e4384828501615e0d565b91505092915050565b7f526f6c65206578706972656400000000000000000000000000000000000000005f82015250565b5f615e80600c83613e60565b9150615e8b82615e4c565b602082019050919050565b5f6020820190508181035f830152615ead81615e74565b9050919050565b5f819050919050565b5f615ed7615ed2615ecd84615eb4565b61522a565b613e25565b9050919050565b615ee781615ebd565b82525050565b5f602082019050615f005f830184615ede565b92915050565b5f615f20615f1b615f1684615098565b61522a565b613e25565b9050919050565b615f3081615f06565b82525050565b5f604082019050615f495f830185615f27565b615f566020830184615f27565b9392505050565b5f604082019050615f705f830185613e2e565b615f7d6020830184613e2e565b9392505050565b5f615f8e82613e25565b9150615f9983613e25565b9250828202615fa781613e25565b91508282048414831517615fbe57615fbd6152de565b5b5092915050565b5f819050919050565b5f615fe8615fe3615fde84615fc5565b61522a565b61461f565b9050919050565b615ff881615fce565b82525050565b5f6040820190506160115f830185615fef565b61601e6020830184613e2e565b9392505050565b5f819050919050565b5f61604861604361603e84616025565b61522a565b61461f565b9050919050565b6160588161602e565b82525050565b5f6040820190506160715f83018561604f565b61607e6020830184613e2e565b9392505050565b5f6040820190506160985f8301856144f8565b81810360208301526160aa81846159e0565b90509392505050565b5f815190506160c181614416565b92915050565b5f602082840312156160dc576160db613d6a565b5b5f6160e9848285016160b3565b91505092915050565b5f60a0820190506161055f8301886144f8565b61611260208301876144f8565b61611f60408301866144f8565b61612c6060830185613e2e565b6161396080830184613f85565b9695505050505050565b5f6080820190506161565f8301876144f8565b616163602083018661590a565b61617060408301856144f8565b61617d60608301846144f8565b9594505050505056fea2646970667358221220f3c3097b34f784e1189e00435cb577ba19e292798d1f33918bf1ad397a4f2c9764736f6c63430008180033",
  "linkReferences": {},
  "deployedLinkReferences": {}
}