{
  "_format": "hh-sol-artifact-1",
  "contractName": "StudentManagement",
  "sourceName": "contracts/StudentManagement.sol",
  "abi": [
    {
      "inputs": [
        {
          "internalType": "address",
          "name": "_owner",
          "type": "address"
        }
      ],
      "stateMutability": "nonpayable",
      "type": "constructor"
    },
    {
      "inputs": [
        {
          "internalType": "uint8",
          "name": "_index",
          "type": "uint8"
        },
        {
          "internalType": "enum StudentManagement.Status",
          "name": "_status",
          "type": "uint8"
        }
      ],
      "name": "change_student_status",
      "outputs": [],
      "stateMutability": "nonpayable",
      "type": "function"
    },
    {
      "inputs": [
        {
          "internalType": "uint256",
          "name": "_index",
          "type": "uint256"
        }
      ],
      "name": "delete_student",
      "outputs": [],
      "stateMutability": "nonpayable",
      "type": "function"
    },
    {
      "inputs": [
        {
          "internalType": "uint256",
          "name": "_index",
          "type": "uint256"
        }
      ],
      "name": "get_student",
      "outputs": [
        {
          "components": [
            {
              "internalType": "uint256",
              "name": "id",
              "type": "uint256"
            },
            {
              "internalType": "string",
              "name": "name",
              "type": "string"
            },
            {
              "internalType": "uint8",
              "name": "age",
              "type": "uint8"
            },
            {
              "internalType": "enum StudentManagement.Gender",
              "name": "gender",
              "type": "uint8"
            },
            {
              "internalType": "enum StudentManagement.Status",
              "name": "status",
              "type": "uint8"
            }
          ],
          "internalType": "struct StudentManagement.Student",
          "name": "",
          "type": "tuple"
        }
      ],
      "stateMutability": "view",
      "type": "function"
    },
    {
      "inputs": [],
      "name": "get_students",
      "outputs": [
        {
          "components": [
            {
              "internalType": "uint256",
              "name": "id",
              "type": "uint256"
            },
            {
              "internalType": "string",
              "name": "name",
              "type": "string"
            },
            {
              "internalType": "uint8",
              "name": "age",
              "type": "uint8"
            },
            {
              "internalType": "enum StudentManagement.Gender",
              "name": "gender",
              "type": "uint8"
            },
            {
              "internalType": "enum StudentManagement.Status",
              "name": "status",
              "type": "uint8"
            }
          ],
          "internalType": "struct StudentManagement.Student[]",
          "name": "",
          "type": "tuple[]"
        }
      ],
      "stateMutability": "view",
      "type": "function"
    },
    {
      "inputs": [
        {
          "internalType": "string",
          "name": "_name",
          "type": "string"
        },
        {
          "internalType": "uint8",
          "name": "_age",
          "type": "uint8"
        },
        {
          "internalType": "enum StudentManagement.Gender",
          "name": "_gender",
          "type": "uint8"
        }
      ],
      "name": "register_student",
      "outputs": [],
      "stateMutability": "nonpayable",
      "type": "function"
    },
    {
      "inputs": [
        {
          "internalType": "uint256",
          "name": "_index",
          "type": "uint256"
        },
        {
          "internalType": "string",
          "name": "_name",
          "type": "string"
        },
        {
          "internalType": "uint8",
          "name": "_age",
          "type": "uint8"
        },
        {
          "internalType": "enum StudentManagement.Gender",
          "name": "_gender",
          "type": "uint8"
        },
        {
          "internalType": "enum StudentManagement.Status",
          "name": "_status",
          "type": "uint8"
        }
      ],
      "name": "update_student",
      "outputs": [],
      "stateMutability": "nonpayable",
      "type": "function"
    }
  ],
  "bytecode": "0x608060405260006001553480156200001657600080fd5b50604051620015623803806200156283398181016040528101906200003c9190620000ed565b806000806101000a81548173ffffffffffffffffffffffffffffffffffffffff021916908373ffffffffffffffffffffffffffffffffffffffff160217905550506200011f565b600080fd5b600073ffffffffffffffffffffffffffffffffffffffff82169050919050565b6000620000b58262000088565b9050919050565b620000c781620000a8565b8114620000d357600080fd5b50565b600081519050620000e781620000bc565b92915050565b60006020828403121562000106576200010562000083565b5b60006200011684828501620000d6565b91505092915050565b611433806200012f6000396000f3fe608060405234801561001057600080fd5b50600436106100625760003560e01c806337357b3a146100675780633f09a53814610097578063a9189b0c146100b3578063ccd693e0146100d1578063f4245620146100ed578063fdb14e9814610109575b600080fd5b610081600480360381019061007c919061093e565b610125565b60405161008e9190610b5b565b60405180910390f35b6100b160048036038101906100ac919061093e565b6102e4565b005b6100bb6103b4565b6040516100c89190610cb5565b60405180910390f35b6100eb60048036038101906100e69190610e82565b610542565b005b61010760048036038101906101029190610f19565b610654565b005b610123600480360381019061011e9190610f59565b6106ff565b005b61012d610841565b600160028054905061013f9190610ff7565b821115610181576040517f08c379a000000000000000000000000000000000000000000000000000000000815260040161017890611088565b60405180910390fd5b60028281548110610195576101946110a8565b5b90600052602060002090600302016040518060a0016040529081600082015481526020016001820180546101c890611106565b80601f01602080910402602001604051908101604052809291908181526020018280546101f490611106565b80156102415780601f1061021657610100808354040283529160200191610241565b820191906000526020600020905b81548152906001019060200180831161022457829003601f168201915b505050505081526020016002820160009054906101000a900460ff1660ff1660ff1681526020016002820160019054906101000a900460ff16600181111561028c5761028b610a26565b5b600181111561029e5761029d610a26565b5b81526020016002820160029054906101000a900460ff1660028111156102c7576102c6610a26565b5b60028111156102d9576102d8610a26565b5b815250509050919050565b60016002805490506102f69190610ff7565b811115610338576040517f08c379a000000000000000000000000000000000000000000000000000000000815260040161032f90611088565b60405180910390fd5b6002818154811061034c5761034b6110a8565b5b90600052602060002090600302016000808201600090556001820160006103739190610897565b6002820160006101000a81549060ff02191690556002820160016101000a81549060ff02191690556002820160026101000a81549060ff0219169055505050565b60606002805480602002602001604051908101604052809291908181526020016000905b8282101561053957838290600052602060002090600302016040518060a00160405290816000820154815260200160018201805461041590611106565b80601f016020809104026020016040519081016040528092919081815260200182805461044190611106565b801561048e5780601f106104635761010080835404028352916020019161048e565b820191906000526020600020905b81548152906001019060200180831161047157829003601f168201915b505050505081526020016002820160009054906101000a900460ff1660ff1660ff1681526020016002820160019054906101000a900460ff1660018111156104d9576104d8610a26565b5b60018111156104eb576104ea610a26565b5b81526020016002820160029054906101000a900460ff16600281111561051457610513610a26565b5b600281111561052657610525610a26565b5b81525050815260200190600101906103d8565b50505050905090565b8360028681548110610557576105566110a8565b5b9060005260206000209060030201600101908161057491906112e3565b50826002868154811061058a576105896110a8565b5b906000526020600020906003020160020160006101000a81548160ff021916908360ff16021790555081600286815481106105c8576105c76110a8565b5b906000526020600020906003020160020160016101000a81548160ff021916908360018111156105fb576105fa610a26565b5b02179055508060028681548110610615576106146110a8565b5b906000526020600020906003020160020160026101000a81548160ff0219169083600281111561064857610647610a26565b5b02179055505050505050565b60016002805490506106669190610ff7565b8260ff1611156106ab576040517f08c379a00000000000000000000000000000000000000000000000000000000081526004016106a290611088565b60405180910390fd5b8060028360ff16815481106106c3576106c26110a8565b5b906000526020600020906003020160020160026101000a81548160ff021916908360028111156106f6576106f5610a26565b5b02179055505050565b60006040518060a0016040528060015481526020018581526020018460ff16815260200183600181111561073657610735610a26565b5b81526020016000600281111561074f5761074e610a26565b5b8152509050600281908060018154018082558091505060019003906000526020600020906003020160009091909190915060008201518160000155602082015181600101908161079f91906112e3565b5060408201518160020160006101000a81548160ff021916908360ff16021790555060608201518160020160016101000a81548160ff021916908360018111156107ec576107eb610a26565b5b021790555060808201518160020160026101000a81548160ff0219169083600281111561081c5761081b610a26565b5b0217905550505060016000815480929190610836906113b5565b919050555050505050565b6040518060a001604052806000815260200160608152602001600060ff1681526020016000600181111561087857610877610a26565b5b81526020016000600281111561089157610890610a26565b5b81525090565b5080546108a390611106565b6000825580601f106108b557506108d4565b601f0160209004906000526020600020908101906108d391906108d7565b5b50565b5b808211156108f05760008160009055506001016108d8565b5090565b6000604051905090565b600080fd5b600080fd5b6000819050919050565b61091b81610908565b811461092657600080fd5b50565b60008135905061093881610912565b92915050565b600060208284031215610954576109536108fe565b5b600061096284828501610929565b91505092915050565b61097481610908565b82525050565b600081519050919050565b600082825260208201905092915050565b60005b838110156109b4578082015181840152602081019050610999565b60008484015250505050565b6000601f19601f8301169050919050565b60006109dc8261097a565b6109e68185610985565b93506109f6818560208601610996565b6109ff816109c0565b840191505092915050565b600060ff82169050919050565b610a2081610a0a565b82525050565b7f4e487b7100000000000000000000000000000000000000000000000000000000600052602160045260246000fd5b60028110610a6657610a65610a26565b5b50565b6000819050610a7782610a55565b919050565b6000610a8782610a69565b9050919050565b610a9781610a7c565b82525050565b60038110610aae57610aad610a26565b5b50565b6000819050610abf82610a9d565b919050565b6000610acf82610ab1565b9050919050565b610adf81610ac4565b82525050565b600060a083016000830151610afd600086018261096b565b5060208301518482036020860152610b1582826109d1565b9150506040830151610b2a6040860182610a17565b506060830151610b3d6060860182610a8e565b506080830151610b506080860182610ad6565b508091505092915050565b60006020820190508181036000830152610b758184610ae5565b905092915050565b600081519050919050565b600082825260208201905092915050565b6000819050602082019050919050565b600060a083016000830151610bc1600086018261096b565b5060208301518482036020860152610bd982826109d1565b9150506040830151610bee6040860182610a17565b506060830151610c016060860182610a8e565b506080830151610c146080860182610ad6565b508091505092915050565b6000610c2b8383610ba9565b905092915050565b6000602082019050919050565b6000610c4b82610b7d565b610c558185610b88565b935083602082028501610c6785610b99565b8060005b85811015610ca35784840389528151610c848582610c1f565b9450610c8f83610c33565b925060208a01995050600181019050610c6b565b50829750879550505050505092915050565b60006020820190508181036000830152610ccf8184610c40565b905092915050565b600080fd5b600080fd5b7f4e487b7100000000000000000000000000000000000000000000000000000000600052604160045260246000fd5b610d19826109c0565b810181811067ffffffffffffffff82111715610d3857610d37610ce1565b5b80604052505050565b6000610d4b6108f4565b9050610d578282610d10565b919050565b600067ffffffffffffffff821115610d7757610d76610ce1565b5b610d80826109c0565b9050602081019050919050565b82818337600083830152505050565b6000610daf610daa84610d5c565b610d41565b905082815260208101848484011115610dcb57610dca610cdc565b5b610dd6848285610d8d565b509392505050565b600082601f830112610df357610df2610cd7565b5b8135610e03848260208601610d9c565b91505092915050565b610e1581610a0a565b8114610e2057600080fd5b50565b600081359050610e3281610e0c565b92915050565b60028110610e4557600080fd5b50565b600081359050610e5781610e38565b92915050565b60038110610e6a57600080fd5b50565b600081359050610e7c81610e5d565b92915050565b600080600080600060a08688031215610e9e57610e9d6108fe565b5b6000610eac88828901610929565b955050602086013567ffffffffffffffff811115610ecd57610ecc610903565b5b610ed988828901610dde565b9450506040610eea88828901610e23565b9350506060610efb88828901610e48565b9250506080610f0c88828901610e6d565b9150509295509295909350565b60008060408385031215610f3057610f2f6108fe565b5b6000610f3e85828601610e23565b9250506020610f4f85828601610e6d565b9150509250929050565b600080600060608486031215610f7257610f716108fe565b5b600084013567ffffffffffffffff811115610f9057610f8f610903565b5b610f9c86828701610dde565b9350506020610fad86828701610e23565b9250506040610fbe86828701610e48565b9150509250925092565b7f4e487b7100000000000000000000000000000000000000000000000000000000600052601160045260246000fd5b600061100282610908565b915061100d83610908565b925082820390508181111561102557611024610fc8565b5b92915050565b600082825260208201905092915050565b7f53747564656e7420646f6573206e6f7420657869747300000000000000000000600082015250565b600061107260168361102b565b915061107d8261103c565b602082019050919050565b600060208201905081810360008301526110a181611065565b9050919050565b7f4e487b7100000000000000000000000000000000000000000000000000000000600052603260045260246000fd5b7f4e487b7100000000000000000000000000000000000000000000000000000000600052602260045260246000fd5b6000600282049050600182168061111e57607f821691505b602082108103611131576111306110d7565b5b50919050565b60008190508160005260206000209050919050565b60006020601f8301049050919050565b600082821b905092915050565b6000600883026111997fffffffffffffffffffffffffffffffffffffffffffffffffffffffffffffffff8261115c565b6111a3868361115c565b95508019841693508086168417925050509392505050565b6000819050919050565b60006111e06111db6111d684610908565b6111bb565b610908565b9050919050565b6000819050919050565b6111fa836111c5565b61120e611206826111e7565b848454611169565b825550505050565b600090565b611223611216565b61122e8184846111f1565b505050565b5b818110156112525761124760008261121b565b600181019050611234565b5050565b601f8211156112975761126881611137565b6112718461114c565b81016020851015611280578190505b61129461128c8561114c565b830182611233565b50505b505050565b600082821c905092915050565b60006112ba6000198460080261129c565b1980831691505092915050565b60006112d383836112a9565b9150826002028217905092915050565b6112ec8261097a565b67ffffffffffffffff81111561130557611304610ce1565b5b61130f8254611106565b61131a828285611256565b600060209050601f83116001811461134d576000841561133b578287015190505b61134585826112c7565b8655506113ad565b601f19841661135b86611137565b60005b828110156113835784890151825560018201915060208501945060208101905061135e565b868310156113a0578489015161139c601f8916826112a9565b8355505b6001600288020188555050505b505050505050565b60006113c082610908565b91507fffffffffffffffffffffffffffffffffffffffffffffffffffffffffffffffff82036113f2576113f1610fc8565b5b60018201905091905056fea26469706673582212203663eff6c901fff5c3bc38657f9a7ba6866d742401ed749ef55d03f5c7491f5364736f6c63430008140033",
  "linkReferences": {},
  "deployedLinkReferences": {}
}