{
  "contracts/AccessControl.sol": {
    "EmployeeAccess": {
      "abi": [
        {
          "anonymous": false,
          "inputs": [
            {
              "indexed": false,
              "internalType": "string",
              "name": "message",
              "type": "string"
            }
          ],
          "name": "GrantAccess",
          "type": "event"
        },
        {
          "anonymous": false,
          "inputs": [
            {
              "indexed": false,
              "internalType": "string",
              "name": "message",
              "type": "string"
            }
          ],
          "name": "RevokeAccess",
          "type": "event"
        },
        {
          "inputs": [
            {
              "internalType": "address",
              "name": "_account",
              "type": "address"
            },
            {
              "internalType": "string",
              "name": "_name",
              "type": "string"
            },
            {
              "internalType": "enum EmployeeAccess.Roles",
              "name": "_role",
              "type": "uint8"
            },
            {
              "internalType": "bool",
              "name": "_isEmployeed",
              "type": "bool"
            }
          ],
          "name": "addEmployee",
          "outputs": [],
          "stateMutability": "nonpayable",
          "type": "function"
        },
        {
          "inputs": [
            {
              "internalType": "address",
              "name": "_account",
              "type": "address"
            }
          ],
          "name": "canAccessGarage",
          "outputs": [
            {
              "internalType": "string",
              "name": "",
              "type": "string"
            }
          ],
          "stateMutability": "nonpayable",
          "type": "function"
        },
        {
          "inputs": [],
          "name": "getAllEmployees",
          "outputs": [
            {
              "components": [
                {
                  "internalType": "string",
                  "name": "name",
                  "type": "string"
                },
                {
                  "internalType": "enum EmployeeAccess.Roles",
                  "name": "role",
                  "type": "uint8"
                },
                {
                  "internalType": "bool",
                  "name": "isEmployed",
                  "type": "bool"
                }
              ],
              "internalType": "struct EmployeeAccess.Employee[]",
              "name": "",
              "type": "tuple[]"
            }
          ],
          "stateMutability": "view",
          "type": "function"
        },
        {
          "inputs": [
            {
              "internalType": "address",
              "name": "_account",
              "type": "address"
            }
          ],
          "name": "getEmployee",
          "outputs": [
            {
              "components": [
                {
                  "internalType": "string",
                  "name": "name",
                  "type": "string"
                },
                {
                  "internalType": "enum EmployeeAccess.Roles",
                  "name": "role",
                  "type": "uint8"
                },
                {
                  "internalType": "bool",
                  "name": "isEmployed",
                  "type": "bool"
                }
              ],
              "internalType": "struct EmployeeAccess.Employee[]",
              "name": "",
              "type": "tuple[]"
            }
          ],
          "stateMutability": "view",
          "type": "function"
        },
        {
          "inputs": [
            {
              "internalType": "address",
              "name": "_account",
              "type": "address"
            },
            {
              "internalType": "uint256",
              "name": "_index",
              "type": "uint256"
            }
          ],
          "name": "terminateEmployee",
          "outputs": [],
          "stateMutability": "nonpayable",
          "type": "function"
        },
        {
          "inputs": [
            {
              "internalType": "uint256",
              "name": "_index",
              "type": "uint256"
            },
            {
              "internalType": "address",
              "name": "_account",
              "type": "address"
            },
            {
              "internalType": "string",
              "name": "_name",
              "type": "string"
            },
            {
              "internalType": "enum EmployeeAccess.Roles",
              "name": "_role",
              "type": "uint8"
            },
            {
              "internalType": "bool",
              "name": "_isEmployed",
              "type": "bool"
            }
          ],
          "name": "updateEmployee",
          "outputs": [],
          "stateMutability": "nonpayable",
          "type": "function"
        }
      ],
      "evm": {
        "bytecode": {
          "linkReferences": {},
          "object": "6080604052348015600f57600080fd5b506117038061001f6000396000f3fe608060405234801561001057600080fd5b50600436106100625760003560e01c806332648e09146100675780639a3416ed14610097578063a36dbf81146100b3578063ad7ae6cc146100cf578063b24e34c8146100eb578063e3366fed1461011b575b600080fd5b610081600480360381019061007c9190610be5565b610139565b60405161008e9190610e46565b60405180910390f35b6100b160048036038101906100ac9190610fee565b6102bf565b005b6100cd60048036038101906100c891906110a7565b61045e565b005b6100e960048036038101906100e4919061113e565b610563565b005b61010560048036038101906101009190610be5565b61069b565b60405161011291906111c8565b60405180910390f35b610123610a2c565b6040516101309190610e46565b60405180910390f35b6060600160008373ffffffffffffffffffffffffffffffffffffffff1673ffffffffffffffffffffffffffffffffffffffff168152602001908152602001600020805480602002602001604051908101604052809291908181526020016000905b828210156102b457838290600052602060002090600202016040518060600160405290816000820180546101cd90611219565b80601f01602080910402602001604051908101604052809291908181526020018280546101f990611219565b80156102465780601f1061021b57610100808354040283529160200191610246565b820191906000526020600020905b81548152906001019060200180831161022957829003601f168201915b505050505081526020016001820160009054906101000a900460ff16600581111561027457610273610cce565b5b600581111561028657610285610cce565b5b81526020016001820160019054906101000a900460ff1615151515815250508152602001906001019061019a565b505050509050919050565b600060405180606001604052808581526020018460058111156102e5576102e4610cce565b5b815260200183151581525090506000819080600181540180825580915050600190039060005260206000209060020201600090919091909150600082015181600001908161033391906113f6565b5060208201518160010160006101000a81548160ff0219169083600581111561035f5761035e610cce565b5b021790555060408201518160010160016101000a81548160ff0219169083151502179055505050600160008673ffffffffffffffffffffffffffffffffffffffff1673ffffffffffffffffffffffffffffffffffffffff168152602001908152602001600020819080600181540180825580915050600190039060005260206000209060020201600090919091909150600082015181600001908161040491906113f6565b5060208201518160010160006101000a81548160ff021916908360058111156104305761042f610cce565b5b021790555060408201518160010160016101000a81548160ff02191690831515021790555050505050505050565b6000600160008673ffffffffffffffffffffffffffffffffffffffff1673ffffffffffffffffffffffffffffffffffffffff1681526020019081526020016000209050838187815481106104b5576104b46114c8565b5b906000526020600020906002020160000190816104d291906113f6565b50828187815481106104e7576104e66114c8565b5b906000526020600020906002020160010160006101000a81548160ff0219169083600581111561051a57610519610cce565b5b021790555081818781548110610533576105326114c8565b5b906000526020600020906002020160010160016101000a81548160ff021916908315150217905550505050505050565b600160008373ffffffffffffffffffffffffffffffffffffffff1673ffffffffffffffffffffffffffffffffffffffff1681526020019081526020016000208054905081106105e7576040517f08c379a00000000000000000000000000000000000000000000000000000000081526004016105de90611543565b60405180910390fd5b6000600160008473ffffffffffffffffffffffffffffffffffffffff1673ffffffffffffffffffffffffffffffffffffffff168152602001908152602001600020828154811061063a576106396114c8565b5b906000526020600020906002020160010160016101000a81548160ff0219169083151502179055507fd162e955f6510b342ac0e6b85a12917ecc67ab1b2a0d31fdb734bd439ed8ddf160405161068f906115d5565b60405180910390a15050565b60606000600160008473ffffffffffffffffffffffffffffffffffffffff1673ffffffffffffffffffffffffffffffffffffffff168152602001908152602001600020805480602002602001604051908101604052809291908181526020016000905b82821015610818578382906000526020600020906002020160405180606001604052908160008201805461073190611219565b80601f016020809104026020016040519081016040528092919081815260200182805461075d90611219565b80156107aa5780601f1061077f576101008083540402835291602001916107aa565b820191906000526020600020905b81548152906001019060200180831161078d57829003601f168201915b505050505081526020016001820160009054906101000a900460ff1660058111156107d8576107d7610cce565b5b60058111156107ea576107e9610cce565b5b81526020016001820160019054906101000a900460ff161515151581525050815260200190600101906106fe565b50505050905060005b81518110156109b75781818151811061083d5761083c6114c8565b5b602002602001015160400151801561093157506001600581111561086457610863610cce565b5b828281518110610877576108766114c8565b5b602002602001015160200151600581111561089557610894610cce565b5b14806108e35750600060058111156108b0576108af610cce565b5b8282815181106108c3576108c26114c8565b5b60200260200101516020015160058111156108e1576108e0610cce565b5b145b806109305750600260058111156108fd576108fc610cce565b5b8282815181106109105761090f6114c8565b5b602002602001015160200151600581111561092e5761092d610cce565b5b145b5b156109aa577f4ee76e929d9a8be3377c0f456548e21ca3329fb1b9258c85560c7419f834ccb560405161096390611641565b60405180910390a16040518060400160405280600f81526020017f416363657373206163636570746564000000000000000000000000000000000081525092505050610a27565b8080600101915050610821565b507fd162e955f6510b342ac0e6b85a12917ecc67ab1b2a0d31fdb734bd439ed8ddf16040516109e5906116ad565b60405180910390a16040518060400160405280600d81526020017f4163636573732064656e696564000000000000000000000000000000000000008152509150505b919050565b60606000805480602002602001604051908101604052809291908181526020016000905b82821015610b6a5783829060005260206000209060020201604051806060016040529081600082018054610a8390611219565b80601f0160208091040260200160405190810160405280929190818152602001828054610aaf90611219565b8015610afc5780601f10610ad157610100808354040283529160200191610afc565b820191906000526020600020905b815481529060010190602001808311610adf57829003601f168201915b505050505081526020016001820160009054906101000a900460ff166005811115610b2a57610b29610cce565b5b6005811115610b3c57610b3b610cce565b5b81526020016001820160019054906101000a900460ff16151515158152505081526020019060010190610a50565b50505050905090565b6000604051905090565b600080fd5b600080fd5b600073ffffffffffffffffffffffffffffffffffffffff82169050919050565b6000610bb282610b87565b9050919050565b610bc281610ba7565b8114610bcd57600080fd5b50565b600081359050610bdf81610bb9565b92915050565b600060208284031215610bfb57610bfa610b7d565b5b6000610c0984828501610bd0565b91505092915050565b600081519050919050565b600082825260208201905092915050565b6000819050602082019050919050565b600081519050919050565b600082825260208201905092915050565b60005b83811015610c78578082015181840152602081019050610c5d565b60008484015250505050565b6000601f19601f8301169050919050565b6000610ca082610c3e565b610caa8185610c49565b9350610cba818560208601610c5a565b610cc381610c84565b840191505092915050565b7f4e487b7100000000000000000000000000000000000000000000000000000000600052602160045260246000fd5b60068110610d0e57610d0d610cce565b5b50565b6000819050610d1f82610cfd565b919050565b6000610d2f82610d11565b9050919050565b610d3f81610d24565b82525050565b60008115159050919050565b610d5a81610d45565b82525050565b60006060830160008301518482036000860152610d7d8282610c95565b9150506020830151610d926020860182610d36565b506040830151610da56040860182610d51565b508091505092915050565b6000610dbc8383610d60565b905092915050565b6000602082019050919050565b6000610ddc82610c12565b610de68185610c1d565b935083602082028501610df885610c2e565b8060005b85811015610e345784840389528151610e158582610db0565b9450610e2083610dc4565b925060208a01995050600181019050610dfc565b50829750879550505050505092915050565b60006020820190508181036000830152610e608184610dd1565b905092915050565b600080fd5b600080fd5b7f4e487b7100000000000000000000000000000000000000000000000000000000600052604160045260246000fd5b610eaa82610c84565b810181811067ffffffffffffffff82111715610ec957610ec8610e72565b5b80604052505050565b6000610edc610b73565b9050610ee88282610ea1565b919050565b600067ffffffffffffffff821115610f0857610f07610e72565b5b610f1182610c84565b9050602081019050919050565b82818337600083830152505050565b6000610f40610f3b84610eed565b610ed2565b905082815260208101848484011115610f5c57610f5b610e6d565b5b610f67848285610f1e565b509392505050565b600082601f830112610f8457610f83610e68565b5b8135610f94848260208601610f2d565b91505092915050565b60068110610faa57600080fd5b50565b600081359050610fbc81610f9d565b92915050565b610fcb81610d45565b8114610fd657600080fd5b50565b600081359050610fe881610fc2565b92915050565b6000806000806080858703121561100857611007610b7d565b5b600061101687828801610bd0565b945050602085013567ffffffffffffffff81111561103757611036610b82565b5b61104387828801610f6f565b935050604061105487828801610fad565b925050606061106587828801610fd9565b91505092959194509250565b6000819050919050565b61108481611071565b811461108f57600080fd5b50565b6000813590506110a18161107b565b92915050565b600080600080600060a086880312156110c3576110c2610b7d565b5b60006110d188828901611092565b95505060206110e288828901610bd0565b945050604086013567ffffffffffffffff81111561110357611102610b82565b5b61110f88828901610f6f565b935050606061112088828901610fad565b925050608061113188828901610fd9565b9150509295509295909350565b6000806040838503121561115557611154610b7d565b5b600061116385828601610bd0565b925050602061117485828601611092565b9150509250929050565b600082825260208201905092915050565b600061119a82610c3e565b6111a4818561117e565b93506111b4818560208601610c5a565b6111bd81610c84565b840191505092915050565b600060208201905081810360008301526111e2818461118f565b905092915050565b7f4e487b7100000000000000000000000000000000000000000000000000000000600052602260045260246000fd5b6000600282049050600182168061123157607f821691505b602082108103611244576112436111ea565b5b50919050565b60008190508160005260206000209050919050565b60006020601f8301049050919050565b600082821b905092915050565b6000600883026112ac7fffffffffffffffffffffffffffffffffffffffffffffffffffffffffffffffff8261126f565b6112b6868361126f565b95508019841693508086168417925050509392505050565b6000819050919050565b60006112f36112ee6112e984611071565b6112ce565b611071565b9050919050565b6000819050919050565b61130d836112d8565b611321611319826112fa565b84845461127c565b825550505050565b600090565b611336611329565b611341818484611304565b505050565b5b818110156113655761135a60008261132e565b600181019050611347565b5050565b601f8211156113aa5761137b8161124a565b6113848461125f565b81016020851015611393578190505b6113a761139f8561125f565b830182611346565b50505b505050565b600082821c905092915050565b60006113cd600019846008026113af565b1980831691505092915050565b60006113e683836113bc565b9150826002028217905092915050565b6113ff82610c3e565b67ffffffffffffffff81111561141857611417610e72565b5b6114228254611219565b61142d828285611369565b600060209050601f831160018114611460576000841561144e578287015190505b61145885826113da565b8655506114c0565b601f19841661146e8661124a565b60005b8281101561149657848901518255600182019150602085019450602081019050611471565b868310156114b357848901516114af601f8916826113bc565b8355505b6001600288020188555050505b505050505050565b7f4e487b7100000000000000000000000000000000000000000000000000000000600052603260045260246000fd5b7f496e76616c696420696e64657800000000000000000000000000000000000000600082015250565b600061152d600d8361117e565b9150611538826114f7565b602082019050919050565b6000602082019050818103600083015261155c81611520565b9050919050565b7f456d706c6f796565207465726d696e6174656420616e6420616363657373207260008201527f65766f6b65642e00000000000000000000000000000000000000000000000000602082015250565b60006115bf60278361117e565b91506115ca82611563565b604082019050919050565b600060208201905081810360008301526115ee816115b2565b9050919050565b7f4163636573732061636365707465642e00000000000000000000000000000000600082015250565b600061162b60108361117e565b9150611636826115f5565b602082019050919050565b6000602082019050818103600083015261165a8161161e565b9050919050565b7f4163636573732064656e6965642e000000000000000000000000000000000000600082015250565b6000611697600e8361117e565b91506116a282611661565b602082019050919050565b600060208201905081810360008301526116c68161168a565b905091905056fea2646970667358221220f56e06c21632ec3b4642867c2a01fb4125621fc46109529ed9924f4854926e9164736f6c634300081e0033",
          "opcodes": "PUSH1 0x80 PUSH1 0x40 MSTORE CALLVALUE DUP1 ISZERO PUSH1 0xF JUMPI PUSH1 0x0 DUP1 REVERT JUMPDEST POP PUSH2 0x1703 DUP1 PUSH2 0x1F PUSH1 0x0 CODECOPY PUSH1 0x0 RETURN INVALID PUSH1 0x80 PUSH1 0x40 MSTORE CALLVALUE DUP1 ISZERO PUSH2 0x10 JUMPI PUSH1 0x0 DUP1 REVERT JUMPDEST POP PUSH1 0x4 CALLDATASIZE LT PUSH2 0x62 JUMPI PUSH1 0x0 CALLDATALOAD PUSH1 0xE0 SHR DUP1 PUSH4 0x32648E09 EQ PUSH2 0x67 JUMPI DUP1 PUSH4 0x9A3416ED EQ PUSH2 0x97 JUMPI DUP1 PUSH4 0xA36DBF81 EQ PUSH2 0xB3 JUMPI DUP1 PUSH4 0xAD7AE6CC EQ PUSH2 0xCF JUMPI DUP1 PUSH4 0xB24E34C8 EQ PUSH2 0xEB JUMPI DUP1 PUSH4 0xE3366FED EQ PUSH2 0x11B JUMPI JUMPDEST PUSH1 0x0 DUP1 REVERT JUMPDEST PUSH2 0x81 PUSH1 0x4 DUP1 CALLDATASIZE SUB DUP2 ADD SWAP1 PUSH2 0x7C SWAP2 SWAP1 PUSH2 0xBE5 JUMP JUMPDEST PUSH2 0x139 JUMP JUMPDEST PUSH1 0x40 MLOAD PUSH2 0x8E SWAP2 SWAP1 PUSH2 0xE46 JUMP JUMPDEST PUSH1 0x40 MLOAD DUP1 SWAP2 SUB SWAP1 RETURN JUMPDEST PUSH2 0xB1 PUSH1 0x4 DUP1 CALLDATASIZE SUB DUP2 ADD SWAP1 PUSH2 0xAC SWAP2 SWAP1 PUSH2 0xFEE JUMP JUMPDEST PUSH2 0x2BF JUMP JUMPDEST STOP JUMPDEST PUSH2 0xCD PUSH1 0x4 DUP1 CALLDATASIZE SUB DUP2 ADD SWAP1 PUSH2 0xC8 SWAP2 SWAP1 PUSH2 0x10A7 JUMP JUMPDEST PUSH2 0x45E JUMP JUMPDEST STOP JUMPDEST PUSH2 0xE9 PUSH1 0x4 DUP1 CALLDATASIZE SUB DUP2 ADD SWAP1 PUSH2 0xE4 SWAP2 SWAP1 PUSH2 0x113E JUMP JUMPDEST PUSH2 0x563 JUMP JUMPDEST STOP JUMPDEST PUSH2 0x105 PUSH1 0x4 DUP1 CALLDATASIZE SUB DUP2 ADD SWAP1 PUSH2 0x100 SWAP2 SWAP1 PUSH2 0xBE5 JUMP JUMPDEST PUSH2 0x69B JUMP JUMPDEST PUSH1 0x40 MLOAD PUSH2 0x112 SWAP2 SWAP1 PUSH2 0x11C8 JUMP JUMPDEST PUSH1 0x40 MLOAD DUP1 SWAP2 SUB SWAP1 RETURN JUMPDEST PUSH2 0x123 PUSH2 0xA2C JUMP JUMPDEST PUSH1 0x40 MLOAD PUSH2 0x130 SWAP2 SWAP1 PUSH2 0xE46 JUMP JUMPDEST PUSH1 0x40 MLOAD DUP1 SWAP2 SUB SWAP1 RETURN JUMPDEST PUSH1 0x60 PUSH1 0x1 PUSH1 0x0 DUP4 PUSH20 0xFFFFFFFFFFFFFFFFFFFFFFFFFFFFFFFFFFFFFFFF AND PUSH20 0xFFFFFFFFFFFFFFFFFFFFFFFFFFFFFFFFFFFFFFFF AND DUP2 MSTORE PUSH1 0x20 ADD SWAP1 DUP2 MSTORE PUSH1 0x20 ADD PUSH1 0x0 KECCAK256 DUP1 SLOAD DUP1 PUSH1 0x20 MUL PUSH1 0x20 ADD PUSH1 0x40 MLOAD SWAP1 DUP2 ADD PUSH1 0x40 MSTORE DUP1 SWAP3 SWAP2 SWAP1 DUP2 DUP2 MSTORE PUSH1 0x20 ADD PUSH1 0x0 SWAP1 JUMPDEST DUP3 DUP3 LT ISZERO PUSH2 0x2B4 JUMPI DUP4 DUP3 SWAP1 PUSH1 0x0 MSTORE PUSH1 0x20 PUSH1 0x0 KECCAK256 SWAP1 PUSH1 0x2 MUL ADD PUSH1 0x40 MLOAD DUP1 PUSH1 0x60 ADD PUSH1 0x40 MSTORE SWAP1 DUP2 PUSH1 0x0 DUP3 ADD DUP1 SLOAD PUSH2 0x1CD SWAP1 PUSH2 0x1219 JUMP JUMPDEST DUP1 PUSH1 0x1F ADD PUSH1 0x20 DUP1 SWAP2 DIV MUL PUSH1 0x20 ADD PUSH1 0x40 MLOAD SWAP1 DUP2 ADD PUSH1 0x40 MSTORE DUP1 SWAP3 SWAP2 SWAP1 DUP2 DUP2 MSTORE PUSH1 0x20 ADD DUP3 DUP1 SLOAD PUSH2 0x1F9 SWAP1 PUSH2 0x1219 JUMP JUMPDEST DUP1 ISZERO PUSH2 0x246 JUMPI DUP1 PUSH1 0x1F LT PUSH2 0x21B JUMPI PUSH2 0x100 DUP1 DUP4 SLOAD DIV MUL DUP4 MSTORE SWAP2 PUSH1 0x20 ADD SWAP2 PUSH2 0x246 JUMP JUMPDEST DUP3 ADD SWAP2 SWAP1 PUSH1 0x0 MSTORE PUSH1 0x20 PUSH1 0x0 KECCAK256 SWAP1 JUMPDEST DUP2 SLOAD DUP2 MSTORE SWAP1 PUSH1 0x1 ADD SWAP1 PUSH1 0x20 ADD DUP1 DUP4 GT PUSH2 0x229 JUMPI DUP3 SWAP1 SUB PUSH1 0x1F AND DUP3 ADD SWAP2 JUMPDEST POP POP POP POP POP DUP2 MSTORE PUSH1 0x20 ADD PUSH1 0x1 DUP3 ADD PUSH1 0x0 SWAP1 SLOAD SWAP1 PUSH2 0x100 EXP SWAP1 DIV PUSH1 0xFF AND PUSH1 0x5 DUP2 GT ISZERO PUSH2 0x274 JUMPI PUSH2 0x273 PUSH2 0xCCE JUMP JUMPDEST JUMPDEST PUSH1 0x5 DUP2 GT ISZERO PUSH2 0x286 JUMPI PUSH2 0x285 PUSH2 0xCCE JUMP JUMPDEST JUMPDEST DUP2 MSTORE PUSH1 0x20 ADD PUSH1 0x1 DUP3 ADD PUSH1 0x1 SWAP1 SLOAD SWAP1 PUSH2 0x100 EXP SWAP1 DIV PUSH1 0xFF AND ISZERO ISZERO ISZERO ISZERO DUP2 MSTORE POP POP DUP2 MSTORE PUSH1 0x20 ADD SWAP1 PUSH1 0x1 ADD SWAP1 PUSH2 0x19A JUMP JUMPDEST POP POP POP POP SWAP1 POP SWAP2 SWAP1 POP JUMP JUMPDEST PUSH1 0x0 PUSH1 0x40 MLOAD DUP1 PUSH1 0x60 ADD PUSH1 0x40 MSTORE DUP1 DUP6 DUP2 MSTORE PUSH1 0x20 ADD DUP5 PUSH1 0x5 DUP2 GT ISZERO PUSH2 0x2E5 JUMPI PUSH2 0x2E4 PUSH2 0xCCE JUMP JUMPDEST JUMPDEST DUP2 MSTORE PUSH1 0x20 ADD DUP4 ISZERO ISZERO DUP2 MSTORE POP SWAP1 POP PUSH1 0x0 DUP2 SWAP1 DUP1 PUSH1 0x1 DUP2 SLOAD ADD DUP1 DUP3 SSTORE DUP1 SWAP2 POP POP PUSH1 0x1 SWAP1 SUB SWAP1 PUSH1 0x0 MSTORE PUSH1 0x20 PUSH1 0x0 KECCAK256 SWAP1 PUSH1 0x2 MUL ADD PUSH1 0x0 SWAP1 SWAP2 SWAP1 SWAP2 SWAP1 SWAP2 POP PUSH1 0x0 DUP3 ADD MLOAD DUP2 PUSH1 0x0 ADD SWAP1 DUP2 PUSH2 0x333 SWAP2 SWAP1 PUSH2 0x13F6 JUMP JUMPDEST POP PUSH1 0x20 DUP3 ADD MLOAD DUP2 PUSH1 0x1 ADD PUSH1 0x0 PUSH2 0x100 EXP DUP2 SLOAD DUP2 PUSH1 0xFF MUL NOT AND SWAP1 DUP4 PUSH1 0x5 DUP2 GT ISZERO PUSH2 0x35F JUMPI PUSH2 0x35E PUSH2 0xCCE JUMP JUMPDEST JUMPDEST MUL OR SWAP1 SSTORE POP PUSH1 0x40 DUP3 ADD MLOAD DUP2 PUSH1 0x1 ADD PUSH1 0x1 PUSH2 0x100 EXP DUP2 SLOAD DUP2 PUSH1 0xFF MUL NOT AND SWAP1 DUP4 ISZERO ISZERO MUL OR SWAP1 SSTORE POP POP POP PUSH1 0x1 PUSH1 0x0 DUP7 PUSH20 0xFFFFFFFFFFFFFFFFFFFFFFFFFFFFFFFFFFFFFFFF AND PUSH20 0xFFFFFFFFFFFFFFFFFFFFFFFFFFFFFFFFFFFFFFFF AND DUP2 MSTORE PUSH1 0x20 ADD SWAP1 DUP2 MSTORE PUSH1 0x20 ADD PUSH1 0x0 KECCAK256 DUP2 SWAP1 DUP1 PUSH1 0x1 DUP2 SLOAD ADD DUP1 DUP3 SSTORE DUP1 SWAP2 POP POP PUSH1 0x1 SWAP1 SUB SWAP1 PUSH1 0x0 MSTORE PUSH1 0x20 PUSH1 0x0 KECCAK256 SWAP1 PUSH1 0x2 MUL ADD PUSH1 0x0 SWAP1 SWAP2 SWAP1 SWAP2 SWAP1 SWAP2 POP PUSH1 0x0 DUP3 ADD MLOAD DUP2 PUSH1 0x0 ADD SWAP1 DUP2 PUSH2 0x404 SWAP2 SWAP1 PUSH2 0x13F6 JUMP JUMPDEST POP PUSH1 0x20 DUP3 ADD MLOAD DUP2 PUSH1 0x1 ADD PUSH1 0x0 PUSH2 0x100 EXP DUP2 SLOAD DUP2 PUSH1 0xFF MUL NOT AND SWAP1 DUP4 PUSH1 0x5 DUP2 GT ISZERO PUSH2 0x430 JUMPI PUSH2 0x42F PUSH2 0xCCE JUMP JUMPDEST JUMPDEST MUL OR SWAP1 SSTORE POP PUSH1 0x40 DUP3 ADD MLOAD DUP2 PUSH1 0x1 ADD PUSH1 0x1 PUSH2 0x100 EXP DUP2 SLOAD DUP2 PUSH1 0xFF MUL NOT AND SWAP1 DUP4 ISZERO ISZERO MUL OR SWAP1 SSTORE POP POP POP POP POP POP POP POP JUMP JUMPDEST PUSH1 0x0 PUSH1 0x1 PUSH1 0x0 DUP7 PUSH20 0xFFFFFFFFFFFFFFFFFFFFFFFFFFFFFFFFFFFFFFFF AND PUSH20 0xFFFFFFFFFFFFFFFFFFFFFFFFFFFFFFFFFFFFFFFF AND DUP2 MSTORE PUSH1 0x20 ADD SWAP1 DUP2 MSTORE PUSH1 0x20 ADD PUSH1 0x0 KECCAK256 SWAP1 POP DUP4 DUP2 DUP8 DUP2 SLOAD DUP2 LT PUSH2 0x4B5 JUMPI PUSH2 0x4B4 PUSH2 0x14C8 JUMP JUMPDEST JUMPDEST SWAP1 PUSH1 0x0 MSTORE PUSH1 0x20 PUSH1 0x0 KECCAK256 SWAP1 PUSH1 0x2 MUL ADD PUSH1 0x0 ADD SWAP1 DUP2 PUSH2 0x4D2 SWAP2 SWAP1 PUSH2 0x13F6 JUMP JUMPDEST POP DUP3 DUP2 DUP8 DUP2 SLOAD DUP2 LT PUSH2 0x4E7 JUMPI PUSH2 0x4E6 PUSH2 0x14C8 JUMP JUMPDEST JUMPDEST SWAP1 PUSH1 0x0 MSTORE PUSH1 0x20 PUSH1 0x0 KECCAK256 SWAP1 PUSH1 0x2 MUL ADD PUSH1 0x1 ADD PUSH1 0x0 PUSH2 0x100 EXP DUP2 SLOAD DUP2 PUSH1 0xFF MUL NOT AND SWAP1 DUP4 PUSH1 0x5 DUP2 GT ISZERO PUSH2 0x51A JUMPI PUSH2 0x519 PUSH2 0xCCE JUMP JUMPDEST JUMPDEST MUL OR SWAP1 SSTORE POP DUP2 DUP2 DUP8 DUP2 SLOAD DUP2 LT PUSH2 0x533 JUMPI PUSH2 0x532 PUSH2 0x14C8 JUMP JUMPDEST JUMPDEST SWAP1 PUSH1 0x0 MSTORE PUSH1 0x20 PUSH1 0x0 KECCAK256 SWAP1 PUSH1 0x2 MUL ADD PUSH1 0x1 ADD PUSH1 0x1 PUSH2 0x100 EXP DUP2 SLOAD DUP2 PUSH1 0xFF MUL NOT AND SWAP1 DUP4 ISZERO ISZERO MUL OR SWAP1 SSTORE POP POP POP POP POP POP POP JUMP JUMPDEST PUSH1 0x1 PUSH1 0x0 DUP4 PUSH20 0xFFFFFFFFFFFFFFFFFFFFFFFFFFFFFFFFFFFFFFFF AND PUSH20 0xFFFFFFFFFFFFFFFFFFFFFFFFFFFFFFFFFFFFFFFF AND DUP2 MSTORE PUSH1 0x20 ADD SWAP1 DUP2 MSTORE PUSH1 0x20 ADD PUSH1 0x0 KECCAK256 DUP1 SLOAD SWAP1 POP DUP2 LT PUSH2 0x5E7 JUMPI PUSH1 0x40 MLOAD PUSH32 0x8C379A000000000000000000000000000000000000000000000000000000000 DUP2 MSTORE PUSH1 0x4 ADD PUSH2 0x5DE SWAP1 PUSH2 0x1543 JUMP JUMPDEST PUSH1 0x40 MLOAD DUP1 SWAP2 SUB SWAP1 REVERT JUMPDEST PUSH1 0x0 PUSH1 0x1 PUSH1 0x0 DUP5 PUSH20 0xFFFFFFFFFFFFFFFFFFFFFFFFFFFFFFFFFFFFFFFF AND PUSH20 0xFFFFFFFFFFFFFFFFFFFFFFFFFFFFFFFFFFFFFFFF AND DUP2 MSTORE PUSH1 0x20 ADD SWAP1 DUP2 MSTORE PUSH1 0x20 ADD PUSH1 0x0 KECCAK256 DUP3 DUP2 SLOAD DUP2 LT PUSH2 0x63A JUMPI PUSH2 0x639 PUSH2 0x14C8 JUMP JUMPDEST JUMPDEST SWAP1 PUSH1 0x0 MSTORE PUSH1 0x20 PUSH1 0x0 KECCAK256 SWAP1 PUSH1 0x2 MUL ADD PUSH1 0x1 ADD PUSH1 0x1 PUSH2 0x100 EXP DUP2 SLOAD DUP2 PUSH1 0xFF MUL NOT AND SWAP1 DUP4 ISZERO ISZERO MUL OR SWAP1 SSTORE POP PUSH32 0xD162E955F6510B342AC0E6B85A12917ECC67AB1B2A0D31FDB734BD439ED8DDF1 PUSH1 0x40 MLOAD PUSH2 0x68F SWAP1 PUSH2 0x15D5 JUMP JUMPDEST PUSH1 0x40 MLOAD DUP1 SWAP2 SUB SWAP1 LOG1 POP POP JUMP JUMPDEST PUSH1 0x60 PUSH1 0x0 PUSH1 0x1 PUSH1 0x0 DUP5 PUSH20 0xFFFFFFFFFFFFFFFFFFFFFFFFFFFFFFFFFFFFFFFF AND PUSH20 0xFFFFFFFFFFFFFFFFFFFFFFFFFFFFFFFFFFFFFFFF AND DUP2 MSTORE PUSH1 0x20 ADD SWAP1 DUP2 MSTORE PUSH1 0x20 ADD PUSH1 0x0 KECCAK256 DUP1 SLOAD DUP1 PUSH1 0x20 MUL PUSH1 0x20 ADD PUSH1 0x40 MLOAD SWAP1 DUP2 ADD PUSH1 0x40 MSTORE DUP1 SWAP3 SWAP2 SWAP1 DUP2 DUP2 MSTORE PUSH1 0x20 ADD PUSH1 0x0 SWAP1 JUMPDEST DUP3 DUP3 LT ISZERO PUSH2 0x818 JUMPI DUP4 DUP3 SWAP1 PUSH1 0x0 MSTORE PUSH1 0x20 PUSH1 0x0 KECCAK256 SWAP1 PUSH1 0x2 MUL ADD PUSH1 0x40 MLOAD DUP1 PUSH1 0x60 ADD PUSH1 0x40 MSTORE SWAP1 DUP2 PUSH1 0x0 DUP3 ADD DUP1 SLOAD PUSH2 0x731 SWAP1 PUSH2 0x1219 JUMP JUMPDEST DUP1 PUSH1 0x1F ADD PUSH1 0x20 DUP1 SWAP2 DIV MUL PUSH1 0x20 ADD PUSH1 0x40 MLOAD SWAP1 DUP2 ADD PUSH1 0x40 MSTORE DUP1 SWAP3 SWAP2 SWAP1 DUP2 DUP2 MSTORE PUSH1 0x20 ADD DUP3 DUP1 SLOAD PUSH2 0x75D SWAP1 PUSH2 0x1219 JUMP JUMPDEST DUP1 ISZERO PUSH2 0x7AA JUMPI DUP1 PUSH1 0x1F LT PUSH2 0x77F JUMPI PUSH2 0x100 DUP1 DUP4 SLOAD DIV MUL DUP4 MSTORE SWAP2 PUSH1 0x20 ADD SWAP2 PUSH2 0x7AA JUMP JUMPDEST DUP3 ADD SWAP2 SWAP1 PUSH1 0x0 MSTORE PUSH1 0x20 PUSH1 0x0 KECCAK256 SWAP1 JUMPDEST DUP2 SLOAD DUP2 MSTORE SWAP1 PUSH1 0x1 ADD SWAP1 PUSH1 0x20 ADD DUP1 DUP4 GT PUSH2 0x78D JUMPI DUP3 SWAP1 SUB PUSH1 0x1F AND DUP3 ADD SWAP2 JUMPDEST POP POP POP POP POP DUP2 MSTORE PUSH1 0x20 ADD PUSH1 0x1 DUP3 ADD PUSH1 0x0 SWAP1 SLOAD SWAP1 PUSH2 0x100 EXP SWAP1 DIV PUSH1 0xFF AND PUSH1 0x5 DUP2 GT ISZERO PUSH2 0x7D8 JUMPI PUSH2 0x7D7 PUSH2 0xCCE JUMP JUMPDEST JUMPDEST PUSH1 0x5 DUP2 GT ISZERO PUSH2 0x7EA JUMPI PUSH2 0x7E9 PUSH2 0xCCE JUMP JUMPDEST JUMPDEST DUP2 MSTORE PUSH1 0x20 ADD PUSH1 0x1 DUP3 ADD PUSH1 0x1 SWAP1 SLOAD SWAP1 PUSH2 0x100 EXP SWAP1 DIV PUSH1 0xFF AND ISZERO ISZERO ISZERO ISZERO DUP2 MSTORE POP POP DUP2 MSTORE PUSH1 0x20 ADD SWAP1 PUSH1 0x1 ADD SWAP1 PUSH2 0x6FE JUMP JUMPDEST POP POP POP POP SWAP1 POP PUSH1 0x0 JUMPDEST DUP2 MLOAD DUP2 LT ISZERO PUSH2 0x9B7 JUMPI DUP2 DUP2 DUP2 MLOAD DUP2 LT PUSH2 0x83D JUMPI PUSH2 0x83C PUSH2 0x14C8 JUMP JUMPDEST JUMPDEST PUSH1 0x20 MUL PUSH1 0x20 ADD ADD MLOAD PUSH1 0x40 ADD MLOAD DUP1 ISZERO PUSH2 0x931 JUMPI POP PUSH1 0x1 PUSH1 0x5 DUP2 GT ISZERO PUSH2 0x864 JUMPI PUSH2 0x863 PUSH2 0xCCE JUMP JUMPDEST JUMPDEST DUP3 DUP3 DUP2 MLOAD DUP2 LT PUSH2 0x877 JUMPI PUSH2 0x876 PUSH2 0x14C8 JUMP JUMPDEST JUMPDEST PUSH1 0x20 MUL PUSH1 0x20 ADD ADD MLOAD PUSH1 0x20 ADD MLOAD PUSH1 0x5 DUP2 GT ISZERO PUSH2 0x895 JUMPI PUSH2 0x894 PUSH2 0xCCE JUMP JUMPDEST JUMPDEST EQ DUP1 PUSH2 0x8E3 JUMPI POP PUSH1 0x0 PUSH1 0x5 DUP2 GT ISZERO PUSH2 0x8B0 JUMPI PUSH2 0x8AF PUSH2 0xCCE JUMP JUMPDEST JUMPDEST DUP3 DUP3 DUP2 MLOAD DUP2 LT PUSH2 0x8C3 JUMPI PUSH2 0x8C2 PUSH2 0x14C8 JUMP JUMPDEST JUMPDEST PUSH1 0x20 MUL PUSH1 0x20 ADD ADD MLOAD PUSH1 0x20 ADD MLOAD PUSH1 0x5 DUP2 GT ISZERO PUSH2 0x8E1 JUMPI PUSH2 0x8E0 PUSH2 0xCCE JUMP JUMPDEST JUMPDEST EQ JUMPDEST DUP1 PUSH2 0x930 JUMPI POP PUSH1 0x2 PUSH1 0x5 DUP2 GT ISZERO PUSH2 0x8FD JUMPI PUSH2 0x8FC PUSH2 0xCCE JUMP JUMPDEST JUMPDEST DUP3 DUP3 DUP2 MLOAD DUP2 LT PUSH2 0x910 JUMPI PUSH2 0x90F PUSH2 0x14C8 JUMP JUMPDEST JUMPDEST PUSH1 0x20 MUL PUSH1 0x20 ADD ADD MLOAD PUSH1 0x20 ADD MLOAD PUSH1 0x5 DUP2 GT ISZERO PUSH2 0x92E JUMPI PUSH2 0x92D PUSH2 0xCCE JUMP JUMPDEST JUMPDEST EQ JUMPDEST JUMPDEST ISZERO PUSH2 0x9AA JUMPI PUSH32 0x4EE76E929D9A8BE3377C0F456548E21CA3329FB1B9258C85560C7419F834CCB5 PUSH1 0x40 MLOAD PUSH2 0x963 SWAP1 PUSH2 0x1641 JUMP JUMPDEST PUSH1 0x40 MLOAD DUP1 SWAP2 SUB SWAP1 LOG1 PUSH1 0x40 MLOAD DUP1 PUSH1 0x40 ADD PUSH1 0x40 MSTORE DUP1 PUSH1 0xF DUP2 MSTORE PUSH1 0x20 ADD PUSH32 0x4163636573732061636365707465640000000000000000000000000000000000 DUP2 MSTORE POP SWAP3 POP POP POP PUSH2 0xA27 JUMP JUMPDEST DUP1 DUP1 PUSH1 0x1 ADD SWAP2 POP POP PUSH2 0x821 JUMP JUMPDEST POP PUSH32 0xD162E955F6510B342AC0E6B85A12917ECC67AB1B2A0D31FDB734BD439ED8DDF1 PUSH1 0x40 MLOAD PUSH2 0x9E5 SWAP1 PUSH2 0x16AD JUMP JUMPDEST PUSH1 0x40 MLOAD DUP1 SWAP2 SUB SWAP1 LOG1 PUSH1 0x40 MLOAD DUP1 PUSH1 0x40 ADD PUSH1 0x40 MSTORE DUP1 PUSH1 0xD DUP2 MSTORE PUSH1 0x20 ADD PUSH32 0x4163636573732064656E69656400000000000000000000000000000000000000 DUP2 MSTORE POP SWAP2 POP POP JUMPDEST SWAP2 SWAP1 POP JUMP JUMPDEST PUSH1 0x60 PUSH1 0x0 DUP1 SLOAD DUP1 PUSH1 0x20 MUL PUSH1 0x20 ADD PUSH1 0x40 MLOAD SWAP1 DUP2 ADD PUSH1 0x40 MSTORE DUP1 SWAP3 SWAP2 SWAP1 DUP2 DUP2 MSTORE PUSH1 0x20 ADD PUSH1 0x0 SWAP1 JUMPDEST DUP3 DUP3 LT ISZERO PUSH2 0xB6A JUMPI DUP4 DUP3 SWAP1 PUSH1 0x0 MSTORE PUSH1 0x20 PUSH1 0x0 KECCAK256 SWAP1 PUSH1 0x2 MUL ADD PUSH1 0x40 MLOAD DUP1 PUSH1 0x60 ADD PUSH1 0x40 MSTORE SWAP1 DUP2 PUSH1 0x0 DUP3 ADD DUP1 SLOAD PUSH2 0xA83 SWAP1 PUSH2 0x1219 JUMP JUMPDEST DUP1 PUSH1 0x1F ADD PUSH1 0x20 DUP1 SWAP2 DIV MUL PUSH1 0x20 ADD PUSH1 0x40 MLOAD SWAP1 DUP2 ADD PUSH1 0x40 MSTORE DUP1 SWAP3 SWAP2 SWAP1 DUP2 DUP2 MSTORE PUSH1 0x20 ADD DUP3 DUP1 SLOAD PUSH2 0xAAF SWAP1 PUSH2 0x1219 JUMP JUMPDEST DUP1 ISZERO PUSH2 0xAFC JUMPI DUP1 PUSH1 0x1F LT PUSH2 0xAD1 JUMPI PUSH2 0x100 DUP1 DUP4 SLOAD DIV MUL DUP4 MSTORE SWAP2 PUSH1 0x20 ADD SWAP2 PUSH2 0xAFC JUMP JUMPDEST DUP3 ADD SWAP2 SWAP1 PUSH1 0x0 MSTORE PUSH1 0x20 PUSH1 0x0 KECCAK256 SWAP1 JUMPDEST DUP2 SLOAD DUP2 MSTORE SWAP1 PUSH1 0x1 ADD SWAP1 PUSH1 0x20 ADD DUP1 DUP4 GT PUSH2 0xADF JUMPI DUP3 SWAP1 SUB PUSH1 0x1F AND DUP3 ADD SWAP2 JUMPDEST POP POP POP POP POP DUP2 MSTORE PUSH1 0x20 ADD PUSH1 0x1 DUP3 ADD PUSH1 0x0 SWAP1 SLOAD SWAP1 PUSH2 0x100 EXP SWAP1 DIV PUSH1 0xFF AND PUSH1 0x5 DUP2 GT ISZERO PUSH2 0xB2A JUMPI PUSH2 0xB29 PUSH2 0xCCE JUMP JUMPDEST JUMPDEST PUSH1 0x5 DUP2 GT ISZERO PUSH2 0xB3C JUMPI PUSH2 0xB3B PUSH2 0xCCE JUMP JUMPDEST JUMPDEST DUP2 MSTORE PUSH1 0x20 ADD PUSH1 0x1 DUP3 ADD PUSH1 0x1 SWAP1 SLOAD SWAP1 PUSH2 0x100 EXP SWAP1 DIV PUSH1 0xFF AND ISZERO ISZERO ISZERO ISZERO DUP2 MSTORE POP POP DUP2 MSTORE PUSH1 0x20 ADD SWAP1 PUSH1 0x1 ADD SWAP1 PUSH2 0xA50 JUMP JUMPDEST POP POP POP POP SWAP1 POP SWAP1 JUMP JUMPDEST PUSH1 0x0 PUSH1 0x40 MLOAD SWAP1 POP SWAP1 JUMP JUMPDEST PUSH1 0x0 DUP1 REVERT JUMPDEST PUSH1 0x0 DUP1 REVERT JUMPDEST PUSH1 0x0 PUSH20 0xFFFFFFFFFFFFFFFFFFFFFFFFFFFFFFFFFFFFFFFF DUP3 AND SWAP1 POP SWAP2 SWAP1 POP JUMP JUMPDEST PUSH1 0x0 PUSH2 0xBB2 DUP3 PUSH2 0xB87 JUMP JUMPDEST SWAP1 POP SWAP2 SWAP1 POP JUMP JUMPDEST PUSH2 0xBC2 DUP2 PUSH2 0xBA7 JUMP JUMPDEST DUP2 EQ PUSH2 0xBCD JUMPI PUSH1 0x0 DUP1 REVERT JUMPDEST POP JUMP JUMPDEST PUSH1 0x0 DUP2 CALLDATALOAD SWAP1 POP PUSH2 0xBDF DUP2 PUSH2 0xBB9 JUMP JUMPDEST SWAP3 SWAP2 POP POP JUMP JUMPDEST PUSH1 0x0 PUSH1 0x20 DUP3 DUP5 SUB SLT ISZERO PUSH2 0xBFB JUMPI PUSH2 0xBFA PUSH2 0xB7D JUMP JUMPDEST JUMPDEST PUSH1 0x0 PUSH2 0xC09 DUP5 DUP3 DUP6 ADD PUSH2 0xBD0 JUMP JUMPDEST SWAP2 POP POP SWAP3 SWAP2 POP POP JUMP JUMPDEST PUSH1 0x0 DUP2 MLOAD SWAP1 POP SWAP2 SWAP1 POP JUMP JUMPDEST PUSH1 0x0 DUP3 DUP3 MSTORE PUSH1 0x20 DUP3 ADD SWAP1 POP SWAP3 SWAP2 POP POP JUMP JUMPDEST PUSH1 0x0 DUP2 SWAP1 POP PUSH1 0x20 DUP3 ADD SWAP1 POP SWAP2 SWAP1 POP JUMP JUMPDEST PUSH1 0x0 DUP2 MLOAD SWAP1 POP SWAP2 SWAP1 POP JUMP JUMPDEST PUSH1 0x0 DUP3 DUP3 MSTORE PUSH1 0x20 DUP3 ADD SWAP1 POP SWAP3 SWAP2 POP POP JUMP JUMPDEST PUSH1 0x0 JUMPDEST DUP4 DUP2 LT ISZERO PUSH2 0xC78 JUMPI DUP1 DUP3 ADD MLOAD DUP2 DUP5 ADD MSTORE PUSH1 0x20 DUP2 ADD SWAP1 POP PUSH2 0xC5D JUMP JUMPDEST PUSH1 0x0 DUP5 DUP5 ADD MSTORE POP POP POP POP JUMP JUMPDEST PUSH1 0x0 PUSH1 0x1F NOT PUSH1 0x1F DUP4 ADD AND SWAP1 POP SWAP2 SWAP1 POP JUMP JUMPDEST PUSH1 0x0 PUSH2 0xCA0 DUP3 PUSH2 0xC3E JUMP JUMPDEST PUSH2 0xCAA DUP2 DUP6 PUSH2 0xC49 JUMP JUMPDEST SWAP4 POP PUSH2 0xCBA DUP2 DUP6 PUSH1 0x20 DUP7 ADD PUSH2 0xC5A JUMP JUMPDEST PUSH2 0xCC3 DUP2 PUSH2 0xC84 JUMP JUMPDEST DUP5 ADD SWAP2 POP POP SWAP3 SWAP2 POP POP JUMP JUMPDEST PUSH32 0x4E487B7100000000000000000000000000000000000000000000000000000000 PUSH1 0x0 MSTORE PUSH1 0x21 PUSH1 0x4 MSTORE PUSH1 0x24 PUSH1 0x0 REVERT JUMPDEST PUSH1 0x6 DUP2 LT PUSH2 0xD0E JUMPI PUSH2 0xD0D PUSH2 0xCCE JUMP JUMPDEST JUMPDEST POP JUMP JUMPDEST PUSH1 0x0 DUP2 SWAP1 POP PUSH2 0xD1F DUP3 PUSH2 0xCFD JUMP JUMPDEST SWAP2 SWAP1 POP JUMP JUMPDEST PUSH1 0x0 PUSH2 0xD2F DUP3 PUSH2 0xD11 JUMP JUMPDEST SWAP1 POP SWAP2 SWAP1 POP JUMP JUMPDEST PUSH2 0xD3F DUP2 PUSH2 0xD24 JUMP JUMPDEST DUP3 MSTORE POP POP JUMP JUMPDEST PUSH1 0x0 DUP2 ISZERO ISZERO SWAP1 POP SWAP2 SWAP1 POP JUMP JUMPDEST PUSH2 0xD5A DUP2 PUSH2 0xD45 JUMP JUMPDEST DUP3 MSTORE POP POP JUMP JUMPDEST PUSH1 0x0 PUSH1 0x60 DUP4 ADD PUSH1 0x0 DUP4 ADD MLOAD DUP5 DUP3 SUB PUSH1 0x0 DUP7 ADD MSTORE PUSH2 0xD7D DUP3 DUP3 PUSH2 0xC95 JUMP JUMPDEST SWAP2 POP POP PUSH1 0x20 DUP4 ADD MLOAD PUSH2 0xD92 PUSH1 0x20 DUP7 ADD DUP3 PUSH2 0xD36 JUMP JUMPDEST POP PUSH1 0x40 DUP4 ADD MLOAD PUSH2 0xDA5 PUSH1 0x40 DUP7 ADD DUP3 PUSH2 0xD51 JUMP JUMPDEST POP DUP1 SWAP2 POP POP SWAP3 SWAP2 POP POP JUMP JUMPDEST PUSH1 0x0 PUSH2 0xDBC DUP4 DUP4 PUSH2 0xD60 JUMP JUMPDEST SWAP1 POP SWAP3 SWAP2 POP POP JUMP JUMPDEST PUSH1 0x0 PUSH1 0x20 DUP3 ADD SWAP1 POP SWAP2 SWAP1 POP JUMP JUMPDEST PUSH1 0x0 PUSH2 0xDDC DUP3 PUSH2 0xC12 JUMP JUMPDEST PUSH2 0xDE6 DUP2 DUP6 PUSH2 0xC1D JUMP JUMPDEST SWAP4 POP DUP4 PUSH1 0x20 DUP3 MUL DUP6 ADD PUSH2 0xDF8 DUP6 PUSH2 0xC2E JUMP JUMPDEST DUP1 PUSH1 0x0 JUMPDEST DUP6 DUP2 LT ISZERO PUSH2 0xE34 JUMPI DUP5 DUP5 SUB DUP10 MSTORE DUP2 MLOAD PUSH2 0xE15 DUP6 DUP3 PUSH2 0xDB0 JUMP JUMPDEST SWAP5 POP PUSH2 0xE20 DUP4 PUSH2 0xDC4 JUMP JUMPDEST SWAP3 POP PUSH1 0x20 DUP11 ADD SWAP10 POP POP PUSH1 0x1 DUP2 ADD SWAP1 POP PUSH2 0xDFC JUMP JUMPDEST POP DUP3 SWAP8 POP DUP8 SWAP6 POP POP POP POP POP POP SWAP3 SWAP2 POP POP JUMP JUMPDEST PUSH1 0x0 PUSH1 0x20 DUP3 ADD SWAP1 POP DUP2 DUP2 SUB PUSH1 0x0 DUP4 ADD MSTORE PUSH2 0xE60 DUP2 DUP5 PUSH2 0xDD1 JUMP JUMPDEST SWAP1 POP SWAP3 SWAP2 POP POP JUMP JUMPDEST PUSH1 0x0 DUP1 REVERT JUMPDEST PUSH1 0x0 DUP1 REVERT JUMPDEST PUSH32 0x4E487B7100000000000000000000000000000000000000000000000000000000 PUSH1 0x0 MSTORE PUSH1 0x41 PUSH1 0x4 MSTORE PUSH1 0x24 PUSH1 0x0 REVERT JUMPDEST PUSH2 0xEAA DUP3 PUSH2 0xC84 JUMP JUMPDEST DUP2 ADD DUP2 DUP2 LT PUSH8 0xFFFFFFFFFFFFFFFF DUP3 GT OR ISZERO PUSH2 0xEC9 JUMPI PUSH2 0xEC8 PUSH2 0xE72 JUMP JUMPDEST JUMPDEST DUP1 PUSH1 0x40 MSTORE POP POP POP JUMP JUMPDEST PUSH1 0x0 PUSH2 0xEDC PUSH2 0xB73 JUMP JUMPDEST SWAP1 POP PUSH2 0xEE8 DUP3 DUP3 PUSH2 0xEA1 JUMP JUMPDEST SWAP2 SWAP1 POP JUMP JUMPDEST PUSH1 0x0 PUSH8 0xFFFFFFFFFFFFFFFF DUP3 GT ISZERO PUSH2 0xF08 JUMPI PUSH2 0xF07 PUSH2 0xE72 JUMP JUMPDEST JUMPDEST PUSH2 0xF11 DUP3 PUSH2 0xC84 JUMP JUMPDEST SWAP1 POP PUSH1 0x20 DUP2 ADD SWAP1 POP SWAP2 SWAP1 POP JUMP JUMPDEST DUP3 DUP2 DUP4 CALLDATACOPY PUSH1 0x0 DUP4 DUP4 ADD MSTORE POP POP POP JUMP JUMPDEST PUSH1 0x0 PUSH2 0xF40 PUSH2 0xF3B DUP5 PUSH2 0xEED JUMP JUMPDEST PUSH2 0xED2 JUMP JUMPDEST SWAP1 POP DUP3 DUP2 MSTORE PUSH1 0x20 DUP2 ADD DUP5 DUP5 DUP5 ADD GT ISZERO PUSH2 0xF5C JUMPI PUSH2 0xF5B PUSH2 0xE6D JUMP JUMPDEST JUMPDEST PUSH2 0xF67 DUP5 DUP3 DUP6 PUSH2 0xF1E JUMP JUMPDEST POP SWAP4 SWAP3 POP POP POP JUMP JUMPDEST PUSH1 0x0 DUP3 PUSH1 0x1F DUP4 ADD SLT PUSH2 0xF84 JUMPI PUSH2 0xF83 PUSH2 0xE68 JUMP JUMPDEST JUMPDEST DUP2 CALLDATALOAD PUSH2 0xF94 DUP5 DUP3 PUSH1 0x20 DUP7 ADD PUSH2 0xF2D JUMP JUMPDEST SWAP2 POP POP SWAP3 SWAP2 POP POP JUMP JUMPDEST PUSH1 0x6 DUP2 LT PUSH2 0xFAA JUMPI PUSH1 0x0 DUP1 REVERT JUMPDEST POP JUMP JUMPDEST PUSH1 0x0 DUP2 CALLDATALOAD SWAP1 POP PUSH2 0xFBC DUP2 PUSH2 0xF9D JUMP JUMPDEST SWAP3 SWAP2 POP POP JUMP JUMPDEST PUSH2 0xFCB DUP2 PUSH2 0xD45 JUMP JUMPDEST DUP2 EQ PUSH2 0xFD6 JUMPI PUSH1 0x0 DUP1 REVERT JUMPDEST POP JUMP JUMPDEST PUSH1 0x0 DUP2 CALLDATALOAD SWAP1 POP PUSH2 0xFE8 DUP2 PUSH2 0xFC2 JUMP JUMPDEST SWAP3 SWAP2 POP POP JUMP JUMPDEST PUSH1 0x0 DUP1 PUSH1 0x0 DUP1 PUSH1 0x80 DUP6 DUP8 SUB SLT ISZERO PUSH2 0x1008 JUMPI PUSH2 0x1007 PUSH2 0xB7D JUMP JUMPDEST JUMPDEST PUSH1 0x0 PUSH2 0x1016 DUP8 DUP3 DUP9 ADD PUSH2 0xBD0 JUMP JUMPDEST SWAP5 POP POP PUSH1 0x20 DUP6 ADD CALLDATALOAD PUSH8 0xFFFFFFFFFFFFFFFF DUP2 GT ISZERO PUSH2 0x1037 JUMPI PUSH2 0x1036 PUSH2 0xB82 JUMP JUMPDEST JUMPDEST PUSH2 0x1043 DUP8 DUP3 DUP9 ADD PUSH2 0xF6F JUMP JUMPDEST SWAP4 POP POP PUSH1 0x40 PUSH2 0x1054 DUP8 DUP3 DUP9 ADD PUSH2 0xFAD JUMP JUMPDEST SWAP3 POP POP PUSH1 0x60 PUSH2 0x1065 DUP8 DUP3 DUP9 ADD PUSH2 0xFD9 JUMP JUMPDEST SWAP2 POP POP SWAP3 SWAP6 SWAP2 SWAP5 POP SWAP3 POP JUMP JUMPDEST PUSH1 0x0 DUP2 SWAP1 POP SWAP2 SWAP1 POP JUMP JUMPDEST PUSH2 0x1084 DUP2 PUSH2 0x1071 JUMP JUMPDEST DUP2 EQ PUSH2 0x108F JUMPI PUSH1 0x0 DUP1 REVERT JUMPDEST POP JUMP JUMPDEST PUSH1 0x0 DUP2 CALLDATALOAD SWAP1 POP PUSH2 0x10A1 DUP2 PUSH2 0x107B JUMP JUMPDEST SWAP3 SWAP2 POP POP JUMP JUMPDEST PUSH1 0x0 DUP1 PUSH1 0x0 DUP1 PUSH1 0x0 PUSH1 0xA0 DUP7 DUP9 SUB SLT ISZERO PUSH2 0x10C3 JUMPI PUSH2 0x10C2 PUSH2 0xB7D JUMP JUMPDEST JUMPDEST PUSH1 0x0 PUSH2 0x10D1 DUP9 DUP3 DUP10 ADD PUSH2 0x1092 JUMP JUMPDEST SWAP6 POP POP PUSH1 0x20 PUSH2 0x10E2 DUP9 DUP3 DUP10 ADD PUSH2 0xBD0 JUMP JUMPDEST SWAP5 POP POP PUSH1 0x40 DUP7 ADD CALLDATALOAD PUSH8 0xFFFFFFFFFFFFFFFF DUP2 GT ISZERO PUSH2 0x1103 JUMPI PUSH2 0x1102 PUSH2 0xB82 JUMP JUMPDEST JUMPDEST PUSH2 0x110F DUP9 DUP3 DUP10 ADD PUSH2 0xF6F JUMP JUMPDEST SWAP4 POP POP PUSH1 0x60 PUSH2 0x1120 DUP9 DUP3 DUP10 ADD PUSH2 0xFAD JUMP JUMPDEST SWAP3 POP POP PUSH1 0x80 PUSH2 0x1131 DUP9 DUP3 DUP10 ADD PUSH2 0xFD9 JUMP JUMPDEST SWAP2 POP POP SWAP3 SWAP6 POP SWAP3 SWAP6 SWAP1 SWAP4 POP JUMP JUMPDEST PUSH1 0x0 DUP1 PUSH1 0x40 DUP4 DUP6 SUB SLT ISZERO PUSH2 0x1155 JUMPI PUSH2 0x1154 PUSH2 0xB7D JUMP JUMPDEST JUMPDEST PUSH1 0x0 PUSH2 0x1163 DUP6 DUP3 DUP7 ADD PUSH2 0xBD0 JUMP JUMPDEST SWAP3 POP POP PUSH1 0x20 PUSH2 0x1174 DUP6 DUP3 DUP7 ADD PUSH2 0x1092 JUMP JUMPDEST SWAP2 POP POP SWAP3 POP SWAP3 SWAP1 POP JUMP JUMPDEST PUSH1 0x0 DUP3 DUP3 MSTORE PUSH1 0x20 DUP3 ADD SWAP1 POP SWAP3 SWAP2 POP POP JUMP JUMPDEST PUSH1 0x0 PUSH2 0x119A DUP3 PUSH2 0xC3E JUMP JUMPDEST PUSH2 0x11A4 DUP2 DUP6 PUSH2 0x117E JUMP JUMPDEST SWAP4 POP PUSH2 0x11B4 DUP2 DUP6 PUSH1 0x20 DUP7 ADD PUSH2 0xC5A JUMP JUMPDEST PUSH2 0x11BD DUP2 PUSH2 0xC84 JUMP JUMPDEST DUP5 ADD SWAP2 POP POP SWAP3 SWAP2 POP POP JUMP JUMPDEST PUSH1 0x0 PUSH1 0x20 DUP3 ADD SWAP1 POP DUP2 DUP2 SUB PUSH1 0x0 DUP4 ADD MSTORE PUSH2 0x11E2 DUP2 DUP5 PUSH2 0x118F JUMP JUMPDEST SWAP1 POP SWAP3 SWAP2 POP POP JUMP JUMPDEST PUSH32 0x4E487B7100000000000000000000000000000000000000000000000000000000 PUSH1 0x0 MSTORE PUSH1 0x22 PUSH1 0x4 MSTORE PUSH1 0x24 PUSH1 0x0 REVERT JUMPDEST PUSH1 0x0 PUSH1 0x2 DUP3 DIV SWAP1 POP PUSH1 0x1 DUP3 AND DUP1 PUSH2 0x1231 JUMPI PUSH1 0x7F DUP3 AND SWAP2 POP JUMPDEST PUSH1 0x20 DUP3 LT DUP2 SUB PUSH2 0x1244 JUMPI PUSH2 0x1243 PUSH2 0x11EA JUMP JUMPDEST JUMPDEST POP SWAP2 SWAP1 POP JUMP JUMPDEST PUSH1 0x0 DUP2 SWAP1 POP DUP2 PUSH1 0x0 MSTORE PUSH1 0x20 PUSH1 0x0 KECCAK256 SWAP1 POP SWAP2 SWAP1 POP JUMP JUMPDEST PUSH1 0x0 PUSH1 0x20 PUSH1 0x1F DUP4 ADD DIV SWAP1 POP SWAP2 SWAP1 POP JUMP JUMPDEST PUSH1 0x0 DUP3 DUP3 SHL SWAP1 POP SWAP3 SWAP2 POP POP JUMP JUMPDEST PUSH1 0x0 PUSH1 0x8 DUP4 MUL PUSH2 0x12AC PUSH32 0xFFFFFFFFFFFFFFFFFFFFFFFFFFFFFFFFFFFFFFFFFFFFFFFFFFFFFFFFFFFFFFFF DUP3 PUSH2 0x126F JUMP JUMPDEST PUSH2 0x12B6 DUP7 DUP4 PUSH2 0x126F JUMP JUMPDEST SWAP6 POP DUP1 NOT DUP5 AND SWAP4 POP DUP1 DUP7 AND DUP5 OR SWAP3 POP POP POP SWAP4 SWAP3 POP POP POP JUMP JUMPDEST PUSH1 0x0 DUP2 SWAP1 POP SWAP2 SWAP1 POP JUMP JUMPDEST PUSH1 0x0 PUSH2 0x12F3 PUSH2 0x12EE PUSH2 0x12E9 DUP5 PUSH2 0x1071 JUMP JUMPDEST PUSH2 0x12CE JUMP JUMPDEST PUSH2 0x1071 JUMP JUMPDEST SWAP1 POP SWAP2 SWAP1 POP JUMP JUMPDEST PUSH1 0x0 DUP2 SWAP1 POP SWAP2 SWAP1 POP JUMP JUMPDEST PUSH2 0x130D DUP4 PUSH2 0x12D8 JUMP JUMPDEST PUSH2 0x1321 PUSH2 0x1319 DUP3 PUSH2 0x12FA JUMP JUMPDEST DUP5 DUP5 SLOAD PUSH2 0x127C JUMP JUMPDEST DUP3 SSTORE POP POP POP POP JUMP JUMPDEST PUSH1 0x0 SWAP1 JUMP JUMPDEST PUSH2 0x1336 PUSH2 0x1329 JUMP JUMPDEST PUSH2 0x1341 DUP2 DUP5 DUP5 PUSH2 0x1304 JUMP JUMPDEST POP POP POP JUMP JUMPDEST JUMPDEST DUP2 DUP2 LT ISZERO PUSH2 0x1365 JUMPI PUSH2 0x135A PUSH1 0x0 DUP3 PUSH2 0x132E JUMP JUMPDEST PUSH1 0x1 DUP2 ADD SWAP1 POP PUSH2 0x1347 JUMP JUMPDEST POP POP JUMP JUMPDEST PUSH1 0x1F DUP3 GT ISZERO PUSH2 0x13AA JUMPI PUSH2 0x137B DUP2 PUSH2 0x124A JUMP JUMPDEST PUSH2 0x1384 DUP5 PUSH2 0x125F JUMP JUMPDEST DUP2 ADD PUSH1 0x20 DUP6 LT ISZERO PUSH2 0x1393 JUMPI DUP2 SWAP1 POP JUMPDEST PUSH2 0x13A7 PUSH2 0x139F DUP6 PUSH2 0x125F JUMP JUMPDEST DUP4 ADD DUP3 PUSH2 0x1346 JUMP JUMPDEST POP POP JUMPDEST POP POP POP JUMP JUMPDEST PUSH1 0x0 DUP3 DUP3 SHR SWAP1 POP SWAP3 SWAP2 POP POP JUMP JUMPDEST PUSH1 0x0 PUSH2 0x13CD PUSH1 0x0 NOT DUP5 PUSH1 0x8 MUL PUSH2 0x13AF JUMP JUMPDEST NOT DUP1 DUP4 AND SWAP2 POP POP SWAP3 SWAP2 POP POP JUMP JUMPDEST PUSH1 0x0 PUSH2 0x13E6 DUP4 DUP4 PUSH2 0x13BC JUMP JUMPDEST SWAP2 POP DUP3 PUSH1 0x2 MUL DUP3 OR SWAP1 POP SWAP3 SWAP2 POP POP JUMP JUMPDEST PUSH2 0x13FF DUP3 PUSH2 0xC3E JUMP JUMPDEST PUSH8 0xFFFFFFFFFFFFFFFF DUP2 GT ISZERO PUSH2 0x1418 JUMPI PUSH2 0x1417 PUSH2 0xE72 JUMP JUMPDEST JUMPDEST PUSH2 0x1422 DUP3 SLOAD PUSH2 0x1219 JUMP JUMPDEST PUSH2 0x142D DUP3 DUP3 DUP6 PUSH2 0x1369 JUMP JUMPDEST PUSH1 0x0 PUSH1 0x20 SWAP1 POP PUSH1 0x1F DUP4 GT PUSH1 0x1 DUP2 EQ PUSH2 0x1460 JUMPI PUSH1 0x0 DUP5 ISZERO PUSH2 0x144E JUMPI DUP3 DUP8 ADD MLOAD SWAP1 POP JUMPDEST PUSH2 0x1458 DUP6 DUP3 PUSH2 0x13DA JUMP JUMPDEST DUP7 SSTORE POP PUSH2 0x14C0 JUMP JUMPDEST PUSH1 0x1F NOT DUP5 AND PUSH2 0x146E DUP7 PUSH2 0x124A JUMP JUMPDEST PUSH1 0x0 JUMPDEST DUP3 DUP2 LT ISZERO PUSH2 0x1496 JUMPI DUP5 DUP10 ADD MLOAD DUP3 SSTORE PUSH1 0x1 DUP3 ADD SWAP2 POP PUSH1 0x20 DUP6 ADD SWAP5 POP PUSH1 0x20 DUP2 ADD SWAP1 POP PUSH2 0x1471 JUMP JUMPDEST DUP7 DUP4 LT ISZERO PUSH2 0x14B3 JUMPI DUP5 DUP10 ADD MLOAD PUSH2 0x14AF PUSH1 0x1F DUP10 AND DUP3 PUSH2 0x13BC JUMP JUMPDEST DUP4 SSTORE POP JUMPDEST PUSH1 0x1 PUSH1 0x2 DUP9 MUL ADD DUP9 SSTORE POP POP POP JUMPDEST POP POP POP POP POP POP JUMP JUMPDEST PUSH32 0x4E487B7100000000000000000000000000000000000000000000000000000000 PUSH1 0x0 MSTORE PUSH1 0x32 PUSH1 0x4 MSTORE PUSH1 0x24 PUSH1 0x0 REVERT JUMPDEST PUSH32 0x496E76616C696420696E64657800000000000000000000000000000000000000 PUSH1 0x0 DUP3 ADD MSTORE POP JUMP JUMPDEST PUSH1 0x0 PUSH2 0x152D PUSH1 0xD DUP4 PUSH2 0x117E JUMP JUMPDEST SWAP2 POP PUSH2 0x1538 DUP3 PUSH2 0x14F7 JUMP JUMPDEST PUSH1 0x20 DUP3 ADD SWAP1 POP SWAP2 SWAP1 POP JUMP JUMPDEST PUSH1 0x0 PUSH1 0x20 DUP3 ADD SWAP1 POP DUP2 DUP2 SUB PUSH1 0x0 DUP4 ADD MSTORE PUSH2 0x155C DUP2 PUSH2 0x1520 JUMP JUMPDEST SWAP1 POP SWAP2 SWAP1 POP JUMP JUMPDEST PUSH32 0x456D706C6F796565207465726D696E6174656420616E64206163636573732072 PUSH1 0x0 DUP3 ADD MSTORE PUSH32 0x65766F6B65642E00000000000000000000000000000000000000000000000000 PUSH1 0x20 DUP3 ADD MSTORE POP JUMP JUMPDEST PUSH1 0x0 PUSH2 0x15BF PUSH1 0x27 DUP4 PUSH2 0x117E JUMP JUMPDEST SWAP2 POP PUSH2 0x15CA DUP3 PUSH2 0x1563 JUMP JUMPDEST PUSH1 0x40 DUP3 ADD SWAP1 POP SWAP2 SWAP1 POP JUMP JUMPDEST PUSH1 0x0 PUSH1 0x20 DUP3 ADD SWAP1 POP DUP2 DUP2 SUB PUSH1 0x0 DUP4 ADD MSTORE PUSH2 0x15EE DUP2 PUSH2 0x15B2 JUMP JUMPDEST SWAP1 POP SWAP2 SWAP1 POP JUMP JUMPDEST PUSH32 0x4163636573732061636365707465642E00000000000000000000000000000000 PUSH1 0x0 DUP3 ADD MSTORE POP JUMP JUMPDEST PUSH1 0x0 PUSH2 0x162B PUSH1 0x10 DUP4 PUSH2 0x117E JUMP JUMPDEST SWAP2 POP PUSH2 0x1636 DUP3 PUSH2 0x15F5 JUMP JUMPDEST PUSH1 0x20 DUP3 ADD SWAP1 POP SWAP2 SWAP1 POP JUMP JUMPDEST PUSH1 0x0 PUSH1 0x20 DUP3 ADD SWAP1 POP DUP2 DUP2 SUB PUSH1 0x0 DUP4 ADD MSTORE PUSH2 0x165A DUP2 PUSH2 0x161E JUMP JUMPDEST SWAP1 POP SWAP2 SWAP1 POP JUMP JUMPDEST PUSH32 0x4163636573732064656E6965642E000000000000000000000000000000000000 PUSH1 0x0 DUP3 ADD MSTORE POP JUMP JUMPDEST PUSH1 0x0 PUSH2 0x1697 PUSH1 0xE DUP4 PUSH2 0x117E JUMP JUMPDEST SWAP2 POP PUSH2 0x16A2 DUP3 PUSH2 0x1661 JUMP JUMPDEST PUSH1 0x20 DUP3 ADD SWAP1 POP SWAP2 SWAP1 POP JUMP JUMPDEST PUSH1 0x0 PUSH1 0x20 DUP3 ADD SWAP1 POP DUP2 DUP2 SUB PUSH1 0x0 DUP4 ADD MSTORE PUSH2 0x16C6 DUP2 PUSH2 0x168A JUMP JUMPDEST SWAP1 POP SWAP2 SWAP1 POP JUMP INVALID LOG2 PUSH5 0x6970667358 0x22 SLT KECCAK256 CREATE2 PUSH15 0x6C21632EC3B4642867C2A01FB4125 PUSH3 0x1FC461 MULMOD MSTORE SWAP15 0xD9 SWAP3 0x4F BASEFEE SLOAD SWAP3 PUSH15 0x9164736F6C634300081E0033000000 "
        },
        "methodIdentifiers": {
          "addEmployee(address,string,uint8,bool)": "9a3416ed",
          "canAccessGarage(address)": "b24e34c8",
          "getAllEmployees()": "e3366fed",
          "getEmployee(address)": "32648e09",
          "terminateEmployee(address,uint256)": "ad7ae6cc",
          "updateEmployee(uint256,address,string,uint8,bool)": "a36dbf81"
        }
      }
    }
  }
}