{
  "_format": "hh-sol-artifact-1",
  "contractName": "CompanyFactory",
  "sourceName": "contracts/companyFactory.sol",
  "abi": [
    {
      "inputs": [
        {
          "internalType": "address",
          "name": "_ownersAddress",
          "type": "address"
        }
      ],
      "name": "createCompany",
      "outputs": [],
      "stateMutability": "nonpayable",
      "type": "function"
    },
    {
      "inputs": [],
      "name": "getCompanyAddresses",
      "outputs": [
        {
          "internalType": "address[]",
          "name": "",
          "type": "address[]"
        }
      ],
      "stateMutability": "view",
      "type": "function"
    }
  ],
  "bytecode": "0x6080604052348015600f57600080fd5b50611bb98061001f6000396000f3fe608060405234801561001057600080fd5b50600436106100365760003560e01c80638b0592541461003b578063d9b4c6a114610059575b600080fd5b610043610075565b60405161005091906102a5565b60405180910390f35b610073600480360381019061006e91906102f8565b610103565b005b606060008054806020026020016040519081016040528092919081815260200182805480156100f957602002820191906000526020600020905b8160009054906101000a900473ffffffffffffffffffffffffffffffffffffffff1673ffffffffffffffffffffffffffffffffffffffff16815260200190600101908083116100af575b5050505050905090565b600081604051610112906101a8565b61011c9190610334565b604051809103906000f080158015610138573d6000803e3d6000fd5b50905060008190506000819080600181540180825580915050600190039060005260206000200160009091909190916101000a81548173ffffffffffffffffffffffffffffffffffffffff021916908373ffffffffffffffffffffffffffffffffffffffff160217905550505050565b6118348061035083390190565b600081519050919050565b600082825260208201905092915050565b6000819050602082019050919050565b600073ffffffffffffffffffffffffffffffffffffffff82169050919050565b600061020c826101e1565b9050919050565b61021c81610201565b82525050565b600061022e8383610213565b60208301905092915050565b6000602082019050919050565b6000610252826101b5565b61025c81856101c0565b9350610267836101d1565b8060005b8381101561029857815161027f8882610222565b975061028a8361023a565b92505060018101905061026b565b5085935050505092915050565b600060208201905081810360008301526102bf8184610247565b905092915050565b600080fd5b6102d581610201565b81146102e057600080fd5b50565b6000813590506102f2816102cc565b92915050565b60006020828403121561030e5761030d6102c7565b5b600061031c848285016102e3565b91505092915050565b61032e81610201565b82525050565b60006020820190506103496000830184610325565b9291505056fe608060405234801561001057600080fd5b50604051611834380380611834833981810160405281019061003291906100dc565b80600160006101000a81548173ffffffffffffffffffffffffffffffffffffffff021916908373ffffffffffffffffffffffffffffffffffffffff16021790555050610109565b600080fd5b600073ffffffffffffffffffffffffffffffffffffffff82169050919050565b60006100a98261007e565b9050919050565b6100b98161009e565b81146100c457600080fd5b50565b6000815190506100d6816100b0565b92915050565b6000602082840312156100f2576100f1610079565b5b6000610100848285016100c7565b91505092915050565b61171c806101186000396000f3fe6080604052600436106100745760003560e01c80633822a45d1161004e5780633822a45d1461011857806357629a1614610141578063b48b41e71461016a578063ec34ece8146101935761007b565b80630ea37aef14610089578063311df38d146100b257806332648e09146100db5761007b565b3661007b57005b34801561008757600080fd5b005b34801561009557600080fd5b506100b060048036038101906100ab9190610f7c565b6101bc565b005b3480156100be57600080fd5b506100d960048036038101906100d491906110ef565b610441565b005b3480156100e757600080fd5b5061010260048036038101906100fd9190610f7c565b61065f565b60405161010f91906112b9565b60405180910390f35b34801561012457600080fd5b5061013f600480360381019061013a91906112db565b6107e4565b005b34801561014d57600080fd5b5061016860048036038101906101639190611363565b6108fe565b005b34801561017657600080fd5b50610191600480360381019061018c91906113c8565b610abb565b005b34801561019f57600080fd5b506101ba60048036038101906101b59190611363565b610c76565b005b3373ffffffffffffffffffffffffffffffffffffffff16600160009054906101000a900473ffffffffffffffffffffffffffffffffffffffff1673ffffffffffffffffffffffffffffffffffffffff1614610243576040517f88cbbbfe00000000000000000000000000000000000000000000000000000000815260040160405180910390fd5b600073ffffffffffffffffffffffffffffffffffffffff166000808373ffffffffffffffffffffffffffffffffffffffff1673ffffffffffffffffffffffffffffffffffffffff16815260200190815260200160002060020160019054906101000a900473ffffffffffffffffffffffffffffffffffffffff1673ffffffffffffffffffffffffffffffffffffffff160361030a576040517ff33a263900000000000000000000000000000000000000000000000000000000815260040160405180910390fd5b6000600281111561031e5761031d6111d0565b5b6000808373ffffffffffffffffffffffffffffffffffffffff1673ffffffffffffffffffffffffffffffffffffffff16815260200190815260200160002060020160009054906101000a900460ff16600281111561037f5761037e6111d0565b5b146103b6576040517fa475dfad00000000000000000000000000000000000000000000000000000000815260040160405180910390fd5b8073ffffffffffffffffffffffffffffffffffffffff166108fc6000808473ffffffffffffffffffffffffffffffffffffffff1673ffffffffffffffffffffffffffffffffffffffff168152602001908152602001600020600101549081150290604051600060405180830381858888f1935050505015801561043d573d6000803e3d6000fd5b5050565b600073ffffffffffffffffffffffffffffffffffffffff166000803373ffffffffffffffffffffffffffffffffffffffff1673ffffffffffffffffffffffffffffffffffffffff16815260200190815260200160002060020160019054906101000a900473ffffffffffffffffffffffffffffffffffffffff1673ffffffffffffffffffffffffffffffffffffffff1614610508576040517f9141717f00000000000000000000000000000000000000000000000000000000815260040160405180910390fd5b610510610eba565b818160000181905250600081604001906002811115610532576105316111d0565b5b90816002811115610546576105456111d0565b5b8152505033816060019073ffffffffffffffffffffffffffffffffffffffff16908173ffffffffffffffffffffffffffffffffffffffff1681525050806000803373ffffffffffffffffffffffffffffffffffffffff1673ffffffffffffffffffffffffffffffffffffffff16815260200190815260200160002060008201518160000190816105d69190611614565b506020820151816001015560408201518160020160006101000a81548160ff0219169083600281111561060c5761060b6111d0565b5b021790555060608201518160020160016101000a81548173ffffffffffffffffffffffffffffffffffffffff021916908373ffffffffffffffffffffffffffffffffffffffff1602179055509050505050565b610667610eba565b6000808373ffffffffffffffffffffffffffffffffffffffff1673ffffffffffffffffffffffffffffffffffffffff1681526020019081526020016000206040518060800160405290816000820180546106c090611437565b80601f01602080910402602001604051908101604052809291908181526020018280546106ec90611437565b80156107395780601f1061070e57610100808354040283529160200191610739565b820191906000526020600020905b81548152906001019060200180831161071c57829003601f168201915b50505050508152602001600182015481526020016002820160009054906101000a900460ff166002811115610771576107706111d0565b5b6002811115610783576107826111d0565b5b81526020016002820160019054906101000a900473ffffffffffffffffffffffffffffffffffffffff1673ffffffffffffffffffffffffffffffffffffffff1673ffffffffffffffffffffffffffffffffffffffff16815250509050919050565b600073ffffffffffffffffffffffffffffffffffffffff166000808473ffffffffffffffffffffffffffffffffffffffff1673ffffffffffffffffffffffffffffffffffffffff16815260200190815260200160002060020160019054906101000a900473ffffffffffffffffffffffffffffffffffffffff1673ffffffffffffffffffffffffffffffffffffffff16036108ab576040517ff33a263900000000000000000000000000000000000000000000000000000000815260040160405180910390fd5b806000808473ffffffffffffffffffffffffffffffffffffffff1673ffffffffffffffffffffffffffffffffffffffff16815260200190815260200160002060000190816108f99190611614565b505050565b600073ffffffffffffffffffffffffffffffffffffffff166000808473ffffffffffffffffffffffffffffffffffffffff1673ffffffffffffffffffffffffffffffffffffffff16815260200190815260200160002060020160019054906101000a900473ffffffffffffffffffffffffffffffffffffffff1673ffffffffffffffffffffffffffffffffffffffff16036109c5576040517ff33a263900000000000000000000000000000000000000000000000000000000815260040160405180910390fd5b600060028111156109d9576109d86111d0565b5b6000808473ffffffffffffffffffffffffffffffffffffffff1673ffffffffffffffffffffffffffffffffffffffff16815260200190815260200160002060020160009054906101000a900460ff166002811115610a3a57610a396111d0565b5b14610a71576040517fa475dfad00000000000000000000000000000000000000000000000000000000815260040160405180910390fd5b806000808473ffffffffffffffffffffffffffffffffffffffff1673ffffffffffffffffffffffffffffffffffffffff168152602001908152602001600020600101819055505050565b3373ffffffffffffffffffffffffffffffffffffffff16600160009054906101000a900473ffffffffffffffffffffffffffffffffffffffff1673ffffffffffffffffffffffffffffffffffffffff1614610b42576040517f88cbbbfe00000000000000000000000000000000000000000000000000000000815260040160405180910390fd5b600073ffffffffffffffffffffffffffffffffffffffff166000808473ffffffffffffffffffffffffffffffffffffffff1673ffffffffffffffffffffffffffffffffffffffff16815260200190815260200160002060020160019054906101000a900473ffffffffffffffffffffffffffffffffffffffff1673ffffffffffffffffffffffffffffffffffffffff1603610c09576040517ff33a263900000000000000000000000000000000000000000000000000000000815260040160405180910390fd5b806000808473ffffffffffffffffffffffffffffffffffffffff1673ffffffffffffffffffffffffffffffffffffffff16815260200190815260200160002060020160006101000a81548160ff02191690836002811115610c6d57610c6c6111d0565b5b02179055505050565b3373ffffffffffffffffffffffffffffffffffffffff16600160009054906101000a900473ffffffffffffffffffffffffffffffffffffffff1673ffffffffffffffffffffffffffffffffffffffff1614610cfd576040517f88cbbbfe00000000000000000000000000000000000000000000000000000000815260040160405180910390fd5b600073ffffffffffffffffffffffffffffffffffffffff166000808473ffffffffffffffffffffffffffffffffffffffff1673ffffffffffffffffffffffffffffffffffffffff16815260200190815260200160002060020160019054906101000a900473ffffffffffffffffffffffffffffffffffffffff1673ffffffffffffffffffffffffffffffffffffffff1603610dc4576040517ff33a263900000000000000000000000000000000000000000000000000000000815260040160405180910390fd5b60006002811115610dd857610dd76111d0565b5b6000808473ffffffffffffffffffffffffffffffffffffffff1673ffffffffffffffffffffffffffffffffffffffff16815260200190815260200160002060020160009054906101000a900460ff166002811115610e3957610e386111d0565b5b14610e70576040517fa475dfad00000000000000000000000000000000000000000000000000000000815260040160405180910390fd5b806000808473ffffffffffffffffffffffffffffffffffffffff1673ffffffffffffffffffffffffffffffffffffffff168152602001908152602001600020600101819055505050565b6040518060800160405280606081526020016000815260200160006002811115610ee757610ee66111d0565b5b8152602001600073ffffffffffffffffffffffffffffffffffffffff1681525090565b6000604051905090565b600080fd5b600080fd5b600073ffffffffffffffffffffffffffffffffffffffff82169050919050565b6000610f4982610f1e565b9050919050565b610f5981610f3e565b8114610f6457600080fd5b50565b600081359050610f7681610f50565b92915050565b600060208284031215610f9257610f91610f14565b5b6000610fa084828501610f67565b91505092915050565b600080fd5b600080fd5b6000601f19601f8301169050919050565b7f4e487b7100000000000000000000000000000000000000000000000000000000600052604160045260246000fd5b610ffc82610fb3565b810181811067ffffffffffffffff8211171561101b5761101a610fc4565b5b80604052505050565b600061102e610f0a565b905061103a8282610ff3565b919050565b600067ffffffffffffffff82111561105a57611059610fc4565b5b61106382610fb3565b9050602081019050919050565b82818337600083830152505050565b600061109261108d8461103f565b611024565b9050828152602081018484840111156110ae576110ad610fae565b5b6110b9848285611070565b509392505050565b600082601f8301126110d6576110d5610fa9565b5b81356110e684826020860161107f565b91505092915050565b60006020828403121561110557611104610f14565b5b600082013567ffffffffffffffff81111561112357611122610f19565b5b61112f848285016110c1565b91505092915050565b600081519050919050565b600082825260208201905092915050565b60005b83811015611172578082015181840152602081019050611157565b60008484015250505050565b600061118982611138565b6111938185611143565b93506111a3818560208601611154565b6111ac81610fb3565b840191505092915050565b6000819050919050565b6111ca816111b7565b82525050565b7f4e487b7100000000000000000000000000000000000000000000000000000000600052602160045260246000fd5b600381106112105761120f6111d0565b5b50565b6000819050611221826111ff565b919050565b600061123182611213565b9050919050565b61124181611226565b82525050565b61125081610f3e565b82525050565b60006080830160008301518482036000860152611273828261117e565b915050602083015161128860208601826111c1565b50604083015161129b6040860182611238565b5060608301516112ae6060860182611247565b508091505092915050565b600060208201905081810360008301526112d38184611256565b905092915050565b600080604083850312156112f2576112f1610f14565b5b600061130085828601610f67565b925050602083013567ffffffffffffffff81111561132157611320610f19565b5b61132d858286016110c1565b9150509250929050565b611340816111b7565b811461134b57600080fd5b50565b60008135905061135d81611337565b92915050565b6000806040838503121561137a57611379610f14565b5b600061138885828601610f67565b92505060206113998582860161134e565b9150509250929050565b600381106113b057600080fd5b50565b6000813590506113c2816113a3565b92915050565b600080604083850312156113df576113de610f14565b5b60006113ed85828601610f67565b92505060206113fe858286016113b3565b9150509250929050565b7f4e487b7100000000000000000000000000000000000000000000000000000000600052602260045260246000fd5b6000600282049050600182168061144f57607f821691505b60208210810361146257611461611408565b5b50919050565b60008190508160005260206000209050919050565b60006020601f8301049050919050565b600082821b905092915050565b6000600883026114ca7fffffffffffffffffffffffffffffffffffffffffffffffffffffffffffffffff8261148d565b6114d4868361148d565b95508019841693508086168417925050509392505050565b6000819050919050565b600061151161150c611507846111b7565b6114ec565b6111b7565b9050919050565b6000819050919050565b61152b836114f6565b61153f61153782611518565b84845461149a565b825550505050565b600090565b611554611547565b61155f818484611522565b505050565b5b818110156115835761157860008261154c565b600181019050611565565b5050565b601f8211156115c85761159981611468565b6115a28461147d565b810160208510156115b1578190505b6115c56115bd8561147d565b830182611564565b50505b505050565b600082821c905092915050565b60006115eb600019846008026115cd565b1980831691505092915050565b600061160483836115da565b9150826002028217905092915050565b61161d82611138565b67ffffffffffffffff81111561163657611635610fc4565b5b6116408254611437565b61164b828285611587565b600060209050601f83116001811461167e576000841561166c578287015190505b61167685826115f8565b8655506116de565b601f19841661168c86611468565b60005b828110156116b45784890151825560018201915060208501945060208101905061168f565b868310156116d157848901516116cd601f8916826115da565b8355505b6001600288020188555050505b50505050505056fea26469706673582212201bd647c043b39f1d29bcb0a1a7c897150f544e5ad2c6156e04900f29f1de233964736f6c634300081e0033a264697066735822122012fdcfa590842f81285d5789af8fc7847f8d910c7c603259f6eca6bc69732f4d64736f6c634300081e0033",
  "linkReferences": {},
  "deployedLinkReferences": {}
}