{
  "_format": "hh-sol-artifact-1",
  "contractName": "employeeFactory",
  "sourceName": "contracts/factory.sol",
  "abi": [
    {
      "inputs": [
        {
          "internalType": "address",
          "name": "owner",
          "type": "address"
        }
      ],
      "name": "createFactory",
      "outputs": [],
      "stateMutability": "nonpayable",
      "type": "function"
    },
    {
      "inputs": [],
      "name": "getAllFactories",
      "outputs": [
        {
          "internalType": "address[]",
          "name": "",
          "type": "address[]"
        }
      ],
      "stateMutability": "view",
      "type": "function"
    }
  ],
  "bytecode": "0x6080604052348015600f57600080fd5b506119e08061001f6000396000f3fe608060405234801561001057600080fd5b50600436106100365760003560e01c8063a07505981461003b578063a591121d14610059575b600080fd5b610043610075565b604051610050919061029f565b60405180910390f35b610073600480360381019061006e91906102f2565b610103565b005b606060008054806020026020016040519081016040528092919081815260200182805480156100f957602002820191906000526020600020905b8160009054906101000a900473ffffffffffffffffffffffffffffffffffffffff1673ffffffffffffffffffffffffffffffffffffffff16815260200190600101908083116100af575b5050505050905090565b600081604051610112906101a2565b61011c919061032e565b604051809103906000f080158015610138573d6000803e3d6000fd5b5090506000819080600181540180825580915050600190039060005260206000200160009091909190916101000a81548173ffffffffffffffffffffffffffffffffffffffff021916908373ffffffffffffffffffffffffffffffffffffffff1602179055505050565b6116618061034a83390190565b600081519050919050565b600082825260208201905092915050565b6000819050602082019050919050565b600073ffffffffffffffffffffffffffffffffffffffff82169050919050565b6000610206826101db565b9050919050565b610216816101fb565b82525050565b6000610228838361020d565b60208301905092915050565b6000602082019050919050565b600061024c826101af565b61025681856101ba565b9350610261836101cb565b8060005b83811015610292578151610279888261021c565b975061028483610234565b925050600181019050610265565b5085935050505092915050565b600060208201905081810360008301526102b98184610241565b905092915050565b600080fd5b6102cf816101fb565b81146102da57600080fd5b50565b6000813590506102ec816102c6565b92915050565b600060208284031215610308576103076102c1565b5b6000610316848285016102dd565b91505092915050565b610328816101fb565b82525050565b6000602082019050610343600083018461031f565b9291505056fe60806040526040516116613803806116618339818101604052810190610025919061013d565b600073ffffffffffffffffffffffffffffffffffffffff168173ffffffffffffffffffffffffffffffffffffffff1603610094576040517f08c379a000000000000000000000000000000000000000000000000000000000815260040161008b906101c7565b60405180910390fd5b806000806101000a81548173ffffffffffffffffffffffffffffffffffffffff021916908373ffffffffffffffffffffffffffffffffffffffff160217905550506101e7565b600080fd5b600073ffffffffffffffffffffffffffffffffffffffff82169050919050565b600061010a826100df565b9050919050565b61011a816100ff565b811461012557600080fd5b50565b60008151905061013781610111565b92915050565b600060208284031215610153576101526100da565b5b600061016184828501610128565b91505092915050565b600082825260208201905092915050565b7f496e76616c6964206f776e657200000000000000000000000000000000000000600082015250565b60006101b1600d8361016a565b91506101bc8261017b565b602082019050919050565b600060208201905081810360008301526101e0816101a4565b9050919050565b61146b806101f66000396000f3fe6080604052600436106100745760003560e01c8063880a3c861161004e578063880a3c86146100e3578063b96b099f1461010e578063d8bb9bb31461014b578063ea87152b146101745761007b565b80631249c58b146100805780635668cf2e1461008a57806370a08231146100a65761007b565b3661007b57005b600080fd5b61008861019d565b005b6100a4600480360381019061009f9190610ab7565b6101e2565b005b3480156100b257600080fd5b506100cd60048036038101906100c89190610af7565b61032f565b6040516100da9190610b33565b60405180910390f35b3480156100ef57600080fd5b506100f8610347565b6040516101059190610d21565b60405180910390f35b34801561011a57600080fd5b5061013560048036038101906101309190610af7565b6104a2565b6040516101429190610da6565b60405180910390f35b34801561015757600080fd5b50610172600480360381019061016d9190610efd565b6105f7565b005b34801561018057600080fd5b5061019b60048036038101906101969190610f6c565b610802565b005b600034116101e0576040517f08c379a00000000000000000000000000000000000000000000000000000000081526004016101d790611025565b60405180910390fd5b565b60008054906101000a900473ffffffffffffffffffffffffffffffffffffffff1673ffffffffffffffffffffffffffffffffffffffff163373ffffffffffffffffffffffffffffffffffffffff1614610267576040517fbf78493300000000000000000000000000000000000000000000000000000000815260040160405180910390fd5b600081116102a1576040517fbf78493300000000000000000000000000000000000000000000000000000000815260040160405180910390fd5b804710156102e4576040517f08c379a00000000000000000000000000000000000000000000000000000000081526004016102db90611091565b60405180910390fd5b8173ffffffffffffffffffffffffffffffffffffffff166108fc829081150290604051600060405180830381858888f1935050505015801561032a573d6000803e3d6000fd5b505050565b60026020528060005260406000206000915090505481565b60606003805480602002602001604051908101604052809291908181526020016000905b82821015610499578382906000526020600020906004020160405180608001604052908160008201805461039e906110e0565b80601f01602080910402602001604051908101604052809291908181526020018280546103ca906110e0565b80156104175780601f106103ec57610100808354040283529160200191610417565b820191906000526020600020905b8154815290600101906020018083116103fa57829003601f168201915b50505050508152602001600182015481526020016002820160009054906101000a900473ffffffffffffffffffffffffffffffffffffffff1673ffffffffffffffffffffffffffffffffffffffff1673ffffffffffffffffffffffffffffffffffffffff1681526020016003820154815250508152602001906001019061036b565b50505050905090565b6104aa6109d1565b600160008373ffffffffffffffffffffffffffffffffffffffff1673ffffffffffffffffffffffffffffffffffffffff168152602001908152602001600020604051806080016040529081600082018054610504906110e0565b80601f0160208091040260200160405190810160405280929190818152602001828054610530906110e0565b801561057d5780601f106105525761010080835404028352916020019161057d565b820191906000526020600020905b81548152906001019060200180831161056057829003601f168201915b50505050508152602001600182015481526020016002820160009054906101000a900473ffffffffffffffffffffffffffffffffffffffff1673ffffffffffffffffffffffffffffffffffffffff1673ffffffffffffffffffffffffffffffffffffffff1681526020016003820154815250509050919050565b3373ffffffffffffffffffffffffffffffffffffffff16600160003373ffffffffffffffffffffffffffffffffffffffff1673ffffffffffffffffffffffffffffffffffffffff16815260200190815260200160002060020160009054906101000a900473ffffffffffffffffffffffffffffffffffffffff1673ffffffffffffffffffffffffffffffffffffffff16146106be576040517fbf78493300000000000000000000000000000000000000000000000000000000815260040160405180910390fd5b82600160003373ffffffffffffffffffffffffffffffffffffffff1673ffffffffffffffffffffffffffffffffffffffff168152602001908152602001600020600001908161070d91906112bd565b5081600160003373ffffffffffffffffffffffffffffffffffffffff1673ffffffffffffffffffffffffffffffffffffffff1681526020019081526020016000206001018190555060005b6003805490508110156107fc57816003828154811061077a5761077961138f565b5b906000526020600020906004020160030154036107ef5783600382815481106107a6576107a561138f565b5b906000526020600020906004020160000190816107c391906112bd565b5082600382815481106107d9576107d861138f565b5b9060005260206000209060040201600101819055505b8080600101915050610758565b50505050565b61080a6109d1565b8281600001819052508181602001818152505033816040019073ffffffffffffffffffffffffffffffffffffffff16908173ffffffffffffffffffffffffffffffffffffffff168152505060045481606001818152505060046000815480929190610874906113ed565b919050555080600160003373ffffffffffffffffffffffffffffffffffffffff1673ffffffffffffffffffffffffffffffffffffffff16815260200190815260200160002060008201518160000190816108ce91906112bd565b506020820151816001015560408201518160020160006101000a81548173ffffffffffffffffffffffffffffffffffffffff021916908373ffffffffffffffffffffffffffffffffffffffff160217905550606082015181600301559050506003819080600181540180825580915050600190039060005260206000209060040201600090919091909150600082015181600001908161096e91906112bd565b506020820151816001015560408201518160020160006101000a81548173ffffffffffffffffffffffffffffffffffffffff021916908373ffffffffffffffffffffffffffffffffffffffff160217905550606082015181600301555050505050565b60405180608001604052806060815260200160008152602001600073ffffffffffffffffffffffffffffffffffffffff168152602001600081525090565b6000604051905090565b600080fd5b600080fd5b600073ffffffffffffffffffffffffffffffffffffffff82169050919050565b6000610a4e82610a23565b9050919050565b610a5e81610a43565b8114610a6957600080fd5b50565b600081359050610a7b81610a55565b92915050565b6000819050919050565b610a9481610a81565b8114610a9f57600080fd5b50565b600081359050610ab181610a8b565b92915050565b60008060408385031215610ace57610acd610a19565b5b6000610adc85828601610a6c565b9250506020610aed85828601610aa2565b9150509250929050565b600060208284031215610b0d57610b0c610a19565b5b6000610b1b84828501610a6c565b91505092915050565b610b2d81610a81565b82525050565b6000602082019050610b486000830184610b24565b92915050565b600081519050919050565b600082825260208201905092915050565b6000819050602082019050919050565b600081519050919050565b600082825260208201905092915050565b60005b83811015610bb4578082015181840152602081019050610b99565b60008484015250505050565b6000601f19601f8301169050919050565b6000610bdc82610b7a565b610be68185610b85565b9350610bf6818560208601610b96565b610bff81610bc0565b840191505092915050565b610c1381610a81565b82525050565b610c2281610a43565b82525050565b60006080830160008301518482036000860152610c458282610bd1565b9150506020830151610c5a6020860182610c0a565b506040830151610c6d6040860182610c19565b506060830151610c806060860182610c0a565b508091505092915050565b6000610c978383610c28565b905092915050565b6000602082019050919050565b6000610cb782610b4e565b610cc18185610b59565b935083602082028501610cd385610b6a565b8060005b85811015610d0f5784840389528151610cf08582610c8b565b9450610cfb83610c9f565b925060208a01995050600181019050610cd7565b50829750879550505050505092915050565b60006020820190508181036000830152610d3b8184610cac565b905092915050565b60006080830160008301518482036000860152610d608282610bd1565b9150506020830151610d756020860182610c0a565b506040830151610d886040860182610c19565b506060830151610d9b6060860182610c0a565b508091505092915050565b60006020820190508181036000830152610dc08184610d43565b905092915050565b600080fd5b600080fd5b7f4e487b7100000000000000000000000000000000000000000000000000000000600052604160045260246000fd5b610e0a82610bc0565b810181811067ffffffffffffffff82111715610e2957610e28610dd2565b5b80604052505050565b6000610e3c610a0f565b9050610e488282610e01565b919050565b600067ffffffffffffffff821115610e6857610e67610dd2565b5b610e7182610bc0565b9050602081019050919050565b82818337600083830152505050565b6000610ea0610e9b84610e4d565b610e32565b905082815260208101848484011115610ebc57610ebb610dcd565b5b610ec7848285610e7e565b509392505050565b600082601f830112610ee457610ee3610dc8565b5b8135610ef4848260208601610e8d565b91505092915050565b600080600060608486031215610f1657610f15610a19565b5b600084013567ffffffffffffffff811115610f3457610f33610a1e565b5b610f4086828701610ecf565b9350506020610f5186828701610aa2565b9250506040610f6286828701610aa2565b9150509250925092565b60008060408385031215610f8357610f82610a19565b5b600083013567ffffffffffffffff811115610fa157610fa0610a1e565b5b610fad85828601610ecf565b9250506020610fbe85828601610aa2565b9150509250929050565b600082825260208201905092915050565b7f4d7573742073656e642045746865720000000000000000000000000000000000600082015250565b600061100f600f83610fc8565b915061101a82610fd9565b602082019050919050565b6000602082019050818103600083015261103e81611002565b9050919050565b7f496e73756666696369656e742066756e64730000000000000000000000000000600082015250565b600061107b601283610fc8565b915061108682611045565b602082019050919050565b600060208201905081810360008301526110aa8161106e565b9050919050565b7f4e487b7100000000000000000000000000000000000000000000000000000000600052602260045260246000fd5b600060028204905060018216806110f857607f821691505b60208210810361110b5761110a6110b1565b5b50919050565b60008190508160005260206000209050919050565b60006020601f8301049050919050565b600082821b905092915050565b6000600883026111737fffffffffffffffffffffffffffffffffffffffffffffffffffffffffffffffff82611136565b61117d8683611136565b95508019841693508086168417925050509392505050565b6000819050919050565b60006111ba6111b56111b084610a81565b611195565b610a81565b9050919050565b6000819050919050565b6111d48361119f565b6111e86111e0826111c1565b848454611143565b825550505050565b600090565b6111fd6111f0565b6112088184846111cb565b505050565b5b8181101561122c576112216000826111f5565b60018101905061120e565b5050565b601f8211156112715761124281611111565b61124b84611126565b8101602085101561125a578190505b61126e61126685611126565b83018261120d565b50505b505050565b600082821c905092915050565b600061129460001984600802611276565b1980831691505092915050565b60006112ad8383611283565b9150826002028217905092915050565b6112c682610b7a565b67ffffffffffffffff8111156112df576112de610dd2565b5b6112e982546110e0565b6112f4828285611230565b600060209050601f8311600181146113275760008415611315578287015190505b61131f85826112a1565b865550611387565b601f19841661133586611111565b60005b8281101561135d57848901518255600182019150602085019450602081019050611338565b8683101561137a5784890151611376601f891682611283565b8355505b6001600288020188555050505b505050505050565b7f4e487b7100000000000000000000000000000000000000000000000000000000600052603260045260246000fd5b7f4e487b7100000000000000000000000000000000000000000000000000000000600052601160045260246000fd5b60006113f882610a81565b91507fffffffffffffffffffffffffffffffffffffffffffffffffffffffffffffffff820361142a576114296113be565b5b60018201905091905056fea2646970667358221220fb75bffa986b1027496d7b2ddd2125bf77dfc48845fddca2c13001b4dfc1345664736f6c634300081e0033a2646970667358221220f65270753b3a9a217cc48aa4c487465ba591048902a6b547e4df0930b0be2b7364736f6c634300081e0033",
  "linkReferences": {},
  "deployedLinkReferences": {}
}