{
  "_format": "hh-sol-artifact-1",
  "contractName": "SchoolManagement",
  "sourceName": "contracts/management.sol",
  "abi": [
    {
      "inputs": [],
      "stateMutability": "nonpayable",
      "type": "constructor"
    },
    {
      "inputs": [
        {
          "internalType": "address",
          "name": "_student",
          "type": "address"
        }
      ],
      "name": "checkStatus",
      "outputs": [
        {
          "internalType": "string",
          "name": "",
          "type": "string"
        }
      ],
      "stateMutability": "view",
      "type": "function"
    },
    {
      "inputs": [
        {
          "internalType": "address",
          "name": "_student",
          "type": "address"
        }
      ],
      "name": "deleteStudent",
      "outputs": [],
      "stateMutability": "nonpayable",
      "type": "function"
    },
    {
      "inputs": [],
      "name": "getAllStudents",
      "outputs": [
        {
          "components": [
            {
              "internalType": "string",
              "name": "name",
              "type": "string"
            },
            {
              "internalType": "string",
              "name": "gender",
              "type": "string"
            },
            {
              "internalType": "string",
              "name": "course",
              "type": "string"
            },
            {
              "internalType": "uint256",
              "name": "age",
              "type": "uint256"
            },
            {
              "internalType": "enum SchoolManagement.Status",
              "name": "status",
              "type": "uint8"
            }
          ],
          "internalType": "struct SchoolManagement.Student[]",
          "name": "",
          "type": "tuple[]"
        }
      ],
      "stateMutability": "view",
      "type": "function"
    },
    {
      "inputs": [
        {
          "internalType": "address",
          "name": "_student",
          "type": "address"
        }
      ],
      "name": "getStudent",
      "outputs": [
        {
          "components": [
            {
              "internalType": "string",
              "name": "name",
              "type": "string"
            },
            {
              "internalType": "string",
              "name": "gender",
              "type": "string"
            },
            {
              "internalType": "string",
              "name": "course",
              "type": "string"
            },
            {
              "internalType": "uint256",
              "name": "age",
              "type": "uint256"
            },
            {
              "internalType": "enum SchoolManagement.Status",
              "name": "status",
              "type": "uint8"
            }
          ],
          "internalType": "struct SchoolManagement.Student",
          "name": "",
          "type": "tuple"
        }
      ],
      "stateMutability": "view",
      "type": "function"
    },
    {
      "inputs": [],
      "name": "owner",
      "outputs": [
        {
          "internalType": "address",
          "name": "",
          "type": "address"
        }
      ],
      "stateMutability": "view",
      "type": "function"
    },
    {
      "inputs": [
        {
          "internalType": "string",
          "name": "_name",
          "type": "string"
        },
        {
          "internalType": "string",
          "name": "_gender",
          "type": "string"
        },
        {
          "internalType": "string",
          "name": "_course",
          "type": "string"
        },
        {
          "internalType": "uint256",
          "name": "_age",
          "type": "uint256"
        }
      ],
      "name": "registerStudent",
      "outputs": [],
      "stateMutability": "nonpayable",
      "type": "function"
    },
    {
      "inputs": [
        {
          "internalType": "uint256",
          "name": "",
          "type": "uint256"
        }
      ],
      "name": "studentAddresses",
      "outputs": [
        {
          "internalType": "address",
          "name": "",
          "type": "address"
        }
      ],
      "stateMutability": "view",
      "type": "function"
    },
    {
      "inputs": [
        {
          "internalType": "address",
          "name": "",
          "type": "address"
        }
      ],
      "name": "students",
      "outputs": [
        {
          "internalType": "string",
          "name": "name",
          "type": "string"
        },
        {
          "internalType": "string",
          "name": "gender",
          "type": "string"
        },
        {
          "internalType": "string",
          "name": "course",
          "type": "string"
        },
        {
          "internalType": "uint256",
          "name": "age",
          "type": "uint256"
        },
        {
          "internalType": "enum SchoolManagement.Status",
          "name": "status",
          "type": "uint8"
        }
      ],
      "stateMutability": "view",
      "type": "function"
    },
    {
      "inputs": [
        {
          "internalType": "string",
          "name": "_name",
          "type": "string"
        },
        {
          "internalType": "string",
          "name": "_gender",
          "type": "string"
        },
        {
          "internalType": "string",
          "name": "_course",
          "type": "string"
        },
        {
          "internalType": "uint256",
          "name": "_age",
          "type": "uint256"
        }
      ],
      "name": "updateInfo",
      "outputs": [],
      "stateMutability": "nonpayable",
      "type": "function"
    },
    {
      "inputs": [
        {
          "internalType": "address",
          "name": "_student",
          "type": "address"
        },
        {
          "internalType": "enum SchoolManagement.Status",
          "name": "_newStatus",
          "type": "uint8"
        }
      ],
      "name": "updateStatus",
      "outputs": [],
      "stateMutability": "nonpayable",
      "type": "function"
    }
  ],
  "bytecode": "0x6080604052348015600f57600080fd5b50336000806101000a81548173ffffffffffffffffffffffffffffffffffffffff021916908373ffffffffffffffffffffffffffffffffffffffff160217905550611e238061005f6000396000f3fe608060405234801561001057600080fd5b506004361061009e5760003560e01c80638da5cb5b116100665780638da5cb5b146101575780639b8de62814610175578063a6c807a914610191578063b5ab682d146101c5578063e9e30927146101f55761009e565b80632d03448b146100a3578063340190ec146100bf57806344c5bbf8146100ef5780636b7b44d71461010b578063730bcc5d1461013b575b600080fd5b6100bd60048036038101906100b891906113db565b610213565b005b6100d960048036038101906100d491906114f4565b610374565b6040516100e691906115a0565b60405180910390f35b610109600480360381019061010491906115e7565b610506565b005b610125600480360381019061012091906114f4565b610695565b604051610132919061177b565b60405180910390f35b610155600480360381019061015091906114f4565b61097c565b005b61015f610b2e565b60405161016c91906117ac565b60405180910390f35b61018f600480360381019061018a91906113db565b610b52565b005b6101ab60048036038101906101a691906114f4565b610c6e565b6040516101bc9594939291906117e5565b60405180910390f35b6101df60048036038101906101da919061184d565b610e49565b6040516101ec91906117ac565b60405180910390f35b6101fd610e88565b60405161020a91906119c0565b60405180910390f35b6040518060a001604052808581526020018481526020018381526020018281526020016000600181111561024a57610249611680565b5b815250600160003373ffffffffffffffffffffffffffffffffffffffff1673ffffffffffffffffffffffffffffffffffffffff16815260200190815260200160002060008201518160000190816102a19190611bee565b5060208201518160010190816102b79190611bee565b5060408201518160020190816102cd9190611bee565b506060820151816003015560808201518160040160006101000a81548160ff0219169083600181111561030357610302611680565b5b02179055509050506002339080600181540180825580915050600190039060005260206000200160009091909190916101000a81548173ffffffffffffffffffffffffffffffffffffffff021916908373ffffffffffffffffffffffffffffffffffffffff16021790555050505050565b6060816000600160008373ffffffffffffffffffffffffffffffffffffffff1673ffffffffffffffffffffffffffffffffffffffff16815260200190815260200160002060000180546103c690611a11565b905011610408576040517f08c379a00000000000000000000000000000000000000000000000000000000081526004016103ff90611d0c565b60405180910390fd5b6000600160008573ffffffffffffffffffffffffffffffffffffffff1673ffffffffffffffffffffffffffffffffffffffff16815260200190815260200160002060040160009054906101000a900460ff169050600060018111156104705761046f611680565b5b81600181111561048357610482611680565b5b036104c6576040518060400160405280600681526020017f4163746976650000000000000000000000000000000000000000000000000000815250925050610500565b6040518060400160405280600a81526020017f52757374696361746564000000000000000000000000000000000000000000008152509250505b50919050565b60008054906101000a900473ffffffffffffffffffffffffffffffffffffffff1673ffffffffffffffffffffffffffffffffffffffff163373ffffffffffffffffffffffffffffffffffffffff1614610594576040517f08c379a000000000000000000000000000000000000000000000000000000000815260040161058b90611d9e565b60405180910390fd5b816000600160008373ffffffffffffffffffffffffffffffffffffffff1673ffffffffffffffffffffffffffffffffffffffff16815260200190815260200160002060000180546105e490611a11565b905011610626576040517f08c379a000000000000000000000000000000000000000000000000000000000815260040161061d90611d0c565b60405180910390fd5b81600160008573ffffffffffffffffffffffffffffffffffffffff1673ffffffffffffffffffffffffffffffffffffffff16815260200190815260200160002060040160006101000a81548160ff0219169083600181111561068b5761068a611680565b5b0217905550505050565b61069d6111ad565b816000600160008373ffffffffffffffffffffffffffffffffffffffff1673ffffffffffffffffffffffffffffffffffffffff16815260200190815260200160002060000180546106ed90611a11565b90501161072f576040517f08c379a000000000000000000000000000000000000000000000000000000000815260040161072690611d0c565b60405180910390fd5b600160008473ffffffffffffffffffffffffffffffffffffffff1673ffffffffffffffffffffffffffffffffffffffff1681526020019081526020016000206040518060a001604052908160008201805461078990611a11565b80601f01602080910402602001604051908101604052809291908181526020018280546107b590611a11565b80156108025780601f106107d757610100808354040283529160200191610802565b820191906000526020600020905b8154815290600101906020018083116107e557829003601f168201915b5050505050815260200160018201805461081b90611a11565b80601f016020809104026020016040519081016040528092919081815260200182805461084790611a11565b80156108945780601f1061086957610100808354040283529160200191610894565b820191906000526020600020905b81548152906001019060200180831161087757829003601f168201915b505050505081526020016002820180546108ad90611a11565b80601f01602080910402602001604051908101604052809291908181526020018280546108d990611a11565b80156109265780601f106108fb57610100808354040283529160200191610926565b820191906000526020600020905b81548152906001019060200180831161090957829003601f168201915b50505050508152602001600382015481526020016004820160009054906101000a900460ff16600181111561095e5761095d611680565b5b60018111156109705761096f611680565b5b81525050915050919050565b60008054906101000a900473ffffffffffffffffffffffffffffffffffffffff1673ffffffffffffffffffffffffffffffffffffffff163373ffffffffffffffffffffffffffffffffffffffff1614610a0a576040517f08c379a0000000000000000000000000000000000000000000000000000000008152600401610a0190611d9e565b60405180910390fd5b806000600160008373ffffffffffffffffffffffffffffffffffffffff1673ffffffffffffffffffffffffffffffffffffffff1681526020019081526020016000206000018054610a5a90611a11565b905011610a9c576040517f08c379a0000000000000000000000000000000000000000000000000000000008152600401610a9390611d0c565b60405180910390fd5b600160008373ffffffffffffffffffffffffffffffffffffffff1673ffffffffffffffffffffffffffffffffffffffff16815260200190815260200160002060008082016000610aec91906111ee565b600182016000610afc91906111ee565b600282016000610b0c91906111ee565b60038201600090556004820160006101000a81549060ff021916905550505050565b60008054906101000a900473ffffffffffffffffffffffffffffffffffffffff1681565b336000600160008373ffffffffffffffffffffffffffffffffffffffff1673ffffffffffffffffffffffffffffffffffffffff1681526020019081526020016000206000018054610ba290611a11565b905011610be4576040517f08c379a0000000000000000000000000000000000000000000000000000000008152600401610bdb90611d0c565b60405180910390fd5b6000600160003373ffffffffffffffffffffffffffffffffffffffff1673ffffffffffffffffffffffffffffffffffffffff168152602001908152602001600020905085816000019081610c389190611bee565b5084816001019081610c4a9190611bee565b5083816002019081610c5c9190611bee565b50828160030181905550505050505050565b6001602052806000526040600020600091509050806000018054610c9190611a11565b80601f0160208091040260200160405190810160405280929190818152602001828054610cbd90611a11565b8015610d0a5780601f10610cdf57610100808354040283529160200191610d0a565b820191906000526020600020905b815481529060010190602001808311610ced57829003601f168201915b505050505090806001018054610d1f90611a11565b80601f0160208091040260200160405190810160405280929190818152602001828054610d4b90611a11565b8015610d985780601f10610d6d57610100808354040283529160200191610d98565b820191906000526020600020905b815481529060010190602001808311610d7b57829003601f168201915b505050505090806002018054610dad90611a11565b80601f0160208091040260200160405190810160405280929190818152602001828054610dd990611a11565b8015610e265780601f10610dfb57610100808354040283529160200191610e26565b820191906000526020600020905b815481529060010190602001808311610e0957829003601f168201915b5050505050908060030154908060040160009054906101000a900460ff16905085565b60028181548110610e5957600080fd5b906000526020600020016000915054906101000a900473ffffffffffffffffffffffffffffffffffffffff1681565b6060600060028054905067ffffffffffffffff811115610eab57610eaa61127a565b5b604051908082528060200260200182016040528015610ee457816020015b610ed16111ad565b815260200190600190039081610ec95790505b50905060005b6002805490508110156111a5576001600060028381548110610f0f57610f0e611dbe565b5b9060005260206000200160009054906101000a900473ffffffffffffffffffffffffffffffffffffffff1673ffffffffffffffffffffffffffffffffffffffff1673ffffffffffffffffffffffffffffffffffffffff1681526020019081526020016000206040518060a0016040529081600082018054610f8f90611a11565b80601f0160208091040260200160405190810160405280929190818152602001828054610fbb90611a11565b80156110085780601f10610fdd57610100808354040283529160200191611008565b820191906000526020600020905b815481529060010190602001808311610feb57829003601f168201915b5050505050815260200160018201805461102190611a11565b80601f016020809104026020016040519081016040528092919081815260200182805461104d90611a11565b801561109a5780601f1061106f5761010080835404028352916020019161109a565b820191906000526020600020905b81548152906001019060200180831161107d57829003601f168201915b505050505081526020016002820180546110b390611a11565b80601f01602080910402602001604051908101604052809291908181526020018280546110df90611a11565b801561112c5780601f106111015761010080835404028352916020019161112c565b820191906000526020600020905b81548152906001019060200180831161110f57829003601f168201915b50505050508152602001600382015481526020016004820160009054906101000a900460ff16600181111561116457611163611680565b5b600181111561117657611175611680565b5b8152505082828151811061118d5761118c611dbe565b5b60200260200101819052508080600101915050610eea565b508091505090565b6040518060a0016040528060608152602001606081526020016060815260200160008152602001600060018111156111e8576111e7611680565b5b81525090565b5080546111fa90611a11565b6000825580601f1061120c575061122b565b601f01602090049060005260206000209081019061122a919061122e565b5b50565b5b8082111561124757600081600090555060010161122f565b5090565b6000604051905090565b600080fd5b600080fd5b600080fd5b600080fd5b6000601f19601f8301169050919050565b7f4e487b7100000000000000000000000000000000000000000000000000000000600052604160045260246000fd5b6112b282611269565b810181811067ffffffffffffffff821117156112d1576112d061127a565b5b80604052505050565b60006112e461124b565b90506112f082826112a9565b919050565b600067ffffffffffffffff8211156113105761130f61127a565b5b61131982611269565b9050602081019050919050565b82818337600083830152505050565b6000611348611343846112f5565b6112da565b90508281526020810184848401111561136457611363611264565b5b61136f848285611326565b509392505050565b600082601f83011261138c5761138b61125f565b5b813561139c848260208601611335565b91505092915050565b6000819050919050565b6113b8816113a5565b81146113c357600080fd5b50565b6000813590506113d5816113af565b92915050565b600080600080608085870312156113f5576113f4611255565b5b600085013567ffffffffffffffff8111156114135761141261125a565b5b61141f87828801611377565b945050602085013567ffffffffffffffff8111156114405761143f61125a565b5b61144c87828801611377565b935050604085013567ffffffffffffffff81111561146d5761146c61125a565b5b61147987828801611377565b925050606061148a878288016113c6565b91505092959194509250565b600073ffffffffffffffffffffffffffffffffffffffff82169050919050565b60006114c182611496565b9050919050565b6114d1816114b6565b81146114dc57600080fd5b50565b6000813590506114ee816114c8565b92915050565b60006020828403121561150a57611509611255565b5b6000611518848285016114df565b91505092915050565b600081519050919050565b600082825260208201905092915050565b60005b8381101561155b578082015181840152602081019050611540565b60008484015250505050565b600061157282611521565b61157c818561152c565b935061158c81856020860161153d565b61159581611269565b840191505092915050565b600060208201905081810360008301526115ba8184611567565b905092915050565b600281106115cf57600080fd5b50565b6000813590506115e1816115c2565b92915050565b600080604083850312156115fe576115fd611255565b5b600061160c858286016114df565b925050602061161d858286016115d2565b9150509250929050565b600082825260208201905092915050565b600061164382611521565b61164d8185611627565b935061165d81856020860161153d565b61166681611269565b840191505092915050565b61167a816113a5565b82525050565b7f4e487b7100000000000000000000000000000000000000000000000000000000600052602160045260246000fd5b600281106116c0576116bf611680565b5b50565b60008190506116d1826116af565b919050565b60006116e1826116c3565b9050919050565b6116f1816116d6565b82525050565b600060a08301600083015184820360008601526117148282611638565b9150506020830151848203602086015261172e8282611638565b915050604083015184820360408601526117488282611638565b915050606083015161175d6060860182611671565b50608083015161177060808601826116e8565b508091505092915050565b6000602082019050818103600083015261179581846116f7565b905092915050565b6117a6816114b6565b82525050565b60006020820190506117c1600083018461179d565b92915050565b6117d0816113a5565b82525050565b6117df816116d6565b82525050565b600060a08201905081810360008301526117ff8188611567565b905081810360208301526118138187611567565b905081810360408301526118278186611567565b905061183660608301856117c7565b61184360808301846117d6565b9695505050505050565b60006020828403121561186357611862611255565b5b6000611871848285016113c6565b91505092915050565b600081519050919050565b600082825260208201905092915050565b6000819050602082019050919050565b600060a08301600083015184820360008601526118c38282611638565b915050602083015184820360208601526118dd8282611638565b915050604083015184820360408601526118f78282611638565b915050606083015161190c6060860182611671565b50608083015161191f60808601826116e8565b508091505092915050565b600061193683836118a6565b905092915050565b6000602082019050919050565b60006119568261187a565b6119608185611885565b93508360208202850161197285611896565b8060005b858110156119ae578484038952815161198f858261192a565b945061199a8361193e565b925060208a01995050600181019050611976565b50829750879550505050505092915050565b600060208201905081810360008301526119da818461194b565b905092915050565b7f4e487b7100000000000000000000000000000000000000000000000000000000600052602260045260246000fd5b60006002820490506001821680611a2957607f821691505b602082108103611a3c57611a3b6119e2565b5b50919050565b60008190508160005260206000209050919050565b60006020601f8301049050919050565b600082821b905092915050565b600060088302611aa47fffffffffffffffffffffffffffffffffffffffffffffffffffffffffffffffff82611a67565b611aae8683611a67565b95508019841693508086168417925050509392505050565b6000819050919050565b6000611aeb611ae6611ae1846113a5565b611ac6565b6113a5565b9050919050565b6000819050919050565b611b0583611ad0565b611b19611b1182611af2565b848454611a74565b825550505050565b600090565b611b2e611b21565b611b39818484611afc565b505050565b5b81811015611b5d57611b52600082611b26565b600181019050611b3f565b5050565b601f821115611ba257611b7381611a42565b611b7c84611a57565b81016020851015611b8b578190505b611b9f611b9785611a57565b830182611b3e565b50505b505050565b600082821c905092915050565b6000611bc560001984600802611ba7565b1980831691505092915050565b6000611bde8383611bb4565b9150826002028217905092915050565b611bf782611521565b67ffffffffffffffff811115611c1057611c0f61127a565b5b611c1a8254611a11565b611c25828285611b61565b600060209050601f831160018114611c585760008415611c46578287015190505b611c508582611bd2565b865550611cb8565b601f198416611c6686611a42565b60005b82811015611c8e57848901518255600182019150602085019450602081019050611c69565b86831015611cab5784890151611ca7601f891682611bb4565b8355505b6001600288020188555050505b505050505050565b7f53747564656e74206e6f7420666f756e64000000000000000000000000000000600082015250565b6000611cf660118361152c565b9150611d0182611cc0565b602082019050919050565b60006020820190508181036000830152611d2581611ce9565b9050919050565b7f4f6e6c792061646d696e2063616e20706572666f726d2074686973206163746960008201527f6f6e000000000000000000000000000000000000000000000000000000000000602082015250565b6000611d8860228361152c565b9150611d9382611d2c565b604082019050919050565b60006020820190508181036000830152611db781611d7b565b9050919050565b7f4e487b7100000000000000000000000000000000000000000000000000000000600052603260045260246000fdfea26469706673582212202387375807dea250823c52f58641d531e92b7950d9e14fa4896b52594233165164736f6c634300081e0033",
  "linkReferences": {},
  "deployedLinkReferences": {}
}