{
  "_format": "hh-sol-artifact-1",
  "contractName": "Lottery",
  "sourceName": "contracts/Lottery.sol",
  "abi": [
    {
      "inputs": [],
      "stateMutability": "nonpayable",
      "type": "constructor"
    },
    {
      "anonymous": false,
      "inputs": [
        {
          "indexed": false,
          "internalType": "address",
          "name": "player",
          "type": "address"
        }
      ],
      "name": "PlayerJoined",
      "type": "event"
    },
    {
      "anonymous": false,
      "inputs": [
        {
          "indexed": false,
          "internalType": "address",
          "name": "winner",
          "type": "address"
        },
        {
          "indexed": false,
          "internalType": "uint256",
          "name": "amount",
          "type": "uint256"
        }
      ],
      "name": "WinnerSelected",
      "type": "event"
    },
    {
      "inputs": [],
      "name": "enter",
      "outputs": [],
      "stateMutability": "payable",
      "type": "function"
    },
    {
      "inputs": [],
      "name": "entryFee",
      "outputs": [
        {
          "internalType": "uint256",
          "name": "",
          "type": "uint256"
        }
      ],
      "stateMutability": "view",
      "type": "function"
    },
    {
      "inputs": [],
      "name": "getBalance",
      "outputs": [
        {
          "internalType": "uint256",
          "name": "",
          "type": "uint256"
        }
      ],
      "stateMutability": "view",
      "type": "function"
    },
    {
      "inputs": [],
      "name": "getPlayerCount",
      "outputs": [
        {
          "internalType": "uint256",
          "name": "",
          "type": "uint256"
        }
      ],
      "stateMutability": "view",
      "type": "function"
    },
    {
      "inputs": [],
      "name": "getPlayers",
      "outputs": [
        {
          "internalType": "address[]",
          "name": "",
          "type": "address[]"
        }
      ],
      "stateMutability": "view",
      "type": "function"
    },
    {
      "inputs": [],
      "name": "maxPlayers",
      "outputs": [
        {
          "internalType": "uint256",
          "name": "",
          "type": "uint256"
        }
      ],
      "stateMutability": "view",
      "type": "function"
    },
    {
      "inputs": [],
      "name": "owner",
      "outputs": [
        {
          "internalType": "address",
          "name": "",
          "type": "address"
        }
      ],
      "stateMutability": "view",
      "type": "function"
    },
    {
      "inputs": [
        {
          "internalType": "uint256",
          "name": "",
          "type": "uint256"
        }
      ],
      "name": "players",
      "outputs": [
        {
          "internalType": "address",
          "name": "",
          "type": "address"
        }
      ],
      "stateMutability": "view",
      "type": "function"
    }
  ],
  "bytecode": "0x6080604052662386f26fc10000600255600a600355348015601f57600080fd5b50336000806101000a81548173ffffffffffffffffffffffffffffffffffffffff021916908373ffffffffffffffffffffffffffffffffffffffff160217905550610cb48061006f6000396000f3fe60806040526004361061007b5760003560e01c80638da5cb5b1161004e5780638da5cb5b1461012c578063c2e5220614610157578063e97dcb6214610182578063f71d96cb1461018c5761007b565b8063072ea61c1461008057806312065fe0146100ab5780634c2412a2146100d65780638b5b9ccc14610101575b600080fd5b34801561008c57600080fd5b506100956101c9565b6040516100a29190610715565b60405180910390f35b3480156100b757600080fd5b506100c06101cf565b6040516100cd9190610715565b60405180910390f35b3480156100e257600080fd5b506100eb6101d7565b6040516100f89190610715565b60405180910390f35b34801561010d57600080fd5b506101166101dd565b6040516101239190610820565b60405180910390f35b34801561013857600080fd5b5061014161026b565b60405161014e9190610851565b60405180910390f35b34801561016357600080fd5b5061016c61028f565b6040516101799190610715565b60405180910390f35b61018a61029c565b005b34801561019857600080fd5b506101b360048036038101906101ae919061089d565b6104a6565b6040516101c09190610851565b60405180910390f35b60025481565b600047905090565b60035481565b6060600180548060200260200160405190810160405280929190818152602001828054801561026157602002820191906000526020600020905b8160009054906101000a900473ffffffffffffffffffffffffffffffffffffffff1673ffffffffffffffffffffffffffffffffffffffff1681526020019060010190808311610217575b5050505050905090565b60008054906101000a900473ffffffffffffffffffffffffffffffffffffffff1681565b6000600180549050905090565b60025434146102e0576040517f08c379a00000000000000000000000000000000000000000000000000000000081526004016102d790610927565b60405180910390fd5b60035460018054905010610329576040517f08c379a000000000000000000000000000000000000000000000000000000000815260040161032090610993565b60405180910390fd5b60005b6001805490508110156103f2573373ffffffffffffffffffffffffffffffffffffffff1660018281548110610364576103636109b3565b5b9060005260206000200160009054906101000a900473ffffffffffffffffffffffffffffffffffffffff1673ffffffffffffffffffffffffffffffffffffffff16036103e5576040517f08c379a00000000000000000000000000000000000000000000000000000000081526004016103dc90610a2e565b60405180910390fd5b808060010191505061032c565b506001339080600181540180825580915050600190039060005260206000200160009091909190916101000a81548173ffffffffffffffffffffffffffffffffffffffff021916908373ffffffffffffffffffffffffffffffffffffffff1602179055507f31e760aa525306aba638a784082a013b6a1cc0a9a1789f3f22281c0453b10b1f336040516104859190610851565b60405180910390a1600354600180549050036104a4576104a36104e5565b5b565b600181815481106104b657600080fd5b906000526020600020016000915054906101000a900473ffffffffffffffffffffffffffffffffffffffff1681565b60006001805490504244600160405160200161050393929190610b8d565b6040516020818303038152906040528051906020012060001c6105269190610bf5565b905060006001828154811061053e5761053d6109b3565b5b9060005260206000200160009054906101000a900473ffffffffffffffffffffffffffffffffffffffff16905060004790508173ffffffffffffffffffffffffffffffffffffffff166108fc829081150290604051600060405180830381858888f193505050501580156105b6573d6000803e3d6000fd5b507f75060f9e79552df167b73353fee6237a75bb5ba8ea022f77224e32f152138bcb82826040516105e8929190610c26565b60405180910390a1600067ffffffffffffffff81111561060b5761060a610c4f565b5b6040519080825280602002602001820160405280156106395781602001602082028036833780820191505090505b506001908051906020019061064f929190610655565b50505050565b8280548282559060005260206000209081019282156106ce579160200282015b828111156106cd5782518260006101000a81548173ffffffffffffffffffffffffffffffffffffffff021916908373ffffffffffffffffffffffffffffffffffffffff16021790555091602001919060010190610675565b5b5090506106db91906106df565b5090565b5b808211156106f85760008160009055506001016106e0565b5090565b6000819050919050565b61070f816106fc565b82525050565b600060208201905061072a6000830184610706565b92915050565b600081519050919050565b600082825260208201905092915050565b6000819050602082019050919050565b600073ffffffffffffffffffffffffffffffffffffffff82169050919050565b60006107878261075c565b9050919050565b6107978161077c565b82525050565b60006107a9838361078e565b60208301905092915050565b6000602082019050919050565b60006107cd82610730565b6107d7818561073b565b93506107e28361074c565b8060005b838110156108135781516107fa888261079d565b9750610805836107b5565b9250506001810190506107e6565b5085935050505092915050565b6000602082019050818103600083015261083a81846107c2565b905092915050565b61084b8161077c565b82525050565b60006020820190506108666000830184610842565b92915050565b600080fd5b61087a816106fc565b811461088557600080fd5b50565b60008135905061089781610871565b92915050565b6000602082840312156108b3576108b261086c565b5b60006108c184828501610888565b91505092915050565b600082825260208201905092915050565b7f57726f6e6720656e747279206665650000000000000000000000000000000000600082015250565b6000610911600f836108ca565b915061091c826108db565b602082019050919050565b6000602082019050818103600083015261094081610904565b9050919050565b7f4c6f74746572792069732066756c6c0000000000000000000000000000000000600082015250565b600061097d600f836108ca565b915061098882610947565b602082019050919050565b600060208201905081810360008301526109ac81610970565b9050919050565b7f4e487b7100000000000000000000000000000000000000000000000000000000600052603260045260246000fd5b7f416c726561647920656e74657265640000000000000000000000000000000000600082015250565b6000610a18600f836108ca565b9150610a23826109e2565b602082019050919050565b60006020820190508181036000830152610a4781610a0b565b9050919050565b6000819050919050565b610a69610a64826106fc565b610a4e565b82525050565b600081549050919050565b600081905092915050565b60008190508160005260206000209050919050565b610aa38161077c565b82525050565b6000610ab58383610a9a565b60208301905092915050565b60008160001c9050919050565b600073ffffffffffffffffffffffffffffffffffffffff82169050919050565b6000610b01610afc83610ac1565b610ace565b9050919050565b6000610b148254610aee565b9050919050565b6000600182019050919050565b6000610b3382610a6f565b610b3d8185610a7a565b9350610b4883610a85565b8060005b83811015610b8057610b5d82610b08565b610b678882610aa9565b9750610b7283610b1b565b925050600181019050610b4c565b5085935050505092915050565b6000610b998286610a58565b602082019150610ba98285610a58565b602082019150610bb98284610b28565b9150819050949350505050565b7f4e487b7100000000000000000000000000000000000000000000000000000000600052601260045260246000fd5b6000610c00826106fc565b9150610c0b836106fc565b925082610c1b57610c1a610bc6565b5b828206905092915050565b6000604082019050610c3b6000830185610842565b610c486020830184610706565b9392505050565b7f4e487b7100000000000000000000000000000000000000000000000000000000600052604160045260246000fdfea2646970667358221220e2c725310eb9157738a714674f6c77f89bd9c6437aa6abf0f0cb3eacb4f04f0e64736f6c634300081c0033",
  "linkReferences": {},
  "deployedLinkReferences": {}
}