{
  "_format": "hh-sol-artifact-1",
  "contractName": "SchoolManagementSystem",
  "sourceName": "contracts/School.sol",
  "abi": [
    {
      "inputs": [],
      "name": "INVALID_ID",
      "type": "error"
    },
    {
      "inputs": [],
      "name": "INVALID_SENDER",
      "type": "error"
    },
    {
      "inputs": [],
      "name": "STUDENT_NOT_FOUND",
      "type": "error"
    },
    {
      "inputs": [
        {
          "components": [
            {
              "internalType": "uint256",
              "name": "id",
              "type": "uint256"
            },
            {
              "internalType": "string",
              "name": "name",
              "type": "string"
            },
            {
              "internalType": "string",
              "name": "course",
              "type": "string"
            },
            {
              "internalType": "uint256",
              "name": "age",
              "type": "uint256"
            },
            {
              "internalType": "enum SchoolManagementSystem.Status",
              "name": "status",
              "type": "uint8"
            },
            {
              "internalType": "address",
              "name": "owner",
              "type": "address"
            }
          ],
          "internalType": "struct SchoolManagementSystem.StudentDetails",
          "name": "details",
          "type": "tuple"
        }
      ],
      "name": "another_registration",
      "outputs": [],
      "stateMutability": "nonpayable",
      "type": "function"
    },
    {
      "inputs": [
        {
          "internalType": "uint256",
          "name": "_student_id",
          "type": "uint256"
        }
      ],
      "name": "delete_student",
      "outputs": [],
      "stateMutability": "nonpayable",
      "type": "function"
    },
    {
      "inputs": [],
      "name": "get_all_students",
      "outputs": [
        {
          "components": [
            {
              "internalType": "uint256",
              "name": "id",
              "type": "uint256"
            },
            {
              "internalType": "string",
              "name": "name",
              "type": "string"
            },
            {
              "internalType": "string",
              "name": "course",
              "type": "string"
            },
            {
              "internalType": "uint256",
              "name": "age",
              "type": "uint256"
            },
            {
              "internalType": "enum SchoolManagementSystem.Status",
              "name": "status",
              "type": "uint8"
            },
            {
              "internalType": "address",
              "name": "owner",
              "type": "address"
            }
          ],
          "internalType": "struct SchoolManagementSystem.StudentDetails[]",
          "name": "",
          "type": "tuple[]"
        }
      ],
      "stateMutability": "view",
      "type": "function"
    },
    {
      "inputs": [
        {
          "internalType": "address",
          "name": "_studentAddress",
          "type": "address"
        }
      ],
      "name": "get_student_by_address",
      "outputs": [
        {
          "components": [
            {
              "internalType": "uint256",
              "name": "id",
              "type": "uint256"
            },
            {
              "internalType": "string",
              "name": "name",
              "type": "string"
            },
            {
              "internalType": "string",
              "name": "course",
              "type": "string"
            },
            {
              "internalType": "uint256",
              "name": "age",
              "type": "uint256"
            },
            {
              "internalType": "enum SchoolManagementSystem.Status",
              "name": "status",
              "type": "uint8"
            },
            {
              "internalType": "address",
              "name": "owner",
              "type": "address"
            }
          ],
          "internalType": "struct SchoolManagementSystem.StudentDetails",
          "name": "",
          "type": "tuple"
        }
      ],
      "stateMutability": "view",
      "type": "function"
    },
    {
      "inputs": [
        {
          "internalType": "uint256",
          "name": "_student_id",
          "type": "uint256"
        }
      ],
      "name": "get_student_by_id",
      "outputs": [
        {
          "components": [
            {
              "internalType": "uint256",
              "name": "id",
              "type": "uint256"
            },
            {
              "internalType": "string",
              "name": "name",
              "type": "string"
            },
            {
              "internalType": "string",
              "name": "course",
              "type": "string"
            },
            {
              "internalType": "uint256",
              "name": "age",
              "type": "uint256"
            },
            {
              "internalType": "enum SchoolManagementSystem.Status",
              "name": "status",
              "type": "uint8"
            },
            {
              "internalType": "address",
              "name": "owner",
              "type": "address"
            }
          ],
          "internalType": "struct SchoolManagementSystem.StudentDetails",
          "name": "",
          "type": "tuple"
        }
      ],
      "stateMutability": "view",
      "type": "function"
    },
    {
      "inputs": [
        {
          "internalType": "string",
          "name": "_name",
          "type": "string"
        },
        {
          "internalType": "string",
          "name": "_course",
          "type": "string"
        },
        {
          "internalType": "uint256",
          "name": "_age",
          "type": "uint256"
        }
      ],
      "name": "register_student",
      "outputs": [],
      "stateMutability": "nonpayable",
      "type": "function"
    },
    {
      "inputs": [
        {
          "internalType": "address",
          "name": "",
          "type": "address"
        }
      ],
      "name": "student_details",
      "outputs": [
        {
          "internalType": "uint256",
          "name": "id",
          "type": "uint256"
        },
        {
          "internalType": "string",
          "name": "name",
          "type": "string"
        },
        {
          "internalType": "string",
          "name": "course",
          "type": "string"
        },
        {
          "internalType": "uint256",
          "name": "age",
          "type": "uint256"
        },
        {
          "internalType": "enum SchoolManagementSystem.Status",
          "name": "status",
          "type": "uint8"
        },
        {
          "internalType": "address",
          "name": "owner",
          "type": "address"
        }
      ],
      "stateMutability": "view",
      "type": "function"
    },
    {
      "inputs": [
        {
          "internalType": "uint256",
          "name": "",
          "type": "uint256"
        }
      ],
      "name": "students",
      "outputs": [
        {
          "internalType": "uint256",
          "name": "id",
          "type": "uint256"
        },
        {
          "internalType": "string",
          "name": "name",
          "type": "string"
        },
        {
          "internalType": "string",
          "name": "course",
          "type": "string"
        },
        {
          "internalType": "uint256",
          "name": "age",
          "type": "uint256"
        },
        {
          "internalType": "enum SchoolManagementSystem.Status",
          "name": "status",
          "type": "uint8"
        },
        {
          "internalType": "address",
          "name": "owner",
          "type": "address"
        }
      ],
      "stateMutability": "view",
      "type": "function"
    },
    {
      "inputs": [
        {
          "internalType": "uint256",
          "name": "_student_id",
          "type": "uint256"
        },
        {
          "internalType": "string",
          "name": "_new_name",
          "type": "string"
        }
      ],
      "name": "update_student",
      "outputs": [],
      "stateMutability": "nonpayable",
      "type": "function"
    },
    {
      "inputs": [
        {
          "internalType": "address",
          "name": "_studentAddress",
          "type": "address"
        },
        {
          "internalType": "string",
          "name": "_new_name",
          "type": "string"
        }
      ],
      "name": "update_student_by_address",
      "outputs": [],
      "stateMutability": "nonpayable",
      "type": "function"
    },
    {
      "inputs": [
        {
          "internalType": "uint256",
          "name": "_student_id",
          "type": "uint256"
        },
        {
          "internalType": "enum SchoolManagementSystem.Status",
          "name": "_new_status",
          "type": "uint8"
        }
      ],
      "name": "update_students_status",
      "outputs": [],
      "stateMutability": "nonpayable",
      "type": "function"
    },
    {
      "inputs": [
        {
          "internalType": "address",
          "name": "_studentAddress",
          "type": "address"
        },
        {
          "internalType": "enum SchoolManagementSystem.Status",
          "name": "_new_status",
          "type": "uint8"
        }
      ],
      "name": "update_students_status_by_address",
      "outputs": [],
      "stateMutability": "nonpayable",
      "type": "function"
    }
  ],
  "bytecode": "0x6080604052348015600f57600080fd5b5061254e8061001f6000396000f3fe608060405234801561001057600080fd5b50600436106100b45760003560e01c80633f09a538116100715780633f09a5381461019557806376f7fa5c146101b15780638f3354fe146101cd578063c26294ba146101fd578063c9b729271461022d578063d68250c014610249576100b4565b806306ead22e146100b957806315c5f3e3146100ee5780632714b0621461010a5780632773a286146101265780632c61b4a1146101425780633ab9a9ec14610177575b600080fd5b6100d360048036038101906100ce91906116aa565b610265565b6040516100e59695949392919061182e565b60405180910390f35b610108600480360381019061010391906118c2565b6103ee565b005b610124600480360381019061011f9190611b45565b610509565b005b610140600480360381019061013b9190611b8e565b61066b565b005b61015c60048036038101906101579190611bea565b6106ed565b60405161016e9695949392919061182e565b60405180910390f35b61017f610866565b60405161018c9190611de0565b60405180910390f35b6101af60048036038101906101aa91906116aa565b610a8e565b005b6101cb60048036038101906101c69190611e02565b610ce3565b005b6101e760048036038101906101e291906116aa565b610d84565b6040516101f49190611ed2565b60405180910390f35b61021760048036038101906102129190611bea565b610fda565b6040516102249190611ed2565b60405180910390f35b61024760048036038101906102429190611ef4565b611234565b005b610263600480360381019061025e9190611f7f565b611488565b005b6002818154811061027557600080fd5b906000526020600020906005020160009150905080600001549080600101805461029e9061200a565b80601f01602080910402602001604051908101604052809291908181526020018280546102ca9061200a565b80156103175780601f106102ec57610100808354040283529160200191610317565b820191906000526020600020905b8154815290600101906020018083116102fa57829003601f168201915b50505050509080600201805461032c9061200a565b80601f01602080910402602001604051908101604052809291908181526020018280546103589061200a565b80156103a55780601f1061037a576101008083540402835291602001916103a5565b820191906000526020600020905b81548152906001019060200180831161038857829003601f168201915b5050505050908060030154908060040160009054906101000a900460ff16908060040160019054906101000a900473ffffffffffffffffffffffffffffffffffffffff16905086565b600280549050821115610436576040517f08c379a000000000000000000000000000000000000000000000000000000000815260040161042d90612087565b60405180910390fd5b60005b6002805490508110156104d257826002828154811061045b5761045a6120a7565b5b906000526020600020906005020160000154036104c5578160028281548110610487576104866120a7565b5b906000526020600020906005020160040160006101000a81548160ff021916908360028111156104ba576104b9611776565b5b021790555050610505565b8080600101915050610439565b506040517f5a9e653400000000000000000000000000000000000000000000000000000000815260040160405180910390fd5b5050565b600180546105179190612105565b6001819055506040518060c0016040528060015481526020018260200151815260200182604001518152602001826060015181526020016000600281111561056257610561611776565b5b81526020013373ffffffffffffffffffffffffffffffffffffffff16815250905060028190806001815401808255809150506001900390600052602060002090600502016000909190919091506000820151816000015560208201518160010190816105ce91906122e5565b5060408201518160020190816105e491906122e5565b506060820151816003015560808201518160040160006101000a81548160ff0219169083600281111561061a57610619611776565b5b021790555060a08201518160040160016101000a81548173ffffffffffffffffffffffffffffffffffffffff021916908373ffffffffffffffffffffffffffffffffffffffff160217905550505050565b60005b6002805490508110156106e85782600282815481106106905761068f6120a7565b5b906000526020600020906005020160000154036106db5781600282815481106106bc576106bb6120a7565b5b906000526020600020906005020160010190816106d991906122e5565b505b808060010191505061066e565b505050565b60006020528060005260406000206000915090508060000154908060010180546107169061200a565b80601f01602080910402602001604051908101604052809291908181526020018280546107429061200a565b801561078f5780601f106107645761010080835404028352916020019161078f565b820191906000526020600020905b81548152906001019060200180831161077257829003601f168201915b5050505050908060020180546107a49061200a565b80601f01602080910402602001604051908101604052809291908181526020018280546107d09061200a565b801561081d5780601f106107f25761010080835404028352916020019161081d565b820191906000526020600020905b81548152906001019060200180831161080057829003601f168201915b5050505050908060030154908060040160009054906101000a900460ff16908060040160019054906101000a900473ffffffffffffffffffffffffffffffffffffffff16905086565b60606002805480602002602001604051908101604052809291908181526020016000905b82821015610a8557838290600052602060002090600502016040518060c0016040529081600082015481526020016001820180546108c79061200a565b80601f01602080910402602001604051908101604052809291908181526020018280546108f39061200a565b80156109405780601f1061091557610100808354040283529160200191610940565b820191906000526020600020905b81548152906001019060200180831161092357829003601f168201915b505050505081526020016002820180546109599061200a565b80601f01602080910402602001604051908101604052809291908181526020018280546109859061200a565b80156109d25780601f106109a7576101008083540402835291602001916109d2565b820191906000526020600020905b8154815290600101906020018083116109b557829003601f168201915b50505050508152602001600382015481526020016004820160009054906101000a900460ff166002811115610a0a57610a09611776565b5b6002811115610a1c57610a1b611776565b5b81526020016004820160019054906101000a900473ffffffffffffffffffffffffffffffffffffffff1673ffffffffffffffffffffffffffffffffffffffff1673ffffffffffffffffffffffffffffffffffffffff16815250508152602001906001019061088a565b50505050905090565b60005b600280549050811015610cad578160028281548110610ab357610ab26120a7565b5b90600052602060002090600502016000015403610ca05760026001600280549050610ade91906123b7565b81548110610aef57610aee6120a7565b5b906000526020600020906005020160028281548110610b1157610b106120a7565b5b90600052602060002090600502016000820154816000015560018201816001019081610b3d9190612401565b5060028201816002019081610b529190612401565b50600382015481600301556004820160009054906101000a900460ff168160040160006101000a81548160ff02191690836002811115610b9557610b94611776565b5b02179055506004820160019054906101000a900473ffffffffffffffffffffffffffffffffffffffff168160040160016101000a81548173ffffffffffffffffffffffffffffffffffffffff021916908373ffffffffffffffffffffffffffffffffffffffff1602179055509050506002805480610c1657610c156124e9565b5b6001900381819060005260206000209060050201600080820160009055600182016000610c4391906115a5565b600282016000610c5391906115a5565b60038201600090556004820160006101000a81549060ff02191690556004820160016101000a81549073ffffffffffffffffffffffffffffffffffffffff02191690555050905550610ce0565b8080600101915050610a91565b506040517faca0832a00000000000000000000000000000000000000000000000000000000815260040160405180910390fd5b50565b3373ffffffffffffffffffffffffffffffffffffffff168273ffffffffffffffffffffffffffffffffffffffff1603610d8057806000808473ffffffffffffffffffffffffffffffffffffffff1673ffffffffffffffffffffffffffffffffffffffff16815260200190815260200160002060040160006101000a81548160ff02191690836002811115610d7a57610d79611776565b5b02179055505b5050565b610d8c6115e5565b60005b600280549050811015610fd3578260028281548110610db157610db06120a7565b5b90600052602060002090600502016000015403610fc65760028181548110610ddc57610ddb6120a7565b5b90600052602060002090600502016040518060c001604052908160008201548152602001600182018054610e0f9061200a565b80601f0160208091040260200160405190810160405280929190818152602001828054610e3b9061200a565b8015610e885780601f10610e5d57610100808354040283529160200191610e88565b820191906000526020600020905b815481529060010190602001808311610e6b57829003601f168201915b50505050508152602001600282018054610ea19061200a565b80601f0160208091040260200160405190810160405280929190818152602001828054610ecd9061200a565b8015610f1a5780601f10610eef57610100808354040283529160200191610f1a565b820191906000526020600020905b815481529060010190602001808311610efd57829003601f168201915b50505050508152602001600382015481526020016004820160009054906101000a900460ff166002811115610f5257610f51611776565b5b6002811115610f6457610f63611776565b5b81526020016004820160019054906101000a900473ffffffffffffffffffffffffffffffffffffffff1673ffffffffffffffffffffffffffffffffffffffff1673ffffffffffffffffffffffffffffffffffffffff1681525050915050610fd5565b8080600101915050610d8f565b505b919050565b610fe26115e5565b3373ffffffffffffffffffffffffffffffffffffffff168273ffffffffffffffffffffffffffffffffffffffff160361122e576000808373ffffffffffffffffffffffffffffffffffffffff1673ffffffffffffffffffffffffffffffffffffffff1681526020019081526020016000206040518060c0016040529081600082015481526020016001820180546110789061200a565b80601f01602080910402602001604051908101604052809291908181526020018280546110a49061200a565b80156110f15780601f106110c6576101008083540402835291602001916110f1565b820191906000526020600020905b8154815290600101906020018083116110d457829003601f168201915b5050505050815260200160028201805461110a9061200a565b80601f01602080910402602001604051908101604052809291908181526020018280546111369061200a565b80156111835780601f1061115857610100808354040283529160200191611183565b820191906000526020600020905b81548152906001019060200180831161116657829003601f168201915b50505050508152602001600382015481526020016004820160009054906101000a900460ff1660028111156111bb576111ba611776565b5b60028111156111cd576111cc611776565b5b81526020016004820160019054906101000a900473ffffffffffffffffffffffffffffffffffffffff1673ffffffffffffffffffffffffffffffffffffffff1673ffffffffffffffffffffffffffffffffffffffff1681525050905061122f565b5b919050565b600180546112429190612105565b60018190555060006040518060c0016040528060015481526020018581526020018481526020018381526020016000600281111561128357611282611776565b5b81526020013373ffffffffffffffffffffffffffffffffffffffff168152509050806000803373ffffffffffffffffffffffffffffffffffffffff1673ffffffffffffffffffffffffffffffffffffffff16815260200190815260200160002060008201518160000155602082015181600101908161130291906122e5565b50604082015181600201908161131891906122e5565b506060820151816003015560808201518160040160006101000a81548160ff0219169083600281111561134e5761134d611776565b5b021790555060a08201518160040160016101000a81548173ffffffffffffffffffffffffffffffffffffffff021916908373ffffffffffffffffffffffffffffffffffffffff16021790555090505060028190806001815401808255809150506001900390600052602060002090600502016000909190919091506000820151816000015560208201518160010190816113e891906122e5565b5060408201518160020190816113fe91906122e5565b506060820151816003015560808201518160040160006101000a81548160ff0219169083600281111561143457611433611776565b5b021790555060a08201518160040160016101000a81548173ffffffffffffffffffffffffffffffffffffffff021916908373ffffffffffffffffffffffffffffffffffffffff160217905550505050505050565b60005b6002805490508110156115a0578273ffffffffffffffffffffffffffffffffffffffff16600282815481106114c3576114c26120a7565b5b906000526020600020906005020160040160019054906101000a900473ffffffffffffffffffffffffffffffffffffffff1673ffffffffffffffffffffffffffffffffffffffff1603611593578160028281548110611525576115246120a7565b5b9060005260206000209060050201600101908161154291906122e5565b50816000808573ffffffffffffffffffffffffffffffffffffffff1673ffffffffffffffffffffffffffffffffffffffff168152602001908152602001600020600101908161159191906122e5565b505b808060010191505061148b565b505050565b5080546115b19061200a565b6000825580601f106115c357506115e2565b601f0160209004906000526020600020908101906115e19190611643565b5b50565b6040518060c0016040528060008152602001606081526020016060815260200160008152602001600060028111156116205761161f611776565b5b8152602001600073ffffffffffffffffffffffffffffffffffffffff1681525090565b5b8082111561165c576000816000905550600101611644565b5090565b6000604051905090565b600080fd5b600080fd5b6000819050919050565b61168781611674565b811461169257600080fd5b50565b6000813590506116a48161167e565b92915050565b6000602082840312156116c0576116bf61166a565b5b60006116ce84828501611695565b91505092915050565b6116e081611674565b82525050565b600081519050919050565b600082825260208201905092915050565b60005b83811015611720578082015181840152602081019050611705565b60008484015250505050565b6000601f19601f8301169050919050565b6000611748826116e6565b61175281856116f1565b9350611762818560208601611702565b61176b8161172c565b840191505092915050565b7f4e487b7100000000000000000000000000000000000000000000000000000000600052602160045260246000fd5b600381106117b6576117b5611776565b5b50565b60008190506117c7826117a5565b919050565b60006117d7826117b9565b9050919050565b6117e7816117cc565b82525050565b600073ffffffffffffffffffffffffffffffffffffffff82169050919050565b6000611818826117ed565b9050919050565b6118288161180d565b82525050565b600060c08201905061184360008301896116d7565b8181036020830152611855818861173d565b90508181036040830152611869818761173d565b905061187860608301866116d7565b61188560808301856117de565b61189260a083018461181f565b979650505050505050565b600381106118aa57600080fd5b50565b6000813590506118bc8161189d565b92915050565b600080604083850312156118d9576118d861166a565b5b60006118e785828601611695565b92505060206118f8858286016118ad565b9150509250929050565b600080fd5b7f4e487b7100000000000000000000000000000000000000000000000000000000600052604160045260246000fd5b61193f8261172c565b810181811067ffffffffffffffff8211171561195e5761195d611907565b5b80604052505050565b6000611971611660565b905061197d8282611936565b919050565b600080fd5b600080fd5b600080fd5b600067ffffffffffffffff8211156119ac576119ab611907565b5b6119b58261172c565b9050602081019050919050565b82818337600083830152505050565b60006119e46119df84611991565b611967565b905082815260208101848484011115611a00576119ff61198c565b5b611a0b8482856119c2565b509392505050565b600082601f830112611a2857611a27611987565b5b8135611a388482602086016119d1565b91505092915050565b611a4a8161180d565b8114611a5557600080fd5b50565b600081359050611a6781611a41565b92915050565b600060c08284031215611a8357611a82611902565b5b611a8d60c0611967565b90506000611a9d84828501611695565b600083015250602082013567ffffffffffffffff811115611ac157611ac0611982565b5b611acd84828501611a13565b602083015250604082013567ffffffffffffffff811115611af157611af0611982565b5b611afd84828501611a13565b6040830152506060611b1184828501611695565b6060830152506080611b25848285016118ad565b60808301525060a0611b3984828501611a58565b60a08301525092915050565b600060208284031215611b5b57611b5a61166a565b5b600082013567ffffffffffffffff811115611b7957611b7861166f565b5b611b8584828501611a6d565b91505092915050565b60008060408385031215611ba557611ba461166a565b5b6000611bb385828601611695565b925050602083013567ffffffffffffffff811115611bd457611bd361166f565b5b611be085828601611a13565b9150509250929050565b600060208284031215611c0057611bff61166a565b5b6000611c0e84828501611a58565b91505092915050565b600081519050919050565b600082825260208201905092915050565b6000819050602082019050919050565b611c4c81611674565b82525050565b600082825260208201905092915050565b6000611c6e826116e6565b611c788185611c52565b9350611c88818560208601611702565b611c918161172c565b840191505092915050565b611ca5816117cc565b82525050565b611cb48161180d565b82525050565b600060c083016000830151611cd26000860182611c43565b5060208301518482036020860152611cea8282611c63565b91505060408301518482036040860152611d048282611c63565b9150506060830151611d196060860182611c43565b506080830151611d2c6080860182611c9c565b5060a0830151611d3f60a0860182611cab565b508091505092915050565b6000611d568383611cba565b905092915050565b6000602082019050919050565b6000611d7682611c17565b611d808185611c22565b935083602082028501611d9285611c33565b8060005b85811015611dce5784840389528151611daf8582611d4a565b9450611dba83611d5e565b925060208a01995050600181019050611d96565b50829750879550505050505092915050565b60006020820190508181036000830152611dfa8184611d6b565b905092915050565b60008060408385031215611e1957611e1861166a565b5b6000611e2785828601611a58565b9250506020611e38858286016118ad565b9150509250929050565b600060c083016000830151611e5a6000860182611c43565b5060208301518482036020860152611e728282611c63565b91505060408301518482036040860152611e8c8282611c63565b9150506060830151611ea16060860182611c43565b506080830151611eb46080860182611c9c565b5060a0830151611ec760a0860182611cab565b508091505092915050565b60006020820190508181036000830152611eec8184611e42565b905092915050565b600080600060608486031215611f0d57611f0c61166a565b5b600084013567ffffffffffffffff811115611f2b57611f2a61166f565b5b611f3786828701611a13565b935050602084013567ffffffffffffffff811115611f5857611f5761166f565b5b611f6486828701611a13565b9250506040611f7586828701611695565b9150509250925092565b60008060408385031215611f9657611f9561166a565b5b6000611fa485828601611a58565b925050602083013567ffffffffffffffff811115611fc557611fc461166f565b5b611fd185828601611a13565b9150509250929050565b7f4e487b7100000000000000000000000000000000000000000000000000000000600052602260045260246000fd5b6000600282049050600182168061202257607f821691505b60208210810361203557612034611fdb565b5b50919050565b7f696e76616c696420696400000000000000000000000000000000000000000000600082015250565b6000612071600a836116f1565b915061207c8261203b565b602082019050919050565b600060208201905081810360008301526120a081612064565b9050919050565b7f4e487b7100000000000000000000000000000000000000000000000000000000600052603260045260246000fd5b7f4e487b7100000000000000000000000000000000000000000000000000000000600052601160045260246000fd5b600061211082611674565b915061211b83611674565b9250828201905080821115612133576121326120d6565b5b92915050565b60008190508160005260206000209050919050565b60006020601f8301049050919050565b600082821b905092915050565b60006008830261219b7fffffffffffffffffffffffffffffffffffffffffffffffffffffffffffffffff8261215e565b6121a5868361215e565b95508019841693508086168417925050509392505050565b6000819050919050565b60006121e26121dd6121d884611674565b6121bd565b611674565b9050919050565b6000819050919050565b6121fc836121c7565b612210612208826121e9565b84845461216b565b825550505050565b600090565b612225612218565b6122308184846121f3565b505050565b5b818110156122545761224960008261221d565b600181019050612236565b5050565b601f8211156122995761226a81612139565b6122738461214e565b81016020851015612282578190505b61229661228e8561214e565b830182612235565b50505b505050565b600082821c905092915050565b60006122bc6000198460080261229e565b1980831691505092915050565b60006122d583836122ab565b9150826002028217905092915050565b6122ee826116e6565b67ffffffffffffffff81111561230757612306611907565b5b612311825461200a565b61231c828285612258565b600060209050601f83116001811461234f576000841561233d578287015190505b61234785826122c9565b8655506123af565b601f19841661235d86612139565b60005b8281101561238557848901518255600182019150602085019450602081019050612360565b868310156123a2578489015161239e601f8916826122ab565b8355505b6001600288020188555050505b505050505050565b60006123c282611674565b91506123cd83611674565b92508282039050818111156123e5576123e46120d6565b5b92915050565b6000815490506123fa8161200a565b9050919050565b81810361240f5750506124e7565b612418826123eb565b67ffffffffffffffff81111561243157612430611907565b5b61243b825461200a565b612446828285612258565b6000601f8311600181146124755760008415612463578287015490505b61246d85826122c9565b8655506124e0565b601f19841661248387612139565b965061248e86612139565b60005b828110156124b657848901548255600182019150600185019450602081019050612491565b868310156124d357848901546124cf601f8916826122ab565b8355505b6001600288020188555050505b5050505050505b565b7f4e487b7100000000000000000000000000000000000000000000000000000000600052603160045260246000fdfea264697066735822122000cdb279bb0cb373e494c75f0c4cdc081361d8fefe49dd2e1282bf23ac7d1a7264736f6c634300081e0033",
  "linkReferences": {},
  "deployedLinkReferences": {}
}