{
  "_format": "hh-sol-artifact-1",
  "contractName": "Web3BridgeGarage",
  "sourceName": "contracts/Web3BridgeGarage.sol",
  "abi": [
    {
      "inputs": [
        {
          "internalType": "string",
          "name": "_name",
          "type": "string"
        },
        {
          "internalType": "enum Web3BridgeGarage.ROLE",
          "name": "_role",
          "type": "uint8"
        }
      ],
      "name": "addEmployee",
      "outputs": [],
      "stateMutability": "nonpayable",
      "type": "function"
    },
    {
      "inputs": [
        {
          "internalType": "address",
          "name": "_employeeAddress",
          "type": "address"
        }
      ],
      "name": "checkEmployeeAccess",
      "outputs": [
        {
          "internalType": "bool",
          "name": "",
          "type": "bool"
        }
      ],
      "stateMutability": "view",
      "type": "function"
    },
    {
      "inputs": [],
      "name": "getAllEmployeeList",
      "outputs": [
        {
          "components": [
            {
              "internalType": "string",
              "name": "name",
              "type": "string"
            },
            {
              "internalType": "enum Web3BridgeGarage.ROLE",
              "name": "role",
              "type": "uint8"
            },
            {
              "internalType": "bool",
              "name": "isEmployed",
              "type": "bool"
            },
            {
              "internalType": "address",
              "name": "employeeAddress",
              "type": "address"
            }
          ],
          "internalType": "struct Web3BridgeGarage.EMPLOYEE[]",
          "name": "",
          "type": "tuple[]"
        }
      ],
      "stateMutability": "view",
      "type": "function"
    },
    {
      "inputs": [
        {
          "internalType": "address",
          "name": "_employeeAddress",
          "type": "address"
        }
      ],
      "name": "getEmployeeById",
      "outputs": [
        {
          "components": [
            {
              "internalType": "string",
              "name": "name",
              "type": "string"
            },
            {
              "internalType": "enum Web3BridgeGarage.ROLE",
              "name": "role",
              "type": "uint8"
            },
            {
              "internalType": "bool",
              "name": "isEmployed",
              "type": "bool"
            },
            {
              "internalType": "address",
              "name": "employeeAddress",
              "type": "address"
            }
          ],
          "internalType": "struct Web3BridgeGarage.EMPLOYEE",
          "name": "",
          "type": "tuple"
        }
      ],
      "stateMutability": "view",
      "type": "function"
    },
    {
      "inputs": [
        {
          "internalType": "string",
          "name": "_new_name",
          "type": "string"
        }
      ],
      "name": "updateEmployee",
      "outputs": [],
      "stateMutability": "nonpayable",
      "type": "function"
    }
  ],
  "bytecode": "0x6080604052348015600f57600080fd5b5061141f8061001f6000396000f3fe608060405234801561001057600080fd5b50600436106100575760003560e01c80630239cbdd1461005c5780630588feda1461008c5780635e9432df146100a8578063b401cdc5146100c4578063d50e76d2146100e2575b600080fd5b61007660048036038101906100719190610b02565b610112565b6040516100839190610cc3565b60405180910390f35b6100a660048036038101906100a19190610e3f565b6102a8565b005b6100c260048036038101906100bd9190610e9b565b610501565b005b6100cc61065d565b6040516100d99190611009565b60405180910390f35b6100fc60048036038101906100f79190610b02565b6107fa565b604051610109919061103a565b60405180910390f35b61011a610a3e565b6000808373ffffffffffffffffffffffffffffffffffffffff1673ffffffffffffffffffffffffffffffffffffffff16815260200190815260200160002060405180608001604052908160008201805461017390611084565b80601f016020809104026020016040519081016040528092919081815260200182805461019f90611084565b80156101ec5780601f106101c1576101008083540402835291602001916101ec565b820191906000526020600020905b8154815290600101906020018083116101cf57829003601f168201915b505050505081526020016001820160009054906101000a900460ff16600581111561021a57610219610bbf565b5b600581111561022c5761022b610bbf565b5b81526020016001820160019054906101000a900460ff161515151581526020016001820160029054906101000a900473ffffffffffffffffffffffffffffffffffffffff1673ffffffffffffffffffffffffffffffffffffffff1673ffffffffffffffffffffffffffffffffffffffff16815250509050919050565b6102b0610a3e565b82816000018190525033816060019073ffffffffffffffffffffffffffffffffffffffff16908173ffffffffffffffffffffffffffffffffffffffff1681525050818160200190600581111561030957610308610bbf565b5b9081600581111561031d5761031c610bbf565b5b815250506001816040019015159081151581525050806000803373ffffffffffffffffffffffffffffffffffffffff1673ffffffffffffffffffffffffffffffffffffffff1681526020019081526020016000206000820151816000019081610386919061126b565b5060208201518160010160006101000a81548160ff021916908360058111156103b2576103b1610bbf565b5b021790555060408201518160010160016101000a81548160ff02191690831515021790555060608201518160010160026101000a81548173ffffffffffffffffffffffffffffffffffffffff021916908373ffffffffffffffffffffffffffffffffffffffff16021790555090505060018190806001815401808255809150506001900390600052602060002090600202016000909190919091506000820151816000019081610462919061126b565b5060208201518160010160006101000a81548160ff0219169083600581111561048e5761048d610bbf565b5b021790555060408201518160010160016101000a81548160ff02191690831515021790555060608201518160010160026101000a81548173ffffffffffffffffffffffffffffffffffffffff021916908373ffffffffffffffffffffffffffffffffffffffff1602179055505050505050565b60005b60018054905081101561061e573373ffffffffffffffffffffffffffffffffffffffff166001828154811061053c5761053b61133d565b5b906000526020600020906002020160010160029054906101000a900473ffffffffffffffffffffffffffffffffffffffff1673ffffffffffffffffffffffffffffffffffffffff160361061157816001828154811061059e5761059d61133d565b5b906000526020600020906002020160000190816105bb919061126b565b50816000803373ffffffffffffffffffffffffffffffffffffffff1673ffffffffffffffffffffffffffffffffffffffff168152602001908152602001600020600001908161060a919061126b565b505061065a565b8080600101915050610504565b506040517f08c379a0000000000000000000000000000000000000000000000000000000008152600401610651906113c9565b60405180910390fd5b50565b60606001805480602002602001604051908101604052809291908181526020016000905b828210156107f157838290600052602060002090600202016040518060800160405290816000820180546106b490611084565b80601f01602080910402602001604051908101604052809291908181526020018280546106e090611084565b801561072d5780601f106107025761010080835404028352916020019161072d565b820191906000526020600020905b81548152906001019060200180831161071057829003601f168201915b505050505081526020016001820160009054906101000a900460ff16600581111561075b5761075a610bbf565b5b600581111561076d5761076c610bbf565b5b81526020016001820160019054906101000a900460ff161515151581526020016001820160029054906101000a900473ffffffffffffffffffffffffffffffffffffffff1673ffffffffffffffffffffffffffffffffffffffff1673ffffffffffffffffffffffffffffffffffffffff168152505081526020019060010190610681565b50505050905090565b6000806000808473ffffffffffffffffffffffffffffffffffffffff1673ffffffffffffffffffffffffffffffffffffffff16815260200190815260200160002060405180608001604052908160008201805461085690611084565b80601f016020809104026020016040519081016040528092919081815260200182805461088290611084565b80156108cf5780601f106108a4576101008083540402835291602001916108cf565b820191906000526020600020905b8154815290600101906020018083116108b257829003601f168201915b505050505081526020016001820160009054906101000a900460ff1660058111156108fd576108fc610bbf565b5b600581111561090f5761090e610bbf565b5b81526020016001820160019054906101000a900460ff161515151581526020016001820160029054906101000a900473ffffffffffffffffffffffffffffffffffffffff1673ffffffffffffffffffffffffffffffffffffffff1673ffffffffffffffffffffffffffffffffffffffff168152505090508060400151806109be5750600060058111156109a5576109a4610bbf565b5b816020015160058111156109bc576109bb610bbf565b5b145b806109f15750600160058111156109d8576109d7610bbf565b5b816020015160058111156109ef576109ee610bbf565b5b145b80610a24575060026005811115610a0b57610a0a610bbf565b5b81602001516005811115610a2257610a21610bbf565b5b145b15610a33576001915050610a39565b60009150505b919050565b60405180608001604052806060815260200160006005811115610a6457610a63610bbf565b5b8152602001600015158152602001600073ffffffffffffffffffffffffffffffffffffffff1681525090565b6000604051905090565b600080fd5b600080fd5b600073ffffffffffffffffffffffffffffffffffffffff82169050919050565b6000610acf82610aa4565b9050919050565b610adf81610ac4565b8114610aea57600080fd5b50565b600081359050610afc81610ad6565b92915050565b600060208284031215610b1857610b17610a9a565b5b6000610b2684828501610aed565b91505092915050565b600081519050919050565b600082825260208201905092915050565b60005b83811015610b69578082015181840152602081019050610b4e565b60008484015250505050565b6000601f19601f8301169050919050565b6000610b9182610b2f565b610b9b8185610b3a565b9350610bab818560208601610b4b565b610bb481610b75565b840191505092915050565b7f4e487b7100000000000000000000000000000000000000000000000000000000600052602160045260246000fd5b60068110610bff57610bfe610bbf565b5b50565b6000819050610c1082610bee565b919050565b6000610c2082610c02565b9050919050565b610c3081610c15565b82525050565b60008115159050919050565b610c4b81610c36565b82525050565b610c5a81610ac4565b82525050565b60006080830160008301518482036000860152610c7d8282610b86565b9150506020830151610c926020860182610c27565b506040830151610ca56040860182610c42565b506060830151610cb86060860182610c51565b508091505092915050565b60006020820190508181036000830152610cdd8184610c60565b905092915050565b600080fd5b600080fd5b7f4e487b7100000000000000000000000000000000000000000000000000000000600052604160045260246000fd5b610d2782610b75565b810181811067ffffffffffffffff82111715610d4657610d45610cef565b5b80604052505050565b6000610d59610a90565b9050610d658282610d1e565b919050565b600067ffffffffffffffff821115610d8557610d84610cef565b5b610d8e82610b75565b9050602081019050919050565b82818337600083830152505050565b6000610dbd610db884610d6a565b610d4f565b905082815260208101848484011115610dd957610dd8610cea565b5b610de4848285610d9b565b509392505050565b600082601f830112610e0157610e00610ce5565b5b8135610e11848260208601610daa565b91505092915050565b60068110610e2757600080fd5b50565b600081359050610e3981610e1a565b92915050565b60008060408385031215610e5657610e55610a9a565b5b600083013567ffffffffffffffff811115610e7457610e73610a9f565b5b610e8085828601610dec565b9250506020610e9185828601610e2a565b9150509250929050565b600060208284031215610eb157610eb0610a9a565b5b600082013567ffffffffffffffff811115610ecf57610ece610a9f565b5b610edb84828501610dec565b91505092915050565b600081519050919050565b600082825260208201905092915050565b6000819050602082019050919050565b60006080830160008301518482036000860152610f2d8282610b86565b9150506020830151610f426020860182610c27565b506040830151610f556040860182610c42565b506060830151610f686060860182610c51565b508091505092915050565b6000610f7f8383610f10565b905092915050565b6000602082019050919050565b6000610f9f82610ee4565b610fa98185610eef565b935083602082028501610fbb85610f00565b8060005b85811015610ff75784840389528151610fd88582610f73565b9450610fe383610f87565b925060208a01995050600181019050610fbf565b50829750879550505050505092915050565b600060208201905081810360008301526110238184610f94565b905092915050565b61103481610c36565b82525050565b600060208201905061104f600083018461102b565b92915050565b7f4e487b7100000000000000000000000000000000000000000000000000000000600052602260045260246000fd5b6000600282049050600182168061109c57607f821691505b6020821081036110af576110ae611055565b5b50919050565b60008190508160005260206000209050919050565b60006020601f8301049050919050565b600082821b905092915050565b6000600883026111177fffffffffffffffffffffffffffffffffffffffffffffffffffffffffffffffff826110da565b61112186836110da565b95508019841693508086168417925050509392505050565b6000819050919050565b6000819050919050565b600061116861116361115e84611139565b611143565b611139565b9050919050565b6000819050919050565b6111828361114d565b61119661118e8261116f565b8484546110e7565b825550505050565b600090565b6111ab61119e565b6111b6818484611179565b505050565b5b818110156111da576111cf6000826111a3565b6001810190506111bc565b5050565b601f82111561121f576111f0816110b5565b6111f9846110ca565b81016020851015611208578190505b61121c611214856110ca565b8301826111bb565b50505b505050565b600082821c905092915050565b600061124260001984600802611224565b1980831691505092915050565b600061125b8383611231565b9150826002028217905092915050565b61127482610b2f565b67ffffffffffffffff81111561128d5761128c610cef565b5b6112978254611084565b6112a28282856111de565b600060209050601f8311600181146112d557600084156112c3578287015190505b6112cd858261124f565b865550611335565b601f1984166112e3866110b5565b60005b8281101561130b578489015182556001820191506020850194506020810190506112e6565b868310156113285784890151611324601f891682611231565b8355505b6001600288020188555050505b505050505050565b7f4e487b7100000000000000000000000000000000000000000000000000000000600052603260045260246000fd5b600082825260208201905092915050565b7f456d706c6f796565206e6f7420666f756e640000000000000000000000000000600082015250565b60006113b360128361136c565b91506113be8261137d565b602082019050919050565b600060208201905081810360008301526113e2816113a6565b905091905056fea2646970667358221220a4d074b60e4e7a11552d30dfeb353f806a4086054135a3a3ffb0d0725d5b8df364736f6c634300081e0033",
  "linkReferences": {},
  "deployedLinkReferences": {}
}