{
  "_format": "hh-sol-artifact-1",
  "contractName": "Lottery",
  "sourceName": "contracts/Lottery.sol",
  "abi": [
    {
      "inputs": [],
      "stateMutability": "nonpayable",
      "type": "constructor"
    },
    {
      "inputs": [],
      "name": "AlreadyJoined",
      "type": "error"
    },
    {
      "inputs": [],
      "name": "IncorrectEntryFee",
      "type": "error"
    },
    {
      "inputs": [],
      "name": "LotteryFull",
      "type": "error"
    },
    {
      "inputs": [],
      "name": "NoPlayersInLottery",
      "type": "error"
    },
    {
      "inputs": [],
      "name": "UnauthorizedWinnerSelection",
      "type": "error"
    },
    {
      "anonymous": false,
      "inputs": [
        {
          "indexed": false,
          "internalType": "uint256",
          "name": "newLotteryId",
          "type": "uint256"
        }
      ],
      "name": "LotteryReset",
      "type": "event"
    },
    {
      "anonymous": false,
      "inputs": [
        {
          "indexed": true,
          "internalType": "address",
          "name": "player",
          "type": "address"
        },
        {
          "indexed": false,
          "internalType": "uint256",
          "name": "lotteryId",
          "type": "uint256"
        },
        {
          "indexed": false,
          "internalType": "uint256",
          "name": "currentPlayerCount",
          "type": "uint256"
        }
      ],
      "name": "PlayerJoined",
      "type": "event"
    },
    {
      "anonymous": false,
      "inputs": [
        {
          "indexed": true,
          "internalType": "address",
          "name": "winner",
          "type": "address"
        },
        {
          "indexed": false,
          "internalType": "uint256",
          "name": "prize",
          "type": "uint256"
        },
        {
          "indexed": false,
          "internalType": "uint256",
          "name": "lotteryId",
          "type": "uint256"
        }
      ],
      "name": "WinnerSelected",
      "type": "event"
    },
    {
      "inputs": [],
      "name": "ENTRY_FEE",
      "outputs": [
        {
          "internalType": "uint256",
          "name": "",
          "type": "uint256"
        }
      ],
      "stateMutability": "view",
      "type": "function"
    },
    {
      "inputs": [],
      "name": "MAX_PLAYERS",
      "outputs": [
        {
          "internalType": "uint256",
          "name": "",
          "type": "uint256"
        }
      ],
      "stateMutability": "view",
      "type": "function"
    },
    {
      "inputs": [],
      "name": "getContractBalance",
      "outputs": [
        {
          "internalType": "uint256",
          "name": "",
          "type": "uint256"
        }
      ],
      "stateMutability": "view",
      "type": "function"
    },
    {
      "inputs": [],
      "name": "getLastWinner",
      "outputs": [
        {
          "internalType": "address",
          "name": "",
          "type": "address"
        }
      ],
      "stateMutability": "view",
      "type": "function"
    },
    {
      "inputs": [],
      "name": "getLotteryId",
      "outputs": [
        {
          "internalType": "uint256",
          "name": "",
          "type": "uint256"
        }
      ],
      "stateMutability": "view",
      "type": "function"
    },
    {
      "inputs": [],
      "name": "getPlayerCount",
      "outputs": [
        {
          "internalType": "uint256",
          "name": "",
          "type": "uint256"
        }
      ],
      "stateMutability": "view",
      "type": "function"
    },
    {
      "inputs": [],
      "name": "getPlayers",
      "outputs": [
        {
          "internalType": "address[]",
          "name": "",
          "type": "address[]"
        }
      ],
      "stateMutability": "view",
      "type": "function"
    },
    {
      "inputs": [],
      "name": "getPrizePool",
      "outputs": [
        {
          "internalType": "uint256",
          "name": "",
          "type": "uint256"
        }
      ],
      "stateMutability": "view",
      "type": "function"
    },
    {
      "inputs": [],
      "name": "getSpotsRemaining",
      "outputs": [
        {
          "internalType": "uint256",
          "name": "",
          "type": "uint256"
        }
      ],
      "stateMutability": "view",
      "type": "function"
    },
    {
      "inputs": [
        {
          "internalType": "address",
          "name": "",
          "type": "address"
        }
      ],
      "name": "hasJoined",
      "outputs": [
        {
          "internalType": "bool",
          "name": "",
          "type": "bool"
        }
      ],
      "stateMutability": "view",
      "type": "function"
    },
    {
      "inputs": [
        {
          "internalType": "address",
          "name": "player",
          "type": "address"
        }
      ],
      "name": "hasPlayerJoined",
      "outputs": [
        {
          "internalType": "bool",
          "name": "",
          "type": "bool"
        }
      ],
      "stateMutability": "view",
      "type": "function"
    },
    {
      "inputs": [],
      "name": "joinLottery",
      "outputs": [],
      "stateMutability": "payable",
      "type": "function"
    },
    {
      "inputs": [],
      "name": "lotteryId",
      "outputs": [
        {
          "internalType": "uint256",
          "name": "",
          "type": "uint256"
        }
      ],
      "stateMutability": "view",
      "type": "function"
    },
    {
      "inputs": [
        {
          "internalType": "uint256",
          "name": "",
          "type": "uint256"
        }
      ],
      "name": "players",
      "outputs": [
        {
          "internalType": "address",
          "name": "",
          "type": "address"
        }
      ],
      "stateMutability": "view",
      "type": "function"
    },
    {
      "inputs": [],
      "name": "prizePool",
      "outputs": [
        {
          "internalType": "uint256",
          "name": "",
          "type": "uint256"
        }
      ],
      "stateMutability": "view",
      "type": "function"
    },
    {
      "inputs": [],
      "name": "winner",
      "outputs": [
        {
          "internalType": "address",
          "name": "",
          "type": "address"
        }
      ],
      "stateMutability": "view",
      "type": "function"
    }
  ],
  "bytecode": "0x608060405234801561001057600080fd5b50600160038190555061115e806100286000396000f3fe6080604052600436106100f35760003560e01c80638b5b9ccc1161008a578063e580f47b11610059578063e580f47b146102ff578063f6d361cc1461032a578063f71d96cb14610355578063f88649a114610392576100f3565b80638b5b9ccc14610253578063900aafaf1461027e578063c2e52206146102a9578063dfbf53ae146102d4576100f3565b80636f9fb98a116100c65780636f9fb98a14610195578063719ce73e146101c0578063877f4e12146101eb578063884bf67c14610228576100f3565b8063144b6ae1146100f85780634411b3eb146101355780635f252043146101605780636c77f9891461018b575b600080fd5b34801561010457600080fd5b5061011f600480360381019061011a9190610c1d565b6103bd565b60405161012c9190610c65565b60405180910390f35b34801561014157600080fd5b5061014a610413565b6040516101579190610c99565b60405180910390f35b34801561016c57600080fd5b50610175610418565b6040516101829190610c99565b60405180910390f35b610193610430565b005b3480156101a157600080fd5b506101aa610675565b6040516101b79190610c99565b60405180910390f35b3480156101cc57600080fd5b506101d561067d565b6040516101e29190610c99565b60405180910390f35b3480156101f757600080fd5b50610212600480360381019061020d9190610c1d565b610683565b60405161021f9190610c65565b60405180910390f35b34801561023457600080fd5b5061023d6106a3565b60405161024a9190610c99565b60405180910390f35b34801561025f57600080fd5b506102686106ad565b6040516102759190610d72565b60405180910390f35b34801561028a57600080fd5b5061029361073b565b6040516102a09190610c99565b60405180910390f35b3480156102b557600080fd5b506102be610745565b6040516102cb9190610c99565b60405180910390f35b3480156102e057600080fd5b506102e9610751565b6040516102f69190610da3565b60405180910390f35b34801561030b57600080fd5b50610314610777565b6040516103219190610c99565b60405180910390f35b34801561033657600080fd5b5061033f61077d565b60405161034c9190610c99565b60405180910390f35b34801561036157600080fd5b5061037c60048036038101906103779190610dea565b610788565b6040516103899190610da3565b60405180910390f35b34801561039e57600080fd5b506103a76107c7565b6040516103b49190610da3565b60405180910390f35b6000600460008373ffffffffffffffffffffffffffffffffffffffff1673ffffffffffffffffffffffffffffffffffffffff16815260200190815260200160002060009054906101000a900460ff169050919050565b600a81565b60008080549050600a61042b9190610e46565b905090565b662386f26fc100003414610470576040517f440523d000000000000000000000000000000000000000000000000000000000815260040160405180910390fd5b600460003373ffffffffffffffffffffffffffffffffffffffff1673ffffffffffffffffffffffffffffffffffffffff16815260200190815260200160002060009054906101000a900460ff16156104f3576040517e3b268200000000000000000000000000000000000000000000000000000000815260040160405180910390fd5b600a60008054905010610532576040517f29a9e72800000000000000000000000000000000000000000000000000000000815260040160405180910390fd5b6000339080600181540180825580915050600190039060005260206000200160009091909190916101000a81548173ffffffffffffffffffffffffffffffffffffffff021916908373ffffffffffffffffffffffffffffffffffffffff1602179055506001600460003373ffffffffffffffffffffffffffffffffffffffff1673ffffffffffffffffffffffffffffffffffffffff16815260200190815260200160002060006101000a81548160ff02191690831515021790555034600260008282546105ff9190610e7a565b925050819055503373ffffffffffffffffffffffffffffffffffffffff167fc9b3932fab18f6ac6d50cac9682ed0c164ce31d2505f3571323a0cf5902dd68c600354600080549050604051610655929190610eae565b60405180910390a2600a60008054905003610673576106726107f1565b5b565b600047905090565b60025481565b60046020528060005260406000206000915054906101000a900460ff1681565b6000600254905090565b6060600080548060200260200160405190810160405280929190818152602001828054801561073157602002820191906000526020600020905b8160009054906101000a900473ffffffffffffffffffffffffffffffffffffffff1673ffffffffffffffffffffffffffffffffffffffff16815260200190600101908083116106e7575b5050505050905090565b6000600354905090565b60008080549050905090565b600160009054906101000a900473ffffffffffffffffffffffffffffffffffffffff1681565b60035481565b662386f26fc1000081565b6000818154811061079857600080fd5b906000526020600020016000915054906101000a900473ffffffffffffffffffffffffffffffffffffffff1681565b6000600160009054906101000a900473ffffffffffffffffffffffffffffffffffffffff16905090565b600080805490500361082f576040517fbe53992900000000000000000000000000000000000000000000000000000000815260040160405180910390fd5b6000808054905061083e610a27565b6108489190610f06565b90506000818154811061085e5761085d610f37565b5b9060005260206000200160009054906101000a900473ffffffffffffffffffffffffffffffffffffffff16600160006101000a81548173ffffffffffffffffffffffffffffffffffffffff021916908373ffffffffffffffffffffffffffffffffffffffff160217905550600060025490506000600281905550600160009054906101000a900473ffffffffffffffffffffffffffffffffffffffff1673ffffffffffffffffffffffffffffffffffffffff167f866efae43947560fe9d0de9013bc323d5718730d5c1543261b48a7bcb0717b9382600354604051610944929190610eae565b60405180910390a26000600160009054906101000a900473ffffffffffffffffffffffffffffffffffffffff1673ffffffffffffffffffffffffffffffffffffffff168260405161099490610f97565b60006040518083038185875af1925050503d80600081146109d1576040519150601f19603f3d011682016040523d82523d6000602084013e6109d6565b606091505b5050905080610a1a576040517f08c379a0000000000000000000000000000000000000000000000000000000008152600401610a1190611009565b60405180910390fd5b610a22610a63565b505050565b6000424460008054905033604051602001610a459493929190611092565b6040516020818303038152906040528051906020012060001c905090565b60005b600080549050811015610b1b57600060046000808481548110610a8c57610a8b610f37565b5b9060005260206000200160009054906101000a900473ffffffffffffffffffffffffffffffffffffffff1673ffffffffffffffffffffffffffffffffffffffff1673ffffffffffffffffffffffffffffffffffffffff16815260200190815260200160002060006101000a81548160ff0219169083151502179055508080610b13906110e0565b915050610a66565b50600080610b299190610b7c565b60036000815480929190610b3c906110e0565b91905055507f6564d21026f38ac4bc4ef082b01864f3ae6869e139a373fdf664a27a6c6dbebb600354604051610b729190610c99565b60405180910390a1565b5080546000825590600052602060002090810190610b9a9190610b9d565b50565b5b80821115610bb6576000816000905550600101610b9e565b5090565b600080fd5b600073ffffffffffffffffffffffffffffffffffffffff82169050919050565b6000610bea82610bbf565b9050919050565b610bfa81610bdf565b8114610c0557600080fd5b50565b600081359050610c1781610bf1565b92915050565b600060208284031215610c3357610c32610bba565b5b6000610c4184828501610c08565b91505092915050565b60008115159050919050565b610c5f81610c4a565b82525050565b6000602082019050610c7a6000830184610c56565b92915050565b6000819050919050565b610c9381610c80565b82525050565b6000602082019050610cae6000830184610c8a565b92915050565b600081519050919050565b600082825260208201905092915050565b6000819050602082019050919050565b610ce981610bdf565b82525050565b6000610cfb8383610ce0565b60208301905092915050565b6000602082019050919050565b6000610d1f82610cb4565b610d298185610cbf565b9350610d3483610cd0565b8060005b83811015610d65578151610d4c8882610cef565b9750610d5783610d07565b925050600181019050610d38565b5085935050505092915050565b60006020820190508181036000830152610d8c8184610d14565b905092915050565b610d9d81610bdf565b82525050565b6000602082019050610db86000830184610d94565b92915050565b610dc781610c80565b8114610dd257600080fd5b50565b600081359050610de481610dbe565b92915050565b600060208284031215610e0057610dff610bba565b5b6000610e0e84828501610dd5565b91505092915050565b7f4e487b7100000000000000000000000000000000000000000000000000000000600052601160045260246000fd5b6000610e5182610c80565b9150610e5c83610c80565b9250828203905081811115610e7457610e73610e17565b5b92915050565b6000610e8582610c80565b9150610e9083610c80565b9250828201905080821115610ea857610ea7610e17565b5b92915050565b6000604082019050610ec36000830185610c8a565b610ed06020830184610c8a565b9392505050565b7f4e487b7100000000000000000000000000000000000000000000000000000000600052601260045260246000fd5b6000610f1182610c80565b9150610f1c83610c80565b925082610f2c57610f2b610ed7565b5b828206905092915050565b7f4e487b7100000000000000000000000000000000000000000000000000000000600052603260045260246000fd5b600081905092915050565b50565b6000610f81600083610f66565b9150610f8c82610f71565b600082019050919050565b6000610fa282610f74565b9150819050919050565b600082825260208201905092915050565b7f5072697a65207472616e73666572206661696c65640000000000000000000000600082015250565b6000610ff3601583610fac565b9150610ffe82610fbd565b602082019050919050565b6000602082019050818103600083015261102281610fe6565b9050919050565b6000819050919050565b61104461103f82610c80565b611029565b82525050565b60008160601b9050919050565b60006110628261104a565b9050919050565b600061107482611057565b9050919050565b61108c61108782610bdf565b611069565b82525050565b600061109e8287611033565b6020820191506110ae8286611033565b6020820191506110be8285611033565b6020820191506110ce828461107b565b60148201915081905095945050505050565b60006110eb82610c80565b91507fffffffffffffffffffffffffffffffffffffffffffffffffffffffffffffffff820361111d5761111c610e17565b5b60018201905091905056fea2646970667358221220c08acb5abb9151c5c75ecbbaff496ac52744e6984d6db65458c00bdeff67548f64736f6c63430008140033",
  "linkReferences": {},
  "deployedLinkReferences": {}
}