{
  "_format": "hh-sol-artifact-1",
  "contractName": "TokenGatedDAO",
  "sourceName": "contracts/TokenGatedDAO.sol",
  "abi": [
    {
      "inputs": [
        {
          "internalType": "address",
          "name": "_nftContract",
          "type": "address"
        },
        {
          "internalType": "address",
          "name": "_rolesRegistry",
          "type": "address"
        }
      ],
      "stateMutability": "nonpayable",
      "type": "constructor"
    },
    {
      "anonymous": false,
      "inputs": [
        {
          "indexed": true,
          "internalType": "uint256",
          "name": "proposalId",
          "type": "uint256"
        },
        {
          "indexed": false,
          "internalType": "address",
          "name": "creator",
          "type": "address"
        },
        {
          "indexed": false,
          "internalType": "string",
          "name": "description",
          "type": "string"
        },
        {
          "indexed": false,
          "internalType": "uint256",
          "name": "deadline",
          "type": "uint256"
        }
      ],
      "name": "ProposalCreated",
      "type": "event"
    },
    {
      "anonymous": false,
      "inputs": [
        {
          "indexed": true,
          "internalType": "uint256",
          "name": "proposalId",
          "type": "uint256"
        },
        {
          "indexed": false,
          "internalType": "address",
          "name": "voter",
          "type": "address"
        },
        {
          "indexed": false,
          "internalType": "bool",
          "name": "support",
          "type": "bool"
        }
      ],
      "name": "Voted",
      "type": "event"
    },
    {
      "inputs": [],
      "name": "MEMBER_ROLE",
      "outputs": [
        {
          "internalType": "bytes32",
          "name": "",
          "type": "bytes32"
        }
      ],
      "stateMutability": "view",
      "type": "function"
    },
    {
      "inputs": [
        {
          "internalType": "address",
          "name": "account",
          "type": "address"
        }
      ],
      "name": "hasMemberRole",
      "outputs": [
        {
          "internalType": "bool",
          "name": "",
          "type": "bool"
        }
      ],
      "stateMutability": "view",
      "type": "function"
    },
    {
      "inputs": [],
      "name": "nftContract",
      "outputs": [
        {
          "internalType": "address",
          "name": "",
          "type": "address"
        }
      ],
      "stateMutability": "view",
      "type": "function"
    },
    {
      "inputs": [],
      "name": "proposalCount",
      "outputs": [
        {
          "internalType": "uint256",
          "name": "",
          "type": "uint256"
        }
      ],
      "stateMutability": "view",
      "type": "function"
    },
    {
      "inputs": [
        {
          "internalType": "uint256",
          "name": "",
          "type": "uint256"
        }
      ],
      "name": "proposals",
      "outputs": [
        {
          "internalType": "address",
          "name": "creator",
          "type": "address"
        },
        {
          "internalType": "string",
          "name": "description",
          "type": "string"
        },
        {
          "internalType": "uint256",
          "name": "forVotes",
          "type": "uint256"
        },
        {
          "internalType": "uint256",
          "name": "againstVotes",
          "type": "uint256"
        },
        {
          "internalType": "bool",
          "name": "executed",
          "type": "bool"
        },
        {
          "internalType": "uint256",
          "name": "deadline",
          "type": "uint256"
        }
      ],
      "stateMutability": "view",
      "type": "function"
    },
    {
      "inputs": [
        {
          "internalType": "string",
          "name": "description",
          "type": "string"
        }
      ],
      "name": "propose",
      "outputs": [
        {
          "internalType": "uint256",
          "name": "",
          "type": "uint256"
        }
      ],
      "stateMutability": "nonpayable",
      "type": "function"
    },
    {
      "inputs": [],
      "name": "rolesRegistry",
      "outputs": [
        {
          "internalType": "address",
          "name": "",
          "type": "address"
        }
      ],
      "stateMutability": "view",
      "type": "function"
    },
    {
      "inputs": [
        {
          "internalType": "uint256",
          "name": "proposalId",
          "type": "uint256"
        },
        {
          "internalType": "bool",
          "name": "support",
          "type": "bool"
        }
      ],
      "name": "vote",
      "outputs": [],
      "stateMutability": "nonpayable",
      "type": "function"
    }
  ],
  "bytecode": "0x608060405234801561001057600080fd5b506040516116c93803806116c98339818101604052810190610032919061011d565b816000806101000a81548173ffffffffffffffffffffffffffffffffffffffff021916908373ffffffffffffffffffffffffffffffffffffffff16021790555080600160006101000a81548173ffffffffffffffffffffffffffffffffffffffff021916908373ffffffffffffffffffffffffffffffffffffffff160217905550505061015d565b600080fd5b600073ffffffffffffffffffffffffffffffffffffffff82169050919050565b60006100ea826100bf565b9050919050565b6100fa816100df565b811461010557600080fd5b50565b600081519050610117816100f1565b92915050565b60008060408385031215610134576101336100ba565b5b600061014285828601610108565b925050602061015385828601610108565b9150509250929050565b61155d8061016c6000396000f3fe608060405234801561001057600080fd5b50600436106100885760003560e01c8063b81734141161005b578063b817341414610140578063c9d27afe1461015e578063d56d229d1461017a578063da35c6641461019857610088565b8063013cf08b1461008d578063056909b7146100c2578063a10f469e146100f2578063aa98df3914610110575b600080fd5b6100a760048036038101906100a29190610a49565b6101b6565b6040516100b996959493929190610b71565b60405180910390f35b6100dc60048036038101906100d79190610c05565b6102a7565b6040516100e99190610c32565b60405180910390f35b6100fa6105bc565b6040516101079190610c66565b60405180910390f35b61012a60048036038101906101259190610db6565b6105e0565b6040516101379190610dff565b60405180910390f35b6101486107a1565b6040516101559190610e1a565b60405180910390f35b61017860048036038101906101739190610e61565b6107c7565b005b6101826109d5565b60405161018f9190610e1a565b60405180910390f35b6101a06109f9565b6040516101ad9190610dff565b60405180910390f35b60026020528060005260406000206000915090508060000160009054906101000a900473ffffffffffffffffffffffffffffffffffffffff16908060010180546101ff90610ed0565b80601f016020809104026020016040519081016040528092919081815260200182805461022b90610ed0565b80156102785780601f1061024d57610100808354040283529160200191610278565b820191906000526020600020905b81548152906001019060200180831161025b57829003601f168201915b5050505050908060020154908060030154908060040160009054906101000a900460ff16908060050154905086565b600080600190505b606481116105b15760008054906101000a900473ffffffffffffffffffffffffffffffffffffffff1673ffffffffffffffffffffffffffffffffffffffff16636352211e826040518263ffffffff1660e01b81526004016103109190610dff565b602060405180830381865afa92505050801561034a57506040513d601f19601f820116820180604052508101906103479190610f16565b60015b1561059e578373ffffffffffffffffffffffffffffffffffffffff168173ffffffffffffffffffffffffffffffffffffffff160361059c576000600160009054906101000a900473ffffffffffffffffffffffffffffffffffffffff1673ffffffffffffffffffffffffffffffffffffffff16633f916b4860008054906101000a900473ffffffffffffffffffffffffffffffffffffffff16857fffa60083152bd11704a80cc8c7a409dad8aa74288b454a3ba0e94c0abc7cf1686040518463ffffffff1660e01b815260040161042393929190610f43565b602060405180830381865afa158015610440573d6000803e3d6000fd5b505050506040513d601f19601f820116820180604052508101906104649190610f16565b90508473ffffffffffffffffffffffffffffffffffffffff168173ffffffffffffffffffffffffffffffffffffffff161480156105895750600160009054906101000a900473ffffffffffffffffffffffffffffffffffffffff1673ffffffffffffffffffffffffffffffffffffffff166365b0205b60008054906101000a900473ffffffffffffffffffffffffffffffffffffffff16857fffa60083152bd11704a80cc8c7a409dad8aa74288b454a3ba0e94c0abc7cf1686040518463ffffffff1660e01b815260040161053b93929190610f43565b602060405180830381865afa158015610558573d6000803e3d6000fd5b505050506040513d601f19601f8201168201806040525081019061057c9190610fba565b67ffffffffffffffff1642105b1561059a57600193505050506105b7565b505b505b80806105a990611016565b9150506102af565b50600090505b919050565b7fffa60083152bd11704a80cc8c7a409dad8aa74288b454a3ba0e94c0abc7cf16881565b60006105eb336102a7565b61062a576040517f08c379a0000000000000000000000000000000000000000000000000000000008152600401610621906110aa565b60405180910390fd5b6003600081548092919061063d90611016565b91905055506040518060c001604052803373ffffffffffffffffffffffffffffffffffffffff1681526020018381526020016000815260200160008152602001600015158152602001620151804261069591906110ca565b81525060026000600354815260200190815260200160002060008201518160000160006101000a81548173ffffffffffffffffffffffffffffffffffffffff021916908373ffffffffffffffffffffffffffffffffffffffff160217905550602082015181600101908161070991906112aa565b50604082015181600201556060820151816003015560808201518160040160006101000a81548160ff02191690831515021790555060a082015181600501559050506003547f98120a6aaa04295520ab4e01c6c1235dd316e822cc9ff31db7b3f197366d18bd3384620151804261078091906110ca565b60405161078f9392919061137c565b60405180910390a26003549050919050565b600160009054906101000a900473ffffffffffffffffffffffffffffffffffffffff1681565b6107d0336102a7565b61080f576040517f08c379a0000000000000000000000000000000000000000000000000000000008152600401610806906110aa565b60405180910390fd5b6000600260008481526020019081526020016000209050600073ffffffffffffffffffffffffffffffffffffffff168160000160009054906101000a900473ffffffffffffffffffffffffffffffffffffffff1673ffffffffffffffffffffffffffffffffffffffff16036108b9576040517f08c379a00000000000000000000000000000000000000000000000000000000081526004016108b090611406565b60405180910390fd5b8060050154421115610900576040517f08c379a00000000000000000000000000000000000000000000000000000000081526004016108f790611472565b60405180910390fd5b8060040160009054906101000a900460ff1615610952576040517f08c379a0000000000000000000000000000000000000000000000000000000008152600401610949906114de565b60405180910390fd5b811561097957600181600201600082825461096d91906110ca565b92505081905550610996565b600181600301600082825461098e91906110ca565b925050819055505b827ff2913dbe661ee2acc4a046d8fbcdc792373bda34c41c6086484b5345e5785e5f33846040516109c89291906114fe565b60405180910390a2505050565b60008054906101000a900473ffffffffffffffffffffffffffffffffffffffff1681565b60035481565b6000604051905090565b600080fd5b600080fd5b6000819050919050565b610a2681610a13565b8114610a3157600080fd5b50565b600081359050610a4381610a1d565b92915050565b600060208284031215610a5f57610a5e610a09565b5b6000610a6d84828501610a34565b91505092915050565b600073ffffffffffffffffffffffffffffffffffffffff82169050919050565b6000610aa182610a76565b9050919050565b610ab181610a96565b82525050565b600081519050919050565b600082825260208201905092915050565b60005b83811015610af1578082015181840152602081019050610ad6565b60008484015250505050565b6000601f19601f8301169050919050565b6000610b1982610ab7565b610b238185610ac2565b9350610b33818560208601610ad3565b610b3c81610afd565b840191505092915050565b610b5081610a13565b82525050565b60008115159050919050565b610b6b81610b56565b82525050565b600060c082019050610b866000830189610aa8565b8181036020830152610b988188610b0e565b9050610ba76040830187610b47565b610bb46060830186610b47565b610bc16080830185610b62565b610bce60a0830184610b47565b979650505050505050565b610be281610a96565b8114610bed57600080fd5b50565b600081359050610bff81610bd9565b92915050565b600060208284031215610c1b57610c1a610a09565b5b6000610c2984828501610bf0565b91505092915050565b6000602082019050610c476000830184610b62565b92915050565b6000819050919050565b610c6081610c4d565b82525050565b6000602082019050610c7b6000830184610c57565b92915050565b600080fd5b600080fd5b7f4e487b7100000000000000000000000000000000000000000000000000000000600052604160045260246000fd5b610cc382610afd565b810181811067ffffffffffffffff82111715610ce257610ce1610c8b565b5b80604052505050565b6000610cf56109ff565b9050610d018282610cba565b919050565b600067ffffffffffffffff821115610d2157610d20610c8b565b5b610d2a82610afd565b9050602081019050919050565b82818337600083830152505050565b6000610d59610d5484610d06565b610ceb565b905082815260208101848484011115610d7557610d74610c86565b5b610d80848285610d37565b509392505050565b600082601f830112610d9d57610d9c610c81565b5b8135610dad848260208601610d46565b91505092915050565b600060208284031215610dcc57610dcb610a09565b5b600082013567ffffffffffffffff811115610dea57610de9610a0e565b5b610df684828501610d88565b91505092915050565b6000602082019050610e146000830184610b47565b92915050565b6000602082019050610e2f6000830184610aa8565b92915050565b610e3e81610b56565b8114610e4957600080fd5b50565b600081359050610e5b81610e35565b92915050565b60008060408385031215610e7857610e77610a09565b5b6000610e8685828601610a34565b9250506020610e9785828601610e4c565b9150509250929050565b7f4e487b7100000000000000000000000000000000000000000000000000000000600052602260045260246000fd5b60006002820490506001821680610ee857607f821691505b602082108103610efb57610efa610ea1565b5b50919050565b600081519050610f1081610bd9565b92915050565b600060208284031215610f2c57610f2b610a09565b5b6000610f3a84828501610f01565b91505092915050565b6000606082019050610f586000830186610aa8565b610f656020830185610b47565b610f726040830184610c57565b949350505050565b600067ffffffffffffffff82169050919050565b610f9781610f7a565b8114610fa257600080fd5b50565b600081519050610fb481610f8e565b92915050565b600060208284031215610fd057610fcf610a09565b5b6000610fde84828501610fa5565b91505092915050565b7f4e487b7100000000000000000000000000000000000000000000000000000000600052601160045260246000fd5b600061102182610a13565b91507fffffffffffffffffffffffffffffffffffffffffffffffffffffffffffffffff820361105357611052610fe7565b5b600182019050919050565b7f4d7573742068617665204d454d42455220726f6c650000000000000000000000600082015250565b6000611094601583610ac2565b915061109f8261105e565b602082019050919050565b600060208201905081810360008301526110c381611087565b9050919050565b60006110d582610a13565b91506110e083610a13565b92508282019050808211156110f8576110f7610fe7565b5b92915050565b60008190508160005260206000209050919050565b60006020601f8301049050919050565b600082821b905092915050565b6000600883026111607fffffffffffffffffffffffffffffffffffffffffffffffffffffffffffffffff82611123565b61116a8683611123565b95508019841693508086168417925050509392505050565b6000819050919050565b60006111a76111a261119d84610a13565b611182565b610a13565b9050919050565b6000819050919050565b6111c18361118c565b6111d56111cd826111ae565b848454611130565b825550505050565b600090565b6111ea6111dd565b6111f58184846111b8565b505050565b5b818110156112195761120e6000826111e2565b6001810190506111fb565b5050565b601f82111561125e5761122f816110fe565b61123884611113565b81016020851015611247578190505b61125b61125385611113565b8301826111fa565b50505b505050565b600082821c905092915050565b600061128160001984600802611263565b1980831691505092915050565b600061129a8383611270565b9150826002028217905092915050565b6112b382610ab7565b67ffffffffffffffff8111156112cc576112cb610c8b565b5b6112d68254610ed0565b6112e182828561121d565b600060209050601f8311600181146113145760008415611302578287015190505b61130c858261128e565b865550611374565b601f198416611322866110fe565b60005b8281101561134a57848901518255600182019150602085019450602081019050611325565b868310156113675784890151611363601f891682611270565b8355505b6001600288020188555050505b505050505050565b60006060820190506113916000830186610aa8565b81810360208301526113a38185610b0e565b90506113b26040830184610b47565b949350505050565b7f50726f706f73616c20646f6573206e6f74206578697374000000000000000000600082015250565b60006113f0601783610ac2565b91506113fb826113ba565b602082019050919050565b6000602082019050818103600083015261141f816113e3565b9050919050565b7f566f74696e6720706572696f6420656e64656400000000000000000000000000600082015250565b600061145c601383610ac2565b915061146782611426565b602082019050919050565b6000602082019050818103600083015261148b8161144f565b9050919050565b7f50726f706f73616c20616c726561647920657865637574656400000000000000600082015250565b60006114c8601983610ac2565b91506114d382611492565b602082019050919050565b600060208201905081810360008301526114f7816114bb565b9050919050565b60006040820190506115136000830185610aa8565b6115206020830184610b62565b939250505056fea2646970667358221220eafc2a380319e942736e5928bb6a7d08c7deaae34ba6f7afeda55991e4a75e9b64736f6c634300081c0033",
  "linkReferences": {},
  "deployedLinkReferences": {}
}