{"contracts/Employee.sol":{"Employee":{"abi":[{"inputs":[],"stateMutability":"nonpayable","type":"constructor"},{"inputs":[],"name":"AmountExceedsSalary","type":"error"},{"inputs":[],"name":"CannotSelfDisburse","type":"error"},{"inputs":[],"name":"InsufficientBalance","type":"error"},{"inputs":[],"name":"TransferFailed","type":"error"},{"inputs":[],"name":"UserAlreadyExist","type":"error"},{"inputs":[],"name":"UserNotFound","type":"error"},{"anonymous":false,"inputs":[{"indexed":true,"internalType":"address","name":"employee","type":"address"},{"indexed":false,"internalType":"uint256","name":"amount","type":"uint256"}],"name":"SalaryPaid","type":"event"},{"stateMutability":"payable","type":"fallback"},{"inputs":[{"internalType":"address payable","name":"_employee","type":"address"},{"internalType":"uint256","name":"_amount","type":"uint256"}],"name":"disburseSalary","outputs":[],"stateMutability":"payable","type":"function"},{"inputs":[],"name":"getAllUsers","outputs":[{"components":[{"internalType":"string","name":"name","type":"string"},{"internalType":"bool","name":"isEmployed","type":"bool"},{"internalType":"enum Storage.Role","name":"role","type":"uint8"},{"internalType":"uint256","name":"salary","type":"uint256"},{"internalType":"uint256","name":"paidSoFar","type":"uint256"}],"internalType":"struct Storage.Employee[]","name":"","type":"tuple[]"}],"stateMutability":"view","type":"function"},{"inputs":[{"internalType":"address","name":"_owner","type":"address"}],"name":"getUser","outputs":[{"components":[{"internalType":"string","name":"name","type":"string"},{"internalType":"bool","name":"isEmployed","type":"bool"},{"internalType":"enum Storage.Role","name":"role","type":"uint8"},{"internalType":"uint256","name":"salary","type":"uint256"},{"internalType":"uint256","name":"paidSoFar","type":"uint256"}],"internalType":"struct Storage.Employee","name":"","type":"tuple"}],"stateMutability":"view","type":"function"},{"inputs":[],"name":"owner","outputs":[{"internalType":"address","name":"","type":"address"}],"stateMutability":"view","type":"function"},{"inputs":[{"internalType":"string","name":"_name","type":"string"},{"internalType":"enum Storage.Role","name":"_role","type":"uint8"},{"internalType":"uint256","name":"_salary","type":"uint256"}],"name":"registerUser","outputs":[],"stateMutability":"nonpayable","type":"function"},{"inputs":[{"internalType":"address","name":"_employee","type":"address"}],"name":"remainingSalary","outputs":[{"internalType":"uint256","name":"","type":"uint256"}],"stateMutability":"view","type":"function"},{"inputs":[{"internalType":"string","name":"_name","type":"string"},{"internalType":"enum Storage.Role","name":"_role","type":"uint8"},{"internalType":"bool","name":"_isEmployed","type":"bool"},{"internalType":"uint256","name":"_salary","type":"uint256"}],"name":"updateUser","outputs":[],"stateMutability":"nonpayable","type":"function"},{"inputs":[{"internalType":"address payable","name":"_to","type":"address"},{"internalType":"uint256","name":"_amount","type":"uint256"}],"name":"withdraw","outputs":[],"stateMutability":"nonpayable","type":"function"},{"stateMutability":"payable","type":"receive"}],"evm":{"bytecode":{"linkReferences":{},"object":"6080604052348015600f57600080fd5b50602867ffb877859c00d60a60c01b608460201b60201c565b604067afb61d9fca2bc76860c01b608460201b60201c565b336000806101000a81548173ffffffffffffffffffffffffffffffffffffffff021916908373ffffffffffffffffffffffffffffffffffffffff1602179055506087565b50565b612479806100966000396000f3fe60806040526004361061007f5760003560e01c8063bba2270a1161004e578063bba2270a1461016a578063e2842d7914610186578063e74d533e146101b1578063f3fef3a3146101da57610086565b80631fc82d911461009c578063269842e1146100c55780636f77926b146101025780638da5cb5b1461013f57610086565b3661008657005b61009a67ffd77e98bc21ca0c60c01b610203565b005b3480156100a857600080fd5b506100c360048036038101906100be9190611a1b565b610206565b005b3480156100d157600080fd5b506100ec60048036038101906100e79190611afc565b610376565b6040516100f99190611b38565b60405180910390f35b34801561010e57600080fd5b5061012960048036038101906101249190611afc565b610579565b6040516101369190611cdd565b60405180910390f35b34801561014b57600080fd5b50610154610741565b6040516101619190611d0e565b60405180910390f35b610184600480360381019061017f9190611d67565b610765565b005b34801561019257600080fd5b5061019b610ebf565b6040516101a89190611edf565b60405180910390f35b3480156101bd57600080fd5b506101d860048036038101906101d39190611f01565b6111e9565b005b3480156101e657600080fd5b5061020160048036038101906101fc9190611d67565b6114b5565b005b50565b61021a672ecec015470f88bd60c01b610203565b61022e67a94c33a0a39cc80060c01b610203565b61024267cb8755f6bb7fe53c60c01b610203565b600061024c6117be565b9050610262677110af9d91fa4bfd60c01b610203565b610276674235f66f9741441260c01b610203565b60008160000160003373ffffffffffffffffffffffffffffffffffffffff1673ffffffffffffffffffffffffffffffffffffffff16815260200190815260200160002090506102cf672f104f69a9840fb860c01b610203565b858160000190816102e0919061217c565b506102f5675da379112c286bf960c01b610203565b848160010160016101000a81548160ff0219169083600281111561031c5761031b611be1565b5b0217905550610335675665b892e3c8295960c01b610203565b838160010160006101000a81548160ff021916908315150217905550610365676e7b31b7cc02169660c01b610203565b828160020181905550505050505050565b600061038c67033be18017c2711e60c01b610203565b6103a067283f2f7ab48f0ead60c01b610203565b6103b467f4442cc5096cd3a860c01b610203565b60006103be6117be565b90506103d4676593f8e25272088c60c01b610203565b6103e8679aa9541059063ce160c01b610203565b60008160000160008573ffffffffffffffffffffffffffffffffffffffff1673ffffffffffffffffffffffffffffffffffffffff1681526020019081526020016000206040518060a001604052908160008201805461044690611f9f565b80601f016020809104026020016040519081016040528092919081815260200182805461047290611f9f565b80156104bf5780601f10610494576101008083540402835291602001916104bf565b820191906000526020600020905b8154815290600101906020018083116104a257829003601f168201915b505050505081526020016001820160009054906101000a900460ff161515151581526020016001820160019054906101000a900460ff16600281111561050857610507611be1565b5b600281111561051a57610519611be1565b5b81526020016002820154815260200160038201548152505090506105486727759df3cf30fb9c60c01b610203565b61055c677cc4bb520e58edcf60c01b610203565b80608001518160600151610570919061227d565b92505050919050565b6105816117eb565b61059567db67d7596bb6ccf760c01b610203565b6105a967a54d038413bcaa1860c01b610203565b6105bd67c8a9e53eac7a5e8f60c01b610203565b60006105c76117be565b90506105dd67454e5a38ad1cc78760c01b610203565b6105f167d29b2465a402982860c01b610203565b8060000160008473ffffffffffffffffffffffffffffffffffffffff1673ffffffffffffffffffffffffffffffffffffffff1681526020019081526020016000206040518060a001604052908160008201805461064d90611f9f565b80601f016020809104026020016040519081016040528092919081815260200182805461067990611f9f565b80156106c65780601f1061069b576101008083540402835291602001916106c6565b820191906000526020600020905b8154815290600101906020018083116106a957829003601f168201915b505050505081526020016001820160009054906101000a900460ff161515151581526020016001820160019054906101000a900460ff16600281111561070f5761070e611be1565b5b600281111561072157610720611be1565b5b815260200160028201548152602001600382015481525050915050919050565b60008054906101000a900473ffffffffffffffffffffffffffffffffffffffff1681565b610779676365edbbdf6e432560c01b610203565b61078d679ba05c1bf30d119560c01b610203565b6107a16743edb597e0f713de60c01b610203565b6107b5678718a79398f5b15c60c01b610203565b6107c967d755808615dd769a60c01b610203565b60008054906101000a900473ffffffffffffffffffffffffffffffffffffffff1673ffffffffffffffffffffffffffffffffffffffff163373ffffffffffffffffffffffffffffffffffffffff1614610857576040517f08c379a000000000000000000000000000000000000000000000000000000000815260040161084e9061230e565b60405180910390fd5b61086b67818192db633ecae860c01b610203565b61087f67f17dd08688294bc160c01b610203565b6108936759be28b4fd1105e060c01b610203565b6108a7674abe13e0c6dd64c960c01b610203565b6108bb67f92c43eac449309660c01b610203565b6108cf671baaf2290a6aa43f60c01b610203565b60006108d96117be565b90506108ef6793b14592397e9f6760c01b610203565b610903674faba3afe562855a60c01b610203565b60008160000160008573ffffffffffffffffffffffffffffffffffffffff1673ffffffffffffffffffffffffffffffffffffffff1681526020019081526020016000206040518060a001604052908160008201805461096190611f9f565b80601f016020809104026020016040519081016040528092919081815260200182805461098d90611f9f565b80156109da5780601f106109af576101008083540402835291602001916109da565b820191906000526020600020905b8154815290600101906020018083116109bd57829003601f168201915b505050505081526020016001820160009054906101000a900460ff161515151581526020016001820160019054906101000a900460ff166002811115610a2357610a22611be1565b5b6002811115610a3557610a34611be1565b5b8152602001600282015481526020016003820154815250509050610a63676c99a70b6e65d29460c01b610203565b610a77674b919384d5375dc660c01b610203565b8160000160008573ffffffffffffffffffffffffffffffffffffffff1673ffffffffffffffffffffffffffffffffffffffff16815260200190815260200160002060010160009054906101000a900460ff16610b2757610ae167da9999d2417aadb860c01b610203565b610af567182126f0db937c4160c01b610203565b6040517f670a68cc00000000000000000000000000000000000000000000000000000000815260040160405180910390fd5b610b3b67fb920372c156eedf60c01b610203565b610b4f67206d55456a2acaa960c01b610203565b610b6367076dd0cbb0c4a09e60c01b610203565b8373ffffffffffffffffffffffffffffffffffffffff163373ffffffffffffffffffffffffffffffffffffffff1603610bf057610baa67ce8be12a48544df660c01b610203565b610bbe679473de30784776f960c01b610203565b6040517f7bcea4e300000000000000000000000000000000000000000000000000000000815260040160405180910390fd5b610c0467be7762ea69b47fd760c01b610203565b610c1867126e994ed999200160c01b610203565b610c2c67360e3450a02faa1260c01b610203565b8160000160008573ffffffffffffffffffffffffffffffffffffffff1673ffffffffffffffffffffffffffffffffffffffff16815260200190815260200160002060020154831115610cd257610c8c67dd4098d26e6b5a0c60c01b610203565b610ca067506e631546a9a39160c01b610203565b6040517f94ab0f6900000000000000000000000000000000000000000000000000000000815260040160405180910390fd5b610ce667c9b819bc93964ea260c01b610203565b610cfa6784b180dc08657ad260c01b610203565b610d0e67e64ed475e05449e560c01b610203565b60008473ffffffffffffffffffffffffffffffffffffffff1684604051610d349061235f565b60006040518083038185875af1925050503d8060008114610d71576040519150601f19603f3d011682016040523d82523d6000602084013e610d76565b606091505b50509050610d8e677b320deb3e22e80a60c01b610203565b610da267a3fc20a4473eb3d260c01b610203565b80610e0157610dbb67982121b9b56c266b60c01b610203565b610dcf67b7af391a2a6d03a360c01b610203565b6040517f90b8ec1800000000000000000000000000000000000000000000000000000000815260040160405180910390fd5b610e1567c0f31ef2ba5488e360c01b610203565b610e2967cfc5fda56327629960c01b610203565b8382608001818151610e3b9190612374565b91508181525050610e56673310b78c8d2809eb60c01b610203565b610e6a6702e6888f5f9cbf3560c01b610203565b8473ffffffffffffffffffffffffffffffffffffffff167fc0ebfa40c6c89654e46d7c5b0b0c1f8b5d1c65d6612894126714a7b1d6db9a3885604051610eb09190611b38565b60405180910390a25050505050565b6060610ed567bad2cf8e0e1e044f60c01b610203565b610ee96796b469117811ba6860c01b610203565b610efd67052c6748ec88eff760c01b610203565b6000610f076117be565b9050610f1d6766b60ccfee50fd1060c01b610203565b610f3167eaf89549bbdce58460c01b610203565b600081600101805490509050610f5167a62c03bbed0e4fa960c01b610203565b610f6567d643e7a338786c0360c01b610203565b60008167ffffffffffffffff811115610f8157610f8061185d565b5b604051908082528060200260200182016040528015610fba57816020015b610fa76117eb565b815260200190600190039081610f9f5790505b509050610fd167ef5ceac1de212e6860c01b610203565b610fe5678d7a8d9aff20a3ec60c01b610203565b60005b828110156111b75761100467b0d3ea8c0119531760c01b610203565b8360000160008560010183815481106110205761101f6123a8565b5b9060005260206000200160009054906101000a900473ffffffffffffffffffffffffffffffffffffffff1673ffffffffffffffffffffffffffffffffffffffff1673ffffffffffffffffffffffffffffffffffffffff1681526020019081526020016000206040518060a00160405290816000820180546110a090611f9f565b80601f01602080910402602001604051908101604052809291908181526020018280546110cc90611f9f565b80156111195780601f106110ee57610100808354040283529160200191611119565b820191906000526020600020905b8154815290600101906020018083116110fc57829003601f168201915b505050505081526020016001820160009054906101000a900460ff161515151581526020016001820160019054906101000a900460ff16600281111561116257611161611be1565b5b600281111561117457611173611be1565b5b81526020016002820154815260200160038201548152505082828151811061119f5761119e6123a8565b5b60200260200101819052508080600101915050610fe8565b506111cc67cd8d70e1da6af90060c01b610203565b6111e067f43da2baaab49ea760c01b610203565b80935050505090565b6111fd6767c21278c430e76760c01b610203565b6112116790e2862182220eaa60c01b610203565b61122567add632c2ab30fae860c01b610203565b600061122f6117be565b9050611245679929de7db2fde29460c01b610203565b611259674193dcb36c2bb87e60c01b610203565b60008160000160003373ffffffffffffffffffffffffffffffffffffffff1673ffffffffffffffffffffffffffffffffffffffff16815260200190815260200160002060020154146112ff576112b967b809aa0c23dad32760c01b610203565b6112cd6708e2a83ac0f5988f60c01b610203565b6040517f3ee20b6900000000000000000000000000000000000000000000000000000000815260040160405180910390fd5b61131367c54c5258dda35fe660c01b610203565b6113276769479cd248191cb460c01b610203565b6040518060a0016040528085815260200160011515815260200184600281111561135457611353611be1565b5b815260200183815260200160008152508160000160003373ffffffffffffffffffffffffffffffffffffffff1673ffffffffffffffffffffffffffffffffffffffff16815260200190815260200160002060008201518160000190816113ba919061217c565b5060208201518160010160006101000a81548160ff02191690831515021790555060408201518160010160016101000a81548160ff0219169083600281111561140657611405611be1565b5b021790555060608201518160020155608082015181600301559050506114366774baa78819f30abe60c01b610203565b61144a67a79542c2256c6a1260c01b610203565b80600101339080600181540180825580915050600190039060005260206000200160009091909190916101000a81548173ffffffffffffffffffffffffffffffffffffffff021916908373ffffffffffffffffffffffffffffffffffffffff16021790555050505050565b6114c967ca71953ed0bf338a60c01b610203565b6114dd679ba05c1bf30d119560c01b610203565b6114f16743edb597e0f713de60c01b610203565b611505678718a79398f5b15c60c01b610203565b61151967d755808615dd769a60c01b610203565b60008054906101000a900473ffffffffffffffffffffffffffffffffffffffff1673ffffffffffffffffffffffffffffffffffffffff163373ffffffffffffffffffffffffffffffffffffffff16146115a7576040517f08c379a000000000000000000000000000000000000000000000000000000000815260040161159e9061230e565b60405180910390fd5b6115bb67818192db633ecae860c01b610203565b6115cf67f17dd08688294bc160c01b610203565b6115e36721d12db1e6f1966260c01b610203565b6115f767fbb272fcddaeece360c01b610203565b61160b67412fa319f9030a8460c01b610203565b61161f67638dc4f0a8831d4f60c01b610203565b804710156116815761163b674ad212617f35bcf060c01b610203565b61164f676cbc39832a13c4d260c01b610203565b6040517ff4d678b800000000000000000000000000000000000000000000000000000000815260040160405180910390fd5b61169567d18ebe401d82f29060c01b610203565b6116a9678fafdcd48456b27e60c01b610203565b6116bd6732a24cd8b5e61e4f60c01b610203565b60008273ffffffffffffffffffffffffffffffffffffffff16826040516116e39061235f565b60006040518083038185875af1925050503d8060008114611720576040519150601f19603f3d011682016040523d82523d6000602084013e611725565b606091505b5050905061173d677312735da607ad2f60c01b610203565b611751674aecc79c5f444e3060c01b610203565b61176567cfb8fe6aebdf72a460c01b610203565b806117a5576040517f08c379a000000000000000000000000000000000000000000000000000000000815260040161179c90612423565b60405180910390fd5b6117b96726eba5b71f7d9b1e60c01b610203565b505050565b6000807f2b422603d65e337ae26a027b7118948d11570638c557bbdc495c4f3504e05b1e90508091505090565b6040518060a00160405280606081526020016000151581526020016000600281111561181a57611819611be1565b5b815260200160008152602001600081525090565b6000604051905090565b600080fd5b600080fd5b600080fd5b600080fd5b6000601f19601f8301169050919050565b7f4e487b7100000000000000000000000000000000000000000000000000000000600052604160045260246000fd5b6118958261184c565b810181811067ffffffffffffffff821117156118b4576118b361185d565b5b80604052505050565b60006118c761182e565b90506118d3828261188c565b919050565b600067ffffffffffffffff8211156118f3576118f261185d565b5b6118fc8261184c565b9050602081019050919050565b82818337600083830152505050565b600061192b611926846118d8565b6118bd565b90508281526020810184848401111561194757611946611847565b5b611952848285611909565b509392505050565b600082601f83011261196f5761196e611842565b5b813561197f848260208601611918565b91505092915050565b6003811061199557600080fd5b50565b6000813590506119a781611988565b92915050565b60008115159050919050565b6119c2816119ad565b81146119cd57600080fd5b50565b6000813590506119df816119b9565b92915050565b6000819050919050565b6119f8816119e5565b8114611a0357600080fd5b50565b600081359050611a15816119ef565b92915050565b60008060008060808587031215611a3557611a34611838565b5b600085013567ffffffffffffffff811115611a5357611a5261183d565b5b611a5f8782880161195a565b9450506020611a7087828801611998565b9350506040611a81878288016119d0565b9250506060611a9287828801611a06565b91505092959194509250565b600073ffffffffffffffffffffffffffffffffffffffff82169050919050565b6000611ac982611a9e565b9050919050565b611ad981611abe565b8114611ae457600080fd5b50565b600081359050611af681611ad0565b92915050565b600060208284031215611b1257611b11611838565b5b6000611b2084828501611ae7565b91505092915050565b611b32816119e5565b82525050565b6000602082019050611b4d6000830184611b29565b92915050565b600081519050919050565b600082825260208201905092915050565b60005b83811015611b8d578082015181840152602081019050611b72565b60008484015250505050565b6000611ba482611b53565b611bae8185611b5e565b9350611bbe818560208601611b6f565b611bc78161184c565b840191505092915050565b611bdb816119ad565b82525050565b7f4e487b7100000000000000000000000000000000000000000000000000000000600052602160045260246000fd5b60038110611c2157611c20611be1565b5b50565b6000819050611c3282611c10565b919050565b6000611c4282611c24565b9050919050565b611c5281611c37565b82525050565b611c61816119e5565b82525050565b600060a0830160008301518482036000860152611c848282611b99565b9150506020830151611c996020860182611bd2565b506040830151611cac6040860182611c49565b506060830151611cbf6060860182611c58565b506080830151611cd26080860182611c58565b508091505092915050565b60006020820190508181036000830152611cf78184611c67565b905092915050565b611d0881611abe565b82525050565b6000602082019050611d236000830184611cff565b92915050565b6000611d3482611a9e565b9050919050565b611d4481611d29565b8114611d4f57600080fd5b50565b600081359050611d6181611d3b565b92915050565b60008060408385031215611d7e57611d7d611838565b5b6000611d8c85828601611d52565b9250506020611d9d85828601611a06565b9150509250929050565b600081519050919050565b600082825260208201905092915050565b6000819050602082019050919050565b600060a0830160008301518482036000860152611df08282611b99565b9150506020830151611e056020860182611bd2565b506040830151611e186040860182611c49565b506060830151611e2b6060860182611c58565b506080830151611e3e6080860182611c58565b508091505092915050565b6000611e558383611dd3565b905092915050565b6000602082019050919050565b6000611e7582611da7565b611e7f8185611db2565b935083602082028501611e9185611dc3565b8060005b85811015611ecd5784840389528151611eae8582611e49565b9450611eb983611e5d565b925060208a01995050600181019050611e95565b50829750879550505050505092915050565b60006020820190508181036000830152611ef98184611e6a565b905092915050565b600080600060608486031215611f1a57611f19611838565b5b600084013567ffffffffffffffff811115611f3857611f3761183d565b5b611f448682870161195a565b9350506020611f5586828701611998565b9250506040611f6686828701611a06565b9150509250925092565b7f4e487b7100000000000000000000000000000000000000000000000000000000600052602260045260246000fd5b60006002820490506001821680611fb757607f821691505b602082108103611fca57611fc9611f70565b5b50919050565b60008190508160005260206000209050919050565b60006020601f8301049050919050565b600082821b905092915050565b6000600883026120327fffffffffffffffffffffffffffffffffffffffffffffffffffffffffffffffff82611ff5565b61203c8683611ff5565b95508019841693508086168417925050509392505050565b6000819050919050565b600061207961207461206f846119e5565b612054565b6119e5565b9050919050565b6000819050919050565b6120938361205e565b6120a761209f82612080565b848454612002565b825550505050565b600090565b6120bc6120af565b6120c781848461208a565b505050565b5b818110156120eb576120e06000826120b4565b6001810190506120cd565b5050565b601f8211156121305761210181611fd0565b61210a84611fe5565b81016020851015612119578190505b61212d61212585611fe5565b8301826120cc565b50505b505050565b600082821c905092915050565b600061215360001984600802612135565b1980831691505092915050565b600061216c8383612142565b9150826002028217905092915050565b61218582611b53565b67ffffffffffffffff81111561219e5761219d61185d565b5b6121a88254611f9f565b6121b38282856120ef565b600060209050601f8311600181146121e657600084156121d4578287015190505b6121de8582612160565b865550612246565b601f1984166121f486611fd0565b60005b8281101561221c578489015182556001820191506020850194506020810190506121f7565b868310156122395784890151612235601f891682612142565b8355505b6001600288020188555050505b505050505050565b7f4e487b7100000000000000000000000000000000000000000000000000000000600052601160045260246000fd5b6000612288826119e5565b9150612293836119e5565b92508282039050818111156122ab576122aa61224e565b5b92915050565b600082825260208201905092915050565b7f4f6e6c79206f776e657200000000000000000000000000000000000000000000600082015250565b60006122f8600a836122b1565b9150612303826122c2565b602082019050919050565b60006020820190508181036000830152612327816122eb565b9050919050565b600081905092915050565b50565b600061234960008361232e565b915061235482612339565b600082019050919050565b600061236a8261233c565b9150819050919050565b600061237f826119e5565b915061238a836119e5565b92508282019050808211156123a2576123a161224e565b5b92915050565b7f4e487b7100000000000000000000000000000000000000000000000000000000600052603260045260246000fd5b7f5769746864726177206661696c65640000000000000000000000000000000000600082015250565b600061240d600f836122b1565b9150612418826123d7565b602082019050919050565b6000602082019050818103600083015261243c81612400565b905091905056fea2646970667358221220bc8a94acb18ff1c6f8bf52d282a3759bebbd29c7a1f700015dd0f901b0cecbcd64736f6c634300081e0033","opcodes":"PUSH1 0x80 PUSH1 0x40 MSTORE CALLVALUE DUP1 ISZERO PUSH1 0xF JUMPI PUSH1 0x0 DUP1 REVERT JUMPDEST POP PUSH1 0x28 PUSH8 0xFFB877859C00D60A PUSH1 0xC0 SHL PUSH1 0x84 PUSH1 0x20 SHL PUSH1 0x20 SHR JUMP JUMPDEST PUSH1 0x40 PUSH8 0xAFB61D9FCA2BC768 PUSH1 0xC0 SHL PUSH1 0x84 PUSH1 0x20 SHL PUSH1 0x20 SHR JUMP JUMPDEST CALLER PUSH1 0x0 DUP1 PUSH2 0x100 EXP DUP2 SLOAD DUP2 PUSH20 0xFFFFFFFFFFFFFFFFFFFFFFFFFFFFFFFFFFFFFFFF MUL NOT AND SWAP1 DUP4 PUSH20 0xFFFFFFFFFFFFFFFFFFFFFFFFFFFFFFFFFFFFFFFF AND MUL OR SWAP1 SSTORE POP PUSH1 0x87 JUMP JUMPDEST POP JUMP JUMPDEST PUSH2 0x2479 DUP1 PUSH2 0x96 PUSH1 0x0 CODECOPY PUSH1 0x0 RETURN INVALID PUSH1 0x80 PUSH1 0x40 MSTORE PUSH1 0x4 CALLDATASIZE LT PUSH2 0x7F JUMPI PUSH1 0x0 CALLDATALOAD PUSH1 0xE0 SHR DUP1 PUSH4 0xBBA2270A GT PUSH2 0x4E JUMPI DUP1 PUSH4 0xBBA2270A EQ PUSH2 0x16A JUMPI DUP1 PUSH4 0xE2842D79 EQ PUSH2 0x186 JUMPI DUP1 PUSH4 0xE74D533E EQ PUSH2 0x1B1 JUMPI DUP1 PUSH4 0xF3FEF3A3 EQ PUSH2 0x1DA JUMPI PUSH2 0x86 JUMP JUMPDEST DUP1 PUSH4 0x1FC82D91 EQ PUSH2 0x9C JUMPI DUP1 PUSH4 0x269842E1 EQ PUSH2 0xC5 JUMPI DUP1 PUSH4 0x6F77926B EQ PUSH2 0x102 JUMPI DUP1 PUSH4 0x8DA5CB5B EQ PUSH2 0x13F JUMPI PUSH2 0x86 JUMP JUMPDEST CALLDATASIZE PUSH2 0x86 JUMPI STOP JUMPDEST PUSH2 0x9A PUSH8 0xFFD77E98BC21CA0C PUSH1 0xC0 SHL PUSH2 0x203 JUMP JUMPDEST STOP JUMPDEST CALLVALUE DUP1 ISZERO PUSH2 0xA8 JUMPI PUSH1 0x0 DUP1 REVERT JUMPDEST POP PUSH2 0xC3 PUSH1 0x4 DUP1 CALLDATASIZE SUB DUP2 ADD SWAP1 PUSH2 0xBE SWAP2 SWAP1 PUSH2 0x1A1B JUMP JUMPDEST PUSH2 0x206 JUMP JUMPDEST STOP JUMPDEST CALLVALUE DUP1 ISZERO PUSH2 0xD1 JUMPI PUSH1 0x0 DUP1 REVERT JUMPDEST POP PUSH2 0xEC PUSH1 0x4 DUP1 CALLDATASIZE SUB DUP2 ADD SWAP1 PUSH2 0xE7 SWAP2 SWAP1 PUSH2 0x1AFC JUMP JUMPDEST PUSH2 0x376 JUMP JUMPDEST PUSH1 0x40 MLOAD PUSH2 0xF9 SWAP2 SWAP1 PUSH2 0x1B38 JUMP JUMPDEST PUSH1 0x40 MLOAD DUP1 SWAP2 SUB SWAP1 RETURN JUMPDEST CALLVALUE DUP1 ISZERO PUSH2 0x10E JUMPI PUSH1 0x0 DUP1 REVERT JUMPDEST POP PUSH2 0x129 PUSH1 0x4 DUP1 CALLDATASIZE SUB DUP2 ADD SWAP1 PUSH2 0x124 SWAP2 SWAP1 PUSH2 0x1AFC JUMP JUMPDEST PUSH2 0x579 JUMP JUMPDEST PUSH1 0x40 MLOAD PUSH2 0x136 SWAP2 SWAP1 PUSH2 0x1CDD JUMP JUMPDEST PUSH1 0x40 MLOAD DUP1 SWAP2 SUB SWAP1 RETURN JUMPDEST CALLVALUE DUP1 ISZERO PUSH2 0x14B JUMPI PUSH1 0x0 DUP1 REVERT JUMPDEST POP PUSH2 0x154 PUSH2 0x741 JUMP JUMPDEST PUSH1 0x40 MLOAD PUSH2 0x161 SWAP2 SWAP1 PUSH2 0x1D0E JUMP JUMPDEST PUSH1 0x40 MLOAD DUP1 SWAP2 SUB SWAP1 RETURN JUMPDEST PUSH2 0x184 PUSH1 0x4 DUP1 CALLDATASIZE SUB DUP2 ADD SWAP1 PUSH2 0x17F SWAP2 SWAP1 PUSH2 0x1D67 JUMP JUMPDEST PUSH2 0x765 JUMP JUMPDEST STOP JUMPDEST CALLVALUE DUP1 ISZERO PUSH2 0x192 JUMPI PUSH1 0x0 DUP1 REVERT JUMPDEST POP PUSH2 0x19B PUSH2 0xEBF JUMP JUMPDEST PUSH1 0x40 MLOAD PUSH2 0x1A8 SWAP2 SWAP1 PUSH2 0x1EDF JUMP JUMPDEST PUSH1 0x40 MLOAD DUP1 SWAP2 SUB SWAP1 RETURN JUMPDEST CALLVALUE DUP1 ISZERO PUSH2 0x1BD JUMPI PUSH1 0x0 DUP1 REVERT JUMPDEST POP PUSH2 0x1D8 PUSH1 0x4 DUP1 CALLDATASIZE SUB DUP2 ADD SWAP1 PUSH2 0x1D3 SWAP2 SWAP1 PUSH2 0x1F01 JUMP JUMPDEST PUSH2 0x11E9 JUMP JUMPDEST STOP JUMPDEST CALLVALUE DUP1 ISZERO PUSH2 0x1E6 JUMPI PUSH1 0x0 DUP1 REVERT JUMPDEST POP PUSH2 0x201 PUSH1 0x4 DUP1 CALLDATASIZE SUB DUP2 ADD SWAP1 PUSH2 0x1FC SWAP2 SWAP1 PUSH2 0x1D67 JUMP JUMPDEST PUSH2 0x14B5 JUMP JUMPDEST STOP JUMPDEST POP JUMP JUMPDEST PUSH2 0x21A PUSH8 0x2ECEC015470F88BD PUSH1 0xC0 SHL PUSH2 0x203 JUMP JUMPDEST PUSH2 0x22E PUSH8 0xA94C33A0A39CC800 PUSH1 0xC0 SHL PUSH2 0x203 JUMP JUMPDEST PUSH2 0x242 PUSH8 0xCB8755F6BB7FE53C PUSH1 0xC0 SHL PUSH2 0x203 JUMP JUMPDEST PUSH1 0x0 PUSH2 0x24C PUSH2 0x17BE JUMP JUMPDEST SWAP1 POP PUSH2 0x262 PUSH8 0x7110AF9D91FA4BFD PUSH1 0xC0 SHL PUSH2 0x203 JUMP JUMPDEST PUSH2 0x276 PUSH8 0x4235F66F97414412 PUSH1 0xC0 SHL PUSH2 0x203 JUMP JUMPDEST PUSH1 0x0 DUP2 PUSH1 0x0 ADD PUSH1 0x0 CALLER PUSH20 0xFFFFFFFFFFFFFFFFFFFFFFFFFFFFFFFFFFFFFFFF AND PUSH20 0xFFFFFFFFFFFFFFFFFFFFFFFFFFFFFFFFFFFFFFFF AND DUP2 MSTORE PUSH1 0x20 ADD SWAP1 DUP2 MSTORE PUSH1 0x20 ADD PUSH1 0x0 KECCAK256 SWAP1 POP PUSH2 0x2CF PUSH8 0x2F104F69A9840FB8 PUSH1 0xC0 SHL PUSH2 0x203 JUMP JUMPDEST DUP6 DUP2 PUSH1 0x0 ADD SWAP1 DUP2 PUSH2 0x2E0 SWAP2 SWAP1 PUSH2 0x217C JUMP JUMPDEST POP PUSH2 0x2F5 PUSH8 0x5DA379112C286BF9 PUSH1 0xC0 SHL PUSH2 0x203 JUMP JUMPDEST DUP5 DUP2 PUSH1 0x1 ADD PUSH1 0x1 PUSH2 0x100 EXP DUP2 SLOAD DUP2 PUSH1 0xFF MUL NOT AND SWAP1 DUP4 PUSH1 0x2 DUP2 GT ISZERO PUSH2 0x31C JUMPI PUSH2 0x31B PUSH2 0x1BE1 JUMP JUMPDEST JUMPDEST MUL OR SWAP1 SSTORE POP PUSH2 0x335 PUSH8 0x5665B892E3C82959 PUSH1 0xC0 SHL PUSH2 0x203 JUMP JUMPDEST DUP4 DUP2 PUSH1 0x1 ADD PUSH1 0x0 PUSH2 0x100 EXP DUP2 SLOAD DUP2 PUSH1 0xFF MUL NOT AND SWAP1 DUP4 ISZERO ISZERO MUL OR SWAP1 SSTORE POP PUSH2 0x365 PUSH8 0x6E7B31B7CC021696 PUSH1 0xC0 SHL PUSH2 0x203 JUMP JUMPDEST DUP3 DUP2 PUSH1 0x2 ADD DUP2 SWAP1 SSTORE POP POP POP POP POP POP POP JUMP JUMPDEST PUSH1 0x0 PUSH2 0x38C PUSH8 0x33BE18017C2711E PUSH1 0xC0 SHL PUSH2 0x203 JUMP JUMPDEST PUSH2 0x3A0 PUSH8 0x283F2F7AB48F0EAD PUSH1 0xC0 SHL PUSH2 0x203 JUMP JUMPDEST PUSH2 0x3B4 PUSH8 0xF4442CC5096CD3A8 PUSH1 0xC0 SHL PUSH2 0x203 JUMP JUMPDEST PUSH1 0x0 PUSH2 0x3BE PUSH2 0x17BE JUMP JUMPDEST SWAP1 POP PUSH2 0x3D4 PUSH8 0x6593F8E25272088C PUSH1 0xC0 SHL PUSH2 0x203 JUMP JUMPDEST PUSH2 0x3E8 PUSH8 0x9AA9541059063CE1 PUSH1 0xC0 SHL PUSH2 0x203 JUMP JUMPDEST PUSH1 0x0 DUP2 PUSH1 0x0 ADD PUSH1 0x0 DUP6 PUSH20 0xFFFFFFFFFFFFFFFFFFFFFFFFFFFFFFFFFFFFFFFF AND PUSH20 0xFFFFFFFFFFFFFFFFFFFFFFFFFFFFFFFFFFFFFFFF AND DUP2 MSTORE PUSH1 0x20 ADD SWAP1 DUP2 MSTORE PUSH1 0x20 ADD PUSH1 0x0 KECCAK256 PUSH1 0x40 MLOAD DUP1 PUSH1 0xA0 ADD PUSH1 0x40 MSTORE SWAP1 DUP2 PUSH1 0x0 DUP3 ADD DUP1 SLOAD PUSH2 0x446 SWAP1 PUSH2 0x1F9F JUMP JUMPDEST DUP1 PUSH1 0x1F ADD PUSH1 0x20 DUP1 SWAP2 DIV MUL PUSH1 0x20 ADD PUSH1 0x40 MLOAD SWAP1 DUP2 ADD PUSH1 0x40 MSTORE DUP1 SWAP3 SWAP2 SWAP1 DUP2 DUP2 MSTORE PUSH1 0x20 ADD DUP3 DUP1 SLOAD PUSH2 0x472 SWAP1 PUSH2 0x1F9F JUMP JUMPDEST DUP1 ISZERO PUSH2 0x4BF JUMPI DUP1 PUSH1 0x1F LT PUSH2 0x494 JUMPI PUSH2 0x100 DUP1 DUP4 SLOAD DIV MUL DUP4 MSTORE SWAP2 PUSH1 0x20 ADD SWAP2 PUSH2 0x4BF JUMP JUMPDEST DUP3 ADD SWAP2 SWAP1 PUSH1 0x0 MSTORE PUSH1 0x20 PUSH1 0x0 KECCAK256 SWAP1 JUMPDEST DUP2 SLOAD DUP2 MSTORE SWAP1 PUSH1 0x1 ADD SWAP1 PUSH1 0x20 ADD DUP1 DUP4 GT PUSH2 0x4A2 JUMPI DUP3 SWAP1 SUB PUSH1 0x1F AND DUP3 ADD SWAP2 JUMPDEST POP POP POP POP POP DUP2 MSTORE PUSH1 0x20 ADD PUSH1 0x1 DUP3 ADD PUSH1 0x0 SWAP1 SLOAD SWAP1 PUSH2 0x100 EXP SWAP1 DIV PUSH1 0xFF AND ISZERO ISZERO ISZERO ISZERO DUP2 MSTORE PUSH1 0x20 ADD PUSH1 0x1 DUP3 ADD PUSH1 0x1 SWAP1 SLOAD SWAP1 PUSH2 0x100 EXP SWAP1 DIV PUSH1 0xFF AND PUSH1 0x2 DUP2 GT ISZERO PUSH2 0x508 JUMPI PUSH2 0x507 PUSH2 0x1BE1 JUMP JUMPDEST JUMPDEST PUSH1 0x2 DUP2 GT ISZERO PUSH2 0x51A JUMPI PUSH2 0x519 PUSH2 0x1BE1 JUMP JUMPDEST JUMPDEST DUP2 MSTORE PUSH1 0x20 ADD PUSH1 0x2 DUP3 ADD SLOAD DUP2 MSTORE PUSH1 0x20 ADD PUSH1 0x3 DUP3 ADD SLOAD DUP2 MSTORE POP POP SWAP1 POP PUSH2 0x548 PUSH8 0x27759DF3CF30FB9C PUSH1 0xC0 SHL PUSH2 0x203 JUMP JUMPDEST PUSH2 0x55C PUSH8 0x7CC4BB520E58EDCF PUSH1 0xC0 SHL PUSH2 0x203 JUMP JUMPDEST DUP1 PUSH1 0x80 ADD MLOAD DUP2 PUSH1 0x60 ADD MLOAD PUSH2 0x570 SWAP2 SWAP1 PUSH2 0x227D JUMP JUMPDEST SWAP3 POP POP POP SWAP2 SWAP1 POP JUMP JUMPDEST PUSH2 0x581 PUSH2 0x17EB JUMP JUMPDEST PUSH2 0x595 PUSH8 0xDB67D7596BB6CCF7 PUSH1 0xC0 SHL PUSH2 0x203 JUMP JUMPDEST PUSH2 0x5A9 PUSH8 0xA54D038413BCAA18 PUSH1 0xC0 SHL PUSH2 0x203 JUMP JUMPDEST PUSH2 0x5BD PUSH8 0xC8A9E53EAC7A5E8F PUSH1 0xC0 SHL PUSH2 0x203 JUMP JUMPDEST PUSH1 0x0 PUSH2 0x5C7 PUSH2 0x17BE JUMP JUMPDEST SWAP1 POP PUSH2 0x5DD PUSH8 0x454E5A38AD1CC787 PUSH1 0xC0 SHL PUSH2 0x203 JUMP JUMPDEST PUSH2 0x5F1 PUSH8 0xD29B2465A4029828 PUSH1 0xC0 SHL PUSH2 0x203 JUMP JUMPDEST DUP1 PUSH1 0x0 ADD PUSH1 0x0 DUP5 PUSH20 0xFFFFFFFFFFFFFFFFFFFFFFFFFFFFFFFFFFFFFFFF AND PUSH20 0xFFFFFFFFFFFFFFFFFFFFFFFFFFFFFFFFFFFFFFFF AND DUP2 MSTORE PUSH1 0x20 ADD SWAP1 DUP2 MSTORE PUSH1 0x20 ADD PUSH1 0x0 KECCAK256 PUSH1 0x40 MLOAD DUP1 PUSH1 0xA0 ADD PUSH1 0x40 MSTORE SWAP1 DUP2 PUSH1 0x0 DUP3 ADD DUP1 SLOAD PUSH2 0x64D SWAP1 PUSH2 0x1F9F JUMP JUMPDEST DUP1 PUSH1 0x1F ADD PUSH1 0x20 DUP1 SWAP2 DIV MUL PUSH1 0x20 ADD PUSH1 0x40 MLOAD SWAP1 DUP2 ADD PUSH1 0x40 MSTORE DUP1 SWAP3 SWAP2 SWAP1 DUP2 DUP2 MSTORE PUSH1 0x20 ADD DUP3 DUP1 SLOAD PUSH2 0x679 SWAP1 PUSH2 0x1F9F JUMP JUMPDEST DUP1 ISZERO PUSH2 0x6C6 JUMPI DUP1 PUSH1 0x1F LT PUSH2 0x69B JUMPI PUSH2 0x100 DUP1 DUP4 SLOAD DIV MUL DUP4 MSTORE SWAP2 PUSH1 0x20 ADD SWAP2 PUSH2 0x6C6 JUMP JUMPDEST DUP3 ADD SWAP2 SWAP1 PUSH1 0x0 MSTORE PUSH1 0x20 PUSH1 0x0 KECCAK256 SWAP1 JUMPDEST DUP2 SLOAD DUP2 MSTORE SWAP1 PUSH1 0x1 ADD SWAP1 PUSH1 0x20 ADD DUP1 DUP4 GT PUSH2 0x6A9 JUMPI DUP3 SWAP1 SUB PUSH1 0x1F AND DUP3 ADD SWAP2 JUMPDEST POP POP POP POP POP DUP2 MSTORE PUSH1 0x20 ADD PUSH1 0x1 DUP3 ADD PUSH1 0x0 SWAP1 SLOAD SWAP1 PUSH2 0x100 EXP SWAP1 DIV PUSH1 0xFF AND ISZERO ISZERO ISZERO ISZERO DUP2 MSTORE PUSH1 0x20 ADD PUSH1 0x1 DUP3 ADD PUSH1 0x1 SWAP1 SLOAD SWAP1 PUSH2 0x100 EXP SWAP1 DIV PUSH1 0xFF AND PUSH1 0x2 DUP2 GT ISZERO PUSH2 0x70F JUMPI PUSH2 0x70E PUSH2 0x1BE1 JUMP JUMPDEST JUMPDEST PUSH1 0x2 DUP2 GT ISZERO PUSH2 0x721 JUMPI PUSH2 0x720 PUSH2 0x1BE1 JUMP JUMPDEST JUMPDEST DUP2 MSTORE PUSH1 0x20 ADD PUSH1 0x2 DUP3 ADD SLOAD DUP2 MSTORE PUSH1 0x20 ADD PUSH1 0x3 DUP3 ADD SLOAD DUP2 MSTORE POP POP SWAP2 POP POP SWAP2 SWAP1 POP JUMP JUMPDEST PUSH1 0x0 DUP1 SLOAD SWAP1 PUSH2 0x100 EXP SWAP1 DIV PUSH20 0xFFFFFFFFFFFFFFFFFFFFFFFFFFFFFFFFFFFFFFFF AND DUP2 JUMP JUMPDEST PUSH2 0x779 PUSH8 0x6365EDBBDF6E4325 PUSH1 0xC0 SHL PUSH2 0x203 JUMP JUMPDEST PUSH2 0x78D PUSH8 0x9BA05C1BF30D1195 PUSH1 0xC0 SHL PUSH2 0x203 JUMP JUMPDEST PUSH2 0x7A1 PUSH8 0x43EDB597E0F713DE PUSH1 0xC0 SHL PUSH2 0x203 JUMP JUMPDEST PUSH2 0x7B5 PUSH8 0x8718A79398F5B15C PUSH1 0xC0 SHL PUSH2 0x203 JUMP JUMPDEST PUSH2 0x7C9 PUSH8 0xD755808615DD769A PUSH1 0xC0 SHL PUSH2 0x203 JUMP JUMPDEST PUSH1 0x0 DUP1 SLOAD SWAP1 PUSH2 0x100 EXP SWAP1 DIV PUSH20 0xFFFFFFFFFFFFFFFFFFFFFFFFFFFFFFFFFFFFFFFF AND PUSH20 0xFFFFFFFFFFFFFFFFFFFFFFFFFFFFFFFFFFFFFFFF AND CALLER PUSH20 0xFFFFFFFFFFFFFFFFFFFFFFFFFFFFFFFFFFFFFFFF AND EQ PUSH2 0x857 JUMPI PUSH1 0x40 MLOAD PUSH32 0x8C379A000000000000000000000000000000000000000000000000000000000 DUP2 MSTORE PUSH1 0x4 ADD PUSH2 0x84E SWAP1 PUSH2 0x230E JUMP JUMPDEST PUSH1 0x40 MLOAD DUP1 SWAP2 SUB SWAP1 REVERT JUMPDEST PUSH2 0x86B PUSH8 0x818192DB633ECAE8 PUSH1 0xC0 SHL PUSH2 0x203 JUMP JUMPDEST PUSH2 0x87F PUSH8 0xF17DD08688294BC1 PUSH1 0xC0 SHL PUSH2 0x203 JUMP JUMPDEST PUSH2 0x893 PUSH8 0x59BE28B4FD1105E0 PUSH1 0xC0 SHL PUSH2 0x203 JUMP JUMPDEST PUSH2 0x8A7 PUSH8 0x4ABE13E0C6DD64C9 PUSH1 0xC0 SHL PUSH2 0x203 JUMP JUMPDEST PUSH2 0x8BB PUSH8 0xF92C43EAC4493096 PUSH1 0xC0 SHL PUSH2 0x203 JUMP JUMPDEST PUSH2 0x8CF PUSH8 0x1BAAF2290A6AA43F PUSH1 0xC0 SHL PUSH2 0x203 JUMP JUMPDEST PUSH1 0x0 PUSH2 0x8D9 PUSH2 0x17BE JUMP JUMPDEST SWAP1 POP PUSH2 0x8EF PUSH8 0x93B14592397E9F67 PUSH1 0xC0 SHL PUSH2 0x203 JUMP JUMPDEST PUSH2 0x903 PUSH8 0x4FABA3AFE562855A PUSH1 0xC0 SHL PUSH2 0x203 JUMP JUMPDEST PUSH1 0x0 DUP2 PUSH1 0x0 ADD PUSH1 0x0 DUP6 PUSH20 0xFFFFFFFFFFFFFFFFFFFFFFFFFFFFFFFFFFFFFFFF AND PUSH20 0xFFFFFFFFFFFFFFFFFFFFFFFFFFFFFFFFFFFFFFFF AND DUP2 MSTORE PUSH1 0x20 ADD SWAP1 DUP2 MSTORE PUSH1 0x20 ADD PUSH1 0x0 KECCAK256 PUSH1 0x40 MLOAD DUP1 PUSH1 0xA0 ADD PUSH1 0x40 MSTORE SWAP1 DUP2 PUSH1 0x0 DUP3 ADD DUP1 SLOAD PUSH2 0x961 SWAP1 PUSH2 0x1F9F JUMP JUMPDEST DUP1 PUSH1 0x1F ADD PUSH1 0x20 DUP1 SWAP2 DIV MUL PUSH1 0x20 ADD PUSH1 0x40 MLOAD SWAP1 DUP2 ADD PUSH1 0x40 MSTORE DUP1 SWAP3 SWAP2 SWAP1 DUP2 DUP2 MSTORE PUSH1 0x20 ADD DUP3 DUP1 SLOAD PUSH2 0x98D SWAP1 PUSH2 0x1F9F JUMP JUMPDEST DUP1 ISZERO PUSH2 0x9DA JUMPI DUP1 PUSH1 0x1F LT PUSH2 0x9AF JUMPI PUSH2 0x100 DUP1 DUP4 SLOAD DIV MUL DUP4 MSTORE SWAP2 PUSH1 0x20 ADD SWAP2 PUSH2 0x9DA JUMP JUMPDEST DUP3 ADD SWAP2 SWAP1 PUSH1 0x0 MSTORE PUSH1 0x20 PUSH1 0x0 KECCAK256 SWAP1 JUMPDEST DUP2 SLOAD DUP2 MSTORE SWAP1 PUSH1 0x1 ADD SWAP1 PUSH1 0x20 ADD DUP1 DUP4 GT PUSH2 0x9BD JUMPI DUP3 SWAP1 SUB PUSH1 0x1F AND DUP3 ADD SWAP2 JUMPDEST POP POP POP POP POP DUP2 MSTORE PUSH1 0x20 ADD PUSH1 0x1 DUP3 ADD PUSH1 0x0 SWAP1 SLOAD SWAP1 PUSH2 0x100 EXP SWAP1 DIV PUSH1 0xFF AND ISZERO ISZERO ISZERO ISZERO DUP2 MSTORE PUSH1 0x20 ADD PUSH1 0x1 DUP3 ADD PUSH1 0x1 SWAP1 SLOAD SWAP1 PUSH2 0x100 EXP SWAP1 DIV PUSH1 0xFF AND PUSH1 0x2 DUP2 GT ISZERO PUSH2 0xA23 JUMPI PUSH2 0xA22 PUSH2 0x1BE1 JUMP JUMPDEST JUMPDEST PUSH1 0x2 DUP2 GT ISZERO PUSH2 0xA35 JUMPI PUSH2 0xA34 PUSH2 0x1BE1 JUMP JUMPDEST JUMPDEST DUP2 MSTORE PUSH1 0x20 ADD PUSH1 0x2 DUP3 ADD SLOAD DUP2 MSTORE PUSH1 0x20 ADD PUSH1 0x3 DUP3 ADD SLOAD DUP2 MSTORE POP POP SWAP1 POP PUSH2 0xA63 PUSH8 0x6C99A70B6E65D294 PUSH1 0xC0 SHL PUSH2 0x203 JUMP JUMPDEST PUSH2 0xA77 PUSH8 0x4B919384D5375DC6 PUSH1 0xC0 SHL PUSH2 0x203 JUMP JUMPDEST DUP2 PUSH1 0x0 ADD PUSH1 0x0 DUP6 PUSH20 0xFFFFFFFFFFFFFFFFFFFFFFFFFFFFFFFFFFFFFFFF AND PUSH20 0xFFFFFFFFFFFFFFFFFFFFFFFFFFFFFFFFFFFFFFFF AND DUP2 MSTORE PUSH1 0x20 ADD SWAP1 DUP2 MSTORE PUSH1 0x20 ADD PUSH1 0x0 KECCAK256 PUSH1 0x1 ADD PUSH1 0x0 SWAP1 SLOAD SWAP1 PUSH2 0x100 EXP SWAP1 DIV PUSH1 0xFF AND PUSH2 0xB27 JUMPI PUSH2 0xAE1 PUSH8 0xDA9999D2417AADB8 PUSH1 0xC0 SHL PUSH2 0x203 JUMP JUMPDEST PUSH2 0xAF5 PUSH8 0x182126F0DB937C41 PUSH1 0xC0 SHL PUSH2 0x203 JUMP JUMPDEST PUSH1 0x40 MLOAD PUSH32 0x670A68CC00000000000000000000000000000000000000000000000000000000 DUP2 MSTORE PUSH1 0x4 ADD PUSH1 0x40 MLOAD DUP1 SWAP2 SUB SWAP1 REVERT JUMPDEST PUSH2 0xB3B PUSH8 0xFB920372C156EEDF PUSH1 0xC0 SHL PUSH2 0x203 JUMP JUMPDEST PUSH2 0xB4F PUSH8 0x206D55456A2ACAA9 PUSH1 0xC0 SHL PUSH2 0x203 JUMP JUMPDEST PUSH2 0xB63 PUSH8 0x76DD0CBB0C4A09E PUSH1 0xC0 SHL PUSH2 0x203 JUMP JUMPDEST DUP4 PUSH20 0xFFFFFFFFFFFFFFFFFFFFFFFFFFFFFFFFFFFFFFFF AND CALLER PUSH20 0xFFFFFFFFFFFFFFFFFFFFFFFFFFFFFFFFFFFFFFFF AND SUB PUSH2 0xBF0 JUMPI PUSH2 0xBAA PUSH8 0xCE8BE12A48544DF6 PUSH1 0xC0 SHL PUSH2 0x203 JUMP JUMPDEST PUSH2 0xBBE PUSH8 0x9473DE30784776F9 PUSH1 0xC0 SHL PUSH2 0x203 JUMP JUMPDEST PUSH1 0x40 MLOAD PUSH32 0x7BCEA4E300000000000000000000000000000000000000000000000000000000 DUP2 MSTORE PUSH1 0x4 ADD PUSH1 0x40 MLOAD DUP1 SWAP2 SUB SWAP1 REVERT JUMPDEST PUSH2 0xC04 PUSH8 0xBE7762EA69B47FD7 PUSH1 0xC0 SHL PUSH2 0x203 JUMP JUMPDEST PUSH2 0xC18 PUSH8 0x126E994ED9992001 PUSH1 0xC0 SHL PUSH2 0x203 JUMP JUMPDEST PUSH2 0xC2C PUSH8 0x360E3450A02FAA12 PUSH1 0xC0 SHL PUSH2 0x203 JUMP JUMPDEST DUP2 PUSH1 0x0 ADD PUSH1 0x0 DUP6 PUSH20 0xFFFFFFFFFFFFFFFFFFFFFFFFFFFFFFFFFFFFFFFF AND PUSH20 0xFFFFFFFFFFFFFFFFFFFFFFFFFFFFFFFFFFFFFFFF AND DUP2 MSTORE PUSH1 0x20 ADD SWAP1 DUP2 MSTORE PUSH1 0x20 ADD PUSH1 0x0 KECCAK256 PUSH1 0x2 ADD SLOAD DUP4 GT ISZERO PUSH2 0xCD2 JUMPI PUSH2 0xC8C PUSH8 0xDD4098D26E6B5A0C PUSH1 0xC0 SHL PUSH2 0x203 JUMP JUMPDEST PUSH2 0xCA0 PUSH8 0x506E631546A9A391 PUSH1 0xC0 SHL PUSH2 0x203 JUMP JUMPDEST PUSH1 0x40 MLOAD PUSH32 0x94AB0F6900000000000000000000000000000000000000000000000000000000 DUP2 MSTORE PUSH1 0x4 ADD PUSH1 0x40 MLOAD DUP1 SWAP2 SUB SWAP1 REVERT JUMPDEST PUSH2 0xCE6 PUSH8 0xC9B819BC93964EA2 PUSH1 0xC0 SHL PUSH2 0x203 JUMP JUMPDEST PUSH2 0xCFA PUSH8 0x84B180DC08657AD2 PUSH1 0xC0 SHL PUSH2 0x203 JUMP JUMPDEST PUSH2 0xD0E PUSH8 0xE64ED475E05449E5 PUSH1 0xC0 SHL PUSH2 0x203 JUMP JUMPDEST PUSH1 0x0 DUP5 PUSH20 0xFFFFFFFFFFFFFFFFFFFFFFFFFFFFFFFFFFFFFFFF AND DUP5 PUSH1 0x40 MLOAD PUSH2 0xD34 SWAP1 PUSH2 0x235F JUMP JUMPDEST PUSH1 0x0 PUSH1 0x40 MLOAD DUP1 DUP4 SUB DUP2 DUP6 DUP8 GAS CALL SWAP3 POP POP POP RETURNDATASIZE DUP1 PUSH1 0x0 DUP2 EQ PUSH2 0xD71 JUMPI PUSH1 0x40 MLOAD SWAP2 POP PUSH1 0x1F NOT PUSH1 0x3F RETURNDATASIZE ADD AND DUP3 ADD PUSH1 0x40 MSTORE RETURNDATASIZE DUP3 MSTORE RETURNDATASIZE PUSH1 0x0 PUSH1 0x20 DUP5 ADD RETURNDATACOPY PUSH2 0xD76 JUMP JUMPDEST PUSH1 0x60 SWAP2 POP JUMPDEST POP POP SWAP1 POP PUSH2 0xD8E PUSH8 0x7B320DEB3E22E80A PUSH1 0xC0 SHL PUSH2 0x203 JUMP JUMPDEST PUSH2 0xDA2 PUSH8 0xA3FC20A4473EB3D2 PUSH1 0xC0 SHL PUSH2 0x203 JUMP JUMPDEST DUP1 PUSH2 0xE01 JUMPI PUSH2 0xDBB PUSH8 0x982121B9B56C266B PUSH1 0xC0 SHL PUSH2 0x203 JUMP JUMPDEST PUSH2 0xDCF PUSH8 0xB7AF391A2A6D03A3 PUSH1 0xC0 SHL PUSH2 0x203 JUMP JUMPDEST PUSH1 0x40 MLOAD PUSH32 0x90B8EC1800000000000000000000000000000000000000000000000000000000 DUP2 MSTORE PUSH1 0x4 ADD PUSH1 0x40 MLOAD DUP1 SWAP2 SUB SWAP1 REVERT JUMPDEST PUSH2 0xE15 PUSH8 0xC0F31EF2BA5488E3 PUSH1 0xC0 SHL PUSH2 0x203 JUMP JUMPDEST PUSH2 0xE29 PUSH8 0xCFC5FDA563276299 PUSH1 0xC0 SHL PUSH2 0x203 JUMP JUMPDEST DUP4 DUP3 PUSH1 0x80 ADD DUP2 DUP2 MLOAD PUSH2 0xE3B SWAP2 SWAP1 PUSH2 0x2374 JUMP JUMPDEST SWAP2 POP DUP2 DUP2 MSTORE POP POP PUSH2 0xE56 PUSH8 0x3310B78C8D2809EB PUSH1 0xC0 SHL PUSH2 0x203 JUMP JUMPDEST PUSH2 0xE6A PUSH8 0x2E6888F5F9CBF35 PUSH1 0xC0 SHL PUSH2 0x203 JUMP JUMPDEST DUP5 PUSH20 0xFFFFFFFFFFFFFFFFFFFFFFFFFFFFFFFFFFFFFFFF AND PUSH32 0xC0EBFA40C6C89654E46D7C5B0B0C1F8B5D1C65D6612894126714A7B1D6DB9A38 DUP6 PUSH1 0x40 MLOAD PUSH2 0xEB0 SWAP2 SWAP1 PUSH2 0x1B38 JUMP JUMPDEST PUSH1 0x40 MLOAD DUP1 SWAP2 SUB SWAP1 LOG2 POP POP POP POP POP JUMP JUMPDEST PUSH1 0x60 PUSH2 0xED5 PUSH8 0xBAD2CF8E0E1E044F PUSH1 0xC0 SHL PUSH2 0x203 JUMP JUMPDEST PUSH2 0xEE9 PUSH8 0x96B469117811BA68 PUSH1 0xC0 SHL PUSH2 0x203 JUMP JUMPDEST PUSH2 0xEFD PUSH8 0x52C6748EC88EFF7 PUSH1 0xC0 SHL PUSH2 0x203 JUMP JUMPDEST PUSH1 0x0 PUSH2 0xF07 PUSH2 0x17BE JUMP JUMPDEST SWAP1 POP PUSH2 0xF1D PUSH8 0x66B60CCFEE50FD10 PUSH1 0xC0 SHL PUSH2 0x203 JUMP JUMPDEST PUSH2 0xF31 PUSH8 0xEAF89549BBDCE584 PUSH1 0xC0 SHL PUSH2 0x203 JUMP JUMPDEST PUSH1 0x0 DUP2 PUSH1 0x1 ADD DUP1 SLOAD SWAP1 POP SWAP1 POP PUSH2 0xF51 PUSH8 0xA62C03BBED0E4FA9 PUSH1 0xC0 SHL PUSH2 0x203 JUMP JUMPDEST PUSH2 0xF65 PUSH8 0xD643E7A338786C03 PUSH1 0xC0 SHL PUSH2 0x203 JUMP JUMPDEST PUSH1 0x0 DUP2 PUSH8 0xFFFFFFFFFFFFFFFF DUP2 GT ISZERO PUSH2 0xF81 JUMPI PUSH2 0xF80 PUSH2 0x185D JUMP JUMPDEST JUMPDEST PUSH1 0x40 MLOAD SWAP1 DUP1 DUP3 MSTORE DUP1 PUSH1 0x20 MUL PUSH1 0x20 ADD DUP3 ADD PUSH1 0x40 MSTORE DUP1 ISZERO PUSH2 0xFBA JUMPI DUP2 PUSH1 0x20 ADD JUMPDEST PUSH2 0xFA7 PUSH2 0x17EB JUMP JUMPDEST DUP2 MSTORE PUSH1 0x20 ADD SWAP1 PUSH1 0x1 SWAP1 SUB SWAP1 DUP2 PUSH2 0xF9F JUMPI SWAP1 POP JUMPDEST POP SWAP1 POP PUSH2 0xFD1 PUSH8 0xEF5CEAC1DE212E68 PUSH1 0xC0 SHL PUSH2 0x203 JUMP JUMPDEST PUSH2 0xFE5 PUSH8 0x8D7A8D9AFF20A3EC PUSH1 0xC0 SHL PUSH2 0x203 JUMP JUMPDEST PUSH1 0x0 JUMPDEST DUP3 DUP2 LT ISZERO PUSH2 0x11B7 JUMPI PUSH2 0x1004 PUSH8 0xB0D3EA8C01195317 PUSH1 0xC0 SHL PUSH2 0x203 JUMP JUMPDEST DUP4 PUSH1 0x0 ADD PUSH1 0x0 DUP6 PUSH1 0x1 ADD DUP4 DUP2 SLOAD DUP2 LT PUSH2 0x1020 JUMPI PUSH2 0x101F PUSH2 0x23A8 JUMP JUMPDEST JUMPDEST SWAP1 PUSH1 0x0 MSTORE PUSH1 0x20 PUSH1 0x0 KECCAK256 ADD PUSH1 0x0 SWAP1 SLOAD SWAP1 PUSH2 0x100 EXP SWAP1 DIV PUSH20 0xFFFFFFFFFFFFFFFFFFFFFFFFFFFFFFFFFFFFFFFF AND PUSH20 0xFFFFFFFFFFFFFFFFFFFFFFFFFFFFFFFFFFFFFFFF AND PUSH20 0xFFFFFFFFFFFFFFFFFFFFFFFFFFFFFFFFFFFFFFFF AND DUP2 MSTORE PUSH1 0x20 ADD SWAP1 DUP2 MSTORE PUSH1 0x20 ADD PUSH1 0x0 KECCAK256 PUSH1 0x40 MLOAD DUP1 PUSH1 0xA0 ADD PUSH1 0x40 MSTORE SWAP1 DUP2 PUSH1 0x0 DUP3 ADD DUP1 SLOAD PUSH2 0x10A0 SWAP1 PUSH2 0x1F9F JUMP JUMPDEST DUP1 PUSH1 0x1F ADD PUSH1 0x20 DUP1 SWAP2 DIV MUL PUSH1 0x20 ADD PUSH1 0x40 MLOAD SWAP1 DUP2 ADD PUSH1 0x40 MSTORE DUP1 SWAP3 SWAP2 SWAP1 DUP2 DUP2 MSTORE PUSH1 0x20 ADD DUP3 DUP1 SLOAD PUSH2 0x10CC SWAP1 PUSH2 0x1F9F JUMP JUMPDEST DUP1 ISZERO PUSH2 0x1119 JUMPI DUP1 PUSH1 0x1F LT PUSH2 0x10EE JUMPI PUSH2 0x100 DUP1 DUP4 SLOAD DIV MUL DUP4 MSTORE SWAP2 PUSH1 0x20 ADD SWAP2 PUSH2 0x1119 JUMP JUMPDEST DUP3 ADD SWAP2 SWAP1 PUSH1 0x0 MSTORE PUSH1 0x20 PUSH1 0x0 KECCAK256 SWAP1 JUMPDEST DUP2 SLOAD DUP2 MSTORE SWAP1 PUSH1 0x1 ADD SWAP1 PUSH1 0x20 ADD DUP1 DUP4 GT PUSH2 0x10FC JUMPI DUP3 SWAP1 SUB PUSH1 0x1F AND DUP3 ADD SWAP2 JUMPDEST POP POP POP POP POP DUP2 MSTORE PUSH1 0x20 ADD PUSH1 0x1 DUP3 ADD PUSH1 0x0 SWAP1 SLOAD SWAP1 PUSH2 0x100 EXP SWAP1 DIV PUSH1 0xFF AND ISZERO ISZERO ISZERO ISZERO DUP2 MSTORE PUSH1 0x20 ADD PUSH1 0x1 DUP3 ADD PUSH1 0x1 SWAP1 SLOAD SWAP1 PUSH2 0x100 EXP SWAP1 DIV PUSH1 0xFF AND PUSH1 0x2 DUP2 GT ISZERO PUSH2 0x1162 JUMPI PUSH2 0x1161 PUSH2 0x1BE1 JUMP JUMPDEST JUMPDEST PUSH1 0x2 DUP2 GT ISZERO PUSH2 0x1174 JUMPI PUSH2 0x1173 PUSH2 0x1BE1 JUMP JUMPDEST JUMPDEST DUP2 MSTORE PUSH1 0x20 ADD PUSH1 0x2 DUP3 ADD SLOAD DUP2 MSTORE PUSH1 0x20 ADD PUSH1 0x3 DUP3 ADD SLOAD DUP2 MSTORE POP POP DUP3 DUP3 DUP2 MLOAD DUP2 LT PUSH2 0x119F JUMPI PUSH2 0x119E PUSH2 0x23A8 JUMP JUMPDEST JUMPDEST PUSH1 0x20 MUL PUSH1 0x20 ADD ADD DUP2 SWAP1 MSTORE POP DUP1 DUP1 PUSH1 0x1 ADD SWAP2 POP POP PUSH2 0xFE8 JUMP JUMPDEST POP PUSH2 0x11CC PUSH8 0xCD8D70E1DA6AF900 PUSH1 0xC0 SHL PUSH2 0x203 JUMP JUMPDEST PUSH2 0x11E0 PUSH8 0xF43DA2BAAAB49EA7 PUSH1 0xC0 SHL PUSH2 0x203 JUMP JUMPDEST DUP1 SWAP4 POP POP POP POP SWAP1 JUMP JUMPDEST PUSH2 0x11FD PUSH8 0x67C21278C430E767 PUSH1 0xC0 SHL PUSH2 0x203 JUMP JUMPDEST PUSH2 0x1211 PUSH8 0x90E2862182220EAA PUSH1 0xC0 SHL PUSH2 0x203 JUMP JUMPDEST PUSH2 0x1225 PUSH8 0xADD632C2AB30FAE8 PUSH1 0xC0 SHL PUSH2 0x203 JUMP JUMPDEST PUSH1 0x0 PUSH2 0x122F PUSH2 0x17BE JUMP JUMPDEST SWAP1 POP PUSH2 0x1245 PUSH8 0x9929DE7DB2FDE294 PUSH1 0xC0 SHL PUSH2 0x203 JUMP JUMPDEST PUSH2 0x1259 PUSH8 0x4193DCB36C2BB87E PUSH1 0xC0 SHL PUSH2 0x203 JUMP JUMPDEST PUSH1 0x0 DUP2 PUSH1 0x0 ADD PUSH1 0x0 CALLER PUSH20 0xFFFFFFFFFFFFFFFFFFFFFFFFFFFFFFFFFFFFFFFF AND PUSH20 0xFFFFFFFFFFFFFFFFFFFFFFFFFFFFFFFFFFFFFFFF AND DUP2 MSTORE PUSH1 0x20 ADD SWAP1 DUP2 MSTORE PUSH1 0x20 ADD PUSH1 0x0 KECCAK256 PUSH1 0x2 ADD SLOAD EQ PUSH2 0x12FF JUMPI PUSH2 0x12B9 PUSH8 0xB809AA0C23DAD327 PUSH1 0xC0 SHL PUSH2 0x203 JUMP JUMPDEST PUSH2 0x12CD PUSH8 0x8E2A83AC0F5988F PUSH1 0xC0 SHL PUSH2 0x203 JUMP JUMPDEST PUSH1 0x40 MLOAD PUSH32 0x3EE20B6900000000000000000000000000000000000000000000000000000000 DUP2 MSTORE PUSH1 0x4 ADD PUSH1 0x40 MLOAD DUP1 SWAP2 SUB SWAP1 REVERT JUMPDEST PUSH2 0x1313 PUSH8 0xC54C5258DDA35FE6 PUSH1 0xC0 SHL PUSH2 0x203 JUMP JUMPDEST PUSH2 0x1327 PUSH8 0x69479CD248191CB4 PUSH1 0xC0 SHL PUSH2 0x203 JUMP JUMPDEST PUSH1 0x40 MLOAD DUP1 PUSH1 0xA0 ADD PUSH1 0x40 MSTORE DUP1 DUP6 DUP2 MSTORE PUSH1 0x20 ADD PUSH1 0x1 ISZERO ISZERO DUP2 MSTORE PUSH1 0x20 ADD DUP5 PUSH1 0x2 DUP2 GT ISZERO PUSH2 0x1354 JUMPI PUSH2 0x1353 PUSH2 0x1BE1 JUMP JUMPDEST JUMPDEST DUP2 MSTORE PUSH1 0x20 ADD DUP4 DUP2 MSTORE PUSH1 0x20 ADD PUSH1 0x0 DUP2 MSTORE POP DUP2 PUSH1 0x0 ADD PUSH1 0x0 CALLER PUSH20 0xFFFFFFFFFFFFFFFFFFFFFFFFFFFFFFFFFFFFFFFF AND PUSH20 0xFFFFFFFFFFFFFFFFFFFFFFFFFFFFFFFFFFFFFFFF AND DUP2 MSTORE PUSH1 0x20 ADD SWAP1 DUP2 MSTORE PUSH1 0x20 ADD PUSH1 0x0 KECCAK256 PUSH1 0x0 DUP3 ADD MLOAD DUP2 PUSH1 0x0 ADD SWAP1 DUP2 PUSH2 0x13BA SWAP2 SWAP1 PUSH2 0x217C JUMP JUMPDEST POP PUSH1 0x20 DUP3 ADD MLOAD DUP2 PUSH1 0x1 ADD PUSH1 0x0 PUSH2 0x100 EXP DUP2 SLOAD DUP2 PUSH1 0xFF MUL NOT AND SWAP1 DUP4 ISZERO ISZERO MUL OR SWAP1 SSTORE POP PUSH1 0x40 DUP3 ADD MLOAD DUP2 PUSH1 0x1 ADD PUSH1 0x1 PUSH2 0x100 EXP DUP2 SLOAD DUP2 PUSH1 0xFF MUL NOT AND SWAP1 DUP4 PUSH1 0x2 DUP2 GT ISZERO PUSH2 0x1406 JUMPI PUSH2 0x1405 PUSH2 0x1BE1 JUMP JUMPDEST JUMPDEST MUL OR SWAP1 SSTORE POP PUSH1 0x60 DUP3 ADD MLOAD DUP2 PUSH1 0x2 ADD SSTORE PUSH1 0x80 DUP3 ADD MLOAD DUP2 PUSH1 0x3 ADD SSTORE SWAP1 POP POP PUSH2 0x1436 PUSH8 0x74BAA78819F30ABE PUSH1 0xC0 SHL PUSH2 0x203 JUMP JUMPDEST PUSH2 0x144A PUSH8 0xA79542C2256C6A12 PUSH1 0xC0 SHL PUSH2 0x203 JUMP JUMPDEST DUP1 PUSH1 0x1 ADD CALLER SWAP1 DUP1 PUSH1 0x1 DUP2 SLOAD ADD DUP1 DUP3 SSTORE DUP1 SWAP2 POP POP PUSH1 0x1 SWAP1 SUB SWAP1 PUSH1 0x0 MSTORE PUSH1 0x20 PUSH1 0x0 KECCAK256 ADD PUSH1 0x0 SWAP1 SWAP2 SWAP1 SWAP2 SWAP1 SWAP2 PUSH2 0x100 EXP DUP2 SLOAD DUP2 PUSH20 0xFFFFFFFFFFFFFFFFFFFFFFFFFFFFFFFFFFFFFFFF MUL NOT AND SWAP1 DUP4 PUSH20 0xFFFFFFFFFFFFFFFFFFFFFFFFFFFFFFFFFFFFFFFF AND MUL OR SWAP1 SSTORE POP POP POP POP POP JUMP JUMPDEST PUSH2 0x14C9 PUSH8 0xCA71953ED0BF338A PUSH1 0xC0 SHL PUSH2 0x203 JUMP JUMPDEST PUSH2 0x14DD PUSH8 0x9BA05C1BF30D1195 PUSH1 0xC0 SHL PUSH2 0x203 JUMP JUMPDEST PUSH2 0x14F1 PUSH8 0x43EDB597E0F713DE PUSH1 0xC0 SHL PUSH2 0x203 JUMP JUMPDEST PUSH2 0x1505 PUSH8 0x8718A79398F5B15C PUSH1 0xC0 SHL PUSH2 0x203 JUMP JUMPDEST PUSH2 0x1519 PUSH8 0xD755808615DD769A PUSH1 0xC0 SHL PUSH2 0x203 JUMP JUMPDEST PUSH1 0x0 DUP1 SLOAD SWAP1 PUSH2 0x100 EXP SWAP1 DIV PUSH20 0xFFFFFFFFFFFFFFFFFFFFFFFFFFFFFFFFFFFFFFFF AND PUSH20 0xFFFFFFFFFFFFFFFFFFFFFFFFFFFFFFFFFFFFFFFF AND CALLER PUSH20 0xFFFFFFFFFFFFFFFFFFFFFFFFFFFFFFFFFFFFFFFF AND EQ PUSH2 0x15A7 JUMPI PUSH1 0x40 MLOAD PUSH32 0x8C379A000000000000000000000000000000000000000000000000000000000 DUP2 MSTORE PUSH1 0x4 ADD PUSH2 0x159E SWAP1 PUSH2 0x230E JUMP JUMPDEST PUSH1 0x40 MLOAD DUP1 SWAP2 SUB SWAP1 REVERT JUMPDEST PUSH2 0x15BB PUSH8 0x818192DB633ECAE8 PUSH1 0xC0 SHL PUSH2 0x203 JUMP JUMPDEST PUSH2 0x15CF PUSH8 0xF17DD08688294BC1 PUSH1 0xC0 SHL PUSH2 0x203 JUMP JUMPDEST PUSH2 0x15E3 PUSH8 0x21D12DB1E6F19662 PUSH1 0xC0 SHL PUSH2 0x203 JUMP JUMPDEST PUSH2 0x15F7 PUSH8 0xFBB272FCDDAEECE3 PUSH1 0xC0 SHL PUSH2 0x203 JUMP JUMPDEST PUSH2 0x160B PUSH8 0x412FA319F9030A84 PUSH1 0xC0 SHL PUSH2 0x203 JUMP JUMPDEST PUSH2 0x161F PUSH8 0x638DC4F0A8831D4F PUSH1 0xC0 SHL PUSH2 0x203 JUMP JUMPDEST DUP1 SELFBALANCE LT ISZERO PUSH2 0x1681 JUMPI PUSH2 0x163B PUSH8 0x4AD212617F35BCF0 PUSH1 0xC0 SHL PUSH2 0x203 JUMP JUMPDEST PUSH2 0x164F PUSH8 0x6CBC39832A13C4D2 PUSH1 0xC0 SHL PUSH2 0x203 JUMP JUMPDEST PUSH1 0x40 MLOAD PUSH32 0xF4D678B800000000000000000000000000000000000000000000000000000000 DUP2 MSTORE PUSH1 0x4 ADD PUSH1 0x40 MLOAD DUP1 SWAP2 SUB SWAP1 REVERT JUMPDEST PUSH2 0x1695 PUSH8 0xD18EBE401D82F290 PUSH1 0xC0 SHL PUSH2 0x203 JUMP JUMPDEST PUSH2 0x16A9 PUSH8 0x8FAFDCD48456B27E PUSH1 0xC0 SHL PUSH2 0x203 JUMP JUMPDEST PUSH2 0x16BD PUSH8 0x32A24CD8B5E61E4F PUSH1 0xC0 SHL PUSH2 0x203 JUMP JUMPDEST PUSH1 0x0 DUP3 PUSH20 0xFFFFFFFFFFFFFFFFFFFFFFFFFFFFFFFFFFFFFFFF AND DUP3 PUSH1 0x40 MLOAD PUSH2 0x16E3 SWAP1 PUSH2 0x235F JUMP JUMPDEST PUSH1 0x0 PUSH1 0x40 MLOAD DUP1 DUP4 SUB DUP2 DUP6 DUP8 GAS CALL SWAP3 POP POP POP RETURNDATASIZE DUP1 PUSH1 0x0 DUP2 EQ PUSH2 0x1720 JUMPI PUSH1 0x40 MLOAD SWAP2 POP PUSH1 0x1F NOT PUSH1 0x3F RETURNDATASIZE ADD AND DUP3 ADD PUSH1 0x40 MSTORE RETURNDATASIZE DUP3 MSTORE RETURNDATASIZE PUSH1 0x0 PUSH1 0x20 DUP5 ADD RETURNDATACOPY PUSH2 0x1725 JUMP JUMPDEST PUSH1 0x60 SWAP2 POP JUMPDEST POP POP SWAP1 POP PUSH2 0x173D PUSH8 0x7312735DA607AD2F PUSH1 0xC0 SHL PUSH2 0x203 JUMP JUMPDEST PUSH2 0x1751 PUSH8 0x4AECC79C5F444E30 PUSH1 0xC0 SHL PUSH2 0x203 JUMP JUMPDEST PUSH2 0x1765 PUSH8 0xCFB8FE6AEBDF72A4 PUSH1 0xC0 SHL PUSH2 0x203 JUMP JUMPDEST DUP1 PUSH2 0x17A5 JUMPI PUSH1 0x40 MLOAD PUSH32 0x8C379A000000000000000000000000000000000000000000000000000000000 DUP2 MSTORE PUSH1 0x4 ADD PUSH2 0x179C SWAP1 PUSH2 0x2423 JUMP JUMPDEST PUSH1 0x40 MLOAD DUP1 SWAP2 SUB SWAP1 REVERT JUMPDEST PUSH2 0x17B9 PUSH8 0x26EBA5B71F7D9B1E PUSH1 0xC0 SHL PUSH2 0x203 JUMP JUMPDEST POP POP POP JUMP JUMPDEST PUSH1 0x0 DUP1 PUSH32 0x2B422603D65E337AE26A027B7118948D11570638C557BBDC495C4F3504E05B1E SWAP1 POP DUP1 SWAP2 POP POP SWAP1 JUMP JUMPDEST PUSH1 0x40 MLOAD DUP1 PUSH1 0xA0 ADD PUSH1 0x40 MSTORE DUP1 PUSH1 0x60 DUP2 MSTORE PUSH1 0x20 ADD PUSH1 0x0 ISZERO ISZERO DUP2 MSTORE PUSH1 0x20 ADD PUSH1 0x0 PUSH1 0x2 DUP2 GT ISZERO PUSH2 0x181A JUMPI PUSH2 0x1819 PUSH2 0x1BE1 JUMP JUMPDEST JUMPDEST DUP2 MSTORE PUSH1 0x20 ADD PUSH1 0x0 DUP2 MSTORE PUSH1 0x20 ADD PUSH1 0x0 DUP2 MSTORE POP SWAP1 JUMP JUMPDEST PUSH1 0x0 PUSH1 0x40 MLOAD SWAP1 POP SWAP1 JUMP JUMPDEST PUSH1 0x0 DUP1 REVERT JUMPDEST PUSH1 0x0 DUP1 REVERT JUMPDEST PUSH1 0x0 DUP1 REVERT JUMPDEST PUSH1 0x0 DUP1 REVERT JUMPDEST PUSH1 0x0 PUSH1 0x1F NOT PUSH1 0x1F DUP4 ADD AND SWAP1 POP SWAP2 SWAP1 POP JUMP JUMPDEST PUSH32 0x4E487B7100000000000000000000000000000000000000000000000000000000 PUSH1 0x0 MSTORE PUSH1 0x41 PUSH1 0x4 MSTORE PUSH1 0x24 PUSH1 0x0 REVERT JUMPDEST PUSH2 0x1895 DUP3 PUSH2 0x184C JUMP JUMPDEST DUP2 ADD DUP2 DUP2 LT PUSH8 0xFFFFFFFFFFFFFFFF DUP3 GT OR ISZERO PUSH2 0x18B4 JUMPI PUSH2 0x18B3 PUSH2 0x185D JUMP JUMPDEST JUMPDEST DUP1 PUSH1 0x40 MSTORE POP POP POP JUMP JUMPDEST PUSH1 0x0 PUSH2 0x18C7 PUSH2 0x182E JUMP JUMPDEST SWAP1 POP PUSH2 0x18D3 DUP3 DUP3 PUSH2 0x188C JUMP JUMPDEST SWAP2 SWAP1 POP JUMP JUMPDEST PUSH1 0x0 PUSH8 0xFFFFFFFFFFFFFFFF DUP3 GT ISZERO PUSH2 0x18F3 JUMPI PUSH2 0x18F2 PUSH2 0x185D JUMP JUMPDEST JUMPDEST PUSH2 0x18FC DUP3 PUSH2 0x184C JUMP JUMPDEST SWAP1 POP PUSH1 0x20 DUP2 ADD SWAP1 POP SWAP2 SWAP1 POP JUMP JUMPDEST DUP3 DUP2 DUP4 CALLDATACOPY PUSH1 0x0 DUP4 DUP4 ADD MSTORE POP POP POP JUMP JUMPDEST PUSH1 0x0 PUSH2 0x192B PUSH2 0x1926 DUP5 PUSH2 0x18D8 JUMP JUMPDEST PUSH2 0x18BD JUMP JUMPDEST SWAP1 POP DUP3 DUP2 MSTORE PUSH1 0x20 DUP2 ADD DUP5 DUP5 DUP5 ADD GT ISZERO PUSH2 0x1947 JUMPI PUSH2 0x1946 PUSH2 0x1847 JUMP JUMPDEST JUMPDEST PUSH2 0x1952 DUP5 DUP3 DUP6 PUSH2 0x1909 JUMP JUMPDEST POP SWAP4 SWAP3 POP POP POP JUMP JUMPDEST PUSH1 0x0 DUP3 PUSH1 0x1F DUP4 ADD SLT PUSH2 0x196F JUMPI PUSH2 0x196E PUSH2 0x1842 JUMP JUMPDEST JUMPDEST DUP2 CALLDATALOAD PUSH2 0x197F DUP5 DUP3 PUSH1 0x20 DUP7 ADD PUSH2 0x1918 JUMP JUMPDEST SWAP2 POP POP SWAP3 SWAP2 POP POP JUMP JUMPDEST PUSH1 0x3 DUP2 LT PUSH2 0x1995 JUMPI PUSH1 0x0 DUP1 REVERT JUMPDEST POP JUMP JUMPDEST PUSH1 0x0 DUP2 CALLDATALOAD SWAP1 POP PUSH2 0x19A7 DUP2 PUSH2 0x1988 JUMP JUMPDEST SWAP3 SWAP2 POP POP JUMP JUMPDEST PUSH1 0x0 DUP2 ISZERO ISZERO SWAP1 POP SWAP2 SWAP1 POP JUMP JUMPDEST PUSH2 0x19C2 DUP2 PUSH2 0x19AD JUMP JUMPDEST DUP2 EQ PUSH2 0x19CD JUMPI PUSH1 0x0 DUP1 REVERT JUMPDEST POP JUMP JUMPDEST PUSH1 0x0 DUP2 CALLDATALOAD SWAP1 POP PUSH2 0x19DF DUP2 PUSH2 0x19B9 JUMP JUMPDEST SWAP3 SWAP2 POP POP JUMP JUMPDEST PUSH1 0x0 DUP2 SWAP1 POP SWAP2 SWAP1 POP JUMP JUMPDEST PUSH2 0x19F8 DUP2 PUSH2 0x19E5 JUMP JUMPDEST DUP2 EQ PUSH2 0x1A03 JUMPI PUSH1 0x0 DUP1 REVERT JUMPDEST POP JUMP JUMPDEST PUSH1 0x0 DUP2 CALLDATALOAD SWAP1 POP PUSH2 0x1A15 DUP2 PUSH2 0x19EF JUMP JUMPDEST SWAP3 SWAP2 POP POP JUMP JUMPDEST PUSH1 0x0 DUP1 PUSH1 0x0 DUP1 PUSH1 0x80 DUP6 DUP8 SUB SLT ISZERO PUSH2 0x1A35 JUMPI PUSH2 0x1A34 PUSH2 0x1838 JUMP JUMPDEST JUMPDEST PUSH1 0x0 DUP6 ADD CALLDATALOAD PUSH8 0xFFFFFFFFFFFFFFFF DUP2 GT ISZERO PUSH2 0x1A53 JUMPI PUSH2 0x1A52 PUSH2 0x183D JUMP JUMPDEST JUMPDEST PUSH2 0x1A5F DUP8 DUP3 DUP9 ADD PUSH2 0x195A JUMP JUMPDEST SWAP5 POP POP PUSH1 0x20 PUSH2 0x1A70 DUP8 DUP3 DUP9 ADD PUSH2 0x1998 JUMP JUMPDEST SWAP4 POP POP PUSH1 0x40 PUSH2 0x1A81 DUP8 DUP3 DUP9 ADD PUSH2 0x19D0 JUMP JUMPDEST SWAP3 POP POP PUSH1 0x60 PUSH2 0x1A92 DUP8 DUP3 DUP9 ADD PUSH2 0x1A06 JUMP JUMPDEST SWAP2 POP POP SWAP3 SWAP6 SWAP2 SWAP5 POP SWAP3 POP JUMP JUMPDEST PUSH1 0x0 PUSH20 0xFFFFFFFFFFFFFFFFFFFFFFFFFFFFFFFFFFFFFFFF DUP3 AND SWAP1 POP SWAP2 SWAP1 POP JUMP JUMPDEST PUSH1 0x0 PUSH2 0x1AC9 DUP3 PUSH2 0x1A9E JUMP JUMPDEST SWAP1 POP SWAP2 SWAP1 POP JUMP JUMPDEST PUSH2 0x1AD9 DUP2 PUSH2 0x1ABE JUMP JUMPDEST DUP2 EQ PUSH2 0x1AE4 JUMPI PUSH1 0x0 DUP1 REVERT JUMPDEST POP JUMP JUMPDEST PUSH1 0x0 DUP2 CALLDATALOAD SWAP1 POP PUSH2 0x1AF6 DUP2 PUSH2 0x1AD0 JUMP JUMPDEST SWAP3 SWAP2 POP POP JUMP JUMPDEST PUSH1 0x0 PUSH1 0x20 DUP3 DUP5 SUB SLT ISZERO PUSH2 0x1B12 JUMPI PUSH2 0x1B11 PUSH2 0x1838 JUMP JUMPDEST JUMPDEST PUSH1 0x0 PUSH2 0x1B20 DUP5 DUP3 DUP6 ADD PUSH2 0x1AE7 JUMP JUMPDEST SWAP2 POP POP SWAP3 SWAP2 POP POP JUMP JUMPDEST PUSH2 0x1B32 DUP2 PUSH2 0x19E5 JUMP JUMPDEST DUP3 MSTORE POP POP JUMP JUMPDEST PUSH1 0x0 PUSH1 0x20 DUP3 ADD SWAP1 POP PUSH2 0x1B4D PUSH1 0x0 DUP4 ADD DUP5 PUSH2 0x1B29 JUMP JUMPDEST SWAP3 SWAP2 POP POP JUMP JUMPDEST PUSH1 0x0 DUP2 MLOAD SWAP1 POP SWAP2 SWAP1 POP JUMP JUMPDEST PUSH1 0x0 DUP3 DUP3 MSTORE PUSH1 0x20 DUP3 ADD SWAP1 POP SWAP3 SWAP2 POP POP JUMP JUMPDEST PUSH1 0x0 JUMPDEST DUP4 DUP2 LT ISZERO PUSH2 0x1B8D JUMPI DUP1 DUP3 ADD MLOAD DUP2 DUP5 ADD MSTORE PUSH1 0x20 DUP2 ADD SWAP1 POP PUSH2 0x1B72 JUMP JUMPDEST PUSH1 0x0 DUP5 DUP5 ADD MSTORE POP POP POP POP JUMP JUMPDEST PUSH1 0x0 PUSH2 0x1BA4 DUP3 PUSH2 0x1B53 JUMP JUMPDEST PUSH2 0x1BAE DUP2 DUP6 PUSH2 0x1B5E JUMP JUMPDEST SWAP4 POP PUSH2 0x1BBE DUP2 DUP6 PUSH1 0x20 DUP7 ADD PUSH2 0x1B6F JUMP JUMPDEST PUSH2 0x1BC7 DUP2 PUSH2 0x184C JUMP JUMPDEST DUP5 ADD SWAP2 POP POP SWAP3 SWAP2 POP POP JUMP JUMPDEST PUSH2 0x1BDB DUP2 PUSH2 0x19AD JUMP JUMPDEST DUP3 MSTORE POP POP JUMP JUMPDEST PUSH32 0x4E487B7100000000000000000000000000000000000000000000000000000000 PUSH1 0x0 MSTORE PUSH1 0x21 PUSH1 0x4 MSTORE PUSH1 0x24 PUSH1 0x0 REVERT JUMPDEST PUSH1 0x3 DUP2 LT PUSH2 0x1C21 JUMPI PUSH2 0x1C20 PUSH2 0x1BE1 JUMP JUMPDEST JUMPDEST POP JUMP JUMPDEST PUSH1 0x0 DUP2 SWAP1 POP PUSH2 0x1C32 DUP3 PUSH2 0x1C10 JUMP JUMPDEST SWAP2 SWAP1 POP JUMP JUMPDEST PUSH1 0x0 PUSH2 0x1C42 DUP3 PUSH2 0x1C24 JUMP JUMPDEST SWAP1 POP SWAP2 SWAP1 POP JUMP JUMPDEST PUSH2 0x1C52 DUP2 PUSH2 0x1C37 JUMP JUMPDEST DUP3 MSTORE POP POP JUMP JUMPDEST PUSH2 0x1C61 DUP2 PUSH2 0x19E5 JUMP JUMPDEST DUP3 MSTORE POP POP JUMP JUMPDEST PUSH1 0x0 PUSH1 0xA0 DUP4 ADD PUSH1 0x0 DUP4 ADD MLOAD DUP5 DUP3 SUB PUSH1 0x0 DUP7 ADD MSTORE PUSH2 0x1C84 DUP3 DUP3 PUSH2 0x1B99 JUMP JUMPDEST SWAP2 POP POP PUSH1 0x20 DUP4 ADD MLOAD PUSH2 0x1C99 PUSH1 0x20 DUP7 ADD DUP3 PUSH2 0x1BD2 JUMP JUMPDEST POP PUSH1 0x40 DUP4 ADD MLOAD PUSH2 0x1CAC PUSH1 0x40 DUP7 ADD DUP3 PUSH2 0x1C49 JUMP JUMPDEST POP PUSH1 0x60 DUP4 ADD MLOAD PUSH2 0x1CBF PUSH1 0x60 DUP7 ADD DUP3 PUSH2 0x1C58 JUMP JUMPDEST POP PUSH1 0x80 DUP4 ADD MLOAD PUSH2 0x1CD2 PUSH1 0x80 DUP7 ADD DUP3 PUSH2 0x1C58 JUMP JUMPDEST POP DUP1 SWAP2 POP POP SWAP3 SWAP2 POP POP JUMP JUMPDEST PUSH1 0x0 PUSH1 0x20 DUP3 ADD SWAP1 POP DUP2 DUP2 SUB PUSH1 0x0 DUP4 ADD MSTORE PUSH2 0x1CF7 DUP2 DUP5 PUSH2 0x1C67 JUMP JUMPDEST SWAP1 POP SWAP3 SWAP2 POP POP JUMP JUMPDEST PUSH2 0x1D08 DUP2 PUSH2 0x1ABE JUMP JUMPDEST DUP3 MSTORE POP POP JUMP JUMPDEST PUSH1 0x0 PUSH1 0x20 DUP3 ADD SWAP1 POP PUSH2 0x1D23 PUSH1 0x0 DUP4 ADD DUP5 PUSH2 0x1CFF JUMP JUMPDEST SWAP3 SWAP2 POP POP JUMP JUMPDEST PUSH1 0x0 PUSH2 0x1D34 DUP3 PUSH2 0x1A9E JUMP JUMPDEST SWAP1 POP SWAP2 SWAP1 POP JUMP JUMPDEST PUSH2 0x1D44 DUP2 PUSH2 0x1D29 JUMP JUMPDEST DUP2 EQ PUSH2 0x1D4F JUMPI PUSH1 0x0 DUP1 REVERT JUMPDEST POP JUMP JUMPDEST PUSH1 0x0 DUP2 CALLDATALOAD SWAP1 POP PUSH2 0x1D61 DUP2 PUSH2 0x1D3B JUMP JUMPDEST SWAP3 SWAP2 POP POP JUMP JUMPDEST PUSH1 0x0 DUP1 PUSH1 0x40 DUP4 DUP6 SUB SLT ISZERO PUSH2 0x1D7E JUMPI PUSH2 0x1D7D PUSH2 0x1838 JUMP JUMPDEST JUMPDEST PUSH1 0x0 PUSH2 0x1D8C DUP6 DUP3 DUP7 ADD PUSH2 0x1D52 JUMP JUMPDEST SWAP3 POP POP PUSH1 0x20 PUSH2 0x1D9D DUP6 DUP3 DUP7 ADD PUSH2 0x1A06 JUMP JUMPDEST SWAP2 POP POP SWAP3 POP SWAP3 SWAP1 POP JUMP JUMPDEST PUSH1 0x0 DUP2 MLOAD SWAP1 POP SWAP2 SWAP1 POP JUMP JUMPDEST PUSH1 0x0 DUP3 DUP3 MSTORE PUSH1 0x20 DUP3 ADD SWAP1 POP SWAP3 SWAP2 POP POP JUMP JUMPDEST PUSH1 0x0 DUP2 SWAP1 POP PUSH1 0x20 DUP3 ADD SWAP1 POP SWAP2 SWAP1 POP JUMP JUMPDEST PUSH1 0x0 PUSH1 0xA0 DUP4 ADD PUSH1 0x0 DUP4 ADD MLOAD DUP5 DUP3 SUB PUSH1 0x0 DUP7 ADD MSTORE PUSH2 0x1DF0 DUP3 DUP3 PUSH2 0x1B99 JUMP JUMPDEST SWAP2 POP POP PUSH1 0x20 DUP4 ADD MLOAD PUSH2 0x1E05 PUSH1 0x20 DUP7 ADD DUP3 PUSH2 0x1BD2 JUMP JUMPDEST POP PUSH1 0x40 DUP4 ADD MLOAD PUSH2 0x1E18 PUSH1 0x40 DUP7 ADD DUP3 PUSH2 0x1C49 JUMP JUMPDEST POP PUSH1 0x60 DUP4 ADD MLOAD PUSH2 0x1E2B PUSH1 0x60 DUP7 ADD DUP3 PUSH2 0x1C58 JUMP JUMPDEST POP PUSH1 0x80 DUP4 ADD MLOAD PUSH2 0x1E3E PUSH1 0x80 DUP7 ADD DUP3 PUSH2 0x1C58 JUMP JUMPDEST POP DUP1 SWAP2 POP POP SWAP3 SWAP2 POP POP JUMP JUMPDEST PUSH1 0x0 PUSH2 0x1E55 DUP4 DUP4 PUSH2 0x1DD3 JUMP JUMPDEST SWAP1 POP SWAP3 SWAP2 POP POP JUMP JUMPDEST PUSH1 0x0 PUSH1 0x20 DUP3 ADD SWAP1 POP SWAP2 SWAP1 POP JUMP JUMPDEST PUSH1 0x0 PUSH2 0x1E75 DUP3 PUSH2 0x1DA7 JUMP JUMPDEST PUSH2 0x1E7F DUP2 DUP6 PUSH2 0x1DB2 JUMP JUMPDEST SWAP4 POP DUP4 PUSH1 0x20 DUP3 MUL DUP6 ADD PUSH2 0x1E91 DUP6 PUSH2 0x1DC3 JUMP JUMPDEST DUP1 PUSH1 0x0 JUMPDEST DUP6 DUP2 LT ISZERO PUSH2 0x1ECD JUMPI DUP5 DUP5 SUB DUP10 MSTORE DUP2 MLOAD PUSH2 0x1EAE DUP6 DUP3 PUSH2 0x1E49 JUMP JUMPDEST SWAP5 POP PUSH2 0x1EB9 DUP4 PUSH2 0x1E5D JUMP JUMPDEST SWAP3 POP PUSH1 0x20 DUP11 ADD SWAP10 POP POP PUSH1 0x1 DUP2 ADD SWAP1 POP PUSH2 0x1E95 JUMP JUMPDEST POP DUP3 SWAP8 POP DUP8 SWAP6 POP POP POP POP POP POP SWAP3 SWAP2 POP POP JUMP JUMPDEST PUSH1 0x0 PUSH1 0x20 DUP3 ADD SWAP1 POP DUP2 DUP2 SUB PUSH1 0x0 DUP4 ADD MSTORE PUSH2 0x1EF9 DUP2 DUP5 PUSH2 0x1E6A JUMP JUMPDEST SWAP1 POP SWAP3 SWAP2 POP POP JUMP JUMPDEST PUSH1 0x0 DUP1 PUSH1 0x0 PUSH1 0x60 DUP5 DUP7 SUB SLT ISZERO PUSH2 0x1F1A JUMPI PUSH2 0x1F19 PUSH2 0x1838 JUMP JUMPDEST JUMPDEST PUSH1 0x0 DUP5 ADD CALLDATALOAD PUSH8 0xFFFFFFFFFFFFFFFF DUP2 GT ISZERO PUSH2 0x1F38 JUMPI PUSH2 0x1F37 PUSH2 0x183D JUMP JUMPDEST JUMPDEST PUSH2 0x1F44 DUP7 DUP3 DUP8 ADD PUSH2 0x195A JUMP JUMPDEST SWAP4 POP POP PUSH1 0x20 PUSH2 0x1F55 DUP7 DUP3 DUP8 ADD PUSH2 0x1998 JUMP JUMPDEST SWAP3 POP POP PUSH1 0x40 PUSH2 0x1F66 DUP7 DUP3 DUP8 ADD PUSH2 0x1A06 JUMP JUMPDEST SWAP2 POP POP SWAP3 POP SWAP3 POP SWAP3 JUMP JUMPDEST PUSH32 0x4E487B7100000000000000000000000000000000000000000000000000000000 PUSH1 0x0 MSTORE PUSH1 0x22 PUSH1 0x4 MSTORE PUSH1 0x24 PUSH1 0x0 REVERT JUMPDEST PUSH1 0x0 PUSH1 0x2 DUP3 DIV SWAP1 POP PUSH1 0x1 DUP3 AND DUP1 PUSH2 0x1FB7 JUMPI PUSH1 0x7F DUP3 AND SWAP2 POP JUMPDEST PUSH1 0x20 DUP3 LT DUP2 SUB PUSH2 0x1FCA JUMPI PUSH2 0x1FC9 PUSH2 0x1F70 JUMP JUMPDEST JUMPDEST POP SWAP2 SWAP1 POP JUMP JUMPDEST PUSH1 0x0 DUP2 SWAP1 POP DUP2 PUSH1 0x0 MSTORE PUSH1 0x20 PUSH1 0x0 KECCAK256 SWAP1 POP SWAP2 SWAP1 POP JUMP JUMPDEST PUSH1 0x0 PUSH1 0x20 PUSH1 0x1F DUP4 ADD DIV SWAP1 POP SWAP2 SWAP1 POP JUMP JUMPDEST PUSH1 0x0 DUP3 DUP3 SHL SWAP1 POP SWAP3 SWAP2 POP POP JUMP JUMPDEST PUSH1 0x0 PUSH1 0x8 DUP4 MUL PUSH2 0x2032 PUSH32 0xFFFFFFFFFFFFFFFFFFFFFFFFFFFFFFFFFFFFFFFFFFFFFFFFFFFFFFFFFFFFFFFF DUP3 PUSH2 0x1FF5 JUMP JUMPDEST PUSH2 0x203C DUP7 DUP4 PUSH2 0x1FF5 JUMP JUMPDEST SWAP6 POP DUP1 NOT DUP5 AND SWAP4 POP DUP1 DUP7 AND DUP5 OR SWAP3 POP POP POP SWAP4 SWAP3 POP POP POP JUMP JUMPDEST PUSH1 0x0 DUP2 SWAP1 POP SWAP2 SWAP1 POP JUMP JUMPDEST PUSH1 0x0 PUSH2 0x2079 PUSH2 0x2074 PUSH2 0x206F DUP5 PUSH2 0x19E5 JUMP JUMPDEST PUSH2 0x2054 JUMP JUMPDEST PUSH2 0x19E5 JUMP JUMPDEST SWAP1 POP SWAP2 SWAP1 POP JUMP JUMPDEST PUSH1 0x0 DUP2 SWAP1 POP SWAP2 SWAP1 POP JUMP JUMPDEST PUSH2 0x2093 DUP4 PUSH2 0x205E JUMP JUMPDEST PUSH2 0x20A7 PUSH2 0x209F DUP3 PUSH2 0x2080 JUMP JUMPDEST DUP5 DUP5 SLOAD PUSH2 0x2002 JUMP JUMPDEST DUP3 SSTORE POP POP POP POP JUMP JUMPDEST PUSH1 0x0 SWAP1 JUMP JUMPDEST PUSH2 0x20BC PUSH2 0x20AF JUMP JUMPDEST PUSH2 0x20C7 DUP2 DUP5 DUP5 PUSH2 0x208A JUMP JUMPDEST POP POP POP JUMP JUMPDEST JUMPDEST DUP2 DUP2 LT ISZERO PUSH2 0x20EB JUMPI PUSH2 0x20E0 PUSH1 0x0 DUP3 PUSH2 0x20B4 JUMP JUMPDEST PUSH1 0x1 DUP2 ADD SWAP1 POP PUSH2 0x20CD JUMP JUMPDEST POP POP JUMP JUMPDEST PUSH1 0x1F DUP3 GT ISZERO PUSH2 0x2130 JUMPI PUSH2 0x2101 DUP2 PUSH2 0x1FD0 JUMP JUMPDEST PUSH2 0x210A DUP5 PUSH2 0x1FE5 JUMP JUMPDEST DUP2 ADD PUSH1 0x20 DUP6 LT ISZERO PUSH2 0x2119 JUMPI DUP2 SWAP1 POP JUMPDEST PUSH2 0x212D PUSH2 0x2125 DUP6 PUSH2 0x1FE5 JUMP JUMPDEST DUP4 ADD DUP3 PUSH2 0x20CC JUMP JUMPDEST POP POP JUMPDEST POP POP POP JUMP JUMPDEST PUSH1 0x0 DUP3 DUP3 SHR SWAP1 POP SWAP3 SWAP2 POP POP JUMP JUMPDEST PUSH1 0x0 PUSH2 0x2153 PUSH1 0x0 NOT DUP5 PUSH1 0x8 MUL PUSH2 0x2135 JUMP JUMPDEST NOT DUP1 DUP4 AND SWAP2 POP POP SWAP3 SWAP2 POP POP JUMP JUMPDEST PUSH1 0x0 PUSH2 0x216C DUP4 DUP4 PUSH2 0x2142 JUMP JUMPDEST SWAP2 POP DUP3 PUSH1 0x2 MUL DUP3 OR SWAP1 POP SWAP3 SWAP2 POP POP JUMP JUMPDEST PUSH2 0x2185 DUP3 PUSH2 0x1B53 JUMP JUMPDEST PUSH8 0xFFFFFFFFFFFFFFFF DUP2 GT ISZERO PUSH2 0x219E JUMPI PUSH2 0x219D PUSH2 0x185D JUMP JUMPDEST JUMPDEST PUSH2 0x21A8 DUP3 SLOAD PUSH2 0x1F9F JUMP JUMPDEST PUSH2 0x21B3 DUP3 DUP3 DUP6 PUSH2 0x20EF JUMP JUMPDEST PUSH1 0x0 PUSH1 0x20 SWAP1 POP PUSH1 0x1F DUP4 GT PUSH1 0x1 DUP2 EQ PUSH2 0x21E6 JUMPI PUSH1 0x0 DUP5 ISZERO PUSH2 0x21D4 JUMPI DUP3 DUP8 ADD MLOAD SWAP1 POP JUMPDEST PUSH2 0x21DE DUP6 DUP3 PUSH2 0x2160 JUMP JUMPDEST DUP7 SSTORE POP PUSH2 0x2246 JUMP JUMPDEST PUSH1 0x1F NOT DUP5 AND PUSH2 0x21F4 DUP7 PUSH2 0x1FD0 JUMP JUMPDEST PUSH1 0x0 JUMPDEST DUP3 DUP2 LT ISZERO PUSH2 0x221C JUMPI DUP5 DUP10 ADD MLOAD DUP3 SSTORE PUSH1 0x1 DUP3 ADD SWAP2 POP PUSH1 0x20 DUP6 ADD SWAP5 POP PUSH1 0x20 DUP2 ADD SWAP1 POP PUSH2 0x21F7 JUMP JUMPDEST DUP7 DUP4 LT ISZERO PUSH2 0x2239 JUMPI DUP5 DUP10 ADD MLOAD PUSH2 0x2235 PUSH1 0x1F DUP10 AND DUP3 PUSH2 0x2142 JUMP JUMPDEST DUP4 SSTORE POP JUMPDEST PUSH1 0x1 PUSH1 0x2 DUP9 MUL ADD DUP9 SSTORE POP POP POP JUMPDEST POP POP POP POP POP POP JUMP JUMPDEST PUSH32 0x4E487B7100000000000000000000000000000000000000000000000000000000 PUSH1 0x0 MSTORE PUSH1 0x11 PUSH1 0x4 MSTORE PUSH1 0x24 PUSH1 0x0 REVERT JUMPDEST PUSH1 0x0 PUSH2 0x2288 DUP3 PUSH2 0x19E5 JUMP JUMPDEST SWAP2 POP PUSH2 0x2293 DUP4 PUSH2 0x19E5 JUMP JUMPDEST SWAP3 POP DUP3 DUP3 SUB SWAP1 POP DUP2 DUP2 GT ISZERO PUSH2 0x22AB JUMPI PUSH2 0x22AA PUSH2 0x224E JUMP JUMPDEST JUMPDEST SWAP3 SWAP2 POP POP JUMP JUMPDEST PUSH1 0x0 DUP3 DUP3 MSTORE PUSH1 0x20 DUP3 ADD SWAP1 POP SWAP3 SWAP2 POP POP JUMP JUMPDEST PUSH32 0x4F6E6C79206F776E657200000000000000000000000000000000000000000000 PUSH1 0x0 DUP3 ADD MSTORE POP JUMP JUMPDEST PUSH1 0x0 PUSH2 0x22F8 PUSH1 0xA DUP4 PUSH2 0x22B1 JUMP JUMPDEST SWAP2 POP PUSH2 0x2303 DUP3 PUSH2 0x22C2 JUMP JUMPDEST PUSH1 0x20 DUP3 ADD SWAP1 POP SWAP2 SWAP1 POP JUMP JUMPDEST PUSH1 0x0 PUSH1 0x20 DUP3 ADD SWAP1 POP DUP2 DUP2 SUB PUSH1 0x0 DUP4 ADD MSTORE PUSH2 0x2327 DUP2 PUSH2 0x22EB JUMP JUMPDEST SWAP1 POP SWAP2 SWAP1 POP JUMP JUMPDEST PUSH1 0x0 DUP2 SWAP1 POP SWAP3 SWAP2 POP POP JUMP JUMPDEST POP JUMP JUMPDEST PUSH1 0x0 PUSH2 0x2349 PUSH1 0x0 DUP4 PUSH2 0x232E JUMP JUMPDEST SWAP2 POP PUSH2 0x2354 DUP3 PUSH2 0x2339 JUMP JUMPDEST PUSH1 0x0 DUP3 ADD SWAP1 POP SWAP2 SWAP1 POP JUMP JUMPDEST PUSH1 0x0 PUSH2 0x236A DUP3 PUSH2 0x233C JUMP JUMPDEST SWAP2 POP DUP2 SWAP1 POP SWAP2 SWAP1 POP JUMP JUMPDEST PUSH1 0x0 PUSH2 0x237F DUP3 PUSH2 0x19E5 JUMP JUMPDEST SWAP2 POP PUSH2 0x238A DUP4 PUSH2 0x19E5 JUMP JUMPDEST SWAP3 POP DUP3 DUP3 ADD SWAP1 POP DUP1 DUP3 GT ISZERO PUSH2 0x23A2 JUMPI PUSH2 0x23A1 PUSH2 0x224E JUMP JUMPDEST JUMPDEST SWAP3 SWAP2 POP POP JUMP JUMPDEST PUSH32 0x4E487B7100000000000000000000000000000000000000000000000000000000 PUSH1 0x0 MSTORE PUSH1 0x32 PUSH1 0x4 MSTORE PUSH1 0x24 PUSH1 0x0 REVERT JUMPDEST PUSH32 0x5769746864726177206661696C65640000000000000000000000000000000000 PUSH1 0x0 DUP3 ADD MSTORE POP JUMP JUMPDEST PUSH1 0x0 PUSH2 0x240D PUSH1 0xF DUP4 PUSH2 0x22B1 JUMP JUMPDEST SWAP2 POP PUSH2 0x2418 DUP3 PUSH2 0x23D7 JUMP JUMPDEST PUSH1 0x20 DUP3 ADD SWAP1 POP SWAP2 SWAP1 POP JUMP JUMPDEST PUSH1 0x0 PUSH1 0x20 DUP3 ADD SWAP1 POP DUP2 DUP2 SUB PUSH1 0x0 DUP4 ADD MSTORE PUSH2 0x243C DUP2 PUSH2 0x2400 JUMP JUMPDEST SWAP1 POP SWAP2 SWAP1 POP JUMP INVALID LOG2 PUSH5 0x6970667358 0x22 SLT KECCAK256 0xBC DUP11 SWAP5 0xAC 0xB1 DUP16 CALL 0xC6 EXTCALL 0xBF MSTORE 0xD2 DUP3 LOG3 PUSH22 0x9BEBBD29C7A1F700015DD0F901B0CECBCD64736F6C63 NUMBER STOP ADDMOD 0x1E STOP CALLER "},"methodIdentifiers":{"disburseSalary(address,uint256)":"bba2270a","getAllUsers()":"e2842d79","getUser(address)":"6f77926b","owner()":"8da5cb5b","registerUser(string,uint8,uint256)":"e74d533e","remainingSalary(address)":"269842e1","updateUser(string,uint8,bool,uint256)":"1fc82d91","withdraw(address,uint256)":"f3fef3a3"}}}}}