{"contracts/Token.sol":{"Token":{"abi":[{"anonymous":false,"inputs":[{"indexed":true,"internalType":"address","name":"owner","type":"address"},{"indexed":true,"internalType":"address","name":"spender","type":"address"},{"indexed":false,"internalType":"uint256","name":"value","type":"uint256"}],"name":"Approval","type":"event"},{"anonymous":false,"inputs":[{"indexed":true,"internalType":"address","name":"from","type":"address"},{"indexed":true,"internalType":"address","name":"to","type":"address"},{"indexed":false,"internalType":"uint256","name":"value","type":"uint256"}],"name":"Transfer","type":"event"},{"inputs":[{"internalType":"address","name":"owner","type":"address"},{"internalType":"address","name":"spender","type":"address"}],"name":"allowance","outputs":[{"internalType":"uint256","name":"","type":"uint256"}],"stateMutability":"view","type":"function"},{"inputs":[{"internalType":"address","name":"spender","type":"address"},{"internalType":"uint256","name":"value","type":"uint256"}],"name":"approve","outputs":[{"internalType":"bool","name":"","type":"bool"}],"stateMutability":"nonpayable","type":"function"},{"inputs":[{"internalType":"address","name":"account","type":"address"}],"name":"balanceOf","outputs":[{"internalType":"uint256","name":"","type":"uint256"}],"stateMutability":"view","type":"function"},{"inputs":[{"internalType":"uint256","name":"value","type":"uint256"}],"name":"buyToken","outputs":[],"stateMutability":"nonpayable","type":"function"},{"inputs":[],"name":"decimals","outputs":[{"internalType":"uint8","name":"","type":"uint8"}],"stateMutability":"view","type":"function"},{"inputs":[],"name":"name","outputs":[{"internalType":"string","name":"","type":"string"}],"stateMutability":"view","type":"function"},{"inputs":[],"name":"symbol","outputs":[{"internalType":"string","name":"","type":"string"}],"stateMutability":"view","type":"function"},{"inputs":[],"name":"totalSupply","outputs":[{"internalType":"uint256","name":"","type":"uint256"}],"stateMutability":"pure","type":"function"},{"inputs":[{"internalType":"address","name":"to","type":"address"},{"internalType":"uint256","name":"value","type":"uint256"}],"name":"transfer","outputs":[{"internalType":"bool","name":"","type":"bool"}],"stateMutability":"nonpayable","type":"function"},{"inputs":[{"internalType":"address","name":"from","type":"address"},{"internalType":"address","name":"to","type":"address"},{"internalType":"uint256","name":"value","type":"uint256"}],"name":"transferFrom","outputs":[{"internalType":"bool","name":"","type":"bool"}],"stateMutability":"nonpayable","type":"function"}],"evm":{"bytecode":{"linkReferences":{},"object":"6080604052348015600f57600080fd5b506115048061001f6000396000f3fe608060405234801561001057600080fd5b506004361061009e5760003560e01c8063313ce56711610066578063313ce5671461015b57806370a082311461017957806395d89b41146101a9578063a9059cbb146101c7578063dd62ed3e146101f75761009e565b806306fdde03146100a3578063095ea7b3146100c157806318160ddd146100f157806323b872dd1461010f5780632d296bf11461013f575b600080fd5b6100ab610227565b6040516100b8919061113e565b60405180910390f35b6100db60048036038101906100d691906111f9565b610260565b6040516100e89190611254565b60405180910390f35b6100f96105f0565b604051610106919061127e565b60405180910390f35b61012960048036038101906101249190611299565b610638565b6040516101369190611254565b60405180910390f35b610159600480360381019061015491906112ec565b610a51565b005b610163610cb8565b6040516101709190611335565b60405180910390f35b610193600480360381019061018e9190611350565b610cbd565b6040516101a0919061127e565b60405180910390f35b6101b1610d41565b6040516101be919061113e565b60405180910390f35b6101e160048036038101906101dc91906111f9565b610d7a565b6040516101ee9190611254565b60405180910390f35b610211600480360381019061020c919061137d565b610fe8565b60405161021e919061127e565b60405180910390f35b6040518060400160405280600581526020017f546f6b656e00000000000000000000000000000000000000000000000000000081525081565b6000610276671620ae09ebc9d62560c01b6110ab565b61028a6726c25f06821b83e960c01b6110ab565b61029e679966dc3c7a5697c160c01b6110ab565b816000803373ffffffffffffffffffffffffffffffffffffffff1673ffffffffffffffffffffffffffffffffffffffff16815260200190815260200160002054106105a9576102f767c55e61fc366aa21e60c01b6110ab565b61030b67b638e6c24ee451bd60c01b6110ab565b61031f676d6b3d4052441adc60c01b6110ab565b81600160003373ffffffffffffffffffffffffffffffffffffffff1673ffffffffffffffffffffffffffffffffffffffff16815260200190815260200160002060008573ffffffffffffffffffffffffffffffffffffffff1673ffffffffffffffffffffffffffffffffffffffff168152602001908152602001600020546103a791906113ec565b6000803373ffffffffffffffffffffffffffffffffffffffff1673ffffffffffffffffffffffffffffffffffffffff1681526020019081526020016000205410610564576103ff67e9e733eea9a7c3a960c01b6110ab565b61041367b076234072ba746460c01b6110ab565b81600160003373ffffffffffffffffffffffffffffffffffffffff1673ffffffffffffffffffffffffffffffffffffffff16815260200190815260200160002060008573ffffffffffffffffffffffffffffffffffffffff1673ffffffffffffffffffffffffffffffffffffffff168152602001908152602001600020600082825461049f91906113ec565b925050819055506104ba670a023280b27e8c0460c01b6110ab565b6104ce6752645e80a1417c5760c01b6110ab565b8273ffffffffffffffffffffffffffffffffffffffff163373ffffffffffffffffffffffffffffffffffffffff167f8c5be1e5ebec7d5bd14f71427d1e84f3dd0314c0f7b2291e5b200ac8c7c3b9258460405161052b919061127e565b60405180910390a36105476782004a4e1ca94a9660c01b6110ab565b61055b678dda53979558ba5c60c01b6110ab565b600190506105ea565b61057867eea3aa4e6872e4fa60c01b6110ab565b61058c67a92bd106a760547060c01b6110ab565b6105a0675f1ffbb0917b667760c01b6110ab565b600090506105ea565b6105bd6799c17a9ff397b36f60c01b6110ab565b6105d1678ae65b508b259dba60c01b6110ab565b6105e56741d3cfb79899ab9d60c01b6110ab565b600090505b92915050565b60006106066762f18e74b2f43bdb60c01b6110ab565b61061a67c7fe4edc6c544d8460c01b6110ab565b61062e678a2102dd3aee7e3c60c01b6110ab565b637d2b7500905090565b600061064e67bdede07f4374f0e860c01b6110ab565b61066267b2eaedf3f375367860c01b6110ab565b610676674b378c3426617e6d60c01b6110ab565b813073ffffffffffffffffffffffffffffffffffffffff1663dd62ed3e86336040518363ffffffff1660e01b81526004016106b292919061142f565b602060405180830381865afa1580156106cf573d6000803e3d6000fd5b505050506040513d601f19601f820116820180604052508101906106f3919061146d565b10610a095761070c67367d19703dd457fe60c01b6110ab565b61072067b7c065f39ebb263660c01b6110ab565b6107346785c2a25a1b3dfb1460c01b6110ab565b816000808673ffffffffffffffffffffffffffffffffffffffff1673ffffffffffffffffffffffffffffffffffffffff16815260200190815260200160002054106109c45761078d67ef784f8507df213060c01b6110ab565b6107a167169f89dc297b967860c01b6110ab565b81600160008673ffffffffffffffffffffffffffffffffffffffff1673ffffffffffffffffffffffffffffffffffffffff16815260200190815260200160002060003373ffffffffffffffffffffffffffffffffffffffff1673ffffffffffffffffffffffffffffffffffffffff168152602001908152602001600020600082825461082d919061149a565b925050819055506108486799fb0e79c13b71ff60c01b6110ab565b816000808673ffffffffffffffffffffffffffffffffffffffff1673ffffffffffffffffffffffffffffffffffffffff1681526020019081526020016000206000828254610896919061149a565b925050819055506108b167eb36ab59561c69f660c01b6110ab565b816000808573ffffffffffffffffffffffffffffffffffffffff1673ffffffffffffffffffffffffffffffffffffffff16815260200190815260200160002060008282546108ff91906113ec565b9250508190555061091a672d47b4231fbcd31b60c01b6110ab565b61092e672b577f5a4872d5f060c01b6110ab565b8273ffffffffffffffffffffffffffffffffffffffff168473ffffffffffffffffffffffffffffffffffffffff167fddf252ad1be2c89b69c2b068fc378daa952ba7f163c4a11628f55a4df523b3ef8460405161098b919061127e565b60405180910390a36109a767d659a70efa8e762960c01b6110ab565b6109bb67e4c24a6886b8b1b260c01b6110ab565b60019050610a4a565b6109d867d151484c159bab8660c01b6110ab565b6109ec67396555bb908d64c160c01b6110ab565b610a0067cb62305ef9cdfa1e60c01b6110ab565b60009050610a4a565b610a1d67ba1bd49a1d68355c60c01b6110ab565b610a31677498657ece83703860c01b6110ab565b610a4567211f34399c646e7360c01b6110ab565b600090505b9392505050565b610a65679eefeac3fd806b7960c01b6110ab565b610a796712eac1b1d6272e0560c01b6110ab565b610a8d676aa6afa3420a283360c01b6110ab565b60008060003373ffffffffffffffffffffffffffffffffffffffff1673ffffffffffffffffffffffffffffffffffffffff168152602001908152602001600020541115610c4957610ae867f89f2003e06e1e6060c01b6110ab565b610afc67b4906267c356270f60c01b6110ab565b806000803373ffffffffffffffffffffffffffffffffffffffff1673ffffffffffffffffffffffffffffffffffffffff1681526020019081526020016000206000828254610b4a91906113ec565b92505081905550610b656718488113ca286c9960c01b6110ab565b610b79670c0bda727e6da39760c01b6110ab565b3373ffffffffffffffffffffffffffffffffffffffff163373ffffffffffffffffffffffffffffffffffffffff167fddf252ad1be2c89b69c2b068fc378daa952ba7f163c4a11628f55a4df523b3ef6000803373ffffffffffffffffffffffffffffffffffffffff1673ffffffffffffffffffffffffffffffffffffffff16815260200190815260200160002054604051610c14919061127e565b60405180910390a3610c30675a40dae8600348d260c01b6110ab565b610c44674d0a45b91a4c73ec60c01b6110ab565b610cb5565b610c5d679603eb15fe6f6a7860c01b6110ab565b610c7167059c1ffa871174e760c01b6110ab565b806000803373ffffffffffffffffffffffffffffffffffffffff1673ffffffffffffffffffffffffffffffffffffffff168152602001908152602001600020819055505b50565b600281565b6000610cd3671d7f2504ee137d4e60c01b6110ab565b610ce767bc0c5fff72ee88fe60c01b6110ab565b610cfb678b9e18c7aa9e858d60c01b6110ab565b6000808373ffffffffffffffffffffffffffffffffffffffff1673ffffffffffffffffffffffffffffffffffffffff168152602001908152602001600020549050919050565b6040518060400160405280600281526020017f546b00000000000000000000000000000000000000000000000000000000000081525081565b6000610d906708c53fc455dc720660c01b6110ab565b610da46750b9c5ae5341956560c01b6110ab565b610db867b9991e3a73a356df60c01b6110ab565b816000803373ffffffffffffffffffffffffffffffffffffffff1673ffffffffffffffffffffffffffffffffffffffff1681526020019081526020016000205410610fa157610e116706f79c48812842b960c01b6110ab565b610e2567408876d8d3c6caa460c01b6110ab565b816000803373ffffffffffffffffffffffffffffffffffffffff1673ffffffffffffffffffffffffffffffffffffffff1681526020019081526020016000206000828254610e73919061149a565b92505081905550610e8e6764c5c9105de34c6c60c01b6110ab565b816000808573ffffffffffffffffffffffffffffffffffffffff1673ffffffffffffffffffffffffffffffffffffffff1681526020019081526020016000206000828254610edc91906113ec565b92505081905550610ef76710c742a46ddd409060c01b6110ab565b610f0b67d55cce559baaec9360c01b6110ab565b8273ffffffffffffffffffffffffffffffffffffffff163373ffffffffffffffffffffffffffffffffffffffff167fddf252ad1be2c89b69c2b068fc378daa952ba7f163c4a11628f55a4df523b3ef84604051610f68919061127e565b60405180910390a3610f8467d7e00fba95d6f0b160c01b6110ab565b610f98678913ef1ff99978ba60c01b6110ab565b60019050610fe2565b610fb567a5af7cf73b6acede60c01b6110ab565b610fc967ba51b77e53571f4760c01b6110ab565b610fdd6770f719e51c2623f360c01b6110ab565b600090505b92915050565b6000610ffe673c14a9610937426760c01b6110ab565b611012674c5da108689e9abe60c01b6110ab565b611026679ff06e1a763abc5e60c01b6110ab565b600160008473ffffffffffffffffffffffffffffffffffffffff1673ffffffffffffffffffffffffffffffffffffffff16815260200190815260200160002060008373ffffffffffffffffffffffffffffffffffffffff1673ffffffffffffffffffffffffffffffffffffffff16815260200190815260200160002054905092915050565b50565b600081519050919050565b600082825260208201905092915050565b60005b838110156110e85780820151818401526020810190506110cd565b60008484015250505050565b6000601f19601f8301169050919050565b6000611110826110ae565b61111a81856110b9565b935061112a8185602086016110ca565b611133816110f4565b840191505092915050565b600060208201905081810360008301526111588184611105565b905092915050565b600080fd5b600073ffffffffffffffffffffffffffffffffffffffff82169050919050565b600061119082611165565b9050919050565b6111a081611185565b81146111ab57600080fd5b50565b6000813590506111bd81611197565b92915050565b6000819050919050565b6111d6816111c3565b81146111e157600080fd5b50565b6000813590506111f3816111cd565b92915050565b600080604083850312156112105761120f611160565b5b600061121e858286016111ae565b925050602061122f858286016111e4565b9150509250929050565b60008115159050919050565b61124e81611239565b82525050565b60006020820190506112696000830184611245565b92915050565b611278816111c3565b82525050565b6000602082019050611293600083018461126f565b92915050565b6000806000606084860312156112b2576112b1611160565b5b60006112c0868287016111ae565b93505060206112d1868287016111ae565b92505060406112e2868287016111e4565b9150509250925092565b60006020828403121561130257611301611160565b5b6000611310848285016111e4565b91505092915050565b600060ff82169050919050565b61132f81611319565b82525050565b600060208201905061134a6000830184611326565b92915050565b60006020828403121561136657611365611160565b5b6000611374848285016111ae565b91505092915050565b6000806040838503121561139457611393611160565b5b60006113a2858286016111ae565b92505060206113b3858286016111ae565b9150509250929050565b7f4e487b7100000000000000000000000000000000000000000000000000000000600052601160045260246000fd5b60006113f7826111c3565b9150611402836111c3565b925082820190508082111561141a576114196113bd565b5b92915050565b61142981611185565b82525050565b60006040820190506114446000830185611420565b6114516020830184611420565b9392505050565b600081519050611467816111cd565b92915050565b60006020828403121561148357611482611160565b5b600061149184828501611458565b91505092915050565b60006114a5826111c3565b91506114b0836111c3565b92508282039050818111156114c8576114c76113bd565b5b9291505056fea2646970667358221220635ee970528807308962c998ceb0f5dca4da456ad82ee083c7b8074765f3c30364736f6c634300081e0033","opcodes":"PUSH1 0x80 PUSH1 0x40 MSTORE CALLVALUE DUP1 ISZERO PUSH1 0xF JUMPI PUSH1 0x0 DUP1 REVERT JUMPDEST POP PUSH2 0x1504 DUP1 PUSH2 0x1F PUSH1 0x0 CODECOPY PUSH1 0x0 RETURN INVALID PUSH1 0x80 PUSH1 0x40 MSTORE CALLVALUE DUP1 ISZERO PUSH2 0x10 JUMPI PUSH1 0x0 DUP1 REVERT JUMPDEST POP PUSH1 0x4 CALLDATASIZE LT PUSH2 0x9E JUMPI PUSH1 0x0 CALLDATALOAD PUSH1 0xE0 SHR DUP1 PUSH4 0x313CE567 GT PUSH2 0x66 JUMPI DUP1 PUSH4 0x313CE567 EQ PUSH2 0x15B JUMPI DUP1 PUSH4 0x70A08231 EQ PUSH2 0x179 JUMPI DUP1 PUSH4 0x95D89B41 EQ PUSH2 0x1A9 JUMPI DUP1 PUSH4 0xA9059CBB EQ PUSH2 0x1C7 JUMPI DUP1 PUSH4 0xDD62ED3E EQ PUSH2 0x1F7 JUMPI PUSH2 0x9E JUMP JUMPDEST DUP1 PUSH4 0x6FDDE03 EQ PUSH2 0xA3 JUMPI DUP1 PUSH4 0x95EA7B3 EQ PUSH2 0xC1 JUMPI DUP1 PUSH4 0x18160DDD EQ PUSH2 0xF1 JUMPI DUP1 PUSH4 0x23B872DD EQ PUSH2 0x10F JUMPI DUP1 PUSH4 0x2D296BF1 EQ PUSH2 0x13F JUMPI JUMPDEST PUSH1 0x0 DUP1 REVERT JUMPDEST PUSH2 0xAB PUSH2 0x227 JUMP JUMPDEST PUSH1 0x40 MLOAD PUSH2 0xB8 SWAP2 SWAP1 PUSH2 0x113E JUMP JUMPDEST PUSH1 0x40 MLOAD DUP1 SWAP2 SUB SWAP1 RETURN JUMPDEST PUSH2 0xDB PUSH1 0x4 DUP1 CALLDATASIZE SUB DUP2 ADD SWAP1 PUSH2 0xD6 SWAP2 SWAP1 PUSH2 0x11F9 JUMP JUMPDEST PUSH2 0x260 JUMP JUMPDEST PUSH1 0x40 MLOAD PUSH2 0xE8 SWAP2 SWAP1 PUSH2 0x1254 JUMP JUMPDEST PUSH1 0x40 MLOAD DUP1 SWAP2 SUB SWAP1 RETURN JUMPDEST PUSH2 0xF9 PUSH2 0x5F0 JUMP JUMPDEST PUSH1 0x40 MLOAD PUSH2 0x106 SWAP2 SWAP1 PUSH2 0x127E JUMP JUMPDEST PUSH1 0x40 MLOAD DUP1 SWAP2 SUB SWAP1 RETURN JUMPDEST PUSH2 0x129 PUSH1 0x4 DUP1 CALLDATASIZE SUB DUP2 ADD SWAP1 PUSH2 0x124 SWAP2 SWAP1 PUSH2 0x1299 JUMP JUMPDEST PUSH2 0x638 JUMP JUMPDEST PUSH1 0x40 MLOAD PUSH2 0x136 SWAP2 SWAP1 PUSH2 0x1254 JUMP JUMPDEST PUSH1 0x40 MLOAD DUP1 SWAP2 SUB SWAP1 RETURN JUMPDEST PUSH2 0x159 PUSH1 0x4 DUP1 CALLDATASIZE SUB DUP2 ADD SWAP1 PUSH2 0x154 SWAP2 SWAP1 PUSH2 0x12EC JUMP JUMPDEST PUSH2 0xA51 JUMP JUMPDEST STOP JUMPDEST PUSH2 0x163 PUSH2 0xCB8 JUMP JUMPDEST PUSH1 0x40 MLOAD PUSH2 0x170 SWAP2 SWAP1 PUSH2 0x1335 JUMP JUMPDEST PUSH1 0x40 MLOAD DUP1 SWAP2 SUB SWAP1 RETURN JUMPDEST PUSH2 0x193 PUSH1 0x4 DUP1 CALLDATASIZE SUB DUP2 ADD SWAP1 PUSH2 0x18E SWAP2 SWAP1 PUSH2 0x1350 JUMP JUMPDEST PUSH2 0xCBD JUMP JUMPDEST PUSH1 0x40 MLOAD PUSH2 0x1A0 SWAP2 SWAP1 PUSH2 0x127E JUMP JUMPDEST PUSH1 0x40 MLOAD DUP1 SWAP2 SUB SWAP1 RETURN JUMPDEST PUSH2 0x1B1 PUSH2 0xD41 JUMP JUMPDEST PUSH1 0x40 MLOAD PUSH2 0x1BE SWAP2 SWAP1 PUSH2 0x113E JUMP JUMPDEST PUSH1 0x40 MLOAD DUP1 SWAP2 SUB SWAP1 RETURN JUMPDEST PUSH2 0x1E1 PUSH1 0x4 DUP1 CALLDATASIZE SUB DUP2 ADD SWAP1 PUSH2 0x1DC SWAP2 SWAP1 PUSH2 0x11F9 JUMP JUMPDEST PUSH2 0xD7A JUMP JUMPDEST PUSH1 0x40 MLOAD PUSH2 0x1EE SWAP2 SWAP1 PUSH2 0x1254 JUMP JUMPDEST PUSH1 0x40 MLOAD DUP1 SWAP2 SUB SWAP1 RETURN JUMPDEST PUSH2 0x211 PUSH1 0x4 DUP1 CALLDATASIZE SUB DUP2 ADD SWAP1 PUSH2 0x20C SWAP2 SWAP1 PUSH2 0x137D JUMP JUMPDEST PUSH2 0xFE8 JUMP JUMPDEST PUSH1 0x40 MLOAD PUSH2 0x21E SWAP2 SWAP1 PUSH2 0x127E JUMP JUMPDEST PUSH1 0x40 MLOAD DUP1 SWAP2 SUB SWAP1 RETURN JUMPDEST PUSH1 0x40 MLOAD DUP1 PUSH1 0x40 ADD PUSH1 0x40 MSTORE DUP1 PUSH1 0x5 DUP2 MSTORE PUSH1 0x20 ADD PUSH32 0x546F6B656E000000000000000000000000000000000000000000000000000000 DUP2 MSTORE POP DUP2 JUMP JUMPDEST PUSH1 0x0 PUSH2 0x276 PUSH8 0x1620AE09EBC9D625 PUSH1 0xC0 SHL PUSH2 0x10AB JUMP JUMPDEST PUSH2 0x28A PUSH8 0x26C25F06821B83E9 PUSH1 0xC0 SHL PUSH2 0x10AB JUMP JUMPDEST PUSH2 0x29E PUSH8 0x9966DC3C7A5697C1 PUSH1 0xC0 SHL PUSH2 0x10AB JUMP JUMPDEST DUP2 PUSH1 0x0 DUP1 CALLER PUSH20 0xFFFFFFFFFFFFFFFFFFFFFFFFFFFFFFFFFFFFFFFF AND PUSH20 0xFFFFFFFFFFFFFFFFFFFFFFFFFFFFFFFFFFFFFFFF AND DUP2 MSTORE PUSH1 0x20 ADD SWAP1 DUP2 MSTORE PUSH1 0x20 ADD PUSH1 0x0 KECCAK256 SLOAD LT PUSH2 0x5A9 JUMPI PUSH2 0x2F7 PUSH8 0xC55E61FC366AA21E PUSH1 0xC0 SHL PUSH2 0x10AB JUMP JUMPDEST PUSH2 0x30B PUSH8 0xB638E6C24EE451BD PUSH1 0xC0 SHL PUSH2 0x10AB JUMP JUMPDEST PUSH2 0x31F PUSH8 0x6D6B3D4052441ADC PUSH1 0xC0 SHL PUSH2 0x10AB JUMP JUMPDEST DUP2 PUSH1 0x1 PUSH1 0x0 CALLER PUSH20 0xFFFFFFFFFFFFFFFFFFFFFFFFFFFFFFFFFFFFFFFF AND PUSH20 0xFFFFFFFFFFFFFFFFFFFFFFFFFFFFFFFFFFFFFFFF AND DUP2 MSTORE PUSH1 0x20 ADD SWAP1 DUP2 MSTORE PUSH1 0x20 ADD PUSH1 0x0 KECCAK256 PUSH1 0x0 DUP6 PUSH20 0xFFFFFFFFFFFFFFFFFFFFFFFFFFFFFFFFFFFFFFFF AND PUSH20 0xFFFFFFFFFFFFFFFFFFFFFFFFFFFFFFFFFFFFFFFF AND DUP2 MSTORE PUSH1 0x20 ADD SWAP1 DUP2 MSTORE PUSH1 0x20 ADD PUSH1 0x0 KECCAK256 SLOAD PUSH2 0x3A7 SWAP2 SWAP1 PUSH2 0x13EC JUMP JUMPDEST PUSH1 0x0 DUP1 CALLER PUSH20 0xFFFFFFFFFFFFFFFFFFFFFFFFFFFFFFFFFFFFFFFF AND PUSH20 0xFFFFFFFFFFFFFFFFFFFFFFFFFFFFFFFFFFFFFFFF AND DUP2 MSTORE PUSH1 0x20 ADD SWAP1 DUP2 MSTORE PUSH1 0x20 ADD PUSH1 0x0 KECCAK256 SLOAD LT PUSH2 0x564 JUMPI PUSH2 0x3FF PUSH8 0xE9E733EEA9A7C3A9 PUSH1 0xC0 SHL PUSH2 0x10AB JUMP JUMPDEST PUSH2 0x413 PUSH8 0xB076234072BA7464 PUSH1 0xC0 SHL PUSH2 0x10AB JUMP JUMPDEST DUP2 PUSH1 0x1 PUSH1 0x0 CALLER PUSH20 0xFFFFFFFFFFFFFFFFFFFFFFFFFFFFFFFFFFFFFFFF AND PUSH20 0xFFFFFFFFFFFFFFFFFFFFFFFFFFFFFFFFFFFFFFFF AND DUP2 MSTORE PUSH1 0x20 ADD SWAP1 DUP2 MSTORE PUSH1 0x20 ADD PUSH1 0x0 KECCAK256 PUSH1 0x0 DUP6 PUSH20 0xFFFFFFFFFFFFFFFFFFFFFFFFFFFFFFFFFFFFFFFF AND PUSH20 0xFFFFFFFFFFFFFFFFFFFFFFFFFFFFFFFFFFFFFFFF AND DUP2 MSTORE PUSH1 0x20 ADD SWAP1 DUP2 MSTORE PUSH1 0x20 ADD PUSH1 0x0 KECCAK256 PUSH1 0x0 DUP3 DUP3 SLOAD PUSH2 0x49F SWAP2 SWAP1 PUSH2 0x13EC JUMP JUMPDEST SWAP3 POP POP DUP2 SWAP1 SSTORE POP PUSH2 0x4BA PUSH8 0xA023280B27E8C04 PUSH1 0xC0 SHL PUSH2 0x10AB JUMP JUMPDEST PUSH2 0x4CE PUSH8 0x52645E80A1417C57 PUSH1 0xC0 SHL PUSH2 0x10AB JUMP JUMPDEST DUP3 PUSH20 0xFFFFFFFFFFFFFFFFFFFFFFFFFFFFFFFFFFFFFFFF AND CALLER PUSH20 0xFFFFFFFFFFFFFFFFFFFFFFFFFFFFFFFFFFFFFFFF AND PUSH32 0x8C5BE1E5EBEC7D5BD14F71427D1E84F3DD0314C0F7B2291E5B200AC8C7C3B925 DUP5 PUSH1 0x40 MLOAD PUSH2 0x52B SWAP2 SWAP1 PUSH2 0x127E JUMP JUMPDEST PUSH1 0x40 MLOAD DUP1 SWAP2 SUB SWAP1 LOG3 PUSH2 0x547 PUSH8 0x82004A4E1CA94A96 PUSH1 0xC0 SHL PUSH2 0x10AB JUMP JUMPDEST PUSH2 0x55B PUSH8 0x8DDA53979558BA5C PUSH1 0xC0 SHL PUSH2 0x10AB JUMP JUMPDEST PUSH1 0x1 SWAP1 POP PUSH2 0x5EA JUMP JUMPDEST PUSH2 0x578 PUSH8 0xEEA3AA4E6872E4FA PUSH1 0xC0 SHL PUSH2 0x10AB JUMP JUMPDEST PUSH2 0x58C PUSH8 0xA92BD106A7605470 PUSH1 0xC0 SHL PUSH2 0x10AB JUMP JUMPDEST PUSH2 0x5A0 PUSH8 0x5F1FFBB0917B6677 PUSH1 0xC0 SHL PUSH2 0x10AB JUMP JUMPDEST PUSH1 0x0 SWAP1 POP PUSH2 0x5EA JUMP JUMPDEST PUSH2 0x5BD PUSH8 0x99C17A9FF397B36F PUSH1 0xC0 SHL PUSH2 0x10AB JUMP JUMPDEST PUSH2 0x5D1 PUSH8 0x8AE65B508B259DBA PUSH1 0xC0 SHL PUSH2 0x10AB JUMP JUMPDEST PUSH2 0x5E5 PUSH8 0x41D3CFB79899AB9D PUSH1 0xC0 SHL PUSH2 0x10AB JUMP JUMPDEST PUSH1 0x0 SWAP1 POP JUMPDEST SWAP3 SWAP2 POP POP JUMP JUMPDEST PUSH1 0x0 PUSH2 0x606 PUSH8 0x62F18E74B2F43BDB PUSH1 0xC0 SHL PUSH2 0x10AB JUMP JUMPDEST PUSH2 0x61A PUSH8 0xC7FE4EDC6C544D84 PUSH1 0xC0 SHL PUSH2 0x10AB JUMP JUMPDEST PUSH2 0x62E PUSH8 0x8A2102DD3AEE7E3C PUSH1 0xC0 SHL PUSH2 0x10AB JUMP JUMPDEST PUSH4 0x7D2B7500 SWAP1 POP SWAP1 JUMP JUMPDEST PUSH1 0x0 PUSH2 0x64E PUSH8 0xBDEDE07F4374F0E8 PUSH1 0xC0 SHL PUSH2 0x10AB JUMP JUMPDEST PUSH2 0x662 PUSH8 0xB2EAEDF3F3753678 PUSH1 0xC0 SHL PUSH2 0x10AB JUMP JUMPDEST PUSH2 0x676 PUSH8 0x4B378C3426617E6D PUSH1 0xC0 SHL PUSH2 0x10AB JUMP JUMPDEST DUP2 ADDRESS PUSH20 0xFFFFFFFFFFFFFFFFFFFFFFFFFFFFFFFFFFFFFFFF AND PUSH4 0xDD62ED3E DUP7 CALLER PUSH1 0x40 MLOAD DUP4 PUSH4 0xFFFFFFFF AND PUSH1 0xE0 SHL DUP2 MSTORE PUSH1 0x4 ADD PUSH2 0x6B2 SWAP3 SWAP2 SWAP1 PUSH2 0x142F JUMP JUMPDEST PUSH1 0x20 PUSH1 0x40 MLOAD DUP1 DUP4 SUB DUP2 DUP7 GAS STATICCALL ISZERO DUP1 ISZERO PUSH2 0x6CF JUMPI RETURNDATASIZE PUSH1 0x0 DUP1 RETURNDATACOPY RETURNDATASIZE PUSH1 0x0 REVERT JUMPDEST POP POP POP POP PUSH1 0x40 MLOAD RETURNDATASIZE PUSH1 0x1F NOT PUSH1 0x1F DUP3 ADD AND DUP3 ADD DUP1 PUSH1 0x40 MSTORE POP DUP2 ADD SWAP1 PUSH2 0x6F3 SWAP2 SWAP1 PUSH2 0x146D JUMP JUMPDEST LT PUSH2 0xA09 JUMPI PUSH2 0x70C PUSH8 0x367D19703DD457FE PUSH1 0xC0 SHL PUSH2 0x10AB JUMP JUMPDEST PUSH2 0x720 PUSH8 0xB7C065F39EBB2636 PUSH1 0xC0 SHL PUSH2 0x10AB JUMP JUMPDEST PUSH2 0x734 PUSH8 0x85C2A25A1B3DFB14 PUSH1 0xC0 SHL PUSH2 0x10AB JUMP JUMPDEST DUP2 PUSH1 0x0 DUP1 DUP7 PUSH20 0xFFFFFFFFFFFFFFFFFFFFFFFFFFFFFFFFFFFFFFFF AND PUSH20 0xFFFFFFFFFFFFFFFFFFFFFFFFFFFFFFFFFFFFFFFF AND DUP2 MSTORE PUSH1 0x20 ADD SWAP1 DUP2 MSTORE PUSH1 0x20 ADD PUSH1 0x0 KECCAK256 SLOAD LT PUSH2 0x9C4 JUMPI PUSH2 0x78D PUSH8 0xEF784F8507DF2130 PUSH1 0xC0 SHL PUSH2 0x10AB JUMP JUMPDEST PUSH2 0x7A1 PUSH8 0x169F89DC297B9678 PUSH1 0xC0 SHL PUSH2 0x10AB JUMP JUMPDEST DUP2 PUSH1 0x1 PUSH1 0x0 DUP7 PUSH20 0xFFFFFFFFFFFFFFFFFFFFFFFFFFFFFFFFFFFFFFFF AND PUSH20 0xFFFFFFFFFFFFFFFFFFFFFFFFFFFFFFFFFFFFFFFF AND DUP2 MSTORE PUSH1 0x20 ADD SWAP1 DUP2 MSTORE PUSH1 0x20 ADD PUSH1 0x0 KECCAK256 PUSH1 0x0 CALLER PUSH20 0xFFFFFFFFFFFFFFFFFFFFFFFFFFFFFFFFFFFFFFFF AND PUSH20 0xFFFFFFFFFFFFFFFFFFFFFFFFFFFFFFFFFFFFFFFF AND DUP2 MSTORE PUSH1 0x20 ADD SWAP1 DUP2 MSTORE PUSH1 0x20 ADD PUSH1 0x0 KECCAK256 PUSH1 0x0 DUP3 DUP3 SLOAD PUSH2 0x82D SWAP2 SWAP1 PUSH2 0x149A JUMP JUMPDEST SWAP3 POP POP DUP2 SWAP1 SSTORE POP PUSH2 0x848 PUSH8 0x99FB0E79C13B71FF PUSH1 0xC0 SHL PUSH2 0x10AB JUMP JUMPDEST DUP2 PUSH1 0x0 DUP1 DUP7 PUSH20 0xFFFFFFFFFFFFFFFFFFFFFFFFFFFFFFFFFFFFFFFF AND PUSH20 0xFFFFFFFFFFFFFFFFFFFFFFFFFFFFFFFFFFFFFFFF AND DUP2 MSTORE PUSH1 0x20 ADD SWAP1 DUP2 MSTORE PUSH1 0x20 ADD PUSH1 0x0 KECCAK256 PUSH1 0x0 DUP3 DUP3 SLOAD PUSH2 0x896 SWAP2 SWAP1 PUSH2 0x149A JUMP JUMPDEST SWAP3 POP POP DUP2 SWAP1 SSTORE POP PUSH2 0x8B1 PUSH8 0xEB36AB59561C69F6 PUSH1 0xC0 SHL PUSH2 0x10AB JUMP JUMPDEST DUP2 PUSH1 0x0 DUP1 DUP6 PUSH20 0xFFFFFFFFFFFFFFFFFFFFFFFFFFFFFFFFFFFFFFFF AND PUSH20 0xFFFFFFFFFFFFFFFFFFFFFFFFFFFFFFFFFFFFFFFF AND DUP2 MSTORE PUSH1 0x20 ADD SWAP1 DUP2 MSTORE PUSH1 0x20 ADD PUSH1 0x0 KECCAK256 PUSH1 0x0 DUP3 DUP3 SLOAD PUSH2 0x8FF SWAP2 SWAP1 PUSH2 0x13EC JUMP JUMPDEST SWAP3 POP POP DUP2 SWAP1 SSTORE POP PUSH2 0x91A PUSH8 0x2D47B4231FBCD31B PUSH1 0xC0 SHL PUSH2 0x10AB JUMP JUMPDEST PUSH2 0x92E PUSH8 0x2B577F5A4872D5F0 PUSH1 0xC0 SHL PUSH2 0x10AB JUMP JUMPDEST DUP3 PUSH20 0xFFFFFFFFFFFFFFFFFFFFFFFFFFFFFFFFFFFFFFFF AND DUP5 PUSH20 0xFFFFFFFFFFFFFFFFFFFFFFFFFFFFFFFFFFFFFFFF AND PUSH32 0xDDF252AD1BE2C89B69C2B068FC378DAA952BA7F163C4A11628F55A4DF523B3EF DUP5 PUSH1 0x40 MLOAD PUSH2 0x98B SWAP2 SWAP1 PUSH2 0x127E JUMP JUMPDEST PUSH1 0x40 MLOAD DUP1 SWAP2 SUB SWAP1 LOG3 PUSH2 0x9A7 PUSH8 0xD659A70EFA8E7629 PUSH1 0xC0 SHL PUSH2 0x10AB JUMP JUMPDEST PUSH2 0x9BB PUSH8 0xE4C24A6886B8B1B2 PUSH1 0xC0 SHL PUSH2 0x10AB JUMP JUMPDEST PUSH1 0x1 SWAP1 POP PUSH2 0xA4A JUMP JUMPDEST PUSH2 0x9D8 PUSH8 0xD151484C159BAB86 PUSH1 0xC0 SHL PUSH2 0x10AB JUMP JUMPDEST PUSH2 0x9EC PUSH8 0x396555BB908D64C1 PUSH1 0xC0 SHL PUSH2 0x10AB JUMP JUMPDEST PUSH2 0xA00 PUSH8 0xCB62305EF9CDFA1E PUSH1 0xC0 SHL PUSH2 0x10AB JUMP JUMPDEST PUSH1 0x0 SWAP1 POP PUSH2 0xA4A JUMP JUMPDEST PUSH2 0xA1D PUSH8 0xBA1BD49A1D68355C PUSH1 0xC0 SHL PUSH2 0x10AB JUMP JUMPDEST PUSH2 0xA31 PUSH8 0x7498657ECE837038 PUSH1 0xC0 SHL PUSH2 0x10AB JUMP JUMPDEST PUSH2 0xA45 PUSH8 0x211F34399C646E73 PUSH1 0xC0 SHL PUSH2 0x10AB JUMP JUMPDEST PUSH1 0x0 SWAP1 POP JUMPDEST SWAP4 SWAP3 POP POP POP JUMP JUMPDEST PUSH2 0xA65 PUSH8 0x9EEFEAC3FD806B79 PUSH1 0xC0 SHL PUSH2 0x10AB JUMP JUMPDEST PUSH2 0xA79 PUSH8 0x12EAC1B1D6272E05 PUSH1 0xC0 SHL PUSH2 0x10AB JUMP JUMPDEST PUSH2 0xA8D PUSH8 0x6AA6AFA3420A2833 PUSH1 0xC0 SHL PUSH2 0x10AB JUMP JUMPDEST PUSH1 0x0 DUP1 PUSH1 0x0 CALLER PUSH20 0xFFFFFFFFFFFFFFFFFFFFFFFFFFFFFFFFFFFFFFFF AND PUSH20 0xFFFFFFFFFFFFFFFFFFFFFFFFFFFFFFFFFFFFFFFF AND DUP2 MSTORE PUSH1 0x20 ADD SWAP1 DUP2 MSTORE PUSH1 0x20 ADD PUSH1 0x0 KECCAK256 SLOAD GT ISZERO PUSH2 0xC49 JUMPI PUSH2 0xAE8 PUSH8 0xF89F2003E06E1E60 PUSH1 0xC0 SHL PUSH2 0x10AB JUMP JUMPDEST PUSH2 0xAFC PUSH8 0xB4906267C356270F PUSH1 0xC0 SHL PUSH2 0x10AB JUMP JUMPDEST DUP1 PUSH1 0x0 DUP1 CALLER PUSH20 0xFFFFFFFFFFFFFFFFFFFFFFFFFFFFFFFFFFFFFFFF AND PUSH20 0xFFFFFFFFFFFFFFFFFFFFFFFFFFFFFFFFFFFFFFFF AND DUP2 MSTORE PUSH1 0x20 ADD SWAP1 DUP2 MSTORE PUSH1 0x20 ADD PUSH1 0x0 KECCAK256 PUSH1 0x0 DUP3 DUP3 SLOAD PUSH2 0xB4A SWAP2 SWAP1 PUSH2 0x13EC JUMP JUMPDEST SWAP3 POP POP DUP2 SWAP1 SSTORE POP PUSH2 0xB65 PUSH8 0x18488113CA286C99 PUSH1 0xC0 SHL PUSH2 0x10AB JUMP JUMPDEST PUSH2 0xB79 PUSH8 0xC0BDA727E6DA397 PUSH1 0xC0 SHL PUSH2 0x10AB JUMP JUMPDEST CALLER PUSH20 0xFFFFFFFFFFFFFFFFFFFFFFFFFFFFFFFFFFFFFFFF AND CALLER PUSH20 0xFFFFFFFFFFFFFFFFFFFFFFFFFFFFFFFFFFFFFFFF AND PUSH32 0xDDF252AD1BE2C89B69C2B068FC378DAA952BA7F163C4A11628F55A4DF523B3EF PUSH1 0x0 DUP1 CALLER PUSH20 0xFFFFFFFFFFFFFFFFFFFFFFFFFFFFFFFFFFFFFFFF AND PUSH20 0xFFFFFFFFFFFFFFFFFFFFFFFFFFFFFFFFFFFFFFFF AND DUP2 MSTORE PUSH1 0x20 ADD SWAP1 DUP2 MSTORE PUSH1 0x20 ADD PUSH1 0x0 KECCAK256 SLOAD PUSH1 0x40 MLOAD PUSH2 0xC14 SWAP2 SWAP1 PUSH2 0x127E JUMP JUMPDEST PUSH1 0x40 MLOAD DUP1 SWAP2 SUB SWAP1 LOG3 PUSH2 0xC30 PUSH8 0x5A40DAE8600348D2 PUSH1 0xC0 SHL PUSH2 0x10AB JUMP JUMPDEST PUSH2 0xC44 PUSH8 0x4D0A45B91A4C73EC PUSH1 0xC0 SHL PUSH2 0x10AB JUMP JUMPDEST PUSH2 0xCB5 JUMP JUMPDEST PUSH2 0xC5D PUSH8 0x9603EB15FE6F6A78 PUSH1 0xC0 SHL PUSH2 0x10AB JUMP JUMPDEST PUSH2 0xC71 PUSH8 0x59C1FFA871174E7 PUSH1 0xC0 SHL PUSH2 0x10AB JUMP JUMPDEST DUP1 PUSH1 0x0 DUP1 CALLER PUSH20 0xFFFFFFFFFFFFFFFFFFFFFFFFFFFFFFFFFFFFFFFF AND PUSH20 0xFFFFFFFFFFFFFFFFFFFFFFFFFFFFFFFFFFFFFFFF AND DUP2 MSTORE PUSH1 0x20 ADD SWAP1 DUP2 MSTORE PUSH1 0x20 ADD PUSH1 0x0 KECCAK256 DUP2 SWAP1 SSTORE POP JUMPDEST POP JUMP JUMPDEST PUSH1 0x2 DUP2 JUMP JUMPDEST PUSH1 0x0 PUSH2 0xCD3 PUSH8 0x1D7F2504EE137D4E PUSH1 0xC0 SHL PUSH2 0x10AB JUMP JUMPDEST PUSH2 0xCE7 PUSH8 0xBC0C5FFF72EE88FE PUSH1 0xC0 SHL PUSH2 0x10AB JUMP JUMPDEST PUSH2 0xCFB PUSH8 0x8B9E18C7AA9E858D PUSH1 0xC0 SHL PUSH2 0x10AB JUMP JUMPDEST PUSH1 0x0 DUP1 DUP4 PUSH20 0xFFFFFFFFFFFFFFFFFFFFFFFFFFFFFFFFFFFFFFFF AND PUSH20 0xFFFFFFFFFFFFFFFFFFFFFFFFFFFFFFFFFFFFFFFF AND DUP2 MSTORE PUSH1 0x20 ADD SWAP1 DUP2 MSTORE PUSH1 0x20 ADD PUSH1 0x0 KECCAK256 SLOAD SWAP1 POP SWAP2 SWAP1 POP JUMP JUMPDEST PUSH1 0x40 MLOAD DUP1 PUSH1 0x40 ADD PUSH1 0x40 MSTORE DUP1 PUSH1 0x2 DUP2 MSTORE PUSH1 0x20 ADD PUSH32 0x546B000000000000000000000000000000000000000000000000000000000000 DUP2 MSTORE POP DUP2 JUMP JUMPDEST PUSH1 0x0 PUSH2 0xD90 PUSH8 0x8C53FC455DC7206 PUSH1 0xC0 SHL PUSH2 0x10AB JUMP JUMPDEST PUSH2 0xDA4 PUSH8 0x50B9C5AE53419565 PUSH1 0xC0 SHL PUSH2 0x10AB JUMP JUMPDEST PUSH2 0xDB8 PUSH8 0xB9991E3A73A356DF PUSH1 0xC0 SHL PUSH2 0x10AB JUMP JUMPDEST DUP2 PUSH1 0x0 DUP1 CALLER PUSH20 0xFFFFFFFFFFFFFFFFFFFFFFFFFFFFFFFFFFFFFFFF AND PUSH20 0xFFFFFFFFFFFFFFFFFFFFFFFFFFFFFFFFFFFFFFFF AND DUP2 MSTORE PUSH1 0x20 ADD SWAP1 DUP2 MSTORE PUSH1 0x20 ADD PUSH1 0x0 KECCAK256 SLOAD LT PUSH2 0xFA1 JUMPI PUSH2 0xE11 PUSH8 0x6F79C48812842B9 PUSH1 0xC0 SHL PUSH2 0x10AB JUMP JUMPDEST PUSH2 0xE25 PUSH8 0x408876D8D3C6CAA4 PUSH1 0xC0 SHL PUSH2 0x10AB JUMP JUMPDEST DUP2 PUSH1 0x0 DUP1 CALLER PUSH20 0xFFFFFFFFFFFFFFFFFFFFFFFFFFFFFFFFFFFFFFFF AND PUSH20 0xFFFFFFFFFFFFFFFFFFFFFFFFFFFFFFFFFFFFFFFF AND DUP2 MSTORE PUSH1 0x20 ADD SWAP1 DUP2 MSTORE PUSH1 0x20 ADD PUSH1 0x0 KECCAK256 PUSH1 0x0 DUP3 DUP3 SLOAD PUSH2 0xE73 SWAP2 SWAP1 PUSH2 0x149A JUMP JUMPDEST SWAP3 POP POP DUP2 SWAP1 SSTORE POP PUSH2 0xE8E PUSH8 0x64C5C9105DE34C6C PUSH1 0xC0 SHL PUSH2 0x10AB JUMP JUMPDEST DUP2 PUSH1 0x0 DUP1 DUP6 PUSH20 0xFFFFFFFFFFFFFFFFFFFFFFFFFFFFFFFFFFFFFFFF AND PUSH20 0xFFFFFFFFFFFFFFFFFFFFFFFFFFFFFFFFFFFFFFFF AND DUP2 MSTORE PUSH1 0x20 ADD SWAP1 DUP2 MSTORE PUSH1 0x20 ADD PUSH1 0x0 KECCAK256 PUSH1 0x0 DUP3 DUP3 SLOAD PUSH2 0xEDC SWAP2 SWAP1 PUSH2 0x13EC JUMP JUMPDEST SWAP3 POP POP DUP2 SWAP1 SSTORE POP PUSH2 0xEF7 PUSH8 0x10C742A46DDD4090 PUSH1 0xC0 SHL PUSH2 0x10AB JUMP JUMPDEST PUSH2 0xF0B PUSH8 0xD55CCE559BAAEC93 PUSH1 0xC0 SHL PUSH2 0x10AB JUMP JUMPDEST DUP3 PUSH20 0xFFFFFFFFFFFFFFFFFFFFFFFFFFFFFFFFFFFFFFFF AND CALLER PUSH20 0xFFFFFFFFFFFFFFFFFFFFFFFFFFFFFFFFFFFFFFFF AND PUSH32 0xDDF252AD1BE2C89B69C2B068FC378DAA952BA7F163C4A11628F55A4DF523B3EF DUP5 PUSH1 0x40 MLOAD PUSH2 0xF68 SWAP2 SWAP1 PUSH2 0x127E JUMP JUMPDEST PUSH1 0x40 MLOAD DUP1 SWAP2 SUB SWAP1 LOG3 PUSH2 0xF84 PUSH8 0xD7E00FBA95D6F0B1 PUSH1 0xC0 SHL PUSH2 0x10AB JUMP JUMPDEST PUSH2 0xF98 PUSH8 0x8913EF1FF99978BA PUSH1 0xC0 SHL PUSH2 0x10AB JUMP JUMPDEST PUSH1 0x1 SWAP1 POP PUSH2 0xFE2 JUMP JUMPDEST PUSH2 0xFB5 PUSH8 0xA5AF7CF73B6ACEDE PUSH1 0xC0 SHL PUSH2 0x10AB JUMP JUMPDEST PUSH2 0xFC9 PUSH8 0xBA51B77E53571F47 PUSH1 0xC0 SHL PUSH2 0x10AB JUMP JUMPDEST PUSH2 0xFDD PUSH8 0x70F719E51C2623F3 PUSH1 0xC0 SHL PUSH2 0x10AB JUMP JUMPDEST PUSH1 0x0 SWAP1 POP JUMPDEST SWAP3 SWAP2 POP POP JUMP JUMPDEST PUSH1 0x0 PUSH2 0xFFE PUSH8 0x3C14A96109374267 PUSH1 0xC0 SHL PUSH2 0x10AB JUMP JUMPDEST PUSH2 0x1012 PUSH8 0x4C5DA108689E9ABE PUSH1 0xC0 SHL PUSH2 0x10AB JUMP JUMPDEST PUSH2 0x1026 PUSH8 0x9FF06E1A763ABC5E PUSH1 0xC0 SHL PUSH2 0x10AB JUMP JUMPDEST PUSH1 0x1 PUSH1 0x0 DUP5 PUSH20 0xFFFFFFFFFFFFFFFFFFFFFFFFFFFFFFFFFFFFFFFF AND PUSH20 0xFFFFFFFFFFFFFFFFFFFFFFFFFFFFFFFFFFFFFFFF AND DUP2 MSTORE PUSH1 0x20 ADD SWAP1 DUP2 MSTORE PUSH1 0x20 ADD PUSH1 0x0 KECCAK256 PUSH1 0x0 DUP4 PUSH20 0xFFFFFFFFFFFFFFFFFFFFFFFFFFFFFFFFFFFFFFFF AND PUSH20 0xFFFFFFFFFFFFFFFFFFFFFFFFFFFFFFFFFFFFFFFF AND DUP2 MSTORE PUSH1 0x20 ADD SWAP1 DUP2 MSTORE PUSH1 0x20 ADD PUSH1 0x0 KECCAK256 SLOAD SWAP1 POP SWAP3 SWAP2 POP POP JUMP JUMPDEST POP JUMP JUMPDEST PUSH1 0x0 DUP2 MLOAD SWAP1 POP SWAP2 SWAP1 POP JUMP JUMPDEST PUSH1 0x0 DUP3 DUP3 MSTORE PUSH1 0x20 DUP3 ADD SWAP1 POP SWAP3 SWAP2 POP POP JUMP JUMPDEST PUSH1 0x0 JUMPDEST DUP4 DUP2 LT ISZERO PUSH2 0x10E8 JUMPI DUP1 DUP3 ADD MLOAD DUP2 DUP5 ADD MSTORE PUSH1 0x20 DUP2 ADD SWAP1 POP PUSH2 0x10CD JUMP JUMPDEST PUSH1 0x0 DUP5 DUP5 ADD MSTORE POP POP POP POP JUMP JUMPDEST PUSH1 0x0 PUSH1 0x1F NOT PUSH1 0x1F DUP4 ADD AND SWAP1 POP SWAP2 SWAP1 POP JUMP JUMPDEST PUSH1 0x0 PUSH2 0x1110 DUP3 PUSH2 0x10AE JUMP JUMPDEST PUSH2 0x111A DUP2 DUP6 PUSH2 0x10B9 JUMP JUMPDEST SWAP4 POP PUSH2 0x112A DUP2 DUP6 PUSH1 0x20 DUP7 ADD PUSH2 0x10CA JUMP JUMPDEST PUSH2 0x1133 DUP2 PUSH2 0x10F4 JUMP JUMPDEST DUP5 ADD SWAP2 POP POP SWAP3 SWAP2 POP POP JUMP JUMPDEST PUSH1 0x0 PUSH1 0x20 DUP3 ADD SWAP1 POP DUP2 DUP2 SUB PUSH1 0x0 DUP4 ADD MSTORE PUSH2 0x1158 DUP2 DUP5 PUSH2 0x1105 JUMP JUMPDEST SWAP1 POP SWAP3 SWAP2 POP POP JUMP JUMPDEST PUSH1 0x0 DUP1 REVERT JUMPDEST PUSH1 0x0 PUSH20 0xFFFFFFFFFFFFFFFFFFFFFFFFFFFFFFFFFFFFFFFF DUP3 AND SWAP1 POP SWAP2 SWAP1 POP JUMP JUMPDEST PUSH1 0x0 PUSH2 0x1190 DUP3 PUSH2 0x1165 JUMP JUMPDEST SWAP1 POP SWAP2 SWAP1 POP JUMP JUMPDEST PUSH2 0x11A0 DUP2 PUSH2 0x1185 JUMP JUMPDEST DUP2 EQ PUSH2 0x11AB JUMPI PUSH1 0x0 DUP1 REVERT JUMPDEST POP JUMP JUMPDEST PUSH1 0x0 DUP2 CALLDATALOAD SWAP1 POP PUSH2 0x11BD DUP2 PUSH2 0x1197 JUMP JUMPDEST SWAP3 SWAP2 POP POP JUMP JUMPDEST PUSH1 0x0 DUP2 SWAP1 POP SWAP2 SWAP1 POP JUMP JUMPDEST PUSH2 0x11D6 DUP2 PUSH2 0x11C3 JUMP JUMPDEST DUP2 EQ PUSH2 0x11E1 JUMPI PUSH1 0x0 DUP1 REVERT JUMPDEST POP JUMP JUMPDEST PUSH1 0x0 DUP2 CALLDATALOAD SWAP1 POP PUSH2 0x11F3 DUP2 PUSH2 0x11CD JUMP JUMPDEST SWAP3 SWAP2 POP POP JUMP JUMPDEST PUSH1 0x0 DUP1 PUSH1 0x40 DUP4 DUP6 SUB SLT ISZERO PUSH2 0x1210 JUMPI PUSH2 0x120F PUSH2 0x1160 JUMP JUMPDEST JUMPDEST PUSH1 0x0 PUSH2 0x121E DUP6 DUP3 DUP7 ADD PUSH2 0x11AE JUMP JUMPDEST SWAP3 POP POP PUSH1 0x20 PUSH2 0x122F DUP6 DUP3 DUP7 ADD PUSH2 0x11E4 JUMP JUMPDEST SWAP2 POP POP SWAP3 POP SWAP3 SWAP1 POP JUMP JUMPDEST PUSH1 0x0 DUP2 ISZERO ISZERO SWAP1 POP SWAP2 SWAP1 POP JUMP JUMPDEST PUSH2 0x124E DUP2 PUSH2 0x1239 JUMP JUMPDEST DUP3 MSTORE POP POP JUMP JUMPDEST PUSH1 0x0 PUSH1 0x20 DUP3 ADD SWAP1 POP PUSH2 0x1269 PUSH1 0x0 DUP4 ADD DUP5 PUSH2 0x1245 JUMP JUMPDEST SWAP3 SWAP2 POP POP JUMP JUMPDEST PUSH2 0x1278 DUP2 PUSH2 0x11C3 JUMP JUMPDEST DUP3 MSTORE POP POP JUMP JUMPDEST PUSH1 0x0 PUSH1 0x20 DUP3 ADD SWAP1 POP PUSH2 0x1293 PUSH1 0x0 DUP4 ADD DUP5 PUSH2 0x126F JUMP JUMPDEST SWAP3 SWAP2 POP POP JUMP JUMPDEST PUSH1 0x0 DUP1 PUSH1 0x0 PUSH1 0x60 DUP5 DUP7 SUB SLT ISZERO PUSH2 0x12B2 JUMPI PUSH2 0x12B1 PUSH2 0x1160 JUMP JUMPDEST JUMPDEST PUSH1 0x0 PUSH2 0x12C0 DUP7 DUP3 DUP8 ADD PUSH2 0x11AE JUMP JUMPDEST SWAP4 POP POP PUSH1 0x20 PUSH2 0x12D1 DUP7 DUP3 DUP8 ADD PUSH2 0x11AE JUMP JUMPDEST SWAP3 POP POP PUSH1 0x40 PUSH2 0x12E2 DUP7 DUP3 DUP8 ADD PUSH2 0x11E4 JUMP JUMPDEST SWAP2 POP POP SWAP3 POP SWAP3 POP SWAP3 JUMP JUMPDEST PUSH1 0x0 PUSH1 0x20 DUP3 DUP5 SUB SLT ISZERO PUSH2 0x1302 JUMPI PUSH2 0x1301 PUSH2 0x1160 JUMP JUMPDEST JUMPDEST PUSH1 0x0 PUSH2 0x1310 DUP5 DUP3 DUP6 ADD PUSH2 0x11E4 JUMP JUMPDEST SWAP2 POP POP SWAP3 SWAP2 POP POP JUMP JUMPDEST PUSH1 0x0 PUSH1 0xFF DUP3 AND SWAP1 POP SWAP2 SWAP1 POP JUMP JUMPDEST PUSH2 0x132F DUP2 PUSH2 0x1319 JUMP JUMPDEST DUP3 MSTORE POP POP JUMP JUMPDEST PUSH1 0x0 PUSH1 0x20 DUP3 ADD SWAP1 POP PUSH2 0x134A PUSH1 0x0 DUP4 ADD DUP5 PUSH2 0x1326 JUMP JUMPDEST SWAP3 SWAP2 POP POP JUMP JUMPDEST PUSH1 0x0 PUSH1 0x20 DUP3 DUP5 SUB SLT ISZERO PUSH2 0x1366 JUMPI PUSH2 0x1365 PUSH2 0x1160 JUMP JUMPDEST JUMPDEST PUSH1 0x0 PUSH2 0x1374 DUP5 DUP3 DUP6 ADD PUSH2 0x11AE JUMP JUMPDEST SWAP2 POP POP SWAP3 SWAP2 POP POP JUMP JUMPDEST PUSH1 0x0 DUP1 PUSH1 0x40 DUP4 DUP6 SUB SLT ISZERO PUSH2 0x1394 JUMPI PUSH2 0x1393 PUSH2 0x1160 JUMP JUMPDEST JUMPDEST PUSH1 0x0 PUSH2 0x13A2 DUP6 DUP3 DUP7 ADD PUSH2 0x11AE JUMP JUMPDEST SWAP3 POP POP PUSH1 0x20 PUSH2 0x13B3 DUP6 DUP3 DUP7 ADD PUSH2 0x11AE JUMP JUMPDEST SWAP2 POP POP SWAP3 POP SWAP3 SWAP1 POP JUMP JUMPDEST PUSH32 0x4E487B7100000000000000000000000000000000000000000000000000000000 PUSH1 0x0 MSTORE PUSH1 0x11 PUSH1 0x4 MSTORE PUSH1 0x24 PUSH1 0x0 REVERT JUMPDEST PUSH1 0x0 PUSH2 0x13F7 DUP3 PUSH2 0x11C3 JUMP JUMPDEST SWAP2 POP PUSH2 0x1402 DUP4 PUSH2 0x11C3 JUMP JUMPDEST SWAP3 POP DUP3 DUP3 ADD SWAP1 POP DUP1 DUP3 GT ISZERO PUSH2 0x141A JUMPI PUSH2 0x1419 PUSH2 0x13BD JUMP JUMPDEST JUMPDEST SWAP3 SWAP2 POP POP JUMP JUMPDEST PUSH2 0x1429 DUP2 PUSH2 0x1185 JUMP JUMPDEST DUP3 MSTORE POP POP JUMP JUMPDEST PUSH1 0x0 PUSH1 0x40 DUP3 ADD SWAP1 POP PUSH2 0x1444 PUSH1 0x0 DUP4 ADD DUP6 PUSH2 0x1420 JUMP JUMPDEST PUSH2 0x1451 PUSH1 0x20 DUP4 ADD DUP5 PUSH2 0x1420 JUMP JUMPDEST SWAP4 SWAP3 POP POP POP JUMP JUMPDEST PUSH1 0x0 DUP2 MLOAD SWAP1 POP PUSH2 0x1467 DUP2 PUSH2 0x11CD JUMP JUMPDEST SWAP3 SWAP2 POP POP JUMP JUMPDEST PUSH1 0x0 PUSH1 0x20 DUP3 DUP5 SUB SLT ISZERO PUSH2 0x1483 JUMPI PUSH2 0x1482 PUSH2 0x1160 JUMP JUMPDEST JUMPDEST PUSH1 0x0 PUSH2 0x1491 DUP5 DUP3 DUP6 ADD PUSH2 0x1458 JUMP JUMPDEST SWAP2 POP POP SWAP3 SWAP2 POP POP JUMP JUMPDEST PUSH1 0x0 PUSH2 0x14A5 DUP3 PUSH2 0x11C3 JUMP JUMPDEST SWAP2 POP PUSH2 0x14B0 DUP4 PUSH2 0x11C3 JUMP JUMPDEST SWAP3 POP DUP3 DUP3 SUB SWAP1 POP DUP2 DUP2 GT ISZERO PUSH2 0x14C8 JUMPI PUSH2 0x14C7 PUSH2 0x13BD JUMP JUMPDEST JUMPDEST SWAP3 SWAP2 POP POP JUMP INVALID LOG2 PUSH5 0x6970667358 0x22 SLT KECCAK256 PUSH4 0x5EE97052 DUP9 SMOD ADDRESS DUP10 PUSH3 0xC998CE 0xB0 CREATE2 0xDC LOG4 0xDA GASLIMIT PUSH11 0xD82EE083C7B8074765F3C3 SUB PUSH5 0x736F6C6343 STOP ADDMOD 0x1E STOP CALLER "},"methodIdentifiers":{"allowance(address,address)":"dd62ed3e","approve(address,uint256)":"095ea7b3","balanceOf(address)":"70a08231","buyToken(uint256)":"2d296bf1","decimals()":"313ce567","name()":"06fdde03","symbol()":"95d89b41","totalSupply()":"18160ddd","transfer(address,uint256)":"a9059cbb","transferFrom(address,address,uint256)":"23b872dd"}}}}}