{
  "_format": "hh-sol-artifact-1",
  "contractName": "LudoGame",
  "sourceName": "contracts/Ludo.sol",
  "abi": [
    {
      "inputs": [
        {
          "internalType": "address",
          "name": "_ludoToken",
          "type": "address"
        }
      ],
      "stateMutability": "nonpayable",
      "type": "constructor"
    },
    {
      "anonymous": false,
      "inputs": [
        {
          "indexed": false,
          "internalType": "address",
          "name": "player",
          "type": "address"
        },
        {
          "indexed": false,
          "internalType": "uint256",
          "name": "result",
          "type": "uint256"
        }
      ],
      "name": "DiceRolled",
      "type": "event"
    },
    {
      "anonymous": false,
      "inputs": [
        {
          "indexed": false,
          "internalType": "address",
          "name": "winner",
          "type": "address"
        },
        {
          "indexed": false,
          "internalType": "uint256",
          "name": "totalStake",
          "type": "uint256"
        }
      ],
      "name": "GameEnded",
      "type": "event"
    },
    {
      "anonymous": false,
      "inputs": [
        {
          "indexed": false,
          "internalType": "address",
          "name": "player",
          "type": "address"
        },
        {
          "indexed": false,
          "internalType": "uint256",
          "name": "position",
          "type": "uint256"
        }
      ],
      "name": "MoveCompleted",
      "type": "event"
    },
    {
      "anonymous": false,
      "inputs": [
        {
          "indexed": false,
          "internalType": "address",
          "name": "player",
          "type": "address"
        },
        {
          "indexed": false,
          "internalType": "string",
          "name": "name",
          "type": "string"
        },
        {
          "indexed": false,
          "internalType": "enum LudoGame.Color",
          "name": "color",
          "type": "uint8"
        }
      ],
      "name": "PlayerRegistered",
      "type": "event"
    },
    {
      "inputs": [],
      "name": "MAX_PLAYERS",
      "outputs": [
        {
          "internalType": "uint256",
          "name": "",
          "type": "uint256"
        }
      ],
      "stateMutability": "view",
      "type": "function"
    },
    {
      "inputs": [],
      "name": "STAKE_AMOUNT",
      "outputs": [
        {
          "internalType": "uint256",
          "name": "",
          "type": "uint256"
        }
      ],
      "stateMutability": "view",
      "type": "function"
    },
    {
      "inputs": [],
      "name": "gameEnded",
      "outputs": [
        {
          "internalType": "bool",
          "name": "",
          "type": "bool"
        }
      ],
      "stateMutability": "view",
      "type": "function"
    },
    {
      "inputs": [
        {
          "internalType": "address",
          "name": "_player",
          "type": "address"
        }
      ],
      "name": "getPlayer",
      "outputs": [
        {
          "internalType": "string",
          "name": "name",
          "type": "string"
        },
        {
          "internalType": "uint256",
          "name": "score",
          "type": "uint256"
        },
        {
          "internalType": "enum LudoGame.Color",
          "name": "color",
          "type": "uint8"
        },
        {
          "internalType": "uint256",
          "name": "position",
          "type": "uint256"
        }
      ],
      "stateMutability": "view",
      "type": "function"
    },
    {
      "inputs": [],
      "name": "ludoToken",
      "outputs": [
        {
          "internalType": "contract IERC20",
          "name": "",
          "type": "address"
        }
      ],
      "stateMutability": "view",
      "type": "function"
    },
    {
      "inputs": [
        {
          "internalType": "uint256",
          "name": "",
          "type": "uint256"
        }
      ],
      "name": "playerAddresses",
      "outputs": [
        {
          "internalType": "address",
          "name": "",
          "type": "address"
        }
      ],
      "stateMutability": "view",
      "type": "function"
    },
    {
      "inputs": [
        {
          "internalType": "address",
          "name": "",
          "type": "address"
        }
      ],
      "name": "players",
      "outputs": [
        {
          "internalType": "string",
          "name": "name",
          "type": "string"
        },
        {
          "internalType": "uint256",
          "name": "score",
          "type": "uint256"
        },
        {
          "internalType": "enum LudoGame.Color",
          "name": "color",
          "type": "uint8"
        },
        {
          "internalType": "bool",
          "name": "isRegistered",
          "type": "bool"
        },
        {
          "internalType": "uint256",
          "name": "position",
          "type": "uint256"
        },
        {
          "internalType": "bool",
          "name": "active",
          "type": "bool"
        }
      ],
      "stateMutability": "view",
      "type": "function"
    },
    {
      "inputs": [
        {
          "internalType": "string",
          "name": "_name",
          "type": "string"
        },
        {
          "internalType": "enum LudoGame.Color",
          "name": "_color",
          "type": "uint8"
        }
      ],
      "name": "register",
      "outputs": [],
      "stateMutability": "nonpayable",
      "type": "function"
    },
    {
      "inputs": [],
      "name": "rollDice",
      "outputs": [],
      "stateMutability": "nonpayable",
      "type": "function"
    },
    {
      "inputs": [
        {
          "internalType": "address",
          "name": "",
          "type": "address"
        }
      ],
      "name": "stakes",
      "outputs": [
        {
          "internalType": "uint256",
          "name": "",
          "type": "uint256"
        }
      ],
      "stateMutability": "view",
      "type": "function"
    },
    {
      "inputs": [],
      "name": "winner",
      "outputs": [
        {
          "internalType": "address",
          "name": "",
          "type": "address"
        }
      ],
      "stateMutability": "view",
      "type": "function"
    }
  ],
  "bytecode": "0x608060405234801561001057600080fd5b50604051612701380380612701833981810160405281019061003291906100db565b806000806101000a81548173ffffffffffffffffffffffffffffffffffffffff021916908373ffffffffffffffffffffffffffffffffffffffff16021790555050610108565b600080fd5b600073ffffffffffffffffffffffffffffffffffffffff82169050919050565b60006100a88261007d565b9050919050565b6100b88161009d565b81146100c357600080fd5b50565b6000815190506100d5816100af565b92915050565b6000602082840312156100f1576100f0610078565b5b60006100ff848285016100c6565b91505092915050565b6125ea806101176000396000f3fe608060405234801561001057600080fd5b50600436106100a95760003560e01c8063767b79ed11610071578063767b79ed1461017d57806379eca24014610199578063837e7cc6146101b7578063dfbf53ae146101c1578063e2eb41ff146101df578063faf5625f14610214576100a9565b806315c6aee2146100ae57806316934fc4146100de5780632f6fe3961461010e5780634411b3eb1461012c5780635c12cd4b1461014a575b600080fd5b6100c860048036038101906100c3919061163e565b610232565b6040516100d591906116ac565b60405180910390f35b6100f860048036038101906100f391906116f3565b610271565b604051610105919061172f565b60405180910390f35b610116610289565b6040516101239190611765565b60405180910390f35b61013461029c565b604051610141919061172f565b60405180910390f35b610164600480360381019061015f91906116f3565b6102a1565b6040516101749493929190611887565b60405180910390f35b61019760048036038101906101929190611a2d565b610474565b005b6101a1610971565b6040516101ae9190611ae8565b60405180910390f35b6101bf610995565b005b6101c9610dbc565b6040516101d691906116ac565b60405180910390f35b6101f960048036038101906101f491906116f3565b610de2565b60405161020b96959493929190611b03565b60405180910390f35b61021c610ecd565b604051610229919061172f565b60405180910390f35b6003818154811061024257600080fd5b906000526020600020016000915054906101000a900473ffffffffffffffffffffffffffffffffffffffff1681565b60026020528060005260406000206000915090505481565b600460149054906101000a900460ff1681565b600481565b6060600080600080600160008773ffffffffffffffffffffffffffffffffffffffff1673ffffffffffffffffffffffffffffffffffffffff1681526020019081526020016000206040518060c001604052908160008201805461030390611b9a565b80601f016020809104026020016040519081016040528092919081815260200182805461032f90611b9a565b801561037c5780601f106103515761010080835404028352916020019161037c565b820191906000526020600020905b81548152906001019060200180831161035f57829003601f168201915b50505050508152602001600182015481526020016002820160009054906101000a900460ff1660038111156103b4576103b3611810565b5b60038111156103c6576103c5611810565b5b81526020016002820160019054906101000a900460ff16151515158152602001600382015481526020016004820160009054906101000a900460ff16151515158152505090508060600151610450576040517f08c379a000000000000000000000000000000000000000000000000000000000815260040161044790611c17565b60405180910390fd5b80600001518160200151826040015183608001519450945094509450509193509193565b600160003373ffffffffffffffffffffffffffffffffffffffff1673ffffffffffffffffffffffffffffffffffffffff16815260200190815260200160002060020160019054906101000a900460ff1615610504576040517f08c379a00000000000000000000000000000000000000000000000000000000081526004016104fb90611c83565b60405180910390fd5b60046003805490501061054c576040517f08c379a000000000000000000000000000000000000000000000000000000000815260040161054390611cef565b60405180910390fd5b61055581610ed9565b15610595576040517f08c379a000000000000000000000000000000000000000000000000000000000815260040161058c90611d5b565b60405180910390fd5b674563918244f4000060008054906101000a900473ffffffffffffffffffffffffffffffffffffffff1673ffffffffffffffffffffffffffffffffffffffff166370a08231336040518263ffffffff1660e01b81526004016105f791906116ac565b602060405180830381865afa158015610614573d6000803e3d6000fd5b505050506040513d601f19601f820116820180604052508101906106389190611d90565b1015610679576040517f08c379a000000000000000000000000000000000000000000000000000000000815260040161067090611e09565b60405180910390fd5b60008054906101000a900473ffffffffffffffffffffffffffffffffffffffff1673ffffffffffffffffffffffffffffffffffffffff166323b872dd3330674563918244f400006040518463ffffffff1660e01b81526004016106de93929190611e29565b6020604051808303816000875af11580156106fd573d6000803e3d6000fd5b505050506040513d601f19601f820116820180604052508101906107219190611e8c565b610760576040517f08c379a000000000000000000000000000000000000000000000000000000000815260040161075790611f05565b60405180910390fd5b6040518060c001604052808381526020016000815260200182600381111561078b5761078a611810565b5b81526020016001151581526020016000815260200160011515815250600160003373ffffffffffffffffffffffffffffffffffffffff1673ffffffffffffffffffffffffffffffffffffffff16815260200190815260200160002060008201518160000190816107fb91906120c7565b506020820151816001015560408201518160020160006101000a81548160ff0219169083600381111561083157610830611810565b5b021790555060608201518160020160016101000a81548160ff0219169083151502179055506080820151816003015560a08201518160040160006101000a81548160ff021916908315150217905550905050674563918244f40000600260003373ffffffffffffffffffffffffffffffffffffffff1673ffffffffffffffffffffffffffffffffffffffff168152602001908152602001600020819055506003339080600181540180825580915050600190039060005260206000200160009091909190916101000a81548173ffffffffffffffffffffffffffffffffffffffff021916908373ffffffffffffffffffffffffffffffffffffffff1602179055507fa4e3e83915a129a7a35c973747aa80620677687eaf3adda20fa7e0644d01f92933838360405161096593929190612199565b60405180910390a15050565b60008054906101000a900473ffffffffffffffffffffffffffffffffffffffff1681565b600160003373ffffffffffffffffffffffffffffffffffffffff1673ffffffffffffffffffffffffffffffffffffffff16815260200190815260200160002060020160019054906101000a900460ff16610a24576040517f08c379a0000000000000000000000000000000000000000000000000000000008152600401610a1b90612223565b60405180910390fd5b600160003373ffffffffffffffffffffffffffffffffffffffff1673ffffffffffffffffffffffffffffffffffffffff16815260200190815260200160002060040160009054906101000a900460ff16610ab3576040517f08c379a0000000000000000000000000000000000000000000000000000000008152600401610aaa9061228f565b60405180910390fd5b600460149054906101000a900460ff1615610b03576040517f08c379a0000000000000000000000000000000000000000000000000000000008152600401610afa906122fb565b60405180910390fd5b674563918244f4000060008054906101000a900473ffffffffffffffffffffffffffffffffffffffff1673ffffffffffffffffffffffffffffffffffffffff166370a08231336040518263ffffffff1660e01b8152600401610b6591906116ac565b602060405180830381865afa158015610b82573d6000803e3d6000fd5b505050506040513d601f19601f82011682018060405250810190610ba69190611d90565b1015610be7576040517f08c379a0000000000000000000000000000000000000000000000000000000008152600401610bde90611e09565b60405180910390fd5b60008054906101000a900473ffffffffffffffffffffffffffffffffffffffff1673ffffffffffffffffffffffffffffffffffffffff166323b872dd3330674563918244f400006040518463ffffffff1660e01b8152600401610c4c93929190611e29565b6020604051808303816000875af1158015610c6b573d6000803e3d6000fd5b505050506040513d601f19601f82011682018060405250810190610c8f9190611e8c565b610cce576040517f08c379a0000000000000000000000000000000000000000000000000000000008152600401610cc590611f05565b60405180910390fd5b600060016006423343604051602001610ce993929190612384565b6040516020818303038152906040528051906020012060001c610d0c91906123f0565b610d169190612450565b9050674563918244f40000600260003373ffffffffffffffffffffffffffffffffffffffff1673ffffffffffffffffffffffffffffffffffffffff1681526020019081526020016000206000828254610d6f9190612450565b925050819055507f1ef79941499983e5c21ea7f676dda47f58a2dd04d9b4bb110544a7b7ee7ff1233382604051610da7929190612484565b60405180910390a1610db93382610fc8565b50565b600460009054906101000a900473ffffffffffffffffffffffffffffffffffffffff1681565b6001602052806000526040600020600091509050806000018054610e0590611b9a565b80601f0160208091040260200160405190810160405280929190818152602001828054610e3190611b9a565b8015610e7e5780601f10610e5357610100808354040283529160200191610e7e565b820191906000526020600020905b815481529060010190602001808311610e6157829003601f168201915b5050505050908060010154908060020160009054906101000a900460ff16908060020160019054906101000a900460ff16908060030154908060040160009054906101000a900460ff16905086565b674563918244f4000081565b600080600090505b600380549050811015610fbd57826003811115610f0157610f00611810565b5b6001600060038481548110610f1957610f186124ad565b5b9060005260206000200160009054906101000a900473ffffffffffffffffffffffffffffffffffffffff1673ffffffffffffffffffffffffffffffffffffffff1673ffffffffffffffffffffffffffffffffffffffff16815260200190815260200160002060020160009054906101000a900460ff166003811115610fa157610fa0611810565b5b03610fb0576001915050610fc3565b8080600101915050610ee1565b50600090505b919050565b600160008373ffffffffffffffffffffffffffffffffffffffff1673ffffffffffffffffffffffffffffffffffffffff16815260200190815260200160002060020160019054906101000a900460ff16611057576040517f08c379a000000000000000000000000000000000000000000000000000000000815260040161104e90612528565b60405180910390fd5b6000600160008473ffffffffffffffffffffffffffffffffffffffff1673ffffffffffffffffffffffffffffffffffffffff168152602001908152602001600020905060288282600301546110ac9190612450565b6110b691906123f0565b8160030181905550818160010160008282546110d29190612450565b925050819055507fb49bcc705545f6059cb31c24a5d330ba94d25c4bd8b4feade211f30313652a3c83826003015460405161110e929190612484565b60405180910390a161111e611123565b505050565b600460149054906101000a900460ff166115f25760008060005b600380549050811015611286576000600382815481106111605761115f6124ad565b5b9060005260206000200160009054906101000a900473ffffffffffffffffffffffffffffffffffffffff169050600160008273ffffffffffffffffffffffffffffffffffffffff1673ffffffffffffffffffffffffffffffffffffffff16815260200190815260200160002060040160009054906101000a900460ff16801561122a575082600160008373ffffffffffffffffffffffffffffffffffffffff1673ffffffffffffffffffffffffffffffffffffffff16815260200190815260200160002060010154115b1561127857600160008273ffffffffffffffffffffffffffffffffffffffff1673ffffffffffffffffffffffffffffffffffffffff1681526020019081526020016000206001015492508093505b50808060010191505061113d565b50606481106115ef5781600460006101000a81548173ffffffffffffffffffffffffffffffffffffffff021916908373ffffffffffffffffffffffffffffffffffffffff1602179055506001600460146101000a81548160ff0219169083151502179055506000805b60038054905081101561142d576002600060038381548110611314576113136124ad565b5b9060005260206000200160009054906101000a900473ffffffffffffffffffffffffffffffffffffffff1673ffffffffffffffffffffffffffffffffffffffff1673ffffffffffffffffffffffffffffffffffffffff16815260200190815260200160002054826113859190612450565b9150600060016000600384815481106113a1576113a06124ad565b5b9060005260206000200160009054906101000a900473ffffffffffffffffffffffffffffffffffffffff1673ffffffffffffffffffffffffffffffffffffffff1673ffffffffffffffffffffffffffffffffffffffff16815260200190815260200160002060040160006101000a81548160ff02191690831515021790555080806001019150506112ef565b50600073ffffffffffffffffffffffffffffffffffffffff16600460009054906101000a900473ffffffffffffffffffffffffffffffffffffffff1673ffffffffffffffffffffffffffffffffffffffff161415801561148d5750600081115b156115925760008054906101000a900473ffffffffffffffffffffffffffffffffffffffff1673ffffffffffffffffffffffffffffffffffffffff1663a9059cbb600460009054906101000a900473ffffffffffffffffffffffffffffffffffffffff16836040518363ffffffff1660e01b815260040161150f929190612484565b6020604051808303816000875af115801561152e573d6000803e3d6000fd5b505050506040513d601f19601f820116820180604052508101906115529190611e8c565b611591576040517f08c379a000000000000000000000000000000000000000000000000000000000815260040161158890612594565b60405180910390fd5b5b7fd4ba6fec82d9b0e8ffe50b9fed9e4be3b25c984ce1e0e016405a5528726e8a2c600460009054906101000a900473ffffffffffffffffffffffffffffffffffffffff16826040516115e5929190612484565b60405180910390a1505b50505b565b6000604051905090565b600080fd5b600080fd5b6000819050919050565b61161b81611608565b811461162657600080fd5b50565b60008135905061163881611612565b92915050565b600060208284031215611654576116536115fe565b5b600061166284828501611629565b91505092915050565b600073ffffffffffffffffffffffffffffffffffffffff82169050919050565b60006116968261166b565b9050919050565b6116a68161168b565b82525050565b60006020820190506116c1600083018461169d565b92915050565b6116d08161168b565b81146116db57600080fd5b50565b6000813590506116ed816116c7565b92915050565b600060208284031215611709576117086115fe565b5b6000611717848285016116de565b91505092915050565b61172981611608565b82525050565b60006020820190506117446000830184611720565b92915050565b60008115159050919050565b61175f8161174a565b82525050565b600060208201905061177a6000830184611756565b92915050565b600081519050919050565b600082825260208201905092915050565b60005b838110156117ba57808201518184015260208101905061179f565b60008484015250505050565b6000601f19601f8301169050919050565b60006117e282611780565b6117ec818561178b565b93506117fc81856020860161179c565b611805816117c6565b840191505092915050565b7f4e487b7100000000000000000000000000000000000000000000000000000000600052602160045260246000fd5b600481106118505761184f611810565b5b50565b60008190506118618261183f565b919050565b600061187182611853565b9050919050565b61188181611866565b82525050565b600060808201905081810360008301526118a181876117d7565b90506118b06020830186611720565b6118bd6040830185611878565b6118ca6060830184611720565b95945050505050565b600080fd5b600080fd5b7f4e487b7100000000000000000000000000000000000000000000000000000000600052604160045260246000fd5b611915826117c6565b810181811067ffffffffffffffff82111715611934576119336118dd565b5b80604052505050565b60006119476115f4565b9050611953828261190c565b919050565b600067ffffffffffffffff821115611973576119726118dd565b5b61197c826117c6565b9050602081019050919050565b82818337600083830152505050565b60006119ab6119a684611958565b61193d565b9050828152602081018484840111156119c7576119c66118d8565b5b6119d2848285611989565b509392505050565b600082601f8301126119ef576119ee6118d3565b5b81356119ff848260208601611998565b91505092915050565b60048110611a1557600080fd5b50565b600081359050611a2781611a08565b92915050565b60008060408385031215611a4457611a436115fe565b5b600083013567ffffffffffffffff811115611a6257611a61611603565b5b611a6e858286016119da565b9250506020611a7f85828601611a18565b9150509250929050565b6000819050919050565b6000611aae611aa9611aa48461166b565b611a89565b61166b565b9050919050565b6000611ac082611a93565b9050919050565b6000611ad282611ab5565b9050919050565b611ae281611ac7565b82525050565b6000602082019050611afd6000830184611ad9565b92915050565b600060c0820190508181036000830152611b1d81896117d7565b9050611b2c6020830188611720565b611b396040830187611878565b611b466060830186611756565b611b536080830185611720565b611b6060a0830184611756565b979650505050505050565b7f4e487b7100000000000000000000000000000000000000000000000000000000600052602260045260246000fd5b60006002820490506001821680611bb257607f821691505b602082108103611bc557611bc4611b6b565b5b50919050565b7f506c61796572206e6f7420726567697374657265640000000000000000000000600082015250565b6000611c0160158361178b565b9150611c0c82611bcb565b602082019050919050565b60006020820190508181036000830152611c3081611bf4565b9050919050565b7f596f7527726520616c726561647920696e210000000000000000000000000000600082015250565b6000611c6d60128361178b565b9150611c7882611c37565b602082019050919050565b60006020820190508181036000830152611c9c81611c60565b9050919050565b7f546f6f206d616e7920706c617965727321000000000000000000000000000000600082015250565b6000611cd960118361178b565b9150611ce482611ca3565b602082019050919050565b60006020820190508181036000830152611d0881611ccc565b9050919050565b7f436f6c6f7220616c726561647920757365642100000000000000000000000000600082015250565b6000611d4560138361178b565b9150611d5082611d0f565b602082019050919050565b60006020820190508181036000830152611d7481611d38565b9050919050565b600081519050611d8a81611612565b92915050565b600060208284031215611da657611da56115fe565b5b6000611db484828501611d7b565b91505092915050565b7f4e6f7420656e6f756768204c55444f20746f6b656e7321000000000000000000600082015250565b6000611df360178361178b565b9150611dfe82611dbd565b602082019050919050565b60006020820190508181036000830152611e2281611de6565b9050919050565b6000606082019050611e3e600083018661169d565b611e4b602083018561169d565b611e586040830184611720565b949350505050565b611e698161174a565b8114611e7457600080fd5b50565b600081519050611e8681611e60565b92915050565b600060208284031215611ea257611ea16115fe565b5b6000611eb084828501611e77565b91505092915050565b7f5374616b65206661696c65642100000000000000000000000000000000000000600082015250565b6000611eef600d8361178b565b9150611efa82611eb9565b602082019050919050565b60006020820190508181036000830152611f1e81611ee2565b9050919050565b60008190508160005260206000209050919050565b60006020601f8301049050919050565b600082821b905092915050565b600060088302611f877fffffffffffffffffffffffffffffffffffffffffffffffffffffffffffffffff82611f4a565b611f918683611f4a565b95508019841693508086168417925050509392505050565b6000611fc4611fbf611fba84611608565b611a89565b611608565b9050919050565b6000819050919050565b611fde83611fa9565b611ff2611fea82611fcb565b848454611f57565b825550505050565b600090565b612007611ffa565b612012818484611fd5565b505050565b5b818110156120365761202b600082611fff565b600181019050612018565b5050565b601f82111561207b5761204c81611f25565b61205584611f3a565b81016020851015612064578190505b61207861207085611f3a565b830182612017565b50505b505050565b600082821c905092915050565b600061209e60001984600802612080565b1980831691505092915050565b60006120b7838361208d565b9150826002028217905092915050565b6120d082611780565b67ffffffffffffffff8111156120e9576120e86118dd565b5b6120f38254611b9a565b6120fe82828561203a565b600060209050601f831160018114612131576000841561211f578287015190505b61212985826120ab565b865550612191565b601f19841661213f86611f25565b60005b8281101561216757848901518255600182019150602085019450602081019050612142565b868310156121845784890151612180601f89168261208d565b8355505b6001600288020188555050505b505050505050565b60006060820190506121ae600083018661169d565b81810360208301526121c081856117d7565b90506121cf6040830184611878565b949350505050565b7f5265676973746572206669727374210000000000000000000000000000000000600082015250565b600061220d600f8361178b565b9150612218826121d7565b602082019050919050565b6000602082019050818103600083015261223c81612200565b9050919050565b7f596f75277265206f757421000000000000000000000000000000000000000000600082015250565b6000612279600b8361178b565b915061228482612243565b602082019050919050565b600060208201905081810360008301526122a88161226c565b9050919050565b7f47616d652773206f766572210000000000000000000000000000000000000000600082015250565b60006122e5600c8361178b565b91506122f0826122af565b602082019050919050565b60006020820190508181036000830152612314816122d8565b9050919050565b6000819050919050565b61233661233182611608565b61231b565b82525050565b60008160601b9050919050565b60006123548261233c565b9050919050565b600061236682612349565b9050919050565b61237e6123798261168b565b61235b565b82525050565b60006123908286612325565b6020820191506123a0828561236d565b6014820191506123b08284612325565b602082019150819050949350505050565b7f4e487b7100000000000000000000000000000000000000000000000000000000600052601260045260246000fd5b60006123fb82611608565b915061240683611608565b925082612416576124156123c1565b5b828206905092915050565b7f4e487b7100000000000000000000000000000000000000000000000000000000600052601160045260246000fd5b600061245b82611608565b915061246683611608565b925082820190508082111561247e5761247d612421565b5b92915050565b6000604082019050612499600083018561169d565b6124a66020830184611720565b9392505050565b7f4e487b7100000000000000000000000000000000000000000000000000000000600052603260045260246000fd5b7f506c61796572206e6f7420666f756e6421000000000000000000000000000000600082015250565b600061251260118361178b565b915061251d826124dc565b602082019050919050565b6000602082019050818103600083015261254181612505565b9050919050565b7f57696e6e6572207061796f7574206661696c6564210000000000000000000000600082015250565b600061257e60158361178b565b915061258982612548565b602082019050919050565b600060208201905081810360008301526125ad81612571565b905091905056fea264697066735822122059a9944ce8848b254b9d58c133f91d43f87fa4b20e6790b953842775c8c4780c64736f6c634300081c0033",
  "linkReferences": {},
  "deployedLinkReferences": {}
}