{"contracts/todo.sol":{"TodoList":{"abi":[{"inputs":[{"internalType":"string","name":"_title","type":"string"},{"internalType":"string","name":"_description","type":"string"}],"name":"create_todo","outputs":[],"stateMutability":"nonpayable","type":"function"},{"inputs":[{"internalType":"uint256","name":"_index","type":"uint256"}],"name":"delete_todo","outputs":[],"stateMutability":"nonpayable","type":"function"},{"inputs":[],"name":"get_todos","outputs":[{"components":[{"internalType":"string","name":"title","type":"string"},{"internalType":"string","name":"description","type":"string"},{"internalType":"bool","name":"status","type":"bool"}],"internalType":"struct TodoList.Todo[]","name":"","type":"tuple[]"}],"stateMutability":"view","type":"function"},{"inputs":[{"internalType":"address","name":"","type":"address"},{"internalType":"uint256","name":"","type":"uint256"}],"name":"todos","outputs":[{"internalType":"string","name":"title","type":"string"},{"internalType":"string","name":"description","type":"string"},{"internalType":"bool","name":"status","type":"bool"}],"stateMutability":"view","type":"function"},{"inputs":[{"internalType":"uint256","name":"_index","type":"uint256"}],"name":"toggle_todo_status","outputs":[],"stateMutability":"nonpayable","type":"function"},{"inputs":[{"internalType":"uint256","name":"_index","type":"uint256"},{"internalType":"string","name":"_new_title","type":"string"},{"internalType":"string","name":"_new_description","type":"string"}],"name":"update_todo","outputs":[],"stateMutability":"nonpayable","type":"function"}],"evm":{"bytecode":{"linkReferences":{},"object":"6080604052348015600f57600080fd5b506113348061001f6000396000f3fe608060405234801561001057600080fd5b50600436106100625760003560e01c80633865881b14610067578063428c1889146100855780635a051ea2146100b75780636bbdadff146100d35780638f08bb21146100ef578063b5c90fd51461010b575b600080fd5b61006f610127565b60405161007c9190610b52565b60405180910390f35b61009f600480360381019061009a9190610c1c565b610301565b6040516100ae93929190610cb5565b60405180910390f35b6100d160048036038101906100cc9190610cfa565b610465565b005b6100ed60048036038101906100e89190610cfa565b6105d3565b005b61010960048036038101906101049190610e5c565b6106ee565b005b61012560048036038101906101209190610ee7565b610854565b005b60606000803373ffffffffffffffffffffffffffffffffffffffff1673ffffffffffffffffffffffffffffffffffffffff168152602001908152602001600020805480602002602001604051908101604052809291908181526020016000905b828210156102f857838290600052602060002090600302016040518060600160405290816000820180546101ba90610f8e565b80601f01602080910402602001604051908101604052809291908181526020018280546101e690610f8e565b80156102335780601f1061020857610100808354040283529160200191610233565b820191906000526020600020905b81548152906001019060200180831161021657829003601f168201915b5050505050815260200160018201805461024c90610f8e565b80601f016020809104026020016040519081016040528092919081815260200182805461027890610f8e565b80156102c55780601f1061029a576101008083540402835291602001916102c5565b820191906000526020600020905b8154815290600101906020018083116102a857829003601f168201915b505050505081526020016002820160009054906101000a900460ff16151515158152505081526020019060010190610187565b50505050905090565b6000602052816000526040600020818154811061031d57600080fd5b90600052602060002090600302016000915091505080600001805461034190610f8e565b80601f016020809104026020016040519081016040528092919081815260200182805461036d90610f8e565b80156103ba5780601f1061038f576101008083540402835291602001916103ba565b820191906000526020600020905b81548152906001019060200180831161039d57829003601f168201915b5050505050908060010180546103cf90610f8e565b80601f01602080910402602001604051908101604052809291908181526020018280546103fb90610f8e565b80156104485780601f1061041d57610100808354040283529160200191610448565b820191906000526020600020905b81548152906001019060200180831161042b57829003601f168201915b5050505050908060020160009054906101000a900460ff16905083565b6000803373ffffffffffffffffffffffffffffffffffffffff1673ffffffffffffffffffffffffffffffffffffffff1681526020019081526020016000208054905081106104e8576040517f08c379a00000000000000000000000000000000000000000000000000000000081526004016104df90611031565b60405180910390fd5b6000803373ffffffffffffffffffffffffffffffffffffffff1673ffffffffffffffffffffffffffffffffffffffff168152602001908152602001600020818154811061053857610537611051565b5b906000526020600020906003020160020160009054906101000a900460ff16156000803373ffffffffffffffffffffffffffffffffffffffff1673ffffffffffffffffffffffffffffffffffffffff16815260200190815260200160002082815481106105a8576105a7611051565b5b906000526020600020906003020160020160006101000a81548160ff02191690831515021790555050565b6000803373ffffffffffffffffffffffffffffffffffffffff1673ffffffffffffffffffffffffffffffffffffffff168152602001908152602001600020805490508110610656576040517f08c379a000000000000000000000000000000000000000000000000000000000815260040161064d90611031565b60405180910390fd5b6000803373ffffffffffffffffffffffffffffffffffffffff1673ffffffffffffffffffffffffffffffffffffffff16815260200190815260200160002081815481106106a6576106a5611051565b5b9060005260206000209060030201600080820160006106c59190610931565b6001820160006106d59190610931565b6002820160006101000a81549060ff0219169055505050565b6000803373ffffffffffffffffffffffffffffffffffffffff1673ffffffffffffffffffffffffffffffffffffffff168152602001908152602001600020805490508310610771576040517f08c379a000000000000000000000000000000000000000000000000000000000815260040161076890611031565b60405180910390fd5b816000803373ffffffffffffffffffffffffffffffffffffffff1673ffffffffffffffffffffffffffffffffffffffff16815260200190815260200160002084815481106107c2576107c1611051565b5b906000526020600020906003020160000190816107df919061122c565b50806000803373ffffffffffffffffffffffffffffffffffffffff1673ffffffffffffffffffffffffffffffffffffffff168152602001908152602001600020848154811061083157610830611051565b5b9060005260206000209060030201600101908161084e919061122c565b50505050565b600060405180606001604052808481526020018381526020016000151581525090506000803373ffffffffffffffffffffffffffffffffffffffff1673ffffffffffffffffffffffffffffffffffffffff16815260200190815260200160002081908060018154018082558091505060019003906000526020600020906003020160009091909190915060008201518160000190816108f3919061122c565b506020820151816001019081610909919061122c565b5060408201518160020160006101000a81548160ff0219169083151502179055505050505050565b50805461093d90610f8e565b6000825580601f1061094f575061096e565b601f01602090049060005260206000209081019061096d9190610971565b5b50565b5b8082111561098a576000816000905550600101610972565b5090565b600081519050919050565b600082825260208201905092915050565b6000819050602082019050919050565b600081519050919050565b600082825260208201905092915050565b60005b838110156109f45780820151818401526020810190506109d9565b60008484015250505050565b6000601f19601f8301169050919050565b6000610a1c826109ba565b610a2681856109c5565b9350610a368185602086016109d6565b610a3f81610a00565b840191505092915050565b60008115159050919050565b610a5f81610a4a565b82525050565b60006060830160008301518482036000860152610a828282610a11565b91505060208301518482036020860152610a9c8282610a11565b9150506040830151610ab16040860182610a56565b508091505092915050565b6000610ac88383610a65565b905092915050565b6000602082019050919050565b6000610ae88261098e565b610af28185610999565b935083602082028501610b04856109aa565b8060005b85811015610b405784840389528151610b218582610abc565b9450610b2c83610ad0565b925060208a01995050600181019050610b08565b50829750879550505050505092915050565b60006020820190508181036000830152610b6c8184610add565b905092915050565b6000604051905090565b600080fd5b600080fd5b600073ffffffffffffffffffffffffffffffffffffffff82169050919050565b6000610bb382610b88565b9050919050565b610bc381610ba8565b8114610bce57600080fd5b50565b600081359050610be081610bba565b92915050565b6000819050919050565b610bf981610be6565b8114610c0457600080fd5b50565b600081359050610c1681610bf0565b92915050565b60008060408385031215610c3357610c32610b7e565b5b6000610c4185828601610bd1565b9250506020610c5285828601610c07565b9150509250929050565b600082825260208201905092915050565b6000610c78826109ba565b610c828185610c5c565b9350610c928185602086016109d6565b610c9b81610a00565b840191505092915050565b610caf81610a4a565b82525050565b60006060820190508181036000830152610ccf8186610c6d565b90508181036020830152610ce38185610c6d565b9050610cf26040830184610ca6565b949350505050565b600060208284031215610d1057610d0f610b7e565b5b6000610d1e84828501610c07565b91505092915050565b600080fd5b600080fd5b7f4e487b7100000000000000000000000000000000000000000000000000000000600052604160045260246000fd5b610d6982610a00565b810181811067ffffffffffffffff82111715610d8857610d87610d31565b5b80604052505050565b6000610d9b610b74565b9050610da78282610d60565b919050565b600067ffffffffffffffff821115610dc757610dc6610d31565b5b610dd082610a00565b9050602081019050919050565b82818337600083830152505050565b6000610dff610dfa84610dac565b610d91565b905082815260208101848484011115610e1b57610e1a610d2c565b5b610e26848285610ddd565b509392505050565b600082601f830112610e4357610e42610d27565b5b8135610e53848260208601610dec565b91505092915050565b600080600060608486031215610e7557610e74610b7e565b5b6000610e8386828701610c07565b935050602084013567ffffffffffffffff811115610ea457610ea3610b83565b5b610eb086828701610e2e565b925050604084013567ffffffffffffffff811115610ed157610ed0610b83565b5b610edd86828701610e2e565b9150509250925092565b60008060408385031215610efe57610efd610b7e565b5b600083013567ffffffffffffffff811115610f1c57610f1b610b83565b5b610f2885828601610e2e565b925050602083013567ffffffffffffffff811115610f4957610f48610b83565b5b610f5585828601610e2e565b9150509250929050565b7f4e487b7100000000000000000000000000000000000000000000000000000000600052602260045260246000fd5b60006002820490506001821680610fa657607f821691505b602082108103610fb957610fb8610f5f565b5b50919050565b7f496e64657820697320696e76616c6964206f7220646f6573206e6f742065786960008201527f7374000000000000000000000000000000000000000000000000000000000000602082015250565b600061101b602283610c5c565b915061102682610fbf565b604082019050919050565b6000602082019050818103600083015261104a8161100e565b9050919050565b7f4e487b7100000000000000000000000000000000000000000000000000000000600052603260045260246000fd5b60008190508160005260206000209050919050565b60006020601f8301049050919050565b600082821b905092915050565b6000600883026110e27fffffffffffffffffffffffffffffffffffffffffffffffffffffffffffffffff826110a5565b6110ec86836110a5565b95508019841693508086168417925050509392505050565b6000819050919050565b600061112961112461111f84610be6565b611104565b610be6565b9050919050565b6000819050919050565b6111438361110e565b61115761114f82611130565b8484546110b2565b825550505050565b600090565b61116c61115f565b61117781848461113a565b505050565b5b8181101561119b57611190600082611164565b60018101905061117d565b5050565b601f8211156111e0576111b181611080565b6111ba84611095565b810160208510156111c9578190505b6111dd6111d585611095565b83018261117c565b50505b505050565b600082821c905092915050565b6000611203600019846008026111e5565b1980831691505092915050565b600061121c83836111f2565b9150826002028217905092915050565b611235826109ba565b67ffffffffffffffff81111561124e5761124d610d31565b5b6112588254610f8e565b61126382828561119f565b600060209050601f8311600181146112965760008415611284578287015190505b61128e8582611210565b8655506112f6565b601f1984166112a486611080565b60005b828110156112cc578489015182556001820191506020850194506020810190506112a7565b868310156112e957848901516112e5601f8916826111f2565b8355505b6001600288020188555050505b50505050505056fea26469706673582212200f3b098dc9afa2a35bdea0fc7340b24efe73216ca7bb96555d2f7eb6a94b403764736f6c634300081c0033","opcodes":"PUSH1 0x80 PUSH1 0x40 MSTORE CALLVALUE DUP1 ISZERO PUSH1 0xF JUMPI PUSH1 0x0 DUP1 REVERT JUMPDEST POP PUSH2 0x1334 DUP1 PUSH2 0x1F PUSH1 0x0 CODECOPY PUSH1 0x0 RETURN INVALID PUSH1 0x80 PUSH1 0x40 MSTORE CALLVALUE DUP1 ISZERO PUSH2 0x10 JUMPI PUSH1 0x0 DUP1 REVERT JUMPDEST POP PUSH1 0x4 CALLDATASIZE LT PUSH2 0x62 JUMPI PUSH1 0x0 CALLDATALOAD PUSH1 0xE0 SHR DUP1 PUSH4 0x3865881B EQ PUSH2 0x67 JUMPI DUP1 PUSH4 0x428C1889 EQ PUSH2 0x85 JUMPI DUP1 PUSH4 0x5A051EA2 EQ PUSH2 0xB7 JUMPI DUP1 PUSH4 0x6BBDADFF EQ PUSH2 0xD3 JUMPI DUP1 PUSH4 0x8F08BB21 EQ PUSH2 0xEF JUMPI DUP1 PUSH4 0xB5C90FD5 EQ PUSH2 0x10B JUMPI JUMPDEST PUSH1 0x0 DUP1 REVERT JUMPDEST PUSH2 0x6F PUSH2 0x127 JUMP JUMPDEST PUSH1 0x40 MLOAD PUSH2 0x7C SWAP2 SWAP1 PUSH2 0xB52 JUMP JUMPDEST PUSH1 0x40 MLOAD DUP1 SWAP2 SUB SWAP1 RETURN JUMPDEST PUSH2 0x9F PUSH1 0x4 DUP1 CALLDATASIZE SUB DUP2 ADD SWAP1 PUSH2 0x9A SWAP2 SWAP1 PUSH2 0xC1C JUMP JUMPDEST PUSH2 0x301 JUMP JUMPDEST PUSH1 0x40 MLOAD PUSH2 0xAE SWAP4 SWAP3 SWAP2 SWAP1 PUSH2 0xCB5 JUMP JUMPDEST PUSH1 0x40 MLOAD DUP1 SWAP2 SUB SWAP1 RETURN JUMPDEST PUSH2 0xD1 PUSH1 0x4 DUP1 CALLDATASIZE SUB DUP2 ADD SWAP1 PUSH2 0xCC SWAP2 SWAP1 PUSH2 0xCFA JUMP JUMPDEST PUSH2 0x465 JUMP JUMPDEST STOP JUMPDEST PUSH2 0xED PUSH1 0x4 DUP1 CALLDATASIZE SUB DUP2 ADD SWAP1 PUSH2 0xE8 SWAP2 SWAP1 PUSH2 0xCFA JUMP JUMPDEST PUSH2 0x5D3 JUMP JUMPDEST STOP JUMPDEST PUSH2 0x109 PUSH1 0x4 DUP1 CALLDATASIZE SUB DUP2 ADD SWAP1 PUSH2 0x104 SWAP2 SWAP1 PUSH2 0xE5C JUMP JUMPDEST PUSH2 0x6EE JUMP JUMPDEST STOP JUMPDEST PUSH2 0x125 PUSH1 0x4 DUP1 CALLDATASIZE SUB DUP2 ADD SWAP1 PUSH2 0x120 SWAP2 SWAP1 PUSH2 0xEE7 JUMP JUMPDEST PUSH2 0x854 JUMP JUMPDEST STOP JUMPDEST PUSH1 0x60 PUSH1 0x0 DUP1 CALLER PUSH20 0xFFFFFFFFFFFFFFFFFFFFFFFFFFFFFFFFFFFFFFFF AND PUSH20 0xFFFFFFFFFFFFFFFFFFFFFFFFFFFFFFFFFFFFFFFF AND DUP2 MSTORE PUSH1 0x20 ADD SWAP1 DUP2 MSTORE PUSH1 0x20 ADD PUSH1 0x0 KECCAK256 DUP1 SLOAD DUP1 PUSH1 0x20 MUL PUSH1 0x20 ADD PUSH1 0x40 MLOAD SWAP1 DUP2 ADD PUSH1 0x40 MSTORE DUP1 SWAP3 SWAP2 SWAP1 DUP2 DUP2 MSTORE PUSH1 0x20 ADD PUSH1 0x0 SWAP1 JUMPDEST DUP3 DUP3 LT ISZERO PUSH2 0x2F8 JUMPI DUP4 DUP3 SWAP1 PUSH1 0x0 MSTORE PUSH1 0x20 PUSH1 0x0 KECCAK256 SWAP1 PUSH1 0x3 MUL ADD PUSH1 0x40 MLOAD DUP1 PUSH1 0x60 ADD PUSH1 0x40 MSTORE SWAP1 DUP2 PUSH1 0x0 DUP3 ADD DUP1 SLOAD PUSH2 0x1BA SWAP1 PUSH2 0xF8E JUMP JUMPDEST DUP1 PUSH1 0x1F ADD PUSH1 0x20 DUP1 SWAP2 DIV MUL PUSH1 0x20 ADD PUSH1 0x40 MLOAD SWAP1 DUP2 ADD PUSH1 0x40 MSTORE DUP1 SWAP3 SWAP2 SWAP1 DUP2 DUP2 MSTORE PUSH1 0x20 ADD DUP3 DUP1 SLOAD PUSH2 0x1E6 SWAP1 PUSH2 0xF8E JUMP JUMPDEST DUP1 ISZERO PUSH2 0x233 JUMPI DUP1 PUSH1 0x1F LT PUSH2 0x208 JUMPI PUSH2 0x100 DUP1 DUP4 SLOAD DIV MUL DUP4 MSTORE SWAP2 PUSH1 0x20 ADD SWAP2 PUSH2 0x233 JUMP JUMPDEST DUP3 ADD SWAP2 SWAP1 PUSH1 0x0 MSTORE PUSH1 0x20 PUSH1 0x0 KECCAK256 SWAP1 JUMPDEST DUP2 SLOAD DUP2 MSTORE SWAP1 PUSH1 0x1 ADD SWAP1 PUSH1 0x20 ADD DUP1 DUP4 GT PUSH2 0x216 JUMPI DUP3 SWAP1 SUB PUSH1 0x1F AND DUP3 ADD SWAP2 JUMPDEST POP POP POP POP POP DUP2 MSTORE PUSH1 0x20 ADD PUSH1 0x1 DUP3 ADD DUP1 SLOAD PUSH2 0x24C SWAP1 PUSH2 0xF8E JUMP JUMPDEST DUP1 PUSH1 0x1F ADD PUSH1 0x20 DUP1 SWAP2 DIV MUL PUSH1 0x20 ADD PUSH1 0x40 MLOAD SWAP1 DUP2 ADD PUSH1 0x40 MSTORE DUP1 SWAP3 SWAP2 SWAP1 DUP2 DUP2 MSTORE PUSH1 0x20 ADD DUP3 DUP1 SLOAD PUSH2 0x278 SWAP1 PUSH2 0xF8E JUMP JUMPDEST DUP1 ISZERO PUSH2 0x2C5 JUMPI DUP1 PUSH1 0x1F LT PUSH2 0x29A JUMPI PUSH2 0x100 DUP1 DUP4 SLOAD DIV MUL DUP4 MSTORE SWAP2 PUSH1 0x20 ADD SWAP2 PUSH2 0x2C5 JUMP JUMPDEST DUP3 ADD SWAP2 SWAP1 PUSH1 0x0 MSTORE PUSH1 0x20 PUSH1 0x0 KECCAK256 SWAP1 JUMPDEST DUP2 SLOAD DUP2 MSTORE SWAP1 PUSH1 0x1 ADD SWAP1 PUSH1 0x20 ADD DUP1 DUP4 GT PUSH2 0x2A8 JUMPI DUP3 SWAP1 SUB PUSH1 0x1F AND DUP3 ADD SWAP2 JUMPDEST POP POP POP POP POP DUP2 MSTORE PUSH1 0x20 ADD PUSH1 0x2 DUP3 ADD PUSH1 0x0 SWAP1 SLOAD SWAP1 PUSH2 0x100 EXP SWAP1 DIV PUSH1 0xFF AND ISZERO ISZERO ISZERO ISZERO DUP2 MSTORE POP POP DUP2 MSTORE PUSH1 0x20 ADD SWAP1 PUSH1 0x1 ADD SWAP1 PUSH2 0x187 JUMP JUMPDEST POP POP POP POP SWAP1 POP SWAP1 JUMP JUMPDEST PUSH1 0x0 PUSH1 0x20 MSTORE DUP2 PUSH1 0x0 MSTORE PUSH1 0x40 PUSH1 0x0 KECCAK256 DUP2 DUP2 SLOAD DUP2 LT PUSH2 0x31D JUMPI PUSH1 0x0 DUP1 REVERT JUMPDEST SWAP1 PUSH1 0x0 MSTORE PUSH1 0x20 PUSH1 0x0 KECCAK256 SWAP1 PUSH1 0x3 MUL ADD PUSH1 0x0 SWAP2 POP SWAP2 POP POP DUP1 PUSH1 0x0 ADD DUP1 SLOAD PUSH2 0x341 SWAP1 PUSH2 0xF8E JUMP JUMPDEST DUP1 PUSH1 0x1F ADD PUSH1 0x20 DUP1 SWAP2 DIV MUL PUSH1 0x20 ADD PUSH1 0x40 MLOAD SWAP1 DUP2 ADD PUSH1 0x40 MSTORE DUP1 SWAP3 SWAP2 SWAP1 DUP2 DUP2 MSTORE PUSH1 0x20 ADD DUP3 DUP1 SLOAD PUSH2 0x36D SWAP1 PUSH2 0xF8E JUMP JUMPDEST DUP1 ISZERO PUSH2 0x3BA JUMPI DUP1 PUSH1 0x1F LT PUSH2 0x38F JUMPI PUSH2 0x100 DUP1 DUP4 SLOAD DIV MUL DUP4 MSTORE SWAP2 PUSH1 0x20 ADD SWAP2 PUSH2 0x3BA JUMP JUMPDEST DUP3 ADD SWAP2 SWAP1 PUSH1 0x0 MSTORE PUSH1 0x20 PUSH1 0x0 KECCAK256 SWAP1 JUMPDEST DUP2 SLOAD DUP2 MSTORE SWAP1 PUSH1 0x1 ADD SWAP1 PUSH1 0x20 ADD DUP1 DUP4 GT PUSH2 0x39D JUMPI DUP3 SWAP1 SUB PUSH1 0x1F AND DUP3 ADD SWAP2 JUMPDEST POP POP POP POP POP SWAP1 DUP1 PUSH1 0x1 ADD DUP1 SLOAD PUSH2 0x3CF SWAP1 PUSH2 0xF8E JUMP JUMPDEST DUP1 PUSH1 0x1F ADD PUSH1 0x20 DUP1 SWAP2 DIV MUL PUSH1 0x20 ADD PUSH1 0x40 MLOAD SWAP1 DUP2 ADD PUSH1 0x40 MSTORE DUP1 SWAP3 SWAP2 SWAP1 DUP2 DUP2 MSTORE PUSH1 0x20 ADD DUP3 DUP1 SLOAD PUSH2 0x3FB SWAP1 PUSH2 0xF8E JUMP JUMPDEST DUP1 ISZERO PUSH2 0x448 JUMPI DUP1 PUSH1 0x1F LT PUSH2 0x41D JUMPI PUSH2 0x100 DUP1 DUP4 SLOAD DIV MUL DUP4 MSTORE SWAP2 PUSH1 0x20 ADD SWAP2 PUSH2 0x448 JUMP JUMPDEST DUP3 ADD SWAP2 SWAP1 PUSH1 0x0 MSTORE PUSH1 0x20 PUSH1 0x0 KECCAK256 SWAP1 JUMPDEST DUP2 SLOAD DUP2 MSTORE SWAP1 PUSH1 0x1 ADD SWAP1 PUSH1 0x20 ADD DUP1 DUP4 GT PUSH2 0x42B JUMPI DUP3 SWAP1 SUB PUSH1 0x1F AND DUP3 ADD SWAP2 JUMPDEST POP POP POP POP POP SWAP1 DUP1 PUSH1 0x2 ADD PUSH1 0x0 SWAP1 SLOAD SWAP1 PUSH2 0x100 EXP SWAP1 DIV PUSH1 0xFF AND SWAP1 POP DUP4 JUMP JUMPDEST PUSH1 0x0 DUP1 CALLER PUSH20 0xFFFFFFFFFFFFFFFFFFFFFFFFFFFFFFFFFFFFFFFF AND PUSH20 0xFFFFFFFFFFFFFFFFFFFFFFFFFFFFFFFFFFFFFFFF AND DUP2 MSTORE PUSH1 0x20 ADD SWAP1 DUP2 MSTORE PUSH1 0x20 ADD PUSH1 0x0 KECCAK256 DUP1 SLOAD SWAP1 POP DUP2 LT PUSH2 0x4E8 JUMPI PUSH1 0x40 MLOAD PUSH32 0x8C379A000000000000000000000000000000000000000000000000000000000 DUP2 MSTORE PUSH1 0x4 ADD PUSH2 0x4DF SWAP1 PUSH2 0x1031 JUMP JUMPDEST PUSH1 0x40 MLOAD DUP1 SWAP2 SUB SWAP1 REVERT JUMPDEST PUSH1 0x0 DUP1 CALLER PUSH20 0xFFFFFFFFFFFFFFFFFFFFFFFFFFFFFFFFFFFFFFFF AND PUSH20 0xFFFFFFFFFFFFFFFFFFFFFFFFFFFFFFFFFFFFFFFF AND DUP2 MSTORE PUSH1 0x20 ADD SWAP1 DUP2 MSTORE PUSH1 0x20 ADD PUSH1 0x0 KECCAK256 DUP2 DUP2 SLOAD DUP2 LT PUSH2 0x538 JUMPI PUSH2 0x537 PUSH2 0x1051 JUMP JUMPDEST JUMPDEST SWAP1 PUSH1 0x0 MSTORE PUSH1 0x20 PUSH1 0x0 KECCAK256 SWAP1 PUSH1 0x3 MUL ADD PUSH1 0x2 ADD PUSH1 0x0 SWAP1 SLOAD SWAP1 PUSH2 0x100 EXP SWAP1 DIV PUSH1 0xFF AND ISZERO PUSH1 0x0 DUP1 CALLER PUSH20 0xFFFFFFFFFFFFFFFFFFFFFFFFFFFFFFFFFFFFFFFF AND PUSH20 0xFFFFFFFFFFFFFFFFFFFFFFFFFFFFFFFFFFFFFFFF AND DUP2 MSTORE PUSH1 0x20 ADD SWAP1 DUP2 MSTORE PUSH1 0x20 ADD PUSH1 0x0 KECCAK256 DUP3 DUP2 SLOAD DUP2 LT PUSH2 0x5A8 JUMPI PUSH2 0x5A7 PUSH2 0x1051 JUMP JUMPDEST JUMPDEST SWAP1 PUSH1 0x0 MSTORE PUSH1 0x20 PUSH1 0x0 KECCAK256 SWAP1 PUSH1 0x3 MUL ADD PUSH1 0x2 ADD PUSH1 0x0 PUSH2 0x100 EXP DUP2 SLOAD DUP2 PUSH1 0xFF MUL NOT AND SWAP1 DUP4 ISZERO ISZERO MUL OR SWAP1 SSTORE POP POP JUMP JUMPDEST PUSH1 0x0 DUP1 CALLER PUSH20 0xFFFFFFFFFFFFFFFFFFFFFFFFFFFFFFFFFFFFFFFF AND PUSH20 0xFFFFFFFFFFFFFFFFFFFFFFFFFFFFFFFFFFFFFFFF AND DUP2 MSTORE PUSH1 0x20 ADD SWAP1 DUP2 MSTORE PUSH1 0x20 ADD PUSH1 0x0 KECCAK256 DUP1 SLOAD SWAP1 POP DUP2 LT PUSH2 0x656 JUMPI PUSH1 0x40 MLOAD PUSH32 0x8C379A000000000000000000000000000000000000000000000000000000000 DUP2 MSTORE PUSH1 0x4 ADD PUSH2 0x64D SWAP1 PUSH2 0x1031 JUMP JUMPDEST PUSH1 0x40 MLOAD DUP1 SWAP2 SUB SWAP1 REVERT JUMPDEST PUSH1 0x0 DUP1 CALLER PUSH20 0xFFFFFFFFFFFFFFFFFFFFFFFFFFFFFFFFFFFFFFFF AND PUSH20 0xFFFFFFFFFFFFFFFFFFFFFFFFFFFFFFFFFFFFFFFF AND DUP2 MSTORE PUSH1 0x20 ADD SWAP1 DUP2 MSTORE PUSH1 0x20 ADD PUSH1 0x0 KECCAK256 DUP2 DUP2 SLOAD DUP2 LT PUSH2 0x6A6 JUMPI PUSH2 0x6A5 PUSH2 0x1051 JUMP JUMPDEST JUMPDEST SWAP1 PUSH1 0x0 MSTORE PUSH1 0x20 PUSH1 0x0 KECCAK256 SWAP1 PUSH1 0x3 MUL ADD PUSH1 0x0 DUP1 DUP3 ADD PUSH1 0x0 PUSH2 0x6C5 SWAP2 SWAP1 PUSH2 0x931 JUMP JUMPDEST PUSH1 0x1 DUP3 ADD PUSH1 0x0 PUSH2 0x6D5 SWAP2 SWAP1 PUSH2 0x931 JUMP JUMPDEST PUSH1 0x2 DUP3 ADD PUSH1 0x0 PUSH2 0x100 EXP DUP2 SLOAD SWAP1 PUSH1 0xFF MUL NOT AND SWAP1 SSTORE POP POP POP JUMP JUMPDEST PUSH1 0x0 DUP1 CALLER PUSH20 0xFFFFFFFFFFFFFFFFFFFFFFFFFFFFFFFFFFFFFFFF AND PUSH20 0xFFFFFFFFFFFFFFFFFFFFFFFFFFFFFFFFFFFFFFFF AND DUP2 MSTORE PUSH1 0x20 ADD SWAP1 DUP2 MSTORE PUSH1 0x20 ADD PUSH1 0x0 KECCAK256 DUP1 SLOAD SWAP1 POP DUP4 LT PUSH2 0x771 JUMPI PUSH1 0x40 MLOAD PUSH32 0x8C379A000000000000000000000000000000000000000000000000000000000 DUP2 MSTORE PUSH1 0x4 ADD PUSH2 0x768 SWAP1 PUSH2 0x1031 JUMP JUMPDEST PUSH1 0x40 MLOAD DUP1 SWAP2 SUB SWAP1 REVERT JUMPDEST DUP2 PUSH1 0x0 DUP1 CALLER PUSH20 0xFFFFFFFFFFFFFFFFFFFFFFFFFFFFFFFFFFFFFFFF AND PUSH20 0xFFFFFFFFFFFFFFFFFFFFFFFFFFFFFFFFFFFFFFFF AND DUP2 MSTORE PUSH1 0x20 ADD SWAP1 DUP2 MSTORE PUSH1 0x20 ADD PUSH1 0x0 KECCAK256 DUP5 DUP2 SLOAD DUP2 LT PUSH2 0x7C2 JUMPI PUSH2 0x7C1 PUSH2 0x1051 JUMP JUMPDEST JUMPDEST SWAP1 PUSH1 0x0 MSTORE PUSH1 0x20 PUSH1 0x0 KECCAK256 SWAP1 PUSH1 0x3 MUL ADD PUSH1 0x0 ADD SWAP1 DUP2 PUSH2 0x7DF SWAP2 SWAP1 PUSH2 0x122C JUMP JUMPDEST POP DUP1 PUSH1 0x0 DUP1 CALLER PUSH20 0xFFFFFFFFFFFFFFFFFFFFFFFFFFFFFFFFFFFFFFFF AND PUSH20 0xFFFFFFFFFFFFFFFFFFFFFFFFFFFFFFFFFFFFFFFF AND DUP2 MSTORE PUSH1 0x20 ADD SWAP1 DUP2 MSTORE PUSH1 0x20 ADD PUSH1 0x0 KECCAK256 DUP5 DUP2 SLOAD DUP2 LT PUSH2 0x831 JUMPI PUSH2 0x830 PUSH2 0x1051 JUMP JUMPDEST JUMPDEST SWAP1 PUSH1 0x0 MSTORE PUSH1 0x20 PUSH1 0x0 KECCAK256 SWAP1 PUSH1 0x3 MUL ADD PUSH1 0x1 ADD SWAP1 DUP2 PUSH2 0x84E SWAP2 SWAP1 PUSH2 0x122C JUMP JUMPDEST POP POP POP POP JUMP JUMPDEST PUSH1 0x0 PUSH1 0x40 MLOAD DUP1 PUSH1 0x60 ADD PUSH1 0x40 MSTORE DUP1 DUP5 DUP2 MSTORE PUSH1 0x20 ADD DUP4 DUP2 MSTORE PUSH1 0x20 ADD PUSH1 0x0 ISZERO ISZERO DUP2 MSTORE POP SWAP1 POP PUSH1 0x0 DUP1 CALLER PUSH20 0xFFFFFFFFFFFFFFFFFFFFFFFFFFFFFFFFFFFFFFFF AND PUSH20 0xFFFFFFFFFFFFFFFFFFFFFFFFFFFFFFFFFFFFFFFF AND DUP2 MSTORE PUSH1 0x20 ADD SWAP1 DUP2 MSTORE PUSH1 0x20 ADD PUSH1 0x0 KECCAK256 DUP2 SWAP1 DUP1 PUSH1 0x1 DUP2 SLOAD ADD DUP1 DUP3 SSTORE DUP1 SWAP2 POP POP PUSH1 0x1 SWAP1 SUB SWAP1 PUSH1 0x0 MSTORE PUSH1 0x20 PUSH1 0x0 KECCAK256 SWAP1 PUSH1 0x3 MUL ADD PUSH1 0x0 SWAP1 SWAP2 SWAP1 SWAP2 SWAP1 SWAP2 POP PUSH1 0x0 DUP3 ADD MLOAD DUP2 PUSH1 0x0 ADD SWAP1 DUP2 PUSH2 0x8F3 SWAP2 SWAP1 PUSH2 0x122C JUMP JUMPDEST POP PUSH1 0x20 DUP3 ADD MLOAD DUP2 PUSH1 0x1 ADD SWAP1 DUP2 PUSH2 0x909 SWAP2 SWAP1 PUSH2 0x122C JUMP JUMPDEST POP PUSH1 0x40 DUP3 ADD MLOAD DUP2 PUSH1 0x2 ADD PUSH1 0x0 PUSH2 0x100 EXP DUP2 SLOAD DUP2 PUSH1 0xFF MUL NOT AND SWAP1 DUP4 ISZERO ISZERO MUL OR SWAP1 SSTORE POP POP POP POP POP POP JUMP JUMPDEST POP DUP1 SLOAD PUSH2 0x93D SWAP1 PUSH2 0xF8E JUMP JUMPDEST PUSH1 0x0 DUP3 SSTORE DUP1 PUSH1 0x1F LT PUSH2 0x94F JUMPI POP PUSH2 0x96E JUMP JUMPDEST PUSH1 0x1F ADD PUSH1 0x20 SWAP1 DIV SWAP1 PUSH1 0x0 MSTORE PUSH1 0x20 PUSH1 0x0 KECCAK256 SWAP1 DUP2 ADD SWAP1 PUSH2 0x96D SWAP2 SWAP1 PUSH2 0x971 JUMP JUMPDEST JUMPDEST POP JUMP JUMPDEST JUMPDEST DUP1 DUP3 GT ISZERO PUSH2 0x98A JUMPI PUSH1 0x0 DUP2 PUSH1 0x0 SWAP1 SSTORE POP PUSH1 0x1 ADD PUSH2 0x972 JUMP JUMPDEST POP SWAP1 JUMP JUMPDEST PUSH1 0x0 DUP2 MLOAD SWAP1 POP SWAP2 SWAP1 POP JUMP JUMPDEST PUSH1 0x0 DUP3 DUP3 MSTORE PUSH1 0x20 DUP3 ADD SWAP1 POP SWAP3 SWAP2 POP POP JUMP JUMPDEST PUSH1 0x0 DUP2 SWAP1 POP PUSH1 0x20 DUP3 ADD SWAP1 POP SWAP2 SWAP1 POP JUMP JUMPDEST PUSH1 0x0 DUP2 MLOAD SWAP1 POP SWAP2 SWAP1 POP JUMP JUMPDEST PUSH1 0x0 DUP3 DUP3 MSTORE PUSH1 0x20 DUP3 ADD SWAP1 POP SWAP3 SWAP2 POP POP JUMP JUMPDEST PUSH1 0x0 JUMPDEST DUP4 DUP2 LT ISZERO PUSH2 0x9F4 JUMPI DUP1 DUP3 ADD MLOAD DUP2 DUP5 ADD MSTORE PUSH1 0x20 DUP2 ADD SWAP1 POP PUSH2 0x9D9 JUMP JUMPDEST PUSH1 0x0 DUP5 DUP5 ADD MSTORE POP POP POP POP JUMP JUMPDEST PUSH1 0x0 PUSH1 0x1F NOT PUSH1 0x1F DUP4 ADD AND SWAP1 POP SWAP2 SWAP1 POP JUMP JUMPDEST PUSH1 0x0 PUSH2 0xA1C DUP3 PUSH2 0x9BA JUMP JUMPDEST PUSH2 0xA26 DUP2 DUP6 PUSH2 0x9C5 JUMP JUMPDEST SWAP4 POP PUSH2 0xA36 DUP2 DUP6 PUSH1 0x20 DUP7 ADD PUSH2 0x9D6 JUMP JUMPDEST PUSH2 0xA3F DUP2 PUSH2 0xA00 JUMP JUMPDEST DUP5 ADD SWAP2 POP POP SWAP3 SWAP2 POP POP JUMP JUMPDEST PUSH1 0x0 DUP2 ISZERO ISZERO SWAP1 POP SWAP2 SWAP1 POP JUMP JUMPDEST PUSH2 0xA5F DUP2 PUSH2 0xA4A JUMP JUMPDEST DUP3 MSTORE POP POP JUMP JUMPDEST PUSH1 0x0 PUSH1 0x60 DUP4 ADD PUSH1 0x0 DUP4 ADD MLOAD DUP5 DUP3 SUB PUSH1 0x0 DUP7 ADD MSTORE PUSH2 0xA82 DUP3 DUP3 PUSH2 0xA11 JUMP JUMPDEST SWAP2 POP POP PUSH1 0x20 DUP4 ADD MLOAD DUP5 DUP3 SUB PUSH1 0x20 DUP7 ADD MSTORE PUSH2 0xA9C DUP3 DUP3 PUSH2 0xA11 JUMP JUMPDEST SWAP2 POP POP PUSH1 0x40 DUP4 ADD MLOAD PUSH2 0xAB1 PUSH1 0x40 DUP7 ADD DUP3 PUSH2 0xA56 JUMP JUMPDEST POP DUP1 SWAP2 POP POP SWAP3 SWAP2 POP POP JUMP JUMPDEST PUSH1 0x0 PUSH2 0xAC8 DUP4 DUP4 PUSH2 0xA65 JUMP JUMPDEST SWAP1 POP SWAP3 SWAP2 POP POP JUMP JUMPDEST PUSH1 0x0 PUSH1 0x20 DUP3 ADD SWAP1 POP SWAP2 SWAP1 POP JUMP JUMPDEST PUSH1 0x0 PUSH2 0xAE8 DUP3 PUSH2 0x98E JUMP JUMPDEST PUSH2 0xAF2 DUP2 DUP6 PUSH2 0x999 JUMP JUMPDEST SWAP4 POP DUP4 PUSH1 0x20 DUP3 MUL DUP6 ADD PUSH2 0xB04 DUP6 PUSH2 0x9AA JUMP JUMPDEST DUP1 PUSH1 0x0 JUMPDEST DUP6 DUP2 LT ISZERO PUSH2 0xB40 JUMPI DUP5 DUP5 SUB DUP10 MSTORE DUP2 MLOAD PUSH2 0xB21 DUP6 DUP3 PUSH2 0xABC JUMP JUMPDEST SWAP5 POP PUSH2 0xB2C DUP4 PUSH2 0xAD0 JUMP JUMPDEST SWAP3 POP PUSH1 0x20 DUP11 ADD SWAP10 POP POP PUSH1 0x1 DUP2 ADD SWAP1 POP PUSH2 0xB08 JUMP JUMPDEST POP DUP3 SWAP8 POP DUP8 SWAP6 POP POP POP POP POP POP SWAP3 SWAP2 POP POP JUMP JUMPDEST PUSH1 0x0 PUSH1 0x20 DUP3 ADD SWAP1 POP DUP2 DUP2 SUB PUSH1 0x0 DUP4 ADD MSTORE PUSH2 0xB6C DUP2 DUP5 PUSH2 0xADD JUMP JUMPDEST SWAP1 POP SWAP3 SWAP2 POP POP JUMP JUMPDEST PUSH1 0x0 PUSH1 0x40 MLOAD SWAP1 POP SWAP1 JUMP JUMPDEST PUSH1 0x0 DUP1 REVERT JUMPDEST PUSH1 0x0 DUP1 REVERT JUMPDEST PUSH1 0x0 PUSH20 0xFFFFFFFFFFFFFFFFFFFFFFFFFFFFFFFFFFFFFFFF DUP3 AND SWAP1 POP SWAP2 SWAP1 POP JUMP JUMPDEST PUSH1 0x0 PUSH2 0xBB3 DUP3 PUSH2 0xB88 JUMP JUMPDEST SWAP1 POP SWAP2 SWAP1 POP JUMP JUMPDEST PUSH2 0xBC3 DUP2 PUSH2 0xBA8 JUMP JUMPDEST DUP2 EQ PUSH2 0xBCE JUMPI PUSH1 0x0 DUP1 REVERT JUMPDEST POP JUMP JUMPDEST PUSH1 0x0 DUP2 CALLDATALOAD SWAP1 POP PUSH2 0xBE0 DUP2 PUSH2 0xBBA JUMP JUMPDEST SWAP3 SWAP2 POP POP JUMP JUMPDEST PUSH1 0x0 DUP2 SWAP1 POP SWAP2 SWAP1 POP JUMP JUMPDEST PUSH2 0xBF9 DUP2 PUSH2 0xBE6 JUMP JUMPDEST DUP2 EQ PUSH2 0xC04 JUMPI PUSH1 0x0 DUP1 REVERT JUMPDEST POP JUMP JUMPDEST PUSH1 0x0 DUP2 CALLDATALOAD SWAP1 POP PUSH2 0xC16 DUP2 PUSH2 0xBF0 JUMP JUMPDEST SWAP3 SWAP2 POP POP JUMP JUMPDEST PUSH1 0x0 DUP1 PUSH1 0x40 DUP4 DUP6 SUB SLT ISZERO PUSH2 0xC33 JUMPI PUSH2 0xC32 PUSH2 0xB7E JUMP JUMPDEST JUMPDEST PUSH1 0x0 PUSH2 0xC41 DUP6 DUP3 DUP7 ADD PUSH2 0xBD1 JUMP JUMPDEST SWAP3 POP POP PUSH1 0x20 PUSH2 0xC52 DUP6 DUP3 DUP7 ADD PUSH2 0xC07 JUMP JUMPDEST SWAP2 POP POP SWAP3 POP SWAP3 SWAP1 POP JUMP JUMPDEST PUSH1 0x0 DUP3 DUP3 MSTORE PUSH1 0x20 DUP3 ADD SWAP1 POP SWAP3 SWAP2 POP POP JUMP JUMPDEST PUSH1 0x0 PUSH2 0xC78 DUP3 PUSH2 0x9BA JUMP JUMPDEST PUSH2 0xC82 DUP2 DUP6 PUSH2 0xC5C JUMP JUMPDEST SWAP4 POP PUSH2 0xC92 DUP2 DUP6 PUSH1 0x20 DUP7 ADD PUSH2 0x9D6 JUMP JUMPDEST PUSH2 0xC9B DUP2 PUSH2 0xA00 JUMP JUMPDEST DUP5 ADD SWAP2 POP POP SWAP3 SWAP2 POP POP JUMP JUMPDEST PUSH2 0xCAF DUP2 PUSH2 0xA4A JUMP JUMPDEST DUP3 MSTORE POP POP JUMP JUMPDEST PUSH1 0x0 PUSH1 0x60 DUP3 ADD SWAP1 POP DUP2 DUP2 SUB PUSH1 0x0 DUP4 ADD MSTORE PUSH2 0xCCF DUP2 DUP7 PUSH2 0xC6D JUMP JUMPDEST SWAP1 POP DUP2 DUP2 SUB PUSH1 0x20 DUP4 ADD MSTORE PUSH2 0xCE3 DUP2 DUP6 PUSH2 0xC6D JUMP JUMPDEST SWAP1 POP PUSH2 0xCF2 PUSH1 0x40 DUP4 ADD DUP5 PUSH2 0xCA6 JUMP JUMPDEST SWAP5 SWAP4 POP POP POP POP JUMP JUMPDEST PUSH1 0x0 PUSH1 0x20 DUP3 DUP5 SUB SLT ISZERO PUSH2 0xD10 JUMPI PUSH2 0xD0F PUSH2 0xB7E JUMP JUMPDEST JUMPDEST PUSH1 0x0 PUSH2 0xD1E DUP5 DUP3 DUP6 ADD PUSH2 0xC07 JUMP JUMPDEST SWAP2 POP POP SWAP3 SWAP2 POP POP JUMP JUMPDEST PUSH1 0x0 DUP1 REVERT JUMPDEST PUSH1 0x0 DUP1 REVERT JUMPDEST PUSH32 0x4E487B7100000000000000000000000000000000000000000000000000000000 PUSH1 0x0 MSTORE PUSH1 0x41 PUSH1 0x4 MSTORE PUSH1 0x24 PUSH1 0x0 REVERT JUMPDEST PUSH2 0xD69 DUP3 PUSH2 0xA00 JUMP JUMPDEST DUP2 ADD DUP2 DUP2 LT PUSH8 0xFFFFFFFFFFFFFFFF DUP3 GT OR ISZERO PUSH2 0xD88 JUMPI PUSH2 0xD87 PUSH2 0xD31 JUMP JUMPDEST JUMPDEST DUP1 PUSH1 0x40 MSTORE POP POP POP JUMP JUMPDEST PUSH1 0x0 PUSH2 0xD9B PUSH2 0xB74 JUMP JUMPDEST SWAP1 POP PUSH2 0xDA7 DUP3 DUP3 PUSH2 0xD60 JUMP JUMPDEST SWAP2 SWAP1 POP JUMP JUMPDEST PUSH1 0x0 PUSH8 0xFFFFFFFFFFFFFFFF DUP3 GT ISZERO PUSH2 0xDC7 JUMPI PUSH2 0xDC6 PUSH2 0xD31 JUMP JUMPDEST JUMPDEST PUSH2 0xDD0 DUP3 PUSH2 0xA00 JUMP JUMPDEST SWAP1 POP PUSH1 0x20 DUP2 ADD SWAP1 POP SWAP2 SWAP1 POP JUMP JUMPDEST DUP3 DUP2 DUP4 CALLDATACOPY PUSH1 0x0 DUP4 DUP4 ADD MSTORE POP POP POP JUMP JUMPDEST PUSH1 0x0 PUSH2 0xDFF PUSH2 0xDFA DUP5 PUSH2 0xDAC JUMP JUMPDEST PUSH2 0xD91 JUMP JUMPDEST SWAP1 POP DUP3 DUP2 MSTORE PUSH1 0x20 DUP2 ADD DUP5 DUP5 DUP5 ADD GT ISZERO PUSH2 0xE1B JUMPI PUSH2 0xE1A PUSH2 0xD2C JUMP JUMPDEST JUMPDEST PUSH2 0xE26 DUP5 DUP3 DUP6 PUSH2 0xDDD JUMP JUMPDEST POP SWAP4 SWAP3 POP POP POP JUMP JUMPDEST PUSH1 0x0 DUP3 PUSH1 0x1F DUP4 ADD SLT PUSH2 0xE43 JUMPI PUSH2 0xE42 PUSH2 0xD27 JUMP JUMPDEST JUMPDEST DUP2 CALLDATALOAD PUSH2 0xE53 DUP5 DUP3 PUSH1 0x20 DUP7 ADD PUSH2 0xDEC JUMP JUMPDEST SWAP2 POP POP SWAP3 SWAP2 POP POP JUMP JUMPDEST PUSH1 0x0 DUP1 PUSH1 0x0 PUSH1 0x60 DUP5 DUP7 SUB SLT ISZERO PUSH2 0xE75 JUMPI PUSH2 0xE74 PUSH2 0xB7E JUMP JUMPDEST JUMPDEST PUSH1 0x0 PUSH2 0xE83 DUP7 DUP3 DUP8 ADD PUSH2 0xC07 JUMP JUMPDEST SWAP4 POP POP PUSH1 0x20 DUP5 ADD CALLDATALOAD PUSH8 0xFFFFFFFFFFFFFFFF DUP2 GT ISZERO PUSH2 0xEA4 JUMPI PUSH2 0xEA3 PUSH2 0xB83 JUMP JUMPDEST JUMPDEST PUSH2 0xEB0 DUP7 DUP3 DUP8 ADD PUSH2 0xE2E JUMP JUMPDEST SWAP3 POP POP PUSH1 0x40 DUP5 ADD CALLDATALOAD PUSH8 0xFFFFFFFFFFFFFFFF DUP2 GT ISZERO PUSH2 0xED1 JUMPI PUSH2 0xED0 PUSH2 0xB83 JUMP JUMPDEST JUMPDEST PUSH2 0xEDD DUP7 DUP3 DUP8 ADD PUSH2 0xE2E JUMP JUMPDEST SWAP2 POP POP SWAP3 POP SWAP3 POP SWAP3 JUMP JUMPDEST PUSH1 0x0 DUP1 PUSH1 0x40 DUP4 DUP6 SUB SLT ISZERO PUSH2 0xEFE JUMPI PUSH2 0xEFD PUSH2 0xB7E JUMP JUMPDEST JUMPDEST PUSH1 0x0 DUP4 ADD CALLDATALOAD PUSH8 0xFFFFFFFFFFFFFFFF DUP2 GT ISZERO PUSH2 0xF1C JUMPI PUSH2 0xF1B PUSH2 0xB83 JUMP JUMPDEST JUMPDEST PUSH2 0xF28 DUP6 DUP3 DUP7 ADD PUSH2 0xE2E JUMP JUMPDEST SWAP3 POP POP PUSH1 0x20 DUP4 ADD CALLDATALOAD PUSH8 0xFFFFFFFFFFFFFFFF DUP2 GT ISZERO PUSH2 0xF49 JUMPI PUSH2 0xF48 PUSH2 0xB83 JUMP JUMPDEST JUMPDEST PUSH2 0xF55 DUP6 DUP3 DUP7 ADD PUSH2 0xE2E JUMP JUMPDEST SWAP2 POP POP SWAP3 POP SWAP3 SWAP1 POP JUMP JUMPDEST PUSH32 0x4E487B7100000000000000000000000000000000000000000000000000000000 PUSH1 0x0 MSTORE PUSH1 0x22 PUSH1 0x4 MSTORE PUSH1 0x24 PUSH1 0x0 REVERT JUMPDEST PUSH1 0x0 PUSH1 0x2 DUP3 DIV SWAP1 POP PUSH1 0x1 DUP3 AND DUP1 PUSH2 0xFA6 JUMPI PUSH1 0x7F DUP3 AND SWAP2 POP JUMPDEST PUSH1 0x20 DUP3 LT DUP2 SUB PUSH2 0xFB9 JUMPI PUSH2 0xFB8 PUSH2 0xF5F JUMP JUMPDEST JUMPDEST POP SWAP2 SWAP1 POP JUMP JUMPDEST PUSH32 0x496E64657820697320696E76616C6964206F7220646F6573206E6F7420657869 PUSH1 0x0 DUP3 ADD MSTORE PUSH32 0x7374000000000000000000000000000000000000000000000000000000000000 PUSH1 0x20 DUP3 ADD MSTORE POP JUMP JUMPDEST PUSH1 0x0 PUSH2 0x101B PUSH1 0x22 DUP4 PUSH2 0xC5C JUMP JUMPDEST SWAP2 POP PUSH2 0x1026 DUP3 PUSH2 0xFBF JUMP JUMPDEST PUSH1 0x40 DUP3 ADD SWAP1 POP SWAP2 SWAP1 POP JUMP JUMPDEST PUSH1 0x0 PUSH1 0x20 DUP3 ADD SWAP1 POP DUP2 DUP2 SUB PUSH1 0x0 DUP4 ADD MSTORE PUSH2 0x104A DUP2 PUSH2 0x100E JUMP JUMPDEST SWAP1 POP SWAP2 SWAP1 POP JUMP JUMPDEST PUSH32 0x4E487B7100000000000000000000000000000000000000000000000000000000 PUSH1 0x0 MSTORE PUSH1 0x32 PUSH1 0x4 MSTORE PUSH1 0x24 PUSH1 0x0 REVERT JUMPDEST PUSH1 0x0 DUP2 SWAP1 POP DUP2 PUSH1 0x0 MSTORE PUSH1 0x20 PUSH1 0x0 KECCAK256 SWAP1 POP SWAP2 SWAP1 POP JUMP JUMPDEST PUSH1 0x0 PUSH1 0x20 PUSH1 0x1F DUP4 ADD DIV SWAP1 POP SWAP2 SWAP1 POP JUMP JUMPDEST PUSH1 0x0 DUP3 DUP3 SHL SWAP1 POP SWAP3 SWAP2 POP POP JUMP JUMPDEST PUSH1 0x0 PUSH1 0x8 DUP4 MUL PUSH2 0x10E2 PUSH32 0xFFFFFFFFFFFFFFFFFFFFFFFFFFFFFFFFFFFFFFFFFFFFFFFFFFFFFFFFFFFFFFFF DUP3 PUSH2 0x10A5 JUMP JUMPDEST PUSH2 0x10EC DUP7 DUP4 PUSH2 0x10A5 JUMP JUMPDEST SWAP6 POP DUP1 NOT DUP5 AND SWAP4 POP DUP1 DUP7 AND DUP5 OR SWAP3 POP POP POP SWAP4 SWAP3 POP POP POP JUMP JUMPDEST PUSH1 0x0 DUP2 SWAP1 POP SWAP2 SWAP1 POP JUMP JUMPDEST PUSH1 0x0 PUSH2 0x1129 PUSH2 0x1124 PUSH2 0x111F DUP5 PUSH2 0xBE6 JUMP JUMPDEST PUSH2 0x1104 JUMP JUMPDEST PUSH2 0xBE6 JUMP JUMPDEST SWAP1 POP SWAP2 SWAP1 POP JUMP JUMPDEST PUSH1 0x0 DUP2 SWAP1 POP SWAP2 SWAP1 POP JUMP JUMPDEST PUSH2 0x1143 DUP4 PUSH2 0x110E JUMP JUMPDEST PUSH2 0x1157 PUSH2 0x114F DUP3 PUSH2 0x1130 JUMP JUMPDEST DUP5 DUP5 SLOAD PUSH2 0x10B2 JUMP JUMPDEST DUP3 SSTORE POP POP POP POP JUMP JUMPDEST PUSH1 0x0 SWAP1 JUMP JUMPDEST PUSH2 0x116C PUSH2 0x115F JUMP JUMPDEST PUSH2 0x1177 DUP2 DUP5 DUP5 PUSH2 0x113A JUMP JUMPDEST POP POP POP JUMP JUMPDEST JUMPDEST DUP2 DUP2 LT ISZERO PUSH2 0x119B JUMPI PUSH2 0x1190 PUSH1 0x0 DUP3 PUSH2 0x1164 JUMP JUMPDEST PUSH1 0x1 DUP2 ADD SWAP1 POP PUSH2 0x117D JUMP JUMPDEST POP POP JUMP JUMPDEST PUSH1 0x1F DUP3 GT ISZERO PUSH2 0x11E0 JUMPI PUSH2 0x11B1 DUP2 PUSH2 0x1080 JUMP JUMPDEST PUSH2 0x11BA DUP5 PUSH2 0x1095 JUMP JUMPDEST DUP2 ADD PUSH1 0x20 DUP6 LT ISZERO PUSH2 0x11C9 JUMPI DUP2 SWAP1 POP JUMPDEST PUSH2 0x11DD PUSH2 0x11D5 DUP6 PUSH2 0x1095 JUMP JUMPDEST DUP4 ADD DUP3 PUSH2 0x117C JUMP JUMPDEST POP POP JUMPDEST POP POP POP JUMP JUMPDEST PUSH1 0x0 DUP3 DUP3 SHR SWAP1 POP SWAP3 SWAP2 POP POP JUMP JUMPDEST PUSH1 0x0 PUSH2 0x1203 PUSH1 0x0 NOT DUP5 PUSH1 0x8 MUL PUSH2 0x11E5 JUMP JUMPDEST NOT DUP1 DUP4 AND SWAP2 POP POP SWAP3 SWAP2 POP POP JUMP JUMPDEST PUSH1 0x0 PUSH2 0x121C DUP4 DUP4 PUSH2 0x11F2 JUMP JUMPDEST SWAP2 POP DUP3 PUSH1 0x2 MUL DUP3 OR SWAP1 POP SWAP3 SWAP2 POP POP JUMP JUMPDEST PUSH2 0x1235 DUP3 PUSH2 0x9BA JUMP JUMPDEST PUSH8 0xFFFFFFFFFFFFFFFF DUP2 GT ISZERO PUSH2 0x124E JUMPI PUSH2 0x124D PUSH2 0xD31 JUMP JUMPDEST JUMPDEST PUSH2 0x1258 DUP3 SLOAD PUSH2 0xF8E JUMP JUMPDEST PUSH2 0x1263 DUP3 DUP3 DUP6 PUSH2 0x119F JUMP JUMPDEST PUSH1 0x0 PUSH1 0x20 SWAP1 POP PUSH1 0x1F DUP4 GT PUSH1 0x1 DUP2 EQ PUSH2 0x1296 JUMPI PUSH1 0x0 DUP5 ISZERO PUSH2 0x1284 JUMPI DUP3 DUP8 ADD MLOAD SWAP1 POP JUMPDEST PUSH2 0x128E DUP6 DUP3 PUSH2 0x1210 JUMP JUMPDEST DUP7 SSTORE POP PUSH2 0x12F6 JUMP JUMPDEST PUSH1 0x1F NOT DUP5 AND PUSH2 0x12A4 DUP7 PUSH2 0x1080 JUMP JUMPDEST PUSH1 0x0 JUMPDEST DUP3 DUP2 LT ISZERO PUSH2 0x12CC JUMPI DUP5 DUP10 ADD MLOAD DUP3 SSTORE PUSH1 0x1 DUP3 ADD SWAP2 POP PUSH1 0x20 DUP6 ADD SWAP5 POP PUSH1 0x20 DUP2 ADD SWAP1 POP PUSH2 0x12A7 JUMP JUMPDEST DUP7 DUP4 LT ISZERO PUSH2 0x12E9 JUMPI DUP5 DUP10 ADD MLOAD PUSH2 0x12E5 PUSH1 0x1F DUP10 AND DUP3 PUSH2 0x11F2 JUMP JUMPDEST DUP4 SSTORE POP JUMPDEST PUSH1 0x1 PUSH1 0x2 DUP9 MUL ADD DUP9 SSTORE POP POP POP JUMPDEST POP POP POP POP POP POP JUMP INVALID LOG2 PUSH5 0x6970667358 0x22 SLT KECCAK256 0xF EXTCODESIZE MULMOD DUP14 0xC9 0xAF LOG2 LOG3 JUMPDEST 0xDE LOG0 0xFC PUSH20 0x40B24EFE73216CA7BB96555D2F7EB6A94B403764 PUSH20 0x6F6C634300081C00330000000000000000000000 "},"methodIdentifiers":{"create_todo(string,string)":"b5c90fd5","delete_todo(uint256)":"6bbdadff","get_todos()":"3865881b","todos(address,uint256)":"428c1889","toggle_todo_status(uint256)":"5a051ea2","update_todo(uint256,string,string)":"8f08bb21"}}}}}