{
  "_format": "hh-sol-artifact-1",
  "contractName": "MyToken",
  "sourceName": "contracts/YetundeToken.sol",
  "abi": [
    {
      "inputs": [
        {
          "internalType": "string",
          "name": "_name",
          "type": "string"
        },
        {
          "internalType": "string",
          "name": "_symbol",
          "type": "string"
        },
        {
          "internalType": "uint8",
          "name": "_decimals",
          "type": "uint8"
        },
        {
          "internalType": "uint256",
          "name": "_initialSupply",
          "type": "uint256"
        }
      ],
      "stateMutability": "nonpayable",
      "type": "constructor"
    },
    {
      "anonymous": false,
      "inputs": [
        {
          "indexed": true,
          "internalType": "address",
          "name": "owner",
          "type": "address"
        },
        {
          "indexed": true,
          "internalType": "address",
          "name": "spender",
          "type": "address"
        },
        {
          "indexed": false,
          "internalType": "uint256",
          "name": "value",
          "type": "uint256"
        }
      ],
      "name": "Approval",
      "type": "event"
    },
    {
      "anonymous": false,
      "inputs": [
        {
          "indexed": true,
          "internalType": "address",
          "name": "from",
          "type": "address"
        },
        {
          "indexed": true,
          "internalType": "address",
          "name": "to",
          "type": "address"
        },
        {
          "indexed": false,
          "internalType": "uint256",
          "name": "value",
          "type": "uint256"
        }
      ],
      "name": "Transfer",
      "type": "event"
    },
    {
      "inputs": [
        {
          "internalType": "address",
          "name": "owner",
          "type": "address"
        },
        {
          "internalType": "address",
          "name": "spender",
          "type": "address"
        }
      ],
      "name": "allowance",
      "outputs": [
        {
          "internalType": "uint256",
          "name": "",
          "type": "uint256"
        }
      ],
      "stateMutability": "view",
      "type": "function"
    },
    {
      "inputs": [
        {
          "internalType": "address",
          "name": "spender",
          "type": "address"
        },
        {
          "internalType": "uint256",
          "name": "amount",
          "type": "uint256"
        }
      ],
      "name": "approve",
      "outputs": [
        {
          "internalType": "bool",
          "name": "",
          "type": "bool"
        }
      ],
      "stateMutability": "nonpayable",
      "type": "function"
    },
    {
      "inputs": [
        {
          "internalType": "address",
          "name": "account",
          "type": "address"
        }
      ],
      "name": "balanceOf",
      "outputs": [
        {
          "internalType": "uint256",
          "name": "",
          "type": "uint256"
        }
      ],
      "stateMutability": "view",
      "type": "function"
    },
    {
      "inputs": [
        {
          "internalType": "uint256",
          "name": "amount",
          "type": "uint256"
        }
      ],
      "name": "burn",
      "outputs": [],
      "stateMutability": "nonpayable",
      "type": "function"
    },
    {
      "inputs": [],
      "name": "decimals",
      "outputs": [
        {
          "internalType": "uint8",
          "name": "",
          "type": "uint8"
        }
      ],
      "stateMutability": "view",
      "type": "function"
    },
    {
      "inputs": [
        {
          "internalType": "address",
          "name": "spender",
          "type": "address"
        },
        {
          "internalType": "uint256",
          "name": "subtractedValue",
          "type": "uint256"
        }
      ],
      "name": "decreaseAllowance",
      "outputs": [
        {
          "internalType": "bool",
          "name": "",
          "type": "bool"
        }
      ],
      "stateMutability": "nonpayable",
      "type": "function"
    },
    {
      "inputs": [
        {
          "internalType": "address",
          "name": "spender",
          "type": "address"
        },
        {
          "internalType": "uint256",
          "name": "addedValue",
          "type": "uint256"
        }
      ],
      "name": "increaseAllowance",
      "outputs": [
        {
          "internalType": "bool",
          "name": "",
          "type": "bool"
        }
      ],
      "stateMutability": "nonpayable",
      "type": "function"
    },
    {
      "inputs": [
        {
          "internalType": "address",
          "name": "to",
          "type": "address"
        },
        {
          "internalType": "uint256",
          "name": "amount",
          "type": "uint256"
        }
      ],
      "name": "mint",
      "outputs": [],
      "stateMutability": "nonpayable",
      "type": "function"
    },
    {
      "inputs": [],
      "name": "name",
      "outputs": [
        {
          "internalType": "string",
          "name": "",
          "type": "string"
        }
      ],
      "stateMutability": "view",
      "type": "function"
    },
    {
      "inputs": [],
      "name": "owner",
      "outputs": [
        {
          "internalType": "address",
          "name": "",
          "type": "address"
        }
      ],
      "stateMutability": "view",
      "type": "function"
    },
    {
      "inputs": [],
      "name": "symbol",
      "outputs": [
        {
          "internalType": "string",
          "name": "",
          "type": "string"
        }
      ],
      "stateMutability": "view",
      "type": "function"
    },
    {
      "inputs": [],
      "name": "totalSupply",
      "outputs": [
        {
          "internalType": "uint256",
          "name": "",
          "type": "uint256"
        }
      ],
      "stateMutability": "view",
      "type": "function"
    },
    {
      "inputs": [
        {
          "internalType": "address",
          "name": "to",
          "type": "address"
        },
        {
          "internalType": "uint256",
          "name": "amount",
          "type": "uint256"
        }
      ],
      "name": "transfer",
      "outputs": [
        {
          "internalType": "bool",
          "name": "",
          "type": "bool"
        }
      ],
      "stateMutability": "nonpayable",
      "type": "function"
    },
    {
      "inputs": [
        {
          "internalType": "address",
          "name": "from",
          "type": "address"
        },
        {
          "internalType": "address",
          "name": "to",
          "type": "address"
        },
        {
          "internalType": "uint256",
          "name": "amount",
          "type": "uint256"
        }
      ],
      "name": "transferFrom",
      "outputs": [
        {
          "internalType": "bool",
          "name": "",
          "type": "bool"
        }
      ],
      "stateMutability": "nonpayable",
      "type": "function"
    },
    {
      "inputs": [
        {
          "internalType": "address",
          "name": "newOwner",
          "type": "address"
        }
      ],
      "name": "transferOwnership",
      "outputs": [],
      "stateMutability": "nonpayable",
      "type": "function"
    }
  ],
  "bytecode": "0x608060405234801561001057600080fd5b506040516121d33803806121d383398181016040528101906100329190610366565b8360039081610041919061061c565b508260049081610051919061061c565b5081600560006101000a81548160ff021916908360ff16021790555033600560016101000a81548173ffffffffffffffffffffffffffffffffffffffff021916908373ffffffffffffffffffffffffffffffffffffffff16021790555081600a6100bb9190610850565b816100c6919061089b565b6002819055506002546000803373ffffffffffffffffffffffffffffffffffffffff1673ffffffffffffffffffffffffffffffffffffffff168152602001908152602001600020819055503373ffffffffffffffffffffffffffffffffffffffff16600073ffffffffffffffffffffffffffffffffffffffff167fddf252ad1be2c89b69c2b068fc378daa952ba7f163c4a11628f55a4df523b3ef60025460405161017191906108ec565b60405180910390a350505050610907565b6000604051905090565b600080fd5b600080fd5b600080fd5b600080fd5b6000601f19601f8301169050919050565b7f4e487b7100000000000000000000000000000000000000000000000000000000600052604160045260246000fd5b6101e9826101a0565b810181811067ffffffffffffffff82111715610208576102076101b1565b5b80604052505050565b600061021b610182565b905061022782826101e0565b919050565b600067ffffffffffffffff821115610247576102466101b1565b5b610250826101a0565b9050602081019050919050565b60005b8381101561027b578082015181840152602081019050610260565b60008484015250505050565b600061029a6102958461022c565b610211565b9050828152602081018484840111156102b6576102b561019b565b5b6102c184828561025d565b509392505050565b600082601f8301126102de576102dd610196565b5b81516102ee848260208601610287565b91505092915050565b600060ff82169050919050565b61030d816102f7565b811461031857600080fd5b50565b60008151905061032a81610304565b92915050565b6000819050919050565b61034381610330565b811461034e57600080fd5b50565b6000815190506103608161033a565b92915050565b600080600080608085870312156103805761037f61018c565b5b600085015167ffffffffffffffff81111561039e5761039d610191565b5b6103aa878288016102c9565b945050602085015167ffffffffffffffff8111156103cb576103ca610191565b5b6103d7878288016102c9565b93505060406103e88782880161031b565b92505060606103f987828801610351565b91505092959194509250565b600081519050919050565b7f4e487b7100000000000000000000000000000000000000000000000000000000600052602260045260246000fd5b6000600282049050600182168061045757607f821691505b60208210810361046a57610469610410565b5b50919050565b60008190508160005260206000209050919050565b60006020601f8301049050919050565b600082821b905092915050565b6000600883026104d27fffffffffffffffffffffffffffffffffffffffffffffffffffffffffffffffff82610495565b6104dc8683610495565b95508019841693508086168417925050509392505050565b6000819050919050565b600061051961051461050f84610330565b6104f4565b610330565b9050919050565b6000819050919050565b610533836104fe565b61054761053f82610520565b8484546104a2565b825550505050565b600090565b61055c61054f565b61056781848461052a565b505050565b5b8181101561058b57610580600082610554565b60018101905061056d565b5050565b601f8211156105d0576105a181610470565b6105aa84610485565b810160208510156105b9578190505b6105cd6105c585610485565b83018261056c565b50505b505050565b600082821c905092915050565b60006105f3600019846008026105d5565b1980831691505092915050565b600061060c83836105e2565b9150826002028217905092915050565b61062582610405565b67ffffffffffffffff81111561063e5761063d6101b1565b5b610648825461043f565b61065382828561058f565b600060209050601f8311600181146106865760008415610674578287015190505b61067e8582610600565b8655506106e6565b601f19841661069486610470565b60005b828110156106bc57848901518255600182019150602085019450602081019050610697565b868310156106d957848901516106d5601f8916826105e2565b8355505b6001600288020188555050505b505050505050565b7f4e487b7100000000000000000000000000000000000000000000000000000000600052601160045260246000fd5b60008160011c9050919050565b6000808291508390505b6001851115610774578086048111156107505761074f6106ee565b5b600185161561075f5780820291505b808102905061076d8561071d565b9450610734565b94509492505050565b60008261078d5760019050610849565b8161079b5760009050610849565b81600181146107b157600281146107bb576107ea565b6001915050610849565b60ff8411156107cd576107cc6106ee565b5b8360020a9150848211156107e4576107e36106ee565b5b50610849565b5060208310610133831016604e8410600b841016171561081f5782820a90508381111561081a576108196106ee565b5b610849565b61082c848484600161072a565b92509050818404811115610843576108426106ee565b5b81810290505b9392505050565b600061085b82610330565b9150610866836102f7565b92506108937fffffffffffffffffffffffffffffffffffffffffffffffffffffffffffffffff848461077d565b905092915050565b60006108a682610330565b91506108b183610330565b92508282026108bf81610330565b915082820484148315176108d6576108d56106ee565b5b5092915050565b6108e681610330565b82525050565b600060208201905061090160008301846108dd565b92915050565b6118bd806109166000396000f3fe608060405234801561001057600080fd5b50600436106100f55760003560e01c806342966c6811610097578063a457c2d711610066578063a457c2d714610288578063a9059cbb146102b8578063dd62ed3e146102e8578063f2fde38b14610318576100f5565b806342966c681461020057806370a082311461021c5780638da5cb5b1461024c57806395d89b411461026a576100f5565b806323b872dd116100d357806323b872dd14610166578063313ce5671461019657806339509351146101b457806340c10f19146101e4576100f5565b806306fdde03146100fa578063095ea7b31461011857806318160ddd14610148575b600080fd5b610102610334565b60405161010f9190611043565b60405180910390f35b610132600480360381019061012d91906110fe565b6103c2565b60405161013f9190611159565b60405180910390f35b6101506103de565b60405161015d9190611183565b60405180910390f35b610180600480360381019061017b919061119e565b6103e8565b60405161018d9190611159565b60405180910390f35b61019e610410565b6040516101ab919061120d565b60405180910390f35b6101ce60048036038101906101c991906110fe565b610423565b6040516101db9190611159565b60405180910390f35b6101fe60048036038101906101f991906110fe565b610453565b005b61021a60048036038101906102159190611228565b61062a565b005b61023660048036038101906102319190611255565b610788565b6040516102439190611183565b60405180910390f35b6102546107d0565b6040516102619190611291565b60405180910390f35b6102726107f6565b60405161027f9190611043565b60405180910390f35b6102a2600480360381019061029d91906110fe565b610884565b6040516102af9190611159565b60405180910390f35b6102d260048036038101906102cd91906110fe565b6108fd565b6040516102df9190611159565b60405180910390f35b61030260048036038101906102fd91906112ac565b610919565b60405161030f9190611183565b60405180910390f35b610332600480360381019061032d9190611255565b6109a0565b005b600380546103419061131b565b80601f016020809104026020016040519081016040528092919081815260200182805461036d9061131b565b80156103ba5780601f1061038f576101008083540402835291602001916103ba565b820191906000526020600020905b81548152906001019060200180831161039d57829003601f168201915b505050505081565b6000803390506103d3818585610ae3565b600191505092915050565b6000600254905090565b6000803390506103f9858285610cac565b610404858585610d41565b60019150509392505050565b600560009054906101000a900460ff1681565b6000803390506104488185856104398589610919565b610443919061137b565b610ae3565b600191505092915050565b600560019054906101000a900473ffffffffffffffffffffffffffffffffffffffff1673ffffffffffffffffffffffffffffffffffffffff163373ffffffffffffffffffffffffffffffffffffffff16146104e3576040517f08c379a00000000000000000000000000000000000000000000000000000000081526004016104da906113fb565b60405180910390fd5b600073ffffffffffffffffffffffffffffffffffffffff168273ffffffffffffffffffffffffffffffffffffffff1603610552576040517f08c379a000000000000000000000000000000000000000000000000000000000815260040161054990611467565b60405180910390fd5b8060026000828254610564919061137b565b92505081905550806000808473ffffffffffffffffffffffffffffffffffffffff1673ffffffffffffffffffffffffffffffffffffffff16815260200190815260200160002060008282546105b9919061137b565b925050819055508173ffffffffffffffffffffffffffffffffffffffff16600073ffffffffffffffffffffffffffffffffffffffff167fddf252ad1be2c89b69c2b068fc378daa952ba7f163c4a11628f55a4df523b3ef8360405161061e9190611183565b60405180910390a35050565b6000339050816000808373ffffffffffffffffffffffffffffffffffffffff1673ffffffffffffffffffffffffffffffffffffffff1681526020019081526020016000205410156106b0576040517f08c379a00000000000000000000000000000000000000000000000000000000081526004016106a7906114d3565b60405180910390fd5b816000808373ffffffffffffffffffffffffffffffffffffffff1673ffffffffffffffffffffffffffffffffffffffff16815260200190815260200160002060008282546106fe91906114f3565b92505081905550816002600082825461071791906114f3565b92505081905550600073ffffffffffffffffffffffffffffffffffffffff168173ffffffffffffffffffffffffffffffffffffffff167fddf252ad1be2c89b69c2b068fc378daa952ba7f163c4a11628f55a4df523b3ef8460405161077c9190611183565b60405180910390a35050565b60008060008373ffffffffffffffffffffffffffffffffffffffff1673ffffffffffffffffffffffffffffffffffffffff168152602001908152602001600020549050919050565b600560019054906101000a900473ffffffffffffffffffffffffffffffffffffffff1681565b600480546108039061131b565b80601f016020809104026020016040519081016040528092919081815260200182805461082f9061131b565b801561087c5780601f106108515761010080835404028352916020019161087c565b820191906000526020600020905b81548152906001019060200180831161085f57829003601f168201915b505050505081565b60008033905060006108968286610919565b9050838110156108db576040517f08c379a00000000000000000000000000000000000000000000000000000000081526004016108d290611573565b60405180910390fd5b6108f1828686846108ec91906114f3565b610ae3565b60019250505092915050565b60008033905061090e818585610d41565b600191505092915050565b6000600160008473ffffffffffffffffffffffffffffffffffffffff1673ffffffffffffffffffffffffffffffffffffffff16815260200190815260200160002060008373ffffffffffffffffffffffffffffffffffffffff1673ffffffffffffffffffffffffffffffffffffffff16815260200190815260200160002054905092915050565b600560019054906101000a900473ffffffffffffffffffffffffffffffffffffffff1673ffffffffffffffffffffffffffffffffffffffff163373ffffffffffffffffffffffffffffffffffffffff1614610a30576040517f08c379a0000000000000000000000000000000000000000000000000000000008152600401610a27906113fb565b60405180910390fd5b600073ffffffffffffffffffffffffffffffffffffffff168173ffffffffffffffffffffffffffffffffffffffff1603610a9f576040517f08c379a0000000000000000000000000000000000000000000000000000000008152600401610a96906115df565b60405180910390fd5b80600560016101000a81548173ffffffffffffffffffffffffffffffffffffffff021916908373ffffffffffffffffffffffffffffffffffffffff16021790555050565b600073ffffffffffffffffffffffffffffffffffffffff168373ffffffffffffffffffffffffffffffffffffffff1603610b52576040517f08c379a0000000000000000000000000000000000000000000000000000000008152600401610b499061164b565b60405180910390fd5b600073ffffffffffffffffffffffffffffffffffffffff168273ffffffffffffffffffffffffffffffffffffffff1603610bc1576040517f08c379a0000000000000000000000000000000000000000000000000000000008152600401610bb8906116b7565b60405180910390fd5b80600160008573ffffffffffffffffffffffffffffffffffffffff1673ffffffffffffffffffffffffffffffffffffffff16815260200190815260200160002060008473ffffffffffffffffffffffffffffffffffffffff1673ffffffffffffffffffffffffffffffffffffffff168152602001908152602001600020819055508173ffffffffffffffffffffffffffffffffffffffff168373ffffffffffffffffffffffffffffffffffffffff167f8c5be1e5ebec7d5bd14f71427d1e84f3dd0314c0f7b2291e5b200ac8c7c3b92583604051610c9f9190611183565b60405180910390a3505050565b6000610cb88484610919565b90507fffffffffffffffffffffffffffffffffffffffffffffffffffffffffffffffff8114610d3b5781811015610d24576040517f08c379a0000000000000000000000000000000000000000000000000000000008152600401610d1b90611723565b60405180910390fd5b610d3a84848484610d3591906114f3565b610ae3565b5b50505050565b600073ffffffffffffffffffffffffffffffffffffffff168373ffffffffffffffffffffffffffffffffffffffff1603610db0576040517f08c379a0000000000000000000000000000000000000000000000000000000008152600401610da79061178f565b60405180910390fd5b600073ffffffffffffffffffffffffffffffffffffffff168273ffffffffffffffffffffffffffffffffffffffff1603610e1f576040517f08c379a0000000000000000000000000000000000000000000000000000000008152600401610e16906117fb565b60405180910390fd5b60008060008573ffffffffffffffffffffffffffffffffffffffff1673ffffffffffffffffffffffffffffffffffffffff16815260200190815260200160002054905081811015610ea5576040517f08c379a0000000000000000000000000000000000000000000000000000000008152600401610e9c90611867565b60405180910390fd5b8181610eb191906114f3565b6000808673ffffffffffffffffffffffffffffffffffffffff1673ffffffffffffffffffffffffffffffffffffffff16815260200190815260200160002081905550816000808573ffffffffffffffffffffffffffffffffffffffff1673ffffffffffffffffffffffffffffffffffffffff1681526020019081526020016000206000828254610f41919061137b565b925050819055508273ffffffffffffffffffffffffffffffffffffffff168473ffffffffffffffffffffffffffffffffffffffff167fddf252ad1be2c89b69c2b068fc378daa952ba7f163c4a11628f55a4df523b3ef84604051610fa59190611183565b60405180910390a350505050565b600081519050919050565b600082825260208201905092915050565b60005b83811015610fed578082015181840152602081019050610fd2565b60008484015250505050565b6000601f19601f8301169050919050565b600061101582610fb3565b61101f8185610fbe565b935061102f818560208601610fcf565b61103881610ff9565b840191505092915050565b6000602082019050818103600083015261105d818461100a565b905092915050565b600080fd5b600073ffffffffffffffffffffffffffffffffffffffff82169050919050565b60006110958261106a565b9050919050565b6110a58161108a565b81146110b057600080fd5b50565b6000813590506110c28161109c565b92915050565b6000819050919050565b6110db816110c8565b81146110e657600080fd5b50565b6000813590506110f8816110d2565b92915050565b6000806040838503121561111557611114611065565b5b6000611123858286016110b3565b9250506020611134858286016110e9565b9150509250929050565b60008115159050919050565b6111538161113e565b82525050565b600060208201905061116e600083018461114a565b92915050565b61117d816110c8565b82525050565b60006020820190506111986000830184611174565b92915050565b6000806000606084860312156111b7576111b6611065565b5b60006111c5868287016110b3565b93505060206111d6868287016110b3565b92505060406111e7868287016110e9565b9150509250925092565b600060ff82169050919050565b611207816111f1565b82525050565b600060208201905061122260008301846111fe565b92915050565b60006020828403121561123e5761123d611065565b5b600061124c848285016110e9565b91505092915050565b60006020828403121561126b5761126a611065565b5b6000611279848285016110b3565b91505092915050565b61128b8161108a565b82525050565b60006020820190506112a66000830184611282565b92915050565b600080604083850312156112c3576112c2611065565b5b60006112d1858286016110b3565b92505060206112e2858286016110b3565b9150509250929050565b7f4e487b7100000000000000000000000000000000000000000000000000000000600052602260045260246000fd5b6000600282049050600182168061133357607f821691505b602082108103611346576113456112ec565b5b50919050565b7f4e487b7100000000000000000000000000000000000000000000000000000000600052601160045260246000fd5b6000611386826110c8565b9150611391836110c8565b92508282019050808211156113a9576113a861134c565b5b92915050565b7f4e6f7420746865206f776e657200000000000000000000000000000000000000600082015250565b60006113e5600d83610fbe565b91506113f0826113af565b602082019050919050565b60006020820190508181036000830152611414816113d8565b9050919050565b7f4d696e7420746f207a65726f2061646472657373000000000000000000000000600082015250565b6000611451601483610fbe565b915061145c8261141b565b602082019050919050565b6000602082019050818103600083015261148081611444565b9050919050565b7f4275726e20616d6f756e7420657863656564732062616c616e63650000000000600082015250565b60006114bd601b83610fbe565b91506114c882611487565b602082019050919050565b600060208201905081810360008301526114ec816114b0565b9050919050565b60006114fe826110c8565b9150611509836110c8565b92508282039050818111156115215761152061134c565b5b92915050565b7f44656372656173656420616c6c6f77616e63652062656c6f77207a65726f0000600082015250565b600061155d601e83610fbe565b915061156882611527565b602082019050919050565b6000602082019050818103600083015261158c81611550565b9050919050565b7f4e6577206f776e6572206973207a65726f206164647265737300000000000000600082015250565b60006115c9601983610fbe565b91506115d482611593565b602082019050919050565b600060208201905081810360008301526115f8816115bc565b9050919050565b7f417070726f76652066726f6d207a65726f206164647265737300000000000000600082015250565b6000611635601983610fbe565b9150611640826115ff565b602082019050919050565b6000602082019050818103600083015261166481611628565b9050919050565b7f417070726f766520746f207a65726f2061646472657373000000000000000000600082015250565b60006116a1601783610fbe565b91506116ac8261166b565b602082019050919050565b600060208201905081810360008301526116d081611694565b9050919050565b7f496e73756666696369656e7420616c6c6f77616e636500000000000000000000600082015250565b600061170d601683610fbe565b9150611718826116d7565b602082019050919050565b6000602082019050818103600083015261173c81611700565b9050919050565b7f5472616e736665722066726f6d207a65726f2061646472657373000000000000600082015250565b6000611779601a83610fbe565b915061178482611743565b602082019050919050565b600060208201905081810360008301526117a88161176c565b9050919050565b7f5472616e7366657220746f207a65726f20616464726573730000000000000000600082015250565b60006117e5601883610fbe565b91506117f0826117af565b602082019050919050565b60006020820190508181036000830152611814816117d8565b9050919050565b7f5472616e7366657220616d6f756e7420657863656564732062616c616e636500600082015250565b6000611851601f83610fbe565b915061185c8261181b565b602082019050919050565b6000602082019050818103600083015261188081611844565b905091905056fea26469706673582212204101ff26eedcce23048e0da4646d11001253f2f992b47fe6595e944e5d25e80f64736f6c634300081e0033",
  "linkReferences": {},
  "deployedLinkReferences": {}
}