{"abi":[{"type":"constructor","inputs":[],"stateMutability":"nonpayable"},{"type":"function","name":"approve","inputs":[{"name":"to","type":"address","internalType":"address"},{"name":"tokenId","type":"uint256","internalType":"uint256"}],"outputs":[],"stateMutability":"nonpayable"},{"type":"function","name":"balanceOf","inputs":[{"name":"owner","type":"address","internalType":"address"}],"outputs":[{"name":"","type":"uint256","internalType":"uint256"}],"stateMutability":"view"},{"type":"function","name":"getApproved","inputs":[{"name":"tokenId","type":"uint256","internalType":"uint256"}],"outputs":[{"name":"","type":"address","internalType":"address"}],"stateMutability":"view"},{"type":"function","name":"isApprovedForAll","inputs":[{"name":"owner","type":"address","internalType":"address"},{"name":"operator","type":"address","internalType":"address"}],"outputs":[{"name":"","type":"bool","internalType":"bool"}],"stateMutability":"view"},{"type":"function","name":"name","inputs":[],"outputs":[{"name":"","type":"string","internalType":"string"}],"stateMutability":"view"},{"type":"function","name":"ownerOf","inputs":[{"name":"tokenId","type":"uint256","internalType":"uint256"}],"outputs":[{"name":"","type":"address","internalType":"address"}],"stateMutability":"view"},{"type":"function","name":"safeMint","inputs":[{"name":"to","type":"address","internalType":"address"},{"name":"tokenId","type":"uint256","internalType":"uint256"},{"name":"uri","type":"string","internalType":"string"}],"outputs":[],"stateMutability":"nonpayable"},{"type":"function","name":"safeTransferFrom","inputs":[{"name":"from","type":"address","internalType":"address"},{"name":"to","type":"address","internalType":"address"},{"name":"tokenId","type":"uint256","internalType":"uint256"}],"outputs":[],"stateMutability":"nonpayable"},{"type":"function","name":"safeTransferFrom","inputs":[{"name":"from","type":"address","internalType":"address"},{"name":"to","type":"address","internalType":"address"},{"name":"tokenId","type":"uint256","internalType":"uint256"},{"name":"data","type":"bytes","internalType":"bytes"}],"outputs":[],"stateMutability":"nonpayable"},{"type":"function","name":"setApprovalForAll","inputs":[{"name":"operator","type":"address","internalType":"address"},{"name":"approved","type":"bool","internalType":"bool"}],"outputs":[],"stateMutability":"nonpayable"},{"type":"function","name":"supportsInterface","inputs":[{"name":"interfaceId","type":"bytes4","internalType":"bytes4"}],"outputs":[{"name":"","type":"bool","internalType":"bool"}],"stateMutability":"view"},{"type":"function","name":"symbol","inputs":[],"outputs":[{"name":"","type":"string","internalType":"string"}],"stateMutability":"view"},{"type":"function","name":"tokenURI","inputs":[{"name":"tokenId","type":"uint256","internalType":"uint256"}],"outputs":[{"name":"","type":"string","internalType":"string"}],"stateMutability":"view"},{"type":"function","name":"transferFrom","inputs":[{"name":"from","type":"address","internalType":"address"},{"name":"to","type":"address","internalType":"address"},{"name":"tokenId","type":"uint256","internalType":"uint256"}],"outputs":[],"stateMutability":"nonpayable"},{"type":"event","name":"Approval","inputs":[{"name":"owner","type":"address","indexed":true,"internalType":"address"},{"name":"approved","type":"address","indexed":true,"internalType":"address"},{"name":"tokenId","type":"uint256","indexed":true,"internalType":"uint256"}],"anonymous":false},{"type":"event","name":"ApprovalForAll","inputs":[{"name":"owner","type":"address","indexed":true,"internalType":"address"},{"name":"operator","type":"address","indexed":true,"internalType":"address"},{"name":"approved","type":"bool","indexed":false,"internalType":"bool"}],"anonymous":false},{"type":"event","name":"BatchMetadataUpdate","inputs":[{"name":"_fromTokenId","type":"uint256","indexed":false,"internalType":"uint256"},{"name":"_toTokenId","type":"uint256","indexed":false,"internalType":"uint256"}],"anonymous":false},{"type":"event","name":"MetadataUpdate","inputs":[{"name":"_tokenId","type":"uint256","indexed":false,"internalType":"uint256"}],"anonymous":false},{"type":"event","name":"Transfer","inputs":[{"name":"from","type":"address","indexed":true,"internalType":"address"},{"name":"to","type":"address","indexed":true,"internalType":"address"},{"name":"tokenId","type":"uint256","indexed":true,"internalType":"uint256"}],"anonymous":false},{"type":"error","name":"ERC721IncorrectOwner","inputs":[{"name":"sender","type":"address","internalType":"address"},{"name":"tokenId","type":"uint256","internalType":"uint256"},{"name":"owner","type":"address","internalType":"address"}]},{"type":"error","name":"ERC721InsufficientApproval","inputs":[{"name":"operator","type":"address","internalType":"address"},{"name":"tokenId","type":"uint256","internalType":"uint256"}]},{"type":"error","name":"ERC721InvalidApprover","inputs":[{"name":"approver","type":"address","internalType":"address"}]},{"type":"error","name":"ERC721InvalidOperator","inputs":[{"name":"operator","type":"address","internalType":"address"}]},{"type":"error","name":"ERC721InvalidOwner","inputs":[{"name":"owner","type":"address","internalType":"address"}]},{"type":"error","name":"ERC721InvalidReceiver","inputs":[{"name":"receiver","type":"address","internalType":"address"}]},{"type":"error","name":"ERC721InvalidSender","inputs":[{"name":"sender","type":"address","internalType":"address"}]},{"type":"error","name":"ERC721NonexistentToken","inputs":[{"name":"tokenId","type":"uint256","internalType":"uint256"}]}],"bytecode":{"object":"0x608060405234801561000f575f5ffd5b506040518060400160405280600981526020017f5469636b65744e667400000000000000000000000000000000000000000000008152506040518060400160405280600481526020017f544e465400000000000000000000000000000000000000000000000000000000815250815f908161008a91906102df565b50806001908161009a91906102df565b5050506103ae565b5f81519050919050565b7f4e487b71000000000000000000000000000000000000000000000000000000005f52604160045260245ffd5b7f4e487b71000000000000000000000000000000000000000000000000000000005f52602260045260245ffd5b5f600282049050600182168061011d57607f821691505b6020821081036101305761012f6100d9565b5b50919050565b5f819050815f5260205f209050919050565b5f6020601f8301049050919050565b5f82821b905092915050565b5f600883026101927fffffffffffffffffffffffffffffffffffffffffffffffffffffffffffffffff82610157565b61019c8683610157565b95508019841693508086168417925050509392505050565b5f819050919050565b5f819050919050565b5f6101e06101db6101d6846101b4565b6101bd565b6101b4565b9050919050565b5f819050919050565b6101f9836101c6565b61020d610205826101e7565b848454610163565b825550505050565b5f5f905090565b610224610215565b61022f8184846101f0565b505050565b5b81811015610252576102475f8261021c565b600181019050610235565b5050565b601f8211156102975761026881610136565b61027184610148565b81016020851015610280578190505b61029461028c85610148565b830182610234565b50505b505050565b5f82821c905092915050565b5f6102b75f198460080261029c565b1980831691505092915050565b5f6102cf83836102a8565b9150826002028217905092915050565b6102e8826100a2565b67ffffffffffffffff811115610301576103006100ac565b5b61030b8254610106565b610316828285610256565b5f60209050601f831160018114610347575f8415610335578287015190505b61033f85826102c4565b8655506103a6565b601f19841661035586610136565b5f5b8281101561037c57848901518255600182019150602085019450602081019050610357565b868310156103995784890151610395601f8916826102a8565b8355505b6001600288020188555050505b505050505050565b61232f806103bb5f395ff3fe608060405234801561000f575f5ffd5b50600436106100e8575f3560e01c806370a082311161008a578063b88d4fde11610064578063b88d4fde14610258578063c87b56dd14610274578063cd279c7c146102a4578063e985e9c5146102c0576100e8565b806370a08231146101ee57806395d89b411461021e578063a22cb4651461023c576100e8565b8063095ea7b3116100c6578063095ea7b31461016a57806323b872dd1461018657806342842e0e146101a25780636352211e146101be576100e8565b806301ffc9a7146100ec57806306fdde031461011c578063081812fc1461013a575b5f5ffd5b610106600480360381019061010191906117f4565b6102f0565b6040516101139190611839565b60405180910390f35b610124610301565b60405161013191906118c2565b60405180910390f35b610154600480360381019061014f9190611915565b610390565b604051610161919061197f565b60405180910390f35b610184600480360381019061017f91906119c2565b6103ab565b005b6101a0600480360381019061019b9190611a00565b6103c1565b005b6101bc60048036038101906101b79190611a00565b6104c0565b005b6101d860048036038101906101d39190611915565b6104df565b6040516101e5919061197f565b60405180910390f35b61020860048036038101906102039190611a50565b6104f0565b6040516102159190611a8a565b60405180910390f35b6102266105a6565b60405161023391906118c2565b60405180910390f35b61025660048036038101906102519190611acd565b610636565b005b610272600480360381019061026d9190611c37565b61064c565b005b61028e60048036038101906102899190611915565b610671565b60405161029b91906118c2565b60405180910390f35b6102be60048036038101906102b99190611d55565b610683565b005b6102da60048036038101906102d59190611dc1565b6106b4565b6040516102e79190611839565b60405180910390f35b5f6102fa82610742565b9050919050565b60605f805461030f90611e2c565b80601f016020809104026020016040519081016040528092919081815260200182805461033b90611e2c565b80156103865780601f1061035d57610100808354040283529160200191610386565b820191905f5260205f20905b81548152906001019060200180831161036957829003601f168201915b5050505050905090565b5f61039a826107a2565b506103a482610828565b9050919050565b6103bd82826103b8610861565b610868565b5050565b5f73ffffffffffffffffffffffffffffffffffffffff168273ffffffffffffffffffffffffffffffffffffffff1603610431575f6040517f64a0ae92000000000000000000000000000000000000000000000000000000008152600401610428919061197f565b60405180910390fd5b5f610444838361043f610861565b61087a565b90508373ffffffffffffffffffffffffffffffffffffffff168173ffffffffffffffffffffffffffffffffffffffff16146104ba578382826040517f64283d7b0000000000000000000000000000000000000000000000000000000081526004016104b193929190611e5c565b60405180910390fd5b50505050565b6104da83838360405180602001604052805f81525061064c565b505050565b5f6104e9826107a2565b9050919050565b5f5f73ffffffffffffffffffffffffffffffffffffffff168273ffffffffffffffffffffffffffffffffffffffff1603610561575f6040517f89c62b64000000000000000000000000000000000000000000000000000000008152600401610558919061197f565b60405180910390fd5b60035f8373ffffffffffffffffffffffffffffffffffffffff1673ffffffffffffffffffffffffffffffffffffffff1681526020019081526020015f20549050919050565b6060600180546105b590611e2c565b80601f01602080910402602001604051908101604052809291908181526020018280546105e190611e2c565b801561062c5780601f106106035761010080835404028352916020019161062c565b820191905f5260205f20905b81548152906001019060200180831161060f57829003601f168201915b5050505050905090565b610648610641610861565b8383610a85565b5050565b6106578484846103c1565b61066b610662610861565b85858585610bee565b50505050565b606061067c82610d9a565b9050919050565b61068d8383610ea5565b6106af826040518060a00160405280606d815260200161228d606d9139610ec2565b505050565b5f60055f8473ffffffffffffffffffffffffffffffffffffffff1673ffffffffffffffffffffffffffffffffffffffff1681526020019081526020015f205f8373ffffffffffffffffffffffffffffffffffffffff1673ffffffffffffffffffffffffffffffffffffffff1681526020019081526020015f205f9054906101000a900460ff16905092915050565b5f634906490660e01b7bffffffffffffffffffffffffffffffffffffffffffffffffffffffff1916827bffffffffffffffffffffffffffffffffffffffffffffffffffffffff1916148061079b575061079a82610f1c565b5b9050919050565b5f5f6107ad83610ffd565b90505f73ffffffffffffffffffffffffffffffffffffffff168173ffffffffffffffffffffffffffffffffffffffff160361081f57826040517f7e2732890000000000000000000000000000000000000000000000000000000081526004016108169190611a8a565b60405180910390fd5b80915050919050565b5f60045f8381526020019081526020015f205f9054906101000a900473ffffffffffffffffffffffffffffffffffffffff169050919050565b5f33905090565b6108758383836001611036565b505050565b5f5f61088584610ffd565b90505f73ffffffffffffffffffffffffffffffffffffffff168373ffffffffffffffffffffffffffffffffffffffff16146108c6576108c58184866111f5565b5b5f73ffffffffffffffffffffffffffffffffffffffff168173ffffffffffffffffffffffffffffffffffffffff1614610951576109055f855f5f611036565b600160035f8373ffffffffffffffffffffffffffffffffffffffff1673ffffffffffffffffffffffffffffffffffffffff1681526020019081526020015f205f82825403925050819055505b5f73ffffffffffffffffffffffffffffffffffffffff168573ffffffffffffffffffffffffffffffffffffffff16146109d057600160035f8773ffffffffffffffffffffffffffffffffffffffff1673ffffffffffffffffffffffffffffffffffffffff1681526020019081526020015f205f82825401925050819055505b8460025f8681526020019081526020015f205f6101000a81548173ffffffffffffffffffffffffffffffffffffffff021916908373ffffffffffffffffffffffffffffffffffffffff160217905550838573ffffffffffffffffffffffffffffffffffffffff168273ffffffffffffffffffffffffffffffffffffffff167fddf252ad1be2c89b69c2b068fc378daa952ba7f163c4a11628f55a4df523b3ef60405160405180910390a4809150509392505050565b5f73ffffffffffffffffffffffffffffffffffffffff168273ffffffffffffffffffffffffffffffffffffffff1603610af557816040517f5b08ba18000000000000000000000000000000000000000000000000000000008152600401610aec919061197f565b60405180910390fd5b8060055f8573ffffffffffffffffffffffffffffffffffffffff1673ffffffffffffffffffffffffffffffffffffffff1681526020019081526020015f205f8473ffffffffffffffffffffffffffffffffffffffff1673ffffffffffffffffffffffffffffffffffffffff1681526020019081526020015f205f6101000a81548160ff0219169083151502179055508173ffffffffffffffffffffffffffffffffffffffff168373ffffffffffffffffffffffffffffffffffffffff167f17307eab39ab6107e8899845ad3d59bd9653f200f220920489ca2b5937696c3183604051610be19190611839565b60405180910390a3505050565b5f8373ffffffffffffffffffffffffffffffffffffffff163b1115610d93578273ffffffffffffffffffffffffffffffffffffffff1663150b7a02868685856040518563ffffffff1660e01b8152600401610c4c9493929190611ee3565b6020604051808303815f875af1925050508015610c8757506040513d601f19601f82011682018060405250810190610c849190611f41565b60015b610d08573d805f8114610cb5576040519150601f19603f3d011682016040523d82523d5f602084013e610cba565b606091505b505f815103610d0057836040517f64a0ae92000000000000000000000000000000000000000000000000000000008152600401610cf7919061197f565b60405180910390fd5b805160208201fd5b63150b7a0260e01b7bffffffffffffffffffffffffffffffffffffffffffffffffffffffff1916817bffffffffffffffffffffffffffffffffffffffffffffffffffffffff191614610d9157836040517f64a0ae92000000000000000000000000000000000000000000000000000000008152600401610d88919061197f565b60405180910390fd5b505b5050505050565b6060610da5826107a2565b505f60065f8481526020019081526020015f208054610dc390611e2c565b80601f0160208091040260200160405190810160405280929190818152602001828054610def90611e2c565b8015610e3a5780601f10610e1157610100808354040283529160200191610e3a565b820191905f5260205f20905b815481529060010190602001808311610e1d57829003601f168201915b505050505090505f610e4a6112b8565b90505f815103610e5e578192505050610ea0565b5f82511115610e92578082604051602001610e7a929190611fa6565b60405160208183030381529060405292505050610ea0565b610e9b846112ce565b925050505b919050565b610ebe828260405180602001604052805f815250611334565b5050565b8060065f8481526020019081526020015f209081610ee09190612169565b507ff8e1a15aba9398e019f0b49df1a4fde98ee17ae345cb5f6b5e2c27f5033e8ce782604051610f109190611a8a565b60405180910390a15050565b5f7f80ac58cd000000000000000000000000000000000000000000000000000000007bffffffffffffffffffffffffffffffffffffffffffffffffffffffff1916827bffffffffffffffffffffffffffffffffffffffffffffffffffffffff19161480610fe657507f5b5e139f000000000000000000000000000000000000000000000000000000007bffffffffffffffffffffffffffffffffffffffffffffffffffffffff1916827bffffffffffffffffffffffffffffffffffffffffffffffffffffffff1916145b80610ff65750610ff582611357565b5b9050919050565b5f60025f8381526020019081526020015f205f9054906101000a900473ffffffffffffffffffffffffffffffffffffffff169050919050565b808061106e57505f73ffffffffffffffffffffffffffffffffffffffff168273ffffffffffffffffffffffffffffffffffffffff1614155b156111a0575f61107d846107a2565b90505f73ffffffffffffffffffffffffffffffffffffffff168373ffffffffffffffffffffffffffffffffffffffff16141580156110e757508273ffffffffffffffffffffffffffffffffffffffff168173ffffffffffffffffffffffffffffffffffffffff1614155b80156110fa57506110f881846106b4565b155b1561113c57826040517fa9fbf51f000000000000000000000000000000000000000000000000000000008152600401611133919061197f565b60405180910390fd5b811561119e57838573ffffffffffffffffffffffffffffffffffffffff168273ffffffffffffffffffffffffffffffffffffffff167f8c5be1e5ebec7d5bd14f71427d1e84f3dd0314c0f7b2291e5b200ac8c7c3b92560405160405180910390a45b505b8360045f8581526020019081526020015f205f6101000a81548173ffffffffffffffffffffffffffffffffffffffff021916908373ffffffffffffffffffffffffffffffffffffffff16021790555050505050565b6112008383836113c0565b6112b3575f73ffffffffffffffffffffffffffffffffffffffff168373ffffffffffffffffffffffffffffffffffffffff160361127457806040517f7e27328900000000000000000000000000000000000000000000000000000000815260040161126b9190611a8a565b60405180910390fd5b81816040517f177e802f0000000000000000000000000000000000000000000000000000000081526004016112aa929190612238565b60405180910390fd5b505050565b606060405180602001604052805f815250905090565b60606112d9826107a2565b505f6112e36112b8565b90505f8151116113015760405180602001604052805f81525061132c565b8061130b84611480565b60405160200161131c929190611fa6565b6040516020818303038152906040525b915050919050565b61133e838361154a565b611352611349610861565b5f858585610bee565b505050565b5f7f01ffc9a7000000000000000000000000000000000000000000000000000000007bffffffffffffffffffffffffffffffffffffffffffffffffffffffff1916827bffffffffffffffffffffffffffffffffffffffffffffffffffffffff1916149050919050565b5f5f73ffffffffffffffffffffffffffffffffffffffff168373ffffffffffffffffffffffffffffffffffffffff161415801561147757508273ffffffffffffffffffffffffffffffffffffffff168473ffffffffffffffffffffffffffffffffffffffff161480611438575061143784846106b4565b5b8061147657508273ffffffffffffffffffffffffffffffffffffffff1661145e83610828565b73ffffffffffffffffffffffffffffffffffffffff16145b5b90509392505050565b60605f600161148e8461163d565b0190505f8167ffffffffffffffff8111156114ac576114ab611b13565b5b6040519080825280601f01601f1916602001820160405280156114de5781602001600182028036833780820191505090505b5090505f82602083010190505b60011561153f578080600190039150507f3031323334353637383961626364656600000000000000000000000000000000600a86061a8153600a85816115345761153361225f565b5b0494505f85036114eb575b819350505050919050565b5f73ffffffffffffffffffffffffffffffffffffffff168273ffffffffffffffffffffffffffffffffffffffff16036115ba575f6040517f64a0ae920000000000000000000000000000000000000000000000000000000081526004016115b1919061197f565b60405180910390fd5b5f6115c683835f61087a565b90505f73ffffffffffffffffffffffffffffffffffffffff168173ffffffffffffffffffffffffffffffffffffffff1614611638575f6040517f73c6ac6e00000000000000000000000000000000000000000000000000000000815260040161162f919061197f565b60405180910390fd5b505050565b5f5f5f90507a184f03e93ff9f4daa797ed6e38ed64bf6a1f0100000000000000008310611699577a184f03e93ff9f4daa797ed6e38ed64bf6a1f010000000000000000838161168f5761168e61225f565b5b0492506040810190505b6d04ee2d6d415b85acef810000000083106116d6576d04ee2d6d415b85acef810000000083816116cc576116cb61225f565b5b0492506020810190505b662386f26fc10000831061170557662386f26fc1000083816116fb576116fa61225f565b5b0492506010810190505b6305f5e100831061172e576305f5e10083816117245761172361225f565b5b0492506008810190505b61271083106117535761271083816117495761174861225f565b5b0492506004810190505b60648310611776576064838161176c5761176b61225f565b5b0492506002810190505b600a8310611785576001810190505b80915050919050565b5f604051905090565b5f5ffd5b5f5ffd5b5f7fffffffff0000000000000000000000000000000000000000000000000000000082169050919050565b6117d38161179f565b81146117dd575f5ffd5b50565b5f813590506117ee816117ca565b92915050565b5f6020828403121561180957611808611797565b5b5f611816848285016117e0565b91505092915050565b5f8115159050919050565b6118338161181f565b82525050565b5f60208201905061184c5f83018461182a565b92915050565b5f81519050919050565b5f82825260208201905092915050565b8281835e5f83830152505050565b5f601f19601f8301169050919050565b5f61189482611852565b61189e818561185c565b93506118ae81856020860161186c565b6118b78161187a565b840191505092915050565b5f6020820190508181035f8301526118da818461188a565b905092915050565b5f819050919050565b6118f4816118e2565b81146118fe575f5ffd5b50565b5f8135905061190f816118eb565b92915050565b5f6020828403121561192a57611929611797565b5b5f61193784828501611901565b91505092915050565b5f73ffffffffffffffffffffffffffffffffffffffff82169050919050565b5f61196982611940565b9050919050565b6119798161195f565b82525050565b5f6020820190506119925f830184611970565b92915050565b6119a18161195f565b81146119ab575f5ffd5b50565b5f813590506119bc81611998565b92915050565b5f5f604083850312156119d8576119d7611797565b5b5f6119e5858286016119ae565b92505060206119f685828601611901565b9150509250929050565b5f5f5f60608486031215611a1757611a16611797565b5b5f611a24868287016119ae565b9350506020611a35868287016119ae565b9250506040611a4686828701611901565b9150509250925092565b5f60208284031215611a6557611a64611797565b5b5f611a72848285016119ae565b91505092915050565b611a84816118e2565b82525050565b5f602082019050611a9d5f830184611a7b565b92915050565b611aac8161181f565b8114611ab6575f5ffd5b50565b5f81359050611ac781611aa3565b92915050565b5f5f60408385031215611ae357611ae2611797565b5b5f611af0858286016119ae565b9250506020611b0185828601611ab9565b9150509250929050565b5f5ffd5b5f5ffd5b7f4e487b71000000000000000000000000000000000000000000000000000000005f52604160045260245ffd5b611b498261187a565b810181811067ffffffffffffffff82111715611b6857611b67611b13565b5b80604052505050565b5f611b7a61178e565b9050611b868282611b40565b919050565b5f67ffffffffffffffff821115611ba557611ba4611b13565b5b611bae8261187a565b9050602081019050919050565b828183375f83830152505050565b5f611bdb611bd684611b8b565b611b71565b905082815260208101848484011115611bf757611bf6611b0f565b5b611c02848285611bbb565b509392505050565b5f82601f830112611c1e57611c1d611b0b565b5b8135611c2e848260208601611bc9565b91505092915050565b5f5f5f5f60808587031215611c4f57611c4e611797565b5b5f611c5c878288016119ae565b9450506020611c6d878288016119ae565b9350506040611c7e87828801611901565b925050606085013567ffffffffffffffff811115611c9f57611c9e61179b565b5b611cab87828801611c0a565b91505092959194509250565b5f67ffffffffffffffff821115611cd157611cd0611b13565b5b611cda8261187a565b9050602081019050919050565b5f611cf9611cf484611cb7565b611b71565b905082815260208101848484011115611d1557611d14611b0f565b5b611d20848285611bbb565b509392505050565b5f82601f830112611d3c57611d3b611b0b565b5b8135611d4c848260208601611ce7565b91505092915050565b5f5f5f60608486031215611d6c57611d6b611797565b5b5f611d79868287016119ae565b9350506020611d8a86828701611901565b925050604084013567ffffffffffffffff811115611dab57611daa61179b565b5b611db786828701611d28565b9150509250925092565b5f5f60408385031215611dd757611dd6611797565b5b5f611de4858286016119ae565b9250506020611df5858286016119ae565b9150509250929050565b7f4e487b71000000000000000000000000000000000000000000000000000000005f52602260045260245ffd5b5f6002820490506001821680611e4357607f821691505b602082108103611e5657611e55611dff565b5b50919050565b5f606082019050611e6f5f830186611970565b611e7c6020830185611a7b565b611e896040830184611970565b949350505050565b5f81519050919050565b5f82825260208201905092915050565b5f611eb582611e91565b611ebf8185611e9b565b9350611ecf81856020860161186c565b611ed88161187a565b840191505092915050565b5f608082019050611ef65f830187611970565b611f036020830186611970565b611f106040830185611a7b565b8181036060830152611f228184611eab565b905095945050505050565b5f81519050611f3b816117ca565b92915050565b5f60208284031215611f5657611f55611797565b5b5f611f6384828501611f2d565b91505092915050565b5f81905092915050565b5f611f8082611852565b611f8a8185611f6c565b9350611f9a81856020860161186c565b80840191505092915050565b5f611fb18285611f76565b9150611fbd8284611f76565b91508190509392505050565b5f819050815f5260205f209050919050565b5f6020601f8301049050919050565b5f82821b905092915050565b5f600883026120257fffffffffffffffffffffffffffffffffffffffffffffffffffffffffffffffff82611fea565b61202f8683611fea565b95508019841693508086168417925050509392505050565b5f819050919050565b5f61206a612065612060846118e2565b612047565b6118e2565b9050919050565b5f819050919050565b61208383612050565b61209761208f82612071565b848454611ff6565b825550505050565b5f5f905090565b6120ae61209f565b6120b981848461207a565b505050565b5b818110156120dc576120d15f826120a6565b6001810190506120bf565b5050565b601f821115612121576120f281611fc9565b6120fb84611fdb565b8101602085101561210a578190505b61211e61211685611fdb565b8301826120be565b50505b505050565b5f82821c905092915050565b5f6121415f1984600802612126565b1980831691505092915050565b5f6121598383612132565b9150826002028217905092915050565b61217282611852565b67ffffffffffffffff81111561218b5761218a611b13565b5b6121958254611e2c565b6121a08282856120e0565b5f60209050601f8311600181146121d1575f84156121bf578287015190505b6121c9858261214e565b865550612230565b601f1984166121df86611fc9565b5f5b82811015612206578489015182556001820191506020850194506020810190506121e1565b86831015612223578489015161221f601f891682612132565b8355505b6001600288020188555050505b505050505050565b5f60408201905061224b5f830185611970565b6122586020830184611a7b565b9392505050565b7f4e487b71000000000000000000000000000000000000000000000000000000005f52601260045260245ffdfe68747470733a2f2f636f666665652d757267656e742d6f776c2d3436322e6d7970696e6174612e636c6f75642f697066732f6261666b7265696671346c686c64337474697067337237633732686261726571716a6d7737636877733372626c73667475686577336f663434726da2646970667358221220269c718f8741ac6a907fcd30244c4a4fb5f542ebfc2ad492b15353d7af467cac64736f6c634300081e0033","linkReferences":{}},"methodIdentifiers":{"approve(address,uint256)":"095ea7b3","balanceOf(address)":"70a08231","getApproved(uint256)":"081812fc","isApprovedForAll(address,address)":"e985e9c5","name()":"06fdde03","ownerOf(uint256)":"6352211e","safeMint(address,uint256,string)":"cd279c7c","safeTransferFrom(address,address,uint256)":"42842e0e","safeTransferFrom(address,address,uint256,bytes)":"b88d4fde","setApprovalForAll(address,bool)":"a22cb465","supportsInterface(bytes4)":"01ffc9a7","symbol()":"95d89b41","tokenURI(uint256)":"c87b56dd","transferFrom(address,address,uint256)":"23b872dd"},"id":18}