{
  "_format": "hh-sol-artifact-1",
  "contractName": "LootBox",
  "sourceName": "contracts/LootBox.sol",
  "abi": [
    {
      "inputs": [
        {
          "internalType": "address",
          "name": "_rng",
          "type": "address"
        },
        {
          "internalType": "uint256",
          "name": "_fee",
          "type": "uint256"
        }
      ],
      "stateMutability": "nonpayable",
      "type": "constructor"
    },
    {
      "anonymous": false,
      "inputs": [
        {
          "indexed": true,
          "internalType": "address",
          "name": "user",
          "type": "address"
        },
        {
          "indexed": false,
          "internalType": "uint256",
          "name": "requestId",
          "type": "uint256"
        }
      ],
      "name": "BoxOpened",
      "type": "event"
    },
    {
      "anonymous": false,
      "inputs": [
        {
          "indexed": false,
          "internalType": "address",
          "name": "token",
          "type": "address"
        },
        {
          "indexed": false,
          "internalType": "uint256",
          "name": "id",
          "type": "uint256"
        },
        {
          "indexed": false,
          "internalType": "uint256",
          "name": "amount",
          "type": "uint256"
        },
        {
          "indexed": false,
          "internalType": "uint8",
          "name": "tokenType",
          "type": "uint8"
        },
        {
          "indexed": false,
          "internalType": "uint256",
          "name": "weight",
          "type": "uint256"
        }
      ],
      "name": "RewardAdded",
      "type": "event"
    },
    {
      "anonymous": false,
      "inputs": [
        {
          "indexed": true,
          "internalType": "address",
          "name": "user",
          "type": "address"
        },
        {
          "indexed": false,
          "internalType": "address",
          "name": "token",
          "type": "address"
        },
        {
          "indexed": false,
          "internalType": "uint256",
          "name": "id",
          "type": "uint256"
        },
        {
          "indexed": false,
          "internalType": "uint256",
          "name": "amount",
          "type": "uint256"
        },
        {
          "indexed": false,
          "internalType": "uint8",
          "name": "tokenType",
          "type": "uint8"
        }
      ],
      "name": "RewardGiven",
      "type": "event"
    },
    {
      "inputs": [
        {
          "internalType": "address",
          "name": "token",
          "type": "address"
        },
        {
          "internalType": "uint256",
          "name": "id",
          "type": "uint256"
        },
        {
          "internalType": "uint256",
          "name": "amount",
          "type": "uint256"
        },
        {
          "internalType": "uint8",
          "name": "tokenType",
          "type": "uint8"
        },
        {
          "internalType": "uint256",
          "name": "weight",
          "type": "uint256"
        }
      ],
      "name": "addReward",
      "outputs": [],
      "stateMutability": "nonpayable",
      "type": "function"
    },
    {
      "inputs": [],
      "name": "collectedFees",
      "outputs": [
        {
          "internalType": "uint256",
          "name": "",
          "type": "uint256"
        }
      ],
      "stateMutability": "view",
      "type": "function"
    },
    {
      "inputs": [],
      "name": "fee",
      "outputs": [
        {
          "internalType": "uint256",
          "name": "",
          "type": "uint256"
        }
      ],
      "stateMutability": "view",
      "type": "function"
    },
    {
      "inputs": [
        {
          "internalType": "address",
          "name": "",
          "type": "address"
        },
        {
          "internalType": "address",
          "name": "",
          "type": "address"
        },
        {
          "internalType": "uint256[]",
          "name": "",
          "type": "uint256[]"
        },
        {
          "internalType": "uint256[]",
          "name": "",
          "type": "uint256[]"
        },
        {
          "internalType": "bytes",
          "name": "",
          "type": "bytes"
        }
      ],
      "name": "onERC1155BatchReceived",
      "outputs": [
        {
          "internalType": "bytes4",
          "name": "",
          "type": "bytes4"
        }
      ],
      "stateMutability": "pure",
      "type": "function"
    },
    {
      "inputs": [
        {
          "internalType": "address",
          "name": "",
          "type": "address"
        },
        {
          "internalType": "address",
          "name": "",
          "type": "address"
        },
        {
          "internalType": "uint256",
          "name": "",
          "type": "uint256"
        },
        {
          "internalType": "uint256",
          "name": "",
          "type": "uint256"
        },
        {
          "internalType": "bytes",
          "name": "",
          "type": "bytes"
        }
      ],
      "name": "onERC1155Received",
      "outputs": [
        {
          "internalType": "bytes4",
          "name": "",
          "type": "bytes4"
        }
      ],
      "stateMutability": "pure",
      "type": "function"
    },
    {
      "inputs": [
        {
          "internalType": "address",
          "name": "",
          "type": "address"
        },
        {
          "internalType": "address",
          "name": "",
          "type": "address"
        },
        {
          "internalType": "uint256",
          "name": "",
          "type": "uint256"
        },
        {
          "internalType": "bytes",
          "name": "",
          "type": "bytes"
        }
      ],
      "name": "onERC721Received",
      "outputs": [
        {
          "internalType": "bytes4",
          "name": "",
          "type": "bytes4"
        }
      ],
      "stateMutability": "pure",
      "type": "function"
    },
    {
      "inputs": [],
      "name": "openBox",
      "outputs": [],
      "stateMutability": "payable",
      "type": "function"
    },
    {
      "inputs": [],
      "name": "owner",
      "outputs": [
        {
          "internalType": "address",
          "name": "",
          "type": "address"
        }
      ],
      "stateMutability": "view",
      "type": "function"
    },
    {
      "inputs": [
        {
          "internalType": "uint256",
          "name": "",
          "type": "uint256"
        }
      ],
      "name": "rewards",
      "outputs": [
        {
          "internalType": "address",
          "name": "token",
          "type": "address"
        },
        {
          "internalType": "uint256",
          "name": "id",
          "type": "uint256"
        },
        {
          "internalType": "uint256",
          "name": "amount",
          "type": "uint256"
        },
        {
          "internalType": "uint8",
          "name": "tokenType",
          "type": "uint8"
        },
        {
          "internalType": "uint256",
          "name": "weight",
          "type": "uint256"
        }
      ],
      "stateMutability": "view",
      "type": "function"
    },
    {
      "inputs": [],
      "name": "rng",
      "outputs": [
        {
          "internalType": "contract IRandomGenerator",
          "name": "",
          "type": "address"
        }
      ],
      "stateMutability": "view",
      "type": "function"
    },
    {
      "inputs": [],
      "name": "totalWeight",
      "outputs": [
        {
          "internalType": "uint256",
          "name": "",
          "type": "uint256"
        }
      ],
      "stateMutability": "view",
      "type": "function"
    },
    {
      "inputs": [],
      "name": "withdrawFees",
      "outputs": [],
      "stateMutability": "nonpayable",
      "type": "function"
    }
  ],
  "bytecode": "0x60806040523480156200001157600080fd5b5060405162001dcf38038062001dcf83398181016040528101906200003791906200016c565b336000806101000a81548173ffffffffffffffffffffffffffffffffffffffff021916908373ffffffffffffffffffffffffffffffffffffffff16021790555081600160006101000a81548173ffffffffffffffffffffffffffffffffffffffff021916908373ffffffffffffffffffffffffffffffffffffffff160217905550806002819055505050620001b3565b600080fd5b600073ffffffffffffffffffffffffffffffffffffffff82169050919050565b6000620000f982620000cc565b9050919050565b6200010b81620000ec565b81146200011757600080fd5b50565b6000815190506200012b8162000100565b92915050565b6000819050919050565b620001468162000131565b81146200015257600080fd5b50565b60008151905062000166816200013b565b92915050565b60008060408385031215620001865762000185620000c7565b5b600062000196858286016200011a565b9250506020620001a98582860162000155565b9150509250929050565b611c0c80620001c36000396000f3fe6080604052600436106100a75760003560e01c8063c2e952c711610064578063c2e952c7146101be578063d605787b146101c8578063d9e09d1c146101f3578063ddca3f431461021c578063f23a6e6114610247578063f301af4214610284576100a7565b8063150b7a02146100ac578063476343ee146100e95780638da5cb5b146101005780639003adfe1461012b57806396c82e5714610156578063bc197c8114610181575b600080fd5b3480156100b857600080fd5b506100d360048036038101906100ce91906110b7565b6102c5565b6040516100e0919061117a565b60405180910390f35b3480156100f557600080fd5b506100fe6102da565b005b34801561010c57600080fd5b50610115610448565b60405161012291906111a4565b60405180910390f35b34801561013757600080fd5b5061014061046c565b60405161014d91906111ce565b60405180910390f35b34801561016257600080fd5b5061016b610472565b60405161017891906111ce565b60405180910390f35b34801561018d57600080fd5b506101a860048036038101906101a3919061123f565b610478565b6040516101b5919061117a565b60405180910390f35b6101c6610490565b005b3480156101d457600080fd5b506101dd6108c5565b6040516101ea919061137a565b60405180910390f35b3480156101ff57600080fd5b5061021a600480360381019061021591906113ce565b6108eb565b005b34801561022857600080fd5b50610231610b0e565b60405161023e91906111ce565b60405180910390f35b34801561025357600080fd5b5061026e60048036038101906102699190611449565b610b14565b60405161027b919061117a565b60405180910390f35b34801561029057600080fd5b506102ab60048036038101906102a691906114e3565b610b2a565b6040516102bc95949392919061151f565b60405180910390f35b600063150b7a0260e01b905095945050505050565b60008054906101000a900473ffffffffffffffffffffffffffffffffffffffff1673ffffffffffffffffffffffffffffffffffffffff163373ffffffffffffffffffffffffffffffffffffffff1614610368576040517f08c379a000000000000000000000000000000000000000000000000000000000815260040161035f906115cf565b60405180910390fd5b60006005549050600060058190555060008060009054906101000a900473ffffffffffffffffffffffffffffffffffffffff1673ffffffffffffffffffffffffffffffffffffffff16826040516103be90611620565b60006040518083038185875af1925050503d80600081146103fb576040519150601f19603f3d011682016040523d82523d6000602084013e610400565b606091505b5050905080610444576040517f08c379a000000000000000000000000000000000000000000000000000000000815260040161043b90611681565b60405180910390fd5b5050565b60008054906101000a900473ffffffffffffffffffffffffffffffffffffffff1681565b60055481565b60045481565b600063bc197c8160e01b905098975050505050505050565b60025434146104d4576040517f08c379a00000000000000000000000000000000000000000000000000000000081526004016104cb906116ed565b60405180910390fd5b34600560008282546104e6919061173c565b925050819055506000600160009054906101000a900473ffffffffffffffffffffffffffffffffffffffff1673ffffffffffffffffffffffffffffffffffffffff1663e0c862896040518163ffffffff1660e01b81526004016020604051808303816000875af115801561055e573d6000803e3d6000fd5b505050506040513d601f19601f820116820180604052508101906105829190611785565b90506000600454600160009054906101000a900473ffffffffffffffffffffffffffffffffffffffff1673ffffffffffffffffffffffffffffffffffffffff16634b3c08f3846040518263ffffffff1660e01b81526004016105e491906111ce565b602060405180830381865afa158015610601573d6000803e3d6000fd5b505050506040513d601f19601f820116820180604052508101906106259190611785565b61062f91906117e1565b90506000805b600380549050811015610871576003818154811061065657610655611812565b5b90600052602060002090600502016004015482610673919061173c565b91508183101561085e57610744336003838154811061069557610694611812565b5b90600052602060002090600502016040518060a00160405290816000820160009054906101000a900473ffffffffffffffffffffffffffffffffffffffff1673ffffffffffffffffffffffffffffffffffffffff1673ffffffffffffffffffffffffffffffffffffffff16815260200160018201548152602001600282015481526020016003820160009054906101000a900460ff1660ff1660ff168152602001600482015481525050610b9d565b3373ffffffffffffffffffffffffffffffffffffffff167f17ced05208dce501faa2f3fc040613c27bfc72fde250f2caff3358b8a4a7c2df600383815481106107905761078f611812565b5b906000526020600020906005020160000160009054906101000a900473ffffffffffffffffffffffffffffffffffffffff16600384815481106107d6576107d5611812565b5b906000526020600020906005020160010154600385815481106107fc576107fb611812565b5b9060005260206000209060050201600201546003868154811061082257610821611812565b5b906000526020600020906005020160030160009054906101000a900460ff166040516108519493929190611841565b60405180910390a2610871565b808061086990611886565b915050610635565b503373ffffffffffffffffffffffffffffffffffffffff167fb73d415d4554d9bc64f3fadea1d75caaeb0f4db5b74538b5e5dcbce2660e6240846040516108b891906111ce565b60405180910390a2505050565b600160009054906101000a900473ffffffffffffffffffffffffffffffffffffffff1681565b60008054906101000a900473ffffffffffffffffffffffffffffffffffffffff1673ffffffffffffffffffffffffffffffffffffffff163373ffffffffffffffffffffffffffffffffffffffff1614610979576040517f08c379a0000000000000000000000000000000000000000000000000000000008152600401610970906115cf565b60405180910390fd5b600081116109bc576040517f08c379a00000000000000000000000000000000000000000000000000000000081526004016109b39061191a565b60405180910390fd5b60036040518060a001604052808773ffffffffffffffffffffffffffffffffffffffff1681526020018681526020018581526020018460ff16815260200183815250908060018154018082558091505060019003906000526020600020906005020160009091909190915060008201518160000160006101000a81548173ffffffffffffffffffffffffffffffffffffffff021916908373ffffffffffffffffffffffffffffffffffffffff160217905550602082015181600101556040820151816002015560608201518160030160006101000a81548160ff021916908360ff1602179055506080820151816004015550508060046000828254610ac1919061173c565b925050819055507f639a6f740f0d47af0b756da10f45d561f9a5ce4605e4eed873d8b96dcab560848585858585604051610aff95949392919061151f565b60405180910390a15050505050565b60025481565b600063f23a6e6160e01b90509695505050505050565b60038181548110610b3a57600080fd5b90600052602060002090600502016000915090508060000160009054906101000a900473ffffffffffffffffffffffffffffffffffffffff16908060010154908060020154908060030160009054906101000a900460ff16908060040154905085565b6000816060015160ff1603610cf6576000816000015173ffffffffffffffffffffffffffffffffffffffff16838360400151604051602401610be092919061193a565b6040516020818303038152906040527fa9059cbb000000000000000000000000000000000000000000000000000000007bffffffffffffffffffffffffffffffffffffffffffffffffffffffff19166020820180517bffffffffffffffffffffffffffffffffffffffffffffffffffffffff8381831617835250505050604051610c6a91906119c9565b6000604051808303816000865af19150503d8060008114610ca7576040519150601f19603f3d011682016040523d82523d6000602084013e610cac565b606091505b5050905080610cf0576040517f08c379a0000000000000000000000000000000000000000000000000000000008152600401610ce790611a2c565b60405180910390fd5b50610fb0565b6001816060015160ff1603610e51576000816000015173ffffffffffffffffffffffffffffffffffffffff1630848460200151604051602401610d3b93929190611a4c565b6040516020818303038152906040527f42842e0e000000000000000000000000000000000000000000000000000000007bffffffffffffffffffffffffffffffffffffffffffffffffffffffff19166020820180517bffffffffffffffffffffffffffffffffffffffffffffffffffffffff8381831617835250505050604051610dc591906119c9565b6000604051808303816000865af19150503d8060008114610e02576040519150601f19603f3d011682016040523d82523d6000602084013e610e07565b606091505b5050905080610e4b576040517f08c379a0000000000000000000000000000000000000000000000000000000008152600401610e4290611acf565b60405180910390fd5b50610faf565b6002816060015160ff1603610fae576000816000015173ffffffffffffffffffffffffffffffffffffffff16308484602001518560400151604051602401610e9c9493929190611b12565b6040516020818303038152906040527ff242432a000000000000000000000000000000000000000000000000000000007bffffffffffffffffffffffffffffffffffffffffffffffffffffffff19166020820180517bffffffffffffffffffffffffffffffffffffffffffffffffffffffff8381831617835250505050604051610f2691906119c9565b6000604051808303816000865af19150503d8060008114610f63576040519150601f19603f3d011682016040523d82523d6000602084013e610f68565b606091505b5050905080610fac576040517f08c379a0000000000000000000000000000000000000000000000000000000008152600401610fa390611bb6565b60405180910390fd5b505b5b5b5050565b600080fd5b600080fd5b600073ffffffffffffffffffffffffffffffffffffffff82169050919050565b6000610fe982610fbe565b9050919050565b610ff981610fde565b811461100457600080fd5b50565b60008135905061101681610ff0565b92915050565b6000819050919050565b61102f8161101c565b811461103a57600080fd5b50565b60008135905061104c81611026565b92915050565b600080fd5b600080fd5b600080fd5b60008083601f84011261107757611076611052565b5b8235905067ffffffffffffffff81111561109457611093611057565b5b6020830191508360018202830111156110b0576110af61105c565b5b9250929050565b6000806000806000608086880312156110d3576110d2610fb4565b5b60006110e188828901611007565b95505060206110f288828901611007565b94505060406111038882890161103d565b935050606086013567ffffffffffffffff81111561112457611123610fb9565b5b61113088828901611061565b92509250509295509295909350565b60007fffffffff0000000000000000000000000000000000000000000000000000000082169050919050565b6111748161113f565b82525050565b600060208201905061118f600083018461116b565b92915050565b61119e81610fde565b82525050565b60006020820190506111b96000830184611195565b92915050565b6111c88161101c565b82525050565b60006020820190506111e360008301846111bf565b92915050565b60008083601f8401126111ff576111fe611052565b5b8235905067ffffffffffffffff81111561121c5761121b611057565b5b6020830191508360208202830111156112385761123761105c565b5b9250929050565b60008060008060008060008060a0898b03121561125f5761125e610fb4565b5b600061126d8b828c01611007565b985050602061127e8b828c01611007565b975050604089013567ffffffffffffffff81111561129f5761129e610fb9565b5b6112ab8b828c016111e9565b9650965050606089013567ffffffffffffffff8111156112ce576112cd610fb9565b5b6112da8b828c016111e9565b9450945050608089013567ffffffffffffffff8111156112fd576112fc610fb9565b5b6113098b828c01611061565b92509250509295985092959890939650565b6000819050919050565b600061134061133b61133684610fbe565b61131b565b610fbe565b9050919050565b600061135282611325565b9050919050565b600061136482611347565b9050919050565b61137481611359565b82525050565b600060208201905061138f600083018461136b565b92915050565b600060ff82169050919050565b6113ab81611395565b81146113b657600080fd5b50565b6000813590506113c8816113a2565b92915050565b600080600080600060a086880312156113ea576113e9610fb4565b5b60006113f888828901611007565b95505060206114098882890161103d565b945050604061141a8882890161103d565b935050606061142b888289016113b9565b925050608061143c8882890161103d565b9150509295509295909350565b60008060008060008060a0878903121561146657611465610fb4565b5b600061147489828a01611007565b965050602061148589828a01611007565b955050604061149689828a0161103d565b94505060606114a789828a0161103d565b935050608087013567ffffffffffffffff8111156114c8576114c7610fb9565b5b6114d489828a01611061565b92509250509295509295509295565b6000602082840312156114f9576114f8610fb4565b5b60006115078482850161103d565b91505092915050565b61151981611395565b82525050565b600060a0820190506115346000830188611195565b61154160208301876111bf565b61154e60408301866111bf565b61155b6060830185611510565b61156860808301846111bf565b9695505050505050565b600082825260208201905092915050565b7f4e6f74206f776e65720000000000000000000000000000000000000000000000600082015250565b60006115b9600983611572565b91506115c482611583565b602082019050919050565b600060208201905081810360008301526115e8816115ac565b9050919050565b600081905092915050565b50565b600061160a6000836115ef565b9150611615826115fa565b600082019050919050565b600061162b826115fd565b9150819050919050565b7f5769746864726177206661696c65640000000000000000000000000000000000600082015250565b600061166b600f83611572565b915061167682611635565b602082019050919050565b6000602082019050818103600083015261169a8161165e565b9050919050565b7f496e636f72726563742066656500000000000000000000000000000000000000600082015250565b60006116d7600d83611572565b91506116e2826116a1565b602082019050919050565b60006020820190508181036000830152611706816116ca565b9050919050565b7f4e487b7100000000000000000000000000000000000000000000000000000000600052601160045260246000fd5b60006117478261101c565b91506117528361101c565b925082820190508082111561176a5761176961170d565b5b92915050565b60008151905061177f81611026565b92915050565b60006020828403121561179b5761179a610fb4565b5b60006117a984828501611770565b91505092915050565b7f4e487b7100000000000000000000000000000000000000000000000000000000600052601260045260246000fd5b60006117ec8261101c565b91506117f78361101c565b925082611807576118066117b2565b5b828206905092915050565b7f4e487b7100000000000000000000000000000000000000000000000000000000600052603260045260246000fd5b60006080820190506118566000830187611195565b61186360208301866111bf565b61187060408301856111bf565b61187d6060830184611510565b95945050505050565b60006118918261101c565b91507fffffffffffffffffffffffffffffffffffffffffffffffffffffffffffffffff82036118c3576118c261170d565b5b600182019050919050565b7f576569676874206d757374206265203e20300000000000000000000000000000600082015250565b6000611904601283611572565b915061190f826118ce565b602082019050919050565b60006020820190508181036000830152611933816118f7565b9050919050565b600060408201905061194f6000830185611195565b61195c60208301846111bf565b9392505050565b600081519050919050565b60005b8381101561198c578082015181840152602081019050611971565b60008484015250505050565b60006119a382611963565b6119ad81856115ef565b93506119bd81856020860161196e565b80840191505092915050565b60006119d58284611998565b915081905092915050565b7f4552433230207472616e73666572206661696c65640000000000000000000000600082015250565b6000611a16601583611572565b9150611a21826119e0565b602082019050919050565b60006020820190508181036000830152611a4581611a09565b9050919050565b6000606082019050611a616000830186611195565b611a6e6020830185611195565b611a7b60408301846111bf565b949350505050565b7f455243373231207472616e73666572206661696c656400000000000000000000600082015250565b6000611ab9601683611572565b9150611ac482611a83565b602082019050919050565b60006020820190508181036000830152611ae881611aac565b9050919050565b6000611afc600083611572565b9150611b07826115fa565b600082019050919050565b600060a082019050611b276000830187611195565b611b346020830186611195565b611b4160408301856111bf565b611b4e60608301846111bf565b8181036080830152611b5f81611aef565b905095945050505050565b7f45524331313535207472616e73666572206661696c6564000000000000000000600082015250565b6000611ba0601783611572565b9150611bab82611b6a565b602082019050919050565b60006020820190508181036000830152611bcf81611b93565b905091905056fea2646970667358221220b138745c48450596b53a060313ae8681bdf15a240323900ee33af08e09959f0264736f6c63430008140033",
  "linkReferences": {},
  "deployedLinkReferences": {}
}