{"contracts/MockToken.sol":{"MockToken":{"abi":[{"inputs":[],"stateMutability":"nonpayable","type":"constructor"},{"inputs":[],"name":"ECDSAInvalidSignature","type":"error"},{"inputs":[{"internalType":"uint256","name":"length","type":"uint256"}],"name":"ECDSAInvalidSignatureLength","type":"error"},{"inputs":[{"internalType":"bytes32","name":"s","type":"bytes32"}],"name":"ECDSAInvalidSignatureS","type":"error"},{"inputs":[{"internalType":"address","name":"spender","type":"address"},{"internalType":"uint256","name":"allowance","type":"uint256"},{"internalType":"uint256","name":"needed","type":"uint256"}],"name":"ERC20InsufficientAllowance","type":"error"},{"inputs":[{"internalType":"address","name":"sender","type":"address"},{"internalType":"uint256","name":"balance","type":"uint256"},{"internalType":"uint256","name":"needed","type":"uint256"}],"name":"ERC20InsufficientBalance","type":"error"},{"inputs":[{"internalType":"address","name":"approver","type":"address"}],"name":"ERC20InvalidApprover","type":"error"},{"inputs":[{"internalType":"address","name":"receiver","type":"address"}],"name":"ERC20InvalidReceiver","type":"error"},{"inputs":[{"internalType":"address","name":"sender","type":"address"}],"name":"ERC20InvalidSender","type":"error"},{"inputs":[{"internalType":"address","name":"spender","type":"address"}],"name":"ERC20InvalidSpender","type":"error"},{"inputs":[{"internalType":"uint256","name":"deadline","type":"uint256"}],"name":"ERC2612ExpiredSignature","type":"error"},{"inputs":[{"internalType":"address","name":"signer","type":"address"},{"internalType":"address","name":"owner","type":"address"}],"name":"ERC2612InvalidSigner","type":"error"},{"inputs":[{"internalType":"address","name":"account","type":"address"},{"internalType":"uint256","name":"currentNonce","type":"uint256"}],"name":"InvalidAccountNonce","type":"error"},{"inputs":[],"name":"InvalidShortString","type":"error"},{"inputs":[{"internalType":"string","name":"str","type":"string"}],"name":"StringTooLong","type":"error"},{"anonymous":false,"inputs":[{"indexed":true,"internalType":"address","name":"owner","type":"address"},{"indexed":true,"internalType":"address","name":"spender","type":"address"},{"indexed":false,"internalType":"uint256","name":"value","type":"uint256"}],"name":"Approval","type":"event"},{"anonymous":false,"inputs":[],"name":"EIP712DomainChanged","type":"event"},{"anonymous":false,"inputs":[{"indexed":true,"internalType":"address","name":"from","type":"address"},{"indexed":true,"internalType":"address","name":"to","type":"address"},{"indexed":false,"internalType":"uint256","name":"value","type":"uint256"}],"name":"Transfer","type":"event"},{"inputs":[],"name":"DOMAIN_SEPARATOR","outputs":[{"internalType":"bytes32","name":"","type":"bytes32"}],"stateMutability":"view","type":"function"},{"inputs":[{"internalType":"address","name":"owner","type":"address"},{"internalType":"address","name":"spender","type":"address"}],"name":"allowance","outputs":[{"internalType":"uint256","name":"","type":"uint256"}],"stateMutability":"view","type":"function"},{"inputs":[{"internalType":"address","name":"spender","type":"address"},{"internalType":"uint256","name":"value","type":"uint256"}],"name":"approve","outputs":[{"internalType":"bool","name":"","type":"bool"}],"stateMutability":"nonpayable","type":"function"},{"inputs":[{"internalType":"address","name":"account","type":"address"}],"name":"balanceOf","outputs":[{"internalType":"uint256","name":"","type":"uint256"}],"stateMutability":"view","type":"function"},{"inputs":[],"name":"decimals","outputs":[{"internalType":"uint8","name":"","type":"uint8"}],"stateMutability":"view","type":"function"},{"inputs":[],"name":"eip712Domain","outputs":[{"internalType":"bytes1","name":"fields","type":"bytes1"},{"internalType":"string","name":"name","type":"string"},{"internalType":"string","name":"version","type":"string"},{"internalType":"uint256","name":"chainId","type":"uint256"},{"internalType":"address","name":"verifyingContract","type":"address"},{"internalType":"bytes32","name":"salt","type":"bytes32"},{"internalType":"uint256[]","name":"extensions","type":"uint256[]"}],"stateMutability":"view","type":"function"},{"inputs":[],"name":"name","outputs":[{"internalType":"string","name":"","type":"string"}],"stateMutability":"view","type":"function"},{"inputs":[{"internalType":"address","name":"owner","type":"address"}],"name":"nonces","outputs":[{"internalType":"uint256","name":"","type":"uint256"}],"stateMutability":"view","type":"function"},{"inputs":[{"internalType":"address","name":"owner","type":"address"},{"internalType":"address","name":"spender","type":"address"},{"internalType":"uint256","name":"value","type":"uint256"},{"internalType":"uint256","name":"deadline","type":"uint256"},{"internalType":"uint8","name":"v","type":"uint8"},{"internalType":"bytes32","name":"r","type":"bytes32"},{"internalType":"bytes32","name":"s","type":"bytes32"}],"name":"permit","outputs":[],"stateMutability":"nonpayable","type":"function"},{"inputs":[],"name":"symbol","outputs":[{"internalType":"string","name":"","type":"string"}],"stateMutability":"view","type":"function"},{"inputs":[],"name":"totalSupply","outputs":[{"internalType":"uint256","name":"","type":"uint256"}],"stateMutability":"view","type":"function"},{"inputs":[{"internalType":"address","name":"to","type":"address"},{"internalType":"uint256","name":"value","type":"uint256"}],"name":"transfer","outputs":[{"internalType":"bool","name":"","type":"bool"}],"stateMutability":"nonpayable","type":"function"},{"inputs":[{"internalType":"address","name":"from","type":"address"},{"internalType":"address","name":"to","type":"address"},{"internalType":"uint256","name":"value","type":"uint256"}],"name":"transferFrom","outputs":[{"internalType":"bool","name":"","type":"bool"}],"stateMutability":"nonpayable","type":"function"}],"evm":{"bytecode":{"linkReferences":{},"object":"61016060405234801561001157600080fd5b506040518060400160405280600a81526020017f4d6f636b20546f6b656e00000000000000000000000000000000000000000000815250806040518060400160405280600181526020017f31000000000000000000000000000000000000000000000000000000000000008152506040518060400160405280600a81526020017f4d6f636b20546f6b656e000000000000000000000000000000000000000000008152506040518060400160405280600481526020017f4d4f434b0000000000000000000000000000000000000000000000000000000081525081600390816100fa91906107f1565b50806004908161010a91906107f1565b5050506101216005836101d760201b90919060201c565b610120818152505061013d6006826101d760201b90919060201c565b6101408181525050818051906020012060e08181525050808051906020012061010081815250504660a0818152505061017a61022760201b60201c565b608081815250503073ffffffffffffffffffffffffffffffffffffffff1660c08173ffffffffffffffffffffffffffffffffffffffff16815250505050506101d23369d3c21bcecceda100000061028260201b60201c565b610b8d565b60006020835110156101f9576101f28361030a60201b60201c565b9050610221565b826102098361037260201b60201c565b600001908161021891906107f1565b5060ff60001b90505b92915050565b60007f8b73c3c69bb8fe3d512ecc4cf759cc79239f7b179b0ffacaa9a75d522b39400f60e05161010051463060405160200161026795949392919061092c565b60405160208183030381529060405280519060200120905090565b600073ffffffffffffffffffffffffffffffffffffffff168273ffffffffffffffffffffffffffffffffffffffff16036102f45760006040517fec442f050000000000000000000000000000000000000000000000000000000081526004016102eb919061097f565b60405180910390fd5b6103066000838361037c60201b60201c565b5050565b600080829050601f8151111561035757826040517f305a27a900000000000000000000000000000000000000000000000000000000815260040161034e9190610a1f565b60405180910390fd5b80518161036390610a71565b60001c1760001b915050919050565b6000819050919050565b600073ffffffffffffffffffffffffffffffffffffffff168373ffffffffffffffffffffffffffffffffffffffff16036103ce5780600260008282546103c29190610b07565b925050819055506104a1565b60008060008573ffffffffffffffffffffffffffffffffffffffff1673ffffffffffffffffffffffffffffffffffffffff1681526020019081526020016000205490508181101561045a578381836040517fe450d38c00000000000000000000000000000000000000000000000000000000815260040161045193929190610b3b565b60405180910390fd5b8181036000808673ffffffffffffffffffffffffffffffffffffffff1673ffffffffffffffffffffffffffffffffffffffff16815260200190815260200160002081905550505b600073ffffffffffffffffffffffffffffffffffffffff168273ffffffffffffffffffffffffffffffffffffffff16036104ea5780600260008282540392505081905550610537565b806000808473ffffffffffffffffffffffffffffffffffffffff1673ffffffffffffffffffffffffffffffffffffffff168152602001908152602001600020600082825401925050819055505b8173ffffffffffffffffffffffffffffffffffffffff168373ffffffffffffffffffffffffffffffffffffffff167fddf252ad1be2c89b69c2b068fc378daa952ba7f163c4a11628f55a4df523b3ef836040516105949190610b72565b60405180910390a3505050565b600081519050919050565b7f4e487b7100000000000000000000000000000000000000000000000000000000600052604160045260246000fd5b7f4e487b7100000000000000000000000000000000000000000000000000000000600052602260045260246000fd5b6000600282049050600182168061062257607f821691505b602082108103610635576106346105db565b5b50919050565b60008190508160005260206000209050919050565b60006020601f8301049050919050565b600082821b905092915050565b60006008830261069d7fffffffffffffffffffffffffffffffffffffffffffffffffffffffffffffffff82610660565b6106a78683610660565b95508019841693508086168417925050509392505050565b6000819050919050565b6000819050919050565b60006106ee6106e96106e4846106bf565b6106c9565b6106bf565b9050919050565b6000819050919050565b610708836106d3565b61071c610714826106f5565b84845461066d565b825550505050565b600090565b610731610724565b61073c8184846106ff565b505050565b5b8181101561076057610755600082610729565b600181019050610742565b5050565b601f8211156107a5576107768161063b565b61077f84610650565b8101602085101561078e578190505b6107a261079a85610650565b830182610741565b50505b505050565b600082821c905092915050565b60006107c8600019846008026107aa565b1980831691505092915050565b60006107e183836107b7565b9150826002028217905092915050565b6107fa826105a1565b67ffffffffffffffff811115610813576108126105ac565b5b61081d825461060a565b610828828285610764565b600060209050601f83116001811461085b5760008415610849578287015190505b61085385826107d5565b8655506108bb565b601f1984166108698661063b565b60005b828110156108915784890151825560018201915060208501945060208101905061086c565b868310156108ae57848901516108aa601f8916826107b7565b8355505b6001600288020188555050505b505050505050565b6000819050919050565b6108d6816108c3565b82525050565b6108e5816106bf565b82525050565b600073ffffffffffffffffffffffffffffffffffffffff82169050919050565b6000610916826108eb565b9050919050565b6109268161090b565b82525050565b600060a08201905061094160008301886108cd565b61094e60208301876108cd565b61095b60408301866108cd565b61096860608301856108dc565b610975608083018461091d565b9695505050505050565b6000602082019050610994600083018461091d565b92915050565b600082825260208201905092915050565b60005b838110156109c95780820151818401526020810190506109ae565b60008484015250505050565b6000601f19601f8301169050919050565b60006109f1826105a1565b6109fb818561099a565b9350610a0b8185602086016109ab565b610a14816109d5565b840191505092915050565b60006020820190508181036000830152610a3981846109e6565b905092915050565b600081519050919050565b6000819050602082019050919050565b6000610a6882516108c3565b80915050919050565b6000610a7c82610a41565b82610a8684610a4c565b9050610a9181610a5c565b92506020821015610ad157610acc7fffffffffffffffffffffffffffffffffffffffffffffffffffffffffffffffff83602003600802610660565b831692505b5050919050565b7f4e487b7100000000000000000000000000000000000000000000000000000000600052601160045260246000fd5b6000610b12826106bf565b9150610b1d836106bf565b9250828201905080821115610b3557610b34610ad8565b5b92915050565b6000606082019050610b50600083018661091d565b610b5d60208301856108dc565b610b6a60408301846108dc565b949350505050565b6000602082019050610b8760008301846108dc565b92915050565b60805160a05160c05160e051610100516101205161014051611c18610be76000396000610a3f01526000610a0401526000610f5401526000610f33015260006108ff015260006109550152600061097e0152611c186000f3fe608060405234801561001057600080fd5b50600436106100cf5760003560e01c806370a082311161008c57806395d89b411161006657806395d89b4114610230578063a9059cbb1461024e578063d505accf1461027e578063dd62ed3e1461029a576100cf565b806370a08231146101ac5780637ecebe00146101dc57806384b0196e1461020c576100cf565b806306fdde03146100d4578063095ea7b3146100f257806318160ddd1461012257806323b872dd14610140578063313ce567146101705780633644e5151461018e575b600080fd5b6100dc6102ca565b6040516100e99190611441565b60405180910390f35b61010c600480360381019061010791906114fc565b61035c565b6040516101199190611557565b60405180910390f35b61012a61037f565b6040516101379190611581565b60405180910390f35b61015a6004803603810190610155919061159c565b610389565b6040516101679190611557565b60405180910390f35b6101786103b8565b604051610185919061160b565b60405180910390f35b6101966103c1565b6040516101a3919061163f565b60405180910390f35b6101c660048036038101906101c1919061165a565b6103d0565b6040516101d39190611581565b60405180910390f35b6101f660048036038101906101f1919061165a565b610418565b6040516102039190611581565b60405180910390f35b61021461042a565b604051610227979695949392919061178f565b60405180910390f35b6102386104d4565b6040516102459190611441565b60405180910390f35b610268600480360381019061026391906114fc565b610566565b6040516102759190611557565b60405180910390f35b6102986004803603810190610293919061186b565b610589565b005b6102b460048036038101906102af919061190d565b6106d1565b6040516102c19190611581565b60405180910390f35b6060600380546102d99061197c565b80601f01602080910402602001604051908101604052809291908181526020018280546103059061197c565b80156103525780601f1061032757610100808354040283529160200191610352565b820191906000526020600020905b81548152906001019060200180831161033557829003601f168201915b5050505050905090565b600080610367610758565b9050610374818585610760565b600191505092915050565b6000600254905090565b600080610394610758565b90506103a1858285610772565b6103ac858585610807565b60019150509392505050565b60006012905090565b60006103cb6108fb565b905090565b60008060008373ffffffffffffffffffffffffffffffffffffffff1673ffffffffffffffffffffffffffffffffffffffff168152602001908152602001600020549050919050565b6000610423826109b2565b9050919050565b60006060806000806000606061043e6109fb565b610446610a36565b46306000801b600067ffffffffffffffff811115610467576104666119ad565b5b6040519080825280602002602001820160405280156104955781602001602082028036833780820191505090505b507f0f00000000000000000000000000000000000000000000000000000000000000959493929190965096509650965096509650965090919293949596565b6060600480546104e39061197c565b80601f016020809104026020016040519081016040528092919081815260200182805461050f9061197c565b801561055c5780601f106105315761010080835404028352916020019161055c565b820191906000526020600020905b81548152906001019060200180831161053f57829003601f168201915b5050505050905090565b600080610571610758565b905061057e818585610807565b600191505092915050565b834211156105ce57836040517f627913020000000000000000000000000000000000000000000000000000000081526004016105c59190611581565b60405180910390fd5b60007f6e71edae12b1b97f4d1f60370fef10105fa2faae0126114a169c64845d6126c98888886105fd8c610a71565b89604051602001610613969594939291906119dc565b604051602081830303815290604052805190602001209050600061063682610ac8565b9050600061064682878787610ae2565b90508973ffffffffffffffffffffffffffffffffffffffff168173ffffffffffffffffffffffffffffffffffffffff16146106ba57808a6040517f4b800e460000000000000000000000000000000000000000000000000000000081526004016106b1929190611a3d565b60405180910390fd5b6106c58a8a8a610760565b50505050505050505050565b6000600160008473ffffffffffffffffffffffffffffffffffffffff1673ffffffffffffffffffffffffffffffffffffffff16815260200190815260200160002060008373ffffffffffffffffffffffffffffffffffffffff1673ffffffffffffffffffffffffffffffffffffffff16815260200190815260200160002054905092915050565b600033905090565b61076d8383836001610b12565b505050565b600061077e84846106d1565b90507fffffffffffffffffffffffffffffffffffffffffffffffffffffffffffffffff81101561080157818110156107f1578281836040517ffb8f41b20000000000000000000000000000000000000000000000000000000081526004016107e893929190611a66565b60405180910390fd5b61080084848484036000610b12565b5b50505050565b600073ffffffffffffffffffffffffffffffffffffffff168373ffffffffffffffffffffffffffffffffffffffff16036108795760006040517f96c6fd1e0000000000000000000000000000000000000000000000000000000081526004016108709190611a9d565b60405180910390fd5b600073ffffffffffffffffffffffffffffffffffffffff168273ffffffffffffffffffffffffffffffffffffffff16036108eb5760006040517fec442f050000000000000000000000000000000000000000000000000000000081526004016108e29190611a9d565b60405180910390fd5b6108f6838383610ce9565b505050565b60007f000000000000000000000000000000000000000000000000000000000000000073ffffffffffffffffffffffffffffffffffffffff163073ffffffffffffffffffffffffffffffffffffffff1614801561097757507f000000000000000000000000000000000000000000000000000000000000000046145b156109a4577f000000000000000000000000000000000000000000000000000000000000000090506109af565b6109ac610f0e565b90505b90565b6000600760008373ffffffffffffffffffffffffffffffffffffffff1673ffffffffffffffffffffffffffffffffffffffff168152602001908152602001600020549050919050565b6060610a3160057f0000000000000000000000000000000000000000000000000000000000000000610fa490919063ffffffff16565b905090565b6060610a6c60067f0000000000000000000000000000000000000000000000000000000000000000610fa490919063ffffffff16565b905090565b6000600760008373ffffffffffffffffffffffffffffffffffffffff1673ffffffffffffffffffffffffffffffffffffffff1681526020019081526020016000206000815480929190600101919050559050919050565b6000610adb610ad56108fb565b83611054565b9050919050565b600080600080610af488888888611095565b925092509250610b048282611189565b829350505050949350505050565b600073ffffffffffffffffffffffffffffffffffffffff168473ffffffffffffffffffffffffffffffffffffffff1603610b845760006040517fe602df05000000000000000000000000000000000000000000000000000000008152600401610b7b9190611a9d565b60405180910390fd5b600073ffffffffffffffffffffffffffffffffffffffff168373ffffffffffffffffffffffffffffffffffffffff1603610bf65760006040517f94280d62000000000000000000000000000000000000000000000000000000008152600401610bed9190611a9d565b60405180910390fd5b81600160008673ffffffffffffffffffffffffffffffffffffffff1673ffffffffffffffffffffffffffffffffffffffff16815260200190815260200160002060008573ffffffffffffffffffffffffffffffffffffffff1673ffffffffffffffffffffffffffffffffffffffff168152602001908152602001600020819055508015610ce3578273ffffffffffffffffffffffffffffffffffffffff168473ffffffffffffffffffffffffffffffffffffffff167f8c5be1e5ebec7d5bd14f71427d1e84f3dd0314c0f7b2291e5b200ac8c7c3b92584604051610cda9190611581565b60405180910390a35b50505050565b600073ffffffffffffffffffffffffffffffffffffffff168373ffffffffffffffffffffffffffffffffffffffff1603610d3b578060026000828254610d2f9190611ae7565b92505081905550610e0e565b60008060008573ffffffffffffffffffffffffffffffffffffffff1673ffffffffffffffffffffffffffffffffffffffff16815260200190815260200160002054905081811015610dc7578381836040517fe450d38c000000000000000000000000000000000000000000000000000000008152600401610dbe93929190611a66565b60405180910390fd5b8181036000808673ffffffffffffffffffffffffffffffffffffffff1673ffffffffffffffffffffffffffffffffffffffff16815260200190815260200160002081905550505b600073ffffffffffffffffffffffffffffffffffffffff168273ffffffffffffffffffffffffffffffffffffffff1603610e575780600260008282540392505081905550610ea4565b806000808473ffffffffffffffffffffffffffffffffffffffff1673ffffffffffffffffffffffffffffffffffffffff168152602001908152602001600020600082825401925050819055505b8173ffffffffffffffffffffffffffffffffffffffff168373ffffffffffffffffffffffffffffffffffffffff167fddf252ad1be2c89b69c2b068fc378daa952ba7f163c4a11628f55a4df523b3ef83604051610f019190611581565b60405180910390a3505050565b60007f8b73c3c69bb8fe3d512ecc4cf759cc79239f7b179b0ffacaa9a75d522b39400f7f00000000000000000000000000000000000000000000000000000000000000007f00000000000000000000000000000000000000000000000000000000000000004630604051602001610f89959493929190611b1b565b60405160208183030381529060405280519060200120905090565b606060ff60001b8314610fc157610fba836112ed565b905061104e565b818054610fcd9061197c565b80601f0160208091040260200160405190810160405280929190818152602001828054610ff99061197c565b80156110465780601f1061101b57610100808354040283529160200191611046565b820191906000526020600020905b81548152906001019060200180831161102957829003601f168201915b505050505090505b92915050565b60006040517f190100000000000000000000000000000000000000000000000000000000000081528360028201528260228201526042812091505092915050565b60008060007f7fffffffffffffffffffffffffffffff5d576e7357a4501ddfe92f46681b20a08460001c11156110d557600060038592509250925061117f565b6000600188888888604051600081526020016040526040516110fa9493929190611b6e565b6020604051602081039080840390855afa15801561111c573d6000803e3d6000fd5b505050602060405103519050600073ffffffffffffffffffffffffffffffffffffffff168173ffffffffffffffffffffffffffffffffffffffff160361117057600060016000801b9350935093505061117f565b8060008060001b935093509350505b9450945094915050565b6000600381111561119d5761119c611bb3565b5b8260038111156111b0576111af611bb3565b5b03156112e957600160038111156111ca576111c9611bb3565b5b8260038111156111dd576111dc611bb3565b5b03611214576040517ff645eedf00000000000000000000000000000000000000000000000000000000815260040160405180910390fd5b6002600381111561122857611227611bb3565b5b82600381111561123b5761123a611bb3565b5b03611280578060001c6040517ffce698f70000000000000000000000000000000000000000000000000000000081526004016112779190611581565b60405180910390fd5b60038081111561129357611292611bb3565b5b8260038111156112a6576112a5611bb3565b5b036112e857806040517fd78bce0c0000000000000000000000000000000000000000000000000000000081526004016112df919061163f565b60405180910390fd5b5b5050565b606060006112fa83611361565b90506000602067ffffffffffffffff811115611319576113186119ad565b5b6040519080825280601f01601f19166020018201604052801561134b5781602001600182028036833780820191505090505b5090508181528360208201528092505050919050565b60008060ff8360001c169050601f8111156113a8576040517fb3512b0c00000000000000000000000000000000000000000000000000000000815260040160405180910390fd5b80915050919050565b600081519050919050565b600082825260208201905092915050565b60005b838110156113eb5780820151818401526020810190506113d0565b60008484015250505050565b6000601f19601f8301169050919050565b6000611413826113b1565b61141d81856113bc565b935061142d8185602086016113cd565b611436816113f7565b840191505092915050565b6000602082019050818103600083015261145b8184611408565b905092915050565b600080fd5b600073ffffffffffffffffffffffffffffffffffffffff82169050919050565b600061149382611468565b9050919050565b6114a381611488565b81146114ae57600080fd5b50565b6000813590506114c08161149a565b92915050565b6000819050919050565b6114d9816114c6565b81146114e457600080fd5b50565b6000813590506114f6816114d0565b92915050565b6000806040838503121561151357611512611463565b5b6000611521858286016114b1565b9250506020611532858286016114e7565b9150509250929050565b60008115159050919050565b6115518161153c565b82525050565b600060208201905061156c6000830184611548565b92915050565b61157b816114c6565b82525050565b60006020820190506115966000830184611572565b92915050565b6000806000606084860312156115b5576115b4611463565b5b60006115c3868287016114b1565b93505060206115d4868287016114b1565b92505060406115e5868287016114e7565b9150509250925092565b600060ff82169050919050565b611605816115ef565b82525050565b600060208201905061162060008301846115fc565b92915050565b6000819050919050565b61163981611626565b82525050565b60006020820190506116546000830184611630565b92915050565b6000602082840312156116705761166f611463565b5b600061167e848285016114b1565b91505092915050565b60007fff0000000000000000000000000000000000000000000000000000000000000082169050919050565b6116bc81611687565b82525050565b6116cb81611488565b82525050565b600081519050919050565b600082825260208201905092915050565b6000819050602082019050919050565b611706816114c6565b82525050565b600061171883836116fd565b60208301905092915050565b6000602082019050919050565b600061173c826116d1565b61174681856116dc565b9350611751836116ed565b8060005b83811015611782578151611769888261170c565b975061177483611724565b925050600181019050611755565b5085935050505092915050565b600060e0820190506117a4600083018a6116b3565b81810360208301526117b68189611408565b905081810360408301526117ca8188611408565b90506117d96060830187611572565b6117e660808301866116c2565b6117f360a0830185611630565b81810360c08301526118058184611731565b905098975050505050505050565b61181c816115ef565b811461182757600080fd5b50565b60008135905061183981611813565b92915050565b61184881611626565b811461185357600080fd5b50565b6000813590506118658161183f565b92915050565b600080600080600080600060e0888a03121561188a57611889611463565b5b60006118988a828b016114b1565b97505060206118a98a828b016114b1565b96505060406118ba8a828b016114e7565b95505060606118cb8a828b016114e7565b94505060806118dc8a828b0161182a565b93505060a06118ed8a828b01611856565b92505060c06118fe8a828b01611856565b91505092959891949750929550565b6000806040838503121561192457611923611463565b5b6000611932858286016114b1565b9250506020611943858286016114b1565b9150509250929050565b7f4e487b7100000000000000000000000000000000000000000000000000000000600052602260045260246000fd5b6000600282049050600182168061199457607f821691505b6020821081036119a7576119a661194d565b5b50919050565b7f4e487b7100000000000000000000000000000000000000000000000000000000600052604160045260246000fd5b600060c0820190506119f16000830189611630565b6119fe60208301886116c2565b611a0b60408301876116c2565b611a186060830186611572565b611a256080830185611572565b611a3260a0830184611572565b979650505050505050565b6000604082019050611a5260008301856116c2565b611a5f60208301846116c2565b9392505050565b6000606082019050611a7b60008301866116c2565b611a886020830185611572565b611a956040830184611572565b949350505050565b6000602082019050611ab260008301846116c2565b92915050565b7f4e487b7100000000000000000000000000000000000000000000000000000000600052601160045260246000fd5b6000611af2826114c6565b9150611afd836114c6565b9250828201905080821115611b1557611b14611ab8565b5b92915050565b600060a082019050611b306000830188611630565b611b3d6020830187611630565b611b4a6040830186611630565b611b576060830185611572565b611b6460808301846116c2565b9695505050505050565b6000608082019050611b836000830187611630565b611b9060208301866115fc565b611b9d6040830185611630565b611baa6060830184611630565b95945050505050565b7f4e487b7100000000000000000000000000000000000000000000000000000000600052602160045260246000fdfea26469706673582212201b42cf02c4ab8a5c4ee671fc4b6fb0976940420c7a5f2a9d176e26f5c9867c3764736f6c634300081c0033","opcodes":"PUSH2 0x160 PUSH1 0x40 MSTORE CALLVALUE DUP1 ISZERO PUSH2 0x11 JUMPI PUSH1 0x0 DUP1 REVERT JUMPDEST POP PUSH1 0x40 MLOAD DUP1 PUSH1 0x40 ADD PUSH1 0x40 MSTORE DUP1 PUSH1 0xA DUP2 MSTORE PUSH1 0x20 ADD PUSH32 0x4D6F636B20546F6B656E00000000000000000000000000000000000000000000 DUP2 MSTORE POP DUP1 PUSH1 0x40 MLOAD DUP1 PUSH1 0x40 ADD PUSH1 0x40 MSTORE DUP1 PUSH1 0x1 DUP2 MSTORE PUSH1 0x20 ADD PUSH32 0x3100000000000000000000000000000000000000000000000000000000000000 DUP2 MSTORE POP PUSH1 0x40 MLOAD DUP1 PUSH1 0x40 ADD PUSH1 0x40 MSTORE DUP1 PUSH1 0xA DUP2 MSTORE PUSH1 0x20 ADD PUSH32 0x4D6F636B20546F6B656E00000000000000000000000000000000000000000000 DUP2 MSTORE POP PUSH1 0x40 MLOAD DUP1 PUSH1 0x40 ADD PUSH1 0x40 MSTORE DUP1 PUSH1 0x4 DUP2 MSTORE PUSH1 0x20 ADD PUSH32 0x4D4F434B00000000000000000000000000000000000000000000000000000000 DUP2 MSTORE POP DUP2 PUSH1 0x3 SWAP1 DUP2 PUSH2 0xFA SWAP2 SWAP1 PUSH2 0x7F1 JUMP JUMPDEST POP DUP1 PUSH1 0x4 SWAP1 DUP2 PUSH2 0x10A SWAP2 SWAP1 PUSH2 0x7F1 JUMP JUMPDEST POP POP POP PUSH2 0x121 PUSH1 0x5 DUP4 PUSH2 0x1D7 PUSH1 0x20 SHL SWAP1 SWAP2 SWAP1 PUSH1 0x20 SHR JUMP JUMPDEST PUSH2 0x120 DUP2 DUP2 MSTORE POP POP PUSH2 0x13D PUSH1 0x6 DUP3 PUSH2 0x1D7 PUSH1 0x20 SHL SWAP1 SWAP2 SWAP1 PUSH1 0x20 SHR JUMP JUMPDEST PUSH2 0x140 DUP2 DUP2 MSTORE POP POP DUP2 DUP1 MLOAD SWAP1 PUSH1 0x20 ADD KECCAK256 PUSH1 0xE0 DUP2 DUP2 MSTORE POP POP DUP1 DUP1 MLOAD SWAP1 PUSH1 0x20 ADD KECCAK256 PUSH2 0x100 DUP2 DUP2 MSTORE POP POP CHAINID PUSH1 0xA0 DUP2 DUP2 MSTORE POP POP PUSH2 0x17A PUSH2 0x227 PUSH1 0x20 SHL PUSH1 0x20 SHR JUMP JUMPDEST PUSH1 0x80 DUP2 DUP2 MSTORE POP POP ADDRESS PUSH20 0xFFFFFFFFFFFFFFFFFFFFFFFFFFFFFFFFFFFFFFFF AND PUSH1 0xC0 DUP2 PUSH20 0xFFFFFFFFFFFFFFFFFFFFFFFFFFFFFFFFFFFFFFFF AND DUP2 MSTORE POP POP POP POP POP PUSH2 0x1D2 CALLER PUSH10 0xD3C21BCECCEDA1000000 PUSH2 0x282 PUSH1 0x20 SHL PUSH1 0x20 SHR JUMP JUMPDEST PUSH2 0xB8D JUMP JUMPDEST PUSH1 0x0 PUSH1 0x20 DUP4 MLOAD LT ISZERO PUSH2 0x1F9 JUMPI PUSH2 0x1F2 DUP4 PUSH2 0x30A PUSH1 0x20 SHL PUSH1 0x20 SHR JUMP JUMPDEST SWAP1 POP PUSH2 0x221 JUMP JUMPDEST DUP3 PUSH2 0x209 DUP4 PUSH2 0x372 PUSH1 0x20 SHL PUSH1 0x20 SHR JUMP JUMPDEST PUSH1 0x0 ADD SWAP1 DUP2 PUSH2 0x218 SWAP2 SWAP1 PUSH2 0x7F1 JUMP JUMPDEST POP PUSH1 0xFF PUSH1 0x0 SHL SWAP1 POP JUMPDEST SWAP3 SWAP2 POP POP JUMP JUMPDEST PUSH1 0x0 PUSH32 0x8B73C3C69BB8FE3D512ECC4CF759CC79239F7B179B0FFACAA9A75D522B39400F PUSH1 0xE0 MLOAD PUSH2 0x100 MLOAD CHAINID ADDRESS PUSH1 0x40 MLOAD PUSH1 0x20 ADD PUSH2 0x267 SWAP6 SWAP5 SWAP4 SWAP3 SWAP2 SWAP1 PUSH2 0x92C JUMP JUMPDEST PUSH1 0x40 MLOAD PUSH1 0x20 DUP2 DUP4 SUB SUB DUP2 MSTORE SWAP1 PUSH1 0x40 MSTORE DUP1 MLOAD SWAP1 PUSH1 0x20 ADD KECCAK256 SWAP1 POP SWAP1 JUMP JUMPDEST PUSH1 0x0 PUSH20 0xFFFFFFFFFFFFFFFFFFFFFFFFFFFFFFFFFFFFFFFF AND DUP3 PUSH20 0xFFFFFFFFFFFFFFFFFFFFFFFFFFFFFFFFFFFFFFFF AND SUB PUSH2 0x2F4 JUMPI PUSH1 0x0 PUSH1 0x40 MLOAD PUSH32 0xEC442F0500000000000000000000000000000000000000000000000000000000 DUP2 MSTORE PUSH1 0x4 ADD PUSH2 0x2EB SWAP2 SWAP1 PUSH2 0x97F JUMP JUMPDEST PUSH1 0x40 MLOAD DUP1 SWAP2 SUB SWAP1 REVERT JUMPDEST PUSH2 0x306 PUSH1 0x0 DUP4 DUP4 PUSH2 0x37C PUSH1 0x20 SHL PUSH1 0x20 SHR JUMP JUMPDEST POP POP JUMP JUMPDEST PUSH1 0x0 DUP1 DUP3 SWAP1 POP PUSH1 0x1F DUP2 MLOAD GT ISZERO PUSH2 0x357 JUMPI DUP3 PUSH1 0x40 MLOAD PUSH32 0x305A27A900000000000000000000000000000000000000000000000000000000 DUP2 MSTORE PUSH1 0x4 ADD PUSH2 0x34E SWAP2 SWAP1 PUSH2 0xA1F JUMP JUMPDEST PUSH1 0x40 MLOAD DUP1 SWAP2 SUB SWAP1 REVERT JUMPDEST DUP1 MLOAD DUP2 PUSH2 0x363 SWAP1 PUSH2 0xA71 JUMP JUMPDEST PUSH1 0x0 SHR OR PUSH1 0x0 SHL SWAP2 POP POP SWAP2 SWAP1 POP JUMP JUMPDEST PUSH1 0x0 DUP2 SWAP1 POP SWAP2 SWAP1 POP JUMP JUMPDEST PUSH1 0x0 PUSH20 0xFFFFFFFFFFFFFFFFFFFFFFFFFFFFFFFFFFFFFFFF AND DUP4 PUSH20 0xFFFFFFFFFFFFFFFFFFFFFFFFFFFFFFFFFFFFFFFF AND SUB PUSH2 0x3CE JUMPI DUP1 PUSH1 0x2 PUSH1 0x0 DUP3 DUP3 SLOAD PUSH2 0x3C2 SWAP2 SWAP1 PUSH2 0xB07 JUMP JUMPDEST SWAP3 POP POP DUP2 SWAP1 SSTORE POP PUSH2 0x4A1 JUMP JUMPDEST PUSH1 0x0 DUP1 PUSH1 0x0 DUP6 PUSH20 0xFFFFFFFFFFFFFFFFFFFFFFFFFFFFFFFFFFFFFFFF AND PUSH20 0xFFFFFFFFFFFFFFFFFFFFFFFFFFFFFFFFFFFFFFFF AND DUP2 MSTORE PUSH1 0x20 ADD SWAP1 DUP2 MSTORE PUSH1 0x20 ADD PUSH1 0x0 KECCAK256 SLOAD SWAP1 POP DUP2 DUP2 LT ISZERO PUSH2 0x45A JUMPI DUP4 DUP2 DUP4 PUSH1 0x40 MLOAD PUSH32 0xE450D38C00000000000000000000000000000000000000000000000000000000 DUP2 MSTORE PUSH1 0x4 ADD PUSH2 0x451 SWAP4 SWAP3 SWAP2 SWAP1 PUSH2 0xB3B JUMP JUMPDEST PUSH1 0x40 MLOAD DUP1 SWAP2 SUB SWAP1 REVERT JUMPDEST DUP2 DUP2 SUB PUSH1 0x0 DUP1 DUP7 PUSH20 0xFFFFFFFFFFFFFFFFFFFFFFFFFFFFFFFFFFFFFFFF AND PUSH20 0xFFFFFFFFFFFFFFFFFFFFFFFFFFFFFFFFFFFFFFFF AND DUP2 MSTORE PUSH1 0x20 ADD SWAP1 DUP2 MSTORE PUSH1 0x20 ADD PUSH1 0x0 KECCAK256 DUP2 SWAP1 SSTORE POP POP JUMPDEST PUSH1 0x0 PUSH20 0xFFFFFFFFFFFFFFFFFFFFFFFFFFFFFFFFFFFFFFFF AND DUP3 PUSH20 0xFFFFFFFFFFFFFFFFFFFFFFFFFFFFFFFFFFFFFFFF AND SUB PUSH2 0x4EA JUMPI DUP1 PUSH1 0x2 PUSH1 0x0 DUP3 DUP3 SLOAD SUB SWAP3 POP POP DUP2 SWAP1 SSTORE POP PUSH2 0x537 JUMP JUMPDEST DUP1 PUSH1 0x0 DUP1 DUP5 PUSH20 0xFFFFFFFFFFFFFFFFFFFFFFFFFFFFFFFFFFFFFFFF AND PUSH20 0xFFFFFFFFFFFFFFFFFFFFFFFFFFFFFFFFFFFFFFFF AND DUP2 MSTORE PUSH1 0x20 ADD SWAP1 DUP2 MSTORE PUSH1 0x20 ADD PUSH1 0x0 KECCAK256 PUSH1 0x0 DUP3 DUP3 SLOAD ADD SWAP3 POP POP DUP2 SWAP1 SSTORE POP JUMPDEST DUP2 PUSH20 0xFFFFFFFFFFFFFFFFFFFFFFFFFFFFFFFFFFFFFFFF AND DUP4 PUSH20 0xFFFFFFFFFFFFFFFFFFFFFFFFFFFFFFFFFFFFFFFF AND PUSH32 0xDDF252AD1BE2C89B69C2B068FC378DAA952BA7F163C4A11628F55A4DF523B3EF DUP4 PUSH1 0x40 MLOAD PUSH2 0x594 SWAP2 SWAP1 PUSH2 0xB72 JUMP JUMPDEST PUSH1 0x40 MLOAD DUP1 SWAP2 SUB SWAP1 LOG3 POP POP POP JUMP JUMPDEST PUSH1 0x0 DUP2 MLOAD SWAP1 POP SWAP2 SWAP1 POP JUMP JUMPDEST PUSH32 0x4E487B7100000000000000000000000000000000000000000000000000000000 PUSH1 0x0 MSTORE PUSH1 0x41 PUSH1 0x4 MSTORE PUSH1 0x24 PUSH1 0x0 REVERT JUMPDEST PUSH32 0x4E487B7100000000000000000000000000000000000000000000000000000000 PUSH1 0x0 MSTORE PUSH1 0x22 PUSH1 0x4 MSTORE PUSH1 0x24 PUSH1 0x0 REVERT JUMPDEST PUSH1 0x0 PUSH1 0x2 DUP3 DIV SWAP1 POP PUSH1 0x1 DUP3 AND DUP1 PUSH2 0x622 JUMPI PUSH1 0x7F DUP3 AND SWAP2 POP JUMPDEST PUSH1 0x20 DUP3 LT DUP2 SUB PUSH2 0x635 JUMPI PUSH2 0x634 PUSH2 0x5DB JUMP JUMPDEST JUMPDEST POP SWAP2 SWAP1 POP JUMP JUMPDEST PUSH1 0x0 DUP2 SWAP1 POP DUP2 PUSH1 0x0 MSTORE PUSH1 0x20 PUSH1 0x0 KECCAK256 SWAP1 POP SWAP2 SWAP1 POP JUMP JUMPDEST PUSH1 0x0 PUSH1 0x20 PUSH1 0x1F DUP4 ADD DIV SWAP1 POP SWAP2 SWAP1 POP JUMP JUMPDEST PUSH1 0x0 DUP3 DUP3 SHL SWAP1 POP SWAP3 SWAP2 POP POP JUMP JUMPDEST PUSH1 0x0 PUSH1 0x8 DUP4 MUL PUSH2 0x69D PUSH32 0xFFFFFFFFFFFFFFFFFFFFFFFFFFFFFFFFFFFFFFFFFFFFFFFFFFFFFFFFFFFFFFFF DUP3 PUSH2 0x660 JUMP JUMPDEST PUSH2 0x6A7 DUP7 DUP4 PUSH2 0x660 JUMP JUMPDEST SWAP6 POP DUP1 NOT DUP5 AND SWAP4 POP DUP1 DUP7 AND DUP5 OR SWAP3 POP POP POP SWAP4 SWAP3 POP POP POP JUMP JUMPDEST PUSH1 0x0 DUP2 SWAP1 POP SWAP2 SWAP1 POP JUMP JUMPDEST PUSH1 0x0 DUP2 SWAP1 POP SWAP2 SWAP1 POP JUMP JUMPDEST PUSH1 0x0 PUSH2 0x6EE PUSH2 0x6E9 PUSH2 0x6E4 DUP5 PUSH2 0x6BF JUMP JUMPDEST PUSH2 0x6C9 JUMP JUMPDEST PUSH2 0x6BF JUMP JUMPDEST SWAP1 POP SWAP2 SWAP1 POP JUMP JUMPDEST PUSH1 0x0 DUP2 SWAP1 POP SWAP2 SWAP1 POP JUMP JUMPDEST PUSH2 0x708 DUP4 PUSH2 0x6D3 JUMP JUMPDEST PUSH2 0x71C PUSH2 0x714 DUP3 PUSH2 0x6F5 JUMP JUMPDEST DUP5 DUP5 SLOAD PUSH2 0x66D JUMP JUMPDEST DUP3 SSTORE POP POP POP POP JUMP JUMPDEST PUSH1 0x0 SWAP1 JUMP JUMPDEST PUSH2 0x731 PUSH2 0x724 JUMP JUMPDEST PUSH2 0x73C DUP2 DUP5 DUP5 PUSH2 0x6FF JUMP JUMPDEST POP POP POP JUMP JUMPDEST JUMPDEST DUP2 DUP2 LT ISZERO PUSH2 0x760 JUMPI PUSH2 0x755 PUSH1 0x0 DUP3 PUSH2 0x729 JUMP JUMPDEST PUSH1 0x1 DUP2 ADD SWAP1 POP PUSH2 0x742 JUMP JUMPDEST POP POP JUMP JUMPDEST PUSH1 0x1F DUP3 GT ISZERO PUSH2 0x7A5 JUMPI PUSH2 0x776 DUP2 PUSH2 0x63B JUMP JUMPDEST PUSH2 0x77F DUP5 PUSH2 0x650 JUMP JUMPDEST DUP2 ADD PUSH1 0x20 DUP6 LT ISZERO PUSH2 0x78E JUMPI DUP2 SWAP1 POP JUMPDEST PUSH2 0x7A2 PUSH2 0x79A DUP6 PUSH2 0x650 JUMP JUMPDEST DUP4 ADD DUP3 PUSH2 0x741 JUMP JUMPDEST POP POP JUMPDEST POP POP POP JUMP JUMPDEST PUSH1 0x0 DUP3 DUP3 SHR SWAP1 POP SWAP3 SWAP2 POP POP JUMP JUMPDEST PUSH1 0x0 PUSH2 0x7C8 PUSH1 0x0 NOT DUP5 PUSH1 0x8 MUL PUSH2 0x7AA JUMP JUMPDEST NOT DUP1 DUP4 AND SWAP2 POP POP SWAP3 SWAP2 POP POP JUMP JUMPDEST PUSH1 0x0 PUSH2 0x7E1 DUP4 DUP4 PUSH2 0x7B7 JUMP JUMPDEST SWAP2 POP DUP3 PUSH1 0x2 MUL DUP3 OR SWAP1 POP SWAP3 SWAP2 POP POP JUMP JUMPDEST PUSH2 0x7FA DUP3 PUSH2 0x5A1 JUMP JUMPDEST PUSH8 0xFFFFFFFFFFFFFFFF DUP2 GT ISZERO PUSH2 0x813 JUMPI PUSH2 0x812 PUSH2 0x5AC JUMP JUMPDEST JUMPDEST PUSH2 0x81D DUP3 SLOAD PUSH2 0x60A JUMP JUMPDEST PUSH2 0x828 DUP3 DUP3 DUP6 PUSH2 0x764 JUMP JUMPDEST PUSH1 0x0 PUSH1 0x20 SWAP1 POP PUSH1 0x1F DUP4 GT PUSH1 0x1 DUP2 EQ PUSH2 0x85B JUMPI PUSH1 0x0 DUP5 ISZERO PUSH2 0x849 JUMPI DUP3 DUP8 ADD MLOAD SWAP1 POP JUMPDEST PUSH2 0x853 DUP6 DUP3 PUSH2 0x7D5 JUMP JUMPDEST DUP7 SSTORE POP PUSH2 0x8BB JUMP JUMPDEST PUSH1 0x1F NOT DUP5 AND PUSH2 0x869 DUP7 PUSH2 0x63B JUMP JUMPDEST PUSH1 0x0 JUMPDEST DUP3 DUP2 LT ISZERO PUSH2 0x891 JUMPI DUP5 DUP10 ADD MLOAD DUP3 SSTORE PUSH1 0x1 DUP3 ADD SWAP2 POP PUSH1 0x20 DUP6 ADD SWAP5 POP PUSH1 0x20 DUP2 ADD SWAP1 POP PUSH2 0x86C JUMP JUMPDEST DUP7 DUP4 LT ISZERO PUSH2 0x8AE JUMPI DUP5 DUP10 ADD MLOAD PUSH2 0x8AA PUSH1 0x1F DUP10 AND DUP3 PUSH2 0x7B7 JUMP JUMPDEST DUP4 SSTORE POP JUMPDEST PUSH1 0x1 PUSH1 0x2 DUP9 MUL ADD DUP9 SSTORE POP POP POP JUMPDEST POP POP POP POP POP POP JUMP JUMPDEST PUSH1 0x0 DUP2 SWAP1 POP SWAP2 SWAP1 POP JUMP JUMPDEST PUSH2 0x8D6 DUP2 PUSH2 0x8C3 JUMP JUMPDEST DUP3 MSTORE POP POP JUMP JUMPDEST PUSH2 0x8E5 DUP2 PUSH2 0x6BF JUMP JUMPDEST DUP3 MSTORE POP POP JUMP JUMPDEST PUSH1 0x0 PUSH20 0xFFFFFFFFFFFFFFFFFFFFFFFFFFFFFFFFFFFFFFFF DUP3 AND SWAP1 POP SWAP2 SWAP1 POP JUMP JUMPDEST PUSH1 0x0 PUSH2 0x916 DUP3 PUSH2 0x8EB JUMP JUMPDEST SWAP1 POP SWAP2 SWAP1 POP JUMP JUMPDEST PUSH2 0x926 DUP2 PUSH2 0x90B JUMP JUMPDEST DUP3 MSTORE POP POP JUMP JUMPDEST PUSH1 0x0 PUSH1 0xA0 DUP3 ADD SWAP1 POP PUSH2 0x941 PUSH1 0x0 DUP4 ADD DUP9 PUSH2 0x8CD JUMP JUMPDEST PUSH2 0x94E PUSH1 0x20 DUP4 ADD DUP8 PUSH2 0x8CD JUMP JUMPDEST PUSH2 0x95B PUSH1 0x40 DUP4 ADD DUP7 PUSH2 0x8CD JUMP JUMPDEST PUSH2 0x968 PUSH1 0x60 DUP4 ADD DUP6 PUSH2 0x8DC JUMP JUMPDEST PUSH2 0x975 PUSH1 0x80 DUP4 ADD DUP5 PUSH2 0x91D JUMP JUMPDEST SWAP7 SWAP6 POP POP POP POP POP POP JUMP JUMPDEST PUSH1 0x0 PUSH1 0x20 DUP3 ADD SWAP1 POP PUSH2 0x994 PUSH1 0x0 DUP4 ADD DUP5 PUSH2 0x91D JUMP JUMPDEST SWAP3 SWAP2 POP POP JUMP JUMPDEST PUSH1 0x0 DUP3 DUP3 MSTORE PUSH1 0x20 DUP3 ADD SWAP1 POP SWAP3 SWAP2 POP POP JUMP JUMPDEST PUSH1 0x0 JUMPDEST DUP4 DUP2 LT ISZERO PUSH2 0x9C9 JUMPI DUP1 DUP3 ADD MLOAD DUP2 DUP5 ADD MSTORE PUSH1 0x20 DUP2 ADD SWAP1 POP PUSH2 0x9AE JUMP JUMPDEST PUSH1 0x0 DUP5 DUP5 ADD MSTORE POP POP POP POP JUMP JUMPDEST PUSH1 0x0 PUSH1 0x1F NOT PUSH1 0x1F DUP4 ADD AND SWAP1 POP SWAP2 SWAP1 POP JUMP JUMPDEST PUSH1 0x0 PUSH2 0x9F1 DUP3 PUSH2 0x5A1 JUMP JUMPDEST PUSH2 0x9FB DUP2 DUP6 PUSH2 0x99A JUMP JUMPDEST SWAP4 POP PUSH2 0xA0B DUP2 DUP6 PUSH1 0x20 DUP7 ADD PUSH2 0x9AB JUMP JUMPDEST PUSH2 0xA14 DUP2 PUSH2 0x9D5 JUMP JUMPDEST DUP5 ADD SWAP2 POP POP SWAP3 SWAP2 POP POP JUMP JUMPDEST PUSH1 0x0 PUSH1 0x20 DUP3 ADD SWAP1 POP DUP2 DUP2 SUB PUSH1 0x0 DUP4 ADD MSTORE PUSH2 0xA39 DUP2 DUP5 PUSH2 0x9E6 JUMP JUMPDEST SWAP1 POP SWAP3 SWAP2 POP POP JUMP JUMPDEST PUSH1 0x0 DUP2 MLOAD SWAP1 POP SWAP2 SWAP1 POP JUMP JUMPDEST PUSH1 0x0 DUP2 SWAP1 POP PUSH1 0x20 DUP3 ADD SWAP1 POP SWAP2 SWAP1 POP JUMP JUMPDEST PUSH1 0x0 PUSH2 0xA68 DUP3 MLOAD PUSH2 0x8C3 JUMP JUMPDEST DUP1 SWAP2 POP POP SWAP2 SWAP1 POP JUMP JUMPDEST PUSH1 0x0 PUSH2 0xA7C DUP3 PUSH2 0xA41 JUMP JUMPDEST DUP3 PUSH2 0xA86 DUP5 PUSH2 0xA4C JUMP JUMPDEST SWAP1 POP PUSH2 0xA91 DUP2 PUSH2 0xA5C JUMP JUMPDEST SWAP3 POP PUSH1 0x20 DUP3 LT ISZERO PUSH2 0xAD1 JUMPI PUSH2 0xACC PUSH32 0xFFFFFFFFFFFFFFFFFFFFFFFFFFFFFFFFFFFFFFFFFFFFFFFFFFFFFFFFFFFFFFFF DUP4 PUSH1 0x20 SUB PUSH1 0x8 MUL PUSH2 0x660 JUMP JUMPDEST DUP4 AND SWAP3 POP JUMPDEST POP POP SWAP2 SWAP1 POP JUMP JUMPDEST PUSH32 0x4E487B7100000000000000000000000000000000000000000000000000000000 PUSH1 0x0 MSTORE PUSH1 0x11 PUSH1 0x4 MSTORE PUSH1 0x24 PUSH1 0x0 REVERT JUMPDEST PUSH1 0x0 PUSH2 0xB12 DUP3 PUSH2 0x6BF JUMP JUMPDEST SWAP2 POP PUSH2 0xB1D DUP4 PUSH2 0x6BF JUMP JUMPDEST SWAP3 POP DUP3 DUP3 ADD SWAP1 POP DUP1 DUP3 GT ISZERO PUSH2 0xB35 JUMPI PUSH2 0xB34 PUSH2 0xAD8 JUMP JUMPDEST JUMPDEST SWAP3 SWAP2 POP POP JUMP JUMPDEST PUSH1 0x0 PUSH1 0x60 DUP3 ADD SWAP1 POP PUSH2 0xB50 PUSH1 0x0 DUP4 ADD DUP7 PUSH2 0x91D JUMP JUMPDEST PUSH2 0xB5D PUSH1 0x20 DUP4 ADD DUP6 PUSH2 0x8DC JUMP JUMPDEST PUSH2 0xB6A PUSH1 0x40 DUP4 ADD DUP5 PUSH2 0x8DC JUMP JUMPDEST SWAP5 SWAP4 POP POP POP POP JUMP JUMPDEST PUSH1 0x0 PUSH1 0x20 DUP3 ADD SWAP1 POP PUSH2 0xB87 PUSH1 0x0 DUP4 ADD DUP5 PUSH2 0x8DC JUMP JUMPDEST SWAP3 SWAP2 POP POP JUMP JUMPDEST PUSH1 0x80 MLOAD PUSH1 0xA0 MLOAD PUSH1 0xC0 MLOAD PUSH1 0xE0 MLOAD PUSH2 0x100 MLOAD PUSH2 0x120 MLOAD PUSH2 0x140 MLOAD PUSH2 0x1C18 PUSH2 0xBE7 PUSH1 0x0 CODECOPY PUSH1 0x0 PUSH2 0xA3F ADD MSTORE PUSH1 0x0 PUSH2 0xA04 ADD MSTORE PUSH1 0x0 PUSH2 0xF54 ADD MSTORE PUSH1 0x0 PUSH2 0xF33 ADD MSTORE PUSH1 0x0 PUSH2 0x8FF ADD MSTORE PUSH1 0x0 PUSH2 0x955 ADD MSTORE PUSH1 0x0 PUSH2 0x97E ADD MSTORE PUSH2 0x1C18 PUSH1 0x0 RETURN INVALID PUSH1 0x80 PUSH1 0x40 MSTORE CALLVALUE DUP1 ISZERO PUSH2 0x10 JUMPI PUSH1 0x0 DUP1 REVERT JUMPDEST POP PUSH1 0x4 CALLDATASIZE LT PUSH2 0xCF JUMPI PUSH1 0x0 CALLDATALOAD PUSH1 0xE0 SHR DUP1 PUSH4 0x70A08231 GT PUSH2 0x8C JUMPI DUP1 PUSH4 0x95D89B41 GT PUSH2 0x66 JUMPI DUP1 PUSH4 0x95D89B41 EQ PUSH2 0x230 JUMPI DUP1 PUSH4 0xA9059CBB EQ PUSH2 0x24E JUMPI DUP1 PUSH4 0xD505ACCF EQ PUSH2 0x27E JUMPI DUP1 PUSH4 0xDD62ED3E EQ PUSH2 0x29A JUMPI PUSH2 0xCF JUMP JUMPDEST DUP1 PUSH4 0x70A08231 EQ PUSH2 0x1AC JUMPI DUP1 PUSH4 0x7ECEBE00 EQ PUSH2 0x1DC JUMPI DUP1 PUSH4 0x84B0196E EQ PUSH2 0x20C JUMPI PUSH2 0xCF JUMP JUMPDEST DUP1 PUSH4 0x6FDDE03 EQ PUSH2 0xD4 JUMPI DUP1 PUSH4 0x95EA7B3 EQ PUSH2 0xF2 JUMPI DUP1 PUSH4 0x18160DDD EQ PUSH2 0x122 JUMPI DUP1 PUSH4 0x23B872DD EQ PUSH2 0x140 JUMPI DUP1 PUSH4 0x313CE567 EQ PUSH2 0x170 JUMPI DUP1 PUSH4 0x3644E515 EQ PUSH2 0x18E JUMPI JUMPDEST PUSH1 0x0 DUP1 REVERT JUMPDEST PUSH2 0xDC PUSH2 0x2CA JUMP JUMPDEST PUSH1 0x40 MLOAD PUSH2 0xE9 SWAP2 SWAP1 PUSH2 0x1441 JUMP JUMPDEST PUSH1 0x40 MLOAD DUP1 SWAP2 SUB SWAP1 RETURN JUMPDEST PUSH2 0x10C PUSH1 0x4 DUP1 CALLDATASIZE SUB DUP2 ADD SWAP1 PUSH2 0x107 SWAP2 SWAP1 PUSH2 0x14FC JUMP JUMPDEST PUSH2 0x35C JUMP JUMPDEST PUSH1 0x40 MLOAD PUSH2 0x119 SWAP2 SWAP1 PUSH2 0x1557 JUMP JUMPDEST PUSH1 0x40 MLOAD DUP1 SWAP2 SUB SWAP1 RETURN JUMPDEST PUSH2 0x12A PUSH2 0x37F JUMP JUMPDEST PUSH1 0x40 MLOAD PUSH2 0x137 SWAP2 SWAP1 PUSH2 0x1581 JUMP JUMPDEST PUSH1 0x40 MLOAD DUP1 SWAP2 SUB SWAP1 RETURN JUMPDEST PUSH2 0x15A PUSH1 0x4 DUP1 CALLDATASIZE SUB DUP2 ADD SWAP1 PUSH2 0x155 SWAP2 SWAP1 PUSH2 0x159C JUMP JUMPDEST PUSH2 0x389 JUMP JUMPDEST PUSH1 0x40 MLOAD PUSH2 0x167 SWAP2 SWAP1 PUSH2 0x1557 JUMP JUMPDEST PUSH1 0x40 MLOAD DUP1 SWAP2 SUB SWAP1 RETURN JUMPDEST PUSH2 0x178 PUSH2 0x3B8 JUMP JUMPDEST PUSH1 0x40 MLOAD PUSH2 0x185 SWAP2 SWAP1 PUSH2 0x160B JUMP JUMPDEST PUSH1 0x40 MLOAD DUP1 SWAP2 SUB SWAP1 RETURN JUMPDEST PUSH2 0x196 PUSH2 0x3C1 JUMP JUMPDEST PUSH1 0x40 MLOAD PUSH2 0x1A3 SWAP2 SWAP1 PUSH2 0x163F JUMP JUMPDEST PUSH1 0x40 MLOAD DUP1 SWAP2 SUB SWAP1 RETURN JUMPDEST PUSH2 0x1C6 PUSH1 0x4 DUP1 CALLDATASIZE SUB DUP2 ADD SWAP1 PUSH2 0x1C1 SWAP2 SWAP1 PUSH2 0x165A JUMP JUMPDEST PUSH2 0x3D0 JUMP JUMPDEST PUSH1 0x40 MLOAD PUSH2 0x1D3 SWAP2 SWAP1 PUSH2 0x1581 JUMP JUMPDEST PUSH1 0x40 MLOAD DUP1 SWAP2 SUB SWAP1 RETURN JUMPDEST PUSH2 0x1F6 PUSH1 0x4 DUP1 CALLDATASIZE SUB DUP2 ADD SWAP1 PUSH2 0x1F1 SWAP2 SWAP1 PUSH2 0x165A JUMP JUMPDEST PUSH2 0x418 JUMP JUMPDEST PUSH1 0x40 MLOAD PUSH2 0x203 SWAP2 SWAP1 PUSH2 0x1581 JUMP JUMPDEST PUSH1 0x40 MLOAD DUP1 SWAP2 SUB SWAP1 RETURN JUMPDEST PUSH2 0x214 PUSH2 0x42A JUMP JUMPDEST PUSH1 0x40 MLOAD PUSH2 0x227 SWAP8 SWAP7 SWAP6 SWAP5 SWAP4 SWAP3 SWAP2 SWAP1 PUSH2 0x178F JUMP JUMPDEST PUSH1 0x40 MLOAD DUP1 SWAP2 SUB SWAP1 RETURN JUMPDEST PUSH2 0x238 PUSH2 0x4D4 JUMP JUMPDEST PUSH1 0x40 MLOAD PUSH2 0x245 SWAP2 SWAP1 PUSH2 0x1441 JUMP JUMPDEST PUSH1 0x40 MLOAD DUP1 SWAP2 SUB SWAP1 RETURN JUMPDEST PUSH2 0x268 PUSH1 0x4 DUP1 CALLDATASIZE SUB DUP2 ADD SWAP1 PUSH2 0x263 SWAP2 SWAP1 PUSH2 0x14FC JUMP JUMPDEST PUSH2 0x566 JUMP JUMPDEST PUSH1 0x40 MLOAD PUSH2 0x275 SWAP2 SWAP1 PUSH2 0x1557 JUMP JUMPDEST PUSH1 0x40 MLOAD DUP1 SWAP2 SUB SWAP1 RETURN JUMPDEST PUSH2 0x298 PUSH1 0x4 DUP1 CALLDATASIZE SUB DUP2 ADD SWAP1 PUSH2 0x293 SWAP2 SWAP1 PUSH2 0x186B JUMP JUMPDEST PUSH2 0x589 JUMP JUMPDEST STOP JUMPDEST PUSH2 0x2B4 PUSH1 0x4 DUP1 CALLDATASIZE SUB DUP2 ADD SWAP1 PUSH2 0x2AF SWAP2 SWAP1 PUSH2 0x190D JUMP JUMPDEST PUSH2 0x6D1 JUMP JUMPDEST PUSH1 0x40 MLOAD PUSH2 0x2C1 SWAP2 SWAP1 PUSH2 0x1581 JUMP JUMPDEST PUSH1 0x40 MLOAD DUP1 SWAP2 SUB SWAP1 RETURN JUMPDEST PUSH1 0x60 PUSH1 0x3 DUP1 SLOAD PUSH2 0x2D9 SWAP1 PUSH2 0x197C JUMP JUMPDEST DUP1 PUSH1 0x1F ADD PUSH1 0x20 DUP1 SWAP2 DIV MUL PUSH1 0x20 ADD PUSH1 0x40 MLOAD SWAP1 DUP2 ADD PUSH1 0x40 MSTORE DUP1 SWAP3 SWAP2 SWAP1 DUP2 DUP2 MSTORE PUSH1 0x20 ADD DUP3 DUP1 SLOAD PUSH2 0x305 SWAP1 PUSH2 0x197C JUMP JUMPDEST DUP1 ISZERO PUSH2 0x352 JUMPI DUP1 PUSH1 0x1F LT PUSH2 0x327 JUMPI PUSH2 0x100 DUP1 DUP4 SLOAD DIV MUL DUP4 MSTORE SWAP2 PUSH1 0x20 ADD SWAP2 PUSH2 0x352 JUMP JUMPDEST DUP3 ADD SWAP2 SWAP1 PUSH1 0x0 MSTORE PUSH1 0x20 PUSH1 0x0 KECCAK256 SWAP1 JUMPDEST DUP2 SLOAD DUP2 MSTORE SWAP1 PUSH1 0x1 ADD SWAP1 PUSH1 0x20 ADD DUP1 DUP4 GT PUSH2 0x335 JUMPI DUP3 SWAP1 SUB PUSH1 0x1F AND DUP3 ADD SWAP2 JUMPDEST POP POP POP POP POP SWAP1 POP SWAP1 JUMP JUMPDEST PUSH1 0x0 DUP1 PUSH2 0x367 PUSH2 0x758 JUMP JUMPDEST SWAP1 POP PUSH2 0x374 DUP2 DUP6 DUP6 PUSH2 0x760 JUMP JUMPDEST PUSH1 0x1 SWAP2 POP POP SWAP3 SWAP2 POP POP JUMP JUMPDEST PUSH1 0x0 PUSH1 0x2 SLOAD SWAP1 POP SWAP1 JUMP JUMPDEST PUSH1 0x0 DUP1 PUSH2 0x394 PUSH2 0x758 JUMP JUMPDEST SWAP1 POP PUSH2 0x3A1 DUP6 DUP3 DUP6 PUSH2 0x772 JUMP JUMPDEST PUSH2 0x3AC DUP6 DUP6 DUP6 PUSH2 0x807 JUMP JUMPDEST PUSH1 0x1 SWAP2 POP POP SWAP4 SWAP3 POP POP POP JUMP JUMPDEST PUSH1 0x0 PUSH1 0x12 SWAP1 POP SWAP1 JUMP JUMPDEST PUSH1 0x0 PUSH2 0x3CB PUSH2 0x8FB JUMP JUMPDEST SWAP1 POP SWAP1 JUMP JUMPDEST PUSH1 0x0 DUP1 PUSH1 0x0 DUP4 PUSH20 0xFFFFFFFFFFFFFFFFFFFFFFFFFFFFFFFFFFFFFFFF AND PUSH20 0xFFFFFFFFFFFFFFFFFFFFFFFFFFFFFFFFFFFFFFFF AND DUP2 MSTORE PUSH1 0x20 ADD SWAP1 DUP2 MSTORE PUSH1 0x20 ADD PUSH1 0x0 KECCAK256 SLOAD SWAP1 POP SWAP2 SWAP1 POP JUMP JUMPDEST PUSH1 0x0 PUSH2 0x423 DUP3 PUSH2 0x9B2 JUMP JUMPDEST SWAP1 POP SWAP2 SWAP1 POP JUMP JUMPDEST PUSH1 0x0 PUSH1 0x60 DUP1 PUSH1 0x0 DUP1 PUSH1 0x0 PUSH1 0x60 PUSH2 0x43E PUSH2 0x9FB JUMP JUMPDEST PUSH2 0x446 PUSH2 0xA36 JUMP JUMPDEST CHAINID ADDRESS PUSH1 0x0 DUP1 SHL PUSH1 0x0 PUSH8 0xFFFFFFFFFFFFFFFF DUP2 GT ISZERO PUSH2 0x467 JUMPI PUSH2 0x466 PUSH2 0x19AD JUMP JUMPDEST JUMPDEST PUSH1 0x40 MLOAD SWAP1 DUP1 DUP3 MSTORE DUP1 PUSH1 0x20 MUL PUSH1 0x20 ADD DUP3 ADD PUSH1 0x40 MSTORE DUP1 ISZERO PUSH2 0x495 JUMPI DUP2 PUSH1 0x20 ADD PUSH1 0x20 DUP3 MUL DUP1 CALLDATASIZE DUP4 CALLDATACOPY DUP1 DUP3 ADD SWAP2 POP POP SWAP1 POP JUMPDEST POP PUSH32 0xF00000000000000000000000000000000000000000000000000000000000000 SWAP6 SWAP5 SWAP4 SWAP3 SWAP2 SWAP1 SWAP7 POP SWAP7 POP SWAP7 POP SWAP7 POP SWAP7 POP SWAP7 POP SWAP7 POP SWAP1 SWAP2 SWAP3 SWAP4 SWAP5 SWAP6 SWAP7 JUMP JUMPDEST PUSH1 0x60 PUSH1 0x4 DUP1 SLOAD PUSH2 0x4E3 SWAP1 PUSH2 0x197C JUMP JUMPDEST DUP1 PUSH1 0x1F ADD PUSH1 0x20 DUP1 SWAP2 DIV MUL PUSH1 0x20 ADD PUSH1 0x40 MLOAD SWAP1 DUP2 ADD PUSH1 0x40 MSTORE DUP1 SWAP3 SWAP2 SWAP1 DUP2 DUP2 MSTORE PUSH1 0x20 ADD DUP3 DUP1 SLOAD PUSH2 0x50F SWAP1 PUSH2 0x197C JUMP JUMPDEST DUP1 ISZERO PUSH2 0x55C JUMPI DUP1 PUSH1 0x1F LT PUSH2 0x531 JUMPI PUSH2 0x100 DUP1 DUP4 SLOAD DIV MUL DUP4 MSTORE SWAP2 PUSH1 0x20 ADD SWAP2 PUSH2 0x55C JUMP JUMPDEST DUP3 ADD SWAP2 SWAP1 PUSH1 0x0 MSTORE PUSH1 0x20 PUSH1 0x0 KECCAK256 SWAP1 JUMPDEST DUP2 SLOAD DUP2 MSTORE SWAP1 PUSH1 0x1 ADD SWAP1 PUSH1 0x20 ADD DUP1 DUP4 GT PUSH2 0x53F JUMPI DUP3 SWAP1 SUB PUSH1 0x1F AND DUP3 ADD SWAP2 JUMPDEST POP POP POP POP POP SWAP1 POP SWAP1 JUMP JUMPDEST PUSH1 0x0 DUP1 PUSH2 0x571 PUSH2 0x758 JUMP JUMPDEST SWAP1 POP PUSH2 0x57E DUP2 DUP6 DUP6 PUSH2 0x807 JUMP JUMPDEST PUSH1 0x1 SWAP2 POP POP SWAP3 SWAP2 POP POP JUMP JUMPDEST DUP4 TIMESTAMP GT ISZERO PUSH2 0x5CE JUMPI DUP4 PUSH1 0x40 MLOAD PUSH32 0x6279130200000000000000000000000000000000000000000000000000000000 DUP2 MSTORE PUSH1 0x4 ADD PUSH2 0x5C5 SWAP2 SWAP1 PUSH2 0x1581 JUMP JUMPDEST PUSH1 0x40 MLOAD DUP1 SWAP2 SUB SWAP1 REVERT JUMPDEST PUSH1 0x0 PUSH32 0x6E71EDAE12B1B97F4D1F60370FEF10105FA2FAAE0126114A169C64845D6126C9 DUP9 DUP9 DUP9 PUSH2 0x5FD DUP13 PUSH2 0xA71 JUMP JUMPDEST DUP10 PUSH1 0x40 MLOAD PUSH1 0x20 ADD PUSH2 0x613 SWAP7 SWAP6 SWAP5 SWAP4 SWAP3 SWAP2 SWAP1 PUSH2 0x19DC JUMP JUMPDEST PUSH1 0x40 MLOAD PUSH1 0x20 DUP2 DUP4 SUB SUB DUP2 MSTORE SWAP1 PUSH1 0x40 MSTORE DUP1 MLOAD SWAP1 PUSH1 0x20 ADD KECCAK256 SWAP1 POP PUSH1 0x0 PUSH2 0x636 DUP3 PUSH2 0xAC8 JUMP JUMPDEST SWAP1 POP PUSH1 0x0 PUSH2 0x646 DUP3 DUP8 DUP8 DUP8 PUSH2 0xAE2 JUMP JUMPDEST SWAP1 POP DUP10 PUSH20 0xFFFFFFFFFFFFFFFFFFFFFFFFFFFFFFFFFFFFFFFF AND DUP2 PUSH20 0xFFFFFFFFFFFFFFFFFFFFFFFFFFFFFFFFFFFFFFFF AND EQ PUSH2 0x6BA JUMPI DUP1 DUP11 PUSH1 0x40 MLOAD PUSH32 0x4B800E4600000000000000000000000000000000000000000000000000000000 DUP2 MSTORE PUSH1 0x4 ADD PUSH2 0x6B1 SWAP3 SWAP2 SWAP1 PUSH2 0x1A3D JUMP JUMPDEST PUSH1 0x40 MLOAD DUP1 SWAP2 SUB SWAP1 REVERT JUMPDEST PUSH2 0x6C5 DUP11 DUP11 DUP11 PUSH2 0x760 JUMP JUMPDEST POP POP POP POP POP POP POP POP POP POP JUMP JUMPDEST PUSH1 0x0 PUSH1 0x1 PUSH1 0x0 DUP5 PUSH20 0xFFFFFFFFFFFFFFFFFFFFFFFFFFFFFFFFFFFFFFFF AND PUSH20 0xFFFFFFFFFFFFFFFFFFFFFFFFFFFFFFFFFFFFFFFF AND DUP2 MSTORE PUSH1 0x20 ADD SWAP1 DUP2 MSTORE PUSH1 0x20 ADD PUSH1 0x0 KECCAK256 PUSH1 0x0 DUP4 PUSH20 0xFFFFFFFFFFFFFFFFFFFFFFFFFFFFFFFFFFFFFFFF AND PUSH20 0xFFFFFFFFFFFFFFFFFFFFFFFFFFFFFFFFFFFFFFFF AND DUP2 MSTORE PUSH1 0x20 ADD SWAP1 DUP2 MSTORE PUSH1 0x20 ADD PUSH1 0x0 KECCAK256 SLOAD SWAP1 POP SWAP3 SWAP2 POP POP JUMP JUMPDEST PUSH1 0x0 CALLER SWAP1 POP SWAP1 JUMP JUMPDEST PUSH2 0x76D DUP4 DUP4 DUP4 PUSH1 0x1 PUSH2 0xB12 JUMP JUMPDEST POP POP POP JUMP JUMPDEST PUSH1 0x0 PUSH2 0x77E DUP5 DUP5 PUSH2 0x6D1 JUMP JUMPDEST SWAP1 POP PUSH32 0xFFFFFFFFFFFFFFFFFFFFFFFFFFFFFFFFFFFFFFFFFFFFFFFFFFFFFFFFFFFFFFFF DUP2 LT ISZERO PUSH2 0x801 JUMPI DUP2 DUP2 LT ISZERO PUSH2 0x7F1 JUMPI DUP3 DUP2 DUP4 PUSH1 0x40 MLOAD PUSH32 0xFB8F41B200000000000000000000000000000000000000000000000000000000 DUP2 MSTORE PUSH1 0x4 ADD PUSH2 0x7E8 SWAP4 SWAP3 SWAP2 SWAP1 PUSH2 0x1A66 JUMP JUMPDEST PUSH1 0x40 MLOAD DUP1 SWAP2 SUB SWAP1 REVERT JUMPDEST PUSH2 0x800 DUP5 DUP5 DUP5 DUP5 SUB PUSH1 0x0 PUSH2 0xB12 JUMP JUMPDEST JUMPDEST POP POP POP POP JUMP JUMPDEST PUSH1 0x0 PUSH20 0xFFFFFFFFFFFFFFFFFFFFFFFFFFFFFFFFFFFFFFFF AND DUP4 PUSH20 0xFFFFFFFFFFFFFFFFFFFFFFFFFFFFFFFFFFFFFFFF AND SUB PUSH2 0x879 JUMPI PUSH1 0x0 PUSH1 0x40 MLOAD PUSH32 0x96C6FD1E00000000000000000000000000000000000000000000000000000000 DUP2 MSTORE PUSH1 0x4 ADD PUSH2 0x870 SWAP2 SWAP1 PUSH2 0x1A9D JUMP JUMPDEST PUSH1 0x40 MLOAD DUP1 SWAP2 SUB SWAP1 REVERT JUMPDEST PUSH1 0x0 PUSH20 0xFFFFFFFFFFFFFFFFFFFFFFFFFFFFFFFFFFFFFFFF AND DUP3 PUSH20 0xFFFFFFFFFFFFFFFFFFFFFFFFFFFFFFFFFFFFFFFF AND SUB PUSH2 0x8EB JUMPI PUSH1 0x0 PUSH1 0x40 MLOAD PUSH32 0xEC442F0500000000000000000000000000000000000000000000000000000000 DUP2 MSTORE PUSH1 0x4 ADD PUSH2 0x8E2 SWAP2 SWAP1 PUSH2 0x1A9D JUMP JUMPDEST PUSH1 0x40 MLOAD DUP1 SWAP2 SUB SWAP1 REVERT JUMPDEST PUSH2 0x8F6 DUP4 DUP4 DUP4 PUSH2 0xCE9 JUMP JUMPDEST POP POP POP JUMP JUMPDEST PUSH1 0x0 PUSH32 0x0 PUSH20 0xFFFFFFFFFFFFFFFFFFFFFFFFFFFFFFFFFFFFFFFF AND ADDRESS PUSH20 0xFFFFFFFFFFFFFFFFFFFFFFFFFFFFFFFFFFFFFFFF AND EQ DUP1 ISZERO PUSH2 0x977 JUMPI POP PUSH32 0x0 CHAINID EQ JUMPDEST ISZERO PUSH2 0x9A4 JUMPI PUSH32 0x0 SWAP1 POP PUSH2 0x9AF JUMP JUMPDEST PUSH2 0x9AC PUSH2 0xF0E JUMP JUMPDEST SWAP1 POP JUMPDEST SWAP1 JUMP JUMPDEST PUSH1 0x0 PUSH1 0x7 PUSH1 0x0 DUP4 PUSH20 0xFFFFFFFFFFFFFFFFFFFFFFFFFFFFFFFFFFFFFFFF AND PUSH20 0xFFFFFFFFFFFFFFFFFFFFFFFFFFFFFFFFFFFFFFFF AND DUP2 MSTORE PUSH1 0x20 ADD SWAP1 DUP2 MSTORE PUSH1 0x20 ADD PUSH1 0x0 KECCAK256 SLOAD SWAP1 POP SWAP2 SWAP1 POP JUMP JUMPDEST PUSH1 0x60 PUSH2 0xA31 PUSH1 0x5 PUSH32 0x0 PUSH2 0xFA4 SWAP1 SWAP2 SWAP1 PUSH4 0xFFFFFFFF AND JUMP JUMPDEST SWAP1 POP SWAP1 JUMP JUMPDEST PUSH1 0x60 PUSH2 0xA6C PUSH1 0x6 PUSH32 0x0 PUSH2 0xFA4 SWAP1 SWAP2 SWAP1 PUSH4 0xFFFFFFFF AND JUMP JUMPDEST SWAP1 POP SWAP1 JUMP JUMPDEST PUSH1 0x0 PUSH1 0x7 PUSH1 0x0 DUP4 PUSH20 0xFFFFFFFFFFFFFFFFFFFFFFFFFFFFFFFFFFFFFFFF AND PUSH20 0xFFFFFFFFFFFFFFFFFFFFFFFFFFFFFFFFFFFFFFFF AND DUP2 MSTORE PUSH1 0x20 ADD SWAP1 DUP2 MSTORE PUSH1 0x20 ADD PUSH1 0x0 KECCAK256 PUSH1 0x0 DUP2 SLOAD DUP1 SWAP3 SWAP2 SWAP1 PUSH1 0x1 ADD SWAP2 SWAP1 POP SSTORE SWAP1 POP SWAP2 SWAP1 POP JUMP JUMPDEST PUSH1 0x0 PUSH2 0xADB PUSH2 0xAD5 PUSH2 0x8FB JUMP JUMPDEST DUP4 PUSH2 0x1054 JUMP JUMPDEST SWAP1 POP SWAP2 SWAP1 POP JUMP JUMPDEST PUSH1 0x0 DUP1 PUSH1 0x0 DUP1 PUSH2 0xAF4 DUP9 DUP9 DUP9 DUP9 PUSH2 0x1095 JUMP JUMPDEST SWAP3 POP SWAP3 POP SWAP3 POP PUSH2 0xB04 DUP3 DUP3 PUSH2 0x1189 JUMP JUMPDEST DUP3 SWAP4 POP POP POP POP SWAP5 SWAP4 POP POP POP POP JUMP JUMPDEST PUSH1 0x0 PUSH20 0xFFFFFFFFFFFFFFFFFFFFFFFFFFFFFFFFFFFFFFFF AND DUP5 PUSH20 0xFFFFFFFFFFFFFFFFFFFFFFFFFFFFFFFFFFFFFFFF AND SUB PUSH2 0xB84 JUMPI PUSH1 0x0 PUSH1 0x40 MLOAD PUSH32 0xE602DF0500000000000000000000000000000000000000000000000000000000 DUP2 MSTORE PUSH1 0x4 ADD PUSH2 0xB7B SWAP2 SWAP1 PUSH2 0x1A9D JUMP JUMPDEST PUSH1 0x40 MLOAD DUP1 SWAP2 SUB SWAP1 REVERT JUMPDEST PUSH1 0x0 PUSH20 0xFFFFFFFFFFFFFFFFFFFFFFFFFFFFFFFFFFFFFFFF AND DUP4 PUSH20 0xFFFFFFFFFFFFFFFFFFFFFFFFFFFFFFFFFFFFFFFF AND SUB PUSH2 0xBF6 JUMPI PUSH1 0x0 PUSH1 0x40 MLOAD PUSH32 0x94280D6200000000000000000000000000000000000000000000000000000000 DUP2 MSTORE PUSH1 0x4 ADD PUSH2 0xBED SWAP2 SWAP1 PUSH2 0x1A9D JUMP JUMPDEST PUSH1 0x40 MLOAD DUP1 SWAP2 SUB SWAP1 REVERT JUMPDEST DUP2 PUSH1 0x1 PUSH1 0x0 DUP7 PUSH20 0xFFFFFFFFFFFFFFFFFFFFFFFFFFFFFFFFFFFFFFFF AND PUSH20 0xFFFFFFFFFFFFFFFFFFFFFFFFFFFFFFFFFFFFFFFF AND DUP2 MSTORE PUSH1 0x20 ADD SWAP1 DUP2 MSTORE PUSH1 0x20 ADD PUSH1 0x0 KECCAK256 PUSH1 0x0 DUP6 PUSH20 0xFFFFFFFFFFFFFFFFFFFFFFFFFFFFFFFFFFFFFFFF AND PUSH20 0xFFFFFFFFFFFFFFFFFFFFFFFFFFFFFFFFFFFFFFFF AND DUP2 MSTORE PUSH1 0x20 ADD SWAP1 DUP2 MSTORE PUSH1 0x20 ADD PUSH1 0x0 KECCAK256 DUP2 SWAP1 SSTORE POP DUP1 ISZERO PUSH2 0xCE3 JUMPI DUP3 PUSH20 0xFFFFFFFFFFFFFFFFFFFFFFFFFFFFFFFFFFFFFFFF AND DUP5 PUSH20 0xFFFFFFFFFFFFFFFFFFFFFFFFFFFFFFFFFFFFFFFF AND PUSH32 0x8C5BE1E5EBEC7D5BD14F71427D1E84F3DD0314C0F7B2291E5B200AC8C7C3B925 DUP5 PUSH1 0x40 MLOAD PUSH2 0xCDA SWAP2 SWAP1 PUSH2 0x1581 JUMP JUMPDEST PUSH1 0x40 MLOAD DUP1 SWAP2 SUB SWAP1 LOG3 JUMPDEST POP POP POP POP JUMP JUMPDEST PUSH1 0x0 PUSH20 0xFFFFFFFFFFFFFFFFFFFFFFFFFFFFFFFFFFFFFFFF AND DUP4 PUSH20 0xFFFFFFFFFFFFFFFFFFFFFFFFFFFFFFFFFFFFFFFF AND SUB PUSH2 0xD3B JUMPI DUP1 PUSH1 0x2 PUSH1 0x0 DUP3 DUP3 SLOAD PUSH2 0xD2F SWAP2 SWAP1 PUSH2 0x1AE7 JUMP JUMPDEST SWAP3 POP POP DUP2 SWAP1 SSTORE POP PUSH2 0xE0E JUMP JUMPDEST PUSH1 0x0 DUP1 PUSH1 0x0 DUP6 PUSH20 0xFFFFFFFFFFFFFFFFFFFFFFFFFFFFFFFFFFFFFFFF AND PUSH20 0xFFFFFFFFFFFFFFFFFFFFFFFFFFFFFFFFFFFFFFFF AND DUP2 MSTORE PUSH1 0x20 ADD SWAP1 DUP2 MSTORE PUSH1 0x20 ADD PUSH1 0x0 KECCAK256 SLOAD SWAP1 POP DUP2 DUP2 LT ISZERO PUSH2 0xDC7 JUMPI DUP4 DUP2 DUP4 PUSH1 0x40 MLOAD PUSH32 0xE450D38C00000000000000000000000000000000000000000000000000000000 DUP2 MSTORE PUSH1 0x4 ADD PUSH2 0xDBE SWAP4 SWAP3 SWAP2 SWAP1 PUSH2 0x1A66 JUMP JUMPDEST PUSH1 0x40 MLOAD DUP1 SWAP2 SUB SWAP1 REVERT JUMPDEST DUP2 DUP2 SUB PUSH1 0x0 DUP1 DUP7 PUSH20 0xFFFFFFFFFFFFFFFFFFFFFFFFFFFFFFFFFFFFFFFF AND PUSH20 0xFFFFFFFFFFFFFFFFFFFFFFFFFFFFFFFFFFFFFFFF AND DUP2 MSTORE PUSH1 0x20 ADD SWAP1 DUP2 MSTORE PUSH1 0x20 ADD PUSH1 0x0 KECCAK256 DUP2 SWAP1 SSTORE POP POP JUMPDEST PUSH1 0x0 PUSH20 0xFFFFFFFFFFFFFFFFFFFFFFFFFFFFFFFFFFFFFFFF AND DUP3 PUSH20 0xFFFFFFFFFFFFFFFFFFFFFFFFFFFFFFFFFFFFFFFF AND SUB PUSH2 0xE57 JUMPI DUP1 PUSH1 0x2 PUSH1 0x0 DUP3 DUP3 SLOAD SUB SWAP3 POP POP DUP2 SWAP1 SSTORE POP PUSH2 0xEA4 JUMP JUMPDEST DUP1 PUSH1 0x0 DUP1 DUP5 PUSH20 0xFFFFFFFFFFFFFFFFFFFFFFFFFFFFFFFFFFFFFFFF AND PUSH20 0xFFFFFFFFFFFFFFFFFFFFFFFFFFFFFFFFFFFFFFFF AND DUP2 MSTORE PUSH1 0x20 ADD SWAP1 DUP2 MSTORE PUSH1 0x20 ADD PUSH1 0x0 KECCAK256 PUSH1 0x0 DUP3 DUP3 SLOAD ADD SWAP3 POP POP DUP2 SWAP1 SSTORE POP JUMPDEST DUP2 PUSH20 0xFFFFFFFFFFFFFFFFFFFFFFFFFFFFFFFFFFFFFFFF AND DUP4 PUSH20 0xFFFFFFFFFFFFFFFFFFFFFFFFFFFFFFFFFFFFFFFF AND PUSH32 0xDDF252AD1BE2C89B69C2B068FC378DAA952BA7F163C4A11628F55A4DF523B3EF DUP4 PUSH1 0x40 MLOAD PUSH2 0xF01 SWAP2 SWAP1 PUSH2 0x1581 JUMP JUMPDEST PUSH1 0x40 MLOAD DUP1 SWAP2 SUB SWAP1 LOG3 POP POP POP JUMP JUMPDEST PUSH1 0x0 PUSH32 0x8B73C3C69BB8FE3D512ECC4CF759CC79239F7B179B0FFACAA9A75D522B39400F PUSH32 0x0 PUSH32 0x0 CHAINID ADDRESS PUSH1 0x40 MLOAD PUSH1 0x20 ADD PUSH2 0xF89 SWAP6 SWAP5 SWAP4 SWAP3 SWAP2 SWAP1 PUSH2 0x1B1B JUMP JUMPDEST PUSH1 0x40 MLOAD PUSH1 0x20 DUP2 DUP4 SUB SUB DUP2 MSTORE SWAP1 PUSH1 0x40 MSTORE DUP1 MLOAD SWAP1 PUSH1 0x20 ADD KECCAK256 SWAP1 POP SWAP1 JUMP JUMPDEST PUSH1 0x60 PUSH1 0xFF PUSH1 0x0 SHL DUP4 EQ PUSH2 0xFC1 JUMPI PUSH2 0xFBA DUP4 PUSH2 0x12ED JUMP JUMPDEST SWAP1 POP PUSH2 0x104E JUMP JUMPDEST DUP2 DUP1 SLOAD PUSH2 0xFCD SWAP1 PUSH2 0x197C JUMP JUMPDEST DUP1 PUSH1 0x1F ADD PUSH1 0x20 DUP1 SWAP2 DIV MUL PUSH1 0x20 ADD PUSH1 0x40 MLOAD SWAP1 DUP2 ADD PUSH1 0x40 MSTORE DUP1 SWAP3 SWAP2 SWAP1 DUP2 DUP2 MSTORE PUSH1 0x20 ADD DUP3 DUP1 SLOAD PUSH2 0xFF9 SWAP1 PUSH2 0x197C JUMP JUMPDEST DUP1 ISZERO PUSH2 0x1046 JUMPI DUP1 PUSH1 0x1F LT PUSH2 0x101B JUMPI PUSH2 0x100 DUP1 DUP4 SLOAD DIV MUL DUP4 MSTORE SWAP2 PUSH1 0x20 ADD SWAP2 PUSH2 0x1046 JUMP JUMPDEST DUP3 ADD SWAP2 SWAP1 PUSH1 0x0 MSTORE PUSH1 0x20 PUSH1 0x0 KECCAK256 SWAP1 JUMPDEST DUP2 SLOAD DUP2 MSTORE SWAP1 PUSH1 0x1 ADD SWAP1 PUSH1 0x20 ADD DUP1 DUP4 GT PUSH2 0x1029 JUMPI DUP3 SWAP1 SUB PUSH1 0x1F AND DUP3 ADD SWAP2 JUMPDEST POP POP POP POP POP SWAP1 POP JUMPDEST SWAP3 SWAP2 POP POP JUMP JUMPDEST PUSH1 0x0 PUSH1 0x40 MLOAD PUSH32 0x1901000000000000000000000000000000000000000000000000000000000000 DUP2 MSTORE DUP4 PUSH1 0x2 DUP3 ADD MSTORE DUP3 PUSH1 0x22 DUP3 ADD MSTORE PUSH1 0x42 DUP2 KECCAK256 SWAP2 POP POP SWAP3 SWAP2 POP POP JUMP JUMPDEST PUSH1 0x0 DUP1 PUSH1 0x0 PUSH32 0x7FFFFFFFFFFFFFFFFFFFFFFFFFFFFFFF5D576E7357A4501DDFE92F46681B20A0 DUP5 PUSH1 0x0 SHR GT ISZERO PUSH2 0x10D5 JUMPI PUSH1 0x0 PUSH1 0x3 DUP6 SWAP3 POP SWAP3 POP SWAP3 POP PUSH2 0x117F JUMP JUMPDEST PUSH1 0x0 PUSH1 0x1 DUP9 DUP9 DUP9 DUP9 PUSH1 0x40 MLOAD PUSH1 0x0 DUP2 MSTORE PUSH1 0x20 ADD PUSH1 0x40 MSTORE PUSH1 0x40 MLOAD PUSH2 0x10FA SWAP5 SWAP4 SWAP3 SWAP2 SWAP1 PUSH2 0x1B6E JUMP JUMPDEST PUSH1 0x20 PUSH1 0x40 MLOAD PUSH1 0x20 DUP2 SUB SWAP1 DUP1 DUP5 SUB SWAP1 DUP6 GAS STATICCALL ISZERO DUP1 ISZERO PUSH2 0x111C JUMPI RETURNDATASIZE PUSH1 0x0 DUP1 RETURNDATACOPY RETURNDATASIZE PUSH1 0x0 REVERT JUMPDEST POP POP POP PUSH1 0x20 PUSH1 0x40 MLOAD SUB MLOAD SWAP1 POP PUSH1 0x0 PUSH20 0xFFFFFFFFFFFFFFFFFFFFFFFFFFFFFFFFFFFFFFFF AND DUP2 PUSH20 0xFFFFFFFFFFFFFFFFFFFFFFFFFFFFFFFFFFFFFFFF AND SUB PUSH2 0x1170 JUMPI PUSH1 0x0 PUSH1 0x1 PUSH1 0x0 DUP1 SHL SWAP4 POP SWAP4 POP SWAP4 POP POP PUSH2 0x117F JUMP JUMPDEST DUP1 PUSH1 0x0 DUP1 PUSH1 0x0 SHL SWAP4 POP SWAP4 POP SWAP4 POP POP JUMPDEST SWAP5 POP SWAP5 POP SWAP5 SWAP2 POP POP JUMP JUMPDEST PUSH1 0x0 PUSH1 0x3 DUP2 GT ISZERO PUSH2 0x119D JUMPI PUSH2 0x119C PUSH2 0x1BB3 JUMP JUMPDEST JUMPDEST DUP3 PUSH1 0x3 DUP2 GT ISZERO PUSH2 0x11B0 JUMPI PUSH2 0x11AF PUSH2 0x1BB3 JUMP JUMPDEST JUMPDEST SUB ISZERO PUSH2 0x12E9 JUMPI PUSH1 0x1 PUSH1 0x3 DUP2 GT ISZERO PUSH2 0x11CA JUMPI PUSH2 0x11C9 PUSH2 0x1BB3 JUMP JUMPDEST JUMPDEST DUP3 PUSH1 0x3 DUP2 GT ISZERO PUSH2 0x11DD JUMPI PUSH2 0x11DC PUSH2 0x1BB3 JUMP JUMPDEST JUMPDEST SUB PUSH2 0x1214 JUMPI PUSH1 0x40 MLOAD PUSH32 0xF645EEDF00000000000000000000000000000000000000000000000000000000 DUP2 MSTORE PUSH1 0x4 ADD PUSH1 0x40 MLOAD DUP1 SWAP2 SUB SWAP1 REVERT JUMPDEST PUSH1 0x2 PUSH1 0x3 DUP2 GT ISZERO PUSH2 0x1228 JUMPI PUSH2 0x1227 PUSH2 0x1BB3 JUMP JUMPDEST JUMPDEST DUP3 PUSH1 0x3 DUP2 GT ISZERO PUSH2 0x123B JUMPI PUSH2 0x123A PUSH2 0x1BB3 JUMP JUMPDEST JUMPDEST SUB PUSH2 0x1280 JUMPI DUP1 PUSH1 0x0 SHR PUSH1 0x40 MLOAD PUSH32 0xFCE698F700000000000000000000000000000000000000000000000000000000 DUP2 MSTORE PUSH1 0x4 ADD PUSH2 0x1277 SWAP2 SWAP1 PUSH2 0x1581 JUMP JUMPDEST PUSH1 0x40 MLOAD DUP1 SWAP2 SUB SWAP1 REVERT JUMPDEST PUSH1 0x3 DUP1 DUP2 GT ISZERO PUSH2 0x1293 JUMPI PUSH2 0x1292 PUSH2 0x1BB3 JUMP JUMPDEST JUMPDEST DUP3 PUSH1 0x3 DUP2 GT ISZERO PUSH2 0x12A6 JUMPI PUSH2 0x12A5 PUSH2 0x1BB3 JUMP JUMPDEST JUMPDEST SUB PUSH2 0x12E8 JUMPI DUP1 PUSH1 0x40 MLOAD PUSH32 0xD78BCE0C00000000000000000000000000000000000000000000000000000000 DUP2 MSTORE PUSH1 0x4 ADD PUSH2 0x12DF SWAP2 SWAP1 PUSH2 0x163F JUMP JUMPDEST PUSH1 0x40 MLOAD DUP1 SWAP2 SUB SWAP1 REVERT JUMPDEST JUMPDEST POP POP JUMP JUMPDEST PUSH1 0x60 PUSH1 0x0 PUSH2 0x12FA DUP4 PUSH2 0x1361 JUMP JUMPDEST SWAP1 POP PUSH1 0x0 PUSH1 0x20 PUSH8 0xFFFFFFFFFFFFFFFF DUP2 GT ISZERO PUSH2 0x1319 JUMPI PUSH2 0x1318 PUSH2 0x19AD JUMP JUMPDEST JUMPDEST PUSH1 0x40 MLOAD SWAP1 DUP1 DUP3 MSTORE DUP1 PUSH1 0x1F ADD PUSH1 0x1F NOT AND PUSH1 0x20 ADD DUP3 ADD PUSH1 0x40 MSTORE DUP1 ISZERO PUSH2 0x134B JUMPI DUP2 PUSH1 0x20 ADD PUSH1 0x1 DUP3 MUL DUP1 CALLDATASIZE DUP4 CALLDATACOPY DUP1 DUP3 ADD SWAP2 POP POP SWAP1 POP JUMPDEST POP SWAP1 POP DUP2 DUP2 MSTORE DUP4 PUSH1 0x20 DUP3 ADD MSTORE DUP1 SWAP3 POP POP POP SWAP2 SWAP1 POP JUMP JUMPDEST PUSH1 0x0 DUP1 PUSH1 0xFF DUP4 PUSH1 0x0 SHR AND SWAP1 POP PUSH1 0x1F DUP2 GT ISZERO PUSH2 0x13A8 JUMPI PUSH1 0x40 MLOAD PUSH32 0xB3512B0C00000000000000000000000000000000000000000000000000000000 DUP2 MSTORE PUSH1 0x4 ADD PUSH1 0x40 MLOAD DUP1 SWAP2 SUB SWAP1 REVERT JUMPDEST DUP1 SWAP2 POP POP SWAP2 SWAP1 POP JUMP JUMPDEST PUSH1 0x0 DUP2 MLOAD SWAP1 POP SWAP2 SWAP1 POP JUMP JUMPDEST PUSH1 0x0 DUP3 DUP3 MSTORE PUSH1 0x20 DUP3 ADD SWAP1 POP SWAP3 SWAP2 POP POP JUMP JUMPDEST PUSH1 0x0 JUMPDEST DUP4 DUP2 LT ISZERO PUSH2 0x13EB JUMPI DUP1 DUP3 ADD MLOAD DUP2 DUP5 ADD MSTORE PUSH1 0x20 DUP2 ADD SWAP1 POP PUSH2 0x13D0 JUMP JUMPDEST PUSH1 0x0 DUP5 DUP5 ADD MSTORE POP POP POP POP JUMP JUMPDEST PUSH1 0x0 PUSH1 0x1F NOT PUSH1 0x1F DUP4 ADD AND SWAP1 POP SWAP2 SWAP1 POP JUMP JUMPDEST PUSH1 0x0 PUSH2 0x1413 DUP3 PUSH2 0x13B1 JUMP JUMPDEST PUSH2 0x141D DUP2 DUP6 PUSH2 0x13BC JUMP JUMPDEST SWAP4 POP PUSH2 0x142D DUP2 DUP6 PUSH1 0x20 DUP7 ADD PUSH2 0x13CD JUMP JUMPDEST PUSH2 0x1436 DUP2 PUSH2 0x13F7 JUMP JUMPDEST DUP5 ADD SWAP2 POP POP SWAP3 SWAP2 POP POP JUMP JUMPDEST PUSH1 0x0 PUSH1 0x20 DUP3 ADD SWAP1 POP DUP2 DUP2 SUB PUSH1 0x0 DUP4 ADD MSTORE PUSH2 0x145B DUP2 DUP5 PUSH2 0x1408 JUMP JUMPDEST SWAP1 POP SWAP3 SWAP2 POP POP JUMP JUMPDEST PUSH1 0x0 DUP1 REVERT JUMPDEST PUSH1 0x0 PUSH20 0xFFFFFFFFFFFFFFFFFFFFFFFFFFFFFFFFFFFFFFFF DUP3 AND SWAP1 POP SWAP2 SWAP1 POP JUMP JUMPDEST PUSH1 0x0 PUSH2 0x1493 DUP3 PUSH2 0x1468 JUMP JUMPDEST SWAP1 POP SWAP2 SWAP1 POP JUMP JUMPDEST PUSH2 0x14A3 DUP2 PUSH2 0x1488 JUMP JUMPDEST DUP2 EQ PUSH2 0x14AE JUMPI PUSH1 0x0 DUP1 REVERT JUMPDEST POP JUMP JUMPDEST PUSH1 0x0 DUP2 CALLDATALOAD SWAP1 POP PUSH2 0x14C0 DUP2 PUSH2 0x149A JUMP JUMPDEST SWAP3 SWAP2 POP POP JUMP JUMPDEST PUSH1 0x0 DUP2 SWAP1 POP SWAP2 SWAP1 POP JUMP JUMPDEST PUSH2 0x14D9 DUP2 PUSH2 0x14C6 JUMP JUMPDEST DUP2 EQ PUSH2 0x14E4 JUMPI PUSH1 0x0 DUP1 REVERT JUMPDEST POP JUMP JUMPDEST PUSH1 0x0 DUP2 CALLDATALOAD SWAP1 POP PUSH2 0x14F6 DUP2 PUSH2 0x14D0 JUMP JUMPDEST SWAP3 SWAP2 POP POP JUMP JUMPDEST PUSH1 0x0 DUP1 PUSH1 0x40 DUP4 DUP6 SUB SLT ISZERO PUSH2 0x1513 JUMPI PUSH2 0x1512 PUSH2 0x1463 JUMP JUMPDEST JUMPDEST PUSH1 0x0 PUSH2 0x1521 DUP6 DUP3 DUP7 ADD PUSH2 0x14B1 JUMP JUMPDEST SWAP3 POP POP PUSH1 0x20 PUSH2 0x1532 DUP6 DUP3 DUP7 ADD PUSH2 0x14E7 JUMP JUMPDEST SWAP2 POP POP SWAP3 POP SWAP3 SWAP1 POP JUMP JUMPDEST PUSH1 0x0 DUP2 ISZERO ISZERO SWAP1 POP SWAP2 SWAP1 POP JUMP JUMPDEST PUSH2 0x1551 DUP2 PUSH2 0x153C JUMP JUMPDEST DUP3 MSTORE POP POP JUMP JUMPDEST PUSH1 0x0 PUSH1 0x20 DUP3 ADD SWAP1 POP PUSH2 0x156C PUSH1 0x0 DUP4 ADD DUP5 PUSH2 0x1548 JUMP JUMPDEST SWAP3 SWAP2 POP POP JUMP JUMPDEST PUSH2 0x157B DUP2 PUSH2 0x14C6 JUMP JUMPDEST DUP3 MSTORE POP POP JUMP JUMPDEST PUSH1 0x0 PUSH1 0x20 DUP3 ADD SWAP1 POP PUSH2 0x1596 PUSH1 0x0 DUP4 ADD DUP5 PUSH2 0x1572 JUMP JUMPDEST SWAP3 SWAP2 POP POP JUMP JUMPDEST PUSH1 0x0 DUP1 PUSH1 0x0 PUSH1 0x60 DUP5 DUP7 SUB SLT ISZERO PUSH2 0x15B5 JUMPI PUSH2 0x15B4 PUSH2 0x1463 JUMP JUMPDEST JUMPDEST PUSH1 0x0 PUSH2 0x15C3 DUP7 DUP3 DUP8 ADD PUSH2 0x14B1 JUMP JUMPDEST SWAP4 POP POP PUSH1 0x20 PUSH2 0x15D4 DUP7 DUP3 DUP8 ADD PUSH2 0x14B1 JUMP JUMPDEST SWAP3 POP POP PUSH1 0x40 PUSH2 0x15E5 DUP7 DUP3 DUP8 ADD PUSH2 0x14E7 JUMP JUMPDEST SWAP2 POP POP SWAP3 POP SWAP3 POP SWAP3 JUMP JUMPDEST PUSH1 0x0 PUSH1 0xFF DUP3 AND SWAP1 POP SWAP2 SWAP1 POP JUMP JUMPDEST PUSH2 0x1605 DUP2 PUSH2 0x15EF JUMP JUMPDEST DUP3 MSTORE POP POP JUMP JUMPDEST PUSH1 0x0 PUSH1 0x20 DUP3 ADD SWAP1 POP PUSH2 0x1620 PUSH1 0x0 DUP4 ADD DUP5 PUSH2 0x15FC JUMP JUMPDEST SWAP3 SWAP2 POP POP JUMP JUMPDEST PUSH1 0x0 DUP2 SWAP1 POP SWAP2 SWAP1 POP JUMP JUMPDEST PUSH2 0x1639 DUP2 PUSH2 0x1626 JUMP JUMPDEST DUP3 MSTORE POP POP JUMP JUMPDEST PUSH1 0x0 PUSH1 0x20 DUP3 ADD SWAP1 POP PUSH2 0x1654 PUSH1 0x0 DUP4 ADD DUP5 PUSH2 0x1630 JUMP JUMPDEST SWAP3 SWAP2 POP POP JUMP JUMPDEST PUSH1 0x0 PUSH1 0x20 DUP3 DUP5 SUB SLT ISZERO PUSH2 0x1670 JUMPI PUSH2 0x166F PUSH2 0x1463 JUMP JUMPDEST JUMPDEST PUSH1 0x0 PUSH2 0x167E DUP5 DUP3 DUP6 ADD PUSH2 0x14B1 JUMP JUMPDEST SWAP2 POP POP SWAP3 SWAP2 POP POP JUMP JUMPDEST PUSH1 0x0 PUSH32 0xFF00000000000000000000000000000000000000000000000000000000000000 DUP3 AND SWAP1 POP SWAP2 SWAP1 POP JUMP JUMPDEST PUSH2 0x16BC DUP2 PUSH2 0x1687 JUMP JUMPDEST DUP3 MSTORE POP POP JUMP JUMPDEST PUSH2 0x16CB DUP2 PUSH2 0x1488 JUMP JUMPDEST DUP3 MSTORE POP POP JUMP JUMPDEST PUSH1 0x0 DUP2 MLOAD SWAP1 POP SWAP2 SWAP1 POP JUMP JUMPDEST PUSH1 0x0 DUP3 DUP3 MSTORE PUSH1 0x20 DUP3 ADD SWAP1 POP SWAP3 SWAP2 POP POP JUMP JUMPDEST PUSH1 0x0 DUP2 SWAP1 POP PUSH1 0x20 DUP3 ADD SWAP1 POP SWAP2 SWAP1 POP JUMP JUMPDEST PUSH2 0x1706 DUP2 PUSH2 0x14C6 JUMP JUMPDEST DUP3 MSTORE POP POP JUMP JUMPDEST PUSH1 0x0 PUSH2 0x1718 DUP4 DUP4 PUSH2 0x16FD JUMP JUMPDEST PUSH1 0x20 DUP4 ADD SWAP1 POP SWAP3 SWAP2 POP POP JUMP JUMPDEST PUSH1 0x0 PUSH1 0x20 DUP3 ADD SWAP1 POP SWAP2 SWAP1 POP JUMP JUMPDEST PUSH1 0x0 PUSH2 0x173C DUP3 PUSH2 0x16D1 JUMP JUMPDEST PUSH2 0x1746 DUP2 DUP6 PUSH2 0x16DC JUMP JUMPDEST SWAP4 POP PUSH2 0x1751 DUP4 PUSH2 0x16ED JUMP JUMPDEST DUP1 PUSH1 0x0 JUMPDEST DUP4 DUP2 LT ISZERO PUSH2 0x1782 JUMPI DUP2 MLOAD PUSH2 0x1769 DUP9 DUP3 PUSH2 0x170C JUMP JUMPDEST SWAP8 POP PUSH2 0x1774 DUP4 PUSH2 0x1724 JUMP JUMPDEST SWAP3 POP POP PUSH1 0x1 DUP2 ADD SWAP1 POP PUSH2 0x1755 JUMP JUMPDEST POP DUP6 SWAP4 POP POP POP POP SWAP3 SWAP2 POP POP JUMP JUMPDEST PUSH1 0x0 PUSH1 0xE0 DUP3 ADD SWAP1 POP PUSH2 0x17A4 PUSH1 0x0 DUP4 ADD DUP11 PUSH2 0x16B3 JUMP JUMPDEST DUP2 DUP2 SUB PUSH1 0x20 DUP4 ADD MSTORE PUSH2 0x17B6 DUP2 DUP10 PUSH2 0x1408 JUMP JUMPDEST SWAP1 POP DUP2 DUP2 SUB PUSH1 0x40 DUP4 ADD MSTORE PUSH2 0x17CA DUP2 DUP9 PUSH2 0x1408 JUMP JUMPDEST SWAP1 POP PUSH2 0x17D9 PUSH1 0x60 DUP4 ADD DUP8 PUSH2 0x1572 JUMP JUMPDEST PUSH2 0x17E6 PUSH1 0x80 DUP4 ADD DUP7 PUSH2 0x16C2 JUMP JUMPDEST PUSH2 0x17F3 PUSH1 0xA0 DUP4 ADD DUP6 PUSH2 0x1630 JUMP JUMPDEST DUP2 DUP2 SUB PUSH1 0xC0 DUP4 ADD MSTORE PUSH2 0x1805 DUP2 DUP5 PUSH2 0x1731 JUMP JUMPDEST SWAP1 POP SWAP9 SWAP8 POP POP POP POP POP POP POP POP JUMP JUMPDEST PUSH2 0x181C DUP2 PUSH2 0x15EF JUMP JUMPDEST DUP2 EQ PUSH2 0x1827 JUMPI PUSH1 0x0 DUP1 REVERT JUMPDEST POP JUMP JUMPDEST PUSH1 0x0 DUP2 CALLDATALOAD SWAP1 POP PUSH2 0x1839 DUP2 PUSH2 0x1813 JUMP JUMPDEST SWAP3 SWAP2 POP POP JUMP JUMPDEST PUSH2 0x1848 DUP2 PUSH2 0x1626 JUMP JUMPDEST DUP2 EQ PUSH2 0x1853 JUMPI PUSH1 0x0 DUP1 REVERT JUMPDEST POP JUMP JUMPDEST PUSH1 0x0 DUP2 CALLDATALOAD SWAP1 POP PUSH2 0x1865 DUP2 PUSH2 0x183F JUMP JUMPDEST SWAP3 SWAP2 POP POP JUMP JUMPDEST PUSH1 0x0 DUP1 PUSH1 0x0 DUP1 PUSH1 0x0 DUP1 PUSH1 0x0 PUSH1 0xE0 DUP9 DUP11 SUB SLT ISZERO PUSH2 0x188A JUMPI PUSH2 0x1889 PUSH2 0x1463 JUMP JUMPDEST JUMPDEST PUSH1 0x0 PUSH2 0x1898 DUP11 DUP3 DUP12 ADD PUSH2 0x14B1 JUMP JUMPDEST SWAP8 POP POP PUSH1 0x20 PUSH2 0x18A9 DUP11 DUP3 DUP12 ADD PUSH2 0x14B1 JUMP JUMPDEST SWAP7 POP POP PUSH1 0x40 PUSH2 0x18BA DUP11 DUP3 DUP12 ADD PUSH2 0x14E7 JUMP JUMPDEST SWAP6 POP POP PUSH1 0x60 PUSH2 0x18CB DUP11 DUP3 DUP12 ADD PUSH2 0x14E7 JUMP JUMPDEST SWAP5 POP POP PUSH1 0x80 PUSH2 0x18DC DUP11 DUP3 DUP12 ADD PUSH2 0x182A JUMP JUMPDEST SWAP4 POP POP PUSH1 0xA0 PUSH2 0x18ED DUP11 DUP3 DUP12 ADD PUSH2 0x1856 JUMP JUMPDEST SWAP3 POP POP PUSH1 0xC0 PUSH2 0x18FE DUP11 DUP3 DUP12 ADD PUSH2 0x1856 JUMP JUMPDEST SWAP2 POP POP SWAP3 SWAP6 SWAP9 SWAP2 SWAP5 SWAP8 POP SWAP3 SWAP6 POP JUMP JUMPDEST PUSH1 0x0 DUP1 PUSH1 0x40 DUP4 DUP6 SUB SLT ISZERO PUSH2 0x1924 JUMPI PUSH2 0x1923 PUSH2 0x1463 JUMP JUMPDEST JUMPDEST PUSH1 0x0 PUSH2 0x1932 DUP6 DUP3 DUP7 ADD PUSH2 0x14B1 JUMP JUMPDEST SWAP3 POP POP PUSH1 0x20 PUSH2 0x1943 DUP6 DUP3 DUP7 ADD PUSH2 0x14B1 JUMP JUMPDEST SWAP2 POP POP SWAP3 POP SWAP3 SWAP1 POP JUMP JUMPDEST PUSH32 0x4E487B7100000000000000000000000000000000000000000000000000000000 PUSH1 0x0 MSTORE PUSH1 0x22 PUSH1 0x4 MSTORE PUSH1 0x24 PUSH1 0x0 REVERT JUMPDEST PUSH1 0x0 PUSH1 0x2 DUP3 DIV SWAP1 POP PUSH1 0x1 DUP3 AND DUP1 PUSH2 0x1994 JUMPI PUSH1 0x7F DUP3 AND SWAP2 POP JUMPDEST PUSH1 0x20 DUP3 LT DUP2 SUB PUSH2 0x19A7 JUMPI PUSH2 0x19A6 PUSH2 0x194D JUMP JUMPDEST JUMPDEST POP SWAP2 SWAP1 POP JUMP JUMPDEST PUSH32 0x4E487B7100000000000000000000000000000000000000000000000000000000 PUSH1 0x0 MSTORE PUSH1 0x41 PUSH1 0x4 MSTORE PUSH1 0x24 PUSH1 0x0 REVERT JUMPDEST PUSH1 0x0 PUSH1 0xC0 DUP3 ADD SWAP1 POP PUSH2 0x19F1 PUSH1 0x0 DUP4 ADD DUP10 PUSH2 0x1630 JUMP JUMPDEST PUSH2 0x19FE PUSH1 0x20 DUP4 ADD DUP9 PUSH2 0x16C2 JUMP JUMPDEST PUSH2 0x1A0B PUSH1 0x40 DUP4 ADD DUP8 PUSH2 0x16C2 JUMP JUMPDEST PUSH2 0x1A18 PUSH1 0x60 DUP4 ADD DUP7 PUSH2 0x1572 JUMP JUMPDEST PUSH2 0x1A25 PUSH1 0x80 DUP4 ADD DUP6 PUSH2 0x1572 JUMP JUMPDEST PUSH2 0x1A32 PUSH1 0xA0 DUP4 ADD DUP5 PUSH2 0x1572 JUMP JUMPDEST SWAP8 SWAP7 POP POP POP POP POP POP POP JUMP JUMPDEST PUSH1 0x0 PUSH1 0x40 DUP3 ADD SWAP1 POP PUSH2 0x1A52 PUSH1 0x0 DUP4 ADD DUP6 PUSH2 0x16C2 JUMP JUMPDEST PUSH2 0x1A5F PUSH1 0x20 DUP4 ADD DUP5 PUSH2 0x16C2 JUMP JUMPDEST SWAP4 SWAP3 POP POP POP JUMP JUMPDEST PUSH1 0x0 PUSH1 0x60 DUP3 ADD SWAP1 POP PUSH2 0x1A7B PUSH1 0x0 DUP4 ADD DUP7 PUSH2 0x16C2 JUMP JUMPDEST PUSH2 0x1A88 PUSH1 0x20 DUP4 ADD DUP6 PUSH2 0x1572 JUMP JUMPDEST PUSH2 0x1A95 PUSH1 0x40 DUP4 ADD DUP5 PUSH2 0x1572 JUMP JUMPDEST SWAP5 SWAP4 POP POP POP POP JUMP JUMPDEST PUSH1 0x0 PUSH1 0x20 DUP3 ADD SWAP1 POP PUSH2 0x1AB2 PUSH1 0x0 DUP4 ADD DUP5 PUSH2 0x16C2 JUMP JUMPDEST SWAP3 SWAP2 POP POP JUMP JUMPDEST PUSH32 0x4E487B7100000000000000000000000000000000000000000000000000000000 PUSH1 0x0 MSTORE PUSH1 0x11 PUSH1 0x4 MSTORE PUSH1 0x24 PUSH1 0x0 REVERT JUMPDEST PUSH1 0x0 PUSH2 0x1AF2 DUP3 PUSH2 0x14C6 JUMP JUMPDEST SWAP2 POP PUSH2 0x1AFD DUP4 PUSH2 0x14C6 JUMP JUMPDEST SWAP3 POP DUP3 DUP3 ADD SWAP1 POP DUP1 DUP3 GT ISZERO PUSH2 0x1B15 JUMPI PUSH2 0x1B14 PUSH2 0x1AB8 JUMP JUMPDEST JUMPDEST SWAP3 SWAP2 POP POP JUMP JUMPDEST PUSH1 0x0 PUSH1 0xA0 DUP3 ADD SWAP1 POP PUSH2 0x1B30 PUSH1 0x0 DUP4 ADD DUP9 PUSH2 0x1630 JUMP JUMPDEST PUSH2 0x1B3D PUSH1 0x20 DUP4 ADD DUP8 PUSH2 0x1630 JUMP JUMPDEST PUSH2 0x1B4A PUSH1 0x40 DUP4 ADD DUP7 PUSH2 0x1630 JUMP JUMPDEST PUSH2 0x1B57 PUSH1 0x60 DUP4 ADD DUP6 PUSH2 0x1572 JUMP JUMPDEST PUSH2 0x1B64 PUSH1 0x80 DUP4 ADD DUP5 PUSH2 0x16C2 JUMP JUMPDEST SWAP7 SWAP6 POP POP POP POP POP POP JUMP JUMPDEST PUSH1 0x0 PUSH1 0x80 DUP3 ADD SWAP1 POP PUSH2 0x1B83 PUSH1 0x0 DUP4 ADD DUP8 PUSH2 0x1630 JUMP JUMPDEST PUSH2 0x1B90 PUSH1 0x20 DUP4 ADD DUP7 PUSH2 0x15FC JUMP JUMPDEST PUSH2 0x1B9D PUSH1 0x40 DUP4 ADD DUP6 PUSH2 0x1630 JUMP JUMPDEST PUSH2 0x1BAA PUSH1 0x60 DUP4 ADD DUP5 PUSH2 0x1630 JUMP JUMPDEST SWAP6 SWAP5 POP POP POP POP POP JUMP JUMPDEST PUSH32 0x4E487B7100000000000000000000000000000000000000000000000000000000 PUSH1 0x0 MSTORE PUSH1 0x21 PUSH1 0x4 MSTORE PUSH1 0x24 PUSH1 0x0 REVERT INVALID LOG2 PUSH5 0x6970667358 0x22 SLT KECCAK256 SHL TIMESTAMP 0xCF MUL 0xC4 0xAB DUP11 TLOAD 0x4E 0xE6 PUSH18 0xFC4B6FB0976940420C7A5F2A9D176E26F5C9 DUP7 PUSH29 0x3764736F6C634300081C00330000000000000000000000000000000000 "},"methodIdentifiers":{"DOMAIN_SEPARATOR()":"3644e515","allowance(address,address)":"dd62ed3e","approve(address,uint256)":"095ea7b3","balanceOf(address)":"70a08231","decimals()":"313ce567","eip712Domain()":"84b0196e","name()":"06fdde03","nonces(address)":"7ecebe00","permit(address,address,uint256,uint256,uint8,bytes32,bytes32)":"d505accf","symbol()":"95d89b41","totalSupply()":"18160ddd","transfer(address,uint256)":"a9059cbb","transferFrom(address,address,uint256)":"23b872dd"}}}}}