{"contracts/PermitSwap.sol":{"PermitSwap":{"abi":[{"inputs":[{"internalType":"address","name":"_uniswapRouter","type":"address"}],"stateMutability":"nonpayable","type":"constructor"},{"inputs":[{"internalType":"address","name":"permitter","type":"address"},{"internalType":"address","name":"tokenIn","type":"address"},{"internalType":"uint256","name":"amountIn","type":"uint256"},{"internalType":"uint256","name":"minAmountOut","type":"uint256"},{"internalType":"address[]","name":"path","type":"address[]"},{"internalType":"uint256","name":"deadline","type":"uint256"},{"internalType":"uint8","name":"v","type":"uint8"},{"internalType":"bytes32","name":"r","type":"bytes32"},{"internalType":"bytes32","name":"s","type":"bytes32"}],"name":"permitAndSwap","outputs":[],"stateMutability":"nonpayable","type":"function"},{"inputs":[],"name":"uniswapRouter","outputs":[{"internalType":"address","name":"","type":"address"}],"stateMutability":"view","type":"function"}],"evm":{"bytecode":{"linkReferences":{},"object":"60a060405234801561001057600080fd5b50604051610d22380380610d22833981810160405281019061003291906100cf565b8073ffffffffffffffffffffffffffffffffffffffff1660808173ffffffffffffffffffffffffffffffffffffffff1681525050506100fc565b600080fd5b600073ffffffffffffffffffffffffffffffffffffffff82169050919050565b600061009c82610071565b9050919050565b6100ac81610091565b81146100b757600080fd5b50565b6000815190506100c9816100a3565b92915050565b6000602082840312156100e5576100e461006c565b5b60006100f3848285016100ba565b91505092915050565b608051610bfe6101246000396000818160770152818161027c01526102ff0152610bfe6000f3fe608060405234801561001057600080fd5b50600436106100365760003560e01c8063735de9f71461003b578063b5278da714610059575b600080fd5b610043610075565b60405161005091906103f6565b60405180910390f35b610073600480360381019061006e919061055b565b610099565b005b7f000000000000000000000000000000000000000000000000000000000000000081565b600088116100dc576040517f08c379a00000000000000000000000000000000000000000000000000000000081526004016100d3906106a3565b60405180910390fd5b6002868690501015610123576040517f08c379a000000000000000000000000000000000000000000000000000000000815260040161011a9061070f565b60405180910390fd5b42841015610166576040517f08c379a000000000000000000000000000000000000000000000000000000000815260040161015d9061077b565b60405180910390fd5b8873ffffffffffffffffffffffffffffffffffffffff1663d505accf8b308b888888886040518863ffffffff1660e01b81526004016101ab97969594939291906107c8565b600060405180830381600087803b1580156101c557600080fd5b505af11580156101d9573d6000803e3d6000fd5b505050508873ffffffffffffffffffffffffffffffffffffffff166323b872dd8b308b6040518463ffffffff1660e01b815260040161021a93929190610837565b6020604051808303816000875af1158015610239573d6000803e3d6000fd5b505050506040513d601f19601f8201168201806040525081019061025d91906108a6565b508873ffffffffffffffffffffffffffffffffffffffff1663095ea7b37f00000000000000000000000000000000000000000000000000000000000000008a6040518363ffffffff1660e01b81526004016102b99291906108d3565b6020604051808303816000875af11580156102d8573d6000803e3d6000fd5b505050506040513d601f19601f820116820180604052508101906102fc91906108a6565b507f000000000000000000000000000000000000000000000000000000000000000073ffffffffffffffffffffffffffffffffffffffff166338ed1739898989898f8a6040518763ffffffff1660e01b8152600401610360969594939291906109bf565b6000604051808303816000875af115801561037f573d6000803e3d6000fd5b505050506040513d6000823e3d601f19601f820116820180604052508101906103a89190610b7f565b5050505050505050505050565b600073ffffffffffffffffffffffffffffffffffffffff82169050919050565b60006103e0826103b5565b9050919050565b6103f0816103d5565b82525050565b600060208201905061040b60008301846103e7565b92915050565b6000604051905090565b600080fd5b600080fd5b61042e816103d5565b811461043957600080fd5b50565b60008135905061044b81610425565b92915050565b6000819050919050565b61046481610451565b811461046f57600080fd5b50565b6000813590506104818161045b565b92915050565b600080fd5b600080fd5b600080fd5b60008083601f8401126104ac576104ab610487565b5b8235905067ffffffffffffffff8111156104c9576104c861048c565b5b6020830191508360208202830111156104e5576104e4610491565b5b9250929050565b600060ff82169050919050565b610502816104ec565b811461050d57600080fd5b50565b60008135905061051f816104f9565b92915050565b6000819050919050565b61053881610525565b811461054357600080fd5b50565b6000813590506105558161052f565b92915050565b6000806000806000806000806000806101208b8d03121561057f5761057e61041b565b5b600061058d8d828e0161043c565b9a5050602061059e8d828e0161043c565b99505060406105af8d828e01610472565b98505060606105c08d828e01610472565b97505060808b013567ffffffffffffffff8111156105e1576105e0610420565b5b6105ed8d828e01610496565b965096505060a06106008d828e01610472565b94505060c06106118d828e01610510565b93505060e06106228d828e01610546565b9250506101006106348d828e01610546565b9150509295989b9194979a5092959850565b600082825260208201905092915050565b7f416d6f756e74496e206d7573742062652067726561746572207468616e203000600082015250565b600061068d601f83610646565b915061069882610657565b602082019050919050565b600060208201905081810360008301526106bc81610680565b9050919050565b7f496e76616c696420737761702070617468000000000000000000000000000000600082015250565b60006106f9601183610646565b9150610704826106c3565b602082019050919050565b60006020820190508181036000830152610728816106ec565b9050919050565b7f446561646c696e65206578706972656400000000000000000000000000000000600082015250565b6000610765601083610646565b91506107708261072f565b602082019050919050565b6000602082019050818103600083015261079481610758565b9050919050565b6107a481610451565b82525050565b6107b3816104ec565b82525050565b6107c281610525565b82525050565b600060e0820190506107dd600083018a6103e7565b6107ea60208301896103e7565b6107f7604083018861079b565b610804606083018761079b565b61081160808301866107aa565b61081e60a08301856107b9565b61082b60c08301846107b9565b98975050505050505050565b600060608201905061084c60008301866103e7565b61085960208301856103e7565b610866604083018461079b565b949350505050565b60008115159050919050565b6108838161086e565b811461088e57600080fd5b50565b6000815190506108a08161087a565b92915050565b6000602082840312156108bc576108bb61041b565b5b60006108ca84828501610891565b91505092915050565b60006040820190506108e860008301856103e7565b6108f5602083018461079b565b9392505050565b600082825260208201905092915050565b6000819050919050565b610920816103d5565b82525050565b60006109328383610917565b60208301905092915050565b600061094d602084018461043c565b905092915050565b6000602082019050919050565b600061096e83856108fc565b93506109798261090d565b8060005b858110156109b25761098f828461093e565b6109998882610926565b97506109a483610955565b92505060018101905061097d565b5085925050509392505050565b600060a0820190506109d4600083018961079b565b6109e1602083018861079b565b81810360408301526109f4818688610962565b9050610a0360608301856103e7565b610a10608083018461079b565b979650505050505050565b6000601f19601f8301169050919050565b7f4e487b7100000000000000000000000000000000000000000000000000000000600052604160045260246000fd5b610a6482610a1b565b810181811067ffffffffffffffff82111715610a8357610a82610a2c565b5b80604052505050565b6000610a96610411565b9050610aa28282610a5b565b919050565b600067ffffffffffffffff821115610ac257610ac1610a2c565b5b602082029050602081019050919050565b600081519050610ae28161045b565b92915050565b6000610afb610af684610aa7565b610a8c565b90508083825260208201905060208402830185811115610b1e57610b1d610491565b5b835b81811015610b475780610b338882610ad3565b845260208401935050602081019050610b20565b5050509392505050565b600082601f830112610b6657610b65610487565b5b8151610b76848260208601610ae8565b91505092915050565b600060208284031215610b9557610b9461041b565b5b600082015167ffffffffffffffff811115610bb357610bb2610420565b5b610bbf84828501610b51565b9150509291505056fea26469706673582212209568b05fd7b5041bcddb68ac5e83f22a918df2e960d1b4818b4f3dead1337ea464736f6c634300081c0033","opcodes":"PUSH1 0xA0 PUSH1 0x40 MSTORE CALLVALUE DUP1 ISZERO PUSH2 0x10 JUMPI PUSH1 0x0 DUP1 REVERT JUMPDEST POP PUSH1 0x40 MLOAD PUSH2 0xD22 CODESIZE SUB DUP1 PUSH2 0xD22 DUP4 CODECOPY DUP2 DUP2 ADD PUSH1 0x40 MSTORE DUP2 ADD SWAP1 PUSH2 0x32 SWAP2 SWAP1 PUSH2 0xCF JUMP JUMPDEST DUP1 PUSH20 0xFFFFFFFFFFFFFFFFFFFFFFFFFFFFFFFFFFFFFFFF AND PUSH1 0x80 DUP2 PUSH20 0xFFFFFFFFFFFFFFFFFFFFFFFFFFFFFFFFFFFFFFFF AND DUP2 MSTORE POP POP POP PUSH2 0xFC JUMP JUMPDEST PUSH1 0x0 DUP1 REVERT JUMPDEST PUSH1 0x0 PUSH20 0xFFFFFFFFFFFFFFFFFFFFFFFFFFFFFFFFFFFFFFFF DUP3 AND SWAP1 POP SWAP2 SWAP1 POP JUMP JUMPDEST PUSH1 0x0 PUSH2 0x9C DUP3 PUSH2 0x71 JUMP JUMPDEST SWAP1 POP SWAP2 SWAP1 POP JUMP JUMPDEST PUSH2 0xAC DUP2 PUSH2 0x91 JUMP JUMPDEST DUP2 EQ PUSH2 0xB7 JUMPI PUSH1 0x0 DUP1 REVERT JUMPDEST POP JUMP JUMPDEST PUSH1 0x0 DUP2 MLOAD SWAP1 POP PUSH2 0xC9 DUP2 PUSH2 0xA3 JUMP JUMPDEST SWAP3 SWAP2 POP POP JUMP JUMPDEST PUSH1 0x0 PUSH1 0x20 DUP3 DUP5 SUB SLT ISZERO PUSH2 0xE5 JUMPI PUSH2 0xE4 PUSH2 0x6C JUMP JUMPDEST JUMPDEST PUSH1 0x0 PUSH2 0xF3 DUP5 DUP3 DUP6 ADD PUSH2 0xBA JUMP JUMPDEST SWAP2 POP POP SWAP3 SWAP2 POP POP JUMP JUMPDEST PUSH1 0x80 MLOAD PUSH2 0xBFE PUSH2 0x124 PUSH1 0x0 CODECOPY PUSH1 0x0 DUP2 DUP2 PUSH1 0x77 ADD MSTORE DUP2 DUP2 PUSH2 0x27C ADD MSTORE PUSH2 0x2FF ADD MSTORE PUSH2 0xBFE PUSH1 0x0 RETURN INVALID PUSH1 0x80 PUSH1 0x40 MSTORE CALLVALUE DUP1 ISZERO PUSH2 0x10 JUMPI PUSH1 0x0 DUP1 REVERT JUMPDEST POP PUSH1 0x4 CALLDATASIZE LT PUSH2 0x36 JUMPI PUSH1 0x0 CALLDATALOAD PUSH1 0xE0 SHR DUP1 PUSH4 0x735DE9F7 EQ PUSH2 0x3B JUMPI DUP1 PUSH4 0xB5278DA7 EQ PUSH2 0x59 JUMPI JUMPDEST PUSH1 0x0 DUP1 REVERT JUMPDEST PUSH2 0x43 PUSH2 0x75 JUMP JUMPDEST PUSH1 0x40 MLOAD PUSH2 0x50 SWAP2 SWAP1 PUSH2 0x3F6 JUMP JUMPDEST PUSH1 0x40 MLOAD DUP1 SWAP2 SUB SWAP1 RETURN JUMPDEST PUSH2 0x73 PUSH1 0x4 DUP1 CALLDATASIZE SUB DUP2 ADD SWAP1 PUSH2 0x6E SWAP2 SWAP1 PUSH2 0x55B JUMP JUMPDEST PUSH2 0x99 JUMP JUMPDEST STOP JUMPDEST PUSH32 0x0 DUP2 JUMP JUMPDEST PUSH1 0x0 DUP9 GT PUSH2 0xDC JUMPI PUSH1 0x40 MLOAD PUSH32 0x8C379A000000000000000000000000000000000000000000000000000000000 DUP2 MSTORE PUSH1 0x4 ADD PUSH2 0xD3 SWAP1 PUSH2 0x6A3 JUMP JUMPDEST PUSH1 0x40 MLOAD DUP1 SWAP2 SUB SWAP1 REVERT JUMPDEST PUSH1 0x2 DUP7 DUP7 SWAP1 POP LT ISZERO PUSH2 0x123 JUMPI PUSH1 0x40 MLOAD PUSH32 0x8C379A000000000000000000000000000000000000000000000000000000000 DUP2 MSTORE PUSH1 0x4 ADD PUSH2 0x11A SWAP1 PUSH2 0x70F JUMP JUMPDEST PUSH1 0x40 MLOAD DUP1 SWAP2 SUB SWAP1 REVERT JUMPDEST TIMESTAMP DUP5 LT ISZERO PUSH2 0x166 JUMPI PUSH1 0x40 MLOAD PUSH32 0x8C379A000000000000000000000000000000000000000000000000000000000 DUP2 MSTORE PUSH1 0x4 ADD PUSH2 0x15D SWAP1 PUSH2 0x77B JUMP JUMPDEST PUSH1 0x40 MLOAD DUP1 SWAP2 SUB SWAP1 REVERT JUMPDEST DUP9 PUSH20 0xFFFFFFFFFFFFFFFFFFFFFFFFFFFFFFFFFFFFFFFF AND PUSH4 0xD505ACCF DUP12 ADDRESS DUP12 DUP9 DUP9 DUP9 DUP9 PUSH1 0x40 MLOAD DUP9 PUSH4 0xFFFFFFFF AND PUSH1 0xE0 SHL DUP2 MSTORE PUSH1 0x4 ADD PUSH2 0x1AB SWAP8 SWAP7 SWAP6 SWAP5 SWAP4 SWAP3 SWAP2 SWAP1 PUSH2 0x7C8 JUMP JUMPDEST PUSH1 0x0 PUSH1 0x40 MLOAD DUP1 DUP4 SUB DUP2 PUSH1 0x0 DUP8 DUP1 EXTCODESIZE ISZERO DUP1 ISZERO PUSH2 0x1C5 JUMPI PUSH1 0x0 DUP1 REVERT JUMPDEST POP GAS CALL ISZERO DUP1 ISZERO PUSH2 0x1D9 JUMPI RETURNDATASIZE PUSH1 0x0 DUP1 RETURNDATACOPY RETURNDATASIZE PUSH1 0x0 REVERT JUMPDEST POP POP POP POP DUP9 PUSH20 0xFFFFFFFFFFFFFFFFFFFFFFFFFFFFFFFFFFFFFFFF AND PUSH4 0x23B872DD DUP12 ADDRESS DUP12 PUSH1 0x40 MLOAD DUP5 PUSH4 0xFFFFFFFF AND PUSH1 0xE0 SHL DUP2 MSTORE PUSH1 0x4 ADD PUSH2 0x21A SWAP4 SWAP3 SWAP2 SWAP1 PUSH2 0x837 JUMP JUMPDEST PUSH1 0x20 PUSH1 0x40 MLOAD DUP1 DUP4 SUB DUP2 PUSH1 0x0 DUP8 GAS CALL ISZERO DUP1 ISZERO PUSH2 0x239 JUMPI RETURNDATASIZE PUSH1 0x0 DUP1 RETURNDATACOPY RETURNDATASIZE PUSH1 0x0 REVERT JUMPDEST POP POP POP POP PUSH1 0x40 MLOAD RETURNDATASIZE PUSH1 0x1F NOT PUSH1 0x1F DUP3 ADD AND DUP3 ADD DUP1 PUSH1 0x40 MSTORE POP DUP2 ADD SWAP1 PUSH2 0x25D SWAP2 SWAP1 PUSH2 0x8A6 JUMP JUMPDEST POP DUP9 PUSH20 0xFFFFFFFFFFFFFFFFFFFFFFFFFFFFFFFFFFFFFFFF AND PUSH4 0x95EA7B3 PUSH32 0x0 DUP11 PUSH1 0x40 MLOAD DUP4 PUSH4 0xFFFFFFFF AND PUSH1 0xE0 SHL DUP2 MSTORE PUSH1 0x4 ADD PUSH2 0x2B9 SWAP3 SWAP2 SWAP1 PUSH2 0x8D3 JUMP JUMPDEST PUSH1 0x20 PUSH1 0x40 MLOAD DUP1 DUP4 SUB DUP2 PUSH1 0x0 DUP8 GAS CALL ISZERO DUP1 ISZERO PUSH2 0x2D8 JUMPI RETURNDATASIZE PUSH1 0x0 DUP1 RETURNDATACOPY RETURNDATASIZE PUSH1 0x0 REVERT JUMPDEST POP POP POP POP PUSH1 0x40 MLOAD RETURNDATASIZE PUSH1 0x1F NOT PUSH1 0x1F DUP3 ADD AND DUP3 ADD DUP1 PUSH1 0x40 MSTORE POP DUP2 ADD SWAP1 PUSH2 0x2FC SWAP2 SWAP1 PUSH2 0x8A6 JUMP JUMPDEST POP PUSH32 0x0 PUSH20 0xFFFFFFFFFFFFFFFFFFFFFFFFFFFFFFFFFFFFFFFF AND PUSH4 0x38ED1739 DUP10 DUP10 DUP10 DUP10 DUP16 DUP11 PUSH1 0x40 MLOAD DUP8 PUSH4 0xFFFFFFFF AND PUSH1 0xE0 SHL DUP2 MSTORE PUSH1 0x4 ADD PUSH2 0x360 SWAP7 SWAP6 SWAP5 SWAP4 SWAP3 SWAP2 SWAP1 PUSH2 0x9BF JUMP JUMPDEST PUSH1 0x0 PUSH1 0x40 MLOAD DUP1 DUP4 SUB DUP2 PUSH1 0x0 DUP8 GAS CALL ISZERO DUP1 ISZERO PUSH2 0x37F JUMPI RETURNDATASIZE PUSH1 0x0 DUP1 RETURNDATACOPY RETURNDATASIZE PUSH1 0x0 REVERT JUMPDEST POP POP POP POP PUSH1 0x40 MLOAD RETURNDATASIZE PUSH1 0x0 DUP3 RETURNDATACOPY RETURNDATASIZE PUSH1 0x1F NOT PUSH1 0x1F DUP3 ADD AND DUP3 ADD DUP1 PUSH1 0x40 MSTORE POP DUP2 ADD SWAP1 PUSH2 0x3A8 SWAP2 SWAP1 PUSH2 0xB7F JUMP JUMPDEST POP POP POP POP POP POP POP POP POP POP POP JUMP JUMPDEST PUSH1 0x0 PUSH20 0xFFFFFFFFFFFFFFFFFFFFFFFFFFFFFFFFFFFFFFFF DUP3 AND SWAP1 POP SWAP2 SWAP1 POP JUMP JUMPDEST PUSH1 0x0 PUSH2 0x3E0 DUP3 PUSH2 0x3B5 JUMP JUMPDEST SWAP1 POP SWAP2 SWAP1 POP JUMP JUMPDEST PUSH2 0x3F0 DUP2 PUSH2 0x3D5 JUMP JUMPDEST DUP3 MSTORE POP POP JUMP JUMPDEST PUSH1 0x0 PUSH1 0x20 DUP3 ADD SWAP1 POP PUSH2 0x40B PUSH1 0x0 DUP4 ADD DUP5 PUSH2 0x3E7 JUMP JUMPDEST SWAP3 SWAP2 POP POP JUMP JUMPDEST PUSH1 0x0 PUSH1 0x40 MLOAD SWAP1 POP SWAP1 JUMP JUMPDEST PUSH1 0x0 DUP1 REVERT JUMPDEST PUSH1 0x0 DUP1 REVERT JUMPDEST PUSH2 0x42E DUP2 PUSH2 0x3D5 JUMP JUMPDEST DUP2 EQ PUSH2 0x439 JUMPI PUSH1 0x0 DUP1 REVERT JUMPDEST POP JUMP JUMPDEST PUSH1 0x0 DUP2 CALLDATALOAD SWAP1 POP PUSH2 0x44B DUP2 PUSH2 0x425 JUMP JUMPDEST SWAP3 SWAP2 POP POP JUMP JUMPDEST PUSH1 0x0 DUP2 SWAP1 POP SWAP2 SWAP1 POP JUMP JUMPDEST PUSH2 0x464 DUP2 PUSH2 0x451 JUMP JUMPDEST DUP2 EQ PUSH2 0x46F JUMPI PUSH1 0x0 DUP1 REVERT JUMPDEST POP JUMP JUMPDEST PUSH1 0x0 DUP2 CALLDATALOAD SWAP1 POP PUSH2 0x481 DUP2 PUSH2 0x45B JUMP JUMPDEST SWAP3 SWAP2 POP POP JUMP JUMPDEST PUSH1 0x0 DUP1 REVERT JUMPDEST PUSH1 0x0 DUP1 REVERT JUMPDEST PUSH1 0x0 DUP1 REVERT JUMPDEST PUSH1 0x0 DUP1 DUP4 PUSH1 0x1F DUP5 ADD SLT PUSH2 0x4AC JUMPI PUSH2 0x4AB PUSH2 0x487 JUMP JUMPDEST JUMPDEST DUP3 CALLDATALOAD SWAP1 POP PUSH8 0xFFFFFFFFFFFFFFFF DUP2 GT ISZERO PUSH2 0x4C9 JUMPI PUSH2 0x4C8 PUSH2 0x48C JUMP JUMPDEST JUMPDEST PUSH1 0x20 DUP4 ADD SWAP2 POP DUP4 PUSH1 0x20 DUP3 MUL DUP4 ADD GT ISZERO PUSH2 0x4E5 JUMPI PUSH2 0x4E4 PUSH2 0x491 JUMP JUMPDEST JUMPDEST SWAP3 POP SWAP3 SWAP1 POP JUMP JUMPDEST PUSH1 0x0 PUSH1 0xFF DUP3 AND SWAP1 POP SWAP2 SWAP1 POP JUMP JUMPDEST PUSH2 0x502 DUP2 PUSH2 0x4EC JUMP JUMPDEST DUP2 EQ PUSH2 0x50D JUMPI PUSH1 0x0 DUP1 REVERT JUMPDEST POP JUMP JUMPDEST PUSH1 0x0 DUP2 CALLDATALOAD SWAP1 POP PUSH2 0x51F DUP2 PUSH2 0x4F9 JUMP JUMPDEST SWAP3 SWAP2 POP POP JUMP JUMPDEST PUSH1 0x0 DUP2 SWAP1 POP SWAP2 SWAP1 POP JUMP JUMPDEST PUSH2 0x538 DUP2 PUSH2 0x525 JUMP JUMPDEST DUP2 EQ PUSH2 0x543 JUMPI PUSH1 0x0 DUP1 REVERT JUMPDEST POP JUMP JUMPDEST PUSH1 0x0 DUP2 CALLDATALOAD SWAP1 POP PUSH2 0x555 DUP2 PUSH2 0x52F JUMP JUMPDEST SWAP3 SWAP2 POP POP JUMP JUMPDEST PUSH1 0x0 DUP1 PUSH1 0x0 DUP1 PUSH1 0x0 DUP1 PUSH1 0x0 DUP1 PUSH1 0x0 DUP1 PUSH2 0x120 DUP12 DUP14 SUB SLT ISZERO PUSH2 0x57F JUMPI PUSH2 0x57E PUSH2 0x41B JUMP JUMPDEST JUMPDEST PUSH1 0x0 PUSH2 0x58D DUP14 DUP3 DUP15 ADD PUSH2 0x43C JUMP JUMPDEST SWAP11 POP POP PUSH1 0x20 PUSH2 0x59E DUP14 DUP3 DUP15 ADD PUSH2 0x43C JUMP JUMPDEST SWAP10 POP POP PUSH1 0x40 PUSH2 0x5AF DUP14 DUP3 DUP15 ADD PUSH2 0x472 JUMP JUMPDEST SWAP9 POP POP PUSH1 0x60 PUSH2 0x5C0 DUP14 DUP3 DUP15 ADD PUSH2 0x472 JUMP JUMPDEST SWAP8 POP POP PUSH1 0x80 DUP12 ADD CALLDATALOAD PUSH8 0xFFFFFFFFFFFFFFFF DUP2 GT ISZERO PUSH2 0x5E1 JUMPI PUSH2 0x5E0 PUSH2 0x420 JUMP JUMPDEST JUMPDEST PUSH2 0x5ED DUP14 DUP3 DUP15 ADD PUSH2 0x496 JUMP JUMPDEST SWAP7 POP SWAP7 POP POP PUSH1 0xA0 PUSH2 0x600 DUP14 DUP3 DUP15 ADD PUSH2 0x472 JUMP JUMPDEST SWAP5 POP POP PUSH1 0xC0 PUSH2 0x611 DUP14 DUP3 DUP15 ADD PUSH2 0x510 JUMP JUMPDEST SWAP4 POP POP PUSH1 0xE0 PUSH2 0x622 DUP14 DUP3 DUP15 ADD PUSH2 0x546 JUMP JUMPDEST SWAP3 POP POP PUSH2 0x100 PUSH2 0x634 DUP14 DUP3 DUP15 ADD PUSH2 0x546 JUMP JUMPDEST SWAP2 POP POP SWAP3 SWAP6 SWAP9 SWAP12 SWAP2 SWAP5 SWAP8 SWAP11 POP SWAP3 SWAP6 SWAP9 POP JUMP JUMPDEST PUSH1 0x0 DUP3 DUP3 MSTORE PUSH1 0x20 DUP3 ADD SWAP1 POP SWAP3 SWAP2 POP POP JUMP JUMPDEST PUSH32 0x416D6F756E74496E206D7573742062652067726561746572207468616E203000 PUSH1 0x0 DUP3 ADD MSTORE POP JUMP JUMPDEST PUSH1 0x0 PUSH2 0x68D PUSH1 0x1F DUP4 PUSH2 0x646 JUMP JUMPDEST SWAP2 POP PUSH2 0x698 DUP3 PUSH2 0x657 JUMP JUMPDEST PUSH1 0x20 DUP3 ADD SWAP1 POP SWAP2 SWAP1 POP JUMP JUMPDEST PUSH1 0x0 PUSH1 0x20 DUP3 ADD SWAP1 POP DUP2 DUP2 SUB PUSH1 0x0 DUP4 ADD MSTORE PUSH2 0x6BC DUP2 PUSH2 0x680 JUMP JUMPDEST SWAP1 POP SWAP2 SWAP1 POP JUMP JUMPDEST PUSH32 0x496E76616C696420737761702070617468000000000000000000000000000000 PUSH1 0x0 DUP3 ADD MSTORE POP JUMP JUMPDEST PUSH1 0x0 PUSH2 0x6F9 PUSH1 0x11 DUP4 PUSH2 0x646 JUMP JUMPDEST SWAP2 POP PUSH2 0x704 DUP3 PUSH2 0x6C3 JUMP JUMPDEST PUSH1 0x20 DUP3 ADD SWAP1 POP SWAP2 SWAP1 POP JUMP JUMPDEST PUSH1 0x0 PUSH1 0x20 DUP3 ADD SWAP1 POP DUP2 DUP2 SUB PUSH1 0x0 DUP4 ADD MSTORE PUSH2 0x728 DUP2 PUSH2 0x6EC JUMP JUMPDEST SWAP1 POP SWAP2 SWAP1 POP JUMP JUMPDEST PUSH32 0x446561646C696E65206578706972656400000000000000000000000000000000 PUSH1 0x0 DUP3 ADD MSTORE POP JUMP JUMPDEST PUSH1 0x0 PUSH2 0x765 PUSH1 0x10 DUP4 PUSH2 0x646 JUMP JUMPDEST SWAP2 POP PUSH2 0x770 DUP3 PUSH2 0x72F JUMP JUMPDEST PUSH1 0x20 DUP3 ADD SWAP1 POP SWAP2 SWAP1 POP JUMP JUMPDEST PUSH1 0x0 PUSH1 0x20 DUP3 ADD SWAP1 POP DUP2 DUP2 SUB PUSH1 0x0 DUP4 ADD MSTORE PUSH2 0x794 DUP2 PUSH2 0x758 JUMP JUMPDEST SWAP1 POP SWAP2 SWAP1 POP JUMP JUMPDEST PUSH2 0x7A4 DUP2 PUSH2 0x451 JUMP JUMPDEST DUP3 MSTORE POP POP JUMP JUMPDEST PUSH2 0x7B3 DUP2 PUSH2 0x4EC JUMP JUMPDEST DUP3 MSTORE POP POP JUMP JUMPDEST PUSH2 0x7C2 DUP2 PUSH2 0x525 JUMP JUMPDEST DUP3 MSTORE POP POP JUMP JUMPDEST PUSH1 0x0 PUSH1 0xE0 DUP3 ADD SWAP1 POP PUSH2 0x7DD PUSH1 0x0 DUP4 ADD DUP11 PUSH2 0x3E7 JUMP JUMPDEST PUSH2 0x7EA PUSH1 0x20 DUP4 ADD DUP10 PUSH2 0x3E7 JUMP JUMPDEST PUSH2 0x7F7 PUSH1 0x40 DUP4 ADD DUP9 PUSH2 0x79B JUMP JUMPDEST PUSH2 0x804 PUSH1 0x60 DUP4 ADD DUP8 PUSH2 0x79B JUMP JUMPDEST PUSH2 0x811 PUSH1 0x80 DUP4 ADD DUP7 PUSH2 0x7AA JUMP JUMPDEST PUSH2 0x81E PUSH1 0xA0 DUP4 ADD DUP6 PUSH2 0x7B9 JUMP JUMPDEST PUSH2 0x82B PUSH1 0xC0 DUP4 ADD DUP5 PUSH2 0x7B9 JUMP JUMPDEST SWAP9 SWAP8 POP POP POP POP POP POP POP POP JUMP JUMPDEST PUSH1 0x0 PUSH1 0x60 DUP3 ADD SWAP1 POP PUSH2 0x84C PUSH1 0x0 DUP4 ADD DUP7 PUSH2 0x3E7 JUMP JUMPDEST PUSH2 0x859 PUSH1 0x20 DUP4 ADD DUP6 PUSH2 0x3E7 JUMP JUMPDEST PUSH2 0x866 PUSH1 0x40 DUP4 ADD DUP5 PUSH2 0x79B JUMP JUMPDEST SWAP5 SWAP4 POP POP POP POP JUMP JUMPDEST PUSH1 0x0 DUP2 ISZERO ISZERO SWAP1 POP SWAP2 SWAP1 POP JUMP JUMPDEST PUSH2 0x883 DUP2 PUSH2 0x86E JUMP JUMPDEST DUP2 EQ PUSH2 0x88E JUMPI PUSH1 0x0 DUP1 REVERT JUMPDEST POP JUMP JUMPDEST PUSH1 0x0 DUP2 MLOAD SWAP1 POP PUSH2 0x8A0 DUP2 PUSH2 0x87A JUMP JUMPDEST SWAP3 SWAP2 POP POP JUMP JUMPDEST PUSH1 0x0 PUSH1 0x20 DUP3 DUP5 SUB SLT ISZERO PUSH2 0x8BC JUMPI PUSH2 0x8BB PUSH2 0x41B JUMP JUMPDEST JUMPDEST PUSH1 0x0 PUSH2 0x8CA DUP5 DUP3 DUP6 ADD PUSH2 0x891 JUMP JUMPDEST SWAP2 POP POP SWAP3 SWAP2 POP POP JUMP JUMPDEST PUSH1 0x0 PUSH1 0x40 DUP3 ADD SWAP1 POP PUSH2 0x8E8 PUSH1 0x0 DUP4 ADD DUP6 PUSH2 0x3E7 JUMP JUMPDEST PUSH2 0x8F5 PUSH1 0x20 DUP4 ADD DUP5 PUSH2 0x79B JUMP JUMPDEST SWAP4 SWAP3 POP POP POP JUMP JUMPDEST PUSH1 0x0 DUP3 DUP3 MSTORE PUSH1 0x20 DUP3 ADD SWAP1 POP SWAP3 SWAP2 POP POP JUMP JUMPDEST PUSH1 0x0 DUP2 SWAP1 POP SWAP2 SWAP1 POP JUMP JUMPDEST PUSH2 0x920 DUP2 PUSH2 0x3D5 JUMP JUMPDEST DUP3 MSTORE POP POP JUMP JUMPDEST PUSH1 0x0 PUSH2 0x932 DUP4 DUP4 PUSH2 0x917 JUMP JUMPDEST PUSH1 0x20 DUP4 ADD SWAP1 POP SWAP3 SWAP2 POP POP JUMP JUMPDEST PUSH1 0x0 PUSH2 0x94D PUSH1 0x20 DUP5 ADD DUP5 PUSH2 0x43C JUMP JUMPDEST SWAP1 POP SWAP3 SWAP2 POP POP JUMP JUMPDEST PUSH1 0x0 PUSH1 0x20 DUP3 ADD SWAP1 POP SWAP2 SWAP1 POP JUMP JUMPDEST PUSH1 0x0 PUSH2 0x96E DUP4 DUP6 PUSH2 0x8FC JUMP JUMPDEST SWAP4 POP PUSH2 0x979 DUP3 PUSH2 0x90D JUMP JUMPDEST DUP1 PUSH1 0x0 JUMPDEST DUP6 DUP2 LT ISZERO PUSH2 0x9B2 JUMPI PUSH2 0x98F DUP3 DUP5 PUSH2 0x93E JUMP JUMPDEST PUSH2 0x999 DUP9 DUP3 PUSH2 0x926 JUMP JUMPDEST SWAP8 POP PUSH2 0x9A4 DUP4 PUSH2 0x955 JUMP JUMPDEST SWAP3 POP POP PUSH1 0x1 DUP2 ADD SWAP1 POP PUSH2 0x97D JUMP JUMPDEST POP DUP6 SWAP3 POP POP POP SWAP4 SWAP3 POP POP POP JUMP JUMPDEST PUSH1 0x0 PUSH1 0xA0 DUP3 ADD SWAP1 POP PUSH2 0x9D4 PUSH1 0x0 DUP4 ADD DUP10 PUSH2 0x79B JUMP JUMPDEST PUSH2 0x9E1 PUSH1 0x20 DUP4 ADD DUP9 PUSH2 0x79B JUMP JUMPDEST DUP2 DUP2 SUB PUSH1 0x40 DUP4 ADD MSTORE PUSH2 0x9F4 DUP2 DUP7 DUP9 PUSH2 0x962 JUMP JUMPDEST SWAP1 POP PUSH2 0xA03 PUSH1 0x60 DUP4 ADD DUP6 PUSH2 0x3E7 JUMP JUMPDEST PUSH2 0xA10 PUSH1 0x80 DUP4 ADD DUP5 PUSH2 0x79B JUMP JUMPDEST SWAP8 SWAP7 POP POP POP POP POP POP POP JUMP JUMPDEST PUSH1 0x0 PUSH1 0x1F NOT PUSH1 0x1F DUP4 ADD AND SWAP1 POP SWAP2 SWAP1 POP JUMP JUMPDEST PUSH32 0x4E487B7100000000000000000000000000000000000000000000000000000000 PUSH1 0x0 MSTORE PUSH1 0x41 PUSH1 0x4 MSTORE PUSH1 0x24 PUSH1 0x0 REVERT JUMPDEST PUSH2 0xA64 DUP3 PUSH2 0xA1B JUMP JUMPDEST DUP2 ADD DUP2 DUP2 LT PUSH8 0xFFFFFFFFFFFFFFFF DUP3 GT OR ISZERO PUSH2 0xA83 JUMPI PUSH2 0xA82 PUSH2 0xA2C JUMP JUMPDEST JUMPDEST DUP1 PUSH1 0x40 MSTORE POP POP POP JUMP JUMPDEST PUSH1 0x0 PUSH2 0xA96 PUSH2 0x411 JUMP JUMPDEST SWAP1 POP PUSH2 0xAA2 DUP3 DUP3 PUSH2 0xA5B JUMP JUMPDEST SWAP2 SWAP1 POP JUMP JUMPDEST PUSH1 0x0 PUSH8 0xFFFFFFFFFFFFFFFF DUP3 GT ISZERO PUSH2 0xAC2 JUMPI PUSH2 0xAC1 PUSH2 0xA2C JUMP JUMPDEST JUMPDEST PUSH1 0x20 DUP3 MUL SWAP1 POP PUSH1 0x20 DUP2 ADD SWAP1 POP SWAP2 SWAP1 POP JUMP JUMPDEST PUSH1 0x0 DUP2 MLOAD SWAP1 POP PUSH2 0xAE2 DUP2 PUSH2 0x45B JUMP JUMPDEST SWAP3 SWAP2 POP POP JUMP JUMPDEST PUSH1 0x0 PUSH2 0xAFB PUSH2 0xAF6 DUP5 PUSH2 0xAA7 JUMP JUMPDEST PUSH2 0xA8C JUMP JUMPDEST SWAP1 POP DUP1 DUP4 DUP3 MSTORE PUSH1 0x20 DUP3 ADD SWAP1 POP PUSH1 0x20 DUP5 MUL DUP4 ADD DUP6 DUP2 GT ISZERO PUSH2 0xB1E JUMPI PUSH2 0xB1D PUSH2 0x491 JUMP JUMPDEST JUMPDEST DUP4 JUMPDEST DUP2 DUP2 LT ISZERO PUSH2 0xB47 JUMPI DUP1 PUSH2 0xB33 DUP9 DUP3 PUSH2 0xAD3 JUMP JUMPDEST DUP5 MSTORE PUSH1 0x20 DUP5 ADD SWAP4 POP POP PUSH1 0x20 DUP2 ADD SWAP1 POP PUSH2 0xB20 JUMP JUMPDEST POP POP POP SWAP4 SWAP3 POP POP POP JUMP JUMPDEST PUSH1 0x0 DUP3 PUSH1 0x1F DUP4 ADD SLT PUSH2 0xB66 JUMPI PUSH2 0xB65 PUSH2 0x487 JUMP JUMPDEST JUMPDEST DUP2 MLOAD PUSH2 0xB76 DUP5 DUP3 PUSH1 0x20 DUP7 ADD PUSH2 0xAE8 JUMP JUMPDEST SWAP2 POP POP SWAP3 SWAP2 POP POP JUMP JUMPDEST PUSH1 0x0 PUSH1 0x20 DUP3 DUP5 SUB SLT ISZERO PUSH2 0xB95 JUMPI PUSH2 0xB94 PUSH2 0x41B JUMP JUMPDEST JUMPDEST PUSH1 0x0 DUP3 ADD MLOAD PUSH8 0xFFFFFFFFFFFFFFFF DUP2 GT ISZERO PUSH2 0xBB3 JUMPI PUSH2 0xBB2 PUSH2 0x420 JUMP JUMPDEST JUMPDEST PUSH2 0xBBF DUP5 DUP3 DUP6 ADD PUSH2 0xB51 JUMP JUMPDEST SWAP2 POP POP SWAP3 SWAP2 POP POP JUMP INVALID LOG2 PUSH5 0x6970667358 0x22 SLT KECCAK256 SWAP6 PUSH9 0xB05FD7B5041BCDDB68 0xAC MCOPY DUP4 CALLCODE 0x2A SWAP2 DUP14 CALLCODE 0xE9 PUSH1 0xD1 0xB4 DUP2 DUP12 0x4F RETURNDATASIZE 0xEA 0xD1 CALLER PUSH31 0xA464736F6C634300081C003300000000000000000000000000000000000000 "},"methodIdentifiers":{"permitAndSwap(address,address,uint256,uint256,address[],uint256,uint8,bytes32,bytes32)":"b5278da7","uniswapRouter()":"735de9f7"}}}}}