{
  "_format": "hh-sol-artifact-1",
  "contractName": "ManagementSystem",
  "sourceName": "contracts/ManagementSystem.sol",
  "abi": [
    {
      "inputs": [],
      "stateMutability": "nonpayable",
      "type": "constructor"
    },
    {
      "inputs": [
        {
          "internalType": "uint256",
          "name": "",
          "type": "uint256"
        }
      ],
      "name": "employeeList",
      "outputs": [
        {
          "internalType": "address",
          "name": "",
          "type": "address"
        }
      ],
      "stateMutability": "view",
      "type": "function"
    },
    {
      "inputs": [
        {
          "internalType": "address",
          "name": "",
          "type": "address"
        }
      ],
      "name": "employees",
      "outputs": [
        {
          "internalType": "string",
          "name": "name",
          "type": "string"
        },
        {
          "internalType": "enum IManagementSystem.UserType",
          "name": "userType",
          "type": "uint8"
        },
        {
          "internalType": "uint256",
          "name": "salary",
          "type": "uint256"
        },
        {
          "internalType": "bool",
          "name": "isEmployed",
          "type": "bool"
        }
      ],
      "stateMutability": "view",
      "type": "function"
    },
    {
      "inputs": [],
      "name": "getAllEmployees",
      "outputs": [
        {
          "internalType": "address[]",
          "name": "",
          "type": "address[]"
        }
      ],
      "stateMutability": "view",
      "type": "function"
    },
    {
      "inputs": [
        {
          "internalType": "address",
          "name": "_employee",
          "type": "address"
        }
      ],
      "name": "getEmployee",
      "outputs": [
        {
          "components": [
            {
              "internalType": "string",
              "name": "name",
              "type": "string"
            },
            {
              "internalType": "enum IManagementSystem.UserType",
              "name": "userType",
              "type": "uint8"
            },
            {
              "internalType": "uint256",
              "name": "salary",
              "type": "uint256"
            },
            {
              "internalType": "bool",
              "name": "isEmployed",
              "type": "bool"
            }
          ],
          "internalType": "struct IManagementSystem.Employee",
          "name": "",
          "type": "tuple"
        }
      ],
      "stateMutability": "view",
      "type": "function"
    },
    {
      "inputs": [],
      "name": "owner",
      "outputs": [
        {
          "internalType": "address",
          "name": "",
          "type": "address"
        }
      ],
      "stateMutability": "view",
      "type": "function"
    },
    {
      "inputs": [
        {
          "internalType": "address",
          "name": "_employee",
          "type": "address"
        },
        {
          "internalType": "uint256",
          "name": "_amount",
          "type": "uint256"
        }
      ],
      "name": "paySalary",
      "outputs": [],
      "stateMutability": "nonpayable",
      "type": "function"
    },
    {
      "inputs": [
        {
          "internalType": "address",
          "name": "_employee",
          "type": "address"
        },
        {
          "internalType": "string",
          "name": "_name",
          "type": "string"
        },
        {
          "internalType": "enum IManagementSystem.UserType",
          "name": "_userType",
          "type": "uint8"
        },
        {
          "internalType": "uint256",
          "name": "_salary",
          "type": "uint256"
        }
      ],
      "name": "registerEmployee",
      "outputs": [],
      "stateMutability": "nonpayable",
      "type": "function"
    },
    {
      "stateMutability": "payable",
      "type": "receive"
    }
  ],
  "bytecode": "0x6080604052348015600f57600080fd5b5060286762167f479d0dd26060c01b608460201b60201c565b60406762d4d1b47f5aacab60c01b608460201b60201c565b336000806101000a81548173ffffffffffffffffffffffffffffffffffffffff021916908373ffffffffffffffffffffffffffffffffffffffff1602179055506087565b50565b6116d5806100966000396000f3fe6080604052600436106100745760003560e01c8063c3b2d07a1161004e578063c3b2d07a14610111578063d06789471461014e578063e3366fed1461018e578063eb17aa04146101b95761007b565b806332648e0914610080578063524911de146100bd5780638da5cb5b146100e65761007b565b3661007b57005b600080fd5b34801561008c57600080fd5b506100a760048036038101906100a29190610d91565b6101e2565b6040516100b49190610f5c565b60405180910390f35b3480156100c957600080fd5b506100e460048036038101906100df9190610faa565b610369565b005b3480156100f257600080fd5b506100fb6106f1565b6040516101089190610ff9565b60405180910390f35b34801561011d57600080fd5b5061013860048036038101906101339190611014565b610715565b6040516101459190610ff9565b60405180910390f35b34801561015a57600080fd5b5061017560048036038101906101709190610d91565b610754565b60405161018594939291906110b8565b60405180910390f35b34801561019a57600080fd5b506101a3610826565b6040516101b091906111c2565b60405180910390f35b3480156101c557600080fd5b506101e060048036038101906101db919061133e565b6108f0565b005b6101ea610ce3565b6101fe67fa18b2b431678b4260c01b610ce0565b61021267408b9415a269db2d60c01b610ce0565b61022667995e4453abe45a8c60c01b610ce0565b600160008373ffffffffffffffffffffffffffffffffffffffff1673ffffffffffffffffffffffffffffffffffffffff168152602001908152602001600020604051806080016040529081600082018054610280906113f0565b80601f01602080910402602001604051908101604052809291908181526020018280546102ac906113f0565b80156102f95780601f106102ce576101008083540402835291602001916102f9565b820191906000526020600020905b8154815290600101906020018083116102dc57829003601f168201915b505050505081526020016001820160009054906101000a900460ff16600281111561032757610326610e4e565b5b600281111561033957610338610e4e565b5b8152602001600282015481526020016003820160009054906101000a900460ff1615151515815250509050919050565b61037d67df2b17e48d92de8f60c01b610ce0565b610391673694909ba6f9748c60c01b610ce0565b6103a567b6da46f4a57e666c60c01b610ce0565b6103b967fb03348578fd46c560c01b610ce0565b60008054906101000a900473ffffffffffffffffffffffffffffffffffffffff1673ffffffffffffffffffffffffffffffffffffffff163373ffffffffffffffffffffffffffffffffffffffff161461044d5761042067da8e45bfa63c6e3360c01b610ce0565b610434677bfe316357fed95660c01b610ce0565b6104486727b0a5ea8b55924f60c01b610ce0565b600080fd5b610461674be7dc590884add460c01b610ce0565b610475677c39a48318e0b90c60c01b610ce0565b61048967dcb093b021740aea60c01b610ce0565b61049d670b6065941f1d83c360c01b610ce0565b6104b1677381a2985dc3833060c01b610ce0565b6104c56780bc2db387ec1dcb60c01b610ce0565b600160008373ffffffffffffffffffffffffffffffffffffffff1673ffffffffffffffffffffffffffffffffffffffff16815260200190815260200160002060030160009054906101000a900460ff166105465761052d67222768b7e0cbb7e160c01b610ce0565b610541670972eed9c5e4d62560c01b610ce0565b600080fd5b61055a67c4ed5c58b9ab27b860c01b610ce0565b61056e677892ea223798ceb560c01b610ce0565b6105826706bc30132263238960c01b610ce0565b600160008373ffffffffffffffffffffffffffffffffffffffff1673ffffffffffffffffffffffffffffffffffffffff168152602001908152602001600020600201548111156105f9576105e0673898fb85d2ebe45160c01b610ce0565b6105f467ceb4f3154f627c8b60c01b610ce0565b600080fd5b61060d67860bde38d332c60360c01b610ce0565b61062167e6be3d46f1d61adc60c01b610ce0565b61063567a09c598c57dab50d60c01b610ce0565b8047101561066a5761065167e4ee8be1f337bee560c01b610ce0565b6106656790175a326d352ed160c01b610ce0565b600080fd5b61067e674688e5334bd579a160c01b610ce0565b61069267b184a587a49179b760c01b610ce0565b6106a667855f2cd91b7fd6be60c01b610ce0565b8173ffffffffffffffffffffffffffffffffffffffff166108fc829081150290604051600060405180830381858888f193505050501580156106ec573d6000803e3d6000fd5b505050565b60008054906101000a900473ffffffffffffffffffffffffffffffffffffffff1681565b6002818154811061072557600080fd5b906000526020600020016000915054906101000a900473ffffffffffffffffffffffffffffffffffffffff1681565b6001602052806000526040600020600091509050806000018054610777906113f0565b80601f01602080910402602001604051908101604052809291908181526020018280546107a3906113f0565b80156107f05780601f106107c5576101008083540402835291602001916107f0565b820191906000526020600020905b8154815290600101906020018083116107d357829003601f168201915b5050505050908060010160009054906101000a900460ff16908060020154908060030160009054906101000a900460ff16905084565b606061083c67a621ecc9cb9f936060c01b610ce0565b61085067e98dcca2000b786d60c01b610ce0565b6108646727139e9f4449d97c60c01b610ce0565b60028054806020026020016040519081016040528092919081815260200182805480156108e657602002820191906000526020600020905b8160009054906101000a900473ffffffffffffffffffffffffffffffffffffffff1673ffffffffffffffffffffffffffffffffffffffff168152602001906001019080831161089c575b5050505050905090565b61090467e76cd1c0f08b84f760c01b610ce0565b610918673694909ba6f9748c60c01b610ce0565b61092c67b6da46f4a57e666c60c01b610ce0565b61094067fb03348578fd46c560c01b610ce0565b60008054906101000a900473ffffffffffffffffffffffffffffffffffffffff1673ffffffffffffffffffffffffffffffffffffffff163373ffffffffffffffffffffffffffffffffffffffff16146109d4576109a767da8e45bfa63c6e3360c01b610ce0565b6109bb677bfe316357fed95660c01b610ce0565b6109cf6727b0a5ea8b55924f60c01b610ce0565b600080fd5b6109e8674be7dc590884add460c01b610ce0565b6109fc677c39a48318e0b90c60c01b610ce0565b610a106714267d27b8a2be6160c01b610ce0565b610a24677625f6206cb849d860c01b610ce0565b610a3867e2bc12aa255b638a60c01b610ce0565b610a4c67635210cfb9562e0960c01b610ce0565b60008103610a8157610a686745c233170032974460c01b610ce0565b610a7c67af05896190f5f5f360c01b610ce0565b600080fd5b610a9567030e2d21b6cf516960c01b610ce0565b610aa9677dcfae15b8287edf60c01b610ce0565b610abd67d02df53c2380e4c360c01b610ce0565b600160008573ffffffffffffffffffffffffffffffffffffffff1673ffffffffffffffffffffffffffffffffffffffff16815260200190815260200160002060030160009054906101000a900460ff1615610b3f57610b2667e339a85b1728ea5860c01b610ce0565b610b3a670d5626cef08ff89660c01b610ce0565b600080fd5b610b536731fc583826eebc5460c01b610ce0565b610b6767698cb036e25884a160c01b610ce0565b6040518060800160405280848152602001836002811115610b8b57610b8a610e4e565b5b815260200182815260200160011515815250600160008673ffffffffffffffffffffffffffffffffffffffff1673ffffffffffffffffffffffffffffffffffffffff1681526020019081526020016000206000820151816000019081610bf191906115cd565b5060208201518160010160006101000a81548160ff02191690836002811115610c1d57610c1c610e4e565b5b02179055506040820151816002015560608201518160030160006101000a81548160ff021916908315150217905550905050610c63671073c83771739b9660c01b610ce0565b610c776770438fd618d8113e60c01b610ce0565b6002849080600181540180825580915050600190039060005260206000200160009091909190916101000a81548173ffffffffffffffffffffffffffffffffffffffff021916908373ffffffffffffffffffffffffffffffffffffffff16021790555050505050565b50565b60405180608001604052806060815260200160006002811115610d0957610d08610e4e565b5b8152602001600081526020016000151581525090565b6000604051905090565b600080fd5b600080fd5b600073ffffffffffffffffffffffffffffffffffffffff82169050919050565b6000610d5e82610d33565b9050919050565b610d6e81610d53565b8114610d7957600080fd5b50565b600081359050610d8b81610d65565b92915050565b600060208284031215610da757610da6610d29565b5b6000610db584828501610d7c565b91505092915050565b600081519050919050565b600082825260208201905092915050565b60005b83811015610df8578082015181840152602081019050610ddd565b60008484015250505050565b6000601f19601f8301169050919050565b6000610e2082610dbe565b610e2a8185610dc9565b9350610e3a818560208601610dda565b610e4381610e04565b840191505092915050565b7f4e487b7100000000000000000000000000000000000000000000000000000000600052602160045260246000fd5b60038110610e8e57610e8d610e4e565b5b50565b6000819050610e9f82610e7d565b919050565b6000610eaf82610e91565b9050919050565b610ebf81610ea4565b82525050565b6000819050919050565b610ed881610ec5565b82525050565b60008115159050919050565b610ef381610ede565b82525050565b60006080830160008301518482036000860152610f168282610e15565b9150506020830151610f2b6020860182610eb6565b506040830151610f3e6040860182610ecf565b506060830151610f516060860182610eea565b508091505092915050565b60006020820190508181036000830152610f768184610ef9565b905092915050565b610f8781610ec5565b8114610f9257600080fd5b50565b600081359050610fa481610f7e565b92915050565b60008060408385031215610fc157610fc0610d29565b5b6000610fcf85828601610d7c565b9250506020610fe085828601610f95565b9150509250929050565b610ff381610d53565b82525050565b600060208201905061100e6000830184610fea565b92915050565b60006020828403121561102a57611029610d29565b5b600061103884828501610f95565b91505092915050565b600082825260208201905092915050565b600061105d82610dbe565b6110678185611041565b9350611077818560208601610dda565b61108081610e04565b840191505092915050565b61109481610ea4565b82525050565b6110a381610ec5565b82525050565b6110b281610ede565b82525050565b600060808201905081810360008301526110d28187611052565b90506110e1602083018661108b565b6110ee604083018561109a565b6110fb60608301846110a9565b95945050505050565b600081519050919050565b600082825260208201905092915050565b6000819050602082019050919050565b61113981610d53565b82525050565b600061114b8383611130565b60208301905092915050565b6000602082019050919050565b600061116f82611104565b611179818561110f565b935061118483611120565b8060005b838110156111b557815161119c888261113f565b97506111a783611157565b925050600181019050611188565b5085935050505092915050565b600060208201905081810360008301526111dc8184611164565b905092915050565b600080fd5b600080fd5b7f4e487b7100000000000000000000000000000000000000000000000000000000600052604160045260246000fd5b61122682610e04565b810181811067ffffffffffffffff82111715611245576112446111ee565b5b80604052505050565b6000611258610d1f565b9050611264828261121d565b919050565b600067ffffffffffffffff821115611284576112836111ee565b5b61128d82610e04565b9050602081019050919050565b82818337600083830152505050565b60006112bc6112b784611269565b61124e565b9050828152602081018484840111156112d8576112d76111e9565b5b6112e384828561129a565b509392505050565b600082601f830112611300576112ff6111e4565b5b81356113108482602086016112a9565b91505092915050565b6003811061132657600080fd5b50565b60008135905061133881611319565b92915050565b6000806000806080858703121561135857611357610d29565b5b600061136687828801610d7c565b945050602085013567ffffffffffffffff81111561138757611386610d2e565b5b611393878288016112eb565b93505060406113a487828801611329565b92505060606113b587828801610f95565b91505092959194509250565b7f4e487b7100000000000000000000000000000000000000000000000000000000600052602260045260246000fd5b6000600282049050600182168061140857607f821691505b60208210810361141b5761141a6113c1565b5b50919050565b60008190508160005260206000209050919050565b60006020601f8301049050919050565b600082821b905092915050565b6000600883026114837fffffffffffffffffffffffffffffffffffffffffffffffffffffffffffffffff82611446565b61148d8683611446565b95508019841693508086168417925050509392505050565b6000819050919050565b60006114ca6114c56114c084610ec5565b6114a5565b610ec5565b9050919050565b6000819050919050565b6114e4836114af565b6114f86114f0826114d1565b848454611453565b825550505050565b600090565b61150d611500565b6115188184846114db565b505050565b5b8181101561153c57611531600082611505565b60018101905061151e565b5050565b601f8211156115815761155281611421565b61155b84611436565b8101602085101561156a578190505b61157e61157685611436565b83018261151d565b50505b505050565b600082821c905092915050565b60006115a460001984600802611586565b1980831691505092915050565b60006115bd8383611593565b9150826002028217905092915050565b6115d682610dbe565b67ffffffffffffffff8111156115ef576115ee6111ee565b5b6115f982546113f0565b611604828285611540565b600060209050601f8311600181146116375760008415611625578287015190505b61162f85826115b1565b865550611697565b601f19841661164586611421565b60005b8281101561166d57848901518255600182019150602085019450602081019050611648565b8683101561168a5784890151611686601f891682611593565b8355505b6001600288020188555050505b50505050505056fea26469706673582212203097679a5223fd349efb6d4c3ed7497c762931753a5e2701bbe21b4621a59bfc64736f6c634300081c0033",
  "linkReferences": {},
  "deployedLinkReferences": {}
}