{
  "_format": "hh-sol-artifact-1",
  "contractName": "FactoryStudentTracking",
  "sourceName": "contracts/FactoryStudentTracking.sol",
  "abi": [
    {
      "inputs": [],
      "name": "createContracts",
      "outputs": [],
      "stateMutability": "nonpayable",
      "type": "function"
    },
    {
      "inputs": [],
      "name": "getContracts",
      "outputs": [
        {
          "internalType": "address[]",
          "name": "",
          "type": "address[]"
        }
      ],
      "stateMutability": "view",
      "type": "function"
    }
  ],
  "bytecode": "0x6080604052348015600f57600080fd5b506117a78061001f6000396000f3fe608060405234801561001057600080fd5b50600436106100365760003560e01c80636dde52ee1461003b578063c3a2a93a14610045575b600080fd5b610043610063565b005b61004d6100f6565b60405161005a9190610281565b60405180910390f35b600060405161007190610184565b604051809103906000f08015801561008d573d6000803e3d6000fd5b5090506000819080600181540180825580915050600190039060005260206000200160009091909190916101000a81548173ffffffffffffffffffffffffffffffffffffffff021916908373ffffffffffffffffffffffffffffffffffffffff16021790555050565b6060600080548060200260200160405190810160405280929190818152602001828054801561017a57602002820191906000526020600020905b8160009054906101000a900473ffffffffffffffffffffffffffffffffffffffff1673ffffffffffffffffffffffffffffffffffffffff1681526020019060010190808311610130575b5050505050905090565b6114ce806102a483390190565b600081519050919050565b600082825260208201905092915050565b6000819050602082019050919050565b600073ffffffffffffffffffffffffffffffffffffffff82169050919050565b60006101e8826101bd565b9050919050565b6101f8816101dd565b82525050565b600061020a83836101ef565b60208301905092915050565b6000602082019050919050565b600061022e82610191565b610238818561019c565b9350610243836101ad565b8060005b8381101561027457815161025b88826101fe565b975061026683610216565b925050600181019050610247565b5085935050505092915050565b6000602082019050818103600083015261029b8184610223565b90509291505056fe608060405260018055348015601357600080fd5b506114ab806100236000396000f3fe608060405234801561001057600080fd5b50600436106100885760003560e01c8063b645307d1161005b578063b645307d146100fd578063c8fb079314610119578063e763c64d14610149578063e9e309271461016557610088565b806313a46f311461008d5780633a1b3d31146100a9578063440dba6c146100c55780637bee4264146100e1575b600080fd5b6100a760048036038101906100a291906109be565b610183565b005b6100c360048036038101906100be9190610a23565b6101fb565b005b6100df60048036038101906100da9190610ba9565b610296565b005b6100fb60048036038101906100f69190610c2a565b610317565b005b61011760048036038101906101129190610c99565b610441565b005b610133600480360381019061012e9190610c99565b6104fb565b6040516101409190610e89565b60405180910390f35b610163600480360381019061015e9190610eab565b61069d565b005b61016d610749565b60405161017a9190611052565b60405180910390f35b816000805490508111156101cc576040517f08c379a00000000000000000000000000000000000000000000000000000000081526004016101c3906110d1565b60405180910390fd5b81600084815481106101e1576101e06110f1565b5b906000526020600020906004020160020181905550505050565b81600080549050811115610244576040517f08c379a000000000000000000000000000000000000000000000000000000000815260040161023b906110d1565b60405180910390fd5b8160008481548110610259576102586110f1565b5b906000526020600020906004020160030160006101000a81548160ff0219169083600281111561028c5761028b610d54565b5b0217905550505050565b816000805490508111156102df576040517f08c379a00000000000000000000000000000000000000000000000000000000081526004016102d6906110d1565b60405180910390fd5b81600084815481106102f4576102f36110f1565b5b90600052602060002090600402016001019081610311919061132c565b50505050565b60006001600081548092919061032c9061142d565b91905055905060006040518060a001604052808381526020018681526020018581526020016000600281111561036557610364610d54565b5b815260200184600181111561037d5761037c610d54565b5b815250905060008190806001815401808255809150506001900390600052602060002090600402016000909190919091506000820151816000015560208201518160010190816103cd919061132c565b506040820151816002015560608201518160030160006101000a81548160ff0219169083600281111561040357610402610d54565b5b021790555060808201518160030160016101000a81548160ff0219169083600181111561043357610432610d54565b5b021790555050505050505050565b8060008054905081111561048a576040517f08c379a0000000000000000000000000000000000000000000000000000000008152600401610481906110d1565b60405180910390fd5b6000828154811061049e5761049d6110f1565b5b90600052602060002090600402016000808201600090556001820160006104c591906108c4565b60028201600090556003820160006101000a81549060ff02191690556003820160016101000a81549060ff021916905550505050565b610503610904565b8160008054905081111561054c576040517f08c379a0000000000000000000000000000000000000000000000000000000008152600401610543906110d1565b60405180910390fd5b600083815481106105605761055f6110f1565b5b90600052602060002090600402016040518060a0016040529081600082015481526020016001820180546105939061114f565b80601f01602080910402602001604051908101604052809291908181526020018280546105bf9061114f565b801561060c5780601f106105e15761010080835404028352916020019161060c565b820191906000526020600020905b8154815290600101906020018083116105ef57829003601f168201915b50505050508152602001600282015481526020016003820160009054906101000a900460ff16600281111561064457610643610d54565b5b600281111561065657610655610d54565b5b81526020016003820160019054906101000a900460ff16600181111561067f5761067e610d54565b5b600181111561069157610690610d54565b5b81525050915050919050565b826000805490508111156106e6576040517f08c379a00000000000000000000000000000000000000000000000000000000081526004016106dd906110d1565b60405180910390fd5b81600085815481106106fb576106fa6110f1565b5b9060005260206000209060040201600201819055508260008581548110610725576107246110f1565b5b90600052602060002090600402016001019081610742919061132c565b5050505050565b60606000805480602002602001604051908101604052809291908181526020016000905b828210156108bb57838290600052602060002090600402016040518060a0016040529081600082015481526020016001820180546107aa9061114f565b80601f01602080910402602001604051908101604052809291908181526020018280546107d69061114f565b80156108235780601f106107f857610100808354040283529160200191610823565b820191906000526020600020905b81548152906001019060200180831161080657829003601f168201915b50505050508152602001600282015481526020016003820160009054906101000a900460ff16600281111561085b5761085a610d54565b5b600281111561086d5761086c610d54565b5b81526020016003820160019054906101000a900460ff16600181111561089657610895610d54565b5b60018111156108a8576108a7610d54565b5b815250508152602001906001019061076d565b50505050905090565b5080546108d09061114f565b6000825580601f106108e25750610901565b601f0160209004906000526020600020908101906109009190610957565b5b50565b6040518060a001604052806000815260200160608152602001600081526020016000600281111561093857610937610d54565b5b81526020016000600181111561095157610950610d54565b5b81525090565b5b80821115610970576000816000905550600101610958565b5090565b6000604051905090565b600080fd5b600080fd5b6000819050919050565b61099b81610988565b81146109a657600080fd5b50565b6000813590506109b881610992565b92915050565b600080604083850312156109d5576109d461097e565b5b60006109e3858286016109a9565b92505060206109f4858286016109a9565b9150509250929050565b60038110610a0b57600080fd5b50565b600081359050610a1d816109fe565b92915050565b60008060408385031215610a3a57610a3961097e565b5b6000610a48858286016109a9565b9250506020610a5985828601610a0e565b9150509250929050565b600080fd5b600080fd5b6000601f19601f8301169050919050565b7f4e487b7100000000000000000000000000000000000000000000000000000000600052604160045260246000fd5b610ab682610a6d565b810181811067ffffffffffffffff82111715610ad557610ad4610a7e565b5b80604052505050565b6000610ae8610974565b9050610af48282610aad565b919050565b600067ffffffffffffffff821115610b1457610b13610a7e565b5b610b1d82610a6d565b9050602081019050919050565b82818337600083830152505050565b6000610b4c610b4784610af9565b610ade565b905082815260208101848484011115610b6857610b67610a68565b5b610b73848285610b2a565b509392505050565b600082601f830112610b9057610b8f610a63565b5b8135610ba0848260208601610b39565b91505092915050565b60008060408385031215610bc057610bbf61097e565b5b6000610bce858286016109a9565b925050602083013567ffffffffffffffff811115610bef57610bee610983565b5b610bfb85828601610b7b565b9150509250929050565b60028110610c1257600080fd5b50565b600081359050610c2481610c05565b92915050565b600080600060608486031215610c4357610c4261097e565b5b600084013567ffffffffffffffff811115610c6157610c60610983565b5b610c6d86828701610b7b565b9350506020610c7e868287016109a9565b9250506040610c8f86828701610c15565b9150509250925092565b600060208284031215610caf57610cae61097e565b5b6000610cbd848285016109a9565b91505092915050565b610ccf81610988565b82525050565b600081519050919050565b600082825260208201905092915050565b60005b83811015610d0f578082015181840152602081019050610cf4565b60008484015250505050565b6000610d2682610cd5565b610d308185610ce0565b9350610d40818560208601610cf1565b610d4981610a6d565b840191505092915050565b7f4e487b7100000000000000000000000000000000000000000000000000000000600052602160045260246000fd5b60038110610d9457610d93610d54565b5b50565b6000819050610da582610d83565b919050565b6000610db582610d97565b9050919050565b610dc581610daa565b82525050565b60028110610ddc57610ddb610d54565b5b50565b6000819050610ded82610dcb565b919050565b6000610dfd82610ddf565b9050919050565b610e0d81610df2565b82525050565b600060a083016000830151610e2b6000860182610cc6565b5060208301518482036020860152610e438282610d1b565b9150506040830151610e586040860182610cc6565b506060830151610e6b6060860182610dbc565b506080830151610e7e6080860182610e04565b508091505092915050565b60006020820190508181036000830152610ea38184610e13565b905092915050565b600080600060608486031215610ec457610ec361097e565b5b6000610ed2868287016109a9565b935050602084013567ffffffffffffffff811115610ef357610ef2610983565b5b610eff86828701610b7b565b9250506040610f10868287016109a9565b9150509250925092565b600081519050919050565b600082825260208201905092915050565b6000819050602082019050919050565b600060a083016000830151610f5e6000860182610cc6565b5060208301518482036020860152610f768282610d1b565b9150506040830151610f8b6040860182610cc6565b506060830151610f9e6060860182610dbc565b506080830151610fb16080860182610e04565b508091505092915050565b6000610fc88383610f46565b905092915050565b6000602082019050919050565b6000610fe882610f1a565b610ff28185610f25565b93508360208202850161100485610f36565b8060005b8581101561104057848403895281516110218582610fbc565b945061102c83610fd0565b925060208a01995050600181019050611008565b50829750879550505050505092915050565b6000602082019050818103600083015261106c8184610fdd565b905092915050565b600082825260208201905092915050565b7f496e76616c69645f696e64657800000000000000000000000000000000000000600082015250565b60006110bb600d83611074565b91506110c682611085565b602082019050919050565b600060208201905081810360008301526110ea816110ae565b9050919050565b7f4e487b7100000000000000000000000000000000000000000000000000000000600052603260045260246000fd5b7f4e487b7100000000000000000000000000000000000000000000000000000000600052602260045260246000fd5b6000600282049050600182168061116757607f821691505b60208210810361117a57611179611120565b5b50919050565b60008190508160005260206000209050919050565b60006020601f8301049050919050565b600082821b905092915050565b6000600883026111e27fffffffffffffffffffffffffffffffffffffffffffffffffffffffffffffffff826111a5565b6111ec86836111a5565b95508019841693508086168417925050509392505050565b6000819050919050565b600061122961122461121f84610988565b611204565b610988565b9050919050565b6000819050919050565b6112438361120e565b61125761124f82611230565b8484546111b2565b825550505050565b600090565b61126c61125f565b61127781848461123a565b505050565b5b8181101561129b57611290600082611264565b60018101905061127d565b5050565b601f8211156112e0576112b181611180565b6112ba84611195565b810160208510156112c9578190505b6112dd6112d585611195565b83018261127c565b50505b505050565b600082821c905092915050565b6000611303600019846008026112e5565b1980831691505092915050565b600061131c83836112f2565b9150826002028217905092915050565b61133582610cd5565b67ffffffffffffffff81111561134e5761134d610a7e565b5b611358825461114f565b61136382828561129f565b600060209050601f8311600181146113965760008415611384578287015190505b61138e8582611310565b8655506113f6565b601f1984166113a486611180565b60005b828110156113cc578489015182556001820191506020850194506020810190506113a7565b868310156113e957848901516113e5601f8916826112f2565b8355505b6001600288020188555050505b505050505050565b7f4e487b7100000000000000000000000000000000000000000000000000000000600052601160045260246000fd5b600061143882610988565b91507fffffffffffffffffffffffffffffffffffffffffffffffffffffffffffffffff820361146a576114696113fe565b5b60018201905091905056fea2646970667358221220f6c23950d743909308a6ceaa43fae445c6d4720e8612b96b3d34cbf3e39df46a64736f6c634300081c0033a26469706673582212204f331082cdbe2522fb08de69e02f2201f1354d91f0a3f135aab3250da5e71d2f64736f6c634300081c0033",
  "linkReferences": {},
  "deployedLinkReferences": {}
}