{
  "_format": "hh-sol-artifact-1",
  "contractName": "DynamicTimeNFT",
  "sourceName": "contracts/SVG-NFT.sol",
  "abi": [
    {
      "inputs": [],
      "stateMutability": "nonpayable",
      "type": "constructor"
    },
    {
      "anonymous": false,
      "inputs": [
        {
          "indexed": true,
          "internalType": "address",
          "name": "owner",
          "type": "address"
        },
        {
          "indexed": true,
          "internalType": "address",
          "name": "approved",
          "type": "address"
        },
        {
          "indexed": true,
          "internalType": "uint256",
          "name": "tokenId",
          "type": "uint256"
        }
      ],
      "name": "Approval",
      "type": "event"
    },
    {
      "anonymous": false,
      "inputs": [
        {
          "indexed": true,
          "internalType": "address",
          "name": "owner",
          "type": "address"
        },
        {
          "indexed": true,
          "internalType": "address",
          "name": "operator",
          "type": "address"
        },
        {
          "indexed": false,
          "internalType": "bool",
          "name": "approved",
          "type": "bool"
        }
      ],
      "name": "ApprovalForAll",
      "type": "event"
    },
    {
      "anonymous": false,
      "inputs": [
        {
          "indexed": true,
          "internalType": "address",
          "name": "from",
          "type": "address"
        },
        {
          "indexed": true,
          "internalType": "address",
          "name": "to",
          "type": "address"
        },
        {
          "indexed": true,
          "internalType": "uint256",
          "name": "tokenId",
          "type": "uint256"
        }
      ],
      "name": "Transfer",
      "type": "event"
    },
    {
      "inputs": [
        {
          "internalType": "address",
          "name": "to",
          "type": "address"
        },
        {
          "internalType": "uint256",
          "name": "tokenId",
          "type": "uint256"
        }
      ],
      "name": "approve",
      "outputs": [],
      "stateMutability": "nonpayable",
      "type": "function"
    },
    {
      "inputs": [
        {
          "internalType": "address",
          "name": "owner",
          "type": "address"
        }
      ],
      "name": "balanceOf",
      "outputs": [
        {
          "internalType": "uint256",
          "name": "",
          "type": "uint256"
        }
      ],
      "stateMutability": "view",
      "type": "function"
    },
    {
      "inputs": [
        {
          "internalType": "uint256",
          "name": "tokenId",
          "type": "uint256"
        }
      ],
      "name": "getApproved",
      "outputs": [
        {
          "internalType": "address",
          "name": "",
          "type": "address"
        }
      ],
      "stateMutability": "view",
      "type": "function"
    },
    {
      "inputs": [
        {
          "internalType": "address",
          "name": "owner",
          "type": "address"
        },
        {
          "internalType": "address",
          "name": "operator",
          "type": "address"
        }
      ],
      "name": "isApprovedForAll",
      "outputs": [
        {
          "internalType": "bool",
          "name": "",
          "type": "bool"
        }
      ],
      "stateMutability": "view",
      "type": "function"
    },
    {
      "inputs": [],
      "name": "mint",
      "outputs": [],
      "stateMutability": "nonpayable",
      "type": "function"
    },
    {
      "inputs": [],
      "name": "name",
      "outputs": [
        {
          "internalType": "string",
          "name": "",
          "type": "string"
        }
      ],
      "stateMutability": "view",
      "type": "function"
    },
    {
      "inputs": [
        {
          "internalType": "uint256",
          "name": "tokenId",
          "type": "uint256"
        }
      ],
      "name": "ownerOf",
      "outputs": [
        {
          "internalType": "address",
          "name": "",
          "type": "address"
        }
      ],
      "stateMutability": "view",
      "type": "function"
    },
    {
      "inputs": [
        {
          "internalType": "address",
          "name": "from",
          "type": "address"
        },
        {
          "internalType": "address",
          "name": "to",
          "type": "address"
        },
        {
          "internalType": "uint256",
          "name": "tokenId",
          "type": "uint256"
        }
      ],
      "name": "safeTransferFrom",
      "outputs": [],
      "stateMutability": "nonpayable",
      "type": "function"
    },
    {
      "inputs": [
        {
          "internalType": "address",
          "name": "from",
          "type": "address"
        },
        {
          "internalType": "address",
          "name": "to",
          "type": "address"
        },
        {
          "internalType": "uint256",
          "name": "tokenId",
          "type": "uint256"
        },
        {
          "internalType": "bytes",
          "name": "data",
          "type": "bytes"
        }
      ],
      "name": "safeTransferFrom",
      "outputs": [],
      "stateMutability": "nonpayable",
      "type": "function"
    },
    {
      "inputs": [
        {
          "internalType": "address",
          "name": "operator",
          "type": "address"
        },
        {
          "internalType": "bool",
          "name": "approved",
          "type": "bool"
        }
      ],
      "name": "setApprovalForAll",
      "outputs": [],
      "stateMutability": "nonpayable",
      "type": "function"
    },
    {
      "inputs": [
        {
          "internalType": "bytes4",
          "name": "interfaceId",
          "type": "bytes4"
        }
      ],
      "name": "supportsInterface",
      "outputs": [
        {
          "internalType": "bool",
          "name": "",
          "type": "bool"
        }
      ],
      "stateMutability": "view",
      "type": "function"
    },
    {
      "inputs": [],
      "name": "symbol",
      "outputs": [
        {
          "internalType": "string",
          "name": "",
          "type": "string"
        }
      ],
      "stateMutability": "view",
      "type": "function"
    },
    {
      "inputs": [],
      "name": "tokenCounter",
      "outputs": [
        {
          "internalType": "uint256",
          "name": "",
          "type": "uint256"
        }
      ],
      "stateMutability": "view",
      "type": "function"
    },
    {
      "inputs": [
        {
          "internalType": "uint256",
          "name": "tokenId",
          "type": "uint256"
        }
      ],
      "name": "tokenURI",
      "outputs": [
        {
          "internalType": "string",
          "name": "",
          "type": "string"
        }
      ],
      "stateMutability": "view",
      "type": "function"
    },
    {
      "inputs": [
        {
          "internalType": "address",
          "name": "from",
          "type": "address"
        },
        {
          "internalType": "address",
          "name": "to",
          "type": "address"
        },
        {
          "internalType": "uint256",
          "name": "tokenId",
          "type": "uint256"
        }
      ],
      "name": "transferFrom",
      "outputs": [],
      "stateMutability": "nonpayable",
      "type": "function"
    }
  ],
  "bytecode": "0x608060405234801561001057600080fd5b506040518060400160405280600e81526020017f44796e616d696354696d654e46540000000000000000000000000000000000008152506040518060400160405280600581526020017f44544e4654000000000000000000000000000000000000000000000000000000815250816000908161008c91906102fc565b50806001908161009c91906102fc565b50505060006006819055506103ce565b600081519050919050565b7f4e487b7100000000000000000000000000000000000000000000000000000000600052604160045260246000fd5b7f4e487b7100000000000000000000000000000000000000000000000000000000600052602260045260246000fd5b6000600282049050600182168061012d57607f821691505b6020821081036101405761013f6100e6565b5b50919050565b60008190508160005260206000209050919050565b60006020601f8301049050919050565b600082821b905092915050565b6000600883026101a87fffffffffffffffffffffffffffffffffffffffffffffffffffffffffffffffff8261016b565b6101b2868361016b565b95508019841693508086168417925050509392505050565b6000819050919050565b6000819050919050565b60006101f96101f46101ef846101ca565b6101d4565b6101ca565b9050919050565b6000819050919050565b610213836101de565b61022761021f82610200565b848454610178565b825550505050565b600090565b61023c61022f565b61024781848461020a565b505050565b5b8181101561026b57610260600082610234565b60018101905061024d565b5050565b601f8211156102b05761028181610146565b61028a8461015b565b81016020851015610299578190505b6102ad6102a58561015b565b83018261024c565b50505b505050565b600082821c905092915050565b60006102d3600019846008026102b5565b1980831691505092915050565b60006102ec83836102c2565b9150826002028217905092915050565b610305826100ac565b67ffffffffffffffff81111561031e5761031d6100b7565b5b6103288254610115565b61033382828561026f565b600060209050601f8311600181146103665760008415610354578287015190505b61035e85826102e0565b8655506103c6565b601f19841661037486610146565b60005b8281101561039c57848901518255600182019150602085019450602081019050610377565b868310156103b957848901516103b5601f8916826102c2565b8355505b6001600288020188555050505b505050505050565b612fd9806103dd6000396000f3fe608060405234801561001057600080fd5b50600436106100f55760003560e01c80636352211e11610097578063b88d4fde11610066578063b88d4fde14610270578063c87b56dd1461028c578063d082e381146102bc578063e985e9c5146102da576100f5565b80636352211e146101d657806370a082311461020657806395d89b4114610236578063a22cb46514610254576100f5565b8063095ea7b3116100d3578063095ea7b3146101785780631249c58b1461019457806323b872dd1461019e57806342842e0e146101ba576100f5565b806301ffc9a7146100fa57806306fdde031461012a578063081812fc14610148575b600080fd5b610114600480360381019061010f9190611ad8565b61030a565b6040516101219190611b20565b60405180910390f35b6101326103ec565b60405161013f9190611bcb565b60405180910390f35b610162600480360381019061015d9190611c23565b61047e565b60405161016f9190611c91565b60405180910390f35b610192600480360381019061018d9190611cd8565b6104c4565b005b61019c6105db565b005b6101b860048036038101906101b39190611d18565b610601565b005b6101d460048036038101906101cf9190611d18565b610661565b005b6101f060048036038101906101eb9190611c23565b610681565b6040516101fd9190611c91565b60405180910390f35b610220600480360381019061021b9190611d6b565b610707565b60405161022d9190611da7565b60405180910390f35b61023e6107be565b60405161024b9190611bcb565b60405180910390f35b61026e60048036038101906102699190611dee565b610850565b005b61028a60048036038101906102859190611f63565b610866565b005b6102a660048036038101906102a19190611c23565b6108c8565b6040516102b39190611bcb565b60405180910390f35b6102c46109d0565b6040516102d19190611da7565b60405180910390f35b6102f460048036038101906102ef9190611fe6565b6109d6565b6040516103019190611b20565b60405180910390f35b60007f80ac58cd000000000000000000000000000000000000000000000000000000007bffffffffffffffffffffffffffffffffffffffffffffffffffffffff1916827bffffffffffffffffffffffffffffffffffffffffffffffffffffffff191614806103d557507f5b5e139f000000000000000000000000000000000000000000000000000000007bffffffffffffffffffffffffffffffffffffffffffffffffffffffff1916827bffffffffffffffffffffffffffffffffffffffffffffffffffffffff1916145b806103e557506103e482610a6a565b5b9050919050565b6060600080546103fb90612055565b80601f016020809104026020016040519081016040528092919081815260200182805461042790612055565b80156104745780601f1061044957610100808354040283529160200191610474565b820191906000526020600020905b81548152906001019060200180831161045757829003601f168201915b5050505050905090565b600061048982610ad4565b6004600083815260200190815260200160002060009054906101000a900473ffffffffffffffffffffffffffffffffffffffff169050919050565b60006104cf82610681565b90508073ffffffffffffffffffffffffffffffffffffffff168373ffffffffffffffffffffffffffffffffffffffff160361053f576040517f08c379a0000000000000000000000000000000000000000000000000000000008152600401610536906120f8565b60405180910390fd5b8073ffffffffffffffffffffffffffffffffffffffff1661055e610b1f565b73ffffffffffffffffffffffffffffffffffffffff16148061058d575061058c81610587610b1f565b6109d6565b5b6105cc576040517f08c379a00000000000000000000000000000000000000000000000000000000081526004016105c39061218a565b60405180910390fd5b6105d68383610b27565b505050565b6105e733600654610be0565b600660008154809291906105fa906121d9565b9190505550565b61061261060c610b1f565b82610bfe565b610651576040517f08c379a000000000000000000000000000000000000000000000000000000000815260040161064890612293565b60405180910390fd5b61065c838383610c93565b505050565b61067c83838360405180602001604052806000815250610866565b505050565b60008061068d83610f8c565b9050600073ffffffffffffffffffffffffffffffffffffffff168173ffffffffffffffffffffffffffffffffffffffff16036106fe576040517f08c379a00000000000000000000000000000000000000000000000000000000081526004016106f5906122ff565b60405180910390fd5b80915050919050565b60008073ffffffffffffffffffffffffffffffffffffffff168273ffffffffffffffffffffffffffffffffffffffff1603610777576040517f08c379a000000000000000000000000000000000000000000000000000000000815260040161076e90612391565b60405180910390fd5b600360008373ffffffffffffffffffffffffffffffffffffffff1673ffffffffffffffffffffffffffffffffffffffff168152602001908152602001600020549050919050565b6060600180546107cd90612055565b80601f01602080910402602001604051908101604052809291908181526020018280546107f990612055565b80156108465780601f1061081b57610100808354040283529160200191610846565b820191906000526020600020905b81548152906001019060200180831161082957829003601f168201915b5050505050905090565b61086261085b610b1f565b8383610fc9565b5050565b610877610871610b1f565b83610bfe565b6108b6576040517f08c379a00000000000000000000000000000000000000000000000000000000081526004016108ad90612293565b60405180910390fd5b6108c284848484611135565b50505050565b60606108d382611191565b610912576040517f08c379a000000000000000000000000000000000000000000000000000000000815260040161090990612423565b60405180910390fd5b600061091d426111d2565b905060008160405160200161093291906126df565b6040516020818303038152906040529050600061094e8261126f565b60405160200161095e9190612779565b604051602081830303815290604052905060006109a361097d876113d2565b8360405160200161098f9291906128cb565b60405160208183030381529060405261126f565b9050806040516020016109b6919061295c565b604051602081830303815290604052945050505050919050565b60065481565b6000600560008473ffffffffffffffffffffffffffffffffffffffff1673ffffffffffffffffffffffffffffffffffffffff16815260200190815260200160002060008373ffffffffffffffffffffffffffffffffffffffff1673ffffffffffffffffffffffffffffffffffffffff16815260200190815260200160002060009054906101000a900460ff16905092915050565b60007f01ffc9a7000000000000000000000000000000000000000000000000000000007bffffffffffffffffffffffffffffffffffffffffffffffffffffffff1916827bffffffffffffffffffffffffffffffffffffffffffffffffffffffff1916149050919050565b610add81611191565b610b1c576040517f08c379a0000000000000000000000000000000000000000000000000000000008152600401610b13906122ff565b60405180910390fd5b50565b600033905090565b816004600083815260200190815260200160002060006101000a81548173ffffffffffffffffffffffffffffffffffffffff021916908373ffffffffffffffffffffffffffffffffffffffff160217905550808273ffffffffffffffffffffffffffffffffffffffff16610b9a83610681565b73ffffffffffffffffffffffffffffffffffffffff167f8c5be1e5ebec7d5bd14f71427d1e84f3dd0314c0f7b2291e5b200ac8c7c3b92560405160405180910390a45050565b610bfa8282604051806020016040528060008152506114a0565b5050565b600080610c0a83610681565b90508073ffffffffffffffffffffffffffffffffffffffff168473ffffffffffffffffffffffffffffffffffffffff161480610c4c5750610c4b81856109d6565b5b80610c8a57508373ffffffffffffffffffffffffffffffffffffffff16610c728461047e565b73ffffffffffffffffffffffffffffffffffffffff16145b91505092915050565b8273ffffffffffffffffffffffffffffffffffffffff16610cb382610681565b73ffffffffffffffffffffffffffffffffffffffff1614610d09576040517f08c379a0000000000000000000000000000000000000000000000000000000008152600401610d00906129f0565b60405180910390fd5b600073ffffffffffffffffffffffffffffffffffffffff168273ffffffffffffffffffffffffffffffffffffffff1603610d78576040517f08c379a0000000000000000000000000000000000000000000000000000000008152600401610d6f90612a82565b60405180910390fd5b610d8583838360016114fb565b8273ffffffffffffffffffffffffffffffffffffffff16610da582610681565b73ffffffffffffffffffffffffffffffffffffffff1614610dfb576040517f08c379a0000000000000000000000000000000000000000000000000000000008152600401610df2906129f0565b60405180910390fd5b6004600082815260200190815260200160002060006101000a81549073ffffffffffffffffffffffffffffffffffffffff02191690556001600360008573ffffffffffffffffffffffffffffffffffffffff1673ffffffffffffffffffffffffffffffffffffffff168152602001908152602001600020600082825403925050819055506001600360008473ffffffffffffffffffffffffffffffffffffffff1673ffffffffffffffffffffffffffffffffffffffff16815260200190815260200160002060008282540192505081905550816002600083815260200190815260200160002060006101000a81548173ffffffffffffffffffffffffffffffffffffffff021916908373ffffffffffffffffffffffffffffffffffffffff160217905550808273ffffffffffffffffffffffffffffffffffffffff168473ffffffffffffffffffffffffffffffffffffffff167fddf252ad1be2c89b69c2b068fc378daa952ba7f163c4a11628f55a4df523b3ef60405160405180910390a4610f878383836001611501565b505050565b60006002600083815260200190815260200160002060009054906101000a900473ffffffffffffffffffffffffffffffffffffffff169050919050565b8173ffffffffffffffffffffffffffffffffffffffff168373ffffffffffffffffffffffffffffffffffffffff1603611037576040517f08c379a000000000000000000000000000000000000000000000000000000000815260040161102e90612aee565b60405180910390fd5b80600560008573ffffffffffffffffffffffffffffffffffffffff1673ffffffffffffffffffffffffffffffffffffffff16815260200190815260200160002060008473ffffffffffffffffffffffffffffffffffffffff1673ffffffffffffffffffffffffffffffffffffffff16815260200190815260200160002060006101000a81548160ff0219169083151502179055508173ffffffffffffffffffffffffffffffffffffffff168373ffffffffffffffffffffffffffffffffffffffff167f17307eab39ab6107e8899845ad3d59bd9653f200f220920489ca2b5937696c31836040516111289190611b20565b60405180910390a3505050565b611140848484610c93565b61114c84848484611507565b61118b576040517f08c379a000000000000000000000000000000000000000000000000000000000815260040161118290612b80565b60405180910390fd5b50505050565b60008073ffffffffffffffffffffffffffffffffffffffff166111b383610f8c565b73ffffffffffffffffffffffffffffffffffffffff1614159050919050565b6060600062015180836111e59190612bcf565b90506000610e10826111f79190612c00565b90506000603c610e108461120b9190612bcf565b6112159190612c00565b90506000603c846112269190612bcf565b90506112318361168e565b61123a8361168e565b6112438361168e565b60405160200161125593929190612c7d565b604051602081830303815290604052945050505050919050565b60606000825103611291576040518060200160405280600081525090506113cd565b6000604051806060016040528060408152602001612f6460409139905060006003600285516112c09190612cc4565b6112ca9190612c00565b60046112d69190612cf8565b67ffffffffffffffff8111156112ef576112ee611e38565b5b6040519080825280601f01601f1916602001820160405280156113215781602001600182028036833780820191505090505b509050600182016020820185865187015b8082101561138d576003820191508151603f8160121c168501518453600184019350603f81600c1c168501518453600184019350603f8160061c168501518453600184019350603f8116850151845360018401935050611332565b50506003865106600181146113a957600281146113bc576113c4565b603d6001830353603d60028303536113c4565b603d60018303535b50505080925050505b919050565b6060600060016113e1846116d9565b01905060008167ffffffffffffffff811115611400576113ff611e38565b5b6040519080825280601f01601f1916602001820160405280156114325781602001600182028036833780820191505090505b509050600082602001820190505b600115611495578080600190039150507f3031323334353637383961626364656600000000000000000000000000000000600a86061a8153600a858161148957611488612ba0565b5b04945060008503611440575b819350505050919050565b6114aa838361182c565b6114b76000848484611507565b6114f6576040517f08c379a00000000000000000000000000000000000000000000000000000000081526004016114ed90612b80565b60405180910390fd5b505050565b50505050565b50505050565b60006115288473ffffffffffffffffffffffffffffffffffffffff16611a49565b15611681578373ffffffffffffffffffffffffffffffffffffffff1663150b7a02611551610b1f565b8786866040518563ffffffff1660e01b81526004016115739493929190612d8f565b6020604051808303816000875af19250505080156115af57506040513d601f19601f820116820180604052508101906115ac9190612df0565b60015b611631573d80600081146115df576040519150601f19603f3d011682016040523d82523d6000602084013e6115e4565b606091505b506000815103611629576040517f08c379a000000000000000000000000000000000000000000000000000000000815260040161162090612b80565b60405180910390fd5b805181602001fd5b63150b7a0260e01b7bffffffffffffffffffffffffffffffffffffffffffffffffffffffff1916817bffffffffffffffffffffffffffffffffffffffffffffffffffffffff191614915050611686565b600190505b949350505050565b6060600a8210156116c8576116a2826113d2565b6040516020016116b29190612e69565b60405160208183030381529060405290506116d4565b6116d1826113d2565b90505b919050565b600080600090507a184f03e93ff9f4daa797ed6e38ed64bf6a1f0100000000000000008310611737577a184f03e93ff9f4daa797ed6e38ed64bf6a1f010000000000000000838161172d5761172c612ba0565b5b0492506040810190505b6d04ee2d6d415b85acef81000000008310611774576d04ee2d6d415b85acef8100000000838161176a57611769612ba0565b5b0492506020810190505b662386f26fc1000083106117a357662386f26fc10000838161179957611798612ba0565b5b0492506010810190505b6305f5e10083106117cc576305f5e10083816117c2576117c1612ba0565b5b0492506008810190505b61271083106117f15761271083816117e7576117e6612ba0565b5b0492506004810190505b60648310611814576064838161180a57611809612ba0565b5b0492506002810190505b600a8310611823576001810190505b80915050919050565b600073ffffffffffffffffffffffffffffffffffffffff168273ffffffffffffffffffffffffffffffffffffffff160361189b576040517f08c379a000000000000000000000000000000000000000000000000000000000815260040161189290612ed7565b60405180910390fd5b6118a481611191565b156118e4576040517f08c379a00000000000000000000000000000000000000000000000000000000081526004016118db90612f43565b60405180910390fd5b6118f26000838360016114fb565b6118fb81611191565b1561193b576040517f08c379a000000000000000000000000000000000000000000000000000000000815260040161193290612f43565b60405180910390fd5b6001600360008473ffffffffffffffffffffffffffffffffffffffff1673ffffffffffffffffffffffffffffffffffffffff16815260200190815260200160002060008282540192505081905550816002600083815260200190815260200160002060006101000a81548173ffffffffffffffffffffffffffffffffffffffff021916908373ffffffffffffffffffffffffffffffffffffffff160217905550808273ffffffffffffffffffffffffffffffffffffffff16600073ffffffffffffffffffffffffffffffffffffffff167fddf252ad1be2c89b69c2b068fc378daa952ba7f163c4a11628f55a4df523b3ef60405160405180910390a4611a45600083836001611501565b5050565b6000808273ffffffffffffffffffffffffffffffffffffffff163b119050919050565b6000604051905090565b600080fd5b600080fd5b60007fffffffff0000000000000000000000000000000000000000000000000000000082169050919050565b611ab581611a80565b8114611ac057600080fd5b50565b600081359050611ad281611aac565b92915050565b600060208284031215611aee57611aed611a76565b5b6000611afc84828501611ac3565b91505092915050565b60008115159050919050565b611b1a81611b05565b82525050565b6000602082019050611b356000830184611b11565b92915050565b600081519050919050565b600082825260208201905092915050565b60005b83811015611b75578082015181840152602081019050611b5a565b60008484015250505050565b6000601f19601f8301169050919050565b6000611b9d82611b3b565b611ba78185611b46565b9350611bb7818560208601611b57565b611bc081611b81565b840191505092915050565b60006020820190508181036000830152611be58184611b92565b905092915050565b6000819050919050565b611c0081611bed565b8114611c0b57600080fd5b50565b600081359050611c1d81611bf7565b92915050565b600060208284031215611c3957611c38611a76565b5b6000611c4784828501611c0e565b91505092915050565b600073ffffffffffffffffffffffffffffffffffffffff82169050919050565b6000611c7b82611c50565b9050919050565b611c8b81611c70565b82525050565b6000602082019050611ca66000830184611c82565b92915050565b611cb581611c70565b8114611cc057600080fd5b50565b600081359050611cd281611cac565b92915050565b60008060408385031215611cef57611cee611a76565b5b6000611cfd85828601611cc3565b9250506020611d0e85828601611c0e565b9150509250929050565b600080600060608486031215611d3157611d30611a76565b5b6000611d3f86828701611cc3565b9350506020611d5086828701611cc3565b9250506040611d6186828701611c0e565b9150509250925092565b600060208284031215611d8157611d80611a76565b5b6000611d8f84828501611cc3565b91505092915050565b611da181611bed565b82525050565b6000602082019050611dbc6000830184611d98565b92915050565b611dcb81611b05565b8114611dd657600080fd5b50565b600081359050611de881611dc2565b92915050565b60008060408385031215611e0557611e04611a76565b5b6000611e1385828601611cc3565b9250506020611e2485828601611dd9565b9150509250929050565b600080fd5b600080fd5b7f4e487b7100000000000000000000000000000000000000000000000000000000600052604160045260246000fd5b611e7082611b81565b810181811067ffffffffffffffff82111715611e8f57611e8e611e38565b5b80604052505050565b6000611ea2611a6c565b9050611eae8282611e67565b919050565b600067ffffffffffffffff821115611ece57611ecd611e38565b5b611ed782611b81565b9050602081019050919050565b82818337600083830152505050565b6000611f06611f0184611eb3565b611e98565b905082815260208101848484011115611f2257611f21611e33565b5b611f2d848285611ee4565b509392505050565b600082601f830112611f4a57611f49611e2e565b5b8135611f5a848260208601611ef3565b91505092915050565b60008060008060808587031215611f7d57611f7c611a76565b5b6000611f8b87828801611cc3565b9450506020611f9c87828801611cc3565b9350506040611fad87828801611c0e565b925050606085013567ffffffffffffffff811115611fce57611fcd611a7b565b5b611fda87828801611f35565b91505092959194509250565b60008060408385031215611ffd57611ffc611a76565b5b600061200b85828601611cc3565b925050602061201c85828601611cc3565b9150509250929050565b7f4e487b7100000000000000000000000000000000000000000000000000000000600052602260045260246000fd5b6000600282049050600182168061206d57607f821691505b6020821081036120805761207f612026565b5b50919050565b7f4552433732313a20617070726f76616c20746f2063757272656e74206f776e6560008201527f7200000000000000000000000000000000000000000000000000000000000000602082015250565b60006120e2602183611b46565b91506120ed82612086565b604082019050919050565b60006020820190508181036000830152612111816120d5565b9050919050565b7f4552433732313a20617070726f76652063616c6c6572206973206e6f7420746f60008201527f6b656e206f776e6572206f7220617070726f76656420666f7220616c6c000000602082015250565b6000612174603d83611b46565b915061217f82612118565b604082019050919050565b600060208201905081810360008301526121a381612167565b9050919050565b7f4e487b7100000000000000000000000000000000000000000000000000000000600052601160045260246000fd5b60006121e482611bed565b91507fffffffffffffffffffffffffffffffffffffffffffffffffffffffffffffffff8203612216576122156121aa565b5b600182019050919050565b7f4552433732313a2063616c6c6572206973206e6f7420746f6b656e206f776e6560008201527f72206f7220617070726f76656400000000000000000000000000000000000000602082015250565b600061227d602d83611b46565b915061228882612221565b604082019050919050565b600060208201905081810360008301526122ac81612270565b9050919050565b7f4552433732313a20696e76616c696420746f6b656e2049440000000000000000600082015250565b60006122e9601883611b46565b91506122f4826122b3565b602082019050919050565b60006020820190508181036000830152612318816122dc565b9050919050565b7f4552433732313a2061646472657373207a65726f206973206e6f74206120766160008201527f6c6964206f776e65720000000000000000000000000000000000000000000000602082015250565b600061237b602983611b46565b91506123868261231f565b604082019050919050565b600060208201905081810360008301526123aa8161236e565b9050919050565b7f4552433732314d657461646174613a2055524920717565727920666f72206e6f60008201527f6e6578697374656e7420746f6b656e0000000000000000000000000000000000602082015250565b600061240d602f83611b46565b9150612418826123b1565b604082019050919050565b6000602082019050818103600083015261243c81612400565b9050919050565b600081905092915050565b7f3c73766720786d6c6e733d22687474703a2f2f7777772e77332e6f72672f323060008201527f30302f737667222077696474683d2234303022206865696768743d223430302260208201527f3e00000000000000000000000000000000000000000000000000000000000000604082015250565b60006124d0604183612443565b91506124db8261244e565b604182019050919050565b7f3c726563742077696474683d223130302522206865696768743d22313030252260008201527f2066696c6c3d22626c61636b222f3e0000000000000000000000000000000000602082015250565b6000612542602f83612443565b915061254d826124e6565b602f82019050919050565b7f3c7465787420783d223530252220793d22353025222066696c6c3d227768697460008201527f652220666f6e742d73697a653d2233322220746578742d616e63686f723d226d60208201527f6964646c652220646f6d696e616e742d626173656c696e653d226d6964646c6560408201527f223e000000000000000000000000000000000000000000000000000000000000606082015250565b6000612600606283612443565b915061260b82612558565b606282019050919050565b600061262182611b3b565b61262b8185612443565b935061263b818560208601611b57565b80840191505092915050565b7f3c2f746578743e00000000000000000000000000000000000000000000000000600082015250565b600061267d600783612443565b915061268882612647565b600782019050919050565b7f3c2f7376673e0000000000000000000000000000000000000000000000000000600082015250565b60006126c9600683612443565b91506126d482612693565b600682019050919050565b60006126ea826124c3565b91506126f582612535565b9150612700826125f3565b915061270c8284612616565b915061271782612670565b9150612722826126bc565b915081905092915050565b7f646174613a696d6167652f7376672b786d6c3b6261736536342c000000000000600082015250565b6000612763601a83612443565b915061276e8261272d565b601a82019050919050565b600061278482612756565b91506127908284612616565b915081905092915050565b7f7b226e616d65223a202244796e616d69632054696d65204e4654202300000000600082015250565b60006127d1601c83612443565b91506127dc8261279b565b601c82019050919050565b7f222c20226465736372697074696f6e223a2022416e206f6e2d636861696e204e60008201527f465420746861742073686f7773207468652063757272656e7420626c6f636b6360208201527f6861696e2074696d652e222c2022696d616765223a2022000000000000000000604082015250565b6000612869605783612443565b9150612874826127e7565b605782019050919050565b7f227d000000000000000000000000000000000000000000000000000000000000600082015250565b60006128b5600283612443565b91506128c08261287f565b600282019050919050565b60006128d6826127c4565b91506128e28285612616565b91506128ed8261285c565b91506128f98284612616565b9150612904826128a8565b91508190509392505050565b7f646174613a6170706c69636174696f6e2f6a736f6e3b6261736536342c000000600082015250565b6000612946601d83612443565b915061295182612910565b601d82019050919050565b600061296782612939565b91506129738284612616565b915081905092915050565b7f4552433732313a207472616e736665722066726f6d20696e636f72726563742060008201527f6f776e6572000000000000000000000000000000000000000000000000000000602082015250565b60006129da602583611b46565b91506129e58261297e565b604082019050919050565b60006020820190508181036000830152612a09816129cd565b9050919050565b7f4552433732313a207472616e7366657220746f20746865207a65726f2061646460008201527f7265737300000000000000000000000000000000000000000000000000000000602082015250565b6000612a6c602483611b46565b9150612a7782612a10565b604082019050919050565b60006020820190508181036000830152612a9b81612a5f565b9050919050565b7f4552433732313a20617070726f766520746f2063616c6c657200000000000000600082015250565b6000612ad8601983611b46565b9150612ae382612aa2565b602082019050919050565b60006020820190508181036000830152612b0781612acb565b9050919050565b7f4552433732313a207472616e7366657220746f206e6f6e20455243373231526560008201527f63656976657220696d706c656d656e7465720000000000000000000000000000602082015250565b6000612b6a603283611b46565b9150612b7582612b0e565b604082019050919050565b60006020820190508181036000830152612b9981612b5d565b9050919050565b7f4e487b7100000000000000000000000000000000000000000000000000000000600052601260045260246000fd5b6000612bda82611bed565b9150612be583611bed565b925082612bf557612bf4612ba0565b5b828206905092915050565b6000612c0b82611bed565b9150612c1683611bed565b925082612c2657612c25612ba0565b5b828204905092915050565b7f3a00000000000000000000000000000000000000000000000000000000000000600082015250565b6000612c67600183612443565b9150612c7282612c31565b600182019050919050565b6000612c898286612616565b9150612c9482612c5a565b9150612ca08285612616565b9150612cab82612c5a565b9150612cb78284612616565b9150819050949350505050565b6000612ccf82611bed565b9150612cda83611bed565b9250828201905080821115612cf257612cf16121aa565b5b92915050565b6000612d0382611bed565b9150612d0e83611bed565b9250828202612d1c81611bed565b91508282048414831517612d3357612d326121aa565b5b5092915050565b600081519050919050565b600082825260208201905092915050565b6000612d6182612d3a565b612d6b8185612d45565b9350612d7b818560208601611b57565b612d8481611b81565b840191505092915050565b6000608082019050612da46000830187611c82565b612db16020830186611c82565b612dbe6040830185611d98565b8181036060830152612dd08184612d56565b905095945050505050565b600081519050612dea81611aac565b92915050565b600060208284031215612e0657612e05611a76565b5b6000612e1484828501612ddb565b91505092915050565b7f3000000000000000000000000000000000000000000000000000000000000000600082015250565b6000612e53600183612443565b9150612e5e82612e1d565b600182019050919050565b6000612e7482612e46565b9150612e808284612616565b915081905092915050565b7f4552433732313a206d696e7420746f20746865207a65726f2061646472657373600082015250565b6000612ec1602083611b46565b9150612ecc82612e8b565b602082019050919050565b60006020820190508181036000830152612ef081612eb4565b9050919050565b7f4552433732313a20746f6b656e20616c7265616479206d696e74656400000000600082015250565b6000612f2d601c83611b46565b9150612f3882612ef7565b602082019050919050565b60006020820190508181036000830152612f5c81612f20565b905091905056fe4142434445464748494a4b4c4d4e4f505152535455565758595a6162636465666768696a6b6c6d6e6f707172737475767778797a303132333435363738392b2fa26469706673582212205dca1f3a762f4d57985a869c42a430a91b8fcfc1a59e9a3425a6fde409fdc7f664736f6c634300081e0033",
  "linkReferences": {},
  "deployedLinkReferences": {}
}