{
  "_format": "hh-sol-artifact-1",
  "contractName": "LEDA",
  "sourceName": "contracts/LEDA.sol",
  "abi": [
    {
      "inputs": [
        {
          "internalType": "string",
          "name": "_name",
          "type": "string"
        },
        {
          "internalType": "string",
          "name": "_symbol",
          "type": "string"
        },
        {
          "internalType": "uint8",
          "name": "_decimals",
          "type": "uint8"
        }
      ],
      "stateMutability": "nonpayable",
      "type": "constructor"
    },
    {
      "inputs": [],
      "name": "AllowanceTooLow",
      "type": "error"
    },
    {
      "inputs": [],
      "name": "InsufficientBalance",
      "type": "error"
    },
    {
      "inputs": [],
      "name": "NotEnoughToken",
      "type": "error"
    },
    {
      "anonymous": false,
      "inputs": [
        {
          "indexed": true,
          "internalType": "address",
          "name": "_sender",
          "type": "address"
        },
        {
          "indexed": true,
          "internalType": "address",
          "name": "_recipient",
          "type": "address"
        },
        {
          "indexed": false,
          "internalType": "uint256",
          "name": "_amount",
          "type": "uint256"
        }
      ],
      "name": "Approval",
      "type": "event"
    },
    {
      "anonymous": false,
      "inputs": [
        {
          "indexed": true,
          "internalType": "address",
          "name": "_to",
          "type": "address"
        },
        {
          "indexed": true,
          "internalType": "address",
          "name": "_from",
          "type": "address"
        },
        {
          "indexed": false,
          "internalType": "uint256",
          "name": "_amount",
          "type": "uint256"
        }
      ],
      "name": "Transfer",
      "type": "event"
    },
    {
      "inputs": [
        {
          "internalType": "address",
          "name": "_owner",
          "type": "address"
        },
        {
          "internalType": "address",
          "name": "_spender",
          "type": "address"
        }
      ],
      "name": "allowance",
      "outputs": [
        {
          "internalType": "uint256",
          "name": "",
          "type": "uint256"
        }
      ],
      "stateMutability": "view",
      "type": "function"
    },
    {
      "inputs": [
        {
          "internalType": "address",
          "name": "_spender",
          "type": "address"
        },
        {
          "internalType": "uint256",
          "name": "_amount",
          "type": "uint256"
        }
      ],
      "name": "approve",
      "outputs": [
        {
          "internalType": "bool",
          "name": "",
          "type": "bool"
        }
      ],
      "stateMutability": "nonpayable",
      "type": "function"
    },
    {
      "inputs": [
        {
          "internalType": "address",
          "name": "_account",
          "type": "address"
        }
      ],
      "name": "balanceOf",
      "outputs": [
        {
          "internalType": "uint256",
          "name": "",
          "type": "uint256"
        }
      ],
      "stateMutability": "view",
      "type": "function"
    },
    {
      "inputs": [
        {
          "internalType": "address",
          "name": "_from",
          "type": "address"
        },
        {
          "internalType": "uint256",
          "name": "_amount",
          "type": "uint256"
        }
      ],
      "name": "burn",
      "outputs": [],
      "stateMutability": "nonpayable",
      "type": "function"
    },
    {
      "inputs": [],
      "name": "decimals",
      "outputs": [
        {
          "internalType": "uint8",
          "name": "",
          "type": "uint8"
        }
      ],
      "stateMutability": "view",
      "type": "function"
    },
    {
      "inputs": [
        {
          "internalType": "address",
          "name": "_to",
          "type": "address"
        },
        {
          "internalType": "uint256",
          "name": "_amount",
          "type": "uint256"
        }
      ],
      "name": "mint",
      "outputs": [],
      "stateMutability": "nonpayable",
      "type": "function"
    },
    {
      "inputs": [],
      "name": "name",
      "outputs": [
        {
          "internalType": "string",
          "name": "",
          "type": "string"
        }
      ],
      "stateMutability": "view",
      "type": "function"
    },
    {
      "inputs": [],
      "name": "owner",
      "outputs": [
        {
          "internalType": "address",
          "name": "",
          "type": "address"
        }
      ],
      "stateMutability": "view",
      "type": "function"
    },
    {
      "inputs": [],
      "name": "symbol",
      "outputs": [
        {
          "internalType": "string",
          "name": "",
          "type": "string"
        }
      ],
      "stateMutability": "view",
      "type": "function"
    },
    {
      "inputs": [],
      "name": "totalSupply",
      "outputs": [
        {
          "internalType": "uint256",
          "name": "",
          "type": "uint256"
        }
      ],
      "stateMutability": "view",
      "type": "function"
    },
    {
      "inputs": [
        {
          "internalType": "address",
          "name": "_recipient",
          "type": "address"
        },
        {
          "internalType": "uint256",
          "name": "_amount",
          "type": "uint256"
        }
      ],
      "name": "transfer",
      "outputs": [
        {
          "internalType": "bool",
          "name": "",
          "type": "bool"
        }
      ],
      "stateMutability": "nonpayable",
      "type": "function"
    },
    {
      "inputs": [
        {
          "internalType": "address",
          "name": "_sender",
          "type": "address"
        },
        {
          "internalType": "address",
          "name": "_recipient",
          "type": "address"
        },
        {
          "internalType": "uint256",
          "name": "_amount",
          "type": "uint256"
        }
      ],
      "name": "transferFrom",
      "outputs": [
        {
          "internalType": "bool",
          "name": "",
          "type": "bool"
        }
      ],
      "stateMutability": "nonpayable",
      "type": "function"
    }
  ],
  "bytecode": "0x608060405234801561001057600080fd5b506040516118bf3803806118bf83398181016040528101906100329190610264565b33600360016101000a81548173ffffffffffffffffffffffffffffffffffffffff021916908373ffffffffffffffffffffffffffffffffffffffff16021790555082600190816100829190610510565b5081600290816100929190610510565b5080600360006101000a81548160ff021916908360ff1602179055505050506105e2565b6000604051905090565b600080fd5b600080fd5b600080fd5b600080fd5b6000601f19601f8301169050919050565b7f4e487b7100000000000000000000000000000000000000000000000000000000600052604160045260246000fd5b61011d826100d4565b810181811067ffffffffffffffff8211171561013c5761013b6100e5565b5b80604052505050565b600061014f6100b6565b905061015b8282610114565b919050565b600067ffffffffffffffff82111561017b5761017a6100e5565b5b610184826100d4565b9050602081019050919050565b60005b838110156101af578082015181840152602081019050610194565b60008484015250505050565b60006101ce6101c984610160565b610145565b9050828152602081018484840111156101ea576101e96100cf565b5b6101f5848285610191565b509392505050565b600082601f830112610212576102116100ca565b5b81516102228482602086016101bb565b91505092915050565b600060ff82169050919050565b6102418161022b565b811461024c57600080fd5b50565b60008151905061025e81610238565b92915050565b60008060006060848603121561027d5761027c6100c0565b5b600084015167ffffffffffffffff81111561029b5761029a6100c5565b5b6102a7868287016101fd565b935050602084015167ffffffffffffffff8111156102c8576102c76100c5565b5b6102d4868287016101fd565b92505060406102e58682870161024f565b9150509250925092565b600081519050919050565b7f4e487b7100000000000000000000000000000000000000000000000000000000600052602260045260246000fd5b6000600282049050600182168061034157607f821691505b602082108103610354576103536102fa565b5b50919050565b60008190508160005260206000209050919050565b60006020601f8301049050919050565b600082821b905092915050565b6000600883026103bc7fffffffffffffffffffffffffffffffffffffffffffffffffffffffffffffffff8261037f565b6103c6868361037f565b95508019841693508086168417925050509392505050565b6000819050919050565b6000819050919050565b600061040d610408610403846103de565b6103e8565b6103de565b9050919050565b6000819050919050565b610427836103f2565b61043b61043382610414565b84845461038c565b825550505050565b600090565b610450610443565b61045b81848461041e565b505050565b5b8181101561047f57610474600082610448565b600181019050610461565b5050565b601f8211156104c4576104958161035a565b61049e8461036f565b810160208510156104ad578190505b6104c16104b98561036f565b830182610460565b50505b505050565b600082821c905092915050565b60006104e7600019846008026104c9565b1980831691505092915050565b600061050083836104d6565b9150826002028217905092915050565b610519826102ef565b67ffffffffffffffff811115610532576105316100e5565b5b61053c8254610329565b610547828285610483565b600060209050601f83116001811461057a5760008415610568578287015190505b61057285826104f4565b8655506105da565b601f1984166105888661035a565b60005b828110156105b05784890151825560018201915060208501945060208101905061058b565b868310156105cd57848901516105c9601f8916826104d6565b8355505b6001600288020188555050505b505050505050565b6112ce806105f16000396000f3fe608060405234801561001057600080fd5b50600436106100b45760003560e01c806370a082311161007157806370a082311461018f5780638da5cb5b146101bf57806395d89b41146101dd5780639dc29fac146101fb578063a9059cbb14610217578063dd62ed3e14610247576100b4565b806306fdde03146100b9578063095ea7b3146100d757806318160ddd1461010757806323b872dd14610125578063313ce5671461015557806340c10f1914610173575b600080fd5b6100c1610277565b6040516100ce9190610e93565b60405180910390f35b6100f160048036038101906100ec9190610f4e565b610305565b6040516100fe9190610fa9565b60405180910390f35b61010f610405565b60405161011c9190610fd3565b60405180910390f35b61013f600480360381019061013a9190610fee565b61040b565b60405161014c9190610fa9565b60405180910390f35b61015d610701565b60405161016a919061105d565b60405180910390f35b61018d60048036038101906101889190610f4e565b610714565b005b6101a960048036038101906101a49190611078565b610722565b6040516101b69190610fd3565b60405180910390f35b6101c7610774565b6040516101d491906110b4565b60405180910390f35b6101e561079a565b6040516101f29190610e93565b60405180910390f35b61021560048036038101906102109190610f4e565b610828565b005b610231600480360381019061022c9190610f4e565b610836565b60405161023e9190610fa9565b60405180910390f35b610261600480360381019061025c91906110cf565b6109de565b60405161026e9190610fd3565b60405180910390f35b600180546102849061113e565b80601f01602080910402602001604051908101604052809291908181526020018280546102b09061113e565b80156102fd5780601f106102d2576101008083540402835291602001916102fd565b820191906000526020600020905b8154815290600101906020018083116102e057829003601f168201915b505050505081565b600080610310610a6e565b9050828160010160003373ffffffffffffffffffffffffffffffffffffffff1673ffffffffffffffffffffffffffffffffffffffff16815260200190815260200160002060008673ffffffffffffffffffffffffffffffffffffffff1673ffffffffffffffffffffffffffffffffffffffff168152602001908152602001600020819055508373ffffffffffffffffffffffffffffffffffffffff163373ffffffffffffffffffffffffffffffffffffffff167f8c5be1e5ebec7d5bd14f71427d1e84f3dd0314c0f7b2291e5b200ac8c7c3b925856040516103f29190610fd3565b60405180910390a3600191505092915050565b60005481565b600080610416610a6e565b9050828160010160008773ffffffffffffffffffffffffffffffffffffffff1673ffffffffffffffffffffffffffffffffffffffff16815260200190815260200160002060003373ffffffffffffffffffffffffffffffffffffffff1673ffffffffffffffffffffffffffffffffffffffff1681526020019081526020016000205410156104d0576040517fbac9b5e800000000000000000000000000000000000000000000000000000000815260040160405180910390fd5b828160000160008773ffffffffffffffffffffffffffffffffffffffff1673ffffffffffffffffffffffffffffffffffffffff16815260200190815260200160002054101561054b576040517ff4d678b800000000000000000000000000000000000000000000000000000000815260040160405180910390fd5b828160010160008773ffffffffffffffffffffffffffffffffffffffff1673ffffffffffffffffffffffffffffffffffffffff16815260200190815260200160002060003373ffffffffffffffffffffffffffffffffffffffff1673ffffffffffffffffffffffffffffffffffffffff16815260200190815260200160002060008282546105d9919061119e565b92505081905550828160000160008773ffffffffffffffffffffffffffffffffffffffff1673ffffffffffffffffffffffffffffffffffffffff1681526020019081526020016000206000828254610631919061119e565b92505081905550828160000160008673ffffffffffffffffffffffffffffffffffffffff1673ffffffffffffffffffffffffffffffffffffffff168152602001908152602001600020600082825461068991906111d2565b925050819055508373ffffffffffffffffffffffffffffffffffffffff168573ffffffffffffffffffffffffffffffffffffffff167fddf252ad1be2c89b69c2b068fc378daa952ba7f163c4a11628f55a4df523b3ef856040516106ed9190610fd3565b60405180910390a360019150509392505050565b600360009054906101000a900460ff1681565b61071e8282610a9b565b5050565b600061072c610a6e565b60000160008373ffffffffffffffffffffffffffffffffffffffff1673ffffffffffffffffffffffffffffffffffffffff168152602001908152602001600020549050919050565b600360019054906101000a900473ffffffffffffffffffffffffffffffffffffffff1681565b600280546107a79061113e565b80601f01602080910402602001604051908101604052809291908181526020018280546107d39061113e565b80156108205780601f106107f557610100808354040283529160200191610820565b820191906000526020600020905b81548152906001019060200180831161080357829003601f168201915b505050505081565b6108328282610c12565b5050565b600080610841610a6e565b9050828160000160003373ffffffffffffffffffffffffffffffffffffffff1673ffffffffffffffffffffffffffffffffffffffff1681526020019081526020016000205410156108be576040517ff4d678b800000000000000000000000000000000000000000000000000000000815260040160405180910390fd5b828160000160003373ffffffffffffffffffffffffffffffffffffffff1673ffffffffffffffffffffffffffffffffffffffff168152602001908152602001600020600082825461090f919061119e565b92505081905550828160000160008673ffffffffffffffffffffffffffffffffffffffff1673ffffffffffffffffffffffffffffffffffffffff168152602001908152602001600020600082825461096791906111d2565b925050819055508373ffffffffffffffffffffffffffffffffffffffff163373ffffffffffffffffffffffffffffffffffffffff167fddf252ad1be2c89b69c2b068fc378daa952ba7f163c4a11628f55a4df523b3ef856040516109cb9190610fd3565b60405180910390a3600191505092915050565b60006109e8610a6e565b60010160008473ffffffffffffffffffffffffffffffffffffffff1673ffffffffffffffffffffffffffffffffffffffff16815260200190815260200160002060008373ffffffffffffffffffffffffffffffffffffffff1673ffffffffffffffffffffffffffffffffffffffff16815260200190815260200160002054905092915050565b6000807f3f2e03f6ef530dc867b64a6018538f5b04254876becd658fe3e8b11f387f223a90508091505090565b600360019054906101000a900473ffffffffffffffffffffffffffffffffffffffff1673ffffffffffffffffffffffffffffffffffffffff163373ffffffffffffffffffffffffffffffffffffffff1614610b2b576040517f08c379a0000000000000000000000000000000000000000000000000000000008152600401610b2290611278565b60405180910390fd5b6000610b35610a6e565b9050818160000160008573ffffffffffffffffffffffffffffffffffffffff1673ffffffffffffffffffffffffffffffffffffffff1681526020019081526020016000206000828254610b8891906111d2565b9250508190555081600080828254610ba091906111d2565b925050819055508273ffffffffffffffffffffffffffffffffffffffff16600073ffffffffffffffffffffffffffffffffffffffff167fddf252ad1be2c89b69c2b068fc378daa952ba7f163c4a11628f55a4df523b3ef84604051610c059190610fd3565b60405180910390a3505050565b600360019054906101000a900473ffffffffffffffffffffffffffffffffffffffff1673ffffffffffffffffffffffffffffffffffffffff163373ffffffffffffffffffffffffffffffffffffffff1614610ca2576040517f08c379a0000000000000000000000000000000000000000000000000000000008152600401610c9990611278565b60405180910390fd5b6000610cac610a6e565b9050818160000160008573ffffffffffffffffffffffffffffffffffffffff1673ffffffffffffffffffffffffffffffffffffffff168152602001908152602001600020541015610d29576040517f5acb547600000000000000000000000000000000000000000000000000000000815260040160405180910390fd5b818160000160008573ffffffffffffffffffffffffffffffffffffffff1673ffffffffffffffffffffffffffffffffffffffff1681526020019081526020016000206000828254610d7a919061119e565b9250508190555081600080828254610d92919061119e565b925050819055508273ffffffffffffffffffffffffffffffffffffffff163373ffffffffffffffffffffffffffffffffffffffff167fddf252ad1be2c89b69c2b068fc378daa952ba7f163c4a11628f55a4df523b3ef84604051610df69190610fd3565b60405180910390a3505050565b600081519050919050565b600082825260208201905092915050565b60005b83811015610e3d578082015181840152602081019050610e22565b60008484015250505050565b6000601f19601f8301169050919050565b6000610e6582610e03565b610e6f8185610e0e565b9350610e7f818560208601610e1f565b610e8881610e49565b840191505092915050565b60006020820190508181036000830152610ead8184610e5a565b905092915050565b600080fd5b600073ffffffffffffffffffffffffffffffffffffffff82169050919050565b6000610ee582610eba565b9050919050565b610ef581610eda565b8114610f0057600080fd5b50565b600081359050610f1281610eec565b92915050565b6000819050919050565b610f2b81610f18565b8114610f3657600080fd5b50565b600081359050610f4881610f22565b92915050565b60008060408385031215610f6557610f64610eb5565b5b6000610f7385828601610f03565b9250506020610f8485828601610f39565b9150509250929050565b60008115159050919050565b610fa381610f8e565b82525050565b6000602082019050610fbe6000830184610f9a565b92915050565b610fcd81610f18565b82525050565b6000602082019050610fe86000830184610fc4565b92915050565b60008060006060848603121561100757611006610eb5565b5b600061101586828701610f03565b935050602061102686828701610f03565b925050604061103786828701610f39565b9150509250925092565b600060ff82169050919050565b61105781611041565b82525050565b6000602082019050611072600083018461104e565b92915050565b60006020828403121561108e5761108d610eb5565b5b600061109c84828501610f03565b91505092915050565b6110ae81610eda565b82525050565b60006020820190506110c960008301846110a5565b92915050565b600080604083850312156110e6576110e5610eb5565b5b60006110f485828601610f03565b925050602061110585828601610f03565b9150509250929050565b7f4e487b7100000000000000000000000000000000000000000000000000000000600052602260045260246000fd5b6000600282049050600182168061115657607f821691505b6020821081036111695761116861110f565b5b50919050565b7f4e487b7100000000000000000000000000000000000000000000000000000000600052601160045260246000fd5b60006111a982610f18565b91506111b483610f18565b92508282039050818111156111cc576111cb61116f565b5b92915050565b60006111dd82610f18565b91506111e883610f18565b9250828201905080821115611200576111ff61116f565b5b92915050565b7f4e6f7420617574686f72697a656420746f20706572666f726d2074686973206160008201527f6374696f6e000000000000000000000000000000000000000000000000000000602082015250565b6000611262602583610e0e565b915061126d82611206565b604082019050919050565b6000602082019050818103600083015261129181611255565b905091905056fea264697066735822122039e660217afd6efdd43b90306b1f6d1f32dd9a465361fc50bab7ed606556aeb864736f6c634300081e0033",
  "linkReferences": {},
  "deployedLinkReferences": {}
}