{"abi":[{"type":"constructor","inputs":[{"name":"_owner","type":"address","internalType":"address"},{"name":"_factory","type":"address","internalType":"address"},{"name":"_token","type":"address","internalType":"address"},{"name":"_lockPeriod","type":"uint256","internalType":"uint256"}],"stateMutability":"nonpayable"},{"type":"receive","stateMutability":"payable"},{"type":"function","name":"PENALTY_RATE","inputs":[],"outputs":[{"name":"","type":"uint256","internalType":"uint256"}],"stateMutability":"view"},{"type":"function","name":"PERCENTAGE_BASE","inputs":[],"outputs":[{"name":"","type":"uint256","internalType":"uint256"}],"stateMutability":"view"},{"type":"function","name":"createdAt","inputs":[],"outputs":[{"name":"","type":"uint256","internalType":"uint256"}],"stateMutability":"view"},{"type":"function","name":"depositETH","inputs":[],"outputs":[],"stateMutability":"payable"},{"type":"function","name":"depositToken","inputs":[{"name":"amount","type":"uint256","internalType":"uint256"}],"outputs":[],"stateMutability":"nonpayable"},{"type":"function","name":"emergencyWithdraw","inputs":[{"name":"amount","type":"uint256","internalType":"uint256"}],"outputs":[],"stateMutability":"nonpayable"},{"type":"function","name":"factory","inputs":[],"outputs":[{"name":"","type":"address","internalType":"address"}],"stateMutability":"view"},{"type":"function","name":"getBalance","inputs":[],"outputs":[{"name":"","type":"uint256","internalType":"uint256"}],"stateMutability":"view"},{"type":"function","name":"getPiggyBankInfo","inputs":[],"outputs":[{"name":"owner_","type":"address","internalType":"address"},{"name":"token_","type":"address","internalType":"address"},{"name":"lockPeriod_","type":"uint256","internalType":"uint256"},{"name":"createdAt_","type":"uint256","internalType":"uint256"},{"name":"balance","type":"uint256","internalType":"uint256"},{"name":"isLocked","type":"bool","internalType":"bool"}],"stateMutability":"view"},{"type":"function","name":"getRemainingLockTime","inputs":[],"outputs":[{"name":"","type":"uint256","internalType":"uint256"}],"stateMutability":"view"},{"type":"function","name":"isEthBank","inputs":[],"outputs":[{"name":"","type":"bool","internalType":"bool"}],"stateMutability":"view"},{"type":"function","name":"isLockExpired","inputs":[],"outputs":[{"name":"","type":"bool","internalType":"bool"}],"stateMutability":"view"},{"type":"function","name":"lockPeriod","inputs":[],"outputs":[{"name":"","type":"uint256","internalType":"uint256"}],"stateMutability":"view"},{"type":"function","name":"owner","inputs":[],"outputs":[{"name":"","type":"address","internalType":"address"}],"stateMutability":"view"},{"type":"function","name":"token","inputs":[],"outputs":[{"name":"","type":"address","internalType":"address"}],"stateMutability":"view"},{"type":"function","name":"totalDeposits","inputs":[],"outputs":[{"name":"","type":"uint256","internalType":"uint256"}],"stateMutability":"view"},{"type":"function","name":"withdraw","inputs":[{"name":"amount","type":"uint256","internalType":"uint256"}],"outputs":[],"stateMutability":"nonpayable"},{"type":"event","name":"Deposit","inputs":[{"name":"user","type":"address","indexed":true,"internalType":"address"},{"name":"amount","type":"uint256","indexed":false,"internalType":"uint256"},{"name":"timestamp","type":"uint256","indexed":false,"internalType":"uint256"}],"anonymous":false},{"type":"event","name":"EmergencyWithdrawal","inputs":[{"name":"user","type":"address","indexed":true,"internalType":"address"},{"name":"amount","type":"uint256","indexed":false,"internalType":"uint256"},{"name":"penalty","type":"uint256","indexed":false,"internalType":"uint256"},{"name":"timestamp","type":"uint256","indexed":false,"internalType":"uint256"}],"anonymous":false},{"type":"event","name":"Withdrawal","inputs":[{"name":"user","type":"address","indexed":true,"internalType":"address"},{"name":"amount","type":"uint256","indexed":false,"internalType":"uint256"},{"name":"penalty","type":"uint256","indexed":false,"internalType":"uint256"},{"name":"timestamp","type":"uint256","indexed":false,"internalType":"uint256"}],"anonymous":false},{"type":"error","name":"InsufficientBalance","inputs":[]},{"type":"error","name":"InvalidAmount","inputs":[]},{"type":"error","name":"InvalidToken","inputs":[]},{"type":"error","name":"LockPeriodNotExpired","inputs":[]},{"type":"error","name":"OnlyFactory","inputs":[]},{"type":"error","name":"OnlyOwner","inputs":[]},{"type":"error","name":"TransferFailed","inputs":[]}],"bytecode":{"object":"0x610120604052348015610010575f5ffd5b50604051611d06380380611d06833981810160405281019061003291906101c0565b8373ffffffffffffffffffffffffffffffffffffffff1660808173ffffffffffffffffffffffffffffffffffffffff16815250508273ffffffffffffffffffffffffffffffffffffffff1660a08173ffffffffffffffffffffffffffffffffffffffff16815250508173ffffffffffffffffffffffffffffffffffffffff1660c08173ffffffffffffffffffffffffffffffffffffffff16815250508060e081815250504261010081815250505f73ffffffffffffffffffffffffffffffffffffffff168273ffffffffffffffffffffffffffffffffffffffff161460015f6101000a81548160ff02191690831515021790555050505050610224565b5f5ffd5b5f73ffffffffffffffffffffffffffffffffffffffff82169050919050565b5f61015c82610133565b9050919050565b61016c81610152565b8114610176575f5ffd5b50565b5f8151905061018781610163565b92915050565b5f819050919050565b61019f8161018d565b81146101a9575f5ffd5b50565b5f815190506101ba81610196565b92915050565b5f5f5f5f608085870312156101d8576101d761012f565b5b5f6101e587828801610179565b94505060206101f687828801610179565b935050604061020787828801610179565b9250506060610218878288016101ac565b91505092959194509250565b60805160a05160c05160e051610100516119da61032c5f395f81816105ca015281816106dc01528181610a7401528181610abe015281816112a7015261134901525f81816105a9015281816106bb015281816109e701528181610a5301528181610a9d015261128601525f818161050a0152818161087601528181610a3201528181610dde0152818161112c01526114d901525f8181610c5901528181610e1e015261132501525f818161014d015281816105fd015281816107b1015281816108b60152818161097101528181610a1101528181610aff01528181610d1801528181610ef301528181610faf0152818161102701528181611301015261136d01526119da5ff3fe608060405260043610610101575f3560e01c80636f27811b116100945780638da5cb5b116100635780638da5cb5b14610434578063c45a01551461045e578063cf09e0d014610488578063f6326fb3146104b2578063fc0c546a146104bc57610239565b80636f27811b1461038c5780637a8cd156146103b65780637d882097146103e057806387c139431461040a57610239565b80633fd8b02f116100d05780633fd8b02f146102e35780634d59844d1461030d5780635312ea8e1461033c5780636215be771461036457610239565b80630ad08b861461023d57806312065fe014610267578063272aade5146102915780632e1a7d4d146102bb57610239565b366102395760015f9054906101000a900460ff1661014b576040517fc1ab6dc100000000000000000000000000000000000000000000000000000000815260040160405180910390fd5b7f000000000000000000000000000000000000000000000000000000000000000073ffffffffffffffffffffffffffffffffffffffff163373ffffffffffffffffffffffffffffffffffffffff16146101d0576040517f5fc483c500000000000000000000000000000000000000000000000000000000815260040160405180910390fd5b345f5f8282546101e09190611531565b925050819055503373ffffffffffffffffffffffffffffffffffffffff167f90890809c654f11d6e72a28fa60149770a0d11ec6c92319d6ceb2bb0a4ea1a15344260405161022f929190611573565b60405180910390a2005b5f5ffd5b348015610248575f5ffd5b506102516104e6565b60405161025e919061159a565b60405180910390f35b348015610272575f5ffd5b5061027b6104eb565b604051610288919061159a565b60405180910390f35b34801561029c575f5ffd5b506102a56105a6565b6040516102b291906115cd565b60405180910390f35b3480156102c6575f5ffd5b506102e160048036038101906102dc9190611614565b6105fb565b005b3480156102ee575f5ffd5b506102f76109e5565b604051610304919061159a565b60405180910390f35b348015610318575f5ffd5b50610321610a09565b6040516103339695949392919061167e565b60405180910390f35b348015610347575f5ffd5b50610362600480360381019061035d9190611614565b610afd565b005b34801561036f575f5ffd5b5061038a60048036038101906103859190611614565b611025565b005b348015610397575f5ffd5b506103a0611270565b6040516103ad91906115cd565b60405180910390f35b3480156103c1575f5ffd5b506103ca611282565b6040516103d7919061159a565b60405180910390f35b3480156103eb575f5ffd5b506103f46112f5565b604051610401919061159a565b60405180910390f35b348015610415575f5ffd5b5061041e6112fa565b60405161042b919061159a565b60405180910390f35b34801561043f575f5ffd5b506104486112ff565b60405161045591906116dd565b60405180910390f35b348015610469575f5ffd5b50610472611323565b60405161047f91906116dd565b60405180910390f35b348015610493575f5ffd5b5061049c611347565b6040516104a9919061159a565b60405180910390f35b6104ba61136b565b005b3480156104c7575f5ffd5b506104d06114d7565b6040516104dd91906116dd565b60405180910390f35b600381565b5f60015f9054906101000a900460ff1615610508574790506105a3565b7f000000000000000000000000000000000000000000000000000000000000000073ffffffffffffffffffffffffffffffffffffffff166370a08231306040518263ffffffff1660e01b815260040161056191906116dd565b602060405180830381865afa15801561057c573d5f5f3e3d5ffd5b505050506040513d601f19601f820116820180604052508101906105a0919061170a565b90505b90565b5f7f00000000000000000000000000000000000000000000000000000000000000007f00000000000000000000000000000000000000000000000000000000000000006105f39190611531565b421015905090565b7f000000000000000000000000000000000000000000000000000000000000000073ffffffffffffffffffffffffffffffffffffffff163373ffffffffffffffffffffffffffffffffffffffff1614610680576040517f5fc483c500000000000000000000000000000000000000000000000000000000815260040160405180910390fd5b5f81036106b9576040517f2c5211c600000000000000000000000000000000000000000000000000000000815260040160405180910390fd5b7f00000000000000000000000000000000000000000000000000000000000000007f00000000000000000000000000000000000000000000000000000000000000006107059190611531565b42101561073e576040517ff594da3400000000000000000000000000000000000000000000000000000000815260040160405180910390fd5b5f6107476104eb565b905080821115610783576040517ff4d678b800000000000000000000000000000000000000000000000000000000815260040160405180910390fd5b815f5f8282546107939190611735565b9250508190555060015f9054906101000a900460ff1615610873575f7f000000000000000000000000000000000000000000000000000000000000000073ffffffffffffffffffffffffffffffffffffffff16836040516107f390611795565b5f6040518083038185875af1925050503d805f811461082d576040519150601f19603f3d011682016040523d82523d5f602084013e610832565b606091505b505090508061086d576040517f90b8ec1800000000000000000000000000000000000000000000000000000000815260040160405180910390fd5b5061096f565b5f7f000000000000000000000000000000000000000000000000000000000000000090505f8173ffffffffffffffffffffffffffffffffffffffff1663a9059cbb7f0000000000000000000000000000000000000000000000000000000000000000866040518363ffffffff1660e01b81526004016108f39291906117a9565b6020604051808303815f875af115801561090f573d5f5f3e3d5ffd5b505050506040513d601f19601f8201168201806040525081019061093391906117fa565b90508061096c576040517f90b8ec1800000000000000000000000000000000000000000000000000000000815260040160405180910390fd5b50505b7f000000000000000000000000000000000000000000000000000000000000000073ffffffffffffffffffffffffffffffffffffffff167f650fdf669e93aa6c8ff3defe2da9c12b64f1548e5e1e54e803f4c1beb6466c8e835f426040516109d993929190611867565b60405180910390a25050565b7f000000000000000000000000000000000000000000000000000000000000000081565b5f5f5f5f5f5f7f00000000000000000000000000000000000000000000000000000000000000007f00000000000000000000000000000000000000000000000000000000000000007f00000000000000000000000000000000000000000000000000000000000000007f0000000000000000000000000000000000000000000000000000000000000000610a9b6104eb565b7f00000000000000000000000000000000000000000000000000000000000000007f0000000000000000000000000000000000000000000000000000000000000000610ae79190611531565b4210955095509550955095509550909192939495565b7f000000000000000000000000000000000000000000000000000000000000000073ffffffffffffffffffffffffffffffffffffffff163373ffffffffffffffffffffffffffffffffffffffff1614610b82576040517f5fc483c500000000000000000000000000000000000000000000000000000000815260040160405180910390fd5b5f8103610bbb576040517f2c5211c600000000000000000000000000000000000000000000000000000000815260040160405180910390fd5b5f610bc46104eb565b905080821115610c00576040517ff4d678b800000000000000000000000000000000000000000000000000000000815260040160405180910390fd5b5f6064600384610c10919061189c565b610c1a919061190a565b90505f8184610c299190611735565b9050835f5f828254610c3b9190611735565b9250508190555060015f9054906101000a900460ff1615610ddb575f7f000000000000000000000000000000000000000000000000000000000000000073ffffffffffffffffffffffffffffffffffffffff1683604051610c9b90611795565b5f6040518083038185875af1925050503d805f8114610cd5576040519150601f19603f3d011682016040523d82523d5f602084013e610cda565b606091505b5050905080610d15576040517f90b8ec1800000000000000000000000000000000000000000000000000000000815260040160405180910390fd5b5f7f000000000000000000000000000000000000000000000000000000000000000073ffffffffffffffffffffffffffffffffffffffff1683604051610d5a90611795565b5f6040518083038185875af1925050503d805f8114610d94576040519150601f19603f3d011682016040523d82523d5f602084013e610d99565b606091505b5050905080610dd4576040517f90b8ec1800000000000000000000000000000000000000000000000000000000815260040160405180910390fd5b5050610fad565b5f7f000000000000000000000000000000000000000000000000000000000000000090505f8173ffffffffffffffffffffffffffffffffffffffff1663a9059cbb7f0000000000000000000000000000000000000000000000000000000000000000866040518363ffffffff1660e01b8152600401610e5b9291906117a9565b6020604051808303815f875af1158015610e77573d5f5f3e3d5ffd5b505050506040513d601f19601f82011682018060405250810190610e9b91906117fa565b905080610ed4576040517f90b8ec1800000000000000000000000000000000000000000000000000000000815260040160405180910390fd5b5f8273ffffffffffffffffffffffffffffffffffffffff1663a9059cbb7f0000000000000000000000000000000000000000000000000000000000000000866040518363ffffffff1660e01b8152600401610f309291906117a9565b6020604051808303815f875af1158015610f4c573d5f5f3e3d5ffd5b505050506040513d601f19601f82011682018060405250810190610f7091906117fa565b905080610fa9576040517f90b8ec1800000000000000000000000000000000000000000000000000000000815260040160405180910390fd5b5050505b7f000000000000000000000000000000000000000000000000000000000000000073ffffffffffffffffffffffffffffffffffffffff167f5e51ee1d526b1e287667d5b5aa0f1595afa8e91197fb257f8351274f8fca50be8284426040516110179392919061193a565b60405180910390a250505050565b7f000000000000000000000000000000000000000000000000000000000000000073ffffffffffffffffffffffffffffffffffffffff163373ffffffffffffffffffffffffffffffffffffffff16146110aa576040517f5fc483c500000000000000000000000000000000000000000000000000000000815260040160405180910390fd5b60015f9054906101000a900460ff16156110f0576040517fc1ab6dc100000000000000000000000000000000000000000000000000000000815260040160405180910390fd5b5f8103611129576040517f2c5211c600000000000000000000000000000000000000000000000000000000815260040160405180910390fd5b5f7f000000000000000000000000000000000000000000000000000000000000000090505f8173ffffffffffffffffffffffffffffffffffffffff166323b872dd3330866040518463ffffffff1660e01b815260040161118b9392919061196f565b6020604051808303815f875af11580156111a7573d5f5f3e3d5ffd5b505050506040513d601f19601f820116820180604052508101906111cb91906117fa565b905080611204576040517f90b8ec1800000000000000000000000000000000000000000000000000000000815260040160405180910390fd5b825f5f8282546112149190611531565b925050819055503373ffffffffffffffffffffffffffffffffffffffff167f90890809c654f11d6e72a28fa60149770a0d11ec6c92319d6ceb2bb0a4ea1a158442604051611263929190611573565b60405180910390a2505050565b60015f9054906101000a900460ff1681565b5f5f7f00000000000000000000000000000000000000000000000000000000000000007f00000000000000000000000000000000000000000000000000000000000000006112d09190611531565b90508042106112e2575f9150506112f2565b42816112ee9190611735565b9150505b90565b5f5481565b606481565b7f000000000000000000000000000000000000000000000000000000000000000081565b7f000000000000000000000000000000000000000000000000000000000000000081565b7f000000000000000000000000000000000000000000000000000000000000000081565b7f000000000000000000000000000000000000000000000000000000000000000073ffffffffffffffffffffffffffffffffffffffff163373ffffffffffffffffffffffffffffffffffffffff16146113f0576040517f5fc483c500000000000000000000000000000000000000000000000000000000815260040160405180910390fd5b60015f9054906101000a900460ff16611435576040517fc1ab6dc100000000000000000000000000000000000000000000000000000000815260040160405180910390fd5b5f340361146e576040517f2c5211c600000000000000000000000000000000000000000000000000000000815260040160405180910390fd5b345f5f82825461147e9190611531565b925050819055503373ffffffffffffffffffffffffffffffffffffffff167f90890809c654f11d6e72a28fa60149770a0d11ec6c92319d6ceb2bb0a4ea1a1534426040516114cd929190611573565b60405180910390a2565b7f000000000000000000000000000000000000000000000000000000000000000081565b5f819050919050565b7f4e487b71000000000000000000000000000000000000000000000000000000005f52601160045260245ffd5b5f61153b826114fb565b9150611546836114fb565b925082820190508082111561155e5761155d611504565b5b92915050565b61156d816114fb565b82525050565b5f6040820190506115865f830185611564565b6115936020830184611564565b9392505050565b5f6020820190506115ad5f830184611564565b92915050565b5f8115159050919050565b6115c7816115b3565b82525050565b5f6020820190506115e05f8301846115be565b92915050565b5f5ffd5b6115f3816114fb565b81146115fd575f5ffd5b50565b5f8135905061160e816115ea565b92915050565b5f60208284031215611629576116286115e6565b5b5f61163684828501611600565b91505092915050565b5f73ffffffffffffffffffffffffffffffffffffffff82169050919050565b5f6116688261163f565b9050919050565b6116788161165e565b82525050565b5f60c0820190506116915f83018961166f565b61169e602083018861166f565b6116ab6040830187611564565b6116b86060830186611564565b6116c56080830185611564565b6116d260a08301846115be565b979650505050505050565b5f6020820190506116f05f83018461166f565b92915050565b5f81519050611704816115ea565b92915050565b5f6020828403121561171f5761171e6115e6565b5b5f61172c848285016116f6565b91505092915050565b5f61173f826114fb565b915061174a836114fb565b925082820390508181111561176257611761611504565b5b92915050565b5f81905092915050565b50565b5f6117805f83611768565b915061178b82611772565b5f82019050919050565b5f61179f82611775565b9150819050919050565b5f6040820190506117bc5f83018561166f565b6117c96020830184611564565b9392505050565b6117d9816115b3565b81146117e3575f5ffd5b50565b5f815190506117f4816117d0565b92915050565b5f6020828403121561180f5761180e6115e6565b5b5f61181c848285016117e6565b91505092915050565b5f819050919050565b5f819050919050565b5f61185161184c61184784611825565b61182e565b6114fb565b9050919050565b61186181611837565b82525050565b5f60608201905061187a5f830186611564565b6118876020830185611858565b6118946040830184611564565b949350505050565b5f6118a6826114fb565b91506118b1836114fb565b92508282026118bf816114fb565b915082820484148315176118d6576118d5611504565b5b5092915050565b7f4e487b71000000000000000000000000000000000000000000000000000000005f52601260045260245ffd5b5f611914826114fb565b915061191f836114fb565b92508261192f5761192e6118dd565b5b828204905092915050565b5f60608201905061194d5f830186611564565b61195a6020830185611564565b6119676040830184611564565b949350505050565b5f6060820190506119825f83018661166f565b61198f602083018561166f565b61199c6040830184611564565b94935050505056fea26469706673582212209f1884f5834faa156cbefb974899a4d2b62c48b6f6eced74d866ba20f52d590664736f6c634300081e0033","linkReferences":{}},"methodIdentifiers":{"PENALTY_RATE()":"0ad08b86","PERCENTAGE_BASE()":"87c13943","createdAt()":"cf09e0d0","depositETH()":"f6326fb3","depositToken(uint256)":"6215be77","emergencyWithdraw(uint256)":"5312ea8e","factory()":"c45a0155","getBalance()":"12065fe0","getPiggyBankInfo()":"4d59844d","getRemainingLockTime()":"7a8cd156","isEthBank()":"6f27811b","isLockExpired()":"272aade5","lockPeriod()":"3fd8b02f","owner()":"8da5cb5b","token()":"fc0c546a","totalDeposits()":"7d882097","withdraw(uint256)":"2e1a7d4d"},"id":21}