{
  "contracts/MultiSigFactory.sol": {
    "MultiSigFactory": {
      "abi": [
        {
          "inputs": [
            {
              "internalType": "address[]",
              "name": "_owners",
              "type": "address[]"
            },
            {
              "internalType": "uint256",
              "name": "_confirmation",
              "type": "uint256"
            }
          ],
          "name": "createMultiSig",
          "outputs": [],
          "stateMutability": "nonpayable",
          "type": "function"
        }
      ],
      "evm": {
        "bytecode": {
          "linkReferences": {},
          "object": "6080604052348015600f57600080fd5b50611b3a8061001f6000396000f3fe608060405234801561001057600080fd5b506004361061002b5760003560e01c8063d46a09f114610030575b600080fd5b61004a60048036038101906100459190610364565b61004c565b005b60005b82518110156100b3573383828151811061006c5761006b6103c0565b5b602002602001019073ffffffffffffffffffffffffffffffffffffffff16908173ffffffffffffffffffffffffffffffffffffffff1681525050808060010191505061004f565b50600082826040516100c490610156565b6100cf9291906104bc565b604051809103906000f0801580156100eb573d6000803e3d6000fd5b5090506000819080600181540180825580915050600190039060005260206000200160009091909190916101000a81548173ffffffffffffffffffffffffffffffffffffffff021916908373ffffffffffffffffffffffffffffffffffffffff160217905550505050565b611618806104ed83390190565b6000604051905090565b600080fd5b600080fd5b600080fd5b6000601f19601f8301169050919050565b7f4e487b7100000000000000000000000000000000000000000000000000000000600052604160045260246000fd5b6101c58261017c565b810181811067ffffffffffffffff821117156101e4576101e361018d565b5b80604052505050565b60006101f7610163565b905061020382826101bc565b919050565b600067ffffffffffffffff8211156102235761022261018d565b5b602082029050602081019050919050565b600080fd5b600073ffffffffffffffffffffffffffffffffffffffff82169050919050565b600061026482610239565b9050919050565b61027481610259565b811461027f57600080fd5b50565b6000813590506102918161026b565b92915050565b60006102aa6102a584610208565b6101ed565b905080838252602082019050602084028301858111156102cd576102cc610234565b5b835b818110156102f657806102e28882610282565b8452602084019350506020810190506102cf565b5050509392505050565b600082601f83011261031557610314610177565b5b8135610325848260208601610297565b91505092915050565b6000819050919050565b6103418161032e565b811461034c57600080fd5b50565b60008135905061035e81610338565b92915050565b6000806040838503121561037b5761037a61016d565b5b600083013567ffffffffffffffff81111561039957610398610172565b5b6103a585828601610300565b92505060206103b68582860161034f565b9150509250929050565b7f4e487b7100000000000000000000000000000000000000000000000000000000600052603260045260246000fd5b600081519050919050565b600082825260208201905092915050565b6000819050602082019050919050565b61042481610259565b82525050565b6000610436838361041b565b60208301905092915050565b6000602082019050919050565b600061045a826103ef565b61046481856103fa565b935061046f8361040b565b8060005b838110156104a0578151610487888261042a565b975061049283610442565b925050600181019050610473565b5085935050505092915050565b6104b68161032e565b82525050565b600060408201905081810360008301526104d6818561044f565b90506104e560208301846104ad565b939250505056fe608060405234801561001057600080fd5b506040516116183803806116188339818101604052810190610032919061031b565b600382511161004057600080fd5b600281101561004e57600080fd5b8160009080519060200190610064929190610073565b50806002819055505050610377565b8280548282559060005260206000209081019282156100ec579160200282015b828111156100eb5782518260006101000a81548173ffffffffffffffffffffffffffffffffffffffff021916908373ffffffffffffffffffffffffffffffffffffffff16021790555091602001919060010190610093565b5b5090506100f991906100fd565b5090565b5b808211156101165760008160009055506001016100fe565b5090565b6000604051905090565b600080fd5b600080fd5b600080fd5b6000601f19601f8301169050919050565b7f4e487b7100000000000000000000000000000000000000000000000000000000600052604160045260246000fd5b61017c82610133565b810181811067ffffffffffffffff8211171561019b5761019a610144565b5b80604052505050565b60006101ae61011a565b90506101ba8282610173565b919050565b600067ffffffffffffffff8211156101da576101d9610144565b5b602082029050602081019050919050565b600080fd5b600073ffffffffffffffffffffffffffffffffffffffff82169050919050565b600061021b826101f0565b9050919050565b61022b81610210565b811461023657600080fd5b50565b60008151905061024881610222565b92915050565b600061026161025c846101bf565b6101a4565b90508083825260208201905060208402830185811115610284576102836101eb565b5b835b818110156102ad57806102998882610239565b845260208401935050602081019050610286565b5050509392505050565b600082601f8301126102cc576102cb61012e565b5b81516102dc84826020860161024e565b91505092915050565b6000819050919050565b6102f8816102e5565b811461030357600080fd5b50565b600081519050610315816102ef565b92915050565b6000806040838503121561033257610331610124565b5b600083015167ffffffffffffffff8111156103505761034f610129565b5b61035c858286016102b7565b925050602061036d85828601610306565b9150509250929050565b611292806103866000396000f3fe6080604052600436106100a05760003560e01c8063bce800e511610064578063bce800e5146101ce578063c01a8c841461020b578063c642747414610234578063dc8452cd14610271578063ec096f8d1461029c578063ee22610b146102d9576100a7565b8063025e7c27146100ac5780633411c81c146100e9578063784547a7146101265780639ace38c214610163578063b77bf600146101a3576100a7565b366100a757005b600080fd5b3480156100b857600080fd5b506100d360048036038101906100ce919061092c565b610302565b6040516100e0919061099a565b60405180910390f35b3480156100f557600080fd5b50610110600480360381019061010b91906109e1565b610341565b60405161011d9190610a3c565b60405180910390f35b34801561013257600080fd5b5061014d6004803603810190610148919061092c565b610370565b60405161015a9190610a3c565b60405180910390f35b34801561016f57600080fd5b5061018a6004803603810190610185919061092c565b610387565b60405161019a9493929190610b17565b60405180910390f35b3480156101af57600080fd5b506101b861046c565b6040516101c59190610b63565b60405180910390f35b3480156101da57600080fd5b506101f560048036038101906101f0919061092c565b610472565b6040516102029190610b63565b60405180910390f35b34801561021757600080fd5b50610232600480360381019061022d919061092c565b61054b565b005b34801561024057600080fd5b5061025b60048036038101906102569190610cdf565b6105e1565b6040516102689190610b63565b60405180910390f35b34801561027d57600080fd5b50610286610605565b6040516102939190610b63565b60405180910390f35b3480156102a857600080fd5b506102c360048036038101906102be9190610cdf565b61060b565b6040516102d09190610b63565b60405180910390f35b3480156102e557600080fd5b5061030060048036038101906102fb919061092c565b610716565b005b6000818154811061031257600080fd5b906000526020600020016000915054906101000a900473ffffffffffffffffffffffffffffffffffffffff1681565b60046020528160005260406000206020528060005260406000206000915091509054906101000a900460ff1681565b600060025461037e83610472565b10159050919050565b60036020528060005260406000206000915090508060000160009054906101000a900473ffffffffffffffffffffffffffffffffffffffff16908060010154908060020160009054906101000a900460ff16908060030180546103e990610d7d565b80601f016020809104026020016040519081016040528092919081815260200182805461041590610d7d565b80156104625780601f1061043757610100808354040283529160200191610462565b820191906000526020600020905b81548152906001019060200180831161044557829003601f168201915b5050505050905084565b60015481565b60008060005b600080549050811015610541576004600085815260200190815260200160002060008083815481106104ad576104ac610dae565b5b9060005260206000200160009054906101000a900473ffffffffffffffffffffffffffffffffffffffff1673ffffffffffffffffffffffffffffffffffffffff1673ffffffffffffffffffffffffffffffffffffffff16815260200190815260200160002060009054906101000a900460ff161561053457818061053090610e0c565b9250505b8080600101915050610478565b5080915050919050565b6105543361083a565b61055d57600080fd5b60016004600083815260200190815260200160002060003373ffffffffffffffffffffffffffffffffffffffff1673ffffffffffffffffffffffffffffffffffffffff16815260200190815260200160002060006101000a81548160ff0219169083151502179055506105cf81610370565b156105de576105dd81610716565b5b50565b6000806105ef85858561060b565b90506105fa8161054b565b809150509392505050565b60025481565b600060405180608001604052808573ffffffffffffffffffffffffffffffffffffffff1681526020018481526020016000151581526020018381525060036000600154815260200190815260200160002060008201518160000160006101000a81548173ffffffffffffffffffffffffffffffffffffffff021916908373ffffffffffffffffffffffffffffffffffffffff1602179055506020820151816001015560408201518160020160006101000a81548160ff02191690831515021790555060608201518160030190816106e29190611000565b5090505060018060008282546106f891906110d2565b925050819055506001805461070d9190611106565b90509392505050565b61071f81610370565b61072857600080fd5b600060036000838152602001908152602001600020905060008160000160009054906101000a900473ffffffffffffffffffffffffffffffffffffffff1673ffffffffffffffffffffffffffffffffffffffff1682600101548360030160405161079291906111c8565b60006040518083038185875af1925050503d80600081146107cf576040519150601f19603f3d011682016040523d82523d6000602084013e6107d4565b606091505b5050905080610818576040517f08c379a000000000000000000000000000000000000000000000000000000000815260040161080f9061123c565b60405180910390fd5b60018260020160006101000a81548160ff021916908315150217905550505050565b600080600090505b6000805490508110156108d7578273ffffffffffffffffffffffffffffffffffffffff166000828154811061087a57610879610dae565b5b9060005260206000200160009054906101000a900473ffffffffffffffffffffffffffffffffffffffff1673ffffffffffffffffffffffffffffffffffffffff16036108ca5760019150506108dd565b8080600101915050610842565b50600090505b919050565b6000604051905090565b600080fd5b600080fd5b6000819050919050565b610909816108f6565b811461091457600080fd5b50565b60008135905061092681610900565b92915050565b600060208284031215610942576109416108ec565b5b600061095084828501610917565b91505092915050565b600073ffffffffffffffffffffffffffffffffffffffff82169050919050565b600061098482610959565b9050919050565b61099481610979565b82525050565b60006020820190506109af600083018461098b565b92915050565b6109be81610979565b81146109c957600080fd5b50565b6000813590506109db816109b5565b92915050565b600080604083850312156109f8576109f76108ec565b5b6000610a0685828601610917565b9250506020610a17858286016109cc565b9150509250929050565b60008115159050919050565b610a3681610a21565b82525050565b6000602082019050610a516000830184610a2d565b92915050565b6000610a6282610959565b9050919050565b610a7281610a57565b82525050565b610a81816108f6565b82525050565b600081519050919050565b600082825260208201905092915050565b60005b83811015610ac1578082015181840152602081019050610aa6565b60008484015250505050565b6000601f19601f8301169050919050565b6000610ae982610a87565b610af38185610a92565b9350610b03818560208601610aa3565b610b0c81610acd565b840191505092915050565b6000608082019050610b2c6000830187610a69565b610b396020830186610a78565b610b466040830185610a2d565b8181036060830152610b588184610ade565b905095945050505050565b6000602082019050610b786000830184610a78565b92915050565b610b8781610a57565b8114610b9257600080fd5b50565b600081359050610ba481610b7e565b92915050565b600080fd5b600080fd5b7f4e487b7100000000000000000000000000000000000000000000000000000000600052604160045260246000fd5b610bec82610acd565b810181811067ffffffffffffffff82111715610c0b57610c0a610bb4565b5b80604052505050565b6000610c1e6108e2565b9050610c2a8282610be3565b919050565b600067ffffffffffffffff821115610c4a57610c49610bb4565b5b610c5382610acd565b9050602081019050919050565b82818337600083830152505050565b6000610c82610c7d84610c2f565b610c14565b905082815260208101848484011115610c9e57610c9d610baf565b5b610ca9848285610c60565b509392505050565b600082601f830112610cc657610cc5610baa565b5b8135610cd6848260208601610c6f565b91505092915050565b600080600060608486031215610cf857610cf76108ec565b5b6000610d0686828701610b95565b9350506020610d1786828701610917565b925050604084013567ffffffffffffffff811115610d3857610d376108f1565b5b610d4486828701610cb1565b9150509250925092565b7f4e487b7100000000000000000000000000000000000000000000000000000000600052602260045260246000fd5b60006002820490506001821680610d9557607f821691505b602082108103610da857610da7610d4e565b5b50919050565b7f4e487b7100000000000000000000000000000000000000000000000000000000600052603260045260246000fd5b7f4e487b7100000000000000000000000000000000000000000000000000000000600052601160045260246000fd5b6000610e17826108f6565b91507fffffffffffffffffffffffffffffffffffffffffffffffffffffffffffffffff8203610e4957610e48610ddd565b5b600182019050919050565b60008190508160005260206000209050919050565b60006020601f8301049050919050565b600082821b905092915050565b600060088302610eb67fffffffffffffffffffffffffffffffffffffffffffffffffffffffffffffffff82610e79565b610ec08683610e79565b95508019841693508086168417925050509392505050565b6000819050919050565b6000610efd610ef8610ef3846108f6565b610ed8565b6108f6565b9050919050565b6000819050919050565b610f1783610ee2565b610f2b610f2382610f04565b848454610e86565b825550505050565b600090565b610f40610f33565b610f4b818484610f0e565b505050565b5b81811015610f6f57610f64600082610f38565b600181019050610f51565b5050565b601f821115610fb457610f8581610e54565b610f8e84610e69565b81016020851015610f9d578190505b610fb1610fa985610e69565b830182610f50565b50505b505050565b600082821c905092915050565b6000610fd760001984600802610fb9565b1980831691505092915050565b6000610ff08383610fc6565b9150826002028217905092915050565b61100982610a87565b67ffffffffffffffff81111561102257611021610bb4565b5b61102c8254610d7d565b611037828285610f73565b600060209050601f83116001811461106a5760008415611058578287015190505b6110628582610fe4565b8655506110ca565b601f19841661107886610e54565b60005b828110156110a05784890151825560018201915060208501945060208101905061107b565b868310156110bd57848901516110b9601f891682610fc6565b8355505b6001600288020188555050505b505050505050565b60006110dd826108f6565b91506110e8836108f6565b9250828201905080821115611100576110ff610ddd565b5b92915050565b6000611111826108f6565b915061111c836108f6565b925082820390508181111561113457611133610ddd565b5b92915050565b600081905092915050565b6000815461115281610d7d565b61115c818661113a565b94506001821660008114611177576001811461118c576111bf565b60ff19831686528115158202860193506111bf565b61119585610e54565b60005b838110156111b757815481890152600182019150602081019050611198565b838801955050505b50505092915050565b60006111d48284611145565b915081905092915050565b600082825260208201905092915050565b7f4661696c656420746f2065786563757465207472616e73616374696f6e000000600082015250565b6000611226601d836111df565b9150611231826111f0565b602082019050919050565b6000602082019050818103600083015261125581611219565b905091905056fea26469706673582212208428954abee2dabe387c04d81064721c0e10a7f5b4da6a856443b4eb5bbd46d764736f6c634300081c0033a2646970667358221220a7eda0b8adf3d054ce9dbbc1b70eb7a261cec43f3df82c166dda2da547bfaa2264736f6c634300081c0033",
          "opcodes": "PUSH1 0x80 PUSH1 0x40 MSTORE CALLVALUE DUP1 ISZERO PUSH1 0xF JUMPI PUSH1 0x0 DUP1 REVERT JUMPDEST POP PUSH2 0x1B3A DUP1 PUSH2 0x1F PUSH1 0x0 CODECOPY PUSH1 0x0 RETURN INVALID PUSH1 0x80 PUSH1 0x40 MSTORE CALLVALUE DUP1 ISZERO PUSH2 0x10 JUMPI PUSH1 0x0 DUP1 REVERT JUMPDEST POP PUSH1 0x4 CALLDATASIZE LT PUSH2 0x2B JUMPI PUSH1 0x0 CALLDATALOAD PUSH1 0xE0 SHR DUP1 PUSH4 0xD46A09F1 EQ PUSH2 0x30 JUMPI JUMPDEST PUSH1 0x0 DUP1 REVERT JUMPDEST PUSH2 0x4A PUSH1 0x4 DUP1 CALLDATASIZE SUB DUP2 ADD SWAP1 PUSH2 0x45 SWAP2 SWAP1 PUSH2 0x364 JUMP JUMPDEST PUSH2 0x4C JUMP JUMPDEST STOP JUMPDEST PUSH1 0x0 JUMPDEST DUP3 MLOAD DUP2 LT ISZERO PUSH2 0xB3 JUMPI CALLER DUP4 DUP3 DUP2 MLOAD DUP2 LT PUSH2 0x6C JUMPI PUSH2 0x6B PUSH2 0x3C0 JUMP JUMPDEST JUMPDEST PUSH1 0x20 MUL PUSH1 0x20 ADD ADD SWAP1 PUSH20 0xFFFFFFFFFFFFFFFFFFFFFFFFFFFFFFFFFFFFFFFF AND SWAP1 DUP2 PUSH20 0xFFFFFFFFFFFFFFFFFFFFFFFFFFFFFFFFFFFFFFFF AND DUP2 MSTORE POP POP DUP1 DUP1 PUSH1 0x1 ADD SWAP2 POP POP PUSH2 0x4F JUMP JUMPDEST POP PUSH1 0x0 DUP3 DUP3 PUSH1 0x40 MLOAD PUSH2 0xC4 SWAP1 PUSH2 0x156 JUMP JUMPDEST PUSH2 0xCF SWAP3 SWAP2 SWAP1 PUSH2 0x4BC JUMP JUMPDEST PUSH1 0x40 MLOAD DUP1 SWAP2 SUB SWAP1 PUSH1 0x0 CREATE DUP1 ISZERO DUP1 ISZERO PUSH2 0xEB JUMPI RETURNDATASIZE PUSH1 0x0 DUP1 RETURNDATACOPY RETURNDATASIZE PUSH1 0x0 REVERT JUMPDEST POP SWAP1 POP PUSH1 0x0 DUP2 SWAP1 DUP1 PUSH1 0x1 DUP2 SLOAD ADD DUP1 DUP3 SSTORE DUP1 SWAP2 POP POP PUSH1 0x1 SWAP1 SUB SWAP1 PUSH1 0x0 MSTORE PUSH1 0x20 PUSH1 0x0 KECCAK256 ADD PUSH1 0x0 SWAP1 SWAP2 SWAP1 SWAP2 SWAP1 SWAP2 PUSH2 0x100 EXP DUP2 SLOAD DUP2 PUSH20 0xFFFFFFFFFFFFFFFFFFFFFFFFFFFFFFFFFFFFFFFF MUL NOT AND SWAP1 DUP4 PUSH20 0xFFFFFFFFFFFFFFFFFFFFFFFFFFFFFFFFFFFFFFFF AND MUL OR SWAP1 SSTORE POP POP POP POP JUMP JUMPDEST PUSH2 0x1618 DUP1 PUSH2 0x4ED DUP4 CODECOPY ADD SWAP1 JUMP JUMPDEST PUSH1 0x0 PUSH1 0x40 MLOAD SWAP1 POP SWAP1 JUMP JUMPDEST PUSH1 0x0 DUP1 REVERT JUMPDEST PUSH1 0x0 DUP1 REVERT JUMPDEST PUSH1 0x0 DUP1 REVERT JUMPDEST PUSH1 0x0 PUSH1 0x1F NOT PUSH1 0x1F DUP4 ADD AND SWAP1 POP SWAP2 SWAP1 POP JUMP JUMPDEST PUSH32 0x4E487B7100000000000000000000000000000000000000000000000000000000 PUSH1 0x0 MSTORE PUSH1 0x41 PUSH1 0x4 MSTORE PUSH1 0x24 PUSH1 0x0 REVERT JUMPDEST PUSH2 0x1C5 DUP3 PUSH2 0x17C JUMP JUMPDEST DUP2 ADD DUP2 DUP2 LT PUSH8 0xFFFFFFFFFFFFFFFF DUP3 GT OR ISZERO PUSH2 0x1E4 JUMPI PUSH2 0x1E3 PUSH2 0x18D JUMP JUMPDEST JUMPDEST DUP1 PUSH1 0x40 MSTORE POP POP POP JUMP JUMPDEST PUSH1 0x0 PUSH2 0x1F7 PUSH2 0x163 JUMP JUMPDEST SWAP1 POP PUSH2 0x203 DUP3 DUP3 PUSH2 0x1BC JUMP JUMPDEST SWAP2 SWAP1 POP JUMP JUMPDEST PUSH1 0x0 PUSH8 0xFFFFFFFFFFFFFFFF DUP3 GT ISZERO PUSH2 0x223 JUMPI PUSH2 0x222 PUSH2 0x18D JUMP JUMPDEST JUMPDEST PUSH1 0x20 DUP3 MUL SWAP1 POP PUSH1 0x20 DUP2 ADD SWAP1 POP SWAP2 SWAP1 POP JUMP JUMPDEST PUSH1 0x0 DUP1 REVERT JUMPDEST PUSH1 0x0 PUSH20 0xFFFFFFFFFFFFFFFFFFFFFFFFFFFFFFFFFFFFFFFF DUP3 AND SWAP1 POP SWAP2 SWAP1 POP JUMP JUMPDEST PUSH1 0x0 PUSH2 0x264 DUP3 PUSH2 0x239 JUMP JUMPDEST SWAP1 POP SWAP2 SWAP1 POP JUMP JUMPDEST PUSH2 0x274 DUP2 PUSH2 0x259 JUMP JUMPDEST DUP2 EQ PUSH2 0x27F JUMPI PUSH1 0x0 DUP1 REVERT JUMPDEST POP JUMP JUMPDEST PUSH1 0x0 DUP2 CALLDATALOAD SWAP1 POP PUSH2 0x291 DUP2 PUSH2 0x26B JUMP JUMPDEST SWAP3 SWAP2 POP POP JUMP JUMPDEST PUSH1 0x0 PUSH2 0x2AA PUSH2 0x2A5 DUP5 PUSH2 0x208 JUMP JUMPDEST PUSH2 0x1ED JUMP JUMPDEST SWAP1 POP DUP1 DUP4 DUP3 MSTORE PUSH1 0x20 DUP3 ADD SWAP1 POP PUSH1 0x20 DUP5 MUL DUP4 ADD DUP6 DUP2 GT ISZERO PUSH2 0x2CD JUMPI PUSH2 0x2CC PUSH2 0x234 JUMP JUMPDEST JUMPDEST DUP4 JUMPDEST DUP2 DUP2 LT ISZERO PUSH2 0x2F6 JUMPI DUP1 PUSH2 0x2E2 DUP9 DUP3 PUSH2 0x282 JUMP JUMPDEST DUP5 MSTORE PUSH1 0x20 DUP5 ADD SWAP4 POP POP PUSH1 0x20 DUP2 ADD SWAP1 POP PUSH2 0x2CF JUMP JUMPDEST POP POP POP SWAP4 SWAP3 POP POP POP JUMP JUMPDEST PUSH1 0x0 DUP3 PUSH1 0x1F DUP4 ADD SLT PUSH2 0x315 JUMPI PUSH2 0x314 PUSH2 0x177 JUMP JUMPDEST JUMPDEST DUP2 CALLDATALOAD PUSH2 0x325 DUP5 DUP3 PUSH1 0x20 DUP7 ADD PUSH2 0x297 JUMP JUMPDEST SWAP2 POP POP SWAP3 SWAP2 POP POP JUMP JUMPDEST PUSH1 0x0 DUP2 SWAP1 POP SWAP2 SWAP1 POP JUMP JUMPDEST PUSH2 0x341 DUP2 PUSH2 0x32E JUMP JUMPDEST DUP2 EQ PUSH2 0x34C JUMPI PUSH1 0x0 DUP1 REVERT JUMPDEST POP JUMP JUMPDEST PUSH1 0x0 DUP2 CALLDATALOAD SWAP1 POP PUSH2 0x35E DUP2 PUSH2 0x338 JUMP JUMPDEST SWAP3 SWAP2 POP POP JUMP JUMPDEST PUSH1 0x0 DUP1 PUSH1 0x40 DUP4 DUP6 SUB SLT ISZERO PUSH2 0x37B JUMPI PUSH2 0x37A PUSH2 0x16D JUMP JUMPDEST JUMPDEST PUSH1 0x0 DUP4 ADD CALLDATALOAD PUSH8 0xFFFFFFFFFFFFFFFF DUP2 GT ISZERO PUSH2 0x399 JUMPI PUSH2 0x398 PUSH2 0x172 JUMP JUMPDEST JUMPDEST PUSH2 0x3A5 DUP6 DUP3 DUP7 ADD PUSH2 0x300 JUMP JUMPDEST SWAP3 POP POP PUSH1 0x20 PUSH2 0x3B6 DUP6 DUP3 DUP7 ADD PUSH2 0x34F JUMP JUMPDEST SWAP2 POP POP SWAP3 POP SWAP3 SWAP1 POP JUMP JUMPDEST PUSH32 0x4E487B7100000000000000000000000000000000000000000000000000000000 PUSH1 0x0 MSTORE PUSH1 0x32 PUSH1 0x4 MSTORE PUSH1 0x24 PUSH1 0x0 REVERT JUMPDEST PUSH1 0x0 DUP2 MLOAD SWAP1 POP SWAP2 SWAP1 POP JUMP JUMPDEST PUSH1 0x0 DUP3 DUP3 MSTORE PUSH1 0x20 DUP3 ADD SWAP1 POP SWAP3 SWAP2 POP POP JUMP JUMPDEST PUSH1 0x0 DUP2 SWAP1 POP PUSH1 0x20 DUP3 ADD SWAP1 POP SWAP2 SWAP1 POP JUMP JUMPDEST PUSH2 0x424 DUP2 PUSH2 0x259 JUMP JUMPDEST DUP3 MSTORE POP POP JUMP JUMPDEST PUSH1 0x0 PUSH2 0x436 DUP4 DUP4 PUSH2 0x41B JUMP JUMPDEST PUSH1 0x20 DUP4 ADD SWAP1 POP SWAP3 SWAP2 POP POP JUMP JUMPDEST PUSH1 0x0 PUSH1 0x20 DUP3 ADD SWAP1 POP SWAP2 SWAP1 POP JUMP JUMPDEST PUSH1 0x0 PUSH2 0x45A DUP3 PUSH2 0x3EF JUMP JUMPDEST PUSH2 0x464 DUP2 DUP6 PUSH2 0x3FA JUMP JUMPDEST SWAP4 POP PUSH2 0x46F DUP4 PUSH2 0x40B JUMP JUMPDEST DUP1 PUSH1 0x0 JUMPDEST DUP4 DUP2 LT ISZERO PUSH2 0x4A0 JUMPI DUP2 MLOAD PUSH2 0x487 DUP9 DUP3 PUSH2 0x42A JUMP JUMPDEST SWAP8 POP PUSH2 0x492 DUP4 PUSH2 0x442 JUMP JUMPDEST SWAP3 POP POP PUSH1 0x1 DUP2 ADD SWAP1 POP PUSH2 0x473 JUMP JUMPDEST POP DUP6 SWAP4 POP POP POP POP SWAP3 SWAP2 POP POP JUMP JUMPDEST PUSH2 0x4B6 DUP2 PUSH2 0x32E JUMP JUMPDEST DUP3 MSTORE POP POP JUMP JUMPDEST PUSH1 0x0 PUSH1 0x40 DUP3 ADD SWAP1 POP DUP2 DUP2 SUB PUSH1 0x0 DUP4 ADD MSTORE PUSH2 0x4D6 DUP2 DUP6 PUSH2 0x44F JUMP JUMPDEST SWAP1 POP PUSH2 0x4E5 PUSH1 0x20 DUP4 ADD DUP5 PUSH2 0x4AD JUMP JUMPDEST SWAP4 SWAP3 POP POP POP JUMP INVALID PUSH1 0x80 PUSH1 0x40 MSTORE CALLVALUE DUP1 ISZERO PUSH2 0x10 JUMPI PUSH1 0x0 DUP1 REVERT JUMPDEST POP PUSH1 0x40 MLOAD PUSH2 0x1618 CODESIZE SUB DUP1 PUSH2 0x1618 DUP4 CODECOPY DUP2 DUP2 ADD PUSH1 0x40 MSTORE DUP2 ADD SWAP1 PUSH2 0x32 SWAP2 SWAP1 PUSH2 0x31B JUMP JUMPDEST PUSH1 0x3 DUP3 MLOAD GT PUSH2 0x40 JUMPI PUSH1 0x0 DUP1 REVERT JUMPDEST PUSH1 0x2 DUP2 LT ISZERO PUSH2 0x4E JUMPI PUSH1 0x0 DUP1 REVERT JUMPDEST DUP2 PUSH1 0x0 SWAP1 DUP1 MLOAD SWAP1 PUSH1 0x20 ADD SWAP1 PUSH2 0x64 SWAP3 SWAP2 SWAP1 PUSH2 0x73 JUMP JUMPDEST POP DUP1 PUSH1 0x2 DUP2 SWAP1 SSTORE POP POP POP PUSH2 0x377 JUMP JUMPDEST DUP3 DUP1 SLOAD DUP3 DUP3 SSTORE SWAP1 PUSH1 0x0 MSTORE PUSH1 0x20 PUSH1 0x0 KECCAK256 SWAP1 DUP2 ADD SWAP3 DUP3 ISZERO PUSH2 0xEC JUMPI SWAP2 PUSH1 0x20 MUL DUP3 ADD JUMPDEST DUP3 DUP2 GT ISZERO PUSH2 0xEB JUMPI DUP3 MLOAD DUP3 PUSH1 0x0 PUSH2 0x100 EXP DUP2 SLOAD DUP2 PUSH20 0xFFFFFFFFFFFFFFFFFFFFFFFFFFFFFFFFFFFFFFFF MUL NOT AND SWAP1 DUP4 PUSH20 0xFFFFFFFFFFFFFFFFFFFFFFFFFFFFFFFFFFFFFFFF AND MUL OR SWAP1 SSTORE POP SWAP2 PUSH1 0x20 ADD SWAP2 SWAP1 PUSH1 0x1 ADD SWAP1 PUSH2 0x93 JUMP JUMPDEST JUMPDEST POP SWAP1 POP PUSH2 0xF9 SWAP2 SWAP1 PUSH2 0xFD JUMP JUMPDEST POP SWAP1 JUMP JUMPDEST JUMPDEST DUP1 DUP3 GT ISZERO PUSH2 0x116 JUMPI PUSH1 0x0 DUP2 PUSH1 0x0 SWAP1 SSTORE POP PUSH1 0x1 ADD PUSH2 0xFE JUMP JUMPDEST POP SWAP1 JUMP JUMPDEST PUSH1 0x0 PUSH1 0x40 MLOAD SWAP1 POP SWAP1 JUMP JUMPDEST PUSH1 0x0 DUP1 REVERT JUMPDEST PUSH1 0x0 DUP1 REVERT JUMPDEST PUSH1 0x0 DUP1 REVERT JUMPDEST PUSH1 0x0 PUSH1 0x1F NOT PUSH1 0x1F DUP4 ADD AND SWAP1 POP SWAP2 SWAP1 POP JUMP JUMPDEST PUSH32 0x4E487B7100000000000000000000000000000000000000000000000000000000 PUSH1 0x0 MSTORE PUSH1 0x41 PUSH1 0x4 MSTORE PUSH1 0x24 PUSH1 0x0 REVERT JUMPDEST PUSH2 0x17C DUP3 PUSH2 0x133 JUMP JUMPDEST DUP2 ADD DUP2 DUP2 LT PUSH8 0xFFFFFFFFFFFFFFFF DUP3 GT OR ISZERO PUSH2 0x19B JUMPI PUSH2 0x19A PUSH2 0x144 JUMP JUMPDEST JUMPDEST DUP1 PUSH1 0x40 MSTORE POP POP POP JUMP JUMPDEST PUSH1 0x0 PUSH2 0x1AE PUSH2 0x11A JUMP JUMPDEST SWAP1 POP PUSH2 0x1BA DUP3 DUP3 PUSH2 0x173 JUMP JUMPDEST SWAP2 SWAP1 POP JUMP JUMPDEST PUSH1 0x0 PUSH8 0xFFFFFFFFFFFFFFFF DUP3 GT ISZERO PUSH2 0x1DA JUMPI PUSH2 0x1D9 PUSH2 0x144 JUMP JUMPDEST JUMPDEST PUSH1 0x20 DUP3 MUL SWAP1 POP PUSH1 0x20 DUP2 ADD SWAP1 POP SWAP2 SWAP1 POP JUMP JUMPDEST PUSH1 0x0 DUP1 REVERT JUMPDEST PUSH1 0x0 PUSH20 0xFFFFFFFFFFFFFFFFFFFFFFFFFFFFFFFFFFFFFFFF DUP3 AND SWAP1 POP SWAP2 SWAP1 POP JUMP JUMPDEST PUSH1 0x0 PUSH2 0x21B DUP3 PUSH2 0x1F0 JUMP JUMPDEST SWAP1 POP SWAP2 SWAP1 POP JUMP JUMPDEST PUSH2 0x22B DUP2 PUSH2 0x210 JUMP JUMPDEST DUP2 EQ PUSH2 0x236 JUMPI PUSH1 0x0 DUP1 REVERT JUMPDEST POP JUMP JUMPDEST PUSH1 0x0 DUP2 MLOAD SWAP1 POP PUSH2 0x248 DUP2 PUSH2 0x222 JUMP JUMPDEST SWAP3 SWAP2 POP POP JUMP JUMPDEST PUSH1 0x0 PUSH2 0x261 PUSH2 0x25C DUP5 PUSH2 0x1BF JUMP JUMPDEST PUSH2 0x1A4 JUMP JUMPDEST SWAP1 POP DUP1 DUP4 DUP3 MSTORE PUSH1 0x20 DUP3 ADD SWAP1 POP PUSH1 0x20 DUP5 MUL DUP4 ADD DUP6 DUP2 GT ISZERO PUSH2 0x284 JUMPI PUSH2 0x283 PUSH2 0x1EB JUMP JUMPDEST JUMPDEST DUP4 JUMPDEST DUP2 DUP2 LT ISZERO PUSH2 0x2AD JUMPI DUP1 PUSH2 0x299 DUP9 DUP3 PUSH2 0x239 JUMP JUMPDEST DUP5 MSTORE PUSH1 0x20 DUP5 ADD SWAP4 POP POP PUSH1 0x20 DUP2 ADD SWAP1 POP PUSH2 0x286 JUMP JUMPDEST POP POP POP SWAP4 SWAP3 POP POP POP JUMP JUMPDEST PUSH1 0x0 DUP3 PUSH1 0x1F DUP4 ADD SLT PUSH2 0x2CC JUMPI PUSH2 0x2CB PUSH2 0x12E JUMP JUMPDEST JUMPDEST DUP2 MLOAD PUSH2 0x2DC DUP5 DUP3 PUSH1 0x20 DUP7 ADD PUSH2 0x24E JUMP JUMPDEST SWAP2 POP POP SWAP3 SWAP2 POP POP JUMP JUMPDEST PUSH1 0x0 DUP2 SWAP1 POP SWAP2 SWAP1 POP JUMP JUMPDEST PUSH2 0x2F8 DUP2 PUSH2 0x2E5 JUMP JUMPDEST DUP2 EQ PUSH2 0x303 JUMPI PUSH1 0x0 DUP1 REVERT JUMPDEST POP JUMP JUMPDEST PUSH1 0x0 DUP2 MLOAD SWAP1 POP PUSH2 0x315 DUP2 PUSH2 0x2EF JUMP JUMPDEST SWAP3 SWAP2 POP POP JUMP JUMPDEST PUSH1 0x0 DUP1 PUSH1 0x40 DUP4 DUP6 SUB SLT ISZERO PUSH2 0x332 JUMPI PUSH2 0x331 PUSH2 0x124 JUMP JUMPDEST JUMPDEST PUSH1 0x0 DUP4 ADD MLOAD PUSH8 0xFFFFFFFFFFFFFFFF DUP2 GT ISZERO PUSH2 0x350 JUMPI PUSH2 0x34F PUSH2 0x129 JUMP JUMPDEST JUMPDEST PUSH2 0x35C DUP6 DUP3 DUP7 ADD PUSH2 0x2B7 JUMP JUMPDEST SWAP3 POP POP PUSH1 0x20 PUSH2 0x36D DUP6 DUP3 DUP7 ADD PUSH2 0x306 JUMP JUMPDEST SWAP2 POP POP SWAP3 POP SWAP3 SWAP1 POP JUMP JUMPDEST PUSH2 0x1292 DUP1 PUSH2 0x386 PUSH1 0x0 CODECOPY PUSH1 0x0 RETURN INVALID PUSH1 0x80 PUSH1 0x40 MSTORE PUSH1 0x4 CALLDATASIZE LT PUSH2 0xA0 JUMPI PUSH1 0x0 CALLDATALOAD PUSH1 0xE0 SHR DUP1 PUSH4 0xBCE800E5 GT PUSH2 0x64 JUMPI DUP1 PUSH4 0xBCE800E5 EQ PUSH2 0x1CE JUMPI DUP1 PUSH4 0xC01A8C84 EQ PUSH2 0x20B JUMPI DUP1 PUSH4 0xC6427474 EQ PUSH2 0x234 JUMPI DUP1 PUSH4 0xDC8452CD EQ PUSH2 0x271 JUMPI DUP1 PUSH4 0xEC096F8D EQ PUSH2 0x29C JUMPI DUP1 PUSH4 0xEE22610B EQ PUSH2 0x2D9 JUMPI PUSH2 0xA7 JUMP JUMPDEST DUP1 PUSH4 0x25E7C27 EQ PUSH2 0xAC JUMPI DUP1 PUSH4 0x3411C81C EQ PUSH2 0xE9 JUMPI DUP1 PUSH4 0x784547A7 EQ PUSH2 0x126 JUMPI DUP1 PUSH4 0x9ACE38C2 EQ PUSH2 0x163 JUMPI DUP1 PUSH4 0xB77BF600 EQ PUSH2 0x1A3 JUMPI PUSH2 0xA7 JUMP JUMPDEST CALLDATASIZE PUSH2 0xA7 JUMPI STOP JUMPDEST PUSH1 0x0 DUP1 REVERT JUMPDEST CALLVALUE DUP1 ISZERO PUSH2 0xB8 JUMPI PUSH1 0x0 DUP1 REVERT JUMPDEST POP PUSH2 0xD3 PUSH1 0x4 DUP1 CALLDATASIZE SUB DUP2 ADD SWAP1 PUSH2 0xCE SWAP2 SWAP1 PUSH2 0x92C JUMP JUMPDEST PUSH2 0x302 JUMP JUMPDEST PUSH1 0x40 MLOAD PUSH2 0xE0 SWAP2 SWAP1 PUSH2 0x99A JUMP JUMPDEST PUSH1 0x40 MLOAD DUP1 SWAP2 SUB SWAP1 RETURN JUMPDEST CALLVALUE DUP1 ISZERO PUSH2 0xF5 JUMPI PUSH1 0x0 DUP1 REVERT JUMPDEST POP PUSH2 0x110 PUSH1 0x4 DUP1 CALLDATASIZE SUB DUP2 ADD SWAP1 PUSH2 0x10B SWAP2 SWAP1 PUSH2 0x9E1 JUMP JUMPDEST PUSH2 0x341 JUMP JUMPDEST PUSH1 0x40 MLOAD PUSH2 0x11D SWAP2 SWAP1 PUSH2 0xA3C JUMP JUMPDEST PUSH1 0x40 MLOAD DUP1 SWAP2 SUB SWAP1 RETURN JUMPDEST CALLVALUE DUP1 ISZERO PUSH2 0x132 JUMPI PUSH1 0x0 DUP1 REVERT JUMPDEST POP PUSH2 0x14D PUSH1 0x4 DUP1 CALLDATASIZE SUB DUP2 ADD SWAP1 PUSH2 0x148 SWAP2 SWAP1 PUSH2 0x92C JUMP JUMPDEST PUSH2 0x370 JUMP JUMPDEST PUSH1 0x40 MLOAD PUSH2 0x15A SWAP2 SWAP1 PUSH2 0xA3C JUMP JUMPDEST PUSH1 0x40 MLOAD DUP1 SWAP2 SUB SWAP1 RETURN JUMPDEST CALLVALUE DUP1 ISZERO PUSH2 0x16F JUMPI PUSH1 0x0 DUP1 REVERT JUMPDEST POP PUSH2 0x18A PUSH1 0x4 DUP1 CALLDATASIZE SUB DUP2 ADD SWAP1 PUSH2 0x185 SWAP2 SWAP1 PUSH2 0x92C JUMP JUMPDEST PUSH2 0x387 JUMP JUMPDEST PUSH1 0x40 MLOAD PUSH2 0x19A SWAP5 SWAP4 SWAP3 SWAP2 SWAP1 PUSH2 0xB17 JUMP JUMPDEST PUSH1 0x40 MLOAD DUP1 SWAP2 SUB SWAP1 RETURN JUMPDEST CALLVALUE DUP1 ISZERO PUSH2 0x1AF JUMPI PUSH1 0x0 DUP1 REVERT JUMPDEST POP PUSH2 0x1B8 PUSH2 0x46C JUMP JUMPDEST PUSH1 0x40 MLOAD PUSH2 0x1C5 SWAP2 SWAP1 PUSH2 0xB63 JUMP JUMPDEST PUSH1 0x40 MLOAD DUP1 SWAP2 SUB SWAP1 RETURN JUMPDEST CALLVALUE DUP1 ISZERO PUSH2 0x1DA JUMPI PUSH1 0x0 DUP1 REVERT JUMPDEST POP PUSH2 0x1F5 PUSH1 0x4 DUP1 CALLDATASIZE SUB DUP2 ADD SWAP1 PUSH2 0x1F0 SWAP2 SWAP1 PUSH2 0x92C JUMP JUMPDEST PUSH2 0x472 JUMP JUMPDEST PUSH1 0x40 MLOAD PUSH2 0x202 SWAP2 SWAP1 PUSH2 0xB63 JUMP JUMPDEST PUSH1 0x40 MLOAD DUP1 SWAP2 SUB SWAP1 RETURN JUMPDEST CALLVALUE DUP1 ISZERO PUSH2 0x217 JUMPI PUSH1 0x0 DUP1 REVERT JUMPDEST POP PUSH2 0x232 PUSH1 0x4 DUP1 CALLDATASIZE SUB DUP2 ADD SWAP1 PUSH2 0x22D SWAP2 SWAP1 PUSH2 0x92C JUMP JUMPDEST PUSH2 0x54B JUMP JUMPDEST STOP JUMPDEST CALLVALUE DUP1 ISZERO PUSH2 0x240 JUMPI PUSH1 0x0 DUP1 REVERT JUMPDEST POP PUSH2 0x25B PUSH1 0x4 DUP1 CALLDATASIZE SUB DUP2 ADD SWAP1 PUSH2 0x256 SWAP2 SWAP1 PUSH2 0xCDF JUMP JUMPDEST PUSH2 0x5E1 JUMP JUMPDEST PUSH1 0x40 MLOAD PUSH2 0x268 SWAP2 SWAP1 PUSH2 0xB63 JUMP JUMPDEST PUSH1 0x40 MLOAD DUP1 SWAP2 SUB SWAP1 RETURN JUMPDEST CALLVALUE DUP1 ISZERO PUSH2 0x27D JUMPI PUSH1 0x0 DUP1 REVERT JUMPDEST POP PUSH2 0x286 PUSH2 0x605 JUMP JUMPDEST PUSH1 0x40 MLOAD PUSH2 0x293 SWAP2 SWAP1 PUSH2 0xB63 JUMP JUMPDEST PUSH1 0x40 MLOAD DUP1 SWAP2 SUB SWAP1 RETURN JUMPDEST CALLVALUE DUP1 ISZERO PUSH2 0x2A8 JUMPI PUSH1 0x0 DUP1 REVERT JUMPDEST POP PUSH2 0x2C3 PUSH1 0x4 DUP1 CALLDATASIZE SUB DUP2 ADD SWAP1 PUSH2 0x2BE SWAP2 SWAP1 PUSH2 0xCDF JUMP JUMPDEST PUSH2 0x60B JUMP JUMPDEST PUSH1 0x40 MLOAD PUSH2 0x2D0 SWAP2 SWAP1 PUSH2 0xB63 JUMP JUMPDEST PUSH1 0x40 MLOAD DUP1 SWAP2 SUB SWAP1 RETURN JUMPDEST CALLVALUE DUP1 ISZERO PUSH2 0x2E5 JUMPI PUSH1 0x0 DUP1 REVERT JUMPDEST POP PUSH2 0x300 PUSH1 0x4 DUP1 CALLDATASIZE SUB DUP2 ADD SWAP1 PUSH2 0x2FB SWAP2 SWAP1 PUSH2 0x92C JUMP JUMPDEST PUSH2 0x716 JUMP JUMPDEST STOP JUMPDEST PUSH1 0x0 DUP2 DUP2 SLOAD DUP2 LT PUSH2 0x312 JUMPI PUSH1 0x0 DUP1 REVERT JUMPDEST SWAP1 PUSH1 0x0 MSTORE PUSH1 0x20 PUSH1 0x0 KECCAK256 ADD PUSH1 0x0 SWAP2 POP SLOAD SWAP1 PUSH2 0x100 EXP SWAP1 DIV PUSH20 0xFFFFFFFFFFFFFFFFFFFFFFFFFFFFFFFFFFFFFFFF AND DUP2 JUMP JUMPDEST PUSH1 0x4 PUSH1 0x20 MSTORE DUP2 PUSH1 0x0 MSTORE PUSH1 0x40 PUSH1 0x0 KECCAK256 PUSH1 0x20 MSTORE DUP1 PUSH1 0x0 MSTORE PUSH1 0x40 PUSH1 0x0 KECCAK256 PUSH1 0x0 SWAP2 POP SWAP2 POP SWAP1 SLOAD SWAP1 PUSH2 0x100 EXP SWAP1 DIV PUSH1 0xFF AND DUP2 JUMP JUMPDEST PUSH1 0x0 PUSH1 0x2 SLOAD PUSH2 0x37E DUP4 PUSH2 0x472 JUMP JUMPDEST LT ISZERO SWAP1 POP SWAP2 SWAP1 POP JUMP JUMPDEST PUSH1 0x3 PUSH1 0x20 MSTORE DUP1 PUSH1 0x0 MSTORE PUSH1 0x40 PUSH1 0x0 KECCAK256 PUSH1 0x0 SWAP2 POP SWAP1 POP DUP1 PUSH1 0x0 ADD PUSH1 0x0 SWAP1 SLOAD SWAP1 PUSH2 0x100 EXP SWAP1 DIV PUSH20 0xFFFFFFFFFFFFFFFFFFFFFFFFFFFFFFFFFFFFFFFF AND SWAP1 DUP1 PUSH1 0x1 ADD SLOAD SWAP1 DUP1 PUSH1 0x2 ADD PUSH1 0x0 SWAP1 SLOAD SWAP1 PUSH2 0x100 EXP SWAP1 DIV PUSH1 0xFF AND SWAP1 DUP1 PUSH1 0x3 ADD DUP1 SLOAD PUSH2 0x3E9 SWAP1 PUSH2 0xD7D JUMP JUMPDEST DUP1 PUSH1 0x1F ADD PUSH1 0x20 DUP1 SWAP2 DIV MUL PUSH1 0x20 ADD PUSH1 0x40 MLOAD SWAP1 DUP2 ADD PUSH1 0x40 MSTORE DUP1 SWAP3 SWAP2 SWAP1 DUP2 DUP2 MSTORE PUSH1 0x20 ADD DUP3 DUP1 SLOAD PUSH2 0x415 SWAP1 PUSH2 0xD7D JUMP JUMPDEST DUP1 ISZERO PUSH2 0x462 JUMPI DUP1 PUSH1 0x1F LT PUSH2 0x437 JUMPI PUSH2 0x100 DUP1 DUP4 SLOAD DIV MUL DUP4 MSTORE SWAP2 PUSH1 0x20 ADD SWAP2 PUSH2 0x462 JUMP JUMPDEST DUP3 ADD SWAP2 SWAP1 PUSH1 0x0 MSTORE PUSH1 0x20 PUSH1 0x0 KECCAK256 SWAP1 JUMPDEST DUP2 SLOAD DUP2 MSTORE SWAP1 PUSH1 0x1 ADD SWAP1 PUSH1 0x20 ADD DUP1 DUP4 GT PUSH2 0x445 JUMPI DUP3 SWAP1 SUB PUSH1 0x1F AND DUP3 ADD SWAP2 JUMPDEST POP POP POP POP POP SWAP1 POP DUP5 JUMP JUMPDEST PUSH1 0x1 SLOAD DUP2 JUMP JUMPDEST PUSH1 0x0 DUP1 PUSH1 0x0 JUMPDEST PUSH1 0x0 DUP1 SLOAD SWAP1 POP DUP2 LT ISZERO PUSH2 0x541 JUMPI PUSH1 0x4 PUSH1 0x0 DUP6 DUP2 MSTORE PUSH1 0x20 ADD SWAP1 DUP2 MSTORE PUSH1 0x20 ADD PUSH1 0x0 KECCAK256 PUSH1 0x0 DUP1 DUP4 DUP2 SLOAD DUP2 LT PUSH2 0x4AD JUMPI PUSH2 0x4AC PUSH2 0xDAE JUMP JUMPDEST JUMPDEST SWAP1 PUSH1 0x0 MSTORE PUSH1 0x20 PUSH1 0x0 KECCAK256 ADD PUSH1 0x0 SWAP1 SLOAD SWAP1 PUSH2 0x100 EXP SWAP1 DIV PUSH20 0xFFFFFFFFFFFFFFFFFFFFFFFFFFFFFFFFFFFFFFFF AND PUSH20 0xFFFFFFFFFFFFFFFFFFFFFFFFFFFFFFFFFFFFFFFF AND PUSH20 0xFFFFFFFFFFFFFFFFFFFFFFFFFFFFFFFFFFFFFFFF AND DUP2 MSTORE PUSH1 0x20 ADD SWAP1 DUP2 MSTORE PUSH1 0x20 ADD PUSH1 0x0 KECCAK256 PUSH1 0x0 SWAP1 SLOAD SWAP1 PUSH2 0x100 EXP SWAP1 DIV PUSH1 0xFF AND ISZERO PUSH2 0x534 JUMPI DUP2 DUP1 PUSH2 0x530 SWAP1 PUSH2 0xE0C JUMP JUMPDEST SWAP3 POP POP JUMPDEST DUP1 DUP1 PUSH1 0x1 ADD SWAP2 POP POP PUSH2 0x478 JUMP JUMPDEST POP DUP1 SWAP2 POP POP SWAP2 SWAP1 POP JUMP JUMPDEST PUSH2 0x554 CALLER PUSH2 0x83A JUMP JUMPDEST PUSH2 0x55D JUMPI PUSH1 0x0 DUP1 REVERT JUMPDEST PUSH1 0x1 PUSH1 0x4 PUSH1 0x0 DUP4 DUP2 MSTORE PUSH1 0x20 ADD SWAP1 DUP2 MSTORE PUSH1 0x20 ADD PUSH1 0x0 KECCAK256 PUSH1 0x0 CALLER PUSH20 0xFFFFFFFFFFFFFFFFFFFFFFFFFFFFFFFFFFFFFFFF AND PUSH20 0xFFFFFFFFFFFFFFFFFFFFFFFFFFFFFFFFFFFFFFFF AND DUP2 MSTORE PUSH1 0x20 ADD SWAP1 DUP2 MSTORE PUSH1 0x20 ADD PUSH1 0x0 KECCAK256 PUSH1 0x0 PUSH2 0x100 EXP DUP2 SLOAD DUP2 PUSH1 0xFF MUL NOT AND SWAP1 DUP4 ISZERO ISZERO MUL OR SWAP1 SSTORE POP PUSH2 0x5CF DUP2 PUSH2 0x370 JUMP JUMPDEST ISZERO PUSH2 0x5DE JUMPI PUSH2 0x5DD DUP2 PUSH2 0x716 JUMP JUMPDEST JUMPDEST POP JUMP JUMPDEST PUSH1 0x0 DUP1 PUSH2 0x5EF DUP6 DUP6 DUP6 PUSH2 0x60B JUMP JUMPDEST SWAP1 POP PUSH2 0x5FA DUP2 PUSH2 0x54B JUMP JUMPDEST DUP1 SWAP2 POP POP SWAP4 SWAP3 POP POP POP JUMP JUMPDEST PUSH1 0x2 SLOAD DUP2 JUMP JUMPDEST PUSH1 0x0 PUSH1 0x40 MLOAD DUP1 PUSH1 0x80 ADD PUSH1 0x40 MSTORE DUP1 DUP6 PUSH20 0xFFFFFFFFFFFFFFFFFFFFFFFFFFFFFFFFFFFFFFFF AND DUP2 MSTORE PUSH1 0x20 ADD DUP5 DUP2 MSTORE PUSH1 0x20 ADD PUSH1 0x0 ISZERO ISZERO DUP2 MSTORE PUSH1 0x20 ADD DUP4 DUP2 MSTORE POP PUSH1 0x3 PUSH1 0x0 PUSH1 0x1 SLOAD DUP2 MSTORE PUSH1 0x20 ADD SWAP1 DUP2 MSTORE PUSH1 0x20 ADD PUSH1 0x0 KECCAK256 PUSH1 0x0 DUP3 ADD MLOAD DUP2 PUSH1 0x0 ADD PUSH1 0x0 PUSH2 0x100 EXP DUP2 SLOAD DUP2 PUSH20 0xFFFFFFFFFFFFFFFFFFFFFFFFFFFFFFFFFFFFFFFF MUL NOT AND SWAP1 DUP4 PUSH20 0xFFFFFFFFFFFFFFFFFFFFFFFFFFFFFFFFFFFFFFFF AND MUL OR SWAP1 SSTORE POP PUSH1 0x20 DUP3 ADD MLOAD DUP2 PUSH1 0x1 ADD SSTORE PUSH1 0x40 DUP3 ADD MLOAD DUP2 PUSH1 0x2 ADD PUSH1 0x0 PUSH2 0x100 EXP DUP2 SLOAD DUP2 PUSH1 0xFF MUL NOT AND SWAP1 DUP4 ISZERO ISZERO MUL OR SWAP1 SSTORE POP PUSH1 0x60 DUP3 ADD MLOAD DUP2 PUSH1 0x3 ADD SWAP1 DUP2 PUSH2 0x6E2 SWAP2 SWAP1 PUSH2 0x1000 JUMP JUMPDEST POP SWAP1 POP POP PUSH1 0x1 DUP1 PUSH1 0x0 DUP3 DUP3 SLOAD PUSH2 0x6F8 SWAP2 SWAP1 PUSH2 0x10D2 JUMP JUMPDEST SWAP3 POP POP DUP2 SWAP1 SSTORE POP PUSH1 0x1 DUP1 SLOAD PUSH2 0x70D SWAP2 SWAP1 PUSH2 0x1106 JUMP JUMPDEST SWAP1 POP SWAP4 SWAP3 POP POP POP JUMP JUMPDEST PUSH2 0x71F DUP2 PUSH2 0x370 JUMP JUMPDEST PUSH2 0x728 JUMPI PUSH1 0x0 DUP1 REVERT JUMPDEST PUSH1 0x0 PUSH1 0x3 PUSH1 0x0 DUP4 DUP2 MSTORE PUSH1 0x20 ADD SWAP1 DUP2 MSTORE PUSH1 0x20 ADD PUSH1 0x0 KECCAK256 SWAP1 POP PUSH1 0x0 DUP2 PUSH1 0x0 ADD PUSH1 0x0 SWAP1 SLOAD SWAP1 PUSH2 0x100 EXP SWAP1 DIV PUSH20 0xFFFFFFFFFFFFFFFFFFFFFFFFFFFFFFFFFFFFFFFF AND PUSH20 0xFFFFFFFFFFFFFFFFFFFFFFFFFFFFFFFFFFFFFFFF AND DUP3 PUSH1 0x1 ADD SLOAD DUP4 PUSH1 0x3 ADD PUSH1 0x40 MLOAD PUSH2 0x792 SWAP2 SWAP1 PUSH2 0x11C8 JUMP JUMPDEST PUSH1 0x0 PUSH1 0x40 MLOAD DUP1 DUP4 SUB DUP2 DUP6 DUP8 GAS CALL SWAP3 POP POP POP RETURNDATASIZE DUP1 PUSH1 0x0 DUP2 EQ PUSH2 0x7CF JUMPI PUSH1 0x40 MLOAD SWAP2 POP PUSH1 0x1F NOT PUSH1 0x3F RETURNDATASIZE ADD AND DUP3 ADD PUSH1 0x40 MSTORE RETURNDATASIZE DUP3 MSTORE RETURNDATASIZE PUSH1 0x0 PUSH1 0x20 DUP5 ADD RETURNDATACOPY PUSH2 0x7D4 JUMP JUMPDEST PUSH1 0x60 SWAP2 POP JUMPDEST POP POP SWAP1 POP DUP1 PUSH2 0x818 JUMPI PUSH1 0x40 MLOAD PUSH32 0x8C379A000000000000000000000000000000000000000000000000000000000 DUP2 MSTORE PUSH1 0x4 ADD PUSH2 0x80F SWAP1 PUSH2 0x123C JUMP JUMPDEST PUSH1 0x40 MLOAD DUP1 SWAP2 SUB SWAP1 REVERT JUMPDEST PUSH1 0x1 DUP3 PUSH1 0x2 ADD PUSH1 0x0 PUSH2 0x100 EXP DUP2 SLOAD DUP2 PUSH1 0xFF MUL NOT AND SWAP1 DUP4 ISZERO ISZERO MUL OR SWAP1 SSTORE POP POP POP POP JUMP JUMPDEST PUSH1 0x0 DUP1 PUSH1 0x0 SWAP1 POP JUMPDEST PUSH1 0x0 DUP1 SLOAD SWAP1 POP DUP2 LT ISZERO PUSH2 0x8D7 JUMPI DUP3 PUSH20 0xFFFFFFFFFFFFFFFFFFFFFFFFFFFFFFFFFFFFFFFF AND PUSH1 0x0 DUP3 DUP2 SLOAD DUP2 LT PUSH2 0x87A JUMPI PUSH2 0x879 PUSH2 0xDAE JUMP JUMPDEST JUMPDEST SWAP1 PUSH1 0x0 MSTORE PUSH1 0x20 PUSH1 0x0 KECCAK256 ADD PUSH1 0x0 SWAP1 SLOAD SWAP1 PUSH2 0x100 EXP SWAP1 DIV PUSH20 0xFFFFFFFFFFFFFFFFFFFFFFFFFFFFFFFFFFFFFFFF AND PUSH20 0xFFFFFFFFFFFFFFFFFFFFFFFFFFFFFFFFFFFFFFFF AND SUB PUSH2 0x8CA JUMPI PUSH1 0x1 SWAP2 POP POP PUSH2 0x8DD JUMP JUMPDEST DUP1 DUP1 PUSH1 0x1 ADD SWAP2 POP POP PUSH2 0x842 JUMP JUMPDEST POP PUSH1 0x0 SWAP1 POP JUMPDEST SWAP2 SWAP1 POP JUMP JUMPDEST PUSH1 0x0 PUSH1 0x40 MLOAD SWAP1 POP SWAP1 JUMP JUMPDEST PUSH1 0x0 DUP1 REVERT JUMPDEST PUSH1 0x0 DUP1 REVERT JUMPDEST PUSH1 0x0 DUP2 SWAP1 POP SWAP2 SWAP1 POP JUMP JUMPDEST PUSH2 0x909 DUP2 PUSH2 0x8F6 JUMP JUMPDEST DUP2 EQ PUSH2 0x914 JUMPI PUSH1 0x0 DUP1 REVERT JUMPDEST POP JUMP JUMPDEST PUSH1 0x0 DUP2 CALLDATALOAD SWAP1 POP PUSH2 0x926 DUP2 PUSH2 0x900 JUMP JUMPDEST SWAP3 SWAP2 POP POP JUMP JUMPDEST PUSH1 0x0 PUSH1 0x20 DUP3 DUP5 SUB SLT ISZERO PUSH2 0x942 JUMPI PUSH2 0x941 PUSH2 0x8EC JUMP JUMPDEST JUMPDEST PUSH1 0x0 PUSH2 0x950 DUP5 DUP3 DUP6 ADD PUSH2 0x917 JUMP JUMPDEST SWAP2 POP POP SWAP3 SWAP2 POP POP JUMP JUMPDEST PUSH1 0x0 PUSH20 0xFFFFFFFFFFFFFFFFFFFFFFFFFFFFFFFFFFFFFFFF DUP3 AND SWAP1 POP SWAP2 SWAP1 POP JUMP JUMPDEST PUSH1 0x0 PUSH2 0x984 DUP3 PUSH2 0x959 JUMP JUMPDEST SWAP1 POP SWAP2 SWAP1 POP JUMP JUMPDEST PUSH2 0x994 DUP2 PUSH2 0x979 JUMP JUMPDEST DUP3 MSTORE POP POP JUMP JUMPDEST PUSH1 0x0 PUSH1 0x20 DUP3 ADD SWAP1 POP PUSH2 0x9AF PUSH1 0x0 DUP4 ADD DUP5 PUSH2 0x98B JUMP JUMPDEST SWAP3 SWAP2 POP POP JUMP JUMPDEST PUSH2 0x9BE DUP2 PUSH2 0x979 JUMP JUMPDEST DUP2 EQ PUSH2 0x9C9 JUMPI PUSH1 0x0 DUP1 REVERT JUMPDEST POP JUMP JUMPDEST PUSH1 0x0 DUP2 CALLDATALOAD SWAP1 POP PUSH2 0x9DB DUP2 PUSH2 0x9B5 JUMP JUMPDEST SWAP3 SWAP2 POP POP JUMP JUMPDEST PUSH1 0x0 DUP1 PUSH1 0x40 DUP4 DUP6 SUB SLT ISZERO PUSH2 0x9F8 JUMPI PUSH2 0x9F7 PUSH2 0x8EC JUMP JUMPDEST JUMPDEST PUSH1 0x0 PUSH2 0xA06 DUP6 DUP3 DUP7 ADD PUSH2 0x917 JUMP JUMPDEST SWAP3 POP POP PUSH1 0x20 PUSH2 0xA17 DUP6 DUP3 DUP7 ADD PUSH2 0x9CC JUMP JUMPDEST SWAP2 POP POP SWAP3 POP SWAP3 SWAP1 POP JUMP JUMPDEST PUSH1 0x0 DUP2 ISZERO ISZERO SWAP1 POP SWAP2 SWAP1 POP JUMP JUMPDEST PUSH2 0xA36 DUP2 PUSH2 0xA21 JUMP JUMPDEST DUP3 MSTORE POP POP JUMP JUMPDEST PUSH1 0x0 PUSH1 0x20 DUP3 ADD SWAP1 POP PUSH2 0xA51 PUSH1 0x0 DUP4 ADD DUP5 PUSH2 0xA2D JUMP JUMPDEST SWAP3 SWAP2 POP POP JUMP JUMPDEST PUSH1 0x0 PUSH2 0xA62 DUP3 PUSH2 0x959 JUMP JUMPDEST SWAP1 POP SWAP2 SWAP1 POP JUMP JUMPDEST PUSH2 0xA72 DUP2 PUSH2 0xA57 JUMP JUMPDEST DUP3 MSTORE POP POP JUMP JUMPDEST PUSH2 0xA81 DUP2 PUSH2 0x8F6 JUMP JUMPDEST DUP3 MSTORE POP POP JUMP JUMPDEST PUSH1 0x0 DUP2 MLOAD SWAP1 POP SWAP2 SWAP1 POP JUMP JUMPDEST PUSH1 0x0 DUP3 DUP3 MSTORE PUSH1 0x20 DUP3 ADD SWAP1 POP SWAP3 SWAP2 POP POP JUMP JUMPDEST PUSH1 0x0 JUMPDEST DUP4 DUP2 LT ISZERO PUSH2 0xAC1 JUMPI DUP1 DUP3 ADD MLOAD DUP2 DUP5 ADD MSTORE PUSH1 0x20 DUP2 ADD SWAP1 POP PUSH2 0xAA6 JUMP JUMPDEST PUSH1 0x0 DUP5 DUP5 ADD MSTORE POP POP POP POP JUMP JUMPDEST PUSH1 0x0 PUSH1 0x1F NOT PUSH1 0x1F DUP4 ADD AND SWAP1 POP SWAP2 SWAP1 POP JUMP JUMPDEST PUSH1 0x0 PUSH2 0xAE9 DUP3 PUSH2 0xA87 JUMP JUMPDEST PUSH2 0xAF3 DUP2 DUP6 PUSH2 0xA92 JUMP JUMPDEST SWAP4 POP PUSH2 0xB03 DUP2 DUP6 PUSH1 0x20 DUP7 ADD PUSH2 0xAA3 JUMP JUMPDEST PUSH2 0xB0C DUP2 PUSH2 0xACD JUMP JUMPDEST DUP5 ADD SWAP2 POP POP SWAP3 SWAP2 POP POP JUMP JUMPDEST PUSH1 0x0 PUSH1 0x80 DUP3 ADD SWAP1 POP PUSH2 0xB2C PUSH1 0x0 DUP4 ADD DUP8 PUSH2 0xA69 JUMP JUMPDEST PUSH2 0xB39 PUSH1 0x20 DUP4 ADD DUP7 PUSH2 0xA78 JUMP JUMPDEST PUSH2 0xB46 PUSH1 0x40 DUP4 ADD DUP6 PUSH2 0xA2D JUMP JUMPDEST DUP2 DUP2 SUB PUSH1 0x60 DUP4 ADD MSTORE PUSH2 0xB58 DUP2 DUP5 PUSH2 0xADE JUMP JUMPDEST SWAP1 POP SWAP6 SWAP5 POP POP POP POP POP JUMP JUMPDEST PUSH1 0x0 PUSH1 0x20 DUP3 ADD SWAP1 POP PUSH2 0xB78 PUSH1 0x0 DUP4 ADD DUP5 PUSH2 0xA78 JUMP JUMPDEST SWAP3 SWAP2 POP POP JUMP JUMPDEST PUSH2 0xB87 DUP2 PUSH2 0xA57 JUMP JUMPDEST DUP2 EQ PUSH2 0xB92 JUMPI PUSH1 0x0 DUP1 REVERT JUMPDEST POP JUMP JUMPDEST PUSH1 0x0 DUP2 CALLDATALOAD SWAP1 POP PUSH2 0xBA4 DUP2 PUSH2 0xB7E JUMP JUMPDEST SWAP3 SWAP2 POP POP JUMP JUMPDEST PUSH1 0x0 DUP1 REVERT JUMPDEST PUSH1 0x0 DUP1 REVERT JUMPDEST PUSH32 0x4E487B7100000000000000000000000000000000000000000000000000000000 PUSH1 0x0 MSTORE PUSH1 0x41 PUSH1 0x4 MSTORE PUSH1 0x24 PUSH1 0x0 REVERT JUMPDEST PUSH2 0xBEC DUP3 PUSH2 0xACD JUMP JUMPDEST DUP2 ADD DUP2 DUP2 LT PUSH8 0xFFFFFFFFFFFFFFFF DUP3 GT OR ISZERO PUSH2 0xC0B JUMPI PUSH2 0xC0A PUSH2 0xBB4 JUMP JUMPDEST JUMPDEST DUP1 PUSH1 0x40 MSTORE POP POP POP JUMP JUMPDEST PUSH1 0x0 PUSH2 0xC1E PUSH2 0x8E2 JUMP JUMPDEST SWAP1 POP PUSH2 0xC2A DUP3 DUP3 PUSH2 0xBE3 JUMP JUMPDEST SWAP2 SWAP1 POP JUMP JUMPDEST PUSH1 0x0 PUSH8 0xFFFFFFFFFFFFFFFF DUP3 GT ISZERO PUSH2 0xC4A JUMPI PUSH2 0xC49 PUSH2 0xBB4 JUMP JUMPDEST JUMPDEST PUSH2 0xC53 DUP3 PUSH2 0xACD JUMP JUMPDEST SWAP1 POP PUSH1 0x20 DUP2 ADD SWAP1 POP SWAP2 SWAP1 POP JUMP JUMPDEST DUP3 DUP2 DUP4 CALLDATACOPY PUSH1 0x0 DUP4 DUP4 ADD MSTORE POP POP POP JUMP JUMPDEST PUSH1 0x0 PUSH2 0xC82 PUSH2 0xC7D DUP5 PUSH2 0xC2F JUMP JUMPDEST PUSH2 0xC14 JUMP JUMPDEST SWAP1 POP DUP3 DUP2 MSTORE PUSH1 0x20 DUP2 ADD DUP5 DUP5 DUP5 ADD GT ISZERO PUSH2 0xC9E JUMPI PUSH2 0xC9D PUSH2 0xBAF JUMP JUMPDEST JUMPDEST PUSH2 0xCA9 DUP5 DUP3 DUP6 PUSH2 0xC60 JUMP JUMPDEST POP SWAP4 SWAP3 POP POP POP JUMP JUMPDEST PUSH1 0x0 DUP3 PUSH1 0x1F DUP4 ADD SLT PUSH2 0xCC6 JUMPI PUSH2 0xCC5 PUSH2 0xBAA JUMP JUMPDEST JUMPDEST DUP2 CALLDATALOAD PUSH2 0xCD6 DUP5 DUP3 PUSH1 0x20 DUP7 ADD PUSH2 0xC6F JUMP JUMPDEST SWAP2 POP POP SWAP3 SWAP2 POP POP JUMP JUMPDEST PUSH1 0x0 DUP1 PUSH1 0x0 PUSH1 0x60 DUP5 DUP7 SUB SLT ISZERO PUSH2 0xCF8 JUMPI PUSH2 0xCF7 PUSH2 0x8EC JUMP JUMPDEST JUMPDEST PUSH1 0x0 PUSH2 0xD06 DUP7 DUP3 DUP8 ADD PUSH2 0xB95 JUMP JUMPDEST SWAP4 POP POP PUSH1 0x20 PUSH2 0xD17 DUP7 DUP3 DUP8 ADD PUSH2 0x917 JUMP JUMPDEST SWAP3 POP POP PUSH1 0x40 DUP5 ADD CALLDATALOAD PUSH8 0xFFFFFFFFFFFFFFFF DUP2 GT ISZERO PUSH2 0xD38 JUMPI PUSH2 0xD37 PUSH2 0x8F1 JUMP JUMPDEST JUMPDEST PUSH2 0xD44 DUP7 DUP3 DUP8 ADD PUSH2 0xCB1 JUMP JUMPDEST SWAP2 POP POP SWAP3 POP SWAP3 POP SWAP3 JUMP JUMPDEST PUSH32 0x4E487B7100000000000000000000000000000000000000000000000000000000 PUSH1 0x0 MSTORE PUSH1 0x22 PUSH1 0x4 MSTORE PUSH1 0x24 PUSH1 0x0 REVERT JUMPDEST PUSH1 0x0 PUSH1 0x2 DUP3 DIV SWAP1 POP PUSH1 0x1 DUP3 AND DUP1 PUSH2 0xD95 JUMPI PUSH1 0x7F DUP3 AND SWAP2 POP JUMPDEST PUSH1 0x20 DUP3 LT DUP2 SUB PUSH2 0xDA8 JUMPI PUSH2 0xDA7 PUSH2 0xD4E JUMP JUMPDEST JUMPDEST POP SWAP2 SWAP1 POP JUMP JUMPDEST PUSH32 0x4E487B7100000000000000000000000000000000000000000000000000000000 PUSH1 0x0 MSTORE PUSH1 0x32 PUSH1 0x4 MSTORE PUSH1 0x24 PUSH1 0x0 REVERT JUMPDEST PUSH32 0x4E487B7100000000000000000000000000000000000000000000000000000000 PUSH1 0x0 MSTORE PUSH1 0x11 PUSH1 0x4 MSTORE PUSH1 0x24 PUSH1 0x0 REVERT JUMPDEST PUSH1 0x0 PUSH2 0xE17 DUP3 PUSH2 0x8F6 JUMP JUMPDEST SWAP2 POP PUSH32 0xFFFFFFFFFFFFFFFFFFFFFFFFFFFFFFFFFFFFFFFFFFFFFFFFFFFFFFFFFFFFFFFF DUP3 SUB PUSH2 0xE49 JUMPI PUSH2 0xE48 PUSH2 0xDDD JUMP JUMPDEST JUMPDEST PUSH1 0x1 DUP3 ADD SWAP1 POP SWAP2 SWAP1 POP JUMP JUMPDEST PUSH1 0x0 DUP2 SWAP1 POP DUP2 PUSH1 0x0 MSTORE PUSH1 0x20 PUSH1 0x0 KECCAK256 SWAP1 POP SWAP2 SWAP1 POP JUMP JUMPDEST PUSH1 0x0 PUSH1 0x20 PUSH1 0x1F DUP4 ADD DIV SWAP1 POP SWAP2 SWAP1 POP JUMP JUMPDEST PUSH1 0x0 DUP3 DUP3 SHL SWAP1 POP SWAP3 SWAP2 POP POP JUMP JUMPDEST PUSH1 0x0 PUSH1 0x8 DUP4 MUL PUSH2 0xEB6 PUSH32 0xFFFFFFFFFFFFFFFFFFFFFFFFFFFFFFFFFFFFFFFFFFFFFFFFFFFFFFFFFFFFFFFF DUP3 PUSH2 0xE79 JUMP JUMPDEST PUSH2 0xEC0 DUP7 DUP4 PUSH2 0xE79 JUMP JUMPDEST SWAP6 POP DUP1 NOT DUP5 AND SWAP4 POP DUP1 DUP7 AND DUP5 OR SWAP3 POP POP POP SWAP4 SWAP3 POP POP POP JUMP JUMPDEST PUSH1 0x0 DUP2 SWAP1 POP SWAP2 SWAP1 POP JUMP JUMPDEST PUSH1 0x0 PUSH2 0xEFD PUSH2 0xEF8 PUSH2 0xEF3 DUP5 PUSH2 0x8F6 JUMP JUMPDEST PUSH2 0xED8 JUMP JUMPDEST PUSH2 0x8F6 JUMP JUMPDEST SWAP1 POP SWAP2 SWAP1 POP JUMP JUMPDEST PUSH1 0x0 DUP2 SWAP1 POP SWAP2 SWAP1 POP JUMP JUMPDEST PUSH2 0xF17 DUP4 PUSH2 0xEE2 JUMP JUMPDEST PUSH2 0xF2B PUSH2 0xF23 DUP3 PUSH2 0xF04 JUMP JUMPDEST DUP5 DUP5 SLOAD PUSH2 0xE86 JUMP JUMPDEST DUP3 SSTORE POP POP POP POP JUMP JUMPDEST PUSH1 0x0 SWAP1 JUMP JUMPDEST PUSH2 0xF40 PUSH2 0xF33 JUMP JUMPDEST PUSH2 0xF4B DUP2 DUP5 DUP5 PUSH2 0xF0E JUMP JUMPDEST POP POP POP JUMP JUMPDEST JUMPDEST DUP2 DUP2 LT ISZERO PUSH2 0xF6F JUMPI PUSH2 0xF64 PUSH1 0x0 DUP3 PUSH2 0xF38 JUMP JUMPDEST PUSH1 0x1 DUP2 ADD SWAP1 POP PUSH2 0xF51 JUMP JUMPDEST POP POP JUMP JUMPDEST PUSH1 0x1F DUP3 GT ISZERO PUSH2 0xFB4 JUMPI PUSH2 0xF85 DUP2 PUSH2 0xE54 JUMP JUMPDEST PUSH2 0xF8E DUP5 PUSH2 0xE69 JUMP JUMPDEST DUP2 ADD PUSH1 0x20 DUP6 LT ISZERO PUSH2 0xF9D JUMPI DUP2 SWAP1 POP JUMPDEST PUSH2 0xFB1 PUSH2 0xFA9 DUP6 PUSH2 0xE69 JUMP JUMPDEST DUP4 ADD DUP3 PUSH2 0xF50 JUMP JUMPDEST POP POP JUMPDEST POP POP POP JUMP JUMPDEST PUSH1 0x0 DUP3 DUP3 SHR SWAP1 POP SWAP3 SWAP2 POP POP JUMP JUMPDEST PUSH1 0x0 PUSH2 0xFD7 PUSH1 0x0 NOT DUP5 PUSH1 0x8 MUL PUSH2 0xFB9 JUMP JUMPDEST NOT DUP1 DUP4 AND SWAP2 POP POP SWAP3 SWAP2 POP POP JUMP JUMPDEST PUSH1 0x0 PUSH2 0xFF0 DUP4 DUP4 PUSH2 0xFC6 JUMP JUMPDEST SWAP2 POP DUP3 PUSH1 0x2 MUL DUP3 OR SWAP1 POP SWAP3 SWAP2 POP POP JUMP JUMPDEST PUSH2 0x1009 DUP3 PUSH2 0xA87 JUMP JUMPDEST PUSH8 0xFFFFFFFFFFFFFFFF DUP2 GT ISZERO PUSH2 0x1022 JUMPI PUSH2 0x1021 PUSH2 0xBB4 JUMP JUMPDEST JUMPDEST PUSH2 0x102C DUP3 SLOAD PUSH2 0xD7D JUMP JUMPDEST PUSH2 0x1037 DUP3 DUP3 DUP6 PUSH2 0xF73 JUMP JUMPDEST PUSH1 0x0 PUSH1 0x20 SWAP1 POP PUSH1 0x1F DUP4 GT PUSH1 0x1 DUP2 EQ PUSH2 0x106A JUMPI PUSH1 0x0 DUP5 ISZERO PUSH2 0x1058 JUMPI DUP3 DUP8 ADD MLOAD SWAP1 POP JUMPDEST PUSH2 0x1062 DUP6 DUP3 PUSH2 0xFE4 JUMP JUMPDEST DUP7 SSTORE POP PUSH2 0x10CA JUMP JUMPDEST PUSH1 0x1F NOT DUP5 AND PUSH2 0x1078 DUP7 PUSH2 0xE54 JUMP JUMPDEST PUSH1 0x0 JUMPDEST DUP3 DUP2 LT ISZERO PUSH2 0x10A0 JUMPI DUP5 DUP10 ADD MLOAD DUP3 SSTORE PUSH1 0x1 DUP3 ADD SWAP2 POP PUSH1 0x20 DUP6 ADD SWAP5 POP PUSH1 0x20 DUP2 ADD SWAP1 POP PUSH2 0x107B JUMP JUMPDEST DUP7 DUP4 LT ISZERO PUSH2 0x10BD JUMPI DUP5 DUP10 ADD MLOAD PUSH2 0x10B9 PUSH1 0x1F DUP10 AND DUP3 PUSH2 0xFC6 JUMP JUMPDEST DUP4 SSTORE POP JUMPDEST PUSH1 0x1 PUSH1 0x2 DUP9 MUL ADD DUP9 SSTORE POP POP POP JUMPDEST POP POP POP POP POP POP JUMP JUMPDEST PUSH1 0x0 PUSH2 0x10DD DUP3 PUSH2 0x8F6 JUMP JUMPDEST SWAP2 POP PUSH2 0x10E8 DUP4 PUSH2 0x8F6 JUMP JUMPDEST SWAP3 POP DUP3 DUP3 ADD SWAP1 POP DUP1 DUP3 GT ISZERO PUSH2 0x1100 JUMPI PUSH2 0x10FF PUSH2 0xDDD JUMP JUMPDEST JUMPDEST SWAP3 SWAP2 POP POP JUMP JUMPDEST PUSH1 0x0 PUSH2 0x1111 DUP3 PUSH2 0x8F6 JUMP JUMPDEST SWAP2 POP PUSH2 0x111C DUP4 PUSH2 0x8F6 JUMP JUMPDEST SWAP3 POP DUP3 DUP3 SUB SWAP1 POP DUP2 DUP2 GT ISZERO PUSH2 0x1134 JUMPI PUSH2 0x1133 PUSH2 0xDDD JUMP JUMPDEST JUMPDEST SWAP3 SWAP2 POP POP JUMP JUMPDEST PUSH1 0x0 DUP2 SWAP1 POP SWAP3 SWAP2 POP POP JUMP JUMPDEST PUSH1 0x0 DUP2 SLOAD PUSH2 0x1152 DUP2 PUSH2 0xD7D JUMP JUMPDEST PUSH2 0x115C DUP2 DUP7 PUSH2 0x113A JUMP JUMPDEST SWAP5 POP PUSH1 0x1 DUP3 AND PUSH1 0x0 DUP2 EQ PUSH2 0x1177 JUMPI PUSH1 0x1 DUP2 EQ PUSH2 0x118C JUMPI PUSH2 0x11BF JUMP JUMPDEST PUSH1 0xFF NOT DUP4 AND DUP7 MSTORE DUP2 ISZERO ISZERO DUP3 MUL DUP7 ADD SWAP4 POP PUSH2 0x11BF JUMP JUMPDEST PUSH2 0x1195 DUP6 PUSH2 0xE54 JUMP JUMPDEST PUSH1 0x0 JUMPDEST DUP4 DUP2 LT ISZERO PUSH2 0x11B7 JUMPI DUP2 SLOAD DUP2 DUP10 ADD MSTORE PUSH1 0x1 DUP3 ADD SWAP2 POP PUSH1 0x20 DUP2 ADD SWAP1 POP PUSH2 0x1198 JUMP JUMPDEST DUP4 DUP9 ADD SWAP6 POP POP POP JUMPDEST POP POP POP SWAP3 SWAP2 POP POP JUMP JUMPDEST PUSH1 0x0 PUSH2 0x11D4 DUP3 DUP5 PUSH2 0x1145 JUMP JUMPDEST SWAP2 POP DUP2 SWAP1 POP SWAP3 SWAP2 POP POP JUMP JUMPDEST PUSH1 0x0 DUP3 DUP3 MSTORE PUSH1 0x20 DUP3 ADD SWAP1 POP SWAP3 SWAP2 POP POP JUMP JUMPDEST PUSH32 0x4661696C656420746F2065786563757465207472616E73616374696F6E000000 PUSH1 0x0 DUP3 ADD MSTORE POP JUMP JUMPDEST PUSH1 0x0 PUSH2 0x1226 PUSH1 0x1D DUP4 PUSH2 0x11DF JUMP JUMPDEST SWAP2 POP PUSH2 0x1231 DUP3 PUSH2 0x11F0 JUMP JUMPDEST PUSH1 0x20 DUP3 ADD SWAP1 POP SWAP2 SWAP1 POP JUMP JUMPDEST PUSH1 0x0 PUSH1 0x20 DUP3 ADD SWAP1 POP DUP2 DUP2 SUB PUSH1 0x0 DUP4 ADD MSTORE PUSH2 0x1255 DUP2 PUSH2 0x1219 JUMP JUMPDEST SWAP1 POP SWAP2 SWAP1 POP JUMP INVALID LOG2 PUSH5 0x6970667358 0x22 SLT KECCAK256 DUP5 0x28 SWAP6 BLOBBASEFEE 0xBE 0xE2 0xDA 0xBE CODESIZE PUSH29 0x4D81064721C0E10A7F5B4DA6A856443B4EB5BBD46D764736F6C634300 ADDMOD SHR STOP CALLER LOG2 PUSH5 0x6970667358 0x22 SLT KECCAK256 0xA7 0xED LOG0 0xB8 0xAD RETURN 0xD0 SLOAD 0xCE SWAP14 0xBB 0xC1 0xB7 0xE 0xB7 LOG2 PUSH2 0xCEC4 EXTCODEHASH RETURNDATASIZE 0xF8 0x2C AND PUSH14 0xDA2DA547BFAA2264736F6C634300 ADDMOD SHR STOP CALLER "
        },
        "methodIdentifiers": {
          "createMultiSig(address[],uint256)": "d46a09f1"
        }
      }
    }
  }
}