{
  "_format": "hh-sol-artifact-1",
  "contractName": "Roles",
  "sourceName": "contracts/Roles.sol",
  "abi": [
    {
      "inputs": [
        {
          "internalType": "address",
          "name": "_roleNftContract",
          "type": "address"
        }
      ],
      "stateMutability": "nonpayable",
      "type": "constructor"
    },
    {
      "anonymous": false,
      "inputs": [
        {
          "indexed": true,
          "internalType": "bytes32",
          "name": "_role",
          "type": "bytes32"
        },
        {
          "indexed": true,
          "internalType": "address",
          "name": "_tokenAddress",
          "type": "address"
        },
        {
          "indexed": true,
          "internalType": "uint256",
          "name": "_tokenId",
          "type": "uint256"
        },
        {
          "indexed": false,
          "internalType": "address",
          "name": "_grantee",
          "type": "address"
        },
        {
          "indexed": false,
          "internalType": "uint64",
          "name": "_expirationDate",
          "type": "uint64"
        },
        {
          "indexed": false,
          "internalType": "bytes",
          "name": "_data",
          "type": "bytes"
        }
      ],
      "name": "RoleGranted",
      "type": "event"
    },
    {
      "anonymous": false,
      "inputs": [
        {
          "indexed": true,
          "internalType": "bytes32",
          "name": "_role",
          "type": "bytes32"
        },
        {
          "indexed": true,
          "internalType": "address",
          "name": "_tokenAddress",
          "type": "address"
        },
        {
          "indexed": true,
          "internalType": "uint256",
          "name": "_tokenId",
          "type": "uint256"
        },
        {
          "indexed": false,
          "internalType": "address",
          "name": "_grantee",
          "type": "address"
        }
      ],
      "name": "RoleRevoked",
      "type": "event"
    },
    {
      "inputs": [
        {
          "internalType": "address",
          "name": "_userAddress",
          "type": "address"
        }
      ],
      "name": "checkRole",
      "outputs": [
        {
          "internalType": "enum IERC7432.Permissions",
          "name": "",
          "type": "uint8"
        }
      ],
      "stateMutability": "view",
      "type": "function"
    },
    {
      "inputs": [
        {
          "internalType": "bytes32",
          "name": "_role",
          "type": "bytes32"
        },
        {
          "internalType": "address",
          "name": "_tokenAddress",
          "type": "address"
        },
        {
          "internalType": "uint256",
          "name": "_tokenId",
          "type": "uint256"
        },
        {
          "internalType": "address",
          "name": "_grantee",
          "type": "address"
        },
        {
          "internalType": "uint64",
          "name": "_expirationDate",
          "type": "uint64"
        },
        {
          "internalType": "bytes",
          "name": "_data",
          "type": "bytes"
        }
      ],
      "name": "grantRole",
      "outputs": [],
      "stateMutability": "nonpayable",
      "type": "function"
    },
    {
      "inputs": [
        {
          "internalType": "bytes32",
          "name": "_role",
          "type": "bytes32"
        },
        {
          "internalType": "address",
          "name": "_tokenAddress",
          "type": "address"
        },
        {
          "internalType": "uint256",
          "name": "_tokenId",
          "type": "uint256"
        },
        {
          "internalType": "address",
          "name": "_grantor",
          "type": "address"
        },
        {
          "internalType": "address",
          "name": "_grantee",
          "type": "address"
        }
      ],
      "name": "hasRole",
      "outputs": [
        {
          "internalType": "bool",
          "name": "",
          "type": "bool"
        }
      ],
      "stateMutability": "view",
      "type": "function"
    },
    {
      "inputs": [
        {
          "internalType": "bytes32",
          "name": "_role",
          "type": "bytes32"
        },
        {
          "internalType": "address",
          "name": "_tokenAddress",
          "type": "address"
        },
        {
          "internalType": "uint256",
          "name": "_tokenId",
          "type": "uint256"
        },
        {
          "internalType": "address",
          "name": "_grantor",
          "type": "address"
        },
        {
          "internalType": "address",
          "name": "_grantee",
          "type": "address"
        }
      ],
      "name": "hasUniqueRole",
      "outputs": [
        {
          "internalType": "bool",
          "name": "",
          "type": "bool"
        }
      ],
      "stateMutability": "view",
      "type": "function"
    },
    {
      "inputs": [
        {
          "internalType": "bytes32",
          "name": "_role",
          "type": "bytes32"
        },
        {
          "internalType": "address",
          "name": "_tokenAddress",
          "type": "address"
        },
        {
          "internalType": "uint256",
          "name": "_tokenId",
          "type": "uint256"
        },
        {
          "internalType": "address",
          "name": "_grantee",
          "type": "address"
        }
      ],
      "name": "revokeRole",
      "outputs": [],
      "stateMutability": "nonpayable",
      "type": "function"
    },
    {
      "inputs": [
        {
          "internalType": "bytes32",
          "name": "_role",
          "type": "bytes32"
        },
        {
          "internalType": "address",
          "name": "_tokenAddress",
          "type": "address"
        },
        {
          "internalType": "uint256",
          "name": "_tokenId",
          "type": "uint256"
        },
        {
          "internalType": "address",
          "name": "_grantor",
          "type": "address"
        },
        {
          "internalType": "address",
          "name": "_grantee",
          "type": "address"
        }
      ],
      "name": "roleData",
      "outputs": [
        {
          "internalType": "bytes",
          "name": "",
          "type": "bytes"
        }
      ],
      "stateMutability": "view",
      "type": "function"
    },
    {
      "inputs": [
        {
          "internalType": "bytes32",
          "name": "_role",
          "type": "bytes32"
        },
        {
          "internalType": "address",
          "name": "_tokenAddress",
          "type": "address"
        },
        {
          "internalType": "uint256",
          "name": "_tokenId",
          "type": "uint256"
        },
        {
          "internalType": "address",
          "name": "_grantor",
          "type": "address"
        },
        {
          "internalType": "address",
          "name": "_grantee",
          "type": "address"
        }
      ],
      "name": "roleExpirationDate",
      "outputs": [
        {
          "internalType": "uint64",
          "name": "",
          "type": "uint64"
        }
      ],
      "stateMutability": "view",
      "type": "function"
    },
    {
      "inputs": [],
      "name": "roleNftContract",
      "outputs": [
        {
          "internalType": "address",
          "name": "",
          "type": "address"
        }
      ],
      "stateMutability": "view",
      "type": "function"
    },
    {
      "inputs": [
        {
          "internalType": "bytes4",
          "name": "interfaceId",
          "type": "bytes4"
        }
      ],
      "name": "supportsInterface",
      "outputs": [
        {
          "internalType": "bool",
          "name": "",
          "type": "bool"
        }
      ],
      "stateMutability": "pure",
      "type": "function"
    }
  ],
  "bytecode": "0x60a060405234801561001057600080fd5b50604051611c5e380380611c5e833981810160405281019061003291906100cf565b8073ffffffffffffffffffffffffffffffffffffffff1660808173ffffffffffffffffffffffffffffffffffffffff1681525050506100fc565b600080fd5b600073ffffffffffffffffffffffffffffffffffffffff82169050919050565b600061009c82610071565b9050919050565b6100ac81610091565b81146100b757600080fd5b50565b6000815190506100c9816100a3565b92915050565b6000602082840312156100e5576100e461006c565b5b60006100f3848285016100ba565b91505092915050565b608051611b2461013a600039600081816105e301528181610a1201528181610ac501528181610b7901528181610c2d0152610cd20152611b246000f3fe608060405234801561001057600080fd5b50600436106100935760003560e01c806351fe12971161006657806351fe12971461015857806353f8a7ce14610174578063880578b7146101a4578063a0d7823e146101c2578063ea964d69146101f257610093565b806301ffc9a7146100985780630f1df007146100c8578063177cc00a146100f85780631e3337c614610128575b600080fd5b6100b260048036038101906100ad919061102d565b61020e565b6040516100bf9190611075565b60405180910390f35b6100e260048036038101906100dd919061115a565b6102e0565b6040516100ef91906111f8565b60405180910390f35b610112600480360381019061010d919061115a565b6103df565b60405161011f9190611075565b60405180910390f35b610142600480360381019061013d919061115a565b61046e565b60405161014f91906112a3565b60405180910390f35b610172600480360381019061016d9190611356565b6105e1565b005b61018e6004803603810190610189919061115a565b610905565b60405161019b9190611075565b60405180910390f35b6101ac610a10565b6040516101b99190611414565b60405180910390f35b6101dc60048036038101906101d7919061142f565b610a34565b6040516101e991906114d3565b60405180910390f35b61020c600480360381019061020791906114ee565b610cd0565b005b60007f4e157dc5000000000000000000000000000000000000000000000000000000007bffffffffffffffffffffffffffffffffffffffffffffffffffffffff1916827bffffffffffffffffffffffffffffffffffffffffffffffffffffffff191614806102d957507f01ffc9a7000000000000000000000000000000000000000000000000000000007bffffffffffffffffffffffffffffffffffffffffffffffffffffffff1916827bffffffffffffffffffffffffffffffffffffffffffffffffffffffff1916145b9050919050565b600080600087815260200190815260200160002060008673ffffffffffffffffffffffffffffffffffffffff1673ffffffffffffffffffffffffffffffffffffffff168152602001908152602001600020600085815260200190815260200160002060008473ffffffffffffffffffffffffffffffffffffffff1673ffffffffffffffffffffffffffffffffffffffff16815260200190815260200160002060008373ffffffffffffffffffffffffffffffffffffffff1673ffffffffffffffffffffffffffffffffffffffff16815260200190815260200160002060000160009054906101000a900467ffffffffffffffff16905095945050505050565b60003073ffffffffffffffffffffffffffffffffffffffff166353f8a7ce87878787876040518663ffffffff1660e01b8152600401610422959493929190611573565b602060405180830381865afa15801561043f573d6000803e3d6000fd5b505050506040513d601f19601f8201168201806040525081019061046391906115f2565b905095945050505050565b606060008087815260200190815260200160002060008673ffffffffffffffffffffffffffffffffffffffff1673ffffffffffffffffffffffffffffffffffffffff168152602001908152602001600020600085815260200190815260200160002060008473ffffffffffffffffffffffffffffffffffffffff1673ffffffffffffffffffffffffffffffffffffffff16815260200190815260200160002060008373ffffffffffffffffffffffffffffffffffffffff1673ffffffffffffffffffffffffffffffffffffffff16815260200190815260200160002060010180546105589061164e565b80601f01602080910402602001604051908101604052809291908181526020018280546105849061164e565b80156105d15780601f106105a6576101008083540402835291602001916105d1565b820191906000526020600020905b8154815290600101906020018083116105b457829003601f168201915b5050505050905095945050505050565b7f000000000000000000000000000000000000000000000000000000000000000073ffffffffffffffffffffffffffffffffffffffff168673ffffffffffffffffffffffffffffffffffffffff161415806106e157508573ffffffffffffffffffffffffffffffffffffffff16636352211e866040518263ffffffff1660e01b8152600401610670919061167f565b602060405180830381865afa15801561068d573d6000803e3d6000fd5b505050506040513d601f19601f820116820180604052508101906106b191906116af565b73ffffffffffffffffffffffffffffffffffffffff163373ffffffffffffffffffffffffffffffffffffffff1614155b15610721576040517f08c379a000000000000000000000000000000000000000000000000000000000815260040161071890611739565b60405180910390fd5b60405180604001604052808467ffffffffffffffff16815260200183838080601f016020809104026020016040519081016040528093929190818152602001838380828437600081840152601f19601f8201169050808301925050505050505081525060008089815260200190815260200160002060008873ffffffffffffffffffffffffffffffffffffffff1673ffffffffffffffffffffffffffffffffffffffff168152602001908152602001600020600087815260200190815260200160002060003373ffffffffffffffffffffffffffffffffffffffff1673ffffffffffffffffffffffffffffffffffffffff16815260200190815260200160002060008673ffffffffffffffffffffffffffffffffffffffff1673ffffffffffffffffffffffffffffffffffffffff16815260200190815260200160002060008201518160000160006101000a81548167ffffffffffffffff021916908367ffffffffffffffff16021790555060208201518160010190816108a29190611934565b50905050848673ffffffffffffffffffffffffffffffffffffffff16887ffb395811eb1d9dc0da2c1809c293c669533bc1c467942dee678223721ddd6e80878787876040516108f49493929190611a42565b60405180910390a450505050505050565b60004260008088815260200190815260200160002060008773ffffffffffffffffffffffffffffffffffffffff1673ffffffffffffffffffffffffffffffffffffffff168152602001908152602001600020600086815260200190815260200160002060008573ffffffffffffffffffffffffffffffffffffffff1673ffffffffffffffffffffffffffffffffffffffff16815260200190815260200160002060008473ffffffffffffffffffffffffffffffffffffffff1673ffffffffffffffffffffffffffffffffffffffff16815260200190815260200160002060000160009054906101000a900467ffffffffffffffff1667ffffffffffffffff1611905095945050505050565b7f000000000000000000000000000000000000000000000000000000000000000081565b6000807f15283fd96aa656c9df35ac2fcb112678a5f24f1ca97e591a97d1d16003dbfc9c905060007fc4338366b9cfc07901c46677a3a32746bd05d5c114e4d0d293c468cff87acde0905060007f0712e7cae8405b4d1e0143b101066c79bd01af0815d2d63b99787ff2f3174a3d905060003073ffffffffffffffffffffffffffffffffffffffff166353f8a7ce837f0000000000000000000000000000000000000000000000000000000000000000848a8b6040518663ffffffff1660e01b8152600401610b07959493929190611573565b602060405180830381865afa158015610b24573d6000803e3d6000fd5b505050506040513d601f19601f82011682018060405250810190610b4891906115f2565b15610b5a576003945050505050610ccb565b3073ffffffffffffffffffffffffffffffffffffffff166353f8a7ce847f0000000000000000000000000000000000000000000000000000000000000000848a8b6040518663ffffffff1660e01b8152600401610bbb959493929190611573565b602060405180830381865afa158015610bd8573d6000803e3d6000fd5b505050506040513d601f19601f82011682018060405250810190610bfc91906115f2565b15610c0e576002945050505050610ccb565b3073ffffffffffffffffffffffffffffffffffffffff166353f8a7ce857f0000000000000000000000000000000000000000000000000000000000000000848a8b6040518663ffffffff1660e01b8152600401610c6f959493929190611573565b602060405180830381865afa158015610c8c573d6000803e3d6000fd5b505050506040513d601f19601f82011682018060405250810190610cb091906115f2565b15610cc2576001945050505050610ccb565b60009450505050505b919050565b7f000000000000000000000000000000000000000000000000000000000000000073ffffffffffffffffffffffffffffffffffffffff168373ffffffffffffffffffffffffffffffffffffffff16141580610dd057508273ffffffffffffffffffffffffffffffffffffffff16636352211e836040518263ffffffff1660e01b8152600401610d5f919061167f565b602060405180830381865afa158015610d7c573d6000803e3d6000fd5b505050506040513d601f19601f82011682018060405250810190610da091906116af565b73ffffffffffffffffffffffffffffffffffffffff163373ffffffffffffffffffffffffffffffffffffffff1614155b15610e10576040517f08c379a0000000000000000000000000000000000000000000000000000000008152600401610e0790611ace565b60405180910390fd5b60008085815260200190815260200160002060008473ffffffffffffffffffffffffffffffffffffffff1673ffffffffffffffffffffffffffffffffffffffff168152602001908152602001600020600083815260200190815260200160002060003373ffffffffffffffffffffffffffffffffffffffff1673ffffffffffffffffffffffffffffffffffffffff16815260200190815260200160002060008273ffffffffffffffffffffffffffffffffffffffff1673ffffffffffffffffffffffffffffffffffffffff168152602001908152602001600020600080820160006101000a81549067ffffffffffffffff0219169055600182016000610f169190610f6e565b5050818373ffffffffffffffffffffffffffffffffffffffff16857f5879a62074ca3b500072f4b89581095c76682211b05e71c5d1d1a2f65abc6a7f84604051610f609190611414565b60405180910390a450505050565b508054610f7a9061164e565b6000825580601f10610f8c5750610fab565b601f016020900490600052602060002090810190610faa9190610fae565b5b50565b5b80821115610fc7576000816000905550600101610faf565b5090565b600080fd5b600080fd5b60007fffffffff0000000000000000000000000000000000000000000000000000000082169050919050565b61100a81610fd5565b811461101557600080fd5b50565b60008135905061102781611001565b92915050565b60006020828403121561104357611042610fcb565b5b600061105184828501611018565b91505092915050565b60008115159050919050565b61106f8161105a565b82525050565b600060208201905061108a6000830184611066565b92915050565b6000819050919050565b6110a381611090565b81146110ae57600080fd5b50565b6000813590506110c08161109a565b92915050565b600073ffffffffffffffffffffffffffffffffffffffff82169050919050565b60006110f1826110c6565b9050919050565b611101816110e6565b811461110c57600080fd5b50565b60008135905061111e816110f8565b92915050565b6000819050919050565b61113781611124565b811461114257600080fd5b50565b6000813590506111548161112e565b92915050565b600080600080600060a0868803121561117657611175610fcb565b5b6000611184888289016110b1565b95505060206111958882890161110f565b94505060406111a688828901611145565b93505060606111b78882890161110f565b92505060806111c88882890161110f565b9150509295509295909350565b600067ffffffffffffffff82169050919050565b6111f2816111d5565b82525050565b600060208201905061120d60008301846111e9565b92915050565b600081519050919050565b600082825260208201905092915050565b60005b8381101561124d578082015181840152602081019050611232565b60008484015250505050565b6000601f19601f8301169050919050565b600061127582611213565b61127f818561121e565b935061128f81856020860161122f565b61129881611259565b840191505092915050565b600060208201905081810360008301526112bd818461126a565b905092915050565b6112ce816111d5565b81146112d957600080fd5b50565b6000813590506112eb816112c5565b92915050565b600080fd5b600080fd5b600080fd5b60008083601f840112611316576113156112f1565b5b8235905067ffffffffffffffff811115611333576113326112f6565b5b60208301915083600182028301111561134f5761134e6112fb565b5b9250929050565b600080600080600080600060c0888a03121561137557611374610fcb565b5b60006113838a828b016110b1565b97505060206113948a828b0161110f565b96505060406113a58a828b01611145565b95505060606113b68a828b0161110f565b94505060806113c78a828b016112dc565b93505060a088013567ffffffffffffffff8111156113e8576113e7610fd0565b5b6113f48a828b01611300565b925092505092959891949750929550565b61140e816110e6565b82525050565b60006020820190506114296000830184611405565b92915050565b60006020828403121561144557611444610fcb565b5b60006114538482850161110f565b91505092915050565b7f4e487b7100000000000000000000000000000000000000000000000000000000600052602160045260246000fd5b6004811061149c5761149b61145c565b5b50565b60008190506114ad8261148b565b919050565b60006114bd8261149f565b9050919050565b6114cd816114b2565b82525050565b60006020820190506114e860008301846114c4565b92915050565b6000806000806080858703121561150857611507610fcb565b5b6000611516878288016110b1565b94505060206115278782880161110f565b935050604061153887828801611145565b92505060606115498782880161110f565b91505092959194509250565b61155e81611090565b82525050565b61156d81611124565b82525050565b600060a0820190506115886000830188611555565b6115956020830187611405565b6115a26040830186611564565b6115af6060830185611405565b6115bc6080830184611405565b9695505050505050565b6115cf8161105a565b81146115da57600080fd5b50565b6000815190506115ec816115c6565b92915050565b60006020828403121561160857611607610fcb565b5b6000611616848285016115dd565b91505092915050565b7f4e487b7100000000000000000000000000000000000000000000000000000000600052602260045260246000fd5b6000600282049050600182168061166657607f821691505b6020821081036116795761167861161f565b5b50919050565b60006020820190506116946000830184611564565b92915050565b6000815190506116a9816110f8565b92915050565b6000602082840312156116c5576116c4610fcb565b5b60006116d38482850161169a565b91505092915050565b600082825260208201905092915050565b7f4f6e6c79204e4654206f776e65722063616e206772616e7420726f6c65000000600082015250565b6000611723601d836116dc565b915061172e826116ed565b602082019050919050565b6000602082019050818103600083015261175281611716565b9050919050565b7f4e487b7100000000000000000000000000000000000000000000000000000000600052604160045260246000fd5b60008190508160005260206000209050919050565b60006020601f8301049050919050565b600082821b905092915050565b6000600883026117ea7fffffffffffffffffffffffffffffffffffffffffffffffffffffffffffffffff826117ad565b6117f486836117ad565b95508019841693508086168417925050509392505050565b6000819050919050565b600061183161182c61182784611124565b61180c565b611124565b9050919050565b6000819050919050565b61184b83611816565b61185f61185782611838565b8484546117ba565b825550505050565b600090565b611874611867565b61187f818484611842565b505050565b5b818110156118a35761189860008261186c565b600181019050611885565b5050565b601f8211156118e8576118b981611788565b6118c28461179d565b810160208510156118d1578190505b6118e56118dd8561179d565b830182611884565b50505b505050565b600082821c905092915050565b600061190b600019846008026118ed565b1980831691505092915050565b600061192483836118fa565b9150826002028217905092915050565b61193d82611213565b67ffffffffffffffff81111561195657611955611759565b5b611960825461164e565b61196b8282856118a7565b600060209050601f83116001811461199e576000841561198c578287015190505b6119968582611918565b8655506119fe565b601f1984166119ac86611788565b60005b828110156119d4578489015182556001820191506020850194506020810190506119af565b868310156119f157848901516119ed601f8916826118fa565b8355505b6001600288020188555050505b505050505050565b82818337600083830152505050565b6000611a21838561121e565b9350611a2e838584611a06565b611a3783611259565b840190509392505050565b6000606082019050611a576000830187611405565b611a6460208301866111e9565b8181036040830152611a77818486611a15565b905095945050505050565b7f4f6e6c79204e4654206f776e65722063616e207265766f6b6520726f6c650000600082015250565b6000611ab8601e836116dc565b9150611ac382611a82565b602082019050919050565b60006020820190508181036000830152611ae781611aab565b905091905056fea2646970667358221220511552fe83cf716fcbba1f6cb2dc8c26e81fcc43f644d0f9ee800f40d48a68c164736f6c634300081a0033",
  "linkReferences": {},
  "deployedLinkReferences": {}
}