{
  "_format": "hh-sol-artifact-1",
  "contractName": "SchoolManagementSystem",
  "sourceName": "contracts/SchoolManagementSystem.sol",
  "abi": [
    {
      "inputs": [
        {
          "internalType": "uint256",
          "name": "_index",
          "type": "uint256"
        }
      ],
      "name": "delete_student",
      "outputs": [],
      "stateMutability": "nonpayable",
      "type": "function"
    },
    {
      "inputs": [],
      "name": "get_all_students",
      "outputs": [
        {
          "components": [
            {
              "internalType": "uint256",
              "name": "id",
              "type": "uint256"
            },
            {
              "internalType": "string",
              "name": "name",
              "type": "string"
            },
            {
              "internalType": "uint256",
              "name": "age",
              "type": "uint256"
            },
            {
              "internalType": "enum SchoolManagementSystem.Status",
              "name": "status",
              "type": "uint8"
            }
          ],
          "internalType": "struct SchoolManagementSystem.Student[]",
          "name": "",
          "type": "tuple[]"
        }
      ],
      "stateMutability": "view",
      "type": "function"
    },
    {
      "inputs": [
        {
          "internalType": "uint256",
          "name": "_index",
          "type": "uint256"
        }
      ],
      "name": "get_student",
      "outputs": [
        {
          "components": [
            {
              "internalType": "uint256",
              "name": "id",
              "type": "uint256"
            },
            {
              "internalType": "string",
              "name": "name",
              "type": "string"
            },
            {
              "internalType": "uint256",
              "name": "age",
              "type": "uint256"
            },
            {
              "internalType": "enum SchoolManagementSystem.Status",
              "name": "status",
              "type": "uint8"
            }
          ],
          "internalType": "struct SchoolManagementSystem.Student",
          "name": "",
          "type": "tuple"
        }
      ],
      "stateMutability": "view",
      "type": "function"
    },
    {
      "inputs": [],
      "name": "get_student_count",
      "outputs": [
        {
          "internalType": "uint256",
          "name": "",
          "type": "uint256"
        }
      ],
      "stateMutability": "view",
      "type": "function"
    },
    {
      "inputs": [
        {
          "internalType": "string",
          "name": "_name",
          "type": "string"
        },
        {
          "internalType": "uint256",
          "name": "_age",
          "type": "uint256"
        }
      ],
      "name": "register_student",
      "outputs": [],
      "stateMutability": "nonpayable",
      "type": "function"
    },
    {
      "inputs": [
        {
          "internalType": "address",
          "name": "",
          "type": "address"
        },
        {
          "internalType": "uint256",
          "name": "",
          "type": "uint256"
        }
      ],
      "name": "students",
      "outputs": [
        {
          "internalType": "uint256",
          "name": "id",
          "type": "uint256"
        },
        {
          "internalType": "string",
          "name": "name",
          "type": "string"
        },
        {
          "internalType": "uint256",
          "name": "age",
          "type": "uint256"
        },
        {
          "internalType": "enum SchoolManagementSystem.Status",
          "name": "status",
          "type": "uint8"
        }
      ],
      "stateMutability": "view",
      "type": "function"
    },
    {
      "inputs": [
        {
          "internalType": "uint256",
          "name": "_index",
          "type": "uint256"
        },
        {
          "internalType": "enum SchoolManagementSystem.Status",
          "name": "_new_status",
          "type": "uint8"
        }
      ],
      "name": "update_status",
      "outputs": [],
      "stateMutability": "nonpayable",
      "type": "function"
    },
    {
      "inputs": [
        {
          "internalType": "uint256",
          "name": "_index",
          "type": "uint256"
        },
        {
          "internalType": "string",
          "name": "_new_name",
          "type": "string"
        },
        {
          "internalType": "uint256",
          "name": "_new_age",
          "type": "uint256"
        }
      ],
      "name": "update_student",
      "outputs": [],
      "stateMutability": "nonpayable",
      "type": "function"
    }
  ],
  "bytecode": "0x6080604052348015600f57600080fd5b506119c88061001f6000396000f3fe608060405234801561001057600080fd5b50600436106100885760003560e01c806358b88d4b1161005b57806358b88d4b14610113578063a430227614610146578063a8deb6dc14610162578063afafb5681461018057610088565b80632d550f7a1461008d57806337357b3a146100a95780633ab9a9ec146100d95780633f09a538146100f7575b600080fd5b6100a760048036038101906100a29190610eee565b61019c565b005b6100c360048036038101906100be9190610f4a565b6102de565b6040516100d091906110df565b60405180910390f35b6100e16104ba565b6040516100ee9190611226565b60405180910390f35b610111600480360381019061010c9190610f4a565b610636565b005b61012d600480360381019061012891906112a6565b61092f565b60405161013d949392919061134e565b60405180910390f35b610160600480360381019061015b91906113bf565b610a11565b005b61016a610b21565b60405161017791906113ff565b60405180910390f35b61019a6004803603810190610195919061141a565b610b6a565b005b600060405180608001604052806000803373ffffffffffffffffffffffffffffffffffffffff1673ffffffffffffffffffffffffffffffffffffffff168152602001908152602001600020805490508152602001848152602001838152602001600060028111156102105761020f611005565b5b81525090506000803373ffffffffffffffffffffffffffffffffffffffff1673ffffffffffffffffffffffffffffffffffffffff16815260200190815260200160002081908060018154018082558091505060019003906000526020600020906004020160009091909190915060008201518160000155602082015181600101908161029c9190611695565b506040820151816002015560608201518160030160006101000a81548160ff021916908360028111156102d2576102d1611005565b5b02179055505050505050565b6102e6610cc7565b6000803373ffffffffffffffffffffffffffffffffffffffff1673ffffffffffffffffffffffffffffffffffffffff168152602001908152602001600020805490508210610369576040517f08c379a0000000000000000000000000000000000000000000000000000000008152600401610360906117b3565b60405180910390fd5b6000803373ffffffffffffffffffffffffffffffffffffffff1673ffffffffffffffffffffffffffffffffffffffff16815260200190815260200160002082815481106103b9576103b86117d3565b5b9060005260206000209060040201604051806080016040529081600082015481526020016001820180546103ec906114b8565b80601f0160208091040260200160405190810160405280929190818152602001828054610418906114b8565b80156104655780601f1061043a57610100808354040283529160200191610465565b820191906000526020600020905b81548152906001019060200180831161044857829003601f168201915b50505050508152602001600282015481526020016003820160009054906101000a900460ff16600281111561049d5761049c611005565b5b60028111156104af576104ae611005565b5b815250509050919050565b60606000803373ffffffffffffffffffffffffffffffffffffffff1673ffffffffffffffffffffffffffffffffffffffff168152602001908152602001600020805480602002602001604051908101604052809291908181526020016000905b8282101561062d578382906000526020600020906004020160405180608001604052908160008201548152602001600182018054610557906114b8565b80601f0160208091040260200160405190810160405280929190818152602001828054610583906114b8565b80156105d05780601f106105a5576101008083540402835291602001916105d0565b820191906000526020600020905b8154815290600101906020018083116105b357829003601f168201915b50505050508152602001600282015481526020016003820160009054906101000a900460ff16600281111561060857610607611005565b5b600281111561061a57610619611005565b5b815250508152602001906001019061051a565b50505050905090565b6000803373ffffffffffffffffffffffffffffffffffffffff1673ffffffffffffffffffffffffffffffffffffffff1681526020019081526020016000208054905081106106b9576040517f08c379a00000000000000000000000000000000000000000000000000000000081526004016106b0906117b3565b60405180910390fd5b6000803373ffffffffffffffffffffffffffffffffffffffff1673ffffffffffffffffffffffffffffffffffffffff16815260200190815260200160002060016000803373ffffffffffffffffffffffffffffffffffffffff1673ffffffffffffffffffffffffffffffffffffffff168152602001908152602001600020805490506107459190611831565b81548110610756576107556117d3565b5b90600052602060002090600402016000803373ffffffffffffffffffffffffffffffffffffffff1673ffffffffffffffffffffffffffffffffffffffff16815260200190815260200160002082815481106107b4576107b36117d3565b5b906000526020600020906004020160008201548160000155600182018160010190816107e0919061187b565b50600282015481600201556003820160009054906101000a900460ff168160030160006101000a81548160ff0219169083600281111561082357610822611005565b5b0217905550905050806000803373ffffffffffffffffffffffffffffffffffffffff1673ffffffffffffffffffffffffffffffffffffffff168152602001908152602001600020828154811061087c5761087b6117d3565b5b9060005260206000209060040201600001819055506000803373ffffffffffffffffffffffffffffffffffffffff1673ffffffffffffffffffffffffffffffffffffffff1681526020019081526020016000208054806108df576108de611963565b5b600190038181906000526020600020906004020160008082016000905560018201600061090c9190610d01565b60028201600090556003820160006101000a81549060ff02191690555050905550565b6000602052816000526040600020818154811061094b57600080fd5b906000526020600020906004020160009150915050806000015490806001018054610975906114b8565b80601f01602080910402602001604051908101604052809291908181526020018280546109a1906114b8565b80156109ee5780601f106109c3576101008083540402835291602001916109ee565b820191906000526020600020905b8154815290600101906020018083116109d157829003601f168201915b5050505050908060020154908060030160009054906101000a900460ff16905084565b6000803373ffffffffffffffffffffffffffffffffffffffff1673ffffffffffffffffffffffffffffffffffffffff168152602001908152602001600020805490508210610a94576040517f08c379a0000000000000000000000000000000000000000000000000000000008152600401610a8b906117b3565b60405180910390fd5b806000803373ffffffffffffffffffffffffffffffffffffffff1673ffffffffffffffffffffffffffffffffffffffff1681526020019081526020016000208381548110610ae557610ae46117d3565b5b906000526020600020906004020160030160006101000a81548160ff02191690836002811115610b1857610b17611005565b5b02179055505050565b60008060003373ffffffffffffffffffffffffffffffffffffffff1673ffffffffffffffffffffffffffffffffffffffff16815260200190815260200160002080549050905090565b6000803373ffffffffffffffffffffffffffffffffffffffff1673ffffffffffffffffffffffffffffffffffffffff168152602001908152602001600020805490508310610bed576040517f08c379a0000000000000000000000000000000000000000000000000000000008152600401610be4906117b3565b60405180910390fd5b816000803373ffffffffffffffffffffffffffffffffffffffff1673ffffffffffffffffffffffffffffffffffffffff1681526020019081526020016000208481548110610c3e57610c3d6117d3565b5b90600052602060002090600402016001019081610c5b9190611695565b50806000803373ffffffffffffffffffffffffffffffffffffffff1673ffffffffffffffffffffffffffffffffffffffff1681526020019081526020016000208481548110610cad57610cac6117d3565b5b906000526020600020906004020160020181905550505050565b604051806080016040528060008152602001606081526020016000815260200160006002811115610cfb57610cfa611005565b5b81525090565b508054610d0d906114b8565b6000825580601f10610d1f5750610d3e565b601f016020900490600052602060002090810190610d3d9190610d41565b5b50565b5b80821115610d5a576000816000905550600101610d42565b5090565b6000604051905090565b600080fd5b600080fd5b600080fd5b600080fd5b6000601f19601f8301169050919050565b7f4e487b7100000000000000000000000000000000000000000000000000000000600052604160045260246000fd5b610dc582610d7c565b810181811067ffffffffffffffff82111715610de457610de3610d8d565b5b80604052505050565b6000610df7610d5e565b9050610e038282610dbc565b919050565b600067ffffffffffffffff821115610e2357610e22610d8d565b5b610e2c82610d7c565b9050602081019050919050565b82818337600083830152505050565b6000610e5b610e5684610e08565b610ded565b905082815260208101848484011115610e7757610e76610d77565b5b610e82848285610e39565b509392505050565b600082601f830112610e9f57610e9e610d72565b5b8135610eaf848260208601610e48565b91505092915050565b6000819050919050565b610ecb81610eb8565b8114610ed657600080fd5b50565b600081359050610ee881610ec2565b92915050565b60008060408385031215610f0557610f04610d68565b5b600083013567ffffffffffffffff811115610f2357610f22610d6d565b5b610f2f85828601610e8a565b9250506020610f4085828601610ed9565b9150509250929050565b600060208284031215610f6057610f5f610d68565b5b6000610f6e84828501610ed9565b91505092915050565b610f8081610eb8565b82525050565b600081519050919050565b600082825260208201905092915050565b60005b83811015610fc0578082015181840152602081019050610fa5565b60008484015250505050565b6000610fd782610f86565b610fe18185610f91565b9350610ff1818560208601610fa2565b610ffa81610d7c565b840191505092915050565b7f4e487b7100000000000000000000000000000000000000000000000000000000600052602160045260246000fd5b6003811061104557611044611005565b5b50565b600081905061105682611034565b919050565b600061106682611048565b9050919050565b6110768161105b565b82525050565b60006080830160008301516110946000860182610f77565b50602083015184820360208601526110ac8282610fcc565b91505060408301516110c16040860182610f77565b5060608301516110d4606086018261106d565b508091505092915050565b600060208201905081810360008301526110f9818461107c565b905092915050565b600081519050919050565b600082825260208201905092915050565b6000819050602082019050919050565b60006080830160008301516111456000860182610f77565b506020830151848203602086015261115d8282610fcc565b91505060408301516111726040860182610f77565b506060830151611185606086018261106d565b508091505092915050565b600061119c838361112d565b905092915050565b6000602082019050919050565b60006111bc82611101565b6111c6818561110c565b9350836020820285016111d88561111d565b8060005b8581101561121457848403895281516111f58582611190565b9450611200836111a4565b925060208a019950506001810190506111dc565b50829750879550505050505092915050565b6000602082019050818103600083015261124081846111b1565b905092915050565b600073ffffffffffffffffffffffffffffffffffffffff82169050919050565b600061127382611248565b9050919050565b61128381611268565b811461128e57600080fd5b50565b6000813590506112a08161127a565b92915050565b600080604083850312156112bd576112bc610d68565b5b60006112cb85828601611291565b92505060206112dc85828601610ed9565b9150509250929050565b6112ef81610eb8565b82525050565b600082825260208201905092915050565b600061131182610f86565b61131b81856112f5565b935061132b818560208601610fa2565b61133481610d7c565b840191505092915050565b6113488161105b565b82525050565b600060808201905061136360008301876112e6565b81810360208301526113758186611306565b905061138460408301856112e6565b611391606083018461133f565b95945050505050565b600381106113a757600080fd5b50565b6000813590506113b98161139a565b92915050565b600080604083850312156113d6576113d5610d68565b5b60006113e485828601610ed9565b92505060206113f5858286016113aa565b9150509250929050565b600060208201905061141460008301846112e6565b92915050565b60008060006060848603121561143357611432610d68565b5b600061144186828701610ed9565b935050602084013567ffffffffffffffff81111561146257611461610d6d565b5b61146e86828701610e8a565b925050604061147f86828701610ed9565b9150509250925092565b7f4e487b7100000000000000000000000000000000000000000000000000000000600052602260045260246000fd5b600060028204905060018216806114d057607f821691505b6020821081036114e3576114e2611489565b5b50919050565b60008190508160005260206000209050919050565b60006020601f8301049050919050565b600082821b905092915050565b60006008830261154b7fffffffffffffffffffffffffffffffffffffffffffffffffffffffffffffffff8261150e565b611555868361150e565b95508019841693508086168417925050509392505050565b6000819050919050565b600061159261158d61158884610eb8565b61156d565b610eb8565b9050919050565b6000819050919050565b6115ac83611577565b6115c06115b882611599565b84845461151b565b825550505050565b600090565b6115d56115c8565b6115e08184846115a3565b505050565b5b81811015611604576115f96000826115cd565b6001810190506115e6565b5050565b601f8211156116495761161a816114e9565b611623846114fe565b81016020851015611632578190505b61164661163e856114fe565b8301826115e5565b50505b505050565b600082821c905092915050565b600061166c6000198460080261164e565b1980831691505092915050565b6000611685838361165b565b9150826002028217905092915050565b61169e82610f86565b67ffffffffffffffff8111156116b7576116b6610d8d565b5b6116c182546114b8565b6116cc828285611608565b600060209050601f8311600181146116ff57600084156116ed578287015190505b6116f78582611679565b86555061175f565b601f19841661170d866114e9565b60005b8281101561173557848901518255600182019150602085019450602081019050611710565b86831015611752578489015161174e601f89168261165b565b8355505b6001600288020188555050505b505050505050565b7f496e76616c696420696e64657800000000000000000000000000000000000000600082015250565b600061179d600d836112f5565b91506117a882611767565b602082019050919050565b600060208201905081810360008301526117cc81611790565b9050919050565b7f4e487b7100000000000000000000000000000000000000000000000000000000600052603260045260246000fd5b7f4e487b7100000000000000000000000000000000000000000000000000000000600052601160045260246000fd5b600061183c82610eb8565b915061184783610eb8565b925082820390508181111561185f5761185e611802565b5b92915050565b600081549050611874816114b8565b9050919050565b818103611889575050611961565b61189282611865565b67ffffffffffffffff8111156118ab576118aa610d8d565b5b6118b582546114b8565b6118c0828285611608565b6000601f8311600181146118ef57600084156118dd578287015490505b6118e78582611679565b86555061195a565b601f1984166118fd876114e9565b9650611908866114e9565b60005b828110156119305784890154825560018201915060018501945060208101905061190b565b8683101561194d5784890154611949601f89168261165b565b8355505b6001600288020188555050505b5050505050505b565b7f4e487b7100000000000000000000000000000000000000000000000000000000600052603160045260246000fdfea26469706673582212206ad346c7aa058f5987f1d2860463ab6f30c7aeddd6b11074916918d7f48e96d264736f6c634300081c0033",
  "linkReferences": {},
  "deployedLinkReferences": {}
}