{
  "_format": "hh-sol-artifact-1",
  "contractName": "Lottery",
  "sourceName": "contracts/Lottery.sol",
  "abi": [
    {
      "inputs": [],
      "stateMutability": "nonpayable",
      "type": "constructor"
    },
    {
      "inputs": [],
      "name": "ALREADY_ENTERED_THIS_ROUND",
      "type": "error"
    },
    {
      "inputs": [],
      "name": "INCORRECT_ENTRY_FEE",
      "type": "error"
    },
    {
      "inputs": [],
      "name": "NEED_10_PLAYERS",
      "type": "error"
    },
    {
      "inputs": [],
      "name": "NO_PLAYERS_FOUND",
      "type": "error"
    },
    {
      "inputs": [],
      "name": "ONLY_OWNER",
      "type": "error"
    },
    {
      "anonymous": false,
      "inputs": [
        {
          "indexed": true,
          "internalType": "address",
          "name": "owner",
          "type": "address"
        },
        {
          "indexed": false,
          "internalType": "uint256",
          "name": "entryFee",
          "type": "uint256"
        }
      ],
      "name": "LotteryCreated",
      "type": "event"
    },
    {
      "anonymous": false,
      "inputs": [
        {
          "indexed": true,
          "internalType": "address",
          "name": "player",
          "type": "address"
        },
        {
          "indexed": false,
          "internalType": "uint256",
          "name": "amount",
          "type": "uint256"
        }
      ],
      "name": "PlayerEntered",
      "type": "event"
    },
    {
      "anonymous": false,
      "inputs": [
        {
          "indexed": true,
          "internalType": "address",
          "name": "winner",
          "type": "address"
        },
        {
          "indexed": false,
          "internalType": "uint256",
          "name": "amount",
          "type": "uint256"
        },
        {
          "indexed": false,
          "internalType": "uint256",
          "name": "round",
          "type": "uint256"
        }
      ],
      "name": "WinnerPicked",
      "type": "event"
    },
    {
      "inputs": [],
      "name": "MAX_PLAYERS",
      "outputs": [
        {
          "internalType": "uint256",
          "name": "",
          "type": "uint256"
        }
      ],
      "stateMutability": "view",
      "type": "function"
    },
    {
      "inputs": [],
      "name": "_pickWinner",
      "outputs": [],
      "stateMutability": "nonpayable",
      "type": "function"
    },
    {
      "inputs": [],
      "name": "enter",
      "outputs": [],
      "stateMutability": "payable",
      "type": "function"
    },
    {
      "inputs": [],
      "name": "entryFee",
      "outputs": [
        {
          "internalType": "uint256",
          "name": "",
          "type": "uint256"
        }
      ],
      "stateMutability": "view",
      "type": "function"
    },
    {
      "inputs": [
        {
          "internalType": "uint256",
          "name": "index",
          "type": "uint256"
        }
      ],
      "name": "getPlayer",
      "outputs": [
        {
          "internalType": "address",
          "name": "",
          "type": "address"
        }
      ],
      "stateMutability": "view",
      "type": "function"
    },
    {
      "inputs": [
        {
          "internalType": "address",
          "name": "",
          "type": "address"
        }
      ],
      "name": "hasEntered",
      "outputs": [
        {
          "internalType": "bool",
          "name": "",
          "type": "bool"
        }
      ],
      "stateMutability": "view",
      "type": "function"
    },
    {
      "inputs": [],
      "name": "owner",
      "outputs": [
        {
          "internalType": "address",
          "name": "",
          "type": "address"
        }
      ],
      "stateMutability": "view",
      "type": "function"
    },
    {
      "inputs": [
        {
          "internalType": "uint256",
          "name": "",
          "type": "uint256"
        }
      ],
      "name": "players",
      "outputs": [
        {
          "internalType": "address",
          "name": "",
          "type": "address"
        }
      ],
      "stateMutability": "view",
      "type": "function"
    },
    {
      "inputs": [],
      "name": "playersCount",
      "outputs": [
        {
          "internalType": "uint256",
          "name": "",
          "type": "uint256"
        }
      ],
      "stateMutability": "view",
      "type": "function"
    },
    {
      "inputs": [],
      "name": "prizePool",
      "outputs": [
        {
          "internalType": "uint256",
          "name": "",
          "type": "uint256"
        }
      ],
      "stateMutability": "view",
      "type": "function"
    },
    {
      "inputs": [],
      "name": "round",
      "outputs": [
        {
          "internalType": "uint256",
          "name": "",
          "type": "uint256"
        }
      ],
      "stateMutability": "view",
      "type": "function"
    }
  ],
  "bytecode": "0x608060405234801561001057600080fd5b50336000806101000a81548173ffffffffffffffffffffffffffffffffffffffff021916908373ffffffffffffffffffffffffffffffffffffffff16021790555067016345785d8a000060018190555060008054906101000a900473ffffffffffffffffffffffffffffffffffffffff1673ffffffffffffffffffffffffffffffffffffffff167f94ea264fb24a8aa70744a987b9f13e92f5ef47febfe6919d14ad5f708070bdd86001546040516100c891906100ee565b60405180910390a2610109565b6000819050919050565b6100e8816100d5565b82525050565b600060208201905061010360008301846100df565b92915050565b610bc7806101186000396000f3fe60806040526004361061009c5760003560e01c8063719ce73e11610064578063719ce73e146101765780638da5cb5b146101a1578063a3f67d6d146101cc578063e55ae4e8146101f7578063e97dcb6214610234578063f71d96cb1461023e5761009c565b8063072ea61c146100a1578063146ca531146100cc57806324d70dea146100f75780634411b3eb1461013457806366735f4e1461015f575b600080fd5b3480156100ad57600080fd5b506100b661027b565b6040516100c39190610815565b60405180910390f35b3480156100d857600080fd5b506100e1610281565b6040516100ee9190610815565b60405180910390f35b34801561010357600080fd5b5061011e60048036038101906101199190610893565b610287565b60405161012b91906108db565b60405180910390f35b34801561014057600080fd5b506101496102a7565b6040516101569190610815565b60405180910390f35b34801561016b57600080fd5b506101746102ac565b005b34801561018257600080fd5b5061018b6104ee565b6040516101989190610815565b60405180910390f35b3480156101ad57600080fd5b506101b66104f6565b6040516101c39190610905565b60405180910390f35b3480156101d857600080fd5b506101e161051a565b6040516101ee9190610815565b60405180910390f35b34801561020357600080fd5b5061021e6004803603810190610219919061094c565b610527565b60405161022b9190610905565b60405180910390f35b61023c61056f565b005b34801561024a57600080fd5b506102656004803603810190610260919061094c565b610743565b6040516102729190610905565b60405180910390f35b60015481565b60045481565b60036020528060005260406000206000915054906101000a900460ff1681565b600a81565b6000600280549050036102eb576040517f551c5f2f00000000000000000000000000000000000000000000000000000000815260040160405180910390fd5b60006002805490506102fb610782565b61030591906109a8565b905060006002828154811061031d5761031c6109d9565b5b9060005260206000200160009054906101000a900473ffffffffffffffffffffffffffffffffffffffff169050600047905060008273ffffffffffffffffffffffffffffffffffffffff168260405161037590610a39565b60006040518083038185875af1925050503d80600081146103b2576040519150601f19603f3d011682016040523d82523d6000602084013e6103b7565b606091505b50509050600060045490508373ffffffffffffffffffffffffffffffffffffffff167f7e57d825a2478cc8123a008d7d1e20c0f6e8cbca89a7bc100c9b05ecb3698deb848360405161040a929190610a4e565b60405180910390a260005b6002805490508110156104c5576000600360006002848154811061043c5761043b6109d9565b5b9060005260206000200160009054906101000a900473ffffffffffffffffffffffffffffffffffffffff1673ffffffffffffffffffffffffffffffffffffffff1673ffffffffffffffffffffffffffffffffffffffff16815260200190815260200160002060006101000a81548160ff0219169083151502179055508080600101915050610415565b50600260006104d491906107be565b6001816104e19190610aa6565b6004819055505050505050565b600047905090565b60008054906101000a900473ffffffffffffffffffffffffffffffffffffffff1681565b6000600280549050905090565b60006002828154811061053d5761053c6109d9565b5b9060005260206000200160009054906101000a900473ffffffffffffffffffffffffffffffffffffffff169050919050565b60015434146105aa576040517f1b0f8b2400000000000000000000000000000000000000000000000000000000815260040160405180910390fd5b600360003373ffffffffffffffffffffffffffffffffffffffff1673ffffffffffffffffffffffffffffffffffffffff16815260200190815260200160002060009054906101000a900460ff161561062e576040517fb567f10400000000000000000000000000000000000000000000000000000000815260040160405180910390fd5b6002339080600181540180825580915050600190039060005260206000200160009091909190916101000a81548173ffffffffffffffffffffffffffffffffffffffff021916908373ffffffffffffffffffffffffffffffffffffffff1602179055506001600360003373ffffffffffffffffffffffffffffffffffffffff1673ffffffffffffffffffffffffffffffffffffffff16815260200190815260200160002060006101000a81548160ff0219169083151502179055503373ffffffffffffffffffffffffffffffffffffffff167fc16481c9484122696a660b57df0bf6839645c6b620cb1704ac2437de13be92253460405161072f9190610815565b60405180910390a2600a6002805490505050565b6002818154811061075357600080fd5b906000526020600020016000915054906101000a900473ffffffffffffffffffffffffffffffffffffffff1681565b60004244600280549050336040516020016107a09493929190610b43565b6040516020818303038152906040528051906020012060001c905090565b50805460008255906000526020600020908101906107dc91906107df565b50565b5b808211156107f85760008160009055506001016107e0565b5090565b6000819050919050565b61080f816107fc565b82525050565b600060208201905061082a6000830184610806565b92915050565b600080fd5b600073ffffffffffffffffffffffffffffffffffffffff82169050919050565b600061086082610835565b9050919050565b61087081610855565b811461087b57600080fd5b50565b60008135905061088d81610867565b92915050565b6000602082840312156108a9576108a8610830565b5b60006108b78482850161087e565b91505092915050565b60008115159050919050565b6108d5816108c0565b82525050565b60006020820190506108f060008301846108cc565b92915050565b6108ff81610855565b82525050565b600060208201905061091a60008301846108f6565b92915050565b610929816107fc565b811461093457600080fd5b50565b60008135905061094681610920565b92915050565b60006020828403121561096257610961610830565b5b600061097084828501610937565b91505092915050565b7f4e487b7100000000000000000000000000000000000000000000000000000000600052601260045260246000fd5b60006109b3826107fc565b91506109be836107fc565b9250826109ce576109cd610979565b5b828206905092915050565b7f4e487b7100000000000000000000000000000000000000000000000000000000600052603260045260246000fd5b600081905092915050565b50565b6000610a23600083610a08565b9150610a2e82610a13565b600082019050919050565b6000610a4482610a16565b9150819050919050565b6000604082019050610a636000830185610806565b610a706020830184610806565b9392505050565b7f4e487b7100000000000000000000000000000000000000000000000000000000600052601160045260246000fd5b6000610ab1826107fc565b9150610abc836107fc565b9250828201905080821115610ad457610ad3610a77565b5b92915050565b6000819050919050565b610af5610af0826107fc565b610ada565b82525050565b60008160601b9050919050565b6000610b1382610afb565b9050919050565b6000610b2582610b08565b9050919050565b610b3d610b3882610855565b610b1a565b82525050565b6000610b4f8287610ae4565b602082019150610b5f8286610ae4565b602082019150610b6f8285610ae4565b602082019150610b7f8284610b2c565b6014820191508190509594505050505056fea264697066735822122012aae3ad01dcbf507448f4cd7053344ba92c0bb0c3d0509860610049b1ddd30b64736f6c634300081e0033",
  "linkReferences": {},
  "deployedLinkReferences": {}
}