{
  "_format": "hh-sol-artifact-1",
  "contractName": "LudoGame",
  "sourceName": "contracts/LudoGame.sol",
  "abi": [
    {
      "inputs": [],
      "name": "GAME_HAS_ALREADY_STARTED",
      "type": "error"
    },
    {
      "inputs": [],
      "name": "GAME_IS_FULL",
      "type": "error"
    },
    {
      "inputs": [],
      "name": "NOT_ENOUGH_PLAYERS",
      "type": "error"
    },
    {
      "anonymous": false,
      "inputs": [
        {
          "indexed": false,
          "internalType": "address",
          "name": "player",
          "type": "address"
        },
        {
          "indexed": false,
          "internalType": "uint8",
          "name": "roll",
          "type": "uint8"
        }
      ],
      "name": "DiceRolled",
      "type": "event"
    },
    {
      "anonymous": false,
      "inputs": [],
      "name": "GameStarted",
      "type": "event"
    },
    {
      "anonymous": false,
      "inputs": [
        {
          "indexed": false,
          "internalType": "address",
          "name": "player",
          "type": "address"
        }
      ],
      "name": "PlayerWon",
      "type": "event"
    },
    {
      "anonymous": false,
      "inputs": [
        {
          "indexed": false,
          "internalType": "address",
          "name": "capturer",
          "type": "address"
        },
        {
          "indexed": false,
          "internalType": "address",
          "name": "captured",
          "type": "address"
        },
        {
          "indexed": false,
          "internalType": "uint8",
          "name": "position",
          "type": "uint8"
        }
      ],
      "name": "TokenCaptured",
      "type": "event"
    },
    {
      "anonymous": false,
      "inputs": [
        {
          "indexed": false,
          "internalType": "address",
          "name": "player",
          "type": "address"
        },
        {
          "indexed": false,
          "internalType": "uint8",
          "name": "tokenIndex",
          "type": "uint8"
        },
        {
          "indexed": false,
          "internalType": "uint8",
          "name": "newPosition",
          "type": "uint8"
        }
      ],
      "name": "TokenMoved",
      "type": "event"
    },
    {
      "inputs": [],
      "name": "currentPlayerIndex",
      "outputs": [
        {
          "internalType": "uint8",
          "name": "",
          "type": "uint8"
        }
      ],
      "stateMutability": "view",
      "type": "function"
    },
    {
      "inputs": [],
      "name": "gameInProgress",
      "outputs": [
        {
          "internalType": "bool",
          "name": "",
          "type": "bool"
        }
      ],
      "stateMutability": "view",
      "type": "function"
    },
    {
      "inputs": [],
      "name": "getGameState",
      "outputs": [
        {
          "internalType": "address[]",
          "name": "playerAddresses",
          "type": "address[]"
        },
        {
          "internalType": "uint8[4][4]",
          "name": "tokenPositions",
          "type": "uint8[4][4]"
        },
        {
          "internalType": "uint8[]",
          "name": "tokensHome",
          "type": "uint8[]"
        },
        {
          "internalType": "uint8",
          "name": "currentPlayer",
          "type": "uint8"
        },
        {
          "internalType": "bool",
          "name": "isGameInProgress",
          "type": "bool"
        }
      ],
      "stateMutability": "view",
      "type": "function"
    },
    {
      "inputs": [],
      "name": "joinGame",
      "outputs": [],
      "stateMutability": "nonpayable",
      "type": "function"
    },
    {
      "inputs": [
        {
          "internalType": "uint8",
          "name": "tokenIndex",
          "type": "uint8"
        },
        {
          "internalType": "uint8",
          "name": "spaces",
          "type": "uint8"
        }
      ],
      "name": "moveToken",
      "outputs": [],
      "stateMutability": "nonpayable",
      "type": "function"
    },
    {
      "inputs": [],
      "name": "playerCount",
      "outputs": [
        {
          "internalType": "uint8",
          "name": "",
          "type": "uint8"
        }
      ],
      "stateMutability": "view",
      "type": "function"
    },
    {
      "inputs": [
        {
          "internalType": "uint256",
          "name": "",
          "type": "uint256"
        }
      ],
      "name": "players",
      "outputs": [
        {
          "internalType": "address",
          "name": "addr",
          "type": "address"
        },
        {
          "internalType": "uint8",
          "name": "tokensHome",
          "type": "uint8"
        },
        {
          "internalType": "uint8",
          "name": "tokenStart",
          "type": "uint8"
        }
      ],
      "stateMutability": "view",
      "type": "function"
    },
    {
      "inputs": [],
      "name": "rollDice",
      "outputs": [
        {
          "internalType": "uint8",
          "name": "",
          "type": "uint8"
        }
      ],
      "stateMutability": "nonpayable",
      "type": "function"
    },
    {
      "inputs": [],
      "name": "startGame",
      "outputs": [],
      "stateMutability": "nonpayable",
      "type": "function"
    }
  ],
  "bytecode": "0x6080604052348015600f57600080fd5b506119838061001f6000396000f3fe608060405234801561001057600080fd5b50600436106100935760003560e01c8063b7d0628b11610066578063b7d0628b1461010e578063d4f77b1c14610130578063d65ab5f21461013a578063f71d96cb14610144578063fb9bdab41461017657610093565b8063302bcc57146100985780633fb64e75146100b657806363da0887146100d4578063837e7cc6146100f0575b600080fd5b6100a0610194565b6040516100ad9190610f55565b60405180910390f35b6100be6101a7565b6040516100cb9190610f8b565b60405180910390f35b6100ee60048036038101906100e99190610fd7565b6101ba565b005b6100f8610745565b6040516101059190610f55565b60405180910390f35b61011661083c565b6040516101279594939291906112e5565b60405180910390f35b610138610af6565b005b610142610d74565b005b61015e60048036038101906101599190611380565b610e6d565b60405161016d939291906113bc565b60405180910390f35b61017e610ed7565b60405161018b9190610f55565b60405180910390f35b600c60019054906101000a900460ff1681565b600e60009054906101000a900460ff1681565b600e60009054906101000a900460ff16610209576040517f08c379a000000000000000000000000000000000000000000000000000000000815260040161020090611450565b60405180910390fd5b6000600c60009054906101000a900460ff1660ff166004811061022f5761022e611470565b5b6003020160000160009054906101000a900473ffffffffffffffffffffffffffffffffffffffff1673ffffffffffffffffffffffffffffffffffffffff163373ffffffffffffffffffffffffffffffffffffffff16146102c4576040517f08c379a00000000000000000000000000000000000000000000000000000000081526004016102bb906114eb565b60405180910390fd5b600460ff168260ff161061030d576040517f08c379a000000000000000000000000000000000000000000000000000000000815260040161030490611557565b60405180910390fd5b600080600c60009054906101000a900460ff1660ff166004811061033457610333611470565b5b6003020190506000816001018460ff166004811061035557610354611470565b5b602091828204019190069054906101000a900460ff16905060008160ff16148015610383575060068360ff16145b156103a1578160020160019054906101000a900460ff16905061041a565b60008160ff16036103e7576040517f08c379a00000000000000000000000000000000000000000000000000000000081526004016103de906115c3565b60405180910390fd5b60016034846001846103f99190611612565b6104039190611647565b61040d91906116ab565b6104179190611647565b90505b60005b600c60019054906101000a900460ff1660ff168160ff1610156105a757600c60009054906101000a900460ff1660ff168160ff161461059a5760005b600460ff168160ff161015610598578260ff1660008360ff166004811061048357610482611470565b5b600302016001018260ff166004811061049f5761049e611470565b5b602091828204019190069054906101000a900460ff1660ff160361058b576000808360ff16600481106104d5576104d4611470565b5b600302016001018260ff16600481106104f1576104f0611470565b5b602091828204019190066101000a81548160ff021916908360ff1602179055507f442a4f64ad7e0c86fec77a6c7d18c7af652a8261ea25f28140a3fccc2e1c91cb3360008460ff166004811061054a57610549611470565b5b6003020160000160009054906101000a900473ffffffffffffffffffffffffffffffffffffffff1685604051610582939291906116dc565b60405180910390a15b8080600101915050610459565b505b808060010191505061041d565b5080826001018560ff16600481106105c2576105c1611470565b5b602091828204019190066101000a81548160ff021916908360ff1602179055507fe8238510d7de95882db69a043c5b056222b3efdc86b2c8e33e782d46bdcbda8c338583604051610615939291906113bc565b60405180910390a18160020160019054906101000a900460ff1660ff168160ff16036106ee5781600201600081819054906101000a900460ff168092919061065c90611713565b91906101000a81548160ff021916908360ff16021790555050600460ff168260020160009054906101000a900460ff1660ff16036106ed577f970f935ee01502df35da11db45c29bdd97d8f41d5a0640c1dc3bd96c67f97987336040516106c3919061173c565b60405180910390a16000600e60006101000a81548160ff0219169083151502179055505050610741565b5b600c60019054906101000a900460ff166001600c60009054906101000a900460ff1661071a9190611647565b61072491906116ab565b600c60006101000a81548160ff021916908360ff16021790555050505b5050565b6000600e60009054906101000a900460ff1661078d576040517fce18149500000000000000000000000000000000000000000000000000000000815260040160405180910390fd5b6000424433600d546040516020016107a894939291906117c0565b6040516020818303038152906040528051906020012060001c9050600d60008154809291906107d69061180e565b919050555060006001600660ff16836107ef9190611856565b6107f99190611647565b90507fc58abb24bb142a4e0cad0493a9c010849a79d42f31893b1433c3f8df56010979338260405161082c929190611887565b60405180910390a1809250505090565b6060610846610eea565b6060600080600c60019054906101000a900460ff1660ff1667ffffffffffffffff811115610877576108766118b0565b5b6040519080825280602002602001820160405280156108a55781602001602082028036833780820191505090505b509450600c60019054906101000a900460ff1660ff1667ffffffffffffffff8111156108d4576108d36118b0565b5b6040519080825280602002602001820160405280156109025781602001602082028036833780820191505090505b50925060005b600c60019054906101000a900460ff1660ff168160ff161015610ac15760008160ff166004811061093c5761093b611470565b5b6003020160000160009054906101000a900473ffffffffffffffffffffffffffffffffffffffff16868260ff168151811061097a57610979611470565b5b602002602001019073ffffffffffffffffffffffffffffffffffffffff16908173ffffffffffffffffffffffffffffffffffffffff168152505060005b600460ff168160ff161015610a5d5760008260ff16600481106109dd576109dc611470565b5b600302016001018160ff16600481106109f9576109f8611470565b5b602091828204019190069054906101000a900460ff16868360ff1660048110610a2557610a24611470565b5b60200201518260ff1660048110610a3f57610a3e611470565b5b602002019060ff16908160ff168152505080806001019150506109b7565b5060008160ff1660048110610a7557610a74611470565b5b6003020160020160009054906101000a900460ff16848260ff1681518110610aa057610a9f611470565b5b602002602001019060ff16908160ff16815250508080600101915050610908565b50848484600c60009054906101000a900460ff16600e60009054906101000a900460ff16945094509450945094509091929394565b600e60009054906101000a900460ff1615610b3d576040517fce18149500000000000000000000000000000000000000000000000000000000815260040160405180910390fd5b600460ff16600c60019054906101000a900460ff1660ff1610610b8c576040517f1d891b0600000000000000000000000000000000000000000000000000000000815260040160405180910390fd5b336000600c60019054906101000a900460ff1660ff1660048110610bb357610bb2611470565b5b6003020160000160006101000a81548173ffffffffffffffffffffffffffffffffffffffff021916908373ffffffffffffffffffffffffffffffffffffffff16021790555060046034610c0691906118df565b600c60019054906101000a900460ff16610c209190611910565b6001610c2c9190611647565b6000600c60019054906101000a900460ff1660ff1660048110610c5257610c51611470565b5b6003020160020160016101000a81548160ff021916908360ff16021790555060005b600460ff168160ff161015610cf357600080600c60019054906101000a900460ff1660ff1660048110610caa57610ca9611470565b5b600302016001018260ff1660048110610cc657610cc5611470565b5b602091828204019190066101000a81548160ff021916908360ff1602179055508080600101915050610c74565b50600080600c60019054906101000a900460ff1660ff1660048110610d1b57610d1a611470565b5b6003020160020160006101000a81548160ff021916908360ff160217905550600c600181819054906101000a900460ff1680929190610d5990611713565b91906101000a81548160ff021916908360ff16021790555050565b600e60009054906101000a900460ff1615610dbb576040517fce18149500000000000000000000000000000000000000000000000000000000815260040160405180910390fd5b6002600c60019054906101000a900460ff1660ff161015610e08576040517f4dafc1c500000000000000000000000000000000000000000000000000000000815260040160405180910390fd5b6001600e60006101000a81548160ff0219169083151502179055506000600c60006101000a81548160ff021916908360ff1602179055507f762f260439bb4be3ef6e4dc2786e2e7bd187d3d80b79057d7a424fe98563e33560405160405180910390a1565b60008160048110610e7d57600080fd5b600302016000915090508060000160009054906101000a900473ffffffffffffffffffffffffffffffffffffffff16908060020160009054906101000a900460ff16908060020160019054906101000a900460ff16905083565b600c60009054906101000a900460ff1681565b60405180608001604052806004905b610f01610f17565b815260200190600190039081610ef95790505090565b6040518060800160405280600490602082028036833780820191505090505090565b600060ff82169050919050565b610f4f81610f39565b82525050565b6000602082019050610f6a6000830184610f46565b92915050565b60008115159050919050565b610f8581610f70565b82525050565b6000602082019050610fa06000830184610f7c565b92915050565b600080fd5b610fb481610f39565b8114610fbf57600080fd5b50565b600081359050610fd181610fab565b92915050565b60008060408385031215610fee57610fed610fa6565b5b6000610ffc85828601610fc2565b925050602061100d85828601610fc2565b9150509250929050565b600081519050919050565b600082825260208201905092915050565b6000819050602082019050919050565b600073ffffffffffffffffffffffffffffffffffffffff82169050919050565b600061106e82611043565b9050919050565b61107e81611063565b82525050565b60006110908383611075565b60208301905092915050565b6000602082019050919050565b60006110b482611017565b6110be8185611022565b93506110c983611033565b8060005b838110156110fa5781516110e18882611084565b97506110ec8361109c565b9250506001810190506110cd565b5085935050505092915050565b600060049050919050565b600081905092915050565b6000819050919050565b600060049050919050565b600081905092915050565b6000819050919050565b61115081610f39565b82525050565b60006111628383611147565b60208301905092915050565b6000602082019050919050565b61118481611127565b61118e8184611132565b92506111998261113d565b8060005b838110156111ca5781516111b18782611156565b96506111bc8361116e565b92505060018101905061119d565b505050505050565b60006111de838361117b565b60808301905092915050565b6000602082019050919050565b61120081611107565b61120a8184611112565b92506112158261111d565b8060005b8381101561124657815161122d87826111d2565b9650611238836111ea565b925050600181019050611219565b505050505050565b600081519050919050565b600082825260208201905092915050565b6000819050602082019050919050565b6000602082019050919050565b60006112928261124e565b61129c8185611259565b93506112a78361126a565b8060005b838110156112d85781516112bf8882611156565b97506112ca8361127a565b9250506001810190506112ab565b5085935050505092915050565b600061028082019050818103600083015261130081886110a9565b905061130f60208301876111f7565b8181036102208301526113228186611287565b9050611332610240830185610f46565b611340610260830184610f7c565b9695505050505050565b6000819050919050565b61135d8161134a565b811461136857600080fd5b50565b60008135905061137a81611354565b92915050565b60006020828403121561139657611395610fa6565b5b60006113a48482850161136b565b91505092915050565b6113b681611063565b82525050565b60006060820190506113d160008301866113ad565b6113de6020830185610f46565b6113eb6040830184610f46565b949350505050565b600082825260208201905092915050565b7f47616d6520686173206e6f742073746172746564000000000000000000000000600082015250565b600061143a6014836113f3565b915061144582611404565b602082019050919050565b600060208201905081810360008301526114698161142d565b9050919050565b7f4e487b7100000000000000000000000000000000000000000000000000000000600052603260045260246000fd5b7f4e6f7420796f7572207475726e00000000000000000000000000000000000000600082015250565b60006114d5600d836113f3565b91506114e08261149f565b602082019050919050565b60006020820190508181036000830152611504816114c8565b9050919050565b7f496e76616c696420746f6b656e20696e64657800000000000000000000000000600082015250565b60006115416013836113f3565b915061154c8261150b565b602082019050919050565b6000602082019050818103600083015261157081611534565b9050919050565b7f4e6565642061203620746f206d6f76652066726f6d2073746172740000000000600082015250565b60006115ad601b836113f3565b91506115b882611577565b602082019050919050565b600060208201905081810360008301526115dc816115a0565b9050919050565b7f4e487b7100000000000000000000000000000000000000000000000000000000600052601160045260246000fd5b600061161d82610f39565b915061162883610f39565b9250828203905060ff811115611641576116406115e3565b5b92915050565b600061165282610f39565b915061165d83610f39565b9250828201905060ff811115611676576116756115e3565b5b92915050565b7f4e487b7100000000000000000000000000000000000000000000000000000000600052601260045260246000fd5b60006116b682610f39565b91506116c183610f39565b9250826116d1576116d061167c565b5b828206905092915050565b60006060820190506116f160008301866113ad565b6116fe60208301856113ad565b61170b6040830184610f46565b949350505050565b600061171e82610f39565b915060ff8203611731576117306115e3565b5b600182019050919050565b600060208201905061175160008301846113ad565b92915050565b6000819050919050565b61177261176d8261134a565b611757565b82525050565b60008160601b9050919050565b600061179082611778565b9050919050565b60006117a282611785565b9050919050565b6117ba6117b582611063565b611797565b82525050565b60006117cc8287611761565b6020820191506117dc8286611761565b6020820191506117ec82856117a9565b6014820191506117fc8284611761565b60208201915081905095945050505050565b60006118198261134a565b91507fffffffffffffffffffffffffffffffffffffffffffffffffffffffffffffffff820361184b5761184a6115e3565b5b600182019050919050565b60006118618261134a565b915061186c8361134a565b92508261187c5761187b61167c565b5b828206905092915050565b600060408201905061189c60008301856113ad565b6118a96020830184610f46565b9392505050565b7f4e487b7100000000000000000000000000000000000000000000000000000000600052604160045260246000fd5b60006118ea82610f39565b91506118f583610f39565b9250826119055761190461167c565b5b828204905092915050565b600061191b82610f39565b915061192683610f39565b925082820261193481610f39565b9150808214611946576119456115e3565b5b509291505056fea26469706673582212205e77fcfe005479890d3df3331128f184096ed7550385c5ee2473aa82c552dd7564736f6c634300081e0033",
  "linkReferences": {},
  "deployedLinkReferences": {}
}