{
  "_format": "hh-sol-artifact-1",
  "contractName": "EventTicketing",
  "sourceName": "contracts/EventTicketing.sol",
  "abi": [
    {
      "inputs": [
        {
          "internalType": "address",
          "name": "_paymentToken",
          "type": "address"
        },
        {
          "internalType": "address",
          "name": "_ticketNft",
          "type": "address"
        }
      ],
      "stateMutability": "nonpayable",
      "type": "constructor"
    },
    {
      "anonymous": false,
      "inputs": [
        {
          "indexed": true,
          "internalType": "uint256",
          "name": "eventId",
          "type": "uint256"
        },
        {
          "indexed": false,
          "internalType": "string",
          "name": "name",
          "type": "string"
        },
        {
          "indexed": false,
          "internalType": "address",
          "name": "creator",
          "type": "address"
        }
      ],
      "name": "EventCreated",
      "type": "event"
    },
    {
      "anonymous": false,
      "inputs": [
        {
          "indexed": true,
          "internalType": "address",
          "name": "previousOwner",
          "type": "address"
        },
        {
          "indexed": true,
          "internalType": "address",
          "name": "newOwner",
          "type": "address"
        }
      ],
      "name": "OwnershipTransferred",
      "type": "event"
    },
    {
      "anonymous": false,
      "inputs": [
        {
          "indexed": true,
          "internalType": "uint256",
          "name": "eventId",
          "type": "uint256"
        },
        {
          "indexed": false,
          "internalType": "uint256",
          "name": "ticketId",
          "type": "uint256"
        },
        {
          "indexed": false,
          "internalType": "address",
          "name": "buyer",
          "type": "address"
        }
      ],
      "name": "TicketPurchased",
      "type": "event"
    },
    {
      "inputs": [
        {
          "internalType": "string",
          "name": "_name",
          "type": "string"
        },
        {
          "internalType": "uint256",
          "name": "_ticketPrice",
          "type": "uint256"
        },
        {
          "internalType": "uint256",
          "name": "_totalTickets",
          "type": "uint256"
        },
        {
          "internalType": "string",
          "name": "_baseTokenURI",
          "type": "string"
        }
      ],
      "name": "createEvent",
      "outputs": [],
      "stateMutability": "nonpayable",
      "type": "function"
    },
    {
      "inputs": [],
      "name": "eventCounter",
      "outputs": [
        {
          "internalType": "uint256",
          "name": "",
          "type": "uint256"
        }
      ],
      "stateMutability": "view",
      "type": "function"
    },
    {
      "inputs": [
        {
          "internalType": "uint256",
          "name": "",
          "type": "uint256"
        }
      ],
      "name": "events",
      "outputs": [
        {
          "internalType": "uint256",
          "name": "eventId",
          "type": "uint256"
        },
        {
          "internalType": "string",
          "name": "name",
          "type": "string"
        },
        {
          "internalType": "uint256",
          "name": "ticketPrice",
          "type": "uint256"
        },
        {
          "internalType": "uint256",
          "name": "totalTickets",
          "type": "uint256"
        },
        {
          "internalType": "uint256",
          "name": "ticketsSold",
          "type": "uint256"
        },
        {
          "internalType": "string",
          "name": "baseTokenURI",
          "type": "string"
        }
      ],
      "stateMutability": "view",
      "type": "function"
    },
    {
      "inputs": [
        {
          "internalType": "uint256",
          "name": "eventId",
          "type": "uint256"
        }
      ],
      "name": "getEventTickets",
      "outputs": [
        {
          "internalType": "uint256[]",
          "name": "",
          "type": "uint256[]"
        }
      ],
      "stateMutability": "view",
      "type": "function"
    },
    {
      "inputs": [
        {
          "internalType": "address",
          "name": "user",
          "type": "address"
        }
      ],
      "name": "getUserEvents",
      "outputs": [
        {
          "internalType": "uint256[]",
          "name": "",
          "type": "uint256[]"
        }
      ],
      "stateMutability": "view",
      "type": "function"
    },
    {
      "inputs": [],
      "name": "owner",
      "outputs": [
        {
          "internalType": "address",
          "name": "",
          "type": "address"
        }
      ],
      "stateMutability": "view",
      "type": "function"
    },
    {
      "inputs": [],
      "name": "paymentToken",
      "outputs": [
        {
          "internalType": "contract IERC20",
          "name": "",
          "type": "address"
        }
      ],
      "stateMutability": "view",
      "type": "function"
    },
    {
      "inputs": [
        {
          "internalType": "uint256",
          "name": "eventId",
          "type": "uint256"
        }
      ],
      "name": "purchaseTicket",
      "outputs": [],
      "stateMutability": "nonpayable",
      "type": "function"
    },
    {
      "inputs": [],
      "name": "renounceOwnership",
      "outputs": [],
      "stateMutability": "nonpayable",
      "type": "function"
    },
    {
      "inputs": [],
      "name": "ticketNft",
      "outputs": [
        {
          "internalType": "contract TicketNft",
          "name": "",
          "type": "address"
        }
      ],
      "stateMutability": "view",
      "type": "function"
    },
    {
      "inputs": [
        {
          "internalType": "address",
          "name": "newOwner",
          "type": "address"
        }
      ],
      "name": "transferOwnership",
      "outputs": [],
      "stateMutability": "nonpayable",
      "type": "function"
    },
    {
      "inputs": [
        {
          "internalType": "address",
          "name": "",
          "type": "address"
        },
        {
          "internalType": "uint256",
          "name": "",
          "type": "uint256"
        }
      ],
      "name": "userEvents",
      "outputs": [
        {
          "internalType": "uint256",
          "name": "",
          "type": "uint256"
        }
      ],
      "stateMutability": "view",
      "type": "function"
    }
  ],
  "bytecode": "0x608060405234801561001057600080fd5b50604051611c1c380380611c1c833981810160405281019061003291906102e4565b61004e6100436101b560201b60201c565b6101bd60201b60201c565b600073ffffffffffffffffffffffffffffffffffffffff168273ffffffffffffffffffffffffffffffffffffffff16036100bd576040517f08c379a00000000000000000000000000000000000000000000000000000000081526004016100b490610381565b60405180910390fd5b600073ffffffffffffffffffffffffffffffffffffffff168173ffffffffffffffffffffffffffffffffffffffff160361012c576040517f08c379a0000000000000000000000000000000000000000000000000000000008152600401610123906103ed565b60405180910390fd5b81600460006101000a81548173ffffffffffffffffffffffffffffffffffffffff021916908373ffffffffffffffffffffffffffffffffffffffff16021790555080600560006101000a81548173ffffffffffffffffffffffffffffffffffffffff021916908373ffffffffffffffffffffffffffffffffffffffff160217905550505061040d565b600033905090565b60008060009054906101000a900473ffffffffffffffffffffffffffffffffffffffff169050816000806101000a81548173ffffffffffffffffffffffffffffffffffffffff021916908373ffffffffffffffffffffffffffffffffffffffff1602179055508173ffffffffffffffffffffffffffffffffffffffff168173ffffffffffffffffffffffffffffffffffffffff167f8be0079c531659141344cd1fd0a4f28419497f9722a3daafe3b4186f6b6457e060405160405180910390a35050565b600080fd5b600073ffffffffffffffffffffffffffffffffffffffff82169050919050565b60006102b182610286565b9050919050565b6102c1816102a6565b81146102cc57600080fd5b50565b6000815190506102de816102b8565b92915050565b600080604083850312156102fb576102fa610281565b5b6000610309858286016102cf565b925050602061031a858286016102cf565b9150509250929050565b600082825260208201905092915050565b7f496e76616c696420746f6b656e20616464726573730000000000000000000000600082015250565b600061036b601583610324565b915061037682610335565b602082019050919050565b6000602082019050818103600083015261039a8161035e565b9050919050565b7f496e76616c6964204e4654206164647265737300000000000000000000000000600082015250565b60006103d7601383610324565b91506103e2826103a1565b602082019050919050565b60006020820190508181036000830152610406816103ca565b9050919050565b6118008061041c6000396000f3fe608060405234801561001057600080fd5b50600436106100b45760003560e01c8063b948348c11610071578063b948348c14610182578063bdfc98931461019e578063ca261ce1146101ce578063e09b2a62146101fe578063f2fde38b1461021c578063f3ef0d8814610238576100b4565b80630b791430146100b9578063171e5ba2146100ee5780633013ce291461011e57806352c55db91461013c578063715018a61461015a5780638da5cb5b14610164575b600080fd5b6100d360048036038101906100ce9190610b7f565b610254565b6040516100e596959493929190610c4b565b60405180910390f35b61010860048036038101906101039190610d18565b6103a0565b6040516101159190610e03565b60405180910390f35b610126610437565b6040516101339190610e84565b60405180910390f35b61014461045d565b6040516101519190610e9f565b60405180910390f35b610162610463565b005b61016c610477565b6040516101799190610ec9565b60405180910390f35b61019c60048036038101906101979190610b7f565b6104a0565b005b6101b860048036038101906101b39190610ee4565b61062c565b6040516101c59190610e9f565b60405180910390f35b6101e860048036038101906101e39190610b7f565b61065d565b6040516101f59190610e03565b60405180910390f35b6102066106cb565b6040516102139190610f45565b60405180910390f35b61023660048036038101906102319190610d18565b6106f1565b005b610252600480360381019061024d9190611095565b610774565b005b600260205280600052604060002060009150905080600001549080600101805461027d90611163565b80601f01602080910402602001604051908101604052809291908181526020018280546102a990611163565b80156102f65780601f106102cb576101008083540402835291602001916102f6565b820191906000526020600020905b8154815290600101906020018083116102d957829003601f168201915b50505050509080600201549080600301549080600401549080600501805461031d90611163565b80601f016020809104026020016040519081016040528092919081815260200182805461034990611163565b80156103965780601f1061036b57610100808354040283529160200191610396565b820191906000526020600020905b81548152906001019060200180831161037957829003601f168201915b5050505050905086565b6060600360008373ffffffffffffffffffffffffffffffffffffffff1673ffffffffffffffffffffffffffffffffffffffff16815260200190815260200160002080548060200260200160405190810160405280929190818152602001828054801561042b57602002820191906000526020600020905b815481526020019060010190808311610417575b50505050509050919050565b600460009054906101000a900473ffffffffffffffffffffffffffffffffffffffff1681565b60015481565b61046b610981565b61047560006109ff565b565b60008060009054906101000a900473ffffffffffffffffffffffffffffffffffffffff16905090565b60006002600083815260200190815260200160002090508060030154816004015410610501576040517f08c379a00000000000000000000000000000000000000000000000000000000081526004016104f8906111e0565b60405180910390fd5b6000600560009054906101000a900473ffffffffffffffffffffffffffffffffffffffff1673ffffffffffffffffffffffffffffffffffffffff16635388842c33846005016040518363ffffffff1660e01b8152600401610563929190611299565b6020604051808303816000875af1158015610582573d6000803e3d6000fd5b505050506040513d601f19601f820116820180604052508101906105a691906112de565b9050816006018190806001815401808255809150506001900390600052602060002001600090919091909150558160040160008154809291906105e89061133a565b9190505550827f94c5953e15f54d38b82a662bdd5739fc91af3a23d3ef7e67269dfaeee71a813c823360405161061f929190611382565b60405180910390a2505050565b6003602052816000526040600020818154811061064857600080fd5b90600052602060002001600091509150505481565b6060600260008381526020019081526020016000206006018054806020026020016040519081016040528092919081815260200182805480156106bf57602002820191906000526020600020905b8154815260200190600101908083116106ab575b50505050509050919050565b600560009054906101000a900473ffffffffffffffffffffffffffffffffffffffff1681565b6106f9610981565b600073ffffffffffffffffffffffffffffffffffffffff168173ffffffffffffffffffffffffffffffffffffffff1603610768576040517f08c379a000000000000000000000000000000000000000000000000000000000815260040161075f9061141d565b60405180910390fd5b610771816109ff565b50565b600082116107b7576040517f08c379a00000000000000000000000000000000000000000000000000000000081526004016107ae906114af565b60405180910390fd5b600160008154809291906107ca9061133a565b9190505550600060015490506040518060e0016040528082815260200186815260200185815260200184815260200160008152602001838152602001600067ffffffffffffffff81111561082157610820610f6a565b5b60405190808252806020026020018201604052801561084f5781602001602082028036833780820191505090505b5081525060026000838152602001908152602001600020600082015181600001556020820151816001019081610885919061165c565b5060408201518160020155606082015181600301556080820151816004015560a08201518160050190816108b9919061165c565b5060c08201518160060190805190602001906108d6929190610acb565b50905050600360003373ffffffffffffffffffffffffffffffffffffffff1673ffffffffffffffffffffffffffffffffffffffff168152602001908152602001600020819080600181540180825580915050600190039060005260206000200160009091909190915055807f40fb05b814a900c99fa0a76d919dfdeaf3389540e4ca70f97ba40ca9a38f3797863360405161097292919061172e565b60405180910390a25050505050565b610989610ac3565b73ffffffffffffffffffffffffffffffffffffffff166109a7610477565b73ffffffffffffffffffffffffffffffffffffffff16146109fd576040517f08c379a00000000000000000000000000000000000000000000000000000000081526004016109f4906117aa565b60405180910390fd5b565b60008060009054906101000a900473ffffffffffffffffffffffffffffffffffffffff169050816000806101000a81548173ffffffffffffffffffffffffffffffffffffffff021916908373ffffffffffffffffffffffffffffffffffffffff1602179055508173ffffffffffffffffffffffffffffffffffffffff168173ffffffffffffffffffffffffffffffffffffffff167f8be0079c531659141344cd1fd0a4f28419497f9722a3daafe3b4186f6b6457e060405160405180910390a35050565b600033905090565b828054828255906000526020600020908101928215610b07579160200282015b82811115610b06578251825591602001919060010190610aeb565b5b509050610b149190610b18565b5090565b5b80821115610b31576000816000905550600101610b19565b5090565b6000604051905090565b600080fd5b600080fd5b6000819050919050565b610b5c81610b49565b8114610b6757600080fd5b50565b600081359050610b7981610b53565b92915050565b600060208284031215610b9557610b94610b3f565b5b6000610ba384828501610b6a565b91505092915050565b610bb581610b49565b82525050565b600081519050919050565b600082825260208201905092915050565b60005b83811015610bf5578082015181840152602081019050610bda565b60008484015250505050565b6000601f19601f8301169050919050565b6000610c1d82610bbb565b610c278185610bc6565b9350610c37818560208601610bd7565b610c4081610c01565b840191505092915050565b600060c082019050610c606000830189610bac565b8181036020830152610c728188610c12565b9050610c816040830187610bac565b610c8e6060830186610bac565b610c9b6080830185610bac565b81810360a0830152610cad8184610c12565b9050979650505050505050565b600073ffffffffffffffffffffffffffffffffffffffff82169050919050565b6000610ce582610cba565b9050919050565b610cf581610cda565b8114610d0057600080fd5b50565b600081359050610d1281610cec565b92915050565b600060208284031215610d2e57610d2d610b3f565b5b6000610d3c84828501610d03565b91505092915050565b600081519050919050565b600082825260208201905092915050565b6000819050602082019050919050565b610d7a81610b49565b82525050565b6000610d8c8383610d71565b60208301905092915050565b6000602082019050919050565b6000610db082610d45565b610dba8185610d50565b9350610dc583610d61565b8060005b83811015610df6578151610ddd8882610d80565b9750610de883610d98565b925050600181019050610dc9565b5085935050505092915050565b60006020820190508181036000830152610e1d8184610da5565b905092915050565b6000819050919050565b6000610e4a610e45610e4084610cba565b610e25565b610cba565b9050919050565b6000610e5c82610e2f565b9050919050565b6000610e6e82610e51565b9050919050565b610e7e81610e63565b82525050565b6000602082019050610e996000830184610e75565b92915050565b6000602082019050610eb46000830184610bac565b92915050565b610ec381610cda565b82525050565b6000602082019050610ede6000830184610eba565b92915050565b60008060408385031215610efb57610efa610b3f565b5b6000610f0985828601610d03565b9250506020610f1a85828601610b6a565b9150509250929050565b6000610f2f82610e51565b9050919050565b610f3f81610f24565b82525050565b6000602082019050610f5a6000830184610f36565b92915050565b600080fd5b600080fd5b7f4e487b7100000000000000000000000000000000000000000000000000000000600052604160045260246000fd5b610fa282610c01565b810181811067ffffffffffffffff82111715610fc157610fc0610f6a565b5b80604052505050565b6000610fd4610b35565b9050610fe08282610f99565b919050565b600067ffffffffffffffff82111561100057610fff610f6a565b5b61100982610c01565b9050602081019050919050565b82818337600083830152505050565b600061103861103384610fe5565b610fca565b90508281526020810184848401111561105457611053610f65565b5b61105f848285611016565b509392505050565b600082601f83011261107c5761107b610f60565b5b813561108c848260208601611025565b91505092915050565b600080600080608085870312156110af576110ae610b3f565b5b600085013567ffffffffffffffff8111156110cd576110cc610b44565b5b6110d987828801611067565b94505060206110ea87828801610b6a565b93505060406110fb87828801610b6a565b925050606085013567ffffffffffffffff81111561111c5761111b610b44565b5b61112887828801611067565b91505092959194509250565b7f4e487b7100000000000000000000000000000000000000000000000000000000600052602260045260246000fd5b6000600282049050600182168061117b57607f821691505b60208210810361118e5761118d611134565b5b50919050565b7f416c6c207469636b65747320736f6c6400000000000000000000000000000000600082015250565b60006111ca601083610bc6565b91506111d582611194565b602082019050919050565b600060208201905081810360008301526111f9816111bd565b9050919050565b60008190508160005260206000209050919050565b6000815461122281611163565b61122c8186610bc6565b94506001821660008114611247576001811461125d57611290565b60ff198316865281151560200286019350611290565b61126685611200565b60005b8381101561128857815481890152600182019150602081019050611269565b808801955050505b50505092915050565b60006040820190506112ae6000830185610eba565b81810360208301526112c08184611215565b90509392505050565b6000815190506112d881610b53565b92915050565b6000602082840312156112f4576112f3610b3f565b5b6000611302848285016112c9565b91505092915050565b7f4e487b7100000000000000000000000000000000000000000000000000000000600052601160045260246000fd5b600061134582610b49565b91507fffffffffffffffffffffffffffffffffffffffffffffffffffffffffffffffff82036113775761137661130b565b5b600182019050919050565b60006040820190506113976000830185610bac565b6113a46020830184610eba565b9392505050565b7f4f776e61626c653a206e6577206f776e657220697320746865207a65726f206160008201527f6464726573730000000000000000000000000000000000000000000000000000602082015250565b6000611407602683610bc6565b9150611412826113ab565b604082019050919050565b60006020820190508181036000830152611436816113fa565b9050919050565b7f5469636b657473206d7573742062652067726561746572207468616e207a657260008201527f6f00000000000000000000000000000000000000000000000000000000000000602082015250565b6000611499602183610bc6565b91506114a48261143d565b604082019050919050565b600060208201905081810360008301526114c88161148c565b9050919050565b60006020601f8301049050919050565b600082821b905092915050565b60006008830261151c7fffffffffffffffffffffffffffffffffffffffffffffffffffffffffffffffff826114df565b61152686836114df565b95508019841693508086168417925050509392505050565b600061155961155461154f84610b49565b610e25565b610b49565b9050919050565b6000819050919050565b6115738361153e565b61158761157f82611560565b8484546114ec565b825550505050565b600090565b61159c61158f565b6115a781848461156a565b505050565b5b818110156115cb576115c0600082611594565b6001810190506115ad565b5050565b601f821115611610576115e181611200565b6115ea846114cf565b810160208510156115f9578190505b61160d611605856114cf565b8301826115ac565b50505b505050565b600082821c905092915050565b600061163360001984600802611615565b1980831691505092915050565b600061164c8383611622565b9150826002028217905092915050565b61166582610bbb565b67ffffffffffffffff81111561167e5761167d610f6a565b5b6116888254611163565b6116938282856115cf565b600060209050601f8311600181146116c657600084156116b4578287015190505b6116be8582611640565b865550611726565b601f1984166116d486611200565b60005b828110156116fc578489015182556001820191506020850194506020810190506116d7565b868310156117195784890151611715601f891682611622565b8355505b6001600288020188555050505b505050505050565b600060408201905081810360008301526117488185610c12565b90506117576020830184610eba565b9392505050565b7f4f776e61626c653a2063616c6c6572206973206e6f7420746865206f776e6572600082015250565b6000611794602083610bc6565b915061179f8261175e565b602082019050919050565b600060208201905081810360008301526117c381611787565b905091905056fea264697066735822122036172c087d0e99d482fa48b56c484836760bba64cf4cbd8cba460a702ca3c30364736f6c634300081c0033",
  "linkReferences": {},
  "deployedLinkReferences": {}
}