{
  "_format": "hh-sol-artifact-1",
  "contractName": "CustomNFT",
  "sourceName": "contracts/ERC721.sol",
  "abi": [
    {
      "inputs": [],
      "stateMutability": "nonpayable",
      "type": "constructor"
    },
    {
      "anonymous": false,
      "inputs": [
        {
          "indexed": true,
          "internalType": "address",
          "name": "owner",
          "type": "address"
        },
        {
          "indexed": true,
          "internalType": "address",
          "name": "approved",
          "type": "address"
        },
        {
          "indexed": true,
          "internalType": "uint256",
          "name": "tokenId",
          "type": "uint256"
        }
      ],
      "name": "Approval",
      "type": "event"
    },
    {
      "anonymous": false,
      "inputs": [
        {
          "indexed": true,
          "internalType": "address",
          "name": "owner",
          "type": "address"
        },
        {
          "indexed": true,
          "internalType": "address",
          "name": "operator",
          "type": "address"
        },
        {
          "indexed": false,
          "internalType": "bool",
          "name": "approved",
          "type": "bool"
        }
      ],
      "name": "ApprovalForAll",
      "type": "event"
    },
    {
      "anonymous": false,
      "inputs": [
        {
          "indexed": true,
          "internalType": "address",
          "name": "from",
          "type": "address"
        },
        {
          "indexed": true,
          "internalType": "address",
          "name": "to",
          "type": "address"
        },
        {
          "indexed": true,
          "internalType": "uint256",
          "name": "tokenId",
          "type": "uint256"
        }
      ],
      "name": "Transfer",
      "type": "event"
    },
    {
      "inputs": [
        {
          "internalType": "address",
          "name": "to",
          "type": "address"
        },
        {
          "internalType": "uint256",
          "name": "tokenId",
          "type": "uint256"
        }
      ],
      "name": "approve",
      "outputs": [],
      "stateMutability": "nonpayable",
      "type": "function"
    },
    {
      "inputs": [
        {
          "internalType": "address",
          "name": "owner",
          "type": "address"
        }
      ],
      "name": "balanceOf",
      "outputs": [
        {
          "internalType": "uint256",
          "name": "",
          "type": "uint256"
        }
      ],
      "stateMutability": "view",
      "type": "function"
    },
    {
      "inputs": [
        {
          "internalType": "uint256",
          "name": "tokenId",
          "type": "uint256"
        }
      ],
      "name": "getApproved",
      "outputs": [
        {
          "internalType": "address",
          "name": "",
          "type": "address"
        }
      ],
      "stateMutability": "view",
      "type": "function"
    },
    {
      "inputs": [
        {
          "internalType": "address",
          "name": "owner",
          "type": "address"
        },
        {
          "internalType": "address",
          "name": "operator",
          "type": "address"
        }
      ],
      "name": "isApprovedForAll",
      "outputs": [
        {
          "internalType": "bool",
          "name": "",
          "type": "bool"
        }
      ],
      "stateMutability": "view",
      "type": "function"
    },
    {
      "inputs": [],
      "name": "name",
      "outputs": [
        {
          "internalType": "string",
          "name": "",
          "type": "string"
        }
      ],
      "stateMutability": "view",
      "type": "function"
    },
    {
      "inputs": [
        {
          "internalType": "uint256",
          "name": "tokenId",
          "type": "uint256"
        }
      ],
      "name": "ownerOf",
      "outputs": [
        {
          "internalType": "address",
          "name": "",
          "type": "address"
        }
      ],
      "stateMutability": "view",
      "type": "function"
    },
    {
      "inputs": [
        {
          "internalType": "address",
          "name": "to",
          "type": "address"
        },
        {
          "internalType": "string",
          "name": "uri",
          "type": "string"
        }
      ],
      "name": "safeMint",
      "outputs": [],
      "stateMutability": "nonpayable",
      "type": "function"
    },
    {
      "inputs": [
        {
          "internalType": "address",
          "name": "from",
          "type": "address"
        },
        {
          "internalType": "address",
          "name": "to",
          "type": "address"
        },
        {
          "internalType": "uint256",
          "name": "tokenId",
          "type": "uint256"
        }
      ],
      "name": "safeTransferFrom",
      "outputs": [],
      "stateMutability": "nonpayable",
      "type": "function"
    },
    {
      "inputs": [
        {
          "internalType": "address",
          "name": "from",
          "type": "address"
        },
        {
          "internalType": "address",
          "name": "to",
          "type": "address"
        },
        {
          "internalType": "uint256",
          "name": "tokenId",
          "type": "uint256"
        },
        {
          "internalType": "bytes",
          "name": "data",
          "type": "bytes"
        }
      ],
      "name": "safeTransferFrom",
      "outputs": [],
      "stateMutability": "nonpayable",
      "type": "function"
    },
    {
      "inputs": [
        {
          "internalType": "address",
          "name": "operator",
          "type": "address"
        },
        {
          "internalType": "bool",
          "name": "approved",
          "type": "bool"
        }
      ],
      "name": "setApprovalForAll",
      "outputs": [],
      "stateMutability": "nonpayable",
      "type": "function"
    },
    {
      "inputs": [],
      "name": "symbol",
      "outputs": [
        {
          "internalType": "string",
          "name": "",
          "type": "string"
        }
      ],
      "stateMutability": "view",
      "type": "function"
    },
    {
      "inputs": [
        {
          "internalType": "uint256",
          "name": "tokenId",
          "type": "uint256"
        }
      ],
      "name": "tokenURI",
      "outputs": [
        {
          "internalType": "string",
          "name": "",
          "type": "string"
        }
      ],
      "stateMutability": "view",
      "type": "function"
    },
    {
      "inputs": [
        {
          "internalType": "address",
          "name": "from",
          "type": "address"
        },
        {
          "internalType": "address",
          "name": "to",
          "type": "address"
        },
        {
          "internalType": "uint256",
          "name": "tokenId",
          "type": "uint256"
        }
      ],
      "name": "transferFrom",
      "outputs": [],
      "stateMutability": "nonpayable",
      "type": "function"
    }
  ],
  "bytecode": "0x60806040526040518060400160405280600881526020017f414d4153204e46540000000000000000000000000000000000000000000000008152506000908161004891906102f8565b506040518060400160405280600381526020017f414d5300000000000000000000000000000000000000000000000000000000008152506001908161008d91906102f8565b5034801561009a57600080fd5b5060006002819055506103ca565b600081519050919050565b7f4e487b7100000000000000000000000000000000000000000000000000000000600052604160045260246000fd5b7f4e487b7100000000000000000000000000000000000000000000000000000000600052602260045260246000fd5b6000600282049050600182168061012957607f821691505b60208210810361013c5761013b6100e2565b5b50919050565b60008190508160005260206000209050919050565b60006020601f8301049050919050565b600082821b905092915050565b6000600883026101a47fffffffffffffffffffffffffffffffffffffffffffffffffffffffffffffffff82610167565b6101ae8683610167565b95508019841693508086168417925050509392505050565b6000819050919050565b6000819050919050565b60006101f56101f06101eb846101c6565b6101d0565b6101c6565b9050919050565b6000819050919050565b61020f836101da565b61022361021b826101fc565b848454610174565b825550505050565b600090565b61023861022b565b610243818484610206565b505050565b5b818110156102675761025c600082610230565b600181019050610249565b5050565b601f8211156102ac5761027d81610142565b61028684610157565b81016020851015610295578190505b6102a96102a185610157565b830182610248565b50505b505050565b600082821c905092915050565b60006102cf600019846008026102b1565b1980831691505092915050565b60006102e883836102be565b9150826002028217905092915050565b610301826100a8565b67ffffffffffffffff81111561031a576103196100b3565b5b6103248254610111565b61032f82828561026b565b600060209050601f8311600181146103625760008415610350578287015190505b61035a85826102dc565b8655506103c2565b601f19841661037086610142565b60005b8281101561039857848901518255600182019150602085019450602081019050610373565b868310156103b557848901516103b1601f8916826102be565b8355505b6001600288020188555050505b505050505050565b612746806103d96000396000f3fe608060405234801561001057600080fd5b50600436106100cf5760003560e01c806370a082311161008c578063b88d4fde11610066578063b88d4fde14610210578063c87b56dd1461022c578063d204c45e1461025c578063e985e9c514610278576100cf565b806370a08231146101a657806395d89b41146101d6578063a22cb465146101f4576100cf565b806306fdde03146100d4578063081812fc146100f2578063095ea7b31461012257806323b872dd1461013e57806342842e0e1461015a5780636352211e14610176575b600080fd5b6100dc6102a8565b6040516100e991906119a6565b60405180910390f35b61010c60048036038101906101079190611a12565b610336565b6040516101199190611a80565b60405180910390f35b61013c60048036038101906101379190611ac7565b6103bb565b005b61015860048036038101906101539190611b07565b610555565b005b610174600480360381019061016f9190611b07565b610a2c565b005b610190600480360381019061018b9190611a12565b610c1c565b60405161019d9190611a80565b60405180910390f35b6101c060048036038101906101bb9190611b5a565b610ca1565b6040516101cd9190611b96565b60405180910390f35b6101de610d58565b6040516101eb91906119a6565b60405180910390f35b61020e60048036038101906102099190611be9565b610de6565b005b61022a60048036038101906102259190611c8e565b610ee3565b005b61024660048036038101906102419190611a12565b61110a565b60405161025391906119a6565b60405180910390f35b61027660048036038101906102719190611e46565b6111f7565b005b610292600480360381019061028d9190611ea2565b6113aa565b60405161029f9190611ef1565b60405180910390f35b600080546102b590611f3b565b80601f01602080910402602001604051908101604052809291908181526020018280546102e190611f3b565b801561032e5780601f106103035761010080835404028352916020019161032e565b820191906000526020600020905b81548152906001019060200180831161031157829003601f168201915b505050505081565b60006103418261143e565b610380576040517f08c379a000000000000000000000000000000000000000000000000000000000815260040161037790611fb8565b60405180910390fd5b6005600083815260200190815260200160002060009054906101000a900473ffffffffffffffffffffffffffffffffffffffff169050919050565b6103c48161143e565b610403576040517f08c379a00000000000000000000000000000000000000000000000000000000081526004016103fa90611fb8565b60405180910390fd5b6003600082815260200190815260200160002060009054906101000a900473ffffffffffffffffffffffffffffffffffffffff1673ffffffffffffffffffffffffffffffffffffffff163373ffffffffffffffffffffffffffffffffffffffff16146104a4576040517f08c379a000000000000000000000000000000000000000000000000000000000815260040161049b90612024565b60405180910390fd5b816005600083815260200190815260200160002060006101000a81548173ffffffffffffffffffffffffffffffffffffffff021916908373ffffffffffffffffffffffffffffffffffffffff160217905550808273ffffffffffffffffffffffffffffffffffffffff163373ffffffffffffffffffffffffffffffffffffffff167f8c5be1e5ebec7d5bd14f71427d1e84f3dd0314c0f7b2291e5b200ac8c7c3b92560405160405180910390a45050565b806003600082815260200190815260200160002060009054906101000a900473ffffffffffffffffffffffffffffffffffffffff1673ffffffffffffffffffffffffffffffffffffffff163373ffffffffffffffffffffffffffffffffffffffff16148061062157506005600082815260200190815260200160002060009054906101000a900473ffffffffffffffffffffffffffffffffffffffff1673ffffffffffffffffffffffffffffffffffffffff163373ffffffffffffffffffffffffffffffffffffffff16145b806106e55750600660006003600084815260200190815260200160002060009054906101000a900473ffffffffffffffffffffffffffffffffffffffff1673ffffffffffffffffffffffffffffffffffffffff1673ffffffffffffffffffffffffffffffffffffffff16815260200190815260200160002060003373ffffffffffffffffffffffffffffffffffffffff1673ffffffffffffffffffffffffffffffffffffffff16815260200190815260200160002060009054906101000a900460ff165b610724576040517f08c379a000000000000000000000000000000000000000000000000000000000815260040161071b90612090565b60405180910390fd5b61072d8261143e565b61076c576040517f08c379a000000000000000000000000000000000000000000000000000000000815260040161076390611fb8565b60405180910390fd5b8373ffffffffffffffffffffffffffffffffffffffff166003600084815260200190815260200160002060009054906101000a900473ffffffffffffffffffffffffffffffffffffffff1673ffffffffffffffffffffffffffffffffffffffff161461080d576040517f08c379a0000000000000000000000000000000000000000000000000000000008152600401610804906120fc565b60405180910390fd5b600073ffffffffffffffffffffffffffffffffffffffff168373ffffffffffffffffffffffffffffffffffffffff160361087c576040517f08c379a000000000000000000000000000000000000000000000000000000000815260040161087390612168565b60405180910390fd5b60006005600084815260200190815260200160002060006101000a81548173ffffffffffffffffffffffffffffffffffffffff021916908373ffffffffffffffffffffffffffffffffffffffff160217905550600460008573ffffffffffffffffffffffffffffffffffffffff1673ffffffffffffffffffffffffffffffffffffffff168152602001908152602001600020600081548092919061091f906121b7565b9190505550600460008473ffffffffffffffffffffffffffffffffffffffff1673ffffffffffffffffffffffffffffffffffffffff1681526020019081526020016000206000815480929190610974906121e0565b9190505550826003600084815260200190815260200160002060006101000a81548173ffffffffffffffffffffffffffffffffffffffff021916908373ffffffffffffffffffffffffffffffffffffffff160217905550818373ffffffffffffffffffffffffffffffffffffffff168573ffffffffffffffffffffffffffffffffffffffff167fddf252ad1be2c89b69c2b068fc378daa952ba7f163c4a11628f55a4df523b3ef60405160405180910390a450505050565b806003600082815260200190815260200160002060009054906101000a900473ffffffffffffffffffffffffffffffffffffffff1673ffffffffffffffffffffffffffffffffffffffff163373ffffffffffffffffffffffffffffffffffffffff161480610af857506005600082815260200190815260200160002060009054906101000a900473ffffffffffffffffffffffffffffffffffffffff1673ffffffffffffffffffffffffffffffffffffffff163373ffffffffffffffffffffffffffffffffffffffff16145b80610bbc5750600660006003600084815260200190815260200160002060009054906101000a900473ffffffffffffffffffffffffffffffffffffffff1673ffffffffffffffffffffffffffffffffffffffff1673ffffffffffffffffffffffffffffffffffffffff16815260200190815260200160002060003373ffffffffffffffffffffffffffffffffffffffff1673ffffffffffffffffffffffffffffffffffffffff16815260200190815260200160002060009054906101000a900460ff165b610bfb576040517f08c379a0000000000000000000000000000000000000000000000000000000008152600401610bf290612090565b60405180910390fd5b610c16848484604051806020016040528060008152506114aa565b50505050565b6000610c278261143e565b610c66576040517f08c379a0000000000000000000000000000000000000000000000000000000008152600401610c5d90611fb8565b60405180910390fd5b6003600083815260200190815260200160002060009054906101000a900473ffffffffffffffffffffffffffffffffffffffff169050919050565b60008073ffffffffffffffffffffffffffffffffffffffff168273ffffffffffffffffffffffffffffffffffffffff1603610d11576040517f08c379a0000000000000000000000000000000000000000000000000000000008152600401610d0890612274565b60405180910390fd5b600460008373ffffffffffffffffffffffffffffffffffffffff1673ffffffffffffffffffffffffffffffffffffffff168152602001908152602001600020549050919050565b60018054610d6590611f3b565b80601f0160208091040260200160405190810160405280929190818152602001828054610d9190611f3b565b8015610dde5780601f10610db357610100808354040283529160200191610dde565b820191906000526020600020905b815481529060010190602001808311610dc157829003601f168201915b505050505081565b80600660003373ffffffffffffffffffffffffffffffffffffffff1673ffffffffffffffffffffffffffffffffffffffff16815260200190815260200160002060008473ffffffffffffffffffffffffffffffffffffffff1673ffffffffffffffffffffffffffffffffffffffff16815260200190815260200160002060006101000a81548160ff0219169083151502179055508173ffffffffffffffffffffffffffffffffffffffff163373ffffffffffffffffffffffffffffffffffffffff167f17307eab39ab6107e8899845ad3d59bd9653f200f220920489ca2b5937696c3183604051610ed79190611ef1565b60405180910390a35050565b826003600082815260200190815260200160002060009054906101000a900473ffffffffffffffffffffffffffffffffffffffff1673ffffffffffffffffffffffffffffffffffffffff163373ffffffffffffffffffffffffffffffffffffffff161480610faf57506005600082815260200190815260200160002060009054906101000a900473ffffffffffffffffffffffffffffffffffffffff1673ffffffffffffffffffffffffffffffffffffffff163373ffffffffffffffffffffffffffffffffffffffff16145b806110735750600660006003600084815260200190815260200160002060009054906101000a900473ffffffffffffffffffffffffffffffffffffffff1673ffffffffffffffffffffffffffffffffffffffff1673ffffffffffffffffffffffffffffffffffffffff16815260200190815260200160002060003373ffffffffffffffffffffffffffffffffffffffff1673ffffffffffffffffffffffffffffffffffffffff16815260200190815260200160002060009054906101000a900460ff165b6110b2576040517f08c379a00000000000000000000000000000000000000000000000000000000081526004016110a990612090565b60405180910390fd5b61110286868686868080601f016020809104026020016040519081016040528093929190818152602001838380828437600081840152601f19601f820116905080830192505050505050506114aa565b505050505050565b60606111158261143e565b611154576040517f08c379a000000000000000000000000000000000000000000000000000000000815260040161114b90611fb8565b60405180910390fd5b60076000838152602001908152602001600020805461117290611f3b565b80601f016020809104026020016040519081016040528092919081815260200182805461119e90611f3b565b80156111eb5780601f106111c0576101008083540402835291602001916111eb565b820191906000526020600020905b8154815290600101906020018083116111ce57829003601f168201915b50505050509050919050565b600073ffffffffffffffffffffffffffffffffffffffff168273ffffffffffffffffffffffffffffffffffffffff1603611266576040517f08c379a000000000000000000000000000000000000000000000000000000000815260040161125d90612274565b60405180910390fd5b60006002600081548092919061127b906121e0565b919050559050826003600083815260200190815260200160002060006101000a81548173ffffffffffffffffffffffffffffffffffffffff021916908373ffffffffffffffffffffffffffffffffffffffff160217905550600460008473ffffffffffffffffffffffffffffffffffffffff1673ffffffffffffffffffffffffffffffffffffffff1681526020019081526020016000206000815480929190611323906121e0565b9190505550816007600083815260200190815260200160002090816113489190612440565b50808373ffffffffffffffffffffffffffffffffffffffff16600073ffffffffffffffffffffffffffffffffffffffff167fddf252ad1be2c89b69c2b068fc378daa952ba7f163c4a11628f55a4df523b3ef60405160405180910390a4505050565b6000600660008473ffffffffffffffffffffffffffffffffffffffff1673ffffffffffffffffffffffffffffffffffffffff16815260200190815260200160002060008373ffffffffffffffffffffffffffffffffffffffff1673ffffffffffffffffffffffffffffffffffffffff16815260200190815260200160002060009054906101000a900460ff16905092915050565b60008073ffffffffffffffffffffffffffffffffffffffff166003600084815260200190815260200160002060009054906101000a900473ffffffffffffffffffffffffffffffffffffffff1673ffffffffffffffffffffffffffffffffffffffff1614159050919050565b6114b38261143e565b6114f2576040517f08c379a00000000000000000000000000000000000000000000000000000000081526004016114e990611fb8565b60405180910390fd5b8373ffffffffffffffffffffffffffffffffffffffff166003600084815260200190815260200160002060009054906101000a900473ffffffffffffffffffffffffffffffffffffffff1673ffffffffffffffffffffffffffffffffffffffff1614611593576040517f08c379a000000000000000000000000000000000000000000000000000000000815260040161158a906120fc565b60405180910390fd5b600073ffffffffffffffffffffffffffffffffffffffff168373ffffffffffffffffffffffffffffffffffffffff1603611602576040517f08c379a00000000000000000000000000000000000000000000000000000000081526004016115f990612168565b60405180910390fd5b60006005600084815260200190815260200160002060006101000a81548173ffffffffffffffffffffffffffffffffffffffff021916908373ffffffffffffffffffffffffffffffffffffffff160217905550600460008573ffffffffffffffffffffffffffffffffffffffff1673ffffffffffffffffffffffffffffffffffffffff16815260200190815260200160002060008154809291906116a5906121b7565b9190505550600460008473ffffffffffffffffffffffffffffffffffffffff1673ffffffffffffffffffffffffffffffffffffffff16815260200190815260200160002060008154809291906116fa906121e0565b9190505550826003600084815260200190815260200160002060006101000a81548173ffffffffffffffffffffffffffffffffffffffff021916908373ffffffffffffffffffffffffffffffffffffffff160217905550818373ffffffffffffffffffffffffffffffffffffffff168573ffffffffffffffffffffffffffffffffffffffff167fddf252ad1be2c89b69c2b068fc378daa952ba7f163c4a11628f55a4df523b3ef60405160405180910390a46117b583611903565b156118fd578273ffffffffffffffffffffffffffffffffffffffff1663150b7a02338685856040518563ffffffff1660e01b81526004016117f99493929190612567565b6020604051808303816000875af192505050801561183557506040513d601f19601f82011682018060405250810190611832919061260b565b60015b611874576040517f08c379a000000000000000000000000000000000000000000000000000000000815260040161186b90612684565b60405180910390fd5b63150b7a0260e01b7bffffffffffffffffffffffffffffffffffffffffffffffffffffffff1916817bffffffffffffffffffffffffffffffffffffffffffffffffffffffff1916146118fb576040517f08c379a00000000000000000000000000000000000000000000000000000000081526004016118f2906126f0565b60405180910390fd5b505b50505050565b600080823b905060008111915050919050565b600081519050919050565b600082825260208201905092915050565b60005b83811015611950578082015181840152602081019050611935565b60008484015250505050565b6000601f19601f8301169050919050565b600061197882611916565b6119828185611921565b9350611992818560208601611932565b61199b8161195c565b840191505092915050565b600060208201905081810360008301526119c0818461196d565b905092915050565b6000604051905090565b600080fd5b600080fd5b6000819050919050565b6119ef816119dc565b81146119fa57600080fd5b50565b600081359050611a0c816119e6565b92915050565b600060208284031215611a2857611a276119d2565b5b6000611a36848285016119fd565b91505092915050565b600073ffffffffffffffffffffffffffffffffffffffff82169050919050565b6000611a6a82611a3f565b9050919050565b611a7a81611a5f565b82525050565b6000602082019050611a956000830184611a71565b92915050565b611aa481611a5f565b8114611aaf57600080fd5b50565b600081359050611ac181611a9b565b92915050565b60008060408385031215611ade57611add6119d2565b5b6000611aec85828601611ab2565b9250506020611afd858286016119fd565b9150509250929050565b600080600060608486031215611b2057611b1f6119d2565b5b6000611b2e86828701611ab2565b9350506020611b3f86828701611ab2565b9250506040611b50868287016119fd565b9150509250925092565b600060208284031215611b7057611b6f6119d2565b5b6000611b7e84828501611ab2565b91505092915050565b611b90816119dc565b82525050565b6000602082019050611bab6000830184611b87565b92915050565b60008115159050919050565b611bc681611bb1565b8114611bd157600080fd5b50565b600081359050611be381611bbd565b92915050565b60008060408385031215611c0057611bff6119d2565b5b6000611c0e85828601611ab2565b9250506020611c1f85828601611bd4565b9150509250929050565b600080fd5b600080fd5b600080fd5b60008083601f840112611c4e57611c4d611c29565b5b8235905067ffffffffffffffff811115611c6b57611c6a611c2e565b5b602083019150836001820283011115611c8757611c86611c33565b5b9250929050565b600080600080600060808688031215611caa57611ca96119d2565b5b6000611cb888828901611ab2565b9550506020611cc988828901611ab2565b9450506040611cda888289016119fd565b935050606086013567ffffffffffffffff811115611cfb57611cfa6119d7565b5b611d0788828901611c38565b92509250509295509295909350565b600080fd5b7f4e487b7100000000000000000000000000000000000000000000000000000000600052604160045260246000fd5b611d538261195c565b810181811067ffffffffffffffff82111715611d7257611d71611d1b565b5b80604052505050565b6000611d856119c8565b9050611d918282611d4a565b919050565b600067ffffffffffffffff821115611db157611db0611d1b565b5b611dba8261195c565b9050602081019050919050565b82818337600083830152505050565b6000611de9611de484611d96565b611d7b565b905082815260208101848484011115611e0557611e04611d16565b5b611e10848285611dc7565b509392505050565b600082601f830112611e2d57611e2c611c29565b5b8135611e3d848260208601611dd6565b91505092915050565b60008060408385031215611e5d57611e5c6119d2565b5b6000611e6b85828601611ab2565b925050602083013567ffffffffffffffff811115611e8c57611e8b6119d7565b5b611e9885828601611e18565b9150509250929050565b60008060408385031215611eb957611eb86119d2565b5b6000611ec785828601611ab2565b9250506020611ed885828601611ab2565b9150509250929050565b611eeb81611bb1565b82525050565b6000602082019050611f066000830184611ee2565b92915050565b7f4e487b7100000000000000000000000000000000000000000000000000000000600052602260045260246000fd5b60006002820490506001821680611f5357607f821691505b602082108103611f6657611f65611f0c565b5b50919050565b7f546f6b656e20646f6573206e6f74206578697374000000000000000000000000600082015250565b6000611fa2601483611921565b9150611fad82611f6c565b602082019050919050565b60006020820190508181036000830152611fd181611f95565b9050919050565b7f4e6f7420746f6b656e206f776e65720000000000000000000000000000000000600082015250565b600061200e600f83611921565b915061201982611fd8565b602082019050919050565b6000602082019050818103600083015261203d81612001565b9050919050565b7f4e6f7420617574686f72697a6564000000000000000000000000000000000000600082015250565b600061207a600e83611921565b915061208582612044565b602082019050919050565b600060208201905081810360008301526120a98161206d565b9050919050565b7f496e76616c69642066726f6d2061646472657373000000000000000000000000600082015250565b60006120e6601483611921565b91506120f1826120b0565b602082019050919050565b60006020820190508181036000830152612115816120d9565b9050919050565b7f496e76616c696420746f20616464726573730000000000000000000000000000600082015250565b6000612152601283611921565b915061215d8261211c565b602082019050919050565b6000602082019050818103600083015261218181612145565b9050919050565b7f4e487b7100000000000000000000000000000000000000000000000000000000600052601160045260246000fd5b60006121c2826119dc565b9150600082036121d5576121d4612188565b5b600182039050919050565b60006121eb826119dc565b91507fffffffffffffffffffffffffffffffffffffffffffffffffffffffffffffffff820361221d5761221c612188565b5b600182019050919050565b7f496e76616c696420616464726573730000000000000000000000000000000000600082015250565b600061225e600f83611921565b915061226982612228565b602082019050919050565b6000602082019050818103600083015261228d81612251565b9050919050565b60008190508160005260206000209050919050565b60006020601f8301049050919050565b600082821b905092915050565b6000600883026122f67fffffffffffffffffffffffffffffffffffffffffffffffffffffffffffffffff826122b9565b61230086836122b9565b95508019841693508086168417925050509392505050565b6000819050919050565b600061233d612338612333846119dc565b612318565b6119dc565b9050919050565b6000819050919050565b61235783612322565b61236b61236382612344565b8484546122c6565b825550505050565b600090565b612380612373565b61238b81848461234e565b505050565b5b818110156123af576123a4600082612378565b600181019050612391565b5050565b601f8211156123f4576123c581612294565b6123ce846122a9565b810160208510156123dd578190505b6123f16123e9856122a9565b830182612390565b50505b505050565b600082821c905092915050565b6000612417600019846008026123f9565b1980831691505092915050565b60006124308383612406565b9150826002028217905092915050565b61244982611916565b67ffffffffffffffff81111561246257612461611d1b565b5b61246c8254611f3b565b6124778282856123b3565b600060209050601f8311600181146124aa5760008415612498578287015190505b6124a28582612424565b86555061250a565b601f1984166124b886612294565b60005b828110156124e0578489015182556001820191506020850194506020810190506124bb565b868310156124fd57848901516124f9601f891682612406565b8355505b6001600288020188555050505b505050505050565b600081519050919050565b600082825260208201905092915050565b600061253982612512565b612543818561251d565b9350612553818560208601611932565b61255c8161195c565b840191505092915050565b600060808201905061257c6000830187611a71565b6125896020830186611a71565b6125966040830185611b87565b81810360608301526125a8818461252e565b905095945050505050565b60007fffffffff0000000000000000000000000000000000000000000000000000000082169050919050565b6125e8816125b3565b81146125f357600080fd5b50565b600081519050612605816125df565b92915050565b600060208284031215612621576126206119d2565b5b600061262f848285016125f6565b91505092915050565b7f526563697069656e74206e6f7420636f6d70617469626c650000000000000000600082015250565b600061266e601883611921565b915061267982612638565b602082019050919050565b6000602082019050818103600083015261269d81612661565b9050919050565b7f526563697069656e742072656a65637465640000000000000000000000000000600082015250565b60006126da601283611921565b91506126e5826126a4565b602082019050919050565b60006020820190508181036000830152612709816126cd565b905091905056fea26469706673582212202186addd0462a1b964795b6a7e14a92d388ccd7c71bd2a5b9681a9b01fbbf7a864736f6c634300081c0033",
  "linkReferences": {},
  "deployedLinkReferences": {}
}