{"contracts/FactorySavings.sol":{"FactorySavings":{"abi":[{"inputs":[],"stateMutability":"nonpayable","type":"constructor"},{"anonymous":false,"inputs":[{"indexed":true,"internalType":"address","name":"creator","type":"address"},{"indexed":false,"internalType":"address","name":"bank","type":"address"},{"indexed":false,"internalType":"string","name":"name","type":"string"}],"name":"BankCreated","type":"event"},{"anonymous":false,"inputs":[{"indexed":true,"internalType":"address","name":"joiner","type":"address"},{"indexed":false,"internalType":"address","name":"bank","type":"address"},{"indexed":false,"internalType":"uint256","name":"amount","type":"uint256"}],"name":"BankJoined","type":"event"},{"inputs":[],"name":"admin","outputs":[{"internalType":"address","name":"","type":"address"}],"stateMutability":"view","type":"function"},{"inputs":[{"internalType":"string","name":"_bankName","type":"string"},{"internalType":"address","name":"_tokenAddress","type":"address"},{"internalType":"uint256","name":"_amount","type":"uint256"},{"internalType":"uint256","name":"_lockPeriod","type":"uint256"}],"name":"createBank","outputs":[],"stateMutability":"payable","type":"function"},{"inputs":[{"internalType":"address","name":"user","type":"address"},{"internalType":"address","name":"token","type":"address"}],"name":"getTotalBalance","outputs":[{"internalType":"uint256","name":"total","type":"uint256"}],"stateMutability":"view","type":"function"},{"inputs":[{"internalType":"address","name":"user","type":"address"}],"name":"getTotalBanks","outputs":[{"internalType":"uint256","name":"","type":"uint256"}],"stateMutability":"view","type":"function"},{"inputs":[{"internalType":"address","name":"user","type":"address"}],"name":"getUserBanks","outputs":[{"components":[{"internalType":"string","name":"bankName","type":"string"},{"internalType":"address","name":"bankAddress","type":"address"}],"internalType":"struct FactorySavings.BankDetails[]","name":"","type":"tuple[]"}],"stateMutability":"view","type":"function"},{"inputs":[{"internalType":"address","name":"userAddress","type":"address"},{"internalType":"uint256","name":"bankId","type":"uint256"},{"internalType":"uint256","name":"_amount","type":"uint256"}],"name":"joinBank","outputs":[],"stateMutability":"payable","type":"function"},{"inputs":[{"internalType":"address","name":"","type":"address"},{"internalType":"uint256","name":"","type":"uint256"}],"name":"userBanks","outputs":[{"internalType":"string","name":"bankName","type":"string"},{"internalType":"address","name":"bankAddress","type":"address"}],"stateMutability":"view","type":"function"}],"evm":{"bytecode":{"linkReferences":{},"object":"6080604052348015600f57600080fd5b50602867b0f57c1c4b43ab6b60c01b608460201b60201c565b6040670f5aa121d5ff1d7a60c01b608460201b60201c565b336000806101000a81548173ffffffffffffffffffffffffffffffffffffffff021916908373ffffffffffffffffffffffffffffffffffffffff1602179055506087565b50565b61355c806100966000396000f3fe6080604052600436106100705760003560e01c806378b2ad601161004e57806378b2ad60146100ea578063b35c5e3014610127578063df72a00914610165578063f851a440146101a257610070565b80632797f1f9146100755780632baed4e41461009157806351bd551f146100ad575b600080fd5b61008f600480360381019061008a91906113e1565b6101cd565b005b6100ab60048036038101906100a6919061157a565b610806565b005b3480156100b957600080fd5b506100d460048036038101906100cf91906115fd565b610bdf565b6040516100e1919061164c565b60405180910390f35b3480156100f657600080fd5b50610111600480360381019061010c9190611667565b610fd2565b60405161011e919061164c565b60405180910390f35b34801561013357600080fd5b5061014e60048036038101906101499190611694565b61105a565b60405161015c929190611762565b60405180910390f35b34801561017157600080fd5b5061018c60048036038101906101879190611667565b611143565b60405161019991906118ea565b60405180910390f35b3480156101ae57600080fd5b506101b7611305565b6040516101c4919061190c565b60405180910390f35b6101e1677069a58c992b164460c01b611329565b6101f567231fcfa01de73dd860c01b611329565b61020967805cb2aa3b69ae5a60c01b611329565b61021d67a6589f391b5958de60c01b611329565b600160008473ffffffffffffffffffffffffffffffffffffffff1673ffffffffffffffffffffffffffffffffffffffff1681526020019081526020016000208054905082106102a1576040517f08c379a000000000000000000000000000000000000000000000000000000000815260040161029890611973565b60405180910390fd5b6102b5677dde4fd2cfdc13ea60c01b611329565b6102c9675c57071132037b5760c01b611329565b6102dd672765052b08aa114960c01b611329565b6000600160008573ffffffffffffffffffffffffffffffffffffffff1673ffffffffffffffffffffffffffffffffffffffff16815260200190815260200160002083815481106103305761032f611993565b5b906000526020600020906002020160010160009054906101000a900473ffffffffffffffffffffffffffffffffffffffff169050610378677599f965b846029560c01b611329565b61038c6714559862a0af7f2a60c01b611329565b60008190506103a567cc759c21b0dfc3ea60c01b611329565b6103b967155bf81148569fb260c01b611329565b600073ffffffffffffffffffffffffffffffffffffffff168173ffffffffffffffffffffffffffffffffffffffff16639d76ea586040518163ffffffff1660e01b8152600401602060405180830381865afa15801561041c573d6000803e3d6000fd5b505050506040513d601f19601f8201168201806040525081019061044091906119d7565b73ffffffffffffffffffffffffffffffffffffffff160361059a5761046f67bd32d0793d75cdb860c01b611329565b610483673cae5367f4c66bc060c01b611329565b610497677e92d9c3e753e24860c01b611329565b6104ab67a0c6cbd6a414d8cb60c01b611329565b8234146104ed576040517f08c379a00000000000000000000000000000000000000000000000000000000081526004016104e490611a50565b60405180910390fd5b610501673c6505c1725ef71860c01b611329565b61051567f004c07fedbafb6b60c01b611329565b610529673b562886aad5864760c01b611329565b8073ffffffffffffffffffffffffffffffffffffffff1663b6b55f2534856040518363ffffffff1660e01b8152600401610563919061164c565b6000604051808303818588803b15801561057c57600080fd5b505af1158015610590573d6000803e3d6000fd5b5050505050610787565b6105ae671533c8a41c22493f60c01b611329565b6105c267772d92b8f1f1d8ea60c01b611329565b6105d667c12d04c68ef2e2e860c01b611329565b60008173ffffffffffffffffffffffffffffffffffffffff16639d76ea586040518163ffffffff1660e01b8152600401602060405180830381865afa158015610623573d6000803e3d6000fd5b505050506040513d601f19601f8201168201806040525081019061064791906119d7565b905061065d6768b61eb0e22a1ac060c01b611329565b61067167348d0f9845a6ab5160c01b611329565b8073ffffffffffffffffffffffffffffffffffffffff166323b872dd3385876040518463ffffffff1660e01b81526004016106ae93929190611a70565b6020604051808303816000875af11580156106cd573d6000803e3d6000fd5b505050506040513d601f19601f820116820180604052508101906106f19190611adf565b5061070667f8c447111283427060c01b611329565b61071a67fd74097d6796a83f60c01b611329565b8173ffffffffffffffffffffffffffffffffffffffff1663b6b55f25856040518263ffffffff1660e01b8152600401610753919061164c565b600060405180830381600087803b15801561076d57600080fd5b505af1158015610781573d6000803e3d6000fd5b50505050505b61079b678d0f3c692af1c26260c01b611329565b6107af67108192bf360918d760c01b611329565b3373ffffffffffffffffffffffffffffffffffffffff167f252515011f6a0eac8ee673c166577d073e78c27944c18dbc3d7da5bfb5f83d1583856040516107f7929190611b0c565b60405180910390a25050505050565b61081a676c87054fb83b512360c01b611329565b61082e67017c1d387a02e0cd60c01b611329565b610842679f183d306b3a356c60c01b611329565b6000610858678b05423b4d07d09c60c01b611329565b61086c67aef4f2c0f439cfc560c01b611329565b600073ffffffffffffffffffffffffffffffffffffffff168473ffffffffffffffffffffffffffffffffffffffff16036109bf576108b467159a06f71e08dc6360c01b611329565b6108c8678f44d100063ec86d60c01b611329565b6108dc677a6ffd6d34f15a4d60c01b611329565b6108f067a87404766382ffb660c01b611329565b823414610932576040517f08c379a000000000000000000000000000000000000000000000000000000000815260040161092990611a50565b60405180910390fd5b61094667dd6f9c478f4123b660c01b611329565b61095a672e723edab2ab0b1b60c01b611329565b343385858560008054906101000a900473ffffffffffffffffffffffffffffffffffffffff1660405161098c9061132c565b61099a959493929190611b35565b6040518091039082f09050801580156109b7573d6000803e3d6000fd5b509050610a46565b6109d3679c79f242187ac23660c01b611329565b6109e767b76036f6f207f62260c01b611329565b3384848460008054906101000a900473ffffffffffffffffffffffffffffffffffffffff16604051610a189061132c565b610a26959493929190611b35565b604051809103906000f080158015610a42573d6000803e3d6000fd5b5090505b610a5a6732eaca9e418fe72b60c01b611329565b610a6e67270b6ef2e4a4017e60c01b611329565b600160003373ffffffffffffffffffffffffffffffffffffffff1673ffffffffffffffffffffffffffffffffffffffff16815260200190815260200160002060405180604001604052808781526020018373ffffffffffffffffffffffffffffffffffffffff1681525090806001815401808255809150506001900390600052602060002090600202016000909190919091506000820151816000019081610b169190611d94565b5060208201518160010160006101000a81548173ffffffffffffffffffffffffffffffffffffffff021916908373ffffffffffffffffffffffffffffffffffffffff1602179055505050610b746758e7822b43d64e4360c01b611329565b610b8867f450abfe82c2632560c01b611329565b3373ffffffffffffffffffffffffffffffffffffffff167f99d0b6013d11dec0b9d584daa98d2c97b376bea6f3b45b8066dd7b8b64699ef48287604051610bd0929190611e66565b60405180910390a25050505050565b6000610bf56789b4c6fd3065d54c60c01b611329565b610c09673af003a43064517460c01b611329565b610c1d67ed57213a5e3a3a7b60c01b611329565b6000600160008573ffffffffffffffffffffffffffffffffffffffff1673ffffffffffffffffffffffffffffffffffffffff168152602001908152602001600020805480602002602001604051908101604052809291908181526020016000905b82821015610d985783829060005260206000209060020201604051806040016040529081600082018054610cb190611bb7565b80601f0160208091040260200160405190810160405280929190818152602001828054610cdd90611bb7565b8015610d2a5780601f10610cff57610100808354040283529160200191610d2a565b820191906000526020600020905b815481529060010190602001808311610d0d57829003601f168201915b505050505081526020016001820160009054906101000a900473ffffffffffffffffffffffffffffffffffffffff1673ffffffffffffffffffffffffffffffffffffffff1673ffffffffffffffffffffffffffffffffffffffff168152505081526020019060010190610c7e565b505050509050610db267db888943bf43ee8d60c01b611329565b60009150610dca67c134229f9bcc237d60c01b611329565b610dde67782b8c5cf3d965c060c01b611329565b60005b8151811015610fca57610dfe6702c2ea2d4dbde07a60c01b611329565b610e1267f08d09a118558d0960c01b611329565b6000828281518110610e2757610e26611993565b5b6020026020010151602001519050610e4967745ea01da7cfaf0e60c01b611329565b610e5d67c1588e03c10896f360c01b611329565b8473ffffffffffffffffffffffffffffffffffffffff168173ffffffffffffffffffffffffffffffffffffffff16639d76ea586040518163ffffffff1660e01b8152600401602060405180830381865afa158015610ebf573d6000803e3d6000fd5b505050506040513d601f19601f82011682018060405250810190610ee391906119d7565b73ffffffffffffffffffffffffffffffffffffffff1603610fa757610f1267716a72a54a3495f260c01b611329565b610f2667e3e110280f29541760c01b611329565b8073ffffffffffffffffffffffffffffffffffffffff166312065fe06040518163ffffffff1660e01b8152600401602060405180830381865afa158015610f71573d6000803e3d6000fd5b505050506040513d601f19601f82011682018060405250810190610f959190611eab565b84610fa09190611f07565b9350610fbc565b610fbb6793b0431f3451f69360c01b611329565b5b508080600101915050610de1565b505092915050565b6000610fe867b8bfec6c7d3ef6ec60c01b611329565b610ffc6769c855ed6b1437f360c01b611329565b61101067f23e38f44235b9e360c01b611329565b600160008373ffffffffffffffffffffffffffffffffffffffff1673ffffffffffffffffffffffffffffffffffffffff168152602001908152602001600020805490509050919050565b6001602052816000526040600020818154811061107657600080fd5b90600052602060002090600202016000915091505080600001805461109a90611bb7565b80601f01602080910402602001604051908101604052809291908181526020018280546110c690611bb7565b80156111135780601f106110e857610100808354040283529160200191611113565b820191906000526020600020905b8154815290600101906020018083116110f657829003601f168201915b5050505050908060010160009054906101000a900473ffffffffffffffffffffffffffffffffffffffff16905082565b6060611159672d0403d228b51e8e60c01b611329565b61116d6701888b02cd04569560c01b611329565b611181677b053d5b80cfd91860c01b611329565b600160008373ffffffffffffffffffffffffffffffffffffffff1673ffffffffffffffffffffffffffffffffffffffff168152602001908152602001600020805480602002602001604051908101604052809291908181526020016000905b828210156112fa578382906000526020600020906002020160405180604001604052908160008201805461121390611bb7565b80601f016020809104026020016040519081016040528092919081815260200182805461123f90611bb7565b801561128c5780601f106112615761010080835404028352916020019161128c565b820191906000526020600020905b81548152906001019060200180831161126f57829003601f168201915b505050505081526020016001820160009054906101000a900473ffffffffffffffffffffffffffffffffffffffff1673ffffffffffffffffffffffffffffffffffffffff1673ffffffffffffffffffffffffffffffffffffffff1681525050815260200190600101906111e0565b505050509050919050565b60008054906101000a900473ffffffffffffffffffffffffffffffffffffffff1681565b50565b6115eb80611f3c83390190565b6000604051905090565b600080fd5b600080fd5b600073ffffffffffffffffffffffffffffffffffffffff82169050919050565b60006113788261134d565b9050919050565b6113888161136d565b811461139357600080fd5b50565b6000813590506113a58161137f565b92915050565b6000819050919050565b6113be816113ab565b81146113c957600080fd5b50565b6000813590506113db816113b5565b92915050565b6000806000606084860312156113fa576113f9611343565b5b600061140886828701611396565b9350506020611419868287016113cc565b925050604061142a868287016113cc565b9150509250925092565b600080fd5b600080fd5b6000601f19601f8301169050919050565b7f4e487b7100000000000000000000000000000000000000000000000000000000600052604160045260246000fd5b6114878261143e565b810181811067ffffffffffffffff821117156114a6576114a561144f565b5b80604052505050565b60006114b9611339565b90506114c5828261147e565b919050565b600067ffffffffffffffff8211156114e5576114e461144f565b5b6114ee8261143e565b9050602081019050919050565b82818337600083830152505050565b600061151d611518846114ca565b6114af565b90508281526020810184848401111561153957611538611439565b5b6115448482856114fb565b509392505050565b600082601f83011261156157611560611434565b5b813561157184826020860161150a565b91505092915050565b6000806000806080858703121561159457611593611343565b5b600085013567ffffffffffffffff8111156115b2576115b1611348565b5b6115be8782880161154c565b94505060206115cf87828801611396565b93505060406115e0878288016113cc565b92505060606115f1878288016113cc565b91505092959194509250565b6000806040838503121561161457611613611343565b5b600061162285828601611396565b925050602061163385828601611396565b9150509250929050565b611646816113ab565b82525050565b6000602082019050611661600083018461163d565b92915050565b60006020828403121561167d5761167c611343565b5b600061168b84828501611396565b91505092915050565b600080604083850312156116ab576116aa611343565b5b60006116b985828601611396565b92505060206116ca858286016113cc565b9150509250929050565b600081519050919050565b600082825260208201905092915050565b60005b8381101561170e5780820151818401526020810190506116f3565b60008484015250505050565b6000611725826116d4565b61172f81856116df565b935061173f8185602086016116f0565b6117488161143e565b840191505092915050565b61175c8161136d565b82525050565b6000604082019050818103600083015261177c818561171a565b905061178b6020830184611753565b9392505050565b600081519050919050565b600082825260208201905092915050565b6000819050602082019050919050565b600082825260208201905092915050565b60006117da826116d4565b6117e481856117be565b93506117f48185602086016116f0565b6117fd8161143e565b840191505092915050565b6118118161136d565b82525050565b6000604083016000830151848203600086015261183482826117cf565b91505060208301516118496020860182611808565b508091505092915050565b60006118608383611817565b905092915050565b6000602082019050919050565b600061188082611792565b61188a818561179d565b93508360208202850161189c856117ae565b8060005b858110156118d857848403895281516118b98582611854565b94506118c483611868565b925060208a019950506001810190506118a0565b50829750879550505050505092915050565b600060208201905081810360008301526119048184611875565b905092915050565b60006020820190506119216000830184611753565b92915050565b7f496e76616c69642062616e6b20696e6465780000000000000000000000000000600082015250565b600061195d6012836116df565b915061196882611927565b602082019050919050565b6000602082019050818103600083015261198c81611950565b9050919050565b7f4e487b7100000000000000000000000000000000000000000000000000000000600052603260045260246000fd5b6000815190506119d18161137f565b92915050565b6000602082840312156119ed576119ec611343565b5b60006119fb848285016119c2565b91505092915050565b7f496e636f7272656374204554482073656e740000000000000000000000000000600082015250565b6000611a3a6012836116df565b9150611a4582611a04565b602082019050919050565b60006020820190508181036000830152611a6981611a2d565b9050919050565b6000606082019050611a856000830186611753565b611a926020830185611753565b611a9f604083018461163d565b949350505050565b60008115159050919050565b611abc81611aa7565b8114611ac757600080fd5b50565b600081519050611ad981611ab3565b92915050565b600060208284031215611af557611af4611343565b5b6000611b0384828501611aca565b91505092915050565b6000604082019050611b216000830185611753565b611b2e602083018461163d565b9392505050565b600060a082019050611b4a6000830188611753565b611b576020830187611753565b611b64604083018661163d565b611b71606083018561163d565b611b7e6080830184611753565b9695505050505050565b7f4e487b7100000000000000000000000000000000000000000000000000000000600052602260045260246000fd5b60006002820490506001821680611bcf57607f821691505b602082108103611be257611be1611b88565b5b50919050565b60008190508160005260206000209050919050565b60006020601f8301049050919050565b600082821b905092915050565b600060088302611c4a7fffffffffffffffffffffffffffffffffffffffffffffffffffffffffffffffff82611c0d565b611c548683611c0d565b95508019841693508086168417925050509392505050565b6000819050919050565b6000611c91611c8c611c87846113ab565b611c6c565b6113ab565b9050919050565b6000819050919050565b611cab83611c76565b611cbf611cb782611c98565b848454611c1a565b825550505050565b600090565b611cd4611cc7565b611cdf818484611ca2565b505050565b5b81811015611d0357611cf8600082611ccc565b600181019050611ce5565b5050565b601f821115611d4857611d1981611be8565b611d2284611bfd565b81016020851015611d31578190505b611d45611d3d85611bfd565b830182611ce4565b50505b505050565b600082821c905092915050565b6000611d6b60001984600802611d4d565b1980831691505092915050565b6000611d848383611d5a565b9150826002028217905092915050565b611d9d826116d4565b67ffffffffffffffff811115611db657611db561144f565b5b611dc08254611bb7565b611dcb828285611d07565b600060209050601f831160018114611dfe5760008415611dec578287015190505b611df68582611d78565b865550611e5e565b601f198416611e0c86611be8565b60005b82811015611e3457848901518255600182019150602085019450602081019050611e0f565b86831015611e515784890151611e4d601f891682611d5a565b8355505b6001600288020188555050505b505050505050565b6000604082019050611e7b6000830185611753565b8181036020830152611e8d818461171a565b90509392505050565b600081519050611ea5816113b5565b92915050565b600060208284031215611ec157611ec0611343565b5b6000611ecf84828501611e96565b91505092915050565b7f4e487b7100000000000000000000000000000000000000000000000000000000600052601160045260246000fd5b6000611f12826113ab565b9150611f1d836113ab565b9250828201905080821115611f3557611f34611ed8565b5b9291505056fe60806040526040516115eb3803806115eb833981810160405281019061002591906103af565b61003f67e42dbd883c706c7960c01b61031360201b60201c565b61005967a54a285c3d0be96460c01b61031360201b60201c565b846000806101000a81548173ffffffffffffffffffffffffffffffffffffffff021916908373ffffffffffffffffffffffffffffffffffffffff1602179055506100b367decb19ac6af4662b60c01b61031360201b60201c565b83600160006101000a81548173ffffffffffffffffffffffffffffffffffffffff021916908373ffffffffffffffffffffffffffffffffffffffff16021790555061010e67e592ae856dbcbb2e60c01b61031360201b60201c565b80600360006101000a81548173ffffffffffffffffffffffffffffffffffffffff021916908373ffffffffffffffffffffffffffffffffffffffff16021790555061016967e7a2de9ec188204a60c01b61031360201b60201c565b81426101759190610459565b60028190555061019567d28dfff7dfb7317b60c01b61031360201b60201c565b6101af67f47eb143e90e472860c01b61031360201b60201c565b600073ffffffffffffffffffffffffffffffffffffffff168473ffffffffffffffffffffffffffffffffffffffff16036102cd576101fd67ff33ccb41438ed3d60c01b61031360201b60201c565b610217674e49f1194f21dd1860c01b61031360201b60201c565b6102316799561394e18f726360c01b61031360201b60201c565b61024b67c886ffa0b1fbec6560c01b61031360201b60201c565b82341461028d576040517f08c379a0000000000000000000000000000000000000000000000000000000008152600401610284906104ea565b60405180910390fd5b6102a7673a7a2a0b46819b3c60c01b61031360201b60201c565b6102c167ceb6c4f2433acc3c60c01b61031360201b60201c565b34600481905550610309565b6102e767a3e175936d486ff560c01b61031360201b60201c565b61030167d291b510c5b362fb60c01b61031360201b60201c565b826004819055505b505050505061050a565b50565b600080fd5b600073ffffffffffffffffffffffffffffffffffffffff82169050919050565b60006103468261031b565b9050919050565b6103568161033b565b811461036157600080fd5b50565b6000815190506103738161034d565b92915050565b6000819050919050565b61038c81610379565b811461039757600080fd5b50565b6000815190506103a981610383565b92915050565b600080600080600060a086880312156103cb576103ca610316565b5b60006103d988828901610364565b95505060206103ea88828901610364565b94505060406103fb8882890161039a565b935050606061040c8882890161039a565b925050608061041d88828901610364565b9150509295509295909350565b7f4e487b7100000000000000000000000000000000000000000000000000000000600052601160045260246000fd5b600061046482610379565b915061046f83610379565b92508282019050808211156104875761048661042a565b5b92915050565b600082825260208201905092915050565b7f496e636f7272656374204554482073656e740000000000000000000000000000600082015250565b60006104d460128361048d565b91506104df8261049e565b602082019050919050565b60006020820190508181036000830152610503816104c7565b9050919050565b6110d2806105196000396000f3fe60806040526004361061007b5760003560e01c80638da5cb5b1161004e5780638da5cb5b146101185780639d76ea5814610143578063b6b55f251461016e578063c80ec5221461018a5761007b565b806312065fe01461008057806317d8ec7f146100ab5780633ccfd60b146100d65780633fd8b02f146100ed575b600080fd5b34801561008c57600080fd5b506100956101b5565b6040516100a29190610c4a565b60405180910390f35b3480156100b757600080fd5b506100c06101fb565b6040516100cd9190610ca6565b60405180910390f35b3480156100e257600080fd5b506100eb610221565b005b3480156100f957600080fd5b50610102610951565b60405161010f9190610c4a565b60405180910390f35b34801561012457600080fd5b5061012d610957565b60405161013a9190610ca6565b60405180910390f35b34801561014f57600080fd5b5061015861097b565b6040516101659190610ca6565b60405180910390f35b61018860048036038101906101839190610cf2565b6109a1565b005b34801561019657600080fd5b5061019f610c1b565b6040516101ac9190610d3a565b60405180910390f35b60006101cb6731e47348052fdc3960c01b610c2e565b6101df674004f01d20c11b0d60c01b610c2e565b6101f36767823d9c11603e6f60c01b610c2e565b600454905090565b600360009054906101000a900473ffffffffffffffffffffffffffffffffffffffff1681565b610235671ae69cff812dc96460c01b610c2e565b610249678097ad8571a18d5a60c01b610c2e565b61025d67f41697a2c604419c60c01b610c2e565b610271670247ec0f0ec7158e60c01b610c2e565b60008054906101000a900473ffffffffffffffffffffffffffffffffffffffff1673ffffffffffffffffffffffffffffffffffffffff163373ffffffffffffffffffffffffffffffffffffffff16146102ff576040517f08c379a00000000000000000000000000000000000000000000000000000000081526004016102f690610db2565b60405180910390fd5b6103136711e3e6a68f6b1d7d60c01b610c2e565b61032767414e59987b05026160c01b610c2e565b61033b67f7ce37bc5ec09e9660c01b610c2e565b61034e6691e400922fbc7760c01b610c2e565b600360149054906101000a900460ff161561039e576040517f08c379a000000000000000000000000000000000000000000000000000000000815260040161039590610e1e565b60405180910390fd5b6103b26755bb9b7f58a105a360c01b610c2e565b6103c66741b10e943172f0f560c01b610c2e565b6001600360146101000a81548160ff0219169083151502179055506103f567633db3e93a07477360c01b610c2e565b61040967dc8e7e6891249e3660c01b610c2e565b600061041f67c16de69b797e63b360c01b610c2e565b610433674716ef420cf9499560c01b610c2e565b6000600454905061044e67dba1699d1f02caf160c01b610c2e565b6104626753419a035d20a3e060c01b610c2e565b6002544210156104da57610480671e9f31392f412e3c60c01b610c2e565b61049467bbf3d70b1567b88460c01b610c2e565b606460036004546104a59190610e6d565b6104af9190610ede565b91506104c5676431ced42941237160c01b610c2e565b816004546104d39190610f0f565b90506104ef565b6104ee67df8bbdc113dd105d60c01b610c2e565b5b61050367f19f758700735d5960c01b610c2e565b600060048190555061051f671b5fdcb1a19c54d360c01b610c2e565b6105336736e50ae2735b8ebe60c01b610c2e565b600073ffffffffffffffffffffffffffffffffffffffff16600160009054906101000a900473ffffffffffffffffffffffffffffffffffffffff1673ffffffffffffffffffffffffffffffffffffffff160361070d5761059d67599eba0ed9fdef6360c01b610c2e565b6105b1670e41a84b2fea787760c01b610c2e565b6105c56724fca81ea32e303e60c01b610c2e565b60008054906101000a900473ffffffffffffffffffffffffffffffffffffffff1673ffffffffffffffffffffffffffffffffffffffff166108fc829081150290604051600060405180830381858888f1935050505015801561062b573d6000803e3d6000fd5b5061064067da9250b62e52bcc760c01b610c2e565b610654670d66bb2165039d6660c01b610c2e565b60008211156106f35761067167d29bea1f2e59823f60c01b610c2e565b610685672ed8c9350f4ae08660c01b610c2e565b600360009054906101000a900473ffffffffffffffffffffffffffffffffffffffff1673ffffffffffffffffffffffffffffffffffffffff166108fc839081150290604051600060405180830381858888f193505050501580156106ed573d6000803e3d6000fd5b50610708565b61070767c7d61289612a6fed60c01b610c2e565b5b61094d565b61072167d9fd8f5b9bc0d51160c01b610c2e565b61073567682cfdbdada1221360c01b610c2e565b610749674a8353a3542c960e60c01b610c2e565b6000600160009054906101000a900473ffffffffffffffffffffffffffffffffffffffff169050610784673c3bd016ced3b26660c01b610c2e565b610798671ac28b206270921660c01b610c2e565b8073ffffffffffffffffffffffffffffffffffffffff1663a9059cbb60008054906101000a900473ffffffffffffffffffffffffffffffffffffffff16846040518363ffffffff1660e01b81526004016107f3929190610f43565b6020604051808303816000875af1158015610812573d6000803e3d6000fd5b505050506040513d601f19601f820116820180604052508101906108369190610f98565b5061084b67ab448b79d02dc4b760c01b610c2e565b61085f67ce40b2c497cf793e60c01b610c2e565b60008311156109365761087c67092bbcdb14508eea60c01b610c2e565b610890675f937140315b547560c01b610c2e565b8073ffffffffffffffffffffffffffffffffffffffff1663a9059cbb600360009054906101000a900473ffffffffffffffffffffffffffffffffffffffff16856040518363ffffffff1660e01b81526004016108ed929190610f43565b6020604051808303816000875af115801561090c573d6000803e3d6000fd5b505050506040513d601f19601f820116820180604052508101906109309190610f98565b5061094b565b61094a67facb7f00cefa68a360c01b610c2e565b5b505b5050565b60025481565b60008054906101000a900473ffffffffffffffffffffffffffffffffffffffff1681565b600160009054906101000a900473ffffffffffffffffffffffffffffffffffffffff1681565b6109b567beea3c5d6959844f60c01b610c2e565b6109c96774bcb5e9f99fdf8a60c01b610c2e565b6109dd673e28f3c298421fcc60c01b610c2e565b600073ffffffffffffffffffffffffffffffffffffffff16600160009054906101000a900473ffffffffffffffffffffffffffffffffffffffff1673ffffffffffffffffffffffffffffffffffffffff1603610b0b57610a476746d2bfe6afc6395d60c01b610c2e565b610a5b67a647ecffed0d38c660c01b610c2e565b610a6f67728b3e63964c8f4c60c01b610c2e565b610a8367796aaa55950cf14860c01b610c2e565b803414610ac5576040517f08c379a0000000000000000000000000000000000000000000000000000000008152600401610abc90611011565b60405180910390fd5b610ad967bb8b8b34572ca47360c01b610c2e565b610aed67013594465ecc85bf60c01b610c2e565b3460046000828254610aff9190611031565b92505081905550610c18565b610b1f673c46f2537c45acc160c01b610c2e565b610b33676aca467e41360d5760c01b610c2e565b610b47677b038ff3221a149f60c01b610c2e565b600160009054906101000a900473ffffffffffffffffffffffffffffffffffffffff1673ffffffffffffffffffffffffffffffffffffffff166323b872dd3330846040518463ffffffff1660e01b8152600401610ba693929190611065565b6020604051808303816000875af1158015610bc5573d6000803e3d6000fd5b505050506040513d601f19601f82011682018060405250810190610be99190610f98565b50610bfe6761655b1a2cd44a3c60c01b610c2e565b8060046000828254610c109190611031565b925050819055505b50565b600360149054906101000a900460ff1681565b50565b6000819050919050565b610c4481610c31565b82525050565b6000602082019050610c5f6000830184610c3b565b92915050565b600073ffffffffffffffffffffffffffffffffffffffff82169050919050565b6000610c9082610c65565b9050919050565b610ca081610c85565b82525050565b6000602082019050610cbb6000830184610c97565b92915050565b600080fd5b610ccf81610c31565b8114610cda57600080fd5b50565b600081359050610cec81610cc6565b92915050565b600060208284031215610d0857610d07610cc1565b5b6000610d1684828501610cdd565b91505092915050565b60008115159050919050565b610d3481610d1f565b82525050565b6000602082019050610d4f6000830184610d2b565b92915050565b600082825260208201905092915050565b7f4e6f74206f776e65720000000000000000000000000000000000000000000000600082015250565b6000610d9c600983610d55565b9150610da782610d66565b602082019050919050565b60006020820190508181036000830152610dcb81610d8f565b9050919050565b7f416c72656164792077697468647261776e000000000000000000000000000000600082015250565b6000610e08601183610d55565b9150610e1382610dd2565b602082019050919050565b60006020820190508181036000830152610e3781610dfb565b9050919050565b7f4e487b7100000000000000000000000000000000000000000000000000000000600052601160045260246000fd5b6000610e7882610c31565b9150610e8383610c31565b9250828202610e9181610c31565b91508282048414831517610ea857610ea7610e3e565b5b5092915050565b7f4e487b7100000000000000000000000000000000000000000000000000000000600052601260045260246000fd5b6000610ee982610c31565b9150610ef483610c31565b925082610f0457610f03610eaf565b5b828204905092915050565b6000610f1a82610c31565b9150610f2583610c31565b9250828203905081811115610f3d57610f3c610e3e565b5b92915050565b6000604082019050610f586000830185610c97565b610f656020830184610c3b565b9392505050565b610f7581610d1f565b8114610f8057600080fd5b50565b600081519050610f9281610f6c565b92915050565b600060208284031215610fae57610fad610cc1565b5b6000610fbc84828501610f83565b91505092915050565b7f496e636f7272656374204554482073656e740000000000000000000000000000600082015250565b6000610ffb601283610d55565b915061100682610fc5565b602082019050919050565b6000602082019050818103600083015261102a81610fee565b9050919050565b600061103c82610c31565b915061104783610c31565b925082820190508082111561105f5761105e610e3e565b5b92915050565b600060608201905061107a6000830186610c97565b6110876020830185610c97565b6110946040830184610c3b565b94935050505056fea26469706673582212200941012ab8465c8ba33c15fe0366d6d87ae3cf2abc2e27eac1a147369520d4a664736f6c634300081c0033a26469706673582212201ab1228debf1f106cb3b49b9e9649de950d5186ef14ece8cb436d96ae955deb264736f6c634300081c0033","opcodes":"PUSH1 0x80 PUSH1 0x40 MSTORE CALLVALUE DUP1 ISZERO PUSH1 0xF JUMPI PUSH1 0x0 DUP1 REVERT JUMPDEST POP PUSH1 0x28 PUSH8 0xB0F57C1C4B43AB6B PUSH1 0xC0 SHL PUSH1 0x84 PUSH1 0x20 SHL PUSH1 0x20 SHR JUMP JUMPDEST PUSH1 0x40 PUSH8 0xF5AA121D5FF1D7A PUSH1 0xC0 SHL PUSH1 0x84 PUSH1 0x20 SHL PUSH1 0x20 SHR JUMP JUMPDEST CALLER PUSH1 0x0 DUP1 PUSH2 0x100 EXP DUP2 SLOAD DUP2 PUSH20 0xFFFFFFFFFFFFFFFFFFFFFFFFFFFFFFFFFFFFFFFF MUL NOT AND SWAP1 DUP4 PUSH20 0xFFFFFFFFFFFFFFFFFFFFFFFFFFFFFFFFFFFFFFFF AND MUL OR SWAP1 SSTORE POP PUSH1 0x87 JUMP JUMPDEST POP JUMP JUMPDEST PUSH2 0x355C DUP1 PUSH2 0x96 PUSH1 0x0 CODECOPY PUSH1 0x0 RETURN INVALID PUSH1 0x80 PUSH1 0x40 MSTORE PUSH1 0x4 CALLDATASIZE LT PUSH2 0x70 JUMPI PUSH1 0x0 CALLDATALOAD PUSH1 0xE0 SHR DUP1 PUSH4 0x78B2AD60 GT PUSH2 0x4E JUMPI DUP1 PUSH4 0x78B2AD60 EQ PUSH2 0xEA JUMPI DUP1 PUSH4 0xB35C5E30 EQ PUSH2 0x127 JUMPI DUP1 PUSH4 0xDF72A009 EQ PUSH2 0x165 JUMPI DUP1 PUSH4 0xF851A440 EQ PUSH2 0x1A2 JUMPI PUSH2 0x70 JUMP JUMPDEST DUP1 PUSH4 0x2797F1F9 EQ PUSH2 0x75 JUMPI DUP1 PUSH4 0x2BAED4E4 EQ PUSH2 0x91 JUMPI DUP1 PUSH4 0x51BD551F EQ PUSH2 0xAD JUMPI JUMPDEST PUSH1 0x0 DUP1 REVERT JUMPDEST PUSH2 0x8F PUSH1 0x4 DUP1 CALLDATASIZE SUB DUP2 ADD SWAP1 PUSH2 0x8A SWAP2 SWAP1 PUSH2 0x13E1 JUMP JUMPDEST PUSH2 0x1CD JUMP JUMPDEST STOP JUMPDEST PUSH2 0xAB PUSH1 0x4 DUP1 CALLDATASIZE SUB DUP2 ADD SWAP1 PUSH2 0xA6 SWAP2 SWAP1 PUSH2 0x157A JUMP JUMPDEST PUSH2 0x806 JUMP JUMPDEST STOP JUMPDEST CALLVALUE DUP1 ISZERO PUSH2 0xB9 JUMPI PUSH1 0x0 DUP1 REVERT JUMPDEST POP PUSH2 0xD4 PUSH1 0x4 DUP1 CALLDATASIZE SUB DUP2 ADD SWAP1 PUSH2 0xCF SWAP2 SWAP1 PUSH2 0x15FD JUMP JUMPDEST PUSH2 0xBDF JUMP JUMPDEST PUSH1 0x40 MLOAD PUSH2 0xE1 SWAP2 SWAP1 PUSH2 0x164C JUMP JUMPDEST PUSH1 0x40 MLOAD DUP1 SWAP2 SUB SWAP1 RETURN JUMPDEST CALLVALUE DUP1 ISZERO PUSH2 0xF6 JUMPI PUSH1 0x0 DUP1 REVERT JUMPDEST POP PUSH2 0x111 PUSH1 0x4 DUP1 CALLDATASIZE SUB DUP2 ADD SWAP1 PUSH2 0x10C SWAP2 SWAP1 PUSH2 0x1667 JUMP JUMPDEST PUSH2 0xFD2 JUMP JUMPDEST PUSH1 0x40 MLOAD PUSH2 0x11E SWAP2 SWAP1 PUSH2 0x164C JUMP JUMPDEST PUSH1 0x40 MLOAD DUP1 SWAP2 SUB SWAP1 RETURN JUMPDEST CALLVALUE DUP1 ISZERO PUSH2 0x133 JUMPI PUSH1 0x0 DUP1 REVERT JUMPDEST POP PUSH2 0x14E PUSH1 0x4 DUP1 CALLDATASIZE SUB DUP2 ADD SWAP1 PUSH2 0x149 SWAP2 SWAP1 PUSH2 0x1694 JUMP JUMPDEST PUSH2 0x105A JUMP JUMPDEST PUSH1 0x40 MLOAD PUSH2 0x15C SWAP3 SWAP2 SWAP1 PUSH2 0x1762 JUMP JUMPDEST PUSH1 0x40 MLOAD DUP1 SWAP2 SUB SWAP1 RETURN JUMPDEST CALLVALUE DUP1 ISZERO PUSH2 0x171 JUMPI PUSH1 0x0 DUP1 REVERT JUMPDEST POP PUSH2 0x18C PUSH1 0x4 DUP1 CALLDATASIZE SUB DUP2 ADD SWAP1 PUSH2 0x187 SWAP2 SWAP1 PUSH2 0x1667 JUMP JUMPDEST PUSH2 0x1143 JUMP JUMPDEST PUSH1 0x40 MLOAD PUSH2 0x199 SWAP2 SWAP1 PUSH2 0x18EA JUMP JUMPDEST PUSH1 0x40 MLOAD DUP1 SWAP2 SUB SWAP1 RETURN JUMPDEST CALLVALUE DUP1 ISZERO PUSH2 0x1AE JUMPI PUSH1 0x0 DUP1 REVERT JUMPDEST POP PUSH2 0x1B7 PUSH2 0x1305 JUMP JUMPDEST PUSH1 0x40 MLOAD PUSH2 0x1C4 SWAP2 SWAP1 PUSH2 0x190C JUMP JUMPDEST PUSH1 0x40 MLOAD DUP1 SWAP2 SUB SWAP1 RETURN JUMPDEST PUSH2 0x1E1 PUSH8 0x7069A58C992B1644 PUSH1 0xC0 SHL PUSH2 0x1329 JUMP JUMPDEST PUSH2 0x1F5 PUSH8 0x231FCFA01DE73DD8 PUSH1 0xC0 SHL PUSH2 0x1329 JUMP JUMPDEST PUSH2 0x209 PUSH8 0x805CB2AA3B69AE5A PUSH1 0xC0 SHL PUSH2 0x1329 JUMP JUMPDEST PUSH2 0x21D PUSH8 0xA6589F391B5958DE PUSH1 0xC0 SHL PUSH2 0x1329 JUMP JUMPDEST PUSH1 0x1 PUSH1 0x0 DUP5 PUSH20 0xFFFFFFFFFFFFFFFFFFFFFFFFFFFFFFFFFFFFFFFF AND PUSH20 0xFFFFFFFFFFFFFFFFFFFFFFFFFFFFFFFFFFFFFFFF AND DUP2 MSTORE PUSH1 0x20 ADD SWAP1 DUP2 MSTORE PUSH1 0x20 ADD PUSH1 0x0 KECCAK256 DUP1 SLOAD SWAP1 POP DUP3 LT PUSH2 0x2A1 JUMPI PUSH1 0x40 MLOAD PUSH32 0x8C379A000000000000000000000000000000000000000000000000000000000 DUP2 MSTORE PUSH1 0x4 ADD PUSH2 0x298 SWAP1 PUSH2 0x1973 JUMP JUMPDEST PUSH1 0x40 MLOAD DUP1 SWAP2 SUB SWAP1 REVERT JUMPDEST PUSH2 0x2B5 PUSH8 0x7DDE4FD2CFDC13EA PUSH1 0xC0 SHL PUSH2 0x1329 JUMP JUMPDEST PUSH2 0x2C9 PUSH8 0x5C57071132037B57 PUSH1 0xC0 SHL PUSH2 0x1329 JUMP JUMPDEST PUSH2 0x2DD PUSH8 0x2765052B08AA1149 PUSH1 0xC0 SHL PUSH2 0x1329 JUMP JUMPDEST PUSH1 0x0 PUSH1 0x1 PUSH1 0x0 DUP6 PUSH20 0xFFFFFFFFFFFFFFFFFFFFFFFFFFFFFFFFFFFFFFFF AND PUSH20 0xFFFFFFFFFFFFFFFFFFFFFFFFFFFFFFFFFFFFFFFF AND DUP2 MSTORE PUSH1 0x20 ADD SWAP1 DUP2 MSTORE PUSH1 0x20 ADD PUSH1 0x0 KECCAK256 DUP4 DUP2 SLOAD DUP2 LT PUSH2 0x330 JUMPI PUSH2 0x32F PUSH2 0x1993 JUMP JUMPDEST JUMPDEST SWAP1 PUSH1 0x0 MSTORE PUSH1 0x20 PUSH1 0x0 KECCAK256 SWAP1 PUSH1 0x2 MUL ADD PUSH1 0x1 ADD PUSH1 0x0 SWAP1 SLOAD SWAP1 PUSH2 0x100 EXP SWAP1 DIV PUSH20 0xFFFFFFFFFFFFFFFFFFFFFFFFFFFFFFFFFFFFFFFF AND SWAP1 POP PUSH2 0x378 PUSH8 0x7599F965B8460295 PUSH1 0xC0 SHL PUSH2 0x1329 JUMP JUMPDEST PUSH2 0x38C PUSH8 0x14559862A0AF7F2A PUSH1 0xC0 SHL PUSH2 0x1329 JUMP JUMPDEST PUSH1 0x0 DUP2 SWAP1 POP PUSH2 0x3A5 PUSH8 0xCC759C21B0DFC3EA PUSH1 0xC0 SHL PUSH2 0x1329 JUMP JUMPDEST PUSH2 0x3B9 PUSH8 0x155BF81148569FB2 PUSH1 0xC0 SHL PUSH2 0x1329 JUMP JUMPDEST PUSH1 0x0 PUSH20 0xFFFFFFFFFFFFFFFFFFFFFFFFFFFFFFFFFFFFFFFF AND DUP2 PUSH20 0xFFFFFFFFFFFFFFFFFFFFFFFFFFFFFFFFFFFFFFFF AND PUSH4 0x9D76EA58 PUSH1 0x40 MLOAD DUP2 PUSH4 0xFFFFFFFF AND PUSH1 0xE0 SHL DUP2 MSTORE PUSH1 0x4 ADD PUSH1 0x20 PUSH1 0x40 MLOAD DUP1 DUP4 SUB DUP2 DUP7 GAS STATICCALL ISZERO DUP1 ISZERO PUSH2 0x41C JUMPI RETURNDATASIZE PUSH1 0x0 DUP1 RETURNDATACOPY RETURNDATASIZE PUSH1 0x0 REVERT JUMPDEST POP POP POP POP PUSH1 0x40 MLOAD RETURNDATASIZE PUSH1 0x1F NOT PUSH1 0x1F DUP3 ADD AND DUP3 ADD DUP1 PUSH1 0x40 MSTORE POP DUP2 ADD SWAP1 PUSH2 0x440 SWAP2 SWAP1 PUSH2 0x19D7 JUMP JUMPDEST PUSH20 0xFFFFFFFFFFFFFFFFFFFFFFFFFFFFFFFFFFFFFFFF AND SUB PUSH2 0x59A JUMPI PUSH2 0x46F PUSH8 0xBD32D0793D75CDB8 PUSH1 0xC0 SHL PUSH2 0x1329 JUMP JUMPDEST PUSH2 0x483 PUSH8 0x3CAE5367F4C66BC0 PUSH1 0xC0 SHL PUSH2 0x1329 JUMP JUMPDEST PUSH2 0x497 PUSH8 0x7E92D9C3E753E248 PUSH1 0xC0 SHL PUSH2 0x1329 JUMP JUMPDEST PUSH2 0x4AB PUSH8 0xA0C6CBD6A414D8CB PUSH1 0xC0 SHL PUSH2 0x1329 JUMP JUMPDEST DUP3 CALLVALUE EQ PUSH2 0x4ED JUMPI PUSH1 0x40 MLOAD PUSH32 0x8C379A000000000000000000000000000000000000000000000000000000000 DUP2 MSTORE PUSH1 0x4 ADD PUSH2 0x4E4 SWAP1 PUSH2 0x1A50 JUMP JUMPDEST PUSH1 0x40 MLOAD DUP1 SWAP2 SUB SWAP1 REVERT JUMPDEST PUSH2 0x501 PUSH8 0x3C6505C1725EF718 PUSH1 0xC0 SHL PUSH2 0x1329 JUMP JUMPDEST PUSH2 0x515 PUSH8 0xF004C07FEDBAFB6B PUSH1 0xC0 SHL PUSH2 0x1329 JUMP JUMPDEST PUSH2 0x529 PUSH8 0x3B562886AAD58647 PUSH1 0xC0 SHL PUSH2 0x1329 JUMP JUMPDEST DUP1 PUSH20 0xFFFFFFFFFFFFFFFFFFFFFFFFFFFFFFFFFFFFFFFF AND PUSH4 0xB6B55F25 CALLVALUE DUP6 PUSH1 0x40 MLOAD DUP4 PUSH4 0xFFFFFFFF AND PUSH1 0xE0 SHL DUP2 MSTORE PUSH1 0x4 ADD PUSH2 0x563 SWAP2 SWAP1 PUSH2 0x164C JUMP JUMPDEST PUSH1 0x0 PUSH1 0x40 MLOAD DUP1 DUP4 SUB DUP2 DUP6 DUP9 DUP1 EXTCODESIZE ISZERO DUP1 ISZERO PUSH2 0x57C JUMPI PUSH1 0x0 DUP1 REVERT JUMPDEST POP GAS CALL ISZERO DUP1 ISZERO PUSH2 0x590 JUMPI RETURNDATASIZE PUSH1 0x0 DUP1 RETURNDATACOPY RETURNDATASIZE PUSH1 0x0 REVERT JUMPDEST POP POP POP POP POP PUSH2 0x787 JUMP JUMPDEST PUSH2 0x5AE PUSH8 0x1533C8A41C22493F PUSH1 0xC0 SHL PUSH2 0x1329 JUMP JUMPDEST PUSH2 0x5C2 PUSH8 0x772D92B8F1F1D8EA PUSH1 0xC0 SHL PUSH2 0x1329 JUMP JUMPDEST PUSH2 0x5D6 PUSH8 0xC12D04C68EF2E2E8 PUSH1 0xC0 SHL PUSH2 0x1329 JUMP JUMPDEST PUSH1 0x0 DUP2 PUSH20 0xFFFFFFFFFFFFFFFFFFFFFFFFFFFFFFFFFFFFFFFF AND PUSH4 0x9D76EA58 PUSH1 0x40 MLOAD DUP2 PUSH4 0xFFFFFFFF AND PUSH1 0xE0 SHL DUP2 MSTORE PUSH1 0x4 ADD PUSH1 0x20 PUSH1 0x40 MLOAD DUP1 DUP4 SUB DUP2 DUP7 GAS STATICCALL ISZERO DUP1 ISZERO PUSH2 0x623 JUMPI RETURNDATASIZE PUSH1 0x0 DUP1 RETURNDATACOPY RETURNDATASIZE PUSH1 0x0 REVERT JUMPDEST POP POP POP POP PUSH1 0x40 MLOAD RETURNDATASIZE PUSH1 0x1F NOT PUSH1 0x1F DUP3 ADD AND DUP3 ADD DUP1 PUSH1 0x40 MSTORE POP DUP2 ADD SWAP1 PUSH2 0x647 SWAP2 SWAP1 PUSH2 0x19D7 JUMP JUMPDEST SWAP1 POP PUSH2 0x65D PUSH8 0x68B61EB0E22A1AC0 PUSH1 0xC0 SHL PUSH2 0x1329 JUMP JUMPDEST PUSH2 0x671 PUSH8 0x348D0F9845A6AB51 PUSH1 0xC0 SHL PUSH2 0x1329 JUMP JUMPDEST DUP1 PUSH20 0xFFFFFFFFFFFFFFFFFFFFFFFFFFFFFFFFFFFFFFFF AND PUSH4 0x23B872DD CALLER DUP6 DUP8 PUSH1 0x40 MLOAD DUP5 PUSH4 0xFFFFFFFF AND PUSH1 0xE0 SHL DUP2 MSTORE PUSH1 0x4 ADD PUSH2 0x6AE SWAP4 SWAP3 SWAP2 SWAP1 PUSH2 0x1A70 JUMP JUMPDEST PUSH1 0x20 PUSH1 0x40 MLOAD DUP1 DUP4 SUB DUP2 PUSH1 0x0 DUP8 GAS CALL ISZERO DUP1 ISZERO PUSH2 0x6CD JUMPI RETURNDATASIZE PUSH1 0x0 DUP1 RETURNDATACOPY RETURNDATASIZE PUSH1 0x0 REVERT JUMPDEST POP POP POP POP PUSH1 0x40 MLOAD RETURNDATASIZE PUSH1 0x1F NOT PUSH1 0x1F DUP3 ADD AND DUP3 ADD DUP1 PUSH1 0x40 MSTORE POP DUP2 ADD SWAP1 PUSH2 0x6F1 SWAP2 SWAP1 PUSH2 0x1ADF JUMP JUMPDEST POP PUSH2 0x706 PUSH8 0xF8C4471112834270 PUSH1 0xC0 SHL PUSH2 0x1329 JUMP JUMPDEST PUSH2 0x71A PUSH8 0xFD74097D6796A83F PUSH1 0xC0 SHL PUSH2 0x1329 JUMP JUMPDEST DUP2 PUSH20 0xFFFFFFFFFFFFFFFFFFFFFFFFFFFFFFFFFFFFFFFF AND PUSH4 0xB6B55F25 DUP6 PUSH1 0x40 MLOAD DUP3 PUSH4 0xFFFFFFFF AND PUSH1 0xE0 SHL DUP2 MSTORE PUSH1 0x4 ADD PUSH2 0x753 SWAP2 SWAP1 PUSH2 0x164C JUMP JUMPDEST PUSH1 0x0 PUSH1 0x40 MLOAD DUP1 DUP4 SUB DUP2 PUSH1 0x0 DUP8 DUP1 EXTCODESIZE ISZERO DUP1 ISZERO PUSH2 0x76D JUMPI PUSH1 0x0 DUP1 REVERT JUMPDEST POP GAS CALL ISZERO DUP1 ISZERO PUSH2 0x781 JUMPI RETURNDATASIZE PUSH1 0x0 DUP1 RETURNDATACOPY RETURNDATASIZE PUSH1 0x0 REVERT JUMPDEST POP POP POP POP POP JUMPDEST PUSH2 0x79B PUSH8 0x8D0F3C692AF1C262 PUSH1 0xC0 SHL PUSH2 0x1329 JUMP JUMPDEST PUSH2 0x7AF PUSH8 0x108192BF360918D7 PUSH1 0xC0 SHL PUSH2 0x1329 JUMP JUMPDEST CALLER PUSH20 0xFFFFFFFFFFFFFFFFFFFFFFFFFFFFFFFFFFFFFFFF AND PUSH32 0x252515011F6A0EAC8EE673C166577D073E78C27944C18DBC3D7DA5BFB5F83D15 DUP4 DUP6 PUSH1 0x40 MLOAD PUSH2 0x7F7 SWAP3 SWAP2 SWAP1 PUSH2 0x1B0C JUMP JUMPDEST PUSH1 0x40 MLOAD DUP1 SWAP2 SUB SWAP1 LOG2 POP POP POP POP POP JUMP JUMPDEST PUSH2 0x81A PUSH8 0x6C87054FB83B5123 PUSH1 0xC0 SHL PUSH2 0x1329 JUMP JUMPDEST PUSH2 0x82E PUSH8 0x17C1D387A02E0CD PUSH1 0xC0 SHL PUSH2 0x1329 JUMP JUMPDEST PUSH2 0x842 PUSH8 0x9F183D306B3A356C PUSH1 0xC0 SHL PUSH2 0x1329 JUMP JUMPDEST PUSH1 0x0 PUSH2 0x858 PUSH8 0x8B05423B4D07D09C PUSH1 0xC0 SHL PUSH2 0x1329 JUMP JUMPDEST PUSH2 0x86C PUSH8 0xAEF4F2C0F439CFC5 PUSH1 0xC0 SHL PUSH2 0x1329 JUMP JUMPDEST PUSH1 0x0 PUSH20 0xFFFFFFFFFFFFFFFFFFFFFFFFFFFFFFFFFFFFFFFF AND DUP5 PUSH20 0xFFFFFFFFFFFFFFFFFFFFFFFFFFFFFFFFFFFFFFFF AND SUB PUSH2 0x9BF JUMPI PUSH2 0x8B4 PUSH8 0x159A06F71E08DC63 PUSH1 0xC0 SHL PUSH2 0x1329 JUMP JUMPDEST PUSH2 0x8C8 PUSH8 0x8F44D100063EC86D PUSH1 0xC0 SHL PUSH2 0x1329 JUMP JUMPDEST PUSH2 0x8DC PUSH8 0x7A6FFD6D34F15A4D PUSH1 0xC0 SHL PUSH2 0x1329 JUMP JUMPDEST PUSH2 0x8F0 PUSH8 0xA87404766382FFB6 PUSH1 0xC0 SHL PUSH2 0x1329 JUMP JUMPDEST DUP3 CALLVALUE EQ PUSH2 0x932 JUMPI PUSH1 0x40 MLOAD PUSH32 0x8C379A000000000000000000000000000000000000000000000000000000000 DUP2 MSTORE PUSH1 0x4 ADD PUSH2 0x929 SWAP1 PUSH2 0x1A50 JUMP JUMPDEST PUSH1 0x40 MLOAD DUP1 SWAP2 SUB SWAP1 REVERT JUMPDEST PUSH2 0x946 PUSH8 0xDD6F9C478F4123B6 PUSH1 0xC0 SHL PUSH2 0x1329 JUMP JUMPDEST PUSH2 0x95A PUSH8 0x2E723EDAB2AB0B1B PUSH1 0xC0 SHL PUSH2 0x1329 JUMP JUMPDEST CALLVALUE CALLER DUP6 DUP6 DUP6 PUSH1 0x0 DUP1 SLOAD SWAP1 PUSH2 0x100 EXP SWAP1 DIV PUSH20 0xFFFFFFFFFFFFFFFFFFFFFFFFFFFFFFFFFFFFFFFF AND PUSH1 0x40 MLOAD PUSH2 0x98C SWAP1 PUSH2 0x132C JUMP JUMPDEST PUSH2 0x99A SWAP6 SWAP5 SWAP4 SWAP3 SWAP2 SWAP1 PUSH2 0x1B35 JUMP JUMPDEST PUSH1 0x40 MLOAD DUP1 SWAP2 SUB SWAP1 DUP3 CREATE SWAP1 POP DUP1 ISZERO DUP1 ISZERO PUSH2 0x9B7 JUMPI RETURNDATASIZE PUSH1 0x0 DUP1 RETURNDATACOPY RETURNDATASIZE PUSH1 0x0 REVERT JUMPDEST POP SWAP1 POP PUSH2 0xA46 JUMP JUMPDEST PUSH2 0x9D3 PUSH8 0x9C79F242187AC236 PUSH1 0xC0 SHL PUSH2 0x1329 JUMP JUMPDEST PUSH2 0x9E7 PUSH8 0xB76036F6F207F622 PUSH1 0xC0 SHL PUSH2 0x1329 JUMP JUMPDEST CALLER DUP5 DUP5 DUP5 PUSH1 0x0 DUP1 SLOAD SWAP1 PUSH2 0x100 EXP SWAP1 DIV PUSH20 0xFFFFFFFFFFFFFFFFFFFFFFFFFFFFFFFFFFFFFFFF AND PUSH1 0x40 MLOAD PUSH2 0xA18 SWAP1 PUSH2 0x132C JUMP JUMPDEST PUSH2 0xA26 SWAP6 SWAP5 SWAP4 SWAP3 SWAP2 SWAP1 PUSH2 0x1B35 JUMP JUMPDEST PUSH1 0x40 MLOAD DUP1 SWAP2 SUB SWAP1 PUSH1 0x0 CREATE DUP1 ISZERO DUP1 ISZERO PUSH2 0xA42 JUMPI RETURNDATASIZE PUSH1 0x0 DUP1 RETURNDATACOPY RETURNDATASIZE PUSH1 0x0 REVERT JUMPDEST POP SWAP1 POP JUMPDEST PUSH2 0xA5A PUSH8 0x32EACA9E418FE72B PUSH1 0xC0 SHL PUSH2 0x1329 JUMP JUMPDEST PUSH2 0xA6E PUSH8 0x270B6EF2E4A4017E PUSH1 0xC0 SHL PUSH2 0x1329 JUMP JUMPDEST PUSH1 0x1 PUSH1 0x0 CALLER PUSH20 0xFFFFFFFFFFFFFFFFFFFFFFFFFFFFFFFFFFFFFFFF AND PUSH20 0xFFFFFFFFFFFFFFFFFFFFFFFFFFFFFFFFFFFFFFFF AND DUP2 MSTORE PUSH1 0x20 ADD SWAP1 DUP2 MSTORE PUSH1 0x20 ADD PUSH1 0x0 KECCAK256 PUSH1 0x40 MLOAD DUP1 PUSH1 0x40 ADD PUSH1 0x40 MSTORE DUP1 DUP8 DUP2 MSTORE PUSH1 0x20 ADD DUP4 PUSH20 0xFFFFFFFFFFFFFFFFFFFFFFFFFFFFFFFFFFFFFFFF AND DUP2 MSTORE POP SWAP1 DUP1 PUSH1 0x1 DUP2 SLOAD ADD DUP1 DUP3 SSTORE DUP1 SWAP2 POP POP PUSH1 0x1 SWAP1 SUB SWAP1 PUSH1 0x0 MSTORE PUSH1 0x20 PUSH1 0x0 KECCAK256 SWAP1 PUSH1 0x2 MUL ADD PUSH1 0x0 SWAP1 SWAP2 SWAP1 SWAP2 SWAP1 SWAP2 POP PUSH1 0x0 DUP3 ADD MLOAD DUP2 PUSH1 0x0 ADD SWAP1 DUP2 PUSH2 0xB16 SWAP2 SWAP1 PUSH2 0x1D94 JUMP JUMPDEST POP PUSH1 0x20 DUP3 ADD MLOAD DUP2 PUSH1 0x1 ADD PUSH1 0x0 PUSH2 0x100 EXP DUP2 SLOAD DUP2 PUSH20 0xFFFFFFFFFFFFFFFFFFFFFFFFFFFFFFFFFFFFFFFF MUL NOT AND SWAP1 DUP4 PUSH20 0xFFFFFFFFFFFFFFFFFFFFFFFFFFFFFFFFFFFFFFFF AND MUL OR SWAP1 SSTORE POP POP POP PUSH2 0xB74 PUSH8 0x58E7822B43D64E43 PUSH1 0xC0 SHL PUSH2 0x1329 JUMP JUMPDEST PUSH2 0xB88 PUSH8 0xF450ABFE82C26325 PUSH1 0xC0 SHL PUSH2 0x1329 JUMP JUMPDEST CALLER PUSH20 0xFFFFFFFFFFFFFFFFFFFFFFFFFFFFFFFFFFFFFFFF AND PUSH32 0x99D0B6013D11DEC0B9D584DAA98D2C97B376BEA6F3B45B8066DD7B8B64699EF4 DUP3 DUP8 PUSH1 0x40 MLOAD PUSH2 0xBD0 SWAP3 SWAP2 SWAP1 PUSH2 0x1E66 JUMP JUMPDEST PUSH1 0x40 MLOAD DUP1 SWAP2 SUB SWAP1 LOG2 POP POP POP POP POP JUMP JUMPDEST PUSH1 0x0 PUSH2 0xBF5 PUSH8 0x89B4C6FD3065D54C PUSH1 0xC0 SHL PUSH2 0x1329 JUMP JUMPDEST PUSH2 0xC09 PUSH8 0x3AF003A430645174 PUSH1 0xC0 SHL PUSH2 0x1329 JUMP JUMPDEST PUSH2 0xC1D PUSH8 0xED57213A5E3A3A7B PUSH1 0xC0 SHL PUSH2 0x1329 JUMP JUMPDEST PUSH1 0x0 PUSH1 0x1 PUSH1 0x0 DUP6 PUSH20 0xFFFFFFFFFFFFFFFFFFFFFFFFFFFFFFFFFFFFFFFF AND PUSH20 0xFFFFFFFFFFFFFFFFFFFFFFFFFFFFFFFFFFFFFFFF AND DUP2 MSTORE PUSH1 0x20 ADD SWAP1 DUP2 MSTORE PUSH1 0x20 ADD PUSH1 0x0 KECCAK256 DUP1 SLOAD DUP1 PUSH1 0x20 MUL PUSH1 0x20 ADD PUSH1 0x40 MLOAD SWAP1 DUP2 ADD PUSH1 0x40 MSTORE DUP1 SWAP3 SWAP2 SWAP1 DUP2 DUP2 MSTORE PUSH1 0x20 ADD PUSH1 0x0 SWAP1 JUMPDEST DUP3 DUP3 LT ISZERO PUSH2 0xD98 JUMPI DUP4 DUP3 SWAP1 PUSH1 0x0 MSTORE PUSH1 0x20 PUSH1 0x0 KECCAK256 SWAP1 PUSH1 0x2 MUL ADD PUSH1 0x40 MLOAD DUP1 PUSH1 0x40 ADD PUSH1 0x40 MSTORE SWAP1 DUP2 PUSH1 0x0 DUP3 ADD DUP1 SLOAD PUSH2 0xCB1 SWAP1 PUSH2 0x1BB7 JUMP JUMPDEST DUP1 PUSH1 0x1F ADD PUSH1 0x20 DUP1 SWAP2 DIV MUL PUSH1 0x20 ADD PUSH1 0x40 MLOAD SWAP1 DUP2 ADD PUSH1 0x40 MSTORE DUP1 SWAP3 SWAP2 SWAP1 DUP2 DUP2 MSTORE PUSH1 0x20 ADD DUP3 DUP1 SLOAD PUSH2 0xCDD SWAP1 PUSH2 0x1BB7 JUMP JUMPDEST DUP1 ISZERO PUSH2 0xD2A JUMPI DUP1 PUSH1 0x1F LT PUSH2 0xCFF JUMPI PUSH2 0x100 DUP1 DUP4 SLOAD DIV MUL DUP4 MSTORE SWAP2 PUSH1 0x20 ADD SWAP2 PUSH2 0xD2A JUMP JUMPDEST DUP3 ADD SWAP2 SWAP1 PUSH1 0x0 MSTORE PUSH1 0x20 PUSH1 0x0 KECCAK256 SWAP1 JUMPDEST DUP2 SLOAD DUP2 MSTORE SWAP1 PUSH1 0x1 ADD SWAP1 PUSH1 0x20 ADD DUP1 DUP4 GT PUSH2 0xD0D JUMPI DUP3 SWAP1 SUB PUSH1 0x1F AND DUP3 ADD SWAP2 JUMPDEST POP POP POP POP POP DUP2 MSTORE PUSH1 0x20 ADD PUSH1 0x1 DUP3 ADD PUSH1 0x0 SWAP1 SLOAD SWAP1 PUSH2 0x100 EXP SWAP1 DIV PUSH20 0xFFFFFFFFFFFFFFFFFFFFFFFFFFFFFFFFFFFFFFFF AND PUSH20 0xFFFFFFFFFFFFFFFFFFFFFFFFFFFFFFFFFFFFFFFF AND PUSH20 0xFFFFFFFFFFFFFFFFFFFFFFFFFFFFFFFFFFFFFFFF AND DUP2 MSTORE POP POP DUP2 MSTORE PUSH1 0x20 ADD SWAP1 PUSH1 0x1 ADD SWAP1 PUSH2 0xC7E JUMP JUMPDEST POP POP POP POP SWAP1 POP PUSH2 0xDB2 PUSH8 0xDB888943BF43EE8D PUSH1 0xC0 SHL PUSH2 0x1329 JUMP JUMPDEST PUSH1 0x0 SWAP2 POP PUSH2 0xDCA PUSH8 0xC134229F9BCC237D PUSH1 0xC0 SHL PUSH2 0x1329 JUMP JUMPDEST PUSH2 0xDDE PUSH8 0x782B8C5CF3D965C0 PUSH1 0xC0 SHL PUSH2 0x1329 JUMP JUMPDEST PUSH1 0x0 JUMPDEST DUP2 MLOAD DUP2 LT ISZERO PUSH2 0xFCA JUMPI PUSH2 0xDFE PUSH8 0x2C2EA2D4DBDE07A PUSH1 0xC0 SHL PUSH2 0x1329 JUMP JUMPDEST PUSH2 0xE12 PUSH8 0xF08D09A118558D09 PUSH1 0xC0 SHL PUSH2 0x1329 JUMP JUMPDEST PUSH1 0x0 DUP3 DUP3 DUP2 MLOAD DUP2 LT PUSH2 0xE27 JUMPI PUSH2 0xE26 PUSH2 0x1993 JUMP JUMPDEST JUMPDEST PUSH1 0x20 MUL PUSH1 0x20 ADD ADD MLOAD PUSH1 0x20 ADD MLOAD SWAP1 POP PUSH2 0xE49 PUSH8 0x745EA01DA7CFAF0E PUSH1 0xC0 SHL PUSH2 0x1329 JUMP JUMPDEST PUSH2 0xE5D PUSH8 0xC1588E03C10896F3 PUSH1 0xC0 SHL PUSH2 0x1329 JUMP JUMPDEST DUP5 PUSH20 0xFFFFFFFFFFFFFFFFFFFFFFFFFFFFFFFFFFFFFFFF AND DUP2 PUSH20 0xFFFFFFFFFFFFFFFFFFFFFFFFFFFFFFFFFFFFFFFF AND PUSH4 0x9D76EA58 PUSH1 0x40 MLOAD DUP2 PUSH4 0xFFFFFFFF AND PUSH1 0xE0 SHL DUP2 MSTORE PUSH1 0x4 ADD PUSH1 0x20 PUSH1 0x40 MLOAD DUP1 DUP4 SUB DUP2 DUP7 GAS STATICCALL ISZERO DUP1 ISZERO PUSH2 0xEBF JUMPI RETURNDATASIZE PUSH1 0x0 DUP1 RETURNDATACOPY RETURNDATASIZE PUSH1 0x0 REVERT JUMPDEST POP POP POP POP PUSH1 0x40 MLOAD RETURNDATASIZE PUSH1 0x1F NOT PUSH1 0x1F DUP3 ADD AND DUP3 ADD DUP1 PUSH1 0x40 MSTORE POP DUP2 ADD SWAP1 PUSH2 0xEE3 SWAP2 SWAP1 PUSH2 0x19D7 JUMP JUMPDEST PUSH20 0xFFFFFFFFFFFFFFFFFFFFFFFFFFFFFFFFFFFFFFFF AND SUB PUSH2 0xFA7 JUMPI PUSH2 0xF12 PUSH8 0x716A72A54A3495F2 PUSH1 0xC0 SHL PUSH2 0x1329 JUMP JUMPDEST PUSH2 0xF26 PUSH8 0xE3E110280F295417 PUSH1 0xC0 SHL PUSH2 0x1329 JUMP JUMPDEST DUP1 PUSH20 0xFFFFFFFFFFFFFFFFFFFFFFFFFFFFFFFFFFFFFFFF AND PUSH4 0x12065FE0 PUSH1 0x40 MLOAD DUP2 PUSH4 0xFFFFFFFF AND PUSH1 0xE0 SHL DUP2 MSTORE PUSH1 0x4 ADD PUSH1 0x20 PUSH1 0x40 MLOAD DUP1 DUP4 SUB DUP2 DUP7 GAS STATICCALL ISZERO DUP1 ISZERO PUSH2 0xF71 JUMPI RETURNDATASIZE PUSH1 0x0 DUP1 RETURNDATACOPY RETURNDATASIZE PUSH1 0x0 REVERT JUMPDEST POP POP POP POP PUSH1 0x40 MLOAD RETURNDATASIZE PUSH1 0x1F NOT PUSH1 0x1F DUP3 ADD AND DUP3 ADD DUP1 PUSH1 0x40 MSTORE POP DUP2 ADD SWAP1 PUSH2 0xF95 SWAP2 SWAP1 PUSH2 0x1EAB JUMP JUMPDEST DUP5 PUSH2 0xFA0 SWAP2 SWAP1 PUSH2 0x1F07 JUMP JUMPDEST SWAP4 POP PUSH2 0xFBC JUMP JUMPDEST PUSH2 0xFBB PUSH8 0x93B0431F3451F693 PUSH1 0xC0 SHL PUSH2 0x1329 JUMP JUMPDEST JUMPDEST POP DUP1 DUP1 PUSH1 0x1 ADD SWAP2 POP POP PUSH2 0xDE1 JUMP JUMPDEST POP POP SWAP3 SWAP2 POP POP JUMP JUMPDEST PUSH1 0x0 PUSH2 0xFE8 PUSH8 0xB8BFEC6C7D3EF6EC PUSH1 0xC0 SHL PUSH2 0x1329 JUMP JUMPDEST PUSH2 0xFFC PUSH8 0x69C855ED6B1437F3 PUSH1 0xC0 SHL PUSH2 0x1329 JUMP JUMPDEST PUSH2 0x1010 PUSH8 0xF23E38F44235B9E3 PUSH1 0xC0 SHL PUSH2 0x1329 JUMP JUMPDEST PUSH1 0x1 PUSH1 0x0 DUP4 PUSH20 0xFFFFFFFFFFFFFFFFFFFFFFFFFFFFFFFFFFFFFFFF AND PUSH20 0xFFFFFFFFFFFFFFFFFFFFFFFFFFFFFFFFFFFFFFFF AND DUP2 MSTORE PUSH1 0x20 ADD SWAP1 DUP2 MSTORE PUSH1 0x20 ADD PUSH1 0x0 KECCAK256 DUP1 SLOAD SWAP1 POP SWAP1 POP SWAP2 SWAP1 POP JUMP JUMPDEST PUSH1 0x1 PUSH1 0x20 MSTORE DUP2 PUSH1 0x0 MSTORE PUSH1 0x40 PUSH1 0x0 KECCAK256 DUP2 DUP2 SLOAD DUP2 LT PUSH2 0x1076 JUMPI PUSH1 0x0 DUP1 REVERT JUMPDEST SWAP1 PUSH1 0x0 MSTORE PUSH1 0x20 PUSH1 0x0 KECCAK256 SWAP1 PUSH1 0x2 MUL ADD PUSH1 0x0 SWAP2 POP SWAP2 POP POP DUP1 PUSH1 0x0 ADD DUP1 SLOAD PUSH2 0x109A SWAP1 PUSH2 0x1BB7 JUMP JUMPDEST DUP1 PUSH1 0x1F ADD PUSH1 0x20 DUP1 SWAP2 DIV MUL PUSH1 0x20 ADD PUSH1 0x40 MLOAD SWAP1 DUP2 ADD PUSH1 0x40 MSTORE DUP1 SWAP3 SWAP2 SWAP1 DUP2 DUP2 MSTORE PUSH1 0x20 ADD DUP3 DUP1 SLOAD PUSH2 0x10C6 SWAP1 PUSH2 0x1BB7 JUMP JUMPDEST DUP1 ISZERO PUSH2 0x1113 JUMPI DUP1 PUSH1 0x1F LT PUSH2 0x10E8 JUMPI PUSH2 0x100 DUP1 DUP4 SLOAD DIV MUL DUP4 MSTORE SWAP2 PUSH1 0x20 ADD SWAP2 PUSH2 0x1113 JUMP JUMPDEST DUP3 ADD SWAP2 SWAP1 PUSH1 0x0 MSTORE PUSH1 0x20 PUSH1 0x0 KECCAK256 SWAP1 JUMPDEST DUP2 SLOAD DUP2 MSTORE SWAP1 PUSH1 0x1 ADD SWAP1 PUSH1 0x20 ADD DUP1 DUP4 GT PUSH2 0x10F6 JUMPI DUP3 SWAP1 SUB PUSH1 0x1F AND DUP3 ADD SWAP2 JUMPDEST POP POP POP POP POP SWAP1 DUP1 PUSH1 0x1 ADD PUSH1 0x0 SWAP1 SLOAD SWAP1 PUSH2 0x100 EXP SWAP1 DIV PUSH20 0xFFFFFFFFFFFFFFFFFFFFFFFFFFFFFFFFFFFFFFFF AND SWAP1 POP DUP3 JUMP JUMPDEST PUSH1 0x60 PUSH2 0x1159 PUSH8 0x2D0403D228B51E8E PUSH1 0xC0 SHL PUSH2 0x1329 JUMP JUMPDEST PUSH2 0x116D PUSH8 0x1888B02CD045695 PUSH1 0xC0 SHL PUSH2 0x1329 JUMP JUMPDEST PUSH2 0x1181 PUSH8 0x7B053D5B80CFD918 PUSH1 0xC0 SHL PUSH2 0x1329 JUMP JUMPDEST PUSH1 0x1 PUSH1 0x0 DUP4 PUSH20 0xFFFFFFFFFFFFFFFFFFFFFFFFFFFFFFFFFFFFFFFF AND PUSH20 0xFFFFFFFFFFFFFFFFFFFFFFFFFFFFFFFFFFFFFFFF AND DUP2 MSTORE PUSH1 0x20 ADD SWAP1 DUP2 MSTORE PUSH1 0x20 ADD PUSH1 0x0 KECCAK256 DUP1 SLOAD DUP1 PUSH1 0x20 MUL PUSH1 0x20 ADD PUSH1 0x40 MLOAD SWAP1 DUP2 ADD PUSH1 0x40 MSTORE DUP1 SWAP3 SWAP2 SWAP1 DUP2 DUP2 MSTORE PUSH1 0x20 ADD PUSH1 0x0 SWAP1 JUMPDEST DUP3 DUP3 LT ISZERO PUSH2 0x12FA JUMPI DUP4 DUP3 SWAP1 PUSH1 0x0 MSTORE PUSH1 0x20 PUSH1 0x0 KECCAK256 SWAP1 PUSH1 0x2 MUL ADD PUSH1 0x40 MLOAD DUP1 PUSH1 0x40 ADD PUSH1 0x40 MSTORE SWAP1 DUP2 PUSH1 0x0 DUP3 ADD DUP1 SLOAD PUSH2 0x1213 SWAP1 PUSH2 0x1BB7 JUMP JUMPDEST DUP1 PUSH1 0x1F ADD PUSH1 0x20 DUP1 SWAP2 DIV MUL PUSH1 0x20 ADD PUSH1 0x40 MLOAD SWAP1 DUP2 ADD PUSH1 0x40 MSTORE DUP1 SWAP3 SWAP2 SWAP1 DUP2 DUP2 MSTORE PUSH1 0x20 ADD DUP3 DUP1 SLOAD PUSH2 0x123F SWAP1 PUSH2 0x1BB7 JUMP JUMPDEST DUP1 ISZERO PUSH2 0x128C JUMPI DUP1 PUSH1 0x1F LT PUSH2 0x1261 JUMPI PUSH2 0x100 DUP1 DUP4 SLOAD DIV MUL DUP4 MSTORE SWAP2 PUSH1 0x20 ADD SWAP2 PUSH2 0x128C JUMP JUMPDEST DUP3 ADD SWAP2 SWAP1 PUSH1 0x0 MSTORE PUSH1 0x20 PUSH1 0x0 KECCAK256 SWAP1 JUMPDEST DUP2 SLOAD DUP2 MSTORE SWAP1 PUSH1 0x1 ADD SWAP1 PUSH1 0x20 ADD DUP1 DUP4 GT PUSH2 0x126F JUMPI DUP3 SWAP1 SUB PUSH1 0x1F AND DUP3 ADD SWAP2 JUMPDEST POP POP POP POP POP DUP2 MSTORE PUSH1 0x20 ADD PUSH1 0x1 DUP3 ADD PUSH1 0x0 SWAP1 SLOAD SWAP1 PUSH2 0x100 EXP SWAP1 DIV PUSH20 0xFFFFFFFFFFFFFFFFFFFFFFFFFFFFFFFFFFFFFFFF AND PUSH20 0xFFFFFFFFFFFFFFFFFFFFFFFFFFFFFFFFFFFFFFFF AND PUSH20 0xFFFFFFFFFFFFFFFFFFFFFFFFFFFFFFFFFFFFFFFF AND DUP2 MSTORE POP POP DUP2 MSTORE PUSH1 0x20 ADD SWAP1 PUSH1 0x1 ADD SWAP1 PUSH2 0x11E0 JUMP JUMPDEST POP POP POP POP SWAP1 POP SWAP2 SWAP1 POP JUMP JUMPDEST PUSH1 0x0 DUP1 SLOAD SWAP1 PUSH2 0x100 EXP SWAP1 DIV PUSH20 0xFFFFFFFFFFFFFFFFFFFFFFFFFFFFFFFFFFFFFFFF AND DUP2 JUMP JUMPDEST POP JUMP JUMPDEST PUSH2 0x15EB DUP1 PUSH2 0x1F3C DUP4 CODECOPY ADD SWAP1 JUMP JUMPDEST PUSH1 0x0 PUSH1 0x40 MLOAD SWAP1 POP SWAP1 JUMP JUMPDEST PUSH1 0x0 DUP1 REVERT JUMPDEST PUSH1 0x0 DUP1 REVERT JUMPDEST PUSH1 0x0 PUSH20 0xFFFFFFFFFFFFFFFFFFFFFFFFFFFFFFFFFFFFFFFF DUP3 AND SWAP1 POP SWAP2 SWAP1 POP JUMP JUMPDEST PUSH1 0x0 PUSH2 0x1378 DUP3 PUSH2 0x134D JUMP JUMPDEST SWAP1 POP SWAP2 SWAP1 POP JUMP JUMPDEST PUSH2 0x1388 DUP2 PUSH2 0x136D JUMP JUMPDEST DUP2 EQ PUSH2 0x1393 JUMPI PUSH1 0x0 DUP1 REVERT JUMPDEST POP JUMP JUMPDEST PUSH1 0x0 DUP2 CALLDATALOAD SWAP1 POP PUSH2 0x13A5 DUP2 PUSH2 0x137F JUMP JUMPDEST SWAP3 SWAP2 POP POP JUMP JUMPDEST PUSH1 0x0 DUP2 SWAP1 POP SWAP2 SWAP1 POP JUMP JUMPDEST PUSH2 0x13BE DUP2 PUSH2 0x13AB JUMP JUMPDEST DUP2 EQ PUSH2 0x13C9 JUMPI PUSH1 0x0 DUP1 REVERT JUMPDEST POP JUMP JUMPDEST PUSH1 0x0 DUP2 CALLDATALOAD SWAP1 POP PUSH2 0x13DB DUP2 PUSH2 0x13B5 JUMP JUMPDEST SWAP3 SWAP2 POP POP JUMP JUMPDEST PUSH1 0x0 DUP1 PUSH1 0x0 PUSH1 0x60 DUP5 DUP7 SUB SLT ISZERO PUSH2 0x13FA JUMPI PUSH2 0x13F9 PUSH2 0x1343 JUMP JUMPDEST JUMPDEST PUSH1 0x0 PUSH2 0x1408 DUP7 DUP3 DUP8 ADD PUSH2 0x1396 JUMP JUMPDEST SWAP4 POP POP PUSH1 0x20 PUSH2 0x1419 DUP7 DUP3 DUP8 ADD PUSH2 0x13CC JUMP JUMPDEST SWAP3 POP POP PUSH1 0x40 PUSH2 0x142A DUP7 DUP3 DUP8 ADD PUSH2 0x13CC JUMP JUMPDEST SWAP2 POP POP SWAP3 POP SWAP3 POP SWAP3 JUMP JUMPDEST PUSH1 0x0 DUP1 REVERT JUMPDEST PUSH1 0x0 DUP1 REVERT JUMPDEST PUSH1 0x0 PUSH1 0x1F NOT PUSH1 0x1F DUP4 ADD AND SWAP1 POP SWAP2 SWAP1 POP JUMP JUMPDEST PUSH32 0x4E487B7100000000000000000000000000000000000000000000000000000000 PUSH1 0x0 MSTORE PUSH1 0x41 PUSH1 0x4 MSTORE PUSH1 0x24 PUSH1 0x0 REVERT JUMPDEST PUSH2 0x1487 DUP3 PUSH2 0x143E JUMP JUMPDEST DUP2 ADD DUP2 DUP2 LT PUSH8 0xFFFFFFFFFFFFFFFF DUP3 GT OR ISZERO PUSH2 0x14A6 JUMPI PUSH2 0x14A5 PUSH2 0x144F JUMP JUMPDEST JUMPDEST DUP1 PUSH1 0x40 MSTORE POP POP POP JUMP JUMPDEST PUSH1 0x0 PUSH2 0x14B9 PUSH2 0x1339 JUMP JUMPDEST SWAP1 POP PUSH2 0x14C5 DUP3 DUP3 PUSH2 0x147E JUMP JUMPDEST SWAP2 SWAP1 POP JUMP JUMPDEST PUSH1 0x0 PUSH8 0xFFFFFFFFFFFFFFFF DUP3 GT ISZERO PUSH2 0x14E5 JUMPI PUSH2 0x14E4 PUSH2 0x144F JUMP JUMPDEST JUMPDEST PUSH2 0x14EE DUP3 PUSH2 0x143E JUMP JUMPDEST SWAP1 POP PUSH1 0x20 DUP2 ADD SWAP1 POP SWAP2 SWAP1 POP JUMP JUMPDEST DUP3 DUP2 DUP4 CALLDATACOPY PUSH1 0x0 DUP4 DUP4 ADD MSTORE POP POP POP JUMP JUMPDEST PUSH1 0x0 PUSH2 0x151D PUSH2 0x1518 DUP5 PUSH2 0x14CA JUMP JUMPDEST PUSH2 0x14AF JUMP JUMPDEST SWAP1 POP DUP3 DUP2 MSTORE PUSH1 0x20 DUP2 ADD DUP5 DUP5 DUP5 ADD GT ISZERO PUSH2 0x1539 JUMPI PUSH2 0x1538 PUSH2 0x1439 JUMP JUMPDEST JUMPDEST PUSH2 0x1544 DUP5 DUP3 DUP6 PUSH2 0x14FB JUMP JUMPDEST POP SWAP4 SWAP3 POP POP POP JUMP JUMPDEST PUSH1 0x0 DUP3 PUSH1 0x1F DUP4 ADD SLT PUSH2 0x1561 JUMPI PUSH2 0x1560 PUSH2 0x1434 JUMP JUMPDEST JUMPDEST DUP2 CALLDATALOAD PUSH2 0x1571 DUP5 DUP3 PUSH1 0x20 DUP7 ADD PUSH2 0x150A JUMP JUMPDEST SWAP2 POP POP SWAP3 SWAP2 POP POP JUMP JUMPDEST PUSH1 0x0 DUP1 PUSH1 0x0 DUP1 PUSH1 0x80 DUP6 DUP8 SUB SLT ISZERO PUSH2 0x1594 JUMPI PUSH2 0x1593 PUSH2 0x1343 JUMP JUMPDEST JUMPDEST PUSH1 0x0 DUP6 ADD CALLDATALOAD PUSH8 0xFFFFFFFFFFFFFFFF DUP2 GT ISZERO PUSH2 0x15B2 JUMPI PUSH2 0x15B1 PUSH2 0x1348 JUMP JUMPDEST JUMPDEST PUSH2 0x15BE DUP8 DUP3 DUP9 ADD PUSH2 0x154C JUMP JUMPDEST SWAP5 POP POP PUSH1 0x20 PUSH2 0x15CF DUP8 DUP3 DUP9 ADD PUSH2 0x1396 JUMP JUMPDEST SWAP4 POP POP PUSH1 0x40 PUSH2 0x15E0 DUP8 DUP3 DUP9 ADD PUSH2 0x13CC JUMP JUMPDEST SWAP3 POP POP PUSH1 0x60 PUSH2 0x15F1 DUP8 DUP3 DUP9 ADD PUSH2 0x13CC JUMP JUMPDEST SWAP2 POP POP SWAP3 SWAP6 SWAP2 SWAP5 POP SWAP3 POP JUMP JUMPDEST PUSH1 0x0 DUP1 PUSH1 0x40 DUP4 DUP6 SUB SLT ISZERO PUSH2 0x1614 JUMPI PUSH2 0x1613 PUSH2 0x1343 JUMP JUMPDEST JUMPDEST PUSH1 0x0 PUSH2 0x1622 DUP6 DUP3 DUP7 ADD PUSH2 0x1396 JUMP JUMPDEST SWAP3 POP POP PUSH1 0x20 PUSH2 0x1633 DUP6 DUP3 DUP7 ADD PUSH2 0x1396 JUMP JUMPDEST SWAP2 POP POP SWAP3 POP SWAP3 SWAP1 POP JUMP JUMPDEST PUSH2 0x1646 DUP2 PUSH2 0x13AB JUMP JUMPDEST DUP3 MSTORE POP POP JUMP JUMPDEST PUSH1 0x0 PUSH1 0x20 DUP3 ADD SWAP1 POP PUSH2 0x1661 PUSH1 0x0 DUP4 ADD DUP5 PUSH2 0x163D JUMP JUMPDEST SWAP3 SWAP2 POP POP JUMP JUMPDEST PUSH1 0x0 PUSH1 0x20 DUP3 DUP5 SUB SLT ISZERO PUSH2 0x167D JUMPI PUSH2 0x167C PUSH2 0x1343 JUMP JUMPDEST JUMPDEST PUSH1 0x0 PUSH2 0x168B DUP5 DUP3 DUP6 ADD PUSH2 0x1396 JUMP JUMPDEST SWAP2 POP POP SWAP3 SWAP2 POP POP JUMP JUMPDEST PUSH1 0x0 DUP1 PUSH1 0x40 DUP4 DUP6 SUB SLT ISZERO PUSH2 0x16AB JUMPI PUSH2 0x16AA PUSH2 0x1343 JUMP JUMPDEST JUMPDEST PUSH1 0x0 PUSH2 0x16B9 DUP6 DUP3 DUP7 ADD PUSH2 0x1396 JUMP JUMPDEST SWAP3 POP POP PUSH1 0x20 PUSH2 0x16CA DUP6 DUP3 DUP7 ADD PUSH2 0x13CC JUMP JUMPDEST SWAP2 POP POP SWAP3 POP SWAP3 SWAP1 POP JUMP JUMPDEST PUSH1 0x0 DUP2 MLOAD SWAP1 POP SWAP2 SWAP1 POP JUMP JUMPDEST PUSH1 0x0 DUP3 DUP3 MSTORE PUSH1 0x20 DUP3 ADD SWAP1 POP SWAP3 SWAP2 POP POP JUMP JUMPDEST PUSH1 0x0 JUMPDEST DUP4 DUP2 LT ISZERO PUSH2 0x170E JUMPI DUP1 DUP3 ADD MLOAD DUP2 DUP5 ADD MSTORE PUSH1 0x20 DUP2 ADD SWAP1 POP PUSH2 0x16F3 JUMP JUMPDEST PUSH1 0x0 DUP5 DUP5 ADD MSTORE POP POP POP POP JUMP JUMPDEST PUSH1 0x0 PUSH2 0x1725 DUP3 PUSH2 0x16D4 JUMP JUMPDEST PUSH2 0x172F DUP2 DUP6 PUSH2 0x16DF JUMP JUMPDEST SWAP4 POP PUSH2 0x173F DUP2 DUP6 PUSH1 0x20 DUP7 ADD PUSH2 0x16F0 JUMP JUMPDEST PUSH2 0x1748 DUP2 PUSH2 0x143E JUMP JUMPDEST DUP5 ADD SWAP2 POP POP SWAP3 SWAP2 POP POP JUMP JUMPDEST PUSH2 0x175C DUP2 PUSH2 0x136D JUMP JUMPDEST DUP3 MSTORE POP POP JUMP JUMPDEST PUSH1 0x0 PUSH1 0x40 DUP3 ADD SWAP1 POP DUP2 DUP2 SUB PUSH1 0x0 DUP4 ADD MSTORE PUSH2 0x177C DUP2 DUP6 PUSH2 0x171A JUMP JUMPDEST SWAP1 POP PUSH2 0x178B PUSH1 0x20 DUP4 ADD DUP5 PUSH2 0x1753 JUMP JUMPDEST SWAP4 SWAP3 POP POP POP JUMP JUMPDEST PUSH1 0x0 DUP2 MLOAD SWAP1 POP SWAP2 SWAP1 POP JUMP JUMPDEST PUSH1 0x0 DUP3 DUP3 MSTORE PUSH1 0x20 DUP3 ADD SWAP1 POP SWAP3 SWAP2 POP POP JUMP JUMPDEST PUSH1 0x0 DUP2 SWAP1 POP PUSH1 0x20 DUP3 ADD SWAP1 POP SWAP2 SWAP1 POP JUMP JUMPDEST PUSH1 0x0 DUP3 DUP3 MSTORE PUSH1 0x20 DUP3 ADD SWAP1 POP SWAP3 SWAP2 POP POP JUMP JUMPDEST PUSH1 0x0 PUSH2 0x17DA DUP3 PUSH2 0x16D4 JUMP JUMPDEST PUSH2 0x17E4 DUP2 DUP6 PUSH2 0x17BE JUMP JUMPDEST SWAP4 POP PUSH2 0x17F4 DUP2 DUP6 PUSH1 0x20 DUP7 ADD PUSH2 0x16F0 JUMP JUMPDEST PUSH2 0x17FD DUP2 PUSH2 0x143E JUMP JUMPDEST DUP5 ADD SWAP2 POP POP SWAP3 SWAP2 POP POP JUMP JUMPDEST PUSH2 0x1811 DUP2 PUSH2 0x136D JUMP JUMPDEST DUP3 MSTORE POP POP JUMP JUMPDEST PUSH1 0x0 PUSH1 0x40 DUP4 ADD PUSH1 0x0 DUP4 ADD MLOAD DUP5 DUP3 SUB PUSH1 0x0 DUP7 ADD MSTORE PUSH2 0x1834 DUP3 DUP3 PUSH2 0x17CF JUMP JUMPDEST SWAP2 POP POP PUSH1 0x20 DUP4 ADD MLOAD PUSH2 0x1849 PUSH1 0x20 DUP7 ADD DUP3 PUSH2 0x1808 JUMP JUMPDEST POP DUP1 SWAP2 POP POP SWAP3 SWAP2 POP POP JUMP JUMPDEST PUSH1 0x0 PUSH2 0x1860 DUP4 DUP4 PUSH2 0x1817 JUMP JUMPDEST SWAP1 POP SWAP3 SWAP2 POP POP JUMP JUMPDEST PUSH1 0x0 PUSH1 0x20 DUP3 ADD SWAP1 POP SWAP2 SWAP1 POP JUMP JUMPDEST PUSH1 0x0 PUSH2 0x1880 DUP3 PUSH2 0x1792 JUMP JUMPDEST PUSH2 0x188A DUP2 DUP6 PUSH2 0x179D JUMP JUMPDEST SWAP4 POP DUP4 PUSH1 0x20 DUP3 MUL DUP6 ADD PUSH2 0x189C DUP6 PUSH2 0x17AE JUMP JUMPDEST DUP1 PUSH1 0x0 JUMPDEST DUP6 DUP2 LT ISZERO PUSH2 0x18D8 JUMPI DUP5 DUP5 SUB DUP10 MSTORE DUP2 MLOAD PUSH2 0x18B9 DUP6 DUP3 PUSH2 0x1854 JUMP JUMPDEST SWAP5 POP PUSH2 0x18C4 DUP4 PUSH2 0x1868 JUMP JUMPDEST SWAP3 POP PUSH1 0x20 DUP11 ADD SWAP10 POP POP PUSH1 0x1 DUP2 ADD SWAP1 POP PUSH2 0x18A0 JUMP JUMPDEST POP DUP3 SWAP8 POP DUP8 SWAP6 POP POP POP POP POP POP SWAP3 SWAP2 POP POP JUMP JUMPDEST PUSH1 0x0 PUSH1 0x20 DUP3 ADD SWAP1 POP DUP2 DUP2 SUB PUSH1 0x0 DUP4 ADD MSTORE PUSH2 0x1904 DUP2 DUP5 PUSH2 0x1875 JUMP JUMPDEST SWAP1 POP SWAP3 SWAP2 POP POP JUMP JUMPDEST PUSH1 0x0 PUSH1 0x20 DUP3 ADD SWAP1 POP PUSH2 0x1921 PUSH1 0x0 DUP4 ADD DUP5 PUSH2 0x1753 JUMP JUMPDEST SWAP3 SWAP2 POP POP JUMP JUMPDEST PUSH32 0x496E76616C69642062616E6B20696E6465780000000000000000000000000000 PUSH1 0x0 DUP3 ADD MSTORE POP JUMP JUMPDEST PUSH1 0x0 PUSH2 0x195D PUSH1 0x12 DUP4 PUSH2 0x16DF JUMP JUMPDEST SWAP2 POP PUSH2 0x1968 DUP3 PUSH2 0x1927 JUMP JUMPDEST PUSH1 0x20 DUP3 ADD SWAP1 POP SWAP2 SWAP1 POP JUMP JUMPDEST PUSH1 0x0 PUSH1 0x20 DUP3 ADD SWAP1 POP DUP2 DUP2 SUB PUSH1 0x0 DUP4 ADD MSTORE PUSH2 0x198C DUP2 PUSH2 0x1950 JUMP JUMPDEST SWAP1 POP SWAP2 SWAP1 POP JUMP JUMPDEST PUSH32 0x4E487B7100000000000000000000000000000000000000000000000000000000 PUSH1 0x0 MSTORE PUSH1 0x32 PUSH1 0x4 MSTORE PUSH1 0x24 PUSH1 0x0 REVERT JUMPDEST PUSH1 0x0 DUP2 MLOAD SWAP1 POP PUSH2 0x19D1 DUP2 PUSH2 0x137F JUMP JUMPDEST SWAP3 SWAP2 POP POP JUMP JUMPDEST PUSH1 0x0 PUSH1 0x20 DUP3 DUP5 SUB SLT ISZERO PUSH2 0x19ED JUMPI PUSH2 0x19EC PUSH2 0x1343 JUMP JUMPDEST JUMPDEST PUSH1 0x0 PUSH2 0x19FB DUP5 DUP3 DUP6 ADD PUSH2 0x19C2 JUMP JUMPDEST SWAP2 POP POP SWAP3 SWAP2 POP POP JUMP JUMPDEST PUSH32 0x496E636F7272656374204554482073656E740000000000000000000000000000 PUSH1 0x0 DUP3 ADD MSTORE POP JUMP JUMPDEST PUSH1 0x0 PUSH2 0x1A3A PUSH1 0x12 DUP4 PUSH2 0x16DF JUMP JUMPDEST SWAP2 POP PUSH2 0x1A45 DUP3 PUSH2 0x1A04 JUMP JUMPDEST PUSH1 0x20 DUP3 ADD SWAP1 POP SWAP2 SWAP1 POP JUMP JUMPDEST PUSH1 0x0 PUSH1 0x20 DUP3 ADD SWAP1 POP DUP2 DUP2 SUB PUSH1 0x0 DUP4 ADD MSTORE PUSH2 0x1A69 DUP2 PUSH2 0x1A2D JUMP JUMPDEST SWAP1 POP SWAP2 SWAP1 POP JUMP JUMPDEST PUSH1 0x0 PUSH1 0x60 DUP3 ADD SWAP1 POP PUSH2 0x1A85 PUSH1 0x0 DUP4 ADD DUP7 PUSH2 0x1753 JUMP JUMPDEST PUSH2 0x1A92 PUSH1 0x20 DUP4 ADD DUP6 PUSH2 0x1753 JUMP JUMPDEST PUSH2 0x1A9F PUSH1 0x40 DUP4 ADD DUP5 PUSH2 0x163D JUMP JUMPDEST SWAP5 SWAP4 POP POP POP POP JUMP JUMPDEST PUSH1 0x0 DUP2 ISZERO ISZERO SWAP1 POP SWAP2 SWAP1 POP JUMP JUMPDEST PUSH2 0x1ABC DUP2 PUSH2 0x1AA7 JUMP JUMPDEST DUP2 EQ PUSH2 0x1AC7 JUMPI PUSH1 0x0 DUP1 REVERT JUMPDEST POP JUMP JUMPDEST PUSH1 0x0 DUP2 MLOAD SWAP1 POP PUSH2 0x1AD9 DUP2 PUSH2 0x1AB3 JUMP JUMPDEST SWAP3 SWAP2 POP POP JUMP JUMPDEST PUSH1 0x0 PUSH1 0x20 DUP3 DUP5 SUB SLT ISZERO PUSH2 0x1AF5 JUMPI PUSH2 0x1AF4 PUSH2 0x1343 JUMP JUMPDEST JUMPDEST PUSH1 0x0 PUSH2 0x1B03 DUP5 DUP3 DUP6 ADD PUSH2 0x1ACA JUMP JUMPDEST SWAP2 POP POP SWAP3 SWAP2 POP POP JUMP JUMPDEST PUSH1 0x0 PUSH1 0x40 DUP3 ADD SWAP1 POP PUSH2 0x1B21 PUSH1 0x0 DUP4 ADD DUP6 PUSH2 0x1753 JUMP JUMPDEST PUSH2 0x1B2E PUSH1 0x20 DUP4 ADD DUP5 PUSH2 0x163D JUMP JUMPDEST SWAP4 SWAP3 POP POP POP JUMP JUMPDEST PUSH1 0x0 PUSH1 0xA0 DUP3 ADD SWAP1 POP PUSH2 0x1B4A PUSH1 0x0 DUP4 ADD DUP9 PUSH2 0x1753 JUMP JUMPDEST PUSH2 0x1B57 PUSH1 0x20 DUP4 ADD DUP8 PUSH2 0x1753 JUMP JUMPDEST PUSH2 0x1B64 PUSH1 0x40 DUP4 ADD DUP7 PUSH2 0x163D JUMP JUMPDEST PUSH2 0x1B71 PUSH1 0x60 DUP4 ADD DUP6 PUSH2 0x163D JUMP JUMPDEST PUSH2 0x1B7E PUSH1 0x80 DUP4 ADD DUP5 PUSH2 0x1753 JUMP JUMPDEST SWAP7 SWAP6 POP POP POP POP POP POP JUMP JUMPDEST PUSH32 0x4E487B7100000000000000000000000000000000000000000000000000000000 PUSH1 0x0 MSTORE PUSH1 0x22 PUSH1 0x4 MSTORE PUSH1 0x24 PUSH1 0x0 REVERT JUMPDEST PUSH1 0x0 PUSH1 0x2 DUP3 DIV SWAP1 POP PUSH1 0x1 DUP3 AND DUP1 PUSH2 0x1BCF JUMPI PUSH1 0x7F DUP3 AND SWAP2 POP JUMPDEST PUSH1 0x20 DUP3 LT DUP2 SUB PUSH2 0x1BE2 JUMPI PUSH2 0x1BE1 PUSH2 0x1B88 JUMP JUMPDEST JUMPDEST POP SWAP2 SWAP1 POP JUMP JUMPDEST PUSH1 0x0 DUP2 SWAP1 POP DUP2 PUSH1 0x0 MSTORE PUSH1 0x20 PUSH1 0x0 KECCAK256 SWAP1 POP SWAP2 SWAP1 POP JUMP JUMPDEST PUSH1 0x0 PUSH1 0x20 PUSH1 0x1F DUP4 ADD DIV SWAP1 POP SWAP2 SWAP1 POP JUMP JUMPDEST PUSH1 0x0 DUP3 DUP3 SHL SWAP1 POP SWAP3 SWAP2 POP POP JUMP JUMPDEST PUSH1 0x0 PUSH1 0x8 DUP4 MUL PUSH2 0x1C4A PUSH32 0xFFFFFFFFFFFFFFFFFFFFFFFFFFFFFFFFFFFFFFFFFFFFFFFFFFFFFFFFFFFFFFFF DUP3 PUSH2 0x1C0D JUMP JUMPDEST PUSH2 0x1C54 DUP7 DUP4 PUSH2 0x1C0D JUMP JUMPDEST SWAP6 POP DUP1 NOT DUP5 AND SWAP4 POP DUP1 DUP7 AND DUP5 OR SWAP3 POP POP POP SWAP4 SWAP3 POP POP POP JUMP JUMPDEST PUSH1 0x0 DUP2 SWAP1 POP SWAP2 SWAP1 POP JUMP JUMPDEST PUSH1 0x0 PUSH2 0x1C91 PUSH2 0x1C8C PUSH2 0x1C87 DUP5 PUSH2 0x13AB JUMP JUMPDEST PUSH2 0x1C6C JUMP JUMPDEST PUSH2 0x13AB JUMP JUMPDEST SWAP1 POP SWAP2 SWAP1 POP JUMP JUMPDEST PUSH1 0x0 DUP2 SWAP1 POP SWAP2 SWAP1 POP JUMP JUMPDEST PUSH2 0x1CAB DUP4 PUSH2 0x1C76 JUMP JUMPDEST PUSH2 0x1CBF PUSH2 0x1CB7 DUP3 PUSH2 0x1C98 JUMP JUMPDEST DUP5 DUP5 SLOAD PUSH2 0x1C1A JUMP JUMPDEST DUP3 SSTORE POP POP POP POP JUMP JUMPDEST PUSH1 0x0 SWAP1 JUMP JUMPDEST PUSH2 0x1CD4 PUSH2 0x1CC7 JUMP JUMPDEST PUSH2 0x1CDF DUP2 DUP5 DUP5 PUSH2 0x1CA2 JUMP JUMPDEST POP POP POP JUMP JUMPDEST JUMPDEST DUP2 DUP2 LT ISZERO PUSH2 0x1D03 JUMPI PUSH2 0x1CF8 PUSH1 0x0 DUP3 PUSH2 0x1CCC JUMP JUMPDEST PUSH1 0x1 DUP2 ADD SWAP1 POP PUSH2 0x1CE5 JUMP JUMPDEST POP POP JUMP JUMPDEST PUSH1 0x1F DUP3 GT ISZERO PUSH2 0x1D48 JUMPI PUSH2 0x1D19 DUP2 PUSH2 0x1BE8 JUMP JUMPDEST PUSH2 0x1D22 DUP5 PUSH2 0x1BFD JUMP JUMPDEST DUP2 ADD PUSH1 0x20 DUP6 LT ISZERO PUSH2 0x1D31 JUMPI DUP2 SWAP1 POP JUMPDEST PUSH2 0x1D45 PUSH2 0x1D3D DUP6 PUSH2 0x1BFD JUMP JUMPDEST DUP4 ADD DUP3 PUSH2 0x1CE4 JUMP JUMPDEST POP POP JUMPDEST POP POP POP JUMP JUMPDEST PUSH1 0x0 DUP3 DUP3 SHR SWAP1 POP SWAP3 SWAP2 POP POP JUMP JUMPDEST PUSH1 0x0 PUSH2 0x1D6B PUSH1 0x0 NOT DUP5 PUSH1 0x8 MUL PUSH2 0x1D4D JUMP JUMPDEST NOT DUP1 DUP4 AND SWAP2 POP POP SWAP3 SWAP2 POP POP JUMP JUMPDEST PUSH1 0x0 PUSH2 0x1D84 DUP4 DUP4 PUSH2 0x1D5A JUMP JUMPDEST SWAP2 POP DUP3 PUSH1 0x2 MUL DUP3 OR SWAP1 POP SWAP3 SWAP2 POP POP JUMP JUMPDEST PUSH2 0x1D9D DUP3 PUSH2 0x16D4 JUMP JUMPDEST PUSH8 0xFFFFFFFFFFFFFFFF DUP2 GT ISZERO PUSH2 0x1DB6 JUMPI PUSH2 0x1DB5 PUSH2 0x144F JUMP JUMPDEST JUMPDEST PUSH2 0x1DC0 DUP3 SLOAD PUSH2 0x1BB7 JUMP JUMPDEST PUSH2 0x1DCB DUP3 DUP3 DUP6 PUSH2 0x1D07 JUMP JUMPDEST PUSH1 0x0 PUSH1 0x20 SWAP1 POP PUSH1 0x1F DUP4 GT PUSH1 0x1 DUP2 EQ PUSH2 0x1DFE JUMPI PUSH1 0x0 DUP5 ISZERO PUSH2 0x1DEC JUMPI DUP3 DUP8 ADD MLOAD SWAP1 POP JUMPDEST PUSH2 0x1DF6 DUP6 DUP3 PUSH2 0x1D78 JUMP JUMPDEST DUP7 SSTORE POP PUSH2 0x1E5E JUMP JUMPDEST PUSH1 0x1F NOT DUP5 AND PUSH2 0x1E0C DUP7 PUSH2 0x1BE8 JUMP JUMPDEST PUSH1 0x0 JUMPDEST DUP3 DUP2 LT ISZERO PUSH2 0x1E34 JUMPI DUP5 DUP10 ADD MLOAD DUP3 SSTORE PUSH1 0x1 DUP3 ADD SWAP2 POP PUSH1 0x20 DUP6 ADD SWAP5 POP PUSH1 0x20 DUP2 ADD SWAP1 POP PUSH2 0x1E0F JUMP JUMPDEST DUP7 DUP4 LT ISZERO PUSH2 0x1E51 JUMPI DUP5 DUP10 ADD MLOAD PUSH2 0x1E4D PUSH1 0x1F DUP10 AND DUP3 PUSH2 0x1D5A JUMP JUMPDEST DUP4 SSTORE POP JUMPDEST PUSH1 0x1 PUSH1 0x2 DUP9 MUL ADD DUP9 SSTORE POP POP POP JUMPDEST POP POP POP POP POP POP JUMP JUMPDEST PUSH1 0x0 PUSH1 0x40 DUP3 ADD SWAP1 POP PUSH2 0x1E7B PUSH1 0x0 DUP4 ADD DUP6 PUSH2 0x1753 JUMP JUMPDEST DUP2 DUP2 SUB PUSH1 0x20 DUP4 ADD MSTORE PUSH2 0x1E8D DUP2 DUP5 PUSH2 0x171A JUMP JUMPDEST SWAP1 POP SWAP4 SWAP3 POP POP POP JUMP JUMPDEST PUSH1 0x0 DUP2 MLOAD SWAP1 POP PUSH2 0x1EA5 DUP2 PUSH2 0x13B5 JUMP JUMPDEST SWAP3 SWAP2 POP POP JUMP JUMPDEST PUSH1 0x0 PUSH1 0x20 DUP3 DUP5 SUB SLT ISZERO PUSH2 0x1EC1 JUMPI PUSH2 0x1EC0 PUSH2 0x1343 JUMP JUMPDEST JUMPDEST PUSH1 0x0 PUSH2 0x1ECF DUP5 DUP3 DUP6 ADD PUSH2 0x1E96 JUMP JUMPDEST SWAP2 POP POP SWAP3 SWAP2 POP POP JUMP JUMPDEST PUSH32 0x4E487B7100000000000000000000000000000000000000000000000000000000 PUSH1 0x0 MSTORE PUSH1 0x11 PUSH1 0x4 MSTORE PUSH1 0x24 PUSH1 0x0 REVERT JUMPDEST PUSH1 0x0 PUSH2 0x1F12 DUP3 PUSH2 0x13AB JUMP JUMPDEST SWAP2 POP PUSH2 0x1F1D DUP4 PUSH2 0x13AB JUMP JUMPDEST SWAP3 POP DUP3 DUP3 ADD SWAP1 POP DUP1 DUP3 GT ISZERO PUSH2 0x1F35 JUMPI PUSH2 0x1F34 PUSH2 0x1ED8 JUMP JUMPDEST JUMPDEST SWAP3 SWAP2 POP POP JUMP INVALID PUSH1 0x80 PUSH1 0x40 MSTORE PUSH1 0x40 MLOAD PUSH2 0x15EB CODESIZE SUB DUP1 PUSH2 0x15EB DUP4 CODECOPY DUP2 DUP2 ADD PUSH1 0x40 MSTORE DUP2 ADD SWAP1 PUSH2 0x25 SWAP2 SWAP1 PUSH2 0x3AF JUMP JUMPDEST PUSH2 0x3F PUSH8 0xE42DBD883C706C79 PUSH1 0xC0 SHL PUSH2 0x313 PUSH1 0x20 SHL PUSH1 0x20 SHR JUMP JUMPDEST PUSH2 0x59 PUSH8 0xA54A285C3D0BE964 PUSH1 0xC0 SHL PUSH2 0x313 PUSH1 0x20 SHL PUSH1 0x20 SHR JUMP JUMPDEST DUP5 PUSH1 0x0 DUP1 PUSH2 0x100 EXP DUP2 SLOAD DUP2 PUSH20 0xFFFFFFFFFFFFFFFFFFFFFFFFFFFFFFFFFFFFFFFF MUL NOT AND SWAP1 DUP4 PUSH20 0xFFFFFFFFFFFFFFFFFFFFFFFFFFFFFFFFFFFFFFFF AND MUL OR SWAP1 SSTORE POP PUSH2 0xB3 PUSH8 0xDECB19AC6AF4662B PUSH1 0xC0 SHL PUSH2 0x313 PUSH1 0x20 SHL PUSH1 0x20 SHR JUMP JUMPDEST DUP4 PUSH1 0x1 PUSH1 0x0 PUSH2 0x100 EXP DUP2 SLOAD DUP2 PUSH20 0xFFFFFFFFFFFFFFFFFFFFFFFFFFFFFFFFFFFFFFFF MUL NOT AND SWAP1 DUP4 PUSH20 0xFFFFFFFFFFFFFFFFFFFFFFFFFFFFFFFFFFFFFFFF AND MUL OR SWAP1 SSTORE POP PUSH2 0x10E PUSH8 0xE592AE856DBCBB2E PUSH1 0xC0 SHL PUSH2 0x313 PUSH1 0x20 SHL PUSH1 0x20 SHR JUMP JUMPDEST DUP1 PUSH1 0x3 PUSH1 0x0 PUSH2 0x100 EXP DUP2 SLOAD DUP2 PUSH20 0xFFFFFFFFFFFFFFFFFFFFFFFFFFFFFFFFFFFFFFFF MUL NOT AND SWAP1 DUP4 PUSH20 0xFFFFFFFFFFFFFFFFFFFFFFFFFFFFFFFFFFFFFFFF AND MUL OR SWAP1 SSTORE POP PUSH2 0x169 PUSH8 0xE7A2DE9EC188204A PUSH1 0xC0 SHL PUSH2 0x313 PUSH1 0x20 SHL PUSH1 0x20 SHR JUMP JUMPDEST DUP2 TIMESTAMP PUSH2 0x175 SWAP2 SWAP1 PUSH2 0x459 JUMP JUMPDEST PUSH1 0x2 DUP2 SWAP1 SSTORE POP PUSH2 0x195 PUSH8 0xD28DFFF7DFB7317B PUSH1 0xC0 SHL PUSH2 0x313 PUSH1 0x20 SHL PUSH1 0x20 SHR JUMP JUMPDEST PUSH2 0x1AF PUSH8 0xF47EB143E90E4728 PUSH1 0xC0 SHL PUSH2 0x313 PUSH1 0x20 SHL PUSH1 0x20 SHR JUMP JUMPDEST PUSH1 0x0 PUSH20 0xFFFFFFFFFFFFFFFFFFFFFFFFFFFFFFFFFFFFFFFF AND DUP5 PUSH20 0xFFFFFFFFFFFFFFFFFFFFFFFFFFFFFFFFFFFFFFFF AND SUB PUSH2 0x2CD JUMPI PUSH2 0x1FD PUSH8 0xFF33CCB41438ED3D PUSH1 0xC0 SHL PUSH2 0x313 PUSH1 0x20 SHL PUSH1 0x20 SHR JUMP JUMPDEST PUSH2 0x217 PUSH8 0x4E49F1194F21DD18 PUSH1 0xC0 SHL PUSH2 0x313 PUSH1 0x20 SHL PUSH1 0x20 SHR JUMP JUMPDEST PUSH2 0x231 PUSH8 0x99561394E18F7263 PUSH1 0xC0 SHL PUSH2 0x313 PUSH1 0x20 SHL PUSH1 0x20 SHR JUMP JUMPDEST PUSH2 0x24B PUSH8 0xC886FFA0B1FBEC65 PUSH1 0xC0 SHL PUSH2 0x313 PUSH1 0x20 SHL PUSH1 0x20 SHR JUMP JUMPDEST DUP3 CALLVALUE EQ PUSH2 0x28D JUMPI PUSH1 0x40 MLOAD PUSH32 0x8C379A000000000000000000000000000000000000000000000000000000000 DUP2 MSTORE PUSH1 0x4 ADD PUSH2 0x284 SWAP1 PUSH2 0x4EA JUMP JUMPDEST PUSH1 0x40 MLOAD DUP1 SWAP2 SUB SWAP1 REVERT JUMPDEST PUSH2 0x2A7 PUSH8 0x3A7A2A0B46819B3C PUSH1 0xC0 SHL PUSH2 0x313 PUSH1 0x20 SHL PUSH1 0x20 SHR JUMP JUMPDEST PUSH2 0x2C1 PUSH8 0xCEB6C4F2433ACC3C PUSH1 0xC0 SHL PUSH2 0x313 PUSH1 0x20 SHL PUSH1 0x20 SHR JUMP JUMPDEST CALLVALUE PUSH1 0x4 DUP2 SWAP1 SSTORE POP PUSH2 0x309 JUMP JUMPDEST PUSH2 0x2E7 PUSH8 0xA3E175936D486FF5 PUSH1 0xC0 SHL PUSH2 0x313 PUSH1 0x20 SHL PUSH1 0x20 SHR JUMP JUMPDEST PUSH2 0x301 PUSH8 0xD291B510C5B362FB PUSH1 0xC0 SHL PUSH2 0x313 PUSH1 0x20 SHL PUSH1 0x20 SHR JUMP JUMPDEST DUP3 PUSH1 0x4 DUP2 SWAP1 SSTORE POP JUMPDEST POP POP POP POP POP PUSH2 0x50A JUMP JUMPDEST POP JUMP JUMPDEST PUSH1 0x0 DUP1 REVERT JUMPDEST PUSH1 0x0 PUSH20 0xFFFFFFFFFFFFFFFFFFFFFFFFFFFFFFFFFFFFFFFF DUP3 AND SWAP1 POP SWAP2 SWAP1 POP JUMP JUMPDEST PUSH1 0x0 PUSH2 0x346 DUP3 PUSH2 0x31B JUMP JUMPDEST SWAP1 POP SWAP2 SWAP1 POP JUMP JUMPDEST PUSH2 0x356 DUP2 PUSH2 0x33B JUMP JUMPDEST DUP2 EQ PUSH2 0x361 JUMPI PUSH1 0x0 DUP1 REVERT JUMPDEST POP JUMP JUMPDEST PUSH1 0x0 DUP2 MLOAD SWAP1 POP PUSH2 0x373 DUP2 PUSH2 0x34D JUMP JUMPDEST SWAP3 SWAP2 POP POP JUMP JUMPDEST PUSH1 0x0 DUP2 SWAP1 POP SWAP2 SWAP1 POP JUMP JUMPDEST PUSH2 0x38C DUP2 PUSH2 0x379 JUMP JUMPDEST DUP2 EQ PUSH2 0x397 JUMPI PUSH1 0x0 DUP1 REVERT JUMPDEST POP JUMP JUMPDEST PUSH1 0x0 DUP2 MLOAD SWAP1 POP PUSH2 0x3A9 DUP2 PUSH2 0x383 JUMP JUMPDEST SWAP3 SWAP2 POP POP JUMP JUMPDEST PUSH1 0x0 DUP1 PUSH1 0x0 DUP1 PUSH1 0x0 PUSH1 0xA0 DUP7 DUP9 SUB SLT ISZERO PUSH2 0x3CB JUMPI PUSH2 0x3CA PUSH2 0x316 JUMP JUMPDEST JUMPDEST PUSH1 0x0 PUSH2 0x3D9 DUP9 DUP3 DUP10 ADD PUSH2 0x364 JUMP JUMPDEST SWAP6 POP POP PUSH1 0x20 PUSH2 0x3EA DUP9 DUP3 DUP10 ADD PUSH2 0x364 JUMP JUMPDEST SWAP5 POP POP PUSH1 0x40 PUSH2 0x3FB DUP9 DUP3 DUP10 ADD PUSH2 0x39A JUMP JUMPDEST SWAP4 POP POP PUSH1 0x60 PUSH2 0x40C DUP9 DUP3 DUP10 ADD PUSH2 0x39A JUMP JUMPDEST SWAP3 POP POP PUSH1 0x80 PUSH2 0x41D DUP9 DUP3 DUP10 ADD PUSH2 0x364 JUMP JUMPDEST SWAP2 POP POP SWAP3 SWAP6 POP SWAP3 SWAP6 SWAP1 SWAP4 POP JUMP JUMPDEST PUSH32 0x4E487B7100000000000000000000000000000000000000000000000000000000 PUSH1 0x0 MSTORE PUSH1 0x11 PUSH1 0x4 MSTORE PUSH1 0x24 PUSH1 0x0 REVERT JUMPDEST PUSH1 0x0 PUSH2 0x464 DUP3 PUSH2 0x379 JUMP JUMPDEST SWAP2 POP PUSH2 0x46F DUP4 PUSH2 0x379 JUMP JUMPDEST SWAP3 POP DUP3 DUP3 ADD SWAP1 POP DUP1 DUP3 GT ISZERO PUSH2 0x487 JUMPI PUSH2 0x486 PUSH2 0x42A JUMP JUMPDEST JUMPDEST SWAP3 SWAP2 POP POP JUMP JUMPDEST PUSH1 0x0 DUP3 DUP3 MSTORE PUSH1 0x20 DUP3 ADD SWAP1 POP SWAP3 SWAP2 POP POP JUMP JUMPDEST PUSH32 0x496E636F7272656374204554482073656E740000000000000000000000000000 PUSH1 0x0 DUP3 ADD MSTORE POP JUMP JUMPDEST PUSH1 0x0 PUSH2 0x4D4 PUSH1 0x12 DUP4 PUSH2 0x48D JUMP JUMPDEST SWAP2 POP PUSH2 0x4DF DUP3 PUSH2 0x49E JUMP JUMPDEST PUSH1 0x20 DUP3 ADD SWAP1 POP SWAP2 SWAP1 POP JUMP JUMPDEST PUSH1 0x0 PUSH1 0x20 DUP3 ADD SWAP1 POP DUP2 DUP2 SUB PUSH1 0x0 DUP4 ADD MSTORE PUSH2 0x503 DUP2 PUSH2 0x4C7 JUMP JUMPDEST SWAP1 POP SWAP2 SWAP1 POP JUMP JUMPDEST PUSH2 0x10D2 DUP1 PUSH2 0x519 PUSH1 0x0 CODECOPY PUSH1 0x0 RETURN INVALID PUSH1 0x80 PUSH1 0x40 MSTORE PUSH1 0x4 CALLDATASIZE LT PUSH2 0x7B JUMPI PUSH1 0x0 CALLDATALOAD PUSH1 0xE0 SHR DUP1 PUSH4 0x8DA5CB5B GT PUSH2 0x4E JUMPI DUP1 PUSH4 0x8DA5CB5B EQ PUSH2 0x118 JUMPI DUP1 PUSH4 0x9D76EA58 EQ PUSH2 0x143 JUMPI DUP1 PUSH4 0xB6B55F25 EQ PUSH2 0x16E JUMPI DUP1 PUSH4 0xC80EC522 EQ PUSH2 0x18A JUMPI PUSH2 0x7B JUMP JUMPDEST DUP1 PUSH4 0x12065FE0 EQ PUSH2 0x80 JUMPI DUP1 PUSH4 0x17D8EC7F EQ PUSH2 0xAB JUMPI DUP1 PUSH4 0x3CCFD60B EQ PUSH2 0xD6 JUMPI DUP1 PUSH4 0x3FD8B02F EQ PUSH2 0xED JUMPI JUMPDEST PUSH1 0x0 DUP1 REVERT JUMPDEST CALLVALUE DUP1 ISZERO PUSH2 0x8C JUMPI PUSH1 0x0 DUP1 REVERT JUMPDEST POP PUSH2 0x95 PUSH2 0x1B5 JUMP JUMPDEST PUSH1 0x40 MLOAD PUSH2 0xA2 SWAP2 SWAP1 PUSH2 0xC4A JUMP JUMPDEST PUSH1 0x40 MLOAD DUP1 SWAP2 SUB SWAP1 RETURN JUMPDEST CALLVALUE DUP1 ISZERO PUSH2 0xB7 JUMPI PUSH1 0x0 DUP1 REVERT JUMPDEST POP PUSH2 0xC0 PUSH2 0x1FB JUMP JUMPDEST PUSH1 0x40 MLOAD PUSH2 0xCD SWAP2 SWAP1 PUSH2 0xCA6 JUMP JUMPDEST PUSH1 0x40 MLOAD DUP1 SWAP2 SUB SWAP1 RETURN JUMPDEST CALLVALUE DUP1 ISZERO PUSH2 0xE2 JUMPI PUSH1 0x0 DUP1 REVERT JUMPDEST POP PUSH2 0xEB PUSH2 0x221 JUMP JUMPDEST STOP JUMPDEST CALLVALUE DUP1 ISZERO PUSH2 0xF9 JUMPI PUSH1 0x0 DUP1 REVERT JUMPDEST POP PUSH2 0x102 PUSH2 0x951 JUMP JUMPDEST PUSH1 0x40 MLOAD PUSH2 0x10F SWAP2 SWAP1 PUSH2 0xC4A JUMP JUMPDEST PUSH1 0x40 MLOAD DUP1 SWAP2 SUB SWAP1 RETURN JUMPDEST CALLVALUE DUP1 ISZERO PUSH2 0x124 JUMPI PUSH1 0x0 DUP1 REVERT JUMPDEST POP PUSH2 0x12D PUSH2 0x957 JUMP JUMPDEST PUSH1 0x40 MLOAD PUSH2 0x13A SWAP2 SWAP1 PUSH2 0xCA6 JUMP JUMPDEST PUSH1 0x40 MLOAD DUP1 SWAP2 SUB SWAP1 RETURN JUMPDEST CALLVALUE DUP1 ISZERO PUSH2 0x14F JUMPI PUSH1 0x0 DUP1 REVERT JUMPDEST POP PUSH2 0x158 PUSH2 0x97B JUMP JUMPDEST PUSH1 0x40 MLOAD PUSH2 0x165 SWAP2 SWAP1 PUSH2 0xCA6 JUMP JUMPDEST PUSH1 0x40 MLOAD DUP1 SWAP2 SUB SWAP1 RETURN JUMPDEST PUSH2 0x188 PUSH1 0x4 DUP1 CALLDATASIZE SUB DUP2 ADD SWAP1 PUSH2 0x183 SWAP2 SWAP1 PUSH2 0xCF2 JUMP JUMPDEST PUSH2 0x9A1 JUMP JUMPDEST STOP JUMPDEST CALLVALUE DUP1 ISZERO PUSH2 0x196 JUMPI PUSH1 0x0 DUP1 REVERT JUMPDEST POP PUSH2 0x19F PUSH2 0xC1B JUMP JUMPDEST PUSH1 0x40 MLOAD PUSH2 0x1AC SWAP2 SWAP1 PUSH2 0xD3A JUMP JUMPDEST PUSH1 0x40 MLOAD DUP1 SWAP2 SUB SWAP1 RETURN JUMPDEST PUSH1 0x0 PUSH2 0x1CB PUSH8 0x31E47348052FDC39 PUSH1 0xC0 SHL PUSH2 0xC2E JUMP JUMPDEST PUSH2 0x1DF PUSH8 0x4004F01D20C11B0D PUSH1 0xC0 SHL PUSH2 0xC2E JUMP JUMPDEST PUSH2 0x1F3 PUSH8 0x67823D9C11603E6F PUSH1 0xC0 SHL PUSH2 0xC2E JUMP JUMPDEST PUSH1 0x4 SLOAD SWAP1 POP SWAP1 JUMP JUMPDEST PUSH1 0x3 PUSH1 0x0 SWAP1 SLOAD SWAP1 PUSH2 0x100 EXP SWAP1 DIV PUSH20 0xFFFFFFFFFFFFFFFFFFFFFFFFFFFFFFFFFFFFFFFF AND DUP2 JUMP JUMPDEST PUSH2 0x235 PUSH8 0x1AE69CFF812DC964 PUSH1 0xC0 SHL PUSH2 0xC2E JUMP JUMPDEST PUSH2 0x249 PUSH8 0x8097AD8571A18D5A PUSH1 0xC0 SHL PUSH2 0xC2E JUMP JUMPDEST PUSH2 0x25D PUSH8 0xF41697A2C604419C PUSH1 0xC0 SHL PUSH2 0xC2E JUMP JUMPDEST PUSH2 0x271 PUSH8 0x247EC0F0EC7158E PUSH1 0xC0 SHL PUSH2 0xC2E JUMP JUMPDEST PUSH1 0x0 DUP1 SLOAD SWAP1 PUSH2 0x100 EXP SWAP1 DIV PUSH20 0xFFFFFFFFFFFFFFFFFFFFFFFFFFFFFFFFFFFFFFFF AND PUSH20 0xFFFFFFFFFFFFFFFFFFFFFFFFFFFFFFFFFFFFFFFF AND CALLER PUSH20 0xFFFFFFFFFFFFFFFFFFFFFFFFFFFFFFFFFFFFFFFF AND EQ PUSH2 0x2FF JUMPI PUSH1 0x40 MLOAD PUSH32 0x8C379A000000000000000000000000000000000000000000000000000000000 DUP2 MSTORE PUSH1 0x4 ADD PUSH2 0x2F6 SWAP1 PUSH2 0xDB2 JUMP JUMPDEST PUSH1 0x40 MLOAD DUP1 SWAP2 SUB SWAP1 REVERT JUMPDEST PUSH2 0x313 PUSH8 0x11E3E6A68F6B1D7D PUSH1 0xC0 SHL PUSH2 0xC2E JUMP JUMPDEST PUSH2 0x327 PUSH8 0x414E59987B050261 PUSH1 0xC0 SHL PUSH2 0xC2E JUMP JUMPDEST PUSH2 0x33B PUSH8 0xF7CE37BC5EC09E96 PUSH1 0xC0 SHL PUSH2 0xC2E JUMP JUMPDEST PUSH2 0x34E PUSH7 0x91E400922FBC77 PUSH1 0xC0 SHL PUSH2 0xC2E JUMP JUMPDEST PUSH1 0x3 PUSH1 0x14 SWAP1 SLOAD SWAP1 PUSH2 0x100 EXP SWAP1 DIV PUSH1 0xFF AND ISZERO PUSH2 0x39E JUMPI PUSH1 0x40 MLOAD PUSH32 0x8C379A000000000000000000000000000000000000000000000000000000000 DUP2 MSTORE PUSH1 0x4 ADD PUSH2 0x395 SWAP1 PUSH2 0xE1E JUMP JUMPDEST PUSH1 0x40 MLOAD DUP1 SWAP2 SUB SWAP1 REVERT JUMPDEST PUSH2 0x3B2 PUSH8 0x55BB9B7F58A105A3 PUSH1 0xC0 SHL PUSH2 0xC2E JUMP JUMPDEST PUSH2 0x3C6 PUSH8 0x41B10E943172F0F5 PUSH1 0xC0 SHL PUSH2 0xC2E JUMP JUMPDEST PUSH1 0x1 PUSH1 0x3 PUSH1 0x14 PUSH2 0x100 EXP DUP2 SLOAD DUP2 PUSH1 0xFF MUL NOT AND SWAP1 DUP4 ISZERO ISZERO MUL OR SWAP1 SSTORE POP PUSH2 0x3F5 PUSH8 0x633DB3E93A074773 PUSH1 0xC0 SHL PUSH2 0xC2E JUMP JUMPDEST PUSH2 0x409 PUSH8 0xDC8E7E6891249E36 PUSH1 0xC0 SHL PUSH2 0xC2E JUMP JUMPDEST PUSH1 0x0 PUSH2 0x41F PUSH8 0xC16DE69B797E63B3 PUSH1 0xC0 SHL PUSH2 0xC2E JUMP JUMPDEST PUSH2 0x433 PUSH8 0x4716EF420CF94995 PUSH1 0xC0 SHL PUSH2 0xC2E JUMP JUMPDEST PUSH1 0x0 PUSH1 0x4 SLOAD SWAP1 POP PUSH2 0x44E PUSH8 0xDBA1699D1F02CAF1 PUSH1 0xC0 SHL PUSH2 0xC2E JUMP JUMPDEST PUSH2 0x462 PUSH8 0x53419A035D20A3E0 PUSH1 0xC0 SHL PUSH2 0xC2E JUMP JUMPDEST PUSH1 0x2 SLOAD TIMESTAMP LT ISZERO PUSH2 0x4DA JUMPI PUSH2 0x480 PUSH8 0x1E9F31392F412E3C PUSH1 0xC0 SHL PUSH2 0xC2E JUMP JUMPDEST PUSH2 0x494 PUSH8 0xBBF3D70B1567B884 PUSH1 0xC0 SHL PUSH2 0xC2E JUMP JUMPDEST PUSH1 0x64 PUSH1 0x3 PUSH1 0x4 SLOAD PUSH2 0x4A5 SWAP2 SWAP1 PUSH2 0xE6D JUMP JUMPDEST PUSH2 0x4AF SWAP2 SWAP1 PUSH2 0xEDE JUMP JUMPDEST SWAP2 POP PUSH2 0x4C5 PUSH8 0x6431CED429412371 PUSH1 0xC0 SHL PUSH2 0xC2E JUMP JUMPDEST DUP2 PUSH1 0x4 SLOAD PUSH2 0x4D3 SWAP2 SWAP1 PUSH2 0xF0F JUMP JUMPDEST SWAP1 POP PUSH2 0x4EF JUMP JUMPDEST PUSH2 0x4EE PUSH8 0xDF8BBDC113DD105D PUSH1 0xC0 SHL PUSH2 0xC2E JUMP JUMPDEST JUMPDEST PUSH2 0x503 PUSH8 0xF19F758700735D59 PUSH1 0xC0 SHL PUSH2 0xC2E JUMP JUMPDEST PUSH1 0x0 PUSH1 0x4 DUP2 SWAP1 SSTORE POP PUSH2 0x51F PUSH8 0x1B5FDCB1A19C54D3 PUSH1 0xC0 SHL PUSH2 0xC2E JUMP JUMPDEST PUSH2 0x533 PUSH8 0x36E50AE2735B8EBE PUSH1 0xC0 SHL PUSH2 0xC2E JUMP JUMPDEST PUSH1 0x0 PUSH20 0xFFFFFFFFFFFFFFFFFFFFFFFFFFFFFFFFFFFFFFFF AND PUSH1 0x1 PUSH1 0x0 SWAP1 SLOAD SWAP1 PUSH2 0x100 EXP SWAP1 DIV PUSH20 0xFFFFFFFFFFFFFFFFFFFFFFFFFFFFFFFFFFFFFFFF AND PUSH20 0xFFFFFFFFFFFFFFFFFFFFFFFFFFFFFFFFFFFFFFFF AND SUB PUSH2 0x70D JUMPI PUSH2 0x59D PUSH8 0x599EBA0ED9FDEF63 PUSH1 0xC0 SHL PUSH2 0xC2E JUMP JUMPDEST PUSH2 0x5B1 PUSH8 0xE41A84B2FEA7877 PUSH1 0xC0 SHL PUSH2 0xC2E JUMP JUMPDEST PUSH2 0x5C5 PUSH8 0x24FCA81EA32E303E PUSH1 0xC0 SHL PUSH2 0xC2E JUMP JUMPDEST PUSH1 0x0 DUP1 SLOAD SWAP1 PUSH2 0x100 EXP SWAP1 DIV PUSH20 0xFFFFFFFFFFFFFFFFFFFFFFFFFFFFFFFFFFFFFFFF AND PUSH20 0xFFFFFFFFFFFFFFFFFFFFFFFFFFFFFFFFFFFFFFFF AND PUSH2 0x8FC DUP3 SWAP1 DUP2 ISZERO MUL SWAP1 PUSH1 0x40 MLOAD PUSH1 0x0 PUSH1 0x40 MLOAD DUP1 DUP4 SUB DUP2 DUP6 DUP9 DUP9 CALL SWAP4 POP POP POP POP ISZERO DUP1 ISZERO PUSH2 0x62B JUMPI RETURNDATASIZE PUSH1 0x0 DUP1 RETURNDATACOPY RETURNDATASIZE PUSH1 0x0 REVERT JUMPDEST POP PUSH2 0x640 PUSH8 0xDA9250B62E52BCC7 PUSH1 0xC0 SHL PUSH2 0xC2E JUMP JUMPDEST PUSH2 0x654 PUSH8 0xD66BB2165039D66 PUSH1 0xC0 SHL PUSH2 0xC2E JUMP JUMPDEST PUSH1 0x0 DUP3 GT ISZERO PUSH2 0x6F3 JUMPI PUSH2 0x671 PUSH8 0xD29BEA1F2E59823F PUSH1 0xC0 SHL PUSH2 0xC2E JUMP JUMPDEST PUSH2 0x685 PUSH8 0x2ED8C9350F4AE086 PUSH1 0xC0 SHL PUSH2 0xC2E JUMP JUMPDEST PUSH1 0x3 PUSH1 0x0 SWAP1 SLOAD SWAP1 PUSH2 0x100 EXP SWAP1 DIV PUSH20 0xFFFFFFFFFFFFFFFFFFFFFFFFFFFFFFFFFFFFFFFF AND PUSH20 0xFFFFFFFFFFFFFFFFFFFFFFFFFFFFFFFFFFFFFFFF AND PUSH2 0x8FC DUP4 SWAP1 DUP2 ISZERO MUL SWAP1 PUSH1 0x40 MLOAD PUSH1 0x0 PUSH1 0x40 MLOAD DUP1 DUP4 SUB DUP2 DUP6 DUP9 DUP9 CALL SWAP4 POP POP POP POP ISZERO DUP1 ISZERO PUSH2 0x6ED JUMPI RETURNDATASIZE PUSH1 0x0 DUP1 RETURNDATACOPY RETURNDATASIZE PUSH1 0x0 REVERT JUMPDEST POP PUSH2 0x708 JUMP JUMPDEST PUSH2 0x707 PUSH8 0xC7D61289612A6FED PUSH1 0xC0 SHL PUSH2 0xC2E JUMP JUMPDEST JUMPDEST PUSH2 0x94D JUMP JUMPDEST PUSH2 0x721 PUSH8 0xD9FD8F5B9BC0D511 PUSH1 0xC0 SHL PUSH2 0xC2E JUMP JUMPDEST PUSH2 0x735 PUSH8 0x682CFDBDADA12213 PUSH1 0xC0 SHL PUSH2 0xC2E JUMP JUMPDEST PUSH2 0x749 PUSH8 0x4A8353A3542C960E PUSH1 0xC0 SHL PUSH2 0xC2E JUMP JUMPDEST PUSH1 0x0 PUSH1 0x1 PUSH1 0x0 SWAP1 SLOAD SWAP1 PUSH2 0x100 EXP SWAP1 DIV PUSH20 0xFFFFFFFFFFFFFFFFFFFFFFFFFFFFFFFFFFFFFFFF AND SWAP1 POP PUSH2 0x784 PUSH8 0x3C3BD016CED3B266 PUSH1 0xC0 SHL PUSH2 0xC2E JUMP JUMPDEST PUSH2 0x798 PUSH8 0x1AC28B2062709216 PUSH1 0xC0 SHL PUSH2 0xC2E JUMP JUMPDEST DUP1 PUSH20 0xFFFFFFFFFFFFFFFFFFFFFFFFFFFFFFFFFFFFFFFF AND PUSH4 0xA9059CBB PUSH1 0x0 DUP1 SLOAD SWAP1 PUSH2 0x100 EXP SWAP1 DIV PUSH20 0xFFFFFFFFFFFFFFFFFFFFFFFFFFFFFFFFFFFFFFFF AND DUP5 PUSH1 0x40 MLOAD DUP4 PUSH4 0xFFFFFFFF AND PUSH1 0xE0 SHL DUP2 MSTORE PUSH1 0x4 ADD PUSH2 0x7F3 SWAP3 SWAP2 SWAP1 PUSH2 0xF43 JUMP JUMPDEST PUSH1 0x20 PUSH1 0x40 MLOAD DUP1 DUP4 SUB DUP2 PUSH1 0x0 DUP8 GAS CALL ISZERO DUP1 ISZERO PUSH2 0x812 JUMPI RETURNDATASIZE PUSH1 0x0 DUP1 RETURNDATACOPY RETURNDATASIZE PUSH1 0x0 REVERT JUMPDEST POP POP POP POP PUSH1 0x40 MLOAD RETURNDATASIZE PUSH1 0x1F NOT PUSH1 0x1F DUP3 ADD AND DUP3 ADD DUP1 PUSH1 0x40 MSTORE POP DUP2 ADD SWAP1 PUSH2 0x836 SWAP2 SWAP1 PUSH2 0xF98 JUMP JUMPDEST POP PUSH2 0x84B PUSH8 0xAB448B79D02DC4B7 PUSH1 0xC0 SHL PUSH2 0xC2E JUMP JUMPDEST PUSH2 0x85F PUSH8 0xCE40B2C497CF793E PUSH1 0xC0 SHL PUSH2 0xC2E JUMP JUMPDEST PUSH1 0x0 DUP4 GT ISZERO PUSH2 0x936 JUMPI PUSH2 0x87C PUSH8 0x92BBCDB14508EEA PUSH1 0xC0 SHL PUSH2 0xC2E JUMP JUMPDEST PUSH2 0x890 PUSH8 0x5F937140315B5475 PUSH1 0xC0 SHL PUSH2 0xC2E JUMP JUMPDEST DUP1 PUSH20 0xFFFFFFFFFFFFFFFFFFFFFFFFFFFFFFFFFFFFFFFF AND PUSH4 0xA9059CBB PUSH1 0x3 PUSH1 0x0 SWAP1 SLOAD SWAP1 PUSH2 0x100 EXP SWAP1 DIV PUSH20 0xFFFFFFFFFFFFFFFFFFFFFFFFFFFFFFFFFFFFFFFF AND DUP6 PUSH1 0x40 MLOAD DUP4 PUSH4 0xFFFFFFFF AND PUSH1 0xE0 SHL DUP2 MSTORE PUSH1 0x4 ADD PUSH2 0x8ED SWAP3 SWAP2 SWAP1 PUSH2 0xF43 JUMP JUMPDEST PUSH1 0x20 PUSH1 0x40 MLOAD DUP1 DUP4 SUB DUP2 PUSH1 0x0 DUP8 GAS CALL ISZERO DUP1 ISZERO PUSH2 0x90C JUMPI RETURNDATASIZE PUSH1 0x0 DUP1 RETURNDATACOPY RETURNDATASIZE PUSH1 0x0 REVERT JUMPDEST POP POP POP POP PUSH1 0x40 MLOAD RETURNDATASIZE PUSH1 0x1F NOT PUSH1 0x1F DUP3 ADD AND DUP3 ADD DUP1 PUSH1 0x40 MSTORE POP DUP2 ADD SWAP1 PUSH2 0x930 SWAP2 SWAP1 PUSH2 0xF98 JUMP JUMPDEST POP PUSH2 0x94B JUMP JUMPDEST PUSH2 0x94A PUSH8 0xFACB7F00CEFA68A3 PUSH1 0xC0 SHL PUSH2 0xC2E JUMP JUMPDEST JUMPDEST POP JUMPDEST POP POP JUMP JUMPDEST PUSH1 0x2 SLOAD DUP2 JUMP JUMPDEST PUSH1 0x0 DUP1 SLOAD SWAP1 PUSH2 0x100 EXP SWAP1 DIV PUSH20 0xFFFFFFFFFFFFFFFFFFFFFFFFFFFFFFFFFFFFFFFF AND DUP2 JUMP JUMPDEST PUSH1 0x1 PUSH1 0x0 SWAP1 SLOAD SWAP1 PUSH2 0x100 EXP SWAP1 DIV PUSH20 0xFFFFFFFFFFFFFFFFFFFFFFFFFFFFFFFFFFFFFFFF AND DUP2 JUMP JUMPDEST PUSH2 0x9B5 PUSH8 0xBEEA3C5D6959844F PUSH1 0xC0 SHL PUSH2 0xC2E JUMP JUMPDEST PUSH2 0x9C9 PUSH8 0x74BCB5E9F99FDF8A PUSH1 0xC0 SHL PUSH2 0xC2E JUMP JUMPDEST PUSH2 0x9DD PUSH8 0x3E28F3C298421FCC PUSH1 0xC0 SHL PUSH2 0xC2E JUMP JUMPDEST PUSH1 0x0 PUSH20 0xFFFFFFFFFFFFFFFFFFFFFFFFFFFFFFFFFFFFFFFF AND PUSH1 0x1 PUSH1 0x0 SWAP1 SLOAD SWAP1 PUSH2 0x100 EXP SWAP1 DIV PUSH20 0xFFFFFFFFFFFFFFFFFFFFFFFFFFFFFFFFFFFFFFFF AND PUSH20 0xFFFFFFFFFFFFFFFFFFFFFFFFFFFFFFFFFFFFFFFF AND SUB PUSH2 0xB0B JUMPI PUSH2 0xA47 PUSH8 0x46D2BFE6AFC6395D PUSH1 0xC0 SHL PUSH2 0xC2E JUMP JUMPDEST PUSH2 0xA5B PUSH8 0xA647ECFFED0D38C6 PUSH1 0xC0 SHL PUSH2 0xC2E JUMP JUMPDEST PUSH2 0xA6F PUSH8 0x728B3E63964C8F4C PUSH1 0xC0 SHL PUSH2 0xC2E JUMP JUMPDEST PUSH2 0xA83 PUSH8 0x796AAA55950CF148 PUSH1 0xC0 SHL PUSH2 0xC2E JUMP JUMPDEST DUP1 CALLVALUE EQ PUSH2 0xAC5 JUMPI PUSH1 0x40 MLOAD PUSH32 0x8C379A000000000000000000000000000000000000000000000000000000000 DUP2 MSTORE PUSH1 0x4 ADD PUSH2 0xABC SWAP1 PUSH2 0x1011 JUMP JUMPDEST PUSH1 0x40 MLOAD DUP1 SWAP2 SUB SWAP1 REVERT JUMPDEST PUSH2 0xAD9 PUSH8 0xBB8B8B34572CA473 PUSH1 0xC0 SHL PUSH2 0xC2E JUMP JUMPDEST PUSH2 0xAED PUSH8 0x13594465ECC85BF PUSH1 0xC0 SHL PUSH2 0xC2E JUMP JUMPDEST CALLVALUE PUSH1 0x4 PUSH1 0x0 DUP3 DUP3 SLOAD PUSH2 0xAFF SWAP2 SWAP1 PUSH2 0x1031 JUMP JUMPDEST SWAP3 POP POP DUP2 SWAP1 SSTORE POP PUSH2 0xC18 JUMP JUMPDEST PUSH2 0xB1F PUSH8 0x3C46F2537C45ACC1 PUSH1 0xC0 SHL PUSH2 0xC2E JUMP JUMPDEST PUSH2 0xB33 PUSH8 0x6ACA467E41360D57 PUSH1 0xC0 SHL PUSH2 0xC2E JUMP JUMPDEST PUSH2 0xB47 PUSH8 0x7B038FF3221A149F PUSH1 0xC0 SHL PUSH2 0xC2E JUMP JUMPDEST PUSH1 0x1 PUSH1 0x0 SWAP1 SLOAD SWAP1 PUSH2 0x100 EXP SWAP1 DIV PUSH20 0xFFFFFFFFFFFFFFFFFFFFFFFFFFFFFFFFFFFFFFFF AND PUSH20 0xFFFFFFFFFFFFFFFFFFFFFFFFFFFFFFFFFFFFFFFF AND PUSH4 0x23B872DD CALLER ADDRESS DUP5 PUSH1 0x40 MLOAD DUP5 PUSH4 0xFFFFFFFF AND PUSH1 0xE0 SHL DUP2 MSTORE PUSH1 0x4 ADD PUSH2 0xBA6 SWAP4 SWAP3 SWAP2 SWAP1 PUSH2 0x1065 JUMP JUMPDEST PUSH1 0x20 PUSH1 0x40 MLOAD DUP1 DUP4 SUB DUP2 PUSH1 0x0 DUP8 GAS CALL ISZERO DUP1 ISZERO PUSH2 0xBC5 JUMPI RETURNDATASIZE PUSH1 0x0 DUP1 RETURNDATACOPY RETURNDATASIZE PUSH1 0x0 REVERT JUMPDEST POP POP POP POP PUSH1 0x40 MLOAD RETURNDATASIZE PUSH1 0x1F NOT PUSH1 0x1F DUP3 ADD AND DUP3 ADD DUP1 PUSH1 0x40 MSTORE POP DUP2 ADD SWAP1 PUSH2 0xBE9 SWAP2 SWAP1 PUSH2 0xF98 JUMP JUMPDEST POP PUSH2 0xBFE PUSH8 0x61655B1A2CD44A3C PUSH1 0xC0 SHL PUSH2 0xC2E JUMP JUMPDEST DUP1 PUSH1 0x4 PUSH1 0x0 DUP3 DUP3 SLOAD PUSH2 0xC10 SWAP2 SWAP1 PUSH2 0x1031 JUMP JUMPDEST SWAP3 POP POP DUP2 SWAP1 SSTORE POP JUMPDEST POP JUMP JUMPDEST PUSH1 0x3 PUSH1 0x14 SWAP1 SLOAD SWAP1 PUSH2 0x100 EXP SWAP1 DIV PUSH1 0xFF AND DUP2 JUMP JUMPDEST POP JUMP JUMPDEST PUSH1 0x0 DUP2 SWAP1 POP SWAP2 SWAP1 POP JUMP JUMPDEST PUSH2 0xC44 DUP2 PUSH2 0xC31 JUMP JUMPDEST DUP3 MSTORE POP POP JUMP JUMPDEST PUSH1 0x0 PUSH1 0x20 DUP3 ADD SWAP1 POP PUSH2 0xC5F PUSH1 0x0 DUP4 ADD DUP5 PUSH2 0xC3B JUMP JUMPDEST SWAP3 SWAP2 POP POP JUMP JUMPDEST PUSH1 0x0 PUSH20 0xFFFFFFFFFFFFFFFFFFFFFFFFFFFFFFFFFFFFFFFF DUP3 AND SWAP1 POP SWAP2 SWAP1 POP JUMP JUMPDEST PUSH1 0x0 PUSH2 0xC90 DUP3 PUSH2 0xC65 JUMP JUMPDEST SWAP1 POP SWAP2 SWAP1 POP JUMP JUMPDEST PUSH2 0xCA0 DUP2 PUSH2 0xC85 JUMP JUMPDEST DUP3 MSTORE POP POP JUMP JUMPDEST PUSH1 0x0 PUSH1 0x20 DUP3 ADD SWAP1 POP PUSH2 0xCBB PUSH1 0x0 DUP4 ADD DUP5 PUSH2 0xC97 JUMP JUMPDEST SWAP3 SWAP2 POP POP JUMP JUMPDEST PUSH1 0x0 DUP1 REVERT JUMPDEST PUSH2 0xCCF DUP2 PUSH2 0xC31 JUMP JUMPDEST DUP2 EQ PUSH2 0xCDA JUMPI PUSH1 0x0 DUP1 REVERT JUMPDEST POP JUMP JUMPDEST PUSH1 0x0 DUP2 CALLDATALOAD SWAP1 POP PUSH2 0xCEC DUP2 PUSH2 0xCC6 JUMP JUMPDEST SWAP3 SWAP2 POP POP JUMP JUMPDEST PUSH1 0x0 PUSH1 0x20 DUP3 DUP5 SUB SLT ISZERO PUSH2 0xD08 JUMPI PUSH2 0xD07 PUSH2 0xCC1 JUMP JUMPDEST JUMPDEST PUSH1 0x0 PUSH2 0xD16 DUP5 DUP3 DUP6 ADD PUSH2 0xCDD JUMP JUMPDEST SWAP2 POP POP SWAP3 SWAP2 POP POP JUMP JUMPDEST PUSH1 0x0 DUP2 ISZERO ISZERO SWAP1 POP SWAP2 SWAP1 POP JUMP JUMPDEST PUSH2 0xD34 DUP2 PUSH2 0xD1F JUMP JUMPDEST DUP3 MSTORE POP POP JUMP JUMPDEST PUSH1 0x0 PUSH1 0x20 DUP3 ADD SWAP1 POP PUSH2 0xD4F PUSH1 0x0 DUP4 ADD DUP5 PUSH2 0xD2B JUMP JUMPDEST SWAP3 SWAP2 POP POP JUMP JUMPDEST PUSH1 0x0 DUP3 DUP3 MSTORE PUSH1 0x20 DUP3 ADD SWAP1 POP SWAP3 SWAP2 POP POP JUMP JUMPDEST PUSH32 0x4E6F74206F776E65720000000000000000000000000000000000000000000000 PUSH1 0x0 DUP3 ADD MSTORE POP JUMP JUMPDEST PUSH1 0x0 PUSH2 0xD9C PUSH1 0x9 DUP4 PUSH2 0xD55 JUMP JUMPDEST SWAP2 POP PUSH2 0xDA7 DUP3 PUSH2 0xD66 JUMP JUMPDEST PUSH1 0x20 DUP3 ADD SWAP1 POP SWAP2 SWAP1 POP JUMP JUMPDEST PUSH1 0x0 PUSH1 0x20 DUP3 ADD SWAP1 POP DUP2 DUP2 SUB PUSH1 0x0 DUP4 ADD MSTORE PUSH2 0xDCB DUP2 PUSH2 0xD8F JUMP JUMPDEST SWAP1 POP SWAP2 SWAP1 POP JUMP JUMPDEST PUSH32 0x416C72656164792077697468647261776E000000000000000000000000000000 PUSH1 0x0 DUP3 ADD MSTORE POP JUMP JUMPDEST PUSH1 0x0 PUSH2 0xE08 PUSH1 0x11 DUP4 PUSH2 0xD55 JUMP JUMPDEST SWAP2 POP PUSH2 0xE13 DUP3 PUSH2 0xDD2 JUMP JUMPDEST PUSH1 0x20 DUP3 ADD SWAP1 POP SWAP2 SWAP1 POP JUMP JUMPDEST PUSH1 0x0 PUSH1 0x20 DUP3 ADD SWAP1 POP DUP2 DUP2 SUB PUSH1 0x0 DUP4 ADD MSTORE PUSH2 0xE37 DUP2 PUSH2 0xDFB JUMP JUMPDEST SWAP1 POP SWAP2 SWAP1 POP JUMP JUMPDEST PUSH32 0x4E487B7100000000000000000000000000000000000000000000000000000000 PUSH1 0x0 MSTORE PUSH1 0x11 PUSH1 0x4 MSTORE PUSH1 0x24 PUSH1 0x0 REVERT JUMPDEST PUSH1 0x0 PUSH2 0xE78 DUP3 PUSH2 0xC31 JUMP JUMPDEST SWAP2 POP PUSH2 0xE83 DUP4 PUSH2 0xC31 JUMP JUMPDEST SWAP3 POP DUP3 DUP3 MUL PUSH2 0xE91 DUP2 PUSH2 0xC31 JUMP JUMPDEST SWAP2 POP DUP3 DUP3 DIV DUP5 EQ DUP4 ISZERO OR PUSH2 0xEA8 JUMPI PUSH2 0xEA7 PUSH2 0xE3E JUMP JUMPDEST JUMPDEST POP SWAP3 SWAP2 POP POP JUMP JUMPDEST PUSH32 0x4E487B7100000000000000000000000000000000000000000000000000000000 PUSH1 0x0 MSTORE PUSH1 0x12 PUSH1 0x4 MSTORE PUSH1 0x24 PUSH1 0x0 REVERT JUMPDEST PUSH1 0x0 PUSH2 0xEE9 DUP3 PUSH2 0xC31 JUMP JUMPDEST SWAP2 POP PUSH2 0xEF4 DUP4 PUSH2 0xC31 JUMP JUMPDEST SWAP3 POP DUP3 PUSH2 0xF04 JUMPI PUSH2 0xF03 PUSH2 0xEAF JUMP JUMPDEST JUMPDEST DUP3 DUP3 DIV SWAP1 POP SWAP3 SWAP2 POP POP JUMP JUMPDEST PUSH1 0x0 PUSH2 0xF1A DUP3 PUSH2 0xC31 JUMP JUMPDEST SWAP2 POP PUSH2 0xF25 DUP4 PUSH2 0xC31 JUMP JUMPDEST SWAP3 POP DUP3 DUP3 SUB SWAP1 POP DUP2 DUP2 GT ISZERO PUSH2 0xF3D JUMPI PUSH2 0xF3C PUSH2 0xE3E JUMP JUMPDEST JUMPDEST SWAP3 SWAP2 POP POP JUMP JUMPDEST PUSH1 0x0 PUSH1 0x40 DUP3 ADD SWAP1 POP PUSH2 0xF58 PUSH1 0x0 DUP4 ADD DUP6 PUSH2 0xC97 JUMP JUMPDEST PUSH2 0xF65 PUSH1 0x20 DUP4 ADD DUP5 PUSH2 0xC3B JUMP JUMPDEST SWAP4 SWAP3 POP POP POP JUMP JUMPDEST PUSH2 0xF75 DUP2 PUSH2 0xD1F JUMP JUMPDEST DUP2 EQ PUSH2 0xF80 JUMPI PUSH1 0x0 DUP1 REVERT JUMPDEST POP JUMP JUMPDEST PUSH1 0x0 DUP2 MLOAD SWAP1 POP PUSH2 0xF92 DUP2 PUSH2 0xF6C JUMP JUMPDEST SWAP3 SWAP2 POP POP JUMP JUMPDEST PUSH1 0x0 PUSH1 0x20 DUP3 DUP5 SUB SLT ISZERO PUSH2 0xFAE JUMPI PUSH2 0xFAD PUSH2 0xCC1 JUMP JUMPDEST JUMPDEST PUSH1 0x0 PUSH2 0xFBC DUP5 DUP3 DUP6 ADD PUSH2 0xF83 JUMP JUMPDEST SWAP2 POP POP SWAP3 SWAP2 POP POP JUMP JUMPDEST PUSH32 0x496E636F7272656374204554482073656E740000000000000000000000000000 PUSH1 0x0 DUP3 ADD MSTORE POP JUMP JUMPDEST PUSH1 0x0 PUSH2 0xFFB PUSH1 0x12 DUP4 PUSH2 0xD55 JUMP JUMPDEST SWAP2 POP PUSH2 0x1006 DUP3 PUSH2 0xFC5 JUMP JUMPDEST PUSH1 0x20 DUP3 ADD SWAP1 POP SWAP2 SWAP1 POP JUMP JUMPDEST PUSH1 0x0 PUSH1 0x20 DUP3 ADD SWAP1 POP DUP2 DUP2 SUB PUSH1 0x0 DUP4 ADD MSTORE PUSH2 0x102A DUP2 PUSH2 0xFEE JUMP JUMPDEST SWAP1 POP SWAP2 SWAP1 POP JUMP JUMPDEST PUSH1 0x0 PUSH2 0x103C DUP3 PUSH2 0xC31 JUMP JUMPDEST SWAP2 POP PUSH2 0x1047 DUP4 PUSH2 0xC31 JUMP JUMPDEST SWAP3 POP DUP3 DUP3 ADD SWAP1 POP DUP1 DUP3 GT ISZERO PUSH2 0x105F JUMPI PUSH2 0x105E PUSH2 0xE3E JUMP JUMPDEST JUMPDEST SWAP3 SWAP2 POP POP JUMP JUMPDEST PUSH1 0x0 PUSH1 0x60 DUP3 ADD SWAP1 POP PUSH2 0x107A PUSH1 0x0 DUP4 ADD DUP7 PUSH2 0xC97 JUMP JUMPDEST PUSH2 0x1087 PUSH1 0x20 DUP4 ADD DUP6 PUSH2 0xC97 JUMP JUMPDEST PUSH2 0x1094 PUSH1 0x40 DUP4 ADD DUP5 PUSH2 0xC3B JUMP JUMPDEST SWAP5 SWAP4 POP POP POP POP JUMP INVALID LOG2 PUSH5 0x6970667358 0x22 SLT KECCAK256 MULMOD COINBASE ADD 0x2A 0xB8 CHAINID TLOAD DUP12 LOG3 EXTCODECOPY ISZERO INVALID SUB PUSH7 0xD6D87AE3CF2ABC 0x2E 0x27 0xEA 0xC1 LOG1 SELFBALANCE CALLDATASIZE SWAP6 KECCAK256 0xD4 0xA6 PUSH5 0x736F6C6343 STOP ADDMOD SHR STOP CALLER LOG2 PUSH5 0x6970667358 0x22 SLT KECCAK256 BYTE 0xB1 0x22 DUP14 0xEB CALL CALL MOD 0xCB EXTCODESIZE BLOBHASH 0xB9 0xE9 PUSH5 0x9DE950D518 PUSH15 0xF14ECE8CB436D96AE955DEB264736F PUSH13 0x634300081C0033000000000000 "},"methodIdentifiers":{"admin()":"f851a440","createBank(string,address,uint256,uint256)":"2baed4e4","getTotalBalance(address,address)":"51bd551f","getTotalBanks(address)":"78b2ad60","getUserBanks(address)":"df72a009","joinBank(address,uint256,uint256)":"2797f1f9","userBanks(address,uint256)":"b35c5e30"}}}}}