{"contracts/PiggyBank.sol":{"PiggyBank":{"abi":[{"inputs":[{"internalType":"address","name":"_owner","type":"address"},{"internalType":"address","name":"_tokenAddress","type":"address"},{"internalType":"uint256","name":"_amount","type":"uint256"},{"internalType":"uint256","name":"_lockDuration","type":"uint256"},{"internalType":"address","name":"_factoryAdmin","type":"address"}],"stateMutability":"payable","type":"constructor"},{"inputs":[{"internalType":"uint256","name":"_amount","type":"uint256"}],"name":"deposit","outputs":[],"stateMutability":"payable","type":"function"},{"inputs":[],"name":"factoryAdmin","outputs":[{"internalType":"address","name":"","type":"address"}],"stateMutability":"view","type":"function"},{"inputs":[],"name":"getBalance","outputs":[{"internalType":"uint256","name":"","type":"uint256"}],"stateMutability":"view","type":"function"},{"inputs":[],"name":"lockPeriod","outputs":[{"internalType":"uint256","name":"","type":"uint256"}],"stateMutability":"view","type":"function"},{"inputs":[],"name":"owner","outputs":[{"internalType":"address","name":"","type":"address"}],"stateMutability":"view","type":"function"},{"inputs":[],"name":"tokenAddress","outputs":[{"internalType":"address","name":"","type":"address"}],"stateMutability":"view","type":"function"},{"inputs":[],"name":"withdraw","outputs":[],"stateMutability":"nonpayable","type":"function"},{"inputs":[],"name":"withdrawn","outputs":[{"internalType":"bool","name":"","type":"bool"}],"stateMutability":"view","type":"function"}],"evm":{"bytecode":{"linkReferences":{},"object":"60806040526040516115eb3803806115eb833981810160405281019061002591906103af565b61003f67e42dbd883c706c7960c01b61031360201b60201c565b61005967a54a285c3d0be96460c01b61031360201b60201c565b846000806101000a81548173ffffffffffffffffffffffffffffffffffffffff021916908373ffffffffffffffffffffffffffffffffffffffff1602179055506100b367decb19ac6af4662b60c01b61031360201b60201c565b83600160006101000a81548173ffffffffffffffffffffffffffffffffffffffff021916908373ffffffffffffffffffffffffffffffffffffffff16021790555061010e67e592ae856dbcbb2e60c01b61031360201b60201c565b80600360006101000a81548173ffffffffffffffffffffffffffffffffffffffff021916908373ffffffffffffffffffffffffffffffffffffffff16021790555061016967e7a2de9ec188204a60c01b61031360201b60201c565b81426101759190610459565b60028190555061019567d28dfff7dfb7317b60c01b61031360201b60201c565b6101af67f47eb143e90e472860c01b61031360201b60201c565b600073ffffffffffffffffffffffffffffffffffffffff168473ffffffffffffffffffffffffffffffffffffffff16036102cd576101fd67ff33ccb41438ed3d60c01b61031360201b60201c565b610217674e49f1194f21dd1860c01b61031360201b60201c565b6102316799561394e18f726360c01b61031360201b60201c565b61024b67c886ffa0b1fbec6560c01b61031360201b60201c565b82341461028d576040517f08c379a0000000000000000000000000000000000000000000000000000000008152600401610284906104ea565b60405180910390fd5b6102a7673a7a2a0b46819b3c60c01b61031360201b60201c565b6102c167ceb6c4f2433acc3c60c01b61031360201b60201c565b34600481905550610309565b6102e767a3e175936d486ff560c01b61031360201b60201c565b61030167d291b510c5b362fb60c01b61031360201b60201c565b826004819055505b505050505061050a565b50565b600080fd5b600073ffffffffffffffffffffffffffffffffffffffff82169050919050565b60006103468261031b565b9050919050565b6103568161033b565b811461036157600080fd5b50565b6000815190506103738161034d565b92915050565b6000819050919050565b61038c81610379565b811461039757600080fd5b50565b6000815190506103a981610383565b92915050565b600080600080600060a086880312156103cb576103ca610316565b5b60006103d988828901610364565b95505060206103ea88828901610364565b94505060406103fb8882890161039a565b935050606061040c8882890161039a565b925050608061041d88828901610364565b9150509295509295909350565b7f4e487b7100000000000000000000000000000000000000000000000000000000600052601160045260246000fd5b600061046482610379565b915061046f83610379565b92508282019050808211156104875761048661042a565b5b92915050565b600082825260208201905092915050565b7f496e636f7272656374204554482073656e740000000000000000000000000000600082015250565b60006104d460128361048d565b91506104df8261049e565b602082019050919050565b60006020820190508181036000830152610503816104c7565b9050919050565b6110d2806105196000396000f3fe60806040526004361061007b5760003560e01c80638da5cb5b1161004e5780638da5cb5b146101185780639d76ea5814610143578063b6b55f251461016e578063c80ec5221461018a5761007b565b806312065fe01461008057806317d8ec7f146100ab5780633ccfd60b146100d65780633fd8b02f146100ed575b600080fd5b34801561008c57600080fd5b506100956101b5565b6040516100a29190610c4a565b60405180910390f35b3480156100b757600080fd5b506100c06101fb565b6040516100cd9190610ca6565b60405180910390f35b3480156100e257600080fd5b506100eb610221565b005b3480156100f957600080fd5b50610102610951565b60405161010f9190610c4a565b60405180910390f35b34801561012457600080fd5b5061012d610957565b60405161013a9190610ca6565b60405180910390f35b34801561014f57600080fd5b5061015861097b565b6040516101659190610ca6565b60405180910390f35b61018860048036038101906101839190610cf2565b6109a1565b005b34801561019657600080fd5b5061019f610c1b565b6040516101ac9190610d3a565b60405180910390f35b60006101cb6731e47348052fdc3960c01b610c2e565b6101df674004f01d20c11b0d60c01b610c2e565b6101f36767823d9c11603e6f60c01b610c2e565b600454905090565b600360009054906101000a900473ffffffffffffffffffffffffffffffffffffffff1681565b610235671ae69cff812dc96460c01b610c2e565b610249678097ad8571a18d5a60c01b610c2e565b61025d67f41697a2c604419c60c01b610c2e565b610271670247ec0f0ec7158e60c01b610c2e565b60008054906101000a900473ffffffffffffffffffffffffffffffffffffffff1673ffffffffffffffffffffffffffffffffffffffff163373ffffffffffffffffffffffffffffffffffffffff16146102ff576040517f08c379a00000000000000000000000000000000000000000000000000000000081526004016102f690610db2565b60405180910390fd5b6103136711e3e6a68f6b1d7d60c01b610c2e565b61032767414e59987b05026160c01b610c2e565b61033b67f7ce37bc5ec09e9660c01b610c2e565b61034e6691e400922fbc7760c01b610c2e565b600360149054906101000a900460ff161561039e576040517f08c379a000000000000000000000000000000000000000000000000000000000815260040161039590610e1e565b60405180910390fd5b6103b26755bb9b7f58a105a360c01b610c2e565b6103c66741b10e943172f0f560c01b610c2e565b6001600360146101000a81548160ff0219169083151502179055506103f567633db3e93a07477360c01b610c2e565b61040967dc8e7e6891249e3660c01b610c2e565b600061041f67c16de69b797e63b360c01b610c2e565b610433674716ef420cf9499560c01b610c2e565b6000600454905061044e67dba1699d1f02caf160c01b610c2e565b6104626753419a035d20a3e060c01b610c2e565b6002544210156104da57610480671e9f31392f412e3c60c01b610c2e565b61049467bbf3d70b1567b88460c01b610c2e565b606460036004546104a59190610e6d565b6104af9190610ede565b91506104c5676431ced42941237160c01b610c2e565b816004546104d39190610f0f565b90506104ef565b6104ee67df8bbdc113dd105d60c01b610c2e565b5b61050367f19f758700735d5960c01b610c2e565b600060048190555061051f671b5fdcb1a19c54d360c01b610c2e565b6105336736e50ae2735b8ebe60c01b610c2e565b600073ffffffffffffffffffffffffffffffffffffffff16600160009054906101000a900473ffffffffffffffffffffffffffffffffffffffff1673ffffffffffffffffffffffffffffffffffffffff160361070d5761059d67599eba0ed9fdef6360c01b610c2e565b6105b1670e41a84b2fea787760c01b610c2e565b6105c56724fca81ea32e303e60c01b610c2e565b60008054906101000a900473ffffffffffffffffffffffffffffffffffffffff1673ffffffffffffffffffffffffffffffffffffffff166108fc829081150290604051600060405180830381858888f1935050505015801561062b573d6000803e3d6000fd5b5061064067da9250b62e52bcc760c01b610c2e565b610654670d66bb2165039d6660c01b610c2e565b60008211156106f35761067167d29bea1f2e59823f60c01b610c2e565b610685672ed8c9350f4ae08660c01b610c2e565b600360009054906101000a900473ffffffffffffffffffffffffffffffffffffffff1673ffffffffffffffffffffffffffffffffffffffff166108fc839081150290604051600060405180830381858888f193505050501580156106ed573d6000803e3d6000fd5b50610708565b61070767c7d61289612a6fed60c01b610c2e565b5b61094d565b61072167d9fd8f5b9bc0d51160c01b610c2e565b61073567682cfdbdada1221360c01b610c2e565b610749674a8353a3542c960e60c01b610c2e565b6000600160009054906101000a900473ffffffffffffffffffffffffffffffffffffffff169050610784673c3bd016ced3b26660c01b610c2e565b610798671ac28b206270921660c01b610c2e565b8073ffffffffffffffffffffffffffffffffffffffff1663a9059cbb60008054906101000a900473ffffffffffffffffffffffffffffffffffffffff16846040518363ffffffff1660e01b81526004016107f3929190610f43565b6020604051808303816000875af1158015610812573d6000803e3d6000fd5b505050506040513d601f19601f820116820180604052508101906108369190610f98565b5061084b67ab448b79d02dc4b760c01b610c2e565b61085f67ce40b2c497cf793e60c01b610c2e565b60008311156109365761087c67092bbcdb14508eea60c01b610c2e565b610890675f937140315b547560c01b610c2e565b8073ffffffffffffffffffffffffffffffffffffffff1663a9059cbb600360009054906101000a900473ffffffffffffffffffffffffffffffffffffffff16856040518363ffffffff1660e01b81526004016108ed929190610f43565b6020604051808303816000875af115801561090c573d6000803e3d6000fd5b505050506040513d601f19601f820116820180604052508101906109309190610f98565b5061094b565b61094a67facb7f00cefa68a360c01b610c2e565b5b505b5050565b60025481565b60008054906101000a900473ffffffffffffffffffffffffffffffffffffffff1681565b600160009054906101000a900473ffffffffffffffffffffffffffffffffffffffff1681565b6109b567beea3c5d6959844f60c01b610c2e565b6109c96774bcb5e9f99fdf8a60c01b610c2e565b6109dd673e28f3c298421fcc60c01b610c2e565b600073ffffffffffffffffffffffffffffffffffffffff16600160009054906101000a900473ffffffffffffffffffffffffffffffffffffffff1673ffffffffffffffffffffffffffffffffffffffff1603610b0b57610a476746d2bfe6afc6395d60c01b610c2e565b610a5b67a647ecffed0d38c660c01b610c2e565b610a6f67728b3e63964c8f4c60c01b610c2e565b610a8367796aaa55950cf14860c01b610c2e565b803414610ac5576040517f08c379a0000000000000000000000000000000000000000000000000000000008152600401610abc90611011565b60405180910390fd5b610ad967bb8b8b34572ca47360c01b610c2e565b610aed67013594465ecc85bf60c01b610c2e565b3460046000828254610aff9190611031565b92505081905550610c18565b610b1f673c46f2537c45acc160c01b610c2e565b610b33676aca467e41360d5760c01b610c2e565b610b47677b038ff3221a149f60c01b610c2e565b600160009054906101000a900473ffffffffffffffffffffffffffffffffffffffff1673ffffffffffffffffffffffffffffffffffffffff166323b872dd3330846040518463ffffffff1660e01b8152600401610ba693929190611065565b6020604051808303816000875af1158015610bc5573d6000803e3d6000fd5b505050506040513d601f19601f82011682018060405250810190610be99190610f98565b50610bfe6761655b1a2cd44a3c60c01b610c2e565b8060046000828254610c109190611031565b925050819055505b50565b600360149054906101000a900460ff1681565b50565b6000819050919050565b610c4481610c31565b82525050565b6000602082019050610c5f6000830184610c3b565b92915050565b600073ffffffffffffffffffffffffffffffffffffffff82169050919050565b6000610c9082610c65565b9050919050565b610ca081610c85565b82525050565b6000602082019050610cbb6000830184610c97565b92915050565b600080fd5b610ccf81610c31565b8114610cda57600080fd5b50565b600081359050610cec81610cc6565b92915050565b600060208284031215610d0857610d07610cc1565b5b6000610d1684828501610cdd565b91505092915050565b60008115159050919050565b610d3481610d1f565b82525050565b6000602082019050610d4f6000830184610d2b565b92915050565b600082825260208201905092915050565b7f4e6f74206f776e65720000000000000000000000000000000000000000000000600082015250565b6000610d9c600983610d55565b9150610da782610d66565b602082019050919050565b60006020820190508181036000830152610dcb81610d8f565b9050919050565b7f416c72656164792077697468647261776e000000000000000000000000000000600082015250565b6000610e08601183610d55565b9150610e1382610dd2565b602082019050919050565b60006020820190508181036000830152610e3781610dfb565b9050919050565b7f4e487b7100000000000000000000000000000000000000000000000000000000600052601160045260246000fd5b6000610e7882610c31565b9150610e8383610c31565b9250828202610e9181610c31565b91508282048414831517610ea857610ea7610e3e565b5b5092915050565b7f4e487b7100000000000000000000000000000000000000000000000000000000600052601260045260246000fd5b6000610ee982610c31565b9150610ef483610c31565b925082610f0457610f03610eaf565b5b828204905092915050565b6000610f1a82610c31565b9150610f2583610c31565b9250828203905081811115610f3d57610f3c610e3e565b5b92915050565b6000604082019050610f586000830185610c97565b610f656020830184610c3b565b9392505050565b610f7581610d1f565b8114610f8057600080fd5b50565b600081519050610f9281610f6c565b92915050565b600060208284031215610fae57610fad610cc1565b5b6000610fbc84828501610f83565b91505092915050565b7f496e636f7272656374204554482073656e740000000000000000000000000000600082015250565b6000610ffb601283610d55565b915061100682610fc5565b602082019050919050565b6000602082019050818103600083015261102a81610fee565b9050919050565b600061103c82610c31565b915061104783610c31565b925082820190508082111561105f5761105e610e3e565b5b92915050565b600060608201905061107a6000830186610c97565b6110876020830185610c97565b6110946040830184610c3b565b94935050505056fea26469706673582212200941012ab8465c8ba33c15fe0366d6d87ae3cf2abc2e27eac1a147369520d4a664736f6c634300081c0033","opcodes":"PUSH1 0x80 PUSH1 0x40 MSTORE PUSH1 0x40 MLOAD PUSH2 0x15EB CODESIZE SUB DUP1 PUSH2 0x15EB DUP4 CODECOPY DUP2 DUP2 ADD PUSH1 0x40 MSTORE DUP2 ADD SWAP1 PUSH2 0x25 SWAP2 SWAP1 PUSH2 0x3AF JUMP JUMPDEST PUSH2 0x3F PUSH8 0xE42DBD883C706C79 PUSH1 0xC0 SHL PUSH2 0x313 PUSH1 0x20 SHL PUSH1 0x20 SHR JUMP JUMPDEST PUSH2 0x59 PUSH8 0xA54A285C3D0BE964 PUSH1 0xC0 SHL PUSH2 0x313 PUSH1 0x20 SHL PUSH1 0x20 SHR JUMP JUMPDEST DUP5 PUSH1 0x0 DUP1 PUSH2 0x100 EXP DUP2 SLOAD DUP2 PUSH20 0xFFFFFFFFFFFFFFFFFFFFFFFFFFFFFFFFFFFFFFFF MUL NOT AND SWAP1 DUP4 PUSH20 0xFFFFFFFFFFFFFFFFFFFFFFFFFFFFFFFFFFFFFFFF AND MUL OR SWAP1 SSTORE POP PUSH2 0xB3 PUSH8 0xDECB19AC6AF4662B PUSH1 0xC0 SHL PUSH2 0x313 PUSH1 0x20 SHL PUSH1 0x20 SHR JUMP JUMPDEST DUP4 PUSH1 0x1 PUSH1 0x0 PUSH2 0x100 EXP DUP2 SLOAD DUP2 PUSH20 0xFFFFFFFFFFFFFFFFFFFFFFFFFFFFFFFFFFFFFFFF MUL NOT AND SWAP1 DUP4 PUSH20 0xFFFFFFFFFFFFFFFFFFFFFFFFFFFFFFFFFFFFFFFF AND MUL OR SWAP1 SSTORE POP PUSH2 0x10E PUSH8 0xE592AE856DBCBB2E PUSH1 0xC0 SHL PUSH2 0x313 PUSH1 0x20 SHL PUSH1 0x20 SHR JUMP JUMPDEST DUP1 PUSH1 0x3 PUSH1 0x0 PUSH2 0x100 EXP DUP2 SLOAD DUP2 PUSH20 0xFFFFFFFFFFFFFFFFFFFFFFFFFFFFFFFFFFFFFFFF MUL NOT AND SWAP1 DUP4 PUSH20 0xFFFFFFFFFFFFFFFFFFFFFFFFFFFFFFFFFFFFFFFF AND MUL OR SWAP1 SSTORE POP PUSH2 0x169 PUSH8 0xE7A2DE9EC188204A PUSH1 0xC0 SHL PUSH2 0x313 PUSH1 0x20 SHL PUSH1 0x20 SHR JUMP JUMPDEST DUP2 TIMESTAMP PUSH2 0x175 SWAP2 SWAP1 PUSH2 0x459 JUMP JUMPDEST PUSH1 0x2 DUP2 SWAP1 SSTORE POP PUSH2 0x195 PUSH8 0xD28DFFF7DFB7317B PUSH1 0xC0 SHL PUSH2 0x313 PUSH1 0x20 SHL PUSH1 0x20 SHR JUMP JUMPDEST PUSH2 0x1AF PUSH8 0xF47EB143E90E4728 PUSH1 0xC0 SHL PUSH2 0x313 PUSH1 0x20 SHL PUSH1 0x20 SHR JUMP JUMPDEST PUSH1 0x0 PUSH20 0xFFFFFFFFFFFFFFFFFFFFFFFFFFFFFFFFFFFFFFFF AND DUP5 PUSH20 0xFFFFFFFFFFFFFFFFFFFFFFFFFFFFFFFFFFFFFFFF AND SUB PUSH2 0x2CD JUMPI PUSH2 0x1FD PUSH8 0xFF33CCB41438ED3D PUSH1 0xC0 SHL PUSH2 0x313 PUSH1 0x20 SHL PUSH1 0x20 SHR JUMP JUMPDEST PUSH2 0x217 PUSH8 0x4E49F1194F21DD18 PUSH1 0xC0 SHL PUSH2 0x313 PUSH1 0x20 SHL PUSH1 0x20 SHR JUMP JUMPDEST PUSH2 0x231 PUSH8 0x99561394E18F7263 PUSH1 0xC0 SHL PUSH2 0x313 PUSH1 0x20 SHL PUSH1 0x20 SHR JUMP JUMPDEST PUSH2 0x24B PUSH8 0xC886FFA0B1FBEC65 PUSH1 0xC0 SHL PUSH2 0x313 PUSH1 0x20 SHL PUSH1 0x20 SHR JUMP JUMPDEST DUP3 CALLVALUE EQ PUSH2 0x28D JUMPI PUSH1 0x40 MLOAD PUSH32 0x8C379A000000000000000000000000000000000000000000000000000000000 DUP2 MSTORE PUSH1 0x4 ADD PUSH2 0x284 SWAP1 PUSH2 0x4EA JUMP JUMPDEST PUSH1 0x40 MLOAD DUP1 SWAP2 SUB SWAP1 REVERT JUMPDEST PUSH2 0x2A7 PUSH8 0x3A7A2A0B46819B3C PUSH1 0xC0 SHL PUSH2 0x313 PUSH1 0x20 SHL PUSH1 0x20 SHR JUMP JUMPDEST PUSH2 0x2C1 PUSH8 0xCEB6C4F2433ACC3C PUSH1 0xC0 SHL PUSH2 0x313 PUSH1 0x20 SHL PUSH1 0x20 SHR JUMP JUMPDEST CALLVALUE PUSH1 0x4 DUP2 SWAP1 SSTORE POP PUSH2 0x309 JUMP JUMPDEST PUSH2 0x2E7 PUSH8 0xA3E175936D486FF5 PUSH1 0xC0 SHL PUSH2 0x313 PUSH1 0x20 SHL PUSH1 0x20 SHR JUMP JUMPDEST PUSH2 0x301 PUSH8 0xD291B510C5B362FB PUSH1 0xC0 SHL PUSH2 0x313 PUSH1 0x20 SHL PUSH1 0x20 SHR JUMP JUMPDEST DUP3 PUSH1 0x4 DUP2 SWAP1 SSTORE POP JUMPDEST POP POP POP POP POP PUSH2 0x50A JUMP JUMPDEST POP JUMP JUMPDEST PUSH1 0x0 DUP1 REVERT JUMPDEST PUSH1 0x0 PUSH20 0xFFFFFFFFFFFFFFFFFFFFFFFFFFFFFFFFFFFFFFFF DUP3 AND SWAP1 POP SWAP2 SWAP1 POP JUMP JUMPDEST PUSH1 0x0 PUSH2 0x346 DUP3 PUSH2 0x31B JUMP JUMPDEST SWAP1 POP SWAP2 SWAP1 POP JUMP JUMPDEST PUSH2 0x356 DUP2 PUSH2 0x33B JUMP JUMPDEST DUP2 EQ PUSH2 0x361 JUMPI PUSH1 0x0 DUP1 REVERT JUMPDEST POP JUMP JUMPDEST PUSH1 0x0 DUP2 MLOAD SWAP1 POP PUSH2 0x373 DUP2 PUSH2 0x34D JUMP JUMPDEST SWAP3 SWAP2 POP POP JUMP JUMPDEST PUSH1 0x0 DUP2 SWAP1 POP SWAP2 SWAP1 POP JUMP JUMPDEST PUSH2 0x38C DUP2 PUSH2 0x379 JUMP JUMPDEST DUP2 EQ PUSH2 0x397 JUMPI PUSH1 0x0 DUP1 REVERT JUMPDEST POP JUMP JUMPDEST PUSH1 0x0 DUP2 MLOAD SWAP1 POP PUSH2 0x3A9 DUP2 PUSH2 0x383 JUMP JUMPDEST SWAP3 SWAP2 POP POP JUMP JUMPDEST PUSH1 0x0 DUP1 PUSH1 0x0 DUP1 PUSH1 0x0 PUSH1 0xA0 DUP7 DUP9 SUB SLT ISZERO PUSH2 0x3CB JUMPI PUSH2 0x3CA PUSH2 0x316 JUMP JUMPDEST JUMPDEST PUSH1 0x0 PUSH2 0x3D9 DUP9 DUP3 DUP10 ADD PUSH2 0x364 JUMP JUMPDEST SWAP6 POP POP PUSH1 0x20 PUSH2 0x3EA DUP9 DUP3 DUP10 ADD PUSH2 0x364 JUMP JUMPDEST SWAP5 POP POP PUSH1 0x40 PUSH2 0x3FB DUP9 DUP3 DUP10 ADD PUSH2 0x39A JUMP JUMPDEST SWAP4 POP POP PUSH1 0x60 PUSH2 0x40C DUP9 DUP3 DUP10 ADD PUSH2 0x39A JUMP JUMPDEST SWAP3 POP POP PUSH1 0x80 PUSH2 0x41D DUP9 DUP3 DUP10 ADD PUSH2 0x364 JUMP JUMPDEST SWAP2 POP POP SWAP3 SWAP6 POP SWAP3 SWAP6 SWAP1 SWAP4 POP JUMP JUMPDEST PUSH32 0x4E487B7100000000000000000000000000000000000000000000000000000000 PUSH1 0x0 MSTORE PUSH1 0x11 PUSH1 0x4 MSTORE PUSH1 0x24 PUSH1 0x0 REVERT JUMPDEST PUSH1 0x0 PUSH2 0x464 DUP3 PUSH2 0x379 JUMP JUMPDEST SWAP2 POP PUSH2 0x46F DUP4 PUSH2 0x379 JUMP JUMPDEST SWAP3 POP DUP3 DUP3 ADD SWAP1 POP DUP1 DUP3 GT ISZERO PUSH2 0x487 JUMPI PUSH2 0x486 PUSH2 0x42A JUMP JUMPDEST JUMPDEST SWAP3 SWAP2 POP POP JUMP JUMPDEST PUSH1 0x0 DUP3 DUP3 MSTORE PUSH1 0x20 DUP3 ADD SWAP1 POP SWAP3 SWAP2 POP POP JUMP JUMPDEST PUSH32 0x496E636F7272656374204554482073656E740000000000000000000000000000 PUSH1 0x0 DUP3 ADD MSTORE POP JUMP JUMPDEST PUSH1 0x0 PUSH2 0x4D4 PUSH1 0x12 DUP4 PUSH2 0x48D JUMP JUMPDEST SWAP2 POP PUSH2 0x4DF DUP3 PUSH2 0x49E JUMP JUMPDEST PUSH1 0x20 DUP3 ADD SWAP1 POP SWAP2 SWAP1 POP JUMP JUMPDEST PUSH1 0x0 PUSH1 0x20 DUP3 ADD SWAP1 POP DUP2 DUP2 SUB PUSH1 0x0 DUP4 ADD MSTORE PUSH2 0x503 DUP2 PUSH2 0x4C7 JUMP JUMPDEST SWAP1 POP SWAP2 SWAP1 POP JUMP JUMPDEST PUSH2 0x10D2 DUP1 PUSH2 0x519 PUSH1 0x0 CODECOPY PUSH1 0x0 RETURN INVALID PUSH1 0x80 PUSH1 0x40 MSTORE PUSH1 0x4 CALLDATASIZE LT PUSH2 0x7B JUMPI PUSH1 0x0 CALLDATALOAD PUSH1 0xE0 SHR DUP1 PUSH4 0x8DA5CB5B GT PUSH2 0x4E JUMPI DUP1 PUSH4 0x8DA5CB5B EQ PUSH2 0x118 JUMPI DUP1 PUSH4 0x9D76EA58 EQ PUSH2 0x143 JUMPI DUP1 PUSH4 0xB6B55F25 EQ PUSH2 0x16E JUMPI DUP1 PUSH4 0xC80EC522 EQ PUSH2 0x18A JUMPI PUSH2 0x7B JUMP JUMPDEST DUP1 PUSH4 0x12065FE0 EQ PUSH2 0x80 JUMPI DUP1 PUSH4 0x17D8EC7F EQ PUSH2 0xAB JUMPI DUP1 PUSH4 0x3CCFD60B EQ PUSH2 0xD6 JUMPI DUP1 PUSH4 0x3FD8B02F EQ PUSH2 0xED JUMPI JUMPDEST PUSH1 0x0 DUP1 REVERT JUMPDEST CALLVALUE DUP1 ISZERO PUSH2 0x8C JUMPI PUSH1 0x0 DUP1 REVERT JUMPDEST POP PUSH2 0x95 PUSH2 0x1B5 JUMP JUMPDEST PUSH1 0x40 MLOAD PUSH2 0xA2 SWAP2 SWAP1 PUSH2 0xC4A JUMP JUMPDEST PUSH1 0x40 MLOAD DUP1 SWAP2 SUB SWAP1 RETURN JUMPDEST CALLVALUE DUP1 ISZERO PUSH2 0xB7 JUMPI PUSH1 0x0 DUP1 REVERT JUMPDEST POP PUSH2 0xC0 PUSH2 0x1FB JUMP JUMPDEST PUSH1 0x40 MLOAD PUSH2 0xCD SWAP2 SWAP1 PUSH2 0xCA6 JUMP JUMPDEST PUSH1 0x40 MLOAD DUP1 SWAP2 SUB SWAP1 RETURN JUMPDEST CALLVALUE DUP1 ISZERO PUSH2 0xE2 JUMPI PUSH1 0x0 DUP1 REVERT JUMPDEST POP PUSH2 0xEB PUSH2 0x221 JUMP JUMPDEST STOP JUMPDEST CALLVALUE DUP1 ISZERO PUSH2 0xF9 JUMPI PUSH1 0x0 DUP1 REVERT JUMPDEST POP PUSH2 0x102 PUSH2 0x951 JUMP JUMPDEST PUSH1 0x40 MLOAD PUSH2 0x10F SWAP2 SWAP1 PUSH2 0xC4A JUMP JUMPDEST PUSH1 0x40 MLOAD DUP1 SWAP2 SUB SWAP1 RETURN JUMPDEST CALLVALUE DUP1 ISZERO PUSH2 0x124 JUMPI PUSH1 0x0 DUP1 REVERT JUMPDEST POP PUSH2 0x12D PUSH2 0x957 JUMP JUMPDEST PUSH1 0x40 MLOAD PUSH2 0x13A SWAP2 SWAP1 PUSH2 0xCA6 JUMP JUMPDEST PUSH1 0x40 MLOAD DUP1 SWAP2 SUB SWAP1 RETURN JUMPDEST CALLVALUE DUP1 ISZERO PUSH2 0x14F JUMPI PUSH1 0x0 DUP1 REVERT JUMPDEST POP PUSH2 0x158 PUSH2 0x97B JUMP JUMPDEST PUSH1 0x40 MLOAD PUSH2 0x165 SWAP2 SWAP1 PUSH2 0xCA6 JUMP JUMPDEST PUSH1 0x40 MLOAD DUP1 SWAP2 SUB SWAP1 RETURN JUMPDEST PUSH2 0x188 PUSH1 0x4 DUP1 CALLDATASIZE SUB DUP2 ADD SWAP1 PUSH2 0x183 SWAP2 SWAP1 PUSH2 0xCF2 JUMP JUMPDEST PUSH2 0x9A1 JUMP JUMPDEST STOP JUMPDEST CALLVALUE DUP1 ISZERO PUSH2 0x196 JUMPI PUSH1 0x0 DUP1 REVERT JUMPDEST POP PUSH2 0x19F PUSH2 0xC1B JUMP JUMPDEST PUSH1 0x40 MLOAD PUSH2 0x1AC SWAP2 SWAP1 PUSH2 0xD3A JUMP JUMPDEST PUSH1 0x40 MLOAD DUP1 SWAP2 SUB SWAP1 RETURN JUMPDEST PUSH1 0x0 PUSH2 0x1CB PUSH8 0x31E47348052FDC39 PUSH1 0xC0 SHL PUSH2 0xC2E JUMP JUMPDEST PUSH2 0x1DF PUSH8 0x4004F01D20C11B0D PUSH1 0xC0 SHL PUSH2 0xC2E JUMP JUMPDEST PUSH2 0x1F3 PUSH8 0x67823D9C11603E6F PUSH1 0xC0 SHL PUSH2 0xC2E JUMP JUMPDEST PUSH1 0x4 SLOAD SWAP1 POP SWAP1 JUMP JUMPDEST PUSH1 0x3 PUSH1 0x0 SWAP1 SLOAD SWAP1 PUSH2 0x100 EXP SWAP1 DIV PUSH20 0xFFFFFFFFFFFFFFFFFFFFFFFFFFFFFFFFFFFFFFFF AND DUP2 JUMP JUMPDEST PUSH2 0x235 PUSH8 0x1AE69CFF812DC964 PUSH1 0xC0 SHL PUSH2 0xC2E JUMP JUMPDEST PUSH2 0x249 PUSH8 0x8097AD8571A18D5A PUSH1 0xC0 SHL PUSH2 0xC2E JUMP JUMPDEST PUSH2 0x25D PUSH8 0xF41697A2C604419C PUSH1 0xC0 SHL PUSH2 0xC2E JUMP JUMPDEST PUSH2 0x271 PUSH8 0x247EC0F0EC7158E PUSH1 0xC0 SHL PUSH2 0xC2E JUMP JUMPDEST PUSH1 0x0 DUP1 SLOAD SWAP1 PUSH2 0x100 EXP SWAP1 DIV PUSH20 0xFFFFFFFFFFFFFFFFFFFFFFFFFFFFFFFFFFFFFFFF AND PUSH20 0xFFFFFFFFFFFFFFFFFFFFFFFFFFFFFFFFFFFFFFFF AND CALLER PUSH20 0xFFFFFFFFFFFFFFFFFFFFFFFFFFFFFFFFFFFFFFFF AND EQ PUSH2 0x2FF JUMPI PUSH1 0x40 MLOAD PUSH32 0x8C379A000000000000000000000000000000000000000000000000000000000 DUP2 MSTORE PUSH1 0x4 ADD PUSH2 0x2F6 SWAP1 PUSH2 0xDB2 JUMP JUMPDEST PUSH1 0x40 MLOAD DUP1 SWAP2 SUB SWAP1 REVERT JUMPDEST PUSH2 0x313 PUSH8 0x11E3E6A68F6B1D7D PUSH1 0xC0 SHL PUSH2 0xC2E JUMP JUMPDEST PUSH2 0x327 PUSH8 0x414E59987B050261 PUSH1 0xC0 SHL PUSH2 0xC2E JUMP JUMPDEST PUSH2 0x33B PUSH8 0xF7CE37BC5EC09E96 PUSH1 0xC0 SHL PUSH2 0xC2E JUMP JUMPDEST PUSH2 0x34E PUSH7 0x91E400922FBC77 PUSH1 0xC0 SHL PUSH2 0xC2E JUMP JUMPDEST PUSH1 0x3 PUSH1 0x14 SWAP1 SLOAD SWAP1 PUSH2 0x100 EXP SWAP1 DIV PUSH1 0xFF AND ISZERO PUSH2 0x39E JUMPI PUSH1 0x40 MLOAD PUSH32 0x8C379A000000000000000000000000000000000000000000000000000000000 DUP2 MSTORE PUSH1 0x4 ADD PUSH2 0x395 SWAP1 PUSH2 0xE1E JUMP JUMPDEST PUSH1 0x40 MLOAD DUP1 SWAP2 SUB SWAP1 REVERT JUMPDEST PUSH2 0x3B2 PUSH8 0x55BB9B7F58A105A3 PUSH1 0xC0 SHL PUSH2 0xC2E JUMP JUMPDEST PUSH2 0x3C6 PUSH8 0x41B10E943172F0F5 PUSH1 0xC0 SHL PUSH2 0xC2E JUMP JUMPDEST PUSH1 0x1 PUSH1 0x3 PUSH1 0x14 PUSH2 0x100 EXP DUP2 SLOAD DUP2 PUSH1 0xFF MUL NOT AND SWAP1 DUP4 ISZERO ISZERO MUL OR SWAP1 SSTORE POP PUSH2 0x3F5 PUSH8 0x633DB3E93A074773 PUSH1 0xC0 SHL PUSH2 0xC2E JUMP JUMPDEST PUSH2 0x409 PUSH8 0xDC8E7E6891249E36 PUSH1 0xC0 SHL PUSH2 0xC2E JUMP JUMPDEST PUSH1 0x0 PUSH2 0x41F PUSH8 0xC16DE69B797E63B3 PUSH1 0xC0 SHL PUSH2 0xC2E JUMP JUMPDEST PUSH2 0x433 PUSH8 0x4716EF420CF94995 PUSH1 0xC0 SHL PUSH2 0xC2E JUMP JUMPDEST PUSH1 0x0 PUSH1 0x4 SLOAD SWAP1 POP PUSH2 0x44E PUSH8 0xDBA1699D1F02CAF1 PUSH1 0xC0 SHL PUSH2 0xC2E JUMP JUMPDEST PUSH2 0x462 PUSH8 0x53419A035D20A3E0 PUSH1 0xC0 SHL PUSH2 0xC2E JUMP JUMPDEST PUSH1 0x2 SLOAD TIMESTAMP LT ISZERO PUSH2 0x4DA JUMPI PUSH2 0x480 PUSH8 0x1E9F31392F412E3C PUSH1 0xC0 SHL PUSH2 0xC2E JUMP JUMPDEST PUSH2 0x494 PUSH8 0xBBF3D70B1567B884 PUSH1 0xC0 SHL PUSH2 0xC2E JUMP JUMPDEST PUSH1 0x64 PUSH1 0x3 PUSH1 0x4 SLOAD PUSH2 0x4A5 SWAP2 SWAP1 PUSH2 0xE6D JUMP JUMPDEST PUSH2 0x4AF SWAP2 SWAP1 PUSH2 0xEDE JUMP JUMPDEST SWAP2 POP PUSH2 0x4C5 PUSH8 0x6431CED429412371 PUSH1 0xC0 SHL PUSH2 0xC2E JUMP JUMPDEST DUP2 PUSH1 0x4 SLOAD PUSH2 0x4D3 SWAP2 SWAP1 PUSH2 0xF0F JUMP JUMPDEST SWAP1 POP PUSH2 0x4EF JUMP JUMPDEST PUSH2 0x4EE PUSH8 0xDF8BBDC113DD105D PUSH1 0xC0 SHL PUSH2 0xC2E JUMP JUMPDEST JUMPDEST PUSH2 0x503 PUSH8 0xF19F758700735D59 PUSH1 0xC0 SHL PUSH2 0xC2E JUMP JUMPDEST PUSH1 0x0 PUSH1 0x4 DUP2 SWAP1 SSTORE POP PUSH2 0x51F PUSH8 0x1B5FDCB1A19C54D3 PUSH1 0xC0 SHL PUSH2 0xC2E JUMP JUMPDEST PUSH2 0x533 PUSH8 0x36E50AE2735B8EBE PUSH1 0xC0 SHL PUSH2 0xC2E JUMP JUMPDEST PUSH1 0x0 PUSH20 0xFFFFFFFFFFFFFFFFFFFFFFFFFFFFFFFFFFFFFFFF AND PUSH1 0x1 PUSH1 0x0 SWAP1 SLOAD SWAP1 PUSH2 0x100 EXP SWAP1 DIV PUSH20 0xFFFFFFFFFFFFFFFFFFFFFFFFFFFFFFFFFFFFFFFF AND PUSH20 0xFFFFFFFFFFFFFFFFFFFFFFFFFFFFFFFFFFFFFFFF AND SUB PUSH2 0x70D JUMPI PUSH2 0x59D PUSH8 0x599EBA0ED9FDEF63 PUSH1 0xC0 SHL PUSH2 0xC2E JUMP JUMPDEST PUSH2 0x5B1 PUSH8 0xE41A84B2FEA7877 PUSH1 0xC0 SHL PUSH2 0xC2E JUMP JUMPDEST PUSH2 0x5C5 PUSH8 0x24FCA81EA32E303E PUSH1 0xC0 SHL PUSH2 0xC2E JUMP JUMPDEST PUSH1 0x0 DUP1 SLOAD SWAP1 PUSH2 0x100 EXP SWAP1 DIV PUSH20 0xFFFFFFFFFFFFFFFFFFFFFFFFFFFFFFFFFFFFFFFF AND PUSH20 0xFFFFFFFFFFFFFFFFFFFFFFFFFFFFFFFFFFFFFFFF AND PUSH2 0x8FC DUP3 SWAP1 DUP2 ISZERO MUL SWAP1 PUSH1 0x40 MLOAD PUSH1 0x0 PUSH1 0x40 MLOAD DUP1 DUP4 SUB DUP2 DUP6 DUP9 DUP9 CALL SWAP4 POP POP POP POP ISZERO DUP1 ISZERO PUSH2 0x62B JUMPI RETURNDATASIZE PUSH1 0x0 DUP1 RETURNDATACOPY RETURNDATASIZE PUSH1 0x0 REVERT JUMPDEST POP PUSH2 0x640 PUSH8 0xDA9250B62E52BCC7 PUSH1 0xC0 SHL PUSH2 0xC2E JUMP JUMPDEST PUSH2 0x654 PUSH8 0xD66BB2165039D66 PUSH1 0xC0 SHL PUSH2 0xC2E JUMP JUMPDEST PUSH1 0x0 DUP3 GT ISZERO PUSH2 0x6F3 JUMPI PUSH2 0x671 PUSH8 0xD29BEA1F2E59823F PUSH1 0xC0 SHL PUSH2 0xC2E JUMP JUMPDEST PUSH2 0x685 PUSH8 0x2ED8C9350F4AE086 PUSH1 0xC0 SHL PUSH2 0xC2E JUMP JUMPDEST PUSH1 0x3 PUSH1 0x0 SWAP1 SLOAD SWAP1 PUSH2 0x100 EXP SWAP1 DIV PUSH20 0xFFFFFFFFFFFFFFFFFFFFFFFFFFFFFFFFFFFFFFFF AND PUSH20 0xFFFFFFFFFFFFFFFFFFFFFFFFFFFFFFFFFFFFFFFF AND PUSH2 0x8FC DUP4 SWAP1 DUP2 ISZERO MUL SWAP1 PUSH1 0x40 MLOAD PUSH1 0x0 PUSH1 0x40 MLOAD DUP1 DUP4 SUB DUP2 DUP6 DUP9 DUP9 CALL SWAP4 POP POP POP POP ISZERO DUP1 ISZERO PUSH2 0x6ED JUMPI RETURNDATASIZE PUSH1 0x0 DUP1 RETURNDATACOPY RETURNDATASIZE PUSH1 0x0 REVERT JUMPDEST POP PUSH2 0x708 JUMP JUMPDEST PUSH2 0x707 PUSH8 0xC7D61289612A6FED PUSH1 0xC0 SHL PUSH2 0xC2E JUMP JUMPDEST JUMPDEST PUSH2 0x94D JUMP JUMPDEST PUSH2 0x721 PUSH8 0xD9FD8F5B9BC0D511 PUSH1 0xC0 SHL PUSH2 0xC2E JUMP JUMPDEST PUSH2 0x735 PUSH8 0x682CFDBDADA12213 PUSH1 0xC0 SHL PUSH2 0xC2E JUMP JUMPDEST PUSH2 0x749 PUSH8 0x4A8353A3542C960E PUSH1 0xC0 SHL PUSH2 0xC2E JUMP JUMPDEST PUSH1 0x0 PUSH1 0x1 PUSH1 0x0 SWAP1 SLOAD SWAP1 PUSH2 0x100 EXP SWAP1 DIV PUSH20 0xFFFFFFFFFFFFFFFFFFFFFFFFFFFFFFFFFFFFFFFF AND SWAP1 POP PUSH2 0x784 PUSH8 0x3C3BD016CED3B266 PUSH1 0xC0 SHL PUSH2 0xC2E JUMP JUMPDEST PUSH2 0x798 PUSH8 0x1AC28B2062709216 PUSH1 0xC0 SHL PUSH2 0xC2E JUMP JUMPDEST DUP1 PUSH20 0xFFFFFFFFFFFFFFFFFFFFFFFFFFFFFFFFFFFFFFFF AND PUSH4 0xA9059CBB PUSH1 0x0 DUP1 SLOAD SWAP1 PUSH2 0x100 EXP SWAP1 DIV PUSH20 0xFFFFFFFFFFFFFFFFFFFFFFFFFFFFFFFFFFFFFFFF AND DUP5 PUSH1 0x40 MLOAD DUP4 PUSH4 0xFFFFFFFF AND PUSH1 0xE0 SHL DUP2 MSTORE PUSH1 0x4 ADD PUSH2 0x7F3 SWAP3 SWAP2 SWAP1 PUSH2 0xF43 JUMP JUMPDEST PUSH1 0x20 PUSH1 0x40 MLOAD DUP1 DUP4 SUB DUP2 PUSH1 0x0 DUP8 GAS CALL ISZERO DUP1 ISZERO PUSH2 0x812 JUMPI RETURNDATASIZE PUSH1 0x0 DUP1 RETURNDATACOPY RETURNDATASIZE PUSH1 0x0 REVERT JUMPDEST POP POP POP POP PUSH1 0x40 MLOAD RETURNDATASIZE PUSH1 0x1F NOT PUSH1 0x1F DUP3 ADD AND DUP3 ADD DUP1 PUSH1 0x40 MSTORE POP DUP2 ADD SWAP1 PUSH2 0x836 SWAP2 SWAP1 PUSH2 0xF98 JUMP JUMPDEST POP PUSH2 0x84B PUSH8 0xAB448B79D02DC4B7 PUSH1 0xC0 SHL PUSH2 0xC2E JUMP JUMPDEST PUSH2 0x85F PUSH8 0xCE40B2C497CF793E PUSH1 0xC0 SHL PUSH2 0xC2E JUMP JUMPDEST PUSH1 0x0 DUP4 GT ISZERO PUSH2 0x936 JUMPI PUSH2 0x87C PUSH8 0x92BBCDB14508EEA PUSH1 0xC0 SHL PUSH2 0xC2E JUMP JUMPDEST PUSH2 0x890 PUSH8 0x5F937140315B5475 PUSH1 0xC0 SHL PUSH2 0xC2E JUMP JUMPDEST DUP1 PUSH20 0xFFFFFFFFFFFFFFFFFFFFFFFFFFFFFFFFFFFFFFFF AND PUSH4 0xA9059CBB PUSH1 0x3 PUSH1 0x0 SWAP1 SLOAD SWAP1 PUSH2 0x100 EXP SWAP1 DIV PUSH20 0xFFFFFFFFFFFFFFFFFFFFFFFFFFFFFFFFFFFFFFFF AND DUP6 PUSH1 0x40 MLOAD DUP4 PUSH4 0xFFFFFFFF AND PUSH1 0xE0 SHL DUP2 MSTORE PUSH1 0x4 ADD PUSH2 0x8ED SWAP3 SWAP2 SWAP1 PUSH2 0xF43 JUMP JUMPDEST PUSH1 0x20 PUSH1 0x40 MLOAD DUP1 DUP4 SUB DUP2 PUSH1 0x0 DUP8 GAS CALL ISZERO DUP1 ISZERO PUSH2 0x90C JUMPI RETURNDATASIZE PUSH1 0x0 DUP1 RETURNDATACOPY RETURNDATASIZE PUSH1 0x0 REVERT JUMPDEST POP POP POP POP PUSH1 0x40 MLOAD RETURNDATASIZE PUSH1 0x1F NOT PUSH1 0x1F DUP3 ADD AND DUP3 ADD DUP1 PUSH1 0x40 MSTORE POP DUP2 ADD SWAP1 PUSH2 0x930 SWAP2 SWAP1 PUSH2 0xF98 JUMP JUMPDEST POP PUSH2 0x94B JUMP JUMPDEST PUSH2 0x94A PUSH8 0xFACB7F00CEFA68A3 PUSH1 0xC0 SHL PUSH2 0xC2E JUMP JUMPDEST JUMPDEST POP JUMPDEST POP POP JUMP JUMPDEST PUSH1 0x2 SLOAD DUP2 JUMP JUMPDEST PUSH1 0x0 DUP1 SLOAD SWAP1 PUSH2 0x100 EXP SWAP1 DIV PUSH20 0xFFFFFFFFFFFFFFFFFFFFFFFFFFFFFFFFFFFFFFFF AND DUP2 JUMP JUMPDEST PUSH1 0x1 PUSH1 0x0 SWAP1 SLOAD SWAP1 PUSH2 0x100 EXP SWAP1 DIV PUSH20 0xFFFFFFFFFFFFFFFFFFFFFFFFFFFFFFFFFFFFFFFF AND DUP2 JUMP JUMPDEST PUSH2 0x9B5 PUSH8 0xBEEA3C5D6959844F PUSH1 0xC0 SHL PUSH2 0xC2E JUMP JUMPDEST PUSH2 0x9C9 PUSH8 0x74BCB5E9F99FDF8A PUSH1 0xC0 SHL PUSH2 0xC2E JUMP JUMPDEST PUSH2 0x9DD PUSH8 0x3E28F3C298421FCC PUSH1 0xC0 SHL PUSH2 0xC2E JUMP JUMPDEST PUSH1 0x0 PUSH20 0xFFFFFFFFFFFFFFFFFFFFFFFFFFFFFFFFFFFFFFFF AND PUSH1 0x1 PUSH1 0x0 SWAP1 SLOAD SWAP1 PUSH2 0x100 EXP SWAP1 DIV PUSH20 0xFFFFFFFFFFFFFFFFFFFFFFFFFFFFFFFFFFFFFFFF AND PUSH20 0xFFFFFFFFFFFFFFFFFFFFFFFFFFFFFFFFFFFFFFFF AND SUB PUSH2 0xB0B JUMPI PUSH2 0xA47 PUSH8 0x46D2BFE6AFC6395D PUSH1 0xC0 SHL PUSH2 0xC2E JUMP JUMPDEST PUSH2 0xA5B PUSH8 0xA647ECFFED0D38C6 PUSH1 0xC0 SHL PUSH2 0xC2E JUMP JUMPDEST PUSH2 0xA6F PUSH8 0x728B3E63964C8F4C PUSH1 0xC0 SHL PUSH2 0xC2E JUMP JUMPDEST PUSH2 0xA83 PUSH8 0x796AAA55950CF148 PUSH1 0xC0 SHL PUSH2 0xC2E JUMP JUMPDEST DUP1 CALLVALUE EQ PUSH2 0xAC5 JUMPI PUSH1 0x40 MLOAD PUSH32 0x8C379A000000000000000000000000000000000000000000000000000000000 DUP2 MSTORE PUSH1 0x4 ADD PUSH2 0xABC SWAP1 PUSH2 0x1011 JUMP JUMPDEST PUSH1 0x40 MLOAD DUP1 SWAP2 SUB SWAP1 REVERT JUMPDEST PUSH2 0xAD9 PUSH8 0xBB8B8B34572CA473 PUSH1 0xC0 SHL PUSH2 0xC2E JUMP JUMPDEST PUSH2 0xAED PUSH8 0x13594465ECC85BF PUSH1 0xC0 SHL PUSH2 0xC2E JUMP JUMPDEST CALLVALUE PUSH1 0x4 PUSH1 0x0 DUP3 DUP3 SLOAD PUSH2 0xAFF SWAP2 SWAP1 PUSH2 0x1031 JUMP JUMPDEST SWAP3 POP POP DUP2 SWAP1 SSTORE POP PUSH2 0xC18 JUMP JUMPDEST PUSH2 0xB1F PUSH8 0x3C46F2537C45ACC1 PUSH1 0xC0 SHL PUSH2 0xC2E JUMP JUMPDEST PUSH2 0xB33 PUSH8 0x6ACA467E41360D57 PUSH1 0xC0 SHL PUSH2 0xC2E JUMP JUMPDEST PUSH2 0xB47 PUSH8 0x7B038FF3221A149F PUSH1 0xC0 SHL PUSH2 0xC2E JUMP JUMPDEST PUSH1 0x1 PUSH1 0x0 SWAP1 SLOAD SWAP1 PUSH2 0x100 EXP SWAP1 DIV PUSH20 0xFFFFFFFFFFFFFFFFFFFFFFFFFFFFFFFFFFFFFFFF AND PUSH20 0xFFFFFFFFFFFFFFFFFFFFFFFFFFFFFFFFFFFFFFFF AND PUSH4 0x23B872DD CALLER ADDRESS DUP5 PUSH1 0x40 MLOAD DUP5 PUSH4 0xFFFFFFFF AND PUSH1 0xE0 SHL DUP2 MSTORE PUSH1 0x4 ADD PUSH2 0xBA6 SWAP4 SWAP3 SWAP2 SWAP1 PUSH2 0x1065 JUMP JUMPDEST PUSH1 0x20 PUSH1 0x40 MLOAD DUP1 DUP4 SUB DUP2 PUSH1 0x0 DUP8 GAS CALL ISZERO DUP1 ISZERO PUSH2 0xBC5 JUMPI RETURNDATASIZE PUSH1 0x0 DUP1 RETURNDATACOPY RETURNDATASIZE PUSH1 0x0 REVERT JUMPDEST POP POP POP POP PUSH1 0x40 MLOAD RETURNDATASIZE PUSH1 0x1F NOT PUSH1 0x1F DUP3 ADD AND DUP3 ADD DUP1 PUSH1 0x40 MSTORE POP DUP2 ADD SWAP1 PUSH2 0xBE9 SWAP2 SWAP1 PUSH2 0xF98 JUMP JUMPDEST POP PUSH2 0xBFE PUSH8 0x61655B1A2CD44A3C PUSH1 0xC0 SHL PUSH2 0xC2E JUMP JUMPDEST DUP1 PUSH1 0x4 PUSH1 0x0 DUP3 DUP3 SLOAD PUSH2 0xC10 SWAP2 SWAP1 PUSH2 0x1031 JUMP JUMPDEST SWAP3 POP POP DUP2 SWAP1 SSTORE POP JUMPDEST POP JUMP JUMPDEST PUSH1 0x3 PUSH1 0x14 SWAP1 SLOAD SWAP1 PUSH2 0x100 EXP SWAP1 DIV PUSH1 0xFF AND DUP2 JUMP JUMPDEST POP JUMP JUMPDEST PUSH1 0x0 DUP2 SWAP1 POP SWAP2 SWAP1 POP JUMP JUMPDEST PUSH2 0xC44 DUP2 PUSH2 0xC31 JUMP JUMPDEST DUP3 MSTORE POP POP JUMP JUMPDEST PUSH1 0x0 PUSH1 0x20 DUP3 ADD SWAP1 POP PUSH2 0xC5F PUSH1 0x0 DUP4 ADD DUP5 PUSH2 0xC3B JUMP JUMPDEST SWAP3 SWAP2 POP POP JUMP JUMPDEST PUSH1 0x0 PUSH20 0xFFFFFFFFFFFFFFFFFFFFFFFFFFFFFFFFFFFFFFFF DUP3 AND SWAP1 POP SWAP2 SWAP1 POP JUMP JUMPDEST PUSH1 0x0 PUSH2 0xC90 DUP3 PUSH2 0xC65 JUMP JUMPDEST SWAP1 POP SWAP2 SWAP1 POP JUMP JUMPDEST PUSH2 0xCA0 DUP2 PUSH2 0xC85 JUMP JUMPDEST DUP3 MSTORE POP POP JUMP JUMPDEST PUSH1 0x0 PUSH1 0x20 DUP3 ADD SWAP1 POP PUSH2 0xCBB PUSH1 0x0 DUP4 ADD DUP5 PUSH2 0xC97 JUMP JUMPDEST SWAP3 SWAP2 POP POP JUMP JUMPDEST PUSH1 0x0 DUP1 REVERT JUMPDEST PUSH2 0xCCF DUP2 PUSH2 0xC31 JUMP JUMPDEST DUP2 EQ PUSH2 0xCDA JUMPI PUSH1 0x0 DUP1 REVERT JUMPDEST POP JUMP JUMPDEST PUSH1 0x0 DUP2 CALLDATALOAD SWAP1 POP PUSH2 0xCEC DUP2 PUSH2 0xCC6 JUMP JUMPDEST SWAP3 SWAP2 POP POP JUMP JUMPDEST PUSH1 0x0 PUSH1 0x20 DUP3 DUP5 SUB SLT ISZERO PUSH2 0xD08 JUMPI PUSH2 0xD07 PUSH2 0xCC1 JUMP JUMPDEST JUMPDEST PUSH1 0x0 PUSH2 0xD16 DUP5 DUP3 DUP6 ADD PUSH2 0xCDD JUMP JUMPDEST SWAP2 POP POP SWAP3 SWAP2 POP POP JUMP JUMPDEST PUSH1 0x0 DUP2 ISZERO ISZERO SWAP1 POP SWAP2 SWAP1 POP JUMP JUMPDEST PUSH2 0xD34 DUP2 PUSH2 0xD1F JUMP JUMPDEST DUP3 MSTORE POP POP JUMP JUMPDEST PUSH1 0x0 PUSH1 0x20 DUP3 ADD SWAP1 POP PUSH2 0xD4F PUSH1 0x0 DUP4 ADD DUP5 PUSH2 0xD2B JUMP JUMPDEST SWAP3 SWAP2 POP POP JUMP JUMPDEST PUSH1 0x0 DUP3 DUP3 MSTORE PUSH1 0x20 DUP3 ADD SWAP1 POP SWAP3 SWAP2 POP POP JUMP JUMPDEST PUSH32 0x4E6F74206F776E65720000000000000000000000000000000000000000000000 PUSH1 0x0 DUP3 ADD MSTORE POP JUMP JUMPDEST PUSH1 0x0 PUSH2 0xD9C PUSH1 0x9 DUP4 PUSH2 0xD55 JUMP JUMPDEST SWAP2 POP PUSH2 0xDA7 DUP3 PUSH2 0xD66 JUMP JUMPDEST PUSH1 0x20 DUP3 ADD SWAP1 POP SWAP2 SWAP1 POP JUMP JUMPDEST PUSH1 0x0 PUSH1 0x20 DUP3 ADD SWAP1 POP DUP2 DUP2 SUB PUSH1 0x0 DUP4 ADD MSTORE PUSH2 0xDCB DUP2 PUSH2 0xD8F JUMP JUMPDEST SWAP1 POP SWAP2 SWAP1 POP JUMP JUMPDEST PUSH32 0x416C72656164792077697468647261776E000000000000000000000000000000 PUSH1 0x0 DUP3 ADD MSTORE POP JUMP JUMPDEST PUSH1 0x0 PUSH2 0xE08 PUSH1 0x11 DUP4 PUSH2 0xD55 JUMP JUMPDEST SWAP2 POP PUSH2 0xE13 DUP3 PUSH2 0xDD2 JUMP JUMPDEST PUSH1 0x20 DUP3 ADD SWAP1 POP SWAP2 SWAP1 POP JUMP JUMPDEST PUSH1 0x0 PUSH1 0x20 DUP3 ADD SWAP1 POP DUP2 DUP2 SUB PUSH1 0x0 DUP4 ADD MSTORE PUSH2 0xE37 DUP2 PUSH2 0xDFB JUMP JUMPDEST SWAP1 POP SWAP2 SWAP1 POP JUMP JUMPDEST PUSH32 0x4E487B7100000000000000000000000000000000000000000000000000000000 PUSH1 0x0 MSTORE PUSH1 0x11 PUSH1 0x4 MSTORE PUSH1 0x24 PUSH1 0x0 REVERT JUMPDEST PUSH1 0x0 PUSH2 0xE78 DUP3 PUSH2 0xC31 JUMP JUMPDEST SWAP2 POP PUSH2 0xE83 DUP4 PUSH2 0xC31 JUMP JUMPDEST SWAP3 POP DUP3 DUP3 MUL PUSH2 0xE91 DUP2 PUSH2 0xC31 JUMP JUMPDEST SWAP2 POP DUP3 DUP3 DIV DUP5 EQ DUP4 ISZERO OR PUSH2 0xEA8 JUMPI PUSH2 0xEA7 PUSH2 0xE3E JUMP JUMPDEST JUMPDEST POP SWAP3 SWAP2 POP POP JUMP JUMPDEST PUSH32 0x4E487B7100000000000000000000000000000000000000000000000000000000 PUSH1 0x0 MSTORE PUSH1 0x12 PUSH1 0x4 MSTORE PUSH1 0x24 PUSH1 0x0 REVERT JUMPDEST PUSH1 0x0 PUSH2 0xEE9 DUP3 PUSH2 0xC31 JUMP JUMPDEST SWAP2 POP PUSH2 0xEF4 DUP4 PUSH2 0xC31 JUMP JUMPDEST SWAP3 POP DUP3 PUSH2 0xF04 JUMPI PUSH2 0xF03 PUSH2 0xEAF JUMP JUMPDEST JUMPDEST DUP3 DUP3 DIV SWAP1 POP SWAP3 SWAP2 POP POP JUMP JUMPDEST PUSH1 0x0 PUSH2 0xF1A DUP3 PUSH2 0xC31 JUMP JUMPDEST SWAP2 POP PUSH2 0xF25 DUP4 PUSH2 0xC31 JUMP JUMPDEST SWAP3 POP DUP3 DUP3 SUB SWAP1 POP DUP2 DUP2 GT ISZERO PUSH2 0xF3D JUMPI PUSH2 0xF3C PUSH2 0xE3E JUMP JUMPDEST JUMPDEST SWAP3 SWAP2 POP POP JUMP JUMPDEST PUSH1 0x0 PUSH1 0x40 DUP3 ADD SWAP1 POP PUSH2 0xF58 PUSH1 0x0 DUP4 ADD DUP6 PUSH2 0xC97 JUMP JUMPDEST PUSH2 0xF65 PUSH1 0x20 DUP4 ADD DUP5 PUSH2 0xC3B JUMP JUMPDEST SWAP4 SWAP3 POP POP POP JUMP JUMPDEST PUSH2 0xF75 DUP2 PUSH2 0xD1F JUMP JUMPDEST DUP2 EQ PUSH2 0xF80 JUMPI PUSH1 0x0 DUP1 REVERT JUMPDEST POP JUMP JUMPDEST PUSH1 0x0 DUP2 MLOAD SWAP1 POP PUSH2 0xF92 DUP2 PUSH2 0xF6C JUMP JUMPDEST SWAP3 SWAP2 POP POP JUMP JUMPDEST PUSH1 0x0 PUSH1 0x20 DUP3 DUP5 SUB SLT ISZERO PUSH2 0xFAE JUMPI PUSH2 0xFAD PUSH2 0xCC1 JUMP JUMPDEST JUMPDEST PUSH1 0x0 PUSH2 0xFBC DUP5 DUP3 DUP6 ADD PUSH2 0xF83 JUMP JUMPDEST SWAP2 POP POP SWAP3 SWAP2 POP POP JUMP JUMPDEST PUSH32 0x496E636F7272656374204554482073656E740000000000000000000000000000 PUSH1 0x0 DUP3 ADD MSTORE POP JUMP JUMPDEST PUSH1 0x0 PUSH2 0xFFB PUSH1 0x12 DUP4 PUSH2 0xD55 JUMP JUMPDEST SWAP2 POP PUSH2 0x1006 DUP3 PUSH2 0xFC5 JUMP JUMPDEST PUSH1 0x20 DUP3 ADD SWAP1 POP SWAP2 SWAP1 POP JUMP JUMPDEST PUSH1 0x0 PUSH1 0x20 DUP3 ADD SWAP1 POP DUP2 DUP2 SUB PUSH1 0x0 DUP4 ADD MSTORE PUSH2 0x102A DUP2 PUSH2 0xFEE JUMP JUMPDEST SWAP1 POP SWAP2 SWAP1 POP JUMP JUMPDEST PUSH1 0x0 PUSH2 0x103C DUP3 PUSH2 0xC31 JUMP JUMPDEST SWAP2 POP PUSH2 0x1047 DUP4 PUSH2 0xC31 JUMP JUMPDEST SWAP3 POP DUP3 DUP3 ADD SWAP1 POP DUP1 DUP3 GT ISZERO PUSH2 0x105F JUMPI PUSH2 0x105E PUSH2 0xE3E JUMP JUMPDEST JUMPDEST SWAP3 SWAP2 POP POP JUMP JUMPDEST PUSH1 0x0 PUSH1 0x60 DUP3 ADD SWAP1 POP PUSH2 0x107A PUSH1 0x0 DUP4 ADD DUP7 PUSH2 0xC97 JUMP JUMPDEST PUSH2 0x1087 PUSH1 0x20 DUP4 ADD DUP6 PUSH2 0xC97 JUMP JUMPDEST PUSH2 0x1094 PUSH1 0x40 DUP4 ADD DUP5 PUSH2 0xC3B JUMP JUMPDEST SWAP5 SWAP4 POP POP POP POP JUMP INVALID LOG2 PUSH5 0x6970667358 0x22 SLT KECCAK256 MULMOD COINBASE ADD 0x2A 0xB8 CHAINID TLOAD DUP12 LOG3 EXTCODECOPY ISZERO INVALID SUB PUSH7 0xD6D87AE3CF2ABC 0x2E 0x27 0xEA 0xC1 LOG1 SELFBALANCE CALLDATASIZE SWAP6 KECCAK256 0xD4 0xA6 PUSH5 0x736F6C6343 STOP ADDMOD SHR STOP CALLER "},"methodIdentifiers":{"deposit(uint256)":"b6b55f25","factoryAdmin()":"17d8ec7f","getBalance()":"12065fe0","lockPeriod()":"3fd8b02f","owner()":"8da5cb5b","tokenAddress()":"9d76ea58","withdraw()":"3ccfd60b","withdrawn()":"c80ec522"}}}}}