{
  "_format": "hh-sol-artifact-1",
  "contractName": "MultiSigWallet",
  "sourceName": "contracts/MultiSigWallet.sol",
  "abi": [
    {
      "inputs": [
        {
          "internalType": "address[]",
          "name": "_owners",
          "type": "address[]"
        },
        {
          "internalType": "uint256",
          "name": "_requiredConfirmations",
          "type": "uint256"
        }
      ],
      "stateMutability": "nonpayable",
      "type": "constructor"
    },
    {
      "inputs": [],
      "name": "MultiSigWallet_DuplicateOwnerAddress",
      "type": "error"
    },
    {
      "inputs": [],
      "name": "MultiSigWallet_InvalidOwnerAddress",
      "type": "error"
    },
    {
      "inputs": [],
      "name": "MultiSigWallet_InvalidRequiredConfirmations",
      "type": "error"
    },
    {
      "inputs": [],
      "name": "MultiSigWallet_NotAnOwner",
      "type": "error"
    },
    {
      "inputs": [],
      "name": "MultiSigWallet_NotEnoughConfirmations",
      "type": "error"
    },
    {
      "inputs": [],
      "name": "MultiSigWallet_OwnersRequired",
      "type": "error"
    },
    {
      "inputs": [],
      "name": "MultiSigWallet_TransactionAlreadyConfirmed",
      "type": "error"
    },
    {
      "inputs": [],
      "name": "MultiSigWallet_TransactionAlreadyExecuted",
      "type": "error"
    },
    {
      "inputs": [],
      "name": "MultiSigWallet_TransactionDoesNotExist",
      "type": "error"
    },
    {
      "inputs": [],
      "name": "MultiSigWallet_TransactionExecutionFailed",
      "type": "error"
    },
    {
      "inputs": [],
      "name": "MultiSigWallet_TransactionNotConfirmed",
      "type": "error"
    },
    {
      "anonymous": false,
      "inputs": [
        {
          "indexed": true,
          "internalType": "address",
          "name": "sender",
          "type": "address"
        },
        {
          "indexed": false,
          "internalType": "uint256",
          "name": "amount",
          "type": "uint256"
        },
        {
          "indexed": false,
          "internalType": "uint256",
          "name": "balance",
          "type": "uint256"
        }
      ],
      "name": "Deposit",
      "type": "event"
    },
    {
      "anonymous": false,
      "inputs": [
        {
          "indexed": true,
          "internalType": "uint256",
          "name": "txId",
          "type": "uint256"
        },
        {
          "indexed": true,
          "internalType": "address",
          "name": "owner",
          "type": "address"
        }
      ],
      "name": "TransactionConfirmed",
      "type": "event"
    },
    {
      "anonymous": false,
      "inputs": [
        {
          "indexed": true,
          "internalType": "uint256",
          "name": "txId",
          "type": "uint256"
        }
      ],
      "name": "TransactionExecuted",
      "type": "event"
    },
    {
      "anonymous": false,
      "inputs": [
        {
          "indexed": true,
          "internalType": "uint256",
          "name": "txId",
          "type": "uint256"
        },
        {
          "indexed": true,
          "internalType": "address",
          "name": "owner",
          "type": "address"
        }
      ],
      "name": "TransactionRevoked",
      "type": "event"
    },
    {
      "anonymous": false,
      "inputs": [
        {
          "indexed": true,
          "internalType": "uint256",
          "name": "txId",
          "type": "uint256"
        },
        {
          "indexed": true,
          "internalType": "address",
          "name": "to",
          "type": "address"
        },
        {
          "indexed": false,
          "internalType": "uint256",
          "name": "value",
          "type": "uint256"
        }
      ],
      "name": "TransactionSubmitted",
      "type": "event"
    },
    {
      "inputs": [
        {
          "internalType": "uint256",
          "name": "transactionIndex",
          "type": "uint256"
        }
      ],
      "name": "confirmTransaction",
      "outputs": [],
      "stateMutability": "nonpayable",
      "type": "function"
    },
    {
      "inputs": [
        {
          "internalType": "uint256",
          "name": "transactionIndex",
          "type": "uint256"
        }
      ],
      "name": "executeTransaction",
      "outputs": [],
      "stateMutability": "nonpayable",
      "type": "function"
    },
    {
      "inputs": [
        {
          "internalType": "uint256",
          "name": "transactionIndex",
          "type": "uint256"
        }
      ],
      "name": "existingTransactions",
      "outputs": [
        {
          "internalType": "bool",
          "name": "exists",
          "type": "bool"
        }
      ],
      "stateMutability": "view",
      "type": "function"
    },
    {
      "inputs": [],
      "name": "getOwners",
      "outputs": [
        {
          "internalType": "address[]",
          "name": "",
          "type": "address[]"
        }
      ],
      "stateMutability": "view",
      "type": "function"
    },
    {
      "inputs": [
        {
          "internalType": "uint256",
          "name": "transactionIndex",
          "type": "uint256"
        }
      ],
      "name": "getTransaction",
      "outputs": [
        {
          "internalType": "address",
          "name": "destination",
          "type": "address"
        },
        {
          "internalType": "uint256",
          "name": "value",
          "type": "uint256"
        },
        {
          "internalType": "bytes",
          "name": "data",
          "type": "bytes"
        },
        {
          "internalType": "bool",
          "name": "executed",
          "type": "bool"
        },
        {
          "internalType": "uint256",
          "name": "confirmationCount",
          "type": "uint256"
        }
      ],
      "stateMutability": "view",
      "type": "function"
    },
    {
      "inputs": [],
      "name": "getTransactionCount",
      "outputs": [
        {
          "internalType": "uint256",
          "name": "",
          "type": "uint256"
        }
      ],
      "stateMutability": "view",
      "type": "function"
    },
    {
      "inputs": [
        {
          "internalType": "uint256",
          "name": "transactionIndex",
          "type": "uint256"
        },
        {
          "internalType": "address",
          "name": "owner",
          "type": "address"
        }
      ],
      "name": "isConfirmed",
      "outputs": [
        {
          "internalType": "bool",
          "name": "confirmed",
          "type": "bool"
        }
      ],
      "stateMutability": "view",
      "type": "function"
    },
    {
      "inputs": [
        {
          "internalType": "address",
          "name": "owner",
          "type": "address"
        }
      ],
      "name": "isOwner",
      "outputs": [
        {
          "internalType": "bool",
          "name": "isOwner",
          "type": "bool"
        }
      ],
      "stateMutability": "view",
      "type": "function"
    },
    {
      "inputs": [
        {
          "internalType": "uint256",
          "name": "",
          "type": "uint256"
        }
      ],
      "name": "owners",
      "outputs": [
        {
          "internalType": "address",
          "name": "",
          "type": "address"
        }
      ],
      "stateMutability": "view",
      "type": "function"
    },
    {
      "inputs": [],
      "name": "requiredConfirmations",
      "outputs": [
        {
          "internalType": "uint256",
          "name": "",
          "type": "uint256"
        }
      ],
      "stateMutability": "view",
      "type": "function"
    },
    {
      "inputs": [
        {
          "internalType": "uint256",
          "name": "transactionIndex",
          "type": "uint256"
        }
      ],
      "name": "revokeConfirmation",
      "outputs": [],
      "stateMutability": "nonpayable",
      "type": "function"
    },
    {
      "inputs": [
        {
          "internalType": "address",
          "name": "destination",
          "type": "address"
        },
        {
          "internalType": "uint256",
          "name": "value",
          "type": "uint256"
        },
        {
          "internalType": "bytes",
          "name": "data",
          "type": "bytes"
        }
      ],
      "name": "submitTransaction",
      "outputs": [],
      "stateMutability": "nonpayable",
      "type": "function"
    },
    {
      "inputs": [],
      "name": "transactionCount",
      "outputs": [
        {
          "internalType": "uint256",
          "name": "",
          "type": "uint256"
        }
      ],
      "stateMutability": "view",
      "type": "function"
    },
    {
      "inputs": [
        {
          "internalType": "uint256",
          "name": "transactionIndex",
          "type": "uint256"
        }
      ],
      "name": "transactions",
      "outputs": [
        {
          "internalType": "address",
          "name": "destination",
          "type": "address"
        },
        {
          "internalType": "uint256",
          "name": "value",
          "type": "uint256"
        },
        {
          "internalType": "bytes",
          "name": "data",
          "type": "bytes"
        },
        {
          "internalType": "bool",
          "name": "executed",
          "type": "bool"
        },
        {
          "internalType": "uint256",
          "name": "confirmationCount",
          "type": "uint256"
        }
      ],
      "stateMutability": "view",
      "type": "function"
    },
    {
      "stateMutability": "payable",
      "type": "receive"
    }
  ],
  "bytecode": "0x608060405234801561001057600080fd5b5060405161209b38038061209b833981810160405281019061003291906104ea565b600082510361006d576040517f1382dd3400000000000000000000000000000000000000000000000000000000815260040160405180910390fd5b600081148061007d575081518114155b156100b4576040517fbcc4f43700000000000000000000000000000000000000000000000000000000815260040160405180910390fd5b60005b82518110156102da57600073ffffffffffffffffffffffffffffffffffffffff168382815181106100eb576100ea610546565b5b602002602001015173ffffffffffffffffffffffffffffffffffffffff1603610140576040517f8a54a69600000000000000000000000000000000000000000000000000000000815260040160405180910390fd5b6005600084838151811061015757610156610546565b5b602002602001015173ffffffffffffffffffffffffffffffffffffffff1673ffffffffffffffffffffffffffffffffffffffff16815260200190815260200160002060009054906101000a900460ff16156101de576040517f536b488600000000000000000000000000000000000000000000000000000000815260040160405180910390fd5b6001600560008584815181106101f7576101f6610546565b5b602002602001015173ffffffffffffffffffffffffffffffffffffffff1673ffffffffffffffffffffffffffffffffffffffff16815260200190815260200160002060006101000a81548160ff021916908315150217905550600083828151811061026557610264610546565b5b60200260200101519080600181540180825580915050600190039060005260206000200160009091909190916101000a81548173ffffffffffffffffffffffffffffffffffffffff021916908373ffffffffffffffffffffffffffffffffffffffff16021790555080806001019150506100b7565b50806001819055505050610575565b6000604051905090565b600080fd5b600080fd5b600080fd5b6000601f19601f8301169050919050565b7f4e487b7100000000000000000000000000000000000000000000000000000000600052604160045260246000fd5b61034b82610302565b810181811067ffffffffffffffff8211171561036a57610369610313565b5b80604052505050565b600061037d6102e9565b90506103898282610342565b919050565b600067ffffffffffffffff8211156103a9576103a8610313565b5b602082029050602081019050919050565b600080fd5b600073ffffffffffffffffffffffffffffffffffffffff82169050919050565b60006103ea826103bf565b9050919050565b6103fa816103df565b811461040557600080fd5b50565b600081519050610417816103f1565b92915050565b600061043061042b8461038e565b610373565b90508083825260208201905060208402830185811115610453576104526103ba565b5b835b8181101561047c57806104688882610408565b845260208401935050602081019050610455565b5050509392505050565b600082601f83011261049b5761049a6102fd565b5b81516104ab84826020860161041d565b91505092915050565b6000819050919050565b6104c7816104b4565b81146104d257600080fd5b50565b6000815190506104e4816104be565b92915050565b60008060408385031215610501576105006102f3565b5b600083015167ffffffffffffffff81111561051f5761051e6102f8565b5b61052b85828601610486565b925050602061053c858286016104d5565b9150509250929050565b7f4e487b7100000000000000000000000000000000000000000000000000000000600052603260045260246000fd5b611b17806105846000396000f3fe6080604052600436106100e15760003560e01c806382e717f71161007f578063b77bf60011610059578063b77bf6001461035d578063c01a8c8414610388578063c6427474146103b1578063ee22610b146103da57610138565b806382e717f7146102c65780639ace38c2146102f1578063a0e67e2b1461033257610138565b80632e7700f0116100bb5780632e7700f0146101e05780632f54bf6e1461020b57806333ea3dc81461024857806380f59a651461028957610138565b8063025e7c271461013d578063101b74dd1461017a57806320ea8d86146101b757610138565b36610138573373ffffffffffffffffffffffffffffffffffffffff167f90890809c654f11d6e72a28fa60149770a0d11ec6c92319d6ceb2bb0a4ea1a15344760405161012e92919061121a565b60405180910390a2005b600080fd5b34801561014957600080fd5b50610164600480360381019061015f9190611279565b610403565b60405161017191906112e7565b60405180910390f35b34801561018657600080fd5b506101a1600480360381019061019c9190611279565b610442565b6040516101ae919061131d565b60405180910390f35b3480156101c357600080fd5b506101de60048036038101906101d99190611279565b610462565b005b3480156101ec57600080fd5b506101f561070b565b6040516102029190611338565b60405180910390f35b34801561021757600080fd5b50610232600480360381019061022d919061137f565b610715565b60405161023f919061131d565b60405180910390f35b34801561025457600080fd5b5061026f600480360381019061026a9190611279565b610735565b60405161028095949392919061143c565b60405180910390f35b34801561029557600080fd5b506102b060048036038101906102ab9190611496565b610892565b6040516102bd919061131d565b60405180910390f35b3480156102d257600080fd5b506102db6108c1565b6040516102e89190611338565b60405180910390f35b3480156102fd57600080fd5b5061031860048036038101906103139190611279565b6108c7565b60405161032995949392919061143c565b60405180910390f35b34801561033e57600080fd5b506103476109b2565b6040516103549190611594565b60405180910390f35b34801561036957600080fd5b50610372610a40565b60405161037f9190611338565b60405180910390f35b34801561039457600080fd5b506103af60048036038101906103aa9190611279565b610a46565b005b3480156103bd57600080fd5b506103d860048036038101906103d3919061161b565b610cf2565b005b3480156103e657600080fd5b5061040160048036038101906103fc9190611279565b610f40565b005b6000818154811061041357600080fd5b906000526020600020016000915054906101000a900473ffffffffffffffffffffffffffffffffffffffff1681565b60066020528060005260406000206000915054906101000a900460ff1681565b600560003373ffffffffffffffffffffffffffffffffffffffff1673ffffffffffffffffffffffffffffffffffffffff16815260200190815260200160002060009054906101000a900460ff166104e5576040517f058f6ad300000000000000000000000000000000000000000000000000000000815260040160405180910390fd5b806006600082815260200190815260200160002060009054906101000a900460ff1661053d576040517f3c11f25400000000000000000000000000000000000000000000000000000000815260040160405180910390fd5b816003600082815260200190815260200160002060030160009054906101000a900460ff1615610599576040517f6fdd5b3600000000000000000000000000000000000000000000000000000000815260040160405180910390fd5b6004600084815260200190815260200160002060003373ffffffffffffffffffffffffffffffffffffffff1673ffffffffffffffffffffffffffffffffffffffff16815260200190815260200160002060009054906101000a900460ff1661062d576040517f0b41357c00000000000000000000000000000000000000000000000000000000815260040160405180910390fd5b600360008481526020019081526020016000206004016000815480929190610654906116be565b919050555060006004600085815260200190815260200160002060003373ffffffffffffffffffffffffffffffffffffffff1673ffffffffffffffffffffffffffffffffffffffff16815260200190815260200160002060006101000a81548160ff0219169083151502179055503373ffffffffffffffffffffffffffffffffffffffff16837f4cd471041f6b9ff47536a54a3d3ab62d0fa9dd5e36c0418b294b1673acb3188160405160405180910390a3505050565b6000600254905090565b60056020528060005260406000206000915054906101000a900460ff1681565b6000806060600080856006600082815260200190815260200160002060009054906101000a900460ff16610795576040517f3c11f25400000000000000000000000000000000000000000000000000000000815260040160405180910390fd5b60006003600089815260200190815260200160002090508060000160009054906101000a900473ffffffffffffffffffffffffffffffffffffffff168160010154826002018360030160009054906101000a900460ff1684600401548280546107fd90611716565b80601f016020809104026020016040519081016040528092919081815260200182805461082990611716565b80156108765780601f1061084b57610100808354040283529160200191610876565b820191906000526020600020905b81548152906001019060200180831161085957829003601f168201915b5050505050925096509650965096509650505091939590929450565b60046020528160005260406000206020528060005260406000206000915091509054906101000a900460ff1681565b60015481565b60036020528060005260406000206000915090508060000160009054906101000a900473ffffffffffffffffffffffffffffffffffffffff169080600101549080600201805461091690611716565b80601f016020809104026020016040519081016040528092919081815260200182805461094290611716565b801561098f5780601f106109645761010080835404028352916020019161098f565b820191906000526020600020905b81548152906001019060200180831161097257829003601f168201915b5050505050908060030160009054906101000a900460ff16908060040154905085565b60606000805480602002602001604051908101604052809291908181526020018280548015610a3657602002820191906000526020600020905b8160009054906101000a900473ffffffffffffffffffffffffffffffffffffffff1673ffffffffffffffffffffffffffffffffffffffff16815260200190600101908083116109ec575b5050505050905090565b60025481565b600560003373ffffffffffffffffffffffffffffffffffffffff1673ffffffffffffffffffffffffffffffffffffffff16815260200190815260200160002060009054906101000a900460ff16610ac9576040517f058f6ad300000000000000000000000000000000000000000000000000000000815260040160405180910390fd5b806006600082815260200190815260200160002060009054906101000a900460ff16610b21576040517f3c11f25400000000000000000000000000000000000000000000000000000000815260040160405180910390fd5b816003600082815260200190815260200160002060030160009054906101000a900460ff1615610b7d576040517f6fdd5b3600000000000000000000000000000000000000000000000000000000815260040160405180910390fd5b826004600082815260200190815260200160002060003373ffffffffffffffffffffffffffffffffffffffff1673ffffffffffffffffffffffffffffffffffffffff16815260200190815260200160002060009054906101000a900460ff1615610c13576040517fe20a4cd900000000000000000000000000000000000000000000000000000000815260040160405180910390fd5b600360008581526020019081526020016000206004016000815480929190610c3a90611747565b919050555060016004600086815260200190815260200160002060003373ffffffffffffffffffffffffffffffffffffffff1673ffffffffffffffffffffffffffffffffffffffff16815260200190815260200160002060006101000a81548160ff0219169083151502179055503373ffffffffffffffffffffffffffffffffffffffff16847f15c2f311c9e0f53b50388279894aeff029a3457884a6601e924fca879e12adcc60405160405180910390a350505050565b600560003373ffffffffffffffffffffffffffffffffffffffff1673ffffffffffffffffffffffffffffffffffffffff16815260200190815260200160002060009054906101000a900460ff16610d75576040517f058f6ad300000000000000000000000000000000000000000000000000000000815260040160405180910390fd5b6040518060a001604052808573ffffffffffffffffffffffffffffffffffffffff16815260200184815260200183838080601f016020809104026020016040519081016040528093929190818152602001838380828437600081840152601f19601f820116905080830192505050505050508152602001600015158152602001600081525060036000600254815260200190815260200160002060008201518160000160006101000a81548173ffffffffffffffffffffffffffffffffffffffff021916908373ffffffffffffffffffffffffffffffffffffffff160217905550602082015181600101556040820151816002019081610e75919061196a565b5060608201518160030160006101000a81548160ff021916908315150217905550608082015181600401559050508373ffffffffffffffffffffffffffffffffffffffff166002547f6974e8be5912ae917b788db2884a51e71cbe0f0979af347e6a32d07d52ef82a385604051610eec9190611338565b60405180910390a3600160066000600254815260200190815260200160002060006101000a81548160ff02191690831515021790555060026000815480929190610f3590611747565b919050555050505050565b600560003373ffffffffffffffffffffffffffffffffffffffff1673ffffffffffffffffffffffffffffffffffffffff16815260200190815260200160002060009054906101000a900460ff16610fc3576040517f058f6ad300000000000000000000000000000000000000000000000000000000815260040160405180910390fd5b806006600082815260200190815260200160002060009054906101000a900460ff1661101b576040517f3c11f25400000000000000000000000000000000000000000000000000000000815260040160405180910390fd5b816003600082815260200190815260200160002060030160009054906101000a900460ff1615611077576040517f6fdd5b3600000000000000000000000000000000000000000000000000000000815260040160405180910390fd5b600154600360008581526020019081526020016000206004015410156110c9576040517f1bc63a3100000000000000000000000000000000000000000000000000000000815260040160405180910390fd5b600060036000858152602001908152602001600020905060018160030160006101000a81548160ff02191690831515021790555060008160000160009054906101000a900473ffffffffffffffffffffffffffffffffffffffff1673ffffffffffffffffffffffffffffffffffffffff168260010154836002016040516111509190611aca565b60006040518083038185875af1925050503d806000811461118d576040519150601f19603f3d011682016040523d82523d6000602084013e611192565b606091505b50509050806111cd576040517f7258402e00000000000000000000000000000000000000000000000000000000815260040160405180910390fd5b847f15ed165a284872ea7017f03df402a0cadfbfab588320ffaf83f160c2f82781c760405160405180910390a25050505050565b6000819050919050565b61121481611201565b82525050565b600060408201905061122f600083018561120b565b61123c602083018461120b565b9392505050565b600080fd5b600080fd5b61125681611201565b811461126157600080fd5b50565b6000813590506112738161124d565b92915050565b60006020828403121561128f5761128e611243565b5b600061129d84828501611264565b91505092915050565b600073ffffffffffffffffffffffffffffffffffffffff82169050919050565b60006112d1826112a6565b9050919050565b6112e1816112c6565b82525050565b60006020820190506112fc60008301846112d8565b92915050565b60008115159050919050565b61131781611302565b82525050565b6000602082019050611332600083018461130e565b92915050565b600060208201905061134d600083018461120b565b92915050565b61135c816112c6565b811461136757600080fd5b50565b60008135905061137981611353565b92915050565b60006020828403121561139557611394611243565b5b60006113a38482850161136a565b91505092915050565b600081519050919050565b600082825260208201905092915050565b60005b838110156113e65780820151818401526020810190506113cb565b60008484015250505050565b6000601f19601f8301169050919050565b600061140e826113ac565b61141881856113b7565b93506114288185602086016113c8565b611431816113f2565b840191505092915050565b600060a08201905061145160008301886112d8565b61145e602083018761120b565b81810360408301526114708186611403565b905061147f606083018561130e565b61148c608083018461120b565b9695505050505050565b600080604083850312156114ad576114ac611243565b5b60006114bb85828601611264565b92505060206114cc8582860161136a565b9150509250929050565b600081519050919050565b600082825260208201905092915050565b6000819050602082019050919050565b61150b816112c6565b82525050565b600061151d8383611502565b60208301905092915050565b6000602082019050919050565b6000611541826114d6565b61154b81856114e1565b9350611556836114f2565b8060005b8381101561158757815161156e8882611511565b975061157983611529565b92505060018101905061155a565b5085935050505092915050565b600060208201905081810360008301526115ae8184611536565b905092915050565b600080fd5b600080fd5b600080fd5b60008083601f8401126115db576115da6115b6565b5b8235905067ffffffffffffffff8111156115f8576115f76115bb565b5b602083019150836001820283011115611614576116136115c0565b5b9250929050565b6000806000806060858703121561163557611634611243565b5b60006116438782880161136a565b945050602061165487828801611264565b935050604085013567ffffffffffffffff81111561167557611674611248565b5b611681878288016115c5565b925092505092959194509250565b7f4e487b7100000000000000000000000000000000000000000000000000000000600052601160045260246000fd5b60006116c982611201565b9150600082036116dc576116db61168f565b5b600182039050919050565b7f4e487b7100000000000000000000000000000000000000000000000000000000600052602260045260246000fd5b6000600282049050600182168061172e57607f821691505b602082108103611741576117406116e7565b5b50919050565b600061175282611201565b91507fffffffffffffffffffffffffffffffffffffffffffffffffffffffffffffffff82036117845761178361168f565b5b600182019050919050565b7f4e487b7100000000000000000000000000000000000000000000000000000000600052604160045260246000fd5b60008190508160005260206000209050919050565b60006020601f8301049050919050565b600082821b905092915050565b6000600883026118207fffffffffffffffffffffffffffffffffffffffffffffffffffffffffffffffff826117e3565b61182a86836117e3565b95508019841693508086168417925050509392505050565b6000819050919050565b600061186761186261185d84611201565b611842565b611201565b9050919050565b6000819050919050565b6118818361184c565b61189561188d8261186e565b8484546117f0565b825550505050565b600090565b6118aa61189d565b6118b5818484611878565b505050565b5b818110156118d9576118ce6000826118a2565b6001810190506118bb565b5050565b601f82111561191e576118ef816117be565b6118f8846117d3565b81016020851015611907578190505b61191b611913856117d3565b8301826118ba565b50505b505050565b600082821c905092915050565b600061194160001984600802611923565b1980831691505092915050565b600061195a8383611930565b9150826002028217905092915050565b611973826113ac565b67ffffffffffffffff81111561198c5761198b61178f565b5b6119968254611716565b6119a18282856118dd565b600060209050601f8311600181146119d457600084156119c2578287015190505b6119cc858261194e565b865550611a34565b601f1984166119e2866117be565b60005b82811015611a0a578489015182556001820191506020850194506020810190506119e5565b86831015611a275784890151611a23601f891682611930565b8355505b6001600288020188555050505b505050505050565b600081905092915050565b60008154611a5481611716565b611a5e8186611a3c565b94506001821660008114611a795760018114611a8e57611ac1565b60ff1983168652811515820286019350611ac1565b611a97856117be565b60005b83811015611ab957815481890152600182019150602081019050611a9a565b838801955050505b50505092915050565b6000611ad68284611a47565b91508190509291505056fea2646970667358221220da720194e6468590d9afed6438ece730d08fd21c9789e3a25b5f1760d4af1db864736f6c634300081c0033",
  "linkReferences": {},
  "deployedLinkReferences": {}
}