{"contracts/permitAndSwap.sol":{"PermitSwap":{"abi":[{"inputs":[],"stateMutability":"nonpayable","type":"constructor"},{"inputs":[],"name":"PERMIT2","outputs":[{"internalType":"contract IPermit2","name":"","type":"address"}],"stateMutability":"view","type":"function"},{"inputs":[],"name":"Router","outputs":[{"internalType":"contract IUniswapV2Router01","name":"","type":"address"}],"stateMutability":"view","type":"function"},{"inputs":[{"internalType":"contract IERC20","name":"token","type":"address"},{"internalType":"contract IERC20","name":"out","type":"address"},{"internalType":"uint160","name":"amount","type":"uint160"},{"internalType":"uint256","name":"nonce","type":"uint256"},{"internalType":"uint256","name":"deadline","type":"uint256"},{"components":[{"components":[{"internalType":"address","name":"token","type":"address"},{"internalType":"uint160","name":"amount","type":"uint160"},{"internalType":"uint48","name":"expiration","type":"uint48"},{"internalType":"uint48","name":"nonce","type":"uint48"}],"internalType":"struct IAllowanceTransfer.PermitDetails","name":"details","type":"tuple"},{"internalType":"address","name":"spender","type":"address"},{"internalType":"uint256","name":"sigDeadline","type":"uint256"}],"internalType":"struct IAllowanceTransfer.PermitSingle","name":"permitSingle","type":"tuple"},{"internalType":"uint8","name":"v","type":"uint8"},{"internalType":"bytes32","name":"r","type":"bytes32"},{"internalType":"bytes32","name":"s","type":"bytes32"},{"internalType":"bytes","name":"signature","type":"bytes"}],"name":"permitAndSwap","outputs":[],"stateMutability":"nonpayable","type":"function"},{"inputs":[{"internalType":"address","name":"","type":"address"},{"internalType":"contract IERC20","name":"","type":"address"}],"name":"tokenBalancesByUser","outputs":[{"internalType":"uint256","name":"","type":"uint256"}],"stateMutability":"view","type":"function"}],"evm":{"bytecode":{"linkReferences":{},"object":"6080604052348015600f57600080fd5b506108638061001f6000396000f3fe608060405234801561001057600080fd5b506004361061004c5760003560e01c80636afdd850146100515780636dfb83da1461006f5780638d00e14e1461008b578063f6d7eade146100bb575b600080fd5b6100596100d9565b604051610066919061022c565b60405180910390f35b610089600480360381019061008491906105b8565b6100ec565b005b6100a560048036038101906100a091906106ba565b610170565b6040516100b29190610709565b60405180910390f35b6100c3610195565b6040516100d09190610745565b60405180910390f35b6e22d473030f116ddee9f6b43ac78ba381565b8a73ffffffffffffffffffffffffffffffffffffffff1663d505accf33308c8b8a8a8a6040518863ffffffff1660e01b815260040161013197969594939291906107be565b600060405180830381600087803b15801561014b57600080fd5b505af115801561015f573d6000803e3d6000fd5b505050505050505050505050505050565b6000602052816000526040600020602052806000526040600020600091509150505481565b73f164fc0ec4e93095b804a4795bbe1e041497b92a81565b600073ffffffffffffffffffffffffffffffffffffffff82169050919050565b6000819050919050565b60006101f26101ed6101e8846101ad565b6101cd565b6101ad565b9050919050565b6000610204826101d7565b9050919050565b6000610216826101f9565b9050919050565b6102268161020b565b82525050565b6000602082019050610241600083018461021d565b92915050565b6000604051905090565b600080fd5b600080fd5b6000610266826101ad565b9050919050565b60006102788261025b565b9050919050565b6102888161026d565b811461029357600080fd5b50565b6000813590506102a58161027f565b92915050565b6102b4816101ad565b81146102bf57600080fd5b50565b6000813590506102d1816102ab565b92915050565b6000819050919050565b6102ea816102d7565b81146102f557600080fd5b50565b600081359050610307816102e1565b92915050565b600080fd5b6000601f19601f8301169050919050565b7f4e487b7100000000000000000000000000000000000000000000000000000000600052604160045260246000fd5b61035b82610312565b810181811067ffffffffffffffff8211171561037a57610379610323565b5b80604052505050565b600061038d610247565b90506103998282610352565b919050565b6103a78161025b565b81146103b257600080fd5b50565b6000813590506103c48161039e565b92915050565b600065ffffffffffff82169050919050565b6103e5816103ca565b81146103f057600080fd5b50565b600081359050610402816103dc565b92915050565b60006080828403121561041e5761041d61030d565b5b6104286080610383565b90506000610438848285016103b5565b600083015250602061044c848285016102c2565b6020830152506040610460848285016103f3565b6040830152506060610474848285016103f3565b60608301525092915050565b600060c082840312156104965761049561030d565b5b6104a06060610383565b905060006104b084828501610408565b60008301525060806104c4848285016103b5565b60208301525060a06104d8848285016102f8565b60408301525092915050565b600060ff82169050919050565b6104fa816104e4565b811461050557600080fd5b50565b600081359050610517816104f1565b92915050565b6000819050919050565b6105308161051d565b811461053b57600080fd5b50565b60008135905061054d81610527565b92915050565b600080fd5b600080fd5b600080fd5b60008083601f84011261057857610577610553565b5b8235905067ffffffffffffffff81111561059557610594610558565b5b6020830191508360018202830111156105b1576105b061055d565b5b9250929050565b60008060008060008060008060008060006101e08c8e0312156105de576105dd610251565b5b60006105ec8e828f01610296565b9b505060206105fd8e828f01610296565b9a5050604061060e8e828f016102c2565b995050606061061f8e828f016102f8565b98505060806106308e828f016102f8565b97505060a06106418e828f01610480565b9650506101606106538e828f01610508565b9550506101806106658e828f0161053e565b9450506101a06106778e828f0161053e565b9350506101c08c013567ffffffffffffffff81111561069957610698610256565b5b6106a58e828f01610562565b92509250509295989b509295989b9093969950565b600080604083850312156106d1576106d0610251565b5b60006106df858286016103b5565b92505060206106f085828601610296565b9150509250929050565b610703816102d7565b82525050565b600060208201905061071e60008301846106fa565b92915050565b600061072f826101f9565b9050919050565b61073f81610724565b82525050565b600060208201905061075a6000830184610736565b92915050565b6107698161025b565b82525050565b600061078a610785610780846101ad565b6101cd565b6102d7565b9050919050565b61079a8161076f565b82525050565b6107a9816104e4565b82525050565b6107b88161051d565b82525050565b600060e0820190506107d3600083018a610760565b6107e06020830189610760565b6107ed6040830188610791565b6107fa60608301876106fa565b61080760808301866107a0565b61081460a08301856107af565b61082160c08301846107af565b9897505050505050505056fea264697066735822122005a13909a5b502fa5c3d2ded5c2bd7019d59a9bb42df3502ff76050be4396aba64736f6c634300081c0033","opcodes":"PUSH1 0x80 PUSH1 0x40 MSTORE CALLVALUE DUP1 ISZERO PUSH1 0xF JUMPI PUSH1 0x0 DUP1 REVERT JUMPDEST POP PUSH2 0x863 DUP1 PUSH2 0x1F PUSH1 0x0 CODECOPY PUSH1 0x0 RETURN INVALID PUSH1 0x80 PUSH1 0x40 MSTORE CALLVALUE DUP1 ISZERO PUSH2 0x10 JUMPI PUSH1 0x0 DUP1 REVERT JUMPDEST POP PUSH1 0x4 CALLDATASIZE LT PUSH2 0x4C JUMPI PUSH1 0x0 CALLDATALOAD PUSH1 0xE0 SHR DUP1 PUSH4 0x6AFDD850 EQ PUSH2 0x51 JUMPI DUP1 PUSH4 0x6DFB83DA EQ PUSH2 0x6F JUMPI DUP1 PUSH4 0x8D00E14E EQ PUSH2 0x8B JUMPI DUP1 PUSH4 0xF6D7EADE EQ PUSH2 0xBB JUMPI JUMPDEST PUSH1 0x0 DUP1 REVERT JUMPDEST PUSH2 0x59 PUSH2 0xD9 JUMP JUMPDEST PUSH1 0x40 MLOAD PUSH2 0x66 SWAP2 SWAP1 PUSH2 0x22C JUMP JUMPDEST PUSH1 0x40 MLOAD DUP1 SWAP2 SUB SWAP1 RETURN JUMPDEST PUSH2 0x89 PUSH1 0x4 DUP1 CALLDATASIZE SUB DUP2 ADD SWAP1 PUSH2 0x84 SWAP2 SWAP1 PUSH2 0x5B8 JUMP JUMPDEST PUSH2 0xEC JUMP JUMPDEST STOP JUMPDEST PUSH2 0xA5 PUSH1 0x4 DUP1 CALLDATASIZE SUB DUP2 ADD SWAP1 PUSH2 0xA0 SWAP2 SWAP1 PUSH2 0x6BA JUMP JUMPDEST PUSH2 0x170 JUMP JUMPDEST PUSH1 0x40 MLOAD PUSH2 0xB2 SWAP2 SWAP1 PUSH2 0x709 JUMP JUMPDEST PUSH1 0x40 MLOAD DUP1 SWAP2 SUB SWAP1 RETURN JUMPDEST PUSH2 0xC3 PUSH2 0x195 JUMP JUMPDEST PUSH1 0x40 MLOAD PUSH2 0xD0 SWAP2 SWAP1 PUSH2 0x745 JUMP JUMPDEST PUSH1 0x40 MLOAD DUP1 SWAP2 SUB SWAP1 RETURN JUMPDEST PUSH15 0x22D473030F116DDEE9F6B43AC78BA3 DUP2 JUMP JUMPDEST DUP11 PUSH20 0xFFFFFFFFFFFFFFFFFFFFFFFFFFFFFFFFFFFFFFFF AND PUSH4 0xD505ACCF CALLER ADDRESS DUP13 DUP12 DUP11 DUP11 DUP11 PUSH1 0x40 MLOAD DUP9 PUSH4 0xFFFFFFFF AND PUSH1 0xE0 SHL DUP2 MSTORE PUSH1 0x4 ADD PUSH2 0x131 SWAP8 SWAP7 SWAP6 SWAP5 SWAP4 SWAP3 SWAP2 SWAP1 PUSH2 0x7BE JUMP JUMPDEST PUSH1 0x0 PUSH1 0x40 MLOAD DUP1 DUP4 SUB DUP2 PUSH1 0x0 DUP8 DUP1 EXTCODESIZE ISZERO DUP1 ISZERO PUSH2 0x14B JUMPI PUSH1 0x0 DUP1 REVERT JUMPDEST POP GAS CALL ISZERO DUP1 ISZERO PUSH2 0x15F JUMPI RETURNDATASIZE PUSH1 0x0 DUP1 RETURNDATACOPY RETURNDATASIZE PUSH1 0x0 REVERT JUMPDEST POP POP POP POP POP POP POP POP POP POP POP POP POP POP POP JUMP JUMPDEST PUSH1 0x0 PUSH1 0x20 MSTORE DUP2 PUSH1 0x0 MSTORE PUSH1 0x40 PUSH1 0x0 KECCAK256 PUSH1 0x20 MSTORE DUP1 PUSH1 0x0 MSTORE PUSH1 0x40 PUSH1 0x0 KECCAK256 PUSH1 0x0 SWAP2 POP SWAP2 POP POP SLOAD DUP2 JUMP JUMPDEST PUSH20 0xF164FC0EC4E93095B804A4795BBE1E041497B92A DUP2 JUMP JUMPDEST PUSH1 0x0 PUSH20 0xFFFFFFFFFFFFFFFFFFFFFFFFFFFFFFFFFFFFFFFF DUP3 AND SWAP1 POP SWAP2 SWAP1 POP JUMP JUMPDEST PUSH1 0x0 DUP2 SWAP1 POP SWAP2 SWAP1 POP JUMP JUMPDEST PUSH1 0x0 PUSH2 0x1F2 PUSH2 0x1ED PUSH2 0x1E8 DUP5 PUSH2 0x1AD JUMP JUMPDEST PUSH2 0x1CD JUMP JUMPDEST PUSH2 0x1AD JUMP JUMPDEST SWAP1 POP SWAP2 SWAP1 POP JUMP JUMPDEST PUSH1 0x0 PUSH2 0x204 DUP3 PUSH2 0x1D7 JUMP JUMPDEST SWAP1 POP SWAP2 SWAP1 POP JUMP JUMPDEST PUSH1 0x0 PUSH2 0x216 DUP3 PUSH2 0x1F9 JUMP JUMPDEST SWAP1 POP SWAP2 SWAP1 POP JUMP JUMPDEST PUSH2 0x226 DUP2 PUSH2 0x20B JUMP JUMPDEST DUP3 MSTORE POP POP JUMP JUMPDEST PUSH1 0x0 PUSH1 0x20 DUP3 ADD SWAP1 POP PUSH2 0x241 PUSH1 0x0 DUP4 ADD DUP5 PUSH2 0x21D JUMP JUMPDEST SWAP3 SWAP2 POP POP JUMP JUMPDEST PUSH1 0x0 PUSH1 0x40 MLOAD SWAP1 POP SWAP1 JUMP JUMPDEST PUSH1 0x0 DUP1 REVERT JUMPDEST PUSH1 0x0 DUP1 REVERT JUMPDEST PUSH1 0x0 PUSH2 0x266 DUP3 PUSH2 0x1AD JUMP JUMPDEST SWAP1 POP SWAP2 SWAP1 POP JUMP JUMPDEST PUSH1 0x0 PUSH2 0x278 DUP3 PUSH2 0x25B JUMP JUMPDEST SWAP1 POP SWAP2 SWAP1 POP JUMP JUMPDEST PUSH2 0x288 DUP2 PUSH2 0x26D JUMP JUMPDEST DUP2 EQ PUSH2 0x293 JUMPI PUSH1 0x0 DUP1 REVERT JUMPDEST POP JUMP JUMPDEST PUSH1 0x0 DUP2 CALLDATALOAD SWAP1 POP PUSH2 0x2A5 DUP2 PUSH2 0x27F JUMP JUMPDEST SWAP3 SWAP2 POP POP JUMP JUMPDEST PUSH2 0x2B4 DUP2 PUSH2 0x1AD JUMP JUMPDEST DUP2 EQ PUSH2 0x2BF JUMPI PUSH1 0x0 DUP1 REVERT JUMPDEST POP JUMP JUMPDEST PUSH1 0x0 DUP2 CALLDATALOAD SWAP1 POP PUSH2 0x2D1 DUP2 PUSH2 0x2AB JUMP JUMPDEST SWAP3 SWAP2 POP POP JUMP JUMPDEST PUSH1 0x0 DUP2 SWAP1 POP SWAP2 SWAP1 POP JUMP JUMPDEST PUSH2 0x2EA DUP2 PUSH2 0x2D7 JUMP JUMPDEST DUP2 EQ PUSH2 0x2F5 JUMPI PUSH1 0x0 DUP1 REVERT JUMPDEST POP JUMP JUMPDEST PUSH1 0x0 DUP2 CALLDATALOAD SWAP1 POP PUSH2 0x307 DUP2 PUSH2 0x2E1 JUMP JUMPDEST SWAP3 SWAP2 POP POP JUMP JUMPDEST PUSH1 0x0 DUP1 REVERT JUMPDEST PUSH1 0x0 PUSH1 0x1F NOT PUSH1 0x1F DUP4 ADD AND SWAP1 POP SWAP2 SWAP1 POP JUMP JUMPDEST PUSH32 0x4E487B7100000000000000000000000000000000000000000000000000000000 PUSH1 0x0 MSTORE PUSH1 0x41 PUSH1 0x4 MSTORE PUSH1 0x24 PUSH1 0x0 REVERT JUMPDEST PUSH2 0x35B DUP3 PUSH2 0x312 JUMP JUMPDEST DUP2 ADD DUP2 DUP2 LT PUSH8 0xFFFFFFFFFFFFFFFF DUP3 GT OR ISZERO PUSH2 0x37A JUMPI PUSH2 0x379 PUSH2 0x323 JUMP JUMPDEST JUMPDEST DUP1 PUSH1 0x40 MSTORE POP POP POP JUMP JUMPDEST PUSH1 0x0 PUSH2 0x38D PUSH2 0x247 JUMP JUMPDEST SWAP1 POP PUSH2 0x399 DUP3 DUP3 PUSH2 0x352 JUMP JUMPDEST SWAP2 SWAP1 POP JUMP JUMPDEST PUSH2 0x3A7 DUP2 PUSH2 0x25B JUMP JUMPDEST DUP2 EQ PUSH2 0x3B2 JUMPI PUSH1 0x0 DUP1 REVERT JUMPDEST POP JUMP JUMPDEST PUSH1 0x0 DUP2 CALLDATALOAD SWAP1 POP PUSH2 0x3C4 DUP2 PUSH2 0x39E JUMP JUMPDEST SWAP3 SWAP2 POP POP JUMP JUMPDEST PUSH1 0x0 PUSH6 0xFFFFFFFFFFFF DUP3 AND SWAP1 POP SWAP2 SWAP1 POP JUMP JUMPDEST PUSH2 0x3E5 DUP2 PUSH2 0x3CA JUMP JUMPDEST DUP2 EQ PUSH2 0x3F0 JUMPI PUSH1 0x0 DUP1 REVERT JUMPDEST POP JUMP JUMPDEST PUSH1 0x0 DUP2 CALLDATALOAD SWAP1 POP PUSH2 0x402 DUP2 PUSH2 0x3DC JUMP JUMPDEST SWAP3 SWAP2 POP POP JUMP JUMPDEST PUSH1 0x0 PUSH1 0x80 DUP3 DUP5 SUB SLT ISZERO PUSH2 0x41E JUMPI PUSH2 0x41D PUSH2 0x30D JUMP JUMPDEST JUMPDEST PUSH2 0x428 PUSH1 0x80 PUSH2 0x383 JUMP JUMPDEST SWAP1 POP PUSH1 0x0 PUSH2 0x438 DUP5 DUP3 DUP6 ADD PUSH2 0x3B5 JUMP JUMPDEST PUSH1 0x0 DUP4 ADD MSTORE POP PUSH1 0x20 PUSH2 0x44C DUP5 DUP3 DUP6 ADD PUSH2 0x2C2 JUMP JUMPDEST PUSH1 0x20 DUP4 ADD MSTORE POP PUSH1 0x40 PUSH2 0x460 DUP5 DUP3 DUP6 ADD PUSH2 0x3F3 JUMP JUMPDEST PUSH1 0x40 DUP4 ADD MSTORE POP PUSH1 0x60 PUSH2 0x474 DUP5 DUP3 DUP6 ADD PUSH2 0x3F3 JUMP JUMPDEST PUSH1 0x60 DUP4 ADD MSTORE POP SWAP3 SWAP2 POP POP JUMP JUMPDEST PUSH1 0x0 PUSH1 0xC0 DUP3 DUP5 SUB SLT ISZERO PUSH2 0x496 JUMPI PUSH2 0x495 PUSH2 0x30D JUMP JUMPDEST JUMPDEST PUSH2 0x4A0 PUSH1 0x60 PUSH2 0x383 JUMP JUMPDEST SWAP1 POP PUSH1 0x0 PUSH2 0x4B0 DUP5 DUP3 DUP6 ADD PUSH2 0x408 JUMP JUMPDEST PUSH1 0x0 DUP4 ADD MSTORE POP PUSH1 0x80 PUSH2 0x4C4 DUP5 DUP3 DUP6 ADD PUSH2 0x3B5 JUMP JUMPDEST PUSH1 0x20 DUP4 ADD MSTORE POP PUSH1 0xA0 PUSH2 0x4D8 DUP5 DUP3 DUP6 ADD PUSH2 0x2F8 JUMP JUMPDEST PUSH1 0x40 DUP4 ADD MSTORE POP SWAP3 SWAP2 POP POP JUMP JUMPDEST PUSH1 0x0 PUSH1 0xFF DUP3 AND SWAP1 POP SWAP2 SWAP1 POP JUMP JUMPDEST PUSH2 0x4FA DUP2 PUSH2 0x4E4 JUMP JUMPDEST DUP2 EQ PUSH2 0x505 JUMPI PUSH1 0x0 DUP1 REVERT JUMPDEST POP JUMP JUMPDEST PUSH1 0x0 DUP2 CALLDATALOAD SWAP1 POP PUSH2 0x517 DUP2 PUSH2 0x4F1 JUMP JUMPDEST SWAP3 SWAP2 POP POP JUMP JUMPDEST PUSH1 0x0 DUP2 SWAP1 POP SWAP2 SWAP1 POP JUMP JUMPDEST PUSH2 0x530 DUP2 PUSH2 0x51D JUMP JUMPDEST DUP2 EQ PUSH2 0x53B JUMPI PUSH1 0x0 DUP1 REVERT JUMPDEST POP JUMP JUMPDEST PUSH1 0x0 DUP2 CALLDATALOAD SWAP1 POP PUSH2 0x54D DUP2 PUSH2 0x527 JUMP JUMPDEST SWAP3 SWAP2 POP POP JUMP JUMPDEST PUSH1 0x0 DUP1 REVERT JUMPDEST PUSH1 0x0 DUP1 REVERT JUMPDEST PUSH1 0x0 DUP1 REVERT JUMPDEST PUSH1 0x0 DUP1 DUP4 PUSH1 0x1F DUP5 ADD SLT PUSH2 0x578 JUMPI PUSH2 0x577 PUSH2 0x553 JUMP JUMPDEST JUMPDEST DUP3 CALLDATALOAD SWAP1 POP PUSH8 0xFFFFFFFFFFFFFFFF DUP2 GT ISZERO PUSH2 0x595 JUMPI PUSH2 0x594 PUSH2 0x558 JUMP JUMPDEST JUMPDEST PUSH1 0x20 DUP4 ADD SWAP2 POP DUP4 PUSH1 0x1 DUP3 MUL DUP4 ADD GT ISZERO PUSH2 0x5B1 JUMPI PUSH2 0x5B0 PUSH2 0x55D JUMP JUMPDEST JUMPDEST SWAP3 POP SWAP3 SWAP1 POP JUMP JUMPDEST PUSH1 0x0 DUP1 PUSH1 0x0 DUP1 PUSH1 0x0 DUP1 PUSH1 0x0 DUP1 PUSH1 0x0 DUP1 PUSH1 0x0 PUSH2 0x1E0 DUP13 DUP15 SUB SLT ISZERO PUSH2 0x5DE JUMPI PUSH2 0x5DD PUSH2 0x251 JUMP JUMPDEST JUMPDEST PUSH1 0x0 PUSH2 0x5EC DUP15 DUP3 DUP16 ADD PUSH2 0x296 JUMP JUMPDEST SWAP12 POP POP PUSH1 0x20 PUSH2 0x5FD DUP15 DUP3 DUP16 ADD PUSH2 0x296 JUMP JUMPDEST SWAP11 POP POP PUSH1 0x40 PUSH2 0x60E DUP15 DUP3 DUP16 ADD PUSH2 0x2C2 JUMP JUMPDEST SWAP10 POP POP PUSH1 0x60 PUSH2 0x61F DUP15 DUP3 DUP16 ADD PUSH2 0x2F8 JUMP JUMPDEST SWAP9 POP POP PUSH1 0x80 PUSH2 0x630 DUP15 DUP3 DUP16 ADD PUSH2 0x2F8 JUMP JUMPDEST SWAP8 POP POP PUSH1 0xA0 PUSH2 0x641 DUP15 DUP3 DUP16 ADD PUSH2 0x480 JUMP JUMPDEST SWAP7 POP POP PUSH2 0x160 PUSH2 0x653 DUP15 DUP3 DUP16 ADD PUSH2 0x508 JUMP JUMPDEST SWAP6 POP POP PUSH2 0x180 PUSH2 0x665 DUP15 DUP3 DUP16 ADD PUSH2 0x53E JUMP JUMPDEST SWAP5 POP POP PUSH2 0x1A0 PUSH2 0x677 DUP15 DUP3 DUP16 ADD PUSH2 0x53E JUMP JUMPDEST SWAP4 POP POP PUSH2 0x1C0 DUP13 ADD CALLDATALOAD PUSH8 0xFFFFFFFFFFFFFFFF DUP2 GT ISZERO PUSH2 0x699 JUMPI PUSH2 0x698 PUSH2 0x256 JUMP JUMPDEST JUMPDEST PUSH2 0x6A5 DUP15 DUP3 DUP16 ADD PUSH2 0x562 JUMP JUMPDEST SWAP3 POP SWAP3 POP POP SWAP3 SWAP6 SWAP9 SWAP12 POP SWAP3 SWAP6 SWAP9 SWAP12 SWAP1 SWAP4 SWAP7 SWAP10 POP JUMP JUMPDEST PUSH1 0x0 DUP1 PUSH1 0x40 DUP4 DUP6 SUB SLT ISZERO PUSH2 0x6D1 JUMPI PUSH2 0x6D0 PUSH2 0x251 JUMP JUMPDEST JUMPDEST PUSH1 0x0 PUSH2 0x6DF DUP6 DUP3 DUP7 ADD PUSH2 0x3B5 JUMP JUMPDEST SWAP3 POP POP PUSH1 0x20 PUSH2 0x6F0 DUP6 DUP3 DUP7 ADD PUSH2 0x296 JUMP JUMPDEST SWAP2 POP POP SWAP3 POP SWAP3 SWAP1 POP JUMP JUMPDEST PUSH2 0x703 DUP2 PUSH2 0x2D7 JUMP JUMPDEST DUP3 MSTORE POP POP JUMP JUMPDEST PUSH1 0x0 PUSH1 0x20 DUP3 ADD SWAP1 POP PUSH2 0x71E PUSH1 0x0 DUP4 ADD DUP5 PUSH2 0x6FA JUMP JUMPDEST SWAP3 SWAP2 POP POP JUMP JUMPDEST PUSH1 0x0 PUSH2 0x72F DUP3 PUSH2 0x1F9 JUMP JUMPDEST SWAP1 POP SWAP2 SWAP1 POP JUMP JUMPDEST PUSH2 0x73F DUP2 PUSH2 0x724 JUMP JUMPDEST DUP3 MSTORE POP POP JUMP JUMPDEST PUSH1 0x0 PUSH1 0x20 DUP3 ADD SWAP1 POP PUSH2 0x75A PUSH1 0x0 DUP4 ADD DUP5 PUSH2 0x736 JUMP JUMPDEST SWAP3 SWAP2 POP POP JUMP JUMPDEST PUSH2 0x769 DUP2 PUSH2 0x25B JUMP JUMPDEST DUP3 MSTORE POP POP JUMP JUMPDEST PUSH1 0x0 PUSH2 0x78A PUSH2 0x785 PUSH2 0x780 DUP5 PUSH2 0x1AD JUMP JUMPDEST PUSH2 0x1CD JUMP JUMPDEST PUSH2 0x2D7 JUMP JUMPDEST SWAP1 POP SWAP2 SWAP1 POP JUMP JUMPDEST PUSH2 0x79A DUP2 PUSH2 0x76F JUMP JUMPDEST DUP3 MSTORE POP POP JUMP JUMPDEST PUSH2 0x7A9 DUP2 PUSH2 0x4E4 JUMP JUMPDEST DUP3 MSTORE POP POP JUMP JUMPDEST PUSH2 0x7B8 DUP2 PUSH2 0x51D JUMP JUMPDEST DUP3 MSTORE POP POP JUMP JUMPDEST PUSH1 0x0 PUSH1 0xE0 DUP3 ADD SWAP1 POP PUSH2 0x7D3 PUSH1 0x0 DUP4 ADD DUP11 PUSH2 0x760 JUMP JUMPDEST PUSH2 0x7E0 PUSH1 0x20 DUP4 ADD DUP10 PUSH2 0x760 JUMP JUMPDEST PUSH2 0x7ED PUSH1 0x40 DUP4 ADD DUP9 PUSH2 0x791 JUMP JUMPDEST PUSH2 0x7FA PUSH1 0x60 DUP4 ADD DUP8 PUSH2 0x6FA JUMP JUMPDEST PUSH2 0x807 PUSH1 0x80 DUP4 ADD DUP7 PUSH2 0x7A0 JUMP JUMPDEST PUSH2 0x814 PUSH1 0xA0 DUP4 ADD DUP6 PUSH2 0x7AF JUMP JUMPDEST PUSH2 0x821 PUSH1 0xC0 DUP4 ADD DUP5 PUSH2 0x7AF JUMP JUMPDEST SWAP9 SWAP8 POP POP POP POP POP POP POP POP JUMP INVALID LOG2 PUSH5 0x6970667358 0x22 SLT KECCAK256 SDIV LOG1 CODECOPY MULMOD 0xA5 0xB5 MUL STATICCALL TLOAD RETURNDATASIZE 0x2D 0xED TLOAD 0x2B 0xD7 ADD SWAP14 MSIZE 0xA9 0xBB TIMESTAMP 0xDF CALLDATALOAD MUL SELFDESTRUCT PUSH23 0x50BE4396ABA64736F6C634300081C0033000000000000 "},"methodIdentifiers":{"PERMIT2()":"6afdd850","Router()":"f6d7eade","permitAndSwap(address,address,uint160,uint256,uint256,((address,uint160,uint48,uint48),address,uint256),uint8,bytes32,bytes32,bytes)":"6dfb83da","tokenBalancesByUser(address,address)":"8d00e14e"}}}}}