{
  "contracts/ChakraRoleRegistry.sol": {
    "ChakraRoleRegistry": {
      "abi": [
        {
          "anonymous": false,
          "inputs": [
            {
              "indexed": true,
              "internalType": "address",
              "name": "tokenAddress",
              "type": "address"
            },
            {
              "indexed": true,
              "internalType": "address",
              "name": "operator",
              "type": "address"
            },
            {
              "indexed": true,
              "internalType": "address",
              "name": "owner",
              "type": "address"
            },
            {
              "indexed": false,
              "internalType": "bool",
              "name": "approved",
              "type": "bool"
            }
          ],
          "name": "RoleApprovalForAll",
          "type": "event"
        },
        {
          "anonymous": false,
          "inputs": [
            {
              "indexed": true,
              "internalType": "address",
              "name": "tokenAddress",
              "type": "address"
            },
            {
              "indexed": true,
              "internalType": "uint256",
              "name": "tokenId",
              "type": "uint256"
            },
            {
              "indexed": true,
              "internalType": "bytes32",
              "name": "roleId",
              "type": "bytes32"
            },
            {
              "indexed": false,
              "internalType": "address",
              "name": "grantor",
              "type": "address"
            },
            {
              "indexed": false,
              "internalType": "address",
              "name": "recipient",
              "type": "address"
            },
            {
              "indexed": false,
              "internalType": "uint64",
              "name": "expirationDate",
              "type": "uint64"
            },
            {
              "indexed": false,
              "internalType": "bool",
              "name": "revocable",
              "type": "bool"
            },
            {
              "indexed": false,
              "internalType": "bytes",
              "name": "data",
              "type": "bytes"
            }
          ],
          "name": "RoleGranted",
          "type": "event"
        },
        {
          "anonymous": false,
          "inputs": [
            {
              "indexed": true,
              "internalType": "address",
              "name": "tokenAddress",
              "type": "address"
            },
            {
              "indexed": true,
              "internalType": "uint256",
              "name": "tokenId",
              "type": "uint256"
            },
            {
              "indexed": true,
              "internalType": "bytes32",
              "name": "roleId",
              "type": "bytes32"
            }
          ],
          "name": "RoleRevoked",
          "type": "event"
        },
        {
          "inputs": [
            {
              "internalType": "address",
              "name": "tokenAddress",
              "type": "address"
            },
            {
              "internalType": "uint256",
              "name": "tokenId",
              "type": "uint256"
            },
            {
              "internalType": "bytes32",
              "name": "roleId",
              "type": "bytes32"
            },
            {
              "internalType": "address",
              "name": "recipient",
              "type": "address"
            },
            {
              "internalType": "uint64",
              "name": "expirationDate",
              "type": "uint64"
            },
            {
              "internalType": "bool",
              "name": "revocable",
              "type": "bool"
            },
            {
              "internalType": "bytes",
              "name": "data",
              "type": "bytes"
            }
          ],
          "name": "grantRole",
          "outputs": [],
          "stateMutability": "nonpayable",
          "type": "function"
        },
        {
          "inputs": [
            {
              "internalType": "address",
              "name": "tokenAddress",
              "type": "address"
            },
            {
              "internalType": "address",
              "name": "owner",
              "type": "address"
            },
            {
              "internalType": "address",
              "name": "operator",
              "type": "address"
            }
          ],
          "name": "isRoleApprovedForAll",
          "outputs": [
            {
              "internalType": "bool",
              "name": "",
              "type": "bool"
            }
          ],
          "stateMutability": "view",
          "type": "function"
        },
        {
          "inputs": [
            {
              "internalType": "address",
              "name": "tokenAddress",
              "type": "address"
            },
            {
              "internalType": "uint256",
              "name": "tokenId",
              "type": "uint256"
            },
            {
              "internalType": "bytes32",
              "name": "roleId",
              "type": "bytes32"
            }
          ],
          "name": "isRoleRevocable",
          "outputs": [
            {
              "internalType": "bool",
              "name": "",
              "type": "bool"
            }
          ],
          "stateMutability": "view",
          "type": "function"
        },
        {
          "inputs": [
            {
              "internalType": "address",
              "name": "tokenAddress",
              "type": "address"
            },
            {
              "internalType": "uint256",
              "name": "tokenId",
              "type": "uint256"
            }
          ],
          "name": "ownerOf",
          "outputs": [
            {
              "internalType": "address",
              "name": "",
              "type": "address"
            }
          ],
          "stateMutability": "view",
          "type": "function"
        },
        {
          "inputs": [
            {
              "internalType": "address",
              "name": "tokenAddress",
              "type": "address"
            },
            {
              "internalType": "uint256",
              "name": "tokenId",
              "type": "uint256"
            },
            {
              "internalType": "bytes32",
              "name": "roleId",
              "type": "bytes32"
            }
          ],
          "name": "recipientOf",
          "outputs": [
            {
              "internalType": "address",
              "name": "",
              "type": "address"
            }
          ],
          "stateMutability": "view",
          "type": "function"
        },
        {
          "inputs": [
            {
              "internalType": "address",
              "name": "tokenAddress",
              "type": "address"
            },
            {
              "internalType": "uint256",
              "name": "tokenId",
              "type": "uint256"
            },
            {
              "internalType": "bytes32",
              "name": "roleId",
              "type": "bytes32"
            }
          ],
          "name": "revokeRole",
          "outputs": [],
          "stateMutability": "nonpayable",
          "type": "function"
        },
        {
          "inputs": [
            {
              "internalType": "address",
              "name": "tokenAddress",
              "type": "address"
            },
            {
              "internalType": "uint256",
              "name": "tokenId",
              "type": "uint256"
            },
            {
              "internalType": "bytes32",
              "name": "roleId",
              "type": "bytes32"
            }
          ],
          "name": "roleData",
          "outputs": [
            {
              "internalType": "bytes",
              "name": "",
              "type": "bytes"
            }
          ],
          "stateMutability": "view",
          "type": "function"
        },
        {
          "inputs": [
            {
              "internalType": "address",
              "name": "tokenAddress",
              "type": "address"
            },
            {
              "internalType": "uint256",
              "name": "tokenId",
              "type": "uint256"
            },
            {
              "internalType": "bytes32",
              "name": "roleId",
              "type": "bytes32"
            }
          ],
          "name": "roleExpirationDate",
          "outputs": [
            {
              "internalType": "uint64",
              "name": "",
              "type": "uint64"
            }
          ],
          "stateMutability": "view",
          "type": "function"
        },
        {
          "inputs": [
            {
              "internalType": "address",
              "name": "tokenAddress",
              "type": "address"
            },
            {
              "internalType": "address",
              "name": "operator",
              "type": "address"
            },
            {
              "internalType": "bool",
              "name": "approved",
              "type": "bool"
            }
          ],
          "name": "setRoleApprovalForAll",
          "outputs": [],
          "stateMutability": "nonpayable",
          "type": "function"
        }
      ],
      "evm": {
        "bytecode": {
          "linkReferences": {},
          "object": "6080604052348015600f57600080fd5b50611fce8061001f6000396000f3fe608060405234801561001057600080fd5b50600436106100935760003560e01c80636d2feecf116100665780636d2feecf14610144578063a1df063714610174578063a34adf0a14610190578063d5ced376146101ac578063fe8dc863146101dc57610093565b80630adc11c0146100985780631f29d2dc146100b45780633f916b48146100e457806365b0205b14610114575b600080fd5b6100b260048036038101906100ad919061152c565b61020c565b005b6100ce60048036038101906100c9919061157f565b6106a4565b6040516100db91906115ce565b60405180910390f35b6100fe60048036038101906100f9919061152c565b610728565b60405161010b91906115ce565b60405180910390f35b61012e6004803603810190610129919061152c565b61098f565b60405161013b919061160c565b60405180910390f35b61015e6004803603810190610159919061152c565b610a12565b60405161016b91906116b7565b60405180910390f35b61018e600480360381019061018991906117a2565b610c88565b005b6101aa60048036038101906101a59190611864565b61115b565b005b6101c660048036038101906101c191906118b7565b6112ad565b6040516101d39190611919565b60405180910390f35b6101f660048036038101906101f1919061152c565b61137f565b6040516102039190611919565b60405180910390f35b60008060008573ffffffffffffffffffffffffffffffffffffffff1673ffffffffffffffffffffffffffffffffffffffff168152602001908152602001600020600084815260200190815260200160002060008381526020019081526020016000209050600073ffffffffffffffffffffffffffffffffffffffff168160010160009054906101000a900473ffffffffffffffffffffffffffffffffffffffff1673ffffffffffffffffffffffffffffffffffffffff1603610303576040517f08c379a00000000000000000000000000000000000000000000000000000000081526004016102fa90611991565b60405180910390fd5b80600101601c9054906101000a900460ff16610354576040517f08c379a000000000000000000000000000000000000000000000000000000000815260040161034b906119fd565b60405180910390fd5b60008473ffffffffffffffffffffffffffffffffffffffff16636352211e856040518263ffffffff1660e01b815260040161038f9190611a2c565b602060405180830381865afa1580156103ac573d6000803e3d6000fd5b505050506040513d601f19601f820116820180604052508101906103d09190611a5c565b90508073ffffffffffffffffffffffffffffffffffffffff163373ffffffffffffffffffffffffffffffffffffffff16148061045b57508160000160009054906101000a900473ffffffffffffffffffffffffffffffffffffffff1673ffffffffffffffffffffffffffffffffffffffff163373ffffffffffffffffffffffffffffffffffffffff16145b806105295750600160008673ffffffffffffffffffffffffffffffffffffffff1673ffffffffffffffffffffffffffffffffffffffff16815260200190815260200160002060008273ffffffffffffffffffffffffffffffffffffffff1673ffffffffffffffffffffffffffffffffffffffff16815260200190815260200160002060003373ffffffffffffffffffffffffffffffffffffffff1673ffffffffffffffffffffffffffffffffffffffff16815260200190815260200160002060009054906101000a900460ff165b610568576040517f08c379a000000000000000000000000000000000000000000000000000000000815260040161055f90611ad5565b60405180910390fd5b6000808673ffffffffffffffffffffffffffffffffffffffff1673ffffffffffffffffffffffffffffffffffffffff16815260200190815260200160002060008581526020019081526020016000206000848152602001908152602001600020600080820160006101000a81549073ffffffffffffffffffffffffffffffffffffffff02191690556001820160006101000a81549073ffffffffffffffffffffffffffffffffffffffff02191690556001820160146101000a81549067ffffffffffffffff021916905560018201601c6101000a81549060ff021916905560028201600061065691906113fb565b505082848673ffffffffffffffffffffffffffffffffffffffff167fcfe1e8ce2ffe3e32a117cfb36d1fa8af703998cae381df7f35a8bb94a351a82d60405160405180910390a45050505050565b60008273ffffffffffffffffffffffffffffffffffffffff16636352211e836040518263ffffffff1660e01b81526004016106df9190611a2c565b602060405180830381865afa1580156106fc573d6000803e3d6000fd5b505050506040513d601f19601f820116820180604052508101906107209190611a5c565b905092915050565b6000806000808673ffffffffffffffffffffffffffffffffffffffff1673ffffffffffffffffffffffffffffffffffffffff168152602001908152602001600020600085815260200190815260200160002060008481526020019081526020016000206040518060a00160405290816000820160009054906101000a900473ffffffffffffffffffffffffffffffffffffffff1673ffffffffffffffffffffffffffffffffffffffff1673ffffffffffffffffffffffffffffffffffffffff1681526020016001820160009054906101000a900473ffffffffffffffffffffffffffffffffffffffff1673ffffffffffffffffffffffffffffffffffffffff1673ffffffffffffffffffffffffffffffffffffffff1681526020016001820160149054906101000a900467ffffffffffffffff1667ffffffffffffffff1667ffffffffffffffff16815260200160018201601c9054906101000a900460ff1615151515815260200160028201805461089f90611b24565b80601f01602080910402602001604051908101604052809291908181526020018280546108cb90611b24565b80156109185780601f106108ed57610100808354040283529160200191610918565b820191906000526020600020905b8154815290600101906020018083116108fb57829003601f168201915b5050505050815250509050600073ffffffffffffffffffffffffffffffffffffffff16816020015173ffffffffffffffffffffffffffffffffffffffff161480610970575042816040015167ffffffffffffffff1611155b1561097f576000915050610988565b80602001519150505b9392505050565b60008060008573ffffffffffffffffffffffffffffffffffffffff1673ffffffffffffffffffffffffffffffffffffffff1681526020019081526020016000206000848152602001908152602001600020600083815260200190815260200160002060010160149054906101000a900467ffffffffffffffff1690509392505050565b606060008060008673ffffffffffffffffffffffffffffffffffffffff1673ffffffffffffffffffffffffffffffffffffffff168152602001908152602001600020600085815260200190815260200160002060008481526020019081526020016000206040518060a00160405290816000820160009054906101000a900473ffffffffffffffffffffffffffffffffffffffff1673ffffffffffffffffffffffffffffffffffffffff1673ffffffffffffffffffffffffffffffffffffffff1681526020016001820160009054906101000a900473ffffffffffffffffffffffffffffffffffffffff1673ffffffffffffffffffffffffffffffffffffffff1673ffffffffffffffffffffffffffffffffffffffff1681526020016001820160149054906101000a900467ffffffffffffffff1667ffffffffffffffff1667ffffffffffffffff16815260200160018201601c9054906101000a900460ff16151515158152602001600282018054610b8a90611b24565b80601f0160208091040260200160405190810160405280929190818152602001828054610bb690611b24565b8015610c035780601f10610bd857610100808354040283529160200191610c03565b820191906000526020600020905b815481529060010190602001808311610be657829003601f168201915b5050505050815250509050600073ffffffffffffffffffffffffffffffffffffffff16816020015173ffffffffffffffffffffffffffffffffffffffff161480610c5b575042816040015167ffffffffffffffff1611155b15610c785760405180602001604052806000815250915050610c81565b80608001519150505b9392505050565b428467ffffffffffffffff1611610cd4576040517f08c379a0000000000000000000000000000000000000000000000000000000008152600401610ccb90611bc7565b60405180910390fd5b600073ffffffffffffffffffffffffffffffffffffffff168573ffffffffffffffffffffffffffffffffffffffff1603610d43576040517f08c379a0000000000000000000000000000000000000000000000000000000008152600401610d3a90611c33565b60405180910390fd5b60008873ffffffffffffffffffffffffffffffffffffffff16636352211e896040518263ffffffff1660e01b8152600401610d7e9190611a2c565b602060405180830381865afa158015610d9b573d6000803e3d6000fd5b505050506040513d601f19601f82011682018060405250810190610dbf9190611a5c565b90508073ffffffffffffffffffffffffffffffffffffffff163373ffffffffffffffffffffffffffffffffffffffff161480610ebe5750600160008a73ffffffffffffffffffffffffffffffffffffffff1673ffffffffffffffffffffffffffffffffffffffff16815260200190815260200160002060008273ffffffffffffffffffffffffffffffffffffffff1673ffffffffffffffffffffffffffffffffffffffff16815260200190815260200160002060003373ffffffffffffffffffffffffffffffffffffffff1673ffffffffffffffffffffffffffffffffffffffff16815260200190815260200160002060009054906101000a900460ff165b610efd576040517f08c379a0000000000000000000000000000000000000000000000000000000008152600401610ef490611ad5565b60405180910390fd5b6040518060a001604052803373ffffffffffffffffffffffffffffffffffffffff1681526020018773ffffffffffffffffffffffffffffffffffffffff1681526020018667ffffffffffffffff168152602001851515815260200184848080601f016020809104026020016040519081016040528093929190818152602001838380828437600081840152601f19601f820116905080830192505050505050508152506000808b73ffffffffffffffffffffffffffffffffffffffff1673ffffffffffffffffffffffffffffffffffffffff16815260200190815260200160002060008a8152602001908152602001600020600089815260200190815260200160002060008201518160000160006101000a81548173ffffffffffffffffffffffffffffffffffffffff021916908373ffffffffffffffffffffffffffffffffffffffff16021790555060208201518160010160006101000a81548173ffffffffffffffffffffffffffffffffffffffff021916908373ffffffffffffffffffffffffffffffffffffffff16021790555060408201518160010160146101000a81548167ffffffffffffffff021916908367ffffffffffffffff160217905550606082015181600101601c6101000a81548160ff02191690831515021790555060808201518160020190816110f29190611e2e565b5090505086888a73ffffffffffffffffffffffffffffffffffffffff167f9f743023185efab1abaf28721c6d4ab3ecc515f75a871c8299a3c9a532857287338a8a8a8a8a60405161114896959493929190611f3c565b60405180910390a4505050505050505050565b80600160008573ffffffffffffffffffffffffffffffffffffffff1673ffffffffffffffffffffffffffffffffffffffff16815260200190815260200160002060003373ffffffffffffffffffffffffffffffffffffffff1673ffffffffffffffffffffffffffffffffffffffff16815260200190815260200160002060008473ffffffffffffffffffffffffffffffffffffffff1673ffffffffffffffffffffffffffffffffffffffff16815260200190815260200160002060006101000a81548160ff0219169083151502179055508173ffffffffffffffffffffffffffffffffffffffff163373ffffffffffffffffffffffffffffffffffffffff168473ffffffffffffffffffffffffffffffffffffffff167f1b6828c670e10fc761f4bf28e82b83df698ae93baf64975365fa83c17e8c9c3f846040516112a09190611919565b60405180910390a4505050565b6000600160008573ffffffffffffffffffffffffffffffffffffffff1673ffffffffffffffffffffffffffffffffffffffff16815260200190815260200160002060008473ffffffffffffffffffffffffffffffffffffffff1673ffffffffffffffffffffffffffffffffffffffff16815260200190815260200160002060008373ffffffffffffffffffffffffffffffffffffffff1673ffffffffffffffffffffffffffffffffffffffff16815260200190815260200160002060009054906101000a900460ff1690509392505050565b60008060008573ffffffffffffffffffffffffffffffffffffffff1673ffffffffffffffffffffffffffffffffffffffff16815260200190815260200160002060008481526020019081526020016000206000838152602001908152602001600020600101601c9054906101000a900460ff1690509392505050565b50805461140790611b24565b6000825580601f106114195750611438565b601f016020900490600052602060002090810190611437919061143b565b5b50565b5b8082111561145457600081600090555060010161143c565b5090565b600080fd5b600080fd5b600073ffffffffffffffffffffffffffffffffffffffff82169050919050565b600061148d82611462565b9050919050565b61149d81611482565b81146114a857600080fd5b50565b6000813590506114ba81611494565b92915050565b6000819050919050565b6114d3816114c0565b81146114de57600080fd5b50565b6000813590506114f0816114ca565b92915050565b6000819050919050565b611509816114f6565b811461151457600080fd5b50565b60008135905061152681611500565b92915050565b60008060006060848603121561154557611544611458565b5b6000611553868287016114ab565b9350506020611564868287016114e1565b925050604061157586828701611517565b9150509250925092565b6000806040838503121561159657611595611458565b5b60006115a4858286016114ab565b92505060206115b5858286016114e1565b9150509250929050565b6115c881611482565b82525050565b60006020820190506115e360008301846115bf565b92915050565b600067ffffffffffffffff82169050919050565b611606816115e9565b82525050565b600060208201905061162160008301846115fd565b92915050565b600081519050919050565b600082825260208201905092915050565b60005b83811015611661578082015181840152602081019050611646565b60008484015250505050565b6000601f19601f8301169050919050565b600061168982611627565b6116938185611632565b93506116a3818560208601611643565b6116ac8161166d565b840191505092915050565b600060208201905081810360008301526116d1818461167e565b905092915050565b6116e2816115e9565b81146116ed57600080fd5b50565b6000813590506116ff816116d9565b92915050565b60008115159050919050565b61171a81611705565b811461172557600080fd5b50565b60008135905061173781611711565b92915050565b600080fd5b600080fd5b600080fd5b60008083601f8401126117625761176161173d565b5b8235905067ffffffffffffffff81111561177f5761177e611742565b5b60208301915083600182028301111561179b5761179a611747565b5b9250929050565b60008060008060008060008060e0898b0312156117c2576117c1611458565b5b60006117d08b828c016114ab565b98505060206117e18b828c016114e1565b97505060406117f28b828c01611517565b96505060606118038b828c016114ab565b95505060806118148b828c016116f0565b94505060a06118258b828c01611728565b93505060c089013567ffffffffffffffff8111156118465761184561145d565b5b6118528b828c0161174c565b92509250509295985092959890939650565b60008060006060848603121561187d5761187c611458565b5b600061188b868287016114ab565b935050602061189c868287016114ab565b92505060406118ad86828701611728565b9150509250925092565b6000806000606084860312156118d0576118cf611458565b5b60006118de868287016114ab565b93505060206118ef868287016114ab565b9250506040611900868287016114ab565b9150509250925092565b61191381611705565b82525050565b600060208201905061192e600083018461190a565b92915050565b600082825260208201905092915050565b7f526f6c65206e6f742061737369676e6564000000000000000000000000000000600082015250565b600061197b601183611934565b915061198682611945565b602082019050919050565b600060208201905081810360008301526119aa8161196e565b9050919050565b7f526f6c65206973206e6f74207265766f6361626c650000000000000000000000600082015250565b60006119e7601583611934565b91506119f2826119b1565b602082019050919050565b60006020820190508181036000830152611a16816119da565b9050919050565b611a26816114c0565b82525050565b6000602082019050611a416000830184611a1d565b92915050565b600081519050611a5681611494565b92915050565b600060208284031215611a7257611a71611458565b5b6000611a8084828501611a47565b91505092915050565b7f43616c6c6572206e6f7420617574686f72697a65640000000000000000000000600082015250565b6000611abf601583611934565b9150611aca82611a89565b602082019050919050565b60006020820190508181036000830152611aee81611ab2565b9050919050565b7f4e487b7100000000000000000000000000000000000000000000000000000000600052602260045260246000fd5b60006002820490506001821680611b3c57607f821691505b602082108103611b4f57611b4e611af5565b5b50919050565b7f45787069726174696f6e2064617465206d75737420626520696e20746865206660008201527f7574757265000000000000000000000000000000000000000000000000000000602082015250565b6000611bb1602583611934565b9150611bbc82611b55565b604082019050919050565b60006020820190508181036000830152611be081611ba4565b9050919050565b7f526563697069656e742063616e6e6f74206265207a65726f2061646472657373600082015250565b6000611c1d602083611934565b9150611c2882611be7565b602082019050919050565b60006020820190508181036000830152611c4c81611c10565b9050919050565b7f4e487b7100000000000000000000000000000000000000000000000000000000600052604160045260246000fd5b60008190508160005260206000209050919050565b60006020601f8301049050919050565b600082821b905092915050565b600060088302611ce47fffffffffffffffffffffffffffffffffffffffffffffffffffffffffffffffff82611ca7565b611cee8683611ca7565b95508019841693508086168417925050509392505050565b6000819050919050565b6000611d2b611d26611d21846114c0565b611d06565b6114c0565b9050919050565b6000819050919050565b611d4583611d10565b611d59611d5182611d32565b848454611cb4565b825550505050565b600090565b611d6e611d61565b611d79818484611d3c565b505050565b5b81811015611d9d57611d92600082611d66565b600181019050611d7f565b5050565b601f821115611de257611db381611c82565b611dbc84611c97565b81016020851015611dcb578190505b611ddf611dd785611c97565b830182611d7e565b50505b505050565b600082821c905092915050565b6000611e0560001984600802611de7565b1980831691505092915050565b6000611e1e8383611df4565b9150826002028217905092915050565b611e3782611627565b67ffffffffffffffff811115611e5057611e4f611c53565b5b611e5a8254611b24565b611e65828285611da1565b600060209050601f831160018114611e985760008415611e86578287015190505b611e908582611e12565b865550611ef8565b601f198416611ea686611c82565b60005b82811015611ece57848901518255600182019150602085019450602081019050611ea9565b86831015611eeb5784890151611ee7601f891682611df4565b8355505b6001600288020188555050505b505050505050565b82818337600083830152505050565b6000611f1b8385611632565b9350611f28838584611f00565b611f318361166d565b840190509392505050565b600060a082019050611f5160008301896115bf565b611f5e60208301886115bf565b611f6b60408301876115fd565b611f78606083018661190a565b8181036080830152611f8b818486611f0f565b905097965050505050505056fea2646970667358221220f90d73db5ae4790862c0c984d183983d50c4c4be683c30f539544421bace98f464736f6c634300081c0033",
          "opcodes": "PUSH1 0x80 PUSH1 0x40 MSTORE CALLVALUE DUP1 ISZERO PUSH1 0xF JUMPI PUSH1 0x0 DUP1 REVERT JUMPDEST POP PUSH2 0x1FCE DUP1 PUSH2 0x1F PUSH1 0x0 CODECOPY PUSH1 0x0 RETURN INVALID PUSH1 0x80 PUSH1 0x40 MSTORE CALLVALUE DUP1 ISZERO PUSH2 0x10 JUMPI PUSH1 0x0 DUP1 REVERT JUMPDEST POP PUSH1 0x4 CALLDATASIZE LT PUSH2 0x93 JUMPI PUSH1 0x0 CALLDATALOAD PUSH1 0xE0 SHR DUP1 PUSH4 0x6D2FEECF GT PUSH2 0x66 JUMPI DUP1 PUSH4 0x6D2FEECF EQ PUSH2 0x144 JUMPI DUP1 PUSH4 0xA1DF0637 EQ PUSH2 0x174 JUMPI DUP1 PUSH4 0xA34ADF0A EQ PUSH2 0x190 JUMPI DUP1 PUSH4 0xD5CED376 EQ PUSH2 0x1AC JUMPI DUP1 PUSH4 0xFE8DC863 EQ PUSH2 0x1DC JUMPI PUSH2 0x93 JUMP JUMPDEST DUP1 PUSH4 0xADC11C0 EQ PUSH2 0x98 JUMPI DUP1 PUSH4 0x1F29D2DC EQ PUSH2 0xB4 JUMPI DUP1 PUSH4 0x3F916B48 EQ PUSH2 0xE4 JUMPI DUP1 PUSH4 0x65B0205B EQ PUSH2 0x114 JUMPI JUMPDEST PUSH1 0x0 DUP1 REVERT JUMPDEST PUSH2 0xB2 PUSH1 0x4 DUP1 CALLDATASIZE SUB DUP2 ADD SWAP1 PUSH2 0xAD SWAP2 SWAP1 PUSH2 0x152C JUMP JUMPDEST PUSH2 0x20C JUMP JUMPDEST STOP JUMPDEST PUSH2 0xCE PUSH1 0x4 DUP1 CALLDATASIZE SUB DUP2 ADD SWAP1 PUSH2 0xC9 SWAP2 SWAP1 PUSH2 0x157F JUMP JUMPDEST PUSH2 0x6A4 JUMP JUMPDEST PUSH1 0x40 MLOAD PUSH2 0xDB SWAP2 SWAP1 PUSH2 0x15CE JUMP JUMPDEST PUSH1 0x40 MLOAD DUP1 SWAP2 SUB SWAP1 RETURN JUMPDEST PUSH2 0xFE PUSH1 0x4 DUP1 CALLDATASIZE SUB DUP2 ADD SWAP1 PUSH2 0xF9 SWAP2 SWAP1 PUSH2 0x152C JUMP JUMPDEST PUSH2 0x728 JUMP JUMPDEST PUSH1 0x40 MLOAD PUSH2 0x10B SWAP2 SWAP1 PUSH2 0x15CE JUMP JUMPDEST PUSH1 0x40 MLOAD DUP1 SWAP2 SUB SWAP1 RETURN JUMPDEST PUSH2 0x12E PUSH1 0x4 DUP1 CALLDATASIZE SUB DUP2 ADD SWAP1 PUSH2 0x129 SWAP2 SWAP1 PUSH2 0x152C JUMP JUMPDEST PUSH2 0x98F JUMP JUMPDEST PUSH1 0x40 MLOAD PUSH2 0x13B SWAP2 SWAP1 PUSH2 0x160C JUMP JUMPDEST PUSH1 0x40 MLOAD DUP1 SWAP2 SUB SWAP1 RETURN JUMPDEST PUSH2 0x15E PUSH1 0x4 DUP1 CALLDATASIZE SUB DUP2 ADD SWAP1 PUSH2 0x159 SWAP2 SWAP1 PUSH2 0x152C JUMP JUMPDEST PUSH2 0xA12 JUMP JUMPDEST PUSH1 0x40 MLOAD PUSH2 0x16B SWAP2 SWAP1 PUSH2 0x16B7 JUMP JUMPDEST PUSH1 0x40 MLOAD DUP1 SWAP2 SUB SWAP1 RETURN JUMPDEST PUSH2 0x18E PUSH1 0x4 DUP1 CALLDATASIZE SUB DUP2 ADD SWAP1 PUSH2 0x189 SWAP2 SWAP1 PUSH2 0x17A2 JUMP JUMPDEST PUSH2 0xC88 JUMP JUMPDEST STOP JUMPDEST PUSH2 0x1AA PUSH1 0x4 DUP1 CALLDATASIZE SUB DUP2 ADD SWAP1 PUSH2 0x1A5 SWAP2 SWAP1 PUSH2 0x1864 JUMP JUMPDEST PUSH2 0x115B JUMP JUMPDEST STOP JUMPDEST PUSH2 0x1C6 PUSH1 0x4 DUP1 CALLDATASIZE SUB DUP2 ADD SWAP1 PUSH2 0x1C1 SWAP2 SWAP1 PUSH2 0x18B7 JUMP JUMPDEST PUSH2 0x12AD JUMP JUMPDEST PUSH1 0x40 MLOAD PUSH2 0x1D3 SWAP2 SWAP1 PUSH2 0x1919 JUMP JUMPDEST PUSH1 0x40 MLOAD DUP1 SWAP2 SUB SWAP1 RETURN JUMPDEST PUSH2 0x1F6 PUSH1 0x4 DUP1 CALLDATASIZE SUB DUP2 ADD SWAP1 PUSH2 0x1F1 SWAP2 SWAP1 PUSH2 0x152C JUMP JUMPDEST PUSH2 0x137F JUMP JUMPDEST PUSH1 0x40 MLOAD PUSH2 0x203 SWAP2 SWAP1 PUSH2 0x1919 JUMP JUMPDEST PUSH1 0x40 MLOAD DUP1 SWAP2 SUB SWAP1 RETURN JUMPDEST PUSH1 0x0 DUP1 PUSH1 0x0 DUP6 PUSH20 0xFFFFFFFFFFFFFFFFFFFFFFFFFFFFFFFFFFFFFFFF AND PUSH20 0xFFFFFFFFFFFFFFFFFFFFFFFFFFFFFFFFFFFFFFFF AND DUP2 MSTORE PUSH1 0x20 ADD SWAP1 DUP2 MSTORE PUSH1 0x20 ADD PUSH1 0x0 KECCAK256 PUSH1 0x0 DUP5 DUP2 MSTORE PUSH1 0x20 ADD SWAP1 DUP2 MSTORE PUSH1 0x20 ADD PUSH1 0x0 KECCAK256 PUSH1 0x0 DUP4 DUP2 MSTORE PUSH1 0x20 ADD SWAP1 DUP2 MSTORE PUSH1 0x20 ADD PUSH1 0x0 KECCAK256 SWAP1 POP PUSH1 0x0 PUSH20 0xFFFFFFFFFFFFFFFFFFFFFFFFFFFFFFFFFFFFFFFF AND DUP2 PUSH1 0x1 ADD PUSH1 0x0 SWAP1 SLOAD SWAP1 PUSH2 0x100 EXP SWAP1 DIV PUSH20 0xFFFFFFFFFFFFFFFFFFFFFFFFFFFFFFFFFFFFFFFF AND PUSH20 0xFFFFFFFFFFFFFFFFFFFFFFFFFFFFFFFFFFFFFFFF AND SUB PUSH2 0x303 JUMPI PUSH1 0x40 MLOAD PUSH32 0x8C379A000000000000000000000000000000000000000000000000000000000 DUP2 MSTORE PUSH1 0x4 ADD PUSH2 0x2FA SWAP1 PUSH2 0x1991 JUMP JUMPDEST PUSH1 0x40 MLOAD DUP1 SWAP2 SUB SWAP1 REVERT JUMPDEST DUP1 PUSH1 0x1 ADD PUSH1 0x1C SWAP1 SLOAD SWAP1 PUSH2 0x100 EXP SWAP1 DIV PUSH1 0xFF AND PUSH2 0x354 JUMPI PUSH1 0x40 MLOAD PUSH32 0x8C379A000000000000000000000000000000000000000000000000000000000 DUP2 MSTORE PUSH1 0x4 ADD PUSH2 0x34B SWAP1 PUSH2 0x19FD JUMP JUMPDEST PUSH1 0x40 MLOAD DUP1 SWAP2 SUB SWAP1 REVERT JUMPDEST PUSH1 0x0 DUP5 PUSH20 0xFFFFFFFFFFFFFFFFFFFFFFFFFFFFFFFFFFFFFFFF AND PUSH4 0x6352211E DUP6 PUSH1 0x40 MLOAD DUP3 PUSH4 0xFFFFFFFF AND PUSH1 0xE0 SHL DUP2 MSTORE PUSH1 0x4 ADD PUSH2 0x38F SWAP2 SWAP1 PUSH2 0x1A2C JUMP JUMPDEST PUSH1 0x20 PUSH1 0x40 MLOAD DUP1 DUP4 SUB DUP2 DUP7 GAS STATICCALL ISZERO DUP1 ISZERO PUSH2 0x3AC JUMPI RETURNDATASIZE PUSH1 0x0 DUP1 RETURNDATACOPY RETURNDATASIZE PUSH1 0x0 REVERT JUMPDEST POP POP POP POP PUSH1 0x40 MLOAD RETURNDATASIZE PUSH1 0x1F NOT PUSH1 0x1F DUP3 ADD AND DUP3 ADD DUP1 PUSH1 0x40 MSTORE POP DUP2 ADD SWAP1 PUSH2 0x3D0 SWAP2 SWAP1 PUSH2 0x1A5C JUMP JUMPDEST SWAP1 POP DUP1 PUSH20 0xFFFFFFFFFFFFFFFFFFFFFFFFFFFFFFFFFFFFFFFF AND CALLER PUSH20 0xFFFFFFFFFFFFFFFFFFFFFFFFFFFFFFFFFFFFFFFF AND EQ DUP1 PUSH2 0x45B JUMPI POP DUP2 PUSH1 0x0 ADD PUSH1 0x0 SWAP1 SLOAD SWAP1 PUSH2 0x100 EXP SWAP1 DIV PUSH20 0xFFFFFFFFFFFFFFFFFFFFFFFFFFFFFFFFFFFFFFFF AND PUSH20 0xFFFFFFFFFFFFFFFFFFFFFFFFFFFFFFFFFFFFFFFF AND CALLER PUSH20 0xFFFFFFFFFFFFFFFFFFFFFFFFFFFFFFFFFFFFFFFF AND EQ JUMPDEST DUP1 PUSH2 0x529 JUMPI POP PUSH1 0x1 PUSH1 0x0 DUP7 PUSH20 0xFFFFFFFFFFFFFFFFFFFFFFFFFFFFFFFFFFFFFFFF AND PUSH20 0xFFFFFFFFFFFFFFFFFFFFFFFFFFFFFFFFFFFFFFFF AND DUP2 MSTORE PUSH1 0x20 ADD SWAP1 DUP2 MSTORE PUSH1 0x20 ADD PUSH1 0x0 KECCAK256 PUSH1 0x0 DUP3 PUSH20 0xFFFFFFFFFFFFFFFFFFFFFFFFFFFFFFFFFFFFFFFF AND PUSH20 0xFFFFFFFFFFFFFFFFFFFFFFFFFFFFFFFFFFFFFFFF AND DUP2 MSTORE PUSH1 0x20 ADD SWAP1 DUP2 MSTORE PUSH1 0x20 ADD PUSH1 0x0 KECCAK256 PUSH1 0x0 CALLER PUSH20 0xFFFFFFFFFFFFFFFFFFFFFFFFFFFFFFFFFFFFFFFF AND PUSH20 0xFFFFFFFFFFFFFFFFFFFFFFFFFFFFFFFFFFFFFFFF AND DUP2 MSTORE PUSH1 0x20 ADD SWAP1 DUP2 MSTORE PUSH1 0x20 ADD PUSH1 0x0 KECCAK256 PUSH1 0x0 SWAP1 SLOAD SWAP1 PUSH2 0x100 EXP SWAP1 DIV PUSH1 0xFF AND JUMPDEST PUSH2 0x568 JUMPI PUSH1 0x40 MLOAD PUSH32 0x8C379A000000000000000000000000000000000000000000000000000000000 DUP2 MSTORE PUSH1 0x4 ADD PUSH2 0x55F SWAP1 PUSH2 0x1AD5 JUMP JUMPDEST PUSH1 0x40 MLOAD DUP1 SWAP2 SUB SWAP1 REVERT JUMPDEST PUSH1 0x0 DUP1 DUP7 PUSH20 0xFFFFFFFFFFFFFFFFFFFFFFFFFFFFFFFFFFFFFFFF AND PUSH20 0xFFFFFFFFFFFFFFFFFFFFFFFFFFFFFFFFFFFFFFFF AND DUP2 MSTORE PUSH1 0x20 ADD SWAP1 DUP2 MSTORE PUSH1 0x20 ADD PUSH1 0x0 KECCAK256 PUSH1 0x0 DUP6 DUP2 MSTORE PUSH1 0x20 ADD SWAP1 DUP2 MSTORE PUSH1 0x20 ADD PUSH1 0x0 KECCAK256 PUSH1 0x0 DUP5 DUP2 MSTORE PUSH1 0x20 ADD SWAP1 DUP2 MSTORE PUSH1 0x20 ADD PUSH1 0x0 KECCAK256 PUSH1 0x0 DUP1 DUP3 ADD PUSH1 0x0 PUSH2 0x100 EXP DUP2 SLOAD SWAP1 PUSH20 0xFFFFFFFFFFFFFFFFFFFFFFFFFFFFFFFFFFFFFFFF MUL NOT AND SWAP1 SSTORE PUSH1 0x1 DUP3 ADD PUSH1 0x0 PUSH2 0x100 EXP DUP2 SLOAD SWAP1 PUSH20 0xFFFFFFFFFFFFFFFFFFFFFFFFFFFFFFFFFFFFFFFF MUL NOT AND SWAP1 SSTORE PUSH1 0x1 DUP3 ADD PUSH1 0x14 PUSH2 0x100 EXP DUP2 SLOAD SWAP1 PUSH8 0xFFFFFFFFFFFFFFFF MUL NOT AND SWAP1 SSTORE PUSH1 0x1 DUP3 ADD PUSH1 0x1C PUSH2 0x100 EXP DUP2 SLOAD SWAP1 PUSH1 0xFF MUL NOT AND SWAP1 SSTORE PUSH1 0x2 DUP3 ADD PUSH1 0x0 PUSH2 0x656 SWAP2 SWAP1 PUSH2 0x13FB JUMP JUMPDEST POP POP DUP3 DUP5 DUP7 PUSH20 0xFFFFFFFFFFFFFFFFFFFFFFFFFFFFFFFFFFFFFFFF AND PUSH32 0xCFE1E8CE2FFE3E32A117CFB36D1FA8AF703998CAE381DF7F35A8BB94A351A82D PUSH1 0x40 MLOAD PUSH1 0x40 MLOAD DUP1 SWAP2 SUB SWAP1 LOG4 POP POP POP POP POP JUMP JUMPDEST PUSH1 0x0 DUP3 PUSH20 0xFFFFFFFFFFFFFFFFFFFFFFFFFFFFFFFFFFFFFFFF AND PUSH4 0x6352211E DUP4 PUSH1 0x40 MLOAD DUP3 PUSH4 0xFFFFFFFF AND PUSH1 0xE0 SHL DUP2 MSTORE PUSH1 0x4 ADD PUSH2 0x6DF SWAP2 SWAP1 PUSH2 0x1A2C JUMP JUMPDEST PUSH1 0x20 PUSH1 0x40 MLOAD DUP1 DUP4 SUB DUP2 DUP7 GAS STATICCALL ISZERO DUP1 ISZERO PUSH2 0x6FC JUMPI RETURNDATASIZE PUSH1 0x0 DUP1 RETURNDATACOPY RETURNDATASIZE PUSH1 0x0 REVERT JUMPDEST POP POP POP POP PUSH1 0x40 MLOAD RETURNDATASIZE PUSH1 0x1F NOT PUSH1 0x1F DUP3 ADD AND DUP3 ADD DUP1 PUSH1 0x40 MSTORE POP DUP2 ADD SWAP1 PUSH2 0x720 SWAP2 SWAP1 PUSH2 0x1A5C JUMP JUMPDEST SWAP1 POP SWAP3 SWAP2 POP POP JUMP JUMPDEST PUSH1 0x0 DUP1 PUSH1 0x0 DUP1 DUP7 PUSH20 0xFFFFFFFFFFFFFFFFFFFFFFFFFFFFFFFFFFFFFFFF AND PUSH20 0xFFFFFFFFFFFFFFFFFFFFFFFFFFFFFFFFFFFFFFFF AND DUP2 MSTORE PUSH1 0x20 ADD SWAP1 DUP2 MSTORE PUSH1 0x20 ADD PUSH1 0x0 KECCAK256 PUSH1 0x0 DUP6 DUP2 MSTORE PUSH1 0x20 ADD SWAP1 DUP2 MSTORE PUSH1 0x20 ADD PUSH1 0x0 KECCAK256 PUSH1 0x0 DUP5 DUP2 MSTORE PUSH1 0x20 ADD SWAP1 DUP2 MSTORE PUSH1 0x20 ADD PUSH1 0x0 KECCAK256 PUSH1 0x40 MLOAD DUP1 PUSH1 0xA0 ADD PUSH1 0x40 MSTORE SWAP1 DUP2 PUSH1 0x0 DUP3 ADD PUSH1 0x0 SWAP1 SLOAD SWAP1 PUSH2 0x100 EXP SWAP1 DIV PUSH20 0xFFFFFFFFFFFFFFFFFFFFFFFFFFFFFFFFFFFFFFFF AND PUSH20 0xFFFFFFFFFFFFFFFFFFFFFFFFFFFFFFFFFFFFFFFF AND PUSH20 0xFFFFFFFFFFFFFFFFFFFFFFFFFFFFFFFFFFFFFFFF AND DUP2 MSTORE PUSH1 0x20 ADD PUSH1 0x1 DUP3 ADD PUSH1 0x0 SWAP1 SLOAD SWAP1 PUSH2 0x100 EXP SWAP1 DIV PUSH20 0xFFFFFFFFFFFFFFFFFFFFFFFFFFFFFFFFFFFFFFFF AND PUSH20 0xFFFFFFFFFFFFFFFFFFFFFFFFFFFFFFFFFFFFFFFF AND PUSH20 0xFFFFFFFFFFFFFFFFFFFFFFFFFFFFFFFFFFFFFFFF AND DUP2 MSTORE PUSH1 0x20 ADD PUSH1 0x1 DUP3 ADD PUSH1 0x14 SWAP1 SLOAD SWAP1 PUSH2 0x100 EXP SWAP1 DIV PUSH8 0xFFFFFFFFFFFFFFFF AND PUSH8 0xFFFFFFFFFFFFFFFF AND PUSH8 0xFFFFFFFFFFFFFFFF AND DUP2 MSTORE PUSH1 0x20 ADD PUSH1 0x1 DUP3 ADD PUSH1 0x1C SWAP1 SLOAD SWAP1 PUSH2 0x100 EXP SWAP1 DIV PUSH1 0xFF AND ISZERO ISZERO ISZERO ISZERO DUP2 MSTORE PUSH1 0x20 ADD PUSH1 0x2 DUP3 ADD DUP1 SLOAD PUSH2 0x89F SWAP1 PUSH2 0x1B24 JUMP JUMPDEST DUP1 PUSH1 0x1F ADD PUSH1 0x20 DUP1 SWAP2 DIV MUL PUSH1 0x20 ADD PUSH1 0x40 MLOAD SWAP1 DUP2 ADD PUSH1 0x40 MSTORE DUP1 SWAP3 SWAP2 SWAP1 DUP2 DUP2 MSTORE PUSH1 0x20 ADD DUP3 DUP1 SLOAD PUSH2 0x8CB SWAP1 PUSH2 0x1B24 JUMP JUMPDEST DUP1 ISZERO PUSH2 0x918 JUMPI DUP1 PUSH1 0x1F LT PUSH2 0x8ED JUMPI PUSH2 0x100 DUP1 DUP4 SLOAD DIV MUL DUP4 MSTORE SWAP2 PUSH1 0x20 ADD SWAP2 PUSH2 0x918 JUMP JUMPDEST DUP3 ADD SWAP2 SWAP1 PUSH1 0x0 MSTORE PUSH1 0x20 PUSH1 0x0 KECCAK256 SWAP1 JUMPDEST DUP2 SLOAD DUP2 MSTORE SWAP1 PUSH1 0x1 ADD SWAP1 PUSH1 0x20 ADD DUP1 DUP4 GT PUSH2 0x8FB JUMPI DUP3 SWAP1 SUB PUSH1 0x1F AND DUP3 ADD SWAP2 JUMPDEST POP POP POP POP POP DUP2 MSTORE POP POP SWAP1 POP PUSH1 0x0 PUSH20 0xFFFFFFFFFFFFFFFFFFFFFFFFFFFFFFFFFFFFFFFF AND DUP2 PUSH1 0x20 ADD MLOAD PUSH20 0xFFFFFFFFFFFFFFFFFFFFFFFFFFFFFFFFFFFFFFFF AND EQ DUP1 PUSH2 0x970 JUMPI POP TIMESTAMP DUP2 PUSH1 0x40 ADD MLOAD PUSH8 0xFFFFFFFFFFFFFFFF AND GT ISZERO JUMPDEST ISZERO PUSH2 0x97F JUMPI PUSH1 0x0 SWAP2 POP POP PUSH2 0x988 JUMP JUMPDEST DUP1 PUSH1 0x20 ADD MLOAD SWAP2 POP POP JUMPDEST SWAP4 SWAP3 POP POP POP JUMP JUMPDEST PUSH1 0x0 DUP1 PUSH1 0x0 DUP6 PUSH20 0xFFFFFFFFFFFFFFFFFFFFFFFFFFFFFFFFFFFFFFFF AND PUSH20 0xFFFFFFFFFFFFFFFFFFFFFFFFFFFFFFFFFFFFFFFF AND DUP2 MSTORE PUSH1 0x20 ADD SWAP1 DUP2 MSTORE PUSH1 0x20 ADD PUSH1 0x0 KECCAK256 PUSH1 0x0 DUP5 DUP2 MSTORE PUSH1 0x20 ADD SWAP1 DUP2 MSTORE PUSH1 0x20 ADD PUSH1 0x0 KECCAK256 PUSH1 0x0 DUP4 DUP2 MSTORE PUSH1 0x20 ADD SWAP1 DUP2 MSTORE PUSH1 0x20 ADD PUSH1 0x0 KECCAK256 PUSH1 0x1 ADD PUSH1 0x14 SWAP1 SLOAD SWAP1 PUSH2 0x100 EXP SWAP1 DIV PUSH8 0xFFFFFFFFFFFFFFFF AND SWAP1 POP SWAP4 SWAP3 POP POP POP JUMP JUMPDEST PUSH1 0x60 PUSH1 0x0 DUP1 PUSH1 0x0 DUP7 PUSH20 0xFFFFFFFFFFFFFFFFFFFFFFFFFFFFFFFFFFFFFFFF AND PUSH20 0xFFFFFFFFFFFFFFFFFFFFFFFFFFFFFFFFFFFFFFFF AND DUP2 MSTORE PUSH1 0x20 ADD SWAP1 DUP2 MSTORE PUSH1 0x20 ADD PUSH1 0x0 KECCAK256 PUSH1 0x0 DUP6 DUP2 MSTORE PUSH1 0x20 ADD SWAP1 DUP2 MSTORE PUSH1 0x20 ADD PUSH1 0x0 KECCAK256 PUSH1 0x0 DUP5 DUP2 MSTORE PUSH1 0x20 ADD SWAP1 DUP2 MSTORE PUSH1 0x20 ADD PUSH1 0x0 KECCAK256 PUSH1 0x40 MLOAD DUP1 PUSH1 0xA0 ADD PUSH1 0x40 MSTORE SWAP1 DUP2 PUSH1 0x0 DUP3 ADD PUSH1 0x0 SWAP1 SLOAD SWAP1 PUSH2 0x100 EXP SWAP1 DIV PUSH20 0xFFFFFFFFFFFFFFFFFFFFFFFFFFFFFFFFFFFFFFFF AND PUSH20 0xFFFFFFFFFFFFFFFFFFFFFFFFFFFFFFFFFFFFFFFF AND PUSH20 0xFFFFFFFFFFFFFFFFFFFFFFFFFFFFFFFFFFFFFFFF AND DUP2 MSTORE PUSH1 0x20 ADD PUSH1 0x1 DUP3 ADD PUSH1 0x0 SWAP1 SLOAD SWAP1 PUSH2 0x100 EXP SWAP1 DIV PUSH20 0xFFFFFFFFFFFFFFFFFFFFFFFFFFFFFFFFFFFFFFFF AND PUSH20 0xFFFFFFFFFFFFFFFFFFFFFFFFFFFFFFFFFFFFFFFF AND PUSH20 0xFFFFFFFFFFFFFFFFFFFFFFFFFFFFFFFFFFFFFFFF AND DUP2 MSTORE PUSH1 0x20 ADD PUSH1 0x1 DUP3 ADD PUSH1 0x14 SWAP1 SLOAD SWAP1 PUSH2 0x100 EXP SWAP1 DIV PUSH8 0xFFFFFFFFFFFFFFFF AND PUSH8 0xFFFFFFFFFFFFFFFF AND PUSH8 0xFFFFFFFFFFFFFFFF AND DUP2 MSTORE PUSH1 0x20 ADD PUSH1 0x1 DUP3 ADD PUSH1 0x1C SWAP1 SLOAD SWAP1 PUSH2 0x100 EXP SWAP1 DIV PUSH1 0xFF AND ISZERO ISZERO ISZERO ISZERO DUP2 MSTORE PUSH1 0x20 ADD PUSH1 0x2 DUP3 ADD DUP1 SLOAD PUSH2 0xB8A SWAP1 PUSH2 0x1B24 JUMP JUMPDEST DUP1 PUSH1 0x1F ADD PUSH1 0x20 DUP1 SWAP2 DIV MUL PUSH1 0x20 ADD PUSH1 0x40 MLOAD SWAP1 DUP2 ADD PUSH1 0x40 MSTORE DUP1 SWAP3 SWAP2 SWAP1 DUP2 DUP2 MSTORE PUSH1 0x20 ADD DUP3 DUP1 SLOAD PUSH2 0xBB6 SWAP1 PUSH2 0x1B24 JUMP JUMPDEST DUP1 ISZERO PUSH2 0xC03 JUMPI DUP1 PUSH1 0x1F LT PUSH2 0xBD8 JUMPI PUSH2 0x100 DUP1 DUP4 SLOAD DIV MUL DUP4 MSTORE SWAP2 PUSH1 0x20 ADD SWAP2 PUSH2 0xC03 JUMP JUMPDEST DUP3 ADD SWAP2 SWAP1 PUSH1 0x0 MSTORE PUSH1 0x20 PUSH1 0x0 KECCAK256 SWAP1 JUMPDEST DUP2 SLOAD DUP2 MSTORE SWAP1 PUSH1 0x1 ADD SWAP1 PUSH1 0x20 ADD DUP1 DUP4 GT PUSH2 0xBE6 JUMPI DUP3 SWAP1 SUB PUSH1 0x1F AND DUP3 ADD SWAP2 JUMPDEST POP POP POP POP POP DUP2 MSTORE POP POP SWAP1 POP PUSH1 0x0 PUSH20 0xFFFFFFFFFFFFFFFFFFFFFFFFFFFFFFFFFFFFFFFF AND DUP2 PUSH1 0x20 ADD MLOAD PUSH20 0xFFFFFFFFFFFFFFFFFFFFFFFFFFFFFFFFFFFFFFFF AND EQ DUP1 PUSH2 0xC5B JUMPI POP TIMESTAMP DUP2 PUSH1 0x40 ADD MLOAD PUSH8 0xFFFFFFFFFFFFFFFF AND GT ISZERO JUMPDEST ISZERO PUSH2 0xC78 JUMPI PUSH1 0x40 MLOAD DUP1 PUSH1 0x20 ADD PUSH1 0x40 MSTORE DUP1 PUSH1 0x0 DUP2 MSTORE POP SWAP2 POP POP PUSH2 0xC81 JUMP JUMPDEST DUP1 PUSH1 0x80 ADD MLOAD SWAP2 POP POP JUMPDEST SWAP4 SWAP3 POP POP POP JUMP JUMPDEST TIMESTAMP DUP5 PUSH8 0xFFFFFFFFFFFFFFFF AND GT PUSH2 0xCD4 JUMPI PUSH1 0x40 MLOAD PUSH32 0x8C379A000000000000000000000000000000000000000000000000000000000 DUP2 MSTORE PUSH1 0x4 ADD PUSH2 0xCCB SWAP1 PUSH2 0x1BC7 JUMP JUMPDEST PUSH1 0x40 MLOAD DUP1 SWAP2 SUB SWAP1 REVERT JUMPDEST PUSH1 0x0 PUSH20 0xFFFFFFFFFFFFFFFFFFFFFFFFFFFFFFFFFFFFFFFF AND DUP6 PUSH20 0xFFFFFFFFFFFFFFFFFFFFFFFFFFFFFFFFFFFFFFFF AND SUB PUSH2 0xD43 JUMPI PUSH1 0x40 MLOAD PUSH32 0x8C379A000000000000000000000000000000000000000000000000000000000 DUP2 MSTORE PUSH1 0x4 ADD PUSH2 0xD3A SWAP1 PUSH2 0x1C33 JUMP JUMPDEST PUSH1 0x40 MLOAD DUP1 SWAP2 SUB SWAP1 REVERT JUMPDEST PUSH1 0x0 DUP9 PUSH20 0xFFFFFFFFFFFFFFFFFFFFFFFFFFFFFFFFFFFFFFFF AND PUSH4 0x6352211E DUP10 PUSH1 0x40 MLOAD DUP3 PUSH4 0xFFFFFFFF AND PUSH1 0xE0 SHL DUP2 MSTORE PUSH1 0x4 ADD PUSH2 0xD7E SWAP2 SWAP1 PUSH2 0x1A2C JUMP JUMPDEST PUSH1 0x20 PUSH1 0x40 MLOAD DUP1 DUP4 SUB DUP2 DUP7 GAS STATICCALL ISZERO DUP1 ISZERO PUSH2 0xD9B JUMPI RETURNDATASIZE PUSH1 0x0 DUP1 RETURNDATACOPY RETURNDATASIZE PUSH1 0x0 REVERT JUMPDEST POP POP POP POP PUSH1 0x40 MLOAD RETURNDATASIZE PUSH1 0x1F NOT PUSH1 0x1F DUP3 ADD AND DUP3 ADD DUP1 PUSH1 0x40 MSTORE POP DUP2 ADD SWAP1 PUSH2 0xDBF SWAP2 SWAP1 PUSH2 0x1A5C JUMP JUMPDEST SWAP1 POP DUP1 PUSH20 0xFFFFFFFFFFFFFFFFFFFFFFFFFFFFFFFFFFFFFFFF AND CALLER PUSH20 0xFFFFFFFFFFFFFFFFFFFFFFFFFFFFFFFFFFFFFFFF AND EQ DUP1 PUSH2 0xEBE JUMPI POP PUSH1 0x1 PUSH1 0x0 DUP11 PUSH20 0xFFFFFFFFFFFFFFFFFFFFFFFFFFFFFFFFFFFFFFFF AND PUSH20 0xFFFFFFFFFFFFFFFFFFFFFFFFFFFFFFFFFFFFFFFF AND DUP2 MSTORE PUSH1 0x20 ADD SWAP1 DUP2 MSTORE PUSH1 0x20 ADD PUSH1 0x0 KECCAK256 PUSH1 0x0 DUP3 PUSH20 0xFFFFFFFFFFFFFFFFFFFFFFFFFFFFFFFFFFFFFFFF AND PUSH20 0xFFFFFFFFFFFFFFFFFFFFFFFFFFFFFFFFFFFFFFFF AND DUP2 MSTORE PUSH1 0x20 ADD SWAP1 DUP2 MSTORE PUSH1 0x20 ADD PUSH1 0x0 KECCAK256 PUSH1 0x0 CALLER PUSH20 0xFFFFFFFFFFFFFFFFFFFFFFFFFFFFFFFFFFFFFFFF AND PUSH20 0xFFFFFFFFFFFFFFFFFFFFFFFFFFFFFFFFFFFFFFFF AND DUP2 MSTORE PUSH1 0x20 ADD SWAP1 DUP2 MSTORE PUSH1 0x20 ADD PUSH1 0x0 KECCAK256 PUSH1 0x0 SWAP1 SLOAD SWAP1 PUSH2 0x100 EXP SWAP1 DIV PUSH1 0xFF AND JUMPDEST PUSH2 0xEFD JUMPI PUSH1 0x40 MLOAD PUSH32 0x8C379A000000000000000000000000000000000000000000000000000000000 DUP2 MSTORE PUSH1 0x4 ADD PUSH2 0xEF4 SWAP1 PUSH2 0x1AD5 JUMP JUMPDEST PUSH1 0x40 MLOAD DUP1 SWAP2 SUB SWAP1 REVERT JUMPDEST PUSH1 0x40 MLOAD DUP1 PUSH1 0xA0 ADD PUSH1 0x40 MSTORE DUP1 CALLER PUSH20 0xFFFFFFFFFFFFFFFFFFFFFFFFFFFFFFFFFFFFFFFF AND DUP2 MSTORE PUSH1 0x20 ADD DUP8 PUSH20 0xFFFFFFFFFFFFFFFFFFFFFFFFFFFFFFFFFFFFFFFF AND DUP2 MSTORE PUSH1 0x20 ADD DUP7 PUSH8 0xFFFFFFFFFFFFFFFF AND DUP2 MSTORE PUSH1 0x20 ADD DUP6 ISZERO ISZERO DUP2 MSTORE PUSH1 0x20 ADD DUP5 DUP5 DUP1 DUP1 PUSH1 0x1F ADD PUSH1 0x20 DUP1 SWAP2 DIV MUL PUSH1 0x20 ADD PUSH1 0x40 MLOAD SWAP1 DUP2 ADD PUSH1 0x40 MSTORE DUP1 SWAP4 SWAP3 SWAP2 SWAP1 DUP2 DUP2 MSTORE PUSH1 0x20 ADD DUP4 DUP4 DUP1 DUP3 DUP5 CALLDATACOPY PUSH1 0x0 DUP2 DUP5 ADD MSTORE PUSH1 0x1F NOT PUSH1 0x1F DUP3 ADD AND SWAP1 POP DUP1 DUP4 ADD SWAP3 POP POP POP POP POP POP POP DUP2 MSTORE POP PUSH1 0x0 DUP1 DUP12 PUSH20 0xFFFFFFFFFFFFFFFFFFFFFFFFFFFFFFFFFFFFFFFF AND PUSH20 0xFFFFFFFFFFFFFFFFFFFFFFFFFFFFFFFFFFFFFFFF AND DUP2 MSTORE PUSH1 0x20 ADD SWAP1 DUP2 MSTORE PUSH1 0x20 ADD PUSH1 0x0 KECCAK256 PUSH1 0x0 DUP11 DUP2 MSTORE PUSH1 0x20 ADD SWAP1 DUP2 MSTORE PUSH1 0x20 ADD PUSH1 0x0 KECCAK256 PUSH1 0x0 DUP10 DUP2 MSTORE PUSH1 0x20 ADD SWAP1 DUP2 MSTORE PUSH1 0x20 ADD PUSH1 0x0 KECCAK256 PUSH1 0x0 DUP3 ADD MLOAD DUP2 PUSH1 0x0 ADD PUSH1 0x0 PUSH2 0x100 EXP DUP2 SLOAD DUP2 PUSH20 0xFFFFFFFFFFFFFFFFFFFFFFFFFFFFFFFFFFFFFFFF MUL NOT AND SWAP1 DUP4 PUSH20 0xFFFFFFFFFFFFFFFFFFFFFFFFFFFFFFFFFFFFFFFF AND MUL OR SWAP1 SSTORE POP PUSH1 0x20 DUP3 ADD MLOAD DUP2 PUSH1 0x1 ADD PUSH1 0x0 PUSH2 0x100 EXP DUP2 SLOAD DUP2 PUSH20 0xFFFFFFFFFFFFFFFFFFFFFFFFFFFFFFFFFFFFFFFF MUL NOT AND SWAP1 DUP4 PUSH20 0xFFFFFFFFFFFFFFFFFFFFFFFFFFFFFFFFFFFFFFFF AND MUL OR SWAP1 SSTORE POP PUSH1 0x40 DUP3 ADD MLOAD DUP2 PUSH1 0x1 ADD PUSH1 0x14 PUSH2 0x100 EXP DUP2 SLOAD DUP2 PUSH8 0xFFFFFFFFFFFFFFFF MUL NOT AND SWAP1 DUP4 PUSH8 0xFFFFFFFFFFFFFFFF AND MUL OR SWAP1 SSTORE POP PUSH1 0x60 DUP3 ADD MLOAD DUP2 PUSH1 0x1 ADD PUSH1 0x1C PUSH2 0x100 EXP DUP2 SLOAD DUP2 PUSH1 0xFF MUL NOT AND SWAP1 DUP4 ISZERO ISZERO MUL OR SWAP1 SSTORE POP PUSH1 0x80 DUP3 ADD MLOAD DUP2 PUSH1 0x2 ADD SWAP1 DUP2 PUSH2 0x10F2 SWAP2 SWAP1 PUSH2 0x1E2E JUMP JUMPDEST POP SWAP1 POP POP DUP7 DUP9 DUP11 PUSH20 0xFFFFFFFFFFFFFFFFFFFFFFFFFFFFFFFFFFFFFFFF AND PUSH32 0x9F743023185EFAB1ABAF28721C6D4AB3ECC515F75A871C8299A3C9A532857287 CALLER DUP11 DUP11 DUP11 DUP11 DUP11 PUSH1 0x40 MLOAD PUSH2 0x1148 SWAP7 SWAP6 SWAP5 SWAP4 SWAP3 SWAP2 SWAP1 PUSH2 0x1F3C JUMP JUMPDEST PUSH1 0x40 MLOAD DUP1 SWAP2 SUB SWAP1 LOG4 POP POP POP POP POP POP POP POP POP JUMP JUMPDEST DUP1 PUSH1 0x1 PUSH1 0x0 DUP6 PUSH20 0xFFFFFFFFFFFFFFFFFFFFFFFFFFFFFFFFFFFFFFFF AND PUSH20 0xFFFFFFFFFFFFFFFFFFFFFFFFFFFFFFFFFFFFFFFF AND DUP2 MSTORE PUSH1 0x20 ADD SWAP1 DUP2 MSTORE PUSH1 0x20 ADD PUSH1 0x0 KECCAK256 PUSH1 0x0 CALLER PUSH20 0xFFFFFFFFFFFFFFFFFFFFFFFFFFFFFFFFFFFFFFFF AND PUSH20 0xFFFFFFFFFFFFFFFFFFFFFFFFFFFFFFFFFFFFFFFF AND DUP2 MSTORE PUSH1 0x20 ADD SWAP1 DUP2 MSTORE PUSH1 0x20 ADD PUSH1 0x0 KECCAK256 PUSH1 0x0 DUP5 PUSH20 0xFFFFFFFFFFFFFFFFFFFFFFFFFFFFFFFFFFFFFFFF AND PUSH20 0xFFFFFFFFFFFFFFFFFFFFFFFFFFFFFFFFFFFFFFFF AND DUP2 MSTORE PUSH1 0x20 ADD SWAP1 DUP2 MSTORE PUSH1 0x20 ADD PUSH1 0x0 KECCAK256 PUSH1 0x0 PUSH2 0x100 EXP DUP2 SLOAD DUP2 PUSH1 0xFF MUL NOT AND SWAP1 DUP4 ISZERO ISZERO MUL OR SWAP1 SSTORE POP DUP2 PUSH20 0xFFFFFFFFFFFFFFFFFFFFFFFFFFFFFFFFFFFFFFFF AND CALLER PUSH20 0xFFFFFFFFFFFFFFFFFFFFFFFFFFFFFFFFFFFFFFFF AND DUP5 PUSH20 0xFFFFFFFFFFFFFFFFFFFFFFFFFFFFFFFFFFFFFFFF AND PUSH32 0x1B6828C670E10FC761F4BF28E82B83DF698AE93BAF64975365FA83C17E8C9C3F DUP5 PUSH1 0x40 MLOAD PUSH2 0x12A0 SWAP2 SWAP1 PUSH2 0x1919 JUMP JUMPDEST PUSH1 0x40 MLOAD DUP1 SWAP2 SUB SWAP1 LOG4 POP POP POP JUMP JUMPDEST PUSH1 0x0 PUSH1 0x1 PUSH1 0x0 DUP6 PUSH20 0xFFFFFFFFFFFFFFFFFFFFFFFFFFFFFFFFFFFFFFFF AND PUSH20 0xFFFFFFFFFFFFFFFFFFFFFFFFFFFFFFFFFFFFFFFF AND DUP2 MSTORE PUSH1 0x20 ADD SWAP1 DUP2 MSTORE PUSH1 0x20 ADD PUSH1 0x0 KECCAK256 PUSH1 0x0 DUP5 PUSH20 0xFFFFFFFFFFFFFFFFFFFFFFFFFFFFFFFFFFFFFFFF AND PUSH20 0xFFFFFFFFFFFFFFFFFFFFFFFFFFFFFFFFFFFFFFFF AND DUP2 MSTORE PUSH1 0x20 ADD SWAP1 DUP2 MSTORE PUSH1 0x20 ADD PUSH1 0x0 KECCAK256 PUSH1 0x0 DUP4 PUSH20 0xFFFFFFFFFFFFFFFFFFFFFFFFFFFFFFFFFFFFFFFF AND PUSH20 0xFFFFFFFFFFFFFFFFFFFFFFFFFFFFFFFFFFFFFFFF AND DUP2 MSTORE PUSH1 0x20 ADD SWAP1 DUP2 MSTORE PUSH1 0x20 ADD PUSH1 0x0 KECCAK256 PUSH1 0x0 SWAP1 SLOAD SWAP1 PUSH2 0x100 EXP SWAP1 DIV PUSH1 0xFF AND SWAP1 POP SWAP4 SWAP3 POP POP POP JUMP JUMPDEST PUSH1 0x0 DUP1 PUSH1 0x0 DUP6 PUSH20 0xFFFFFFFFFFFFFFFFFFFFFFFFFFFFFFFFFFFFFFFF AND PUSH20 0xFFFFFFFFFFFFFFFFFFFFFFFFFFFFFFFFFFFFFFFF AND DUP2 MSTORE PUSH1 0x20 ADD SWAP1 DUP2 MSTORE PUSH1 0x20 ADD PUSH1 0x0 KECCAK256 PUSH1 0x0 DUP5 DUP2 MSTORE PUSH1 0x20 ADD SWAP1 DUP2 MSTORE PUSH1 0x20 ADD PUSH1 0x0 KECCAK256 PUSH1 0x0 DUP4 DUP2 MSTORE PUSH1 0x20 ADD SWAP1 DUP2 MSTORE PUSH1 0x20 ADD PUSH1 0x0 KECCAK256 PUSH1 0x1 ADD PUSH1 0x1C SWAP1 SLOAD SWAP1 PUSH2 0x100 EXP SWAP1 DIV PUSH1 0xFF AND SWAP1 POP SWAP4 SWAP3 POP POP POP JUMP JUMPDEST POP DUP1 SLOAD PUSH2 0x1407 SWAP1 PUSH2 0x1B24 JUMP JUMPDEST PUSH1 0x0 DUP3 SSTORE DUP1 PUSH1 0x1F LT PUSH2 0x1419 JUMPI POP PUSH2 0x1438 JUMP JUMPDEST PUSH1 0x1F ADD PUSH1 0x20 SWAP1 DIV SWAP1 PUSH1 0x0 MSTORE PUSH1 0x20 PUSH1 0x0 KECCAK256 SWAP1 DUP2 ADD SWAP1 PUSH2 0x1437 SWAP2 SWAP1 PUSH2 0x143B JUMP JUMPDEST JUMPDEST POP JUMP JUMPDEST JUMPDEST DUP1 DUP3 GT ISZERO PUSH2 0x1454 JUMPI PUSH1 0x0 DUP2 PUSH1 0x0 SWAP1 SSTORE POP PUSH1 0x1 ADD PUSH2 0x143C JUMP JUMPDEST POP SWAP1 JUMP JUMPDEST PUSH1 0x0 DUP1 REVERT JUMPDEST PUSH1 0x0 DUP1 REVERT JUMPDEST PUSH1 0x0 PUSH20 0xFFFFFFFFFFFFFFFFFFFFFFFFFFFFFFFFFFFFFFFF DUP3 AND SWAP1 POP SWAP2 SWAP1 POP JUMP JUMPDEST PUSH1 0x0 PUSH2 0x148D DUP3 PUSH2 0x1462 JUMP JUMPDEST SWAP1 POP SWAP2 SWAP1 POP JUMP JUMPDEST PUSH2 0x149D DUP2 PUSH2 0x1482 JUMP JUMPDEST DUP2 EQ PUSH2 0x14A8 JUMPI PUSH1 0x0 DUP1 REVERT JUMPDEST POP JUMP JUMPDEST PUSH1 0x0 DUP2 CALLDATALOAD SWAP1 POP PUSH2 0x14BA DUP2 PUSH2 0x1494 JUMP JUMPDEST SWAP3 SWAP2 POP POP JUMP JUMPDEST PUSH1 0x0 DUP2 SWAP1 POP SWAP2 SWAP1 POP JUMP JUMPDEST PUSH2 0x14D3 DUP2 PUSH2 0x14C0 JUMP JUMPDEST DUP2 EQ PUSH2 0x14DE JUMPI PUSH1 0x0 DUP1 REVERT JUMPDEST POP JUMP JUMPDEST PUSH1 0x0 DUP2 CALLDATALOAD SWAP1 POP PUSH2 0x14F0 DUP2 PUSH2 0x14CA JUMP JUMPDEST SWAP3 SWAP2 POP POP JUMP JUMPDEST PUSH1 0x0 DUP2 SWAP1 POP SWAP2 SWAP1 POP JUMP JUMPDEST PUSH2 0x1509 DUP2 PUSH2 0x14F6 JUMP JUMPDEST DUP2 EQ PUSH2 0x1514 JUMPI PUSH1 0x0 DUP1 REVERT JUMPDEST POP JUMP JUMPDEST PUSH1 0x0 DUP2 CALLDATALOAD SWAP1 POP PUSH2 0x1526 DUP2 PUSH2 0x1500 JUMP JUMPDEST SWAP3 SWAP2 POP POP JUMP JUMPDEST PUSH1 0x0 DUP1 PUSH1 0x0 PUSH1 0x60 DUP5 DUP7 SUB SLT ISZERO PUSH2 0x1545 JUMPI PUSH2 0x1544 PUSH2 0x1458 JUMP JUMPDEST JUMPDEST PUSH1 0x0 PUSH2 0x1553 DUP7 DUP3 DUP8 ADD PUSH2 0x14AB JUMP JUMPDEST SWAP4 POP POP PUSH1 0x20 PUSH2 0x1564 DUP7 DUP3 DUP8 ADD PUSH2 0x14E1 JUMP JUMPDEST SWAP3 POP POP PUSH1 0x40 PUSH2 0x1575 DUP7 DUP3 DUP8 ADD PUSH2 0x1517 JUMP JUMPDEST SWAP2 POP POP SWAP3 POP SWAP3 POP SWAP3 JUMP JUMPDEST PUSH1 0x0 DUP1 PUSH1 0x40 DUP4 DUP6 SUB SLT ISZERO PUSH2 0x1596 JUMPI PUSH2 0x1595 PUSH2 0x1458 JUMP JUMPDEST JUMPDEST PUSH1 0x0 PUSH2 0x15A4 DUP6 DUP3 DUP7 ADD PUSH2 0x14AB JUMP JUMPDEST SWAP3 POP POP PUSH1 0x20 PUSH2 0x15B5 DUP6 DUP3 DUP7 ADD PUSH2 0x14E1 JUMP JUMPDEST SWAP2 POP POP SWAP3 POP SWAP3 SWAP1 POP JUMP JUMPDEST PUSH2 0x15C8 DUP2 PUSH2 0x1482 JUMP JUMPDEST DUP3 MSTORE POP POP JUMP JUMPDEST PUSH1 0x0 PUSH1 0x20 DUP3 ADD SWAP1 POP PUSH2 0x15E3 PUSH1 0x0 DUP4 ADD DUP5 PUSH2 0x15BF JUMP JUMPDEST SWAP3 SWAP2 POP POP JUMP JUMPDEST PUSH1 0x0 PUSH8 0xFFFFFFFFFFFFFFFF DUP3 AND SWAP1 POP SWAP2 SWAP1 POP JUMP JUMPDEST PUSH2 0x1606 DUP2 PUSH2 0x15E9 JUMP JUMPDEST DUP3 MSTORE POP POP JUMP JUMPDEST PUSH1 0x0 PUSH1 0x20 DUP3 ADD SWAP1 POP PUSH2 0x1621 PUSH1 0x0 DUP4 ADD DUP5 PUSH2 0x15FD JUMP JUMPDEST SWAP3 SWAP2 POP POP JUMP JUMPDEST PUSH1 0x0 DUP2 MLOAD SWAP1 POP SWAP2 SWAP1 POP JUMP JUMPDEST PUSH1 0x0 DUP3 DUP3 MSTORE PUSH1 0x20 DUP3 ADD SWAP1 POP SWAP3 SWAP2 POP POP JUMP JUMPDEST PUSH1 0x0 JUMPDEST DUP4 DUP2 LT ISZERO PUSH2 0x1661 JUMPI DUP1 DUP3 ADD MLOAD DUP2 DUP5 ADD MSTORE PUSH1 0x20 DUP2 ADD SWAP1 POP PUSH2 0x1646 JUMP JUMPDEST PUSH1 0x0 DUP5 DUP5 ADD MSTORE POP POP POP POP JUMP JUMPDEST PUSH1 0x0 PUSH1 0x1F NOT PUSH1 0x1F DUP4 ADD AND SWAP1 POP SWAP2 SWAP1 POP JUMP JUMPDEST PUSH1 0x0 PUSH2 0x1689 DUP3 PUSH2 0x1627 JUMP JUMPDEST PUSH2 0x1693 DUP2 DUP6 PUSH2 0x1632 JUMP JUMPDEST SWAP4 POP PUSH2 0x16A3 DUP2 DUP6 PUSH1 0x20 DUP7 ADD PUSH2 0x1643 JUMP JUMPDEST PUSH2 0x16AC DUP2 PUSH2 0x166D JUMP JUMPDEST DUP5 ADD SWAP2 POP POP SWAP3 SWAP2 POP POP JUMP JUMPDEST PUSH1 0x0 PUSH1 0x20 DUP3 ADD SWAP1 POP DUP2 DUP2 SUB PUSH1 0x0 DUP4 ADD MSTORE PUSH2 0x16D1 DUP2 DUP5 PUSH2 0x167E JUMP JUMPDEST SWAP1 POP SWAP3 SWAP2 POP POP JUMP JUMPDEST PUSH2 0x16E2 DUP2 PUSH2 0x15E9 JUMP JUMPDEST DUP2 EQ PUSH2 0x16ED JUMPI PUSH1 0x0 DUP1 REVERT JUMPDEST POP JUMP JUMPDEST PUSH1 0x0 DUP2 CALLDATALOAD SWAP1 POP PUSH2 0x16FF DUP2 PUSH2 0x16D9 JUMP JUMPDEST SWAP3 SWAP2 POP POP JUMP JUMPDEST PUSH1 0x0 DUP2 ISZERO ISZERO SWAP1 POP SWAP2 SWAP1 POP JUMP JUMPDEST PUSH2 0x171A DUP2 PUSH2 0x1705 JUMP JUMPDEST DUP2 EQ PUSH2 0x1725 JUMPI PUSH1 0x0 DUP1 REVERT JUMPDEST POP JUMP JUMPDEST PUSH1 0x0 DUP2 CALLDATALOAD SWAP1 POP PUSH2 0x1737 DUP2 PUSH2 0x1711 JUMP JUMPDEST SWAP3 SWAP2 POP POP JUMP JUMPDEST PUSH1 0x0 DUP1 REVERT JUMPDEST PUSH1 0x0 DUP1 REVERT JUMPDEST PUSH1 0x0 DUP1 REVERT JUMPDEST PUSH1 0x0 DUP1 DUP4 PUSH1 0x1F DUP5 ADD SLT PUSH2 0x1762 JUMPI PUSH2 0x1761 PUSH2 0x173D JUMP JUMPDEST JUMPDEST DUP3 CALLDATALOAD SWAP1 POP PUSH8 0xFFFFFFFFFFFFFFFF DUP2 GT ISZERO PUSH2 0x177F JUMPI PUSH2 0x177E PUSH2 0x1742 JUMP JUMPDEST JUMPDEST PUSH1 0x20 DUP4 ADD SWAP2 POP DUP4 PUSH1 0x1 DUP3 MUL DUP4 ADD GT ISZERO PUSH2 0x179B JUMPI PUSH2 0x179A PUSH2 0x1747 JUMP JUMPDEST JUMPDEST SWAP3 POP SWAP3 SWAP1 POP JUMP JUMPDEST PUSH1 0x0 DUP1 PUSH1 0x0 DUP1 PUSH1 0x0 DUP1 PUSH1 0x0 DUP1 PUSH1 0xE0 DUP10 DUP12 SUB SLT ISZERO PUSH2 0x17C2 JUMPI PUSH2 0x17C1 PUSH2 0x1458 JUMP JUMPDEST JUMPDEST PUSH1 0x0 PUSH2 0x17D0 DUP12 DUP3 DUP13 ADD PUSH2 0x14AB JUMP JUMPDEST SWAP9 POP POP PUSH1 0x20 PUSH2 0x17E1 DUP12 DUP3 DUP13 ADD PUSH2 0x14E1 JUMP JUMPDEST SWAP8 POP POP PUSH1 0x40 PUSH2 0x17F2 DUP12 DUP3 DUP13 ADD PUSH2 0x1517 JUMP JUMPDEST SWAP7 POP POP PUSH1 0x60 PUSH2 0x1803 DUP12 DUP3 DUP13 ADD PUSH2 0x14AB JUMP JUMPDEST SWAP6 POP POP PUSH1 0x80 PUSH2 0x1814 DUP12 DUP3 DUP13 ADD PUSH2 0x16F0 JUMP JUMPDEST SWAP5 POP POP PUSH1 0xA0 PUSH2 0x1825 DUP12 DUP3 DUP13 ADD PUSH2 0x1728 JUMP JUMPDEST SWAP4 POP POP PUSH1 0xC0 DUP10 ADD CALLDATALOAD PUSH8 0xFFFFFFFFFFFFFFFF DUP2 GT ISZERO PUSH2 0x1846 JUMPI PUSH2 0x1845 PUSH2 0x145D JUMP JUMPDEST JUMPDEST PUSH2 0x1852 DUP12 DUP3 DUP13 ADD PUSH2 0x174C JUMP JUMPDEST SWAP3 POP SWAP3 POP POP SWAP3 SWAP6 SWAP9 POP SWAP3 SWAP6 SWAP9 SWAP1 SWAP4 SWAP7 POP JUMP JUMPDEST PUSH1 0x0 DUP1 PUSH1 0x0 PUSH1 0x60 DUP5 DUP7 SUB SLT ISZERO PUSH2 0x187D JUMPI PUSH2 0x187C PUSH2 0x1458 JUMP JUMPDEST JUMPDEST PUSH1 0x0 PUSH2 0x188B DUP7 DUP3 DUP8 ADD PUSH2 0x14AB JUMP JUMPDEST SWAP4 POP POP PUSH1 0x20 PUSH2 0x189C DUP7 DUP3 DUP8 ADD PUSH2 0x14AB JUMP JUMPDEST SWAP3 POP POP PUSH1 0x40 PUSH2 0x18AD DUP7 DUP3 DUP8 ADD PUSH2 0x1728 JUMP JUMPDEST SWAP2 POP POP SWAP3 POP SWAP3 POP SWAP3 JUMP JUMPDEST PUSH1 0x0 DUP1 PUSH1 0x0 PUSH1 0x60 DUP5 DUP7 SUB SLT ISZERO PUSH2 0x18D0 JUMPI PUSH2 0x18CF PUSH2 0x1458 JUMP JUMPDEST JUMPDEST PUSH1 0x0 PUSH2 0x18DE DUP7 DUP3 DUP8 ADD PUSH2 0x14AB JUMP JUMPDEST SWAP4 POP POP PUSH1 0x20 PUSH2 0x18EF DUP7 DUP3 DUP8 ADD PUSH2 0x14AB JUMP JUMPDEST SWAP3 POP POP PUSH1 0x40 PUSH2 0x1900 DUP7 DUP3 DUP8 ADD PUSH2 0x14AB JUMP JUMPDEST SWAP2 POP POP SWAP3 POP SWAP3 POP SWAP3 JUMP JUMPDEST PUSH2 0x1913 DUP2 PUSH2 0x1705 JUMP JUMPDEST DUP3 MSTORE POP POP JUMP JUMPDEST PUSH1 0x0 PUSH1 0x20 DUP3 ADD SWAP1 POP PUSH2 0x192E PUSH1 0x0 DUP4 ADD DUP5 PUSH2 0x190A JUMP JUMPDEST SWAP3 SWAP2 POP POP JUMP JUMPDEST PUSH1 0x0 DUP3 DUP3 MSTORE PUSH1 0x20 DUP3 ADD SWAP1 POP SWAP3 SWAP2 POP POP JUMP JUMPDEST PUSH32 0x526F6C65206E6F742061737369676E6564000000000000000000000000000000 PUSH1 0x0 DUP3 ADD MSTORE POP JUMP JUMPDEST PUSH1 0x0 PUSH2 0x197B PUSH1 0x11 DUP4 PUSH2 0x1934 JUMP JUMPDEST SWAP2 POP PUSH2 0x1986 DUP3 PUSH2 0x1945 JUMP JUMPDEST PUSH1 0x20 DUP3 ADD SWAP1 POP SWAP2 SWAP1 POP JUMP JUMPDEST PUSH1 0x0 PUSH1 0x20 DUP3 ADD SWAP1 POP DUP2 DUP2 SUB PUSH1 0x0 DUP4 ADD MSTORE PUSH2 0x19AA DUP2 PUSH2 0x196E JUMP JUMPDEST SWAP1 POP SWAP2 SWAP1 POP JUMP JUMPDEST PUSH32 0x526F6C65206973206E6F74207265766F6361626C650000000000000000000000 PUSH1 0x0 DUP3 ADD MSTORE POP JUMP JUMPDEST PUSH1 0x0 PUSH2 0x19E7 PUSH1 0x15 DUP4 PUSH2 0x1934 JUMP JUMPDEST SWAP2 POP PUSH2 0x19F2 DUP3 PUSH2 0x19B1 JUMP JUMPDEST PUSH1 0x20 DUP3 ADD SWAP1 POP SWAP2 SWAP1 POP JUMP JUMPDEST PUSH1 0x0 PUSH1 0x20 DUP3 ADD SWAP1 POP DUP2 DUP2 SUB PUSH1 0x0 DUP4 ADD MSTORE PUSH2 0x1A16 DUP2 PUSH2 0x19DA JUMP JUMPDEST SWAP1 POP SWAP2 SWAP1 POP JUMP JUMPDEST PUSH2 0x1A26 DUP2 PUSH2 0x14C0 JUMP JUMPDEST DUP3 MSTORE POP POP JUMP JUMPDEST PUSH1 0x0 PUSH1 0x20 DUP3 ADD SWAP1 POP PUSH2 0x1A41 PUSH1 0x0 DUP4 ADD DUP5 PUSH2 0x1A1D JUMP JUMPDEST SWAP3 SWAP2 POP POP JUMP JUMPDEST PUSH1 0x0 DUP2 MLOAD SWAP1 POP PUSH2 0x1A56 DUP2 PUSH2 0x1494 JUMP JUMPDEST SWAP3 SWAP2 POP POP JUMP JUMPDEST PUSH1 0x0 PUSH1 0x20 DUP3 DUP5 SUB SLT ISZERO PUSH2 0x1A72 JUMPI PUSH2 0x1A71 PUSH2 0x1458 JUMP JUMPDEST JUMPDEST PUSH1 0x0 PUSH2 0x1A80 DUP5 DUP3 DUP6 ADD PUSH2 0x1A47 JUMP JUMPDEST SWAP2 POP POP SWAP3 SWAP2 POP POP JUMP JUMPDEST PUSH32 0x43616C6C6572206E6F7420617574686F72697A65640000000000000000000000 PUSH1 0x0 DUP3 ADD MSTORE POP JUMP JUMPDEST PUSH1 0x0 PUSH2 0x1ABF PUSH1 0x15 DUP4 PUSH2 0x1934 JUMP JUMPDEST SWAP2 POP PUSH2 0x1ACA DUP3 PUSH2 0x1A89 JUMP JUMPDEST PUSH1 0x20 DUP3 ADD SWAP1 POP SWAP2 SWAP1 POP JUMP JUMPDEST PUSH1 0x0 PUSH1 0x20 DUP3 ADD SWAP1 POP DUP2 DUP2 SUB PUSH1 0x0 DUP4 ADD MSTORE PUSH2 0x1AEE DUP2 PUSH2 0x1AB2 JUMP JUMPDEST SWAP1 POP SWAP2 SWAP1 POP JUMP JUMPDEST PUSH32 0x4E487B7100000000000000000000000000000000000000000000000000000000 PUSH1 0x0 MSTORE PUSH1 0x22 PUSH1 0x4 MSTORE PUSH1 0x24 PUSH1 0x0 REVERT JUMPDEST PUSH1 0x0 PUSH1 0x2 DUP3 DIV SWAP1 POP PUSH1 0x1 DUP3 AND DUP1 PUSH2 0x1B3C JUMPI PUSH1 0x7F DUP3 AND SWAP2 POP JUMPDEST PUSH1 0x20 DUP3 LT DUP2 SUB PUSH2 0x1B4F JUMPI PUSH2 0x1B4E PUSH2 0x1AF5 JUMP JUMPDEST JUMPDEST POP SWAP2 SWAP1 POP JUMP JUMPDEST PUSH32 0x45787069726174696F6E2064617465206D75737420626520696E207468652066 PUSH1 0x0 DUP3 ADD MSTORE PUSH32 0x7574757265000000000000000000000000000000000000000000000000000000 PUSH1 0x20 DUP3 ADD MSTORE POP JUMP JUMPDEST PUSH1 0x0 PUSH2 0x1BB1 PUSH1 0x25 DUP4 PUSH2 0x1934 JUMP JUMPDEST SWAP2 POP PUSH2 0x1BBC DUP3 PUSH2 0x1B55 JUMP JUMPDEST PUSH1 0x40 DUP3 ADD SWAP1 POP SWAP2 SWAP1 POP JUMP JUMPDEST PUSH1 0x0 PUSH1 0x20 DUP3 ADD SWAP1 POP DUP2 DUP2 SUB PUSH1 0x0 DUP4 ADD MSTORE PUSH2 0x1BE0 DUP2 PUSH2 0x1BA4 JUMP JUMPDEST SWAP1 POP SWAP2 SWAP1 POP JUMP JUMPDEST PUSH32 0x526563697069656E742063616E6E6F74206265207A65726F2061646472657373 PUSH1 0x0 DUP3 ADD MSTORE POP JUMP JUMPDEST PUSH1 0x0 PUSH2 0x1C1D PUSH1 0x20 DUP4 PUSH2 0x1934 JUMP JUMPDEST SWAP2 POP PUSH2 0x1C28 DUP3 PUSH2 0x1BE7 JUMP JUMPDEST PUSH1 0x20 DUP3 ADD SWAP1 POP SWAP2 SWAP1 POP JUMP JUMPDEST PUSH1 0x0 PUSH1 0x20 DUP3 ADD SWAP1 POP DUP2 DUP2 SUB PUSH1 0x0 DUP4 ADD MSTORE PUSH2 0x1C4C DUP2 PUSH2 0x1C10 JUMP JUMPDEST SWAP1 POP SWAP2 SWAP1 POP JUMP JUMPDEST PUSH32 0x4E487B7100000000000000000000000000000000000000000000000000000000 PUSH1 0x0 MSTORE PUSH1 0x41 PUSH1 0x4 MSTORE PUSH1 0x24 PUSH1 0x0 REVERT JUMPDEST PUSH1 0x0 DUP2 SWAP1 POP DUP2 PUSH1 0x0 MSTORE PUSH1 0x20 PUSH1 0x0 KECCAK256 SWAP1 POP SWAP2 SWAP1 POP JUMP JUMPDEST PUSH1 0x0 PUSH1 0x20 PUSH1 0x1F DUP4 ADD DIV SWAP1 POP SWAP2 SWAP1 POP JUMP JUMPDEST PUSH1 0x0 DUP3 DUP3 SHL SWAP1 POP SWAP3 SWAP2 POP POP JUMP JUMPDEST PUSH1 0x0 PUSH1 0x8 DUP4 MUL PUSH2 0x1CE4 PUSH32 0xFFFFFFFFFFFFFFFFFFFFFFFFFFFFFFFFFFFFFFFFFFFFFFFFFFFFFFFFFFFFFFFF DUP3 PUSH2 0x1CA7 JUMP JUMPDEST PUSH2 0x1CEE DUP7 DUP4 PUSH2 0x1CA7 JUMP JUMPDEST SWAP6 POP DUP1 NOT DUP5 AND SWAP4 POP DUP1 DUP7 AND DUP5 OR SWAP3 POP POP POP SWAP4 SWAP3 POP POP POP JUMP JUMPDEST PUSH1 0x0 DUP2 SWAP1 POP SWAP2 SWAP1 POP JUMP JUMPDEST PUSH1 0x0 PUSH2 0x1D2B PUSH2 0x1D26 PUSH2 0x1D21 DUP5 PUSH2 0x14C0 JUMP JUMPDEST PUSH2 0x1D06 JUMP JUMPDEST PUSH2 0x14C0 JUMP JUMPDEST SWAP1 POP SWAP2 SWAP1 POP JUMP JUMPDEST PUSH1 0x0 DUP2 SWAP1 POP SWAP2 SWAP1 POP JUMP JUMPDEST PUSH2 0x1D45 DUP4 PUSH2 0x1D10 JUMP JUMPDEST PUSH2 0x1D59 PUSH2 0x1D51 DUP3 PUSH2 0x1D32 JUMP JUMPDEST DUP5 DUP5 SLOAD PUSH2 0x1CB4 JUMP JUMPDEST DUP3 SSTORE POP POP POP POP JUMP JUMPDEST PUSH1 0x0 SWAP1 JUMP JUMPDEST PUSH2 0x1D6E PUSH2 0x1D61 JUMP JUMPDEST PUSH2 0x1D79 DUP2 DUP5 DUP5 PUSH2 0x1D3C JUMP JUMPDEST POP POP POP JUMP JUMPDEST JUMPDEST DUP2 DUP2 LT ISZERO PUSH2 0x1D9D JUMPI PUSH2 0x1D92 PUSH1 0x0 DUP3 PUSH2 0x1D66 JUMP JUMPDEST PUSH1 0x1 DUP2 ADD SWAP1 POP PUSH2 0x1D7F JUMP JUMPDEST POP POP JUMP JUMPDEST PUSH1 0x1F DUP3 GT ISZERO PUSH2 0x1DE2 JUMPI PUSH2 0x1DB3 DUP2 PUSH2 0x1C82 JUMP JUMPDEST PUSH2 0x1DBC DUP5 PUSH2 0x1C97 JUMP JUMPDEST DUP2 ADD PUSH1 0x20 DUP6 LT ISZERO PUSH2 0x1DCB JUMPI DUP2 SWAP1 POP JUMPDEST PUSH2 0x1DDF PUSH2 0x1DD7 DUP6 PUSH2 0x1C97 JUMP JUMPDEST DUP4 ADD DUP3 PUSH2 0x1D7E JUMP JUMPDEST POP POP JUMPDEST POP POP POP JUMP JUMPDEST PUSH1 0x0 DUP3 DUP3 SHR SWAP1 POP SWAP3 SWAP2 POP POP JUMP JUMPDEST PUSH1 0x0 PUSH2 0x1E05 PUSH1 0x0 NOT DUP5 PUSH1 0x8 MUL PUSH2 0x1DE7 JUMP JUMPDEST NOT DUP1 DUP4 AND SWAP2 POP POP SWAP3 SWAP2 POP POP JUMP JUMPDEST PUSH1 0x0 PUSH2 0x1E1E DUP4 DUP4 PUSH2 0x1DF4 JUMP JUMPDEST SWAP2 POP DUP3 PUSH1 0x2 MUL DUP3 OR SWAP1 POP SWAP3 SWAP2 POP POP JUMP JUMPDEST PUSH2 0x1E37 DUP3 PUSH2 0x1627 JUMP JUMPDEST PUSH8 0xFFFFFFFFFFFFFFFF DUP2 GT ISZERO PUSH2 0x1E50 JUMPI PUSH2 0x1E4F PUSH2 0x1C53 JUMP JUMPDEST JUMPDEST PUSH2 0x1E5A DUP3 SLOAD PUSH2 0x1B24 JUMP JUMPDEST PUSH2 0x1E65 DUP3 DUP3 DUP6 PUSH2 0x1DA1 JUMP JUMPDEST PUSH1 0x0 PUSH1 0x20 SWAP1 POP PUSH1 0x1F DUP4 GT PUSH1 0x1 DUP2 EQ PUSH2 0x1E98 JUMPI PUSH1 0x0 DUP5 ISZERO PUSH2 0x1E86 JUMPI DUP3 DUP8 ADD MLOAD SWAP1 POP JUMPDEST PUSH2 0x1E90 DUP6 DUP3 PUSH2 0x1E12 JUMP JUMPDEST DUP7 SSTORE POP PUSH2 0x1EF8 JUMP JUMPDEST PUSH1 0x1F NOT DUP5 AND PUSH2 0x1EA6 DUP7 PUSH2 0x1C82 JUMP JUMPDEST PUSH1 0x0 JUMPDEST DUP3 DUP2 LT ISZERO PUSH2 0x1ECE JUMPI DUP5 DUP10 ADD MLOAD DUP3 SSTORE PUSH1 0x1 DUP3 ADD SWAP2 POP PUSH1 0x20 DUP6 ADD SWAP5 POP PUSH1 0x20 DUP2 ADD SWAP1 POP PUSH2 0x1EA9 JUMP JUMPDEST DUP7 DUP4 LT ISZERO PUSH2 0x1EEB JUMPI DUP5 DUP10 ADD MLOAD PUSH2 0x1EE7 PUSH1 0x1F DUP10 AND DUP3 PUSH2 0x1DF4 JUMP JUMPDEST DUP4 SSTORE POP JUMPDEST PUSH1 0x1 PUSH1 0x2 DUP9 MUL ADD DUP9 SSTORE POP POP POP JUMPDEST POP POP POP POP POP POP JUMP JUMPDEST DUP3 DUP2 DUP4 CALLDATACOPY PUSH1 0x0 DUP4 DUP4 ADD MSTORE POP POP POP JUMP JUMPDEST PUSH1 0x0 PUSH2 0x1F1B DUP4 DUP6 PUSH2 0x1632 JUMP JUMPDEST SWAP4 POP PUSH2 0x1F28 DUP4 DUP6 DUP5 PUSH2 0x1F00 JUMP JUMPDEST PUSH2 0x1F31 DUP4 PUSH2 0x166D JUMP JUMPDEST DUP5 ADD SWAP1 POP SWAP4 SWAP3 POP POP POP JUMP JUMPDEST PUSH1 0x0 PUSH1 0xA0 DUP3 ADD SWAP1 POP PUSH2 0x1F51 PUSH1 0x0 DUP4 ADD DUP10 PUSH2 0x15BF JUMP JUMPDEST PUSH2 0x1F5E PUSH1 0x20 DUP4 ADD DUP9 PUSH2 0x15BF JUMP JUMPDEST PUSH2 0x1F6B PUSH1 0x40 DUP4 ADD DUP8 PUSH2 0x15FD JUMP JUMPDEST PUSH2 0x1F78 PUSH1 0x60 DUP4 ADD DUP7 PUSH2 0x190A JUMP JUMPDEST DUP2 DUP2 SUB PUSH1 0x80 DUP4 ADD MSTORE PUSH2 0x1F8B DUP2 DUP5 DUP7 PUSH2 0x1F0F JUMP JUMPDEST SWAP1 POP SWAP8 SWAP7 POP POP POP POP POP POP POP JUMP INVALID LOG2 PUSH5 0x6970667358 0x22 SLT KECCAK256 0xF9 0xD PUSH20 0xDB5AE4790862C0C984D183983D50C4C4BE683C30 CREATE2 CODECOPY SLOAD PREVRANDAO 0x21 0xBA 0xCE SWAP9 DELEGATECALL PUSH5 0x736F6C6343 STOP ADDMOD SHR STOP CALLER "
        },
        "methodIdentifiers": {
          "grantRole(address,uint256,bytes32,address,uint64,bool,bytes)": "a1df0637",
          "isRoleApprovedForAll(address,address,address)": "d5ced376",
          "isRoleRevocable(address,uint256,bytes32)": "fe8dc863",
          "ownerOf(address,uint256)": "1f29d2dc",
          "recipientOf(address,uint256,bytes32)": "3f916b48",
          "revokeRole(address,uint256,bytes32)": "0adc11c0",
          "roleData(address,uint256,bytes32)": "6d2feecf",
          "roleExpirationDate(address,uint256,bytes32)": "65b0205b",
          "setRoleApprovalForAll(address,address,bool)": "a34adf0a"
        }
      }
    }
  }
}