{
  "contracts/StudentMgt.sol": {
    "StudentMgt": {
      "abi": [
        {
          "inputs": [],
          "stateMutability": "nonpayable",
          "type": "constructor"
        },
        {
          "inputs": [
            {
              "internalType": "uint256",
              "name": "_index",
              "type": "uint256"
            },
            {
              "internalType": "enum StudentMgt.Status",
              "name": "_newStatus",
              "type": "uint8"
            }
          ],
          "name": "changeStatus",
          "outputs": [],
          "stateMutability": "nonpayable",
          "type": "function"
        },
        {
          "inputs": [
            {
              "internalType": "uint256",
              "name": "_index",
              "type": "uint256"
            }
          ],
          "name": "deleteStudent",
          "outputs": [],
          "stateMutability": "nonpayable",
          "type": "function"
        },
        {
          "inputs": [
            {
              "internalType": "uint256",
              "name": "_studentId",
              "type": "uint256"
            }
          ],
          "name": "getStudentById",
          "outputs": [
            {
              "components": [
                {
                  "internalType": "string",
                  "name": "firstName",
                  "type": "string"
                },
                {
                  "internalType": "string",
                  "name": "lastName",
                  "type": "string"
                },
                {
                  "internalType": "string",
                  "name": "department",
                  "type": "string"
                },
                {
                  "internalType": "uint256",
                  "name": "studentId",
                  "type": "uint256"
                },
                {
                  "internalType": "uint8",
                  "name": "age",
                  "type": "uint8"
                },
                {
                  "internalType": "enum StudentMgt.Status",
                  "name": "status",
                  "type": "uint8"
                }
              ],
              "internalType": "struct StudentMgt.Student",
              "name": "student",
              "type": "tuple"
            }
          ],
          "stateMutability": "view",
          "type": "function"
        },
        {
          "inputs": [],
          "name": "getStudents",
          "outputs": [
            {
              "components": [
                {
                  "internalType": "string",
                  "name": "firstName",
                  "type": "string"
                },
                {
                  "internalType": "string",
                  "name": "lastName",
                  "type": "string"
                },
                {
                  "internalType": "string",
                  "name": "department",
                  "type": "string"
                },
                {
                  "internalType": "uint256",
                  "name": "studentId",
                  "type": "uint256"
                },
                {
                  "internalType": "uint8",
                  "name": "age",
                  "type": "uint8"
                },
                {
                  "internalType": "enum StudentMgt.Status",
                  "name": "status",
                  "type": "uint8"
                }
              ],
              "internalType": "struct StudentMgt.Student[]",
              "name": "",
              "type": "tuple[]"
            }
          ],
          "stateMutability": "view",
          "type": "function"
        },
        {
          "inputs": [
            {
              "internalType": "string",
              "name": "_firstName",
              "type": "string"
            },
            {
              "internalType": "string",
              "name": "_lastName",
              "type": "string"
            },
            {
              "internalType": "string",
              "name": "_department",
              "type": "string"
            },
            {
              "internalType": "uint256",
              "name": "_studentId",
              "type": "uint256"
            },
            {
              "internalType": "uint8",
              "name": "_age",
              "type": "uint8"
            }
          ],
          "name": "register",
          "outputs": [],
          "stateMutability": "nonpayable",
          "type": "function"
        },
        {
          "inputs": [
            {
              "internalType": "uint256",
              "name": "",
              "type": "uint256"
            }
          ],
          "name": "students",
          "outputs": [
            {
              "internalType": "string",
              "name": "firstName",
              "type": "string"
            },
            {
              "internalType": "string",
              "name": "lastName",
              "type": "string"
            },
            {
              "internalType": "string",
              "name": "department",
              "type": "string"
            },
            {
              "internalType": "uint256",
              "name": "studentId",
              "type": "uint256"
            },
            {
              "internalType": "uint8",
              "name": "age",
              "type": "uint8"
            },
            {
              "internalType": "enum StudentMgt.Status",
              "name": "status",
              "type": "uint8"
            }
          ],
          "stateMutability": "view",
          "type": "function"
        },
        {
          "inputs": [
            {
              "internalType": "uint256",
              "name": "_index",
              "type": "uint256"
            },
            {
              "internalType": "string",
              "name": "_newFirstName",
              "type": "string"
            },
            {
              "internalType": "string",
              "name": "_newLastName",
              "type": "string"
            },
            {
              "internalType": "string",
              "name": "_newDepartment",
              "type": "string"
            },
            {
              "internalType": "uint8",
              "name": "_newAge",
              "type": "uint8"
            }
          ],
          "name": "updateDetails",
          "outputs": [],
          "stateMutability": "nonpayable",
          "type": "function"
        }
      ],
      "evm": {
        "bytecode": {
          "linkReferences": {},
          "object": "6080604052348015600f57600080fd5b50600080819055506118fb806100266000396000f3fe608060405234801561001057600080fd5b506004361061007d5760003560e01c8063b645307d1161005b578063b645307d146100ef578063c5a8a2ab1461010b578063c8fb079314610127578063f1d064b3146101575761007d565b806306ead22e14610082578063a35e4244146100b7578063a551665e146100d3575b600080fd5b61009c60048036038101906100979190610cf1565b610175565b6040516100ae96959493929190610e50565b60405180910390f35b6100d160048036038101906100cc9190611027565b610373565b005b6100ed60048036038101906100e891906110f6565b610498565b005b61010960048036038101906101049190610cf1565b6105c3565b005b610125600480360381019061012091906111ea565b610692565b005b610141600480360381019061013c9190610cf1565b6106e3565b60405161014e9190611338565b60405180910390f35b61015f610988565b60405161016c91906114b3565b60405180910390f35b6001818154811061018557600080fd5b90600052602060002090600502016000915090508060000180546101a890611504565b80601f01602080910402602001604051908101604052809291908181526020018280546101d490611504565b80156102215780601f106101f657610100808354040283529160200191610221565b820191906000526020600020905b81548152906001019060200180831161020457829003601f168201915b50505050509080600101805461023690611504565b80601f016020809104026020016040519081016040528092919081815260200182805461026290611504565b80156102af5780601f10610284576101008083540402835291602001916102af565b820191906000526020600020905b81548152906001019060200180831161029257829003601f168201915b5050505050908060020180546102c490611504565b80601f01602080910402602001604051908101604052809291908181526020018280546102f090611504565b801561033d5780601f106103125761010080835404028352916020019161033d565b820191906000526020600020905b81548152906001019060200180831161032057829003601f168201915b5050505050908060030154908060040160009054906101000a900460ff16908060040160019054906101000a900460ff16905086565b60018054905085106103ba576040517f08c379a00000000000000000000000000000000000000000000000000000000081526004016103b190611581565b60405180910390fd5b83600186815481106103cf576103ce6115a1565b5b906000526020600020906005020160000190816103ec919061177c565b508260018681548110610402576104016115a1565b5b9060005260206000209060050201600101908161041f919061177c565b508160018681548110610435576104346115a1565b5b90600052602060002090600502016002019081610452919061177c565b508060018681548110610468576104676115a1565b5b906000526020600020906005020160040160006101000a81548160ff021916908360ff1602179055505050505050565b60016040518060c001604052808781526020018681526020018581526020018481526020018360ff168152602001600060028111156104da576104d9610dd9565b5b8152509080600181540180825580915050600190039060005260206000209060050201600090919091909150600082015181600001908161051b919061177c565b506020820151816001019081610531919061177c565b506040820151816002019081610547919061177c565b506060820151816003015560808201518160040160006101000a81548160ff021916908360ff16021790555060a08201518160040160016101000a81548160ff0219169083600281111561059e5761059d610dd9565b5b021790555050506000808154809291906105b79061187d565b91905055505050505050565b600180549050811061060a576040517f08c379a000000000000000000000000000000000000000000000000000000000815260040161060190611581565b60405180910390fd5b6001818154811061061e5761061d6115a1565b5b90600052602060002090600502016000808201600061063d9190610bff565b60018201600061064d9190610bff565b60028201600061065d9190610bff565b60038201600090556004820160006101000a81549060ff02191690556004820160016101000a81549060ff0219169055505050565b80600183815481106106a7576106a66115a1565b5b906000526020600020906005020160040160016101000a81548160ff021916908360028111156106da576106d9610dd9565b5b02179055505050565b6106eb610c3f565b60005b6001805490508110156109815782600182815481106107105761070f6115a1565b5b90600052602060002090600502016003015403610974576001818154811061073b5761073a6115a1565b5b90600052602060002090600502016040518060c001604052908160008201805461076490611504565b80601f016020809104026020016040519081016040528092919081815260200182805461079090611504565b80156107dd5780601f106107b2576101008083540402835291602001916107dd565b820191906000526020600020905b8154815290600101906020018083116107c057829003601f168201915b505050505081526020016001820180546107f690611504565b80601f016020809104026020016040519081016040528092919081815260200182805461082290611504565b801561086f5780601f106108445761010080835404028352916020019161086f565b820191906000526020600020905b81548152906001019060200180831161085257829003601f168201915b5050505050815260200160028201805461088890611504565b80601f01602080910402602001604051908101604052809291908181526020018280546108b490611504565b80156109015780601f106108d657610100808354040283529160200191610901565b820191906000526020600020905b8154815290600101906020018083116108e457829003601f168201915b50505050508152602001600382015481526020016004820160009054906101000a900460ff1660ff1660ff1681526020016004820160019054906101000a900460ff16600281111561095657610955610dd9565b5b600281111561096857610967610dd9565b5b81525050915050610983565b80806001019150506106ee565b505b919050565b60606001805480602002602001604051908101604052809291908181526020016000905b82821015610bf657838290600052602060002090600502016040518060c00160405290816000820180546109df90611504565b80601f0160208091040260200160405190810160405280929190818152602001828054610a0b90611504565b8015610a585780601f10610a2d57610100808354040283529160200191610a58565b820191906000526020600020905b815481529060010190602001808311610a3b57829003601f168201915b50505050508152602001600182018054610a7190611504565b80601f0160208091040260200160405190810160405280929190818152602001828054610a9d90611504565b8015610aea5780601f10610abf57610100808354040283529160200191610aea565b820191906000526020600020905b815481529060010190602001808311610acd57829003601f168201915b50505050508152602001600282018054610b0390611504565b80601f0160208091040260200160405190810160405280929190818152602001828054610b2f90611504565b8015610b7c5780601f10610b5157610100808354040283529160200191610b7c565b820191906000526020600020905b815481529060010190602001808311610b5f57829003601f168201915b50505050508152602001600382015481526020016004820160009054906101000a900460ff1660ff1660ff1681526020016004820160019054906101000a900460ff166002811115610bd157610bd0610dd9565b5b6002811115610be357610be2610dd9565b5b81525050815260200190600101906109ac565b50505050905090565b508054610c0b90611504565b6000825580601f10610c1d5750610c3c565b601f016020900490600052602060002090810190610c3b9190610c8a565b5b50565b6040518060c0016040528060608152602001606081526020016060815260200160008152602001600060ff16815260200160006002811115610c8457610c83610dd9565b5b81525090565b5b80821115610ca3576000816000905550600101610c8b565b5090565b6000604051905090565b600080fd5b600080fd5b6000819050919050565b610cce81610cbb565b8114610cd957600080fd5b50565b600081359050610ceb81610cc5565b92915050565b600060208284031215610d0757610d06610cb1565b5b6000610d1584828501610cdc565b91505092915050565b600081519050919050565b600082825260208201905092915050565b60005b83811015610d58578082015181840152602081019050610d3d565b60008484015250505050565b6000601f19601f8301169050919050565b6000610d8082610d1e565b610d8a8185610d29565b9350610d9a818560208601610d3a565b610da381610d64565b840191505092915050565b610db781610cbb565b82525050565b600060ff82169050919050565b610dd381610dbd565b82525050565b7f4e487b7100000000000000000000000000000000000000000000000000000000600052602160045260246000fd5b60038110610e1957610e18610dd9565b5b50565b6000819050610e2a82610e08565b919050565b6000610e3a82610e1c565b9050919050565b610e4a81610e2f565b82525050565b600060c0820190508181036000830152610e6a8189610d75565b90508181036020830152610e7e8188610d75565b90508181036040830152610e928187610d75565b9050610ea16060830186610dae565b610eae6080830185610dca565b610ebb60a0830184610e41565b979650505050505050565b600080fd5b600080fd5b7f4e487b7100000000000000000000000000000000000000000000000000000000600052604160045260246000fd5b610f0882610d64565b810181811067ffffffffffffffff82111715610f2757610f26610ed0565b5b80604052505050565b6000610f3a610ca7565b9050610f468282610eff565b919050565b600067ffffffffffffffff821115610f6657610f65610ed0565b5b610f6f82610d64565b9050602081019050919050565b82818337600083830152505050565b6000610f9e610f9984610f4b565b610f30565b905082815260208101848484011115610fba57610fb9610ecb565b5b610fc5848285610f7c565b509392505050565b600082601f830112610fe257610fe1610ec6565b5b8135610ff2848260208601610f8b565b91505092915050565b61100481610dbd565b811461100f57600080fd5b50565b60008135905061102181610ffb565b92915050565b600080600080600060a0868803121561104357611042610cb1565b5b600061105188828901610cdc565b955050602086013567ffffffffffffffff81111561107257611071610cb6565b5b61107e88828901610fcd565b945050604086013567ffffffffffffffff81111561109f5761109e610cb6565b5b6110ab88828901610fcd565b935050606086013567ffffffffffffffff8111156110cc576110cb610cb6565b5b6110d888828901610fcd565b92505060806110e988828901611012565b9150509295509295909350565b600080600080600060a0868803121561111257611111610cb1565b5b600086013567ffffffffffffffff8111156111305761112f610cb6565b5b61113c88828901610fcd565b955050602086013567ffffffffffffffff81111561115d5761115c610cb6565b5b61116988828901610fcd565b945050604086013567ffffffffffffffff81111561118a57611189610cb6565b5b61119688828901610fcd565b93505060606111a788828901610cdc565b92505060806111b888828901611012565b9150509295509295909350565b600381106111d257600080fd5b50565b6000813590506111e4816111c5565b92915050565b6000806040838503121561120157611200610cb1565b5b600061120f85828601610cdc565b9250506020611220858286016111d5565b9150509250929050565b600082825260208201905092915050565b600061124682610d1e565b611250818561122a565b9350611260818560208601610d3a565b61126981610d64565b840191505092915050565b61127d81610cbb565b82525050565b61128c81610dbd565b82525050565b61129b81610e2f565b82525050565b600060c08301600083015184820360008601526112be828261123b565b915050602083015184820360208601526112d8828261123b565b915050604083015184820360408601526112f2828261123b565b91505060608301516113076060860182611274565b50608083015161131a6080860182611283565b5060a083015161132d60a0860182611292565b508091505092915050565b6000602082019050818103600083015261135281846112a1565b905092915050565b600081519050919050565b600082825260208201905092915050565b6000819050602082019050919050565b600060c08301600083015184820360008601526113a3828261123b565b915050602083015184820360208601526113bd828261123b565b915050604083015184820360408601526113d7828261123b565b91505060608301516113ec6060860182611274565b5060808301516113ff6080860182611283565b5060a083015161141260a0860182611292565b508091505092915050565b60006114298383611386565b905092915050565b6000602082019050919050565b60006114498261135a565b6114538185611365565b93508360208202850161146585611376565b8060005b858110156114a15784840389528151611482858261141d565b945061148d83611431565b925060208a01995050600181019050611469565b50829750879550505050505092915050565b600060208201905081810360008301526114cd818461143e565b905092915050565b7f4e487b7100000000000000000000000000000000000000000000000000000000600052602260045260246000fd5b6000600282049050600182168061151c57607f821691505b60208210810361152f5761152e6114d5565b5b50919050565b7f4e6f205265636f72647320466f756e6400000000000000000000000000000000600082015250565b600061156b601083610d29565b915061157682611535565b602082019050919050565b6000602082019050818103600083015261159a8161155e565b9050919050565b7f4e487b7100000000000000000000000000000000000000000000000000000000600052603260045260246000fd5b60008190508160005260206000209050919050565b60006020601f8301049050919050565b600082821b905092915050565b6000600883026116327fffffffffffffffffffffffffffffffffffffffffffffffffffffffffffffffff826115f5565b61163c86836115f5565b95508019841693508086168417925050509392505050565b6000819050919050565b600061167961167461166f84610cbb565b611654565b610cbb565b9050919050565b6000819050919050565b6116938361165e565b6116a761169f82611680565b848454611602565b825550505050565b600090565b6116bc6116af565b6116c781848461168a565b505050565b5b818110156116eb576116e06000826116b4565b6001810190506116cd565b5050565b601f82111561173057611701816115d0565b61170a846115e5565b81016020851015611719578190505b61172d611725856115e5565b8301826116cc565b50505b505050565b600082821c905092915050565b600061175360001984600802611735565b1980831691505092915050565b600061176c8383611742565b9150826002028217905092915050565b61178582610d1e565b67ffffffffffffffff81111561179e5761179d610ed0565b5b6117a88254611504565b6117b38282856116ef565b600060209050601f8311600181146117e657600084156117d4578287015190505b6117de8582611760565b865550611846565b601f1984166117f4866115d0565b60005b8281101561181c578489015182556001820191506020850194506020810190506117f7565b868310156118395784890151611835601f891682611742565b8355505b6001600288020188555050505b505050505050565b7f4e487b7100000000000000000000000000000000000000000000000000000000600052601160045260246000fd5b600061188882610cbb565b91507fffffffffffffffffffffffffffffffffffffffffffffffffffffffffffffffff82036118ba576118b961184e565b5b60018201905091905056fea264697066735822122030b2e437b066c152963a54b19bdab919586bb85b634411e108bf7ff568f20b5264736f6c634300081c0033",
          "opcodes": "PUSH1 0x80 PUSH1 0x40 MSTORE CALLVALUE DUP1 ISZERO PUSH1 0xF JUMPI PUSH1 0x0 DUP1 REVERT JUMPDEST POP PUSH1 0x0 DUP1 DUP2 SWAP1 SSTORE POP PUSH2 0x18FB DUP1 PUSH2 0x26 PUSH1 0x0 CODECOPY PUSH1 0x0 RETURN INVALID PUSH1 0x80 PUSH1 0x40 MSTORE CALLVALUE DUP1 ISZERO PUSH2 0x10 JUMPI PUSH1 0x0 DUP1 REVERT JUMPDEST POP PUSH1 0x4 CALLDATASIZE LT PUSH2 0x7D JUMPI PUSH1 0x0 CALLDATALOAD PUSH1 0xE0 SHR DUP1 PUSH4 0xB645307D GT PUSH2 0x5B JUMPI DUP1 PUSH4 0xB645307D EQ PUSH2 0xEF JUMPI DUP1 PUSH4 0xC5A8A2AB EQ PUSH2 0x10B JUMPI DUP1 PUSH4 0xC8FB0793 EQ PUSH2 0x127 JUMPI DUP1 PUSH4 0xF1D064B3 EQ PUSH2 0x157 JUMPI PUSH2 0x7D JUMP JUMPDEST DUP1 PUSH4 0x6EAD22E EQ PUSH2 0x82 JUMPI DUP1 PUSH4 0xA35E4244 EQ PUSH2 0xB7 JUMPI DUP1 PUSH4 0xA551665E EQ PUSH2 0xD3 JUMPI JUMPDEST PUSH1 0x0 DUP1 REVERT JUMPDEST PUSH2 0x9C PUSH1 0x4 DUP1 CALLDATASIZE SUB DUP2 ADD SWAP1 PUSH2 0x97 SWAP2 SWAP1 PUSH2 0xCF1 JUMP JUMPDEST PUSH2 0x175 JUMP JUMPDEST PUSH1 0x40 MLOAD PUSH2 0xAE SWAP7 SWAP6 SWAP5 SWAP4 SWAP3 SWAP2 SWAP1 PUSH2 0xE50 JUMP JUMPDEST PUSH1 0x40 MLOAD DUP1 SWAP2 SUB SWAP1 RETURN JUMPDEST PUSH2 0xD1 PUSH1 0x4 DUP1 CALLDATASIZE SUB DUP2 ADD SWAP1 PUSH2 0xCC SWAP2 SWAP1 PUSH2 0x1027 JUMP JUMPDEST PUSH2 0x373 JUMP JUMPDEST STOP JUMPDEST PUSH2 0xED PUSH1 0x4 DUP1 CALLDATASIZE SUB DUP2 ADD SWAP1 PUSH2 0xE8 SWAP2 SWAP1 PUSH2 0x10F6 JUMP JUMPDEST PUSH2 0x498 JUMP JUMPDEST STOP JUMPDEST PUSH2 0x109 PUSH1 0x4 DUP1 CALLDATASIZE SUB DUP2 ADD SWAP1 PUSH2 0x104 SWAP2 SWAP1 PUSH2 0xCF1 JUMP JUMPDEST PUSH2 0x5C3 JUMP JUMPDEST STOP JUMPDEST PUSH2 0x125 PUSH1 0x4 DUP1 CALLDATASIZE SUB DUP2 ADD SWAP1 PUSH2 0x120 SWAP2 SWAP1 PUSH2 0x11EA JUMP JUMPDEST PUSH2 0x692 JUMP JUMPDEST STOP JUMPDEST PUSH2 0x141 PUSH1 0x4 DUP1 CALLDATASIZE SUB DUP2 ADD SWAP1 PUSH2 0x13C SWAP2 SWAP1 PUSH2 0xCF1 JUMP JUMPDEST PUSH2 0x6E3 JUMP JUMPDEST PUSH1 0x40 MLOAD PUSH2 0x14E SWAP2 SWAP1 PUSH2 0x1338 JUMP JUMPDEST PUSH1 0x40 MLOAD DUP1 SWAP2 SUB SWAP1 RETURN JUMPDEST PUSH2 0x15F PUSH2 0x988 JUMP JUMPDEST PUSH1 0x40 MLOAD PUSH2 0x16C SWAP2 SWAP1 PUSH2 0x14B3 JUMP JUMPDEST PUSH1 0x40 MLOAD DUP1 SWAP2 SUB SWAP1 RETURN JUMPDEST PUSH1 0x1 DUP2 DUP2 SLOAD DUP2 LT PUSH2 0x185 JUMPI PUSH1 0x0 DUP1 REVERT JUMPDEST SWAP1 PUSH1 0x0 MSTORE PUSH1 0x20 PUSH1 0x0 KECCAK256 SWAP1 PUSH1 0x5 MUL ADD PUSH1 0x0 SWAP2 POP SWAP1 POP DUP1 PUSH1 0x0 ADD DUP1 SLOAD PUSH2 0x1A8 SWAP1 PUSH2 0x1504 JUMP JUMPDEST DUP1 PUSH1 0x1F ADD PUSH1 0x20 DUP1 SWAP2 DIV MUL PUSH1 0x20 ADD PUSH1 0x40 MLOAD SWAP1 DUP2 ADD PUSH1 0x40 MSTORE DUP1 SWAP3 SWAP2 SWAP1 DUP2 DUP2 MSTORE PUSH1 0x20 ADD DUP3 DUP1 SLOAD PUSH2 0x1D4 SWAP1 PUSH2 0x1504 JUMP JUMPDEST DUP1 ISZERO PUSH2 0x221 JUMPI DUP1 PUSH1 0x1F LT PUSH2 0x1F6 JUMPI PUSH2 0x100 DUP1 DUP4 SLOAD DIV MUL DUP4 MSTORE SWAP2 PUSH1 0x20 ADD SWAP2 PUSH2 0x221 JUMP JUMPDEST DUP3 ADD SWAP2 SWAP1 PUSH1 0x0 MSTORE PUSH1 0x20 PUSH1 0x0 KECCAK256 SWAP1 JUMPDEST DUP2 SLOAD DUP2 MSTORE SWAP1 PUSH1 0x1 ADD SWAP1 PUSH1 0x20 ADD DUP1 DUP4 GT PUSH2 0x204 JUMPI DUP3 SWAP1 SUB PUSH1 0x1F AND DUP3 ADD SWAP2 JUMPDEST POP POP POP POP POP SWAP1 DUP1 PUSH1 0x1 ADD DUP1 SLOAD PUSH2 0x236 SWAP1 PUSH2 0x1504 JUMP JUMPDEST DUP1 PUSH1 0x1F ADD PUSH1 0x20 DUP1 SWAP2 DIV MUL PUSH1 0x20 ADD PUSH1 0x40 MLOAD SWAP1 DUP2 ADD PUSH1 0x40 MSTORE DUP1 SWAP3 SWAP2 SWAP1 DUP2 DUP2 MSTORE PUSH1 0x20 ADD DUP3 DUP1 SLOAD PUSH2 0x262 SWAP1 PUSH2 0x1504 JUMP JUMPDEST DUP1 ISZERO PUSH2 0x2AF JUMPI DUP1 PUSH1 0x1F LT PUSH2 0x284 JUMPI PUSH2 0x100 DUP1 DUP4 SLOAD DIV MUL DUP4 MSTORE SWAP2 PUSH1 0x20 ADD SWAP2 PUSH2 0x2AF JUMP JUMPDEST DUP3 ADD SWAP2 SWAP1 PUSH1 0x0 MSTORE PUSH1 0x20 PUSH1 0x0 KECCAK256 SWAP1 JUMPDEST DUP2 SLOAD DUP2 MSTORE SWAP1 PUSH1 0x1 ADD SWAP1 PUSH1 0x20 ADD DUP1 DUP4 GT PUSH2 0x292 JUMPI DUP3 SWAP1 SUB PUSH1 0x1F AND DUP3 ADD SWAP2 JUMPDEST POP POP POP POP POP SWAP1 DUP1 PUSH1 0x2 ADD DUP1 SLOAD PUSH2 0x2C4 SWAP1 PUSH2 0x1504 JUMP JUMPDEST DUP1 PUSH1 0x1F ADD PUSH1 0x20 DUP1 SWAP2 DIV MUL PUSH1 0x20 ADD PUSH1 0x40 MLOAD SWAP1 DUP2 ADD PUSH1 0x40 MSTORE DUP1 SWAP3 SWAP2 SWAP1 DUP2 DUP2 MSTORE PUSH1 0x20 ADD DUP3 DUP1 SLOAD PUSH2 0x2F0 SWAP1 PUSH2 0x1504 JUMP JUMPDEST DUP1 ISZERO PUSH2 0x33D JUMPI DUP1 PUSH1 0x1F LT PUSH2 0x312 JUMPI PUSH2 0x100 DUP1 DUP4 SLOAD DIV MUL DUP4 MSTORE SWAP2 PUSH1 0x20 ADD SWAP2 PUSH2 0x33D JUMP JUMPDEST DUP3 ADD SWAP2 SWAP1 PUSH1 0x0 MSTORE PUSH1 0x20 PUSH1 0x0 KECCAK256 SWAP1 JUMPDEST DUP2 SLOAD DUP2 MSTORE SWAP1 PUSH1 0x1 ADD SWAP1 PUSH1 0x20 ADD DUP1 DUP4 GT PUSH2 0x320 JUMPI DUP3 SWAP1 SUB PUSH1 0x1F AND DUP3 ADD SWAP2 JUMPDEST POP POP POP POP POP SWAP1 DUP1 PUSH1 0x3 ADD SLOAD SWAP1 DUP1 PUSH1 0x4 ADD PUSH1 0x0 SWAP1 SLOAD SWAP1 PUSH2 0x100 EXP SWAP1 DIV PUSH1 0xFF AND SWAP1 DUP1 PUSH1 0x4 ADD PUSH1 0x1 SWAP1 SLOAD SWAP1 PUSH2 0x100 EXP SWAP1 DIV PUSH1 0xFF AND SWAP1 POP DUP7 JUMP JUMPDEST PUSH1 0x1 DUP1 SLOAD SWAP1 POP DUP6 LT PUSH2 0x3BA JUMPI PUSH1 0x40 MLOAD PUSH32 0x8C379A000000000000000000000000000000000000000000000000000000000 DUP2 MSTORE PUSH1 0x4 ADD PUSH2 0x3B1 SWAP1 PUSH2 0x1581 JUMP JUMPDEST PUSH1 0x40 MLOAD DUP1 SWAP2 SUB SWAP1 REVERT JUMPDEST DUP4 PUSH1 0x1 DUP7 DUP2 SLOAD DUP2 LT PUSH2 0x3CF JUMPI PUSH2 0x3CE PUSH2 0x15A1 JUMP JUMPDEST JUMPDEST SWAP1 PUSH1 0x0 MSTORE PUSH1 0x20 PUSH1 0x0 KECCAK256 SWAP1 PUSH1 0x5 MUL ADD PUSH1 0x0 ADD SWAP1 DUP2 PUSH2 0x3EC SWAP2 SWAP1 PUSH2 0x177C JUMP JUMPDEST POP DUP3 PUSH1 0x1 DUP7 DUP2 SLOAD DUP2 LT PUSH2 0x402 JUMPI PUSH2 0x401 PUSH2 0x15A1 JUMP JUMPDEST JUMPDEST SWAP1 PUSH1 0x0 MSTORE PUSH1 0x20 PUSH1 0x0 KECCAK256 SWAP1 PUSH1 0x5 MUL ADD PUSH1 0x1 ADD SWAP1 DUP2 PUSH2 0x41F SWAP2 SWAP1 PUSH2 0x177C JUMP JUMPDEST POP DUP2 PUSH1 0x1 DUP7 DUP2 SLOAD DUP2 LT PUSH2 0x435 JUMPI PUSH2 0x434 PUSH2 0x15A1 JUMP JUMPDEST JUMPDEST SWAP1 PUSH1 0x0 MSTORE PUSH1 0x20 PUSH1 0x0 KECCAK256 SWAP1 PUSH1 0x5 MUL ADD PUSH1 0x2 ADD SWAP1 DUP2 PUSH2 0x452 SWAP2 SWAP1 PUSH2 0x177C JUMP JUMPDEST POP DUP1 PUSH1 0x1 DUP7 DUP2 SLOAD DUP2 LT PUSH2 0x468 JUMPI PUSH2 0x467 PUSH2 0x15A1 JUMP JUMPDEST JUMPDEST SWAP1 PUSH1 0x0 MSTORE PUSH1 0x20 PUSH1 0x0 KECCAK256 SWAP1 PUSH1 0x5 MUL ADD PUSH1 0x4 ADD PUSH1 0x0 PUSH2 0x100 EXP DUP2 SLOAD DUP2 PUSH1 0xFF MUL NOT AND SWAP1 DUP4 PUSH1 0xFF AND MUL OR SWAP1 SSTORE POP POP POP POP POP POP JUMP JUMPDEST PUSH1 0x1 PUSH1 0x40 MLOAD DUP1 PUSH1 0xC0 ADD PUSH1 0x40 MSTORE DUP1 DUP8 DUP2 MSTORE PUSH1 0x20 ADD DUP7 DUP2 MSTORE PUSH1 0x20 ADD DUP6 DUP2 MSTORE PUSH1 0x20 ADD DUP5 DUP2 MSTORE PUSH1 0x20 ADD DUP4 PUSH1 0xFF AND DUP2 MSTORE PUSH1 0x20 ADD PUSH1 0x0 PUSH1 0x2 DUP2 GT ISZERO PUSH2 0x4DA JUMPI PUSH2 0x4D9 PUSH2 0xDD9 JUMP JUMPDEST JUMPDEST DUP2 MSTORE POP SWAP1 DUP1 PUSH1 0x1 DUP2 SLOAD ADD DUP1 DUP3 SSTORE DUP1 SWAP2 POP POP PUSH1 0x1 SWAP1 SUB SWAP1 PUSH1 0x0 MSTORE PUSH1 0x20 PUSH1 0x0 KECCAK256 SWAP1 PUSH1 0x5 MUL ADD PUSH1 0x0 SWAP1 SWAP2 SWAP1 SWAP2 SWAP1 SWAP2 POP PUSH1 0x0 DUP3 ADD MLOAD DUP2 PUSH1 0x0 ADD SWAP1 DUP2 PUSH2 0x51B SWAP2 SWAP1 PUSH2 0x177C JUMP JUMPDEST POP PUSH1 0x20 DUP3 ADD MLOAD DUP2 PUSH1 0x1 ADD SWAP1 DUP2 PUSH2 0x531 SWAP2 SWAP1 PUSH2 0x177C JUMP JUMPDEST POP PUSH1 0x40 DUP3 ADD MLOAD DUP2 PUSH1 0x2 ADD SWAP1 DUP2 PUSH2 0x547 SWAP2 SWAP1 PUSH2 0x177C JUMP JUMPDEST POP PUSH1 0x60 DUP3 ADD MLOAD DUP2 PUSH1 0x3 ADD SSTORE PUSH1 0x80 DUP3 ADD MLOAD DUP2 PUSH1 0x4 ADD PUSH1 0x0 PUSH2 0x100 EXP DUP2 SLOAD DUP2 PUSH1 0xFF MUL NOT AND SWAP1 DUP4 PUSH1 0xFF AND MUL OR SWAP1 SSTORE POP PUSH1 0xA0 DUP3 ADD MLOAD DUP2 PUSH1 0x4 ADD PUSH1 0x1 PUSH2 0x100 EXP DUP2 SLOAD DUP2 PUSH1 0xFF MUL NOT AND SWAP1 DUP4 PUSH1 0x2 DUP2 GT ISZERO PUSH2 0x59E JUMPI PUSH2 0x59D PUSH2 0xDD9 JUMP JUMPDEST JUMPDEST MUL OR SWAP1 SSTORE POP POP POP PUSH1 0x0 DUP1 DUP2 SLOAD DUP1 SWAP3 SWAP2 SWAP1 PUSH2 0x5B7 SWAP1 PUSH2 0x187D JUMP JUMPDEST SWAP2 SWAP1 POP SSTORE POP POP POP POP POP POP JUMP JUMPDEST PUSH1 0x1 DUP1 SLOAD SWAP1 POP DUP2 LT PUSH2 0x60A JUMPI PUSH1 0x40 MLOAD PUSH32 0x8C379A000000000000000000000000000000000000000000000000000000000 DUP2 MSTORE PUSH1 0x4 ADD PUSH2 0x601 SWAP1 PUSH2 0x1581 JUMP JUMPDEST PUSH1 0x40 MLOAD DUP1 SWAP2 SUB SWAP1 REVERT JUMPDEST PUSH1 0x1 DUP2 DUP2 SLOAD DUP2 LT PUSH2 0x61E JUMPI PUSH2 0x61D PUSH2 0x15A1 JUMP JUMPDEST JUMPDEST SWAP1 PUSH1 0x0 MSTORE PUSH1 0x20 PUSH1 0x0 KECCAK256 SWAP1 PUSH1 0x5 MUL ADD PUSH1 0x0 DUP1 DUP3 ADD PUSH1 0x0 PUSH2 0x63D SWAP2 SWAP1 PUSH2 0xBFF JUMP JUMPDEST PUSH1 0x1 DUP3 ADD PUSH1 0x0 PUSH2 0x64D SWAP2 SWAP1 PUSH2 0xBFF JUMP JUMPDEST PUSH1 0x2 DUP3 ADD PUSH1 0x0 PUSH2 0x65D SWAP2 SWAP1 PUSH2 0xBFF JUMP JUMPDEST PUSH1 0x3 DUP3 ADD PUSH1 0x0 SWAP1 SSTORE PUSH1 0x4 DUP3 ADD PUSH1 0x0 PUSH2 0x100 EXP DUP2 SLOAD SWAP1 PUSH1 0xFF MUL NOT AND SWAP1 SSTORE PUSH1 0x4 DUP3 ADD PUSH1 0x1 PUSH2 0x100 EXP DUP2 SLOAD SWAP1 PUSH1 0xFF MUL NOT AND SWAP1 SSTORE POP POP POP JUMP JUMPDEST DUP1 PUSH1 0x1 DUP4 DUP2 SLOAD DUP2 LT PUSH2 0x6A7 JUMPI PUSH2 0x6A6 PUSH2 0x15A1 JUMP JUMPDEST JUMPDEST SWAP1 PUSH1 0x0 MSTORE PUSH1 0x20 PUSH1 0x0 KECCAK256 SWAP1 PUSH1 0x5 MUL ADD PUSH1 0x4 ADD PUSH1 0x1 PUSH2 0x100 EXP DUP2 SLOAD DUP2 PUSH1 0xFF MUL NOT AND SWAP1 DUP4 PUSH1 0x2 DUP2 GT ISZERO PUSH2 0x6DA JUMPI PUSH2 0x6D9 PUSH2 0xDD9 JUMP JUMPDEST JUMPDEST MUL OR SWAP1 SSTORE POP POP POP JUMP JUMPDEST PUSH2 0x6EB PUSH2 0xC3F JUMP JUMPDEST PUSH1 0x0 JUMPDEST PUSH1 0x1 DUP1 SLOAD SWAP1 POP DUP2 LT ISZERO PUSH2 0x981 JUMPI DUP3 PUSH1 0x1 DUP3 DUP2 SLOAD DUP2 LT PUSH2 0x710 JUMPI PUSH2 0x70F PUSH2 0x15A1 JUMP JUMPDEST JUMPDEST SWAP1 PUSH1 0x0 MSTORE PUSH1 0x20 PUSH1 0x0 KECCAK256 SWAP1 PUSH1 0x5 MUL ADD PUSH1 0x3 ADD SLOAD SUB PUSH2 0x974 JUMPI PUSH1 0x1 DUP2 DUP2 SLOAD DUP2 LT PUSH2 0x73B JUMPI PUSH2 0x73A PUSH2 0x15A1 JUMP JUMPDEST JUMPDEST SWAP1 PUSH1 0x0 MSTORE PUSH1 0x20 PUSH1 0x0 KECCAK256 SWAP1 PUSH1 0x5 MUL ADD PUSH1 0x40 MLOAD DUP1 PUSH1 0xC0 ADD PUSH1 0x40 MSTORE SWAP1 DUP2 PUSH1 0x0 DUP3 ADD DUP1 SLOAD PUSH2 0x764 SWAP1 PUSH2 0x1504 JUMP JUMPDEST DUP1 PUSH1 0x1F ADD PUSH1 0x20 DUP1 SWAP2 DIV MUL PUSH1 0x20 ADD PUSH1 0x40 MLOAD SWAP1 DUP2 ADD PUSH1 0x40 MSTORE DUP1 SWAP3 SWAP2 SWAP1 DUP2 DUP2 MSTORE PUSH1 0x20 ADD DUP3 DUP1 SLOAD PUSH2 0x790 SWAP1 PUSH2 0x1504 JUMP JUMPDEST DUP1 ISZERO PUSH2 0x7DD JUMPI DUP1 PUSH1 0x1F LT PUSH2 0x7B2 JUMPI PUSH2 0x100 DUP1 DUP4 SLOAD DIV MUL DUP4 MSTORE SWAP2 PUSH1 0x20 ADD SWAP2 PUSH2 0x7DD JUMP JUMPDEST DUP3 ADD SWAP2 SWAP1 PUSH1 0x0 MSTORE PUSH1 0x20 PUSH1 0x0 KECCAK256 SWAP1 JUMPDEST DUP2 SLOAD DUP2 MSTORE SWAP1 PUSH1 0x1 ADD SWAP1 PUSH1 0x20 ADD DUP1 DUP4 GT PUSH2 0x7C0 JUMPI DUP3 SWAP1 SUB PUSH1 0x1F AND DUP3 ADD SWAP2 JUMPDEST POP POP POP POP POP DUP2 MSTORE PUSH1 0x20 ADD PUSH1 0x1 DUP3 ADD DUP1 SLOAD PUSH2 0x7F6 SWAP1 PUSH2 0x1504 JUMP JUMPDEST DUP1 PUSH1 0x1F ADD PUSH1 0x20 DUP1 SWAP2 DIV MUL PUSH1 0x20 ADD PUSH1 0x40 MLOAD SWAP1 DUP2 ADD PUSH1 0x40 MSTORE DUP1 SWAP3 SWAP2 SWAP1 DUP2 DUP2 MSTORE PUSH1 0x20 ADD DUP3 DUP1 SLOAD PUSH2 0x822 SWAP1 PUSH2 0x1504 JUMP JUMPDEST DUP1 ISZERO PUSH2 0x86F JUMPI DUP1 PUSH1 0x1F LT PUSH2 0x844 JUMPI PUSH2 0x100 DUP1 DUP4 SLOAD DIV MUL DUP4 MSTORE SWAP2 PUSH1 0x20 ADD SWAP2 PUSH2 0x86F JUMP JUMPDEST DUP3 ADD SWAP2 SWAP1 PUSH1 0x0 MSTORE PUSH1 0x20 PUSH1 0x0 KECCAK256 SWAP1 JUMPDEST DUP2 SLOAD DUP2 MSTORE SWAP1 PUSH1 0x1 ADD SWAP1 PUSH1 0x20 ADD DUP1 DUP4 GT PUSH2 0x852 JUMPI DUP3 SWAP1 SUB PUSH1 0x1F AND DUP3 ADD SWAP2 JUMPDEST POP POP POP POP POP DUP2 MSTORE PUSH1 0x20 ADD PUSH1 0x2 DUP3 ADD DUP1 SLOAD PUSH2 0x888 SWAP1 PUSH2 0x1504 JUMP JUMPDEST DUP1 PUSH1 0x1F ADD PUSH1 0x20 DUP1 SWAP2 DIV MUL PUSH1 0x20 ADD PUSH1 0x40 MLOAD SWAP1 DUP2 ADD PUSH1 0x40 MSTORE DUP1 SWAP3 SWAP2 SWAP1 DUP2 DUP2 MSTORE PUSH1 0x20 ADD DUP3 DUP1 SLOAD PUSH2 0x8B4 SWAP1 PUSH2 0x1504 JUMP JUMPDEST DUP1 ISZERO PUSH2 0x901 JUMPI DUP1 PUSH1 0x1F LT PUSH2 0x8D6 JUMPI PUSH2 0x100 DUP1 DUP4 SLOAD DIV MUL DUP4 MSTORE SWAP2 PUSH1 0x20 ADD SWAP2 PUSH2 0x901 JUMP JUMPDEST DUP3 ADD SWAP2 SWAP1 PUSH1 0x0 MSTORE PUSH1 0x20 PUSH1 0x0 KECCAK256 SWAP1 JUMPDEST DUP2 SLOAD DUP2 MSTORE SWAP1 PUSH1 0x1 ADD SWAP1 PUSH1 0x20 ADD DUP1 DUP4 GT PUSH2 0x8E4 JUMPI DUP3 SWAP1 SUB PUSH1 0x1F AND DUP3 ADD SWAP2 JUMPDEST POP POP POP POP POP DUP2 MSTORE PUSH1 0x20 ADD PUSH1 0x3 DUP3 ADD SLOAD DUP2 MSTORE PUSH1 0x20 ADD PUSH1 0x4 DUP3 ADD PUSH1 0x0 SWAP1 SLOAD SWAP1 PUSH2 0x100 EXP SWAP1 DIV PUSH1 0xFF AND PUSH1 0xFF AND PUSH1 0xFF AND DUP2 MSTORE PUSH1 0x20 ADD PUSH1 0x4 DUP3 ADD PUSH1 0x1 SWAP1 SLOAD SWAP1 PUSH2 0x100 EXP SWAP1 DIV PUSH1 0xFF AND PUSH1 0x2 DUP2 GT ISZERO PUSH2 0x956 JUMPI PUSH2 0x955 PUSH2 0xDD9 JUMP JUMPDEST JUMPDEST PUSH1 0x2 DUP2 GT ISZERO PUSH2 0x968 JUMPI PUSH2 0x967 PUSH2 0xDD9 JUMP JUMPDEST JUMPDEST DUP2 MSTORE POP POP SWAP2 POP POP PUSH2 0x983 JUMP JUMPDEST DUP1 DUP1 PUSH1 0x1 ADD SWAP2 POP POP PUSH2 0x6EE JUMP JUMPDEST POP JUMPDEST SWAP2 SWAP1 POP JUMP JUMPDEST PUSH1 0x60 PUSH1 0x1 DUP1 SLOAD DUP1 PUSH1 0x20 MUL PUSH1 0x20 ADD PUSH1 0x40 MLOAD SWAP1 DUP2 ADD PUSH1 0x40 MSTORE DUP1 SWAP3 SWAP2 SWAP1 DUP2 DUP2 MSTORE PUSH1 0x20 ADD PUSH1 0x0 SWAP1 JUMPDEST DUP3 DUP3 LT ISZERO PUSH2 0xBF6 JUMPI DUP4 DUP3 SWAP1 PUSH1 0x0 MSTORE PUSH1 0x20 PUSH1 0x0 KECCAK256 SWAP1 PUSH1 0x5 MUL ADD PUSH1 0x40 MLOAD DUP1 PUSH1 0xC0 ADD PUSH1 0x40 MSTORE SWAP1 DUP2 PUSH1 0x0 DUP3 ADD DUP1 SLOAD PUSH2 0x9DF SWAP1 PUSH2 0x1504 JUMP JUMPDEST DUP1 PUSH1 0x1F ADD PUSH1 0x20 DUP1 SWAP2 DIV MUL PUSH1 0x20 ADD PUSH1 0x40 MLOAD SWAP1 DUP2 ADD PUSH1 0x40 MSTORE DUP1 SWAP3 SWAP2 SWAP1 DUP2 DUP2 MSTORE PUSH1 0x20 ADD DUP3 DUP1 SLOAD PUSH2 0xA0B SWAP1 PUSH2 0x1504 JUMP JUMPDEST DUP1 ISZERO PUSH2 0xA58 JUMPI DUP1 PUSH1 0x1F LT PUSH2 0xA2D JUMPI PUSH2 0x100 DUP1 DUP4 SLOAD DIV MUL DUP4 MSTORE SWAP2 PUSH1 0x20 ADD SWAP2 PUSH2 0xA58 JUMP JUMPDEST DUP3 ADD SWAP2 SWAP1 PUSH1 0x0 MSTORE PUSH1 0x20 PUSH1 0x0 KECCAK256 SWAP1 JUMPDEST DUP2 SLOAD DUP2 MSTORE SWAP1 PUSH1 0x1 ADD SWAP1 PUSH1 0x20 ADD DUP1 DUP4 GT PUSH2 0xA3B JUMPI DUP3 SWAP1 SUB PUSH1 0x1F AND DUP3 ADD SWAP2 JUMPDEST POP POP POP POP POP DUP2 MSTORE PUSH1 0x20 ADD PUSH1 0x1 DUP3 ADD DUP1 SLOAD PUSH2 0xA71 SWAP1 PUSH2 0x1504 JUMP JUMPDEST DUP1 PUSH1 0x1F ADD PUSH1 0x20 DUP1 SWAP2 DIV MUL PUSH1 0x20 ADD PUSH1 0x40 MLOAD SWAP1 DUP2 ADD PUSH1 0x40 MSTORE DUP1 SWAP3 SWAP2 SWAP1 DUP2 DUP2 MSTORE PUSH1 0x20 ADD DUP3 DUP1 SLOAD PUSH2 0xA9D SWAP1 PUSH2 0x1504 JUMP JUMPDEST DUP1 ISZERO PUSH2 0xAEA JUMPI DUP1 PUSH1 0x1F LT PUSH2 0xABF JUMPI PUSH2 0x100 DUP1 DUP4 SLOAD DIV MUL DUP4 MSTORE SWAP2 PUSH1 0x20 ADD SWAP2 PUSH2 0xAEA JUMP JUMPDEST DUP3 ADD SWAP2 SWAP1 PUSH1 0x0 MSTORE PUSH1 0x20 PUSH1 0x0 KECCAK256 SWAP1 JUMPDEST DUP2 SLOAD DUP2 MSTORE SWAP1 PUSH1 0x1 ADD SWAP1 PUSH1 0x20 ADD DUP1 DUP4 GT PUSH2 0xACD JUMPI DUP3 SWAP1 SUB PUSH1 0x1F AND DUP3 ADD SWAP2 JUMPDEST POP POP POP POP POP DUP2 MSTORE PUSH1 0x20 ADD PUSH1 0x2 DUP3 ADD DUP1 SLOAD PUSH2 0xB03 SWAP1 PUSH2 0x1504 JUMP JUMPDEST DUP1 PUSH1 0x1F ADD PUSH1 0x20 DUP1 SWAP2 DIV MUL PUSH1 0x20 ADD PUSH1 0x40 MLOAD SWAP1 DUP2 ADD PUSH1 0x40 MSTORE DUP1 SWAP3 SWAP2 SWAP1 DUP2 DUP2 MSTORE PUSH1 0x20 ADD DUP3 DUP1 SLOAD PUSH2 0xB2F SWAP1 PUSH2 0x1504 JUMP JUMPDEST DUP1 ISZERO PUSH2 0xB7C JUMPI DUP1 PUSH1 0x1F LT PUSH2 0xB51 JUMPI PUSH2 0x100 DUP1 DUP4 SLOAD DIV MUL DUP4 MSTORE SWAP2 PUSH1 0x20 ADD SWAP2 PUSH2 0xB7C JUMP JUMPDEST DUP3 ADD SWAP2 SWAP1 PUSH1 0x0 MSTORE PUSH1 0x20 PUSH1 0x0 KECCAK256 SWAP1 JUMPDEST DUP2 SLOAD DUP2 MSTORE SWAP1 PUSH1 0x1 ADD SWAP1 PUSH1 0x20 ADD DUP1 DUP4 GT PUSH2 0xB5F JUMPI DUP3 SWAP1 SUB PUSH1 0x1F AND DUP3 ADD SWAP2 JUMPDEST POP POP POP POP POP DUP2 MSTORE PUSH1 0x20 ADD PUSH1 0x3 DUP3 ADD SLOAD DUP2 MSTORE PUSH1 0x20 ADD PUSH1 0x4 DUP3 ADD PUSH1 0x0 SWAP1 SLOAD SWAP1 PUSH2 0x100 EXP SWAP1 DIV PUSH1 0xFF AND PUSH1 0xFF AND PUSH1 0xFF AND DUP2 MSTORE PUSH1 0x20 ADD PUSH1 0x4 DUP3 ADD PUSH1 0x1 SWAP1 SLOAD SWAP1 PUSH2 0x100 EXP SWAP1 DIV PUSH1 0xFF AND PUSH1 0x2 DUP2 GT ISZERO PUSH2 0xBD1 JUMPI PUSH2 0xBD0 PUSH2 0xDD9 JUMP JUMPDEST JUMPDEST PUSH1 0x2 DUP2 GT ISZERO PUSH2 0xBE3 JUMPI PUSH2 0xBE2 PUSH2 0xDD9 JUMP JUMPDEST JUMPDEST DUP2 MSTORE POP POP DUP2 MSTORE PUSH1 0x20 ADD SWAP1 PUSH1 0x1 ADD SWAP1 PUSH2 0x9AC JUMP JUMPDEST POP POP POP POP SWAP1 POP SWAP1 JUMP JUMPDEST POP DUP1 SLOAD PUSH2 0xC0B SWAP1 PUSH2 0x1504 JUMP JUMPDEST PUSH1 0x0 DUP3 SSTORE DUP1 PUSH1 0x1F LT PUSH2 0xC1D JUMPI POP PUSH2 0xC3C JUMP JUMPDEST PUSH1 0x1F ADD PUSH1 0x20 SWAP1 DIV SWAP1 PUSH1 0x0 MSTORE PUSH1 0x20 PUSH1 0x0 KECCAK256 SWAP1 DUP2 ADD SWAP1 PUSH2 0xC3B SWAP2 SWAP1 PUSH2 0xC8A JUMP JUMPDEST JUMPDEST POP JUMP JUMPDEST PUSH1 0x40 MLOAD DUP1 PUSH1 0xC0 ADD PUSH1 0x40 MSTORE DUP1 PUSH1 0x60 DUP2 MSTORE PUSH1 0x20 ADD PUSH1 0x60 DUP2 MSTORE PUSH1 0x20 ADD PUSH1 0x60 DUP2 MSTORE PUSH1 0x20 ADD PUSH1 0x0 DUP2 MSTORE PUSH1 0x20 ADD PUSH1 0x0 PUSH1 0xFF AND DUP2 MSTORE PUSH1 0x20 ADD PUSH1 0x0 PUSH1 0x2 DUP2 GT ISZERO PUSH2 0xC84 JUMPI PUSH2 0xC83 PUSH2 0xDD9 JUMP JUMPDEST JUMPDEST DUP2 MSTORE POP SWAP1 JUMP JUMPDEST JUMPDEST DUP1 DUP3 GT ISZERO PUSH2 0xCA3 JUMPI PUSH1 0x0 DUP2 PUSH1 0x0 SWAP1 SSTORE POP PUSH1 0x1 ADD PUSH2 0xC8B JUMP JUMPDEST POP SWAP1 JUMP JUMPDEST PUSH1 0x0 PUSH1 0x40 MLOAD SWAP1 POP SWAP1 JUMP JUMPDEST PUSH1 0x0 DUP1 REVERT JUMPDEST PUSH1 0x0 DUP1 REVERT JUMPDEST PUSH1 0x0 DUP2 SWAP1 POP SWAP2 SWAP1 POP JUMP JUMPDEST PUSH2 0xCCE DUP2 PUSH2 0xCBB JUMP JUMPDEST DUP2 EQ PUSH2 0xCD9 JUMPI PUSH1 0x0 DUP1 REVERT JUMPDEST POP JUMP JUMPDEST PUSH1 0x0 DUP2 CALLDATALOAD SWAP1 POP PUSH2 0xCEB DUP2 PUSH2 0xCC5 JUMP JUMPDEST SWAP3 SWAP2 POP POP JUMP JUMPDEST PUSH1 0x0 PUSH1 0x20 DUP3 DUP5 SUB SLT ISZERO PUSH2 0xD07 JUMPI PUSH2 0xD06 PUSH2 0xCB1 JUMP JUMPDEST JUMPDEST PUSH1 0x0 PUSH2 0xD15 DUP5 DUP3 DUP6 ADD PUSH2 0xCDC JUMP JUMPDEST SWAP2 POP POP SWAP3 SWAP2 POP POP JUMP JUMPDEST PUSH1 0x0 DUP2 MLOAD SWAP1 POP SWAP2 SWAP1 POP JUMP JUMPDEST PUSH1 0x0 DUP3 DUP3 MSTORE PUSH1 0x20 DUP3 ADD SWAP1 POP SWAP3 SWAP2 POP POP JUMP JUMPDEST PUSH1 0x0 JUMPDEST DUP4 DUP2 LT ISZERO PUSH2 0xD58 JUMPI DUP1 DUP3 ADD MLOAD DUP2 DUP5 ADD MSTORE PUSH1 0x20 DUP2 ADD SWAP1 POP PUSH2 0xD3D JUMP JUMPDEST PUSH1 0x0 DUP5 DUP5 ADD MSTORE POP POP POP POP JUMP JUMPDEST PUSH1 0x0 PUSH1 0x1F NOT PUSH1 0x1F DUP4 ADD AND SWAP1 POP SWAP2 SWAP1 POP JUMP JUMPDEST PUSH1 0x0 PUSH2 0xD80 DUP3 PUSH2 0xD1E JUMP JUMPDEST PUSH2 0xD8A DUP2 DUP6 PUSH2 0xD29 JUMP JUMPDEST SWAP4 POP PUSH2 0xD9A DUP2 DUP6 PUSH1 0x20 DUP7 ADD PUSH2 0xD3A JUMP JUMPDEST PUSH2 0xDA3 DUP2 PUSH2 0xD64 JUMP JUMPDEST DUP5 ADD SWAP2 POP POP SWAP3 SWAP2 POP POP JUMP JUMPDEST PUSH2 0xDB7 DUP2 PUSH2 0xCBB JUMP JUMPDEST DUP3 MSTORE POP POP JUMP JUMPDEST PUSH1 0x0 PUSH1 0xFF DUP3 AND SWAP1 POP SWAP2 SWAP1 POP JUMP JUMPDEST PUSH2 0xDD3 DUP2 PUSH2 0xDBD JUMP JUMPDEST DUP3 MSTORE POP POP JUMP JUMPDEST PUSH32 0x4E487B7100000000000000000000000000000000000000000000000000000000 PUSH1 0x0 MSTORE PUSH1 0x21 PUSH1 0x4 MSTORE PUSH1 0x24 PUSH1 0x0 REVERT JUMPDEST PUSH1 0x3 DUP2 LT PUSH2 0xE19 JUMPI PUSH2 0xE18 PUSH2 0xDD9 JUMP JUMPDEST JUMPDEST POP JUMP JUMPDEST PUSH1 0x0 DUP2 SWAP1 POP PUSH2 0xE2A DUP3 PUSH2 0xE08 JUMP JUMPDEST SWAP2 SWAP1 POP JUMP JUMPDEST PUSH1 0x0 PUSH2 0xE3A DUP3 PUSH2 0xE1C JUMP JUMPDEST SWAP1 POP SWAP2 SWAP1 POP JUMP JUMPDEST PUSH2 0xE4A DUP2 PUSH2 0xE2F JUMP JUMPDEST DUP3 MSTORE POP POP JUMP JUMPDEST PUSH1 0x0 PUSH1 0xC0 DUP3 ADD SWAP1 POP DUP2 DUP2 SUB PUSH1 0x0 DUP4 ADD MSTORE PUSH2 0xE6A DUP2 DUP10 PUSH2 0xD75 JUMP JUMPDEST SWAP1 POP DUP2 DUP2 SUB PUSH1 0x20 DUP4 ADD MSTORE PUSH2 0xE7E DUP2 DUP9 PUSH2 0xD75 JUMP JUMPDEST SWAP1 POP DUP2 DUP2 SUB PUSH1 0x40 DUP4 ADD MSTORE PUSH2 0xE92 DUP2 DUP8 PUSH2 0xD75 JUMP JUMPDEST SWAP1 POP PUSH2 0xEA1 PUSH1 0x60 DUP4 ADD DUP7 PUSH2 0xDAE JUMP JUMPDEST PUSH2 0xEAE PUSH1 0x80 DUP4 ADD DUP6 PUSH2 0xDCA JUMP JUMPDEST PUSH2 0xEBB PUSH1 0xA0 DUP4 ADD DUP5 PUSH2 0xE41 JUMP JUMPDEST SWAP8 SWAP7 POP POP POP POP POP POP POP JUMP JUMPDEST PUSH1 0x0 DUP1 REVERT JUMPDEST PUSH1 0x0 DUP1 REVERT JUMPDEST PUSH32 0x4E487B7100000000000000000000000000000000000000000000000000000000 PUSH1 0x0 MSTORE PUSH1 0x41 PUSH1 0x4 MSTORE PUSH1 0x24 PUSH1 0x0 REVERT JUMPDEST PUSH2 0xF08 DUP3 PUSH2 0xD64 JUMP JUMPDEST DUP2 ADD DUP2 DUP2 LT PUSH8 0xFFFFFFFFFFFFFFFF DUP3 GT OR ISZERO PUSH2 0xF27 JUMPI PUSH2 0xF26 PUSH2 0xED0 JUMP JUMPDEST JUMPDEST DUP1 PUSH1 0x40 MSTORE POP POP POP JUMP JUMPDEST PUSH1 0x0 PUSH2 0xF3A PUSH2 0xCA7 JUMP JUMPDEST SWAP1 POP PUSH2 0xF46 DUP3 DUP3 PUSH2 0xEFF JUMP JUMPDEST SWAP2 SWAP1 POP JUMP JUMPDEST PUSH1 0x0 PUSH8 0xFFFFFFFFFFFFFFFF DUP3 GT ISZERO PUSH2 0xF66 JUMPI PUSH2 0xF65 PUSH2 0xED0 JUMP JUMPDEST JUMPDEST PUSH2 0xF6F DUP3 PUSH2 0xD64 JUMP JUMPDEST SWAP1 POP PUSH1 0x20 DUP2 ADD SWAP1 POP SWAP2 SWAP1 POP JUMP JUMPDEST DUP3 DUP2 DUP4 CALLDATACOPY PUSH1 0x0 DUP4 DUP4 ADD MSTORE POP POP POP JUMP JUMPDEST PUSH1 0x0 PUSH2 0xF9E PUSH2 0xF99 DUP5 PUSH2 0xF4B JUMP JUMPDEST PUSH2 0xF30 JUMP JUMPDEST SWAP1 POP DUP3 DUP2 MSTORE PUSH1 0x20 DUP2 ADD DUP5 DUP5 DUP5 ADD GT ISZERO PUSH2 0xFBA JUMPI PUSH2 0xFB9 PUSH2 0xECB JUMP JUMPDEST JUMPDEST PUSH2 0xFC5 DUP5 DUP3 DUP6 PUSH2 0xF7C JUMP JUMPDEST POP SWAP4 SWAP3 POP POP POP JUMP JUMPDEST PUSH1 0x0 DUP3 PUSH1 0x1F DUP4 ADD SLT PUSH2 0xFE2 JUMPI PUSH2 0xFE1 PUSH2 0xEC6 JUMP JUMPDEST JUMPDEST DUP2 CALLDATALOAD PUSH2 0xFF2 DUP5 DUP3 PUSH1 0x20 DUP7 ADD PUSH2 0xF8B JUMP JUMPDEST SWAP2 POP POP SWAP3 SWAP2 POP POP JUMP JUMPDEST PUSH2 0x1004 DUP2 PUSH2 0xDBD JUMP JUMPDEST DUP2 EQ PUSH2 0x100F JUMPI PUSH1 0x0 DUP1 REVERT JUMPDEST POP JUMP JUMPDEST PUSH1 0x0 DUP2 CALLDATALOAD SWAP1 POP PUSH2 0x1021 DUP2 PUSH2 0xFFB JUMP JUMPDEST SWAP3 SWAP2 POP POP JUMP JUMPDEST PUSH1 0x0 DUP1 PUSH1 0x0 DUP1 PUSH1 0x0 PUSH1 0xA0 DUP7 DUP9 SUB SLT ISZERO PUSH2 0x1043 JUMPI PUSH2 0x1042 PUSH2 0xCB1 JUMP JUMPDEST JUMPDEST PUSH1 0x0 PUSH2 0x1051 DUP9 DUP3 DUP10 ADD PUSH2 0xCDC JUMP JUMPDEST SWAP6 POP POP PUSH1 0x20 DUP7 ADD CALLDATALOAD PUSH8 0xFFFFFFFFFFFFFFFF DUP2 GT ISZERO PUSH2 0x1072 JUMPI PUSH2 0x1071 PUSH2 0xCB6 JUMP JUMPDEST JUMPDEST PUSH2 0x107E DUP9 DUP3 DUP10 ADD PUSH2 0xFCD JUMP JUMPDEST SWAP5 POP POP PUSH1 0x40 DUP7 ADD CALLDATALOAD PUSH8 0xFFFFFFFFFFFFFFFF DUP2 GT ISZERO PUSH2 0x109F JUMPI PUSH2 0x109E PUSH2 0xCB6 JUMP JUMPDEST JUMPDEST PUSH2 0x10AB DUP9 DUP3 DUP10 ADD PUSH2 0xFCD JUMP JUMPDEST SWAP4 POP POP PUSH1 0x60 DUP7 ADD CALLDATALOAD PUSH8 0xFFFFFFFFFFFFFFFF DUP2 GT ISZERO PUSH2 0x10CC JUMPI PUSH2 0x10CB PUSH2 0xCB6 JUMP JUMPDEST JUMPDEST PUSH2 0x10D8 DUP9 DUP3 DUP10 ADD PUSH2 0xFCD JUMP JUMPDEST SWAP3 POP POP PUSH1 0x80 PUSH2 0x10E9 DUP9 DUP3 DUP10 ADD PUSH2 0x1012 JUMP JUMPDEST SWAP2 POP POP SWAP3 SWAP6 POP SWAP3 SWAP6 SWAP1 SWAP4 POP JUMP JUMPDEST PUSH1 0x0 DUP1 PUSH1 0x0 DUP1 PUSH1 0x0 PUSH1 0xA0 DUP7 DUP9 SUB SLT ISZERO PUSH2 0x1112 JUMPI PUSH2 0x1111 PUSH2 0xCB1 JUMP JUMPDEST JUMPDEST PUSH1 0x0 DUP7 ADD CALLDATALOAD PUSH8 0xFFFFFFFFFFFFFFFF DUP2 GT ISZERO PUSH2 0x1130 JUMPI PUSH2 0x112F PUSH2 0xCB6 JUMP JUMPDEST JUMPDEST PUSH2 0x113C DUP9 DUP3 DUP10 ADD PUSH2 0xFCD JUMP JUMPDEST SWAP6 POP POP PUSH1 0x20 DUP7 ADD CALLDATALOAD PUSH8 0xFFFFFFFFFFFFFFFF DUP2 GT ISZERO PUSH2 0x115D JUMPI PUSH2 0x115C PUSH2 0xCB6 JUMP JUMPDEST JUMPDEST PUSH2 0x1169 DUP9 DUP3 DUP10 ADD PUSH2 0xFCD JUMP JUMPDEST SWAP5 POP POP PUSH1 0x40 DUP7 ADD CALLDATALOAD PUSH8 0xFFFFFFFFFFFFFFFF DUP2 GT ISZERO PUSH2 0x118A JUMPI PUSH2 0x1189 PUSH2 0xCB6 JUMP JUMPDEST JUMPDEST PUSH2 0x1196 DUP9 DUP3 DUP10 ADD PUSH2 0xFCD JUMP JUMPDEST SWAP4 POP POP PUSH1 0x60 PUSH2 0x11A7 DUP9 DUP3 DUP10 ADD PUSH2 0xCDC JUMP JUMPDEST SWAP3 POP POP PUSH1 0x80 PUSH2 0x11B8 DUP9 DUP3 DUP10 ADD PUSH2 0x1012 JUMP JUMPDEST SWAP2 POP POP SWAP3 SWAP6 POP SWAP3 SWAP6 SWAP1 SWAP4 POP JUMP JUMPDEST PUSH1 0x3 DUP2 LT PUSH2 0x11D2 JUMPI PUSH1 0x0 DUP1 REVERT JUMPDEST POP JUMP JUMPDEST PUSH1 0x0 DUP2 CALLDATALOAD SWAP1 POP PUSH2 0x11E4 DUP2 PUSH2 0x11C5 JUMP JUMPDEST SWAP3 SWAP2 POP POP JUMP JUMPDEST PUSH1 0x0 DUP1 PUSH1 0x40 DUP4 DUP6 SUB SLT ISZERO PUSH2 0x1201 JUMPI PUSH2 0x1200 PUSH2 0xCB1 JUMP JUMPDEST JUMPDEST PUSH1 0x0 PUSH2 0x120F DUP6 DUP3 DUP7 ADD PUSH2 0xCDC JUMP JUMPDEST SWAP3 POP POP PUSH1 0x20 PUSH2 0x1220 DUP6 DUP3 DUP7 ADD PUSH2 0x11D5 JUMP JUMPDEST SWAP2 POP POP SWAP3 POP SWAP3 SWAP1 POP JUMP JUMPDEST PUSH1 0x0 DUP3 DUP3 MSTORE PUSH1 0x20 DUP3 ADD SWAP1 POP SWAP3 SWAP2 POP POP JUMP JUMPDEST PUSH1 0x0 PUSH2 0x1246 DUP3 PUSH2 0xD1E JUMP JUMPDEST PUSH2 0x1250 DUP2 DUP6 PUSH2 0x122A JUMP JUMPDEST SWAP4 POP PUSH2 0x1260 DUP2 DUP6 PUSH1 0x20 DUP7 ADD PUSH2 0xD3A JUMP JUMPDEST PUSH2 0x1269 DUP2 PUSH2 0xD64 JUMP JUMPDEST DUP5 ADD SWAP2 POP POP SWAP3 SWAP2 POP POP JUMP JUMPDEST PUSH2 0x127D DUP2 PUSH2 0xCBB JUMP JUMPDEST DUP3 MSTORE POP POP JUMP JUMPDEST PUSH2 0x128C DUP2 PUSH2 0xDBD JUMP JUMPDEST DUP3 MSTORE POP POP JUMP JUMPDEST PUSH2 0x129B DUP2 PUSH2 0xE2F JUMP JUMPDEST DUP3 MSTORE POP POP JUMP JUMPDEST PUSH1 0x0 PUSH1 0xC0 DUP4 ADD PUSH1 0x0 DUP4 ADD MLOAD DUP5 DUP3 SUB PUSH1 0x0 DUP7 ADD MSTORE PUSH2 0x12BE DUP3 DUP3 PUSH2 0x123B JUMP JUMPDEST SWAP2 POP POP PUSH1 0x20 DUP4 ADD MLOAD DUP5 DUP3 SUB PUSH1 0x20 DUP7 ADD MSTORE PUSH2 0x12D8 DUP3 DUP3 PUSH2 0x123B JUMP JUMPDEST SWAP2 POP POP PUSH1 0x40 DUP4 ADD MLOAD DUP5 DUP3 SUB PUSH1 0x40 DUP7 ADD MSTORE PUSH2 0x12F2 DUP3 DUP3 PUSH2 0x123B JUMP JUMPDEST SWAP2 POP POP PUSH1 0x60 DUP4 ADD MLOAD PUSH2 0x1307 PUSH1 0x60 DUP7 ADD DUP3 PUSH2 0x1274 JUMP JUMPDEST POP PUSH1 0x80 DUP4 ADD MLOAD PUSH2 0x131A PUSH1 0x80 DUP7 ADD DUP3 PUSH2 0x1283 JUMP JUMPDEST POP PUSH1 0xA0 DUP4 ADD MLOAD PUSH2 0x132D PUSH1 0xA0 DUP7 ADD DUP3 PUSH2 0x1292 JUMP JUMPDEST POP DUP1 SWAP2 POP POP SWAP3 SWAP2 POP POP JUMP JUMPDEST PUSH1 0x0 PUSH1 0x20 DUP3 ADD SWAP1 POP DUP2 DUP2 SUB PUSH1 0x0 DUP4 ADD MSTORE PUSH2 0x1352 DUP2 DUP5 PUSH2 0x12A1 JUMP JUMPDEST SWAP1 POP SWAP3 SWAP2 POP POP JUMP JUMPDEST PUSH1 0x0 DUP2 MLOAD SWAP1 POP SWAP2 SWAP1 POP JUMP JUMPDEST PUSH1 0x0 DUP3 DUP3 MSTORE PUSH1 0x20 DUP3 ADD SWAP1 POP SWAP3 SWAP2 POP POP JUMP JUMPDEST PUSH1 0x0 DUP2 SWAP1 POP PUSH1 0x20 DUP3 ADD SWAP1 POP SWAP2 SWAP1 POP JUMP JUMPDEST PUSH1 0x0 PUSH1 0xC0 DUP4 ADD PUSH1 0x0 DUP4 ADD MLOAD DUP5 DUP3 SUB PUSH1 0x0 DUP7 ADD MSTORE PUSH2 0x13A3 DUP3 DUP3 PUSH2 0x123B JUMP JUMPDEST SWAP2 POP POP PUSH1 0x20 DUP4 ADD MLOAD DUP5 DUP3 SUB PUSH1 0x20 DUP7 ADD MSTORE PUSH2 0x13BD DUP3 DUP3 PUSH2 0x123B JUMP JUMPDEST SWAP2 POP POP PUSH1 0x40 DUP4 ADD MLOAD DUP5 DUP3 SUB PUSH1 0x40 DUP7 ADD MSTORE PUSH2 0x13D7 DUP3 DUP3 PUSH2 0x123B JUMP JUMPDEST SWAP2 POP POP PUSH1 0x60 DUP4 ADD MLOAD PUSH2 0x13EC PUSH1 0x60 DUP7 ADD DUP3 PUSH2 0x1274 JUMP JUMPDEST POP PUSH1 0x80 DUP4 ADD MLOAD PUSH2 0x13FF PUSH1 0x80 DUP7 ADD DUP3 PUSH2 0x1283 JUMP JUMPDEST POP PUSH1 0xA0 DUP4 ADD MLOAD PUSH2 0x1412 PUSH1 0xA0 DUP7 ADD DUP3 PUSH2 0x1292 JUMP JUMPDEST POP DUP1 SWAP2 POP POP SWAP3 SWAP2 POP POP JUMP JUMPDEST PUSH1 0x0 PUSH2 0x1429 DUP4 DUP4 PUSH2 0x1386 JUMP JUMPDEST SWAP1 POP SWAP3 SWAP2 POP POP JUMP JUMPDEST PUSH1 0x0 PUSH1 0x20 DUP3 ADD SWAP1 POP SWAP2 SWAP1 POP JUMP JUMPDEST PUSH1 0x0 PUSH2 0x1449 DUP3 PUSH2 0x135A JUMP JUMPDEST PUSH2 0x1453 DUP2 DUP6 PUSH2 0x1365 JUMP JUMPDEST SWAP4 POP DUP4 PUSH1 0x20 DUP3 MUL DUP6 ADD PUSH2 0x1465 DUP6 PUSH2 0x1376 JUMP JUMPDEST DUP1 PUSH1 0x0 JUMPDEST DUP6 DUP2 LT ISZERO PUSH2 0x14A1 JUMPI DUP5 DUP5 SUB DUP10 MSTORE DUP2 MLOAD PUSH2 0x1482 DUP6 DUP3 PUSH2 0x141D JUMP JUMPDEST SWAP5 POP PUSH2 0x148D DUP4 PUSH2 0x1431 JUMP JUMPDEST SWAP3 POP PUSH1 0x20 DUP11 ADD SWAP10 POP POP PUSH1 0x1 DUP2 ADD SWAP1 POP PUSH2 0x1469 JUMP JUMPDEST POP DUP3 SWAP8 POP DUP8 SWAP6 POP POP POP POP POP POP SWAP3 SWAP2 POP POP JUMP JUMPDEST PUSH1 0x0 PUSH1 0x20 DUP3 ADD SWAP1 POP DUP2 DUP2 SUB PUSH1 0x0 DUP4 ADD MSTORE PUSH2 0x14CD DUP2 DUP5 PUSH2 0x143E JUMP JUMPDEST SWAP1 POP SWAP3 SWAP2 POP POP JUMP JUMPDEST PUSH32 0x4E487B7100000000000000000000000000000000000000000000000000000000 PUSH1 0x0 MSTORE PUSH1 0x22 PUSH1 0x4 MSTORE PUSH1 0x24 PUSH1 0x0 REVERT JUMPDEST PUSH1 0x0 PUSH1 0x2 DUP3 DIV SWAP1 POP PUSH1 0x1 DUP3 AND DUP1 PUSH2 0x151C JUMPI PUSH1 0x7F DUP3 AND SWAP2 POP JUMPDEST PUSH1 0x20 DUP3 LT DUP2 SUB PUSH2 0x152F JUMPI PUSH2 0x152E PUSH2 0x14D5 JUMP JUMPDEST JUMPDEST POP SWAP2 SWAP1 POP JUMP JUMPDEST PUSH32 0x4E6F205265636F72647320466F756E6400000000000000000000000000000000 PUSH1 0x0 DUP3 ADD MSTORE POP JUMP JUMPDEST PUSH1 0x0 PUSH2 0x156B PUSH1 0x10 DUP4 PUSH2 0xD29 JUMP JUMPDEST SWAP2 POP PUSH2 0x1576 DUP3 PUSH2 0x1535 JUMP JUMPDEST PUSH1 0x20 DUP3 ADD SWAP1 POP SWAP2 SWAP1 POP JUMP JUMPDEST PUSH1 0x0 PUSH1 0x20 DUP3 ADD SWAP1 POP DUP2 DUP2 SUB PUSH1 0x0 DUP4 ADD MSTORE PUSH2 0x159A DUP2 PUSH2 0x155E JUMP JUMPDEST SWAP1 POP SWAP2 SWAP1 POP JUMP JUMPDEST PUSH32 0x4E487B7100000000000000000000000000000000000000000000000000000000 PUSH1 0x0 MSTORE PUSH1 0x32 PUSH1 0x4 MSTORE PUSH1 0x24 PUSH1 0x0 REVERT JUMPDEST PUSH1 0x0 DUP2 SWAP1 POP DUP2 PUSH1 0x0 MSTORE PUSH1 0x20 PUSH1 0x0 KECCAK256 SWAP1 POP SWAP2 SWAP1 POP JUMP JUMPDEST PUSH1 0x0 PUSH1 0x20 PUSH1 0x1F DUP4 ADD DIV SWAP1 POP SWAP2 SWAP1 POP JUMP JUMPDEST PUSH1 0x0 DUP3 DUP3 SHL SWAP1 POP SWAP3 SWAP2 POP POP JUMP JUMPDEST PUSH1 0x0 PUSH1 0x8 DUP4 MUL PUSH2 0x1632 PUSH32 0xFFFFFFFFFFFFFFFFFFFFFFFFFFFFFFFFFFFFFFFFFFFFFFFFFFFFFFFFFFFFFFFF DUP3 PUSH2 0x15F5 JUMP JUMPDEST PUSH2 0x163C DUP7 DUP4 PUSH2 0x15F5 JUMP JUMPDEST SWAP6 POP DUP1 NOT DUP5 AND SWAP4 POP DUP1 DUP7 AND DUP5 OR SWAP3 POP POP POP SWAP4 SWAP3 POP POP POP JUMP JUMPDEST PUSH1 0x0 DUP2 SWAP1 POP SWAP2 SWAP1 POP JUMP JUMPDEST PUSH1 0x0 PUSH2 0x1679 PUSH2 0x1674 PUSH2 0x166F DUP5 PUSH2 0xCBB JUMP JUMPDEST PUSH2 0x1654 JUMP JUMPDEST PUSH2 0xCBB JUMP JUMPDEST SWAP1 POP SWAP2 SWAP1 POP JUMP JUMPDEST PUSH1 0x0 DUP2 SWAP1 POP SWAP2 SWAP1 POP JUMP JUMPDEST PUSH2 0x1693 DUP4 PUSH2 0x165E JUMP JUMPDEST PUSH2 0x16A7 PUSH2 0x169F DUP3 PUSH2 0x1680 JUMP JUMPDEST DUP5 DUP5 SLOAD PUSH2 0x1602 JUMP JUMPDEST DUP3 SSTORE POP POP POP POP JUMP JUMPDEST PUSH1 0x0 SWAP1 JUMP JUMPDEST PUSH2 0x16BC PUSH2 0x16AF JUMP JUMPDEST PUSH2 0x16C7 DUP2 DUP5 DUP5 PUSH2 0x168A JUMP JUMPDEST POP POP POP JUMP JUMPDEST JUMPDEST DUP2 DUP2 LT ISZERO PUSH2 0x16EB JUMPI PUSH2 0x16E0 PUSH1 0x0 DUP3 PUSH2 0x16B4 JUMP JUMPDEST PUSH1 0x1 DUP2 ADD SWAP1 POP PUSH2 0x16CD JUMP JUMPDEST POP POP JUMP JUMPDEST PUSH1 0x1F DUP3 GT ISZERO PUSH2 0x1730 JUMPI PUSH2 0x1701 DUP2 PUSH2 0x15D0 JUMP JUMPDEST PUSH2 0x170A DUP5 PUSH2 0x15E5 JUMP JUMPDEST DUP2 ADD PUSH1 0x20 DUP6 LT ISZERO PUSH2 0x1719 JUMPI DUP2 SWAP1 POP JUMPDEST PUSH2 0x172D PUSH2 0x1725 DUP6 PUSH2 0x15E5 JUMP JUMPDEST DUP4 ADD DUP3 PUSH2 0x16CC JUMP JUMPDEST POP POP JUMPDEST POP POP POP JUMP JUMPDEST PUSH1 0x0 DUP3 DUP3 SHR SWAP1 POP SWAP3 SWAP2 POP POP JUMP JUMPDEST PUSH1 0x0 PUSH2 0x1753 PUSH1 0x0 NOT DUP5 PUSH1 0x8 MUL PUSH2 0x1735 JUMP JUMPDEST NOT DUP1 DUP4 AND SWAP2 POP POP SWAP3 SWAP2 POP POP JUMP JUMPDEST PUSH1 0x0 PUSH2 0x176C DUP4 DUP4 PUSH2 0x1742 JUMP JUMPDEST SWAP2 POP DUP3 PUSH1 0x2 MUL DUP3 OR SWAP1 POP SWAP3 SWAP2 POP POP JUMP JUMPDEST PUSH2 0x1785 DUP3 PUSH2 0xD1E JUMP JUMPDEST PUSH8 0xFFFFFFFFFFFFFFFF DUP2 GT ISZERO PUSH2 0x179E JUMPI PUSH2 0x179D PUSH2 0xED0 JUMP JUMPDEST JUMPDEST PUSH2 0x17A8 DUP3 SLOAD PUSH2 0x1504 JUMP JUMPDEST PUSH2 0x17B3 DUP3 DUP3 DUP6 PUSH2 0x16EF JUMP JUMPDEST PUSH1 0x0 PUSH1 0x20 SWAP1 POP PUSH1 0x1F DUP4 GT PUSH1 0x1 DUP2 EQ PUSH2 0x17E6 JUMPI PUSH1 0x0 DUP5 ISZERO PUSH2 0x17D4 JUMPI DUP3 DUP8 ADD MLOAD SWAP1 POP JUMPDEST PUSH2 0x17DE DUP6 DUP3 PUSH2 0x1760 JUMP JUMPDEST DUP7 SSTORE POP PUSH2 0x1846 JUMP JUMPDEST PUSH1 0x1F NOT DUP5 AND PUSH2 0x17F4 DUP7 PUSH2 0x15D0 JUMP JUMPDEST PUSH1 0x0 JUMPDEST DUP3 DUP2 LT ISZERO PUSH2 0x181C JUMPI DUP5 DUP10 ADD MLOAD DUP3 SSTORE PUSH1 0x1 DUP3 ADD SWAP2 POP PUSH1 0x20 DUP6 ADD SWAP5 POP PUSH1 0x20 DUP2 ADD SWAP1 POP PUSH2 0x17F7 JUMP JUMPDEST DUP7 DUP4 LT ISZERO PUSH2 0x1839 JUMPI DUP5 DUP10 ADD MLOAD PUSH2 0x1835 PUSH1 0x1F DUP10 AND DUP3 PUSH2 0x1742 JUMP JUMPDEST DUP4 SSTORE POP JUMPDEST PUSH1 0x1 PUSH1 0x2 DUP9 MUL ADD DUP9 SSTORE POP POP POP JUMPDEST POP POP POP POP POP POP JUMP JUMPDEST PUSH32 0x4E487B7100000000000000000000000000000000000000000000000000000000 PUSH1 0x0 MSTORE PUSH1 0x11 PUSH1 0x4 MSTORE PUSH1 0x24 PUSH1 0x0 REVERT JUMPDEST PUSH1 0x0 PUSH2 0x1888 DUP3 PUSH2 0xCBB JUMP JUMPDEST SWAP2 POP PUSH32 0xFFFFFFFFFFFFFFFFFFFFFFFFFFFFFFFFFFFFFFFFFFFFFFFFFFFFFFFFFFFFFFFF DUP3 SUB PUSH2 0x18BA JUMPI PUSH2 0x18B9 PUSH2 0x184E JUMP JUMPDEST JUMPDEST PUSH1 0x1 DUP3 ADD SWAP1 POP SWAP2 SWAP1 POP JUMP INVALID LOG2 PUSH5 0x6970667358 0x22 SLT KECCAK256 ADDRESS 0xB2 0xE4 CALLDATACOPY 0xB0 PUSH7 0xC152963A54B19B 0xDA 0xB9 NOT PC PUSH12 0xB85B634411E108BF7FF568F2 SIGNEXTEND MSTORE PUSH5 0x736F6C6343 STOP ADDMOD SHR STOP CALLER "
        },
        "methodIdentifiers": {
          "changeStatus(uint256,uint8)": "c5a8a2ab",
          "deleteStudent(uint256)": "b645307d",
          "getStudentById(uint256)": "c8fb0793",
          "getStudents()": "f1d064b3",
          "register(string,string,string,uint256,uint8)": "a551665e",
          "students(uint256)": "06ead22e",
          "updateDetails(uint256,string,string,string,uint8)": "a35e4244"
        }
      }
    }
  }
}