{
  "_format": "hh-sol-artifact-1",
  "contractName": "LootBox",
  "sourceName": "contracts/LootBox.sol",
  "abi": [
    {
      "inputs": [
        {
          "internalType": "address",
          "name": "_vaultToken",
          "type": "address"
        },
        {
          "internalType": "address",
          "name": "_nftToken",
          "type": "address"
        },
        {
          "internalType": "address",
          "name": "_multiAsset",
          "type": "address"
        },
        {
          "internalType": "address",
          "name": "_vrf",
          "type": "address"
        }
      ],
      "stateMutability": "nonpayable",
      "type": "constructor"
    },
    {
      "anonymous": false,
      "inputs": [
        {
          "indexed": true,
          "internalType": "address",
          "name": "user",
          "type": "address"
        },
        {
          "indexed": false,
          "internalType": "uint8",
          "name": "rewardType",
          "type": "uint8"
        },
        {
          "indexed": false,
          "internalType": "uint256",
          "name": "itemId",
          "type": "uint256"
        },
        {
          "indexed": false,
          "internalType": "uint256",
          "name": "amount",
          "type": "uint256"
        }
      ],
      "name": "BoxOpened",
      "type": "event"
    },
    {
      "anonymous": false,
      "inputs": [
        {
          "indexed": false,
          "internalType": "uint256",
          "name": "newPrice",
          "type": "uint256"
        }
      ],
      "name": "BoxPriceUpdated",
      "type": "event"
    },
    {
      "anonymous": false,
      "inputs": [
        {
          "indexed": false,
          "internalType": "uint8",
          "name": "rewardType",
          "type": "uint8"
        },
        {
          "indexed": false,
          "internalType": "uint256",
          "name": "itemId",
          "type": "uint256"
        },
        {
          "indexed": false,
          "internalType": "uint256",
          "name": "amount",
          "type": "uint256"
        },
        {
          "indexed": false,
          "internalType": "uint16",
          "name": "weight",
          "type": "uint16"
        }
      ],
      "name": "RewardAdded",
      "type": "event"
    },
    {
      "inputs": [
        {
          "internalType": "uint8",
          "name": "_type",
          "type": "uint8"
        },
        {
          "internalType": "uint256",
          "name": "_itemId",
          "type": "uint256"
        },
        {
          "internalType": "uint256",
          "name": "_amount",
          "type": "uint256"
        },
        {
          "internalType": "uint16",
          "name": "_weight",
          "type": "uint16"
        }
      ],
      "name": "addReward",
      "outputs": [],
      "stateMutability": "nonpayable",
      "type": "function"
    },
    {
      "inputs": [],
      "name": "boxPrice",
      "outputs": [
        {
          "internalType": "uint256",
          "name": "",
          "type": "uint256"
        }
      ],
      "stateMutability": "view",
      "type": "function"
    },
    {
      "inputs": [],
      "name": "multiAsset",
      "outputs": [
        {
          "internalType": "contract CustomERC1155",
          "name": "",
          "type": "address"
        }
      ],
      "stateMutability": "view",
      "type": "function"
    },
    {
      "inputs": [],
      "name": "nftToken",
      "outputs": [
        {
          "internalType": "contract CustomERC721",
          "name": "",
          "type": "address"
        }
      ],
      "stateMutability": "view",
      "type": "function"
    },
    {
      "inputs": [],
      "name": "openBox",
      "outputs": [],
      "stateMutability": "payable",
      "type": "function"
    },
    {
      "inputs": [
        {
          "internalType": "uint256",
          "name": "",
          "type": "uint256"
        }
      ],
      "name": "rewards",
      "outputs": [
        {
          "internalType": "uint8",
          "name": "rewardType",
          "type": "uint8"
        },
        {
          "internalType": "uint256",
          "name": "itemId",
          "type": "uint256"
        },
        {
          "internalType": "uint256",
          "name": "amount",
          "type": "uint256"
        },
        {
          "internalType": "uint16",
          "name": "weight",
          "type": "uint16"
        }
      ],
      "stateMutability": "view",
      "type": "function"
    },
    {
      "inputs": [
        {
          "internalType": "uint256",
          "name": "_price",
          "type": "uint256"
        }
      ],
      "name": "setBoxPrice",
      "outputs": [],
      "stateMutability": "nonpayable",
      "type": "function"
    },
    {
      "inputs": [],
      "name": "totalWeight",
      "outputs": [
        {
          "internalType": "uint16",
          "name": "",
          "type": "uint16"
        }
      ],
      "stateMutability": "view",
      "type": "function"
    },
    {
      "inputs": [],
      "name": "vaultToken",
      "outputs": [
        {
          "internalType": "contract CustomERC20",
          "name": "",
          "type": "address"
        }
      ],
      "stateMutability": "view",
      "type": "function"
    },
    {
      "inputs": [],
      "name": "vrf",
      "outputs": [
        {
          "internalType": "contract SecurePseudoVRF",
          "name": "",
          "type": "address"
        }
      ],
      "stateMutability": "view",
      "type": "function"
    },
    {
      "inputs": [
        {
          "internalType": "address payable",
          "name": "_to",
          "type": "address"
        }
      ],
      "name": "withdrawFunds",
      "outputs": [],
      "stateMutability": "nonpayable",
      "type": "function"
    }
  ],
  "bytecode": "0x6080604052655af3107a400060045534801561001a57600080fd5b50604051611290380380611290833981810160405281019061003c91906101ab565b836000806101000a81548173ffffffffffffffffffffffffffffffffffffffff021916908373ffffffffffffffffffffffffffffffffffffffff16021790555082600160006101000a81548173ffffffffffffffffffffffffffffffffffffffff021916908373ffffffffffffffffffffffffffffffffffffffff16021790555081600260006101000a81548173ffffffffffffffffffffffffffffffffffffffff021916908373ffffffffffffffffffffffffffffffffffffffff16021790555080600360006101000a81548173ffffffffffffffffffffffffffffffffffffffff021916908373ffffffffffffffffffffffffffffffffffffffff16021790555050505050610212565b600080fd5b600073ffffffffffffffffffffffffffffffffffffffff82169050919050565b60006101788261014d565b9050919050565b6101888161016d565b811461019357600080fd5b50565b6000815190506101a58161017f565b92915050565b600080600080608085870312156101c5576101c4610148565b5b60006101d387828801610196565b94505060206101e487828801610196565b93505060406101f587828801610196565b925050606061020687828801610196565b91505092959194509250565b61106f806102216000396000f3fe60806040526004361061009c5760003560e01c8063a4ea705911610064578063a4ea705914610176578063a64828581461019f578063c2e952c7146101ca578063d06fcba8146101d4578063f301af42146101ff578063f7dbea3e1461023f5761009c565b8063029a8bf7146100a15780630c949043146100cc57806368742da6146100f7578063703bafd51461012057806396c82e571461014b575b600080fd5b3480156100ad57600080fd5b506100b6610268565b6040516100c39190610a3e565b60405180910390f35b3480156100d857600080fd5b506100e161028e565b6040516100ee9190610a7a565b60405180910390f35b34801561010357600080fd5b5061011e60048036038101906101199190610ad8565b6102b4565b005b34801561012c57600080fd5b506101356102fe565b6040516101429190610b26565b60405180910390f35b34801561015757600080fd5b50610160610322565b60405161016d9190610b5e565b60405180910390f35b34801561018257600080fd5b5061019d60048036038101906101989190610c14565b610336565b005b3480156101ab57600080fd5b506101b461045f565b6040516101c19190610c8a565b60405180910390f35b6101d2610465565b005b3480156101e057600080fd5b506101e96108ce565b6040516101f69190610cc6565b60405180910390f35b34801561020b57600080fd5b5061022660048036038101906102219190610ce1565b6108f4565b6040516102369493929190610d1d565b60405180910390f35b34801561024b57600080fd5b5061026660048036038101906102619190610ce1565b61094f565b005b600260009054906101000a900473ffffffffffffffffffffffffffffffffffffffff1681565b600360009054906101000a900473ffffffffffffffffffffffffffffffffffffffff1681565b8073ffffffffffffffffffffffffffffffffffffffff166108fc479081150290604051600060405180830381858888f193505050501580156102fa573d6000803e3d6000fd5b5050565b60008054906101000a900473ffffffffffffffffffffffffffffffffffffffff1681565b600660009054906101000a900461ffff1681565b600560405180608001604052808660ff1681526020018581526020018481526020018361ffff16815250908060018154018082558091505060019003906000526020600020906004020160009091909190915060008201518160000160006101000a81548160ff021916908360ff160217905550602082015181600101556040820151816002015560608201518160030160006101000a81548161ffff021916908361ffff160217905550505080600660008282829054906101000a900461ffff166104029190610d91565b92506101000a81548161ffff021916908361ffff1602179055507fa809e7e3469c244920736481df63f03f8481d369846178db563d5cb99faf15cd848484846040516104519493929190610d1d565b60405180910390a150505050565b60045481565b6004543410156104aa576040517f08c379a00000000000000000000000000000000000000000000000000000000081526004016104a190610e24565b60405180910390fd5b6000600360009054906101000a900473ffffffffffffffffffffffffffffffffffffffff1673ffffffffffffffffffffffffffffffffffffffff1663a00e6de4600660009054906101000a900461ffff166040518263ffffffff1660e01b81526004016105179190610e75565b6020604051808303816000875af1158015610536573d6000803e3d6000fd5b505050506040513d601f19601f8201168201806040525081019061055a9190610ea5565b90506000610566610990565b60005b600580549050811015610655576005818154811061058a57610589610ed2565b5b906000526020600020906004020160030160009054906101000a900461ffff16836105b59190610d91565b92508261ffff1684101561064857600581815481106105d7576105d6610ed2565b5b90600052602060002090600402016040518060800160405290816000820160009054906101000a900460ff1660ff1660ff16815260200160018201548152602001600282015481526020016003820160009054906101000a900461ffff1661ffff1661ffff16815250509150610655565b8080600101915050610569565b506001816000015160ff160361070d5760008054906101000a900473ffffffffffffffffffffffffffffffffffffffff1673ffffffffffffffffffffffffffffffffffffffff1663a9059cbb3383604001516040518363ffffffff1660e01b81526004016106c4929190610f22565b6020604051808303816000875af11580156106e3573d6000803e3d6000fd5b505050506040513d601f19601f820116820180604052508101906107079190610f83565b5061086b565b6002816000015160ff16036107c057600160009054906101000a900473ffffffffffffffffffffffffffffffffffffffff1673ffffffffffffffffffffffffffffffffffffffff166354ba0f27336040518263ffffffff1660e01b81526004016107779190610fb0565b6020604051808303816000875af1158015610796573d6000803e3d6000fd5b505050506040513d601f19601f820116820180604052508101906107ba9190610ea5565b5061086a565b6003816000015160ff160361086957600260009054906101000a900473ffffffffffffffffffffffffffffffffffffffff1673ffffffffffffffffffffffffffffffffffffffff1663696a50b433836020015184604001516040518463ffffffff1660e01b815260040161083693929190610fcb565b600060405180830381600087803b15801561085057600080fd5b505af1158015610864573d6000803e3d6000fd5b505050505b5b5b3373ffffffffffffffffffffffffffffffffffffffff167f4a2406f4850712faede2b312de76e71bfeac395c957627e9c977d5e979f3ff028260000151836020015184604001516040516108c193929190611002565b60405180910390a2505050565b600160009054906101000a900473ffffffffffffffffffffffffffffffffffffffff1681565b6005818154811061090457600080fd5b90600052602060002090600402016000915090508060000160009054906101000a900460ff16908060010154908060020154908060030160009054906101000a900461ffff16905084565b806004819055507fb7067ae98a5e0e5f401384494b84792febeff300d8c2dcd70c8791864b660d31816040516109859190610c8a565b60405180910390a150565b6040518060800160405280600060ff1681526020016000815260200160008152602001600061ffff1681525090565b600073ffffffffffffffffffffffffffffffffffffffff82169050919050565b6000819050919050565b6000610a046109ff6109fa846109bf565b6109df565b6109bf565b9050919050565b6000610a16826109e9565b9050919050565b6000610a2882610a0b565b9050919050565b610a3881610a1d565b82525050565b6000602082019050610a536000830184610a2f565b92915050565b6000610a6482610a0b565b9050919050565b610a7481610a59565b82525050565b6000602082019050610a8f6000830184610a6b565b92915050565b600080fd5b6000610aa5826109bf565b9050919050565b610ab581610a9a565b8114610ac057600080fd5b50565b600081359050610ad281610aac565b92915050565b600060208284031215610aee57610aed610a95565b5b6000610afc84828501610ac3565b91505092915050565b6000610b1082610a0b565b9050919050565b610b2081610b05565b82525050565b6000602082019050610b3b6000830184610b17565b92915050565b600061ffff82169050919050565b610b5881610b41565b82525050565b6000602082019050610b736000830184610b4f565b92915050565b600060ff82169050919050565b610b8f81610b79565b8114610b9a57600080fd5b50565b600081359050610bac81610b86565b92915050565b6000819050919050565b610bc581610bb2565b8114610bd057600080fd5b50565b600081359050610be281610bbc565b92915050565b610bf181610b41565b8114610bfc57600080fd5b50565b600081359050610c0e81610be8565b92915050565b60008060008060808587031215610c2e57610c2d610a95565b5b6000610c3c87828801610b9d565b9450506020610c4d87828801610bd3565b9350506040610c5e87828801610bd3565b9250506060610c6f87828801610bff565b91505092959194509250565b610c8481610bb2565b82525050565b6000602082019050610c9f6000830184610c7b565b92915050565b6000610cb082610a0b565b9050919050565b610cc081610ca5565b82525050565b6000602082019050610cdb6000830184610cb7565b92915050565b600060208284031215610cf757610cf6610a95565b5b6000610d0584828501610bd3565b91505092915050565b610d1781610b79565b82525050565b6000608082019050610d326000830187610d0e565b610d3f6020830186610c7b565b610d4c6040830185610c7b565b610d596060830184610b4f565b95945050505050565b7f4e487b7100000000000000000000000000000000000000000000000000000000600052601160045260246000fd5b6000610d9c82610b41565b9150610da783610b41565b9250828201905061ffff811115610dc157610dc0610d62565b5b92915050565b600082825260208201905092915050565b7f4c6f6f74426f783a20496e73756666696369656e742066656500000000000000600082015250565b6000610e0e601983610dc7565b9150610e1982610dd8565b602082019050919050565b60006020820190508181036000830152610e3d81610e01565b9050919050565b6000610e5f610e5a610e5584610b41565b6109df565b610bb2565b9050919050565b610e6f81610e44565b82525050565b6000602082019050610e8a6000830184610e66565b92915050565b600081519050610e9f81610bbc565b92915050565b600060208284031215610ebb57610eba610a95565b5b6000610ec984828501610e90565b91505092915050565b7f4e487b7100000000000000000000000000000000000000000000000000000000600052603260045260246000fd5b6000610f0c826109bf565b9050919050565b610f1c81610f01565b82525050565b6000604082019050610f376000830185610f13565b610f446020830184610c7b565b9392505050565b60008115159050919050565b610f6081610f4b565b8114610f6b57600080fd5b50565b600081519050610f7d81610f57565b92915050565b600060208284031215610f9957610f98610a95565b5b6000610fa784828501610f6e565b91505092915050565b6000602082019050610fc56000830184610f13565b92915050565b6000606082019050610fe06000830186610f13565b610fed6020830185610c7b565b610ffa6040830184610c7b565b949350505050565b60006060820190506110176000830186610d0e565b6110246020830185610c7b565b6110316040830184610c7b565b94935050505056fea26469706673582212208dda289bdc4ce1d29cac9b342eb3946247a4e28a5cdea26c97bfc5abc76f4bd464736f6c634300081c0033",
  "linkReferences": {},
  "deployedLinkReferences": {}
}