{
  "_format": "hh-sol-artifact-1",
  "contractName": "SecurePseudoVRF",
  "sourceName": "contracts/SecurePseudoVRF.sol",
  "abi": [
    {
      "anonymous": false,
      "inputs": [
        {
          "indexed": true,
          "internalType": "address",
          "name": "user",
          "type": "address"
        },
        {
          "indexed": false,
          "internalType": "uint256",
          "name": "randomNumber",
          "type": "uint256"
        }
      ],
      "name": "RandomNumberGenerated",
      "type": "event"
    },
    {
      "inputs": [
        {
          "internalType": "uint256",
          "name": "_max",
          "type": "uint256"
        }
      ],
      "name": "getSecureRandomNumber",
      "outputs": [
        {
          "internalType": "uint256",
          "name": "random",
          "type": "uint256"
        }
      ],
      "stateMutability": "nonpayable",
      "type": "function"
    }
  ],
  "bytecode": "0x6080604052348015600f57600080fd5b506104fd8061001f6000396000f3fe608060405234801561001057600080fd5b506004361061002b5760003560e01c8063a00e6de414610030575b600080fd5b61004a6004803603810190610045919061019d565b610060565b60405161005791906101d9565b60405180910390f35b60008082116100a4576040517f08c379a000000000000000000000000000000000000000000000000000000000815260040161009b90610277565b60405180910390fd5b6000808154809291906100b6906102c6565b919050555060006001436100ca919061030e565b404233600054446040516020016100e5959493929190610408565b604051602081830303815290604052805190602001209050828160001c61010c9190610496565b91503373ffffffffffffffffffffffffffffffffffffffff167fe72397f29d75c9f9a6d93d2b52193553debfe865f6b7848f19dae739fdfafcea8360405161015491906101d9565b60405180910390a250919050565b600080fd5b6000819050919050565b61017a81610167565b811461018557600080fd5b50565b60008135905061019781610171565b92915050565b6000602082840312156101b3576101b2610162565b5b60006101c184828501610188565b91505092915050565b6101d381610167565b82525050565b60006020820190506101ee60008301846101ca565b92915050565b600082825260208201905092915050565b7f5365637572655652463a206d6178206d7573742062652067726561746572207460008201527f68616e2030000000000000000000000000000000000000000000000000000000602082015250565b60006102616025836101f4565b915061026c82610205565b604082019050919050565b6000602082019050818103600083015261029081610254565b9050919050565b7f4e487b7100000000000000000000000000000000000000000000000000000000600052601160045260246000fd5b60006102d182610167565b91507fffffffffffffffffffffffffffffffffffffffffffffffffffffffffffffffff820361030357610302610297565b5b600182019050919050565b600061031982610167565b915061032483610167565b925082820390508181111561033c5761033b610297565b5b92915050565b6000819050919050565b6000819050919050565b61036761036282610342565b61034c565b82525050565b6000819050919050565b61038861038382610167565b61036d565b82525050565b600073ffffffffffffffffffffffffffffffffffffffff82169050919050565b60006103b98261038e565b9050919050565b60008160601b9050919050565b60006103d8826103c0565b9050919050565b60006103ea826103cd565b9050919050565b6104026103fd826103ae565b6103df565b82525050565b60006104148288610356565b6020820191506104248287610377565b60208201915061043482866103f1565b6014820191506104448285610377565b6020820191506104548284610377565b6020820191508190509695505050505050565b7f4e487b7100000000000000000000000000000000000000000000000000000000600052601260045260246000fd5b60006104a182610167565b91506104ac83610167565b9250826104bc576104bb610467565b5b82820690509291505056fea2646970667358221220e0f958d3db67ce474664e074f3e743bc7d62234bc71dd0b2568435dde0491c6864736f6c634300081c0033",
  "linkReferences": {},
  "deployedLinkReferences": {}
}