{
  "contracts/Assignment.sol": {
    "TodoList": {
      "abi": [
        {
          "inputs": [
            {
              "internalType": "string",
              "name": "_title",
              "type": "string"
            },
            {
              "internalType": "string",
              "name": "_description",
              "type": "string"
            }
          ],
          "name": "create_Todo",
          "outputs": [],
          "stateMutability": "nonpayable",
          "type": "function"
        },
        {
          "inputs": [
            {
              "internalType": "uint256",
              "name": "_index",
              "type": "uint256"
            }
          ],
          "name": "delete_todos",
          "outputs": [],
          "stateMutability": "nonpayable",
          "type": "function"
        },
        {
          "inputs": [],
          "name": "get_todos",
          "outputs": [
            {
              "components": [
                {
                  "internalType": "string",
                  "name": "title",
                  "type": "string"
                },
                {
                  "internalType": "string",
                  "name": "description",
                  "type": "string"
                },
                {
                  "internalType": "bool",
                  "name": "status",
                  "type": "bool"
                }
              ],
              "internalType": "struct TodoList.Todo[]",
              "name": "",
              "type": "tuple[]"
            }
          ],
          "stateMutability": "view",
          "type": "function"
        },
        {
          "inputs": [
            {
              "internalType": "address",
              "name": "",
              "type": "address"
            },
            {
              "internalType": "uint256",
              "name": "",
              "type": "uint256"
            }
          ],
          "name": "todos",
          "outputs": [
            {
              "internalType": "string",
              "name": "title",
              "type": "string"
            },
            {
              "internalType": "string",
              "name": "description",
              "type": "string"
            },
            {
              "internalType": "bool",
              "name": "status",
              "type": "bool"
            }
          ],
          "stateMutability": "view",
          "type": "function"
        },
        {
          "inputs": [
            {
              "internalType": "uint256",
              "name": "_index",
              "type": "uint256"
            }
          ],
          "name": "toggle_todo_status",
          "outputs": [],
          "stateMutability": "nonpayable",
          "type": "function"
        },
        {
          "inputs": [
            {
              "internalType": "uint256",
              "name": "_index",
              "type": "uint256"
            },
            {
              "internalType": "string",
              "name": "_title",
              "type": "string"
            },
            {
              "internalType": "string",
              "name": "_new_description",
              "type": "string"
            }
          ],
          "name": "update_Todo",
          "outputs": [],
          "stateMutability": "nonpayable",
          "type": "function"
        }
      ],
      "evm": {
        "bytecode": {
          "linkReferences": {},
          "object": "6080604052348015600f57600080fd5b5061130e8061001f6000396000f3fe608060405234801561001057600080fd5b50600436106100625760003560e01c80631bed22771461006757806323c35015146100835780633865881b1461009f578063428c1889146100bd5780635a051ea2146100ef57806364a4cb8f1461010b575b600080fd5b610081600480360381019061007c91906109d8565b610127565b005b61009d60048036038101906100989190610b4b565b610242565b005b6100a76103a8565b6040516100b49190610d89565b60405180910390f35b6100d760048036038101906100d29190610e09565b610582565b6040516100e693929190610ea2565b60405180910390f35b610109600480360381019061010491906109d8565b6106e6565b005b61012560048036038101906101209190610ee7565b610854565b005b6000803373ffffffffffffffffffffffffffffffffffffffff1673ffffffffffffffffffffffffffffffffffffffff1681526020019081526020016000208054905081106101aa576040517f08c379a00000000000000000000000000000000000000000000000000000000081526004016101a190610fab565b60405180910390fd5b6000803373ffffffffffffffffffffffffffffffffffffffff1673ffffffffffffffffffffffffffffffffffffffff16815260200190815260200160002081815481106101fa576101f9610fcb565b5b9060005260206000209060030201600080820160006102199190610931565b6001820160006102299190610931565b6002820160006101000a81549060ff0219169055505050565b6000803373ffffffffffffffffffffffffffffffffffffffff1673ffffffffffffffffffffffffffffffffffffffff1681526020019081526020016000208054905083106102c5576040517f08c379a00000000000000000000000000000000000000000000000000000000081526004016102bc90610fab565b60405180910390fd5b816000803373ffffffffffffffffffffffffffffffffffffffff1673ffffffffffffffffffffffffffffffffffffffff168152602001908152602001600020848154811061031657610315610fcb565b5b906000526020600020906003020160000190816103339190611206565b50806000803373ffffffffffffffffffffffffffffffffffffffff1673ffffffffffffffffffffffffffffffffffffffff168152602001908152602001600020848154811061038557610384610fcb565b5b906000526020600020906003020160010190816103a29190611206565b50505050565b60606000803373ffffffffffffffffffffffffffffffffffffffff1673ffffffffffffffffffffffffffffffffffffffff168152602001908152602001600020805480602002602001604051908101604052809291908181526020016000905b82821015610579578382906000526020600020906003020160405180606001604052908160008201805461043b90611029565b80601f016020809104026020016040519081016040528092919081815260200182805461046790611029565b80156104b45780601f10610489576101008083540402835291602001916104b4565b820191906000526020600020905b81548152906001019060200180831161049757829003601f168201915b505050505081526020016001820180546104cd90611029565b80601f01602080910402602001604051908101604052809291908181526020018280546104f990611029565b80156105465780601f1061051b57610100808354040283529160200191610546565b820191906000526020600020905b81548152906001019060200180831161052957829003601f168201915b505050505081526020016002820160009054906101000a900460ff16151515158152505081526020019060010190610408565b50505050905090565b6000602052816000526040600020818154811061059e57600080fd5b9060005260206000209060030201600091509150508060000180546105c290611029565b80601f01602080910402602001604051908101604052809291908181526020018280546105ee90611029565b801561063b5780601f106106105761010080835404028352916020019161063b565b820191906000526020600020905b81548152906001019060200180831161061e57829003601f168201915b50505050509080600101805461065090611029565b80601f016020809104026020016040519081016040528092919081815260200182805461067c90611029565b80156106c95780601f1061069e576101008083540402835291602001916106c9565b820191906000526020600020905b8154815290600101906020018083116106ac57829003601f168201915b5050505050908060020160009054906101000a900460ff16905083565b6000803373ffffffffffffffffffffffffffffffffffffffff1673ffffffffffffffffffffffffffffffffffffffff168152602001908152602001600020805490508110610769576040517f08c379a000000000000000000000000000000000000000000000000000000000815260040161076090610fab565b60405180910390fd5b6000803373ffffffffffffffffffffffffffffffffffffffff1673ffffffffffffffffffffffffffffffffffffffff16815260200190815260200160002081815481106107b9576107b8610fcb565b5b906000526020600020906003020160020160009054906101000a900460ff16156000803373ffffffffffffffffffffffffffffffffffffffff1673ffffffffffffffffffffffffffffffffffffffff168152602001908152602001600020828154811061082957610828610fcb565b5b906000526020600020906003020160020160006101000a81548160ff02191690831515021790555050565b600060405180606001604052808481526020018381526020016000151581525090506000803373ffffffffffffffffffffffffffffffffffffffff1673ffffffffffffffffffffffffffffffffffffffff16815260200190815260200160002081908060018154018082558091505060019003906000526020600020906003020160009091909190915060008201518160000190816108f39190611206565b5060208201518160010190816109099190611206565b5060408201518160020160006101000a81548160ff0219169083151502179055505050505050565b50805461093d90611029565b6000825580601f1061094f575061096e565b601f01602090049060005260206000209081019061096d9190610971565b5b50565b5b8082111561098a576000816000905550600101610972565b5090565b6000604051905090565b600080fd5b600080fd5b6000819050919050565b6109b5816109a2565b81146109c057600080fd5b50565b6000813590506109d2816109ac565b92915050565b6000602082840312156109ee576109ed610998565b5b60006109fc848285016109c3565b91505092915050565b600080fd5b600080fd5b6000601f19601f8301169050919050565b7f4e487b7100000000000000000000000000000000000000000000000000000000600052604160045260246000fd5b610a5882610a0f565b810181811067ffffffffffffffff82111715610a7757610a76610a20565b5b80604052505050565b6000610a8a61098e565b9050610a968282610a4f565b919050565b600067ffffffffffffffff821115610ab657610ab5610a20565b5b610abf82610a0f565b9050602081019050919050565b82818337600083830152505050565b6000610aee610ae984610a9b565b610a80565b905082815260208101848484011115610b0a57610b09610a0a565b5b610b15848285610acc565b509392505050565b600082601f830112610b3257610b31610a05565b5b8135610b42848260208601610adb565b91505092915050565b600080600060608486031215610b6457610b63610998565b5b6000610b72868287016109c3565b935050602084013567ffffffffffffffff811115610b9357610b9261099d565b5b610b9f86828701610b1d565b925050604084013567ffffffffffffffff811115610bc057610bbf61099d565b5b610bcc86828701610b1d565b9150509250925092565b600081519050919050565b600082825260208201905092915050565b6000819050602082019050919050565b600081519050919050565b600082825260208201905092915050565b60005b83811015610c3c578082015181840152602081019050610c21565b60008484015250505050565b6000610c5382610c02565b610c5d8185610c0d565b9350610c6d818560208601610c1e565b610c7681610a0f565b840191505092915050565b60008115159050919050565b610c9681610c81565b82525050565b60006060830160008301518482036000860152610cb98282610c48565b91505060208301518482036020860152610cd38282610c48565b9150506040830151610ce86040860182610c8d565b508091505092915050565b6000610cff8383610c9c565b905092915050565b6000602082019050919050565b6000610d1f82610bd6565b610d298185610be1565b935083602082028501610d3b85610bf2565b8060005b85811015610d775784840389528151610d588582610cf3565b9450610d6383610d07565b925060208a01995050600181019050610d3f565b50829750879550505050505092915050565b60006020820190508181036000830152610da38184610d14565b905092915050565b600073ffffffffffffffffffffffffffffffffffffffff82169050919050565b6000610dd682610dab565b9050919050565b610de681610dcb565b8114610df157600080fd5b50565b600081359050610e0381610ddd565b92915050565b60008060408385031215610e2057610e1f610998565b5b6000610e2e85828601610df4565b9250506020610e3f858286016109c3565b9150509250929050565b600082825260208201905092915050565b6000610e6582610c02565b610e6f8185610e49565b9350610e7f818560208601610c1e565b610e8881610a0f565b840191505092915050565b610e9c81610c81565b82525050565b60006060820190508181036000830152610ebc8186610e5a565b90508181036020830152610ed08185610e5a565b9050610edf6040830184610e93565b949350505050565b60008060408385031215610efe57610efd610998565b5b600083013567ffffffffffffffff811115610f1c57610f1b61099d565b5b610f2885828601610b1d565b925050602083013567ffffffffffffffff811115610f4957610f4861099d565b5b610f5585828601610b1d565b9150509250929050565b7f496e76616c696420696e64657800000000000000000000000000000000000000600082015250565b6000610f95600d83610e49565b9150610fa082610f5f565b602082019050919050565b60006020820190508181036000830152610fc481610f88565b9050919050565b7f4e487b7100000000000000000000000000000000000000000000000000000000600052603260045260246000fd5b7f4e487b7100000000000000000000000000000000000000000000000000000000600052602260045260246000fd5b6000600282049050600182168061104157607f821691505b60208210810361105457611053610ffa565b5b50919050565b60008190508160005260206000209050919050565b60006020601f8301049050919050565b600082821b905092915050565b6000600883026110bc7fffffffffffffffffffffffffffffffffffffffffffffffffffffffffffffffff8261107f565b6110c6868361107f565b95508019841693508086168417925050509392505050565b6000819050919050565b60006111036110fe6110f9846109a2565b6110de565b6109a2565b9050919050565b6000819050919050565b61111d836110e8565b6111316111298261110a565b84845461108c565b825550505050565b600090565b611146611139565b611151818484611114565b505050565b5b818110156111755761116a60008261113e565b600181019050611157565b5050565b601f8211156111ba5761118b8161105a565b6111948461106f565b810160208510156111a3578190505b6111b76111af8561106f565b830182611156565b50505b505050565b600082821c905092915050565b60006111dd600019846008026111bf565b1980831691505092915050565b60006111f683836111cc565b9150826002028217905092915050565b61120f82610c02565b67ffffffffffffffff81111561122857611227610a20565b5b6112328254611029565b61123d828285611179565b600060209050601f831160018114611270576000841561125e578287015190505b61126885826111ea565b8655506112d0565b601f19841661127e8661105a565b60005b828110156112a657848901518255600182019150602085019450602081019050611281565b868310156112c357848901516112bf601f8916826111cc565b8355505b6001600288020188555050505b50505050505056fea2646970667358221220276ab022e54d1170c67a7dbda95fde78c3e51ec3dc2ac75ed8e0f841801f549064736f6c634300081c0033",
          "opcodes": "PUSH1 0x80 PUSH1 0x40 MSTORE CALLVALUE DUP1 ISZERO PUSH1 0xF JUMPI PUSH1 0x0 DUP1 REVERT JUMPDEST POP PUSH2 0x130E DUP1 PUSH2 0x1F PUSH1 0x0 CODECOPY PUSH1 0x0 RETURN INVALID PUSH1 0x80 PUSH1 0x40 MSTORE CALLVALUE DUP1 ISZERO PUSH2 0x10 JUMPI PUSH1 0x0 DUP1 REVERT JUMPDEST POP PUSH1 0x4 CALLDATASIZE LT PUSH2 0x62 JUMPI PUSH1 0x0 CALLDATALOAD PUSH1 0xE0 SHR DUP1 PUSH4 0x1BED2277 EQ PUSH2 0x67 JUMPI DUP1 PUSH4 0x23C35015 EQ PUSH2 0x83 JUMPI DUP1 PUSH4 0x3865881B EQ PUSH2 0x9F JUMPI DUP1 PUSH4 0x428C1889 EQ PUSH2 0xBD JUMPI DUP1 PUSH4 0x5A051EA2 EQ PUSH2 0xEF JUMPI DUP1 PUSH4 0x64A4CB8F EQ PUSH2 0x10B JUMPI JUMPDEST PUSH1 0x0 DUP1 REVERT JUMPDEST PUSH2 0x81 PUSH1 0x4 DUP1 CALLDATASIZE SUB DUP2 ADD SWAP1 PUSH2 0x7C SWAP2 SWAP1 PUSH2 0x9D8 JUMP JUMPDEST PUSH2 0x127 JUMP JUMPDEST STOP JUMPDEST PUSH2 0x9D PUSH1 0x4 DUP1 CALLDATASIZE SUB DUP2 ADD SWAP1 PUSH2 0x98 SWAP2 SWAP1 PUSH2 0xB4B JUMP JUMPDEST PUSH2 0x242 JUMP JUMPDEST STOP JUMPDEST PUSH2 0xA7 PUSH2 0x3A8 JUMP JUMPDEST PUSH1 0x40 MLOAD PUSH2 0xB4 SWAP2 SWAP1 PUSH2 0xD89 JUMP JUMPDEST PUSH1 0x40 MLOAD DUP1 SWAP2 SUB SWAP1 RETURN JUMPDEST PUSH2 0xD7 PUSH1 0x4 DUP1 CALLDATASIZE SUB DUP2 ADD SWAP1 PUSH2 0xD2 SWAP2 SWAP1 PUSH2 0xE09 JUMP JUMPDEST PUSH2 0x582 JUMP JUMPDEST PUSH1 0x40 MLOAD PUSH2 0xE6 SWAP4 SWAP3 SWAP2 SWAP1 PUSH2 0xEA2 JUMP JUMPDEST PUSH1 0x40 MLOAD DUP1 SWAP2 SUB SWAP1 RETURN JUMPDEST PUSH2 0x109 PUSH1 0x4 DUP1 CALLDATASIZE SUB DUP2 ADD SWAP1 PUSH2 0x104 SWAP2 SWAP1 PUSH2 0x9D8 JUMP JUMPDEST PUSH2 0x6E6 JUMP JUMPDEST STOP JUMPDEST PUSH2 0x125 PUSH1 0x4 DUP1 CALLDATASIZE SUB DUP2 ADD SWAP1 PUSH2 0x120 SWAP2 SWAP1 PUSH2 0xEE7 JUMP JUMPDEST PUSH2 0x854 JUMP JUMPDEST STOP JUMPDEST PUSH1 0x0 DUP1 CALLER PUSH20 0xFFFFFFFFFFFFFFFFFFFFFFFFFFFFFFFFFFFFFFFF AND PUSH20 0xFFFFFFFFFFFFFFFFFFFFFFFFFFFFFFFFFFFFFFFF AND DUP2 MSTORE PUSH1 0x20 ADD SWAP1 DUP2 MSTORE PUSH1 0x20 ADD PUSH1 0x0 KECCAK256 DUP1 SLOAD SWAP1 POP DUP2 LT PUSH2 0x1AA JUMPI PUSH1 0x40 MLOAD PUSH32 0x8C379A000000000000000000000000000000000000000000000000000000000 DUP2 MSTORE PUSH1 0x4 ADD PUSH2 0x1A1 SWAP1 PUSH2 0xFAB JUMP JUMPDEST PUSH1 0x40 MLOAD DUP1 SWAP2 SUB SWAP1 REVERT JUMPDEST PUSH1 0x0 DUP1 CALLER PUSH20 0xFFFFFFFFFFFFFFFFFFFFFFFFFFFFFFFFFFFFFFFF AND PUSH20 0xFFFFFFFFFFFFFFFFFFFFFFFFFFFFFFFFFFFFFFFF AND DUP2 MSTORE PUSH1 0x20 ADD SWAP1 DUP2 MSTORE PUSH1 0x20 ADD PUSH1 0x0 KECCAK256 DUP2 DUP2 SLOAD DUP2 LT PUSH2 0x1FA JUMPI PUSH2 0x1F9 PUSH2 0xFCB JUMP JUMPDEST JUMPDEST SWAP1 PUSH1 0x0 MSTORE PUSH1 0x20 PUSH1 0x0 KECCAK256 SWAP1 PUSH1 0x3 MUL ADD PUSH1 0x0 DUP1 DUP3 ADD PUSH1 0x0 PUSH2 0x219 SWAP2 SWAP1 PUSH2 0x931 JUMP JUMPDEST PUSH1 0x1 DUP3 ADD PUSH1 0x0 PUSH2 0x229 SWAP2 SWAP1 PUSH2 0x931 JUMP JUMPDEST PUSH1 0x2 DUP3 ADD PUSH1 0x0 PUSH2 0x100 EXP DUP2 SLOAD SWAP1 PUSH1 0xFF MUL NOT AND SWAP1 SSTORE POP POP POP JUMP JUMPDEST PUSH1 0x0 DUP1 CALLER PUSH20 0xFFFFFFFFFFFFFFFFFFFFFFFFFFFFFFFFFFFFFFFF AND PUSH20 0xFFFFFFFFFFFFFFFFFFFFFFFFFFFFFFFFFFFFFFFF AND DUP2 MSTORE PUSH1 0x20 ADD SWAP1 DUP2 MSTORE PUSH1 0x20 ADD PUSH1 0x0 KECCAK256 DUP1 SLOAD SWAP1 POP DUP4 LT PUSH2 0x2C5 JUMPI PUSH1 0x40 MLOAD PUSH32 0x8C379A000000000000000000000000000000000000000000000000000000000 DUP2 MSTORE PUSH1 0x4 ADD PUSH2 0x2BC SWAP1 PUSH2 0xFAB JUMP JUMPDEST PUSH1 0x40 MLOAD DUP1 SWAP2 SUB SWAP1 REVERT JUMPDEST DUP2 PUSH1 0x0 DUP1 CALLER PUSH20 0xFFFFFFFFFFFFFFFFFFFFFFFFFFFFFFFFFFFFFFFF AND PUSH20 0xFFFFFFFFFFFFFFFFFFFFFFFFFFFFFFFFFFFFFFFF AND DUP2 MSTORE PUSH1 0x20 ADD SWAP1 DUP2 MSTORE PUSH1 0x20 ADD PUSH1 0x0 KECCAK256 DUP5 DUP2 SLOAD DUP2 LT PUSH2 0x316 JUMPI PUSH2 0x315 PUSH2 0xFCB JUMP JUMPDEST JUMPDEST SWAP1 PUSH1 0x0 MSTORE PUSH1 0x20 PUSH1 0x0 KECCAK256 SWAP1 PUSH1 0x3 MUL ADD PUSH1 0x0 ADD SWAP1 DUP2 PUSH2 0x333 SWAP2 SWAP1 PUSH2 0x1206 JUMP JUMPDEST POP DUP1 PUSH1 0x0 DUP1 CALLER PUSH20 0xFFFFFFFFFFFFFFFFFFFFFFFFFFFFFFFFFFFFFFFF AND PUSH20 0xFFFFFFFFFFFFFFFFFFFFFFFFFFFFFFFFFFFFFFFF AND DUP2 MSTORE PUSH1 0x20 ADD SWAP1 DUP2 MSTORE PUSH1 0x20 ADD PUSH1 0x0 KECCAK256 DUP5 DUP2 SLOAD DUP2 LT PUSH2 0x385 JUMPI PUSH2 0x384 PUSH2 0xFCB JUMP JUMPDEST JUMPDEST SWAP1 PUSH1 0x0 MSTORE PUSH1 0x20 PUSH1 0x0 KECCAK256 SWAP1 PUSH1 0x3 MUL ADD PUSH1 0x1 ADD SWAP1 DUP2 PUSH2 0x3A2 SWAP2 SWAP1 PUSH2 0x1206 JUMP JUMPDEST POP POP POP POP JUMP JUMPDEST PUSH1 0x60 PUSH1 0x0 DUP1 CALLER PUSH20 0xFFFFFFFFFFFFFFFFFFFFFFFFFFFFFFFFFFFFFFFF AND PUSH20 0xFFFFFFFFFFFFFFFFFFFFFFFFFFFFFFFFFFFFFFFF AND DUP2 MSTORE PUSH1 0x20 ADD SWAP1 DUP2 MSTORE PUSH1 0x20 ADD PUSH1 0x0 KECCAK256 DUP1 SLOAD DUP1 PUSH1 0x20 MUL PUSH1 0x20 ADD PUSH1 0x40 MLOAD SWAP1 DUP2 ADD PUSH1 0x40 MSTORE DUP1 SWAP3 SWAP2 SWAP1 DUP2 DUP2 MSTORE PUSH1 0x20 ADD PUSH1 0x0 SWAP1 JUMPDEST DUP3 DUP3 LT ISZERO PUSH2 0x579 JUMPI DUP4 DUP3 SWAP1 PUSH1 0x0 MSTORE PUSH1 0x20 PUSH1 0x0 KECCAK256 SWAP1 PUSH1 0x3 MUL ADD PUSH1 0x40 MLOAD DUP1 PUSH1 0x60 ADD PUSH1 0x40 MSTORE SWAP1 DUP2 PUSH1 0x0 DUP3 ADD DUP1 SLOAD PUSH2 0x43B SWAP1 PUSH2 0x1029 JUMP JUMPDEST DUP1 PUSH1 0x1F ADD PUSH1 0x20 DUP1 SWAP2 DIV MUL PUSH1 0x20 ADD PUSH1 0x40 MLOAD SWAP1 DUP2 ADD PUSH1 0x40 MSTORE DUP1 SWAP3 SWAP2 SWAP1 DUP2 DUP2 MSTORE PUSH1 0x20 ADD DUP3 DUP1 SLOAD PUSH2 0x467 SWAP1 PUSH2 0x1029 JUMP JUMPDEST DUP1 ISZERO PUSH2 0x4B4 JUMPI DUP1 PUSH1 0x1F LT PUSH2 0x489 JUMPI PUSH2 0x100 DUP1 DUP4 SLOAD DIV MUL DUP4 MSTORE SWAP2 PUSH1 0x20 ADD SWAP2 PUSH2 0x4B4 JUMP JUMPDEST DUP3 ADD SWAP2 SWAP1 PUSH1 0x0 MSTORE PUSH1 0x20 PUSH1 0x0 KECCAK256 SWAP1 JUMPDEST DUP2 SLOAD DUP2 MSTORE SWAP1 PUSH1 0x1 ADD SWAP1 PUSH1 0x20 ADD DUP1 DUP4 GT PUSH2 0x497 JUMPI DUP3 SWAP1 SUB PUSH1 0x1F AND DUP3 ADD SWAP2 JUMPDEST POP POP POP POP POP DUP2 MSTORE PUSH1 0x20 ADD PUSH1 0x1 DUP3 ADD DUP1 SLOAD PUSH2 0x4CD SWAP1 PUSH2 0x1029 JUMP JUMPDEST DUP1 PUSH1 0x1F ADD PUSH1 0x20 DUP1 SWAP2 DIV MUL PUSH1 0x20 ADD PUSH1 0x40 MLOAD SWAP1 DUP2 ADD PUSH1 0x40 MSTORE DUP1 SWAP3 SWAP2 SWAP1 DUP2 DUP2 MSTORE PUSH1 0x20 ADD DUP3 DUP1 SLOAD PUSH2 0x4F9 SWAP1 PUSH2 0x1029 JUMP JUMPDEST DUP1 ISZERO PUSH2 0x546 JUMPI DUP1 PUSH1 0x1F LT PUSH2 0x51B JUMPI PUSH2 0x100 DUP1 DUP4 SLOAD DIV MUL DUP4 MSTORE SWAP2 PUSH1 0x20 ADD SWAP2 PUSH2 0x546 JUMP JUMPDEST DUP3 ADD SWAP2 SWAP1 PUSH1 0x0 MSTORE PUSH1 0x20 PUSH1 0x0 KECCAK256 SWAP1 JUMPDEST DUP2 SLOAD DUP2 MSTORE SWAP1 PUSH1 0x1 ADD SWAP1 PUSH1 0x20 ADD DUP1 DUP4 GT PUSH2 0x529 JUMPI DUP3 SWAP1 SUB PUSH1 0x1F AND DUP3 ADD SWAP2 JUMPDEST POP POP POP POP POP DUP2 MSTORE PUSH1 0x20 ADD PUSH1 0x2 DUP3 ADD PUSH1 0x0 SWAP1 SLOAD SWAP1 PUSH2 0x100 EXP SWAP1 DIV PUSH1 0xFF AND ISZERO ISZERO ISZERO ISZERO DUP2 MSTORE POP POP DUP2 MSTORE PUSH1 0x20 ADD SWAP1 PUSH1 0x1 ADD SWAP1 PUSH2 0x408 JUMP JUMPDEST POP POP POP POP SWAP1 POP SWAP1 JUMP JUMPDEST PUSH1 0x0 PUSH1 0x20 MSTORE DUP2 PUSH1 0x0 MSTORE PUSH1 0x40 PUSH1 0x0 KECCAK256 DUP2 DUP2 SLOAD DUP2 LT PUSH2 0x59E JUMPI PUSH1 0x0 DUP1 REVERT JUMPDEST SWAP1 PUSH1 0x0 MSTORE PUSH1 0x20 PUSH1 0x0 KECCAK256 SWAP1 PUSH1 0x3 MUL ADD PUSH1 0x0 SWAP2 POP SWAP2 POP POP DUP1 PUSH1 0x0 ADD DUP1 SLOAD PUSH2 0x5C2 SWAP1 PUSH2 0x1029 JUMP JUMPDEST DUP1 PUSH1 0x1F ADD PUSH1 0x20 DUP1 SWAP2 DIV MUL PUSH1 0x20 ADD PUSH1 0x40 MLOAD SWAP1 DUP2 ADD PUSH1 0x40 MSTORE DUP1 SWAP3 SWAP2 SWAP1 DUP2 DUP2 MSTORE PUSH1 0x20 ADD DUP3 DUP1 SLOAD PUSH2 0x5EE SWAP1 PUSH2 0x1029 JUMP JUMPDEST DUP1 ISZERO PUSH2 0x63B JUMPI DUP1 PUSH1 0x1F LT PUSH2 0x610 JUMPI PUSH2 0x100 DUP1 DUP4 SLOAD DIV MUL DUP4 MSTORE SWAP2 PUSH1 0x20 ADD SWAP2 PUSH2 0x63B JUMP JUMPDEST DUP3 ADD SWAP2 SWAP1 PUSH1 0x0 MSTORE PUSH1 0x20 PUSH1 0x0 KECCAK256 SWAP1 JUMPDEST DUP2 SLOAD DUP2 MSTORE SWAP1 PUSH1 0x1 ADD SWAP1 PUSH1 0x20 ADD DUP1 DUP4 GT PUSH2 0x61E JUMPI DUP3 SWAP1 SUB PUSH1 0x1F AND DUP3 ADD SWAP2 JUMPDEST POP POP POP POP POP SWAP1 DUP1 PUSH1 0x1 ADD DUP1 SLOAD PUSH2 0x650 SWAP1 PUSH2 0x1029 JUMP JUMPDEST DUP1 PUSH1 0x1F ADD PUSH1 0x20 DUP1 SWAP2 DIV MUL PUSH1 0x20 ADD PUSH1 0x40 MLOAD SWAP1 DUP2 ADD PUSH1 0x40 MSTORE DUP1 SWAP3 SWAP2 SWAP1 DUP2 DUP2 MSTORE PUSH1 0x20 ADD DUP3 DUP1 SLOAD PUSH2 0x67C SWAP1 PUSH2 0x1029 JUMP JUMPDEST DUP1 ISZERO PUSH2 0x6C9 JUMPI DUP1 PUSH1 0x1F LT PUSH2 0x69E JUMPI PUSH2 0x100 DUP1 DUP4 SLOAD DIV MUL DUP4 MSTORE SWAP2 PUSH1 0x20 ADD SWAP2 PUSH2 0x6C9 JUMP JUMPDEST DUP3 ADD SWAP2 SWAP1 PUSH1 0x0 MSTORE PUSH1 0x20 PUSH1 0x0 KECCAK256 SWAP1 JUMPDEST DUP2 SLOAD DUP2 MSTORE SWAP1 PUSH1 0x1 ADD SWAP1 PUSH1 0x20 ADD DUP1 DUP4 GT PUSH2 0x6AC JUMPI DUP3 SWAP1 SUB PUSH1 0x1F AND DUP3 ADD SWAP2 JUMPDEST POP POP POP POP POP SWAP1 DUP1 PUSH1 0x2 ADD PUSH1 0x0 SWAP1 SLOAD SWAP1 PUSH2 0x100 EXP SWAP1 DIV PUSH1 0xFF AND SWAP1 POP DUP4 JUMP JUMPDEST PUSH1 0x0 DUP1 CALLER PUSH20 0xFFFFFFFFFFFFFFFFFFFFFFFFFFFFFFFFFFFFFFFF AND PUSH20 0xFFFFFFFFFFFFFFFFFFFFFFFFFFFFFFFFFFFFFFFF AND DUP2 MSTORE PUSH1 0x20 ADD SWAP1 DUP2 MSTORE PUSH1 0x20 ADD PUSH1 0x0 KECCAK256 DUP1 SLOAD SWAP1 POP DUP2 LT PUSH2 0x769 JUMPI PUSH1 0x40 MLOAD PUSH32 0x8C379A000000000000000000000000000000000000000000000000000000000 DUP2 MSTORE PUSH1 0x4 ADD PUSH2 0x760 SWAP1 PUSH2 0xFAB JUMP JUMPDEST PUSH1 0x40 MLOAD DUP1 SWAP2 SUB SWAP1 REVERT JUMPDEST PUSH1 0x0 DUP1 CALLER PUSH20 0xFFFFFFFFFFFFFFFFFFFFFFFFFFFFFFFFFFFFFFFF AND PUSH20 0xFFFFFFFFFFFFFFFFFFFFFFFFFFFFFFFFFFFFFFFF AND DUP2 MSTORE PUSH1 0x20 ADD SWAP1 DUP2 MSTORE PUSH1 0x20 ADD PUSH1 0x0 KECCAK256 DUP2 DUP2 SLOAD DUP2 LT PUSH2 0x7B9 JUMPI PUSH2 0x7B8 PUSH2 0xFCB JUMP JUMPDEST JUMPDEST SWAP1 PUSH1 0x0 MSTORE PUSH1 0x20 PUSH1 0x0 KECCAK256 SWAP1 PUSH1 0x3 MUL ADD PUSH1 0x2 ADD PUSH1 0x0 SWAP1 SLOAD SWAP1 PUSH2 0x100 EXP SWAP1 DIV PUSH1 0xFF AND ISZERO PUSH1 0x0 DUP1 CALLER PUSH20 0xFFFFFFFFFFFFFFFFFFFFFFFFFFFFFFFFFFFFFFFF AND PUSH20 0xFFFFFFFFFFFFFFFFFFFFFFFFFFFFFFFFFFFFFFFF AND DUP2 MSTORE PUSH1 0x20 ADD SWAP1 DUP2 MSTORE PUSH1 0x20 ADD PUSH1 0x0 KECCAK256 DUP3 DUP2 SLOAD DUP2 LT PUSH2 0x829 JUMPI PUSH2 0x828 PUSH2 0xFCB JUMP JUMPDEST JUMPDEST SWAP1 PUSH1 0x0 MSTORE PUSH1 0x20 PUSH1 0x0 KECCAK256 SWAP1 PUSH1 0x3 MUL ADD PUSH1 0x2 ADD PUSH1 0x0 PUSH2 0x100 EXP DUP2 SLOAD DUP2 PUSH1 0xFF MUL NOT AND SWAP1 DUP4 ISZERO ISZERO MUL OR SWAP1 SSTORE POP POP JUMP JUMPDEST PUSH1 0x0 PUSH1 0x40 MLOAD DUP1 PUSH1 0x60 ADD PUSH1 0x40 MSTORE DUP1 DUP5 DUP2 MSTORE PUSH1 0x20 ADD DUP4 DUP2 MSTORE PUSH1 0x20 ADD PUSH1 0x0 ISZERO ISZERO DUP2 MSTORE POP SWAP1 POP PUSH1 0x0 DUP1 CALLER PUSH20 0xFFFFFFFFFFFFFFFFFFFFFFFFFFFFFFFFFFFFFFFF AND PUSH20 0xFFFFFFFFFFFFFFFFFFFFFFFFFFFFFFFFFFFFFFFF AND DUP2 MSTORE PUSH1 0x20 ADD SWAP1 DUP2 MSTORE PUSH1 0x20 ADD PUSH1 0x0 KECCAK256 DUP2 SWAP1 DUP1 PUSH1 0x1 DUP2 SLOAD ADD DUP1 DUP3 SSTORE DUP1 SWAP2 POP POP PUSH1 0x1 SWAP1 SUB SWAP1 PUSH1 0x0 MSTORE PUSH1 0x20 PUSH1 0x0 KECCAK256 SWAP1 PUSH1 0x3 MUL ADD PUSH1 0x0 SWAP1 SWAP2 SWAP1 SWAP2 SWAP1 SWAP2 POP PUSH1 0x0 DUP3 ADD MLOAD DUP2 PUSH1 0x0 ADD SWAP1 DUP2 PUSH2 0x8F3 SWAP2 SWAP1 PUSH2 0x1206 JUMP JUMPDEST POP PUSH1 0x20 DUP3 ADD MLOAD DUP2 PUSH1 0x1 ADD SWAP1 DUP2 PUSH2 0x909 SWAP2 SWAP1 PUSH2 0x1206 JUMP JUMPDEST POP PUSH1 0x40 DUP3 ADD MLOAD DUP2 PUSH1 0x2 ADD PUSH1 0x0 PUSH2 0x100 EXP DUP2 SLOAD DUP2 PUSH1 0xFF MUL NOT AND SWAP1 DUP4 ISZERO ISZERO MUL OR SWAP1 SSTORE POP POP POP POP POP POP JUMP JUMPDEST POP DUP1 SLOAD PUSH2 0x93D SWAP1 PUSH2 0x1029 JUMP JUMPDEST PUSH1 0x0 DUP3 SSTORE DUP1 PUSH1 0x1F LT PUSH2 0x94F JUMPI POP PUSH2 0x96E JUMP JUMPDEST PUSH1 0x1F ADD PUSH1 0x20 SWAP1 DIV SWAP1 PUSH1 0x0 MSTORE PUSH1 0x20 PUSH1 0x0 KECCAK256 SWAP1 DUP2 ADD SWAP1 PUSH2 0x96D SWAP2 SWAP1 PUSH2 0x971 JUMP JUMPDEST JUMPDEST POP JUMP JUMPDEST JUMPDEST DUP1 DUP3 GT ISZERO PUSH2 0x98A JUMPI PUSH1 0x0 DUP2 PUSH1 0x0 SWAP1 SSTORE POP PUSH1 0x1 ADD PUSH2 0x972 JUMP JUMPDEST POP SWAP1 JUMP JUMPDEST PUSH1 0x0 PUSH1 0x40 MLOAD SWAP1 POP SWAP1 JUMP JUMPDEST PUSH1 0x0 DUP1 REVERT JUMPDEST PUSH1 0x0 DUP1 REVERT JUMPDEST PUSH1 0x0 DUP2 SWAP1 POP SWAP2 SWAP1 POP JUMP JUMPDEST PUSH2 0x9B5 DUP2 PUSH2 0x9A2 JUMP JUMPDEST DUP2 EQ PUSH2 0x9C0 JUMPI PUSH1 0x0 DUP1 REVERT JUMPDEST POP JUMP JUMPDEST PUSH1 0x0 DUP2 CALLDATALOAD SWAP1 POP PUSH2 0x9D2 DUP2 PUSH2 0x9AC JUMP JUMPDEST SWAP3 SWAP2 POP POP JUMP JUMPDEST PUSH1 0x0 PUSH1 0x20 DUP3 DUP5 SUB SLT ISZERO PUSH2 0x9EE JUMPI PUSH2 0x9ED PUSH2 0x998 JUMP JUMPDEST JUMPDEST PUSH1 0x0 PUSH2 0x9FC DUP5 DUP3 DUP6 ADD PUSH2 0x9C3 JUMP JUMPDEST SWAP2 POP POP SWAP3 SWAP2 POP POP JUMP JUMPDEST PUSH1 0x0 DUP1 REVERT JUMPDEST PUSH1 0x0 DUP1 REVERT JUMPDEST PUSH1 0x0 PUSH1 0x1F NOT PUSH1 0x1F DUP4 ADD AND SWAP1 POP SWAP2 SWAP1 POP JUMP JUMPDEST PUSH32 0x4E487B7100000000000000000000000000000000000000000000000000000000 PUSH1 0x0 MSTORE PUSH1 0x41 PUSH1 0x4 MSTORE PUSH1 0x24 PUSH1 0x0 REVERT JUMPDEST PUSH2 0xA58 DUP3 PUSH2 0xA0F JUMP JUMPDEST DUP2 ADD DUP2 DUP2 LT PUSH8 0xFFFFFFFFFFFFFFFF DUP3 GT OR ISZERO PUSH2 0xA77 JUMPI PUSH2 0xA76 PUSH2 0xA20 JUMP JUMPDEST JUMPDEST DUP1 PUSH1 0x40 MSTORE POP POP POP JUMP JUMPDEST PUSH1 0x0 PUSH2 0xA8A PUSH2 0x98E JUMP JUMPDEST SWAP1 POP PUSH2 0xA96 DUP3 DUP3 PUSH2 0xA4F JUMP JUMPDEST SWAP2 SWAP1 POP JUMP JUMPDEST PUSH1 0x0 PUSH8 0xFFFFFFFFFFFFFFFF DUP3 GT ISZERO PUSH2 0xAB6 JUMPI PUSH2 0xAB5 PUSH2 0xA20 JUMP JUMPDEST JUMPDEST PUSH2 0xABF DUP3 PUSH2 0xA0F JUMP JUMPDEST SWAP1 POP PUSH1 0x20 DUP2 ADD SWAP1 POP SWAP2 SWAP1 POP JUMP JUMPDEST DUP3 DUP2 DUP4 CALLDATACOPY PUSH1 0x0 DUP4 DUP4 ADD MSTORE POP POP POP JUMP JUMPDEST PUSH1 0x0 PUSH2 0xAEE PUSH2 0xAE9 DUP5 PUSH2 0xA9B JUMP JUMPDEST PUSH2 0xA80 JUMP JUMPDEST SWAP1 POP DUP3 DUP2 MSTORE PUSH1 0x20 DUP2 ADD DUP5 DUP5 DUP5 ADD GT ISZERO PUSH2 0xB0A JUMPI PUSH2 0xB09 PUSH2 0xA0A JUMP JUMPDEST JUMPDEST PUSH2 0xB15 DUP5 DUP3 DUP6 PUSH2 0xACC JUMP JUMPDEST POP SWAP4 SWAP3 POP POP POP JUMP JUMPDEST PUSH1 0x0 DUP3 PUSH1 0x1F DUP4 ADD SLT PUSH2 0xB32 JUMPI PUSH2 0xB31 PUSH2 0xA05 JUMP JUMPDEST JUMPDEST DUP2 CALLDATALOAD PUSH2 0xB42 DUP5 DUP3 PUSH1 0x20 DUP7 ADD PUSH2 0xADB JUMP JUMPDEST SWAP2 POP POP SWAP3 SWAP2 POP POP JUMP JUMPDEST PUSH1 0x0 DUP1 PUSH1 0x0 PUSH1 0x60 DUP5 DUP7 SUB SLT ISZERO PUSH2 0xB64 JUMPI PUSH2 0xB63 PUSH2 0x998 JUMP JUMPDEST JUMPDEST PUSH1 0x0 PUSH2 0xB72 DUP7 DUP3 DUP8 ADD PUSH2 0x9C3 JUMP JUMPDEST SWAP4 POP POP PUSH1 0x20 DUP5 ADD CALLDATALOAD PUSH8 0xFFFFFFFFFFFFFFFF DUP2 GT ISZERO PUSH2 0xB93 JUMPI PUSH2 0xB92 PUSH2 0x99D JUMP JUMPDEST JUMPDEST PUSH2 0xB9F DUP7 DUP3 DUP8 ADD PUSH2 0xB1D JUMP JUMPDEST SWAP3 POP POP PUSH1 0x40 DUP5 ADD CALLDATALOAD PUSH8 0xFFFFFFFFFFFFFFFF DUP2 GT ISZERO PUSH2 0xBC0 JUMPI PUSH2 0xBBF PUSH2 0x99D JUMP JUMPDEST JUMPDEST PUSH2 0xBCC DUP7 DUP3 DUP8 ADD PUSH2 0xB1D JUMP JUMPDEST SWAP2 POP POP SWAP3 POP SWAP3 POP SWAP3 JUMP JUMPDEST PUSH1 0x0 DUP2 MLOAD SWAP1 POP SWAP2 SWAP1 POP JUMP JUMPDEST PUSH1 0x0 DUP3 DUP3 MSTORE PUSH1 0x20 DUP3 ADD SWAP1 POP SWAP3 SWAP2 POP POP JUMP JUMPDEST PUSH1 0x0 DUP2 SWAP1 POP PUSH1 0x20 DUP3 ADD SWAP1 POP SWAP2 SWAP1 POP JUMP JUMPDEST PUSH1 0x0 DUP2 MLOAD SWAP1 POP SWAP2 SWAP1 POP JUMP JUMPDEST PUSH1 0x0 DUP3 DUP3 MSTORE PUSH1 0x20 DUP3 ADD SWAP1 POP SWAP3 SWAP2 POP POP JUMP JUMPDEST PUSH1 0x0 JUMPDEST DUP4 DUP2 LT ISZERO PUSH2 0xC3C JUMPI DUP1 DUP3 ADD MLOAD DUP2 DUP5 ADD MSTORE PUSH1 0x20 DUP2 ADD SWAP1 POP PUSH2 0xC21 JUMP JUMPDEST PUSH1 0x0 DUP5 DUP5 ADD MSTORE POP POP POP POP JUMP JUMPDEST PUSH1 0x0 PUSH2 0xC53 DUP3 PUSH2 0xC02 JUMP JUMPDEST PUSH2 0xC5D DUP2 DUP6 PUSH2 0xC0D JUMP JUMPDEST SWAP4 POP PUSH2 0xC6D DUP2 DUP6 PUSH1 0x20 DUP7 ADD PUSH2 0xC1E JUMP JUMPDEST PUSH2 0xC76 DUP2 PUSH2 0xA0F JUMP JUMPDEST DUP5 ADD SWAP2 POP POP SWAP3 SWAP2 POP POP JUMP JUMPDEST PUSH1 0x0 DUP2 ISZERO ISZERO SWAP1 POP SWAP2 SWAP1 POP JUMP JUMPDEST PUSH2 0xC96 DUP2 PUSH2 0xC81 JUMP JUMPDEST DUP3 MSTORE POP POP JUMP JUMPDEST PUSH1 0x0 PUSH1 0x60 DUP4 ADD PUSH1 0x0 DUP4 ADD MLOAD DUP5 DUP3 SUB PUSH1 0x0 DUP7 ADD MSTORE PUSH2 0xCB9 DUP3 DUP3 PUSH2 0xC48 JUMP JUMPDEST SWAP2 POP POP PUSH1 0x20 DUP4 ADD MLOAD DUP5 DUP3 SUB PUSH1 0x20 DUP7 ADD MSTORE PUSH2 0xCD3 DUP3 DUP3 PUSH2 0xC48 JUMP JUMPDEST SWAP2 POP POP PUSH1 0x40 DUP4 ADD MLOAD PUSH2 0xCE8 PUSH1 0x40 DUP7 ADD DUP3 PUSH2 0xC8D JUMP JUMPDEST POP DUP1 SWAP2 POP POP SWAP3 SWAP2 POP POP JUMP JUMPDEST PUSH1 0x0 PUSH2 0xCFF DUP4 DUP4 PUSH2 0xC9C JUMP JUMPDEST SWAP1 POP SWAP3 SWAP2 POP POP JUMP JUMPDEST PUSH1 0x0 PUSH1 0x20 DUP3 ADD SWAP1 POP SWAP2 SWAP1 POP JUMP JUMPDEST PUSH1 0x0 PUSH2 0xD1F DUP3 PUSH2 0xBD6 JUMP JUMPDEST PUSH2 0xD29 DUP2 DUP6 PUSH2 0xBE1 JUMP JUMPDEST SWAP4 POP DUP4 PUSH1 0x20 DUP3 MUL DUP6 ADD PUSH2 0xD3B DUP6 PUSH2 0xBF2 JUMP JUMPDEST DUP1 PUSH1 0x0 JUMPDEST DUP6 DUP2 LT ISZERO PUSH2 0xD77 JUMPI DUP5 DUP5 SUB DUP10 MSTORE DUP2 MLOAD PUSH2 0xD58 DUP6 DUP3 PUSH2 0xCF3 JUMP JUMPDEST SWAP5 POP PUSH2 0xD63 DUP4 PUSH2 0xD07 JUMP JUMPDEST SWAP3 POP PUSH1 0x20 DUP11 ADD SWAP10 POP POP PUSH1 0x1 DUP2 ADD SWAP1 POP PUSH2 0xD3F JUMP JUMPDEST POP DUP3 SWAP8 POP DUP8 SWAP6 POP POP POP POP POP POP SWAP3 SWAP2 POP POP JUMP JUMPDEST PUSH1 0x0 PUSH1 0x20 DUP3 ADD SWAP1 POP DUP2 DUP2 SUB PUSH1 0x0 DUP4 ADD MSTORE PUSH2 0xDA3 DUP2 DUP5 PUSH2 0xD14 JUMP JUMPDEST SWAP1 POP SWAP3 SWAP2 POP POP JUMP JUMPDEST PUSH1 0x0 PUSH20 0xFFFFFFFFFFFFFFFFFFFFFFFFFFFFFFFFFFFFFFFF DUP3 AND SWAP1 POP SWAP2 SWAP1 POP JUMP JUMPDEST PUSH1 0x0 PUSH2 0xDD6 DUP3 PUSH2 0xDAB JUMP JUMPDEST SWAP1 POP SWAP2 SWAP1 POP JUMP JUMPDEST PUSH2 0xDE6 DUP2 PUSH2 0xDCB JUMP JUMPDEST DUP2 EQ PUSH2 0xDF1 JUMPI PUSH1 0x0 DUP1 REVERT JUMPDEST POP JUMP JUMPDEST PUSH1 0x0 DUP2 CALLDATALOAD SWAP1 POP PUSH2 0xE03 DUP2 PUSH2 0xDDD JUMP JUMPDEST SWAP3 SWAP2 POP POP JUMP JUMPDEST PUSH1 0x0 DUP1 PUSH1 0x40 DUP4 DUP6 SUB SLT ISZERO PUSH2 0xE20 JUMPI PUSH2 0xE1F PUSH2 0x998 JUMP JUMPDEST JUMPDEST PUSH1 0x0 PUSH2 0xE2E DUP6 DUP3 DUP7 ADD PUSH2 0xDF4 JUMP JUMPDEST SWAP3 POP POP PUSH1 0x20 PUSH2 0xE3F DUP6 DUP3 DUP7 ADD PUSH2 0x9C3 JUMP JUMPDEST SWAP2 POP POP SWAP3 POP SWAP3 SWAP1 POP JUMP JUMPDEST PUSH1 0x0 DUP3 DUP3 MSTORE PUSH1 0x20 DUP3 ADD SWAP1 POP SWAP3 SWAP2 POP POP JUMP JUMPDEST PUSH1 0x0 PUSH2 0xE65 DUP3 PUSH2 0xC02 JUMP JUMPDEST PUSH2 0xE6F DUP2 DUP6 PUSH2 0xE49 JUMP JUMPDEST SWAP4 POP PUSH2 0xE7F DUP2 DUP6 PUSH1 0x20 DUP7 ADD PUSH2 0xC1E JUMP JUMPDEST PUSH2 0xE88 DUP2 PUSH2 0xA0F JUMP JUMPDEST DUP5 ADD SWAP2 POP POP SWAP3 SWAP2 POP POP JUMP JUMPDEST PUSH2 0xE9C DUP2 PUSH2 0xC81 JUMP JUMPDEST DUP3 MSTORE POP POP JUMP JUMPDEST PUSH1 0x0 PUSH1 0x60 DUP3 ADD SWAP1 POP DUP2 DUP2 SUB PUSH1 0x0 DUP4 ADD MSTORE PUSH2 0xEBC DUP2 DUP7 PUSH2 0xE5A JUMP JUMPDEST SWAP1 POP DUP2 DUP2 SUB PUSH1 0x20 DUP4 ADD MSTORE PUSH2 0xED0 DUP2 DUP6 PUSH2 0xE5A JUMP JUMPDEST SWAP1 POP PUSH2 0xEDF PUSH1 0x40 DUP4 ADD DUP5 PUSH2 0xE93 JUMP JUMPDEST SWAP5 SWAP4 POP POP POP POP JUMP JUMPDEST PUSH1 0x0 DUP1 PUSH1 0x40 DUP4 DUP6 SUB SLT ISZERO PUSH2 0xEFE JUMPI PUSH2 0xEFD PUSH2 0x998 JUMP JUMPDEST JUMPDEST PUSH1 0x0 DUP4 ADD CALLDATALOAD PUSH8 0xFFFFFFFFFFFFFFFF DUP2 GT ISZERO PUSH2 0xF1C JUMPI PUSH2 0xF1B PUSH2 0x99D JUMP JUMPDEST JUMPDEST PUSH2 0xF28 DUP6 DUP3 DUP7 ADD PUSH2 0xB1D JUMP JUMPDEST SWAP3 POP POP PUSH1 0x20 DUP4 ADD CALLDATALOAD PUSH8 0xFFFFFFFFFFFFFFFF DUP2 GT ISZERO PUSH2 0xF49 JUMPI PUSH2 0xF48 PUSH2 0x99D JUMP JUMPDEST JUMPDEST PUSH2 0xF55 DUP6 DUP3 DUP7 ADD PUSH2 0xB1D JUMP JUMPDEST SWAP2 POP POP SWAP3 POP SWAP3 SWAP1 POP JUMP JUMPDEST PUSH32 0x496E76616C696420696E64657800000000000000000000000000000000000000 PUSH1 0x0 DUP3 ADD MSTORE POP JUMP JUMPDEST PUSH1 0x0 PUSH2 0xF95 PUSH1 0xD DUP4 PUSH2 0xE49 JUMP JUMPDEST SWAP2 POP PUSH2 0xFA0 DUP3 PUSH2 0xF5F JUMP JUMPDEST PUSH1 0x20 DUP3 ADD SWAP1 POP SWAP2 SWAP1 POP JUMP JUMPDEST PUSH1 0x0 PUSH1 0x20 DUP3 ADD SWAP1 POP DUP2 DUP2 SUB PUSH1 0x0 DUP4 ADD MSTORE PUSH2 0xFC4 DUP2 PUSH2 0xF88 JUMP JUMPDEST SWAP1 POP SWAP2 SWAP1 POP JUMP JUMPDEST PUSH32 0x4E487B7100000000000000000000000000000000000000000000000000000000 PUSH1 0x0 MSTORE PUSH1 0x32 PUSH1 0x4 MSTORE PUSH1 0x24 PUSH1 0x0 REVERT JUMPDEST PUSH32 0x4E487B7100000000000000000000000000000000000000000000000000000000 PUSH1 0x0 MSTORE PUSH1 0x22 PUSH1 0x4 MSTORE PUSH1 0x24 PUSH1 0x0 REVERT JUMPDEST PUSH1 0x0 PUSH1 0x2 DUP3 DIV SWAP1 POP PUSH1 0x1 DUP3 AND DUP1 PUSH2 0x1041 JUMPI PUSH1 0x7F DUP3 AND SWAP2 POP JUMPDEST PUSH1 0x20 DUP3 LT DUP2 SUB PUSH2 0x1054 JUMPI PUSH2 0x1053 PUSH2 0xFFA JUMP JUMPDEST JUMPDEST POP SWAP2 SWAP1 POP JUMP JUMPDEST PUSH1 0x0 DUP2 SWAP1 POP DUP2 PUSH1 0x0 MSTORE PUSH1 0x20 PUSH1 0x0 KECCAK256 SWAP1 POP SWAP2 SWAP1 POP JUMP JUMPDEST PUSH1 0x0 PUSH1 0x20 PUSH1 0x1F DUP4 ADD DIV SWAP1 POP SWAP2 SWAP1 POP JUMP JUMPDEST PUSH1 0x0 DUP3 DUP3 SHL SWAP1 POP SWAP3 SWAP2 POP POP JUMP JUMPDEST PUSH1 0x0 PUSH1 0x8 DUP4 MUL PUSH2 0x10BC PUSH32 0xFFFFFFFFFFFFFFFFFFFFFFFFFFFFFFFFFFFFFFFFFFFFFFFFFFFFFFFFFFFFFFFF DUP3 PUSH2 0x107F JUMP JUMPDEST PUSH2 0x10C6 DUP7 DUP4 PUSH2 0x107F JUMP JUMPDEST SWAP6 POP DUP1 NOT DUP5 AND SWAP4 POP DUP1 DUP7 AND DUP5 OR SWAP3 POP POP POP SWAP4 SWAP3 POP POP POP JUMP JUMPDEST PUSH1 0x0 DUP2 SWAP1 POP SWAP2 SWAP1 POP JUMP JUMPDEST PUSH1 0x0 PUSH2 0x1103 PUSH2 0x10FE PUSH2 0x10F9 DUP5 PUSH2 0x9A2 JUMP JUMPDEST PUSH2 0x10DE JUMP JUMPDEST PUSH2 0x9A2 JUMP JUMPDEST SWAP1 POP SWAP2 SWAP1 POP JUMP JUMPDEST PUSH1 0x0 DUP2 SWAP1 POP SWAP2 SWAP1 POP JUMP JUMPDEST PUSH2 0x111D DUP4 PUSH2 0x10E8 JUMP JUMPDEST PUSH2 0x1131 PUSH2 0x1129 DUP3 PUSH2 0x110A JUMP JUMPDEST DUP5 DUP5 SLOAD PUSH2 0x108C JUMP JUMPDEST DUP3 SSTORE POP POP POP POP JUMP JUMPDEST PUSH1 0x0 SWAP1 JUMP JUMPDEST PUSH2 0x1146 PUSH2 0x1139 JUMP JUMPDEST PUSH2 0x1151 DUP2 DUP5 DUP5 PUSH2 0x1114 JUMP JUMPDEST POP POP POP JUMP JUMPDEST JUMPDEST DUP2 DUP2 LT ISZERO PUSH2 0x1175 JUMPI PUSH2 0x116A PUSH1 0x0 DUP3 PUSH2 0x113E JUMP JUMPDEST PUSH1 0x1 DUP2 ADD SWAP1 POP PUSH2 0x1157 JUMP JUMPDEST POP POP JUMP JUMPDEST PUSH1 0x1F DUP3 GT ISZERO PUSH2 0x11BA JUMPI PUSH2 0x118B DUP2 PUSH2 0x105A JUMP JUMPDEST PUSH2 0x1194 DUP5 PUSH2 0x106F JUMP JUMPDEST DUP2 ADD PUSH1 0x20 DUP6 LT ISZERO PUSH2 0x11A3 JUMPI DUP2 SWAP1 POP JUMPDEST PUSH2 0x11B7 PUSH2 0x11AF DUP6 PUSH2 0x106F JUMP JUMPDEST DUP4 ADD DUP3 PUSH2 0x1156 JUMP JUMPDEST POP POP JUMPDEST POP POP POP JUMP JUMPDEST PUSH1 0x0 DUP3 DUP3 SHR SWAP1 POP SWAP3 SWAP2 POP POP JUMP JUMPDEST PUSH1 0x0 PUSH2 0x11DD PUSH1 0x0 NOT DUP5 PUSH1 0x8 MUL PUSH2 0x11BF JUMP JUMPDEST NOT DUP1 DUP4 AND SWAP2 POP POP SWAP3 SWAP2 POP POP JUMP JUMPDEST PUSH1 0x0 PUSH2 0x11F6 DUP4 DUP4 PUSH2 0x11CC JUMP JUMPDEST SWAP2 POP DUP3 PUSH1 0x2 MUL DUP3 OR SWAP1 POP SWAP3 SWAP2 POP POP JUMP JUMPDEST PUSH2 0x120F DUP3 PUSH2 0xC02 JUMP JUMPDEST PUSH8 0xFFFFFFFFFFFFFFFF DUP2 GT ISZERO PUSH2 0x1228 JUMPI PUSH2 0x1227 PUSH2 0xA20 JUMP JUMPDEST JUMPDEST PUSH2 0x1232 DUP3 SLOAD PUSH2 0x1029 JUMP JUMPDEST PUSH2 0x123D DUP3 DUP3 DUP6 PUSH2 0x1179 JUMP JUMPDEST PUSH1 0x0 PUSH1 0x20 SWAP1 POP PUSH1 0x1F DUP4 GT PUSH1 0x1 DUP2 EQ PUSH2 0x1270 JUMPI PUSH1 0x0 DUP5 ISZERO PUSH2 0x125E JUMPI DUP3 DUP8 ADD MLOAD SWAP1 POP JUMPDEST PUSH2 0x1268 DUP6 DUP3 PUSH2 0x11EA JUMP JUMPDEST DUP7 SSTORE POP PUSH2 0x12D0 JUMP JUMPDEST PUSH1 0x1F NOT DUP5 AND PUSH2 0x127E DUP7 PUSH2 0x105A JUMP JUMPDEST PUSH1 0x0 JUMPDEST DUP3 DUP2 LT ISZERO PUSH2 0x12A6 JUMPI DUP5 DUP10 ADD MLOAD DUP3 SSTORE PUSH1 0x1 DUP3 ADD SWAP2 POP PUSH1 0x20 DUP6 ADD SWAP5 POP PUSH1 0x20 DUP2 ADD SWAP1 POP PUSH2 0x1281 JUMP JUMPDEST DUP7 DUP4 LT ISZERO PUSH2 0x12C3 JUMPI DUP5 DUP10 ADD MLOAD PUSH2 0x12BF PUSH1 0x1F DUP10 AND DUP3 PUSH2 0x11CC JUMP JUMPDEST DUP4 SSTORE POP JUMPDEST PUSH1 0x1 PUSH1 0x2 DUP9 MUL ADD DUP9 SSTORE POP POP POP JUMPDEST POP POP POP POP POP POP JUMP INVALID LOG2 PUSH5 0x6970667358 0x22 SLT KECCAK256 0x27 PUSH11 0xB022E54D1170C67A7DBDA9 PUSH0 0xDE PUSH25 0xC3E51EC3DC2AC75ED8E0F841801F549064736F6C634300081C STOP CALLER "
        },
        "methodIdentifiers": {
          "create_Todo(string,string)": "64a4cb8f",
          "delete_todos(uint256)": "1bed2277",
          "get_todos()": "3865881b",
          "todos(address,uint256)": "428c1889",
          "toggle_todo_status(uint256)": "5a051ea2",
          "update_Todo(uint256,string,string)": "23c35015"
        }
      }
    }
  }
}