{
  "_format": "hh-sol-artifact-1",
  "contractName": "MockUniswapRouter",
  "sourceName": "contracts/MockUniswapRouter.sol",
  "abi": [
    {
      "inputs": [
        {
          "internalType": "uint256",
          "name": "amountIn",
          "type": "uint256"
        },
        {
          "internalType": "address[]",
          "name": "path",
          "type": "address[]"
        },
        {
          "internalType": "uint256",
          "name": "deadline",
          "type": "uint256"
        }
      ],
      "name": "swapExactTokensForTokens",
      "outputs": [
        {
          "internalType": "uint256[]",
          "name": "amounts",
          "type": "uint256[]"
        }
      ],
      "stateMutability": "nonpayable",
      "type": "function"
    }
  ],
  "bytecode": "0x6080604052348015600f57600080fd5b506106858061001f6000396000f3fe608060405234801561001057600080fd5b506004361061002b5760003560e01c8063bc88167914610030575b600080fd5b61004a60048036038101906100459190610278565b610060565b60405161005791906103aa565b60405180910390f35b6060428210156100a5576040517f08c379a000000000000000000000000000000000000000000000000000000000815260040161009c90610429565b60405180910390fd5b838360008181106100b9576100b8610449565b5b90506020020160208101906100ce91906104d6565b73ffffffffffffffffffffffffffffffffffffffff166323b872dd3330886040518463ffffffff1660e01b815260040161010a93929190610521565b6020604051808303816000875af1158015610129573d6000803e3d6000fd5b505050506040513d601f19601f8201168201806040525081019061014d9190610590565b508383905067ffffffffffffffff81111561016b5761016a6105bd565b5b6040519080825280602002602001820160405280156101995781602001602082028036833780820191505090505b50905084816001868690506101ae919061061b565b815181106101bf576101be610449565b5b602002602001018181525050949350505050565b600080fd5b600080fd5b6000819050919050565b6101f0816101dd565b81146101fb57600080fd5b50565b60008135905061020d816101e7565b92915050565b600080fd5b600080fd5b600080fd5b60008083601f84011261023857610237610213565b5b8235905067ffffffffffffffff81111561025557610254610218565b5b6020830191508360208202830111156102715761027061021d565b5b9250929050565b60008060008060608587031215610292576102916101d3565b5b60006102a0878288016101fe565b945050602085013567ffffffffffffffff8111156102c1576102c06101d8565b5b6102cd87828801610222565b935093505060406102e0878288016101fe565b91505092959194509250565b600081519050919050565b600082825260208201905092915050565b6000819050602082019050919050565b610321816101dd565b82525050565b60006103338383610318565b60208301905092915050565b6000602082019050919050565b6000610357826102ec565b61036181856102f7565b935061036c83610308565b8060005b8381101561039d5781516103848882610327565b975061038f8361033f565b925050600181019050610370565b5085935050505092915050565b600060208201905081810360008301526103c4818461034c565b905092915050565b600082825260208201905092915050565b7f446561646c696e65206578706972656400000000000000000000000000000000600082015250565b60006104136010836103cc565b915061041e826103dd565b602082019050919050565b6000602082019050818103600083015261044281610406565b9050919050565b7f4e487b7100000000000000000000000000000000000000000000000000000000600052603260045260246000fd5b600073ffffffffffffffffffffffffffffffffffffffff82169050919050565b60006104a382610478565b9050919050565b6104b381610498565b81146104be57600080fd5b50565b6000813590506104d0816104aa565b92915050565b6000602082840312156104ec576104eb6101d3565b5b60006104fa848285016104c1565b91505092915050565b61050c81610498565b82525050565b61051b816101dd565b82525050565b60006060820190506105366000830186610503565b6105436020830185610503565b6105506040830184610512565b949350505050565b60008115159050919050565b61056d81610558565b811461057857600080fd5b50565b60008151905061058a81610564565b92915050565b6000602082840312156105a6576105a56101d3565b5b60006105b48482850161057b565b91505092915050565b7f4e487b7100000000000000000000000000000000000000000000000000000000600052604160045260246000fd5b7f4e487b7100000000000000000000000000000000000000000000000000000000600052601160045260246000fd5b6000610626826101dd565b9150610631836101dd565b9250828203905081811115610649576106486105ec565b5b9291505056fea2646970667358221220d0fc2e9e87bcbf908255434128ec7235a09ce6466e8a5f30605d6ba6cad6dd8264736f6c634300081c0033",
  "linkReferences": {},
  "deployedLinkReferences": {}
}