{
  "_format": "hh-sol-artifact-1",
  "contractName": "Entry",
  "sourceName": "contracts/cardAccess.sol",
  "abi": [
    {
      "inputs": [],
      "stateMutability": "nonpayable",
      "type": "constructor"
    },
    {
      "inputs": [],
      "name": "Owner",
      "outputs": [
        {
          "internalType": "address",
          "name": "",
          "type": "address"
        }
      ],
      "stateMutability": "view",
      "type": "function"
    },
    {
      "inputs": [
        {
          "internalType": "string",
          "name": "_name",
          "type": "string"
        },
        {
          "internalType": "enum Entry.role",
          "name": "_role",
          "type": "uint8"
        },
        {
          "internalType": "bool",
          "name": "employed",
          "type": "bool"
        }
      ],
      "name": "addEmployee",
      "outputs": [],
      "stateMutability": "nonpayable",
      "type": "function"
    },
    {
      "inputs": [
        {
          "internalType": "address",
          "name": "_employeeAddress",
          "type": "address"
        }
      ],
      "name": "checkAccess",
      "outputs": [
        {
          "internalType": "bool",
          "name": "",
          "type": "bool"
        }
      ],
      "stateMutability": "view",
      "type": "function"
    },
    {
      "inputs": [
        {
          "internalType": "address",
          "name": "",
          "type": "address"
        }
      ],
      "name": "employee",
      "outputs": [
        {
          "internalType": "string",
          "name": "name",
          "type": "string"
        },
        {
          "internalType": "enum Entry.role",
          "name": "role",
          "type": "uint8"
        },
        {
          "internalType": "bool",
          "name": "employed",
          "type": "bool"
        },
        {
          "internalType": "address",
          "name": "Owner",
          "type": "address"
        }
      ],
      "stateMutability": "view",
      "type": "function"
    },
    {
      "inputs": [
        {
          "internalType": "uint256",
          "name": "",
          "type": "uint256"
        }
      ],
      "name": "employees",
      "outputs": [
        {
          "internalType": "string",
          "name": "name",
          "type": "string"
        },
        {
          "internalType": "enum Entry.role",
          "name": "role",
          "type": "uint8"
        },
        {
          "internalType": "bool",
          "name": "employed",
          "type": "bool"
        },
        {
          "internalType": "address",
          "name": "Owner",
          "type": "address"
        }
      ],
      "stateMutability": "view",
      "type": "function"
    },
    {
      "inputs": [],
      "name": "getAllEmployees",
      "outputs": [
        {
          "components": [
            {
              "internalType": "string",
              "name": "name",
              "type": "string"
            },
            {
              "internalType": "enum Entry.role",
              "name": "role",
              "type": "uint8"
            },
            {
              "internalType": "bool",
              "name": "employed",
              "type": "bool"
            },
            {
              "internalType": "address",
              "name": "Owner",
              "type": "address"
            }
          ],
          "internalType": "struct Entry.Employee[]",
          "name": "",
          "type": "tuple[]"
        }
      ],
      "stateMutability": "view",
      "type": "function"
    },
    {
      "inputs": [
        {
          "internalType": "bool",
          "name": "_employed",
          "type": "bool"
        },
        {
          "internalType": "address",
          "name": "_employeeAddress",
          "type": "address"
        }
      ],
      "name": "updateEmployed",
      "outputs": [],
      "stateMutability": "nonpayable",
      "type": "function"
    },
    {
      "inputs": [
        {
          "internalType": "string",
          "name": "_name",
          "type": "string"
        },
        {
          "internalType": "address",
          "name": "_employeeAddress",
          "type": "address"
        }
      ],
      "name": "updateName",
      "outputs": [],
      "stateMutability": "nonpayable",
      "type": "function"
    }
  ],
  "bytecode": "0x6080604052348015600f57600080fd5b50336000806101000a81548173ffffffffffffffffffffffffffffffffffffffff021916908373ffffffffffffffffffffffffffffffffffffffff16021790555061163f8061005f6000396000f3fe608060405234801561001057600080fd5b50600436106100885760003560e01c8063700cc3971161005b578063700cc3971461013f578063b4a99a4e1461015b578063de74b50f14610179578063e3366fed1461019557610088565b806309d495fd1461008d5780630d6e1b65146100c0578063466a0146146100dc5780634739326b1461010c575b600080fd5b6100a760048036038101906100a29190610c6a565b6101b3565b6040516100b79493929190610dc8565b60405180910390f35b6100da60048036038101906100d59190610f49565b6102a5565b005b6100f660048036038101906100f19190610c6a565b6103c3565b6040516101039190610fa5565b60405180910390f35b61012660048036038101906101219190610ff6565b6105c3565b6040516101369493929190610dc8565b60405180910390f35b61015960048036038101906101549190611074565b6106c5565b005b610163610905565b60405161017091906110e3565b60405180910390f35b610193600480360381019061018e91906110fe565b610929565b005b61019d610a5b565b6040516101aa91906112da565b60405180910390f35b60026020528060005260406000206000915090508060000180546101d69061132b565b80601f01602080910402602001604051908101604052809291908181526020018280546102029061132b565b801561024f5780601f106102245761010080835404028352916020019161024f565b820191906000526020600020905b81548152906001019060200180831161023257829003601f168201915b5050505050908060010160009054906101000a900460ff16908060010160019054906101000a900460ff16908060010160029054906101000a900473ffffffffffffffffffffffffffffffffffffffff16905084565b81600260008373ffffffffffffffffffffffffffffffffffffffff1673ffffffffffffffffffffffffffffffffffffffff16815260200190815260200160002060000190816102f49190611508565b5060005b6001805490508110156103be578173ffffffffffffffffffffffffffffffffffffffff16600182815481106103305761032f6115da565b5b906000526020600020906002020160010160029054906101000a900473ffffffffffffffffffffffffffffffffffffffff1673ffffffffffffffffffffffffffffffffffffffff16036103b1578260018281548110610392576103916115da565b5b906000526020600020906002020160000190816103af9190611508565b505b80806001019150506102f8565b505050565b6000805b6001805490508110156105b8578273ffffffffffffffffffffffffffffffffffffffff16600182815481106103ff576103fe6115da565b5b906000526020600020906002020160010160029054906101000a900473ffffffffffffffffffffffffffffffffffffffff1673ffffffffffffffffffffffffffffffffffffffff16036105ab57600181815481106104605761045f6115da565b5b906000526020600020906002020160010160019054906101000a900460ff1680156105a357506000600581111561049a57610499610d27565b5b600182815481106104ae576104ad6115da565b5b906000526020600020906002020160010160009054906101000a900460ff1660058111156104df576104de610d27565b5b14806105415750600160058111156104fa576104f9610d27565b5b6001828154811061050e5761050d6115da565b5b906000526020600020906002020160010160009054906101000a900460ff16600581111561053f5761053e610d27565b5b145b806105a257506002600581111561055b5761055a610d27565b5b6001828154811061056f5761056e6115da565b5b906000526020600020906002020160010160009054906101000a900460ff1660058111156105a05761059f610d27565b5b145b5b9150506105be565b80806001019150506103c7565b50600090505b919050565b600181815481106105d357600080fd5b90600052602060002090600202016000915090508060000180546105f69061132b565b80601f01602080910402602001604051908101604052809291908181526020018280546106229061132b565b801561066f5780601f106106445761010080835404028352916020019161066f565b820191906000526020600020905b81548152906001019060200180831161065257829003601f168201915b5050505050908060010160009054906101000a900460ff16908060010160019054906101000a900460ff16908060010160029054906101000a900473ffffffffffffffffffffffffffffffffffffffff16905084565b600060405180608001604052808581526020018460058111156106eb576106ea610d27565b5b8152602001831515815260200160008054906101000a900473ffffffffffffffffffffffffffffffffffffffff1673ffffffffffffffffffffffffffffffffffffffff16815250905080600260003373ffffffffffffffffffffffffffffffffffffffff1673ffffffffffffffffffffffffffffffffffffffff16815260200190815260200160002060008201518160000190816107899190611508565b5060208201518160010160006101000a81548160ff021916908360058111156107b5576107b4610d27565b5b021790555060408201518160010160016101000a81548160ff02191690831515021790555060608201518160010160026101000a81548173ffffffffffffffffffffffffffffffffffffffff021916908373ffffffffffffffffffffffffffffffffffffffff160217905550905050600181908060018154018082558091505060019003906000526020600020906002020160009091909190915060008201518160000190816108659190611508565b5060208201518160010160006101000a81548160ff0219169083600581111561089157610890610d27565b5b021790555060408201518160010160016101000a81548160ff02191690831515021790555060608201518160010160026101000a81548173ffffffffffffffffffffffffffffffffffffffff021916908373ffffffffffffffffffffffffffffffffffffffff160217905550505050505050565b60008054906101000a900473ffffffffffffffffffffffffffffffffffffffff1681565b81600260008373ffffffffffffffffffffffffffffffffffffffff1673ffffffffffffffffffffffffffffffffffffffff16815260200190815260200160002060010160016101000a81548160ff02191690831515021790555060005b600180549050811015610a56578173ffffffffffffffffffffffffffffffffffffffff16600182815481106109be576109bd6115da565b5b906000526020600020906002020160010160029054906101000a900473ffffffffffffffffffffffffffffffffffffffff1673ffffffffffffffffffffffffffffffffffffffff1603610a49578260018281548110610a2057610a1f6115da565b5b906000526020600020906002020160010160016101000a81548160ff0219169083151502179055505b8080600101915050610986565b505050565b60606001805480602002602001604051908101604052809291908181526020016000905b82821015610bef5783829060005260206000209060020201604051806080016040529081600082018054610ab29061132b565b80601f0160208091040260200160405190810160405280929190818152602001828054610ade9061132b565b8015610b2b5780601f10610b0057610100808354040283529160200191610b2b565b820191906000526020600020905b815481529060010190602001808311610b0e57829003601f168201915b505050505081526020016001820160009054906101000a900460ff166005811115610b5957610b58610d27565b5b6005811115610b6b57610b6a610d27565b5b81526020016001820160019054906101000a900460ff161515151581526020016001820160029054906101000a900473ffffffffffffffffffffffffffffffffffffffff1673ffffffffffffffffffffffffffffffffffffffff1673ffffffffffffffffffffffffffffffffffffffff168152505081526020019060010190610a7f565b50505050905090565b6000604051905090565b600080fd5b600080fd5b600073ffffffffffffffffffffffffffffffffffffffff82169050919050565b6000610c3782610c0c565b9050919050565b610c4781610c2c565b8114610c5257600080fd5b50565b600081359050610c6481610c3e565b92915050565b600060208284031215610c8057610c7f610c02565b5b6000610c8e84828501610c55565b91505092915050565b600081519050919050565b600082825260208201905092915050565b60005b83811015610cd1578082015181840152602081019050610cb6565b60008484015250505050565b6000601f19601f8301169050919050565b6000610cf982610c97565b610d038185610ca2565b9350610d13818560208601610cb3565b610d1c81610cdd565b840191505092915050565b7f4e487b7100000000000000000000000000000000000000000000000000000000600052602160045260246000fd5b60068110610d6757610d66610d27565b5b50565b6000819050610d7882610d56565b919050565b6000610d8882610d6a565b9050919050565b610d9881610d7d565b82525050565b60008115159050919050565b610db381610d9e565b82525050565b610dc281610c2c565b82525050565b60006080820190508181036000830152610de28187610cee565b9050610df16020830186610d8f565b610dfe6040830185610daa565b610e0b6060830184610db9565b95945050505050565b600080fd5b600080fd5b7f4e487b7100000000000000000000000000000000000000000000000000000000600052604160045260246000fd5b610e5682610cdd565b810181811067ffffffffffffffff82111715610e7557610e74610e1e565b5b80604052505050565b6000610e88610bf8565b9050610e948282610e4d565b919050565b600067ffffffffffffffff821115610eb457610eb3610e1e565b5b610ebd82610cdd565b9050602081019050919050565b82818337600083830152505050565b6000610eec610ee784610e99565b610e7e565b905082815260208101848484011115610f0857610f07610e19565b5b610f13848285610eca565b509392505050565b600082601f830112610f3057610f2f610e14565b5b8135610f40848260208601610ed9565b91505092915050565b60008060408385031215610f6057610f5f610c02565b5b600083013567ffffffffffffffff811115610f7e57610f7d610c07565b5b610f8a85828601610f1b565b9250506020610f9b85828601610c55565b9150509250929050565b6000602082019050610fba6000830184610daa565b92915050565b6000819050919050565b610fd381610fc0565b8114610fde57600080fd5b50565b600081359050610ff081610fca565b92915050565b60006020828403121561100c5761100b610c02565b5b600061101a84828501610fe1565b91505092915050565b6006811061103057600080fd5b50565b60008135905061104281611023565b92915050565b61105181610d9e565b811461105c57600080fd5b50565b60008135905061106e81611048565b92915050565b60008060006060848603121561108d5761108c610c02565b5b600084013567ffffffffffffffff8111156110ab576110aa610c07565b5b6110b786828701610f1b565b93505060206110c886828701611033565b92505060406110d98682870161105f565b9150509250925092565b60006020820190506110f86000830184610db9565b92915050565b6000806040838503121561111557611114610c02565b5b60006111238582860161105f565b925050602061113485828601610c55565b9150509250929050565b600081519050919050565b600082825260208201905092915050565b6000819050602082019050919050565b600082825260208201905092915050565b600061118682610c97565b611190818561116a565b93506111a0818560208601610cb3565b6111a981610cdd565b840191505092915050565b6111bd81610d7d565b82525050565b6111cc81610d9e565b82525050565b6111db81610c2c565b82525050565b600060808301600083015184820360008601526111fe828261117b565b915050602083015161121360208601826111b4565b50604083015161122660408601826111c3565b50606083015161123960608601826111d2565b508091505092915050565b600061125083836111e1565b905092915050565b6000602082019050919050565b60006112708261113e565b61127a8185611149565b93508360208202850161128c8561115a565b8060005b858110156112c857848403895281516112a98582611244565b94506112b483611258565b925060208a01995050600181019050611290565b50829750879550505050505092915050565b600060208201905081810360008301526112f48184611265565b905092915050565b7f4e487b7100000000000000000000000000000000000000000000000000000000600052602260045260246000fd5b6000600282049050600182168061134357607f821691505b602082108103611356576113556112fc565b5b50919050565b60008190508160005260206000209050919050565b60006020601f8301049050919050565b600082821b905092915050565b6000600883026113be7fffffffffffffffffffffffffffffffffffffffffffffffffffffffffffffffff82611381565b6113c88683611381565b95508019841693508086168417925050509392505050565b6000819050919050565b60006114056114006113fb84610fc0565b6113e0565b610fc0565b9050919050565b6000819050919050565b61141f836113ea565b61143361142b8261140c565b84845461138e565b825550505050565b600090565b61144861143b565b611453818484611416565b505050565b5b818110156114775761146c600082611440565b600181019050611459565b5050565b601f8211156114bc5761148d8161135c565b61149684611371565b810160208510156114a5578190505b6114b96114b185611371565b830182611458565b50505b505050565b600082821c905092915050565b60006114df600019846008026114c1565b1980831691505092915050565b60006114f883836114ce565b9150826002028217905092915050565b61151182610c97565b67ffffffffffffffff81111561152a57611529610e1e565b5b611534825461132b565b61153f82828561147b565b600060209050601f8311600181146115725760008415611560578287015190505b61156a85826114ec565b8655506115d2565b601f1984166115808661135c565b60005b828110156115a857848901518255600182019150602085019450602081019050611583565b868310156115c557848901516115c1601f8916826114ce565b8355505b6001600288020188555050505b505050505050565b7f4e487b7100000000000000000000000000000000000000000000000000000000600052603260045260246000fdfea2646970667358221220721a056c9acf603d430965d895ac87903c5148c1ae3ecf4acc7aafe463cf826564736f6c634300081e0033",
  "linkReferences": {},
  "deployedLinkReferences": {}
}