{"contracts/piggybank.sol":{"Savings_Account":{"abi":[{"inputs":[{"internalType":"string","name":"_name","type":"string"},{"internalType":"bool","name":"_isEther","type":"bool"},{"internalType":"uint256","name":"_LockPeriod","type":"uint256"},{"internalType":"address","name":"_owner","type":"address"},{"internalType":"address","name":"_admin","type":"address"},{"internalType":"address","name":"_token_address","type":"address"}],"stateMutability":"nonpayable","type":"constructor"},{"inputs":[],"name":"deposit","outputs":[],"stateMutability":"payable","type":"function"},{"inputs":[{"internalType":"uint256","name":"amount","type":"uint256"}],"name":"depositTokens","outputs":[],"stateMutability":"nonpayable","type":"function"},{"inputs":[{"internalType":"uint256","name":"amount","type":"uint256"}],"name":"withdraw","outputs":[],"stateMutability":"nonpayable","type":"function"},{"inputs":[{"internalType":"uint256","name":"amount","type":"uint256"}],"name":"withdrawTokens","outputs":[],"stateMutability":"nonpayable","type":"function"},{"stateMutability":"payable","type":"receive"}],"evm":{"bytecode":{"linkReferences":{},"object":"608060405234801561001057600080fd5b506040516118f03803806118f083398181016040528101906100329190610378565b85600090816100419190610638565b5084600160006101000a81548160ff021916908315150217905550826001806101000a81548173ffffffffffffffffffffffffffffffffffffffff021916908373ffffffffffffffffffffffffffffffffffffffff160217905550836003819055504260048190555081600660006101000a81548173ffffffffffffffffffffffffffffffffffffffff021916908373ffffffffffffffffffffffffffffffffffffffff16021790555080600260006101000a81548173ffffffffffffffffffffffffffffffffffffffff021916908373ffffffffffffffffffffffffffffffffffffffff16021790555050505050505061070a565b6000604051905090565b600080fd5b600080fd5b600080fd5b600080fd5b6000601f19601f8301169050919050565b7f4e487b7100000000000000000000000000000000000000000000000000000000600052604160045260246000fd5b61019e82610155565b810181811067ffffffffffffffff821117156101bd576101bc610166565b5b80604052505050565b60006101d0610137565b90506101dc8282610195565b919050565b600067ffffffffffffffff8211156101fc576101fb610166565b5b61020582610155565b9050602081019050919050565b60005b83811015610230578082015181840152602081019050610215565b60008484015250505050565b600061024f61024a846101e1565b6101c6565b90508281526020810184848401111561026b5761026a610150565b5b610276848285610212565b509392505050565b600082601f8301126102935761029261014b565b5b81516102a384826020860161023c565b91505092915050565b60008115159050919050565b6102c1816102ac565b81146102cc57600080fd5b50565b6000815190506102de816102b8565b92915050565b6000819050919050565b6102f7816102e4565b811461030257600080fd5b50565b600081519050610314816102ee565b92915050565b600073ffffffffffffffffffffffffffffffffffffffff82169050919050565b60006103458261031a565b9050919050565b6103558161033a565b811461036057600080fd5b50565b6000815190506103728161034c565b92915050565b60008060008060008060c0878903121561039557610394610141565b5b600087015167ffffffffffffffff8111156103b3576103b2610146565b5b6103bf89828a0161027e565b96505060206103d089828a016102cf565b95505060406103e189828a01610305565b94505060606103f289828a01610363565b935050608061040389828a01610363565b92505060a061041489828a01610363565b9150509295509295509295565b600081519050919050565b7f4e487b7100000000000000000000000000000000000000000000000000000000600052602260045260246000fd5b6000600282049050600182168061047357607f821691505b6020821081036104865761048561042c565b5b50919050565b60008190508160005260206000209050919050565b60006020601f8301049050919050565b600082821b905092915050565b6000600883026104ee7fffffffffffffffffffffffffffffffffffffffffffffffffffffffffffffffff826104b1565b6104f886836104b1565b95508019841693508086168417925050509392505050565b6000819050919050565b600061053561053061052b846102e4565b610510565b6102e4565b9050919050565b6000819050919050565b61054f8361051a565b61056361055b8261053c565b8484546104be565b825550505050565b600090565b61057861056b565b610583818484610546565b505050565b5b818110156105a75761059c600082610570565b600181019050610589565b5050565b601f8211156105ec576105bd8161048c565b6105c6846104a1565b810160208510156105d5578190505b6105e96105e1856104a1565b830182610588565b50505b505050565b600082821c905092915050565b600061060f600019846008026105f1565b1980831691505092915050565b600061062883836105fe565b9150826002028217905092915050565b61064182610421565b67ffffffffffffffff81111561065a57610659610166565b5b610664825461045b565b61066f8282856105ab565b600060209050601f8311600181146106a25760008415610690578287015190505b61069a858261061c565b865550610702565b601f1984166106b08661048c565b60005b828110156106d8578489015182556001820191506020850194506020810190506106b3565b868310156106f557848901516106f1601f8916826105fe565b8355505b6001600288020188555050505b505050505050565b6111d7806107196000396000f3fe6080604052600436106100435760003560e01c80632e1a7d4d146100b6578063315a095d146100df578063d0e30db014610108578063dd49756e14610112576100b1565b366100b157600160009054906101000a900460ff16610097576040517f08c379a000000000000000000000000000000000000000000000000000000000815260040161008e90610ad9565b60405180910390fd5b34600560008282546100a99190610b32565b925050819055005b600080fd5b3480156100c257600080fd5b506100dd60048036038101906100d89190610b97565b61013b565b005b3480156100eb57600080fd5b5061010660048036038101906101019190610b97565b610369565b005b610110610717565b005b34801561011e57600080fd5b5061013960048036038101906101349190610b97565b610858565b005b60018054906101000a900473ffffffffffffffffffffffffffffffffffffffff1673ffffffffffffffffffffffffffffffffffffffff163373ffffffffffffffffffffffffffffffffffffffff16146101c9576040517f08c379a00000000000000000000000000000000000000000000000000000000081526004016101c090610c36565b60405180910390fd5b6000811180156101db57506005548111155b61021a576040517f08c379a000000000000000000000000000000000000000000000000000000000815260040161021190610ca2565b60405180910390fd5b600060035460045461022c9190610b32565b90506000814210905060008161024357600061025d565b60646003856102529190610cc2565b61025c9190610d33565b5b90506000818561026d9190610d64565b905084600560008282546102819190610d64565b9250508190555060008211156102fb57600660009054906101000a900473ffffffffffffffffffffffffffffffffffffffff1673ffffffffffffffffffffffffffffffffffffffff166108fc839081150290604051600060405180830381858888f193505050501580156102f9573d6000803e3d6000fd5b505b60018054906101000a900473ffffffffffffffffffffffffffffffffffffffff1673ffffffffffffffffffffffffffffffffffffffff166108fc829081150290604051600060405180830381858888f19350505050158015610361573d6000803e3d6000fd5b505050505050565b60018054906101000a900473ffffffffffffffffffffffffffffffffffffffff1673ffffffffffffffffffffffffffffffffffffffff163373ffffffffffffffffffffffffffffffffffffffff16146103f7576040517f08c379a00000000000000000000000000000000000000000000000000000000081526004016103ee90610c36565b60405180910390fd5b600160009054906101000a900460ff1615610447576040517f08c379a000000000000000000000000000000000000000000000000000000000815260040161043e90610de4565b60405180910390fd5b60008111801561045957506005548111155b610498576040517f08c379a000000000000000000000000000000000000000000000000000000000815260040161048f90610ca2565b60405180910390fd5b60006003546004546104aa9190610b32565b9050600081421090506000816104c15760006104db565b60646003856104d09190610cc2565b6104da9190610d33565b5b9050600081856104eb9190610d64565b905084600560008282546104ff9190610d64565b92505081905550600082111561061157600260009054906101000a900473ffffffffffffffffffffffffffffffffffffffff1673ffffffffffffffffffffffffffffffffffffffff1663a9059cbb600660009054906101000a900473ffffffffffffffffffffffffffffffffffffffff16846040518363ffffffff1660e01b815260040161058e929190610e54565b6020604051808303816000875af11580156105ad573d6000803e3d6000fd5b505050506040513d601f19601f820116820180604052508101906105d19190610eb5565b610610576040517f08c379a000000000000000000000000000000000000000000000000000000000815260040161060790610f2e565b60405180910390fd5b5b600260009054906101000a900473ffffffffffffffffffffffffffffffffffffffff1673ffffffffffffffffffffffffffffffffffffffff1663a9059cbb60018054906101000a900473ffffffffffffffffffffffffffffffffffffffff16836040518363ffffffff1660e01b815260040161068e929190610e54565b6020604051808303816000875af11580156106ad573d6000803e3d6000fd5b505050506040513d601f19601f820116820180604052508101906106d19190610eb5565b610710576040517f08c379a000000000000000000000000000000000000000000000000000000000815260040161070790610f9a565b60405180910390fd5b5050505050565b60018054906101000a900473ffffffffffffffffffffffffffffffffffffffff1673ffffffffffffffffffffffffffffffffffffffff163373ffffffffffffffffffffffffffffffffffffffff16146107a5576040517f08c379a000000000000000000000000000000000000000000000000000000000815260040161079c90610c36565b60405180910390fd5b600160009054906101000a900460ff161561081b57600034116107fd576040517f08c379a00000000000000000000000000000000000000000000000000000000081526004016107f490611006565b60405180910390fd5b346005600082825461080f9190610b32565b92505081905550610856565b6040517f08c379a000000000000000000000000000000000000000000000000000000000815260040161084d90611072565b60405180910390fd5b565b60018054906101000a900473ffffffffffffffffffffffffffffffffffffffff1673ffffffffffffffffffffffffffffffffffffffff163373ffffffffffffffffffffffffffffffffffffffff16146108e6576040517f08c379a00000000000000000000000000000000000000000000000000000000081526004016108dd90610c36565b60405180910390fd5b600160009054906101000a900460ff1615610936576040517f08c379a000000000000000000000000000000000000000000000000000000000815260040161092d906110de565b60405180910390fd5b60008111610979576040517f08c379a000000000000000000000000000000000000000000000000000000000815260040161097090610ca2565b60405180910390fd5b6000600260009054906101000a900473ffffffffffffffffffffffffffffffffffffffff1673ffffffffffffffffffffffffffffffffffffffff166323b872dd3330856040518463ffffffff1660e01b81526004016109da939291906110fe565b6020604051808303816000875af11580156109f9573d6000803e3d6000fd5b505050506040513d601f19601f82011682018060405250810190610a1d9190610eb5565b905080610a5f576040517f08c379a0000000000000000000000000000000000000000000000000000000008152600401610a5690611181565b60405180910390fd5b8160056000828254610a719190610b32565b925050819055505050565b600082825260208201905092915050565b7f6e6f742065746865720000000000000000000000000000000000000000000000600082015250565b6000610ac3600983610a7c565b9150610ace82610a8d565b602082019050919050565b60006020820190508181036000830152610af281610ab6565b9050919050565b6000819050919050565b7f4e487b7100000000000000000000000000000000000000000000000000000000600052601160045260246000fd5b6000610b3d82610af9565b9150610b4883610af9565b9250828201905080821115610b6057610b5f610b03565b5b92915050565b600080fd5b610b7481610af9565b8114610b7f57600080fd5b50565b600081359050610b9181610b6b565b92915050565b600060208284031215610bad57610bac610b66565b5b6000610bbb84828501610b82565b91505092915050565b7f596f7520617265206e6f7420746865206f776e6572206f66207468697320616360008201527f636f756e742e0000000000000000000000000000000000000000000000000000602082015250565b6000610c20602683610a7c565b9150610c2b82610bc4565b604082019050919050565b60006020820190508181036000830152610c4f81610c13565b9050919050565b7f696e76616c696420616d6f756e74000000000000000000000000000000000000600082015250565b6000610c8c600e83610a7c565b9150610c9782610c56565b602082019050919050565b60006020820190508181036000830152610cbb81610c7f565b9050919050565b6000610ccd82610af9565b9150610cd883610af9565b9250828202610ce681610af9565b91508282048414831517610cfd57610cfc610b03565b5b5092915050565b7f4e487b7100000000000000000000000000000000000000000000000000000000600052601260045260246000fd5b6000610d3e82610af9565b9150610d4983610af9565b925082610d5957610d58610d04565b5b828204905092915050565b6000610d6f82610af9565b9150610d7a83610af9565b9250828203905081811115610d9257610d91610b03565b5b92915050565b7f7573652077697468647261770000000000000000000000000000000000000000600082015250565b6000610dce600c83610a7c565b9150610dd982610d98565b602082019050919050565b60006020820190508181036000830152610dfd81610dc1565b9050919050565b600073ffffffffffffffffffffffffffffffffffffffff82169050919050565b6000610e2f82610e04565b9050919050565b610e3f81610e24565b82525050565b610e4e81610af9565b82525050565b6000604082019050610e696000830185610e36565b610e766020830184610e45565b9392505050565b60008115159050919050565b610e9281610e7d565b8114610e9d57600080fd5b50565b600081519050610eaf81610e89565b92915050565b600060208284031215610ecb57610eca610b66565b5b6000610ed984828501610ea0565b91505092915050565b7f466565207472616e73666572206661696c656400000000000000000000000000600082015250565b6000610f18601383610a7c565b9150610f2382610ee2565b602082019050919050565b60006020820190508181036000830152610f4781610f0b565b9050919050565b7f5061796f7574207472616e73666572206661696c656400000000000000000000600082015250565b6000610f84601683610a7c565b9150610f8f82610f4e565b602082019050919050565b60006020820190508181036000830152610fb381610f77565b9050919050565b7f56616c7565206d7573742062652067726561746572207468616e203000000000600082015250565b6000610ff0601c83610a7c565b9150610ffb82610fba565b602082019050919050565b6000602082019050818103600083015261101f81610fe3565b9050919050565b7f75736520796f757220746f6b656e000000000000000000000000000000000000600082015250565b600061105c600e83610a7c565b915061106782611026565b602082019050919050565b6000602082019050818103600083015261108b8161104f565b9050919050565b7f757365206465706f736974000000000000000000000000000000000000000000600082015250565b60006110c8600b83610a7c565b91506110d382611092565b602082019050919050565b600060208201905081810360008301526110f7816110bb565b9050919050565b60006060820190506111136000830186610e36565b6111206020830185610e36565b61112d6040830184610e45565b949350505050565b7f6661696c65640000000000000000000000000000000000000000000000000000600082015250565b600061116b600683610a7c565b915061117682611135565b602082019050919050565b6000602082019050818103600083015261119a8161115e565b905091905056fea26469706673582212207fc29d488d23d0108c12ce1407bdb9c507c008d32c3f17e0c6ee04b05f305b1a64736f6c634300081e0033","opcodes":"PUSH1 0x80 PUSH1 0x40 MSTORE CALLVALUE DUP1 ISZERO PUSH2 0x10 JUMPI PUSH1 0x0 DUP1 REVERT JUMPDEST POP PUSH1 0x40 MLOAD PUSH2 0x18F0 CODESIZE SUB DUP1 PUSH2 0x18F0 DUP4 CODECOPY DUP2 DUP2 ADD PUSH1 0x40 MSTORE DUP2 ADD SWAP1 PUSH2 0x32 SWAP2 SWAP1 PUSH2 0x378 JUMP JUMPDEST DUP6 PUSH1 0x0 SWAP1 DUP2 PUSH2 0x41 SWAP2 SWAP1 PUSH2 0x638 JUMP JUMPDEST POP DUP5 PUSH1 0x1 PUSH1 0x0 PUSH2 0x100 EXP DUP2 SLOAD DUP2 PUSH1 0xFF MUL NOT AND SWAP1 DUP4 ISZERO ISZERO MUL OR SWAP1 SSTORE POP DUP3 PUSH1 0x1 DUP1 PUSH2 0x100 EXP DUP2 SLOAD DUP2 PUSH20 0xFFFFFFFFFFFFFFFFFFFFFFFFFFFFFFFFFFFFFFFF MUL NOT AND SWAP1 DUP4 PUSH20 0xFFFFFFFFFFFFFFFFFFFFFFFFFFFFFFFFFFFFFFFF AND MUL OR SWAP1 SSTORE POP DUP4 PUSH1 0x3 DUP2 SWAP1 SSTORE POP TIMESTAMP PUSH1 0x4 DUP2 SWAP1 SSTORE POP DUP2 PUSH1 0x6 PUSH1 0x0 PUSH2 0x100 EXP DUP2 SLOAD DUP2 PUSH20 0xFFFFFFFFFFFFFFFFFFFFFFFFFFFFFFFFFFFFFFFF MUL NOT AND SWAP1 DUP4 PUSH20 0xFFFFFFFFFFFFFFFFFFFFFFFFFFFFFFFFFFFFFFFF AND MUL OR SWAP1 SSTORE POP DUP1 PUSH1 0x2 PUSH1 0x0 PUSH2 0x100 EXP DUP2 SLOAD DUP2 PUSH20 0xFFFFFFFFFFFFFFFFFFFFFFFFFFFFFFFFFFFFFFFF MUL NOT AND SWAP1 DUP4 PUSH20 0xFFFFFFFFFFFFFFFFFFFFFFFFFFFFFFFFFFFFFFFF AND MUL OR SWAP1 SSTORE POP POP POP POP POP POP POP PUSH2 0x70A JUMP JUMPDEST PUSH1 0x0 PUSH1 0x40 MLOAD SWAP1 POP SWAP1 JUMP JUMPDEST PUSH1 0x0 DUP1 REVERT JUMPDEST PUSH1 0x0 DUP1 REVERT JUMPDEST PUSH1 0x0 DUP1 REVERT JUMPDEST PUSH1 0x0 DUP1 REVERT JUMPDEST PUSH1 0x0 PUSH1 0x1F NOT PUSH1 0x1F DUP4 ADD AND SWAP1 POP SWAP2 SWAP1 POP JUMP JUMPDEST PUSH32 0x4E487B7100000000000000000000000000000000000000000000000000000000 PUSH1 0x0 MSTORE PUSH1 0x41 PUSH1 0x4 MSTORE PUSH1 0x24 PUSH1 0x0 REVERT JUMPDEST PUSH2 0x19E DUP3 PUSH2 0x155 JUMP JUMPDEST DUP2 ADD DUP2 DUP2 LT PUSH8 0xFFFFFFFFFFFFFFFF DUP3 GT OR ISZERO PUSH2 0x1BD JUMPI PUSH2 0x1BC PUSH2 0x166 JUMP JUMPDEST JUMPDEST DUP1 PUSH1 0x40 MSTORE POP POP POP JUMP JUMPDEST PUSH1 0x0 PUSH2 0x1D0 PUSH2 0x137 JUMP JUMPDEST SWAP1 POP PUSH2 0x1DC DUP3 DUP3 PUSH2 0x195 JUMP JUMPDEST SWAP2 SWAP1 POP JUMP JUMPDEST PUSH1 0x0 PUSH8 0xFFFFFFFFFFFFFFFF DUP3 GT ISZERO PUSH2 0x1FC JUMPI PUSH2 0x1FB PUSH2 0x166 JUMP JUMPDEST JUMPDEST PUSH2 0x205 DUP3 PUSH2 0x155 JUMP JUMPDEST SWAP1 POP PUSH1 0x20 DUP2 ADD SWAP1 POP SWAP2 SWAP1 POP JUMP JUMPDEST PUSH1 0x0 JUMPDEST DUP4 DUP2 LT ISZERO PUSH2 0x230 JUMPI DUP1 DUP3 ADD MLOAD DUP2 DUP5 ADD MSTORE PUSH1 0x20 DUP2 ADD SWAP1 POP PUSH2 0x215 JUMP JUMPDEST PUSH1 0x0 DUP5 DUP5 ADD MSTORE POP POP POP POP JUMP JUMPDEST PUSH1 0x0 PUSH2 0x24F PUSH2 0x24A DUP5 PUSH2 0x1E1 JUMP JUMPDEST PUSH2 0x1C6 JUMP JUMPDEST SWAP1 POP DUP3 DUP2 MSTORE PUSH1 0x20 DUP2 ADD DUP5 DUP5 DUP5 ADD GT ISZERO PUSH2 0x26B JUMPI PUSH2 0x26A PUSH2 0x150 JUMP JUMPDEST JUMPDEST PUSH2 0x276 DUP5 DUP3 DUP6 PUSH2 0x212 JUMP JUMPDEST POP SWAP4 SWAP3 POP POP POP JUMP JUMPDEST PUSH1 0x0 DUP3 PUSH1 0x1F DUP4 ADD SLT PUSH2 0x293 JUMPI PUSH2 0x292 PUSH2 0x14B JUMP JUMPDEST JUMPDEST DUP2 MLOAD PUSH2 0x2A3 DUP5 DUP3 PUSH1 0x20 DUP7 ADD PUSH2 0x23C JUMP JUMPDEST SWAP2 POP POP SWAP3 SWAP2 POP POP JUMP JUMPDEST PUSH1 0x0 DUP2 ISZERO ISZERO SWAP1 POP SWAP2 SWAP1 POP JUMP JUMPDEST PUSH2 0x2C1 DUP2 PUSH2 0x2AC JUMP JUMPDEST DUP2 EQ PUSH2 0x2CC JUMPI PUSH1 0x0 DUP1 REVERT JUMPDEST POP JUMP JUMPDEST PUSH1 0x0 DUP2 MLOAD SWAP1 POP PUSH2 0x2DE DUP2 PUSH2 0x2B8 JUMP JUMPDEST SWAP3 SWAP2 POP POP JUMP JUMPDEST PUSH1 0x0 DUP2 SWAP1 POP SWAP2 SWAP1 POP JUMP JUMPDEST PUSH2 0x2F7 DUP2 PUSH2 0x2E4 JUMP JUMPDEST DUP2 EQ PUSH2 0x302 JUMPI PUSH1 0x0 DUP1 REVERT JUMPDEST POP JUMP JUMPDEST PUSH1 0x0 DUP2 MLOAD SWAP1 POP PUSH2 0x314 DUP2 PUSH2 0x2EE JUMP JUMPDEST SWAP3 SWAP2 POP POP JUMP JUMPDEST PUSH1 0x0 PUSH20 0xFFFFFFFFFFFFFFFFFFFFFFFFFFFFFFFFFFFFFFFF DUP3 AND SWAP1 POP SWAP2 SWAP1 POP JUMP JUMPDEST PUSH1 0x0 PUSH2 0x345 DUP3 PUSH2 0x31A JUMP JUMPDEST SWAP1 POP SWAP2 SWAP1 POP JUMP JUMPDEST PUSH2 0x355 DUP2 PUSH2 0x33A JUMP JUMPDEST DUP2 EQ PUSH2 0x360 JUMPI PUSH1 0x0 DUP1 REVERT JUMPDEST POP JUMP JUMPDEST PUSH1 0x0 DUP2 MLOAD SWAP1 POP PUSH2 0x372 DUP2 PUSH2 0x34C JUMP JUMPDEST SWAP3 SWAP2 POP POP JUMP JUMPDEST PUSH1 0x0 DUP1 PUSH1 0x0 DUP1 PUSH1 0x0 DUP1 PUSH1 0xC0 DUP8 DUP10 SUB SLT ISZERO PUSH2 0x395 JUMPI PUSH2 0x394 PUSH2 0x141 JUMP JUMPDEST JUMPDEST PUSH1 0x0 DUP8 ADD MLOAD PUSH8 0xFFFFFFFFFFFFFFFF DUP2 GT ISZERO PUSH2 0x3B3 JUMPI PUSH2 0x3B2 PUSH2 0x146 JUMP JUMPDEST JUMPDEST PUSH2 0x3BF DUP10 DUP3 DUP11 ADD PUSH2 0x27E JUMP JUMPDEST SWAP7 POP POP PUSH1 0x20 PUSH2 0x3D0 DUP10 DUP3 DUP11 ADD PUSH2 0x2CF JUMP JUMPDEST SWAP6 POP POP PUSH1 0x40 PUSH2 0x3E1 DUP10 DUP3 DUP11 ADD PUSH2 0x305 JUMP JUMPDEST SWAP5 POP POP PUSH1 0x60 PUSH2 0x3F2 DUP10 DUP3 DUP11 ADD PUSH2 0x363 JUMP JUMPDEST SWAP4 POP POP PUSH1 0x80 PUSH2 0x403 DUP10 DUP3 DUP11 ADD PUSH2 0x363 JUMP JUMPDEST SWAP3 POP POP PUSH1 0xA0 PUSH2 0x414 DUP10 DUP3 DUP11 ADD PUSH2 0x363 JUMP JUMPDEST SWAP2 POP POP SWAP3 SWAP6 POP SWAP3 SWAP6 POP SWAP3 SWAP6 JUMP JUMPDEST PUSH1 0x0 DUP2 MLOAD SWAP1 POP SWAP2 SWAP1 POP JUMP JUMPDEST PUSH32 0x4E487B7100000000000000000000000000000000000000000000000000000000 PUSH1 0x0 MSTORE PUSH1 0x22 PUSH1 0x4 MSTORE PUSH1 0x24 PUSH1 0x0 REVERT JUMPDEST PUSH1 0x0 PUSH1 0x2 DUP3 DIV SWAP1 POP PUSH1 0x1 DUP3 AND DUP1 PUSH2 0x473 JUMPI PUSH1 0x7F DUP3 AND SWAP2 POP JUMPDEST PUSH1 0x20 DUP3 LT DUP2 SUB PUSH2 0x486 JUMPI PUSH2 0x485 PUSH2 0x42C JUMP JUMPDEST JUMPDEST POP SWAP2 SWAP1 POP JUMP JUMPDEST PUSH1 0x0 DUP2 SWAP1 POP DUP2 PUSH1 0x0 MSTORE PUSH1 0x20 PUSH1 0x0 KECCAK256 SWAP1 POP SWAP2 SWAP1 POP JUMP JUMPDEST PUSH1 0x0 PUSH1 0x20 PUSH1 0x1F DUP4 ADD DIV SWAP1 POP SWAP2 SWAP1 POP JUMP JUMPDEST PUSH1 0x0 DUP3 DUP3 SHL SWAP1 POP SWAP3 SWAP2 POP POP JUMP JUMPDEST PUSH1 0x0 PUSH1 0x8 DUP4 MUL PUSH2 0x4EE PUSH32 0xFFFFFFFFFFFFFFFFFFFFFFFFFFFFFFFFFFFFFFFFFFFFFFFFFFFFFFFFFFFFFFFF DUP3 PUSH2 0x4B1 JUMP JUMPDEST PUSH2 0x4F8 DUP7 DUP4 PUSH2 0x4B1 JUMP JUMPDEST SWAP6 POP DUP1 NOT DUP5 AND SWAP4 POP DUP1 DUP7 AND DUP5 OR SWAP3 POP POP POP SWAP4 SWAP3 POP POP POP JUMP JUMPDEST PUSH1 0x0 DUP2 SWAP1 POP SWAP2 SWAP1 POP JUMP JUMPDEST PUSH1 0x0 PUSH2 0x535 PUSH2 0x530 PUSH2 0x52B DUP5 PUSH2 0x2E4 JUMP JUMPDEST PUSH2 0x510 JUMP JUMPDEST PUSH2 0x2E4 JUMP JUMPDEST SWAP1 POP SWAP2 SWAP1 POP JUMP JUMPDEST PUSH1 0x0 DUP2 SWAP1 POP SWAP2 SWAP1 POP JUMP JUMPDEST PUSH2 0x54F DUP4 PUSH2 0x51A JUMP JUMPDEST PUSH2 0x563 PUSH2 0x55B DUP3 PUSH2 0x53C JUMP JUMPDEST DUP5 DUP5 SLOAD PUSH2 0x4BE JUMP JUMPDEST DUP3 SSTORE POP POP POP POP JUMP JUMPDEST PUSH1 0x0 SWAP1 JUMP JUMPDEST PUSH2 0x578 PUSH2 0x56B JUMP JUMPDEST PUSH2 0x583 DUP2 DUP5 DUP5 PUSH2 0x546 JUMP JUMPDEST POP POP POP JUMP JUMPDEST JUMPDEST DUP2 DUP2 LT ISZERO PUSH2 0x5A7 JUMPI PUSH2 0x59C PUSH1 0x0 DUP3 PUSH2 0x570 JUMP JUMPDEST PUSH1 0x1 DUP2 ADD SWAP1 POP PUSH2 0x589 JUMP JUMPDEST POP POP JUMP JUMPDEST PUSH1 0x1F DUP3 GT ISZERO PUSH2 0x5EC JUMPI PUSH2 0x5BD DUP2 PUSH2 0x48C JUMP JUMPDEST PUSH2 0x5C6 DUP5 PUSH2 0x4A1 JUMP JUMPDEST DUP2 ADD PUSH1 0x20 DUP6 LT ISZERO PUSH2 0x5D5 JUMPI DUP2 SWAP1 POP JUMPDEST PUSH2 0x5E9 PUSH2 0x5E1 DUP6 PUSH2 0x4A1 JUMP JUMPDEST DUP4 ADD DUP3 PUSH2 0x588 JUMP JUMPDEST POP POP JUMPDEST POP POP POP JUMP JUMPDEST PUSH1 0x0 DUP3 DUP3 SHR SWAP1 POP SWAP3 SWAP2 POP POP JUMP JUMPDEST PUSH1 0x0 PUSH2 0x60F PUSH1 0x0 NOT DUP5 PUSH1 0x8 MUL PUSH2 0x5F1 JUMP JUMPDEST NOT DUP1 DUP4 AND SWAP2 POP POP SWAP3 SWAP2 POP POP JUMP JUMPDEST PUSH1 0x0 PUSH2 0x628 DUP4 DUP4 PUSH2 0x5FE JUMP JUMPDEST SWAP2 POP DUP3 PUSH1 0x2 MUL DUP3 OR SWAP1 POP SWAP3 SWAP2 POP POP JUMP JUMPDEST PUSH2 0x641 DUP3 PUSH2 0x421 JUMP JUMPDEST PUSH8 0xFFFFFFFFFFFFFFFF DUP2 GT ISZERO PUSH2 0x65A JUMPI PUSH2 0x659 PUSH2 0x166 JUMP JUMPDEST JUMPDEST PUSH2 0x664 DUP3 SLOAD PUSH2 0x45B JUMP JUMPDEST PUSH2 0x66F DUP3 DUP3 DUP6 PUSH2 0x5AB JUMP JUMPDEST PUSH1 0x0 PUSH1 0x20 SWAP1 POP PUSH1 0x1F DUP4 GT PUSH1 0x1 DUP2 EQ PUSH2 0x6A2 JUMPI PUSH1 0x0 DUP5 ISZERO PUSH2 0x690 JUMPI DUP3 DUP8 ADD MLOAD SWAP1 POP JUMPDEST PUSH2 0x69A DUP6 DUP3 PUSH2 0x61C JUMP JUMPDEST DUP7 SSTORE POP PUSH2 0x702 JUMP JUMPDEST PUSH1 0x1F NOT DUP5 AND PUSH2 0x6B0 DUP7 PUSH2 0x48C JUMP JUMPDEST PUSH1 0x0 JUMPDEST DUP3 DUP2 LT ISZERO PUSH2 0x6D8 JUMPI DUP5 DUP10 ADD MLOAD DUP3 SSTORE PUSH1 0x1 DUP3 ADD SWAP2 POP PUSH1 0x20 DUP6 ADD SWAP5 POP PUSH1 0x20 DUP2 ADD SWAP1 POP PUSH2 0x6B3 JUMP JUMPDEST DUP7 DUP4 LT ISZERO PUSH2 0x6F5 JUMPI DUP5 DUP10 ADD MLOAD PUSH2 0x6F1 PUSH1 0x1F DUP10 AND DUP3 PUSH2 0x5FE JUMP JUMPDEST DUP4 SSTORE POP JUMPDEST PUSH1 0x1 PUSH1 0x2 DUP9 MUL ADD DUP9 SSTORE POP POP POP JUMPDEST POP POP POP POP POP POP JUMP JUMPDEST PUSH2 0x11D7 DUP1 PUSH2 0x719 PUSH1 0x0 CODECOPY PUSH1 0x0 RETURN INVALID PUSH1 0x80 PUSH1 0x40 MSTORE PUSH1 0x4 CALLDATASIZE LT PUSH2 0x43 JUMPI PUSH1 0x0 CALLDATALOAD PUSH1 0xE0 SHR DUP1 PUSH4 0x2E1A7D4D EQ PUSH2 0xB6 JUMPI DUP1 PUSH4 0x315A095D EQ PUSH2 0xDF JUMPI DUP1 PUSH4 0xD0E30DB0 EQ PUSH2 0x108 JUMPI DUP1 PUSH4 0xDD49756E EQ PUSH2 0x112 JUMPI PUSH2 0xB1 JUMP JUMPDEST CALLDATASIZE PUSH2 0xB1 JUMPI PUSH1 0x1 PUSH1 0x0 SWAP1 SLOAD SWAP1 PUSH2 0x100 EXP SWAP1 DIV PUSH1 0xFF AND PUSH2 0x97 JUMPI PUSH1 0x40 MLOAD PUSH32 0x8C379A000000000000000000000000000000000000000000000000000000000 DUP2 MSTORE PUSH1 0x4 ADD PUSH2 0x8E SWAP1 PUSH2 0xAD9 JUMP JUMPDEST PUSH1 0x40 MLOAD DUP1 SWAP2 SUB SWAP1 REVERT JUMPDEST CALLVALUE PUSH1 0x5 PUSH1 0x0 DUP3 DUP3 SLOAD PUSH2 0xA9 SWAP2 SWAP1 PUSH2 0xB32 JUMP JUMPDEST SWAP3 POP POP DUP2 SWAP1 SSTORE STOP JUMPDEST PUSH1 0x0 DUP1 REVERT JUMPDEST CALLVALUE DUP1 ISZERO PUSH2 0xC2 JUMPI PUSH1 0x0 DUP1 REVERT JUMPDEST POP PUSH2 0xDD PUSH1 0x4 DUP1 CALLDATASIZE SUB DUP2 ADD SWAP1 PUSH2 0xD8 SWAP2 SWAP1 PUSH2 0xB97 JUMP JUMPDEST PUSH2 0x13B JUMP JUMPDEST STOP JUMPDEST CALLVALUE DUP1 ISZERO PUSH2 0xEB JUMPI PUSH1 0x0 DUP1 REVERT JUMPDEST POP PUSH2 0x106 PUSH1 0x4 DUP1 CALLDATASIZE SUB DUP2 ADD SWAP1 PUSH2 0x101 SWAP2 SWAP1 PUSH2 0xB97 JUMP JUMPDEST PUSH2 0x369 JUMP JUMPDEST STOP JUMPDEST PUSH2 0x110 PUSH2 0x717 JUMP JUMPDEST STOP JUMPDEST CALLVALUE DUP1 ISZERO PUSH2 0x11E JUMPI PUSH1 0x0 DUP1 REVERT JUMPDEST POP PUSH2 0x139 PUSH1 0x4 DUP1 CALLDATASIZE SUB DUP2 ADD SWAP1 PUSH2 0x134 SWAP2 SWAP1 PUSH2 0xB97 JUMP JUMPDEST PUSH2 0x858 JUMP JUMPDEST STOP JUMPDEST PUSH1 0x1 DUP1 SLOAD SWAP1 PUSH2 0x100 EXP SWAP1 DIV PUSH20 0xFFFFFFFFFFFFFFFFFFFFFFFFFFFFFFFFFFFFFFFF AND PUSH20 0xFFFFFFFFFFFFFFFFFFFFFFFFFFFFFFFFFFFFFFFF AND CALLER PUSH20 0xFFFFFFFFFFFFFFFFFFFFFFFFFFFFFFFFFFFFFFFF AND EQ PUSH2 0x1C9 JUMPI PUSH1 0x40 MLOAD PUSH32 0x8C379A000000000000000000000000000000000000000000000000000000000 DUP2 MSTORE PUSH1 0x4 ADD PUSH2 0x1C0 SWAP1 PUSH2 0xC36 JUMP JUMPDEST PUSH1 0x40 MLOAD DUP1 SWAP2 SUB SWAP1 REVERT JUMPDEST PUSH1 0x0 DUP2 GT DUP1 ISZERO PUSH2 0x1DB JUMPI POP PUSH1 0x5 SLOAD DUP2 GT ISZERO JUMPDEST PUSH2 0x21A JUMPI PUSH1 0x40 MLOAD PUSH32 0x8C379A000000000000000000000000000000000000000000000000000000000 DUP2 MSTORE PUSH1 0x4 ADD PUSH2 0x211 SWAP1 PUSH2 0xCA2 JUMP JUMPDEST PUSH1 0x40 MLOAD DUP1 SWAP2 SUB SWAP1 REVERT JUMPDEST PUSH1 0x0 PUSH1 0x3 SLOAD PUSH1 0x4 SLOAD PUSH2 0x22C SWAP2 SWAP1 PUSH2 0xB32 JUMP JUMPDEST SWAP1 POP PUSH1 0x0 DUP2 TIMESTAMP LT SWAP1 POP PUSH1 0x0 DUP2 PUSH2 0x243 JUMPI PUSH1 0x0 PUSH2 0x25D JUMP JUMPDEST PUSH1 0x64 PUSH1 0x3 DUP6 PUSH2 0x252 SWAP2 SWAP1 PUSH2 0xCC2 JUMP JUMPDEST PUSH2 0x25C SWAP2 SWAP1 PUSH2 0xD33 JUMP JUMPDEST JUMPDEST SWAP1 POP PUSH1 0x0 DUP2 DUP6 PUSH2 0x26D SWAP2 SWAP1 PUSH2 0xD64 JUMP JUMPDEST SWAP1 POP DUP5 PUSH1 0x5 PUSH1 0x0 DUP3 DUP3 SLOAD PUSH2 0x281 SWAP2 SWAP1 PUSH2 0xD64 JUMP JUMPDEST SWAP3 POP POP DUP2 SWAP1 SSTORE POP PUSH1 0x0 DUP3 GT ISZERO PUSH2 0x2FB JUMPI PUSH1 0x6 PUSH1 0x0 SWAP1 SLOAD SWAP1 PUSH2 0x100 EXP SWAP1 DIV PUSH20 0xFFFFFFFFFFFFFFFFFFFFFFFFFFFFFFFFFFFFFFFF AND PUSH20 0xFFFFFFFFFFFFFFFFFFFFFFFFFFFFFFFFFFFFFFFF AND PUSH2 0x8FC DUP4 SWAP1 DUP2 ISZERO MUL SWAP1 PUSH1 0x40 MLOAD PUSH1 0x0 PUSH1 0x40 MLOAD DUP1 DUP4 SUB DUP2 DUP6 DUP9 DUP9 CALL SWAP4 POP POP POP POP ISZERO DUP1 ISZERO PUSH2 0x2F9 JUMPI RETURNDATASIZE PUSH1 0x0 DUP1 RETURNDATACOPY RETURNDATASIZE PUSH1 0x0 REVERT JUMPDEST POP JUMPDEST PUSH1 0x1 DUP1 SLOAD SWAP1 PUSH2 0x100 EXP SWAP1 DIV PUSH20 0xFFFFFFFFFFFFFFFFFFFFFFFFFFFFFFFFFFFFFFFF AND PUSH20 0xFFFFFFFFFFFFFFFFFFFFFFFFFFFFFFFFFFFFFFFF AND PUSH2 0x8FC DUP3 SWAP1 DUP2 ISZERO MUL SWAP1 PUSH1 0x40 MLOAD PUSH1 0x0 PUSH1 0x40 MLOAD DUP1 DUP4 SUB DUP2 DUP6 DUP9 DUP9 CALL SWAP4 POP POP POP POP ISZERO DUP1 ISZERO PUSH2 0x361 JUMPI RETURNDATASIZE PUSH1 0x0 DUP1 RETURNDATACOPY RETURNDATASIZE PUSH1 0x0 REVERT JUMPDEST POP POP POP POP POP POP JUMP JUMPDEST PUSH1 0x1 DUP1 SLOAD SWAP1 PUSH2 0x100 EXP SWAP1 DIV PUSH20 0xFFFFFFFFFFFFFFFFFFFFFFFFFFFFFFFFFFFFFFFF AND PUSH20 0xFFFFFFFFFFFFFFFFFFFFFFFFFFFFFFFFFFFFFFFF AND CALLER PUSH20 0xFFFFFFFFFFFFFFFFFFFFFFFFFFFFFFFFFFFFFFFF AND EQ PUSH2 0x3F7 JUMPI PUSH1 0x40 MLOAD PUSH32 0x8C379A000000000000000000000000000000000000000000000000000000000 DUP2 MSTORE PUSH1 0x4 ADD PUSH2 0x3EE SWAP1 PUSH2 0xC36 JUMP JUMPDEST PUSH1 0x40 MLOAD DUP1 SWAP2 SUB SWAP1 REVERT JUMPDEST PUSH1 0x1 PUSH1 0x0 SWAP1 SLOAD SWAP1 PUSH2 0x100 EXP SWAP1 DIV PUSH1 0xFF AND ISZERO PUSH2 0x447 JUMPI PUSH1 0x40 MLOAD PUSH32 0x8C379A000000000000000000000000000000000000000000000000000000000 DUP2 MSTORE PUSH1 0x4 ADD PUSH2 0x43E SWAP1 PUSH2 0xDE4 JUMP JUMPDEST PUSH1 0x40 MLOAD DUP1 SWAP2 SUB SWAP1 REVERT JUMPDEST PUSH1 0x0 DUP2 GT DUP1 ISZERO PUSH2 0x459 JUMPI POP PUSH1 0x5 SLOAD DUP2 GT ISZERO JUMPDEST PUSH2 0x498 JUMPI PUSH1 0x40 MLOAD PUSH32 0x8C379A000000000000000000000000000000000000000000000000000000000 DUP2 MSTORE PUSH1 0x4 ADD PUSH2 0x48F SWAP1 PUSH2 0xCA2 JUMP JUMPDEST PUSH1 0x40 MLOAD DUP1 SWAP2 SUB SWAP1 REVERT JUMPDEST PUSH1 0x0 PUSH1 0x3 SLOAD PUSH1 0x4 SLOAD PUSH2 0x4AA SWAP2 SWAP1 PUSH2 0xB32 JUMP JUMPDEST SWAP1 POP PUSH1 0x0 DUP2 TIMESTAMP LT SWAP1 POP PUSH1 0x0 DUP2 PUSH2 0x4C1 JUMPI PUSH1 0x0 PUSH2 0x4DB JUMP JUMPDEST PUSH1 0x64 PUSH1 0x3 DUP6 PUSH2 0x4D0 SWAP2 SWAP1 PUSH2 0xCC2 JUMP JUMPDEST PUSH2 0x4DA SWAP2 SWAP1 PUSH2 0xD33 JUMP JUMPDEST JUMPDEST SWAP1 POP PUSH1 0x0 DUP2 DUP6 PUSH2 0x4EB SWAP2 SWAP1 PUSH2 0xD64 JUMP JUMPDEST SWAP1 POP DUP5 PUSH1 0x5 PUSH1 0x0 DUP3 DUP3 SLOAD PUSH2 0x4FF SWAP2 SWAP1 PUSH2 0xD64 JUMP JUMPDEST SWAP3 POP POP DUP2 SWAP1 SSTORE POP PUSH1 0x0 DUP3 GT ISZERO PUSH2 0x611 JUMPI PUSH1 0x2 PUSH1 0x0 SWAP1 SLOAD SWAP1 PUSH2 0x100 EXP SWAP1 DIV PUSH20 0xFFFFFFFFFFFFFFFFFFFFFFFFFFFFFFFFFFFFFFFF AND PUSH20 0xFFFFFFFFFFFFFFFFFFFFFFFFFFFFFFFFFFFFFFFF AND PUSH4 0xA9059CBB PUSH1 0x6 PUSH1 0x0 SWAP1 SLOAD SWAP1 PUSH2 0x100 EXP SWAP1 DIV PUSH20 0xFFFFFFFFFFFFFFFFFFFFFFFFFFFFFFFFFFFFFFFF AND DUP5 PUSH1 0x40 MLOAD DUP4 PUSH4 0xFFFFFFFF AND PUSH1 0xE0 SHL DUP2 MSTORE PUSH1 0x4 ADD PUSH2 0x58E SWAP3 SWAP2 SWAP1 PUSH2 0xE54 JUMP JUMPDEST PUSH1 0x20 PUSH1 0x40 MLOAD DUP1 DUP4 SUB DUP2 PUSH1 0x0 DUP8 GAS CALL ISZERO DUP1 ISZERO PUSH2 0x5AD JUMPI RETURNDATASIZE PUSH1 0x0 DUP1 RETURNDATACOPY RETURNDATASIZE PUSH1 0x0 REVERT JUMPDEST POP POP POP POP PUSH1 0x40 MLOAD RETURNDATASIZE PUSH1 0x1F NOT PUSH1 0x1F DUP3 ADD AND DUP3 ADD DUP1 PUSH1 0x40 MSTORE POP DUP2 ADD SWAP1 PUSH2 0x5D1 SWAP2 SWAP1 PUSH2 0xEB5 JUMP JUMPDEST PUSH2 0x610 JUMPI PUSH1 0x40 MLOAD PUSH32 0x8C379A000000000000000000000000000000000000000000000000000000000 DUP2 MSTORE PUSH1 0x4 ADD PUSH2 0x607 SWAP1 PUSH2 0xF2E JUMP JUMPDEST PUSH1 0x40 MLOAD DUP1 SWAP2 SUB SWAP1 REVERT JUMPDEST JUMPDEST PUSH1 0x2 PUSH1 0x0 SWAP1 SLOAD SWAP1 PUSH2 0x100 EXP SWAP1 DIV PUSH20 0xFFFFFFFFFFFFFFFFFFFFFFFFFFFFFFFFFFFFFFFF AND PUSH20 0xFFFFFFFFFFFFFFFFFFFFFFFFFFFFFFFFFFFFFFFF AND PUSH4 0xA9059CBB PUSH1 0x1 DUP1 SLOAD SWAP1 PUSH2 0x100 EXP SWAP1 DIV PUSH20 0xFFFFFFFFFFFFFFFFFFFFFFFFFFFFFFFFFFFFFFFF AND DUP4 PUSH1 0x40 MLOAD DUP4 PUSH4 0xFFFFFFFF AND PUSH1 0xE0 SHL DUP2 MSTORE PUSH1 0x4 ADD PUSH2 0x68E SWAP3 SWAP2 SWAP1 PUSH2 0xE54 JUMP JUMPDEST PUSH1 0x20 PUSH1 0x40 MLOAD DUP1 DUP4 SUB DUP2 PUSH1 0x0 DUP8 GAS CALL ISZERO DUP1 ISZERO PUSH2 0x6AD JUMPI RETURNDATASIZE PUSH1 0x0 DUP1 RETURNDATACOPY RETURNDATASIZE PUSH1 0x0 REVERT JUMPDEST POP POP POP POP PUSH1 0x40 MLOAD RETURNDATASIZE PUSH1 0x1F NOT PUSH1 0x1F DUP3 ADD AND DUP3 ADD DUP1 PUSH1 0x40 MSTORE POP DUP2 ADD SWAP1 PUSH2 0x6D1 SWAP2 SWAP1 PUSH2 0xEB5 JUMP JUMPDEST PUSH2 0x710 JUMPI PUSH1 0x40 MLOAD PUSH32 0x8C379A000000000000000000000000000000000000000000000000000000000 DUP2 MSTORE PUSH1 0x4 ADD PUSH2 0x707 SWAP1 PUSH2 0xF9A JUMP JUMPDEST PUSH1 0x40 MLOAD DUP1 SWAP2 SUB SWAP1 REVERT JUMPDEST POP POP POP POP POP JUMP JUMPDEST PUSH1 0x1 DUP1 SLOAD SWAP1 PUSH2 0x100 EXP SWAP1 DIV PUSH20 0xFFFFFFFFFFFFFFFFFFFFFFFFFFFFFFFFFFFFFFFF AND PUSH20 0xFFFFFFFFFFFFFFFFFFFFFFFFFFFFFFFFFFFFFFFF AND CALLER PUSH20 0xFFFFFFFFFFFFFFFFFFFFFFFFFFFFFFFFFFFFFFFF AND EQ PUSH2 0x7A5 JUMPI PUSH1 0x40 MLOAD PUSH32 0x8C379A000000000000000000000000000000000000000000000000000000000 DUP2 MSTORE PUSH1 0x4 ADD PUSH2 0x79C SWAP1 PUSH2 0xC36 JUMP JUMPDEST PUSH1 0x40 MLOAD DUP1 SWAP2 SUB SWAP1 REVERT JUMPDEST PUSH1 0x1 PUSH1 0x0 SWAP1 SLOAD SWAP1 PUSH2 0x100 EXP SWAP1 DIV PUSH1 0xFF AND ISZERO PUSH2 0x81B JUMPI PUSH1 0x0 CALLVALUE GT PUSH2 0x7FD JUMPI PUSH1 0x40 MLOAD PUSH32 0x8C379A000000000000000000000000000000000000000000000000000000000 DUP2 MSTORE PUSH1 0x4 ADD PUSH2 0x7F4 SWAP1 PUSH2 0x1006 JUMP JUMPDEST PUSH1 0x40 MLOAD DUP1 SWAP2 SUB SWAP1 REVERT JUMPDEST CALLVALUE PUSH1 0x5 PUSH1 0x0 DUP3 DUP3 SLOAD PUSH2 0x80F SWAP2 SWAP1 PUSH2 0xB32 JUMP JUMPDEST SWAP3 POP POP DUP2 SWAP1 SSTORE POP PUSH2 0x856 JUMP JUMPDEST PUSH1 0x40 MLOAD PUSH32 0x8C379A000000000000000000000000000000000000000000000000000000000 DUP2 MSTORE PUSH1 0x4 ADD PUSH2 0x84D SWAP1 PUSH2 0x1072 JUMP JUMPDEST PUSH1 0x40 MLOAD DUP1 SWAP2 SUB SWAP1 REVERT JUMPDEST JUMP JUMPDEST PUSH1 0x1 DUP1 SLOAD SWAP1 PUSH2 0x100 EXP SWAP1 DIV PUSH20 0xFFFFFFFFFFFFFFFFFFFFFFFFFFFFFFFFFFFFFFFF AND PUSH20 0xFFFFFFFFFFFFFFFFFFFFFFFFFFFFFFFFFFFFFFFF AND CALLER PUSH20 0xFFFFFFFFFFFFFFFFFFFFFFFFFFFFFFFFFFFFFFFF AND EQ PUSH2 0x8E6 JUMPI PUSH1 0x40 MLOAD PUSH32 0x8C379A000000000000000000000000000000000000000000000000000000000 DUP2 MSTORE PUSH1 0x4 ADD PUSH2 0x8DD SWAP1 PUSH2 0xC36 JUMP JUMPDEST PUSH1 0x40 MLOAD DUP1 SWAP2 SUB SWAP1 REVERT JUMPDEST PUSH1 0x1 PUSH1 0x0 SWAP1 SLOAD SWAP1 PUSH2 0x100 EXP SWAP1 DIV PUSH1 0xFF AND ISZERO PUSH2 0x936 JUMPI PUSH1 0x40 MLOAD PUSH32 0x8C379A000000000000000000000000000000000000000000000000000000000 DUP2 MSTORE PUSH1 0x4 ADD PUSH2 0x92D SWAP1 PUSH2 0x10DE JUMP JUMPDEST PUSH1 0x40 MLOAD DUP1 SWAP2 SUB SWAP1 REVERT JUMPDEST PUSH1 0x0 DUP2 GT PUSH2 0x979 JUMPI PUSH1 0x40 MLOAD PUSH32 0x8C379A000000000000000000000000000000000000000000000000000000000 DUP2 MSTORE PUSH1 0x4 ADD PUSH2 0x970 SWAP1 PUSH2 0xCA2 JUMP JUMPDEST PUSH1 0x40 MLOAD DUP1 SWAP2 SUB SWAP1 REVERT JUMPDEST PUSH1 0x0 PUSH1 0x2 PUSH1 0x0 SWAP1 SLOAD SWAP1 PUSH2 0x100 EXP SWAP1 DIV PUSH20 0xFFFFFFFFFFFFFFFFFFFFFFFFFFFFFFFFFFFFFFFF AND PUSH20 0xFFFFFFFFFFFFFFFFFFFFFFFFFFFFFFFFFFFFFFFF AND PUSH4 0x23B872DD CALLER ADDRESS DUP6 PUSH1 0x40 MLOAD DUP5 PUSH4 0xFFFFFFFF AND PUSH1 0xE0 SHL DUP2 MSTORE PUSH1 0x4 ADD PUSH2 0x9DA SWAP4 SWAP3 SWAP2 SWAP1 PUSH2 0x10FE JUMP JUMPDEST PUSH1 0x20 PUSH1 0x40 MLOAD DUP1 DUP4 SUB DUP2 PUSH1 0x0 DUP8 GAS CALL ISZERO DUP1 ISZERO PUSH2 0x9F9 JUMPI RETURNDATASIZE PUSH1 0x0 DUP1 RETURNDATACOPY RETURNDATASIZE PUSH1 0x0 REVERT JUMPDEST POP POP POP POP PUSH1 0x40 MLOAD RETURNDATASIZE PUSH1 0x1F NOT PUSH1 0x1F DUP3 ADD AND DUP3 ADD DUP1 PUSH1 0x40 MSTORE POP DUP2 ADD SWAP1 PUSH2 0xA1D SWAP2 SWAP1 PUSH2 0xEB5 JUMP JUMPDEST SWAP1 POP DUP1 PUSH2 0xA5F JUMPI PUSH1 0x40 MLOAD PUSH32 0x8C379A000000000000000000000000000000000000000000000000000000000 DUP2 MSTORE PUSH1 0x4 ADD PUSH2 0xA56 SWAP1 PUSH2 0x1181 JUMP JUMPDEST PUSH1 0x40 MLOAD DUP1 SWAP2 SUB SWAP1 REVERT JUMPDEST DUP2 PUSH1 0x5 PUSH1 0x0 DUP3 DUP3 SLOAD PUSH2 0xA71 SWAP2 SWAP1 PUSH2 0xB32 JUMP JUMPDEST SWAP3 POP POP DUP2 SWAP1 SSTORE POP POP POP JUMP JUMPDEST PUSH1 0x0 DUP3 DUP3 MSTORE PUSH1 0x20 DUP3 ADD SWAP1 POP SWAP3 SWAP2 POP POP JUMP JUMPDEST PUSH32 0x6E6F742065746865720000000000000000000000000000000000000000000000 PUSH1 0x0 DUP3 ADD MSTORE POP JUMP JUMPDEST PUSH1 0x0 PUSH2 0xAC3 PUSH1 0x9 DUP4 PUSH2 0xA7C JUMP JUMPDEST SWAP2 POP PUSH2 0xACE DUP3 PUSH2 0xA8D JUMP JUMPDEST PUSH1 0x20 DUP3 ADD SWAP1 POP SWAP2 SWAP1 POP JUMP JUMPDEST PUSH1 0x0 PUSH1 0x20 DUP3 ADD SWAP1 POP DUP2 DUP2 SUB PUSH1 0x0 DUP4 ADD MSTORE PUSH2 0xAF2 DUP2 PUSH2 0xAB6 JUMP JUMPDEST SWAP1 POP SWAP2 SWAP1 POP JUMP JUMPDEST PUSH1 0x0 DUP2 SWAP1 POP SWAP2 SWAP1 POP JUMP JUMPDEST PUSH32 0x4E487B7100000000000000000000000000000000000000000000000000000000 PUSH1 0x0 MSTORE PUSH1 0x11 PUSH1 0x4 MSTORE PUSH1 0x24 PUSH1 0x0 REVERT JUMPDEST PUSH1 0x0 PUSH2 0xB3D DUP3 PUSH2 0xAF9 JUMP JUMPDEST SWAP2 POP PUSH2 0xB48 DUP4 PUSH2 0xAF9 JUMP JUMPDEST SWAP3 POP DUP3 DUP3 ADD SWAP1 POP DUP1 DUP3 GT ISZERO PUSH2 0xB60 JUMPI PUSH2 0xB5F PUSH2 0xB03 JUMP JUMPDEST JUMPDEST SWAP3 SWAP2 POP POP JUMP JUMPDEST PUSH1 0x0 DUP1 REVERT JUMPDEST PUSH2 0xB74 DUP2 PUSH2 0xAF9 JUMP JUMPDEST DUP2 EQ PUSH2 0xB7F JUMPI PUSH1 0x0 DUP1 REVERT JUMPDEST POP JUMP JUMPDEST PUSH1 0x0 DUP2 CALLDATALOAD SWAP1 POP PUSH2 0xB91 DUP2 PUSH2 0xB6B JUMP JUMPDEST SWAP3 SWAP2 POP POP JUMP JUMPDEST PUSH1 0x0 PUSH1 0x20 DUP3 DUP5 SUB SLT ISZERO PUSH2 0xBAD JUMPI PUSH2 0xBAC PUSH2 0xB66 JUMP JUMPDEST JUMPDEST PUSH1 0x0 PUSH2 0xBBB DUP5 DUP3 DUP6 ADD PUSH2 0xB82 JUMP JUMPDEST SWAP2 POP POP SWAP3 SWAP2 POP POP JUMP JUMPDEST PUSH32 0x596F7520617265206E6F7420746865206F776E6572206F662074686973206163 PUSH1 0x0 DUP3 ADD MSTORE PUSH32 0x636F756E742E0000000000000000000000000000000000000000000000000000 PUSH1 0x20 DUP3 ADD MSTORE POP JUMP JUMPDEST PUSH1 0x0 PUSH2 0xC20 PUSH1 0x26 DUP4 PUSH2 0xA7C JUMP JUMPDEST SWAP2 POP PUSH2 0xC2B DUP3 PUSH2 0xBC4 JUMP JUMPDEST PUSH1 0x40 DUP3 ADD SWAP1 POP SWAP2 SWAP1 POP JUMP JUMPDEST PUSH1 0x0 PUSH1 0x20 DUP3 ADD SWAP1 POP DUP2 DUP2 SUB PUSH1 0x0 DUP4 ADD MSTORE PUSH2 0xC4F DUP2 PUSH2 0xC13 JUMP JUMPDEST SWAP1 POP SWAP2 SWAP1 POP JUMP JUMPDEST PUSH32 0x696E76616C696420616D6F756E74000000000000000000000000000000000000 PUSH1 0x0 DUP3 ADD MSTORE POP JUMP JUMPDEST PUSH1 0x0 PUSH2 0xC8C PUSH1 0xE DUP4 PUSH2 0xA7C JUMP JUMPDEST SWAP2 POP PUSH2 0xC97 DUP3 PUSH2 0xC56 JUMP JUMPDEST PUSH1 0x20 DUP3 ADD SWAP1 POP SWAP2 SWAP1 POP JUMP JUMPDEST PUSH1 0x0 PUSH1 0x20 DUP3 ADD SWAP1 POP DUP2 DUP2 SUB PUSH1 0x0 DUP4 ADD MSTORE PUSH2 0xCBB DUP2 PUSH2 0xC7F JUMP JUMPDEST SWAP1 POP SWAP2 SWAP1 POP JUMP JUMPDEST PUSH1 0x0 PUSH2 0xCCD DUP3 PUSH2 0xAF9 JUMP JUMPDEST SWAP2 POP PUSH2 0xCD8 DUP4 PUSH2 0xAF9 JUMP JUMPDEST SWAP3 POP DUP3 DUP3 MUL PUSH2 0xCE6 DUP2 PUSH2 0xAF9 JUMP JUMPDEST SWAP2 POP DUP3 DUP3 DIV DUP5 EQ DUP4 ISZERO OR PUSH2 0xCFD JUMPI PUSH2 0xCFC PUSH2 0xB03 JUMP JUMPDEST JUMPDEST POP SWAP3 SWAP2 POP POP JUMP JUMPDEST PUSH32 0x4E487B7100000000000000000000000000000000000000000000000000000000 PUSH1 0x0 MSTORE PUSH1 0x12 PUSH1 0x4 MSTORE PUSH1 0x24 PUSH1 0x0 REVERT JUMPDEST PUSH1 0x0 PUSH2 0xD3E DUP3 PUSH2 0xAF9 JUMP JUMPDEST SWAP2 POP PUSH2 0xD49 DUP4 PUSH2 0xAF9 JUMP JUMPDEST SWAP3 POP DUP3 PUSH2 0xD59 JUMPI PUSH2 0xD58 PUSH2 0xD04 JUMP JUMPDEST JUMPDEST DUP3 DUP3 DIV SWAP1 POP SWAP3 SWAP2 POP POP JUMP JUMPDEST PUSH1 0x0 PUSH2 0xD6F DUP3 PUSH2 0xAF9 JUMP JUMPDEST SWAP2 POP PUSH2 0xD7A DUP4 PUSH2 0xAF9 JUMP JUMPDEST SWAP3 POP DUP3 DUP3 SUB SWAP1 POP DUP2 DUP2 GT ISZERO PUSH2 0xD92 JUMPI PUSH2 0xD91 PUSH2 0xB03 JUMP JUMPDEST JUMPDEST SWAP3 SWAP2 POP POP JUMP JUMPDEST PUSH32 0x7573652077697468647261770000000000000000000000000000000000000000 PUSH1 0x0 DUP3 ADD MSTORE POP JUMP JUMPDEST PUSH1 0x0 PUSH2 0xDCE PUSH1 0xC DUP4 PUSH2 0xA7C JUMP JUMPDEST SWAP2 POP PUSH2 0xDD9 DUP3 PUSH2 0xD98 JUMP JUMPDEST PUSH1 0x20 DUP3 ADD SWAP1 POP SWAP2 SWAP1 POP JUMP JUMPDEST PUSH1 0x0 PUSH1 0x20 DUP3 ADD SWAP1 POP DUP2 DUP2 SUB PUSH1 0x0 DUP4 ADD MSTORE PUSH2 0xDFD DUP2 PUSH2 0xDC1 JUMP JUMPDEST SWAP1 POP SWAP2 SWAP1 POP JUMP JUMPDEST PUSH1 0x0 PUSH20 0xFFFFFFFFFFFFFFFFFFFFFFFFFFFFFFFFFFFFFFFF DUP3 AND SWAP1 POP SWAP2 SWAP1 POP JUMP JUMPDEST PUSH1 0x0 PUSH2 0xE2F DUP3 PUSH2 0xE04 JUMP JUMPDEST SWAP1 POP SWAP2 SWAP1 POP JUMP JUMPDEST PUSH2 0xE3F DUP2 PUSH2 0xE24 JUMP JUMPDEST DUP3 MSTORE POP POP JUMP JUMPDEST PUSH2 0xE4E DUP2 PUSH2 0xAF9 JUMP JUMPDEST DUP3 MSTORE POP POP JUMP JUMPDEST PUSH1 0x0 PUSH1 0x40 DUP3 ADD SWAP1 POP PUSH2 0xE69 PUSH1 0x0 DUP4 ADD DUP6 PUSH2 0xE36 JUMP JUMPDEST PUSH2 0xE76 PUSH1 0x20 DUP4 ADD DUP5 PUSH2 0xE45 JUMP JUMPDEST SWAP4 SWAP3 POP POP POP JUMP JUMPDEST PUSH1 0x0 DUP2 ISZERO ISZERO SWAP1 POP SWAP2 SWAP1 POP JUMP JUMPDEST PUSH2 0xE92 DUP2 PUSH2 0xE7D JUMP JUMPDEST DUP2 EQ PUSH2 0xE9D JUMPI PUSH1 0x0 DUP1 REVERT JUMPDEST POP JUMP JUMPDEST PUSH1 0x0 DUP2 MLOAD SWAP1 POP PUSH2 0xEAF DUP2 PUSH2 0xE89 JUMP JUMPDEST SWAP3 SWAP2 POP POP JUMP JUMPDEST PUSH1 0x0 PUSH1 0x20 DUP3 DUP5 SUB SLT ISZERO PUSH2 0xECB JUMPI PUSH2 0xECA PUSH2 0xB66 JUMP JUMPDEST JUMPDEST PUSH1 0x0 PUSH2 0xED9 DUP5 DUP3 DUP6 ADD PUSH2 0xEA0 JUMP JUMPDEST SWAP2 POP POP SWAP3 SWAP2 POP POP JUMP JUMPDEST PUSH32 0x466565207472616E73666572206661696C656400000000000000000000000000 PUSH1 0x0 DUP3 ADD MSTORE POP JUMP JUMPDEST PUSH1 0x0 PUSH2 0xF18 PUSH1 0x13 DUP4 PUSH2 0xA7C JUMP JUMPDEST SWAP2 POP PUSH2 0xF23 DUP3 PUSH2 0xEE2 JUMP JUMPDEST PUSH1 0x20 DUP3 ADD SWAP1 POP SWAP2 SWAP1 POP JUMP JUMPDEST PUSH1 0x0 PUSH1 0x20 DUP3 ADD SWAP1 POP DUP2 DUP2 SUB PUSH1 0x0 DUP4 ADD MSTORE PUSH2 0xF47 DUP2 PUSH2 0xF0B JUMP JUMPDEST SWAP1 POP SWAP2 SWAP1 POP JUMP JUMPDEST PUSH32 0x5061796F7574207472616E73666572206661696C656400000000000000000000 PUSH1 0x0 DUP3 ADD MSTORE POP JUMP JUMPDEST PUSH1 0x0 PUSH2 0xF84 PUSH1 0x16 DUP4 PUSH2 0xA7C JUMP JUMPDEST SWAP2 POP PUSH2 0xF8F DUP3 PUSH2 0xF4E JUMP JUMPDEST PUSH1 0x20 DUP3 ADD SWAP1 POP SWAP2 SWAP1 POP JUMP JUMPDEST PUSH1 0x0 PUSH1 0x20 DUP3 ADD SWAP1 POP DUP2 DUP2 SUB PUSH1 0x0 DUP4 ADD MSTORE PUSH2 0xFB3 DUP2 PUSH2 0xF77 JUMP JUMPDEST SWAP1 POP SWAP2 SWAP1 POP JUMP JUMPDEST PUSH32 0x56616C7565206D7573742062652067726561746572207468616E203000000000 PUSH1 0x0 DUP3 ADD MSTORE POP JUMP JUMPDEST PUSH1 0x0 PUSH2 0xFF0 PUSH1 0x1C DUP4 PUSH2 0xA7C JUMP JUMPDEST SWAP2 POP PUSH2 0xFFB DUP3 PUSH2 0xFBA JUMP JUMPDEST PUSH1 0x20 DUP3 ADD SWAP1 POP SWAP2 SWAP1 POP JUMP JUMPDEST PUSH1 0x0 PUSH1 0x20 DUP3 ADD SWAP1 POP DUP2 DUP2 SUB PUSH1 0x0 DUP4 ADD MSTORE PUSH2 0x101F DUP2 PUSH2 0xFE3 JUMP JUMPDEST SWAP1 POP SWAP2 SWAP1 POP JUMP JUMPDEST PUSH32 0x75736520796F757220746F6B656E000000000000000000000000000000000000 PUSH1 0x0 DUP3 ADD MSTORE POP JUMP JUMPDEST PUSH1 0x0 PUSH2 0x105C PUSH1 0xE DUP4 PUSH2 0xA7C JUMP JUMPDEST SWAP2 POP PUSH2 0x1067 DUP3 PUSH2 0x1026 JUMP JUMPDEST PUSH1 0x20 DUP3 ADD SWAP1 POP SWAP2 SWAP1 POP JUMP JUMPDEST PUSH1 0x0 PUSH1 0x20 DUP3 ADD SWAP1 POP DUP2 DUP2 SUB PUSH1 0x0 DUP4 ADD MSTORE PUSH2 0x108B DUP2 PUSH2 0x104F JUMP JUMPDEST SWAP1 POP SWAP2 SWAP1 POP JUMP JUMPDEST PUSH32 0x757365206465706F736974000000000000000000000000000000000000000000 PUSH1 0x0 DUP3 ADD MSTORE POP JUMP JUMPDEST PUSH1 0x0 PUSH2 0x10C8 PUSH1 0xB DUP4 PUSH2 0xA7C JUMP JUMPDEST SWAP2 POP PUSH2 0x10D3 DUP3 PUSH2 0x1092 JUMP JUMPDEST PUSH1 0x20 DUP3 ADD SWAP1 POP SWAP2 SWAP1 POP JUMP JUMPDEST PUSH1 0x0 PUSH1 0x20 DUP3 ADD SWAP1 POP DUP2 DUP2 SUB PUSH1 0x0 DUP4 ADD MSTORE PUSH2 0x10F7 DUP2 PUSH2 0x10BB JUMP JUMPDEST SWAP1 POP SWAP2 SWAP1 POP JUMP JUMPDEST PUSH1 0x0 PUSH1 0x60 DUP3 ADD SWAP1 POP PUSH2 0x1113 PUSH1 0x0 DUP4 ADD DUP7 PUSH2 0xE36 JUMP JUMPDEST PUSH2 0x1120 PUSH1 0x20 DUP4 ADD DUP6 PUSH2 0xE36 JUMP JUMPDEST PUSH2 0x112D PUSH1 0x40 DUP4 ADD DUP5 PUSH2 0xE45 JUMP JUMPDEST SWAP5 SWAP4 POP POP POP POP JUMP JUMPDEST PUSH32 0x6661696C65640000000000000000000000000000000000000000000000000000 PUSH1 0x0 DUP3 ADD MSTORE POP JUMP JUMPDEST PUSH1 0x0 PUSH2 0x116B PUSH1 0x6 DUP4 PUSH2 0xA7C JUMP JUMPDEST SWAP2 POP PUSH2 0x1176 DUP3 PUSH2 0x1135 JUMP JUMPDEST PUSH1 0x20 DUP3 ADD SWAP1 POP SWAP2 SWAP1 POP JUMP JUMPDEST PUSH1 0x0 PUSH1 0x20 DUP3 ADD SWAP1 POP DUP2 DUP2 SUB PUSH1 0x0 DUP4 ADD MSTORE PUSH2 0x119A DUP2 PUSH2 0x115E JUMP JUMPDEST SWAP1 POP SWAP2 SWAP1 POP JUMP INVALID LOG2 PUSH5 0x6970667358 0x22 SLT KECCAK256 PUSH32 0xC29D488D23D0108C12CE1407BDB9C507C008D32C3F17E0C6EE04B05F305B1A64 PUSH20 0x6F6C634300081E00330000000000000000000000 "},"methodIdentifiers":{"deposit()":"d0e30db0","depositTokens(uint256)":"dd49756e","withdraw(uint256)":"2e1a7d4d","withdrawTokens(uint256)":"315a095d"}}}}}