{
  "contracts/StudentTracking.sol": {
    "StudentTracking": {
      "abi": [
        {
          "inputs": [
            {
              "internalType": "uint256",
              "name": "_index",
              "type": "uint256"
            }
          ],
          "name": "deleteStudent",
          "outputs": [],
          "stateMutability": "nonpayable",
          "type": "function"
        },
        {
          "inputs": [],
          "name": "getAllStudents",
          "outputs": [
            {
              "components": [
                {
                  "internalType": "uint256",
                  "name": "id",
                  "type": "uint256"
                },
                {
                  "internalType": "string",
                  "name": "name",
                  "type": "string"
                },
                {
                  "internalType": "uint256",
                  "name": "age",
                  "type": "uint256"
                },
                {
                  "internalType": "enum StudentTracking.Status",
                  "name": "status",
                  "type": "uint8"
                },
                {
                  "internalType": "enum StudentTracking.Gender",
                  "name": "gender",
                  "type": "uint8"
                }
              ],
              "internalType": "struct StudentTracking.Student[]",
              "name": "",
              "type": "tuple[]"
            }
          ],
          "stateMutability": "view",
          "type": "function"
        },
        {
          "inputs": [
            {
              "internalType": "uint256",
              "name": "_index",
              "type": "uint256"
            }
          ],
          "name": "getStudentById",
          "outputs": [
            {
              "components": [
                {
                  "internalType": "uint256",
                  "name": "id",
                  "type": "uint256"
                },
                {
                  "internalType": "string",
                  "name": "name",
                  "type": "string"
                },
                {
                  "internalType": "uint256",
                  "name": "age",
                  "type": "uint256"
                },
                {
                  "internalType": "enum StudentTracking.Status",
                  "name": "status",
                  "type": "uint8"
                },
                {
                  "internalType": "enum StudentTracking.Gender",
                  "name": "gender",
                  "type": "uint8"
                }
              ],
              "internalType": "struct StudentTracking.Student",
              "name": "",
              "type": "tuple"
            }
          ],
          "stateMutability": "view",
          "type": "function"
        },
        {
          "inputs": [
            {
              "internalType": "string",
              "name": "_name",
              "type": "string"
            },
            {
              "internalType": "uint256",
              "name": "_age",
              "type": "uint256"
            },
            {
              "internalType": "enum StudentTracking.Gender",
              "name": "_gender",
              "type": "uint8"
            }
          ],
          "name": "registerStudents",
          "outputs": [],
          "stateMutability": "nonpayable",
          "type": "function"
        },
        {
          "inputs": [
            {
              "internalType": "uint256",
              "name": "_index",
              "type": "uint256"
            },
            {
              "internalType": "enum StudentTracking.Status",
              "name": "_newStatus",
              "type": "uint8"
            }
          ],
          "name": "updateStatus",
          "outputs": [],
          "stateMutability": "nonpayable",
          "type": "function"
        },
        {
          "inputs": [
            {
              "internalType": "uint256",
              "name": "_index",
              "type": "uint256"
            },
            {
              "internalType": "uint256",
              "name": "_age",
              "type": "uint256"
            }
          ],
          "name": "updateStudentAge",
          "outputs": [],
          "stateMutability": "nonpayable",
          "type": "function"
        },
        {
          "inputs": [
            {
              "internalType": "uint256",
              "name": "_index",
              "type": "uint256"
            },
            {
              "internalType": "string",
              "name": "_name",
              "type": "string"
            }
          ],
          "name": "updateStudentName",
          "outputs": [],
          "stateMutability": "nonpayable",
          "type": "function"
        },
        {
          "inputs": [
            {
              "internalType": "uint256",
              "name": "_index",
              "type": "uint256"
            },
            {
              "internalType": "string",
              "name": "_name",
              "type": "string"
            },
            {
              "internalType": "uint256",
              "name": "_age",
              "type": "uint256"
            }
          ],
          "name": "updateStudentNameAndAge",
          "outputs": [],
          "stateMutability": "nonpayable",
          "type": "function"
        }
      ],
      "evm": {
        "bytecode": {
          "linkReferences": {},
          "object": "608060405260018055348015601357600080fd5b506114ab806100236000396000f3fe608060405234801561001057600080fd5b50600436106100885760003560e01c8063b645307d1161005b578063b645307d146100fd578063c8fb079314610119578063e763c64d14610149578063e9e309271461016557610088565b806313a46f311461008d5780633a1b3d31146100a9578063440dba6c146100c55780637bee4264146100e1575b600080fd5b6100a760048036038101906100a291906109be565b610183565b005b6100c360048036038101906100be9190610a23565b6101fb565b005b6100df60048036038101906100da9190610ba9565b610296565b005b6100fb60048036038101906100f69190610c2a565b610317565b005b61011760048036038101906101129190610c99565b610441565b005b610133600480360381019061012e9190610c99565b6104fb565b6040516101409190610e89565b60405180910390f35b610163600480360381019061015e9190610eab565b61069d565b005b61016d610749565b60405161017a9190611052565b60405180910390f35b816000805490508111156101cc576040517f08c379a00000000000000000000000000000000000000000000000000000000081526004016101c3906110d1565b60405180910390fd5b81600084815481106101e1576101e06110f1565b5b906000526020600020906004020160020181905550505050565b81600080549050811115610244576040517f08c379a000000000000000000000000000000000000000000000000000000000815260040161023b906110d1565b60405180910390fd5b8160008481548110610259576102586110f1565b5b906000526020600020906004020160030160006101000a81548160ff0219169083600281111561028c5761028b610d54565b5b0217905550505050565b816000805490508111156102df576040517f08c379a00000000000000000000000000000000000000000000000000000000081526004016102d6906110d1565b60405180910390fd5b81600084815481106102f4576102f36110f1565b5b90600052602060002090600402016001019081610311919061132c565b50505050565b60006001600081548092919061032c9061142d565b91905055905060006040518060a001604052808381526020018681526020018581526020016000600281111561036557610364610d54565b5b815260200184600181111561037d5761037c610d54565b5b815250905060008190806001815401808255809150506001900390600052602060002090600402016000909190919091506000820151816000015560208201518160010190816103cd919061132c565b506040820151816002015560608201518160030160006101000a81548160ff0219169083600281111561040357610402610d54565b5b021790555060808201518160030160016101000a81548160ff0219169083600181111561043357610432610d54565b5b021790555050505050505050565b8060008054905081111561048a576040517f08c379a0000000000000000000000000000000000000000000000000000000008152600401610481906110d1565b60405180910390fd5b6000828154811061049e5761049d6110f1565b5b90600052602060002090600402016000808201600090556001820160006104c591906108c4565b60028201600090556003820160006101000a81549060ff02191690556003820160016101000a81549060ff021916905550505050565b610503610904565b8160008054905081111561054c576040517f08c379a0000000000000000000000000000000000000000000000000000000008152600401610543906110d1565b60405180910390fd5b600083815481106105605761055f6110f1565b5b90600052602060002090600402016040518060a0016040529081600082015481526020016001820180546105939061114f565b80601f01602080910402602001604051908101604052809291908181526020018280546105bf9061114f565b801561060c5780601f106105e15761010080835404028352916020019161060c565b820191906000526020600020905b8154815290600101906020018083116105ef57829003601f168201915b50505050508152602001600282015481526020016003820160009054906101000a900460ff16600281111561064457610643610d54565b5b600281111561065657610655610d54565b5b81526020016003820160019054906101000a900460ff16600181111561067f5761067e610d54565b5b600181111561069157610690610d54565b5b81525050915050919050565b826000805490508111156106e6576040517f08c379a00000000000000000000000000000000000000000000000000000000081526004016106dd906110d1565b60405180910390fd5b81600085815481106106fb576106fa6110f1565b5b9060005260206000209060040201600201819055508260008581548110610725576107246110f1565b5b90600052602060002090600402016001019081610742919061132c565b5050505050565b60606000805480602002602001604051908101604052809291908181526020016000905b828210156108bb57838290600052602060002090600402016040518060a0016040529081600082015481526020016001820180546107aa9061114f565b80601f01602080910402602001604051908101604052809291908181526020018280546107d69061114f565b80156108235780601f106107f857610100808354040283529160200191610823565b820191906000526020600020905b81548152906001019060200180831161080657829003601f168201915b50505050508152602001600282015481526020016003820160009054906101000a900460ff16600281111561085b5761085a610d54565b5b600281111561086d5761086c610d54565b5b81526020016003820160019054906101000a900460ff16600181111561089657610895610d54565b5b60018111156108a8576108a7610d54565b5b815250508152602001906001019061076d565b50505050905090565b5080546108d09061114f565b6000825580601f106108e25750610901565b601f0160209004906000526020600020908101906109009190610957565b5b50565b6040518060a001604052806000815260200160608152602001600081526020016000600281111561093857610937610d54565b5b81526020016000600181111561095157610950610d54565b5b81525090565b5b80821115610970576000816000905550600101610958565b5090565b6000604051905090565b600080fd5b600080fd5b6000819050919050565b61099b81610988565b81146109a657600080fd5b50565b6000813590506109b881610992565b92915050565b600080604083850312156109d5576109d461097e565b5b60006109e3858286016109a9565b92505060206109f4858286016109a9565b9150509250929050565b60038110610a0b57600080fd5b50565b600081359050610a1d816109fe565b92915050565b60008060408385031215610a3a57610a3961097e565b5b6000610a48858286016109a9565b9250506020610a5985828601610a0e565b9150509250929050565b600080fd5b600080fd5b6000601f19601f8301169050919050565b7f4e487b7100000000000000000000000000000000000000000000000000000000600052604160045260246000fd5b610ab682610a6d565b810181811067ffffffffffffffff82111715610ad557610ad4610a7e565b5b80604052505050565b6000610ae8610974565b9050610af48282610aad565b919050565b600067ffffffffffffffff821115610b1457610b13610a7e565b5b610b1d82610a6d565b9050602081019050919050565b82818337600083830152505050565b6000610b4c610b4784610af9565b610ade565b905082815260208101848484011115610b6857610b67610a68565b5b610b73848285610b2a565b509392505050565b600082601f830112610b9057610b8f610a63565b5b8135610ba0848260208601610b39565b91505092915050565b60008060408385031215610bc057610bbf61097e565b5b6000610bce858286016109a9565b925050602083013567ffffffffffffffff811115610bef57610bee610983565b5b610bfb85828601610b7b565b9150509250929050565b60028110610c1257600080fd5b50565b600081359050610c2481610c05565b92915050565b600080600060608486031215610c4357610c4261097e565b5b600084013567ffffffffffffffff811115610c6157610c60610983565b5b610c6d86828701610b7b565b9350506020610c7e868287016109a9565b9250506040610c8f86828701610c15565b9150509250925092565b600060208284031215610caf57610cae61097e565b5b6000610cbd848285016109a9565b91505092915050565b610ccf81610988565b82525050565b600081519050919050565b600082825260208201905092915050565b60005b83811015610d0f578082015181840152602081019050610cf4565b60008484015250505050565b6000610d2682610cd5565b610d308185610ce0565b9350610d40818560208601610cf1565b610d4981610a6d565b840191505092915050565b7f4e487b7100000000000000000000000000000000000000000000000000000000600052602160045260246000fd5b60038110610d9457610d93610d54565b5b50565b6000819050610da582610d83565b919050565b6000610db582610d97565b9050919050565b610dc581610daa565b82525050565b60028110610ddc57610ddb610d54565b5b50565b6000819050610ded82610dcb565b919050565b6000610dfd82610ddf565b9050919050565b610e0d81610df2565b82525050565b600060a083016000830151610e2b6000860182610cc6565b5060208301518482036020860152610e438282610d1b565b9150506040830151610e586040860182610cc6565b506060830151610e6b6060860182610dbc565b506080830151610e7e6080860182610e04565b508091505092915050565b60006020820190508181036000830152610ea38184610e13565b905092915050565b600080600060608486031215610ec457610ec361097e565b5b6000610ed2868287016109a9565b935050602084013567ffffffffffffffff811115610ef357610ef2610983565b5b610eff86828701610b7b565b9250506040610f10868287016109a9565b9150509250925092565b600081519050919050565b600082825260208201905092915050565b6000819050602082019050919050565b600060a083016000830151610f5e6000860182610cc6565b5060208301518482036020860152610f768282610d1b565b9150506040830151610f8b6040860182610cc6565b506060830151610f9e6060860182610dbc565b506080830151610fb16080860182610e04565b508091505092915050565b6000610fc88383610f46565b905092915050565b6000602082019050919050565b6000610fe882610f1a565b610ff28185610f25565b93508360208202850161100485610f36565b8060005b8581101561104057848403895281516110218582610fbc565b945061102c83610fd0565b925060208a01995050600181019050611008565b50829750879550505050505092915050565b6000602082019050818103600083015261106c8184610fdd565b905092915050565b600082825260208201905092915050565b7f496e76616c69645f696e64657800000000000000000000000000000000000000600082015250565b60006110bb600d83611074565b91506110c682611085565b602082019050919050565b600060208201905081810360008301526110ea816110ae565b9050919050565b7f4e487b7100000000000000000000000000000000000000000000000000000000600052603260045260246000fd5b7f4e487b7100000000000000000000000000000000000000000000000000000000600052602260045260246000fd5b6000600282049050600182168061116757607f821691505b60208210810361117a57611179611120565b5b50919050565b60008190508160005260206000209050919050565b60006020601f8301049050919050565b600082821b905092915050565b6000600883026111e27fffffffffffffffffffffffffffffffffffffffffffffffffffffffffffffffff826111a5565b6111ec86836111a5565b95508019841693508086168417925050509392505050565b6000819050919050565b600061122961122461121f84610988565b611204565b610988565b9050919050565b6000819050919050565b6112438361120e565b61125761124f82611230565b8484546111b2565b825550505050565b600090565b61126c61125f565b61127781848461123a565b505050565b5b8181101561129b57611290600082611264565b60018101905061127d565b5050565b601f8211156112e0576112b181611180565b6112ba84611195565b810160208510156112c9578190505b6112dd6112d585611195565b83018261127c565b50505b505050565b600082821c905092915050565b6000611303600019846008026112e5565b1980831691505092915050565b600061131c83836112f2565b9150826002028217905092915050565b61133582610cd5565b67ffffffffffffffff81111561134e5761134d610a7e565b5b611358825461114f565b61136382828561129f565b600060209050601f8311600181146113965760008415611384578287015190505b61138e8582611310565b8655506113f6565b601f1984166113a486611180565b60005b828110156113cc578489015182556001820191506020850194506020810190506113a7565b868310156113e957848901516113e5601f8916826112f2565b8355505b6001600288020188555050505b505050505050565b7f4e487b7100000000000000000000000000000000000000000000000000000000600052601160045260246000fd5b600061143882610988565b91507fffffffffffffffffffffffffffffffffffffffffffffffffffffffffffffffff820361146a576114696113fe565b5b60018201905091905056fea2646970667358221220f6c23950d743909308a6ceaa43fae445c6d4720e8612b96b3d34cbf3e39df46a64736f6c634300081c0033",
          "opcodes": "PUSH1 0x80 PUSH1 0x40 MSTORE PUSH1 0x1 DUP1 SSTORE CALLVALUE DUP1 ISZERO PUSH1 0x13 JUMPI PUSH1 0x0 DUP1 REVERT JUMPDEST POP PUSH2 0x14AB DUP1 PUSH2 0x23 PUSH1 0x0 CODECOPY PUSH1 0x0 RETURN INVALID PUSH1 0x80 PUSH1 0x40 MSTORE CALLVALUE DUP1 ISZERO PUSH2 0x10 JUMPI PUSH1 0x0 DUP1 REVERT JUMPDEST POP PUSH1 0x4 CALLDATASIZE LT PUSH2 0x88 JUMPI PUSH1 0x0 CALLDATALOAD PUSH1 0xE0 SHR DUP1 PUSH4 0xB645307D GT PUSH2 0x5B JUMPI DUP1 PUSH4 0xB645307D EQ PUSH2 0xFD JUMPI DUP1 PUSH4 0xC8FB0793 EQ PUSH2 0x119 JUMPI DUP1 PUSH4 0xE763C64D EQ PUSH2 0x149 JUMPI DUP1 PUSH4 0xE9E30927 EQ PUSH2 0x165 JUMPI PUSH2 0x88 JUMP JUMPDEST DUP1 PUSH4 0x13A46F31 EQ PUSH2 0x8D JUMPI DUP1 PUSH4 0x3A1B3D31 EQ PUSH2 0xA9 JUMPI DUP1 PUSH4 0x440DBA6C EQ PUSH2 0xC5 JUMPI DUP1 PUSH4 0x7BEE4264 EQ PUSH2 0xE1 JUMPI JUMPDEST PUSH1 0x0 DUP1 REVERT JUMPDEST PUSH2 0xA7 PUSH1 0x4 DUP1 CALLDATASIZE SUB DUP2 ADD SWAP1 PUSH2 0xA2 SWAP2 SWAP1 PUSH2 0x9BE JUMP JUMPDEST PUSH2 0x183 JUMP JUMPDEST STOP JUMPDEST PUSH2 0xC3 PUSH1 0x4 DUP1 CALLDATASIZE SUB DUP2 ADD SWAP1 PUSH2 0xBE SWAP2 SWAP1 PUSH2 0xA23 JUMP JUMPDEST PUSH2 0x1FB JUMP JUMPDEST STOP JUMPDEST PUSH2 0xDF PUSH1 0x4 DUP1 CALLDATASIZE SUB DUP2 ADD SWAP1 PUSH2 0xDA SWAP2 SWAP1 PUSH2 0xBA9 JUMP JUMPDEST PUSH2 0x296 JUMP JUMPDEST STOP JUMPDEST PUSH2 0xFB PUSH1 0x4 DUP1 CALLDATASIZE SUB DUP2 ADD SWAP1 PUSH2 0xF6 SWAP2 SWAP1 PUSH2 0xC2A JUMP JUMPDEST PUSH2 0x317 JUMP JUMPDEST STOP JUMPDEST PUSH2 0x117 PUSH1 0x4 DUP1 CALLDATASIZE SUB DUP2 ADD SWAP1 PUSH2 0x112 SWAP2 SWAP1 PUSH2 0xC99 JUMP JUMPDEST PUSH2 0x441 JUMP JUMPDEST STOP JUMPDEST PUSH2 0x133 PUSH1 0x4 DUP1 CALLDATASIZE SUB DUP2 ADD SWAP1 PUSH2 0x12E SWAP2 SWAP1 PUSH2 0xC99 JUMP JUMPDEST PUSH2 0x4FB JUMP JUMPDEST PUSH1 0x40 MLOAD PUSH2 0x140 SWAP2 SWAP1 PUSH2 0xE89 JUMP JUMPDEST PUSH1 0x40 MLOAD DUP1 SWAP2 SUB SWAP1 RETURN JUMPDEST PUSH2 0x163 PUSH1 0x4 DUP1 CALLDATASIZE SUB DUP2 ADD SWAP1 PUSH2 0x15E SWAP2 SWAP1 PUSH2 0xEAB JUMP JUMPDEST PUSH2 0x69D JUMP JUMPDEST STOP JUMPDEST PUSH2 0x16D PUSH2 0x749 JUMP JUMPDEST PUSH1 0x40 MLOAD PUSH2 0x17A SWAP2 SWAP1 PUSH2 0x1052 JUMP JUMPDEST PUSH1 0x40 MLOAD DUP1 SWAP2 SUB SWAP1 RETURN JUMPDEST DUP2 PUSH1 0x0 DUP1 SLOAD SWAP1 POP DUP2 GT ISZERO PUSH2 0x1CC JUMPI PUSH1 0x40 MLOAD PUSH32 0x8C379A000000000000000000000000000000000000000000000000000000000 DUP2 MSTORE PUSH1 0x4 ADD PUSH2 0x1C3 SWAP1 PUSH2 0x10D1 JUMP JUMPDEST PUSH1 0x40 MLOAD DUP1 SWAP2 SUB SWAP1 REVERT JUMPDEST DUP2 PUSH1 0x0 DUP5 DUP2 SLOAD DUP2 LT PUSH2 0x1E1 JUMPI PUSH2 0x1E0 PUSH2 0x10F1 JUMP JUMPDEST JUMPDEST SWAP1 PUSH1 0x0 MSTORE PUSH1 0x20 PUSH1 0x0 KECCAK256 SWAP1 PUSH1 0x4 MUL ADD PUSH1 0x2 ADD DUP2 SWAP1 SSTORE POP POP POP POP JUMP JUMPDEST DUP2 PUSH1 0x0 DUP1 SLOAD SWAP1 POP DUP2 GT ISZERO PUSH2 0x244 JUMPI PUSH1 0x40 MLOAD PUSH32 0x8C379A000000000000000000000000000000000000000000000000000000000 DUP2 MSTORE PUSH1 0x4 ADD PUSH2 0x23B SWAP1 PUSH2 0x10D1 JUMP JUMPDEST PUSH1 0x40 MLOAD DUP1 SWAP2 SUB SWAP1 REVERT JUMPDEST DUP2 PUSH1 0x0 DUP5 DUP2 SLOAD DUP2 LT PUSH2 0x259 JUMPI PUSH2 0x258 PUSH2 0x10F1 JUMP JUMPDEST JUMPDEST SWAP1 PUSH1 0x0 MSTORE PUSH1 0x20 PUSH1 0x0 KECCAK256 SWAP1 PUSH1 0x4 MUL ADD PUSH1 0x3 ADD PUSH1 0x0 PUSH2 0x100 EXP DUP2 SLOAD DUP2 PUSH1 0xFF MUL NOT AND SWAP1 DUP4 PUSH1 0x2 DUP2 GT ISZERO PUSH2 0x28C JUMPI PUSH2 0x28B PUSH2 0xD54 JUMP JUMPDEST JUMPDEST MUL OR SWAP1 SSTORE POP POP POP POP JUMP JUMPDEST DUP2 PUSH1 0x0 DUP1 SLOAD SWAP1 POP DUP2 GT ISZERO PUSH2 0x2DF JUMPI PUSH1 0x40 MLOAD PUSH32 0x8C379A000000000000000000000000000000000000000000000000000000000 DUP2 MSTORE PUSH1 0x4 ADD PUSH2 0x2D6 SWAP1 PUSH2 0x10D1 JUMP JUMPDEST PUSH1 0x40 MLOAD DUP1 SWAP2 SUB SWAP1 REVERT JUMPDEST DUP2 PUSH1 0x0 DUP5 DUP2 SLOAD DUP2 LT PUSH2 0x2F4 JUMPI PUSH2 0x2F3 PUSH2 0x10F1 JUMP JUMPDEST JUMPDEST SWAP1 PUSH1 0x0 MSTORE PUSH1 0x20 PUSH1 0x0 KECCAK256 SWAP1 PUSH1 0x4 MUL ADD PUSH1 0x1 ADD SWAP1 DUP2 PUSH2 0x311 SWAP2 SWAP1 PUSH2 0x132C JUMP JUMPDEST POP POP POP POP JUMP JUMPDEST PUSH1 0x0 PUSH1 0x1 PUSH1 0x0 DUP2 SLOAD DUP1 SWAP3 SWAP2 SWAP1 PUSH2 0x32C SWAP1 PUSH2 0x142D JUMP JUMPDEST SWAP2 SWAP1 POP SSTORE SWAP1 POP PUSH1 0x0 PUSH1 0x40 MLOAD DUP1 PUSH1 0xA0 ADD PUSH1 0x40 MSTORE DUP1 DUP4 DUP2 MSTORE PUSH1 0x20 ADD DUP7 DUP2 MSTORE PUSH1 0x20 ADD DUP6 DUP2 MSTORE PUSH1 0x20 ADD PUSH1 0x0 PUSH1 0x2 DUP2 GT ISZERO PUSH2 0x365 JUMPI PUSH2 0x364 PUSH2 0xD54 JUMP JUMPDEST JUMPDEST DUP2 MSTORE PUSH1 0x20 ADD DUP5 PUSH1 0x1 DUP2 GT ISZERO PUSH2 0x37D JUMPI PUSH2 0x37C PUSH2 0xD54 JUMP JUMPDEST JUMPDEST DUP2 MSTORE POP SWAP1 POP PUSH1 0x0 DUP2 SWAP1 DUP1 PUSH1 0x1 DUP2 SLOAD ADD DUP1 DUP3 SSTORE DUP1 SWAP2 POP POP PUSH1 0x1 SWAP1 SUB SWAP1 PUSH1 0x0 MSTORE PUSH1 0x20 PUSH1 0x0 KECCAK256 SWAP1 PUSH1 0x4 MUL ADD PUSH1 0x0 SWAP1 SWAP2 SWAP1 SWAP2 SWAP1 SWAP2 POP PUSH1 0x0 DUP3 ADD MLOAD DUP2 PUSH1 0x0 ADD SSTORE PUSH1 0x20 DUP3 ADD MLOAD DUP2 PUSH1 0x1 ADD SWAP1 DUP2 PUSH2 0x3CD SWAP2 SWAP1 PUSH2 0x132C JUMP JUMPDEST POP PUSH1 0x40 DUP3 ADD MLOAD DUP2 PUSH1 0x2 ADD SSTORE PUSH1 0x60 DUP3 ADD MLOAD DUP2 PUSH1 0x3 ADD PUSH1 0x0 PUSH2 0x100 EXP DUP2 SLOAD DUP2 PUSH1 0xFF MUL NOT AND SWAP1 DUP4 PUSH1 0x2 DUP2 GT ISZERO PUSH2 0x403 JUMPI PUSH2 0x402 PUSH2 0xD54 JUMP JUMPDEST JUMPDEST MUL OR SWAP1 SSTORE POP PUSH1 0x80 DUP3 ADD MLOAD DUP2 PUSH1 0x3 ADD PUSH1 0x1 PUSH2 0x100 EXP DUP2 SLOAD DUP2 PUSH1 0xFF MUL NOT AND SWAP1 DUP4 PUSH1 0x1 DUP2 GT ISZERO PUSH2 0x433 JUMPI PUSH2 0x432 PUSH2 0xD54 JUMP JUMPDEST JUMPDEST MUL OR SWAP1 SSTORE POP POP POP POP POP POP POP POP JUMP JUMPDEST DUP1 PUSH1 0x0 DUP1 SLOAD SWAP1 POP DUP2 GT ISZERO PUSH2 0x48A JUMPI PUSH1 0x40 MLOAD PUSH32 0x8C379A000000000000000000000000000000000000000000000000000000000 DUP2 MSTORE PUSH1 0x4 ADD PUSH2 0x481 SWAP1 PUSH2 0x10D1 JUMP JUMPDEST PUSH1 0x40 MLOAD DUP1 SWAP2 SUB SWAP1 REVERT JUMPDEST PUSH1 0x0 DUP3 DUP2 SLOAD DUP2 LT PUSH2 0x49E JUMPI PUSH2 0x49D PUSH2 0x10F1 JUMP JUMPDEST JUMPDEST SWAP1 PUSH1 0x0 MSTORE PUSH1 0x20 PUSH1 0x0 KECCAK256 SWAP1 PUSH1 0x4 MUL ADD PUSH1 0x0 DUP1 DUP3 ADD PUSH1 0x0 SWAP1 SSTORE PUSH1 0x1 DUP3 ADD PUSH1 0x0 PUSH2 0x4C5 SWAP2 SWAP1 PUSH2 0x8C4 JUMP JUMPDEST PUSH1 0x2 DUP3 ADD PUSH1 0x0 SWAP1 SSTORE PUSH1 0x3 DUP3 ADD PUSH1 0x0 PUSH2 0x100 EXP DUP2 SLOAD SWAP1 PUSH1 0xFF MUL NOT AND SWAP1 SSTORE PUSH1 0x3 DUP3 ADD PUSH1 0x1 PUSH2 0x100 EXP DUP2 SLOAD SWAP1 PUSH1 0xFF MUL NOT AND SWAP1 SSTORE POP POP POP POP JUMP JUMPDEST PUSH2 0x503 PUSH2 0x904 JUMP JUMPDEST DUP2 PUSH1 0x0 DUP1 SLOAD SWAP1 POP DUP2 GT ISZERO PUSH2 0x54C JUMPI PUSH1 0x40 MLOAD PUSH32 0x8C379A000000000000000000000000000000000000000000000000000000000 DUP2 MSTORE PUSH1 0x4 ADD PUSH2 0x543 SWAP1 PUSH2 0x10D1 JUMP JUMPDEST PUSH1 0x40 MLOAD DUP1 SWAP2 SUB SWAP1 REVERT JUMPDEST PUSH1 0x0 DUP4 DUP2 SLOAD DUP2 LT PUSH2 0x560 JUMPI PUSH2 0x55F PUSH2 0x10F1 JUMP JUMPDEST JUMPDEST SWAP1 PUSH1 0x0 MSTORE PUSH1 0x20 PUSH1 0x0 KECCAK256 SWAP1 PUSH1 0x4 MUL ADD PUSH1 0x40 MLOAD DUP1 PUSH1 0xA0 ADD PUSH1 0x40 MSTORE SWAP1 DUP2 PUSH1 0x0 DUP3 ADD SLOAD DUP2 MSTORE PUSH1 0x20 ADD PUSH1 0x1 DUP3 ADD DUP1 SLOAD PUSH2 0x593 SWAP1 PUSH2 0x114F JUMP JUMPDEST DUP1 PUSH1 0x1F ADD PUSH1 0x20 DUP1 SWAP2 DIV MUL PUSH1 0x20 ADD PUSH1 0x40 MLOAD SWAP1 DUP2 ADD PUSH1 0x40 MSTORE DUP1 SWAP3 SWAP2 SWAP1 DUP2 DUP2 MSTORE PUSH1 0x20 ADD DUP3 DUP1 SLOAD PUSH2 0x5BF SWAP1 PUSH2 0x114F JUMP JUMPDEST DUP1 ISZERO PUSH2 0x60C JUMPI DUP1 PUSH1 0x1F LT PUSH2 0x5E1 JUMPI PUSH2 0x100 DUP1 DUP4 SLOAD DIV MUL DUP4 MSTORE SWAP2 PUSH1 0x20 ADD SWAP2 PUSH2 0x60C JUMP JUMPDEST DUP3 ADD SWAP2 SWAP1 PUSH1 0x0 MSTORE PUSH1 0x20 PUSH1 0x0 KECCAK256 SWAP1 JUMPDEST DUP2 SLOAD DUP2 MSTORE SWAP1 PUSH1 0x1 ADD SWAP1 PUSH1 0x20 ADD DUP1 DUP4 GT PUSH2 0x5EF JUMPI DUP3 SWAP1 SUB PUSH1 0x1F AND DUP3 ADD SWAP2 JUMPDEST POP POP POP POP POP DUP2 MSTORE PUSH1 0x20 ADD PUSH1 0x2 DUP3 ADD SLOAD DUP2 MSTORE PUSH1 0x20 ADD PUSH1 0x3 DUP3 ADD PUSH1 0x0 SWAP1 SLOAD SWAP1 PUSH2 0x100 EXP SWAP1 DIV PUSH1 0xFF AND PUSH1 0x2 DUP2 GT ISZERO PUSH2 0x644 JUMPI PUSH2 0x643 PUSH2 0xD54 JUMP JUMPDEST JUMPDEST PUSH1 0x2 DUP2 GT ISZERO PUSH2 0x656 JUMPI PUSH2 0x655 PUSH2 0xD54 JUMP JUMPDEST JUMPDEST DUP2 MSTORE PUSH1 0x20 ADD PUSH1 0x3 DUP3 ADD PUSH1 0x1 SWAP1 SLOAD SWAP1 PUSH2 0x100 EXP SWAP1 DIV PUSH1 0xFF AND PUSH1 0x1 DUP2 GT ISZERO PUSH2 0x67F JUMPI PUSH2 0x67E PUSH2 0xD54 JUMP JUMPDEST JUMPDEST PUSH1 0x1 DUP2 GT ISZERO PUSH2 0x691 JUMPI PUSH2 0x690 PUSH2 0xD54 JUMP JUMPDEST JUMPDEST DUP2 MSTORE POP POP SWAP2 POP POP SWAP2 SWAP1 POP JUMP JUMPDEST DUP3 PUSH1 0x0 DUP1 SLOAD SWAP1 POP DUP2 GT ISZERO PUSH2 0x6E6 JUMPI PUSH1 0x40 MLOAD PUSH32 0x8C379A000000000000000000000000000000000000000000000000000000000 DUP2 MSTORE PUSH1 0x4 ADD PUSH2 0x6DD SWAP1 PUSH2 0x10D1 JUMP JUMPDEST PUSH1 0x40 MLOAD DUP1 SWAP2 SUB SWAP1 REVERT JUMPDEST DUP2 PUSH1 0x0 DUP6 DUP2 SLOAD DUP2 LT PUSH2 0x6FB JUMPI PUSH2 0x6FA PUSH2 0x10F1 JUMP JUMPDEST JUMPDEST SWAP1 PUSH1 0x0 MSTORE PUSH1 0x20 PUSH1 0x0 KECCAK256 SWAP1 PUSH1 0x4 MUL ADD PUSH1 0x2 ADD DUP2 SWAP1 SSTORE POP DUP3 PUSH1 0x0 DUP6 DUP2 SLOAD DUP2 LT PUSH2 0x725 JUMPI PUSH2 0x724 PUSH2 0x10F1 JUMP JUMPDEST JUMPDEST SWAP1 PUSH1 0x0 MSTORE PUSH1 0x20 PUSH1 0x0 KECCAK256 SWAP1 PUSH1 0x4 MUL ADD PUSH1 0x1 ADD SWAP1 DUP2 PUSH2 0x742 SWAP2 SWAP1 PUSH2 0x132C JUMP JUMPDEST POP POP POP POP POP JUMP JUMPDEST PUSH1 0x60 PUSH1 0x0 DUP1 SLOAD DUP1 PUSH1 0x20 MUL PUSH1 0x20 ADD PUSH1 0x40 MLOAD SWAP1 DUP2 ADD PUSH1 0x40 MSTORE DUP1 SWAP3 SWAP2 SWAP1 DUP2 DUP2 MSTORE PUSH1 0x20 ADD PUSH1 0x0 SWAP1 JUMPDEST DUP3 DUP3 LT ISZERO PUSH2 0x8BB JUMPI DUP4 DUP3 SWAP1 PUSH1 0x0 MSTORE PUSH1 0x20 PUSH1 0x0 KECCAK256 SWAP1 PUSH1 0x4 MUL ADD PUSH1 0x40 MLOAD DUP1 PUSH1 0xA0 ADD PUSH1 0x40 MSTORE SWAP1 DUP2 PUSH1 0x0 DUP3 ADD SLOAD DUP2 MSTORE PUSH1 0x20 ADD PUSH1 0x1 DUP3 ADD DUP1 SLOAD PUSH2 0x7AA SWAP1 PUSH2 0x114F JUMP JUMPDEST DUP1 PUSH1 0x1F ADD PUSH1 0x20 DUP1 SWAP2 DIV MUL PUSH1 0x20 ADD PUSH1 0x40 MLOAD SWAP1 DUP2 ADD PUSH1 0x40 MSTORE DUP1 SWAP3 SWAP2 SWAP1 DUP2 DUP2 MSTORE PUSH1 0x20 ADD DUP3 DUP1 SLOAD PUSH2 0x7D6 SWAP1 PUSH2 0x114F JUMP JUMPDEST DUP1 ISZERO PUSH2 0x823 JUMPI DUP1 PUSH1 0x1F LT PUSH2 0x7F8 JUMPI PUSH2 0x100 DUP1 DUP4 SLOAD DIV MUL DUP4 MSTORE SWAP2 PUSH1 0x20 ADD SWAP2 PUSH2 0x823 JUMP JUMPDEST DUP3 ADD SWAP2 SWAP1 PUSH1 0x0 MSTORE PUSH1 0x20 PUSH1 0x0 KECCAK256 SWAP1 JUMPDEST DUP2 SLOAD DUP2 MSTORE SWAP1 PUSH1 0x1 ADD SWAP1 PUSH1 0x20 ADD DUP1 DUP4 GT PUSH2 0x806 JUMPI DUP3 SWAP1 SUB PUSH1 0x1F AND DUP3 ADD SWAP2 JUMPDEST POP POP POP POP POP DUP2 MSTORE PUSH1 0x20 ADD PUSH1 0x2 DUP3 ADD SLOAD DUP2 MSTORE PUSH1 0x20 ADD PUSH1 0x3 DUP3 ADD PUSH1 0x0 SWAP1 SLOAD SWAP1 PUSH2 0x100 EXP SWAP1 DIV PUSH1 0xFF AND PUSH1 0x2 DUP2 GT ISZERO PUSH2 0x85B JUMPI PUSH2 0x85A PUSH2 0xD54 JUMP JUMPDEST JUMPDEST PUSH1 0x2 DUP2 GT ISZERO PUSH2 0x86D JUMPI PUSH2 0x86C PUSH2 0xD54 JUMP JUMPDEST JUMPDEST DUP2 MSTORE PUSH1 0x20 ADD PUSH1 0x3 DUP3 ADD PUSH1 0x1 SWAP1 SLOAD SWAP1 PUSH2 0x100 EXP SWAP1 DIV PUSH1 0xFF AND PUSH1 0x1 DUP2 GT ISZERO PUSH2 0x896 JUMPI PUSH2 0x895 PUSH2 0xD54 JUMP JUMPDEST JUMPDEST PUSH1 0x1 DUP2 GT ISZERO PUSH2 0x8A8 JUMPI PUSH2 0x8A7 PUSH2 0xD54 JUMP JUMPDEST JUMPDEST DUP2 MSTORE POP POP DUP2 MSTORE PUSH1 0x20 ADD SWAP1 PUSH1 0x1 ADD SWAP1 PUSH2 0x76D JUMP JUMPDEST POP POP POP POP SWAP1 POP SWAP1 JUMP JUMPDEST POP DUP1 SLOAD PUSH2 0x8D0 SWAP1 PUSH2 0x114F JUMP JUMPDEST PUSH1 0x0 DUP3 SSTORE DUP1 PUSH1 0x1F LT PUSH2 0x8E2 JUMPI POP PUSH2 0x901 JUMP JUMPDEST PUSH1 0x1F ADD PUSH1 0x20 SWAP1 DIV SWAP1 PUSH1 0x0 MSTORE PUSH1 0x20 PUSH1 0x0 KECCAK256 SWAP1 DUP2 ADD SWAP1 PUSH2 0x900 SWAP2 SWAP1 PUSH2 0x957 JUMP JUMPDEST JUMPDEST POP JUMP JUMPDEST PUSH1 0x40 MLOAD DUP1 PUSH1 0xA0 ADD PUSH1 0x40 MSTORE DUP1 PUSH1 0x0 DUP2 MSTORE PUSH1 0x20 ADD PUSH1 0x60 DUP2 MSTORE PUSH1 0x20 ADD PUSH1 0x0 DUP2 MSTORE PUSH1 0x20 ADD PUSH1 0x0 PUSH1 0x2 DUP2 GT ISZERO PUSH2 0x938 JUMPI PUSH2 0x937 PUSH2 0xD54 JUMP JUMPDEST JUMPDEST DUP2 MSTORE PUSH1 0x20 ADD PUSH1 0x0 PUSH1 0x1 DUP2 GT ISZERO PUSH2 0x951 JUMPI PUSH2 0x950 PUSH2 0xD54 JUMP JUMPDEST JUMPDEST DUP2 MSTORE POP SWAP1 JUMP JUMPDEST JUMPDEST DUP1 DUP3 GT ISZERO PUSH2 0x970 JUMPI PUSH1 0x0 DUP2 PUSH1 0x0 SWAP1 SSTORE POP PUSH1 0x1 ADD PUSH2 0x958 JUMP JUMPDEST POP SWAP1 JUMP JUMPDEST PUSH1 0x0 PUSH1 0x40 MLOAD SWAP1 POP SWAP1 JUMP JUMPDEST PUSH1 0x0 DUP1 REVERT JUMPDEST PUSH1 0x0 DUP1 REVERT JUMPDEST PUSH1 0x0 DUP2 SWAP1 POP SWAP2 SWAP1 POP JUMP JUMPDEST PUSH2 0x99B DUP2 PUSH2 0x988 JUMP JUMPDEST DUP2 EQ PUSH2 0x9A6 JUMPI PUSH1 0x0 DUP1 REVERT JUMPDEST POP JUMP JUMPDEST PUSH1 0x0 DUP2 CALLDATALOAD SWAP1 POP PUSH2 0x9B8 DUP2 PUSH2 0x992 JUMP JUMPDEST SWAP3 SWAP2 POP POP JUMP JUMPDEST PUSH1 0x0 DUP1 PUSH1 0x40 DUP4 DUP6 SUB SLT ISZERO PUSH2 0x9D5 JUMPI PUSH2 0x9D4 PUSH2 0x97E JUMP JUMPDEST JUMPDEST PUSH1 0x0 PUSH2 0x9E3 DUP6 DUP3 DUP7 ADD PUSH2 0x9A9 JUMP JUMPDEST SWAP3 POP POP PUSH1 0x20 PUSH2 0x9F4 DUP6 DUP3 DUP7 ADD PUSH2 0x9A9 JUMP JUMPDEST SWAP2 POP POP SWAP3 POP SWAP3 SWAP1 POP JUMP JUMPDEST PUSH1 0x3 DUP2 LT PUSH2 0xA0B JUMPI PUSH1 0x0 DUP1 REVERT JUMPDEST POP JUMP JUMPDEST PUSH1 0x0 DUP2 CALLDATALOAD SWAP1 POP PUSH2 0xA1D DUP2 PUSH2 0x9FE JUMP JUMPDEST SWAP3 SWAP2 POP POP JUMP JUMPDEST PUSH1 0x0 DUP1 PUSH1 0x40 DUP4 DUP6 SUB SLT ISZERO PUSH2 0xA3A JUMPI PUSH2 0xA39 PUSH2 0x97E JUMP JUMPDEST JUMPDEST PUSH1 0x0 PUSH2 0xA48 DUP6 DUP3 DUP7 ADD PUSH2 0x9A9 JUMP JUMPDEST SWAP3 POP POP PUSH1 0x20 PUSH2 0xA59 DUP6 DUP3 DUP7 ADD PUSH2 0xA0E JUMP JUMPDEST SWAP2 POP POP SWAP3 POP SWAP3 SWAP1 POP JUMP JUMPDEST PUSH1 0x0 DUP1 REVERT JUMPDEST PUSH1 0x0 DUP1 REVERT JUMPDEST PUSH1 0x0 PUSH1 0x1F NOT PUSH1 0x1F DUP4 ADD AND SWAP1 POP SWAP2 SWAP1 POP JUMP JUMPDEST PUSH32 0x4E487B7100000000000000000000000000000000000000000000000000000000 PUSH1 0x0 MSTORE PUSH1 0x41 PUSH1 0x4 MSTORE PUSH1 0x24 PUSH1 0x0 REVERT JUMPDEST PUSH2 0xAB6 DUP3 PUSH2 0xA6D JUMP JUMPDEST DUP2 ADD DUP2 DUP2 LT PUSH8 0xFFFFFFFFFFFFFFFF DUP3 GT OR ISZERO PUSH2 0xAD5 JUMPI PUSH2 0xAD4 PUSH2 0xA7E JUMP JUMPDEST JUMPDEST DUP1 PUSH1 0x40 MSTORE POP POP POP JUMP JUMPDEST PUSH1 0x0 PUSH2 0xAE8 PUSH2 0x974 JUMP JUMPDEST SWAP1 POP PUSH2 0xAF4 DUP3 DUP3 PUSH2 0xAAD JUMP JUMPDEST SWAP2 SWAP1 POP JUMP JUMPDEST PUSH1 0x0 PUSH8 0xFFFFFFFFFFFFFFFF DUP3 GT ISZERO PUSH2 0xB14 JUMPI PUSH2 0xB13 PUSH2 0xA7E JUMP JUMPDEST JUMPDEST PUSH2 0xB1D DUP3 PUSH2 0xA6D JUMP JUMPDEST SWAP1 POP PUSH1 0x20 DUP2 ADD SWAP1 POP SWAP2 SWAP1 POP JUMP JUMPDEST DUP3 DUP2 DUP4 CALLDATACOPY PUSH1 0x0 DUP4 DUP4 ADD MSTORE POP POP POP JUMP JUMPDEST PUSH1 0x0 PUSH2 0xB4C PUSH2 0xB47 DUP5 PUSH2 0xAF9 JUMP JUMPDEST PUSH2 0xADE JUMP JUMPDEST SWAP1 POP DUP3 DUP2 MSTORE PUSH1 0x20 DUP2 ADD DUP5 DUP5 DUP5 ADD GT ISZERO PUSH2 0xB68 JUMPI PUSH2 0xB67 PUSH2 0xA68 JUMP JUMPDEST JUMPDEST PUSH2 0xB73 DUP5 DUP3 DUP6 PUSH2 0xB2A JUMP JUMPDEST POP SWAP4 SWAP3 POP POP POP JUMP JUMPDEST PUSH1 0x0 DUP3 PUSH1 0x1F DUP4 ADD SLT PUSH2 0xB90 JUMPI PUSH2 0xB8F PUSH2 0xA63 JUMP JUMPDEST JUMPDEST DUP2 CALLDATALOAD PUSH2 0xBA0 DUP5 DUP3 PUSH1 0x20 DUP7 ADD PUSH2 0xB39 JUMP JUMPDEST SWAP2 POP POP SWAP3 SWAP2 POP POP JUMP JUMPDEST PUSH1 0x0 DUP1 PUSH1 0x40 DUP4 DUP6 SUB SLT ISZERO PUSH2 0xBC0 JUMPI PUSH2 0xBBF PUSH2 0x97E JUMP JUMPDEST JUMPDEST PUSH1 0x0 PUSH2 0xBCE DUP6 DUP3 DUP7 ADD PUSH2 0x9A9 JUMP JUMPDEST SWAP3 POP POP PUSH1 0x20 DUP4 ADD CALLDATALOAD PUSH8 0xFFFFFFFFFFFFFFFF DUP2 GT ISZERO PUSH2 0xBEF JUMPI PUSH2 0xBEE PUSH2 0x983 JUMP JUMPDEST JUMPDEST PUSH2 0xBFB DUP6 DUP3 DUP7 ADD PUSH2 0xB7B JUMP JUMPDEST SWAP2 POP POP SWAP3 POP SWAP3 SWAP1 POP JUMP JUMPDEST PUSH1 0x2 DUP2 LT PUSH2 0xC12 JUMPI PUSH1 0x0 DUP1 REVERT JUMPDEST POP JUMP JUMPDEST PUSH1 0x0 DUP2 CALLDATALOAD SWAP1 POP PUSH2 0xC24 DUP2 PUSH2 0xC05 JUMP JUMPDEST SWAP3 SWAP2 POP POP JUMP JUMPDEST PUSH1 0x0 DUP1 PUSH1 0x0 PUSH1 0x60 DUP5 DUP7 SUB SLT ISZERO PUSH2 0xC43 JUMPI PUSH2 0xC42 PUSH2 0x97E JUMP JUMPDEST JUMPDEST PUSH1 0x0 DUP5 ADD CALLDATALOAD PUSH8 0xFFFFFFFFFFFFFFFF DUP2 GT ISZERO PUSH2 0xC61 JUMPI PUSH2 0xC60 PUSH2 0x983 JUMP JUMPDEST JUMPDEST PUSH2 0xC6D DUP7 DUP3 DUP8 ADD PUSH2 0xB7B JUMP JUMPDEST SWAP4 POP POP PUSH1 0x20 PUSH2 0xC7E DUP7 DUP3 DUP8 ADD PUSH2 0x9A9 JUMP JUMPDEST SWAP3 POP POP PUSH1 0x40 PUSH2 0xC8F DUP7 DUP3 DUP8 ADD PUSH2 0xC15 JUMP JUMPDEST SWAP2 POP POP SWAP3 POP SWAP3 POP SWAP3 JUMP JUMPDEST PUSH1 0x0 PUSH1 0x20 DUP3 DUP5 SUB SLT ISZERO PUSH2 0xCAF JUMPI PUSH2 0xCAE PUSH2 0x97E JUMP JUMPDEST JUMPDEST PUSH1 0x0 PUSH2 0xCBD DUP5 DUP3 DUP6 ADD PUSH2 0x9A9 JUMP JUMPDEST SWAP2 POP POP SWAP3 SWAP2 POP POP JUMP JUMPDEST PUSH2 0xCCF DUP2 PUSH2 0x988 JUMP JUMPDEST DUP3 MSTORE POP POP JUMP JUMPDEST PUSH1 0x0 DUP2 MLOAD SWAP1 POP SWAP2 SWAP1 POP JUMP JUMPDEST PUSH1 0x0 DUP3 DUP3 MSTORE PUSH1 0x20 DUP3 ADD SWAP1 POP SWAP3 SWAP2 POP POP JUMP JUMPDEST PUSH1 0x0 JUMPDEST DUP4 DUP2 LT ISZERO PUSH2 0xD0F JUMPI DUP1 DUP3 ADD MLOAD DUP2 DUP5 ADD MSTORE PUSH1 0x20 DUP2 ADD SWAP1 POP PUSH2 0xCF4 JUMP JUMPDEST PUSH1 0x0 DUP5 DUP5 ADD MSTORE POP POP POP POP JUMP JUMPDEST PUSH1 0x0 PUSH2 0xD26 DUP3 PUSH2 0xCD5 JUMP JUMPDEST PUSH2 0xD30 DUP2 DUP6 PUSH2 0xCE0 JUMP JUMPDEST SWAP4 POP PUSH2 0xD40 DUP2 DUP6 PUSH1 0x20 DUP7 ADD PUSH2 0xCF1 JUMP JUMPDEST PUSH2 0xD49 DUP2 PUSH2 0xA6D JUMP JUMPDEST DUP5 ADD SWAP2 POP POP SWAP3 SWAP2 POP POP JUMP JUMPDEST PUSH32 0x4E487B7100000000000000000000000000000000000000000000000000000000 PUSH1 0x0 MSTORE PUSH1 0x21 PUSH1 0x4 MSTORE PUSH1 0x24 PUSH1 0x0 REVERT JUMPDEST PUSH1 0x3 DUP2 LT PUSH2 0xD94 JUMPI PUSH2 0xD93 PUSH2 0xD54 JUMP JUMPDEST JUMPDEST POP JUMP JUMPDEST PUSH1 0x0 DUP2 SWAP1 POP PUSH2 0xDA5 DUP3 PUSH2 0xD83 JUMP JUMPDEST SWAP2 SWAP1 POP JUMP JUMPDEST PUSH1 0x0 PUSH2 0xDB5 DUP3 PUSH2 0xD97 JUMP JUMPDEST SWAP1 POP SWAP2 SWAP1 POP JUMP JUMPDEST PUSH2 0xDC5 DUP2 PUSH2 0xDAA JUMP JUMPDEST DUP3 MSTORE POP POP JUMP JUMPDEST PUSH1 0x2 DUP2 LT PUSH2 0xDDC JUMPI PUSH2 0xDDB PUSH2 0xD54 JUMP JUMPDEST JUMPDEST POP JUMP JUMPDEST PUSH1 0x0 DUP2 SWAP1 POP PUSH2 0xDED DUP3 PUSH2 0xDCB JUMP JUMPDEST SWAP2 SWAP1 POP JUMP JUMPDEST PUSH1 0x0 PUSH2 0xDFD DUP3 PUSH2 0xDDF JUMP JUMPDEST SWAP1 POP SWAP2 SWAP1 POP JUMP JUMPDEST PUSH2 0xE0D DUP2 PUSH2 0xDF2 JUMP JUMPDEST DUP3 MSTORE POP POP JUMP JUMPDEST PUSH1 0x0 PUSH1 0xA0 DUP4 ADD PUSH1 0x0 DUP4 ADD MLOAD PUSH2 0xE2B PUSH1 0x0 DUP7 ADD DUP3 PUSH2 0xCC6 JUMP JUMPDEST POP PUSH1 0x20 DUP4 ADD MLOAD DUP5 DUP3 SUB PUSH1 0x20 DUP7 ADD MSTORE PUSH2 0xE43 DUP3 DUP3 PUSH2 0xD1B JUMP JUMPDEST SWAP2 POP POP PUSH1 0x40 DUP4 ADD MLOAD PUSH2 0xE58 PUSH1 0x40 DUP7 ADD DUP3 PUSH2 0xCC6 JUMP JUMPDEST POP PUSH1 0x60 DUP4 ADD MLOAD PUSH2 0xE6B PUSH1 0x60 DUP7 ADD DUP3 PUSH2 0xDBC JUMP JUMPDEST POP PUSH1 0x80 DUP4 ADD MLOAD PUSH2 0xE7E PUSH1 0x80 DUP7 ADD DUP3 PUSH2 0xE04 JUMP JUMPDEST POP DUP1 SWAP2 POP POP SWAP3 SWAP2 POP POP JUMP JUMPDEST PUSH1 0x0 PUSH1 0x20 DUP3 ADD SWAP1 POP DUP2 DUP2 SUB PUSH1 0x0 DUP4 ADD MSTORE PUSH2 0xEA3 DUP2 DUP5 PUSH2 0xE13 JUMP JUMPDEST SWAP1 POP SWAP3 SWAP2 POP POP JUMP JUMPDEST PUSH1 0x0 DUP1 PUSH1 0x0 PUSH1 0x60 DUP5 DUP7 SUB SLT ISZERO PUSH2 0xEC4 JUMPI PUSH2 0xEC3 PUSH2 0x97E JUMP JUMPDEST JUMPDEST PUSH1 0x0 PUSH2 0xED2 DUP7 DUP3 DUP8 ADD PUSH2 0x9A9 JUMP JUMPDEST SWAP4 POP POP PUSH1 0x20 DUP5 ADD CALLDATALOAD PUSH8 0xFFFFFFFFFFFFFFFF DUP2 GT ISZERO PUSH2 0xEF3 JUMPI PUSH2 0xEF2 PUSH2 0x983 JUMP JUMPDEST JUMPDEST PUSH2 0xEFF DUP7 DUP3 DUP8 ADD PUSH2 0xB7B JUMP JUMPDEST SWAP3 POP POP PUSH1 0x40 PUSH2 0xF10 DUP7 DUP3 DUP8 ADD PUSH2 0x9A9 JUMP JUMPDEST SWAP2 POP POP SWAP3 POP SWAP3 POP SWAP3 JUMP JUMPDEST PUSH1 0x0 DUP2 MLOAD SWAP1 POP SWAP2 SWAP1 POP JUMP JUMPDEST PUSH1 0x0 DUP3 DUP3 MSTORE PUSH1 0x20 DUP3 ADD SWAP1 POP SWAP3 SWAP2 POP POP JUMP JUMPDEST PUSH1 0x0 DUP2 SWAP1 POP PUSH1 0x20 DUP3 ADD SWAP1 POP SWAP2 SWAP1 POP JUMP JUMPDEST PUSH1 0x0 PUSH1 0xA0 DUP4 ADD PUSH1 0x0 DUP4 ADD MLOAD PUSH2 0xF5E PUSH1 0x0 DUP7 ADD DUP3 PUSH2 0xCC6 JUMP JUMPDEST POP PUSH1 0x20 DUP4 ADD MLOAD DUP5 DUP3 SUB PUSH1 0x20 DUP7 ADD MSTORE PUSH2 0xF76 DUP3 DUP3 PUSH2 0xD1B JUMP JUMPDEST SWAP2 POP POP PUSH1 0x40 DUP4 ADD MLOAD PUSH2 0xF8B PUSH1 0x40 DUP7 ADD DUP3 PUSH2 0xCC6 JUMP JUMPDEST POP PUSH1 0x60 DUP4 ADD MLOAD PUSH2 0xF9E PUSH1 0x60 DUP7 ADD DUP3 PUSH2 0xDBC JUMP JUMPDEST POP PUSH1 0x80 DUP4 ADD MLOAD PUSH2 0xFB1 PUSH1 0x80 DUP7 ADD DUP3 PUSH2 0xE04 JUMP JUMPDEST POP DUP1 SWAP2 POP POP SWAP3 SWAP2 POP POP JUMP JUMPDEST PUSH1 0x0 PUSH2 0xFC8 DUP4 DUP4 PUSH2 0xF46 JUMP JUMPDEST SWAP1 POP SWAP3 SWAP2 POP POP JUMP JUMPDEST PUSH1 0x0 PUSH1 0x20 DUP3 ADD SWAP1 POP SWAP2 SWAP1 POP JUMP JUMPDEST PUSH1 0x0 PUSH2 0xFE8 DUP3 PUSH2 0xF1A JUMP JUMPDEST PUSH2 0xFF2 DUP2 DUP6 PUSH2 0xF25 JUMP JUMPDEST SWAP4 POP DUP4 PUSH1 0x20 DUP3 MUL DUP6 ADD PUSH2 0x1004 DUP6 PUSH2 0xF36 JUMP JUMPDEST DUP1 PUSH1 0x0 JUMPDEST DUP6 DUP2 LT ISZERO PUSH2 0x1040 JUMPI DUP5 DUP5 SUB DUP10 MSTORE DUP2 MLOAD PUSH2 0x1021 DUP6 DUP3 PUSH2 0xFBC JUMP JUMPDEST SWAP5 POP PUSH2 0x102C DUP4 PUSH2 0xFD0 JUMP JUMPDEST SWAP3 POP PUSH1 0x20 DUP11 ADD SWAP10 POP POP PUSH1 0x1 DUP2 ADD SWAP1 POP PUSH2 0x1008 JUMP JUMPDEST POP DUP3 SWAP8 POP DUP8 SWAP6 POP POP POP POP POP POP SWAP3 SWAP2 POP POP JUMP JUMPDEST PUSH1 0x0 PUSH1 0x20 DUP3 ADD SWAP1 POP DUP2 DUP2 SUB PUSH1 0x0 DUP4 ADD MSTORE PUSH2 0x106C DUP2 DUP5 PUSH2 0xFDD JUMP JUMPDEST SWAP1 POP SWAP3 SWAP2 POP POP JUMP JUMPDEST PUSH1 0x0 DUP3 DUP3 MSTORE PUSH1 0x20 DUP3 ADD SWAP1 POP SWAP3 SWAP2 POP POP JUMP JUMPDEST PUSH32 0x496E76616C69645F696E64657800000000000000000000000000000000000000 PUSH1 0x0 DUP3 ADD MSTORE POP JUMP JUMPDEST PUSH1 0x0 PUSH2 0x10BB PUSH1 0xD DUP4 PUSH2 0x1074 JUMP JUMPDEST SWAP2 POP PUSH2 0x10C6 DUP3 PUSH2 0x1085 JUMP JUMPDEST PUSH1 0x20 DUP3 ADD SWAP1 POP SWAP2 SWAP1 POP JUMP JUMPDEST PUSH1 0x0 PUSH1 0x20 DUP3 ADD SWAP1 POP DUP2 DUP2 SUB PUSH1 0x0 DUP4 ADD MSTORE PUSH2 0x10EA DUP2 PUSH2 0x10AE JUMP JUMPDEST SWAP1 POP SWAP2 SWAP1 POP JUMP JUMPDEST PUSH32 0x4E487B7100000000000000000000000000000000000000000000000000000000 PUSH1 0x0 MSTORE PUSH1 0x32 PUSH1 0x4 MSTORE PUSH1 0x24 PUSH1 0x0 REVERT JUMPDEST PUSH32 0x4E487B7100000000000000000000000000000000000000000000000000000000 PUSH1 0x0 MSTORE PUSH1 0x22 PUSH1 0x4 MSTORE PUSH1 0x24 PUSH1 0x0 REVERT JUMPDEST PUSH1 0x0 PUSH1 0x2 DUP3 DIV SWAP1 POP PUSH1 0x1 DUP3 AND DUP1 PUSH2 0x1167 JUMPI PUSH1 0x7F DUP3 AND SWAP2 POP JUMPDEST PUSH1 0x20 DUP3 LT DUP2 SUB PUSH2 0x117A JUMPI PUSH2 0x1179 PUSH2 0x1120 JUMP JUMPDEST JUMPDEST POP SWAP2 SWAP1 POP JUMP JUMPDEST PUSH1 0x0 DUP2 SWAP1 POP DUP2 PUSH1 0x0 MSTORE PUSH1 0x20 PUSH1 0x0 KECCAK256 SWAP1 POP SWAP2 SWAP1 POP JUMP JUMPDEST PUSH1 0x0 PUSH1 0x20 PUSH1 0x1F DUP4 ADD DIV SWAP1 POP SWAP2 SWAP1 POP JUMP JUMPDEST PUSH1 0x0 DUP3 DUP3 SHL SWAP1 POP SWAP3 SWAP2 POP POP JUMP JUMPDEST PUSH1 0x0 PUSH1 0x8 DUP4 MUL PUSH2 0x11E2 PUSH32 0xFFFFFFFFFFFFFFFFFFFFFFFFFFFFFFFFFFFFFFFFFFFFFFFFFFFFFFFFFFFFFFFF DUP3 PUSH2 0x11A5 JUMP JUMPDEST PUSH2 0x11EC DUP7 DUP4 PUSH2 0x11A5 JUMP JUMPDEST SWAP6 POP DUP1 NOT DUP5 AND SWAP4 POP DUP1 DUP7 AND DUP5 OR SWAP3 POP POP POP SWAP4 SWAP3 POP POP POP JUMP JUMPDEST PUSH1 0x0 DUP2 SWAP1 POP SWAP2 SWAP1 POP JUMP JUMPDEST PUSH1 0x0 PUSH2 0x1229 PUSH2 0x1224 PUSH2 0x121F DUP5 PUSH2 0x988 JUMP JUMPDEST PUSH2 0x1204 JUMP JUMPDEST PUSH2 0x988 JUMP JUMPDEST SWAP1 POP SWAP2 SWAP1 POP JUMP JUMPDEST PUSH1 0x0 DUP2 SWAP1 POP SWAP2 SWAP1 POP JUMP JUMPDEST PUSH2 0x1243 DUP4 PUSH2 0x120E JUMP JUMPDEST PUSH2 0x1257 PUSH2 0x124F DUP3 PUSH2 0x1230 JUMP JUMPDEST DUP5 DUP5 SLOAD PUSH2 0x11B2 JUMP JUMPDEST DUP3 SSTORE POP POP POP POP JUMP JUMPDEST PUSH1 0x0 SWAP1 JUMP JUMPDEST PUSH2 0x126C PUSH2 0x125F JUMP JUMPDEST PUSH2 0x1277 DUP2 DUP5 DUP5 PUSH2 0x123A JUMP JUMPDEST POP POP POP JUMP JUMPDEST JUMPDEST DUP2 DUP2 LT ISZERO PUSH2 0x129B JUMPI PUSH2 0x1290 PUSH1 0x0 DUP3 PUSH2 0x1264 JUMP JUMPDEST PUSH1 0x1 DUP2 ADD SWAP1 POP PUSH2 0x127D JUMP JUMPDEST POP POP JUMP JUMPDEST PUSH1 0x1F DUP3 GT ISZERO PUSH2 0x12E0 JUMPI PUSH2 0x12B1 DUP2 PUSH2 0x1180 JUMP JUMPDEST PUSH2 0x12BA DUP5 PUSH2 0x1195 JUMP JUMPDEST DUP2 ADD PUSH1 0x20 DUP6 LT ISZERO PUSH2 0x12C9 JUMPI DUP2 SWAP1 POP JUMPDEST PUSH2 0x12DD PUSH2 0x12D5 DUP6 PUSH2 0x1195 JUMP JUMPDEST DUP4 ADD DUP3 PUSH2 0x127C JUMP JUMPDEST POP POP JUMPDEST POP POP POP JUMP JUMPDEST PUSH1 0x0 DUP3 DUP3 SHR SWAP1 POP SWAP3 SWAP2 POP POP JUMP JUMPDEST PUSH1 0x0 PUSH2 0x1303 PUSH1 0x0 NOT DUP5 PUSH1 0x8 MUL PUSH2 0x12E5 JUMP JUMPDEST NOT DUP1 DUP4 AND SWAP2 POP POP SWAP3 SWAP2 POP POP JUMP JUMPDEST PUSH1 0x0 PUSH2 0x131C DUP4 DUP4 PUSH2 0x12F2 JUMP JUMPDEST SWAP2 POP DUP3 PUSH1 0x2 MUL DUP3 OR SWAP1 POP SWAP3 SWAP2 POP POP JUMP JUMPDEST PUSH2 0x1335 DUP3 PUSH2 0xCD5 JUMP JUMPDEST PUSH8 0xFFFFFFFFFFFFFFFF DUP2 GT ISZERO PUSH2 0x134E JUMPI PUSH2 0x134D PUSH2 0xA7E JUMP JUMPDEST JUMPDEST PUSH2 0x1358 DUP3 SLOAD PUSH2 0x114F JUMP JUMPDEST PUSH2 0x1363 DUP3 DUP3 DUP6 PUSH2 0x129F JUMP JUMPDEST PUSH1 0x0 PUSH1 0x20 SWAP1 POP PUSH1 0x1F DUP4 GT PUSH1 0x1 DUP2 EQ PUSH2 0x1396 JUMPI PUSH1 0x0 DUP5 ISZERO PUSH2 0x1384 JUMPI DUP3 DUP8 ADD MLOAD SWAP1 POP JUMPDEST PUSH2 0x138E DUP6 DUP3 PUSH2 0x1310 JUMP JUMPDEST DUP7 SSTORE POP PUSH2 0x13F6 JUMP JUMPDEST PUSH1 0x1F NOT DUP5 AND PUSH2 0x13A4 DUP7 PUSH2 0x1180 JUMP JUMPDEST PUSH1 0x0 JUMPDEST DUP3 DUP2 LT ISZERO PUSH2 0x13CC JUMPI DUP5 DUP10 ADD MLOAD DUP3 SSTORE PUSH1 0x1 DUP3 ADD SWAP2 POP PUSH1 0x20 DUP6 ADD SWAP5 POP PUSH1 0x20 DUP2 ADD SWAP1 POP PUSH2 0x13A7 JUMP JUMPDEST DUP7 DUP4 LT ISZERO PUSH2 0x13E9 JUMPI DUP5 DUP10 ADD MLOAD PUSH2 0x13E5 PUSH1 0x1F DUP10 AND DUP3 PUSH2 0x12F2 JUMP JUMPDEST DUP4 SSTORE POP JUMPDEST PUSH1 0x1 PUSH1 0x2 DUP9 MUL ADD DUP9 SSTORE POP POP POP JUMPDEST POP POP POP POP POP POP JUMP JUMPDEST PUSH32 0x4E487B7100000000000000000000000000000000000000000000000000000000 PUSH1 0x0 MSTORE PUSH1 0x11 PUSH1 0x4 MSTORE PUSH1 0x24 PUSH1 0x0 REVERT JUMPDEST PUSH1 0x0 PUSH2 0x1438 DUP3 PUSH2 0x988 JUMP JUMPDEST SWAP2 POP PUSH32 0xFFFFFFFFFFFFFFFFFFFFFFFFFFFFFFFFFFFFFFFFFFFFFFFFFFFFFFFFFFFFFFFF DUP3 SUB PUSH2 0x146A JUMPI PUSH2 0x1469 PUSH2 0x13FE JUMP JUMPDEST JUMPDEST PUSH1 0x1 DUP3 ADD SWAP1 POP SWAP2 SWAP1 POP JUMP INVALID LOG2 PUSH5 0x6970667358 0x22 SLT KECCAK256 0xF6 0xC2 CODECOPY POP 0xD7 NUMBER SWAP1 SWAP4 ADDMOD 0xA6 0xCE 0xAA NUMBER STATICCALL 0xE4 GASLIMIT 0xC6 0xD4 PUSH19 0xE8612B96B3D34CBF3E39DF46A64736F6C6343 STOP ADDMOD SHR STOP CALLER "
        },
        "methodIdentifiers": {
          "deleteStudent(uint256)": "b645307d",
          "getAllStudents()": "e9e30927",
          "getStudentById(uint256)": "c8fb0793",
          "registerStudents(string,uint256,uint8)": "7bee4264",
          "updateStatus(uint256,uint8)": "3a1b3d31",
          "updateStudentAge(uint256,uint256)": "13a46f31",
          "updateStudentName(uint256,string)": "440dba6c",
          "updateStudentNameAndAge(uint256,string,uint256)": "e763c64d"
        }
      }
    }
  }
}