{
  "contracts/PayrollFactory.sol": {
    "PayrollFactory": {
      "abi": [
        {
          "anonymous": false,
          "inputs": [
            {
              "indexed": true,
              "internalType": "address",
              "name": "owner",
              "type": "address"
            },
            {
              "indexed": false,
              "internalType": "address",
              "name": "payrollAddress",
              "type": "address"
            }
          ],
          "name": "PayrollCreated",
          "type": "event"
        },
        {
          "inputs": [
            {
              "internalType": "uint256",
              "name": "",
              "type": "uint256"
            }
          ],
          "name": "allPayrolls",
          "outputs": [
            {
              "internalType": "address",
              "name": "",
              "type": "address"
            }
          ],
          "stateMutability": "view",
          "type": "function"
        },
        {
          "inputs": [],
          "name": "createPayroll",
          "outputs": [
            {
              "internalType": "address",
              "name": "",
              "type": "address"
            }
          ],
          "stateMutability": "nonpayable",
          "type": "function"
        },
        {
          "inputs": [
            {
              "internalType": "address",
              "name": "",
              "type": "address"
            },
            {
              "internalType": "uint256",
              "name": "",
              "type": "uint256"
            }
          ],
          "name": "createdBy",
          "outputs": [
            {
              "internalType": "address",
              "name": "",
              "type": "address"
            }
          ],
          "stateMutability": "view",
          "type": "function"
        },
        {
          "inputs": [],
          "name": "getAllPayrolls",
          "outputs": [
            {
              "internalType": "address[]",
              "name": "",
              "type": "address[]"
            }
          ],
          "stateMutability": "view",
          "type": "function"
        },
        {
          "inputs": [],
          "name": "getMyPayrolls",
          "outputs": [
            {
              "internalType": "address[]",
              "name": "",
              "type": "address[]"
            }
          ],
          "stateMutability": "view",
          "type": "function"
        }
      ],
      "evm": {
        "bytecode": {
          "linkReferences": {},
          "object": "6080604052348015600f57600080fd5b506121ff8061001f6000396000f3fe608060405234801561001057600080fd5b50600436106100575760003560e01c80634d3a2b161461005c5780636dbc9f421461007a578063912c6eaa146100aa578063f68def27146100c8578063f80364c7146100e6575b600080fd5b610064610116565b60405161007191906104d6565b60405180910390f35b610094600480360381019061008f919061052c565b6102a2565b6040516100a191906104d6565b60405180910390f35b6100b26102e1565b6040516100bf9190610617565b60405180910390f35b6100d061036f565b6040516100dd9190610617565b60405180910390f35b61010060048036038101906100fb9190610665565b61043a565b60405161010d91906104d6565b60405180910390f35b60008060405161012590610488565b604051809103906000f080158015610141573d6000803e3d6000fd5b50905060008190506000819080600181540180825580915050600190039060005260206000200160009091909190916101000a81548173ffffffffffffffffffffffffffffffffffffffff021916908373ffffffffffffffffffffffffffffffffffffffff160217905550600160003373ffffffffffffffffffffffffffffffffffffffff1673ffffffffffffffffffffffffffffffffffffffff168152602001908152602001600020819080600181540180825580915050600190039060005260206000200160009091909190916101000a81548173ffffffffffffffffffffffffffffffffffffffff021916908373ffffffffffffffffffffffffffffffffffffffff1602179055503373ffffffffffffffffffffffffffffffffffffffff167f35b0f6009ee0752df8ea670e46f05e1e4c7f96f834d990ecff094317d6784e188260405161029291906104d6565b60405180910390a2809250505090565b600081815481106102b257600080fd5b906000526020600020016000915054906101000a900473ffffffffffffffffffffffffffffffffffffffff1681565b6060600080548060200260200160405190810160405280929190818152602001828054801561036557602002820191906000526020600020905b8160009054906101000a900473ffffffffffffffffffffffffffffffffffffffff1673ffffffffffffffffffffffffffffffffffffffff168152602001906001019080831161031b575b5050505050905090565b6060600160003373ffffffffffffffffffffffffffffffffffffffff1673ffffffffffffffffffffffffffffffffffffffff16815260200190815260200160002080548060200260200160405190810160405280929190818152602001828054801561043057602002820191906000526020600020905b8160009054906101000a900473ffffffffffffffffffffffffffffffffffffffff1673ffffffffffffffffffffffffffffffffffffffff16815260200190600101908083116103e6575b5050505050905090565b6001602052816000526040600020818154811061045657600080fd5b906000526020600020016000915091509054906101000a900473ffffffffffffffffffffffffffffffffffffffff1681565b611b24806106a683390190565b600073ffffffffffffffffffffffffffffffffffffffff82169050919050565b60006104c082610495565b9050919050565b6104d0816104b5565b82525050565b60006020820190506104eb60008301846104c7565b92915050565b600080fd5b6000819050919050565b610509816104f6565b811461051457600080fd5b50565b60008135905061052681610500565b92915050565b600060208284031215610542576105416104f1565b5b600061055084828501610517565b91505092915050565b600081519050919050565b600082825260208201905092915050565b6000819050602082019050919050565b61058e816104b5565b82525050565b60006105a08383610585565b60208301905092915050565b6000602082019050919050565b60006105c482610559565b6105ce8185610564565b93506105d983610575565b8060005b8381101561060a5781516105f18882610594565b97506105fc836105ac565b9250506001810190506105dd565b5085935050505092915050565b6000602082019050818103600083015261063181846105b9565b905092915050565b610642816104b5565b811461064d57600080fd5b50565b60008135905061065f81610639565b92915050565b6000806040838503121561067c5761067b6104f1565b5b600061068a85828601610650565b925050602061069b85828601610517565b915050925092905056fe6080604052336000806101000a81548173ffffffffffffffffffffffffffffffffffffffff021916908373ffffffffffffffffffffffffffffffffffffffff160217905550611ad1806100536000396000f3fe6080604052600436106100865760003560e01c8063340190ec11610059578063340190ec1461012457806336134e9a146101615780635f5152261461018a578063bee42c4e146101c7578063ddd795041461020457610086565b8063037c73c21461008b5780630b2c8ca7146100b65780630ca2a400146100df578063112b6f62146100fb575b600080fd5b34801561009757600080fd5b506100a0610243565b6040516100ad919061121f565b60405180910390f35b3480156100c257600080fd5b506100dd60048036038101906100d891906112b7565b6102d1565b005b6100f960048036038101906100f49190611335565b61031c565b005b34801561010757600080fd5b50610122600480360381019061011d9190611375565b61060e565b005b34801561013057600080fd5b5061014b60048036038101906101469190611375565b610870565b6040516101589190611432565b60405180910390f35b34801561016d57600080fd5b5061018860048036038101906101839190611589565b610c07565b005b34801561019657600080fd5b506101b160048036038101906101ac9190611375565b610e1c565b6040516101be9190611637565b60405180910390f35b3480156101d357600080fd5b506101ee60048036038101906101e99190611375565b610e3d565b6040516101fb919061166d565b60405180910390f35b34801561021057600080fd5b5061022b60048036038101906102269190611375565b610ea4565b60405161023a93929190611688565b60405180910390f35b606060038054806020026020016040519081016040528092919081815260200182805480156102c757602002820191906000526020600020905b8160009054906101000a900473ffffffffffffffffffffffffffffffffffffffff1673ffffffffffffffffffffffffffffffffffffffff168152602001906001019080831161027d575b5050505050905090565b80600160008473ffffffffffffffffffffffffffffffffffffffff1673ffffffffffffffffffffffffffffffffffffffff168152602001908152602001600020600301819055505050565b6000600160008473ffffffffffffffffffffffffffffffffffffffff1673ffffffffffffffffffffffffffffffffffffffff1681526020019081526020016000206040518060a00160405290816000820160009054906101000a900473ffffffffffffffffffffffffffffffffffffffff1673ffffffffffffffffffffffffffffffffffffffff1673ffffffffffffffffffffffffffffffffffffffff1681526020016001820180546103ce906116fc565b80601f01602080910402602001604051908101604052809291908181526020018280546103fa906116fc565b80156104475780601f1061041c57610100808354040283529160200191610447565b820191906000526020600020905b81548152906001019060200180831161042a57829003601f168201915b50505050508152602001600282018054610460906116fc565b80601f016020809104026020016040519081016040528092919081815260200182805461048c906116fc565b80156104d95780601f106104ae576101008083540402835291602001916104d9565b820191906000526020600020905b8154815290600101906020018083116104bc57829003601f168201915b50505050508152602001600382015481526020016004820160009054906101000a900460ff1660028111156105115761051061172d565b5b60028111156105235761052261172d565b5b8152505090506000600281111561053d5761053c61172d565b5b816080015160028111156105545761055361172d565b5b1480156105645750806060015182145b15610609578273ffffffffffffffffffffffffffffffffffffffff166108fc839081150290604051600060405180830381858888f193505050501580156105af573d6000803e3d6000fd5b506001600260008573ffffffffffffffffffffffffffffffffffffffff1673ffffffffffffffffffffffffffffffffffffffff16815260200190815260200160002060006101000a81548160ff0219169083151502179055505b505050565b60005b60038054905081101561083a578173ffffffffffffffffffffffffffffffffffffffff16600382815481106106495761064861175c565b5b9060005260206000200160009054906101000a900473ffffffffffffffffffffffffffffffffffffffff1673ffffffffffffffffffffffffffffffffffffffff160361082d57600360016003805490506106a391906117ba565b815481106106b4576106b361175c565b5b9060005260206000200160009054906101000a900473ffffffffffffffffffffffffffffffffffffffff16600382815481106106f3576106f261175c565b5b9060005260206000200160006101000a81548173ffffffffffffffffffffffffffffffffffffffff021916908373ffffffffffffffffffffffffffffffffffffffff160217905550600380548061074d5761074c6117ee565b5b6001900381819060005260206000200160006101000a81549073ffffffffffffffffffffffffffffffffffffffff02191690559055600160008373ffffffffffffffffffffffffffffffffffffffff1673ffffffffffffffffffffffffffffffffffffffff168152602001908152602001600020600080820160006101000a81549073ffffffffffffffffffffffffffffffffffffffff02191690556001820160006107f991906110d2565b60028201600061080991906110d2565b60038201600090556004820160006101000a81549060ff021916905550505061086d565b8080600101915050610611565b506040517f920804ea00000000000000000000000000000000000000000000000000000000815260040160405180910390fd5b50565b60606000600160008473ffffffffffffffffffffffffffffffffffffffff1673ffffffffffffffffffffffffffffffffffffffff1681526020019081526020016000206040518060a00160405290816000820160009054906101000a900473ffffffffffffffffffffffffffffffffffffffff1673ffffffffffffffffffffffffffffffffffffffff1673ffffffffffffffffffffffffffffffffffffffff168152602001600182018054610924906116fc565b80601f0160208091040260200160405190810160405280929190818152602001828054610950906116fc565b801561099d5780601f106109725761010080835404028352916020019161099d565b820191906000526020600020905b81548152906001019060200180831161098057829003601f168201915b505050505081526020016002820180546109b6906116fc565b80601f01602080910402602001604051908101604052809291908181526020018280546109e2906116fc565b8015610a2f5780601f10610a0457610100808354040283529160200191610a2f565b820191906000526020600020905b815481529060010190602001808311610a1257829003601f168201915b50505050508152602001600382015481526020016004820160009054906101000a900460ff166002811115610a6757610a6661172d565b5b6002811115610a7957610a7861172d565b5b81525050905060006002811115610a9357610a9261172d565b5b81608001516002811115610aaa57610aa961172d565b5b03610aed576040518060400160405280600881526020017f456d706c6f796564000000000000000000000000000000000000000000000000815250915050610c02565b60016002811115610b0157610b0061172d565b5b81608001516002811115610b1857610b1761172d565b5b03610b5b576040518060400160405280600a81526020017f556e656d706c6f79656400000000000000000000000000000000000000000000815250915050610c02565b600280811115610b6e57610b6d61172d565b5b81608001516002811115610b8557610b8461172d565b5b03610bc8576040518060400160405280600981526020017f50726f626174696f6e0000000000000000000000000000000000000000000000815250915050610c02565b6040518060400160405280600781526020017f556e6b6e6f776e000000000000000000000000000000000000000000000000008152509150505b919050565b60006040518060a001604052808673ffffffffffffffffffffffffffffffffffffffff16815260200185815260200184815260200183815260200160006002811115610c5657610c5561172d565b5b815250905080600160008773ffffffffffffffffffffffffffffffffffffffff1673ffffffffffffffffffffffffffffffffffffffff16815260200190815260200160002060008201518160000160006101000a81548173ffffffffffffffffffffffffffffffffffffffff021916908373ffffffffffffffffffffffffffffffffffffffff1602179055506020820151816001019081610cf791906119c9565b506040820151816002019081610d0d91906119c9565b506060820151816003015560808201518160040160006101000a81548160ff02191690836002811115610d4357610d4261172d565b5b021790555090505060006002811115610d5f57610d5e61172d565b5b81608001516002811115610d7657610d7561172d565b5b03610de4576003859080600181540180825580915050600190039060005260206000200160009091909190916101000a81548173ffffffffffffffffffffffffffffffffffffffff021916908373ffffffffffffffffffffffffffffffffffffffff16021790555050610e16565b6040517fcd5be70e00000000000000000000000000000000000000000000000000000000815260040160405180910390fd5b50505050565b60008173ffffffffffffffffffffffffffffffffffffffff16319050919050565b6000600260008373ffffffffffffffffffffffffffffffffffffffff1673ffffffffffffffffffffffffffffffffffffffff16815260200190815260200160002060009054906101000a900460ff1615610e9a5760019050610e9f565b600090505b919050565b606080600080600160008673ffffffffffffffffffffffffffffffffffffffff1673ffffffffffffffffffffffffffffffffffffffff1681526020019081526020016000206040518060a00160405290816000820160009054906101000a900473ffffffffffffffffffffffffffffffffffffffff1673ffffffffffffffffffffffffffffffffffffffff1673ffffffffffffffffffffffffffffffffffffffff168152602001600182018054610f5a906116fc565b80601f0160208091040260200160405190810160405280929190818152602001828054610f86906116fc565b8015610fd35780601f10610fa857610100808354040283529160200191610fd3565b820191906000526020600020905b815481529060010190602001808311610fb657829003601f168201915b50505050508152602001600282018054610fec906116fc565b80601f0160208091040260200160405190810160405280929190818152602001828054611018906116fc565b80156110655780601f1061103a57610100808354040283529160200191611065565b820191906000526020600020905b81548152906001019060200180831161104857829003601f168201915b50505050508152602001600382015481526020016004820160009054906101000a900460ff16600281111561109d5761109c61172d565b5b60028111156110af576110ae61172d565b5b815250509050806020015181604001518260600151935093509350509193909250565b5080546110de906116fc565b6000825580601f106110f0575061110f565b601f01602090049060005260206000209081019061110e9190611112565b5b50565b5b8082111561112b576000816000905550600101611113565b5090565b600081519050919050565b600082825260208201905092915050565b6000819050602082019050919050565b600073ffffffffffffffffffffffffffffffffffffffff82169050919050565b60006111868261115b565b9050919050565b6111968161117b565b82525050565b60006111a8838361118d565b60208301905092915050565b6000602082019050919050565b60006111cc8261112f565b6111d6818561113a565b93506111e18361114b565b8060005b838110156112125781516111f9888261119c565b9750611204836111b4565b9250506001810190506111e5565b5085935050505092915050565b6000602082019050818103600083015261123981846111c1565b905092915050565b6000604051905090565b600080fd5b600080fd5b61125e8161117b565b811461126957600080fd5b50565b60008135905061127b81611255565b92915050565b6000819050919050565b61129481611281565b811461129f57600080fd5b50565b6000813590506112b18161128b565b92915050565b600080604083850312156112ce576112cd61124b565b5b60006112dc8582860161126c565b92505060206112ed858286016112a2565b9150509250929050565b60006113028261115b565b9050919050565b611312816112f7565b811461131d57600080fd5b50565b60008135905061132f81611309565b92915050565b6000806040838503121561134c5761134b61124b565b5b600061135a85828601611320565b925050602061136b858286016112a2565b9150509250929050565b60006020828403121561138b5761138a61124b565b5b60006113998482850161126c565b91505092915050565b600081519050919050565b600082825260208201905092915050565b60005b838110156113dc5780820151818401526020810190506113c1565b60008484015250505050565b6000601f19601f8301169050919050565b6000611404826113a2565b61140e81856113ad565b935061141e8185602086016113be565b611427816113e8565b840191505092915050565b6000602082019050818103600083015261144c81846113f9565b905092915050565b600080fd5b600080fd5b7f4e487b7100000000000000000000000000000000000000000000000000000000600052604160045260246000fd5b611496826113e8565b810181811067ffffffffffffffff821117156114b5576114b461145e565b5b80604052505050565b60006114c8611241565b90506114d4828261148d565b919050565b600067ffffffffffffffff8211156114f4576114f361145e565b5b6114fd826113e8565b9050602081019050919050565b82818337600083830152505050565b600061152c611527846114d9565b6114be565b90508281526020810184848401111561154857611547611459565b5b61155384828561150a565b509392505050565b600082601f8301126115705761156f611454565b5b8135611580848260208601611519565b91505092915050565b600080600080608085870312156115a3576115a261124b565b5b60006115b18782880161126c565b945050602085013567ffffffffffffffff8111156115d2576115d1611250565b5b6115de8782880161155b565b935050604085013567ffffffffffffffff8111156115ff576115fe611250565b5b61160b8782880161155b565b925050606061161c878288016112a2565b91505092959194509250565b61163181611281565b82525050565b600060208201905061164c6000830184611628565b92915050565b60008115159050919050565b61166781611652565b82525050565b6000602082019050611682600083018461165e565b92915050565b600060608201905081810360008301526116a281866113f9565b905081810360208301526116b681856113f9565b90506116c56040830184611628565b949350505050565b7f4e487b7100000000000000000000000000000000000000000000000000000000600052602260045260246000fd5b6000600282049050600182168061171457607f821691505b602082108103611727576117266116cd565b5b50919050565b7f4e487b7100000000000000000000000000000000000000000000000000000000600052602160045260246000fd5b7f4e487b7100000000000000000000000000000000000000000000000000000000600052603260045260246000fd5b7f4e487b7100000000000000000000000000000000000000000000000000000000600052601160045260246000fd5b60006117c582611281565b91506117d083611281565b92508282039050818111156117e8576117e761178b565b5b92915050565b7f4e487b7100000000000000000000000000000000000000000000000000000000600052603160045260246000fd5b60008190508160005260206000209050919050565b60006020601f8301049050919050565b600082821b905092915050565b60006008830261187f7fffffffffffffffffffffffffffffffffffffffffffffffffffffffffffffffff82611842565b6118898683611842565b95508019841693508086168417925050509392505050565b6000819050919050565b60006118c66118c16118bc84611281565b6118a1565b611281565b9050919050565b6000819050919050565b6118e0836118ab565b6118f46118ec826118cd565b84845461184f565b825550505050565b600090565b6119096118fc565b6119148184846118d7565b505050565b5b818110156119385761192d600082611901565b60018101905061191a565b5050565b601f82111561197d5761194e8161181d565b61195784611832565b81016020851015611966578190505b61197a61197285611832565b830182611919565b50505b505050565b600082821c905092915050565b60006119a060001984600802611982565b1980831691505092915050565b60006119b9838361198f565b9150826002028217905092915050565b6119d2826113a2565b67ffffffffffffffff8111156119eb576119ea61145e565b5b6119f582546116fc565b611a0082828561193c565b600060209050601f831160018114611a335760008415611a21578287015190505b611a2b85826119ad565b865550611a93565b601f198416611a418661181d565b60005b82811015611a6957848901518255600182019150602085019450602081019050611a44565b86831015611a865784890151611a82601f89168261198f565b8355505b6001600288020188555050505b50505050505056fea26469706673582212206cce063a932df5435fe00d4436688cbf796ef7087ecb676d06118ae2dff9329f64736f6c634300081e0033a26469706673582212200d06f001f7368d15ed235f3815ba46e820a5e2607b443283809f08b63792f06264736f6c634300081e0033",
          "opcodes": "PUSH1 0x80 PUSH1 0x40 MSTORE CALLVALUE DUP1 ISZERO PUSH1 0xF JUMPI PUSH1 0x0 DUP1 REVERT JUMPDEST POP PUSH2 0x21FF DUP1 PUSH2 0x1F PUSH1 0x0 CODECOPY PUSH1 0x0 RETURN INVALID PUSH1 0x80 PUSH1 0x40 MSTORE CALLVALUE DUP1 ISZERO PUSH2 0x10 JUMPI PUSH1 0x0 DUP1 REVERT JUMPDEST POP PUSH1 0x4 CALLDATASIZE LT PUSH2 0x57 JUMPI PUSH1 0x0 CALLDATALOAD PUSH1 0xE0 SHR DUP1 PUSH4 0x4D3A2B16 EQ PUSH2 0x5C JUMPI DUP1 PUSH4 0x6DBC9F42 EQ PUSH2 0x7A JUMPI DUP1 PUSH4 0x912C6EAA EQ PUSH2 0xAA JUMPI DUP1 PUSH4 0xF68DEF27 EQ PUSH2 0xC8 JUMPI DUP1 PUSH4 0xF80364C7 EQ PUSH2 0xE6 JUMPI JUMPDEST PUSH1 0x0 DUP1 REVERT JUMPDEST PUSH2 0x64 PUSH2 0x116 JUMP JUMPDEST PUSH1 0x40 MLOAD PUSH2 0x71 SWAP2 SWAP1 PUSH2 0x4D6 JUMP JUMPDEST PUSH1 0x40 MLOAD DUP1 SWAP2 SUB SWAP1 RETURN JUMPDEST PUSH2 0x94 PUSH1 0x4 DUP1 CALLDATASIZE SUB DUP2 ADD SWAP1 PUSH2 0x8F SWAP2 SWAP1 PUSH2 0x52C JUMP JUMPDEST PUSH2 0x2A2 JUMP JUMPDEST PUSH1 0x40 MLOAD PUSH2 0xA1 SWAP2 SWAP1 PUSH2 0x4D6 JUMP JUMPDEST PUSH1 0x40 MLOAD DUP1 SWAP2 SUB SWAP1 RETURN JUMPDEST PUSH2 0xB2 PUSH2 0x2E1 JUMP JUMPDEST PUSH1 0x40 MLOAD PUSH2 0xBF SWAP2 SWAP1 PUSH2 0x617 JUMP JUMPDEST PUSH1 0x40 MLOAD DUP1 SWAP2 SUB SWAP1 RETURN JUMPDEST PUSH2 0xD0 PUSH2 0x36F JUMP JUMPDEST PUSH1 0x40 MLOAD PUSH2 0xDD SWAP2 SWAP1 PUSH2 0x617 JUMP JUMPDEST PUSH1 0x40 MLOAD DUP1 SWAP2 SUB SWAP1 RETURN JUMPDEST PUSH2 0x100 PUSH1 0x4 DUP1 CALLDATASIZE SUB DUP2 ADD SWAP1 PUSH2 0xFB SWAP2 SWAP1 PUSH2 0x665 JUMP JUMPDEST PUSH2 0x43A JUMP JUMPDEST PUSH1 0x40 MLOAD PUSH2 0x10D SWAP2 SWAP1 PUSH2 0x4D6 JUMP JUMPDEST PUSH1 0x40 MLOAD DUP1 SWAP2 SUB SWAP1 RETURN JUMPDEST PUSH1 0x0 DUP1 PUSH1 0x40 MLOAD PUSH2 0x125 SWAP1 PUSH2 0x488 JUMP JUMPDEST PUSH1 0x40 MLOAD DUP1 SWAP2 SUB SWAP1 PUSH1 0x0 CREATE DUP1 ISZERO DUP1 ISZERO PUSH2 0x141 JUMPI RETURNDATASIZE PUSH1 0x0 DUP1 RETURNDATACOPY RETURNDATASIZE PUSH1 0x0 REVERT JUMPDEST POP SWAP1 POP PUSH1 0x0 DUP2 SWAP1 POP PUSH1 0x0 DUP2 SWAP1 DUP1 PUSH1 0x1 DUP2 SLOAD ADD DUP1 DUP3 SSTORE DUP1 SWAP2 POP POP PUSH1 0x1 SWAP1 SUB SWAP1 PUSH1 0x0 MSTORE PUSH1 0x20 PUSH1 0x0 KECCAK256 ADD PUSH1 0x0 SWAP1 SWAP2 SWAP1 SWAP2 SWAP1 SWAP2 PUSH2 0x100 EXP DUP2 SLOAD DUP2 PUSH20 0xFFFFFFFFFFFFFFFFFFFFFFFFFFFFFFFFFFFFFFFF MUL NOT AND SWAP1 DUP4 PUSH20 0xFFFFFFFFFFFFFFFFFFFFFFFFFFFFFFFFFFFFFFFF AND MUL OR SWAP1 SSTORE POP PUSH1 0x1 PUSH1 0x0 CALLER PUSH20 0xFFFFFFFFFFFFFFFFFFFFFFFFFFFFFFFFFFFFFFFF AND PUSH20 0xFFFFFFFFFFFFFFFFFFFFFFFFFFFFFFFFFFFFFFFF AND DUP2 MSTORE PUSH1 0x20 ADD SWAP1 DUP2 MSTORE PUSH1 0x20 ADD PUSH1 0x0 KECCAK256 DUP2 SWAP1 DUP1 PUSH1 0x1 DUP2 SLOAD ADD DUP1 DUP3 SSTORE DUP1 SWAP2 POP POP PUSH1 0x1 SWAP1 SUB SWAP1 PUSH1 0x0 MSTORE PUSH1 0x20 PUSH1 0x0 KECCAK256 ADD PUSH1 0x0 SWAP1 SWAP2 SWAP1 SWAP2 SWAP1 SWAP2 PUSH2 0x100 EXP DUP2 SLOAD DUP2 PUSH20 0xFFFFFFFFFFFFFFFFFFFFFFFFFFFFFFFFFFFFFFFF MUL NOT AND SWAP1 DUP4 PUSH20 0xFFFFFFFFFFFFFFFFFFFFFFFFFFFFFFFFFFFFFFFF AND MUL OR SWAP1 SSTORE POP CALLER PUSH20 0xFFFFFFFFFFFFFFFFFFFFFFFFFFFFFFFFFFFFFFFF AND PUSH32 0x35B0F6009EE0752DF8EA670E46F05E1E4C7F96F834D990ECFF094317D6784E18 DUP3 PUSH1 0x40 MLOAD PUSH2 0x292 SWAP2 SWAP1 PUSH2 0x4D6 JUMP JUMPDEST PUSH1 0x40 MLOAD DUP1 SWAP2 SUB SWAP1 LOG2 DUP1 SWAP3 POP POP POP SWAP1 JUMP JUMPDEST PUSH1 0x0 DUP2 DUP2 SLOAD DUP2 LT PUSH2 0x2B2 JUMPI PUSH1 0x0 DUP1 REVERT JUMPDEST SWAP1 PUSH1 0x0 MSTORE PUSH1 0x20 PUSH1 0x0 KECCAK256 ADD PUSH1 0x0 SWAP2 POP SLOAD SWAP1 PUSH2 0x100 EXP SWAP1 DIV PUSH20 0xFFFFFFFFFFFFFFFFFFFFFFFFFFFFFFFFFFFFFFFF AND DUP2 JUMP JUMPDEST PUSH1 0x60 PUSH1 0x0 DUP1 SLOAD DUP1 PUSH1 0x20 MUL PUSH1 0x20 ADD PUSH1 0x40 MLOAD SWAP1 DUP2 ADD PUSH1 0x40 MSTORE DUP1 SWAP3 SWAP2 SWAP1 DUP2 DUP2 MSTORE PUSH1 0x20 ADD DUP3 DUP1 SLOAD DUP1 ISZERO PUSH2 0x365 JUMPI PUSH1 0x20 MUL DUP3 ADD SWAP2 SWAP1 PUSH1 0x0 MSTORE PUSH1 0x20 PUSH1 0x0 KECCAK256 SWAP1 JUMPDEST DUP2 PUSH1 0x0 SWAP1 SLOAD SWAP1 PUSH2 0x100 EXP SWAP1 DIV PUSH20 0xFFFFFFFFFFFFFFFFFFFFFFFFFFFFFFFFFFFFFFFF AND PUSH20 0xFFFFFFFFFFFFFFFFFFFFFFFFFFFFFFFFFFFFFFFF AND DUP2 MSTORE PUSH1 0x20 ADD SWAP1 PUSH1 0x1 ADD SWAP1 DUP1 DUP4 GT PUSH2 0x31B JUMPI JUMPDEST POP POP POP POP POP SWAP1 POP SWAP1 JUMP JUMPDEST PUSH1 0x60 PUSH1 0x1 PUSH1 0x0 CALLER PUSH20 0xFFFFFFFFFFFFFFFFFFFFFFFFFFFFFFFFFFFFFFFF AND PUSH20 0xFFFFFFFFFFFFFFFFFFFFFFFFFFFFFFFFFFFFFFFF AND DUP2 MSTORE PUSH1 0x20 ADD SWAP1 DUP2 MSTORE PUSH1 0x20 ADD PUSH1 0x0 KECCAK256 DUP1 SLOAD DUP1 PUSH1 0x20 MUL PUSH1 0x20 ADD PUSH1 0x40 MLOAD SWAP1 DUP2 ADD PUSH1 0x40 MSTORE DUP1 SWAP3 SWAP2 SWAP1 DUP2 DUP2 MSTORE PUSH1 0x20 ADD DUP3 DUP1 SLOAD DUP1 ISZERO PUSH2 0x430 JUMPI PUSH1 0x20 MUL DUP3 ADD SWAP2 SWAP1 PUSH1 0x0 MSTORE PUSH1 0x20 PUSH1 0x0 KECCAK256 SWAP1 JUMPDEST DUP2 PUSH1 0x0 SWAP1 SLOAD SWAP1 PUSH2 0x100 EXP SWAP1 DIV PUSH20 0xFFFFFFFFFFFFFFFFFFFFFFFFFFFFFFFFFFFFFFFF AND PUSH20 0xFFFFFFFFFFFFFFFFFFFFFFFFFFFFFFFFFFFFFFFF AND DUP2 MSTORE PUSH1 0x20 ADD SWAP1 PUSH1 0x1 ADD SWAP1 DUP1 DUP4 GT PUSH2 0x3E6 JUMPI JUMPDEST POP POP POP POP POP SWAP1 POP SWAP1 JUMP JUMPDEST PUSH1 0x1 PUSH1 0x20 MSTORE DUP2 PUSH1 0x0 MSTORE PUSH1 0x40 PUSH1 0x0 KECCAK256 DUP2 DUP2 SLOAD DUP2 LT PUSH2 0x456 JUMPI PUSH1 0x0 DUP1 REVERT JUMPDEST SWAP1 PUSH1 0x0 MSTORE PUSH1 0x20 PUSH1 0x0 KECCAK256 ADD PUSH1 0x0 SWAP2 POP SWAP2 POP SWAP1 SLOAD SWAP1 PUSH2 0x100 EXP SWAP1 DIV PUSH20 0xFFFFFFFFFFFFFFFFFFFFFFFFFFFFFFFFFFFFFFFF AND DUP2 JUMP JUMPDEST PUSH2 0x1B24 DUP1 PUSH2 0x6A6 DUP4 CODECOPY ADD SWAP1 JUMP JUMPDEST PUSH1 0x0 PUSH20 0xFFFFFFFFFFFFFFFFFFFFFFFFFFFFFFFFFFFFFFFF DUP3 AND SWAP1 POP SWAP2 SWAP1 POP JUMP JUMPDEST PUSH1 0x0 PUSH2 0x4C0 DUP3 PUSH2 0x495 JUMP JUMPDEST SWAP1 POP SWAP2 SWAP1 POP JUMP JUMPDEST PUSH2 0x4D0 DUP2 PUSH2 0x4B5 JUMP JUMPDEST DUP3 MSTORE POP POP JUMP JUMPDEST PUSH1 0x0 PUSH1 0x20 DUP3 ADD SWAP1 POP PUSH2 0x4EB PUSH1 0x0 DUP4 ADD DUP5 PUSH2 0x4C7 JUMP JUMPDEST SWAP3 SWAP2 POP POP JUMP JUMPDEST PUSH1 0x0 DUP1 REVERT JUMPDEST PUSH1 0x0 DUP2 SWAP1 POP SWAP2 SWAP1 POP JUMP JUMPDEST PUSH2 0x509 DUP2 PUSH2 0x4F6 JUMP JUMPDEST DUP2 EQ PUSH2 0x514 JUMPI PUSH1 0x0 DUP1 REVERT JUMPDEST POP JUMP JUMPDEST PUSH1 0x0 DUP2 CALLDATALOAD SWAP1 POP PUSH2 0x526 DUP2 PUSH2 0x500 JUMP JUMPDEST SWAP3 SWAP2 POP POP JUMP JUMPDEST PUSH1 0x0 PUSH1 0x20 DUP3 DUP5 SUB SLT ISZERO PUSH2 0x542 JUMPI PUSH2 0x541 PUSH2 0x4F1 JUMP JUMPDEST JUMPDEST PUSH1 0x0 PUSH2 0x550 DUP5 DUP3 DUP6 ADD PUSH2 0x517 JUMP JUMPDEST SWAP2 POP POP SWAP3 SWAP2 POP POP JUMP JUMPDEST PUSH1 0x0 DUP2 MLOAD SWAP1 POP SWAP2 SWAP1 POP JUMP JUMPDEST PUSH1 0x0 DUP3 DUP3 MSTORE PUSH1 0x20 DUP3 ADD SWAP1 POP SWAP3 SWAP2 POP POP JUMP JUMPDEST PUSH1 0x0 DUP2 SWAP1 POP PUSH1 0x20 DUP3 ADD SWAP1 POP SWAP2 SWAP1 POP JUMP JUMPDEST PUSH2 0x58E DUP2 PUSH2 0x4B5 JUMP JUMPDEST DUP3 MSTORE POP POP JUMP JUMPDEST PUSH1 0x0 PUSH2 0x5A0 DUP4 DUP4 PUSH2 0x585 JUMP JUMPDEST PUSH1 0x20 DUP4 ADD SWAP1 POP SWAP3 SWAP2 POP POP JUMP JUMPDEST PUSH1 0x0 PUSH1 0x20 DUP3 ADD SWAP1 POP SWAP2 SWAP1 POP JUMP JUMPDEST PUSH1 0x0 PUSH2 0x5C4 DUP3 PUSH2 0x559 JUMP JUMPDEST PUSH2 0x5CE DUP2 DUP6 PUSH2 0x564 JUMP JUMPDEST SWAP4 POP PUSH2 0x5D9 DUP4 PUSH2 0x575 JUMP JUMPDEST DUP1 PUSH1 0x0 JUMPDEST DUP4 DUP2 LT ISZERO PUSH2 0x60A JUMPI DUP2 MLOAD PUSH2 0x5F1 DUP9 DUP3 PUSH2 0x594 JUMP JUMPDEST SWAP8 POP PUSH2 0x5FC DUP4 PUSH2 0x5AC JUMP JUMPDEST SWAP3 POP POP PUSH1 0x1 DUP2 ADD SWAP1 POP PUSH2 0x5DD JUMP JUMPDEST POP DUP6 SWAP4 POP POP POP POP SWAP3 SWAP2 POP POP JUMP JUMPDEST PUSH1 0x0 PUSH1 0x20 DUP3 ADD SWAP1 POP DUP2 DUP2 SUB PUSH1 0x0 DUP4 ADD MSTORE PUSH2 0x631 DUP2 DUP5 PUSH2 0x5B9 JUMP JUMPDEST SWAP1 POP SWAP3 SWAP2 POP POP JUMP JUMPDEST PUSH2 0x642 DUP2 PUSH2 0x4B5 JUMP JUMPDEST DUP2 EQ PUSH2 0x64D JUMPI PUSH1 0x0 DUP1 REVERT JUMPDEST POP JUMP JUMPDEST PUSH1 0x0 DUP2 CALLDATALOAD SWAP1 POP PUSH2 0x65F DUP2 PUSH2 0x639 JUMP JUMPDEST SWAP3 SWAP2 POP POP JUMP JUMPDEST PUSH1 0x0 DUP1 PUSH1 0x40 DUP4 DUP6 SUB SLT ISZERO PUSH2 0x67C JUMPI PUSH2 0x67B PUSH2 0x4F1 JUMP JUMPDEST JUMPDEST PUSH1 0x0 PUSH2 0x68A DUP6 DUP3 DUP7 ADD PUSH2 0x650 JUMP JUMPDEST SWAP3 POP POP PUSH1 0x20 PUSH2 0x69B DUP6 DUP3 DUP7 ADD PUSH2 0x517 JUMP JUMPDEST SWAP2 POP POP SWAP3 POP SWAP3 SWAP1 POP JUMP INVALID PUSH1 0x80 PUSH1 0x40 MSTORE CALLER PUSH1 0x0 DUP1 PUSH2 0x100 EXP DUP2 SLOAD DUP2 PUSH20 0xFFFFFFFFFFFFFFFFFFFFFFFFFFFFFFFFFFFFFFFF MUL NOT AND SWAP1 DUP4 PUSH20 0xFFFFFFFFFFFFFFFFFFFFFFFFFFFFFFFFFFFFFFFF AND MUL OR SWAP1 SSTORE POP PUSH2 0x1AD1 DUP1 PUSH2 0x53 PUSH1 0x0 CODECOPY PUSH1 0x0 RETURN INVALID PUSH1 0x80 PUSH1 0x40 MSTORE PUSH1 0x4 CALLDATASIZE LT PUSH2 0x86 JUMPI PUSH1 0x0 CALLDATALOAD PUSH1 0xE0 SHR DUP1 PUSH4 0x340190EC GT PUSH2 0x59 JUMPI DUP1 PUSH4 0x340190EC EQ PUSH2 0x124 JUMPI DUP1 PUSH4 0x36134E9A EQ PUSH2 0x161 JUMPI DUP1 PUSH4 0x5F515226 EQ PUSH2 0x18A JUMPI DUP1 PUSH4 0xBEE42C4E EQ PUSH2 0x1C7 JUMPI DUP1 PUSH4 0xDDD79504 EQ PUSH2 0x204 JUMPI PUSH2 0x86 JUMP JUMPDEST DUP1 PUSH4 0x37C73C2 EQ PUSH2 0x8B JUMPI DUP1 PUSH4 0xB2C8CA7 EQ PUSH2 0xB6 JUMPI DUP1 PUSH4 0xCA2A400 EQ PUSH2 0xDF JUMPI DUP1 PUSH4 0x112B6F62 EQ PUSH2 0xFB JUMPI JUMPDEST PUSH1 0x0 DUP1 REVERT JUMPDEST CALLVALUE DUP1 ISZERO PUSH2 0x97 JUMPI PUSH1 0x0 DUP1 REVERT JUMPDEST POP PUSH2 0xA0 PUSH2 0x243 JUMP JUMPDEST PUSH1 0x40 MLOAD PUSH2 0xAD SWAP2 SWAP1 PUSH2 0x121F JUMP JUMPDEST PUSH1 0x40 MLOAD DUP1 SWAP2 SUB SWAP1 RETURN JUMPDEST CALLVALUE DUP1 ISZERO PUSH2 0xC2 JUMPI PUSH1 0x0 DUP1 REVERT JUMPDEST POP PUSH2 0xDD PUSH1 0x4 DUP1 CALLDATASIZE SUB DUP2 ADD SWAP1 PUSH2 0xD8 SWAP2 SWAP1 PUSH2 0x12B7 JUMP JUMPDEST PUSH2 0x2D1 JUMP JUMPDEST STOP JUMPDEST PUSH2 0xF9 PUSH1 0x4 DUP1 CALLDATASIZE SUB DUP2 ADD SWAP1 PUSH2 0xF4 SWAP2 SWAP1 PUSH2 0x1335 JUMP JUMPDEST PUSH2 0x31C JUMP JUMPDEST STOP JUMPDEST CALLVALUE DUP1 ISZERO PUSH2 0x107 JUMPI PUSH1 0x0 DUP1 REVERT JUMPDEST POP PUSH2 0x122 PUSH1 0x4 DUP1 CALLDATASIZE SUB DUP2 ADD SWAP1 PUSH2 0x11D SWAP2 SWAP1 PUSH2 0x1375 JUMP JUMPDEST PUSH2 0x60E JUMP JUMPDEST STOP JUMPDEST CALLVALUE DUP1 ISZERO PUSH2 0x130 JUMPI PUSH1 0x0 DUP1 REVERT JUMPDEST POP PUSH2 0x14B PUSH1 0x4 DUP1 CALLDATASIZE SUB DUP2 ADD SWAP1 PUSH2 0x146 SWAP2 SWAP1 PUSH2 0x1375 JUMP JUMPDEST PUSH2 0x870 JUMP JUMPDEST PUSH1 0x40 MLOAD PUSH2 0x158 SWAP2 SWAP1 PUSH2 0x1432 JUMP JUMPDEST PUSH1 0x40 MLOAD DUP1 SWAP2 SUB SWAP1 RETURN JUMPDEST CALLVALUE DUP1 ISZERO PUSH2 0x16D JUMPI PUSH1 0x0 DUP1 REVERT JUMPDEST POP PUSH2 0x188 PUSH1 0x4 DUP1 CALLDATASIZE SUB DUP2 ADD SWAP1 PUSH2 0x183 SWAP2 SWAP1 PUSH2 0x1589 JUMP JUMPDEST PUSH2 0xC07 JUMP JUMPDEST STOP JUMPDEST CALLVALUE DUP1 ISZERO PUSH2 0x196 JUMPI PUSH1 0x0 DUP1 REVERT JUMPDEST POP PUSH2 0x1B1 PUSH1 0x4 DUP1 CALLDATASIZE SUB DUP2 ADD SWAP1 PUSH2 0x1AC SWAP2 SWAP1 PUSH2 0x1375 JUMP JUMPDEST PUSH2 0xE1C JUMP JUMPDEST PUSH1 0x40 MLOAD PUSH2 0x1BE SWAP2 SWAP1 PUSH2 0x1637 JUMP JUMPDEST PUSH1 0x40 MLOAD DUP1 SWAP2 SUB SWAP1 RETURN JUMPDEST CALLVALUE DUP1 ISZERO PUSH2 0x1D3 JUMPI PUSH1 0x0 DUP1 REVERT JUMPDEST POP PUSH2 0x1EE PUSH1 0x4 DUP1 CALLDATASIZE SUB DUP2 ADD SWAP1 PUSH2 0x1E9 SWAP2 SWAP1 PUSH2 0x1375 JUMP JUMPDEST PUSH2 0xE3D JUMP JUMPDEST PUSH1 0x40 MLOAD PUSH2 0x1FB SWAP2 SWAP1 PUSH2 0x166D JUMP JUMPDEST PUSH1 0x40 MLOAD DUP1 SWAP2 SUB SWAP1 RETURN JUMPDEST CALLVALUE DUP1 ISZERO PUSH2 0x210 JUMPI PUSH1 0x0 DUP1 REVERT JUMPDEST POP PUSH2 0x22B PUSH1 0x4 DUP1 CALLDATASIZE SUB DUP2 ADD SWAP1 PUSH2 0x226 SWAP2 SWAP1 PUSH2 0x1375 JUMP JUMPDEST PUSH2 0xEA4 JUMP JUMPDEST PUSH1 0x40 MLOAD PUSH2 0x23A SWAP4 SWAP3 SWAP2 SWAP1 PUSH2 0x1688 JUMP JUMPDEST PUSH1 0x40 MLOAD DUP1 SWAP2 SUB SWAP1 RETURN JUMPDEST PUSH1 0x60 PUSH1 0x3 DUP1 SLOAD DUP1 PUSH1 0x20 MUL PUSH1 0x20 ADD PUSH1 0x40 MLOAD SWAP1 DUP2 ADD PUSH1 0x40 MSTORE DUP1 SWAP3 SWAP2 SWAP1 DUP2 DUP2 MSTORE PUSH1 0x20 ADD DUP3 DUP1 SLOAD DUP1 ISZERO PUSH2 0x2C7 JUMPI PUSH1 0x20 MUL DUP3 ADD SWAP2 SWAP1 PUSH1 0x0 MSTORE PUSH1 0x20 PUSH1 0x0 KECCAK256 SWAP1 JUMPDEST DUP2 PUSH1 0x0 SWAP1 SLOAD SWAP1 PUSH2 0x100 EXP SWAP1 DIV PUSH20 0xFFFFFFFFFFFFFFFFFFFFFFFFFFFFFFFFFFFFFFFF AND PUSH20 0xFFFFFFFFFFFFFFFFFFFFFFFFFFFFFFFFFFFFFFFF AND DUP2 MSTORE PUSH1 0x20 ADD SWAP1 PUSH1 0x1 ADD SWAP1 DUP1 DUP4 GT PUSH2 0x27D JUMPI JUMPDEST POP POP POP POP POP SWAP1 POP SWAP1 JUMP JUMPDEST DUP1 PUSH1 0x1 PUSH1 0x0 DUP5 PUSH20 0xFFFFFFFFFFFFFFFFFFFFFFFFFFFFFFFFFFFFFFFF AND PUSH20 0xFFFFFFFFFFFFFFFFFFFFFFFFFFFFFFFFFFFFFFFF AND DUP2 MSTORE PUSH1 0x20 ADD SWAP1 DUP2 MSTORE PUSH1 0x20 ADD PUSH1 0x0 KECCAK256 PUSH1 0x3 ADD DUP2 SWAP1 SSTORE POP POP POP JUMP JUMPDEST PUSH1 0x0 PUSH1 0x1 PUSH1 0x0 DUP5 PUSH20 0xFFFFFFFFFFFFFFFFFFFFFFFFFFFFFFFFFFFFFFFF AND PUSH20 0xFFFFFFFFFFFFFFFFFFFFFFFFFFFFFFFFFFFFFFFF AND DUP2 MSTORE PUSH1 0x20 ADD SWAP1 DUP2 MSTORE PUSH1 0x20 ADD PUSH1 0x0 KECCAK256 PUSH1 0x40 MLOAD DUP1 PUSH1 0xA0 ADD PUSH1 0x40 MSTORE SWAP1 DUP2 PUSH1 0x0 DUP3 ADD PUSH1 0x0 SWAP1 SLOAD SWAP1 PUSH2 0x100 EXP SWAP1 DIV PUSH20 0xFFFFFFFFFFFFFFFFFFFFFFFFFFFFFFFFFFFFFFFF AND PUSH20 0xFFFFFFFFFFFFFFFFFFFFFFFFFFFFFFFFFFFFFFFF AND PUSH20 0xFFFFFFFFFFFFFFFFFFFFFFFFFFFFFFFFFFFFFFFF AND DUP2 MSTORE PUSH1 0x20 ADD PUSH1 0x1 DUP3 ADD DUP1 SLOAD PUSH2 0x3CE SWAP1 PUSH2 0x16FC JUMP JUMPDEST DUP1 PUSH1 0x1F ADD PUSH1 0x20 DUP1 SWAP2 DIV MUL PUSH1 0x20 ADD PUSH1 0x40 MLOAD SWAP1 DUP2 ADD PUSH1 0x40 MSTORE DUP1 SWAP3 SWAP2 SWAP1 DUP2 DUP2 MSTORE PUSH1 0x20 ADD DUP3 DUP1 SLOAD PUSH2 0x3FA SWAP1 PUSH2 0x16FC JUMP JUMPDEST DUP1 ISZERO PUSH2 0x447 JUMPI DUP1 PUSH1 0x1F LT PUSH2 0x41C JUMPI PUSH2 0x100 DUP1 DUP4 SLOAD DIV MUL DUP4 MSTORE SWAP2 PUSH1 0x20 ADD SWAP2 PUSH2 0x447 JUMP JUMPDEST DUP3 ADD SWAP2 SWAP1 PUSH1 0x0 MSTORE PUSH1 0x20 PUSH1 0x0 KECCAK256 SWAP1 JUMPDEST DUP2 SLOAD DUP2 MSTORE SWAP1 PUSH1 0x1 ADD SWAP1 PUSH1 0x20 ADD DUP1 DUP4 GT PUSH2 0x42A JUMPI DUP3 SWAP1 SUB PUSH1 0x1F AND DUP3 ADD SWAP2 JUMPDEST POP POP POP POP POP DUP2 MSTORE PUSH1 0x20 ADD PUSH1 0x2 DUP3 ADD DUP1 SLOAD PUSH2 0x460 SWAP1 PUSH2 0x16FC JUMP JUMPDEST DUP1 PUSH1 0x1F ADD PUSH1 0x20 DUP1 SWAP2 DIV MUL PUSH1 0x20 ADD PUSH1 0x40 MLOAD SWAP1 DUP2 ADD PUSH1 0x40 MSTORE DUP1 SWAP3 SWAP2 SWAP1 DUP2 DUP2 MSTORE PUSH1 0x20 ADD DUP3 DUP1 SLOAD PUSH2 0x48C SWAP1 PUSH2 0x16FC JUMP JUMPDEST DUP1 ISZERO PUSH2 0x4D9 JUMPI DUP1 PUSH1 0x1F LT PUSH2 0x4AE JUMPI PUSH2 0x100 DUP1 DUP4 SLOAD DIV MUL DUP4 MSTORE SWAP2 PUSH1 0x20 ADD SWAP2 PUSH2 0x4D9 JUMP JUMPDEST DUP3 ADD SWAP2 SWAP1 PUSH1 0x0 MSTORE PUSH1 0x20 PUSH1 0x0 KECCAK256 SWAP1 JUMPDEST DUP2 SLOAD DUP2 MSTORE SWAP1 PUSH1 0x1 ADD SWAP1 PUSH1 0x20 ADD DUP1 DUP4 GT PUSH2 0x4BC JUMPI DUP3 SWAP1 SUB PUSH1 0x1F AND DUP3 ADD SWAP2 JUMPDEST POP POP POP POP POP DUP2 MSTORE PUSH1 0x20 ADD PUSH1 0x3 DUP3 ADD SLOAD DUP2 MSTORE PUSH1 0x20 ADD PUSH1 0x4 DUP3 ADD PUSH1 0x0 SWAP1 SLOAD SWAP1 PUSH2 0x100 EXP SWAP1 DIV PUSH1 0xFF AND PUSH1 0x2 DUP2 GT ISZERO PUSH2 0x511 JUMPI PUSH2 0x510 PUSH2 0x172D JUMP JUMPDEST JUMPDEST PUSH1 0x2 DUP2 GT ISZERO PUSH2 0x523 JUMPI PUSH2 0x522 PUSH2 0x172D JUMP JUMPDEST JUMPDEST DUP2 MSTORE POP POP SWAP1 POP PUSH1 0x0 PUSH1 0x2 DUP2 GT ISZERO PUSH2 0x53D JUMPI PUSH2 0x53C PUSH2 0x172D JUMP JUMPDEST JUMPDEST DUP2 PUSH1 0x80 ADD MLOAD PUSH1 0x2 DUP2 GT ISZERO PUSH2 0x554 JUMPI PUSH2 0x553 PUSH2 0x172D JUMP JUMPDEST JUMPDEST EQ DUP1 ISZERO PUSH2 0x564 JUMPI POP DUP1 PUSH1 0x60 ADD MLOAD DUP3 EQ JUMPDEST ISZERO PUSH2 0x609 JUMPI DUP3 PUSH20 0xFFFFFFFFFFFFFFFFFFFFFFFFFFFFFFFFFFFFFFFF AND PUSH2 0x8FC DUP4 SWAP1 DUP2 ISZERO MUL SWAP1 PUSH1 0x40 MLOAD PUSH1 0x0 PUSH1 0x40 MLOAD DUP1 DUP4 SUB DUP2 DUP6 DUP9 DUP9 CALL SWAP4 POP POP POP POP ISZERO DUP1 ISZERO PUSH2 0x5AF JUMPI RETURNDATASIZE PUSH1 0x0 DUP1 RETURNDATACOPY RETURNDATASIZE PUSH1 0x0 REVERT JUMPDEST POP PUSH1 0x1 PUSH1 0x2 PUSH1 0x0 DUP6 PUSH20 0xFFFFFFFFFFFFFFFFFFFFFFFFFFFFFFFFFFFFFFFF AND PUSH20 0xFFFFFFFFFFFFFFFFFFFFFFFFFFFFFFFFFFFFFFFF AND DUP2 MSTORE PUSH1 0x20 ADD SWAP1 DUP2 MSTORE PUSH1 0x20 ADD PUSH1 0x0 KECCAK256 PUSH1 0x0 PUSH2 0x100 EXP DUP2 SLOAD DUP2 PUSH1 0xFF MUL NOT AND SWAP1 DUP4 ISZERO ISZERO MUL OR SWAP1 SSTORE POP JUMPDEST POP POP POP JUMP JUMPDEST PUSH1 0x0 JUMPDEST PUSH1 0x3 DUP1 SLOAD SWAP1 POP DUP2 LT ISZERO PUSH2 0x83A JUMPI DUP2 PUSH20 0xFFFFFFFFFFFFFFFFFFFFFFFFFFFFFFFFFFFFFFFF AND PUSH1 0x3 DUP3 DUP2 SLOAD DUP2 LT PUSH2 0x649 JUMPI PUSH2 0x648 PUSH2 0x175C JUMP JUMPDEST JUMPDEST SWAP1 PUSH1 0x0 MSTORE PUSH1 0x20 PUSH1 0x0 KECCAK256 ADD PUSH1 0x0 SWAP1 SLOAD SWAP1 PUSH2 0x100 EXP SWAP1 DIV PUSH20 0xFFFFFFFFFFFFFFFFFFFFFFFFFFFFFFFFFFFFFFFF AND PUSH20 0xFFFFFFFFFFFFFFFFFFFFFFFFFFFFFFFFFFFFFFFF AND SUB PUSH2 0x82D JUMPI PUSH1 0x3 PUSH1 0x1 PUSH1 0x3 DUP1 SLOAD SWAP1 POP PUSH2 0x6A3 SWAP2 SWAP1 PUSH2 0x17BA JUMP JUMPDEST DUP2 SLOAD DUP2 LT PUSH2 0x6B4 JUMPI PUSH2 0x6B3 PUSH2 0x175C JUMP JUMPDEST JUMPDEST SWAP1 PUSH1 0x0 MSTORE PUSH1 0x20 PUSH1 0x0 KECCAK256 ADD PUSH1 0x0 SWAP1 SLOAD SWAP1 PUSH2 0x100 EXP SWAP1 DIV PUSH20 0xFFFFFFFFFFFFFFFFFFFFFFFFFFFFFFFFFFFFFFFF AND PUSH1 0x3 DUP3 DUP2 SLOAD DUP2 LT PUSH2 0x6F3 JUMPI PUSH2 0x6F2 PUSH2 0x175C JUMP JUMPDEST JUMPDEST SWAP1 PUSH1 0x0 MSTORE PUSH1 0x20 PUSH1 0x0 KECCAK256 ADD PUSH1 0x0 PUSH2 0x100 EXP DUP2 SLOAD DUP2 PUSH20 0xFFFFFFFFFFFFFFFFFFFFFFFFFFFFFFFFFFFFFFFF MUL NOT AND SWAP1 DUP4 PUSH20 0xFFFFFFFFFFFFFFFFFFFFFFFFFFFFFFFFFFFFFFFF AND MUL OR SWAP1 SSTORE POP PUSH1 0x3 DUP1 SLOAD DUP1 PUSH2 0x74D JUMPI PUSH2 0x74C PUSH2 0x17EE JUMP JUMPDEST JUMPDEST PUSH1 0x1 SWAP1 SUB DUP2 DUP2 SWAP1 PUSH1 0x0 MSTORE PUSH1 0x20 PUSH1 0x0 KECCAK256 ADD PUSH1 0x0 PUSH2 0x100 EXP DUP2 SLOAD SWAP1 PUSH20 0xFFFFFFFFFFFFFFFFFFFFFFFFFFFFFFFFFFFFFFFF MUL NOT AND SWAP1 SSTORE SWAP1 SSTORE PUSH1 0x1 PUSH1 0x0 DUP4 PUSH20 0xFFFFFFFFFFFFFFFFFFFFFFFFFFFFFFFFFFFFFFFF AND PUSH20 0xFFFFFFFFFFFFFFFFFFFFFFFFFFFFFFFFFFFFFFFF AND DUP2 MSTORE PUSH1 0x20 ADD SWAP1 DUP2 MSTORE PUSH1 0x20 ADD PUSH1 0x0 KECCAK256 PUSH1 0x0 DUP1 DUP3 ADD PUSH1 0x0 PUSH2 0x100 EXP DUP2 SLOAD SWAP1 PUSH20 0xFFFFFFFFFFFFFFFFFFFFFFFFFFFFFFFFFFFFFFFF MUL NOT AND SWAP1 SSTORE PUSH1 0x1 DUP3 ADD PUSH1 0x0 PUSH2 0x7F9 SWAP2 SWAP1 PUSH2 0x10D2 JUMP JUMPDEST PUSH1 0x2 DUP3 ADD PUSH1 0x0 PUSH2 0x809 SWAP2 SWAP1 PUSH2 0x10D2 JUMP JUMPDEST PUSH1 0x3 DUP3 ADD PUSH1 0x0 SWAP1 SSTORE PUSH1 0x4 DUP3 ADD PUSH1 0x0 PUSH2 0x100 EXP DUP2 SLOAD SWAP1 PUSH1 0xFF MUL NOT AND SWAP1 SSTORE POP POP POP PUSH2 0x86D JUMP JUMPDEST DUP1 DUP1 PUSH1 0x1 ADD SWAP2 POP POP PUSH2 0x611 JUMP JUMPDEST POP PUSH1 0x40 MLOAD PUSH32 0x920804EA00000000000000000000000000000000000000000000000000000000 DUP2 MSTORE PUSH1 0x4 ADD PUSH1 0x40 MLOAD DUP1 SWAP2 SUB SWAP1 REVERT JUMPDEST POP JUMP JUMPDEST PUSH1 0x60 PUSH1 0x0 PUSH1 0x1 PUSH1 0x0 DUP5 PUSH20 0xFFFFFFFFFFFFFFFFFFFFFFFFFFFFFFFFFFFFFFFF AND PUSH20 0xFFFFFFFFFFFFFFFFFFFFFFFFFFFFFFFFFFFFFFFF AND DUP2 MSTORE PUSH1 0x20 ADD SWAP1 DUP2 MSTORE PUSH1 0x20 ADD PUSH1 0x0 KECCAK256 PUSH1 0x40 MLOAD DUP1 PUSH1 0xA0 ADD PUSH1 0x40 MSTORE SWAP1 DUP2 PUSH1 0x0 DUP3 ADD PUSH1 0x0 SWAP1 SLOAD SWAP1 PUSH2 0x100 EXP SWAP1 DIV PUSH20 0xFFFFFFFFFFFFFFFFFFFFFFFFFFFFFFFFFFFFFFFF AND PUSH20 0xFFFFFFFFFFFFFFFFFFFFFFFFFFFFFFFFFFFFFFFF AND PUSH20 0xFFFFFFFFFFFFFFFFFFFFFFFFFFFFFFFFFFFFFFFF AND DUP2 MSTORE PUSH1 0x20 ADD PUSH1 0x1 DUP3 ADD DUP1 SLOAD PUSH2 0x924 SWAP1 PUSH2 0x16FC JUMP JUMPDEST DUP1 PUSH1 0x1F ADD PUSH1 0x20 DUP1 SWAP2 DIV MUL PUSH1 0x20 ADD PUSH1 0x40 MLOAD SWAP1 DUP2 ADD PUSH1 0x40 MSTORE DUP1 SWAP3 SWAP2 SWAP1 DUP2 DUP2 MSTORE PUSH1 0x20 ADD DUP3 DUP1 SLOAD PUSH2 0x950 SWAP1 PUSH2 0x16FC JUMP JUMPDEST DUP1 ISZERO PUSH2 0x99D JUMPI DUP1 PUSH1 0x1F LT PUSH2 0x972 JUMPI PUSH2 0x100 DUP1 DUP4 SLOAD DIV MUL DUP4 MSTORE SWAP2 PUSH1 0x20 ADD SWAP2 PUSH2 0x99D JUMP JUMPDEST DUP3 ADD SWAP2 SWAP1 PUSH1 0x0 MSTORE PUSH1 0x20 PUSH1 0x0 KECCAK256 SWAP1 JUMPDEST DUP2 SLOAD DUP2 MSTORE SWAP1 PUSH1 0x1 ADD SWAP1 PUSH1 0x20 ADD DUP1 DUP4 GT PUSH2 0x980 JUMPI DUP3 SWAP1 SUB PUSH1 0x1F AND DUP3 ADD SWAP2 JUMPDEST POP POP POP POP POP DUP2 MSTORE PUSH1 0x20 ADD PUSH1 0x2 DUP3 ADD DUP1 SLOAD PUSH2 0x9B6 SWAP1 PUSH2 0x16FC JUMP JUMPDEST DUP1 PUSH1 0x1F ADD PUSH1 0x20 DUP1 SWAP2 DIV MUL PUSH1 0x20 ADD PUSH1 0x40 MLOAD SWAP1 DUP2 ADD PUSH1 0x40 MSTORE DUP1 SWAP3 SWAP2 SWAP1 DUP2 DUP2 MSTORE PUSH1 0x20 ADD DUP3 DUP1 SLOAD PUSH2 0x9E2 SWAP1 PUSH2 0x16FC JUMP JUMPDEST DUP1 ISZERO PUSH2 0xA2F JUMPI DUP1 PUSH1 0x1F LT PUSH2 0xA04 JUMPI PUSH2 0x100 DUP1 DUP4 SLOAD DIV MUL DUP4 MSTORE SWAP2 PUSH1 0x20 ADD SWAP2 PUSH2 0xA2F JUMP JUMPDEST DUP3 ADD SWAP2 SWAP1 PUSH1 0x0 MSTORE PUSH1 0x20 PUSH1 0x0 KECCAK256 SWAP1 JUMPDEST DUP2 SLOAD DUP2 MSTORE SWAP1 PUSH1 0x1 ADD SWAP1 PUSH1 0x20 ADD DUP1 DUP4 GT PUSH2 0xA12 JUMPI DUP3 SWAP1 SUB PUSH1 0x1F AND DUP3 ADD SWAP2 JUMPDEST POP POP POP POP POP DUP2 MSTORE PUSH1 0x20 ADD PUSH1 0x3 DUP3 ADD SLOAD DUP2 MSTORE PUSH1 0x20 ADD PUSH1 0x4 DUP3 ADD PUSH1 0x0 SWAP1 SLOAD SWAP1 PUSH2 0x100 EXP SWAP1 DIV PUSH1 0xFF AND PUSH1 0x2 DUP2 GT ISZERO PUSH2 0xA67 JUMPI PUSH2 0xA66 PUSH2 0x172D JUMP JUMPDEST JUMPDEST PUSH1 0x2 DUP2 GT ISZERO PUSH2 0xA79 JUMPI PUSH2 0xA78 PUSH2 0x172D JUMP JUMPDEST JUMPDEST DUP2 MSTORE POP POP SWAP1 POP PUSH1 0x0 PUSH1 0x2 DUP2 GT ISZERO PUSH2 0xA93 JUMPI PUSH2 0xA92 PUSH2 0x172D JUMP JUMPDEST JUMPDEST DUP2 PUSH1 0x80 ADD MLOAD PUSH1 0x2 DUP2 GT ISZERO PUSH2 0xAAA JUMPI PUSH2 0xAA9 PUSH2 0x172D JUMP JUMPDEST JUMPDEST SUB PUSH2 0xAED JUMPI PUSH1 0x40 MLOAD DUP1 PUSH1 0x40 ADD PUSH1 0x40 MSTORE DUP1 PUSH1 0x8 DUP2 MSTORE PUSH1 0x20 ADD PUSH32 0x456D706C6F796564000000000000000000000000000000000000000000000000 DUP2 MSTORE POP SWAP2 POP POP PUSH2 0xC02 JUMP JUMPDEST PUSH1 0x1 PUSH1 0x2 DUP2 GT ISZERO PUSH2 0xB01 JUMPI PUSH2 0xB00 PUSH2 0x172D JUMP JUMPDEST JUMPDEST DUP2 PUSH1 0x80 ADD MLOAD PUSH1 0x2 DUP2 GT ISZERO PUSH2 0xB18 JUMPI PUSH2 0xB17 PUSH2 0x172D JUMP JUMPDEST JUMPDEST SUB PUSH2 0xB5B JUMPI PUSH1 0x40 MLOAD DUP1 PUSH1 0x40 ADD PUSH1 0x40 MSTORE DUP1 PUSH1 0xA DUP2 MSTORE PUSH1 0x20 ADD PUSH32 0x556E656D706C6F79656400000000000000000000000000000000000000000000 DUP2 MSTORE POP SWAP2 POP POP PUSH2 0xC02 JUMP JUMPDEST PUSH1 0x2 DUP1 DUP2 GT ISZERO PUSH2 0xB6E JUMPI PUSH2 0xB6D PUSH2 0x172D JUMP JUMPDEST JUMPDEST DUP2 PUSH1 0x80 ADD MLOAD PUSH1 0x2 DUP2 GT ISZERO PUSH2 0xB85 JUMPI PUSH2 0xB84 PUSH2 0x172D JUMP JUMPDEST JUMPDEST SUB PUSH2 0xBC8 JUMPI PUSH1 0x40 MLOAD DUP1 PUSH1 0x40 ADD PUSH1 0x40 MSTORE DUP1 PUSH1 0x9 DUP2 MSTORE PUSH1 0x20 ADD PUSH32 0x50726F626174696F6E0000000000000000000000000000000000000000000000 DUP2 MSTORE POP SWAP2 POP POP PUSH2 0xC02 JUMP JUMPDEST PUSH1 0x40 MLOAD DUP1 PUSH1 0x40 ADD PUSH1 0x40 MSTORE DUP1 PUSH1 0x7 DUP2 MSTORE PUSH1 0x20 ADD PUSH32 0x556E6B6E6F776E00000000000000000000000000000000000000000000000000 DUP2 MSTORE POP SWAP2 POP POP JUMPDEST SWAP2 SWAP1 POP JUMP JUMPDEST PUSH1 0x0 PUSH1 0x40 MLOAD DUP1 PUSH1 0xA0 ADD PUSH1 0x40 MSTORE DUP1 DUP7 PUSH20 0xFFFFFFFFFFFFFFFFFFFFFFFFFFFFFFFFFFFFFFFF AND DUP2 MSTORE PUSH1 0x20 ADD DUP6 DUP2 MSTORE PUSH1 0x20 ADD DUP5 DUP2 MSTORE PUSH1 0x20 ADD DUP4 DUP2 MSTORE PUSH1 0x20 ADD PUSH1 0x0 PUSH1 0x2 DUP2 GT ISZERO PUSH2 0xC56 JUMPI PUSH2 0xC55 PUSH2 0x172D JUMP JUMPDEST JUMPDEST DUP2 MSTORE POP SWAP1 POP DUP1 PUSH1 0x1 PUSH1 0x0 DUP8 PUSH20 0xFFFFFFFFFFFFFFFFFFFFFFFFFFFFFFFFFFFFFFFF AND PUSH20 0xFFFFFFFFFFFFFFFFFFFFFFFFFFFFFFFFFFFFFFFF AND DUP2 MSTORE PUSH1 0x20 ADD SWAP1 DUP2 MSTORE PUSH1 0x20 ADD PUSH1 0x0 KECCAK256 PUSH1 0x0 DUP3 ADD MLOAD DUP2 PUSH1 0x0 ADD PUSH1 0x0 PUSH2 0x100 EXP DUP2 SLOAD DUP2 PUSH20 0xFFFFFFFFFFFFFFFFFFFFFFFFFFFFFFFFFFFFFFFF MUL NOT AND SWAP1 DUP4 PUSH20 0xFFFFFFFFFFFFFFFFFFFFFFFFFFFFFFFFFFFFFFFF AND MUL OR SWAP1 SSTORE POP PUSH1 0x20 DUP3 ADD MLOAD DUP2 PUSH1 0x1 ADD SWAP1 DUP2 PUSH2 0xCF7 SWAP2 SWAP1 PUSH2 0x19C9 JUMP JUMPDEST POP PUSH1 0x40 DUP3 ADD MLOAD DUP2 PUSH1 0x2 ADD SWAP1 DUP2 PUSH2 0xD0D SWAP2 SWAP1 PUSH2 0x19C9 JUMP JUMPDEST POP PUSH1 0x60 DUP3 ADD MLOAD DUP2 PUSH1 0x3 ADD SSTORE PUSH1 0x80 DUP3 ADD MLOAD DUP2 PUSH1 0x4 ADD PUSH1 0x0 PUSH2 0x100 EXP DUP2 SLOAD DUP2 PUSH1 0xFF MUL NOT AND SWAP1 DUP4 PUSH1 0x2 DUP2 GT ISZERO PUSH2 0xD43 JUMPI PUSH2 0xD42 PUSH2 0x172D JUMP JUMPDEST JUMPDEST MUL OR SWAP1 SSTORE POP SWAP1 POP POP PUSH1 0x0 PUSH1 0x2 DUP2 GT ISZERO PUSH2 0xD5F JUMPI PUSH2 0xD5E PUSH2 0x172D JUMP JUMPDEST JUMPDEST DUP2 PUSH1 0x80 ADD MLOAD PUSH1 0x2 DUP2 GT ISZERO PUSH2 0xD76 JUMPI PUSH2 0xD75 PUSH2 0x172D JUMP JUMPDEST JUMPDEST SUB PUSH2 0xDE4 JUMPI PUSH1 0x3 DUP6 SWAP1 DUP1 PUSH1 0x1 DUP2 SLOAD ADD DUP1 DUP3 SSTORE DUP1 SWAP2 POP POP PUSH1 0x1 SWAP1 SUB SWAP1 PUSH1 0x0 MSTORE PUSH1 0x20 PUSH1 0x0 KECCAK256 ADD PUSH1 0x0 SWAP1 SWAP2 SWAP1 SWAP2 SWAP1 SWAP2 PUSH2 0x100 EXP DUP2 SLOAD DUP2 PUSH20 0xFFFFFFFFFFFFFFFFFFFFFFFFFFFFFFFFFFFFFFFF MUL NOT AND SWAP1 DUP4 PUSH20 0xFFFFFFFFFFFFFFFFFFFFFFFFFFFFFFFFFFFFFFFF AND MUL OR SWAP1 SSTORE POP POP PUSH2 0xE16 JUMP JUMPDEST PUSH1 0x40 MLOAD PUSH32 0xCD5BE70E00000000000000000000000000000000000000000000000000000000 DUP2 MSTORE PUSH1 0x4 ADD PUSH1 0x40 MLOAD DUP1 SWAP2 SUB SWAP1 REVERT JUMPDEST POP POP POP POP JUMP JUMPDEST PUSH1 0x0 DUP2 PUSH20 0xFFFFFFFFFFFFFFFFFFFFFFFFFFFFFFFFFFFFFFFF AND BALANCE SWAP1 POP SWAP2 SWAP1 POP JUMP JUMPDEST PUSH1 0x0 PUSH1 0x2 PUSH1 0x0 DUP4 PUSH20 0xFFFFFFFFFFFFFFFFFFFFFFFFFFFFFFFFFFFFFFFF AND PUSH20 0xFFFFFFFFFFFFFFFFFFFFFFFFFFFFFFFFFFFFFFFF AND DUP2 MSTORE PUSH1 0x20 ADD SWAP1 DUP2 MSTORE PUSH1 0x20 ADD PUSH1 0x0 KECCAK256 PUSH1 0x0 SWAP1 SLOAD SWAP1 PUSH2 0x100 EXP SWAP1 DIV PUSH1 0xFF AND ISZERO PUSH2 0xE9A JUMPI PUSH1 0x1 SWAP1 POP PUSH2 0xE9F JUMP JUMPDEST PUSH1 0x0 SWAP1 POP JUMPDEST SWAP2 SWAP1 POP JUMP JUMPDEST PUSH1 0x60 DUP1 PUSH1 0x0 DUP1 PUSH1 0x1 PUSH1 0x0 DUP7 PUSH20 0xFFFFFFFFFFFFFFFFFFFFFFFFFFFFFFFFFFFFFFFF AND PUSH20 0xFFFFFFFFFFFFFFFFFFFFFFFFFFFFFFFFFFFFFFFF AND DUP2 MSTORE PUSH1 0x20 ADD SWAP1 DUP2 MSTORE PUSH1 0x20 ADD PUSH1 0x0 KECCAK256 PUSH1 0x40 MLOAD DUP1 PUSH1 0xA0 ADD PUSH1 0x40 MSTORE SWAP1 DUP2 PUSH1 0x0 DUP3 ADD PUSH1 0x0 SWAP1 SLOAD SWAP1 PUSH2 0x100 EXP SWAP1 DIV PUSH20 0xFFFFFFFFFFFFFFFFFFFFFFFFFFFFFFFFFFFFFFFF AND PUSH20 0xFFFFFFFFFFFFFFFFFFFFFFFFFFFFFFFFFFFFFFFF AND PUSH20 0xFFFFFFFFFFFFFFFFFFFFFFFFFFFFFFFFFFFFFFFF AND DUP2 MSTORE PUSH1 0x20 ADD PUSH1 0x1 DUP3 ADD DUP1 SLOAD PUSH2 0xF5A SWAP1 PUSH2 0x16FC JUMP JUMPDEST DUP1 PUSH1 0x1F ADD PUSH1 0x20 DUP1 SWAP2 DIV MUL PUSH1 0x20 ADD PUSH1 0x40 MLOAD SWAP1 DUP2 ADD PUSH1 0x40 MSTORE DUP1 SWAP3 SWAP2 SWAP1 DUP2 DUP2 MSTORE PUSH1 0x20 ADD DUP3 DUP1 SLOAD PUSH2 0xF86 SWAP1 PUSH2 0x16FC JUMP JUMPDEST DUP1 ISZERO PUSH2 0xFD3 JUMPI DUP1 PUSH1 0x1F LT PUSH2 0xFA8 JUMPI PUSH2 0x100 DUP1 DUP4 SLOAD DIV MUL DUP4 MSTORE SWAP2 PUSH1 0x20 ADD SWAP2 PUSH2 0xFD3 JUMP JUMPDEST DUP3 ADD SWAP2 SWAP1 PUSH1 0x0 MSTORE PUSH1 0x20 PUSH1 0x0 KECCAK256 SWAP1 JUMPDEST DUP2 SLOAD DUP2 MSTORE SWAP1 PUSH1 0x1 ADD SWAP1 PUSH1 0x20 ADD DUP1 DUP4 GT PUSH2 0xFB6 JUMPI DUP3 SWAP1 SUB PUSH1 0x1F AND DUP3 ADD SWAP2 JUMPDEST POP POP POP POP POP DUP2 MSTORE PUSH1 0x20 ADD PUSH1 0x2 DUP3 ADD DUP1 SLOAD PUSH2 0xFEC SWAP1 PUSH2 0x16FC JUMP JUMPDEST DUP1 PUSH1 0x1F ADD PUSH1 0x20 DUP1 SWAP2 DIV MUL PUSH1 0x20 ADD PUSH1 0x40 MLOAD SWAP1 DUP2 ADD PUSH1 0x40 MSTORE DUP1 SWAP3 SWAP2 SWAP1 DUP2 DUP2 MSTORE PUSH1 0x20 ADD DUP3 DUP1 SLOAD PUSH2 0x1018 SWAP1 PUSH2 0x16FC JUMP JUMPDEST DUP1 ISZERO PUSH2 0x1065 JUMPI DUP1 PUSH1 0x1F LT PUSH2 0x103A JUMPI PUSH2 0x100 DUP1 DUP4 SLOAD DIV MUL DUP4 MSTORE SWAP2 PUSH1 0x20 ADD SWAP2 PUSH2 0x1065 JUMP JUMPDEST DUP3 ADD SWAP2 SWAP1 PUSH1 0x0 MSTORE PUSH1 0x20 PUSH1 0x0 KECCAK256 SWAP1 JUMPDEST DUP2 SLOAD DUP2 MSTORE SWAP1 PUSH1 0x1 ADD SWAP1 PUSH1 0x20 ADD DUP1 DUP4 GT PUSH2 0x1048 JUMPI DUP3 SWAP1 SUB PUSH1 0x1F AND DUP3 ADD SWAP2 JUMPDEST POP POP POP POP POP DUP2 MSTORE PUSH1 0x20 ADD PUSH1 0x3 DUP3 ADD SLOAD DUP2 MSTORE PUSH1 0x20 ADD PUSH1 0x4 DUP3 ADD PUSH1 0x0 SWAP1 SLOAD SWAP1 PUSH2 0x100 EXP SWAP1 DIV PUSH1 0xFF AND PUSH1 0x2 DUP2 GT ISZERO PUSH2 0x109D JUMPI PUSH2 0x109C PUSH2 0x172D JUMP JUMPDEST JUMPDEST PUSH1 0x2 DUP2 GT ISZERO PUSH2 0x10AF JUMPI PUSH2 0x10AE PUSH2 0x172D JUMP JUMPDEST JUMPDEST DUP2 MSTORE POP POP SWAP1 POP DUP1 PUSH1 0x20 ADD MLOAD DUP2 PUSH1 0x40 ADD MLOAD DUP3 PUSH1 0x60 ADD MLOAD SWAP4 POP SWAP4 POP SWAP4 POP POP SWAP2 SWAP4 SWAP1 SWAP3 POP JUMP JUMPDEST POP DUP1 SLOAD PUSH2 0x10DE SWAP1 PUSH2 0x16FC JUMP JUMPDEST PUSH1 0x0 DUP3 SSTORE DUP1 PUSH1 0x1F LT PUSH2 0x10F0 JUMPI POP PUSH2 0x110F JUMP JUMPDEST PUSH1 0x1F ADD PUSH1 0x20 SWAP1 DIV SWAP1 PUSH1 0x0 MSTORE PUSH1 0x20 PUSH1 0x0 KECCAK256 SWAP1 DUP2 ADD SWAP1 PUSH2 0x110E SWAP2 SWAP1 PUSH2 0x1112 JUMP JUMPDEST JUMPDEST POP JUMP JUMPDEST JUMPDEST DUP1 DUP3 GT ISZERO PUSH2 0x112B JUMPI PUSH1 0x0 DUP2 PUSH1 0x0 SWAP1 SSTORE POP PUSH1 0x1 ADD PUSH2 0x1113 JUMP JUMPDEST POP SWAP1 JUMP JUMPDEST PUSH1 0x0 DUP2 MLOAD SWAP1 POP SWAP2 SWAP1 POP JUMP JUMPDEST PUSH1 0x0 DUP3 DUP3 MSTORE PUSH1 0x20 DUP3 ADD SWAP1 POP SWAP3 SWAP2 POP POP JUMP JUMPDEST PUSH1 0x0 DUP2 SWAP1 POP PUSH1 0x20 DUP3 ADD SWAP1 POP SWAP2 SWAP1 POP JUMP JUMPDEST PUSH1 0x0 PUSH20 0xFFFFFFFFFFFFFFFFFFFFFFFFFFFFFFFFFFFFFFFF DUP3 AND SWAP1 POP SWAP2 SWAP1 POP JUMP JUMPDEST PUSH1 0x0 PUSH2 0x1186 DUP3 PUSH2 0x115B JUMP JUMPDEST SWAP1 POP SWAP2 SWAP1 POP JUMP JUMPDEST PUSH2 0x1196 DUP2 PUSH2 0x117B JUMP JUMPDEST DUP3 MSTORE POP POP JUMP JUMPDEST PUSH1 0x0 PUSH2 0x11A8 DUP4 DUP4 PUSH2 0x118D JUMP JUMPDEST PUSH1 0x20 DUP4 ADD SWAP1 POP SWAP3 SWAP2 POP POP JUMP JUMPDEST PUSH1 0x0 PUSH1 0x20 DUP3 ADD SWAP1 POP SWAP2 SWAP1 POP JUMP JUMPDEST PUSH1 0x0 PUSH2 0x11CC DUP3 PUSH2 0x112F JUMP JUMPDEST PUSH2 0x11D6 DUP2 DUP6 PUSH2 0x113A JUMP JUMPDEST SWAP4 POP PUSH2 0x11E1 DUP4 PUSH2 0x114B JUMP JUMPDEST DUP1 PUSH1 0x0 JUMPDEST DUP4 DUP2 LT ISZERO PUSH2 0x1212 JUMPI DUP2 MLOAD PUSH2 0x11F9 DUP9 DUP3 PUSH2 0x119C JUMP JUMPDEST SWAP8 POP PUSH2 0x1204 DUP4 PUSH2 0x11B4 JUMP JUMPDEST SWAP3 POP POP PUSH1 0x1 DUP2 ADD SWAP1 POP PUSH2 0x11E5 JUMP JUMPDEST POP DUP6 SWAP4 POP POP POP POP SWAP3 SWAP2 POP POP JUMP JUMPDEST PUSH1 0x0 PUSH1 0x20 DUP3 ADD SWAP1 POP DUP2 DUP2 SUB PUSH1 0x0 DUP4 ADD MSTORE PUSH2 0x1239 DUP2 DUP5 PUSH2 0x11C1 JUMP JUMPDEST SWAP1 POP SWAP3 SWAP2 POP POP JUMP JUMPDEST PUSH1 0x0 PUSH1 0x40 MLOAD SWAP1 POP SWAP1 JUMP JUMPDEST PUSH1 0x0 DUP1 REVERT JUMPDEST PUSH1 0x0 DUP1 REVERT JUMPDEST PUSH2 0x125E DUP2 PUSH2 0x117B JUMP JUMPDEST DUP2 EQ PUSH2 0x1269 JUMPI PUSH1 0x0 DUP1 REVERT JUMPDEST POP JUMP JUMPDEST PUSH1 0x0 DUP2 CALLDATALOAD SWAP1 POP PUSH2 0x127B DUP2 PUSH2 0x1255 JUMP JUMPDEST SWAP3 SWAP2 POP POP JUMP JUMPDEST PUSH1 0x0 DUP2 SWAP1 POP SWAP2 SWAP1 POP JUMP JUMPDEST PUSH2 0x1294 DUP2 PUSH2 0x1281 JUMP JUMPDEST DUP2 EQ PUSH2 0x129F JUMPI PUSH1 0x0 DUP1 REVERT JUMPDEST POP JUMP JUMPDEST PUSH1 0x0 DUP2 CALLDATALOAD SWAP1 POP PUSH2 0x12B1 DUP2 PUSH2 0x128B JUMP JUMPDEST SWAP3 SWAP2 POP POP JUMP JUMPDEST PUSH1 0x0 DUP1 PUSH1 0x40 DUP4 DUP6 SUB SLT ISZERO PUSH2 0x12CE JUMPI PUSH2 0x12CD PUSH2 0x124B JUMP JUMPDEST JUMPDEST PUSH1 0x0 PUSH2 0x12DC DUP6 DUP3 DUP7 ADD PUSH2 0x126C JUMP JUMPDEST SWAP3 POP POP PUSH1 0x20 PUSH2 0x12ED DUP6 DUP3 DUP7 ADD PUSH2 0x12A2 JUMP JUMPDEST SWAP2 POP POP SWAP3 POP SWAP3 SWAP1 POP JUMP JUMPDEST PUSH1 0x0 PUSH2 0x1302 DUP3 PUSH2 0x115B JUMP JUMPDEST SWAP1 POP SWAP2 SWAP1 POP JUMP JUMPDEST PUSH2 0x1312 DUP2 PUSH2 0x12F7 JUMP JUMPDEST DUP2 EQ PUSH2 0x131D JUMPI PUSH1 0x0 DUP1 REVERT JUMPDEST POP JUMP JUMPDEST PUSH1 0x0 DUP2 CALLDATALOAD SWAP1 POP PUSH2 0x132F DUP2 PUSH2 0x1309 JUMP JUMPDEST SWAP3 SWAP2 POP POP JUMP JUMPDEST PUSH1 0x0 DUP1 PUSH1 0x40 DUP4 DUP6 SUB SLT ISZERO PUSH2 0x134C JUMPI PUSH2 0x134B PUSH2 0x124B JUMP JUMPDEST JUMPDEST PUSH1 0x0 PUSH2 0x135A DUP6 DUP3 DUP7 ADD PUSH2 0x1320 JUMP JUMPDEST SWAP3 POP POP PUSH1 0x20 PUSH2 0x136B DUP6 DUP3 DUP7 ADD PUSH2 0x12A2 JUMP JUMPDEST SWAP2 POP POP SWAP3 POP SWAP3 SWAP1 POP JUMP JUMPDEST PUSH1 0x0 PUSH1 0x20 DUP3 DUP5 SUB SLT ISZERO PUSH2 0x138B JUMPI PUSH2 0x138A PUSH2 0x124B JUMP JUMPDEST JUMPDEST PUSH1 0x0 PUSH2 0x1399 DUP5 DUP3 DUP6 ADD PUSH2 0x126C JUMP JUMPDEST SWAP2 POP POP SWAP3 SWAP2 POP POP JUMP JUMPDEST PUSH1 0x0 DUP2 MLOAD SWAP1 POP SWAP2 SWAP1 POP JUMP JUMPDEST PUSH1 0x0 DUP3 DUP3 MSTORE PUSH1 0x20 DUP3 ADD SWAP1 POP SWAP3 SWAP2 POP POP JUMP JUMPDEST PUSH1 0x0 JUMPDEST DUP4 DUP2 LT ISZERO PUSH2 0x13DC JUMPI DUP1 DUP3 ADD MLOAD DUP2 DUP5 ADD MSTORE PUSH1 0x20 DUP2 ADD SWAP1 POP PUSH2 0x13C1 JUMP JUMPDEST PUSH1 0x0 DUP5 DUP5 ADD MSTORE POP POP POP POP JUMP JUMPDEST PUSH1 0x0 PUSH1 0x1F NOT PUSH1 0x1F DUP4 ADD AND SWAP1 POP SWAP2 SWAP1 POP JUMP JUMPDEST PUSH1 0x0 PUSH2 0x1404 DUP3 PUSH2 0x13A2 JUMP JUMPDEST PUSH2 0x140E DUP2 DUP6 PUSH2 0x13AD JUMP JUMPDEST SWAP4 POP PUSH2 0x141E DUP2 DUP6 PUSH1 0x20 DUP7 ADD PUSH2 0x13BE JUMP JUMPDEST PUSH2 0x1427 DUP2 PUSH2 0x13E8 JUMP JUMPDEST DUP5 ADD SWAP2 POP POP SWAP3 SWAP2 POP POP JUMP JUMPDEST PUSH1 0x0 PUSH1 0x20 DUP3 ADD SWAP1 POP DUP2 DUP2 SUB PUSH1 0x0 DUP4 ADD MSTORE PUSH2 0x144C DUP2 DUP5 PUSH2 0x13F9 JUMP JUMPDEST SWAP1 POP SWAP3 SWAP2 POP POP JUMP JUMPDEST PUSH1 0x0 DUP1 REVERT JUMPDEST PUSH1 0x0 DUP1 REVERT JUMPDEST PUSH32 0x4E487B7100000000000000000000000000000000000000000000000000000000 PUSH1 0x0 MSTORE PUSH1 0x41 PUSH1 0x4 MSTORE PUSH1 0x24 PUSH1 0x0 REVERT JUMPDEST PUSH2 0x1496 DUP3 PUSH2 0x13E8 JUMP JUMPDEST DUP2 ADD DUP2 DUP2 LT PUSH8 0xFFFFFFFFFFFFFFFF DUP3 GT OR ISZERO PUSH2 0x14B5 JUMPI PUSH2 0x14B4 PUSH2 0x145E JUMP JUMPDEST JUMPDEST DUP1 PUSH1 0x40 MSTORE POP POP POP JUMP JUMPDEST PUSH1 0x0 PUSH2 0x14C8 PUSH2 0x1241 JUMP JUMPDEST SWAP1 POP PUSH2 0x14D4 DUP3 DUP3 PUSH2 0x148D JUMP JUMPDEST SWAP2 SWAP1 POP JUMP JUMPDEST PUSH1 0x0 PUSH8 0xFFFFFFFFFFFFFFFF DUP3 GT ISZERO PUSH2 0x14F4 JUMPI PUSH2 0x14F3 PUSH2 0x145E JUMP JUMPDEST JUMPDEST PUSH2 0x14FD DUP3 PUSH2 0x13E8 JUMP JUMPDEST SWAP1 POP PUSH1 0x20 DUP2 ADD SWAP1 POP SWAP2 SWAP1 POP JUMP JUMPDEST DUP3 DUP2 DUP4 CALLDATACOPY PUSH1 0x0 DUP4 DUP4 ADD MSTORE POP POP POP JUMP JUMPDEST PUSH1 0x0 PUSH2 0x152C PUSH2 0x1527 DUP5 PUSH2 0x14D9 JUMP JUMPDEST PUSH2 0x14BE JUMP JUMPDEST SWAP1 POP DUP3 DUP2 MSTORE PUSH1 0x20 DUP2 ADD DUP5 DUP5 DUP5 ADD GT ISZERO PUSH2 0x1548 JUMPI PUSH2 0x1547 PUSH2 0x1459 JUMP JUMPDEST JUMPDEST PUSH2 0x1553 DUP5 DUP3 DUP6 PUSH2 0x150A JUMP JUMPDEST POP SWAP4 SWAP3 POP POP POP JUMP JUMPDEST PUSH1 0x0 DUP3 PUSH1 0x1F DUP4 ADD SLT PUSH2 0x1570 JUMPI PUSH2 0x156F PUSH2 0x1454 JUMP JUMPDEST JUMPDEST DUP2 CALLDATALOAD PUSH2 0x1580 DUP5 DUP3 PUSH1 0x20 DUP7 ADD PUSH2 0x1519 JUMP JUMPDEST SWAP2 POP POP SWAP3 SWAP2 POP POP JUMP JUMPDEST PUSH1 0x0 DUP1 PUSH1 0x0 DUP1 PUSH1 0x80 DUP6 DUP8 SUB SLT ISZERO PUSH2 0x15A3 JUMPI PUSH2 0x15A2 PUSH2 0x124B JUMP JUMPDEST JUMPDEST PUSH1 0x0 PUSH2 0x15B1 DUP8 DUP3 DUP9 ADD PUSH2 0x126C JUMP JUMPDEST SWAP5 POP POP PUSH1 0x20 DUP6 ADD CALLDATALOAD PUSH8 0xFFFFFFFFFFFFFFFF DUP2 GT ISZERO PUSH2 0x15D2 JUMPI PUSH2 0x15D1 PUSH2 0x1250 JUMP JUMPDEST JUMPDEST PUSH2 0x15DE DUP8 DUP3 DUP9 ADD PUSH2 0x155B JUMP JUMPDEST SWAP4 POP POP PUSH1 0x40 DUP6 ADD CALLDATALOAD PUSH8 0xFFFFFFFFFFFFFFFF DUP2 GT ISZERO PUSH2 0x15FF JUMPI PUSH2 0x15FE PUSH2 0x1250 JUMP JUMPDEST JUMPDEST PUSH2 0x160B DUP8 DUP3 DUP9 ADD PUSH2 0x155B JUMP JUMPDEST SWAP3 POP POP PUSH1 0x60 PUSH2 0x161C DUP8 DUP3 DUP9 ADD PUSH2 0x12A2 JUMP JUMPDEST SWAP2 POP POP SWAP3 SWAP6 SWAP2 SWAP5 POP SWAP3 POP JUMP JUMPDEST PUSH2 0x1631 DUP2 PUSH2 0x1281 JUMP JUMPDEST DUP3 MSTORE POP POP JUMP JUMPDEST PUSH1 0x0 PUSH1 0x20 DUP3 ADD SWAP1 POP PUSH2 0x164C PUSH1 0x0 DUP4 ADD DUP5 PUSH2 0x1628 JUMP JUMPDEST SWAP3 SWAP2 POP POP JUMP JUMPDEST PUSH1 0x0 DUP2 ISZERO ISZERO SWAP1 POP SWAP2 SWAP1 POP JUMP JUMPDEST PUSH2 0x1667 DUP2 PUSH2 0x1652 JUMP JUMPDEST DUP3 MSTORE POP POP JUMP JUMPDEST PUSH1 0x0 PUSH1 0x20 DUP3 ADD SWAP1 POP PUSH2 0x1682 PUSH1 0x0 DUP4 ADD DUP5 PUSH2 0x165E JUMP JUMPDEST SWAP3 SWAP2 POP POP JUMP JUMPDEST PUSH1 0x0 PUSH1 0x60 DUP3 ADD SWAP1 POP DUP2 DUP2 SUB PUSH1 0x0 DUP4 ADD MSTORE PUSH2 0x16A2 DUP2 DUP7 PUSH2 0x13F9 JUMP JUMPDEST SWAP1 POP DUP2 DUP2 SUB PUSH1 0x20 DUP4 ADD MSTORE PUSH2 0x16B6 DUP2 DUP6 PUSH2 0x13F9 JUMP JUMPDEST SWAP1 POP PUSH2 0x16C5 PUSH1 0x40 DUP4 ADD DUP5 PUSH2 0x1628 JUMP JUMPDEST SWAP5 SWAP4 POP POP POP POP JUMP JUMPDEST PUSH32 0x4E487B7100000000000000000000000000000000000000000000000000000000 PUSH1 0x0 MSTORE PUSH1 0x22 PUSH1 0x4 MSTORE PUSH1 0x24 PUSH1 0x0 REVERT JUMPDEST PUSH1 0x0 PUSH1 0x2 DUP3 DIV SWAP1 POP PUSH1 0x1 DUP3 AND DUP1 PUSH2 0x1714 JUMPI PUSH1 0x7F DUP3 AND SWAP2 POP JUMPDEST PUSH1 0x20 DUP3 LT DUP2 SUB PUSH2 0x1727 JUMPI PUSH2 0x1726 PUSH2 0x16CD JUMP JUMPDEST JUMPDEST POP SWAP2 SWAP1 POP JUMP JUMPDEST PUSH32 0x4E487B7100000000000000000000000000000000000000000000000000000000 PUSH1 0x0 MSTORE PUSH1 0x21 PUSH1 0x4 MSTORE PUSH1 0x24 PUSH1 0x0 REVERT JUMPDEST PUSH32 0x4E487B7100000000000000000000000000000000000000000000000000000000 PUSH1 0x0 MSTORE PUSH1 0x32 PUSH1 0x4 MSTORE PUSH1 0x24 PUSH1 0x0 REVERT JUMPDEST PUSH32 0x4E487B7100000000000000000000000000000000000000000000000000000000 PUSH1 0x0 MSTORE PUSH1 0x11 PUSH1 0x4 MSTORE PUSH1 0x24 PUSH1 0x0 REVERT JUMPDEST PUSH1 0x0 PUSH2 0x17C5 DUP3 PUSH2 0x1281 JUMP JUMPDEST SWAP2 POP PUSH2 0x17D0 DUP4 PUSH2 0x1281 JUMP JUMPDEST SWAP3 POP DUP3 DUP3 SUB SWAP1 POP DUP2 DUP2 GT ISZERO PUSH2 0x17E8 JUMPI PUSH2 0x17E7 PUSH2 0x178B JUMP JUMPDEST JUMPDEST SWAP3 SWAP2 POP POP JUMP JUMPDEST PUSH32 0x4E487B7100000000000000000000000000000000000000000000000000000000 PUSH1 0x0 MSTORE PUSH1 0x31 PUSH1 0x4 MSTORE PUSH1 0x24 PUSH1 0x0 REVERT JUMPDEST PUSH1 0x0 DUP2 SWAP1 POP DUP2 PUSH1 0x0 MSTORE PUSH1 0x20 PUSH1 0x0 KECCAK256 SWAP1 POP SWAP2 SWAP1 POP JUMP JUMPDEST PUSH1 0x0 PUSH1 0x20 PUSH1 0x1F DUP4 ADD DIV SWAP1 POP SWAP2 SWAP1 POP JUMP JUMPDEST PUSH1 0x0 DUP3 DUP3 SHL SWAP1 POP SWAP3 SWAP2 POP POP JUMP JUMPDEST PUSH1 0x0 PUSH1 0x8 DUP4 MUL PUSH2 0x187F PUSH32 0xFFFFFFFFFFFFFFFFFFFFFFFFFFFFFFFFFFFFFFFFFFFFFFFFFFFFFFFFFFFFFFFF DUP3 PUSH2 0x1842 JUMP JUMPDEST PUSH2 0x1889 DUP7 DUP4 PUSH2 0x1842 JUMP JUMPDEST SWAP6 POP DUP1 NOT DUP5 AND SWAP4 POP DUP1 DUP7 AND DUP5 OR SWAP3 POP POP POP SWAP4 SWAP3 POP POP POP JUMP JUMPDEST PUSH1 0x0 DUP2 SWAP1 POP SWAP2 SWAP1 POP JUMP JUMPDEST PUSH1 0x0 PUSH2 0x18C6 PUSH2 0x18C1 PUSH2 0x18BC DUP5 PUSH2 0x1281 JUMP JUMPDEST PUSH2 0x18A1 JUMP JUMPDEST PUSH2 0x1281 JUMP JUMPDEST SWAP1 POP SWAP2 SWAP1 POP JUMP JUMPDEST PUSH1 0x0 DUP2 SWAP1 POP SWAP2 SWAP1 POP JUMP JUMPDEST PUSH2 0x18E0 DUP4 PUSH2 0x18AB JUMP JUMPDEST PUSH2 0x18F4 PUSH2 0x18EC DUP3 PUSH2 0x18CD JUMP JUMPDEST DUP5 DUP5 SLOAD PUSH2 0x184F JUMP JUMPDEST DUP3 SSTORE POP POP POP POP JUMP JUMPDEST PUSH1 0x0 SWAP1 JUMP JUMPDEST PUSH2 0x1909 PUSH2 0x18FC JUMP JUMPDEST PUSH2 0x1914 DUP2 DUP5 DUP5 PUSH2 0x18D7 JUMP JUMPDEST POP POP POP JUMP JUMPDEST JUMPDEST DUP2 DUP2 LT ISZERO PUSH2 0x1938 JUMPI PUSH2 0x192D PUSH1 0x0 DUP3 PUSH2 0x1901 JUMP JUMPDEST PUSH1 0x1 DUP2 ADD SWAP1 POP PUSH2 0x191A JUMP JUMPDEST POP POP JUMP JUMPDEST PUSH1 0x1F DUP3 GT ISZERO PUSH2 0x197D JUMPI PUSH2 0x194E DUP2 PUSH2 0x181D JUMP JUMPDEST PUSH2 0x1957 DUP5 PUSH2 0x1832 JUMP JUMPDEST DUP2 ADD PUSH1 0x20 DUP6 LT ISZERO PUSH2 0x1966 JUMPI DUP2 SWAP1 POP JUMPDEST PUSH2 0x197A PUSH2 0x1972 DUP6 PUSH2 0x1832 JUMP JUMPDEST DUP4 ADD DUP3 PUSH2 0x1919 JUMP JUMPDEST POP POP JUMPDEST POP POP POP JUMP JUMPDEST PUSH1 0x0 DUP3 DUP3 SHR SWAP1 POP SWAP3 SWAP2 POP POP JUMP JUMPDEST PUSH1 0x0 PUSH2 0x19A0 PUSH1 0x0 NOT DUP5 PUSH1 0x8 MUL PUSH2 0x1982 JUMP JUMPDEST NOT DUP1 DUP4 AND SWAP2 POP POP SWAP3 SWAP2 POP POP JUMP JUMPDEST PUSH1 0x0 PUSH2 0x19B9 DUP4 DUP4 PUSH2 0x198F JUMP JUMPDEST SWAP2 POP DUP3 PUSH1 0x2 MUL DUP3 OR SWAP1 POP SWAP3 SWAP2 POP POP JUMP JUMPDEST PUSH2 0x19D2 DUP3 PUSH2 0x13A2 JUMP JUMPDEST PUSH8 0xFFFFFFFFFFFFFFFF DUP2 GT ISZERO PUSH2 0x19EB JUMPI PUSH2 0x19EA PUSH2 0x145E JUMP JUMPDEST JUMPDEST PUSH2 0x19F5 DUP3 SLOAD PUSH2 0x16FC JUMP JUMPDEST PUSH2 0x1A00 DUP3 DUP3 DUP6 PUSH2 0x193C JUMP JUMPDEST PUSH1 0x0 PUSH1 0x20 SWAP1 POP PUSH1 0x1F DUP4 GT PUSH1 0x1 DUP2 EQ PUSH2 0x1A33 JUMPI PUSH1 0x0 DUP5 ISZERO PUSH2 0x1A21 JUMPI DUP3 DUP8 ADD MLOAD SWAP1 POP JUMPDEST PUSH2 0x1A2B DUP6 DUP3 PUSH2 0x19AD JUMP JUMPDEST DUP7 SSTORE POP PUSH2 0x1A93 JUMP JUMPDEST PUSH1 0x1F NOT DUP5 AND PUSH2 0x1A41 DUP7 PUSH2 0x181D JUMP JUMPDEST PUSH1 0x0 JUMPDEST DUP3 DUP2 LT ISZERO PUSH2 0x1A69 JUMPI DUP5 DUP10 ADD MLOAD DUP3 SSTORE PUSH1 0x1 DUP3 ADD SWAP2 POP PUSH1 0x20 DUP6 ADD SWAP5 POP PUSH1 0x20 DUP2 ADD SWAP1 POP PUSH2 0x1A44 JUMP JUMPDEST DUP7 DUP4 LT ISZERO PUSH2 0x1A86 JUMPI DUP5 DUP10 ADD MLOAD PUSH2 0x1A82 PUSH1 0x1F DUP10 AND DUP3 PUSH2 0x198F JUMP JUMPDEST DUP4 SSTORE POP JUMPDEST PUSH1 0x1 PUSH1 0x2 DUP9 MUL ADD DUP9 SSTORE POP POP POP JUMPDEST POP POP POP POP POP POP JUMP INVALID LOG2 PUSH5 0x6970667358 0x22 SLT KECCAK256 PUSH13 0xCE063A932DF5435FE00D443668 DUP13 0xBF PUSH26 0x6EF7087ECB676D06118AE2DFF9329F64736F6C634300081E0033 LOG2 PUSH5 0x6970667358 0x22 SLT KECCAK256 0xD MOD CREATE ADD 0xF7 CALLDATASIZE DUP14 ISZERO 0xED 0x23 PUSH0 CODESIZE ISZERO 0xBA CHAINID 0xE8 KECCAK256 0xA5 0xE2 PUSH1 0x7B PREVRANDAO ORIGIN DUP4 DUP1 SWAP16 ADDMOD 0xB6 CALLDATACOPY SWAP3 CREATE PUSH3 0x64736F PUSH13 0x634300081E0033000000000000 "
        },
        "methodIdentifiers": {
          "allPayrolls(uint256)": "6dbc9f42",
          "createPayroll()": "4d3a2b16",
          "createdBy(address,uint256)": "f80364c7",
          "getAllPayrolls()": "912c6eaa",
          "getMyPayrolls()": "f68def27"
        }
      }
    }
  }
}