{
  "_format": "hh-sol-artifact-1",
  "contractName": "TokenGatedDAO",
  "sourceName": "contracts/TokenGatedDAO.sol",
  "abi": [
    {
      "inputs": [
        {
          "internalType": "contract IRolesRegistry",
          "name": "_rolesRegistry",
          "type": "address"
        }
      ],
      "stateMutability": "nonpayable",
      "type": "constructor"
    },
    {
      "anonymous": false,
      "inputs": [
        {
          "indexed": true,
          "internalType": "uint256",
          "name": "proposalId",
          "type": "uint256"
        }
      ],
      "name": "ProposalCanceled",
      "type": "event"
    },
    {
      "anonymous": false,
      "inputs": [
        {
          "indexed": true,
          "internalType": "uint256",
          "name": "proposalId",
          "type": "uint256"
        },
        {
          "indexed": true,
          "internalType": "address",
          "name": "proposer",
          "type": "address"
        },
        {
          "indexed": false,
          "internalType": "address[]",
          "name": "targets",
          "type": "address[]"
        },
        {
          "indexed": false,
          "internalType": "uint256[]",
          "name": "values",
          "type": "uint256[]"
        },
        {
          "indexed": false,
          "internalType": "bytes[]",
          "name": "calldatas",
          "type": "bytes[]"
        },
        {
          "indexed": false,
          "internalType": "uint64",
          "name": "startBlock",
          "type": "uint64"
        },
        {
          "indexed": false,
          "internalType": "uint64",
          "name": "endBlock",
          "type": "uint64"
        },
        {
          "indexed": false,
          "internalType": "string",
          "name": "description",
          "type": "string"
        }
      ],
      "name": "ProposalCreated",
      "type": "event"
    },
    {
      "anonymous": false,
      "inputs": [
        {
          "indexed": true,
          "internalType": "uint256",
          "name": "proposalId",
          "type": "uint256"
        }
      ],
      "name": "ProposalExecuted",
      "type": "event"
    },
    {
      "anonymous": false,
      "inputs": [
        {
          "indexed": true,
          "internalType": "address",
          "name": "voter",
          "type": "address"
        },
        {
          "indexed": true,
          "internalType": "uint256",
          "name": "proposalId",
          "type": "uint256"
        },
        {
          "indexed": false,
          "internalType": "bool",
          "name": "support",
          "type": "bool"
        },
        {
          "indexed": false,
          "internalType": "uint256",
          "name": "weight",
          "type": "uint256"
        }
      ],
      "name": "VoteCast",
      "type": "event"
    },
    {
      "inputs": [],
      "name": "ROLE_PROPOSER",
      "outputs": [
        {
          "internalType": "bytes32",
          "name": "",
          "type": "bytes32"
        }
      ],
      "stateMutability": "view",
      "type": "function"
    },
    {
      "inputs": [],
      "name": "ROLE_VOTER",
      "outputs": [
        {
          "internalType": "bytes32",
          "name": "",
          "type": "bytes32"
        }
      ],
      "stateMutability": "view",
      "type": "function"
    },
    {
      "inputs": [
        {
          "internalType": "uint256",
          "name": "",
          "type": "uint256"
        }
      ],
      "name": "cancel",
      "outputs": [],
      "stateMutability": "pure",
      "type": "function"
    },
    {
      "inputs": [
        {
          "internalType": "uint256",
          "name": "proposalId",
          "type": "uint256"
        },
        {
          "internalType": "bool",
          "name": "support",
          "type": "bool"
        },
        {
          "internalType": "address",
          "name": "tokenAddress",
          "type": "address"
        },
        {
          "internalType": "uint256[]",
          "name": "tokenIds",
          "type": "uint256[]"
        }
      ],
      "name": "castVoteWithTokens",
      "outputs": [],
      "stateMutability": "nonpayable",
      "type": "function"
    },
    {
      "inputs": [
        {
          "internalType": "uint256",
          "name": "",
          "type": "uint256"
        }
      ],
      "name": "execute",
      "outputs": [],
      "stateMutability": "payable",
      "type": "function"
    },
    {
      "inputs": [],
      "name": "proposalCount",
      "outputs": [
        {
          "internalType": "uint256",
          "name": "",
          "type": "uint256"
        }
      ],
      "stateMutability": "view",
      "type": "function"
    },
    {
      "inputs": [
        {
          "internalType": "uint256",
          "name": "",
          "type": "uint256"
        }
      ],
      "name": "proposals",
      "outputs": [
        {
          "internalType": "uint256",
          "name": "id",
          "type": "uint256"
        },
        {
          "internalType": "address",
          "name": "proposer",
          "type": "address"
        },
        {
          "internalType": "uint64",
          "name": "startBlock",
          "type": "uint64"
        },
        {
          "internalType": "uint64",
          "name": "endBlock",
          "type": "uint64"
        },
        {
          "internalType": "uint256",
          "name": "forVotes",
          "type": "uint256"
        },
        {
          "internalType": "uint256",
          "name": "againstVotes",
          "type": "uint256"
        },
        {
          "internalType": "bool",
          "name": "executed",
          "type": "bool"
        },
        {
          "internalType": "bool",
          "name": "canceled",
          "type": "bool"
        },
        {
          "internalType": "bytes32",
          "name": "descriptionHash",
          "type": "bytes32"
        }
      ],
      "stateMutability": "view",
      "type": "function"
    },
    {
      "inputs": [
        {
          "internalType": "address[]",
          "name": "targets",
          "type": "address[]"
        },
        {
          "internalType": "uint256[]",
          "name": "values",
          "type": "uint256[]"
        },
        {
          "internalType": "bytes[]",
          "name": "calldatas",
          "type": "bytes[]"
        },
        {
          "internalType": "string",
          "name": "description",
          "type": "string"
        },
        {
          "internalType": "address",
          "name": "tokenAddress",
          "type": "address"
        },
        {
          "internalType": "uint256[]",
          "name": "tokenIds",
          "type": "uint256[]"
        },
        {
          "internalType": "bytes32",
          "name": "roleId",
          "type": "bytes32"
        }
      ],
      "name": "propose",
      "outputs": [
        {
          "internalType": "uint256",
          "name": "proposalId",
          "type": "uint256"
        }
      ],
      "stateMutability": "nonpayable",
      "type": "function"
    },
    {
      "inputs": [
        {
          "internalType": "uint256",
          "name": "",
          "type": "uint256"
        }
      ],
      "name": "queue",
      "outputs": [],
      "stateMutability": "pure",
      "type": "function"
    },
    {
      "inputs": [],
      "name": "rolesRegistry",
      "outputs": [
        {
          "internalType": "contract IRolesRegistry",
          "name": "",
          "type": "address"
        }
      ],
      "stateMutability": "view",
      "type": "function"
    },
    {
      "inputs": [
        {
          "internalType": "uint256",
          "name": "proposalId",
          "type": "uint256"
        }
      ],
      "name": "state",
      "outputs": [
        {
          "internalType": "uint8",
          "name": "",
          "type": "uint8"
        }
      ],
      "stateMutability": "view",
      "type": "function"
    },
    {
      "inputs": [
        {
          "internalType": "uint256",
          "name": "",
          "type": "uint256"
        },
        {
          "internalType": "bytes32",
          "name": "",
          "type": "bytes32"
        }
      ],
      "name": "tokenVoted",
      "outputs": [
        {
          "internalType": "bool",
          "name": "",
          "type": "bool"
        }
      ],
      "stateMutability": "view",
      "type": "function"
    },
    {
      "inputs": [
        {
          "internalType": "address",
          "name": "voter",
          "type": "address"
        },
        {
          "internalType": "address",
          "name": "tokenAddress",
          "type": "address"
        },
        {
          "internalType": "uint256[]",
          "name": "tokenIds",
          "type": "uint256[]"
        }
      ],
      "name": "votingPower",
      "outputs": [
        {
          "internalType": "uint256",
          "name": "",
          "type": "uint256"
        }
      ],
      "stateMutability": "view",
      "type": "function"
    }
  ],
  "bytecode": "0x60a034607457601f61141c38819003918201601f19168301916001600160401b03831184841017607957808492602094604052833981010312607457516001600160a01b038116810360745760805260405161138c908161009082396080518181816101d201528181610aed01526111fd0152f35b600080fd5b634e487b7160e01b600052604160045260246000fdfe608080604052600436101561001357600080fd5b60003560e01c908163013cf08b14610f1c575080631d63626e14610edd5780633e4f49e614610eb457806340e58ee5146100c15780637379b6b914610e0e5780639cbba81614610dd3578063a11ac6f914610b57578063a2efc05114610b1c578063b817341414610ad7578063d1663bce146100e4578063da35c664146100c6578063ddf0b009146100c15763fe0d94c1146100ae57600080fd5b60203660031901126100bc57005b600080fd5b610fb6565b346100bc5760003660031901126100bc576020600054604051908152f35b346100bc5760e03660031901126100bc576004356001600160401b0381116100bc57610114903690600401610fdd565b906024356001600160401b0381116100bc57610134903690600401610fdd565b916044356001600160401b0381116100bc57610154903690600401610fdd565b606493919335926001600160401b0384116100bc57366023850112156100bc576001600160401b038460040135116100bc573660248560040135860101116100bc576084356001600160a01b03811681036100bc5760a4356001600160401b0381116100bc576101c8903690600401610fdd565b6000929060c435907f00000000000000000000000000000000000000000000000000000000000000006001600160a01b031690855b818110610949575b50505050505015610904576000549560001987146108ee576001870160005560644301938443116108ee57610242368760040135602489016110ba565b602081519101206040519061018082018281106001600160401b038211176107c25760405260018a01825233602083015261027c8b611100565b6102896040519182611099565b8b8152602081018c60051b8701903682116100bc5787905b8282106108d65750505060408301526102b984611100565b6102c66040519182611099565b84815260208101368660051b8601116100bc5784905b8660051b860182106108c657505060608301526102f886611100565b6103056040519182611099565b86815260208101368860051b8c01116100bc578a905b8860051b8c01821061088a57505060808301526001600160401b03431660a08301526001600160401b03871660c0830152600060e0830152600061010083015260006101208301526000610140830152610160820152600189016000526001602052604060002090805182556001820160018060a01b036020830151166bffffffffffffffffffffffff60a01b825416179055600282016040820151908151916001600160401b0383116107c257600160401b83116107c2576020906103e68484548186558561112e565b0190600052602060002060005b83811061086d5750505050600382016060820151908151916001600160401b0383116107c257600160401b83116107c2576020906104368484548186558561112e565b0190600052602060002060005b83811061085957505050506080810151805190600160401b82116107c25760048401548260048601558083106107d8575b5060200190600484016000526020600020916000905b8282106106a35750505050610160600991600584016001600160401b0360a0830151168154906fffffffffffffffff000000000000000060c085015160401b16916fffffffffffffffffffffffffffffffff19161717905560e08101516006850155610100810151600785015560088401610120820151151560ff80198354169116178155610140820151151561ff0082549160081b169061ff0019161790550151910155604051988060c08b0160c08c525260e08a01939060005b81811061067d5750505088830360208a01528183526001600160fb1b0382116100bc578160059794971b90602084013760051b0193806020860160208988030160408a01525260408501906020808260051b880101019583600091601e1982360301905b84841061061f575060208a8a8a7f8a650dc2c8986a043e726146776316d3f7371907a11bb2b3fd6c5d736cd9a6dc8f6001600160401b038d814316606084015216608082015280840360a0820152806106113395600188019560248160040135910161118d565b0390a3600160405191018152f35b90919293949598601f19601f19838303010187528935838112156100bc57840190602082359201916001600160401b0381116100bc5780360383136100bc5761066e602092839260019561118d565b9b0197019594019291906105aa565b909194602080600192838060a01b036106958a610fc9565b168152019601929101610546565b80518051906001600160401b0382116107c2576106c08654611153565b601f8111610785575b50602090601f831160011461071657928260019493602093869560009261070b575b5050600019600383901b1c191690841b1787555b0194019101909261048a565b0151905038806106eb565b9086600052806000209160005b601f198516811061076d575083602093600196938796938794601f19811610610754575b505050811b0187556106ff565b015160001960f88460031b161c19169055388080610747565b91926020600181928685015181550194019201610723565b6107b290876000526020600020601f850160051c810191602086106107b8575b601f0160051c0190611117565b386106c9565b90915081906107a5565b634e487b7160e01b600052604160045260246000fd5b6004850160005282602060002091820191015b8181106107f85750610474565b8061080560019254611153565b80610812575b50016107eb565b601f811183146108285750600081555b3861080b565b610846908260005283601f6020600020920160051c82019101611117565b8060005260006020812081835555610822565b600190602084519401938184015501610443565b82516001600160a01b0316818301556020909201916001016103f3565b81356001600160401b0381116100bc578c0136601f820112156100bc576020916108bb8392369084813591016110ba565b81520191019061031b565b81358152602091820191016102dc565b602080916108e384610fc9565b8152019101906102a1565b634e487b7160e01b600052601160045260246000fd5b60405162461bcd60e51b815260206004820152601960248201527f4e6f7420617574686f72697a656420746f2070726f706f7365000000000000006044820152606490fd5b610954818388611066565b6040516307f22d6960e31b81526001600160a01b03871660048201529035602482018190526044820186905290600090602081606481895afa908115610acc579087918391610a88575b506001600160a01b0316331492836109d4575b5050506109c0576001016101fd565b505050505050506001888080808080610205565b6040516365b0205b60e01b81526001600160a01b038a166004820152602481019190915260448101919091529150602082606481885afa918215610a7b578192610a2f575b50506001600160401b03429116118f85816109b1565b9091506020813d8211610a73575b81610a4a60209383611099565b81010312610a6f5751906001600160401b0382168203610a6c57508f80610a19565b80fd5b5080fd5b3d9150610a3d565b50604051903d90823e3d90fd5b9150506020813d8211610ac4575b81610aa360209383611099565b81010312610a6f57516001600160a01b0381168103610a6f5786903861099e565b3d9150610a96565b6040513d84823e3d90fd5b346100bc5760003660031901126100bc576040517f00000000000000000000000000000000000000000000000000000000000000006001600160a01b03168152602090f35b346100bc5760003660031901126100bc5760206040517f60d0605fc7f4de1fafbf65dc99c11f6c55017934a3db5adf39f43b5fb1584b6b8152f35b346100bc5760803660031901126100bc57600435602435801515908181036100bc576044356001600160a01b03811681036100bc576064356001600160401b0381116100bc57610bab903690600401610fdd565b929085600052600160205260406000209260058401546001600160401b0381164310159081610dbc575b5015610d8757939060009485926bffffffffffffffffffffffff198260601b16925b818510610c63575050505050600014610c4e57600601610c1882825461108c565b90555b60405191825260208201527f877856338e13f63d0c36822ff0ef736b80934cd90574a3a5bc9262c39d217c4660403392a3005b600701610c5c82825461108c565b9055610c1b565b9091929396610c73888484611066565b356040516020810191878352603482015260348152610c93605482611099565b5190208a600052600260205260406000208160005260205260ff60406000205416610d4c57610cce33610cc78b8787611066565b35876111ae565b15610d10578a60005260026020526040600020906000526020526040600020600160ff19825416179055600181018091116108ee579660010193929190610bf7565b60405162461bcd60e51b81526020600482015260146024820152732737ba1030baba3437b934bd32b2103b37ba32b960611b6044820152606490fd5b60405162461bcd60e51b8152602060048201526013602482015272151bdad95b88185b1c9958591e481d9bdd1959606a1b6044820152606490fd5b60405162461bcd60e51b815260206004820152600d60248201526c159bdd1a5b99c818db1bdcd959609a1b6044820152606490fd5b6001600160401b03915060401c1643111588610bd5565b346100bc5760003660031901126100bc5760206040517ff988e97773184b46d7f313432b779968e255a7f55248182ba5b775b407a9c7918152f35b346100bc5760603660031901126100bc576004356001600160a01b03811681036100bc576024356001600160a01b03811681036100bc576044356001600160401b0381116100bc57610e64903690600401610fdd565b92909160009360005b818110610e7f57602086604051908152f35b610e9584610e8e838589611066565b35856111ae565b610ea2575b600101610e6d565b94600181018091116108ee5794610e9a565b346100bc5760203660031901126100bc576020610ed260043561100d565b60ff60405191168152f35b346100bc5760403660031901126100bc5760043560005260026020526040600020602435600052602052602060ff604060002054166040519015158152f35b346100bc5760203660031901126100bc57610120906004356000526001602052604060002060ff81549160018060a01b0360018201541660058201546001600160401b03600684015491600785015493600960088701549601549789526020890152818116604089015260401c166060870152608086015260a0850152818116151560c085015260081c16151560e0830152610100820152f35b346100bc5760203660031901126100bc57005b35906001600160a01b03821682036100bc57565b9181601f840112156100bc578235916001600160401b0383116100bc576020808501948460051b0101116100bc57565b6000526001602052604060002060ff600882015460081c1661106057600501546001600160401b038116431061105a5760401c6001600160401b031643111561105557600390565b600190565b50600090565b50600290565b91908110156110765760051b0190565b634e487b7160e01b600052603260045260246000fd5b919082018092116108ee57565b90601f801991011681019081106001600160401b038211176107c257604052565b9291926001600160401b0382116107c257604051916110e3601f8201601f191660200184611099565b8294818452818301116100bc578281602093846000960137010152565b6001600160401b0381116107c25760051b60200190565b818110611122575050565b60008155600101611117565b9181811061113b57505050565b6111519260005260206000209182019101611117565b565b90600182811c92168015611183575b602083101461116d57565b634e487b7160e01b600052602260045260246000fd5b91607f1691611162565b908060209392818452848401376000828201840152601f01601f1916010190565b6040516307f22d6960e31b81526001600160a01b0391821660048201819052602482018490527ff988e97773184b46d7f313432b779968e255a7f55248182ba5b775b407a9c7916044830152937f0000000000000000000000000000000000000000000000000000000000000000909216929190602081606481875afa90811561130857600091611314575b506001600160a01b039081169116149283611256575b50505090565b602092935060649060405194859384926365b0205b60e01b8452600484015260248301527ff988e97773184b46d7f313432b779968e255a7f55248182ba5b775b407a9c79160448301525afa908115611308576000916112c6575b506001600160401b0342911611388080611250565b6020813d602011611300575b816112df60209383611099565b81010312610a6f5751906001600160401b0382168203610a6c5750386112b1565b3d91506112d2565b6040513d6000823e3d90fd5b6020813d60201161134e575b8161132d60209383611099565b81010312610a6f5751906001600160a01b0382168203610a6c57503861123a565b3d915061132056fea2646970667358221220094dbb8ddc67df1b037203cbd35e2ce97840e616bb581ef523d1adfa0a242f1264736f6c634300081e0033",
  "linkReferences": {},
  "deployedLinkReferences": {}
}