{
  "_format": "hh-sol-artifact-1",
  "contractName": "EventTicketing",
  "sourceName": "contracts/EventTicketing.sol",
  "abi": [
    {
      "inputs": [],
      "stateMutability": "nonpayable",
      "type": "constructor"
    },
    {
      "inputs": [],
      "name": "AlreadyRedeemed",
      "type": "error"
    },
    {
      "inputs": [
        {
          "internalType": "address",
          "name": "sender",
          "type": "address"
        },
        {
          "internalType": "uint256",
          "name": "tokenId",
          "type": "uint256"
        },
        {
          "internalType": "address",
          "name": "owner",
          "type": "address"
        }
      ],
      "name": "ERC721IncorrectOwner",
      "type": "error"
    },
    {
      "inputs": [
        {
          "internalType": "address",
          "name": "operator",
          "type": "address"
        },
        {
          "internalType": "uint256",
          "name": "tokenId",
          "type": "uint256"
        }
      ],
      "name": "ERC721InsufficientApproval",
      "type": "error"
    },
    {
      "inputs": [
        {
          "internalType": "address",
          "name": "approver",
          "type": "address"
        }
      ],
      "name": "ERC721InvalidApprover",
      "type": "error"
    },
    {
      "inputs": [
        {
          "internalType": "address",
          "name": "operator",
          "type": "address"
        }
      ],
      "name": "ERC721InvalidOperator",
      "type": "error"
    },
    {
      "inputs": [
        {
          "internalType": "address",
          "name": "owner",
          "type": "address"
        }
      ],
      "name": "ERC721InvalidOwner",
      "type": "error"
    },
    {
      "inputs": [
        {
          "internalType": "address",
          "name": "receiver",
          "type": "address"
        }
      ],
      "name": "ERC721InvalidReceiver",
      "type": "error"
    },
    {
      "inputs": [
        {
          "internalType": "address",
          "name": "sender",
          "type": "address"
        }
      ],
      "name": "ERC721InvalidSender",
      "type": "error"
    },
    {
      "inputs": [
        {
          "internalType": "uint256",
          "name": "tokenId",
          "type": "uint256"
        }
      ],
      "name": "ERC721NonexistentToken",
      "type": "error"
    },
    {
      "inputs": [],
      "name": "EventNotActive",
      "type": "error"
    },
    {
      "inputs": [
        {
          "internalType": "string",
          "name": "reason",
          "type": "string"
        }
      ],
      "name": "InvalidInput",
      "type": "error"
    },
    {
      "inputs": [],
      "name": "InvalidPayment",
      "type": "error"
    },
    {
      "inputs": [],
      "name": "NotEventOwner",
      "type": "error"
    },
    {
      "inputs": [],
      "name": "NotSuperAdmin",
      "type": "error"
    },
    {
      "inputs": [],
      "name": "NotTicketOwner",
      "type": "error"
    },
    {
      "inputs": [],
      "name": "SoldOut",
      "type": "error"
    },
    {
      "anonymous": false,
      "inputs": [
        {
          "indexed": true,
          "internalType": "address",
          "name": "admin",
          "type": "address"
        }
      ],
      "name": "AdminAdded",
      "type": "event"
    },
    {
      "anonymous": false,
      "inputs": [
        {
          "indexed": true,
          "internalType": "address",
          "name": "admin",
          "type": "address"
        }
      ],
      "name": "AdminRemoved",
      "type": "event"
    },
    {
      "anonymous": false,
      "inputs": [
        {
          "indexed": true,
          "internalType": "address",
          "name": "owner",
          "type": "address"
        },
        {
          "indexed": true,
          "internalType": "address",
          "name": "approved",
          "type": "address"
        },
        {
          "indexed": true,
          "internalType": "uint256",
          "name": "tokenId",
          "type": "uint256"
        }
      ],
      "name": "Approval",
      "type": "event"
    },
    {
      "anonymous": false,
      "inputs": [
        {
          "indexed": true,
          "internalType": "address",
          "name": "owner",
          "type": "address"
        },
        {
          "indexed": true,
          "internalType": "address",
          "name": "operator",
          "type": "address"
        },
        {
          "indexed": false,
          "internalType": "bool",
          "name": "approved",
          "type": "bool"
        }
      ],
      "name": "ApprovalForAll",
      "type": "event"
    },
    {
      "anonymous": false,
      "inputs": [
        {
          "indexed": false,
          "internalType": "uint256",
          "name": "_fromTokenId",
          "type": "uint256"
        },
        {
          "indexed": false,
          "internalType": "uint256",
          "name": "_toTokenId",
          "type": "uint256"
        }
      ],
      "name": "BatchMetadataUpdate",
      "type": "event"
    },
    {
      "anonymous": false,
      "inputs": [
        {
          "indexed": true,
          "internalType": "uint256",
          "name": "eventId",
          "type": "uint256"
        },
        {
          "indexed": false,
          "internalType": "string",
          "name": "title",
          "type": "string"
        }
      ],
      "name": "EventCreated",
      "type": "event"
    },
    {
      "anonymous": false,
      "inputs": [
        {
          "indexed": true,
          "internalType": "uint256",
          "name": "eventId",
          "type": "uint256"
        },
        {
          "indexed": false,
          "internalType": "bool",
          "name": "isActive",
          "type": "bool"
        }
      ],
      "name": "EventStatusModified",
      "type": "event"
    },
    {
      "anonymous": false,
      "inputs": [
        {
          "indexed": true,
          "internalType": "uint256",
          "name": "eventId",
          "type": "uint256"
        },
        {
          "indexed": false,
          "internalType": "string",
          "name": "title",
          "type": "string"
        }
      ],
      "name": "EventUpdated",
      "type": "event"
    },
    {
      "anonymous": false,
      "inputs": [
        {
          "indexed": false,
          "internalType": "uint256",
          "name": "_tokenId",
          "type": "uint256"
        }
      ],
      "name": "MetadataUpdate",
      "type": "event"
    },
    {
      "anonymous": false,
      "inputs": [
        {
          "indexed": true,
          "internalType": "uint256",
          "name": "tokenId",
          "type": "uint256"
        },
        {
          "indexed": true,
          "internalType": "address",
          "name": "to",
          "type": "address"
        }
      ],
      "name": "TicketMinted",
      "type": "event"
    },
    {
      "anonymous": false,
      "inputs": [
        {
          "indexed": true,
          "internalType": "uint256",
          "name": "tokenId",
          "type": "uint256"
        },
        {
          "indexed": true,
          "internalType": "address",
          "name": "user",
          "type": "address"
        }
      ],
      "name": "TicketRedeemed",
      "type": "event"
    },
    {
      "anonymous": false,
      "inputs": [
        {
          "indexed": true,
          "internalType": "uint256",
          "name": "ticketTypeId",
          "type": "uint256"
        },
        {
          "indexed": true,
          "internalType": "uint256",
          "name": "eventId",
          "type": "uint256"
        },
        {
          "indexed": false,
          "internalType": "string",
          "name": "name",
          "type": "string"
        }
      ],
      "name": "TicketTypeCreated",
      "type": "event"
    },
    {
      "anonymous": false,
      "inputs": [
        {
          "indexed": true,
          "internalType": "address",
          "name": "from",
          "type": "address"
        },
        {
          "indexed": true,
          "internalType": "address",
          "name": "to",
          "type": "address"
        },
        {
          "indexed": true,
          "internalType": "uint256",
          "name": "tokenId",
          "type": "uint256"
        }
      ],
      "name": "Transfer",
      "type": "event"
    },
    {
      "inputs": [
        {
          "internalType": "address",
          "name": "admin",
          "type": "address"
        }
      ],
      "name": "addAdmin",
      "outputs": [],
      "stateMutability": "nonpayable",
      "type": "function"
    },
    {
      "inputs": [
        {
          "internalType": "address",
          "name": "userAddress",
          "type": "address"
        }
      ],
      "name": "admins",
      "outputs": [
        {
          "internalType": "bool",
          "name": "",
          "type": "bool"
        }
      ],
      "stateMutability": "view",
      "type": "function"
    },
    {
      "inputs": [
        {
          "internalType": "address",
          "name": "to",
          "type": "address"
        },
        {
          "internalType": "uint256",
          "name": "tokenId",
          "type": "uint256"
        }
      ],
      "name": "approve",
      "outputs": [],
      "stateMutability": "nonpayable",
      "type": "function"
    },
    {
      "inputs": [
        {
          "internalType": "address",
          "name": "owner",
          "type": "address"
        }
      ],
      "name": "balanceOf",
      "outputs": [
        {
          "internalType": "uint256",
          "name": "",
          "type": "uint256"
        }
      ],
      "stateMutability": "view",
      "type": "function"
    },
    {
      "inputs": [
        {
          "internalType": "string",
          "name": "title",
          "type": "string"
        },
        {
          "internalType": "string",
          "name": "imageUrl",
          "type": "string"
        },
        {
          "internalType": "string",
          "name": "location",
          "type": "string"
        },
        {
          "internalType": "string",
          "name": "description",
          "type": "string"
        },
        {
          "internalType": "uint256",
          "name": "eventDate",
          "type": "uint256"
        }
      ],
      "name": "createEvent",
      "outputs": [
        {
          "internalType": "uint256",
          "name": "",
          "type": "uint256"
        }
      ],
      "stateMutability": "nonpayable",
      "type": "function"
    },
    {
      "inputs": [
        {
          "internalType": "uint256",
          "name": "eventId",
          "type": "uint256"
        },
        {
          "internalType": "string",
          "name": "name",
          "type": "string"
        },
        {
          "internalType": "uint256",
          "name": "price",
          "type": "uint256"
        },
        {
          "internalType": "uint256",
          "name": "totalSupply",
          "type": "uint256"
        },
        {
          "internalType": "string",
          "name": "baseURI",
          "type": "string"
        }
      ],
      "name": "createTicketType",
      "outputs": [],
      "stateMutability": "nonpayable",
      "type": "function"
    },
    {
      "inputs": [
        {
          "internalType": "uint256",
          "name": "eventId",
          "type": "uint256"
        },
        {
          "internalType": "uint256",
          "name": "",
          "type": "uint256"
        }
      ],
      "name": "eventTicketTypes",
      "outputs": [
        {
          "internalType": "uint256",
          "name": "",
          "type": "uint256"
        }
      ],
      "stateMutability": "view",
      "type": "function"
    },
    {
      "inputs": [
        {
          "internalType": "uint256",
          "name": "eventId",
          "type": "uint256"
        }
      ],
      "name": "events",
      "outputs": [
        {
          "internalType": "uint256",
          "name": "id",
          "type": "uint256"
        },
        {
          "internalType": "string",
          "name": "title",
          "type": "string"
        },
        {
          "internalType": "string",
          "name": "imageUrl",
          "type": "string"
        },
        {
          "internalType": "string",
          "name": "location",
          "type": "string"
        },
        {
          "internalType": "string",
          "name": "description",
          "type": "string"
        },
        {
          "internalType": "uint256",
          "name": "eventDate",
          "type": "uint256"
        },
        {
          "internalType": "address",
          "name": "organizer",
          "type": "address"
        },
        {
          "internalType": "bool",
          "name": "isActive",
          "type": "bool"
        }
      ],
      "stateMutability": "view",
      "type": "function"
    },
    {
      "inputs": [
        {
          "internalType": "uint256",
          "name": "tokenId",
          "type": "uint256"
        }
      ],
      "name": "getApproved",
      "outputs": [
        {
          "internalType": "address",
          "name": "",
          "type": "address"
        }
      ],
      "stateMutability": "view",
      "type": "function"
    },
    {
      "inputs": [
        {
          "internalType": "address",
          "name": "owner",
          "type": "address"
        },
        {
          "internalType": "address",
          "name": "operator",
          "type": "address"
        }
      ],
      "name": "isApprovedForAll",
      "outputs": [
        {
          "internalType": "bool",
          "name": "",
          "type": "bool"
        }
      ],
      "stateMutability": "view",
      "type": "function"
    },
    {
      "inputs": [
        {
          "internalType": "uint256",
          "name": "ticketTypeId",
          "type": "uint256"
        }
      ],
      "name": "mintTicket",
      "outputs": [],
      "stateMutability": "payable",
      "type": "function"
    },
    {
      "inputs": [
        {
          "internalType": "uint256",
          "name": "eventId",
          "type": "uint256"
        },
        {
          "internalType": "bool",
          "name": "isActive",
          "type": "bool"
        }
      ],
      "name": "modifyEventStatus",
      "outputs": [],
      "stateMutability": "nonpayable",
      "type": "function"
    },
    {
      "inputs": [],
      "name": "name",
      "outputs": [
        {
          "internalType": "string",
          "name": "",
          "type": "string"
        }
      ],
      "stateMutability": "view",
      "type": "function"
    },
    {
      "inputs": [],
      "name": "nextEventId",
      "outputs": [
        {
          "internalType": "uint256",
          "name": "",
          "type": "uint256"
        }
      ],
      "stateMutability": "view",
      "type": "function"
    },
    {
      "inputs": [],
      "name": "nextTicketTypeId",
      "outputs": [
        {
          "internalType": "uint256",
          "name": "",
          "type": "uint256"
        }
      ],
      "stateMutability": "view",
      "type": "function"
    },
    {
      "inputs": [],
      "name": "nextTokenId",
      "outputs": [
        {
          "internalType": "uint256",
          "name": "",
          "type": "uint256"
        }
      ],
      "stateMutability": "view",
      "type": "function"
    },
    {
      "inputs": [
        {
          "internalType": "uint256",
          "name": "tokenId",
          "type": "uint256"
        }
      ],
      "name": "ownerOf",
      "outputs": [
        {
          "internalType": "address",
          "name": "",
          "type": "address"
        }
      ],
      "stateMutability": "view",
      "type": "function"
    },
    {
      "inputs": [
        {
          "internalType": "uint256",
          "name": "tokenId",
          "type": "uint256"
        }
      ],
      "name": "redeemTicket",
      "outputs": [],
      "stateMutability": "nonpayable",
      "type": "function"
    },
    {
      "inputs": [
        {
          "internalType": "address",
          "name": "admin",
          "type": "address"
        }
      ],
      "name": "removeAdmin",
      "outputs": [],
      "stateMutability": "nonpayable",
      "type": "function"
    },
    {
      "inputs": [
        {
          "internalType": "address",
          "name": "from",
          "type": "address"
        },
        {
          "internalType": "address",
          "name": "to",
          "type": "address"
        },
        {
          "internalType": "uint256",
          "name": "tokenId",
          "type": "uint256"
        }
      ],
      "name": "safeTransferFrom",
      "outputs": [],
      "stateMutability": "nonpayable",
      "type": "function"
    },
    {
      "inputs": [
        {
          "internalType": "address",
          "name": "from",
          "type": "address"
        },
        {
          "internalType": "address",
          "name": "to",
          "type": "address"
        },
        {
          "internalType": "uint256",
          "name": "tokenId",
          "type": "uint256"
        },
        {
          "internalType": "bytes",
          "name": "data",
          "type": "bytes"
        }
      ],
      "name": "safeTransferFrom",
      "outputs": [],
      "stateMutability": "nonpayable",
      "type": "function"
    },
    {
      "inputs": [
        {
          "internalType": "address",
          "name": "operator",
          "type": "address"
        },
        {
          "internalType": "bool",
          "name": "approved",
          "type": "bool"
        }
      ],
      "name": "setApprovalForAll",
      "outputs": [],
      "stateMutability": "nonpayable",
      "type": "function"
    },
    {
      "inputs": [],
      "name": "superAdmin",
      "outputs": [
        {
          "internalType": "address",
          "name": "",
          "type": "address"
        }
      ],
      "stateMutability": "view",
      "type": "function"
    },
    {
      "inputs": [
        {
          "internalType": "bytes4",
          "name": "interfaceId",
          "type": "bytes4"
        }
      ],
      "name": "supportsInterface",
      "outputs": [
        {
          "internalType": "bool",
          "name": "",
          "type": "bool"
        }
      ],
      "stateMutability": "view",
      "type": "function"
    },
    {
      "inputs": [],
      "name": "symbol",
      "outputs": [
        {
          "internalType": "string",
          "name": "",
          "type": "string"
        }
      ],
      "stateMutability": "view",
      "type": "function"
    },
    {
      "inputs": [
        {
          "internalType": "uint256",
          "name": "ticketTypeId",
          "type": "uint256"
        }
      ],
      "name": "ticketTypes",
      "outputs": [
        {
          "internalType": "uint256",
          "name": "id",
          "type": "uint256"
        },
        {
          "internalType": "uint256",
          "name": "eventId",
          "type": "uint256"
        },
        {
          "internalType": "string",
          "name": "name",
          "type": "string"
        },
        {
          "internalType": "uint256",
          "name": "price",
          "type": "uint256"
        },
        {
          "internalType": "uint256",
          "name": "totalSupply",
          "type": "uint256"
        },
        {
          "internalType": "uint256",
          "name": "minted",
          "type": "uint256"
        },
        {
          "internalType": "string",
          "name": "baseURI",
          "type": "string"
        }
      ],
      "stateMutability": "view",
      "type": "function"
    },
    {
      "inputs": [
        {
          "internalType": "uint256",
          "name": "tokenId",
          "type": "uint256"
        }
      ],
      "name": "tickets",
      "outputs": [
        {
          "internalType": "uint256",
          "name": "eventId",
          "type": "uint256"
        },
        {
          "internalType": "uint256",
          "name": "ticketTypeId",
          "type": "uint256"
        },
        {
          "internalType": "bool",
          "name": "isRedeemed",
          "type": "bool"
        }
      ],
      "stateMutability": "view",
      "type": "function"
    },
    {
      "inputs": [
        {
          "internalType": "uint256",
          "name": "tokenId",
          "type": "uint256"
        }
      ],
      "name": "tokenURI",
      "outputs": [
        {
          "internalType": "string",
          "name": "",
          "type": "string"
        }
      ],
      "stateMutability": "view",
      "type": "function"
    },
    {
      "inputs": [
        {
          "internalType": "address",
          "name": "from",
          "type": "address"
        },
        {
          "internalType": "address",
          "name": "to",
          "type": "address"
        },
        {
          "internalType": "uint256",
          "name": "tokenId",
          "type": "uint256"
        }
      ],
      "name": "transferFrom",
      "outputs": [],
      "stateMutability": "nonpayable",
      "type": "function"
    },
    {
      "inputs": [
        {
          "internalType": "uint256",
          "name": "eventId",
          "type": "uint256"
        },
        {
          "internalType": "string",
          "name": "title",
          "type": "string"
        },
        {
          "internalType": "string",
          "name": "imageUrl",
          "type": "string"
        },
        {
          "internalType": "string",
          "name": "location",
          "type": "string"
        },
        {
          "internalType": "string",
          "name": "description",
          "type": "string"
        },
        {
          "internalType": "uint256",
          "name": "eventDate",
          "type": "uint256"
        }
      ],
      "name": "updateEvent",
      "outputs": [],
      "stateMutability": "nonpayable",
      "type": "function"
    },
    {
      "inputs": [
        {
          "internalType": "address",
          "name": "userAddress",
          "type": "address"
        },
        {
          "internalType": "uint256",
          "name": "",
          "type": "uint256"
        }
      ],
      "name": "userTickets",
      "outputs": [
        {
          "internalType": "uint256",
          "name": "",
          "type": "uint256"
        }
      ],
      "stateMutability": "view",
      "type": "function"
    }
  ],
  "bytecode": "0x608060405234801561001057600080fd5b506040518060400160405280600b81526020017f4576656e745469636b65740000000000000000000000000000000000000000008152506040518060400160405280600481526020017f45544b540000000000000000000000000000000000000000000000000000000081525081600a908161008c9190610334565b5080600b908161009c9190610334565b505050336000806101000a81548173ffffffffffffffffffffffffffffffffffffffff021916908373ffffffffffffffffffffffffffffffffffffffff160217905550610406565b600081519050919050565b7f4e487b7100000000000000000000000000000000000000000000000000000000600052604160045260246000fd5b7f4e487b7100000000000000000000000000000000000000000000000000000000600052602260045260246000fd5b6000600282049050600182168061016557607f821691505b6020821081036101785761017761011e565b5b50919050565b60008190508160005260206000209050919050565b60006020601f8301049050919050565b600082821b905092915050565b6000600883026101e07fffffffffffffffffffffffffffffffffffffffffffffffffffffffffffffffff826101a3565b6101ea86836101a3565b95508019841693508086168417925050509392505050565b6000819050919050565b6000819050919050565b600061023161022c61022784610202565b61020c565b610202565b9050919050565b6000819050919050565b61024b83610216565b61025f61025782610238565b8484546101b0565b825550505050565b600090565b610274610267565b61027f818484610242565b505050565b5b818110156102a35761029860008261026c565b600181019050610285565b5050565b601f8211156102e8576102b98161017e565b6102c284610193565b810160208510156102d1578190505b6102e56102dd85610193565b830182610284565b50505b505050565b600082821c905092915050565b600061030b600019846008026102ed565b1980831691505092915050565b600061032483836102fa565b9150826002028217905092915050565b61033d826100e4565b67ffffffffffffffff811115610356576103556100ef565b5b610360825461014d565b61036b8282856102a7565b600060209050601f83116001811461039e576000841561038c578287015190505b6103968582610318565b8655506103fe565b601f1984166103ac8661017e565b60005b828110156103d4578489015182556001820191506020850194506020810190506103af565b868310156103f157848901516103ed601f8916826102fa565b8355505b6001600288020188555050505b505050505050565b614735806104156000396000f3fe6080604052600436106101d85760003560e01c80636352211e11610102578063a31a2d5511610095578063c87b56dd11610064578063c87b56dd146106ec578063cf260baf14610729578063e985e9c514610766578063e9dbebce146107a3576101d8565b8063a31a2d5514610634578063b3d76d491461065d578063b88d4fde14610686578063bdcf5b8e146106af576101d8565b806375794a3c116100d157806375794a3c1461058a57806395d89b41146105b55780639f9d903a146105e0578063a22cb4651461060b576101d8565b80636352211e146104bc5780636520f171146104f9578063704802751461052457806370a082311461054d576101d8565b806323b872dd1161017a5780633c58f970116101495780633c58f970146103ee57806342842e0e14610417578063429b62e51461044057806350b447121461047d576101d8565b806323b872dd14610341578063256d52f61461036a57806329575f6a14610386578063365f6281146103b1576101d8565b8063095ea7b3116101b6578063095ea7b3146102825780630b791430146102ab57806315f59d7f146102ef5780631785f53c14610318576101d8565b806301ffc9a7146101dd57806306fdde031461021a578063081812fc14610245575b600080fd5b3480156101e957600080fd5b5061020460048036038101906101ff9190613444565b6107e6565b604051610211919061348c565b60405180910390f35b34801561022657600080fd5b5061022f610847565b60405161023c9190613537565b60405180910390f35b34801561025157600080fd5b5061026c6004803603810190610267919061358f565b6108d9565b60405161027991906135fd565b60405180910390f35b34801561028e57600080fd5b506102a960048036038101906102a49190613644565b6108f5565b005b3480156102b757600080fd5b506102d260048036038101906102cd919061358f565b61090b565b6040516102e6989796959493929190613693565b60405180910390f35b3480156102fb57600080fd5b506103166004803603810190610311919061358f565b610ba0565b005b34801561032457600080fd5b5061033f600480360381019061033a919061372d565b610e10565b005b34801561034d57600080fd5b506103686004803603810190610363919061375a565b610f33565b005b610384600480360381019061037f919061358f565b611035565b005b34801561039257600080fd5b5061039b6113ea565b6040516103a891906135fd565b60405180910390f35b3480156103bd57600080fd5b506103d860048036038101906103d391906137ad565b61140e565b6040516103e591906137ed565b60405180910390f35b3480156103fa57600080fd5b506104156004803603810190610410919061393d565b61143f565b005b34801561042357600080fd5b5061043e6004803603810190610439919061375a565b6116e1565b005b34801561044c57600080fd5b506104676004803603810190610462919061372d565b611701565b604051610474919061348c565b60405180910390f35b34801561048957600080fd5b506104a4600480360381019061049f919061358f565b611721565b6040516104b393929190613a3a565b60405180910390f35b3480156104c857600080fd5b506104e360048036038101906104de919061358f565b611758565b6040516104f091906135fd565b60405180910390f35b34801561050557600080fd5b5061050e61176a565b60405161051b91906137ed565b60405180910390f35b34801561053057600080fd5b5061054b6004803603810190610546919061372d565b611770565b005b34801561055957600080fd5b50610574600480360381019061056f919061372d565b611893565b60405161058191906137ed565b60405180910390f35b34801561059657600080fd5b5061059f61194d565b6040516105ac91906137ed565b60405180910390f35b3480156105c157600080fd5b506105ca611953565b6040516105d79190613537565b60405180910390f35b3480156105ec57600080fd5b506105f56119e5565b60405161060291906137ed565b60405180910390f35b34801561061757600080fd5b50610632600480360381019061062d9190613a9d565b6119eb565b005b34801561064057600080fd5b5061065b60048036038101906106569190613add565b611a01565b005b34801561066957600080fd5b50610684600480360381019061067f9190613b1d565b611baf565b005b34801561069257600080fd5b506106ad60048036038101906106a89190613c71565b611f12565b005b3480156106bb57600080fd5b506106d660048036038101906106d19190613cf4565b611f37565b6040516106e391906137ed565b60405180910390f35b3480156106f857600080fd5b50610713600480360381019061070e919061358f565b61218a565b6040516107209190613537565b60405180910390f35b34801561073557600080fd5b50610750600480360381019061074b9190613644565b61229d565b60405161075d91906137ed565b60405180910390f35b34801561077257600080fd5b5061078d60048036038101906107889190613ddf565b6122ce565b60405161079a919061348c565b60405180910390f35b3480156107af57600080fd5b506107ca60048036038101906107c5919061358f565b612362565b6040516107dd9796959493929190613e1f565b60405180910390f35b6000634906490660e01b7bffffffffffffffffffffffffffffffffffffffffffffffffffffffff1916827bffffffffffffffffffffffffffffffffffffffffffffffffffffffff19161480610840575061083f826124b4565b5b9050919050565b6060600a805461085690613ecb565b80601f016020809104026020016040519081016040528092919081815260200182805461088290613ecb565b80156108cf5780601f106108a4576101008083540402835291602001916108cf565b820191906000526020600020905b8154815290600101906020018083116108b257829003601f168201915b5050505050905090565b60006108e482612596565b506108ee8261261e565b9050919050565b610907828261090261265b565b612663565b5050565b600460205280600052604060002060009150905080600001549080600101805461093490613ecb565b80601f016020809104026020016040519081016040528092919081815260200182805461096090613ecb565b80156109ad5780601f10610982576101008083540402835291602001916109ad565b820191906000526020600020905b81548152906001019060200180831161099057829003601f168201915b5050505050908060020180546109c290613ecb565b80601f01602080910402602001604051908101604052809291908181526020018280546109ee90613ecb565b8015610a3b5780601f10610a1057610100808354040283529160200191610a3b565b820191906000526020600020905b815481529060010190602001808311610a1e57829003601f168201915b505050505090806003018054610a5090613ecb565b80601f0160208091040260200160405190810160405280929190818152602001828054610a7c90613ecb565b8015610ac95780601f10610a9e57610100808354040283529160200191610ac9565b820191906000526020600020905b815481529060010190602001808311610aac57829003601f168201915b505050505090806004018054610ade90613ecb565b80601f0160208091040260200160405190810160405280929190818152602001828054610b0a90613ecb565b8015610b575780601f10610b2c57610100808354040283529160200191610b57565b820191906000526020600020905b815481529060010190602001808311610b3a57829003601f168201915b5050505050908060050154908060060160009054906101000a900473ffffffffffffffffffffffffffffffffffffffff16908060060160149054906101000a900460ff16905088565b6007600082815260200190815260200160002060000154600073ffffffffffffffffffffffffffffffffffffffff166004600083815260200190815260200160002060060160009054906101000a900473ffffffffffffffffffffffffffffffffffffffff1673ffffffffffffffffffffffffffffffffffffffff1603610c5c576040517fd647364f000000000000000000000000000000000000000000000000000000008152600401610c5390613f48565b60405180910390fd5b813373ffffffffffffffffffffffffffffffffffffffff163073ffffffffffffffffffffffffffffffffffffffff16636352211e836040518263ffffffff1660e01b8152600401610cad91906137ed565b602060405180830381865afa158015610cca573d6000803e3d6000fd5b505050506040513d601f19601f82011682018060405250810190610cee9190613f7d565b73ffffffffffffffffffffffffffffffffffffffff1614610d3b576040517fe18d39ad00000000000000000000000000000000000000000000000000000000815260040160405180910390fd5b826007600082815260200190815260200160002060020160009054906101000a900460ff1615610d97576040517f1b4e0c3c00000000000000000000000000000000000000000000000000000000815260040160405180910390fd5b60016007600086815260200190815260200160002060020160006101000a81548160ff0219169083151502179055503373ffffffffffffffffffffffffffffffffffffffff16847f716bb19bdc2c35c51f08204334d6e0362bbe5428bbda94d186a1f2c8fa87b10c60405160405180910390a350505050565b60008054906101000a900473ffffffffffffffffffffffffffffffffffffffff1673ffffffffffffffffffffffffffffffffffffffff163373ffffffffffffffffffffffffffffffffffffffff1614610e95576040517f16c726b100000000000000000000000000000000000000000000000000000000815260040160405180910390fd5b6000600960008373ffffffffffffffffffffffffffffffffffffffff1673ffffffffffffffffffffffffffffffffffffffff16815260200190815260200160002060006101000a81548160ff0219169083151502179055508073ffffffffffffffffffffffffffffffffffffffff167fa3b62bc36326052d97ea62d63c3d60308ed4c3ea8ac079dd8499f1e9c4f80c0f60405160405180910390a250565b600073ffffffffffffffffffffffffffffffffffffffff168273ffffffffffffffffffffffffffffffffffffffff1603610fa55760006040517f64a0ae92000000000000000000000000000000000000000000000000000000008152600401610f9c91906135fd565b60405180910390fd5b6000610fb98383610fb461265b565b612675565b90508373ffffffffffffffffffffffffffffffffffffffff168173ffffffffffffffffffffffffffffffffffffffff161461102f578382826040517f64283d7b00000000000000000000000000000000000000000000000000000000815260040161102693929190613faa565b60405180910390fd5b50505050565b6005600082815260200190815260200160002060010154600073ffffffffffffffffffffffffffffffffffffffff166004600083815260200190815260200160002060060160009054906101000a900473ffffffffffffffffffffffffffffffffffffffff1673ffffffffffffffffffffffffffffffffffffffff16036110f1576040517fd647364f0000000000000000000000000000000000000000000000000000000081526004016110e890613f48565b60405180910390fd5b60056000838152602001908152602001600020600101546004600082815260200190815260200160002060060160149054906101000a900460ff16611162576040517f0f0c1bc800000000000000000000000000000000000000000000000000000000815260040160405180910390fd5b600060056000858152602001908152602001600020905080600401548160050154106111ba576040517f52df9fe500000000000000000000000000000000000000000000000000000000815260040160405180910390fd5b80600301543410156111f8576040517f3c6b4b2800000000000000000000000000000000000000000000000000000000815260040160405180910390fd5b60006003600081548092919061120d90614010565b91905055905061121d338261288f565b6112b38183600601805461123090613ecb565b80601f016020809104026020016040519081016040528092919081815260200182805461125c90613ecb565b80156112a95780601f1061127e576101008083540402835291602001916112a9565b820191906000526020600020905b81548152906001019060200180831161128c57829003601f168201915b50505050506128ad565b6040518060600160405280836001015481526020018681526020016000151581525060076000838152602001908152602001600020600082015181600001556020820151816001015560408201518160020160006101000a81548160ff021916908315150217905550905050600860003373ffffffffffffffffffffffffffffffffffffffff1673ffffffffffffffffffffffffffffffffffffffff16815260200190815260200160002081908060018154018082558091505060019003906000526020600020016000909190919091505581600501600081548092919061139a90614010565b91905055503373ffffffffffffffffffffffffffffffffffffffff16817f21c3ad7994b754affe27828ad7ab1f306d7a99ab4dbc743ed56d2b2f82620b4460405160405180910390a35050505050565b60008054906101000a900473ffffffffffffffffffffffffffffffffffffffff1681565b6006602052816000526040600020818154811061142a57600080fd5b90600052602060002001600091509150505481565b85600073ffffffffffffffffffffffffffffffffffffffff166004600083815260200190815260200160002060060160009054906101000a900473ffffffffffffffffffffffffffffffffffffffff1673ffffffffffffffffffffffffffffffffffffffff16036114e5576040517fd647364f0000000000000000000000000000000000000000000000000000000081526004016114dc90613f48565b60405180910390fd5b863373ffffffffffffffffffffffffffffffffffffffff166004600083815260200190815260200160002060060160009054906101000a900473ffffffffffffffffffffffffffffffffffffffff1673ffffffffffffffffffffffffffffffffffffffff1614611581576040517f9acbd63500000000000000000000000000000000000000000000000000000000815260040160405180910390fd5b8686868686600085511480611597575060008451145b806115a3575060008351145b806115af575060008251145b156115ef576040517fd647364f0000000000000000000000000000000000000000000000000000000081526004016115e6906140a4565b60405180910390fd5b428111611631576040517fd647364f00000000000000000000000000000000000000000000000000000000815260040161162890614110565b60405180910390fd5b6000600460008f815260200190815260200160002090508c81600101908161165991906142dc565b508b81600201908161166b91906142dc565b508a81600301908161167d91906142dc565b508981600401908161168f91906142dc565b508881600501819055508d7f0c21d47f606573d65eedb6ee084e32d784cfcd5ce32240b22f19de37d6b409698e6040516116c99190613537565b60405180910390a25050505050505050505050505050565b6116fc83838360405180602001604052806000815250611f12565b505050565b60096020528060005260406000206000915054906101000a900460ff1681565b60076020528060005260406000206000915090508060000154908060010154908060020160009054906101000a900460ff16905083565b600061176382612596565b9050919050565b60025481565b60008054906101000a900473ffffffffffffffffffffffffffffffffffffffff1673ffffffffffffffffffffffffffffffffffffffff163373ffffffffffffffffffffffffffffffffffffffff16146117f5576040517f16c726b100000000000000000000000000000000000000000000000000000000815260040160405180910390fd5b6001600960008373ffffffffffffffffffffffffffffffffffffffff1673ffffffffffffffffffffffffffffffffffffffff16815260200190815260200160002060006101000a81548160ff0219169083151502179055508073ffffffffffffffffffffffffffffffffffffffff167f44d6d25963f097ad14f29f06854a01f575648a1ef82f30e562ccd3889717e33960405160405180910390a250565b60008073ffffffffffffffffffffffffffffffffffffffff168273ffffffffffffffffffffffffffffffffffffffff16036119065760006040517f89c62b640000000000000000000000000000000000000000000000000000000081526004016118fd91906135fd565b60405180910390fd5b600d60008373ffffffffffffffffffffffffffffffffffffffff1673ffffffffffffffffffffffffffffffffffffffff168152602001908152602001600020549050919050565b60035481565b6060600b805461196290613ecb565b80601f016020809104026020016040519081016040528092919081815260200182805461198e90613ecb565b80156119db5780601f106119b0576101008083540402835291602001916119db565b820191906000526020600020905b8154815290600101906020018083116119be57829003601f168201915b5050505050905090565b60015481565b6119fd6119f661265b565b8383612909565b5050565b81600073ffffffffffffffffffffffffffffffffffffffff166004600083815260200190815260200160002060060160009054906101000a900473ffffffffffffffffffffffffffffffffffffffff1673ffffffffffffffffffffffffffffffffffffffff1603611aa7576040517fd647364f000000000000000000000000000000000000000000000000000000008152600401611a9e90613f48565b60405180910390fd5b823373ffffffffffffffffffffffffffffffffffffffff166004600083815260200190815260200160002060060160009054906101000a900473ffffffffffffffffffffffffffffffffffffffff1673ffffffffffffffffffffffffffffffffffffffff1614611b43576040517f9acbd63500000000000000000000000000000000000000000000000000000000815260040160405180910390fd5b826004600086815260200190815260200160002060060160146101000a81548160ff021916908315150217905550837fa79662d631a67fc4f6f0c6eccad9fc49ddd4bef28695e94b33d136259d6d520a84604051611ba1919061348c565b60405180910390a250505050565b84600073ffffffffffffffffffffffffffffffffffffffff166004600083815260200190815260200160002060060160009054906101000a900473ffffffffffffffffffffffffffffffffffffffff1673ffffffffffffffffffffffffffffffffffffffff1603611c55576040517fd647364f000000000000000000000000000000000000000000000000000000008152600401611c4c90613f48565b60405180910390fd5b853373ffffffffffffffffffffffffffffffffffffffff166004600083815260200190815260200160002060060160009054906101000a900473ffffffffffffffffffffffffffffffffffffffff1673ffffffffffffffffffffffffffffffffffffffff1614611cf1576040517f9acbd63500000000000000000000000000000000000000000000000000000000815260040160405180910390fd5b8686868686600084511480611d07575060008151145b15611d47576040517fd647364f000000000000000000000000000000000000000000000000000000008152600401611d3e90614420565b60405180910390fd5b60008303611d8a576040517fd647364f000000000000000000000000000000000000000000000000000000008152600401611d81906144b2565b60405180910390fd5b60008203611dcd576040517fd647364f000000000000000000000000000000000000000000000000000000008152600401611dc490614544565b60405180910390fd5b600060026000815480929190611de290614010565b9190505590506040518060e001604052808281526020018e81526020018d81526020018c81526020018b8152602001600081526020018a8152506005600083815260200190815260200160002060008201518160000155602082015181600101556040820151816002019081611e5891906142dc565b50606082015181600301556080820151816004015560a0820151816005015560c0820151816006019081611e8c91906142dc565b50905050600660008e81526020019081526020016000208190806001815401808255809150506001900390600052602060002001600090919091909150558c817ff63277f55267b94db0bde2517a0c25d34b186d8d461d876504fed6ff7ccb4e688e604051611efb9190613537565b60405180910390a350505050505050505050505050565b611f1d848484610f33565b611f31611f2861265b565b85858585612a78565b50505050565b60008585858585600085511480611f4f575060008451145b80611f5b575060008351145b80611f67575060008251145b15611fa7576040517fd647364f000000000000000000000000000000000000000000000000000000008152600401611f9e906140a4565b60405180910390fd5b428111611fe9576040517fd647364f000000000000000000000000000000000000000000000000000000008152600401611fe090614110565b60405180910390fd5b600060016000815480929190611ffe90614010565b9190505590506040518061010001604052808281526020018d81526020018c81526020018b81526020018a81526020018981526020013373ffffffffffffffffffffffffffffffffffffffff168152602001600115158152506004600083815260200190815260200160002060008201518160000155602082015181600101908161208991906142dc565b50604082015181600201908161209f91906142dc565b5060608201518160030190816120b591906142dc565b5060808201518160040190816120cb91906142dc565b5060a0820151816005015560c08201518160060160006101000a81548173ffffffffffffffffffffffffffffffffffffffff021916908373ffffffffffffffffffffffffffffffffffffffff16021790555060e08201518160060160146101000a81548160ff021916908315150217905550905050807f9ce3d6db707bca4ba0eabed8fba1e2c013a1c0bc1132a764170a7854d198c73d8d6040516121709190613537565b60405180910390a280965050505050505095945050505050565b606061219582612596565b5060006010600084815260200190815260200160002080546121b690613ecb565b80601f01602080910402602001604051908101604052809291908181526020018280546121e290613ecb565b801561222f5780601f106122045761010080835404028352916020019161222f565b820191906000526020600020905b81548152906001019060200180831161221257829003601f168201915b505050505090506000612240612c29565b90506000815103612255578192505050612298565b60008251111561228a5780826040516020016122729291906145a0565b60405160208183030381529060405292505050612298565b61229384612c40565b925050505b919050565b600860205281600052604060002081815481106122b957600080fd5b90600052602060002001600091509150505481565b6000600f60008473ffffffffffffffffffffffffffffffffffffffff1673ffffffffffffffffffffffffffffffffffffffff16815260200190815260200160002060008373ffffffffffffffffffffffffffffffffffffffff1673ffffffffffffffffffffffffffffffffffffffff16815260200190815260200160002060009054906101000a900460ff16905092915050565b600560205280600052604060002060009150905080600001549080600101549080600201805461239190613ecb565b80601f01602080910402602001604051908101604052809291908181526020018280546123bd90613ecb565b801561240a5780601f106123df5761010080835404028352916020019161240a565b820191906000526020600020905b8154815290600101906020018083116123ed57829003601f168201915b50505050509080600301549080600401549080600501549080600601805461243190613ecb565b80601f016020809104026020016040519081016040528092919081815260200182805461245d90613ecb565b80156124aa5780601f1061247f576101008083540402835291602001916124aa565b820191906000526020600020905b81548152906001019060200180831161248d57829003601f168201915b5050505050905087565b60007f80ac58cd000000000000000000000000000000000000000000000000000000007bffffffffffffffffffffffffffffffffffffffffffffffffffffffff1916827bffffffffffffffffffffffffffffffffffffffffffffffffffffffff1916148061257f57507f5b5e139f000000000000000000000000000000000000000000000000000000007bffffffffffffffffffffffffffffffffffffffffffffffffffffffff1916827bffffffffffffffffffffffffffffffffffffffffffffffffffffffff1916145b8061258f575061258e82612ca9565b5b9050919050565b6000806125a283612d13565b9050600073ffffffffffffffffffffffffffffffffffffffff168173ffffffffffffffffffffffffffffffffffffffff160361261557826040517f7e27328900000000000000000000000000000000000000000000000000000000815260040161260c91906137ed565b60405180910390fd5b80915050919050565b6000600e600083815260200190815260200160002060009054906101000a900473ffffffffffffffffffffffffffffffffffffffff169050919050565b600033905090565b6126708383836001612d50565b505050565b60008061268184612d13565b9050600073ffffffffffffffffffffffffffffffffffffffff168373ffffffffffffffffffffffffffffffffffffffff16146126c3576126c2818486612f15565b5b600073ffffffffffffffffffffffffffffffffffffffff168173ffffffffffffffffffffffffffffffffffffffff161461275457612705600085600080612d50565b6001600d60008373ffffffffffffffffffffffffffffffffffffffff1673ffffffffffffffffffffffffffffffffffffffff168152602001908152602001600020600082825403925050819055505b600073ffffffffffffffffffffffffffffffffffffffff168573ffffffffffffffffffffffffffffffffffffffff16146127d7576001600d60008773ffffffffffffffffffffffffffffffffffffffff1673ffffffffffffffffffffffffffffffffffffffff168152602001908152602001600020600082825401925050819055505b84600c600086815260200190815260200160002060006101000a81548173ffffffffffffffffffffffffffffffffffffffff021916908373ffffffffffffffffffffffffffffffffffffffff160217905550838573ffffffffffffffffffffffffffffffffffffffff168273ffffffffffffffffffffffffffffffffffffffff167fddf252ad1be2c89b69c2b068fc378daa952ba7f163c4a11628f55a4df523b3ef60405160405180910390a4809150509392505050565b6128a9828260405180602001604052806000815250612fd9565b5050565b806010600084815260200190815260200160002090816128cd91906142dc565b507ff8e1a15aba9398e019f0b49df1a4fde98ee17ae345cb5f6b5e2c27f5033e8ce7826040516128fd91906137ed565b60405180910390a15050565b600073ffffffffffffffffffffffffffffffffffffffff168273ffffffffffffffffffffffffffffffffffffffff160361297a57816040517f5b08ba1800000000000000000000000000000000000000000000000000000000815260040161297191906135fd565b60405180910390fd5b80600f60008573ffffffffffffffffffffffffffffffffffffffff1673ffffffffffffffffffffffffffffffffffffffff16815260200190815260200160002060008473ffffffffffffffffffffffffffffffffffffffff1673ffffffffffffffffffffffffffffffffffffffff16815260200190815260200160002060006101000a81548160ff0219169083151502179055508173ffffffffffffffffffffffffffffffffffffffff168373ffffffffffffffffffffffffffffffffffffffff167f17307eab39ab6107e8899845ad3d59bd9653f200f220920489ca2b5937696c3183604051612a6b919061348c565b60405180910390a3505050565b60008373ffffffffffffffffffffffffffffffffffffffff163b1115612c22578273ffffffffffffffffffffffffffffffffffffffff1663150b7a02868685856040518563ffffffff1660e01b8152600401612ad79493929190614619565b6020604051808303816000875af1925050508015612b1357506040513d601f19601f82011682018060405250810190612b10919061467a565b60015b612b97573d8060008114612b43576040519150601f19603f3d011682016040523d82523d6000602084013e612b48565b606091505b506000815103612b8f57836040517f64a0ae92000000000000000000000000000000000000000000000000000000008152600401612b8691906135fd565b60405180910390fd5b805160208201fd5b63150b7a0260e01b7bffffffffffffffffffffffffffffffffffffffffffffffffffffffff1916817bffffffffffffffffffffffffffffffffffffffffffffffffffffffff191614612c2057836040517f64a0ae92000000000000000000000000000000000000000000000000000000008152600401612c1791906135fd565b60405180910390fd5b505b5050505050565b606060405180602001604052806000815250905090565b6060612c4b82612596565b506000612c56612c29565b90506000815111612c765760405180602001604052806000815250612ca1565b80612c8084612ffd565b604051602001612c919291906145a0565b6040516020818303038152906040525b915050919050565b60007f01ffc9a7000000000000000000000000000000000000000000000000000000007bffffffffffffffffffffffffffffffffffffffffffffffffffffffff1916827bffffffffffffffffffffffffffffffffffffffffffffffffffffffff1916149050919050565b6000600c600083815260200190815260200160002060009054906101000a900473ffffffffffffffffffffffffffffffffffffffff169050919050565b8080612d895750600073ffffffffffffffffffffffffffffffffffffffff168273ffffffffffffffffffffffffffffffffffffffff1614155b15612ebd576000612d9984612596565b9050600073ffffffffffffffffffffffffffffffffffffffff168373ffffffffffffffffffffffffffffffffffffffff1614158015612e0457508273ffffffffffffffffffffffffffffffffffffffff168173ffffffffffffffffffffffffffffffffffffffff1614155b8015612e175750612e1581846122ce565b155b15612e5957826040517fa9fbf51f000000000000000000000000000000000000000000000000000000008152600401612e5091906135fd565b60405180910390fd5b8115612ebb57838573ffffffffffffffffffffffffffffffffffffffff168273ffffffffffffffffffffffffffffffffffffffff167f8c5be1e5ebec7d5bd14f71427d1e84f3dd0314c0f7b2291e5b200ac8c7c3b92560405160405180910390a45b505b83600e600085815260200190815260200160002060006101000a81548173ffffffffffffffffffffffffffffffffffffffff021916908373ffffffffffffffffffffffffffffffffffffffff16021790555050505050565b612f208383836130cb565b612fd457600073ffffffffffffffffffffffffffffffffffffffff168373ffffffffffffffffffffffffffffffffffffffff1603612f9557806040517f7e273289000000000000000000000000000000000000000000000000000000008152600401612f8c91906137ed565b60405180910390fd5b81816040517f177e802f000000000000000000000000000000000000000000000000000000008152600401612fcb9291906146a7565b60405180910390fd5b505050565b612fe3838361318c565b612ff8612fee61265b565b6000858585612a78565b505050565b60606000600161300c84613285565b01905060008167ffffffffffffffff81111561302b5761302a613812565b5b6040519080825280601f01601f19166020018201604052801561305d5781602001600182028036833780820191505090505b509050600082602083010190505b6001156130c0578080600190039150507f3031323334353637383961626364656600000000000000000000000000000000600a86061a8153600a85816130b4576130b36146d0565b5b0494506000850361306b575b819350505050919050565b60008073ffffffffffffffffffffffffffffffffffffffff168373ffffffffffffffffffffffffffffffffffffffff161415801561318357508273ffffffffffffffffffffffffffffffffffffffff168473ffffffffffffffffffffffffffffffffffffffff161480613144575061314384846122ce565b5b8061318257508273ffffffffffffffffffffffffffffffffffffffff1661316a8361261e565b73ffffffffffffffffffffffffffffffffffffffff16145b5b90509392505050565b600073ffffffffffffffffffffffffffffffffffffffff168273ffffffffffffffffffffffffffffffffffffffff16036131fe5760006040517f64a0ae920000000000000000000000000000000000000000000000000000000081526004016131f591906135fd565b60405180910390fd5b600061320c83836000612675565b9050600073ffffffffffffffffffffffffffffffffffffffff168173ffffffffffffffffffffffffffffffffffffffff16146132805760006040517f73c6ac6e00000000000000000000000000000000000000000000000000000000815260040161327791906135fd565b60405180910390fd5b505050565b600080600090507a184f03e93ff9f4daa797ed6e38ed64bf6a1f01000000000000000083106132e3577a184f03e93ff9f4daa797ed6e38ed64bf6a1f01000000000000000083816132d9576132d86146d0565b5b0492506040810190505b6d04ee2d6d415b85acef81000000008310613320576d04ee2d6d415b85acef81000000008381613316576133156146d0565b5b0492506020810190505b662386f26fc10000831061334f57662386f26fc100008381613345576133446146d0565b5b0492506010810190505b6305f5e1008310613378576305f5e100838161336e5761336d6146d0565b5b0492506008810190505b612710831061339d576127108381613393576133926146d0565b5b0492506004810190505b606483106133c057606483816133b6576133b56146d0565b5b0492506002810190505b600a83106133cf576001810190505b80915050919050565b6000604051905090565b600080fd5b600080fd5b60007fffffffff0000000000000000000000000000000000000000000000000000000082169050919050565b613421816133ec565b811461342c57600080fd5b50565b60008135905061343e81613418565b92915050565b60006020828403121561345a576134596133e2565b5b60006134688482850161342f565b91505092915050565b60008115159050919050565b61348681613471565b82525050565b60006020820190506134a1600083018461347d565b92915050565b600081519050919050565b600082825260208201905092915050565b60005b838110156134e15780820151818401526020810190506134c6565b60008484015250505050565b6000601f19601f8301169050919050565b6000613509826134a7565b61351381856134b2565b93506135238185602086016134c3565b61352c816134ed565b840191505092915050565b6000602082019050818103600083015261355181846134fe565b905092915050565b6000819050919050565b61356c81613559565b811461357757600080fd5b50565b60008135905061358981613563565b92915050565b6000602082840312156135a5576135a46133e2565b5b60006135b38482850161357a565b91505092915050565b600073ffffffffffffffffffffffffffffffffffffffff82169050919050565b60006135e7826135bc565b9050919050565b6135f7816135dc565b82525050565b600060208201905061361260008301846135ee565b92915050565b613621816135dc565b811461362c57600080fd5b50565b60008135905061363e81613618565b92915050565b6000806040838503121561365b5761365a6133e2565b5b60006136698582860161362f565b925050602061367a8582860161357a565b9150509250929050565b61368d81613559565b82525050565b6000610100820190506136a9600083018b613684565b81810360208301526136bb818a6134fe565b905081810360408301526136cf81896134fe565b905081810360608301526136e381886134fe565b905081810360808301526136f781876134fe565b905061370660a0830186613684565b61371360c08301856135ee565b61372060e083018461347d565b9998505050505050505050565b600060208284031215613743576137426133e2565b5b60006137518482850161362f565b91505092915050565b600080600060608486031215613773576137726133e2565b5b60006137818682870161362f565b93505060206137928682870161362f565b92505060406137a38682870161357a565b9150509250925092565b600080604083850312156137c4576137c36133e2565b5b60006137d28582860161357a565b92505060206137e38582860161357a565b9150509250929050565b60006020820190506138026000830184613684565b92915050565b600080fd5b600080fd5b7f4e487b7100000000000000000000000000000000000000000000000000000000600052604160045260246000fd5b61384a826134ed565b810181811067ffffffffffffffff8211171561386957613868613812565b5b80604052505050565b600061387c6133d8565b90506138888282613841565b919050565b600067ffffffffffffffff8211156138a8576138a7613812565b5b6138b1826134ed565b9050602081019050919050565b82818337600083830152505050565b60006138e06138db8461388d565b613872565b9050828152602081018484840111156138fc576138fb61380d565b5b6139078482856138be565b509392505050565b600082601f83011261392457613923613808565b5b81356139348482602086016138cd565b91505092915050565b60008060008060008060c0878903121561395a576139596133e2565b5b600061396889828a0161357a565b965050602087013567ffffffffffffffff811115613989576139886133e7565b5b61399589828a0161390f565b955050604087013567ffffffffffffffff8111156139b6576139b56133e7565b5b6139c289828a0161390f565b945050606087013567ffffffffffffffff8111156139e3576139e26133e7565b5b6139ef89828a0161390f565b935050608087013567ffffffffffffffff811115613a1057613a0f6133e7565b5b613a1c89828a0161390f565b92505060a0613a2d89828a0161357a565b9150509295509295509295565b6000606082019050613a4f6000830186613684565b613a5c6020830185613684565b613a69604083018461347d565b949350505050565b613a7a81613471565b8114613a8557600080fd5b50565b600081359050613a9781613a71565b92915050565b60008060408385031215613ab457613ab36133e2565b5b6000613ac28582860161362f565b9250506020613ad385828601613a88565b9150509250929050565b60008060408385031215613af457613af36133e2565b5b6000613b028582860161357a565b9250506020613b1385828601613a88565b9150509250929050565b600080600080600060a08688031215613b3957613b386133e2565b5b6000613b478882890161357a565b955050602086013567ffffffffffffffff811115613b6857613b676133e7565b5b613b748882890161390f565b9450506040613b858882890161357a565b9350506060613b968882890161357a565b925050608086013567ffffffffffffffff811115613bb757613bb66133e7565b5b613bc38882890161390f565b9150509295509295909350565b600067ffffffffffffffff821115613beb57613bea613812565b5b613bf4826134ed565b9050602081019050919050565b6000613c14613c0f84613bd0565b613872565b905082815260208101848484011115613c3057613c2f61380d565b5b613c3b8482856138be565b509392505050565b600082601f830112613c5857613c57613808565b5b8135613c68848260208601613c01565b91505092915050565b60008060008060808587031215613c8b57613c8a6133e2565b5b6000613c998782880161362f565b9450506020613caa8782880161362f565b9350506040613cbb8782880161357a565b925050606085013567ffffffffffffffff811115613cdc57613cdb6133e7565b5b613ce887828801613c43565b91505092959194509250565b600080600080600060a08688031215613d1057613d0f6133e2565b5b600086013567ffffffffffffffff811115613d2e57613d2d6133e7565b5b613d3a8882890161390f565b955050602086013567ffffffffffffffff811115613d5b57613d5a6133e7565b5b613d678882890161390f565b945050604086013567ffffffffffffffff811115613d8857613d876133e7565b5b613d948882890161390f565b935050606086013567ffffffffffffffff811115613db557613db46133e7565b5b613dc18882890161390f565b9250506080613dd28882890161357a565b9150509295509295909350565b60008060408385031215613df657613df56133e2565b5b6000613e048582860161362f565b9250506020613e158582860161362f565b9150509250929050565b600060e082019050613e34600083018a613684565b613e416020830189613684565b8181036040830152613e5381886134fe565b9050613e626060830187613684565b613e6f6080830186613684565b613e7c60a0830185613684565b81810360c0830152613e8e81846134fe565b905098975050505050505050565b7f4e487b7100000000000000000000000000000000000000000000000000000000600052602260045260246000fd5b60006002820490506001821680613ee357607f821691505b602082108103613ef657613ef5613e9c565b5b50919050565b7f4576656e7420646f6573206e6f74206578697374000000000000000000000000600082015250565b6000613f326014836134b2565b9150613f3d82613efc565b602082019050919050565b60006020820190508181036000830152613f6181613f25565b9050919050565b600081519050613f7781613618565b92915050565b600060208284031215613f9357613f926133e2565b5b6000613fa184828501613f68565b91505092915050565b6000606082019050613fbf60008301866135ee565b613fcc6020830185613684565b613fd960408301846135ee565b949350505050565b7f4e487b7100000000000000000000000000000000000000000000000000000000600052601160045260246000fd5b600061401b82613559565b91507fffffffffffffffffffffffffffffffffffffffffffffffffffffffffffffffff820361404d5761404c613fe1565b5b600182019050919050565b7f4576656e742064657461696c732063616e6e6f7420626520656d707479000000600082015250565b600061408e601d836134b2565b915061409982614058565b602082019050919050565b600060208201905081810360008301526140bd81614081565b9050919050565b7f4576656e742064617465206d75737420626520696e2074686520667574757265600082015250565b60006140fa6020836134b2565b9150614105826140c4565b602082019050919050565b60006020820190508181036000830152614129816140ed565b9050919050565b60008190508160005260206000209050919050565b60006020601f8301049050919050565b600082821b905092915050565b6000600883026141927fffffffffffffffffffffffffffffffffffffffffffffffffffffffffffffffff82614155565b61419c8683614155565b95508019841693508086168417925050509392505050565b6000819050919050565b60006141d96141d46141cf84613559565b6141b4565b613559565b9050919050565b6000819050919050565b6141f3836141be565b6142076141ff826141e0565b848454614162565b825550505050565b600090565b61421c61420f565b6142278184846141ea565b505050565b5b8181101561424b57614240600082614214565b60018101905061422d565b5050565b601f8211156142905761426181614130565b61426a84614145565b81016020851015614279578190505b61428d61428585614145565b83018261422c565b50505b505050565b600082821c905092915050565b60006142b360001984600802614295565b1980831691505092915050565b60006142cc83836142a2565b9150826002028217905092915050565b6142e5826134a7565b67ffffffffffffffff8111156142fe576142fd613812565b5b6143088254613ecb565b61431382828561424f565b600060209050601f8311600181146143465760008415614334578287015190505b61433e85826142c0565b8655506143a6565b601f19841661435486614130565b60005b8281101561437c57848901518255600182019150602085019450602081019050614357565b868310156143995784890151614395601f8916826142a2565b8355505b6001600288020188555050505b505050505050565b7f5469636b657420747970652064657461696c732063616e6e6f7420626520656d60008201527f7074790000000000000000000000000000000000000000000000000000000000602082015250565b600061440a6023836134b2565b9150614415826143ae565b604082019050919050565b60006020820190508181036000830152614439816143fd565b9050919050565b7f5469636b65742074797065207072696365206d7573742062652067726561746560008201527f72207468616e207a65726f000000000000000000000000000000000000000000602082015250565b600061449c602b836134b2565b91506144a782614440565b604082019050919050565b600060208201905081810360008301526144cb8161448f565b9050919050565b7f5469636b6574207479706520746f74616c20737570706c79206d75737420626560008201527f2067726561746572207468616e207a65726f0000000000000000000000000000602082015250565b600061452e6032836134b2565b9150614539826144d2565b604082019050919050565b6000602082019050818103600083015261455d81614521565b9050919050565b600081905092915050565b600061457a826134a7565b6145848185614564565b93506145948185602086016134c3565b80840191505092915050565b60006145ac828561456f565b91506145b8828461456f565b91508190509392505050565b600081519050919050565b600082825260208201905092915050565b60006145eb826145c4565b6145f581856145cf565b93506146058185602086016134c3565b61460e816134ed565b840191505092915050565b600060808201905061462e60008301876135ee565b61463b60208301866135ee565b6146486040830185613684565b818103606083015261465a81846145e0565b905095945050505050565b60008151905061467481613418565b92915050565b6000602082840312156146905761468f6133e2565b5b600061469e84828501614665565b91505092915050565b60006040820190506146bc60008301856135ee565b6146c96020830184613684565b9392505050565b7f4e487b7100000000000000000000000000000000000000000000000000000000600052601260045260246000fdfea26469706673582212209df8feeb711bce068695e9217ae034d78620c67ae2b207875bda78f51a27c90a64736f6c634300081c0033",
  "linkReferences": {},
  "deployedLinkReferences": {}
}