{"contracts/TicketNft.sol":{"TicketNft":{"abi":[{"inputs":[],"stateMutability":"nonpayable","type":"constructor"},{"anonymous":false,"inputs":[{"indexed":true,"internalType":"address","name":"owner","type":"address"},{"indexed":true,"internalType":"address","name":"approved","type":"address"},{"indexed":true,"internalType":"uint256","name":"tokenId","type":"uint256"}],"name":"Approval","type":"event"},{"anonymous":false,"inputs":[{"indexed":true,"internalType":"address","name":"owner","type":"address"},{"indexed":true,"internalType":"address","name":"operator","type":"address"},{"indexed":false,"internalType":"bool","name":"approved","type":"bool"}],"name":"ApprovalForAll","type":"event"},{"anonymous":false,"inputs":[{"indexed":false,"internalType":"uint256","name":"_fromTokenId","type":"uint256"},{"indexed":false,"internalType":"uint256","name":"_toTokenId","type":"uint256"}],"name":"BatchMetadataUpdate","type":"event"},{"anonymous":false,"inputs":[{"indexed":false,"internalType":"uint256","name":"_tokenId","type":"uint256"}],"name":"MetadataUpdate","type":"event"},{"anonymous":false,"inputs":[{"indexed":true,"internalType":"address","name":"previousOwner","type":"address"},{"indexed":true,"internalType":"address","name":"newOwner","type":"address"}],"name":"OwnershipTransferred","type":"event"},{"anonymous":false,"inputs":[{"indexed":true,"internalType":"address","name":"from","type":"address"},{"indexed":true,"internalType":"address","name":"to","type":"address"},{"indexed":true,"internalType":"uint256","name":"tokenId","type":"uint256"}],"name":"Transfer","type":"event"},{"inputs":[{"internalType":"address","name":"to","type":"address"},{"internalType":"uint256","name":"tokenId","type":"uint256"}],"name":"approve","outputs":[],"stateMutability":"nonpayable","type":"function"},{"inputs":[{"internalType":"address","name":"minter","type":"address"}],"name":"authorizeMinter","outputs":[],"stateMutability":"nonpayable","type":"function"},{"inputs":[{"internalType":"address","name":"owner","type":"address"}],"name":"balanceOf","outputs":[{"internalType":"uint256","name":"","type":"uint256"}],"stateMutability":"view","type":"function"},{"inputs":[{"internalType":"uint256","name":"tokenId","type":"uint256"}],"name":"getApproved","outputs":[{"internalType":"address","name":"","type":"address"}],"stateMutability":"view","type":"function"},{"inputs":[{"internalType":"uint256","name":"tokenId","type":"uint256"}],"name":"getTokenURI","outputs":[{"internalType":"string","name":"","type":"string"}],"stateMutability":"view","type":"function"},{"inputs":[{"internalType":"address","name":"owner","type":"address"},{"internalType":"address","name":"operator","type":"address"}],"name":"isApprovedForAll","outputs":[{"internalType":"bool","name":"","type":"bool"}],"stateMutability":"view","type":"function"},{"inputs":[{"internalType":"address","name":"to","type":"address"},{"internalType":"string","name":"tokenURI_","type":"string"}],"name":"mintTicket","outputs":[{"internalType":"uint256","name":"","type":"uint256"}],"stateMutability":"nonpayable","type":"function"},{"inputs":[],"name":"name","outputs":[{"internalType":"string","name":"","type":"string"}],"stateMutability":"view","type":"function"},{"inputs":[],"name":"owner","outputs":[{"internalType":"address","name":"","type":"address"}],"stateMutability":"view","type":"function"},{"inputs":[{"internalType":"uint256","name":"tokenId","type":"uint256"}],"name":"ownerOf","outputs":[{"internalType":"address","name":"","type":"address"}],"stateMutability":"view","type":"function"},{"inputs":[],"name":"renounceOwnership","outputs":[],"stateMutability":"nonpayable","type":"function"},{"inputs":[{"internalType":"address","name":"from","type":"address"},{"internalType":"address","name":"to","type":"address"},{"internalType":"uint256","name":"tokenId","type":"uint256"}],"name":"safeTransferFrom","outputs":[],"stateMutability":"nonpayable","type":"function"},{"inputs":[{"internalType":"address","name":"from","type":"address"},{"internalType":"address","name":"to","type":"address"},{"internalType":"uint256","name":"tokenId","type":"uint256"},{"internalType":"bytes","name":"data","type":"bytes"}],"name":"safeTransferFrom","outputs":[],"stateMutability":"nonpayable","type":"function"},{"inputs":[{"internalType":"address","name":"operator","type":"address"},{"internalType":"bool","name":"approved","type":"bool"}],"name":"setApprovalForAll","outputs":[],"stateMutability":"nonpayable","type":"function"},{"inputs":[{"internalType":"bytes4","name":"interfaceId","type":"bytes4"}],"name":"supportsInterface","outputs":[{"internalType":"bool","name":"","type":"bool"}],"stateMutability":"view","type":"function"},{"inputs":[],"name":"symbol","outputs":[{"internalType":"string","name":"","type":"string"}],"stateMutability":"view","type":"function"},{"inputs":[{"internalType":"uint256","name":"tokenId","type":"uint256"}],"name":"tokenURI","outputs":[{"internalType":"string","name":"","type":"string"}],"stateMutability":"view","type":"function"},{"inputs":[{"internalType":"address","name":"from","type":"address"},{"internalType":"address","name":"to","type":"address"},{"internalType":"uint256","name":"tokenId","type":"uint256"}],"name":"transferFrom","outputs":[],"stateMutability":"nonpayable","type":"function"},{"inputs":[{"internalType":"address","name":"newOwner","type":"address"}],"name":"transferOwnership","outputs":[],"stateMutability":"nonpayable","type":"function"}],"evm":{"bytecode":{"linkReferences":{},"object":"608060405234801561001057600080fd5b506040518060400160405280600681526020017f5469636b657400000000000000000000000000000000000000000000000000008152506040518060400160405280600681526020017f5449434b45540000000000000000000000000000000000000000000000000000815250816000908161008c91906103de565b50806001908161009c91906103de565b5050506100bb6100b06100c060201b60201c565b6100c860201b60201c565b6104b0565b600033905090565b6000600760009054906101000a900473ffffffffffffffffffffffffffffffffffffffff16905081600760006101000a81548173ffffffffffffffffffffffffffffffffffffffff021916908373ffffffffffffffffffffffffffffffffffffffff1602179055508173ffffffffffffffffffffffffffffffffffffffff168173ffffffffffffffffffffffffffffffffffffffff167f8be0079c531659141344cd1fd0a4f28419497f9722a3daafe3b4186f6b6457e060405160405180910390a35050565b600081519050919050565b7f4e487b7100000000000000000000000000000000000000000000000000000000600052604160045260246000fd5b7f4e487b7100000000000000000000000000000000000000000000000000000000600052602260045260246000fd5b6000600282049050600182168061020f57607f821691505b602082108103610222576102216101c8565b5b50919050565b60008190508160005260206000209050919050565b60006020601f8301049050919050565b600082821b905092915050565b60006008830261028a7fffffffffffffffffffffffffffffffffffffffffffffffffffffffffffffffff8261024d565b610294868361024d565b95508019841693508086168417925050509392505050565b6000819050919050565b6000819050919050565b60006102db6102d66102d1846102ac565b6102b6565b6102ac565b9050919050565b6000819050919050565b6102f5836102c0565b610309610301826102e2565b84845461025a565b825550505050565b600090565b61031e610311565b6103298184846102ec565b505050565b5b8181101561034d57610342600082610316565b60018101905061032f565b5050565b601f8211156103925761036381610228565b61036c8461023d565b8101602085101561037b578190505b61038f6103878561023d565b83018261032e565b50505b505050565b600082821c905092915050565b60006103b560001984600802610397565b1980831691505092915050565b60006103ce83836103a4565b9150826002028217905092915050565b6103e78261018e565b67ffffffffffffffff811115610400576103ff610199565b5b61040a82546101f7565b610415828285610351565b600060209050601f8311600181146104485760008415610436578287015190505b61044085826103c2565b8655506104a8565b601f19841661045686610228565b60005b8281101561047e57848901518255600182019150602085019450602081019050610459565b8683101561049b5784890151610497601f8916826103a4565b8355505b6001600288020188555050505b505050505050565b6131c9806104bf6000396000f3fe608060405234801561001057600080fd5b50600436106101215760003560e01c80636352211e116100ad578063a22cb46511610071578063a22cb4651461031a578063b88d4fde14610336578063c87b56dd14610352578063e985e9c514610382578063f2fde38b146103b257610121565b80636352211e1461027457806370a08231146102a4578063715018a6146102d45780638da5cb5b146102de57806395d89b41146102fc57610121565b80630c984832116100f45780630c984832146101c057806323b872dd146101dc5780633bb3a24d146101f857806342842e0e146102285780635388842c1461024457610121565b806301ffc9a71461012657806306fdde0314610156578063081812fc14610174578063095ea7b3146101a4575b600080fd5b610140600480360381019061013b9190611ee2565b6103ce565b60405161014d9190611f2a565b60405180910390f35b61015e61042f565b60405161016b9190611fd5565b60405180910390f35b61018e6004803603810190610189919061202d565b6104c1565b60405161019b919061209b565b60405180910390f35b6101be60048036038101906101b991906120e2565b610507565b005b6101da60048036038101906101d59190612122565b61061e565b005b6101f660048036038101906101f1919061214f565b6106f0565b005b610212600480360381019061020d919061202d565b610750565b60405161021f9190611fd5565b60405180910390f35b610242600480360381019061023d919061214f565b610762565b005b61025e600480360381019061025991906122d7565b610782565b60405161026b9190612342565b60405180910390f35b61028e6004803603810190610289919061202d565b6108a4565b60405161029b919061209b565b60405180910390f35b6102be60048036038101906102b99190612122565b61092a565b6040516102cb9190612342565b60405180910390f35b6102dc6109e1565b005b6102e66109f5565b6040516102f3919061209b565b60405180910390f35b610304610a1f565b6040516103119190611fd5565b60405180910390f35b610334600480360381019061032f9190612389565b610ab1565b005b610350600480360381019061034b919061246a565b610ac7565b005b61036c6004803603810190610367919061202d565b610b29565b6040516103799190611fd5565b60405180910390f35b61039c600480360381019061039791906124ed565b610c3b565b6040516103a99190611f2a565b60405180910390f35b6103cc60048036038101906103c79190612122565b610ccf565b005b6000634906490660e01b7bffffffffffffffffffffffffffffffffffffffffffffffffffffffff1916827bffffffffffffffffffffffffffffffffffffffffffffffffffffffff19161480610428575061042782610d52565b5b9050919050565b60606000805461043e9061255c565b80601f016020809104026020016040519081016040528092919081815260200182805461046a9061255c565b80156104b75780601f1061048c576101008083540402835291602001916104b7565b820191906000526020600020905b81548152906001019060200180831161049a57829003601f168201915b5050505050905090565b60006104cc82610e34565b6004600083815260200190815260200160002060009054906101000a900473ffffffffffffffffffffffffffffffffffffffff169050919050565b6000610512826108a4565b90508073ffffffffffffffffffffffffffffffffffffffff168373ffffffffffffffffffffffffffffffffffffffff1603610582576040517f08c379a0000000000000000000000000000000000000000000000000000000008152600401610579906125ff565b60405180910390fd5b8073ffffffffffffffffffffffffffffffffffffffff166105a1610e7f565b73ffffffffffffffffffffffffffffffffffffffff1614806105d057506105cf816105ca610e7f565b610c3b565b5b61060f576040517f08c379a000000000000000000000000000000000000000000000000000000000815260040161060690612691565b60405180910390fd5b6106198383610e87565b505050565b610626610f40565b600073ffffffffffffffffffffffffffffffffffffffff168173ffffffffffffffffffffffffffffffffffffffff1603610695576040517f08c379a000000000000000000000000000000000000000000000000000000000815260040161068c906126fd565b60405180910390fd5b6001600a60008373ffffffffffffffffffffffffffffffffffffffff1673ffffffffffffffffffffffffffffffffffffffff16815260200190815260200160002060006101000a81548160ff02191690831515021790555050565b6107016106fb610e7f565b82610fbe565b610740576040517f08c379a00000000000000000000000000000000000000000000000000000000081526004016107379061278f565b60405180910390fd5b61074b838383611053565b505050565b606061075b82610b29565b9050919050565b61077d83838360405180602001604052806000815250610ac7565b505050565b600061078c6109f5565b73ffffffffffffffffffffffffffffffffffffffff163373ffffffffffffffffffffffffffffffffffffffff16148061080e5750600a60003373ffffffffffffffffffffffffffffffffffffffff1673ffffffffffffffffffffffffffffffffffffffff16815260200190815260200160002060009054906101000a900460ff165b61084d576040517f08c379a0000000000000000000000000000000000000000000000000000000008152600401610844906127fb565b60405180910390fd5b6000610859600861134c565b9050610865600861135a565b61086f8482611370565b610879818461138e565b8260096000838152602001908152602001600020908161089991906129c7565b508091505092915050565b6000806108b083611432565b9050600073ffffffffffffffffffffffffffffffffffffffff168173ffffffffffffffffffffffffffffffffffffffff1603610921576040517f08c379a000000000000000000000000000000000000000000000000000000000815260040161091890612ae5565b60405180910390fd5b80915050919050565b60008073ffffffffffffffffffffffffffffffffffffffff168273ffffffffffffffffffffffffffffffffffffffff160361099a576040517f08c379a000000000000000000000000000000000000000000000000000000000815260040161099190612b77565b60405180910390fd5b600360008373ffffffffffffffffffffffffffffffffffffffff1673ffffffffffffffffffffffffffffffffffffffff168152602001908152602001600020549050919050565b6109e9610f40565b6109f3600061146f565b565b6000600760009054906101000a900473ffffffffffffffffffffffffffffffffffffffff16905090565b606060018054610a2e9061255c565b80601f0160208091040260200160405190810160405280929190818152602001828054610a5a9061255c565b8015610aa75780601f10610a7c57610100808354040283529160200191610aa7565b820191906000526020600020905b815481529060010190602001808311610a8a57829003601f168201915b5050505050905090565b610ac3610abc610e7f565b8383611535565b5050565b610ad8610ad2610e7f565b83610fbe565b610b17576040517f08c379a0000000000000000000000000000000000000000000000000000000008152600401610b0e9061278f565b60405180910390fd5b610b23848484846116a1565b50505050565b6060610b3482610e34565b6000600660008481526020019081526020016000208054610b549061255c565b80601f0160208091040260200160405190810160405280929190818152602001828054610b809061255c565b8015610bcd5780601f10610ba257610100808354040283529160200191610bcd565b820191906000526020600020905b815481529060010190602001808311610bb057829003601f168201915b505050505090506000610bde6116fd565b90506000815103610bf3578192505050610c36565b600082511115610c28578082604051602001610c10929190612bd3565b60405160208183030381529060405292505050610c36565b610c3184611714565b925050505b919050565b6000600560008473ffffffffffffffffffffffffffffffffffffffff1673ffffffffffffffffffffffffffffffffffffffff16815260200190815260200160002060008373ffffffffffffffffffffffffffffffffffffffff1673ffffffffffffffffffffffffffffffffffffffff16815260200190815260200160002060009054906101000a900460ff16905092915050565b610cd7610f40565b600073ffffffffffffffffffffffffffffffffffffffff168173ffffffffffffffffffffffffffffffffffffffff1603610d46576040517f08c379a0000000000000000000000000000000000000000000000000000000008152600401610d3d90612c69565b60405180910390fd5b610d4f8161146f565b50565b60007f80ac58cd000000000000000000000000000000000000000000000000000000007bffffffffffffffffffffffffffffffffffffffffffffffffffffffff1916827bffffffffffffffffffffffffffffffffffffffffffffffffffffffff19161480610e1d57507f5b5e139f000000000000000000000000000000000000000000000000000000007bffffffffffffffffffffffffffffffffffffffffffffffffffffffff1916827bffffffffffffffffffffffffffffffffffffffffffffffffffffffff1916145b80610e2d5750610e2c8261177c565b5b9050919050565b610e3d816117e6565b610e7c576040517f08c379a0000000000000000000000000000000000000000000000000000000008152600401610e7390612ae5565b60405180910390fd5b50565b600033905090565b816004600083815260200190815260200160002060006101000a81548173ffffffffffffffffffffffffffffffffffffffff021916908373ffffffffffffffffffffffffffffffffffffffff160217905550808273ffffffffffffffffffffffffffffffffffffffff16610efa836108a4565b73ffffffffffffffffffffffffffffffffffffffff167f8c5be1e5ebec7d5bd14f71427d1e84f3dd0314c0f7b2291e5b200ac8c7c3b92560405160405180910390a45050565b610f48610e7f565b73ffffffffffffffffffffffffffffffffffffffff16610f666109f5565b73ffffffffffffffffffffffffffffffffffffffff1614610fbc576040517f08c379a0000000000000000000000000000000000000000000000000000000008152600401610fb390612cd5565b60405180910390fd5b565b600080610fca836108a4565b90508073ffffffffffffffffffffffffffffffffffffffff168473ffffffffffffffffffffffffffffffffffffffff16148061100c575061100b8185610c3b565b5b8061104a57508373ffffffffffffffffffffffffffffffffffffffff16611032846104c1565b73ffffffffffffffffffffffffffffffffffffffff16145b91505092915050565b8273ffffffffffffffffffffffffffffffffffffffff16611073826108a4565b73ffffffffffffffffffffffffffffffffffffffff16146110c9576040517f08c379a00000000000000000000000000000000000000000000000000000000081526004016110c090612d67565b60405180910390fd5b600073ffffffffffffffffffffffffffffffffffffffff168273ffffffffffffffffffffffffffffffffffffffff1603611138576040517f08c379a000000000000000000000000000000000000000000000000000000000815260040161112f90612df9565b60405180910390fd5b6111458383836001611827565b8273ffffffffffffffffffffffffffffffffffffffff16611165826108a4565b73ffffffffffffffffffffffffffffffffffffffff16146111bb576040517f08c379a00000000000000000000000000000000000000000000000000000000081526004016111b290612d67565b60405180910390fd5b6004600082815260200190815260200160002060006101000a81549073ffffffffffffffffffffffffffffffffffffffff02191690556001600360008573ffffffffffffffffffffffffffffffffffffffff1673ffffffffffffffffffffffffffffffffffffffff168152602001908152602001600020600082825403925050819055506001600360008473ffffffffffffffffffffffffffffffffffffffff1673ffffffffffffffffffffffffffffffffffffffff16815260200190815260200160002060008282540192505081905550816002600083815260200190815260200160002060006101000a81548173ffffffffffffffffffffffffffffffffffffffff021916908373ffffffffffffffffffffffffffffffffffffffff160217905550808273ffffffffffffffffffffffffffffffffffffffff168473ffffffffffffffffffffffffffffffffffffffff167fddf252ad1be2c89b69c2b068fc378daa952ba7f163c4a11628f55a4df523b3ef60405160405180910390a4611347838383600161182d565b505050565b600081600001549050919050565b6001816000016000828254019250508190555050565b61138a828260405180602001604052806000815250611833565b5050565b611397826117e6565b6113d6576040517f08c379a00000000000000000000000000000000000000000000000000000000081526004016113cd90612e8b565b60405180910390fd5b806006600084815260200190815260200160002090816113f691906129c7565b507ff8e1a15aba9398e019f0b49df1a4fde98ee17ae345cb5f6b5e2c27f5033e8ce7826040516114269190612342565b60405180910390a15050565b60006002600083815260200190815260200160002060009054906101000a900473ffffffffffffffffffffffffffffffffffffffff169050919050565b6000600760009054906101000a900473ffffffffffffffffffffffffffffffffffffffff16905081600760006101000a81548173ffffffffffffffffffffffffffffffffffffffff021916908373ffffffffffffffffffffffffffffffffffffffff1602179055508173ffffffffffffffffffffffffffffffffffffffff168173ffffffffffffffffffffffffffffffffffffffff167f8be0079c531659141344cd1fd0a4f28419497f9722a3daafe3b4186f6b6457e060405160405180910390a35050565b8173ffffffffffffffffffffffffffffffffffffffff168373ffffffffffffffffffffffffffffffffffffffff16036115a3576040517f08c379a000000000000000000000000000000000000000000000000000000000815260040161159a90612ef7565b60405180910390fd5b80600560008573ffffffffffffffffffffffffffffffffffffffff1673ffffffffffffffffffffffffffffffffffffffff16815260200190815260200160002060008473ffffffffffffffffffffffffffffffffffffffff1673ffffffffffffffffffffffffffffffffffffffff16815260200190815260200160002060006101000a81548160ff0219169083151502179055508173ffffffffffffffffffffffffffffffffffffffff168373ffffffffffffffffffffffffffffffffffffffff167f17307eab39ab6107e8899845ad3d59bd9653f200f220920489ca2b5937696c31836040516116949190611f2a565b60405180910390a3505050565b6116ac848484611053565b6116b88484848461188e565b6116f7576040517f08c379a00000000000000000000000000000000000000000000000000000000081526004016116ee90612f89565b60405180910390fd5b50505050565b606060405180602001604052806000815250905090565b606061171f82610e34565b60006117296116fd565b905060008151116117495760405180602001604052806000815250611774565b8061175384611a15565b604051602001611764929190612bd3565b6040516020818303038152906040525b915050919050565b60007f01ffc9a7000000000000000000000000000000000000000000000000000000007bffffffffffffffffffffffffffffffffffffffffffffffffffffffff1916827bffffffffffffffffffffffffffffffffffffffffffffffffffffffff1916149050919050565b60008073ffffffffffffffffffffffffffffffffffffffff1661180883611432565b73ffffffffffffffffffffffffffffffffffffffff1614159050919050565b50505050565b50505050565b61183d8383611ae3565b61184a600084848461188e565b611889576040517f08c379a000000000000000000000000000000000000000000000000000000000815260040161188090612f89565b60405180910390fd5b505050565b60006118af8473ffffffffffffffffffffffffffffffffffffffff16611d00565b15611a08578373ffffffffffffffffffffffffffffffffffffffff1663150b7a026118d8610e7f565b8786866040518563ffffffff1660e01b81526004016118fa9493929190612ffe565b6020604051808303816000875af192505050801561193657506040513d601f19601f82011682018060405250810190611933919061305f565b60015b6119b8573d8060008114611966576040519150601f19603f3d011682016040523d82523d6000602084013e61196b565b606091505b5060008151036119b0576040517f08c379a00000000000000000000000000000000000000000000000000000000081526004016119a790612f89565b60405180910390fd5b805181602001fd5b63150b7a0260e01b7bffffffffffffffffffffffffffffffffffffffffffffffffffffffff1916817bffffffffffffffffffffffffffffffffffffffffffffffffffffffff191614915050611a0d565b600190505b949350505050565b606060006001611a2484611d23565b01905060008167ffffffffffffffff811115611a4357611a426121ac565b5b6040519080825280601f01601f191660200182016040528015611a755781602001600182028036833780820191505090505b509050600082602001820190505b600115611ad8578080600190039150507f3031323334353637383961626364656600000000000000000000000000000000600a86061a8153600a8581611acc57611acb61308c565b5b04945060008503611a83575b819350505050919050565b600073ffffffffffffffffffffffffffffffffffffffff168273ffffffffffffffffffffffffffffffffffffffff1603611b52576040517f08c379a0000000000000000000000000000000000000000000000000000000008152600401611b4990613107565b60405180910390fd5b611b5b816117e6565b15611b9b576040517f08c379a0000000000000000000000000000000000000000000000000000000008152600401611b9290613173565b60405180910390fd5b611ba9600083836001611827565b611bb2816117e6565b15611bf2576040517f08c379a0000000000000000000000000000000000000000000000000000000008152600401611be990613173565b60405180910390fd5b6001600360008473ffffffffffffffffffffffffffffffffffffffff1673ffffffffffffffffffffffffffffffffffffffff16815260200190815260200160002060008282540192505081905550816002600083815260200190815260200160002060006101000a81548173ffffffffffffffffffffffffffffffffffffffff021916908373ffffffffffffffffffffffffffffffffffffffff160217905550808273ffffffffffffffffffffffffffffffffffffffff16600073ffffffffffffffffffffffffffffffffffffffff167fddf252ad1be2c89b69c2b068fc378daa952ba7f163c4a11628f55a4df523b3ef60405160405180910390a4611cfc60008383600161182d565b5050565b6000808273ffffffffffffffffffffffffffffffffffffffff163b119050919050565b600080600090507a184f03e93ff9f4daa797ed6e38ed64bf6a1f0100000000000000008310611d81577a184f03e93ff9f4daa797ed6e38ed64bf6a1f0100000000000000008381611d7757611d7661308c565b5b0492506040810190505b6d04ee2d6d415b85acef81000000008310611dbe576d04ee2d6d415b85acef81000000008381611db457611db361308c565b5b0492506020810190505b662386f26fc100008310611ded57662386f26fc100008381611de357611de261308c565b5b0492506010810190505b6305f5e1008310611e16576305f5e1008381611e0c57611e0b61308c565b5b0492506008810190505b6127108310611e3b576127108381611e3157611e3061308c565b5b0492506004810190505b60648310611e5e5760648381611e5457611e5361308c565b5b0492506002810190505b600a8310611e6d576001810190505b80915050919050565b6000604051905090565b600080fd5b600080fd5b60007fffffffff0000000000000000000000000000000000000000000000000000000082169050919050565b611ebf81611e8a565b8114611eca57600080fd5b50565b600081359050611edc81611eb6565b92915050565b600060208284031215611ef857611ef7611e80565b5b6000611f0684828501611ecd565b91505092915050565b60008115159050919050565b611f2481611f0f565b82525050565b6000602082019050611f3f6000830184611f1b565b92915050565b600081519050919050565b600082825260208201905092915050565b60005b83811015611f7f578082015181840152602081019050611f64565b60008484015250505050565b6000601f19601f8301169050919050565b6000611fa782611f45565b611fb18185611f50565b9350611fc1818560208601611f61565b611fca81611f8b565b840191505092915050565b60006020820190508181036000830152611fef8184611f9c565b905092915050565b6000819050919050565b61200a81611ff7565b811461201557600080fd5b50565b60008135905061202781612001565b92915050565b60006020828403121561204357612042611e80565b5b600061205184828501612018565b91505092915050565b600073ffffffffffffffffffffffffffffffffffffffff82169050919050565b60006120858261205a565b9050919050565b6120958161207a565b82525050565b60006020820190506120b0600083018461208c565b92915050565b6120bf8161207a565b81146120ca57600080fd5b50565b6000813590506120dc816120b6565b92915050565b600080604083850312156120f9576120f8611e80565b5b6000612107858286016120cd565b925050602061211885828601612018565b9150509250929050565b60006020828403121561213857612137611e80565b5b6000612146848285016120cd565b91505092915050565b60008060006060848603121561216857612167611e80565b5b6000612176868287016120cd565b9350506020612187868287016120cd565b925050604061219886828701612018565b9150509250925092565b600080fd5b600080fd5b7f4e487b7100000000000000000000000000000000000000000000000000000000600052604160045260246000fd5b6121e482611f8b565b810181811067ffffffffffffffff82111715612203576122026121ac565b5b80604052505050565b6000612216611e76565b905061222282826121db565b919050565b600067ffffffffffffffff821115612242576122416121ac565b5b61224b82611f8b565b9050602081019050919050565b82818337600083830152505050565b600061227a61227584612227565b61220c565b905082815260208101848484011115612296576122956121a7565b5b6122a1848285612258565b509392505050565b600082601f8301126122be576122bd6121a2565b5b81356122ce848260208601612267565b91505092915050565b600080604083850312156122ee576122ed611e80565b5b60006122fc858286016120cd565b925050602083013567ffffffffffffffff81111561231d5761231c611e85565b5b612329858286016122a9565b9150509250929050565b61233c81611ff7565b82525050565b60006020820190506123576000830184612333565b92915050565b61236681611f0f565b811461237157600080fd5b50565b6000813590506123838161235d565b92915050565b600080604083850312156123a05761239f611e80565b5b60006123ae858286016120cd565b92505060206123bf85828601612374565b9150509250929050565b600067ffffffffffffffff8211156123e4576123e36121ac565b5b6123ed82611f8b565b9050602081019050919050565b600061240d612408846123c9565b61220c565b905082815260208101848484011115612429576124286121a7565b5b612434848285612258565b509392505050565b600082601f830112612451576124506121a2565b5b81356124618482602086016123fa565b91505092915050565b6000806000806080858703121561248457612483611e80565b5b6000612492878288016120cd565b94505060206124a3878288016120cd565b93505060406124b487828801612018565b925050606085013567ffffffffffffffff8111156124d5576124d4611e85565b5b6124e18782880161243c565b91505092959194509250565b6000806040838503121561250457612503611e80565b5b6000612512858286016120cd565b9250506020612523858286016120cd565b9150509250929050565b7f4e487b7100000000000000000000000000000000000000000000000000000000600052602260045260246000fd5b6000600282049050600182168061257457607f821691505b6020821081036125875761258661252d565b5b50919050565b7f4552433732313a20617070726f76616c20746f2063757272656e74206f776e6560008201527f7200000000000000000000000000000000000000000000000000000000000000602082015250565b60006125e9602183611f50565b91506125f48261258d565b604082019050919050565b60006020820190508181036000830152612618816125dc565b9050919050565b7f4552433732313a20617070726f76652063616c6c6572206973206e6f7420746f60008201527f6b656e206f776e6572206f7220617070726f76656420666f7220616c6c000000602082015250565b600061267b603d83611f50565b91506126868261261f565b604082019050919050565b600060208201905081810360008301526126aa8161266e565b9050919050565b7f496e76616c6964206d696e746572206164647265737300000000000000000000600082015250565b60006126e7601683611f50565b91506126f2826126b1565b602082019050919050565b60006020820190508181036000830152612716816126da565b9050919050565b7f4552433732313a2063616c6c6572206973206e6f7420746f6b656e206f776e6560008201527f72206f7220617070726f76656400000000000000000000000000000000000000602082015250565b6000612779602d83611f50565b91506127848261271d565b604082019050919050565b600060208201905081810360008301526127a88161276c565b9050919050565b7f4e6f7420617574686f72697a656420746f206d696e7400000000000000000000600082015250565b60006127e5601683611f50565b91506127f0826127af565b602082019050919050565b60006020820190508181036000830152612814816127d8565b9050919050565b60008190508160005260206000209050919050565b60006020601f8301049050919050565b600082821b905092915050565b60006008830261287d7fffffffffffffffffffffffffffffffffffffffffffffffffffffffffffffffff82612840565b6128878683612840565b95508019841693508086168417925050509392505050565b6000819050919050565b60006128c46128bf6128ba84611ff7565b61289f565b611ff7565b9050919050565b6000819050919050565b6128de836128a9565b6128f26128ea826128cb565b84845461284d565b825550505050565b600090565b6129076128fa565b6129128184846128d5565b505050565b5b818110156129365761292b6000826128ff565b600181019050612918565b5050565b601f82111561297b5761294c8161281b565b61295584612830565b81016020851015612964578190505b61297861297085612830565b830182612917565b50505b505050565b600082821c905092915050565b600061299e60001984600802612980565b1980831691505092915050565b60006129b7838361298d565b9150826002028217905092915050565b6129d082611f45565b67ffffffffffffffff8111156129e9576129e86121ac565b5b6129f3825461255c565b6129fe82828561293a565b600060209050601f831160018114612a315760008415612a1f578287015190505b612a2985826129ab565b865550612a91565b601f198416612a3f8661281b565b60005b82811015612a6757848901518255600182019150602085019450602081019050612a42565b86831015612a845784890151612a80601f89168261298d565b8355505b6001600288020188555050505b505050505050565b7f4552433732313a20696e76616c696420746f6b656e2049440000000000000000600082015250565b6000612acf601883611f50565b9150612ada82612a99565b602082019050919050565b60006020820190508181036000830152612afe81612ac2565b9050919050565b7f4552433732313a2061646472657373207a65726f206973206e6f74206120766160008201527f6c6964206f776e65720000000000000000000000000000000000000000000000602082015250565b6000612b61602983611f50565b9150612b6c82612b05565b604082019050919050565b60006020820190508181036000830152612b9081612b54565b9050919050565b600081905092915050565b6000612bad82611f45565b612bb78185612b97565b9350612bc7818560208601611f61565b80840191505092915050565b6000612bdf8285612ba2565b9150612beb8284612ba2565b91508190509392505050565b7f4f776e61626c653a206e6577206f776e657220697320746865207a65726f206160008201527f6464726573730000000000000000000000000000000000000000000000000000602082015250565b6000612c53602683611f50565b9150612c5e82612bf7565b604082019050919050565b60006020820190508181036000830152612c8281612c46565b9050919050565b7f4f776e61626c653a2063616c6c6572206973206e6f7420746865206f776e6572600082015250565b6000612cbf602083611f50565b9150612cca82612c89565b602082019050919050565b60006020820190508181036000830152612cee81612cb2565b9050919050565b7f4552433732313a207472616e736665722066726f6d20696e636f72726563742060008201527f6f776e6572000000000000000000000000000000000000000000000000000000602082015250565b6000612d51602583611f50565b9150612d5c82612cf5565b604082019050919050565b60006020820190508181036000830152612d8081612d44565b9050919050565b7f4552433732313a207472616e7366657220746f20746865207a65726f2061646460008201527f7265737300000000000000000000000000000000000000000000000000000000602082015250565b6000612de3602483611f50565b9150612dee82612d87565b604082019050919050565b60006020820190508181036000830152612e1281612dd6565b9050919050565b7f45524337323155524953746f726167653a2055524920736574206f66206e6f6e60008201527f6578697374656e7420746f6b656e000000000000000000000000000000000000602082015250565b6000612e75602e83611f50565b9150612e8082612e19565b604082019050919050565b60006020820190508181036000830152612ea481612e68565b9050919050565b7f4552433732313a20617070726f766520746f2063616c6c657200000000000000600082015250565b6000612ee1601983611f50565b9150612eec82612eab565b602082019050919050565b60006020820190508181036000830152612f1081612ed4565b9050919050565b7f4552433732313a207472616e7366657220746f206e6f6e20455243373231526560008201527f63656976657220696d706c656d656e7465720000000000000000000000000000602082015250565b6000612f73603283611f50565b9150612f7e82612f17565b604082019050919050565b60006020820190508181036000830152612fa281612f66565b9050919050565b600081519050919050565b600082825260208201905092915050565b6000612fd082612fa9565b612fda8185612fb4565b9350612fea818560208601611f61565b612ff381611f8b565b840191505092915050565b6000608082019050613013600083018761208c565b613020602083018661208c565b61302d6040830185612333565b818103606083015261303f8184612fc5565b905095945050505050565b60008151905061305981611eb6565b92915050565b60006020828403121561307557613074611e80565b5b60006130838482850161304a565b91505092915050565b7f4e487b7100000000000000000000000000000000000000000000000000000000600052601260045260246000fd5b7f4552433732313a206d696e7420746f20746865207a65726f2061646472657373600082015250565b60006130f1602083611f50565b91506130fc826130bb565b602082019050919050565b60006020820190508181036000830152613120816130e4565b9050919050565b7f4552433732313a20746f6b656e20616c7265616479206d696e74656400000000600082015250565b600061315d601c83611f50565b915061316882613127565b602082019050919050565b6000602082019050818103600083015261318c81613150565b905091905056fea2646970667358221220852f3a953f19041dd4247c2d63de1d93bf1cb3c61e5feb296e22a619ef3ff15164736f6c634300081c0033","opcodes":"PUSH1 0x80 PUSH1 0x40 MSTORE CALLVALUE DUP1 ISZERO PUSH2 0x10 JUMPI PUSH1 0x0 DUP1 REVERT JUMPDEST POP PUSH1 0x40 MLOAD DUP1 PUSH1 0x40 ADD PUSH1 0x40 MSTORE DUP1 PUSH1 0x6 DUP2 MSTORE PUSH1 0x20 ADD PUSH32 0x5469636B65740000000000000000000000000000000000000000000000000000 DUP2 MSTORE POP PUSH1 0x40 MLOAD DUP1 PUSH1 0x40 ADD PUSH1 0x40 MSTORE DUP1 PUSH1 0x6 DUP2 MSTORE PUSH1 0x20 ADD PUSH32 0x5449434B45540000000000000000000000000000000000000000000000000000 DUP2 MSTORE POP DUP2 PUSH1 0x0 SWAP1 DUP2 PUSH2 0x8C SWAP2 SWAP1 PUSH2 0x3DE JUMP JUMPDEST POP DUP1 PUSH1 0x1 SWAP1 DUP2 PUSH2 0x9C SWAP2 SWAP1 PUSH2 0x3DE JUMP JUMPDEST POP POP POP PUSH2 0xBB PUSH2 0xB0 PUSH2 0xC0 PUSH1 0x20 SHL PUSH1 0x20 SHR JUMP JUMPDEST PUSH2 0xC8 PUSH1 0x20 SHL PUSH1 0x20 SHR JUMP JUMPDEST PUSH2 0x4B0 JUMP JUMPDEST PUSH1 0x0 CALLER SWAP1 POP SWAP1 JUMP JUMPDEST PUSH1 0x0 PUSH1 0x7 PUSH1 0x0 SWAP1 SLOAD SWAP1 PUSH2 0x100 EXP SWAP1 DIV PUSH20 0xFFFFFFFFFFFFFFFFFFFFFFFFFFFFFFFFFFFFFFFF AND SWAP1 POP DUP2 PUSH1 0x7 PUSH1 0x0 PUSH2 0x100 EXP DUP2 SLOAD DUP2 PUSH20 0xFFFFFFFFFFFFFFFFFFFFFFFFFFFFFFFFFFFFFFFF MUL NOT AND SWAP1 DUP4 PUSH20 0xFFFFFFFFFFFFFFFFFFFFFFFFFFFFFFFFFFFFFFFF AND MUL OR SWAP1 SSTORE POP DUP2 PUSH20 0xFFFFFFFFFFFFFFFFFFFFFFFFFFFFFFFFFFFFFFFF AND DUP2 PUSH20 0xFFFFFFFFFFFFFFFFFFFFFFFFFFFFFFFFFFFFFFFF AND PUSH32 0x8BE0079C531659141344CD1FD0A4F28419497F9722A3DAAFE3B4186F6B6457E0 PUSH1 0x40 MLOAD PUSH1 0x40 MLOAD DUP1 SWAP2 SUB SWAP1 LOG3 POP POP JUMP JUMPDEST PUSH1 0x0 DUP2 MLOAD SWAP1 POP SWAP2 SWAP1 POP JUMP JUMPDEST PUSH32 0x4E487B7100000000000000000000000000000000000000000000000000000000 PUSH1 0x0 MSTORE PUSH1 0x41 PUSH1 0x4 MSTORE PUSH1 0x24 PUSH1 0x0 REVERT JUMPDEST PUSH32 0x4E487B7100000000000000000000000000000000000000000000000000000000 PUSH1 0x0 MSTORE PUSH1 0x22 PUSH1 0x4 MSTORE PUSH1 0x24 PUSH1 0x0 REVERT JUMPDEST PUSH1 0x0 PUSH1 0x2 DUP3 DIV SWAP1 POP PUSH1 0x1 DUP3 AND DUP1 PUSH2 0x20F JUMPI PUSH1 0x7F DUP3 AND SWAP2 POP JUMPDEST PUSH1 0x20 DUP3 LT DUP2 SUB PUSH2 0x222 JUMPI PUSH2 0x221 PUSH2 0x1C8 JUMP JUMPDEST JUMPDEST POP SWAP2 SWAP1 POP JUMP JUMPDEST PUSH1 0x0 DUP2 SWAP1 POP DUP2 PUSH1 0x0 MSTORE PUSH1 0x20 PUSH1 0x0 KECCAK256 SWAP1 POP SWAP2 SWAP1 POP JUMP JUMPDEST PUSH1 0x0 PUSH1 0x20 PUSH1 0x1F DUP4 ADD DIV SWAP1 POP SWAP2 SWAP1 POP JUMP JUMPDEST PUSH1 0x0 DUP3 DUP3 SHL SWAP1 POP SWAP3 SWAP2 POP POP JUMP JUMPDEST PUSH1 0x0 PUSH1 0x8 DUP4 MUL PUSH2 0x28A PUSH32 0xFFFFFFFFFFFFFFFFFFFFFFFFFFFFFFFFFFFFFFFFFFFFFFFFFFFFFFFFFFFFFFFF DUP3 PUSH2 0x24D JUMP JUMPDEST PUSH2 0x294 DUP7 DUP4 PUSH2 0x24D JUMP JUMPDEST SWAP6 POP DUP1 NOT DUP5 AND SWAP4 POP DUP1 DUP7 AND DUP5 OR SWAP3 POP POP POP SWAP4 SWAP3 POP POP POP JUMP JUMPDEST PUSH1 0x0 DUP2 SWAP1 POP SWAP2 SWAP1 POP JUMP JUMPDEST PUSH1 0x0 DUP2 SWAP1 POP SWAP2 SWAP1 POP JUMP JUMPDEST PUSH1 0x0 PUSH2 0x2DB PUSH2 0x2D6 PUSH2 0x2D1 DUP5 PUSH2 0x2AC JUMP JUMPDEST PUSH2 0x2B6 JUMP JUMPDEST PUSH2 0x2AC JUMP JUMPDEST SWAP1 POP SWAP2 SWAP1 POP JUMP JUMPDEST PUSH1 0x0 DUP2 SWAP1 POP SWAP2 SWAP1 POP JUMP JUMPDEST PUSH2 0x2F5 DUP4 PUSH2 0x2C0 JUMP JUMPDEST PUSH2 0x309 PUSH2 0x301 DUP3 PUSH2 0x2E2 JUMP JUMPDEST DUP5 DUP5 SLOAD PUSH2 0x25A JUMP JUMPDEST DUP3 SSTORE POP POP POP POP JUMP JUMPDEST PUSH1 0x0 SWAP1 JUMP JUMPDEST PUSH2 0x31E PUSH2 0x311 JUMP JUMPDEST PUSH2 0x329 DUP2 DUP5 DUP5 PUSH2 0x2EC JUMP JUMPDEST POP POP POP JUMP JUMPDEST JUMPDEST DUP2 DUP2 LT ISZERO PUSH2 0x34D JUMPI PUSH2 0x342 PUSH1 0x0 DUP3 PUSH2 0x316 JUMP JUMPDEST PUSH1 0x1 DUP2 ADD SWAP1 POP PUSH2 0x32F JUMP JUMPDEST POP POP JUMP JUMPDEST PUSH1 0x1F DUP3 GT ISZERO PUSH2 0x392 JUMPI PUSH2 0x363 DUP2 PUSH2 0x228 JUMP JUMPDEST PUSH2 0x36C DUP5 PUSH2 0x23D JUMP JUMPDEST DUP2 ADD PUSH1 0x20 DUP6 LT ISZERO PUSH2 0x37B JUMPI DUP2 SWAP1 POP JUMPDEST PUSH2 0x38F PUSH2 0x387 DUP6 PUSH2 0x23D JUMP JUMPDEST DUP4 ADD DUP3 PUSH2 0x32E JUMP JUMPDEST POP POP JUMPDEST POP POP POP JUMP JUMPDEST PUSH1 0x0 DUP3 DUP3 SHR SWAP1 POP SWAP3 SWAP2 POP POP JUMP JUMPDEST PUSH1 0x0 PUSH2 0x3B5 PUSH1 0x0 NOT DUP5 PUSH1 0x8 MUL PUSH2 0x397 JUMP JUMPDEST NOT DUP1 DUP4 AND SWAP2 POP POP SWAP3 SWAP2 POP POP JUMP JUMPDEST PUSH1 0x0 PUSH2 0x3CE DUP4 DUP4 PUSH2 0x3A4 JUMP JUMPDEST SWAP2 POP DUP3 PUSH1 0x2 MUL DUP3 OR SWAP1 POP SWAP3 SWAP2 POP POP JUMP JUMPDEST PUSH2 0x3E7 DUP3 PUSH2 0x18E JUMP JUMPDEST PUSH8 0xFFFFFFFFFFFFFFFF DUP2 GT ISZERO PUSH2 0x400 JUMPI PUSH2 0x3FF PUSH2 0x199 JUMP JUMPDEST JUMPDEST PUSH2 0x40A DUP3 SLOAD PUSH2 0x1F7 JUMP JUMPDEST PUSH2 0x415 DUP3 DUP3 DUP6 PUSH2 0x351 JUMP JUMPDEST PUSH1 0x0 PUSH1 0x20 SWAP1 POP PUSH1 0x1F DUP4 GT PUSH1 0x1 DUP2 EQ PUSH2 0x448 JUMPI PUSH1 0x0 DUP5 ISZERO PUSH2 0x436 JUMPI DUP3 DUP8 ADD MLOAD SWAP1 POP JUMPDEST PUSH2 0x440 DUP6 DUP3 PUSH2 0x3C2 JUMP JUMPDEST DUP7 SSTORE POP PUSH2 0x4A8 JUMP JUMPDEST PUSH1 0x1F NOT DUP5 AND PUSH2 0x456 DUP7 PUSH2 0x228 JUMP JUMPDEST PUSH1 0x0 JUMPDEST DUP3 DUP2 LT ISZERO PUSH2 0x47E JUMPI DUP5 DUP10 ADD MLOAD DUP3 SSTORE PUSH1 0x1 DUP3 ADD SWAP2 POP PUSH1 0x20 DUP6 ADD SWAP5 POP PUSH1 0x20 DUP2 ADD SWAP1 POP PUSH2 0x459 JUMP JUMPDEST DUP7 DUP4 LT ISZERO PUSH2 0x49B JUMPI DUP5 DUP10 ADD MLOAD PUSH2 0x497 PUSH1 0x1F DUP10 AND DUP3 PUSH2 0x3A4 JUMP JUMPDEST DUP4 SSTORE POP JUMPDEST PUSH1 0x1 PUSH1 0x2 DUP9 MUL ADD DUP9 SSTORE POP POP POP JUMPDEST POP POP POP POP POP POP JUMP JUMPDEST PUSH2 0x31C9 DUP1 PUSH2 0x4BF PUSH1 0x0 CODECOPY PUSH1 0x0 RETURN INVALID PUSH1 0x80 PUSH1 0x40 MSTORE CALLVALUE DUP1 ISZERO PUSH2 0x10 JUMPI PUSH1 0x0 DUP1 REVERT JUMPDEST POP PUSH1 0x4 CALLDATASIZE LT PUSH2 0x121 JUMPI PUSH1 0x0 CALLDATALOAD PUSH1 0xE0 SHR DUP1 PUSH4 0x6352211E GT PUSH2 0xAD JUMPI DUP1 PUSH4 0xA22CB465 GT PUSH2 0x71 JUMPI DUP1 PUSH4 0xA22CB465 EQ PUSH2 0x31A JUMPI DUP1 PUSH4 0xB88D4FDE EQ PUSH2 0x336 JUMPI DUP1 PUSH4 0xC87B56DD EQ PUSH2 0x352 JUMPI DUP1 PUSH4 0xE985E9C5 EQ PUSH2 0x382 JUMPI DUP1 PUSH4 0xF2FDE38B EQ PUSH2 0x3B2 JUMPI PUSH2 0x121 JUMP JUMPDEST DUP1 PUSH4 0x6352211E EQ PUSH2 0x274 JUMPI DUP1 PUSH4 0x70A08231 EQ PUSH2 0x2A4 JUMPI DUP1 PUSH4 0x715018A6 EQ PUSH2 0x2D4 JUMPI DUP1 PUSH4 0x8DA5CB5B EQ PUSH2 0x2DE JUMPI DUP1 PUSH4 0x95D89B41 EQ PUSH2 0x2FC JUMPI PUSH2 0x121 JUMP JUMPDEST DUP1 PUSH4 0xC984832 GT PUSH2 0xF4 JUMPI DUP1 PUSH4 0xC984832 EQ PUSH2 0x1C0 JUMPI DUP1 PUSH4 0x23B872DD EQ PUSH2 0x1DC JUMPI DUP1 PUSH4 0x3BB3A24D EQ PUSH2 0x1F8 JUMPI DUP1 PUSH4 0x42842E0E EQ PUSH2 0x228 JUMPI DUP1 PUSH4 0x5388842C EQ PUSH2 0x244 JUMPI PUSH2 0x121 JUMP JUMPDEST DUP1 PUSH4 0x1FFC9A7 EQ PUSH2 0x126 JUMPI DUP1 PUSH4 0x6FDDE03 EQ PUSH2 0x156 JUMPI DUP1 PUSH4 0x81812FC EQ PUSH2 0x174 JUMPI DUP1 PUSH4 0x95EA7B3 EQ PUSH2 0x1A4 JUMPI JUMPDEST PUSH1 0x0 DUP1 REVERT JUMPDEST PUSH2 0x140 PUSH1 0x4 DUP1 CALLDATASIZE SUB DUP2 ADD SWAP1 PUSH2 0x13B SWAP2 SWAP1 PUSH2 0x1EE2 JUMP JUMPDEST PUSH2 0x3CE JUMP JUMPDEST PUSH1 0x40 MLOAD PUSH2 0x14D SWAP2 SWAP1 PUSH2 0x1F2A JUMP JUMPDEST PUSH1 0x40 MLOAD DUP1 SWAP2 SUB SWAP1 RETURN JUMPDEST PUSH2 0x15E PUSH2 0x42F JUMP JUMPDEST PUSH1 0x40 MLOAD PUSH2 0x16B SWAP2 SWAP1 PUSH2 0x1FD5 JUMP JUMPDEST PUSH1 0x40 MLOAD DUP1 SWAP2 SUB SWAP1 RETURN JUMPDEST PUSH2 0x18E PUSH1 0x4 DUP1 CALLDATASIZE SUB DUP2 ADD SWAP1 PUSH2 0x189 SWAP2 SWAP1 PUSH2 0x202D JUMP JUMPDEST PUSH2 0x4C1 JUMP JUMPDEST PUSH1 0x40 MLOAD PUSH2 0x19B SWAP2 SWAP1 PUSH2 0x209B JUMP JUMPDEST PUSH1 0x40 MLOAD DUP1 SWAP2 SUB SWAP1 RETURN JUMPDEST PUSH2 0x1BE PUSH1 0x4 DUP1 CALLDATASIZE SUB DUP2 ADD SWAP1 PUSH2 0x1B9 SWAP2 SWAP1 PUSH2 0x20E2 JUMP JUMPDEST PUSH2 0x507 JUMP JUMPDEST STOP JUMPDEST PUSH2 0x1DA PUSH1 0x4 DUP1 CALLDATASIZE SUB DUP2 ADD SWAP1 PUSH2 0x1D5 SWAP2 SWAP1 PUSH2 0x2122 JUMP JUMPDEST PUSH2 0x61E JUMP JUMPDEST STOP JUMPDEST PUSH2 0x1F6 PUSH1 0x4 DUP1 CALLDATASIZE SUB DUP2 ADD SWAP1 PUSH2 0x1F1 SWAP2 SWAP1 PUSH2 0x214F JUMP JUMPDEST PUSH2 0x6F0 JUMP JUMPDEST STOP JUMPDEST PUSH2 0x212 PUSH1 0x4 DUP1 CALLDATASIZE SUB DUP2 ADD SWAP1 PUSH2 0x20D SWAP2 SWAP1 PUSH2 0x202D JUMP JUMPDEST PUSH2 0x750 JUMP JUMPDEST PUSH1 0x40 MLOAD PUSH2 0x21F SWAP2 SWAP1 PUSH2 0x1FD5 JUMP JUMPDEST PUSH1 0x40 MLOAD DUP1 SWAP2 SUB SWAP1 RETURN JUMPDEST PUSH2 0x242 PUSH1 0x4 DUP1 CALLDATASIZE SUB DUP2 ADD SWAP1 PUSH2 0x23D SWAP2 SWAP1 PUSH2 0x214F JUMP JUMPDEST PUSH2 0x762 JUMP JUMPDEST STOP JUMPDEST PUSH2 0x25E PUSH1 0x4 DUP1 CALLDATASIZE SUB DUP2 ADD SWAP1 PUSH2 0x259 SWAP2 SWAP1 PUSH2 0x22D7 JUMP JUMPDEST PUSH2 0x782 JUMP JUMPDEST PUSH1 0x40 MLOAD PUSH2 0x26B SWAP2 SWAP1 PUSH2 0x2342 JUMP JUMPDEST PUSH1 0x40 MLOAD DUP1 SWAP2 SUB SWAP1 RETURN JUMPDEST PUSH2 0x28E PUSH1 0x4 DUP1 CALLDATASIZE SUB DUP2 ADD SWAP1 PUSH2 0x289 SWAP2 SWAP1 PUSH2 0x202D JUMP JUMPDEST PUSH2 0x8A4 JUMP JUMPDEST PUSH1 0x40 MLOAD PUSH2 0x29B SWAP2 SWAP1 PUSH2 0x209B JUMP JUMPDEST PUSH1 0x40 MLOAD DUP1 SWAP2 SUB SWAP1 RETURN JUMPDEST PUSH2 0x2BE PUSH1 0x4 DUP1 CALLDATASIZE SUB DUP2 ADD SWAP1 PUSH2 0x2B9 SWAP2 SWAP1 PUSH2 0x2122 JUMP JUMPDEST PUSH2 0x92A JUMP JUMPDEST PUSH1 0x40 MLOAD PUSH2 0x2CB SWAP2 SWAP1 PUSH2 0x2342 JUMP JUMPDEST PUSH1 0x40 MLOAD DUP1 SWAP2 SUB SWAP1 RETURN JUMPDEST PUSH2 0x2DC PUSH2 0x9E1 JUMP JUMPDEST STOP JUMPDEST PUSH2 0x2E6 PUSH2 0x9F5 JUMP JUMPDEST PUSH1 0x40 MLOAD PUSH2 0x2F3 SWAP2 SWAP1 PUSH2 0x209B JUMP JUMPDEST PUSH1 0x40 MLOAD DUP1 SWAP2 SUB SWAP1 RETURN JUMPDEST PUSH2 0x304 PUSH2 0xA1F JUMP JUMPDEST PUSH1 0x40 MLOAD PUSH2 0x311 SWAP2 SWAP1 PUSH2 0x1FD5 JUMP JUMPDEST PUSH1 0x40 MLOAD DUP1 SWAP2 SUB SWAP1 RETURN JUMPDEST PUSH2 0x334 PUSH1 0x4 DUP1 CALLDATASIZE SUB DUP2 ADD SWAP1 PUSH2 0x32F SWAP2 SWAP1 PUSH2 0x2389 JUMP JUMPDEST PUSH2 0xAB1 JUMP JUMPDEST STOP JUMPDEST PUSH2 0x350 PUSH1 0x4 DUP1 CALLDATASIZE SUB DUP2 ADD SWAP1 PUSH2 0x34B SWAP2 SWAP1 PUSH2 0x246A JUMP JUMPDEST PUSH2 0xAC7 JUMP JUMPDEST STOP JUMPDEST PUSH2 0x36C PUSH1 0x4 DUP1 CALLDATASIZE SUB DUP2 ADD SWAP1 PUSH2 0x367 SWAP2 SWAP1 PUSH2 0x202D JUMP JUMPDEST PUSH2 0xB29 JUMP JUMPDEST PUSH1 0x40 MLOAD PUSH2 0x379 SWAP2 SWAP1 PUSH2 0x1FD5 JUMP JUMPDEST PUSH1 0x40 MLOAD DUP1 SWAP2 SUB SWAP1 RETURN JUMPDEST PUSH2 0x39C PUSH1 0x4 DUP1 CALLDATASIZE SUB DUP2 ADD SWAP1 PUSH2 0x397 SWAP2 SWAP1 PUSH2 0x24ED JUMP JUMPDEST PUSH2 0xC3B JUMP JUMPDEST PUSH1 0x40 MLOAD PUSH2 0x3A9 SWAP2 SWAP1 PUSH2 0x1F2A JUMP JUMPDEST PUSH1 0x40 MLOAD DUP1 SWAP2 SUB SWAP1 RETURN JUMPDEST PUSH2 0x3CC PUSH1 0x4 DUP1 CALLDATASIZE SUB DUP2 ADD SWAP1 PUSH2 0x3C7 SWAP2 SWAP1 PUSH2 0x2122 JUMP JUMPDEST PUSH2 0xCCF JUMP JUMPDEST STOP JUMPDEST PUSH1 0x0 PUSH4 0x49064906 PUSH1 0xE0 SHL PUSH28 0xFFFFFFFFFFFFFFFFFFFFFFFFFFFFFFFFFFFFFFFFFFFFFFFFFFFFFFFF NOT AND DUP3 PUSH28 0xFFFFFFFFFFFFFFFFFFFFFFFFFFFFFFFFFFFFFFFFFFFFFFFFFFFFFFFF NOT AND EQ DUP1 PUSH2 0x428 JUMPI POP PUSH2 0x427 DUP3 PUSH2 0xD52 JUMP JUMPDEST JUMPDEST SWAP1 POP SWAP2 SWAP1 POP JUMP JUMPDEST PUSH1 0x60 PUSH1 0x0 DUP1 SLOAD PUSH2 0x43E SWAP1 PUSH2 0x255C JUMP JUMPDEST DUP1 PUSH1 0x1F ADD PUSH1 0x20 DUP1 SWAP2 DIV MUL PUSH1 0x20 ADD PUSH1 0x40 MLOAD SWAP1 DUP2 ADD PUSH1 0x40 MSTORE DUP1 SWAP3 SWAP2 SWAP1 DUP2 DUP2 MSTORE PUSH1 0x20 ADD DUP3 DUP1 SLOAD PUSH2 0x46A SWAP1 PUSH2 0x255C JUMP JUMPDEST DUP1 ISZERO PUSH2 0x4B7 JUMPI DUP1 PUSH1 0x1F LT PUSH2 0x48C JUMPI PUSH2 0x100 DUP1 DUP4 SLOAD DIV MUL DUP4 MSTORE SWAP2 PUSH1 0x20 ADD SWAP2 PUSH2 0x4B7 JUMP JUMPDEST DUP3 ADD SWAP2 SWAP1 PUSH1 0x0 MSTORE PUSH1 0x20 PUSH1 0x0 KECCAK256 SWAP1 JUMPDEST DUP2 SLOAD DUP2 MSTORE SWAP1 PUSH1 0x1 ADD SWAP1 PUSH1 0x20 ADD DUP1 DUP4 GT PUSH2 0x49A JUMPI DUP3 SWAP1 SUB PUSH1 0x1F AND DUP3 ADD SWAP2 JUMPDEST POP POP POP POP POP SWAP1 POP SWAP1 JUMP JUMPDEST PUSH1 0x0 PUSH2 0x4CC DUP3 PUSH2 0xE34 JUMP JUMPDEST PUSH1 0x4 PUSH1 0x0 DUP4 DUP2 MSTORE PUSH1 0x20 ADD SWAP1 DUP2 MSTORE PUSH1 0x20 ADD PUSH1 0x0 KECCAK256 PUSH1 0x0 SWAP1 SLOAD SWAP1 PUSH2 0x100 EXP SWAP1 DIV PUSH20 0xFFFFFFFFFFFFFFFFFFFFFFFFFFFFFFFFFFFFFFFF AND SWAP1 POP SWAP2 SWAP1 POP JUMP JUMPDEST PUSH1 0x0 PUSH2 0x512 DUP3 PUSH2 0x8A4 JUMP JUMPDEST SWAP1 POP DUP1 PUSH20 0xFFFFFFFFFFFFFFFFFFFFFFFFFFFFFFFFFFFFFFFF AND DUP4 PUSH20 0xFFFFFFFFFFFFFFFFFFFFFFFFFFFFFFFFFFFFFFFF AND SUB PUSH2 0x582 JUMPI PUSH1 0x40 MLOAD PUSH32 0x8C379A000000000000000000000000000000000000000000000000000000000 DUP2 MSTORE PUSH1 0x4 ADD PUSH2 0x579 SWAP1 PUSH2 0x25FF JUMP JUMPDEST PUSH1 0x40 MLOAD DUP1 SWAP2 SUB SWAP1 REVERT JUMPDEST DUP1 PUSH20 0xFFFFFFFFFFFFFFFFFFFFFFFFFFFFFFFFFFFFFFFF AND PUSH2 0x5A1 PUSH2 0xE7F JUMP JUMPDEST PUSH20 0xFFFFFFFFFFFFFFFFFFFFFFFFFFFFFFFFFFFFFFFF AND EQ DUP1 PUSH2 0x5D0 JUMPI POP PUSH2 0x5CF DUP2 PUSH2 0x5CA PUSH2 0xE7F JUMP JUMPDEST PUSH2 0xC3B JUMP JUMPDEST JUMPDEST PUSH2 0x60F JUMPI PUSH1 0x40 MLOAD PUSH32 0x8C379A000000000000000000000000000000000000000000000000000000000 DUP2 MSTORE PUSH1 0x4 ADD PUSH2 0x606 SWAP1 PUSH2 0x2691 JUMP JUMPDEST PUSH1 0x40 MLOAD DUP1 SWAP2 SUB SWAP1 REVERT JUMPDEST PUSH2 0x619 DUP4 DUP4 PUSH2 0xE87 JUMP JUMPDEST POP POP POP JUMP JUMPDEST PUSH2 0x626 PUSH2 0xF40 JUMP JUMPDEST PUSH1 0x0 PUSH20 0xFFFFFFFFFFFFFFFFFFFFFFFFFFFFFFFFFFFFFFFF AND DUP2 PUSH20 0xFFFFFFFFFFFFFFFFFFFFFFFFFFFFFFFFFFFFFFFF AND SUB PUSH2 0x695 JUMPI PUSH1 0x40 MLOAD PUSH32 0x8C379A000000000000000000000000000000000000000000000000000000000 DUP2 MSTORE PUSH1 0x4 ADD PUSH2 0x68C SWAP1 PUSH2 0x26FD JUMP JUMPDEST PUSH1 0x40 MLOAD DUP1 SWAP2 SUB SWAP1 REVERT JUMPDEST PUSH1 0x1 PUSH1 0xA PUSH1 0x0 DUP4 PUSH20 0xFFFFFFFFFFFFFFFFFFFFFFFFFFFFFFFFFFFFFFFF AND PUSH20 0xFFFFFFFFFFFFFFFFFFFFFFFFFFFFFFFFFFFFFFFF AND DUP2 MSTORE PUSH1 0x20 ADD SWAP1 DUP2 MSTORE PUSH1 0x20 ADD PUSH1 0x0 KECCAK256 PUSH1 0x0 PUSH2 0x100 EXP DUP2 SLOAD DUP2 PUSH1 0xFF MUL NOT AND SWAP1 DUP4 ISZERO ISZERO MUL OR SWAP1 SSTORE POP POP JUMP JUMPDEST PUSH2 0x701 PUSH2 0x6FB PUSH2 0xE7F JUMP JUMPDEST DUP3 PUSH2 0xFBE JUMP JUMPDEST PUSH2 0x740 JUMPI PUSH1 0x40 MLOAD PUSH32 0x8C379A000000000000000000000000000000000000000000000000000000000 DUP2 MSTORE PUSH1 0x4 ADD PUSH2 0x737 SWAP1 PUSH2 0x278F JUMP JUMPDEST PUSH1 0x40 MLOAD DUP1 SWAP2 SUB SWAP1 REVERT JUMPDEST PUSH2 0x74B DUP4 DUP4 DUP4 PUSH2 0x1053 JUMP JUMPDEST POP POP POP JUMP JUMPDEST PUSH1 0x60 PUSH2 0x75B DUP3 PUSH2 0xB29 JUMP JUMPDEST SWAP1 POP SWAP2 SWAP1 POP JUMP JUMPDEST PUSH2 0x77D DUP4 DUP4 DUP4 PUSH1 0x40 MLOAD DUP1 PUSH1 0x20 ADD PUSH1 0x40 MSTORE DUP1 PUSH1 0x0 DUP2 MSTORE POP PUSH2 0xAC7 JUMP JUMPDEST POP POP POP JUMP JUMPDEST PUSH1 0x0 PUSH2 0x78C PUSH2 0x9F5 JUMP JUMPDEST PUSH20 0xFFFFFFFFFFFFFFFFFFFFFFFFFFFFFFFFFFFFFFFF AND CALLER PUSH20 0xFFFFFFFFFFFFFFFFFFFFFFFFFFFFFFFFFFFFFFFF AND EQ DUP1 PUSH2 0x80E JUMPI POP PUSH1 0xA PUSH1 0x0 CALLER PUSH20 0xFFFFFFFFFFFFFFFFFFFFFFFFFFFFFFFFFFFFFFFF AND PUSH20 0xFFFFFFFFFFFFFFFFFFFFFFFFFFFFFFFFFFFFFFFF AND DUP2 MSTORE PUSH1 0x20 ADD SWAP1 DUP2 MSTORE PUSH1 0x20 ADD PUSH1 0x0 KECCAK256 PUSH1 0x0 SWAP1 SLOAD SWAP1 PUSH2 0x100 EXP SWAP1 DIV PUSH1 0xFF AND JUMPDEST PUSH2 0x84D JUMPI PUSH1 0x40 MLOAD PUSH32 0x8C379A000000000000000000000000000000000000000000000000000000000 DUP2 MSTORE PUSH1 0x4 ADD PUSH2 0x844 SWAP1 PUSH2 0x27FB JUMP JUMPDEST PUSH1 0x40 MLOAD DUP1 SWAP2 SUB SWAP1 REVERT JUMPDEST PUSH1 0x0 PUSH2 0x859 PUSH1 0x8 PUSH2 0x134C JUMP JUMPDEST SWAP1 POP PUSH2 0x865 PUSH1 0x8 PUSH2 0x135A JUMP JUMPDEST PUSH2 0x86F DUP5 DUP3 PUSH2 0x1370 JUMP JUMPDEST PUSH2 0x879 DUP2 DUP5 PUSH2 0x138E JUMP JUMPDEST DUP3 PUSH1 0x9 PUSH1 0x0 DUP4 DUP2 MSTORE PUSH1 0x20 ADD SWAP1 DUP2 MSTORE PUSH1 0x20 ADD PUSH1 0x0 KECCAK256 SWAP1 DUP2 PUSH2 0x899 SWAP2 SWAP1 PUSH2 0x29C7 JUMP JUMPDEST POP DUP1 SWAP2 POP POP SWAP3 SWAP2 POP POP JUMP JUMPDEST PUSH1 0x0 DUP1 PUSH2 0x8B0 DUP4 PUSH2 0x1432 JUMP JUMPDEST SWAP1 POP PUSH1 0x0 PUSH20 0xFFFFFFFFFFFFFFFFFFFFFFFFFFFFFFFFFFFFFFFF AND DUP2 PUSH20 0xFFFFFFFFFFFFFFFFFFFFFFFFFFFFFFFFFFFFFFFF AND SUB PUSH2 0x921 JUMPI PUSH1 0x40 MLOAD PUSH32 0x8C379A000000000000000000000000000000000000000000000000000000000 DUP2 MSTORE PUSH1 0x4 ADD PUSH2 0x918 SWAP1 PUSH2 0x2AE5 JUMP JUMPDEST PUSH1 0x40 MLOAD DUP1 SWAP2 SUB SWAP1 REVERT JUMPDEST DUP1 SWAP2 POP POP SWAP2 SWAP1 POP JUMP JUMPDEST PUSH1 0x0 DUP1 PUSH20 0xFFFFFFFFFFFFFFFFFFFFFFFFFFFFFFFFFFFFFFFF AND DUP3 PUSH20 0xFFFFFFFFFFFFFFFFFFFFFFFFFFFFFFFFFFFFFFFF AND SUB PUSH2 0x99A JUMPI PUSH1 0x40 MLOAD PUSH32 0x8C379A000000000000000000000000000000000000000000000000000000000 DUP2 MSTORE PUSH1 0x4 ADD PUSH2 0x991 SWAP1 PUSH2 0x2B77 JUMP JUMPDEST PUSH1 0x40 MLOAD DUP1 SWAP2 SUB SWAP1 REVERT JUMPDEST PUSH1 0x3 PUSH1 0x0 DUP4 PUSH20 0xFFFFFFFFFFFFFFFFFFFFFFFFFFFFFFFFFFFFFFFF AND PUSH20 0xFFFFFFFFFFFFFFFFFFFFFFFFFFFFFFFFFFFFFFFF AND DUP2 MSTORE PUSH1 0x20 ADD SWAP1 DUP2 MSTORE PUSH1 0x20 ADD PUSH1 0x0 KECCAK256 SLOAD SWAP1 POP SWAP2 SWAP1 POP JUMP JUMPDEST PUSH2 0x9E9 PUSH2 0xF40 JUMP JUMPDEST PUSH2 0x9F3 PUSH1 0x0 PUSH2 0x146F JUMP JUMPDEST JUMP JUMPDEST PUSH1 0x0 PUSH1 0x7 PUSH1 0x0 SWAP1 SLOAD SWAP1 PUSH2 0x100 EXP SWAP1 DIV PUSH20 0xFFFFFFFFFFFFFFFFFFFFFFFFFFFFFFFFFFFFFFFF AND SWAP1 POP SWAP1 JUMP JUMPDEST PUSH1 0x60 PUSH1 0x1 DUP1 SLOAD PUSH2 0xA2E SWAP1 PUSH2 0x255C JUMP JUMPDEST DUP1 PUSH1 0x1F ADD PUSH1 0x20 DUP1 SWAP2 DIV MUL PUSH1 0x20 ADD PUSH1 0x40 MLOAD SWAP1 DUP2 ADD PUSH1 0x40 MSTORE DUP1 SWAP3 SWAP2 SWAP1 DUP2 DUP2 MSTORE PUSH1 0x20 ADD DUP3 DUP1 SLOAD PUSH2 0xA5A SWAP1 PUSH2 0x255C JUMP JUMPDEST DUP1 ISZERO PUSH2 0xAA7 JUMPI DUP1 PUSH1 0x1F LT PUSH2 0xA7C JUMPI PUSH2 0x100 DUP1 DUP4 SLOAD DIV MUL DUP4 MSTORE SWAP2 PUSH1 0x20 ADD SWAP2 PUSH2 0xAA7 JUMP JUMPDEST DUP3 ADD SWAP2 SWAP1 PUSH1 0x0 MSTORE PUSH1 0x20 PUSH1 0x0 KECCAK256 SWAP1 JUMPDEST DUP2 SLOAD DUP2 MSTORE SWAP1 PUSH1 0x1 ADD SWAP1 PUSH1 0x20 ADD DUP1 DUP4 GT PUSH2 0xA8A JUMPI DUP3 SWAP1 SUB PUSH1 0x1F AND DUP3 ADD SWAP2 JUMPDEST POP POP POP POP POP SWAP1 POP SWAP1 JUMP JUMPDEST PUSH2 0xAC3 PUSH2 0xABC PUSH2 0xE7F JUMP JUMPDEST DUP4 DUP4 PUSH2 0x1535 JUMP JUMPDEST POP POP JUMP JUMPDEST PUSH2 0xAD8 PUSH2 0xAD2 PUSH2 0xE7F JUMP JUMPDEST DUP4 PUSH2 0xFBE JUMP JUMPDEST PUSH2 0xB17 JUMPI PUSH1 0x40 MLOAD PUSH32 0x8C379A000000000000000000000000000000000000000000000000000000000 DUP2 MSTORE PUSH1 0x4 ADD PUSH2 0xB0E SWAP1 PUSH2 0x278F JUMP JUMPDEST PUSH1 0x40 MLOAD DUP1 SWAP2 SUB SWAP1 REVERT JUMPDEST PUSH2 0xB23 DUP5 DUP5 DUP5 DUP5 PUSH2 0x16A1 JUMP JUMPDEST POP POP POP POP JUMP JUMPDEST PUSH1 0x60 PUSH2 0xB34 DUP3 PUSH2 0xE34 JUMP JUMPDEST PUSH1 0x0 PUSH1 0x6 PUSH1 0x0 DUP5 DUP2 MSTORE PUSH1 0x20 ADD SWAP1 DUP2 MSTORE PUSH1 0x20 ADD PUSH1 0x0 KECCAK256 DUP1 SLOAD PUSH2 0xB54 SWAP1 PUSH2 0x255C JUMP JUMPDEST DUP1 PUSH1 0x1F ADD PUSH1 0x20 DUP1 SWAP2 DIV MUL PUSH1 0x20 ADD PUSH1 0x40 MLOAD SWAP1 DUP2 ADD PUSH1 0x40 MSTORE DUP1 SWAP3 SWAP2 SWAP1 DUP2 DUP2 MSTORE PUSH1 0x20 ADD DUP3 DUP1 SLOAD PUSH2 0xB80 SWAP1 PUSH2 0x255C JUMP JUMPDEST DUP1 ISZERO PUSH2 0xBCD JUMPI DUP1 PUSH1 0x1F LT PUSH2 0xBA2 JUMPI PUSH2 0x100 DUP1 DUP4 SLOAD DIV MUL DUP4 MSTORE SWAP2 PUSH1 0x20 ADD SWAP2 PUSH2 0xBCD JUMP JUMPDEST DUP3 ADD SWAP2 SWAP1 PUSH1 0x0 MSTORE PUSH1 0x20 PUSH1 0x0 KECCAK256 SWAP1 JUMPDEST DUP2 SLOAD DUP2 MSTORE SWAP1 PUSH1 0x1 ADD SWAP1 PUSH1 0x20 ADD DUP1 DUP4 GT PUSH2 0xBB0 JUMPI DUP3 SWAP1 SUB PUSH1 0x1F AND DUP3 ADD SWAP2 JUMPDEST POP POP POP POP POP SWAP1 POP PUSH1 0x0 PUSH2 0xBDE PUSH2 0x16FD JUMP JUMPDEST SWAP1 POP PUSH1 0x0 DUP2 MLOAD SUB PUSH2 0xBF3 JUMPI DUP2 SWAP3 POP POP POP PUSH2 0xC36 JUMP JUMPDEST PUSH1 0x0 DUP3 MLOAD GT ISZERO PUSH2 0xC28 JUMPI DUP1 DUP3 PUSH1 0x40 MLOAD PUSH1 0x20 ADD PUSH2 0xC10 SWAP3 SWAP2 SWAP1 PUSH2 0x2BD3 JUMP JUMPDEST PUSH1 0x40 MLOAD PUSH1 0x20 DUP2 DUP4 SUB SUB DUP2 MSTORE SWAP1 PUSH1 0x40 MSTORE SWAP3 POP POP POP PUSH2 0xC36 JUMP JUMPDEST PUSH2 0xC31 DUP5 PUSH2 0x1714 JUMP JUMPDEST SWAP3 POP POP POP JUMPDEST SWAP2 SWAP1 POP JUMP JUMPDEST PUSH1 0x0 PUSH1 0x5 PUSH1 0x0 DUP5 PUSH20 0xFFFFFFFFFFFFFFFFFFFFFFFFFFFFFFFFFFFFFFFF AND PUSH20 0xFFFFFFFFFFFFFFFFFFFFFFFFFFFFFFFFFFFFFFFF AND DUP2 MSTORE PUSH1 0x20 ADD SWAP1 DUP2 MSTORE PUSH1 0x20 ADD PUSH1 0x0 KECCAK256 PUSH1 0x0 DUP4 PUSH20 0xFFFFFFFFFFFFFFFFFFFFFFFFFFFFFFFFFFFFFFFF AND PUSH20 0xFFFFFFFFFFFFFFFFFFFFFFFFFFFFFFFFFFFFFFFF AND DUP2 MSTORE PUSH1 0x20 ADD SWAP1 DUP2 MSTORE PUSH1 0x20 ADD PUSH1 0x0 KECCAK256 PUSH1 0x0 SWAP1 SLOAD SWAP1 PUSH2 0x100 EXP SWAP1 DIV PUSH1 0xFF AND SWAP1 POP SWAP3 SWAP2 POP POP JUMP JUMPDEST PUSH2 0xCD7 PUSH2 0xF40 JUMP JUMPDEST PUSH1 0x0 PUSH20 0xFFFFFFFFFFFFFFFFFFFFFFFFFFFFFFFFFFFFFFFF AND DUP2 PUSH20 0xFFFFFFFFFFFFFFFFFFFFFFFFFFFFFFFFFFFFFFFF AND SUB PUSH2 0xD46 JUMPI PUSH1 0x40 MLOAD PUSH32 0x8C379A000000000000000000000000000000000000000000000000000000000 DUP2 MSTORE PUSH1 0x4 ADD PUSH2 0xD3D SWAP1 PUSH2 0x2C69 JUMP JUMPDEST PUSH1 0x40 MLOAD DUP1 SWAP2 SUB SWAP1 REVERT JUMPDEST PUSH2 0xD4F DUP2 PUSH2 0x146F JUMP JUMPDEST POP JUMP JUMPDEST PUSH1 0x0 PUSH32 0x80AC58CD00000000000000000000000000000000000000000000000000000000 PUSH28 0xFFFFFFFFFFFFFFFFFFFFFFFFFFFFFFFFFFFFFFFFFFFFFFFFFFFFFFFF NOT AND DUP3 PUSH28 0xFFFFFFFFFFFFFFFFFFFFFFFFFFFFFFFFFFFFFFFFFFFFFFFFFFFFFFFF NOT AND EQ DUP1 PUSH2 0xE1D JUMPI POP PUSH32 0x5B5E139F00000000000000000000000000000000000000000000000000000000 PUSH28 0xFFFFFFFFFFFFFFFFFFFFFFFFFFFFFFFFFFFFFFFFFFFFFFFFFFFFFFFF NOT AND DUP3 PUSH28 0xFFFFFFFFFFFFFFFFFFFFFFFFFFFFFFFFFFFFFFFFFFFFFFFFFFFFFFFF NOT AND EQ JUMPDEST DUP1 PUSH2 0xE2D JUMPI POP PUSH2 0xE2C DUP3 PUSH2 0x177C JUMP JUMPDEST JUMPDEST SWAP1 POP SWAP2 SWAP1 POP JUMP JUMPDEST PUSH2 0xE3D DUP2 PUSH2 0x17E6 JUMP JUMPDEST PUSH2 0xE7C JUMPI PUSH1 0x40 MLOAD PUSH32 0x8C379A000000000000000000000000000000000000000000000000000000000 DUP2 MSTORE PUSH1 0x4 ADD PUSH2 0xE73 SWAP1 PUSH2 0x2AE5 JUMP JUMPDEST PUSH1 0x40 MLOAD DUP1 SWAP2 SUB SWAP1 REVERT JUMPDEST POP JUMP JUMPDEST PUSH1 0x0 CALLER SWAP1 POP SWAP1 JUMP JUMPDEST DUP2 PUSH1 0x4 PUSH1 0x0 DUP4 DUP2 MSTORE PUSH1 0x20 ADD SWAP1 DUP2 MSTORE PUSH1 0x20 ADD PUSH1 0x0 KECCAK256 PUSH1 0x0 PUSH2 0x100 EXP DUP2 SLOAD DUP2 PUSH20 0xFFFFFFFFFFFFFFFFFFFFFFFFFFFFFFFFFFFFFFFF MUL NOT AND SWAP1 DUP4 PUSH20 0xFFFFFFFFFFFFFFFFFFFFFFFFFFFFFFFFFFFFFFFF AND MUL OR SWAP1 SSTORE POP DUP1 DUP3 PUSH20 0xFFFFFFFFFFFFFFFFFFFFFFFFFFFFFFFFFFFFFFFF AND PUSH2 0xEFA DUP4 PUSH2 0x8A4 JUMP JUMPDEST PUSH20 0xFFFFFFFFFFFFFFFFFFFFFFFFFFFFFFFFFFFFFFFF AND PUSH32 0x8C5BE1E5EBEC7D5BD14F71427D1E84F3DD0314C0F7B2291E5B200AC8C7C3B925 PUSH1 0x40 MLOAD PUSH1 0x40 MLOAD DUP1 SWAP2 SUB SWAP1 LOG4 POP POP JUMP JUMPDEST PUSH2 0xF48 PUSH2 0xE7F JUMP JUMPDEST PUSH20 0xFFFFFFFFFFFFFFFFFFFFFFFFFFFFFFFFFFFFFFFF AND PUSH2 0xF66 PUSH2 0x9F5 JUMP JUMPDEST PUSH20 0xFFFFFFFFFFFFFFFFFFFFFFFFFFFFFFFFFFFFFFFF AND EQ PUSH2 0xFBC JUMPI PUSH1 0x40 MLOAD PUSH32 0x8C379A000000000000000000000000000000000000000000000000000000000 DUP2 MSTORE PUSH1 0x4 ADD PUSH2 0xFB3 SWAP1 PUSH2 0x2CD5 JUMP JUMPDEST PUSH1 0x40 MLOAD DUP1 SWAP2 SUB SWAP1 REVERT JUMPDEST JUMP JUMPDEST PUSH1 0x0 DUP1 PUSH2 0xFCA DUP4 PUSH2 0x8A4 JUMP JUMPDEST SWAP1 POP DUP1 PUSH20 0xFFFFFFFFFFFFFFFFFFFFFFFFFFFFFFFFFFFFFFFF AND DUP5 PUSH20 0xFFFFFFFFFFFFFFFFFFFFFFFFFFFFFFFFFFFFFFFF AND EQ DUP1 PUSH2 0x100C JUMPI POP PUSH2 0x100B DUP2 DUP6 PUSH2 0xC3B JUMP JUMPDEST JUMPDEST DUP1 PUSH2 0x104A JUMPI POP DUP4 PUSH20 0xFFFFFFFFFFFFFFFFFFFFFFFFFFFFFFFFFFFFFFFF AND PUSH2 0x1032 DUP5 PUSH2 0x4C1 JUMP JUMPDEST PUSH20 0xFFFFFFFFFFFFFFFFFFFFFFFFFFFFFFFFFFFFFFFF AND EQ JUMPDEST SWAP2 POP POP SWAP3 SWAP2 POP POP JUMP JUMPDEST DUP3 PUSH20 0xFFFFFFFFFFFFFFFFFFFFFFFFFFFFFFFFFFFFFFFF AND PUSH2 0x1073 DUP3 PUSH2 0x8A4 JUMP JUMPDEST PUSH20 0xFFFFFFFFFFFFFFFFFFFFFFFFFFFFFFFFFFFFFFFF AND EQ PUSH2 0x10C9 JUMPI PUSH1 0x40 MLOAD PUSH32 0x8C379A000000000000000000000000000000000000000000000000000000000 DUP2 MSTORE PUSH1 0x4 ADD PUSH2 0x10C0 SWAP1 PUSH2 0x2D67 JUMP JUMPDEST PUSH1 0x40 MLOAD DUP1 SWAP2 SUB SWAP1 REVERT JUMPDEST PUSH1 0x0 PUSH20 0xFFFFFFFFFFFFFFFFFFFFFFFFFFFFFFFFFFFFFFFF AND DUP3 PUSH20 0xFFFFFFFFFFFFFFFFFFFFFFFFFFFFFFFFFFFFFFFF AND SUB PUSH2 0x1138 JUMPI PUSH1 0x40 MLOAD PUSH32 0x8C379A000000000000000000000000000000000000000000000000000000000 DUP2 MSTORE PUSH1 0x4 ADD PUSH2 0x112F SWAP1 PUSH2 0x2DF9 JUMP JUMPDEST PUSH1 0x40 MLOAD DUP1 SWAP2 SUB SWAP1 REVERT JUMPDEST PUSH2 0x1145 DUP4 DUP4 DUP4 PUSH1 0x1 PUSH2 0x1827 JUMP JUMPDEST DUP3 PUSH20 0xFFFFFFFFFFFFFFFFFFFFFFFFFFFFFFFFFFFFFFFF AND PUSH2 0x1165 DUP3 PUSH2 0x8A4 JUMP JUMPDEST PUSH20 0xFFFFFFFFFFFFFFFFFFFFFFFFFFFFFFFFFFFFFFFF AND EQ PUSH2 0x11BB JUMPI PUSH1 0x40 MLOAD PUSH32 0x8C379A000000000000000000000000000000000000000000000000000000000 DUP2 MSTORE PUSH1 0x4 ADD PUSH2 0x11B2 SWAP1 PUSH2 0x2D67 JUMP JUMPDEST PUSH1 0x40 MLOAD DUP1 SWAP2 SUB SWAP1 REVERT JUMPDEST PUSH1 0x4 PUSH1 0x0 DUP3 DUP2 MSTORE PUSH1 0x20 ADD SWAP1 DUP2 MSTORE PUSH1 0x20 ADD PUSH1 0x0 KECCAK256 PUSH1 0x0 PUSH2 0x100 EXP DUP2 SLOAD SWAP1 PUSH20 0xFFFFFFFFFFFFFFFFFFFFFFFFFFFFFFFFFFFFFFFF MUL NOT AND SWAP1 SSTORE PUSH1 0x1 PUSH1 0x3 PUSH1 0x0 DUP6 PUSH20 0xFFFFFFFFFFFFFFFFFFFFFFFFFFFFFFFFFFFFFFFF AND PUSH20 0xFFFFFFFFFFFFFFFFFFFFFFFFFFFFFFFFFFFFFFFF AND DUP2 MSTORE PUSH1 0x20 ADD SWAP1 DUP2 MSTORE PUSH1 0x20 ADD PUSH1 0x0 KECCAK256 PUSH1 0x0 DUP3 DUP3 SLOAD SUB SWAP3 POP POP DUP2 SWAP1 SSTORE POP PUSH1 0x1 PUSH1 0x3 PUSH1 0x0 DUP5 PUSH20 0xFFFFFFFFFFFFFFFFFFFFFFFFFFFFFFFFFFFFFFFF AND PUSH20 0xFFFFFFFFFFFFFFFFFFFFFFFFFFFFFFFFFFFFFFFF AND DUP2 MSTORE PUSH1 0x20 ADD SWAP1 DUP2 MSTORE PUSH1 0x20 ADD PUSH1 0x0 KECCAK256 PUSH1 0x0 DUP3 DUP3 SLOAD ADD SWAP3 POP POP DUP2 SWAP1 SSTORE POP DUP2 PUSH1 0x2 PUSH1 0x0 DUP4 DUP2 MSTORE PUSH1 0x20 ADD SWAP1 DUP2 MSTORE PUSH1 0x20 ADD PUSH1 0x0 KECCAK256 PUSH1 0x0 PUSH2 0x100 EXP DUP2 SLOAD DUP2 PUSH20 0xFFFFFFFFFFFFFFFFFFFFFFFFFFFFFFFFFFFFFFFF MUL NOT AND SWAP1 DUP4 PUSH20 0xFFFFFFFFFFFFFFFFFFFFFFFFFFFFFFFFFFFFFFFF AND MUL OR SWAP1 SSTORE POP DUP1 DUP3 PUSH20 0xFFFFFFFFFFFFFFFFFFFFFFFFFFFFFFFFFFFFFFFF AND DUP5 PUSH20 0xFFFFFFFFFFFFFFFFFFFFFFFFFFFFFFFFFFFFFFFF AND PUSH32 0xDDF252AD1BE2C89B69C2B068FC378DAA952BA7F163C4A11628F55A4DF523B3EF PUSH1 0x40 MLOAD PUSH1 0x40 MLOAD DUP1 SWAP2 SUB SWAP1 LOG4 PUSH2 0x1347 DUP4 DUP4 DUP4 PUSH1 0x1 PUSH2 0x182D JUMP JUMPDEST POP POP POP JUMP JUMPDEST PUSH1 0x0 DUP2 PUSH1 0x0 ADD SLOAD SWAP1 POP SWAP2 SWAP1 POP JUMP JUMPDEST PUSH1 0x1 DUP2 PUSH1 0x0 ADD PUSH1 0x0 DUP3 DUP3 SLOAD ADD SWAP3 POP POP DUP2 SWAP1 SSTORE POP POP JUMP JUMPDEST PUSH2 0x138A DUP3 DUP3 PUSH1 0x40 MLOAD DUP1 PUSH1 0x20 ADD PUSH1 0x40 MSTORE DUP1 PUSH1 0x0 DUP2 MSTORE POP PUSH2 0x1833 JUMP JUMPDEST POP POP JUMP JUMPDEST PUSH2 0x1397 DUP3 PUSH2 0x17E6 JUMP JUMPDEST PUSH2 0x13D6 JUMPI PUSH1 0x40 MLOAD PUSH32 0x8C379A000000000000000000000000000000000000000000000000000000000 DUP2 MSTORE PUSH1 0x4 ADD PUSH2 0x13CD SWAP1 PUSH2 0x2E8B JUMP JUMPDEST PUSH1 0x40 MLOAD DUP1 SWAP2 SUB SWAP1 REVERT JUMPDEST DUP1 PUSH1 0x6 PUSH1 0x0 DUP5 DUP2 MSTORE PUSH1 0x20 ADD SWAP1 DUP2 MSTORE PUSH1 0x20 ADD PUSH1 0x0 KECCAK256 SWAP1 DUP2 PUSH2 0x13F6 SWAP2 SWAP1 PUSH2 0x29C7 JUMP JUMPDEST POP PUSH32 0xF8E1A15ABA9398E019F0B49DF1A4FDE98EE17AE345CB5F6B5E2C27F5033E8CE7 DUP3 PUSH1 0x40 MLOAD PUSH2 0x1426 SWAP2 SWAP1 PUSH2 0x2342 JUMP JUMPDEST PUSH1 0x40 MLOAD DUP1 SWAP2 SUB SWAP1 LOG1 POP POP JUMP JUMPDEST PUSH1 0x0 PUSH1 0x2 PUSH1 0x0 DUP4 DUP2 MSTORE PUSH1 0x20 ADD SWAP1 DUP2 MSTORE PUSH1 0x20 ADD PUSH1 0x0 KECCAK256 PUSH1 0x0 SWAP1 SLOAD SWAP1 PUSH2 0x100 EXP SWAP1 DIV PUSH20 0xFFFFFFFFFFFFFFFFFFFFFFFFFFFFFFFFFFFFFFFF AND SWAP1 POP SWAP2 SWAP1 POP JUMP JUMPDEST PUSH1 0x0 PUSH1 0x7 PUSH1 0x0 SWAP1 SLOAD SWAP1 PUSH2 0x100 EXP SWAP1 DIV PUSH20 0xFFFFFFFFFFFFFFFFFFFFFFFFFFFFFFFFFFFFFFFF AND SWAP1 POP DUP2 PUSH1 0x7 PUSH1 0x0 PUSH2 0x100 EXP DUP2 SLOAD DUP2 PUSH20 0xFFFFFFFFFFFFFFFFFFFFFFFFFFFFFFFFFFFFFFFF MUL NOT AND SWAP1 DUP4 PUSH20 0xFFFFFFFFFFFFFFFFFFFFFFFFFFFFFFFFFFFFFFFF AND MUL OR SWAP1 SSTORE POP DUP2 PUSH20 0xFFFFFFFFFFFFFFFFFFFFFFFFFFFFFFFFFFFFFFFF AND DUP2 PUSH20 0xFFFFFFFFFFFFFFFFFFFFFFFFFFFFFFFFFFFFFFFF AND PUSH32 0x8BE0079C531659141344CD1FD0A4F28419497F9722A3DAAFE3B4186F6B6457E0 PUSH1 0x40 MLOAD PUSH1 0x40 MLOAD DUP1 SWAP2 SUB SWAP1 LOG3 POP POP JUMP JUMPDEST DUP2 PUSH20 0xFFFFFFFFFFFFFFFFFFFFFFFFFFFFFFFFFFFFFFFF AND DUP4 PUSH20 0xFFFFFFFFFFFFFFFFFFFFFFFFFFFFFFFFFFFFFFFF AND SUB PUSH2 0x15A3 JUMPI PUSH1 0x40 MLOAD PUSH32 0x8C379A000000000000000000000000000000000000000000000000000000000 DUP2 MSTORE PUSH1 0x4 ADD PUSH2 0x159A SWAP1 PUSH2 0x2EF7 JUMP JUMPDEST PUSH1 0x40 MLOAD DUP1 SWAP2 SUB SWAP1 REVERT JUMPDEST DUP1 PUSH1 0x5 PUSH1 0x0 DUP6 PUSH20 0xFFFFFFFFFFFFFFFFFFFFFFFFFFFFFFFFFFFFFFFF AND PUSH20 0xFFFFFFFFFFFFFFFFFFFFFFFFFFFFFFFFFFFFFFFF AND DUP2 MSTORE PUSH1 0x20 ADD SWAP1 DUP2 MSTORE PUSH1 0x20 ADD PUSH1 0x0 KECCAK256 PUSH1 0x0 DUP5 PUSH20 0xFFFFFFFFFFFFFFFFFFFFFFFFFFFFFFFFFFFFFFFF AND PUSH20 0xFFFFFFFFFFFFFFFFFFFFFFFFFFFFFFFFFFFFFFFF AND DUP2 MSTORE PUSH1 0x20 ADD SWAP1 DUP2 MSTORE PUSH1 0x20 ADD PUSH1 0x0 KECCAK256 PUSH1 0x0 PUSH2 0x100 EXP DUP2 SLOAD DUP2 PUSH1 0xFF MUL NOT AND SWAP1 DUP4 ISZERO ISZERO MUL OR SWAP1 SSTORE POP DUP2 PUSH20 0xFFFFFFFFFFFFFFFFFFFFFFFFFFFFFFFFFFFFFFFF AND DUP4 PUSH20 0xFFFFFFFFFFFFFFFFFFFFFFFFFFFFFFFFFFFFFFFF AND PUSH32 0x17307EAB39AB6107E8899845AD3D59BD9653F200F220920489CA2B5937696C31 DUP4 PUSH1 0x40 MLOAD PUSH2 0x1694 SWAP2 SWAP1 PUSH2 0x1F2A JUMP JUMPDEST PUSH1 0x40 MLOAD DUP1 SWAP2 SUB SWAP1 LOG3 POP POP POP JUMP JUMPDEST PUSH2 0x16AC DUP5 DUP5 DUP5 PUSH2 0x1053 JUMP JUMPDEST PUSH2 0x16B8 DUP5 DUP5 DUP5 DUP5 PUSH2 0x188E JUMP JUMPDEST PUSH2 0x16F7 JUMPI PUSH1 0x40 MLOAD PUSH32 0x8C379A000000000000000000000000000000000000000000000000000000000 DUP2 MSTORE PUSH1 0x4 ADD PUSH2 0x16EE SWAP1 PUSH2 0x2F89 JUMP JUMPDEST PUSH1 0x40 MLOAD DUP1 SWAP2 SUB SWAP1 REVERT JUMPDEST POP POP POP POP JUMP JUMPDEST PUSH1 0x60 PUSH1 0x40 MLOAD DUP1 PUSH1 0x20 ADD PUSH1 0x40 MSTORE DUP1 PUSH1 0x0 DUP2 MSTORE POP SWAP1 POP SWAP1 JUMP JUMPDEST PUSH1 0x60 PUSH2 0x171F DUP3 PUSH2 0xE34 JUMP JUMPDEST PUSH1 0x0 PUSH2 0x1729 PUSH2 0x16FD JUMP JUMPDEST SWAP1 POP PUSH1 0x0 DUP2 MLOAD GT PUSH2 0x1749 JUMPI PUSH1 0x40 MLOAD DUP1 PUSH1 0x20 ADD PUSH1 0x40 MSTORE DUP1 PUSH1 0x0 DUP2 MSTORE POP PUSH2 0x1774 JUMP JUMPDEST DUP1 PUSH2 0x1753 DUP5 PUSH2 0x1A15 JUMP JUMPDEST PUSH1 0x40 MLOAD PUSH1 0x20 ADD PUSH2 0x1764 SWAP3 SWAP2 SWAP1 PUSH2 0x2BD3 JUMP JUMPDEST PUSH1 0x40 MLOAD PUSH1 0x20 DUP2 DUP4 SUB SUB DUP2 MSTORE SWAP1 PUSH1 0x40 MSTORE JUMPDEST SWAP2 POP POP SWAP2 SWAP1 POP JUMP JUMPDEST PUSH1 0x0 PUSH32 0x1FFC9A700000000000000000000000000000000000000000000000000000000 PUSH28 0xFFFFFFFFFFFFFFFFFFFFFFFFFFFFFFFFFFFFFFFFFFFFFFFFFFFFFFFF NOT AND DUP3 PUSH28 0xFFFFFFFFFFFFFFFFFFFFFFFFFFFFFFFFFFFFFFFFFFFFFFFFFFFFFFFF NOT AND EQ SWAP1 POP SWAP2 SWAP1 POP JUMP JUMPDEST PUSH1 0x0 DUP1 PUSH20 0xFFFFFFFFFFFFFFFFFFFFFFFFFFFFFFFFFFFFFFFF AND PUSH2 0x1808 DUP4 PUSH2 0x1432 JUMP JUMPDEST PUSH20 0xFFFFFFFFFFFFFFFFFFFFFFFFFFFFFFFFFFFFFFFF AND EQ ISZERO SWAP1 POP SWAP2 SWAP1 POP JUMP JUMPDEST POP POP POP POP JUMP JUMPDEST POP POP POP POP JUMP JUMPDEST PUSH2 0x183D DUP4 DUP4 PUSH2 0x1AE3 JUMP JUMPDEST PUSH2 0x184A PUSH1 0x0 DUP5 DUP5 DUP5 PUSH2 0x188E JUMP JUMPDEST PUSH2 0x1889 JUMPI PUSH1 0x40 MLOAD PUSH32 0x8C379A000000000000000000000000000000000000000000000000000000000 DUP2 MSTORE PUSH1 0x4 ADD PUSH2 0x1880 SWAP1 PUSH2 0x2F89 JUMP JUMPDEST PUSH1 0x40 MLOAD DUP1 SWAP2 SUB SWAP1 REVERT JUMPDEST POP POP POP JUMP JUMPDEST PUSH1 0x0 PUSH2 0x18AF DUP5 PUSH20 0xFFFFFFFFFFFFFFFFFFFFFFFFFFFFFFFFFFFFFFFF AND PUSH2 0x1D00 JUMP JUMPDEST ISZERO PUSH2 0x1A08 JUMPI DUP4 PUSH20 0xFFFFFFFFFFFFFFFFFFFFFFFFFFFFFFFFFFFFFFFF AND PUSH4 0x150B7A02 PUSH2 0x18D8 PUSH2 0xE7F JUMP JUMPDEST DUP8 DUP7 DUP7 PUSH1 0x40 MLOAD DUP6 PUSH4 0xFFFFFFFF AND PUSH1 0xE0 SHL DUP2 MSTORE PUSH1 0x4 ADD PUSH2 0x18FA SWAP5 SWAP4 SWAP3 SWAP2 SWAP1 PUSH2 0x2FFE JUMP JUMPDEST PUSH1 0x20 PUSH1 0x40 MLOAD DUP1 DUP4 SUB DUP2 PUSH1 0x0 DUP8 GAS CALL SWAP3 POP POP POP DUP1 ISZERO PUSH2 0x1936 JUMPI POP PUSH1 0x40 MLOAD RETURNDATASIZE PUSH1 0x1F NOT PUSH1 0x1F DUP3 ADD AND DUP3 ADD DUP1 PUSH1 0x40 MSTORE POP DUP2 ADD SWAP1 PUSH2 0x1933 SWAP2 SWAP1 PUSH2 0x305F JUMP JUMPDEST PUSH1 0x1 JUMPDEST PUSH2 0x19B8 JUMPI RETURNDATASIZE DUP1 PUSH1 0x0 DUP2 EQ PUSH2 0x1966 JUMPI PUSH1 0x40 MLOAD SWAP2 POP PUSH1 0x1F NOT PUSH1 0x3F RETURNDATASIZE ADD AND DUP3 ADD PUSH1 0x40 MSTORE RETURNDATASIZE DUP3 MSTORE RETURNDATASIZE PUSH1 0x0 PUSH1 0x20 DUP5 ADD RETURNDATACOPY PUSH2 0x196B JUMP JUMPDEST PUSH1 0x60 SWAP2 POP JUMPDEST POP PUSH1 0x0 DUP2 MLOAD SUB PUSH2 0x19B0 JUMPI PUSH1 0x40 MLOAD PUSH32 0x8C379A000000000000000000000000000000000000000000000000000000000 DUP2 MSTORE PUSH1 0x4 ADD PUSH2 0x19A7 SWAP1 PUSH2 0x2F89 JUMP JUMPDEST PUSH1 0x40 MLOAD DUP1 SWAP2 SUB SWAP1 REVERT JUMPDEST DUP1 MLOAD DUP2 PUSH1 0x20 ADD REVERT JUMPDEST PUSH4 0x150B7A02 PUSH1 0xE0 SHL PUSH28 0xFFFFFFFFFFFFFFFFFFFFFFFFFFFFFFFFFFFFFFFFFFFFFFFFFFFFFFFF NOT AND DUP2 PUSH28 0xFFFFFFFFFFFFFFFFFFFFFFFFFFFFFFFFFFFFFFFFFFFFFFFFFFFFFFFF NOT AND EQ SWAP2 POP POP PUSH2 0x1A0D JUMP JUMPDEST PUSH1 0x1 SWAP1 POP JUMPDEST SWAP5 SWAP4 POP POP POP POP JUMP JUMPDEST PUSH1 0x60 PUSH1 0x0 PUSH1 0x1 PUSH2 0x1A24 DUP5 PUSH2 0x1D23 JUMP JUMPDEST ADD SWAP1 POP PUSH1 0x0 DUP2 PUSH8 0xFFFFFFFFFFFFFFFF DUP2 GT ISZERO PUSH2 0x1A43 JUMPI PUSH2 0x1A42 PUSH2 0x21AC JUMP JUMPDEST JUMPDEST PUSH1 0x40 MLOAD SWAP1 DUP1 DUP3 MSTORE DUP1 PUSH1 0x1F ADD PUSH1 0x1F NOT AND PUSH1 0x20 ADD DUP3 ADD PUSH1 0x40 MSTORE DUP1 ISZERO PUSH2 0x1A75 JUMPI DUP2 PUSH1 0x20 ADD PUSH1 0x1 DUP3 MUL DUP1 CALLDATASIZE DUP4 CALLDATACOPY DUP1 DUP3 ADD SWAP2 POP POP SWAP1 POP JUMPDEST POP SWAP1 POP PUSH1 0x0 DUP3 PUSH1 0x20 ADD DUP3 ADD SWAP1 POP JUMPDEST PUSH1 0x1 ISZERO PUSH2 0x1AD8 JUMPI DUP1 DUP1 PUSH1 0x1 SWAP1 SUB SWAP2 POP POP PUSH32 0x3031323334353637383961626364656600000000000000000000000000000000 PUSH1 0xA DUP7 MOD BYTE DUP2 MSTORE8 PUSH1 0xA DUP6 DUP2 PUSH2 0x1ACC JUMPI PUSH2 0x1ACB PUSH2 0x308C JUMP JUMPDEST JUMPDEST DIV SWAP5 POP PUSH1 0x0 DUP6 SUB PUSH2 0x1A83 JUMPI JUMPDEST DUP2 SWAP4 POP POP POP POP SWAP2 SWAP1 POP JUMP JUMPDEST PUSH1 0x0 PUSH20 0xFFFFFFFFFFFFFFFFFFFFFFFFFFFFFFFFFFFFFFFF AND DUP3 PUSH20 0xFFFFFFFFFFFFFFFFFFFFFFFFFFFFFFFFFFFFFFFF AND SUB PUSH2 0x1B52 JUMPI PUSH1 0x40 MLOAD PUSH32 0x8C379A000000000000000000000000000000000000000000000000000000000 DUP2 MSTORE PUSH1 0x4 ADD PUSH2 0x1B49 SWAP1 PUSH2 0x3107 JUMP JUMPDEST PUSH1 0x40 MLOAD DUP1 SWAP2 SUB SWAP1 REVERT JUMPDEST PUSH2 0x1B5B DUP2 PUSH2 0x17E6 JUMP JUMPDEST ISZERO PUSH2 0x1B9B JUMPI PUSH1 0x40 MLOAD PUSH32 0x8C379A000000000000000000000000000000000000000000000000000000000 DUP2 MSTORE PUSH1 0x4 ADD PUSH2 0x1B92 SWAP1 PUSH2 0x3173 JUMP JUMPDEST PUSH1 0x40 MLOAD DUP1 SWAP2 SUB SWAP1 REVERT JUMPDEST PUSH2 0x1BA9 PUSH1 0x0 DUP4 DUP4 PUSH1 0x1 PUSH2 0x1827 JUMP JUMPDEST PUSH2 0x1BB2 DUP2 PUSH2 0x17E6 JUMP JUMPDEST ISZERO PUSH2 0x1BF2 JUMPI PUSH1 0x40 MLOAD PUSH32 0x8C379A000000000000000000000000000000000000000000000000000000000 DUP2 MSTORE PUSH1 0x4 ADD PUSH2 0x1BE9 SWAP1 PUSH2 0x3173 JUMP JUMPDEST PUSH1 0x40 MLOAD DUP1 SWAP2 SUB SWAP1 REVERT JUMPDEST PUSH1 0x1 PUSH1 0x3 PUSH1 0x0 DUP5 PUSH20 0xFFFFFFFFFFFFFFFFFFFFFFFFFFFFFFFFFFFFFFFF AND PUSH20 0xFFFFFFFFFFFFFFFFFFFFFFFFFFFFFFFFFFFFFFFF AND DUP2 MSTORE PUSH1 0x20 ADD SWAP1 DUP2 MSTORE PUSH1 0x20 ADD PUSH1 0x0 KECCAK256 PUSH1 0x0 DUP3 DUP3 SLOAD ADD SWAP3 POP POP DUP2 SWAP1 SSTORE POP DUP2 PUSH1 0x2 PUSH1 0x0 DUP4 DUP2 MSTORE PUSH1 0x20 ADD SWAP1 DUP2 MSTORE PUSH1 0x20 ADD PUSH1 0x0 KECCAK256 PUSH1 0x0 PUSH2 0x100 EXP DUP2 SLOAD DUP2 PUSH20 0xFFFFFFFFFFFFFFFFFFFFFFFFFFFFFFFFFFFFFFFF MUL NOT AND SWAP1 DUP4 PUSH20 0xFFFFFFFFFFFFFFFFFFFFFFFFFFFFFFFFFFFFFFFF AND MUL OR SWAP1 SSTORE POP DUP1 DUP3 PUSH20 0xFFFFFFFFFFFFFFFFFFFFFFFFFFFFFFFFFFFFFFFF AND PUSH1 0x0 PUSH20 0xFFFFFFFFFFFFFFFFFFFFFFFFFFFFFFFFFFFFFFFF AND PUSH32 0xDDF252AD1BE2C89B69C2B068FC378DAA952BA7F163C4A11628F55A4DF523B3EF PUSH1 0x40 MLOAD PUSH1 0x40 MLOAD DUP1 SWAP2 SUB SWAP1 LOG4 PUSH2 0x1CFC PUSH1 0x0 DUP4 DUP4 PUSH1 0x1 PUSH2 0x182D JUMP JUMPDEST POP POP JUMP JUMPDEST PUSH1 0x0 DUP1 DUP3 PUSH20 0xFFFFFFFFFFFFFFFFFFFFFFFFFFFFFFFFFFFFFFFF AND EXTCODESIZE GT SWAP1 POP SWAP2 SWAP1 POP JUMP JUMPDEST PUSH1 0x0 DUP1 PUSH1 0x0 SWAP1 POP PUSH27 0x184F03E93FF9F4DAA797ED6E38ED64BF6A1F010000000000000000 DUP4 LT PUSH2 0x1D81 JUMPI PUSH27 0x184F03E93FF9F4DAA797ED6E38ED64BF6A1F010000000000000000 DUP4 DUP2 PUSH2 0x1D77 JUMPI PUSH2 0x1D76 PUSH2 0x308C JUMP JUMPDEST JUMPDEST DIV SWAP3 POP PUSH1 0x40 DUP2 ADD SWAP1 POP JUMPDEST PUSH14 0x4EE2D6D415B85ACEF8100000000 DUP4 LT PUSH2 0x1DBE JUMPI PUSH14 0x4EE2D6D415B85ACEF8100000000 DUP4 DUP2 PUSH2 0x1DB4 JUMPI PUSH2 0x1DB3 PUSH2 0x308C JUMP JUMPDEST JUMPDEST DIV SWAP3 POP PUSH1 0x20 DUP2 ADD SWAP1 POP JUMPDEST PUSH7 0x2386F26FC10000 DUP4 LT PUSH2 0x1DED JUMPI PUSH7 0x2386F26FC10000 DUP4 DUP2 PUSH2 0x1DE3 JUMPI PUSH2 0x1DE2 PUSH2 0x308C JUMP JUMPDEST JUMPDEST DIV SWAP3 POP PUSH1 0x10 DUP2 ADD SWAP1 POP JUMPDEST PUSH4 0x5F5E100 DUP4 LT PUSH2 0x1E16 JUMPI PUSH4 0x5F5E100 DUP4 DUP2 PUSH2 0x1E0C JUMPI PUSH2 0x1E0B PUSH2 0x308C JUMP JUMPDEST JUMPDEST DIV SWAP3 POP PUSH1 0x8 DUP2 ADD SWAP1 POP JUMPDEST PUSH2 0x2710 DUP4 LT PUSH2 0x1E3B JUMPI PUSH2 0x2710 DUP4 DUP2 PUSH2 0x1E31 JUMPI PUSH2 0x1E30 PUSH2 0x308C JUMP JUMPDEST JUMPDEST DIV SWAP3 POP PUSH1 0x4 DUP2 ADD SWAP1 POP JUMPDEST PUSH1 0x64 DUP4 LT PUSH2 0x1E5E JUMPI PUSH1 0x64 DUP4 DUP2 PUSH2 0x1E54 JUMPI PUSH2 0x1E53 PUSH2 0x308C JUMP JUMPDEST JUMPDEST DIV SWAP3 POP PUSH1 0x2 DUP2 ADD SWAP1 POP JUMPDEST PUSH1 0xA DUP4 LT PUSH2 0x1E6D JUMPI PUSH1 0x1 DUP2 ADD SWAP1 POP JUMPDEST DUP1 SWAP2 POP POP SWAP2 SWAP1 POP JUMP JUMPDEST PUSH1 0x0 PUSH1 0x40 MLOAD SWAP1 POP SWAP1 JUMP JUMPDEST PUSH1 0x0 DUP1 REVERT JUMPDEST PUSH1 0x0 DUP1 REVERT JUMPDEST PUSH1 0x0 PUSH32 0xFFFFFFFF00000000000000000000000000000000000000000000000000000000 DUP3 AND SWAP1 POP SWAP2 SWAP1 POP JUMP JUMPDEST PUSH2 0x1EBF DUP2 PUSH2 0x1E8A JUMP JUMPDEST DUP2 EQ PUSH2 0x1ECA JUMPI PUSH1 0x0 DUP1 REVERT JUMPDEST POP JUMP JUMPDEST PUSH1 0x0 DUP2 CALLDATALOAD SWAP1 POP PUSH2 0x1EDC DUP2 PUSH2 0x1EB6 JUMP JUMPDEST SWAP3 SWAP2 POP POP JUMP JUMPDEST PUSH1 0x0 PUSH1 0x20 DUP3 DUP5 SUB SLT ISZERO PUSH2 0x1EF8 JUMPI PUSH2 0x1EF7 PUSH2 0x1E80 JUMP JUMPDEST JUMPDEST PUSH1 0x0 PUSH2 0x1F06 DUP5 DUP3 DUP6 ADD PUSH2 0x1ECD JUMP JUMPDEST SWAP2 POP POP SWAP3 SWAP2 POP POP JUMP JUMPDEST PUSH1 0x0 DUP2 ISZERO ISZERO SWAP1 POP SWAP2 SWAP1 POP JUMP JUMPDEST PUSH2 0x1F24 DUP2 PUSH2 0x1F0F JUMP JUMPDEST DUP3 MSTORE POP POP JUMP JUMPDEST PUSH1 0x0 PUSH1 0x20 DUP3 ADD SWAP1 POP PUSH2 0x1F3F PUSH1 0x0 DUP4 ADD DUP5 PUSH2 0x1F1B JUMP JUMPDEST SWAP3 SWAP2 POP POP JUMP JUMPDEST PUSH1 0x0 DUP2 MLOAD SWAP1 POP SWAP2 SWAP1 POP JUMP JUMPDEST PUSH1 0x0 DUP3 DUP3 MSTORE PUSH1 0x20 DUP3 ADD SWAP1 POP SWAP3 SWAP2 POP POP JUMP JUMPDEST PUSH1 0x0 JUMPDEST DUP4 DUP2 LT ISZERO PUSH2 0x1F7F JUMPI DUP1 DUP3 ADD MLOAD DUP2 DUP5 ADD MSTORE PUSH1 0x20 DUP2 ADD SWAP1 POP PUSH2 0x1F64 JUMP JUMPDEST PUSH1 0x0 DUP5 DUP5 ADD MSTORE POP POP POP POP JUMP JUMPDEST PUSH1 0x0 PUSH1 0x1F NOT PUSH1 0x1F DUP4 ADD AND SWAP1 POP SWAP2 SWAP1 POP JUMP JUMPDEST PUSH1 0x0 PUSH2 0x1FA7 DUP3 PUSH2 0x1F45 JUMP JUMPDEST PUSH2 0x1FB1 DUP2 DUP6 PUSH2 0x1F50 JUMP JUMPDEST SWAP4 POP PUSH2 0x1FC1 DUP2 DUP6 PUSH1 0x20 DUP7 ADD PUSH2 0x1F61 JUMP JUMPDEST PUSH2 0x1FCA DUP2 PUSH2 0x1F8B JUMP JUMPDEST DUP5 ADD SWAP2 POP POP SWAP3 SWAP2 POP POP JUMP JUMPDEST PUSH1 0x0 PUSH1 0x20 DUP3 ADD SWAP1 POP DUP2 DUP2 SUB PUSH1 0x0 DUP4 ADD MSTORE PUSH2 0x1FEF DUP2 DUP5 PUSH2 0x1F9C JUMP JUMPDEST SWAP1 POP SWAP3 SWAP2 POP POP JUMP JUMPDEST PUSH1 0x0 DUP2 SWAP1 POP SWAP2 SWAP1 POP JUMP JUMPDEST PUSH2 0x200A DUP2 PUSH2 0x1FF7 JUMP JUMPDEST DUP2 EQ PUSH2 0x2015 JUMPI PUSH1 0x0 DUP1 REVERT JUMPDEST POP JUMP JUMPDEST PUSH1 0x0 DUP2 CALLDATALOAD SWAP1 POP PUSH2 0x2027 DUP2 PUSH2 0x2001 JUMP JUMPDEST SWAP3 SWAP2 POP POP JUMP JUMPDEST PUSH1 0x0 PUSH1 0x20 DUP3 DUP5 SUB SLT ISZERO PUSH2 0x2043 JUMPI PUSH2 0x2042 PUSH2 0x1E80 JUMP JUMPDEST JUMPDEST PUSH1 0x0 PUSH2 0x2051 DUP5 DUP3 DUP6 ADD PUSH2 0x2018 JUMP JUMPDEST SWAP2 POP POP SWAP3 SWAP2 POP POP JUMP JUMPDEST PUSH1 0x0 PUSH20 0xFFFFFFFFFFFFFFFFFFFFFFFFFFFFFFFFFFFFFFFF DUP3 AND SWAP1 POP SWAP2 SWAP1 POP JUMP JUMPDEST PUSH1 0x0 PUSH2 0x2085 DUP3 PUSH2 0x205A JUMP JUMPDEST SWAP1 POP SWAP2 SWAP1 POP JUMP JUMPDEST PUSH2 0x2095 DUP2 PUSH2 0x207A JUMP JUMPDEST DUP3 MSTORE POP POP JUMP JUMPDEST PUSH1 0x0 PUSH1 0x20 DUP3 ADD SWAP1 POP PUSH2 0x20B0 PUSH1 0x0 DUP4 ADD DUP5 PUSH2 0x208C JUMP JUMPDEST SWAP3 SWAP2 POP POP JUMP JUMPDEST PUSH2 0x20BF DUP2 PUSH2 0x207A JUMP JUMPDEST DUP2 EQ PUSH2 0x20CA JUMPI PUSH1 0x0 DUP1 REVERT JUMPDEST POP JUMP JUMPDEST PUSH1 0x0 DUP2 CALLDATALOAD SWAP1 POP PUSH2 0x20DC DUP2 PUSH2 0x20B6 JUMP JUMPDEST SWAP3 SWAP2 POP POP JUMP JUMPDEST PUSH1 0x0 DUP1 PUSH1 0x40 DUP4 DUP6 SUB SLT ISZERO PUSH2 0x20F9 JUMPI PUSH2 0x20F8 PUSH2 0x1E80 JUMP JUMPDEST JUMPDEST PUSH1 0x0 PUSH2 0x2107 DUP6 DUP3 DUP7 ADD PUSH2 0x20CD JUMP JUMPDEST SWAP3 POP POP PUSH1 0x20 PUSH2 0x2118 DUP6 DUP3 DUP7 ADD PUSH2 0x2018 JUMP JUMPDEST SWAP2 POP POP SWAP3 POP SWAP3 SWAP1 POP JUMP JUMPDEST PUSH1 0x0 PUSH1 0x20 DUP3 DUP5 SUB SLT ISZERO PUSH2 0x2138 JUMPI PUSH2 0x2137 PUSH2 0x1E80 JUMP JUMPDEST JUMPDEST PUSH1 0x0 PUSH2 0x2146 DUP5 DUP3 DUP6 ADD PUSH2 0x20CD JUMP JUMPDEST SWAP2 POP POP SWAP3 SWAP2 POP POP JUMP JUMPDEST PUSH1 0x0 DUP1 PUSH1 0x0 PUSH1 0x60 DUP5 DUP7 SUB SLT ISZERO PUSH2 0x2168 JUMPI PUSH2 0x2167 PUSH2 0x1E80 JUMP JUMPDEST JUMPDEST PUSH1 0x0 PUSH2 0x2176 DUP7 DUP3 DUP8 ADD PUSH2 0x20CD JUMP JUMPDEST SWAP4 POP POP PUSH1 0x20 PUSH2 0x2187 DUP7 DUP3 DUP8 ADD PUSH2 0x20CD JUMP JUMPDEST SWAP3 POP POP PUSH1 0x40 PUSH2 0x2198 DUP7 DUP3 DUP8 ADD PUSH2 0x2018 JUMP JUMPDEST SWAP2 POP POP SWAP3 POP SWAP3 POP SWAP3 JUMP JUMPDEST PUSH1 0x0 DUP1 REVERT JUMPDEST PUSH1 0x0 DUP1 REVERT JUMPDEST PUSH32 0x4E487B7100000000000000000000000000000000000000000000000000000000 PUSH1 0x0 MSTORE PUSH1 0x41 PUSH1 0x4 MSTORE PUSH1 0x24 PUSH1 0x0 REVERT JUMPDEST PUSH2 0x21E4 DUP3 PUSH2 0x1F8B JUMP JUMPDEST DUP2 ADD DUP2 DUP2 LT PUSH8 0xFFFFFFFFFFFFFFFF DUP3 GT OR ISZERO PUSH2 0x2203 JUMPI PUSH2 0x2202 PUSH2 0x21AC JUMP JUMPDEST JUMPDEST DUP1 PUSH1 0x40 MSTORE POP POP POP JUMP JUMPDEST PUSH1 0x0 PUSH2 0x2216 PUSH2 0x1E76 JUMP JUMPDEST SWAP1 POP PUSH2 0x2222 DUP3 DUP3 PUSH2 0x21DB JUMP JUMPDEST SWAP2 SWAP1 POP JUMP JUMPDEST PUSH1 0x0 PUSH8 0xFFFFFFFFFFFFFFFF DUP3 GT ISZERO PUSH2 0x2242 JUMPI PUSH2 0x2241 PUSH2 0x21AC JUMP JUMPDEST JUMPDEST PUSH2 0x224B DUP3 PUSH2 0x1F8B JUMP JUMPDEST SWAP1 POP PUSH1 0x20 DUP2 ADD SWAP1 POP SWAP2 SWAP1 POP JUMP JUMPDEST DUP3 DUP2 DUP4 CALLDATACOPY PUSH1 0x0 DUP4 DUP4 ADD MSTORE POP POP POP JUMP JUMPDEST PUSH1 0x0 PUSH2 0x227A PUSH2 0x2275 DUP5 PUSH2 0x2227 JUMP JUMPDEST PUSH2 0x220C JUMP JUMPDEST SWAP1 POP DUP3 DUP2 MSTORE PUSH1 0x20 DUP2 ADD DUP5 DUP5 DUP5 ADD GT ISZERO PUSH2 0x2296 JUMPI PUSH2 0x2295 PUSH2 0x21A7 JUMP JUMPDEST JUMPDEST PUSH2 0x22A1 DUP5 DUP3 DUP6 PUSH2 0x2258 JUMP JUMPDEST POP SWAP4 SWAP3 POP POP POP JUMP JUMPDEST PUSH1 0x0 DUP3 PUSH1 0x1F DUP4 ADD SLT PUSH2 0x22BE JUMPI PUSH2 0x22BD PUSH2 0x21A2 JUMP JUMPDEST JUMPDEST DUP2 CALLDATALOAD PUSH2 0x22CE DUP5 DUP3 PUSH1 0x20 DUP7 ADD PUSH2 0x2267 JUMP JUMPDEST SWAP2 POP POP SWAP3 SWAP2 POP POP JUMP JUMPDEST PUSH1 0x0 DUP1 PUSH1 0x40 DUP4 DUP6 SUB SLT ISZERO PUSH2 0x22EE JUMPI PUSH2 0x22ED PUSH2 0x1E80 JUMP JUMPDEST JUMPDEST PUSH1 0x0 PUSH2 0x22FC DUP6 DUP3 DUP7 ADD PUSH2 0x20CD JUMP JUMPDEST SWAP3 POP POP PUSH1 0x20 DUP4 ADD CALLDATALOAD PUSH8 0xFFFFFFFFFFFFFFFF DUP2 GT ISZERO PUSH2 0x231D JUMPI PUSH2 0x231C PUSH2 0x1E85 JUMP JUMPDEST JUMPDEST PUSH2 0x2329 DUP6 DUP3 DUP7 ADD PUSH2 0x22A9 JUMP JUMPDEST SWAP2 POP POP SWAP3 POP SWAP3 SWAP1 POP JUMP JUMPDEST PUSH2 0x233C DUP2 PUSH2 0x1FF7 JUMP JUMPDEST DUP3 MSTORE POP POP JUMP JUMPDEST PUSH1 0x0 PUSH1 0x20 DUP3 ADD SWAP1 POP PUSH2 0x2357 PUSH1 0x0 DUP4 ADD DUP5 PUSH2 0x2333 JUMP JUMPDEST SWAP3 SWAP2 POP POP JUMP JUMPDEST PUSH2 0x2366 DUP2 PUSH2 0x1F0F JUMP JUMPDEST DUP2 EQ PUSH2 0x2371 JUMPI PUSH1 0x0 DUP1 REVERT JUMPDEST POP JUMP JUMPDEST PUSH1 0x0 DUP2 CALLDATALOAD SWAP1 POP PUSH2 0x2383 DUP2 PUSH2 0x235D JUMP JUMPDEST SWAP3 SWAP2 POP POP JUMP JUMPDEST PUSH1 0x0 DUP1 PUSH1 0x40 DUP4 DUP6 SUB SLT ISZERO PUSH2 0x23A0 JUMPI PUSH2 0x239F PUSH2 0x1E80 JUMP JUMPDEST JUMPDEST PUSH1 0x0 PUSH2 0x23AE DUP6 DUP3 DUP7 ADD PUSH2 0x20CD JUMP JUMPDEST SWAP3 POP POP PUSH1 0x20 PUSH2 0x23BF DUP6 DUP3 DUP7 ADD PUSH2 0x2374 JUMP JUMPDEST SWAP2 POP POP SWAP3 POP SWAP3 SWAP1 POP JUMP JUMPDEST PUSH1 0x0 PUSH8 0xFFFFFFFFFFFFFFFF DUP3 GT ISZERO PUSH2 0x23E4 JUMPI PUSH2 0x23E3 PUSH2 0x21AC JUMP JUMPDEST JUMPDEST PUSH2 0x23ED DUP3 PUSH2 0x1F8B JUMP JUMPDEST SWAP1 POP PUSH1 0x20 DUP2 ADD SWAP1 POP SWAP2 SWAP1 POP JUMP JUMPDEST PUSH1 0x0 PUSH2 0x240D PUSH2 0x2408 DUP5 PUSH2 0x23C9 JUMP JUMPDEST PUSH2 0x220C JUMP JUMPDEST SWAP1 POP DUP3 DUP2 MSTORE PUSH1 0x20 DUP2 ADD DUP5 DUP5 DUP5 ADD GT ISZERO PUSH2 0x2429 JUMPI PUSH2 0x2428 PUSH2 0x21A7 JUMP JUMPDEST JUMPDEST PUSH2 0x2434 DUP5 DUP3 DUP6 PUSH2 0x2258 JUMP JUMPDEST POP SWAP4 SWAP3 POP POP POP JUMP JUMPDEST PUSH1 0x0 DUP3 PUSH1 0x1F DUP4 ADD SLT PUSH2 0x2451 JUMPI PUSH2 0x2450 PUSH2 0x21A2 JUMP JUMPDEST JUMPDEST DUP2 CALLDATALOAD PUSH2 0x2461 DUP5 DUP3 PUSH1 0x20 DUP7 ADD PUSH2 0x23FA JUMP JUMPDEST SWAP2 POP POP SWAP3 SWAP2 POP POP JUMP JUMPDEST PUSH1 0x0 DUP1 PUSH1 0x0 DUP1 PUSH1 0x80 DUP6 DUP8 SUB SLT ISZERO PUSH2 0x2484 JUMPI PUSH2 0x2483 PUSH2 0x1E80 JUMP JUMPDEST JUMPDEST PUSH1 0x0 PUSH2 0x2492 DUP8 DUP3 DUP9 ADD PUSH2 0x20CD JUMP JUMPDEST SWAP5 POP POP PUSH1 0x20 PUSH2 0x24A3 DUP8 DUP3 DUP9 ADD PUSH2 0x20CD JUMP JUMPDEST SWAP4 POP POP PUSH1 0x40 PUSH2 0x24B4 DUP8 DUP3 DUP9 ADD PUSH2 0x2018 JUMP JUMPDEST SWAP3 POP POP PUSH1 0x60 DUP6 ADD CALLDATALOAD PUSH8 0xFFFFFFFFFFFFFFFF DUP2 GT ISZERO PUSH2 0x24D5 JUMPI PUSH2 0x24D4 PUSH2 0x1E85 JUMP JUMPDEST JUMPDEST PUSH2 0x24E1 DUP8 DUP3 DUP9 ADD PUSH2 0x243C JUMP JUMPDEST SWAP2 POP POP SWAP3 SWAP6 SWAP2 SWAP5 POP SWAP3 POP JUMP JUMPDEST PUSH1 0x0 DUP1 PUSH1 0x40 DUP4 DUP6 SUB SLT ISZERO PUSH2 0x2504 JUMPI PUSH2 0x2503 PUSH2 0x1E80 JUMP JUMPDEST JUMPDEST PUSH1 0x0 PUSH2 0x2512 DUP6 DUP3 DUP7 ADD PUSH2 0x20CD JUMP JUMPDEST SWAP3 POP POP PUSH1 0x20 PUSH2 0x2523 DUP6 DUP3 DUP7 ADD PUSH2 0x20CD JUMP JUMPDEST SWAP2 POP POP SWAP3 POP SWAP3 SWAP1 POP JUMP JUMPDEST PUSH32 0x4E487B7100000000000000000000000000000000000000000000000000000000 PUSH1 0x0 MSTORE PUSH1 0x22 PUSH1 0x4 MSTORE PUSH1 0x24 PUSH1 0x0 REVERT JUMPDEST PUSH1 0x0 PUSH1 0x2 DUP3 DIV SWAP1 POP PUSH1 0x1 DUP3 AND DUP1 PUSH2 0x2574 JUMPI PUSH1 0x7F DUP3 AND SWAP2 POP JUMPDEST PUSH1 0x20 DUP3 LT DUP2 SUB PUSH2 0x2587 JUMPI PUSH2 0x2586 PUSH2 0x252D JUMP JUMPDEST JUMPDEST POP SWAP2 SWAP1 POP JUMP JUMPDEST PUSH32 0x4552433732313A20617070726F76616C20746F2063757272656E74206F776E65 PUSH1 0x0 DUP3 ADD MSTORE PUSH32 0x7200000000000000000000000000000000000000000000000000000000000000 PUSH1 0x20 DUP3 ADD MSTORE POP JUMP JUMPDEST PUSH1 0x0 PUSH2 0x25E9 PUSH1 0x21 DUP4 PUSH2 0x1F50 JUMP JUMPDEST SWAP2 POP PUSH2 0x25F4 DUP3 PUSH2 0x258D JUMP JUMPDEST PUSH1 0x40 DUP3 ADD SWAP1 POP SWAP2 SWAP1 POP JUMP JUMPDEST PUSH1 0x0 PUSH1 0x20 DUP3 ADD SWAP1 POP DUP2 DUP2 SUB PUSH1 0x0 DUP4 ADD MSTORE PUSH2 0x2618 DUP2 PUSH2 0x25DC JUMP JUMPDEST SWAP1 POP SWAP2 SWAP1 POP JUMP JUMPDEST PUSH32 0x4552433732313A20617070726F76652063616C6C6572206973206E6F7420746F PUSH1 0x0 DUP3 ADD MSTORE PUSH32 0x6B656E206F776E6572206F7220617070726F76656420666F7220616C6C000000 PUSH1 0x20 DUP3 ADD MSTORE POP JUMP JUMPDEST PUSH1 0x0 PUSH2 0x267B PUSH1 0x3D DUP4 PUSH2 0x1F50 JUMP JUMPDEST SWAP2 POP PUSH2 0x2686 DUP3 PUSH2 0x261F JUMP JUMPDEST PUSH1 0x40 DUP3 ADD SWAP1 POP SWAP2 SWAP1 POP JUMP JUMPDEST PUSH1 0x0 PUSH1 0x20 DUP3 ADD SWAP1 POP DUP2 DUP2 SUB PUSH1 0x0 DUP4 ADD MSTORE PUSH2 0x26AA DUP2 PUSH2 0x266E JUMP JUMPDEST SWAP1 POP SWAP2 SWAP1 POP JUMP JUMPDEST PUSH32 0x496E76616C6964206D696E746572206164647265737300000000000000000000 PUSH1 0x0 DUP3 ADD MSTORE POP JUMP JUMPDEST PUSH1 0x0 PUSH2 0x26E7 PUSH1 0x16 DUP4 PUSH2 0x1F50 JUMP JUMPDEST SWAP2 POP PUSH2 0x26F2 DUP3 PUSH2 0x26B1 JUMP JUMPDEST PUSH1 0x20 DUP3 ADD SWAP1 POP SWAP2 SWAP1 POP JUMP JUMPDEST PUSH1 0x0 PUSH1 0x20 DUP3 ADD SWAP1 POP DUP2 DUP2 SUB PUSH1 0x0 DUP4 ADD MSTORE PUSH2 0x2716 DUP2 PUSH2 0x26DA JUMP JUMPDEST SWAP1 POP SWAP2 SWAP1 POP JUMP JUMPDEST PUSH32 0x4552433732313A2063616C6C6572206973206E6F7420746F6B656E206F776E65 PUSH1 0x0 DUP3 ADD MSTORE PUSH32 0x72206F7220617070726F76656400000000000000000000000000000000000000 PUSH1 0x20 DUP3 ADD MSTORE POP JUMP JUMPDEST PUSH1 0x0 PUSH2 0x2779 PUSH1 0x2D DUP4 PUSH2 0x1F50 JUMP JUMPDEST SWAP2 POP PUSH2 0x2784 DUP3 PUSH2 0x271D JUMP JUMPDEST PUSH1 0x40 DUP3 ADD SWAP1 POP SWAP2 SWAP1 POP JUMP JUMPDEST PUSH1 0x0 PUSH1 0x20 DUP3 ADD SWAP1 POP DUP2 DUP2 SUB PUSH1 0x0 DUP4 ADD MSTORE PUSH2 0x27A8 DUP2 PUSH2 0x276C JUMP JUMPDEST SWAP1 POP SWAP2 SWAP1 POP JUMP JUMPDEST PUSH32 0x4E6F7420617574686F72697A656420746F206D696E7400000000000000000000 PUSH1 0x0 DUP3 ADD MSTORE POP JUMP JUMPDEST PUSH1 0x0 PUSH2 0x27E5 PUSH1 0x16 DUP4 PUSH2 0x1F50 JUMP JUMPDEST SWAP2 POP PUSH2 0x27F0 DUP3 PUSH2 0x27AF JUMP JUMPDEST PUSH1 0x20 DUP3 ADD SWAP1 POP SWAP2 SWAP1 POP JUMP JUMPDEST PUSH1 0x0 PUSH1 0x20 DUP3 ADD SWAP1 POP DUP2 DUP2 SUB PUSH1 0x0 DUP4 ADD MSTORE PUSH2 0x2814 DUP2 PUSH2 0x27D8 JUMP JUMPDEST SWAP1 POP SWAP2 SWAP1 POP JUMP JUMPDEST PUSH1 0x0 DUP2 SWAP1 POP DUP2 PUSH1 0x0 MSTORE PUSH1 0x20 PUSH1 0x0 KECCAK256 SWAP1 POP SWAP2 SWAP1 POP JUMP JUMPDEST PUSH1 0x0 PUSH1 0x20 PUSH1 0x1F DUP4 ADD DIV SWAP1 POP SWAP2 SWAP1 POP JUMP JUMPDEST PUSH1 0x0 DUP3 DUP3 SHL SWAP1 POP SWAP3 SWAP2 POP POP JUMP JUMPDEST PUSH1 0x0 PUSH1 0x8 DUP4 MUL PUSH2 0x287D PUSH32 0xFFFFFFFFFFFFFFFFFFFFFFFFFFFFFFFFFFFFFFFFFFFFFFFFFFFFFFFFFFFFFFFF DUP3 PUSH2 0x2840 JUMP JUMPDEST PUSH2 0x2887 DUP7 DUP4 PUSH2 0x2840 JUMP JUMPDEST SWAP6 POP DUP1 NOT DUP5 AND SWAP4 POP DUP1 DUP7 AND DUP5 OR SWAP3 POP POP POP SWAP4 SWAP3 POP POP POP JUMP JUMPDEST PUSH1 0x0 DUP2 SWAP1 POP SWAP2 SWAP1 POP JUMP JUMPDEST PUSH1 0x0 PUSH2 0x28C4 PUSH2 0x28BF PUSH2 0x28BA DUP5 PUSH2 0x1FF7 JUMP JUMPDEST PUSH2 0x289F JUMP JUMPDEST PUSH2 0x1FF7 JUMP JUMPDEST SWAP1 POP SWAP2 SWAP1 POP JUMP JUMPDEST PUSH1 0x0 DUP2 SWAP1 POP SWAP2 SWAP1 POP JUMP JUMPDEST PUSH2 0x28DE DUP4 PUSH2 0x28A9 JUMP JUMPDEST PUSH2 0x28F2 PUSH2 0x28EA DUP3 PUSH2 0x28CB JUMP JUMPDEST DUP5 DUP5 SLOAD PUSH2 0x284D JUMP JUMPDEST DUP3 SSTORE POP POP POP POP JUMP JUMPDEST PUSH1 0x0 SWAP1 JUMP JUMPDEST PUSH2 0x2907 PUSH2 0x28FA JUMP JUMPDEST PUSH2 0x2912 DUP2 DUP5 DUP5 PUSH2 0x28D5 JUMP JUMPDEST POP POP POP JUMP JUMPDEST JUMPDEST DUP2 DUP2 LT ISZERO PUSH2 0x2936 JUMPI PUSH2 0x292B PUSH1 0x0 DUP3 PUSH2 0x28FF JUMP JUMPDEST PUSH1 0x1 DUP2 ADD SWAP1 POP PUSH2 0x2918 JUMP JUMPDEST POP POP JUMP JUMPDEST PUSH1 0x1F DUP3 GT ISZERO PUSH2 0x297B JUMPI PUSH2 0x294C DUP2 PUSH2 0x281B JUMP JUMPDEST PUSH2 0x2955 DUP5 PUSH2 0x2830 JUMP JUMPDEST DUP2 ADD PUSH1 0x20 DUP6 LT ISZERO PUSH2 0x2964 JUMPI DUP2 SWAP1 POP JUMPDEST PUSH2 0x2978 PUSH2 0x2970 DUP6 PUSH2 0x2830 JUMP JUMPDEST DUP4 ADD DUP3 PUSH2 0x2917 JUMP JUMPDEST POP POP JUMPDEST POP POP POP JUMP JUMPDEST PUSH1 0x0 DUP3 DUP3 SHR SWAP1 POP SWAP3 SWAP2 POP POP JUMP JUMPDEST PUSH1 0x0 PUSH2 0x299E PUSH1 0x0 NOT DUP5 PUSH1 0x8 MUL PUSH2 0x2980 JUMP JUMPDEST NOT DUP1 DUP4 AND SWAP2 POP POP SWAP3 SWAP2 POP POP JUMP JUMPDEST PUSH1 0x0 PUSH2 0x29B7 DUP4 DUP4 PUSH2 0x298D JUMP JUMPDEST SWAP2 POP DUP3 PUSH1 0x2 MUL DUP3 OR SWAP1 POP SWAP3 SWAP2 POP POP JUMP JUMPDEST PUSH2 0x29D0 DUP3 PUSH2 0x1F45 JUMP JUMPDEST PUSH8 0xFFFFFFFFFFFFFFFF DUP2 GT ISZERO PUSH2 0x29E9 JUMPI PUSH2 0x29E8 PUSH2 0x21AC JUMP JUMPDEST JUMPDEST PUSH2 0x29F3 DUP3 SLOAD PUSH2 0x255C JUMP JUMPDEST PUSH2 0x29FE DUP3 DUP3 DUP6 PUSH2 0x293A JUMP JUMPDEST PUSH1 0x0 PUSH1 0x20 SWAP1 POP PUSH1 0x1F DUP4 GT PUSH1 0x1 DUP2 EQ PUSH2 0x2A31 JUMPI PUSH1 0x0 DUP5 ISZERO PUSH2 0x2A1F JUMPI DUP3 DUP8 ADD MLOAD SWAP1 POP JUMPDEST PUSH2 0x2A29 DUP6 DUP3 PUSH2 0x29AB JUMP JUMPDEST DUP7 SSTORE POP PUSH2 0x2A91 JUMP JUMPDEST PUSH1 0x1F NOT DUP5 AND PUSH2 0x2A3F DUP7 PUSH2 0x281B JUMP JUMPDEST PUSH1 0x0 JUMPDEST DUP3 DUP2 LT ISZERO PUSH2 0x2A67 JUMPI DUP5 DUP10 ADD MLOAD DUP3 SSTORE PUSH1 0x1 DUP3 ADD SWAP2 POP PUSH1 0x20 DUP6 ADD SWAP5 POP PUSH1 0x20 DUP2 ADD SWAP1 POP PUSH2 0x2A42 JUMP JUMPDEST DUP7 DUP4 LT ISZERO PUSH2 0x2A84 JUMPI DUP5 DUP10 ADD MLOAD PUSH2 0x2A80 PUSH1 0x1F DUP10 AND DUP3 PUSH2 0x298D JUMP JUMPDEST DUP4 SSTORE POP JUMPDEST PUSH1 0x1 PUSH1 0x2 DUP9 MUL ADD DUP9 SSTORE POP POP POP JUMPDEST POP POP POP POP POP POP JUMP JUMPDEST PUSH32 0x4552433732313A20696E76616C696420746F6B656E2049440000000000000000 PUSH1 0x0 DUP3 ADD MSTORE POP JUMP JUMPDEST PUSH1 0x0 PUSH2 0x2ACF PUSH1 0x18 DUP4 PUSH2 0x1F50 JUMP JUMPDEST SWAP2 POP PUSH2 0x2ADA DUP3 PUSH2 0x2A99 JUMP JUMPDEST PUSH1 0x20 DUP3 ADD SWAP1 POP SWAP2 SWAP1 POP JUMP JUMPDEST PUSH1 0x0 PUSH1 0x20 DUP3 ADD SWAP1 POP DUP2 DUP2 SUB PUSH1 0x0 DUP4 ADD MSTORE PUSH2 0x2AFE DUP2 PUSH2 0x2AC2 JUMP JUMPDEST SWAP1 POP SWAP2 SWAP1 POP JUMP JUMPDEST PUSH32 0x4552433732313A2061646472657373207A65726F206973206E6F742061207661 PUSH1 0x0 DUP3 ADD MSTORE PUSH32 0x6C6964206F776E65720000000000000000000000000000000000000000000000 PUSH1 0x20 DUP3 ADD MSTORE POP JUMP JUMPDEST PUSH1 0x0 PUSH2 0x2B61 PUSH1 0x29 DUP4 PUSH2 0x1F50 JUMP JUMPDEST SWAP2 POP PUSH2 0x2B6C DUP3 PUSH2 0x2B05 JUMP JUMPDEST PUSH1 0x40 DUP3 ADD SWAP1 POP SWAP2 SWAP1 POP JUMP JUMPDEST PUSH1 0x0 PUSH1 0x20 DUP3 ADD SWAP1 POP DUP2 DUP2 SUB PUSH1 0x0 DUP4 ADD MSTORE PUSH2 0x2B90 DUP2 PUSH2 0x2B54 JUMP JUMPDEST SWAP1 POP SWAP2 SWAP1 POP JUMP JUMPDEST PUSH1 0x0 DUP2 SWAP1 POP SWAP3 SWAP2 POP POP JUMP JUMPDEST PUSH1 0x0 PUSH2 0x2BAD DUP3 PUSH2 0x1F45 JUMP JUMPDEST PUSH2 0x2BB7 DUP2 DUP6 PUSH2 0x2B97 JUMP JUMPDEST SWAP4 POP PUSH2 0x2BC7 DUP2 DUP6 PUSH1 0x20 DUP7 ADD PUSH2 0x1F61 JUMP JUMPDEST DUP1 DUP5 ADD SWAP2 POP POP SWAP3 SWAP2 POP POP JUMP JUMPDEST PUSH1 0x0 PUSH2 0x2BDF DUP3 DUP6 PUSH2 0x2BA2 JUMP JUMPDEST SWAP2 POP PUSH2 0x2BEB DUP3 DUP5 PUSH2 0x2BA2 JUMP JUMPDEST SWAP2 POP DUP2 SWAP1 POP SWAP4 SWAP3 POP POP POP JUMP JUMPDEST PUSH32 0x4F776E61626C653A206E6577206F776E657220697320746865207A65726F2061 PUSH1 0x0 DUP3 ADD MSTORE PUSH32 0x6464726573730000000000000000000000000000000000000000000000000000 PUSH1 0x20 DUP3 ADD MSTORE POP JUMP JUMPDEST PUSH1 0x0 PUSH2 0x2C53 PUSH1 0x26 DUP4 PUSH2 0x1F50 JUMP JUMPDEST SWAP2 POP PUSH2 0x2C5E DUP3 PUSH2 0x2BF7 JUMP JUMPDEST PUSH1 0x40 DUP3 ADD SWAP1 POP SWAP2 SWAP1 POP JUMP JUMPDEST PUSH1 0x0 PUSH1 0x20 DUP3 ADD SWAP1 POP DUP2 DUP2 SUB PUSH1 0x0 DUP4 ADD MSTORE PUSH2 0x2C82 DUP2 PUSH2 0x2C46 JUMP JUMPDEST SWAP1 POP SWAP2 SWAP1 POP JUMP JUMPDEST PUSH32 0x4F776E61626C653A2063616C6C6572206973206E6F7420746865206F776E6572 PUSH1 0x0 DUP3 ADD MSTORE POP JUMP JUMPDEST PUSH1 0x0 PUSH2 0x2CBF PUSH1 0x20 DUP4 PUSH2 0x1F50 JUMP JUMPDEST SWAP2 POP PUSH2 0x2CCA DUP3 PUSH2 0x2C89 JUMP JUMPDEST PUSH1 0x20 DUP3 ADD SWAP1 POP SWAP2 SWAP1 POP JUMP JUMPDEST PUSH1 0x0 PUSH1 0x20 DUP3 ADD SWAP1 POP DUP2 DUP2 SUB PUSH1 0x0 DUP4 ADD MSTORE PUSH2 0x2CEE DUP2 PUSH2 0x2CB2 JUMP JUMPDEST SWAP1 POP SWAP2 SWAP1 POP JUMP JUMPDEST PUSH32 0x4552433732313A207472616E736665722066726F6D20696E636F727265637420 PUSH1 0x0 DUP3 ADD MSTORE PUSH32 0x6F776E6572000000000000000000000000000000000000000000000000000000 PUSH1 0x20 DUP3 ADD MSTORE POP JUMP JUMPDEST PUSH1 0x0 PUSH2 0x2D51 PUSH1 0x25 DUP4 PUSH2 0x1F50 JUMP JUMPDEST SWAP2 POP PUSH2 0x2D5C DUP3 PUSH2 0x2CF5 JUMP JUMPDEST PUSH1 0x40 DUP3 ADD SWAP1 POP SWAP2 SWAP1 POP JUMP JUMPDEST PUSH1 0x0 PUSH1 0x20 DUP3 ADD SWAP1 POP DUP2 DUP2 SUB PUSH1 0x0 DUP4 ADD MSTORE PUSH2 0x2D80 DUP2 PUSH2 0x2D44 JUMP JUMPDEST SWAP1 POP SWAP2 SWAP1 POP JUMP JUMPDEST PUSH32 0x4552433732313A207472616E7366657220746F20746865207A65726F20616464 PUSH1 0x0 DUP3 ADD MSTORE PUSH32 0x7265737300000000000000000000000000000000000000000000000000000000 PUSH1 0x20 DUP3 ADD MSTORE POP JUMP JUMPDEST PUSH1 0x0 PUSH2 0x2DE3 PUSH1 0x24 DUP4 PUSH2 0x1F50 JUMP JUMPDEST SWAP2 POP PUSH2 0x2DEE DUP3 PUSH2 0x2D87 JUMP JUMPDEST PUSH1 0x40 DUP3 ADD SWAP1 POP SWAP2 SWAP1 POP JUMP JUMPDEST PUSH1 0x0 PUSH1 0x20 DUP3 ADD SWAP1 POP DUP2 DUP2 SUB PUSH1 0x0 DUP4 ADD MSTORE PUSH2 0x2E12 DUP2 PUSH2 0x2DD6 JUMP JUMPDEST SWAP1 POP SWAP2 SWAP1 POP JUMP JUMPDEST PUSH32 0x45524337323155524953746F726167653A2055524920736574206F66206E6F6E PUSH1 0x0 DUP3 ADD MSTORE PUSH32 0x6578697374656E7420746F6B656E000000000000000000000000000000000000 PUSH1 0x20 DUP3 ADD MSTORE POP JUMP JUMPDEST PUSH1 0x0 PUSH2 0x2E75 PUSH1 0x2E DUP4 PUSH2 0x1F50 JUMP JUMPDEST SWAP2 POP PUSH2 0x2E80 DUP3 PUSH2 0x2E19 JUMP JUMPDEST PUSH1 0x40 DUP3 ADD SWAP1 POP SWAP2 SWAP1 POP JUMP JUMPDEST PUSH1 0x0 PUSH1 0x20 DUP3 ADD SWAP1 POP DUP2 DUP2 SUB PUSH1 0x0 DUP4 ADD MSTORE PUSH2 0x2EA4 DUP2 PUSH2 0x2E68 JUMP JUMPDEST SWAP1 POP SWAP2 SWAP1 POP JUMP JUMPDEST PUSH32 0x4552433732313A20617070726F766520746F2063616C6C657200000000000000 PUSH1 0x0 DUP3 ADD MSTORE POP JUMP JUMPDEST PUSH1 0x0 PUSH2 0x2EE1 PUSH1 0x19 DUP4 PUSH2 0x1F50 JUMP JUMPDEST SWAP2 POP PUSH2 0x2EEC DUP3 PUSH2 0x2EAB JUMP JUMPDEST PUSH1 0x20 DUP3 ADD SWAP1 POP SWAP2 SWAP1 POP JUMP JUMPDEST PUSH1 0x0 PUSH1 0x20 DUP3 ADD SWAP1 POP DUP2 DUP2 SUB PUSH1 0x0 DUP4 ADD MSTORE PUSH2 0x2F10 DUP2 PUSH2 0x2ED4 JUMP JUMPDEST SWAP1 POP SWAP2 SWAP1 POP JUMP JUMPDEST PUSH32 0x4552433732313A207472616E7366657220746F206E6F6E204552433732315265 PUSH1 0x0 DUP3 ADD MSTORE PUSH32 0x63656976657220696D706C656D656E7465720000000000000000000000000000 PUSH1 0x20 DUP3 ADD MSTORE POP JUMP JUMPDEST PUSH1 0x0 PUSH2 0x2F73 PUSH1 0x32 DUP4 PUSH2 0x1F50 JUMP JUMPDEST SWAP2 POP PUSH2 0x2F7E DUP3 PUSH2 0x2F17 JUMP JUMPDEST PUSH1 0x40 DUP3 ADD SWAP1 POP SWAP2 SWAP1 POP JUMP JUMPDEST PUSH1 0x0 PUSH1 0x20 DUP3 ADD SWAP1 POP DUP2 DUP2 SUB PUSH1 0x0 DUP4 ADD MSTORE PUSH2 0x2FA2 DUP2 PUSH2 0x2F66 JUMP JUMPDEST SWAP1 POP SWAP2 SWAP1 POP JUMP JUMPDEST PUSH1 0x0 DUP2 MLOAD SWAP1 POP SWAP2 SWAP1 POP JUMP JUMPDEST PUSH1 0x0 DUP3 DUP3 MSTORE PUSH1 0x20 DUP3 ADD SWAP1 POP SWAP3 SWAP2 POP POP JUMP JUMPDEST PUSH1 0x0 PUSH2 0x2FD0 DUP3 PUSH2 0x2FA9 JUMP JUMPDEST PUSH2 0x2FDA DUP2 DUP6 PUSH2 0x2FB4 JUMP JUMPDEST SWAP4 POP PUSH2 0x2FEA DUP2 DUP6 PUSH1 0x20 DUP7 ADD PUSH2 0x1F61 JUMP JUMPDEST PUSH2 0x2FF3 DUP2 PUSH2 0x1F8B JUMP JUMPDEST DUP5 ADD SWAP2 POP POP SWAP3 SWAP2 POP POP JUMP JUMPDEST PUSH1 0x0 PUSH1 0x80 DUP3 ADD SWAP1 POP PUSH2 0x3013 PUSH1 0x0 DUP4 ADD DUP8 PUSH2 0x208C JUMP JUMPDEST PUSH2 0x3020 PUSH1 0x20 DUP4 ADD DUP7 PUSH2 0x208C JUMP JUMPDEST PUSH2 0x302D PUSH1 0x40 DUP4 ADD DUP6 PUSH2 0x2333 JUMP JUMPDEST DUP2 DUP2 SUB PUSH1 0x60 DUP4 ADD MSTORE PUSH2 0x303F DUP2 DUP5 PUSH2 0x2FC5 JUMP JUMPDEST SWAP1 POP SWAP6 SWAP5 POP POP POP POP POP JUMP JUMPDEST PUSH1 0x0 DUP2 MLOAD SWAP1 POP PUSH2 0x3059 DUP2 PUSH2 0x1EB6 JUMP JUMPDEST SWAP3 SWAP2 POP POP JUMP JUMPDEST PUSH1 0x0 PUSH1 0x20 DUP3 DUP5 SUB SLT ISZERO PUSH2 0x3075 JUMPI PUSH2 0x3074 PUSH2 0x1E80 JUMP JUMPDEST JUMPDEST PUSH1 0x0 PUSH2 0x3083 DUP5 DUP3 DUP6 ADD PUSH2 0x304A JUMP JUMPDEST SWAP2 POP POP SWAP3 SWAP2 POP POP JUMP JUMPDEST PUSH32 0x4E487B7100000000000000000000000000000000000000000000000000000000 PUSH1 0x0 MSTORE PUSH1 0x12 PUSH1 0x4 MSTORE PUSH1 0x24 PUSH1 0x0 REVERT JUMPDEST PUSH32 0x4552433732313A206D696E7420746F20746865207A65726F2061646472657373 PUSH1 0x0 DUP3 ADD MSTORE POP JUMP JUMPDEST PUSH1 0x0 PUSH2 0x30F1 PUSH1 0x20 DUP4 PUSH2 0x1F50 JUMP JUMPDEST SWAP2 POP PUSH2 0x30FC DUP3 PUSH2 0x30BB JUMP JUMPDEST PUSH1 0x20 DUP3 ADD SWAP1 POP SWAP2 SWAP1 POP JUMP JUMPDEST PUSH1 0x0 PUSH1 0x20 DUP3 ADD SWAP1 POP DUP2 DUP2 SUB PUSH1 0x0 DUP4 ADD MSTORE PUSH2 0x3120 DUP2 PUSH2 0x30E4 JUMP JUMPDEST SWAP1 POP SWAP2 SWAP1 POP JUMP JUMPDEST PUSH32 0x4552433732313A20746F6B656E20616C7265616479206D696E74656400000000 PUSH1 0x0 DUP3 ADD MSTORE POP JUMP JUMPDEST PUSH1 0x0 PUSH2 0x315D PUSH1 0x1C DUP4 PUSH2 0x1F50 JUMP JUMPDEST SWAP2 POP PUSH2 0x3168 DUP3 PUSH2 0x3127 JUMP JUMPDEST PUSH1 0x20 DUP3 ADD SWAP1 POP SWAP2 SWAP1 POP JUMP JUMPDEST PUSH1 0x0 PUSH1 0x20 DUP3 ADD SWAP1 POP DUP2 DUP2 SUB PUSH1 0x0 DUP4 ADD MSTORE PUSH2 0x318C DUP2 PUSH2 0x3150 JUMP JUMPDEST SWAP1 POP SWAP2 SWAP1 POP JUMP INVALID LOG2 PUSH5 0x6970667358 0x22 SLT KECCAK256 DUP6 0x2F GASPRICE SWAP6 EXTCODEHASH NOT DIV SAR 0xD4 0x24 PUSH29 0x2D63DE1D93BF1CB3C61E5FEB296E22A619EF3FF15164736F6C63430008 SHR STOP CALLER "},"methodIdentifiers":{"approve(address,uint256)":"095ea7b3","authorizeMinter(address)":"0c984832","balanceOf(address)":"70a08231","getApproved(uint256)":"081812fc","getTokenURI(uint256)":"3bb3a24d","isApprovedForAll(address,address)":"e985e9c5","mintTicket(address,string)":"5388842c","name()":"06fdde03","owner()":"8da5cb5b","ownerOf(uint256)":"6352211e","renounceOwnership()":"715018a6","safeTransferFrom(address,address,uint256)":"42842e0e","safeTransferFrom(address,address,uint256,bytes)":"b88d4fde","setApprovalForAll(address,bool)":"a22cb465","supportsInterface(bytes4)":"01ffc9a7","symbol()":"95d89b41","tokenURI(uint256)":"c87b56dd","transferFrom(address,address,uint256)":"23b872dd","transferOwnership(address)":"f2fde38b"}}}}}