{
  "_format": "hh-sol-artifact-1",
  "contractName": "EmployeeManagementSystem",
  "sourceName": "contracts/EmployeeManagementSystem.sol",
  "abi": [
    {
      "inputs": [],
      "name": "INVALID_DATA_PASSED",
      "type": "error"
    },
    {
      "inputs": [
        {
          "internalType": "address",
          "name": "employeeAddress",
          "type": "address"
        },
        {
          "internalType": "string",
          "name": "name",
          "type": "string"
        },
        {
          "internalType": "enum EmployeeManagementSystem.Position",
          "name": "role",
          "type": "uint8"
        }
      ],
      "name": "addEmployee",
      "outputs": [],
      "stateMutability": "nonpayable",
      "type": "function"
    },
    {
      "inputs": [
        {
          "internalType": "address",
          "name": "employeeAddress",
          "type": "address"
        }
      ],
      "name": "canAccessGarage",
      "outputs": [
        {
          "internalType": "bool",
          "name": "",
          "type": "bool"
        }
      ],
      "stateMutability": "view",
      "type": "function"
    },
    {
      "inputs": [],
      "name": "getAllEmployees",
      "outputs": [
        {
          "components": [
            {
              "internalType": "string",
              "name": "name",
              "type": "string"
            },
            {
              "internalType": "enum EmployeeManagementSystem.Position",
              "name": "role",
              "type": "uint8"
            },
            {
              "internalType": "bool",
              "name": "isEmployed",
              "type": "bool"
            },
            {
              "internalType": "address",
              "name": "employeeAddress",
              "type": "address"
            }
          ],
          "internalType": "struct EmployeeManagementSystem.Employee[]",
          "name": "",
          "type": "tuple[]"
        }
      ],
      "stateMutability": "view",
      "type": "function"
    },
    {
      "inputs": [
        {
          "internalType": "address",
          "name": "employeeAddress",
          "type": "address"
        }
      ],
      "name": "getEmployeeByAddress",
      "outputs": [
        {
          "components": [
            {
              "internalType": "string",
              "name": "name",
              "type": "string"
            },
            {
              "internalType": "enum EmployeeManagementSystem.Position",
              "name": "role",
              "type": "uint8"
            },
            {
              "internalType": "bool",
              "name": "isEmployed",
              "type": "bool"
            },
            {
              "internalType": "address",
              "name": "employeeAddress",
              "type": "address"
            }
          ],
          "internalType": "struct EmployeeManagementSystem.Employee",
          "name": "",
          "type": "tuple"
        }
      ],
      "stateMutability": "view",
      "type": "function"
    },
    {
      "inputs": [
        {
          "internalType": "address",
          "name": "employeeAddress",
          "type": "address"
        }
      ],
      "name": "toggleEmploymentStatus",
      "outputs": [],
      "stateMutability": "nonpayable",
      "type": "function"
    },
    {
      "inputs": [
        {
          "internalType": "address",
          "name": "employeeAddress",
          "type": "address"
        },
        {
          "internalType": "enum EmployeeManagementSystem.Position",
          "name": "role",
          "type": "uint8"
        },
        {
          "internalType": "string",
          "name": "name",
          "type": "string"
        }
      ],
      "name": "updateEmployeeData",
      "outputs": [],
      "stateMutability": "nonpayable",
      "type": "function"
    },
    {
      "inputs": [
        {
          "internalType": "address",
          "name": "employeeAddress",
          "type": "address"
        },
        {
          "internalType": "enum EmployeeManagementSystem.Position",
          "name": "role",
          "type": "uint8"
        }
      ],
      "name": "updateEmployeeRole",
      "outputs": [],
      "stateMutability": "nonpayable",
      "type": "function"
    },
    {
      "inputs": [
        {
          "internalType": "address",
          "name": "employeeAddress",
          "type": "address"
        },
        {
          "internalType": "string",
          "name": "name",
          "type": "string"
        }
      ],
      "name": "updateEmployees",
      "outputs": [],
      "stateMutability": "nonpayable",
      "type": "function"
    }
  ],
  "bytecode": "0x6080604052348015600f57600080fd5b50611a978061001f6000396000f3fe608060405234801561001057600080fd5b50600436106100885760003560e01c80637c6813971161005b5780637c68139714610111578063b24e34c81461012d578063e3366fed1461015d578063fb088a281461017b57610088565b80630615477d1461008d5780630a65d471146100bd57806335604c94146100d957806336227b82146100f5575b600080fd5b6100a760048036038101906100a29190611122565b610197565b6040516100b491906112e3565b60405180910390f35b6100d760048036038101906100d2919061132a565b6103df565b005b6100f360048036038101906100ee919061149f565b610567565b005b61010f600480360381019061010a9190611122565b6106bb565b005b61012b600480360381019061012691906114fb565b61085b565b005b61014760048036038101906101429190611122565b610a66565b6040516101549190611579565b60405180910390f35b610165610c66565b60405161017291906116b9565b60405180910390f35b610195600480360381019061019091906116db565b610e03565b005b61019f61105e565b60005b6001805490508110156103a7578273ffffffffffffffffffffffffffffffffffffffff16600182815481106101da576101d961174a565b5b906000526020600020906002020160010160029054906101000a900473ffffffffffffffffffffffffffffffffffffffff1673ffffffffffffffffffffffffffffffffffffffff160361039a576001818154811061023b5761023a61174a565b5b9060005260206000209060020201604051806080016040529081600082018054610264906117a8565b80601f0160208091040260200160405190810160405280929190818152602001828054610290906117a8565b80156102dd5780601f106102b2576101008083540402835291602001916102dd565b820191906000526020600020905b8154815290600101906020018083116102c057829003601f168201915b505050505081526020016001820160009054906101000a900460ff16600581111561030b5761030a6111df565b5b600581111561031d5761031c6111df565b5b81526020016001820160019054906101000a900460ff161515151581526020016001820160029054906101000a900473ffffffffffffffffffffffffffffffffffffffff1673ffffffffffffffffffffffffffffffffffffffff1673ffffffffffffffffffffffffffffffffffffffff16815250509150506103da565b80806001019150506101a2565b506040517f118a8e9d00000000000000000000000000000000000000000000000000000000815260040160405180910390fd5b919050565b60005b600180549050811015610530578273ffffffffffffffffffffffffffffffffffffffff166001828154811061041a5761041961174a565b5b906000526020600020906002020160010160029054906101000a900473ffffffffffffffffffffffffffffffffffffffff1673ffffffffffffffffffffffffffffffffffffffff160361052357816001828154811061047c5761047b61174a565b5b906000526020600020906002020160010160006101000a81548160ff021916908360058111156104af576104ae6111df565b5b0217905550816000808573ffffffffffffffffffffffffffffffffffffffff1673ffffffffffffffffffffffffffffffffffffffff16815260200190815260200160002060010160006101000a81548160ff02191690836005811115610518576105176111df565b5b021790555050610563565b80806001019150506103e2565b506040517f118a8e9d00000000000000000000000000000000000000000000000000000000815260040160405180910390fd5b5050565b60005b600180549050811015610684578273ffffffffffffffffffffffffffffffffffffffff16600182815481106105a2576105a161174a565b5b906000526020600020906002020160010160029054906101000a900473ffffffffffffffffffffffffffffffffffffffff1673ffffffffffffffffffffffffffffffffffffffff16036106775781600182815481106106045761060361174a565b5b90600052602060002090600202016000019081610621919061198f565b50816000808573ffffffffffffffffffffffffffffffffffffffff1673ffffffffffffffffffffffffffffffffffffffff1681526020019081526020016000206000019081610670919061198f565b50506106b7565b808060010191505061056a565b506040517f118a8e9d00000000000000000000000000000000000000000000000000000000815260040160405180910390fd5b5050565b60005b600180549050811015610825578173ffffffffffffffffffffffffffffffffffffffff16600182815481106106f6576106f561174a565b5b906000526020600020906002020160010160029054906101000a900473ffffffffffffffffffffffffffffffffffffffff1673ffffffffffffffffffffffffffffffffffffffff1603610818576000600182815481106107595761075861174a565b5b906000526020600020906002020160010160019054906101000a900460ff1615905080600183815481106107905761078f61174a565b5b906000526020600020906002020160010160016101000a81548160ff021916908315150217905550806000808573ffffffffffffffffffffffffffffffffffffffff1673ffffffffffffffffffffffffffffffffffffffff16815260200190815260200160002060010160016101000a81548160ff0219169083151502179055505050610858565b80806001019150506106be565b506040517f118a8e9d00000000000000000000000000000000000000000000000000000000815260040160405180910390fd5b50565b60005b600180549050811015610a2e578373ffffffffffffffffffffffffffffffffffffffff16600182815481106108965761089561174a565b5b906000526020600020906002020160010160029054906101000a900473ffffffffffffffffffffffffffffffffffffffff1673ffffffffffffffffffffffffffffffffffffffff1603610a215782600182815481106108f8576108f761174a565b5b906000526020600020906002020160010160006101000a81548160ff0219169083600581111561092b5761092a6111df565b5b021790555081600182815481106109455761094461174a565b5b90600052602060002090600202016000019081610962919061198f565b50826000808673ffffffffffffffffffffffffffffffffffffffff1673ffffffffffffffffffffffffffffffffffffffff16815260200190815260200160002060010160006101000a81548160ff021916908360058111156109c7576109c66111df565b5b0217905550816000808673ffffffffffffffffffffffffffffffffffffffff1673ffffffffffffffffffffffffffffffffffffffff1681526020019081526020016000206000019081610a1a919061198f565b5050610a61565b808060010191505061085e565b506040517f118a8e9d00000000000000000000000000000000000000000000000000000000815260040160405180910390fd5b505050565b6000805b600180549050811015610c5b578273ffffffffffffffffffffffffffffffffffffffff1660018281548110610aa257610aa161174a565b5b906000526020600020906002020160010160029054906101000a900473ffffffffffffffffffffffffffffffffffffffff1673ffffffffffffffffffffffffffffffffffffffff1603610c4e5760018181548110610b0357610b0261174a565b5b906000526020600020906002020160010160019054906101000a900460ff168015610c46575060006005811115610b3d57610b3c6111df565b5b60018281548110610b5157610b5061174a565b5b906000526020600020906002020160010160009054906101000a900460ff166005811115610b8257610b816111df565b5b1480610be4575060016005811115610b9d57610b9c6111df565b5b60018281548110610bb157610bb061174a565b5b906000526020600020906002020160010160009054906101000a900460ff166005811115610be257610be16111df565b5b145b80610c45575060026005811115610bfe57610bfd6111df565b5b60018281548110610c1257610c1161174a565b5b906000526020600020906002020160010160009054906101000a900460ff166005811115610c4357610c426111df565b5b145b5b915050610c61565b8080600101915050610a6a565b50600090505b919050565b60606001805480602002602001604051908101604052809291908181526020016000905b82821015610dfa5783829060005260206000209060020201604051806080016040529081600082018054610cbd906117a8565b80601f0160208091040260200160405190810160405280929190818152602001828054610ce9906117a8565b8015610d365780601f10610d0b57610100808354040283529160200191610d36565b820191906000526020600020905b815481529060010190602001808311610d1957829003601f168201915b505050505081526020016001820160009054906101000a900460ff166005811115610d6457610d636111df565b5b6005811115610d7657610d756111df565b5b81526020016001820160019054906101000a900460ff161515151581526020016001820160029054906101000a900473ffffffffffffffffffffffffffffffffffffffff1673ffffffffffffffffffffffffffffffffffffffff1673ffffffffffffffffffffffffffffffffffffffff168152505081526020019060010190610c8a565b50505050905090565b6000825111610e3e576040517f118a8e9d00000000000000000000000000000000000000000000000000000000815260040160405180910390fd5b60006040518060800160405280848152602001836005811115610e6457610e636111df565b5b81526020016001151581526020018573ffffffffffffffffffffffffffffffffffffffff168152509050806000808673ffffffffffffffffffffffffffffffffffffffff1673ffffffffffffffffffffffffffffffffffffffff1681526020019081526020016000206000820151816000019081610ee2919061198f565b5060208201518160010160006101000a81548160ff02191690836005811115610f0e57610f0d6111df565b5b021790555060408201518160010160016101000a81548160ff02191690831515021790555060608201518160010160026101000a81548173ffffffffffffffffffffffffffffffffffffffff021916908373ffffffffffffffffffffffffffffffffffffffff16021790555090505060018190806001815401808255809150506001900390600052602060002090600202016000909190919091506000820151816000019081610fbe919061198f565b5060208201518160010160006101000a81548160ff02191690836005811115610fea57610fe96111df565b5b021790555060408201518160010160016101000a81548160ff02191690831515021790555060608201518160010160026101000a81548173ffffffffffffffffffffffffffffffffffffffff021916908373ffffffffffffffffffffffffffffffffffffffff160217905550505050505050565b60405180608001604052806060815260200160006005811115611084576110836111df565b5b8152602001600015158152602001600073ffffffffffffffffffffffffffffffffffffffff1681525090565b6000604051905090565b600080fd5b600080fd5b600073ffffffffffffffffffffffffffffffffffffffff82169050919050565b60006110ef826110c4565b9050919050565b6110ff816110e4565b811461110a57600080fd5b50565b60008135905061111c816110f6565b92915050565b600060208284031215611138576111376110ba565b5b60006111468482850161110d565b91505092915050565b600081519050919050565b600082825260208201905092915050565b60005b8381101561118957808201518184015260208101905061116e565b60008484015250505050565b6000601f19601f8301169050919050565b60006111b18261114f565b6111bb818561115a565b93506111cb81856020860161116b565b6111d481611195565b840191505092915050565b7f4e487b7100000000000000000000000000000000000000000000000000000000600052602160045260246000fd5b6006811061121f5761121e6111df565b5b50565b60008190506112308261120e565b919050565b600061124082611222565b9050919050565b61125081611235565b82525050565b60008115159050919050565b61126b81611256565b82525050565b61127a816110e4565b82525050565b6000608083016000830151848203600086015261129d82826111a6565b91505060208301516112b26020860182611247565b5060408301516112c56040860182611262565b5060608301516112d86060860182611271565b508091505092915050565b600060208201905081810360008301526112fd8184611280565b905092915050565b6006811061131257600080fd5b50565b60008135905061132481611305565b92915050565b60008060408385031215611341576113406110ba565b5b600061134f8582860161110d565b925050602061136085828601611315565b9150509250929050565b600080fd5b600080fd5b7f4e487b7100000000000000000000000000000000000000000000000000000000600052604160045260246000fd5b6113ac82611195565b810181811067ffffffffffffffff821117156113cb576113ca611374565b5b80604052505050565b60006113de6110b0565b90506113ea82826113a3565b919050565b600067ffffffffffffffff82111561140a57611409611374565b5b61141382611195565b9050602081019050919050565b82818337600083830152505050565b600061144261143d846113ef565b6113d4565b90508281526020810184848401111561145e5761145d61136f565b5b611469848285611420565b509392505050565b600082601f8301126114865761148561136a565b5b813561149684826020860161142f565b91505092915050565b600080604083850312156114b6576114b56110ba565b5b60006114c48582860161110d565b925050602083013567ffffffffffffffff8111156114e5576114e46110bf565b5b6114f185828601611471565b9150509250929050565b600080600060608486031215611514576115136110ba565b5b60006115228682870161110d565b935050602061153386828701611315565b925050604084013567ffffffffffffffff811115611554576115536110bf565b5b61156086828701611471565b9150509250925092565b61157381611256565b82525050565b600060208201905061158e600083018461156a565b92915050565b600081519050919050565b600082825260208201905092915050565b6000819050602082019050919050565b600060808301600083015184820360008601526115dd82826111a6565b91505060208301516115f26020860182611247565b5060408301516116056040860182611262565b5060608301516116186060860182611271565b508091505092915050565b600061162f83836115c0565b905092915050565b6000602082019050919050565b600061164f82611594565b611659818561159f565b93508360208202850161166b856115b0565b8060005b858110156116a757848403895281516116888582611623565b945061169383611637565b925060208a0199505060018101905061166f565b50829750879550505050505092915050565b600060208201905081810360008301526116d38184611644565b905092915050565b6000806000606084860312156116f4576116f36110ba565b5b60006117028682870161110d565b935050602084013567ffffffffffffffff811115611723576117226110bf565b5b61172f86828701611471565b925050604061174086828701611315565b9150509250925092565b7f4e487b7100000000000000000000000000000000000000000000000000000000600052603260045260246000fd5b7f4e487b7100000000000000000000000000000000000000000000000000000000600052602260045260246000fd5b600060028204905060018216806117c057607f821691505b6020821081036117d3576117d2611779565b5b50919050565b60008190508160005260206000209050919050565b60006020601f8301049050919050565b600082821b905092915050565b60006008830261183b7fffffffffffffffffffffffffffffffffffffffffffffffffffffffffffffffff826117fe565b61184586836117fe565b95508019841693508086168417925050509392505050565b6000819050919050565b6000819050919050565b600061188c6118876118828461185d565b611867565b61185d565b9050919050565b6000819050919050565b6118a683611871565b6118ba6118b282611893565b84845461180b565b825550505050565b600090565b6118cf6118c2565b6118da81848461189d565b505050565b5b818110156118fe576118f36000826118c7565b6001810190506118e0565b5050565b601f82111561194357611914816117d9565b61191d846117ee565b8101602085101561192c578190505b611940611938856117ee565b8301826118df565b50505b505050565b600082821c905092915050565b600061196660001984600802611948565b1980831691505092915050565b600061197f8383611955565b9150826002028217905092915050565b6119988261114f565b67ffffffffffffffff8111156119b1576119b0611374565b5b6119bb82546117a8565b6119c6828285611902565b600060209050601f8311600181146119f957600084156119e7578287015190505b6119f18582611973565b865550611a59565b601f198416611a07866117d9565b60005b82811015611a2f57848901518255600182019150602085019450602081019050611a0a565b86831015611a4c5784890151611a48601f891682611955565b8355505b6001600288020188555050505b50505050505056fea2646970667358221220c1e2dc20aee85baa00294b7507a6507e7f68ea81dc19b66cf2e37d06e123493464736f6c634300081e0033",
  "linkReferences": {},
  "deployedLinkReferences": {}
}