{
  "_format": "hh3-artifact-1",
  "contractName": "LootBox",
  "sourceName": "contracts/LootBox.sol",
  "abi": [
    {
      "inputs": [
        {
          "internalType": "uint256",
          "name": "_boxFee",
          "type": "uint256"
        },
        {
          "internalType": "address",
          "name": "_vrfCoordinator",
          "type": "address"
        },
        {
          "internalType": "bytes32",
          "name": "_keyHash",
          "type": "bytes32"
        },
        {
          "internalType": "uint64",
          "name": "_subscriptionId",
          "type": "uint64"
        }
      ],
      "stateMutability": "nonpayable",
      "type": "constructor"
    },
    {
      "inputs": [
        {
          "internalType": "address",
          "name": "have",
          "type": "address"
        },
        {
          "internalType": "address",
          "name": "want",
          "type": "address"
        }
      ],
      "name": "OnlyCoordinatorCanFulfill",
      "type": "error"
    },
    {
      "inputs": [
        {
          "internalType": "address",
          "name": "owner",
          "type": "address"
        }
      ],
      "name": "OwnableInvalidOwner",
      "type": "error"
    },
    {
      "inputs": [
        {
          "internalType": "address",
          "name": "account",
          "type": "address"
        }
      ],
      "name": "OwnableUnauthorizedAccount",
      "type": "error"
    },
    {
      "anonymous": false,
      "inputs": [
        {
          "indexed": true,
          "internalType": "address",
          "name": "user",
          "type": "address"
        },
        {
          "indexed": false,
          "internalType": "uint256",
          "name": "requestId",
          "type": "uint256"
        }
      ],
      "name": "BoxOpened",
      "type": "event"
    },
    {
      "anonymous": false,
      "inputs": [
        {
          "indexed": true,
          "internalType": "address",
          "name": "previousOwner",
          "type": "address"
        },
        {
          "indexed": true,
          "internalType": "address",
          "name": "newOwner",
          "type": "address"
        }
      ],
      "name": "OwnershipTransferred",
      "type": "event"
    },
    {
      "anonymous": false,
      "inputs": [
        {
          "indexed": false,
          "internalType": "uint256",
          "name": "requestId",
          "type": "uint256"
        }
      ],
      "name": "RandomnessRequested",
      "type": "event"
    },
    {
      "anonymous": false,
      "inputs": [
        {
          "indexed": true,
          "internalType": "address",
          "name": "user",
          "type": "address"
        },
        {
          "indexed": false,
          "internalType": "uint8",
          "name": "rewardType",
          "type": "uint8"
        },
        {
          "indexed": false,
          "internalType": "address",
          "name": "tokenAddress",
          "type": "address"
        },
        {
          "indexed": false,
          "internalType": "uint256",
          "name": "amountOrId",
          "type": "uint256"
        }
      ],
      "name": "RewardDistributed",
      "type": "event"
    },
    {
      "inputs": [
        {
          "internalType": "uint8",
          "name": "rewardType",
          "type": "uint8"
        },
        {
          "internalType": "address",
          "name": "tokenAddress",
          "type": "address"
        },
        {
          "internalType": "uint256",
          "name": "amountOrId",
          "type": "uint256"
        },
        {
          "internalType": "uint256",
          "name": "weight",
          "type": "uint256"
        }
      ],
      "name": "addReward",
      "outputs": [],
      "stateMutability": "nonpayable",
      "type": "function"
    },
    {
      "inputs": [],
      "name": "boxFee",
      "outputs": [
        {
          "internalType": "uint256",
          "name": "",
          "type": "uint256"
        }
      ],
      "stateMutability": "view",
      "type": "function"
    },
    {
      "inputs": [],
      "name": "callbackGasLimit",
      "outputs": [
        {
          "internalType": "uint32",
          "name": "",
          "type": "uint32"
        }
      ],
      "stateMutability": "view",
      "type": "function"
    },
    {
      "inputs": [],
      "name": "keyHash",
      "outputs": [
        {
          "internalType": "bytes32",
          "name": "",
          "type": "bytes32"
        }
      ],
      "stateMutability": "view",
      "type": "function"
    },
    {
      "inputs": [],
      "name": "numWords",
      "outputs": [
        {
          "internalType": "uint32",
          "name": "",
          "type": "uint32"
        }
      ],
      "stateMutability": "view",
      "type": "function"
    },
    {
      "inputs": [
        {
          "internalType": "address",
          "name": "",
          "type": "address"
        },
        {
          "internalType": "address",
          "name": "",
          "type": "address"
        },
        {
          "internalType": "uint256[]",
          "name": "",
          "type": "uint256[]"
        },
        {
          "internalType": "uint256[]",
          "name": "",
          "type": "uint256[]"
        },
        {
          "internalType": "bytes",
          "name": "",
          "type": "bytes"
        }
      ],
      "name": "onERC1155BatchReceived",
      "outputs": [
        {
          "internalType": "bytes4",
          "name": "",
          "type": "bytes4"
        }
      ],
      "stateMutability": "pure",
      "type": "function"
    },
    {
      "inputs": [
        {
          "internalType": "address",
          "name": "",
          "type": "address"
        },
        {
          "internalType": "address",
          "name": "",
          "type": "address"
        },
        {
          "internalType": "uint256",
          "name": "",
          "type": "uint256"
        },
        {
          "internalType": "uint256",
          "name": "",
          "type": "uint256"
        },
        {
          "internalType": "bytes",
          "name": "",
          "type": "bytes"
        }
      ],
      "name": "onERC1155Received",
      "outputs": [
        {
          "internalType": "bytes4",
          "name": "",
          "type": "bytes4"
        }
      ],
      "stateMutability": "pure",
      "type": "function"
    },
    {
      "inputs": [],
      "name": "openBox",
      "outputs": [],
      "stateMutability": "payable",
      "type": "function"
    },
    {
      "inputs": [],
      "name": "owner",
      "outputs": [
        {
          "internalType": "address",
          "name": "",
          "type": "address"
        }
      ],
      "stateMutability": "view",
      "type": "function"
    },
    {
      "inputs": [
        {
          "internalType": "uint256",
          "name": "requestId",
          "type": "uint256"
        },
        {
          "internalType": "uint256[]",
          "name": "randomWords",
          "type": "uint256[]"
        }
      ],
      "name": "rawFulfillRandomWords",
      "outputs": [],
      "stateMutability": "nonpayable",
      "type": "function"
    },
    {
      "inputs": [],
      "name": "renounceOwnership",
      "outputs": [],
      "stateMutability": "nonpayable",
      "type": "function"
    },
    {
      "inputs": [],
      "name": "requestConfirmations",
      "outputs": [
        {
          "internalType": "uint16",
          "name": "",
          "type": "uint16"
        }
      ],
      "stateMutability": "view",
      "type": "function"
    },
    {
      "inputs": [
        {
          "internalType": "uint256",
          "name": "",
          "type": "uint256"
        }
      ],
      "name": "requestIdToUser",
      "outputs": [
        {
          "internalType": "address",
          "name": "",
          "type": "address"
        }
      ],
      "stateMutability": "view",
      "type": "function"
    },
    {
      "inputs": [
        {
          "internalType": "uint256",
          "name": "",
          "type": "uint256"
        }
      ],
      "name": "rewards",
      "outputs": [
        {
          "internalType": "uint8",
          "name": "rewardType",
          "type": "uint8"
        },
        {
          "internalType": "address",
          "name": "tokenAddress",
          "type": "address"
        },
        {
          "internalType": "uint256",
          "name": "amountOrId",
          "type": "uint256"
        },
        {
          "internalType": "uint256",
          "name": "weight",
          "type": "uint256"
        }
      ],
      "stateMutability": "view",
      "type": "function"
    },
    {
      "inputs": [],
      "name": "subscriptionId",
      "outputs": [
        {
          "internalType": "uint64",
          "name": "",
          "type": "uint64"
        }
      ],
      "stateMutability": "view",
      "type": "function"
    },
    {
      "inputs": [
        {
          "internalType": "bytes4",
          "name": "interfaceId",
          "type": "bytes4"
        }
      ],
      "name": "supportsInterface",
      "outputs": [
        {
          "internalType": "bool",
          "name": "",
          "type": "bool"
        }
      ],
      "stateMutability": "view",
      "type": "function"
    },
    {
      "inputs": [],
      "name": "totalWeight",
      "outputs": [
        {
          "internalType": "uint256",
          "name": "",
          "type": "uint256"
        }
      ],
      "stateMutability": "view",
      "type": "function"
    },
    {
      "inputs": [
        {
          "internalType": "address",
          "name": "newOwner",
          "type": "address"
        }
      ],
      "name": "transferOwnership",
      "outputs": [],
      "stateMutability": "nonpayable",
      "type": "function"
    },
    {
      "inputs": [],
      "name": "vrfCoordinator",
      "outputs": [
        {
          "internalType": "address",
          "name": "",
          "type": "address"
        }
      ],
      "stateMutability": "view",
      "type": "function"
    },
    {
      "inputs": [],
      "name": "withdrawFees",
      "outputs": [],
      "stateMutability": "nonpayable",
      "type": "function"
    }
  ],
  "bytecode": "0x60a060405260048054600160401b600160901b0319166e010003000186a00000000000000000179055348015610033575f80fd5b5060405161138c38038061138c8339810160408190526100529161012b565b6001600160a01b038316608052338061008457604051631e4fbdf760e01b81525f600482015260240160405180910390fd5b61008d816100dc565b50600193909355600280546001600160a01b0319166001600160a01b039390931692909217909155600355600480546001600160401b0319166001600160401b0390921691909117905561018a565b5f80546001600160a01b038381166001600160a01b0319831681178455604051919092169283917f8be0079c531659141344cd1fd0a4f28419497f9722a3daafe3b4186f6b6457e09190a35050565b5f805f806080858703121561013e575f80fd5b845160208601519094506001600160a01b038116811461015c575f80fd5b6040860151606087015191945092506001600160401b038116811461017f575f80fd5b939692955090935050565b6080516111e36101a95f395f818161047901526104bb01526111e35ff3fe60806040526004361061011b575f3560e01c80638da5cb5b1161009d578063c2e952c711610062578063c2e952c714610366578063dc7d73bb1461036e578063f23a6e61146103a2578063f2fde38b146103ce578063f301af42146103ed575f80fd5b80638da5cb5b1461028757806396c82e57146102b7578063a3e56fa8146102cc578063b0fb162f146102eb578063bc197c811461031f575f80fd5b806332d84e9d116100e357806332d84e9d14610208578063476343ee1461022757806361728f391461023b578063715018a6146102505780637ccfd7fc14610264575f80fd5b806301ffc9a71461011f57806309c1ba2e146101535780630a1053fb1461018c5780631fe543e3146101af57806324f74697146101d0575b5f80fd5b34801561012a575f80fd5b5061013e610139366004610de1565b610438565b60405190151581526020015b60405180910390f35b34801561015e575f80fd5b506004546101739067ffffffffffffffff1681565b60405167ffffffffffffffff909116815260200161014a565b348015610197575f80fd5b506101a160015481565b60405190815260200161014a565b3480156101ba575f80fd5b506101ce6101c9366004610e23565b61046e565b005b3480156101db575f80fd5b506004546101f390600160401b900463ffffffff1681565b60405163ffffffff909116815260200161014a565b348015610213575f80fd5b506101ce610222366004610f03565b6104fb565b348015610232575f80fd5b506101ce6105fd565b348015610246575f80fd5b506101a160035481565b34801561025b575f80fd5b506101ce61063f565b34801561026f575f80fd5b506004546101f390600160701b900463ffffffff1681565b348015610292575f80fd5b505f546001600160a01b03165b6040516001600160a01b03909116815260200161014a565b3480156102c2575f80fd5b506101a160065481565b3480156102d7575f80fd5b5060025461029f906001600160a01b031681565b3480156102f6575f80fd5b5060045461030c90600160601b900461ffff1681565b60405161ffff909116815260200161014a565b34801561032a575f80fd5b5061034d610339366004610fcf565b63bc197c8160e01b98975050505050505050565b6040516001600160e01b0319909116815260200161014a565b6101ce610652565b348015610379575f80fd5b5061029f610388366004611082565b60076020525f90815260409020546001600160a01b031681565b3480156103ad575f80fd5b5061034d6103bc366004611099565b63f23a6e6160e01b9695505050505050565b3480156103d9575f80fd5b506101ce6103e836600461110c565b6106fe565b3480156103f8575f80fd5b5061040c610407366004611082565b610738565b6040805160ff90951685526001600160a01b03909316602085015291830152606082015260800161014a565b5f6001600160e01b03198216630271189760e51b148061046857506001600160e01b031982166301ffc9a760e01b145b92915050565b336001600160a01b037f000000000000000000000000000000000000000000000000000000000000000016146104ed5760405163073e64fd60e21b81523360048201526001600160a01b037f00000000000000000000000000000000000000000000000000000000000000001660248201526044015b60405180910390fd5b6104f7828261077d565b5050565b610503610c6c565b6040805160808101825260ff80871682526001600160a01b038087166020840190815293830186815260608401868152600580546001810182555f918252955160039096027f036b6384b5eca791c62761152d0c79bb0604c104a5fb6f4eb0703f3154bb3db0810180549851909516610100026001600160a81b0319909816969095169590951795909517909155517f036b6384b5eca791c62761152d0c79bb0604c104a5fb6f4eb0703f3154bb3db182015591517f036b6384b5eca791c62761152d0c79bb0604c104a5fb6f4eb0703f3154bb3db290920191909155600680548392906105f2908490611125565b909155505050505050565b610605610c6c565b5f80546040516001600160a01b03909116914780156108fc02929091818181858888f1935050505015801561063c573d5f803e3d5ffd5b50565b610647610c6c565b6106505f610c98565b565b60015434146106935760405162461bcd60e51b815260206004820152600d60248201526c496e636f72726563742066656560981b60448201526064016104e4565b5f61069c610ce7565b5f818152600760205260409081902080546001600160a01b031916339081179091559051919250907fb73d415d4554d9bc64f3fadea1d75caaeb0f4db5b74538b5e5dcbce2660e6240906106f39084815260200190565b60405180910390a250565b610706610c6c565b6001600160a01b03811661072f57604051631e4fbdf760e01b81525f60048201526024016104e4565b61063c81610c98565b60058181548110610747575f80fd5b5f91825260209091206003909102018054600182015460029092015460ff821693506101009091046001600160a01b0316919084565b5f828152600760205260409020546001600160a01b0316806107d35760405162461bcd60e51b815260206004820152600f60248201526e125b9d985b1a59081c995c5d595cdd608a1b60448201526064016104e4565b5f600654835f815181106107e9576107e9611144565b60200260200101516107fb9190611158565b90505f805b600554811015610c4a576005818154811061081d5761081d611144565b905f5260205f20906003020160020154826108389190611125565b915081831015610c42576005818154811061085557610855611144565b5f918252602082206003909102015460ff169003610949576005818154811061088057610880611144565b905f5260205f2090600302015f0160019054906101000a90046001600160a01b03166001600160a01b031663a9059cbb85600584815481106108c4576108c4611144565b5f9182526020909120600160039092020101546040516001600160e01b031960e085901b1681526001600160a01b03909216600483015260248201526044016020604051808303815f875af115801561091f573d5f803e3d5ffd5b505050506040513d601f19601f820116820180604052508101906109439190611177565b50610b5a565b6005818154811061095c5761095c611144565b5f91825260209091206003909102015460ff16600103610a48576005818154811061098957610989611144565b905f5260205f2090600302015f0160019054906101000a90046001600160a01b03166001600160a01b03166342842e0e3086600585815481106109ce576109ce611144565b5f9182526020909120600160039092020101546040516001600160e01b031960e086901b1681526001600160a01b03938416600482015292909116602483015260448201526064015f604051808303815f87803b158015610a2d575f80fd5b505af1158015610a3f573d5f803e3d5ffd5b50505050610b5a565b60058181548110610a5b57610a5b611144565b5f91825260209091206003909102015460ff16600203610b5a5760058181548110610a8857610a88611144565b905f5260205f2090600302015f0160019054906101000a90046001600160a01b03166001600160a01b031663f242432a308660058581548110610acd57610acd611144565b5f9182526020822060016003909202018101546040516001600160e01b031960e088901b1681526001600160a01b0395861660048201529490931660248501526044840192909252606483019190915260a0608483015260a482015260c4015f604051808303815f87803b158015610b43575f80fd5b505af1158015610b55573d5f803e3d5ffd5b505050505b836001600160a01b03167f27830ebd275b8627079374e94cea696b0122b2bf0308e2d5f800141841ca465360058381548110610b9857610b98611144565b5f9182526020909120600390910201546005805460ff9092169185908110610bc257610bc2611144565b905f5260205f2090600302015f0160019054906101000a90046001600160a01b031660058581548110610bf757610bf7611144565b905f5260205f20906003020160010154604051610c359392919060ff9390931683526001600160a01b03919091166020830152604082015260600190565b60405180910390a2610c4a565b600101610800565b5050505f928352505060076020526040902080546001600160a01b0319169055565b5f546001600160a01b031633146106505760405163118cdaa760e01b81523360048201526024016104e4565b5f80546001600160a01b038381166001600160a01b0319831681178455604051919092169283917f8be0079c531659141344cd1fd0a4f28419497f9722a3daafe3b4186f6b6457e09190a35050565b600254600354600480546040516305d3b1d360e41b81529182019290925267ffffffffffffffff8216602482015261ffff600160601b830416604482015263ffffffff600160401b830481166064830152600160701b90920490911660848201525f9182916001600160a01b0390911690635d3b1d309060a4016020604051808303815f875af1158015610d7d573d5f803e3d5ffd5b505050506040513d601f19601f82011682018060405250810190610da19190611196565b90507f9ac10fb18c93d33ad7b0a941897aef048d0f8d30756684e82b4552ba12764d4581604051610dd491815260200190565b60405180910390a1919050565b5f60208284031215610df1575f80fd5b81356001600160e01b031981168114610e08575f80fd5b9392505050565b634e487b7160e01b5f52604160045260245ffd5b5f8060408385031215610e34575f80fd5b8235915060208084013567ffffffffffffffff80821115610e53575f80fd5b818601915086601f830112610e66575f80fd5b813581811115610e7857610e78610e0f565b8060051b604051601f19603f83011681018181108582111715610e9d57610e9d610e0f565b604052918252848201925083810185019189831115610eba575f80fd5b938501935b82851015610ed857843584529385019392850192610ebf565b8096505050505050509250929050565b80356001600160a01b0381168114610efe575f80fd5b919050565b5f805f8060808587031215610f16575f80fd5b843560ff81168114610f26575f80fd5b9350610f3460208601610ee8565b93969395505050506040820135916060013590565b5f8083601f840112610f59575f80fd5b50813567ffffffffffffffff811115610f70575f80fd5b6020830191508360208260051b8501011115610f8a575f80fd5b9250929050565b5f8083601f840112610fa1575f80fd5b50813567ffffffffffffffff811115610fb8575f80fd5b602083019150836020828501011115610f8a575f80fd5b5f805f805f805f8060a0898b031215610fe6575f80fd5b610fef89610ee8565b9750610ffd60208a01610ee8565b9650604089013567ffffffffffffffff80821115611019575f80fd5b6110258c838d01610f49565b909850965060608b013591508082111561103d575f80fd5b6110498c838d01610f49565b909650945060808b0135915080821115611061575f80fd5b5061106e8b828c01610f91565b999c989b5096995094979396929594505050565b5f60208284031215611092575f80fd5b5035919050565b5f805f805f8060a087890312156110ae575f80fd5b6110b787610ee8565b95506110c560208801610ee8565b94506040870135935060608701359250608087013567ffffffffffffffff8111156110ee575f80fd5b6110fa89828a01610f91565b979a9699509497509295939492505050565b5f6020828403121561111c575f80fd5b610e0882610ee8565b8082018082111561046857634e487b7160e01b5f52601160045260245ffd5b634e487b7160e01b5f52603260045260245ffd5b5f8261117257634e487b7160e01b5f52601260045260245ffd5b500690565b5f60208284031215611187575f80fd5b81518015158114610e08575f80fd5b5f602082840312156111a6575f80fd5b505191905056fea26469706673582212201581bcb13ada2b7e74a35f7580a1b34315a5402f7fbb2870654ee2ea67eb9d7464736f6c63430008180033",
  "linkReferences": {},
  "deployedLinkReferences": {},
  "immutableReferences": {
    "10": [
      {
        "length": 32,
        "start": 1145
      },
      {
        "length": 32,
        "start": 1211
      }
    ]
  },
  "inputSourceName": "project/contracts/LootBox.sol",
  "buildInfoId": "solc-0_8_24-6ff41214f48b94aada91c987ce8c36544604a95c"
}