{
  "_format": "hh-sol-artifact-1",
  "contractName": "SchoolManagementSystem",
  "sourceName": "contracts/SchoolManagementSystem.sol",
  "abi": [
    {
      "inputs": [
        {
          "internalType": "string",
          "name": "reason",
          "type": "string"
        }
      ],
      "name": "INVALID_INPUT",
      "type": "error"
    },
    {
      "inputs": [
        {
          "internalType": "string",
          "name": "reason",
          "type": "string"
        }
      ],
      "name": "STUDENT_ALREADY_EXISTS",
      "type": "error"
    },
    {
      "inputs": [
        {
          "internalType": "string",
          "name": "reason",
          "type": "string"
        }
      ],
      "name": "STUDENT_NOT_FOUND",
      "type": "error"
    },
    {
      "inputs": [
        {
          "internalType": "string",
          "name": "reason",
          "type": "string"
        }
      ],
      "name": "UNAUTHORIZED_ACCESS",
      "type": "error"
    },
    {
      "inputs": [
        {
          "internalType": "address",
          "name": "_studentAddress",
          "type": "address"
        }
      ],
      "name": "delete_student",
      "outputs": [],
      "stateMutability": "nonpayable",
      "type": "function"
    },
    {
      "inputs": [],
      "name": "get_all_student_addresses",
      "outputs": [
        {
          "internalType": "address[]",
          "name": "",
          "type": "address[]"
        }
      ],
      "stateMutability": "view",
      "type": "function"
    },
    {
      "inputs": [],
      "name": "get_all_students",
      "outputs": [
        {
          "components": [
            {
              "internalType": "string",
              "name": "name",
              "type": "string"
            },
            {
              "internalType": "string",
              "name": "course",
              "type": "string"
            },
            {
              "internalType": "uint256",
              "name": "age",
              "type": "uint256"
            },
            {
              "internalType": "enum SchoolManagementSystem.Status",
              "name": "status",
              "type": "uint8"
            },
            {
              "internalType": "address",
              "name": "creator",
              "type": "address"
            }
          ],
          "internalType": "struct SchoolManagementSystem.StudentDetails[]",
          "name": "",
          "type": "tuple[]"
        }
      ],
      "stateMutability": "view",
      "type": "function"
    },
    {
      "inputs": [
        {
          "internalType": "address",
          "name": "_studentAddress",
          "type": "address"
        }
      ],
      "name": "get_student_by_address",
      "outputs": [
        {
          "components": [
            {
              "internalType": "string",
              "name": "name",
              "type": "string"
            },
            {
              "internalType": "string",
              "name": "course",
              "type": "string"
            },
            {
              "internalType": "uint256",
              "name": "age",
              "type": "uint256"
            },
            {
              "internalType": "enum SchoolManagementSystem.Status",
              "name": "status",
              "type": "uint8"
            },
            {
              "internalType": "address",
              "name": "creator",
              "type": "address"
            }
          ],
          "internalType": "struct SchoolManagementSystem.StudentDetails",
          "name": "",
          "type": "tuple"
        }
      ],
      "stateMutability": "view",
      "type": "function"
    },
    {
      "inputs": [
        {
          "internalType": "address",
          "name": "_studentAddress",
          "type": "address"
        },
        {
          "internalType": "string",
          "name": "_name",
          "type": "string"
        },
        {
          "internalType": "string",
          "name": "_course",
          "type": "string"
        },
        {
          "internalType": "uint256",
          "name": "_age",
          "type": "uint256"
        }
      ],
      "name": "register_student",
      "outputs": [],
      "stateMutability": "nonpayable",
      "type": "function"
    },
    {
      "inputs": [
        {
          "internalType": "address",
          "name": "_studentAddress",
          "type": "address"
        },
        {
          "internalType": "string",
          "name": "_newName",
          "type": "string"
        }
      ],
      "name": "update_student",
      "outputs": [],
      "stateMutability": "nonpayable",
      "type": "function"
    },
    {
      "inputs": [
        {
          "internalType": "address",
          "name": "_studentAddress",
          "type": "address"
        },
        {
          "internalType": "enum SchoolManagementSystem.Status",
          "name": "_newStatus",
          "type": "uint8"
        }
      ],
      "name": "update_student_status",
      "outputs": [],
      "stateMutability": "nonpayable",
      "type": "function"
    }
  ],
  "bytecode": "0x6080604052348015600f57600080fd5b506120ee8061001f6000396000f3fe608060405234801561001057600080fd5b506004361061007d5760003560e01c806368be63cd1161005b57806368be63cd146100d8578063b6393da2146100f4578063c26294ba14610110578063f5857ed8146101405761007d565b806309b4bda2146100825780633ab9a9ec1461009e578063521df8d6146100bc575b600080fd5b61009c60048036038101906100979190611325565b61015e565b005b6100a661032e565b6040516100b391906115d3565b60405180910390f35b6100d660048036038101906100d19190611756565b610616565b005b6100f260048036038101906100ed91906117f5565b61091a565b005b61010e60048036038101906101099190611851565b610b14565b005b61012a60048036038101906101259190611851565b610ea3565b60405161013791906118fb565b60405180910390f35b61014861114c565b60405161015591906119cc565b60405180910390f35b8160008060008373ffffffffffffffffffffffffffffffffffffffff1673ffffffffffffffffffffffffffffffffffffffff16815260200190815260200160002060000180546101ad90611a1d565b9050036101ef576040517f02fa45a70000000000000000000000000000000000000000000000000000000081526004016101e690611aab565b60405180910390fd5b823373ffffffffffffffffffffffffffffffffffffffff166000808373ffffffffffffffffffffffffffffffffffffffff1673ffffffffffffffffffffffffffffffffffffffff16815260200190815260200160002060030160019054906101000a900473ffffffffffffffffffffffffffffffffffffffff1673ffffffffffffffffffffffffffffffffffffffff16146102bf576040517f342c4ce30000000000000000000000000000000000000000000000000000000081526004016102b690611b3d565b60405180910390fd5b826000808673ffffffffffffffffffffffffffffffffffffffff1673ffffffffffffffffffffffffffffffffffffffff16815260200190815260200160002060030160006101000a81548160ff021916908360028111156103235761032261143a565b5b021790555050505050565b6060600060018054905067ffffffffffffffff811115610351576103506115ff565b5b60405190808252806020026020018201604052801561038a57816020015b6103776111da565b81526020019060019003908161036f5790505b50905060005b60018054905081101561060e57600080600183815481106103b4576103b3611b5d565b5b9060005260206000200160009054906101000a900473ffffffffffffffffffffffffffffffffffffffff1673ffffffffffffffffffffffffffffffffffffffff1673ffffffffffffffffffffffffffffffffffffffff1681526020019081526020016000206040518060a001604052908160008201805461043490611a1d565b80601f016020809104026020016040519081016040528092919081815260200182805461046090611a1d565b80156104ad5780601f10610482576101008083540402835291602001916104ad565b820191906000526020600020905b81548152906001019060200180831161049057829003601f168201915b505050505081526020016001820180546104c690611a1d565b80601f01602080910402602001604051908101604052809291908181526020018280546104f290611a1d565b801561053f5780601f106105145761010080835404028352916020019161053f565b820191906000526020600020905b81548152906001019060200180831161052257829003601f168201915b50505050508152602001600282015481526020016003820160009054906101000a900460ff1660028111156105775761057661143a565b5b60028111156105895761058861143a565b5b81526020016003820160019054906101000a900473ffffffffffffffffffffffffffffffffffffffff1673ffffffffffffffffffffffffffffffffffffffff1673ffffffffffffffffffffffffffffffffffffffff16815250508282815181106105f6576105f5611b5d565b5b60200260200101819052508080600101915050610390565b508091505090565b8360008060008373ffffffffffffffffffffffffffffffffffffffff1673ffffffffffffffffffffffffffffffffffffffff168152602001908152602001600020600001805461066590611a1d565b9050146106a7576040517fbd0c79df00000000000000000000000000000000000000000000000000000000815260040161069e90611bd8565b60405180910390fd5b60008451036106eb576040517fc76680e00000000000000000000000000000000000000000000000000000000081526004016106e290611c44565b60405180910390fd5b600083510361072f576040517fc76680e000000000000000000000000000000000000000000000000000000000815260040161072690611cb0565b60405180910390fd5b60008203610772576040517fc76680e000000000000000000000000000000000000000000000000000000000815260040161076990611d1c565b60405180910390fd5b6040518060a00160405280858152602001848152602001838152602001600060028111156107a3576107a261143a565b5b81526020013373ffffffffffffffffffffffffffffffffffffffff168152506000808773ffffffffffffffffffffffffffffffffffffffff1673ffffffffffffffffffffffffffffffffffffffff16815260200190815260200160002060008201518160000190816108159190611ee8565b50602082015181600101908161082b9190611ee8565b506040820151816002015560608201518160030160006101000a81548160ff021916908360028111156108615761086061143a565b5b021790555060808201518160030160016101000a81548173ffffffffffffffffffffffffffffffffffffffff021916908373ffffffffffffffffffffffffffffffffffffffff1602179055509050506001859080600181540180825580915050600190039060005260206000200160009091909190916101000a81548173ffffffffffffffffffffffffffffffffffffffff021916908373ffffffffffffffffffffffffffffffffffffffff1602179055505050505050565b8160008060008373ffffffffffffffffffffffffffffffffffffffff1673ffffffffffffffffffffffffffffffffffffffff168152602001908152602001600020600001805461096990611a1d565b9050036109ab576040517f02fa45a70000000000000000000000000000000000000000000000000000000081526004016109a290611aab565b60405180910390fd5b823373ffffffffffffffffffffffffffffffffffffffff166000808373ffffffffffffffffffffffffffffffffffffffff1673ffffffffffffffffffffffffffffffffffffffff16815260200190815260200160002060030160019054906101000a900473ffffffffffffffffffffffffffffffffffffffff1673ffffffffffffffffffffffffffffffffffffffff1614610a7b576040517f342c4ce3000000000000000000000000000000000000000000000000000000008152600401610a7290611b3d565b60405180910390fd5b6000835103610abf576040517fc76680e0000000000000000000000000000000000000000000000000000000008152600401610ab690612006565b60405180910390fd5b826000808673ffffffffffffffffffffffffffffffffffffffff1673ffffffffffffffffffffffffffffffffffffffff1681526020019081526020016000206000019081610b0d9190611ee8565b5050505050565b8060008060008373ffffffffffffffffffffffffffffffffffffffff1673ffffffffffffffffffffffffffffffffffffffff1681526020019081526020016000206000018054610b6390611a1d565b905003610ba5576040517f02fa45a7000000000000000000000000000000000000000000000000000000008152600401610b9c90611aab565b60405180910390fd5b813373ffffffffffffffffffffffffffffffffffffffff166000808373ffffffffffffffffffffffffffffffffffffffff1673ffffffffffffffffffffffffffffffffffffffff16815260200190815260200160002060030160019054906101000a900473ffffffffffffffffffffffffffffffffffffffff1673ffffffffffffffffffffffffffffffffffffffff1614610c75576040517f342c4ce3000000000000000000000000000000000000000000000000000000008152600401610c6c90611b3d565b60405180910390fd5b6000808473ffffffffffffffffffffffffffffffffffffffff1673ffffffffffffffffffffffffffffffffffffffff16815260200190815260200160002060008082016000610cc49190611231565b600182016000610cd49190611231565b60028201600090556003820160006101000a81549060ff02191690556003820160016101000a81549073ffffffffffffffffffffffffffffffffffffffff0219169055505060005b600180549050811015610e9d578373ffffffffffffffffffffffffffffffffffffffff1660018281548110610d5457610d53611b5d565b5b9060005260206000200160009054906101000a900473ffffffffffffffffffffffffffffffffffffffff1673ffffffffffffffffffffffffffffffffffffffff1603610e90576001808080549050610dac9190612055565b81548110610dbd57610dbc611b5d565b5b9060005260206000200160009054906101000a900473ffffffffffffffffffffffffffffffffffffffff1660018281548110610dfc57610dfb611b5d565b5b9060005260206000200160006101000a81548173ffffffffffffffffffffffffffffffffffffffff021916908373ffffffffffffffffffffffffffffffffffffffff1602179055506001805480610e5657610e55612089565b5b6001900381819060005260206000200160006101000a81549073ffffffffffffffffffffffffffffffffffffffff02191690559055610e9d565b8080600101915050610d1c565b50505050565b610eab6111da565b8160008060008373ffffffffffffffffffffffffffffffffffffffff1673ffffffffffffffffffffffffffffffffffffffff1681526020019081526020016000206000018054610efa90611a1d565b905003610f3c576040517f02fa45a7000000000000000000000000000000000000000000000000000000008152600401610f3390611aab565b60405180910390fd5b6000808473ffffffffffffffffffffffffffffffffffffffff1673ffffffffffffffffffffffffffffffffffffffff1681526020019081526020016000206040518060a0016040529081600082018054610f9590611a1d565b80601f0160208091040260200160405190810160405280929190818152602001828054610fc190611a1d565b801561100e5780601f10610fe35761010080835404028352916020019161100e565b820191906000526020600020905b815481529060010190602001808311610ff157829003601f168201915b5050505050815260200160018201805461102790611a1d565b80601f016020809104026020016040519081016040528092919081815260200182805461105390611a1d565b80156110a05780601f10611075576101008083540402835291602001916110a0565b820191906000526020600020905b81548152906001019060200180831161108357829003601f168201915b50505050508152602001600282015481526020016003820160009054906101000a900460ff1660028111156110d8576110d761143a565b5b60028111156110ea576110e961143a565b5b81526020016003820160019054906101000a900473ffffffffffffffffffffffffffffffffffffffff1673ffffffffffffffffffffffffffffffffffffffff1673ffffffffffffffffffffffffffffffffffffffff1681525050915050919050565b606060018054806020026020016040519081016040528092919081815260200182805480156111d057602002820191906000526020600020905b8160009054906101000a900473ffffffffffffffffffffffffffffffffffffffff1673ffffffffffffffffffffffffffffffffffffffff1681526020019060010190808311611186575b5050505050905090565b6040518060a001604052806060815260200160608152602001600081526020016000600281111561120e5761120d61143a565b5b8152602001600073ffffffffffffffffffffffffffffffffffffffff1681525090565b50805461123d90611a1d565b6000825580601f1061124f575061126e565b601f01602090049060005260206000209081019061126d9190611271565b5b50565b5b8082111561128a576000816000905550600101611272565b5090565b6000604051905090565b600080fd5b600080fd5b600073ffffffffffffffffffffffffffffffffffffffff82169050919050565b60006112cd826112a2565b9050919050565b6112dd816112c2565b81146112e857600080fd5b50565b6000813590506112fa816112d4565b92915050565b6003811061130d57600080fd5b50565b60008135905061131f81611300565b92915050565b6000806040838503121561133c5761133b611298565b5b600061134a858286016112eb565b925050602061135b85828601611310565b9150509250929050565b600081519050919050565b600082825260208201905092915050565b6000819050602082019050919050565b600081519050919050565b600082825260208201905092915050565b60005b838110156113cb5780820151818401526020810190506113b0565b60008484015250505050565b6000601f19601f8301169050919050565b60006113f382611391565b6113fd818561139c565b935061140d8185602086016113ad565b611416816113d7565b840191505092915050565b6000819050919050565b61143481611421565b82525050565b7f4e487b7100000000000000000000000000000000000000000000000000000000600052602160045260246000fd5b6003811061147a5761147961143a565b5b50565b600081905061148b82611469565b919050565b600061149b8261147d565b9050919050565b6114ab81611490565b82525050565b6114ba816112c2565b82525050565b600060a08301600083015184820360008601526114dd82826113e8565b915050602083015184820360208601526114f782826113e8565b915050604083015161150c604086018261142b565b50606083015161151f60608601826114a2565b50608083015161153260808601826114b1565b508091505092915050565b600061154983836114c0565b905092915050565b6000602082019050919050565b600061156982611365565b6115738185611370565b93508360208202850161158585611381565b8060005b858110156115c157848403895281516115a2858261153d565b94506115ad83611551565b925060208a01995050600181019050611589565b50829750879550505050505092915050565b600060208201905081810360008301526115ed818461155e565b905092915050565b600080fd5b600080fd5b7f4e487b7100000000000000000000000000000000000000000000000000000000600052604160045260246000fd5b611637826113d7565b810181811067ffffffffffffffff82111715611656576116556115ff565b5b80604052505050565b600061166961128e565b9050611675828261162e565b919050565b600067ffffffffffffffff821115611695576116946115ff565b5b61169e826113d7565b9050602081019050919050565b82818337600083830152505050565b60006116cd6116c88461167a565b61165f565b9050828152602081018484840111156116e9576116e86115fa565b5b6116f48482856116ab565b509392505050565b600082601f830112611711576117106115f5565b5b81356117218482602086016116ba565b91505092915050565b61173381611421565b811461173e57600080fd5b50565b6000813590506117508161172a565b92915050565b600080600080608085870312156117705761176f611298565b5b600061177e878288016112eb565b945050602085013567ffffffffffffffff81111561179f5761179e61129d565b5b6117ab878288016116fc565b935050604085013567ffffffffffffffff8111156117cc576117cb61129d565b5b6117d8878288016116fc565b92505060606117e987828801611741565b91505092959194509250565b6000806040838503121561180c5761180b611298565b5b600061181a858286016112eb565b925050602083013567ffffffffffffffff81111561183b5761183a61129d565b5b611847858286016116fc565b9150509250929050565b60006020828403121561186757611866611298565b5b6000611875848285016112eb565b91505092915050565b600060a083016000830151848203600086015261189b82826113e8565b915050602083015184820360208601526118b582826113e8565b91505060408301516118ca604086018261142b565b5060608301516118dd60608601826114a2565b5060808301516118f060808601826114b1565b508091505092915050565b60006020820190508181036000830152611915818461187e565b905092915050565b600081519050919050565b600082825260208201905092915050565b6000819050602082019050919050565b600061195583836114b1565b60208301905092915050565b6000602082019050919050565b60006119798261191d565b6119838185611928565b935061198e83611939565b8060005b838110156119bf5781516119a68882611949565b97506119b183611961565b925050600181019050611992565b5085935050505092915050565b600060208201905081810360008301526119e6818461196e565b905092915050565b7f4e487b7100000000000000000000000000000000000000000000000000000000600052602260045260246000fd5b60006002820490506001821680611a3557607f821691505b602082108103611a4857611a476119ee565b5b50919050565b600082825260208201905092915050565b7f53747564656e74206e6f7420666f756e64000000000000000000000000000000600082015250565b6000611a95601183611a4e565b9150611aa082611a5f565b602082019050919050565b60006020820190508181036000830152611ac481611a88565b9050919050565b7f4f6e6c792063726561746f722063616e206d6f64696679206f722064656c657460008201527f652073747564656e740000000000000000000000000000000000000000000000602082015250565b6000611b27602983611a4e565b9150611b3282611acb565b604082019050919050565b60006020820190508181036000830152611b5681611b1a565b9050919050565b7f4e487b7100000000000000000000000000000000000000000000000000000000600052603260045260246000fd5b7f53747564656e7420616c72656164792065786973747300000000000000000000600082015250565b6000611bc2601683611a4e565b9150611bcd82611b8c565b602082019050919050565b60006020820190508181036000830152611bf181611bb5565b9050919050565b7f4e616d652063616e6e6f7420626520656d707479000000000000000000000000600082015250565b6000611c2e601483611a4e565b9150611c3982611bf8565b602082019050919050565b60006020820190508181036000830152611c5d81611c21565b9050919050565b7f436f757273652063616e6e6f7420626520656d70747900000000000000000000600082015250565b6000611c9a601683611a4e565b9150611ca582611c64565b602082019050919050565b60006020820190508181036000830152611cc981611c8d565b9050919050565b7f416765206d7573742062652067726561746572207468616e207a65726f000000600082015250565b6000611d06601d83611a4e565b9150611d1182611cd0565b602082019050919050565b60006020820190508181036000830152611d3581611cf9565b9050919050565b60008190508160005260206000209050919050565b60006020601f8301049050919050565b600082821b905092915050565b600060088302611d9e7fffffffffffffffffffffffffffffffffffffffffffffffffffffffffffffffff82611d61565b611da88683611d61565b95508019841693508086168417925050509392505050565b6000819050919050565b6000611de5611de0611ddb84611421565b611dc0565b611421565b9050919050565b6000819050919050565b611dff83611dca565b611e13611e0b82611dec565b848454611d6e565b825550505050565b600090565b611e28611e1b565b611e33818484611df6565b505050565b5b81811015611e5757611e4c600082611e20565b600181019050611e39565b5050565b601f821115611e9c57611e6d81611d3c565b611e7684611d51565b81016020851015611e85578190505b611e99611e9185611d51565b830182611e38565b50505b505050565b600082821c905092915050565b6000611ebf60001984600802611ea1565b1980831691505092915050565b6000611ed88383611eae565b9150826002028217905092915050565b611ef182611391565b67ffffffffffffffff811115611f0a57611f096115ff565b5b611f148254611a1d565b611f1f828285611e5b565b600060209050601f831160018114611f525760008415611f40578287015190505b611f4a8582611ecc565b865550611fb2565b601f198416611f6086611d3c565b60005b82811015611f8857848901518255600182019150602085019450602081019050611f63565b86831015611fa55784890151611fa1601f891682611eae565b8355505b6001600288020188555050505b505050505050565b7f4e6577206e616d652063616e6e6f7420626520656d7074790000000000000000600082015250565b6000611ff0601883611a4e565b9150611ffb82611fba565b602082019050919050565b6000602082019050818103600083015261201f81611fe3565b9050919050565b7f4e487b7100000000000000000000000000000000000000000000000000000000600052601160045260246000fd5b600061206082611421565b915061206b83611421565b925082820390508181111561208357612082612026565b5b92915050565b7f4e487b7100000000000000000000000000000000000000000000000000000000600052603160045260246000fdfea26469706673582212201a5471450b4001250847bd5ce8b875dc9e8ed37ac6c61e585c4bcf386c54dd3e64736f6c634300081c0033",
  "linkReferences": {},
  "deployedLinkReferences": {}
}