{
  "contracts/TMS.sol": {
    "TMS": {
      "abi": [
        {
          "inputs": [
            {
              "internalType": "string",
              "name": "_companyName",
              "type": "string"
            },
            {
              "internalType": "address",
              "name": "_owner",
              "type": "address"
            }
          ],
          "stateMutability": "nonpayable",
          "type": "constructor"
        },
        {
          "inputs": [],
          "name": "NOT_FOUND",
          "type": "error"
        },
        {
          "stateMutability": "nonpayable",
          "type": "fallback"
        },
        {
          "inputs": [
            {
              "internalType": "string",
              "name": "_name",
              "type": "string"
            },
            {
              "internalType": "address payable",
              "name": "_to",
              "type": "address"
            }
          ],
          "name": "PaySalary",
          "outputs": [],
          "stateMutability": "nonpayable",
          "type": "function"
        },
        {
          "inputs": [
            {
              "internalType": "string",
              "name": "_name",
              "type": "string"
            },
            {
              "internalType": "uint256",
              "name": "_salary",
              "type": "uint256"
            },
            {
              "internalType": "enum ITMS.Status",
              "name": "_status",
              "type": "uint8"
            }
          ],
          "name": "RegisterTeacher",
          "outputs": [
            {
              "components": [
                {
                  "internalType": "string",
                  "name": "name",
                  "type": "string"
                },
                {
                  "internalType": "uint256",
                  "name": "salary",
                  "type": "uint256"
                },
                {
                  "internalType": "enum ITMS.Status",
                  "name": "status",
                  "type": "uint8"
                },
                {
                  "internalType": "address",
                  "name": "wallet",
                  "type": "address"
                }
              ],
              "internalType": "struct ITMS.Teacher[]",
              "name": "",
              "type": "tuple[]"
            }
          ],
          "stateMutability": "nonpayable",
          "type": "function"
        },
        {
          "inputs": [
            {
              "internalType": "uint256",
              "name": "",
              "type": "uint256"
            }
          ],
          "name": "Teachers",
          "outputs": [
            {
              "internalType": "string",
              "name": "name",
              "type": "string"
            },
            {
              "internalType": "uint256",
              "name": "salary",
              "type": "uint256"
            },
            {
              "internalType": "enum ITMS.Status",
              "name": "status",
              "type": "uint8"
            },
            {
              "internalType": "address",
              "name": "wallet",
              "type": "address"
            }
          ],
          "stateMutability": "view",
          "type": "function"
        },
        {
          "inputs": [],
          "name": "ViewTeachers",
          "outputs": [
            {
              "components": [
                {
                  "internalType": "string",
                  "name": "name",
                  "type": "string"
                },
                {
                  "internalType": "uint256",
                  "name": "salary",
                  "type": "uint256"
                },
                {
                  "internalType": "enum ITMS.Status",
                  "name": "status",
                  "type": "uint8"
                },
                {
                  "internalType": "address",
                  "name": "wallet",
                  "type": "address"
                }
              ],
              "internalType": "struct ITMS.Teacher[]",
              "name": "",
              "type": "tuple[]"
            }
          ],
          "stateMutability": "view",
          "type": "function"
        },
        {
          "inputs": [],
          "name": "companyName",
          "outputs": [
            {
              "internalType": "string",
              "name": "",
              "type": "string"
            }
          ],
          "stateMutability": "view",
          "type": "function"
        },
        {
          "inputs": [],
          "name": "owner",
          "outputs": [
            {
              "internalType": "address",
              "name": "",
              "type": "address"
            }
          ],
          "stateMutability": "view",
          "type": "function"
        },
        {
          "stateMutability": "payable",
          "type": "receive"
        }
      ],
      "evm": {
        "bytecode": {
          "linkReferences": {},
          "object": "608060405234801561001057600080fd5b50604051611846380380611846833981810160405281019061003291906102bc565b60008054906101000a900473ffffffffffffffffffffffffffffffffffffffff1690506001805461006290610347565b80601f016020809104026020016040519081016040528092919081815260200182805461008e90610347565b80156100db5780601f106100b0576101008083540402835291602001916100db565b820191906000526020600020905b8154815290600101906020018083116100be57829003601f168201915b505050505091505050610378565b6000604051905090565b600080fd5b600080fd5b600080fd5b600080fd5b6000601f19601f8301169050919050565b7f4e487b7100000000000000000000000000000000000000000000000000000000600052604160045260246000fd5b61015082610107565b810181811067ffffffffffffffff8211171561016f5761016e610118565b5b80604052505050565b60006101826100e9565b905061018e8282610147565b919050565b600067ffffffffffffffff8211156101ae576101ad610118565b5b6101b782610107565b9050602081019050919050565b60005b838110156101e25780820151818401526020810190506101c7565b60008484015250505050565b60006102016101fc84610193565b610178565b90508281526020810184848401111561021d5761021c610102565b5b6102288482856101c4565b509392505050565b600082601f830112610245576102446100fd565b5b81516102558482602086016101ee565b91505092915050565b600073ffffffffffffffffffffffffffffffffffffffff82169050919050565b60006102898261025e565b9050919050565b6102998161027e565b81146102a457600080fd5b50565b6000815190506102b681610290565b92915050565b600080604083850312156102d3576102d26100f3565b5b600083015167ffffffffffffffff8111156102f1576102f06100f8565b5b6102fd85828601610230565b925050602061030e858286016102a7565b9150509250929050565b7f4e487b7100000000000000000000000000000000000000000000000000000000600052602260045260246000fd5b6000600282049050600182168061035f57607f821691505b60208210810361037257610371610318565b5b50919050565b6114bf806103876000396000f3fe6080604052600436106100595760003560e01c806303e702631461006e5780632f8cebdf146100995780635595e705146100d657806357083087146101165780638da5cb5b1461013f578063f5ec2eed1461016a57610060565b3661006057005b34801561006c57600080fd5b005b34801561007a57600080fd5b50610083610195565b6040516100909190610c31565b60405180910390f35b3480156100a557600080fd5b506100c060048036038101906100bb9190610ded565b610321565b6040516100cd9190610c31565b60405180910390f35b3480156100e257600080fd5b506100fd60048036038101906100f89190610e5c565b6105c4565b60405161010d9493929190610f00565b60405180910390f35b34801561012257600080fd5b5061013d60048036038101906101389190610f8a565b6106b9565b005b34801561014b57600080fd5b506101546108f9565b6040516101619190610fe6565b60405180910390f35b34801561017657600080fd5b5061017f61091d565b60405161018c9190611001565b60405180910390f35b60606002805480602002602001604051908101604052809291908181526020016000905b8282101561031857838290600052602060002090600302016040518060800160405290816000820180546101ec90611052565b80601f016020809104026020016040519081016040528092919081815260200182805461021890611052565b80156102655780601f1061023a57610100808354040283529160200191610265565b820191906000526020600020905b81548152906001019060200180831161024857829003601f168201915b50505050508152602001600182015481526020016002820160009054906101000a900460ff16600281111561029d5761029c610a80565b5b60028111156102af576102ae610a80565b5b81526020016002820160019054906101000a900473ffffffffffffffffffffffffffffffffffffffff1673ffffffffffffffffffffffffffffffffffffffff1673ffffffffffffffffffffffffffffffffffffffff1681525050815260200190600101906101b9565b50505050905090565b60606000604051806080016040528086815260200185815260200184600281111561034f5761034e610a80565b5b81526020013373ffffffffffffffffffffffffffffffffffffffff168152509050600281908060018154018082558091505060019003906000526020600020906003020160009091909190915060008201518160000190816103b1919061122f565b506020820151816001015560408201518160020160006101000a81548160ff021916908360028111156103e7576103e6610a80565b5b021790555060608201518160020160016101000a81548173ffffffffffffffffffffffffffffffffffffffff021916908373ffffffffffffffffffffffffffffffffffffffff16021790555050506002805480602002602001604051908101604052809291908181526020016000905b828210156105b6578382906000526020600020906003020160405180608001604052908160008201805461048a90611052565b80601f01602080910402602001604051908101604052809291908181526020018280546104b690611052565b80156105035780601f106104d857610100808354040283529160200191610503565b820191906000526020600020905b8154815290600101906020018083116104e657829003601f168201915b50505050508152602001600182015481526020016002820160009054906101000a900460ff16600281111561053b5761053a610a80565b5b600281111561054d5761054c610a80565b5b81526020016002820160019054906101000a900473ffffffffffffffffffffffffffffffffffffffff1673ffffffffffffffffffffffffffffffffffffffff1673ffffffffffffffffffffffffffffffffffffffff168152505081526020019060010190610457565b505050509150509392505050565b600281815481106105d457600080fd5b90600052602060002090600302016000915090508060000180546105f790611052565b80601f016020809104026020016040519081016040528092919081815260200182805461062390611052565b80156106705780601f1061064557610100808354040283529160200191610670565b820191906000526020600020905b81548152906001019060200180831161065357829003601f168201915b5050505050908060010154908060020160009054906101000a900460ff16908060020160019054906101000a900473ffffffffffffffffffffffffffffffffffffffff16905084565b6000805b6002805490508110156108bc57836040516020016106db919061133d565b604051602081830303815290604052805190602001206002828154811061070557610704611354565b5b90600052602060002090600302016000016040516020016107269190611406565b60405160208183030381529060405280519060200120036108af576000600281111561075557610754610a80565b5b6002828154811061076957610768611354565b5b906000526020600020906003020160020160009054906101000a900460ff16600281111561079a57610799610a80565b5b14806107fb57506002808111156107b4576107b3610a80565b5b600282815481106107c8576107c7611354565b5b906000526020600020906003020160020160009054906101000a900460ff1660028111156107f9576107f8610a80565b5b145b61083a576040517f08c379a000000000000000000000000000000000000000000000000000000000815260040161083190611469565b60405180910390fd5b8273ffffffffffffffffffffffffffffffffffffffff166108fc6002838154811061086857610867611354565b5b9060005260206000209060030201600101549081150290604051600060405180830381858888f193505050501580156108a5573d6000803e3d6000fd5b50600191506108bc565b80806001019150506106bd565b50806108f4576040517f5ffce20a00000000000000000000000000000000000000000000000000000000815260040160405180910390fd5b505050565b60008054906101000a900473ffffffffffffffffffffffffffffffffffffffff1681565b6001805461092a90611052565b80601f016020809104026020016040519081016040528092919081815260200182805461095690611052565b80156109a35780601f10610978576101008083540402835291602001916109a3565b820191906000526020600020905b81548152906001019060200180831161098657829003601f168201915b505050505081565b600081519050919050565b600082825260208201905092915050565b6000819050602082019050919050565b600081519050919050565b600082825260208201905092915050565b60005b83811015610a115780820151818401526020810190506109f6565b60008484015250505050565b6000601f19601f8301169050919050565b6000610a39826109d7565b610a4381856109e2565b9350610a538185602086016109f3565b610a5c81610a1d565b840191505092915050565b6000819050919050565b610a7a81610a67565b82525050565b7f4e487b7100000000000000000000000000000000000000000000000000000000600052602160045260246000fd5b60038110610ac057610abf610a80565b5b50565b6000819050610ad182610aaf565b919050565b6000610ae182610ac3565b9050919050565b610af181610ad6565b82525050565b600073ffffffffffffffffffffffffffffffffffffffff82169050919050565b6000610b2282610af7565b9050919050565b610b3281610b17565b82525050565b60006080830160008301518482036000860152610b558282610a2e565b9150506020830151610b6a6020860182610a71565b506040830151610b7d6040860182610ae8565b506060830151610b906060860182610b29565b508091505092915050565b6000610ba78383610b38565b905092915050565b6000602082019050919050565b6000610bc7826109ab565b610bd181856109b6565b935083602082028501610be3856109c7565b8060005b85811015610c1f5784840389528151610c008582610b9b565b9450610c0b83610baf565b925060208a01995050600181019050610be7565b50829750879550505050505092915050565b60006020820190508181036000830152610c4b8184610bbc565b905092915050565b6000604051905090565b600080fd5b600080fd5b600080fd5b600080fd5b7f4e487b7100000000000000000000000000000000000000000000000000000000600052604160045260246000fd5b610ca982610a1d565b810181811067ffffffffffffffff82111715610cc857610cc7610c71565b5b80604052505050565b6000610cdb610c53565b9050610ce78282610ca0565b919050565b600067ffffffffffffffff821115610d0757610d06610c71565b5b610d1082610a1d565b9050602081019050919050565b82818337600083830152505050565b6000610d3f610d3a84610cec565b610cd1565b905082815260208101848484011115610d5b57610d5a610c6c565b5b610d66848285610d1d565b509392505050565b600082601f830112610d8357610d82610c67565b5b8135610d93848260208601610d2c565b91505092915050565b610da581610a67565b8114610db057600080fd5b50565b600081359050610dc281610d9c565b92915050565b60038110610dd557600080fd5b50565b600081359050610de781610dc8565b92915050565b600080600060608486031215610e0657610e05610c5d565b5b600084013567ffffffffffffffff811115610e2457610e23610c62565b5b610e3086828701610d6e565b9350506020610e4186828701610db3565b9250506040610e5286828701610dd8565b9150509250925092565b600060208284031215610e7257610e71610c5d565b5b6000610e8084828501610db3565b91505092915050565b600082825260208201905092915050565b6000610ea5826109d7565b610eaf8185610e89565b9350610ebf8185602086016109f3565b610ec881610a1d565b840191505092915050565b610edc81610a67565b82525050565b610eeb81610ad6565b82525050565b610efa81610b17565b82525050565b60006080820190508181036000830152610f1a8187610e9a565b9050610f296020830186610ed3565b610f366040830185610ee2565b610f436060830184610ef1565b95945050505050565b6000610f5782610af7565b9050919050565b610f6781610f4c565b8114610f7257600080fd5b50565b600081359050610f8481610f5e565b92915050565b60008060408385031215610fa157610fa0610c5d565b5b600083013567ffffffffffffffff811115610fbf57610fbe610c62565b5b610fcb85828601610d6e565b9250506020610fdc85828601610f75565b9150509250929050565b6000602082019050610ffb6000830184610ef1565b92915050565b6000602082019050818103600083015261101b8184610e9a565b905092915050565b7f4e487b7100000000000000000000000000000000000000000000000000000000600052602260045260246000fd5b6000600282049050600182168061106a57607f821691505b60208210810361107d5761107c611023565b5b50919050565b60008190508160005260206000209050919050565b60006020601f8301049050919050565b600082821b905092915050565b6000600883026110e57fffffffffffffffffffffffffffffffffffffffffffffffffffffffffffffffff826110a8565b6110ef86836110a8565b95508019841693508086168417925050509392505050565b6000819050919050565b600061112c61112761112284610a67565b611107565b610a67565b9050919050565b6000819050919050565b61114683611111565b61115a61115282611133565b8484546110b5565b825550505050565b600090565b61116f611162565b61117a81848461113d565b505050565b5b8181101561119e57611193600082611167565b600181019050611180565b5050565b601f8211156111e3576111b481611083565b6111bd84611098565b810160208510156111cc578190505b6111e06111d885611098565b83018261117f565b50505b505050565b600082821c905092915050565b6000611206600019846008026111e8565b1980831691505092915050565b600061121f83836111f5565b9150826002028217905092915050565b611238826109d7565b67ffffffffffffffff81111561125157611250610c71565b5b61125b8254611052565b6112668282856111a2565b600060209050601f8311600181146112995760008415611287578287015190505b6112918582611213565b8655506112f9565b601f1984166112a786611083565b60005b828110156112cf578489015182556001820191506020850194506020810190506112aa565b868310156112ec57848901516112e8601f8916826111f5565b8355505b6001600288020188555050505b505050505050565b600081905092915050565b6000611317826109d7565b6113218185611301565b93506113318185602086016109f3565b80840191505092915050565b6000611349828461130c565b915081905092915050565b7f4e487b7100000000000000000000000000000000000000000000000000000000600052603260045260246000fd5b6000815461139081611052565b61139a8186611301565b945060018216600081146113b557600181146113ca576113fd565b60ff19831686528115158202860193506113fd565b6113d385611083565b60005b838110156113f5578154818901526001820191506020810190506113d6565b838801955050505b50505092915050565b60006114128284611383565b915081905092915050565b7f54656163686572206e6f7420656c696769626c6520666f722073616c61727900600082015250565b6000611453601f83610e89565b915061145e8261141d565b602082019050919050565b6000602082019050818103600083015261148281611446565b905091905056fea26469706673582212203db39fb0ee0efc7d48791c01198f25ecddace5efebf68f38b9c4cdf6e9a01b6064736f6c634300081c0033",
          "opcodes": "PUSH1 0x80 PUSH1 0x40 MSTORE CALLVALUE DUP1 ISZERO PUSH2 0x10 JUMPI PUSH1 0x0 DUP1 REVERT JUMPDEST POP PUSH1 0x40 MLOAD PUSH2 0x1846 CODESIZE SUB DUP1 PUSH2 0x1846 DUP4 CODECOPY DUP2 DUP2 ADD PUSH1 0x40 MSTORE DUP2 ADD SWAP1 PUSH2 0x32 SWAP2 SWAP1 PUSH2 0x2BC JUMP JUMPDEST PUSH1 0x0 DUP1 SLOAD SWAP1 PUSH2 0x100 EXP SWAP1 DIV PUSH20 0xFFFFFFFFFFFFFFFFFFFFFFFFFFFFFFFFFFFFFFFF AND SWAP1 POP PUSH1 0x1 DUP1 SLOAD PUSH2 0x62 SWAP1 PUSH2 0x347 JUMP JUMPDEST DUP1 PUSH1 0x1F ADD PUSH1 0x20 DUP1 SWAP2 DIV MUL PUSH1 0x20 ADD PUSH1 0x40 MLOAD SWAP1 DUP2 ADD PUSH1 0x40 MSTORE DUP1 SWAP3 SWAP2 SWAP1 DUP2 DUP2 MSTORE PUSH1 0x20 ADD DUP3 DUP1 SLOAD PUSH2 0x8E SWAP1 PUSH2 0x347 JUMP JUMPDEST DUP1 ISZERO PUSH2 0xDB JUMPI DUP1 PUSH1 0x1F LT PUSH2 0xB0 JUMPI PUSH2 0x100 DUP1 DUP4 SLOAD DIV MUL DUP4 MSTORE SWAP2 PUSH1 0x20 ADD SWAP2 PUSH2 0xDB JUMP JUMPDEST DUP3 ADD SWAP2 SWAP1 PUSH1 0x0 MSTORE PUSH1 0x20 PUSH1 0x0 KECCAK256 SWAP1 JUMPDEST DUP2 SLOAD DUP2 MSTORE SWAP1 PUSH1 0x1 ADD SWAP1 PUSH1 0x20 ADD DUP1 DUP4 GT PUSH2 0xBE JUMPI DUP3 SWAP1 SUB PUSH1 0x1F AND DUP3 ADD SWAP2 JUMPDEST POP POP POP POP POP SWAP2 POP POP POP PUSH2 0x378 JUMP JUMPDEST PUSH1 0x0 PUSH1 0x40 MLOAD SWAP1 POP SWAP1 JUMP JUMPDEST PUSH1 0x0 DUP1 REVERT JUMPDEST PUSH1 0x0 DUP1 REVERT JUMPDEST PUSH1 0x0 DUP1 REVERT JUMPDEST PUSH1 0x0 DUP1 REVERT JUMPDEST PUSH1 0x0 PUSH1 0x1F NOT PUSH1 0x1F DUP4 ADD AND SWAP1 POP SWAP2 SWAP1 POP JUMP JUMPDEST PUSH32 0x4E487B7100000000000000000000000000000000000000000000000000000000 PUSH1 0x0 MSTORE PUSH1 0x41 PUSH1 0x4 MSTORE PUSH1 0x24 PUSH1 0x0 REVERT JUMPDEST PUSH2 0x150 DUP3 PUSH2 0x107 JUMP JUMPDEST DUP2 ADD DUP2 DUP2 LT PUSH8 0xFFFFFFFFFFFFFFFF DUP3 GT OR ISZERO PUSH2 0x16F JUMPI PUSH2 0x16E PUSH2 0x118 JUMP JUMPDEST JUMPDEST DUP1 PUSH1 0x40 MSTORE POP POP POP JUMP JUMPDEST PUSH1 0x0 PUSH2 0x182 PUSH2 0xE9 JUMP JUMPDEST SWAP1 POP PUSH2 0x18E DUP3 DUP3 PUSH2 0x147 JUMP JUMPDEST SWAP2 SWAP1 POP JUMP JUMPDEST PUSH1 0x0 PUSH8 0xFFFFFFFFFFFFFFFF DUP3 GT ISZERO PUSH2 0x1AE JUMPI PUSH2 0x1AD PUSH2 0x118 JUMP JUMPDEST JUMPDEST PUSH2 0x1B7 DUP3 PUSH2 0x107 JUMP JUMPDEST SWAP1 POP PUSH1 0x20 DUP2 ADD SWAP1 POP SWAP2 SWAP1 POP JUMP JUMPDEST PUSH1 0x0 JUMPDEST DUP4 DUP2 LT ISZERO PUSH2 0x1E2 JUMPI DUP1 DUP3 ADD MLOAD DUP2 DUP5 ADD MSTORE PUSH1 0x20 DUP2 ADD SWAP1 POP PUSH2 0x1C7 JUMP JUMPDEST PUSH1 0x0 DUP5 DUP5 ADD MSTORE POP POP POP POP JUMP JUMPDEST PUSH1 0x0 PUSH2 0x201 PUSH2 0x1FC DUP5 PUSH2 0x193 JUMP JUMPDEST PUSH2 0x178 JUMP JUMPDEST SWAP1 POP DUP3 DUP2 MSTORE PUSH1 0x20 DUP2 ADD DUP5 DUP5 DUP5 ADD GT ISZERO PUSH2 0x21D JUMPI PUSH2 0x21C PUSH2 0x102 JUMP JUMPDEST JUMPDEST PUSH2 0x228 DUP5 DUP3 DUP6 PUSH2 0x1C4 JUMP JUMPDEST POP SWAP4 SWAP3 POP POP POP JUMP JUMPDEST PUSH1 0x0 DUP3 PUSH1 0x1F DUP4 ADD SLT PUSH2 0x245 JUMPI PUSH2 0x244 PUSH2 0xFD JUMP JUMPDEST JUMPDEST DUP2 MLOAD PUSH2 0x255 DUP5 DUP3 PUSH1 0x20 DUP7 ADD PUSH2 0x1EE JUMP JUMPDEST SWAP2 POP POP SWAP3 SWAP2 POP POP JUMP JUMPDEST PUSH1 0x0 PUSH20 0xFFFFFFFFFFFFFFFFFFFFFFFFFFFFFFFFFFFFFFFF DUP3 AND SWAP1 POP SWAP2 SWAP1 POP JUMP JUMPDEST PUSH1 0x0 PUSH2 0x289 DUP3 PUSH2 0x25E JUMP JUMPDEST SWAP1 POP SWAP2 SWAP1 POP JUMP JUMPDEST PUSH2 0x299 DUP2 PUSH2 0x27E JUMP JUMPDEST DUP2 EQ PUSH2 0x2A4 JUMPI PUSH1 0x0 DUP1 REVERT JUMPDEST POP JUMP JUMPDEST PUSH1 0x0 DUP2 MLOAD SWAP1 POP PUSH2 0x2B6 DUP2 PUSH2 0x290 JUMP JUMPDEST SWAP3 SWAP2 POP POP JUMP JUMPDEST PUSH1 0x0 DUP1 PUSH1 0x40 DUP4 DUP6 SUB SLT ISZERO PUSH2 0x2D3 JUMPI PUSH2 0x2D2 PUSH2 0xF3 JUMP JUMPDEST JUMPDEST PUSH1 0x0 DUP4 ADD MLOAD PUSH8 0xFFFFFFFFFFFFFFFF DUP2 GT ISZERO PUSH2 0x2F1 JUMPI PUSH2 0x2F0 PUSH2 0xF8 JUMP JUMPDEST JUMPDEST PUSH2 0x2FD DUP6 DUP3 DUP7 ADD PUSH2 0x230 JUMP JUMPDEST SWAP3 POP POP PUSH1 0x20 PUSH2 0x30E DUP6 DUP3 DUP7 ADD PUSH2 0x2A7 JUMP JUMPDEST SWAP2 POP POP SWAP3 POP SWAP3 SWAP1 POP JUMP JUMPDEST PUSH32 0x4E487B7100000000000000000000000000000000000000000000000000000000 PUSH1 0x0 MSTORE PUSH1 0x22 PUSH1 0x4 MSTORE PUSH1 0x24 PUSH1 0x0 REVERT JUMPDEST PUSH1 0x0 PUSH1 0x2 DUP3 DIV SWAP1 POP PUSH1 0x1 DUP3 AND DUP1 PUSH2 0x35F JUMPI PUSH1 0x7F DUP3 AND SWAP2 POP JUMPDEST PUSH1 0x20 DUP3 LT DUP2 SUB PUSH2 0x372 JUMPI PUSH2 0x371 PUSH2 0x318 JUMP JUMPDEST JUMPDEST POP SWAP2 SWAP1 POP JUMP JUMPDEST PUSH2 0x14BF DUP1 PUSH2 0x387 PUSH1 0x0 CODECOPY PUSH1 0x0 RETURN INVALID PUSH1 0x80 PUSH1 0x40 MSTORE PUSH1 0x4 CALLDATASIZE LT PUSH2 0x59 JUMPI PUSH1 0x0 CALLDATALOAD PUSH1 0xE0 SHR DUP1 PUSH4 0x3E70263 EQ PUSH2 0x6E JUMPI DUP1 PUSH4 0x2F8CEBDF EQ PUSH2 0x99 JUMPI DUP1 PUSH4 0x5595E705 EQ PUSH2 0xD6 JUMPI DUP1 PUSH4 0x57083087 EQ PUSH2 0x116 JUMPI DUP1 PUSH4 0x8DA5CB5B EQ PUSH2 0x13F JUMPI DUP1 PUSH4 0xF5EC2EED EQ PUSH2 0x16A JUMPI PUSH2 0x60 JUMP JUMPDEST CALLDATASIZE PUSH2 0x60 JUMPI STOP JUMPDEST CALLVALUE DUP1 ISZERO PUSH2 0x6C JUMPI PUSH1 0x0 DUP1 REVERT JUMPDEST STOP JUMPDEST CALLVALUE DUP1 ISZERO PUSH2 0x7A JUMPI PUSH1 0x0 DUP1 REVERT JUMPDEST POP PUSH2 0x83 PUSH2 0x195 JUMP JUMPDEST PUSH1 0x40 MLOAD PUSH2 0x90 SWAP2 SWAP1 PUSH2 0xC31 JUMP JUMPDEST PUSH1 0x40 MLOAD DUP1 SWAP2 SUB SWAP1 RETURN JUMPDEST CALLVALUE DUP1 ISZERO PUSH2 0xA5 JUMPI PUSH1 0x0 DUP1 REVERT JUMPDEST POP PUSH2 0xC0 PUSH1 0x4 DUP1 CALLDATASIZE SUB DUP2 ADD SWAP1 PUSH2 0xBB SWAP2 SWAP1 PUSH2 0xDED JUMP JUMPDEST PUSH2 0x321 JUMP JUMPDEST PUSH1 0x40 MLOAD PUSH2 0xCD SWAP2 SWAP1 PUSH2 0xC31 JUMP JUMPDEST PUSH1 0x40 MLOAD DUP1 SWAP2 SUB SWAP1 RETURN JUMPDEST CALLVALUE DUP1 ISZERO PUSH2 0xE2 JUMPI PUSH1 0x0 DUP1 REVERT JUMPDEST POP PUSH2 0xFD PUSH1 0x4 DUP1 CALLDATASIZE SUB DUP2 ADD SWAP1 PUSH2 0xF8 SWAP2 SWAP1 PUSH2 0xE5C JUMP JUMPDEST PUSH2 0x5C4 JUMP JUMPDEST PUSH1 0x40 MLOAD PUSH2 0x10D SWAP5 SWAP4 SWAP3 SWAP2 SWAP1 PUSH2 0xF00 JUMP JUMPDEST PUSH1 0x40 MLOAD DUP1 SWAP2 SUB SWAP1 RETURN JUMPDEST CALLVALUE DUP1 ISZERO PUSH2 0x122 JUMPI PUSH1 0x0 DUP1 REVERT JUMPDEST POP PUSH2 0x13D PUSH1 0x4 DUP1 CALLDATASIZE SUB DUP2 ADD SWAP1 PUSH2 0x138 SWAP2 SWAP1 PUSH2 0xF8A JUMP JUMPDEST PUSH2 0x6B9 JUMP JUMPDEST STOP JUMPDEST CALLVALUE DUP1 ISZERO PUSH2 0x14B JUMPI PUSH1 0x0 DUP1 REVERT JUMPDEST POP PUSH2 0x154 PUSH2 0x8F9 JUMP JUMPDEST PUSH1 0x40 MLOAD PUSH2 0x161 SWAP2 SWAP1 PUSH2 0xFE6 JUMP JUMPDEST PUSH1 0x40 MLOAD DUP1 SWAP2 SUB SWAP1 RETURN JUMPDEST CALLVALUE DUP1 ISZERO PUSH2 0x176 JUMPI PUSH1 0x0 DUP1 REVERT JUMPDEST POP PUSH2 0x17F PUSH2 0x91D JUMP JUMPDEST PUSH1 0x40 MLOAD PUSH2 0x18C SWAP2 SWAP1 PUSH2 0x1001 JUMP JUMPDEST PUSH1 0x40 MLOAD DUP1 SWAP2 SUB SWAP1 RETURN JUMPDEST PUSH1 0x60 PUSH1 0x2 DUP1 SLOAD DUP1 PUSH1 0x20 MUL PUSH1 0x20 ADD PUSH1 0x40 MLOAD SWAP1 DUP2 ADD PUSH1 0x40 MSTORE DUP1 SWAP3 SWAP2 SWAP1 DUP2 DUP2 MSTORE PUSH1 0x20 ADD PUSH1 0x0 SWAP1 JUMPDEST DUP3 DUP3 LT ISZERO PUSH2 0x318 JUMPI DUP4 DUP3 SWAP1 PUSH1 0x0 MSTORE PUSH1 0x20 PUSH1 0x0 KECCAK256 SWAP1 PUSH1 0x3 MUL ADD PUSH1 0x40 MLOAD DUP1 PUSH1 0x80 ADD PUSH1 0x40 MSTORE SWAP1 DUP2 PUSH1 0x0 DUP3 ADD DUP1 SLOAD PUSH2 0x1EC SWAP1 PUSH2 0x1052 JUMP JUMPDEST DUP1 PUSH1 0x1F ADD PUSH1 0x20 DUP1 SWAP2 DIV MUL PUSH1 0x20 ADD PUSH1 0x40 MLOAD SWAP1 DUP2 ADD PUSH1 0x40 MSTORE DUP1 SWAP3 SWAP2 SWAP1 DUP2 DUP2 MSTORE PUSH1 0x20 ADD DUP3 DUP1 SLOAD PUSH2 0x218 SWAP1 PUSH2 0x1052 JUMP JUMPDEST DUP1 ISZERO PUSH2 0x265 JUMPI DUP1 PUSH1 0x1F LT PUSH2 0x23A JUMPI PUSH2 0x100 DUP1 DUP4 SLOAD DIV MUL DUP4 MSTORE SWAP2 PUSH1 0x20 ADD SWAP2 PUSH2 0x265 JUMP JUMPDEST DUP3 ADD SWAP2 SWAP1 PUSH1 0x0 MSTORE PUSH1 0x20 PUSH1 0x0 KECCAK256 SWAP1 JUMPDEST DUP2 SLOAD DUP2 MSTORE SWAP1 PUSH1 0x1 ADD SWAP1 PUSH1 0x20 ADD DUP1 DUP4 GT PUSH2 0x248 JUMPI DUP3 SWAP1 SUB PUSH1 0x1F AND DUP3 ADD SWAP2 JUMPDEST POP POP POP POP POP DUP2 MSTORE PUSH1 0x20 ADD PUSH1 0x1 DUP3 ADD SLOAD DUP2 MSTORE PUSH1 0x20 ADD PUSH1 0x2 DUP3 ADD PUSH1 0x0 SWAP1 SLOAD SWAP1 PUSH2 0x100 EXP SWAP1 DIV PUSH1 0xFF AND PUSH1 0x2 DUP2 GT ISZERO PUSH2 0x29D JUMPI PUSH2 0x29C PUSH2 0xA80 JUMP JUMPDEST JUMPDEST PUSH1 0x2 DUP2 GT ISZERO PUSH2 0x2AF JUMPI PUSH2 0x2AE PUSH2 0xA80 JUMP JUMPDEST JUMPDEST DUP2 MSTORE PUSH1 0x20 ADD PUSH1 0x2 DUP3 ADD PUSH1 0x1 SWAP1 SLOAD SWAP1 PUSH2 0x100 EXP SWAP1 DIV PUSH20 0xFFFFFFFFFFFFFFFFFFFFFFFFFFFFFFFFFFFFFFFF AND PUSH20 0xFFFFFFFFFFFFFFFFFFFFFFFFFFFFFFFFFFFFFFFF AND PUSH20 0xFFFFFFFFFFFFFFFFFFFFFFFFFFFFFFFFFFFFFFFF AND DUP2 MSTORE POP POP DUP2 MSTORE PUSH1 0x20 ADD SWAP1 PUSH1 0x1 ADD SWAP1 PUSH2 0x1B9 JUMP JUMPDEST POP POP POP POP SWAP1 POP SWAP1 JUMP JUMPDEST PUSH1 0x60 PUSH1 0x0 PUSH1 0x40 MLOAD DUP1 PUSH1 0x80 ADD PUSH1 0x40 MSTORE DUP1 DUP7 DUP2 MSTORE PUSH1 0x20 ADD DUP6 DUP2 MSTORE PUSH1 0x20 ADD DUP5 PUSH1 0x2 DUP2 GT ISZERO PUSH2 0x34F JUMPI PUSH2 0x34E PUSH2 0xA80 JUMP JUMPDEST JUMPDEST DUP2 MSTORE PUSH1 0x20 ADD CALLER PUSH20 0xFFFFFFFFFFFFFFFFFFFFFFFFFFFFFFFFFFFFFFFF AND DUP2 MSTORE POP SWAP1 POP PUSH1 0x2 DUP2 SWAP1 DUP1 PUSH1 0x1 DUP2 SLOAD ADD DUP1 DUP3 SSTORE DUP1 SWAP2 POP POP PUSH1 0x1 SWAP1 SUB SWAP1 PUSH1 0x0 MSTORE PUSH1 0x20 PUSH1 0x0 KECCAK256 SWAP1 PUSH1 0x3 MUL ADD PUSH1 0x0 SWAP1 SWAP2 SWAP1 SWAP2 SWAP1 SWAP2 POP PUSH1 0x0 DUP3 ADD MLOAD DUP2 PUSH1 0x0 ADD SWAP1 DUP2 PUSH2 0x3B1 SWAP2 SWAP1 PUSH2 0x122F JUMP JUMPDEST POP PUSH1 0x20 DUP3 ADD MLOAD DUP2 PUSH1 0x1 ADD SSTORE PUSH1 0x40 DUP3 ADD MLOAD DUP2 PUSH1 0x2 ADD PUSH1 0x0 PUSH2 0x100 EXP DUP2 SLOAD DUP2 PUSH1 0xFF MUL NOT AND SWAP1 DUP4 PUSH1 0x2 DUP2 GT ISZERO PUSH2 0x3E7 JUMPI PUSH2 0x3E6 PUSH2 0xA80 JUMP JUMPDEST JUMPDEST MUL OR SWAP1 SSTORE POP PUSH1 0x60 DUP3 ADD MLOAD DUP2 PUSH1 0x2 ADD PUSH1 0x1 PUSH2 0x100 EXP DUP2 SLOAD DUP2 PUSH20 0xFFFFFFFFFFFFFFFFFFFFFFFFFFFFFFFFFFFFFFFF MUL NOT AND SWAP1 DUP4 PUSH20 0xFFFFFFFFFFFFFFFFFFFFFFFFFFFFFFFFFFFFFFFF AND MUL OR SWAP1 SSTORE POP POP POP PUSH1 0x2 DUP1 SLOAD DUP1 PUSH1 0x20 MUL PUSH1 0x20 ADD PUSH1 0x40 MLOAD SWAP1 DUP2 ADD PUSH1 0x40 MSTORE DUP1 SWAP3 SWAP2 SWAP1 DUP2 DUP2 MSTORE PUSH1 0x20 ADD PUSH1 0x0 SWAP1 JUMPDEST DUP3 DUP3 LT ISZERO PUSH2 0x5B6 JUMPI DUP4 DUP3 SWAP1 PUSH1 0x0 MSTORE PUSH1 0x20 PUSH1 0x0 KECCAK256 SWAP1 PUSH1 0x3 MUL ADD PUSH1 0x40 MLOAD DUP1 PUSH1 0x80 ADD PUSH1 0x40 MSTORE SWAP1 DUP2 PUSH1 0x0 DUP3 ADD DUP1 SLOAD PUSH2 0x48A SWAP1 PUSH2 0x1052 JUMP JUMPDEST DUP1 PUSH1 0x1F ADD PUSH1 0x20 DUP1 SWAP2 DIV MUL PUSH1 0x20 ADD PUSH1 0x40 MLOAD SWAP1 DUP2 ADD PUSH1 0x40 MSTORE DUP1 SWAP3 SWAP2 SWAP1 DUP2 DUP2 MSTORE PUSH1 0x20 ADD DUP3 DUP1 SLOAD PUSH2 0x4B6 SWAP1 PUSH2 0x1052 JUMP JUMPDEST DUP1 ISZERO PUSH2 0x503 JUMPI DUP1 PUSH1 0x1F LT PUSH2 0x4D8 JUMPI PUSH2 0x100 DUP1 DUP4 SLOAD DIV MUL DUP4 MSTORE SWAP2 PUSH1 0x20 ADD SWAP2 PUSH2 0x503 JUMP JUMPDEST DUP3 ADD SWAP2 SWAP1 PUSH1 0x0 MSTORE PUSH1 0x20 PUSH1 0x0 KECCAK256 SWAP1 JUMPDEST DUP2 SLOAD DUP2 MSTORE SWAP1 PUSH1 0x1 ADD SWAP1 PUSH1 0x20 ADD DUP1 DUP4 GT PUSH2 0x4E6 JUMPI DUP3 SWAP1 SUB PUSH1 0x1F AND DUP3 ADD SWAP2 JUMPDEST POP POP POP POP POP DUP2 MSTORE PUSH1 0x20 ADD PUSH1 0x1 DUP3 ADD SLOAD DUP2 MSTORE PUSH1 0x20 ADD PUSH1 0x2 DUP3 ADD PUSH1 0x0 SWAP1 SLOAD SWAP1 PUSH2 0x100 EXP SWAP1 DIV PUSH1 0xFF AND PUSH1 0x2 DUP2 GT ISZERO PUSH2 0x53B JUMPI PUSH2 0x53A PUSH2 0xA80 JUMP JUMPDEST JUMPDEST PUSH1 0x2 DUP2 GT ISZERO PUSH2 0x54D JUMPI PUSH2 0x54C PUSH2 0xA80 JUMP JUMPDEST JUMPDEST DUP2 MSTORE PUSH1 0x20 ADD PUSH1 0x2 DUP3 ADD PUSH1 0x1 SWAP1 SLOAD SWAP1 PUSH2 0x100 EXP SWAP1 DIV PUSH20 0xFFFFFFFFFFFFFFFFFFFFFFFFFFFFFFFFFFFFFFFF AND PUSH20 0xFFFFFFFFFFFFFFFFFFFFFFFFFFFFFFFFFFFFFFFF AND PUSH20 0xFFFFFFFFFFFFFFFFFFFFFFFFFFFFFFFFFFFFFFFF AND DUP2 MSTORE POP POP DUP2 MSTORE PUSH1 0x20 ADD SWAP1 PUSH1 0x1 ADD SWAP1 PUSH2 0x457 JUMP JUMPDEST POP POP POP POP SWAP2 POP POP SWAP4 SWAP3 POP POP POP JUMP JUMPDEST PUSH1 0x2 DUP2 DUP2 SLOAD DUP2 LT PUSH2 0x5D4 JUMPI PUSH1 0x0 DUP1 REVERT JUMPDEST SWAP1 PUSH1 0x0 MSTORE PUSH1 0x20 PUSH1 0x0 KECCAK256 SWAP1 PUSH1 0x3 MUL ADD PUSH1 0x0 SWAP2 POP SWAP1 POP DUP1 PUSH1 0x0 ADD DUP1 SLOAD PUSH2 0x5F7 SWAP1 PUSH2 0x1052 JUMP JUMPDEST DUP1 PUSH1 0x1F ADD PUSH1 0x20 DUP1 SWAP2 DIV MUL PUSH1 0x20 ADD PUSH1 0x40 MLOAD SWAP1 DUP2 ADD PUSH1 0x40 MSTORE DUP1 SWAP3 SWAP2 SWAP1 DUP2 DUP2 MSTORE PUSH1 0x20 ADD DUP3 DUP1 SLOAD PUSH2 0x623 SWAP1 PUSH2 0x1052 JUMP JUMPDEST DUP1 ISZERO PUSH2 0x670 JUMPI DUP1 PUSH1 0x1F LT PUSH2 0x645 JUMPI PUSH2 0x100 DUP1 DUP4 SLOAD DIV MUL DUP4 MSTORE SWAP2 PUSH1 0x20 ADD SWAP2 PUSH2 0x670 JUMP JUMPDEST DUP3 ADD SWAP2 SWAP1 PUSH1 0x0 MSTORE PUSH1 0x20 PUSH1 0x0 KECCAK256 SWAP1 JUMPDEST DUP2 SLOAD DUP2 MSTORE SWAP1 PUSH1 0x1 ADD SWAP1 PUSH1 0x20 ADD DUP1 DUP4 GT PUSH2 0x653 JUMPI DUP3 SWAP1 SUB PUSH1 0x1F AND DUP3 ADD SWAP2 JUMPDEST POP POP POP POP POP SWAP1 DUP1 PUSH1 0x1 ADD SLOAD SWAP1 DUP1 PUSH1 0x2 ADD PUSH1 0x0 SWAP1 SLOAD SWAP1 PUSH2 0x100 EXP SWAP1 DIV PUSH1 0xFF AND SWAP1 DUP1 PUSH1 0x2 ADD PUSH1 0x1 SWAP1 SLOAD SWAP1 PUSH2 0x100 EXP SWAP1 DIV PUSH20 0xFFFFFFFFFFFFFFFFFFFFFFFFFFFFFFFFFFFFFFFF AND SWAP1 POP DUP5 JUMP JUMPDEST PUSH1 0x0 DUP1 JUMPDEST PUSH1 0x2 DUP1 SLOAD SWAP1 POP DUP2 LT ISZERO PUSH2 0x8BC JUMPI DUP4 PUSH1 0x40 MLOAD PUSH1 0x20 ADD PUSH2 0x6DB SWAP2 SWAP1 PUSH2 0x133D JUMP JUMPDEST PUSH1 0x40 MLOAD PUSH1 0x20 DUP2 DUP4 SUB SUB DUP2 MSTORE SWAP1 PUSH1 0x40 MSTORE DUP1 MLOAD SWAP1 PUSH1 0x20 ADD KECCAK256 PUSH1 0x2 DUP3 DUP2 SLOAD DUP2 LT PUSH2 0x705 JUMPI PUSH2 0x704 PUSH2 0x1354 JUMP JUMPDEST JUMPDEST SWAP1 PUSH1 0x0 MSTORE PUSH1 0x20 PUSH1 0x0 KECCAK256 SWAP1 PUSH1 0x3 MUL ADD PUSH1 0x0 ADD PUSH1 0x40 MLOAD PUSH1 0x20 ADD PUSH2 0x726 SWAP2 SWAP1 PUSH2 0x1406 JUMP JUMPDEST PUSH1 0x40 MLOAD PUSH1 0x20 DUP2 DUP4 SUB SUB DUP2 MSTORE SWAP1 PUSH1 0x40 MSTORE DUP1 MLOAD SWAP1 PUSH1 0x20 ADD KECCAK256 SUB PUSH2 0x8AF JUMPI PUSH1 0x0 PUSH1 0x2 DUP2 GT ISZERO PUSH2 0x755 JUMPI PUSH2 0x754 PUSH2 0xA80 JUMP JUMPDEST JUMPDEST PUSH1 0x2 DUP3 DUP2 SLOAD DUP2 LT PUSH2 0x769 JUMPI PUSH2 0x768 PUSH2 0x1354 JUMP JUMPDEST JUMPDEST SWAP1 PUSH1 0x0 MSTORE PUSH1 0x20 PUSH1 0x0 KECCAK256 SWAP1 PUSH1 0x3 MUL ADD PUSH1 0x2 ADD PUSH1 0x0 SWAP1 SLOAD SWAP1 PUSH2 0x100 EXP SWAP1 DIV PUSH1 0xFF AND PUSH1 0x2 DUP2 GT ISZERO PUSH2 0x79A JUMPI PUSH2 0x799 PUSH2 0xA80 JUMP JUMPDEST JUMPDEST EQ DUP1 PUSH2 0x7FB JUMPI POP PUSH1 0x2 DUP1 DUP2 GT ISZERO PUSH2 0x7B4 JUMPI PUSH2 0x7B3 PUSH2 0xA80 JUMP JUMPDEST JUMPDEST PUSH1 0x2 DUP3 DUP2 SLOAD DUP2 LT PUSH2 0x7C8 JUMPI PUSH2 0x7C7 PUSH2 0x1354 JUMP JUMPDEST JUMPDEST SWAP1 PUSH1 0x0 MSTORE PUSH1 0x20 PUSH1 0x0 KECCAK256 SWAP1 PUSH1 0x3 MUL ADD PUSH1 0x2 ADD PUSH1 0x0 SWAP1 SLOAD SWAP1 PUSH2 0x100 EXP SWAP1 DIV PUSH1 0xFF AND PUSH1 0x2 DUP2 GT ISZERO PUSH2 0x7F9 JUMPI PUSH2 0x7F8 PUSH2 0xA80 JUMP JUMPDEST JUMPDEST EQ JUMPDEST PUSH2 0x83A JUMPI PUSH1 0x40 MLOAD PUSH32 0x8C379A000000000000000000000000000000000000000000000000000000000 DUP2 MSTORE PUSH1 0x4 ADD PUSH2 0x831 SWAP1 PUSH2 0x1469 JUMP JUMPDEST PUSH1 0x40 MLOAD DUP1 SWAP2 SUB SWAP1 REVERT JUMPDEST DUP3 PUSH20 0xFFFFFFFFFFFFFFFFFFFFFFFFFFFFFFFFFFFFFFFF AND PUSH2 0x8FC PUSH1 0x2 DUP4 DUP2 SLOAD DUP2 LT PUSH2 0x868 JUMPI PUSH2 0x867 PUSH2 0x1354 JUMP JUMPDEST JUMPDEST SWAP1 PUSH1 0x0 MSTORE PUSH1 0x20 PUSH1 0x0 KECCAK256 SWAP1 PUSH1 0x3 MUL ADD PUSH1 0x1 ADD SLOAD SWAP1 DUP2 ISZERO MUL SWAP1 PUSH1 0x40 MLOAD PUSH1 0x0 PUSH1 0x40 MLOAD DUP1 DUP4 SUB DUP2 DUP6 DUP9 DUP9 CALL SWAP4 POP POP POP POP ISZERO DUP1 ISZERO PUSH2 0x8A5 JUMPI RETURNDATASIZE PUSH1 0x0 DUP1 RETURNDATACOPY RETURNDATASIZE PUSH1 0x0 REVERT JUMPDEST POP PUSH1 0x1 SWAP2 POP PUSH2 0x8BC JUMP JUMPDEST DUP1 DUP1 PUSH1 0x1 ADD SWAP2 POP POP PUSH2 0x6BD JUMP JUMPDEST POP DUP1 PUSH2 0x8F4 JUMPI PUSH1 0x40 MLOAD PUSH32 0x5FFCE20A00000000000000000000000000000000000000000000000000000000 DUP2 MSTORE PUSH1 0x4 ADD PUSH1 0x40 MLOAD DUP1 SWAP2 SUB SWAP1 REVERT JUMPDEST POP POP POP JUMP JUMPDEST PUSH1 0x0 DUP1 SLOAD SWAP1 PUSH2 0x100 EXP SWAP1 DIV PUSH20 0xFFFFFFFFFFFFFFFFFFFFFFFFFFFFFFFFFFFFFFFF AND DUP2 JUMP JUMPDEST PUSH1 0x1 DUP1 SLOAD PUSH2 0x92A SWAP1 PUSH2 0x1052 JUMP JUMPDEST DUP1 PUSH1 0x1F ADD PUSH1 0x20 DUP1 SWAP2 DIV MUL PUSH1 0x20 ADD PUSH1 0x40 MLOAD SWAP1 DUP2 ADD PUSH1 0x40 MSTORE DUP1 SWAP3 SWAP2 SWAP1 DUP2 DUP2 MSTORE PUSH1 0x20 ADD DUP3 DUP1 SLOAD PUSH2 0x956 SWAP1 PUSH2 0x1052 JUMP JUMPDEST DUP1 ISZERO PUSH2 0x9A3 JUMPI DUP1 PUSH1 0x1F LT PUSH2 0x978 JUMPI PUSH2 0x100 DUP1 DUP4 SLOAD DIV MUL DUP4 MSTORE SWAP2 PUSH1 0x20 ADD SWAP2 PUSH2 0x9A3 JUMP JUMPDEST DUP3 ADD SWAP2 SWAP1 PUSH1 0x0 MSTORE PUSH1 0x20 PUSH1 0x0 KECCAK256 SWAP1 JUMPDEST DUP2 SLOAD DUP2 MSTORE SWAP1 PUSH1 0x1 ADD SWAP1 PUSH1 0x20 ADD DUP1 DUP4 GT PUSH2 0x986 JUMPI DUP3 SWAP1 SUB PUSH1 0x1F AND DUP3 ADD SWAP2 JUMPDEST POP POP POP POP POP DUP2 JUMP JUMPDEST PUSH1 0x0 DUP2 MLOAD SWAP1 POP SWAP2 SWAP1 POP JUMP JUMPDEST PUSH1 0x0 DUP3 DUP3 MSTORE PUSH1 0x20 DUP3 ADD SWAP1 POP SWAP3 SWAP2 POP POP JUMP JUMPDEST PUSH1 0x0 DUP2 SWAP1 POP PUSH1 0x20 DUP3 ADD SWAP1 POP SWAP2 SWAP1 POP JUMP JUMPDEST PUSH1 0x0 DUP2 MLOAD SWAP1 POP SWAP2 SWAP1 POP JUMP JUMPDEST PUSH1 0x0 DUP3 DUP3 MSTORE PUSH1 0x20 DUP3 ADD SWAP1 POP SWAP3 SWAP2 POP POP JUMP JUMPDEST PUSH1 0x0 JUMPDEST DUP4 DUP2 LT ISZERO PUSH2 0xA11 JUMPI DUP1 DUP3 ADD MLOAD DUP2 DUP5 ADD MSTORE PUSH1 0x20 DUP2 ADD SWAP1 POP PUSH2 0x9F6 JUMP JUMPDEST PUSH1 0x0 DUP5 DUP5 ADD MSTORE POP POP POP POP JUMP JUMPDEST PUSH1 0x0 PUSH1 0x1F NOT PUSH1 0x1F DUP4 ADD AND SWAP1 POP SWAP2 SWAP1 POP JUMP JUMPDEST PUSH1 0x0 PUSH2 0xA39 DUP3 PUSH2 0x9D7 JUMP JUMPDEST PUSH2 0xA43 DUP2 DUP6 PUSH2 0x9E2 JUMP JUMPDEST SWAP4 POP PUSH2 0xA53 DUP2 DUP6 PUSH1 0x20 DUP7 ADD PUSH2 0x9F3 JUMP JUMPDEST PUSH2 0xA5C DUP2 PUSH2 0xA1D JUMP JUMPDEST DUP5 ADD SWAP2 POP POP SWAP3 SWAP2 POP POP JUMP JUMPDEST PUSH1 0x0 DUP2 SWAP1 POP SWAP2 SWAP1 POP JUMP JUMPDEST PUSH2 0xA7A DUP2 PUSH2 0xA67 JUMP JUMPDEST DUP3 MSTORE POP POP JUMP JUMPDEST PUSH32 0x4E487B7100000000000000000000000000000000000000000000000000000000 PUSH1 0x0 MSTORE PUSH1 0x21 PUSH1 0x4 MSTORE PUSH1 0x24 PUSH1 0x0 REVERT JUMPDEST PUSH1 0x3 DUP2 LT PUSH2 0xAC0 JUMPI PUSH2 0xABF PUSH2 0xA80 JUMP JUMPDEST JUMPDEST POP JUMP JUMPDEST PUSH1 0x0 DUP2 SWAP1 POP PUSH2 0xAD1 DUP3 PUSH2 0xAAF JUMP JUMPDEST SWAP2 SWAP1 POP JUMP JUMPDEST PUSH1 0x0 PUSH2 0xAE1 DUP3 PUSH2 0xAC3 JUMP JUMPDEST SWAP1 POP SWAP2 SWAP1 POP JUMP JUMPDEST PUSH2 0xAF1 DUP2 PUSH2 0xAD6 JUMP JUMPDEST DUP3 MSTORE POP POP JUMP JUMPDEST PUSH1 0x0 PUSH20 0xFFFFFFFFFFFFFFFFFFFFFFFFFFFFFFFFFFFFFFFF DUP3 AND SWAP1 POP SWAP2 SWAP1 POP JUMP JUMPDEST PUSH1 0x0 PUSH2 0xB22 DUP3 PUSH2 0xAF7 JUMP JUMPDEST SWAP1 POP SWAP2 SWAP1 POP JUMP JUMPDEST PUSH2 0xB32 DUP2 PUSH2 0xB17 JUMP JUMPDEST DUP3 MSTORE POP POP JUMP JUMPDEST PUSH1 0x0 PUSH1 0x80 DUP4 ADD PUSH1 0x0 DUP4 ADD MLOAD DUP5 DUP3 SUB PUSH1 0x0 DUP7 ADD MSTORE PUSH2 0xB55 DUP3 DUP3 PUSH2 0xA2E JUMP JUMPDEST SWAP2 POP POP PUSH1 0x20 DUP4 ADD MLOAD PUSH2 0xB6A PUSH1 0x20 DUP7 ADD DUP3 PUSH2 0xA71 JUMP JUMPDEST POP PUSH1 0x40 DUP4 ADD MLOAD PUSH2 0xB7D PUSH1 0x40 DUP7 ADD DUP3 PUSH2 0xAE8 JUMP JUMPDEST POP PUSH1 0x60 DUP4 ADD MLOAD PUSH2 0xB90 PUSH1 0x60 DUP7 ADD DUP3 PUSH2 0xB29 JUMP JUMPDEST POP DUP1 SWAP2 POP POP SWAP3 SWAP2 POP POP JUMP JUMPDEST PUSH1 0x0 PUSH2 0xBA7 DUP4 DUP4 PUSH2 0xB38 JUMP JUMPDEST SWAP1 POP SWAP3 SWAP2 POP POP JUMP JUMPDEST PUSH1 0x0 PUSH1 0x20 DUP3 ADD SWAP1 POP SWAP2 SWAP1 POP JUMP JUMPDEST PUSH1 0x0 PUSH2 0xBC7 DUP3 PUSH2 0x9AB JUMP JUMPDEST PUSH2 0xBD1 DUP2 DUP6 PUSH2 0x9B6 JUMP JUMPDEST SWAP4 POP DUP4 PUSH1 0x20 DUP3 MUL DUP6 ADD PUSH2 0xBE3 DUP6 PUSH2 0x9C7 JUMP JUMPDEST DUP1 PUSH1 0x0 JUMPDEST DUP6 DUP2 LT ISZERO PUSH2 0xC1F JUMPI DUP5 DUP5 SUB DUP10 MSTORE DUP2 MLOAD PUSH2 0xC00 DUP6 DUP3 PUSH2 0xB9B JUMP JUMPDEST SWAP5 POP PUSH2 0xC0B DUP4 PUSH2 0xBAF JUMP JUMPDEST SWAP3 POP PUSH1 0x20 DUP11 ADD SWAP10 POP POP PUSH1 0x1 DUP2 ADD SWAP1 POP PUSH2 0xBE7 JUMP JUMPDEST POP DUP3 SWAP8 POP DUP8 SWAP6 POP POP POP POP POP POP SWAP3 SWAP2 POP POP JUMP JUMPDEST PUSH1 0x0 PUSH1 0x20 DUP3 ADD SWAP1 POP DUP2 DUP2 SUB PUSH1 0x0 DUP4 ADD MSTORE PUSH2 0xC4B DUP2 DUP5 PUSH2 0xBBC JUMP JUMPDEST SWAP1 POP SWAP3 SWAP2 POP POP JUMP JUMPDEST PUSH1 0x0 PUSH1 0x40 MLOAD SWAP1 POP SWAP1 JUMP JUMPDEST PUSH1 0x0 DUP1 REVERT JUMPDEST PUSH1 0x0 DUP1 REVERT JUMPDEST PUSH1 0x0 DUP1 REVERT JUMPDEST PUSH1 0x0 DUP1 REVERT JUMPDEST PUSH32 0x4E487B7100000000000000000000000000000000000000000000000000000000 PUSH1 0x0 MSTORE PUSH1 0x41 PUSH1 0x4 MSTORE PUSH1 0x24 PUSH1 0x0 REVERT JUMPDEST PUSH2 0xCA9 DUP3 PUSH2 0xA1D JUMP JUMPDEST DUP2 ADD DUP2 DUP2 LT PUSH8 0xFFFFFFFFFFFFFFFF DUP3 GT OR ISZERO PUSH2 0xCC8 JUMPI PUSH2 0xCC7 PUSH2 0xC71 JUMP JUMPDEST JUMPDEST DUP1 PUSH1 0x40 MSTORE POP POP POP JUMP JUMPDEST PUSH1 0x0 PUSH2 0xCDB PUSH2 0xC53 JUMP JUMPDEST SWAP1 POP PUSH2 0xCE7 DUP3 DUP3 PUSH2 0xCA0 JUMP JUMPDEST SWAP2 SWAP1 POP JUMP JUMPDEST PUSH1 0x0 PUSH8 0xFFFFFFFFFFFFFFFF DUP3 GT ISZERO PUSH2 0xD07 JUMPI PUSH2 0xD06 PUSH2 0xC71 JUMP JUMPDEST JUMPDEST PUSH2 0xD10 DUP3 PUSH2 0xA1D JUMP JUMPDEST SWAP1 POP PUSH1 0x20 DUP2 ADD SWAP1 POP SWAP2 SWAP1 POP JUMP JUMPDEST DUP3 DUP2 DUP4 CALLDATACOPY PUSH1 0x0 DUP4 DUP4 ADD MSTORE POP POP POP JUMP JUMPDEST PUSH1 0x0 PUSH2 0xD3F PUSH2 0xD3A DUP5 PUSH2 0xCEC JUMP JUMPDEST PUSH2 0xCD1 JUMP JUMPDEST SWAP1 POP DUP3 DUP2 MSTORE PUSH1 0x20 DUP2 ADD DUP5 DUP5 DUP5 ADD GT ISZERO PUSH2 0xD5B JUMPI PUSH2 0xD5A PUSH2 0xC6C JUMP JUMPDEST JUMPDEST PUSH2 0xD66 DUP5 DUP3 DUP6 PUSH2 0xD1D JUMP JUMPDEST POP SWAP4 SWAP3 POP POP POP JUMP JUMPDEST PUSH1 0x0 DUP3 PUSH1 0x1F DUP4 ADD SLT PUSH2 0xD83 JUMPI PUSH2 0xD82 PUSH2 0xC67 JUMP JUMPDEST JUMPDEST DUP2 CALLDATALOAD PUSH2 0xD93 DUP5 DUP3 PUSH1 0x20 DUP7 ADD PUSH2 0xD2C JUMP JUMPDEST SWAP2 POP POP SWAP3 SWAP2 POP POP JUMP JUMPDEST PUSH2 0xDA5 DUP2 PUSH2 0xA67 JUMP JUMPDEST DUP2 EQ PUSH2 0xDB0 JUMPI PUSH1 0x0 DUP1 REVERT JUMPDEST POP JUMP JUMPDEST PUSH1 0x0 DUP2 CALLDATALOAD SWAP1 POP PUSH2 0xDC2 DUP2 PUSH2 0xD9C JUMP JUMPDEST SWAP3 SWAP2 POP POP JUMP JUMPDEST PUSH1 0x3 DUP2 LT PUSH2 0xDD5 JUMPI PUSH1 0x0 DUP1 REVERT JUMPDEST POP JUMP JUMPDEST PUSH1 0x0 DUP2 CALLDATALOAD SWAP1 POP PUSH2 0xDE7 DUP2 PUSH2 0xDC8 JUMP JUMPDEST SWAP3 SWAP2 POP POP JUMP JUMPDEST PUSH1 0x0 DUP1 PUSH1 0x0 PUSH1 0x60 DUP5 DUP7 SUB SLT ISZERO PUSH2 0xE06 JUMPI PUSH2 0xE05 PUSH2 0xC5D JUMP JUMPDEST JUMPDEST PUSH1 0x0 DUP5 ADD CALLDATALOAD PUSH8 0xFFFFFFFFFFFFFFFF DUP2 GT ISZERO PUSH2 0xE24 JUMPI PUSH2 0xE23 PUSH2 0xC62 JUMP JUMPDEST JUMPDEST PUSH2 0xE30 DUP7 DUP3 DUP8 ADD PUSH2 0xD6E JUMP JUMPDEST SWAP4 POP POP PUSH1 0x20 PUSH2 0xE41 DUP7 DUP3 DUP8 ADD PUSH2 0xDB3 JUMP JUMPDEST SWAP3 POP POP PUSH1 0x40 PUSH2 0xE52 DUP7 DUP3 DUP8 ADD PUSH2 0xDD8 JUMP JUMPDEST SWAP2 POP POP SWAP3 POP SWAP3 POP SWAP3 JUMP JUMPDEST PUSH1 0x0 PUSH1 0x20 DUP3 DUP5 SUB SLT ISZERO PUSH2 0xE72 JUMPI PUSH2 0xE71 PUSH2 0xC5D JUMP JUMPDEST JUMPDEST PUSH1 0x0 PUSH2 0xE80 DUP5 DUP3 DUP6 ADD PUSH2 0xDB3 JUMP JUMPDEST SWAP2 POP POP SWAP3 SWAP2 POP POP JUMP JUMPDEST PUSH1 0x0 DUP3 DUP3 MSTORE PUSH1 0x20 DUP3 ADD SWAP1 POP SWAP3 SWAP2 POP POP JUMP JUMPDEST PUSH1 0x0 PUSH2 0xEA5 DUP3 PUSH2 0x9D7 JUMP JUMPDEST PUSH2 0xEAF DUP2 DUP6 PUSH2 0xE89 JUMP JUMPDEST SWAP4 POP PUSH2 0xEBF DUP2 DUP6 PUSH1 0x20 DUP7 ADD PUSH2 0x9F3 JUMP JUMPDEST PUSH2 0xEC8 DUP2 PUSH2 0xA1D JUMP JUMPDEST DUP5 ADD SWAP2 POP POP SWAP3 SWAP2 POP POP JUMP JUMPDEST PUSH2 0xEDC DUP2 PUSH2 0xA67 JUMP JUMPDEST DUP3 MSTORE POP POP JUMP JUMPDEST PUSH2 0xEEB DUP2 PUSH2 0xAD6 JUMP JUMPDEST DUP3 MSTORE POP POP JUMP JUMPDEST PUSH2 0xEFA DUP2 PUSH2 0xB17 JUMP JUMPDEST DUP3 MSTORE POP POP JUMP JUMPDEST PUSH1 0x0 PUSH1 0x80 DUP3 ADD SWAP1 POP DUP2 DUP2 SUB PUSH1 0x0 DUP4 ADD MSTORE PUSH2 0xF1A DUP2 DUP8 PUSH2 0xE9A JUMP JUMPDEST SWAP1 POP PUSH2 0xF29 PUSH1 0x20 DUP4 ADD DUP7 PUSH2 0xED3 JUMP JUMPDEST PUSH2 0xF36 PUSH1 0x40 DUP4 ADD DUP6 PUSH2 0xEE2 JUMP JUMPDEST PUSH2 0xF43 PUSH1 0x60 DUP4 ADD DUP5 PUSH2 0xEF1 JUMP JUMPDEST SWAP6 SWAP5 POP POP POP POP POP JUMP JUMPDEST PUSH1 0x0 PUSH2 0xF57 DUP3 PUSH2 0xAF7 JUMP JUMPDEST SWAP1 POP SWAP2 SWAP1 POP JUMP JUMPDEST PUSH2 0xF67 DUP2 PUSH2 0xF4C JUMP JUMPDEST DUP2 EQ PUSH2 0xF72 JUMPI PUSH1 0x0 DUP1 REVERT JUMPDEST POP JUMP JUMPDEST PUSH1 0x0 DUP2 CALLDATALOAD SWAP1 POP PUSH2 0xF84 DUP2 PUSH2 0xF5E JUMP JUMPDEST SWAP3 SWAP2 POP POP JUMP JUMPDEST PUSH1 0x0 DUP1 PUSH1 0x40 DUP4 DUP6 SUB SLT ISZERO PUSH2 0xFA1 JUMPI PUSH2 0xFA0 PUSH2 0xC5D JUMP JUMPDEST JUMPDEST PUSH1 0x0 DUP4 ADD CALLDATALOAD PUSH8 0xFFFFFFFFFFFFFFFF DUP2 GT ISZERO PUSH2 0xFBF JUMPI PUSH2 0xFBE PUSH2 0xC62 JUMP JUMPDEST JUMPDEST PUSH2 0xFCB DUP6 DUP3 DUP7 ADD PUSH2 0xD6E JUMP JUMPDEST SWAP3 POP POP PUSH1 0x20 PUSH2 0xFDC DUP6 DUP3 DUP7 ADD PUSH2 0xF75 JUMP JUMPDEST SWAP2 POP POP SWAP3 POP SWAP3 SWAP1 POP JUMP JUMPDEST PUSH1 0x0 PUSH1 0x20 DUP3 ADD SWAP1 POP PUSH2 0xFFB PUSH1 0x0 DUP4 ADD DUP5 PUSH2 0xEF1 JUMP JUMPDEST SWAP3 SWAP2 POP POP JUMP JUMPDEST PUSH1 0x0 PUSH1 0x20 DUP3 ADD SWAP1 POP DUP2 DUP2 SUB PUSH1 0x0 DUP4 ADD MSTORE PUSH2 0x101B DUP2 DUP5 PUSH2 0xE9A JUMP JUMPDEST SWAP1 POP SWAP3 SWAP2 POP POP JUMP JUMPDEST PUSH32 0x4E487B7100000000000000000000000000000000000000000000000000000000 PUSH1 0x0 MSTORE PUSH1 0x22 PUSH1 0x4 MSTORE PUSH1 0x24 PUSH1 0x0 REVERT JUMPDEST PUSH1 0x0 PUSH1 0x2 DUP3 DIV SWAP1 POP PUSH1 0x1 DUP3 AND DUP1 PUSH2 0x106A JUMPI PUSH1 0x7F DUP3 AND SWAP2 POP JUMPDEST PUSH1 0x20 DUP3 LT DUP2 SUB PUSH2 0x107D JUMPI PUSH2 0x107C PUSH2 0x1023 JUMP JUMPDEST JUMPDEST POP SWAP2 SWAP1 POP JUMP JUMPDEST PUSH1 0x0 DUP2 SWAP1 POP DUP2 PUSH1 0x0 MSTORE PUSH1 0x20 PUSH1 0x0 KECCAK256 SWAP1 POP SWAP2 SWAP1 POP JUMP JUMPDEST PUSH1 0x0 PUSH1 0x20 PUSH1 0x1F DUP4 ADD DIV SWAP1 POP SWAP2 SWAP1 POP JUMP JUMPDEST PUSH1 0x0 DUP3 DUP3 SHL SWAP1 POP SWAP3 SWAP2 POP POP JUMP JUMPDEST PUSH1 0x0 PUSH1 0x8 DUP4 MUL PUSH2 0x10E5 PUSH32 0xFFFFFFFFFFFFFFFFFFFFFFFFFFFFFFFFFFFFFFFFFFFFFFFFFFFFFFFFFFFFFFFF DUP3 PUSH2 0x10A8 JUMP JUMPDEST PUSH2 0x10EF DUP7 DUP4 PUSH2 0x10A8 JUMP JUMPDEST SWAP6 POP DUP1 NOT DUP5 AND SWAP4 POP DUP1 DUP7 AND DUP5 OR SWAP3 POP POP POP SWAP4 SWAP3 POP POP POP JUMP JUMPDEST PUSH1 0x0 DUP2 SWAP1 POP SWAP2 SWAP1 POP JUMP JUMPDEST PUSH1 0x0 PUSH2 0x112C PUSH2 0x1127 PUSH2 0x1122 DUP5 PUSH2 0xA67 JUMP JUMPDEST PUSH2 0x1107 JUMP JUMPDEST PUSH2 0xA67 JUMP JUMPDEST SWAP1 POP SWAP2 SWAP1 POP JUMP JUMPDEST PUSH1 0x0 DUP2 SWAP1 POP SWAP2 SWAP1 POP JUMP JUMPDEST PUSH2 0x1146 DUP4 PUSH2 0x1111 JUMP JUMPDEST PUSH2 0x115A PUSH2 0x1152 DUP3 PUSH2 0x1133 JUMP JUMPDEST DUP5 DUP5 SLOAD PUSH2 0x10B5 JUMP JUMPDEST DUP3 SSTORE POP POP POP POP JUMP JUMPDEST PUSH1 0x0 SWAP1 JUMP JUMPDEST PUSH2 0x116F PUSH2 0x1162 JUMP JUMPDEST PUSH2 0x117A DUP2 DUP5 DUP5 PUSH2 0x113D JUMP JUMPDEST POP POP POP JUMP JUMPDEST JUMPDEST DUP2 DUP2 LT ISZERO PUSH2 0x119E JUMPI PUSH2 0x1193 PUSH1 0x0 DUP3 PUSH2 0x1167 JUMP JUMPDEST PUSH1 0x1 DUP2 ADD SWAP1 POP PUSH2 0x1180 JUMP JUMPDEST POP POP JUMP JUMPDEST PUSH1 0x1F DUP3 GT ISZERO PUSH2 0x11E3 JUMPI PUSH2 0x11B4 DUP2 PUSH2 0x1083 JUMP JUMPDEST PUSH2 0x11BD DUP5 PUSH2 0x1098 JUMP JUMPDEST DUP2 ADD PUSH1 0x20 DUP6 LT ISZERO PUSH2 0x11CC JUMPI DUP2 SWAP1 POP JUMPDEST PUSH2 0x11E0 PUSH2 0x11D8 DUP6 PUSH2 0x1098 JUMP JUMPDEST DUP4 ADD DUP3 PUSH2 0x117F JUMP JUMPDEST POP POP JUMPDEST POP POP POP JUMP JUMPDEST PUSH1 0x0 DUP3 DUP3 SHR SWAP1 POP SWAP3 SWAP2 POP POP JUMP JUMPDEST PUSH1 0x0 PUSH2 0x1206 PUSH1 0x0 NOT DUP5 PUSH1 0x8 MUL PUSH2 0x11E8 JUMP JUMPDEST NOT DUP1 DUP4 AND SWAP2 POP POP SWAP3 SWAP2 POP POP JUMP JUMPDEST PUSH1 0x0 PUSH2 0x121F DUP4 DUP4 PUSH2 0x11F5 JUMP JUMPDEST SWAP2 POP DUP3 PUSH1 0x2 MUL DUP3 OR SWAP1 POP SWAP3 SWAP2 POP POP JUMP JUMPDEST PUSH2 0x1238 DUP3 PUSH2 0x9D7 JUMP JUMPDEST PUSH8 0xFFFFFFFFFFFFFFFF DUP2 GT ISZERO PUSH2 0x1251 JUMPI PUSH2 0x1250 PUSH2 0xC71 JUMP JUMPDEST JUMPDEST PUSH2 0x125B DUP3 SLOAD PUSH2 0x1052 JUMP JUMPDEST PUSH2 0x1266 DUP3 DUP3 DUP6 PUSH2 0x11A2 JUMP JUMPDEST PUSH1 0x0 PUSH1 0x20 SWAP1 POP PUSH1 0x1F DUP4 GT PUSH1 0x1 DUP2 EQ PUSH2 0x1299 JUMPI PUSH1 0x0 DUP5 ISZERO PUSH2 0x1287 JUMPI DUP3 DUP8 ADD MLOAD SWAP1 POP JUMPDEST PUSH2 0x1291 DUP6 DUP3 PUSH2 0x1213 JUMP JUMPDEST DUP7 SSTORE POP PUSH2 0x12F9 JUMP JUMPDEST PUSH1 0x1F NOT DUP5 AND PUSH2 0x12A7 DUP7 PUSH2 0x1083 JUMP JUMPDEST PUSH1 0x0 JUMPDEST DUP3 DUP2 LT ISZERO PUSH2 0x12CF JUMPI DUP5 DUP10 ADD MLOAD DUP3 SSTORE PUSH1 0x1 DUP3 ADD SWAP2 POP PUSH1 0x20 DUP6 ADD SWAP5 POP PUSH1 0x20 DUP2 ADD SWAP1 POP PUSH2 0x12AA JUMP JUMPDEST DUP7 DUP4 LT ISZERO PUSH2 0x12EC JUMPI DUP5 DUP10 ADD MLOAD PUSH2 0x12E8 PUSH1 0x1F DUP10 AND DUP3 PUSH2 0x11F5 JUMP JUMPDEST DUP4 SSTORE POP JUMPDEST PUSH1 0x1 PUSH1 0x2 DUP9 MUL ADD DUP9 SSTORE POP POP POP JUMPDEST POP POP POP POP POP POP JUMP JUMPDEST PUSH1 0x0 DUP2 SWAP1 POP SWAP3 SWAP2 POP POP JUMP JUMPDEST PUSH1 0x0 PUSH2 0x1317 DUP3 PUSH2 0x9D7 JUMP JUMPDEST PUSH2 0x1321 DUP2 DUP6 PUSH2 0x1301 JUMP JUMPDEST SWAP4 POP PUSH2 0x1331 DUP2 DUP6 PUSH1 0x20 DUP7 ADD PUSH2 0x9F3 JUMP JUMPDEST DUP1 DUP5 ADD SWAP2 POP POP SWAP3 SWAP2 POP POP JUMP JUMPDEST PUSH1 0x0 PUSH2 0x1349 DUP3 DUP5 PUSH2 0x130C JUMP JUMPDEST SWAP2 POP DUP2 SWAP1 POP SWAP3 SWAP2 POP POP JUMP JUMPDEST PUSH32 0x4E487B7100000000000000000000000000000000000000000000000000000000 PUSH1 0x0 MSTORE PUSH1 0x32 PUSH1 0x4 MSTORE PUSH1 0x24 PUSH1 0x0 REVERT JUMPDEST PUSH1 0x0 DUP2 SLOAD PUSH2 0x1390 DUP2 PUSH2 0x1052 JUMP JUMPDEST PUSH2 0x139A DUP2 DUP7 PUSH2 0x1301 JUMP JUMPDEST SWAP5 POP PUSH1 0x1 DUP3 AND PUSH1 0x0 DUP2 EQ PUSH2 0x13B5 JUMPI PUSH1 0x1 DUP2 EQ PUSH2 0x13CA JUMPI PUSH2 0x13FD JUMP JUMPDEST PUSH1 0xFF NOT DUP4 AND DUP7 MSTORE DUP2 ISZERO ISZERO DUP3 MUL DUP7 ADD SWAP4 POP PUSH2 0x13FD JUMP JUMPDEST PUSH2 0x13D3 DUP6 PUSH2 0x1083 JUMP JUMPDEST PUSH1 0x0 JUMPDEST DUP4 DUP2 LT ISZERO PUSH2 0x13F5 JUMPI DUP2 SLOAD DUP2 DUP10 ADD MSTORE PUSH1 0x1 DUP3 ADD SWAP2 POP PUSH1 0x20 DUP2 ADD SWAP1 POP PUSH2 0x13D6 JUMP JUMPDEST DUP4 DUP9 ADD SWAP6 POP POP POP JUMPDEST POP POP POP SWAP3 SWAP2 POP POP JUMP JUMPDEST PUSH1 0x0 PUSH2 0x1412 DUP3 DUP5 PUSH2 0x1383 JUMP JUMPDEST SWAP2 POP DUP2 SWAP1 POP SWAP3 SWAP2 POP POP JUMP JUMPDEST PUSH32 0x54656163686572206E6F7420656C696769626C6520666F722073616C61727900 PUSH1 0x0 DUP3 ADD MSTORE POP JUMP JUMPDEST PUSH1 0x0 PUSH2 0x1453 PUSH1 0x1F DUP4 PUSH2 0xE89 JUMP JUMPDEST SWAP2 POP PUSH2 0x145E DUP3 PUSH2 0x141D JUMP JUMPDEST PUSH1 0x20 DUP3 ADD SWAP1 POP SWAP2 SWAP1 POP JUMP JUMPDEST PUSH1 0x0 PUSH1 0x20 DUP3 ADD SWAP1 POP DUP2 DUP2 SUB PUSH1 0x0 DUP4 ADD MSTORE PUSH2 0x1482 DUP2 PUSH2 0x1446 JUMP JUMPDEST SWAP1 POP SWAP2 SWAP1 POP JUMP INVALID LOG2 PUSH5 0x6970667358 0x22 SLT KECCAK256 RETURNDATASIZE 0xB3 SWAP16 0xB0 0xEE 0xE 0xFC PUSH30 0x48791C01198F25ECDDACE5EFEBF68F38B9C4CDF6E9A01B6064736F6C6343 STOP ADDMOD SHR STOP CALLER "
        },
        "methodIdentifiers": {
          "PaySalary(string,address)": "57083087",
          "RegisterTeacher(string,uint256,uint8)": "2f8cebdf",
          "Teachers(uint256)": "5595e705",
          "ViewTeachers()": "03e70263",
          "companyName()": "f5ec2eed",
          "owner()": "8da5cb5b"
        }
      }
    }
  }
}