{
  "contracts/TMS.sol": {
    "TMS": {
      "abi": [
        {
          "inputs": [],
          "stateMutability": "nonpayable",
          "type": "constructor"
        },
        {
          "inputs": [],
          "name": "NOT_FOUND",
          "type": "error"
        },
        {
          "stateMutability": "nonpayable",
          "type": "fallback"
        },
        {
          "inputs": [
            {
              "internalType": "string",
              "name": "_name",
              "type": "string"
            },
            {
              "internalType": "address payable",
              "name": "_to",
              "type": "address"
            }
          ],
          "name": "PaySalary",
          "outputs": [],
          "stateMutability": "nonpayable",
          "type": "function"
        },
        {
          "inputs": [
            {
              "internalType": "string",
              "name": "_name",
              "type": "string"
            },
            {
              "internalType": "uint256",
              "name": "_salary",
              "type": "uint256"
            },
            {
              "internalType": "enum ITMS.Status",
              "name": "_status",
              "type": "uint8"
            }
          ],
          "name": "RegisterTeacher",
          "outputs": [
            {
              "components": [
                {
                  "internalType": "string",
                  "name": "name",
                  "type": "string"
                },
                {
                  "internalType": "uint256",
                  "name": "salary",
                  "type": "uint256"
                },
                {
                  "internalType": "enum ITMS.Status",
                  "name": "status",
                  "type": "uint8"
                }
              ],
              "internalType": "struct ITMS.Teacher[]",
              "name": "",
              "type": "tuple[]"
            }
          ],
          "stateMutability": "nonpayable",
          "type": "function"
        },
        {
          "inputs": [
            {
              "internalType": "uint256",
              "name": "",
              "type": "uint256"
            }
          ],
          "name": "Teachers",
          "outputs": [
            {
              "internalType": "string",
              "name": "name",
              "type": "string"
            },
            {
              "internalType": "uint256",
              "name": "salary",
              "type": "uint256"
            },
            {
              "internalType": "enum ITMS.Status",
              "name": "status",
              "type": "uint8"
            }
          ],
          "stateMutability": "view",
          "type": "function"
        },
        {
          "inputs": [],
          "name": "ViewTeachers",
          "outputs": [
            {
              "components": [
                {
                  "internalType": "string",
                  "name": "name",
                  "type": "string"
                },
                {
                  "internalType": "uint256",
                  "name": "salary",
                  "type": "uint256"
                },
                {
                  "internalType": "enum ITMS.Status",
                  "name": "status",
                  "type": "uint8"
                }
              ],
              "internalType": "struct ITMS.Teacher[]",
              "name": "",
              "type": "tuple[]"
            }
          ],
          "stateMutability": "view",
          "type": "function"
        },
        {
          "inputs": [],
          "name": "owner",
          "outputs": [
            {
              "internalType": "address",
              "name": "",
              "type": "address"
            }
          ],
          "stateMutability": "view",
          "type": "function"
        },
        {
          "stateMutability": "payable",
          "type": "receive"
        }
      ],
      "evm": {
        "bytecode": {
          "linkReferences": {},
          "object": "6080604052348015600f57600080fd5b50336000806101000a81548173ffffffffffffffffffffffffffffffffffffffff021916908373ffffffffffffffffffffffffffffffffffffffff1602179055506112738061005f6000396000f3fe60806040526004361061004e5760003560e01c806303e70263146100635780632f8cebdf1461008e5780635595e705146100cb578063570830871461010a5780638da5cb5b1461013357610055565b3661005557005b34801561006157600080fd5b005b34801561006f57600080fd5b5061007861015e565b60405161008591906109e3565b60405180910390f35b34801561009a57600080fd5b506100b560048036038101906100b09190610b9f565b610294565b6040516100c291906109e3565b60405180910390f35b3480156100d757600080fd5b506100f260048036038101906100ed9190610c0e565b61047e565b60405161010193929190610ca3565b60405180910390f35b34801561011657600080fd5b50610131600480360381019061012c9190610d3f565b61054d565b005b34801561013f57600080fd5b5061014861078d565b6040516101559190610dbc565b60405180910390f35b60606001805480602002602001604051908101604052809291908181526020016000905b8282101561028b57838290600052602060002090600302016040518060600160405290816000820180546101b590610e06565b80601f01602080910402602001604051908101604052809291908181526020018280546101e190610e06565b801561022e5780601f106102035761010080835404028352916020019161022e565b820191906000526020600020905b81548152906001019060200180831161021157829003601f168201915b50505050508152602001600182015481526020016002820160009054906101000a900460ff16600281111561026657610265610886565b5b600281111561027857610277610886565b5b8152505081526020019060010190610182565b50505050905090565b6060600060405180606001604052808681526020018581526020018460028111156102c2576102c1610886565b5b8152509050600181908060018154018082558091505060019003906000526020600020906003020160009091909190915060008201518160000190816103089190610fe3565b506020820151816001015560408201518160020160006101000a81548160ff0219169083600281111561033e5761033d610886565b5b021790555050506001805480602002602001604051908101604052809291908181526020016000905b82821015610470578382906000526020600020906003020160405180606001604052908160008201805461039a90610e06565b80601f01602080910402602001604051908101604052809291908181526020018280546103c690610e06565b80156104135780601f106103e857610100808354040283529160200191610413565b820191906000526020600020905b8154815290600101906020018083116103f657829003601f168201915b50505050508152602001600182015481526020016002820160009054906101000a900460ff16600281111561044b5761044a610886565b5b600281111561045d5761045c610886565b5b8152505081526020019060010190610367565b505050509150509392505050565b6001818154811061048e57600080fd5b90600052602060002090600302016000915090508060000180546104b190610e06565b80601f01602080910402602001604051908101604052809291908181526020018280546104dd90610e06565b801561052a5780601f106104ff5761010080835404028352916020019161052a565b820191906000526020600020905b81548152906001019060200180831161050d57829003601f168201915b5050505050908060010154908060020160009054906101000a900460ff16905083565b6000805b600180549050811015610750578360405160200161056f91906110f1565b604051602081830303815290604052805190602001206001828154811061059957610598611108565b5b90600052602060002090600302016000016040516020016105ba91906111ba565b604051602081830303815290604052805190602001200361074357600060028111156105e9576105e8610886565b5b600182815481106105fd576105fc611108565b5b906000526020600020906003020160020160009054906101000a900460ff16600281111561062e5761062d610886565b5b148061068f575060028081111561064857610647610886565b5b6001828154811061065c5761065b611108565b5b906000526020600020906003020160020160009054906101000a900460ff16600281111561068d5761068c610886565b5b145b6106ce576040517f08c379a00000000000000000000000000000000000000000000000000000000081526004016106c59061121d565b60405180910390fd5b8273ffffffffffffffffffffffffffffffffffffffff166108fc600183815481106106fc576106fb611108565b5b9060005260206000209060030201600101549081150290604051600060405180830381858888f19350505050158015610739573d6000803e3d6000fd5b5060019150610750565b8080600101915050610551565b5080610788576040517f5ffce20a00000000000000000000000000000000000000000000000000000000815260040160405180910390fd5b505050565b60008054906101000a900473ffffffffffffffffffffffffffffffffffffffff1681565b600081519050919050565b600082825260208201905092915050565b6000819050602082019050919050565b600081519050919050565b600082825260208201905092915050565b60005b838110156108175780820151818401526020810190506107fc565b60008484015250505050565b6000601f19601f8301169050919050565b600061083f826107dd565b61084981856107e8565b93506108598185602086016107f9565b61086281610823565b840191505092915050565b6000819050919050565b6108808161086d565b82525050565b7f4e487b7100000000000000000000000000000000000000000000000000000000600052602160045260246000fd5b600381106108c6576108c5610886565b5b50565b60008190506108d7826108b5565b919050565b60006108e7826108c9565b9050919050565b6108f7816108dc565b82525050565b6000606083016000830151848203600086015261091a8282610834565b915050602083015161092f6020860182610877565b50604083015161094260408601826108ee565b508091505092915050565b600061095983836108fd565b905092915050565b6000602082019050919050565b6000610979826107b1565b61098381856107bc565b935083602082028501610995856107cd565b8060005b858110156109d157848403895281516109b2858261094d565b94506109bd83610961565b925060208a01995050600181019050610999565b50829750879550505050505092915050565b600060208201905081810360008301526109fd818461096e565b905092915050565b6000604051905090565b600080fd5b600080fd5b600080fd5b600080fd5b7f4e487b7100000000000000000000000000000000000000000000000000000000600052604160045260246000fd5b610a5b82610823565b810181811067ffffffffffffffff82111715610a7a57610a79610a23565b5b80604052505050565b6000610a8d610a05565b9050610a998282610a52565b919050565b600067ffffffffffffffff821115610ab957610ab8610a23565b5b610ac282610823565b9050602081019050919050565b82818337600083830152505050565b6000610af1610aec84610a9e565b610a83565b905082815260208101848484011115610b0d57610b0c610a1e565b5b610b18848285610acf565b509392505050565b600082601f830112610b3557610b34610a19565b5b8135610b45848260208601610ade565b91505092915050565b610b578161086d565b8114610b6257600080fd5b50565b600081359050610b7481610b4e565b92915050565b60038110610b8757600080fd5b50565b600081359050610b9981610b7a565b92915050565b600080600060608486031215610bb857610bb7610a0f565b5b600084013567ffffffffffffffff811115610bd657610bd5610a14565b5b610be286828701610b20565b9350506020610bf386828701610b65565b9250506040610c0486828701610b8a565b9150509250925092565b600060208284031215610c2457610c23610a0f565b5b6000610c3284828501610b65565b91505092915050565b600082825260208201905092915050565b6000610c57826107dd565b610c618185610c3b565b9350610c718185602086016107f9565b610c7a81610823565b840191505092915050565b610c8e8161086d565b82525050565b610c9d816108dc565b82525050565b60006060820190508181036000830152610cbd8186610c4c565b9050610ccc6020830185610c85565b610cd96040830184610c94565b949350505050565b600073ffffffffffffffffffffffffffffffffffffffff82169050919050565b6000610d0c82610ce1565b9050919050565b610d1c81610d01565b8114610d2757600080fd5b50565b600081359050610d3981610d13565b92915050565b60008060408385031215610d5657610d55610a0f565b5b600083013567ffffffffffffffff811115610d7457610d73610a14565b5b610d8085828601610b20565b9250506020610d9185828601610d2a565b9150509250929050565b6000610da682610ce1565b9050919050565b610db681610d9b565b82525050565b6000602082019050610dd16000830184610dad565b92915050565b7f4e487b7100000000000000000000000000000000000000000000000000000000600052602260045260246000fd5b60006002820490506001821680610e1e57607f821691505b602082108103610e3157610e30610dd7565b5b50919050565b60008190508160005260206000209050919050565b60006020601f8301049050919050565b600082821b905092915050565b600060088302610e997fffffffffffffffffffffffffffffffffffffffffffffffffffffffffffffffff82610e5c565b610ea38683610e5c565b95508019841693508086168417925050509392505050565b6000819050919050565b6000610ee0610edb610ed68461086d565b610ebb565b61086d565b9050919050565b6000819050919050565b610efa83610ec5565b610f0e610f0682610ee7565b848454610e69565b825550505050565b600090565b610f23610f16565b610f2e818484610ef1565b505050565b5b81811015610f5257610f47600082610f1b565b600181019050610f34565b5050565b601f821115610f9757610f6881610e37565b610f7184610e4c565b81016020851015610f80578190505b610f94610f8c85610e4c565b830182610f33565b50505b505050565b600082821c905092915050565b6000610fba60001984600802610f9c565b1980831691505092915050565b6000610fd38383610fa9565b9150826002028217905092915050565b610fec826107dd565b67ffffffffffffffff81111561100557611004610a23565b5b61100f8254610e06565b61101a828285610f56565b600060209050601f83116001811461104d576000841561103b578287015190505b6110458582610fc7565b8655506110ad565b601f19841661105b86610e37565b60005b828110156110835784890151825560018201915060208501945060208101905061105e565b868310156110a0578489015161109c601f891682610fa9565b8355505b6001600288020188555050505b505050505050565b600081905092915050565b60006110cb826107dd565b6110d581856110b5565b93506110e58185602086016107f9565b80840191505092915050565b60006110fd82846110c0565b915081905092915050565b7f4e487b7100000000000000000000000000000000000000000000000000000000600052603260045260246000fd5b6000815461114481610e06565b61114e81866110b5565b94506001821660008114611169576001811461117e576111b1565b60ff19831686528115158202860193506111b1565b61118785610e37565b60005b838110156111a95781548189015260018201915060208101905061118a565b838801955050505b50505092915050565b60006111c68284611137565b915081905092915050565b7f54656163686572206e6f7420656c696769626c6520666f722073616c61727900600082015250565b6000611207601f83610c3b565b9150611212826111d1565b602082019050919050565b60006020820190508181036000830152611236816111fa565b905091905056fea2646970667358221220bd9271d4773cde61717fae2f69d779c4e760ed9235a2d3c3ebad7fc4b439bfac64736f6c634300081c0033",
          "opcodes": "PUSH1 0x80 PUSH1 0x40 MSTORE CALLVALUE DUP1 ISZERO PUSH1 0xF JUMPI PUSH1 0x0 DUP1 REVERT JUMPDEST POP CALLER PUSH1 0x0 DUP1 PUSH2 0x100 EXP DUP2 SLOAD DUP2 PUSH20 0xFFFFFFFFFFFFFFFFFFFFFFFFFFFFFFFFFFFFFFFF MUL NOT AND SWAP1 DUP4 PUSH20 0xFFFFFFFFFFFFFFFFFFFFFFFFFFFFFFFFFFFFFFFF AND MUL OR SWAP1 SSTORE POP PUSH2 0x1273 DUP1 PUSH2 0x5F PUSH1 0x0 CODECOPY PUSH1 0x0 RETURN INVALID PUSH1 0x80 PUSH1 0x40 MSTORE PUSH1 0x4 CALLDATASIZE LT PUSH2 0x4E JUMPI PUSH1 0x0 CALLDATALOAD PUSH1 0xE0 SHR DUP1 PUSH4 0x3E70263 EQ PUSH2 0x63 JUMPI DUP1 PUSH4 0x2F8CEBDF EQ PUSH2 0x8E JUMPI DUP1 PUSH4 0x5595E705 EQ PUSH2 0xCB JUMPI DUP1 PUSH4 0x57083087 EQ PUSH2 0x10A JUMPI DUP1 PUSH4 0x8DA5CB5B EQ PUSH2 0x133 JUMPI PUSH2 0x55 JUMP JUMPDEST CALLDATASIZE PUSH2 0x55 JUMPI STOP JUMPDEST CALLVALUE DUP1 ISZERO PUSH2 0x61 JUMPI PUSH1 0x0 DUP1 REVERT JUMPDEST STOP JUMPDEST CALLVALUE DUP1 ISZERO PUSH2 0x6F JUMPI PUSH1 0x0 DUP1 REVERT JUMPDEST POP PUSH2 0x78 PUSH2 0x15E JUMP JUMPDEST PUSH1 0x40 MLOAD PUSH2 0x85 SWAP2 SWAP1 PUSH2 0x9E3 JUMP JUMPDEST PUSH1 0x40 MLOAD DUP1 SWAP2 SUB SWAP1 RETURN JUMPDEST CALLVALUE DUP1 ISZERO PUSH2 0x9A JUMPI PUSH1 0x0 DUP1 REVERT JUMPDEST POP PUSH2 0xB5 PUSH1 0x4 DUP1 CALLDATASIZE SUB DUP2 ADD SWAP1 PUSH2 0xB0 SWAP2 SWAP1 PUSH2 0xB9F JUMP JUMPDEST PUSH2 0x294 JUMP JUMPDEST PUSH1 0x40 MLOAD PUSH2 0xC2 SWAP2 SWAP1 PUSH2 0x9E3 JUMP JUMPDEST PUSH1 0x40 MLOAD DUP1 SWAP2 SUB SWAP1 RETURN JUMPDEST CALLVALUE DUP1 ISZERO PUSH2 0xD7 JUMPI PUSH1 0x0 DUP1 REVERT JUMPDEST POP PUSH2 0xF2 PUSH1 0x4 DUP1 CALLDATASIZE SUB DUP2 ADD SWAP1 PUSH2 0xED SWAP2 SWAP1 PUSH2 0xC0E JUMP JUMPDEST PUSH2 0x47E JUMP JUMPDEST PUSH1 0x40 MLOAD PUSH2 0x101 SWAP4 SWAP3 SWAP2 SWAP1 PUSH2 0xCA3 JUMP JUMPDEST PUSH1 0x40 MLOAD DUP1 SWAP2 SUB SWAP1 RETURN JUMPDEST CALLVALUE DUP1 ISZERO PUSH2 0x116 JUMPI PUSH1 0x0 DUP1 REVERT JUMPDEST POP PUSH2 0x131 PUSH1 0x4 DUP1 CALLDATASIZE SUB DUP2 ADD SWAP1 PUSH2 0x12C SWAP2 SWAP1 PUSH2 0xD3F JUMP JUMPDEST PUSH2 0x54D JUMP JUMPDEST STOP JUMPDEST CALLVALUE DUP1 ISZERO PUSH2 0x13F JUMPI PUSH1 0x0 DUP1 REVERT JUMPDEST POP PUSH2 0x148 PUSH2 0x78D JUMP JUMPDEST PUSH1 0x40 MLOAD PUSH2 0x155 SWAP2 SWAP1 PUSH2 0xDBC JUMP JUMPDEST PUSH1 0x40 MLOAD DUP1 SWAP2 SUB SWAP1 RETURN JUMPDEST PUSH1 0x60 PUSH1 0x1 DUP1 SLOAD DUP1 PUSH1 0x20 MUL PUSH1 0x20 ADD PUSH1 0x40 MLOAD SWAP1 DUP2 ADD PUSH1 0x40 MSTORE DUP1 SWAP3 SWAP2 SWAP1 DUP2 DUP2 MSTORE PUSH1 0x20 ADD PUSH1 0x0 SWAP1 JUMPDEST DUP3 DUP3 LT ISZERO PUSH2 0x28B JUMPI DUP4 DUP3 SWAP1 PUSH1 0x0 MSTORE PUSH1 0x20 PUSH1 0x0 KECCAK256 SWAP1 PUSH1 0x3 MUL ADD PUSH1 0x40 MLOAD DUP1 PUSH1 0x60 ADD PUSH1 0x40 MSTORE SWAP1 DUP2 PUSH1 0x0 DUP3 ADD DUP1 SLOAD PUSH2 0x1B5 SWAP1 PUSH2 0xE06 JUMP JUMPDEST DUP1 PUSH1 0x1F ADD PUSH1 0x20 DUP1 SWAP2 DIV MUL PUSH1 0x20 ADD PUSH1 0x40 MLOAD SWAP1 DUP2 ADD PUSH1 0x40 MSTORE DUP1 SWAP3 SWAP2 SWAP1 DUP2 DUP2 MSTORE PUSH1 0x20 ADD DUP3 DUP1 SLOAD PUSH2 0x1E1 SWAP1 PUSH2 0xE06 JUMP JUMPDEST DUP1 ISZERO PUSH2 0x22E JUMPI DUP1 PUSH1 0x1F LT PUSH2 0x203 JUMPI PUSH2 0x100 DUP1 DUP4 SLOAD DIV MUL DUP4 MSTORE SWAP2 PUSH1 0x20 ADD SWAP2 PUSH2 0x22E JUMP JUMPDEST DUP3 ADD SWAP2 SWAP1 PUSH1 0x0 MSTORE PUSH1 0x20 PUSH1 0x0 KECCAK256 SWAP1 JUMPDEST DUP2 SLOAD DUP2 MSTORE SWAP1 PUSH1 0x1 ADD SWAP1 PUSH1 0x20 ADD DUP1 DUP4 GT PUSH2 0x211 JUMPI DUP3 SWAP1 SUB PUSH1 0x1F AND DUP3 ADD SWAP2 JUMPDEST POP POP POP POP POP DUP2 MSTORE PUSH1 0x20 ADD PUSH1 0x1 DUP3 ADD SLOAD DUP2 MSTORE PUSH1 0x20 ADD PUSH1 0x2 DUP3 ADD PUSH1 0x0 SWAP1 SLOAD SWAP1 PUSH2 0x100 EXP SWAP1 DIV PUSH1 0xFF AND PUSH1 0x2 DUP2 GT ISZERO PUSH2 0x266 JUMPI PUSH2 0x265 PUSH2 0x886 JUMP JUMPDEST JUMPDEST PUSH1 0x2 DUP2 GT ISZERO PUSH2 0x278 JUMPI PUSH2 0x277 PUSH2 0x886 JUMP JUMPDEST JUMPDEST DUP2 MSTORE POP POP DUP2 MSTORE PUSH1 0x20 ADD SWAP1 PUSH1 0x1 ADD SWAP1 PUSH2 0x182 JUMP JUMPDEST POP POP POP POP SWAP1 POP SWAP1 JUMP JUMPDEST PUSH1 0x60 PUSH1 0x0 PUSH1 0x40 MLOAD DUP1 PUSH1 0x60 ADD PUSH1 0x40 MSTORE DUP1 DUP7 DUP2 MSTORE PUSH1 0x20 ADD DUP6 DUP2 MSTORE PUSH1 0x20 ADD DUP5 PUSH1 0x2 DUP2 GT ISZERO PUSH2 0x2C2 JUMPI PUSH2 0x2C1 PUSH2 0x886 JUMP JUMPDEST JUMPDEST DUP2 MSTORE POP SWAP1 POP PUSH1 0x1 DUP2 SWAP1 DUP1 PUSH1 0x1 DUP2 SLOAD ADD DUP1 DUP3 SSTORE DUP1 SWAP2 POP POP PUSH1 0x1 SWAP1 SUB SWAP1 PUSH1 0x0 MSTORE PUSH1 0x20 PUSH1 0x0 KECCAK256 SWAP1 PUSH1 0x3 MUL ADD PUSH1 0x0 SWAP1 SWAP2 SWAP1 SWAP2 SWAP1 SWAP2 POP PUSH1 0x0 DUP3 ADD MLOAD DUP2 PUSH1 0x0 ADD SWAP1 DUP2 PUSH2 0x308 SWAP2 SWAP1 PUSH2 0xFE3 JUMP JUMPDEST POP PUSH1 0x20 DUP3 ADD MLOAD DUP2 PUSH1 0x1 ADD SSTORE PUSH1 0x40 DUP3 ADD MLOAD DUP2 PUSH1 0x2 ADD PUSH1 0x0 PUSH2 0x100 EXP DUP2 SLOAD DUP2 PUSH1 0xFF MUL NOT AND SWAP1 DUP4 PUSH1 0x2 DUP2 GT ISZERO PUSH2 0x33E JUMPI PUSH2 0x33D PUSH2 0x886 JUMP JUMPDEST JUMPDEST MUL OR SWAP1 SSTORE POP POP POP PUSH1 0x1 DUP1 SLOAD DUP1 PUSH1 0x20 MUL PUSH1 0x20 ADD PUSH1 0x40 MLOAD SWAP1 DUP2 ADD PUSH1 0x40 MSTORE DUP1 SWAP3 SWAP2 SWAP1 DUP2 DUP2 MSTORE PUSH1 0x20 ADD PUSH1 0x0 SWAP1 JUMPDEST DUP3 DUP3 LT ISZERO PUSH2 0x470 JUMPI DUP4 DUP3 SWAP1 PUSH1 0x0 MSTORE PUSH1 0x20 PUSH1 0x0 KECCAK256 SWAP1 PUSH1 0x3 MUL ADD PUSH1 0x40 MLOAD DUP1 PUSH1 0x60 ADD PUSH1 0x40 MSTORE SWAP1 DUP2 PUSH1 0x0 DUP3 ADD DUP1 SLOAD PUSH2 0x39A SWAP1 PUSH2 0xE06 JUMP JUMPDEST DUP1 PUSH1 0x1F ADD PUSH1 0x20 DUP1 SWAP2 DIV MUL PUSH1 0x20 ADD PUSH1 0x40 MLOAD SWAP1 DUP2 ADD PUSH1 0x40 MSTORE DUP1 SWAP3 SWAP2 SWAP1 DUP2 DUP2 MSTORE PUSH1 0x20 ADD DUP3 DUP1 SLOAD PUSH2 0x3C6 SWAP1 PUSH2 0xE06 JUMP JUMPDEST DUP1 ISZERO PUSH2 0x413 JUMPI DUP1 PUSH1 0x1F LT PUSH2 0x3E8 JUMPI PUSH2 0x100 DUP1 DUP4 SLOAD DIV MUL DUP4 MSTORE SWAP2 PUSH1 0x20 ADD SWAP2 PUSH2 0x413 JUMP JUMPDEST DUP3 ADD SWAP2 SWAP1 PUSH1 0x0 MSTORE PUSH1 0x20 PUSH1 0x0 KECCAK256 SWAP1 JUMPDEST DUP2 SLOAD DUP2 MSTORE SWAP1 PUSH1 0x1 ADD SWAP1 PUSH1 0x20 ADD DUP1 DUP4 GT PUSH2 0x3F6 JUMPI DUP3 SWAP1 SUB PUSH1 0x1F AND DUP3 ADD SWAP2 JUMPDEST POP POP POP POP POP DUP2 MSTORE PUSH1 0x20 ADD PUSH1 0x1 DUP3 ADD SLOAD DUP2 MSTORE PUSH1 0x20 ADD PUSH1 0x2 DUP3 ADD PUSH1 0x0 SWAP1 SLOAD SWAP1 PUSH2 0x100 EXP SWAP1 DIV PUSH1 0xFF AND PUSH1 0x2 DUP2 GT ISZERO PUSH2 0x44B JUMPI PUSH2 0x44A PUSH2 0x886 JUMP JUMPDEST JUMPDEST PUSH1 0x2 DUP2 GT ISZERO PUSH2 0x45D JUMPI PUSH2 0x45C PUSH2 0x886 JUMP JUMPDEST JUMPDEST DUP2 MSTORE POP POP DUP2 MSTORE PUSH1 0x20 ADD SWAP1 PUSH1 0x1 ADD SWAP1 PUSH2 0x367 JUMP JUMPDEST POP POP POP POP SWAP2 POP POP SWAP4 SWAP3 POP POP POP JUMP JUMPDEST PUSH1 0x1 DUP2 DUP2 SLOAD DUP2 LT PUSH2 0x48E JUMPI PUSH1 0x0 DUP1 REVERT JUMPDEST SWAP1 PUSH1 0x0 MSTORE PUSH1 0x20 PUSH1 0x0 KECCAK256 SWAP1 PUSH1 0x3 MUL ADD PUSH1 0x0 SWAP2 POP SWAP1 POP DUP1 PUSH1 0x0 ADD DUP1 SLOAD PUSH2 0x4B1 SWAP1 PUSH2 0xE06 JUMP JUMPDEST DUP1 PUSH1 0x1F ADD PUSH1 0x20 DUP1 SWAP2 DIV MUL PUSH1 0x20 ADD PUSH1 0x40 MLOAD SWAP1 DUP2 ADD PUSH1 0x40 MSTORE DUP1 SWAP3 SWAP2 SWAP1 DUP2 DUP2 MSTORE PUSH1 0x20 ADD DUP3 DUP1 SLOAD PUSH2 0x4DD SWAP1 PUSH2 0xE06 JUMP JUMPDEST DUP1 ISZERO PUSH2 0x52A JUMPI DUP1 PUSH1 0x1F LT PUSH2 0x4FF JUMPI PUSH2 0x100 DUP1 DUP4 SLOAD DIV MUL DUP4 MSTORE SWAP2 PUSH1 0x20 ADD SWAP2 PUSH2 0x52A JUMP JUMPDEST DUP3 ADD SWAP2 SWAP1 PUSH1 0x0 MSTORE PUSH1 0x20 PUSH1 0x0 KECCAK256 SWAP1 JUMPDEST DUP2 SLOAD DUP2 MSTORE SWAP1 PUSH1 0x1 ADD SWAP1 PUSH1 0x20 ADD DUP1 DUP4 GT PUSH2 0x50D JUMPI DUP3 SWAP1 SUB PUSH1 0x1F AND DUP3 ADD SWAP2 JUMPDEST POP POP POP POP POP SWAP1 DUP1 PUSH1 0x1 ADD SLOAD SWAP1 DUP1 PUSH1 0x2 ADD PUSH1 0x0 SWAP1 SLOAD SWAP1 PUSH2 0x100 EXP SWAP1 DIV PUSH1 0xFF AND SWAP1 POP DUP4 JUMP JUMPDEST PUSH1 0x0 DUP1 JUMPDEST PUSH1 0x1 DUP1 SLOAD SWAP1 POP DUP2 LT ISZERO PUSH2 0x750 JUMPI DUP4 PUSH1 0x40 MLOAD PUSH1 0x20 ADD PUSH2 0x56F SWAP2 SWAP1 PUSH2 0x10F1 JUMP JUMPDEST PUSH1 0x40 MLOAD PUSH1 0x20 DUP2 DUP4 SUB SUB DUP2 MSTORE SWAP1 PUSH1 0x40 MSTORE DUP1 MLOAD SWAP1 PUSH1 0x20 ADD KECCAK256 PUSH1 0x1 DUP3 DUP2 SLOAD DUP2 LT PUSH2 0x599 JUMPI PUSH2 0x598 PUSH2 0x1108 JUMP JUMPDEST JUMPDEST SWAP1 PUSH1 0x0 MSTORE PUSH1 0x20 PUSH1 0x0 KECCAK256 SWAP1 PUSH1 0x3 MUL ADD PUSH1 0x0 ADD PUSH1 0x40 MLOAD PUSH1 0x20 ADD PUSH2 0x5BA SWAP2 SWAP1 PUSH2 0x11BA JUMP JUMPDEST PUSH1 0x40 MLOAD PUSH1 0x20 DUP2 DUP4 SUB SUB DUP2 MSTORE SWAP1 PUSH1 0x40 MSTORE DUP1 MLOAD SWAP1 PUSH1 0x20 ADD KECCAK256 SUB PUSH2 0x743 JUMPI PUSH1 0x0 PUSH1 0x2 DUP2 GT ISZERO PUSH2 0x5E9 JUMPI PUSH2 0x5E8 PUSH2 0x886 JUMP JUMPDEST JUMPDEST PUSH1 0x1 DUP3 DUP2 SLOAD DUP2 LT PUSH2 0x5FD JUMPI PUSH2 0x5FC PUSH2 0x1108 JUMP JUMPDEST JUMPDEST SWAP1 PUSH1 0x0 MSTORE PUSH1 0x20 PUSH1 0x0 KECCAK256 SWAP1 PUSH1 0x3 MUL ADD PUSH1 0x2 ADD PUSH1 0x0 SWAP1 SLOAD SWAP1 PUSH2 0x100 EXP SWAP1 DIV PUSH1 0xFF AND PUSH1 0x2 DUP2 GT ISZERO PUSH2 0x62E JUMPI PUSH2 0x62D PUSH2 0x886 JUMP JUMPDEST JUMPDEST EQ DUP1 PUSH2 0x68F JUMPI POP PUSH1 0x2 DUP1 DUP2 GT ISZERO PUSH2 0x648 JUMPI PUSH2 0x647 PUSH2 0x886 JUMP JUMPDEST JUMPDEST PUSH1 0x1 DUP3 DUP2 SLOAD DUP2 LT PUSH2 0x65C JUMPI PUSH2 0x65B PUSH2 0x1108 JUMP JUMPDEST JUMPDEST SWAP1 PUSH1 0x0 MSTORE PUSH1 0x20 PUSH1 0x0 KECCAK256 SWAP1 PUSH1 0x3 MUL ADD PUSH1 0x2 ADD PUSH1 0x0 SWAP1 SLOAD SWAP1 PUSH2 0x100 EXP SWAP1 DIV PUSH1 0xFF AND PUSH1 0x2 DUP2 GT ISZERO PUSH2 0x68D JUMPI PUSH2 0x68C PUSH2 0x886 JUMP JUMPDEST JUMPDEST EQ JUMPDEST PUSH2 0x6CE JUMPI PUSH1 0x40 MLOAD PUSH32 0x8C379A000000000000000000000000000000000000000000000000000000000 DUP2 MSTORE PUSH1 0x4 ADD PUSH2 0x6C5 SWAP1 PUSH2 0x121D JUMP JUMPDEST PUSH1 0x40 MLOAD DUP1 SWAP2 SUB SWAP1 REVERT JUMPDEST DUP3 PUSH20 0xFFFFFFFFFFFFFFFFFFFFFFFFFFFFFFFFFFFFFFFF AND PUSH2 0x8FC PUSH1 0x1 DUP4 DUP2 SLOAD DUP2 LT PUSH2 0x6FC JUMPI PUSH2 0x6FB PUSH2 0x1108 JUMP JUMPDEST JUMPDEST SWAP1 PUSH1 0x0 MSTORE PUSH1 0x20 PUSH1 0x0 KECCAK256 SWAP1 PUSH1 0x3 MUL ADD PUSH1 0x1 ADD SLOAD SWAP1 DUP2 ISZERO MUL SWAP1 PUSH1 0x40 MLOAD PUSH1 0x0 PUSH1 0x40 MLOAD DUP1 DUP4 SUB DUP2 DUP6 DUP9 DUP9 CALL SWAP4 POP POP POP POP ISZERO DUP1 ISZERO PUSH2 0x739 JUMPI RETURNDATASIZE PUSH1 0x0 DUP1 RETURNDATACOPY RETURNDATASIZE PUSH1 0x0 REVERT JUMPDEST POP PUSH1 0x1 SWAP2 POP PUSH2 0x750 JUMP JUMPDEST DUP1 DUP1 PUSH1 0x1 ADD SWAP2 POP POP PUSH2 0x551 JUMP JUMPDEST POP DUP1 PUSH2 0x788 JUMPI PUSH1 0x40 MLOAD PUSH32 0x5FFCE20A00000000000000000000000000000000000000000000000000000000 DUP2 MSTORE PUSH1 0x4 ADD PUSH1 0x40 MLOAD DUP1 SWAP2 SUB SWAP1 REVERT JUMPDEST POP POP POP JUMP JUMPDEST PUSH1 0x0 DUP1 SLOAD SWAP1 PUSH2 0x100 EXP SWAP1 DIV PUSH20 0xFFFFFFFFFFFFFFFFFFFFFFFFFFFFFFFFFFFFFFFF AND DUP2 JUMP JUMPDEST PUSH1 0x0 DUP2 MLOAD SWAP1 POP SWAP2 SWAP1 POP JUMP JUMPDEST PUSH1 0x0 DUP3 DUP3 MSTORE PUSH1 0x20 DUP3 ADD SWAP1 POP SWAP3 SWAP2 POP POP JUMP JUMPDEST PUSH1 0x0 DUP2 SWAP1 POP PUSH1 0x20 DUP3 ADD SWAP1 POP SWAP2 SWAP1 POP JUMP JUMPDEST PUSH1 0x0 DUP2 MLOAD SWAP1 POP SWAP2 SWAP1 POP JUMP JUMPDEST PUSH1 0x0 DUP3 DUP3 MSTORE PUSH1 0x20 DUP3 ADD SWAP1 POP SWAP3 SWAP2 POP POP JUMP JUMPDEST PUSH1 0x0 JUMPDEST DUP4 DUP2 LT ISZERO PUSH2 0x817 JUMPI DUP1 DUP3 ADD MLOAD DUP2 DUP5 ADD MSTORE PUSH1 0x20 DUP2 ADD SWAP1 POP PUSH2 0x7FC JUMP JUMPDEST PUSH1 0x0 DUP5 DUP5 ADD MSTORE POP POP POP POP JUMP JUMPDEST PUSH1 0x0 PUSH1 0x1F NOT PUSH1 0x1F DUP4 ADD AND SWAP1 POP SWAP2 SWAP1 POP JUMP JUMPDEST PUSH1 0x0 PUSH2 0x83F DUP3 PUSH2 0x7DD JUMP JUMPDEST PUSH2 0x849 DUP2 DUP6 PUSH2 0x7E8 JUMP JUMPDEST SWAP4 POP PUSH2 0x859 DUP2 DUP6 PUSH1 0x20 DUP7 ADD PUSH2 0x7F9 JUMP JUMPDEST PUSH2 0x862 DUP2 PUSH2 0x823 JUMP JUMPDEST DUP5 ADD SWAP2 POP POP SWAP3 SWAP2 POP POP JUMP JUMPDEST PUSH1 0x0 DUP2 SWAP1 POP SWAP2 SWAP1 POP JUMP JUMPDEST PUSH2 0x880 DUP2 PUSH2 0x86D JUMP JUMPDEST DUP3 MSTORE POP POP JUMP JUMPDEST PUSH32 0x4E487B7100000000000000000000000000000000000000000000000000000000 PUSH1 0x0 MSTORE PUSH1 0x21 PUSH1 0x4 MSTORE PUSH1 0x24 PUSH1 0x0 REVERT JUMPDEST PUSH1 0x3 DUP2 LT PUSH2 0x8C6 JUMPI PUSH2 0x8C5 PUSH2 0x886 JUMP JUMPDEST JUMPDEST POP JUMP JUMPDEST PUSH1 0x0 DUP2 SWAP1 POP PUSH2 0x8D7 DUP3 PUSH2 0x8B5 JUMP JUMPDEST SWAP2 SWAP1 POP JUMP JUMPDEST PUSH1 0x0 PUSH2 0x8E7 DUP3 PUSH2 0x8C9 JUMP JUMPDEST SWAP1 POP SWAP2 SWAP1 POP JUMP JUMPDEST PUSH2 0x8F7 DUP2 PUSH2 0x8DC JUMP JUMPDEST DUP3 MSTORE POP POP JUMP JUMPDEST PUSH1 0x0 PUSH1 0x60 DUP4 ADD PUSH1 0x0 DUP4 ADD MLOAD DUP5 DUP3 SUB PUSH1 0x0 DUP7 ADD MSTORE PUSH2 0x91A DUP3 DUP3 PUSH2 0x834 JUMP JUMPDEST SWAP2 POP POP PUSH1 0x20 DUP4 ADD MLOAD PUSH2 0x92F PUSH1 0x20 DUP7 ADD DUP3 PUSH2 0x877 JUMP JUMPDEST POP PUSH1 0x40 DUP4 ADD MLOAD PUSH2 0x942 PUSH1 0x40 DUP7 ADD DUP3 PUSH2 0x8EE JUMP JUMPDEST POP DUP1 SWAP2 POP POP SWAP3 SWAP2 POP POP JUMP JUMPDEST PUSH1 0x0 PUSH2 0x959 DUP4 DUP4 PUSH2 0x8FD JUMP JUMPDEST SWAP1 POP SWAP3 SWAP2 POP POP JUMP JUMPDEST PUSH1 0x0 PUSH1 0x20 DUP3 ADD SWAP1 POP SWAP2 SWAP1 POP JUMP JUMPDEST PUSH1 0x0 PUSH2 0x979 DUP3 PUSH2 0x7B1 JUMP JUMPDEST PUSH2 0x983 DUP2 DUP6 PUSH2 0x7BC JUMP JUMPDEST SWAP4 POP DUP4 PUSH1 0x20 DUP3 MUL DUP6 ADD PUSH2 0x995 DUP6 PUSH2 0x7CD JUMP JUMPDEST DUP1 PUSH1 0x0 JUMPDEST DUP6 DUP2 LT ISZERO PUSH2 0x9D1 JUMPI DUP5 DUP5 SUB DUP10 MSTORE DUP2 MLOAD PUSH2 0x9B2 DUP6 DUP3 PUSH2 0x94D JUMP JUMPDEST SWAP5 POP PUSH2 0x9BD DUP4 PUSH2 0x961 JUMP JUMPDEST SWAP3 POP PUSH1 0x20 DUP11 ADD SWAP10 POP POP PUSH1 0x1 DUP2 ADD SWAP1 POP PUSH2 0x999 JUMP JUMPDEST POP DUP3 SWAP8 POP DUP8 SWAP6 POP POP POP POP POP POP SWAP3 SWAP2 POP POP JUMP JUMPDEST PUSH1 0x0 PUSH1 0x20 DUP3 ADD SWAP1 POP DUP2 DUP2 SUB PUSH1 0x0 DUP4 ADD MSTORE PUSH2 0x9FD DUP2 DUP5 PUSH2 0x96E JUMP JUMPDEST SWAP1 POP SWAP3 SWAP2 POP POP JUMP JUMPDEST PUSH1 0x0 PUSH1 0x40 MLOAD SWAP1 POP SWAP1 JUMP JUMPDEST PUSH1 0x0 DUP1 REVERT JUMPDEST PUSH1 0x0 DUP1 REVERT JUMPDEST PUSH1 0x0 DUP1 REVERT JUMPDEST PUSH1 0x0 DUP1 REVERT JUMPDEST PUSH32 0x4E487B7100000000000000000000000000000000000000000000000000000000 PUSH1 0x0 MSTORE PUSH1 0x41 PUSH1 0x4 MSTORE PUSH1 0x24 PUSH1 0x0 REVERT JUMPDEST PUSH2 0xA5B DUP3 PUSH2 0x823 JUMP JUMPDEST DUP2 ADD DUP2 DUP2 LT PUSH8 0xFFFFFFFFFFFFFFFF DUP3 GT OR ISZERO PUSH2 0xA7A JUMPI PUSH2 0xA79 PUSH2 0xA23 JUMP JUMPDEST JUMPDEST DUP1 PUSH1 0x40 MSTORE POP POP POP JUMP JUMPDEST PUSH1 0x0 PUSH2 0xA8D PUSH2 0xA05 JUMP JUMPDEST SWAP1 POP PUSH2 0xA99 DUP3 DUP3 PUSH2 0xA52 JUMP JUMPDEST SWAP2 SWAP1 POP JUMP JUMPDEST PUSH1 0x0 PUSH8 0xFFFFFFFFFFFFFFFF DUP3 GT ISZERO PUSH2 0xAB9 JUMPI PUSH2 0xAB8 PUSH2 0xA23 JUMP JUMPDEST JUMPDEST PUSH2 0xAC2 DUP3 PUSH2 0x823 JUMP JUMPDEST SWAP1 POP PUSH1 0x20 DUP2 ADD SWAP1 POP SWAP2 SWAP1 POP JUMP JUMPDEST DUP3 DUP2 DUP4 CALLDATACOPY PUSH1 0x0 DUP4 DUP4 ADD MSTORE POP POP POP JUMP JUMPDEST PUSH1 0x0 PUSH2 0xAF1 PUSH2 0xAEC DUP5 PUSH2 0xA9E JUMP JUMPDEST PUSH2 0xA83 JUMP JUMPDEST SWAP1 POP DUP3 DUP2 MSTORE PUSH1 0x20 DUP2 ADD DUP5 DUP5 DUP5 ADD GT ISZERO PUSH2 0xB0D JUMPI PUSH2 0xB0C PUSH2 0xA1E JUMP JUMPDEST JUMPDEST PUSH2 0xB18 DUP5 DUP3 DUP6 PUSH2 0xACF JUMP JUMPDEST POP SWAP4 SWAP3 POP POP POP JUMP JUMPDEST PUSH1 0x0 DUP3 PUSH1 0x1F DUP4 ADD SLT PUSH2 0xB35 JUMPI PUSH2 0xB34 PUSH2 0xA19 JUMP JUMPDEST JUMPDEST DUP2 CALLDATALOAD PUSH2 0xB45 DUP5 DUP3 PUSH1 0x20 DUP7 ADD PUSH2 0xADE JUMP JUMPDEST SWAP2 POP POP SWAP3 SWAP2 POP POP JUMP JUMPDEST PUSH2 0xB57 DUP2 PUSH2 0x86D JUMP JUMPDEST DUP2 EQ PUSH2 0xB62 JUMPI PUSH1 0x0 DUP1 REVERT JUMPDEST POP JUMP JUMPDEST PUSH1 0x0 DUP2 CALLDATALOAD SWAP1 POP PUSH2 0xB74 DUP2 PUSH2 0xB4E JUMP JUMPDEST SWAP3 SWAP2 POP POP JUMP JUMPDEST PUSH1 0x3 DUP2 LT PUSH2 0xB87 JUMPI PUSH1 0x0 DUP1 REVERT JUMPDEST POP JUMP JUMPDEST PUSH1 0x0 DUP2 CALLDATALOAD SWAP1 POP PUSH2 0xB99 DUP2 PUSH2 0xB7A JUMP JUMPDEST SWAP3 SWAP2 POP POP JUMP JUMPDEST PUSH1 0x0 DUP1 PUSH1 0x0 PUSH1 0x60 DUP5 DUP7 SUB SLT ISZERO PUSH2 0xBB8 JUMPI PUSH2 0xBB7 PUSH2 0xA0F JUMP JUMPDEST JUMPDEST PUSH1 0x0 DUP5 ADD CALLDATALOAD PUSH8 0xFFFFFFFFFFFFFFFF DUP2 GT ISZERO PUSH2 0xBD6 JUMPI PUSH2 0xBD5 PUSH2 0xA14 JUMP JUMPDEST JUMPDEST PUSH2 0xBE2 DUP7 DUP3 DUP8 ADD PUSH2 0xB20 JUMP JUMPDEST SWAP4 POP POP PUSH1 0x20 PUSH2 0xBF3 DUP7 DUP3 DUP8 ADD PUSH2 0xB65 JUMP JUMPDEST SWAP3 POP POP PUSH1 0x40 PUSH2 0xC04 DUP7 DUP3 DUP8 ADD PUSH2 0xB8A JUMP JUMPDEST SWAP2 POP POP SWAP3 POP SWAP3 POP SWAP3 JUMP JUMPDEST PUSH1 0x0 PUSH1 0x20 DUP3 DUP5 SUB SLT ISZERO PUSH2 0xC24 JUMPI PUSH2 0xC23 PUSH2 0xA0F JUMP JUMPDEST JUMPDEST PUSH1 0x0 PUSH2 0xC32 DUP5 DUP3 DUP6 ADD PUSH2 0xB65 JUMP JUMPDEST SWAP2 POP POP SWAP3 SWAP2 POP POP JUMP JUMPDEST PUSH1 0x0 DUP3 DUP3 MSTORE PUSH1 0x20 DUP3 ADD SWAP1 POP SWAP3 SWAP2 POP POP JUMP JUMPDEST PUSH1 0x0 PUSH2 0xC57 DUP3 PUSH2 0x7DD JUMP JUMPDEST PUSH2 0xC61 DUP2 DUP6 PUSH2 0xC3B JUMP JUMPDEST SWAP4 POP PUSH2 0xC71 DUP2 DUP6 PUSH1 0x20 DUP7 ADD PUSH2 0x7F9 JUMP JUMPDEST PUSH2 0xC7A DUP2 PUSH2 0x823 JUMP JUMPDEST DUP5 ADD SWAP2 POP POP SWAP3 SWAP2 POP POP JUMP JUMPDEST PUSH2 0xC8E DUP2 PUSH2 0x86D JUMP JUMPDEST DUP3 MSTORE POP POP JUMP JUMPDEST PUSH2 0xC9D DUP2 PUSH2 0x8DC JUMP JUMPDEST DUP3 MSTORE POP POP JUMP JUMPDEST PUSH1 0x0 PUSH1 0x60 DUP3 ADD SWAP1 POP DUP2 DUP2 SUB PUSH1 0x0 DUP4 ADD MSTORE PUSH2 0xCBD DUP2 DUP7 PUSH2 0xC4C JUMP JUMPDEST SWAP1 POP PUSH2 0xCCC PUSH1 0x20 DUP4 ADD DUP6 PUSH2 0xC85 JUMP JUMPDEST PUSH2 0xCD9 PUSH1 0x40 DUP4 ADD DUP5 PUSH2 0xC94 JUMP JUMPDEST SWAP5 SWAP4 POP POP POP POP JUMP JUMPDEST PUSH1 0x0 PUSH20 0xFFFFFFFFFFFFFFFFFFFFFFFFFFFFFFFFFFFFFFFF DUP3 AND SWAP1 POP SWAP2 SWAP1 POP JUMP JUMPDEST PUSH1 0x0 PUSH2 0xD0C DUP3 PUSH2 0xCE1 JUMP JUMPDEST SWAP1 POP SWAP2 SWAP1 POP JUMP JUMPDEST PUSH2 0xD1C DUP2 PUSH2 0xD01 JUMP JUMPDEST DUP2 EQ PUSH2 0xD27 JUMPI PUSH1 0x0 DUP1 REVERT JUMPDEST POP JUMP JUMPDEST PUSH1 0x0 DUP2 CALLDATALOAD SWAP1 POP PUSH2 0xD39 DUP2 PUSH2 0xD13 JUMP JUMPDEST SWAP3 SWAP2 POP POP JUMP JUMPDEST PUSH1 0x0 DUP1 PUSH1 0x40 DUP4 DUP6 SUB SLT ISZERO PUSH2 0xD56 JUMPI PUSH2 0xD55 PUSH2 0xA0F JUMP JUMPDEST JUMPDEST PUSH1 0x0 DUP4 ADD CALLDATALOAD PUSH8 0xFFFFFFFFFFFFFFFF DUP2 GT ISZERO PUSH2 0xD74 JUMPI PUSH2 0xD73 PUSH2 0xA14 JUMP JUMPDEST JUMPDEST PUSH2 0xD80 DUP6 DUP3 DUP7 ADD PUSH2 0xB20 JUMP JUMPDEST SWAP3 POP POP PUSH1 0x20 PUSH2 0xD91 DUP6 DUP3 DUP7 ADD PUSH2 0xD2A JUMP JUMPDEST SWAP2 POP POP SWAP3 POP SWAP3 SWAP1 POP JUMP JUMPDEST PUSH1 0x0 PUSH2 0xDA6 DUP3 PUSH2 0xCE1 JUMP JUMPDEST SWAP1 POP SWAP2 SWAP1 POP JUMP JUMPDEST PUSH2 0xDB6 DUP2 PUSH2 0xD9B JUMP JUMPDEST DUP3 MSTORE POP POP JUMP JUMPDEST PUSH1 0x0 PUSH1 0x20 DUP3 ADD SWAP1 POP PUSH2 0xDD1 PUSH1 0x0 DUP4 ADD DUP5 PUSH2 0xDAD JUMP JUMPDEST SWAP3 SWAP2 POP POP JUMP JUMPDEST PUSH32 0x4E487B7100000000000000000000000000000000000000000000000000000000 PUSH1 0x0 MSTORE PUSH1 0x22 PUSH1 0x4 MSTORE PUSH1 0x24 PUSH1 0x0 REVERT JUMPDEST PUSH1 0x0 PUSH1 0x2 DUP3 DIV SWAP1 POP PUSH1 0x1 DUP3 AND DUP1 PUSH2 0xE1E JUMPI PUSH1 0x7F DUP3 AND SWAP2 POP JUMPDEST PUSH1 0x20 DUP3 LT DUP2 SUB PUSH2 0xE31 JUMPI PUSH2 0xE30 PUSH2 0xDD7 JUMP JUMPDEST JUMPDEST POP SWAP2 SWAP1 POP JUMP JUMPDEST PUSH1 0x0 DUP2 SWAP1 POP DUP2 PUSH1 0x0 MSTORE PUSH1 0x20 PUSH1 0x0 KECCAK256 SWAP1 POP SWAP2 SWAP1 POP JUMP JUMPDEST PUSH1 0x0 PUSH1 0x20 PUSH1 0x1F DUP4 ADD DIV SWAP1 POP SWAP2 SWAP1 POP JUMP JUMPDEST PUSH1 0x0 DUP3 DUP3 SHL SWAP1 POP SWAP3 SWAP2 POP POP JUMP JUMPDEST PUSH1 0x0 PUSH1 0x8 DUP4 MUL PUSH2 0xE99 PUSH32 0xFFFFFFFFFFFFFFFFFFFFFFFFFFFFFFFFFFFFFFFFFFFFFFFFFFFFFFFFFFFFFFFF DUP3 PUSH2 0xE5C JUMP JUMPDEST PUSH2 0xEA3 DUP7 DUP4 PUSH2 0xE5C JUMP JUMPDEST SWAP6 POP DUP1 NOT DUP5 AND SWAP4 POP DUP1 DUP7 AND DUP5 OR SWAP3 POP POP POP SWAP4 SWAP3 POP POP POP JUMP JUMPDEST PUSH1 0x0 DUP2 SWAP1 POP SWAP2 SWAP1 POP JUMP JUMPDEST PUSH1 0x0 PUSH2 0xEE0 PUSH2 0xEDB PUSH2 0xED6 DUP5 PUSH2 0x86D JUMP JUMPDEST PUSH2 0xEBB JUMP JUMPDEST PUSH2 0x86D JUMP JUMPDEST SWAP1 POP SWAP2 SWAP1 POP JUMP JUMPDEST PUSH1 0x0 DUP2 SWAP1 POP SWAP2 SWAP1 POP JUMP JUMPDEST PUSH2 0xEFA DUP4 PUSH2 0xEC5 JUMP JUMPDEST PUSH2 0xF0E PUSH2 0xF06 DUP3 PUSH2 0xEE7 JUMP JUMPDEST DUP5 DUP5 SLOAD PUSH2 0xE69 JUMP JUMPDEST DUP3 SSTORE POP POP POP POP JUMP JUMPDEST PUSH1 0x0 SWAP1 JUMP JUMPDEST PUSH2 0xF23 PUSH2 0xF16 JUMP JUMPDEST PUSH2 0xF2E DUP2 DUP5 DUP5 PUSH2 0xEF1 JUMP JUMPDEST POP POP POP JUMP JUMPDEST JUMPDEST DUP2 DUP2 LT ISZERO PUSH2 0xF52 JUMPI PUSH2 0xF47 PUSH1 0x0 DUP3 PUSH2 0xF1B JUMP JUMPDEST PUSH1 0x1 DUP2 ADD SWAP1 POP PUSH2 0xF34 JUMP JUMPDEST POP POP JUMP JUMPDEST PUSH1 0x1F DUP3 GT ISZERO PUSH2 0xF97 JUMPI PUSH2 0xF68 DUP2 PUSH2 0xE37 JUMP JUMPDEST PUSH2 0xF71 DUP5 PUSH2 0xE4C JUMP JUMPDEST DUP2 ADD PUSH1 0x20 DUP6 LT ISZERO PUSH2 0xF80 JUMPI DUP2 SWAP1 POP JUMPDEST PUSH2 0xF94 PUSH2 0xF8C DUP6 PUSH2 0xE4C JUMP JUMPDEST DUP4 ADD DUP3 PUSH2 0xF33 JUMP JUMPDEST POP POP JUMPDEST POP POP POP JUMP JUMPDEST PUSH1 0x0 DUP3 DUP3 SHR SWAP1 POP SWAP3 SWAP2 POP POP JUMP JUMPDEST PUSH1 0x0 PUSH2 0xFBA PUSH1 0x0 NOT DUP5 PUSH1 0x8 MUL PUSH2 0xF9C JUMP JUMPDEST NOT DUP1 DUP4 AND SWAP2 POP POP SWAP3 SWAP2 POP POP JUMP JUMPDEST PUSH1 0x0 PUSH2 0xFD3 DUP4 DUP4 PUSH2 0xFA9 JUMP JUMPDEST SWAP2 POP DUP3 PUSH1 0x2 MUL DUP3 OR SWAP1 POP SWAP3 SWAP2 POP POP JUMP JUMPDEST PUSH2 0xFEC DUP3 PUSH2 0x7DD JUMP JUMPDEST PUSH8 0xFFFFFFFFFFFFFFFF DUP2 GT ISZERO PUSH2 0x1005 JUMPI PUSH2 0x1004 PUSH2 0xA23 JUMP JUMPDEST JUMPDEST PUSH2 0x100F DUP3 SLOAD PUSH2 0xE06 JUMP JUMPDEST PUSH2 0x101A DUP3 DUP3 DUP6 PUSH2 0xF56 JUMP JUMPDEST PUSH1 0x0 PUSH1 0x20 SWAP1 POP PUSH1 0x1F DUP4 GT PUSH1 0x1 DUP2 EQ PUSH2 0x104D JUMPI PUSH1 0x0 DUP5 ISZERO PUSH2 0x103B JUMPI DUP3 DUP8 ADD MLOAD SWAP1 POP JUMPDEST PUSH2 0x1045 DUP6 DUP3 PUSH2 0xFC7 JUMP JUMPDEST DUP7 SSTORE POP PUSH2 0x10AD JUMP JUMPDEST PUSH1 0x1F NOT DUP5 AND PUSH2 0x105B DUP7 PUSH2 0xE37 JUMP JUMPDEST PUSH1 0x0 JUMPDEST DUP3 DUP2 LT ISZERO PUSH2 0x1083 JUMPI DUP5 DUP10 ADD MLOAD DUP3 SSTORE PUSH1 0x1 DUP3 ADD SWAP2 POP PUSH1 0x20 DUP6 ADD SWAP5 POP PUSH1 0x20 DUP2 ADD SWAP1 POP PUSH2 0x105E JUMP JUMPDEST DUP7 DUP4 LT ISZERO PUSH2 0x10A0 JUMPI DUP5 DUP10 ADD MLOAD PUSH2 0x109C PUSH1 0x1F DUP10 AND DUP3 PUSH2 0xFA9 JUMP JUMPDEST DUP4 SSTORE POP JUMPDEST PUSH1 0x1 PUSH1 0x2 DUP9 MUL ADD DUP9 SSTORE POP POP POP JUMPDEST POP POP POP POP POP POP JUMP JUMPDEST PUSH1 0x0 DUP2 SWAP1 POP SWAP3 SWAP2 POP POP JUMP JUMPDEST PUSH1 0x0 PUSH2 0x10CB DUP3 PUSH2 0x7DD JUMP JUMPDEST PUSH2 0x10D5 DUP2 DUP6 PUSH2 0x10B5 JUMP JUMPDEST SWAP4 POP PUSH2 0x10E5 DUP2 DUP6 PUSH1 0x20 DUP7 ADD PUSH2 0x7F9 JUMP JUMPDEST DUP1 DUP5 ADD SWAP2 POP POP SWAP3 SWAP2 POP POP JUMP JUMPDEST PUSH1 0x0 PUSH2 0x10FD DUP3 DUP5 PUSH2 0x10C0 JUMP JUMPDEST SWAP2 POP DUP2 SWAP1 POP SWAP3 SWAP2 POP POP JUMP JUMPDEST PUSH32 0x4E487B7100000000000000000000000000000000000000000000000000000000 PUSH1 0x0 MSTORE PUSH1 0x32 PUSH1 0x4 MSTORE PUSH1 0x24 PUSH1 0x0 REVERT JUMPDEST PUSH1 0x0 DUP2 SLOAD PUSH2 0x1144 DUP2 PUSH2 0xE06 JUMP JUMPDEST PUSH2 0x114E DUP2 DUP7 PUSH2 0x10B5 JUMP JUMPDEST SWAP5 POP PUSH1 0x1 DUP3 AND PUSH1 0x0 DUP2 EQ PUSH2 0x1169 JUMPI PUSH1 0x1 DUP2 EQ PUSH2 0x117E JUMPI PUSH2 0x11B1 JUMP JUMPDEST PUSH1 0xFF NOT DUP4 AND DUP7 MSTORE DUP2 ISZERO ISZERO DUP3 MUL DUP7 ADD SWAP4 POP PUSH2 0x11B1 JUMP JUMPDEST PUSH2 0x1187 DUP6 PUSH2 0xE37 JUMP JUMPDEST PUSH1 0x0 JUMPDEST DUP4 DUP2 LT ISZERO PUSH2 0x11A9 JUMPI DUP2 SLOAD DUP2 DUP10 ADD MSTORE PUSH1 0x1 DUP3 ADD SWAP2 POP PUSH1 0x20 DUP2 ADD SWAP1 POP PUSH2 0x118A JUMP JUMPDEST DUP4 DUP9 ADD SWAP6 POP POP POP JUMPDEST POP POP POP SWAP3 SWAP2 POP POP JUMP JUMPDEST PUSH1 0x0 PUSH2 0x11C6 DUP3 DUP5 PUSH2 0x1137 JUMP JUMPDEST SWAP2 POP DUP2 SWAP1 POP SWAP3 SWAP2 POP POP JUMP JUMPDEST PUSH32 0x54656163686572206E6F7420656C696769626C6520666F722073616C61727900 PUSH1 0x0 DUP3 ADD MSTORE POP JUMP JUMPDEST PUSH1 0x0 PUSH2 0x1207 PUSH1 0x1F DUP4 PUSH2 0xC3B JUMP JUMPDEST SWAP2 POP PUSH2 0x1212 DUP3 PUSH2 0x11D1 JUMP JUMPDEST PUSH1 0x20 DUP3 ADD SWAP1 POP SWAP2 SWAP1 POP JUMP JUMPDEST PUSH1 0x0 PUSH1 0x20 DUP3 ADD SWAP1 POP DUP2 DUP2 SUB PUSH1 0x0 DUP4 ADD MSTORE PUSH2 0x1236 DUP2 PUSH2 0x11FA JUMP JUMPDEST SWAP1 POP SWAP2 SWAP1 POP JUMP INVALID LOG2 PUSH5 0x6970667358 0x22 SLT KECCAK256 0xBD SWAP3 PUSH18 0xD4773CDE61717FAE2F69D779C4E760ED9235 LOG2 0xD3 0xC3 0xEB 0xAD PUSH32 0xC4B439BFAC64736F6C634300081C003300000000000000000000000000000000 "
        },
        "methodIdentifiers": {
          "PaySalary(string,address)": "57083087",
          "RegisterTeacher(string,uint256,uint8)": "2f8cebdf",
          "Teachers(uint256)": "5595e705",
          "ViewTeachers()": "03e70263",
          "owner()": "8da5cb5b"
        }
      }
    }
  }
}