{
  "_format": "hh-sol-artifact-1",
  "contractName": "TokenGatedDAO",
  "sourceName": "contracts/TokenGatedDAO.sol",
  "abi": [
    {
      "inputs": [
        {
          "internalType": "address",
          "name": "_rolesRegistry",
          "type": "address"
        },
        {
          "internalType": "address",
          "name": "_membershipCollection",
          "type": "address"
        }
      ],
      "stateMutability": "nonpayable",
      "type": "constructor"
    },
    {
      "anonymous": false,
      "inputs": [
        {
          "indexed": true,
          "internalType": "uint256",
          "name": "id",
          "type": "uint256"
        },
        {
          "indexed": false,
          "internalType": "bool",
          "name": "passed",
          "type": "bool"
        }
      ],
      "name": "Executed",
      "type": "event"
    },
    {
      "anonymous": false,
      "inputs": [
        {
          "indexed": true,
          "internalType": "uint256",
          "name": "id",
          "type": "uint256"
        },
        {
          "indexed": true,
          "internalType": "address",
          "name": "proposer",
          "type": "address"
        },
        {
          "indexed": false,
          "internalType": "uint256",
          "name": "tokenId",
          "type": "uint256"
        },
        {
          "indexed": false,
          "internalType": "string",
          "name": "description",
          "type": "string"
        },
        {
          "indexed": false,
          "internalType": "uint256",
          "name": "deadline",
          "type": "uint256"
        }
      ],
      "name": "Proposed",
      "type": "event"
    },
    {
      "anonymous": false,
      "inputs": [
        {
          "indexed": true,
          "internalType": "uint256",
          "name": "id",
          "type": "uint256"
        },
        {
          "indexed": true,
          "internalType": "address",
          "name": "voter",
          "type": "address"
        },
        {
          "indexed": false,
          "internalType": "uint256",
          "name": "tokenId",
          "type": "uint256"
        },
        {
          "indexed": false,
          "internalType": "bool",
          "name": "support",
          "type": "bool"
        },
        {
          "indexed": false,
          "internalType": "uint256",
          "name": "weight",
          "type": "uint256"
        }
      ],
      "name": "Voted",
      "type": "event"
    },
    {
      "inputs": [],
      "name": "ROLE_EXECUTOR",
      "outputs": [
        {
          "internalType": "bytes32",
          "name": "",
          "type": "bytes32"
        }
      ],
      "stateMutability": "view",
      "type": "function"
    },
    {
      "inputs": [],
      "name": "ROLE_PROPOSER",
      "outputs": [
        {
          "internalType": "bytes32",
          "name": "",
          "type": "bytes32"
        }
      ],
      "stateMutability": "view",
      "type": "function"
    },
    {
      "inputs": [],
      "name": "ROLE_VOTER",
      "outputs": [
        {
          "internalType": "bytes32",
          "name": "",
          "type": "bytes32"
        }
      ],
      "stateMutability": "view",
      "type": "function"
    },
    {
      "inputs": [
        {
          "internalType": "uint256",
          "name": "id",
          "type": "uint256"
        },
        {
          "internalType": "uint256",
          "name": "tokenId",
          "type": "uint256"
        }
      ],
      "name": "execute",
      "outputs": [],
      "stateMutability": "nonpayable",
      "type": "function"
    },
    {
      "inputs": [
        {
          "internalType": "uint256",
          "name": "id",
          "type": "uint256"
        }
      ],
      "name": "getProposal",
      "outputs": [
        {
          "internalType": "string",
          "name": "description",
          "type": "string"
        },
        {
          "internalType": "uint256",
          "name": "deadline",
          "type": "uint256"
        },
        {
          "internalType": "uint256",
          "name": "forVotes",
          "type": "uint256"
        },
        {
          "internalType": "uint256",
          "name": "againstVotes",
          "type": "uint256"
        },
        {
          "internalType": "bool",
          "name": "executed",
          "type": "bool"
        }
      ],
      "stateMutability": "view",
      "type": "function"
    },
    {
      "inputs": [
        {
          "internalType": "address",
          "name": "account",
          "type": "address"
        },
        {
          "internalType": "uint256",
          "name": "tokenId",
          "type": "uint256"
        }
      ],
      "name": "hasVotingRights",
      "outputs": [
        {
          "internalType": "bool",
          "name": "",
          "type": "bool"
        }
      ],
      "stateMutability": "view",
      "type": "function"
    },
    {
      "inputs": [],
      "name": "membershipCollection",
      "outputs": [
        {
          "internalType": "address",
          "name": "",
          "type": "address"
        }
      ],
      "stateMutability": "view",
      "type": "function"
    },
    {
      "inputs": [],
      "name": "proposalCount",
      "outputs": [
        {
          "internalType": "uint256",
          "name": "",
          "type": "uint256"
        }
      ],
      "stateMutability": "view",
      "type": "function"
    },
    {
      "inputs": [
        {
          "internalType": "string",
          "name": "description",
          "type": "string"
        },
        {
          "internalType": "uint256",
          "name": "tokenId",
          "type": "uint256"
        }
      ],
      "name": "propose",
      "outputs": [
        {
          "internalType": "uint256",
          "name": "",
          "type": "uint256"
        }
      ],
      "stateMutability": "nonpayable",
      "type": "function"
    },
    {
      "inputs": [],
      "name": "rolesRegistry",
      "outputs": [
        {
          "internalType": "contract IERC7432",
          "name": "",
          "type": "address"
        }
      ],
      "stateMutability": "view",
      "type": "function"
    },
    {
      "inputs": [
        {
          "internalType": "uint256",
          "name": "id",
          "type": "uint256"
        },
        {
          "internalType": "uint256",
          "name": "tokenId",
          "type": "uint256"
        },
        {
          "internalType": "bool",
          "name": "support",
          "type": "bool"
        }
      ],
      "name": "vote",
      "outputs": [],
      "stateMutability": "nonpayable",
      "type": "function"
    },
    {
      "inputs": [],
      "name": "votingPeriod",
      "outputs": [
        {
          "internalType": "uint256",
          "name": "",
          "type": "uint256"
        }
      ],
      "stateMutability": "view",
      "type": "function"
    }
  ],
  "bytecode": "0x60c06040526203f48060005534801561001757600080fd5b50604051611bf3380380611bf38339818101604052810190610039919061010b565b8173ffffffffffffffffffffffffffffffffffffffff1660808173ffffffffffffffffffffffffffffffffffffffff16815250508073ffffffffffffffffffffffffffffffffffffffff1660a08173ffffffffffffffffffffffffffffffffffffffff1681525050505061014b565b600080fd5b600073ffffffffffffffffffffffffffffffffffffffff82169050919050565b60006100d8826100ad565b9050919050565b6100e8816100cd565b81146100f357600080fd5b50565b600081519050610105816100df565b92915050565b60008060408385031215610122576101216100a8565b5b6000610130858286016100f6565b9250506020610141858286016100f6565b9150509250929050565b60805160a051611a606101936000396000818161056f0152818161070801528181610a2a0152610b0e0152600081816108a3015281816109ee0152610ad20152611a606000f3fe608060405234801561001057600080fd5b50600436106100b45760003560e01c80639cbba816116100715780639cbba8161461018d578063a2efc051146101ab578063b8173414146101c9578063c7f758a8146101e7578063d958ddf61461021b578063da35c66414610239576100b4565b806302a251a3146100b9578063184ea9d6146100d75780635601eaea146101075780636a18ff7a1461012357806387f44b241461013f5780638d1cb8b51461015d575b600080fd5b6100c1610257565b6040516100ce9190610be0565b60405180910390f35b6100f160048036038101906100ec9190610c8f565b61025d565b6040516100fe9190610cea565b60405180910390f35b610121600480360381019061011c9190610d05565b610292565b005b61013d60048036038101906101389190610d71565b61045d565b005b610147610706565b6040516101549190610dd3565b60405180910390f35b61017760048036038101906101729190610e53565b61072a565b6040516101849190610be0565b60405180910390f35b610195610859565b6040516101a29190610ecc565b60405180910390f35b6101b361087d565b6040516101c09190610ecc565b60405180910390f35b6101d16108a1565b6040516101de9190610f46565b60405180910390f35b61020160048036038101906101fc9190610f61565b6108c5565b60405161021295949392919061101e565b60405180910390f35b6102236109a9565b6040516102309190610ecc565b60405180910390f35b6102416109cd565b60405161024e9190610be0565b60405180910390f35b60005481565b600061028a7f7aebab109969859d364b2de45a87de507b2ec95188d3e36efc39f700798d415884846109d3565b905092915050565b600060026000848152602001908152602001600020905060008160010154036102f0576040517f08c379a00000000000000000000000000000000000000000000000000000000081526004016102e7906110c4565b60405180910390fd5b8060010154421015610337576040517f08c379a000000000000000000000000000000000000000000000000000000000815260040161032e90611130565b60405180910390fd5b8060040160009054906101000a900460ff1615610389576040517f08c379a00000000000000000000000000000000000000000000000000000000081526004016103809061119c565b60405180910390fd5b6103b47fac724096f6213f1ba3ef31d6f40e1d291e98d4bf04675e624df1e7f78b0c89da33846109d3565b6103f3576040517f08c379a00000000000000000000000000000000000000000000000000000000081526004016103ea90611208565b60405180910390fd5b60008160030154826002015411905060018260040160006101000a81548160ff021916908315150217905550837ffa9788a6b2f6e96ab2d85a5b4ed3668e72b91e06c5eec6b3e87afd95fe5368638260405161044f9190610cea565b60405180910390a250505050565b600060026000858152602001908152602001600020905060008160010154036104bb576040517f08c379a00000000000000000000000000000000000000000000000000000000081526004016104b2906110c4565b60405180910390fd5b80600101544210610501576040517f08c379a00000000000000000000000000000000000000000000000000000000081526004016104f890611274565b60405180910390fd5b61052c7f7aebab109969859d364b2de45a87de507b2ec95188d3e36efc39f700798d415833856109d3565b61056b576040517f08c379a0000000000000000000000000000000000000000000000000000000008152600401610562906112e0565b60405180910390fd5b60007f0000000000000000000000000000000000000000000000000000000000000000847f7aebab109969859d364b2de45a87de507b2ec95188d3e36efc39f700798d41586040516020016105c29392919061138a565b60405160208183030381529060405280519060200120905081600501600082815260200190815260200160002060009054906101000a900460ff161561063d576040517f08c379a000000000000000000000000000000000000000000000000000000000815260040161063490611413565b60405180910390fd5b600182600501600083815260200190815260200160002060006101000a81548160ff02191690831515021790555082156106905781600201600081548092919061068690611462565b91905055506106ab565b8160030160008154809291906106a590611462565b91905055505b3373ffffffffffffffffffffffffffffffffffffffff16857f053ec11927404a1ffa7c4caf7350eb7c9aca46d058ff331b9ebbd5f9e1605bea868660016040516106f7939291906114e5565b60405180910390a35050505050565b7f000000000000000000000000000000000000000000000000000000000000000081565b60006107577f35c08f4b68ac53acafe32b91f1e3e55c7fa62246021e9ba8ed54d90be19a805733846109d3565b610796576040517f08c379a000000000000000000000000000000000000000000000000000000000815260040161078d90611568565b60405180910390fd5b600160008154809291906107a990611462565b91905055506000600260006001548152602001908152602001600020905084848260000191826107da9291906117c4565b50600054426107e99190611894565b81600101819055503373ffffffffffffffffffffffffffffffffffffffff166001547f5c607f616bb9ea7bd8dabaa61abd23692e4c06ca36ebfcbcbafff25339baf67c85888886600101546040516108449493929190611904565b60405180910390a36001549150509392505050565b7f7aebab109969859d364b2de45a87de507b2ec95188d3e36efc39f700798d415881565b7f35c08f4b68ac53acafe32b91f1e3e55c7fa62246021e9ba8ed54d90be19a805781565b7f000000000000000000000000000000000000000000000000000000000000000081565b60606000806000806000600260008881526020019081526020016000209050806000018160010154826002015483600301548460040160009054906101000a900460ff16848054610915906115f1565b80601f0160208091040260200160405190810160405280929190818152602001828054610941906115f1565b801561098e5780601f106109635761010080835404028352916020019161098e565b820191906000526020600020905b81548152906001019060200180831161097157829003601f168201915b50505050509450955095509550955095505091939590929450565b7fac724096f6213f1ba3ef31d6f40e1d291e98d4bf04675e624df1e7f78b0c89da81565b60015481565b60008273ffffffffffffffffffffffffffffffffffffffff167f000000000000000000000000000000000000000000000000000000000000000073ffffffffffffffffffffffffffffffffffffffff16633f916b487f000000000000000000000000000000000000000000000000000000000000000085886040518463ffffffff1660e01b8152600401610a6993929190611944565b602060405180830381865afa158015610a86573d6000803e3d6000fd5b505050506040513d601f19601f82011682018060405250810190610aaa9190611990565b73ffffffffffffffffffffffffffffffffffffffff1614610ace5760009050610bc0565b60007f000000000000000000000000000000000000000000000000000000000000000073ffffffffffffffffffffffffffffffffffffffff166365b0205b7f000000000000000000000000000000000000000000000000000000000000000085886040518463ffffffff1660e01b8152600401610b4d93929190611944565b602060405180830381865afa158015610b6a573d6000803e3d6000fd5b505050506040513d601f19601f82011682018060405250810190610b8e91906119fd565b905067ffffffffffffffff80168167ffffffffffffffff161480610bbc5750428167ffffffffffffffff1610155b9150505b9392505050565b6000819050919050565b610bda81610bc7565b82525050565b6000602082019050610bf56000830184610bd1565b92915050565b600080fd5b600080fd5b600073ffffffffffffffffffffffffffffffffffffffff82169050919050565b6000610c3082610c05565b9050919050565b610c4081610c25565b8114610c4b57600080fd5b50565b600081359050610c5d81610c37565b92915050565b610c6c81610bc7565b8114610c7757600080fd5b50565b600081359050610c8981610c63565b92915050565b60008060408385031215610ca657610ca5610bfb565b5b6000610cb485828601610c4e565b9250506020610cc585828601610c7a565b9150509250929050565b60008115159050919050565b610ce481610ccf565b82525050565b6000602082019050610cff6000830184610cdb565b92915050565b60008060408385031215610d1c57610d1b610bfb565b5b6000610d2a85828601610c7a565b9250506020610d3b85828601610c7a565b9150509250929050565b610d4e81610ccf565b8114610d5957600080fd5b50565b600081359050610d6b81610d45565b92915050565b600080600060608486031215610d8a57610d89610bfb565b5b6000610d9886828701610c7a565b9350506020610da986828701610c7a565b9250506040610dba86828701610d5c565b9150509250925092565b610dcd81610c25565b82525050565b6000602082019050610de86000830184610dc4565b92915050565b600080fd5b600080fd5b600080fd5b60008083601f840112610e1357610e12610dee565b5b8235905067ffffffffffffffff811115610e3057610e2f610df3565b5b602083019150836001820283011115610e4c57610e4b610df8565b5b9250929050565b600080600060408486031215610e6c57610e6b610bfb565b5b600084013567ffffffffffffffff811115610e8a57610e89610c00565b5b610e9686828701610dfd565b93509350506020610ea986828701610c7a565b9150509250925092565b6000819050919050565b610ec681610eb3565b82525050565b6000602082019050610ee16000830184610ebd565b92915050565b6000819050919050565b6000610f0c610f07610f0284610c05565b610ee7565b610c05565b9050919050565b6000610f1e82610ef1565b9050919050565b6000610f3082610f13565b9050919050565b610f4081610f25565b82525050565b6000602082019050610f5b6000830184610f37565b92915050565b600060208284031215610f7757610f76610bfb565b5b6000610f8584828501610c7a565b91505092915050565b600081519050919050565b600082825260208201905092915050565b60005b83811015610fc8578082015181840152602081019050610fad565b60008484015250505050565b6000601f19601f8301169050919050565b6000610ff082610f8e565b610ffa8185610f99565b935061100a818560208601610faa565b61101381610fd4565b840191505092915050565b600060a08201905081810360008301526110388188610fe5565b90506110476020830187610bd1565b6110546040830186610bd1565b6110616060830185610bd1565b61106e6080830184610cdb565b9695505050505050565b7f4e6f20737563682070726f706f73616c00000000000000000000000000000000600082015250565b60006110ae601083610f99565b91506110b982611078565b602082019050919050565b600060208201905081810360008301526110dd816110a1565b9050919050565b7f566f74696e67206e6f7420656e64656400000000000000000000000000000000600082015250565b600061111a601083610f99565b9150611125826110e4565b602082019050919050565b600060208201905081810360008301526111498161110d565b9050919050565b7f416c726561647920657865637574656400000000000000000000000000000000600082015250565b6000611186601083610f99565b915061119182611150565b602082019050919050565b600060208201905081810360008301526111b581611179565b9050919050565b7f4e6f7420616e206578656375746f7220666f72207468697320746f6b656e0000600082015250565b60006111f2601e83610f99565b91506111fd826111bc565b602082019050919050565b60006020820190508181036000830152611221816111e5565b9050919050565b7f566f74696e6720656e6465640000000000000000000000000000000000000000600082015250565b600061125e600c83610f99565b915061126982611228565b602082019050919050565b6000602082019050818103600083015261128d81611251565b9050919050565b7f4e6f74206120766f74657220666f72207468697320746f6b656e000000000000600082015250565b60006112ca601a83610f99565b91506112d582611294565b602082019050919050565b600060208201905081810360008301526112f9816112bd565b9050919050565b60008160601b9050919050565b600061131882611300565b9050919050565b600061132a8261130d565b9050919050565b61134261133d82610c25565b61131f565b82525050565b6000819050919050565b61136361135e82610bc7565b611348565b82525050565b6000819050919050565b61138461137f82610eb3565b611369565b82525050565b60006113968286611331565b6014820191506113a68285611352565b6020820191506113b68284611373565b602082019150819050949350505050565b7f416c726561647920766f74656420666f72207468697320746f6b656e00000000600082015250565b60006113fd601c83610f99565b9150611408826113c7565b602082019050919050565b6000602082019050818103600083015261142c816113f0565b9050919050565b7f4e487b7100000000000000000000000000000000000000000000000000000000600052601160045260246000fd5b600061146d82610bc7565b91507fffffffffffffffffffffffffffffffffffffffffffffffffffffffffffffffff820361149f5761149e611433565b5b600182019050919050565b6000819050919050565b60006114cf6114ca6114c5846114aa565b610ee7565b610bc7565b9050919050565b6114df816114b4565b82525050565b60006060820190506114fa6000830186610bd1565b6115076020830185610cdb565b61151460408301846114d6565b949350505050565b7f4e6f7420612070726f706f73657220666f72207468697320746f6b656e000000600082015250565b6000611552601d83610f99565b915061155d8261151c565b602082019050919050565b6000602082019050818103600083015261158181611545565b9050919050565b600082905092915050565b7f4e487b7100000000000000000000000000000000000000000000000000000000600052604160045260246000fd5b7f4e487b7100000000000000000000000000000000000000000000000000000000600052602260045260246000fd5b6000600282049050600182168061160957607f821691505b60208210810361161c5761161b6115c2565b5b50919050565b60008190508160005260206000209050919050565b60006020601f8301049050919050565b600082821b905092915050565b6000600883026116847fffffffffffffffffffffffffffffffffffffffffffffffffffffffffffffffff82611647565b61168e8683611647565b95508019841693508086168417925050509392505050565b60006116c16116bc6116b784610bc7565b610ee7565b610bc7565b9050919050565b6000819050919050565b6116db836116a6565b6116ef6116e7826116c8565b848454611654565b825550505050565b600090565b6117046116f7565b61170f8184846116d2565b505050565b5b81811015611733576117286000826116fc565b600181019050611715565b5050565b601f8211156117785761174981611622565b61175284611637565b81016020851015611761578190505b61177561176d85611637565b830182611714565b50505b505050565b600082821c905092915050565b600061179b6000198460080261177d565b1980831691505092915050565b60006117b4838361178a565b9150826002028217905092915050565b6117ce8383611588565b67ffffffffffffffff8111156117e7576117e6611593565b5b6117f182546115f1565b6117fc828285611737565b6000601f83116001811461182b5760008415611819578287013590505b61182385826117a8565b86555061188b565b601f19841661183986611622565b60005b828110156118615784890135825560018201915060208501945060208101905061183c565b8683101561187e578489013561187a601f89168261178a565b8355505b6001600288020188555050505b50505050505050565b600061189f82610bc7565b91506118aa83610bc7565b92508282019050808211156118c2576118c1611433565b5b92915050565b82818337600083830152505050565b60006118e38385610f99565b93506118f08385846118c8565b6118f983610fd4565b840190509392505050565b60006060820190506119196000830187610bd1565b818103602083015261192c8185876118d7565b905061193b6040830184610bd1565b95945050505050565b60006060820190506119596000830186610dc4565b6119666020830185610bd1565b6119736040830184610ebd565b949350505050565b60008151905061198a81610c37565b92915050565b6000602082840312156119a6576119a5610bfb565b5b60006119b48482850161197b565b91505092915050565b600067ffffffffffffffff82169050919050565b6119da816119bd565b81146119e557600080fd5b50565b6000815190506119f7816119d1565b92915050565b600060208284031215611a1357611a12610bfb565b5b6000611a21848285016119e8565b9150509291505056fea2646970667358221220ebeb21ef106b0b08cda54435a6f29a9b62aa6590f3268b0ecf54d03d5217038464736f6c634300081c0033",
  "linkReferences": {},
  "deployedLinkReferences": {}
}