{
  "_format": "hh-sol-artifact-1",
  "contractName": "Dao",
  "sourceName": "contracts/Dao.sol",
  "abi": [
    {
      "inputs": [
        {
          "internalType": "address",
          "name": "_nftRoles",
          "type": "address"
        },
        {
          "internalType": "address",
          "name": "_admin",
          "type": "address"
        },
        {
          "internalType": "address",
          "name": "_nftAddress",
          "type": "address"
        }
      ],
      "stateMutability": "nonpayable",
      "type": "constructor"
    },
    {
      "inputs": [],
      "name": "NOT_ADMIN",
      "type": "error"
    },
    {
      "inputs": [],
      "name": "NOT_ENOUGH_VOTE",
      "type": "error"
    },
    {
      "inputs": [],
      "name": "NOT_OWNER",
      "type": "error"
    },
    {
      "inputs": [],
      "name": "PROPOSAL_DOES_NOT_EXIST",
      "type": "error"
    },
    {
      "inputs": [],
      "name": "PROPOSAL_EXECUTED",
      "type": "error"
    },
    {
      "inputs": [],
      "name": "PROPOSER_ROLE",
      "outputs": [
        {
          "internalType": "bytes32",
          "name": "",
          "type": "bytes32"
        }
      ],
      "stateMutability": "view",
      "type": "function"
    },
    {
      "inputs": [],
      "name": "RESOURCE_ROLE",
      "outputs": [
        {
          "internalType": "bytes32",
          "name": "",
          "type": "bytes32"
        }
      ],
      "stateMutability": "view",
      "type": "function"
    },
    {
      "inputs": [],
      "name": "VOTER_ROLE",
      "outputs": [
        {
          "internalType": "bytes32",
          "name": "",
          "type": "bytes32"
        }
      ],
      "stateMutability": "view",
      "type": "function"
    },
    {
      "inputs": [
        {
          "internalType": "address",
          "name": "_member",
          "type": "address"
        }
      ],
      "name": "addMember",
      "outputs": [],
      "stateMutability": "nonpayable",
      "type": "function"
    },
    {
      "inputs": [
        {
          "internalType": "string",
          "name": "_description",
          "type": "string"
        }
      ],
      "name": "createProposal",
      "outputs": [
        {
          "components": [
            {
              "internalType": "uint256",
              "name": "id",
              "type": "uint256"
            },
            {
              "internalType": "address",
              "name": "createdBy",
              "type": "address"
            },
            {
              "internalType": "string",
              "name": "description",
              "type": "string"
            },
            {
              "internalType": "uint256",
              "name": "votesFor",
              "type": "uint256"
            },
            {
              "internalType": "uint256",
              "name": "votesAgainst",
              "type": "uint256"
            },
            {
              "internalType": "bool",
              "name": "executed",
              "type": "bool"
            }
          ],
          "internalType": "struct IDao.Proposal",
          "name": "",
          "type": "tuple"
        }
      ],
      "stateMutability": "nonpayable",
      "type": "function"
    },
    {
      "inputs": [
        {
          "internalType": "uint256",
          "name": "_proposalId",
          "type": "uint256"
        }
      ],
      "name": "executeProposal",
      "outputs": [],
      "stateMutability": "nonpayable",
      "type": "function"
    },
    {
      "inputs": [
        {
          "internalType": "uint256",
          "name": "_proposalId",
          "type": "uint256"
        }
      ],
      "name": "getProposal",
      "outputs": [
        {
          "components": [
            {
              "internalType": "uint256",
              "name": "id",
              "type": "uint256"
            },
            {
              "internalType": "address",
              "name": "createdBy",
              "type": "address"
            },
            {
              "internalType": "string",
              "name": "description",
              "type": "string"
            },
            {
              "internalType": "uint256",
              "name": "votesFor",
              "type": "uint256"
            },
            {
              "internalType": "uint256",
              "name": "votesAgainst",
              "type": "uint256"
            },
            {
              "internalType": "bool",
              "name": "executed",
              "type": "bool"
            }
          ],
          "internalType": "struct IDao.Proposal",
          "name": "",
          "type": "tuple"
        }
      ],
      "stateMutability": "view",
      "type": "function"
    },
    {
      "inputs": [],
      "name": "getProposals",
      "outputs": [
        {
          "components": [
            {
              "internalType": "uint256",
              "name": "id",
              "type": "uint256"
            },
            {
              "internalType": "address",
              "name": "createdBy",
              "type": "address"
            },
            {
              "internalType": "string",
              "name": "description",
              "type": "string"
            },
            {
              "internalType": "uint256",
              "name": "votesFor",
              "type": "uint256"
            },
            {
              "internalType": "uint256",
              "name": "votesAgainst",
              "type": "uint256"
            },
            {
              "internalType": "bool",
              "name": "executed",
              "type": "bool"
            }
          ],
          "internalType": "struct IDao.Proposal[]",
          "name": "",
          "type": "tuple[]"
        }
      ],
      "stateMutability": "view",
      "type": "function"
    },
    {
      "inputs": [
        {
          "internalType": "string",
          "name": "role",
          "type": "string"
        },
        {
          "internalType": "uint64",
          "name": "_deadline",
          "type": "uint64"
        },
        {
          "internalType": "address",
          "name": "_toGrantRole",
          "type": "address"
        },
        {
          "internalType": "bool",
          "name": "_revocable",
          "type": "bool"
        }
      ],
      "name": "grantRole",
      "outputs": [],
      "stateMutability": "nonpayable",
      "type": "function"
    },
    {
      "inputs": [
        {
          "internalType": "string",
          "name": "_tokenUri",
          "type": "string"
        }
      ],
      "name": "setTokenUri",
      "outputs": [],
      "stateMutability": "nonpayable",
      "type": "function"
    },
    {
      "inputs": [
        {
          "internalType": "uint256",
          "name": "_proposalId",
          "type": "uint256"
        }
      ],
      "name": "vote",
      "outputs": [],
      "stateMutability": "nonpayable",
      "type": "function"
    }
  ],
  "bytecode": "0x608060405234801561001057600080fd5b506040516120ab3803806120ab8339818101604052810190610032919061015f565b826000806101000a81548173ffffffffffffffffffffffffffffffffffffffff021916908373ffffffffffffffffffffffffffffffffffffffff16021790555080600160006101000a81548173ffffffffffffffffffffffffffffffffffffffff021916908373ffffffffffffffffffffffffffffffffffffffff16021790555081600660006101000a81548173ffffffffffffffffffffffffffffffffffffffff021916908373ffffffffffffffffffffffffffffffffffffffff1602179055505050506101b2565b600080fd5b600073ffffffffffffffffffffffffffffffffffffffff82169050919050565b600061012c82610101565b9050919050565b61013c81610121565b811461014757600080fd5b50565b60008151905061015981610133565b92915050565b600080600060608486031215610178576101776100fc565b5b60006101868682870161014a565b93505060206101978682870161014a565b92505060406101a88682870161014a565b9150509250925092565b611eea806101c16000396000f3fe608060405234801561001057600080fd5b50600436106100a95760003560e01c806349c2a1a61161007157806349c2a1a61461013c57806362564c481461016c5780638f61f4f51461018a578063a94015c8146101a8578063c7f758a8146101c6578063ca6d56dc146101f6576100a9565b80630121b93f146100ae5780630675b7c6146100ca5780630d61b519146100e657806319f1396514610102578063427bc6af14610120575b600080fd5b6100c860048036038101906100c3919061123f565b610212565b005b6100e460048036038101906100df91906113b2565b610362565b005b61010060048036038101906100fb919061123f565b610375565b005b61010a6104f4565b6040516101179190611414565b60405180910390f35b61013a60048036038101906101359190611505565b610518565b005b610156600480360381019061015191906113b2565b6109e9565b60405161016391906116bd565b60405180910390f35b610174610c69565b604051610181919061182a565b60405180910390f35b610192610de9565b60405161019f9190611414565b60405180910390f35b6101b0610e0d565b6040516101bd9190611414565b60405180910390f35b6101e060048036038101906101db919061123f565b610e31565b6040516101ed91906116bd565b60405180910390f35b610210600480360381019061020b919061184c565b61101b565b005b33600560008273ffffffffffffffffffffffffffffffffffffffff1673ffffffffffffffffffffffffffffffffffffffff16815260200190815260200160002060009054906101000a900460ff16610296576040517f71d78b1200000000000000000000000000000000000000000000000000000000815260040160405180910390fd5b600073ffffffffffffffffffffffffffffffffffffffff166002600084815260200190815260200160002060010160009054906101000a900473ffffffffffffffffffffffffffffffffffffffff1673ffffffffffffffffffffffffffffffffffffffff1603610332576040517f219f66a000000000000000000000000000000000000000000000000000000000815260040160405180910390fd5b600260008381526020019081526020016000206003016000815480929190610359906118a8565b91905055505050565b80600790816103719190611afc565b5050565b600073ffffffffffffffffffffffffffffffffffffffff166002600083815260200190815260200160002060010160009054906101000a900473ffffffffffffffffffffffffffffffffffffffff1673ffffffffffffffffffffffffffffffffffffffff1603610411576040517f219f66a000000000000000000000000000000000000000000000000000000000815260040160405180910390fd5b600015156002600083815260200190815260200160002060050160009054906101000a900460ff16151514610472576040517fa8d0823500000000000000000000000000000000000000000000000000000000815260040160405180910390fd5b60006002600083815260200190815260200160002060030154116104c2576040517f9bc9bf7f00000000000000000000000000000000000000000000000000000000815260040160405180910390fd5b60016002600083815260200190815260200160002060050160006101000a81548160ff02191690831515021790555050565b7f947f71d2f6ebba6ca793d9bf3aeb403f54c9867761bb488e7b9bdcfa1488cdc581565b600660009054906101000a900473ffffffffffffffffffffffffffffffffffffffff1673ffffffffffffffffffffffffffffffffffffffff163373ffffffffffffffffffffffffffffffffffffffff161461059f576040517f6209c08b00000000000000000000000000000000000000000000000000000000815260040160405180910390fd5b428367ffffffffffffffff16116105eb576040517f08c379a00000000000000000000000000000000000000000000000000000000081526004016105e290611c2b565b60405180910390fd5b6040518060400160405280600c81526020017f566f74696e6720726967687400000000000000000000000000000000000000008152508051906020012084805190602001200361072c576000610640836110fd565b905060008054906101000a900473ffffffffffffffffffffffffffffffffffffffff1673ffffffffffffffffffffffffffffffffffffffff16631f45673f7f72c3eec1760bf69946625c2d4fb8e44e2c806345041960b434674fb9ab3976cf600160009054906101000a900473ffffffffffffffffffffffffffffffffffffffff1684878988604051806020016040528060008152506040518863ffffffff1660e01b81526004016106f89796959493929190611cdc565b600060405180830381600087803b15801561071257600080fd5b505af1158015610726573d6000803e3d6000fd5b50505050505b6040518060400160405280600e81526020017f50726f706f7365722072696768740000000000000000000000000000000000008152508051906020012084805190602001200361086d576000610781836110fd565b905060008054906101000a900473ffffffffffffffffffffffffffffffffffffffff1673ffffffffffffffffffffffffffffffffffffffff16631f45673f7f72c3eec1760bf69946625c2d4fb8e44e2c806345041960b434674fb9ab3976cf600160009054906101000a900473ffffffffffffffffffffffffffffffffffffffff1684878988604051806020016040528060008152506040518863ffffffff1660e01b81526004016108399796959493929190611cdc565b600060405180830381600087803b15801561085357600080fd5b505af1158015610867573d6000803e3d6000fd5b50505050505b6040518060400160405280600e81526020017f5265736f75726365207269676874000000000000000000000000000000000000815250805190602001208480519060200120036109ae5760006108c2836110fd565b905060008054906101000a900473ffffffffffffffffffffffffffffffffffffffff1673ffffffffffffffffffffffffffffffffffffffff16631f45673f7f72c3eec1760bf69946625c2d4fb8e44e2c806345041960b434674fb9ab3976cf600160009054906101000a900473ffffffffffffffffffffffffffffffffffffffff1684878988604051806020016040528060008152506040518863ffffffff1660e01b815260040161097a9796959493929190611cdc565b600060405180830381600087803b15801561099457600080fd5b505af11580156109a8573d6000803e3d6000fd5b50505050505b6040517f08c379a00000000000000000000000000000000000000000000000000000000081526004016109e090611d9e565b60405180910390fd5b6109f16111a7565b33600560008273ffffffffffffffffffffffffffffffffffffffff1673ffffffffffffffffffffffffffffffffffffffff16815260200190815260200160002060009054906101000a900460ff16610a75576040517f71d78b1200000000000000000000000000000000000000000000000000000000815260040160405180910390fd5b600060036000815480929190610a8a906118a8565b919050559050610a986111a7565b8181600001818152505033816020019073ffffffffffffffffffffffffffffffffffffffff16908173ffffffffffffffffffffffffffffffffffffffff168152505084816040018190525080600260008481526020019081526020016000206000820151816000015560208201518160010160006101000a81548173ffffffffffffffffffffffffffffffffffffffff021916908373ffffffffffffffffffffffffffffffffffffffff1602179055506040820151816002019081610b5d9190611afc565b50606082015181600301556080820151816004015560a08201518160050160006101000a81548160ff02191690831515021790555090505060048190806001815401808255809150506001900390600052602060002090600602016000909190919091506000820151816000015560208201518160010160006101000a81548173ffffffffffffffffffffffffffffffffffffffff021916908373ffffffffffffffffffffffffffffffffffffffff1602179055506040820151816002019081610c279190611afc565b50606082015181600301556080820151816004015560a08201518160050160006101000a81548160ff0219169083151502179055505050809350505050919050565b60606004805480602002602001604051908101604052809291908181526020016000905b82821015610de057838290600052602060002090600602016040518060c0016040529081600082015481526020016001820160009054906101000a900473ffffffffffffffffffffffffffffffffffffffff1673ffffffffffffffffffffffffffffffffffffffff1673ffffffffffffffffffffffffffffffffffffffff168152602001600282018054610d209061191f565b80601f0160208091040260200160405190810160405280929190818152602001828054610d4c9061191f565b8015610d995780601f10610d6e57610100808354040283529160200191610d99565b820191906000526020600020905b815481529060010190602001808311610d7c57829003601f168201915b5050505050815260200160038201548152602001600482015481526020016005820160009054906101000a900460ff16151515158152505081526020019060010190610c8d565b50505050905090565b7fb09aa5aeb3702cfd50b6b62bc4532604938f21248a27a1d5ca736082b6819cc181565b7f72c3eec1760bf69946625c2d4fb8e44e2c806345041960b434674fb9ab3976cf81565b610e396111a7565b600073ffffffffffffffffffffffffffffffffffffffff166002600084815260200190815260200160002060010160009054906101000a900473ffffffffffffffffffffffffffffffffffffffff1673ffffffffffffffffffffffffffffffffffffffff1603610ed5576040517f219f66a000000000000000000000000000000000000000000000000000000000815260040160405180910390fd5b600260008381526020019081526020016000206040518060c0016040529081600082015481526020016001820160009054906101000a900473ffffffffffffffffffffffffffffffffffffffff1673ffffffffffffffffffffffffffffffffffffffff1673ffffffffffffffffffffffffffffffffffffffff168152602001600282018054610f639061191f565b80601f0160208091040260200160405190810160405280929190818152602001828054610f8f9061191f565b8015610fdc5780601f10610fb157610100808354040283529160200191610fdc565b820191906000526020600020905b815481529060010190602001808311610fbf57829003601f168201915b5050505050815260200160038201548152602001600482015481526020016005820160009054906101000a900460ff1615151515815250509050919050565b600660009054906101000a900473ffffffffffffffffffffffffffffffffffffffff1673ffffffffffffffffffffffffffffffffffffffff163373ffffffffffffffffffffffffffffffffffffffff16146110a2576040517f6209c08b00000000000000000000000000000000000000000000000000000000815260040160405180910390fd5b6001600560008373ffffffffffffffffffffffffffffffffffffffff1673ffffffffffffffffffffffffffffffffffffffff16815260200190815260200160002060006101000a81548160ff02191690831515021790555050565b6000600160009054906101000a900473ffffffffffffffffffffffffffffffffffffffff1673ffffffffffffffffffffffffffffffffffffffff16632c3f26328360076040518363ffffffff1660e01b815260040161115d929190611e42565b6020604051808303816000875af115801561117c573d6000803e3d6000fd5b505050506040513d601f19601f820116820180604052508101906111a09190611e87565b9050919050565b6040518060c0016040528060008152602001600073ffffffffffffffffffffffffffffffffffffffff1681526020016060815260200160008152602001600081526020016000151581525090565b6000604051905090565b600080fd5b600080fd5b6000819050919050565b61121c81611209565b811461122757600080fd5b50565b60008135905061123981611213565b92915050565b600060208284031215611255576112546111ff565b5b60006112638482850161122a565b91505092915050565b600080fd5b600080fd5b6000601f19601f8301169050919050565b7f4e487b7100000000000000000000000000000000000000000000000000000000600052604160045260246000fd5b6112bf82611276565b810181811067ffffffffffffffff821117156112de576112dd611287565b5b80604052505050565b60006112f16111f5565b90506112fd82826112b6565b919050565b600067ffffffffffffffff82111561131d5761131c611287565b5b61132682611276565b9050602081019050919050565b82818337600083830152505050565b600061135561135084611302565b6112e7565b90508281526020810184848401111561137157611370611271565b5b61137c848285611333565b509392505050565b600082601f8301126113995761139861126c565b5b81356113a9848260208601611342565b91505092915050565b6000602082840312156113c8576113c76111ff565b5b600082013567ffffffffffffffff8111156113e6576113e5611204565b5b6113f284828501611384565b91505092915050565b6000819050919050565b61140e816113fb565b82525050565b60006020820190506114296000830184611405565b92915050565b600067ffffffffffffffff82169050919050565b61144c8161142f565b811461145757600080fd5b50565b60008135905061146981611443565b92915050565b600073ffffffffffffffffffffffffffffffffffffffff82169050919050565b600061149a8261146f565b9050919050565b6114aa8161148f565b81146114b557600080fd5b50565b6000813590506114c7816114a1565b92915050565b60008115159050919050565b6114e2816114cd565b81146114ed57600080fd5b50565b6000813590506114ff816114d9565b92915050565b6000806000806080858703121561151f5761151e6111ff565b5b600085013567ffffffffffffffff81111561153d5761153c611204565b5b61154987828801611384565b945050602061155a8782880161145a565b935050604061156b878288016114b8565b925050606061157c878288016114f0565b91505092959194509250565b61159181611209565b82525050565b6115a08161148f565b82525050565b600081519050919050565b600082825260208201905092915050565b60005b838110156115e05780820151818401526020810190506115c5565b60008484015250505050565b60006115f7826115a6565b61160181856115b1565b93506116118185602086016115c2565b61161a81611276565b840191505092915050565b61162e816114cd565b82525050565b600060c08301600083015161164c6000860182611588565b50602083015161165f6020860182611597565b506040830151848203604086015261167782826115ec565b915050606083015161168c6060860182611588565b50608083015161169f6080860182611588565b5060a08301516116b260a0860182611625565b508091505092915050565b600060208201905081810360008301526116d78184611634565b905092915050565b600081519050919050565b600082825260208201905092915050565b6000819050602082019050919050565b600060c0830160008301516117236000860182611588565b5060208301516117366020860182611597565b506040830151848203604086015261174e82826115ec565b91505060608301516117636060860182611588565b5060808301516117766080860182611588565b5060a083015161178960a0860182611625565b508091505092915050565b60006117a0838361170b565b905092915050565b6000602082019050919050565b60006117c0826116df565b6117ca81856116ea565b9350836020820285016117dc856116fb565b8060005b8581101561181857848403895281516117f98582611794565b9450611804836117a8565b925060208a019950506001810190506117e0565b50829750879550505050505092915050565b6000602082019050818103600083015261184481846117b5565b905092915050565b600060208284031215611862576118616111ff565b5b6000611870848285016114b8565b91505092915050565b7f4e487b7100000000000000000000000000000000000000000000000000000000600052601160045260246000fd5b60006118b382611209565b91507fffffffffffffffffffffffffffffffffffffffffffffffffffffffffffffffff82036118e5576118e4611879565b5b600182019050919050565b7f4e487b7100000000000000000000000000000000000000000000000000000000600052602260045260246000fd5b6000600282049050600182168061193757607f821691505b60208210810361194a576119496118f0565b5b50919050565b60008190508160005260206000209050919050565b60006020601f8301049050919050565b600082821b905092915050565b6000600883026119b27fffffffffffffffffffffffffffffffffffffffffffffffffffffffffffffffff82611975565b6119bc8683611975565b95508019841693508086168417925050509392505050565b6000819050919050565b60006119f96119f46119ef84611209565b6119d4565b611209565b9050919050565b6000819050919050565b611a13836119de565b611a27611a1f82611a00565b848454611982565b825550505050565b600090565b611a3c611a2f565b611a47818484611a0a565b505050565b5b81811015611a6b57611a60600082611a34565b600181019050611a4d565b5050565b601f821115611ab057611a8181611950565b611a8a84611965565b81016020851015611a99578190505b611aad611aa585611965565b830182611a4c565b50505b505050565b600082821c905092915050565b6000611ad360001984600802611ab5565b1980831691505092915050565b6000611aec8383611ac2565b9150826002028217905092915050565b611b05826115a6565b67ffffffffffffffff811115611b1e57611b1d611287565b5b611b28825461191f565b611b33828285611a6f565b600060209050601f831160018114611b665760008415611b54578287015190505b611b5e8582611ae0565b865550611bc6565b601f198416611b7486611950565b60005b82811015611b9c57848901518255600182019150602085019450602081019050611b77565b86831015611bb95784890151611bb5601f891682611ac2565b8355505b6001600288020188555050505b505050505050565b600082825260208201905092915050565b7f64656164206c696e652063616e6e20627220696e207468652070617374000000600082015250565b6000611c15601d83611bce565b9150611c2082611bdf565b602082019050919050565b60006020820190508181036000830152611c4481611c08565b9050919050565b611c548161148f565b82525050565b611c6381611209565b82525050565b611c728161142f565b82525050565b611c81816114cd565b82525050565b600081519050919050565b600082825260208201905092915050565b6000611cae82611c87565b611cb88185611c92565b9350611cc88185602086016115c2565b611cd181611276565b840191505092915050565b600060e082019050611cf1600083018a611405565b611cfe6020830189611c4b565b611d0b6040830188611c5a565b611d186060830187611c4b565b611d256080830186611c69565b611d3260a0830185611c78565b81810360c0830152611d448184611ca3565b905098975050505050505050565b7f496e76616c696420726f6c650000000000000000000000000000000000000000600082015250565b6000611d88600c83611bce565b9150611d9382611d52565b602082019050919050565b60006020820190508181036000830152611db781611d7b565b9050919050565b60008154611dcb8161191f565b611dd58186611bce565b94506001821660008114611df05760018114611e0657611e39565b60ff198316865281151560200286019350611e39565b611e0f85611950565b60005b83811015611e3157815481890152600182019150602081019050611e12565b808801955050505b50505092915050565b6000604082019050611e576000830185611c4b565b8181036020830152611e698184611dbe565b90509392505050565b600081519050611e8181611213565b92915050565b600060208284031215611e9d57611e9c6111ff565b5b6000611eab84828501611e72565b9150509291505056fea2646970667358221220bbe6a793e35b3a4de69b065ad88fb09dd8e3cee8eb1c327695ba7dd73ea6fe9264736f6c634300081e0033",
  "linkReferences": {},
  "deployedLinkReferences": {}
}