{"contracts/TokenGatedDAO.sol":{"TokenGatedDAO":{"abi":[{"inputs":[{"internalType":"address","name":"_rolesRegistry","type":"address"},{"internalType":"address","name":"_membershipCollection","type":"address"}],"stateMutability":"nonpayable","type":"constructor"},{"anonymous":false,"inputs":[{"indexed":true,"internalType":"uint256","name":"id","type":"uint256"},{"indexed":false,"internalType":"bool","name":"passed","type":"bool"}],"name":"Executed","type":"event"},{"anonymous":false,"inputs":[{"indexed":true,"internalType":"uint256","name":"id","type":"uint256"},{"indexed":true,"internalType":"address","name":"proposer","type":"address"},{"indexed":false,"internalType":"uint256","name":"tokenId","type":"uint256"},{"indexed":false,"internalType":"string","name":"description","type":"string"},{"indexed":false,"internalType":"uint256","name":"deadline","type":"uint256"}],"name":"Proposed","type":"event"},{"anonymous":false,"inputs":[{"indexed":true,"internalType":"uint256","name":"id","type":"uint256"},{"indexed":true,"internalType":"address","name":"voter","type":"address"},{"indexed":false,"internalType":"uint256","name":"tokenId","type":"uint256"},{"indexed":false,"internalType":"bool","name":"support","type":"bool"},{"indexed":false,"internalType":"uint256","name":"weight","type":"uint256"}],"name":"Voted","type":"event"},{"inputs":[],"name":"ROLE_EXECUTOR","outputs":[{"internalType":"bytes32","name":"","type":"bytes32"}],"stateMutability":"view","type":"function"},{"inputs":[],"name":"ROLE_PROPOSER","outputs":[{"internalType":"bytes32","name":"","type":"bytes32"}],"stateMutability":"view","type":"function"},{"inputs":[],"name":"ROLE_VOTER","outputs":[{"internalType":"bytes32","name":"","type":"bytes32"}],"stateMutability":"view","type":"function"},{"inputs":[{"internalType":"uint256","name":"id","type":"uint256"},{"internalType":"uint256","name":"tokenId","type":"uint256"}],"name":"execute","outputs":[],"stateMutability":"nonpayable","type":"function"},{"inputs":[{"internalType":"uint256","name":"id","type":"uint256"}],"name":"getProposal","outputs":[{"internalType":"string","name":"description","type":"string"},{"internalType":"uint256","name":"deadline","type":"uint256"},{"internalType":"uint256","name":"forVotes","type":"uint256"},{"internalType":"uint256","name":"againstVotes","type":"uint256"},{"internalType":"bool","name":"executed","type":"bool"}],"stateMutability":"view","type":"function"},{"inputs":[{"internalType":"address","name":"account","type":"address"},{"internalType":"uint256","name":"tokenId","type":"uint256"}],"name":"hasVotingRights","outputs":[{"internalType":"bool","name":"","type":"bool"}],"stateMutability":"view","type":"function"},{"inputs":[],"name":"membershipCollection","outputs":[{"internalType":"address","name":"","type":"address"}],"stateMutability":"view","type":"function"},{"inputs":[],"name":"proposalCount","outputs":[{"internalType":"uint256","name":"","type":"uint256"}],"stateMutability":"view","type":"function"},{"inputs":[{"internalType":"string","name":"description","type":"string"},{"internalType":"uint256","name":"tokenId","type":"uint256"}],"name":"propose","outputs":[{"internalType":"uint256","name":"","type":"uint256"}],"stateMutability":"nonpayable","type":"function"},{"inputs":[],"name":"rolesRegistry","outputs":[{"internalType":"contract IERC7432","name":"","type":"address"}],"stateMutability":"view","type":"function"},{"inputs":[{"internalType":"uint256","name":"id","type":"uint256"},{"internalType":"uint256","name":"tokenId","type":"uint256"},{"internalType":"bool","name":"support","type":"bool"}],"name":"vote","outputs":[],"stateMutability":"nonpayable","type":"function"},{"inputs":[],"name":"votingPeriod","outputs":[{"internalType":"uint256","name":"","type":"uint256"}],"stateMutability":"view","type":"function"}],"evm":{"bytecode":{"linkReferences":{},"object":"60c06040526203f48060005534801561001757600080fd5b50604051611bf3380380611bf38339818101604052810190610039919061010b565b8173ffffffffffffffffffffffffffffffffffffffff1660808173ffffffffffffffffffffffffffffffffffffffff16815250508073ffffffffffffffffffffffffffffffffffffffff1660a08173ffffffffffffffffffffffffffffffffffffffff1681525050505061014b565b600080fd5b600073ffffffffffffffffffffffffffffffffffffffff82169050919050565b60006100d8826100ad565b9050919050565b6100e8816100cd565b81146100f357600080fd5b50565b600081519050610105816100df565b92915050565b60008060408385031215610122576101216100a8565b5b6000610130858286016100f6565b9250506020610141858286016100f6565b9150509250929050565b60805160a051611a606101936000396000818161056f0152818161070801528181610a2a0152610b0e0152600081816108a3015281816109ee0152610ad20152611a606000f3fe608060405234801561001057600080fd5b50600436106100b45760003560e01c80639cbba816116100715780639cbba8161461018d578063a2efc051146101ab578063b8173414146101c9578063c7f758a8146101e7578063d958ddf61461021b578063da35c66414610239576100b4565b806302a251a3146100b9578063184ea9d6146100d75780635601eaea146101075780636a18ff7a1461012357806387f44b241461013f5780638d1cb8b51461015d575b600080fd5b6100c1610257565b6040516100ce9190610be0565b60405180910390f35b6100f160048036038101906100ec9190610c8f565b61025d565b6040516100fe9190610cea565b60405180910390f35b610121600480360381019061011c9190610d05565b610292565b005b61013d60048036038101906101389190610d71565b61045d565b005b610147610706565b6040516101549190610dd3565b60405180910390f35b61017760048036038101906101729190610e53565b61072a565b6040516101849190610be0565b60405180910390f35b610195610859565b6040516101a29190610ecc565b60405180910390f35b6101b361087d565b6040516101c09190610ecc565b60405180910390f35b6101d16108a1565b6040516101de9190610f46565b60405180910390f35b61020160048036038101906101fc9190610f61565b6108c5565b60405161021295949392919061101e565b60405180910390f35b6102236109a9565b6040516102309190610ecc565b60405180910390f35b6102416109cd565b60405161024e9190610be0565b60405180910390f35b60005481565b600061028a7f7aebab109969859d364b2de45a87de507b2ec95188d3e36efc39f700798d415884846109d3565b905092915050565b600060026000848152602001908152602001600020905060008160010154036102f0576040517f08c379a00000000000000000000000000000000000000000000000000000000081526004016102e7906110c4565b60405180910390fd5b8060010154421015610337576040517f08c379a000000000000000000000000000000000000000000000000000000000815260040161032e90611130565b60405180910390fd5b8060040160009054906101000a900460ff1615610389576040517f08c379a00000000000000000000000000000000000000000000000000000000081526004016103809061119c565b60405180910390fd5b6103b47fac724096f6213f1ba3ef31d6f40e1d291e98d4bf04675e624df1e7f78b0c89da33846109d3565b6103f3576040517f08c379a00000000000000000000000000000000000000000000000000000000081526004016103ea90611208565b60405180910390fd5b60008160030154826002015411905060018260040160006101000a81548160ff021916908315150217905550837ffa9788a6b2f6e96ab2d85a5b4ed3668e72b91e06c5eec6b3e87afd95fe5368638260405161044f9190610cea565b60405180910390a250505050565b600060026000858152602001908152602001600020905060008160010154036104bb576040517f08c379a00000000000000000000000000000000000000000000000000000000081526004016104b2906110c4565b60405180910390fd5b80600101544210610501576040517f08c379a00000000000000000000000000000000000000000000000000000000081526004016104f890611274565b60405180910390fd5b61052c7f7aebab109969859d364b2de45a87de507b2ec95188d3e36efc39f700798d415833856109d3565b61056b576040517f08c379a0000000000000000000000000000000000000000000000000000000008152600401610562906112e0565b60405180910390fd5b60007f0000000000000000000000000000000000000000000000000000000000000000847f7aebab109969859d364b2de45a87de507b2ec95188d3e36efc39f700798d41586040516020016105c29392919061138a565b60405160208183030381529060405280519060200120905081600501600082815260200190815260200160002060009054906101000a900460ff161561063d576040517f08c379a000000000000000000000000000000000000000000000000000000000815260040161063490611413565b60405180910390fd5b600182600501600083815260200190815260200160002060006101000a81548160ff02191690831515021790555082156106905781600201600081548092919061068690611462565b91905055506106ab565b8160030160008154809291906106a590611462565b91905055505b3373ffffffffffffffffffffffffffffffffffffffff16857f053ec11927404a1ffa7c4caf7350eb7c9aca46d058ff331b9ebbd5f9e1605bea868660016040516106f7939291906114e5565b60405180910390a35050505050565b7f000000000000000000000000000000000000000000000000000000000000000081565b60006107577f35c08f4b68ac53acafe32b91f1e3e55c7fa62246021e9ba8ed54d90be19a805733846109d3565b610796576040517f08c379a000000000000000000000000000000000000000000000000000000000815260040161078d90611568565b60405180910390fd5b600160008154809291906107a990611462565b91905055506000600260006001548152602001908152602001600020905084848260000191826107da9291906117c4565b50600054426107e99190611894565b81600101819055503373ffffffffffffffffffffffffffffffffffffffff166001547f5c607f616bb9ea7bd8dabaa61abd23692e4c06ca36ebfcbcbafff25339baf67c85888886600101546040516108449493929190611904565b60405180910390a36001549150509392505050565b7f7aebab109969859d364b2de45a87de507b2ec95188d3e36efc39f700798d415881565b7f35c08f4b68ac53acafe32b91f1e3e55c7fa62246021e9ba8ed54d90be19a805781565b7f000000000000000000000000000000000000000000000000000000000000000081565b60606000806000806000600260008881526020019081526020016000209050806000018160010154826002015483600301548460040160009054906101000a900460ff16848054610915906115f1565b80601f0160208091040260200160405190810160405280929190818152602001828054610941906115f1565b801561098e5780601f106109635761010080835404028352916020019161098e565b820191906000526020600020905b81548152906001019060200180831161097157829003601f168201915b50505050509450955095509550955095505091939590929450565b7fac724096f6213f1ba3ef31d6f40e1d291e98d4bf04675e624df1e7f78b0c89da81565b60015481565b60008273ffffffffffffffffffffffffffffffffffffffff167f000000000000000000000000000000000000000000000000000000000000000073ffffffffffffffffffffffffffffffffffffffff16633f916b487f000000000000000000000000000000000000000000000000000000000000000085886040518463ffffffff1660e01b8152600401610a6993929190611944565b602060405180830381865afa158015610a86573d6000803e3d6000fd5b505050506040513d601f19601f82011682018060405250810190610aaa9190611990565b73ffffffffffffffffffffffffffffffffffffffff1614610ace5760009050610bc0565b60007f000000000000000000000000000000000000000000000000000000000000000073ffffffffffffffffffffffffffffffffffffffff166365b0205b7f000000000000000000000000000000000000000000000000000000000000000085886040518463ffffffff1660e01b8152600401610b4d93929190611944565b602060405180830381865afa158015610b6a573d6000803e3d6000fd5b505050506040513d601f19601f82011682018060405250810190610b8e91906119fd565b905067ffffffffffffffff80168167ffffffffffffffff161480610bbc5750428167ffffffffffffffff1610155b9150505b9392505050565b6000819050919050565b610bda81610bc7565b82525050565b6000602082019050610bf56000830184610bd1565b92915050565b600080fd5b600080fd5b600073ffffffffffffffffffffffffffffffffffffffff82169050919050565b6000610c3082610c05565b9050919050565b610c4081610c25565b8114610c4b57600080fd5b50565b600081359050610c5d81610c37565b92915050565b610c6c81610bc7565b8114610c7757600080fd5b50565b600081359050610c8981610c63565b92915050565b60008060408385031215610ca657610ca5610bfb565b5b6000610cb485828601610c4e565b9250506020610cc585828601610c7a565b9150509250929050565b60008115159050919050565b610ce481610ccf565b82525050565b6000602082019050610cff6000830184610cdb565b92915050565b60008060408385031215610d1c57610d1b610bfb565b5b6000610d2a85828601610c7a565b9250506020610d3b85828601610c7a565b9150509250929050565b610d4e81610ccf565b8114610d5957600080fd5b50565b600081359050610d6b81610d45565b92915050565b600080600060608486031215610d8a57610d89610bfb565b5b6000610d9886828701610c7a565b9350506020610da986828701610c7a565b9250506040610dba86828701610d5c565b9150509250925092565b610dcd81610c25565b82525050565b6000602082019050610de86000830184610dc4565b92915050565b600080fd5b600080fd5b600080fd5b60008083601f840112610e1357610e12610dee565b5b8235905067ffffffffffffffff811115610e3057610e2f610df3565b5b602083019150836001820283011115610e4c57610e4b610df8565b5b9250929050565b600080600060408486031215610e6c57610e6b610bfb565b5b600084013567ffffffffffffffff811115610e8a57610e89610c00565b5b610e9686828701610dfd565b93509350506020610ea986828701610c7a565b9150509250925092565b6000819050919050565b610ec681610eb3565b82525050565b6000602082019050610ee16000830184610ebd565b92915050565b6000819050919050565b6000610f0c610f07610f0284610c05565b610ee7565b610c05565b9050919050565b6000610f1e82610ef1565b9050919050565b6000610f3082610f13565b9050919050565b610f4081610f25565b82525050565b6000602082019050610f5b6000830184610f37565b92915050565b600060208284031215610f7757610f76610bfb565b5b6000610f8584828501610c7a565b91505092915050565b600081519050919050565b600082825260208201905092915050565b60005b83811015610fc8578082015181840152602081019050610fad565b60008484015250505050565b6000601f19601f8301169050919050565b6000610ff082610f8e565b610ffa8185610f99565b935061100a818560208601610faa565b61101381610fd4565b840191505092915050565b600060a08201905081810360008301526110388188610fe5565b90506110476020830187610bd1565b6110546040830186610bd1565b6110616060830185610bd1565b61106e6080830184610cdb565b9695505050505050565b7f4e6f20737563682070726f706f73616c00000000000000000000000000000000600082015250565b60006110ae601083610f99565b91506110b982611078565b602082019050919050565b600060208201905081810360008301526110dd816110a1565b9050919050565b7f566f74696e67206e6f7420656e64656400000000000000000000000000000000600082015250565b600061111a601083610f99565b9150611125826110e4565b602082019050919050565b600060208201905081810360008301526111498161110d565b9050919050565b7f416c726561647920657865637574656400000000000000000000000000000000600082015250565b6000611186601083610f99565b915061119182611150565b602082019050919050565b600060208201905081810360008301526111b581611179565b9050919050565b7f4e6f7420616e206578656375746f7220666f72207468697320746f6b656e0000600082015250565b60006111f2601e83610f99565b91506111fd826111bc565b602082019050919050565b60006020820190508181036000830152611221816111e5565b9050919050565b7f566f74696e6720656e6465640000000000000000000000000000000000000000600082015250565b600061125e600c83610f99565b915061126982611228565b602082019050919050565b6000602082019050818103600083015261128d81611251565b9050919050565b7f4e6f74206120766f74657220666f72207468697320746f6b656e000000000000600082015250565b60006112ca601a83610f99565b91506112d582611294565b602082019050919050565b600060208201905081810360008301526112f9816112bd565b9050919050565b60008160601b9050919050565b600061131882611300565b9050919050565b600061132a8261130d565b9050919050565b61134261133d82610c25565b61131f565b82525050565b6000819050919050565b61136361135e82610bc7565b611348565b82525050565b6000819050919050565b61138461137f82610eb3565b611369565b82525050565b60006113968286611331565b6014820191506113a68285611352565b6020820191506113b68284611373565b602082019150819050949350505050565b7f416c726561647920766f74656420666f72207468697320746f6b656e00000000600082015250565b60006113fd601c83610f99565b9150611408826113c7565b602082019050919050565b6000602082019050818103600083015261142c816113f0565b9050919050565b7f4e487b7100000000000000000000000000000000000000000000000000000000600052601160045260246000fd5b600061146d82610bc7565b91507fffffffffffffffffffffffffffffffffffffffffffffffffffffffffffffffff820361149f5761149e611433565b5b600182019050919050565b6000819050919050565b60006114cf6114ca6114c5846114aa565b610ee7565b610bc7565b9050919050565b6114df816114b4565b82525050565b60006060820190506114fa6000830186610bd1565b6115076020830185610cdb565b61151460408301846114d6565b949350505050565b7f4e6f7420612070726f706f73657220666f72207468697320746f6b656e000000600082015250565b6000611552601d83610f99565b915061155d8261151c565b602082019050919050565b6000602082019050818103600083015261158181611545565b9050919050565b600082905092915050565b7f4e487b7100000000000000000000000000000000000000000000000000000000600052604160045260246000fd5b7f4e487b7100000000000000000000000000000000000000000000000000000000600052602260045260246000fd5b6000600282049050600182168061160957607f821691505b60208210810361161c5761161b6115c2565b5b50919050565b60008190508160005260206000209050919050565b60006020601f8301049050919050565b600082821b905092915050565b6000600883026116847fffffffffffffffffffffffffffffffffffffffffffffffffffffffffffffffff82611647565b61168e8683611647565b95508019841693508086168417925050509392505050565b60006116c16116bc6116b784610bc7565b610ee7565b610bc7565b9050919050565b6000819050919050565b6116db836116a6565b6116ef6116e7826116c8565b848454611654565b825550505050565b600090565b6117046116f7565b61170f8184846116d2565b505050565b5b81811015611733576117286000826116fc565b600181019050611715565b5050565b601f8211156117785761174981611622565b61175284611637565b81016020851015611761578190505b61177561176d85611637565b830182611714565b50505b505050565b600082821c905092915050565b600061179b6000198460080261177d565b1980831691505092915050565b60006117b4838361178a565b9150826002028217905092915050565b6117ce8383611588565b67ffffffffffffffff8111156117e7576117e6611593565b5b6117f182546115f1565b6117fc828285611737565b6000601f83116001811461182b5760008415611819578287013590505b61182385826117a8565b86555061188b565b601f19841661183986611622565b60005b828110156118615784890135825560018201915060208501945060208101905061183c565b8683101561187e578489013561187a601f89168261178a565b8355505b6001600288020188555050505b50505050505050565b600061189f82610bc7565b91506118aa83610bc7565b92508282019050808211156118c2576118c1611433565b5b92915050565b82818337600083830152505050565b60006118e38385610f99565b93506118f08385846118c8565b6118f983610fd4565b840190509392505050565b60006060820190506119196000830187610bd1565b818103602083015261192c8185876118d7565b905061193b6040830184610bd1565b95945050505050565b60006060820190506119596000830186610dc4565b6119666020830185610bd1565b6119736040830184610ebd565b949350505050565b60008151905061198a81610c37565b92915050565b6000602082840312156119a6576119a5610bfb565b5b60006119b48482850161197b565b91505092915050565b600067ffffffffffffffff82169050919050565b6119da816119bd565b81146119e557600080fd5b50565b6000815190506119f7816119d1565b92915050565b600060208284031215611a1357611a12610bfb565b5b6000611a21848285016119e8565b9150509291505056fea2646970667358221220ebeb21ef106b0b08cda54435a6f29a9b62aa6590f3268b0ecf54d03d5217038464736f6c634300081c0033","opcodes":"PUSH1 0xC0 PUSH1 0x40 MSTORE PUSH3 0x3F480 PUSH1 0x0 SSTORE CALLVALUE DUP1 ISZERO PUSH2 0x17 JUMPI PUSH1 0x0 DUP1 REVERT JUMPDEST POP PUSH1 0x40 MLOAD PUSH2 0x1BF3 CODESIZE SUB DUP1 PUSH2 0x1BF3 DUP4 CODECOPY DUP2 DUP2 ADD PUSH1 0x40 MSTORE DUP2 ADD SWAP1 PUSH2 0x39 SWAP2 SWAP1 PUSH2 0x10B JUMP JUMPDEST DUP2 PUSH20 0xFFFFFFFFFFFFFFFFFFFFFFFFFFFFFFFFFFFFFFFF AND PUSH1 0x80 DUP2 PUSH20 0xFFFFFFFFFFFFFFFFFFFFFFFFFFFFFFFFFFFFFFFF AND DUP2 MSTORE POP POP DUP1 PUSH20 0xFFFFFFFFFFFFFFFFFFFFFFFFFFFFFFFFFFFFFFFF AND PUSH1 0xA0 DUP2 PUSH20 0xFFFFFFFFFFFFFFFFFFFFFFFFFFFFFFFFFFFFFFFF AND DUP2 MSTORE POP POP POP POP PUSH2 0x14B JUMP JUMPDEST PUSH1 0x0 DUP1 REVERT JUMPDEST PUSH1 0x0 PUSH20 0xFFFFFFFFFFFFFFFFFFFFFFFFFFFFFFFFFFFFFFFF DUP3 AND SWAP1 POP SWAP2 SWAP1 POP JUMP JUMPDEST PUSH1 0x0 PUSH2 0xD8 DUP3 PUSH2 0xAD JUMP JUMPDEST SWAP1 POP SWAP2 SWAP1 POP JUMP JUMPDEST PUSH2 0xE8 DUP2 PUSH2 0xCD JUMP JUMPDEST DUP2 EQ PUSH2 0xF3 JUMPI PUSH1 0x0 DUP1 REVERT JUMPDEST POP JUMP JUMPDEST PUSH1 0x0 DUP2 MLOAD SWAP1 POP PUSH2 0x105 DUP2 PUSH2 0xDF JUMP JUMPDEST SWAP3 SWAP2 POP POP JUMP JUMPDEST PUSH1 0x0 DUP1 PUSH1 0x40 DUP4 DUP6 SUB SLT ISZERO PUSH2 0x122 JUMPI PUSH2 0x121 PUSH2 0xA8 JUMP JUMPDEST JUMPDEST PUSH1 0x0 PUSH2 0x130 DUP6 DUP3 DUP7 ADD PUSH2 0xF6 JUMP JUMPDEST SWAP3 POP POP PUSH1 0x20 PUSH2 0x141 DUP6 DUP3 DUP7 ADD PUSH2 0xF6 JUMP JUMPDEST SWAP2 POP POP SWAP3 POP SWAP3 SWAP1 POP JUMP JUMPDEST PUSH1 0x80 MLOAD PUSH1 0xA0 MLOAD PUSH2 0x1A60 PUSH2 0x193 PUSH1 0x0 CODECOPY PUSH1 0x0 DUP2 DUP2 PUSH2 0x56F ADD MSTORE DUP2 DUP2 PUSH2 0x708 ADD MSTORE DUP2 DUP2 PUSH2 0xA2A ADD MSTORE PUSH2 0xB0E ADD MSTORE PUSH1 0x0 DUP2 DUP2 PUSH2 0x8A3 ADD MSTORE DUP2 DUP2 PUSH2 0x9EE ADD MSTORE PUSH2 0xAD2 ADD MSTORE PUSH2 0x1A60 PUSH1 0x0 RETURN INVALID PUSH1 0x80 PUSH1 0x40 MSTORE CALLVALUE DUP1 ISZERO PUSH2 0x10 JUMPI PUSH1 0x0 DUP1 REVERT JUMPDEST POP PUSH1 0x4 CALLDATASIZE LT PUSH2 0xB4 JUMPI PUSH1 0x0 CALLDATALOAD PUSH1 0xE0 SHR DUP1 PUSH4 0x9CBBA816 GT PUSH2 0x71 JUMPI DUP1 PUSH4 0x9CBBA816 EQ PUSH2 0x18D JUMPI DUP1 PUSH4 0xA2EFC051 EQ PUSH2 0x1AB JUMPI DUP1 PUSH4 0xB8173414 EQ PUSH2 0x1C9 JUMPI DUP1 PUSH4 0xC7F758A8 EQ PUSH2 0x1E7 JUMPI DUP1 PUSH4 0xD958DDF6 EQ PUSH2 0x21B JUMPI DUP1 PUSH4 0xDA35C664 EQ PUSH2 0x239 JUMPI PUSH2 0xB4 JUMP JUMPDEST DUP1 PUSH4 0x2A251A3 EQ PUSH2 0xB9 JUMPI DUP1 PUSH4 0x184EA9D6 EQ PUSH2 0xD7 JUMPI DUP1 PUSH4 0x5601EAEA EQ PUSH2 0x107 JUMPI DUP1 PUSH4 0x6A18FF7A EQ PUSH2 0x123 JUMPI DUP1 PUSH4 0x87F44B24 EQ PUSH2 0x13F JUMPI DUP1 PUSH4 0x8D1CB8B5 EQ PUSH2 0x15D JUMPI JUMPDEST PUSH1 0x0 DUP1 REVERT JUMPDEST PUSH2 0xC1 PUSH2 0x257 JUMP JUMPDEST PUSH1 0x40 MLOAD PUSH2 0xCE SWAP2 SWAP1 PUSH2 0xBE0 JUMP JUMPDEST PUSH1 0x40 MLOAD DUP1 SWAP2 SUB SWAP1 RETURN JUMPDEST PUSH2 0xF1 PUSH1 0x4 DUP1 CALLDATASIZE SUB DUP2 ADD SWAP1 PUSH2 0xEC SWAP2 SWAP1 PUSH2 0xC8F JUMP JUMPDEST PUSH2 0x25D JUMP JUMPDEST PUSH1 0x40 MLOAD PUSH2 0xFE SWAP2 SWAP1 PUSH2 0xCEA JUMP JUMPDEST PUSH1 0x40 MLOAD DUP1 SWAP2 SUB SWAP1 RETURN JUMPDEST PUSH2 0x121 PUSH1 0x4 DUP1 CALLDATASIZE SUB DUP2 ADD SWAP1 PUSH2 0x11C SWAP2 SWAP1 PUSH2 0xD05 JUMP JUMPDEST PUSH2 0x292 JUMP JUMPDEST STOP JUMPDEST PUSH2 0x13D PUSH1 0x4 DUP1 CALLDATASIZE SUB DUP2 ADD SWAP1 PUSH2 0x138 SWAP2 SWAP1 PUSH2 0xD71 JUMP JUMPDEST PUSH2 0x45D JUMP JUMPDEST STOP JUMPDEST PUSH2 0x147 PUSH2 0x706 JUMP JUMPDEST PUSH1 0x40 MLOAD PUSH2 0x154 SWAP2 SWAP1 PUSH2 0xDD3 JUMP JUMPDEST PUSH1 0x40 MLOAD DUP1 SWAP2 SUB SWAP1 RETURN JUMPDEST PUSH2 0x177 PUSH1 0x4 DUP1 CALLDATASIZE SUB DUP2 ADD SWAP1 PUSH2 0x172 SWAP2 SWAP1 PUSH2 0xE53 JUMP JUMPDEST PUSH2 0x72A JUMP JUMPDEST PUSH1 0x40 MLOAD PUSH2 0x184 SWAP2 SWAP1 PUSH2 0xBE0 JUMP JUMPDEST PUSH1 0x40 MLOAD DUP1 SWAP2 SUB SWAP1 RETURN JUMPDEST PUSH2 0x195 PUSH2 0x859 JUMP JUMPDEST PUSH1 0x40 MLOAD PUSH2 0x1A2 SWAP2 SWAP1 PUSH2 0xECC JUMP JUMPDEST PUSH1 0x40 MLOAD DUP1 SWAP2 SUB SWAP1 RETURN JUMPDEST PUSH2 0x1B3 PUSH2 0x87D JUMP JUMPDEST PUSH1 0x40 MLOAD PUSH2 0x1C0 SWAP2 SWAP1 PUSH2 0xECC JUMP JUMPDEST PUSH1 0x40 MLOAD DUP1 SWAP2 SUB SWAP1 RETURN JUMPDEST PUSH2 0x1D1 PUSH2 0x8A1 JUMP JUMPDEST PUSH1 0x40 MLOAD PUSH2 0x1DE SWAP2 SWAP1 PUSH2 0xF46 JUMP JUMPDEST PUSH1 0x40 MLOAD DUP1 SWAP2 SUB SWAP1 RETURN JUMPDEST PUSH2 0x201 PUSH1 0x4 DUP1 CALLDATASIZE SUB DUP2 ADD SWAP1 PUSH2 0x1FC SWAP2 SWAP1 PUSH2 0xF61 JUMP JUMPDEST PUSH2 0x8C5 JUMP JUMPDEST PUSH1 0x40 MLOAD PUSH2 0x212 SWAP6 SWAP5 SWAP4 SWAP3 SWAP2 SWAP1 PUSH2 0x101E JUMP JUMPDEST PUSH1 0x40 MLOAD DUP1 SWAP2 SUB SWAP1 RETURN JUMPDEST PUSH2 0x223 PUSH2 0x9A9 JUMP JUMPDEST PUSH1 0x40 MLOAD PUSH2 0x230 SWAP2 SWAP1 PUSH2 0xECC JUMP JUMPDEST PUSH1 0x40 MLOAD DUP1 SWAP2 SUB SWAP1 RETURN JUMPDEST PUSH2 0x241 PUSH2 0x9CD JUMP JUMPDEST PUSH1 0x40 MLOAD PUSH2 0x24E SWAP2 SWAP1 PUSH2 0xBE0 JUMP JUMPDEST PUSH1 0x40 MLOAD DUP1 SWAP2 SUB SWAP1 RETURN JUMPDEST PUSH1 0x0 SLOAD DUP2 JUMP JUMPDEST PUSH1 0x0 PUSH2 0x28A PUSH32 0x7AEBAB109969859D364B2DE45A87DE507B2EC95188D3E36EFC39F700798D4158 DUP5 DUP5 PUSH2 0x9D3 JUMP JUMPDEST SWAP1 POP SWAP3 SWAP2 POP POP JUMP JUMPDEST PUSH1 0x0 PUSH1 0x2 PUSH1 0x0 DUP5 DUP2 MSTORE PUSH1 0x20 ADD SWAP1 DUP2 MSTORE PUSH1 0x20 ADD PUSH1 0x0 KECCAK256 SWAP1 POP PUSH1 0x0 DUP2 PUSH1 0x1 ADD SLOAD SUB PUSH2 0x2F0 JUMPI PUSH1 0x40 MLOAD PUSH32 0x8C379A000000000000000000000000000000000000000000000000000000000 DUP2 MSTORE PUSH1 0x4 ADD PUSH2 0x2E7 SWAP1 PUSH2 0x10C4 JUMP JUMPDEST PUSH1 0x40 MLOAD DUP1 SWAP2 SUB SWAP1 REVERT JUMPDEST DUP1 PUSH1 0x1 ADD SLOAD TIMESTAMP LT ISZERO PUSH2 0x337 JUMPI PUSH1 0x40 MLOAD PUSH32 0x8C379A000000000000000000000000000000000000000000000000000000000 DUP2 MSTORE PUSH1 0x4 ADD PUSH2 0x32E SWAP1 PUSH2 0x1130 JUMP JUMPDEST PUSH1 0x40 MLOAD DUP1 SWAP2 SUB SWAP1 REVERT JUMPDEST DUP1 PUSH1 0x4 ADD PUSH1 0x0 SWAP1 SLOAD SWAP1 PUSH2 0x100 EXP SWAP1 DIV PUSH1 0xFF AND ISZERO PUSH2 0x389 JUMPI PUSH1 0x40 MLOAD PUSH32 0x8C379A000000000000000000000000000000000000000000000000000000000 DUP2 MSTORE PUSH1 0x4 ADD PUSH2 0x380 SWAP1 PUSH2 0x119C JUMP JUMPDEST PUSH1 0x40 MLOAD DUP1 SWAP2 SUB SWAP1 REVERT JUMPDEST PUSH2 0x3B4 PUSH32 0xAC724096F6213F1BA3EF31D6F40E1D291E98D4BF04675E624DF1E7F78B0C89DA CALLER DUP5 PUSH2 0x9D3 JUMP JUMPDEST PUSH2 0x3F3 JUMPI PUSH1 0x40 MLOAD PUSH32 0x8C379A000000000000000000000000000000000000000000000000000000000 DUP2 MSTORE PUSH1 0x4 ADD PUSH2 0x3EA SWAP1 PUSH2 0x1208 JUMP JUMPDEST PUSH1 0x40 MLOAD DUP1 SWAP2 SUB SWAP1 REVERT JUMPDEST PUSH1 0x0 DUP2 PUSH1 0x3 ADD SLOAD DUP3 PUSH1 0x2 ADD SLOAD GT SWAP1 POP PUSH1 0x1 DUP3 PUSH1 0x4 ADD PUSH1 0x0 PUSH2 0x100 EXP DUP2 SLOAD DUP2 PUSH1 0xFF MUL NOT AND SWAP1 DUP4 ISZERO ISZERO MUL OR SWAP1 SSTORE POP DUP4 PUSH32 0xFA9788A6B2F6E96AB2D85A5B4ED3668E72B91E06C5EEC6B3E87AFD95FE536863 DUP3 PUSH1 0x40 MLOAD PUSH2 0x44F SWAP2 SWAP1 PUSH2 0xCEA JUMP JUMPDEST PUSH1 0x40 MLOAD DUP1 SWAP2 SUB SWAP1 LOG2 POP POP POP POP JUMP JUMPDEST PUSH1 0x0 PUSH1 0x2 PUSH1 0x0 DUP6 DUP2 MSTORE PUSH1 0x20 ADD SWAP1 DUP2 MSTORE PUSH1 0x20 ADD PUSH1 0x0 KECCAK256 SWAP1 POP PUSH1 0x0 DUP2 PUSH1 0x1 ADD SLOAD SUB PUSH2 0x4BB JUMPI PUSH1 0x40 MLOAD PUSH32 0x8C379A000000000000000000000000000000000000000000000000000000000 DUP2 MSTORE PUSH1 0x4 ADD PUSH2 0x4B2 SWAP1 PUSH2 0x10C4 JUMP JUMPDEST PUSH1 0x40 MLOAD DUP1 SWAP2 SUB SWAP1 REVERT JUMPDEST DUP1 PUSH1 0x1 ADD SLOAD TIMESTAMP LT PUSH2 0x501 JUMPI PUSH1 0x40 MLOAD PUSH32 0x8C379A000000000000000000000000000000000000000000000000000000000 DUP2 MSTORE PUSH1 0x4 ADD PUSH2 0x4F8 SWAP1 PUSH2 0x1274 JUMP JUMPDEST PUSH1 0x40 MLOAD DUP1 SWAP2 SUB SWAP1 REVERT JUMPDEST PUSH2 0x52C PUSH32 0x7AEBAB109969859D364B2DE45A87DE507B2EC95188D3E36EFC39F700798D4158 CALLER DUP6 PUSH2 0x9D3 JUMP JUMPDEST PUSH2 0x56B JUMPI PUSH1 0x40 MLOAD PUSH32 0x8C379A000000000000000000000000000000000000000000000000000000000 DUP2 MSTORE PUSH1 0x4 ADD PUSH2 0x562 SWAP1 PUSH2 0x12E0 JUMP JUMPDEST PUSH1 0x40 MLOAD DUP1 SWAP2 SUB SWAP1 REVERT JUMPDEST PUSH1 0x0 PUSH32 0x0 DUP5 PUSH32 0x7AEBAB109969859D364B2DE45A87DE507B2EC95188D3E36EFC39F700798D4158 PUSH1 0x40 MLOAD PUSH1 0x20 ADD PUSH2 0x5C2 SWAP4 SWAP3 SWAP2 SWAP1 PUSH2 0x138A JUMP JUMPDEST PUSH1 0x40 MLOAD PUSH1 0x20 DUP2 DUP4 SUB SUB DUP2 MSTORE SWAP1 PUSH1 0x40 MSTORE DUP1 MLOAD SWAP1 PUSH1 0x20 ADD KECCAK256 SWAP1 POP DUP2 PUSH1 0x5 ADD PUSH1 0x0 DUP3 DUP2 MSTORE PUSH1 0x20 ADD SWAP1 DUP2 MSTORE PUSH1 0x20 ADD PUSH1 0x0 KECCAK256 PUSH1 0x0 SWAP1 SLOAD SWAP1 PUSH2 0x100 EXP SWAP1 DIV PUSH1 0xFF AND ISZERO PUSH2 0x63D JUMPI PUSH1 0x40 MLOAD PUSH32 0x8C379A000000000000000000000000000000000000000000000000000000000 DUP2 MSTORE PUSH1 0x4 ADD PUSH2 0x634 SWAP1 PUSH2 0x1413 JUMP JUMPDEST PUSH1 0x40 MLOAD DUP1 SWAP2 SUB SWAP1 REVERT JUMPDEST PUSH1 0x1 DUP3 PUSH1 0x5 ADD PUSH1 0x0 DUP4 DUP2 MSTORE PUSH1 0x20 ADD SWAP1 DUP2 MSTORE PUSH1 0x20 ADD PUSH1 0x0 KECCAK256 PUSH1 0x0 PUSH2 0x100 EXP DUP2 SLOAD DUP2 PUSH1 0xFF MUL NOT AND SWAP1 DUP4 ISZERO ISZERO MUL OR SWAP1 SSTORE POP DUP3 ISZERO PUSH2 0x690 JUMPI DUP2 PUSH1 0x2 ADD PUSH1 0x0 DUP2 SLOAD DUP1 SWAP3 SWAP2 SWAP1 PUSH2 0x686 SWAP1 PUSH2 0x1462 JUMP JUMPDEST SWAP2 SWAP1 POP SSTORE POP PUSH2 0x6AB JUMP JUMPDEST DUP2 PUSH1 0x3 ADD PUSH1 0x0 DUP2 SLOAD DUP1 SWAP3 SWAP2 SWAP1 PUSH2 0x6A5 SWAP1 PUSH2 0x1462 JUMP JUMPDEST SWAP2 SWAP1 POP SSTORE POP JUMPDEST CALLER PUSH20 0xFFFFFFFFFFFFFFFFFFFFFFFFFFFFFFFFFFFFFFFF AND DUP6 PUSH32 0x53EC11927404A1FFA7C4CAF7350EB7C9ACA46D058FF331B9EBBD5F9E1605BEA DUP7 DUP7 PUSH1 0x1 PUSH1 0x40 MLOAD PUSH2 0x6F7 SWAP4 SWAP3 SWAP2 SWAP1 PUSH2 0x14E5 JUMP JUMPDEST PUSH1 0x40 MLOAD DUP1 SWAP2 SUB SWAP1 LOG3 POP POP POP POP POP JUMP JUMPDEST PUSH32 0x0 DUP2 JUMP JUMPDEST PUSH1 0x0 PUSH2 0x757 PUSH32 0x35C08F4B68AC53ACAFE32B91F1E3E55C7FA62246021E9BA8ED54D90BE19A8057 CALLER DUP5 PUSH2 0x9D3 JUMP JUMPDEST PUSH2 0x796 JUMPI PUSH1 0x40 MLOAD PUSH32 0x8C379A000000000000000000000000000000000000000000000000000000000 DUP2 MSTORE PUSH1 0x4 ADD PUSH2 0x78D SWAP1 PUSH2 0x1568 JUMP JUMPDEST PUSH1 0x40 MLOAD DUP1 SWAP2 SUB SWAP1 REVERT JUMPDEST PUSH1 0x1 PUSH1 0x0 DUP2 SLOAD DUP1 SWAP3 SWAP2 SWAP1 PUSH2 0x7A9 SWAP1 PUSH2 0x1462 JUMP JUMPDEST SWAP2 SWAP1 POP SSTORE POP PUSH1 0x0 PUSH1 0x2 PUSH1 0x0 PUSH1 0x1 SLOAD DUP2 MSTORE PUSH1 0x20 ADD SWAP1 DUP2 MSTORE PUSH1 0x20 ADD PUSH1 0x0 KECCAK256 SWAP1 POP DUP5 DUP5 DUP3 PUSH1 0x0 ADD SWAP2 DUP3 PUSH2 0x7DA SWAP3 SWAP2 SWAP1 PUSH2 0x17C4 JUMP JUMPDEST POP PUSH1 0x0 SLOAD TIMESTAMP PUSH2 0x7E9 SWAP2 SWAP1 PUSH2 0x1894 JUMP JUMPDEST DUP2 PUSH1 0x1 ADD DUP2 SWAP1 SSTORE POP CALLER PUSH20 0xFFFFFFFFFFFFFFFFFFFFFFFFFFFFFFFFFFFFFFFF AND PUSH1 0x1 SLOAD PUSH32 0x5C607F616BB9EA7BD8DABAA61ABD23692E4C06CA36EBFCBCBAFFF25339BAF67C DUP6 DUP9 DUP9 DUP7 PUSH1 0x1 ADD SLOAD PUSH1 0x40 MLOAD PUSH2 0x844 SWAP5 SWAP4 SWAP3 SWAP2 SWAP1 PUSH2 0x1904 JUMP JUMPDEST PUSH1 0x40 MLOAD DUP1 SWAP2 SUB SWAP1 LOG3 PUSH1 0x1 SLOAD SWAP2 POP POP SWAP4 SWAP3 POP POP POP JUMP JUMPDEST PUSH32 0x7AEBAB109969859D364B2DE45A87DE507B2EC95188D3E36EFC39F700798D4158 DUP2 JUMP JUMPDEST PUSH32 0x35C08F4B68AC53ACAFE32B91F1E3E55C7FA62246021E9BA8ED54D90BE19A8057 DUP2 JUMP JUMPDEST PUSH32 0x0 DUP2 JUMP JUMPDEST PUSH1 0x60 PUSH1 0x0 DUP1 PUSH1 0x0 DUP1 PUSH1 0x0 PUSH1 0x2 PUSH1 0x0 DUP9 DUP2 MSTORE PUSH1 0x20 ADD SWAP1 DUP2 MSTORE PUSH1 0x20 ADD PUSH1 0x0 KECCAK256 SWAP1 POP DUP1 PUSH1 0x0 ADD DUP2 PUSH1 0x1 ADD SLOAD DUP3 PUSH1 0x2 ADD SLOAD DUP4 PUSH1 0x3 ADD SLOAD DUP5 PUSH1 0x4 ADD PUSH1 0x0 SWAP1 SLOAD SWAP1 PUSH2 0x100 EXP SWAP1 DIV PUSH1 0xFF AND DUP5 DUP1 SLOAD PUSH2 0x915 SWAP1 PUSH2 0x15F1 JUMP JUMPDEST DUP1 PUSH1 0x1F ADD PUSH1 0x20 DUP1 SWAP2 DIV MUL PUSH1 0x20 ADD PUSH1 0x40 MLOAD SWAP1 DUP2 ADD PUSH1 0x40 MSTORE DUP1 SWAP3 SWAP2 SWAP1 DUP2 DUP2 MSTORE PUSH1 0x20 ADD DUP3 DUP1 SLOAD PUSH2 0x941 SWAP1 PUSH2 0x15F1 JUMP JUMPDEST DUP1 ISZERO PUSH2 0x98E JUMPI DUP1 PUSH1 0x1F LT PUSH2 0x963 JUMPI PUSH2 0x100 DUP1 DUP4 SLOAD DIV MUL DUP4 MSTORE SWAP2 PUSH1 0x20 ADD SWAP2 PUSH2 0x98E JUMP JUMPDEST DUP3 ADD SWAP2 SWAP1 PUSH1 0x0 MSTORE PUSH1 0x20 PUSH1 0x0 KECCAK256 SWAP1 JUMPDEST DUP2 SLOAD DUP2 MSTORE SWAP1 PUSH1 0x1 ADD SWAP1 PUSH1 0x20 ADD DUP1 DUP4 GT PUSH2 0x971 JUMPI DUP3 SWAP1 SUB PUSH1 0x1F AND DUP3 ADD SWAP2 JUMPDEST POP POP POP POP POP SWAP5 POP SWAP6 POP SWAP6 POP SWAP6 POP SWAP6 POP SWAP6 POP POP SWAP2 SWAP4 SWAP6 SWAP1 SWAP3 SWAP5 POP JUMP JUMPDEST PUSH32 0xAC724096F6213F1BA3EF31D6F40E1D291E98D4BF04675E624DF1E7F78B0C89DA DUP2 JUMP JUMPDEST PUSH1 0x1 SLOAD DUP2 JUMP JUMPDEST PUSH1 0x0 DUP3 PUSH20 0xFFFFFFFFFFFFFFFFFFFFFFFFFFFFFFFFFFFFFFFF AND PUSH32 0x0 PUSH20 0xFFFFFFFFFFFFFFFFFFFFFFFFFFFFFFFFFFFFFFFF AND PUSH4 0x3F916B48 PUSH32 0x0 DUP6 DUP9 PUSH1 0x40 MLOAD DUP5 PUSH4 0xFFFFFFFF AND PUSH1 0xE0 SHL DUP2 MSTORE PUSH1 0x4 ADD PUSH2 0xA69 SWAP4 SWAP3 SWAP2 SWAP1 PUSH2 0x1944 JUMP JUMPDEST PUSH1 0x20 PUSH1 0x40 MLOAD DUP1 DUP4 SUB DUP2 DUP7 GAS STATICCALL ISZERO DUP1 ISZERO PUSH2 0xA86 JUMPI RETURNDATASIZE PUSH1 0x0 DUP1 RETURNDATACOPY RETURNDATASIZE PUSH1 0x0 REVERT JUMPDEST POP POP POP POP PUSH1 0x40 MLOAD RETURNDATASIZE PUSH1 0x1F NOT PUSH1 0x1F DUP3 ADD AND DUP3 ADD DUP1 PUSH1 0x40 MSTORE POP DUP2 ADD SWAP1 PUSH2 0xAAA SWAP2 SWAP1 PUSH2 0x1990 JUMP JUMPDEST PUSH20 0xFFFFFFFFFFFFFFFFFFFFFFFFFFFFFFFFFFFFFFFF AND EQ PUSH2 0xACE JUMPI PUSH1 0x0 SWAP1 POP PUSH2 0xBC0 JUMP JUMPDEST PUSH1 0x0 PUSH32 0x0 PUSH20 0xFFFFFFFFFFFFFFFFFFFFFFFFFFFFFFFFFFFFFFFF AND PUSH4 0x65B0205B PUSH32 0x0 DUP6 DUP9 PUSH1 0x40 MLOAD DUP5 PUSH4 0xFFFFFFFF AND PUSH1 0xE0 SHL DUP2 MSTORE PUSH1 0x4 ADD PUSH2 0xB4D SWAP4 SWAP3 SWAP2 SWAP1 PUSH2 0x1944 JUMP JUMPDEST PUSH1 0x20 PUSH1 0x40 MLOAD DUP1 DUP4 SUB DUP2 DUP7 GAS STATICCALL ISZERO DUP1 ISZERO PUSH2 0xB6A JUMPI RETURNDATASIZE PUSH1 0x0 DUP1 RETURNDATACOPY RETURNDATASIZE PUSH1 0x0 REVERT JUMPDEST POP POP POP POP PUSH1 0x40 MLOAD RETURNDATASIZE PUSH1 0x1F NOT PUSH1 0x1F DUP3 ADD AND DUP3 ADD DUP1 PUSH1 0x40 MSTORE POP DUP2 ADD SWAP1 PUSH2 0xB8E SWAP2 SWAP1 PUSH2 0x19FD JUMP JUMPDEST SWAP1 POP PUSH8 0xFFFFFFFFFFFFFFFF DUP1 AND DUP2 PUSH8 0xFFFFFFFFFFFFFFFF AND EQ DUP1 PUSH2 0xBBC JUMPI POP TIMESTAMP DUP2 PUSH8 0xFFFFFFFFFFFFFFFF AND LT ISZERO JUMPDEST SWAP2 POP POP JUMPDEST SWAP4 SWAP3 POP POP POP JUMP JUMPDEST PUSH1 0x0 DUP2 SWAP1 POP SWAP2 SWAP1 POP JUMP JUMPDEST PUSH2 0xBDA DUP2 PUSH2 0xBC7 JUMP JUMPDEST DUP3 MSTORE POP POP JUMP JUMPDEST PUSH1 0x0 PUSH1 0x20 DUP3 ADD SWAP1 POP PUSH2 0xBF5 PUSH1 0x0 DUP4 ADD DUP5 PUSH2 0xBD1 JUMP JUMPDEST SWAP3 SWAP2 POP POP JUMP JUMPDEST PUSH1 0x0 DUP1 REVERT JUMPDEST PUSH1 0x0 DUP1 REVERT JUMPDEST PUSH1 0x0 PUSH20 0xFFFFFFFFFFFFFFFFFFFFFFFFFFFFFFFFFFFFFFFF DUP3 AND SWAP1 POP SWAP2 SWAP1 POP JUMP JUMPDEST PUSH1 0x0 PUSH2 0xC30 DUP3 PUSH2 0xC05 JUMP JUMPDEST SWAP1 POP SWAP2 SWAP1 POP JUMP JUMPDEST PUSH2 0xC40 DUP2 PUSH2 0xC25 JUMP JUMPDEST DUP2 EQ PUSH2 0xC4B JUMPI PUSH1 0x0 DUP1 REVERT JUMPDEST POP JUMP JUMPDEST PUSH1 0x0 DUP2 CALLDATALOAD SWAP1 POP PUSH2 0xC5D DUP2 PUSH2 0xC37 JUMP JUMPDEST SWAP3 SWAP2 POP POP JUMP JUMPDEST PUSH2 0xC6C DUP2 PUSH2 0xBC7 JUMP JUMPDEST DUP2 EQ PUSH2 0xC77 JUMPI PUSH1 0x0 DUP1 REVERT JUMPDEST POP JUMP JUMPDEST PUSH1 0x0 DUP2 CALLDATALOAD SWAP1 POP PUSH2 0xC89 DUP2 PUSH2 0xC63 JUMP JUMPDEST SWAP3 SWAP2 POP POP JUMP JUMPDEST PUSH1 0x0 DUP1 PUSH1 0x40 DUP4 DUP6 SUB SLT ISZERO PUSH2 0xCA6 JUMPI PUSH2 0xCA5 PUSH2 0xBFB JUMP JUMPDEST JUMPDEST PUSH1 0x0 PUSH2 0xCB4 DUP6 DUP3 DUP7 ADD PUSH2 0xC4E JUMP JUMPDEST SWAP3 POP POP PUSH1 0x20 PUSH2 0xCC5 DUP6 DUP3 DUP7 ADD PUSH2 0xC7A JUMP JUMPDEST SWAP2 POP POP SWAP3 POP SWAP3 SWAP1 POP JUMP JUMPDEST PUSH1 0x0 DUP2 ISZERO ISZERO SWAP1 POP SWAP2 SWAP1 POP JUMP JUMPDEST PUSH2 0xCE4 DUP2 PUSH2 0xCCF JUMP JUMPDEST DUP3 MSTORE POP POP JUMP JUMPDEST PUSH1 0x0 PUSH1 0x20 DUP3 ADD SWAP1 POP PUSH2 0xCFF PUSH1 0x0 DUP4 ADD DUP5 PUSH2 0xCDB JUMP JUMPDEST SWAP3 SWAP2 POP POP JUMP JUMPDEST PUSH1 0x0 DUP1 PUSH1 0x40 DUP4 DUP6 SUB SLT ISZERO PUSH2 0xD1C JUMPI PUSH2 0xD1B PUSH2 0xBFB JUMP JUMPDEST JUMPDEST PUSH1 0x0 PUSH2 0xD2A DUP6 DUP3 DUP7 ADD PUSH2 0xC7A JUMP JUMPDEST SWAP3 POP POP PUSH1 0x20 PUSH2 0xD3B DUP6 DUP3 DUP7 ADD PUSH2 0xC7A JUMP JUMPDEST SWAP2 POP POP SWAP3 POP SWAP3 SWAP1 POP JUMP JUMPDEST PUSH2 0xD4E DUP2 PUSH2 0xCCF JUMP JUMPDEST DUP2 EQ PUSH2 0xD59 JUMPI PUSH1 0x0 DUP1 REVERT JUMPDEST POP JUMP JUMPDEST PUSH1 0x0 DUP2 CALLDATALOAD SWAP1 POP PUSH2 0xD6B DUP2 PUSH2 0xD45 JUMP JUMPDEST SWAP3 SWAP2 POP POP JUMP JUMPDEST PUSH1 0x0 DUP1 PUSH1 0x0 PUSH1 0x60 DUP5 DUP7 SUB SLT ISZERO PUSH2 0xD8A JUMPI PUSH2 0xD89 PUSH2 0xBFB JUMP JUMPDEST JUMPDEST PUSH1 0x0 PUSH2 0xD98 DUP7 DUP3 DUP8 ADD PUSH2 0xC7A JUMP JUMPDEST SWAP4 POP POP PUSH1 0x20 PUSH2 0xDA9 DUP7 DUP3 DUP8 ADD PUSH2 0xC7A JUMP JUMPDEST SWAP3 POP POP PUSH1 0x40 PUSH2 0xDBA DUP7 DUP3 DUP8 ADD PUSH2 0xD5C JUMP JUMPDEST SWAP2 POP POP SWAP3 POP SWAP3 POP SWAP3 JUMP JUMPDEST PUSH2 0xDCD DUP2 PUSH2 0xC25 JUMP JUMPDEST DUP3 MSTORE POP POP JUMP JUMPDEST PUSH1 0x0 PUSH1 0x20 DUP3 ADD SWAP1 POP PUSH2 0xDE8 PUSH1 0x0 DUP4 ADD DUP5 PUSH2 0xDC4 JUMP JUMPDEST SWAP3 SWAP2 POP POP JUMP JUMPDEST PUSH1 0x0 DUP1 REVERT JUMPDEST PUSH1 0x0 DUP1 REVERT JUMPDEST PUSH1 0x0 DUP1 REVERT JUMPDEST PUSH1 0x0 DUP1 DUP4 PUSH1 0x1F DUP5 ADD SLT PUSH2 0xE13 JUMPI PUSH2 0xE12 PUSH2 0xDEE JUMP JUMPDEST JUMPDEST DUP3 CALLDATALOAD SWAP1 POP PUSH8 0xFFFFFFFFFFFFFFFF DUP2 GT ISZERO PUSH2 0xE30 JUMPI PUSH2 0xE2F PUSH2 0xDF3 JUMP JUMPDEST JUMPDEST PUSH1 0x20 DUP4 ADD SWAP2 POP DUP4 PUSH1 0x1 DUP3 MUL DUP4 ADD GT ISZERO PUSH2 0xE4C JUMPI PUSH2 0xE4B PUSH2 0xDF8 JUMP JUMPDEST JUMPDEST SWAP3 POP SWAP3 SWAP1 POP JUMP JUMPDEST PUSH1 0x0 DUP1 PUSH1 0x0 PUSH1 0x40 DUP5 DUP7 SUB SLT ISZERO PUSH2 0xE6C JUMPI PUSH2 0xE6B PUSH2 0xBFB JUMP JUMPDEST JUMPDEST PUSH1 0x0 DUP5 ADD CALLDATALOAD PUSH8 0xFFFFFFFFFFFFFFFF DUP2 GT ISZERO PUSH2 0xE8A JUMPI PUSH2 0xE89 PUSH2 0xC00 JUMP JUMPDEST JUMPDEST PUSH2 0xE96 DUP7 DUP3 DUP8 ADD PUSH2 0xDFD JUMP JUMPDEST SWAP4 POP SWAP4 POP POP PUSH1 0x20 PUSH2 0xEA9 DUP7 DUP3 DUP8 ADD PUSH2 0xC7A JUMP JUMPDEST SWAP2 POP POP SWAP3 POP SWAP3 POP SWAP3 JUMP JUMPDEST PUSH1 0x0 DUP2 SWAP1 POP SWAP2 SWAP1 POP JUMP JUMPDEST PUSH2 0xEC6 DUP2 PUSH2 0xEB3 JUMP JUMPDEST DUP3 MSTORE POP POP JUMP JUMPDEST PUSH1 0x0 PUSH1 0x20 DUP3 ADD SWAP1 POP PUSH2 0xEE1 PUSH1 0x0 DUP4 ADD DUP5 PUSH2 0xEBD JUMP JUMPDEST SWAP3 SWAP2 POP POP JUMP JUMPDEST PUSH1 0x0 DUP2 SWAP1 POP SWAP2 SWAP1 POP JUMP JUMPDEST PUSH1 0x0 PUSH2 0xF0C PUSH2 0xF07 PUSH2 0xF02 DUP5 PUSH2 0xC05 JUMP JUMPDEST PUSH2 0xEE7 JUMP JUMPDEST PUSH2 0xC05 JUMP JUMPDEST SWAP1 POP SWAP2 SWAP1 POP JUMP JUMPDEST PUSH1 0x0 PUSH2 0xF1E DUP3 PUSH2 0xEF1 JUMP JUMPDEST SWAP1 POP SWAP2 SWAP1 POP JUMP JUMPDEST PUSH1 0x0 PUSH2 0xF30 DUP3 PUSH2 0xF13 JUMP JUMPDEST SWAP1 POP SWAP2 SWAP1 POP JUMP JUMPDEST PUSH2 0xF40 DUP2 PUSH2 0xF25 JUMP JUMPDEST DUP3 MSTORE POP POP JUMP JUMPDEST PUSH1 0x0 PUSH1 0x20 DUP3 ADD SWAP1 POP PUSH2 0xF5B PUSH1 0x0 DUP4 ADD DUP5 PUSH2 0xF37 JUMP JUMPDEST SWAP3 SWAP2 POP POP JUMP JUMPDEST PUSH1 0x0 PUSH1 0x20 DUP3 DUP5 SUB SLT ISZERO PUSH2 0xF77 JUMPI PUSH2 0xF76 PUSH2 0xBFB JUMP JUMPDEST JUMPDEST PUSH1 0x0 PUSH2 0xF85 DUP5 DUP3 DUP6 ADD PUSH2 0xC7A JUMP JUMPDEST SWAP2 POP POP SWAP3 SWAP2 POP POP JUMP JUMPDEST PUSH1 0x0 DUP2 MLOAD SWAP1 POP SWAP2 SWAP1 POP JUMP JUMPDEST PUSH1 0x0 DUP3 DUP3 MSTORE PUSH1 0x20 DUP3 ADD SWAP1 POP SWAP3 SWAP2 POP POP JUMP JUMPDEST PUSH1 0x0 JUMPDEST DUP4 DUP2 LT ISZERO PUSH2 0xFC8 JUMPI DUP1 DUP3 ADD MLOAD DUP2 DUP5 ADD MSTORE PUSH1 0x20 DUP2 ADD SWAP1 POP PUSH2 0xFAD JUMP JUMPDEST PUSH1 0x0 DUP5 DUP5 ADD MSTORE POP POP POP POP JUMP JUMPDEST PUSH1 0x0 PUSH1 0x1F NOT PUSH1 0x1F DUP4 ADD AND SWAP1 POP SWAP2 SWAP1 POP JUMP JUMPDEST PUSH1 0x0 PUSH2 0xFF0 DUP3 PUSH2 0xF8E JUMP JUMPDEST PUSH2 0xFFA DUP2 DUP6 PUSH2 0xF99 JUMP JUMPDEST SWAP4 POP PUSH2 0x100A DUP2 DUP6 PUSH1 0x20 DUP7 ADD PUSH2 0xFAA JUMP JUMPDEST PUSH2 0x1013 DUP2 PUSH2 0xFD4 JUMP JUMPDEST DUP5 ADD SWAP2 POP POP SWAP3 SWAP2 POP POP JUMP JUMPDEST PUSH1 0x0 PUSH1 0xA0 DUP3 ADD SWAP1 POP DUP2 DUP2 SUB PUSH1 0x0 DUP4 ADD MSTORE PUSH2 0x1038 DUP2 DUP9 PUSH2 0xFE5 JUMP JUMPDEST SWAP1 POP PUSH2 0x1047 PUSH1 0x20 DUP4 ADD DUP8 PUSH2 0xBD1 JUMP JUMPDEST PUSH2 0x1054 PUSH1 0x40 DUP4 ADD DUP7 PUSH2 0xBD1 JUMP JUMPDEST PUSH2 0x1061 PUSH1 0x60 DUP4 ADD DUP6 PUSH2 0xBD1 JUMP JUMPDEST PUSH2 0x106E PUSH1 0x80 DUP4 ADD DUP5 PUSH2 0xCDB JUMP JUMPDEST SWAP7 SWAP6 POP POP POP POP POP POP JUMP JUMPDEST PUSH32 0x4E6F20737563682070726F706F73616C00000000000000000000000000000000 PUSH1 0x0 DUP3 ADD MSTORE POP JUMP JUMPDEST PUSH1 0x0 PUSH2 0x10AE PUSH1 0x10 DUP4 PUSH2 0xF99 JUMP JUMPDEST SWAP2 POP PUSH2 0x10B9 DUP3 PUSH2 0x1078 JUMP JUMPDEST PUSH1 0x20 DUP3 ADD SWAP1 POP SWAP2 SWAP1 POP JUMP JUMPDEST PUSH1 0x0 PUSH1 0x20 DUP3 ADD SWAP1 POP DUP2 DUP2 SUB PUSH1 0x0 DUP4 ADD MSTORE PUSH2 0x10DD DUP2 PUSH2 0x10A1 JUMP JUMPDEST SWAP1 POP SWAP2 SWAP1 POP JUMP JUMPDEST PUSH32 0x566F74696E67206E6F7420656E64656400000000000000000000000000000000 PUSH1 0x0 DUP3 ADD MSTORE POP JUMP JUMPDEST PUSH1 0x0 PUSH2 0x111A PUSH1 0x10 DUP4 PUSH2 0xF99 JUMP JUMPDEST SWAP2 POP PUSH2 0x1125 DUP3 PUSH2 0x10E4 JUMP JUMPDEST PUSH1 0x20 DUP3 ADD SWAP1 POP SWAP2 SWAP1 POP JUMP JUMPDEST PUSH1 0x0 PUSH1 0x20 DUP3 ADD SWAP1 POP DUP2 DUP2 SUB PUSH1 0x0 DUP4 ADD MSTORE PUSH2 0x1149 DUP2 PUSH2 0x110D JUMP JUMPDEST SWAP1 POP SWAP2 SWAP1 POP JUMP JUMPDEST PUSH32 0x416C726561647920657865637574656400000000000000000000000000000000 PUSH1 0x0 DUP3 ADD MSTORE POP JUMP JUMPDEST PUSH1 0x0 PUSH2 0x1186 PUSH1 0x10 DUP4 PUSH2 0xF99 JUMP JUMPDEST SWAP2 POP PUSH2 0x1191 DUP3 PUSH2 0x1150 JUMP JUMPDEST PUSH1 0x20 DUP3 ADD SWAP1 POP SWAP2 SWAP1 POP JUMP JUMPDEST PUSH1 0x0 PUSH1 0x20 DUP3 ADD SWAP1 POP DUP2 DUP2 SUB PUSH1 0x0 DUP4 ADD MSTORE PUSH2 0x11B5 DUP2 PUSH2 0x1179 JUMP JUMPDEST SWAP1 POP SWAP2 SWAP1 POP JUMP JUMPDEST PUSH32 0x4E6F7420616E206578656375746F7220666F72207468697320746F6B656E0000 PUSH1 0x0 DUP3 ADD MSTORE POP JUMP JUMPDEST PUSH1 0x0 PUSH2 0x11F2 PUSH1 0x1E DUP4 PUSH2 0xF99 JUMP JUMPDEST SWAP2 POP PUSH2 0x11FD DUP3 PUSH2 0x11BC JUMP JUMPDEST PUSH1 0x20 DUP3 ADD SWAP1 POP SWAP2 SWAP1 POP JUMP JUMPDEST PUSH1 0x0 PUSH1 0x20 DUP3 ADD SWAP1 POP DUP2 DUP2 SUB PUSH1 0x0 DUP4 ADD MSTORE PUSH2 0x1221 DUP2 PUSH2 0x11E5 JUMP JUMPDEST SWAP1 POP SWAP2 SWAP1 POP JUMP JUMPDEST PUSH32 0x566F74696E6720656E6465640000000000000000000000000000000000000000 PUSH1 0x0 DUP3 ADD MSTORE POP JUMP JUMPDEST PUSH1 0x0 PUSH2 0x125E PUSH1 0xC DUP4 PUSH2 0xF99 JUMP JUMPDEST SWAP2 POP PUSH2 0x1269 DUP3 PUSH2 0x1228 JUMP JUMPDEST PUSH1 0x20 DUP3 ADD SWAP1 POP SWAP2 SWAP1 POP JUMP JUMPDEST PUSH1 0x0 PUSH1 0x20 DUP3 ADD SWAP1 POP DUP2 DUP2 SUB PUSH1 0x0 DUP4 ADD MSTORE PUSH2 0x128D DUP2 PUSH2 0x1251 JUMP JUMPDEST SWAP1 POP SWAP2 SWAP1 POP JUMP JUMPDEST PUSH32 0x4E6F74206120766F74657220666F72207468697320746F6B656E000000000000 PUSH1 0x0 DUP3 ADD MSTORE POP JUMP JUMPDEST PUSH1 0x0 PUSH2 0x12CA PUSH1 0x1A DUP4 PUSH2 0xF99 JUMP JUMPDEST SWAP2 POP PUSH2 0x12D5 DUP3 PUSH2 0x1294 JUMP JUMPDEST PUSH1 0x20 DUP3 ADD SWAP1 POP SWAP2 SWAP1 POP JUMP JUMPDEST PUSH1 0x0 PUSH1 0x20 DUP3 ADD SWAP1 POP DUP2 DUP2 SUB PUSH1 0x0 DUP4 ADD MSTORE PUSH2 0x12F9 DUP2 PUSH2 0x12BD JUMP JUMPDEST SWAP1 POP SWAP2 SWAP1 POP JUMP JUMPDEST PUSH1 0x0 DUP2 PUSH1 0x60 SHL SWAP1 POP SWAP2 SWAP1 POP JUMP JUMPDEST PUSH1 0x0 PUSH2 0x1318 DUP3 PUSH2 0x1300 JUMP JUMPDEST SWAP1 POP SWAP2 SWAP1 POP JUMP JUMPDEST PUSH1 0x0 PUSH2 0x132A DUP3 PUSH2 0x130D JUMP JUMPDEST SWAP1 POP SWAP2 SWAP1 POP JUMP JUMPDEST PUSH2 0x1342 PUSH2 0x133D DUP3 PUSH2 0xC25 JUMP JUMPDEST PUSH2 0x131F JUMP JUMPDEST DUP3 MSTORE POP POP JUMP JUMPDEST PUSH1 0x0 DUP2 SWAP1 POP SWAP2 SWAP1 POP JUMP JUMPDEST PUSH2 0x1363 PUSH2 0x135E DUP3 PUSH2 0xBC7 JUMP JUMPDEST PUSH2 0x1348 JUMP JUMPDEST DUP3 MSTORE POP POP JUMP JUMPDEST PUSH1 0x0 DUP2 SWAP1 POP SWAP2 SWAP1 POP JUMP JUMPDEST PUSH2 0x1384 PUSH2 0x137F DUP3 PUSH2 0xEB3 JUMP JUMPDEST PUSH2 0x1369 JUMP JUMPDEST DUP3 MSTORE POP POP JUMP JUMPDEST PUSH1 0x0 PUSH2 0x1396 DUP3 DUP7 PUSH2 0x1331 JUMP JUMPDEST PUSH1 0x14 DUP3 ADD SWAP2 POP PUSH2 0x13A6 DUP3 DUP6 PUSH2 0x1352 JUMP JUMPDEST PUSH1 0x20 DUP3 ADD SWAP2 POP PUSH2 0x13B6 DUP3 DUP5 PUSH2 0x1373 JUMP JUMPDEST PUSH1 0x20 DUP3 ADD SWAP2 POP DUP2 SWAP1 POP SWAP5 SWAP4 POP POP POP POP JUMP JUMPDEST PUSH32 0x416C726561647920766F74656420666F72207468697320746F6B656E00000000 PUSH1 0x0 DUP3 ADD MSTORE POP JUMP JUMPDEST PUSH1 0x0 PUSH2 0x13FD PUSH1 0x1C DUP4 PUSH2 0xF99 JUMP JUMPDEST SWAP2 POP PUSH2 0x1408 DUP3 PUSH2 0x13C7 JUMP JUMPDEST PUSH1 0x20 DUP3 ADD SWAP1 POP SWAP2 SWAP1 POP JUMP JUMPDEST PUSH1 0x0 PUSH1 0x20 DUP3 ADD SWAP1 POP DUP2 DUP2 SUB PUSH1 0x0 DUP4 ADD MSTORE PUSH2 0x142C DUP2 PUSH2 0x13F0 JUMP JUMPDEST SWAP1 POP SWAP2 SWAP1 POP JUMP JUMPDEST PUSH32 0x4E487B7100000000000000000000000000000000000000000000000000000000 PUSH1 0x0 MSTORE PUSH1 0x11 PUSH1 0x4 MSTORE PUSH1 0x24 PUSH1 0x0 REVERT JUMPDEST PUSH1 0x0 PUSH2 0x146D DUP3 PUSH2 0xBC7 JUMP JUMPDEST SWAP2 POP PUSH32 0xFFFFFFFFFFFFFFFFFFFFFFFFFFFFFFFFFFFFFFFFFFFFFFFFFFFFFFFFFFFFFFFF DUP3 SUB PUSH2 0x149F JUMPI PUSH2 0x149E PUSH2 0x1433 JUMP JUMPDEST JUMPDEST PUSH1 0x1 DUP3 ADD SWAP1 POP SWAP2 SWAP1 POP JUMP JUMPDEST PUSH1 0x0 DUP2 SWAP1 POP SWAP2 SWAP1 POP JUMP JUMPDEST PUSH1 0x0 PUSH2 0x14CF PUSH2 0x14CA PUSH2 0x14C5 DUP5 PUSH2 0x14AA JUMP JUMPDEST PUSH2 0xEE7 JUMP JUMPDEST PUSH2 0xBC7 JUMP JUMPDEST SWAP1 POP SWAP2 SWAP1 POP JUMP JUMPDEST PUSH2 0x14DF DUP2 PUSH2 0x14B4 JUMP JUMPDEST DUP3 MSTORE POP POP JUMP JUMPDEST PUSH1 0x0 PUSH1 0x60 DUP3 ADD SWAP1 POP PUSH2 0x14FA PUSH1 0x0 DUP4 ADD DUP7 PUSH2 0xBD1 JUMP JUMPDEST PUSH2 0x1507 PUSH1 0x20 DUP4 ADD DUP6 PUSH2 0xCDB JUMP JUMPDEST PUSH2 0x1514 PUSH1 0x40 DUP4 ADD DUP5 PUSH2 0x14D6 JUMP JUMPDEST SWAP5 SWAP4 POP POP POP POP JUMP JUMPDEST PUSH32 0x4E6F7420612070726F706F73657220666F72207468697320746F6B656E000000 PUSH1 0x0 DUP3 ADD MSTORE POP JUMP JUMPDEST PUSH1 0x0 PUSH2 0x1552 PUSH1 0x1D DUP4 PUSH2 0xF99 JUMP JUMPDEST SWAP2 POP PUSH2 0x155D DUP3 PUSH2 0x151C JUMP JUMPDEST PUSH1 0x20 DUP3 ADD SWAP1 POP SWAP2 SWAP1 POP JUMP JUMPDEST PUSH1 0x0 PUSH1 0x20 DUP3 ADD SWAP1 POP DUP2 DUP2 SUB PUSH1 0x0 DUP4 ADD MSTORE PUSH2 0x1581 DUP2 PUSH2 0x1545 JUMP JUMPDEST SWAP1 POP SWAP2 SWAP1 POP JUMP JUMPDEST PUSH1 0x0 DUP3 SWAP1 POP SWAP3 SWAP2 POP POP JUMP JUMPDEST PUSH32 0x4E487B7100000000000000000000000000000000000000000000000000000000 PUSH1 0x0 MSTORE PUSH1 0x41 PUSH1 0x4 MSTORE PUSH1 0x24 PUSH1 0x0 REVERT JUMPDEST PUSH32 0x4E487B7100000000000000000000000000000000000000000000000000000000 PUSH1 0x0 MSTORE PUSH1 0x22 PUSH1 0x4 MSTORE PUSH1 0x24 PUSH1 0x0 REVERT JUMPDEST PUSH1 0x0 PUSH1 0x2 DUP3 DIV SWAP1 POP PUSH1 0x1 DUP3 AND DUP1 PUSH2 0x1609 JUMPI PUSH1 0x7F DUP3 AND SWAP2 POP JUMPDEST PUSH1 0x20 DUP3 LT DUP2 SUB PUSH2 0x161C JUMPI PUSH2 0x161B PUSH2 0x15C2 JUMP JUMPDEST JUMPDEST POP SWAP2 SWAP1 POP JUMP JUMPDEST PUSH1 0x0 DUP2 SWAP1 POP DUP2 PUSH1 0x0 MSTORE PUSH1 0x20 PUSH1 0x0 KECCAK256 SWAP1 POP SWAP2 SWAP1 POP JUMP JUMPDEST PUSH1 0x0 PUSH1 0x20 PUSH1 0x1F DUP4 ADD DIV SWAP1 POP SWAP2 SWAP1 POP JUMP JUMPDEST PUSH1 0x0 DUP3 DUP3 SHL SWAP1 POP SWAP3 SWAP2 POP POP JUMP JUMPDEST PUSH1 0x0 PUSH1 0x8 DUP4 MUL PUSH2 0x1684 PUSH32 0xFFFFFFFFFFFFFFFFFFFFFFFFFFFFFFFFFFFFFFFFFFFFFFFFFFFFFFFFFFFFFFFF DUP3 PUSH2 0x1647 JUMP JUMPDEST PUSH2 0x168E DUP7 DUP4 PUSH2 0x1647 JUMP JUMPDEST SWAP6 POP DUP1 NOT DUP5 AND SWAP4 POP DUP1 DUP7 AND DUP5 OR SWAP3 POP POP POP SWAP4 SWAP3 POP POP POP JUMP JUMPDEST PUSH1 0x0 PUSH2 0x16C1 PUSH2 0x16BC PUSH2 0x16B7 DUP5 PUSH2 0xBC7 JUMP JUMPDEST PUSH2 0xEE7 JUMP JUMPDEST PUSH2 0xBC7 JUMP JUMPDEST SWAP1 POP SWAP2 SWAP1 POP JUMP JUMPDEST PUSH1 0x0 DUP2 SWAP1 POP SWAP2 SWAP1 POP JUMP JUMPDEST PUSH2 0x16DB DUP4 PUSH2 0x16A6 JUMP JUMPDEST PUSH2 0x16EF PUSH2 0x16E7 DUP3 PUSH2 0x16C8 JUMP JUMPDEST DUP5 DUP5 SLOAD PUSH2 0x1654 JUMP JUMPDEST DUP3 SSTORE POP POP POP POP JUMP JUMPDEST PUSH1 0x0 SWAP1 JUMP JUMPDEST PUSH2 0x1704 PUSH2 0x16F7 JUMP JUMPDEST PUSH2 0x170F DUP2 DUP5 DUP5 PUSH2 0x16D2 JUMP JUMPDEST POP POP POP JUMP JUMPDEST JUMPDEST DUP2 DUP2 LT ISZERO PUSH2 0x1733 JUMPI PUSH2 0x1728 PUSH1 0x0 DUP3 PUSH2 0x16FC JUMP JUMPDEST PUSH1 0x1 DUP2 ADD SWAP1 POP PUSH2 0x1715 JUMP JUMPDEST POP POP JUMP JUMPDEST PUSH1 0x1F DUP3 GT ISZERO PUSH2 0x1778 JUMPI PUSH2 0x1749 DUP2 PUSH2 0x1622 JUMP JUMPDEST PUSH2 0x1752 DUP5 PUSH2 0x1637 JUMP JUMPDEST DUP2 ADD PUSH1 0x20 DUP6 LT ISZERO PUSH2 0x1761 JUMPI DUP2 SWAP1 POP JUMPDEST PUSH2 0x1775 PUSH2 0x176D DUP6 PUSH2 0x1637 JUMP JUMPDEST DUP4 ADD DUP3 PUSH2 0x1714 JUMP JUMPDEST POP POP JUMPDEST POP POP POP JUMP JUMPDEST PUSH1 0x0 DUP3 DUP3 SHR SWAP1 POP SWAP3 SWAP2 POP POP JUMP JUMPDEST PUSH1 0x0 PUSH2 0x179B PUSH1 0x0 NOT DUP5 PUSH1 0x8 MUL PUSH2 0x177D JUMP JUMPDEST NOT DUP1 DUP4 AND SWAP2 POP POP SWAP3 SWAP2 POP POP JUMP JUMPDEST PUSH1 0x0 PUSH2 0x17B4 DUP4 DUP4 PUSH2 0x178A JUMP JUMPDEST SWAP2 POP DUP3 PUSH1 0x2 MUL DUP3 OR SWAP1 POP SWAP3 SWAP2 POP POP JUMP JUMPDEST PUSH2 0x17CE DUP4 DUP4 PUSH2 0x1588 JUMP JUMPDEST PUSH8 0xFFFFFFFFFFFFFFFF DUP2 GT ISZERO PUSH2 0x17E7 JUMPI PUSH2 0x17E6 PUSH2 0x1593 JUMP JUMPDEST JUMPDEST PUSH2 0x17F1 DUP3 SLOAD PUSH2 0x15F1 JUMP JUMPDEST PUSH2 0x17FC DUP3 DUP3 DUP6 PUSH2 0x1737 JUMP JUMPDEST PUSH1 0x0 PUSH1 0x1F DUP4 GT PUSH1 0x1 DUP2 EQ PUSH2 0x182B JUMPI PUSH1 0x0 DUP5 ISZERO PUSH2 0x1819 JUMPI DUP3 DUP8 ADD CALLDATALOAD SWAP1 POP JUMPDEST PUSH2 0x1823 DUP6 DUP3 PUSH2 0x17A8 JUMP JUMPDEST DUP7 SSTORE POP PUSH2 0x188B JUMP JUMPDEST PUSH1 0x1F NOT DUP5 AND PUSH2 0x1839 DUP7 PUSH2 0x1622 JUMP JUMPDEST PUSH1 0x0 JUMPDEST DUP3 DUP2 LT ISZERO PUSH2 0x1861 JUMPI DUP5 DUP10 ADD CALLDATALOAD DUP3 SSTORE PUSH1 0x1 DUP3 ADD SWAP2 POP PUSH1 0x20 DUP6 ADD SWAP5 POP PUSH1 0x20 DUP2 ADD SWAP1 POP PUSH2 0x183C JUMP JUMPDEST DUP7 DUP4 LT ISZERO PUSH2 0x187E JUMPI DUP5 DUP10 ADD CALLDATALOAD PUSH2 0x187A PUSH1 0x1F DUP10 AND DUP3 PUSH2 0x178A JUMP JUMPDEST DUP4 SSTORE POP JUMPDEST PUSH1 0x1 PUSH1 0x2 DUP9 MUL ADD DUP9 SSTORE POP POP POP JUMPDEST POP POP POP POP POP POP POP JUMP JUMPDEST PUSH1 0x0 PUSH2 0x189F DUP3 PUSH2 0xBC7 JUMP JUMPDEST SWAP2 POP PUSH2 0x18AA DUP4 PUSH2 0xBC7 JUMP JUMPDEST SWAP3 POP DUP3 DUP3 ADD SWAP1 POP DUP1 DUP3 GT ISZERO PUSH2 0x18C2 JUMPI PUSH2 0x18C1 PUSH2 0x1433 JUMP JUMPDEST JUMPDEST SWAP3 SWAP2 POP POP JUMP JUMPDEST DUP3 DUP2 DUP4 CALLDATACOPY PUSH1 0x0 DUP4 DUP4 ADD MSTORE POP POP POP JUMP JUMPDEST PUSH1 0x0 PUSH2 0x18E3 DUP4 DUP6 PUSH2 0xF99 JUMP JUMPDEST SWAP4 POP PUSH2 0x18F0 DUP4 DUP6 DUP5 PUSH2 0x18C8 JUMP JUMPDEST PUSH2 0x18F9 DUP4 PUSH2 0xFD4 JUMP JUMPDEST DUP5 ADD SWAP1 POP SWAP4 SWAP3 POP POP POP JUMP JUMPDEST PUSH1 0x0 PUSH1 0x60 DUP3 ADD SWAP1 POP PUSH2 0x1919 PUSH1 0x0 DUP4 ADD DUP8 PUSH2 0xBD1 JUMP JUMPDEST DUP2 DUP2 SUB PUSH1 0x20 DUP4 ADD MSTORE PUSH2 0x192C DUP2 DUP6 DUP8 PUSH2 0x18D7 JUMP JUMPDEST SWAP1 POP PUSH2 0x193B PUSH1 0x40 DUP4 ADD DUP5 PUSH2 0xBD1 JUMP JUMPDEST SWAP6 SWAP5 POP POP POP POP POP JUMP JUMPDEST PUSH1 0x0 PUSH1 0x60 DUP3 ADD SWAP1 POP PUSH2 0x1959 PUSH1 0x0 DUP4 ADD DUP7 PUSH2 0xDC4 JUMP JUMPDEST PUSH2 0x1966 PUSH1 0x20 DUP4 ADD DUP6 PUSH2 0xBD1 JUMP JUMPDEST PUSH2 0x1973 PUSH1 0x40 DUP4 ADD DUP5 PUSH2 0xEBD JUMP JUMPDEST SWAP5 SWAP4 POP POP POP POP JUMP JUMPDEST PUSH1 0x0 DUP2 MLOAD SWAP1 POP PUSH2 0x198A DUP2 PUSH2 0xC37 JUMP JUMPDEST SWAP3 SWAP2 POP POP JUMP JUMPDEST PUSH1 0x0 PUSH1 0x20 DUP3 DUP5 SUB SLT ISZERO PUSH2 0x19A6 JUMPI PUSH2 0x19A5 PUSH2 0xBFB JUMP JUMPDEST JUMPDEST PUSH1 0x0 PUSH2 0x19B4 DUP5 DUP3 DUP6 ADD PUSH2 0x197B JUMP JUMPDEST SWAP2 POP POP SWAP3 SWAP2 POP POP JUMP JUMPDEST PUSH1 0x0 PUSH8 0xFFFFFFFFFFFFFFFF DUP3 AND SWAP1 POP SWAP2 SWAP1 POP JUMP JUMPDEST PUSH2 0x19DA DUP2 PUSH2 0x19BD JUMP JUMPDEST DUP2 EQ PUSH2 0x19E5 JUMPI PUSH1 0x0 DUP1 REVERT JUMPDEST POP JUMP JUMPDEST PUSH1 0x0 DUP2 MLOAD SWAP1 POP PUSH2 0x19F7 DUP2 PUSH2 0x19D1 JUMP JUMPDEST SWAP3 SWAP2 POP POP JUMP JUMPDEST PUSH1 0x0 PUSH1 0x20 DUP3 DUP5 SUB SLT ISZERO PUSH2 0x1A13 JUMPI PUSH2 0x1A12 PUSH2 0xBFB JUMP JUMPDEST JUMPDEST PUSH1 0x0 PUSH2 0x1A21 DUP5 DUP3 DUP6 ADD PUSH2 0x19E8 JUMP JUMPDEST SWAP2 POP POP SWAP3 SWAP2 POP POP JUMP INVALID LOG2 PUSH5 0x6970667358 0x22 SLT KECCAK256 0xEB 0xEB 0x21 0xEF LT PUSH12 0xB08CDA54435A6F29A9B62AA PUSH6 0x90F3268B0ECF SLOAD 0xD0 RETURNDATASIZE MSTORE OR SUB DUP5 PUSH5 0x736F6C6343 STOP ADDMOD SHR STOP CALLER "},"methodIdentifiers":{"ROLE_EXECUTOR()":"d958ddf6","ROLE_PROPOSER()":"a2efc051","ROLE_VOTER()":"9cbba816","execute(uint256,uint256)":"5601eaea","getProposal(uint256)":"c7f758a8","hasVotingRights(address,uint256)":"184ea9d6","membershipCollection()":"87f44b24","proposalCount()":"da35c664","propose(string,uint256)":"8d1cb8b5","rolesRegistry()":"b8173414","vote(uint256,uint256,bool)":"6a18ff7a","votingPeriod()":"02a251a3"}}}}}