{
  "_format": "hh-sol-artifact-1",
  "contractName": "DAO",
  "sourceName": "contracts/DAO.sol",
  "abi": [
    {
      "inputs": [
        {
          "internalType": "address",
          "name": "_erc7432Address",
          "type": "address"
        },
        {
          "internalType": "address",
          "name": "_nftAddress",
          "type": "address"
        }
      ],
      "stateMutability": "nonpayable",
      "type": "constructor"
    },
    {
      "inputs": [
        {
          "internalType": "uint256",
          "name": "_proposalId",
          "type": "uint256"
        },
        {
          "internalType": "address",
          "name": "_tokenAddress",
          "type": "address"
        },
        {
          "internalType": "uint256",
          "name": "_tokenId",
          "type": "uint256"
        }
      ],
      "name": "cancelProposal",
      "outputs": [],
      "stateMutability": "nonpayable",
      "type": "function"
    },
    {
      "inputs": [
        {
          "internalType": "string",
          "name": "_description",
          "type": "string"
        },
        {
          "internalType": "uint256",
          "name": "_endTime",
          "type": "uint256"
        },
        {
          "internalType": "uint256",
          "name": "_tokenId",
          "type": "uint256"
        },
        {
          "internalType": "address",
          "name": "_tokenAddress",
          "type": "address"
        }
      ],
      "name": "createProposal",
      "outputs": [],
      "stateMutability": "nonpayable",
      "type": "function"
    },
    {
      "inputs": [
        {
          "internalType": "uint256",
          "name": "_proposalId",
          "type": "uint256"
        }
      ],
      "name": "getProposal",
      "outputs": [
        {
          "components": [
            {
              "internalType": "uint256",
              "name": "id",
              "type": "uint256"
            },
            {
              "internalType": "address",
              "name": "proposer",
              "type": "address"
            },
            {
              "internalType": "string",
              "name": "description",
              "type": "string"
            },
            {
              "internalType": "uint256",
              "name": "startTime",
              "type": "uint256"
            },
            {
              "internalType": "uint256",
              "name": "endTime",
              "type": "uint256"
            },
            {
              "internalType": "uint256",
              "name": "forVotes",
              "type": "uint256"
            },
            {
              "internalType": "uint256",
              "name": "againstVotes",
              "type": "uint256"
            },
            {
              "internalType": "bool",
              "name": "executed",
              "type": "bool"
            },
            {
              "internalType": "bool",
              "name": "canceled",
              "type": "bool"
            }
          ],
          "internalType": "struct DAO.Proposal",
          "name": "",
          "type": "tuple"
        }
      ],
      "stateMutability": "view",
      "type": "function"
    },
    {
      "inputs": [
        {
          "internalType": "address",
          "name": "_recipient",
          "type": "address"
        },
        {
          "internalType": "address",
          "name": "_token_address",
          "type": "address"
        },
        {
          "internalType": "uint256",
          "name": "_tokenId",
          "type": "uint256"
        },
        {
          "internalType": "uint64",
          "name": "_expirationDate",
          "type": "uint64"
        },
        {
          "internalType": "bool",
          "name": "_revocable",
          "type": "bool"
        },
        {
          "internalType": "enum DAO.Roles",
          "name": "_roleToGrant",
          "type": "uint8"
        },
        {
          "internalType": "bytes",
          "name": "_data",
          "type": "bytes"
        }
      ],
      "name": "grantRole",
      "outputs": [],
      "stateMutability": "nonpayable",
      "type": "function"
    },
    {
      "inputs": [],
      "name": "nftContract",
      "outputs": [
        {
          "internalType": "contract IERC721",
          "name": "",
          "type": "address"
        }
      ],
      "stateMutability": "view",
      "type": "function"
    },
    {
      "inputs": [
        {
          "internalType": "address",
          "name": "_tokenAddress",
          "type": "address"
        },
        {
          "internalType": "uint256",
          "name": "_tokenId",
          "type": "uint256"
        }
      ],
      "name": "revokeRole",
      "outputs": [],
      "stateMutability": "nonpayable",
      "type": "function"
    },
    {
      "inputs": [],
      "name": "rolesContract",
      "outputs": [
        {
          "internalType": "contract IERC7432",
          "name": "",
          "type": "address"
        }
      ],
      "stateMutability": "view",
      "type": "function"
    },
    {
      "inputs": [
        {
          "internalType": "uint256",
          "name": "_proposalId",
          "type": "uint256"
        },
        {
          "internalType": "bool",
          "name": "isExecuted",
          "type": "bool"
        },
        {
          "internalType": "uint256",
          "name": "_tokenId",
          "type": "uint256"
        },
        {
          "internalType": "address",
          "name": "_tokenAddress",
          "type": "address"
        }
      ],
      "name": "setProposalExecution",
      "outputs": [],
      "stateMutability": "nonpayable",
      "type": "function"
    },
    {
      "inputs": [
        {
          "internalType": "uint256",
          "name": "_tokenId",
          "type": "uint256"
        },
        {
          "internalType": "address",
          "name": "_tokenAddress",
          "type": "address"
        },
        {
          "internalType": "bool",
          "name": "_vote",
          "type": "bool"
        },
        {
          "internalType": "uint256",
          "name": "_proposalId",
          "type": "uint256"
        }
      ],
      "name": "voteProposal",
      "outputs": [],
      "stateMutability": "nonpayable",
      "type": "function"
    }
  ],
  "bytecode": "0x608060405234801561001057600080fd5b50604051612d79380380612d79833981810160405281019061003291906101db565b816000806101000a81548173ffffffffffffffffffffffffffffffffffffffff021916908373ffffffffffffffffffffffffffffffffffffffff16021790555080600160006101000a81548173ffffffffffffffffffffffffffffffffffffffff021916908373ffffffffffffffffffffffffffffffffffffffff16021790555033600460006101000a81548173ffffffffffffffffffffffffffffffffffffffff021916908373ffffffffffffffffffffffffffffffffffffffff1602179055508073ffffffffffffffffffffffffffffffffffffffff1663d0def521336040518263ffffffff1660e01b815260040161012d91906102f9565b6020604051808303816000875af115801561014c573d6000803e3d6000fd5b505050506040513d601f19601f82011682018060405250810190610170919061035d565b50505061038a565b600080fd5b600073ffffffffffffffffffffffffffffffffffffffff82169050919050565b60006101a88261017d565b9050919050565b6101b88161019d565b81146101c357600080fd5b50565b6000815190506101d5816101af565b92915050565b600080604083850312156101f2576101f1610178565b5b6000610200858286016101c6565b9250506020610211858286016101c6565b9150509250929050565b6102248161019d565b82525050565b600082825260208201905092915050565b7f68747470733a2f2f626c7573682d72617069642d7465726e2d38322e6d79706960008201527f6e6174612e636c6f75642f697066732f6261666b726569663370786c646e653460208201527f733675657a6775783665353573613378767a667271326179677966727164753760408201527f783433766f37346f763534000000000000000000000000000000000000000000606082015250565b60006102e3606b8361022a565b91506102ee8261023b565b608082019050919050565b600060408201905061030e600083018461021b565b818103602083015261031f816102d6565b905092915050565b6000819050919050565b61033a81610327565b811461034557600080fd5b50565b60008151905061035781610331565b92915050565b60006020828403121561037357610372610178565b5b600061038184828501610348565b91505092915050565b6129e0806103996000396000f3fe608060405234801561001057600080fd5b50600436106100935760003560e01c8063c7f758a811610066578063c7f758a814610108578063ca53b39114610138578063d56d229d14610156578063e417191714610174578063edea12e61461019057610093565b80630912ed771461009857806373b5b494146100b4578063893a1272146100d0578063bdda7b6c146100ec575b600080fd5b6100b260048036038101906100ad91906119e6565b6101ac565b005b6100ce60048036038101906100c99190611a5e565b6103e7565b005b6100ea60048036038101906100e59190611ac5565b61082b565b005b61010660048036038101906101019190611cc3565b610d43565b005b610122600480360381019061011d9190611d81565b610f14565b60405161012f9190611f1f565b60405180910390f35b610140611092565b60405161014d9190611fa0565b60405180910390f35b61015e6110b6565b60405161016b9190611fdc565b60405180910390f35b61018e60048036038101906101899190611ff7565b6110dc565b005b6101aa60048036038101906101a591906120ff565b611431565b005b60006002600083815260200190815260200160002060009054906101000a900460ff1690503373ffffffffffffffffffffffffffffffffffffffff1660008054906101000a900473ffffffffffffffffffffffffffffffffffffffff1673ffffffffffffffffffffffffffffffffffffffff16633f916b48858561022f866117b2565b6040518463ffffffff1660e01b815260040161024d939291906121b9565b602060405180830381865afa15801561026a573d6000803e3d6000fd5b505050506040513d601f19601f8201168201806040525081019061028e9190612205565b73ffffffffffffffffffffffffffffffffffffffff16146102e4576040517f08c379a00000000000000000000000000000000000000000000000000000000081526004016102db9061228f565b60405180910390fd5b600160038111156102f8576102f76122af565b5b81600381111561030b5761030a6122af565b5b1461034b576040517f08c379a00000000000000000000000000000000000000000000000000000000081526004016103429061232a565b60405180910390fd5b60008054906101000a900473ffffffffffffffffffffffffffffffffffffffff1673ffffffffffffffffffffffffffffffffffffffff16630adc11c08484610392856117b2565b6040518463ffffffff1660e01b81526004016103b0939291906121b9565b600060405180830381600087803b1580156103ca57600080fd5b505af11580156103de573d6000803e3d6000fd5b50505050505050565b60006002600084815260200190815260200160002060009054906101000a900460ff1690503373ffffffffffffffffffffffffffffffffffffffff1660008054906101000a900473ffffffffffffffffffffffffffffffffffffffff1673ffffffffffffffffffffffffffffffffffffffff16633f916b48848661046a866117b2565b6040518463ffffffff1660e01b8152600401610488939291906121b9565b602060405180830381865afa1580156104a5573d6000803e3d6000fd5b505050506040513d601f19601f820116820180604052508101906104c99190612205565b73ffffffffffffffffffffffffffffffffffffffff161461051f576040517f08c379a00000000000000000000000000000000000000000000000000000000081526004016105169061228f565b60405180910390fd5b60026003811115610533576105326122af565b5b816003811115610546576105456122af565b5b14158015610579575060016003811115610563576105626122af565b5b816003811115610576576105756122af565b5b14155b156105b9576040517f08c379a00000000000000000000000000000000000000000000000000000000081526004016105b09061232a565b60405180910390fd5b60006006600087815260200190815260200160002060405180610120016040529081600082015481526020016001820160009054906101000a900473ffffffffffffffffffffffffffffffffffffffff1673ffffffffffffffffffffffffffffffffffffffff1673ffffffffffffffffffffffffffffffffffffffff16815260200160028201805461064a90612379565b80601f016020809104026020016040519081016040528092919081815260200182805461067690612379565b80156106c35780601f10610698576101008083540402835291602001916106c3565b820191906000526020600020905b8154815290600101906020018083116106a657829003601f168201915b50505050508152602001600382015481526020016004820154815260200160058201548152602001600682015481526020016007820160009054906101000a900460ff161515151581526020016007820160019054906101000a900460ff1615151515815250509050848160e001901515908115158152505080600660008881526020019081526020016000206000820151816000015560208201518160010160006101000a81548173ffffffffffffffffffffffffffffffffffffffff021916908373ffffffffffffffffffffffffffffffffffffffff16021790555060408201518160020190816107b6919061254c565b50606082015181600301556080820151816004015560a0820151816005015560c0820151816006015560e08201518160070160006101000a81548160ff0219169083151502179055506101008201518160070160016101000a81548160ff021916908315150217905550905050505050505050565b60006002600083815260200190815260200160002060009054906101000a900460ff1690503373ffffffffffffffffffffffffffffffffffffffff1660008054906101000a900473ffffffffffffffffffffffffffffffffffffffff1673ffffffffffffffffffffffffffffffffffffffff16633f916b4885856108ae866117b2565b6040518463ffffffff1660e01b81526004016108cc939291906121b9565b602060405180830381865afa1580156108e9573d6000803e3d6000fd5b505050506040513d601f19601f8201168201806040525081019061090d9190612205565b73ffffffffffffffffffffffffffffffffffffffff1614610963576040517f08c379a000000000000000000000000000000000000000000000000000000000815260040161095a9061228f565b60405180910390fd5b60026003811115610977576109766122af565b5b81600381111561098a576109896122af565b5b141580156109bd5750600160038111156109a7576109a66122af565b5b8160038111156109ba576109b96122af565b5b14155b80156109ed57506003808111156109d7576109d66122af565b5b8160038111156109ea576109e96122af565b5b14155b15610a2d576040517f08c379a0000000000000000000000000000000000000000000000000000000008152600401610a249061232a565b60405180910390fd5b60006006600086815260200190815260200160002060405180610120016040529081600082015481526020016001820160009054906101000a900473ffffffffffffffffffffffffffffffffffffffff1673ffffffffffffffffffffffffffffffffffffffff1673ffffffffffffffffffffffffffffffffffffffff168152602001600282018054610abe90612379565b80601f0160208091040260200160405190810160405280929190818152602001828054610aea90612379565b8015610b375780601f10610b0c57610100808354040283529160200191610b37565b820191906000526020600020905b815481529060010190602001808311610b1a57829003601f168201915b50505050508152602001600382015481526020016004820154815260200160058201548152602001600682015481526020016007820160009054906101000a900460ff161515151581526020016007820160019054906101000a900460ff1615151515815250509050600380811115610bb357610bb26122af565b5b826003811115610bc657610bc56122af565b5b148015610c0357503373ffffffffffffffffffffffffffffffffffffffff16816020015173ffffffffffffffffffffffffffffffffffffffff1614155b15610c43576040517f08c379a0000000000000000000000000000000000000000000000000000000008152600401610c3a9061232a565b60405180910390fd5b60018161010001901515908115158152505080600660008781526020019081526020016000206000820151816000015560208201518160010160006101000a81548173ffffffffffffffffffffffffffffffffffffffff021916908373ffffffffffffffffffffffffffffffffffffffff1602179055506040820151816002019081610ccf919061254c565b50606082015181600301556080820151816004015560a0820151816005015560c0820151816006015560e08201518160070160006101000a81548160ff0219169083151502179055506101008201518160070160016101000a81548160ff0219169083151502179055509050505050505050565b600460009054906101000a900473ffffffffffffffffffffffffffffffffffffffff1673ffffffffffffffffffffffffffffffffffffffff163373ffffffffffffffffffffffffffffffffffffffff1614610dd3576040517f08c379a0000000000000000000000000000000000000000000000000000000008152600401610dca9061266a565b60405180910390fd5b60008054906101000a900473ffffffffffffffffffffffffffffffffffffffff1673ffffffffffffffffffffffffffffffffffffffff16634b17eed06040518060e00160405280610e23866117b2565b81526020018973ffffffffffffffffffffffffffffffffffffffff1681526020018881526020018a73ffffffffffffffffffffffffffffffffffffffff1681526020018767ffffffffffffffff1681526020018615158152602001848152506040518263ffffffff1660e01b8152600401610e9e9190612799565b600060405180830381600087803b158015610eb857600080fd5b505af1158015610ecc573d6000803e3d6000fd5b50505050816002600087815260200190815260200160002060006101000a81548160ff02191690836003811115610f0657610f056122af565b5b021790555050505050505050565b610f1c6118d8565b6006600083815260200190815260200160002060405180610120016040529081600082015481526020016001820160009054906101000a900473ffffffffffffffffffffffffffffffffffffffff1673ffffffffffffffffffffffffffffffffffffffff1673ffffffffffffffffffffffffffffffffffffffff168152602001600282018054610fab90612379565b80601f0160208091040260200160405190810160405280929190818152602001828054610fd790612379565b80156110245780601f10610ff957610100808354040283529160200191611024565b820191906000526020600020905b81548152906001019060200180831161100757829003601f168201915b50505050508152602001600382015481526020016004820154815260200160058201548152602001600682015481526020016007820160009054906101000a900460ff161515151581526020016007820160019054906101000a900460ff1615151515815250509050919050565b60008054906101000a900473ffffffffffffffffffffffffffffffffffffffff1681565b600160009054906101000a900473ffffffffffffffffffffffffffffffffffffffff1681565b60006002600086815260200190815260200160002060009054906101000a900460ff1690503373ffffffffffffffffffffffffffffffffffffffff1660008054906101000a900473ffffffffffffffffffffffffffffffffffffffff1673ffffffffffffffffffffffffffffffffffffffff16633f916b48868861115f866117b2565b6040518463ffffffff1660e01b815260040161117d939291906121b9565b602060405180830381865afa15801561119a573d6000803e3d6000fd5b505050506040513d601f19601f820116820180604052508101906111be9190612205565b73ffffffffffffffffffffffffffffffffffffffff1614611214576040517f08c379a000000000000000000000000000000000000000000000000000000000815260040161120b9061228f565b60405180910390fd5b60036000868152602001908152602001600020600083815260200190815260200160002060009054906101000a900460ff1615611286576040517f08c379a000000000000000000000000000000000000000000000000000000000815260040161127d90612807565b60405180910390fd5b6002600381111561129a576112996122af565b5b8160038111156112ad576112ac6122af565b5b141580156112e05750600160038111156112ca576112c96122af565b5b8160038111156112dd576112dc6122af565b5b14155b801561131057506003808111156112fa576112f96122af565b5b81600381111561130d5761130c6122af565b5b14155b15611350576040517f08c379a00000000000000000000000000000000000000000000000000000000081526004016113479061232a565b60405180910390fd5b600060066000848152602001908152602001600020905080600401544211156113ae576040517f08c379a00000000000000000000000000000000000000000000000000000000081526004016113a590612873565b60405180910390fd5b83156113d257600181600501546113c591906128c2565b81600501819055506113ec565b600181600601546113e391906128c2565b81600601819055505b600160036000888152602001908152602001600020600085815260200190815260200160002060006101000a81548160ff021916908315150217905550505050505050565b60006002600084815260200190815260200160002060009054906101000a900460ff1690503373ffffffffffffffffffffffffffffffffffffffff1660008054906101000a900473ffffffffffffffffffffffffffffffffffffffff1673ffffffffffffffffffffffffffffffffffffffff16633f916b4884866114b4866117b2565b6040518463ffffffff1660e01b81526004016114d2939291906121b9565b602060405180830381865afa1580156114ef573d6000803e3d6000fd5b505050506040513d601f19601f820116820180604052508101906115139190612205565b73ffffffffffffffffffffffffffffffffffffffff1614611569576040517f08c379a00000000000000000000000000000000000000000000000000000000081526004016115609061228f565b60405180910390fd5b6002600381111561157d5761157c6122af565b5b8160038111156115905761158f6122af565b5b141580156115c35750600160038111156115ad576115ac6122af565b5b8160038111156115c0576115bf6122af565b5b14155b15611603576040517f08c379a00000000000000000000000000000000000000000000000000000000081526004016115fa9061232a565b60405180910390fd5b428411611645576040517f08c379a000000000000000000000000000000000000000000000000000000000815260040161163c90612942565b60405180910390fd5b600060405180610120016040528060055481526020013373ffffffffffffffffffffffffffffffffffffffff1681526020018781526020014281526020018681526020016000815260200160008152602001600015158152602001600015158152509050806006600060055481526020019081526020016000206000820151816000015560208201518160010160006101000a81548173ffffffffffffffffffffffffffffffffffffffff021916908373ffffffffffffffffffffffffffffffffffffffff1602179055506040820151816002019081611725919061254c565b50606082015181600301556080820151816004015560a0820151816005015560c0820151816006015560e08201518160070160006101000a81548160ff0219169083151502179055506101008201518160070160016101000a81548160ff021916908315150217905550905050600560008154809291906117a590612962565b9190505550505050505050565b6000600260038111156117c8576117c76122af565b5b8260038111156117db576117da6122af565b5b03611808577fc699d73f77226ba126f1306e93808ae59b0754c7e3c0c275f7423c77160a1e8490506118d3565b60038081111561181b5761181a6122af565b5b82600381111561182e5761182d6122af565b5b0361185b577fffa60083152bd11704a80cc8c7a409dad8aa74288b454a3ba0e94c0abc7cf16890506118d3565b6001600381111561186f5761186e6122af565b5b826003811115611882576118816122af565b5b036118af577f1a6838efa4183e08fe3607359d1259272af9d4716f65e1a7b5921f78fd5a3c6a90506118d3565b7f1b489cce9d784ec074d286492a1ccc9efab255c8a4e6b74d2406b5b7674c6e7490505b919050565b60405180610120016040528060008152602001600073ffffffffffffffffffffffffffffffffffffffff16815260200160608152602001600081526020016000815260200160008152602001600081526020016000151581526020016000151581525090565b6000604051905090565b600080fd5b600080fd5b600073ffffffffffffffffffffffffffffffffffffffff82169050919050565b600061197d82611952565b9050919050565b61198d81611972565b811461199857600080fd5b50565b6000813590506119aa81611984565b92915050565b6000819050919050565b6119c3816119b0565b81146119ce57600080fd5b50565b6000813590506119e0816119ba565b92915050565b600080604083850312156119fd576119fc611948565b5b6000611a0b8582860161199b565b9250506020611a1c858286016119d1565b9150509250929050565b60008115159050919050565b611a3b81611a26565b8114611a4657600080fd5b50565b600081359050611a5881611a32565b92915050565b60008060008060808587031215611a7857611a77611948565b5b6000611a86878288016119d1565b9450506020611a9787828801611a49565b9350506040611aa8878288016119d1565b9250506060611ab98782880161199b565b91505092959194509250565b600080600060608486031215611ade57611add611948565b5b6000611aec868287016119d1565b9350506020611afd8682870161199b565b9250506040611b0e868287016119d1565b9150509250925092565b600067ffffffffffffffff82169050919050565b611b3581611b18565b8114611b4057600080fd5b50565b600081359050611b5281611b2c565b92915050565b60048110611b6557600080fd5b50565b600081359050611b7781611b58565b92915050565b600080fd5b600080fd5b6000601f19601f8301169050919050565b7f4e487b7100000000000000000000000000000000000000000000000000000000600052604160045260246000fd5b611bd082611b87565b810181811067ffffffffffffffff82111715611bef57611bee611b98565b5b80604052505050565b6000611c0261193e565b9050611c0e8282611bc7565b919050565b600067ffffffffffffffff821115611c2e57611c2d611b98565b5b611c3782611b87565b9050602081019050919050565b82818337600083830152505050565b6000611c66611c6184611c13565b611bf8565b905082815260208101848484011115611c8257611c81611b82565b5b611c8d848285611c44565b509392505050565b600082601f830112611caa57611ca9611b7d565b5b8135611cba848260208601611c53565b91505092915050565b600080600080600080600060e0888a031215611ce257611ce1611948565b5b6000611cf08a828b0161199b565b9750506020611d018a828b0161199b565b9650506040611d128a828b016119d1565b9550506060611d238a828b01611b43565b9450506080611d348a828b01611a49565b93505060a0611d458a828b01611b68565b92505060c088013567ffffffffffffffff811115611d6657611d6561194d565b5b611d728a828b01611c95565b91505092959891949750929550565b600060208284031215611d9757611d96611948565b5b6000611da5848285016119d1565b91505092915050565b611db7816119b0565b82525050565b611dc681611972565b82525050565b600081519050919050565b600082825260208201905092915050565b60005b83811015611e06578082015181840152602081019050611deb565b60008484015250505050565b6000611e1d82611dcc565b611e278185611dd7565b9350611e37818560208601611de8565b611e4081611b87565b840191505092915050565b611e5481611a26565b82525050565b600061012083016000830151611e736000860182611dae565b506020830151611e866020860182611dbd565b5060408301518482036040860152611e9e8282611e12565b9150506060830151611eb36060860182611dae565b506080830151611ec66080860182611dae565b5060a0830151611ed960a0860182611dae565b5060c0830151611eec60c0860182611dae565b5060e0830151611eff60e0860182611e4b565b50610100830151611f14610100860182611e4b565b508091505092915050565b60006020820190508181036000830152611f398184611e5a565b905092915050565b6000819050919050565b6000611f66611f61611f5c84611952565b611f41565b611952565b9050919050565b6000611f7882611f4b565b9050919050565b6000611f8a82611f6d565b9050919050565b611f9a81611f7f565b82525050565b6000602082019050611fb56000830184611f91565b92915050565b6000611fc682611f6d565b9050919050565b611fd681611fbb565b82525050565b6000602082019050611ff16000830184611fcd565b92915050565b6000806000806080858703121561201157612010611948565b5b600061201f878288016119d1565b94505060206120308782880161199b565b935050604061204187828801611a49565b9250506060612052878288016119d1565b91505092959194509250565b600067ffffffffffffffff82111561207957612078611b98565b5b61208282611b87565b9050602081019050919050565b60006120a261209d8461205e565b611bf8565b9050828152602081018484840111156120be576120bd611b82565b5b6120c9848285611c44565b509392505050565b600082601f8301126120e6576120e5611b7d565b5b81356120f684826020860161208f565b91505092915050565b6000806000806080858703121561211957612118611948565b5b600085013567ffffffffffffffff8111156121375761213661194d565b5b612143878288016120d1565b9450506020612154878288016119d1565b9350506040612165878288016119d1565b92505060606121768782880161199b565b91505092959194509250565b61218b81611972565b82525050565b61219a816119b0565b82525050565b6000819050919050565b6121b3816121a0565b82525050565b60006060820190506121ce6000830186612182565b6121db6020830185612191565b6121e860408301846121aa565b949350505050565b6000815190506121ff81611984565b92915050565b60006020828403121561221b5761221a611948565b5b6000612229848285016121f0565b91505092915050565b600082825260208201905092915050565b7f43414c4c45525f4e4f545f524543495049454e545f4f465f524f4c4500000000600082015250565b6000612279601c83612232565b915061228482612243565b602082019050919050565b600060208201905081810360008301526122a88161226c565b9050919050565b7f4e487b7100000000000000000000000000000000000000000000000000000000600052602160045260246000fd5b7f4e4f545f415554484f52495a4544000000000000000000000000000000000000600082015250565b6000612314600e83612232565b915061231f826122de565b602082019050919050565b6000602082019050818103600083015261234381612307565b9050919050565b7f4e487b7100000000000000000000000000000000000000000000000000000000600052602260045260246000fd5b6000600282049050600182168061239157607f821691505b6020821081036123a4576123a361234a565b5b50919050565b60008190508160005260206000209050919050565b60006020601f8301049050919050565b600082821b905092915050565b60006008830261240c7fffffffffffffffffffffffffffffffffffffffffffffffffffffffffffffffff826123cf565b61241686836123cf565b95508019841693508086168417925050509392505050565b600061244961244461243f846119b0565b611f41565b6119b0565b9050919050565b6000819050919050565b6124638361242e565b61247761246f82612450565b8484546123dc565b825550505050565b600090565b61248c61247f565b61249781848461245a565b505050565b5b818110156124bb576124b0600082612484565b60018101905061249d565b5050565b601f821115612500576124d1816123aa565b6124da846123bf565b810160208510156124e9578190505b6124fd6124f5856123bf565b83018261249c565b50505b505050565b600082821c905092915050565b600061252360001984600802612505565b1980831691505092915050565b600061253c8383612512565b9150826002028217905092915050565b61255582611dcc565b67ffffffffffffffff81111561256e5761256d611b98565b5b6125788254612379565b6125838282856124bf565b600060209050601f8311600181146125b657600084156125a4578287015190505b6125ae8582612530565b865550612616565b601f1984166125c4866123aa565b60005b828110156125ec578489015182556001820191506020850194506020810190506125c7565b868310156126095784890151612605601f891682612512565b8355505b6001600288020188555050505b505050505050565b7f6e6f7420617574686f7269736564000000000000000000000000000000000000600082015250565b6000612654600e83612232565b915061265f8261261e565b602082019050919050565b6000602082019050818103600083015261268381612647565b9050919050565b612693816121a0565b82525050565b6126a281611b18565b82525050565b600081519050919050565b600082825260208201905092915050565b60006126cf826126a8565b6126d981856126b3565b93506126e9818560208601611de8565b6126f281611b87565b840191505092915050565b600060e083016000830151612715600086018261268a565b5060208301516127286020860182611dbd565b50604083015161273b6040860182611dae565b50606083015161274e6060860182611dbd565b5060808301516127616080860182612699565b5060a083015161277460a0860182611e4b565b5060c083015184820360c086015261278c82826126c4565b9150508091505092915050565b600060208201905081810360008301526127b381846126fd565b905092915050565b7f414c52454144595f564f5445445f544849535f50524f504f53414c0000000000600082015250565b60006127f1601b83612232565b91506127fc826127bb565b602082019050919050565b60006020820190508181036000830152612820816127e4565b9050919050565b7f50524f504f53414c5f4558504952454400000000000000000000000000000000600082015250565b600061285d601083612232565b915061286882612827565b602082019050919050565b6000602082019050818103600083015261288c81612850565b9050919050565b7f4e487b7100000000000000000000000000000000000000000000000000000000600052601160045260246000fd5b60006128cd826119b0565b91506128d8836119b0565b92508282019050808211156128f0576128ef612893565b5b92915050565b7f454e445f54494d455f4d5553545f42455f494e5f465554555245000000000000600082015250565b600061292c601a83612232565b9150612937826128f6565b602082019050919050565b6000602082019050818103600083015261295b8161291f565b9050919050565b600061296d826119b0565b91507fffffffffffffffffffffffffffffffffffffffffffffffffffffffffffffffff820361299f5761299e612893565b5b60018201905091905056fea26469706673582212202ad1f7694a6567bec261b7430dfc28054b20ae08a2f467343a1b426476ac089964736f6c634300081c0033",
  "linkReferences": {},
  "deployedLinkReferences": {}
}