{
  "contracts/SchoolManagementSystem.sol": {
    "SchoolManagementSystem": {
      "abi": [
        {
          "inputs": [],
          "name": "INVALID_ID",
          "type": "error"
        },
        {
          "inputs": [],
          "name": "INVALID_SENDER_ADDRESS",
          "type": "error"
        },
        {
          "inputs": [],
          "name": "STUDENT_NOT_FOUND",
          "type": "error"
        },
        {
          "inputs": [
            {
              "components": [
                {
                  "internalType": "uint256",
                  "name": "id",
                  "type": "uint256"
                },
                {
                  "internalType": "string",
                  "name": "name",
                  "type": "string"
                },
                {
                  "internalType": "string",
                  "name": "course",
                  "type": "string"
                },
                {
                  "internalType": "uint256",
                  "name": "age",
                  "type": "uint256"
                },
                {
                  "internalType": "enum SchoolManagementSystem.Status",
                  "name": "status",
                  "type": "uint8"
                }
              ],
              "internalType": "struct SchoolManagementSystem.StudentDetails",
              "name": "details",
              "type": "tuple"
            }
          ],
          "name": "another_registration",
          "outputs": [],
          "stateMutability": "nonpayable",
          "type": "function"
        },
        {
          "inputs": [
            {
              "internalType": "uint256",
              "name": "_student_id",
              "type": "uint256"
            }
          ],
          "name": "delete_student",
          "outputs": [],
          "stateMutability": "nonpayable",
          "type": "function"
        },
        {
          "inputs": [],
          "name": "get_all_students",
          "outputs": [
            {
              "components": [
                {
                  "internalType": "uint256",
                  "name": "id",
                  "type": "uint256"
                },
                {
                  "internalType": "string",
                  "name": "name",
                  "type": "string"
                },
                {
                  "internalType": "string",
                  "name": "course",
                  "type": "string"
                },
                {
                  "internalType": "uint256",
                  "name": "age",
                  "type": "uint256"
                },
                {
                  "internalType": "enum SchoolManagementSystem.Status",
                  "name": "status",
                  "type": "uint8"
                }
              ],
              "internalType": "struct SchoolManagementSystem.StudentDetails[]",
              "name": "",
              "type": "tuple[]"
            }
          ],
          "stateMutability": "view",
          "type": "function"
        },
        {
          "inputs": [
            {
              "internalType": "address",
              "name": "_studentAddress",
              "type": "address"
            }
          ],
          "name": "get_student_by_address",
          "outputs": [
            {
              "components": [
                {
                  "internalType": "uint256",
                  "name": "id",
                  "type": "uint256"
                },
                {
                  "internalType": "string",
                  "name": "name",
                  "type": "string"
                },
                {
                  "internalType": "string",
                  "name": "course",
                  "type": "string"
                },
                {
                  "internalType": "uint256",
                  "name": "age",
                  "type": "uint256"
                },
                {
                  "internalType": "enum SchoolManagementSystem.Status",
                  "name": "status",
                  "type": "uint8"
                }
              ],
              "internalType": "struct SchoolManagementSystem.StudentDetails",
              "name": "",
              "type": "tuple"
            }
          ],
          "stateMutability": "view",
          "type": "function"
        },
        {
          "inputs": [
            {
              "internalType": "uint256",
              "name": "_student_id",
              "type": "uint256"
            }
          ],
          "name": "get_student_by_id",
          "outputs": [
            {
              "components": [
                {
                  "internalType": "uint256",
                  "name": "id",
                  "type": "uint256"
                },
                {
                  "internalType": "string",
                  "name": "name",
                  "type": "string"
                },
                {
                  "internalType": "string",
                  "name": "course",
                  "type": "string"
                },
                {
                  "internalType": "uint256",
                  "name": "age",
                  "type": "uint256"
                },
                {
                  "internalType": "enum SchoolManagementSystem.Status",
                  "name": "status",
                  "type": "uint8"
                }
              ],
              "internalType": "struct SchoolManagementSystem.StudentDetails",
              "name": "",
              "type": "tuple"
            }
          ],
          "stateMutability": "view",
          "type": "function"
        },
        {
          "inputs": [
            {
              "internalType": "string",
              "name": "_name",
              "type": "string"
            },
            {
              "internalType": "string",
              "name": "_course",
              "type": "string"
            },
            {
              "internalType": "uint256",
              "name": "_age",
              "type": "uint256"
            }
          ],
          "name": "register_student",
          "outputs": [],
          "stateMutability": "nonpayable",
          "type": "function"
        },
        {
          "inputs": [
            {
              "internalType": "uint256",
              "name": "",
              "type": "uint256"
            }
          ],
          "name": "students",
          "outputs": [
            {
              "internalType": "uint256",
              "name": "id",
              "type": "uint256"
            },
            {
              "internalType": "string",
              "name": "name",
              "type": "string"
            },
            {
              "internalType": "string",
              "name": "course",
              "type": "string"
            },
            {
              "internalType": "uint256",
              "name": "age",
              "type": "uint256"
            },
            {
              "internalType": "enum SchoolManagementSystem.Status",
              "name": "status",
              "type": "uint8"
            }
          ],
          "stateMutability": "view",
          "type": "function"
        },
        {
          "inputs": [
            {
              "internalType": "address",
              "name": "",
              "type": "address"
            }
          ],
          "name": "studentsByAddress",
          "outputs": [
            {
              "internalType": "uint256",
              "name": "id",
              "type": "uint256"
            },
            {
              "internalType": "string",
              "name": "name",
              "type": "string"
            },
            {
              "internalType": "string",
              "name": "course",
              "type": "string"
            },
            {
              "internalType": "uint256",
              "name": "age",
              "type": "uint256"
            },
            {
              "internalType": "enum SchoolManagementSystem.Status",
              "name": "status",
              "type": "uint8"
            }
          ],
          "stateMutability": "view",
          "type": "function"
        },
        {
          "inputs": [
            {
              "internalType": "uint256",
              "name": "_student_id",
              "type": "uint256"
            },
            {
              "internalType": "string",
              "name": "_new_name",
              "type": "string"
            }
          ],
          "name": "update_student",
          "outputs": [],
          "stateMutability": "nonpayable",
          "type": "function"
        },
        {
          "inputs": [
            {
              "internalType": "uint256",
              "name": "_student_id",
              "type": "uint256"
            },
            {
              "internalType": "enum SchoolManagementSystem.Status",
              "name": "_new_status",
              "type": "uint8"
            }
          ],
          "name": "update_students_status",
          "outputs": [],
          "stateMutability": "nonpayable",
          "type": "function"
        }
      ],
      "evm": {
        "bytecode": {
          "linkReferences": {},
          "object": "6080604052348015600f57600080fd5b50611e928061001f6000396000f3fe608060405234801561001057600080fd5b506004361061009e5760003560e01c806373cc10481161006657806373cc1048146101495780638f3354fe1461017d578063c26294ba146101ad578063c9b72927146101dd578063daeb3821146101f95761009e565b806306ead22e146100a357806315c5f3e3146100d75780632773a286146100f35780633ab9a9ec1461010f5780633f09a5381461012d575b600080fd5b6100bd60048036038101906100b891906110f0565b610215565b6040516100ce959493929190611233565b60405180910390f35b6100f160048036038101906100ec91906112b9565b610378565b005b61010d6004803603810190610108919061142e565b610493565b005b610117610515565b6040516101249190611631565b60405180910390f35b610147600480360381019061014291906110f0565b6106e7565b005b610163600480360381019061015e91906116b1565b6108ac565b604051610174959493929190611233565b60405180910390f35b610197600480360381019061019291906110f0565b6109ff565b6040516101a4919061175b565b60405180910390f35b6101c760048036038101906101c291906116b1565b610bff565b6040516101d4919061175b565b60405180910390f35b6101f760048036038101906101f2919061177d565b610e0f565b005b610213600480360381019061020e91906118d6565b610f08565b005b6001818154811061022557600080fd5b906000526020600020906005020160009150905080600001549080600101805461024e9061194e565b80601f016020809104026020016040519081016040528092919081815260200182805461027a9061194e565b80156102c75780601f1061029c576101008083540402835291602001916102c7565b820191906000526020600020905b8154815290600101906020018083116102aa57829003601f168201915b5050505050908060020180546102dc9061194e565b80601f01602080910402602001604051908101604052809291908181526020018280546103089061194e565b80156103555780601f1061032a57610100808354040283529160200191610355565b820191906000526020600020905b81548152906001019060200180831161033857829003601f168201915b5050505050908060030154908060040160009054906101000a900460ff16905085565b6001805490508211156103c0576040517f08c379a00000000000000000000000000000000000000000000000000000000081526004016103b7906119cb565b60405180910390fd5b60005b60018054905081101561045c5782600182815481106103e5576103e46119eb565b5b9060005260206000209060050201600001540361044f578160018281548110610411576104106119eb565b5b906000526020600020906005020160040160006101000a81548160ff02191690836002811115610444576104436111bc565b5b02179055505061048f565b80806001019150506103c3565b506040517f5a9e653400000000000000000000000000000000000000000000000000000000815260040160405180910390fd5b5050565b60005b6001805490508110156105105782600182815481106104b8576104b76119eb565b5b906000526020600020906005020160000154036105035781600182815481106104e4576104e36119eb565b5b906000526020600020906005020160010190816105019190611bc6565b505b8080600101915050610496565b505050565b60606001805480602002602001604051908101604052809291908181526020016000905b828210156106de57838290600052602060002090600502016040518060a0016040529081600082015481526020016001820180546105769061194e565b80601f01602080910402602001604051908101604052809291908181526020018280546105a29061194e565b80156105ef5780601f106105c4576101008083540402835291602001916105ef565b820191906000526020600020905b8154815290600101906020018083116105d257829003601f168201915b505050505081526020016002820180546106089061194e565b80601f01602080910402602001604051908101604052809291908181526020018280546106349061194e565b80156106815780601f1061065657610100808354040283529160200191610681565b820191906000526020600020905b81548152906001019060200180831161066457829003601f168201915b50505050508152602001600382015481526020016004820160009054906101000a900460ff1660028111156106b9576106b86111bc565b5b60028111156106cb576106ca6111bc565b5b8152505081526020019060010190610539565b50505050905090565b60005b60018054905081101561087657816001828154811061070c5761070b6119eb565b5b906000526020600020906005020160000154036108695760018080805490506107359190611cc7565b81548110610746576107456119eb565b5b906000526020600020906005020160018281548110610768576107676119eb565b5b906000526020600020906005020160008201548160000155600182018160010190816107949190611d11565b50600282018160020190816107a99190611d11565b50600382015481600301556004820160009054906101000a900460ff168160040160006101000a81548160ff021916908360028111156107ec576107eb6111bc565b5b0217905550905050600180548061080657610805611df9565b5b60019003818190600052602060002090600502016000808201600090556001820160006108339190611008565b6002820160006108439190611008565b60038201600090556004820160006101000a81549060ff021916905550509055506108a9565b80806001019150506106ea565b506040517faca0832a00000000000000000000000000000000000000000000000000000000815260040160405180910390fd5b50565b60026020528060005260406000206000915090508060000154908060010180546108d59061194e565b80601f01602080910402602001604051908101604052809291908181526020018280546109019061194e565b801561094e5780601f106109235761010080835404028352916020019161094e565b820191906000526020600020905b81548152906001019060200180831161093157829003601f168201915b5050505050908060020180546109639061194e565b80601f016020809104026020016040519081016040528092919081815260200182805461098f9061194e565b80156109dc5780601f106109b1576101008083540402835291602001916109dc565b820191906000526020600020905b8154815290600101906020018083116109bf57829003601f168201915b5050505050908060030154908060040160009054906101000a900460ff16905085565b610a07611048565b60005b600180549050811015610bf8578260018281548110610a2c57610a2b6119eb565b5b90600052602060002090600502016000015403610beb5760018181548110610a5757610a566119eb565b5b90600052602060002090600502016040518060a001604052908160008201548152602001600182018054610a8a9061194e565b80601f0160208091040260200160405190810160405280929190818152602001828054610ab69061194e565b8015610b035780601f10610ad857610100808354040283529160200191610b03565b820191906000526020600020905b815481529060010190602001808311610ae657829003601f168201915b50505050508152602001600282018054610b1c9061194e565b80601f0160208091040260200160405190810160405280929190818152602001828054610b489061194e565b8015610b955780601f10610b6a57610100808354040283529160200191610b95565b820191906000526020600020905b815481529060010190602001808311610b7857829003601f168201915b50505050508152602001600382015481526020016004820160009054906101000a900460ff166002811115610bcd57610bcc6111bc565b5b6002811115610bdf57610bde6111bc565b5b81525050915050610bfa565b8080600101915050610a0a565b505b919050565b610c07611048565b6000600260008473ffffffffffffffffffffffffffffffffffffffff1673ffffffffffffffffffffffffffffffffffffffff1681526020019081526020016000206040518060a001604052908160008201548152602001600182018054610c6d9061194e565b80601f0160208091040260200160405190810160405280929190818152602001828054610c999061194e565b8015610ce65780601f10610cbb57610100808354040283529160200191610ce6565b820191906000526020600020905b815481529060010190602001808311610cc957829003601f168201915b50505050508152602001600282018054610cff9061194e565b80601f0160208091040260200160405190810160405280929190818152602001828054610d2b9061194e565b8015610d785780601f10610d4d57610100808354040283529160200191610d78565b820191906000526020600020905b815481529060010190602001808311610d5b57829003601f168201915b50505050508152602001600382015481526020016004820160009054906101000a900460ff166002811115610db057610daf6111bc565b5b6002811115610dc257610dc16111bc565b5b8152505090506000816000015103610e06576040517faca0832a00000000000000000000000000000000000000000000000000000000815260040160405180910390fd5b80915050919050565b6001600054610e1e9190611e28565b60008190555060006040518060a00160405280600054815260200185815260200184815260200183815260200160006002811115610e5f57610e5e6111bc565b5b81525090506001819080600181540180825580915050600190039060005260206000209060050201600090919091909150600082015181600001556020820151816001019081610eaf9190611bc6565b506040820151816002019081610ec59190611bc6565b506060820151816003015560808201518160040160006101000a81548160ff02191690836002811115610efb57610efa6111bc565b5b0217905550505050505050565b6001600054610f179190611e28565b6000819055506040518060a00160405280600054815260200182602001518152602001826040015181526020018260600151815260200160006002811115610f6257610f616111bc565b5b81525090506001819080600181540180825580915050600190039060005260206000209060050201600090919091909150600082015181600001556020820151816001019081610fb29190611bc6565b506040820151816002019081610fc89190611bc6565b506060820151816003015560808201518160040160006101000a81548160ff02191690836002811115610ffe57610ffd6111bc565b5b0217905550505050565b5080546110149061194e565b6000825580601f106110265750611045565b601f0160209004906000526020600020908101906110449190611089565b5b50565b6040518060a001604052806000815260200160608152602001606081526020016000815260200160006002811115611083576110826111bc565b5b81525090565b5b808211156110a257600081600090555060010161108a565b5090565b6000604051905090565b600080fd5b600080fd5b6000819050919050565b6110cd816110ba565b81146110d857600080fd5b50565b6000813590506110ea816110c4565b92915050565b600060208284031215611106576111056110b0565b5b6000611114848285016110db565b91505092915050565b611126816110ba565b82525050565b600081519050919050565b600082825260208201905092915050565b60005b8381101561116657808201518184015260208101905061114b565b60008484015250505050565b6000601f19601f8301169050919050565b600061118e8261112c565b6111988185611137565b93506111a8818560208601611148565b6111b181611172565b840191505092915050565b7f4e487b7100000000000000000000000000000000000000000000000000000000600052602160045260246000fd5b600381106111fc576111fb6111bc565b5b50565b600081905061120d826111eb565b919050565b600061121d826111ff565b9050919050565b61122d81611212565b82525050565b600060a082019050611248600083018861111d565b818103602083015261125a8187611183565b9050818103604083015261126e8186611183565b905061127d606083018561111d565b61128a6080830184611224565b9695505050505050565b600381106112a157600080fd5b50565b6000813590506112b381611294565b92915050565b600080604083850312156112d0576112cf6110b0565b5b60006112de858286016110db565b92505060206112ef858286016112a4565b9150509250929050565b600080fd5b600080fd5b7f4e487b7100000000000000000000000000000000000000000000000000000000600052604160045260246000fd5b61133b82611172565b810181811067ffffffffffffffff8211171561135a57611359611303565b5b80604052505050565b600061136d6110a6565b90506113798282611332565b919050565b600067ffffffffffffffff82111561139957611398611303565b5b6113a282611172565b9050602081019050919050565b82818337600083830152505050565b60006113d16113cc8461137e565b611363565b9050828152602081018484840111156113ed576113ec6112fe565b5b6113f88482856113af565b509392505050565b600082601f830112611415576114146112f9565b5b81356114258482602086016113be565b91505092915050565b60008060408385031215611445576114446110b0565b5b6000611453858286016110db565b925050602083013567ffffffffffffffff811115611474576114736110b5565b5b61148085828601611400565b9150509250929050565b600081519050919050565b600082825260208201905092915050565b6000819050602082019050919050565b6114bf816110ba565b82525050565b600082825260208201905092915050565b60006114e18261112c565b6114eb81856114c5565b93506114fb818560208601611148565b61150481611172565b840191505092915050565b61151881611212565b82525050565b600060a08301600083015161153660008601826114b6565b506020830151848203602086015261154e82826114d6565b9150506040830151848203604086015261156882826114d6565b915050606083015161157d60608601826114b6565b506080830151611590608086018261150f565b508091505092915050565b60006115a7838361151e565b905092915050565b6000602082019050919050565b60006115c78261148a565b6115d18185611495565b9350836020820285016115e3856114a6565b8060005b8581101561161f5784840389528151611600858261159b565b945061160b836115af565b925060208a019950506001810190506115e7565b50829750879550505050505092915050565b6000602082019050818103600083015261164b81846115bc565b905092915050565b600073ffffffffffffffffffffffffffffffffffffffff82169050919050565b600061167e82611653565b9050919050565b61168e81611673565b811461169957600080fd5b50565b6000813590506116ab81611685565b92915050565b6000602082840312156116c7576116c66110b0565b5b60006116d58482850161169c565b91505092915050565b600060a0830160008301516116f660008601826114b6565b506020830151848203602086015261170e82826114d6565b9150506040830151848203604086015261172882826114d6565b915050606083015161173d60608601826114b6565b506080830151611750608086018261150f565b508091505092915050565b6000602082019050818103600083015261177581846116de565b905092915050565b600080600060608486031215611796576117956110b0565b5b600084013567ffffffffffffffff8111156117b4576117b36110b5565b5b6117c086828701611400565b935050602084013567ffffffffffffffff8111156117e1576117e06110b5565b5b6117ed86828701611400565b92505060406117fe868287016110db565b9150509250925092565b600080fd5b600080fd5b600060a0828403121561182857611827611808565b5b61183260a0611363565b90506000611842848285016110db565b600083015250602082013567ffffffffffffffff8111156118665761186561180d565b5b61187284828501611400565b602083015250604082013567ffffffffffffffff8111156118965761189561180d565b5b6118a284828501611400565b60408301525060606118b6848285016110db565b60608301525060806118ca848285016112a4565b60808301525092915050565b6000602082840312156118ec576118eb6110b0565b5b600082013567ffffffffffffffff81111561190a576119096110b5565b5b61191684828501611812565b91505092915050565b7f4e487b7100000000000000000000000000000000000000000000000000000000600052602260045260246000fd5b6000600282049050600182168061196657607f821691505b6020821081036119795761197861191f565b5b50919050565b7f696e76616c696420696400000000000000000000000000000000000000000000600082015250565b60006119b5600a83611137565b91506119c08261197f565b602082019050919050565b600060208201905081810360008301526119e4816119a8565b9050919050565b7f4e487b7100000000000000000000000000000000000000000000000000000000600052603260045260246000fd5b60008190508160005260206000209050919050565b60006020601f8301049050919050565b600082821b905092915050565b600060088302611a7c7fffffffffffffffffffffffffffffffffffffffffffffffffffffffffffffffff82611a3f565b611a868683611a3f565b95508019841693508086168417925050509392505050565b6000819050919050565b6000611ac3611abe611ab9846110ba565b611a9e565b6110ba565b9050919050565b6000819050919050565b611add83611aa8565b611af1611ae982611aca565b848454611a4c565b825550505050565b600090565b611b06611af9565b611b11818484611ad4565b505050565b5b81811015611b3557611b2a600082611afe565b600181019050611b17565b5050565b601f821115611b7a57611b4b81611a1a565b611b5484611a2f565b81016020851015611b63578190505b611b77611b6f85611a2f565b830182611b16565b50505b505050565b600082821c905092915050565b6000611b9d60001984600802611b7f565b1980831691505092915050565b6000611bb68383611b8c565b9150826002028217905092915050565b611bcf8261112c565b67ffffffffffffffff811115611be857611be7611303565b5b611bf2825461194e565b611bfd828285611b39565b600060209050601f831160018114611c305760008415611c1e578287015190505b611c288582611baa565b865550611c90565b601f198416611c3e86611a1a565b60005b82811015611c6657848901518255600182019150602085019450602081019050611c41565b86831015611c835784890151611c7f601f891682611b8c565b8355505b6001600288020188555050505b505050505050565b7f4e487b7100000000000000000000000000000000000000000000000000000000600052601160045260246000fd5b6000611cd2826110ba565b9150611cdd836110ba565b9250828203905081811115611cf557611cf4611c98565b5b92915050565b600081549050611d0a8161194e565b9050919050565b818103611d1f575050611df7565b611d2882611cfb565b67ffffffffffffffff811115611d4157611d40611303565b5b611d4b825461194e565b611d56828285611b39565b6000601f831160018114611d855760008415611d73578287015490505b611d7d8582611baa565b865550611df0565b601f198416611d9387611a1a565b9650611d9e86611a1a565b60005b82811015611dc657848901548255600182019150600185019450602081019050611da1565b86831015611de35784890154611ddf601f891682611b8c565b8355505b6001600288020188555050505b5050505050505b565b7f4e487b7100000000000000000000000000000000000000000000000000000000600052603160045260246000fd5b6000611e33826110ba565b9150611e3e836110ba565b9250828201905080821115611e5657611e55611c98565b5b9291505056fea2646970667358221220a83089e86f957d682a6028d4a4034a69ab041fa58db0d054c2dc62bbc0768fb164736f6c634300081e0033",
          "opcodes": "PUSH1 0x80 PUSH1 0x40 MSTORE CALLVALUE DUP1 ISZERO PUSH1 0xF JUMPI PUSH1 0x0 DUP1 REVERT JUMPDEST POP PUSH2 0x1E92 DUP1 PUSH2 0x1F PUSH1 0x0 CODECOPY PUSH1 0x0 RETURN INVALID PUSH1 0x80 PUSH1 0x40 MSTORE CALLVALUE DUP1 ISZERO PUSH2 0x10 JUMPI PUSH1 0x0 DUP1 REVERT JUMPDEST POP PUSH1 0x4 CALLDATASIZE LT PUSH2 0x9E JUMPI PUSH1 0x0 CALLDATALOAD PUSH1 0xE0 SHR DUP1 PUSH4 0x73CC1048 GT PUSH2 0x66 JUMPI DUP1 PUSH4 0x73CC1048 EQ PUSH2 0x149 JUMPI DUP1 PUSH4 0x8F3354FE EQ PUSH2 0x17D JUMPI DUP1 PUSH4 0xC26294BA EQ PUSH2 0x1AD JUMPI DUP1 PUSH4 0xC9B72927 EQ PUSH2 0x1DD JUMPI DUP1 PUSH4 0xDAEB3821 EQ PUSH2 0x1F9 JUMPI PUSH2 0x9E JUMP JUMPDEST DUP1 PUSH4 0x6EAD22E EQ PUSH2 0xA3 JUMPI DUP1 PUSH4 0x15C5F3E3 EQ PUSH2 0xD7 JUMPI DUP1 PUSH4 0x2773A286 EQ PUSH2 0xF3 JUMPI DUP1 PUSH4 0x3AB9A9EC EQ PUSH2 0x10F JUMPI DUP1 PUSH4 0x3F09A538 EQ PUSH2 0x12D JUMPI JUMPDEST PUSH1 0x0 DUP1 REVERT JUMPDEST PUSH2 0xBD PUSH1 0x4 DUP1 CALLDATASIZE SUB DUP2 ADD SWAP1 PUSH2 0xB8 SWAP2 SWAP1 PUSH2 0x10F0 JUMP JUMPDEST PUSH2 0x215 JUMP JUMPDEST PUSH1 0x40 MLOAD PUSH2 0xCE SWAP6 SWAP5 SWAP4 SWAP3 SWAP2 SWAP1 PUSH2 0x1233 JUMP JUMPDEST PUSH1 0x40 MLOAD DUP1 SWAP2 SUB SWAP1 RETURN JUMPDEST PUSH2 0xF1 PUSH1 0x4 DUP1 CALLDATASIZE SUB DUP2 ADD SWAP1 PUSH2 0xEC SWAP2 SWAP1 PUSH2 0x12B9 JUMP JUMPDEST PUSH2 0x378 JUMP JUMPDEST STOP JUMPDEST PUSH2 0x10D PUSH1 0x4 DUP1 CALLDATASIZE SUB DUP2 ADD SWAP1 PUSH2 0x108 SWAP2 SWAP1 PUSH2 0x142E JUMP JUMPDEST PUSH2 0x493 JUMP JUMPDEST STOP JUMPDEST PUSH2 0x117 PUSH2 0x515 JUMP JUMPDEST PUSH1 0x40 MLOAD PUSH2 0x124 SWAP2 SWAP1 PUSH2 0x1631 JUMP JUMPDEST PUSH1 0x40 MLOAD DUP1 SWAP2 SUB SWAP1 RETURN JUMPDEST PUSH2 0x147 PUSH1 0x4 DUP1 CALLDATASIZE SUB DUP2 ADD SWAP1 PUSH2 0x142 SWAP2 SWAP1 PUSH2 0x10F0 JUMP JUMPDEST PUSH2 0x6E7 JUMP JUMPDEST STOP JUMPDEST PUSH2 0x163 PUSH1 0x4 DUP1 CALLDATASIZE SUB DUP2 ADD SWAP1 PUSH2 0x15E SWAP2 SWAP1 PUSH2 0x16B1 JUMP JUMPDEST PUSH2 0x8AC JUMP JUMPDEST PUSH1 0x40 MLOAD PUSH2 0x174 SWAP6 SWAP5 SWAP4 SWAP3 SWAP2 SWAP1 PUSH2 0x1233 JUMP JUMPDEST PUSH1 0x40 MLOAD DUP1 SWAP2 SUB SWAP1 RETURN JUMPDEST PUSH2 0x197 PUSH1 0x4 DUP1 CALLDATASIZE SUB DUP2 ADD SWAP1 PUSH2 0x192 SWAP2 SWAP1 PUSH2 0x10F0 JUMP JUMPDEST PUSH2 0x9FF JUMP JUMPDEST PUSH1 0x40 MLOAD PUSH2 0x1A4 SWAP2 SWAP1 PUSH2 0x175B JUMP JUMPDEST PUSH1 0x40 MLOAD DUP1 SWAP2 SUB SWAP1 RETURN JUMPDEST PUSH2 0x1C7 PUSH1 0x4 DUP1 CALLDATASIZE SUB DUP2 ADD SWAP1 PUSH2 0x1C2 SWAP2 SWAP1 PUSH2 0x16B1 JUMP JUMPDEST PUSH2 0xBFF JUMP JUMPDEST PUSH1 0x40 MLOAD PUSH2 0x1D4 SWAP2 SWAP1 PUSH2 0x175B JUMP JUMPDEST PUSH1 0x40 MLOAD DUP1 SWAP2 SUB SWAP1 RETURN JUMPDEST PUSH2 0x1F7 PUSH1 0x4 DUP1 CALLDATASIZE SUB DUP2 ADD SWAP1 PUSH2 0x1F2 SWAP2 SWAP1 PUSH2 0x177D JUMP JUMPDEST PUSH2 0xE0F JUMP JUMPDEST STOP JUMPDEST PUSH2 0x213 PUSH1 0x4 DUP1 CALLDATASIZE SUB DUP2 ADD SWAP1 PUSH2 0x20E SWAP2 SWAP1 PUSH2 0x18D6 JUMP JUMPDEST PUSH2 0xF08 JUMP JUMPDEST STOP JUMPDEST PUSH1 0x1 DUP2 DUP2 SLOAD DUP2 LT PUSH2 0x225 JUMPI PUSH1 0x0 DUP1 REVERT JUMPDEST SWAP1 PUSH1 0x0 MSTORE PUSH1 0x20 PUSH1 0x0 KECCAK256 SWAP1 PUSH1 0x5 MUL ADD PUSH1 0x0 SWAP2 POP SWAP1 POP DUP1 PUSH1 0x0 ADD SLOAD SWAP1 DUP1 PUSH1 0x1 ADD DUP1 SLOAD PUSH2 0x24E SWAP1 PUSH2 0x194E JUMP JUMPDEST DUP1 PUSH1 0x1F ADD PUSH1 0x20 DUP1 SWAP2 DIV MUL PUSH1 0x20 ADD PUSH1 0x40 MLOAD SWAP1 DUP2 ADD PUSH1 0x40 MSTORE DUP1 SWAP3 SWAP2 SWAP1 DUP2 DUP2 MSTORE PUSH1 0x20 ADD DUP3 DUP1 SLOAD PUSH2 0x27A SWAP1 PUSH2 0x194E JUMP JUMPDEST DUP1 ISZERO PUSH2 0x2C7 JUMPI DUP1 PUSH1 0x1F LT PUSH2 0x29C JUMPI PUSH2 0x100 DUP1 DUP4 SLOAD DIV MUL DUP4 MSTORE SWAP2 PUSH1 0x20 ADD SWAP2 PUSH2 0x2C7 JUMP JUMPDEST DUP3 ADD SWAP2 SWAP1 PUSH1 0x0 MSTORE PUSH1 0x20 PUSH1 0x0 KECCAK256 SWAP1 JUMPDEST DUP2 SLOAD DUP2 MSTORE SWAP1 PUSH1 0x1 ADD SWAP1 PUSH1 0x20 ADD DUP1 DUP4 GT PUSH2 0x2AA JUMPI DUP3 SWAP1 SUB PUSH1 0x1F AND DUP3 ADD SWAP2 JUMPDEST POP POP POP POP POP SWAP1 DUP1 PUSH1 0x2 ADD DUP1 SLOAD PUSH2 0x2DC SWAP1 PUSH2 0x194E JUMP JUMPDEST DUP1 PUSH1 0x1F ADD PUSH1 0x20 DUP1 SWAP2 DIV MUL PUSH1 0x20 ADD PUSH1 0x40 MLOAD SWAP1 DUP2 ADD PUSH1 0x40 MSTORE DUP1 SWAP3 SWAP2 SWAP1 DUP2 DUP2 MSTORE PUSH1 0x20 ADD DUP3 DUP1 SLOAD PUSH2 0x308 SWAP1 PUSH2 0x194E JUMP JUMPDEST DUP1 ISZERO PUSH2 0x355 JUMPI DUP1 PUSH1 0x1F LT PUSH2 0x32A JUMPI PUSH2 0x100 DUP1 DUP4 SLOAD DIV MUL DUP4 MSTORE SWAP2 PUSH1 0x20 ADD SWAP2 PUSH2 0x355 JUMP JUMPDEST DUP3 ADD SWAP2 SWAP1 PUSH1 0x0 MSTORE PUSH1 0x20 PUSH1 0x0 KECCAK256 SWAP1 JUMPDEST DUP2 SLOAD DUP2 MSTORE SWAP1 PUSH1 0x1 ADD SWAP1 PUSH1 0x20 ADD DUP1 DUP4 GT PUSH2 0x338 JUMPI DUP3 SWAP1 SUB PUSH1 0x1F AND DUP3 ADD SWAP2 JUMPDEST POP POP POP POP POP SWAP1 DUP1 PUSH1 0x3 ADD SLOAD SWAP1 DUP1 PUSH1 0x4 ADD PUSH1 0x0 SWAP1 SLOAD SWAP1 PUSH2 0x100 EXP SWAP1 DIV PUSH1 0xFF AND SWAP1 POP DUP6 JUMP JUMPDEST PUSH1 0x1 DUP1 SLOAD SWAP1 POP DUP3 GT ISZERO PUSH2 0x3C0 JUMPI PUSH1 0x40 MLOAD PUSH32 0x8C379A000000000000000000000000000000000000000000000000000000000 DUP2 MSTORE PUSH1 0x4 ADD PUSH2 0x3B7 SWAP1 PUSH2 0x19CB JUMP JUMPDEST PUSH1 0x40 MLOAD DUP1 SWAP2 SUB SWAP1 REVERT JUMPDEST PUSH1 0x0 JUMPDEST PUSH1 0x1 DUP1 SLOAD SWAP1 POP DUP2 LT ISZERO PUSH2 0x45C JUMPI DUP3 PUSH1 0x1 DUP3 DUP2 SLOAD DUP2 LT PUSH2 0x3E5 JUMPI PUSH2 0x3E4 PUSH2 0x19EB JUMP JUMPDEST JUMPDEST SWAP1 PUSH1 0x0 MSTORE PUSH1 0x20 PUSH1 0x0 KECCAK256 SWAP1 PUSH1 0x5 MUL ADD PUSH1 0x0 ADD SLOAD SUB PUSH2 0x44F JUMPI DUP2 PUSH1 0x1 DUP3 DUP2 SLOAD DUP2 LT PUSH2 0x411 JUMPI PUSH2 0x410 PUSH2 0x19EB JUMP JUMPDEST JUMPDEST SWAP1 PUSH1 0x0 MSTORE PUSH1 0x20 PUSH1 0x0 KECCAK256 SWAP1 PUSH1 0x5 MUL ADD PUSH1 0x4 ADD PUSH1 0x0 PUSH2 0x100 EXP DUP2 SLOAD DUP2 PUSH1 0xFF MUL NOT AND SWAP1 DUP4 PUSH1 0x2 DUP2 GT ISZERO PUSH2 0x444 JUMPI PUSH2 0x443 PUSH2 0x11BC JUMP JUMPDEST JUMPDEST MUL OR SWAP1 SSTORE POP POP PUSH2 0x48F JUMP JUMPDEST DUP1 DUP1 PUSH1 0x1 ADD SWAP2 POP POP PUSH2 0x3C3 JUMP JUMPDEST POP PUSH1 0x40 MLOAD PUSH32 0x5A9E653400000000000000000000000000000000000000000000000000000000 DUP2 MSTORE PUSH1 0x4 ADD PUSH1 0x40 MLOAD DUP1 SWAP2 SUB SWAP1 REVERT JUMPDEST POP POP JUMP JUMPDEST PUSH1 0x0 JUMPDEST PUSH1 0x1 DUP1 SLOAD SWAP1 POP DUP2 LT ISZERO PUSH2 0x510 JUMPI DUP3 PUSH1 0x1 DUP3 DUP2 SLOAD DUP2 LT PUSH2 0x4B8 JUMPI PUSH2 0x4B7 PUSH2 0x19EB JUMP JUMPDEST JUMPDEST SWAP1 PUSH1 0x0 MSTORE PUSH1 0x20 PUSH1 0x0 KECCAK256 SWAP1 PUSH1 0x5 MUL ADD PUSH1 0x0 ADD SLOAD SUB PUSH2 0x503 JUMPI DUP2 PUSH1 0x1 DUP3 DUP2 SLOAD DUP2 LT PUSH2 0x4E4 JUMPI PUSH2 0x4E3 PUSH2 0x19EB JUMP JUMPDEST JUMPDEST SWAP1 PUSH1 0x0 MSTORE PUSH1 0x20 PUSH1 0x0 KECCAK256 SWAP1 PUSH1 0x5 MUL ADD PUSH1 0x1 ADD SWAP1 DUP2 PUSH2 0x501 SWAP2 SWAP1 PUSH2 0x1BC6 JUMP JUMPDEST POP JUMPDEST DUP1 DUP1 PUSH1 0x1 ADD SWAP2 POP POP PUSH2 0x496 JUMP JUMPDEST POP POP POP JUMP JUMPDEST PUSH1 0x60 PUSH1 0x1 DUP1 SLOAD DUP1 PUSH1 0x20 MUL PUSH1 0x20 ADD PUSH1 0x40 MLOAD SWAP1 DUP2 ADD PUSH1 0x40 MSTORE DUP1 SWAP3 SWAP2 SWAP1 DUP2 DUP2 MSTORE PUSH1 0x20 ADD PUSH1 0x0 SWAP1 JUMPDEST DUP3 DUP3 LT ISZERO PUSH2 0x6DE JUMPI DUP4 DUP3 SWAP1 PUSH1 0x0 MSTORE PUSH1 0x20 PUSH1 0x0 KECCAK256 SWAP1 PUSH1 0x5 MUL ADD PUSH1 0x40 MLOAD DUP1 PUSH1 0xA0 ADD PUSH1 0x40 MSTORE SWAP1 DUP2 PUSH1 0x0 DUP3 ADD SLOAD DUP2 MSTORE PUSH1 0x20 ADD PUSH1 0x1 DUP3 ADD DUP1 SLOAD PUSH2 0x576 SWAP1 PUSH2 0x194E JUMP JUMPDEST DUP1 PUSH1 0x1F ADD PUSH1 0x20 DUP1 SWAP2 DIV MUL PUSH1 0x20 ADD PUSH1 0x40 MLOAD SWAP1 DUP2 ADD PUSH1 0x40 MSTORE DUP1 SWAP3 SWAP2 SWAP1 DUP2 DUP2 MSTORE PUSH1 0x20 ADD DUP3 DUP1 SLOAD PUSH2 0x5A2 SWAP1 PUSH2 0x194E JUMP JUMPDEST DUP1 ISZERO PUSH2 0x5EF JUMPI DUP1 PUSH1 0x1F LT PUSH2 0x5C4 JUMPI PUSH2 0x100 DUP1 DUP4 SLOAD DIV MUL DUP4 MSTORE SWAP2 PUSH1 0x20 ADD SWAP2 PUSH2 0x5EF JUMP JUMPDEST DUP3 ADD SWAP2 SWAP1 PUSH1 0x0 MSTORE PUSH1 0x20 PUSH1 0x0 KECCAK256 SWAP1 JUMPDEST DUP2 SLOAD DUP2 MSTORE SWAP1 PUSH1 0x1 ADD SWAP1 PUSH1 0x20 ADD DUP1 DUP4 GT PUSH2 0x5D2 JUMPI DUP3 SWAP1 SUB PUSH1 0x1F AND DUP3 ADD SWAP2 JUMPDEST POP POP POP POP POP DUP2 MSTORE PUSH1 0x20 ADD PUSH1 0x2 DUP3 ADD DUP1 SLOAD PUSH2 0x608 SWAP1 PUSH2 0x194E JUMP JUMPDEST DUP1 PUSH1 0x1F ADD PUSH1 0x20 DUP1 SWAP2 DIV MUL PUSH1 0x20 ADD PUSH1 0x40 MLOAD SWAP1 DUP2 ADD PUSH1 0x40 MSTORE DUP1 SWAP3 SWAP2 SWAP1 DUP2 DUP2 MSTORE PUSH1 0x20 ADD DUP3 DUP1 SLOAD PUSH2 0x634 SWAP1 PUSH2 0x194E JUMP JUMPDEST DUP1 ISZERO PUSH2 0x681 JUMPI DUP1 PUSH1 0x1F LT PUSH2 0x656 JUMPI PUSH2 0x100 DUP1 DUP4 SLOAD DIV MUL DUP4 MSTORE SWAP2 PUSH1 0x20 ADD SWAP2 PUSH2 0x681 JUMP JUMPDEST DUP3 ADD SWAP2 SWAP1 PUSH1 0x0 MSTORE PUSH1 0x20 PUSH1 0x0 KECCAK256 SWAP1 JUMPDEST DUP2 SLOAD DUP2 MSTORE SWAP1 PUSH1 0x1 ADD SWAP1 PUSH1 0x20 ADD DUP1 DUP4 GT PUSH2 0x664 JUMPI DUP3 SWAP1 SUB PUSH1 0x1F AND DUP3 ADD SWAP2 JUMPDEST POP POP POP POP POP DUP2 MSTORE PUSH1 0x20 ADD PUSH1 0x3 DUP3 ADD SLOAD DUP2 MSTORE PUSH1 0x20 ADD PUSH1 0x4 DUP3 ADD PUSH1 0x0 SWAP1 SLOAD SWAP1 PUSH2 0x100 EXP SWAP1 DIV PUSH1 0xFF AND PUSH1 0x2 DUP2 GT ISZERO PUSH2 0x6B9 JUMPI PUSH2 0x6B8 PUSH2 0x11BC JUMP JUMPDEST JUMPDEST PUSH1 0x2 DUP2 GT ISZERO PUSH2 0x6CB JUMPI PUSH2 0x6CA PUSH2 0x11BC JUMP JUMPDEST JUMPDEST DUP2 MSTORE POP POP DUP2 MSTORE PUSH1 0x20 ADD SWAP1 PUSH1 0x1 ADD SWAP1 PUSH2 0x539 JUMP JUMPDEST POP POP POP POP SWAP1 POP SWAP1 JUMP JUMPDEST PUSH1 0x0 JUMPDEST PUSH1 0x1 DUP1 SLOAD SWAP1 POP DUP2 LT ISZERO PUSH2 0x876 JUMPI DUP2 PUSH1 0x1 DUP3 DUP2 SLOAD DUP2 LT PUSH2 0x70C JUMPI PUSH2 0x70B PUSH2 0x19EB JUMP JUMPDEST JUMPDEST SWAP1 PUSH1 0x0 MSTORE PUSH1 0x20 PUSH1 0x0 KECCAK256 SWAP1 PUSH1 0x5 MUL ADD PUSH1 0x0 ADD SLOAD SUB PUSH2 0x869 JUMPI PUSH1 0x1 DUP1 DUP1 DUP1 SLOAD SWAP1 POP PUSH2 0x735 SWAP2 SWAP1 PUSH2 0x1CC7 JUMP JUMPDEST DUP2 SLOAD DUP2 LT PUSH2 0x746 JUMPI PUSH2 0x745 PUSH2 0x19EB JUMP JUMPDEST JUMPDEST SWAP1 PUSH1 0x0 MSTORE PUSH1 0x20 PUSH1 0x0 KECCAK256 SWAP1 PUSH1 0x5 MUL ADD PUSH1 0x1 DUP3 DUP2 SLOAD DUP2 LT PUSH2 0x768 JUMPI PUSH2 0x767 PUSH2 0x19EB JUMP JUMPDEST JUMPDEST SWAP1 PUSH1 0x0 MSTORE PUSH1 0x20 PUSH1 0x0 KECCAK256 SWAP1 PUSH1 0x5 MUL ADD PUSH1 0x0 DUP3 ADD SLOAD DUP2 PUSH1 0x0 ADD SSTORE PUSH1 0x1 DUP3 ADD DUP2 PUSH1 0x1 ADD SWAP1 DUP2 PUSH2 0x794 SWAP2 SWAP1 PUSH2 0x1D11 JUMP JUMPDEST POP PUSH1 0x2 DUP3 ADD DUP2 PUSH1 0x2 ADD SWAP1 DUP2 PUSH2 0x7A9 SWAP2 SWAP1 PUSH2 0x1D11 JUMP JUMPDEST POP PUSH1 0x3 DUP3 ADD SLOAD DUP2 PUSH1 0x3 ADD SSTORE PUSH1 0x4 DUP3 ADD PUSH1 0x0 SWAP1 SLOAD SWAP1 PUSH2 0x100 EXP SWAP1 DIV PUSH1 0xFF AND DUP2 PUSH1 0x4 ADD PUSH1 0x0 PUSH2 0x100 EXP DUP2 SLOAD DUP2 PUSH1 0xFF MUL NOT AND SWAP1 DUP4 PUSH1 0x2 DUP2 GT ISZERO PUSH2 0x7EC JUMPI PUSH2 0x7EB PUSH2 0x11BC JUMP JUMPDEST JUMPDEST MUL OR SWAP1 SSTORE POP SWAP1 POP POP PUSH1 0x1 DUP1 SLOAD DUP1 PUSH2 0x806 JUMPI PUSH2 0x805 PUSH2 0x1DF9 JUMP JUMPDEST JUMPDEST PUSH1 0x1 SWAP1 SUB DUP2 DUP2 SWAP1 PUSH1 0x0 MSTORE PUSH1 0x20 PUSH1 0x0 KECCAK256 SWAP1 PUSH1 0x5 MUL ADD PUSH1 0x0 DUP1 DUP3 ADD PUSH1 0x0 SWAP1 SSTORE PUSH1 0x1 DUP3 ADD PUSH1 0x0 PUSH2 0x833 SWAP2 SWAP1 PUSH2 0x1008 JUMP JUMPDEST PUSH1 0x2 DUP3 ADD PUSH1 0x0 PUSH2 0x843 SWAP2 SWAP1 PUSH2 0x1008 JUMP JUMPDEST PUSH1 0x3 DUP3 ADD PUSH1 0x0 SWAP1 SSTORE PUSH1 0x4 DUP3 ADD PUSH1 0x0 PUSH2 0x100 EXP DUP2 SLOAD SWAP1 PUSH1 0xFF MUL NOT AND SWAP1 SSTORE POP POP SWAP1 SSTORE POP PUSH2 0x8A9 JUMP JUMPDEST DUP1 DUP1 PUSH1 0x1 ADD SWAP2 POP POP PUSH2 0x6EA JUMP JUMPDEST POP PUSH1 0x40 MLOAD PUSH32 0xACA0832A00000000000000000000000000000000000000000000000000000000 DUP2 MSTORE PUSH1 0x4 ADD PUSH1 0x40 MLOAD DUP1 SWAP2 SUB SWAP1 REVERT JUMPDEST POP JUMP JUMPDEST PUSH1 0x2 PUSH1 0x20 MSTORE DUP1 PUSH1 0x0 MSTORE PUSH1 0x40 PUSH1 0x0 KECCAK256 PUSH1 0x0 SWAP2 POP SWAP1 POP DUP1 PUSH1 0x0 ADD SLOAD SWAP1 DUP1 PUSH1 0x1 ADD DUP1 SLOAD PUSH2 0x8D5 SWAP1 PUSH2 0x194E JUMP JUMPDEST DUP1 PUSH1 0x1F ADD PUSH1 0x20 DUP1 SWAP2 DIV MUL PUSH1 0x20 ADD PUSH1 0x40 MLOAD SWAP1 DUP2 ADD PUSH1 0x40 MSTORE DUP1 SWAP3 SWAP2 SWAP1 DUP2 DUP2 MSTORE PUSH1 0x20 ADD DUP3 DUP1 SLOAD PUSH2 0x901 SWAP1 PUSH2 0x194E JUMP JUMPDEST DUP1 ISZERO PUSH2 0x94E JUMPI DUP1 PUSH1 0x1F LT PUSH2 0x923 JUMPI PUSH2 0x100 DUP1 DUP4 SLOAD DIV MUL DUP4 MSTORE SWAP2 PUSH1 0x20 ADD SWAP2 PUSH2 0x94E JUMP JUMPDEST DUP3 ADD SWAP2 SWAP1 PUSH1 0x0 MSTORE PUSH1 0x20 PUSH1 0x0 KECCAK256 SWAP1 JUMPDEST DUP2 SLOAD DUP2 MSTORE SWAP1 PUSH1 0x1 ADD SWAP1 PUSH1 0x20 ADD DUP1 DUP4 GT PUSH2 0x931 JUMPI DUP3 SWAP1 SUB PUSH1 0x1F AND DUP3 ADD SWAP2 JUMPDEST POP POP POP POP POP SWAP1 DUP1 PUSH1 0x2 ADD DUP1 SLOAD PUSH2 0x963 SWAP1 PUSH2 0x194E JUMP JUMPDEST DUP1 PUSH1 0x1F ADD PUSH1 0x20 DUP1 SWAP2 DIV MUL PUSH1 0x20 ADD PUSH1 0x40 MLOAD SWAP1 DUP2 ADD PUSH1 0x40 MSTORE DUP1 SWAP3 SWAP2 SWAP1 DUP2 DUP2 MSTORE PUSH1 0x20 ADD DUP3 DUP1 SLOAD PUSH2 0x98F SWAP1 PUSH2 0x194E JUMP JUMPDEST DUP1 ISZERO PUSH2 0x9DC JUMPI DUP1 PUSH1 0x1F LT PUSH2 0x9B1 JUMPI PUSH2 0x100 DUP1 DUP4 SLOAD DIV MUL DUP4 MSTORE SWAP2 PUSH1 0x20 ADD SWAP2 PUSH2 0x9DC JUMP JUMPDEST DUP3 ADD SWAP2 SWAP1 PUSH1 0x0 MSTORE PUSH1 0x20 PUSH1 0x0 KECCAK256 SWAP1 JUMPDEST DUP2 SLOAD DUP2 MSTORE SWAP1 PUSH1 0x1 ADD SWAP1 PUSH1 0x20 ADD DUP1 DUP4 GT PUSH2 0x9BF JUMPI DUP3 SWAP1 SUB PUSH1 0x1F AND DUP3 ADD SWAP2 JUMPDEST POP POP POP POP POP SWAP1 DUP1 PUSH1 0x3 ADD SLOAD SWAP1 DUP1 PUSH1 0x4 ADD PUSH1 0x0 SWAP1 SLOAD SWAP1 PUSH2 0x100 EXP SWAP1 DIV PUSH1 0xFF AND SWAP1 POP DUP6 JUMP JUMPDEST PUSH2 0xA07 PUSH2 0x1048 JUMP JUMPDEST PUSH1 0x0 JUMPDEST PUSH1 0x1 DUP1 SLOAD SWAP1 POP DUP2 LT ISZERO PUSH2 0xBF8 JUMPI DUP3 PUSH1 0x1 DUP3 DUP2 SLOAD DUP2 LT PUSH2 0xA2C JUMPI PUSH2 0xA2B PUSH2 0x19EB JUMP JUMPDEST JUMPDEST SWAP1 PUSH1 0x0 MSTORE PUSH1 0x20 PUSH1 0x0 KECCAK256 SWAP1 PUSH1 0x5 MUL ADD PUSH1 0x0 ADD SLOAD SUB PUSH2 0xBEB JUMPI PUSH1 0x1 DUP2 DUP2 SLOAD DUP2 LT PUSH2 0xA57 JUMPI PUSH2 0xA56 PUSH2 0x19EB JUMP JUMPDEST JUMPDEST SWAP1 PUSH1 0x0 MSTORE PUSH1 0x20 PUSH1 0x0 KECCAK256 SWAP1 PUSH1 0x5 MUL ADD PUSH1 0x40 MLOAD DUP1 PUSH1 0xA0 ADD PUSH1 0x40 MSTORE SWAP1 DUP2 PUSH1 0x0 DUP3 ADD SLOAD DUP2 MSTORE PUSH1 0x20 ADD PUSH1 0x1 DUP3 ADD DUP1 SLOAD PUSH2 0xA8A SWAP1 PUSH2 0x194E JUMP JUMPDEST DUP1 PUSH1 0x1F ADD PUSH1 0x20 DUP1 SWAP2 DIV MUL PUSH1 0x20 ADD PUSH1 0x40 MLOAD SWAP1 DUP2 ADD PUSH1 0x40 MSTORE DUP1 SWAP3 SWAP2 SWAP1 DUP2 DUP2 MSTORE PUSH1 0x20 ADD DUP3 DUP1 SLOAD PUSH2 0xAB6 SWAP1 PUSH2 0x194E JUMP JUMPDEST DUP1 ISZERO PUSH2 0xB03 JUMPI DUP1 PUSH1 0x1F LT PUSH2 0xAD8 JUMPI PUSH2 0x100 DUP1 DUP4 SLOAD DIV MUL DUP4 MSTORE SWAP2 PUSH1 0x20 ADD SWAP2 PUSH2 0xB03 JUMP JUMPDEST DUP3 ADD SWAP2 SWAP1 PUSH1 0x0 MSTORE PUSH1 0x20 PUSH1 0x0 KECCAK256 SWAP1 JUMPDEST DUP2 SLOAD DUP2 MSTORE SWAP1 PUSH1 0x1 ADD SWAP1 PUSH1 0x20 ADD DUP1 DUP4 GT PUSH2 0xAE6 JUMPI DUP3 SWAP1 SUB PUSH1 0x1F AND DUP3 ADD SWAP2 JUMPDEST POP POP POP POP POP DUP2 MSTORE PUSH1 0x20 ADD PUSH1 0x2 DUP3 ADD DUP1 SLOAD PUSH2 0xB1C SWAP1 PUSH2 0x194E JUMP JUMPDEST DUP1 PUSH1 0x1F ADD PUSH1 0x20 DUP1 SWAP2 DIV MUL PUSH1 0x20 ADD PUSH1 0x40 MLOAD SWAP1 DUP2 ADD PUSH1 0x40 MSTORE DUP1 SWAP3 SWAP2 SWAP1 DUP2 DUP2 MSTORE PUSH1 0x20 ADD DUP3 DUP1 SLOAD PUSH2 0xB48 SWAP1 PUSH2 0x194E JUMP JUMPDEST DUP1 ISZERO PUSH2 0xB95 JUMPI DUP1 PUSH1 0x1F LT PUSH2 0xB6A JUMPI PUSH2 0x100 DUP1 DUP4 SLOAD DIV MUL DUP4 MSTORE SWAP2 PUSH1 0x20 ADD SWAP2 PUSH2 0xB95 JUMP JUMPDEST DUP3 ADD SWAP2 SWAP1 PUSH1 0x0 MSTORE PUSH1 0x20 PUSH1 0x0 KECCAK256 SWAP1 JUMPDEST DUP2 SLOAD DUP2 MSTORE SWAP1 PUSH1 0x1 ADD SWAP1 PUSH1 0x20 ADD DUP1 DUP4 GT PUSH2 0xB78 JUMPI DUP3 SWAP1 SUB PUSH1 0x1F AND DUP3 ADD SWAP2 JUMPDEST POP POP POP POP POP DUP2 MSTORE PUSH1 0x20 ADD PUSH1 0x3 DUP3 ADD SLOAD DUP2 MSTORE PUSH1 0x20 ADD PUSH1 0x4 DUP3 ADD PUSH1 0x0 SWAP1 SLOAD SWAP1 PUSH2 0x100 EXP SWAP1 DIV PUSH1 0xFF AND PUSH1 0x2 DUP2 GT ISZERO PUSH2 0xBCD JUMPI PUSH2 0xBCC PUSH2 0x11BC JUMP JUMPDEST JUMPDEST PUSH1 0x2 DUP2 GT ISZERO PUSH2 0xBDF JUMPI PUSH2 0xBDE PUSH2 0x11BC JUMP JUMPDEST JUMPDEST DUP2 MSTORE POP POP SWAP2 POP POP PUSH2 0xBFA JUMP JUMPDEST DUP1 DUP1 PUSH1 0x1 ADD SWAP2 POP POP PUSH2 0xA0A JUMP JUMPDEST POP JUMPDEST SWAP2 SWAP1 POP JUMP JUMPDEST PUSH2 0xC07 PUSH2 0x1048 JUMP JUMPDEST PUSH1 0x0 PUSH1 0x2 PUSH1 0x0 DUP5 PUSH20 0xFFFFFFFFFFFFFFFFFFFFFFFFFFFFFFFFFFFFFFFF AND PUSH20 0xFFFFFFFFFFFFFFFFFFFFFFFFFFFFFFFFFFFFFFFF AND DUP2 MSTORE PUSH1 0x20 ADD SWAP1 DUP2 MSTORE PUSH1 0x20 ADD PUSH1 0x0 KECCAK256 PUSH1 0x40 MLOAD DUP1 PUSH1 0xA0 ADD PUSH1 0x40 MSTORE SWAP1 DUP2 PUSH1 0x0 DUP3 ADD SLOAD DUP2 MSTORE PUSH1 0x20 ADD PUSH1 0x1 DUP3 ADD DUP1 SLOAD PUSH2 0xC6D SWAP1 PUSH2 0x194E JUMP JUMPDEST DUP1 PUSH1 0x1F ADD PUSH1 0x20 DUP1 SWAP2 DIV MUL PUSH1 0x20 ADD PUSH1 0x40 MLOAD SWAP1 DUP2 ADD PUSH1 0x40 MSTORE DUP1 SWAP3 SWAP2 SWAP1 DUP2 DUP2 MSTORE PUSH1 0x20 ADD DUP3 DUP1 SLOAD PUSH2 0xC99 SWAP1 PUSH2 0x194E JUMP JUMPDEST DUP1 ISZERO PUSH2 0xCE6 JUMPI DUP1 PUSH1 0x1F LT PUSH2 0xCBB JUMPI PUSH2 0x100 DUP1 DUP4 SLOAD DIV MUL DUP4 MSTORE SWAP2 PUSH1 0x20 ADD SWAP2 PUSH2 0xCE6 JUMP JUMPDEST DUP3 ADD SWAP2 SWAP1 PUSH1 0x0 MSTORE PUSH1 0x20 PUSH1 0x0 KECCAK256 SWAP1 JUMPDEST DUP2 SLOAD DUP2 MSTORE SWAP1 PUSH1 0x1 ADD SWAP1 PUSH1 0x20 ADD DUP1 DUP4 GT PUSH2 0xCC9 JUMPI DUP3 SWAP1 SUB PUSH1 0x1F AND DUP3 ADD SWAP2 JUMPDEST POP POP POP POP POP DUP2 MSTORE PUSH1 0x20 ADD PUSH1 0x2 DUP3 ADD DUP1 SLOAD PUSH2 0xCFF SWAP1 PUSH2 0x194E JUMP JUMPDEST DUP1 PUSH1 0x1F ADD PUSH1 0x20 DUP1 SWAP2 DIV MUL PUSH1 0x20 ADD PUSH1 0x40 MLOAD SWAP1 DUP2 ADD PUSH1 0x40 MSTORE DUP1 SWAP3 SWAP2 SWAP1 DUP2 DUP2 MSTORE PUSH1 0x20 ADD DUP3 DUP1 SLOAD PUSH2 0xD2B SWAP1 PUSH2 0x194E JUMP JUMPDEST DUP1 ISZERO PUSH2 0xD78 JUMPI DUP1 PUSH1 0x1F LT PUSH2 0xD4D JUMPI PUSH2 0x100 DUP1 DUP4 SLOAD DIV MUL DUP4 MSTORE SWAP2 PUSH1 0x20 ADD SWAP2 PUSH2 0xD78 JUMP JUMPDEST DUP3 ADD SWAP2 SWAP1 PUSH1 0x0 MSTORE PUSH1 0x20 PUSH1 0x0 KECCAK256 SWAP1 JUMPDEST DUP2 SLOAD DUP2 MSTORE SWAP1 PUSH1 0x1 ADD SWAP1 PUSH1 0x20 ADD DUP1 DUP4 GT PUSH2 0xD5B JUMPI DUP3 SWAP1 SUB PUSH1 0x1F AND DUP3 ADD SWAP2 JUMPDEST POP POP POP POP POP DUP2 MSTORE PUSH1 0x20 ADD PUSH1 0x3 DUP3 ADD SLOAD DUP2 MSTORE PUSH1 0x20 ADD PUSH1 0x4 DUP3 ADD PUSH1 0x0 SWAP1 SLOAD SWAP1 PUSH2 0x100 EXP SWAP1 DIV PUSH1 0xFF AND PUSH1 0x2 DUP2 GT ISZERO PUSH2 0xDB0 JUMPI PUSH2 0xDAF PUSH2 0x11BC JUMP JUMPDEST JUMPDEST PUSH1 0x2 DUP2 GT ISZERO PUSH2 0xDC2 JUMPI PUSH2 0xDC1 PUSH2 0x11BC JUMP JUMPDEST JUMPDEST DUP2 MSTORE POP POP SWAP1 POP PUSH1 0x0 DUP2 PUSH1 0x0 ADD MLOAD SUB PUSH2 0xE06 JUMPI PUSH1 0x40 MLOAD PUSH32 0xACA0832A00000000000000000000000000000000000000000000000000000000 DUP2 MSTORE PUSH1 0x4 ADD PUSH1 0x40 MLOAD DUP1 SWAP2 SUB SWAP1 REVERT JUMPDEST DUP1 SWAP2 POP POP SWAP2 SWAP1 POP JUMP JUMPDEST PUSH1 0x1 PUSH1 0x0 SLOAD PUSH2 0xE1E SWAP2 SWAP1 PUSH2 0x1E28 JUMP JUMPDEST PUSH1 0x0 DUP2 SWAP1 SSTORE POP PUSH1 0x0 PUSH1 0x40 MLOAD DUP1 PUSH1 0xA0 ADD PUSH1 0x40 MSTORE DUP1 PUSH1 0x0 SLOAD DUP2 MSTORE PUSH1 0x20 ADD DUP6 DUP2 MSTORE PUSH1 0x20 ADD DUP5 DUP2 MSTORE PUSH1 0x20 ADD DUP4 DUP2 MSTORE PUSH1 0x20 ADD PUSH1 0x0 PUSH1 0x2 DUP2 GT ISZERO PUSH2 0xE5F JUMPI PUSH2 0xE5E PUSH2 0x11BC JUMP JUMPDEST JUMPDEST DUP2 MSTORE POP SWAP1 POP PUSH1 0x1 DUP2 SWAP1 DUP1 PUSH1 0x1 DUP2 SLOAD ADD DUP1 DUP3 SSTORE DUP1 SWAP2 POP POP PUSH1 0x1 SWAP1 SUB SWAP1 PUSH1 0x0 MSTORE PUSH1 0x20 PUSH1 0x0 KECCAK256 SWAP1 PUSH1 0x5 MUL ADD PUSH1 0x0 SWAP1 SWAP2 SWAP1 SWAP2 SWAP1 SWAP2 POP PUSH1 0x0 DUP3 ADD MLOAD DUP2 PUSH1 0x0 ADD SSTORE PUSH1 0x20 DUP3 ADD MLOAD DUP2 PUSH1 0x1 ADD SWAP1 DUP2 PUSH2 0xEAF SWAP2 SWAP1 PUSH2 0x1BC6 JUMP JUMPDEST POP PUSH1 0x40 DUP3 ADD MLOAD DUP2 PUSH1 0x2 ADD SWAP1 DUP2 PUSH2 0xEC5 SWAP2 SWAP1 PUSH2 0x1BC6 JUMP JUMPDEST POP PUSH1 0x60 DUP3 ADD MLOAD DUP2 PUSH1 0x3 ADD SSTORE PUSH1 0x80 DUP3 ADD MLOAD DUP2 PUSH1 0x4 ADD PUSH1 0x0 PUSH2 0x100 EXP DUP2 SLOAD DUP2 PUSH1 0xFF MUL NOT AND SWAP1 DUP4 PUSH1 0x2 DUP2 GT ISZERO PUSH2 0xEFB JUMPI PUSH2 0xEFA PUSH2 0x11BC JUMP JUMPDEST JUMPDEST MUL OR SWAP1 SSTORE POP POP POP POP POP POP POP JUMP JUMPDEST PUSH1 0x1 PUSH1 0x0 SLOAD PUSH2 0xF17 SWAP2 SWAP1 PUSH2 0x1E28 JUMP JUMPDEST PUSH1 0x0 DUP2 SWAP1 SSTORE POP PUSH1 0x40 MLOAD DUP1 PUSH1 0xA0 ADD PUSH1 0x40 MSTORE DUP1 PUSH1 0x0 SLOAD DUP2 MSTORE PUSH1 0x20 ADD DUP3 PUSH1 0x20 ADD MLOAD DUP2 MSTORE PUSH1 0x20 ADD DUP3 PUSH1 0x40 ADD MLOAD DUP2 MSTORE PUSH1 0x20 ADD DUP3 PUSH1 0x60 ADD MLOAD DUP2 MSTORE PUSH1 0x20 ADD PUSH1 0x0 PUSH1 0x2 DUP2 GT ISZERO PUSH2 0xF62 JUMPI PUSH2 0xF61 PUSH2 0x11BC JUMP JUMPDEST JUMPDEST DUP2 MSTORE POP SWAP1 POP PUSH1 0x1 DUP2 SWAP1 DUP1 PUSH1 0x1 DUP2 SLOAD ADD DUP1 DUP3 SSTORE DUP1 SWAP2 POP POP PUSH1 0x1 SWAP1 SUB SWAP1 PUSH1 0x0 MSTORE PUSH1 0x20 PUSH1 0x0 KECCAK256 SWAP1 PUSH1 0x5 MUL ADD PUSH1 0x0 SWAP1 SWAP2 SWAP1 SWAP2 SWAP1 SWAP2 POP PUSH1 0x0 DUP3 ADD MLOAD DUP2 PUSH1 0x0 ADD SSTORE PUSH1 0x20 DUP3 ADD MLOAD DUP2 PUSH1 0x1 ADD SWAP1 DUP2 PUSH2 0xFB2 SWAP2 SWAP1 PUSH2 0x1BC6 JUMP JUMPDEST POP PUSH1 0x40 DUP3 ADD MLOAD DUP2 PUSH1 0x2 ADD SWAP1 DUP2 PUSH2 0xFC8 SWAP2 SWAP1 PUSH2 0x1BC6 JUMP JUMPDEST POP PUSH1 0x60 DUP3 ADD MLOAD DUP2 PUSH1 0x3 ADD SSTORE PUSH1 0x80 DUP3 ADD MLOAD DUP2 PUSH1 0x4 ADD PUSH1 0x0 PUSH2 0x100 EXP DUP2 SLOAD DUP2 PUSH1 0xFF MUL NOT AND SWAP1 DUP4 PUSH1 0x2 DUP2 GT ISZERO PUSH2 0xFFE JUMPI PUSH2 0xFFD PUSH2 0x11BC JUMP JUMPDEST JUMPDEST MUL OR SWAP1 SSTORE POP POP POP POP JUMP JUMPDEST POP DUP1 SLOAD PUSH2 0x1014 SWAP1 PUSH2 0x194E JUMP JUMPDEST PUSH1 0x0 DUP3 SSTORE DUP1 PUSH1 0x1F LT PUSH2 0x1026 JUMPI POP PUSH2 0x1045 JUMP JUMPDEST PUSH1 0x1F ADD PUSH1 0x20 SWAP1 DIV SWAP1 PUSH1 0x0 MSTORE PUSH1 0x20 PUSH1 0x0 KECCAK256 SWAP1 DUP2 ADD SWAP1 PUSH2 0x1044 SWAP2 SWAP1 PUSH2 0x1089 JUMP JUMPDEST JUMPDEST POP JUMP JUMPDEST PUSH1 0x40 MLOAD DUP1 PUSH1 0xA0 ADD PUSH1 0x40 MSTORE DUP1 PUSH1 0x0 DUP2 MSTORE PUSH1 0x20 ADD PUSH1 0x60 DUP2 MSTORE PUSH1 0x20 ADD PUSH1 0x60 DUP2 MSTORE PUSH1 0x20 ADD PUSH1 0x0 DUP2 MSTORE PUSH1 0x20 ADD PUSH1 0x0 PUSH1 0x2 DUP2 GT ISZERO PUSH2 0x1083 JUMPI PUSH2 0x1082 PUSH2 0x11BC JUMP JUMPDEST JUMPDEST DUP2 MSTORE POP SWAP1 JUMP JUMPDEST JUMPDEST DUP1 DUP3 GT ISZERO PUSH2 0x10A2 JUMPI PUSH1 0x0 DUP2 PUSH1 0x0 SWAP1 SSTORE POP PUSH1 0x1 ADD PUSH2 0x108A JUMP JUMPDEST POP SWAP1 JUMP JUMPDEST PUSH1 0x0 PUSH1 0x40 MLOAD SWAP1 POP SWAP1 JUMP JUMPDEST PUSH1 0x0 DUP1 REVERT JUMPDEST PUSH1 0x0 DUP1 REVERT JUMPDEST PUSH1 0x0 DUP2 SWAP1 POP SWAP2 SWAP1 POP JUMP JUMPDEST PUSH2 0x10CD DUP2 PUSH2 0x10BA JUMP JUMPDEST DUP2 EQ PUSH2 0x10D8 JUMPI PUSH1 0x0 DUP1 REVERT JUMPDEST POP JUMP JUMPDEST PUSH1 0x0 DUP2 CALLDATALOAD SWAP1 POP PUSH2 0x10EA DUP2 PUSH2 0x10C4 JUMP JUMPDEST SWAP3 SWAP2 POP POP JUMP JUMPDEST PUSH1 0x0 PUSH1 0x20 DUP3 DUP5 SUB SLT ISZERO PUSH2 0x1106 JUMPI PUSH2 0x1105 PUSH2 0x10B0 JUMP JUMPDEST JUMPDEST PUSH1 0x0 PUSH2 0x1114 DUP5 DUP3 DUP6 ADD PUSH2 0x10DB JUMP JUMPDEST SWAP2 POP POP SWAP3 SWAP2 POP POP JUMP JUMPDEST PUSH2 0x1126 DUP2 PUSH2 0x10BA JUMP JUMPDEST DUP3 MSTORE POP POP JUMP JUMPDEST PUSH1 0x0 DUP2 MLOAD SWAP1 POP SWAP2 SWAP1 POP JUMP JUMPDEST PUSH1 0x0 DUP3 DUP3 MSTORE PUSH1 0x20 DUP3 ADD SWAP1 POP SWAP3 SWAP2 POP POP JUMP JUMPDEST PUSH1 0x0 JUMPDEST DUP4 DUP2 LT ISZERO PUSH2 0x1166 JUMPI DUP1 DUP3 ADD MLOAD DUP2 DUP5 ADD MSTORE PUSH1 0x20 DUP2 ADD SWAP1 POP PUSH2 0x114B JUMP JUMPDEST PUSH1 0x0 DUP5 DUP5 ADD MSTORE POP POP POP POP JUMP JUMPDEST PUSH1 0x0 PUSH1 0x1F NOT PUSH1 0x1F DUP4 ADD AND SWAP1 POP SWAP2 SWAP1 POP JUMP JUMPDEST PUSH1 0x0 PUSH2 0x118E DUP3 PUSH2 0x112C JUMP JUMPDEST PUSH2 0x1198 DUP2 DUP6 PUSH2 0x1137 JUMP JUMPDEST SWAP4 POP PUSH2 0x11A8 DUP2 DUP6 PUSH1 0x20 DUP7 ADD PUSH2 0x1148 JUMP JUMPDEST PUSH2 0x11B1 DUP2 PUSH2 0x1172 JUMP JUMPDEST DUP5 ADD SWAP2 POP POP SWAP3 SWAP2 POP POP JUMP JUMPDEST PUSH32 0x4E487B7100000000000000000000000000000000000000000000000000000000 PUSH1 0x0 MSTORE PUSH1 0x21 PUSH1 0x4 MSTORE PUSH1 0x24 PUSH1 0x0 REVERT JUMPDEST PUSH1 0x3 DUP2 LT PUSH2 0x11FC JUMPI PUSH2 0x11FB PUSH2 0x11BC JUMP JUMPDEST JUMPDEST POP JUMP JUMPDEST PUSH1 0x0 DUP2 SWAP1 POP PUSH2 0x120D DUP3 PUSH2 0x11EB JUMP JUMPDEST SWAP2 SWAP1 POP JUMP JUMPDEST PUSH1 0x0 PUSH2 0x121D DUP3 PUSH2 0x11FF JUMP JUMPDEST SWAP1 POP SWAP2 SWAP1 POP JUMP JUMPDEST PUSH2 0x122D DUP2 PUSH2 0x1212 JUMP JUMPDEST DUP3 MSTORE POP POP JUMP JUMPDEST PUSH1 0x0 PUSH1 0xA0 DUP3 ADD SWAP1 POP PUSH2 0x1248 PUSH1 0x0 DUP4 ADD DUP9 PUSH2 0x111D JUMP JUMPDEST DUP2 DUP2 SUB PUSH1 0x20 DUP4 ADD MSTORE PUSH2 0x125A DUP2 DUP8 PUSH2 0x1183 JUMP JUMPDEST SWAP1 POP DUP2 DUP2 SUB PUSH1 0x40 DUP4 ADD MSTORE PUSH2 0x126E DUP2 DUP7 PUSH2 0x1183 JUMP JUMPDEST SWAP1 POP PUSH2 0x127D PUSH1 0x60 DUP4 ADD DUP6 PUSH2 0x111D JUMP JUMPDEST PUSH2 0x128A PUSH1 0x80 DUP4 ADD DUP5 PUSH2 0x1224 JUMP JUMPDEST SWAP7 SWAP6 POP POP POP POP POP POP JUMP JUMPDEST PUSH1 0x3 DUP2 LT PUSH2 0x12A1 JUMPI PUSH1 0x0 DUP1 REVERT JUMPDEST POP JUMP JUMPDEST PUSH1 0x0 DUP2 CALLDATALOAD SWAP1 POP PUSH2 0x12B3 DUP2 PUSH2 0x1294 JUMP JUMPDEST SWAP3 SWAP2 POP POP JUMP JUMPDEST PUSH1 0x0 DUP1 PUSH1 0x40 DUP4 DUP6 SUB SLT ISZERO PUSH2 0x12D0 JUMPI PUSH2 0x12CF PUSH2 0x10B0 JUMP JUMPDEST JUMPDEST PUSH1 0x0 PUSH2 0x12DE DUP6 DUP3 DUP7 ADD PUSH2 0x10DB JUMP JUMPDEST SWAP3 POP POP PUSH1 0x20 PUSH2 0x12EF DUP6 DUP3 DUP7 ADD PUSH2 0x12A4 JUMP JUMPDEST SWAP2 POP POP SWAP3 POP SWAP3 SWAP1 POP JUMP JUMPDEST PUSH1 0x0 DUP1 REVERT JUMPDEST PUSH1 0x0 DUP1 REVERT JUMPDEST PUSH32 0x4E487B7100000000000000000000000000000000000000000000000000000000 PUSH1 0x0 MSTORE PUSH1 0x41 PUSH1 0x4 MSTORE PUSH1 0x24 PUSH1 0x0 REVERT JUMPDEST PUSH2 0x133B DUP3 PUSH2 0x1172 JUMP JUMPDEST DUP2 ADD DUP2 DUP2 LT PUSH8 0xFFFFFFFFFFFFFFFF DUP3 GT OR ISZERO PUSH2 0x135A JUMPI PUSH2 0x1359 PUSH2 0x1303 JUMP JUMPDEST JUMPDEST DUP1 PUSH1 0x40 MSTORE POP POP POP JUMP JUMPDEST PUSH1 0x0 PUSH2 0x136D PUSH2 0x10A6 JUMP JUMPDEST SWAP1 POP PUSH2 0x1379 DUP3 DUP3 PUSH2 0x1332 JUMP JUMPDEST SWAP2 SWAP1 POP JUMP JUMPDEST PUSH1 0x0 PUSH8 0xFFFFFFFFFFFFFFFF DUP3 GT ISZERO PUSH2 0x1399 JUMPI PUSH2 0x1398 PUSH2 0x1303 JUMP JUMPDEST JUMPDEST PUSH2 0x13A2 DUP3 PUSH2 0x1172 JUMP JUMPDEST SWAP1 POP PUSH1 0x20 DUP2 ADD SWAP1 POP SWAP2 SWAP1 POP JUMP JUMPDEST DUP3 DUP2 DUP4 CALLDATACOPY PUSH1 0x0 DUP4 DUP4 ADD MSTORE POP POP POP JUMP JUMPDEST PUSH1 0x0 PUSH2 0x13D1 PUSH2 0x13CC DUP5 PUSH2 0x137E JUMP JUMPDEST PUSH2 0x1363 JUMP JUMPDEST SWAP1 POP DUP3 DUP2 MSTORE PUSH1 0x20 DUP2 ADD DUP5 DUP5 DUP5 ADD GT ISZERO PUSH2 0x13ED JUMPI PUSH2 0x13EC PUSH2 0x12FE JUMP JUMPDEST JUMPDEST PUSH2 0x13F8 DUP5 DUP3 DUP6 PUSH2 0x13AF JUMP JUMPDEST POP SWAP4 SWAP3 POP POP POP JUMP JUMPDEST PUSH1 0x0 DUP3 PUSH1 0x1F DUP4 ADD SLT PUSH2 0x1415 JUMPI PUSH2 0x1414 PUSH2 0x12F9 JUMP JUMPDEST JUMPDEST DUP2 CALLDATALOAD PUSH2 0x1425 DUP5 DUP3 PUSH1 0x20 DUP7 ADD PUSH2 0x13BE JUMP JUMPDEST SWAP2 POP POP SWAP3 SWAP2 POP POP JUMP JUMPDEST PUSH1 0x0 DUP1 PUSH1 0x40 DUP4 DUP6 SUB SLT ISZERO PUSH2 0x1445 JUMPI PUSH2 0x1444 PUSH2 0x10B0 JUMP JUMPDEST JUMPDEST PUSH1 0x0 PUSH2 0x1453 DUP6 DUP3 DUP7 ADD PUSH2 0x10DB JUMP JUMPDEST SWAP3 POP POP PUSH1 0x20 DUP4 ADD CALLDATALOAD PUSH8 0xFFFFFFFFFFFFFFFF DUP2 GT ISZERO PUSH2 0x1474 JUMPI PUSH2 0x1473 PUSH2 0x10B5 JUMP JUMPDEST JUMPDEST PUSH2 0x1480 DUP6 DUP3 DUP7 ADD PUSH2 0x1400 JUMP JUMPDEST SWAP2 POP POP SWAP3 POP SWAP3 SWAP1 POP JUMP JUMPDEST PUSH1 0x0 DUP2 MLOAD SWAP1 POP SWAP2 SWAP1 POP JUMP JUMPDEST PUSH1 0x0 DUP3 DUP3 MSTORE PUSH1 0x20 DUP3 ADD SWAP1 POP SWAP3 SWAP2 POP POP JUMP JUMPDEST PUSH1 0x0 DUP2 SWAP1 POP PUSH1 0x20 DUP3 ADD SWAP1 POP SWAP2 SWAP1 POP JUMP JUMPDEST PUSH2 0x14BF DUP2 PUSH2 0x10BA JUMP JUMPDEST DUP3 MSTORE POP POP JUMP JUMPDEST PUSH1 0x0 DUP3 DUP3 MSTORE PUSH1 0x20 DUP3 ADD SWAP1 POP SWAP3 SWAP2 POP POP JUMP JUMPDEST PUSH1 0x0 PUSH2 0x14E1 DUP3 PUSH2 0x112C JUMP JUMPDEST PUSH2 0x14EB DUP2 DUP6 PUSH2 0x14C5 JUMP JUMPDEST SWAP4 POP PUSH2 0x14FB DUP2 DUP6 PUSH1 0x20 DUP7 ADD PUSH2 0x1148 JUMP JUMPDEST PUSH2 0x1504 DUP2 PUSH2 0x1172 JUMP JUMPDEST DUP5 ADD SWAP2 POP POP SWAP3 SWAP2 POP POP JUMP JUMPDEST PUSH2 0x1518 DUP2 PUSH2 0x1212 JUMP JUMPDEST DUP3 MSTORE POP POP JUMP JUMPDEST PUSH1 0x0 PUSH1 0xA0 DUP4 ADD PUSH1 0x0 DUP4 ADD MLOAD PUSH2 0x1536 PUSH1 0x0 DUP7 ADD DUP3 PUSH2 0x14B6 JUMP JUMPDEST POP PUSH1 0x20 DUP4 ADD MLOAD DUP5 DUP3 SUB PUSH1 0x20 DUP7 ADD MSTORE PUSH2 0x154E DUP3 DUP3 PUSH2 0x14D6 JUMP JUMPDEST SWAP2 POP POP PUSH1 0x40 DUP4 ADD MLOAD DUP5 DUP3 SUB PUSH1 0x40 DUP7 ADD MSTORE PUSH2 0x1568 DUP3 DUP3 PUSH2 0x14D6 JUMP JUMPDEST SWAP2 POP POP PUSH1 0x60 DUP4 ADD MLOAD PUSH2 0x157D PUSH1 0x60 DUP7 ADD DUP3 PUSH2 0x14B6 JUMP JUMPDEST POP PUSH1 0x80 DUP4 ADD MLOAD PUSH2 0x1590 PUSH1 0x80 DUP7 ADD DUP3 PUSH2 0x150F JUMP JUMPDEST POP DUP1 SWAP2 POP POP SWAP3 SWAP2 POP POP JUMP JUMPDEST PUSH1 0x0 PUSH2 0x15A7 DUP4 DUP4 PUSH2 0x151E JUMP JUMPDEST SWAP1 POP SWAP3 SWAP2 POP POP JUMP JUMPDEST PUSH1 0x0 PUSH1 0x20 DUP3 ADD SWAP1 POP SWAP2 SWAP1 POP JUMP JUMPDEST PUSH1 0x0 PUSH2 0x15C7 DUP3 PUSH2 0x148A JUMP JUMPDEST PUSH2 0x15D1 DUP2 DUP6 PUSH2 0x1495 JUMP JUMPDEST SWAP4 POP DUP4 PUSH1 0x20 DUP3 MUL DUP6 ADD PUSH2 0x15E3 DUP6 PUSH2 0x14A6 JUMP JUMPDEST DUP1 PUSH1 0x0 JUMPDEST DUP6 DUP2 LT ISZERO PUSH2 0x161F JUMPI DUP5 DUP5 SUB DUP10 MSTORE DUP2 MLOAD PUSH2 0x1600 DUP6 DUP3 PUSH2 0x159B JUMP JUMPDEST SWAP5 POP PUSH2 0x160B DUP4 PUSH2 0x15AF JUMP JUMPDEST SWAP3 POP PUSH1 0x20 DUP11 ADD SWAP10 POP POP PUSH1 0x1 DUP2 ADD SWAP1 POP PUSH2 0x15E7 JUMP JUMPDEST POP DUP3 SWAP8 POP DUP8 SWAP6 POP POP POP POP POP POP SWAP3 SWAP2 POP POP JUMP JUMPDEST PUSH1 0x0 PUSH1 0x20 DUP3 ADD SWAP1 POP DUP2 DUP2 SUB PUSH1 0x0 DUP4 ADD MSTORE PUSH2 0x164B DUP2 DUP5 PUSH2 0x15BC JUMP JUMPDEST SWAP1 POP SWAP3 SWAP2 POP POP JUMP JUMPDEST PUSH1 0x0 PUSH20 0xFFFFFFFFFFFFFFFFFFFFFFFFFFFFFFFFFFFFFFFF DUP3 AND SWAP1 POP SWAP2 SWAP1 POP JUMP JUMPDEST PUSH1 0x0 PUSH2 0x167E DUP3 PUSH2 0x1653 JUMP JUMPDEST SWAP1 POP SWAP2 SWAP1 POP JUMP JUMPDEST PUSH2 0x168E DUP2 PUSH2 0x1673 JUMP JUMPDEST DUP2 EQ PUSH2 0x1699 JUMPI PUSH1 0x0 DUP1 REVERT JUMPDEST POP JUMP JUMPDEST PUSH1 0x0 DUP2 CALLDATALOAD SWAP1 POP PUSH2 0x16AB DUP2 PUSH2 0x1685 JUMP JUMPDEST SWAP3 SWAP2 POP POP JUMP JUMPDEST PUSH1 0x0 PUSH1 0x20 DUP3 DUP5 SUB SLT ISZERO PUSH2 0x16C7 JUMPI PUSH2 0x16C6 PUSH2 0x10B0 JUMP JUMPDEST JUMPDEST PUSH1 0x0 PUSH2 0x16D5 DUP5 DUP3 DUP6 ADD PUSH2 0x169C JUMP JUMPDEST SWAP2 POP POP SWAP3 SWAP2 POP POP JUMP JUMPDEST PUSH1 0x0 PUSH1 0xA0 DUP4 ADD PUSH1 0x0 DUP4 ADD MLOAD PUSH2 0x16F6 PUSH1 0x0 DUP7 ADD DUP3 PUSH2 0x14B6 JUMP JUMPDEST POP PUSH1 0x20 DUP4 ADD MLOAD DUP5 DUP3 SUB PUSH1 0x20 DUP7 ADD MSTORE PUSH2 0x170E DUP3 DUP3 PUSH2 0x14D6 JUMP JUMPDEST SWAP2 POP POP PUSH1 0x40 DUP4 ADD MLOAD DUP5 DUP3 SUB PUSH1 0x40 DUP7 ADD MSTORE PUSH2 0x1728 DUP3 DUP3 PUSH2 0x14D6 JUMP JUMPDEST SWAP2 POP POP PUSH1 0x60 DUP4 ADD MLOAD PUSH2 0x173D PUSH1 0x60 DUP7 ADD DUP3 PUSH2 0x14B6 JUMP JUMPDEST POP PUSH1 0x80 DUP4 ADD MLOAD PUSH2 0x1750 PUSH1 0x80 DUP7 ADD DUP3 PUSH2 0x150F JUMP JUMPDEST POP DUP1 SWAP2 POP POP SWAP3 SWAP2 POP POP JUMP JUMPDEST PUSH1 0x0 PUSH1 0x20 DUP3 ADD SWAP1 POP DUP2 DUP2 SUB PUSH1 0x0 DUP4 ADD MSTORE PUSH2 0x1775 DUP2 DUP5 PUSH2 0x16DE JUMP JUMPDEST SWAP1 POP SWAP3 SWAP2 POP POP JUMP JUMPDEST PUSH1 0x0 DUP1 PUSH1 0x0 PUSH1 0x60 DUP5 DUP7 SUB SLT ISZERO PUSH2 0x1796 JUMPI PUSH2 0x1795 PUSH2 0x10B0 JUMP JUMPDEST JUMPDEST PUSH1 0x0 DUP5 ADD CALLDATALOAD PUSH8 0xFFFFFFFFFFFFFFFF DUP2 GT ISZERO PUSH2 0x17B4 JUMPI PUSH2 0x17B3 PUSH2 0x10B5 JUMP JUMPDEST JUMPDEST PUSH2 0x17C0 DUP7 DUP3 DUP8 ADD PUSH2 0x1400 JUMP JUMPDEST SWAP4 POP POP PUSH1 0x20 DUP5 ADD CALLDATALOAD PUSH8 0xFFFFFFFFFFFFFFFF DUP2 GT ISZERO PUSH2 0x17E1 JUMPI PUSH2 0x17E0 PUSH2 0x10B5 JUMP JUMPDEST JUMPDEST PUSH2 0x17ED DUP7 DUP3 DUP8 ADD PUSH2 0x1400 JUMP JUMPDEST SWAP3 POP POP PUSH1 0x40 PUSH2 0x17FE DUP7 DUP3 DUP8 ADD PUSH2 0x10DB JUMP JUMPDEST SWAP2 POP POP SWAP3 POP SWAP3 POP SWAP3 JUMP JUMPDEST PUSH1 0x0 DUP1 REVERT JUMPDEST PUSH1 0x0 DUP1 REVERT JUMPDEST PUSH1 0x0 PUSH1 0xA0 DUP3 DUP5 SUB SLT ISZERO PUSH2 0x1828 JUMPI PUSH2 0x1827 PUSH2 0x1808 JUMP JUMPDEST JUMPDEST PUSH2 0x1832 PUSH1 0xA0 PUSH2 0x1363 JUMP JUMPDEST SWAP1 POP PUSH1 0x0 PUSH2 0x1842 DUP5 DUP3 DUP6 ADD PUSH2 0x10DB JUMP JUMPDEST PUSH1 0x0 DUP4 ADD MSTORE POP PUSH1 0x20 DUP3 ADD CALLDATALOAD PUSH8 0xFFFFFFFFFFFFFFFF DUP2 GT ISZERO PUSH2 0x1866 JUMPI PUSH2 0x1865 PUSH2 0x180D JUMP JUMPDEST JUMPDEST PUSH2 0x1872 DUP5 DUP3 DUP6 ADD PUSH2 0x1400 JUMP JUMPDEST PUSH1 0x20 DUP4 ADD MSTORE POP PUSH1 0x40 DUP3 ADD CALLDATALOAD PUSH8 0xFFFFFFFFFFFFFFFF DUP2 GT ISZERO PUSH2 0x1896 JUMPI PUSH2 0x1895 PUSH2 0x180D JUMP JUMPDEST JUMPDEST PUSH2 0x18A2 DUP5 DUP3 DUP6 ADD PUSH2 0x1400 JUMP JUMPDEST PUSH1 0x40 DUP4 ADD MSTORE POP PUSH1 0x60 PUSH2 0x18B6 DUP5 DUP3 DUP6 ADD PUSH2 0x10DB JUMP JUMPDEST PUSH1 0x60 DUP4 ADD MSTORE POP PUSH1 0x80 PUSH2 0x18CA DUP5 DUP3 DUP6 ADD PUSH2 0x12A4 JUMP JUMPDEST PUSH1 0x80 DUP4 ADD MSTORE POP SWAP3 SWAP2 POP POP JUMP JUMPDEST PUSH1 0x0 PUSH1 0x20 DUP3 DUP5 SUB SLT ISZERO PUSH2 0x18EC JUMPI PUSH2 0x18EB PUSH2 0x10B0 JUMP JUMPDEST JUMPDEST PUSH1 0x0 DUP3 ADD CALLDATALOAD PUSH8 0xFFFFFFFFFFFFFFFF DUP2 GT ISZERO PUSH2 0x190A JUMPI PUSH2 0x1909 PUSH2 0x10B5 JUMP JUMPDEST JUMPDEST PUSH2 0x1916 DUP5 DUP3 DUP6 ADD PUSH2 0x1812 JUMP JUMPDEST SWAP2 POP POP SWAP3 SWAP2 POP POP JUMP JUMPDEST PUSH32 0x4E487B7100000000000000000000000000000000000000000000000000000000 PUSH1 0x0 MSTORE PUSH1 0x22 PUSH1 0x4 MSTORE PUSH1 0x24 PUSH1 0x0 REVERT JUMPDEST PUSH1 0x0 PUSH1 0x2 DUP3 DIV SWAP1 POP PUSH1 0x1 DUP3 AND DUP1 PUSH2 0x1966 JUMPI PUSH1 0x7F DUP3 AND SWAP2 POP JUMPDEST PUSH1 0x20 DUP3 LT DUP2 SUB PUSH2 0x1979 JUMPI PUSH2 0x1978 PUSH2 0x191F JUMP JUMPDEST JUMPDEST POP SWAP2 SWAP1 POP JUMP JUMPDEST PUSH32 0x696E76616C696420696400000000000000000000000000000000000000000000 PUSH1 0x0 DUP3 ADD MSTORE POP JUMP JUMPDEST PUSH1 0x0 PUSH2 0x19B5 PUSH1 0xA DUP4 PUSH2 0x1137 JUMP JUMPDEST SWAP2 POP PUSH2 0x19C0 DUP3 PUSH2 0x197F JUMP JUMPDEST PUSH1 0x20 DUP3 ADD SWAP1 POP SWAP2 SWAP1 POP JUMP JUMPDEST PUSH1 0x0 PUSH1 0x20 DUP3 ADD SWAP1 POP DUP2 DUP2 SUB PUSH1 0x0 DUP4 ADD MSTORE PUSH2 0x19E4 DUP2 PUSH2 0x19A8 JUMP JUMPDEST SWAP1 POP SWAP2 SWAP1 POP JUMP JUMPDEST PUSH32 0x4E487B7100000000000000000000000000000000000000000000000000000000 PUSH1 0x0 MSTORE PUSH1 0x32 PUSH1 0x4 MSTORE PUSH1 0x24 PUSH1 0x0 REVERT JUMPDEST PUSH1 0x0 DUP2 SWAP1 POP DUP2 PUSH1 0x0 MSTORE PUSH1 0x20 PUSH1 0x0 KECCAK256 SWAP1 POP SWAP2 SWAP1 POP JUMP JUMPDEST PUSH1 0x0 PUSH1 0x20 PUSH1 0x1F DUP4 ADD DIV SWAP1 POP SWAP2 SWAP1 POP JUMP JUMPDEST PUSH1 0x0 DUP3 DUP3 SHL SWAP1 POP SWAP3 SWAP2 POP POP JUMP JUMPDEST PUSH1 0x0 PUSH1 0x8 DUP4 MUL PUSH2 0x1A7C PUSH32 0xFFFFFFFFFFFFFFFFFFFFFFFFFFFFFFFFFFFFFFFFFFFFFFFFFFFFFFFFFFFFFFFF DUP3 PUSH2 0x1A3F JUMP JUMPDEST PUSH2 0x1A86 DUP7 DUP4 PUSH2 0x1A3F JUMP JUMPDEST SWAP6 POP DUP1 NOT DUP5 AND SWAP4 POP DUP1 DUP7 AND DUP5 OR SWAP3 POP POP POP SWAP4 SWAP3 POP POP POP JUMP JUMPDEST PUSH1 0x0 DUP2 SWAP1 POP SWAP2 SWAP1 POP JUMP JUMPDEST PUSH1 0x0 PUSH2 0x1AC3 PUSH2 0x1ABE PUSH2 0x1AB9 DUP5 PUSH2 0x10BA JUMP JUMPDEST PUSH2 0x1A9E JUMP JUMPDEST PUSH2 0x10BA JUMP JUMPDEST SWAP1 POP SWAP2 SWAP1 POP JUMP JUMPDEST PUSH1 0x0 DUP2 SWAP1 POP SWAP2 SWAP1 POP JUMP JUMPDEST PUSH2 0x1ADD DUP4 PUSH2 0x1AA8 JUMP JUMPDEST PUSH2 0x1AF1 PUSH2 0x1AE9 DUP3 PUSH2 0x1ACA JUMP JUMPDEST DUP5 DUP5 SLOAD PUSH2 0x1A4C JUMP JUMPDEST DUP3 SSTORE POP POP POP POP JUMP JUMPDEST PUSH1 0x0 SWAP1 JUMP JUMPDEST PUSH2 0x1B06 PUSH2 0x1AF9 JUMP JUMPDEST PUSH2 0x1B11 DUP2 DUP5 DUP5 PUSH2 0x1AD4 JUMP JUMPDEST POP POP POP JUMP JUMPDEST JUMPDEST DUP2 DUP2 LT ISZERO PUSH2 0x1B35 JUMPI PUSH2 0x1B2A PUSH1 0x0 DUP3 PUSH2 0x1AFE JUMP JUMPDEST PUSH1 0x1 DUP2 ADD SWAP1 POP PUSH2 0x1B17 JUMP JUMPDEST POP POP JUMP JUMPDEST PUSH1 0x1F DUP3 GT ISZERO PUSH2 0x1B7A JUMPI PUSH2 0x1B4B DUP2 PUSH2 0x1A1A JUMP JUMPDEST PUSH2 0x1B54 DUP5 PUSH2 0x1A2F JUMP JUMPDEST DUP2 ADD PUSH1 0x20 DUP6 LT ISZERO PUSH2 0x1B63 JUMPI DUP2 SWAP1 POP JUMPDEST PUSH2 0x1B77 PUSH2 0x1B6F DUP6 PUSH2 0x1A2F JUMP JUMPDEST DUP4 ADD DUP3 PUSH2 0x1B16 JUMP JUMPDEST POP POP JUMPDEST POP POP POP JUMP JUMPDEST PUSH1 0x0 DUP3 DUP3 SHR SWAP1 POP SWAP3 SWAP2 POP POP JUMP JUMPDEST PUSH1 0x0 PUSH2 0x1B9D PUSH1 0x0 NOT DUP5 PUSH1 0x8 MUL PUSH2 0x1B7F JUMP JUMPDEST NOT DUP1 DUP4 AND SWAP2 POP POP SWAP3 SWAP2 POP POP JUMP JUMPDEST PUSH1 0x0 PUSH2 0x1BB6 DUP4 DUP4 PUSH2 0x1B8C JUMP JUMPDEST SWAP2 POP DUP3 PUSH1 0x2 MUL DUP3 OR SWAP1 POP SWAP3 SWAP2 POP POP JUMP JUMPDEST PUSH2 0x1BCF DUP3 PUSH2 0x112C JUMP JUMPDEST PUSH8 0xFFFFFFFFFFFFFFFF DUP2 GT ISZERO PUSH2 0x1BE8 JUMPI PUSH2 0x1BE7 PUSH2 0x1303 JUMP JUMPDEST JUMPDEST PUSH2 0x1BF2 DUP3 SLOAD PUSH2 0x194E JUMP JUMPDEST PUSH2 0x1BFD DUP3 DUP3 DUP6 PUSH2 0x1B39 JUMP JUMPDEST PUSH1 0x0 PUSH1 0x20 SWAP1 POP PUSH1 0x1F DUP4 GT PUSH1 0x1 DUP2 EQ PUSH2 0x1C30 JUMPI PUSH1 0x0 DUP5 ISZERO PUSH2 0x1C1E JUMPI DUP3 DUP8 ADD MLOAD SWAP1 POP JUMPDEST PUSH2 0x1C28 DUP6 DUP3 PUSH2 0x1BAA JUMP JUMPDEST DUP7 SSTORE POP PUSH2 0x1C90 JUMP JUMPDEST PUSH1 0x1F NOT DUP5 AND PUSH2 0x1C3E DUP7 PUSH2 0x1A1A JUMP JUMPDEST PUSH1 0x0 JUMPDEST DUP3 DUP2 LT ISZERO PUSH2 0x1C66 JUMPI DUP5 DUP10 ADD MLOAD DUP3 SSTORE PUSH1 0x1 DUP3 ADD SWAP2 POP PUSH1 0x20 DUP6 ADD SWAP5 POP PUSH1 0x20 DUP2 ADD SWAP1 POP PUSH2 0x1C41 JUMP JUMPDEST DUP7 DUP4 LT ISZERO PUSH2 0x1C83 JUMPI DUP5 DUP10 ADD MLOAD PUSH2 0x1C7F PUSH1 0x1F DUP10 AND DUP3 PUSH2 0x1B8C JUMP JUMPDEST DUP4 SSTORE POP JUMPDEST PUSH1 0x1 PUSH1 0x2 DUP9 MUL ADD DUP9 SSTORE POP POP POP JUMPDEST POP POP POP POP POP POP JUMP JUMPDEST PUSH32 0x4E487B7100000000000000000000000000000000000000000000000000000000 PUSH1 0x0 MSTORE PUSH1 0x11 PUSH1 0x4 MSTORE PUSH1 0x24 PUSH1 0x0 REVERT JUMPDEST PUSH1 0x0 PUSH2 0x1CD2 DUP3 PUSH2 0x10BA JUMP JUMPDEST SWAP2 POP PUSH2 0x1CDD DUP4 PUSH2 0x10BA JUMP JUMPDEST SWAP3 POP DUP3 DUP3 SUB SWAP1 POP DUP2 DUP2 GT ISZERO PUSH2 0x1CF5 JUMPI PUSH2 0x1CF4 PUSH2 0x1C98 JUMP JUMPDEST JUMPDEST SWAP3 SWAP2 POP POP JUMP JUMPDEST PUSH1 0x0 DUP2 SLOAD SWAP1 POP PUSH2 0x1D0A DUP2 PUSH2 0x194E JUMP JUMPDEST SWAP1 POP SWAP2 SWAP1 POP JUMP JUMPDEST DUP2 DUP2 SUB PUSH2 0x1D1F JUMPI POP POP PUSH2 0x1DF7 JUMP JUMPDEST PUSH2 0x1D28 DUP3 PUSH2 0x1CFB JUMP JUMPDEST PUSH8 0xFFFFFFFFFFFFFFFF DUP2 GT ISZERO PUSH2 0x1D41 JUMPI PUSH2 0x1D40 PUSH2 0x1303 JUMP JUMPDEST JUMPDEST PUSH2 0x1D4B DUP3 SLOAD PUSH2 0x194E JUMP JUMPDEST PUSH2 0x1D56 DUP3 DUP3 DUP6 PUSH2 0x1B39 JUMP JUMPDEST PUSH1 0x0 PUSH1 0x1F DUP4 GT PUSH1 0x1 DUP2 EQ PUSH2 0x1D85 JUMPI PUSH1 0x0 DUP5 ISZERO PUSH2 0x1D73 JUMPI DUP3 DUP8 ADD SLOAD SWAP1 POP JUMPDEST PUSH2 0x1D7D DUP6 DUP3 PUSH2 0x1BAA JUMP JUMPDEST DUP7 SSTORE POP PUSH2 0x1DF0 JUMP JUMPDEST PUSH1 0x1F NOT DUP5 AND PUSH2 0x1D93 DUP8 PUSH2 0x1A1A JUMP JUMPDEST SWAP7 POP PUSH2 0x1D9E DUP7 PUSH2 0x1A1A JUMP JUMPDEST PUSH1 0x0 JUMPDEST DUP3 DUP2 LT ISZERO PUSH2 0x1DC6 JUMPI DUP5 DUP10 ADD SLOAD DUP3 SSTORE PUSH1 0x1 DUP3 ADD SWAP2 POP PUSH1 0x1 DUP6 ADD SWAP5 POP PUSH1 0x20 DUP2 ADD SWAP1 POP PUSH2 0x1DA1 JUMP JUMPDEST DUP7 DUP4 LT ISZERO PUSH2 0x1DE3 JUMPI DUP5 DUP10 ADD SLOAD PUSH2 0x1DDF PUSH1 0x1F DUP10 AND DUP3 PUSH2 0x1B8C JUMP JUMPDEST DUP4 SSTORE POP JUMPDEST PUSH1 0x1 PUSH1 0x2 DUP9 MUL ADD DUP9 SSTORE POP POP POP JUMPDEST POP POP POP POP POP POP JUMPDEST JUMP JUMPDEST PUSH32 0x4E487B7100000000000000000000000000000000000000000000000000000000 PUSH1 0x0 MSTORE PUSH1 0x31 PUSH1 0x4 MSTORE PUSH1 0x24 PUSH1 0x0 REVERT JUMPDEST PUSH1 0x0 PUSH2 0x1E33 DUP3 PUSH2 0x10BA JUMP JUMPDEST SWAP2 POP PUSH2 0x1E3E DUP4 PUSH2 0x10BA JUMP JUMPDEST SWAP3 POP DUP3 DUP3 ADD SWAP1 POP DUP1 DUP3 GT ISZERO PUSH2 0x1E56 JUMPI PUSH2 0x1E55 PUSH2 0x1C98 JUMP JUMPDEST JUMPDEST SWAP3 SWAP2 POP POP JUMP INVALID LOG2 PUSH5 0x6970667358 0x22 SLT KECCAK256 0xA8 ADDRESS DUP10 0xE8 PUSH16 0x957D682A6028D4A4034A69AB041FA58D 0xB0 0xD0 SLOAD 0xC2 0xDC PUSH3 0xBBC076 DUP16 0xB1 PUSH5 0x736F6C6343 STOP ADDMOD 0x1E STOP CALLER "
        },
        "methodIdentifiers": {
          "another_registration((uint256,string,string,uint256,uint8))": "daeb3821",
          "delete_student(uint256)": "3f09a538",
          "get_all_students()": "3ab9a9ec",
          "get_student_by_address(address)": "c26294ba",
          "get_student_by_id(uint256)": "8f3354fe",
          "register_student(string,string,uint256)": "c9b72927",
          "students(uint256)": "06ead22e",
          "studentsByAddress(address)": "73cc1048",
          "update_student(uint256,string)": "2773a286",
          "update_students_status(uint256,uint8)": "15c5f3e3"
        }
      }
    }
  }
}