{"abi":[{"type":"constructor","inputs":[{"name":"name_","type":"string","internalType":"string"},{"name":"symbol_","type":"string","internalType":"string"},{"name":"decimals_","type":"uint8","internalType":"uint8"}],"stateMutability":"nonpayable"},{"type":"function","name":"balanceOf","inputs":[{"name":"","type":"address","internalType":"address"}],"outputs":[{"name":"","type":"uint256","internalType":"uint256"}],"stateMutability":"view"},{"type":"function","name":"decimals","inputs":[],"outputs":[{"name":"","type":"uint8","internalType":"uint8"}],"stateMutability":"view"},{"type":"function","name":"mint","inputs":[{"name":"to","type":"address","internalType":"address"},{"name":"amount","type":"uint256","internalType":"uint256"}],"outputs":[],"stateMutability":"nonpayable"},{"type":"function","name":"name","inputs":[],"outputs":[{"name":"","type":"string","internalType":"string"}],"stateMutability":"view"},{"type":"function","name":"symbol","inputs":[],"outputs":[{"name":"","type":"string","internalType":"string"}],"stateMutability":"view"},{"type":"function","name":"totalSupply","inputs":[],"outputs":[{"name":"","type":"uint256","internalType":"uint256"}],"stateMutability":"view"},{"type":"function","name":"transfer","inputs":[{"name":"to","type":"address","internalType":"address"},{"name":"amount","type":"uint256","internalType":"uint256"}],"outputs":[{"name":"","type":"bool","internalType":"bool"}],"stateMutability":"nonpayable"},{"type":"event","name":"Transfer","inputs":[{"name":"from","type":"address","indexed":true,"internalType":"address"},{"name":"to","type":"address","indexed":true,"internalType":"address"},{"name":"value","type":"uint256","indexed":false,"internalType":"uint256"}],"anonymous":false}],"bytecode":{"object":"0x608060405234801561000f575f5ffd5b50604051610dec380380610dec833981810160405281019061003191906101f5565b825f908161003f919061048d565b50816001908161004f919061048d565b508060025f6101000a81548160ff021916908360ff16021790555050505061055c565b5f604051905090565b5f5ffd5b5f5ffd5b5f5ffd5b5f5ffd5b5f601f19601f8301169050919050565b7f4e487b71000000000000000000000000000000000000000000000000000000005f52604160045260245ffd5b6100d18261008b565b810181811067ffffffffffffffff821117156100f0576100ef61009b565b5b80604052505050565b5f610102610072565b905061010e82826100c8565b919050565b5f67ffffffffffffffff82111561012d5761012c61009b565b5b6101368261008b565b9050602081019050919050565b8281835e5f83830152505050565b5f61016361015e84610113565b6100f9565b90508281526020810184848401111561017f5761017e610087565b5b61018a848285610143565b509392505050565b5f82601f8301126101a6576101a5610083565b5b81516101b6848260208601610151565b91505092915050565b5f60ff82169050919050565b6101d4816101bf565b81146101de575f5ffd5b50565b5f815190506101ef816101cb565b92915050565b5f5f5f6060848603121561020c5761020b61007b565b5b5f84015167ffffffffffffffff8111156102295761022861007f565b5b61023586828701610192565b935050602084015167ffffffffffffffff8111156102565761025561007f565b5b61026286828701610192565b9250506040610273868287016101e1565b9150509250925092565b5f81519050919050565b7f4e487b71000000000000000000000000000000000000000000000000000000005f52602260045260245ffd5b5f60028204905060018216806102cb57607f821691505b6020821081036102de576102dd610287565b5b50919050565b5f819050815f5260205f209050919050565b5f6020601f8301049050919050565b5f82821b905092915050565b5f600883026103407fffffffffffffffffffffffffffffffffffffffffffffffffffffffffffffffff82610305565b61034a8683610305565b95508019841693508086168417925050509392505050565b5f819050919050565b5f819050919050565b5f61038e61038961038484610362565b61036b565b610362565b9050919050565b5f819050919050565b6103a783610374565b6103bb6103b382610395565b848454610311565b825550505050565b5f5f905090565b6103d26103c3565b6103dd81848461039e565b505050565b5b81811015610400576103f55f826103ca565b6001810190506103e3565b5050565b601f82111561044557610416816102e4565b61041f846102f6565b8101602085101561042e578190505b61044261043a856102f6565b8301826103e2565b50505b505050565b5f82821c905092915050565b5f6104655f198460080261044a565b1980831691505092915050565b5f61047d8383610456565b9150826002028217905092915050565b6104968261027d565b67ffffffffffffffff8111156104af576104ae61009b565b5b6104b982546102b4565b6104c4828285610404565b5f60209050601f8311600181146104f5575f84156104e3578287015190505b6104ed8582610472565b865550610554565b601f198416610503866102e4565b5f5b8281101561052a57848901518255600182019150602085019450602081019050610505565b868310156105475784890151610543601f891682610456565b8355505b6001600288020188555050505b505050505050565b610883806105695f395ff3fe608060405234801561000f575f5ffd5b506004361061007b575f3560e01c806340c10f191161005957806340c10f19146100d957806370a08231146100f557806395d89b4114610125578063a9059cbb146101435761007b565b806306fdde031461007f57806318160ddd1461009d578063313ce567146100bb575b5f5ffd5b610087610173565b604051610094919061057f565b60405180910390f35b6100a56101fe565b6040516100b291906105b7565b60405180910390f35b6100c3610204565b6040516100d091906105eb565b60405180910390f35b6100f360048036038101906100ee919061068c565b610216565b005b61010f600480360381019061010a91906106ca565b6102ea565b60405161011c91906105b7565b60405180910390f35b61012d6102ff565b60405161013a919061057f565b60405180910390f35b61015d6004803603810190610158919061068c565b61038b565b60405161016a919061070f565b60405180910390f35b5f805461017f90610755565b80601f01602080910402602001604051908101604052809291908181526020018280546101ab90610755565b80156101f65780601f106101cd576101008083540402835291602001916101f6565b820191905f5260205f20905b8154815290600101906020018083116101d957829003601f168201915b505050505081565b60035481565b60025f9054906101000a900460ff1681565b8060035f82825461022791906107b2565b925050819055508060045f8473ffffffffffffffffffffffffffffffffffffffff1673ffffffffffffffffffffffffffffffffffffffff1681526020019081526020015f205f82825461027a91906107b2565b925050819055508173ffffffffffffffffffffffffffffffffffffffff165f73ffffffffffffffffffffffffffffffffffffffff167fddf252ad1be2c89b69c2b068fc378daa952ba7f163c4a11628f55a4df523b3ef836040516102de91906105b7565b60405180910390a35050565b6004602052805f5260405f205f915090505481565b6001805461030c90610755565b80601f016020809104026020016040519081016040528092919081815260200182805461033890610755565b80156103835780601f1061035a57610100808354040283529160200191610383565b820191905f5260205f20905b81548152906001019060200180831161036657829003601f168201915b505050505081565b5f8160045f3373ffffffffffffffffffffffffffffffffffffffff1673ffffffffffffffffffffffffffffffffffffffff1681526020019081526020015f2054101561040c576040517f08c379a00000000000000000000000000000000000000000000000000000000081526004016104039061082f565b60405180910390fd5b8160045f3373ffffffffffffffffffffffffffffffffffffffff1673ffffffffffffffffffffffffffffffffffffffff1681526020019081526020015f205f82825403925050819055508160045f8573ffffffffffffffffffffffffffffffffffffffff1673ffffffffffffffffffffffffffffffffffffffff1681526020019081526020015f205f82825401925050819055508273ffffffffffffffffffffffffffffffffffffffff163373ffffffffffffffffffffffffffffffffffffffff167fddf252ad1be2c89b69c2b068fc378daa952ba7f163c4a11628f55a4df523b3ef846040516104fd91906105b7565b60405180910390a36001905092915050565b5f81519050919050565b5f82825260208201905092915050565b8281835e5f83830152505050565b5f601f19601f8301169050919050565b5f6105518261050f565b61055b8185610519565b935061056b818560208601610529565b61057481610537565b840191505092915050565b5f6020820190508181035f8301526105978184610547565b905092915050565b5f819050919050565b6105b18161059f565b82525050565b5f6020820190506105ca5f8301846105a8565b92915050565b5f60ff82169050919050565b6105e5816105d0565b82525050565b5f6020820190506105fe5f8301846105dc565b92915050565b5f5ffd5b5f73ffffffffffffffffffffffffffffffffffffffff82169050919050565b5f61063182610608565b9050919050565b61064181610627565b811461064b575f5ffd5b50565b5f8135905061065c81610638565b92915050565b61066b8161059f565b8114610675575f5ffd5b50565b5f8135905061068681610662565b92915050565b5f5f604083850312156106a2576106a1610604565b5b5f6106af8582860161064e565b92505060206106c085828601610678565b9150509250929050565b5f602082840312156106df576106de610604565b5b5f6106ec8482850161064e565b91505092915050565b5f8115159050919050565b610709816106f5565b82525050565b5f6020820190506107225f830184610700565b92915050565b7f4e487b71000000000000000000000000000000000000000000000000000000005f52602260045260245ffd5b5f600282049050600182168061076c57607f821691505b60208210810361077f5761077e610728565b5b50919050565b7f4e487b71000000000000000000000000000000000000000000000000000000005f52601160045260245ffd5b5f6107bc8261059f565b91506107c78361059f565b92508282019050808211156107df576107de610785565b5b92915050565b7f62616c00000000000000000000000000000000000000000000000000000000005f82015250565b5f610819600383610519565b9150610824826107e5565b602082019050919050565b5f6020820190508181035f8301526108468161080d565b905091905056fea264697066735822122031601ff1d4520415e6c88a41490085a2df2691091e9361621f1a725717b920e964736f6c634300081c0033","linkReferences":{}},"methodIdentifiers":{"balanceOf(address)":"70a08231","decimals()":"313ce567","mint(address,uint256)":"40c10f19","name()":"06fdde03","symbol()":"95d89b41","totalSupply()":"18160ddd","transfer(address,uint256)":"a9059cbb"},"id":4}