{"abi":[{"type":"constructor","inputs":[{"name":"_ticketNFT","type":"address","internalType":"address"}],"stateMutability":"nonpayable"},{"type":"function","name":"createEvent","inputs":[{"name":"title","type":"string","internalType":"string"},{"name":"description","type":"string","internalType":"string"},{"name":"startDate","type":"uint256","internalType":"uint256"},{"name":"endDate","type":"uint256","internalType":"uint256"},{"name":"ticketPrice","type":"uint256","internalType":"uint256"},{"name":"eventBanner","type":"string","internalType":"string"},{"name":"eventType","type":"uint8","internalType":"enum EventContract.EventType"},{"name":"totalTickets","type":"uint256","internalType":"uint256"},{"name":"eventUri","type":"string","internalType":"string"},{"name":"paymentToken","type":"address","internalType":"address"}],"outputs":[{"name":"","type":"address","internalType":"address"}],"stateMutability":"nonpayable"},{"type":"function","name":"eventCount","inputs":[],"outputs":[{"name":"","type":"uint256","internalType":"uint256"}],"stateMutability":"view"},{"type":"function","name":"events","inputs":[{"name":"","type":"uint256","internalType":"uint256"}],"outputs":[{"name":"","type":"address","internalType":"address"}],"stateMutability":"view"},{"type":"function","name":"ticketNFT","inputs":[],"outputs":[{"name":"","type":"address","internalType":"contract TicketNFT"}],"stateMutability":"view"},{"type":"event","name":"EventCreated","inputs":[{"name":"eventId","type":"uint256","indexed":true,"internalType":"uint256"},{"name":"eventContract","type":"address","indexed":false,"internalType":"address"}],"anonymous":false}],"bytecode":{"object":"0x60806040523461002f576100196100146100f4565b61019b565b610021610034565b6129606101b0823961296090f35b61003a565b60405190565b5f80fd5b601f801991011690565b634e487b7160e01b5f52604160045260245ffd5b906100669061003e565b810190811060018060401b0382111761007e57604052565b610048565b9061009661008f610034565b928361005c565b565b5f80fd5b60018060a01b031690565b6100b09061009c565b90565b6100bc816100a7565b036100c357565b5f80fd5b905051906100d4826100b3565b565b906020828203126100ef576100ec915f016100c7565b90565b610098565b610112612b108038038061010781610083565b9283398101906100d6565b90565b90565b61012c6101276101319261009c565b610115565b61009c565b90565b61013d90610118565b90565b61014990610134565b90565b5f1b90565b9061016260018060a01b039161014c565b9181191691161790565b61017590610134565b90565b90565b9061019061018b6101979261016c565b610178565b8254610151565b9055565b6101a76101ad91610140565b5f61017b565b56fe60806040526004361015610013575b61057c565b61001d5f3561005c565b80630b7914301461005757806352a1f4921461005257806371be2e4a1461004d5763b393391b0361000e57610547565b61047d565b6103d2565b610174565b60e01c90565b60405190565b5f80fd5b5f80fd5b5f80fd5b90565b61008081610074565b0361008757565b5f80fd5b9050359061009882610077565b565b906020828203126100b3576100b0915f0161008b565b90565b61006c565b90565b6100cf6100ca6100d492610074565b6100b8565b610074565b90565b906100e1906100bb565b5f5260205260405f2090565b1c90565b60018060a01b031690565b61010c90600861011193026100ed565b6100f1565b90565b9061011f91546100fc565b90565b610138906101336002915f926100d7565b610114565b90565b60018060a01b031690565b61014f9061013b565b90565b61015b90610146565b9052565b9190610172905f60208501940190610152565b565b346101a4576101a061018f61018a36600461009a565b610122565b610197610062565b9182918261015f565b0390f35b610068565b5f80fd5b5f80fd5b601f801991011690565b634e487b7160e01b5f52604160045260245ffd5b906101d9906101b1565b810190811067ffffffffffffffff8211176101f357604052565b6101bb565b9061020b610204610062565b92836101cf565b565b67ffffffffffffffff811161022b576102276020916101b1565b0190565b6101bb565b90825f939282370152565b9092919261025061024b8261020d565b6101f8565b9381855260208501908284011161026c5761026a92610230565b565b6101ad565b9080601f8301121561028f5781602061028c9335910161023b565b90565b6101a9565b6002111561029e57565b5f80fd5b905035906102af82610294565b565b6102ba81610146565b036102c157565b5f80fd5b905035906102d2826102b1565b565b610140818303126103cd575f81013567ffffffffffffffff81116103c857826102fe918301610271565b92602082013567ffffffffffffffff81116103c3578361031f918401610271565b9261032d816040850161008b565b9261033b826060830161008b565b92610349836080840161008b565b9260a083013567ffffffffffffffff81116103be578161036a918501610271565b926103788260c083016102a2565b926103868360e0840161008b565b926101008301359067ffffffffffffffff82116103b9576103ac816103b6938601610271565b93610120016102c5565b90565b610070565b610070565b610070565b610070565b61006c565b3461040f5761040b6103fa6103e83660046102d4565b98979097969196959295949394610841565b610402610062565b9182918261015f565b0390f35b610068565b5f91031261041e57565b61006c565b90565b61043690600861043b93026100ed565b610423565b90565b906104499154610426565b90565b61045860015f9061043e565b90565b61046490610074565b9052565b919061047b905f6020850194019061045b565b565b346104ad5761048d366004610414565b6104a961049861044c565b6104a0610062565b91829182610468565b0390f35b610068565b60018060a01b031690565b6104cd9060086104d293026100ed565b6104b2565b90565b906104e091546104bd565b90565b6104ee5f5f906104d5565b90565b61050561050061050a9261013b565b6100b8565b61013b565b90565b610516906104f1565b90565b6105229061050d565b90565b61052e90610519565b9052565b9190610545905f60208501940190610525565b565b3461057757610557366004610414565b6105736105626104e3565b61056a610062565b91829182610532565b0390f35b610068565b5f80fd5b5f90565b5f1c90565b61059561059a91610584565b610423565b90565b6105a79054610589565b90565b634e487b7160e01b5f52601160045260245ffd5b6105c790610074565b5f1981146105d55760010190565b6105aa565b5f1b90565b906105eb5f19916105da565b9181191691161790565b90565b9061060d610608610614926100bb565b6105f5565b82546105df565b9055565b61062461062991610584565b6104b2565b90565b6106369054610618565b90565b5190565b60209181520190565b90825f9392825e0152565b61067061067960209361067e9361066781610639565b9384809361063d565b95869101610646565b6101b1565b0190565b634e487b7160e01b5f52602160045260245ffd5b600211156106a057565b610682565b906106af82610696565b565b6106ba906106a5565b90565b6106c6906106b1565b9052565b97610756610785989b9e9d9b61074c61074161078c9f9a9761077a9a6101609f988f929861076e9c6107266107609b61071c610733956107126101808a01965f8b019061045b565b6020890190610152565b6040870190610152565b8482036060860152610651565b916080818403910152610651565b9660a08d019061045b565b60c08b019061045b565b60e089019061045b565b868203610100880152610651565b986101208501906106bd565b61014083019061045b565b0190610152565b565b610796610062565b3d5f823e3d90fd5b6107a79061050d565b90565b5f80fd5b60e01b90565b5f9103126107be57565b61006c565b6107e76107f49492936107dd60608401955f85019061045b565b6020830190610152565b6040818403910152610651565b90565b9061080860018060a01b03916105da565b9181191691161790565b61081b9061050d565b90565b90565b9061083661083161083d92610812565b61081e565b82546107f7565b9055565b96919498929590939798610853610580565b50610866610861600161059d565b6105be565b6108718160016105f8565b9889976108856108805f61062c565b610519565b97339a979091929394959697610899610062565b9b611f3d8d019a8d8c1067ffffffffffffffff8d11176109e8578d9c6108c89c8e611f3d906109ee90396106ca565b03905ff080156109e357906108e46108df5f61062c565b610519565b6306e0e65b9082906108f58561079e565b9592813b156109de575f61091c916109278296610910610062565b9a8b97889687956107ae565b8552600485016107c3565b03925af19283156109d9576109aa936109ad575b506109596109488361079e565b610954600284906100d7565b610821565b6109628261079e565b906109a26109907fe43349c008949cf6b65249356e6f918d4aaa0ca79f2b1166df4a4a98c9c16de2926100bb565b92610999610062565b9182918261015f565b0390a261079e565b90565b6109cc905f3d81116109d2575b6109c481836101cf565b8101906107b4565b5f61093b565b503d6109ba565b61078e565b6107aa565b61078e565b6101bb56fe60806040523461003f576100296100146102b9565b9a999099989198979297969396959495610892565b610031610044565b6115bb61098282396115bb90f35b61004a565b60405190565b5f80fd5b601f801991011690565b634e487b7160e01b5f52604160045260245ffd5b906100769061004e565b810190811060018060401b0382111761008e57604052565b610058565b906100a661009f610044565b928361006c565b565b5f80fd5b5f80fd5b90565b6100bc816100b0565b036100c357565b5f80fd5b905051906100d4826100b3565b565b60018060a01b031690565b6100ea906100d6565b90565b6100f6816100e1565b036100fd57565b5f80fd5b9050519061010e826100ed565b565b5f80fd5b5f80fd5b60018060401b0381116101345761013060209161004e565b0190565b610058565b90825f9392825e0152565b9092919261015961015482610118565b610093565b938185526020850190828401116101755761017392610139565b565b610114565b9080601f830112156101985781602061019593519101610144565b90565b610110565b600211156101a757565b5f80fd5b905051906101b88261019d565b565b9091610180828403126102b4576101d3835f84016100c7565b926101e18160208501610101565b926101ef8260408301610101565b92606082015160018060401b0381116102af578361020e91840161017a565b92608083015160018060401b0381116102aa578161022d91850161017a565b9261023b8260a083016100c7565b926102498360c084016100c7565b926102578160e085016100c7565b9261010081015160018060401b0381116102a5578261027791830161017a565b926102a26102898461012085016101ab565b936102988161014086016100c7565b9361016001610101565b90565b6100ac565b6100ac565b6100ac565b6100a8565b6102d7611f3d803803806102cc81610093565b9283398101906101ba565b909192939495969798999a9b565b5f1b90565b906102f65f19916102e5565b9181191691161790565b90565b61031761031261031c926100b0565b610300565b6100b0565b90565b90565b9061033761033261033e92610303565b61031f565b82546102ea565b9055565b61035661035161035b926100d6565b610300565b6100d6565b90565b61036790610342565b90565b6103739061035e565b90565b9061038760018060a01b03916102e5565b9181191691161790565b61039a9061035e565b90565b90565b906103b56103b06103bc92610391565b61039d565b8254610376565b9055565b6103c990610342565b90565b6103d5906103c0565b90565b90565b906103f06103eb6103f7926103cc565b6103d8565b8254610376565b9055565b610406610140610093565b90565b52565b90610416906100b0565b9052565b90610424906100e1565b9052565b634e487b7160e01b5f52602160045260245ffd5b6002111561044657565b610428565b906104558261043c565b565b906104619061044b565b9052565b6004111561046f57565b610428565b9061047e82610465565b565b9061048a90610474565b9052565b5190565b5190565b634e487b7160e01b5f52602260045260245ffd5b90600160028304921680156104ca575b60208310146104c557565b610496565b91607f16916104ba565b5f5260205f2090565b601f602091010490565b1b90565b919060086105069102916105005f19846104e7565b926104e7565b9181191691161790565b919061052661052161052e93610303565b61031f565b9083546104eb565b9055565b5f90565b61054891610542610532565b91610510565b565b5b818110610556575050565b806105635f600193610536565b0161054b565b9190601f8111610579575b505050565b6105856105aa936104d4565b906020610591846104dd565b830193106105b2575b6105a3906104dd565b019061054a565b5f8080610574565b91506105a38192905061059a565b1c90565b906105d4905f19906008026105c0565b191690565b816105e3916105c4565b906002021790565b906105f581610492565b9060018060401b0382116106b3576106178261061185546104aa565b85610569565b602090601f831160011461064b5791809161063a935f9261063f575b50506105d9565b90555b565b90915001515f80610633565b601f1983169161065a856104d4565b925f5b81811061069b57509160029391856001969410610681575b5050500201905561063d565b610691910151601f8416906105c4565b90555f8080610675565b9193602060018192878701518155019501920161065d565b610058565b906106c2916105eb565b565b6106ce90516100b0565b90565b6106db90516100e1565b90565b6106e8905161044b565b90565b906106f760ff916102e5565b9181191691161790565b61070a9061044b565b90565b90565b9061072561072061072c92610701565b61070d565b82546106eb565b9055565b61073a9051610474565b90565b60081b90565b9061075061ff009161073d565b9181191691161790565b61076390610474565b90565b90565b9061077e6107796107859261075a565b610766565b8254610743565b9055565b9061087e6101206008610884946107ad5f82016107a75f880161048e565b906106b8565b6107c6600182016107c06020880161048e565b906106b8565b6107df600282016107d9604088016106c4565b90610322565b6107f8600382016107f2606088016106c4565b90610322565b6108116004820161080b608088016106d1565b906103db565b61082a6005820161082460a088016106c4565b90610322565b6108436006820161083d60c0880161048e565b906106b8565b61085c6007820161085660e088016106de565b90610710565b610876600782016108706101008801610730565b90610769565b0192016106c4565b90610322565b565b9061089091610789565b565b9a91939a99989694999795976108a8905f610322565b6108b19061036a565b6108bc9060016103a0565b826108c89060026103db565b6108d39060046103db565b97969490919293945f96976108e66103fb565b995f8b01906108f491610409565b60208a019061090291610409565b60408901906109109161040c565b606088019061091e9161040c565b608087019061092c9161041a565b60a086019061093a9161040c565b60c085019061094891610409565b60e084019061095691610457565b61010083019061096591610480565b6101208201906109749161040c565b61097f906005610886565b56fe60806040526004361015610013575b6108da565b61001d5f356100bc565b8063089cdd0c146100b75780632e49d78b146100b25780633013ce29146100ad5780633ccfd60b146100a857806361203265146100a35780638f15024f1461009e578063b1b410f514610099578063b393391b14610094578063dba1e8ae1461008f5763edf47d670361000e576108b1565b61087e565b610808565b61072d565b61031b565b6102d7565b610295565b610260565b6101b4565b61013f565b60e01c90565b60405190565b5f80fd5b5f80fd5b5f9103126100da57565b6100cc565b1c90565b90565b6100f69060086100fb93026100df565b6100e3565b90565b9061010991546100e6565b90565b6101175f5f906100fe565b90565b90565b6101269061011a565b9052565b919061013d905f6020850194019061011d565b565b3461016f5761014f3660046100d0565b61016b61015a61010c565b6101626100c2565b9182918261012a565b0390f35b6100c8565b6004111561017e57565b5f80fd5b9050359061018f82610174565b565b906020828203126101aa576101a7915f01610182565b90565b6100cc565b5f0190565b346101e2576101cc6101c7366004610191565b61092a565b6101d46100c2565b806101de816101af565b0390f35b6100c8565b60018060a01b031690565b61020290600861020793026100df565b6101e7565b90565b9061021591546101f2565b90565b61022460045f9061020a565b90565b60018060a01b031690565b61023b90610227565b90565b61024790610232565b9052565b919061025e905f6020850194019061023e565b565b34610290576102703660046100d0565b61028c61027b610218565b6102836100c2565b9182918261024b565b0390f35b6100c8565b346102c3576102a53660046100d0565b6102ad610ac2565b6102b56100c2565b806102bf816101af565b0390f35b6100c8565b6102d460025f9061020a565b90565b34610307576102e73660046100d0565b6103036102f26102c8565b6102fa6100c2565b9182918261024b565b0390f35b6100c8565b61031860035f906100fe565b90565b3461034b5761032b3660046100d0565b61034761033661030c565b61033e6100c2565b9182918261012a565b0390f35b6100c8565b634e487b7160e01b5f52602260045260245ffd5b9060016002830492168015610384575b602083101461037f57565b610350565b91607f1691610374565b60209181520190565b5f5260205f2090565b905f92918054906103ba6103b383610364565b809461038e565b916001811690815f1461041157506001146103d5575b505050565b6103e29192939450610397565b915f925b8184106103f957505001905f80806103d0565b600181602092959395548486015201910192906103e6565b92949550505060ff19168252151560200201905f80806103d0565b90610436916103a0565b90565b601f801991011690565b634e487b7160e01b5f52604160045260245ffd5b9061046190610439565b810190811067ffffffffffffffff82111761047b57604052565b610443565b906104a0610499926104906100c2565b9384809261042c565b0383610457565b565b5f1c90565b6104b36104b8916104a2565b6100e3565b90565b6104c590546104a7565b90565b6104d46104d9916104a2565b6101e7565b90565b6104e690546104c8565b90565b60ff1690565b6104fb610500916104a2565b6104e9565b90565b61050d90546104ef565b90565b60081c90565b60ff1690565b61052861052d91610510565b610516565b90565b61053a905461051c565b90565b60059061054b5f8301610480565b9161055860018201610480565b91610565600283016104bb565b91610572600382016104bb565b9161057f600483016104dc565b9161058c600582016104bb565b9161059960068301610480565b916105a660078201610503565b916105bf60086105b860078501610530565b93016104bb565b90565b5190565b60209181520190565b90825f9392825e0152565b6105f9610602602093610607936105f0816105c2565b938480936105c6565b958691016105cf565b610439565b0190565b634e487b7160e01b5f52602160045260245ffd5b6002111561062957565b61060b565b906106388261061f565b565b6106439061062e565b90565b61064f9061063a565b9052565b6004111561065d57565b61060b565b9061066c82610653565b565b61067790610662565b90565b6106839061066e565b9052565b9596610701610120986106f7610724989b9e9d9b6106ed61072b9e996106e36107199a60408f9a61070e9c6106cc8d6106db936101408201915f8184039101526105da565b908d60208184039101526105da565b9a019061011d565b60608d019061011d565b60808b019061023e565b60a089019061011d565b86820360c08801526105da565b9860e0850190610646565b61010083019061067a565b019061011d565b565b3461076a5761073d3660046100d0565b61076661074861053d565b9661075d9a989a9691969592959493946100c2565b9a8b9a8b610687565b0390f35b6100c8565b60018060a01b031690565b61078a90600861078f93026100df565b61076f565b90565b9061079d915461077a565b90565b6107ac60015f90610792565b90565b90565b6107c66107c16107cb92610227565b6107af565b610227565b90565b6107d7906107b2565b90565b6107e3906107ce565b90565b6107ef906107da565b9052565b9190610806905f602085019401906107e6565b565b34610838576108183660046100d0565b6108346108236107a0565b61082b6100c2565b918291826107f3565b0390f35b6100c8565b6108468161011a565b0361084d57565b5f80fd5b9050359061085e8261083d565b565b9060208282031261087957610876915f01610851565b90565b6100cc565b346108ac57610896610891366004610860565b610ed4565b61089e6100c2565b806108a8816101af565b0390f35b6100c8565b6108c46108bf366004610860565b61134e565b6108cc6100c2565b806108d6816101af565b0390f35b5f80fd5b60081b90565b906108f161ff00916108de565b9181191691161790565b61090490610662565b90565b90565b9061091f61091a610926926108fb565b610907565b82546108e4565b9055565b3361094661094061093b60026104dc565b610232565b91610232565b0361095b5761095990600760050161090a565b565b5f6323d03a7160e21b815280610973600482016101af565b0390fd5b90565b61098e61098961099392610977565b6107af565b610227565b90565b61099f9061097a565b90565b6109ab906107b2565b90565b6109b7906109a2565b90565b6109c3906107ce565b90565b6109cf906107ce565b90565b5f80fd5b60e01b90565b905051906109e98261083d565b565b90602082820312610a0457610a01915f016109dc565b90565b6100cc565b610a116100c2565b3d5f823e3d90fd5b610a2d610a28610a3292610977565b6107af565b61011a565b90565b151590565b610a4381610a35565b03610a4a57565b5f80fd5b90505190610a5b82610a3a565b565b90602082820312610a7657610a73915f01610a4e565b90565b6100cc565b916020610a9c929493610a9560408201965f83019061023e565b019061011d565b565b610aa7906107b2565b90565b610ab390610a9e565b90565b610abf906107ce565b90565b33610ade610ad8610ad360026104dc565b610232565b91610232565b03610d0a57610af06007600501610503565b610b03610afd600161062e565b9161062e565b03610cee57610b1260046104dc565b610b2c610b26610b215f610996565b610232565b91610232565b145f14610b7b575f808080610b51610b4c610b4760026104dc565b610aaa565b610ab6565b610b5a306109c6565b3190828215610b72575bf115610b6d575b565b610a09565b506108fc610b64565b610b8d610b8860046104dc565b6109ae565b610bcd6020610b9b836109ba565b6370a0823190610bc2610bad306109c6565b92610bb66100c2565b958694859384936109d6565b83526004830161024b565b03915afa908115610ce9575f91610cbb575b509081610bf4610bee5f610a19565b9161011a565b11610c01575b5050610b6b565b610c0c6020916109ba565b9163a9059cbb92610c3a5f610c2160026104dc565b9395610c45610c2e6100c2565b978896879586946109d6565b845260048401610a7b565b03925af18015610cb657610c61915f91610c88575b5015610a35565b610c6c575f80610bfa565b5f63569e8c1160e01b815280610c84600482016101af565b0390fd5b610ca9915060203d8111610caf575b610ca18183610457565b810190610a5d565b5f610c5a565b503d610c97565b610a09565b610cdc915060203d8111610ce2575b610cd48183610457565b8101906109eb565b5f610bdf565b503d610cca565b610a09565b5f63640c875160e01b815280610d06600482016101af565b0390fd5b5f6323d03a7160e21b815280610d22600482016101af565b0390fd5b634e487b7160e01b5f52601160045260245ffd5b610d49610d4f9193929361011a565b9261011a565b8201809211610d5a57565b610d26565b610d6e610d749193929361011a565b9261011a565b91610d8083820261011a565b928184041490151715610d8f57565b610d26565b916020610db5929493610dae60408201965f83019061023e565b019061023e565b565b604090610de0610de79496959396610dd660608401985f85019061023e565b602083019061023e565b019061011d565b565b5f1b90565b90610dfa5f1991610de9565b9181191691161790565b610e18610e13610e1d9261011a565b6107af565b61011a565b90565b90565b90610e38610e33610e3f92610e04565b610e20565b8254610dee565b9055565b610e4f610e54916104a2565b61076f565b90565b610e619054610e43565b90565b5f910312610e6e57565b6100cc565b604090610e9c610ea39496959396610e9260608401985f85019061023e565b602083019061011d565b019061011d565b565b610eae906107ce565b90565b916020610ed2929493610ecb60408201965f83019061011d565b019061023e565b565b610ee16007600501610530565b610ef3610eed5f610662565b91610662565b141580611326575b61130a57610f13610f0c60036104bb565b8290610d3a565b610f31610f2b610f2660086005016104bb565b61011a565b9161011a565b116112ee57610f436007600501610503565b610f56610f50600161062e565b9161062e565b14611062575b610f79610f7282610f6d60036104bb565b610d3a565b6003610e23565b610f8b610f866001610e57565b6107da565b63156e29f633610f9a5f6104bb565b928492813b1561105d575f610fc291610fcd8296610fb66100c2565b988997889687956109d6565b855260048501610e73565b03925af180156110585761102c575b5033610fe860046104dc565b6110127f1da04c1b02057648c0a5ab384b68f07d8bd1eef9ef1917857ee32c1f2f022c8f92610ea5565b9261102761101e6100c2565b92839283610eb1565b0390a2565b61104b905f3d8111611051575b6110438183610457565b810190610e64565b5f610fdc565b503d611039565b610a09565b6109d2565b61106c60046104dc565b61108661108061107b5f610996565b610232565b91610232565b146112d2576110a161109a600580016104bb565b8290610d5f565b6110b36110ae60046104dc565b6109ae565b6110eb60206110c1836109ba565b6370a08231906110e033926110d46100c2565b958694859384936109d6565b83526004830161024b565b03915afa9081156112cd575f9161129f575b5061111061110a8461011a565b9161011a565b106112835761111e816109ba565b602063dd62ed3e91339061114c611134306109c6565b946111576111406100c2565b968795869485946109d6565b845260048401610d94565b03915afa90811561127e575f91611250575b5061117c6111768461011a565b9161011a565b106112345761118c6020916109ba565b6323b872dd906111b95f33936111c46111a4306109c6565b976111ad6100c2565b988997889687956109d6565b855260048501610db7565b03925af1801561122f576111e0915f91611201575b5015610a35565b15610f5c575f63569e8c1160e01b8152806111fd600482016101af565b0390fd5b611222915060203d8111611228575b61121a8183610457565b810190610a5d565b5f6111d9565b503d611210565b610a09565b5f63569e8c1160e01b81528061124c600482016101af565b0390fd5b611271915060203d8111611277575b6112698183610457565b8101906109eb565b5f611169565b503d61125f565b610a09565b5f63569e8c1160e01b81528061129b600482016101af565b0390fd5b6112c0915060203d81116112c6575b6112b88183610457565b8101906109eb565b5f6110fd565b503d6112ae565b610a09565b5f63569e8c1160e01b8152806112ea600482016101af565b0390fd5b5f6352df9fe560e01b815280611306600482016101af565b0390fd5b5f634065aaf160e11b815280611322600482016101af565b0390fd5b506113346007600501610530565b6113476113416001610662565b91610662565b1415610efb565b61135b6007600501610530565b61136d6113675f610662565b91610662565b14158061155d575b6115415761138d61138660036104bb565b8290610d3a565b6113ab6113a56113a060086005016104bb565b61011a565b9161011a565b11611525576113bd6007600501610503565b6113d06113ca600161062e565b9161062e565b146114db575b6113f36113ec826113e760036104bb565b610d3a565b6003610e23565b6114056114006001610e57565b6107da565b63156e29f6336114145f6104bb565b928492813b156114d6575f61143c9161144782966114306100c2565b988997889687956109d6565b855260048501610e73565b03925af180156114d1576114a5575b50336114615f610996565b61148b7f1da04c1b02057648c0a5ab384b68f07d8bd1eef9ef1917857ee32c1f2f022c8f92610ea5565b926114a06114976100c2565b92839283610eb1565b0390a2565b6114c4905f3d81116114ca575b6114bc8183610457565b810190610e64565b5f611456565b503d6114b2565b610a09565b6109d2565b346115036114fd6114f86114f1600580016104bb565b8590610d5f565b61011a565b9161011a565b03156113d6575f63569e8c1160e01b815280611521600482016101af565b0390fd5b5f6352df9fe560e01b81528061153d600482016101af565b0390fd5b5f634065aaf160e11b815280611559600482016101af565b0390fd5b5061156b6007600501610530565b61157e6115786001610662565b91610662565b141561137556fea264697066735822122096ad1e602c404a021f2a4cc65daebbc25ce4a66dccd7f86e0b451b402c73072264736f6c634300081e0033a2646970667358221220ec278c2e3aef2f85acc65a90ce5e9b56400896b54dbd4c589effae6fa879ca6a64736f6c634300081e0033","linkReferences":{}},"methodIdentifiers":{"createEvent(string,string,uint256,uint256,uint256,string,uint8,uint256,string,address)":"52a1f492","eventCount()":"71be2e4a","events(uint256)":"0b791430","ticketNFT()":"b393391b"},"id":19}