{
  "_format": "hh-sol-artifact-1",
  "contractName": "Web3garageManagement",
  "sourceName": "contracts/Web3garageManagement.sol",
  "abi": [
    {
      "inputs": [],
      "name": "EMPLOYEE_NOT_FOUND",
      "type": "error"
    },
    {
      "inputs": [],
      "name": "UNAUTHORIZED",
      "type": "error"
    },
    {
      "inputs": [
        {
          "internalType": "string",
          "name": "_name",
          "type": "string"
        },
        {
          "internalType": "enum Web3garageManagement.Role",
          "name": "_role",
          "type": "uint8"
        },
        {
          "internalType": "address",
          "name": "_address",
          "type": "address"
        }
      ],
      "name": "addEmployee",
      "outputs": [],
      "stateMutability": "nonpayable",
      "type": "function"
    },
    {
      "inputs": [
        {
          "internalType": "address",
          "name": "_address",
          "type": "address"
        }
      ],
      "name": "canAccessGarage",
      "outputs": [
        {
          "internalType": "bool",
          "name": "",
          "type": "bool"
        }
      ],
      "stateMutability": "view",
      "type": "function"
    },
    {
      "inputs": [
        {
          "internalType": "uint256",
          "name": "",
          "type": "uint256"
        }
      ],
      "name": "employees",
      "outputs": [
        {
          "internalType": "string",
          "name": "name",
          "type": "string"
        },
        {
          "internalType": "enum Web3garageManagement.Role",
          "name": "role",
          "type": "uint8"
        },
        {
          "internalType": "bool",
          "name": "isEmployed",
          "type": "bool"
        },
        {
          "internalType": "address",
          "name": "employeeAddress",
          "type": "address"
        }
      ],
      "stateMutability": "view",
      "type": "function"
    },
    {
      "inputs": [
        {
          "internalType": "address",
          "name": "",
          "type": "address"
        }
      ],
      "name": "employeesMap",
      "outputs": [
        {
          "internalType": "string",
          "name": "name",
          "type": "string"
        },
        {
          "internalType": "enum Web3garageManagement.Role",
          "name": "role",
          "type": "uint8"
        },
        {
          "internalType": "bool",
          "name": "isEmployed",
          "type": "bool"
        },
        {
          "internalType": "address",
          "name": "employeeAddress",
          "type": "address"
        }
      ],
      "stateMutability": "view",
      "type": "function"
    },
    {
      "inputs": [],
      "name": "getAllEmployee",
      "outputs": [
        {
          "components": [
            {
              "internalType": "string",
              "name": "name",
              "type": "string"
            },
            {
              "internalType": "enum Web3garageManagement.Role",
              "name": "role",
              "type": "uint8"
            },
            {
              "internalType": "bool",
              "name": "isEmployed",
              "type": "bool"
            },
            {
              "internalType": "address",
              "name": "employeeAddress",
              "type": "address"
            }
          ],
          "internalType": "struct Web3garageManagement.Employee[]",
          "name": "",
          "type": "tuple[]"
        }
      ],
      "stateMutability": "view",
      "type": "function"
    },
    {
      "inputs": [
        {
          "internalType": "address",
          "name": "_employeeAddress",
          "type": "address"
        }
      ],
      "name": "getEmployee",
      "outputs": [
        {
          "components": [
            {
              "internalType": "string",
              "name": "name",
              "type": "string"
            },
            {
              "internalType": "enum Web3garageManagement.Role",
              "name": "role",
              "type": "uint8"
            },
            {
              "internalType": "bool",
              "name": "isEmployed",
              "type": "bool"
            },
            {
              "internalType": "address",
              "name": "employeeAddress",
              "type": "address"
            }
          ],
          "internalType": "struct Web3garageManagement.Employee",
          "name": "",
          "type": "tuple"
        }
      ],
      "stateMutability": "view",
      "type": "function"
    },
    {
      "inputs": [
        {
          "internalType": "string",
          "name": "_name",
          "type": "string"
        },
        {
          "internalType": "address",
          "name": "_address",
          "type": "address"
        }
      ],
      "name": "updateEmployeeName",
      "outputs": [],
      "stateMutability": "nonpayable",
      "type": "function"
    },
    {
      "inputs": [
        {
          "internalType": "enum Web3garageManagement.Role",
          "name": "_role",
          "type": "uint8"
        },
        {
          "internalType": "address",
          "name": "_address",
          "type": "address"
        }
      ],
      "name": "updateEmployeeRole",
      "outputs": [],
      "stateMutability": "nonpayable",
      "type": "function"
    },
    {
      "inputs": [
        {
          "internalType": "address",
          "name": "_employeeAddress",
          "type": "address"
        }
      ],
      "name": "updateEmploymentStatus",
      "outputs": [],
      "stateMutability": "nonpayable",
      "type": "function"
    }
  ],
  "bytecode": "0x6080604052348015600f57600080fd5b506120948061001f6000396000f3fe608060405234801561001057600080fd5b50600436106100935760003560e01c80634739326b116100665780634739326b146101335780636cff9c7b1461016657806373856f9c146101845780638dfaaf3a146101a0578063b24e34c8146101bc57610093565b80630575b9c114610098578063230db2b7146100b457806330d50bad146100e757806332648e0914610103575b600080fd5b6100b260048036038101906100ad919061153d565b6101ec565b005b6100ce60048036038101906100c9919061153d565b610477565b6040516100de949392919061169b565b60405180910390f35b61010160048036038101906100fc919061181c565b610569565b005b61011d6004803603810190610118919061153d565b61078f565b60405161012a9190611952565b60405180910390f35b61014d600480360381019061014891906119aa565b6109f7565b60405161015d949392919061169b565b60405180910390f35b61016e610af9565b60405161017b9190611afc565b60405180910390f35b61019e60048036038101906101999190611b43565b610cdd565b005b6101ba60048036038101906101b59190611bb2565b611009565b005b6101d660048036038101906101d1919061153d565b611263565b6040516101e39190611bf2565b60405180910390f35b600073ffffffffffffffffffffffffffffffffffffffff16600160008373ffffffffffffffffffffffffffffffffffffffff1673ffffffffffffffffffffffffffffffffffffffff16815260200190815260200160002060010160029054906101000a900473ffffffffffffffffffffffffffffffffffffffff1673ffffffffffffffffffffffffffffffffffffffff16036102bd576040517f08c379a00000000000000000000000000000000000000000000000000000000081526004016102b490611c59565b60405180910390fd5b600160008273ffffffffffffffffffffffffffffffffffffffff1673ffffffffffffffffffffffffffffffffffffffff16815260200190815260200160002060010160019054906101000a900460ff1615600160008373ffffffffffffffffffffffffffffffffffffffff1673ffffffffffffffffffffffffffffffffffffffff16815260200190815260200160002060010160016101000a81548160ff02191690831515021790555060005b600080549050811015610472578173ffffffffffffffffffffffffffffffffffffffff16600082815481106103a2576103a1611c79565b5b906000526020600020906002020160010160029054906101000a900473ffffffffffffffffffffffffffffffffffffffff1673ffffffffffffffffffffffffffffffffffffffff1603610465576000818154811061040357610402611c79565b5b906000526020600020906002020160010160019054906101000a900460ff16156000828154811061043757610436611c79565b5b906000526020600020906002020160010160016101000a81548160ff02191690831515021790555050610474565b808060010191505061036a565b505b50565b600160205280600052604060002060009150905080600001805461049a90611cd7565b80601f01602080910402602001604051908101604052809291908181526020018280546104c690611cd7565b80156105135780601f106104e857610100808354040283529160200191610513565b820191906000526020600020905b8154815290600101906020018083116104f657829003601f168201915b5050505050908060010160009054906101000a900460ff16908060010160019054906101000a900460ff16908060010160029054906101000a900473ffffffffffffffffffffffffffffffffffffffff16905084565b600073ffffffffffffffffffffffffffffffffffffffff16600160008373ffffffffffffffffffffffffffffffffffffffff1673ffffffffffffffffffffffffffffffffffffffff16815260200190815260200160002060010160029054906101000a900473ffffffffffffffffffffffffffffffffffffffff1673ffffffffffffffffffffffffffffffffffffffff160361063a576040517f08c379a000000000000000000000000000000000000000000000000000000000815260040161063190611c59565b60405180910390fd5b60005b600080549050811015610758573373ffffffffffffffffffffffffffffffffffffffff166000828154811061067557610674611c79565b5b906000526020600020906002020160010160029054906101000a900473ffffffffffffffffffffffffffffffffffffffff1673ffffffffffffffffffffffffffffffffffffffff160361074b5782600082815481106106d7576106d6611c79565b5b906000526020600020906002020160000190816106f49190611eb4565b5082600160003373ffffffffffffffffffffffffffffffffffffffff1673ffffffffffffffffffffffffffffffffffffffff16815260200190815260200160002060000190816107449190611eb4565b505061078b565b808060010191505061063d565b506040517ff33a263900000000000000000000000000000000000000000000000000000000815260040160405180910390fd5b5050565b610797611479565b600073ffffffffffffffffffffffffffffffffffffffff16600160008473ffffffffffffffffffffffffffffffffffffffff1673ffffffffffffffffffffffffffffffffffffffff16815260200190815260200160002060010160029054906101000a900473ffffffffffffffffffffffffffffffffffffffff1673ffffffffffffffffffffffffffffffffffffffff1603610868576040517f08c379a000000000000000000000000000000000000000000000000000000000815260040161085f90611c59565b60405180910390fd5b600160008373ffffffffffffffffffffffffffffffffffffffff1673ffffffffffffffffffffffffffffffffffffffff1681526020019081526020016000206040518060800160405290816000820180546108c290611cd7565b80601f01602080910402602001604051908101604052809291908181526020018280546108ee90611cd7565b801561093b5780601f106109105761010080835404028352916020019161093b565b820191906000526020600020905b81548152906001019060200180831161091e57829003601f168201915b505050505081526020016001820160009054906101000a900460ff166005811115610969576109686115fa565b5b600581111561097b5761097a6115fa565b5b81526020016001820160019054906101000a900460ff161515151581526020016001820160029054906101000a900473ffffffffffffffffffffffffffffffffffffffff1673ffffffffffffffffffffffffffffffffffffffff1673ffffffffffffffffffffffffffffffffffffffff16815250509050919050565b60008181548110610a0757600080fd5b9060005260206000209060020201600091509050806000018054610a2a90611cd7565b80601f0160208091040260200160405190810160405280929190818152602001828054610a5690611cd7565b8015610aa35780601f10610a7857610100808354040283529160200191610aa3565b820191906000526020600020905b815481529060010190602001808311610a8657829003601f168201915b5050505050908060010160009054906101000a900460ff16908060010160019054906101000a900460ff16908060010160029054906101000a900473ffffffffffffffffffffffffffffffffffffffff16905084565b60606000808054905011610b42576040517f08c379a0000000000000000000000000000000000000000000000000000000008152600401610b3990611fd2565b60405180910390fd5b6000805480602002602001604051908101604052809291908181526020016000905b82821015610cd45783829060005260206000209060020201604051806080016040529081600082018054610b9790611cd7565b80601f0160208091040260200160405190810160405280929190818152602001828054610bc390611cd7565b8015610c105780601f10610be557610100808354040283529160200191610c10565b820191906000526020600020905b815481529060010190602001808311610bf357829003601f168201915b505050505081526020016001820160009054906101000a900460ff166005811115610c3e57610c3d6115fa565b5b6005811115610c5057610c4f6115fa565b5b81526020016001820160019054906101000a900460ff161515151581526020016001820160029054906101000a900473ffffffffffffffffffffffffffffffffffffffff1673ffffffffffffffffffffffffffffffffffffffff1673ffffffffffffffffffffffffffffffffffffffff168152505081526020019060010190610b64565b50505050905090565b600073ffffffffffffffffffffffffffffffffffffffff16600160008373ffffffffffffffffffffffffffffffffffffffff1673ffffffffffffffffffffffffffffffffffffffff16815260200190815260200160002060010160029054906101000a900473ffffffffffffffffffffffffffffffffffffffff1673ffffffffffffffffffffffffffffffffffffffff1614610dae576040517f08c379a0000000000000000000000000000000000000000000000000000000008152600401610da59061203e565b60405180910390fd5b610db6611479565b8381600001819052508281602001906005811115610dd757610dd66115fa565b5b90816005811115610deb57610dea6115fa565b5b81525050600181604001901515908115158152505081816060019073ffffffffffffffffffffffffffffffffffffffff16908173ffffffffffffffffffffffffffffffffffffffff168152505060008190806001815401808255809150506001900390600052602060002090600202016000909190919091506000820151816000019081610e799190611eb4565b5060208201518160010160006101000a81548160ff02191690836005811115610ea557610ea46115fa565b5b021790555060408201518160010160016101000a81548160ff02191690831515021790555060608201518160010160026101000a81548173ffffffffffffffffffffffffffffffffffffffff021916908373ffffffffffffffffffffffffffffffffffffffff160217905550505080600160008473ffffffffffffffffffffffffffffffffffffffff1673ffffffffffffffffffffffffffffffffffffffff1681526020019081526020016000206000820151816000019081610f689190611eb4565b5060208201518160010160006101000a81548160ff02191690836005811115610f9457610f936115fa565b5b021790555060408201518160010160016101000a81548160ff02191690831515021790555060608201518160010160026101000a81548173ffffffffffffffffffffffffffffffffffffffff021916908373ffffffffffffffffffffffffffffffffffffffff16021790555090505050505050565b600073ffffffffffffffffffffffffffffffffffffffff16600160008373ffffffffffffffffffffffffffffffffffffffff1673ffffffffffffffffffffffffffffffffffffffff16815260200190815260200160002060010160029054906101000a900473ffffffffffffffffffffffffffffffffffffffff1673ffffffffffffffffffffffffffffffffffffffff16036110da576040517f08c379a00000000000000000000000000000000000000000000000000000000081526004016110d190611c59565b60405180910390fd5b60005b60008054905081101561122c578173ffffffffffffffffffffffffffffffffffffffff166000828154811061111557611114611c79565b5b906000526020600020906002020160010160029054906101000a900473ffffffffffffffffffffffffffffffffffffffff1673ffffffffffffffffffffffffffffffffffffffff160361121f57826000828154811061117757611176611c79565b5b906000526020600020906002020160010160006101000a81548160ff021916908360058111156111aa576111a96115fa565b5b021790555082600160008473ffffffffffffffffffffffffffffffffffffffff1673ffffffffffffffffffffffffffffffffffffffff16815260200190815260200160002060010160006101000a81548160ff02191690836005811115611214576112136115fa565b5b02179055505061125f565b80806001019150506110dd565b506040517ff33a263900000000000000000000000000000000000000000000000000000000815260040160405180910390fd5b5050565b60008073ffffffffffffffffffffffffffffffffffffffff16600160008473ffffffffffffffffffffffffffffffffffffffff1673ffffffffffffffffffffffffffffffffffffffff16815260200190815260200160002060010160029054906101000a900473ffffffffffffffffffffffffffffffffffffffff1673ffffffffffffffffffffffffffffffffffffffff1614801561134f5750600160008373ffffffffffffffffffffffffffffffffffffffff1673ffffffffffffffffffffffffffffffffffffffff16815260200190815260200160002060010160019054906101000a900460ff16155b611385576040517f075fd2b100000000000000000000000000000000000000000000000000000000815260040160405180910390fd5b6000600160008473ffffffffffffffffffffffffffffffffffffffff1673ffffffffffffffffffffffffffffffffffffffff16815260200190815260200160002060010160009054906101000a900460ff169050600060058111156113ed576113ec6115fa565b5b816005811115611400576113ff6115fa565b5b148061143057506001600581111561141b5761141a6115fa565b5b81600581111561142e5761142d6115fa565b5b145b8061145f57506002600581111561144a576114496115fa565b5b81600581111561145d5761145c6115fa565b5b145b1561146e576001915050611474565b60009150505b919050565b6040518060800160405280606081526020016000600581111561149f5761149e6115fa565b5b8152602001600015158152602001600073ffffffffffffffffffffffffffffffffffffffff1681525090565b6000604051905090565b600080fd5b600080fd5b600073ffffffffffffffffffffffffffffffffffffffff82169050919050565b600061150a826114df565b9050919050565b61151a816114ff565b811461152557600080fd5b50565b60008135905061153781611511565b92915050565b600060208284031215611553576115526114d5565b5b600061156184828501611528565b91505092915050565b600081519050919050565b600082825260208201905092915050565b60005b838110156115a4578082015181840152602081019050611589565b60008484015250505050565b6000601f19601f8301169050919050565b60006115cc8261156a565b6115d68185611575565b93506115e6818560208601611586565b6115ef816115b0565b840191505092915050565b7f4e487b7100000000000000000000000000000000000000000000000000000000600052602160045260246000fd5b6006811061163a576116396115fa565b5b50565b600081905061164b82611629565b919050565b600061165b8261163d565b9050919050565b61166b81611650565b82525050565b60008115159050919050565b61168681611671565b82525050565b611695816114ff565b82525050565b600060808201905081810360008301526116b581876115c1565b90506116c46020830186611662565b6116d1604083018561167d565b6116de606083018461168c565b95945050505050565b600080fd5b600080fd5b7f4e487b7100000000000000000000000000000000000000000000000000000000600052604160045260246000fd5b611729826115b0565b810181811067ffffffffffffffff82111715611748576117476116f1565b5b80604052505050565b600061175b6114cb565b90506117678282611720565b919050565b600067ffffffffffffffff821115611787576117866116f1565b5b611790826115b0565b9050602081019050919050565b82818337600083830152505050565b60006117bf6117ba8461176c565b611751565b9050828152602081018484840111156117db576117da6116ec565b5b6117e684828561179d565b509392505050565b600082601f830112611803576118026116e7565b5b81356118138482602086016117ac565b91505092915050565b60008060408385031215611833576118326114d5565b5b600083013567ffffffffffffffff811115611851576118506114da565b5b61185d858286016117ee565b925050602061186e85828601611528565b9150509250929050565b600082825260208201905092915050565b60006118948261156a565b61189e8185611878565b93506118ae818560208601611586565b6118b7816115b0565b840191505092915050565b6118cb81611650565b82525050565b6118da81611671565b82525050565b6118e9816114ff565b82525050565b6000608083016000830151848203600086015261190c8282611889565b915050602083015161192160208601826118c2565b50604083015161193460408601826118d1565b50606083015161194760608601826118e0565b508091505092915050565b6000602082019050818103600083015261196c81846118ef565b905092915050565b6000819050919050565b61198781611974565b811461199257600080fd5b50565b6000813590506119a48161197e565b92915050565b6000602082840312156119c0576119bf6114d5565b5b60006119ce84828501611995565b91505092915050565b600081519050919050565b600082825260208201905092915050565b6000819050602082019050919050565b60006080830160008301518482036000860152611a208282611889565b9150506020830151611a3560208601826118c2565b506040830151611a4860408601826118d1565b506060830151611a5b60608601826118e0565b508091505092915050565b6000611a728383611a03565b905092915050565b6000602082019050919050565b6000611a92826119d7565b611a9c81856119e2565b935083602082028501611aae856119f3565b8060005b85811015611aea5784840389528151611acb8582611a66565b9450611ad683611a7a565b925060208a01995050600181019050611ab2565b50829750879550505050505092915050565b60006020820190508181036000830152611b168184611a87565b905092915050565b60068110611b2b57600080fd5b50565b600081359050611b3d81611b1e565b92915050565b600080600060608486031215611b5c57611b5b6114d5565b5b600084013567ffffffffffffffff811115611b7a57611b796114da565b5b611b86868287016117ee565b9350506020611b9786828701611b2e565b9250506040611ba886828701611528565b9150509250925092565b60008060408385031215611bc957611bc86114d5565b5b6000611bd785828601611b2e565b9250506020611be885828601611528565b9150509250929050565b6000602082019050611c07600083018461167d565b92915050565b7f456d706c6f796565206e6f7420666f756e640000000000000000000000000000600082015250565b6000611c43601283611575565b9150611c4e82611c0d565b602082019050919050565b60006020820190508181036000830152611c7281611c36565b9050919050565b7f4e487b7100000000000000000000000000000000000000000000000000000000600052603260045260246000fd5b7f4e487b7100000000000000000000000000000000000000000000000000000000600052602260045260246000fd5b60006002820490506001821680611cef57607f821691505b602082108103611d0257611d01611ca8565b5b50919050565b60008190508160005260206000209050919050565b60006020601f8301049050919050565b600082821b905092915050565b600060088302611d6a7fffffffffffffffffffffffffffffffffffffffffffffffffffffffffffffffff82611d2d565b611d748683611d2d565b95508019841693508086168417925050509392505050565b6000819050919050565b6000611db1611dac611da784611974565b611d8c565b611974565b9050919050565b6000819050919050565b611dcb83611d96565b611ddf611dd782611db8565b848454611d3a565b825550505050565b600090565b611df4611de7565b611dff818484611dc2565b505050565b5b81811015611e2357611e18600082611dec565b600181019050611e05565b5050565b601f821115611e6857611e3981611d08565b611e4284611d1d565b81016020851015611e51578190505b611e65611e5d85611d1d565b830182611e04565b50505b505050565b600082821c905092915050565b6000611e8b60001984600802611e6d565b1980831691505092915050565b6000611ea48383611e7a565b9150826002028217905092915050565b611ebd8261156a565b67ffffffffffffffff811115611ed657611ed56116f1565b5b611ee08254611cd7565b611eeb828285611e27565b600060209050601f831160018114611f1e5760008415611f0c578287015190505b611f168582611e98565b865550611f7e565b601f198416611f2c86611d08565b60005b82811015611f5457848901518255600182019150602085019450602081019050611f2f565b86831015611f715784890151611f6d601f891682611e7a565b8355505b6001600288020188555050505b505050505050565b7f4e6f207265676973746572656420656d706c6f79656500000000000000000000600082015250565b6000611fbc601683611575565b9150611fc782611f86565b602082019050919050565b60006020820190508181036000830152611feb81611faf565b9050919050565b7f416c726561647920726567697374657265640000000000000000000000000000600082015250565b6000612028601283611575565b915061203382611ff2565b602082019050919050565b600060208201905081810360008301526120578161201b565b905091905056fea26469706673582212204a64e0cde5897ae0ecc88892b4bb90ad25eebf0474c9d9b04126d6e94310616c64736f6c634300081e0033",
  "linkReferences": {},
  "deployedLinkReferences": {}
}