{
  "_format": "hh-sol-artifact-1",
  "contractName": "TodoList",
  "sourceName": "contracts/TodoList.sol",
  "abi": [
    {
      "anonymous": false,
      "inputs": [
        {
          "indexed": true,
          "internalType": "address",
          "name": "user",
          "type": "address"
        },
        {
          "indexed": false,
          "internalType": "uint256",
          "name": "id",
          "type": "uint256"
        },
        {
          "indexed": false,
          "internalType": "string",
          "name": "title",
          "type": "string"
        },
        {
          "indexed": false,
          "internalType": "string",
          "name": "description",
          "type": "string"
        },
        {
          "indexed": false,
          "internalType": "bool",
          "name": "status",
          "type": "bool"
        }
      ],
      "name": "TodoCreated",
      "type": "event"
    },
    {
      "anonymous": false,
      "inputs": [
        {
          "indexed": true,
          "internalType": "address",
          "name": "user",
          "type": "address"
        },
        {
          "indexed": false,
          "internalType": "uint256",
          "name": "id",
          "type": "uint256"
        }
      ],
      "name": "TodoDeleted",
      "type": "event"
    },
    {
      "anonymous": false,
      "inputs": [
        {
          "indexed": true,
          "internalType": "address",
          "name": "user",
          "type": "address"
        },
        {
          "indexed": false,
          "internalType": "uint256",
          "name": "id",
          "type": "uint256"
        },
        {
          "indexed": false,
          "internalType": "bool",
          "name": "status",
          "type": "bool"
        }
      ],
      "name": "TodoStatusToggled",
      "type": "event"
    },
    {
      "anonymous": false,
      "inputs": [
        {
          "indexed": true,
          "internalType": "address",
          "name": "user",
          "type": "address"
        },
        {
          "indexed": false,
          "internalType": "uint256",
          "name": "id",
          "type": "uint256"
        },
        {
          "indexed": false,
          "internalType": "string",
          "name": "title",
          "type": "string"
        },
        {
          "indexed": false,
          "internalType": "string",
          "name": "description",
          "type": "string"
        }
      ],
      "name": "TodoUpdated",
      "type": "event"
    },
    {
      "inputs": [
        {
          "internalType": "string",
          "name": "_title",
          "type": "string"
        },
        {
          "internalType": "string",
          "name": "_description",
          "type": "string"
        }
      ],
      "name": "create_todo",
      "outputs": [],
      "stateMutability": "nonpayable",
      "type": "function"
    },
    {
      "inputs": [
        {
          "internalType": "uint256",
          "name": "_id",
          "type": "uint256"
        }
      ],
      "name": "delete_todo",
      "outputs": [],
      "stateMutability": "nonpayable",
      "type": "function"
    },
    {
      "inputs": [
        {
          "internalType": "uint256",
          "name": "_id",
          "type": "uint256"
        }
      ],
      "name": "get_todo",
      "outputs": [
        {
          "internalType": "uint256",
          "name": "",
          "type": "uint256"
        },
        {
          "internalType": "string",
          "name": "",
          "type": "string"
        },
        {
          "internalType": "string",
          "name": "",
          "type": "string"
        },
        {
          "internalType": "bool",
          "name": "",
          "type": "bool"
        },
        {
          "internalType": "bool",
          "name": "",
          "type": "bool"
        }
      ],
      "stateMutability": "view",
      "type": "function"
    },
    {
      "inputs": [],
      "name": "get_todo_count",
      "outputs": [
        {
          "internalType": "uint256",
          "name": "",
          "type": "uint256"
        }
      ],
      "stateMutability": "view",
      "type": "function"
    },
    {
      "inputs": [],
      "name": "get_todos",
      "outputs": [
        {
          "internalType": "uint256[]",
          "name": "",
          "type": "uint256[]"
        }
      ],
      "stateMutability": "view",
      "type": "function"
    },
    {
      "inputs": [
        {
          "internalType": "uint256",
          "name": "_id",
          "type": "uint256"
        }
      ],
      "name": "toggle_todo_status",
      "outputs": [],
      "stateMutability": "nonpayable",
      "type": "function"
    },
    {
      "inputs": [
        {
          "internalType": "uint256",
          "name": "_id",
          "type": "uint256"
        },
        {
          "internalType": "string",
          "name": "_new_title",
          "type": "string"
        },
        {
          "internalType": "string",
          "name": "_new_description",
          "type": "string"
        }
      ],
      "name": "update_todo",
      "outputs": [],
      "stateMutability": "nonpayable",
      "type": "function"
    }
  ],
  "bytecode": "0x6080604052348015600f57600080fd5b506116728061001f6000396000f3fe608060405234801561001057600080fd5b506004361061007d5760003560e01c806374c505841161005b57806374c50584146100d85780638f08bb21146100f65780639f66897014610112578063b5c90fd5146101465761007d565b80633865881b146100825780635a051ea2146100a05780636bbdadff146100bc575b600080fd5b61008a610162565b6040516100979190610cf9565b60405180910390f35b6100ba60048036038101906100b59190610d5b565b610278565b005b6100d660048036038101906100d19190610d5b565b610403565b005b6100e06105bb565b6040516100ed9190610d97565b60405180910390f35b610110600480360381019061010b9190610ef8565b610604565b005b61012c60048036038101906101279190610d5b565b6107bc565b60405161013d95949392919061101d565b60405180910390f35b610160600480360381019061015b919061107e565b610a58565b005b606060008060003373ffffffffffffffffffffffffffffffffffffffff1673ffffffffffffffffffffffffffffffffffffffff16815260200190815260200160002090506000816002015467ffffffffffffffff8111156101c6576101c5610dcd565b5b6040519080825280602002602001820160405280156101f45781602001602082028036833780820191505090505b5090506000805b836001015481101561026e5783600001600082815260200190815260200160002060030160019054906101000a900460ff16156102615780838381518110610246576102456110f6565b5b602002602001018181525050818061025d90611154565b9250505b80806001019150506101fb565b5081935050505090565b6000803373ffffffffffffffffffffffffffffffffffffffff1673ffffffffffffffffffffffffffffffffffffffff168152602001908152602001600020600001600082815260200190815260200160002060030160019054906101000a900460ff1661031a576040517f08c379a0000000000000000000000000000000000000000000000000000000008152600401610311906111e8565b60405180910390fd5b60008060003373ffffffffffffffffffffffffffffffffffffffff1673ffffffffffffffffffffffffffffffffffffffff168152602001908152602001600020600001600083815260200190815260200160002090508060030160009054906101000a900460ff16158160030160006101000a81548160ff0219169083151502179055503373ffffffffffffffffffffffffffffffffffffffff167fd1694ccbe9b7392fc9e112c699e9600a6738fa1325917b7f28fdceaf5bd5f047838360030160009054906101000a900460ff166040516103f7929190611208565b60405180910390a25050565b6000803373ffffffffffffffffffffffffffffffffffffffff1673ffffffffffffffffffffffffffffffffffffffff168152602001908152602001600020600001600082815260200190815260200160002060030160019054906101000a900460ff166104a5576040517f08c379a000000000000000000000000000000000000000000000000000000000815260040161049c906111e8565b60405180910390fd5b60008060003373ffffffffffffffffffffffffffffffffffffffff1673ffffffffffffffffffffffffffffffffffffffff168152602001908152602001600020600001600083815260200190815260200160002060030160016101000a81548160ff0219169083151502179055506000803373ffffffffffffffffffffffffffffffffffffffff1673ffffffffffffffffffffffffffffffffffffffff168152602001908152602001600020600201600081548092919061056590611231565b91905055503373ffffffffffffffffffffffffffffffffffffffff167f24d84cd6bd5cc33dafa556a214e7d9e1b4fccca98b3e7d1413909e4710f02ff3826040516105b09190610d97565b60405180910390a250565b60008060003373ffffffffffffffffffffffffffffffffffffffff1673ffffffffffffffffffffffffffffffffffffffff16815260200190815260200160002060020154905090565b6000803373ffffffffffffffffffffffffffffffffffffffff1673ffffffffffffffffffffffffffffffffffffffff168152602001908152602001600020600001600084815260200190815260200160002060030160019054906101000a900460ff166106a6576040517f08c379a000000000000000000000000000000000000000000000000000000000815260040161069d906111e8565b60405180910390fd5b60008251116106ea576040517f08c379a00000000000000000000000000000000000000000000000000000000081526004016106e1906112a6565b60405180910390fd5b60008060003373ffffffffffffffffffffffffffffffffffffffff1673ffffffffffffffffffffffffffffffffffffffff168152602001908152602001600020600001600085815260200190815260200160002090508281600101908161075191906114d2565b508181600201908161076391906114d2565b503373ffffffffffffffffffffffffffffffffffffffff167f83d78544555068513051a2e2f57c2115fbd6c884c989db47bf18522339af85138585856040516107ae939291906115a4565b60405180910390a250505050565b60006060806000806000803373ffffffffffffffffffffffffffffffffffffffff1673ffffffffffffffffffffffffffffffffffffffff168152602001908152602001600020600001600087815260200190815260200160002060030160019054906101000a900460ff16610866576040517f08c379a000000000000000000000000000000000000000000000000000000000815260040161085d906111e8565b60405180910390fd5b60008060003373ffffffffffffffffffffffffffffffffffffffff1673ffffffffffffffffffffffffffffffffffffffff16815260200190815260200160002060000160008881526020019081526020016000206040518060a0016040529081600082015481526020016001820180546108df906112f5565b80601f016020809104026020016040519081016040528092919081815260200182805461090b906112f5565b80156109585780601f1061092d57610100808354040283529160200191610958565b820191906000526020600020905b81548152906001019060200180831161093b57829003601f168201915b50505050508152602001600282018054610971906112f5565b80601f016020809104026020016040519081016040528092919081815260200182805461099d906112f5565b80156109ea5780601f106109bf576101008083540402835291602001916109ea565b820191906000526020600020905b8154815290600101906020018083116109cd57829003601f168201915b505050505081526020016003820160009054906101000a900460ff161515151581526020016003820160019054906101000a900460ff161515151581525050905080600001518160200151826040015183606001518460800151955095509550955095505091939590929450565b6000825111610a9c576040517f08c379a0000000000000000000000000000000000000000000000000000000008152600401610a93906112a6565b60405180910390fd5b60008060003373ffffffffffffffffffffffffffffffffffffffff1673ffffffffffffffffffffffffffffffffffffffff16815260200190815260200160002090506000816001015490506040518060a0016040528082815260200185815260200184815260200160001515815260200160011515815250826000016000838152602001908152602001600020600082015181600001556020820151816001019081610b4891906114d2565b506040820151816002019081610b5e91906114d2565b5060608201518160030160006101000a81548160ff02191690831515021790555060808201518160030160016101000a81548160ff021916908315150217905550905050816002016000815480929190610bb790611154565b9190505550816001016000815480929190610bd190611154565b91905055503373ffffffffffffffffffffffffffffffffffffffff167f0b844f793ffc782e7441ef35750626f959de5c8d7516b1b4c4769e10119bd7c78286866000604051610c2394939291906115e9565b60405180910390a250505050565b600081519050919050565b600082825260208201905092915050565b6000819050602082019050919050565b6000819050919050565b610c7081610c5d565b82525050565b6000610c828383610c67565b60208301905092915050565b6000602082019050919050565b6000610ca682610c31565b610cb08185610c3c565b9350610cbb83610c4d565b8060005b83811015610cec578151610cd38882610c76565b9750610cde83610c8e565b925050600181019050610cbf565b5085935050505092915050565b60006020820190508181036000830152610d138184610c9b565b905092915050565b6000604051905090565b600080fd5b600080fd5b610d3881610c5d565b8114610d4357600080fd5b50565b600081359050610d5581610d2f565b92915050565b600060208284031215610d7157610d70610d25565b5b6000610d7f84828501610d46565b91505092915050565b610d9181610c5d565b82525050565b6000602082019050610dac6000830184610d88565b92915050565b600080fd5b600080fd5b6000601f19601f8301169050919050565b7f4e487b7100000000000000000000000000000000000000000000000000000000600052604160045260246000fd5b610e0582610dbc565b810181811067ffffffffffffffff82111715610e2457610e23610dcd565b5b80604052505050565b6000610e37610d1b565b9050610e438282610dfc565b919050565b600067ffffffffffffffff821115610e6357610e62610dcd565b5b610e6c82610dbc565b9050602081019050919050565b82818337600083830152505050565b6000610e9b610e9684610e48565b610e2d565b905082815260208101848484011115610eb757610eb6610db7565b5b610ec2848285610e79565b509392505050565b600082601f830112610edf57610ede610db2565b5b8135610eef848260208601610e88565b91505092915050565b600080600060608486031215610f1157610f10610d25565b5b6000610f1f86828701610d46565b935050602084013567ffffffffffffffff811115610f4057610f3f610d2a565b5b610f4c86828701610eca565b925050604084013567ffffffffffffffff811115610f6d57610f6c610d2a565b5b610f7986828701610eca565b9150509250925092565b600081519050919050565b600082825260208201905092915050565b60005b83811015610fbd578082015181840152602081019050610fa2565b60008484015250505050565b6000610fd482610f83565b610fde8185610f8e565b9350610fee818560208601610f9f565b610ff781610dbc565b840191505092915050565b60008115159050919050565b61101781611002565b82525050565b600060a0820190506110326000830188610d88565b81810360208301526110448187610fc9565b905081810360408301526110588186610fc9565b9050611067606083018561100e565b611074608083018461100e565b9695505050505050565b6000806040838503121561109557611094610d25565b5b600083013567ffffffffffffffff8111156110b3576110b2610d2a565b5b6110bf85828601610eca565b925050602083013567ffffffffffffffff8111156110e0576110df610d2a565b5b6110ec85828601610eca565b9150509250929050565b7f4e487b7100000000000000000000000000000000000000000000000000000000600052603260045260246000fd5b7f4e487b7100000000000000000000000000000000000000000000000000000000600052601160045260246000fd5b600061115f82610c5d565b91507fffffffffffffffffffffffffffffffffffffffffffffffffffffffffffffffff820361119157611190611125565b5b600182019050919050565b7f546f646f20646f6573206e6f7420657869737400000000000000000000000000600082015250565b60006111d2601383610f8e565b91506111dd8261119c565b602082019050919050565b60006020820190508181036000830152611201816111c5565b9050919050565b600060408201905061121d6000830185610d88565b61122a602083018461100e565b9392505050565b600061123c82610c5d565b91506000820361124f5761124e611125565b5b600182039050919050565b7f5469746c652063616e6e6f7420626520656d7074790000000000000000000000600082015250565b6000611290601583610f8e565b915061129b8261125a565b602082019050919050565b600060208201905081810360008301526112bf81611283565b9050919050565b7f4e487b7100000000000000000000000000000000000000000000000000000000600052602260045260246000fd5b6000600282049050600182168061130d57607f821691505b6020821081036113205761131f6112c6565b5b50919050565b60008190508160005260206000209050919050565b60006020601f8301049050919050565b600082821b905092915050565b6000600883026113887fffffffffffffffffffffffffffffffffffffffffffffffffffffffffffffffff8261134b565b611392868361134b565b95508019841693508086168417925050509392505050565b6000819050919050565b60006113cf6113ca6113c584610c5d565b6113aa565b610c5d565b9050919050565b6000819050919050565b6113e9836113b4565b6113fd6113f5826113d6565b848454611358565b825550505050565b600090565b611412611405565b61141d8184846113e0565b505050565b5b818110156114415761143660008261140a565b600181019050611423565b5050565b601f8211156114865761145781611326565b6114608461133b565b8101602085101561146f578190505b61148361147b8561133b565b830182611422565b50505b505050565b600082821c905092915050565b60006114a96000198460080261148b565b1980831691505092915050565b60006114c28383611498565b9150826002028217905092915050565b6114db82610f83565b67ffffffffffffffff8111156114f4576114f3610dcd565b5b6114fe82546112f5565b611509828285611445565b600060209050601f83116001811461153c576000841561152a578287015190505b61153485826114b6565b86555061159c565b601f19841661154a86611326565b60005b828110156115725784890151825560018201915060208501945060208101905061154d565b8683101561158f578489015161158b601f891682611498565b8355505b6001600288020188555050505b505050505050565b60006060820190506115b96000830186610d88565b81810360208301526115cb8185610fc9565b905081810360408301526115df8184610fc9565b9050949350505050565b60006080820190506115fe6000830187610d88565b81810360208301526116108186610fc9565b905081810360408301526116248185610fc9565b9050611633606083018461100e565b9594505050505056fea26469706673582212206e56f980b1cce2d7d093b90983bfc04e5ec968d04d7e12adc1025f9bf513af5564736f6c634300081c0033",
  "linkReferences": {},
  "deployedLinkReferences": {}
}