{
  "_format": "hh-sol-artifact-1",
  "contractName": "RoleNFT",
  "sourceName": "contracts/RoleNFT.sol",
  "abi": [
    {
      "inputs": [],
      "stateMutability": "nonpayable",
      "type": "constructor"
    },
    {
      "inputs": [
        {
          "internalType": "address",
          "name": "sender",
          "type": "address"
        },
        {
          "internalType": "uint256",
          "name": "tokenId",
          "type": "uint256"
        },
        {
          "internalType": "address",
          "name": "owner",
          "type": "address"
        }
      ],
      "name": "ERC721IncorrectOwner",
      "type": "error"
    },
    {
      "inputs": [
        {
          "internalType": "address",
          "name": "operator",
          "type": "address"
        },
        {
          "internalType": "uint256",
          "name": "tokenId",
          "type": "uint256"
        }
      ],
      "name": "ERC721InsufficientApproval",
      "type": "error"
    },
    {
      "inputs": [
        {
          "internalType": "address",
          "name": "approver",
          "type": "address"
        }
      ],
      "name": "ERC721InvalidApprover",
      "type": "error"
    },
    {
      "inputs": [
        {
          "internalType": "address",
          "name": "operator",
          "type": "address"
        }
      ],
      "name": "ERC721InvalidOperator",
      "type": "error"
    },
    {
      "inputs": [
        {
          "internalType": "address",
          "name": "owner",
          "type": "address"
        }
      ],
      "name": "ERC721InvalidOwner",
      "type": "error"
    },
    {
      "inputs": [
        {
          "internalType": "address",
          "name": "receiver",
          "type": "address"
        }
      ],
      "name": "ERC721InvalidReceiver",
      "type": "error"
    },
    {
      "inputs": [
        {
          "internalType": "address",
          "name": "sender",
          "type": "address"
        }
      ],
      "name": "ERC721InvalidSender",
      "type": "error"
    },
    {
      "inputs": [
        {
          "internalType": "uint256",
          "name": "tokenId",
          "type": "uint256"
        }
      ],
      "name": "ERC721NonexistentToken",
      "type": "error"
    },
    {
      "inputs": [
        {
          "internalType": "address",
          "name": "owner",
          "type": "address"
        }
      ],
      "name": "OwnableInvalidOwner",
      "type": "error"
    },
    {
      "inputs": [
        {
          "internalType": "address",
          "name": "account",
          "type": "address"
        }
      ],
      "name": "OwnableUnauthorizedAccount",
      "type": "error"
    },
    {
      "anonymous": false,
      "inputs": [
        {
          "indexed": true,
          "internalType": "address",
          "name": "owner",
          "type": "address"
        },
        {
          "indexed": true,
          "internalType": "address",
          "name": "approved",
          "type": "address"
        },
        {
          "indexed": true,
          "internalType": "uint256",
          "name": "tokenId",
          "type": "uint256"
        }
      ],
      "name": "Approval",
      "type": "event"
    },
    {
      "anonymous": false,
      "inputs": [
        {
          "indexed": true,
          "internalType": "address",
          "name": "owner",
          "type": "address"
        },
        {
          "indexed": true,
          "internalType": "address",
          "name": "operator",
          "type": "address"
        },
        {
          "indexed": false,
          "internalType": "bool",
          "name": "approved",
          "type": "bool"
        }
      ],
      "name": "ApprovalForAll",
      "type": "event"
    },
    {
      "anonymous": false,
      "inputs": [
        {
          "indexed": true,
          "internalType": "address",
          "name": "previousOwner",
          "type": "address"
        },
        {
          "indexed": true,
          "internalType": "address",
          "name": "newOwner",
          "type": "address"
        }
      ],
      "name": "OwnershipTransferred",
      "type": "event"
    },
    {
      "anonymous": false,
      "inputs": [
        {
          "indexed": true,
          "internalType": "uint256",
          "name": "tokenId",
          "type": "uint256"
        },
        {
          "indexed": true,
          "internalType": "bytes32",
          "name": "role",
          "type": "bytes32"
        },
        {
          "indexed": true,
          "internalType": "address",
          "name": "recipient",
          "type": "address"
        },
        {
          "indexed": false,
          "internalType": "uint64",
          "name": "expirationDate",
          "type": "uint64"
        }
      ],
      "name": "RoleGranted",
      "type": "event"
    },
    {
      "anonymous": false,
      "inputs": [
        {
          "indexed": true,
          "internalType": "uint256",
          "name": "tokenId",
          "type": "uint256"
        },
        {
          "indexed": true,
          "internalType": "bytes32",
          "name": "role",
          "type": "bytes32"
        },
        {
          "indexed": true,
          "internalType": "address",
          "name": "recipient",
          "type": "address"
        }
      ],
      "name": "RoleRevoked",
      "type": "event"
    },
    {
      "anonymous": false,
      "inputs": [
        {
          "indexed": true,
          "internalType": "address",
          "name": "from",
          "type": "address"
        },
        {
          "indexed": true,
          "internalType": "address",
          "name": "to",
          "type": "address"
        },
        {
          "indexed": true,
          "internalType": "uint256",
          "name": "tokenId",
          "type": "uint256"
        }
      ],
      "name": "Transfer",
      "type": "event"
    },
    {
      "inputs": [],
      "name": "EXECUTOR",
      "outputs": [
        {
          "internalType": "bytes32",
          "name": "",
          "type": "bytes32"
        }
      ],
      "stateMutability": "view",
      "type": "function"
    },
    {
      "inputs": [],
      "name": "PROPOSER",
      "outputs": [
        {
          "internalType": "bytes32",
          "name": "",
          "type": "bytes32"
        }
      ],
      "stateMutability": "view",
      "type": "function"
    },
    {
      "inputs": [],
      "name": "VOTER",
      "outputs": [
        {
          "internalType": "bytes32",
          "name": "",
          "type": "bytes32"
        }
      ],
      "stateMutability": "view",
      "type": "function"
    },
    {
      "inputs": [
        {
          "internalType": "address",
          "name": "to",
          "type": "address"
        },
        {
          "internalType": "uint256",
          "name": "tokenId",
          "type": "uint256"
        }
      ],
      "name": "approve",
      "outputs": [],
      "stateMutability": "nonpayable",
      "type": "function"
    },
    {
      "inputs": [
        {
          "internalType": "address",
          "name": "owner",
          "type": "address"
        }
      ],
      "name": "balanceOf",
      "outputs": [
        {
          "internalType": "uint256",
          "name": "",
          "type": "uint256"
        }
      ],
      "stateMutability": "view",
      "type": "function"
    },
    {
      "inputs": [
        {
          "internalType": "uint256",
          "name": "tokenId",
          "type": "uint256"
        }
      ],
      "name": "getApproved",
      "outputs": [
        {
          "internalType": "address",
          "name": "",
          "type": "address"
        }
      ],
      "stateMutability": "view",
      "type": "function"
    },
    {
      "inputs": [
        {
          "internalType": "uint256",
          "name": "tokenId",
          "type": "uint256"
        },
        {
          "internalType": "bytes32",
          "name": "role",
          "type": "bytes32"
        }
      ],
      "name": "getRoleRecipients",
      "outputs": [
        {
          "internalType": "address[]",
          "name": "",
          "type": "address[]"
        }
      ],
      "stateMutability": "view",
      "type": "function"
    },
    {
      "inputs": [
        {
          "internalType": "uint256",
          "name": "tokenId",
          "type": "uint256"
        },
        {
          "internalType": "bytes32",
          "name": "role",
          "type": "bytes32"
        },
        {
          "internalType": "address",
          "name": "recipient",
          "type": "address"
        },
        {
          "internalType": "uint64",
          "name": "expirationDate",
          "type": "uint64"
        }
      ],
      "name": "grantRole",
      "outputs": [],
      "stateMutability": "nonpayable",
      "type": "function"
    },
    {
      "inputs": [
        {
          "internalType": "uint256",
          "name": "tokenId",
          "type": "uint256"
        },
        {
          "internalType": "bytes32",
          "name": "role",
          "type": "bytes32"
        },
        {
          "internalType": "address",
          "name": "recipient",
          "type": "address"
        }
      ],
      "name": "hasRole",
      "outputs": [
        {
          "internalType": "bool",
          "name": "",
          "type": "bool"
        }
      ],
      "stateMutability": "view",
      "type": "function"
    },
    {
      "inputs": [
        {
          "internalType": "address",
          "name": "owner",
          "type": "address"
        },
        {
          "internalType": "address",
          "name": "operator",
          "type": "address"
        }
      ],
      "name": "isApprovedForAll",
      "outputs": [
        {
          "internalType": "bool",
          "name": "",
          "type": "bool"
        }
      ],
      "stateMutability": "view",
      "type": "function"
    },
    {
      "inputs": [
        {
          "internalType": "address",
          "name": "to",
          "type": "address"
        }
      ],
      "name": "mint",
      "outputs": [
        {
          "internalType": "uint256",
          "name": "",
          "type": "uint256"
        }
      ],
      "stateMutability": "nonpayable",
      "type": "function"
    },
    {
      "inputs": [],
      "name": "name",
      "outputs": [
        {
          "internalType": "string",
          "name": "",
          "type": "string"
        }
      ],
      "stateMutability": "view",
      "type": "function"
    },
    {
      "inputs": [],
      "name": "owner",
      "outputs": [
        {
          "internalType": "address",
          "name": "",
          "type": "address"
        }
      ],
      "stateMutability": "view",
      "type": "function"
    },
    {
      "inputs": [
        {
          "internalType": "uint256",
          "name": "tokenId",
          "type": "uint256"
        }
      ],
      "name": "ownerOf",
      "outputs": [
        {
          "internalType": "address",
          "name": "",
          "type": "address"
        }
      ],
      "stateMutability": "view",
      "type": "function"
    },
    {
      "inputs": [],
      "name": "renounceOwnership",
      "outputs": [],
      "stateMutability": "nonpayable",
      "type": "function"
    },
    {
      "inputs": [
        {
          "internalType": "uint256",
          "name": "tokenId",
          "type": "uint256"
        },
        {
          "internalType": "bytes32",
          "name": "role",
          "type": "bytes32"
        },
        {
          "internalType": "address",
          "name": "recipient",
          "type": "address"
        }
      ],
      "name": "revokeRole",
      "outputs": [],
      "stateMutability": "nonpayable",
      "type": "function"
    },
    {
      "inputs": [
        {
          "internalType": "uint256",
          "name": "tokenId",
          "type": "uint256"
        },
        {
          "internalType": "bytes32",
          "name": "role",
          "type": "bytes32"
        },
        {
          "internalType": "address",
          "name": "recipient",
          "type": "address"
        }
      ],
      "name": "roleExpirationDate",
      "outputs": [
        {
          "internalType": "uint64",
          "name": "",
          "type": "uint64"
        }
      ],
      "stateMutability": "view",
      "type": "function"
    },
    {
      "inputs": [
        {
          "internalType": "address",
          "name": "from",
          "type": "address"
        },
        {
          "internalType": "address",
          "name": "to",
          "type": "address"
        },
        {
          "internalType": "uint256",
          "name": "tokenId",
          "type": "uint256"
        }
      ],
      "name": "safeTransferFrom",
      "outputs": [],
      "stateMutability": "nonpayable",
      "type": "function"
    },
    {
      "inputs": [
        {
          "internalType": "address",
          "name": "from",
          "type": "address"
        },
        {
          "internalType": "address",
          "name": "to",
          "type": "address"
        },
        {
          "internalType": "uint256",
          "name": "tokenId",
          "type": "uint256"
        },
        {
          "internalType": "bytes",
          "name": "data",
          "type": "bytes"
        }
      ],
      "name": "safeTransferFrom",
      "outputs": [],
      "stateMutability": "nonpayable",
      "type": "function"
    },
    {
      "inputs": [
        {
          "internalType": "address",
          "name": "operator",
          "type": "address"
        },
        {
          "internalType": "bool",
          "name": "approved",
          "type": "bool"
        }
      ],
      "name": "setApprovalForAll",
      "outputs": [],
      "stateMutability": "nonpayable",
      "type": "function"
    },
    {
      "inputs": [
        {
          "internalType": "bytes4",
          "name": "interfaceId",
          "type": "bytes4"
        }
      ],
      "name": "supportsInterface",
      "outputs": [
        {
          "internalType": "bool",
          "name": "",
          "type": "bool"
        }
      ],
      "stateMutability": "view",
      "type": "function"
    },
    {
      "inputs": [],
      "name": "symbol",
      "outputs": [
        {
          "internalType": "string",
          "name": "",
          "type": "string"
        }
      ],
      "stateMutability": "view",
      "type": "function"
    },
    {
      "inputs": [
        {
          "internalType": "uint256",
          "name": "tokenId",
          "type": "uint256"
        }
      ],
      "name": "tokenURI",
      "outputs": [
        {
          "internalType": "string",
          "name": "",
          "type": "string"
        }
      ],
      "stateMutability": "view",
      "type": "function"
    },
    {
      "inputs": [
        {
          "internalType": "address",
          "name": "from",
          "type": "address"
        },
        {
          "internalType": "address",
          "name": "to",
          "type": "address"
        },
        {
          "internalType": "uint256",
          "name": "tokenId",
          "type": "uint256"
        }
      ],
      "name": "transferFrom",
      "outputs": [],
      "stateMutability": "nonpayable",
      "type": "function"
    },
    {
      "inputs": [
        {
          "internalType": "address",
          "name": "newOwner",
          "type": "address"
        }
      ],
      "name": "transferOwnership",
      "outputs": [],
      "stateMutability": "nonpayable",
      "type": "function"
    }
  ],
  "bytecode": "0x608060405234801561001057600080fd5b50336040518060400160405280600781526020017f526f6c654e4654000000000000000000000000000000000000000000000000008152506040518060400160405280600581526020017f524c4e4654000000000000000000000000000000000000000000000000000000815250816000908161008d919061043d565b50806001908161009d919061043d565b505050600073ffffffffffffffffffffffffffffffffffffffff168173ffffffffffffffffffffffffffffffffffffffff16036101125760006040517f1e4fbdf70000000000000000000000000000000000000000000000000000000081526004016101099190610550565b60405180910390fd5b6101218161012760201b60201c565b5061056b565b6000600660009054906101000a900473ffffffffffffffffffffffffffffffffffffffff16905081600660006101000a81548173ffffffffffffffffffffffffffffffffffffffff021916908373ffffffffffffffffffffffffffffffffffffffff1602179055508173ffffffffffffffffffffffffffffffffffffffff168173ffffffffffffffffffffffffffffffffffffffff167f8be0079c531659141344cd1fd0a4f28419497f9722a3daafe3b4186f6b6457e060405160405180910390a35050565b600081519050919050565b7f4e487b7100000000000000000000000000000000000000000000000000000000600052604160045260246000fd5b7f4e487b7100000000000000000000000000000000000000000000000000000000600052602260045260246000fd5b6000600282049050600182168061026e57607f821691505b60208210810361028157610280610227565b5b50919050565b60008190508160005260206000209050919050565b60006020601f8301049050919050565b600082821b905092915050565b6000600883026102e97fffffffffffffffffffffffffffffffffffffffffffffffffffffffffffffffff826102ac565b6102f386836102ac565b95508019841693508086168417925050509392505050565b6000819050919050565b6000819050919050565b600061033a6103356103308461030b565b610315565b61030b565b9050919050565b6000819050919050565b6103548361031f565b61036861036082610341565b8484546102b9565b825550505050565b600090565b61037d610370565b61038881848461034b565b505050565b5b818110156103ac576103a1600082610375565b60018101905061038e565b5050565b601f8211156103f1576103c281610287565b6103cb8461029c565b810160208510156103da578190505b6103ee6103e68561029c565b83018261038d565b50505b505050565b600082821c905092915050565b6000610414600019846008026103f6565b1980831691505092915050565b600061042d8383610403565b9150826002028217905092915050565b610446826101ed565b67ffffffffffffffff81111561045f5761045e6101f8565b5b6104698254610256565b6104748282856103b0565b600060209050601f8311600181146104a75760008415610495578287015190505b61049f8582610421565b865550610507565b601f1984166104b586610287565b60005b828110156104dd578489015182556001820191506020850194506020810190506104b8565b868310156104fa57848901516104f6601f891682610403565b8355505b6001600288020188555050505b505050505050565b600073ffffffffffffffffffffffffffffffffffffffff82169050919050565b600061053a8261050f565b9050919050565b61054a8161052f565b82525050565b60006020820190506105656000830184610541565b92915050565b612b908061057a6000396000f3fe608060405234801561001057600080fd5b50600436106101735760003560e01c806370a08231116100de578063b88d4fde11610097578063c87b56dd11610071578063c87b56dd1461044a578063d076874f1461047a578063e985e9c5146104aa578063f2fde38b146104da57610173565b8063b88d4fde146103f4578063b8c13b0914610410578063bffa7f0f1461042c57610173565b806370a0823114610344578063715018a6146103745780638da5cb5b1461037e5780638ebf2fd61461039c57806395d89b41146103ba578063a22cb465146103d857610173565b806342842e0e1161013057806342842e0e1461025e5780634a120dd71461027a5780635c98ea6d14610296578063630dc7cb146102c65780636352211e146102e45780636a6278421461031457610173565b806301ffc9a71461017857806306fdde03146101a8578063081812fc146101c6578063095ea7b3146101f6578063119345aa1461021257806323b872dd14610242575b600080fd5b610192600480360381019061018d9190612053565b6104f6565b60405161019f919061209b565b60405180910390f35b6101b06105d8565b6040516101bd9190612146565b60405180910390f35b6101e060048036038101906101db919061219e565b61066a565b6040516101ed919061220c565b60405180910390f35b610210600480360381019061020b9190612253565b610686565b005b61022c600480360381019061022791906122c9565b61069c565b604051610239919061209b565b60405180910390f35b61025c6004803603810190610257919061231c565b610782565b005b6102786004803603810190610273919061231c565b610884565b005b610294600480360381019061028f91906122c9565b6108a4565b005b6102b060048036038101906102ab91906122c9565b610a00565b6040516102bd9190612392565b60405180910390f35b6102ce610a84565b6040516102db91906123bc565b60405180910390f35b6102fe60048036038101906102f9919061219e565b610aa8565b60405161030b919061220c565b60405180910390f35b61032e600480360381019061032991906123d7565b610aba565b60405161033b9190612413565b60405180910390f35b61035e600480360381019061035991906123d7565b610aed565b60405161036b9190612413565b60405180910390f35b61037c610ba7565b005b610386610bbb565b604051610393919061220c565b60405180910390f35b6103a4610be5565b6040516103b191906123bc565b60405180910390f35b6103c2610c09565b6040516103cf9190612146565b60405180910390f35b6103f260048036038101906103ed919061245a565b610c9b565b005b61040e600480360381019061040991906125cf565b610cb1565b005b61042a6004803603810190610425919061267e565b610cd6565b005b610434610f05565b60405161044191906123bc565b60405180910390f35b610464600480360381019061045f919061219e565b610f29565b6040516104719190612146565b60405180910390f35b610494600480360381019061048f91906126e5565b610f92565b6040516104a191906127e3565b60405180910390f35b6104c460048036038101906104bf9190612805565b611045565b6040516104d1919061209b565b60405180910390f35b6104f460048036038101906104ef91906123d7565b6110d9565b005b60007f80ac58cd000000000000000000000000000000000000000000000000000000007bffffffffffffffffffffffffffffffffffffffffffffffffffffffff1916827bffffffffffffffffffffffffffffffffffffffffffffffffffffffff191614806105c157507f5b5e139f000000000000000000000000000000000000000000000000000000007bffffffffffffffffffffffffffffffffffffffffffffffffffffffff1916827bffffffffffffffffffffffffffffffffffffffffffffffffffffffff1916145b806105d157506105d08261115f565b5b9050919050565b6060600080546105e790612874565b80601f016020809104026020016040519081016040528092919081815260200182805461061390612874565b80156106605780601f1061063557610100808354040283529160200191610660565b820191906000526020600020905b81548152906001019060200180831161064357829003601f168201915b5050505050905090565b6000610675826111c9565b5061067f82611251565b9050919050565b610698828261069361128e565b611296565b5050565b60008060086000868152602001908152602001600020600085815260200190815260200160002060008473ffffffffffffffffffffffffffffffffffffffff1673ffffffffffffffffffffffffffffffffffffffff1681526020019081526020016000206040518060400160405290816000820160009054906101000a900467ffffffffffffffff1667ffffffffffffffff1667ffffffffffffffff1681526020016000820160089054906101000a900460ff161515151581525050905080602001518015610778575042816000015167ffffffffffffffff16115b9150509392505050565b600073ffffffffffffffffffffffffffffffffffffffff168273ffffffffffffffffffffffffffffffffffffffff16036107f45760006040517f64a0ae920000000000000000000000000000000000000000000000000000000081526004016107eb919061220c565b60405180910390fd5b6000610808838361080361128e565b6112a8565b90508373ffffffffffffffffffffffffffffffffffffffff168173ffffffffffffffffffffffffffffffffffffffff161461087e578382826040517f64283d7b000000000000000000000000000000000000000000000000000000008152600401610875939291906128a5565b60405180910390fd5b50505050565b61089f83838360405180602001604052806000815250610cb1565b505050565b6108ac6114c2565b600073ffffffffffffffffffffffffffffffffffffffff166108cd84611549565b73ffffffffffffffffffffffffffffffffffffffff1603610923576040517f08c379a000000000000000000000000000000000000000000000000000000000815260040161091a90612928565b60405180910390fd5b60086000848152602001908152602001600020600083815260200190815260200160002060008273ffffffffffffffffffffffffffffffffffffffff1673ffffffffffffffffffffffffffffffffffffffff168152602001908152602001600020600080820160006101000a81549067ffffffffffffffff02191690556000820160086101000a81549060ff021916905550508073ffffffffffffffffffffffffffffffffffffffff1682847fa936b59ea1bf15cbdbd4cd35c3cb8df32238b5265be331d90506d70b29114f0a60405160405180910390a4505050565b600060086000858152602001908152602001600020600084815260200190815260200160002060008373ffffffffffffffffffffffffffffffffffffffff1673ffffffffffffffffffffffffffffffffffffffff16815260200190815260200160002060000160009054906101000a900467ffffffffffffffff1690509392505050565b7f9cf85f95575c3af1e116e3d37fd41e7f36a8a373623f51ffaaa87fdd032fa76781565b6000610ab3826111c9565b9050919050565b6000806007549050610acc8382611586565b60076000815480929190610adf90612977565b919050555080915050919050565b60008073ffffffffffffffffffffffffffffffffffffffff168273ffffffffffffffffffffffffffffffffffffffff1603610b605760006040517f89c62b64000000000000000000000000000000000000000000000000000000008152600401610b57919061220c565b60405180910390fd5b600360008373ffffffffffffffffffffffffffffffffffffffff1673ffffffffffffffffffffffffffffffffffffffff168152602001908152602001600020549050919050565b610baf6114c2565b610bb9600061167f565b565b6000600660009054906101000a900473ffffffffffffffffffffffffffffffffffffffff16905090565b7f15283fd96aa656c9df35ac2fcb112678a5f24f1ca97e591a97d1d16003dbfc9c81565b606060018054610c1890612874565b80601f0160208091040260200160405190810160405280929190818152602001828054610c4490612874565b8015610c915780601f10610c6657610100808354040283529160200191610c91565b820191906000526020600020905b815481529060010190602001808311610c7457829003601f168201915b5050505050905090565b610cad610ca661128e565b8383611745565b5050565b610cbc848484610782565b610cd0610cc761128e565b858585856118b4565b50505050565b610cde6114c2565b600073ffffffffffffffffffffffffffffffffffffffff16610cff85611549565b73ffffffffffffffffffffffffffffffffffffffff1603610d55576040517f08c379a0000000000000000000000000000000000000000000000000000000008152600401610d4c90612928565b60405180910390fd5b60405180604001604052808267ffffffffffffffff1681526020016001151581525060086000868152602001908152602001600020600085815260200190815260200160002060008473ffffffffffffffffffffffffffffffffffffffff1673ffffffffffffffffffffffffffffffffffffffff16815260200190815260200160002060008201518160000160006101000a81548167ffffffffffffffff021916908367ffffffffffffffff16021790555060208201518160000160086101000a81548160ff021916908315150217905550905050600960008581526020019081526020016000206000848152602001908152602001600020829080600181540180825580915050600190039060005260206000200160009091909190916101000a81548173ffffffffffffffffffffffffffffffffffffffff021916908373ffffffffffffffffffffffffffffffffffffffff1602179055508173ffffffffffffffffffffffffffffffffffffffff1683857f872ddd1e2b98ec6c94b796cecb782f80e0587c5ca608665d862a8be6028e4c0184604051610ef79190612392565b60405180910390a450505050565b7fc4338366b9cfc07901c46677a3a32746bd05d5c114e4d0d293c468cff87acde081565b6060610f34826111c9565b506000610f3f611a65565b90506000815111610f5f5760405180602001604052806000815250610f8a565b80610f6984611a7c565b604051602001610f7a9291906129fb565b6040516020818303038152906040525b915050919050565b606060096000848152602001908152602001600020600083815260200190815260200160002080548060200260200160405190810160405280929190818152602001828054801561103857602002820191906000526020600020905b8160009054906101000a900473ffffffffffffffffffffffffffffffffffffffff1673ffffffffffffffffffffffffffffffffffffffff1681526020019060010190808311610fee575b5050505050905092915050565b6000600560008473ffffffffffffffffffffffffffffffffffffffff1673ffffffffffffffffffffffffffffffffffffffff16815260200190815260200160002060008373ffffffffffffffffffffffffffffffffffffffff1673ffffffffffffffffffffffffffffffffffffffff16815260200190815260200160002060009054906101000a900460ff16905092915050565b6110e16114c2565b600073ffffffffffffffffffffffffffffffffffffffff168173ffffffffffffffffffffffffffffffffffffffff16036111535760006040517f1e4fbdf700000000000000000000000000000000000000000000000000000000815260040161114a919061220c565b60405180910390fd5b61115c8161167f565b50565b60007f01ffc9a7000000000000000000000000000000000000000000000000000000007bffffffffffffffffffffffffffffffffffffffffffffffffffffffff1916827bffffffffffffffffffffffffffffffffffffffffffffffffffffffff1916149050919050565b6000806111d583611549565b9050600073ffffffffffffffffffffffffffffffffffffffff168173ffffffffffffffffffffffffffffffffffffffff160361124857826040517f7e27328900000000000000000000000000000000000000000000000000000000815260040161123f9190612413565b60405180910390fd5b80915050919050565b60006004600083815260200190815260200160002060009054906101000a900473ffffffffffffffffffffffffffffffffffffffff169050919050565b600033905090565b6112a38383836001611b4a565b505050565b6000806112b484611549565b9050600073ffffffffffffffffffffffffffffffffffffffff168373ffffffffffffffffffffffffffffffffffffffff16146112f6576112f5818486611d0f565b5b600073ffffffffffffffffffffffffffffffffffffffff168173ffffffffffffffffffffffffffffffffffffffff161461138757611338600085600080611b4a565b6001600360008373ffffffffffffffffffffffffffffffffffffffff1673ffffffffffffffffffffffffffffffffffffffff168152602001908152602001600020600082825403925050819055505b600073ffffffffffffffffffffffffffffffffffffffff168573ffffffffffffffffffffffffffffffffffffffff161461140a576001600360008773ffffffffffffffffffffffffffffffffffffffff1673ffffffffffffffffffffffffffffffffffffffff168152602001908152602001600020600082825401925050819055505b846002600086815260200190815260200160002060006101000a81548173ffffffffffffffffffffffffffffffffffffffff021916908373ffffffffffffffffffffffffffffffffffffffff160217905550838573ffffffffffffffffffffffffffffffffffffffff168273ffffffffffffffffffffffffffffffffffffffff167fddf252ad1be2c89b69c2b068fc378daa952ba7f163c4a11628f55a4df523b3ef60405160405180910390a4809150509392505050565b6114ca61128e565b73ffffffffffffffffffffffffffffffffffffffff166114e8610bbb565b73ffffffffffffffffffffffffffffffffffffffff16146115475761150b61128e565b6040517f118cdaa700000000000000000000000000000000000000000000000000000000815260040161153e919061220c565b60405180910390fd5b565b60006002600083815260200190815260200160002060009054906101000a900473ffffffffffffffffffffffffffffffffffffffff169050919050565b600073ffffffffffffffffffffffffffffffffffffffff168273ffffffffffffffffffffffffffffffffffffffff16036115f85760006040517f64a0ae920000000000000000000000000000000000000000000000000000000081526004016115ef919061220c565b60405180910390fd5b6000611606838360006112a8565b9050600073ffffffffffffffffffffffffffffffffffffffff168173ffffffffffffffffffffffffffffffffffffffff161461167a5760006040517f73c6ac6e000000000000000000000000000000000000000000000000000000008152600401611671919061220c565b60405180910390fd5b505050565b6000600660009054906101000a900473ffffffffffffffffffffffffffffffffffffffff16905081600660006101000a81548173ffffffffffffffffffffffffffffffffffffffff021916908373ffffffffffffffffffffffffffffffffffffffff1602179055508173ffffffffffffffffffffffffffffffffffffffff168173ffffffffffffffffffffffffffffffffffffffff167f8be0079c531659141344cd1fd0a4f28419497f9722a3daafe3b4186f6b6457e060405160405180910390a35050565b600073ffffffffffffffffffffffffffffffffffffffff168273ffffffffffffffffffffffffffffffffffffffff16036117b657816040517f5b08ba180000000000000000000000000000000000000000000000000000000081526004016117ad919061220c565b60405180910390fd5b80600560008573ffffffffffffffffffffffffffffffffffffffff1673ffffffffffffffffffffffffffffffffffffffff16815260200190815260200160002060008473ffffffffffffffffffffffffffffffffffffffff1673ffffffffffffffffffffffffffffffffffffffff16815260200190815260200160002060006101000a81548160ff0219169083151502179055508173ffffffffffffffffffffffffffffffffffffffff168373ffffffffffffffffffffffffffffffffffffffff167f17307eab39ab6107e8899845ad3d59bd9653f200f220920489ca2b5937696c31836040516118a7919061209b565b60405180910390a3505050565b60008373ffffffffffffffffffffffffffffffffffffffff163b1115611a5e578273ffffffffffffffffffffffffffffffffffffffff1663150b7a02868685856040518563ffffffff1660e01b81526004016119139493929190612a74565b6020604051808303816000875af192505050801561194f57506040513d601f19601f8201168201806040525081019061194c9190612ad5565b60015b6119d3573d806000811461197f576040519150601f19603f3d011682016040523d82523d6000602084013e611984565b606091505b5060008151036119cb57836040517f64a0ae920000000000000000000000000000000000000000000000000000000081526004016119c2919061220c565b60405180910390fd5b805160208201fd5b63150b7a0260e01b7bffffffffffffffffffffffffffffffffffffffffffffffffffffffff1916817bffffffffffffffffffffffffffffffffffffffffffffffffffffffff191614611a5c57836040517f64a0ae92000000000000000000000000000000000000000000000000000000008152600401611a53919061220c565b60405180910390fd5b505b5050505050565b606060405180602001604052806000815250905090565b606060006001611a8b84611dd3565b01905060008167ffffffffffffffff811115611aaa57611aa96124a4565b5b6040519080825280601f01601f191660200182016040528015611adc5781602001600182028036833780820191505090505b509050600082602083010190505b600115611b3f578080600190039150507f3031323334353637383961626364656600000000000000000000000000000000600a86061a8153600a8581611b3357611b32612b02565b5b04945060008503611aea575b819350505050919050565b8080611b835750600073ffffffffffffffffffffffffffffffffffffffff168273ffffffffffffffffffffffffffffffffffffffff1614155b15611cb7576000611b93846111c9565b9050600073ffffffffffffffffffffffffffffffffffffffff168373ffffffffffffffffffffffffffffffffffffffff1614158015611bfe57508273ffffffffffffffffffffffffffffffffffffffff168173ffffffffffffffffffffffffffffffffffffffff1614155b8015611c115750611c0f8184611045565b155b15611c5357826040517fa9fbf51f000000000000000000000000000000000000000000000000000000008152600401611c4a919061220c565b60405180910390fd5b8115611cb557838573ffffffffffffffffffffffffffffffffffffffff168273ffffffffffffffffffffffffffffffffffffffff167f8c5be1e5ebec7d5bd14f71427d1e84f3dd0314c0f7b2291e5b200ac8c7c3b92560405160405180910390a45b505b836004600085815260200190815260200160002060006101000a81548173ffffffffffffffffffffffffffffffffffffffff021916908373ffffffffffffffffffffffffffffffffffffffff16021790555050505050565b611d1a838383611f26565b611dce57600073ffffffffffffffffffffffffffffffffffffffff168373ffffffffffffffffffffffffffffffffffffffff1603611d8f57806040517f7e273289000000000000000000000000000000000000000000000000000000008152600401611d869190612413565b60405180910390fd5b81816040517f177e802f000000000000000000000000000000000000000000000000000000008152600401611dc5929190612b31565b60405180910390fd5b505050565b600080600090507a184f03e93ff9f4daa797ed6e38ed64bf6a1f0100000000000000008310611e31577a184f03e93ff9f4daa797ed6e38ed64bf6a1f0100000000000000008381611e2757611e26612b02565b5b0492506040810190505b6d04ee2d6d415b85acef81000000008310611e6e576d04ee2d6d415b85acef81000000008381611e6457611e63612b02565b5b0492506020810190505b662386f26fc100008310611e9d57662386f26fc100008381611e9357611e92612b02565b5b0492506010810190505b6305f5e1008310611ec6576305f5e1008381611ebc57611ebb612b02565b5b0492506008810190505b6127108310611eeb576127108381611ee157611ee0612b02565b5b0492506004810190505b60648310611f0e5760648381611f0457611f03612b02565b5b0492506002810190505b600a8310611f1d576001810190505b80915050919050565b60008073ffffffffffffffffffffffffffffffffffffffff168373ffffffffffffffffffffffffffffffffffffffff1614158015611fde57508273ffffffffffffffffffffffffffffffffffffffff168473ffffffffffffffffffffffffffffffffffffffff161480611f9f5750611f9e8484611045565b5b80611fdd57508273ffffffffffffffffffffffffffffffffffffffff16611fc583611251565b73ffffffffffffffffffffffffffffffffffffffff16145b5b90509392505050565b6000604051905090565b600080fd5b600080fd5b60007fffffffff0000000000000000000000000000000000000000000000000000000082169050919050565b61203081611ffb565b811461203b57600080fd5b50565b60008135905061204d81612027565b92915050565b60006020828403121561206957612068611ff1565b5b60006120778482850161203e565b91505092915050565b60008115159050919050565b61209581612080565b82525050565b60006020820190506120b0600083018461208c565b92915050565b600081519050919050565b600082825260208201905092915050565b60005b838110156120f05780820151818401526020810190506120d5565b60008484015250505050565b6000601f19601f8301169050919050565b6000612118826120b6565b61212281856120c1565b93506121328185602086016120d2565b61213b816120fc565b840191505092915050565b60006020820190508181036000830152612160818461210d565b905092915050565b6000819050919050565b61217b81612168565b811461218657600080fd5b50565b60008135905061219881612172565b92915050565b6000602082840312156121b4576121b3611ff1565b5b60006121c284828501612189565b91505092915050565b600073ffffffffffffffffffffffffffffffffffffffff82169050919050565b60006121f6826121cb565b9050919050565b612206816121eb565b82525050565b600060208201905061222160008301846121fd565b92915050565b612230816121eb565b811461223b57600080fd5b50565b60008135905061224d81612227565b92915050565b6000806040838503121561226a57612269611ff1565b5b60006122788582860161223e565b925050602061228985828601612189565b9150509250929050565b6000819050919050565b6122a681612293565b81146122b157600080fd5b50565b6000813590506122c38161229d565b92915050565b6000806000606084860312156122e2576122e1611ff1565b5b60006122f086828701612189565b9350506020612301868287016122b4565b92505060406123128682870161223e565b9150509250925092565b60008060006060848603121561233557612334611ff1565b5b60006123438682870161223e565b93505060206123548682870161223e565b925050604061236586828701612189565b9150509250925092565b600067ffffffffffffffff82169050919050565b61238c8161236f565b82525050565b60006020820190506123a76000830184612383565b92915050565b6123b681612293565b82525050565b60006020820190506123d160008301846123ad565b92915050565b6000602082840312156123ed576123ec611ff1565b5b60006123fb8482850161223e565b91505092915050565b61240d81612168565b82525050565b60006020820190506124286000830184612404565b92915050565b61243781612080565b811461244257600080fd5b50565b6000813590506124548161242e565b92915050565b6000806040838503121561247157612470611ff1565b5b600061247f8582860161223e565b925050602061249085828601612445565b9150509250929050565b600080fd5b600080fd5b7f4e487b7100000000000000000000000000000000000000000000000000000000600052604160045260246000fd5b6124dc826120fc565b810181811067ffffffffffffffff821117156124fb576124fa6124a4565b5b80604052505050565b600061250e611fe7565b905061251a82826124d3565b919050565b600067ffffffffffffffff82111561253a576125396124a4565b5b612543826120fc565b9050602081019050919050565b82818337600083830152505050565b600061257261256d8461251f565b612504565b90508281526020810184848401111561258e5761258d61249f565b5b612599848285612550565b509392505050565b600082601f8301126125b6576125b561249a565b5b81356125c684826020860161255f565b91505092915050565b600080600080608085870312156125e9576125e8611ff1565b5b60006125f78782880161223e565b94505060206126088782880161223e565b935050604061261987828801612189565b925050606085013567ffffffffffffffff81111561263a57612639611ff6565b5b612646878288016125a1565b91505092959194509250565b61265b8161236f565b811461266657600080fd5b50565b60008135905061267881612652565b92915050565b6000806000806080858703121561269857612697611ff1565b5b60006126a687828801612189565b94505060206126b7878288016122b4565b93505060406126c88782880161223e565b92505060606126d987828801612669565b91505092959194509250565b600080604083850312156126fc576126fb611ff1565b5b600061270a85828601612189565b925050602061271b858286016122b4565b9150509250929050565b600081519050919050565b600082825260208201905092915050565b6000819050602082019050919050565b61275a816121eb565b82525050565b600061276c8383612751565b60208301905092915050565b6000602082019050919050565b600061279082612725565b61279a8185612730565b93506127a583612741565b8060005b838110156127d65781516127bd8882612760565b97506127c883612778565b9250506001810190506127a9565b5085935050505092915050565b600060208201905081810360008301526127fd8184612785565b905092915050565b6000806040838503121561281c5761281b611ff1565b5b600061282a8582860161223e565b925050602061283b8582860161223e565b9150509250929050565b7f4e487b7100000000000000000000000000000000000000000000000000000000600052602260045260246000fd5b6000600282049050600182168061288c57607f821691505b60208210810361289f5761289e612845565b5b50919050565b60006060820190506128ba60008301866121fd565b6128c76020830185612404565b6128d460408301846121fd565b949350505050565b7f546f6b656e20646f6573206e6f74206578697374000000000000000000000000600082015250565b60006129126014836120c1565b915061291d826128dc565b602082019050919050565b6000602082019050818103600083015261294181612905565b9050919050565b7f4e487b7100000000000000000000000000000000000000000000000000000000600052601160045260246000fd5b600061298282612168565b91507fffffffffffffffffffffffffffffffffffffffffffffffffffffffffffffffff82036129b4576129b3612948565b5b600182019050919050565b600081905092915050565b60006129d5826120b6565b6129df81856129bf565b93506129ef8185602086016120d2565b80840191505092915050565b6000612a0782856129ca565b9150612a1382846129ca565b91508190509392505050565b600081519050919050565b600082825260208201905092915050565b6000612a4682612a1f565b612a508185612a2a565b9350612a608185602086016120d2565b612a69816120fc565b840191505092915050565b6000608082019050612a8960008301876121fd565b612a9660208301866121fd565b612aa36040830185612404565b8181036060830152612ab58184612a3b565b905095945050505050565b600081519050612acf81612027565b92915050565b600060208284031215612aeb57612aea611ff1565b5b6000612af984828501612ac0565b91505092915050565b7f4e487b7100000000000000000000000000000000000000000000000000000000600052601260045260246000fd5b6000604082019050612b4660008301856121fd565b612b536020830184612404565b939250505056fea26469706673582212205e6d7872fb1d96e268c0085ac97c4652e7a16e7d43da9bd0989c100753de734464736f6c634300081c0033",
  "linkReferences": {},
  "deployedLinkReferences": {}
}