{"abi":[{"type":"constructor","inputs":[],"stateMutability":"nonpayable"},{"type":"function","name":"DOMAIN_SEPARATOR","inputs":[],"outputs":[{"name":"","type":"bytes32","internalType":"bytes32"}],"stateMutability":"view"},{"type":"function","name":"allowance","inputs":[{"name":"owner","type":"address","internalType":"address"},{"name":"spender","type":"address","internalType":"address"}],"outputs":[{"name":"","type":"uint256","internalType":"uint256"}],"stateMutability":"view"},{"type":"function","name":"approve","inputs":[{"name":"spender","type":"address","internalType":"address"},{"name":"value","type":"uint256","internalType":"uint256"}],"outputs":[{"name":"","type":"bool","internalType":"bool"}],"stateMutability":"nonpayable"},{"type":"function","name":"balanceOf","inputs":[{"name":"account","type":"address","internalType":"address"}],"outputs":[{"name":"","type":"uint256","internalType":"uint256"}],"stateMutability":"view"},{"type":"function","name":"decimals","inputs":[],"outputs":[{"name":"","type":"uint8","internalType":"uint8"}],"stateMutability":"view"},{"type":"function","name":"eip712Domain","inputs":[],"outputs":[{"name":"fields","type":"bytes1","internalType":"bytes1"},{"name":"name","type":"string","internalType":"string"},{"name":"version","type":"string","internalType":"string"},{"name":"chainId","type":"uint256","internalType":"uint256"},{"name":"verifyingContract","type":"address","internalType":"address"},{"name":"salt","type":"bytes32","internalType":"bytes32"},{"name":"extensions","type":"uint256[]","internalType":"uint256[]"}],"stateMutability":"view"},{"type":"function","name":"name","inputs":[],"outputs":[{"name":"","type":"string","internalType":"string"}],"stateMutability":"view"},{"type":"function","name":"nonces","inputs":[{"name":"owner","type":"address","internalType":"address"}],"outputs":[{"name":"","type":"uint256","internalType":"uint256"}],"stateMutability":"view"},{"type":"function","name":"permit","inputs":[{"name":"owner","type":"address","internalType":"address"},{"name":"spender","type":"address","internalType":"address"},{"name":"value","type":"uint256","internalType":"uint256"},{"name":"deadline","type":"uint256","internalType":"uint256"},{"name":"v","type":"uint8","internalType":"uint8"},{"name":"r","type":"bytes32","internalType":"bytes32"},{"name":"s","type":"bytes32","internalType":"bytes32"}],"outputs":[],"stateMutability":"nonpayable"},{"type":"function","name":"symbol","inputs":[],"outputs":[{"name":"","type":"string","internalType":"string"}],"stateMutability":"view"},{"type":"function","name":"totalSupply","inputs":[],"outputs":[{"name":"","type":"uint256","internalType":"uint256"}],"stateMutability":"view"},{"type":"function","name":"transfer","inputs":[{"name":"to","type":"address","internalType":"address"},{"name":"value","type":"uint256","internalType":"uint256"}],"outputs":[{"name":"","type":"bool","internalType":"bool"}],"stateMutability":"nonpayable"},{"type":"function","name":"transferFrom","inputs":[{"name":"from","type":"address","internalType":"address"},{"name":"to","type":"address","internalType":"address"},{"name":"value","type":"uint256","internalType":"uint256"}],"outputs":[{"name":"","type":"bool","internalType":"bool"}],"stateMutability":"nonpayable"},{"type":"event","name":"Approval","inputs":[{"name":"owner","type":"address","indexed":true,"internalType":"address"},{"name":"spender","type":"address","indexed":true,"internalType":"address"},{"name":"value","type":"uint256","indexed":false,"internalType":"uint256"}],"anonymous":false},{"type":"event","name":"EIP712DomainChanged","inputs":[],"anonymous":false},{"type":"event","name":"Transfer","inputs":[{"name":"from","type":"address","indexed":true,"internalType":"address"},{"name":"to","type":"address","indexed":true,"internalType":"address"},{"name":"value","type":"uint256","indexed":false,"internalType":"uint256"}],"anonymous":false},{"type":"error","name":"ECDSAInvalidSignature","inputs":[]},{"type":"error","name":"ECDSAInvalidSignatureLength","inputs":[{"name":"length","type":"uint256","internalType":"uint256"}]},{"type":"error","name":"ECDSAInvalidSignatureS","inputs":[{"name":"s","type":"bytes32","internalType":"bytes32"}]},{"type":"error","name":"ERC20InsufficientAllowance","inputs":[{"name":"spender","type":"address","internalType":"address"},{"name":"allowance","type":"uint256","internalType":"uint256"},{"name":"needed","type":"uint256","internalType":"uint256"}]},{"type":"error","name":"ERC20InsufficientBalance","inputs":[{"name":"sender","type":"address","internalType":"address"},{"name":"balance","type":"uint256","internalType":"uint256"},{"name":"needed","type":"uint256","internalType":"uint256"}]},{"type":"error","name":"ERC20InvalidApprover","inputs":[{"name":"approver","type":"address","internalType":"address"}]},{"type":"error","name":"ERC20InvalidReceiver","inputs":[{"name":"receiver","type":"address","internalType":"address"}]},{"type":"error","name":"ERC20InvalidSender","inputs":[{"name":"sender","type":"address","internalType":"address"}]},{"type":"error","name":"ERC20InvalidSpender","inputs":[{"name":"spender","type":"address","internalType":"address"}]},{"type":"error","name":"ERC2612ExpiredSignature","inputs":[{"name":"deadline","type":"uint256","internalType":"uint256"}]},{"type":"error","name":"ERC2612InvalidSigner","inputs":[{"name":"signer","type":"address","internalType":"address"},{"name":"owner","type":"address","internalType":"address"}]},{"type":"error","name":"InvalidAccountNonce","inputs":[{"name":"account","type":"address","internalType":"address"},{"name":"currentNonce","type":"uint256","internalType":"uint256"}]},{"type":"error","name":"InvalidShortString","inputs":[]},{"type":"error","name":"StringTooLong","inputs":[{"name":"str","type":"string","internalType":"string"}]}],"bytecode":{"object":"0x610160604052346104c7576040516100186040826104cb565b600a815260208101692bb7b633102a37b5b2b760b11b81526040519061003f6040836104cb565b600b82526a02bb7b633102a37b5b2b7160ad1b6020830152604051926100666040856104cb565b600384526257544b60e81b6020850152604051936100856040866104cb565b60018552603160f81b60208601908152845190946001600160401b0382116103ca5760035490600182811c921680156104bd575b60208310146103ac5781601f84931161044f575b50602090601f83116001146103e9575f926103de575b50508160011b915f199060031b1c1916176003555b8051906001600160401b0382116103ca5760045490600182811c921680156103c0575b60208310146103ac5781601f84931161033e575b50602090601f83116001146102d8575f926102cd575b50508160011b915f199060031b1c1916176004555b610163816104ee565b6101205261017084610675565b61014052519020918260e05251902080610100524660a0526040519060208201927f8b73c3c69bb8fe3d512ecc4cf759cc79239f7b179b0ffacaa9a75d522b39400f8452604083015260608201524660808201523060a082015260a081526101d960c0826104cb565b5190206080523060c05233156102ba5760025469d3c21bcecceda100000081018091116102a657600255335f525f60205260405f2069d3c21bcecceda1000000815401905560405169d3c21bcecceda100000081525f7fddf252ad1be2c89b69c2b068fc378daa952ba7f163c4a11628f55a4df523b3ef60203393a3604051610c0b90816107ae8239608051816108f4015260a051816109b1015260c051816108be015260e05181610943015261010051816109690152610120518161036f015261014051816103980152f35b634e487b7160e01b5f52601160045260245ffd5b63ec442f0560e01b5f525f60045260245ffd5b015190505f80610145565b60045f9081528281209350601f198516905b818110610326575090846001959493921061030e575b505050811b0160045561015a565b01515f1960f88460031b161c191690555f8080610300565b929360206001819287860151815501950193016102ea565b60045f529091507f8a35acfbc15ff81a39ae7d344fd709f28e8600b4aa8c65c6b64bfe7fe36bd19b601f840160051c810191602085106103a2575b90601f859493920160051c01905b818110610394575061012f565b5f8155849350600101610387565b9091508190610379565b634e487b7160e01b5f52602260045260245ffd5b91607f169161011b565b634e487b7160e01b5f52604160045260245ffd5b015190505f806100e3565b60035f9081528281209350601f198516905b818110610437575090846001959493921061041f575b505050811b016003556100f8565b01515f1960f88460031b161c191690555f8080610411565b929360206001819287860151815501950193016103fb565b60035f529091507fc2575a0e9e593c00f959f8c92f12db2869c3395a3b0502d05e2516446f71f85b601f840160051c810191602085106104b3575b90601f859493920160051c01905b8181106104a557506100cd565b5f8155849350600101610498565b909150819061048a565b91607f16916100b9565b5f80fd5b601f909101601f19168101906001600160401b038211908210176103ca57604052565b908151602081105f14610568575090601f815111610528576020815191015160208210610519571790565b5f198260200360031b1b161790565b604460209160405192839163305a27a960e01b83528160048401528051918291826024860152018484015e5f828201840152601f01601f19168101030190fd5b6001600160401b0381116103ca57600554600181811c9116801561066b575b60208210146103ac57601f8111610638575b50602092601f82116001146105d757928192935f926105cc575b50508160011b915f199060031b1c19161760055560ff90565b015190505f806105b3565b601f1982169360055f52805f20915f5b8681106106205750836001959610610608575b505050811b0160055560ff90565b01515f1960f88460031b161c191690555f80806105fa565b919260206001819286850151815501940192016105e7565b60055f52601f60205f20910160051c810190601f830160051c015b8181106106605750610599565b5f8155600101610653565b90607f1690610587565b908151602081105f146106a0575090601f815111610528576020815191015160208210610519571790565b6001600160401b0381116103ca57600654600181811c911680156107a3575b60208210146103ac57601f8111610770575b50602092601f821160011461070f57928192935f92610704575b50508160011b915f199060031b1c19161760065560ff90565b015190505f806106eb565b601f1982169360065f52805f20915f5b8681106107585750836001959610610740575b505050811b0160065560ff90565b01515f1960f88460031b161c191690555f8080610732565b9192602060018192868501518155019401920161071f565b60065f52601f60205f20910160051c810190601f830160051c015b81811061079857506106d1565b5f815560010161078b565b90607f16906106bf56fe6080806040526004361015610012575f80fd5b5f3560e01c90816306fdde031461061d57508063095ea7b3146105f757806318160ddd146105da57806323b872dd146104fb578063313ce567146104e05780633644e515146104be57806370a08231146104875780637ecebe001461044f57806384b0196e1461035757806395d89b4114610275578063a9059cbb14610244578063d505accf146100ff5763dd62ed3e146100ab575f80fd5b346100fb5760403660031901126100fb576100c46106e3565b6100cc6106f9565b6001600160a01b039182165f908152600160209081526040808320949093168252928352819020549051908152f35b5f80fd5b346100fb5760e03660031901126100fb576101186106e3565b6101206106f9565b604435906064359260843560ff811681036100fb57844211610231576101f46101fd9160018060a01b03841696875f52600760205260405f20908154916001830190556040519060208201927f6e71edae12b1b97f4d1f60370fef10105fa2faae0126114a169c64845d6126c984528a604084015260018060a01b038916606084015289608084015260a083015260c082015260c081526101c260e0826107c8565b5190206101cd6108bb565b906040519161190160f01b83526002830152602282015260c43591604260a4359220610ad4565b90929192610b61565b6001600160a01b031684810361021a575061021893506109d7565b005b84906325c0072360e11b5f5260045260245260445ffd5b8463313c898160e11b5f5260045260245ffd5b346100fb5760403660031901126100fb5761026a6102606106e3565b60243590336107fe565b602060405160018152f35b346100fb575f3660031901126100fb576040515f6004546102958161070f565b808452906001811690811561033357506001146102d5575b6102d1836102bd818503826107c8565b6040519182916020835260208301906106bf565b0390f35b60045f9081527f8a35acfbc15ff81a39ae7d344fd709f28e8600b4aa8c65c6b64bfe7fe36bd19b939250905b808210610319575090915081016020016102bd6102ad565b919260018160209254838588010152019101909291610301565b60ff191660208086019190915291151560051b840190910191506102bd90506102ad565b346100fb575f3660031901126100fb576103f36103937f0000000000000000000000000000000000000000000000000000000000000000610a3a565b6103bc7f0000000000000000000000000000000000000000000000000000000000000000610a9d565b6020610401604051926103cf83856107c8565b5f84525f368137604051958695600f60f81b875260e08588015260e08701906106bf565b9085820360408701526106bf565b4660608501523060808501525f60a085015283810360c08501528180845192838152019301915f5b82811061043857505050500390f35b835185528695509381019392810192600101610429565b346100fb5760203660031901126100fb576001600160a01b036104706106e3565b165f526007602052602060405f2054604051908152f35b346100fb5760203660031901126100fb576001600160a01b036104a86106e3565b165f525f602052602060405f2054604051908152f35b346100fb575f3660031901126100fb5760206104d86108bb565b604051908152f35b346100fb575f3660031901126100fb57602060405160128152f35b346100fb5760603660031901126100fb576105146106e3565b61051c6106f9565b6001600160a01b0382165f818152600160209081526040808320338452909152902054909260443592915f19811061055a575b5061026a93506107fe565b8381106105bf5784156105ac5733156105995761026a945f52600160205260405f2060018060a01b0333165f526020528360405f20910390558461054f565b634a1406b160e11b5f525f60045260245ffd5b63e602df0560e01b5f525f60045260245ffd5b8390637dc7a0d960e11b5f523360045260245260445260645ffd5b346100fb575f3660031901126100fb576020600254604051908152f35b346100fb5760403660031901126100fb5761026a6106136106e3565b60243590336109d7565b346100fb575f3660031901126100fb575f60035461063a8161070f565b80845290600181169081156103335750600114610661576102d1836102bd818503826107c8565b60035f9081527fc2575a0e9e593c00f959f8c92f12db2869c3395a3b0502d05e2516446f71f85b939250905b8082106106a5575090915081016020016102bd6102ad565b91926001816020925483858801015201910190929161068d565b805180835260209291819084018484015e5f828201840152601f01601f1916010190565b600435906001600160a01b03821682036100fb57565b602435906001600160a01b03821682036100fb57565b90600182811c9216801561073d575b602083101461072957565b634e487b7160e01b5f52602260045260245ffd5b91607f169161071e565b5f92918154916107568361070f565b80835292600181169081156107ab575060011461077257505050565b5f9081526020812093945091925b838310610791575060209250010190565b600181602092949394548385870101520191019190610780565b915050602093945060ff929192191683830152151560051b010190565b90601f8019910116810190811067ffffffffffffffff8211176107ea57604052565b634e487b7160e01b5f52604160045260245ffd5b6001600160a01b03169081156108a8576001600160a01b031691821561089557815f525f60205260405f205481811061087c57817fddf252ad1be2c89b69c2b068fc378daa952ba7f163c4a11628f55a4df523b3ef92602092855f525f84520360405f2055845f525f825260405f20818154019055604051908152a3565b8263391434e360e21b5f5260045260245260445260645ffd5b63ec442f0560e01b5f525f60045260245ffd5b634b637e8f60e11b5f525f60045260245ffd5b307f00000000000000000000000000000000000000000000000000000000000000006001600160a01b031614806109ae575b15610916577f000000000000000000000000000000000000000000000000000000000000000090565b60405160208101907f8b73c3c69bb8fe3d512ecc4cf759cc79239f7b179b0ffacaa9a75d522b39400f82527f000000000000000000000000000000000000000000000000000000000000000060408201527f000000000000000000000000000000000000000000000000000000000000000060608201524660808201523060a082015260a081526109a860c0826107c8565b51902090565b507f000000000000000000000000000000000000000000000000000000000000000046146108ed565b6001600160a01b03169081156105ac576001600160a01b03169182156105995760207f8c5be1e5ebec7d5bd14f71427d1e84f3dd0314c0f7b2291e5b200ac8c7c3b92591835f526001825260405f20855f5282528060405f2055604051908152a3565b60ff8114610a805760ff811690601f8211610a715760405191610a5e6040846107c8565b6020808452838101919036833783525290565b632cd44ac360e21b5f5260045ffd5b50604051610a9a81610a93816005610747565b03826107c8565b90565b60ff8114610ac15760ff811690601f8211610a715760405191610a5e6040846107c8565b50604051610a9a81610a93816006610747565b91907f7fffffffffffffffffffffffffffffff5d576e7357a4501ddfe92f46681b20a08411610b56579160209360809260ff5f9560405194855216868401526040830152606082015282805260015afa15610b4b575f516001600160a01b03811615610b4157905f905f90565b505f906001905f90565b6040513d5f823e3d90fd5b5050505f9160039190565b6004811015610bc15780610b73575050565b60018103610b8a5763f645eedf60e01b5f5260045ffd5b60028103610ba5575063fce698f760e01b5f5260045260245ffd5b600314610baf5750565b6335e2f38360e21b5f5260045260245ffd5b634e487b7160e01b5f52602160045260245ffdfea264697066735822122006ef8e459eb6595bda0c1192b2e64e11332463a7a0392e50886de20169e82c0364736f6c634300081c0033","linkReferences":{}},"methodIdentifiers":{"DOMAIN_SEPARATOR()":"3644e515","allowance(address,address)":"dd62ed3e","approve(address,uint256)":"095ea7b3","balanceOf(address)":"70a08231","decimals()":"313ce567","eip712Domain()":"84b0196e","name()":"06fdde03","nonces(address)":"7ecebe00","permit(address,address,uint256,uint256,uint8,bytes32,bytes32)":"d505accf","symbol()":"95d89b41","totalSupply()":"18160ddd","transfer(address,uint256)":"a9059cbb","transferFrom(address,address,uint256)":"23b872dd"},"id":32}