{
  "_format": "hh-sol-artifact-1",
  "contractName": "LudoToken",
  "sourceName": "contracts/LudoToken.sol",
  "abi": [
    {
      "inputs": [],
      "stateMutability": "nonpayable",
      "type": "constructor"
    },
    {
      "inputs": [
        {
          "internalType": "address",
          "name": "spender",
          "type": "address"
        },
        {
          "internalType": "uint256",
          "name": "allowance",
          "type": "uint256"
        },
        {
          "internalType": "uint256",
          "name": "needed",
          "type": "uint256"
        }
      ],
      "name": "ERC20InsufficientAllowance",
      "type": "error"
    },
    {
      "inputs": [
        {
          "internalType": "address",
          "name": "sender",
          "type": "address"
        },
        {
          "internalType": "uint256",
          "name": "balance",
          "type": "uint256"
        },
        {
          "internalType": "uint256",
          "name": "needed",
          "type": "uint256"
        }
      ],
      "name": "ERC20InsufficientBalance",
      "type": "error"
    },
    {
      "inputs": [
        {
          "internalType": "address",
          "name": "approver",
          "type": "address"
        }
      ],
      "name": "ERC20InvalidApprover",
      "type": "error"
    },
    {
      "inputs": [
        {
          "internalType": "address",
          "name": "receiver",
          "type": "address"
        }
      ],
      "name": "ERC20InvalidReceiver",
      "type": "error"
    },
    {
      "inputs": [
        {
          "internalType": "address",
          "name": "sender",
          "type": "address"
        }
      ],
      "name": "ERC20InvalidSender",
      "type": "error"
    },
    {
      "inputs": [
        {
          "internalType": "address",
          "name": "spender",
          "type": "address"
        }
      ],
      "name": "ERC20InvalidSpender",
      "type": "error"
    },
    {
      "inputs": [
        {
          "internalType": "address",
          "name": "owner",
          "type": "address"
        }
      ],
      "name": "OwnableInvalidOwner",
      "type": "error"
    },
    {
      "inputs": [
        {
          "internalType": "address",
          "name": "account",
          "type": "address"
        }
      ],
      "name": "OwnableUnauthorizedAccount",
      "type": "error"
    },
    {
      "anonymous": false,
      "inputs": [
        {
          "indexed": true,
          "internalType": "address",
          "name": "owner",
          "type": "address"
        },
        {
          "indexed": true,
          "internalType": "address",
          "name": "spender",
          "type": "address"
        },
        {
          "indexed": false,
          "internalType": "uint256",
          "name": "value",
          "type": "uint256"
        }
      ],
      "name": "Approval",
      "type": "event"
    },
    {
      "anonymous": false,
      "inputs": [
        {
          "indexed": true,
          "internalType": "address",
          "name": "previousOwner",
          "type": "address"
        },
        {
          "indexed": true,
          "internalType": "address",
          "name": "newOwner",
          "type": "address"
        }
      ],
      "name": "OwnershipTransferred",
      "type": "event"
    },
    {
      "anonymous": false,
      "inputs": [
        {
          "indexed": true,
          "internalType": "address",
          "name": "from",
          "type": "address"
        },
        {
          "indexed": true,
          "internalType": "address",
          "name": "to",
          "type": "address"
        },
        {
          "indexed": false,
          "internalType": "uint256",
          "name": "value",
          "type": "uint256"
        }
      ],
      "name": "Transfer",
      "type": "event"
    },
    {
      "inputs": [],
      "name": "INITIAL_SUPPLY",
      "outputs": [
        {
          "internalType": "uint256",
          "name": "",
          "type": "uint256"
        }
      ],
      "stateMutability": "view",
      "type": "function"
    },
    {
      "inputs": [
        {
          "internalType": "address",
          "name": "owner",
          "type": "address"
        },
        {
          "internalType": "address",
          "name": "spender",
          "type": "address"
        }
      ],
      "name": "allowance",
      "outputs": [
        {
          "internalType": "uint256",
          "name": "",
          "type": "uint256"
        }
      ],
      "stateMutability": "view",
      "type": "function"
    },
    {
      "inputs": [
        {
          "internalType": "address",
          "name": "spender",
          "type": "address"
        },
        {
          "internalType": "uint256",
          "name": "value",
          "type": "uint256"
        }
      ],
      "name": "approve",
      "outputs": [
        {
          "internalType": "bool",
          "name": "",
          "type": "bool"
        }
      ],
      "stateMutability": "nonpayable",
      "type": "function"
    },
    {
      "inputs": [
        {
          "internalType": "address",
          "name": "account",
          "type": "address"
        }
      ],
      "name": "balanceOf",
      "outputs": [
        {
          "internalType": "uint256",
          "name": "",
          "type": "uint256"
        }
      ],
      "stateMutability": "view",
      "type": "function"
    },
    {
      "inputs": [
        {
          "internalType": "uint256",
          "name": "amount",
          "type": "uint256"
        }
      ],
      "name": "burn",
      "outputs": [],
      "stateMutability": "nonpayable",
      "type": "function"
    },
    {
      "inputs": [],
      "name": "decimals",
      "outputs": [
        {
          "internalType": "uint8",
          "name": "",
          "type": "uint8"
        }
      ],
      "stateMutability": "view",
      "type": "function"
    },
    {
      "inputs": [
        {
          "internalType": "address[]",
          "name": "recipients",
          "type": "address[]"
        },
        {
          "internalType": "uint256[]",
          "name": "amounts",
          "type": "uint256[]"
        }
      ],
      "name": "distributeTokens",
      "outputs": [],
      "stateMutability": "nonpayable",
      "type": "function"
    },
    {
      "inputs": [
        {
          "internalType": "address",
          "name": "to",
          "type": "address"
        },
        {
          "internalType": "uint256",
          "name": "amount",
          "type": "uint256"
        }
      ],
      "name": "mint",
      "outputs": [],
      "stateMutability": "nonpayable",
      "type": "function"
    },
    {
      "inputs": [],
      "name": "name",
      "outputs": [
        {
          "internalType": "string",
          "name": "",
          "type": "string"
        }
      ],
      "stateMutability": "view",
      "type": "function"
    },
    {
      "inputs": [],
      "name": "owner",
      "outputs": [
        {
          "internalType": "address",
          "name": "",
          "type": "address"
        }
      ],
      "stateMutability": "view",
      "type": "function"
    },
    {
      "inputs": [],
      "name": "renounceOwnership",
      "outputs": [],
      "stateMutability": "nonpayable",
      "type": "function"
    },
    {
      "inputs": [],
      "name": "symbol",
      "outputs": [
        {
          "internalType": "string",
          "name": "",
          "type": "string"
        }
      ],
      "stateMutability": "view",
      "type": "function"
    },
    {
      "inputs": [],
      "name": "totalSupply",
      "outputs": [
        {
          "internalType": "uint256",
          "name": "",
          "type": "uint256"
        }
      ],
      "stateMutability": "view",
      "type": "function"
    },
    {
      "inputs": [
        {
          "internalType": "address",
          "name": "to",
          "type": "address"
        },
        {
          "internalType": "uint256",
          "name": "value",
          "type": "uint256"
        }
      ],
      "name": "transfer",
      "outputs": [
        {
          "internalType": "bool",
          "name": "",
          "type": "bool"
        }
      ],
      "stateMutability": "nonpayable",
      "type": "function"
    },
    {
      "inputs": [
        {
          "internalType": "address",
          "name": "from",
          "type": "address"
        },
        {
          "internalType": "address",
          "name": "to",
          "type": "address"
        },
        {
          "internalType": "uint256",
          "name": "value",
          "type": "uint256"
        }
      ],
      "name": "transferFrom",
      "outputs": [
        {
          "internalType": "bool",
          "name": "",
          "type": "bool"
        }
      ],
      "stateMutability": "nonpayable",
      "type": "function"
    },
    {
      "inputs": [
        {
          "internalType": "address",
          "name": "newOwner",
          "type": "address"
        }
      ],
      "name": "transferOwnership",
      "outputs": [],
      "stateMutability": "nonpayable",
      "type": "function"
    }
  ],
  "bytecode": "0x60806040523480156200001157600080fd5b50336040518060400160405280600a81526020017f4c75646f20546f6b656e000000000000000000000000000000000000000000008152506040518060400160405280600481526020017f4c55444f0000000000000000000000000000000000000000000000000000000081525081600390816200009091906200074b565b508060049081620000a291906200074b565b505050600073ffffffffffffffffffffffffffffffffffffffff168173ffffffffffffffffffffffffffffffffffffffff16036200011a5760006040517f1e4fbdf700000000000000000000000000000000000000000000000000000000815260040162000111919062000877565b60405180910390fd5b6200012b816200014e60201b60201c565b50620001483369d3c21bcecceda10000006200021460201b60201c565b62000969565b6000600560009054906101000a900473ffffffffffffffffffffffffffffffffffffffff16905081600560006101000a81548173ffffffffffffffffffffffffffffffffffffffff021916908373ffffffffffffffffffffffffffffffffffffffff1602179055508173ffffffffffffffffffffffffffffffffffffffff168173ffffffffffffffffffffffffffffffffffffffff167f8be0079c531659141344cd1fd0a4f28419497f9722a3daafe3b4186f6b6457e060405160405180910390a35050565b600073ffffffffffffffffffffffffffffffffffffffff168273ffffffffffffffffffffffffffffffffffffffff1603620002895760006040517fec442f0500000000000000000000000000000000000000000000000000000000815260040162000280919062000877565b60405180910390fd5b6200029d60008383620002a160201b60201c565b5050565b600073ffffffffffffffffffffffffffffffffffffffff168373ffffffffffffffffffffffffffffffffffffffff1603620002f7578060026000828254620002ea9190620008c3565b92505081905550620003cd565b60008060008573ffffffffffffffffffffffffffffffffffffffff1673ffffffffffffffffffffffffffffffffffffffff1681526020019081526020016000205490508181101562000386578381836040517fe450d38c0000000000000000000000000000000000000000000000000000000081526004016200037d939291906200090f565b60405180910390fd5b8181036000808673ffffffffffffffffffffffffffffffffffffffff1673ffffffffffffffffffffffffffffffffffffffff16815260200190815260200160002081905550505b600073ffffffffffffffffffffffffffffffffffffffff168273ffffffffffffffffffffffffffffffffffffffff160362000418578060026000828254039250508190555062000465565b806000808473ffffffffffffffffffffffffffffffffffffffff1673ffffffffffffffffffffffffffffffffffffffff168152602001908152602001600020600082825401925050819055505b8173ffffffffffffffffffffffffffffffffffffffff168373ffffffffffffffffffffffffffffffffffffffff167fddf252ad1be2c89b69c2b068fc378daa952ba7f163c4a11628f55a4df523b3ef83604051620004c491906200094c565b60405180910390a3505050565b600081519050919050565b7f4e487b7100000000000000000000000000000000000000000000000000000000600052604160045260246000fd5b7f4e487b7100000000000000000000000000000000000000000000000000000000600052602260045260246000fd5b600060028204905060018216806200055357607f821691505b6020821081036200056957620005686200050b565b5b50919050565b60008190508160005260206000209050919050565b60006020601f8301049050919050565b600082821b905092915050565b600060088302620005d37fffffffffffffffffffffffffffffffffffffffffffffffffffffffffffffffff8262000594565b620005df868362000594565b95508019841693508086168417925050509392505050565b6000819050919050565b6000819050919050565b60006200062c620006266200062084620005f7565b62000601565b620005f7565b9050919050565b6000819050919050565b62000648836200060b565b62000660620006578262000633565b848454620005a1565b825550505050565b600090565b6200067762000668565b620006848184846200063d565b505050565b5b81811015620006ac57620006a06000826200066d565b6001810190506200068a565b5050565b601f821115620006fb57620006c5816200056f565b620006d08462000584565b81016020851015620006e0578190505b620006f8620006ef8562000584565b83018262000689565b50505b505050565b600082821c905092915050565b6000620007206000198460080262000700565b1980831691505092915050565b60006200073b83836200070d565b9150826002028217905092915050565b6200075682620004d1565b67ffffffffffffffff811115620007725762000771620004dc565b5b6200077e82546200053a565b6200078b828285620006b0565b600060209050601f831160018114620007c35760008415620007ae578287015190505b620007ba85826200072d565b8655506200082a565b601f198416620007d3866200056f565b60005b82811015620007fd57848901518255600182019150602085019450602081019050620007d6565b868310156200081d578489015162000819601f8916826200070d565b8355505b6001600288020188555050505b505050505050565b600073ffffffffffffffffffffffffffffffffffffffff82169050919050565b60006200085f8262000832565b9050919050565b620008718162000852565b82525050565b60006020820190506200088e600083018462000866565b92915050565b7f4e487b7100000000000000000000000000000000000000000000000000000000600052601160045260246000fd5b6000620008d082620005f7565b9150620008dd83620005f7565b9250828201905080821115620008f857620008f762000894565b5b92915050565b6200090981620005f7565b82525050565b600060608201905062000926600083018662000866565b620009356020830185620008fe565b620009446040830184620008fe565b949350505050565b6000602082019050620009636000830184620008fe565b92915050565b6115d380620009796000396000f3fe608060405234801561001057600080fd5b50600436106101005760003560e01c80634bd09c2a1161009757806395d89b411161006657806395d89b4114610289578063a9059cbb146102a7578063dd62ed3e146102d7578063f2fde38b1461030757610100565b80634bd09c2a1461021557806370a0823114610231578063715018a6146102615780638da5cb5b1461026b57610100565b80632ff2e9dc116100d35780632ff2e9dc146101a1578063313ce567146101bf57806340c10f19146101dd57806342966c68146101f957610100565b806306fdde0314610105578063095ea7b31461012357806318160ddd1461015357806323b872dd14610171575b600080fd5b61010d610323565b60405161011a9190610fd6565b60405180910390f35b61013d60048036038101906101389190611096565b6103b5565b60405161014a91906110f1565b60405180910390f35b61015b6103d8565b604051610168919061111b565b60405180910390f35b61018b60048036038101906101869190611136565b6103e2565b60405161019891906110f1565b60405180910390f35b6101a9610411565b6040516101b6919061111b565b60405180910390f35b6101c761041f565b6040516101d491906111a5565b60405180910390f35b6101f760048036038101906101f29190611096565b610428565b005b610213600480360381019061020e91906111c0565b61043e565b005b61022f600480360381019061022a91906112a8565b61044b565b005b61024b60048036038101906102469190611329565b61050e565b604051610258919061111b565b60405180910390f35b610269610556565b005b61027361056a565b6040516102809190611365565b60405180910390f35b610291610594565b60405161029e9190610fd6565b60405180910390f35b6102c160048036038101906102bc9190611096565b610626565b6040516102ce91906110f1565b60405180910390f35b6102f160048036038101906102ec9190611380565b610649565b6040516102fe919061111b565b60405180910390f35b610321600480360381019061031c9190611329565b6106d0565b005b606060038054610332906113ef565b80601f016020809104026020016040519081016040528092919081815260200182805461035e906113ef565b80156103ab5780601f10610380576101008083540402835291602001916103ab565b820191906000526020600020905b81548152906001019060200180831161038e57829003601f168201915b5050505050905090565b6000806103c0610756565b90506103cd81858561075e565b600191505092915050565b6000600254905090565b6000806103ed610756565b90506103fa858285610770565b610405858585610805565b60019150509392505050565b69d3c21bcecceda100000081565b60006012905090565b6104306108f9565b61043a8282610980565b5050565b6104483382610a02565b50565b6104536108f9565b81819050848490501461049b576040517f08c379a00000000000000000000000000000000000000000000000000000000081526004016104929061146c565b60405180910390fd5b60005b84849050811015610507576104f4338686848181106104c0576104bf61148c565b5b90506020020160208101906104d59190611329565b8585858181106104e8576104e761148c565b5b90506020020135610805565b80806104ff906114ea565b91505061049e565b5050505050565b60008060008373ffffffffffffffffffffffffffffffffffffffff1673ffffffffffffffffffffffffffffffffffffffff168152602001908152602001600020549050919050565b61055e6108f9565b6105686000610a84565b565b6000600560009054906101000a900473ffffffffffffffffffffffffffffffffffffffff16905090565b6060600480546105a3906113ef565b80601f01602080910402602001604051908101604052809291908181526020018280546105cf906113ef565b801561061c5780601f106105f15761010080835404028352916020019161061c565b820191906000526020600020905b8154815290600101906020018083116105ff57829003601f168201915b5050505050905090565b600080610631610756565b905061063e818585610805565b600191505092915050565b6000600160008473ffffffffffffffffffffffffffffffffffffffff1673ffffffffffffffffffffffffffffffffffffffff16815260200190815260200160002060008373ffffffffffffffffffffffffffffffffffffffff1673ffffffffffffffffffffffffffffffffffffffff16815260200190815260200160002054905092915050565b6106d86108f9565b600073ffffffffffffffffffffffffffffffffffffffff168173ffffffffffffffffffffffffffffffffffffffff160361074a5760006040517f1e4fbdf70000000000000000000000000000000000000000000000000000000081526004016107419190611365565b60405180910390fd5b61075381610a84565b50565b600033905090565b61076b8383836001610b4a565b505050565b600061077c8484610649565b90507fffffffffffffffffffffffffffffffffffffffffffffffffffffffffffffffff8110156107ff57818110156107ef578281836040517ffb8f41b20000000000000000000000000000000000000000000000000000000081526004016107e693929190611532565b60405180910390fd5b6107fe84848484036000610b4a565b5b50505050565b600073ffffffffffffffffffffffffffffffffffffffff168373ffffffffffffffffffffffffffffffffffffffff16036108775760006040517f96c6fd1e00000000000000000000000000000000000000000000000000000000815260040161086e9190611365565b60405180910390fd5b600073ffffffffffffffffffffffffffffffffffffffff168273ffffffffffffffffffffffffffffffffffffffff16036108e95760006040517fec442f050000000000000000000000000000000000000000000000000000000081526004016108e09190611365565b60405180910390fd5b6108f4838383610d21565b505050565b610901610756565b73ffffffffffffffffffffffffffffffffffffffff1661091f61056a565b73ffffffffffffffffffffffffffffffffffffffff161461097e57610942610756565b6040517f118cdaa70000000000000000000000000000000000000000000000000000000081526004016109759190611365565b60405180910390fd5b565b600073ffffffffffffffffffffffffffffffffffffffff168273ffffffffffffffffffffffffffffffffffffffff16036109f25760006040517fec442f050000000000000000000000000000000000000000000000000000000081526004016109e99190611365565b60405180910390fd5b6109fe60008383610d21565b5050565b600073ffffffffffffffffffffffffffffffffffffffff168273ffffffffffffffffffffffffffffffffffffffff1603610a745760006040517f96c6fd1e000000000000000000000000000000000000000000000000000000008152600401610a6b9190611365565b60405180910390fd5b610a8082600083610d21565b5050565b6000600560009054906101000a900473ffffffffffffffffffffffffffffffffffffffff16905081600560006101000a81548173ffffffffffffffffffffffffffffffffffffffff021916908373ffffffffffffffffffffffffffffffffffffffff1602179055508173ffffffffffffffffffffffffffffffffffffffff168173ffffffffffffffffffffffffffffffffffffffff167f8be0079c531659141344cd1fd0a4f28419497f9722a3daafe3b4186f6b6457e060405160405180910390a35050565b600073ffffffffffffffffffffffffffffffffffffffff168473ffffffffffffffffffffffffffffffffffffffff1603610bbc5760006040517fe602df05000000000000000000000000000000000000000000000000000000008152600401610bb39190611365565b60405180910390fd5b600073ffffffffffffffffffffffffffffffffffffffff168373ffffffffffffffffffffffffffffffffffffffff1603610c2e5760006040517f94280d62000000000000000000000000000000000000000000000000000000008152600401610c259190611365565b60405180910390fd5b81600160008673ffffffffffffffffffffffffffffffffffffffff1673ffffffffffffffffffffffffffffffffffffffff16815260200190815260200160002060008573ffffffffffffffffffffffffffffffffffffffff1673ffffffffffffffffffffffffffffffffffffffff168152602001908152602001600020819055508015610d1b578273ffffffffffffffffffffffffffffffffffffffff168473ffffffffffffffffffffffffffffffffffffffff167f8c5be1e5ebec7d5bd14f71427d1e84f3dd0314c0f7b2291e5b200ac8c7c3b92584604051610d12919061111b565b60405180910390a35b50505050565b600073ffffffffffffffffffffffffffffffffffffffff168373ffffffffffffffffffffffffffffffffffffffff1603610d73578060026000828254610d679190611569565b92505081905550610e46565b60008060008573ffffffffffffffffffffffffffffffffffffffff1673ffffffffffffffffffffffffffffffffffffffff16815260200190815260200160002054905081811015610dff578381836040517fe450d38c000000000000000000000000000000000000000000000000000000008152600401610df693929190611532565b60405180910390fd5b8181036000808673ffffffffffffffffffffffffffffffffffffffff1673ffffffffffffffffffffffffffffffffffffffff16815260200190815260200160002081905550505b600073ffffffffffffffffffffffffffffffffffffffff168273ffffffffffffffffffffffffffffffffffffffff1603610e8f5780600260008282540392505081905550610edc565b806000808473ffffffffffffffffffffffffffffffffffffffff1673ffffffffffffffffffffffffffffffffffffffff168152602001908152602001600020600082825401925050819055505b8173ffffffffffffffffffffffffffffffffffffffff168373ffffffffffffffffffffffffffffffffffffffff167fddf252ad1be2c89b69c2b068fc378daa952ba7f163c4a11628f55a4df523b3ef83604051610f39919061111b565b60405180910390a3505050565b600081519050919050565b600082825260208201905092915050565b60005b83811015610f80578082015181840152602081019050610f65565b60008484015250505050565b6000601f19601f8301169050919050565b6000610fa882610f46565b610fb28185610f51565b9350610fc2818560208601610f62565b610fcb81610f8c565b840191505092915050565b60006020820190508181036000830152610ff08184610f9d565b905092915050565b600080fd5b600080fd5b600073ffffffffffffffffffffffffffffffffffffffff82169050919050565b600061102d82611002565b9050919050565b61103d81611022565b811461104857600080fd5b50565b60008135905061105a81611034565b92915050565b6000819050919050565b61107381611060565b811461107e57600080fd5b50565b6000813590506110908161106a565b92915050565b600080604083850312156110ad576110ac610ff8565b5b60006110bb8582860161104b565b92505060206110cc85828601611081565b9150509250929050565b60008115159050919050565b6110eb816110d6565b82525050565b600060208201905061110660008301846110e2565b92915050565b61111581611060565b82525050565b6000602082019050611130600083018461110c565b92915050565b60008060006060848603121561114f5761114e610ff8565b5b600061115d8682870161104b565b935050602061116e8682870161104b565b925050604061117f86828701611081565b9150509250925092565b600060ff82169050919050565b61119f81611189565b82525050565b60006020820190506111ba6000830184611196565b92915050565b6000602082840312156111d6576111d5610ff8565b5b60006111e484828501611081565b91505092915050565b600080fd5b600080fd5b600080fd5b60008083601f840112611212576112116111ed565b5b8235905067ffffffffffffffff81111561122f5761122e6111f2565b5b60208301915083602082028301111561124b5761124a6111f7565b5b9250929050565b60008083601f840112611268576112676111ed565b5b8235905067ffffffffffffffff811115611285576112846111f2565b5b6020830191508360208202830111156112a1576112a06111f7565b5b9250929050565b600080600080604085870312156112c2576112c1610ff8565b5b600085013567ffffffffffffffff8111156112e0576112df610ffd565b5b6112ec878288016111fc565b9450945050602085013567ffffffffffffffff81111561130f5761130e610ffd565b5b61131b87828801611252565b925092505092959194509250565b60006020828403121561133f5761133e610ff8565b5b600061134d8482850161104b565b91505092915050565b61135f81611022565b82525050565b600060208201905061137a6000830184611356565b92915050565b6000806040838503121561139757611396610ff8565b5b60006113a58582860161104b565b92505060206113b68582860161104b565b9150509250929050565b7f4e487b7100000000000000000000000000000000000000000000000000000000600052602260045260246000fd5b6000600282049050600182168061140757607f821691505b60208210810361141a576114196113c0565b5b50919050565b7f417272617973206c656e677468206d69736d6174636800000000000000000000600082015250565b6000611456601683610f51565b915061146182611420565b602082019050919050565b6000602082019050818103600083015261148581611449565b9050919050565b7f4e487b7100000000000000000000000000000000000000000000000000000000600052603260045260246000fd5b7f4e487b7100000000000000000000000000000000000000000000000000000000600052601160045260246000fd5b60006114f582611060565b91507fffffffffffffffffffffffffffffffffffffffffffffffffffffffffffffffff8203611527576115266114bb565b5b600182019050919050565b60006060820190506115476000830186611356565b611554602083018561110c565b611561604083018461110c565b949350505050565b600061157482611060565b915061157f83611060565b9250828201905080821115611597576115966114bb565b5b9291505056fea264697066735822122091cdd62ca1ed42b4841ec357221d601862f2171fd8dbb5b8bbefde8e69a1ee4b64736f6c63430008140033",
  "linkReferences": {},
  "deployedLinkReferences": {}
}