{
  "_format": "hh-sol-artifact-1",
  "contractName": "TodoList",
  "sourceName": "contracts/Todo.sol",
  "abi": [
    {
      "inputs": [
        {
          "internalType": "string",
          "name": "_title",
          "type": "string"
        },
        {
          "internalType": "string",
          "name": "_description",
          "type": "string"
        }
      ],
      "name": "create_todo",
      "outputs": [],
      "stateMutability": "nonpayable",
      "type": "function"
    },
    {
      "inputs": [
        {
          "internalType": "uint256",
          "name": "_index",
          "type": "uint256"
        }
      ],
      "name": "delete_todo",
      "outputs": [],
      "stateMutability": "nonpayable",
      "type": "function"
    },
    {
      "inputs": [
        {
          "internalType": "uint256",
          "name": "_index",
          "type": "uint256"
        }
      ],
      "name": "get_todo",
      "outputs": [
        {
          "components": [
            {
              "internalType": "string",
              "name": "title",
              "type": "string"
            },
            {
              "internalType": "string",
              "name": "description",
              "type": "string"
            },
            {
              "internalType": "bool",
              "name": "status",
              "type": "bool"
            }
          ],
          "internalType": "struct TodoList.Todo",
          "name": "",
          "type": "tuple"
        }
      ],
      "stateMutability": "view",
      "type": "function"
    },
    {
      "inputs": [],
      "name": "get_todos",
      "outputs": [
        {
          "components": [
            {
              "internalType": "string",
              "name": "title",
              "type": "string"
            },
            {
              "internalType": "string",
              "name": "description",
              "type": "string"
            },
            {
              "internalType": "bool",
              "name": "status",
              "type": "bool"
            }
          ],
          "internalType": "struct TodoList.Todo[]",
          "name": "",
          "type": "tuple[]"
        }
      ],
      "stateMutability": "view",
      "type": "function"
    },
    {
      "inputs": [],
      "name": "get_todos_count",
      "outputs": [
        {
          "internalType": "uint256",
          "name": "",
          "type": "uint256"
        }
      ],
      "stateMutability": "view",
      "type": "function"
    },
    {
      "inputs": [
        {
          "internalType": "uint256",
          "name": "_index",
          "type": "uint256"
        }
      ],
      "name": "toggle_todo_status",
      "outputs": [],
      "stateMutability": "nonpayable",
      "type": "function"
    },
    {
      "inputs": [
        {
          "internalType": "uint256",
          "name": "_index",
          "type": "uint256"
        },
        {
          "internalType": "string",
          "name": "_newTitle",
          "type": "string"
        },
        {
          "internalType": "string",
          "name": "_newDescription",
          "type": "string"
        }
      ],
      "name": "update_todo",
      "outputs": [],
      "stateMutability": "nonpayable",
      "type": "function"
    }
  ],
  "bytecode": "0x6080604052348015600f57600080fd5b506117068061001f6000396000f3fe608060405234801561001057600080fd5b506004361061007d5760003560e01c80636bbdadff1161005b5780636bbdadff146100da5780638f08bb21146100f65780639f66897014610112578063b5c90fd5146101425761007d565b806326aae325146100825780633865881b146100a05780635a051ea2146100be575b600080fd5b61008a61015e565b6040516100979190610c97565b60405180910390f35b6100a86101a7565b6040516100b59190610e76565b60405180910390f35b6100d860048036038101906100d39190610ed8565b610381565b005b6100f460048036038101906100ef9190610ed8565b6104ef565b005b610110600480360381019061010b919061103a565b610781565b005b61012c60048036038101906101279190610ed8565b6108e7565b604051610139919061111c565b60405180910390f35b61015c6004803603810190610157919061113e565b610b21565b005b60008060003373ffffffffffffffffffffffffffffffffffffffff1673ffffffffffffffffffffffffffffffffffffffff16815260200190815260200160002080549050905090565b60606000803373ffffffffffffffffffffffffffffffffffffffff1673ffffffffffffffffffffffffffffffffffffffff168152602001908152602001600020805480602002602001604051908101604052809291908181526020016000905b82821015610378578382906000526020600020906003020160405180606001604052908160008201805461023a906111e5565b80601f0160208091040260200160405190810160405280929190818152602001828054610266906111e5565b80156102b35780601f10610288576101008083540402835291602001916102b3565b820191906000526020600020905b81548152906001019060200180831161029657829003601f168201915b505050505081526020016001820180546102cc906111e5565b80601f01602080910402602001604051908101604052809291908181526020018280546102f8906111e5565b80156103455780601f1061031a57610100808354040283529160200191610345565b820191906000526020600020905b81548152906001019060200180831161032857829003601f168201915b505050505081526020016002820160009054906101000a900460ff16151515158152505081526020019060010190610207565b50505050905090565b6000803373ffffffffffffffffffffffffffffffffffffffff1673ffffffffffffffffffffffffffffffffffffffff168152602001908152602001600020805490508110610404576040517f08c379a00000000000000000000000000000000000000000000000000000000081526004016103fb90611273565b60405180910390fd5b6000803373ffffffffffffffffffffffffffffffffffffffff1673ffffffffffffffffffffffffffffffffffffffff168152602001908152602001600020818154811061045457610453611293565b5b906000526020600020906003020160020160009054906101000a900460ff16156000803373ffffffffffffffffffffffffffffffffffffffff1673ffffffffffffffffffffffffffffffffffffffff16815260200190815260200160002082815481106104c4576104c3611293565b5b906000526020600020906003020160020160006101000a81548160ff02191690831515021790555050565b6000803373ffffffffffffffffffffffffffffffffffffffff1673ffffffffffffffffffffffffffffffffffffffff168152602001908152602001600020805490508110610572576040517f08c379a000000000000000000000000000000000000000000000000000000000815260040161056990611273565b60405180910390fd5b600060016000803373ffffffffffffffffffffffffffffffffffffffff1673ffffffffffffffffffffffffffffffffffffffff168152602001908152602001600020805490506105c291906112f1565b90508082146106e2576000803373ffffffffffffffffffffffffffffffffffffffff1673ffffffffffffffffffffffffffffffffffffffff168152602001908152602001600020818154811061061b5761061a611293565b5b90600052602060002090600302016000803373ffffffffffffffffffffffffffffffffffffffff1673ffffffffffffffffffffffffffffffffffffffff168152602001908152602001600020838154811061067957610678611293565b5b90600052602060002090600302016000820181600001908161069b91906114e7565b50600182018160010190816106b091906114e7565b506002820160009054906101000a900460ff168160020160006101000a81548160ff0219169083151502179055509050505b6000803373ffffffffffffffffffffffffffffffffffffffff1673ffffffffffffffffffffffffffffffffffffffff1681526020019081526020016000208054806107305761072f6115cf565b5b6001900381819060005260206000209060030201600080820160006107559190610bfe565b6001820160006107659190610bfe565b6002820160006101000a81549060ff0219169055505090555050565b6000803373ffffffffffffffffffffffffffffffffffffffff1673ffffffffffffffffffffffffffffffffffffffff168152602001908152602001600020805490508310610804576040517f08c379a00000000000000000000000000000000000000000000000000000000081526004016107fb90611273565b60405180910390fd5b816000803373ffffffffffffffffffffffffffffffffffffffff1673ffffffffffffffffffffffffffffffffffffffff168152602001908152602001600020848154811061085557610854611293565b5b9060005260206000209060030201600001908161087291906115fe565b50806000803373ffffffffffffffffffffffffffffffffffffffff1673ffffffffffffffffffffffffffffffffffffffff16815260200190815260200160002084815481106108c4576108c3611293565b5b906000526020600020906003020160010190816108e191906115fe565b50505050565b6108ef610c3e565b6000803373ffffffffffffffffffffffffffffffffffffffff1673ffffffffffffffffffffffffffffffffffffffff168152602001908152602001600020805490508210610972576040517f08c379a000000000000000000000000000000000000000000000000000000000815260040161096990611273565b60405180910390fd5b6000803373ffffffffffffffffffffffffffffffffffffffff1673ffffffffffffffffffffffffffffffffffffffff16815260200190815260200160002082815481106109c2576109c1611293565b5b90600052602060002090600302016040518060600160405290816000820180546109eb906111e5565b80601f0160208091040260200160405190810160405280929190818152602001828054610a17906111e5565b8015610a645780601f10610a3957610100808354040283529160200191610a64565b820191906000526020600020905b815481529060010190602001808311610a4757829003601f168201915b50505050508152602001600182018054610a7d906111e5565b80601f0160208091040260200160405190810160405280929190818152602001828054610aa9906111e5565b8015610af65780601f10610acb57610100808354040283529160200191610af6565b820191906000526020600020905b815481529060010190602001808311610ad957829003601f168201915b505050505081526020016002820160009054906101000a900460ff1615151515815250509050919050565b600060405180606001604052808481526020018381526020016000151581525090506000803373ffffffffffffffffffffffffffffffffffffffff1673ffffffffffffffffffffffffffffffffffffffff1681526020019081526020016000208190806001815401808255809150506001900390600052602060002090600302016000909190919091506000820151816000019081610bc091906115fe565b506020820151816001019081610bd691906115fe565b5060408201518160020160006101000a81548160ff0219169083151502179055505050505050565b508054610c0a906111e5565b6000825580601f10610c1c5750610c3b565b601f016020900490600052602060002090810190610c3a9190610c61565b5b50565b604051806060016040528060608152602001606081526020016000151581525090565b5b80821115610c7a576000816000905550600101610c62565b5090565b6000819050919050565b610c9181610c7e565b82525050565b6000602082019050610cac6000830184610c88565b92915050565b600081519050919050565b600082825260208201905092915050565b6000819050602082019050919050565b600081519050919050565b600082825260208201905092915050565b60005b83811015610d18578082015181840152602081019050610cfd565b60008484015250505050565b6000601f19601f8301169050919050565b6000610d4082610cde565b610d4a8185610ce9565b9350610d5a818560208601610cfa565b610d6381610d24565b840191505092915050565b60008115159050919050565b610d8381610d6e565b82525050565b60006060830160008301518482036000860152610da68282610d35565b91505060208301518482036020860152610dc08282610d35565b9150506040830151610dd56040860182610d7a565b508091505092915050565b6000610dec8383610d89565b905092915050565b6000602082019050919050565b6000610e0c82610cb2565b610e168185610cbd565b935083602082028501610e2885610cce565b8060005b85811015610e645784840389528151610e458582610de0565b9450610e5083610df4565b925060208a01995050600181019050610e2c565b50829750879550505050505092915050565b60006020820190508181036000830152610e908184610e01565b905092915050565b6000604051905090565b600080fd5b600080fd5b610eb581610c7e565b8114610ec057600080fd5b50565b600081359050610ed281610eac565b92915050565b600060208284031215610eee57610eed610ea2565b5b6000610efc84828501610ec3565b91505092915050565b600080fd5b600080fd5b7f4e487b7100000000000000000000000000000000000000000000000000000000600052604160045260246000fd5b610f4782610d24565b810181811067ffffffffffffffff82111715610f6657610f65610f0f565b5b80604052505050565b6000610f79610e98565b9050610f858282610f3e565b919050565b600067ffffffffffffffff821115610fa557610fa4610f0f565b5b610fae82610d24565b9050602081019050919050565b82818337600083830152505050565b6000610fdd610fd884610f8a565b610f6f565b905082815260208101848484011115610ff957610ff8610f0a565b5b611004848285610fbb565b509392505050565b600082601f83011261102157611020610f05565b5b8135611031848260208601610fca565b91505092915050565b60008060006060848603121561105357611052610ea2565b5b600061106186828701610ec3565b935050602084013567ffffffffffffffff81111561108257611081610ea7565b5b61108e8682870161100c565b925050604084013567ffffffffffffffff8111156110af576110ae610ea7565b5b6110bb8682870161100c565b9150509250925092565b600060608301600083015184820360008601526110e28282610d35565b915050602083015184820360208601526110fc8282610d35565b91505060408301516111116040860182610d7a565b508091505092915050565b6000602082019050818103600083015261113681846110c5565b905092915050565b6000806040838503121561115557611154610ea2565b5b600083013567ffffffffffffffff81111561117357611172610ea7565b5b61117f8582860161100c565b925050602083013567ffffffffffffffff8111156111a05761119f610ea7565b5b6111ac8582860161100c565b9150509250929050565b7f4e487b7100000000000000000000000000000000000000000000000000000000600052602260045260246000fd5b600060028204905060018216806111fd57607f821691505b6020821081036112105761120f6111b6565b5b50919050565b600082825260208201905092915050565b7f496e76616c696420696e64657800000000000000000000000000000000000000600082015250565b600061125d600d83611216565b915061126882611227565b602082019050919050565b6000602082019050818103600083015261128c81611250565b9050919050565b7f4e487b7100000000000000000000000000000000000000000000000000000000600052603260045260246000fd5b7f4e487b7100000000000000000000000000000000000000000000000000000000600052601160045260246000fd5b60006112fc82610c7e565b915061130783610c7e565b925082820390508181111561131f5761131e6112c2565b5b92915050565b600081549050611334816111e5565b9050919050565b60008190508160005260206000209050919050565b60006020601f8301049050919050565b600082821b905092915050565b60006008830261139d7fffffffffffffffffffffffffffffffffffffffffffffffffffffffffffffffff82611360565b6113a78683611360565b95508019841693508086168417925050509392505050565b6000819050919050565b60006113e46113df6113da84610c7e565b6113bf565b610c7e565b9050919050565b6000819050919050565b6113fe836113c9565b61141261140a826113eb565b84845461136d565b825550505050565b600090565b61142761141a565b6114328184846113f5565b505050565b5b818110156114565761144b60008261141f565b600181019050611438565b5050565b601f82111561149b5761146c8161133b565b61147584611350565b81016020851015611484578190505b61149861149085611350565b830182611437565b50505b505050565b600082821c905092915050565b60006114be600019846008026114a0565b1980831691505092915050565b60006114d783836114ad565b9150826002028217905092915050565b8181036114f55750506115cd565b6114fe82611325565b67ffffffffffffffff81111561151757611516610f0f565b5b61152182546111e5565b61152c82828561145a565b6000601f83116001811461155b5760008415611549578287015490505b61155385826114cb565b8655506115c6565b601f1984166115698761133b565b96506115748661133b565b60005b8281101561159c57848901548255600182019150600185019450602081019050611577565b868310156115b957848901546115b5601f8916826114ad565b8355505b6001600288020188555050505b5050505050505b565b7f4e487b7100000000000000000000000000000000000000000000000000000000600052603160045260246000fd5b61160782610cde565b67ffffffffffffffff8111156116205761161f610f0f565b5b61162a82546111e5565b61163582828561145a565b600060209050601f8311600181146116685760008415611656578287015190505b61166085826114cb565b8655506116c8565b601f1984166116768661133b565b60005b8281101561169e57848901518255600182019150602085019450602081019050611679565b868310156116bb57848901516116b7601f8916826114ad565b8355505b6001600288020188555050505b50505050505056fea2646970667358221220dc3e95a0ec74df5ee58eaefc0f2137bf1db77b0f07c2b9b92fc6647f0c048fd864736f6c634300081e0033",
  "linkReferences": {},
  "deployedLinkReferences": {}
}