{"project/contracts/TimeNFT.sol":{"TimeNFT":{"abi":[{"inputs":[],"stateMutability":"nonpayable","type":"constructor"},{"inputs":[{"internalType":"address","name":"sender","type":"address"},{"internalType":"uint256","name":"tokenId","type":"uint256"},{"internalType":"address","name":"owner","type":"address"}],"name":"ERC721IncorrectOwner","type":"error"},{"inputs":[{"internalType":"address","name":"operator","type":"address"},{"internalType":"uint256","name":"tokenId","type":"uint256"}],"name":"ERC721InsufficientApproval","type":"error"},{"inputs":[{"internalType":"address","name":"approver","type":"address"}],"name":"ERC721InvalidApprover","type":"error"},{"inputs":[{"internalType":"address","name":"operator","type":"address"}],"name":"ERC721InvalidOperator","type":"error"},{"inputs":[{"internalType":"address","name":"owner","type":"address"}],"name":"ERC721InvalidOwner","type":"error"},{"inputs":[{"internalType":"address","name":"receiver","type":"address"}],"name":"ERC721InvalidReceiver","type":"error"},{"inputs":[{"internalType":"address","name":"sender","type":"address"}],"name":"ERC721InvalidSender","type":"error"},{"inputs":[{"internalType":"uint256","name":"tokenId","type":"uint256"}],"name":"ERC721NonexistentToken","type":"error"},{"anonymous":false,"inputs":[{"indexed":true,"internalType":"address","name":"owner","type":"address"},{"indexed":true,"internalType":"address","name":"approved","type":"address"},{"indexed":true,"internalType":"uint256","name":"tokenId","type":"uint256"}],"name":"Approval","type":"event"},{"anonymous":false,"inputs":[{"indexed":true,"internalType":"address","name":"owner","type":"address"},{"indexed":true,"internalType":"address","name":"operator","type":"address"},{"indexed":false,"internalType":"bool","name":"approved","type":"bool"}],"name":"ApprovalForAll","type":"event"},{"anonymous":false,"inputs":[{"indexed":false,"internalType":"uint256","name":"_fromTokenId","type":"uint256"},{"indexed":false,"internalType":"uint256","name":"_toTokenId","type":"uint256"}],"name":"BatchMetadataUpdate","type":"event"},{"anonymous":false,"inputs":[{"indexed":false,"internalType":"uint256","name":"_tokenId","type":"uint256"}],"name":"MetadataUpdate","type":"event"},{"anonymous":false,"inputs":[{"indexed":true,"internalType":"address","name":"from","type":"address"},{"indexed":true,"internalType":"address","name":"to","type":"address"},{"indexed":true,"internalType":"uint256","name":"tokenId","type":"uint256"}],"name":"Transfer","type":"event"},{"inputs":[{"internalType":"address","name":"to","type":"address"},{"internalType":"uint256","name":"tokenId","type":"uint256"}],"name":"approve","outputs":[],"stateMutability":"nonpayable","type":"function"},{"inputs":[{"internalType":"address","name":"owner","type":"address"}],"name":"balanceOf","outputs":[{"internalType":"uint256","name":"","type":"uint256"}],"stateMutability":"view","type":"function"},{"inputs":[{"internalType":"uint256","name":"tokenId","type":"uint256"}],"name":"getApproved","outputs":[{"internalType":"address","name":"","type":"address"}],"stateMutability":"view","type":"function"},{"inputs":[],"name":"getCurrentTime","outputs":[{"internalType":"string","name":"","type":"string"}],"stateMutability":"view","type":"function"},{"inputs":[],"name":"getSVG","outputs":[{"internalType":"string","name":"","type":"string"}],"stateMutability":"view","type":"function"},{"inputs":[{"internalType":"address","name":"owner","type":"address"},{"internalType":"address","name":"operator","type":"address"}],"name":"isApprovedForAll","outputs":[{"internalType":"bool","name":"","type":"bool"}],"stateMutability":"view","type":"function"},{"inputs":[{"internalType":"address","name":"owner","type":"address"}],"name":"mint","outputs":[{"internalType":"uint256","name":"","type":"uint256"}],"stateMutability":"nonpayable","type":"function"},{"inputs":[],"name":"name","outputs":[{"internalType":"string","name":"","type":"string"}],"stateMutability":"view","type":"function"},{"inputs":[{"internalType":"uint256","name":"tokenId","type":"uint256"}],"name":"ownerOf","outputs":[{"internalType":"address","name":"","type":"address"}],"stateMutability":"view","type":"function"},{"inputs":[{"internalType":"address","name":"from","type":"address"},{"internalType":"address","name":"to","type":"address"},{"internalType":"uint256","name":"tokenId","type":"uint256"}],"name":"safeTransferFrom","outputs":[],"stateMutability":"nonpayable","type":"function"},{"inputs":[{"internalType":"address","name":"from","type":"address"},{"internalType":"address","name":"to","type":"address"},{"internalType":"uint256","name":"tokenId","type":"uint256"},{"internalType":"bytes","name":"data","type":"bytes"}],"name":"safeTransferFrom","outputs":[],"stateMutability":"nonpayable","type":"function"},{"inputs":[{"internalType":"address","name":"operator","type":"address"},{"internalType":"bool","name":"approved","type":"bool"}],"name":"setApprovalForAll","outputs":[],"stateMutability":"nonpayable","type":"function"},{"inputs":[{"internalType":"bytes4","name":"interfaceId","type":"bytes4"}],"name":"supportsInterface","outputs":[{"internalType":"bool","name":"","type":"bool"}],"stateMutability":"view","type":"function"},{"inputs":[],"name":"symbol","outputs":[{"internalType":"string","name":"","type":"string"}],"stateMutability":"view","type":"function"},{"inputs":[{"internalType":"uint256","name":"_tokenId","type":"uint256"}],"name":"tokenURI","outputs":[{"internalType":"string","name":"","type":"string"}],"stateMutability":"view","type":"function"},{"inputs":[{"internalType":"address","name":"from","type":"address"},{"internalType":"address","name":"to","type":"address"},{"internalType":"uint256","name":"tokenId","type":"uint256"}],"name":"transferFrom","outputs":[],"stateMutability":"nonpayable","type":"function"}],"evm":{"bytecode":{"linkReferences":{},"object":"608060405234801561000f575f5ffd5b5060408051808201825260048082526354494d4560e01b6020808401829052845180860190955291845290830152905f61004983826100f6565b50600161005682826100f6565b5050506101b0565b634e487b7160e01b5f52604160045260245ffd5b600181811c9082168061008657607f821691505b6020821081036100a457634e487b7160e01b5f52602260045260245ffd5b50919050565b601f8211156100f157805f5260205f20601f840160051c810160208510156100cf5750805b601f840160051c820191505b818110156100ee575f81556001016100db565b50505b505050565b81516001600160401b0381111561010f5761010f61005e565b6101238161011d8454610072565b846100aa565b6020601f821160018114610155575f831561013e5750848201515b5f19600385901b1c1916600184901b1784556100ee565b5f84815260208120601f198516915b828110156101845787850151825560209485019460019092019101610164565b50848210156101a157868401515f19600387901b60f8161c191681555b50505050600190811b01905550565b6116e9806101bd5f395ff3fe608060405234801561000f575f5ffd5b50600436106100fb575f3560e01c80636352211e11610093578063a22cb46511610063578063a22cb46514610201578063b88d4fde14610214578063c87b56dd14610227578063e985e9c51461023a575f5ffd5b80636352211e146101b25780636a627842146101c557806370a08231146101e657806395d89b41146101f9575f5ffd5b806323b872dd116100ce57806323b872dd1461017c57806329cb924d1461018f57806342842e0e14610197578063489187e8146101aa575f5ffd5b806301ffc9a7146100ff57806306fdde0314610127578063081812fc1461013c578063095ea7b314610167575b5f5ffd5b61011261010d36600461108f565b61024d565b60405190151581526020015b60405180910390f35b61012f610277565b60405161011e91906110d8565b61014f61014a3660046110ea565b610306565b6040516001600160a01b03909116815260200161011e565b61017a61017536600461111c565b61032d565b005b61017a61018a366004611144565b61033c565b61012f6103ca565b61017a6101a5366004611144565b610505565b61012f610524565b61014f6101c03660046110ea565b610557565b6101d86101d336600461117e565b610561565b60405190815260200161011e565b6101d86101f436600461117e565b61058b565b61012f6105d0565b61017a61020f366004611197565b6105df565b61017a6102223660046111e4565b6105ea565b61012f6102353660046110ea565b610602565b6101126102483660046112c1565b6107c7565b5f6001600160e01b03198216632483248360e11b14806102715750610271826107f4565b92915050565b60605f8054610285906112f2565b80601f01602080910402602001604051908101604052809291908181526020018280546102b1906112f2565b80156102fc5780601f106102d3576101008083540402835291602001916102fc565b820191905f5260205f20905b8154815290600101906020018083116102df57829003601f168201915b5050505050905090565b5f61031082610843565b505f828152600460205260409020546001600160a01b0316610271565b61033882823361087b565b5050565b6001600160a01b03821661036a57604051633250574960e11b81525f60048201526024015b60405180910390fd5b5f610376838333610888565b9050836001600160a01b0316816001600160a01b0316146103c4576040516364283d7b60e01b81526001600160a01b0380861660048301526024820184905282166044820152606401610361565b50505050565b6060425f60186103dc610e1084611352565b6103e69190611365565b90505f603c6103f58185611352565b6103ff9190611365565b90505f61040d603c85611365565b90505f600a8410610426576104218461097c565b61044f565b61042f8461097c565b60405160200161043f919061138f565b6040516020818303038152906040525b90505f600a8410610468576104638461097c565b610491565b6104718461097c565b604051602001610481919061138f565b6040516020818303038152906040525b90505f600a84106104aa576104a58461097c565b6104d3565b6104b38461097c565b6040516020016104c3919061138f565b6040516020818303038152906040525b90508282826040516020016104ea939291906113a4565b60405160208183030381529060405297505050505050505090565b61051f83838360405180602001604052805f8152506105ea565b505050565b60605f61052f6103ca565b90508060405160200161054291906113e3565b60405160208183030381529060405291505090565b5f61027182610843565b6007545f906105708382610a0c565b60078054905f61057f836114fb565b90915550909392505050565b5f6001600160a01b0382166105b5576040516322718ad960e21b81525f6004820152602401610361565b506001600160a01b03165f9081526003602052604090205490565b606060018054610285906112f2565b610338338383610a6d565b6105f584848461033c565b6103c43385858585610b0b565b6060425f6018610614610e1084611352565b61061e9190611365565b90505f603c61062d8185611352565b6106379190611365565b90505f610645603c85611365565b90505f600a841061065e576106598461097c565b610687565b6106678461097c565b604051602001610677919061138f565b6040516020818303038152906040525b90505f600a84106106a05761069b8461097c565b6106c9565b6106a98461097c565b6040516020016106b9919061138f565b6040516020818303038152906040525b90505f600a84106106e2576106dd8461097c565b61070b565b6106eb8461097c565b6040516020016106fb919061138f565b6040516020818303038152906040525b90505f838383604051602001610723939291906113a4565b60405160208183030381529060405290505f8160405160200161074691906113e3565b60405160208183030381529060405290505f6107926107648d61097c565b61076d84610c33565b60405160200161077e929190611513565b604051602081830303815290604052610c33565b90505f816040516020016107a691906115cb565b60408051601f198184030181529190529d9c50505050505050505050505050565b6001600160a01b039182165f90815260056020908152604080832093909416825291909152205460ff1690565b5f6001600160e01b031982166380ac58cd60e01b148061082457506001600160e01b03198216635b5e139f60e01b145b8061027157506301ffc9a760e01b6001600160e01b0319831614610271565b5f818152600260205260408120546001600160a01b03168061027157604051637e27328960e01b815260048101849052602401610361565b61051f8383836001610c59565b5f828152600260205260408120546001600160a01b03908116908316156108b4576108b4818486610d5d565b6001600160a01b038116156108ee576108cf5f855f5f610c59565b6001600160a01b0381165f90815260036020526040902080545f190190555b6001600160a01b0385161561091c576001600160a01b0385165f908152600360205260409020805460010190555b5f8481526002602052604080822080546001600160a01b0319166001600160a01b0389811691821790925591518793918516917fddf252ad1be2c89b69c2b068fc378daa952ba7f163c4a11628f55a4df523b3ef91a490505b9392505050565b60605f61098883610dc1565b60010190505f8167ffffffffffffffff8111156109a7576109a76111d0565b6040519080825280601f01601f1916602001820160405280156109d1576020820181803683370190505b5090508181016020015b5f19016f181899199a1a9b1b9c1cb0b131b232b360811b600a86061a8153600a85049450846109db57509392505050565b6001600160a01b038216610a3557604051633250574960e11b81525f6004820152602401610361565b5f610a4183835f610888565b90506001600160a01b0381161561051f576040516339e3563760e11b81525f6004820152602401610361565b6001600160a01b038216610a9f57604051630b61174360e31b81526001600160a01b0383166004820152602401610361565b6001600160a01b038381165f81815260056020908152604080832094871680845294825291829020805460ff191686151590811790915591519182527f17307eab39ab6107e8899845ad3d59bd9653f200f220920489ca2b5937696c31910160405180910390a3505050565b6001600160a01b0383163b15610c2c57604051630a85bd0160e11b81526001600160a01b0384169063150b7a0290610b4d9088908890879087906004016115fc565b6020604051808303815f875af1925050508015610b87575060408051601f3d908101601f19168201909252610b849181019061162e565b60015b610bee573d808015610bb4576040519150601f19603f3d011682016040523d82523d5f602084013e610bb9565b606091505b5080515f03610be657604051633250574960e11b81526001600160a01b0385166004820152602401610361565b805160208201fd5b6001600160e01b03198116630a85bd0160e11b14610c2a57604051633250574960e11b81526001600160a01b0385166004820152602401610361565b505b5050505050565b606061027182604051806060016040528060408152602001611674604091396001610e98565b8080610c6d57506001600160a01b03821615155b15610d2e575f610c7c84610843565b90506001600160a01b03831615801590610ca85750826001600160a01b0316816001600160a01b031614155b8015610cbb5750610cb981846107c7565b155b15610ce45760405163a9fbf51f60e01b81526001600160a01b0384166004820152602401610361565b8115610d2c5783856001600160a01b0316826001600160a01b03167f8c5be1e5ebec7d5bd14f71427d1e84f3dd0314c0f7b2291e5b200ac8c7c3b92560405160405180910390a45b505b50505f90815260046020526040902080546001600160a01b0319166001600160a01b0392909216919091179055565b610d68838383611013565b61051f576001600160a01b038316610d9657604051637e27328960e01b815260048101829052602401610361565b60405163177e802f60e01b81526001600160a01b038316600482015260248101829052604401610361565b5f8072184f03e93ff9f4daa797ed6e38ed64bf6a1f0160401b8310610dff5772184f03e93ff9f4daa797ed6e38ed64bf6a1f0160401b830492506040015b6d04ee2d6d415b85acef81000000008310610e2b576d04ee2d6d415b85acef8100000000830492506020015b662386f26fc100008310610e4957662386f26fc10000830492506010015b6305f5e1008310610e61576305f5e100830492506008015b6127108310610e7557612710830492506004015b60648310610e87576064830492506002015b600a83106102715760010192915050565b606083515f03610eb6575060408051602081019091525f8152610975565b5f82610ee657600385516004610ecc9190611649565b610ed7906002611660565b610ee19190611352565b610f0b565b600385516002610ef69190611660565b610f009190611352565b610f0b906004611649565b90505f8167ffffffffffffffff811115610f2757610f276111d0565b6040519080825280601f01601f191660200182016040528015610f51576020820181803683370190505b509050600185016020820187885189016020810180515f82525b82841015610fc6576003840193508351603f8160121c168701518653600186019550603f81600c1c168701518653600186019550603f8160061c168701518653600186019550603f8116870151865350600185019450610f6b565b90525050851561100757600388510660018114610fea5760028114610ffd57611005565b603d6001830353603d6002830353611005565b603d60018303535b505b50909695505050505050565b5f6001600160a01b0383161580159061106f5750826001600160a01b0316846001600160a01b0316148061104c575061104c84846107c7565b8061106f57505f828152600460205260409020546001600160a01b038481169116145b949350505050565b6001600160e01b03198116811461108c575f5ffd5b50565b5f6020828403121561109f575f5ffd5b813561097581611077565b5f81518084528060208401602086015e5f602082860101526020601f19601f83011685010191505092915050565b602081525f61097560208301846110aa565b5f602082840312156110fa575f5ffd5b5035919050565b80356001600160a01b0381168114611117575f5ffd5b919050565b5f5f6040838503121561112d575f5ffd5b61113683611101565b946020939093013593505050565b5f5f5f60608486031215611156575f5ffd5b61115f84611101565b925061116d60208501611101565b929592945050506040919091013590565b5f6020828403121561118e575f5ffd5b61097582611101565b5f5f604083850312156111a8575f5ffd5b6111b183611101565b9150602083013580151581146111c5575f5ffd5b809150509250929050565b634e487b7160e01b5f52604160045260245ffd5b5f5f5f5f608085870312156111f7575f5ffd5b61120085611101565b935061120e60208601611101565b925060408501359150606085013567ffffffffffffffff811115611230575f5ffd5b8501601f81018713611240575f5ffd5b803567ffffffffffffffff81111561125a5761125a6111d0565b604051601f8201601f19908116603f0116810167ffffffffffffffff81118282101715611289576112896111d0565b6040528181528282016020018910156112a0575f5ffd5b816020840160208301375f6020838301015280935050505092959194509250565b5f5f604083850312156112d2575f5ffd5b6112db83611101565b91506112e960208401611101565b90509250929050565b600181811c9082168061130657607f821691505b60208210810361132457634e487b7160e01b5f52602260045260245ffd5b50919050565b634e487b7160e01b5f52601260045260245ffd5b634e487b7160e01b5f52601160045260245ffd5b5f826113605761136061132a565b500490565b5f826113735761137361132a565b500690565b5f81518060208401855e5f93019283525090919050565b600360fc1b81525f6109756001830184611378565b5f6113af8286611378565b601d60f91b81526113c36001820186611378565b9050601d60f91b81526113d96001820185611378565b9695505050505050565b7f3c73766720786d6c6e733d27687474703a2f2f7777772e77332e6f72672f323081527f30302f737667272077696474683d2733303027206865696768743d27323030276020820152601f60f91b60408201527f3c726563742077696474683d273130302527206865696768743d27313030252760418201526e103334b6361e93b13630b1b593979f60891b60618201527f3c7465787420783d273530252720793d27353025272066696c6c3d277768697460708201527f652720666f6e742d73697a653d2732342720746578742d616e63686f723d276d60908201526634b2323632939f60c91b60b08201525f6114de60b7830184611378565b6c1e17ba32bc3a1f1e17b9bb339f60991b8152600d019392505050565b5f6001820161150c5761150c61133e565b5060010190565b737b226e616d65223a202254696d65204e4654202360601b81525f61153b6014830185611378565b7f222c20226465736372697074696f6e223a20224f6e2d636861696e205356472081527f73686f77696e6720626c6f636b2e74696d657374616d70222c2022696d61676560208201527f223a2022646174613a696d6167652f7376672b786d6c3b6261736536342c000060408201526115b7605e820185611378565b61227d60f01b815260020195945050505050565b7f646174613a6170706c69636174696f6e2f6a736f6e3b6261736536342c00000081525f610975601d830184611378565b6001600160a01b03858116825284166020820152604081018390526080606082018190525f906113d9908301846110aa565b5f6020828403121561163e575f5ffd5b815161097581611077565b80820281158282048414176102715761027161133e565b808201808211156102715761027161133e56fe4142434445464748494a4b4c4d4e4f505152535455565758595a6162636465666768696a6b6c6d6e6f707172737475767778797a303132333435363738392b2fa264697066735822122045c95f3a863f082dc91e331aa8b48136ea4817ed976e50123a4664edd805635b64736f6c634300081c0033","opcodes":"PUSH1 0x80 PUSH1 0x40 MSTORE CALLVALUE DUP1 ISZERO PUSH2 0xF JUMPI PUSH0 PUSH0 REVERT JUMPDEST POP PUSH1 0x40 DUP1 MLOAD DUP1 DUP3 ADD DUP3 MSTORE PUSH1 0x4 DUP1 DUP3 MSTORE PUSH4 0x54494D45 PUSH1 0xE0 SHL PUSH1 0x20 DUP1 DUP5 ADD DUP3 SWAP1 MSTORE DUP5 MLOAD DUP1 DUP7 ADD SWAP1 SWAP6 MSTORE SWAP2 DUP5 MSTORE SWAP1 DUP4 ADD MSTORE SWAP1 PUSH0 PUSH2 0x49 DUP4 DUP3 PUSH2 0xF6 JUMP JUMPDEST POP PUSH1 0x1 PUSH2 0x56 DUP3 DUP3 PUSH2 0xF6 JUMP JUMPDEST POP POP POP PUSH2 0x1B0 JUMP JUMPDEST PUSH4 0x4E487B71 PUSH1 0xE0 SHL PUSH0 MSTORE PUSH1 0x41 PUSH1 0x4 MSTORE PUSH1 0x24 PUSH0 REVERT JUMPDEST PUSH1 0x1 DUP2 DUP2 SHR SWAP1 DUP3 AND DUP1 PUSH2 0x86 JUMPI PUSH1 0x7F DUP3 AND SWAP2 POP JUMPDEST PUSH1 0x20 DUP3 LT DUP2 SUB PUSH2 0xA4 JUMPI PUSH4 0x4E487B71 PUSH1 0xE0 SHL PUSH0 MSTORE PUSH1 0x22 PUSH1 0x4 MSTORE PUSH1 0x24 PUSH0 REVERT JUMPDEST POP SWAP2 SWAP1 POP JUMP JUMPDEST PUSH1 0x1F DUP3 GT ISZERO PUSH2 0xF1 JUMPI DUP1 PUSH0 MSTORE PUSH1 0x20 PUSH0 KECCAK256 PUSH1 0x1F DUP5 ADD PUSH1 0x5 SHR DUP2 ADD PUSH1 0x20 DUP6 LT ISZERO PUSH2 0xCF JUMPI POP DUP1 JUMPDEST PUSH1 0x1F DUP5 ADD PUSH1 0x5 SHR DUP3 ADD SWAP2 POP JUMPDEST DUP2 DUP2 LT ISZERO PUSH2 0xEE JUMPI PUSH0 DUP2 SSTORE PUSH1 0x1 ADD PUSH2 0xDB JUMP JUMPDEST POP POP JUMPDEST POP POP POP JUMP JUMPDEST DUP2 MLOAD PUSH1 0x1 PUSH1 0x1 PUSH1 0x40 SHL SUB DUP2 GT ISZERO PUSH2 0x10F JUMPI PUSH2 0x10F PUSH2 0x5E JUMP JUMPDEST PUSH2 0x123 DUP2 PUSH2 0x11D DUP5 SLOAD PUSH2 0x72 JUMP JUMPDEST DUP5 PUSH2 0xAA JUMP JUMPDEST PUSH1 0x20 PUSH1 0x1F DUP3 GT PUSH1 0x1 DUP2 EQ PUSH2 0x155 JUMPI PUSH0 DUP4 ISZERO PUSH2 0x13E JUMPI POP DUP5 DUP3 ADD MLOAD JUMPDEST PUSH0 NOT PUSH1 0x3 DUP6 SWAP1 SHL SHR NOT AND PUSH1 0x1 DUP5 SWAP1 SHL OR DUP5 SSTORE PUSH2 0xEE JUMP JUMPDEST PUSH0 DUP5 DUP2 MSTORE PUSH1 0x20 DUP2 KECCAK256 PUSH1 0x1F NOT DUP6 AND SWAP2 JUMPDEST DUP3 DUP2 LT ISZERO PUSH2 0x184 JUMPI DUP8 DUP6 ADD MLOAD DUP3 SSTORE PUSH1 0x20 SWAP5 DUP6 ADD SWAP5 PUSH1 0x1 SWAP1 SWAP3 ADD SWAP2 ADD PUSH2 0x164 JUMP JUMPDEST POP DUP5 DUP3 LT ISZERO PUSH2 0x1A1 JUMPI DUP7 DUP5 ADD MLOAD PUSH0 NOT PUSH1 0x3 DUP8 SWAP1 SHL PUSH1 0xF8 AND SHR NOT AND DUP2 SSTORE JUMPDEST POP POP POP POP PUSH1 0x1 SWAP1 DUP2 SHL ADD SWAP1 SSTORE POP JUMP JUMPDEST PUSH2 0x16E9 DUP1 PUSH2 0x1BD PUSH0 CODECOPY PUSH0 RETURN INVALID PUSH1 0x80 PUSH1 0x40 MSTORE CALLVALUE DUP1 ISZERO PUSH2 0xF JUMPI PUSH0 PUSH0 REVERT JUMPDEST POP PUSH1 0x4 CALLDATASIZE LT PUSH2 0xFB JUMPI PUSH0 CALLDATALOAD PUSH1 0xE0 SHR DUP1 PUSH4 0x6352211E GT PUSH2 0x93 JUMPI DUP1 PUSH4 0xA22CB465 GT PUSH2 0x63 JUMPI DUP1 PUSH4 0xA22CB465 EQ PUSH2 0x201 JUMPI DUP1 PUSH4 0xB88D4FDE EQ PUSH2 0x214 JUMPI DUP1 PUSH4 0xC87B56DD EQ PUSH2 0x227 JUMPI DUP1 PUSH4 0xE985E9C5 EQ PUSH2 0x23A JUMPI PUSH0 PUSH0 REVERT JUMPDEST DUP1 PUSH4 0x6352211E EQ PUSH2 0x1B2 JUMPI DUP1 PUSH4 0x6A627842 EQ PUSH2 0x1C5 JUMPI DUP1 PUSH4 0x70A08231 EQ PUSH2 0x1E6 JUMPI DUP1 PUSH4 0x95D89B41 EQ PUSH2 0x1F9 JUMPI PUSH0 PUSH0 REVERT JUMPDEST DUP1 PUSH4 0x23B872DD GT PUSH2 0xCE JUMPI DUP1 PUSH4 0x23B872DD EQ PUSH2 0x17C JUMPI DUP1 PUSH4 0x29CB924D EQ PUSH2 0x18F JUMPI DUP1 PUSH4 0x42842E0E EQ PUSH2 0x197 JUMPI DUP1 PUSH4 0x489187E8 EQ PUSH2 0x1AA JUMPI PUSH0 PUSH0 REVERT JUMPDEST DUP1 PUSH4 0x1FFC9A7 EQ PUSH2 0xFF JUMPI DUP1 PUSH4 0x6FDDE03 EQ PUSH2 0x127 JUMPI DUP1 PUSH4 0x81812FC EQ PUSH2 0x13C JUMPI DUP1 PUSH4 0x95EA7B3 EQ PUSH2 0x167 JUMPI JUMPDEST PUSH0 PUSH0 REVERT JUMPDEST PUSH2 0x112 PUSH2 0x10D CALLDATASIZE PUSH1 0x4 PUSH2 0x108F JUMP JUMPDEST PUSH2 0x24D JUMP JUMPDEST PUSH1 0x40 MLOAD SWAP1 ISZERO ISZERO DUP2 MSTORE PUSH1 0x20 ADD JUMPDEST PUSH1 0x40 MLOAD DUP1 SWAP2 SUB SWAP1 RETURN JUMPDEST PUSH2 0x12F PUSH2 0x277 JUMP JUMPDEST PUSH1 0x40 MLOAD PUSH2 0x11E SWAP2 SWAP1 PUSH2 0x10D8 JUMP JUMPDEST PUSH2 0x14F PUSH2 0x14A CALLDATASIZE PUSH1 0x4 PUSH2 0x10EA JUMP JUMPDEST PUSH2 0x306 JUMP JUMPDEST PUSH1 0x40 MLOAD PUSH1 0x1 PUSH1 0x1 PUSH1 0xA0 SHL SUB SWAP1 SWAP2 AND DUP2 MSTORE PUSH1 0x20 ADD PUSH2 0x11E JUMP JUMPDEST PUSH2 0x17A PUSH2 0x175 CALLDATASIZE PUSH1 0x4 PUSH2 0x111C JUMP JUMPDEST PUSH2 0x32D JUMP JUMPDEST STOP JUMPDEST PUSH2 0x17A PUSH2 0x18A CALLDATASIZE PUSH1 0x4 PUSH2 0x1144 JUMP JUMPDEST PUSH2 0x33C JUMP JUMPDEST PUSH2 0x12F PUSH2 0x3CA JUMP JUMPDEST PUSH2 0x17A PUSH2 0x1A5 CALLDATASIZE PUSH1 0x4 PUSH2 0x1144 JUMP JUMPDEST PUSH2 0x505 JUMP JUMPDEST PUSH2 0x12F PUSH2 0x524 JUMP JUMPDEST PUSH2 0x14F PUSH2 0x1C0 CALLDATASIZE PUSH1 0x4 PUSH2 0x10EA JUMP JUMPDEST PUSH2 0x557 JUMP JUMPDEST PUSH2 0x1D8 PUSH2 0x1D3 CALLDATASIZE PUSH1 0x4 PUSH2 0x117E JUMP JUMPDEST PUSH2 0x561 JUMP JUMPDEST PUSH1 0x40 MLOAD SWAP1 DUP2 MSTORE PUSH1 0x20 ADD PUSH2 0x11E JUMP JUMPDEST PUSH2 0x1D8 PUSH2 0x1F4 CALLDATASIZE PUSH1 0x4 PUSH2 0x117E JUMP JUMPDEST PUSH2 0x58B JUMP JUMPDEST PUSH2 0x12F PUSH2 0x5D0 JUMP JUMPDEST PUSH2 0x17A PUSH2 0x20F CALLDATASIZE PUSH1 0x4 PUSH2 0x1197 JUMP JUMPDEST PUSH2 0x5DF JUMP JUMPDEST PUSH2 0x17A PUSH2 0x222 CALLDATASIZE PUSH1 0x4 PUSH2 0x11E4 JUMP JUMPDEST PUSH2 0x5EA JUMP JUMPDEST PUSH2 0x12F PUSH2 0x235 CALLDATASIZE PUSH1 0x4 PUSH2 0x10EA JUMP JUMPDEST PUSH2 0x602 JUMP JUMPDEST PUSH2 0x112 PUSH2 0x248 CALLDATASIZE PUSH1 0x4 PUSH2 0x12C1 JUMP JUMPDEST PUSH2 0x7C7 JUMP JUMPDEST PUSH0 PUSH1 0x1 PUSH1 0x1 PUSH1 0xE0 SHL SUB NOT DUP3 AND PUSH4 0x24832483 PUSH1 0xE1 SHL EQ DUP1 PUSH2 0x271 JUMPI POP PUSH2 0x271 DUP3 PUSH2 0x7F4 JUMP JUMPDEST SWAP3 SWAP2 POP POP JUMP JUMPDEST PUSH1 0x60 PUSH0 DUP1 SLOAD PUSH2 0x285 SWAP1 PUSH2 0x12F2 JUMP JUMPDEST DUP1 PUSH1 0x1F ADD PUSH1 0x20 DUP1 SWAP2 DIV MUL PUSH1 0x20 ADD PUSH1 0x40 MLOAD SWAP1 DUP2 ADD PUSH1 0x40 MSTORE DUP1 SWAP3 SWAP2 SWAP1 DUP2 DUP2 MSTORE PUSH1 0x20 ADD DUP3 DUP1 SLOAD PUSH2 0x2B1 SWAP1 PUSH2 0x12F2 JUMP JUMPDEST DUP1 ISZERO PUSH2 0x2FC JUMPI DUP1 PUSH1 0x1F LT PUSH2 0x2D3 JUMPI PUSH2 0x100 DUP1 DUP4 SLOAD DIV MUL DUP4 MSTORE SWAP2 PUSH1 0x20 ADD SWAP2 PUSH2 0x2FC JUMP JUMPDEST DUP3 ADD SWAP2 SWAP1 PUSH0 MSTORE PUSH1 0x20 PUSH0 KECCAK256 SWAP1 JUMPDEST DUP2 SLOAD DUP2 MSTORE SWAP1 PUSH1 0x1 ADD SWAP1 PUSH1 0x20 ADD DUP1 DUP4 GT PUSH2 0x2DF JUMPI DUP3 SWAP1 SUB PUSH1 0x1F AND DUP3 ADD SWAP2 JUMPDEST POP POP POP POP POP SWAP1 POP SWAP1 JUMP JUMPDEST PUSH0 PUSH2 0x310 DUP3 PUSH2 0x843 JUMP JUMPDEST POP PUSH0 DUP3 DUP2 MSTORE PUSH1 0x4 PUSH1 0x20 MSTORE PUSH1 0x40 SWAP1 KECCAK256 SLOAD PUSH1 0x1 PUSH1 0x1 PUSH1 0xA0 SHL SUB AND PUSH2 0x271 JUMP JUMPDEST PUSH2 0x338 DUP3 DUP3 CALLER PUSH2 0x87B JUMP JUMPDEST POP POP JUMP JUMPDEST PUSH1 0x1 PUSH1 0x1 PUSH1 0xA0 SHL SUB DUP3 AND PUSH2 0x36A JUMPI PUSH1 0x40 MLOAD PUSH4 0x32505749 PUSH1 0xE1 SHL DUP2 MSTORE PUSH0 PUSH1 0x4 DUP3 ADD MSTORE PUSH1 0x24 ADD JUMPDEST PUSH1 0x40 MLOAD DUP1 SWAP2 SUB SWAP1 REVERT JUMPDEST PUSH0 PUSH2 0x376 DUP4 DUP4 CALLER PUSH2 0x888 JUMP JUMPDEST SWAP1 POP DUP4 PUSH1 0x1 PUSH1 0x1 PUSH1 0xA0 SHL SUB AND DUP2 PUSH1 0x1 PUSH1 0x1 PUSH1 0xA0 SHL SUB AND EQ PUSH2 0x3C4 JUMPI PUSH1 0x40 MLOAD PUSH4 0x64283D7B PUSH1 0xE0 SHL DUP2 MSTORE PUSH1 0x1 PUSH1 0x1 PUSH1 0xA0 SHL SUB DUP1 DUP7 AND PUSH1 0x4 DUP4 ADD MSTORE PUSH1 0x24 DUP3 ADD DUP5 SWAP1 MSTORE DUP3 AND PUSH1 0x44 DUP3 ADD MSTORE PUSH1 0x64 ADD PUSH2 0x361 JUMP JUMPDEST POP POP POP POP JUMP JUMPDEST PUSH1 0x60 TIMESTAMP PUSH0 PUSH1 0x18 PUSH2 0x3DC PUSH2 0xE10 DUP5 PUSH2 0x1352 JUMP JUMPDEST PUSH2 0x3E6 SWAP2 SWAP1 PUSH2 0x1365 JUMP JUMPDEST SWAP1 POP PUSH0 PUSH1 0x3C PUSH2 0x3F5 DUP2 DUP6 PUSH2 0x1352 JUMP JUMPDEST PUSH2 0x3FF SWAP2 SWAP1 PUSH2 0x1365 JUMP JUMPDEST SWAP1 POP PUSH0 PUSH2 0x40D PUSH1 0x3C DUP6 PUSH2 0x1365 JUMP JUMPDEST SWAP1 POP PUSH0 PUSH1 0xA DUP5 LT PUSH2 0x426 JUMPI PUSH2 0x421 DUP5 PUSH2 0x97C JUMP JUMPDEST PUSH2 0x44F JUMP JUMPDEST PUSH2 0x42F DUP5 PUSH2 0x97C JUMP JUMPDEST PUSH1 0x40 MLOAD PUSH1 0x20 ADD PUSH2 0x43F SWAP2 SWAP1 PUSH2 0x138F JUMP JUMPDEST PUSH1 0x40 MLOAD PUSH1 0x20 DUP2 DUP4 SUB SUB DUP2 MSTORE SWAP1 PUSH1 0x40 MSTORE JUMPDEST SWAP1 POP PUSH0 PUSH1 0xA DUP5 LT PUSH2 0x468 JUMPI PUSH2 0x463 DUP5 PUSH2 0x97C JUMP JUMPDEST PUSH2 0x491 JUMP JUMPDEST PUSH2 0x471 DUP5 PUSH2 0x97C JUMP JUMPDEST PUSH1 0x40 MLOAD PUSH1 0x20 ADD PUSH2 0x481 SWAP2 SWAP1 PUSH2 0x138F JUMP JUMPDEST PUSH1 0x40 MLOAD PUSH1 0x20 DUP2 DUP4 SUB SUB DUP2 MSTORE SWAP1 PUSH1 0x40 MSTORE JUMPDEST SWAP1 POP PUSH0 PUSH1 0xA DUP5 LT PUSH2 0x4AA JUMPI PUSH2 0x4A5 DUP5 PUSH2 0x97C JUMP JUMPDEST PUSH2 0x4D3 JUMP JUMPDEST PUSH2 0x4B3 DUP5 PUSH2 0x97C JUMP JUMPDEST PUSH1 0x40 MLOAD PUSH1 0x20 ADD PUSH2 0x4C3 SWAP2 SWAP1 PUSH2 0x138F JUMP JUMPDEST PUSH1 0x40 MLOAD PUSH1 0x20 DUP2 DUP4 SUB SUB DUP2 MSTORE SWAP1 PUSH1 0x40 MSTORE JUMPDEST SWAP1 POP DUP3 DUP3 DUP3 PUSH1 0x40 MLOAD PUSH1 0x20 ADD PUSH2 0x4EA SWAP4 SWAP3 SWAP2 SWAP1 PUSH2 0x13A4 JUMP JUMPDEST PUSH1 0x40 MLOAD PUSH1 0x20 DUP2 DUP4 SUB SUB DUP2 MSTORE SWAP1 PUSH1 0x40 MSTORE SWAP8 POP POP POP POP POP POP POP POP SWAP1 JUMP JUMPDEST PUSH2 0x51F DUP4 DUP4 DUP4 PUSH1 0x40 MLOAD DUP1 PUSH1 0x20 ADD PUSH1 0x40 MSTORE DUP1 PUSH0 DUP2 MSTORE POP PUSH2 0x5EA JUMP JUMPDEST POP POP POP JUMP JUMPDEST PUSH1 0x60 PUSH0 PUSH2 0x52F PUSH2 0x3CA JUMP JUMPDEST SWAP1 POP DUP1 PUSH1 0x40 MLOAD PUSH1 0x20 ADD PUSH2 0x542 SWAP2 SWAP1 PUSH2 0x13E3 JUMP JUMPDEST PUSH1 0x40 MLOAD PUSH1 0x20 DUP2 DUP4 SUB SUB DUP2 MSTORE SWAP1 PUSH1 0x40 MSTORE SWAP2 POP POP SWAP1 JUMP JUMPDEST PUSH0 PUSH2 0x271 DUP3 PUSH2 0x843 JUMP JUMPDEST PUSH1 0x7 SLOAD PUSH0 SWAP1 PUSH2 0x570 DUP4 DUP3 PUSH2 0xA0C JUMP JUMPDEST PUSH1 0x7 DUP1 SLOAD SWAP1 PUSH0 PUSH2 0x57F DUP4 PUSH2 0x14FB JUMP JUMPDEST SWAP1 SWAP2 SSTORE POP SWAP1 SWAP4 SWAP3 POP POP POP JUMP JUMPDEST PUSH0 PUSH1 0x1 PUSH1 0x1 PUSH1 0xA0 SHL SUB DUP3 AND PUSH2 0x5B5 JUMPI PUSH1 0x40 MLOAD PUSH4 0x22718AD9 PUSH1 0xE2 SHL DUP2 MSTORE PUSH0 PUSH1 0x4 DUP3 ADD MSTORE PUSH1 0x24 ADD PUSH2 0x361 JUMP JUMPDEST POP PUSH1 0x1 PUSH1 0x1 PUSH1 0xA0 SHL SUB AND PUSH0 SWAP1 DUP2 MSTORE PUSH1 0x3 PUSH1 0x20 MSTORE PUSH1 0x40 SWAP1 KECCAK256 SLOAD SWAP1 JUMP JUMPDEST PUSH1 0x60 PUSH1 0x1 DUP1 SLOAD PUSH2 0x285 SWAP1 PUSH2 0x12F2 JUMP JUMPDEST PUSH2 0x338 CALLER DUP4 DUP4 PUSH2 0xA6D JUMP JUMPDEST PUSH2 0x5F5 DUP5 DUP5 DUP5 PUSH2 0x33C JUMP JUMPDEST PUSH2 0x3C4 CALLER DUP6 DUP6 DUP6 DUP6 PUSH2 0xB0B JUMP JUMPDEST PUSH1 0x60 TIMESTAMP PUSH0 PUSH1 0x18 PUSH2 0x614 PUSH2 0xE10 DUP5 PUSH2 0x1352 JUMP JUMPDEST PUSH2 0x61E SWAP2 SWAP1 PUSH2 0x1365 JUMP JUMPDEST SWAP1 POP PUSH0 PUSH1 0x3C PUSH2 0x62D DUP2 DUP6 PUSH2 0x1352 JUMP JUMPDEST PUSH2 0x637 SWAP2 SWAP1 PUSH2 0x1365 JUMP JUMPDEST SWAP1 POP PUSH0 PUSH2 0x645 PUSH1 0x3C DUP6 PUSH2 0x1365 JUMP JUMPDEST SWAP1 POP PUSH0 PUSH1 0xA DUP5 LT PUSH2 0x65E JUMPI PUSH2 0x659 DUP5 PUSH2 0x97C JUMP JUMPDEST PUSH2 0x687 JUMP JUMPDEST PUSH2 0x667 DUP5 PUSH2 0x97C JUMP JUMPDEST PUSH1 0x40 MLOAD PUSH1 0x20 ADD PUSH2 0x677 SWAP2 SWAP1 PUSH2 0x138F JUMP JUMPDEST PUSH1 0x40 MLOAD PUSH1 0x20 DUP2 DUP4 SUB SUB DUP2 MSTORE SWAP1 PUSH1 0x40 MSTORE JUMPDEST SWAP1 POP PUSH0 PUSH1 0xA DUP5 LT PUSH2 0x6A0 JUMPI PUSH2 0x69B DUP5 PUSH2 0x97C JUMP JUMPDEST PUSH2 0x6C9 JUMP JUMPDEST PUSH2 0x6A9 DUP5 PUSH2 0x97C JUMP JUMPDEST PUSH1 0x40 MLOAD PUSH1 0x20 ADD PUSH2 0x6B9 SWAP2 SWAP1 PUSH2 0x138F JUMP JUMPDEST PUSH1 0x40 MLOAD PUSH1 0x20 DUP2 DUP4 SUB SUB DUP2 MSTORE SWAP1 PUSH1 0x40 MSTORE JUMPDEST SWAP1 POP PUSH0 PUSH1 0xA DUP5 LT PUSH2 0x6E2 JUMPI PUSH2 0x6DD DUP5 PUSH2 0x97C JUMP JUMPDEST PUSH2 0x70B JUMP JUMPDEST PUSH2 0x6EB DUP5 PUSH2 0x97C JUMP JUMPDEST PUSH1 0x40 MLOAD PUSH1 0x20 ADD PUSH2 0x6FB SWAP2 SWAP1 PUSH2 0x138F JUMP JUMPDEST PUSH1 0x40 MLOAD PUSH1 0x20 DUP2 DUP4 SUB SUB DUP2 MSTORE SWAP1 PUSH1 0x40 MSTORE JUMPDEST SWAP1 POP PUSH0 DUP4 DUP4 DUP4 PUSH1 0x40 MLOAD PUSH1 0x20 ADD PUSH2 0x723 SWAP4 SWAP3 SWAP2 SWAP1 PUSH2 0x13A4 JUMP JUMPDEST PUSH1 0x40 MLOAD PUSH1 0x20 DUP2 DUP4 SUB SUB DUP2 MSTORE SWAP1 PUSH1 0x40 MSTORE SWAP1 POP PUSH0 DUP2 PUSH1 0x40 MLOAD PUSH1 0x20 ADD PUSH2 0x746 SWAP2 SWAP1 PUSH2 0x13E3 JUMP JUMPDEST PUSH1 0x40 MLOAD PUSH1 0x20 DUP2 DUP4 SUB SUB DUP2 MSTORE SWAP1 PUSH1 0x40 MSTORE SWAP1 POP PUSH0 PUSH2 0x792 PUSH2 0x764 DUP14 PUSH2 0x97C JUMP JUMPDEST PUSH2 0x76D DUP5 PUSH2 0xC33 JUMP JUMPDEST PUSH1 0x40 MLOAD PUSH1 0x20 ADD PUSH2 0x77E SWAP3 SWAP2 SWAP1 PUSH2 0x1513 JUMP JUMPDEST PUSH1 0x40 MLOAD PUSH1 0x20 DUP2 DUP4 SUB SUB DUP2 MSTORE SWAP1 PUSH1 0x40 MSTORE PUSH2 0xC33 JUMP JUMPDEST SWAP1 POP PUSH0 DUP2 PUSH1 0x40 MLOAD PUSH1 0x20 ADD PUSH2 0x7A6 SWAP2 SWAP1 PUSH2 0x15CB JUMP JUMPDEST PUSH1 0x40 DUP1 MLOAD PUSH1 0x1F NOT DUP2 DUP5 SUB ADD DUP2 MSTORE SWAP2 SWAP1 MSTORE SWAP14 SWAP13 POP POP POP POP POP POP POP POP POP POP POP POP POP JUMP JUMPDEST PUSH1 0x1 PUSH1 0x1 PUSH1 0xA0 SHL SUB SWAP2 DUP3 AND PUSH0 SWAP1 DUP2 MSTORE PUSH1 0x5 PUSH1 0x20 SWAP1 DUP2 MSTORE PUSH1 0x40 DUP1 DUP4 KECCAK256 SWAP4 SWAP1 SWAP5 AND DUP3 MSTORE SWAP2 SWAP1 SWAP2 MSTORE KECCAK256 SLOAD PUSH1 0xFF AND SWAP1 JUMP JUMPDEST PUSH0 PUSH1 0x1 PUSH1 0x1 PUSH1 0xE0 SHL SUB NOT DUP3 AND PUSH4 0x80AC58CD PUSH1 0xE0 SHL EQ DUP1 PUSH2 0x824 JUMPI POP PUSH1 0x1 PUSH1 0x1 PUSH1 0xE0 SHL SUB NOT DUP3 AND PUSH4 0x5B5E139F PUSH1 0xE0 SHL EQ JUMPDEST DUP1 PUSH2 0x271 JUMPI POP PUSH4 0x1FFC9A7 PUSH1 0xE0 SHL PUSH1 0x1 PUSH1 0x1 PUSH1 0xE0 SHL SUB NOT DUP4 AND EQ PUSH2 0x271 JUMP JUMPDEST PUSH0 DUP2 DUP2 MSTORE PUSH1 0x2 PUSH1 0x20 MSTORE PUSH1 0x40 DUP2 KECCAK256 SLOAD PUSH1 0x1 PUSH1 0x1 PUSH1 0xA0 SHL SUB AND DUP1 PUSH2 0x271 JUMPI PUSH1 0x40 MLOAD PUSH4 0x7E273289 PUSH1 0xE0 SHL DUP2 MSTORE PUSH1 0x4 DUP2 ADD DUP5 SWAP1 MSTORE PUSH1 0x24 ADD PUSH2 0x361 JUMP JUMPDEST PUSH2 0x51F DUP4 DUP4 DUP4 PUSH1 0x1 PUSH2 0xC59 JUMP JUMPDEST PUSH0 DUP3 DUP2 MSTORE PUSH1 0x2 PUSH1 0x20 MSTORE PUSH1 0x40 DUP2 KECCAK256 SLOAD PUSH1 0x1 PUSH1 0x1 PUSH1 0xA0 SHL SUB SWAP1 DUP2 AND SWAP1 DUP4 AND ISZERO PUSH2 0x8B4 JUMPI PUSH2 0x8B4 DUP2 DUP5 DUP7 PUSH2 0xD5D JUMP JUMPDEST PUSH1 0x1 PUSH1 0x1 PUSH1 0xA0 SHL SUB DUP2 AND ISZERO PUSH2 0x8EE JUMPI PUSH2 0x8CF PUSH0 DUP6 PUSH0 PUSH0 PUSH2 0xC59 JUMP JUMPDEST PUSH1 0x1 PUSH1 0x1 PUSH1 0xA0 SHL SUB DUP2 AND PUSH0 SWAP1 DUP2 MSTORE PUSH1 0x3 PUSH1 0x20 MSTORE PUSH1 0x40 SWAP1 KECCAK256 DUP1 SLOAD PUSH0 NOT ADD SWAP1 SSTORE JUMPDEST PUSH1 0x1 PUSH1 0x1 PUSH1 0xA0 SHL SUB DUP6 AND ISZERO PUSH2 0x91C JUMPI PUSH1 0x1 PUSH1 0x1 PUSH1 0xA0 SHL SUB DUP6 AND PUSH0 SWAP1 DUP2 MSTORE PUSH1 0x3 PUSH1 0x20 MSTORE PUSH1 0x40 SWAP1 KECCAK256 DUP1 SLOAD PUSH1 0x1 ADD SWAP1 SSTORE JUMPDEST PUSH0 DUP5 DUP2 MSTORE PUSH1 0x2 PUSH1 0x20 MSTORE PUSH1 0x40 DUP1 DUP3 KECCAK256 DUP1 SLOAD PUSH1 0x1 PUSH1 0x1 PUSH1 0xA0 SHL SUB NOT AND PUSH1 0x1 PUSH1 0x1 PUSH1 0xA0 SHL SUB DUP10 DUP2 AND SWAP2 DUP3 OR SWAP1 SWAP3 SSTORE SWAP2 MLOAD DUP8 SWAP4 SWAP2 DUP6 AND SWAP2 PUSH32 0xDDF252AD1BE2C89B69C2B068FC378DAA952BA7F163C4A11628F55A4DF523B3EF SWAP2 LOG4 SWAP1 POP JUMPDEST SWAP4 SWAP3 POP POP POP JUMP JUMPDEST PUSH1 0x60 PUSH0 PUSH2 0x988 DUP4 PUSH2 0xDC1 JUMP JUMPDEST PUSH1 0x1 ADD SWAP1 POP PUSH0 DUP2 PUSH8 0xFFFFFFFFFFFFFFFF DUP2 GT ISZERO PUSH2 0x9A7 JUMPI PUSH2 0x9A7 PUSH2 0x11D0 JUMP JUMPDEST PUSH1 0x40 MLOAD SWAP1 DUP1 DUP3 MSTORE DUP1 PUSH1 0x1F ADD PUSH1 0x1F NOT AND PUSH1 0x20 ADD DUP3 ADD PUSH1 0x40 MSTORE DUP1 ISZERO PUSH2 0x9D1 JUMPI PUSH1 0x20 DUP3 ADD DUP2 DUP1 CALLDATASIZE DUP4 CALLDATACOPY ADD SWAP1 POP JUMPDEST POP SWAP1 POP DUP2 DUP2 ADD PUSH1 0x20 ADD JUMPDEST PUSH0 NOT ADD PUSH16 0x181899199A1A9B1B9C1CB0B131B232B3 PUSH1 0x81 SHL PUSH1 0xA DUP7 MOD BYTE DUP2 MSTORE8 PUSH1 0xA DUP6 DIV SWAP5 POP DUP5 PUSH2 0x9DB JUMPI POP SWAP4 SWAP3 POP POP POP JUMP JUMPDEST PUSH1 0x1 PUSH1 0x1 PUSH1 0xA0 SHL SUB DUP3 AND PUSH2 0xA35 JUMPI PUSH1 0x40 MLOAD PUSH4 0x32505749 PUSH1 0xE1 SHL DUP2 MSTORE PUSH0 PUSH1 0x4 DUP3 ADD MSTORE PUSH1 0x24 ADD PUSH2 0x361 JUMP JUMPDEST PUSH0 PUSH2 0xA41 DUP4 DUP4 PUSH0 PUSH2 0x888 JUMP JUMPDEST SWAP1 POP PUSH1 0x1 PUSH1 0x1 PUSH1 0xA0 SHL SUB DUP2 AND ISZERO PUSH2 0x51F JUMPI PUSH1 0x40 MLOAD PUSH4 0x39E35637 PUSH1 0xE1 SHL DUP2 MSTORE PUSH0 PUSH1 0x4 DUP3 ADD MSTORE PUSH1 0x24 ADD PUSH2 0x361 JUMP JUMPDEST PUSH1 0x1 PUSH1 0x1 PUSH1 0xA0 SHL SUB DUP3 AND PUSH2 0xA9F JUMPI PUSH1 0x40 MLOAD PUSH4 0xB611743 PUSH1 0xE3 SHL DUP2 MSTORE PUSH1 0x1 PUSH1 0x1 PUSH1 0xA0 SHL SUB DUP4 AND PUSH1 0x4 DUP3 ADD MSTORE PUSH1 0x24 ADD PUSH2 0x361 JUMP JUMPDEST PUSH1 0x1 PUSH1 0x1 PUSH1 0xA0 SHL SUB DUP4 DUP2 AND PUSH0 DUP2 DUP2 MSTORE PUSH1 0x5 PUSH1 0x20 SWAP1 DUP2 MSTORE PUSH1 0x40 DUP1 DUP4 KECCAK256 SWAP5 DUP8 AND DUP1 DUP5 MSTORE SWAP5 DUP3 MSTORE SWAP2 DUP3 SWAP1 KECCAK256 DUP1 SLOAD PUSH1 0xFF NOT AND DUP7 ISZERO ISZERO SWAP1 DUP2 OR SWAP1 SWAP2 SSTORE SWAP2 MLOAD SWAP2 DUP3 MSTORE PUSH32 0x17307EAB39AB6107E8899845AD3D59BD9653F200F220920489CA2B5937696C31 SWAP2 ADD PUSH1 0x40 MLOAD DUP1 SWAP2 SUB SWAP1 LOG3 POP POP POP JUMP JUMPDEST PUSH1 0x1 PUSH1 0x1 PUSH1 0xA0 SHL SUB DUP4 AND EXTCODESIZE ISZERO PUSH2 0xC2C JUMPI PUSH1 0x40 MLOAD PUSH4 0xA85BD01 PUSH1 0xE1 SHL DUP2 MSTORE PUSH1 0x1 PUSH1 0x1 PUSH1 0xA0 SHL SUB DUP5 AND SWAP1 PUSH4 0x150B7A02 SWAP1 PUSH2 0xB4D SWAP1 DUP9 SWAP1 DUP9 SWAP1 DUP8 SWAP1 DUP8 SWAP1 PUSH1 0x4 ADD PUSH2 0x15FC JUMP JUMPDEST PUSH1 0x20 PUSH1 0x40 MLOAD DUP1 DUP4 SUB DUP2 PUSH0 DUP8 GAS CALL SWAP3 POP POP POP DUP1 ISZERO PUSH2 0xB87 JUMPI POP PUSH1 0x40 DUP1 MLOAD PUSH1 0x1F RETURNDATASIZE SWAP1 DUP2 ADD PUSH1 0x1F NOT AND DUP3 ADD SWAP1 SWAP3 MSTORE PUSH2 0xB84 SWAP2 DUP2 ADD SWAP1 PUSH2 0x162E JUMP JUMPDEST PUSH1 0x1 JUMPDEST PUSH2 0xBEE JUMPI RETURNDATASIZE DUP1 DUP1 ISZERO PUSH2 0xBB4 JUMPI PUSH1 0x40 MLOAD SWAP2 POP PUSH1 0x1F NOT PUSH1 0x3F RETURNDATASIZE ADD AND DUP3 ADD PUSH1 0x40 MSTORE RETURNDATASIZE DUP3 MSTORE RETURNDATASIZE PUSH0 PUSH1 0x20 DUP5 ADD RETURNDATACOPY PUSH2 0xBB9 JUMP JUMPDEST PUSH1 0x60 SWAP2 POP JUMPDEST POP DUP1 MLOAD PUSH0 SUB PUSH2 0xBE6 JUMPI PUSH1 0x40 MLOAD PUSH4 0x32505749 PUSH1 0xE1 SHL DUP2 MSTORE PUSH1 0x1 PUSH1 0x1 PUSH1 0xA0 SHL SUB DUP6 AND PUSH1 0x4 DUP3 ADD MSTORE PUSH1 0x24 ADD PUSH2 0x361 JUMP JUMPDEST DUP1 MLOAD PUSH1 0x20 DUP3 ADD REVERT JUMPDEST PUSH1 0x1 PUSH1 0x1 PUSH1 0xE0 SHL SUB NOT DUP2 AND PUSH4 0xA85BD01 PUSH1 0xE1 SHL EQ PUSH2 0xC2A JUMPI PUSH1 0x40 MLOAD PUSH4 0x32505749 PUSH1 0xE1 SHL DUP2 MSTORE PUSH1 0x1 PUSH1 0x1 PUSH1 0xA0 SHL SUB DUP6 AND PUSH1 0x4 DUP3 ADD MSTORE PUSH1 0x24 ADD PUSH2 0x361 JUMP JUMPDEST POP JUMPDEST POP POP POP POP POP JUMP JUMPDEST PUSH1 0x60 PUSH2 0x271 DUP3 PUSH1 0x40 MLOAD DUP1 PUSH1 0x60 ADD PUSH1 0x40 MSTORE DUP1 PUSH1 0x40 DUP2 MSTORE PUSH1 0x20 ADD PUSH2 0x1674 PUSH1 0x40 SWAP2 CODECOPY PUSH1 0x1 PUSH2 0xE98 JUMP JUMPDEST DUP1 DUP1 PUSH2 0xC6D JUMPI POP PUSH1 0x1 PUSH1 0x1 PUSH1 0xA0 SHL SUB DUP3 AND ISZERO ISZERO JUMPDEST ISZERO PUSH2 0xD2E JUMPI PUSH0 PUSH2 0xC7C DUP5 PUSH2 0x843 JUMP JUMPDEST SWAP1 POP PUSH1 0x1 PUSH1 0x1 PUSH1 0xA0 SHL SUB DUP4 AND ISZERO DUP1 ISZERO SWAP1 PUSH2 0xCA8 JUMPI POP DUP3 PUSH1 0x1 PUSH1 0x1 PUSH1 0xA0 SHL SUB AND DUP2 PUSH1 0x1 PUSH1 0x1 PUSH1 0xA0 SHL SUB AND EQ ISZERO JUMPDEST DUP1 ISZERO PUSH2 0xCBB JUMPI POP PUSH2 0xCB9 DUP2 DUP5 PUSH2 0x7C7 JUMP JUMPDEST ISZERO JUMPDEST ISZERO PUSH2 0xCE4 JUMPI PUSH1 0x40 MLOAD PUSH4 0xA9FBF51F PUSH1 0xE0 SHL DUP2 MSTORE PUSH1 0x1 PUSH1 0x1 PUSH1 0xA0 SHL SUB DUP5 AND PUSH1 0x4 DUP3 ADD MSTORE PUSH1 0x24 ADD PUSH2 0x361 JUMP JUMPDEST DUP2 ISZERO PUSH2 0xD2C JUMPI DUP4 DUP6 PUSH1 0x1 PUSH1 0x1 PUSH1 0xA0 SHL SUB AND DUP3 PUSH1 0x1 PUSH1 0x1 PUSH1 0xA0 SHL SUB AND PUSH32 0x8C5BE1E5EBEC7D5BD14F71427D1E84F3DD0314C0F7B2291E5B200AC8C7C3B925 PUSH1 0x40 MLOAD PUSH1 0x40 MLOAD DUP1 SWAP2 SUB SWAP1 LOG4 JUMPDEST POP JUMPDEST POP POP PUSH0 SWAP1 DUP2 MSTORE PUSH1 0x4 PUSH1 0x20 MSTORE PUSH1 0x40 SWAP1 KECCAK256 DUP1 SLOAD PUSH1 0x1 PUSH1 0x1 PUSH1 0xA0 SHL SUB NOT AND PUSH1 0x1 PUSH1 0x1 PUSH1 0xA0 SHL SUB SWAP3 SWAP1 SWAP3 AND SWAP2 SWAP1 SWAP2 OR SWAP1 SSTORE JUMP JUMPDEST PUSH2 0xD68 DUP4 DUP4 DUP4 PUSH2 0x1013 JUMP JUMPDEST PUSH2 0x51F JUMPI PUSH1 0x1 PUSH1 0x1 PUSH1 0xA0 SHL SUB DUP4 AND PUSH2 0xD96 JUMPI PUSH1 0x40 MLOAD PUSH4 0x7E273289 PUSH1 0xE0 SHL DUP2 MSTORE PUSH1 0x4 DUP2 ADD DUP3 SWAP1 MSTORE PUSH1 0x24 ADD PUSH2 0x361 JUMP JUMPDEST PUSH1 0x40 MLOAD PUSH4 0x177E802F PUSH1 0xE0 SHL DUP2 MSTORE PUSH1 0x1 PUSH1 0x1 PUSH1 0xA0 SHL SUB DUP4 AND PUSH1 0x4 DUP3 ADD MSTORE PUSH1 0x24 DUP2 ADD DUP3 SWAP1 MSTORE PUSH1 0x44 ADD PUSH2 0x361 JUMP JUMPDEST PUSH0 DUP1 PUSH19 0x184F03E93FF9F4DAA797ED6E38ED64BF6A1F01 PUSH1 0x40 SHL DUP4 LT PUSH2 0xDFF JUMPI PUSH19 0x184F03E93FF9F4DAA797ED6E38ED64BF6A1F01 PUSH1 0x40 SHL DUP4 DIV SWAP3 POP PUSH1 0x40 ADD JUMPDEST PUSH14 0x4EE2D6D415B85ACEF8100000000 DUP4 LT PUSH2 0xE2B JUMPI PUSH14 0x4EE2D6D415B85ACEF8100000000 DUP4 DIV SWAP3 POP PUSH1 0x20 ADD JUMPDEST PUSH7 0x2386F26FC10000 DUP4 LT PUSH2 0xE49 JUMPI PUSH7 0x2386F26FC10000 DUP4 DIV SWAP3 POP PUSH1 0x10 ADD JUMPDEST PUSH4 0x5F5E100 DUP4 LT PUSH2 0xE61 JUMPI PUSH4 0x5F5E100 DUP4 DIV SWAP3 POP PUSH1 0x8 ADD JUMPDEST PUSH2 0x2710 DUP4 LT PUSH2 0xE75 JUMPI PUSH2 0x2710 DUP4 DIV SWAP3 POP PUSH1 0x4 ADD JUMPDEST PUSH1 0x64 DUP4 LT PUSH2 0xE87 JUMPI PUSH1 0x64 DUP4 DIV SWAP3 POP PUSH1 0x2 ADD JUMPDEST PUSH1 0xA DUP4 LT PUSH2 0x271 JUMPI PUSH1 0x1 ADD SWAP3 SWAP2 POP POP JUMP JUMPDEST PUSH1 0x60 DUP4 MLOAD PUSH0 SUB PUSH2 0xEB6 JUMPI POP PUSH1 0x40 DUP1 MLOAD PUSH1 0x20 DUP2 ADD SWAP1 SWAP2 MSTORE PUSH0 DUP2 MSTORE PUSH2 0x975 JUMP JUMPDEST PUSH0 DUP3 PUSH2 0xEE6 JUMPI PUSH1 0x3 DUP6 MLOAD PUSH1 0x4 PUSH2 0xECC SWAP2 SWAP1 PUSH2 0x1649 JUMP JUMPDEST PUSH2 0xED7 SWAP1 PUSH1 0x2 PUSH2 0x1660 JUMP JUMPDEST PUSH2 0xEE1 SWAP2 SWAP1 PUSH2 0x1352 JUMP JUMPDEST PUSH2 0xF0B JUMP JUMPDEST PUSH1 0x3 DUP6 MLOAD PUSH1 0x2 PUSH2 0xEF6 SWAP2 SWAP1 PUSH2 0x1660 JUMP JUMPDEST PUSH2 0xF00 SWAP2 SWAP1 PUSH2 0x1352 JUMP JUMPDEST PUSH2 0xF0B SWAP1 PUSH1 0x4 PUSH2 0x1649 JUMP JUMPDEST SWAP1 POP PUSH0 DUP2 PUSH8 0xFFFFFFFFFFFFFFFF DUP2 GT ISZERO PUSH2 0xF27 JUMPI PUSH2 0xF27 PUSH2 0x11D0 JUMP JUMPDEST PUSH1 0x40 MLOAD SWAP1 DUP1 DUP3 MSTORE DUP1 PUSH1 0x1F ADD PUSH1 0x1F NOT AND PUSH1 0x20 ADD DUP3 ADD PUSH1 0x40 MSTORE DUP1 ISZERO PUSH2 0xF51 JUMPI PUSH1 0x20 DUP3 ADD DUP2 DUP1 CALLDATASIZE DUP4 CALLDATACOPY ADD SWAP1 POP JUMPDEST POP SWAP1 POP PUSH1 0x1 DUP6 ADD PUSH1 0x20 DUP3 ADD DUP8 DUP9 MLOAD DUP10 ADD PUSH1 0x20 DUP2 ADD DUP1 MLOAD PUSH0 DUP3 MSTORE JUMPDEST DUP3 DUP5 LT ISZERO PUSH2 0xFC6 JUMPI PUSH1 0x3 DUP5 ADD SWAP4 POP DUP4 MLOAD PUSH1 0x3F DUP2 PUSH1 0x12 SHR AND DUP8 ADD MLOAD DUP7 MSTORE8 PUSH1 0x1 DUP7 ADD SWAP6 POP PUSH1 0x3F DUP2 PUSH1 0xC SHR AND DUP8 ADD MLOAD DUP7 MSTORE8 PUSH1 0x1 DUP7 ADD SWAP6 POP PUSH1 0x3F DUP2 PUSH1 0x6 SHR AND DUP8 ADD MLOAD DUP7 MSTORE8 PUSH1 0x1 DUP7 ADD SWAP6 POP PUSH1 0x3F DUP2 AND DUP8 ADD MLOAD DUP7 MSTORE8 POP PUSH1 0x1 DUP6 ADD SWAP5 POP PUSH2 0xF6B JUMP JUMPDEST SWAP1 MSTORE POP POP DUP6 ISZERO PUSH2 0x1007 JUMPI PUSH1 0x3 DUP9 MLOAD MOD PUSH1 0x1 DUP2 EQ PUSH2 0xFEA JUMPI PUSH1 0x2 DUP2 EQ PUSH2 0xFFD JUMPI PUSH2 0x1005 JUMP JUMPDEST PUSH1 0x3D PUSH1 0x1 DUP4 SUB MSTORE8 PUSH1 0x3D PUSH1 0x2 DUP4 SUB MSTORE8 PUSH2 0x1005 JUMP JUMPDEST PUSH1 0x3D PUSH1 0x1 DUP4 SUB MSTORE8 JUMPDEST POP JUMPDEST POP SWAP1 SWAP7 SWAP6 POP POP POP POP POP POP JUMP JUMPDEST PUSH0 PUSH1 0x1 PUSH1 0x1 PUSH1 0xA0 SHL SUB DUP4 AND ISZERO DUP1 ISZERO SWAP1 PUSH2 0x106F JUMPI POP DUP3 PUSH1 0x1 PUSH1 0x1 PUSH1 0xA0 SHL SUB AND DUP5 PUSH1 0x1 PUSH1 0x1 PUSH1 0xA0 SHL SUB AND EQ DUP1 PUSH2 0x104C JUMPI POP PUSH2 0x104C DUP5 DUP5 PUSH2 0x7C7 JUMP JUMPDEST DUP1 PUSH2 0x106F JUMPI POP PUSH0 DUP3 DUP2 MSTORE PUSH1 0x4 PUSH1 0x20 MSTORE PUSH1 0x40 SWAP1 KECCAK256 SLOAD PUSH1 0x1 PUSH1 0x1 PUSH1 0xA0 SHL SUB DUP5 DUP2 AND SWAP2 AND EQ JUMPDEST SWAP5 SWAP4 POP POP POP POP JUMP JUMPDEST PUSH1 0x1 PUSH1 0x1 PUSH1 0xE0 SHL SUB NOT DUP2 AND DUP2 EQ PUSH2 0x108C JUMPI PUSH0 PUSH0 REVERT JUMPDEST POP JUMP JUMPDEST PUSH0 PUSH1 0x20 DUP3 DUP5 SUB SLT ISZERO PUSH2 0x109F JUMPI PUSH0 PUSH0 REVERT JUMPDEST DUP2 CALLDATALOAD PUSH2 0x975 DUP2 PUSH2 0x1077 JUMP JUMPDEST PUSH0 DUP2 MLOAD DUP1 DUP5 MSTORE DUP1 PUSH1 0x20 DUP5 ADD PUSH1 0x20 DUP7 ADD MCOPY PUSH0 PUSH1 0x20 DUP3 DUP7 ADD ADD MSTORE PUSH1 0x20 PUSH1 0x1F NOT PUSH1 0x1F DUP4 ADD AND DUP6 ADD ADD SWAP2 POP POP SWAP3 SWAP2 POP POP JUMP JUMPDEST PUSH1 0x20 DUP2 MSTORE PUSH0 PUSH2 0x975 PUSH1 0x20 DUP4 ADD DUP5 PUSH2 0x10AA JUMP JUMPDEST PUSH0 PUSH1 0x20 DUP3 DUP5 SUB SLT ISZERO PUSH2 0x10FA JUMPI PUSH0 PUSH0 REVERT JUMPDEST POP CALLDATALOAD SWAP2 SWAP1 POP JUMP JUMPDEST DUP1 CALLDATALOAD PUSH1 0x1 PUSH1 0x1 PUSH1 0xA0 SHL SUB DUP2 AND DUP2 EQ PUSH2 0x1117 JUMPI PUSH0 PUSH0 REVERT JUMPDEST SWAP2 SWAP1 POP JUMP JUMPDEST PUSH0 PUSH0 PUSH1 0x40 DUP4 DUP6 SUB SLT ISZERO PUSH2 0x112D JUMPI PUSH0 PUSH0 REVERT JUMPDEST PUSH2 0x1136 DUP4 PUSH2 0x1101 JUMP JUMPDEST SWAP5 PUSH1 0x20 SWAP4 SWAP1 SWAP4 ADD CALLDATALOAD SWAP4 POP POP POP JUMP JUMPDEST PUSH0 PUSH0 PUSH0 PUSH1 0x60 DUP5 DUP7 SUB SLT ISZERO PUSH2 0x1156 JUMPI PUSH0 PUSH0 REVERT JUMPDEST PUSH2 0x115F DUP5 PUSH2 0x1101 JUMP JUMPDEST SWAP3 POP PUSH2 0x116D PUSH1 0x20 DUP6 ADD PUSH2 0x1101 JUMP JUMPDEST SWAP3 SWAP6 SWAP3 SWAP5 POP POP POP PUSH1 0x40 SWAP2 SWAP1 SWAP2 ADD CALLDATALOAD SWAP1 JUMP JUMPDEST PUSH0 PUSH1 0x20 DUP3 DUP5 SUB SLT ISZERO PUSH2 0x118E JUMPI PUSH0 PUSH0 REVERT JUMPDEST PUSH2 0x975 DUP3 PUSH2 0x1101 JUMP JUMPDEST PUSH0 PUSH0 PUSH1 0x40 DUP4 DUP6 SUB SLT ISZERO PUSH2 0x11A8 JUMPI PUSH0 PUSH0 REVERT JUMPDEST PUSH2 0x11B1 DUP4 PUSH2 0x1101 JUMP JUMPDEST SWAP2 POP PUSH1 0x20 DUP4 ADD CALLDATALOAD DUP1 ISZERO ISZERO DUP2 EQ PUSH2 0x11C5 JUMPI PUSH0 PUSH0 REVERT JUMPDEST DUP1 SWAP2 POP POP SWAP3 POP SWAP3 SWAP1 POP JUMP JUMPDEST PUSH4 0x4E487B71 PUSH1 0xE0 SHL PUSH0 MSTORE PUSH1 0x41 PUSH1 0x4 MSTORE PUSH1 0x24 PUSH0 REVERT JUMPDEST PUSH0 PUSH0 PUSH0 PUSH0 PUSH1 0x80 DUP6 DUP8 SUB SLT ISZERO PUSH2 0x11F7 JUMPI PUSH0 PUSH0 REVERT JUMPDEST PUSH2 0x1200 DUP6 PUSH2 0x1101 JUMP JUMPDEST SWAP4 POP PUSH2 0x120E PUSH1 0x20 DUP7 ADD PUSH2 0x1101 JUMP JUMPDEST SWAP3 POP PUSH1 0x40 DUP6 ADD CALLDATALOAD SWAP2 POP PUSH1 0x60 DUP6 ADD CALLDATALOAD PUSH8 0xFFFFFFFFFFFFFFFF DUP2 GT ISZERO PUSH2 0x1230 JUMPI PUSH0 PUSH0 REVERT JUMPDEST DUP6 ADD PUSH1 0x1F DUP2 ADD DUP8 SGT PUSH2 0x1240 JUMPI PUSH0 PUSH0 REVERT JUMPDEST DUP1 CALLDATALOAD PUSH8 0xFFFFFFFFFFFFFFFF DUP2 GT ISZERO PUSH2 0x125A JUMPI PUSH2 0x125A PUSH2 0x11D0 JUMP JUMPDEST PUSH1 0x40 MLOAD PUSH1 0x1F DUP3 ADD PUSH1 0x1F NOT SWAP1 DUP2 AND PUSH1 0x3F ADD AND DUP2 ADD PUSH8 0xFFFFFFFFFFFFFFFF DUP2 GT DUP3 DUP3 LT OR ISZERO PUSH2 0x1289 JUMPI PUSH2 0x1289 PUSH2 0x11D0 JUMP JUMPDEST PUSH1 0x40 MSTORE DUP2 DUP2 MSTORE DUP3 DUP3 ADD PUSH1 0x20 ADD DUP10 LT ISZERO PUSH2 0x12A0 JUMPI PUSH0 PUSH0 REVERT JUMPDEST DUP2 PUSH1 0x20 DUP5 ADD PUSH1 0x20 DUP4 ADD CALLDATACOPY PUSH0 PUSH1 0x20 DUP4 DUP4 ADD ADD MSTORE DUP1 SWAP4 POP POP POP POP SWAP3 SWAP6 SWAP2 SWAP5 POP SWAP3 POP JUMP JUMPDEST PUSH0 PUSH0 PUSH1 0x40 DUP4 DUP6 SUB SLT ISZERO PUSH2 0x12D2 JUMPI PUSH0 PUSH0 REVERT JUMPDEST PUSH2 0x12DB DUP4 PUSH2 0x1101 JUMP JUMPDEST SWAP2 POP PUSH2 0x12E9 PUSH1 0x20 DUP5 ADD PUSH2 0x1101 JUMP JUMPDEST SWAP1 POP SWAP3 POP SWAP3 SWAP1 POP JUMP JUMPDEST PUSH1 0x1 DUP2 DUP2 SHR SWAP1 DUP3 AND DUP1 PUSH2 0x1306 JUMPI PUSH1 0x7F DUP3 AND SWAP2 POP JUMPDEST PUSH1 0x20 DUP3 LT DUP2 SUB PUSH2 0x1324 JUMPI PUSH4 0x4E487B71 PUSH1 0xE0 SHL PUSH0 MSTORE PUSH1 0x22 PUSH1 0x4 MSTORE PUSH1 0x24 PUSH0 REVERT JUMPDEST POP SWAP2 SWAP1 POP JUMP JUMPDEST PUSH4 0x4E487B71 PUSH1 0xE0 SHL PUSH0 MSTORE PUSH1 0x12 PUSH1 0x4 MSTORE PUSH1 0x24 PUSH0 REVERT JUMPDEST PUSH4 0x4E487B71 PUSH1 0xE0 SHL PUSH0 MSTORE PUSH1 0x11 PUSH1 0x4 MSTORE PUSH1 0x24 PUSH0 REVERT JUMPDEST PUSH0 DUP3 PUSH2 0x1360 JUMPI PUSH2 0x1360 PUSH2 0x132A JUMP JUMPDEST POP DIV SWAP1 JUMP JUMPDEST PUSH0 DUP3 PUSH2 0x1373 JUMPI PUSH2 0x1373 PUSH2 0x132A JUMP JUMPDEST POP MOD SWAP1 JUMP JUMPDEST PUSH0 DUP2 MLOAD DUP1 PUSH1 0x20 DUP5 ADD DUP6 MCOPY PUSH0 SWAP4 ADD SWAP3 DUP4 MSTORE POP SWAP1 SWAP2 SWAP1 POP JUMP JUMPDEST PUSH1 0x3 PUSH1 0xFC SHL DUP2 MSTORE PUSH0 PUSH2 0x975 PUSH1 0x1 DUP4 ADD DUP5 PUSH2 0x1378 JUMP JUMPDEST PUSH0 PUSH2 0x13AF DUP3 DUP7 PUSH2 0x1378 JUMP JUMPDEST PUSH1 0x1D PUSH1 0xF9 SHL DUP2 MSTORE PUSH2 0x13C3 PUSH1 0x1 DUP3 ADD DUP7 PUSH2 0x1378 JUMP JUMPDEST SWAP1 POP PUSH1 0x1D PUSH1 0xF9 SHL DUP2 MSTORE PUSH2 0x13D9 PUSH1 0x1 DUP3 ADD DUP6 PUSH2 0x1378 JUMP JUMPDEST SWAP7 SWAP6 POP POP POP POP POP POP JUMP JUMPDEST PUSH32 0x3C73766720786D6C6E733D27687474703A2F2F7777772E77332E6F72672F3230 DUP2 MSTORE PUSH32 0x30302F737667272077696474683D2733303027206865696768743D2732303027 PUSH1 0x20 DUP3 ADD MSTORE PUSH1 0x1F PUSH1 0xF9 SHL PUSH1 0x40 DUP3 ADD MSTORE PUSH32 0x3C726563742077696474683D273130302527206865696768743D273130302527 PUSH1 0x41 DUP3 ADD MSTORE PUSH15 0x103334B6361E93B13630B1B593979F PUSH1 0x89 SHL PUSH1 0x61 DUP3 ADD MSTORE PUSH32 0x3C7465787420783D273530252720793D27353025272066696C6C3D2777686974 PUSH1 0x70 DUP3 ADD MSTORE PUSH32 0x652720666F6E742D73697A653D2732342720746578742D616E63686F723D276D PUSH1 0x90 DUP3 ADD MSTORE PUSH7 0x34B2323632939F PUSH1 0xC9 SHL PUSH1 0xB0 DUP3 ADD MSTORE PUSH0 PUSH2 0x14DE PUSH1 0xB7 DUP4 ADD DUP5 PUSH2 0x1378 JUMP JUMPDEST PUSH13 0x1E17BA32BC3A1F1E17B9BB339F PUSH1 0x99 SHL DUP2 MSTORE PUSH1 0xD ADD SWAP4 SWAP3 POP POP POP JUMP JUMPDEST PUSH0 PUSH1 0x1 DUP3 ADD PUSH2 0x150C JUMPI PUSH2 0x150C PUSH2 0x133E JUMP JUMPDEST POP PUSH1 0x1 ADD SWAP1 JUMP JUMPDEST PUSH20 0x7B226E616D65223A202254696D65204E46542023 PUSH1 0x60 SHL DUP2 MSTORE PUSH0 PUSH2 0x153B PUSH1 0x14 DUP4 ADD DUP6 PUSH2 0x1378 JUMP JUMPDEST PUSH32 0x222C20226465736372697074696F6E223A20224F6E2D636861696E2053564720 DUP2 MSTORE PUSH32 0x73686F77696E6720626C6F636B2E74696D657374616D70222C2022696D616765 PUSH1 0x20 DUP3 ADD MSTORE PUSH32 0x223A2022646174613A696D6167652F7376672B786D6C3B6261736536342C0000 PUSH1 0x40 DUP3 ADD MSTORE PUSH2 0x15B7 PUSH1 0x5E DUP3 ADD DUP6 PUSH2 0x1378 JUMP JUMPDEST PUSH2 0x227D PUSH1 0xF0 SHL DUP2 MSTORE PUSH1 0x2 ADD SWAP6 SWAP5 POP POP POP POP POP JUMP JUMPDEST PUSH32 0x646174613A6170706C69636174696F6E2F6A736F6E3B6261736536342C000000 DUP2 MSTORE PUSH0 PUSH2 0x975 PUSH1 0x1D DUP4 ADD DUP5 PUSH2 0x1378 JUMP JUMPDEST PUSH1 0x1 PUSH1 0x1 PUSH1 0xA0 SHL SUB DUP6 DUP2 AND DUP3 MSTORE DUP5 AND PUSH1 0x20 DUP3 ADD MSTORE PUSH1 0x40 DUP2 ADD DUP4 SWAP1 MSTORE PUSH1 0x80 PUSH1 0x60 DUP3 ADD DUP2 SWAP1 MSTORE PUSH0 SWAP1 PUSH2 0x13D9 SWAP1 DUP4 ADD DUP5 PUSH2 0x10AA JUMP JUMPDEST PUSH0 PUSH1 0x20 DUP3 DUP5 SUB SLT ISZERO PUSH2 0x163E JUMPI PUSH0 PUSH0 REVERT JUMPDEST DUP2 MLOAD PUSH2 0x975 DUP2 PUSH2 0x1077 JUMP JUMPDEST DUP1 DUP3 MUL DUP2 ISZERO DUP3 DUP3 DIV DUP5 EQ OR PUSH2 0x271 JUMPI PUSH2 0x271 PUSH2 0x133E JUMP JUMPDEST DUP1 DUP3 ADD DUP1 DUP3 GT ISZERO PUSH2 0x271 JUMPI PUSH2 0x271 PUSH2 0x133E JUMP INVALID COINBASE TIMESTAMP NUMBER PREVRANDAO GASLIMIT CHAINID SELFBALANCE BASEFEE BLOBHASH BLOBBASEFEE 0x4B 0x4C 0x4D 0x4E 0x4F POP MLOAD MSTORE MSTORE8 SLOAD SSTORE JUMP JUMPI PC MSIZE GAS PUSH2 0x6263 PUSH5 0x6566676869 PUSH11 0x6B6C6D6E6F707172737475 PUSH23 0x7778797A303132333435363738392B2FA2646970667358 0x22 SLT KECCAK256 GASLIMIT 0xC9 PUSH0 GASPRICE DUP7 EXTCODEHASH ADDMOD 0x2D 0xC9 0x1E CALLER BYTE 0xA8 0xB4 DUP2 CALLDATASIZE 0xEA BASEFEE OR 0xED SWAP8 PUSH15 0x50123A4664EDD805635B64736F6C63 NUMBER STOP ADDMOD SHR STOP CALLER "},"methodIdentifiers":{"approve(address,uint256)":"095ea7b3","balanceOf(address)":"70a08231","getApproved(uint256)":"081812fc","getCurrentTime()":"29cb924d","getSVG()":"489187e8","isApprovedForAll(address,address)":"e985e9c5","mint(address)":"6a627842","name()":"06fdde03","ownerOf(uint256)":"6352211e","safeTransferFrom(address,address,uint256)":"42842e0e","safeTransferFrom(address,address,uint256,bytes)":"b88d4fde","setApprovalForAll(address,bool)":"a22cb465","supportsInterface(bytes4)":"01ffc9a7","symbol()":"95d89b41","tokenURI(uint256)":"c87b56dd","transferFrom(address,address,uint256)":"23b872dd"}}}}}