{
  "_format": "hh3-artifact-1",
  "contractName": "LootBox",
  "sourceName": "contracts/LootBox.sol",
  "abi": [
    {
      "inputs": [
        {
          "internalType": "address",
          "name": "_vrfCoordinator",
          "type": "address"
        },
        {
          "internalType": "bytes32",
          "name": "_keyHash",
          "type": "bytes32"
        },
        {
          "internalType": "uint64",
          "name": "_subId",
          "type": "uint64"
        },
        {
          "internalType": "contract LootToken",
          "name": "_loot",
          "type": "address"
        }
      ],
      "stateMutability": "nonpayable",
      "type": "constructor"
    },
    {
      "inputs": [
        {
          "internalType": "address",
          "name": "have",
          "type": "address"
        },
        {
          "internalType": "address",
          "name": "want",
          "type": "address"
        }
      ],
      "name": "OnlyCoordinatorCanFulfill",
      "type": "error"
    },
    {
      "inputs": [
        {
          "internalType": "address",
          "name": "owner",
          "type": "address"
        }
      ],
      "name": "OwnableInvalidOwner",
      "type": "error"
    },
    {
      "inputs": [
        {
          "internalType": "address",
          "name": "account",
          "type": "address"
        }
      ],
      "name": "OwnableUnauthorizedAccount",
      "type": "error"
    },
    {
      "anonymous": false,
      "inputs": [
        {
          "indexed": true,
          "internalType": "address",
          "name": "opener",
          "type": "address"
        },
        {
          "indexed": true,
          "internalType": "uint256",
          "name": "requestId",
          "type": "uint256"
        }
      ],
      "name": "BoxOpened",
      "type": "event"
    },
    {
      "anonymous": false,
      "inputs": [
        {
          "indexed": true,
          "internalType": "address",
          "name": "opener",
          "type": "address"
        },
        {
          "indexed": false,
          "internalType": "uint256",
          "name": "amount",
          "type": "uint256"
        }
      ],
      "name": "LootClaimed",
      "type": "event"
    },
    {
      "anonymous": false,
      "inputs": [
        {
          "indexed": true,
          "internalType": "address",
          "name": "previousOwner",
          "type": "address"
        },
        {
          "indexed": true,
          "internalType": "address",
          "name": "newOwner",
          "type": "address"
        }
      ],
      "name": "OwnershipTransferred",
      "type": "event"
    },
    {
      "inputs": [],
      "name": "loot",
      "outputs": [
        {
          "internalType": "contract LootToken",
          "name": "",
          "type": "address"
        }
      ],
      "stateMutability": "view",
      "type": "function"
    },
    {
      "inputs": [],
      "name": "openBox",
      "outputs": [
        {
          "internalType": "uint256",
          "name": "requestId",
          "type": "uint256"
        }
      ],
      "stateMutability": "payable",
      "type": "function"
    },
    {
      "inputs": [],
      "name": "openFee",
      "outputs": [
        {
          "internalType": "uint256",
          "name": "",
          "type": "uint256"
        }
      ],
      "stateMutability": "view",
      "type": "function"
    },
    {
      "inputs": [],
      "name": "owner",
      "outputs": [
        {
          "internalType": "address",
          "name": "",
          "type": "address"
        }
      ],
      "stateMutability": "view",
      "type": "function"
    },
    {
      "inputs": [
        {
          "internalType": "uint256",
          "name": "requestId",
          "type": "uint256"
        },
        {
          "internalType": "uint256[]",
          "name": "randomWords",
          "type": "uint256[]"
        }
      ],
      "name": "rawFulfillRandomWords",
      "outputs": [],
      "stateMutability": "nonpayable",
      "type": "function"
    },
    {
      "inputs": [],
      "name": "renounceOwnership",
      "outputs": [],
      "stateMutability": "nonpayable",
      "type": "function"
    },
    {
      "inputs": [
        {
          "internalType": "uint256",
          "name": "",
          "type": "uint256"
        }
      ],
      "name": "requests",
      "outputs": [
        {
          "internalType": "address",
          "name": "opener",
          "type": "address"
        },
        {
          "internalType": "bool",
          "name": "fulfilled",
          "type": "bool"
        }
      ],
      "stateMutability": "view",
      "type": "function"
    },
    {
      "inputs": [
        {
          "internalType": "uint256",
          "name": "_wei",
          "type": "uint256"
        }
      ],
      "name": "setFee",
      "outputs": [],
      "stateMutability": "nonpayable",
      "type": "function"
    },
    {
      "inputs": [
        {
          "internalType": "address",
          "name": "newOwner",
          "type": "address"
        }
      ],
      "name": "transferOwnership",
      "outputs": [],
      "stateMutability": "nonpayable",
      "type": "function"
    },
    {
      "inputs": [
        {
          "internalType": "address",
          "name": "to",
          "type": "address"
        }
      ],
      "name": "withdraw",
      "outputs": [],
      "stateMutability": "nonpayable",
      "type": "function"
    },
    {
      "stateMutability": "payable",
      "type": "receive"
    }
  ],
  "bytecode": "0x61012060405266038d7ea4c6800060015534801561001b575f5ffd5b50604051610a79380380610a7983398101604081905261003a91610106565b6001600160a01b038416608052338061006c57604051631e4fbdf760e01b81525f600482015260240160405180910390fd5b610075816100a0565b506001600160a01b0393841660a05260c0929092526001600160401b031660e0521661010052610163565b5f80546001600160a01b038381166001600160a01b0319831681178455604051919092169283917f8be0079c531659141344cd1fd0a4f28419497f9722a3daafe3b4186f6b6457e09190a35050565b6001600160a01b0381168114610103575f5ffd5b50565b5f5f5f5f60808587031215610119575f5ffd5b8451610124816100ef565b6020860151604087015191955093506001600160401b0381168114610147575f5ffd5b6060860151909250610158816100ef565b939692955090935050565b60805160a05160c05160e051610100516108cb6101ae5f395f81816101b5015261060501525f6103a701525f61037801525f6103e501525f818161022c015261026e01526108cb5ff3fe608060405260043610610092575f3560e01c80638da5cb5b116100575780638da5cb5b146101745780639b7b2ab0146101a4578063b7845073146101d7578063c2e952c7146101fa578063f2fde38b14610202575f5ffd5b80631fe543e31461009d57806351cff8d9146100be57806369fe0e2d146100dd578063715018a6146100fc57806381d12c5814610110575f5ffd5b3661009957005b5f5ffd5b3480156100a8575f5ffd5b506100bc6100b7366004610733565b610221565b005b3480156100c9575f5ffd5b506100bc6100d8366004610807565b6102ae565b3480156100e8575f5ffd5b506100bc6100f7366004610834565b610311565b348015610107575f5ffd5b506100bc61031e565b34801561011b575f5ffd5b5061015061012a366004610834565b60026020525f90815260409020546001600160a01b03811690600160a01b900460ff1682565b604080516001600160a01b0390931683529015156020830152015b60405180910390f35b34801561017f575f5ffd5b505f546001600160a01b03165b6040516001600160a01b03909116815260200161016b565b3480156101af575f5ffd5b5061018c7f000000000000000000000000000000000000000000000000000000000000000081565b3480156101e2575f5ffd5b506101ec60015481565b60405190815260200161016b565b6101ec610331565b34801561020d575f5ffd5b506100bc61021c366004610807565b6104d1565b336001600160a01b037f000000000000000000000000000000000000000000000000000000000000000016146102a05760405163073e64fd60e21b81523360048201526001600160a01b037f00000000000000000000000000000000000000000000000000000000000000001660248201526044015b60405180910390fd5b6102aa828261050e565b5050565b6102b66106a4565b5f816001600160a01b0316476040515f6040518083038185875af1925050503d805f81146102ff576040519150601f19603f3d011682016040523d82523d5f602084013e610304565b606091505b50509050806102aa575f5ffd5b6103196106a4565b600155565b6103266106a4565b61032f5f6106d0565b565b5f60015434146103695760405162461bcd60e51b815260206004820152600360248201526266656560e81b6044820152606401610297565b6040516305d3b1d360e41b81527f0000000000000000000000000000000000000000000000000000000000000000600482015267ffffffffffffffff7f000000000000000000000000000000000000000000000000000000000000000016602482015260036044820152620186a06064820152600160848201527f00000000000000000000000000000000000000000000000000000000000000006001600160a01b031690635d3b1d309060a4016020604051808303815f875af1158015610433573d5f5f3e3d5ffd5b505050506040513d601f19601f82011682018060405250810190610457919061084b565b604080518082018252338082525f602080840182815286835260029091528482209351845491511515600160a01b026001600160a81b03199092166001600160a01b03919091161717909255915192935083927fb73d415d4554d9bc64f3fadea1d75caaeb0f4db5b74538b5e5dcbce2660e62409190a390565b6104d96106a4565b6001600160a01b03811661050257604051631e4fbdf760e01b81525f6004820152602401610297565b61050b816106d0565b50565b5f8281526002602052604090208054600160a01b900460ff161561055d5760405162461bcd60e51b815260040161029790602080825260049082015263646f6e6560e01b604082015260600190565b805460ff60a01b1916600160a01b17815581515f906065908490839061058557610585610862565b60200260200101516105979190610876565b90505f60328211156105ba5760638211156105b357600a6105bd565b60036105bd565b60015b835460405163731133e960e01b81526001600160a01b0391821660048201525f6024820181905260ff93909316604482018190526080606483015260848201939093529192507f0000000000000000000000000000000000000000000000000000000000000000169063731133e99060a4015f604051808303815f87803b158015610646575f5ffd5b505af1158015610658573d5f5f3e3d5ffd5b505084546040518481526001600160a01b0390911692507f0ad024e0fa76fa1f6961141f63c0bf3f0ead6b56c05b3ba21b5f9fceb3badb8e915060200160405180910390a25050505050565b5f546001600160a01b0316331461032f5760405163118cdaa760e01b8152336004820152602401610297565b5f80546001600160a01b038381166001600160a01b0319831681178455604051919092169283917f8be0079c531659141344cd1fd0a4f28419497f9722a3daafe3b4186f6b6457e09190a35050565b634e487b7160e01b5f52604160045260245ffd5b5f5f60408385031215610744575f5ffd5b82359150602083013567ffffffffffffffff811115610761575f5ffd5b8301601f81018513610771575f5ffd5b803567ffffffffffffffff81111561078b5761078b61071f565b8060051b604051601f19603f830116810181811067ffffffffffffffff821117156107b8576107b861071f565b6040529182526020818401810192908101888411156107d5575f5ffd5b6020850194505b838510156107f8578435808252602095860195909350016107dc565b50809450505050509250929050565b5f60208284031215610817575f5ffd5b81356001600160a01b038116811461082d575f5ffd5b9392505050565b5f60208284031215610844575f5ffd5b5035919050565b5f6020828403121561085b575f5ffd5b5051919050565b634e487b7160e01b5f52603260045260245ffd5b5f8261089057634e487b7160e01b5f52601260045260245ffd5b50069056fea2646970667358221220f58a6cee8ff82318a3cb8d247e4e5276f421fe63ad1367baf511b3c7e2a46af264736f6c634300081c0033",
  "linkReferences": {},
  "deployedLinkReferences": {},
  "immutableReferences": {
    "10": [
      {
        "length": 32,
        "start": 556
      },
      {
        "length": 32,
        "start": 622
      }
    ],
    "6471": [
      {
        "length": 32,
        "start": 997
      }
    ],
    "6473": [
      {
        "length": 32,
        "start": 888
      }
    ],
    "6475": [
      {
        "length": 32,
        "start": 935
      }
    ],
    "6487": [
      {
        "length": 32,
        "start": 437
      },
      {
        "length": 32,
        "start": 1541
      }
    ]
  },
  "inputSourceName": "project/contracts/LootBox.sol",
  "buildInfoId": "solc-0_8_28-ae0d73738b56f709c8fc94b2516cd49b249cb67f"
}