{
  "_format": "hh-sol-artifact-1",
  "contractName": "Lottery",
  "sourceName": "contracts/Lottery.sol",
  "abi": [
    {
      "inputs": [
        {
          "internalType": "address",
          "name": "_vrfCoordinator",
          "type": "address"
        },
        {
          "internalType": "uint64",
          "name": "_subscriptionId",
          "type": "uint64"
        },
        {
          "internalType": "bytes32",
          "name": "_keyHash",
          "type": "bytes32"
        },
        {
          "internalType": "uint256",
          "name": "_entryFee",
          "type": "uint256"
        }
      ],
      "stateMutability": "nonpayable",
      "type": "constructor"
    },
    {
      "inputs": [],
      "name": "AlreadyEntered",
      "type": "error"
    },
    {
      "inputs": [
        {
          "internalType": "uint256",
          "name": "required",
          "type": "uint256"
        },
        {
          "internalType": "uint256",
          "name": "sent",
          "type": "uint256"
        }
      ],
      "name": "IncorrectFee",
      "type": "error"
    },
    {
      "inputs": [],
      "name": "LotteryClosed",
      "type": "error"
    },
    {
      "inputs": [],
      "name": "OnlyAdmin",
      "type": "error"
    },
    {
      "inputs": [
        {
          "internalType": "address",
          "name": "owner",
          "type": "address"
        }
      ],
      "name": "OwnableInvalidOwner",
      "type": "error"
    },
    {
      "inputs": [
        {
          "internalType": "address",
          "name": "account",
          "type": "address"
        }
      ],
      "name": "OwnableUnauthorizedAccount",
      "type": "error"
    },
    {
      "inputs": [],
      "name": "RandomnessPending",
      "type": "error"
    },
    {
      "inputs": [],
      "name": "ReentrancyGuardReentrantCall",
      "type": "error"
    },
    {
      "inputs": [],
      "name": "TransferFailed",
      "type": "error"
    },
    {
      "anonymous": false,
      "inputs": [
        {
          "indexed": true,
          "internalType": "address",
          "name": "previousOwner",
          "type": "address"
        },
        {
          "indexed": true,
          "internalType": "address",
          "name": "newOwner",
          "type": "address"
        }
      ],
      "name": "OwnershipTransferred",
      "type": "event"
    },
    {
      "anonymous": false,
      "inputs": [
        {
          "indexed": true,
          "internalType": "address",
          "name": "player",
          "type": "address"
        }
      ],
      "name": "PlayerJoined",
      "type": "event"
    },
    {
      "anonymous": false,
      "inputs": [
        {
          "indexed": true,
          "internalType": "address",
          "name": "winner",
          "type": "address"
        },
        {
          "indexed": false,
          "internalType": "uint256",
          "name": "prize",
          "type": "uint256"
        }
      ],
      "name": "WinnerSelected",
      "type": "event"
    },
    {
      "inputs": [],
      "name": "MAX_PLAYERS",
      "outputs": [
        {
          "internalType": "uint256",
          "name": "",
          "type": "uint256"
        }
      ],
      "stateMutability": "view",
      "type": "function"
    },
    {
      "inputs": [],
      "name": "entryFee",
      "outputs": [
        {
          "internalType": "uint256",
          "name": "",
          "type": "uint256"
        }
      ],
      "stateMutability": "view",
      "type": "function"
    },
    {
      "inputs": [],
      "name": "getEntryFee",
      "outputs": [
        {
          "internalType": "uint256",
          "name": "",
          "type": "uint256"
        }
      ],
      "stateMutability": "view",
      "type": "function"
    },
    {
      "inputs": [],
      "name": "getPlayerCount",
      "outputs": [
        {
          "internalType": "uint256",
          "name": "",
          "type": "uint256"
        }
      ],
      "stateMutability": "view",
      "type": "function"
    },
    {
      "inputs": [],
      "name": "getPlayers",
      "outputs": [
        {
          "internalType": "address[]",
          "name": "",
          "type": "address[]"
        }
      ],
      "stateMutability": "view",
      "type": "function"
    },
    {
      "inputs": [],
      "name": "getPrizePool",
      "outputs": [
        {
          "internalType": "uint256",
          "name": "",
          "type": "uint256"
        }
      ],
      "stateMutability": "view",
      "type": "function"
    },
    {
      "inputs": [],
      "name": "getWinner",
      "outputs": [
        {
          "internalType": "address",
          "name": "",
          "type": "address"
        }
      ],
      "stateMutability": "view",
      "type": "function"
    },
    {
      "inputs": [],
      "name": "isRandomnessPending",
      "outputs": [
        {
          "internalType": "bool",
          "name": "",
          "type": "bool"
        }
      ],
      "stateMutability": "view",
      "type": "function"
    },
    {
      "inputs": [],
      "name": "join",
      "outputs": [],
      "stateMutability": "payable",
      "type": "function"
    },
    {
      "inputs": [],
      "name": "keyHash",
      "outputs": [
        {
          "internalType": "bytes32",
          "name": "",
          "type": "bytes32"
        }
      ],
      "stateMutability": "view",
      "type": "function"
    },
    {
      "inputs": [],
      "name": "owner",
      "outputs": [
        {
          "internalType": "address",
          "name": "",
          "type": "address"
        }
      ],
      "stateMutability": "view",
      "type": "function"
    },
    {
      "inputs": [
        {
          "internalType": "uint256",
          "name": "",
          "type": "uint256"
        }
      ],
      "name": "players",
      "outputs": [
        {
          "internalType": "address",
          "name": "",
          "type": "address"
        }
      ],
      "stateMutability": "view",
      "type": "function"
    },
    {
      "inputs": [
        {
          "internalType": "uint256",
          "name": "requestId",
          "type": "uint256"
        },
        {
          "internalType": "uint256[]",
          "name": "randomWords",
          "type": "uint256[]"
        }
      ],
      "name": "rawFulfillRandomWords",
      "outputs": [],
      "stateMutability": "nonpayable",
      "type": "function"
    },
    {
      "inputs": [],
      "name": "renounceOwnership",
      "outputs": [],
      "stateMutability": "nonpayable",
      "type": "function"
    },
    {
      "inputs": [
        {
          "internalType": "uint256",
          "name": "",
          "type": "uint256"
        }
      ],
      "name": "requestFulfilled",
      "outputs": [
        {
          "internalType": "bool",
          "name": "",
          "type": "bool"
        }
      ],
      "stateMutability": "view",
      "type": "function"
    },
    {
      "inputs": [],
      "name": "subscriptionId",
      "outputs": [
        {
          "internalType": "uint64",
          "name": "",
          "type": "uint64"
        }
      ],
      "stateMutability": "view",
      "type": "function"
    },
    {
      "inputs": [
        {
          "internalType": "address",
          "name": "newOwner",
          "type": "address"
        }
      ],
      "name": "transferOwnership",
      "outputs": [],
      "stateMutability": "nonpayable",
      "type": "function"
    },
    {
      "inputs": [],
      "name": "vrfCoordinator",
      "outputs": [
        {
          "internalType": "contract IVRFCoordinatorV2",
          "name": "",
          "type": "address"
        }
      ],
      "stateMutability": "view",
      "type": "function"
    },
    {
      "inputs": [],
      "name": "winner",
      "outputs": [
        {
          "internalType": "address",
          "name": "",
          "type": "address"
        }
      ],
      "stateMutability": "view",
      "type": "function"
    }
  ],
  "bytecode": "0x60a060405234801561001057600080fd5b50604051611b60380380611b6083398181016040528101906100329190610314565b336001600081905550600073ffffffffffffffffffffffffffffffffffffffff168173ffffffffffffffffffffffffffffffffffffffff16036100ad5760006040517f1e4fbdf70000000000000000000000000000000000000000000000000000000081526004016100a4919061038a565b60405180910390fd5b6100bc8161013f60201b60201c565b5083600460006101000a81548173ffffffffffffffffffffffffffffffffffffffff021916908373ffffffffffffffffffffffffffffffffffffffff16021790555082600660006101000a81548167ffffffffffffffff021916908367ffffffffffffffff160217905550816005819055508060808181525050505050506103a5565b6000600160009054906101000a900473ffffffffffffffffffffffffffffffffffffffff16905081600160006101000a81548173ffffffffffffffffffffffffffffffffffffffff021916908373ffffffffffffffffffffffffffffffffffffffff1602179055508173ffffffffffffffffffffffffffffffffffffffff168173ffffffffffffffffffffffffffffffffffffffff167f8be0079c531659141344cd1fd0a4f28419497f9722a3daafe3b4186f6b6457e060405160405180910390a35050565b600080fd5b600073ffffffffffffffffffffffffffffffffffffffff82169050919050565b60006102358261020a565b9050919050565b6102458161022a565b811461025057600080fd5b50565b6000815190506102628161023c565b92915050565b600067ffffffffffffffff82169050919050565b61028581610268565b811461029057600080fd5b50565b6000815190506102a28161027c565b92915050565b6000819050919050565b6102bb816102a8565b81146102c657600080fd5b50565b6000815190506102d8816102b2565b92915050565b6000819050919050565b6102f1816102de565b81146102fc57600080fd5b50565b60008151905061030e816102e8565b92915050565b6000806000806080858703121561032e5761032d610205565b5b600061033c87828801610253565b945050602061034d87828801610293565b935050604061035e878288016102c9565b925050606061036f878288016102ff565b91505092959194509250565b6103848161022a565b82525050565b600060208201905061039f600083018461037b565b92915050565b60805161178b6103d56000396000818161043701528181610941015281816109680152610c09015261178b6000f3fe6080604052600436106101145760003560e01c80638b5b9ccc116100a0578063c2e5220611610064578063c2e522061461034e578063dfbf53ae14610379578063e586a4f0146103a4578063f2fde38b146103cf578063f71d96cb146103f857610114565b80638b5b9ccc146102985780638da5cb5b146102c35780638e7ea5b2146102ee578063a3e56fa814610319578063b688a3631461034457610114565b80634411b3eb116100e75780634411b3eb146101c357806361728f39146101ee57806368064c6414610219578063715018a614610256578063884bf67c1461026d57610114565b8063072ea61c1461011957806309c1ba2e146101445780631fe543e31461016f578063434f734614610198575b600080fd5b34801561012557600080fd5b5061012e610435565b60405161013b9190610fff565b60405180910390f35b34801561015057600080fd5b50610159610459565b604051610166919061103d565b60405180910390f35b34801561017b57600080fd5b50610196600480360381019061019191906111f1565b610473565b005b3480156101a457600080fd5b506101ad6107d5565b6040516101ba9190611268565b60405180910390f35b3480156101cf57600080fd5b506101d86107e8565b6040516101e59190610fff565b60405180910390f35b3480156101fa57600080fd5b506102036107ed565b604051610210919061129c565b60405180910390f35b34801561022557600080fd5b50610240600480360381019061023b91906112b7565b6107f3565b60405161024d9190611268565b60405180910390f35b34801561026257600080fd5b5061026b610813565b005b34801561027957600080fd5b50610282610827565b60405161028f9190610fff565b60405180910390f35b3480156102a457600080fd5b506102ad61082f565b6040516102ba91906113d4565b60405180910390f35b3480156102cf57600080fd5b506102d86108bd565b6040516102e59190611405565b60405180910390f35b3480156102fa57600080fd5b506103036108e7565b6040516103109190611405565b60405180910390f35b34801561032557600080fd5b5061032e610911565b60405161033b919061147f565b60405180910390f35b61034c610937565b005b34801561035a57600080fd5b50610363610bd2565b6040516103709190610fff565b60405180910390f35b34801561038557600080fd5b5061038e610bdf565b60405161039b9190611405565b60405180910390f35b3480156103b057600080fd5b506103b9610c05565b6040516103c69190610fff565b60405180910390f35b3480156103db57600080fd5b506103f660048036038101906103f191906114c6565b610c2d565b005b34801561040457600080fd5b5061041f600480360381019061041a91906112b7565b610cb3565b60405161042c9190611405565b60405180910390f35b7f000000000000000000000000000000000000000000000000000000000000000081565b600660009054906101000a900467ffffffffffffffff1681565b600460009054906101000a900473ffffffffffffffffffffffffffffffffffffffff1673ffffffffffffffffffffffffffffffffffffffff163373ffffffffffffffffffffffffffffffffffffffff16146104fa576040517f4755657900000000000000000000000000000000000000000000000000000000815260040160405180910390fd5b6007600083815260200190815260200160002060009054906101000a900460ff1615610552576040517f319b714300000000000000000000000000000000000000000000000000000000815260040160405180910390fd5b60016007600084815260200190815260200160002060006101000a81548160ff0219169083151502179055506000600360146101000a81548160ff0219169083151502179055506000600a826000815181106105b1576105b06114f3565b5b60200260200101516105c39190611551565b9050600281815481106105d9576105d86114f3565b5b9060005260206000200160009054906101000a900473ffffffffffffffffffffffffffffffffffffffff16600360006101000a81548173ffffffffffffffffffffffffffffffffffffffff021916908373ffffffffffffffffffffffffffffffffffffffff16021790555060004790506000600360009054906101000a900473ffffffffffffffffffffffffffffffffffffffff1673ffffffffffffffffffffffffffffffffffffffff1682604051610691906115b3565b60006040518083038185875af1925050503d80600081146106ce576040519150601f19603f3d011682016040523d82523d6000602084013e6106d3565b606091505b505090508061070e576040517f90b8ec1800000000000000000000000000000000000000000000000000000000815260040160405180910390fd5b600360009054906101000a900473ffffffffffffffffffffffffffffffffffffffff1673ffffffffffffffffffffffffffffffffffffffff167f75060f9e79552df167b73353fee6237a75bb5ba8ea022f77224e32f152138bcb836040516107769190610fff565b60405180910390a26002600061078c9190610fa8565b6000600360006101000a81548173ffffffffffffffffffffffffffffffffffffffff021916908373ffffffffffffffffffffffffffffffffffffffff1602179055505050505050565b600360149054906101000a900460ff1681565b600a81565b60055481565b60076020528060005260406000206000915054906101000a900460ff1681565b61081b610cf2565b6108256000610d79565b565b600047905090565b606060028054806020026020016040519081016040528092919081815260200182805480156108b357602002820191906000526020600020905b8160009054906101000a900473ffffffffffffffffffffffffffffffffffffffff1673ffffffffffffffffffffffffffffffffffffffff1681526020019060010190808311610869575b5050505050905090565b6000600160009054906101000a900473ffffffffffffffffffffffffffffffffffffffff16905090565b6000600360009054906101000a900473ffffffffffffffffffffffffffffffffffffffff16905090565b600460009054906101000a900473ffffffffffffffffffffffffffffffffffffffff1681565b61093f610e3f565b7f000000000000000000000000000000000000000000000000000000000000000034146109c5577f0000000000000000000000000000000000000000000000000000000000000000346040517fdcf6afcb0000000000000000000000000000000000000000000000000000000081526004016109bc9291906115c8565b60405180910390fd5b600a60028054905010610a04576040517ffc2b180400000000000000000000000000000000000000000000000000000000815260040160405180910390fd5b600360149054906101000a900460ff1615610a4b576040517f319b714300000000000000000000000000000000000000000000000000000000815260040160405180910390fd5b60005b600280549050811015610b0b573373ffffffffffffffffffffffffffffffffffffffff1660028281548110610a8657610a856114f3565b5b9060005260206000200160009054906101000a900473ffffffffffffffffffffffffffffffffffffffff1673ffffffffffffffffffffffffffffffffffffffff1603610afe576040517f7863668300000000000000000000000000000000000000000000000000000000815260040160405180910390fd5b8080600101915050610a4e565b506002339080600181540180825580915050600190039060005260206000200160009091909190916101000a81548173ffffffffffffffffffffffffffffffffffffffff021916908373ffffffffffffffffffffffffffffffffffffffff1602179055503373ffffffffffffffffffffffffffffffffffffffff167f31e760aa525306aba638a784082a013b6a1cc0a9a1789f3f22281c0453b10b1f60405160405180910390a2600a60028054905003610bc857610bc7610e85565b5b610bd0610f96565b565b6000600280549050905090565b600360009054906101000a900473ffffffffffffffffffffffffffffffffffffffff1681565b60007f0000000000000000000000000000000000000000000000000000000000000000905090565b610c35610cf2565b600073ffffffffffffffffffffffffffffffffffffffff168173ffffffffffffffffffffffffffffffffffffffff1603610ca75760006040517f1e4fbdf7000000000000000000000000000000000000000000000000000000008152600401610c9e9190611405565b60405180910390fd5b610cb081610d79565b50565b60028181548110610cc357600080fd5b906000526020600020016000915054906101000a900473ffffffffffffffffffffffffffffffffffffffff1681565b610cfa610fa0565b73ffffffffffffffffffffffffffffffffffffffff16610d186108bd565b73ffffffffffffffffffffffffffffffffffffffff1614610d7757610d3b610fa0565b6040517f118cdaa7000000000000000000000000000000000000000000000000000000008152600401610d6e9190611405565b60405180910390fd5b565b6000600160009054906101000a900473ffffffffffffffffffffffffffffffffffffffff16905081600160006101000a81548173ffffffffffffffffffffffffffffffffffffffff021916908373ffffffffffffffffffffffffffffffffffffffff1602179055508173ffffffffffffffffffffffffffffffffffffffff168173ffffffffffffffffffffffffffffffffffffffff167f8be0079c531659141344cd1fd0a4f28419497f9722a3daafe3b4186f6b6457e060405160405180910390a35050565b600260005403610e7b576040517f3ee5aeb500000000000000000000000000000000000000000000000000000000815260040160405180910390fd5b6002600081905550565b6001600360146101000a81548160ff0219169083151502179055506000600460009054906101000a900473ffffffffffffffffffffffffffffffffffffffff1673ffffffffffffffffffffffffffffffffffffffff16635d3b1d30600554600660009054906101000a900467ffffffffffffffff16600362030d4060016040518663ffffffff1660e01b8152600401610f229594939291906116c0565b6020604051808303816000875af1158015610f41573d6000803e3d6000fd5b505050506040513d601f19601f82011682018060405250810190610f659190611728565b905060006007600083815260200190815260200160002060006101000a81548160ff02191690831515021790555050565b6001600081905550565b600033905090565b5080546000825590600052602060002090810190610fc69190610fc9565b50565b5b80821115610fe2576000816000905550600101610fca565b5090565b6000819050919050565b610ff981610fe6565b82525050565b60006020820190506110146000830184610ff0565b92915050565b600067ffffffffffffffff82169050919050565b6110378161101a565b82525050565b6000602082019050611052600083018461102e565b92915050565b6000604051905090565b600080fd5b600080fd5b61107581610fe6565b811461108057600080fd5b50565b6000813590506110928161106c565b92915050565b600080fd5b6000601f19601f8301169050919050565b7f4e487b7100000000000000000000000000000000000000000000000000000000600052604160045260246000fd5b6110e68261109d565b810181811067ffffffffffffffff82111715611105576111046110ae565b5b80604052505050565b6000611118611058565b905061112482826110dd565b919050565b600067ffffffffffffffff821115611144576111436110ae565b5b602082029050602081019050919050565b600080fd5b600061116d61116884611129565b61110e565b905080838252602082019050602084028301858111156111905761118f611155565b5b835b818110156111b957806111a58882611083565b845260208401935050602081019050611192565b5050509392505050565b600082601f8301126111d8576111d7611098565b5b81356111e884826020860161115a565b91505092915050565b6000806040838503121561120857611207611062565b5b600061121685828601611083565b925050602083013567ffffffffffffffff81111561123757611236611067565b5b611243858286016111c3565b9150509250929050565b60008115159050919050565b6112628161124d565b82525050565b600060208201905061127d6000830184611259565b92915050565b6000819050919050565b61129681611283565b82525050565b60006020820190506112b1600083018461128d565b92915050565b6000602082840312156112cd576112cc611062565b5b60006112db84828501611083565b91505092915050565b600081519050919050565b600082825260208201905092915050565b6000819050602082019050919050565b600073ffffffffffffffffffffffffffffffffffffffff82169050919050565b600061133b82611310565b9050919050565b61134b81611330565b82525050565b600061135d8383611342565b60208301905092915050565b6000602082019050919050565b6000611381826112e4565b61138b81856112ef565b935061139683611300565b8060005b838110156113c75781516113ae8882611351565b97506113b983611369565b92505060018101905061139a565b5085935050505092915050565b600060208201905081810360008301526113ee8184611376565b905092915050565b6113ff81611330565b82525050565b600060208201905061141a60008301846113f6565b92915050565b6000819050919050565b600061144561144061143b84611310565b611420565b611310565b9050919050565b60006114578261142a565b9050919050565b60006114698261144c565b9050919050565b6114798161145e565b82525050565b60006020820190506114946000830184611470565b92915050565b6114a381611330565b81146114ae57600080fd5b50565b6000813590506114c08161149a565b92915050565b6000602082840312156114dc576114db611062565b5b60006114ea848285016114b1565b91505092915050565b7f4e487b7100000000000000000000000000000000000000000000000000000000600052603260045260246000fd5b7f4e487b7100000000000000000000000000000000000000000000000000000000600052601260045260246000fd5b600061155c82610fe6565b915061156783610fe6565b92508261157757611576611522565b5b828206905092915050565b600081905092915050565b50565b600061159d600083611582565b91506115a88261158d565b600082019050919050565b60006115be82611590565b9150819050919050565b60006040820190506115dd6000830185610ff0565b6115ea6020830184610ff0565b9392505050565b6000819050919050565b600061ffff82169050919050565b600061162461161f61161a846115f1565b611420565b6115fb565b9050919050565b61163481611609565b82525050565b6000819050919050565b600063ffffffff82169050919050565b600061166f61166a6116658461163a565b611420565b611644565b9050919050565b61167f81611654565b82525050565b6000819050919050565b60006116aa6116a56116a084611685565b611420565b611644565b9050919050565b6116ba8161168f565b82525050565b600060a0820190506116d5600083018861128d565b6116e2602083018761102e565b6116ef604083018661162b565b6116fc6060830185611676565b61170960808301846116b1565b9695505050505050565b6000815190506117228161106c565b92915050565b60006020828403121561173e5761173d611062565b5b600061174c84828501611713565b9150509291505056fea26469706673582212209b1ef9ae2cc3cb79c411fd8d985517870fe2d3d949849f5d306b10d323148ef264736f6c634300081c0033",
  "linkReferences": {},
  "deployedLinkReferences": {}
}