{
  "_format": "hh-sol-artifact-1",
  "contractName": "AccessControl",
  "sourceName": "contracts/AccessControl.sol",
  "abi": [
    {
      "inputs": [
        {
          "internalType": "address",
          "name": "_empAddress",
          "type": "address"
        },
        {
          "internalType": "string",
          "name": "_name",
          "type": "string"
        },
        {
          "internalType": "enum AccessControl.Roles",
          "name": "_role",
          "type": "uint8"
        },
        {
          "internalType": "bool",
          "name": "_employed",
          "type": "bool"
        }
      ],
      "name": "addEmployee",
      "outputs": [],
      "stateMutability": "nonpayable",
      "type": "function"
    },
    {
      "inputs": [
        {
          "internalType": "address",
          "name": "_empAddress",
          "type": "address"
        }
      ],
      "name": "canAccessGarage",
      "outputs": [
        {
          "internalType": "bool",
          "name": "",
          "type": "bool"
        }
      ],
      "stateMutability": "view",
      "type": "function"
    },
    {
      "inputs": [
        {
          "internalType": "uint256",
          "name": "",
          "type": "uint256"
        }
      ],
      "name": "employeeList",
      "outputs": [
        {
          "internalType": "address",
          "name": "",
          "type": "address"
        }
      ],
      "stateMutability": "view",
      "type": "function"
    },
    {
      "inputs": [],
      "name": "getAllEmployees",
      "outputs": [
        {
          "internalType": "address[]",
          "name": "",
          "type": "address[]"
        }
      ],
      "stateMutability": "view",
      "type": "function"
    },
    {
      "inputs": [
        {
          "internalType": "address",
          "name": "_empAddress",
          "type": "address"
        }
      ],
      "name": "getEmployee",
      "outputs": [
        {
          "internalType": "string",
          "name": "name",
          "type": "string"
        },
        {
          "internalType": "enum AccessControl.Roles",
          "name": "role",
          "type": "uint8"
        },
        {
          "internalType": "bool",
          "name": "employed",
          "type": "bool"
        }
      ],
      "stateMutability": "view",
      "type": "function"
    },
    {
      "inputs": [
        {
          "internalType": "address",
          "name": "_empAddress",
          "type": "address"
        },
        {
          "internalType": "string",
          "name": "_name",
          "type": "string"
        },
        {
          "internalType": "enum AccessControl.Roles",
          "name": "_role",
          "type": "uint8"
        },
        {
          "internalType": "bool",
          "name": "_employed",
          "type": "bool"
        }
      ],
      "name": "updateEmployee",
      "outputs": [],
      "stateMutability": "nonpayable",
      "type": "function"
    }
  ],
  "bytecode": "0x6080604052348015600f57600080fd5b5061121f8061001f6000396000f3fe608060405234801561001057600080fd5b50600436106100625760003560e01c806332648e091461006757806335b79557146100995780639a3416ed146100b5578063b24e34c8146100d1578063c3b2d07a14610101578063e3366fed14610131575b600080fd5b610081600480360381019061007c9190610915565b61014f565b60405161009093929190610a64565b60405180910390f35b6100b360048036038101906100ae9190610c28565b6102a6565b005b6100cf60048036038101906100ca9190610c28565b610412565b005b6100eb60048036038101906100e69190610915565b6105e1565b6040516100f89190610cab565b60405180910390f35b61011b60048036038101906101169190610cfc565b6107d6565b6040516101289190610d38565b60405180910390f35b610139610815565b6040516101469190610e11565b60405180910390f35b606060008060008060008673ffffffffffffffffffffffffffffffffffffffff1673ffffffffffffffffffffffffffffffffffffffff1681526020019081526020016000206040518060600160405290816000820180546101af90610e62565b80601f01602080910402602001604051908101604052809291908181526020018280546101db90610e62565b80156102285780601f106101fd57610100808354040283529160200191610228565b820191906000526020600020905b81548152906001019060200180831161020b57829003601f168201915b505050505081526020016001820160009054906101000a900460ff166005811115610256576102556109d2565b5b6005811115610268576102676109d2565b5b81526020016001820160019054906101000a900460ff1615151515815250509050806000015181602001518260400151935093509350509193909250565b60008060008673ffffffffffffffffffffffffffffffffffffffff1673ffffffffffffffffffffffffffffffffffffffff16815260200190815260200160002060000180546102f490610e62565b905003610336576040517f08c379a000000000000000000000000000000000000000000000000000000000815260040161032d90610edf565b60405180910390fd5b604051806060016040528084815260200183600581111561035a576103596109d2565b5b81526020018215158152506000808673ffffffffffffffffffffffffffffffffffffffff1673ffffffffffffffffffffffffffffffffffffffff16815260200190815260200160002060008201518160000190816103b891906110ab565b5060208201518160010160006101000a81548160ff021916908360058111156103e4576103e36109d2565b5b021790555060408201518160010160016101000a81548160ff02191690831515021790555090505050505050565b60008060008673ffffffffffffffffffffffffffffffffffffffff1673ffffffffffffffffffffffffffffffffffffffff168152602001908152602001600020600001805461046090610e62565b9050146104a2576040517f08c379a0000000000000000000000000000000000000000000000000000000008152600401610499906111c9565b60405180910390fd5b60405180606001604052808481526020018360058111156104c6576104c56109d2565b5b81526020018215158152506000808673ffffffffffffffffffffffffffffffffffffffff1673ffffffffffffffffffffffffffffffffffffffff168152602001908152602001600020600082015181600001908161052491906110ab565b5060208201518160010160006101000a81548160ff021916908360058111156105505761054f6109d2565b5b021790555060408201518160010160016101000a81548160ff0219169083151502179055509050506001849080600181540180825580915050600190039060005260206000200160009091909190916101000a81548173ffffffffffffffffffffffffffffffffffffffff021916908373ffffffffffffffffffffffffffffffffffffffff16021790555050505050565b6000806000808473ffffffffffffffffffffffffffffffffffffffff1673ffffffffffffffffffffffffffffffffffffffff16815260200190815260200160002060405180606001604052908160008201805461063d90610e62565b80601f016020809104026020016040519081016040528092919081815260200182805461066990610e62565b80156106b65780601f1061068b576101008083540402835291602001916106b6565b820191906000526020600020905b81548152906001019060200180831161069957829003601f168201915b505050505081526020016001820160009054906101000a900460ff1660058111156106e4576106e36109d2565b5b60058111156106f6576106f56109d2565b5b81526020016001820160019054906101000a900460ff1615151515815250509050806040015161072a5760009150506107d1565b6000600581111561073e5761073d6109d2565b5b81602001516005811115610755576107546109d2565b5b14806107895750600160058111156107705761076f6109d2565b5b81602001516005811115610787576107866109d2565b5b145b806107bc5750600260058111156107a3576107a26109d2565b5b816020015160058111156107ba576107b96109d2565b5b145b156107cb5760019150506107d1565b60009150505b919050565b600181815481106107e657600080fd5b906000526020600020016000915054906101000a900473ffffffffffffffffffffffffffffffffffffffff1681565b6060600180548060200260200160405190810160405280929190818152602001828054801561089957602002820191906000526020600020905b8160009054906101000a900473ffffffffffffffffffffffffffffffffffffffff1673ffffffffffffffffffffffffffffffffffffffff168152602001906001019080831161084f575b5050505050905090565b6000604051905090565b600080fd5b600080fd5b600073ffffffffffffffffffffffffffffffffffffffff82169050919050565b60006108e2826108b7565b9050919050565b6108f2816108d7565b81146108fd57600080fd5b50565b60008135905061090f816108e9565b92915050565b60006020828403121561092b5761092a6108ad565b5b600061093984828501610900565b91505092915050565b600081519050919050565b600082825260208201905092915050565b60005b8381101561097c578082015181840152602081019050610961565b60008484015250505050565b6000601f19601f8301169050919050565b60006109a482610942565b6109ae818561094d565b93506109be81856020860161095e565b6109c781610988565b840191505092915050565b7f4e487b7100000000000000000000000000000000000000000000000000000000600052602160045260246000fd5b60068110610a1257610a116109d2565b5b50565b6000819050610a2382610a01565b919050565b6000610a3382610a15565b9050919050565b610a4381610a28565b82525050565b60008115159050919050565b610a5e81610a49565b82525050565b60006060820190508181036000830152610a7e8186610999565b9050610a8d6020830185610a3a565b610a9a6040830184610a55565b949350505050565b600080fd5b600080fd5b7f4e487b7100000000000000000000000000000000000000000000000000000000600052604160045260246000fd5b610ae482610988565b810181811067ffffffffffffffff82111715610b0357610b02610aac565b5b80604052505050565b6000610b166108a3565b9050610b228282610adb565b919050565b600067ffffffffffffffff821115610b4257610b41610aac565b5b610b4b82610988565b9050602081019050919050565b82818337600083830152505050565b6000610b7a610b7584610b27565b610b0c565b905082815260208101848484011115610b9657610b95610aa7565b5b610ba1848285610b58565b509392505050565b600082601f830112610bbe57610bbd610aa2565b5b8135610bce848260208601610b67565b91505092915050565b60068110610be457600080fd5b50565b600081359050610bf681610bd7565b92915050565b610c0581610a49565b8114610c1057600080fd5b50565b600081359050610c2281610bfc565b92915050565b60008060008060808587031215610c4257610c416108ad565b5b6000610c5087828801610900565b945050602085013567ffffffffffffffff811115610c7157610c706108b2565b5b610c7d87828801610ba9565b9350506040610c8e87828801610be7565b9250506060610c9f87828801610c13565b91505092959194509250565b6000602082019050610cc06000830184610a55565b92915050565b6000819050919050565b610cd981610cc6565b8114610ce457600080fd5b50565b600081359050610cf681610cd0565b92915050565b600060208284031215610d1257610d116108ad565b5b6000610d2084828501610ce7565b91505092915050565b610d32816108d7565b82525050565b6000602082019050610d4d6000830184610d29565b92915050565b600081519050919050565b600082825260208201905092915050565b6000819050602082019050919050565b610d88816108d7565b82525050565b6000610d9a8383610d7f565b60208301905092915050565b6000602082019050919050565b6000610dbe82610d53565b610dc88185610d5e565b9350610dd383610d6f565b8060005b83811015610e04578151610deb8882610d8e565b9750610df683610da6565b925050600181019050610dd7565b5085935050505092915050565b60006020820190508181036000830152610e2b8184610db3565b905092915050565b7f4e487b7100000000000000000000000000000000000000000000000000000000600052602260045260246000fd5b60006002820490506001821680610e7a57607f821691505b602082108103610e8d57610e8c610e33565b5b50919050565b7f456d706c6f79656520646f6573206e6f74206578697374000000000000000000600082015250565b6000610ec960178361094d565b9150610ed482610e93565b602082019050919050565b60006020820190508181036000830152610ef881610ebc565b9050919050565b60008190508160005260206000209050919050565b60006020601f8301049050919050565b600082821b905092915050565b600060088302610f617fffffffffffffffffffffffffffffffffffffffffffffffffffffffffffffffff82610f24565b610f6b8683610f24565b95508019841693508086168417925050509392505050565b6000819050919050565b6000610fa8610fa3610f9e84610cc6565b610f83565b610cc6565b9050919050565b6000819050919050565b610fc283610f8d565b610fd6610fce82610faf565b848454610f31565b825550505050565b600090565b610feb610fde565b610ff6818484610fb9565b505050565b5b8181101561101a5761100f600082610fe3565b600181019050610ffc565b5050565b601f82111561105f5761103081610eff565b61103984610f14565b81016020851015611048578190505b61105c61105485610f14565b830182610ffb565b50505b505050565b600082821c905092915050565b600061108260001984600802611064565b1980831691505092915050565b600061109b8383611071565b9150826002028217905092915050565b6110b482610942565b67ffffffffffffffff8111156110cd576110cc610aac565b5b6110d78254610e62565b6110e282828561101e565b600060209050601f8311600181146111155760008415611103578287015190505b61110d858261108f565b865550611175565b601f19841661112386610eff565b60005b8281101561114b57848901518255600182019150602085019450602081019050611126565b868310156111685784890151611164601f891682611071565b8355505b6001600288020188555050505b505050505050565b7f456d706c6f79656520616c726561647920657869737473000000000000000000600082015250565b60006111b360178361094d565b91506111be8261117d565b602082019050919050565b600060208201905081810360008301526111e2816111a6565b905091905056fea2646970667358221220a561b86d6fba512f72c949e487b3731b1d5dc31453518660a07eaf090b3994c864736f6c634300081e0033",
  "linkReferences": {},
  "deployedLinkReferences": {}
}