{
  "contracts/LudoGame.sol": {
    "LudoGame": {
      "abi": [
        {
          "inputs": [],
          "stateMutability": "nonpayable",
          "type": "constructor"
        },
        {
          "inputs": [],
          "name": "GAME_HAS_ALREADY_STARTED",
          "type": "error"
        },
        {
          "inputs": [],
          "name": "GAME_IS_FULL",
          "type": "error"
        },
        {
          "inputs": [],
          "name": "NOT_ENOUGH_PLAYERS",
          "type": "error"
        },
        {
          "anonymous": false,
          "inputs": [
            {
              "indexed": false,
              "internalType": "address",
              "name": "player",
              "type": "address"
            },
            {
              "indexed": false,
              "internalType": "uint8",
              "name": "roll",
              "type": "uint8"
            }
          ],
          "name": "DiceRolled",
          "type": "event"
        },
        {
          "anonymous": false,
          "inputs": [],
          "name": "GameStarted",
          "type": "event"
        },
        {
          "anonymous": false,
          "inputs": [
            {
              "indexed": false,
              "internalType": "address",
              "name": "player",
              "type": "address"
            }
          ],
          "name": "PlayerWon",
          "type": "event"
        },
        {
          "anonymous": false,
          "inputs": [
            {
              "indexed": false,
              "internalType": "address",
              "name": "capturer",
              "type": "address"
            },
            {
              "indexed": false,
              "internalType": "address",
              "name": "captured",
              "type": "address"
            },
            {
              "indexed": false,
              "internalType": "uint8",
              "name": "position",
              "type": "uint8"
            }
          ],
          "name": "TokenCaptured",
          "type": "event"
        },
        {
          "anonymous": false,
          "inputs": [
            {
              "indexed": false,
              "internalType": "address",
              "name": "player",
              "type": "address"
            },
            {
              "indexed": false,
              "internalType": "uint8",
              "name": "tokenIndex",
              "type": "uint8"
            },
            {
              "indexed": false,
              "internalType": "uint8",
              "name": "newPosition",
              "type": "uint8"
            }
          ],
          "name": "TokenMoved",
          "type": "event"
        },
        {
          "inputs": [],
          "name": "currentPlayerIndex",
          "outputs": [
            {
              "internalType": "uint8",
              "name": "",
              "type": "uint8"
            }
          ],
          "stateMutability": "view",
          "type": "function"
        },
        {
          "inputs": [],
          "name": "gameInProgress",
          "outputs": [
            {
              "internalType": "bool",
              "name": "",
              "type": "bool"
            }
          ],
          "stateMutability": "view",
          "type": "function"
        },
        {
          "inputs": [],
          "name": "getGameState",
          "outputs": [
            {
              "internalType": "address[]",
              "name": "playerAddresses",
              "type": "address[]"
            },
            {
              "internalType": "uint8[4][4]",
              "name": "tokenPositions",
              "type": "uint8[4][4]"
            },
            {
              "internalType": "uint8[]",
              "name": "tokensHome",
              "type": "uint8[]"
            },
            {
              "internalType": "uint8",
              "name": "currentPlayer",
              "type": "uint8"
            },
            {
              "internalType": "bool",
              "name": "isGameInProgress",
              "type": "bool"
            }
          ],
          "stateMutability": "view",
          "type": "function"
        },
        {
          "inputs": [],
          "name": "joinGame",
          "outputs": [],
          "stateMutability": "nonpayable",
          "type": "function"
        },
        {
          "inputs": [
            {
              "internalType": "uint8",
              "name": "tokenIndex",
              "type": "uint8"
            },
            {
              "internalType": "uint8",
              "name": "spaces",
              "type": "uint8"
            }
          ],
          "name": "moveToken",
          "outputs": [],
          "stateMutability": "nonpayable",
          "type": "function"
        },
        {
          "inputs": [],
          "name": "playerCount",
          "outputs": [
            {
              "internalType": "uint8",
              "name": "",
              "type": "uint8"
            }
          ],
          "stateMutability": "view",
          "type": "function"
        },
        {
          "inputs": [
            {
              "internalType": "uint256",
              "name": "",
              "type": "uint256"
            }
          ],
          "name": "players",
          "outputs": [
            {
              "internalType": "address",
              "name": "addr",
              "type": "address"
            },
            {
              "internalType": "uint8",
              "name": "tokensHome",
              "type": "uint8"
            },
            {
              "internalType": "uint8",
              "name": "tokenStart",
              "type": "uint8"
            }
          ],
          "stateMutability": "view",
          "type": "function"
        },
        {
          "inputs": [],
          "name": "rollDice",
          "outputs": [
            {
              "internalType": "uint8",
              "name": "",
              "type": "uint8"
            }
          ],
          "stateMutability": "nonpayable",
          "type": "function"
        },
        {
          "inputs": [],
          "name": "startGame",
          "outputs": [],
          "stateMutability": "nonpayable",
          "type": "function"
        }
      ],
      "evm": {
        "bytecode": {
          "linkReferences": {},
          "object": "6080604052348015600f57600080fd5b506000600d819055506000600e60006101000a81548160ff0219169083151502179055506119f8806100426000396000f3fe608060405234801561001057600080fd5b50600436106100935760003560e01c8063b7d0628b11610066578063b7d0628b1461010e578063d4f77b1c14610130578063d65ab5f21461013a578063f71d96cb14610144578063fb9bdab41461017657610093565b8063302bcc57146100985780633fb64e75146100b657806363da0887146100d4578063837e7cc6146100f0575b600080fd5b6100a0610194565b6040516100ad9190610f5e565b60405180910390f35b6100be6101a7565b6040516100cb9190610f94565b60405180910390f35b6100ee60048036038101906100e99190610fe0565b6101ba565b005b6100f8610745565b6040516101059190610f5e565b60405180910390f35b61011661083c565b6040516101279594939291906112ee565b60405180910390f35b610138610af6565b005b610142610d74565b005b61015e60048036038101906101599190611389565b610e76565b60405161016d939291906113c5565b60405180910390f35b61017e610ee0565b60405161018b9190610f5e565b60405180910390f35b600c60019054906101000a900460ff1681565b600e60009054906101000a900460ff1681565b600e60009054906101000a900460ff16610209576040517f08c379a000000000000000000000000000000000000000000000000000000000815260040161020090611459565b60405180910390fd5b6000600c60009054906101000a900460ff1660ff166004811061022f5761022e611479565b5b6003020160000160009054906101000a900473ffffffffffffffffffffffffffffffffffffffff1673ffffffffffffffffffffffffffffffffffffffff163373ffffffffffffffffffffffffffffffffffffffff16146102c4576040517f08c379a00000000000000000000000000000000000000000000000000000000081526004016102bb906114f4565b60405180910390fd5b600460ff168260ff161061030d576040517f08c379a000000000000000000000000000000000000000000000000000000000815260040161030490611560565b60405180910390fd5b600080600c60009054906101000a900460ff1660ff166004811061033457610333611479565b5b6003020190506000816001018460ff166004811061035557610354611479565b5b602091828204019190069054906101000a900460ff16905060008160ff16148015610383575060068360ff16145b156103a1578160020160019054906101000a900460ff16905061041a565b60008160ff16036103e7576040517f08c379a00000000000000000000000000000000000000000000000000000000081526004016103de906115cc565b60405180910390fd5b60016034846001846103f9919061161b565b6104039190611650565b61040d91906116b4565b6104179190611650565b90505b60005b600c60019054906101000a900460ff1660ff168160ff1610156105a757600c60009054906101000a900460ff1660ff168160ff161461059a5760005b600460ff168160ff161015610598578260ff1660008360ff166004811061048357610482611479565b5b600302016001018260ff166004811061049f5761049e611479565b5b602091828204019190069054906101000a900460ff1660ff160361058b576000808360ff16600481106104d5576104d4611479565b5b600302016001018260ff16600481106104f1576104f0611479565b5b602091828204019190066101000a81548160ff021916908360ff1602179055507f442a4f64ad7e0c86fec77a6c7d18c7af652a8261ea25f28140a3fccc2e1c91cb3360008460ff166004811061054a57610549611479565b5b6003020160000160009054906101000a900473ffffffffffffffffffffffffffffffffffffffff1685604051610582939291906116e5565b60405180910390a15b8080600101915050610459565b505b808060010191505061041d565b5080826001018560ff16600481106105c2576105c1611479565b5b602091828204019190066101000a81548160ff021916908360ff1602179055507fe8238510d7de95882db69a043c5b056222b3efdc86b2c8e33e782d46bdcbda8c338583604051610615939291906113c5565b60405180910390a18160020160019054906101000a900460ff1660ff168160ff16036106ee5781600201600081819054906101000a900460ff168092919061065c9061171c565b91906101000a81548160ff021916908360ff16021790555050600460ff168260020160009054906101000a900460ff1660ff16036106ed577f970f935ee01502df35da11db45c29bdd97d8f41d5a0640c1dc3bd96c67f97987336040516106c39190611745565b60405180910390a16000600e60006101000a81548160ff0219169083151502179055505050610741565b5b600c60019054906101000a900460ff166001600c60009054906101000a900460ff1661071a9190611650565b61072491906116b4565b600c60006101000a81548160ff021916908360ff16021790555050505b5050565b6000600e60009054906101000a900460ff1661078d576040517fce18149500000000000000000000000000000000000000000000000000000000815260040160405180910390fd5b6000424433600d546040516020016107a894939291906117c9565b6040516020818303038152906040528051906020012060001c9050600d60008154809291906107d690611817565b919050555060006001600660ff16836107ef919061185f565b6107f99190611650565b90507fc58abb24bb142a4e0cad0493a9c010849a79d42f31893b1433c3f8df56010979338260405161082c929190611890565b60405180910390a1809250505090565b6060610846610ef3565b6060600080600c60019054906101000a900460ff1660ff1667ffffffffffffffff811115610877576108766118b9565b5b6040519080825280602002602001820160405280156108a55781602001602082028036833780820191505090505b509450600c60019054906101000a900460ff1660ff1667ffffffffffffffff8111156108d4576108d36118b9565b5b6040519080825280602002602001820160405280156109025781602001602082028036833780820191505090505b50925060005b600c60019054906101000a900460ff1660ff168160ff161015610ac15760008160ff166004811061093c5761093b611479565b5b6003020160000160009054906101000a900473ffffffffffffffffffffffffffffffffffffffff16868260ff168151811061097a57610979611479565b5b602002602001019073ffffffffffffffffffffffffffffffffffffffff16908173ffffffffffffffffffffffffffffffffffffffff168152505060005b600460ff168160ff161015610a5d5760008260ff16600481106109dd576109dc611479565b5b600302016001018160ff16600481106109f9576109f8611479565b5b602091828204019190069054906101000a900460ff16868360ff1660048110610a2557610a24611479565b5b60200201518260ff1660048110610a3f57610a3e611479565b5b602002019060ff16908160ff168152505080806001019150506109b7565b5060008160ff1660048110610a7557610a74611479565b5b6003020160020160009054906101000a900460ff16848260ff1681518110610aa057610a9f611479565b5b602002602001019060ff16908160ff16815250508080600101915050610908565b50848484600c60009054906101000a900460ff16600e60009054906101000a900460ff16945094509450945094509091929394565b600e60009054906101000a900460ff1615610b3d576040517fce18149500000000000000000000000000000000000000000000000000000000815260040160405180910390fd5b600460ff16600c60019054906101000a900460ff1660ff1610610b8c576040517f1d891b0600000000000000000000000000000000000000000000000000000000815260040160405180910390fd5b336000600c60019054906101000a900460ff1660ff1660048110610bb357610bb2611479565b5b6003020160000160006101000a81548173ffffffffffffffffffffffffffffffffffffffff021916908373ffffffffffffffffffffffffffffffffffffffff16021790555060046034610c0691906118e8565b600c60019054906101000a900460ff16610c209190611919565b6001610c2c9190611650565b6000600c60019054906101000a900460ff1660ff1660048110610c5257610c51611479565b5b6003020160020160016101000a81548160ff021916908360ff16021790555060005b600460ff168160ff161015610cf357600080600c60019054906101000a900460ff1660ff1660048110610caa57610ca9611479565b5b600302016001018260ff1660048110610cc657610cc5611479565b5b602091828204019190066101000a81548160ff021916908360ff1602179055508080600101915050610c74565b50600080600c60019054906101000a900460ff1660ff1660048110610d1b57610d1a611479565b5b6003020160020160006101000a81548160ff021916908360ff160217905550600c600181819054906101000a900460ff1680929190610d599061171c565b91906101000a81548160ff021916908360ff16021790555050565b600e60009054906101000a900460ff1615610dbb576040517fce18149500000000000000000000000000000000000000000000000000000000815260040160405180910390fd5b6002600c60019054906101000a900460ff1660ff161015610e11576040517f08c379a0000000000000000000000000000000000000000000000000000000008152600401610e08906119a2565b60405180910390fd5b6001600e60006101000a81548160ff0219169083151502179055506000600c60006101000a81548160ff021916908360ff1602179055507f762f260439bb4be3ef6e4dc2786e2e7bd187d3d80b79057d7a424fe98563e33560405160405180910390a1565b60008160048110610e8657600080fd5b600302016000915090508060000160009054906101000a900473ffffffffffffffffffffffffffffffffffffffff16908060020160009054906101000a900460ff16908060020160019054906101000a900460ff16905083565b600c60009054906101000a900460ff1681565b60405180608001604052806004905b610f0a610f20565b815260200190600190039081610f025790505090565b6040518060800160405280600490602082028036833780820191505090505090565b600060ff82169050919050565b610f5881610f42565b82525050565b6000602082019050610f736000830184610f4f565b92915050565b60008115159050919050565b610f8e81610f79565b82525050565b6000602082019050610fa96000830184610f85565b92915050565b600080fd5b610fbd81610f42565b8114610fc857600080fd5b50565b600081359050610fda81610fb4565b92915050565b60008060408385031215610ff757610ff6610faf565b5b600061100585828601610fcb565b925050602061101685828601610fcb565b9150509250929050565b600081519050919050565b600082825260208201905092915050565b6000819050602082019050919050565b600073ffffffffffffffffffffffffffffffffffffffff82169050919050565b60006110778261104c565b9050919050565b6110878161106c565b82525050565b6000611099838361107e565b60208301905092915050565b6000602082019050919050565b60006110bd82611020565b6110c7818561102b565b93506110d28361103c565b8060005b838110156111035781516110ea888261108d565b97506110f5836110a5565b9250506001810190506110d6565b5085935050505092915050565b600060049050919050565b600081905092915050565b6000819050919050565b600060049050919050565b600081905092915050565b6000819050919050565b61115981610f42565b82525050565b600061116b8383611150565b60208301905092915050565b6000602082019050919050565b61118d81611130565b611197818461113b565b92506111a282611146565b8060005b838110156111d35781516111ba878261115f565b96506111c583611177565b9250506001810190506111a6565b505050505050565b60006111e78383611184565b60808301905092915050565b6000602082019050919050565b61120981611110565b611213818461111b565b925061121e82611126565b8060005b8381101561124f57815161123687826111db565b9650611241836111f3565b925050600181019050611222565b505050505050565b600081519050919050565b600082825260208201905092915050565b6000819050602082019050919050565b6000602082019050919050565b600061129b82611257565b6112a58185611262565b93506112b083611273565b8060005b838110156112e15781516112c8888261115f565b97506112d383611283565b9250506001810190506112b4565b5085935050505092915050565b600061028082019050818103600083015261130981886110b2565b90506113186020830187611200565b81810361022083015261132b8186611290565b905061133b610240830185610f4f565b611349610260830184610f85565b9695505050505050565b6000819050919050565b61136681611353565b811461137157600080fd5b50565b6000813590506113838161135d565b92915050565b60006020828403121561139f5761139e610faf565b5b60006113ad84828501611374565b91505092915050565b6113bf8161106c565b82525050565b60006060820190506113da60008301866113b6565b6113e76020830185610f4f565b6113f46040830184610f4f565b949350505050565b600082825260208201905092915050565b7f47616d6520686173206e6f742073746172746564000000000000000000000000600082015250565b60006114436014836113fc565b915061144e8261140d565b602082019050919050565b6000602082019050818103600083015261147281611436565b9050919050565b7f4e487b7100000000000000000000000000000000000000000000000000000000600052603260045260246000fd5b7f4e6f7420796f7572207475726e00000000000000000000000000000000000000600082015250565b60006114de600d836113fc565b91506114e9826114a8565b602082019050919050565b6000602082019050818103600083015261150d816114d1565b9050919050565b7f496e76616c696420746f6b656e20696e64657800000000000000000000000000600082015250565b600061154a6013836113fc565b915061155582611514565b602082019050919050565b600060208201905081810360008301526115798161153d565b9050919050565b7f4e6565642061203620746f206d6f76652066726f6d2073746172740000000000600082015250565b60006115b6601b836113fc565b91506115c182611580565b602082019050919050565b600060208201905081810360008301526115e5816115a9565b9050919050565b7f4e487b7100000000000000000000000000000000000000000000000000000000600052601160045260246000fd5b600061162682610f42565b915061163183610f42565b9250828203905060ff81111561164a576116496115ec565b5b92915050565b600061165b82610f42565b915061166683610f42565b9250828201905060ff81111561167f5761167e6115ec565b5b92915050565b7f4e487b7100000000000000000000000000000000000000000000000000000000600052601260045260246000fd5b60006116bf82610f42565b91506116ca83610f42565b9250826116da576116d9611685565b5b828206905092915050565b60006060820190506116fa60008301866113b6565b61170760208301856113b6565b6117146040830184610f4f565b949350505050565b600061172782610f42565b915060ff820361173a576117396115ec565b5b600182019050919050565b600060208201905061175a60008301846113b6565b92915050565b6000819050919050565b61177b61177682611353565b611760565b82525050565b60008160601b9050919050565b600061179982611781565b9050919050565b60006117ab8261178e565b9050919050565b6117c36117be8261106c565b6117a0565b82525050565b60006117d5828761176a565b6020820191506117e5828661176a565b6020820191506117f582856117b2565b601482019150611805828461176a565b60208201915081905095945050505050565b600061182282611353565b91507fffffffffffffffffffffffffffffffffffffffffffffffffffffffffffffffff8203611854576118536115ec565b5b600182019050919050565b600061186a82611353565b915061187583611353565b92508261188557611884611685565b5b828206905092915050565b60006040820190506118a560008301856113b6565b6118b26020830184610f4f565b9392505050565b7f4e487b7100000000000000000000000000000000000000000000000000000000600052604160045260246000fd5b60006118f382610f42565b91506118fe83610f42565b92508261190e5761190d611685565b5b828204905092915050565b600061192482610f42565b915061192f83610f42565b925082820261193d81610f42565b915080821461194f5761194e6115ec565b5b5092915050565b7f4e6f7420656e6f75676820706c61796572730000000000000000000000000000600082015250565b600061198c6012836113fc565b915061199782611956565b602082019050919050565b600060208201905081810360008301526119bb8161197f565b905091905056fea2646970667358221220dcee36d6978cdcc91837a5b5badd19119169fe2787493d76f17d5e954cb30fc364736f6c634300081e0033",
          "opcodes": "PUSH1 0x80 PUSH1 0x40 MSTORE CALLVALUE DUP1 ISZERO PUSH1 0xF JUMPI PUSH1 0x0 DUP1 REVERT JUMPDEST POP PUSH1 0x0 PUSH1 0xD DUP2 SWAP1 SSTORE POP PUSH1 0x0 PUSH1 0xE PUSH1 0x0 PUSH2 0x100 EXP DUP2 SLOAD DUP2 PUSH1 0xFF MUL NOT AND SWAP1 DUP4 ISZERO ISZERO MUL OR SWAP1 SSTORE POP PUSH2 0x19F8 DUP1 PUSH2 0x42 PUSH1 0x0 CODECOPY PUSH1 0x0 RETURN INVALID PUSH1 0x80 PUSH1 0x40 MSTORE CALLVALUE DUP1 ISZERO PUSH2 0x10 JUMPI PUSH1 0x0 DUP1 REVERT JUMPDEST POP PUSH1 0x4 CALLDATASIZE LT PUSH2 0x93 JUMPI PUSH1 0x0 CALLDATALOAD PUSH1 0xE0 SHR DUP1 PUSH4 0xB7D0628B GT PUSH2 0x66 JUMPI DUP1 PUSH4 0xB7D0628B EQ PUSH2 0x10E JUMPI DUP1 PUSH4 0xD4F77B1C EQ PUSH2 0x130 JUMPI DUP1 PUSH4 0xD65AB5F2 EQ PUSH2 0x13A JUMPI DUP1 PUSH4 0xF71D96CB EQ PUSH2 0x144 JUMPI DUP1 PUSH4 0xFB9BDAB4 EQ PUSH2 0x176 JUMPI PUSH2 0x93 JUMP JUMPDEST DUP1 PUSH4 0x302BCC57 EQ PUSH2 0x98 JUMPI DUP1 PUSH4 0x3FB64E75 EQ PUSH2 0xB6 JUMPI DUP1 PUSH4 0x63DA0887 EQ PUSH2 0xD4 JUMPI DUP1 PUSH4 0x837E7CC6 EQ PUSH2 0xF0 JUMPI JUMPDEST PUSH1 0x0 DUP1 REVERT JUMPDEST PUSH2 0xA0 PUSH2 0x194 JUMP JUMPDEST PUSH1 0x40 MLOAD PUSH2 0xAD SWAP2 SWAP1 PUSH2 0xF5E JUMP JUMPDEST PUSH1 0x40 MLOAD DUP1 SWAP2 SUB SWAP1 RETURN JUMPDEST PUSH2 0xBE PUSH2 0x1A7 JUMP JUMPDEST PUSH1 0x40 MLOAD PUSH2 0xCB SWAP2 SWAP1 PUSH2 0xF94 JUMP JUMPDEST PUSH1 0x40 MLOAD DUP1 SWAP2 SUB SWAP1 RETURN JUMPDEST PUSH2 0xEE PUSH1 0x4 DUP1 CALLDATASIZE SUB DUP2 ADD SWAP1 PUSH2 0xE9 SWAP2 SWAP1 PUSH2 0xFE0 JUMP JUMPDEST PUSH2 0x1BA JUMP JUMPDEST STOP JUMPDEST PUSH2 0xF8 PUSH2 0x745 JUMP JUMPDEST PUSH1 0x40 MLOAD PUSH2 0x105 SWAP2 SWAP1 PUSH2 0xF5E JUMP JUMPDEST PUSH1 0x40 MLOAD DUP1 SWAP2 SUB SWAP1 RETURN JUMPDEST PUSH2 0x116 PUSH2 0x83C JUMP JUMPDEST PUSH1 0x40 MLOAD PUSH2 0x127 SWAP6 SWAP5 SWAP4 SWAP3 SWAP2 SWAP1 PUSH2 0x12EE JUMP JUMPDEST PUSH1 0x40 MLOAD DUP1 SWAP2 SUB SWAP1 RETURN JUMPDEST PUSH2 0x138 PUSH2 0xAF6 JUMP JUMPDEST STOP JUMPDEST PUSH2 0x142 PUSH2 0xD74 JUMP JUMPDEST STOP JUMPDEST PUSH2 0x15E PUSH1 0x4 DUP1 CALLDATASIZE SUB DUP2 ADD SWAP1 PUSH2 0x159 SWAP2 SWAP1 PUSH2 0x1389 JUMP JUMPDEST PUSH2 0xE76 JUMP JUMPDEST PUSH1 0x40 MLOAD PUSH2 0x16D SWAP4 SWAP3 SWAP2 SWAP1 PUSH2 0x13C5 JUMP JUMPDEST PUSH1 0x40 MLOAD DUP1 SWAP2 SUB SWAP1 RETURN JUMPDEST PUSH2 0x17E PUSH2 0xEE0 JUMP JUMPDEST PUSH1 0x40 MLOAD PUSH2 0x18B SWAP2 SWAP1 PUSH2 0xF5E JUMP JUMPDEST PUSH1 0x40 MLOAD DUP1 SWAP2 SUB SWAP1 RETURN JUMPDEST PUSH1 0xC PUSH1 0x1 SWAP1 SLOAD SWAP1 PUSH2 0x100 EXP SWAP1 DIV PUSH1 0xFF AND DUP2 JUMP JUMPDEST PUSH1 0xE PUSH1 0x0 SWAP1 SLOAD SWAP1 PUSH2 0x100 EXP SWAP1 DIV PUSH1 0xFF AND DUP2 JUMP JUMPDEST PUSH1 0xE PUSH1 0x0 SWAP1 SLOAD SWAP1 PUSH2 0x100 EXP SWAP1 DIV PUSH1 0xFF AND PUSH2 0x209 JUMPI PUSH1 0x40 MLOAD PUSH32 0x8C379A000000000000000000000000000000000000000000000000000000000 DUP2 MSTORE PUSH1 0x4 ADD PUSH2 0x200 SWAP1 PUSH2 0x1459 JUMP JUMPDEST PUSH1 0x40 MLOAD DUP1 SWAP2 SUB SWAP1 REVERT JUMPDEST PUSH1 0x0 PUSH1 0xC PUSH1 0x0 SWAP1 SLOAD SWAP1 PUSH2 0x100 EXP SWAP1 DIV PUSH1 0xFF AND PUSH1 0xFF AND PUSH1 0x4 DUP2 LT PUSH2 0x22F JUMPI PUSH2 0x22E PUSH2 0x1479 JUMP JUMPDEST JUMPDEST PUSH1 0x3 MUL ADD PUSH1 0x0 ADD PUSH1 0x0 SWAP1 SLOAD SWAP1 PUSH2 0x100 EXP SWAP1 DIV PUSH20 0xFFFFFFFFFFFFFFFFFFFFFFFFFFFFFFFFFFFFFFFF AND PUSH20 0xFFFFFFFFFFFFFFFFFFFFFFFFFFFFFFFFFFFFFFFF AND CALLER PUSH20 0xFFFFFFFFFFFFFFFFFFFFFFFFFFFFFFFFFFFFFFFF AND EQ PUSH2 0x2C4 JUMPI PUSH1 0x40 MLOAD PUSH32 0x8C379A000000000000000000000000000000000000000000000000000000000 DUP2 MSTORE PUSH1 0x4 ADD PUSH2 0x2BB SWAP1 PUSH2 0x14F4 JUMP JUMPDEST PUSH1 0x40 MLOAD DUP1 SWAP2 SUB SWAP1 REVERT JUMPDEST PUSH1 0x4 PUSH1 0xFF AND DUP3 PUSH1 0xFF AND LT PUSH2 0x30D JUMPI PUSH1 0x40 MLOAD PUSH32 0x8C379A000000000000000000000000000000000000000000000000000000000 DUP2 MSTORE PUSH1 0x4 ADD PUSH2 0x304 SWAP1 PUSH2 0x1560 JUMP JUMPDEST PUSH1 0x40 MLOAD DUP1 SWAP2 SUB SWAP1 REVERT JUMPDEST PUSH1 0x0 DUP1 PUSH1 0xC PUSH1 0x0 SWAP1 SLOAD SWAP1 PUSH2 0x100 EXP SWAP1 DIV PUSH1 0xFF AND PUSH1 0xFF AND PUSH1 0x4 DUP2 LT PUSH2 0x334 JUMPI PUSH2 0x333 PUSH2 0x1479 JUMP JUMPDEST JUMPDEST PUSH1 0x3 MUL ADD SWAP1 POP PUSH1 0x0 DUP2 PUSH1 0x1 ADD DUP5 PUSH1 0xFF AND PUSH1 0x4 DUP2 LT PUSH2 0x355 JUMPI PUSH2 0x354 PUSH2 0x1479 JUMP JUMPDEST JUMPDEST PUSH1 0x20 SWAP2 DUP3 DUP3 DIV ADD SWAP2 SWAP1 MOD SWAP1 SLOAD SWAP1 PUSH2 0x100 EXP SWAP1 DIV PUSH1 0xFF AND SWAP1 POP PUSH1 0x0 DUP2 PUSH1 0xFF AND EQ DUP1 ISZERO PUSH2 0x383 JUMPI POP PUSH1 0x6 DUP4 PUSH1 0xFF AND EQ JUMPDEST ISZERO PUSH2 0x3A1 JUMPI DUP2 PUSH1 0x2 ADD PUSH1 0x1 SWAP1 SLOAD SWAP1 PUSH2 0x100 EXP SWAP1 DIV PUSH1 0xFF AND SWAP1 POP PUSH2 0x41A JUMP JUMPDEST PUSH1 0x0 DUP2 PUSH1 0xFF AND SUB PUSH2 0x3E7 JUMPI PUSH1 0x40 MLOAD PUSH32 0x8C379A000000000000000000000000000000000000000000000000000000000 DUP2 MSTORE PUSH1 0x4 ADD PUSH2 0x3DE SWAP1 PUSH2 0x15CC JUMP JUMPDEST PUSH1 0x40 MLOAD DUP1 SWAP2 SUB SWAP1 REVERT JUMPDEST PUSH1 0x1 PUSH1 0x34 DUP5 PUSH1 0x1 DUP5 PUSH2 0x3F9 SWAP2 SWAP1 PUSH2 0x161B JUMP JUMPDEST PUSH2 0x403 SWAP2 SWAP1 PUSH2 0x1650 JUMP JUMPDEST PUSH2 0x40D SWAP2 SWAP1 PUSH2 0x16B4 JUMP JUMPDEST PUSH2 0x417 SWAP2 SWAP1 PUSH2 0x1650 JUMP JUMPDEST SWAP1 POP JUMPDEST PUSH1 0x0 JUMPDEST PUSH1 0xC PUSH1 0x1 SWAP1 SLOAD SWAP1 PUSH2 0x100 EXP SWAP1 DIV PUSH1 0xFF AND PUSH1 0xFF AND DUP2 PUSH1 0xFF AND LT ISZERO PUSH2 0x5A7 JUMPI PUSH1 0xC PUSH1 0x0 SWAP1 SLOAD SWAP1 PUSH2 0x100 EXP SWAP1 DIV PUSH1 0xFF AND PUSH1 0xFF AND DUP2 PUSH1 0xFF AND EQ PUSH2 0x59A JUMPI PUSH1 0x0 JUMPDEST PUSH1 0x4 PUSH1 0xFF AND DUP2 PUSH1 0xFF AND LT ISZERO PUSH2 0x598 JUMPI DUP3 PUSH1 0xFF AND PUSH1 0x0 DUP4 PUSH1 0xFF AND PUSH1 0x4 DUP2 LT PUSH2 0x483 JUMPI PUSH2 0x482 PUSH2 0x1479 JUMP JUMPDEST JUMPDEST PUSH1 0x3 MUL ADD PUSH1 0x1 ADD DUP3 PUSH1 0xFF AND PUSH1 0x4 DUP2 LT PUSH2 0x49F JUMPI PUSH2 0x49E PUSH2 0x1479 JUMP JUMPDEST JUMPDEST PUSH1 0x20 SWAP2 DUP3 DUP3 DIV ADD SWAP2 SWAP1 MOD SWAP1 SLOAD SWAP1 PUSH2 0x100 EXP SWAP1 DIV PUSH1 0xFF AND PUSH1 0xFF AND SUB PUSH2 0x58B JUMPI PUSH1 0x0 DUP1 DUP4 PUSH1 0xFF AND PUSH1 0x4 DUP2 LT PUSH2 0x4D5 JUMPI PUSH2 0x4D4 PUSH2 0x1479 JUMP JUMPDEST JUMPDEST PUSH1 0x3 MUL ADD PUSH1 0x1 ADD DUP3 PUSH1 0xFF AND PUSH1 0x4 DUP2 LT PUSH2 0x4F1 JUMPI PUSH2 0x4F0 PUSH2 0x1479 JUMP JUMPDEST JUMPDEST PUSH1 0x20 SWAP2 DUP3 DUP3 DIV ADD SWAP2 SWAP1 MOD PUSH2 0x100 EXP DUP2 SLOAD DUP2 PUSH1 0xFF MUL NOT AND SWAP1 DUP4 PUSH1 0xFF AND MUL OR SWAP1 SSTORE POP PUSH32 0x442A4F64AD7E0C86FEC77A6C7D18C7AF652A8261EA25F28140A3FCCC2E1C91CB CALLER PUSH1 0x0 DUP5 PUSH1 0xFF AND PUSH1 0x4 DUP2 LT PUSH2 0x54A JUMPI PUSH2 0x549 PUSH2 0x1479 JUMP JUMPDEST JUMPDEST PUSH1 0x3 MUL ADD PUSH1 0x0 ADD PUSH1 0x0 SWAP1 SLOAD SWAP1 PUSH2 0x100 EXP SWAP1 DIV PUSH20 0xFFFFFFFFFFFFFFFFFFFFFFFFFFFFFFFFFFFFFFFF AND DUP6 PUSH1 0x40 MLOAD PUSH2 0x582 SWAP4 SWAP3 SWAP2 SWAP1 PUSH2 0x16E5 JUMP JUMPDEST PUSH1 0x40 MLOAD DUP1 SWAP2 SUB SWAP1 LOG1 JUMPDEST DUP1 DUP1 PUSH1 0x1 ADD SWAP2 POP POP PUSH2 0x459 JUMP JUMPDEST POP JUMPDEST DUP1 DUP1 PUSH1 0x1 ADD SWAP2 POP POP PUSH2 0x41D JUMP JUMPDEST POP DUP1 DUP3 PUSH1 0x1 ADD DUP6 PUSH1 0xFF AND PUSH1 0x4 DUP2 LT PUSH2 0x5C2 JUMPI PUSH2 0x5C1 PUSH2 0x1479 JUMP JUMPDEST JUMPDEST PUSH1 0x20 SWAP2 DUP3 DUP3 DIV ADD SWAP2 SWAP1 MOD PUSH2 0x100 EXP DUP2 SLOAD DUP2 PUSH1 0xFF MUL NOT AND SWAP1 DUP4 PUSH1 0xFF AND MUL OR SWAP1 SSTORE POP PUSH32 0xE8238510D7DE95882DB69A043C5B056222B3EFDC86B2C8E33E782D46BDCBDA8C CALLER DUP6 DUP4 PUSH1 0x40 MLOAD PUSH2 0x615 SWAP4 SWAP3 SWAP2 SWAP1 PUSH2 0x13C5 JUMP JUMPDEST PUSH1 0x40 MLOAD DUP1 SWAP2 SUB SWAP1 LOG1 DUP2 PUSH1 0x2 ADD PUSH1 0x1 SWAP1 SLOAD SWAP1 PUSH2 0x100 EXP SWAP1 DIV PUSH1 0xFF AND PUSH1 0xFF AND DUP2 PUSH1 0xFF AND SUB PUSH2 0x6EE JUMPI DUP2 PUSH1 0x2 ADD PUSH1 0x0 DUP2 DUP2 SWAP1 SLOAD SWAP1 PUSH2 0x100 EXP SWAP1 DIV PUSH1 0xFF AND DUP1 SWAP3 SWAP2 SWAP1 PUSH2 0x65C SWAP1 PUSH2 0x171C JUMP JUMPDEST SWAP2 SWAP1 PUSH2 0x100 EXP DUP2 SLOAD DUP2 PUSH1 0xFF MUL NOT AND SWAP1 DUP4 PUSH1 0xFF AND MUL OR SWAP1 SSTORE POP POP PUSH1 0x4 PUSH1 0xFF AND DUP3 PUSH1 0x2 ADD PUSH1 0x0 SWAP1 SLOAD SWAP1 PUSH2 0x100 EXP SWAP1 DIV PUSH1 0xFF AND PUSH1 0xFF AND SUB PUSH2 0x6ED JUMPI PUSH32 0x970F935EE01502DF35DA11DB45C29BDD97D8F41D5A0640C1DC3BD96C67F97987 CALLER PUSH1 0x40 MLOAD PUSH2 0x6C3 SWAP2 SWAP1 PUSH2 0x1745 JUMP JUMPDEST PUSH1 0x40 MLOAD DUP1 SWAP2 SUB SWAP1 LOG1 PUSH1 0x0 PUSH1 0xE PUSH1 0x0 PUSH2 0x100 EXP DUP2 SLOAD DUP2 PUSH1 0xFF MUL NOT AND SWAP1 DUP4 ISZERO ISZERO MUL OR SWAP1 SSTORE POP POP POP PUSH2 0x741 JUMP JUMPDEST JUMPDEST PUSH1 0xC PUSH1 0x1 SWAP1 SLOAD SWAP1 PUSH2 0x100 EXP SWAP1 DIV PUSH1 0xFF AND PUSH1 0x1 PUSH1 0xC PUSH1 0x0 SWAP1 SLOAD SWAP1 PUSH2 0x100 EXP SWAP1 DIV PUSH1 0xFF AND PUSH2 0x71A SWAP2 SWAP1 PUSH2 0x1650 JUMP JUMPDEST PUSH2 0x724 SWAP2 SWAP1 PUSH2 0x16B4 JUMP JUMPDEST PUSH1 0xC PUSH1 0x0 PUSH2 0x100 EXP DUP2 SLOAD DUP2 PUSH1 0xFF MUL NOT AND SWAP1 DUP4 PUSH1 0xFF AND MUL OR SWAP1 SSTORE POP POP POP JUMPDEST POP POP JUMP JUMPDEST PUSH1 0x0 PUSH1 0xE PUSH1 0x0 SWAP1 SLOAD SWAP1 PUSH2 0x100 EXP SWAP1 DIV PUSH1 0xFF AND PUSH2 0x78D JUMPI PUSH1 0x40 MLOAD PUSH32 0xCE18149500000000000000000000000000000000000000000000000000000000 DUP2 MSTORE PUSH1 0x4 ADD PUSH1 0x40 MLOAD DUP1 SWAP2 SUB SWAP1 REVERT JUMPDEST PUSH1 0x0 TIMESTAMP PREVRANDAO CALLER PUSH1 0xD SLOAD PUSH1 0x40 MLOAD PUSH1 0x20 ADD PUSH2 0x7A8 SWAP5 SWAP4 SWAP3 SWAP2 SWAP1 PUSH2 0x17C9 JUMP JUMPDEST PUSH1 0x40 MLOAD PUSH1 0x20 DUP2 DUP4 SUB SUB DUP2 MSTORE SWAP1 PUSH1 0x40 MSTORE DUP1 MLOAD SWAP1 PUSH1 0x20 ADD KECCAK256 PUSH1 0x0 SHR SWAP1 POP PUSH1 0xD PUSH1 0x0 DUP2 SLOAD DUP1 SWAP3 SWAP2 SWAP1 PUSH2 0x7D6 SWAP1 PUSH2 0x1817 JUMP JUMPDEST SWAP2 SWAP1 POP SSTORE POP PUSH1 0x0 PUSH1 0x1 PUSH1 0x6 PUSH1 0xFF AND DUP4 PUSH2 0x7EF SWAP2 SWAP1 PUSH2 0x185F JUMP JUMPDEST PUSH2 0x7F9 SWAP2 SWAP1 PUSH2 0x1650 JUMP JUMPDEST SWAP1 POP PUSH32 0xC58ABB24BB142A4E0CAD0493A9C010849A79D42F31893B1433C3F8DF56010979 CALLER DUP3 PUSH1 0x40 MLOAD PUSH2 0x82C SWAP3 SWAP2 SWAP1 PUSH2 0x1890 JUMP JUMPDEST PUSH1 0x40 MLOAD DUP1 SWAP2 SUB SWAP1 LOG1 DUP1 SWAP3 POP POP POP SWAP1 JUMP JUMPDEST PUSH1 0x60 PUSH2 0x846 PUSH2 0xEF3 JUMP JUMPDEST PUSH1 0x60 PUSH1 0x0 DUP1 PUSH1 0xC PUSH1 0x1 SWAP1 SLOAD SWAP1 PUSH2 0x100 EXP SWAP1 DIV PUSH1 0xFF AND PUSH1 0xFF AND PUSH8 0xFFFFFFFFFFFFFFFF DUP2 GT ISZERO PUSH2 0x877 JUMPI PUSH2 0x876 PUSH2 0x18B9 JUMP JUMPDEST JUMPDEST PUSH1 0x40 MLOAD SWAP1 DUP1 DUP3 MSTORE DUP1 PUSH1 0x20 MUL PUSH1 0x20 ADD DUP3 ADD PUSH1 0x40 MSTORE DUP1 ISZERO PUSH2 0x8A5 JUMPI DUP2 PUSH1 0x20 ADD PUSH1 0x20 DUP3 MUL DUP1 CALLDATASIZE DUP4 CALLDATACOPY DUP1 DUP3 ADD SWAP2 POP POP SWAP1 POP JUMPDEST POP SWAP5 POP PUSH1 0xC PUSH1 0x1 SWAP1 SLOAD SWAP1 PUSH2 0x100 EXP SWAP1 DIV PUSH1 0xFF AND PUSH1 0xFF AND PUSH8 0xFFFFFFFFFFFFFFFF DUP2 GT ISZERO PUSH2 0x8D4 JUMPI PUSH2 0x8D3 PUSH2 0x18B9 JUMP JUMPDEST JUMPDEST PUSH1 0x40 MLOAD SWAP1 DUP1 DUP3 MSTORE DUP1 PUSH1 0x20 MUL PUSH1 0x20 ADD DUP3 ADD PUSH1 0x40 MSTORE DUP1 ISZERO PUSH2 0x902 JUMPI DUP2 PUSH1 0x20 ADD PUSH1 0x20 DUP3 MUL DUP1 CALLDATASIZE DUP4 CALLDATACOPY DUP1 DUP3 ADD SWAP2 POP POP SWAP1 POP JUMPDEST POP SWAP3 POP PUSH1 0x0 JUMPDEST PUSH1 0xC PUSH1 0x1 SWAP1 SLOAD SWAP1 PUSH2 0x100 EXP SWAP1 DIV PUSH1 0xFF AND PUSH1 0xFF AND DUP2 PUSH1 0xFF AND LT ISZERO PUSH2 0xAC1 JUMPI PUSH1 0x0 DUP2 PUSH1 0xFF AND PUSH1 0x4 DUP2 LT PUSH2 0x93C JUMPI PUSH2 0x93B PUSH2 0x1479 JUMP JUMPDEST JUMPDEST PUSH1 0x3 MUL ADD PUSH1 0x0 ADD PUSH1 0x0 SWAP1 SLOAD SWAP1 PUSH2 0x100 EXP SWAP1 DIV PUSH20 0xFFFFFFFFFFFFFFFFFFFFFFFFFFFFFFFFFFFFFFFF AND DUP7 DUP3 PUSH1 0xFF AND DUP2 MLOAD DUP2 LT PUSH2 0x97A JUMPI PUSH2 0x979 PUSH2 0x1479 JUMP JUMPDEST JUMPDEST PUSH1 0x20 MUL PUSH1 0x20 ADD ADD SWAP1 PUSH20 0xFFFFFFFFFFFFFFFFFFFFFFFFFFFFFFFFFFFFFFFF AND SWAP1 DUP2 PUSH20 0xFFFFFFFFFFFFFFFFFFFFFFFFFFFFFFFFFFFFFFFF AND DUP2 MSTORE POP POP PUSH1 0x0 JUMPDEST PUSH1 0x4 PUSH1 0xFF AND DUP2 PUSH1 0xFF AND LT ISZERO PUSH2 0xA5D JUMPI PUSH1 0x0 DUP3 PUSH1 0xFF AND PUSH1 0x4 DUP2 LT PUSH2 0x9DD JUMPI PUSH2 0x9DC PUSH2 0x1479 JUMP JUMPDEST JUMPDEST PUSH1 0x3 MUL ADD PUSH1 0x1 ADD DUP2 PUSH1 0xFF AND PUSH1 0x4 DUP2 LT PUSH2 0x9F9 JUMPI PUSH2 0x9F8 PUSH2 0x1479 JUMP JUMPDEST JUMPDEST PUSH1 0x20 SWAP2 DUP3 DUP3 DIV ADD SWAP2 SWAP1 MOD SWAP1 SLOAD SWAP1 PUSH2 0x100 EXP SWAP1 DIV PUSH1 0xFF AND DUP7 DUP4 PUSH1 0xFF AND PUSH1 0x4 DUP2 LT PUSH2 0xA25 JUMPI PUSH2 0xA24 PUSH2 0x1479 JUMP JUMPDEST JUMPDEST PUSH1 0x20 MUL ADD MLOAD DUP3 PUSH1 0xFF AND PUSH1 0x4 DUP2 LT PUSH2 0xA3F JUMPI PUSH2 0xA3E PUSH2 0x1479 JUMP JUMPDEST JUMPDEST PUSH1 0x20 MUL ADD SWAP1 PUSH1 0xFF AND SWAP1 DUP2 PUSH1 0xFF AND DUP2 MSTORE POP POP DUP1 DUP1 PUSH1 0x1 ADD SWAP2 POP POP PUSH2 0x9B7 JUMP JUMPDEST POP PUSH1 0x0 DUP2 PUSH1 0xFF AND PUSH1 0x4 DUP2 LT PUSH2 0xA75 JUMPI PUSH2 0xA74 PUSH2 0x1479 JUMP JUMPDEST JUMPDEST PUSH1 0x3 MUL ADD PUSH1 0x2 ADD PUSH1 0x0 SWAP1 SLOAD SWAP1 PUSH2 0x100 EXP SWAP1 DIV PUSH1 0xFF AND DUP5 DUP3 PUSH1 0xFF AND DUP2 MLOAD DUP2 LT PUSH2 0xAA0 JUMPI PUSH2 0xA9F PUSH2 0x1479 JUMP JUMPDEST JUMPDEST PUSH1 0x20 MUL PUSH1 0x20 ADD ADD SWAP1 PUSH1 0xFF AND SWAP1 DUP2 PUSH1 0xFF AND DUP2 MSTORE POP POP DUP1 DUP1 PUSH1 0x1 ADD SWAP2 POP POP PUSH2 0x908 JUMP JUMPDEST POP DUP5 DUP5 DUP5 PUSH1 0xC PUSH1 0x0 SWAP1 SLOAD SWAP1 PUSH2 0x100 EXP SWAP1 DIV PUSH1 0xFF AND PUSH1 0xE PUSH1 0x0 SWAP1 SLOAD SWAP1 PUSH2 0x100 EXP SWAP1 DIV PUSH1 0xFF AND SWAP5 POP SWAP5 POP SWAP5 POP SWAP5 POP SWAP5 POP SWAP1 SWAP2 SWAP3 SWAP4 SWAP5 JUMP JUMPDEST PUSH1 0xE PUSH1 0x0 SWAP1 SLOAD SWAP1 PUSH2 0x100 EXP SWAP1 DIV PUSH1 0xFF AND ISZERO PUSH2 0xB3D JUMPI PUSH1 0x40 MLOAD PUSH32 0xCE18149500000000000000000000000000000000000000000000000000000000 DUP2 MSTORE PUSH1 0x4 ADD PUSH1 0x40 MLOAD DUP1 SWAP2 SUB SWAP1 REVERT JUMPDEST PUSH1 0x4 PUSH1 0xFF AND PUSH1 0xC PUSH1 0x1 SWAP1 SLOAD SWAP1 PUSH2 0x100 EXP SWAP1 DIV PUSH1 0xFF AND PUSH1 0xFF AND LT PUSH2 0xB8C JUMPI PUSH1 0x40 MLOAD PUSH32 0x1D891B0600000000000000000000000000000000000000000000000000000000 DUP2 MSTORE PUSH1 0x4 ADD PUSH1 0x40 MLOAD DUP1 SWAP2 SUB SWAP1 REVERT JUMPDEST CALLER PUSH1 0x0 PUSH1 0xC PUSH1 0x1 SWAP1 SLOAD SWAP1 PUSH2 0x100 EXP SWAP1 DIV PUSH1 0xFF AND PUSH1 0xFF AND PUSH1 0x4 DUP2 LT PUSH2 0xBB3 JUMPI PUSH2 0xBB2 PUSH2 0x1479 JUMP JUMPDEST JUMPDEST PUSH1 0x3 MUL ADD PUSH1 0x0 ADD PUSH1 0x0 PUSH2 0x100 EXP DUP2 SLOAD DUP2 PUSH20 0xFFFFFFFFFFFFFFFFFFFFFFFFFFFFFFFFFFFFFFFF MUL NOT AND SWAP1 DUP4 PUSH20 0xFFFFFFFFFFFFFFFFFFFFFFFFFFFFFFFFFFFFFFFF AND MUL OR SWAP1 SSTORE POP PUSH1 0x4 PUSH1 0x34 PUSH2 0xC06 SWAP2 SWAP1 PUSH2 0x18E8 JUMP JUMPDEST PUSH1 0xC PUSH1 0x1 SWAP1 SLOAD SWAP1 PUSH2 0x100 EXP SWAP1 DIV PUSH1 0xFF AND PUSH2 0xC20 SWAP2 SWAP1 PUSH2 0x1919 JUMP JUMPDEST PUSH1 0x1 PUSH2 0xC2C SWAP2 SWAP1 PUSH2 0x1650 JUMP JUMPDEST PUSH1 0x0 PUSH1 0xC PUSH1 0x1 SWAP1 SLOAD SWAP1 PUSH2 0x100 EXP SWAP1 DIV PUSH1 0xFF AND PUSH1 0xFF AND PUSH1 0x4 DUP2 LT PUSH2 0xC52 JUMPI PUSH2 0xC51 PUSH2 0x1479 JUMP JUMPDEST JUMPDEST PUSH1 0x3 MUL ADD PUSH1 0x2 ADD PUSH1 0x1 PUSH2 0x100 EXP DUP2 SLOAD DUP2 PUSH1 0xFF MUL NOT AND SWAP1 DUP4 PUSH1 0xFF AND MUL OR SWAP1 SSTORE POP PUSH1 0x0 JUMPDEST PUSH1 0x4 PUSH1 0xFF AND DUP2 PUSH1 0xFF AND LT ISZERO PUSH2 0xCF3 JUMPI PUSH1 0x0 DUP1 PUSH1 0xC PUSH1 0x1 SWAP1 SLOAD SWAP1 PUSH2 0x100 EXP SWAP1 DIV PUSH1 0xFF AND PUSH1 0xFF AND PUSH1 0x4 DUP2 LT PUSH2 0xCAA JUMPI PUSH2 0xCA9 PUSH2 0x1479 JUMP JUMPDEST JUMPDEST PUSH1 0x3 MUL ADD PUSH1 0x1 ADD DUP3 PUSH1 0xFF AND PUSH1 0x4 DUP2 LT PUSH2 0xCC6 JUMPI PUSH2 0xCC5 PUSH2 0x1479 JUMP JUMPDEST JUMPDEST PUSH1 0x20 SWAP2 DUP3 DUP3 DIV ADD SWAP2 SWAP1 MOD PUSH2 0x100 EXP DUP2 SLOAD DUP2 PUSH1 0xFF MUL NOT AND SWAP1 DUP4 PUSH1 0xFF AND MUL OR SWAP1 SSTORE POP DUP1 DUP1 PUSH1 0x1 ADD SWAP2 POP POP PUSH2 0xC74 JUMP JUMPDEST POP PUSH1 0x0 DUP1 PUSH1 0xC PUSH1 0x1 SWAP1 SLOAD SWAP1 PUSH2 0x100 EXP SWAP1 DIV PUSH1 0xFF AND PUSH1 0xFF AND PUSH1 0x4 DUP2 LT PUSH2 0xD1B JUMPI PUSH2 0xD1A PUSH2 0x1479 JUMP JUMPDEST JUMPDEST PUSH1 0x3 MUL ADD PUSH1 0x2 ADD PUSH1 0x0 PUSH2 0x100 EXP DUP2 SLOAD DUP2 PUSH1 0xFF MUL NOT AND SWAP1 DUP4 PUSH1 0xFF AND MUL OR SWAP1 SSTORE POP PUSH1 0xC PUSH1 0x1 DUP2 DUP2 SWAP1 SLOAD SWAP1 PUSH2 0x100 EXP SWAP1 DIV PUSH1 0xFF AND DUP1 SWAP3 SWAP2 SWAP1 PUSH2 0xD59 SWAP1 PUSH2 0x171C JUMP JUMPDEST SWAP2 SWAP1 PUSH2 0x100 EXP DUP2 SLOAD DUP2 PUSH1 0xFF MUL NOT AND SWAP1 DUP4 PUSH1 0xFF AND MUL OR SWAP1 SSTORE POP POP JUMP JUMPDEST PUSH1 0xE PUSH1 0x0 SWAP1 SLOAD SWAP1 PUSH2 0x100 EXP SWAP1 DIV PUSH1 0xFF AND ISZERO PUSH2 0xDBB JUMPI PUSH1 0x40 MLOAD PUSH32 0xCE18149500000000000000000000000000000000000000000000000000000000 DUP2 MSTORE PUSH1 0x4 ADD PUSH1 0x40 MLOAD DUP1 SWAP2 SUB SWAP1 REVERT JUMPDEST PUSH1 0x2 PUSH1 0xC PUSH1 0x1 SWAP1 SLOAD SWAP1 PUSH2 0x100 EXP SWAP1 DIV PUSH1 0xFF AND PUSH1 0xFF AND LT ISZERO PUSH2 0xE11 JUMPI PUSH1 0x40 MLOAD PUSH32 0x8C379A000000000000000000000000000000000000000000000000000000000 DUP2 MSTORE PUSH1 0x4 ADD PUSH2 0xE08 SWAP1 PUSH2 0x19A2 JUMP JUMPDEST PUSH1 0x40 MLOAD DUP1 SWAP2 SUB SWAP1 REVERT JUMPDEST PUSH1 0x1 PUSH1 0xE PUSH1 0x0 PUSH2 0x100 EXP DUP2 SLOAD DUP2 PUSH1 0xFF MUL NOT AND SWAP1 DUP4 ISZERO ISZERO MUL OR SWAP1 SSTORE POP PUSH1 0x0 PUSH1 0xC PUSH1 0x0 PUSH2 0x100 EXP DUP2 SLOAD DUP2 PUSH1 0xFF MUL NOT AND SWAP1 DUP4 PUSH1 0xFF AND MUL OR SWAP1 SSTORE POP PUSH32 0x762F260439BB4BE3EF6E4DC2786E2E7BD187D3D80B79057D7A424FE98563E335 PUSH1 0x40 MLOAD PUSH1 0x40 MLOAD DUP1 SWAP2 SUB SWAP1 LOG1 JUMP JUMPDEST PUSH1 0x0 DUP2 PUSH1 0x4 DUP2 LT PUSH2 0xE86 JUMPI PUSH1 0x0 DUP1 REVERT JUMPDEST PUSH1 0x3 MUL ADD PUSH1 0x0 SWAP2 POP SWAP1 POP DUP1 PUSH1 0x0 ADD PUSH1 0x0 SWAP1 SLOAD SWAP1 PUSH2 0x100 EXP SWAP1 DIV PUSH20 0xFFFFFFFFFFFFFFFFFFFFFFFFFFFFFFFFFFFFFFFF AND SWAP1 DUP1 PUSH1 0x2 ADD PUSH1 0x0 SWAP1 SLOAD SWAP1 PUSH2 0x100 EXP SWAP1 DIV PUSH1 0xFF AND SWAP1 DUP1 PUSH1 0x2 ADD PUSH1 0x1 SWAP1 SLOAD SWAP1 PUSH2 0x100 EXP SWAP1 DIV PUSH1 0xFF AND SWAP1 POP DUP4 JUMP JUMPDEST PUSH1 0xC PUSH1 0x0 SWAP1 SLOAD SWAP1 PUSH2 0x100 EXP SWAP1 DIV PUSH1 0xFF AND DUP2 JUMP JUMPDEST PUSH1 0x40 MLOAD DUP1 PUSH1 0x80 ADD PUSH1 0x40 MSTORE DUP1 PUSH1 0x4 SWAP1 JUMPDEST PUSH2 0xF0A PUSH2 0xF20 JUMP JUMPDEST DUP2 MSTORE PUSH1 0x20 ADD SWAP1 PUSH1 0x1 SWAP1 SUB SWAP1 DUP2 PUSH2 0xF02 JUMPI SWAP1 POP POP SWAP1 JUMP JUMPDEST PUSH1 0x40 MLOAD DUP1 PUSH1 0x80 ADD PUSH1 0x40 MSTORE DUP1 PUSH1 0x4 SWAP1 PUSH1 0x20 DUP3 MUL DUP1 CALLDATASIZE DUP4 CALLDATACOPY DUP1 DUP3 ADD SWAP2 POP POP SWAP1 POP POP SWAP1 JUMP JUMPDEST PUSH1 0x0 PUSH1 0xFF DUP3 AND SWAP1 POP SWAP2 SWAP1 POP JUMP JUMPDEST PUSH2 0xF58 DUP2 PUSH2 0xF42 JUMP JUMPDEST DUP3 MSTORE POP POP JUMP JUMPDEST PUSH1 0x0 PUSH1 0x20 DUP3 ADD SWAP1 POP PUSH2 0xF73 PUSH1 0x0 DUP4 ADD DUP5 PUSH2 0xF4F JUMP JUMPDEST SWAP3 SWAP2 POP POP JUMP JUMPDEST PUSH1 0x0 DUP2 ISZERO ISZERO SWAP1 POP SWAP2 SWAP1 POP JUMP JUMPDEST PUSH2 0xF8E DUP2 PUSH2 0xF79 JUMP JUMPDEST DUP3 MSTORE POP POP JUMP JUMPDEST PUSH1 0x0 PUSH1 0x20 DUP3 ADD SWAP1 POP PUSH2 0xFA9 PUSH1 0x0 DUP4 ADD DUP5 PUSH2 0xF85 JUMP JUMPDEST SWAP3 SWAP2 POP POP JUMP JUMPDEST PUSH1 0x0 DUP1 REVERT JUMPDEST PUSH2 0xFBD DUP2 PUSH2 0xF42 JUMP JUMPDEST DUP2 EQ PUSH2 0xFC8 JUMPI PUSH1 0x0 DUP1 REVERT JUMPDEST POP JUMP JUMPDEST PUSH1 0x0 DUP2 CALLDATALOAD SWAP1 POP PUSH2 0xFDA DUP2 PUSH2 0xFB4 JUMP JUMPDEST SWAP3 SWAP2 POP POP JUMP JUMPDEST PUSH1 0x0 DUP1 PUSH1 0x40 DUP4 DUP6 SUB SLT ISZERO PUSH2 0xFF7 JUMPI PUSH2 0xFF6 PUSH2 0xFAF JUMP JUMPDEST JUMPDEST PUSH1 0x0 PUSH2 0x1005 DUP6 DUP3 DUP7 ADD PUSH2 0xFCB JUMP JUMPDEST SWAP3 POP POP PUSH1 0x20 PUSH2 0x1016 DUP6 DUP3 DUP7 ADD PUSH2 0xFCB JUMP JUMPDEST SWAP2 POP POP SWAP3 POP SWAP3 SWAP1 POP JUMP JUMPDEST PUSH1 0x0 DUP2 MLOAD SWAP1 POP SWAP2 SWAP1 POP JUMP JUMPDEST PUSH1 0x0 DUP3 DUP3 MSTORE PUSH1 0x20 DUP3 ADD SWAP1 POP SWAP3 SWAP2 POP POP JUMP JUMPDEST PUSH1 0x0 DUP2 SWAP1 POP PUSH1 0x20 DUP3 ADD SWAP1 POP SWAP2 SWAP1 POP JUMP JUMPDEST PUSH1 0x0 PUSH20 0xFFFFFFFFFFFFFFFFFFFFFFFFFFFFFFFFFFFFFFFF DUP3 AND SWAP1 POP SWAP2 SWAP1 POP JUMP JUMPDEST PUSH1 0x0 PUSH2 0x1077 DUP3 PUSH2 0x104C JUMP JUMPDEST SWAP1 POP SWAP2 SWAP1 POP JUMP JUMPDEST PUSH2 0x1087 DUP2 PUSH2 0x106C JUMP JUMPDEST DUP3 MSTORE POP POP JUMP JUMPDEST PUSH1 0x0 PUSH2 0x1099 DUP4 DUP4 PUSH2 0x107E JUMP JUMPDEST PUSH1 0x20 DUP4 ADD SWAP1 POP SWAP3 SWAP2 POP POP JUMP JUMPDEST PUSH1 0x0 PUSH1 0x20 DUP3 ADD SWAP1 POP SWAP2 SWAP1 POP JUMP JUMPDEST PUSH1 0x0 PUSH2 0x10BD DUP3 PUSH2 0x1020 JUMP JUMPDEST PUSH2 0x10C7 DUP2 DUP6 PUSH2 0x102B JUMP JUMPDEST SWAP4 POP PUSH2 0x10D2 DUP4 PUSH2 0x103C JUMP JUMPDEST DUP1 PUSH1 0x0 JUMPDEST DUP4 DUP2 LT ISZERO PUSH2 0x1103 JUMPI DUP2 MLOAD PUSH2 0x10EA DUP9 DUP3 PUSH2 0x108D JUMP JUMPDEST SWAP8 POP PUSH2 0x10F5 DUP4 PUSH2 0x10A5 JUMP JUMPDEST SWAP3 POP POP PUSH1 0x1 DUP2 ADD SWAP1 POP PUSH2 0x10D6 JUMP JUMPDEST POP DUP6 SWAP4 POP POP POP POP SWAP3 SWAP2 POP POP JUMP JUMPDEST PUSH1 0x0 PUSH1 0x4 SWAP1 POP SWAP2 SWAP1 POP JUMP JUMPDEST PUSH1 0x0 DUP2 SWAP1 POP SWAP3 SWAP2 POP POP JUMP JUMPDEST PUSH1 0x0 DUP2 SWAP1 POP SWAP2 SWAP1 POP JUMP JUMPDEST PUSH1 0x0 PUSH1 0x4 SWAP1 POP SWAP2 SWAP1 POP JUMP JUMPDEST PUSH1 0x0 DUP2 SWAP1 POP SWAP3 SWAP2 POP POP JUMP JUMPDEST PUSH1 0x0 DUP2 SWAP1 POP SWAP2 SWAP1 POP JUMP JUMPDEST PUSH2 0x1159 DUP2 PUSH2 0xF42 JUMP JUMPDEST DUP3 MSTORE POP POP JUMP JUMPDEST PUSH1 0x0 PUSH2 0x116B DUP4 DUP4 PUSH2 0x1150 JUMP JUMPDEST PUSH1 0x20 DUP4 ADD SWAP1 POP SWAP3 SWAP2 POP POP JUMP JUMPDEST PUSH1 0x0 PUSH1 0x20 DUP3 ADD SWAP1 POP SWAP2 SWAP1 POP JUMP JUMPDEST PUSH2 0x118D DUP2 PUSH2 0x1130 JUMP JUMPDEST PUSH2 0x1197 DUP2 DUP5 PUSH2 0x113B JUMP JUMPDEST SWAP3 POP PUSH2 0x11A2 DUP3 PUSH2 0x1146 JUMP JUMPDEST DUP1 PUSH1 0x0 JUMPDEST DUP4 DUP2 LT ISZERO PUSH2 0x11D3 JUMPI DUP2 MLOAD PUSH2 0x11BA DUP8 DUP3 PUSH2 0x115F JUMP JUMPDEST SWAP7 POP PUSH2 0x11C5 DUP4 PUSH2 0x1177 JUMP JUMPDEST SWAP3 POP POP PUSH1 0x1 DUP2 ADD SWAP1 POP PUSH2 0x11A6 JUMP JUMPDEST POP POP POP POP POP POP JUMP JUMPDEST PUSH1 0x0 PUSH2 0x11E7 DUP4 DUP4 PUSH2 0x1184 JUMP JUMPDEST PUSH1 0x80 DUP4 ADD SWAP1 POP SWAP3 SWAP2 POP POP JUMP JUMPDEST PUSH1 0x0 PUSH1 0x20 DUP3 ADD SWAP1 POP SWAP2 SWAP1 POP JUMP JUMPDEST PUSH2 0x1209 DUP2 PUSH2 0x1110 JUMP JUMPDEST PUSH2 0x1213 DUP2 DUP5 PUSH2 0x111B JUMP JUMPDEST SWAP3 POP PUSH2 0x121E DUP3 PUSH2 0x1126 JUMP JUMPDEST DUP1 PUSH1 0x0 JUMPDEST DUP4 DUP2 LT ISZERO PUSH2 0x124F JUMPI DUP2 MLOAD PUSH2 0x1236 DUP8 DUP3 PUSH2 0x11DB JUMP JUMPDEST SWAP7 POP PUSH2 0x1241 DUP4 PUSH2 0x11F3 JUMP JUMPDEST SWAP3 POP POP PUSH1 0x1 DUP2 ADD SWAP1 POP PUSH2 0x1222 JUMP JUMPDEST POP POP POP POP POP POP JUMP JUMPDEST PUSH1 0x0 DUP2 MLOAD SWAP1 POP SWAP2 SWAP1 POP JUMP JUMPDEST PUSH1 0x0 DUP3 DUP3 MSTORE PUSH1 0x20 DUP3 ADD SWAP1 POP SWAP3 SWAP2 POP POP JUMP JUMPDEST PUSH1 0x0 DUP2 SWAP1 POP PUSH1 0x20 DUP3 ADD SWAP1 POP SWAP2 SWAP1 POP JUMP JUMPDEST PUSH1 0x0 PUSH1 0x20 DUP3 ADD SWAP1 POP SWAP2 SWAP1 POP JUMP JUMPDEST PUSH1 0x0 PUSH2 0x129B DUP3 PUSH2 0x1257 JUMP JUMPDEST PUSH2 0x12A5 DUP2 DUP6 PUSH2 0x1262 JUMP JUMPDEST SWAP4 POP PUSH2 0x12B0 DUP4 PUSH2 0x1273 JUMP JUMPDEST DUP1 PUSH1 0x0 JUMPDEST DUP4 DUP2 LT ISZERO PUSH2 0x12E1 JUMPI DUP2 MLOAD PUSH2 0x12C8 DUP9 DUP3 PUSH2 0x115F JUMP JUMPDEST SWAP8 POP PUSH2 0x12D3 DUP4 PUSH2 0x1283 JUMP JUMPDEST SWAP3 POP POP PUSH1 0x1 DUP2 ADD SWAP1 POP PUSH2 0x12B4 JUMP JUMPDEST POP DUP6 SWAP4 POP POP POP POP SWAP3 SWAP2 POP POP JUMP JUMPDEST PUSH1 0x0 PUSH2 0x280 DUP3 ADD SWAP1 POP DUP2 DUP2 SUB PUSH1 0x0 DUP4 ADD MSTORE PUSH2 0x1309 DUP2 DUP9 PUSH2 0x10B2 JUMP JUMPDEST SWAP1 POP PUSH2 0x1318 PUSH1 0x20 DUP4 ADD DUP8 PUSH2 0x1200 JUMP JUMPDEST DUP2 DUP2 SUB PUSH2 0x220 DUP4 ADD MSTORE PUSH2 0x132B DUP2 DUP7 PUSH2 0x1290 JUMP JUMPDEST SWAP1 POP PUSH2 0x133B PUSH2 0x240 DUP4 ADD DUP6 PUSH2 0xF4F JUMP JUMPDEST PUSH2 0x1349 PUSH2 0x260 DUP4 ADD DUP5 PUSH2 0xF85 JUMP JUMPDEST SWAP7 SWAP6 POP POP POP POP POP POP JUMP JUMPDEST PUSH1 0x0 DUP2 SWAP1 POP SWAP2 SWAP1 POP JUMP JUMPDEST PUSH2 0x1366 DUP2 PUSH2 0x1353 JUMP JUMPDEST DUP2 EQ PUSH2 0x1371 JUMPI PUSH1 0x0 DUP1 REVERT JUMPDEST POP JUMP JUMPDEST PUSH1 0x0 DUP2 CALLDATALOAD SWAP1 POP PUSH2 0x1383 DUP2 PUSH2 0x135D JUMP JUMPDEST SWAP3 SWAP2 POP POP JUMP JUMPDEST PUSH1 0x0 PUSH1 0x20 DUP3 DUP5 SUB SLT ISZERO PUSH2 0x139F JUMPI PUSH2 0x139E PUSH2 0xFAF JUMP JUMPDEST JUMPDEST PUSH1 0x0 PUSH2 0x13AD DUP5 DUP3 DUP6 ADD PUSH2 0x1374 JUMP JUMPDEST SWAP2 POP POP SWAP3 SWAP2 POP POP JUMP JUMPDEST PUSH2 0x13BF DUP2 PUSH2 0x106C JUMP JUMPDEST DUP3 MSTORE POP POP JUMP JUMPDEST PUSH1 0x0 PUSH1 0x60 DUP3 ADD SWAP1 POP PUSH2 0x13DA PUSH1 0x0 DUP4 ADD DUP7 PUSH2 0x13B6 JUMP JUMPDEST PUSH2 0x13E7 PUSH1 0x20 DUP4 ADD DUP6 PUSH2 0xF4F JUMP JUMPDEST PUSH2 0x13F4 PUSH1 0x40 DUP4 ADD DUP5 PUSH2 0xF4F JUMP JUMPDEST SWAP5 SWAP4 POP POP POP POP JUMP JUMPDEST PUSH1 0x0 DUP3 DUP3 MSTORE PUSH1 0x20 DUP3 ADD SWAP1 POP SWAP3 SWAP2 POP POP JUMP JUMPDEST PUSH32 0x47616D6520686173206E6F742073746172746564000000000000000000000000 PUSH1 0x0 DUP3 ADD MSTORE POP JUMP JUMPDEST PUSH1 0x0 PUSH2 0x1443 PUSH1 0x14 DUP4 PUSH2 0x13FC JUMP JUMPDEST SWAP2 POP PUSH2 0x144E DUP3 PUSH2 0x140D JUMP JUMPDEST PUSH1 0x20 DUP3 ADD SWAP1 POP SWAP2 SWAP1 POP JUMP JUMPDEST PUSH1 0x0 PUSH1 0x20 DUP3 ADD SWAP1 POP DUP2 DUP2 SUB PUSH1 0x0 DUP4 ADD MSTORE PUSH2 0x1472 DUP2 PUSH2 0x1436 JUMP JUMPDEST SWAP1 POP SWAP2 SWAP1 POP JUMP JUMPDEST PUSH32 0x4E487B7100000000000000000000000000000000000000000000000000000000 PUSH1 0x0 MSTORE PUSH1 0x32 PUSH1 0x4 MSTORE PUSH1 0x24 PUSH1 0x0 REVERT JUMPDEST PUSH32 0x4E6F7420796F7572207475726E00000000000000000000000000000000000000 PUSH1 0x0 DUP3 ADD MSTORE POP JUMP JUMPDEST PUSH1 0x0 PUSH2 0x14DE PUSH1 0xD DUP4 PUSH2 0x13FC JUMP JUMPDEST SWAP2 POP PUSH2 0x14E9 DUP3 PUSH2 0x14A8 JUMP JUMPDEST PUSH1 0x20 DUP3 ADD SWAP1 POP SWAP2 SWAP1 POP JUMP JUMPDEST PUSH1 0x0 PUSH1 0x20 DUP3 ADD SWAP1 POP DUP2 DUP2 SUB PUSH1 0x0 DUP4 ADD MSTORE PUSH2 0x150D DUP2 PUSH2 0x14D1 JUMP JUMPDEST SWAP1 POP SWAP2 SWAP1 POP JUMP JUMPDEST PUSH32 0x496E76616C696420746F6B656E20696E64657800000000000000000000000000 PUSH1 0x0 DUP3 ADD MSTORE POP JUMP JUMPDEST PUSH1 0x0 PUSH2 0x154A PUSH1 0x13 DUP4 PUSH2 0x13FC JUMP JUMPDEST SWAP2 POP PUSH2 0x1555 DUP3 PUSH2 0x1514 JUMP JUMPDEST PUSH1 0x20 DUP3 ADD SWAP1 POP SWAP2 SWAP1 POP JUMP JUMPDEST PUSH1 0x0 PUSH1 0x20 DUP3 ADD SWAP1 POP DUP2 DUP2 SUB PUSH1 0x0 DUP4 ADD MSTORE PUSH2 0x1579 DUP2 PUSH2 0x153D JUMP JUMPDEST SWAP1 POP SWAP2 SWAP1 POP JUMP JUMPDEST PUSH32 0x4E6565642061203620746F206D6F76652066726F6D2073746172740000000000 PUSH1 0x0 DUP3 ADD MSTORE POP JUMP JUMPDEST PUSH1 0x0 PUSH2 0x15B6 PUSH1 0x1B DUP4 PUSH2 0x13FC JUMP JUMPDEST SWAP2 POP PUSH2 0x15C1 DUP3 PUSH2 0x1580 JUMP JUMPDEST PUSH1 0x20 DUP3 ADD SWAP1 POP SWAP2 SWAP1 POP JUMP JUMPDEST PUSH1 0x0 PUSH1 0x20 DUP3 ADD SWAP1 POP DUP2 DUP2 SUB PUSH1 0x0 DUP4 ADD MSTORE PUSH2 0x15E5 DUP2 PUSH2 0x15A9 JUMP JUMPDEST SWAP1 POP SWAP2 SWAP1 POP JUMP JUMPDEST PUSH32 0x4E487B7100000000000000000000000000000000000000000000000000000000 PUSH1 0x0 MSTORE PUSH1 0x11 PUSH1 0x4 MSTORE PUSH1 0x24 PUSH1 0x0 REVERT JUMPDEST PUSH1 0x0 PUSH2 0x1626 DUP3 PUSH2 0xF42 JUMP JUMPDEST SWAP2 POP PUSH2 0x1631 DUP4 PUSH2 0xF42 JUMP JUMPDEST SWAP3 POP DUP3 DUP3 SUB SWAP1 POP PUSH1 0xFF DUP2 GT ISZERO PUSH2 0x164A JUMPI PUSH2 0x1649 PUSH2 0x15EC JUMP JUMPDEST JUMPDEST SWAP3 SWAP2 POP POP JUMP JUMPDEST PUSH1 0x0 PUSH2 0x165B DUP3 PUSH2 0xF42 JUMP JUMPDEST SWAP2 POP PUSH2 0x1666 DUP4 PUSH2 0xF42 JUMP JUMPDEST SWAP3 POP DUP3 DUP3 ADD SWAP1 POP PUSH1 0xFF DUP2 GT ISZERO PUSH2 0x167F JUMPI PUSH2 0x167E PUSH2 0x15EC JUMP JUMPDEST JUMPDEST SWAP3 SWAP2 POP POP JUMP JUMPDEST PUSH32 0x4E487B7100000000000000000000000000000000000000000000000000000000 PUSH1 0x0 MSTORE PUSH1 0x12 PUSH1 0x4 MSTORE PUSH1 0x24 PUSH1 0x0 REVERT JUMPDEST PUSH1 0x0 PUSH2 0x16BF DUP3 PUSH2 0xF42 JUMP JUMPDEST SWAP2 POP PUSH2 0x16CA DUP4 PUSH2 0xF42 JUMP JUMPDEST SWAP3 POP DUP3 PUSH2 0x16DA JUMPI PUSH2 0x16D9 PUSH2 0x1685 JUMP JUMPDEST JUMPDEST DUP3 DUP3 MOD SWAP1 POP SWAP3 SWAP2 POP POP JUMP JUMPDEST PUSH1 0x0 PUSH1 0x60 DUP3 ADD SWAP1 POP PUSH2 0x16FA PUSH1 0x0 DUP4 ADD DUP7 PUSH2 0x13B6 JUMP JUMPDEST PUSH2 0x1707 PUSH1 0x20 DUP4 ADD DUP6 PUSH2 0x13B6 JUMP JUMPDEST PUSH2 0x1714 PUSH1 0x40 DUP4 ADD DUP5 PUSH2 0xF4F JUMP JUMPDEST SWAP5 SWAP4 POP POP POP POP JUMP JUMPDEST PUSH1 0x0 PUSH2 0x1727 DUP3 PUSH2 0xF42 JUMP JUMPDEST SWAP2 POP PUSH1 0xFF DUP3 SUB PUSH2 0x173A JUMPI PUSH2 0x1739 PUSH2 0x15EC JUMP JUMPDEST JUMPDEST PUSH1 0x1 DUP3 ADD SWAP1 POP SWAP2 SWAP1 POP JUMP JUMPDEST PUSH1 0x0 PUSH1 0x20 DUP3 ADD SWAP1 POP PUSH2 0x175A PUSH1 0x0 DUP4 ADD DUP5 PUSH2 0x13B6 JUMP JUMPDEST SWAP3 SWAP2 POP POP JUMP JUMPDEST PUSH1 0x0 DUP2 SWAP1 POP SWAP2 SWAP1 POP JUMP JUMPDEST PUSH2 0x177B PUSH2 0x1776 DUP3 PUSH2 0x1353 JUMP JUMPDEST PUSH2 0x1760 JUMP JUMPDEST DUP3 MSTORE POP POP JUMP JUMPDEST PUSH1 0x0 DUP2 PUSH1 0x60 SHL SWAP1 POP SWAP2 SWAP1 POP JUMP JUMPDEST PUSH1 0x0 PUSH2 0x1799 DUP3 PUSH2 0x1781 JUMP JUMPDEST SWAP1 POP SWAP2 SWAP1 POP JUMP JUMPDEST PUSH1 0x0 PUSH2 0x17AB DUP3 PUSH2 0x178E JUMP JUMPDEST SWAP1 POP SWAP2 SWAP1 POP JUMP JUMPDEST PUSH2 0x17C3 PUSH2 0x17BE DUP3 PUSH2 0x106C JUMP JUMPDEST PUSH2 0x17A0 JUMP JUMPDEST DUP3 MSTORE POP POP JUMP JUMPDEST PUSH1 0x0 PUSH2 0x17D5 DUP3 DUP8 PUSH2 0x176A JUMP JUMPDEST PUSH1 0x20 DUP3 ADD SWAP2 POP PUSH2 0x17E5 DUP3 DUP7 PUSH2 0x176A JUMP JUMPDEST PUSH1 0x20 DUP3 ADD SWAP2 POP PUSH2 0x17F5 DUP3 DUP6 PUSH2 0x17B2 JUMP JUMPDEST PUSH1 0x14 DUP3 ADD SWAP2 POP PUSH2 0x1805 DUP3 DUP5 PUSH2 0x176A JUMP JUMPDEST PUSH1 0x20 DUP3 ADD SWAP2 POP DUP2 SWAP1 POP SWAP6 SWAP5 POP POP POP POP POP JUMP JUMPDEST PUSH1 0x0 PUSH2 0x1822 DUP3 PUSH2 0x1353 JUMP JUMPDEST SWAP2 POP PUSH32 0xFFFFFFFFFFFFFFFFFFFFFFFFFFFFFFFFFFFFFFFFFFFFFFFFFFFFFFFFFFFFFFFF DUP3 SUB PUSH2 0x1854 JUMPI PUSH2 0x1853 PUSH2 0x15EC JUMP JUMPDEST JUMPDEST PUSH1 0x1 DUP3 ADD SWAP1 POP SWAP2 SWAP1 POP JUMP JUMPDEST PUSH1 0x0 PUSH2 0x186A DUP3 PUSH2 0x1353 JUMP JUMPDEST SWAP2 POP PUSH2 0x1875 DUP4 PUSH2 0x1353 JUMP JUMPDEST SWAP3 POP DUP3 PUSH2 0x1885 JUMPI PUSH2 0x1884 PUSH2 0x1685 JUMP JUMPDEST JUMPDEST DUP3 DUP3 MOD SWAP1 POP SWAP3 SWAP2 POP POP JUMP JUMPDEST PUSH1 0x0 PUSH1 0x40 DUP3 ADD SWAP1 POP PUSH2 0x18A5 PUSH1 0x0 DUP4 ADD DUP6 PUSH2 0x13B6 JUMP JUMPDEST PUSH2 0x18B2 PUSH1 0x20 DUP4 ADD DUP5 PUSH2 0xF4F JUMP JUMPDEST SWAP4 SWAP3 POP POP POP JUMP JUMPDEST PUSH32 0x4E487B7100000000000000000000000000000000000000000000000000000000 PUSH1 0x0 MSTORE PUSH1 0x41 PUSH1 0x4 MSTORE PUSH1 0x24 PUSH1 0x0 REVERT JUMPDEST PUSH1 0x0 PUSH2 0x18F3 DUP3 PUSH2 0xF42 JUMP JUMPDEST SWAP2 POP PUSH2 0x18FE DUP4 PUSH2 0xF42 JUMP JUMPDEST SWAP3 POP DUP3 PUSH2 0x190E JUMPI PUSH2 0x190D PUSH2 0x1685 JUMP JUMPDEST JUMPDEST DUP3 DUP3 DIV SWAP1 POP SWAP3 SWAP2 POP POP JUMP JUMPDEST PUSH1 0x0 PUSH2 0x1924 DUP3 PUSH2 0xF42 JUMP JUMPDEST SWAP2 POP PUSH2 0x192F DUP4 PUSH2 0xF42 JUMP JUMPDEST SWAP3 POP DUP3 DUP3 MUL PUSH2 0x193D DUP2 PUSH2 0xF42 JUMP JUMPDEST SWAP2 POP DUP1 DUP3 EQ PUSH2 0x194F JUMPI PUSH2 0x194E PUSH2 0x15EC JUMP JUMPDEST JUMPDEST POP SWAP3 SWAP2 POP POP JUMP JUMPDEST PUSH32 0x4E6F7420656E6F75676820706C61796572730000000000000000000000000000 PUSH1 0x0 DUP3 ADD MSTORE POP JUMP JUMPDEST PUSH1 0x0 PUSH2 0x198C PUSH1 0x12 DUP4 PUSH2 0x13FC JUMP JUMPDEST SWAP2 POP PUSH2 0x1997 DUP3 PUSH2 0x1956 JUMP JUMPDEST PUSH1 0x20 DUP3 ADD SWAP1 POP SWAP2 SWAP1 POP JUMP JUMPDEST PUSH1 0x0 PUSH1 0x20 DUP3 ADD SWAP1 POP DUP2 DUP2 SUB PUSH1 0x0 DUP4 ADD MSTORE PUSH2 0x19BB DUP2 PUSH2 0x197F JUMP JUMPDEST SWAP1 POP SWAP2 SWAP1 POP JUMP INVALID LOG2 PUSH5 0x6970667358 0x22 SLT KECCAK256 0xDC RETURNCONTRACT 0x36 0xD6 SWAP8 DUP13 0xDC 0xC9 XOR CALLDATACOPY 0xA5 0xB5 0xBA 0xDD NOT GT SWAP2 PUSH10 0xFE2787493D76F17D5E95 0x4C 0xB3 0xF 0xC3 PUSH5 0x736F6C6343 STOP ADDMOD 0x1E STOP CALLER "
        },
        "methodIdentifiers": {
          "currentPlayerIndex()": "fb9bdab4",
          "gameInProgress()": "3fb64e75",
          "getGameState()": "b7d0628b",
          "joinGame()": "d4f77b1c",
          "moveToken(uint8,uint8)": "63da0887",
          "playerCount()": "302bcc57",
          "players(uint256)": "f71d96cb",
          "rollDice()": "837e7cc6",
          "startGame()": "d65ab5f2"
        }
      }
    }
  }
}