{
  "_format": "hh-sol-artifact-1",
  "contractName": "RolesRegistry",
  "sourceName": "contracts/RolesRegistry.sol",
  "abi": [
    {
      "anonymous": false,
      "inputs": [
        {
          "indexed": true,
          "internalType": "address",
          "name": "tokenAddress",
          "type": "address"
        },
        {
          "indexed": true,
          "internalType": "address",
          "name": "operator",
          "type": "address"
        },
        {
          "indexed": false,
          "internalType": "bool",
          "name": "approved",
          "type": "bool"
        }
      ],
      "name": "RoleApprovalForAll",
      "type": "event"
    },
    {
      "anonymous": false,
      "inputs": [
        {
          "indexed": true,
          "internalType": "address",
          "name": "tokenAddress",
          "type": "address"
        },
        {
          "indexed": true,
          "internalType": "uint256",
          "name": "tokenId",
          "type": "uint256"
        },
        {
          "indexed": true,
          "internalType": "bytes32",
          "name": "roleId",
          "type": "bytes32"
        },
        {
          "indexed": false,
          "internalType": "address",
          "name": "grantor",
          "type": "address"
        },
        {
          "indexed": false,
          "internalType": "address",
          "name": "recipient",
          "type": "address"
        },
        {
          "indexed": false,
          "internalType": "uint64",
          "name": "expirationDate",
          "type": "uint64"
        },
        {
          "indexed": false,
          "internalType": "bool",
          "name": "revocable",
          "type": "bool"
        },
        {
          "indexed": false,
          "internalType": "bytes",
          "name": "data",
          "type": "bytes"
        }
      ],
      "name": "RoleGranted",
      "type": "event"
    },
    {
      "anonymous": false,
      "inputs": [
        {
          "indexed": true,
          "internalType": "address",
          "name": "tokenAddress",
          "type": "address"
        },
        {
          "indexed": true,
          "internalType": "uint256",
          "name": "tokenId",
          "type": "uint256"
        },
        {
          "indexed": true,
          "internalType": "bytes32",
          "name": "roleId",
          "type": "bytes32"
        }
      ],
      "name": "RoleRevoked",
      "type": "event"
    },
    {
      "inputs": [
        {
          "internalType": "address",
          "name": "tokenAddress",
          "type": "address"
        },
        {
          "internalType": "uint256",
          "name": "tokenId",
          "type": "uint256"
        },
        {
          "internalType": "bytes32",
          "name": "roleId",
          "type": "bytes32"
        }
      ],
      "name": "getRoleWeight",
      "outputs": [
        {
          "internalType": "uint256",
          "name": "",
          "type": "uint256"
        }
      ],
      "stateMutability": "view",
      "type": "function"
    },
    {
      "inputs": [
        {
          "components": [
            {
              "internalType": "address",
              "name": "tokenAddress",
              "type": "address"
            },
            {
              "internalType": "uint256",
              "name": "tokenId",
              "type": "uint256"
            },
            {
              "internalType": "bytes32",
              "name": "roleId",
              "type": "bytes32"
            },
            {
              "internalType": "address",
              "name": "recipient",
              "type": "address"
            },
            {
              "internalType": "uint64",
              "name": "expirationDate",
              "type": "uint64"
            },
            {
              "internalType": "bool",
              "name": "revocable",
              "type": "bool"
            },
            {
              "internalType": "bytes",
              "name": "data",
              "type": "bytes"
            }
          ],
          "internalType": "struct Role",
          "name": "_role",
          "type": "tuple"
        }
      ],
      "name": "grantRole",
      "outputs": [],
      "stateMutability": "nonpayable",
      "type": "function"
    },
    {
      "inputs": [
        {
          "internalType": "address",
          "name": "tokenAddress",
          "type": "address"
        },
        {
          "internalType": "uint256",
          "name": "tokenId",
          "type": "uint256"
        },
        {
          "internalType": "bytes32",
          "name": "roleId",
          "type": "bytes32"
        }
      ],
      "name": "hasActiveRole",
      "outputs": [
        {
          "internalType": "bool",
          "name": "",
          "type": "bool"
        }
      ],
      "stateMutability": "view",
      "type": "function"
    },
    {
      "inputs": [
        {
          "internalType": "address",
          "name": "tokenAddress",
          "type": "address"
        },
        {
          "internalType": "address",
          "name": "owner",
          "type": "address"
        },
        {
          "internalType": "address",
          "name": "operator",
          "type": "address"
        }
      ],
      "name": "isRoleApprovedForAll",
      "outputs": [
        {
          "internalType": "bool",
          "name": "",
          "type": "bool"
        }
      ],
      "stateMutability": "view",
      "type": "function"
    },
    {
      "inputs": [
        {
          "internalType": "address",
          "name": "tokenAddress",
          "type": "address"
        },
        {
          "internalType": "uint256",
          "name": "tokenId",
          "type": "uint256"
        },
        {
          "internalType": "bytes32",
          "name": "roleId",
          "type": "bytes32"
        }
      ],
      "name": "isRoleRevocable",
      "outputs": [
        {
          "internalType": "bool",
          "name": "revocable_",
          "type": "bool"
        }
      ],
      "stateMutability": "view",
      "type": "function"
    },
    {
      "inputs": [
        {
          "internalType": "address",
          "name": "",
          "type": "address"
        },
        {
          "internalType": "uint256",
          "name": "",
          "type": "uint256"
        }
      ],
      "name": "ownerOf",
      "outputs": [
        {
          "internalType": "address",
          "name": "owner_",
          "type": "address"
        }
      ],
      "stateMutability": "pure",
      "type": "function"
    },
    {
      "inputs": [
        {
          "internalType": "address",
          "name": "tokenAddress",
          "type": "address"
        },
        {
          "internalType": "uint256",
          "name": "tokenId",
          "type": "uint256"
        },
        {
          "internalType": "bytes32",
          "name": "roleId",
          "type": "bytes32"
        }
      ],
      "name": "recipientOf",
      "outputs": [
        {
          "internalType": "address",
          "name": "recipient_",
          "type": "address"
        }
      ],
      "stateMutability": "view",
      "type": "function"
    },
    {
      "inputs": [
        {
          "internalType": "address",
          "name": "tokenAddress",
          "type": "address"
        },
        {
          "internalType": "uint256",
          "name": "tokenId",
          "type": "uint256"
        },
        {
          "internalType": "bytes32",
          "name": "roleId",
          "type": "bytes32"
        }
      ],
      "name": "revokeRole",
      "outputs": [],
      "stateMutability": "nonpayable",
      "type": "function"
    },
    {
      "inputs": [
        {
          "internalType": "address",
          "name": "tokenAddress",
          "type": "address"
        },
        {
          "internalType": "uint256",
          "name": "tokenId",
          "type": "uint256"
        },
        {
          "internalType": "bytes32",
          "name": "roleId",
          "type": "bytes32"
        }
      ],
      "name": "roleData",
      "outputs": [
        {
          "internalType": "bytes",
          "name": "data_",
          "type": "bytes"
        }
      ],
      "stateMutability": "view",
      "type": "function"
    },
    {
      "inputs": [
        {
          "internalType": "address",
          "name": "tokenAddress",
          "type": "address"
        },
        {
          "internalType": "uint256",
          "name": "tokenId",
          "type": "uint256"
        },
        {
          "internalType": "bytes32",
          "name": "roleId",
          "type": "bytes32"
        }
      ],
      "name": "roleExpirationDate",
      "outputs": [
        {
          "internalType": "uint64",
          "name": "expirationDate_",
          "type": "uint64"
        }
      ],
      "stateMutability": "view",
      "type": "function"
    },
    {
      "inputs": [
        {
          "internalType": "address",
          "name": "tokenAddress",
          "type": "address"
        },
        {
          "internalType": "address",
          "name": "operator",
          "type": "address"
        },
        {
          "internalType": "bool",
          "name": "approved",
          "type": "bool"
        }
      ],
      "name": "setRoleApprovalForAll",
      "outputs": [],
      "stateMutability": "nonpayable",
      "type": "function"
    },
    {
      "inputs": [
        {
          "internalType": "address",
          "name": "",
          "type": "address"
        },
        {
          "internalType": "uint256",
          "name": "",
          "type": "uint256"
        }
      ],
      "name": "unlockToken",
      "outputs": [],
      "stateMutability": "pure",
      "type": "function"
    }
  ],
  "bytecode": "0x60808060405234601557610c55908161001b8239f35b600080fdfe608080604052600436101561001357600080fd5b60003560e01c9081630adc11c01461086e575080631f29d2dc1461084957806331e9e9c01461082e5780633f916b48146107d657806365b0205b146107715780636d2feecf1461070b578063a34adf0a14610670578063b0dcf27f1461024e578063d5ced376146101cc578063e51aa8a1146101ab578063f196d1cd146100fa5763fe8dc863146100a357600080fd5b346100f5576100b136610a1b565b9160018060a01b03166000526000602052604060002090600052602052604060002090600052602052602060ff60016040600020015460e01c166040519015158152f35b600080fd5b346100f557602061010a36610a1b565b6001600160a01b0383811660009081526020818152604080832086845282528083208584529091529020600101541615159290919083610152575b5050506040519015158152f35b610197935060018060a01b031660005260006020526040600020906000526020526040600020906000526020526001600160401b0360016040600020015460a01c1690565b6001600160401b0342911611828080610145565b346100f55760206101c46101be36610a1b565b91610bf2565b604051908152f35b346100f55760603660031901126100f5576101e56109ef565b6101ed610a05565b604435916001600160a01b03831683036100f55760018060a01b0316600052600160205260406000209060018060a01b031660005260205260406000209060018060a01b0316600052602052602060ff604060002054166040519015158152f35b346100f55760203660031901126100f5576004356001600160401b0381116100f5578060040160e060031983360301126100f55760648201906001600160a01b0361029883610b8b565b1615610637576102a782610b8b565b608484016102b481610b9f565b9360a48601926102c384610bb3565b60c48801916102d28388610bc0565b9290916040519160a083018381106001600160401b0382111761062157604052338352602083019160018060a01b031682526001600160401b03604084019b168b526060830190151581526001600160401b0385116106215760405194610343601f8201601f191660200187610a96565b80865236818601116100f557602081600092600297838a013787010152608083019485526001600160a01b036103788b610b8b565b16600052600060205260406000209a60248d01359b8c600052602052604460406000209d01359c8d60005260205260406000209360018060a01b039060018060a01b03905116166bffffffffffffffffffffffff60a01b855416178455600184019260018060a01b039060018060a01b03905116166bffffffffffffffffffffffff60a01b845416178355519082549060ff60e01b9051151560e01b16916001600160401b0360a01b9060a01b169068ffffffffffffffffff60a01b1916171790550190518051906001600160401b038211610621576104588354610a45565b601f81116105e4575b50602090601f83116001146105525792826104e6937f9f743023185efab1abaf28721c6d4ab3ecc515f75a871c8299a3c9a5328572879998969360c09896600092610547575b50508160011b916000199060031b1c19161790555b6104e06104da6104d46104ce8b610b8b565b95610b8b565b95610b9f565b96610bb3565b97610bc0565b969087916001600160401b0360405197889633885260018060a01b031660208801521660408601521515606085015260a060808501528160a08501528484013760008287018401526001600160a01b031694601f01601f19168101030190a4005b015190508d806104a7565b90601f1983169184600052816000209260005b8181106105cc5750937f9f743023185efab1abaf28721c6d4ab3ecc515f75a871c8299a3c9a5328572879998969360c0989693600193836104e698106105b3575b505050811b0190556104bc565b015160001960f88460031b161c191690558d80806105a6565b92936020600181928786015181550195019301610565565b61061190846000526020600020601f850160051c81019160208610610617575b601f0160051c0190610a7f565b8a610461565b9091508190610604565b634e487b7160e01b600052604160045260246000fd5b60405162461bcd60e51b8152602060048201526011602482015270125b9d985b1a59081c9958da5c1a595b9d607a1b6044820152606490fd5b346100f55760603660031901126100f5576106896109ef565b610691610a05565b604435918215158093036100f5576001600160a01b03908116600081815260016020908152604080832033845282528083209590941680835294815290839020805460ff191660ff8716179055915193845291927fa9f861543e61f98894ecc9e3edeb6ca82ac424611eb0d8943a84bb89a2eb1d0b9190a3005b346100f55761072261071c36610a1b565b91610ab7565b60405190602082528181519182602083015260005b8381106107595750508160006040809484010152601f80199101168101030190f35b60208282018101516040878401015285935001610737565b346100f55760206107c561078436610a1b565b9160018060a01b031660005260006020526040600020906000526020526040600020906000526020526001600160401b0360016040600020015460a01c1690565b6001600160401b0360405191168152f35b346100f557602061081c6107e936610a1b565b6001600160a01b039283166000908152602081815260408083209483529381528382209282529190915220600101541690565b6040516001600160a01b039091168152f35b346100f55760403660031901126100f5576108476109ef565b005b346100f55760403660031901126100f5576108626109ef565b50602060405160008152f35b346100f55761087c36610a1b565b92909160018060a01b03169081600052600060205260406000208360005260205260406000208460005260205260406000209060ff600183015460e01c16156109b85750546001600160a01b03163303610982578060005260006020526040600020826000526020526040600020836000526020526002604060002060008155600060018201550161090e8154610a45565b908161093e575b50507fcfe1e8ce2ffe3e32a117cfb36d1fa8af703998cae381df7f35a8bb94a351a82d600080a4005b81601f600093116001146109565750555b8380610915565b8183526020832061097291601f0160051c810190600101610a7f565b808252816020812091555561094f565b60405162461bcd60e51b815260206004820152600e60248201526d2737ba103937b6329037bbb732b960911b6044820152606490fd5b62461bcd60e51b8152602060048201526012602482015271526f6c65206e6f74207265766f6361626c6560701b6044820152606490fd5b600435906001600160a01b03821682036100f557565b602435906001600160a01b03821682036100f557565b60609060031901126100f5576004356001600160a01b03811681036100f557906024359060443590565b90600182811c92168015610a75575b6020831014610a5f57565b634e487b7160e01b600052602260045260246000fd5b91607f1691610a54565b818110610a8a575050565b60008155600101610a7f565b90601f801991011681019081106001600160401b0382111761062157604052565b60018060a01b03166000526000602052604060002090600052602052604060002090600052602052600260406000200160405190816000825492610afa84610a45565b8084529360018116908115610b695750600114610b22575b50610b1f92500382610a96565b90565b90506000929192526020600020906000915b818310610b4d575050906020610b1f9282010138610b12565b6020919350806001915483858801015201910190918392610b34565b905060209250610b1f94915060ff191682840152151560051b82010138610b12565b356001600160a01b03811681036100f55790565b356001600160401b03811681036100f55790565b3580151581036100f55790565b903590601e19813603018212156100f557018035906001600160401b0382116100f5576020019181360383136100f557565b90610bfd9291610ab7565b80518015610c185781602091810103126100f5576020015190565b505060019056fea264697066735822122038d2bc00fa827a0acee007fe5d092e9a0094dca54daa266c06aecb203356fbd864736f6c634300081c0033",
  "linkReferences": {},
  "deployedLinkReferences": {}
}